{"abi":[{"inputs":[{"internalType":"uint256","name":"","type":"uint256"}],"name":"accountabilityContractAddresses","outputs":[{"internalType":"address","name":"","type":"address"}],"stateMutability":"view","type":"function"},{"inputs":[{"internalType":"address","name":"approvalRequestAddress","type":"address"}],"name":"approveRequest","outputs":[],"stateMutability":"nonpayable","type":"function"},{"inputs":[{"internalType":"address","name":"contractAddress","type":"address"}],"name":"completeOpenAccountabilityContract","outputs":[],"stateMutability":"nonpayable","type":"function"},{"inputs":[{"internalType":"address","name":"_referee","type":"address"},{"internalType":"string","name":"_name","type":"string"},{"internalType":"string","name":"_description","type":"string"},{"internalType":"address payable","name":"_failureRecipient","type":"address"}],"name":"createAccountabilityContract","outputs":[],"stateMutability":"payable","type":"function"},{"inputs":[{"internalType":"address","name":"contractAddress","type":"address"}],"name":"failOpenAccountabilityContract","outputs":[],"stateMutability":"nonpayable","type":"function"},{"inputs":[{"internalType":"uint256","name":"startIndex","type":"uint256"},{"internalType":"uint256","name":"endIndex","type":"uint256"}],"name":"getAccountabilityContractAddresses","outputs":[{"internalType":"address[]","name":"","type":"address[]"}],"stateMutability":"view","type":"function"},{"inputs":[{"internalType":"address","name":"referee","type":"address"}],"name":"getApprovalRequests","outputs":[{"internalType":"address[]","name":"","type":"address[]"}],"stateMutability":"view","type":"function"},{"inputs":[{"internalType":"address","name":"referee","type":"address"}],"name":"getClosedAccountabilityContractAddressesForReferee","outputs":[{"internalType":"address[]","name":"","type":"address[]"}],"stateMutability":"view","type":"function"},{"inputs":[{"internalType":"address","name":"user","type":"address"}],"name":"getClosedAccountabilityContractAddressesForUser","outputs":[{"internalType":"address[]","name":"","type":"address[]"}],"stateMutability":"view","type":"function"},{"inputs":[{"internalType":"address","name":"referee","type":"address"}],"name":"getOpenAccountabilityContractAddressesForReferee","outputs":[{"internalType":"address[]","name":"","type":"address[]"}],"stateMutability":"view","type":"function"},{"inputs":[{"internalType":"address","name":"user","type":"address"}],"name":"getOpenAccountabilityContractAddressesForUser","outputs":[{"internalType":"address[]","name":"","type":"address[]"}],"stateMutability":"view","type":"function"},{"inputs":[{"internalType":"uint256","name":"startIndex","type":"uint256"},{"internalType":"uint256","name":"endIndex","type":"uint256"}],"name":"getUserAddresses","outputs":[{"internalType":"address[]","name":"","type":"address[]"}],"stateMutability":"view","type":"function"},{"inputs":[],"name":"numberOfAccountabilityContracts","outputs":[{"internalType":"uint256","name":"","type":"uint256"}],"stateMutability":"view","type":"function"},{"inputs":[],"name":"numberOfReferees","outputs":[{"internalType":"uint256","name":"","type":"uint256"}],"stateMutability":"view","type":"function"},{"inputs":[],"name":"numberOfUsers","outputs":[{"internalType":"uint256","name":"","type":"uint256"}],"stateMutability":"view","type":"function"},{"inputs":[{"internalType":"uint256","name":"","type":"uint256"}],"name":"refereeAddresses","outputs":[{"internalType":"address","name":"","type":"address"}],"stateMutability":"view","type":"function"},{"inputs":[{"internalType":"address","name":"","type":"address"}],"name":"referees","outputs":[{"internalType":"uint256","name":"managedContracts","type":"uint256"}],"stateMutability":"view","type":"function"},{"inputs":[{"internalType":"address","name":"approvalRequestAddress","type":"address"},{"internalType":"string","name":"response","type":"string"}],"name":"rejectRequest","outputs":[],"stateMutability":"nonpayable","type":"function"},{"inputs":[{"internalType":"address","name":"contractAddress","type":"address"}],"name":"requestApproval","outputs":[],"stateMutability":"nonpayable","type":"function"},{"inputs":[],"name":"totalEthInContracts","outputs":[{"internalType":"uint256","name":"","type":"uint256"}],"stateMutability":"view","type":"function"},{"inputs":[{"internalType":"uint256","name":"","type":"uint256"}],"name":"userAddresses","outputs":[{"internalType":"address","name":"","type":"address"}],"stateMutability":"view","type":"function"},{"inputs":[{"internalType":"address","name":"","type":"address"}],"name":"users","outputs":[{"internalType":"uint256","name":"createdContracts","type":"uint256"}],"stateMutability":"view","type":"function"}],"evm":{"assembly":"    /* \"Contracts\":57:9597  contract AccountabilityContractFactory {... */\n  mstore(0x40, 0x80)\n  callvalue\n  dup1\n  iszero\n  tag_1\n  jumpi\n  0x00\n  dup1\n  revert\ntag_1:\n  pop\n  dataSize(sub_0)\n  dup1\n  dataOffset(sub_0)\n  0x00\n  codecopy\n  0x00\n  return\nstop\n\nsub_0: assembly {\n        /* \"Contracts\":57:9597  contract AccountabilityContractFactory {... */\n      mstore(0x40, 0x80)\n      jumpi(tag_1, lt(calldatasize, 0x04))\n      shr(0xe0, calldataload(0x00))\n      dup1\n      0x75ce46a7\n      gt\n      tag_24\n      jumpi\n      dup1\n      0xb24e67d0\n      gt\n      tag_25\n      jumpi\n      dup1\n      0xb24e67d0\n      eq\n      tag_18\n      jumpi\n      dup1\n      0xb3b6633e\n      eq\n      tag_19\n      jumpi\n      dup1\n      0xd77399e5\n      eq\n      tag_20\n      jumpi\n      dup1\n      0xdc0e0c13\n      eq\n      tag_21\n      jumpi\n      dup1\n      0xe10bc834\n      eq\n      tag_22\n      jumpi\n      dup1\n      0xe436e826\n      eq\n      tag_23\n      jumpi\n      jump(tag_1)\n    tag_25:\n      dup1\n      0x75ce46a7\n      eq\n      tag_13\n      jumpi\n      dup1\n      0x8793ed80\n      eq\n      tag_14\n      jumpi\n      dup1\n      0x9051e234\n      eq\n      tag_15\n      jumpi\n      dup1\n      0xa87430ba\n      eq\n      tag_16\n      jumpi\n      dup1\n      0xa908f4fa\n      eq\n      tag_17\n      jumpi\n      jump(tag_1)\n    tag_24:\n      dup1\n      0x442a7bc7\n      gt\n      tag_26\n      jumpi\n      dup1\n      0x442a7bc7\n      eq\n      tag_7\n      jumpi\n      dup1\n      0x4841a885\n      eq\n      tag_8\n      jumpi\n      dup1\n      0x502c9bd5\n      eq\n      tag_9\n      jumpi\n      dup1\n      0x5b259abf\n      eq\n      tag_10\n      jumpi\n      dup1\n      0x61542c44\n      eq\n      tag_11\n      jumpi\n      dup1\n      0x64a60b47\n      eq\n      tag_12\n      jumpi\n      jump(tag_1)\n    tag_26:\n      dup1\n      0x061dff9a\n      eq\n      tag_2\n      jumpi\n      dup1\n      0x0e865751\n      eq\n      tag_3\n      jumpi\n      dup1\n      0x19ee8bd4\n      eq\n      tag_4\n      jumpi\n      dup1\n      0x38db44bc\n      eq\n      tag_5\n      jumpi\n      dup1\n      0x38fb42fd\n      eq\n      tag_6\n      jumpi\n    tag_1:\n      0x00\n      dup1\n      revert\n        /* \"Contracts\":4412:4956  function approveRequest(address approvalRequestAddress) public {... */\n    tag_2:\n      callvalue\n      dup1\n      iszero\n      tag_27\n      jumpi\n      0x00\n      dup1\n      revert\n    tag_27:\n      pop\n      tag_28\n      0x04\n      dup1\n      calldatasize\n      sub\n      dup2\n      add\n      swap1\n      tag_29\n      swap2\n      swap1\n      tag_30\n      jump\t// in\n    tag_29:\n      tag_31\n      jump\t// in\n    tag_28:\n      stop\n        /* \"Contracts\":8992:9595  function getAccountabilityContractAddresses(uint startIndex, uint endIndex) public view returns (address[] memory) {... */\n    tag_3:\n      callvalue\n      dup1\n      iszero\n      tag_32\n      jumpi\n      0x00\n      dup1\n      revert\n    tag_32:\n      pop\n      tag_33\n      0x04\n      dup1\n      calldatasize\n      sub\n      dup2\n      add\n      swap1\n      tag_34\n      swap2\n      swap1\n      tag_35\n      jump\t// in\n    tag_34:\n      tag_36\n      jump\t// in\n    tag_33:\n      mload(0x40)\n      tag_37\n      swap2\n      swap1\n      tag_38\n      jump\t// in\n    tag_37:\n      mload(0x40)\n      dup1\n      swap2\n      sub\n      swap1\n      return\n        /* \"Contracts\":2417:2611  function getClosedAccountabilityContractAddressesForReferee(address referee) public view returns (address[] memory){... */\n    tag_4:\n      callvalue\n      dup1\n      iszero\n      tag_39\n      jumpi\n      0x00\n      dup1\n      revert\n    tag_39:\n      pop\n      tag_40\n      0x04\n      dup1\n      calldatasize\n      sub\n      dup2\n      add\n      swap1\n      tag_41\n      swap2\n      swap1\n      tag_30\n      jump\t// in\n    tag_41:\n      tag_42\n      jump\t// in\n    tag_40:\n      mload(0x40)\n      tag_43\n      swap2\n      swap1\n      tag_38\n      jump\t// in\n    tag_43:\n      mload(0x40)\n      dup1\n      swap2\n      sub\n      swap1\n      return\n        /* \"Contracts\":204:252  address[] public accountabilityContractAddresses */\n    tag_5:\n      callvalue\n      dup1\n      iszero\n      tag_44\n      jumpi\n      0x00\n      dup1\n      revert\n    tag_44:\n      pop\n      tag_45\n      0x04\n      dup1\n      calldatasize\n      sub\n      dup2\n      add\n      swap1\n      tag_46\n      swap2\n      swap1\n      tag_47\n      jump\t// in\n    tag_46:\n      tag_48\n      jump\t// in\n    tag_45:\n      mload(0x40)\n      tag_49\n      swap2\n      swap1\n      tag_50\n      jump\t// in\n    tag_49:\n      mload(0x40)\n      dup1\n      swap2\n      sub\n      swap1\n      return\n        /* \"Contracts\":417:450  address[] public refereeAddresses */\n    tag_6:\n      callvalue\n      dup1\n      iszero\n      tag_51\n      jumpi\n      0x00\n      dup1\n      revert\n    tag_51:\n      pop\n      tag_52\n      0x04\n      dup1\n      calldatasize\n      sub\n      dup2\n      add\n      swap1\n      tag_53\n      swap2\n      swap1\n      tag_47\n      jump\t// in\n    tag_53:\n      tag_54\n      jump\t// in\n    tag_52:\n      mload(0x40)\n      tag_55\n      swap2\n      swap1\n      tag_50\n      jump\t// in\n    tag_55:\n      mload(0x40)\n      dup1\n      swap2\n      sub\n      swap1\n      return\n        /* \"Contracts\":1849:2027  function getOpenAccountabilityContractAddressesForUser(address user) public view returns (address[] memory){... */\n    tag_7:\n      callvalue\n      dup1\n      iszero\n      tag_56\n      jumpi\n      0x00\n      dup1\n      revert\n    tag_56:\n      pop\n      tag_57\n      0x04\n      dup1\n      calldatasize\n      sub\n      dup2\n      add\n      swap1\n      tag_58\n      swap2\n      swap1\n      tag_30\n      jump\t// in\n    tag_58:\n      tag_59\n      jump\t// in\n    tag_57:\n      mload(0x40)\n      tag_60\n      swap2\n      swap1\n      tag_38\n      jump\t// in\n    tag_60:\n      mload(0x40)\n      dup1\n      swap2\n      sub\n      swap1\n      return\n        /* \"Contracts\":256:299  uint public numberOfAccountabilityContracts */\n    tag_8:\n      callvalue\n      dup1\n      iszero\n      tag_61\n      jumpi\n      0x00\n      dup1\n      revert\n    tag_61:\n      pop\n      tag_62\n      tag_63\n      jump\t// in\n    tag_62:\n      mload(0x40)\n      tag_64\n      swap2\n      swap1\n      tag_65\n      jump\t// in\n    tag_64:\n      mload(0x40)\n      dup1\n      swap2\n      sub\n      swap1\n      return\n        /* \"Contracts\":141:171  address[] public userAddresses */\n    tag_9:\n      callvalue\n      dup1\n      iszero\n      tag_66\n      jumpi\n      0x00\n      dup1\n      revert\n    tag_66:\n      pop\n      tag_67\n      0x04\n      dup1\n      calldatasize\n      sub\n      dup2\n      add\n      swap1\n      tag_68\n      swap2\n      swap1\n      tag_47\n      jump\t// in\n    tag_68:\n      tag_69\n      jump\t// in\n    tag_67:\n      mload(0x40)\n      tag_70\n      swap2\n      swap1\n      tag_50\n      jump\t// in\n    tag_70:\n      mload(0x40)\n      dup1\n      swap2\n      sub\n      swap1\n      return\n        /* \"Contracts\":2774:3193  function failOpenAccountabilityContract(address contractAddress) public {... */\n    tag_10:\n      callvalue\n      dup1\n      iszero\n      tag_71\n      jumpi\n      0x00\n      dup1\n      revert\n    tag_71:\n      pop\n      tag_72\n      0x04\n      dup1\n      calldatasize\n      sub\n      dup2\n      add\n      swap1\n      tag_73\n      swap2\n      swap1\n      tag_30\n      jump\t// in\n    tag_73:\n      tag_74\n      jump\t// in\n    tag_72:\n      stop\n        /* \"Contracts\":3199:3627  function completeOpenAccountabilityContract(address contractAddress) public {... */\n    tag_11:\n      callvalue\n      dup1\n      iszero\n      tag_75\n      jumpi\n      0x00\n      dup1\n      revert\n    tag_75:\n      pop\n      tag_76\n      0x04\n      dup1\n      calldatasize\n      sub\n      dup2\n      add\n      swap1\n      tag_77\n      swap2\n      swap1\n      tag_30\n      jump\t// in\n    tag_77:\n      tag_78\n      jump\t// in\n    tag_76:\n      stop\n        /* \"Contracts\":338:381  mapping(address => Referee) public referees */\n    tag_12:\n      callvalue\n      dup1\n      iszero\n      tag_79\n      jumpi\n      0x00\n      dup1\n      revert\n    tag_79:\n      pop\n      tag_80\n      0x04\n      dup1\n      calldatasize\n      sub\n      dup2\n      add\n      swap1\n      tag_81\n      swap2\n      swap1\n      tag_30\n      jump\t// in\n    tag_81:\n      tag_82\n      jump\t// in\n    tag_80:\n      mload(0x40)\n      tag_83\n      swap2\n      swap1\n      tag_65\n      jump\t// in\n    tag_83:\n      mload(0x40)\n      dup1\n      swap2\n      sub\n      swap1\n      return\n        /* \"Contracts\":175:200  uint public numberOfUsers */\n    tag_13:\n      callvalue\n      dup1\n      iszero\n      tag_84\n      jumpi\n      0x00\n      dup1\n      revert\n    tag_84:\n      pop\n      tag_85\n      tag_86\n      jump\t// in\n    tag_85:\n      mload(0x40)\n      tag_87\n      swap2\n      swap1\n      tag_65\n      jump\t// in\n    tag_87:\n      mload(0x40)\n      dup1\n      swap2\n      sub\n      swap1\n      return\n        /* \"Contracts\":2617:2768  function getApprovalRequests(address referee) public view returns (address[] memory){... */\n    tag_14:\n      callvalue\n      dup1\n      iszero\n      tag_88\n      jumpi\n      0x00\n      dup1\n      revert\n    tag_88:\n      pop\n      tag_89\n      0x04\n      dup1\n      calldatasize\n      sub\n      dup2\n      add\n      swap1\n      tag_90\n      swap2\n      swap1\n      tag_30\n      jump\t// in\n    tag_90:\n      tag_91\n      jump\t// in\n    tag_89:\n      mload(0x40)\n      tag_92\n      swap2\n      swap1\n      tag_38\n      jump\t// in\n    tag_92:\n      mload(0x40)\n      dup1\n      swap2\n      sub\n      swap1\n      return\n        /* \"Contracts\":2221:2411  function getOpenAccountabilityContractAddressesForReferee(address referee) public view returns (address[] memory){... */\n    tag_15:\n      callvalue\n      dup1\n      iszero\n      tag_93\n      jumpi\n      0x00\n      dup1\n      revert\n    tag_93:\n      pop\n      tag_94\n      0x04\n      dup1\n      calldatasize\n      sub\n      dup2\n      add\n      swap1\n      tag_95\n      swap2\n      swap1\n      tag_30\n      jump\t// in\n    tag_95:\n      tag_96\n      jump\t// in\n    tag_94:\n      mload(0x40)\n      tag_97\n      swap2\n      swap1\n      tag_38\n      jump\t// in\n    tag_97:\n      mload(0x40)\n      dup1\n      swap2\n      sub\n      swap1\n      return\n        /* \"Contracts\":100:137  mapping(address => User) public users */\n    tag_16:\n      callvalue\n      dup1\n      iszero\n      tag_98\n      jumpi\n      0x00\n      dup1\n      revert\n    tag_98:\n      pop\n      tag_99\n      0x04\n      dup1\n      calldatasize\n      sub\n      dup2\n      add\n      swap1\n      tag_100\n      swap2\n      swap1\n      tag_30\n      jump\t// in\n    tag_100:\n      tag_101\n      jump\t// in\n    tag_99:\n      mload(0x40)\n      tag_102\n      swap2\n      swap1\n      tag_65\n      jump\t// in\n    tag_102:\n      mload(0x40)\n      dup1\n      swap2\n      sub\n      swap1\n      return\n        /* \"Contracts\":8491:8986  function getUserAddresses(uint startIndex, uint endIndex) public view returns (address[] memory) {... */\n    tag_17:\n      callvalue\n      dup1\n      iszero\n      tag_103\n      jumpi\n      0x00\n      dup1\n      revert\n    tag_103:\n      pop\n      tag_104\n      0x04\n      dup1\n      calldatasize\n      sub\n      dup2\n      add\n      swap1\n      tag_105\n      swap2\n      swap1\n      tag_35\n      jump\t// in\n    tag_105:\n      tag_106\n      jump\t// in\n    tag_104:\n      mload(0x40)\n      tag_107\n      swap2\n      swap1\n      tag_38\n      jump\t// in\n    tag_107:\n      mload(0x40)\n      dup1\n      swap2\n      sub\n      swap1\n      return\n        /* \"Contracts\":2033:2215  function getClosedAccountabilityContractAddressesForUser(address user) public view returns (address[] memory){... */\n    tag_18:\n      callvalue\n      dup1\n      iszero\n      tag_108\n      jumpi\n      0x00\n      dup1\n      revert\n    tag_108:\n      pop\n      tag_109\n      0x04\n      dup1\n      calldatasize\n      sub\n      dup2\n      add\n      swap1\n      tag_110\n      swap2\n      swap1\n      tag_30\n      jump\t// in\n    tag_110:\n      tag_111\n      jump\t// in\n    tag_109:\n      mload(0x40)\n      tag_112\n      swap2\n      swap1\n      tag_38\n      jump\t// in\n    tag_112:\n      mload(0x40)\n      dup1\n      swap2\n      sub\n      swap1\n      return\n        /* \"Contracts\":385:413  uint public numberOfReferees */\n    tag_19:\n      callvalue\n      dup1\n      iszero\n      tag_113\n      jumpi\n      0x00\n      dup1\n      revert\n    tag_113:\n      pop\n      tag_114\n      tag_115\n      jump\t// in\n    tag_114:\n      mload(0x40)\n      tag_116\n      swap2\n      swap1\n      tag_65\n      jump\t// in\n    tag_116:\n      mload(0x40)\n      dup1\n      swap2\n      sub\n      swap1\n      return\n        /* \"Contracts\":4962:5532  function rejectRequest(address approvalRequestAddress, string memory response) public {... */\n    tag_20:\n      callvalue\n      dup1\n      iszero\n      tag_117\n      jumpi\n      0x00\n      dup1\n      revert\n    tag_117:\n      pop\n      tag_118\n      0x04\n      dup1\n      calldatasize\n      sub\n      dup2\n      add\n      swap1\n      tag_119\n      swap2\n      swap1\n      tag_120\n      jump\t// in\n    tag_119:\n      tag_121\n      jump\t// in\n    tag_118:\n      stop\n        /* \"Contracts\":303:334  uint public totalEthInContracts */\n    tag_21:\n      callvalue\n      dup1\n      iszero\n      tag_122\n      jumpi\n      0x00\n      dup1\n      revert\n    tag_122:\n      pop\n      tag_123\n      tag_124\n      jump\t// in\n    tag_123:\n      mload(0x40)\n      tag_125\n      swap2\n      swap1\n      tag_65\n      jump\t// in\n    tag_125:\n      mload(0x40)\n      dup1\n      swap2\n      sub\n      swap1\n      return\n        /* \"Contracts\":3633:4406  function requestApproval(address contractAddress) public {... */\n    tag_22:\n      callvalue\n      dup1\n      iszero\n      tag_126\n      jumpi\n      0x00\n      dup1\n      revert\n    tag_126:\n      pop\n      tag_127\n      0x04\n      dup1\n      calldatasize\n      sub\n      dup2\n      add\n      swap1\n      tag_128\n      swap2\n      swap1\n      tag_30\n      jump\t// in\n    tag_128:\n      tag_129\n      jump\t// in\n    tag_127:\n      stop\n        /* \"Contracts\":813:1843  function createAccountabilityContract(address _referee, string memory _name, string memory _description, address payable _failureRecipient) public payable {... */\n    tag_23:\n      tag_130\n      0x04\n      dup1\n      calldatasize\n      sub\n      dup2\n      add\n      swap1\n      tag_131\n      swap2\n      swap1\n      tag_132\n      jump\t// in\n    tag_131:\n      tag_133\n      jump\t// in\n    tag_130:\n      stop\n        /* \"Contracts\":4412:4956  function approveRequest(address approvalRequestAddress) public {... */\n    tag_31:\n        /* \"Contracts\":4485:4538  AccountabilityContractApprovalRequest approvalRequest */\n      0x00\n        /* \"Contracts\":4579:4601  approvalRequestAddress */\n      dup2\n        /* \"Contracts\":4485:4602  AccountabilityContractApprovalRequest approvalRequest = AccountabilityContractApprovalRequest(approvalRequestAddress) */\n      swap1\n      pop\n        /* \"Contracts\":4612:4657  AccountabilityContract accountabilityContract */\n      0x00\n        /* \"Contracts\":4683:4698  approvalRequest */\n      dup2\n        /* \"Contracts\":4683:4728  approvalRequest.accountabilityContractAddress */\n      0xffffffffffffffffffffffffffffffffffffffff\n      and\n      0x3c490174\n        /* \"Contracts\":4683:4730  approvalRequest.accountabilityContractAddress() */\n      mload(0x40)\n      dup2\n      0xffffffff\n      and\n      0xe0\n      shl\n      dup2\n      mstore\n      0x04\n      add\n      0x20\n      mload(0x40)\n      dup1\n      dup4\n      sub\n      dup2\n      dup7\n      gas\n      staticcall\n      iszero\n      dup1\n      iszero\n      tag_136\n      jumpi\n      returndatasize\n      0x00\n      dup1\n      returndatacopy\n      revert(0x00, returndatasize)\n    tag_136:\n      pop\n      pop\n      pop\n      pop\n      mload(0x40)\n      returndatasize\n      not(0x1f)\n      0x1f\n      dup3\n      add\n      and\n      dup3\n      add\n      dup1\n      0x40\n      mstore\n      pop\n      dup2\n      add\n      swap1\n      tag_137\n      swap2\n      swap1\n      tag_138\n      jump\t// in\n    tag_137:\n        /* \"Contracts\":4612:4731  AccountabilityContract accountabilityContract = AccountabilityContract(approvalRequest.accountabilityContractAddress()) */\n      swap1\n      pop\n        /* \"Contracts\":4741:4756  approvalRequest */\n      dup2\n        /* \"Contracts\":4741:4771  approvalRequest.approveRequest */\n      0xffffffffffffffffffffffffffffffffffffffff\n      and\n      0x263b81c9\n        /* \"Contracts\":4741:4773  approvalRequest.approveRequest() */\n      mload(0x40)\n      dup2\n      0xffffffff\n      and\n      0xe0\n      shl\n      dup2\n      mstore\n      0x04\n      add\n      0x20\n      mload(0x40)\n      dup1\n      dup4\n      sub\n      dup2\n      0x00\n      dup8\n      gas\n      call\n      iszero\n      dup1\n      iszero\n      tag_140\n      jumpi\n      returndatasize\n      0x00\n      dup1\n      returndatacopy\n      revert(0x00, returndatasize)\n    tag_140:\n      pop\n      pop\n      pop\n      pop\n      mload(0x40)\n      returndatasize\n      not(0x1f)\n      0x1f\n      dup3\n      add\n      and\n      dup3\n      add\n      dup1\n      0x40\n      mstore\n      pop\n      dup2\n      add\n      swap1\n      tag_141\n      swap2\n      swap1\n      tag_142\n      jump\t// in\n    tag_141:\n      pop\n        /* \"Contracts\":4783:4850  completeOpenAccountabilityContract(address(accountabilityContract)) */\n      tag_143\n        /* \"Contracts\":4826:4848  accountabilityContract */\n      dup2\n        /* \"Contracts\":4783:4817  completeOpenAccountabilityContract */\n      tag_78\n        /* \"Contracts\":4783:4850  completeOpenAccountabilityContract(address(accountabilityContract)) */\n      jump\t// in\n    tag_143:\n        /* \"Contracts\":4860:4949  deleteApprovalRequestForReferee(accountabilityContract.referee(), approvalRequestAddress) */\n      tag_144\n        /* \"Contracts\":4892:4914  accountabilityContract */\n      dup2\n        /* \"Contracts\":4892:4922  accountabilityContract.referee */\n      0xffffffffffffffffffffffffffffffffffffffff\n      and\n      0x3b1bebd1\n        /* \"Contracts\":4892:4924  accountabilityContract.referee() */\n      mload(0x40)\n      dup2\n      0xffffffff\n      and\n      0xe0\n      shl\n      dup2\n      mstore\n      0x04\n      add\n      0x20\n      mload(0x40)\n      dup1\n      dup4\n      sub\n      dup2\n      dup7\n      gas\n      staticcall\n      iszero\n      dup1\n      iszero\n      tag_146\n      jumpi\n      returndatasize\n      0x00\n      dup1\n      returndatacopy\n      revert(0x00, returndatasize)\n    tag_146:\n      pop\n      pop\n      pop\n      pop\n      mload(0x40)\n      returndatasize\n      not(0x1f)\n      0x1f\n      dup3\n      add\n      and\n      dup3\n      add\n      dup1\n      0x40\n      mstore\n      pop\n      dup2\n      add\n      swap1\n      tag_147\n      swap2\n      swap1\n      tag_138\n      jump\t// in\n    tag_147:\n        /* \"Contracts\":4926:4948  approvalRequestAddress */\n      dup5\n        /* \"Contracts\":4860:4891  deleteApprovalRequestForReferee */\n      tag_148\n        /* \"Contracts\":4860:4949  deleteApprovalRequestForReferee(accountabilityContract.referee(), approvalRequestAddress) */\n      jump\t// in\n    tag_144:\n        /* \"Contracts\":4475:4956  {... */\n      pop\n      pop\n        /* \"Contracts\":4412:4956  function approveRequest(address approvalRequestAddress) public {... */\n      pop\n      jump\t// out\n        /* \"Contracts\":8992:9595  function getAccountabilityContractAddresses(uint startIndex, uint endIndex) public view returns (address[] memory) {... */\n    tag_36:\n        /* \"Contracts\":9089:9105  address[] memory */\n      0x60\n        /* \"Contracts\":9138:9139  0 */\n      0x00\n        /* \"Contracts\":9124:9134  startIndex */\n      dup4\n        /* \"Contracts\":9124:9139  startIndex >= 0 */\n      lt\n      iszero\n        /* \"Contracts\":9116:9174  require(startIndex >= 0, \"Start index cannot be negative\") */\n      tag_150\n      jumpi\n      mload(0x40)\n      0x08c379a000000000000000000000000000000000000000000000000000000000\n      dup2\n      mstore\n      0x04\n      add\n      tag_151\n      swap1\n      tag_152\n      jump\t// in\n    tag_151:\n      mload(0x40)\n      dup1\n      swap2\n      sub\n      swap1\n      revert\n    tag_150:\n        /* \"Contracts\":9203:9234  accountabilityContractAddresses */\n      0x03\n        /* \"Contracts\":9203:9241  accountabilityContractAddresses.length */\n      dup1\n      sload\n      swap1\n      pop\n        /* \"Contracts\":9191:9199  endIndex */\n      dup3\n        /* \"Contracts\":9191:9241  endIndex <= accountabilityContractAddresses.length */\n      gt\n      iszero\n        /* \"Contracts\":9183:9285  require(endIndex <= accountabilityContractAddresses.length, \"End index exceeds user addresses length\") */\n      tag_153\n      jumpi\n      mload(0x40)\n      0x08c379a000000000000000000000000000000000000000000000000000000000\n      dup2\n      mstore\n      0x04\n      add\n      tag_154\n      swap1\n      tag_155\n      jump\t// in\n    tag_154:\n      mload(0x40)\n      dup1\n      swap2\n      sub\n      swap1\n      revert\n    tag_153:\n        /* \"Contracts\":9294:9348  address[] memory slicedAccountabilityContractAddresses */\n      0x00\n        /* \"Contracts\":9374:9384  startIndex */\n      dup4\n        /* \"Contracts\":9365:9373  endIndex */\n      dup4\n        /* \"Contracts\":9365:9384  endIndex-startIndex */\n      tag_156\n      swap2\n      swap1\n      tag_157\n      jump\t// in\n    tag_156:\n        /* \"Contracts\":9351:9385  new address[](endIndex-startIndex) */\n      0xffffffffffffffff\n      dup2\n      gt\n      iszero\n      tag_158\n      jumpi\n      tag_159\n      tag_160\n      jump\t// in\n    tag_159:\n    tag_158:\n      mload(0x40)\n      swap1\n      dup1\n      dup3\n      mstore\n      dup1\n      0x20\n      mul\n      0x20\n      add\n      dup3\n      add\n      0x40\n      mstore\n      dup1\n      iszero\n      tag_161\n      jumpi\n      dup2\n      0x20\n      add\n      0x20\n      dup3\n      mul\n      dup1\n      calldatasize\n      dup4\n      calldatacopy\n      dup1\n      dup3\n      add\n      swap2\n      pop\n      pop\n      swap1\n      pop\n    tag_161:\n      pop\n        /* \"Contracts\":9294:9385  address[] memory slicedAccountabilityContractAddresses = new address[](endIndex-startIndex) */\n      swap1\n      pop\n        /* \"Contracts\":9398:9404  uint i */\n      0x00\n        /* \"Contracts\":9405:9415  startIndex */\n      dup5\n        /* \"Contracts\":9398:9415  uint i=startIndex */\n      swap1\n      pop\n        /* \"Contracts\":9394:9535  for(uint i=startIndex; i<endIndex; i++){... */\n    tag_162:\n        /* \"Contracts\":9419:9427  endIndex */\n      dup4\n        /* \"Contracts\":9417:9418  i */\n      dup2\n        /* \"Contracts\":9417:9427  i<endIndex */\n      lt\n        /* \"Contracts\":9394:9535  for(uint i=startIndex; i<endIndex; i++){... */\n      iszero\n      tag_163\n      jumpi\n        /* \"Contracts\":9490:9521  accountabilityContractAddresses */\n      0x03\n        /* \"Contracts\":9522:9523  i */\n      dup2\n        /* \"Contracts\":9490:9524  accountabilityContractAddresses[i] */\n      dup2\n      sload\n      dup2\n      lt\n      tag_165\n      jumpi\n      tag_166\n      tag_167\n      jump\t// in\n    tag_166:\n    tag_165:\n      swap1\n      0x00\n      mstore\n      keccak256(0x00, 0x20)\n      add\n      0x00\n      swap1\n      sload\n      swap1\n      0x0100\n      exp\n      swap1\n      div\n      0xffffffffffffffffffffffffffffffffffffffff\n      and\n        /* \"Contracts\":9447:9484  slicedAccountabilityContractAddresses */\n      dup3\n        /* \"Contracts\":9485:9486  i */\n      dup3\n        /* \"Contracts\":9447:9487  slicedAccountabilityContractAddresses[i] */\n      dup2\n      mload\n      dup2\n      lt\n      tag_169\n      jumpi\n      tag_170\n      tag_167\n      jump\t// in\n    tag_170:\n    tag_169:\n      0x20\n      mul\n      0x20\n      add\n      add\n        /* \"Contracts\":9447:9524  slicedAccountabilityContractAddresses[i] = accountabilityContractAddresses[i] */\n      swap1\n      0xffffffffffffffffffffffffffffffffffffffff\n      and\n      swap1\n      dup2\n      0xffffffffffffffffffffffffffffffffffffffff\n      and\n      dup2\n      mstore\n      pop\n      pop\n        /* \"Contracts\":9429:9432  i++ */\n      dup1\n      dup1\n      tag_171\n      swap1\n      tag_172\n      jump\t// in\n    tag_171:\n      swap2\n      pop\n      pop\n        /* \"Contracts\":9394:9535  for(uint i=startIndex; i<endIndex; i++){... */\n      jump(tag_162)\n    tag_163:\n      pop\n        /* \"Contracts\":9551:9588  slicedAccountabilityContractAddresses */\n      dup1\n        /* \"Contracts\":9544:9588  return slicedAccountabilityContractAddresses */\n      swap2\n      pop\n      pop\n        /* \"Contracts\":8992:9595  function getAccountabilityContractAddresses(uint startIndex, uint endIndex) public view returns (address[] memory) {... */\n      swap3\n      swap2\n      pop\n      pop\n      jump\t// out\n        /* \"Contracts\":2417:2611  function getClosedAccountabilityContractAddressesForReferee(address referee) public view returns (address[] memory){... */\n    tag_42:\n        /* \"Contracts\":2515:2531  address[] memory */\n      0x60\n        /* \"Contracts\":2549:2557  referees */\n      0x06\n        /* \"Contracts\":2549:2566  referees[referee] */\n      0x00\n        /* \"Contracts\":2558:2565  referee */\n      dup4\n        /* \"Contracts\":2549:2566  referees[referee] */\n      0xffffffffffffffffffffffffffffffffffffffff\n      and\n      0xffffffffffffffffffffffffffffffffffffffff\n      and\n      dup2\n      mstore\n      0x20\n      add\n      swap1\n      dup2\n      mstore\n      0x20\n      add\n      0x00\n      keccak256\n        /* \"Contracts\":2549:2604  referees[referee].closedAccountabilityContractAddresses */\n      0x02\n      add\n        /* \"Contracts\":2542:2604  return referees[referee].closedAccountabilityContractAddresses */\n      dup1\n      sload\n      dup1\n      0x20\n      mul\n      0x20\n      add\n      mload(0x40)\n      swap1\n      dup2\n      add\n      0x40\n      mstore\n      dup1\n      swap3\n      swap2\n      swap1\n      dup2\n      dup2\n      mstore\n      0x20\n      add\n      dup3\n      dup1\n      sload\n      dup1\n      iszero\n      tag_174\n      jumpi\n      0x20\n      mul\n      dup3\n      add\n      swap2\n      swap1\n      0x00\n      mstore\n      keccak256(0x00, 0x20)\n      swap1\n    tag_175:\n      dup2\n      0x00\n      swap1\n      sload\n      swap1\n      0x0100\n      exp\n      swap1\n      div\n      0xffffffffffffffffffffffffffffffffffffffff\n      and\n      0xffffffffffffffffffffffffffffffffffffffff\n      and\n      dup2\n      mstore\n      0x20\n      add\n      swap1\n      0x01\n      add\n      swap1\n      dup1\n      dup4\n      gt\n      tag_175\n      jumpi\n    tag_174:\n      pop\n      pop\n      pop\n      pop\n      pop\n      swap1\n      pop\n        /* \"Contracts\":2417:2611  function getClosedAccountabilityContractAddressesForReferee(address referee) public view returns (address[] memory){... */\n      swap2\n      swap1\n      pop\n      jump\t// out\n        /* \"Contracts\":204:252  address[] public accountabilityContractAddresses */\n    tag_48:\n      0x03\n      dup2\n      dup2\n      sload\n      dup2\n      lt\n      tag_176\n      jumpi\n      0x00\n      dup1\n      revert\n    tag_176:\n      swap1\n      0x00\n      mstore\n      keccak256(0x00, 0x20)\n      add\n      0x00\n      swap2\n      pop\n      sload\n      swap1\n      0x0100\n      exp\n      swap1\n      div\n      0xffffffffffffffffffffffffffffffffffffffff\n      and\n      dup2\n      jump\t// out\n        /* \"Contracts\":417:450  address[] public refereeAddresses */\n    tag_54:\n      0x08\n      dup2\n      dup2\n      sload\n      dup2\n      lt\n      tag_178\n      jumpi\n      0x00\n      dup1\n      revert\n    tag_178:\n      swap1\n      0x00\n      mstore\n      keccak256(0x00, 0x20)\n      add\n      0x00\n      swap2\n      pop\n      sload\n      swap1\n      0x0100\n      exp\n      swap1\n      div\n      0xffffffffffffffffffffffffffffffffffffffff\n      and\n      dup2\n      jump\t// out\n        /* \"Contracts\":1849:2027  function getOpenAccountabilityContractAddressesForUser(address user) public view returns (address[] memory){... */\n    tag_59:\n        /* \"Contracts\":1939:1955  address[] memory */\n      0x60\n        /* \"Contracts\":1973:1978  users */\n      0x00\n        /* \"Contracts\":1973:1984  users[user] */\n      dup1\n        /* \"Contracts\":1979:1983  user */\n      dup4\n        /* \"Contracts\":1973:1984  users[user] */\n      0xffffffffffffffffffffffffffffffffffffffff\n      and\n      0xffffffffffffffffffffffffffffffffffffffff\n      and\n      dup2\n      mstore\n      0x20\n      add\n      swap1\n      dup2\n      mstore\n      0x20\n      add\n      0x00\n      keccak256\n        /* \"Contracts\":1973:2020  users[user].openAccountabilityContractAddresses */\n      0x01\n      add\n        /* \"Contracts\":1966:2020  return users[user].openAccountabilityContractAddresses */\n      dup1\n      sload\n      dup1\n      0x20\n      mul\n      0x20\n      add\n      mload(0x40)\n      swap1\n      dup2\n      add\n      0x40\n      mstore\n      dup1\n      swap3\n      swap2\n      swap1\n      dup2\n      dup2\n      mstore\n      0x20\n      add\n      dup3\n      dup1\n      sload\n      dup1\n      iszero\n      tag_181\n      jumpi\n      0x20\n      mul\n      dup3\n      add\n      swap2\n      swap1\n      0x00\n      mstore\n      keccak256(0x00, 0x20)\n      swap1\n    tag_182:\n      dup2\n      0x00\n      swap1\n      sload\n      swap1\n      0x0100\n      exp\n      swap1\n      div\n      0xffffffffffffffffffffffffffffffffffffffff\n      and\n      0xffffffffffffffffffffffffffffffffffffffff\n      and\n      dup2\n      mstore\n      0x20\n      add\n      swap1\n      0x01\n      add\n      swap1\n      dup1\n      dup4\n      gt\n      tag_182\n      jumpi\n    tag_181:\n      pop\n      pop\n      pop\n      pop\n      pop\n      swap1\n      pop\n        /* \"Contracts\":1849:2027  function getOpenAccountabilityContractAddressesForUser(address user) public view returns (address[] memory){... */\n      swap2\n      swap1\n      pop\n      jump\t// out\n        /* \"Contracts\":256:299  uint public numberOfAccountabilityContracts */\n    tag_63:\n      sload(0x04)\n      dup2\n      jump\t// out\n        /* \"Contracts\":141:171  address[] public userAddresses */\n    tag_69:\n      0x01\n      dup2\n      dup2\n      sload\n      dup2\n      lt\n      tag_183\n      jumpi\n      0x00\n      dup1\n      revert\n    tag_183:\n      swap1\n      0x00\n      mstore\n      keccak256(0x00, 0x20)\n      add\n      0x00\n      swap2\n      pop\n      sload\n      swap1\n      0x0100\n      exp\n      swap1\n      div\n      0xffffffffffffffffffffffffffffffffffffffff\n      and\n      dup2\n      jump\t// out\n        /* \"Contracts\":2774:3193  function failOpenAccountabilityContract(address contractAddress) public {... */\n    tag_74:\n        /* \"Contracts\":2854:2899  AccountabilityContract accountabilityContract */\n      0x00\n        /* \"Contracts\":2925:2940  contractAddress */\n      dup2\n        /* \"Contracts\":2854:2941  AccountabilityContract accountabilityContract = AccountabilityContract(contractAddress) */\n      swap1\n      pop\n        /* \"Contracts\":2949:2971  accountabilityContract */\n      dup1\n        /* \"Contracts\":2949:2984  accountabilityContract.failContract */\n      0xffffffffffffffffffffffffffffffffffffffff\n      and\n      0x2d398fa6\n        /* \"Contracts\":2949:2986  accountabilityContract.failContract() */\n      mload(0x40)\n      dup2\n      0xffffffff\n      and\n      0xe0\n      shl\n      dup2\n      mstore\n      0x04\n      add\n      0x20\n      mload(0x40)\n      dup1\n      dup4\n      sub\n      dup2\n      0x00\n      dup8\n      gas\n      call\n      iszero\n      dup1\n      iszero\n      tag_187\n      jumpi\n      returndatasize\n      0x00\n      dup1\n      returndatacopy\n      revert(0x00, returndatasize)\n    tag_187:\n      pop\n      pop\n      pop\n      pop\n      mload(0x40)\n      returndatasize\n      not(0x1f)\n      0x1f\n      dup3\n      add\n      and\n      dup3\n      add\n      dup1\n      0x40\n      mstore\n      pop\n      dup2\n      add\n      swap1\n      tag_188\n      swap2\n      swap1\n      tag_189\n      jump\t// in\n    tag_188:\n      pop\n        /* \"Contracts\":2994:3084  moveOpenContractToClosedContractsForUser(accountabilityContract.creator(),contractAddress) */\n      tag_190\n        /* \"Contracts\":3035:3057  accountabilityContract */\n      dup2\n        /* \"Contracts\":3035:3065  accountabilityContract.creator */\n      0xffffffffffffffffffffffffffffffffffffffff\n      and\n      0x02d05d3f\n        /* \"Contracts\":3035:3067  accountabilityContract.creator() */\n      mload(0x40)\n      dup2\n      0xffffffff\n      and\n      0xe0\n      shl\n      dup2\n      mstore\n      0x04\n      add\n      0x20\n      mload(0x40)\n      dup1\n      dup4\n      sub\n      dup2\n      dup7\n      gas\n      staticcall\n      iszero\n      dup1\n      iszero\n      tag_192\n      jumpi\n      returndatasize\n      0x00\n      dup1\n      returndatacopy\n      revert(0x00, returndatasize)\n    tag_192:\n      pop\n      pop\n      pop\n      pop\n      mload(0x40)\n      returndatasize\n      not(0x1f)\n      0x1f\n      dup3\n      add\n      and\n      dup3\n      add\n      dup1\n      0x40\n      mstore\n      pop\n      dup2\n      add\n      swap1\n      tag_193\n      swap2\n      swap1\n      tag_138\n      jump\t// in\n    tag_193:\n        /* \"Contracts\":3068:3083  contractAddress */\n      dup4\n        /* \"Contracts\":2994:3034  moveOpenContractToClosedContractsForUser */\n      tag_194\n        /* \"Contracts\":2994:3084  moveOpenContractToClosedContractsForUser(accountabilityContract.creator(),contractAddress) */\n      jump\t// in\n    tag_190:\n        /* \"Contracts\":3092:3186  moveOpenContractToClosedContractsForReferee(accountabilityContract.referee(), contractAddress) */\n      tag_195\n        /* \"Contracts\":3136:3158  accountabilityContract */\n      dup2\n        /* \"Contracts\":3136:3166  accountabilityContract.referee */\n      0xffffffffffffffffffffffffffffffffffffffff\n      and\n      0x3b1bebd1\n        /* \"Contracts\":3136:3168  accountabilityContract.referee() */\n      mload(0x40)\n      dup2\n      0xffffffff\n      and\n      0xe0\n      shl\n      dup2\n      mstore\n      0x04\n      add\n      0x20\n      mload(0x40)\n      dup1\n      dup4\n      sub\n      dup2\n      dup7\n      gas\n      staticcall\n      iszero\n      dup1\n      iszero\n      tag_197\n      jumpi\n      returndatasize\n      0x00\n      dup1\n      returndatacopy\n      revert(0x00, returndatasize)\n    tag_197:\n      pop\n      pop\n      pop\n      pop\n      mload(0x40)\n      returndatasize\n      not(0x1f)\n      0x1f\n      dup3\n      add\n      and\n      dup3\n      add\n      dup1\n      0x40\n      mstore\n      pop\n      dup2\n      add\n      swap1\n      tag_198\n      swap2\n      swap1\n      tag_138\n      jump\t// in\n    tag_198:\n        /* \"Contracts\":3170:3185  contractAddress */\n      dup4\n        /* \"Contracts\":3092:3135  moveOpenContractToClosedContractsForReferee */\n      tag_199\n        /* \"Contracts\":3092:3186  moveOpenContractToClosedContractsForReferee(accountabilityContract.referee(), contractAddress) */\n      jump\t// in\n    tag_195:\n        /* \"Contracts\":2846:3193  {... */\n      pop\n        /* \"Contracts\":2774:3193  function failOpenAccountabilityContract(address contractAddress) public {... */\n      pop\n      jump\t// out\n        /* \"Contracts\":3199:3627  function completeOpenAccountabilityContract(address contractAddress) public {... */\n    tag_78:\n        /* \"Contracts\":3283:3328  AccountabilityContract accountabilityContract */\n      0x00\n        /* \"Contracts\":3354:3369  contractAddress */\n      dup2\n        /* \"Contracts\":3283:3370  AccountabilityContract accountabilityContract = AccountabilityContract(contractAddress) */\n      swap1\n      pop\n        /* \"Contracts\":3378:3400  accountabilityContract */\n      dup1\n        /* \"Contracts\":3378:3417  accountabilityContract.completeContract */\n      0xffffffffffffffffffffffffffffffffffffffff\n      and\n      0xb4fedc11\n        /* \"Contracts\":3378:3419  accountabilityContract.completeContract() */\n      mload(0x40)\n      dup2\n      0xffffffff\n      and\n      0xe0\n      shl\n      dup2\n      mstore\n      0x04\n      add\n      0x20\n      mload(0x40)\n      dup1\n      dup4\n      sub\n      dup2\n      0x00\n      dup8\n      gas\n      call\n      iszero\n      dup1\n      iszero\n      tag_202\n      jumpi\n      returndatasize\n      0x00\n      dup1\n      returndatacopy\n      revert(0x00, returndatasize)\n    tag_202:\n      pop\n      pop\n      pop\n      pop\n      mload(0x40)\n      returndatasize\n      not(0x1f)\n      0x1f\n      dup3\n      add\n      and\n      dup3\n      add\n      dup1\n      0x40\n      mstore\n      pop\n      dup2\n      add\n      swap1\n      tag_203\n      swap2\n      swap1\n      tag_189\n      jump\t// in\n    tag_203:\n      pop\n        /* \"Contracts\":3427:3518  moveOpenContractToClosedContractsForUser(accountabilityContract.creator(), contractAddress) */\n      tag_204\n        /* \"Contracts\":3468:3490  accountabilityContract */\n      dup2\n        /* \"Contracts\":3468:3498  accountabilityContract.creator */\n      0xffffffffffffffffffffffffffffffffffffffff\n      and\n      0x02d05d3f\n        /* \"Contracts\":3468:3500  accountabilityContract.creator() */\n      mload(0x40)\n      dup2\n      0xffffffff\n      and\n      0xe0\n      shl\n      dup2\n      mstore\n      0x04\n      add\n      0x20\n      mload(0x40)\n      dup1\n      dup4\n      sub\n      dup2\n      dup7\n      gas\n      staticcall\n      iszero\n      dup1\n      iszero\n      tag_206\n      jumpi\n      returndatasize\n      0x00\n      dup1\n      returndatacopy\n      revert(0x00, returndatasize)\n    tag_206:\n      pop\n      pop\n      pop\n      pop\n      mload(0x40)\n      returndatasize\n      not(0x1f)\n      0x1f\n      dup3\n      add\n      and\n      dup3\n      add\n      dup1\n      0x40\n      mstore\n      pop\n      dup2\n      add\n      swap1\n      tag_207\n      swap2\n      swap1\n      tag_138\n      jump\t// in\n    tag_207:\n        /* \"Contracts\":3502:3517  contractAddress */\n      dup4\n        /* \"Contracts\":3427:3467  moveOpenContractToClosedContractsForUser */\n      tag_194\n        /* \"Contracts\":3427:3518  moveOpenContractToClosedContractsForUser(accountabilityContract.creator(), contractAddress) */\n      jump\t// in\n    tag_204:\n        /* \"Contracts\":3526:3620  moveOpenContractToClosedContractsForReferee(accountabilityContract.referee(), contractAddress) */\n      tag_208\n        /* \"Contracts\":3570:3592  accountabilityContract */\n      dup2\n        /* \"Contracts\":3570:3600  accountabilityContract.referee */\n      0xffffffffffffffffffffffffffffffffffffffff\n      and\n      0x3b1bebd1\n        /* \"Contracts\":3570:3602  accountabilityContract.referee() */\n      mload(0x40)\n      dup2\n      0xffffffff\n      and\n      0xe0\n      shl\n      dup2\n      mstore\n      0x04\n      add\n      0x20\n      mload(0x40)\n      dup1\n      dup4\n      sub\n      dup2\n      dup7\n      gas\n      staticcall\n      iszero\n      dup1\n      iszero\n      tag_210\n      jumpi\n      returndatasize\n      0x00\n      dup1\n      returndatacopy\n      revert(0x00, returndatasize)\n    tag_210:\n      pop\n      pop\n      pop\n      pop\n      mload(0x40)\n      returndatasize\n      not(0x1f)\n      0x1f\n      dup3\n      add\n      and\n      dup3\n      add\n      dup1\n      0x40\n      mstore\n      pop\n      dup2\n      add\n      swap1\n      tag_211\n      swap2\n      swap1\n      tag_138\n      jump\t// in\n    tag_211:\n        /* \"Contracts\":3604:3619  contractAddress */\n      dup4\n        /* \"Contracts\":3526:3569  moveOpenContractToClosedContractsForReferee */\n      tag_199\n        /* \"Contracts\":3526:3620  moveOpenContractToClosedContractsForReferee(accountabilityContract.referee(), contractAddress) */\n      jump\t// in\n    tag_208:\n        /* \"Contracts\":3275:3627  {... */\n      pop\n        /* \"Contracts\":3199:3627  function completeOpenAccountabilityContract(address contractAddress) public {... */\n      pop\n      jump\t// out\n        /* \"Contracts\":338:381  mapping(address => Referee) public referees */\n    tag_82:\n      mstore(0x20, 0x06)\n      dup1\n      0x00\n      mstore\n      keccak256(0x00, 0x40)\n      0x00\n      swap2\n      pop\n      swap1\n      pop\n      dup1\n      0x00\n      add\n      sload\n      swap1\n      pop\n      dup2\n      jump\t// out\n        /* \"Contracts\":175:200  uint public numberOfUsers */\n    tag_86:\n      sload(0x02)\n      dup2\n      jump\t// out\n        /* \"Contracts\":2617:2768  function getApprovalRequests(address referee) public view returns (address[] memory){... */\n    tag_91:\n        /* \"Contracts\":2684:2700  address[] memory */\n      0x60\n        /* \"Contracts\":2718:2726  referees */\n      0x06\n        /* \"Contracts\":2718:2735  referees[referee] */\n      0x00\n        /* \"Contracts\":2727:2734  referee */\n      dup4\n        /* \"Contracts\":2718:2735  referees[referee] */\n      0xffffffffffffffffffffffffffffffffffffffff\n      and\n      0xffffffffffffffffffffffffffffffffffffffff\n      and\n      dup2\n      mstore\n      0x20\n      add\n      swap1\n      dup2\n      mstore\n      0x20\n      add\n      0x00\n      keccak256\n        /* \"Contracts\":2718:2761  referees[referee].approvalRequestsAddresses */\n      0x03\n      add\n        /* \"Contracts\":2711:2761  return referees[referee].approvalRequestsAddresses */\n      dup1\n      sload\n      dup1\n      0x20\n      mul\n      0x20\n      add\n      mload(0x40)\n      swap1\n      dup2\n      add\n      0x40\n      mstore\n      dup1\n      swap3\n      swap2\n      swap1\n      dup2\n      dup2\n      mstore\n      0x20\n      add\n      dup3\n      dup1\n      sload\n      dup1\n      iszero\n      tag_213\n      jumpi\n      0x20\n      mul\n      dup3\n      add\n      swap2\n      swap1\n      0x00\n      mstore\n      keccak256(0x00, 0x20)\n      swap1\n    tag_214:\n      dup2\n      0x00\n      swap1\n      sload\n      swap1\n      0x0100\n      exp\n      swap1\n      div\n      0xffffffffffffffffffffffffffffffffffffffff\n      and\n      0xffffffffffffffffffffffffffffffffffffffff\n      and\n      dup2\n      mstore\n      0x20\n      add\n      swap1\n      0x01\n      add\n      swap1\n      dup1\n      dup4\n      gt\n      tag_214\n      jumpi\n    tag_213:\n      pop\n      pop\n      pop\n      pop\n      pop\n      swap1\n      pop\n        /* \"Contracts\":2617:2768  function getApprovalRequests(address referee) public view returns (address[] memory){... */\n      swap2\n      swap1\n      pop\n      jump\t// out\n        /* \"Contracts\":2221:2411  function getOpenAccountabilityContractAddressesForReferee(address referee) public view returns (address[] memory){... */\n    tag_96:\n        /* \"Contracts\":2317:2333  address[] memory */\n      0x60\n        /* \"Contracts\":2351:2359  referees */\n      0x06\n        /* \"Contracts\":2351:2368  referees[referee] */\n      0x00\n        /* \"Contracts\":2360:2367  referee */\n      dup4\n        /* \"Contracts\":2351:2368  referees[referee] */\n      0xffffffffffffffffffffffffffffffffffffffff\n      and\n      0xffffffffffffffffffffffffffffffffffffffff\n      and\n      dup2\n      mstore\n      0x20\n      add\n      swap1\n      dup2\n      mstore\n      0x20\n      add\n      0x00\n      keccak256\n        /* \"Contracts\":2351:2404  referees[referee].openAccountabilityContractAddresses */\n      0x01\n      add\n        /* \"Contracts\":2344:2404  return referees[referee].openAccountabilityContractAddresses */\n      dup1\n      sload\n      dup1\n      0x20\n      mul\n      0x20\n      add\n      mload(0x40)\n      swap1\n      dup2\n      add\n      0x40\n      mstore\n      dup1\n      swap3\n      swap2\n      swap1\n      dup2\n      dup2\n      mstore\n      0x20\n      add\n      dup3\n      dup1\n      sload\n      dup1\n      iszero\n      tag_216\n      jumpi\n      0x20\n      mul\n      dup3\n      add\n      swap2\n      swap1\n      0x00\n      mstore\n      keccak256(0x00, 0x20)\n      swap1\n    tag_217:\n      dup2\n      0x00\n      swap1\n      sload\n      swap1\n      0x0100\n      exp\n      swap1\n      div\n      0xffffffffffffffffffffffffffffffffffffffff\n      and\n      0xffffffffffffffffffffffffffffffffffffffff\n      and\n      dup2\n      mstore\n      0x20\n      add\n      swap1\n      0x01\n      add\n      swap1\n      dup1\n      dup4\n      gt\n      tag_217\n      jumpi\n    tag_216:\n      pop\n      pop\n      pop\n      pop\n      pop\n      swap1\n      pop\n        /* \"Contracts\":2221:2411  function getOpenAccountabilityContractAddressesForReferee(address referee) public view returns (address[] memory){... */\n      swap2\n      swap1\n      pop\n      jump\t// out\n        /* \"Contracts\":100:137  mapping(address => User) public users */\n    tag_101:\n      mstore(0x20, 0x00)\n      dup1\n      0x00\n      mstore\n      keccak256(0x00, 0x40)\n      0x00\n      swap2\n      pop\n      swap1\n      pop\n      dup1\n      0x00\n      add\n      sload\n      swap1\n      pop\n      dup2\n      jump\t// out\n        /* \"Contracts\":8491:8986  function getUserAddresses(uint startIndex, uint endIndex) public view returns (address[] memory) {... */\n    tag_106:\n        /* \"Contracts\":8570:8586  address[] memory */\n      0x60\n        /* \"Contracts\":8619:8620  0 */\n      0x00\n        /* \"Contracts\":8605:8615  startIndex */\n      dup4\n        /* \"Contracts\":8605:8620  startIndex >= 0 */\n      lt\n      iszero\n        /* \"Contracts\":8597:8655  require(startIndex >= 0, \"Start index cannot be negative\") */\n      tag_219\n      jumpi\n      mload(0x40)\n      0x08c379a000000000000000000000000000000000000000000000000000000000\n      dup2\n      mstore\n      0x04\n      add\n      tag_220\n      swap1\n      tag_152\n      jump\t// in\n    tag_220:\n      mload(0x40)\n      dup1\n      swap2\n      sub\n      swap1\n      revert\n    tag_219:\n        /* \"Contracts\":8684:8697  userAddresses */\n      0x01\n        /* \"Contracts\":8684:8704  userAddresses.length */\n      dup1\n      sload\n      swap1\n      pop\n        /* \"Contracts\":8672:8680  endIndex */\n      dup3\n        /* \"Contracts\":8672:8704  endIndex <= userAddresses.length */\n      gt\n      iszero\n        /* \"Contracts\":8664:8748  require(endIndex <= userAddresses.length, \"End index exceeds user addresses length\") */\n      tag_221\n      jumpi\n      mload(0x40)\n      0x08c379a000000000000000000000000000000000000000000000000000000000\n      dup2\n      mstore\n      0x04\n      add\n      tag_222\n      swap1\n      tag_155\n      jump\t// in\n    tag_222:\n      mload(0x40)\n      dup1\n      swap2\n      sub\n      swap1\n      revert\n    tag_221:\n        /* \"Contracts\":8757:8793  address[] memory slicedUserAddresses */\n      0x00\n        /* \"Contracts\":8819:8829  startIndex */\n      dup4\n        /* \"Contracts\":8810:8818  endIndex */\n      dup4\n        /* \"Contracts\":8810:8829  endIndex-startIndex */\n      tag_223\n      swap2\n      swap1\n      tag_157\n      jump\t// in\n    tag_223:\n        /* \"Contracts\":8796:8830  new address[](endIndex-startIndex) */\n      0xffffffffffffffff\n      dup2\n      gt\n      iszero\n      tag_224\n      jumpi\n      tag_225\n      tag_160\n      jump\t// in\n    tag_225:\n    tag_224:\n      mload(0x40)\n      swap1\n      dup1\n      dup3\n      mstore\n      dup1\n      0x20\n      mul\n      0x20\n      add\n      dup3\n      add\n      0x40\n      mstore\n      dup1\n      iszero\n      tag_226\n      jumpi\n      dup2\n      0x20\n      add\n      0x20\n      dup3\n      mul\n      dup1\n      calldatasize\n      dup4\n      calldatacopy\n      dup1\n      dup3\n      add\n      swap2\n      pop\n      pop\n      swap1\n      pop\n    tag_226:\n      pop\n        /* \"Contracts\":8757:8830  address[] memory slicedUserAddresses = new address[](endIndex-startIndex) */\n      swap1\n      pop\n        /* \"Contracts\":8843:8849  uint i */\n      0x00\n        /* \"Contracts\":8850:8860  startIndex */\n      dup5\n        /* \"Contracts\":8843:8860  uint i=startIndex */\n      swap1\n      pop\n        /* \"Contracts\":8839:8944  for(uint i=startIndex; i<endIndex; i++){... */\n    tag_227:\n        /* \"Contracts\":8864:8872  endIndex */\n      dup4\n        /* \"Contracts\":8862:8863  i */\n      dup2\n        /* \"Contracts\":8862:8872  i<endIndex */\n      lt\n        /* \"Contracts\":8839:8944  for(uint i=startIndex; i<endIndex; i++){... */\n      iszero\n      tag_228\n      jumpi\n        /* \"Contracts\":8917:8930  userAddresses */\n      0x01\n        /* \"Contracts\":8931:8932  i */\n      dup2\n        /* \"Contracts\":8917:8933  userAddresses[i] */\n      dup2\n      sload\n      dup2\n      lt\n      tag_230\n      jumpi\n      tag_231\n      tag_167\n      jump\t// in\n    tag_231:\n    tag_230:\n      swap1\n      0x00\n      mstore\n      keccak256(0x00, 0x20)\n      add\n      0x00\n      swap1\n      sload\n      swap1\n      0x0100\n      exp\n      swap1\n      div\n      0xffffffffffffffffffffffffffffffffffffffff\n      and\n        /* \"Contracts\":8892:8911  slicedUserAddresses */\n      dup3\n        /* \"Contracts\":8912:8913  i */\n      dup3\n        /* \"Contracts\":8892:8914  slicedUserAddresses[i] */\n      dup2\n      mload\n      dup2\n      lt\n      tag_233\n      jumpi\n      tag_234\n      tag_167\n      jump\t// in\n    tag_234:\n    tag_233:\n      0x20\n      mul\n      0x20\n      add\n      add\n        /* \"Contracts\":8892:8933  slicedUserAddresses[i] = userAddresses[i] */\n      swap1\n      0xffffffffffffffffffffffffffffffffffffffff\n      and\n      swap1\n      dup2\n      0xffffffffffffffffffffffffffffffffffffffff\n      and\n      dup2\n      mstore\n      pop\n      pop\n        /* \"Contracts\":8874:8877  i++ */\n      dup1\n      dup1\n      tag_235\n      swap1\n      tag_172\n      jump\t// in\n    tag_235:\n      swap2\n      pop\n      pop\n        /* \"Contracts\":8839:8944  for(uint i=startIndex; i<endIndex; i++){... */\n      jump(tag_227)\n    tag_228:\n      pop\n        /* \"Contracts\":8960:8979  slicedUserAddresses */\n      dup1\n        /* \"Contracts\":8953:8979  return slicedUserAddresses */\n      swap2\n      pop\n      pop\n        /* \"Contracts\":8491:8986  function getUserAddresses(uint startIndex, uint endIndex) public view returns (address[] memory) {... */\n      swap3\n      swap2\n      pop\n      pop\n      jump\t// out\n        /* \"Contracts\":2033:2215  function getClosedAccountabilityContractAddressesForUser(address user) public view returns (address[] memory){... */\n    tag_111:\n        /* \"Contracts\":2125:2141  address[] memory */\n      0x60\n        /* \"Contracts\":2159:2164  users */\n      0x00\n        /* \"Contracts\":2159:2170  users[user] */\n      dup1\n        /* \"Contracts\":2165:2169  user */\n      dup4\n        /* \"Contracts\":2159:2170  users[user] */\n      0xffffffffffffffffffffffffffffffffffffffff\n      and\n      0xffffffffffffffffffffffffffffffffffffffff\n      and\n      dup2\n      mstore\n      0x20\n      add\n      swap1\n      dup2\n      mstore\n      0x20\n      add\n      0x00\n      keccak256\n        /* \"Contracts\":2159:2208  users[user].closedAccountabilityContractAddresses */\n      0x02\n      add\n        /* \"Contracts\":2152:2208  return users[user].closedAccountabilityContractAddresses */\n      dup1\n      sload\n      dup1\n      0x20\n      mul\n      0x20\n      add\n      mload(0x40)\n      swap1\n      dup2\n      add\n      0x40\n      mstore\n      dup1\n      swap3\n      swap2\n      swap1\n      dup2\n      dup2\n      mstore\n      0x20\n      add\n      dup3\n      dup1\n      sload\n      dup1\n      iszero\n      tag_237\n      jumpi\n      0x20\n      mul\n      dup3\n      add\n      swap2\n      swap1\n      0x00\n      mstore\n      keccak256(0x00, 0x20)\n      swap1\n    tag_238:\n      dup2\n      0x00\n      swap1\n      sload\n      swap1\n      0x0100\n      exp\n      swap1\n      div\n      0xffffffffffffffffffffffffffffffffffffffff\n      and\n      0xffffffffffffffffffffffffffffffffffffffff\n      and\n      dup2\n      mstore\n      0x20\n      add\n      swap1\n      0x01\n      add\n      swap1\n      dup1\n      dup4\n      gt\n      tag_238\n      jumpi\n    tag_237:\n      pop\n      pop\n      pop\n      pop\n      pop\n      swap1\n      pop\n        /* \"Contracts\":2033:2215  function getClosedAccountabilityContractAddressesForUser(address user) public view returns (address[] memory){... */\n      swap2\n      swap1\n      pop\n      jump\t// out\n        /* \"Contracts\":385:413  uint public numberOfReferees */\n    tag_115:\n      sload(0x07)\n      dup2\n      jump\t// out\n        /* \"Contracts\":4962:5532  function rejectRequest(address approvalRequestAddress, string memory response) public {... */\n    tag_121:\n        /* \"Contracts\":5058:5111  AccountabilityContractApprovalRequest approvalRequest */\n      0x00\n        /* \"Contracts\":5152:5174  approvalRequestAddress */\n      dup3\n        /* \"Contracts\":5058:5175  AccountabilityContractApprovalRequest approvalRequest = AccountabilityContractApprovalRequest(approvalRequestAddress) */\n      swap1\n      pop\n        /* \"Contracts\":5185:5230  AccountabilityContract accountabilityContract */\n      0x00\n        /* \"Contracts\":5256:5271  approvalRequest */\n      dup2\n        /* \"Contracts\":5256:5301  approvalRequest.accountabilityContractAddress */\n      0xffffffffffffffffffffffffffffffffffffffff\n      and\n      0x3c490174\n        /* \"Contracts\":5256:5303  approvalRequest.accountabilityContractAddress() */\n      mload(0x40)\n      dup2\n      0xffffffff\n      and\n      0xe0\n      shl\n      dup2\n      mstore\n      0x04\n      add\n      0x20\n      mload(0x40)\n      dup1\n      dup4\n      sub\n      dup2\n      dup7\n      gas\n      staticcall\n      iszero\n      dup1\n      iszero\n      tag_241\n      jumpi\n      returndatasize\n      0x00\n      dup1\n      returndatacopy\n      revert(0x00, returndatasize)\n    tag_241:\n      pop\n      pop\n      pop\n      pop\n      mload(0x40)\n      returndatasize\n      not(0x1f)\n      0x1f\n      dup3\n      add\n      and\n      dup3\n      add\n      dup1\n      0x40\n      mstore\n      pop\n      dup2\n      add\n      swap1\n      tag_242\n      swap2\n      swap1\n      tag_138\n      jump\t// in\n    tag_242:\n        /* \"Contracts\":5185:5304  AccountabilityContract accountabilityContract = AccountabilityContract(approvalRequest.accountabilityContractAddress()) */\n      swap1\n      pop\n        /* \"Contracts\":5314:5329  approvalRequest */\n      dup2\n        /* \"Contracts\":5314:5343  approvalRequest.rejectRequest */\n      0xffffffffffffffffffffffffffffffffffffffff\n      and\n      0xd69b7ce3\n        /* \"Contracts\":5344:5352  response */\n      dup5\n        /* \"Contracts\":5314:5353  approvalRequest.rejectRequest(response) */\n      mload(0x40)\n      dup3\n      0xffffffff\n      and\n      0xe0\n      shl\n      dup2\n      mstore\n      0x04\n      add\n      tag_243\n      swap2\n      swap1\n      tag_244\n      jump\t// in\n    tag_243:\n      0x20\n      mload(0x40)\n      dup1\n      dup4\n      sub\n      dup2\n      0x00\n      dup8\n      gas\n      call\n      iszero\n      dup1\n      iszero\n      tag_246\n      jumpi\n      returndatasize\n      0x00\n      dup1\n      returndatacopy\n      revert(0x00, returndatasize)\n    tag_246:\n      pop\n      pop\n      pop\n      pop\n      mload(0x40)\n      returndatasize\n      not(0x1f)\n      0x1f\n      dup3\n      add\n      and\n      dup3\n      add\n      dup1\n      0x40\n      mstore\n      pop\n      dup2\n      add\n      swap1\n      tag_247\n      swap2\n      swap1\n      tag_142\n      jump\t// in\n    tag_247:\n      pop\n        /* \"Contracts\":5363:5426  failOpenAccountabilityContract(address(accountabilityContract)) */\n      tag_248\n        /* \"Contracts\":5402:5424  accountabilityContract */\n      dup2\n        /* \"Contracts\":5363:5393  failOpenAccountabilityContract */\n      tag_74\n        /* \"Contracts\":5363:5426  failOpenAccountabilityContract(address(accountabilityContract)) */\n      jump\t// in\n    tag_248:\n        /* \"Contracts\":5436:5525  deleteApprovalRequestForReferee(accountabilityContract.referee(), approvalRequestAddress) */\n      tag_249\n        /* \"Contracts\":5468:5490  accountabilityContract */\n      dup2\n        /* \"Contracts\":5468:5498  accountabilityContract.referee */\n      0xffffffffffffffffffffffffffffffffffffffff\n      and\n      0x3b1bebd1\n        /* \"Contracts\":5468:5500  accountabilityContract.referee() */\n      mload(0x40)\n      dup2\n      0xffffffff\n      and\n      0xe0\n      shl\n      dup2\n      mstore\n      0x04\n      add\n      0x20\n      mload(0x40)\n      dup1\n      dup4\n      sub\n      dup2\n      dup7\n      gas\n      staticcall\n      iszero\n      dup1\n      iszero\n      tag_251\n      jumpi\n      returndatasize\n      0x00\n      dup1\n      returndatacopy\n      revert(0x00, returndatasize)\n    tag_251:\n      pop\n      pop\n      pop\n      pop\n      mload(0x40)\n      returndatasize\n      not(0x1f)\n      0x1f\n      dup3\n      add\n      and\n      dup3\n      add\n      dup1\n      0x40\n      mstore\n      pop\n      dup2\n      add\n      swap1\n      tag_252\n      swap2\n      swap1\n      tag_138\n      jump\t// in\n    tag_252:\n        /* \"Contracts\":5502:5524  approvalRequestAddress */\n      dup6\n        /* \"Contracts\":5436:5467  deleteApprovalRequestForReferee */\n      tag_148\n        /* \"Contracts\":5436:5525  deleteApprovalRequestForReferee(accountabilityContract.referee(), approvalRequestAddress) */\n      jump\t// in\n    tag_249:\n        /* \"Contracts\":5048:5532  {... */\n      pop\n      pop\n        /* \"Contracts\":4962:5532  function rejectRequest(address approvalRequestAddress, string memory response) public {... */\n      pop\n      pop\n      jump\t// out\n        /* \"Contracts\":303:334  uint public totalEthInContracts */\n    tag_124:\n      sload(0x05)\n      dup2\n      jump\t// out\n        /* \"Contracts\":3633:4406  function requestApproval(address contractAddress) public {... */\n    tag_129:\n        /* \"Contracts\":3700:3745  AccountabilityContract accountabilityContract */\n      0x00\n        /* \"Contracts\":3771:3786  contractAddress */\n      dup2\n        /* \"Contracts\":3700:3787  AccountabilityContract accountabilityContract = AccountabilityContract(contractAddress) */\n      swap1\n      pop\n        /* \"Contracts\":3840:3874  AccountabilityContract.Status.OPEN */\n      0x00\n        /* \"Contracts\":3805:3874  accountabilityContract.status() == AccountabilityContract.Status.OPEN */\n      0x02\n      dup2\n      gt\n      iszero\n      tag_254\n      jumpi\n      tag_255\n      tag_256\n      jump\t// in\n    tag_255:\n    tag_254:\n        /* \"Contracts\":3805:3827  accountabilityContract */\n      dup2\n        /* \"Contracts\":3805:3834  accountabilityContract.status */\n      0xffffffffffffffffffffffffffffffffffffffff\n      and\n      0x200d2ed2\n        /* \"Contracts\":3805:3836  accountabilityContract.status() */\n      mload(0x40)\n      dup2\n      0xffffffff\n      and\n      0xe0\n      shl\n      dup2\n      mstore\n      0x04\n      add\n      0x20\n      mload(0x40)\n      dup1\n      dup4\n      sub\n      dup2\n      dup7\n      gas\n      staticcall\n      iszero\n      dup1\n      iszero\n      tag_258\n      jumpi\n      returndatasize\n      0x00\n      dup1\n      returndatacopy\n      revert(0x00, returndatasize)\n    tag_258:\n      pop\n      pop\n      pop\n      pop\n      mload(0x40)\n      returndatasize\n      not(0x1f)\n      0x1f\n      dup3\n      add\n      and\n      dup3\n      add\n      dup1\n      0x40\n      mstore\n      pop\n      dup2\n      add\n      swap1\n      tag_259\n      swap2\n      swap1\n      tag_260\n      jump\t// in\n    tag_259:\n        /* \"Contracts\":3805:3874  accountabilityContract.status() == AccountabilityContract.Status.OPEN */\n      0x02\n      dup2\n      gt\n      iszero\n      tag_261\n      jumpi\n      tag_262\n      tag_256\n      jump\t// in\n    tag_262:\n    tag_261:\n      eq\n        /* \"Contracts\":3797:3907  require(accountabilityContract.status() == AccountabilityContract.Status.OPEN, \"Contract status must be open\") */\n      tag_263\n      jumpi\n      mload(0x40)\n      0x08c379a000000000000000000000000000000000000000000000000000000000\n      dup2\n      mstore\n      0x04\n      add\n      tag_264\n      swap1\n      tag_265\n      jump\t// in\n    tag_264:\n      mload(0x40)\n      dup1\n      swap2\n      sub\n      swap1\n      revert\n    tag_263:\n        /* \"Contracts\":3938:3960  accountabilityContract */\n      dup1\n        /* \"Contracts\":3938:3968  accountabilityContract.creator */\n      0xffffffffffffffffffffffffffffffffffffffff\n      and\n      0x02d05d3f\n        /* \"Contracts\":3938:3970  accountabilityContract.creator() */\n      mload(0x40)\n      dup2\n      0xffffffff\n      and\n      0xe0\n      shl\n      dup2\n      mstore\n      0x04\n      add\n      0x20\n      mload(0x40)\n      dup1\n      dup4\n      sub\n      dup2\n      dup7\n      gas\n      staticcall\n      iszero\n      dup1\n      iszero\n      tag_267\n      jumpi\n      returndatasize\n      0x00\n      dup1\n      returndatacopy\n      revert(0x00, returndatasize)\n    tag_267:\n      pop\n      pop\n      pop\n      pop\n      mload(0x40)\n      returndatasize\n      not(0x1f)\n      0x1f\n      dup3\n      add\n      and\n      dup3\n      add\n      dup1\n      0x40\n      mstore\n      pop\n      dup2\n      add\n      swap1\n      tag_268\n      swap2\n      swap1\n      tag_138\n      jump\t// in\n    tag_268:\n        /* \"Contracts\":3925:3970  tx.origin == accountabilityContract.creator() */\n      0xffffffffffffffffffffffffffffffffffffffff\n      and\n        /* \"Contracts\":3925:3934  tx.origin */\n      origin\n        /* \"Contracts\":3925:3970  tx.origin == accountabilityContract.creator() */\n      0xffffffffffffffffffffffffffffffffffffffff\n      and\n      eq\n        /* \"Contracts\":3917:4022  require(tx.origin == accountabilityContract.creator(), \"Only creator of contract can request completion\") */\n      tag_269\n      jumpi\n      mload(0x40)\n      0x08c379a000000000000000000000000000000000000000000000000000000000\n      dup2\n      mstore\n      0x04\n      add\n      tag_270\n      swap1\n      tag_271\n      jump\t// in\n    tag_270:\n      mload(0x40)\n      dup1\n      swap2\n      sub\n      swap1\n      revert\n    tag_269:\n        /* \"Contracts\":4076:4098  accountabilityContract */\n      dup1\n        /* \"Contracts\":4076:4106  accountabilityContract.referee */\n      0xffffffffffffffffffffffffffffffffffffffff\n      and\n      0x3b1bebd1\n        /* \"Contracts\":4076:4108  accountabilityContract.referee() */\n      mload(0x40)\n      dup2\n      0xffffffff\n      and\n      0xe0\n      shl\n      dup2\n      mstore\n      0x04\n      add\n      0x20\n      mload(0x40)\n      dup1\n      dup4\n      sub\n      dup2\n      dup7\n      gas\n      staticcall\n      iszero\n      dup1\n      iszero\n      tag_273\n      jumpi\n      returndatasize\n      0x00\n      dup1\n      returndatacopy\n      revert(0x00, returndatasize)\n    tag_273:\n      pop\n      pop\n      pop\n      pop\n      mload(0x40)\n      returndatasize\n      not(0x1f)\n      0x1f\n      dup3\n      add\n      and\n      dup3\n      add\n      dup1\n      0x40\n      mstore\n      pop\n      dup2\n      add\n      swap1\n      tag_274\n      swap2\n      swap1\n      tag_138\n      jump\t// in\n    tag_274:\n        /* \"Contracts\":4040:4108  accountabilityContract.creator() != accountabilityContract.referee() */\n      0xffffffffffffffffffffffffffffffffffffffff\n      and\n        /* \"Contracts\":4040:4062  accountabilityContract */\n      dup2\n        /* \"Contracts\":4040:4070  accountabilityContract.creator */\n      0xffffffffffffffffffffffffffffffffffffffff\n      and\n      0x02d05d3f\n        /* \"Contracts\":4040:4072  accountabilityContract.creator() */\n      mload(0x40)\n      dup2\n      0xffffffff\n      and\n      0xe0\n      shl\n      dup2\n      mstore\n      0x04\n      add\n      0x20\n      mload(0x40)\n      dup1\n      dup4\n      sub\n      dup2\n      dup7\n      gas\n      staticcall\n      iszero\n      dup1\n      iszero\n      tag_276\n      jumpi\n      returndatasize\n      0x00\n      dup1\n      returndatacopy\n      revert(0x00, returndatasize)\n    tag_276:\n      pop\n      pop\n      pop\n      pop\n      mload(0x40)\n      returndatasize\n      not(0x1f)\n      0x1f\n      dup3\n      add\n      and\n      dup3\n      add\n      dup1\n      0x40\n      mstore\n      pop\n      dup2\n      add\n      swap1\n      tag_277\n      swap2\n      swap1\n      tag_138\n      jump\t// in\n    tag_277:\n        /* \"Contracts\":4040:4108  accountabilityContract.creator() != accountabilityContract.referee() */\n      0xffffffffffffffffffffffffffffffffffffffff\n      and\n      eq\n      iszero\n        /* \"Contracts\":4032:4160  require(accountabilityContract.creator() != accountabilityContract.referee(), \"Cannot request approval when creator is referee\") */\n      tag_278\n      jumpi\n      mload(0x40)\n      0x08c379a000000000000000000000000000000000000000000000000000000000\n      dup2\n      mstore\n      0x04\n      add\n      tag_279\n      swap1\n      tag_280\n      jump\t// in\n    tag_279:\n      mload(0x40)\n      dup1\n      swap2\n      sub\n      swap1\n      revert\n    tag_278:\n        /* \"Contracts\":4170:4226  AccountabilityContractApprovalRequest newApprovalRequest */\n      0x00\n        /* \"Contracts\":4271:4286  contractAddress */\n      dup3\n        /* \"Contracts\":4229:4287  new AccountabilityContractApprovalRequest(contractAddress) */\n      mload(0x40)\n      tag_281\n      swap1\n      tag_282\n      jump\t// in\n    tag_281:\n      tag_283\n      swap2\n      swap1\n      tag_50\n      jump\t// in\n    tag_283:\n      mload(0x40)\n      dup1\n      swap2\n      sub\n      swap1\n      0x00\n      create\n      dup1\n      iszero\n      dup1\n      iszero\n      tag_284\n      jumpi\n      returndatasize\n      0x00\n      dup1\n      returndatacopy\n      revert(0x00, returndatasize)\n    tag_284:\n      pop\n        /* \"Contracts\":4170:4287  AccountabilityContractApprovalRequest newApprovalRequest = new AccountabilityContractApprovalRequest(contractAddress) */\n      swap1\n      pop\n        /* \"Contracts\":4297:4305  referees */\n      0x06\n        /* \"Contracts\":4297:4339  referees[accountabilityContract.referee()] */\n      0x00\n        /* \"Contracts\":4306:4328  accountabilityContract */\n      dup4\n        /* \"Contracts\":4306:4336  accountabilityContract.referee */\n      0xffffffffffffffffffffffffffffffffffffffff\n      and\n      0x3b1bebd1\n        /* \"Contracts\":4306:4338  accountabilityContract.referee() */\n      mload(0x40)\n      dup2\n      0xffffffff\n      and\n      0xe0\n      shl\n      dup2\n      mstore\n      0x04\n      add\n      0x20\n      mload(0x40)\n      dup1\n      dup4\n      sub\n      dup2\n      dup7\n      gas\n      staticcall\n      iszero\n      dup1\n      iszero\n      tag_286\n      jumpi\n      returndatasize\n      0x00\n      dup1\n      returndatacopy\n      revert(0x00, returndatasize)\n    tag_286:\n      pop\n      pop\n      pop\n      pop\n      mload(0x40)\n      returndatasize\n      not(0x1f)\n      0x1f\n      dup3\n      add\n      and\n      dup3\n      add\n      dup1\n      0x40\n      mstore\n      pop\n      dup2\n      add\n      swap1\n      tag_287\n      swap2\n      swap1\n      tag_138\n      jump\t// in\n    tag_287:\n        /* \"Contracts\":4297:4339  referees[accountabilityContract.referee()] */\n      0xffffffffffffffffffffffffffffffffffffffff\n      and\n      0xffffffffffffffffffffffffffffffffffffffff\n      and\n      dup2\n      mstore\n      0x20\n      add\n      swap1\n      dup2\n      mstore\n      0x20\n      add\n      0x00\n      keccak256\n        /* \"Contracts\":4297:4365  referees[accountabilityContract.referee()].approvalRequestsAddresses */\n      0x03\n      add\n        /* \"Contracts\":4379:4397  newApprovalRequest */\n      dup2\n        /* \"Contracts\":4297:4399  referees[accountabilityContract.referee()].approvalRequestsAddresses.push(address(newApprovalRequest)) */\n      swap1\n      dup1\n      0x01\n      dup2\n      sload\n      add\n      dup1\n      dup3\n      sstore\n      dup1\n      swap2\n      pop\n      pop\n      0x01\n      swap1\n      sub\n      swap1\n      0x00\n      mstore\n      keccak256(0x00, 0x20)\n      add\n      0x00\n      swap1\n      swap2\n      swap1\n      swap2\n      swap1\n      swap2\n      0x0100\n      exp\n      dup2\n      sload\n      dup2\n      0xffffffffffffffffffffffffffffffffffffffff\n      mul\n      not\n      and\n      swap1\n      dup4\n      0xffffffffffffffffffffffffffffffffffffffff\n      and\n      mul\n      or\n      swap1\n      sstore\n      pop\n        /* \"Contracts\":3690:4406  {... */\n      pop\n      pop\n        /* \"Contracts\":3633:4406  function requestApproval(address contractAddress) public {... */\n      pop\n      jump\t// out\n        /* \"Contracts\":813:1843  function createAccountabilityContract(address _referee, string memory _name, string memory _description, address payable _failureRecipient) public payable {... */\n    tag_133:\n        /* \"Contracts\":1019:1020  0 */\n      0x00\n        /* \"Contracts\":981:986  users */\n      dup1\n        /* \"Contracts\":981:998  users[msg.sender] */\n      0x00\n        /* \"Contracts\":987:997  msg.sender */\n      caller\n        /* \"Contracts\":981:998  users[msg.sender] */\n      0xffffffffffffffffffffffffffffffffffffffff\n      and\n      0xffffffffffffffffffffffffffffffffffffffff\n      and\n      dup2\n      mstore\n      0x20\n      add\n      swap1\n      dup2\n      mstore\n      0x20\n      add\n      0x00\n      keccak256\n        /* \"Contracts\":981:1015  users[msg.sender].createdContracts */\n      0x00\n      add\n      sload\n        /* \"Contracts\":981:1020  users[msg.sender].createdContracts == 0 */\n      eq\n        /* \"Contracts\":978:1105  if(users[msg.sender].createdContracts == 0){... */\n      iszero\n      tag_290\n      jumpi\n        /* \"Contracts\":1035:1048  numberOfUsers */\n      0x02\n      0x00\n        /* \"Contracts\":1035:1050  numberOfUsers++ */\n      dup2\n      sload\n      dup1\n      swap3\n      swap2\n      swap1\n      tag_291\n      swap1\n      tag_172\n      jump\t// in\n    tag_291:\n      swap2\n      swap1\n      pop\n      sstore\n      pop\n        /* \"Contracts\":1064:1077  userAddresses */\n      0x01\n        /* \"Contracts\":1083:1093  msg.sender */\n      caller\n        /* \"Contracts\":1064:1094  userAddresses.push(msg.sender) */\n      swap1\n      dup1\n      0x01\n      dup2\n      sload\n      add\n      dup1\n      dup3\n      sstore\n      dup1\n      swap2\n      pop\n      pop\n      0x01\n      swap1\n      sub\n      swap1\n      0x00\n      mstore\n      keccak256(0x00, 0x20)\n      add\n      0x00\n      swap1\n      swap2\n      swap1\n      swap2\n      swap1\n      swap2\n      0x0100\n      exp\n      dup2\n      sload\n      dup2\n      0xffffffffffffffffffffffffffffffffffffffff\n      mul\n      not\n      and\n      swap1\n      dup4\n      0xffffffffffffffffffffffffffffffffffffffff\n      and\n      mul\n      or\n      swap1\n      sstore\n      pop\n        /* \"Contracts\":978:1105  if(users[msg.sender].createdContracts == 0){... */\n    tag_290:\n        /* \"Contracts\":1156:1157  0 */\n      0x00\n        /* \"Contracts\":1117:1125  referees */\n      0x06\n        /* \"Contracts\":1117:1135  referees[_referee] */\n      0x00\n        /* \"Contracts\":1126:1134  _referee */\n      dup7\n        /* \"Contracts\":1117:1135  referees[_referee] */\n      0xffffffffffffffffffffffffffffffffffffffff\n      and\n      0xffffffffffffffffffffffffffffffffffffffff\n      and\n      dup2\n      mstore\n      0x20\n      add\n      swap1\n      dup2\n      mstore\n      0x20\n      add\n      0x00\n      keccak256\n        /* \"Contracts\":1117:1152  referees[_referee].managedContracts */\n      0x00\n      add\n      sload\n        /* \"Contracts\":1117:1157  referees[_referee].managedContracts == 0 */\n      eq\n        /* \"Contracts\":1114:1246  if(referees[_referee].managedContracts == 0){... */\n      iszero\n      tag_293\n      jumpi\n        /* \"Contracts\":1172:1188  numberOfReferees */\n      0x07\n      0x00\n        /* \"Contracts\":1172:1190  numberOfReferees++ */\n      dup2\n      sload\n      dup1\n      swap3\n      swap2\n      swap1\n      tag_294\n      swap1\n      tag_172\n      jump\t// in\n    tag_294:\n      swap2\n      swap1\n      pop\n      sstore\n      pop\n        /* \"Contracts\":1204:1220  refereeAddresses */\n      0x08\n        /* \"Contracts\":1226:1234  _referee */\n      dup5\n        /* \"Contracts\":1204:1235  refereeAddresses.push(_referee) */\n      swap1\n      dup1\n      0x01\n      dup2\n      sload\n      add\n      dup1\n      dup3\n      sstore\n      dup1\n      swap2\n      pop\n      pop\n      0x01\n      swap1\n      sub\n      swap1\n      0x00\n      mstore\n      keccak256(0x00, 0x20)\n      add\n      0x00\n      swap1\n      swap2\n      swap1\n      swap2\n      swap1\n      swap2\n      0x0100\n      exp\n      dup2\n      sload\n      dup2\n      0xffffffffffffffffffffffffffffffffffffffff\n      mul\n      not\n      and\n      swap1\n      dup4\n      0xffffffffffffffffffffffffffffffffffffffff\n      and\n      mul\n      or\n      swap1\n      sstore\n      pop\n        /* \"Contracts\":1114:1246  if(referees[_referee].managedContracts == 0){... */\n    tag_293:\n        /* \"Contracts\":1255:1289  AccountabilityContract newContract */\n      0x00\n        /* \"Contracts\":1328:1337  msg.value */\n      callvalue\n        /* \"Contracts\":1339:1349  msg.sender */\n      caller\n        /* \"Contracts\":1351:1359  _referee */\n      dup7\n        /* \"Contracts\":1361:1366  _name */\n      dup7\n        /* \"Contracts\":1368:1380  _description */\n      dup7\n        /* \"Contracts\":1382:1399  _failureRecipient */\n      dup7\n        /* \"Contracts\":1401:1410  msg.value */\n      callvalue\n        /* \"Contracts\":1292:1411  (new AccountabilityContract){value: msg.value}(msg.sender, _referee, _name, _description, _failureRecipient, msg.value) */\n      mload(0x40)\n      tag_296\n      swap1\n      tag_297\n      jump\t// in\n    tag_296:\n      tag_298\n      swap7\n      swap6\n      swap5\n      swap4\n      swap3\n      swap2\n      swap1\n      tag_299\n      jump\t// in\n    tag_298:\n      mload(0x40)\n      dup1\n      swap2\n      sub\n      swap1\n      dup3\n      create\n      swap1\n      pop\n      dup1\n      iszero\n      dup1\n      iszero\n      tag_300\n      jumpi\n      returndatasize\n      0x00\n      dup1\n      returndatacopy\n      revert(0x00, returndatasize)\n    tag_300:\n      pop\n        /* \"Contracts\":1255:1411  AccountabilityContract newContract = (new AccountabilityContract){value: msg.value}(msg.sender, _referee, _name, _description, _failureRecipient, msg.value) */\n      swap1\n      pop\n        /* \"Contracts\":1421:1452  numberOfAccountabilityContracts */\n      0x04\n      0x00\n        /* \"Contracts\":1421:1454  numberOfAccountabilityContracts++ */\n      dup2\n      sload\n      dup1\n      swap3\n      swap2\n      swap1\n      tag_301\n      swap1\n      tag_172\n      jump\t// in\n    tag_301:\n      swap2\n      swap1\n      pop\n      sstore\n      pop\n        /* \"Contracts\":1464:1495  accountabilityContractAddresses */\n      0x03\n        /* \"Contracts\":1509:1520  newContract */\n      dup2\n        /* \"Contracts\":1464:1522  accountabilityContractAddresses.push(address(newContract)) */\n      swap1\n      dup1\n      0x01\n      dup2\n      sload\n      add\n      dup1\n      dup3\n      sstore\n      dup1\n      swap2\n      pop\n      pop\n      0x01\n      swap1\n      sub\n      swap1\n      0x00\n      mstore\n      keccak256(0x00, 0x20)\n      add\n      0x00\n      swap1\n      swap2\n      swap1\n      swap2\n      swap1\n      swap2\n      0x0100\n      exp\n      dup2\n      sload\n      dup2\n      0xffffffffffffffffffffffffffffffffffffffff\n      mul\n      not\n      and\n      swap1\n      dup4\n      0xffffffffffffffffffffffffffffffffffffffff\n      and\n      mul\n      or\n      swap1\n      sstore\n      pop\n        /* \"Contracts\":1553:1562  msg.value */\n      callvalue\n        /* \"Contracts\":1532:1551  totalEthInContracts */\n      0x05\n      0x00\n        /* \"Contracts\":1532:1562  totalEthInContracts+=msg.value */\n      dup3\n      dup3\n      sload\n      tag_303\n      swap2\n      swap1\n      tag_304\n      jump\t// in\n    tag_303:\n      swap3\n      pop\n      pop\n      dup2\n      swap1\n      sstore\n      pop\n        /* \"Contracts\":1572:1577  users */\n      0x00\n        /* \"Contracts\":1572:1589  users[msg.sender] */\n      dup1\n        /* \"Contracts\":1578:1588  msg.sender */\n      caller\n        /* \"Contracts\":1572:1589  users[msg.sender] */\n      0xffffffffffffffffffffffffffffffffffffffff\n      and\n      0xffffffffffffffffffffffffffffffffffffffff\n      and\n      dup2\n      mstore\n      0x20\n      add\n      swap1\n      dup2\n      mstore\n      0x20\n      add\n      0x00\n      keccak256\n        /* \"Contracts\":1572:1606  users[msg.sender].createdContracts */\n      0x00\n      add\n      0x00\n        /* \"Contracts\":1572:1608  users[msg.sender].createdContracts++ */\n      dup2\n      sload\n      dup1\n      swap3\n      swap2\n      swap1\n      tag_305\n      swap1\n      tag_172\n      jump\t// in\n    tag_305:\n      swap2\n      swap1\n      pop\n      sstore\n      pop\n        /* \"Contracts\":1618:1623  users */\n      0x00\n        /* \"Contracts\":1618:1635  users[msg.sender] */\n      dup1\n        /* \"Contracts\":1624:1634  msg.sender */\n      caller\n        /* \"Contracts\":1618:1635  users[msg.sender] */\n      0xffffffffffffffffffffffffffffffffffffffff\n      and\n      0xffffffffffffffffffffffffffffffffffffffff\n      and\n      dup2\n      mstore\n      0x20\n      add\n      swap1\n      dup2\n      mstore\n      0x20\n      add\n      0x00\n      keccak256\n        /* \"Contracts\":1618:1671  users[msg.sender].openAccountabilityContractAddresses */\n      0x01\n      add\n        /* \"Contracts\":1685:1696  newContract */\n      dup2\n        /* \"Contracts\":1618:1698  users[msg.sender].openAccountabilityContractAddresses.push(address(newContract)) */\n      swap1\n      dup1\n      0x01\n      dup2\n      sload\n      add\n      dup1\n      dup3\n      sstore\n      dup1\n      swap2\n      pop\n      pop\n      0x01\n      swap1\n      sub\n      swap1\n      0x00\n      mstore\n      keccak256(0x00, 0x20)\n      add\n      0x00\n      swap1\n      swap2\n      swap1\n      swap2\n      swap1\n      swap2\n      0x0100\n      exp\n      dup2\n      sload\n      dup2\n      0xffffffffffffffffffffffffffffffffffffffff\n      mul\n      not\n      and\n      swap1\n      dup4\n      0xffffffffffffffffffffffffffffffffffffffff\n      and\n      mul\n      or\n      swap1\n      sstore\n      pop\n        /* \"Contracts\":1708:1716  referees */\n      0x06\n        /* \"Contracts\":1708:1726  referees[_referee] */\n      0x00\n        /* \"Contracts\":1717:1725  _referee */\n      dup7\n        /* \"Contracts\":1708:1726  referees[_referee] */\n      0xffffffffffffffffffffffffffffffffffffffff\n      and\n      0xffffffffffffffffffffffffffffffffffffffff\n      and\n      dup2\n      mstore\n      0x20\n      add\n      swap1\n      dup2\n      mstore\n      0x20\n      add\n      0x00\n      keccak256\n        /* \"Contracts\":1708:1743  referees[_referee].managedContracts */\n      0x00\n      add\n      0x00\n        /* \"Contracts\":1708:1745  referees[_referee].managedContracts++ */\n      dup2\n      sload\n      dup1\n      swap3\n      swap2\n      swap1\n      tag_307\n      swap1\n      tag_172\n      jump\t// in\n    tag_307:\n      swap2\n      swap1\n      pop\n      sstore\n      pop\n        /* \"Contracts\":1755:1763  referees */\n      0x06\n        /* \"Contracts\":1755:1773  referees[_referee] */\n      0x00\n        /* \"Contracts\":1764:1772  _referee */\n      dup7\n        /* \"Contracts\":1755:1773  referees[_referee] */\n      0xffffffffffffffffffffffffffffffffffffffff\n      and\n      0xffffffffffffffffffffffffffffffffffffffff\n      and\n      dup2\n      mstore\n      0x20\n      add\n      swap1\n      dup2\n      mstore\n      0x20\n      add\n      0x00\n      keccak256\n        /* \"Contracts\":1755:1809  referees[_referee].openAccountabilityContractAddresses */\n      0x01\n      add\n        /* \"Contracts\":1823:1834  newContract */\n      dup2\n        /* \"Contracts\":1755:1836  referees[_referee].openAccountabilityContractAddresses.push(address(newContract)) */\n      swap1\n      dup1\n      0x01\n      dup2\n      sload\n      add\n      dup1\n      dup3\n      sstore\n      dup1\n      swap2\n      pop\n      pop\n      0x01\n      swap1\n      sub\n      swap1\n      0x00\n      mstore\n      keccak256(0x00, 0x20)\n      add\n      0x00\n      swap1\n      swap2\n      swap1\n      swap2\n      swap1\n      swap2\n      0x0100\n      exp\n      dup2\n      sload\n      dup2\n      0xffffffffffffffffffffffffffffffffffffffff\n      mul\n      not\n      and\n      swap1\n      dup4\n      0xffffffffffffffffffffffffffffffffffffffff\n      and\n      mul\n      or\n      swap1\n      sstore\n      pop\n        /* \"Contracts\":968:1843  {... */\n      pop\n        /* \"Contracts\":813:1843  function createAccountabilityContract(address _referee, string memory _name, string memory _description, address payable _failureRecipient) public payable {... */\n      pop\n      pop\n      pop\n      pop\n      jump\t// out\n        /* \"Contracts\":7812:8485  function deleteApprovalRequestForReferee(address referee, address approvalRequestAddress) private {... */\n    tag_148:\n        /* \"Contracts\":7920:7938  uint contractIndex */\n      0x00\n        /* \"Contracts\":7953:7959  uint i */\n      dup1\n        /* \"Contracts\":7962:7963  0 */\n      0x00\n        /* \"Contracts\":7953:7963  uint i = 0 */\n      swap1\n      pop\n        /* \"Contracts\":7948:8199  for (uint i = 0; i<=referees[referee].approvalRequestsAddresses.length-1; i++){... */\n    tag_310:\n        /* \"Contracts\":8019:8020  1 */\n      0x01\n        /* \"Contracts\":7968:7976  referees */\n      0x06\n        /* \"Contracts\":7968:7985  referees[referee] */\n      0x00\n        /* \"Contracts\":7977:7984  referee */\n      dup7\n        /* \"Contracts\":7968:7985  referees[referee] */\n      0xffffffffffffffffffffffffffffffffffffffff\n      and\n      0xffffffffffffffffffffffffffffffffffffffff\n      and\n      dup2\n      mstore\n      0x20\n      add\n      swap1\n      dup2\n      mstore\n      0x20\n      add\n      0x00\n      keccak256\n        /* \"Contracts\":7968:8011  referees[referee].approvalRequestsAddresses */\n      0x03\n      add\n        /* \"Contracts\":7968:8018  referees[referee].approvalRequestsAddresses.length */\n      dup1\n      sload\n      swap1\n      pop\n        /* \"Contracts\":7968:8020  referees[referee].approvalRequestsAddresses.length-1 */\n      tag_313\n      swap2\n      swap1\n      tag_157\n      jump\t// in\n    tag_313:\n        /* \"Contracts\":7965:7966  i */\n      dup2\n        /* \"Contracts\":7965:8020  i<=referees[referee].approvalRequestsAddresses.length-1 */\n      gt\n        /* \"Contracts\":7948:8199  for (uint i = 0; i<=referees[referee].approvalRequestsAddresses.length-1; i++){... */\n      tag_311\n      jumpi\n        /* \"Contracts\":8093:8115  approvalRequestAddress */\n      dup3\n        /* \"Contracts\":8043:8115  referees[referee].approvalRequestsAddresses[i] == approvalRequestAddress */\n      0xffffffffffffffffffffffffffffffffffffffff\n      and\n        /* \"Contracts\":8043:8051  referees */\n      0x06\n        /* \"Contracts\":8043:8060  referees[referee] */\n      0x00\n        /* \"Contracts\":8052:8059  referee */\n      dup7\n        /* \"Contracts\":8043:8060  referees[referee] */\n      0xffffffffffffffffffffffffffffffffffffffff\n      and\n      0xffffffffffffffffffffffffffffffffffffffff\n      and\n      dup2\n      mstore\n      0x20\n      add\n      swap1\n      dup2\n      mstore\n      0x20\n      add\n      0x00\n      keccak256\n        /* \"Contracts\":8043:8086  referees[referee].approvalRequestsAddresses */\n      0x03\n      add\n        /* \"Contracts\":8087:8088  i */\n      dup3\n        /* \"Contracts\":8043:8089  referees[referee].approvalRequestsAddresses[i] */\n      dup2\n      sload\n      dup2\n      lt\n      tag_314\n      jumpi\n      tag_315\n      tag_167\n      jump\t// in\n    tag_315:\n    tag_314:\n      swap1\n      0x00\n      mstore\n      keccak256(0x00, 0x20)\n      add\n      0x00\n      swap1\n      sload\n      swap1\n      0x0100\n      exp\n      swap1\n      div\n      0xffffffffffffffffffffffffffffffffffffffff\n      and\n        /* \"Contracts\":8043:8115  referees[referee].approvalRequestsAddresses[i] == approvalRequestAddress */\n      0xffffffffffffffffffffffffffffffffffffffff\n      and\n      eq\n        /* \"Contracts\":8040:8189  if(referees[referee].approvalRequestsAddresses[i] == approvalRequestAddress){... */\n      iszero\n      tag_317\n      jumpi\n        /* \"Contracts\":8150:8151  i */\n      dup1\n        /* \"Contracts\":8134:8151  contractIndex = i */\n      swap2\n      pop\n        /* \"Contracts\":8169:8174  break */\n      jump(tag_311)\n        /* \"Contracts\":8040:8189  if(referees[referee].approvalRequestsAddresses[i] == approvalRequestAddress){... */\n    tag_317:\n        /* \"Contracts\":8022:8025  i++ */\n      dup1\n      dup1\n      tag_318\n      swap1\n      tag_172\n      jump\t// in\n    tag_318:\n      swap2\n      pop\n      pop\n        /* \"Contracts\":7948:8199  for (uint i = 0; i<=referees[referee].approvalRequestsAddresses.length-1; i++){... */\n      jump(tag_310)\n    tag_311:\n      pop\n        /* \"Contracts\":8213:8219  uint i */\n      0x00\n        /* \"Contracts\":8222:8235  contractIndex */\n      dup2\n        /* \"Contracts\":8213:8235  uint i = contractIndex */\n      swap1\n      pop\n        /* \"Contracts\":8208:8419  for (uint i = contractIndex; i<referees[referee].approvalRequestsAddresses.length-1; i++){... */\n    tag_319:\n        /* \"Contracts\":8290:8291  1 */\n      0x01\n        /* \"Contracts\":8239:8247  referees */\n      0x06\n        /* \"Contracts\":8239:8256  referees[referee] */\n      0x00\n        /* \"Contracts\":8248:8255  referee */\n      dup7\n        /* \"Contracts\":8239:8256  referees[referee] */\n      0xffffffffffffffffffffffffffffffffffffffff\n      and\n      0xffffffffffffffffffffffffffffffffffffffff\n      and\n      dup2\n      mstore\n      0x20\n      add\n      swap1\n      dup2\n      mstore\n      0x20\n      add\n      0x00\n      keccak256\n        /* \"Contracts\":8239:8282  referees[referee].approvalRequestsAddresses */\n      0x03\n      add\n        /* \"Contracts\":8239:8289  referees[referee].approvalRequestsAddresses.length */\n      dup1\n      sload\n      swap1\n      pop\n        /* \"Contracts\":8239:8291  referees[referee].approvalRequestsAddresses.length-1 */\n      tag_322\n      swap2\n      swap1\n      tag_157\n      jump\t// in\n    tag_322:\n        /* \"Contracts\":8237:8238  i */\n      dup2\n        /* \"Contracts\":8237:8291  i<referees[referee].approvalRequestsAddresses.length-1 */\n      lt\n        /* \"Contracts\":8208:8419  for (uint i = contractIndex; i<referees[referee].approvalRequestsAddresses.length-1; i++){... */\n      iszero\n      tag_320\n      jumpi\n        /* \"Contracts\":8360:8368  referees */\n      0x06\n        /* \"Contracts\":8360:8377  referees[referee] */\n      0x00\n        /* \"Contracts\":8369:8376  referee */\n      dup6\n        /* \"Contracts\":8360:8377  referees[referee] */\n      0xffffffffffffffffffffffffffffffffffffffff\n      and\n      0xffffffffffffffffffffffffffffffffffffffff\n      and\n      dup2\n      mstore\n      0x20\n      add\n      swap1\n      dup2\n      mstore\n      0x20\n      add\n      0x00\n      keccak256\n        /* \"Contracts\":8360:8403  referees[referee].approvalRequestsAddresses */\n      0x03\n      add\n        /* \"Contracts\":8406:8407  1 */\n      0x01\n        /* \"Contracts\":8404:8405  i */\n      dup3\n        /* \"Contracts\":8404:8407  i+1 */\n      tag_323\n      swap2\n      swap1\n      tag_304\n      jump\t// in\n    tag_323:\n        /* \"Contracts\":8360:8408  referees[referee].approvalRequestsAddresses[i+1] */\n      dup2\n      sload\n      dup2\n      lt\n      tag_324\n      jumpi\n      tag_325\n      tag_167\n      jump\t// in\n    tag_325:\n    tag_324:\n      swap1\n      0x00\n      mstore\n      keccak256(0x00, 0x20)\n      add\n      0x00\n      swap1\n      sload\n      swap1\n      0x0100\n      exp\n      swap1\n      div\n      0xffffffffffffffffffffffffffffffffffffffff\n      and\n        /* \"Contracts\":8311:8319  referees */\n      0x06\n        /* \"Contracts\":8311:8328  referees[referee] */\n      0x00\n        /* \"Contracts\":8320:8327  referee */\n      dup7\n        /* \"Contracts\":8311:8328  referees[referee] */\n      0xffffffffffffffffffffffffffffffffffffffff\n      and\n      0xffffffffffffffffffffffffffffffffffffffff\n      and\n      dup2\n      mstore\n      0x20\n      add\n      swap1\n      dup2\n      mstore\n      0x20\n      add\n      0x00\n      keccak256\n        /* \"Contracts\":8311:8354  referees[referee].approvalRequestsAddresses */\n      0x03\n      add\n        /* \"Contracts\":8355:8356  i */\n      dup3\n        /* \"Contracts\":8311:8357  referees[referee].approvalRequestsAddresses[i] */\n      dup2\n      sload\n      dup2\n      lt\n      tag_327\n      jumpi\n      tag_328\n      tag_167\n      jump\t// in\n    tag_328:\n    tag_327:\n      swap1\n      0x00\n      mstore\n      keccak256(0x00, 0x20)\n      add\n      0x00\n        /* \"Contracts\":8311:8408  referees[referee].approvalRequestsAddresses[i] = referees[referee].approvalRequestsAddresses[i+1] */\n      0x0100\n      exp\n      dup2\n      sload\n      dup2\n      0xffffffffffffffffffffffffffffffffffffffff\n      mul\n      not\n      and\n      swap1\n      dup4\n      0xffffffffffffffffffffffffffffffffffffffff\n      and\n      mul\n      or\n      swap1\n      sstore\n      pop\n        /* \"Contracts\":8293:8296  i++ */\n      dup1\n      dup1\n      tag_330\n      swap1\n      tag_172\n      jump\t// in\n    tag_330:\n      swap2\n      pop\n      pop\n        /* \"Contracts\":8208:8419  for (uint i = contractIndex; i<referees[referee].approvalRequestsAddresses.length-1; i++){... */\n      jump(tag_319)\n    tag_320:\n      pop\n        /* \"Contracts\":8428:8436  referees */\n      0x06\n        /* \"Contracts\":8428:8445  referees[referee] */\n      0x00\n        /* \"Contracts\":8437:8444  referee */\n      dup5\n        /* \"Contracts\":8428:8445  referees[referee] */\n      0xffffffffffffffffffffffffffffffffffffffff\n      and\n      0xffffffffffffffffffffffffffffffffffffffff\n      and\n      dup2\n      mstore\n      0x20\n      add\n      swap1\n      dup2\n      mstore\n      0x20\n      add\n      0x00\n      keccak256\n        /* \"Contracts\":8428:8471  referees[referee].approvalRequestsAddresses */\n      0x03\n      add\n        /* \"Contracts\":8428:8477  referees[referee].approvalRequestsAddresses.pop() */\n      dup1\n      sload\n      dup1\n      tag_331\n      jumpi\n      tag_332\n      tag_333\n      jump\t// in\n    tag_332:\n    tag_331:\n      0x01\n      swap1\n      sub\n      dup2\n      dup2\n      swap1\n      0x00\n      mstore\n      keccak256(0x00, 0x20)\n      add\n      exp(0x0100, 0x00)\n      dup2\n      sload\n      swap1\n      0xffffffffffffffffffffffffffffffffffffffff\n      mul\n      not\n      and\n      swap1\n      sstore\n      swap1\n      sstore\n        /* \"Contracts\":7910:8485  {... */\n      pop\n        /* \"Contracts\":7812:8485  function deleteApprovalRequestForReferee(address referee, address approvalRequestAddress) private {... */\n      pop\n      pop\n      jump\t// out\n        /* \"Contracts\":5950:6669  function moveOpenContractToClosedContractsForUser(address user, address contractAddress) private {... */\n    tag_194:\n        /* \"Contracts\":6057:6075  uint contractIndex */\n      0x00\n        /* \"Contracts\":6078:6124  getContractIndexForUser(user, contractAddress) */\n      tag_336\n        /* \"Contracts\":6102:6106  user */\n      dup4\n        /* \"Contracts\":6108:6123  contractAddress */\n      dup4\n        /* \"Contracts\":6078:6101  getContractIndexForUser */\n      tag_337\n        /* \"Contracts\":6078:6124  getContractIndexForUser(user, contractAddress) */\n      jump\t// in\n    tag_336:\n        /* \"Contracts\":6057:6124  uint contractIndex = getContractIndexForUser(user, contractAddress) */\n      swap1\n      pop\n        /* \"Contracts\":6134:6166  uint openContractAddressesLength */\n      0x00\n        /* \"Contracts\":6169:6174  users */\n      dup1\n        /* \"Contracts\":6169:6180  users[user] */\n      0x00\n        /* \"Contracts\":6175:6179  user */\n      dup6\n        /* \"Contracts\":6169:6180  users[user] */\n      0xffffffffffffffffffffffffffffffffffffffff\n      and\n      0xffffffffffffffffffffffffffffffffffffffff\n      and\n      dup2\n      mstore\n      0x20\n      add\n      swap1\n      dup2\n      mstore\n      0x20\n      add\n      0x00\n      keccak256\n        /* \"Contracts\":6169:6216  users[user].openAccountabilityContractAddresses */\n      0x01\n      add\n        /* \"Contracts\":6169:6223  users[user].openAccountabilityContractAddresses.length */\n      dup1\n      sload\n      swap1\n      pop\n        /* \"Contracts\":6134:6223  uint openContractAddressesLength = users[user].openAccountabilityContractAddresses.length */\n      swap1\n      pop\n        /* \"Contracts\":6238:6244  uint i */\n      0x00\n        /* \"Contracts\":6247:6260  contractIndex */\n      dup3\n        /* \"Contracts\":6238:6260  uint i = contractIndex */\n      swap1\n      pop\n        /* \"Contracts\":6233:6429  for (uint i = contractIndex; i<openContractAddressesLength-1; i++){... */\n    tag_338:\n        /* \"Contracts\":6292:6293  1 */\n      0x01\n        /* \"Contracts\":6264:6291  openContractAddressesLength */\n      dup3\n        /* \"Contracts\":6264:6293  openContractAddressesLength-1 */\n      tag_341\n      swap2\n      swap1\n      tag_157\n      jump\t// in\n    tag_341:\n        /* \"Contracts\":6262:6263  i */\n      dup2\n        /* \"Contracts\":6262:6293  i<openContractAddressesLength-1 */\n      lt\n        /* \"Contracts\":6233:6429  for (uint i = contractIndex; i<openContractAddressesLength-1; i++){... */\n      iszero\n      tag_339\n      jumpi\n        /* \"Contracts\":6366:6371  users */\n      0x00\n        /* \"Contracts\":6366:6377  users[user] */\n      dup1\n        /* \"Contracts\":6372:6376  user */\n      dup7\n        /* \"Contracts\":6366:6377  users[user] */\n      0xffffffffffffffffffffffffffffffffffffffff\n      and\n      0xffffffffffffffffffffffffffffffffffffffff\n      and\n      dup2\n      mstore\n      0x20\n      add\n      swap1\n      dup2\n      mstore\n      0x20\n      add\n      0x00\n      keccak256\n        /* \"Contracts\":6366:6413  users[user].openAccountabilityContractAddresses */\n      0x01\n      add\n        /* \"Contracts\":6416:6417  1 */\n      0x01\n        /* \"Contracts\":6414:6415  i */\n      dup3\n        /* \"Contracts\":6414:6417  i+1 */\n      tag_342\n      swap2\n      swap1\n      tag_304\n      jump\t// in\n    tag_342:\n        /* \"Contracts\":6366:6418  users[user].openAccountabilityContractAddresses[i+1] */\n      dup2\n      sload\n      dup2\n      lt\n      tag_343\n      jumpi\n      tag_344\n      tag_167\n      jump\t// in\n    tag_344:\n    tag_343:\n      swap1\n      0x00\n      mstore\n      keccak256(0x00, 0x20)\n      add\n      0x00\n      swap1\n      sload\n      swap1\n      0x0100\n      exp\n      swap1\n      div\n      0xffffffffffffffffffffffffffffffffffffffff\n      and\n        /* \"Contracts\":6313:6318  users */\n      0x00\n        /* \"Contracts\":6313:6324  users[user] */\n      dup1\n        /* \"Contracts\":6319:6323  user */\n      dup8\n        /* \"Contracts\":6313:6324  users[user] */\n      0xffffffffffffffffffffffffffffffffffffffff\n      and\n      0xffffffffffffffffffffffffffffffffffffffff\n      and\n      dup2\n      mstore\n      0x20\n      add\n      swap1\n      dup2\n      mstore\n      0x20\n      add\n      0x00\n      keccak256\n        /* \"Contracts\":6313:6360  users[user].openAccountabilityContractAddresses */\n      0x01\n      add\n        /* \"Contracts\":6361:6362  i */\n      dup3\n        /* \"Contracts\":6313:6363  users[user].openAccountabilityContractAddresses[i] */\n      dup2\n      sload\n      dup2\n      lt\n      tag_346\n      jumpi\n      tag_347\n      tag_167\n      jump\t// in\n    tag_347:\n    tag_346:\n      swap1\n      0x00\n      mstore\n      keccak256(0x00, 0x20)\n      add\n      0x00\n        /* \"Contracts\":6313:6418  users[user].openAccountabilityContractAddresses[i] = users[user].openAccountabilityContractAddresses[i+1] */\n      0x0100\n      exp\n      dup2\n      sload\n      dup2\n      0xffffffffffffffffffffffffffffffffffffffff\n      mul\n      not\n      and\n      swap1\n      dup4\n      0xffffffffffffffffffffffffffffffffffffffff\n      and\n      mul\n      or\n      swap1\n      sstore\n      pop\n        /* \"Contracts\":6295:6298  i++ */\n      dup1\n      dup1\n      tag_349\n      swap1\n      tag_172\n      jump\t// in\n    tag_349:\n      swap2\n      pop\n      pop\n        /* \"Contracts\":6233:6429  for (uint i = contractIndex; i<openContractAddressesLength-1; i++){... */\n      jump(tag_338)\n    tag_339:\n      pop\n        /* \"Contracts\":6438:6443  users */\n      0x00\n        /* \"Contracts\":6438:6449  users[user] */\n      dup1\n        /* \"Contracts\":6444:6448  user */\n      dup6\n        /* \"Contracts\":6438:6449  users[user] */\n      0xffffffffffffffffffffffffffffffffffffffff\n      and\n      0xffffffffffffffffffffffffffffffffffffffff\n      and\n      dup2\n      mstore\n      0x20\n      add\n      swap1\n      dup2\n      mstore\n      0x20\n      add\n      0x00\n      keccak256\n        /* \"Contracts\":6438:6487  users[user].closedAccountabilityContractAddresses */\n      0x02\n      add\n        /* \"Contracts\":6493:6498  users */\n      0x00\n        /* \"Contracts\":6493:6504  users[user] */\n      dup1\n        /* \"Contracts\":6499:6503  user */\n      dup7\n        /* \"Contracts\":6493:6504  users[user] */\n      0xffffffffffffffffffffffffffffffffffffffff\n      and\n      0xffffffffffffffffffffffffffffffffffffffff\n      and\n      dup2\n      mstore\n      0x20\n      add\n      swap1\n      dup2\n      mstore\n      0x20\n      add\n      0x00\n      keccak256\n        /* \"Contracts\":6493:6540  users[user].openAccountabilityContractAddresses */\n      0x01\n      add\n        /* \"Contracts\":6596:6597  1 */\n      0x01\n        /* \"Contracts\":6541:6546  users */\n      0x00\n        /* \"Contracts\":6541:6552  users[user] */\n      dup1\n        /* \"Contracts\":6547:6551  user */\n      dup9\n        /* \"Contracts\":6541:6552  users[user] */\n      0xffffffffffffffffffffffffffffffffffffffff\n      and\n      0xffffffffffffffffffffffffffffffffffffffff\n      and\n      dup2\n      mstore\n      0x20\n      add\n      swap1\n      dup2\n      mstore\n      0x20\n      add\n      0x00\n      keccak256\n        /* \"Contracts\":6541:6588  users[user].openAccountabilityContractAddresses */\n      0x01\n      add\n        /* \"Contracts\":6541:6595  users[user].openAccountabilityContractAddresses.length */\n      dup1\n      sload\n      swap1\n      pop\n        /* \"Contracts\":6541:6597  users[user].openAccountabilityContractAddresses.length-1 */\n      tag_350\n      swap2\n      swap1\n      tag_157\n      jump\t// in\n    tag_350:\n        /* \"Contracts\":6493:6598  users[user].openAccountabilityContractAddresses[users[user].openAccountabilityContractAddresses.length-1] */\n      dup2\n      sload\n      dup2\n      lt\n      tag_351\n      jumpi\n      tag_352\n      tag_167\n      jump\t// in\n    tag_352:\n    tag_351:\n      swap1\n      0x00\n      mstore\n      keccak256(0x00, 0x20)\n      add\n      0x00\n      swap1\n      sload\n      swap1\n      0x0100\n      exp\n      swap1\n      div\n      0xffffffffffffffffffffffffffffffffffffffff\n      and\n        /* \"Contracts\":6438:6599  users[user].closedAccountabilityContractAddresses.push(users[user].openAccountabilityContractAddresses[users[user].openAccountabilityContractAddresses.length-1]) */\n      swap1\n      dup1\n      0x01\n      dup2\n      sload\n      add\n      dup1\n      dup3\n      sstore\n      dup1\n      swap2\n      pop\n      pop\n      0x01\n      swap1\n      sub\n      swap1\n      0x00\n      mstore\n      keccak256(0x00, 0x20)\n      add\n      0x00\n      swap1\n      swap2\n      swap1\n      swap2\n      swap1\n      swap2\n      0x0100\n      exp\n      dup2\n      sload\n      dup2\n      0xffffffffffffffffffffffffffffffffffffffff\n      mul\n      not\n      and\n      swap1\n      dup4\n      0xffffffffffffffffffffffffffffffffffffffff\n      and\n      mul\n      or\n      swap1\n      sstore\n      pop\n        /* \"Contracts\":6609:6614  users */\n      0x00\n        /* \"Contracts\":6609:6620  users[user] */\n      dup1\n        /* \"Contracts\":6615:6619  user */\n      dup6\n        /* \"Contracts\":6609:6620  users[user] */\n      0xffffffffffffffffffffffffffffffffffffffff\n      and\n      0xffffffffffffffffffffffffffffffffffffffff\n      and\n      dup2\n      mstore\n      0x20\n      add\n      swap1\n      dup2\n      mstore\n      0x20\n      add\n      0x00\n      keccak256\n        /* \"Contracts\":6609:6656  users[user].openAccountabilityContractAddresses */\n      0x01\n      add\n        /* \"Contracts\":6609:6662  users[user].openAccountabilityContractAddresses.pop() */\n      dup1\n      sload\n      dup1\n      tag_355\n      jumpi\n      tag_356\n      tag_333\n      jump\t// in\n    tag_356:\n    tag_355:\n      0x01\n      swap1\n      sub\n      dup2\n      dup2\n      swap1\n      0x00\n      mstore\n      keccak256(0x00, 0x20)\n      add\n      exp(0x0100, 0x00)\n      dup2\n      sload\n      swap1\n      0xffffffffffffffffffffffffffffffffffffffff\n      mul\n      not\n      and\n      swap1\n      sstore\n      swap1\n      sstore\n        /* \"Contracts\":6047:6669  {... */\n      pop\n      pop\n        /* \"Contracts\":5950:6669  function moveOpenContractToClosedContractsForUser(address user, address contractAddress) private {... */\n      pop\n      pop\n      jump\t// out\n        /* \"Contracts\":7105:7806  function moveOpenContractToClosedContractsForReferee(address referee, address contractAddress) private {... */\n    tag_199:\n        /* \"Contracts\":7218:7236  uint contractIndex */\n      0x00\n        /* \"Contracts\":7239:7291  getContractIndexForReferee(referee, contractAddress) */\n      tag_359\n        /* \"Contracts\":7266:7273  referee */\n      dup4\n        /* \"Contracts\":7275:7290  contractAddress */\n      dup4\n        /* \"Contracts\":7239:7265  getContractIndexForReferee */\n      tag_360\n        /* \"Contracts\":7239:7291  getContractIndexForReferee(referee, contractAddress) */\n      jump\t// in\n    tag_359:\n        /* \"Contracts\":7218:7291  uint contractIndex = getContractIndexForReferee(referee, contractAddress) */\n      swap1\n      pop\n        /* \"Contracts\":7306:7312  uint i */\n      0x00\n        /* \"Contracts\":7315:7328  contractIndex */\n      dup2\n        /* \"Contracts\":7306:7328  uint i = contractIndex */\n      swap1\n      pop\n        /* \"Contracts\":7301:7542  for (uint i = contractIndex; i<referees[referee].openAccountabilityContractAddresses.length-1; i++){... */\n    tag_361:\n        /* \"Contracts\":7393:7394  1 */\n      0x01\n        /* \"Contracts\":7332:7340  referees */\n      0x06\n        /* \"Contracts\":7332:7349  referees[referee] */\n      0x00\n        /* \"Contracts\":7341:7348  referee */\n      dup7\n        /* \"Contracts\":7332:7349  referees[referee] */\n      0xffffffffffffffffffffffffffffffffffffffff\n      and\n      0xffffffffffffffffffffffffffffffffffffffff\n      and\n      dup2\n      mstore\n      0x20\n      add\n      swap1\n      dup2\n      mstore\n      0x20\n      add\n      0x00\n      keccak256\n        /* \"Contracts\":7332:7385  referees[referee].openAccountabilityContractAddresses */\n      0x01\n      add\n        /* \"Contracts\":7332:7392  referees[referee].openAccountabilityContractAddresses.length */\n      dup1\n      sload\n      swap1\n      pop\n        /* \"Contracts\":7332:7394  referees[referee].openAccountabilityContractAddresses.length-1 */\n      tag_364\n      swap2\n      swap1\n      tag_157\n      jump\t// in\n    tag_364:\n        /* \"Contracts\":7330:7331  i */\n      dup2\n        /* \"Contracts\":7330:7394  i<referees[referee].openAccountabilityContractAddresses.length-1 */\n      lt\n        /* \"Contracts\":7301:7542  for (uint i = contractIndex; i<referees[referee].openAccountabilityContractAddresses.length-1; i++){... */\n      iszero\n      tag_362\n      jumpi\n        /* \"Contracts\":7473:7481  referees */\n      0x06\n        /* \"Contracts\":7473:7490  referees[referee] */\n      0x00\n        /* \"Contracts\":7482:7489  referee */\n      dup6\n        /* \"Contracts\":7473:7490  referees[referee] */\n      0xffffffffffffffffffffffffffffffffffffffff\n      and\n      0xffffffffffffffffffffffffffffffffffffffff\n      and\n      dup2\n      mstore\n      0x20\n      add\n      swap1\n      dup2\n      mstore\n      0x20\n      add\n      0x00\n      keccak256\n        /* \"Contracts\":7473:7526  referees[referee].openAccountabilityContractAddresses */\n      0x01\n      add\n        /* \"Contracts\":7529:7530  1 */\n      0x01\n        /* \"Contracts\":7527:7528  i */\n      dup3\n        /* \"Contracts\":7527:7530  i+1 */\n      tag_365\n      swap2\n      swap1\n      tag_304\n      jump\t// in\n    tag_365:\n        /* \"Contracts\":7473:7531  referees[referee].openAccountabilityContractAddresses[i+1] */\n      dup2\n      sload\n      dup2\n      lt\n      tag_366\n      jumpi\n      tag_367\n      tag_167\n      jump\t// in\n    tag_367:\n    tag_366:\n      swap1\n      0x00\n      mstore\n      keccak256(0x00, 0x20)\n      add\n      0x00\n      swap1\n      sload\n      swap1\n      0x0100\n      exp\n      swap1\n      div\n      0xffffffffffffffffffffffffffffffffffffffff\n      and\n        /* \"Contracts\":7414:7422  referees */\n      0x06\n        /* \"Contracts\":7414:7431  referees[referee] */\n      0x00\n        /* \"Contracts\":7423:7430  referee */\n      dup7\n        /* \"Contracts\":7414:7431  referees[referee] */\n      0xffffffffffffffffffffffffffffffffffffffff\n      and\n      0xffffffffffffffffffffffffffffffffffffffff\n      and\n      dup2\n      mstore\n      0x20\n      add\n      swap1\n      dup2\n      mstore\n      0x20\n      add\n      0x00\n      keccak256\n        /* \"Contracts\":7414:7467  referees[referee].openAccountabilityContractAddresses */\n      0x01\n      add\n        /* \"Contracts\":7468:7469  i */\n      dup3\n        /* \"Contracts\":7414:7470  referees[referee].openAccountabilityContractAddresses[i] */\n      dup2\n      sload\n      dup2\n      lt\n      tag_369\n      jumpi\n      tag_370\n      tag_167\n      jump\t// in\n    tag_370:\n    tag_369:\n      swap1\n      0x00\n      mstore\n      keccak256(0x00, 0x20)\n      add\n      0x00\n        /* \"Contracts\":7414:7531  referees[referee].openAccountabilityContractAddresses[i] = referees[referee].openAccountabilityContractAddresses[i+1] */\n      0x0100\n      exp\n      dup2\n      sload\n      dup2\n      0xffffffffffffffffffffffffffffffffffffffff\n      mul\n      not\n      and\n      swap1\n      dup4\n      0xffffffffffffffffffffffffffffffffffffffff\n      and\n      mul\n      or\n      swap1\n      sstore\n      pop\n        /* \"Contracts\":7396:7399  i++ */\n      dup1\n      dup1\n      tag_372\n      swap1\n      tag_172\n      jump\t// in\n    tag_372:\n      swap2\n      pop\n      pop\n        /* \"Contracts\":7301:7542  for (uint i = contractIndex; i<referees[referee].openAccountabilityContractAddresses.length-1; i++){... */\n      jump(tag_361)\n    tag_362:\n      pop\n        /* \"Contracts\":7551:7559  referees */\n      0x06\n        /* \"Contracts\":7551:7568  referees[referee] */\n      0x00\n        /* \"Contracts\":7560:7567  referee */\n      dup5\n        /* \"Contracts\":7551:7568  referees[referee] */\n      0xffffffffffffffffffffffffffffffffffffffff\n      and\n      0xffffffffffffffffffffffffffffffffffffffff\n      and\n      dup2\n      mstore\n      0x20\n      add\n      swap1\n      dup2\n      mstore\n      0x20\n      add\n      0x00\n      keccak256\n        /* \"Contracts\":7551:7606  referees[referee].closedAccountabilityContractAddresses */\n      0x02\n      add\n        /* \"Contracts\":7612:7620  referees */\n      0x06\n        /* \"Contracts\":7612:7629  referees[referee] */\n      0x00\n        /* \"Contracts\":7621:7628  referee */\n      dup6\n        /* \"Contracts\":7612:7629  referees[referee] */\n      0xffffffffffffffffffffffffffffffffffffffff\n      and\n      0xffffffffffffffffffffffffffffffffffffffff\n      and\n      dup2\n      mstore\n      0x20\n      add\n      swap1\n      dup2\n      mstore\n      0x20\n      add\n      0x00\n      keccak256\n        /* \"Contracts\":7612:7665  referees[referee].openAccountabilityContractAddresses */\n      0x01\n      add\n        /* \"Contracts\":7727:7728  1 */\n      0x01\n        /* \"Contracts\":7666:7674  referees */\n      0x06\n        /* \"Contracts\":7666:7683  referees[referee] */\n      0x00\n        /* \"Contracts\":7675:7682  referee */\n      dup8\n        /* \"Contracts\":7666:7683  referees[referee] */\n      0xffffffffffffffffffffffffffffffffffffffff\n      and\n      0xffffffffffffffffffffffffffffffffffffffff\n      and\n      dup2\n      mstore\n      0x20\n      add\n      swap1\n      dup2\n      mstore\n      0x20\n      add\n      0x00\n      keccak256\n        /* \"Contracts\":7666:7719  referees[referee].openAccountabilityContractAddresses */\n      0x01\n      add\n        /* \"Contracts\":7666:7726  referees[referee].openAccountabilityContractAddresses.length */\n      dup1\n      sload\n      swap1\n      pop\n        /* \"Contracts\":7666:7728  referees[referee].openAccountabilityContractAddresses.length-1 */\n      tag_373\n      swap2\n      swap1\n      tag_157\n      jump\t// in\n    tag_373:\n        /* \"Contracts\":7612:7729  referees[referee].openAccountabilityContractAddresses[referees[referee].openAccountabilityContractAddresses.length-1] */\n      dup2\n      sload\n      dup2\n      lt\n      tag_374\n      jumpi\n      tag_375\n      tag_167\n      jump\t// in\n    tag_375:\n    tag_374:\n      swap1\n      0x00\n      mstore\n      keccak256(0x00, 0x20)\n      add\n      0x00\n      swap1\n      sload\n      swap1\n      0x0100\n      exp\n      swap1\n      div\n      0xffffffffffffffffffffffffffffffffffffffff\n      and\n        /* \"Contracts\":7551:7730  referees[referee].closedAccountabilityContractAddresses.push(referees[referee].openAccountabilityContractAddresses[referees[referee].openAccountabilityContractAddresses.length-1]) */\n      swap1\n      dup1\n      0x01\n      dup2\n      sload\n      add\n      dup1\n      dup3\n      sstore\n      dup1\n      swap2\n      pop\n      pop\n      0x01\n      swap1\n      sub\n      swap1\n      0x00\n      mstore\n      keccak256(0x00, 0x20)\n      add\n      0x00\n      swap1\n      swap2\n      swap1\n      swap2\n      swap1\n      swap2\n      0x0100\n      exp\n      dup2\n      sload\n      dup2\n      0xffffffffffffffffffffffffffffffffffffffff\n      mul\n      not\n      and\n      swap1\n      dup4\n      0xffffffffffffffffffffffffffffffffffffffff\n      and\n      mul\n      or\n      swap1\n      sstore\n      pop\n        /* \"Contracts\":7740:7748  referees */\n      0x06\n        /* \"Contracts\":7740:7757  referees[referee] */\n      0x00\n        /* \"Contracts\":7749:7756  referee */\n      dup5\n        /* \"Contracts\":7740:7757  referees[referee] */\n      0xffffffffffffffffffffffffffffffffffffffff\n      and\n      0xffffffffffffffffffffffffffffffffffffffff\n      and\n      dup2\n      mstore\n      0x20\n      add\n      swap1\n      dup2\n      mstore\n      0x20\n      add\n      0x00\n      keccak256\n        /* \"Contracts\":7740:7793  referees[referee].openAccountabilityContractAddresses */\n      0x01\n      add\n        /* \"Contracts\":7740:7799  referees[referee].openAccountabilityContractAddresses.pop() */\n      dup1\n      sload\n      dup1\n      tag_378\n      jumpi\n      tag_379\n      tag_333\n      jump\t// in\n    tag_379:\n    tag_378:\n      0x01\n      swap1\n      sub\n      dup2\n      dup2\n      swap1\n      0x00\n      mstore\n      keccak256(0x00, 0x20)\n      add\n      exp(0x0100, 0x00)\n      dup2\n      sload\n      swap1\n      0xffffffffffffffffffffffffffffffffffffffff\n      mul\n      not\n      and\n      swap1\n      sstore\n      swap1\n      sstore\n        /* \"Contracts\":7208:7806  {... */\n      pop\n        /* \"Contracts\":7105:7806  function moveOpenContractToClosedContractsForReferee(address referee, address contractAddress) private {... */\n      pop\n      pop\n      jump\t// out\n        /* \"Contracts\":5538:5944  function getContractIndexForUser(address user, address contractAddress) view private returns (uint){... */\n    tag_337:\n        /* \"Contracts\":5632:5636  uint */\n      0x00\n        /* \"Contracts\":5647:5665  uint contractIndex */\n      dup1\n        /* \"Contracts\":5680:5686  uint i */\n      0x00\n        /* \"Contracts\":5675:5908  for (uint i = 0; i<=users[user].openAccountabilityContractAddresses.length-1; i++){... */\n    tag_382:\n        /* \"Contracts\":5750:5751  1 */\n      0x01\n        /* \"Contracts\":5695:5700  users */\n      0x00\n        /* \"Contracts\":5695:5706  users[user] */\n      dup1\n        /* \"Contracts\":5701:5705  user */\n      dup8\n        /* \"Contracts\":5695:5706  users[user] */\n      0xffffffffffffffffffffffffffffffffffffffff\n      and\n      0xffffffffffffffffffffffffffffffffffffffff\n      and\n      dup2\n      mstore\n      0x20\n      add\n      swap1\n      dup2\n      mstore\n      0x20\n      add\n      0x00\n      keccak256\n        /* \"Contracts\":5695:5742  users[user].openAccountabilityContractAddresses */\n      0x01\n      add\n        /* \"Contracts\":5695:5749  users[user].openAccountabilityContractAddresses.length */\n      dup1\n      sload\n      swap1\n      pop\n        /* \"Contracts\":5695:5751  users[user].openAccountabilityContractAddresses.length-1 */\n      tag_385\n      swap2\n      swap1\n      tag_157\n      jump\t// in\n    tag_385:\n        /* \"Contracts\":5692:5693  i */\n      dup2\n        /* \"Contracts\":5692:5751  i<=users[user].openAccountabilityContractAddresses.length-1 */\n      gt\n        /* \"Contracts\":5675:5908  for (uint i = 0; i<=users[user].openAccountabilityContractAddresses.length-1; i++){... */\n      tag_383\n      jumpi\n        /* \"Contracts\":5828:5843  contractAddress */\n      dup4\n        /* \"Contracts\":5774:5843  users[user].openAccountabilityContractAddresses[i] == contractAddress */\n      0xffffffffffffffffffffffffffffffffffffffff\n      and\n        /* \"Contracts\":5774:5779  users */\n      0x00\n        /* \"Contracts\":5774:5785  users[user] */\n      dup1\n        /* \"Contracts\":5780:5784  user */\n      dup8\n        /* \"Contracts\":5774:5785  users[user] */\n      0xffffffffffffffffffffffffffffffffffffffff\n      and\n      0xffffffffffffffffffffffffffffffffffffffff\n      and\n      dup2\n      mstore\n      0x20\n      add\n      swap1\n      dup2\n      mstore\n      0x20\n      add\n      0x00\n      keccak256\n        /* \"Contracts\":5774:5821  users[user].openAccountabilityContractAddresses */\n      0x01\n      add\n        /* \"Contracts\":5822:5823  i */\n      dup3\n        /* \"Contracts\":5774:5824  users[user].openAccountabilityContractAddresses[i] */\n      dup2\n      sload\n      dup2\n      lt\n      tag_386\n      jumpi\n      tag_387\n      tag_167\n      jump\t// in\n    tag_387:\n    tag_386:\n      swap1\n      0x00\n      mstore\n      keccak256(0x00, 0x20)\n      add\n      0x00\n      swap1\n      sload\n      swap1\n      0x0100\n      exp\n      swap1\n      div\n      0xffffffffffffffffffffffffffffffffffffffff\n      and\n        /* \"Contracts\":5774:5843  users[user].openAccountabilityContractAddresses[i] == contractAddress */\n      0xffffffffffffffffffffffffffffffffffffffff\n      and\n      eq\n        /* \"Contracts\":5771:5898  if(users[user].openAccountabilityContractAddresses[i] == contractAddress){... */\n      iszero\n      tag_389\n      jumpi\n        /* \"Contracts\":5878:5879  i */\n      dup1\n        /* \"Contracts\":5862:5879  contractIndex = i */\n      swap2\n      pop\n        /* \"Contracts\":5771:5898  if(users[user].openAccountabilityContractAddresses[i] == contractAddress){... */\n    tag_389:\n        /* \"Contracts\":5753:5756  i++ */\n      dup1\n      dup1\n      tag_390\n      swap1\n      tag_172\n      jump\t// in\n    tag_390:\n      swap2\n      pop\n      pop\n        /* \"Contracts\":5675:5908  for (uint i = 0; i<=users[user].openAccountabilityContractAddresses.length-1; i++){... */\n      jump(tag_382)\n    tag_383:\n      pop\n        /* \"Contracts\":5924:5937  contractIndex */\n      dup1\n        /* \"Contracts\":5917:5937  return contractIndex */\n      swap2\n      pop\n      pop\n        /* \"Contracts\":5538:5944  function getContractIndexForUser(address user, address contractAddress) view private returns (uint){... */\n      swap3\n      swap2\n      pop\n      pop\n      jump\t// out\n        /* \"Contracts\":6677:7098  function getContractIndexForReferee(address referee, address contractAddress) view private returns (uint){... */\n    tag_360:\n        /* \"Contracts\":6777:6781  uint */\n      0x00\n        /* \"Contracts\":6792:6810  uint contractIndex */\n      dup1\n        /* \"Contracts\":6825:6831  uint i */\n      0x00\n        /* \"Contracts\":6820:7062  for (uint i = 0; i<=referees[referee].openAccountabilityContractAddresses.length-1; i++){... */\n    tag_392:\n        /* \"Contracts\":6901:6902  1 */\n      0x01\n        /* \"Contracts\":6840:6848  referees */\n      0x06\n        /* \"Contracts\":6840:6857  referees[referee] */\n      0x00\n        /* \"Contracts\":6849:6856  referee */\n      dup8\n        /* \"Contracts\":6840:6857  referees[referee] */\n      0xffffffffffffffffffffffffffffffffffffffff\n      and\n      0xffffffffffffffffffffffffffffffffffffffff\n      and\n      dup2\n      mstore\n      0x20\n      add\n      swap1\n      dup2\n      mstore\n      0x20\n      add\n      0x00\n      keccak256\n        /* \"Contracts\":6840:6893  referees[referee].openAccountabilityContractAddresses */\n      0x01\n      add\n        /* \"Contracts\":6840:6900  referees[referee].openAccountabilityContractAddresses.length */\n      dup1\n      sload\n      swap1\n      pop\n        /* \"Contracts\":6840:6902  referees[referee].openAccountabilityContractAddresses.length-1 */\n      tag_395\n      swap2\n      swap1\n      tag_157\n      jump\t// in\n    tag_395:\n        /* \"Contracts\":6837:6838  i */\n      dup2\n        /* \"Contracts\":6837:6902  i<=referees[referee].openAccountabilityContractAddresses.length-1 */\n      gt\n        /* \"Contracts\":6820:7062  for (uint i = 0; i<=referees[referee].openAccountabilityContractAddresses.length-1; i++){... */\n      tag_393\n      jumpi\n        /* \"Contracts\":6985:7000  contractAddress */\n      dup4\n        /* \"Contracts\":6925:7000  referees[referee].openAccountabilityContractAddresses[i] == contractAddress */\n      0xffffffffffffffffffffffffffffffffffffffff\n      and\n        /* \"Contracts\":6925:6933  referees */\n      0x06\n        /* \"Contracts\":6925:6942  referees[referee] */\n      0x00\n        /* \"Contracts\":6934:6941  referee */\n      dup8\n        /* \"Contracts\":6925:6942  referees[referee] */\n      0xffffffffffffffffffffffffffffffffffffffff\n      and\n      0xffffffffffffffffffffffffffffffffffffffff\n      and\n      dup2\n      mstore\n      0x20\n      add\n      swap1\n      dup2\n      mstore\n      0x20\n      add\n      0x00\n      keccak256\n        /* \"Contracts\":6925:6978  referees[referee].openAccountabilityContractAddresses */\n      0x01\n      add\n        /* \"Contracts\":6979:6980  i */\n      dup3\n        /* \"Contracts\":6925:6981  referees[referee].openAccountabilityContractAddresses[i] */\n      dup2\n      sload\n      dup2\n      lt\n      tag_396\n      jumpi\n      tag_397\n      tag_167\n      jump\t// in\n    tag_397:\n    tag_396:\n      swap1\n      0x00\n      mstore\n      keccak256(0x00, 0x20)\n      add\n      0x00\n      swap1\n      sload\n      swap1\n      0x0100\n      exp\n      swap1\n      div\n      0xffffffffffffffffffffffffffffffffffffffff\n      and\n        /* \"Contracts\":6925:7000  referees[referee].openAccountabilityContractAddresses[i] == contractAddress */\n      0xffffffffffffffffffffffffffffffffffffffff\n      and\n      eq\n        /* \"Contracts\":6922:7052  if(referees[referee].openAccountabilityContractAddresses[i] == contractAddress){... */\n      iszero\n      tag_399\n      jumpi\n        /* \"Contracts\":7036:7037  i */\n      dup1\n        /* \"Contracts\":7020:7037  contractIndex = i */\n      swap2\n      pop\n        /* \"Contracts\":6922:7052  if(referees[referee].openAccountabilityContractAddresses[i] == contractAddress){... */\n    tag_399:\n        /* \"Contracts\":6904:6907  i++ */\n      dup1\n      dup1\n      tag_400\n      swap1\n      tag_172\n      jump\t// in\n    tag_400:\n      swap2\n      pop\n      pop\n        /* \"Contracts\":6820:7062  for (uint i = 0; i<=referees[referee].openAccountabilityContractAddresses.length-1; i++){... */\n      jump(tag_392)\n    tag_393:\n      pop\n        /* \"Contracts\":7078:7091  contractIndex */\n      dup1\n        /* \"Contracts\":7071:7091  return contractIndex */\n      swap2\n      pop\n      pop\n        /* \"Contracts\":6677:7098  function getContractIndexForReferee(address referee, address contractAddress) view private returns (uint){... */\n      swap3\n      swap2\n      pop\n      pop\n      jump\t// out\n    tag_282:\n      dataSize(sub_0)\n      dup1\n      dataOffset(sub_0)\n      dup4\n      codecopy\n      add\n      swap1\n      jump\t// out\n    tag_297:\n      dataSize(sub_1)\n      dup1\n      dataOffset(sub_1)\n      dup4\n      codecopy\n      add\n      swap1\n      jump\t// out\n        /* \"#utility.yul\":7:82   */\n    tag_401:\n        /* \"#utility.yul\":40:46   */\n      0x00\n        /* \"#utility.yul\":73:75   */\n      0x40\n        /* \"#utility.yul\":67:76   */\n      mload\n        /* \"#utility.yul\":57:76   */\n      swap1\n      pop\n        /* \"#utility.yul\":7:82   */\n      swap1\n      jump\t// out\n        /* \"#utility.yul\":88:205   */\n    tag_402:\n        /* \"#utility.yul\":197:198   */\n      0x00\n        /* \"#utility.yul\":194:195   */\n      dup1\n        /* \"#utility.yul\":187:199   */\n      revert\n        /* \"#utility.yul\":211:328   */\n    tag_403:\n        /* \"#utility.yul\":320:321   */\n      0x00\n        /* \"#utility.yul\":317:318   */\n      dup1\n        /* \"#utility.yul\":310:322   */\n      revert\n        /* \"#utility.yul\":334:460   */\n    tag_404:\n        /* \"#utility.yul\":371:378   */\n      0x00\n        /* \"#utility.yul\":411:453   */\n      0xffffffffffffffffffffffffffffffffffffffff\n        /* \"#utility.yul\":404:409   */\n      dup3\n        /* \"#utility.yul\":400:454   */\n      and\n        /* \"#utility.yul\":389:454   */\n      swap1\n      pop\n        /* \"#utility.yul\":334:460   */\n      swap2\n      swap1\n      pop\n      jump\t// out\n        /* \"#utility.yul\":466:562   */\n    tag_405:\n        /* \"#utility.yul\":503:510   */\n      0x00\n        /* \"#utility.yul\":532:556   */\n      tag_467\n        /* \"#utility.yul\":550:555   */\n      dup3\n        /* \"#utility.yul\":532:556   */\n      tag_404\n      jump\t// in\n    tag_467:\n        /* \"#utility.yul\":521:556   */\n      swap1\n      pop\n        /* \"#utility.yul\":466:562   */\n      swap2\n      swap1\n      pop\n      jump\t// out\n        /* \"#utility.yul\":568:690   */\n    tag_406:\n        /* \"#utility.yul\":641:665   */\n      tag_469\n        /* \"#utility.yul\":659:664   */\n      dup2\n        /* \"#utility.yul\":641:665   */\n      tag_405\n      jump\t// in\n    tag_469:\n        /* \"#utility.yul\":634:639   */\n      dup2\n        /* \"#utility.yul\":631:666   */\n      eq\n        /* \"#utility.yul\":621:684   */\n      tag_470\n      jumpi\n        /* \"#utility.yul\":680:681   */\n      0x00\n        /* \"#utility.yul\":677:678   */\n      dup1\n        /* \"#utility.yul\":670:682   */\n      revert\n        /* \"#utility.yul\":621:684   */\n    tag_470:\n        /* \"#utility.yul\":568:690   */\n      pop\n      jump\t// out\n        /* \"#utility.yul\":696:835   */\n    tag_407:\n        /* \"#utility.yul\":742:747   */\n      0x00\n        /* \"#utility.yul\":780:786   */\n      dup2\n        /* \"#utility.yul\":767:787   */\n      calldataload\n        /* \"#utility.yul\":758:787   */\n      swap1\n      pop\n        /* \"#utility.yul\":796:829   */\n      tag_472\n        /* \"#utility.yul\":823:828   */\n      dup2\n        /* \"#utility.yul\":796:829   */\n      tag_406\n      jump\t// in\n    tag_472:\n        /* \"#utility.yul\":696:835   */\n      swap3\n      swap2\n      pop\n      pop\n      jump\t// out\n        /* \"#utility.yul\":841:1170   */\n    tag_30:\n        /* \"#utility.yul\":900:906   */\n      0x00\n        /* \"#utility.yul\":949:951   */\n      0x20\n        /* \"#utility.yul\":937:946   */\n      dup3\n        /* \"#utility.yul\":928:935   */\n      dup5\n        /* \"#utility.yul\":924:947   */\n      sub\n        /* \"#utility.yul\":920:952   */\n      slt\n        /* \"#utility.yul\":917:1036   */\n      iszero\n      tag_474\n      jumpi\n        /* \"#utility.yul\":955:1034   */\n      tag_475\n      tag_402\n      jump\t// in\n    tag_475:\n        /* \"#utility.yul\":917:1036   */\n    tag_474:\n        /* \"#utility.yul\":1075:1076   */\n      0x00\n        /* \"#utility.yul\":1100:1153   */\n      tag_476\n        /* \"#utility.yul\":1145:1152   */\n      dup5\n        /* \"#utility.yul\":1136:1142   */\n      dup3\n        /* \"#utility.yul\":1125:1134   */\n      dup6\n        /* \"#utility.yul\":1121:1143   */\n      add\n        /* \"#utility.yul\":1100:1153   */\n      tag_407\n      jump\t// in\n    tag_476:\n        /* \"#utility.yul\":1090:1153   */\n      swap2\n      pop\n        /* \"#utility.yul\":1046:1163   */\n      pop\n        /* \"#utility.yul\":841:1170   */\n      swap3\n      swap2\n      pop\n      pop\n      jump\t// out\n        /* \"#utility.yul\":1176:1253   */\n    tag_408:\n        /* \"#utility.yul\":1213:1220   */\n      0x00\n        /* \"#utility.yul\":1242:1247   */\n      dup2\n        /* \"#utility.yul\":1231:1247   */\n      swap1\n      pop\n        /* \"#utility.yul\":1176:1253   */\n      swap2\n      swap1\n      pop\n      jump\t// out\n        /* \"#utility.yul\":1259:1381   */\n    tag_409:\n        /* \"#utility.yul\":1332:1356   */\n      tag_479\n        /* \"#utility.yul\":1350:1355   */\n      dup2\n        /* \"#utility.yul\":1332:1356   */\n      tag_408\n      jump\t// in\n    tag_479:\n        /* \"#utility.yul\":1325:1330   */\n      dup2\n        /* \"#utility.yul\":1322:1357   */\n      eq\n        /* \"#utility.yul\":1312:1375   */\n      tag_480\n      jumpi\n        /* \"#utility.yul\":1371:1372   */\n      0x00\n        /* \"#utility.yul\":1368:1369   */\n      dup1\n        /* \"#utility.yul\":1361:1373   */\n      revert\n        /* \"#utility.yul\":1312:1375   */\n    tag_480:\n        /* \"#utility.yul\":1259:1381   */\n      pop\n      jump\t// out\n        /* \"#utility.yul\":1387:1526   */\n    tag_410:\n        /* \"#utility.yul\":1433:1438   */\n      0x00\n        /* \"#utility.yul\":1471:1477   */\n      dup2\n        /* \"#utility.yul\":1458:1478   */\n      calldataload\n        /* \"#utility.yul\":1449:1478   */\n      swap1\n      pop\n        /* \"#utility.yul\":1487:1520   */\n      tag_482\n        /* \"#utility.yul\":1514:1519   */\n      dup2\n        /* \"#utility.yul\":1487:1520   */\n      tag_409\n      jump\t// in\n    tag_482:\n        /* \"#utility.yul\":1387:1526   */\n      swap3\n      swap2\n      pop\n      pop\n      jump\t// out\n        /* \"#utility.yul\":1532:2006   */\n    tag_35:\n        /* \"#utility.yul\":1600:1606   */\n      0x00\n        /* \"#utility.yul\":1608:1614   */\n      dup1\n        /* \"#utility.yul\":1657:1659   */\n      0x40\n        /* \"#utility.yul\":1645:1654   */\n      dup4\n        /* \"#utility.yul\":1636:1643   */\n      dup6\n        /* \"#utility.yul\":1632:1655   */\n      sub\n        /* \"#utility.yul\":1628:1660   */\n      slt\n        /* \"#utility.yul\":1625:1744   */\n      iszero\n      tag_484\n      jumpi\n        /* \"#utility.yul\":1663:1742   */\n      tag_485\n      tag_402\n      jump\t// in\n    tag_485:\n        /* \"#utility.yul\":1625:1744   */\n    tag_484:\n        /* \"#utility.yul\":1783:1784   */\n      0x00\n        /* \"#utility.yul\":1808:1861   */\n      tag_486\n        /* \"#utility.yul\":1853:1860   */\n      dup6\n        /* \"#utility.yul\":1844:1850   */\n      dup3\n        /* \"#utility.yul\":1833:1842   */\n      dup7\n        /* \"#utility.yul\":1829:1851   */\n      add\n        /* \"#utility.yul\":1808:1861   */\n      tag_410\n      jump\t// in\n    tag_486:\n        /* \"#utility.yul\":1798:1861   */\n      swap3\n      pop\n        /* \"#utility.yul\":1754:1871   */\n      pop\n        /* \"#utility.yul\":1910:1912   */\n      0x20\n        /* \"#utility.yul\":1936:1989   */\n      tag_487\n        /* \"#utility.yul\":1981:1988   */\n      dup6\n        /* \"#utility.yul\":1972:1978   */\n      dup3\n        /* \"#utility.yul\":1961:1970   */\n      dup7\n        /* \"#utility.yul\":1957:1979   */\n      add\n        /* \"#utility.yul\":1936:1989   */\n      tag_410\n      jump\t// in\n    tag_487:\n        /* \"#utility.yul\":1926:1989   */\n      swap2\n      pop\n        /* \"#utility.yul\":1881:1999   */\n      pop\n        /* \"#utility.yul\":1532:2006   */\n      swap3\n      pop\n      swap3\n      swap1\n      pop\n      jump\t// out\n        /* \"#utility.yul\":2012:2126   */\n    tag_411:\n        /* \"#utility.yul\":2079:2085   */\n      0x00\n        /* \"#utility.yul\":2113:2118   */\n      dup2\n        /* \"#utility.yul\":2107:2119   */\n      mload\n        /* \"#utility.yul\":2097:2119   */\n      swap1\n      pop\n        /* \"#utility.yul\":2012:2126   */\n      swap2\n      swap1\n      pop\n      jump\t// out\n        /* \"#utility.yul\":2132:2316   */\n    tag_412:\n        /* \"#utility.yul\":2231:2242   */\n      0x00\n        /* \"#utility.yul\":2265:2271   */\n      dup3\n        /* \"#utility.yul\":2260:2263   */\n      dup3\n        /* \"#utility.yul\":2253:2272   */\n      mstore\n        /* \"#utility.yul\":2305:2309   */\n      0x20\n        /* \"#utility.yul\":2300:2303   */\n      dup3\n        /* \"#utility.yul\":2296:2310   */\n      add\n        /* \"#utility.yul\":2281:2310   */\n      swap1\n      pop\n        /* \"#utility.yul\":2132:2316   */\n      swap3\n      swap2\n      pop\n      pop\n      jump\t// out\n        /* \"#utility.yul\":2322:2454   */\n    tag_413:\n        /* \"#utility.yul\":2389:2393   */\n      0x00\n        /* \"#utility.yul\":2412:2415   */\n      dup2\n        /* \"#utility.yul\":2404:2415   */\n      swap1\n      pop\n        /* \"#utility.yul\":2442:2446   */\n      0x20\n        /* \"#utility.yul\":2437:2440   */\n      dup3\n        /* \"#utility.yul\":2433:2447   */\n      add\n        /* \"#utility.yul\":2425:2447   */\n      swap1\n      pop\n        /* \"#utility.yul\":2322:2454   */\n      swap2\n      swap1\n      pop\n      jump\t// out\n        /* \"#utility.yul\":2460:2568   */\n    tag_414:\n        /* \"#utility.yul\":2537:2561   */\n      tag_492\n        /* \"#utility.yul\":2555:2560   */\n      dup2\n        /* \"#utility.yul\":2537:2561   */\n      tag_405\n      jump\t// in\n    tag_492:\n        /* \"#utility.yul\":2532:2535   */\n      dup3\n        /* \"#utility.yul\":2525:2562   */\n      mstore\n        /* \"#utility.yul\":2460:2568   */\n      pop\n      pop\n      jump\t// out\n        /* \"#utility.yul\":2574:2753   */\n    tag_415:\n        /* \"#utility.yul\":2643:2653   */\n      0x00\n        /* \"#utility.yul\":2664:2710   */\n      tag_494\n        /* \"#utility.yul\":2706:2709   */\n      dup4\n        /* \"#utility.yul\":2698:2704   */\n      dup4\n        /* \"#utility.yul\":2664:2710   */\n      tag_414\n      jump\t// in\n    tag_494:\n        /* \"#utility.yul\":2742:2746   */\n      0x20\n        /* \"#utility.yul\":2737:2740   */\n      dup4\n        /* \"#utility.yul\":2733:2747   */\n      add\n        /* \"#utility.yul\":2719:2747   */\n      swap1\n      pop\n        /* \"#utility.yul\":2574:2753   */\n      swap3\n      swap2\n      pop\n      pop\n      jump\t// out\n        /* \"#utility.yul\":2759:2872   */\n    tag_416:\n        /* \"#utility.yul\":2829:2833   */\n      0x00\n        /* \"#utility.yul\":2861:2865   */\n      0x20\n        /* \"#utility.yul\":2856:2859   */\n      dup3\n        /* \"#utility.yul\":2852:2866   */\n      add\n        /* \"#utility.yul\":2844:2866   */\n      swap1\n      pop\n        /* \"#utility.yul\":2759:2872   */\n      swap2\n      swap1\n      pop\n      jump\t// out\n        /* \"#utility.yul\":2908:3640   */\n    tag_417:\n        /* \"#utility.yul\":3027:3030   */\n      0x00\n        /* \"#utility.yul\":3056:3110   */\n      tag_497\n        /* \"#utility.yul\":3104:3109   */\n      dup3\n        /* \"#utility.yul\":3056:3110   */\n      tag_411\n      jump\t// in\n    tag_497:\n        /* \"#utility.yul\":3126:3212   */\n      tag_498\n        /* \"#utility.yul\":3205:3211   */\n      dup2\n        /* \"#utility.yul\":3200:3203   */\n      dup6\n        /* \"#utility.yul\":3126:3212   */\n      tag_412\n      jump\t// in\n    tag_498:\n        /* \"#utility.yul\":3119:3212   */\n      swap4\n      pop\n        /* \"#utility.yul\":3236:3292   */\n      tag_499\n        /* \"#utility.yul\":3286:3291   */\n      dup4\n        /* \"#utility.yul\":3236:3292   */\n      tag_413\n      jump\t// in\n    tag_499:\n        /* \"#utility.yul\":3315:3322   */\n      dup1\n        /* \"#utility.yul\":3346:3347   */\n      0x00\n        /* \"#utility.yul\":3331:3615   */\n    tag_500:\n        /* \"#utility.yul\":3356:3362   */\n      dup4\n        /* \"#utility.yul\":3353:3354   */\n      dup2\n        /* \"#utility.yul\":3350:3363   */\n      lt\n        /* \"#utility.yul\":3331:3615   */\n      iszero\n      tag_502\n      jumpi\n        /* \"#utility.yul\":3432:3438   */\n      dup2\n        /* \"#utility.yul\":3426:3439   */\n      mload\n        /* \"#utility.yul\":3459:3522   */\n      tag_503\n        /* \"#utility.yul\":3518:3521   */\n      dup9\n        /* \"#utility.yul\":3503:3516   */\n      dup3\n        /* \"#utility.yul\":3459:3522   */\n      tag_415\n      jump\t// in\n    tag_503:\n        /* \"#utility.yul\":3452:3522   */\n      swap8\n      pop\n        /* \"#utility.yul\":3545:3605   */\n      tag_504\n        /* \"#utility.yul\":3598:3604   */\n      dup4\n        /* \"#utility.yul\":3545:3605   */\n      tag_416\n      jump\t// in\n    tag_504:\n        /* \"#utility.yul\":3535:3605   */\n      swap3\n      pop\n        /* \"#utility.yul\":3391:3615   */\n      pop\n        /* \"#utility.yul\":3378:3379   */\n      0x01\n        /* \"#utility.yul\":3375:3376   */\n      dup2\n        /* \"#utility.yul\":3371:3380   */\n      add\n        /* \"#utility.yul\":3366:3380   */\n      swap1\n      pop\n        /* \"#utility.yul\":3331:3615   */\n      jump(tag_500)\n    tag_502:\n        /* \"#utility.yul\":3335:3349   */\n      pop\n        /* \"#utility.yul\":3631:3634   */\n      dup6\n        /* \"#utility.yul\":3624:3634   */\n      swap4\n      pop\n        /* \"#utility.yul\":3032:3640   */\n      pop\n      pop\n      pop\n        /* \"#utility.yul\":2908:3640   */\n      swap3\n      swap2\n      pop\n      pop\n      jump\t// out\n        /* \"#utility.yul\":3646:4019   */\n    tag_38:\n        /* \"#utility.yul\":3789:3793   */\n      0x00\n        /* \"#utility.yul\":3827:3829   */\n      0x20\n        /* \"#utility.yul\":3816:3825   */\n      dup3\n        /* \"#utility.yul\":3812:3830   */\n      add\n        /* \"#utility.yul\":3804:3830   */\n      swap1\n      pop\n        /* \"#utility.yul\":3876:3885   */\n      dup2\n        /* \"#utility.yul\":3870:3874   */\n      dup2\n        /* \"#utility.yul\":3866:3886   */\n      sub\n        /* \"#utility.yul\":3862:3863   */\n      0x00\n        /* \"#utility.yul\":3851:3860   */\n      dup4\n        /* \"#utility.yul\":3847:3864   */\n      add\n        /* \"#utility.yul\":3840:3887   */\n      mstore\n        /* \"#utility.yul\":3904:4012   */\n      tag_506\n        /* \"#utility.yul\":4007:4011   */\n      dup2\n        /* \"#utility.yul\":3998:4004   */\n      dup5\n        /* \"#utility.yul\":3904:4012   */\n      tag_417\n      jump\t// in\n    tag_506:\n        /* \"#utility.yul\":3896:4012   */\n      swap1\n      pop\n        /* \"#utility.yul\":3646:4019   */\n      swap3\n      swap2\n      pop\n      pop\n      jump\t// out\n        /* \"#utility.yul\":4025:4354   */\n    tag_47:\n        /* \"#utility.yul\":4084:4090   */\n      0x00\n        /* \"#utility.yul\":4133:4135   */\n      0x20\n        /* \"#utility.yul\":4121:4130   */\n      dup3\n        /* \"#utility.yul\":4112:4119   */\n      dup5\n        /* \"#utility.yul\":4108:4131   */\n      sub\n        /* \"#utility.yul\":4104:4136   */\n      slt\n        /* \"#utility.yul\":4101:4220   */\n      iszero\n      tag_508\n      jumpi\n        /* \"#utility.yul\":4139:4218   */\n      tag_509\n      tag_402\n      jump\t// in\n    tag_509:\n        /* \"#utility.yul\":4101:4220   */\n    tag_508:\n        /* \"#utility.yul\":4259:4260   */\n      0x00\n        /* \"#utility.yul\":4284:4337   */\n      tag_510\n        /* \"#utility.yul\":4329:4336   */\n      dup5\n        /* \"#utility.yul\":4320:4326   */\n      dup3\n        /* \"#utility.yul\":4309:4318   */\n      dup6\n        /* \"#utility.yul\":4305:4327   */\n      add\n        /* \"#utility.yul\":4284:4337   */\n      tag_410\n      jump\t// in\n    tag_510:\n        /* \"#utility.yul\":4274:4337   */\n      swap2\n      pop\n        /* \"#utility.yul\":4230:4347   */\n      pop\n        /* \"#utility.yul\":4025:4354   */\n      swap3\n      swap2\n      pop\n      pop\n      jump\t// out\n        /* \"#utility.yul\":4360:4478   */\n    tag_418:\n        /* \"#utility.yul\":4447:4471   */\n      tag_512\n        /* \"#utility.yul\":4465:4470   */\n      dup2\n        /* \"#utility.yul\":4447:4471   */\n      tag_405\n      jump\t// in\n    tag_512:\n        /* \"#utility.yul\":4442:4445   */\n      dup3\n        /* \"#utility.yul\":4435:4472   */\n      mstore\n        /* \"#utility.yul\":4360:4478   */\n      pop\n      pop\n      jump\t// out\n        /* \"#utility.yul\":4484:4706   */\n    tag_50:\n        /* \"#utility.yul\":4577:4581   */\n      0x00\n        /* \"#utility.yul\":4615:4617   */\n      0x20\n        /* \"#utility.yul\":4604:4613   */\n      dup3\n        /* \"#utility.yul\":4600:4618   */\n      add\n        /* \"#utility.yul\":4592:4618   */\n      swap1\n      pop\n        /* \"#utility.yul\":4628:4699   */\n      tag_514\n        /* \"#utility.yul\":4696:4697   */\n      0x00\n        /* \"#utility.yul\":4685:4694   */\n      dup4\n        /* \"#utility.yul\":4681:4698   */\n      add\n        /* \"#utility.yul\":4672:4678   */\n      dup5\n        /* \"#utility.yul\":4628:4699   */\n      tag_418\n      jump\t// in\n    tag_514:\n        /* \"#utility.yul\":4484:4706   */\n      swap3\n      swap2\n      pop\n      pop\n      jump\t// out\n        /* \"#utility.yul\":4712:4830   */\n    tag_419:\n        /* \"#utility.yul\":4799:4823   */\n      tag_516\n        /* \"#utility.yul\":4817:4822   */\n      dup2\n        /* \"#utility.yul\":4799:4823   */\n      tag_408\n      jump\t// in\n    tag_516:\n        /* \"#utility.yul\":4794:4797   */\n      dup3\n        /* \"#utility.yul\":4787:4824   */\n      mstore\n        /* \"#utility.yul\":4712:4830   */\n      pop\n      pop\n      jump\t// out\n        /* \"#utility.yul\":4836:5058   */\n    tag_65:\n        /* \"#utility.yul\":4929:4933   */\n      0x00\n        /* \"#utility.yul\":4967:4969   */\n      0x20\n        /* \"#utility.yul\":4956:4965   */\n      dup3\n        /* \"#utility.yul\":4952:4970   */\n      add\n        /* \"#utility.yul\":4944:4970   */\n      swap1\n      pop\n        /* \"#utility.yul\":4980:5051   */\n      tag_518\n        /* \"#utility.yul\":5048:5049   */\n      0x00\n        /* \"#utility.yul\":5037:5046   */\n      dup4\n        /* \"#utility.yul\":5033:5050   */\n      add\n        /* \"#utility.yul\":5024:5030   */\n      dup5\n        /* \"#utility.yul\":4980:5051   */\n      tag_419\n      jump\t// in\n    tag_518:\n        /* \"#utility.yul\":4836:5058   */\n      swap3\n      swap2\n      pop\n      pop\n      jump\t// out\n        /* \"#utility.yul\":5064:5181   */\n    tag_420:\n        /* \"#utility.yul\":5173:5174   */\n      0x00\n        /* \"#utility.yul\":5170:5171   */\n      dup1\n        /* \"#utility.yul\":5163:5175   */\n      revert\n        /* \"#utility.yul\":5187:5304   */\n    tag_421:\n        /* \"#utility.yul\":5296:5297   */\n      0x00\n        /* \"#utility.yul\":5293:5294   */\n      dup1\n        /* \"#utility.yul\":5286:5298   */\n      revert\n        /* \"#utility.yul\":5310:5412   */\n    tag_422:\n        /* \"#utility.yul\":5351:5357   */\n      0x00\n        /* \"#utility.yul\":5402:5404   */\n      0x1f\n        /* \"#utility.yul\":5398:5405   */\n      not\n        /* \"#utility.yul\":5393:5395   */\n      0x1f\n        /* \"#utility.yul\":5386:5391   */\n      dup4\n        /* \"#utility.yul\":5382:5396   */\n      add\n        /* \"#utility.yul\":5378:5406   */\n      and\n        /* \"#utility.yul\":5368:5406   */\n      swap1\n      pop\n        /* \"#utility.yul\":5310:5412   */\n      swap2\n      swap1\n      pop\n      jump\t// out\n        /* \"#utility.yul\":5418:5598   */\n    tag_160:\n        /* \"#utility.yul\":5466:5543   */\n      0x4e487b7100000000000000000000000000000000000000000000000000000000\n        /* \"#utility.yul\":5463:5464   */\n      0x00\n        /* \"#utility.yul\":5456:5544   */\n      mstore\n        /* \"#utility.yul\":5563:5567   */\n      0x41\n        /* \"#utility.yul\":5560:5561   */\n      0x04\n        /* \"#utility.yul\":5553:5568   */\n      mstore\n        /* \"#utility.yul\":5587:5591   */\n      0x24\n        /* \"#utility.yul\":5584:5585   */\n      0x00\n        /* \"#utility.yul\":5577:5592   */\n      revert\n        /* \"#utility.yul\":5604:5885   */\n    tag_423:\n        /* \"#utility.yul\":5687:5714   */\n      tag_524\n        /* \"#utility.yul\":5709:5713   */\n      dup3\n        /* \"#utility.yul\":5687:5714   */\n      tag_422\n      jump\t// in\n    tag_524:\n        /* \"#utility.yul\":5679:5685   */\n      dup2\n        /* \"#utility.yul\":5675:5715   */\n      add\n        /* \"#utility.yul\":5817:5823   */\n      dup2\n        /* \"#utility.yul\":5805:5815   */\n      dup2\n        /* \"#utility.yul\":5802:5824   */\n      lt\n        /* \"#utility.yul\":5781:5799   */\n      0xffffffffffffffff\n        /* \"#utility.yul\":5769:5779   */\n      dup3\n        /* \"#utility.yul\":5766:5800   */\n      gt\n        /* \"#utility.yul\":5763:5825   */\n      or\n        /* \"#utility.yul\":5760:5848   */\n      iszero\n      tag_525\n      jumpi\n        /* \"#utility.yul\":5828:5846   */\n      tag_526\n      tag_160\n      jump\t// in\n    tag_526:\n        /* \"#utility.yul\":5760:5848   */\n    tag_525:\n        /* \"#utility.yul\":5868:5878   */\n      dup1\n        /* \"#utility.yul\":5864:5866   */\n      0x40\n        /* \"#utility.yul\":5857:5879   */\n      mstore\n        /* \"#utility.yul\":5647:5885   */\n      pop\n        /* \"#utility.yul\":5604:5885   */\n      pop\n      pop\n      jump\t// out\n        /* \"#utility.yul\":5891:6020   */\n    tag_424:\n        /* \"#utility.yul\":5925:5931   */\n      0x00\n        /* \"#utility.yul\":5952:5972   */\n      tag_528\n      tag_401\n      jump\t// in\n    tag_528:\n        /* \"#utility.yul\":5942:5972   */\n      swap1\n      pop\n        /* \"#utility.yul\":5981:6014   */\n      tag_529\n        /* \"#utility.yul\":6009:6013   */\n      dup3\n        /* \"#utility.yul\":6001:6007   */\n      dup3\n        /* \"#utility.yul\":5981:6014   */\n      tag_423\n      jump\t// in\n    tag_529:\n        /* \"#utility.yul\":5891:6020   */\n      swap2\n      swap1\n      pop\n      jump\t// out\n        /* \"#utility.yul\":6026:6334   */\n    tag_425:\n        /* \"#utility.yul\":6088:6092   */\n      0x00\n        /* \"#utility.yul\":6178:6196   */\n      0xffffffffffffffff\n        /* \"#utility.yul\":6170:6176   */\n      dup3\n        /* \"#utility.yul\":6167:6197   */\n      gt\n        /* \"#utility.yul\":6164:6220   */\n      iszero\n      tag_531\n      jumpi\n        /* \"#utility.yul\":6200:6218   */\n      tag_532\n      tag_160\n      jump\t// in\n    tag_532:\n        /* \"#utility.yul\":6164:6220   */\n    tag_531:\n        /* \"#utility.yul\":6238:6267   */\n      tag_533\n        /* \"#utility.yul\":6260:6266   */\n      dup3\n        /* \"#utility.yul\":6238:6267   */\n      tag_422\n      jump\t// in\n    tag_533:\n        /* \"#utility.yul\":6230:6267   */\n      swap1\n      pop\n        /* \"#utility.yul\":6322:6326   */\n      0x20\n        /* \"#utility.yul\":6316:6320   */\n      dup2\n        /* \"#utility.yul\":6312:6327   */\n      add\n        /* \"#utility.yul\":6304:6327   */\n      swap1\n      pop\n        /* \"#utility.yul\":6026:6334   */\n      swap2\n      swap1\n      pop\n      jump\t// out\n        /* \"#utility.yul\":6340:6494   */\n    tag_426:\n        /* \"#utility.yul\":6424:6430   */\n      dup3\n        /* \"#utility.yul\":6419:6422   */\n      dup2\n        /* \"#utility.yul\":6414:6417   */\n      dup4\n        /* \"#utility.yul\":6401:6431   */\n      calldatacopy\n        /* \"#utility.yul\":6486:6487   */\n      0x00\n        /* \"#utility.yul\":6477:6483   */\n      dup4\n        /* \"#utility.yul\":6472:6475   */\n      dup4\n        /* \"#utility.yul\":6468:6484   */\n      add\n        /* \"#utility.yul\":6461:6488   */\n      mstore\n        /* \"#utility.yul\":6340:6494   */\n      pop\n      pop\n      pop\n      jump\t// out\n        /* \"#utility.yul\":6500:6912   */\n    tag_427:\n        /* \"#utility.yul\":6578:6583   */\n      0x00\n        /* \"#utility.yul\":6603:6669   */\n      tag_536\n        /* \"#utility.yul\":6619:6668   */\n      tag_537\n        /* \"#utility.yul\":6661:6667   */\n      dup5\n        /* \"#utility.yul\":6619:6668   */\n      tag_425\n      jump\t// in\n    tag_537:\n        /* \"#utility.yul\":6603:6669   */\n      tag_424\n      jump\t// in\n    tag_536:\n        /* \"#utility.yul\":6594:6669   */\n      swap1\n      pop\n        /* \"#utility.yul\":6692:6698   */\n      dup3\n        /* \"#utility.yul\":6685:6690   */\n      dup2\n        /* \"#utility.yul\":6678:6699   */\n      mstore\n        /* \"#utility.yul\":6730:6734   */\n      0x20\n        /* \"#utility.yul\":6723:6728   */\n      dup2\n        /* \"#utility.yul\":6719:6735   */\n      add\n        /* \"#utility.yul\":6768:6771   */\n      dup5\n        /* \"#utility.yul\":6759:6765   */\n      dup5\n        /* \"#utility.yul\":6754:6757   */\n      dup5\n        /* \"#utility.yul\":6750:6766   */\n      add\n        /* \"#utility.yul\":6747:6772   */\n      gt\n        /* \"#utility.yul\":6744:6856   */\n      iszero\n      tag_538\n      jumpi\n        /* \"#utility.yul\":6775:6854   */\n      tag_539\n      tag_421\n      jump\t// in\n    tag_539:\n        /* \"#utility.yul\":6744:6856   */\n    tag_538:\n        /* \"#utility.yul\":6865:6906   */\n      tag_540\n        /* \"#utility.yul\":6899:6905   */\n      dup5\n        /* \"#utility.yul\":6894:6897   */\n      dup3\n        /* \"#utility.yul\":6889:6892   */\n      dup6\n        /* \"#utility.yul\":6865:6906   */\n      tag_426\n      jump\t// in\n    tag_540:\n        /* \"#utility.yul\":6584:6912   */\n      pop\n        /* \"#utility.yul\":6500:6912   */\n      swap4\n      swap3\n      pop\n      pop\n      pop\n      jump\t// out\n        /* \"#utility.yul\":6932:7272   */\n    tag_428:\n        /* \"#utility.yul\":6988:6993   */\n      0x00\n        /* \"#utility.yul\":7037:7040   */\n      dup3\n        /* \"#utility.yul\":7030:7034   */\n      0x1f\n        /* \"#utility.yul\":7022:7028   */\n      dup4\n        /* \"#utility.yul\":7018:7035   */\n      add\n        /* \"#utility.yul\":7014:7041   */\n      slt\n        /* \"#utility.yul\":7004:7126   */\n      tag_542\n      jumpi\n        /* \"#utility.yul\":7045:7124   */\n      tag_543\n      tag_420\n      jump\t// in\n    tag_543:\n        /* \"#utility.yul\":7004:7126   */\n    tag_542:\n        /* \"#utility.yul\":7162:7168   */\n      dup2\n        /* \"#utility.yul\":7149:7169   */\n      calldataload\n        /* \"#utility.yul\":7187:7266   */\n      tag_544\n        /* \"#utility.yul\":7262:7265   */\n      dup5\n        /* \"#utility.yul\":7254:7260   */\n      dup3\n        /* \"#utility.yul\":7247:7251   */\n      0x20\n        /* \"#utility.yul\":7239:7245   */\n      dup7\n        /* \"#utility.yul\":7235:7252   */\n      add\n        /* \"#utility.yul\":7187:7266   */\n      tag_427\n      jump\t// in\n    tag_544:\n        /* \"#utility.yul\":7178:7266   */\n      swap2\n      pop\n        /* \"#utility.yul\":6994:7272   */\n      pop\n        /* \"#utility.yul\":6932:7272   */\n      swap3\n      swap2\n      pop\n      pop\n      jump\t// out\n        /* \"#utility.yul\":7278:7932   */\n    tag_120:\n        /* \"#utility.yul\":7356:7362   */\n      0x00\n        /* \"#utility.yul\":7364:7370   */\n      dup1\n        /* \"#utility.yul\":7413:7415   */\n      0x40\n        /* \"#utility.yul\":7401:7410   */\n      dup4\n        /* \"#utility.yul\":7392:7399   */\n      dup6\n        /* \"#utility.yul\":7388:7411   */\n      sub\n        /* \"#utility.yul\":7384:7416   */\n      slt\n        /* \"#utility.yul\":7381:7500   */\n      iszero\n      tag_546\n      jumpi\n        /* \"#utility.yul\":7419:7498   */\n      tag_547\n      tag_402\n      jump\t// in\n    tag_547:\n        /* \"#utility.yul\":7381:7500   */\n    tag_546:\n        /* \"#utility.yul\":7539:7540   */\n      0x00\n        /* \"#utility.yul\":7564:7617   */\n      tag_548\n        /* \"#utility.yul\":7609:7616   */\n      dup6\n        /* \"#utility.yul\":7600:7606   */\n      dup3\n        /* \"#utility.yul\":7589:7598   */\n      dup7\n        /* \"#utility.yul\":7585:7607   */\n      add\n        /* \"#utility.yul\":7564:7617   */\n      tag_407\n      jump\t// in\n    tag_548:\n        /* \"#utility.yul\":7554:7617   */\n      swap3\n      pop\n        /* \"#utility.yul\":7510:7627   */\n      pop\n        /* \"#utility.yul\":7694:7696   */\n      0x20\n        /* \"#utility.yul\":7683:7692   */\n      dup4\n        /* \"#utility.yul\":7679:7697   */\n      add\n        /* \"#utility.yul\":7666:7698   */\n      calldataload\n        /* \"#utility.yul\":7725:7743   */\n      0xffffffffffffffff\n        /* \"#utility.yul\":7717:7723   */\n      dup2\n        /* \"#utility.yul\":7714:7744   */\n      gt\n        /* \"#utility.yul\":7711:7828   */\n      iszero\n      tag_549\n      jumpi\n        /* \"#utility.yul\":7747:7826   */\n      tag_550\n      tag_403\n      jump\t// in\n    tag_550:\n        /* \"#utility.yul\":7711:7828   */\n    tag_549:\n        /* \"#utility.yul\":7852:7915   */\n      tag_551\n        /* \"#utility.yul\":7907:7914   */\n      dup6\n        /* \"#utility.yul\":7898:7904   */\n      dup3\n        /* \"#utility.yul\":7887:7896   */\n      dup7\n        /* \"#utility.yul\":7883:7905   */\n      add\n        /* \"#utility.yul\":7852:7915   */\n      tag_428\n      jump\t// in\n    tag_551:\n        /* \"#utility.yul\":7842:7915   */\n      swap2\n      pop\n        /* \"#utility.yul\":7637:7925   */\n      pop\n        /* \"#utility.yul\":7278:7932   */\n      swap3\n      pop\n      swap3\n      swap1\n      pop\n      jump\t// out\n        /* \"#utility.yul\":7938:8042   */\n    tag_429:\n        /* \"#utility.yul\":7983:7990   */\n      0x00\n        /* \"#utility.yul\":8012:8036   */\n      tag_553\n        /* \"#utility.yul\":8030:8035   */\n      dup3\n        /* \"#utility.yul\":8012:8036   */\n      tag_404\n      jump\t// in\n    tag_553:\n        /* \"#utility.yul\":8001:8036   */\n      swap1\n      pop\n        /* \"#utility.yul\":7938:8042   */\n      swap2\n      swap1\n      pop\n      jump\t// out\n        /* \"#utility.yul\":8048:8186   */\n    tag_430:\n        /* \"#utility.yul\":8129:8161   */\n      tag_555\n        /* \"#utility.yul\":8155:8160   */\n      dup2\n        /* \"#utility.yul\":8129:8161   */\n      tag_429\n      jump\t// in\n    tag_555:\n        /* \"#utility.yul\":8122:8127   */\n      dup2\n        /* \"#utility.yul\":8119:8162   */\n      eq\n        /* \"#utility.yul\":8109:8180   */\n      tag_556\n      jumpi\n        /* \"#utility.yul\":8176:8177   */\n      0x00\n        /* \"#utility.yul\":8173:8174   */\n      dup1\n        /* \"#utility.yul\":8166:8178   */\n      revert\n        /* \"#utility.yul\":8109:8180   */\n    tag_556:\n        /* \"#utility.yul\":8048:8186   */\n      pop\n      jump\t// out\n        /* \"#utility.yul\":8192:8347   */\n    tag_431:\n        /* \"#utility.yul\":8246:8251   */\n      0x00\n        /* \"#utility.yul\":8284:8290   */\n      dup2\n        /* \"#utility.yul\":8271:8291   */\n      calldataload\n        /* \"#utility.yul\":8262:8291   */\n      swap1\n      pop\n        /* \"#utility.yul\":8300:8341   */\n      tag_558\n        /* \"#utility.yul\":8335:8340   */\n      dup2\n        /* \"#utility.yul\":8300:8341   */\n      tag_430\n      jump\t// in\n    tag_558:\n        /* \"#utility.yul\":8192:8347   */\n      swap3\n      swap2\n      pop\n      pop\n      jump\t// out\n        /* \"#utility.yul\":8353:9494   */\n    tag_132:\n        /* \"#utility.yul\":8467:8473   */\n      0x00\n        /* \"#utility.yul\":8475:8481   */\n      dup1\n        /* \"#utility.yul\":8483:8489   */\n      0x00\n        /* \"#utility.yul\":8491:8497   */\n      dup1\n        /* \"#utility.yul\":8540:8543   */\n      0x80\n        /* \"#utility.yul\":8528:8537   */\n      dup6\n        /* \"#utility.yul\":8519:8526   */\n      dup8\n        /* \"#utility.yul\":8515:8538   */\n      sub\n        /* \"#utility.yul\":8511:8544   */\n      slt\n        /* \"#utility.yul\":8508:8628   */\n      iszero\n      tag_560\n      jumpi\n        /* \"#utility.yul\":8547:8626   */\n      tag_561\n      tag_402\n      jump\t// in\n    tag_561:\n        /* \"#utility.yul\":8508:8628   */\n    tag_560:\n        /* \"#utility.yul\":8667:8668   */\n      0x00\n        /* \"#utility.yul\":8692:8745   */\n      tag_562\n        /* \"#utility.yul\":8737:8744   */\n      dup8\n        /* \"#utility.yul\":8728:8734   */\n      dup3\n        /* \"#utility.yul\":8717:8726   */\n      dup9\n        /* \"#utility.yul\":8713:8735   */\n      add\n        /* \"#utility.yul\":8692:8745   */\n      tag_407\n      jump\t// in\n    tag_562:\n        /* \"#utility.yul\":8682:8745   */\n      swap5\n      pop\n        /* \"#utility.yul\":8638:8755   */\n      pop\n        /* \"#utility.yul\":8822:8824   */\n      0x20\n        /* \"#utility.yul\":8811:8820   */\n      dup6\n        /* \"#utility.yul\":8807:8825   */\n      add\n        /* \"#utility.yul\":8794:8826   */\n      calldataload\n        /* \"#utility.yul\":8853:8871   */\n      0xffffffffffffffff\n        /* \"#utility.yul\":8845:8851   */\n      dup2\n        /* \"#utility.yul\":8842:8872   */\n      gt\n        /* \"#utility.yul\":8839:8956   */\n      iszero\n      tag_563\n      jumpi\n        /* \"#utility.yul\":8875:8954   */\n      tag_564\n      tag_403\n      jump\t// in\n    tag_564:\n        /* \"#utility.yul\":8839:8956   */\n    tag_563:\n        /* \"#utility.yul\":8980:9043   */\n      tag_565\n        /* \"#utility.yul\":9035:9042   */\n      dup8\n        /* \"#utility.yul\":9026:9032   */\n      dup3\n        /* \"#utility.yul\":9015:9024   */\n      dup9\n        /* \"#utility.yul\":9011:9033   */\n      add\n        /* \"#utility.yul\":8980:9043   */\n      tag_428\n      jump\t// in\n    tag_565:\n        /* \"#utility.yul\":8970:9043   */\n      swap4\n      pop\n        /* \"#utility.yul\":8765:9053   */\n      pop\n        /* \"#utility.yul\":9120:9122   */\n      0x40\n        /* \"#utility.yul\":9109:9118   */\n      dup6\n        /* \"#utility.yul\":9105:9123   */\n      add\n        /* \"#utility.yul\":9092:9124   */\n      calldataload\n        /* \"#utility.yul\":9151:9169   */\n      0xffffffffffffffff\n        /* \"#utility.yul\":9143:9149   */\n      dup2\n        /* \"#utility.yul\":9140:9170   */\n      gt\n        /* \"#utility.yul\":9137:9254   */\n      iszero\n      tag_566\n      jumpi\n        /* \"#utility.yul\":9173:9252   */\n      tag_567\n      tag_403\n      jump\t// in\n    tag_567:\n        /* \"#utility.yul\":9137:9254   */\n    tag_566:\n        /* \"#utility.yul\":9278:9341   */\n      tag_568\n        /* \"#utility.yul\":9333:9340   */\n      dup8\n        /* \"#utility.yul\":9324:9330   */\n      dup3\n        /* \"#utility.yul\":9313:9322   */\n      dup9\n        /* \"#utility.yul\":9309:9331   */\n      add\n        /* \"#utility.yul\":9278:9341   */\n      tag_428\n      jump\t// in\n    tag_568:\n        /* \"#utility.yul\":9268:9341   */\n      swap3\n      pop\n        /* \"#utility.yul\":9063:9351   */\n      pop\n        /* \"#utility.yul\":9390:9392   */\n      0x60\n        /* \"#utility.yul\":9416:9477   */\n      tag_569\n        /* \"#utility.yul\":9469:9476   */\n      dup8\n        /* \"#utility.yul\":9460:9466   */\n      dup3\n        /* \"#utility.yul\":9449:9458   */\n      dup9\n        /* \"#utility.yul\":9445:9467   */\n      add\n        /* \"#utility.yul\":9416:9477   */\n      tag_431\n      jump\t// in\n    tag_569:\n        /* \"#utility.yul\":9406:9477   */\n      swap2\n      pop\n        /* \"#utility.yul\":9361:9487   */\n      pop\n        /* \"#utility.yul\":8353:9494   */\n      swap3\n      swap6\n      swap2\n      swap5\n      pop\n      swap3\n      pop\n      jump\t// out\n        /* \"#utility.yul\":9500:9643   */\n    tag_432:\n        /* \"#utility.yul\":9557:9562   */\n      0x00\n        /* \"#utility.yul\":9588:9594   */\n      dup2\n        /* \"#utility.yul\":9582:9595   */\n      mload\n        /* \"#utility.yul\":9573:9595   */\n      swap1\n      pop\n        /* \"#utility.yul\":9604:9637   */\n      tag_571\n        /* \"#utility.yul\":9631:9636   */\n      dup2\n        /* \"#utility.yul\":9604:9637   */\n      tag_406\n      jump\t// in\n    tag_571:\n        /* \"#utility.yul\":9500:9643   */\n      swap3\n      swap2\n      pop\n      pop\n      jump\t// out\n        /* \"#utility.yul\":9649:10000   */\n    tag_138:\n        /* \"#utility.yul\":9719:9725   */\n      0x00\n        /* \"#utility.yul\":9768:9770   */\n      0x20\n        /* \"#utility.yul\":9756:9765   */\n      dup3\n        /* \"#utility.yul\":9747:9754   */\n      dup5\n        /* \"#utility.yul\":9743:9766   */\n      sub\n        /* \"#utility.yul\":9739:9771   */\n      slt\n        /* \"#utility.yul\":9736:9855   */\n      iszero\n      tag_573\n      jumpi\n        /* \"#utility.yul\":9774:9853   */\n      tag_574\n      tag_402\n      jump\t// in\n    tag_574:\n        /* \"#utility.yul\":9736:9855   */\n    tag_573:\n        /* \"#utility.yul\":9894:9895   */\n      0x00\n        /* \"#utility.yul\":9919:9983   */\n      tag_575\n        /* \"#utility.yul\":9975:9982   */\n      dup5\n        /* \"#utility.yul\":9966:9972   */\n      dup3\n        /* \"#utility.yul\":9955:9964   */\n      dup6\n        /* \"#utility.yul\":9951:9973   */\n      add\n        /* \"#utility.yul\":9919:9983   */\n      tag_432\n      jump\t// in\n    tag_575:\n        /* \"#utility.yul\":9909:9983   */\n      swap2\n      pop\n        /* \"#utility.yul\":9865:9993   */\n      pop\n        /* \"#utility.yul\":9649:10000   */\n      swap3\n      swap2\n      pop\n      pop\n      jump\t// out\n        /* \"#utility.yul\":10006:10148   */\n    tag_433:\n        /* \"#utility.yul\":10089:10096   */\n      0x00\n        /* \"#utility.yul\":10118:10142   */\n      tag_577\n        /* \"#utility.yul\":10136:10141   */\n      dup3\n        /* \"#utility.yul\":10118:10142   */\n      tag_405\n      jump\t// in\n    tag_577:\n        /* \"#utility.yul\":10107:10142   */\n      swap1\n      pop\n        /* \"#utility.yul\":10006:10148   */\n      swap2\n      swap1\n      pop\n      jump\t// out\n        /* \"#utility.yul\":10154:10368   */\n    tag_434:\n        /* \"#utility.yul\":10273:10343   */\n      tag_579\n        /* \"#utility.yul\":10337:10342   */\n      dup2\n        /* \"#utility.yul\":10273:10343   */\n      tag_433\n      jump\t// in\n    tag_579:\n        /* \"#utility.yul\":10266:10271   */\n      dup2\n        /* \"#utility.yul\":10263:10344   */\n      eq\n        /* \"#utility.yul\":10253:10362   */\n      tag_580\n      jumpi\n        /* \"#utility.yul\":10358:10359   */\n      0x00\n        /* \"#utility.yul\":10355:10356   */\n      dup1\n        /* \"#utility.yul\":10348:10360   */\n      revert\n        /* \"#utility.yul\":10253:10362   */\n    tag_580:\n        /* \"#utility.yul\":10154:10368   */\n      pop\n      jump\t// out\n        /* \"#utility.yul\":10374:10609   */\n    tag_435:\n        /* \"#utility.yul\":10477:10482   */\n      0x00\n        /* \"#utility.yul\":10508:10514   */\n      dup2\n        /* \"#utility.yul\":10502:10515   */\n      mload\n        /* \"#utility.yul\":10493:10515   */\n      swap1\n      pop\n        /* \"#utility.yul\":10524:10603   */\n      tag_582\n        /* \"#utility.yul\":10597:10602   */\n      dup2\n        /* \"#utility.yul\":10524:10603   */\n      tag_434\n      jump\t// in\n    tag_582:\n        /* \"#utility.yul\":10374:10609   */\n      swap3\n      swap2\n      pop\n      pop\n      jump\t// out\n        /* \"#utility.yul\":10615:11058   */\n    tag_142:\n        /* \"#utility.yul\":10731:10737   */\n      0x00\n        /* \"#utility.yul\":10780:10782   */\n      0x20\n        /* \"#utility.yul\":10768:10777   */\n      dup3\n        /* \"#utility.yul\":10759:10766   */\n      dup5\n        /* \"#utility.yul\":10755:10778   */\n      sub\n        /* \"#utility.yul\":10751:10783   */\n      slt\n        /* \"#utility.yul\":10748:10867   */\n      iszero\n      tag_584\n      jumpi\n        /* \"#utility.yul\":10786:10865   */\n      tag_585\n      tag_402\n      jump\t// in\n    tag_585:\n        /* \"#utility.yul\":10748:10867   */\n    tag_584:\n        /* \"#utility.yul\":10906:10907   */\n      0x00\n        /* \"#utility.yul\":10931:11041   */\n      tag_586\n        /* \"#utility.yul\":11033:11040   */\n      dup5\n        /* \"#utility.yul\":11024:11030   */\n      dup3\n        /* \"#utility.yul\":11013:11022   */\n      dup6\n        /* \"#utility.yul\":11009:11031   */\n      add\n        /* \"#utility.yul\":10931:11041   */\n      tag_435\n      jump\t// in\n    tag_586:\n        /* \"#utility.yul\":10921:11041   */\n      swap2\n      pop\n        /* \"#utility.yul\":10877:11051   */\n      pop\n        /* \"#utility.yul\":10615:11058   */\n      swap3\n      swap2\n      pop\n      pop\n      jump\t// out\n        /* \"#utility.yul\":11064:11233   */\n    tag_436:\n        /* \"#utility.yul\":11148:11159   */\n      0x00\n        /* \"#utility.yul\":11182:11188   */\n      dup3\n        /* \"#utility.yul\":11177:11180   */\n      dup3\n        /* \"#utility.yul\":11170:11189   */\n      mstore\n        /* \"#utility.yul\":11222:11226   */\n      0x20\n        /* \"#utility.yul\":11217:11220   */\n      dup3\n        /* \"#utility.yul\":11213:11227   */\n      add\n        /* \"#utility.yul\":11198:11227   */\n      swap1\n      pop\n        /* \"#utility.yul\":11064:11233   */\n      swap3\n      swap2\n      pop\n      pop\n      jump\t// out\n        /* \"#utility.yul\":11239:11419   */\n    tag_437:\n        /* \"#utility.yul\":11379:11411   */\n      0x537461727420696e6465782063616e6e6f74206265206e656761746976650000\n        /* \"#utility.yul\":11375:11376   */\n      0x00\n        /* \"#utility.yul\":11367:11373   */\n      dup3\n        /* \"#utility.yul\":11363:11377   */\n      add\n        /* \"#utility.yul\":11356:11412   */\n      mstore\n        /* \"#utility.yul\":11239:11419   */\n      pop\n      jump\t// out\n        /* \"#utility.yul\":11425:11791   */\n    tag_438:\n        /* \"#utility.yul\":11567:11570   */\n      0x00\n        /* \"#utility.yul\":11588:11655   */\n      tag_590\n        /* \"#utility.yul\":11652:11654   */\n      0x1e\n        /* \"#utility.yul\":11647:11650   */\n      dup4\n        /* \"#utility.yul\":11588:11655   */\n      tag_436\n      jump\t// in\n    tag_590:\n        /* \"#utility.yul\":11581:11655   */\n      swap2\n      pop\n        /* \"#utility.yul\":11664:11757   */\n      tag_591\n        /* \"#utility.yul\":11753:11756   */\n      dup3\n        /* \"#utility.yul\":11664:11757   */\n      tag_437\n      jump\t// in\n    tag_591:\n        /* \"#utility.yul\":11782:11784   */\n      0x20\n        /* \"#utility.yul\":11777:11780   */\n      dup3\n        /* \"#utility.yul\":11773:11785   */\n      add\n        /* \"#utility.yul\":11766:11785   */\n      swap1\n      pop\n        /* \"#utility.yul\":11425:11791   */\n      swap2\n      swap1\n      pop\n      jump\t// out\n        /* \"#utility.yul\":11797:12216   */\n    tag_152:\n        /* \"#utility.yul\":11963:11967   */\n      0x00\n        /* \"#utility.yul\":12001:12003   */\n      0x20\n        /* \"#utility.yul\":11990:11999   */\n      dup3\n        /* \"#utility.yul\":11986:12004   */\n      add\n        /* \"#utility.yul\":11978:12004   */\n      swap1\n      pop\n        /* \"#utility.yul\":12050:12059   */\n      dup2\n        /* \"#utility.yul\":12044:12048   */\n      dup2\n        /* \"#utility.yul\":12040:12060   */\n      sub\n        /* \"#utility.yul\":12036:12037   */\n      0x00\n        /* \"#utility.yul\":12025:12034   */\n      dup4\n        /* \"#utility.yul\":12021:12038   */\n      add\n        /* \"#utility.yul\":12014:12061   */\n      mstore\n        /* \"#utility.yul\":12078:12209   */\n      tag_593\n        /* \"#utility.yul\":12204:12208   */\n      dup2\n        /* \"#utility.yul\":12078:12209   */\n      tag_438\n      jump\t// in\n    tag_593:\n        /* \"#utility.yul\":12070:12209   */\n      swap1\n      pop\n        /* \"#utility.yul\":11797:12216   */\n      swap2\n      swap1\n      pop\n      jump\t// out\n        /* \"#utility.yul\":12222:12448   */\n    tag_439:\n        /* \"#utility.yul\":12362:12396   */\n      0x456e6420696e6465782065786365656473207573657220616464726573736573\n        /* \"#utility.yul\":12358:12359   */\n      0x00\n        /* \"#utility.yul\":12350:12356   */\n      dup3\n        /* \"#utility.yul\":12346:12360   */\n      add\n        /* \"#utility.yul\":12339:12397   */\n      mstore\n        /* \"#utility.yul\":12431:12440   */\n      0x206c656e67746800000000000000000000000000000000000000000000000000\n        /* \"#utility.yul\":12426:12428   */\n      0x20\n        /* \"#utility.yul\":12418:12424   */\n      dup3\n        /* \"#utility.yul\":12414:12429   */\n      add\n        /* \"#utility.yul\":12407:12441   */\n      mstore\n        /* \"#utility.yul\":12222:12448   */\n      pop\n      jump\t// out\n        /* \"#utility.yul\":12454:12820   */\n    tag_440:\n        /* \"#utility.yul\":12596:12599   */\n      0x00\n        /* \"#utility.yul\":12617:12684   */\n      tag_596\n        /* \"#utility.yul\":12681:12683   */\n      0x27\n        /* \"#utility.yul\":12676:12679   */\n      dup4\n        /* \"#utility.yul\":12617:12684   */\n      tag_436\n      jump\t// in\n    tag_596:\n        /* \"#utility.yul\":12610:12684   */\n      swap2\n      pop\n        /* \"#utility.yul\":12693:12786   */\n      tag_597\n        /* \"#utility.yul\":12782:12785   */\n      dup3\n        /* \"#utility.yul\":12693:12786   */\n      tag_439\n      jump\t// in\n    tag_597:\n        /* \"#utility.yul\":12811:12813   */\n      0x40\n        /* \"#utility.yul\":12806:12809   */\n      dup3\n        /* \"#utility.yul\":12802:12814   */\n      add\n        /* \"#utility.yul\":12795:12814   */\n      swap1\n      pop\n        /* \"#utility.yul\":12454:12820   */\n      swap2\n      swap1\n      pop\n      jump\t// out\n        /* \"#utility.yul\":12826:13245   */\n    tag_155:\n        /* \"#utility.yul\":12992:12996   */\n      0x00\n        /* \"#utility.yul\":13030:13032   */\n      0x20\n        /* \"#utility.yul\":13019:13028   */\n      dup3\n        /* \"#utility.yul\":13015:13033   */\n      add\n        /* \"#utility.yul\":13007:13033   */\n      swap1\n      pop\n        /* \"#utility.yul\":13079:13088   */\n      dup2\n        /* \"#utility.yul\":13073:13077   */\n      dup2\n        /* \"#utility.yul\":13069:13089   */\n      sub\n        /* \"#utility.yul\":13065:13066   */\n      0x00\n        /* \"#utility.yul\":13054:13063   */\n      dup4\n        /* \"#utility.yul\":13050:13067   */\n      add\n        /* \"#utility.yul\":13043:13090   */\n      mstore\n        /* \"#utility.yul\":13107:13238   */\n      tag_599\n        /* \"#utility.yul\":13233:13237   */\n      dup2\n        /* \"#utility.yul\":13107:13238   */\n      tag_440\n      jump\t// in\n    tag_599:\n        /* \"#utility.yul\":13099:13238   */\n      swap1\n      pop\n        /* \"#utility.yul\":12826:13245   */\n      swap2\n      swap1\n      pop\n      jump\t// out\n        /* \"#utility.yul\":13251:13431   */\n    tag_441:\n        /* \"#utility.yul\":13299:13376   */\n      0x4e487b7100000000000000000000000000000000000000000000000000000000\n        /* \"#utility.yul\":13296:13297   */\n      0x00\n        /* \"#utility.yul\":13289:13377   */\n      mstore\n        /* \"#utility.yul\":13396:13400   */\n      0x11\n        /* \"#utility.yul\":13393:13394   */\n      0x04\n        /* \"#utility.yul\":13386:13401   */\n      mstore\n        /* \"#utility.yul\":13420:13424   */\n      0x24\n        /* \"#utility.yul\":13417:13418   */\n      0x00\n        /* \"#utility.yul\":13410:13425   */\n      revert\n        /* \"#utility.yul\":13437:13628   */\n    tag_157:\n        /* \"#utility.yul\":13477:13481   */\n      0x00\n        /* \"#utility.yul\":13497:13517   */\n      tag_602\n        /* \"#utility.yul\":13515:13516   */\n      dup3\n        /* \"#utility.yul\":13497:13517   */\n      tag_408\n      jump\t// in\n    tag_602:\n        /* \"#utility.yul\":13492:13517   */\n      swap2\n      pop\n        /* \"#utility.yul\":13531:13551   */\n      tag_603\n        /* \"#utility.yul\":13549:13550   */\n      dup4\n        /* \"#utility.yul\":13531:13551   */\n      tag_408\n      jump\t// in\n    tag_603:\n        /* \"#utility.yul\":13526:13551   */\n      swap3\n      pop\n        /* \"#utility.yul\":13570:13571   */\n      dup3\n        /* \"#utility.yul\":13567:13568   */\n      dup3\n        /* \"#utility.yul\":13564:13572   */\n      lt\n        /* \"#utility.yul\":13561:13595   */\n      iszero\n      tag_604\n      jumpi\n        /* \"#utility.yul\":13575:13593   */\n      tag_605\n      tag_441\n      jump\t// in\n    tag_605:\n        /* \"#utility.yul\":13561:13595   */\n    tag_604:\n        /* \"#utility.yul\":13620:13621   */\n      dup3\n        /* \"#utility.yul\":13617:13618   */\n      dup3\n        /* \"#utility.yul\":13613:13622   */\n      sub\n        /* \"#utility.yul\":13605:13622   */\n      swap1\n      pop\n        /* \"#utility.yul\":13437:13628   */\n      swap3\n      swap2\n      pop\n      pop\n      jump\t// out\n        /* \"#utility.yul\":13634:13814   */\n    tag_167:\n        /* \"#utility.yul\":13682:13759   */\n      0x4e487b7100000000000000000000000000000000000000000000000000000000\n        /* \"#utility.yul\":13679:13680   */\n      0x00\n        /* \"#utility.yul\":13672:13760   */\n      mstore\n        /* \"#utility.yul\":13779:13783   */\n      0x32\n        /* \"#utility.yul\":13776:13777   */\n      0x04\n        /* \"#utility.yul\":13769:13784   */\n      mstore\n        /* \"#utility.yul\":13803:13807   */\n      0x24\n        /* \"#utility.yul\":13800:13801   */\n      0x00\n        /* \"#utility.yul\":13793:13808   */\n      revert\n        /* \"#utility.yul\":13820:14053   */\n    tag_172:\n        /* \"#utility.yul\":13859:13862   */\n      0x00\n        /* \"#utility.yul\":13882:13906   */\n      tag_608\n        /* \"#utility.yul\":13900:13905   */\n      dup3\n        /* \"#utility.yul\":13882:13906   */\n      tag_408\n      jump\t// in\n    tag_608:\n        /* \"#utility.yul\":13873:13906   */\n      swap2\n      pop\n        /* \"#utility.yul\":13928:13994   */\n      0xffffffffffffffffffffffffffffffffffffffffffffffffffffffffffffffff\n        /* \"#utility.yul\":13921:13926   */\n      dup3\n        /* \"#utility.yul\":13918:13995   */\n      eq\n        /* \"#utility.yul\":13915:14018   */\n      iszero\n      tag_609\n      jumpi\n        /* \"#utility.yul\":13998:14016   */\n      tag_610\n      tag_441\n      jump\t// in\n    tag_610:\n        /* \"#utility.yul\":13915:14018   */\n    tag_609:\n        /* \"#utility.yul\":14045:14046   */\n      0x01\n        /* \"#utility.yul\":14038:14043   */\n      dup3\n        /* \"#utility.yul\":14034:14047   */\n      add\n        /* \"#utility.yul\":14027:14047   */\n      swap1\n      pop\n        /* \"#utility.yul\":13820:14053   */\n      swap2\n      swap1\n      pop\n      jump\t// out\n        /* \"#utility.yul\":14059:14186   */\n    tag_442:\n        /* \"#utility.yul\":14127:14134   */\n      0x00\n        /* \"#utility.yul\":14156:14180   */\n      tag_612\n        /* \"#utility.yul\":14174:14179   */\n      dup3\n        /* \"#utility.yul\":14156:14180   */\n      tag_405\n      jump\t// in\n    tag_612:\n        /* \"#utility.yul\":14145:14180   */\n      swap1\n      pop\n        /* \"#utility.yul\":14059:14186   */\n      swap2\n      swap1\n      pop\n      jump\t// out\n        /* \"#utility.yul\":14192:14376   */\n    tag_443:\n        /* \"#utility.yul\":14296:14351   */\n      tag_614\n        /* \"#utility.yul\":14345:14350   */\n      dup2\n        /* \"#utility.yul\":14296:14351   */\n      tag_442\n      jump\t// in\n    tag_614:\n        /* \"#utility.yul\":14289:14294   */\n      dup2\n        /* \"#utility.yul\":14286:14352   */\n      eq\n        /* \"#utility.yul\":14276:14370   */\n      tag_615\n      jumpi\n        /* \"#utility.yul\":14366:14367   */\n      0x00\n        /* \"#utility.yul\":14363:14364   */\n      dup1\n        /* \"#utility.yul\":14356:14368   */\n      revert\n        /* \"#utility.yul\":14276:14370   */\n    tag_615:\n        /* \"#utility.yul\":14192:14376   */\n      pop\n      jump\t// out\n        /* \"#utility.yul\":14382:14587   */\n    tag_444:\n        /* \"#utility.yul\":14470:14475   */\n      0x00\n        /* \"#utility.yul\":14501:14507   */\n      dup2\n        /* \"#utility.yul\":14495:14508   */\n      mload\n        /* \"#utility.yul\":14486:14508   */\n      swap1\n      pop\n        /* \"#utility.yul\":14517:14581   */\n      tag_617\n        /* \"#utility.yul\":14575:14580   */\n      dup2\n        /* \"#utility.yul\":14517:14581   */\n      tag_443\n      jump\t// in\n    tag_617:\n        /* \"#utility.yul\":14382:14587   */\n      swap3\n      swap2\n      pop\n      pop\n      jump\t// out\n        /* \"#utility.yul\":14593:15006   */\n    tag_189:\n        /* \"#utility.yul\":14694:14700   */\n      0x00\n        /* \"#utility.yul\":14743:14745   */\n      0x20\n        /* \"#utility.yul\":14731:14740   */\n      dup3\n        /* \"#utility.yul\":14722:14729   */\n      dup5\n        /* \"#utility.yul\":14718:14741   */\n      sub\n        /* \"#utility.yul\":14714:14746   */\n      slt\n        /* \"#utility.yul\":14711:14830   */\n      iszero\n      tag_619\n      jumpi\n        /* \"#utility.yul\":14749:14828   */\n      tag_620\n      tag_402\n      jump\t// in\n    tag_620:\n        /* \"#utility.yul\":14711:14830   */\n    tag_619:\n        /* \"#utility.yul\":14869:14870   */\n      0x00\n        /* \"#utility.yul\":14894:14989   */\n      tag_621\n        /* \"#utility.yul\":14981:14988   */\n      dup5\n        /* \"#utility.yul\":14972:14978   */\n      dup3\n        /* \"#utility.yul\":14961:14970   */\n      dup6\n        /* \"#utility.yul\":14957:14979   */\n      add\n        /* \"#utility.yul\":14894:14989   */\n      tag_444\n      jump\t// in\n    tag_621:\n        /* \"#utility.yul\":14884:14989   */\n      swap2\n      pop\n        /* \"#utility.yul\":14840:14999   */\n      pop\n        /* \"#utility.yul\":14593:15006   */\n      swap3\n      swap2\n      pop\n      pop\n      jump\t// out\n        /* \"#utility.yul\":15012:15111   */\n    tag_445:\n        /* \"#utility.yul\":15064:15070   */\n      0x00\n        /* \"#utility.yul\":15098:15103   */\n      dup2\n        /* \"#utility.yul\":15092:15104   */\n      mload\n        /* \"#utility.yul\":15082:15104   */\n      swap1\n      pop\n        /* \"#utility.yul\":15012:15111   */\n      swap2\n      swap1\n      pop\n      jump\t// out\n        /* \"#utility.yul\":15117:15424   */\n    tag_446:\n        /* \"#utility.yul\":15185:15186   */\n      0x00\n        /* \"#utility.yul\":15195:15308   */\n    tag_624:\n        /* \"#utility.yul\":15209:15215   */\n      dup4\n        /* \"#utility.yul\":15206:15207   */\n      dup2\n        /* \"#utility.yul\":15203:15216   */\n      lt\n        /* \"#utility.yul\":15195:15308   */\n      iszero\n      tag_626\n      jumpi\n        /* \"#utility.yul\":15294:15295   */\n      dup1\n        /* \"#utility.yul\":15289:15292   */\n      dup3\n        /* \"#utility.yul\":15285:15296   */\n      add\n        /* \"#utility.yul\":15279:15297   */\n      mload\n        /* \"#utility.yul\":15275:15276   */\n      dup2\n        /* \"#utility.yul\":15270:15273   */\n      dup5\n        /* \"#utility.yul\":15266:15277   */\n      add\n        /* \"#utility.yul\":15259:15298   */\n      mstore\n        /* \"#utility.yul\":15231:15233   */\n      0x20\n        /* \"#utility.yul\":15228:15229   */\n      dup2\n        /* \"#utility.yul\":15224:15234   */\n      add\n        /* \"#utility.yul\":15219:15234   */\n      swap1\n      pop\n        /* \"#utility.yul\":15195:15308   */\n      jump(tag_624)\n    tag_626:\n        /* \"#utility.yul\":15326:15332   */\n      dup4\n        /* \"#utility.yul\":15323:15324   */\n      dup2\n        /* \"#utility.yul\":15320:15333   */\n      gt\n        /* \"#utility.yul\":15317:15418   */\n      iszero\n      tag_627\n      jumpi\n        /* \"#utility.yul\":15406:15407   */\n      0x00\n        /* \"#utility.yul\":15397:15403   */\n      dup5\n        /* \"#utility.yul\":15392:15395   */\n      dup5\n        /* \"#utility.yul\":15388:15404   */\n      add\n        /* \"#utility.yul\":15381:15408   */\n      mstore\n        /* \"#utility.yul\":15317:15418   */\n    tag_627:\n        /* \"#utility.yul\":15166:15424   */\n      pop\n        /* \"#utility.yul\":15117:15424   */\n      pop\n      pop\n      pop\n      jump\t// out\n        /* \"#utility.yul\":15430:15794   */\n    tag_447:\n        /* \"#utility.yul\":15518:15521   */\n      0x00\n        /* \"#utility.yul\":15546:15585   */\n      tag_629\n        /* \"#utility.yul\":15579:15584   */\n      dup3\n        /* \"#utility.yul\":15546:15585   */\n      tag_445\n      jump\t// in\n    tag_629:\n        /* \"#utility.yul\":15601:15672   */\n      tag_630\n        /* \"#utility.yul\":15665:15671   */\n      dup2\n        /* \"#utility.yul\":15660:15663   */\n      dup6\n        /* \"#utility.yul\":15601:15672   */\n      tag_436\n      jump\t// in\n    tag_630:\n        /* \"#utility.yul\":15594:15672   */\n      swap4\n      pop\n        /* \"#utility.yul\":15681:15733   */\n      tag_631\n        /* \"#utility.yul\":15726:15732   */\n      dup2\n        /* \"#utility.yul\":15721:15724   */\n      dup6\n        /* \"#utility.yul\":15714:15718   */\n      0x20\n        /* \"#utility.yul\":15707:15712   */\n      dup7\n        /* \"#utility.yul\":15703:15719   */\n      add\n        /* \"#utility.yul\":15681:15733   */\n      tag_446\n      jump\t// in\n    tag_631:\n        /* \"#utility.yul\":15758:15787   */\n      tag_632\n        /* \"#utility.yul\":15780:15786   */\n      dup2\n        /* \"#utility.yul\":15758:15787   */\n      tag_422\n      jump\t// in\n    tag_632:\n        /* \"#utility.yul\":15753:15756   */\n      dup5\n        /* \"#utility.yul\":15749:15788   */\n      add\n        /* \"#utility.yul\":15742:15788   */\n      swap2\n      pop\n        /* \"#utility.yul\":15522:15794   */\n      pop\n        /* \"#utility.yul\":15430:15794   */\n      swap3\n      swap2\n      pop\n      pop\n      jump\t// out\n        /* \"#utility.yul\":15800:16113   */\n    tag_244:\n        /* \"#utility.yul\":15913:15917   */\n      0x00\n        /* \"#utility.yul\":15951:15953   */\n      0x20\n        /* \"#utility.yul\":15940:15949   */\n      dup3\n        /* \"#utility.yul\":15936:15954   */\n      add\n        /* \"#utility.yul\":15928:15954   */\n      swap1\n      pop\n        /* \"#utility.yul\":16000:16009   */\n      dup2\n        /* \"#utility.yul\":15994:15998   */\n      dup2\n        /* \"#utility.yul\":15990:16010   */\n      sub\n        /* \"#utility.yul\":15986:15987   */\n      0x00\n        /* \"#utility.yul\":15975:15984   */\n      dup4\n        /* \"#utility.yul\":15971:15988   */\n      add\n        /* \"#utility.yul\":15964:16011   */\n      mstore\n        /* \"#utility.yul\":16028:16106   */\n      tag_634\n        /* \"#utility.yul\":16101:16105   */\n      dup2\n        /* \"#utility.yul\":16092:16098   */\n      dup5\n        /* \"#utility.yul\":16028:16106   */\n      tag_447\n      jump\t// in\n    tag_634:\n        /* \"#utility.yul\":16020:16106   */\n      swap1\n      pop\n        /* \"#utility.yul\":15800:16113   */\n      swap3\n      swap2\n      pop\n      pop\n      jump\t// out\n        /* \"#utility.yul\":16119:16299   */\n    tag_256:\n        /* \"#utility.yul\":16167:16244   */\n      0x4e487b7100000000000000000000000000000000000000000000000000000000\n        /* \"#utility.yul\":16164:16165   */\n      0x00\n        /* \"#utility.yul\":16157:16245   */\n      mstore\n        /* \"#utility.yul\":16264:16268   */\n      0x21\n        /* \"#utility.yul\":16261:16262   */\n      0x04\n        /* \"#utility.yul\":16254:16269   */\n      mstore\n        /* \"#utility.yul\":16288:16292   */\n      0x24\n        /* \"#utility.yul\":16285:16286   */\n      0x00\n        /* \"#utility.yul\":16278:16293   */\n      revert\n        /* \"#utility.yul\":16305:16415   */\n    tag_448:\n        /* \"#utility.yul\":16389:16390   */\n      0x03\n        /* \"#utility.yul\":16382:16387   */\n      dup2\n        /* \"#utility.yul\":16379:16391   */\n      lt\n        /* \"#utility.yul\":16369:16409   */\n      tag_637\n      jumpi\n        /* \"#utility.yul\":16405:16406   */\n      0x00\n        /* \"#utility.yul\":16402:16403   */\n      dup1\n        /* \"#utility.yul\":16395:16407   */\n      revert\n        /* \"#utility.yul\":16369:16409   */\n    tag_637:\n        /* \"#utility.yul\":16305:16415   */\n      pop\n      jump\t// out\n        /* \"#utility.yul\":16421:16586   */\n    tag_449:\n        /* \"#utility.yul\":16489:16494   */\n      0x00\n        /* \"#utility.yul\":16520:16526   */\n      dup2\n        /* \"#utility.yul\":16514:16527   */\n      mload\n        /* \"#utility.yul\":16505:16527   */\n      swap1\n      pop\n        /* \"#utility.yul\":16536:16580   */\n      tag_639\n        /* \"#utility.yul\":16574:16579   */\n      dup2\n        /* \"#utility.yul\":16536:16580   */\n      tag_448\n      jump\t// in\n    tag_639:\n        /* \"#utility.yul\":16421:16586   */\n      swap3\n      swap2\n      pop\n      pop\n      jump\t// out\n        /* \"#utility.yul\":16592:16965   */\n    tag_260:\n        /* \"#utility.yul\":16673:16679   */\n      0x00\n        /* \"#utility.yul\":16722:16724   */\n      0x20\n        /* \"#utility.yul\":16710:16719   */\n      dup3\n        /* \"#utility.yul\":16701:16708   */\n      dup5\n        /* \"#utility.yul\":16697:16720   */\n      sub\n        /* \"#utility.yul\":16693:16725   */\n      slt\n        /* \"#utility.yul\":16690:16809   */\n      iszero\n      tag_641\n      jumpi\n        /* \"#utility.yul\":16728:16807   */\n      tag_642\n      tag_402\n      jump\t// in\n    tag_642:\n        /* \"#utility.yul\":16690:16809   */\n    tag_641:\n        /* \"#utility.yul\":16848:16849   */\n      0x00\n        /* \"#utility.yul\":16873:16948   */\n      tag_643\n        /* \"#utility.yul\":16940:16947   */\n      dup5\n        /* \"#utility.yul\":16931:16937   */\n      dup3\n        /* \"#utility.yul\":16920:16929   */\n      dup6\n        /* \"#utility.yul\":16916:16938   */\n      add\n        /* \"#utility.yul\":16873:16948   */\n      tag_449\n      jump\t// in\n    tag_643:\n        /* \"#utility.yul\":16863:16948   */\n      swap2\n      pop\n        /* \"#utility.yul\":16819:16958   */\n      pop\n        /* \"#utility.yul\":16592:16965   */\n      swap3\n      swap2\n      pop\n      pop\n      jump\t// out\n        /* \"#utility.yul\":16971:17149   */\n    tag_450:\n        /* \"#utility.yul\":17111:17141   */\n      0x436f6e747261637420737461747573206d757374206265206f70656e00000000\n        /* \"#utility.yul\":17107:17108   */\n      0x00\n        /* \"#utility.yul\":17099:17105   */\n      dup3\n        /* \"#utility.yul\":17095:17109   */\n      add\n        /* \"#utility.yul\":17088:17142   */\n      mstore\n        /* \"#utility.yul\":16971:17149   */\n      pop\n      jump\t// out\n        /* \"#utility.yul\":17155:17521   */\n    tag_451:\n        /* \"#utility.yul\":17297:17300   */\n      0x00\n        /* \"#utility.yul\":17318:17385   */\n      tag_646\n        /* \"#utility.yul\":17382:17384   */\n      0x1c\n        /* \"#utility.yul\":17377:17380   */\n      dup4\n        /* \"#utility.yul\":17318:17385   */\n      tag_436\n      jump\t// in\n    tag_646:\n        /* \"#utility.yul\":17311:17385   */\n      swap2\n      pop\n        /* \"#utility.yul\":17394:17487   */\n      tag_647\n        /* \"#utility.yul\":17483:17486   */\n      dup3\n        /* \"#utility.yul\":17394:17487   */\n      tag_450\n      jump\t// in\n    tag_647:\n        /* \"#utility.yul\":17512:17514   */\n      0x20\n        /* \"#utility.yul\":17507:17510   */\n      dup3\n        /* \"#utility.yul\":17503:17515   */\n      add\n        /* \"#utility.yul\":17496:17515   */\n      swap1\n      pop\n        /* \"#utility.yul\":17155:17521   */\n      swap2\n      swap1\n      pop\n      jump\t// out\n        /* \"#utility.yul\":17527:17946   */\n    tag_265:\n        /* \"#utility.yul\":17693:17697   */\n      0x00\n        /* \"#utility.yul\":17731:17733   */\n      0x20\n        /* \"#utility.yul\":17720:17729   */\n      dup3\n        /* \"#utility.yul\":17716:17734   */\n      add\n        /* \"#utility.yul\":17708:17734   */\n      swap1\n      pop\n        /* \"#utility.yul\":17780:17789   */\n      dup2\n        /* \"#utility.yul\":17774:17778   */\n      dup2\n        /* \"#utility.yul\":17770:17790   */\n      sub\n        /* \"#utility.yul\":17766:17767   */\n      0x00\n        /* \"#utility.yul\":17755:17764   */\n      dup4\n        /* \"#utility.yul\":17751:17768   */\n      add\n        /* \"#utility.yul\":17744:17791   */\n      mstore\n        /* \"#utility.yul\":17808:17939   */\n      tag_649\n        /* \"#utility.yul\":17934:17938   */\n      dup2\n        /* \"#utility.yul\":17808:17939   */\n      tag_451\n      jump\t// in\n    tag_649:\n        /* \"#utility.yul\":17800:17939   */\n      swap1\n      pop\n        /* \"#utility.yul\":17527:17946   */\n      swap2\n      swap1\n      pop\n      jump\t// out\n        /* \"#utility.yul\":17952:18186   */\n    tag_452:\n        /* \"#utility.yul\":18092:18126   */\n      0x4f6e6c792063726561746f72206f6620636f6e74726163742063616e20726571\n        /* \"#utility.yul\":18088:18089   */\n      0x00\n        /* \"#utility.yul\":18080:18086   */\n      dup3\n        /* \"#utility.yul\":18076:18090   */\n      add\n        /* \"#utility.yul\":18069:18127   */\n      mstore\n        /* \"#utility.yul\":18161:18178   */\n      0x7565737420636f6d706c6574696f6e0000000000000000000000000000000000\n        /* \"#utility.yul\":18156:18158   */\n      0x20\n        /* \"#utility.yul\":18148:18154   */\n      dup3\n        /* \"#utility.yul\":18144:18159   */\n      add\n        /* \"#utility.yul\":18137:18179   */\n      mstore\n        /* \"#utility.yul\":17952:18186   */\n      pop\n      jump\t// out\n        /* \"#utility.yul\":18192:18558   */\n    tag_453:\n        /* \"#utility.yul\":18334:18337   */\n      0x00\n        /* \"#utility.yul\":18355:18422   */\n      tag_652\n        /* \"#utility.yul\":18419:18421   */\n      0x2f\n        /* \"#utility.yul\":18414:18417   */\n      dup4\n        /* \"#utility.yul\":18355:18422   */\n      tag_436\n      jump\t// in\n    tag_652:\n        /* \"#utility.yul\":18348:18422   */\n      swap2\n      pop\n        /* \"#utility.yul\":18431:18524   */\n      tag_653\n        /* \"#utility.yul\":18520:18523   */\n      dup3\n        /* \"#utility.yul\":18431:18524   */\n      tag_452\n      jump\t// in\n    tag_653:\n        /* \"#utility.yul\":18549:18551   */\n      0x40\n        /* \"#utility.yul\":18544:18547   */\n      dup3\n        /* \"#utility.yul\":18540:18552   */\n      add\n        /* \"#utility.yul\":18533:18552   */\n      swap1\n      pop\n        /* \"#utility.yul\":18192:18558   */\n      swap2\n      swap1\n      pop\n      jump\t// out\n        /* \"#utility.yul\":18564:18983   */\n    tag_271:\n        /* \"#utility.yul\":18730:18734   */\n      0x00\n        /* \"#utility.yul\":18768:18770   */\n      0x20\n        /* \"#utility.yul\":18757:18766   */\n      dup3\n        /* \"#utility.yul\":18753:18771   */\n      add\n        /* \"#utility.yul\":18745:18771   */\n      swap1\n      pop\n        /* \"#utility.yul\":18817:18826   */\n      dup2\n        /* \"#utility.yul\":18811:18815   */\n      dup2\n        /* \"#utility.yul\":18807:18827   */\n      sub\n        /* \"#utility.yul\":18803:18804   */\n      0x00\n        /* \"#utility.yul\":18792:18801   */\n      dup4\n        /* \"#utility.yul\":18788:18805   */\n      add\n        /* \"#utility.yul\":18781:18828   */\n      mstore\n        /* \"#utility.yul\":18845:18976   */\n      tag_655\n        /* \"#utility.yul\":18971:18975   */\n      dup2\n        /* \"#utility.yul\":18845:18976   */\n      tag_453\n      jump\t// in\n    tag_655:\n        /* \"#utility.yul\":18837:18976   */\n      swap1\n      pop\n        /* \"#utility.yul\":18564:18983   */\n      swap2\n      swap1\n      pop\n      jump\t// out\n        /* \"#utility.yul\":18989:19223   */\n    tag_454:\n        /* \"#utility.yul\":19129:19163   */\n      0x43616e6e6f74207265717565737420617070726f76616c207768656e20637265\n        /* \"#utility.yul\":19125:19126   */\n      0x00\n        /* \"#utility.yul\":19117:19123   */\n      dup3\n        /* \"#utility.yul\":19113:19127   */\n      add\n        /* \"#utility.yul\":19106:19164   */\n      mstore\n        /* \"#utility.yul\":19198:19215   */\n      0x61746f7220697320726566657265650000000000000000000000000000000000\n        /* \"#utility.yul\":19193:19195   */\n      0x20\n        /* \"#utility.yul\":19185:19191   */\n      dup3\n        /* \"#utility.yul\":19181:19196   */\n      add\n        /* \"#utility.yul\":19174:19216   */\n      mstore\n        /* \"#utility.yul\":18989:19223   */\n      pop\n      jump\t// out\n        /* \"#utility.yul\":19229:19595   */\n    tag_455:\n        /* \"#utility.yul\":19371:19374   */\n      0x00\n        /* \"#utility.yul\":19392:19459   */\n      tag_658\n        /* \"#utility.yul\":19456:19458   */\n      0x2f\n        /* \"#utility.yul\":19451:19454   */\n      dup4\n        /* \"#utility.yul\":19392:19459   */\n      tag_436\n      jump\t// in\n    tag_658:\n        /* \"#utility.yul\":19385:19459   */\n      swap2\n      pop\n        /* \"#utility.yul\":19468:19561   */\n      tag_659\n        /* \"#utility.yul\":19557:19560   */\n      dup3\n        /* \"#utility.yul\":19468:19561   */\n      tag_454\n      jump\t// in\n    tag_659:\n        /* \"#utility.yul\":19586:19588   */\n      0x40\n        /* \"#utility.yul\":19581:19584   */\n      dup3\n        /* \"#utility.yul\":19577:19589   */\n      add\n        /* \"#utility.yul\":19570:19589   */\n      swap1\n      pop\n        /* \"#utility.yul\":19229:19595   */\n      swap2\n      swap1\n      pop\n      jump\t// out\n        /* \"#utility.yul\":19601:20020   */\n    tag_280:\n        /* \"#utility.yul\":19767:19771   */\n      0x00\n        /* \"#utility.yul\":19805:19807   */\n      0x20\n        /* \"#utility.yul\":19794:19803   */\n      dup3\n        /* \"#utility.yul\":19790:19808   */\n      add\n        /* \"#utility.yul\":19782:19808   */\n      swap1\n      pop\n        /* \"#utility.yul\":19854:19863   */\n      dup2\n        /* \"#utility.yul\":19848:19852   */\n      dup2\n        /* \"#utility.yul\":19844:19864   */\n      sub\n        /* \"#utility.yul\":19840:19841   */\n      0x00\n        /* \"#utility.yul\":19829:19838   */\n      dup4\n        /* \"#utility.yul\":19825:19842   */\n      add\n        /* \"#utility.yul\":19818:19865   */\n      mstore\n        /* \"#utility.yul\":19882:20013   */\n      tag_661\n        /* \"#utility.yul\":20008:20012   */\n      dup2\n        /* \"#utility.yul\":19882:20013   */\n      tag_455\n      jump\t// in\n    tag_661:\n        /* \"#utility.yul\":19874:20013   */\n      swap1\n      pop\n        /* \"#utility.yul\":19601:20020   */\n      swap2\n      swap1\n      pop\n      jump\t// out\n        /* \"#utility.yul\":20026:20086   */\n    tag_456:\n        /* \"#utility.yul\":20054:20057   */\n      0x00\n        /* \"#utility.yul\":20075:20080   */\n      dup2\n        /* \"#utility.yul\":20068:20080   */\n      swap1\n      pop\n        /* \"#utility.yul\":20026:20086   */\n      swap2\n      swap1\n      pop\n      jump\t// out\n        /* \"#utility.yul\":20092:20234   */\n    tag_457:\n        /* \"#utility.yul\":20142:20151   */\n      0x00\n        /* \"#utility.yul\":20175:20228   */\n      tag_664\n        /* \"#utility.yul\":20193:20227   */\n      tag_665\n        /* \"#utility.yul\":20202:20226   */\n      tag_666\n        /* \"#utility.yul\":20220:20225   */\n      dup5\n        /* \"#utility.yul\":20202:20226   */\n      tag_404\n      jump\t// in\n    tag_666:\n        /* \"#utility.yul\":20193:20227   */\n      tag_456\n      jump\t// in\n    tag_665:\n        /* \"#utility.yul\":20175:20228   */\n      tag_404\n      jump\t// in\n    tag_664:\n        /* \"#utility.yul\":20162:20228   */\n      swap1\n      pop\n        /* \"#utility.yul\":20092:20234   */\n      swap2\n      swap1\n      pop\n      jump\t// out\n        /* \"#utility.yul\":20240:20366   */\n    tag_458:\n        /* \"#utility.yul\":20290:20299   */\n      0x00\n        /* \"#utility.yul\":20323:20360   */\n      tag_668\n        /* \"#utility.yul\":20354:20359   */\n      dup3\n        /* \"#utility.yul\":20323:20360   */\n      tag_457\n      jump\t// in\n    tag_668:\n        /* \"#utility.yul\":20310:20360   */\n      swap1\n      pop\n        /* \"#utility.yul\":20240:20366   */\n      swap2\n      swap1\n      pop\n      jump\t// out\n        /* \"#utility.yul\":20372:20506   */\n    tag_459:\n        /* \"#utility.yul\":20430:20439   */\n      0x00\n        /* \"#utility.yul\":20463:20500   */\n      tag_670\n        /* \"#utility.yul\":20494:20499   */\n      dup3\n        /* \"#utility.yul\":20463:20500   */\n      tag_458\n      jump\t// in\n    tag_670:\n        /* \"#utility.yul\":20450:20500   */\n      swap1\n      pop\n        /* \"#utility.yul\":20372:20506   */\n      swap2\n      swap1\n      pop\n      jump\t// out\n        /* \"#utility.yul\":20512:20659   */\n    tag_460:\n        /* \"#utility.yul\":20607:20652   */\n      tag_672\n        /* \"#utility.yul\":20646:20651   */\n      dup2\n        /* \"#utility.yul\":20607:20652   */\n      tag_459\n      jump\t// in\n    tag_672:\n        /* \"#utility.yul\":20602:20605   */\n      dup3\n        /* \"#utility.yul\":20595:20653   */\n      mstore\n        /* \"#utility.yul\":20512:20659   */\n      pop\n      pop\n      jump\t// out\n        /* \"#utility.yul\":20665:21638   */\n    tag_299:\n        /* \"#utility.yul\":20946:20950   */\n      0x00\n        /* \"#utility.yul\":20984:20987   */\n      0xc0\n        /* \"#utility.yul\":20973:20982   */\n      dup3\n        /* \"#utility.yul\":20969:20988   */\n      add\n        /* \"#utility.yul\":20961:20988   */\n      swap1\n      pop\n        /* \"#utility.yul\":20998:21069   */\n      tag_674\n        /* \"#utility.yul\":21066:21067   */\n      0x00\n        /* \"#utility.yul\":21055:21064   */\n      dup4\n        /* \"#utility.yul\":21051:21068   */\n      add\n        /* \"#utility.yul\":21042:21048   */\n      dup10\n        /* \"#utility.yul\":20998:21069   */\n      tag_418\n      jump\t// in\n    tag_674:\n        /* \"#utility.yul\":21079:21151   */\n      tag_675\n        /* \"#utility.yul\":21147:21149   */\n      0x20\n        /* \"#utility.yul\":21136:21145   */\n      dup4\n        /* \"#utility.yul\":21132:21150   */\n      add\n        /* \"#utility.yul\":21123:21129   */\n      dup9\n        /* \"#utility.yul\":21079:21151   */\n      tag_418\n      jump\t// in\n    tag_675:\n        /* \"#utility.yul\":21198:21207   */\n      dup2\n        /* \"#utility.yul\":21192:21196   */\n      dup2\n        /* \"#utility.yul\":21188:21208   */\n      sub\n        /* \"#utility.yul\":21183:21185   */\n      0x40\n        /* \"#utility.yul\":21172:21181   */\n      dup4\n        /* \"#utility.yul\":21168:21186   */\n      add\n        /* \"#utility.yul\":21161:21209   */\n      mstore\n        /* \"#utility.yul\":21226:21304   */\n      tag_676\n        /* \"#utility.yul\":21299:21303   */\n      dup2\n        /* \"#utility.yul\":21290:21296   */\n      dup8\n        /* \"#utility.yul\":21226:21304   */\n      tag_447\n      jump\t// in\n    tag_676:\n        /* \"#utility.yul\":21218:21304   */\n      swap1\n      pop\n        /* \"#utility.yul\":21351:21360   */\n      dup2\n        /* \"#utility.yul\":21345:21349   */\n      dup2\n        /* \"#utility.yul\":21341:21361   */\n      sub\n        /* \"#utility.yul\":21336:21338   */\n      0x60\n        /* \"#utility.yul\":21325:21334   */\n      dup4\n        /* \"#utility.yul\":21321:21339   */\n      add\n        /* \"#utility.yul\":21314:21362   */\n      mstore\n        /* \"#utility.yul\":21379:21457   */\n      tag_677\n        /* \"#utility.yul\":21452:21456   */\n      dup2\n        /* \"#utility.yul\":21443:21449   */\n      dup7\n        /* \"#utility.yul\":21379:21457   */\n      tag_447\n      jump\t// in\n    tag_677:\n        /* \"#utility.yul\":21371:21457   */\n      swap1\n      pop\n        /* \"#utility.yul\":21467:21548   */\n      tag_678\n        /* \"#utility.yul\":21543:21546   */\n      0x80\n        /* \"#utility.yul\":21532:21541   */\n      dup4\n        /* \"#utility.yul\":21528:21547   */\n      add\n        /* \"#utility.yul\":21519:21525   */\n      dup6\n        /* \"#utility.yul\":21467:21548   */\n      tag_460\n      jump\t// in\n    tag_678:\n        /* \"#utility.yul\":21558:21631   */\n      tag_679\n        /* \"#utility.yul\":21626:21629   */\n      0xa0\n        /* \"#utility.yul\":21615:21624   */\n      dup4\n        /* \"#utility.yul\":21611:21630   */\n      add\n        /* \"#utility.yul\":21602:21608   */\n      dup5\n        /* \"#utility.yul\":21558:21631   */\n      tag_419\n      jump\t// in\n    tag_679:\n        /* \"#utility.yul\":20665:21638   */\n      swap8\n      swap7\n      pop\n      pop\n      pop\n      pop\n      pop\n      pop\n      pop\n      jump\t// out\n        /* \"#utility.yul\":21644:21949   */\n    tag_304:\n        /* \"#utility.yul\":21684:21687   */\n      0x00\n        /* \"#utility.yul\":21703:21723   */\n      tag_681\n        /* \"#utility.yul\":21721:21722   */\n      dup3\n        /* \"#utility.yul\":21703:21723   */\n      tag_408\n      jump\t// in\n    tag_681:\n        /* \"#utility.yul\":21698:21723   */\n      swap2\n      pop\n        /* \"#utility.yul\":21737:21757   */\n      tag_682\n        /* \"#utility.yul\":21755:21756   */\n      dup4\n        /* \"#utility.yul\":21737:21757   */\n      tag_408\n      jump\t// in\n    tag_682:\n        /* \"#utility.yul\":21732:21757   */\n      swap3\n      pop\n        /* \"#utility.yul\":21891:21892   */\n      dup3\n        /* \"#utility.yul\":21823:21889   */\n      0xffffffffffffffffffffffffffffffffffffffffffffffffffffffffffffffff\n        /* \"#utility.yul\":21819:21893   */\n      sub\n        /* \"#utility.yul\":21816:21817   */\n      dup3\n        /* \"#utility.yul\":21813:21894   */\n      gt\n        /* \"#utility.yul\":21810:21917   */\n      iszero\n      tag_683\n      jumpi\n        /* \"#utility.yul\":21897:21915   */\n      tag_684\n      tag_441\n      jump\t// in\n    tag_684:\n        /* \"#utility.yul\":21810:21917   */\n    tag_683:\n        /* \"#utility.yul\":21941:21942   */\n      dup3\n        /* \"#utility.yul\":21938:21939   */\n      dup3\n        /* \"#utility.yul\":21934:21943   */\n      add\n        /* \"#utility.yul\":21927:21943   */\n      swap1\n      pop\n        /* \"#utility.yul\":21644:21949   */\n      swap3\n      swap2\n      pop\n      pop\n      jump\t// out\n        /* \"#utility.yul\":21955:22135   */\n    tag_333:\n        /* \"#utility.yul\":22003:22080   */\n      0x4e487b7100000000000000000000000000000000000000000000000000000000\n        /* \"#utility.yul\":22000:22001   */\n      0x00\n        /* \"#utility.yul\":21993:22081   */\n      mstore\n        /* \"#utility.yul\":22100:22104   */\n      0x31\n        /* \"#utility.yul\":22097:22098   */\n      0x04\n        /* \"#utility.yul\":22090:22105   */\n      mstore\n        /* \"#utility.yul\":22124:22128   */\n      0x24\n        /* \"#utility.yul\":22121:22122   */\n      0x00\n        /* \"#utility.yul\":22114:22129   */\n      revert\n    stop\n\n    sub_0: assembly {\n            /* \"Contracts\":9599:10757  contract AccountabilityContractApprovalRequest {... */\n          mstore(0x40, 0x80)\n            /* \"Contracts\":9859:10236  constructor(address _accountabilityContractAddress) {... */\n          callvalue\n          dup1\n          iszero\n          tag_1\n          jumpi\n          0x00\n          dup1\n          revert\n        tag_1:\n          pop\n          mload(0x40)\n          sub(codesize, bytecodeSize)\n          dup1\n          bytecodeSize\n          dup4\n          codecopy\n          dup2\n          dup2\n          add\n          0x40\n          mstore\n          dup2\n          add\n          swap1\n          tag_2\n          swap2\n          swap1\n          tag_3\n          jump\t// in\n        tag_2:\n            /* \"Contracts\":9921:9966  AccountabilityContract accountabilityContract */\n          0x00\n            /* \"Contracts\":9992:10022  _accountabilityContractAddress */\n          dup2\n            /* \"Contracts\":9921:10023  AccountabilityContract accountabilityContract = AccountabilityContract(_accountabilityContractAddress) */\n          swap1\n          pop\n            /* \"Contracts\":10043:10065  accountabilityContract */\n          dup1\n            /* \"Contracts\":10043:10073  accountabilityContract.creator */\n          0xffffffffffffffffffffffffffffffffffffffff\n          and\n          0x02d05d3f\n            /* \"Contracts\":10043:10075  accountabilityContract.creator() */\n          mload(0x40)\n          dup2\n          0xffffffff\n          and\n          0xe0\n          shl\n          dup2\n          mstore\n          0x04\n          add\n          0x20\n          mload(0x40)\n          dup1\n          dup4\n          sub\n          dup2\n          dup7\n          gas\n          staticcall\n          iszero\n          dup1\n          iszero\n          tag_7\n          jumpi\n          returndatasize\n          0x00\n          dup1\n          returndatacopy\n          revert(0x00, returndatasize)\n        tag_7:\n          pop\n          pop\n          pop\n          pop\n          mload(0x40)\n          returndatasize\n          not(0x1f)\n          0x1f\n          dup3\n          add\n          and\n          dup3\n          add\n          dup1\n          0x40\n          mstore\n          pop\n          dup2\n          add\n          swap1\n          tag_8\n          swap2\n          swap1\n          tag_3\n          jump\t// in\n        tag_8:\n            /* \"Contracts\":10033:10040  creator */\n          0x00\n          dup1\n            /* \"Contracts\":10033:10075  creator = accountabilityContract.creator() */\n          0x0100\n          exp\n          dup2\n          sload\n          dup2\n          0xffffffffffffffffffffffffffffffffffffffff\n          mul\n          not\n          and\n          swap1\n          dup4\n          0xffffffffffffffffffffffffffffffffffffffff\n          and\n          mul\n          or\n          swap1\n          sstore\n          pop\n            /* \"Contracts\":10095:10117  accountabilityContract */\n          dup1\n            /* \"Contracts\":10095:10125  accountabilityContract.referee */\n          0xffffffffffffffffffffffffffffffffffffffff\n          and\n          0x3b1bebd1\n            /* \"Contracts\":10095:10127  accountabilityContract.referee() */\n          mload(0x40)\n          dup2\n          0xffffffff\n          and\n          0xe0\n          shl\n          dup2\n          mstore\n          0x04\n          add\n          0x20\n          mload(0x40)\n          dup1\n          dup4\n          sub\n          dup2\n          dup7\n          gas\n          staticcall\n          iszero\n          dup1\n          iszero\n          tag_10\n          jumpi\n          returndatasize\n          0x00\n          dup1\n          returndatacopy\n          revert(0x00, returndatasize)\n        tag_10:\n          pop\n          pop\n          pop\n          pop\n          mload(0x40)\n          returndatasize\n          not(0x1f)\n          0x1f\n          dup3\n          add\n          and\n          dup3\n          add\n          dup1\n          0x40\n          mstore\n          pop\n          dup2\n          add\n          swap1\n          tag_11\n          swap2\n          swap1\n          tag_3\n          jump\t// in\n        tag_11:\n            /* \"Contracts\":10085:10092  referee */\n          0x01\n          0x00\n            /* \"Contracts\":10085:10127  referee = accountabilityContract.referee() */\n          0x0100\n          exp\n          dup2\n          sload\n          dup2\n          0xffffffffffffffffffffffffffffffffffffffff\n          mul\n          not\n          and\n          swap1\n          dup4\n          0xffffffffffffffffffffffffffffffffffffffff\n          and\n          mul\n          or\n          swap1\n          sstore\n          pop\n            /* \"Contracts\":10169:10199  _accountabilityContractAddress */\n          dup2\n            /* \"Contracts\":10137:10166  accountabilityContractAddress */\n          0x02\n          0x00\n            /* \"Contracts\":10137:10199  accountabilityContractAddress = _accountabilityContractAddress */\n          0x0100\n          exp\n          dup2\n          sload\n          dup2\n          0xffffffffffffffffffffffffffffffffffffffff\n          mul\n          not\n          and\n          swap1\n          dup4\n          0xffffffffffffffffffffffffffffffffffffffff\n          and\n          mul\n          or\n          swap1\n          sstore\n          pop\n            /* \"Contracts\":10218:10229  Status.OPEN */\n          0x00\n            /* \"Contracts\":10209:10215  status */\n          0x02\n          0x14\n            /* \"Contracts\":10209:10229  status = Status.OPEN */\n          0x0100\n          exp\n          dup2\n          sload\n          dup2\n          0xff\n          mul\n          not\n          and\n          swap1\n          dup4\n          0x02\n          dup2\n          gt\n          iszero\n          tag_12\n          jumpi\n          tag_13\n          tag_14\n          jump\t// in\n        tag_13:\n        tag_12:\n          mul\n          or\n          swap1\n          sstore\n          pop\n            /* \"Contracts\":9911:10236  {... */\n          pop\n            /* \"Contracts\":9859:10236  constructor(address _accountabilityContractAddress) {... */\n          pop\n            /* \"Contracts\":9599:10757  contract AccountabilityContractApprovalRequest {... */\n          jump(tag_15)\n            /* \"#utility.yul\":88:205   */\n        tag_17:\n            /* \"#utility.yul\":197:198   */\n          0x00\n            /* \"#utility.yul\":194:195   */\n          dup1\n            /* \"#utility.yul\":187:199   */\n          revert\n            /* \"#utility.yul\":334:460   */\n        tag_19:\n            /* \"#utility.yul\":371:378   */\n          0x00\n            /* \"#utility.yul\":411:453   */\n          0xffffffffffffffffffffffffffffffffffffffff\n            /* \"#utility.yul\":404:409   */\n          dup3\n            /* \"#utility.yul\":400:454   */\n          and\n            /* \"#utility.yul\":389:454   */\n          swap1\n          pop\n            /* \"#utility.yul\":334:460   */\n          swap2\n          swap1\n          pop\n          jump\t// out\n            /* \"#utility.yul\":466:562   */\n        tag_20:\n            /* \"#utility.yul\":503:510   */\n          0x00\n            /* \"#utility.yul\":532:556   */\n          tag_29\n            /* \"#utility.yul\":550:555   */\n          dup3\n            /* \"#utility.yul\":532:556   */\n          tag_19\n          jump\t// in\n        tag_29:\n            /* \"#utility.yul\":521:556   */\n          swap1\n          pop\n            /* \"#utility.yul\":466:562   */\n          swap2\n          swap1\n          pop\n          jump\t// out\n            /* \"#utility.yul\":568:690   */\n        tag_21:\n            /* \"#utility.yul\":641:665   */\n          tag_31\n            /* \"#utility.yul\":659:664   */\n          dup2\n            /* \"#utility.yul\":641:665   */\n          tag_20\n          jump\t// in\n        tag_31:\n            /* \"#utility.yul\":634:639   */\n          dup2\n            /* \"#utility.yul\":631:666   */\n          eq\n            /* \"#utility.yul\":621:684   */\n          tag_32\n          jumpi\n            /* \"#utility.yul\":680:681   */\n          0x00\n            /* \"#utility.yul\":677:678   */\n          dup1\n            /* \"#utility.yul\":670:682   */\n          revert\n            /* \"#utility.yul\":621:684   */\n        tag_32:\n            /* \"#utility.yul\":568:690   */\n          pop\n          jump\t// out\n            /* \"#utility.yul\":696:839   */\n        tag_22:\n            /* \"#utility.yul\":753:758   */\n          0x00\n            /* \"#utility.yul\":784:790   */\n          dup2\n            /* \"#utility.yul\":778:791   */\n          mload\n            /* \"#utility.yul\":769:791   */\n          swap1\n          pop\n            /* \"#utility.yul\":800:833   */\n          tag_34\n            /* \"#utility.yul\":827:832   */\n          dup2\n            /* \"#utility.yul\":800:833   */\n          tag_21\n          jump\t// in\n        tag_34:\n            /* \"#utility.yul\":696:839   */\n          swap3\n          swap2\n          pop\n          pop\n          jump\t// out\n            /* \"#utility.yul\":845:1196   */\n        tag_3:\n            /* \"#utility.yul\":915:921   */\n          0x00\n            /* \"#utility.yul\":964:966   */\n          0x20\n            /* \"#utility.yul\":952:961   */\n          dup3\n            /* \"#utility.yul\":943:950   */\n          dup5\n            /* \"#utility.yul\":939:962   */\n          sub\n            /* \"#utility.yul\":935:967   */\n          slt\n            /* \"#utility.yul\":932:1051   */\n          iszero\n          tag_36\n          jumpi\n            /* \"#utility.yul\":970:1049   */\n          tag_37\n          tag_17\n          jump\t// in\n        tag_37:\n            /* \"#utility.yul\":932:1051   */\n        tag_36:\n            /* \"#utility.yul\":1090:1091   */\n          0x00\n            /* \"#utility.yul\":1115:1179   */\n          tag_38\n            /* \"#utility.yul\":1171:1178   */\n          dup5\n            /* \"#utility.yul\":1162:1168   */\n          dup3\n            /* \"#utility.yul\":1151:1160   */\n          dup6\n            /* \"#utility.yul\":1147:1169   */\n          add\n            /* \"#utility.yul\":1115:1179   */\n          tag_22\n          jump\t// in\n        tag_38:\n            /* \"#utility.yul\":1105:1179   */\n          swap2\n          pop\n            /* \"#utility.yul\":1061:1189   */\n          pop\n            /* \"#utility.yul\":845:1196   */\n          swap3\n          swap2\n          pop\n          pop\n          jump\t// out\n            /* \"#utility.yul\":1202:1382   */\n        tag_14:\n            /* \"#utility.yul\":1250:1327   */\n          0x4e487b7100000000000000000000000000000000000000000000000000000000\n            /* \"#utility.yul\":1247:1248   */\n          0x00\n            /* \"#utility.yul\":1240:1328   */\n          mstore\n            /* \"#utility.yul\":1347:1351   */\n          0x21\n            /* \"#utility.yul\":1344:1345   */\n          0x04\n            /* \"#utility.yul\":1337:1352   */\n          mstore\n            /* \"#utility.yul\":1371:1375   */\n          0x24\n            /* \"#utility.yul\":1368:1369   */\n          0x00\n            /* \"#utility.yul\":1361:1376   */\n          revert\n            /* \"Contracts\":9599:10757  contract AccountabilityContractApprovalRequest {... */\n        tag_15:\n          dataSize(sub_0)\n          dup1\n          dataOffset(sub_0)\n          0x00\n          codecopy\n          0x00\n          return\n        stop\n\n        sub_0: assembly {\n                /* \"Contracts\":9599:10757  contract AccountabilityContractApprovalRequest {... */\n              mstore(0x40, 0x80)\n              callvalue\n              dup1\n              iszero\n              tag_1\n              jumpi\n              0x00\n              dup1\n              revert\n            tag_1:\n              pop\n              jumpi(tag_2, lt(calldatasize, 0x04))\n              shr(0xe0, calldataload(0x00))\n              dup1\n              0x3b1bebd1\n              gt\n              tag_10\n              jumpi\n              dup1\n              0x3b1bebd1\n              eq\n              tag_6\n              jumpi\n              dup1\n              0x3c490174\n              eq\n              tag_7\n              jumpi\n              dup1\n              0x7a7f01a7\n              eq\n              tag_8\n              jumpi\n              dup1\n              0xd69b7ce3\n              eq\n              tag_9\n              jumpi\n              jump(tag_2)\n            tag_10:\n              dup1\n              0x02d05d3f\n              eq\n              tag_3\n              jumpi\n              dup1\n              0x200d2ed2\n              eq\n              tag_4\n              jumpi\n              dup1\n              0x263b81c9\n              eq\n              tag_5\n              jumpi\n            tag_2:\n              0x00\n              dup1\n              revert\n                /* \"Contracts\":9652:9674  address public creator */\n            tag_3:\n              tag_11\n              tag_12\n              jump\t// in\n            tag_11:\n              mload(0x40)\n              tag_13\n              swap2\n              swap1\n              tag_14\n              jump\t// in\n            tag_13:\n              mload(0x40)\n              dup1\n              swap2\n              sub\n              swap1\n              return\n                /* \"Contracts\":9800:9820  Status public status */\n            tag_4:\n              tag_15\n              tag_16\n              jump\t// in\n            tag_15:\n              mload(0x40)\n              tag_17\n              swap2\n              swap1\n              tag_18\n              jump\t// in\n            tag_17:\n              mload(0x40)\n              dup1\n              swap2\n              sub\n              swap1\n              return\n                /* \"Contracts\":10242:10470  function approveRequest() public  returns (AccountabilityContractApprovalRequest) {... */\n            tag_5:\n              tag_19\n              tag_20\n              jump\t// in\n            tag_19:\n              mload(0x40)\n              tag_21\n              swap2\n              swap1\n              tag_22\n              jump\t// in\n            tag_21:\n              mload(0x40)\n              dup1\n              swap2\n              sub\n              swap1\n              return\n                /* \"Contracts\":9680:9702  address public referee */\n            tag_6:\n              tag_23\n              tag_24\n              jump\t// in\n            tag_23:\n              mload(0x40)\n              tag_25\n              swap2\n              swap1\n              tag_14\n              jump\t// in\n            tag_25:\n              mload(0x40)\n              dup1\n              swap2\n              sub\n              swap1\n              return\n                /* \"Contracts\":9708:9752  address public accountabilityContractAddress */\n            tag_7:\n              tag_26\n              tag_27\n              jump\t// in\n            tag_26:\n              mload(0x40)\n              tag_28\n              swap2\n              swap1\n              tag_14\n              jump\t// in\n            tag_28:\n              mload(0x40)\n              dup1\n              swap2\n              sub\n              swap1\n              return\n                /* \"Contracts\":9826:9848  string public response */\n            tag_8:\n              tag_29\n              tag_30\n              jump\t// in\n            tag_29:\n              mload(0x40)\n              tag_31\n              swap2\n              swap1\n              tag_32\n              jump\t// in\n            tag_31:\n              mload(0x40)\n              dup1\n              swap2\n              sub\n              swap1\n              return\n                /* \"Contracts\":10477:10754  function rejectRequest(string memory _response) public  returns (AccountabilityContractApprovalRequest) {... */\n            tag_9:\n              tag_33\n              0x04\n              dup1\n              calldatasize\n              sub\n              dup2\n              add\n              swap1\n              tag_34\n              swap2\n              swap1\n              tag_35\n              jump\t// in\n            tag_34:\n              tag_36\n              jump\t// in\n            tag_33:\n              mload(0x40)\n              tag_37\n              swap2\n              swap1\n              tag_22\n              jump\t// in\n            tag_37:\n              mload(0x40)\n              dup1\n              swap2\n              sub\n              swap1\n              return\n                /* \"Contracts\":9652:9674  address public creator */\n            tag_12:\n              0x00\n              dup1\n              sload\n              swap1\n              0x0100\n              exp\n              swap1\n              div\n              0xffffffffffffffffffffffffffffffffffffffff\n              and\n              dup2\n              jump\t// out\n                /* \"Contracts\":9800:9820  Status public status */\n            tag_16:\n              0x02\n              0x14\n              swap1\n              sload\n              swap1\n              0x0100\n              exp\n              swap1\n              div\n              0xff\n              and\n              dup2\n              jump\t// out\n                /* \"Contracts\":10242:10470  function approveRequest() public  returns (AccountabilityContractApprovalRequest) {... */\n            tag_20:\n                /* \"Contracts\":10285:10322  AccountabilityContractApprovalRequest */\n              0x00\n                /* \"Contracts\":10355:10362  referee */\n              0x01\n              0x00\n              swap1\n              sload\n              swap1\n              0x0100\n              exp\n              swap1\n              div\n              0xffffffffffffffffffffffffffffffffffffffff\n              and\n                /* \"Contracts\":10342:10362  tx.origin == referee */\n              0xffffffffffffffffffffffffffffffffffffffff\n              and\n                /* \"Contracts\":10342:10351  tx.origin */\n              origin\n                /* \"Contracts\":10342:10362  tx.origin == referee */\n              0xffffffffffffffffffffffffffffffffffffffff\n              and\n              eq\n                /* \"Contracts\":10334:10408  require(tx.origin == referee, \"Only referee can approve approval request\") */\n              tag_39\n              jumpi\n              mload(0x40)\n              0x08c379a000000000000000000000000000000000000000000000000000000000\n              dup2\n              mstore\n              0x04\n              add\n              tag_40\n              swap1\n              tag_41\n              jump\t// in\n            tag_40:\n              mload(0x40)\n              dup1\n              swap2\n              sub\n              swap1\n              revert\n            tag_39:\n                /* \"Contracts\":10427:10442  Status.APPROVED */\n              0x01\n                /* \"Contracts\":10418:10424  status */\n              0x02\n              0x14\n                /* \"Contracts\":10418:10442  status = Status.APPROVED */\n              0x0100\n              exp\n              dup2\n              sload\n              dup2\n              0xff\n              mul\n              not\n              and\n              swap1\n              dup4\n              0x02\n              dup2\n              gt\n              iszero\n              tag_42\n              jumpi\n              tag_43\n              tag_44\n              jump\t// in\n            tag_43:\n            tag_42:\n              mul\n              or\n              swap1\n              sstore\n              pop\n                /* \"Contracts\":10459:10463  this */\n              address\n                /* \"Contracts\":10452:10463  return this */\n              swap1\n              pop\n                /* \"Contracts\":10242:10470  function approveRequest() public  returns (AccountabilityContractApprovalRequest) {... */\n              swap1\n              jump\t// out\n                /* \"Contracts\":9680:9702  address public referee */\n            tag_24:\n              0x01\n              0x00\n              swap1\n              sload\n              swap1\n              0x0100\n              exp\n              swap1\n              div\n              0xffffffffffffffffffffffffffffffffffffffff\n              and\n              dup2\n              jump\t// out\n                /* \"Contracts\":9708:9752  address public accountabilityContractAddress */\n            tag_27:\n              0x02\n              0x00\n              swap1\n              sload\n              swap1\n              0x0100\n              exp\n              swap1\n              div\n              0xffffffffffffffffffffffffffffffffffffffff\n              and\n              dup2\n              jump\t// out\n                /* \"Contracts\":9826:9848  string public response */\n            tag_30:\n              0x03\n              dup1\n              sload\n              tag_45\n              swap1\n              tag_46\n              jump\t// in\n            tag_45:\n              dup1\n              0x1f\n              add\n              0x20\n              dup1\n              swap2\n              div\n              mul\n              0x20\n              add\n              mload(0x40)\n              swap1\n              dup2\n              add\n              0x40\n              mstore\n              dup1\n              swap3\n              swap2\n              swap1\n              dup2\n              dup2\n              mstore\n              0x20\n              add\n              dup3\n              dup1\n              sload\n              tag_47\n              swap1\n              tag_46\n              jump\t// in\n            tag_47:\n              dup1\n              iszero\n              tag_48\n              jumpi\n              dup1\n              0x1f\n              lt\n              tag_49\n              jumpi\n              0x0100\n              dup1\n              dup4\n              sload\n              div\n              mul\n              dup4\n              mstore\n              swap2\n              0x20\n              add\n              swap2\n              jump(tag_48)\n            tag_49:\n              dup3\n              add\n              swap2\n              swap1\n              0x00\n              mstore\n              keccak256(0x00, 0x20)\n              swap1\n            tag_50:\n              dup2\n              sload\n              dup2\n              mstore\n              swap1\n              0x01\n              add\n              swap1\n              0x20\n              add\n              dup1\n              dup4\n              gt\n              tag_50\n              jumpi\n              dup3\n              swap1\n              sub\n              0x1f\n              and\n              dup3\n              add\n              swap2\n            tag_48:\n              pop\n              pop\n              pop\n              pop\n              pop\n              dup2\n              jump\t// out\n                /* \"Contracts\":10477:10754  function rejectRequest(string memory _response) public  returns (AccountabilityContractApprovalRequest) {... */\n            tag_36:\n                /* \"Contracts\":10542:10579  AccountabilityContractApprovalRequest */\n              0x00\n                /* \"Contracts\":10612:10619  referee */\n              0x01\n              0x00\n              swap1\n              sload\n              swap1\n              0x0100\n              exp\n              swap1\n              div\n              0xffffffffffffffffffffffffffffffffffffffff\n              and\n                /* \"Contracts\":10599:10619  tx.origin == referee */\n              0xffffffffffffffffffffffffffffffffffffffff\n              and\n                /* \"Contracts\":10599:10608  tx.origin */\n              origin\n                /* \"Contracts\":10599:10619  tx.origin == referee */\n              0xffffffffffffffffffffffffffffffffffffffff\n              and\n              eq\n                /* \"Contracts\":10591:10664  require(tx.origin == referee, \"Only referee can reject approval request\") */\n              tag_52\n              jumpi\n              mload(0x40)\n              0x08c379a000000000000000000000000000000000000000000000000000000000\n              dup2\n              mstore\n              0x04\n              add\n              tag_53\n              swap1\n              tag_54\n              jump\t// in\n            tag_53:\n              mload(0x40)\n              dup1\n              swap2\n              sub\n              swap1\n              revert\n            tag_52:\n                /* \"Contracts\":10683:10696  Status.DENIED */\n              0x02\n                /* \"Contracts\":10674:10680  status */\n              dup1\n              0x14\n                /* \"Contracts\":10674:10696  status = Status.DENIED */\n              0x0100\n              exp\n              dup2\n              sload\n              dup2\n              0xff\n              mul\n              not\n              and\n              swap1\n              dup4\n              0x02\n              dup2\n              gt\n              iszero\n              tag_55\n              jumpi\n              tag_56\n              tag_44\n              jump\t// in\n            tag_56:\n            tag_55:\n              mul\n              or\n              swap1\n              sstore\n              pop\n                /* \"Contracts\":10717:10726  _response */\n              dup2\n                /* \"Contracts\":10706:10714  response */\n              0x03\n                /* \"Contracts\":10706:10726  response = _response */\n              swap1\n              dup1\n              mload\n              swap1\n              0x20\n              add\n              swap1\n              tag_57\n              swap3\n              swap2\n              swap1\n              tag_58\n              jump\t// in\n            tag_57:\n              pop\n                /* \"Contracts\":10743:10747  this */\n              address\n                /* \"Contracts\":10736:10747  return this */\n              swap1\n              pop\n                /* \"Contracts\":10477:10754  function rejectRequest(string memory _response) public  returns (AccountabilityContractApprovalRequest) {... */\n              swap2\n              swap1\n              pop\n              jump\t// out\n            tag_58:\n              dup3\n              dup1\n              sload\n              tag_59\n              swap1\n              tag_46\n              jump\t// in\n            tag_59:\n              swap1\n              0x00\n              mstore\n              keccak256(0x00, 0x20)\n              swap1\n              0x1f\n              add\n              0x20\n              swap1\n              div\n              dup2\n              add\n              swap3\n              dup3\n              tag_61\n              jumpi\n              0x00\n              dup6\n              sstore\n              jump(tag_60)\n            tag_61:\n              dup3\n              0x1f\n              lt\n              tag_62\n              jumpi\n              dup1\n              mload\n              not(0xff)\n              and\n              dup4\n              dup1\n              add\n              or\n              dup6\n              sstore\n              jump(tag_60)\n            tag_62:\n              dup3\n              dup1\n              add\n              0x01\n              add\n              dup6\n              sstore\n              dup3\n              iszero\n              tag_60\n              jumpi\n              swap2\n              dup3\n              add\n            tag_63:\n              dup3\n              dup2\n              gt\n              iszero\n              tag_64\n              jumpi\n              dup3\n              mload\n              dup3\n              sstore\n              swap2\n              0x20\n              add\n              swap2\n              swap1\n              0x01\n              add\n              swap1\n              jump(tag_63)\n            tag_64:\n            tag_60:\n              pop\n              swap1\n              pop\n              tag_65\n              swap2\n              swap1\n              tag_66\n              jump\t// in\n            tag_65:\n              pop\n              swap1\n              jump\t// out\n            tag_66:\n            tag_67:\n              dup1\n              dup3\n              gt\n              iszero\n              tag_68\n              jumpi\n              0x00\n              dup2\n              0x00\n              swap1\n              sstore\n              pop\n              0x01\n              add\n              jump(tag_67)\n            tag_68:\n              pop\n              swap1\n              jump\t// out\n                /* \"#utility.yul\":7:133   */\n            tag_69:\n                /* \"#utility.yul\":44:51   */\n              0x00\n                /* \"#utility.yul\":84:126   */\n              0xffffffffffffffffffffffffffffffffffffffff\n                /* \"#utility.yul\":77:82   */\n              dup3\n                /* \"#utility.yul\":73:127   */\n              and\n                /* \"#utility.yul\":62:127   */\n              swap1\n              pop\n                /* \"#utility.yul\":7:133   */\n              swap2\n              swap1\n              pop\n              jump\t// out\n                /* \"#utility.yul\":139:235   */\n            tag_70:\n                /* \"#utility.yul\":176:183   */\n              0x00\n                /* \"#utility.yul\":205:229   */\n              tag_106\n                /* \"#utility.yul\":223:228   */\n              dup3\n                /* \"#utility.yul\":205:229   */\n              tag_69\n              jump\t// in\n            tag_106:\n                /* \"#utility.yul\":194:229   */\n              swap1\n              pop\n                /* \"#utility.yul\":139:235   */\n              swap2\n              swap1\n              pop\n              jump\t// out\n                /* \"#utility.yul\":241:359   */\n            tag_71:\n                /* \"#utility.yul\":328:352   */\n              tag_108\n                /* \"#utility.yul\":346:351   */\n              dup2\n                /* \"#utility.yul\":328:352   */\n              tag_70\n              jump\t// in\n            tag_108:\n                /* \"#utility.yul\":323:326   */\n              dup3\n                /* \"#utility.yul\":316:353   */\n              mstore\n                /* \"#utility.yul\":241:359   */\n              pop\n              pop\n              jump\t// out\n                /* \"#utility.yul\":365:587   */\n            tag_14:\n                /* \"#utility.yul\":458:462   */\n              0x00\n                /* \"#utility.yul\":496:498   */\n              0x20\n                /* \"#utility.yul\":485:494   */\n              dup3\n                /* \"#utility.yul\":481:499   */\n              add\n                /* \"#utility.yul\":473:499   */\n              swap1\n              pop\n                /* \"#utility.yul\":509:580   */\n              tag_110\n                /* \"#utility.yul\":577:578   */\n              0x00\n                /* \"#utility.yul\":566:575   */\n              dup4\n                /* \"#utility.yul\":562:579   */\n              add\n                /* \"#utility.yul\":553:559   */\n              dup5\n                /* \"#utility.yul\":509:580   */\n              tag_71\n              jump\t// in\n            tag_110:\n                /* \"#utility.yul\":365:587   */\n              swap3\n              swap2\n              pop\n              pop\n              jump\t// out\n                /* \"#utility.yul\":593:773   */\n            tag_44:\n                /* \"#utility.yul\":641:718   */\n              0x4e487b7100000000000000000000000000000000000000000000000000000000\n                /* \"#utility.yul\":638:639   */\n              0x00\n                /* \"#utility.yul\":631:719   */\n              mstore\n                /* \"#utility.yul\":738:742   */\n              0x21\n                /* \"#utility.yul\":735:736   */\n              0x04\n                /* \"#utility.yul\":728:743   */\n              mstore\n                /* \"#utility.yul\":762:766   */\n              0x24\n                /* \"#utility.yul\":759:760   */\n              0x00\n                /* \"#utility.yul\":752:767   */\n              revert\n                /* \"#utility.yul\":779:894   */\n            tag_72:\n                /* \"#utility.yul\":862:863   */\n              0x03\n                /* \"#utility.yul\":855:860   */\n              dup2\n                /* \"#utility.yul\":852:864   */\n              lt\n                /* \"#utility.yul\":842:888   */\n              tag_113\n              jumpi\n                /* \"#utility.yul\":868:886   */\n              tag_114\n              tag_44\n              jump\t// in\n            tag_114:\n                /* \"#utility.yul\":842:888   */\n            tag_113:\n                /* \"#utility.yul\":779:894   */\n              pop\n              jump\t// out\n                /* \"#utility.yul\":900:1031   */\n            tag_73:\n                /* \"#utility.yul\":947:954   */\n              0x00\n                /* \"#utility.yul\":976:981   */\n              dup2\n                /* \"#utility.yul\":965:981   */\n              swap1\n              pop\n                /* \"#utility.yul\":982:1025   */\n              tag_116\n                /* \"#utility.yul\":1019:1024   */\n              dup3\n                /* \"#utility.yul\":982:1025   */\n              tag_72\n              jump\t// in\n            tag_116:\n                /* \"#utility.yul\":900:1031   */\n              swap2\n              swap1\n              pop\n              jump\t// out\n                /* \"#utility.yul\":1037:1168   */\n            tag_74:\n                /* \"#utility.yul\":1095:1104   */\n              0x00\n                /* \"#utility.yul\":1128:1162   */\n              tag_118\n                /* \"#utility.yul\":1156:1161   */\n              dup3\n                /* \"#utility.yul\":1128:1162   */\n              tag_73\n              jump\t// in\n            tag_118:\n                /* \"#utility.yul\":1115:1162   */\n              swap1\n              pop\n                /* \"#utility.yul\":1037:1168   */\n              swap2\n              swap1\n              pop\n              jump\t// out\n                /* \"#utility.yul\":1174:1321   */\n            tag_75:\n                /* \"#utility.yul\":1269:1314   */\n              tag_120\n                /* \"#utility.yul\":1308:1313   */\n              dup2\n                /* \"#utility.yul\":1269:1314   */\n              tag_74\n              jump\t// in\n            tag_120:\n                /* \"#utility.yul\":1264:1267   */\n              dup3\n                /* \"#utility.yul\":1257:1315   */\n              mstore\n                /* \"#utility.yul\":1174:1321   */\n              pop\n              pop\n              jump\t// out\n                /* \"#utility.yul\":1327:1565   */\n            tag_18:\n                /* \"#utility.yul\":1428:1432   */\n              0x00\n                /* \"#utility.yul\":1466:1468   */\n              0x20\n                /* \"#utility.yul\":1455:1464   */\n              dup3\n                /* \"#utility.yul\":1451:1469   */\n              add\n                /* \"#utility.yul\":1443:1469   */\n              swap1\n              pop\n                /* \"#utility.yul\":1479:1558   */\n              tag_122\n                /* \"#utility.yul\":1555:1556   */\n              0x00\n                /* \"#utility.yul\":1544:1553   */\n              dup4\n                /* \"#utility.yul\":1540:1557   */\n              add\n                /* \"#utility.yul\":1531:1537   */\n              dup5\n                /* \"#utility.yul\":1479:1558   */\n              tag_75\n              jump\t// in\n            tag_122:\n                /* \"#utility.yul\":1327:1565   */\n              swap3\n              swap2\n              pop\n              pop\n              jump\t// out\n                /* \"#utility.yul\":1571:1631   */\n            tag_76:\n                /* \"#utility.yul\":1599:1602   */\n              0x00\n                /* \"#utility.yul\":1620:1625   */\n              dup2\n                /* \"#utility.yul\":1613:1625   */\n              swap1\n              pop\n                /* \"#utility.yul\":1571:1631   */\n              swap2\n              swap1\n              pop\n              jump\t// out\n                /* \"#utility.yul\":1637:1779   */\n            tag_77:\n                /* \"#utility.yul\":1687:1696   */\n              0x00\n                /* \"#utility.yul\":1720:1773   */\n              tag_125\n                /* \"#utility.yul\":1738:1772   */\n              tag_126\n                /* \"#utility.yul\":1747:1771   */\n              tag_127\n                /* \"#utility.yul\":1765:1770   */\n              dup5\n                /* \"#utility.yul\":1747:1771   */\n              tag_69\n              jump\t// in\n            tag_127:\n                /* \"#utility.yul\":1738:1772   */\n              tag_76\n              jump\t// in\n            tag_126:\n                /* \"#utility.yul\":1720:1773   */\n              tag_69\n              jump\t// in\n            tag_125:\n                /* \"#utility.yul\":1707:1773   */\n              swap1\n              pop\n                /* \"#utility.yul\":1637:1779   */\n              swap2\n              swap1\n              pop\n              jump\t// out\n                /* \"#utility.yul\":1785:1911   */\n            tag_78:\n                /* \"#utility.yul\":1835:1844   */\n              0x00\n                /* \"#utility.yul\":1868:1905   */\n              tag_129\n                /* \"#utility.yul\":1899:1904   */\n              dup3\n                /* \"#utility.yul\":1868:1905   */\n              tag_77\n              jump\t// in\n            tag_129:\n                /* \"#utility.yul\":1855:1905   */\n              swap1\n              pop\n                /* \"#utility.yul\":1785:1911   */\n              swap2\n              swap1\n              pop\n              jump\t// out\n                /* \"#utility.yul\":1917:2089   */\n            tag_79:\n                /* \"#utility.yul\":2013:2022   */\n              0x00\n                /* \"#utility.yul\":2046:2083   */\n              tag_131\n                /* \"#utility.yul\":2077:2082   */\n              dup3\n                /* \"#utility.yul\":2046:2083   */\n              tag_78\n              jump\t// in\n            tag_131:\n                /* \"#utility.yul\":2033:2083   */\n              swap1\n              pop\n                /* \"#utility.yul\":1917:2089   */\n              swap2\n              swap1\n              pop\n              jump\t// out\n                /* \"#utility.yul\":2095:2318   */\n            tag_80:\n                /* \"#utility.yul\":2228:2311   */\n              tag_133\n                /* \"#utility.yul\":2305:2310   */\n              dup2\n                /* \"#utility.yul\":2228:2311   */\n              tag_79\n              jump\t// in\n            tag_133:\n                /* \"#utility.yul\":2223:2226   */\n              dup3\n                /* \"#utility.yul\":2216:2312   */\n              mstore\n                /* \"#utility.yul\":2095:2318   */\n              pop\n              pop\n              jump\t// out\n                /* \"#utility.yul\":2324:2638   */\n            tag_22:\n                /* \"#utility.yul\":2463:2467   */\n              0x00\n                /* \"#utility.yul\":2501:2503   */\n              0x20\n                /* \"#utility.yul\":2490:2499   */\n              dup3\n                /* \"#utility.yul\":2486:2504   */\n              add\n                /* \"#utility.yul\":2478:2504   */\n              swap1\n              pop\n                /* \"#utility.yul\":2514:2631   */\n              tag_135\n                /* \"#utility.yul\":2628:2629   */\n              0x00\n                /* \"#utility.yul\":2617:2626   */\n              dup4\n                /* \"#utility.yul\":2613:2630   */\n              add\n                /* \"#utility.yul\":2604:2610   */\n              dup5\n                /* \"#utility.yul\":2514:2631   */\n              tag_80\n              jump\t// in\n            tag_135:\n                /* \"#utility.yul\":2324:2638   */\n              swap3\n              swap2\n              pop\n              pop\n              jump\t// out\n                /* \"#utility.yul\":2644:2743   */\n            tag_81:\n                /* \"#utility.yul\":2696:2702   */\n              0x00\n                /* \"#utility.yul\":2730:2735   */\n              dup2\n                /* \"#utility.yul\":2724:2736   */\n              mload\n                /* \"#utility.yul\":2714:2736   */\n              swap1\n              pop\n                /* \"#utility.yul\":2644:2743   */\n              swap2\n              swap1\n              pop\n              jump\t// out\n                /* \"#utility.yul\":2749:2918   */\n            tag_82:\n                /* \"#utility.yul\":2833:2844   */\n              0x00\n                /* \"#utility.yul\":2867:2873   */\n              dup3\n                /* \"#utility.yul\":2862:2865   */\n              dup3\n                /* \"#utility.yul\":2855:2874   */\n              mstore\n                /* \"#utility.yul\":2907:2911   */\n              0x20\n                /* \"#utility.yul\":2902:2905   */\n              dup3\n                /* \"#utility.yul\":2898:2912   */\n              add\n                /* \"#utility.yul\":2883:2912   */\n              swap1\n              pop\n                /* \"#utility.yul\":2749:2918   */\n              swap3\n              swap2\n              pop\n              pop\n              jump\t// out\n                /* \"#utility.yul\":2924:3231   */\n            tag_83:\n                /* \"#utility.yul\":2992:2993   */\n              0x00\n                /* \"#utility.yul\":3002:3115   */\n            tag_139:\n                /* \"#utility.yul\":3016:3022   */\n              dup4\n                /* \"#utility.yul\":3013:3014   */\n              dup2\n                /* \"#utility.yul\":3010:3023   */\n              lt\n                /* \"#utility.yul\":3002:3115   */\n              iszero\n              tag_141\n              jumpi\n                /* \"#utility.yul\":3101:3102   */\n              dup1\n                /* \"#utility.yul\":3096:3099   */\n              dup3\n                /* \"#utility.yul\":3092:3103   */\n              add\n                /* \"#utility.yul\":3086:3104   */\n              mload\n                /* \"#utility.yul\":3082:3083   */\n              dup2\n                /* \"#utility.yul\":3077:3080   */\n              dup5\n                /* \"#utility.yul\":3073:3084   */\n              add\n                /* \"#utility.yul\":3066:3105   */\n              mstore\n                /* \"#utility.yul\":3038:3040   */\n              0x20\n                /* \"#utility.yul\":3035:3036   */\n              dup2\n                /* \"#utility.yul\":3031:3041   */\n              add\n                /* \"#utility.yul\":3026:3041   */\n              swap1\n              pop\n                /* \"#utility.yul\":3002:3115   */\n              jump(tag_139)\n            tag_141:\n                /* \"#utility.yul\":3133:3139   */\n              dup4\n                /* \"#utility.yul\":3130:3131   */\n              dup2\n                /* \"#utility.yul\":3127:3140   */\n              gt\n                /* \"#utility.yul\":3124:3225   */\n              iszero\n              tag_142\n              jumpi\n                /* \"#utility.yul\":3213:3214   */\n              0x00\n                /* \"#utility.yul\":3204:3210   */\n              dup5\n                /* \"#utility.yul\":3199:3202   */\n              dup5\n                /* \"#utility.yul\":3195:3211   */\n              add\n                /* \"#utility.yul\":3188:3215   */\n              mstore\n                /* \"#utility.yul\":3124:3225   */\n            tag_142:\n                /* \"#utility.yul\":2973:3231   */\n              pop\n                /* \"#utility.yul\":2924:3231   */\n              pop\n              pop\n              pop\n              jump\t// out\n                /* \"#utility.yul\":3237:3339   */\n            tag_84:\n                /* \"#utility.yul\":3278:3284   */\n              0x00\n                /* \"#utility.yul\":3329:3331   */\n              0x1f\n                /* \"#utility.yul\":3325:3332   */\n              not\n                /* \"#utility.yul\":3320:3322   */\n              0x1f\n                /* \"#utility.yul\":3313:3318   */\n              dup4\n                /* \"#utility.yul\":3309:3323   */\n              add\n                /* \"#utility.yul\":3305:3333   */\n              and\n                /* \"#utility.yul\":3295:3333   */\n              swap1\n              pop\n                /* \"#utility.yul\":3237:3339   */\n              swap2\n              swap1\n              pop\n              jump\t// out\n                /* \"#utility.yul\":3345:3709   */\n            tag_85:\n                /* \"#utility.yul\":3433:3436   */\n              0x00\n                /* \"#utility.yul\":3461:3500   */\n              tag_145\n                /* \"#utility.yul\":3494:3499   */\n              dup3\n                /* \"#utility.yul\":3461:3500   */\n              tag_81\n              jump\t// in\n            tag_145:\n                /* \"#utility.yul\":3516:3587   */\n              tag_146\n                /* \"#utility.yul\":3580:3586   */\n              dup2\n                /* \"#utility.yul\":3575:3578   */\n              dup6\n                /* \"#utility.yul\":3516:3587   */\n              tag_82\n              jump\t// in\n            tag_146:\n                /* \"#utility.yul\":3509:3587   */\n              swap4\n              pop\n                /* \"#utility.yul\":3596:3648   */\n              tag_147\n                /* \"#utility.yul\":3641:3647   */\n              dup2\n                /* \"#utility.yul\":3636:3639   */\n              dup6\n                /* \"#utility.yul\":3629:3633   */\n              0x20\n                /* \"#utility.yul\":3622:3627   */\n              dup7\n                /* \"#utility.yul\":3618:3634   */\n              add\n                /* \"#utility.yul\":3596:3648   */\n              tag_83\n              jump\t// in\n            tag_147:\n                /* \"#utility.yul\":3673:3702   */\n              tag_148\n                /* \"#utility.yul\":3695:3701   */\n              dup2\n                /* \"#utility.yul\":3673:3702   */\n              tag_84\n              jump\t// in\n            tag_148:\n                /* \"#utility.yul\":3668:3671   */\n              dup5\n                /* \"#utility.yul\":3664:3703   */\n              add\n                /* \"#utility.yul\":3657:3703   */\n              swap2\n              pop\n                /* \"#utility.yul\":3437:3709   */\n              pop\n                /* \"#utility.yul\":3345:3709   */\n              swap3\n              swap2\n              pop\n              pop\n              jump\t// out\n                /* \"#utility.yul\":3715:4028   */\n            tag_32:\n                /* \"#utility.yul\":3828:3832   */\n              0x00\n                /* \"#utility.yul\":3866:3868   */\n              0x20\n                /* \"#utility.yul\":3855:3864   */\n              dup3\n                /* \"#utility.yul\":3851:3869   */\n              add\n                /* \"#utility.yul\":3843:3869   */\n              swap1\n              pop\n                /* \"#utility.yul\":3915:3924   */\n              dup2\n                /* \"#utility.yul\":3909:3913   */\n              dup2\n                /* \"#utility.yul\":3905:3925   */\n              sub\n                /* \"#utility.yul\":3901:3902   */\n              0x00\n                /* \"#utility.yul\":3890:3899   */\n              dup4\n                /* \"#utility.yul\":3886:3903   */\n              add\n                /* \"#utility.yul\":3879:3926   */\n              mstore\n                /* \"#utility.yul\":3943:4021   */\n              tag_150\n                /* \"#utility.yul\":4016:4020   */\n              dup2\n                /* \"#utility.yul\":4007:4013   */\n              dup5\n                /* \"#utility.yul\":3943:4021   */\n              tag_85\n              jump\t// in\n            tag_150:\n                /* \"#utility.yul\":3935:4021   */\n              swap1\n              pop\n                /* \"#utility.yul\":3715:4028   */\n              swap3\n              swap2\n              pop\n              pop\n              jump\t// out\n                /* \"#utility.yul\":4034:4109   */\n            tag_86:\n                /* \"#utility.yul\":4067:4073   */\n              0x00\n                /* \"#utility.yul\":4100:4102   */\n              0x40\n                /* \"#utility.yul\":4094:4103   */\n              mload\n                /* \"#utility.yul\":4084:4103   */\n              swap1\n              pop\n                /* \"#utility.yul\":4034:4109   */\n              swap1\n              jump\t// out\n                /* \"#utility.yul\":4115:4232   */\n            tag_87:\n                /* \"#utility.yul\":4224:4225   */\n              0x00\n                /* \"#utility.yul\":4221:4222   */\n              dup1\n                /* \"#utility.yul\":4214:4226   */\n              revert\n                /* \"#utility.yul\":4238:4355   */\n            tag_88:\n                /* \"#utility.yul\":4347:4348   */\n              0x00\n                /* \"#utility.yul\":4344:4345   */\n              dup1\n                /* \"#utility.yul\":4337:4349   */\n              revert\n                /* \"#utility.yul\":4361:4478   */\n            tag_89:\n                /* \"#utility.yul\":4470:4471   */\n              0x00\n                /* \"#utility.yul\":4467:4468   */\n              dup1\n                /* \"#utility.yul\":4460:4472   */\n              revert\n                /* \"#utility.yul\":4484:4601   */\n            tag_90:\n                /* \"#utility.yul\":4593:4594   */\n              0x00\n                /* \"#utility.yul\":4590:4591   */\n              dup1\n                /* \"#utility.yul\":4583:4595   */\n              revert\n                /* \"#utility.yul\":4607:4787   */\n            tag_91:\n                /* \"#utility.yul\":4655:4732   */\n              0x4e487b7100000000000000000000000000000000000000000000000000000000\n                /* \"#utility.yul\":4652:4653   */\n              0x00\n                /* \"#utility.yul\":4645:4733   */\n              mstore\n                /* \"#utility.yul\":4752:4756   */\n              0x41\n                /* \"#utility.yul\":4749:4750   */\n              0x04\n                /* \"#utility.yul\":4742:4757   */\n              mstore\n                /* \"#utility.yul\":4776:4780   */\n              0x24\n                /* \"#utility.yul\":4773:4774   */\n              0x00\n                /* \"#utility.yul\":4766:4781   */\n              revert\n                /* \"#utility.yul\":4793:5074   */\n            tag_92:\n                /* \"#utility.yul\":4876:4903   */\n              tag_158\n                /* \"#utility.yul\":4898:4902   */\n              dup3\n                /* \"#utility.yul\":4876:4903   */\n              tag_84\n              jump\t// in\n            tag_158:\n                /* \"#utility.yul\":4868:4874   */\n              dup2\n                /* \"#utility.yul\":4864:4904   */\n              add\n                /* \"#utility.yul\":5006:5012   */\n              dup2\n                /* \"#utility.yul\":4994:5004   */\n              dup2\n                /* \"#utility.yul\":4991:5013   */\n              lt\n                /* \"#utility.yul\":4970:4988   */\n              0xffffffffffffffff\n                /* \"#utility.yul\":4958:4968   */\n              dup3\n                /* \"#utility.yul\":4955:4989   */\n              gt\n                /* \"#utility.yul\":4952:5014   */\n              or\n                /* \"#utility.yul\":4949:5037   */\n              iszero\n              tag_159\n              jumpi\n                /* \"#utility.yul\":5017:5035   */\n              tag_160\n              tag_91\n              jump\t// in\n            tag_160:\n                /* \"#utility.yul\":4949:5037   */\n            tag_159:\n                /* \"#utility.yul\":5057:5067   */\n              dup1\n                /* \"#utility.yul\":5053:5055   */\n              0x40\n                /* \"#utility.yul\":5046:5068   */\n              mstore\n                /* \"#utility.yul\":4836:5074   */\n              pop\n                /* \"#utility.yul\":4793:5074   */\n              pop\n              pop\n              jump\t// out\n                /* \"#utility.yul\":5080:5209   */\n            tag_93:\n                /* \"#utility.yul\":5114:5120   */\n              0x00\n                /* \"#utility.yul\":5141:5161   */\n              tag_162\n              tag_86\n              jump\t// in\n            tag_162:\n                /* \"#utility.yul\":5131:5161   */\n              swap1\n              pop\n                /* \"#utility.yul\":5170:5203   */\n              tag_163\n                /* \"#utility.yul\":5198:5202   */\n              dup3\n                /* \"#utility.yul\":5190:5196   */\n              dup3\n                /* \"#utility.yul\":5170:5203   */\n              tag_92\n              jump\t// in\n            tag_163:\n                /* \"#utility.yul\":5080:5209   */\n              swap2\n              swap1\n              pop\n              jump\t// out\n                /* \"#utility.yul\":5215:5523   */\n            tag_94:\n                /* \"#utility.yul\":5277:5281   */\n              0x00\n                /* \"#utility.yul\":5367:5385   */\n              0xffffffffffffffff\n                /* \"#utility.yul\":5359:5365   */\n              dup3\n                /* \"#utility.yul\":5356:5386   */\n              gt\n                /* \"#utility.yul\":5353:5409   */\n              iszero\n              tag_165\n              jumpi\n                /* \"#utility.yul\":5389:5407   */\n              tag_166\n              tag_91\n              jump\t// in\n            tag_166:\n                /* \"#utility.yul\":5353:5409   */\n            tag_165:\n                /* \"#utility.yul\":5427:5456   */\n              tag_167\n                /* \"#utility.yul\":5449:5455   */\n              dup3\n                /* \"#utility.yul\":5427:5456   */\n              tag_84\n              jump\t// in\n            tag_167:\n                /* \"#utility.yul\":5419:5456   */\n              swap1\n              pop\n                /* \"#utility.yul\":5511:5515   */\n              0x20\n                /* \"#utility.yul\":5505:5509   */\n              dup2\n                /* \"#utility.yul\":5501:5516   */\n              add\n                /* \"#utility.yul\":5493:5516   */\n              swap1\n              pop\n                /* \"#utility.yul\":5215:5523   */\n              swap2\n              swap1\n              pop\n              jump\t// out\n                /* \"#utility.yul\":5529:5683   */\n            tag_95:\n                /* \"#utility.yul\":5613:5619   */\n              dup3\n                /* \"#utility.yul\":5608:5611   */\n              dup2\n                /* \"#utility.yul\":5603:5606   */\n              dup4\n                /* \"#utility.yul\":5590:5620   */\n              calldatacopy\n                /* \"#utility.yul\":5675:5676   */\n              0x00\n                /* \"#utility.yul\":5666:5672   */\n              dup4\n                /* \"#utility.yul\":5661:5664   */\n              dup4\n                /* \"#utility.yul\":5657:5673   */\n              add\n                /* \"#utility.yul\":5650:5677   */\n              mstore\n                /* \"#utility.yul\":5529:5683   */\n              pop\n              pop\n              pop\n              jump\t// out\n                /* \"#utility.yul\":5689:6101   */\n            tag_96:\n                /* \"#utility.yul\":5767:5772   */\n              0x00\n                /* \"#utility.yul\":5792:5858   */\n              tag_170\n                /* \"#utility.yul\":5808:5857   */\n              tag_171\n                /* \"#utility.yul\":5850:5856   */\n              dup5\n                /* \"#utility.yul\":5808:5857   */\n              tag_94\n              jump\t// in\n            tag_171:\n                /* \"#utility.yul\":5792:5858   */\n              tag_93\n              jump\t// in\n            tag_170:\n                /* \"#utility.yul\":5783:5858   */\n              swap1\n              pop\n                /* \"#utility.yul\":5881:5887   */\n              dup3\n                /* \"#utility.yul\":5874:5879   */\n              dup2\n                /* \"#utility.yul\":5867:5888   */\n              mstore\n                /* \"#utility.yul\":5919:5923   */\n              0x20\n                /* \"#utility.yul\":5912:5917   */\n              dup2\n                /* \"#utility.yul\":5908:5924   */\n              add\n                /* \"#utility.yul\":5957:5960   */\n              dup5\n                /* \"#utility.yul\":5948:5954   */\n              dup5\n                /* \"#utility.yul\":5943:5946   */\n              dup5\n                /* \"#utility.yul\":5939:5955   */\n              add\n                /* \"#utility.yul\":5936:5961   */\n              gt\n                /* \"#utility.yul\":5933:6045   */\n              iszero\n              tag_172\n              jumpi\n                /* \"#utility.yul\":5964:6043   */\n              tag_173\n              tag_90\n              jump\t// in\n            tag_173:\n                /* \"#utility.yul\":5933:6045   */\n            tag_172:\n                /* \"#utility.yul\":6054:6095   */\n              tag_174\n                /* \"#utility.yul\":6088:6094   */\n              dup5\n                /* \"#utility.yul\":6083:6086   */\n              dup3\n                /* \"#utility.yul\":6078:6081   */\n              dup6\n                /* \"#utility.yul\":6054:6095   */\n              tag_95\n              jump\t// in\n            tag_174:\n                /* \"#utility.yul\":5773:6101   */\n              pop\n                /* \"#utility.yul\":5689:6101   */\n              swap4\n              swap3\n              pop\n              pop\n              pop\n              jump\t// out\n                /* \"#utility.yul\":6121:6461   */\n            tag_97:\n                /* \"#utility.yul\":6177:6182   */\n              0x00\n                /* \"#utility.yul\":6226:6229   */\n              dup3\n                /* \"#utility.yul\":6219:6223   */\n              0x1f\n                /* \"#utility.yul\":6211:6217   */\n              dup4\n                /* \"#utility.yul\":6207:6224   */\n              add\n                /* \"#utility.yul\":6203:6230   */\n              slt\n                /* \"#utility.yul\":6193:6315   */\n              tag_176\n              jumpi\n                /* \"#utility.yul\":6234:6313   */\n              tag_177\n              tag_89\n              jump\t// in\n            tag_177:\n                /* \"#utility.yul\":6193:6315   */\n            tag_176:\n                /* \"#utility.yul\":6351:6357   */\n              dup2\n                /* \"#utility.yul\":6338:6358   */\n              calldataload\n                /* \"#utility.yul\":6376:6455   */\n              tag_178\n                /* \"#utility.yul\":6451:6454   */\n              dup5\n                /* \"#utility.yul\":6443:6449   */\n              dup3\n                /* \"#utility.yul\":6436:6440   */\n              0x20\n                /* \"#utility.yul\":6428:6434   */\n              dup7\n                /* \"#utility.yul\":6424:6441   */\n              add\n                /* \"#utility.yul\":6376:6455   */\n              tag_96\n              jump\t// in\n            tag_178:\n                /* \"#utility.yul\":6367:6455   */\n              swap2\n              pop\n                /* \"#utility.yul\":6183:6461   */\n              pop\n                /* \"#utility.yul\":6121:6461   */\n              swap3\n              swap2\n              pop\n              pop\n              jump\t// out\n                /* \"#utility.yul\":6467:6976   */\n            tag_35:\n                /* \"#utility.yul\":6536:6542   */\n              0x00\n                /* \"#utility.yul\":6585:6587   */\n              0x20\n                /* \"#utility.yul\":6573:6582   */\n              dup3\n                /* \"#utility.yul\":6564:6571   */\n              dup5\n                /* \"#utility.yul\":6560:6583   */\n              sub\n                /* \"#utility.yul\":6556:6588   */\n              slt\n                /* \"#utility.yul\":6553:6672   */\n              iszero\n              tag_180\n              jumpi\n                /* \"#utility.yul\":6591:6670   */\n              tag_181\n              tag_87\n              jump\t// in\n            tag_181:\n                /* \"#utility.yul\":6553:6672   */\n            tag_180:\n                /* \"#utility.yul\":6739:6740   */\n              0x00\n                /* \"#utility.yul\":6728:6737   */\n              dup3\n                /* \"#utility.yul\":6724:6741   */\n              add\n                /* \"#utility.yul\":6711:6742   */\n              calldataload\n                /* \"#utility.yul\":6769:6787   */\n              0xffffffffffffffff\n                /* \"#utility.yul\":6761:6767   */\n              dup2\n                /* \"#utility.yul\":6758:6788   */\n              gt\n                /* \"#utility.yul\":6755:6872   */\n              iszero\n              tag_182\n              jumpi\n                /* \"#utility.yul\":6791:6870   */\n              tag_183\n              tag_88\n              jump\t// in\n            tag_183:\n                /* \"#utility.yul\":6755:6872   */\n            tag_182:\n                /* \"#utility.yul\":6896:6959   */\n              tag_184\n                /* \"#utility.yul\":6951:6958   */\n              dup5\n                /* \"#utility.yul\":6942:6948   */\n              dup3\n                /* \"#utility.yul\":6931:6940   */\n              dup6\n                /* \"#utility.yul\":6927:6949   */\n              add\n                /* \"#utility.yul\":6896:6959   */\n              tag_97\n              jump\t// in\n            tag_184:\n                /* \"#utility.yul\":6886:6959   */\n              swap2\n              pop\n                /* \"#utility.yul\":6682:6969   */\n              pop\n                /* \"#utility.yul\":6467:6976   */\n              swap3\n              swap2\n              pop\n              pop\n              jump\t// out\n                /* \"#utility.yul\":6982:7210   */\n            tag_98:\n                /* \"#utility.yul\":7122:7156   */\n              0x4f6e6c7920726566657265652063616e20617070726f766520617070726f7661\n                /* \"#utility.yul\":7118:7119   */\n              0x00\n                /* \"#utility.yul\":7110:7116   */\n              dup3\n                /* \"#utility.yul\":7106:7120   */\n              add\n                /* \"#utility.yul\":7099:7157   */\n              mstore\n                /* \"#utility.yul\":7191:7202   */\n              0x6c20726571756573740000000000000000000000000000000000000000000000\n                /* \"#utility.yul\":7186:7188   */\n              0x20\n                /* \"#utility.yul\":7178:7184   */\n              dup3\n                /* \"#utility.yul\":7174:7189   */\n              add\n                /* \"#utility.yul\":7167:7203   */\n              mstore\n                /* \"#utility.yul\":6982:7210   */\n              pop\n              jump\t// out\n                /* \"#utility.yul\":7216:7582   */\n            tag_99:\n                /* \"#utility.yul\":7358:7361   */\n              0x00\n                /* \"#utility.yul\":7379:7446   */\n              tag_187\n                /* \"#utility.yul\":7443:7445   */\n              0x29\n                /* \"#utility.yul\":7438:7441   */\n              dup4\n                /* \"#utility.yul\":7379:7446   */\n              tag_82\n              jump\t// in\n            tag_187:\n                /* \"#utility.yul\":7372:7446   */\n              swap2\n              pop\n                /* \"#utility.yul\":7455:7548   */\n              tag_188\n                /* \"#utility.yul\":7544:7547   */\n              dup3\n                /* \"#utility.yul\":7455:7548   */\n              tag_98\n              jump\t// in\n            tag_188:\n                /* \"#utility.yul\":7573:7575   */\n              0x40\n                /* \"#utility.yul\":7568:7571   */\n              dup3\n                /* \"#utility.yul\":7564:7576   */\n              add\n                /* \"#utility.yul\":7557:7576   */\n              swap1\n              pop\n                /* \"#utility.yul\":7216:7582   */\n              swap2\n              swap1\n              pop\n              jump\t// out\n                /* \"#utility.yul\":7588:8007   */\n            tag_41:\n                /* \"#utility.yul\":7754:7758   */\n              0x00\n                /* \"#utility.yul\":7792:7794   */\n              0x20\n                /* \"#utility.yul\":7781:7790   */\n              dup3\n                /* \"#utility.yul\":7777:7795   */\n              add\n                /* \"#utility.yul\":7769:7795   */\n              swap1\n              pop\n                /* \"#utility.yul\":7841:7850   */\n              dup2\n                /* \"#utility.yul\":7835:7839   */\n              dup2\n                /* \"#utility.yul\":7831:7851   */\n              sub\n                /* \"#utility.yul\":7827:7828   */\n              0x00\n                /* \"#utility.yul\":7816:7825   */\n              dup4\n                /* \"#utility.yul\":7812:7829   */\n              add\n                /* \"#utility.yul\":7805:7852   */\n              mstore\n                /* \"#utility.yul\":7869:8000   */\n              tag_190\n                /* \"#utility.yul\":7995:7999   */\n              dup2\n                /* \"#utility.yul\":7869:8000   */\n              tag_99\n              jump\t// in\n            tag_190:\n                /* \"#utility.yul\":7861:8000   */\n              swap1\n              pop\n                /* \"#utility.yul\":7588:8007   */\n              swap2\n              swap1\n              pop\n              jump\t// out\n                /* \"#utility.yul\":8013:8193   */\n            tag_100:\n                /* \"#utility.yul\":8061:8138   */\n              0x4e487b7100000000000000000000000000000000000000000000000000000000\n                /* \"#utility.yul\":8058:8059   */\n              0x00\n                /* \"#utility.yul\":8051:8139   */\n              mstore\n                /* \"#utility.yul\":8158:8162   */\n              0x22\n                /* \"#utility.yul\":8155:8156   */\n              0x04\n                /* \"#utility.yul\":8148:8163   */\n              mstore\n                /* \"#utility.yul\":8182:8186   */\n              0x24\n                /* \"#utility.yul\":8179:8180   */\n              0x00\n                /* \"#utility.yul\":8172:8187   */\n              revert\n                /* \"#utility.yul\":8199:8519   */\n            tag_46:\n                /* \"#utility.yul\":8243:8249   */\n              0x00\n                /* \"#utility.yul\":8280:8281   */\n              0x02\n                /* \"#utility.yul\":8274:8278   */\n              dup3\n                /* \"#utility.yul\":8270:8282   */\n              div\n                /* \"#utility.yul\":8260:8282   */\n              swap1\n              pop\n                /* \"#utility.yul\":8327:8328   */\n              0x01\n                /* \"#utility.yul\":8321:8325   */\n              dup3\n                /* \"#utility.yul\":8317:8329   */\n              and\n                /* \"#utility.yul\":8348:8366   */\n              dup1\n                /* \"#utility.yul\":8338:8419   */\n              tag_193\n              jumpi\n                /* \"#utility.yul\":8404:8408   */\n              0x7f\n                /* \"#utility.yul\":8396:8402   */\n              dup3\n                /* \"#utility.yul\":8392:8409   */\n              and\n                /* \"#utility.yul\":8382:8409   */\n              swap2\n              pop\n                /* \"#utility.yul\":8338:8419   */\n            tag_193:\n                /* \"#utility.yul\":8466:8468   */\n              0x20\n                /* \"#utility.yul\":8458:8464   */\n              dup3\n                /* \"#utility.yul\":8455:8469   */\n              lt\n                /* \"#utility.yul\":8435:8453   */\n              dup2\n                /* \"#utility.yul\":8432:8470   */\n              eq\n                /* \"#utility.yul\":8429:8513   */\n              iszero\n              tag_194\n              jumpi\n                /* \"#utility.yul\":8485:8503   */\n              tag_195\n              tag_100\n              jump\t// in\n            tag_195:\n                /* \"#utility.yul\":8429:8513   */\n            tag_194:\n                /* \"#utility.yul\":8250:8519   */\n              pop\n                /* \"#utility.yul\":8199:8519   */\n              swap2\n              swap1\n              pop\n              jump\t// out\n                /* \"#utility.yul\":8525:8752   */\n            tag_101:\n                /* \"#utility.yul\":8665:8699   */\n              0x4f6e6c7920726566657265652063616e2072656a65637420617070726f76616c\n                /* \"#utility.yul\":8661:8662   */\n              0x00\n                /* \"#utility.yul\":8653:8659   */\n              dup3\n                /* \"#utility.yul\":8649:8663   */\n              add\n                /* \"#utility.yul\":8642:8700   */\n              mstore\n                /* \"#utility.yul\":8734:8744   */\n              0x2072657175657374000000000000000000000000000000000000000000000000\n                /* \"#utility.yul\":8729:8731   */\n              0x20\n                /* \"#utility.yul\":8721:8727   */\n              dup3\n                /* \"#utility.yul\":8717:8732   */\n              add\n                /* \"#utility.yul\":8710:8745   */\n              mstore\n                /* \"#utility.yul\":8525:8752   */\n              pop\n              jump\t// out\n                /* \"#utility.yul\":8758:9124   */\n            tag_102:\n                /* \"#utility.yul\":8900:8903   */\n              0x00\n                /* \"#utility.yul\":8921:8988   */\n              tag_198\n                /* \"#utility.yul\":8985:8987   */\n              0x28\n                /* \"#utility.yul\":8980:8983   */\n              dup4\n                /* \"#utility.yul\":8921:8988   */\n              tag_82\n              jump\t// in\n            tag_198:\n                /* \"#utility.yul\":8914:8988   */\n              swap2\n              pop\n                /* \"#utility.yul\":8997:9090   */\n              tag_199\n                /* \"#utility.yul\":9086:9089   */\n              dup3\n                /* \"#utility.yul\":8997:9090   */\n              tag_101\n              jump\t// in\n            tag_199:\n                /* \"#utility.yul\":9115:9117   */\n              0x40\n                /* \"#utility.yul\":9110:9113   */\n              dup3\n                /* \"#utility.yul\":9106:9118   */\n              add\n                /* \"#utility.yul\":9099:9118   */\n              swap1\n              pop\n                /* \"#utility.yul\":8758:9124   */\n              swap2\n              swap1\n              pop\n              jump\t// out\n                /* \"#utility.yul\":9130:9549   */\n            tag_54:\n                /* \"#utility.yul\":9296:9300   */\n              0x00\n                /* \"#utility.yul\":9334:9336   */\n              0x20\n                /* \"#utility.yul\":9323:9332   */\n              dup3\n                /* \"#utility.yul\":9319:9337   */\n              add\n                /* \"#utility.yul\":9311:9337   */\n              swap1\n              pop\n                /* \"#utility.yul\":9383:9392   */\n              dup2\n                /* \"#utility.yul\":9377:9381   */\n              dup2\n                /* \"#utility.yul\":9373:9393   */\n              sub\n                /* \"#utility.yul\":9369:9370   */\n              0x00\n                /* \"#utility.yul\":9358:9367   */\n              dup4\n                /* \"#utility.yul\":9354:9371   */\n              add\n                /* \"#utility.yul\":9347:9394   */\n              mstore\n                /* \"#utility.yul\":9411:9542   */\n              tag_201\n                /* \"#utility.yul\":9537:9541   */\n              dup2\n                /* \"#utility.yul\":9411:9542   */\n              tag_102\n              jump\t// in\n            tag_201:\n                /* \"#utility.yul\":9403:9542   */\n              swap1\n              pop\n                /* \"#utility.yul\":9130:9549   */\n              swap2\n              swap1\n              pop\n              jump\t// out\n\n            auxdata: 0xa2646970667358221220545a28d113a3cbfb7429af5f711e093183f3ceaf6a0664589b435746a0ff6f9e64736f6c634300080c0033\n        }\n    }\n\n    sub_1: assembly {\n            /* \"Contracts\":10759:12152  contract AccountabilityContract {... */\n          mstore(0x40, 0x80)\n            /* \"Contracts\":11038:11407  constructor(address _creator, address _referee, string memory _name, string memory _description, address _failureRecipient, uint _amount) payable {... */\n          mload(0x40)\n          sub(codesize, bytecodeSize)\n          dup1\n          bytecodeSize\n          dup4\n          codecopy\n          dup2\n          dup2\n          add\n          0x40\n          mstore\n          dup2\n          add\n          swap1\n          tag_1\n          swap2\n          swap1\n          tag_2\n          jump\t// in\n        tag_1:\n            /* \"Contracts\":11204:11212  _creator */\n          dup6\n            /* \"Contracts\":11194:11201  creator */\n          0x00\n          dup1\n            /* \"Contracts\":11194:11212  creator = _creator */\n          0x0100\n          exp\n          dup2\n          sload\n          dup2\n          0xffffffffffffffffffffffffffffffffffffffff\n          mul\n          not\n          and\n          swap1\n          dup4\n          0xffffffffffffffffffffffffffffffffffffffff\n          and\n          mul\n          or\n          swap1\n          sstore\n          pop\n            /* \"Contracts\":11232:11240  _referee */\n          dup5\n            /* \"Contracts\":11222:11229  referee */\n          0x01\n          0x00\n            /* \"Contracts\":11222:11240  referee = _referee */\n          0x0100\n          exp\n          dup2\n          sload\n          dup2\n          0xffffffffffffffffffffffffffffffffffffffff\n          mul\n          not\n          and\n          swap1\n          dup4\n          0xffffffffffffffffffffffffffffffffffffffff\n          and\n          mul\n          or\n          swap1\n          sstore\n          pop\n            /* \"Contracts\":11257:11262  _name */\n          dup4\n            /* \"Contracts\":11250:11254  name */\n          0x02\n            /* \"Contracts\":11250:11262  name = _name */\n          swap1\n          dup1\n          mload\n          swap1\n          0x20\n          add\n          swap1\n          tag_5\n          swap3\n          swap2\n          swap1\n          tag_6\n          jump\t// in\n        tag_5:\n          pop\n            /* \"Contracts\":11286:11298  _description */\n          dup3\n            /* \"Contracts\":11272:11283  description */\n          0x03\n            /* \"Contracts\":11272:11298  description = _description */\n          swap1\n          dup1\n          mload\n          swap1\n          0x20\n          add\n          swap1\n          tag_7\n          swap3\n          swap2\n          swap1\n          tag_6\n          jump\t// in\n        tag_7:\n          pop\n            /* \"Contracts\":11327:11344  _failureRecipient */\n          dup2\n            /* \"Contracts\":11308:11324  failureRecipient */\n          0x04\n          0x00\n            /* \"Contracts\":11308:11344  failureRecipient = _failureRecipient */\n          0x0100\n          exp\n          dup2\n          sload\n          dup2\n          0xffffffffffffffffffffffffffffffffffffffff\n          mul\n          not\n          and\n          swap1\n          dup4\n          0xffffffffffffffffffffffffffffffffffffffff\n          and\n          mul\n          or\n          swap1\n          sstore\n          pop\n            /* \"Contracts\":11363:11370  _amount */\n          dup1\n            /* \"Contracts\":11354:11360  amount */\n          0x05\n            /* \"Contracts\":11354:11370  amount = _amount */\n          dup2\n          swap1\n          sstore\n          pop\n            /* \"Contracts\":11389:11400  Status.OPEN */\n          0x00\n            /* \"Contracts\":11380:11386  status */\n          0x06\n          0x00\n            /* \"Contracts\":11380:11400  status = Status.OPEN */\n          0x0100\n          exp\n          dup2\n          sload\n          dup2\n          0xff\n          mul\n          not\n          and\n          swap1\n          dup4\n          0x02\n          dup2\n          gt\n          iszero\n          tag_8\n          jumpi\n          tag_9\n          tag_10\n          jump\t// in\n        tag_9:\n        tag_8:\n          mul\n          or\n          swap1\n          sstore\n          pop\n            /* \"Contracts\":11038:11407  constructor(address _creator, address _referee, string memory _name, string memory _description, address _failureRecipient, uint _amount) payable {... */\n          pop\n          pop\n          pop\n          pop\n          pop\n          pop\n            /* \"Contracts\":10759:12152  contract AccountabilityContract {... */\n          jump(tag_11)\n        tag_6:\n          dup3\n          dup1\n          sload\n          tag_12\n          swap1\n          tag_13\n          jump\t// in\n        tag_12:\n          swap1\n          0x00\n          mstore\n          keccak256(0x00, 0x20)\n          swap1\n          0x1f\n          add\n          0x20\n          swap1\n          div\n          dup2\n          add\n          swap3\n          dup3\n          tag_15\n          jumpi\n          0x00\n          dup6\n          sstore\n          jump(tag_14)\n        tag_15:\n          dup3\n          0x1f\n          lt\n          tag_16\n          jumpi\n          dup1\n          mload\n          not(0xff)\n          and\n          dup4\n          dup1\n          add\n          or\n          dup6\n          sstore\n          jump(tag_14)\n        tag_16:\n          dup3\n          dup1\n          add\n          0x01\n          add\n          dup6\n          sstore\n          dup3\n          iszero\n          tag_14\n          jumpi\n          swap2\n          dup3\n          add\n        tag_17:\n          dup3\n          dup2\n          gt\n          iszero\n          tag_18\n          jumpi\n          dup3\n          mload\n          dup3\n          sstore\n          swap2\n          0x20\n          add\n          swap2\n          swap1\n          0x01\n          add\n          swap1\n          jump(tag_17)\n        tag_18:\n        tag_14:\n          pop\n          swap1\n          pop\n          tag_19\n          swap2\n          swap1\n          tag_20\n          jump\t// in\n        tag_19:\n          pop\n          swap1\n          jump\t// out\n        tag_20:\n        tag_21:\n          dup1\n          dup3\n          gt\n          iszero\n          tag_22\n          jumpi\n          0x00\n          dup2\n          0x00\n          swap1\n          sstore\n          pop\n          0x01\n          add\n          jump(tag_21)\n        tag_22:\n          pop\n          swap1\n          jump\t// out\n            /* \"#utility.yul\":7:82   */\n        tag_23:\n            /* \"#utility.yul\":40:46   */\n          0x00\n            /* \"#utility.yul\":73:75   */\n          0x40\n            /* \"#utility.yul\":67:76   */\n          mload\n            /* \"#utility.yul\":57:76   */\n          swap1\n          pop\n            /* \"#utility.yul\":7:82   */\n          swap1\n          jump\t// out\n            /* \"#utility.yul\":88:205   */\n        tag_24:\n            /* \"#utility.yul\":197:198   */\n          0x00\n            /* \"#utility.yul\":194:195   */\n          dup1\n            /* \"#utility.yul\":187:199   */\n          revert\n            /* \"#utility.yul\":211:328   */\n        tag_25:\n            /* \"#utility.yul\":320:321   */\n          0x00\n            /* \"#utility.yul\":317:318   */\n          dup1\n            /* \"#utility.yul\":310:322   */\n          revert\n            /* \"#utility.yul\":334:460   */\n        tag_26:\n            /* \"#utility.yul\":371:378   */\n          0x00\n            /* \"#utility.yul\":411:453   */\n          0xffffffffffffffffffffffffffffffffffffffff\n            /* \"#utility.yul\":404:409   */\n          dup3\n            /* \"#utility.yul\":400:454   */\n          and\n            /* \"#utility.yul\":389:454   */\n          swap1\n          pop\n            /* \"#utility.yul\":334:460   */\n          swap2\n          swap1\n          pop\n          jump\t// out\n            /* \"#utility.yul\":466:562   */\n        tag_27:\n            /* \"#utility.yul\":503:510   */\n          0x00\n            /* \"#utility.yul\":532:556   */\n          tag_50\n            /* \"#utility.yul\":550:555   */\n          dup3\n            /* \"#utility.yul\":532:556   */\n          tag_26\n          jump\t// in\n        tag_50:\n            /* \"#utility.yul\":521:556   */\n          swap1\n          pop\n            /* \"#utility.yul\":466:562   */\n          swap2\n          swap1\n          pop\n          jump\t// out\n            /* \"#utility.yul\":568:690   */\n        tag_28:\n            /* \"#utility.yul\":641:665   */\n          tag_52\n            /* \"#utility.yul\":659:664   */\n          dup2\n            /* \"#utility.yul\":641:665   */\n          tag_27\n          jump\t// in\n        tag_52:\n            /* \"#utility.yul\":634:639   */\n          dup2\n            /* \"#utility.yul\":631:666   */\n          eq\n            /* \"#utility.yul\":621:684   */\n          tag_53\n          jumpi\n            /* \"#utility.yul\":680:681   */\n          0x00\n            /* \"#utility.yul\":677:678   */\n          dup1\n            /* \"#utility.yul\":670:682   */\n          revert\n            /* \"#utility.yul\":621:684   */\n        tag_53:\n            /* \"#utility.yul\":568:690   */\n          pop\n          jump\t// out\n            /* \"#utility.yul\":696:839   */\n        tag_29:\n            /* \"#utility.yul\":753:758   */\n          0x00\n            /* \"#utility.yul\":784:790   */\n          dup2\n            /* \"#utility.yul\":778:791   */\n          mload\n            /* \"#utility.yul\":769:791   */\n          swap1\n          pop\n            /* \"#utility.yul\":800:833   */\n          tag_55\n            /* \"#utility.yul\":827:832   */\n          dup2\n            /* \"#utility.yul\":800:833   */\n          tag_28\n          jump\t// in\n        tag_55:\n            /* \"#utility.yul\":696:839   */\n          swap3\n          swap2\n          pop\n          pop\n          jump\t// out\n            /* \"#utility.yul\":845:962   */\n        tag_30:\n            /* \"#utility.yul\":954:955   */\n          0x00\n            /* \"#utility.yul\":951:952   */\n          dup1\n            /* \"#utility.yul\":944:956   */\n          revert\n            /* \"#utility.yul\":968:1085   */\n        tag_31:\n            /* \"#utility.yul\":1077:1078   */\n          0x00\n            /* \"#utility.yul\":1074:1075   */\n          dup1\n            /* \"#utility.yul\":1067:1079   */\n          revert\n            /* \"#utility.yul\":1091:1193   */\n        tag_32:\n            /* \"#utility.yul\":1132:1138   */\n          0x00\n            /* \"#utility.yul\":1183:1185   */\n          0x1f\n            /* \"#utility.yul\":1179:1186   */\n          not\n            /* \"#utility.yul\":1174:1176   */\n          0x1f\n            /* \"#utility.yul\":1167:1172   */\n          dup4\n            /* \"#utility.yul\":1163:1177   */\n          add\n            /* \"#utility.yul\":1159:1187   */\n          and\n            /* \"#utility.yul\":1149:1187   */\n          swap1\n          pop\n            /* \"#utility.yul\":1091:1193   */\n          swap2\n          swap1\n          pop\n          jump\t// out\n            /* \"#utility.yul\":1199:1379   */\n        tag_33:\n            /* \"#utility.yul\":1247:1324   */\n          0x4e487b7100000000000000000000000000000000000000000000000000000000\n            /* \"#utility.yul\":1244:1245   */\n          0x00\n            /* \"#utility.yul\":1237:1325   */\n          mstore\n            /* \"#utility.yul\":1344:1348   */\n          0x41\n            /* \"#utility.yul\":1341:1342   */\n          0x04\n            /* \"#utility.yul\":1334:1349   */\n          mstore\n            /* \"#utility.yul\":1368:1372   */\n          0x24\n            /* \"#utility.yul\":1365:1366   */\n          0x00\n            /* \"#utility.yul\":1358:1373   */\n          revert\n            /* \"#utility.yul\":1385:1666   */\n        tag_34:\n            /* \"#utility.yul\":1468:1495   */\n          tag_61\n            /* \"#utility.yul\":1490:1494   */\n          dup3\n            /* \"#utility.yul\":1468:1495   */\n          tag_32\n          jump\t// in\n        tag_61:\n            /* \"#utility.yul\":1460:1466   */\n          dup2\n            /* \"#utility.yul\":1456:1496   */\n          add\n            /* \"#utility.yul\":1598:1604   */\n          dup2\n            /* \"#utility.yul\":1586:1596   */\n          dup2\n            /* \"#utility.yul\":1583:1605   */\n          lt\n            /* \"#utility.yul\":1562:1580   */\n          0xffffffffffffffff\n            /* \"#utility.yul\":1550:1560   */\n          dup3\n            /* \"#utility.yul\":1547:1581   */\n          gt\n            /* \"#utility.yul\":1544:1606   */\n          or\n            /* \"#utility.yul\":1541:1629   */\n          iszero\n          tag_62\n          jumpi\n            /* \"#utility.yul\":1609:1627   */\n          tag_63\n          tag_33\n          jump\t// in\n        tag_63:\n            /* \"#utility.yul\":1541:1629   */\n        tag_62:\n            /* \"#utility.yul\":1649:1659   */\n          dup1\n            /* \"#utility.yul\":1645:1647   */\n          0x40\n            /* \"#utility.yul\":1638:1660   */\n          mstore\n            /* \"#utility.yul\":1428:1666   */\n          pop\n            /* \"#utility.yul\":1385:1666   */\n          pop\n          pop\n          jump\t// out\n            /* \"#utility.yul\":1672:1801   */\n        tag_35:\n            /* \"#utility.yul\":1706:1712   */\n          0x00\n            /* \"#utility.yul\":1733:1753   */\n          tag_65\n          tag_23\n          jump\t// in\n        tag_65:\n            /* \"#utility.yul\":1723:1753   */\n          swap1\n          pop\n            /* \"#utility.yul\":1762:1795   */\n          tag_66\n            /* \"#utility.yul\":1790:1794   */\n          dup3\n            /* \"#utility.yul\":1782:1788   */\n          dup3\n            /* \"#utility.yul\":1762:1795   */\n          tag_34\n          jump\t// in\n        tag_66:\n            /* \"#utility.yul\":1672:1801   */\n          swap2\n          swap1\n          pop\n          jump\t// out\n            /* \"#utility.yul\":1807:2115   */\n        tag_36:\n            /* \"#utility.yul\":1869:1873   */\n          0x00\n            /* \"#utility.yul\":1959:1977   */\n          0xffffffffffffffff\n            /* \"#utility.yul\":1951:1957   */\n          dup3\n            /* \"#utility.yul\":1948:1978   */\n          gt\n            /* \"#utility.yul\":1945:2001   */\n          iszero\n          tag_68\n          jumpi\n            /* \"#utility.yul\":1981:1999   */\n          tag_69\n          tag_33\n          jump\t// in\n        tag_69:\n            /* \"#utility.yul\":1945:2001   */\n        tag_68:\n            /* \"#utility.yul\":2019:2048   */\n          tag_70\n            /* \"#utility.yul\":2041:2047   */\n          dup3\n            /* \"#utility.yul\":2019:2048   */\n          tag_32\n          jump\t// in\n        tag_70:\n            /* \"#utility.yul\":2011:2048   */\n          swap1\n          pop\n            /* \"#utility.yul\":2103:2107   */\n          0x20\n            /* \"#utility.yul\":2097:2101   */\n          dup2\n            /* \"#utility.yul\":2093:2108   */\n          add\n            /* \"#utility.yul\":2085:2108   */\n          swap1\n          pop\n            /* \"#utility.yul\":1807:2115   */\n          swap2\n          swap1\n          pop\n          jump\t// out\n            /* \"#utility.yul\":2121:2428   */\n        tag_37:\n            /* \"#utility.yul\":2189:2190   */\n          0x00\n            /* \"#utility.yul\":2199:2312   */\n        tag_72:\n            /* \"#utility.yul\":2213:2219   */\n          dup4\n            /* \"#utility.yul\":2210:2211   */\n          dup2\n            /* \"#utility.yul\":2207:2220   */\n          lt\n            /* \"#utility.yul\":2199:2312   */\n          iszero\n          tag_74\n          jumpi\n            /* \"#utility.yul\":2298:2299   */\n          dup1\n            /* \"#utility.yul\":2293:2296   */\n          dup3\n            /* \"#utility.yul\":2289:2300   */\n          add\n            /* \"#utility.yul\":2283:2301   */\n          mload\n            /* \"#utility.yul\":2279:2280   */\n          dup2\n            /* \"#utility.yul\":2274:2277   */\n          dup5\n            /* \"#utility.yul\":2270:2281   */\n          add\n            /* \"#utility.yul\":2263:2302   */\n          mstore\n            /* \"#utility.yul\":2235:2237   */\n          0x20\n            /* \"#utility.yul\":2232:2233   */\n          dup2\n            /* \"#utility.yul\":2228:2238   */\n          add\n            /* \"#utility.yul\":2223:2238   */\n          swap1\n          pop\n            /* \"#utility.yul\":2199:2312   */\n          jump(tag_72)\n        tag_74:\n            /* \"#utility.yul\":2330:2336   */\n          dup4\n            /* \"#utility.yul\":2327:2328   */\n          dup2\n            /* \"#utility.yul\":2324:2337   */\n          gt\n            /* \"#utility.yul\":2321:2422   */\n          iszero\n          tag_75\n          jumpi\n            /* \"#utility.yul\":2410:2411   */\n          0x00\n            /* \"#utility.yul\":2401:2407   */\n          dup5\n            /* \"#utility.yul\":2396:2399   */\n          dup5\n            /* \"#utility.yul\":2392:2408   */\n          add\n            /* \"#utility.yul\":2385:2412   */\n          mstore\n            /* \"#utility.yul\":2321:2422   */\n        tag_75:\n            /* \"#utility.yul\":2170:2428   */\n          pop\n            /* \"#utility.yul\":2121:2428   */\n          pop\n          pop\n          pop\n          jump\t// out\n            /* \"#utility.yul\":2434:2855   */\n        tag_38:\n            /* \"#utility.yul\":2523:2528   */\n          0x00\n            /* \"#utility.yul\":2548:2614   */\n          tag_77\n            /* \"#utility.yul\":2564:2613   */\n          tag_78\n            /* \"#utility.yul\":2606:2612   */\n          dup5\n            /* \"#utility.yul\":2564:2613   */\n          tag_36\n          jump\t// in\n        tag_78:\n            /* \"#utility.yul\":2548:2614   */\n          tag_35\n          jump\t// in\n        tag_77:\n            /* \"#utility.yul\":2539:2614   */\n          swap1\n          pop\n            /* \"#utility.yul\":2637:2643   */\n          dup3\n            /* \"#utility.yul\":2630:2635   */\n          dup2\n            /* \"#utility.yul\":2623:2644   */\n          mstore\n            /* \"#utility.yul\":2675:2679   */\n          0x20\n            /* \"#utility.yul\":2668:2673   */\n          dup2\n            /* \"#utility.yul\":2664:2680   */\n          add\n            /* \"#utility.yul\":2713:2716   */\n          dup5\n            /* \"#utility.yul\":2704:2710   */\n          dup5\n            /* \"#utility.yul\":2699:2702   */\n          dup5\n            /* \"#utility.yul\":2695:2711   */\n          add\n            /* \"#utility.yul\":2692:2717   */\n          gt\n            /* \"#utility.yul\":2689:2801   */\n          iszero\n          tag_79\n          jumpi\n            /* \"#utility.yul\":2720:2799   */\n          tag_80\n          tag_31\n          jump\t// in\n        tag_80:\n            /* \"#utility.yul\":2689:2801   */\n        tag_79:\n            /* \"#utility.yul\":2810:2849   */\n          tag_81\n            /* \"#utility.yul\":2842:2848   */\n          dup5\n            /* \"#utility.yul\":2837:2840   */\n          dup3\n            /* \"#utility.yul\":2832:2835   */\n          dup6\n            /* \"#utility.yul\":2810:2849   */\n          tag_37\n          jump\t// in\n        tag_81:\n            /* \"#utility.yul\":2529:2855   */\n          pop\n            /* \"#utility.yul\":2434:2855   */\n          swap4\n          swap3\n          pop\n          pop\n          pop\n          jump\t// out\n            /* \"#utility.yul\":2875:3230   */\n        tag_39:\n            /* \"#utility.yul\":2942:2947   */\n          0x00\n            /* \"#utility.yul\":2991:2994   */\n          dup3\n            /* \"#utility.yul\":2984:2988   */\n          0x1f\n            /* \"#utility.yul\":2976:2982   */\n          dup4\n            /* \"#utility.yul\":2972:2989   */\n          add\n            /* \"#utility.yul\":2968:2995   */\n          slt\n            /* \"#utility.yul\":2958:3080   */\n          tag_83\n          jumpi\n            /* \"#utility.yul\":2999:3078   */\n          tag_84\n          tag_30\n          jump\t// in\n        tag_84:\n            /* \"#utility.yul\":2958:3080   */\n        tag_83:\n            /* \"#utility.yul\":3109:3115   */\n          dup2\n            /* \"#utility.yul\":3103:3116   */\n          mload\n            /* \"#utility.yul\":3134:3224   */\n          tag_85\n            /* \"#utility.yul\":3220:3223   */\n          dup5\n            /* \"#utility.yul\":3212:3218   */\n          dup3\n            /* \"#utility.yul\":3205:3209   */\n          0x20\n            /* \"#utility.yul\":3197:3203   */\n          dup7\n            /* \"#utility.yul\":3193:3210   */\n          add\n            /* \"#utility.yul\":3134:3224   */\n          tag_38\n          jump\t// in\n        tag_85:\n            /* \"#utility.yul\":3125:3224   */\n          swap2\n          pop\n            /* \"#utility.yul\":2948:3230   */\n          pop\n            /* \"#utility.yul\":2875:3230   */\n          swap3\n          swap2\n          pop\n          pop\n          jump\t// out\n            /* \"#utility.yul\":3236:3313   */\n        tag_40:\n            /* \"#utility.yul\":3273:3280   */\n          0x00\n            /* \"#utility.yul\":3302:3307   */\n          dup2\n            /* \"#utility.yul\":3291:3307   */\n          swap1\n          pop\n            /* \"#utility.yul\":3236:3313   */\n          swap2\n          swap1\n          pop\n          jump\t// out\n            /* \"#utility.yul\":3319:3441   */\n        tag_41:\n            /* \"#utility.yul\":3392:3416   */\n          tag_88\n            /* \"#utility.yul\":3410:3415   */\n          dup2\n            /* \"#utility.yul\":3392:3416   */\n          tag_40\n          jump\t// in\n        tag_88:\n            /* \"#utility.yul\":3385:3390   */\n          dup2\n            /* \"#utility.yul\":3382:3417   */\n          eq\n            /* \"#utility.yul\":3372:3435   */\n          tag_89\n          jumpi\n            /* \"#utility.yul\":3431:3432   */\n          0x00\n            /* \"#utility.yul\":3428:3429   */\n          dup1\n            /* \"#utility.yul\":3421:3433   */\n          revert\n            /* \"#utility.yul\":3372:3435   */\n        tag_89:\n            /* \"#utility.yul\":3319:3441   */\n          pop\n          jump\t// out\n            /* \"#utility.yul\":3447:3590   */\n        tag_42:\n            /* \"#utility.yul\":3504:3509   */\n          0x00\n            /* \"#utility.yul\":3535:3541   */\n          dup2\n            /* \"#utility.yul\":3529:3542   */\n          mload\n            /* \"#utility.yul\":3520:3542   */\n          swap1\n          pop\n            /* \"#utility.yul\":3551:3584   */\n          tag_91\n            /* \"#utility.yul\":3578:3583   */\n          dup2\n            /* \"#utility.yul\":3551:3584   */\n          tag_41\n          jump\t// in\n        tag_91:\n            /* \"#utility.yul\":3447:3590   */\n          swap3\n          swap2\n          pop\n          pop\n          jump\t// out\n            /* \"#utility.yul\":3596:5076   */\n        tag_2:\n            /* \"#utility.yul\":3731:3737   */\n          0x00\n            /* \"#utility.yul\":3739:3745   */\n          dup1\n            /* \"#utility.yul\":3747:3753   */\n          0x00\n            /* \"#utility.yul\":3755:3761   */\n          dup1\n            /* \"#utility.yul\":3763:3769   */\n          0x00\n            /* \"#utility.yul\":3771:3777   */\n          dup1\n            /* \"#utility.yul\":3820:3823   */\n          0xc0\n            /* \"#utility.yul\":3808:3817   */\n          dup8\n            /* \"#utility.yul\":3799:3806   */\n          dup10\n            /* \"#utility.yul\":3795:3818   */\n          sub\n            /* \"#utility.yul\":3791:3824   */\n          slt\n            /* \"#utility.yul\":3788:3908   */\n          iszero\n          tag_93\n          jumpi\n            /* \"#utility.yul\":3827:3906   */\n          tag_94\n          tag_24\n          jump\t// in\n        tag_94:\n            /* \"#utility.yul\":3788:3908   */\n        tag_93:\n            /* \"#utility.yul\":3947:3948   */\n          0x00\n            /* \"#utility.yul\":3972:4036   */\n          tag_95\n            /* \"#utility.yul\":4028:4035   */\n          dup10\n            /* \"#utility.yul\":4019:4025   */\n          dup3\n            /* \"#utility.yul\":4008:4017   */\n          dup11\n            /* \"#utility.yul\":4004:4026   */\n          add\n            /* \"#utility.yul\":3972:4036   */\n          tag_29\n          jump\t// in\n        tag_95:\n            /* \"#utility.yul\":3962:4036   */\n          swap7\n          pop\n            /* \"#utility.yul\":3918:4046   */\n          pop\n            /* \"#utility.yul\":4085:4087   */\n          0x20\n            /* \"#utility.yul\":4111:4175   */\n          tag_96\n            /* \"#utility.yul\":4167:4174   */\n          dup10\n            /* \"#utility.yul\":4158:4164   */\n          dup3\n            /* \"#utility.yul\":4147:4156   */\n          dup11\n            /* \"#utility.yul\":4143:4165   */\n          add\n            /* \"#utility.yul\":4111:4175   */\n          tag_29\n          jump\t// in\n        tag_96:\n            /* \"#utility.yul\":4101:4175   */\n          swap6\n          pop\n            /* \"#utility.yul\":4056:4185   */\n          pop\n            /* \"#utility.yul\":4245:4247   */\n          0x40\n            /* \"#utility.yul\":4234:4243   */\n          dup8\n            /* \"#utility.yul\":4230:4248   */\n          add\n            /* \"#utility.yul\":4224:4249   */\n          mload\n            /* \"#utility.yul\":4276:4294   */\n          0xffffffffffffffff\n            /* \"#utility.yul\":4268:4274   */\n          dup2\n            /* \"#utility.yul\":4265:4295   */\n          gt\n            /* \"#utility.yul\":4262:4379   */\n          iszero\n          tag_97\n          jumpi\n            /* \"#utility.yul\":4298:4377   */\n          tag_98\n          tag_25\n          jump\t// in\n        tag_98:\n            /* \"#utility.yul\":4262:4379   */\n        tag_97:\n            /* \"#utility.yul\":4403:4477   */\n          tag_99\n            /* \"#utility.yul\":4469:4476   */\n          dup10\n            /* \"#utility.yul\":4460:4466   */\n          dup3\n            /* \"#utility.yul\":4449:4458   */\n          dup11\n            /* \"#utility.yul\":4445:4467   */\n          add\n            /* \"#utility.yul\":4403:4477   */\n          tag_39\n          jump\t// in\n        tag_99:\n            /* \"#utility.yul\":4393:4477   */\n          swap5\n          pop\n            /* \"#utility.yul\":4195:4487   */\n          pop\n            /* \"#utility.yul\":4547:4549   */\n          0x60\n            /* \"#utility.yul\":4536:4545   */\n          dup8\n            /* \"#utility.yul\":4532:4550   */\n          add\n            /* \"#utility.yul\":4526:4551   */\n          mload\n            /* \"#utility.yul\":4578:4596   */\n          0xffffffffffffffff\n            /* \"#utility.yul\":4570:4576   */\n          dup2\n            /* \"#utility.yul\":4567:4597   */\n          gt\n            /* \"#utility.yul\":4564:4681   */\n          iszero\n          tag_100\n          jumpi\n            /* \"#utility.yul\":4600:4679   */\n          tag_101\n          tag_25\n          jump\t// in\n        tag_101:\n            /* \"#utility.yul\":4564:4681   */\n        tag_100:\n            /* \"#utility.yul\":4705:4779   */\n          tag_102\n            /* \"#utility.yul\":4771:4778   */\n          dup10\n            /* \"#utility.yul\":4762:4768   */\n          dup3\n            /* \"#utility.yul\":4751:4760   */\n          dup11\n            /* \"#utility.yul\":4747:4769   */\n          add\n            /* \"#utility.yul\":4705:4779   */\n          tag_39\n          jump\t// in\n        tag_102:\n            /* \"#utility.yul\":4695:4779   */\n          swap4\n          pop\n            /* \"#utility.yul\":4497:4789   */\n          pop\n            /* \"#utility.yul\":4828:4831   */\n          0x80\n            /* \"#utility.yul\":4855:4919   */\n          tag_103\n            /* \"#utility.yul\":4911:4918   */\n          dup10\n            /* \"#utility.yul\":4902:4908   */\n          dup3\n            /* \"#utility.yul\":4891:4900   */\n          dup11\n            /* \"#utility.yul\":4887:4909   */\n          add\n            /* \"#utility.yul\":4855:4919   */\n          tag_29\n          jump\t// in\n        tag_103:\n            /* \"#utility.yul\":4845:4919   */\n          swap3\n          pop\n            /* \"#utility.yul\":4799:4929   */\n          pop\n            /* \"#utility.yul\":4968:4971   */\n          0xa0\n            /* \"#utility.yul\":4995:5059   */\n          tag_104\n            /* \"#utility.yul\":5051:5058   */\n          dup10\n            /* \"#utility.yul\":5042:5048   */\n          dup3\n            /* \"#utility.yul\":5031:5040   */\n          dup11\n            /* \"#utility.yul\":5027:5049   */\n          add\n            /* \"#utility.yul\":4995:5059   */\n          tag_42\n          jump\t// in\n        tag_104:\n            /* \"#utility.yul\":4985:5059   */\n          swap2\n          pop\n            /* \"#utility.yul\":4939:5069   */\n          pop\n            /* \"#utility.yul\":3596:5076   */\n          swap3\n          swap6\n          pop\n          swap3\n          swap6\n          pop\n          swap3\n          swap6\n          jump\t// out\n            /* \"#utility.yul\":5082:5262   */\n        tag_10:\n            /* \"#utility.yul\":5130:5207   */\n          0x4e487b7100000000000000000000000000000000000000000000000000000000\n            /* \"#utility.yul\":5127:5128   */\n          0x00\n            /* \"#utility.yul\":5120:5208   */\n          mstore\n            /* \"#utility.yul\":5227:5231   */\n          0x21\n            /* \"#utility.yul\":5224:5225   */\n          0x04\n            /* \"#utility.yul\":5217:5232   */\n          mstore\n            /* \"#utility.yul\":5251:5255   */\n          0x24\n            /* \"#utility.yul\":5248:5249   */\n          0x00\n            /* \"#utility.yul\":5241:5256   */\n          revert\n            /* \"#utility.yul\":5268:5448   */\n        tag_43:\n            /* \"#utility.yul\":5316:5393   */\n          0x4e487b7100000000000000000000000000000000000000000000000000000000\n            /* \"#utility.yul\":5313:5314   */\n          0x00\n            /* \"#utility.yul\":5306:5394   */\n          mstore\n            /* \"#utility.yul\":5413:5417   */\n          0x22\n            /* \"#utility.yul\":5410:5411   */\n          0x04\n            /* \"#utility.yul\":5403:5418   */\n          mstore\n            /* \"#utility.yul\":5437:5441   */\n          0x24\n            /* \"#utility.yul\":5434:5435   */\n          0x00\n            /* \"#utility.yul\":5427:5442   */\n          revert\n            /* \"#utility.yul\":5454:5774   */\n        tag_13:\n            /* \"#utility.yul\":5498:5504   */\n          0x00\n            /* \"#utility.yul\":5535:5536   */\n          0x02\n            /* \"#utility.yul\":5529:5533   */\n          dup3\n            /* \"#utility.yul\":5525:5537   */\n          div\n            /* \"#utility.yul\":5515:5537   */\n          swap1\n          pop\n            /* \"#utility.yul\":5582:5583   */\n          0x01\n            /* \"#utility.yul\":5576:5580   */\n          dup3\n            /* \"#utility.yul\":5572:5584   */\n          and\n            /* \"#utility.yul\":5603:5621   */\n          dup1\n            /* \"#utility.yul\":5593:5674   */\n          tag_108\n          jumpi\n            /* \"#utility.yul\":5659:5663   */\n          0x7f\n            /* \"#utility.yul\":5651:5657   */\n          dup3\n            /* \"#utility.yul\":5647:5664   */\n          and\n            /* \"#utility.yul\":5637:5664   */\n          swap2\n          pop\n            /* \"#utility.yul\":5593:5674   */\n        tag_108:\n            /* \"#utility.yul\":5721:5723   */\n          0x20\n            /* \"#utility.yul\":5713:5719   */\n          dup3\n            /* \"#utility.yul\":5710:5724   */\n          lt\n            /* \"#utility.yul\":5690:5708   */\n          dup2\n            /* \"#utility.yul\":5687:5725   */\n          eq\n            /* \"#utility.yul\":5684:5768   */\n          iszero\n          tag_109\n          jumpi\n            /* \"#utility.yul\":5740:5758   */\n          tag_110\n          tag_43\n          jump\t// in\n        tag_110:\n            /* \"#utility.yul\":5684:5768   */\n        tag_109:\n            /* \"#utility.yul\":5505:5774   */\n          pop\n            /* \"#utility.yul\":5454:5774   */\n          swap2\n          swap1\n          pop\n          jump\t// out\n            /* \"Contracts\":10759:12152  contract AccountabilityContract {... */\n        tag_11:\n          dataSize(sub_0)\n          dup1\n          dataOffset(sub_0)\n          0x00\n          codecopy\n          0x00\n          return\n        stop\n\n        sub_0: assembly {\n                /* \"Contracts\":10759:12152  contract AccountabilityContract {... */\n              mstore(0x40, 0x80)\n              jumpi(tag_1, lt(calldatasize, 0x04))\n              shr(0xe0, calldataload(0x00))\n              dup1\n              0x3b1bebd1\n              gt\n              tag_11\n              jumpi\n              dup1\n              0x3b1bebd1\n              eq\n              tag_6\n              jumpi\n              dup1\n              0x4177fe51\n              eq\n              tag_7\n              jumpi\n              dup1\n              0x7284e416\n              eq\n              tag_8\n              jumpi\n              dup1\n              0xaa8c217c\n              eq\n              tag_9\n              jumpi\n              dup1\n              0xb4fedc11\n              eq\n              tag_10\n              jumpi\n              jump(tag_1)\n            tag_11:\n              dup1\n              0x02d05d3f\n              eq\n              tag_2\n              jumpi\n              dup1\n              0x06fdde03\n              eq\n              tag_3\n              jumpi\n              dup1\n              0x200d2ed2\n              eq\n              tag_4\n              jumpi\n              dup1\n              0x2d398fa6\n              eq\n              tag_5\n              jumpi\n            tag_1:\n              0x00\n              dup1\n              revert\n                /* \"Contracts\":10839:10861  address public creator */\n            tag_2:\n              callvalue\n              dup1\n              iszero\n              tag_12\n              jumpi\n              0x00\n              dup1\n              revert\n            tag_12:\n              pop\n              tag_13\n              tag_14\n              jump\t// in\n            tag_13:\n              mload(0x40)\n              tag_15\n              swap2\n              swap1\n              tag_16\n              jump\t// in\n            tag_15:\n              mload(0x40)\n              dup1\n              swap2\n              sub\n              swap1\n              return\n                /* \"Contracts\":10895:10913  string public name */\n            tag_3:\n              callvalue\n              dup1\n              iszero\n              tag_17\n              jumpi\n              0x00\n              dup1\n              revert\n            tag_17:\n              pop\n              tag_18\n              tag_19\n              jump\t// in\n            tag_18:\n              mload(0x40)\n              tag_20\n              swap2\n              swap1\n              tag_21\n              jump\t// in\n            tag_20:\n              mload(0x40)\n              dup1\n              swap2\n              sub\n              swap1\n              return\n                /* \"Contracts\":11011:11031  Status public status */\n            tag_4:\n              callvalue\n              dup1\n              iszero\n              tag_22\n              jumpi\n              0x00\n              dup1\n              revert\n            tag_22:\n              pop\n              tag_23\n              tag_24\n              jump\t// in\n            tag_23:\n              mload(0x40)\n              tag_25\n              swap2\n              swap1\n              tag_26\n              jump\t// in\n            tag_25:\n              mload(0x40)\n              dup1\n              swap2\n              sub\n              swap1\n              return\n                /* \"Contracts\":11539:11858  function failContract() public payable restricted returns (AccountabilityContract) {... */\n            tag_5:\n              tag_27\n              tag_28\n              jump\t// in\n            tag_27:\n              mload(0x40)\n              tag_29\n              swap2\n              swap1\n              tag_30\n              jump\t// in\n            tag_29:\n              mload(0x40)\n              dup1\n              swap2\n              sub\n              swap1\n              return\n                /* \"Contracts\":10867:10889  address public referee */\n            tag_6:\n              callvalue\n              dup1\n              iszero\n              tag_31\n              jumpi\n              0x00\n              dup1\n              revert\n            tag_31:\n              pop\n              tag_32\n              tag_33\n              jump\t// in\n            tag_32:\n              mload(0x40)\n              tag_34\n              swap2\n              swap1\n              tag_16\n              jump\t// in\n            tag_34:\n              mload(0x40)\n              dup1\n              swap2\n              sub\n              swap1\n              return\n                /* \"Contracts\":10950:10981  address public failureRecipient */\n            tag_7:\n              callvalue\n              dup1\n              iszero\n              tag_35\n              jumpi\n              0x00\n              dup1\n              revert\n            tag_35:\n              pop\n              tag_36\n              tag_37\n              jump\t// in\n            tag_36:\n              mload(0x40)\n              tag_38\n              swap2\n              swap1\n              tag_16\n              jump\t// in\n            tag_38:\n              mload(0x40)\n              dup1\n              swap2\n              sub\n              swap1\n              return\n                /* \"Contracts\":10919:10944  string public description */\n            tag_8:\n              callvalue\n              dup1\n              iszero\n              tag_39\n              jumpi\n              0x00\n              dup1\n              revert\n            tag_39:\n              pop\n              tag_40\n              tag_41\n              jump\t// in\n            tag_40:\n              mload(0x40)\n              tag_42\n              swap2\n              swap1\n              tag_21\n              jump\t// in\n            tag_42:\n              mload(0x40)\n              dup1\n              swap2\n              sub\n              swap1\n              return\n                /* \"Contracts\":10987:11005  uint public amount */\n            tag_9:\n              callvalue\n              dup1\n              iszero\n              tag_43\n              jumpi\n              0x00\n              dup1\n              revert\n            tag_43:\n              pop\n              tag_44\n              tag_45\n              jump\t// in\n            tag_44:\n              mload(0x40)\n              tag_46\n              swap2\n              swap1\n              tag_47\n              jump\t// in\n            tag_46:\n              mload(0x40)\n              dup1\n              swap2\n              sub\n              swap1\n              return\n                /* \"Contracts\":11865:12150  function completeContract() public payable restricted returns (AccountabilityContract) {... */\n            tag_10:\n              tag_48\n              tag_49\n              jump\t// in\n            tag_48:\n              mload(0x40)\n              tag_50\n              swap2\n              swap1\n              tag_30\n              jump\t// in\n            tag_50:\n              mload(0x40)\n              dup1\n              swap2\n              sub\n              swap1\n              return\n                /* \"Contracts\":10839:10861  address public creator */\n            tag_14:\n              0x00\n              dup1\n              sload\n              swap1\n              0x0100\n              exp\n              swap1\n              div\n              0xffffffffffffffffffffffffffffffffffffffff\n              and\n              dup2\n              jump\t// out\n                /* \"Contracts\":10895:10913  string public name */\n            tag_19:\n              0x02\n              dup1\n              sload\n              tag_51\n              swap1\n              tag_52\n              jump\t// in\n            tag_51:\n              dup1\n              0x1f\n              add\n              0x20\n              dup1\n              swap2\n              div\n              mul\n              0x20\n              add\n              mload(0x40)\n              swap1\n              dup2\n              add\n              0x40\n              mstore\n              dup1\n              swap3\n              swap2\n              swap1\n              dup2\n              dup2\n              mstore\n              0x20\n              add\n              dup3\n              dup1\n              sload\n              tag_53\n              swap1\n              tag_52\n              jump\t// in\n            tag_53:\n              dup1\n              iszero\n              tag_54\n              jumpi\n              dup1\n              0x1f\n              lt\n              tag_55\n              jumpi\n              0x0100\n              dup1\n              dup4\n              sload\n              div\n              mul\n              dup4\n              mstore\n              swap2\n              0x20\n              add\n              swap2\n              jump(tag_54)\n            tag_55:\n              dup3\n              add\n              swap2\n              swap1\n              0x00\n              mstore\n              keccak256(0x00, 0x20)\n              swap1\n            tag_56:\n              dup2\n              sload\n              dup2\n              mstore\n              swap1\n              0x01\n              add\n              swap1\n              0x20\n              add\n              dup1\n              dup4\n              gt\n              tag_56\n              jumpi\n              dup3\n              swap1\n              sub\n              0x1f\n              and\n              dup3\n              add\n              swap2\n            tag_54:\n              pop\n              pop\n              pop\n              pop\n              pop\n              dup2\n              jump\t// out\n                /* \"Contracts\":11011:11031  Status public status */\n            tag_24:\n              0x06\n              0x00\n              swap1\n              sload\n              swap1\n              0x0100\n              exp\n              swap1\n              div\n              0xff\n              and\n              dup2\n              jump\t// out\n                /* \"Contracts\":11539:11858  function failContract() public payable restricted returns (AccountabilityContract) {... */\n            tag_28:\n                /* \"Contracts\":11598:11620  AccountabilityContract */\n              0x00\n                /* \"Contracts\":11463:11474  Status.OPEN */\n              dup1\n                /* \"Contracts\":11453:11474  status == Status.OPEN */\n              0x02\n              dup2\n              gt\n              iszero\n              tag_58\n              jumpi\n              tag_59\n              tag_60\n              jump\t// in\n            tag_59:\n            tag_58:\n                /* \"Contracts\":11453:11459  status */\n              0x06\n              0x00\n              swap1\n              sload\n              swap1\n              0x0100\n              exp\n              swap1\n              div\n              0xff\n              and\n                /* \"Contracts\":11453:11474  status == Status.OPEN */\n              0x02\n              dup2\n              gt\n              iszero\n              tag_61\n              jumpi\n              tag_62\n              tag_60\n              jump\t// in\n            tag_62:\n            tag_61:\n              eq\n                /* \"Contracts\":11445:11515  require(status == Status.OPEN, \"Contract status is not equal to open\") */\n              tag_63\n              jumpi\n              mload(0x40)\n              0x08c379a000000000000000000000000000000000000000000000000000000000\n              dup2\n              mstore\n              0x04\n              add\n              tag_64\n              swap1\n              tag_65\n              jump\t// in\n            tag_64:\n              mload(0x40)\n              dup1\n              swap2\n              sub\n              swap1\n              revert\n            tag_63:\n                /* \"Contracts\":11653:11660  referee */\n              0x01\n              0x00\n              swap1\n              sload\n              swap1\n              0x0100\n              exp\n              swap1\n              div\n              0xffffffffffffffffffffffffffffffffffffffff\n              and\n                /* \"Contracts\":11640:11660  tx.origin == referee */\n              0xffffffffffffffffffffffffffffffffffffffff\n              and\n                /* \"Contracts\":11640:11649  tx.origin */\n              origin\n                /* \"Contracts\":11640:11660  tx.origin == referee */\n              0xffffffffffffffffffffffffffffffffffffffff\n              and\n              eq\n                /* \"Contracts\":11640:11684  tx.origin == referee || tx.origin == creator */\n              dup1\n              tag_67\n              jumpi\n              pop\n                /* \"Contracts\":11677:11684  creator */\n              0x00\n              dup1\n              sload\n              swap1\n              0x0100\n              exp\n              swap1\n              div\n              0xffffffffffffffffffffffffffffffffffffffff\n              and\n                /* \"Contracts\":11664:11684  tx.origin == creator */\n              0xffffffffffffffffffffffffffffffffffffffff\n              and\n                /* \"Contracts\":11664:11673  tx.origin */\n              origin\n                /* \"Contracts\":11664:11684  tx.origin == creator */\n              0xffffffffffffffffffffffffffffffffffffffff\n              and\n              eq\n                /* \"Contracts\":11640:11684  tx.origin == referee || tx.origin == creator */\n            tag_67:\n                /* \"Contracts\":11632:11730  require(tx.origin == referee || tx.origin == creator, \"Only referee or creator can fail contract\") */\n              tag_68\n              jumpi\n              mload(0x40)\n              0x08c379a000000000000000000000000000000000000000000000000000000000\n              dup2\n              mstore\n              0x04\n              add\n              tag_69\n              swap1\n              tag_70\n              jump\t// in\n            tag_69:\n              mload(0x40)\n              dup1\n              swap2\n              sub\n              swap1\n              revert\n            tag_68:\n                /* \"Contracts\":11748:11764  failureRecipient */\n              0x04\n              0x00\n              swap1\n              sload\n              swap1\n              0x0100\n              exp\n              swap1\n              div\n              0xffffffffffffffffffffffffffffffffffffffff\n              and\n                /* \"Contracts\":11740:11774  payable(failureRecipient).transfer */\n              0xffffffffffffffffffffffffffffffffffffffff\n              and\n                /* \"Contracts\":11740:11797  payable(failureRecipient).transfer(address(this).balance) */\n              0x08fc\n                /* \"Contracts\":11775:11796  address(this).balance */\n              selfbalance\n                /* \"Contracts\":11740:11797  payable(failureRecipient).transfer(address(this).balance) */\n              swap1\n              dup2\n              iszero\n              mul\n              swap1\n              mload(0x40)\n              0x00\n              mload(0x40)\n              dup1\n              dup4\n              sub\n              dup2\n              dup6\n              dup9\n              dup9\n              call\n              swap4\n              pop\n              pop\n              pop\n              pop\n              iszero\n              dup1\n              iszero\n              tag_72\n              jumpi\n              returndatasize\n              0x00\n              dup1\n              returndatacopy\n              revert(0x00, returndatasize)\n            tag_72:\n              pop\n                /* \"Contracts\":11816:11830  Status.FAILURE */\n              0x02\n                /* \"Contracts\":11807:11813  status */\n              0x06\n              0x00\n                /* \"Contracts\":11807:11830  status = Status.FAILURE */\n              0x0100\n              exp\n              dup2\n              sload\n              dup2\n              0xff\n              mul\n              not\n              and\n              swap1\n              dup4\n              0x02\n              dup2\n              gt\n              iszero\n              tag_73\n              jumpi\n              tag_74\n              tag_60\n              jump\t// in\n            tag_74:\n            tag_73:\n              mul\n              or\n              swap1\n              sstore\n              pop\n                /* \"Contracts\":11847:11851  this */\n              address\n                /* \"Contracts\":11840:11851  return this */\n              swap1\n              pop\n                /* \"Contracts\":11539:11858  function failContract() public payable restricted returns (AccountabilityContract) {... */\n              swap1\n              jump\t// out\n                /* \"Contracts\":10867:10889  address public referee */\n            tag_33:\n              0x01\n              0x00\n              swap1\n              sload\n              swap1\n              0x0100\n              exp\n              swap1\n              div\n              0xffffffffffffffffffffffffffffffffffffffff\n              and\n              dup2\n              jump\t// out\n                /* \"Contracts\":10950:10981  address public failureRecipient */\n            tag_37:\n              0x04\n              0x00\n              swap1\n              sload\n              swap1\n              0x0100\n              exp\n              swap1\n              div\n              0xffffffffffffffffffffffffffffffffffffffff\n              and\n              dup2\n              jump\t// out\n                /* \"Contracts\":10919:10944  string public description */\n            tag_41:\n              0x03\n              dup1\n              sload\n              tag_75\n              swap1\n              tag_52\n              jump\t// in\n            tag_75:\n              dup1\n              0x1f\n              add\n              0x20\n              dup1\n              swap2\n              div\n              mul\n              0x20\n              add\n              mload(0x40)\n              swap1\n              dup2\n              add\n              0x40\n              mstore\n              dup1\n              swap3\n              swap2\n              swap1\n              dup2\n              dup2\n              mstore\n              0x20\n              add\n              dup3\n              dup1\n              sload\n              tag_76\n              swap1\n              tag_52\n              jump\t// in\n            tag_76:\n              dup1\n              iszero\n              tag_77\n              jumpi\n              dup1\n              0x1f\n              lt\n              tag_78\n              jumpi\n              0x0100\n              dup1\n              dup4\n              sload\n              div\n              mul\n              dup4\n              mstore\n              swap2\n              0x20\n              add\n              swap2\n              jump(tag_77)\n            tag_78:\n              dup3\n              add\n              swap2\n              swap1\n              0x00\n              mstore\n              keccak256(0x00, 0x20)\n              swap1\n            tag_79:\n              dup2\n              sload\n              dup2\n              mstore\n              swap1\n              0x01\n              add\n              swap1\n              0x20\n              add\n              dup1\n              dup4\n              gt\n              tag_79\n              jumpi\n              dup3\n              swap1\n              sub\n              0x1f\n              and\n              dup3\n              add\n              swap2\n            tag_77:\n              pop\n              pop\n              pop\n              pop\n              pop\n              dup2\n              jump\t// out\n                /* \"Contracts\":10987:11005  uint public amount */\n            tag_45:\n              sload(0x05)\n              dup2\n              jump\t// out\n                /* \"Contracts\":11865:12150  function completeContract() public payable restricted returns (AccountabilityContract) {... */\n            tag_49:\n                /* \"Contracts\":11928:11950  AccountabilityContract */\n              0x00\n                /* \"Contracts\":11463:11474  Status.OPEN */\n              dup1\n                /* \"Contracts\":11453:11474  status == Status.OPEN */\n              0x02\n              dup2\n              gt\n              iszero\n              tag_81\n              jumpi\n              tag_82\n              tag_60\n              jump\t// in\n            tag_82:\n            tag_81:\n                /* \"Contracts\":11453:11459  status */\n              0x06\n              0x00\n              swap1\n              sload\n              swap1\n              0x0100\n              exp\n              swap1\n              div\n              0xff\n              and\n                /* \"Contracts\":11453:11474  status == Status.OPEN */\n              0x02\n              dup2\n              gt\n              iszero\n              tag_83\n              jumpi\n              tag_84\n              tag_60\n              jump\t// in\n            tag_84:\n            tag_83:\n              eq\n                /* \"Contracts\":11445:11515  require(status == Status.OPEN, \"Contract status is not equal to open\") */\n              tag_85\n              jumpi\n              mload(0x40)\n              0x08c379a000000000000000000000000000000000000000000000000000000000\n              dup2\n              mstore\n              0x04\n              add\n              tag_86\n              swap1\n              tag_65\n              jump\t// in\n            tag_86:\n              mload(0x40)\n              dup1\n              swap2\n              sub\n              swap1\n              revert\n            tag_85:\n                /* \"Contracts\":11983:11990  referee */\n              0x01\n              0x00\n              swap1\n              sload\n              swap1\n              0x0100\n              exp\n              swap1\n              div\n              0xffffffffffffffffffffffffffffffffffffffff\n              and\n                /* \"Contracts\":11970:11990  tx.origin == referee */\n              0xffffffffffffffffffffffffffffffffffffffff\n              and\n                /* \"Contracts\":11970:11979  tx.origin */\n              origin\n                /* \"Contracts\":11970:11990  tx.origin == referee */\n              0xffffffffffffffffffffffffffffffffffffffff\n              and\n              eq\n                /* \"Contracts\":11962:12031  require(tx.origin == referee, \"Only referee can complete a contract\") */\n              tag_88\n              jumpi\n              mload(0x40)\n              0x08c379a000000000000000000000000000000000000000000000000000000000\n              dup2\n              mstore\n              0x04\n              add\n              tag_89\n              swap1\n              tag_90\n              jump\t// in\n            tag_89:\n              mload(0x40)\n              dup1\n              swap2\n              sub\n              swap1\n              revert\n            tag_88:\n                /* \"Contracts\":12049:12056  creator */\n              0x00\n              dup1\n              sload\n              swap1\n              0x0100\n              exp\n              swap1\n              div\n              0xffffffffffffffffffffffffffffffffffffffff\n              and\n                /* \"Contracts\":12041:12066  payable(creator).transfer */\n              0xffffffffffffffffffffffffffffffffffffffff\n              and\n                /* \"Contracts\":12041:12089  payable(creator).transfer(address(this).balance) */\n              0x08fc\n                /* \"Contracts\":12067:12088  address(this).balance */\n              selfbalance\n                /* \"Contracts\":12041:12089  payable(creator).transfer(address(this).balance) */\n              swap1\n              dup2\n              iszero\n              mul\n              swap1\n              mload(0x40)\n              0x00\n              mload(0x40)\n              dup1\n              dup4\n              sub\n              dup2\n              dup6\n              dup9\n              dup9\n              call\n              swap4\n              pop\n              pop\n              pop\n              pop\n              iszero\n              dup1\n              iszero\n              tag_92\n              jumpi\n              returndatasize\n              0x00\n              dup1\n              returndatacopy\n              revert(0x00, returndatasize)\n            tag_92:\n              pop\n                /* \"Contracts\":12108:12122  Status.SUCCESS */\n              0x01\n                /* \"Contracts\":12099:12105  status */\n              0x06\n              0x00\n                /* \"Contracts\":12099:12122  status = Status.SUCCESS */\n              0x0100\n              exp\n              dup2\n              sload\n              dup2\n              0xff\n              mul\n              not\n              and\n              swap1\n              dup4\n              0x02\n              dup2\n              gt\n              iszero\n              tag_93\n              jumpi\n              tag_94\n              tag_60\n              jump\t// in\n            tag_94:\n            tag_93:\n              mul\n              or\n              swap1\n              sstore\n              pop\n                /* \"Contracts\":12139:12143  this */\n              address\n                /* \"Contracts\":12132:12143  return this */\n              swap1\n              pop\n                /* \"Contracts\":11865:12150  function completeContract() public payable restricted returns (AccountabilityContract) {... */\n              swap1\n              jump\t// out\n                /* \"#utility.yul\":7:133   */\n            tag_95:\n                /* \"#utility.yul\":44:51   */\n              0x00\n                /* \"#utility.yul\":84:126   */\n              0xffffffffffffffffffffffffffffffffffffffff\n                /* \"#utility.yul\":77:82   */\n              dup3\n                /* \"#utility.yul\":73:127   */\n              and\n                /* \"#utility.yul\":62:127   */\n              swap1\n              pop\n                /* \"#utility.yul\":7:133   */\n              swap2\n              swap1\n              pop\n              jump\t// out\n                /* \"#utility.yul\":139:235   */\n            tag_96:\n                /* \"#utility.yul\":176:183   */\n              0x00\n                /* \"#utility.yul\":205:229   */\n              tag_124\n                /* \"#utility.yul\":223:228   */\n              dup3\n                /* \"#utility.yul\":205:229   */\n              tag_95\n              jump\t// in\n            tag_124:\n                /* \"#utility.yul\":194:229   */\n              swap1\n              pop\n                /* \"#utility.yul\":139:235   */\n              swap2\n              swap1\n              pop\n              jump\t// out\n                /* \"#utility.yul\":241:359   */\n            tag_97:\n                /* \"#utility.yul\":328:352   */\n              tag_126\n                /* \"#utility.yul\":346:351   */\n              dup2\n                /* \"#utility.yul\":328:352   */\n              tag_96\n              jump\t// in\n            tag_126:\n                /* \"#utility.yul\":323:326   */\n              dup3\n                /* \"#utility.yul\":316:353   */\n              mstore\n                /* \"#utility.yul\":241:359   */\n              pop\n              pop\n              jump\t// out\n                /* \"#utility.yul\":365:587   */\n            tag_16:\n                /* \"#utility.yul\":458:462   */\n              0x00\n                /* \"#utility.yul\":496:498   */\n              0x20\n                /* \"#utility.yul\":485:494   */\n              dup3\n                /* \"#utility.yul\":481:499   */\n              add\n                /* \"#utility.yul\":473:499   */\n              swap1\n              pop\n                /* \"#utility.yul\":509:580   */\n              tag_128\n                /* \"#utility.yul\":577:578   */\n              0x00\n                /* \"#utility.yul\":566:575   */\n              dup4\n                /* \"#utility.yul\":562:579   */\n              add\n                /* \"#utility.yul\":553:559   */\n              dup5\n                /* \"#utility.yul\":509:580   */\n              tag_97\n              jump\t// in\n            tag_128:\n                /* \"#utility.yul\":365:587   */\n              swap3\n              swap2\n              pop\n              pop\n              jump\t// out\n                /* \"#utility.yul\":593:692   */\n            tag_98:\n                /* \"#utility.yul\":645:651   */\n              0x00\n                /* \"#utility.yul\":679:684   */\n              dup2\n                /* \"#utility.yul\":673:685   */\n              mload\n                /* \"#utility.yul\":663:685   */\n              swap1\n              pop\n                /* \"#utility.yul\":593:692   */\n              swap2\n              swap1\n              pop\n              jump\t// out\n                /* \"#utility.yul\":698:867   */\n            tag_99:\n                /* \"#utility.yul\":782:793   */\n              0x00\n                /* \"#utility.yul\":816:822   */\n              dup3\n                /* \"#utility.yul\":811:814   */\n              dup3\n                /* \"#utility.yul\":804:823   */\n              mstore\n                /* \"#utility.yul\":856:860   */\n              0x20\n                /* \"#utility.yul\":851:854   */\n              dup3\n                /* \"#utility.yul\":847:861   */\n              add\n                /* \"#utility.yul\":832:861   */\n              swap1\n              pop\n                /* \"#utility.yul\":698:867   */\n              swap3\n              swap2\n              pop\n              pop\n              jump\t// out\n                /* \"#utility.yul\":873:1180   */\n            tag_100:\n                /* \"#utility.yul\":941:942   */\n              0x00\n                /* \"#utility.yul\":951:1064   */\n            tag_132:\n                /* \"#utility.yul\":965:971   */\n              dup4\n                /* \"#utility.yul\":962:963   */\n              dup2\n                /* \"#utility.yul\":959:972   */\n              lt\n                /* \"#utility.yul\":951:1064   */\n              iszero\n              tag_134\n              jumpi\n                /* \"#utility.yul\":1050:1051   */\n              dup1\n                /* \"#utility.yul\":1045:1048   */\n              dup3\n                /* \"#utility.yul\":1041:1052   */\n              add\n                /* \"#utility.yul\":1035:1053   */\n              mload\n                /* \"#utility.yul\":1031:1032   */\n              dup2\n                /* \"#utility.yul\":1026:1029   */\n              dup5\n                /* \"#utility.yul\":1022:1033   */\n              add\n                /* \"#utility.yul\":1015:1054   */\n              mstore\n                /* \"#utility.yul\":987:989   */\n              0x20\n                /* \"#utility.yul\":984:985   */\n              dup2\n                /* \"#utility.yul\":980:990   */\n              add\n                /* \"#utility.yul\":975:990   */\n              swap1\n              pop\n                /* \"#utility.yul\":951:1064   */\n              jump(tag_132)\n            tag_134:\n                /* \"#utility.yul\":1082:1088   */\n              dup4\n                /* \"#utility.yul\":1079:1080   */\n              dup2\n                /* \"#utility.yul\":1076:1089   */\n              gt\n                /* \"#utility.yul\":1073:1174   */\n              iszero\n              tag_135\n              jumpi\n                /* \"#utility.yul\":1162:1163   */\n              0x00\n                /* \"#utility.yul\":1153:1159   */\n              dup5\n                /* \"#utility.yul\":1148:1151   */\n              dup5\n                /* \"#utility.yul\":1144:1160   */\n              add\n                /* \"#utility.yul\":1137:1164   */\n              mstore\n                /* \"#utility.yul\":1073:1174   */\n            tag_135:\n                /* \"#utility.yul\":922:1180   */\n              pop\n                /* \"#utility.yul\":873:1180   */\n              pop\n              pop\n              pop\n              jump\t// out\n                /* \"#utility.yul\":1186:1288   */\n            tag_101:\n                /* \"#utility.yul\":1227:1233   */\n              0x00\n                /* \"#utility.yul\":1278:1280   */\n              0x1f\n                /* \"#utility.yul\":1274:1281   */\n              not\n                /* \"#utility.yul\":1269:1271   */\n              0x1f\n                /* \"#utility.yul\":1262:1267   */\n              dup4\n                /* \"#utility.yul\":1258:1272   */\n              add\n                /* \"#utility.yul\":1254:1282   */\n              and\n                /* \"#utility.yul\":1244:1282   */\n              swap1\n              pop\n                /* \"#utility.yul\":1186:1288   */\n              swap2\n              swap1\n              pop\n              jump\t// out\n                /* \"#utility.yul\":1294:1658   */\n            tag_102:\n                /* \"#utility.yul\":1382:1385   */\n              0x00\n                /* \"#utility.yul\":1410:1449   */\n              tag_138\n                /* \"#utility.yul\":1443:1448   */\n              dup3\n                /* \"#utility.yul\":1410:1449   */\n              tag_98\n              jump\t// in\n            tag_138:\n                /* \"#utility.yul\":1465:1536   */\n              tag_139\n                /* \"#utility.yul\":1529:1535   */\n              dup2\n                /* \"#utility.yul\":1524:1527   */\n              dup6\n                /* \"#utility.yul\":1465:1536   */\n              tag_99\n              jump\t// in\n            tag_139:\n                /* \"#utility.yul\":1458:1536   */\n              swap4\n              pop\n                /* \"#utility.yul\":1545:1597   */\n              tag_140\n                /* \"#utility.yul\":1590:1596   */\n              dup2\n                /* \"#utility.yul\":1585:1588   */\n              dup6\n                /* \"#utility.yul\":1578:1582   */\n              0x20\n                /* \"#utility.yul\":1571:1576   */\n              dup7\n                /* \"#utility.yul\":1567:1583   */\n              add\n                /* \"#utility.yul\":1545:1597   */\n              tag_100\n              jump\t// in\n            tag_140:\n                /* \"#utility.yul\":1622:1651   */\n              tag_141\n                /* \"#utility.yul\":1644:1650   */\n              dup2\n                /* \"#utility.yul\":1622:1651   */\n              tag_101\n              jump\t// in\n            tag_141:\n                /* \"#utility.yul\":1617:1620   */\n              dup5\n                /* \"#utility.yul\":1613:1652   */\n              add\n                /* \"#utility.yul\":1606:1652   */\n              swap2\n              pop\n                /* \"#utility.yul\":1386:1658   */\n              pop\n                /* \"#utility.yul\":1294:1658   */\n              swap3\n              swap2\n              pop\n              pop\n              jump\t// out\n                /* \"#utility.yul\":1664:1977   */\n            tag_21:\n                /* \"#utility.yul\":1777:1781   */\n              0x00\n                /* \"#utility.yul\":1815:1817   */\n              0x20\n                /* \"#utility.yul\":1804:1813   */\n              dup3\n                /* \"#utility.yul\":1800:1818   */\n              add\n                /* \"#utility.yul\":1792:1818   */\n              swap1\n              pop\n                /* \"#utility.yul\":1864:1873   */\n              dup2\n                /* \"#utility.yul\":1858:1862   */\n              dup2\n                /* \"#utility.yul\":1854:1874   */\n              sub\n                /* \"#utility.yul\":1850:1851   */\n              0x00\n                /* \"#utility.yul\":1839:1848   */\n              dup4\n                /* \"#utility.yul\":1835:1852   */\n              add\n                /* \"#utility.yul\":1828:1875   */\n              mstore\n                /* \"#utility.yul\":1892:1970   */\n              tag_143\n                /* \"#utility.yul\":1965:1969   */\n              dup2\n                /* \"#utility.yul\":1956:1962   */\n              dup5\n                /* \"#utility.yul\":1892:1970   */\n              tag_102\n              jump\t// in\n            tag_143:\n                /* \"#utility.yul\":1884:1970   */\n              swap1\n              pop\n                /* \"#utility.yul\":1664:1977   */\n              swap3\n              swap2\n              pop\n              pop\n              jump\t// out\n                /* \"#utility.yul\":1983:2163   */\n            tag_60:\n                /* \"#utility.yul\":2031:2108   */\n              0x4e487b7100000000000000000000000000000000000000000000000000000000\n                /* \"#utility.yul\":2028:2029   */\n              0x00\n                /* \"#utility.yul\":2021:2109   */\n              mstore\n                /* \"#utility.yul\":2128:2132   */\n              0x21\n                /* \"#utility.yul\":2125:2126   */\n              0x04\n                /* \"#utility.yul\":2118:2133   */\n              mstore\n                /* \"#utility.yul\":2152:2156   */\n              0x24\n                /* \"#utility.yul\":2149:2150   */\n              0x00\n                /* \"#utility.yul\":2142:2157   */\n              revert\n                /* \"#utility.yul\":2169:2285   */\n            tag_103:\n                /* \"#utility.yul\":2253:2254   */\n              0x03\n                /* \"#utility.yul\":2246:2251   */\n              dup2\n                /* \"#utility.yul\":2243:2255   */\n              lt\n                /* \"#utility.yul\":2233:2279   */\n              tag_146\n              jumpi\n                /* \"#utility.yul\":2259:2277   */\n              tag_147\n              tag_60\n              jump\t// in\n            tag_147:\n                /* \"#utility.yul\":2233:2279   */\n            tag_146:\n                /* \"#utility.yul\":2169:2285   */\n              pop\n              jump\t// out\n                /* \"#utility.yul\":2291:2424   */\n            tag_104:\n                /* \"#utility.yul\":2339:2346   */\n              0x00\n                /* \"#utility.yul\":2368:2373   */\n              dup2\n                /* \"#utility.yul\":2357:2373   */\n              swap1\n              pop\n                /* \"#utility.yul\":2374:2418   */\n              tag_149\n                /* \"#utility.yul\":2412:2417   */\n              dup3\n                /* \"#utility.yul\":2374:2418   */\n              tag_103\n              jump\t// in\n            tag_149:\n                /* \"#utility.yul\":2291:2424   */\n              swap2\n              swap1\n              pop\n              jump\t// out\n                /* \"#utility.yul\":2430:2563   */\n            tag_105:\n                /* \"#utility.yul\":2489:2498   */\n              0x00\n                /* \"#utility.yul\":2522:2557   */\n              tag_151\n                /* \"#utility.yul\":2551:2556   */\n              dup3\n                /* \"#utility.yul\":2522:2557   */\n              tag_104\n              jump\t// in\n            tag_151:\n                /* \"#utility.yul\":2509:2557   */\n              swap1\n              pop\n                /* \"#utility.yul\":2430:2563   */\n              swap2\n              swap1\n              pop\n              jump\t// out\n                /* \"#utility.yul\":2569:2718   */\n            tag_106:\n                /* \"#utility.yul\":2665:2711   */\n              tag_153\n                /* \"#utility.yul\":2705:2710   */\n              dup2\n                /* \"#utility.yul\":2665:2711   */\n              tag_105\n              jump\t// in\n            tag_153:\n                /* \"#utility.yul\":2660:2663   */\n              dup3\n                /* \"#utility.yul\":2653:2712   */\n              mstore\n                /* \"#utility.yul\":2569:2718   */\n              pop\n              pop\n              jump\t// out\n                /* \"#utility.yul\":2724:2964   */\n            tag_26:\n                /* \"#utility.yul\":2826:2830   */\n              0x00\n                /* \"#utility.yul\":2864:2866   */\n              0x20\n                /* \"#utility.yul\":2853:2862   */\n              dup3\n                /* \"#utility.yul\":2849:2867   */\n              add\n                /* \"#utility.yul\":2841:2867   */\n              swap1\n              pop\n                /* \"#utility.yul\":2877:2957   */\n              tag_155\n                /* \"#utility.yul\":2954:2955   */\n              0x00\n                /* \"#utility.yul\":2943:2952   */\n              dup4\n                /* \"#utility.yul\":2939:2956   */\n              add\n                /* \"#utility.yul\":2930:2936   */\n              dup5\n                /* \"#utility.yul\":2877:2957   */\n              tag_106\n              jump\t// in\n            tag_155:\n                /* \"#utility.yul\":2724:2964   */\n              swap3\n              swap2\n              pop\n              pop\n              jump\t// out\n                /* \"#utility.yul\":2970:3030   */\n            tag_107:\n                /* \"#utility.yul\":2998:3001   */\n              0x00\n                /* \"#utility.yul\":3019:3024   */\n              dup2\n                /* \"#utility.yul\":3012:3024   */\n              swap1\n              pop\n                /* \"#utility.yul\":2970:3030   */\n              swap2\n              swap1\n              pop\n              jump\t// out\n                /* \"#utility.yul\":3036:3178   */\n            tag_108:\n                /* \"#utility.yul\":3086:3095   */\n              0x00\n                /* \"#utility.yul\":3119:3172   */\n              tag_158\n                /* \"#utility.yul\":3137:3171   */\n              tag_159\n                /* \"#utility.yul\":3146:3170   */\n              tag_160\n                /* \"#utility.yul\":3164:3169   */\n              dup5\n                /* \"#utility.yul\":3146:3170   */\n              tag_95\n              jump\t// in\n            tag_160:\n                /* \"#utility.yul\":3137:3171   */\n              tag_107\n              jump\t// in\n            tag_159:\n                /* \"#utility.yul\":3119:3172   */\n              tag_95\n              jump\t// in\n            tag_158:\n                /* \"#utility.yul\":3106:3172   */\n              swap1\n              pop\n                /* \"#utility.yul\":3036:3178   */\n              swap2\n              swap1\n              pop\n              jump\t// out\n                /* \"#utility.yul\":3184:3310   */\n            tag_109:\n                /* \"#utility.yul\":3234:3243   */\n              0x00\n                /* \"#utility.yul\":3267:3304   */\n              tag_162\n                /* \"#utility.yul\":3298:3303   */\n              dup3\n                /* \"#utility.yul\":3267:3304   */\n              tag_108\n              jump\t// in\n            tag_162:\n                /* \"#utility.yul\":3254:3304   */\n              swap1\n              pop\n                /* \"#utility.yul\":3184:3310   */\n              swap2\n              swap1\n              pop\n              jump\t// out\n                /* \"#utility.yul\":3316:3473   */\n            tag_110:\n                /* \"#utility.yul\":3397:3406   */\n              0x00\n                /* \"#utility.yul\":3430:3467   */\n              tag_164\n                /* \"#utility.yul\":3461:3466   */\n              dup3\n                /* \"#utility.yul\":3430:3467   */\n              tag_109\n              jump\t// in\n            tag_164:\n                /* \"#utility.yul\":3417:3467   */\n              swap1\n              pop\n                /* \"#utility.yul\":3316:3473   */\n              swap2\n              swap1\n              pop\n              jump\t// out\n                /* \"#utility.yul\":3479:3672   */\n            tag_111:\n                /* \"#utility.yul\":3597:3665   */\n              tag_166\n                /* \"#utility.yul\":3659:3664   */\n              dup2\n                /* \"#utility.yul\":3597:3665   */\n              tag_110\n              jump\t// in\n            tag_166:\n                /* \"#utility.yul\":3592:3595   */\n              dup3\n                /* \"#utility.yul\":3585:3666   */\n              mstore\n                /* \"#utility.yul\":3479:3672   */\n              pop\n              pop\n              jump\t// out\n                /* \"#utility.yul\":3678:3962   */\n            tag_30:\n                /* \"#utility.yul\":3802:3806   */\n              0x00\n                /* \"#utility.yul\":3840:3842   */\n              0x20\n                /* \"#utility.yul\":3829:3838   */\n              dup3\n                /* \"#utility.yul\":3825:3843   */\n              add\n                /* \"#utility.yul\":3817:3843   */\n              swap1\n              pop\n                /* \"#utility.yul\":3853:3955   */\n              tag_168\n                /* \"#utility.yul\":3952:3953   */\n              0x00\n                /* \"#utility.yul\":3941:3950   */\n              dup4\n                /* \"#utility.yul\":3937:3954   */\n              add\n                /* \"#utility.yul\":3928:3934   */\n              dup5\n                /* \"#utility.yul\":3853:3955   */\n              tag_111\n              jump\t// in\n            tag_168:\n                /* \"#utility.yul\":3678:3962   */\n              swap3\n              swap2\n              pop\n              pop\n              jump\t// out\n                /* \"#utility.yul\":3968:4045   */\n            tag_112:\n                /* \"#utility.yul\":4005:4012   */\n              0x00\n                /* \"#utility.yul\":4034:4039   */\n              dup2\n                /* \"#utility.yul\":4023:4039   */\n              swap1\n              pop\n                /* \"#utility.yul\":3968:4045   */\n              swap2\n              swap1\n              pop\n              jump\t// out\n                /* \"#utility.yul\":4051:4169   */\n            tag_113:\n                /* \"#utility.yul\":4138:4162   */\n              tag_171\n                /* \"#utility.yul\":4156:4161   */\n              dup2\n                /* \"#utility.yul\":4138:4162   */\n              tag_112\n              jump\t// in\n            tag_171:\n                /* \"#utility.yul\":4133:4136   */\n              dup3\n                /* \"#utility.yul\":4126:4163   */\n              mstore\n                /* \"#utility.yul\":4051:4169   */\n              pop\n              pop\n              jump\t// out\n                /* \"#utility.yul\":4175:4397   */\n            tag_47:\n                /* \"#utility.yul\":4268:4272   */\n              0x00\n                /* \"#utility.yul\":4306:4308   */\n              0x20\n                /* \"#utility.yul\":4295:4304   */\n              dup3\n                /* \"#utility.yul\":4291:4309   */\n              add\n                /* \"#utility.yul\":4283:4309   */\n              swap1\n              pop\n                /* \"#utility.yul\":4319:4390   */\n              tag_173\n                /* \"#utility.yul\":4387:4388   */\n              0x00\n                /* \"#utility.yul\":4376:4385   */\n              dup4\n                /* \"#utility.yul\":4372:4389   */\n              add\n                /* \"#utility.yul\":4363:4369   */\n              dup5\n                /* \"#utility.yul\":4319:4390   */\n              tag_113\n              jump\t// in\n            tag_173:\n                /* \"#utility.yul\":4175:4397   */\n              swap3\n              swap2\n              pop\n              pop\n              jump\t// out\n                /* \"#utility.yul\":4403:4583   */\n            tag_114:\n                /* \"#utility.yul\":4451:4528   */\n              0x4e487b7100000000000000000000000000000000000000000000000000000000\n                /* \"#utility.yul\":4448:4449   */\n              0x00\n                /* \"#utility.yul\":4441:4529   */\n              mstore\n                /* \"#utility.yul\":4548:4552   */\n              0x22\n                /* \"#utility.yul\":4545:4546   */\n              0x04\n                /* \"#utility.yul\":4538:4553   */\n              mstore\n                /* \"#utility.yul\":4572:4576   */\n              0x24\n                /* \"#utility.yul\":4569:4570   */\n              0x00\n                /* \"#utility.yul\":4562:4577   */\n              revert\n                /* \"#utility.yul\":4589:4909   */\n            tag_52:\n                /* \"#utility.yul\":4633:4639   */\n              0x00\n                /* \"#utility.yul\":4670:4671   */\n              0x02\n                /* \"#utility.yul\":4664:4668   */\n              dup3\n                /* \"#utility.yul\":4660:4672   */\n              div\n                /* \"#utility.yul\":4650:4672   */\n              swap1\n              pop\n                /* \"#utility.yul\":4717:4718   */\n              0x01\n                /* \"#utility.yul\":4711:4715   */\n              dup3\n                /* \"#utility.yul\":4707:4719   */\n              and\n                /* \"#utility.yul\":4738:4756   */\n              dup1\n                /* \"#utility.yul\":4728:4809   */\n              tag_176\n              jumpi\n                /* \"#utility.yul\":4794:4798   */\n              0x7f\n                /* \"#utility.yul\":4786:4792   */\n              dup3\n                /* \"#utility.yul\":4782:4799   */\n              and\n                /* \"#utility.yul\":4772:4799   */\n              swap2\n              pop\n                /* \"#utility.yul\":4728:4809   */\n            tag_176:\n                /* \"#utility.yul\":4856:4858   */\n              0x20\n                /* \"#utility.yul\":4848:4854   */\n              dup3\n                /* \"#utility.yul\":4845:4859   */\n              lt\n                /* \"#utility.yul\":4825:4843   */\n              dup2\n                /* \"#utility.yul\":4822:4860   */\n              eq\n                /* \"#utility.yul\":4819:4903   */\n              iszero\n              tag_177\n              jumpi\n                /* \"#utility.yul\":4875:4893   */\n              tag_178\n              tag_114\n              jump\t// in\n            tag_178:\n                /* \"#utility.yul\":4819:4903   */\n            tag_177:\n                /* \"#utility.yul\":4640:4909   */\n              pop\n                /* \"#utility.yul\":4589:4909   */\n              swap2\n              swap1\n              pop\n              jump\t// out\n                /* \"#utility.yul\":4915:5138   */\n            tag_115:\n                /* \"#utility.yul\":5055:5089   */\n              0x436f6e747261637420737461747573206973206e6f7420657175616c20746f20\n                /* \"#utility.yul\":5051:5052   */\n              0x00\n                /* \"#utility.yul\":5043:5049   */\n              dup3\n                /* \"#utility.yul\":5039:5053   */\n              add\n                /* \"#utility.yul\":5032:5090   */\n              mstore\n                /* \"#utility.yul\":5124:5130   */\n              0x6f70656e00000000000000000000000000000000000000000000000000000000\n                /* \"#utility.yul\":5119:5121   */\n              0x20\n                /* \"#utility.yul\":5111:5117   */\n              dup3\n                /* \"#utility.yul\":5107:5122   */\n              add\n                /* \"#utility.yul\":5100:5131   */\n              mstore\n                /* \"#utility.yul\":4915:5138   */\n              pop\n              jump\t// out\n                /* \"#utility.yul\":5144:5510   */\n            tag_116:\n                /* \"#utility.yul\":5286:5289   */\n              0x00\n                /* \"#utility.yul\":5307:5374   */\n              tag_181\n                /* \"#utility.yul\":5371:5373   */\n              0x24\n                /* \"#utility.yul\":5366:5369   */\n              dup4\n                /* \"#utility.yul\":5307:5374   */\n              tag_99\n              jump\t// in\n            tag_181:\n                /* \"#utility.yul\":5300:5374   */\n              swap2\n              pop\n                /* \"#utility.yul\":5383:5476   */\n              tag_182\n                /* \"#utility.yul\":5472:5475   */\n              dup3\n                /* \"#utility.yul\":5383:5476   */\n              tag_115\n              jump\t// in\n            tag_182:\n                /* \"#utility.yul\":5501:5503   */\n              0x40\n                /* \"#utility.yul\":5496:5499   */\n              dup3\n                /* \"#utility.yul\":5492:5504   */\n              add\n                /* \"#utility.yul\":5485:5504   */\n              swap1\n              pop\n                /* \"#utility.yul\":5144:5510   */\n              swap2\n              swap1\n              pop\n              jump\t// out\n                /* \"#utility.yul\":5516:5935   */\n            tag_65:\n                /* \"#utility.yul\":5682:5686   */\n              0x00\n                /* \"#utility.yul\":5720:5722   */\n              0x20\n                /* \"#utility.yul\":5709:5718   */\n              dup3\n                /* \"#utility.yul\":5705:5723   */\n              add\n                /* \"#utility.yul\":5697:5723   */\n              swap1\n              pop\n                /* \"#utility.yul\":5769:5778   */\n              dup2\n                /* \"#utility.yul\":5763:5767   */\n              dup2\n                /* \"#utility.yul\":5759:5779   */\n              sub\n                /* \"#utility.yul\":5755:5756   */\n              0x00\n                /* \"#utility.yul\":5744:5753   */\n              dup4\n                /* \"#utility.yul\":5740:5757   */\n              add\n                /* \"#utility.yul\":5733:5780   */\n              mstore\n                /* \"#utility.yul\":5797:5928   */\n              tag_184\n                /* \"#utility.yul\":5923:5927   */\n              dup2\n                /* \"#utility.yul\":5797:5928   */\n              tag_116\n              jump\t// in\n            tag_184:\n                /* \"#utility.yul\":5789:5928   */\n              swap1\n              pop\n                /* \"#utility.yul\":5516:5935   */\n              swap2\n              swap1\n              pop\n              jump\t// out\n                /* \"#utility.yul\":5941:6169   */\n            tag_117:\n                /* \"#utility.yul\":6081:6115   */\n              0x4f6e6c792072656665726565206f722063726561746f722063616e206661696c\n                /* \"#utility.yul\":6077:6078   */\n              0x00\n                /* \"#utility.yul\":6069:6075   */\n              dup3\n                /* \"#utility.yul\":6065:6079   */\n              add\n                /* \"#utility.yul\":6058:6116   */\n              mstore\n                /* \"#utility.yul\":6150:6161   */\n              0x20636f6e74726163740000000000000000000000000000000000000000000000\n                /* \"#utility.yul\":6145:6147   */\n              0x20\n                /* \"#utility.yul\":6137:6143   */\n              dup3\n                /* \"#utility.yul\":6133:6148   */\n              add\n                /* \"#utility.yul\":6126:6162   */\n              mstore\n                /* \"#utility.yul\":5941:6169   */\n              pop\n              jump\t// out\n                /* \"#utility.yul\":6175:6541   */\n            tag_118:\n                /* \"#utility.yul\":6317:6320   */\n              0x00\n                /* \"#utility.yul\":6338:6405   */\n              tag_187\n                /* \"#utility.yul\":6402:6404   */\n              0x29\n                /* \"#utility.yul\":6397:6400   */\n              dup4\n                /* \"#utility.yul\":6338:6405   */\n              tag_99\n              jump\t// in\n            tag_187:\n                /* \"#utility.yul\":6331:6405   */\n              swap2\n              pop\n                /* \"#utility.yul\":6414:6507   */\n              tag_188\n                /* \"#utility.yul\":6503:6506   */\n              dup3\n                /* \"#utility.yul\":6414:6507   */\n              tag_117\n              jump\t// in\n            tag_188:\n                /* \"#utility.yul\":6532:6534   */\n              0x40\n                /* \"#utility.yul\":6527:6530   */\n              dup3\n                /* \"#utility.yul\":6523:6535   */\n              add\n                /* \"#utility.yul\":6516:6535   */\n              swap1\n              pop\n                /* \"#utility.yul\":6175:6541   */\n              swap2\n              swap1\n              pop\n              jump\t// out\n                /* \"#utility.yul\":6547:6966   */\n            tag_70:\n                /* \"#utility.yul\":6713:6717   */\n              0x00\n                /* \"#utility.yul\":6751:6753   */\n              0x20\n                /* \"#utility.yul\":6740:6749   */\n              dup3\n                /* \"#utility.yul\":6736:6754   */\n              add\n                /* \"#utility.yul\":6728:6754   */\n              swap1\n              pop\n                /* \"#utility.yul\":6800:6809   */\n              dup2\n                /* \"#utility.yul\":6794:6798   */\n              dup2\n                /* \"#utility.yul\":6790:6810   */\n              sub\n                /* \"#utility.yul\":6786:6787   */\n              0x00\n                /* \"#utility.yul\":6775:6784   */\n              dup4\n                /* \"#utility.yul\":6771:6788   */\n              add\n                /* \"#utility.yul\":6764:6811   */\n              mstore\n                /* \"#utility.yul\":6828:6959   */\n              tag_190\n                /* \"#utility.yul\":6954:6958   */\n              dup2\n                /* \"#utility.yul\":6828:6959   */\n              tag_118\n              jump\t// in\n            tag_190:\n                /* \"#utility.yul\":6820:6959   */\n              swap1\n              pop\n                /* \"#utility.yul\":6547:6966   */\n              swap2\n              swap1\n              pop\n              jump\t// out\n                /* \"#utility.yul\":6972:7195   */\n            tag_119:\n                /* \"#utility.yul\":7112:7146   */\n              0x4f6e6c7920726566657265652063616e20636f6d706c657465206120636f6e74\n                /* \"#utility.yul\":7108:7109   */\n              0x00\n                /* \"#utility.yul\":7100:7106   */\n              dup3\n                /* \"#utility.yul\":7096:7110   */\n              add\n                /* \"#utility.yul\":7089:7147   */\n              mstore\n                /* \"#utility.yul\":7181:7187   */\n              0x7261637400000000000000000000000000000000000000000000000000000000\n                /* \"#utility.yul\":7176:7178   */\n              0x20\n                /* \"#utility.yul\":7168:7174   */\n              dup3\n                /* \"#utility.yul\":7164:7179   */\n              add\n                /* \"#utility.yul\":7157:7188   */\n              mstore\n                /* \"#utility.yul\":6972:7195   */\n              pop\n              jump\t// out\n                /* \"#utility.yul\":7201:7567   */\n            tag_120:\n                /* \"#utility.yul\":7343:7346   */\n              0x00\n                /* \"#utility.yul\":7364:7431   */\n              tag_193\n                /* \"#utility.yul\":7428:7430   */\n              0x24\n                /* \"#utility.yul\":7423:7426   */\n              dup4\n                /* \"#utility.yul\":7364:7431   */\n              tag_99\n              jump\t// in\n            tag_193:\n                /* \"#utility.yul\":7357:7431   */\n              swap2\n              pop\n                /* \"#utility.yul\":7440:7533   */\n              tag_194\n                /* \"#utility.yul\":7529:7532   */\n              dup3\n                /* \"#utility.yul\":7440:7533   */\n              tag_119\n              jump\t// in\n            tag_194:\n                /* \"#utility.yul\":7558:7560   */\n              0x40\n                /* \"#utility.yul\":7553:7556   */\n              dup3\n                /* \"#utility.yul\":7549:7561   */\n              add\n                /* \"#utility.yul\":7542:7561   */\n              swap1\n              pop\n                /* \"#utility.yul\":7201:7567   */\n              swap2\n              swap1\n              pop\n              jump\t// out\n                /* \"#utility.yul\":7573:7992   */\n            tag_90:\n                /* \"#utility.yul\":7739:7743   */\n              0x00\n                /* \"#utility.yul\":7777:7779   */\n              0x20\n                /* \"#utility.yul\":7766:7775   */\n              dup3\n                /* \"#utility.yul\":7762:7780   */\n              add\n                /* \"#utility.yul\":7754:7780   */\n              swap1\n              pop\n                /* \"#utility.yul\":7826:7835   */\n              dup2\n                /* \"#utility.yul\":7820:7824   */\n              dup2\n                /* \"#utility.yul\":7816:7836   */\n              sub\n                /* \"#utility.yul\":7812:7813   */\n              0x00\n                /* \"#utility.yul\":7801:7810   */\n              dup4\n                /* \"#utility.yul\":7797:7814   */\n              add\n                /* \"#utility.yul\":7790:7837   */\n              mstore\n                /* \"#utility.yul\":7854:7985   */\n              tag_196\n                /* \"#utility.yul\":7980:7984   */\n              dup2\n                /* \"#utility.yul\":7854:7985   */\n              tag_120\n              jump\t// in\n            tag_196:\n                /* \"#utility.yul\":7846:7985   */\n              swap1\n              pop\n                /* \"#utility.yul\":7573:7992   */\n              swap2\n              swap1\n              pop\n              jump\t// out\n\n            auxdata: 0xa26469706673582212208a37549d69e3ba78944c331a4521f9f16cc23a19f688291ed3e73ad3b815515664736f6c634300080c0033\n        }\n    }\n\n    auxdata: 0xa264697066735822122045bb92458f506d60630dda0ea3789371560b488e47881ee71a18e5641e3712a964736f6c634300080c0033\n}\n","bytecode":{"linkReferences":{},"object":"608060405234801561001057600080fd5b5061570c806100206000396000f3fe608060405260043610620001525760003560e01c806375ce46a711620000bb578063b24e67d01162000079578063b24e67d0146200052d578063b3b6633e1462000571578063d77399e514620005a1578063dc0e0c1314620005cf578063e10bc83414620005ff578063e436e826146200062d5762000152565b806375ce46a714620003ed5780638793ed80146200041d5780639051e2341462000461578063a87430ba14620004a5578063a908f4fa14620004e95762000152565b8063442a7bc71162000115578063442a7bc714620002955780634841a88514620002d9578063502c9bd514620003095780635b259abf146200034d57806361542c44146200037b57806364a60b4714620003a95762000152565b8063061dff9a14620001575780630e865751146200018557806319ee8bd414620001c957806338db44bc146200020d57806338fb42fd1462000251575b600080fd5b3480156200016457600080fd5b506200018360048036038101906200017d919062002bb4565b6200064d565b005b3480156200019257600080fd5b50620001b16004803603810190620001ab919062002c21565b620007ca565b604051620001c0919062002d36565b60405180910390f35b348015620001d657600080fd5b50620001f56004803603810190620001ef919062002bb4565b6200097e565b60405162000204919062002d36565b60405180910390f35b3480156200021a57600080fd5b5062000239600480360381019062000233919062002d5a565b62000a50565b60405162000248919062002d9d565b60405180910390f35b3480156200025e57600080fd5b506200027d600480360381019062000277919062002d5a565b62000a90565b6040516200028c919062002d9d565b60405180910390f35b348015620002a257600080fd5b50620002c16004803603810190620002bb919062002bb4565b62000ad0565b604051620002d0919062002d36565b60405180910390f35b348015620002e657600080fd5b50620002f162000ba1565b60405162000300919062002dcb565b60405180910390f35b3480156200031657600080fd5b506200033560048036038101906200032f919062002d5a565b62000ba7565b60405162000344919062002d9d565b60405180910390f35b3480156200035a57600080fd5b5062000379600480360381019062000373919062002bb4565b62000be7565b005b3480156200038857600080fd5b50620003a76004803603810190620003a1919062002bb4565b62000d5f565b005b348015620003b657600080fd5b50620003d56004803603810190620003cf919062002bb4565b62000ed7565b604051620003e4919062002dcb565b60405180910390f35b348015620003fa57600080fd5b506200040562000ef5565b60405162000414919062002dcb565b60405180910390f35b3480156200042a57600080fd5b5062000449600480360381019062000443919062002bb4565b62000efb565b60405162000458919062002d36565b60405180910390f35b3480156200046e57600080fd5b506200048d600480360381019062000487919062002bb4565b62000fcd565b6040516200049c919062002d36565b60405180910390f35b348015620004b257600080fd5b50620004d16004803603810190620004cb919062002bb4565b6200109f565b604051620004e0919062002dcb565b60405180910390f35b348015620004f657600080fd5b506200051560048036038101906200050f919062002c21565b620010bd565b60405162000524919062002d36565b60405180910390f35b3480156200053a57600080fd5b5062000559600480360381019062000553919062002bb4565b62001271565b60405162000568919062002d36565b60405180910390f35b3480156200057e57600080fd5b506200058962001342565b60405162000598919062002dcb565b60405180910390f35b348015620005ae57600080fd5b50620005cd6004803603810190620005c7919062002f4a565b62001348565b005b348015620005dc57600080fd5b50620005e7620014d3565b604051620005f6919062002dcb565b60405180910390f35b3480156200060c57600080fd5b506200062b600480360381019062000625919062002bb4565b620014d9565b005b6200064b600480360381019062000645919062002ff5565b6200194b565b005b600081905060008173ffffffffffffffffffffffffffffffffffffffff16633c4901746040518163ffffffff1660e01b8152600401602060405180830381865afa158015620006a0573d6000803e3d6000fd5b505050506040513d601f19601f82011682018060405250810190620006c69190620030bc565b90508173ffffffffffffffffffffffffffffffffffffffff1663263b81c96040518163ffffffff1660e01b81526004016020604051808303816000875af115801562000716573d6000803e3d6000fd5b505050506040513d601f19601f820116820180604052508101906200073c919062003133565b50620007488162000d5f565b620007c58173ffffffffffffffffffffffffffffffffffffffff16633b1bebd16040518163ffffffff1660e01b8152600401602060405180830381865afa15801562000798573d6000803e3d6000fd5b505050506040513d601f19601f82011682018060405250810190620007be9190620030bc565b8462001dbe565b505050565b6060600083101562000813576040517f08c379a00000000000000000000000000000000000000000000000000000000081526004016200080a90620031c6565b60405180910390fd5b6003805490508211156200085e576040517f08c379a000000000000000000000000000000000000000000000000000000000815260040162000855906200325e565b60405180910390fd5b600083836200086e9190620032af565b67ffffffffffffffff8111156200088a576200088962002e03565b5b604051908082528060200260200182016040528015620008b95781602001602082028036833780820191505090505b50905060008490505b83811015620009735760038181548110620008e257620008e1620032ea565b5b9060005260206000200160009054906101000a900473ffffffffffffffffffffffffffffffffffffffff16828281518110620009235762000922620032ea565b5b602002602001019073ffffffffffffffffffffffffffffffffffffffff16908173ffffffffffffffffffffffffffffffffffffffff168152505080806200096a9062003319565b915050620008c2565b508091505092915050565b6060600660008373ffffffffffffffffffffffffffffffffffffffff1673ffffffffffffffffffffffffffffffffffffffff16815260200190815260200160002060020180548060200260200160405190810160405280929190818152602001828054801562000a4457602002820191906000526020600020905b8160009054906101000a900473ffffffffffffffffffffffffffffffffffffffff1673ffffffffffffffffffffffffffffffffffffffff1681526020019060010190808311620009f9575b50505050509050919050565b6003818154811062000a6157600080fd5b906000526020600020016000915054906101000a900473ffffffffffffffffffffffffffffffffffffffff1681565b6008818154811062000aa157600080fd5b906000526020600020016000915054906101000a900473ffffffffffffffffffffffffffffffffffffffff1681565b60606000808373ffffffffffffffffffffffffffffffffffffffff1673ffffffffffffffffffffffffffffffffffffffff16815260200190815260200160002060010180548060200260200160405190810160405280929190818152602001828054801562000b9557602002820191906000526020600020905b8160009054906101000a900473ffffffffffffffffffffffffffffffffffffffff1673ffffffffffffffffffffffffffffffffffffffff168152602001906001019080831162000b4a575b50505050509050919050565b60045481565b6001818154811062000bb857600080fd5b906000526020600020016000915054906101000a900473ffffffffffffffffffffffffffffffffffffffff1681565b60008190508073ffffffffffffffffffffffffffffffffffffffff16632d398fa66040518163ffffffff1660e01b81526004016020604051808303816000875af115801562000c3a573d6000803e3d6000fd5b505050506040513d601f19601f8201168201806040525081019062000c609190620033ac565b5062000cde8173ffffffffffffffffffffffffffffffffffffffff166302d05d3f6040518163ffffffff1660e01b8152600401602060405180830381865afa15801562000cb1573d6000803e3d6000fd5b505050506040513d601f19601f8201168201806040525081019062000cd79190620030bc565b836200212e565b62000d5b8173ffffffffffffffffffffffffffffffffffffffff16633b1bebd16040518163ffffffff1660e01b8152600401602060405180830381865afa15801562000d2e573d6000803e3d6000fd5b505050506040513d601f19601f8201168201806040525081019062000d549190620030bc565b83620024eb565b5050565b60008190508073ffffffffffffffffffffffffffffffffffffffff1663b4fedc116040518163ffffffff1660e01b81526004016020604051808303816000875af115801562000db2573d6000803e3d6000fd5b505050506040513d601f19601f8201168201806040525081019062000dd89190620033ac565b5062000e568173ffffffffffffffffffffffffffffffffffffffff166302d05d3f6040518163ffffffff1660e01b8152600401602060405180830381865afa15801562000e29573d6000803e3d6000fd5b505050506040513d601f19601f8201168201806040525081019062000e4f9190620030bc565b836200212e565b62000ed38173ffffffffffffffffffffffffffffffffffffffff16633b1bebd16040518163ffffffff1660e01b8152600401602060405180830381865afa15801562000ea6573d6000803e3d6000fd5b505050506040513d601f19601f8201168201806040525081019062000ecc9190620030bc565b83620024eb565b5050565b60066020528060005260406000206000915090508060000154905081565b60025481565b6060600660008373ffffffffffffffffffffffffffffffffffffffff1673ffffffffffffffffffffffffffffffffffffffff16815260200190815260200160002060030180548060200260200160405190810160405280929190818152602001828054801562000fc157602002820191906000526020600020905b8160009054906101000a900473ffffffffffffffffffffffffffffffffffffffff1673ffffffffffffffffffffffffffffffffffffffff168152602001906001019080831162000f76575b50505050509050919050565b6060600660008373ffffffffffffffffffffffffffffffffffffffff1673ffffffffffffffffffffffffffffffffffffffff1681526020019081526020016000206001018054806020026020016040519081016040528092919081815260200182805480156200109357602002820191906000526020600020905b8160009054906101000a900473ffffffffffffffffffffffffffffffffffffffff1673ffffffffffffffffffffffffffffffffffffffff168152602001906001019080831162001048575b50505050509050919050565b60006020528060005260406000206000915090508060000154905081565b6060600083101562001106576040517f08c379a0000000000000000000000000000000000000000000000000000000008152600401620010fd90620031c6565b60405180910390fd5b60018054905082111562001151576040517f08c379a000000000000000000000000000000000000000000000000000000000815260040162001148906200325e565b60405180910390fd5b60008383620011619190620032af565b67ffffffffffffffff8111156200117d576200117c62002e03565b5b604051908082528060200260200182016040528015620011ac5781602001602082028036833780820191505090505b50905060008490505b83811015620012665760018181548110620011d557620011d4620032ea565b5b9060005260206000200160009054906101000a900473ffffffffffffffffffffffffffffffffffffffff16828281518110620012165762001215620032ea565b5b602002602001019073ffffffffffffffffffffffffffffffffffffffff16908173ffffffffffffffffffffffffffffffffffffffff168152505080806200125d9062003319565b915050620011b5565b508091505092915050565b60606000808373ffffffffffffffffffffffffffffffffffffffff1673ffffffffffffffffffffffffffffffffffffffff1681526020019081526020016000206002018054806020026020016040519081016040528092919081815260200182805480156200133657602002820191906000526020600020905b8160009054906101000a900473ffffffffffffffffffffffffffffffffffffffff1673ffffffffffffffffffffffffffffffffffffffff1681526020019060010190808311620012eb575b50505050509050919050565b60075481565b600082905060008173ffffffffffffffffffffffffffffffffffffffff16633c4901746040518163ffffffff1660e01b8152600401602060405180830381865afa1580156200139b573d6000803e3d6000fd5b505050506040513d601f19601f82011682018060405250810190620013c19190620030bc565b90508173ffffffffffffffffffffffffffffffffffffffff1663d69b7ce3846040518263ffffffff1660e01b8152600401620013fe919062003460565b6020604051808303816000875af11580156200141e573d6000803e3d6000fd5b505050506040513d601f19601f8201168201806040525081019062001444919062003133565b50620014508162000be7565b620014cd8173ffffffffffffffffffffffffffffffffffffffff16633b1bebd16040518163ffffffff1660e01b8152600401602060405180830381865afa158015620014a0573d6000803e3d6000fd5b505050506040513d601f19601f82011682018060405250810190620014c69190620030bc565b8562001dbe565b50505050565b60055481565b600081905060006002811115620014f557620014f462003484565b5b8173ffffffffffffffffffffffffffffffffffffffff1663200d2ed26040518163ffffffff1660e01b8152600401602060405180830381865afa15801562001541573d6000803e3d6000fd5b505050506040513d601f19601f82011682018060405250810190620015679190620034db565b60028111156200157c576200157b62003484565b5b14620015bf576040517f08c379a0000000000000000000000000000000000000000000000000000000008152600401620015b6906200355d565b60405180910390fd5b8073ffffffffffffffffffffffffffffffffffffffff166302d05d3f6040518163ffffffff1660e01b8152600401602060405180830381865afa1580156200160b573d6000803e3d6000fd5b505050506040513d601f19601f82011682018060405250810190620016319190620030bc565b73ffffffffffffffffffffffffffffffffffffffff163273ffffffffffffffffffffffffffffffffffffffff1614620016a1576040517f08c379a00000000000000000000000000000000000000000000000000000000081526004016200169890620035f5565b60405180910390fd5b8073ffffffffffffffffffffffffffffffffffffffff16633b1bebd16040518163ffffffff1660e01b8152600401602060405180830381865afa158015620016ed573d6000803e3d6000fd5b505050506040513d601f19601f82011682018060405250810190620017139190620030bc565b73ffffffffffffffffffffffffffffffffffffffff168173ffffffffffffffffffffffffffffffffffffffff166302d05d3f6040518163ffffffff1660e01b8152600401602060405180830381865afa15801562001775573d6000803e3d6000fd5b505050506040513d601f19601f820116820180604052508101906200179b9190620030bc565b73ffffffffffffffffffffffffffffffffffffffff161415620017f5576040517f08c379a0000000000000000000000000000000000000000000000000000000008152600401620017ec906200368d565b60405180910390fd5b600082604051620018069062002b1f565b62001812919062002d9d565b604051809103906000f0801580156200182f573d6000803e3d6000fd5b509050600660008373ffffffffffffffffffffffffffffffffffffffff16633b1bebd16040518163ffffffff1660e01b8152600401602060405180830381865afa15801562001882573d6000803e3d6000fd5b505050506040513d601f19601f82011682018060405250810190620018a89190620030bc565b73ffffffffffffffffffffffffffffffffffffffff1673ffffffffffffffffffffffffffffffffffffffff168152602001908152602001600020600301819080600181540180825580915050600190039060005260206000200160009091909190916101000a81548173ffffffffffffffffffffffffffffffffffffffff021916908373ffffffffffffffffffffffffffffffffffffffff160217905550505050565b60008060003373ffffffffffffffffffffffffffffffffffffffff1673ffffffffffffffffffffffffffffffffffffffff16815260200190815260200160002060000154141562001a145760026000815480929190620019ab9062003319565b91905055506001339080600181540180825580915050600190039060005260206000200160009091909190916101000a81548173ffffffffffffffffffffffffffffffffffffffff021916908373ffffffffffffffffffffffffffffffffffffffff1602179055505b6000600660008673ffffffffffffffffffffffffffffffffffffffff1673ffffffffffffffffffffffffffffffffffffffff16815260200190815260200160002060000154141562001ade576007600081548092919062001a759062003319565b91905055506008849080600181540180825580915050600190039060005260206000200160009091909190916101000a81548173ffffffffffffffffffffffffffffffffffffffff021916908373ffffffffffffffffffffffffffffffffffffffff1602179055505b60003433868686863460405162001af59062002b2d565b62001b06969594939291906200371a565b6040518091039082f090508015801562001b24573d6000803e3d6000fd5b5090506004600081548092919062001b3c9062003319565b91905055506003819080600181540180825580915050600190039060005260206000200160009091909190916101000a81548173ffffffffffffffffffffffffffffffffffffffff021916908373ffffffffffffffffffffffffffffffffffffffff160217905550346005600082825462001bb8919062003795565b925050819055506000803373ffffffffffffffffffffffffffffffffffffffff1673ffffffffffffffffffffffffffffffffffffffff168152602001908152602001600020600001600081548092919062001c139062003319565b91905055506000803373ffffffffffffffffffffffffffffffffffffffff1673ffffffffffffffffffffffffffffffffffffffff168152602001908152602001600020600101819080600181540180825580915050600190039060005260206000200160009091909190916101000a81548173ffffffffffffffffffffffffffffffffffffffff021916908373ffffffffffffffffffffffffffffffffffffffff160217905550600660008673ffffffffffffffffffffffffffffffffffffffff1673ffffffffffffffffffffffffffffffffffffffff168152602001908152602001600020600001600081548092919062001d0f9062003319565b9190505550600660008673ffffffffffffffffffffffffffffffffffffffff1673ffffffffffffffffffffffffffffffffffffffff168152602001908152602001600020600101819080600181540180825580915050600190039060005260206000200160009091909190916101000a81548173ffffffffffffffffffffffffffffffffffffffff021916908373ffffffffffffffffffffffffffffffffffffffff1602179055505050505050565b600080600090505b6001600660008673ffffffffffffffffffffffffffffffffffffffff1673ffffffffffffffffffffffffffffffffffffffff1681526020019081526020016000206003018054905062001e1a9190620032af565b811162001ef6578273ffffffffffffffffffffffffffffffffffffffff16600660008673ffffffffffffffffffffffffffffffffffffffff1673ffffffffffffffffffffffffffffffffffffffff168152602001908152602001600020600301828154811062001e8f5762001e8e620032ea565b5b9060005260206000200160009054906101000a900473ffffffffffffffffffffffffffffffffffffffff1673ffffffffffffffffffffffffffffffffffffffff16141562001ee05780915062001ef6565b808062001eed9062003319565b91505062001dc6565b5060008190505b6001600660008673ffffffffffffffffffffffffffffffffffffffff1673ffffffffffffffffffffffffffffffffffffffff1681526020019081526020016000206003018054905062001f519190620032af565b8110156200209e57600660008573ffffffffffffffffffffffffffffffffffffffff1673ffffffffffffffffffffffffffffffffffffffff16815260200190815260200160002060030160018262001faa919062003795565b8154811062001fbe5762001fbd620032ea565b5b9060005260206000200160009054906101000a900473ffffffffffffffffffffffffffffffffffffffff16600660008673ffffffffffffffffffffffffffffffffffffffff1673ffffffffffffffffffffffffffffffffffffffff168152602001908152602001600020600301828154811062002040576200203f620032ea565b5b9060005260206000200160006101000a81548173ffffffffffffffffffffffffffffffffffffffff021916908373ffffffffffffffffffffffffffffffffffffffff1602179055508080620020959062003319565b91505062001efd565b50600660008473ffffffffffffffffffffffffffffffffffffffff1673ffffffffffffffffffffffffffffffffffffffff168152602001908152602001600020600301805480620020f457620020f3620037f2565b5b6001900381819060005260206000200160006101000a81549073ffffffffffffffffffffffffffffffffffffffff02191690559055505050565b60006200213c8383620028a9565b905060008060008573ffffffffffffffffffffffffffffffffffffffff1673ffffffffffffffffffffffffffffffffffffffff16815260200190815260200160002060010180549050905060008290505b6001826200219c9190620032af565b811015620022e7576000808673ffffffffffffffffffffffffffffffffffffffff1673ffffffffffffffffffffffffffffffffffffffff168152602001908152602001600020600101600182620021f4919062003795565b81548110620022085762002207620032ea565b5b9060005260206000200160009054906101000a900473ffffffffffffffffffffffffffffffffffffffff166000808773ffffffffffffffffffffffffffffffffffffffff1673ffffffffffffffffffffffffffffffffffffffff1681526020019081526020016000206001018281548110620022895762002288620032ea565b5b9060005260206000200160006101000a81548173ffffffffffffffffffffffffffffffffffffffff021916908373ffffffffffffffffffffffffffffffffffffffff1602179055508080620022de9062003319565b9150506200218d565b506000808573ffffffffffffffffffffffffffffffffffffffff1673ffffffffffffffffffffffffffffffffffffffff1681526020019081526020016000206002016000808673ffffffffffffffffffffffffffffffffffffffff1673ffffffffffffffffffffffffffffffffffffffff16815260200190815260200160002060010160016000808873ffffffffffffffffffffffffffffffffffffffff1673ffffffffffffffffffffffffffffffffffffffff16815260200190815260200160002060010180549050620023bd9190620032af565b81548110620023d157620023d0620032ea565b5b9060005260206000200160009054906101000a900473ffffffffffffffffffffffffffffffffffffffff169080600181540180825580915050600190039060005260206000200160009091909190916101000a81548173ffffffffffffffffffffffffffffffffffffffff021916908373ffffffffffffffffffffffffffffffffffffffff1602179055506000808573ffffffffffffffffffffffffffffffffffffffff1673ffffffffffffffffffffffffffffffffffffffff168152602001908152602001600020600101805480620024b057620024af620037f2565b5b6001900381819060005260206000200160006101000a81549073ffffffffffffffffffffffffffffffffffffffff0219169055905550505050565b6000620024f98383620029e3565b905060008190505b6001600660008673ffffffffffffffffffffffffffffffffffffffff1673ffffffffffffffffffffffffffffffffffffffff16815260200190815260200160002060010180549050620025559190620032af565b811015620026a257600660008573ffffffffffffffffffffffffffffffffffffffff1673ffffffffffffffffffffffffffffffffffffffff168152602001908152602001600020600101600182620025ae919062003795565b81548110620025c257620025c1620032ea565b5b9060005260206000200160009054906101000a900473ffffffffffffffffffffffffffffffffffffffff16600660008673ffffffffffffffffffffffffffffffffffffffff1673ffffffffffffffffffffffffffffffffffffffff1681526020019081526020016000206001018281548110620026445762002643620032ea565b5b9060005260206000200160006101000a81548173ffffffffffffffffffffffffffffffffffffffff021916908373ffffffffffffffffffffffffffffffffffffffff1602179055508080620026999062003319565b91505062002501565b50600660008473ffffffffffffffffffffffffffffffffffffffff1673ffffffffffffffffffffffffffffffffffffffff168152602001908152602001600020600201600660008573ffffffffffffffffffffffffffffffffffffffff1673ffffffffffffffffffffffffffffffffffffffff1681526020019081526020016000206001016001600660008773ffffffffffffffffffffffffffffffffffffffff1673ffffffffffffffffffffffffffffffffffffffff168152602001908152602001600020600101805490506200277b9190620032af565b815481106200278f576200278e620032ea565b5b9060005260206000200160009054906101000a900473ffffffffffffffffffffffffffffffffffffffff169080600181540180825580915050600190039060005260206000200160009091909190916101000a81548173ffffffffffffffffffffffffffffffffffffffff021916908373ffffffffffffffffffffffffffffffffffffffff160217905550600660008473ffffffffffffffffffffffffffffffffffffffff1673ffffffffffffffffffffffffffffffffffffffff1681526020019081526020016000206001018054806200286f576200286e620037f2565b5b6001900381819060005260206000200160006101000a81549073ffffffffffffffffffffffffffffffffffffffff02191690559055505050565b60008060005b60016000808773ffffffffffffffffffffffffffffffffffffffff1673ffffffffffffffffffffffffffffffffffffffff16815260200190815260200160002060010180549050620029029190620032af565b8111620029d8578373ffffffffffffffffffffffffffffffffffffffff166000808773ffffffffffffffffffffffffffffffffffffffff1673ffffffffffffffffffffffffffffffffffffffff1681526020019081526020016000206001018281548110620029765762002975620032ea565b5b9060005260206000200160009054906101000a900473ffffffffffffffffffffffffffffffffffffffff1673ffffffffffffffffffffffffffffffffffffffff161415620029c2578091505b8080620029cf9062003319565b915050620028af565b508091505092915050565b60008060005b6001600660008773ffffffffffffffffffffffffffffffffffffffff1673ffffffffffffffffffffffffffffffffffffffff1681526020019081526020016000206001018054905062002a3d9190620032af565b811162002b14578373ffffffffffffffffffffffffffffffffffffffff16600660008773ffffffffffffffffffffffffffffffffffffffff1673ffffffffffffffffffffffffffffffffffffffff168152602001908152602001600020600101828154811062002ab25762002ab1620032ea565b5b9060005260206000200160009054906101000a900473ffffffffffffffffffffffffffffffffffffffff1673ffffffffffffffffffffffffffffffffffffffff16141562002afe578091505b808062002b0b9062003319565b915050620029e9565b508091505092915050565b610d19806200382283390190565b61119c806200453b83390190565b6000604051905090565b600080fd5b600080fd5b600073ffffffffffffffffffffffffffffffffffffffff82169050919050565b600062002b7c8262002b4f565b9050919050565b62002b8e8162002b6f565b811462002b9a57600080fd5b50565b60008135905062002bae8162002b83565b92915050565b60006020828403121562002bcd5762002bcc62002b45565b5b600062002bdd8482850162002b9d565b91505092915050565b6000819050919050565b62002bfb8162002be6565b811462002c0757600080fd5b50565b60008135905062002c1b8162002bf0565b92915050565b6000806040838503121562002c3b5762002c3a62002b45565b5b600062002c4b8582860162002c0a565b925050602062002c5e8582860162002c0a565b9150509250929050565b600081519050919050565b600082825260208201905092915050565b6000819050602082019050919050565b62002c9f8162002b6f565b82525050565b600062002cb3838362002c94565b60208301905092915050565b6000602082019050919050565b600062002cd98262002c68565b62002ce5818562002c73565b935062002cf28362002c84565b8060005b8381101562002d2957815162002d0d888262002ca5565b975062002d1a8362002cbf565b92505060018101905062002cf6565b5085935050505092915050565b6000602082019050818103600083015262002d52818462002ccc565b905092915050565b60006020828403121562002d735762002d7262002b45565b5b600062002d838482850162002c0a565b91505092915050565b62002d978162002b6f565b82525050565b600060208201905062002db4600083018462002d8c565b92915050565b62002dc58162002be6565b82525050565b600060208201905062002de2600083018462002dba565b92915050565b600080fd5b600080fd5b6000601f19601f8301169050919050565b7f4e487b7100000000000000000000000000000000000000000000000000000000600052604160045260246000fd5b62002e3d8262002df2565b810181811067ffffffffffffffff8211171562002e5f5762002e5e62002e03565b5b80604052505050565b600062002e7462002b3b565b905062002e82828262002e32565b919050565b600067ffffffffffffffff82111562002ea55762002ea462002e03565b5b62002eb08262002df2565b9050602081019050919050565b82818337600083830152505050565b600062002ee362002edd8462002e87565b62002e68565b90508281526020810184848401111562002f025762002f0162002ded565b5b62002f0f84828562002ebd565b509392505050565b600082601f83011262002f2f5762002f2e62002de8565b5b813562002f4184826020860162002ecc565b91505092915050565b6000806040838503121562002f645762002f6362002b45565b5b600062002f748582860162002b9d565b925050602083013567ffffffffffffffff81111562002f985762002f9762002b4a565b5b62002fa68582860162002f17565b9150509250929050565b600062002fbd8262002b4f565b9050919050565b62002fcf8162002fb0565b811462002fdb57600080fd5b50565b60008135905062002fef8162002fc4565b92915050565b6000806000806080858703121562003012576200301162002b45565b5b6000620030228782880162002b9d565b945050602085013567ffffffffffffffff81111562003046576200304562002b4a565b5b620030548782880162002f17565b935050604085013567ffffffffffffffff81111562003078576200307762002b4a565b5b620030868782880162002f17565b9250506060620030998782880162002fde565b91505092959194509250565b600081519050620030b68162002b83565b92915050565b600060208284031215620030d557620030d462002b45565b5b6000620030e584828501620030a5565b91505092915050565b6000620030fb8262002b6f565b9050919050565b6200310d81620030ee565b81146200311957600080fd5b50565b6000815190506200312d8162003102565b92915050565b6000602082840312156200314c576200314b62002b45565b5b60006200315c848285016200311c565b91505092915050565b600082825260208201905092915050565b7f537461727420696e6465782063616e6e6f74206265206e656761746976650000600082015250565b6000620031ae601e8362003165565b9150620031bb8262003176565b602082019050919050565b60006020820190508181036000830152620031e1816200319f565b9050919050565b7f456e6420696e646578206578636565647320757365722061646472657373657360008201527f206c656e67746800000000000000000000000000000000000000000000000000602082015250565b60006200324660278362003165565b91506200325382620031e8565b604082019050919050565b60006020820190508181036000830152620032798162003237565b9050919050565b7f4e487b7100000000000000000000000000000000000000000000000000000000600052601160045260246000fd5b6000620032bc8262002be6565b9150620032c98362002be6565b925082821015620032df57620032de62003280565b5b828203905092915050565b7f4e487b7100000000000000000000000000000000000000000000000000000000600052603260045260246000fd5b6000620033268262002be6565b91507fffffffffffffffffffffffffffffffffffffffffffffffffffffffffffffffff8214156200335c576200335b62003280565b5b600182019050919050565b6000620033748262002b6f565b9050919050565b620033868162003367565b81146200339257600080fd5b50565b600081519050620033a6816200337b565b92915050565b600060208284031215620033c557620033c462002b45565b5b6000620033d58482850162003395565b91505092915050565b600081519050919050565b60005b8381101562003409578082015181840152602081019050620033ec565b8381111562003419576000848401525b50505050565b60006200342c82620033de565b62003438818562003165565b93506200344a818560208601620033e9565b620034558162002df2565b840191505092915050565b600060208201905081810360008301526200347c81846200341f565b905092915050565b7f4e487b7100000000000000000000000000000000000000000000000000000000600052602160045260246000fd5b60038110620034c157600080fd5b50565b600081519050620034d581620034b3565b92915050565b600060208284031215620034f457620034f362002b45565b5b60006200350484828501620034c4565b91505092915050565b7f436f6e747261637420737461747573206d757374206265206f70656e00000000600082015250565b600062003545601c8362003165565b915062003552826200350d565b602082019050919050565b60006020820190508181036000830152620035788162003536565b9050919050565b7f4f6e6c792063726561746f72206f6620636f6e74726163742063616e2072657160008201527f7565737420636f6d706c6574696f6e0000000000000000000000000000000000602082015250565b6000620035dd602f8362003165565b9150620035ea826200357f565b604082019050919050565b600060208201905081810360008301526200361081620035ce565b9050919050565b7f43616e6e6f74207265717565737420617070726f76616c207768656e2063726560008201527f61746f7220697320726566657265650000000000000000000000000000000000602082015250565b600062003675602f8362003165565b9150620036828262003617565b604082019050919050565b60006020820190508181036000830152620036a88162003666565b9050919050565b6000819050919050565b6000620036da620036d4620036ce8462002b4f565b620036af565b62002b4f565b9050919050565b6000620036ee82620036b9565b9050919050565b60006200370282620036e1565b9050919050565b6200371481620036f5565b82525050565b600060c08201905062003731600083018962002d8c565b62003740602083018862002d8c565b81810360408301526200375481876200341f565b905081810360608301526200376a81866200341f565b90506200377b608083018562003709565b6200378a60a083018462002dba565b979650505050505050565b6000620037a28262002be6565b9150620037af8362002be6565b9250827fffffffffffffffffffffffffffffffffffffffffffffffffffffffffffffffff03821115620037e757620037e662003280565b5b828201905092915050565b7f4e487b7100000000000000000000000000000000000000000000000000000000600052603160045260246000fdfe60806040523480156200001157600080fd5b5060405162000d1938038062000d19833981810160405281019062000037919062000280565b60008190508073ffffffffffffffffffffffffffffffffffffffff166302d05d3f6040518163ffffffff1660e01b8152600401602060405180830381865afa15801562000088573d6000803e3d6000fd5b505050506040513d601f19601f82011682018060405250810190620000ae919062000280565b6000806101000a81548173ffffffffffffffffffffffffffffffffffffffff021916908373ffffffffffffffffffffffffffffffffffffffff1602179055508073ffffffffffffffffffffffffffffffffffffffff16633b1bebd16040518163ffffffff1660e01b8152600401602060405180830381865afa15801562000139573d6000803e3d6000fd5b505050506040513d601f19601f820116820180604052508101906200015f919062000280565b600160006101000a81548173ffffffffffffffffffffffffffffffffffffffff021916908373ffffffffffffffffffffffffffffffffffffffff16021790555081600260006101000a81548173ffffffffffffffffffffffffffffffffffffffff021916908373ffffffffffffffffffffffffffffffffffffffff1602179055506000600260146101000a81548160ff02191690836002811115620002095762000208620002b2565b5b02179055505050620002e1565b600080fd5b600073ffffffffffffffffffffffffffffffffffffffff82169050919050565b600062000248826200021b565b9050919050565b6200025a816200023b565b81146200026657600080fd5b50565b6000815190506200027a816200024f565b92915050565b60006020828403121562000299576200029862000216565b5b6000620002a98482850162000269565b91505092915050565b7f4e487b7100000000000000000000000000000000000000000000000000000000600052602160045260246000fd5b610a2880620002f16000396000f3fe608060405234801561001057600080fd5b506004361061007d5760003560e01c80633b1bebd11161005b5780633b1bebd1146100dc5780633c490174146100fa5780637a7f01a714610118578063d69b7ce3146101365761007d565b806302d05d3f14610082578063200d2ed2146100a0578063263b81c9146100be575b600080fd5b61008a610166565b60405161009791906104f9565b60405180910390f35b6100a861018a565b6040516100b5919061058b565b60405180910390f35b6100c661019d565b6040516100d39190610605565b60405180910390f35b6100e4610260565b6040516100f191906104f9565b60405180910390f35b610102610286565b60405161010f91906104f9565b60405180910390f35b6101206102ac565b60405161012d91906106b9565b60405180910390f35b610150600480360381019061014b9190610824565b61033a565b60405161015d9190610605565b60405180910390f35b60008054906101000a900473ffffffffffffffffffffffffffffffffffffffff1681565b600260149054906101000a900460ff1681565b6000600160009054906101000a900473ffffffffffffffffffffffffffffffffffffffff1673ffffffffffffffffffffffffffffffffffffffff163273ffffffffffffffffffffffffffffffffffffffff161461022f576040517f08c379a0000000000000000000000000000000000000000000000000000000008152600401610226906108df565b60405180910390fd5b6001600260146101000a81548160ff0219169083600281111561025557610254610514565b5b021790555030905090565b600160009054906101000a900473ffffffffffffffffffffffffffffffffffffffff1681565b600260009054906101000a900473ffffffffffffffffffffffffffffffffffffffff1681565b600380546102b99061092e565b80601f01602080910402602001604051908101604052809291908181526020018280546102e59061092e565b80156103325780601f1061030757610100808354040283529160200191610332565b820191906000526020600020905b81548152906001019060200180831161031557829003601f168201915b505050505081565b6000600160009054906101000a900473ffffffffffffffffffffffffffffffffffffffff1673ffffffffffffffffffffffffffffffffffffffff163273ffffffffffffffffffffffffffffffffffffffff16146103cc576040517f08c379a00000000000000000000000000000000000000000000000000000000081526004016103c3906109d2565b60405180910390fd5b60028060146101000a81548160ff021916908360028111156103f1576103f0610514565b5b0217905550816003908051906020019061040c929190610415565b50309050919050565b8280546104219061092e565b90600052602060002090601f016020900481019282610443576000855561048a565b82601f1061045c57805160ff191683800117855561048a565b8280016001018555821561048a579182015b8281111561048957825182559160200191906001019061046e565b5b509050610497919061049b565b5090565b5b808211156104b457600081600090555060010161049c565b5090565b600073ffffffffffffffffffffffffffffffffffffffff82169050919050565b60006104e3826104b8565b9050919050565b6104f3816104d8565b82525050565b600060208201905061050e60008301846104ea565b92915050565b7f4e487b7100000000000000000000000000000000000000000000000000000000600052602160045260246000fd5b6003811061055457610553610514565b5b50565b600081905061056582610543565b919050565b600061057582610557565b9050919050565b6105858161056a565b82525050565b60006020820190506105a0600083018461057c565b92915050565b6000819050919050565b60006105cb6105c66105c1846104b8565b6105a6565b6104b8565b9050919050565b60006105dd826105b0565b9050919050565b60006105ef826105d2565b9050919050565b6105ff816105e4565b82525050565b600060208201905061061a60008301846105f6565b92915050565b600081519050919050565b600082825260208201905092915050565b60005b8381101561065a57808201518184015260208101905061063f565b83811115610669576000848401525b50505050565b6000601f19601f8301169050919050565b600061068b82610620565b610695818561062b565b93506106a581856020860161063c565b6106ae8161066f565b840191505092915050565b600060208201905081810360008301526106d38184610680565b905092915050565b6000604051905090565b600080fd5b600080fd5b600080fd5b600080fd5b7f4e487b7100000000000000000000000000000000000000000000000000000000600052604160045260246000fd5b6107318261066f565b810181811067ffffffffffffffff821117156107505761074f6106f9565b5b80604052505050565b60006107636106db565b905061076f8282610728565b919050565b600067ffffffffffffffff82111561078f5761078e6106f9565b5b6107988261066f565b9050602081019050919050565b82818337600083830152505050565b60006107c76107c284610774565b610759565b9050828152602081018484840111156107e3576107e26106f4565b5b6107ee8482856107a5565b509392505050565b600082601f83011261080b5761080a6106ef565b5b813561081b8482602086016107b4565b91505092915050565b60006020828403121561083a576108396106e5565b5b600082013567ffffffffffffffff811115610858576108576106ea565b5b610864848285016107f6565b91505092915050565b7f4f6e6c7920726566657265652063616e20617070726f766520617070726f766160008201527f6c20726571756573740000000000000000000000000000000000000000000000602082015250565b60006108c960298361062b565b91506108d48261086d565b604082019050919050565b600060208201905081810360008301526108f8816108bc565b9050919050565b7f4e487b7100000000000000000000000000000000000000000000000000000000600052602260045260246000fd5b6000600282049050600182168061094657607f821691505b6020821081141561095a576109596108ff565b5b50919050565b7f4f6e6c7920726566657265652063616e2072656a65637420617070726f76616c60008201527f2072657175657374000000000000000000000000000000000000000000000000602082015250565b60006109bc60288361062b565b91506109c782610960565b604082019050919050565b600060208201905081810360008301526109eb816109af565b905091905056fea2646970667358221220545a28d113a3cbfb7429af5f711e093183f3ceaf6a0664589b435746a0ff6f9e64736f6c634300080c003360806040526040516200119c3803806200119c83398181016040528101906200002991906200044b565b856000806101000a81548173ffffffffffffffffffffffffffffffffffffffff021916908373ffffffffffffffffffffffffffffffffffffffff16021790555084600160006101000a81548173ffffffffffffffffffffffffffffffffffffffff021916908373ffffffffffffffffffffffffffffffffffffffff1602179055508360029080519060200190620000c29291906200015e565b508260039080519060200190620000db9291906200015e565b5081600460006101000a81548173ffffffffffffffffffffffffffffffffffffffff021916908373ffffffffffffffffffffffffffffffffffffffff160217905550806005819055506000600660006101000a81548160ff021916908360028111156200014d576200014c62000525565b5b0217905550505050505050620005b9565b8280546200016c9062000583565b90600052602060002090601f016020900481019282620001905760008555620001dc565b82601f10620001ab57805160ff1916838001178555620001dc565b82800160010185558215620001dc579182015b82811115620001db578251825591602001919060010190620001be565b5b509050620001eb9190620001ef565b5090565b5b808211156200020a576000816000905550600101620001f0565b5090565b6000604051905090565b600080fd5b600080fd5b600073ffffffffffffffffffffffffffffffffffffffff82169050919050565b60006200024f8262000222565b9050919050565b620002618162000242565b81146200026d57600080fd5b50565b600081519050620002818162000256565b92915050565b600080fd5b600080fd5b6000601f19601f8301169050919050565b7f4e487b7100000000000000000000000000000000000000000000000000000000600052604160045260246000fd5b620002dc8262000291565b810181811067ffffffffffffffff82111715620002fe57620002fd620002a2565b5b80604052505050565b6000620003136200020e565b9050620003218282620002d1565b919050565b600067ffffffffffffffff821115620003445762000343620002a2565b5b6200034f8262000291565b9050602081019050919050565b60005b838110156200037c5780820151818401526020810190506200035f565b838111156200038c576000848401525b50505050565b6000620003a9620003a38462000326565b62000307565b905082815260208101848484011115620003c857620003c76200028c565b5b620003d58482856200035c565b509392505050565b600082601f830112620003f557620003f462000287565b5b81516200040784826020860162000392565b91505092915050565b6000819050919050565b620004258162000410565b81146200043157600080fd5b50565b60008151905062000445816200041a565b92915050565b60008060008060008060c087890312156200046b576200046a62000218565b5b60006200047b89828a0162000270565b96505060206200048e89828a0162000270565b955050604087015167ffffffffffffffff811115620004b257620004b16200021d565b5b620004c089828a01620003dd565b945050606087015167ffffffffffffffff811115620004e457620004e36200021d565b5b620004f289828a01620003dd565b93505060806200050589828a0162000270565b92505060a06200051889828a0162000434565b9150509295509295509295565b7f4e487b7100000000000000000000000000000000000000000000000000000000600052602160045260246000fd5b7f4e487b7100000000000000000000000000000000000000000000000000000000600052602260045260246000fd5b600060028204905060018216806200059c57607f821691505b60208210811415620005b357620005b262000554565b5b50919050565b610bd380620005c96000396000f3fe6080604052600436106100865760003560e01c80633b1bebd1116100595780633b1bebd11461012a5780634177fe51146101555780637284e41614610180578063aa8c217c146101ab578063b4fedc11146101d657610086565b806302d05d3f1461008b57806306fdde03146100b6578063200d2ed2146100e15780632d398fa61461010c575b600080fd5b34801561009757600080fd5b506100a06101f4565b6040516100ad9190610770565b60405180910390f35b3480156100c257600080fd5b506100cb610218565b6040516100d89190610824565b60405180910390f35b3480156100ed57600080fd5b506100f66102a6565b60405161010391906108bd565b60405180910390f35b6101146102b9565b6040516101219190610937565b60405180910390f35b34801561013657600080fd5b5061013f6104b0565b60405161014c9190610770565b60405180910390f35b34801561016157600080fd5b5061016a6104d6565b6040516101779190610770565b60405180910390f35b34801561018c57600080fd5b506101956104fc565b6040516101a29190610824565b60405180910390f35b3480156101b757600080fd5b506101c061058a565b6040516101cd919061096b565b60405180910390f35b6101de610590565b6040516101eb9190610937565b60405180910390f35b60008054906101000a900473ffffffffffffffffffffffffffffffffffffffff1681565b60028054610225906109b5565b80601f0160208091040260200160405190810160405280929190818152602001828054610251906109b5565b801561029e5780601f106102735761010080835404028352916020019161029e565b820191906000526020600020905b81548152906001019060200180831161028157829003601f168201915b505050505081565b600660009054906101000a900460ff1681565b60008060028111156102ce576102cd610846565b5b600660009054906101000a900460ff1660028111156102f0576102ef610846565b5b14610330576040517f08c379a000000000000000000000000000000000000000000000000000000000815260040161032790610a59565b60405180910390fd5b600160009054906101000a900473ffffffffffffffffffffffffffffffffffffffff1673ffffffffffffffffffffffffffffffffffffffff163273ffffffffffffffffffffffffffffffffffffffff1614806103d7575060008054906101000a900473ffffffffffffffffffffffffffffffffffffffff1673ffffffffffffffffffffffffffffffffffffffff163273ffffffffffffffffffffffffffffffffffffffff16145b610416576040517f08c379a000000000000000000000000000000000000000000000000000000000815260040161040d90610aeb565b60405180910390fd5b600460009054906101000a900473ffffffffffffffffffffffffffffffffffffffff1673ffffffffffffffffffffffffffffffffffffffff166108fc479081150290604051600060405180830381858888f1935050505015801561047e573d6000803e3d6000fd5b506002600660006101000a81548160ff021916908360028111156104a5576104a4610846565b5b021790555030905090565b600160009054906101000a900473ffffffffffffffffffffffffffffffffffffffff1681565b600460009054906101000a900473ffffffffffffffffffffffffffffffffffffffff1681565b60038054610509906109b5565b80601f0160208091040260200160405190810160405280929190818152602001828054610535906109b5565b80156105825780601f1061055757610100808354040283529160200191610582565b820191906000526020600020905b81548152906001019060200180831161056557829003601f168201915b505050505081565b60055481565b60008060028111156105a5576105a4610846565b5b600660009054906101000a900460ff1660028111156105c7576105c6610846565b5b14610607576040517f08c379a00000000000000000000000000000000000000000000000000000000081526004016105fe90610a59565b60405180910390fd5b600160009054906101000a900473ffffffffffffffffffffffffffffffffffffffff1673ffffffffffffffffffffffffffffffffffffffff163273ffffffffffffffffffffffffffffffffffffffff1614610697576040517f08c379a000000000000000000000000000000000000000000000000000000000815260040161068e90610b7d565b60405180910390fd5b60008054906101000a900473ffffffffffffffffffffffffffffffffffffffff1673ffffffffffffffffffffffffffffffffffffffff166108fc479081150290604051600060405180830381858888f193505050501580156106fd573d6000803e3d6000fd5b506001600660006101000a81548160ff0219169083600281111561072457610723610846565b5b021790555030905090565b600073ffffffffffffffffffffffffffffffffffffffff82169050919050565b600061075a8261072f565b9050919050565b61076a8161074f565b82525050565b60006020820190506107856000830184610761565b92915050565b600081519050919050565b600082825260208201905092915050565b60005b838110156107c55780820151818401526020810190506107aa565b838111156107d4576000848401525b50505050565b6000601f19601f8301169050919050565b60006107f68261078b565b6108008185610796565b93506108108185602086016107a7565b610819816107da565b840191505092915050565b6000602082019050818103600083015261083e81846107eb565b905092915050565b7f4e487b7100000000000000000000000000000000000000000000000000000000600052602160045260246000fd5b6003811061088657610885610846565b5b50565b600081905061089782610875565b919050565b60006108a782610889565b9050919050565b6108b78161089c565b82525050565b60006020820190506108d260008301846108ae565b92915050565b6000819050919050565b60006108fd6108f86108f38461072f565b6108d8565b61072f565b9050919050565b600061090f826108e2565b9050919050565b600061092182610904565b9050919050565b61093181610916565b82525050565b600060208201905061094c6000830184610928565b92915050565b6000819050919050565b61096581610952565b82525050565b6000602082019050610980600083018461095c565b92915050565b7f4e487b7100000000000000000000000000000000000000000000000000000000600052602260045260246000fd5b600060028204905060018216806109cd57607f821691505b602082108114156109e1576109e0610986565b5b50919050565b7f436f6e747261637420737461747573206973206e6f7420657175616c20746f2060008201527f6f70656e00000000000000000000000000000000000000000000000000000000602082015250565b6000610a43602483610796565b9150610a4e826109e7565b604082019050919050565b60006020820190508181036000830152610a7281610a36565b9050919050565b7f4f6e6c792072656665726565206f722063726561746f722063616e206661696c60008201527f20636f6e74726163740000000000000000000000000000000000000000000000602082015250565b6000610ad5602983610796565b9150610ae082610a79565b604082019050919050565b60006020820190508181036000830152610b0481610ac8565b9050919050565b7f4f6e6c7920726566657265652063616e20636f6d706c657465206120636f6e7460008201527f7261637400000000000000000000000000000000000000000000000000000000602082015250565b6000610b67602483610796565b9150610b7282610b0b565b604082019050919050565b60006020820190508181036000830152610b9681610b5a565b905091905056fea26469706673582212208a37549d69e3ba78944c331a4521f9f16cc23a19f688291ed3e73ad3b815515664736f6c634300080c0033a264697066735822122045bb92458f506d60630dda0ea3789371560b488e47881ee71a18e5641e3712a964736f6c634300080c0033","opcodes":"PUSH1 0x80 PUSH1 0x40 MSTORE CALLVALUE DUP1 ISZERO PUSH2 0x10 JUMPI PUSH1 0x0 DUP1 REVERT JUMPDEST POP PUSH2 0x570C DUP1 PUSH2 0x20 PUSH1 0x0 CODECOPY PUSH1 0x0 RETURN INVALID PUSH1 0x80 PUSH1 0x40 MSTORE PUSH1 0x4 CALLDATASIZE LT PUSH3 0x152 JUMPI PUSH1 0x0 CALLDATALOAD PUSH1 0xE0 SHR DUP1 PUSH4 0x75CE46A7 GT PUSH3 0xBB JUMPI DUP1 PUSH4 0xB24E67D0 GT PUSH3 0x79 JUMPI DUP1 PUSH4 0xB24E67D0 EQ PUSH3 0x52D JUMPI DUP1 PUSH4 0xB3B6633E EQ PUSH3 0x571 JUMPI DUP1 PUSH4 0xD77399E5 EQ PUSH3 0x5A1 JUMPI DUP1 PUSH4 0xDC0E0C13 EQ PUSH3 0x5CF JUMPI DUP1 PUSH4 0xE10BC834 EQ PUSH3 0x5FF JUMPI DUP1 PUSH4 0xE436E826 EQ PUSH3 0x62D JUMPI PUSH3 0x152 JUMP JUMPDEST DUP1 PUSH4 0x75CE46A7 EQ PUSH3 0x3ED JUMPI DUP1 PUSH4 0x8793ED80 EQ PUSH3 0x41D JUMPI DUP1 PUSH4 0x9051E234 EQ PUSH3 0x461 JUMPI DUP1 PUSH4 0xA87430BA EQ PUSH3 0x4A5 JUMPI DUP1 PUSH4 0xA908F4FA EQ PUSH3 0x4E9 JUMPI PUSH3 0x152 JUMP JUMPDEST DUP1 PUSH4 0x442A7BC7 GT PUSH3 0x115 JUMPI DUP1 PUSH4 0x442A7BC7 EQ PUSH3 0x295 JUMPI DUP1 PUSH4 0x4841A885 EQ PUSH3 0x2D9 JUMPI DUP1 PUSH4 0x502C9BD5 EQ PUSH3 0x309 JUMPI DUP1 PUSH4 0x5B259ABF EQ PUSH3 0x34D JUMPI DUP1 PUSH4 0x61542C44 EQ PUSH3 0x37B JUMPI DUP1 PUSH4 0x64A60B47 EQ PUSH3 0x3A9 JUMPI PUSH3 0x152 JUMP JUMPDEST DUP1 PUSH4 0x61DFF9A EQ PUSH3 0x157 JUMPI DUP1 PUSH4 0xE865751 EQ PUSH3 0x185 JUMPI DUP1 PUSH4 0x19EE8BD4 EQ PUSH3 0x1C9 JUMPI DUP1 PUSH4 0x38DB44BC EQ PUSH3 0x20D JUMPI DUP1 PUSH4 0x38FB42FD EQ PUSH3 0x251 JUMPI JUMPDEST PUSH1 0x0 DUP1 REVERT JUMPDEST CALLVALUE DUP1 ISZERO PUSH3 0x164 JUMPI PUSH1 0x0 DUP1 REVERT JUMPDEST POP PUSH3 0x183 PUSH1 0x4 DUP1 CALLDATASIZE SUB DUP2 ADD SWAP1 PUSH3 0x17D SWAP2 SWAP1 PUSH3 0x2BB4 JUMP JUMPDEST PUSH3 0x64D JUMP JUMPDEST STOP JUMPDEST CALLVALUE DUP1 ISZERO PUSH3 0x192 JUMPI PUSH1 0x0 DUP1 REVERT JUMPDEST POP PUSH3 0x1B1 PUSH1 0x4 DUP1 CALLDATASIZE SUB DUP2 ADD SWAP1 PUSH3 0x1AB SWAP2 SWAP1 PUSH3 0x2C21 JUMP JUMPDEST PUSH3 0x7CA JUMP JUMPDEST PUSH1 0x40 MLOAD PUSH3 0x1C0 SWAP2 SWAP1 PUSH3 0x2D36 JUMP JUMPDEST PUSH1 0x40 MLOAD DUP1 SWAP2 SUB SWAP1 RETURN JUMPDEST CALLVALUE DUP1 ISZERO PUSH3 0x1D6 JUMPI PUSH1 0x0 DUP1 REVERT JUMPDEST POP PUSH3 0x1F5 PUSH1 0x4 DUP1 CALLDATASIZE SUB DUP2 ADD SWAP1 PUSH3 0x1EF SWAP2 SWAP1 PUSH3 0x2BB4 JUMP JUMPDEST PUSH3 0x97E JUMP JUMPDEST PUSH1 0x40 MLOAD PUSH3 0x204 SWAP2 SWAP1 PUSH3 0x2D36 JUMP JUMPDEST PUSH1 0x40 MLOAD DUP1 SWAP2 SUB SWAP1 RETURN JUMPDEST CALLVALUE DUP1 ISZERO PUSH3 0x21A JUMPI PUSH1 0x0 DUP1 REVERT JUMPDEST POP PUSH3 0x239 PUSH1 0x4 DUP1 CALLDATASIZE SUB DUP2 ADD SWAP1 PUSH3 0x233 SWAP2 SWAP1 PUSH3 0x2D5A JUMP JUMPDEST PUSH3 0xA50 JUMP JUMPDEST PUSH1 0x40 MLOAD PUSH3 0x248 SWAP2 SWAP1 PUSH3 0x2D9D JUMP JUMPDEST PUSH1 0x40 MLOAD DUP1 SWAP2 SUB SWAP1 RETURN JUMPDEST CALLVALUE DUP1 ISZERO PUSH3 0x25E JUMPI PUSH1 0x0 DUP1 REVERT JUMPDEST POP PUSH3 0x27D PUSH1 0x4 DUP1 CALLDATASIZE SUB DUP2 ADD SWAP1 PUSH3 0x277 SWAP2 SWAP1 PUSH3 0x2D5A JUMP JUMPDEST PUSH3 0xA90 JUMP JUMPDEST PUSH1 0x40 MLOAD PUSH3 0x28C SWAP2 SWAP1 PUSH3 0x2D9D JUMP JUMPDEST PUSH1 0x40 MLOAD DUP1 SWAP2 SUB SWAP1 RETURN JUMPDEST CALLVALUE DUP1 ISZERO PUSH3 0x2A2 JUMPI PUSH1 0x0 DUP1 REVERT JUMPDEST POP PUSH3 0x2C1 PUSH1 0x4 DUP1 CALLDATASIZE SUB DUP2 ADD SWAP1 PUSH3 0x2BB SWAP2 SWAP1 PUSH3 0x2BB4 JUMP JUMPDEST PUSH3 0xAD0 JUMP JUMPDEST PUSH1 0x40 MLOAD PUSH3 0x2D0 SWAP2 SWAP1 PUSH3 0x2D36 JUMP JUMPDEST PUSH1 0x40 MLOAD DUP1 SWAP2 SUB SWAP1 RETURN JUMPDEST CALLVALUE DUP1 ISZERO PUSH3 0x2E6 JUMPI PUSH1 0x0 DUP1 REVERT JUMPDEST POP PUSH3 0x2F1 PUSH3 0xBA1 JUMP JUMPDEST PUSH1 0x40 MLOAD PUSH3 0x300 SWAP2 SWAP1 PUSH3 0x2DCB JUMP JUMPDEST PUSH1 0x40 MLOAD DUP1 SWAP2 SUB SWAP1 RETURN JUMPDEST CALLVALUE DUP1 ISZERO PUSH3 0x316 JUMPI PUSH1 0x0 DUP1 REVERT JUMPDEST POP PUSH3 0x335 PUSH1 0x4 DUP1 CALLDATASIZE SUB DUP2 ADD SWAP1 PUSH3 0x32F SWAP2 SWAP1 PUSH3 0x2D5A JUMP JUMPDEST PUSH3 0xBA7 JUMP JUMPDEST PUSH1 0x40 MLOAD PUSH3 0x344 SWAP2 SWAP1 PUSH3 0x2D9D JUMP JUMPDEST PUSH1 0x40 MLOAD DUP1 SWAP2 SUB SWAP1 RETURN JUMPDEST CALLVALUE DUP1 ISZERO PUSH3 0x35A JUMPI PUSH1 0x0 DUP1 REVERT JUMPDEST POP PUSH3 0x379 PUSH1 0x4 DUP1 CALLDATASIZE SUB DUP2 ADD SWAP1 PUSH3 0x373 SWAP2 SWAP1 PUSH3 0x2BB4 JUMP JUMPDEST PUSH3 0xBE7 JUMP JUMPDEST STOP JUMPDEST CALLVALUE DUP1 ISZERO PUSH3 0x388 JUMPI PUSH1 0x0 DUP1 REVERT JUMPDEST POP PUSH3 0x3A7 PUSH1 0x4 DUP1 CALLDATASIZE SUB DUP2 ADD SWAP1 PUSH3 0x3A1 SWAP2 SWAP1 PUSH3 0x2BB4 JUMP JUMPDEST PUSH3 0xD5F JUMP JUMPDEST STOP JUMPDEST CALLVALUE DUP1 ISZERO PUSH3 0x3B6 JUMPI PUSH1 0x0 DUP1 REVERT JUMPDEST POP PUSH3 0x3D5 PUSH1 0x4 DUP1 CALLDATASIZE SUB DUP2 ADD SWAP1 PUSH3 0x3CF SWAP2 SWAP1 PUSH3 0x2BB4 JUMP JUMPDEST PUSH3 0xED7 JUMP JUMPDEST PUSH1 0x40 MLOAD PUSH3 0x3E4 SWAP2 SWAP1 PUSH3 0x2DCB JUMP JUMPDEST PUSH1 0x40 MLOAD DUP1 SWAP2 SUB SWAP1 RETURN JUMPDEST CALLVALUE DUP1 ISZERO PUSH3 0x3FA JUMPI PUSH1 0x0 DUP1 REVERT JUMPDEST POP PUSH3 0x405 PUSH3 0xEF5 JUMP JUMPDEST PUSH1 0x40 MLOAD PUSH3 0x414 SWAP2 SWAP1 PUSH3 0x2DCB JUMP JUMPDEST PUSH1 0x40 MLOAD DUP1 SWAP2 SUB SWAP1 RETURN JUMPDEST CALLVALUE DUP1 ISZERO PUSH3 0x42A JUMPI PUSH1 0x0 DUP1 REVERT JUMPDEST POP PUSH3 0x449 PUSH1 0x4 DUP1 CALLDATASIZE SUB DUP2 ADD SWAP1 PUSH3 0x443 SWAP2 SWAP1 PUSH3 0x2BB4 JUMP JUMPDEST PUSH3 0xEFB JUMP JUMPDEST PUSH1 0x40 MLOAD PUSH3 0x458 SWAP2 SWAP1 PUSH3 0x2D36 JUMP JUMPDEST PUSH1 0x40 MLOAD DUP1 SWAP2 SUB SWAP1 RETURN JUMPDEST CALLVALUE DUP1 ISZERO PUSH3 0x46E JUMPI PUSH1 0x0 DUP1 REVERT JUMPDEST POP PUSH3 0x48D PUSH1 0x4 DUP1 CALLDATASIZE SUB DUP2 ADD SWAP1 PUSH3 0x487 SWAP2 SWAP1 PUSH3 0x2BB4 JUMP JUMPDEST PUSH3 0xFCD JUMP JUMPDEST PUSH1 0x40 MLOAD PUSH3 0x49C SWAP2 SWAP1 PUSH3 0x2D36 JUMP JUMPDEST PUSH1 0x40 MLOAD DUP1 SWAP2 SUB SWAP1 RETURN JUMPDEST CALLVALUE DUP1 ISZERO PUSH3 0x4B2 JUMPI PUSH1 0x0 DUP1 REVERT JUMPDEST POP PUSH3 0x4D1 PUSH1 0x4 DUP1 CALLDATASIZE SUB DUP2 ADD SWAP1 PUSH3 0x4CB SWAP2 SWAP1 PUSH3 0x2BB4 JUMP JUMPDEST PUSH3 0x109F JUMP JUMPDEST PUSH1 0x40 MLOAD PUSH3 0x4E0 SWAP2 SWAP1 PUSH3 0x2DCB JUMP JUMPDEST PUSH1 0x40 MLOAD DUP1 SWAP2 SUB SWAP1 RETURN JUMPDEST CALLVALUE DUP1 ISZERO PUSH3 0x4F6 JUMPI PUSH1 0x0 DUP1 REVERT JUMPDEST POP PUSH3 0x515 PUSH1 0x4 DUP1 CALLDATASIZE SUB DUP2 ADD SWAP1 PUSH3 0x50F SWAP2 SWAP1 PUSH3 0x2C21 JUMP JUMPDEST PUSH3 0x10BD JUMP JUMPDEST PUSH1 0x40 MLOAD PUSH3 0x524 SWAP2 SWAP1 PUSH3 0x2D36 JUMP JUMPDEST PUSH1 0x40 MLOAD DUP1 SWAP2 SUB SWAP1 RETURN JUMPDEST CALLVALUE DUP1 ISZERO PUSH3 0x53A JUMPI PUSH1 0x0 DUP1 REVERT JUMPDEST POP PUSH3 0x559 PUSH1 0x4 DUP1 CALLDATASIZE SUB DUP2 ADD SWAP1 PUSH3 0x553 SWAP2 SWAP1 PUSH3 0x2BB4 JUMP JUMPDEST PUSH3 0x1271 JUMP JUMPDEST PUSH1 0x40 MLOAD PUSH3 0x568 SWAP2 SWAP1 PUSH3 0x2D36 JUMP JUMPDEST PUSH1 0x40 MLOAD DUP1 SWAP2 SUB SWAP1 RETURN JUMPDEST CALLVALUE DUP1 ISZERO PUSH3 0x57E JUMPI PUSH1 0x0 DUP1 REVERT JUMPDEST POP PUSH3 0x589 PUSH3 0x1342 JUMP JUMPDEST PUSH1 0x40 MLOAD PUSH3 0x598 SWAP2 SWAP1 PUSH3 0x2DCB JUMP JUMPDEST PUSH1 0x40 MLOAD DUP1 SWAP2 SUB SWAP1 RETURN JUMPDEST CALLVALUE DUP1 ISZERO PUSH3 0x5AE JUMPI PUSH1 0x0 DUP1 REVERT JUMPDEST POP PUSH3 0x5CD PUSH1 0x4 DUP1 CALLDATASIZE SUB DUP2 ADD SWAP1 PUSH3 0x5C7 SWAP2 SWAP1 PUSH3 0x2F4A JUMP JUMPDEST PUSH3 0x1348 JUMP JUMPDEST STOP JUMPDEST CALLVALUE DUP1 ISZERO PUSH3 0x5DC JUMPI PUSH1 0x0 DUP1 REVERT JUMPDEST POP PUSH3 0x5E7 PUSH3 0x14D3 JUMP JUMPDEST PUSH1 0x40 MLOAD PUSH3 0x5F6 SWAP2 SWAP1 PUSH3 0x2DCB JUMP JUMPDEST PUSH1 0x40 MLOAD DUP1 SWAP2 SUB SWAP1 RETURN JUMPDEST CALLVALUE DUP1 ISZERO PUSH3 0x60C JUMPI PUSH1 0x0 DUP1 REVERT JUMPDEST POP PUSH3 0x62B PUSH1 0x4 DUP1 CALLDATASIZE SUB DUP2 ADD SWAP1 PUSH3 0x625 SWAP2 SWAP1 PUSH3 0x2BB4 JUMP JUMPDEST PUSH3 0x14D9 JUMP JUMPDEST STOP JUMPDEST PUSH3 0x64B PUSH1 0x4 DUP1 CALLDATASIZE SUB DUP2 ADD SWAP1 PUSH3 0x645 SWAP2 SWAP1 PUSH3 0x2FF5 JUMP JUMPDEST PUSH3 0x194B JUMP JUMPDEST STOP JUMPDEST PUSH1 0x0 DUP2 SWAP1 POP PUSH1 0x0 DUP2 PUSH20 0xFFFFFFFFFFFFFFFFFFFFFFFFFFFFFFFFFFFFFFFF AND PUSH4 0x3C490174 PUSH1 0x40 MLOAD DUP2 PUSH4 0xFFFFFFFF AND PUSH1 0xE0 SHL DUP2 MSTORE PUSH1 0x4 ADD PUSH1 0x20 PUSH1 0x40 MLOAD DUP1 DUP4 SUB DUP2 DUP7 GAS STATICCALL ISZERO DUP1 ISZERO PUSH3 0x6A0 JUMPI RETURNDATASIZE PUSH1 0x0 DUP1 RETURNDATACOPY RETURNDATASIZE PUSH1 0x0 REVERT JUMPDEST POP POP POP POP PUSH1 0x40 MLOAD RETURNDATASIZE PUSH1 0x1F NOT PUSH1 0x1F DUP3 ADD AND DUP3 ADD DUP1 PUSH1 0x40 MSTORE POP DUP2 ADD SWAP1 PUSH3 0x6C6 SWAP2 SWAP1 PUSH3 0x30BC JUMP JUMPDEST SWAP1 POP DUP2 PUSH20 0xFFFFFFFFFFFFFFFFFFFFFFFFFFFFFFFFFFFFFFFF AND PUSH4 0x263B81C9 PUSH1 0x40 MLOAD DUP2 PUSH4 0xFFFFFFFF AND PUSH1 0xE0 SHL DUP2 MSTORE PUSH1 0x4 ADD PUSH1 0x20 PUSH1 0x40 MLOAD DUP1 DUP4 SUB DUP2 PUSH1 0x0 DUP8 GAS CALL ISZERO DUP1 ISZERO PUSH3 0x716 JUMPI RETURNDATASIZE PUSH1 0x0 DUP1 RETURNDATACOPY RETURNDATASIZE PUSH1 0x0 REVERT JUMPDEST POP POP POP POP PUSH1 0x40 MLOAD RETURNDATASIZE PUSH1 0x1F NOT PUSH1 0x1F DUP3 ADD AND DUP3 ADD DUP1 PUSH1 0x40 MSTORE POP DUP2 ADD SWAP1 PUSH3 0x73C SWAP2 SWAP1 PUSH3 0x3133 JUMP JUMPDEST POP PUSH3 0x748 DUP2 PUSH3 0xD5F JUMP JUMPDEST PUSH3 0x7C5 DUP2 PUSH20 0xFFFFFFFFFFFFFFFFFFFFFFFFFFFFFFFFFFFFFFFF AND PUSH4 0x3B1BEBD1 PUSH1 0x40 MLOAD DUP2 PUSH4 0xFFFFFFFF AND PUSH1 0xE0 SHL DUP2 MSTORE PUSH1 0x4 ADD PUSH1 0x20 PUSH1 0x40 MLOAD DUP1 DUP4 SUB DUP2 DUP7 GAS STATICCALL ISZERO DUP1 ISZERO PUSH3 0x798 JUMPI RETURNDATASIZE PUSH1 0x0 DUP1 RETURNDATACOPY RETURNDATASIZE PUSH1 0x0 REVERT JUMPDEST POP POP POP POP PUSH1 0x40 MLOAD RETURNDATASIZE PUSH1 0x1F NOT PUSH1 0x1F DUP3 ADD AND DUP3 ADD DUP1 PUSH1 0x40 MSTORE POP DUP2 ADD SWAP1 PUSH3 0x7BE SWAP2 SWAP1 PUSH3 0x30BC JUMP JUMPDEST DUP5 PUSH3 0x1DBE JUMP JUMPDEST POP POP POP JUMP JUMPDEST PUSH1 0x60 PUSH1 0x0 DUP4 LT ISZERO PUSH3 0x813 JUMPI PUSH1 0x40 MLOAD PUSH32 0x8C379A000000000000000000000000000000000000000000000000000000000 DUP2 MSTORE PUSH1 0x4 ADD PUSH3 0x80A SWAP1 PUSH3 0x31C6 JUMP JUMPDEST PUSH1 0x40 MLOAD DUP1 SWAP2 SUB SWAP1 REVERT JUMPDEST PUSH1 0x3 DUP1 SLOAD SWAP1 POP DUP3 GT ISZERO PUSH3 0x85E JUMPI PUSH1 0x40 MLOAD PUSH32 0x8C379A000000000000000000000000000000000000000000000000000000000 DUP2 MSTORE PUSH1 0x4 ADD PUSH3 0x855 SWAP1 PUSH3 0x325E JUMP JUMPDEST PUSH1 0x40 MLOAD DUP1 SWAP2 SUB SWAP1 REVERT JUMPDEST PUSH1 0x0 DUP4 DUP4 PUSH3 0x86E SWAP2 SWAP1 PUSH3 0x32AF JUMP JUMPDEST PUSH8 0xFFFFFFFFFFFFFFFF DUP2 GT ISZERO PUSH3 0x88A JUMPI PUSH3 0x889 PUSH3 0x2E03 JUMP JUMPDEST JUMPDEST PUSH1 0x40 MLOAD SWAP1 DUP1 DUP3 MSTORE DUP1 PUSH1 0x20 MUL PUSH1 0x20 ADD DUP3 ADD PUSH1 0x40 MSTORE DUP1 ISZERO PUSH3 0x8B9 JUMPI DUP2 PUSH1 0x20 ADD PUSH1 0x20 DUP3 MUL DUP1 CALLDATASIZE DUP4 CALLDATACOPY DUP1 DUP3 ADD SWAP2 POP POP SWAP1 POP JUMPDEST POP SWAP1 POP PUSH1 0x0 DUP5 SWAP1 POP JUMPDEST DUP4 DUP2 LT ISZERO PUSH3 0x973 JUMPI PUSH1 0x3 DUP2 DUP2 SLOAD DUP2 LT PUSH3 0x8E2 JUMPI PUSH3 0x8E1 PUSH3 0x32EA JUMP JUMPDEST JUMPDEST SWAP1 PUSH1 0x0 MSTORE PUSH1 0x20 PUSH1 0x0 KECCAK256 ADD PUSH1 0x0 SWAP1 SLOAD SWAP1 PUSH2 0x100 EXP SWAP1 DIV PUSH20 0xFFFFFFFFFFFFFFFFFFFFFFFFFFFFFFFFFFFFFFFF AND DUP3 DUP3 DUP2 MLOAD DUP2 LT PUSH3 0x923 JUMPI PUSH3 0x922 PUSH3 0x32EA JUMP JUMPDEST JUMPDEST PUSH1 0x20 MUL PUSH1 0x20 ADD ADD SWAP1 PUSH20 0xFFFFFFFFFFFFFFFFFFFFFFFFFFFFFFFFFFFFFFFF AND SWAP1 DUP2 PUSH20 0xFFFFFFFFFFFFFFFFFFFFFFFFFFFFFFFFFFFFFFFF AND DUP2 MSTORE POP POP DUP1 DUP1 PUSH3 0x96A SWAP1 PUSH3 0x3319 JUMP JUMPDEST SWAP2 POP POP PUSH3 0x8C2 JUMP JUMPDEST POP DUP1 SWAP2 POP POP SWAP3 SWAP2 POP POP JUMP JUMPDEST PUSH1 0x60 PUSH1 0x6 PUSH1 0x0 DUP4 PUSH20 0xFFFFFFFFFFFFFFFFFFFFFFFFFFFFFFFFFFFFFFFF AND PUSH20 0xFFFFFFFFFFFFFFFFFFFFFFFFFFFFFFFFFFFFFFFF AND DUP2 MSTORE PUSH1 0x20 ADD SWAP1 DUP2 MSTORE PUSH1 0x20 ADD PUSH1 0x0 KECCAK256 PUSH1 0x2 ADD DUP1 SLOAD DUP1 PUSH1 0x20 MUL PUSH1 0x20 ADD PUSH1 0x40 MLOAD SWAP1 DUP2 ADD PUSH1 0x40 MSTORE DUP1 SWAP3 SWAP2 SWAP1 DUP2 DUP2 MSTORE PUSH1 0x20 ADD DUP3 DUP1 SLOAD DUP1 ISZERO PUSH3 0xA44 JUMPI PUSH1 0x20 MUL DUP3 ADD SWAP2 SWAP1 PUSH1 0x0 MSTORE PUSH1 0x20 PUSH1 0x0 KECCAK256 SWAP1 JUMPDEST DUP2 PUSH1 0x0 SWAP1 SLOAD SWAP1 PUSH2 0x100 EXP SWAP1 DIV PUSH20 0xFFFFFFFFFFFFFFFFFFFFFFFFFFFFFFFFFFFFFFFF AND PUSH20 0xFFFFFFFFFFFFFFFFFFFFFFFFFFFFFFFFFFFFFFFF AND DUP2 MSTORE PUSH1 0x20 ADD SWAP1 PUSH1 0x1 ADD SWAP1 DUP1 DUP4 GT PUSH3 0x9F9 JUMPI JUMPDEST POP POP POP POP POP SWAP1 POP SWAP2 SWAP1 POP JUMP JUMPDEST PUSH1 0x3 DUP2 DUP2 SLOAD DUP2 LT PUSH3 0xA61 JUMPI PUSH1 0x0 DUP1 REVERT JUMPDEST SWAP1 PUSH1 0x0 MSTORE PUSH1 0x20 PUSH1 0x0 KECCAK256 ADD PUSH1 0x0 SWAP2 POP SLOAD SWAP1 PUSH2 0x100 EXP SWAP1 DIV PUSH20 0xFFFFFFFFFFFFFFFFFFFFFFFFFFFFFFFFFFFFFFFF AND DUP2 JUMP JUMPDEST PUSH1 0x8 DUP2 DUP2 SLOAD DUP2 LT PUSH3 0xAA1 JUMPI PUSH1 0x0 DUP1 REVERT JUMPDEST SWAP1 PUSH1 0x0 MSTORE PUSH1 0x20 PUSH1 0x0 KECCAK256 ADD PUSH1 0x0 SWAP2 POP SLOAD SWAP1 PUSH2 0x100 EXP SWAP1 DIV PUSH20 0xFFFFFFFFFFFFFFFFFFFFFFFFFFFFFFFFFFFFFFFF AND DUP2 JUMP JUMPDEST PUSH1 0x60 PUSH1 0x0 DUP1 DUP4 PUSH20 0xFFFFFFFFFFFFFFFFFFFFFFFFFFFFFFFFFFFFFFFF AND PUSH20 0xFFFFFFFFFFFFFFFFFFFFFFFFFFFFFFFFFFFFFFFF AND DUP2 MSTORE PUSH1 0x20 ADD SWAP1 DUP2 MSTORE PUSH1 0x20 ADD PUSH1 0x0 KECCAK256 PUSH1 0x1 ADD DUP1 SLOAD DUP1 PUSH1 0x20 MUL PUSH1 0x20 ADD PUSH1 0x40 MLOAD SWAP1 DUP2 ADD PUSH1 0x40 MSTORE DUP1 SWAP3 SWAP2 SWAP1 DUP2 DUP2 MSTORE PUSH1 0x20 ADD DUP3 DUP1 SLOAD DUP1 ISZERO PUSH3 0xB95 JUMPI PUSH1 0x20 MUL DUP3 ADD SWAP2 SWAP1 PUSH1 0x0 MSTORE PUSH1 0x20 PUSH1 0x0 KECCAK256 SWAP1 JUMPDEST DUP2 PUSH1 0x0 SWAP1 SLOAD SWAP1 PUSH2 0x100 EXP SWAP1 DIV PUSH20 0xFFFFFFFFFFFFFFFFFFFFFFFFFFFFFFFFFFFFFFFF AND PUSH20 0xFFFFFFFFFFFFFFFFFFFFFFFFFFFFFFFFFFFFFFFF AND DUP2 MSTORE PUSH1 0x20 ADD SWAP1 PUSH1 0x1 ADD SWAP1 DUP1 DUP4 GT PUSH3 0xB4A JUMPI JUMPDEST POP POP POP POP POP SWAP1 POP SWAP2 SWAP1 POP JUMP JUMPDEST PUSH1 0x4 SLOAD DUP2 JUMP JUMPDEST PUSH1 0x1 DUP2 DUP2 SLOAD DUP2 LT PUSH3 0xBB8 JUMPI PUSH1 0x0 DUP1 REVERT JUMPDEST SWAP1 PUSH1 0x0 MSTORE PUSH1 0x20 PUSH1 0x0 KECCAK256 ADD PUSH1 0x0 SWAP2 POP SLOAD SWAP1 PUSH2 0x100 EXP SWAP1 DIV PUSH20 0xFFFFFFFFFFFFFFFFFFFFFFFFFFFFFFFFFFFFFFFF AND DUP2 JUMP JUMPDEST PUSH1 0x0 DUP2 SWAP1 POP DUP1 PUSH20 0xFFFFFFFFFFFFFFFFFFFFFFFFFFFFFFFFFFFFFFFF AND PUSH4 0x2D398FA6 PUSH1 0x40 MLOAD DUP2 PUSH4 0xFFFFFFFF AND PUSH1 0xE0 SHL DUP2 MSTORE PUSH1 0x4 ADD PUSH1 0x20 PUSH1 0x40 MLOAD DUP1 DUP4 SUB DUP2 PUSH1 0x0 DUP8 GAS CALL ISZERO DUP1 ISZERO PUSH3 0xC3A JUMPI RETURNDATASIZE PUSH1 0x0 DUP1 RETURNDATACOPY RETURNDATASIZE PUSH1 0x0 REVERT JUMPDEST POP POP POP POP PUSH1 0x40 MLOAD RETURNDATASIZE PUSH1 0x1F NOT PUSH1 0x1F DUP3 ADD AND DUP3 ADD DUP1 PUSH1 0x40 MSTORE POP DUP2 ADD SWAP1 PUSH3 0xC60 SWAP2 SWAP1 PUSH3 0x33AC JUMP JUMPDEST POP PUSH3 0xCDE DUP2 PUSH20 0xFFFFFFFFFFFFFFFFFFFFFFFFFFFFFFFFFFFFFFFF AND PUSH4 0x2D05D3F PUSH1 0x40 MLOAD DUP2 PUSH4 0xFFFFFFFF AND PUSH1 0xE0 SHL DUP2 MSTORE PUSH1 0x4 ADD PUSH1 0x20 PUSH1 0x40 MLOAD DUP1 DUP4 SUB DUP2 DUP7 GAS STATICCALL ISZERO DUP1 ISZERO PUSH3 0xCB1 JUMPI RETURNDATASIZE PUSH1 0x0 DUP1 RETURNDATACOPY RETURNDATASIZE PUSH1 0x0 REVERT JUMPDEST POP POP POP POP PUSH1 0x40 MLOAD RETURNDATASIZE PUSH1 0x1F NOT PUSH1 0x1F DUP3 ADD AND DUP3 ADD DUP1 PUSH1 0x40 MSTORE POP DUP2 ADD SWAP1 PUSH3 0xCD7 SWAP2 SWAP1 PUSH3 0x30BC JUMP JUMPDEST DUP4 PUSH3 0x212E JUMP JUMPDEST PUSH3 0xD5B DUP2 PUSH20 0xFFFFFFFFFFFFFFFFFFFFFFFFFFFFFFFFFFFFFFFF AND PUSH4 0x3B1BEBD1 PUSH1 0x40 MLOAD DUP2 PUSH4 0xFFFFFFFF AND PUSH1 0xE0 SHL DUP2 MSTORE PUSH1 0x4 ADD PUSH1 0x20 PUSH1 0x40 MLOAD DUP1 DUP4 SUB DUP2 DUP7 GAS STATICCALL ISZERO DUP1 ISZERO PUSH3 0xD2E JUMPI RETURNDATASIZE PUSH1 0x0 DUP1 RETURNDATACOPY RETURNDATASIZE PUSH1 0x0 REVERT JUMPDEST POP POP POP POP PUSH1 0x40 MLOAD RETURNDATASIZE PUSH1 0x1F NOT PUSH1 0x1F DUP3 ADD AND DUP3 ADD DUP1 PUSH1 0x40 MSTORE POP DUP2 ADD SWAP1 PUSH3 0xD54 SWAP2 SWAP1 PUSH3 0x30BC JUMP JUMPDEST DUP4 PUSH3 0x24EB JUMP JUMPDEST POP POP JUMP JUMPDEST PUSH1 0x0 DUP2 SWAP1 POP DUP1 PUSH20 0xFFFFFFFFFFFFFFFFFFFFFFFFFFFFFFFFFFFFFFFF AND PUSH4 0xB4FEDC11 PUSH1 0x40 MLOAD DUP2 PUSH4 0xFFFFFFFF AND PUSH1 0xE0 SHL DUP2 MSTORE PUSH1 0x4 ADD PUSH1 0x20 PUSH1 0x40 MLOAD DUP1 DUP4 SUB DUP2 PUSH1 0x0 DUP8 GAS CALL ISZERO DUP1 ISZERO PUSH3 0xDB2 JUMPI RETURNDATASIZE PUSH1 0x0 DUP1 RETURNDATACOPY RETURNDATASIZE PUSH1 0x0 REVERT JUMPDEST POP POP POP POP PUSH1 0x40 MLOAD RETURNDATASIZE PUSH1 0x1F NOT PUSH1 0x1F DUP3 ADD AND DUP3 ADD DUP1 PUSH1 0x40 MSTORE POP DUP2 ADD SWAP1 PUSH3 0xDD8 SWAP2 SWAP1 PUSH3 0x33AC JUMP JUMPDEST POP PUSH3 0xE56 DUP2 PUSH20 0xFFFFFFFFFFFFFFFFFFFFFFFFFFFFFFFFFFFFFFFF AND PUSH4 0x2D05D3F PUSH1 0x40 MLOAD DUP2 PUSH4 0xFFFFFFFF AND PUSH1 0xE0 SHL DUP2 MSTORE PUSH1 0x4 ADD PUSH1 0x20 PUSH1 0x40 MLOAD DUP1 DUP4 SUB DUP2 DUP7 GAS STATICCALL ISZERO DUP1 ISZERO PUSH3 0xE29 JUMPI RETURNDATASIZE PUSH1 0x0 DUP1 RETURNDATACOPY RETURNDATASIZE PUSH1 0x0 REVERT JUMPDEST POP POP POP POP PUSH1 0x40 MLOAD RETURNDATASIZE PUSH1 0x1F NOT PUSH1 0x1F DUP3 ADD AND DUP3 ADD DUP1 PUSH1 0x40 MSTORE POP DUP2 ADD SWAP1 PUSH3 0xE4F SWAP2 SWAP1 PUSH3 0x30BC JUMP JUMPDEST DUP4 PUSH3 0x212E JUMP JUMPDEST PUSH3 0xED3 DUP2 PUSH20 0xFFFFFFFFFFFFFFFFFFFFFFFFFFFFFFFFFFFFFFFF AND PUSH4 0x3B1BEBD1 PUSH1 0x40 MLOAD DUP2 PUSH4 0xFFFFFFFF AND PUSH1 0xE0 SHL DUP2 MSTORE PUSH1 0x4 ADD PUSH1 0x20 PUSH1 0x40 MLOAD DUP1 DUP4 SUB DUP2 DUP7 GAS STATICCALL ISZERO DUP1 ISZERO PUSH3 0xEA6 JUMPI RETURNDATASIZE PUSH1 0x0 DUP1 RETURNDATACOPY RETURNDATASIZE PUSH1 0x0 REVERT JUMPDEST POP POP POP POP PUSH1 0x40 MLOAD RETURNDATASIZE PUSH1 0x1F NOT PUSH1 0x1F DUP3 ADD AND DUP3 ADD DUP1 PUSH1 0x40 MSTORE POP DUP2 ADD SWAP1 PUSH3 0xECC SWAP2 SWAP1 PUSH3 0x30BC JUMP JUMPDEST DUP4 PUSH3 0x24EB JUMP JUMPDEST POP POP JUMP JUMPDEST PUSH1 0x6 PUSH1 0x20 MSTORE DUP1 PUSH1 0x0 MSTORE PUSH1 0x40 PUSH1 0x0 KECCAK256 PUSH1 0x0 SWAP2 POP SWAP1 POP DUP1 PUSH1 0x0 ADD SLOAD SWAP1 POP DUP2 JUMP JUMPDEST PUSH1 0x2 SLOAD DUP2 JUMP JUMPDEST PUSH1 0x60 PUSH1 0x6 PUSH1 0x0 DUP4 PUSH20 0xFFFFFFFFFFFFFFFFFFFFFFFFFFFFFFFFFFFFFFFF AND PUSH20 0xFFFFFFFFFFFFFFFFFFFFFFFFFFFFFFFFFFFFFFFF AND DUP2 MSTORE PUSH1 0x20 ADD SWAP1 DUP2 MSTORE PUSH1 0x20 ADD PUSH1 0x0 KECCAK256 PUSH1 0x3 ADD DUP1 SLOAD DUP1 PUSH1 0x20 MUL PUSH1 0x20 ADD PUSH1 0x40 MLOAD SWAP1 DUP2 ADD PUSH1 0x40 MSTORE DUP1 SWAP3 SWAP2 SWAP1 DUP2 DUP2 MSTORE PUSH1 0x20 ADD DUP3 DUP1 SLOAD DUP1 ISZERO PUSH3 0xFC1 JUMPI PUSH1 0x20 MUL DUP3 ADD SWAP2 SWAP1 PUSH1 0x0 MSTORE PUSH1 0x20 PUSH1 0x0 KECCAK256 SWAP1 JUMPDEST DUP2 PUSH1 0x0 SWAP1 SLOAD SWAP1 PUSH2 0x100 EXP SWAP1 DIV PUSH20 0xFFFFFFFFFFFFFFFFFFFFFFFFFFFFFFFFFFFFFFFF AND PUSH20 0xFFFFFFFFFFFFFFFFFFFFFFFFFFFFFFFFFFFFFFFF AND DUP2 MSTORE PUSH1 0x20 ADD SWAP1 PUSH1 0x1 ADD SWAP1 DUP1 DUP4 GT PUSH3 0xF76 JUMPI JUMPDEST POP POP POP POP POP SWAP1 POP SWAP2 SWAP1 POP JUMP JUMPDEST PUSH1 0x60 PUSH1 0x6 PUSH1 0x0 DUP4 PUSH20 0xFFFFFFFFFFFFFFFFFFFFFFFFFFFFFFFFFFFFFFFF AND PUSH20 0xFFFFFFFFFFFFFFFFFFFFFFFFFFFFFFFFFFFFFFFF AND DUP2 MSTORE PUSH1 0x20 ADD SWAP1 DUP2 MSTORE PUSH1 0x20 ADD PUSH1 0x0 KECCAK256 PUSH1 0x1 ADD DUP1 SLOAD DUP1 PUSH1 0x20 MUL PUSH1 0x20 ADD PUSH1 0x40 MLOAD SWAP1 DUP2 ADD PUSH1 0x40 MSTORE DUP1 SWAP3 SWAP2 SWAP1 DUP2 DUP2 MSTORE PUSH1 0x20 ADD DUP3 DUP1 SLOAD DUP1 ISZERO PUSH3 0x1093 JUMPI PUSH1 0x20 MUL DUP3 ADD SWAP2 SWAP1 PUSH1 0x0 MSTORE PUSH1 0x20 PUSH1 0x0 KECCAK256 SWAP1 JUMPDEST DUP2 PUSH1 0x0 SWAP1 SLOAD SWAP1 PUSH2 0x100 EXP SWAP1 DIV PUSH20 0xFFFFFFFFFFFFFFFFFFFFFFFFFFFFFFFFFFFFFFFF AND PUSH20 0xFFFFFFFFFFFFFFFFFFFFFFFFFFFFFFFFFFFFFFFF AND DUP2 MSTORE PUSH1 0x20 ADD SWAP1 PUSH1 0x1 ADD SWAP1 DUP1 DUP4 GT PUSH3 0x1048 JUMPI JUMPDEST POP POP POP POP POP SWAP1 POP SWAP2 SWAP1 POP JUMP JUMPDEST PUSH1 0x0 PUSH1 0x20 MSTORE DUP1 PUSH1 0x0 MSTORE PUSH1 0x40 PUSH1 0x0 KECCAK256 PUSH1 0x0 SWAP2 POP SWAP1 POP DUP1 PUSH1 0x0 ADD SLOAD SWAP1 POP DUP2 JUMP JUMPDEST PUSH1 0x60 PUSH1 0x0 DUP4 LT ISZERO PUSH3 0x1106 JUMPI PUSH1 0x40 MLOAD PUSH32 0x8C379A000000000000000000000000000000000000000000000000000000000 DUP2 MSTORE PUSH1 0x4 ADD PUSH3 0x10FD SWAP1 PUSH3 0x31C6 JUMP JUMPDEST PUSH1 0x40 MLOAD DUP1 SWAP2 SUB SWAP1 REVERT JUMPDEST PUSH1 0x1 DUP1 SLOAD SWAP1 POP DUP3 GT ISZERO PUSH3 0x1151 JUMPI PUSH1 0x40 MLOAD PUSH32 0x8C379A000000000000000000000000000000000000000000000000000000000 DUP2 MSTORE PUSH1 0x4 ADD PUSH3 0x1148 SWAP1 PUSH3 0x325E JUMP JUMPDEST PUSH1 0x40 MLOAD DUP1 SWAP2 SUB SWAP1 REVERT JUMPDEST PUSH1 0x0 DUP4 DUP4 PUSH3 0x1161 SWAP2 SWAP1 PUSH3 0x32AF JUMP JUMPDEST PUSH8 0xFFFFFFFFFFFFFFFF DUP2 GT ISZERO PUSH3 0x117D JUMPI PUSH3 0x117C PUSH3 0x2E03 JUMP JUMPDEST JUMPDEST PUSH1 0x40 MLOAD SWAP1 DUP1 DUP3 MSTORE DUP1 PUSH1 0x20 MUL PUSH1 0x20 ADD DUP3 ADD PUSH1 0x40 MSTORE DUP1 ISZERO PUSH3 0x11AC JUMPI DUP2 PUSH1 0x20 ADD PUSH1 0x20 DUP3 MUL DUP1 CALLDATASIZE DUP4 CALLDATACOPY DUP1 DUP3 ADD SWAP2 POP POP SWAP1 POP JUMPDEST POP SWAP1 POP PUSH1 0x0 DUP5 SWAP1 POP JUMPDEST DUP4 DUP2 LT ISZERO PUSH3 0x1266 JUMPI PUSH1 0x1 DUP2 DUP2 SLOAD DUP2 LT PUSH3 0x11D5 JUMPI PUSH3 0x11D4 PUSH3 0x32EA JUMP JUMPDEST JUMPDEST SWAP1 PUSH1 0x0 MSTORE PUSH1 0x20 PUSH1 0x0 KECCAK256 ADD PUSH1 0x0 SWAP1 SLOAD SWAP1 PUSH2 0x100 EXP SWAP1 DIV PUSH20 0xFFFFFFFFFFFFFFFFFFFFFFFFFFFFFFFFFFFFFFFF AND DUP3 DUP3 DUP2 MLOAD DUP2 LT PUSH3 0x1216 JUMPI PUSH3 0x1215 PUSH3 0x32EA JUMP JUMPDEST JUMPDEST PUSH1 0x20 MUL PUSH1 0x20 ADD ADD SWAP1 PUSH20 0xFFFFFFFFFFFFFFFFFFFFFFFFFFFFFFFFFFFFFFFF AND SWAP1 DUP2 PUSH20 0xFFFFFFFFFFFFFFFFFFFFFFFFFFFFFFFFFFFFFFFF AND DUP2 MSTORE POP POP DUP1 DUP1 PUSH3 0x125D SWAP1 PUSH3 0x3319 JUMP JUMPDEST SWAP2 POP POP PUSH3 0x11B5 JUMP JUMPDEST POP DUP1 SWAP2 POP POP SWAP3 SWAP2 POP POP JUMP JUMPDEST PUSH1 0x60 PUSH1 0x0 DUP1 DUP4 PUSH20 0xFFFFFFFFFFFFFFFFFFFFFFFFFFFFFFFFFFFFFFFF AND PUSH20 0xFFFFFFFFFFFFFFFFFFFFFFFFFFFFFFFFFFFFFFFF AND DUP2 MSTORE PUSH1 0x20 ADD SWAP1 DUP2 MSTORE PUSH1 0x20 ADD PUSH1 0x0 KECCAK256 PUSH1 0x2 ADD DUP1 SLOAD DUP1 PUSH1 0x20 MUL PUSH1 0x20 ADD PUSH1 0x40 MLOAD SWAP1 DUP2 ADD PUSH1 0x40 MSTORE DUP1 SWAP3 SWAP2 SWAP1 DUP2 DUP2 MSTORE PUSH1 0x20 ADD DUP3 DUP1 SLOAD DUP1 ISZERO PUSH3 0x1336 JUMPI PUSH1 0x20 MUL DUP3 ADD SWAP2 SWAP1 PUSH1 0x0 MSTORE PUSH1 0x20 PUSH1 0x0 KECCAK256 SWAP1 JUMPDEST DUP2 PUSH1 0x0 SWAP1 SLOAD SWAP1 PUSH2 0x100 EXP SWAP1 DIV PUSH20 0xFFFFFFFFFFFFFFFFFFFFFFFFFFFFFFFFFFFFFFFF AND PUSH20 0xFFFFFFFFFFFFFFFFFFFFFFFFFFFFFFFFFFFFFFFF AND DUP2 MSTORE PUSH1 0x20 ADD SWAP1 PUSH1 0x1 ADD SWAP1 DUP1 DUP4 GT PUSH3 0x12EB JUMPI JUMPDEST POP POP POP POP POP SWAP1 POP SWAP2 SWAP1 POP JUMP JUMPDEST PUSH1 0x7 SLOAD DUP2 JUMP JUMPDEST PUSH1 0x0 DUP3 SWAP1 POP PUSH1 0x0 DUP2 PUSH20 0xFFFFFFFFFFFFFFFFFFFFFFFFFFFFFFFFFFFFFFFF AND PUSH4 0x3C490174 PUSH1 0x40 MLOAD DUP2 PUSH4 0xFFFFFFFF AND PUSH1 0xE0 SHL DUP2 MSTORE PUSH1 0x4 ADD PUSH1 0x20 PUSH1 0x40 MLOAD DUP1 DUP4 SUB DUP2 DUP7 GAS STATICCALL ISZERO DUP1 ISZERO PUSH3 0x139B JUMPI RETURNDATASIZE PUSH1 0x0 DUP1 RETURNDATACOPY RETURNDATASIZE PUSH1 0x0 REVERT JUMPDEST POP POP POP POP PUSH1 0x40 MLOAD RETURNDATASIZE PUSH1 0x1F NOT PUSH1 0x1F DUP3 ADD AND DUP3 ADD DUP1 PUSH1 0x40 MSTORE POP DUP2 ADD SWAP1 PUSH3 0x13C1 SWAP2 SWAP1 PUSH3 0x30BC JUMP JUMPDEST SWAP1 POP DUP2 PUSH20 0xFFFFFFFFFFFFFFFFFFFFFFFFFFFFFFFFFFFFFFFF AND PUSH4 0xD69B7CE3 DUP5 PUSH1 0x40 MLOAD DUP3 PUSH4 0xFFFFFFFF AND PUSH1 0xE0 SHL DUP2 MSTORE PUSH1 0x4 ADD PUSH3 0x13FE SWAP2 SWAP1 PUSH3 0x3460 JUMP JUMPDEST PUSH1 0x20 PUSH1 0x40 MLOAD DUP1 DUP4 SUB DUP2 PUSH1 0x0 DUP8 GAS CALL ISZERO DUP1 ISZERO PUSH3 0x141E JUMPI RETURNDATASIZE PUSH1 0x0 DUP1 RETURNDATACOPY RETURNDATASIZE PUSH1 0x0 REVERT JUMPDEST POP POP POP POP PUSH1 0x40 MLOAD RETURNDATASIZE PUSH1 0x1F NOT PUSH1 0x1F DUP3 ADD AND DUP3 ADD DUP1 PUSH1 0x40 MSTORE POP DUP2 ADD SWAP1 PUSH3 0x1444 SWAP2 SWAP1 PUSH3 0x3133 JUMP JUMPDEST POP PUSH3 0x1450 DUP2 PUSH3 0xBE7 JUMP JUMPDEST PUSH3 0x14CD DUP2 PUSH20 0xFFFFFFFFFFFFFFFFFFFFFFFFFFFFFFFFFFFFFFFF AND PUSH4 0x3B1BEBD1 PUSH1 0x40 MLOAD DUP2 PUSH4 0xFFFFFFFF AND PUSH1 0xE0 SHL DUP2 MSTORE PUSH1 0x4 ADD PUSH1 0x20 PUSH1 0x40 MLOAD DUP1 DUP4 SUB DUP2 DUP7 GAS STATICCALL ISZERO DUP1 ISZERO PUSH3 0x14A0 JUMPI RETURNDATASIZE PUSH1 0x0 DUP1 RETURNDATACOPY RETURNDATASIZE PUSH1 0x0 REVERT JUMPDEST POP POP POP POP PUSH1 0x40 MLOAD RETURNDATASIZE PUSH1 0x1F NOT PUSH1 0x1F DUP3 ADD AND DUP3 ADD DUP1 PUSH1 0x40 MSTORE POP DUP2 ADD SWAP1 PUSH3 0x14C6 SWAP2 SWAP1 PUSH3 0x30BC JUMP JUMPDEST DUP6 PUSH3 0x1DBE JUMP JUMPDEST POP POP POP POP JUMP JUMPDEST PUSH1 0x5 SLOAD DUP2 JUMP JUMPDEST PUSH1 0x0 DUP2 SWAP1 POP PUSH1 0x0 PUSH1 0x2 DUP2 GT ISZERO PUSH3 0x14F5 JUMPI PUSH3 0x14F4 PUSH3 0x3484 JUMP JUMPDEST JUMPDEST DUP2 PUSH20 0xFFFFFFFFFFFFFFFFFFFFFFFFFFFFFFFFFFFFFFFF AND PUSH4 0x200D2ED2 PUSH1 0x40 MLOAD DUP2 PUSH4 0xFFFFFFFF AND PUSH1 0xE0 SHL DUP2 MSTORE PUSH1 0x4 ADD PUSH1 0x20 PUSH1 0x40 MLOAD DUP1 DUP4 SUB DUP2 DUP7 GAS STATICCALL ISZERO DUP1 ISZERO PUSH3 0x1541 JUMPI RETURNDATASIZE PUSH1 0x0 DUP1 RETURNDATACOPY RETURNDATASIZE PUSH1 0x0 REVERT JUMPDEST POP POP POP POP PUSH1 0x40 MLOAD RETURNDATASIZE PUSH1 0x1F NOT PUSH1 0x1F DUP3 ADD AND DUP3 ADD DUP1 PUSH1 0x40 MSTORE POP DUP2 ADD SWAP1 PUSH3 0x1567 SWAP2 SWAP1 PUSH3 0x34DB JUMP JUMPDEST PUSH1 0x2 DUP2 GT ISZERO PUSH3 0x157C JUMPI PUSH3 0x157B PUSH3 0x3484 JUMP JUMPDEST JUMPDEST EQ PUSH3 0x15BF JUMPI PUSH1 0x40 MLOAD PUSH32 0x8C379A000000000000000000000000000000000000000000000000000000000 DUP2 MSTORE PUSH1 0x4 ADD PUSH3 0x15B6 SWAP1 PUSH3 0x355D JUMP JUMPDEST PUSH1 0x40 MLOAD DUP1 SWAP2 SUB SWAP1 REVERT JUMPDEST DUP1 PUSH20 0xFFFFFFFFFFFFFFFFFFFFFFFFFFFFFFFFFFFFFFFF AND PUSH4 0x2D05D3F PUSH1 0x40 MLOAD DUP2 PUSH4 0xFFFFFFFF AND PUSH1 0xE0 SHL DUP2 MSTORE PUSH1 0x4 ADD PUSH1 0x20 PUSH1 0x40 MLOAD DUP1 DUP4 SUB DUP2 DUP7 GAS STATICCALL ISZERO DUP1 ISZERO PUSH3 0x160B JUMPI RETURNDATASIZE PUSH1 0x0 DUP1 RETURNDATACOPY RETURNDATASIZE PUSH1 0x0 REVERT JUMPDEST POP POP POP POP PUSH1 0x40 MLOAD RETURNDATASIZE PUSH1 0x1F NOT PUSH1 0x1F DUP3 ADD AND DUP3 ADD DUP1 PUSH1 0x40 MSTORE POP DUP2 ADD SWAP1 PUSH3 0x1631 SWAP2 SWAP1 PUSH3 0x30BC JUMP JUMPDEST PUSH20 0xFFFFFFFFFFFFFFFFFFFFFFFFFFFFFFFFFFFFFFFF AND ORIGIN PUSH20 0xFFFFFFFFFFFFFFFFFFFFFFFFFFFFFFFFFFFFFFFF AND EQ PUSH3 0x16A1 JUMPI PUSH1 0x40 MLOAD PUSH32 0x8C379A000000000000000000000000000000000000000000000000000000000 DUP2 MSTORE PUSH1 0x4 ADD PUSH3 0x1698 SWAP1 PUSH3 0x35F5 JUMP JUMPDEST PUSH1 0x40 MLOAD DUP1 SWAP2 SUB SWAP1 REVERT JUMPDEST DUP1 PUSH20 0xFFFFFFFFFFFFFFFFFFFFFFFFFFFFFFFFFFFFFFFF AND PUSH4 0x3B1BEBD1 PUSH1 0x40 MLOAD DUP2 PUSH4 0xFFFFFFFF AND PUSH1 0xE0 SHL DUP2 MSTORE PUSH1 0x4 ADD PUSH1 0x20 PUSH1 0x40 MLOAD DUP1 DUP4 SUB DUP2 DUP7 GAS STATICCALL ISZERO DUP1 ISZERO PUSH3 0x16ED JUMPI RETURNDATASIZE PUSH1 0x0 DUP1 RETURNDATACOPY RETURNDATASIZE PUSH1 0x0 REVERT JUMPDEST POP POP POP POP PUSH1 0x40 MLOAD RETURNDATASIZE PUSH1 0x1F NOT PUSH1 0x1F DUP3 ADD AND DUP3 ADD DUP1 PUSH1 0x40 MSTORE POP DUP2 ADD SWAP1 PUSH3 0x1713 SWAP2 SWAP1 PUSH3 0x30BC JUMP JUMPDEST PUSH20 0xFFFFFFFFFFFFFFFFFFFFFFFFFFFFFFFFFFFFFFFF AND DUP2 PUSH20 0xFFFFFFFFFFFFFFFFFFFFFFFFFFFFFFFFFFFFFFFF AND PUSH4 0x2D05D3F PUSH1 0x40 MLOAD DUP2 PUSH4 0xFFFFFFFF AND PUSH1 0xE0 SHL DUP2 MSTORE PUSH1 0x4 ADD PUSH1 0x20 PUSH1 0x40 MLOAD DUP1 DUP4 SUB DUP2 DUP7 GAS STATICCALL ISZERO DUP1 ISZERO PUSH3 0x1775 JUMPI RETURNDATASIZE PUSH1 0x0 DUP1 RETURNDATACOPY RETURNDATASIZE PUSH1 0x0 REVERT JUMPDEST POP POP POP POP PUSH1 0x40 MLOAD RETURNDATASIZE PUSH1 0x1F NOT PUSH1 0x1F DUP3 ADD AND DUP3 ADD DUP1 PUSH1 0x40 MSTORE POP DUP2 ADD SWAP1 PUSH3 0x179B SWAP2 SWAP1 PUSH3 0x30BC JUMP JUMPDEST PUSH20 0xFFFFFFFFFFFFFFFFFFFFFFFFFFFFFFFFFFFFFFFF AND EQ ISZERO PUSH3 0x17F5 JUMPI PUSH1 0x40 MLOAD PUSH32 0x8C379A000000000000000000000000000000000000000000000000000000000 DUP2 MSTORE PUSH1 0x4 ADD PUSH3 0x17EC SWAP1 PUSH3 0x368D JUMP JUMPDEST PUSH1 0x40 MLOAD DUP1 SWAP2 SUB SWAP1 REVERT JUMPDEST PUSH1 0x0 DUP3 PUSH1 0x40 MLOAD PUSH3 0x1806 SWAP1 PUSH3 0x2B1F JUMP JUMPDEST PUSH3 0x1812 SWAP2 SWAP1 PUSH3 0x2D9D JUMP JUMPDEST PUSH1 0x40 MLOAD DUP1 SWAP2 SUB SWAP1 PUSH1 0x0 CREATE DUP1 ISZERO DUP1 ISZERO PUSH3 0x182F JUMPI RETURNDATASIZE PUSH1 0x0 DUP1 RETURNDATACOPY RETURNDATASIZE PUSH1 0x0 REVERT JUMPDEST POP SWAP1 POP PUSH1 0x6 PUSH1 0x0 DUP4 PUSH20 0xFFFFFFFFFFFFFFFFFFFFFFFFFFFFFFFFFFFFFFFF AND PUSH4 0x3B1BEBD1 PUSH1 0x40 MLOAD DUP2 PUSH4 0xFFFFFFFF AND PUSH1 0xE0 SHL DUP2 MSTORE PUSH1 0x4 ADD PUSH1 0x20 PUSH1 0x40 MLOAD DUP1 DUP4 SUB DUP2 DUP7 GAS STATICCALL ISZERO DUP1 ISZERO PUSH3 0x1882 JUMPI RETURNDATASIZE PUSH1 0x0 DUP1 RETURNDATACOPY RETURNDATASIZE PUSH1 0x0 REVERT JUMPDEST POP POP POP POP PUSH1 0x40 MLOAD RETURNDATASIZE PUSH1 0x1F NOT PUSH1 0x1F DUP3 ADD AND DUP3 ADD DUP1 PUSH1 0x40 MSTORE POP DUP2 ADD SWAP1 PUSH3 0x18A8 SWAP2 SWAP1 PUSH3 0x30BC JUMP JUMPDEST PUSH20 0xFFFFFFFFFFFFFFFFFFFFFFFFFFFFFFFFFFFFFFFF AND PUSH20 0xFFFFFFFFFFFFFFFFFFFFFFFFFFFFFFFFFFFFFFFF AND DUP2 MSTORE PUSH1 0x20 ADD SWAP1 DUP2 MSTORE PUSH1 0x20 ADD PUSH1 0x0 KECCAK256 PUSH1 0x3 ADD DUP2 SWAP1 DUP1 PUSH1 0x1 DUP2 SLOAD ADD DUP1 DUP3 SSTORE DUP1 SWAP2 POP POP PUSH1 0x1 SWAP1 SUB SWAP1 PUSH1 0x0 MSTORE PUSH1 0x20 PUSH1 0x0 KECCAK256 ADD PUSH1 0x0 SWAP1 SWAP2 SWAP1 SWAP2 SWAP1 SWAP2 PUSH2 0x100 EXP DUP2 SLOAD DUP2 PUSH20 0xFFFFFFFFFFFFFFFFFFFFFFFFFFFFFFFFFFFFFFFF MUL NOT AND SWAP1 DUP4 PUSH20 0xFFFFFFFFFFFFFFFFFFFFFFFFFFFFFFFFFFFFFFFF AND MUL OR SWAP1 SSTORE POP POP POP POP JUMP JUMPDEST PUSH1 0x0 DUP1 PUSH1 0x0 CALLER PUSH20 0xFFFFFFFFFFFFFFFFFFFFFFFFFFFFFFFFFFFFFFFF AND PUSH20 0xFFFFFFFFFFFFFFFFFFFFFFFFFFFFFFFFFFFFFFFF AND DUP2 MSTORE PUSH1 0x20 ADD SWAP1 DUP2 MSTORE PUSH1 0x20 ADD PUSH1 0x0 KECCAK256 PUSH1 0x0 ADD SLOAD EQ ISZERO PUSH3 0x1A14 JUMPI PUSH1 0x2 PUSH1 0x0 DUP2 SLOAD DUP1 SWAP3 SWAP2 SWAP1 PUSH3 0x19AB SWAP1 PUSH3 0x3319 JUMP JUMPDEST SWAP2 SWAP1 POP SSTORE POP PUSH1 0x1 CALLER SWAP1 DUP1 PUSH1 0x1 DUP2 SLOAD ADD DUP1 DUP3 SSTORE DUP1 SWAP2 POP POP PUSH1 0x1 SWAP1 SUB SWAP1 PUSH1 0x0 MSTORE PUSH1 0x20 PUSH1 0x0 KECCAK256 ADD PUSH1 0x0 SWAP1 SWAP2 SWAP1 SWAP2 SWAP1 SWAP2 PUSH2 0x100 EXP DUP2 SLOAD DUP2 PUSH20 0xFFFFFFFFFFFFFFFFFFFFFFFFFFFFFFFFFFFFFFFF MUL NOT AND SWAP1 DUP4 PUSH20 0xFFFFFFFFFFFFFFFFFFFFFFFFFFFFFFFFFFFFFFFF AND MUL OR SWAP1 SSTORE POP JUMPDEST PUSH1 0x0 PUSH1 0x6 PUSH1 0x0 DUP7 PUSH20 0xFFFFFFFFFFFFFFFFFFFFFFFFFFFFFFFFFFFFFFFF AND PUSH20 0xFFFFFFFFFFFFFFFFFFFFFFFFFFFFFFFFFFFFFFFF AND DUP2 MSTORE PUSH1 0x20 ADD SWAP1 DUP2 MSTORE PUSH1 0x20 ADD PUSH1 0x0 KECCAK256 PUSH1 0x0 ADD SLOAD EQ ISZERO PUSH3 0x1ADE JUMPI PUSH1 0x7 PUSH1 0x0 DUP2 SLOAD DUP1 SWAP3 SWAP2 SWAP1 PUSH3 0x1A75 SWAP1 PUSH3 0x3319 JUMP JUMPDEST SWAP2 SWAP1 POP SSTORE POP PUSH1 0x8 DUP5 SWAP1 DUP1 PUSH1 0x1 DUP2 SLOAD ADD DUP1 DUP3 SSTORE DUP1 SWAP2 POP POP PUSH1 0x1 SWAP1 SUB SWAP1 PUSH1 0x0 MSTORE PUSH1 0x20 PUSH1 0x0 KECCAK256 ADD PUSH1 0x0 SWAP1 SWAP2 SWAP1 SWAP2 SWAP1 SWAP2 PUSH2 0x100 EXP DUP2 SLOAD DUP2 PUSH20 0xFFFFFFFFFFFFFFFFFFFFFFFFFFFFFFFFFFFFFFFF MUL NOT AND SWAP1 DUP4 PUSH20 0xFFFFFFFFFFFFFFFFFFFFFFFFFFFFFFFFFFFFFFFF AND MUL OR SWAP1 SSTORE POP JUMPDEST PUSH1 0x0 CALLVALUE CALLER DUP7 DUP7 DUP7 DUP7 CALLVALUE PUSH1 0x40 MLOAD PUSH3 0x1AF5 SWAP1 PUSH3 0x2B2D JUMP JUMPDEST PUSH3 0x1B06 SWAP7 SWAP6 SWAP5 SWAP4 SWAP3 SWAP2 SWAP1 PUSH3 0x371A JUMP JUMPDEST PUSH1 0x40 MLOAD DUP1 SWAP2 SUB SWAP1 DUP3 CREATE SWAP1 POP DUP1 ISZERO DUP1 ISZERO PUSH3 0x1B24 JUMPI RETURNDATASIZE PUSH1 0x0 DUP1 RETURNDATACOPY RETURNDATASIZE PUSH1 0x0 REVERT JUMPDEST POP SWAP1 POP PUSH1 0x4 PUSH1 0x0 DUP2 SLOAD DUP1 SWAP3 SWAP2 SWAP1 PUSH3 0x1B3C SWAP1 PUSH3 0x3319 JUMP JUMPDEST SWAP2 SWAP1 POP SSTORE POP PUSH1 0x3 DUP2 SWAP1 DUP1 PUSH1 0x1 DUP2 SLOAD ADD DUP1 DUP3 SSTORE DUP1 SWAP2 POP POP PUSH1 0x1 SWAP1 SUB SWAP1 PUSH1 0x0 MSTORE PUSH1 0x20 PUSH1 0x0 KECCAK256 ADD PUSH1 0x0 SWAP1 SWAP2 SWAP1 SWAP2 SWAP1 SWAP2 PUSH2 0x100 EXP DUP2 SLOAD DUP2 PUSH20 0xFFFFFFFFFFFFFFFFFFFFFFFFFFFFFFFFFFFFFFFF MUL NOT AND SWAP1 DUP4 PUSH20 0xFFFFFFFFFFFFFFFFFFFFFFFFFFFFFFFFFFFFFFFF AND MUL OR SWAP1 SSTORE POP CALLVALUE PUSH1 0x5 PUSH1 0x0 DUP3 DUP3 SLOAD PUSH3 0x1BB8 SWAP2 SWAP1 PUSH3 0x3795 JUMP JUMPDEST SWAP3 POP POP DUP2 SWAP1 SSTORE POP PUSH1 0x0 DUP1 CALLER PUSH20 0xFFFFFFFFFFFFFFFFFFFFFFFFFFFFFFFFFFFFFFFF AND PUSH20 0xFFFFFFFFFFFFFFFFFFFFFFFFFFFFFFFFFFFFFFFF AND DUP2 MSTORE PUSH1 0x20 ADD SWAP1 DUP2 MSTORE PUSH1 0x20 ADD PUSH1 0x0 KECCAK256 PUSH1 0x0 ADD PUSH1 0x0 DUP2 SLOAD DUP1 SWAP3 SWAP2 SWAP1 PUSH3 0x1C13 SWAP1 PUSH3 0x3319 JUMP JUMPDEST SWAP2 SWAP1 POP SSTORE POP PUSH1 0x0 DUP1 CALLER PUSH20 0xFFFFFFFFFFFFFFFFFFFFFFFFFFFFFFFFFFFFFFFF AND PUSH20 0xFFFFFFFFFFFFFFFFFFFFFFFFFFFFFFFFFFFFFFFF AND DUP2 MSTORE PUSH1 0x20 ADD SWAP1 DUP2 MSTORE PUSH1 0x20 ADD PUSH1 0x0 KECCAK256 PUSH1 0x1 ADD DUP2 SWAP1 DUP1 PUSH1 0x1 DUP2 SLOAD ADD DUP1 DUP3 SSTORE DUP1 SWAP2 POP POP PUSH1 0x1 SWAP1 SUB SWAP1 PUSH1 0x0 MSTORE PUSH1 0x20 PUSH1 0x0 KECCAK256 ADD PUSH1 0x0 SWAP1 SWAP2 SWAP1 SWAP2 SWAP1 SWAP2 PUSH2 0x100 EXP DUP2 SLOAD DUP2 PUSH20 0xFFFFFFFFFFFFFFFFFFFFFFFFFFFFFFFFFFFFFFFF MUL NOT AND SWAP1 DUP4 PUSH20 0xFFFFFFFFFFFFFFFFFFFFFFFFFFFFFFFFFFFFFFFF AND MUL OR SWAP1 SSTORE POP PUSH1 0x6 PUSH1 0x0 DUP7 PUSH20 0xFFFFFFFFFFFFFFFFFFFFFFFFFFFFFFFFFFFFFFFF AND PUSH20 0xFFFFFFFFFFFFFFFFFFFFFFFFFFFFFFFFFFFFFFFF AND DUP2 MSTORE PUSH1 0x20 ADD SWAP1 DUP2 MSTORE PUSH1 0x20 ADD PUSH1 0x0 KECCAK256 PUSH1 0x0 ADD PUSH1 0x0 DUP2 SLOAD DUP1 SWAP3 SWAP2 SWAP1 PUSH3 0x1D0F SWAP1 PUSH3 0x3319 JUMP JUMPDEST SWAP2 SWAP1 POP SSTORE POP PUSH1 0x6 PUSH1 0x0 DUP7 PUSH20 0xFFFFFFFFFFFFFFFFFFFFFFFFFFFFFFFFFFFFFFFF AND PUSH20 0xFFFFFFFFFFFFFFFFFFFFFFFFFFFFFFFFFFFFFFFF AND DUP2 MSTORE PUSH1 0x20 ADD SWAP1 DUP2 MSTORE PUSH1 0x20 ADD PUSH1 0x0 KECCAK256 PUSH1 0x1 ADD DUP2 SWAP1 DUP1 PUSH1 0x1 DUP2 SLOAD ADD DUP1 DUP3 SSTORE DUP1 SWAP2 POP POP PUSH1 0x1 SWAP1 SUB SWAP1 PUSH1 0x0 MSTORE PUSH1 0x20 PUSH1 0x0 KECCAK256 ADD PUSH1 0x0 SWAP1 SWAP2 SWAP1 SWAP2 SWAP1 SWAP2 PUSH2 0x100 EXP DUP2 SLOAD DUP2 PUSH20 0xFFFFFFFFFFFFFFFFFFFFFFFFFFFFFFFFFFFFFFFF MUL NOT AND SWAP1 DUP4 PUSH20 0xFFFFFFFFFFFFFFFFFFFFFFFFFFFFFFFFFFFFFFFF AND MUL OR SWAP1 SSTORE POP POP POP POP POP POP JUMP JUMPDEST PUSH1 0x0 DUP1 PUSH1 0x0 SWAP1 POP JUMPDEST PUSH1 0x1 PUSH1 0x6 PUSH1 0x0 DUP7 PUSH20 0xFFFFFFFFFFFFFFFFFFFFFFFFFFFFFFFFFFFFFFFF AND PUSH20 0xFFFFFFFFFFFFFFFFFFFFFFFFFFFFFFFFFFFFFFFF AND DUP2 MSTORE PUSH1 0x20 ADD SWAP1 DUP2 MSTORE PUSH1 0x20 ADD PUSH1 0x0 KECCAK256 PUSH1 0x3 ADD DUP1 SLOAD SWAP1 POP PUSH3 0x1E1A SWAP2 SWAP1 PUSH3 0x32AF JUMP JUMPDEST DUP2 GT PUSH3 0x1EF6 JUMPI DUP3 PUSH20 0xFFFFFFFFFFFFFFFFFFFFFFFFFFFFFFFFFFFFFFFF AND PUSH1 0x6 PUSH1 0x0 DUP7 PUSH20 0xFFFFFFFFFFFFFFFFFFFFFFFFFFFFFFFFFFFFFFFF AND PUSH20 0xFFFFFFFFFFFFFFFFFFFFFFFFFFFFFFFFFFFFFFFF AND DUP2 MSTORE PUSH1 0x20 ADD SWAP1 DUP2 MSTORE PUSH1 0x20 ADD PUSH1 0x0 KECCAK256 PUSH1 0x3 ADD DUP3 DUP2 SLOAD DUP2 LT PUSH3 0x1E8F JUMPI PUSH3 0x1E8E PUSH3 0x32EA JUMP JUMPDEST JUMPDEST SWAP1 PUSH1 0x0 MSTORE PUSH1 0x20 PUSH1 0x0 KECCAK256 ADD PUSH1 0x0 SWAP1 SLOAD SWAP1 PUSH2 0x100 EXP SWAP1 DIV PUSH20 0xFFFFFFFFFFFFFFFFFFFFFFFFFFFFFFFFFFFFFFFF AND PUSH20 0xFFFFFFFFFFFFFFFFFFFFFFFFFFFFFFFFFFFFFFFF AND EQ ISZERO PUSH3 0x1EE0 JUMPI DUP1 SWAP2 POP PUSH3 0x1EF6 JUMP JUMPDEST DUP1 DUP1 PUSH3 0x1EED SWAP1 PUSH3 0x3319 JUMP JUMPDEST SWAP2 POP POP PUSH3 0x1DC6 JUMP JUMPDEST POP PUSH1 0x0 DUP2 SWAP1 POP JUMPDEST PUSH1 0x1 PUSH1 0x6 PUSH1 0x0 DUP7 PUSH20 0xFFFFFFFFFFFFFFFFFFFFFFFFFFFFFFFFFFFFFFFF AND PUSH20 0xFFFFFFFFFFFFFFFFFFFFFFFFFFFFFFFFFFFFFFFF AND DUP2 MSTORE PUSH1 0x20 ADD SWAP1 DUP2 MSTORE PUSH1 0x20 ADD PUSH1 0x0 KECCAK256 PUSH1 0x3 ADD DUP1 SLOAD SWAP1 POP PUSH3 0x1F51 SWAP2 SWAP1 PUSH3 0x32AF JUMP JUMPDEST DUP2 LT ISZERO PUSH3 0x209E JUMPI PUSH1 0x6 PUSH1 0x0 DUP6 PUSH20 0xFFFFFFFFFFFFFFFFFFFFFFFFFFFFFFFFFFFFFFFF AND PUSH20 0xFFFFFFFFFFFFFFFFFFFFFFFFFFFFFFFFFFFFFFFF AND DUP2 MSTORE PUSH1 0x20 ADD SWAP1 DUP2 MSTORE PUSH1 0x20 ADD PUSH1 0x0 KECCAK256 PUSH1 0x3 ADD PUSH1 0x1 DUP3 PUSH3 0x1FAA SWAP2 SWAP1 PUSH3 0x3795 JUMP JUMPDEST DUP2 SLOAD DUP2 LT PUSH3 0x1FBE JUMPI PUSH3 0x1FBD PUSH3 0x32EA JUMP JUMPDEST JUMPDEST SWAP1 PUSH1 0x0 MSTORE PUSH1 0x20 PUSH1 0x0 KECCAK256 ADD PUSH1 0x0 SWAP1 SLOAD SWAP1 PUSH2 0x100 EXP SWAP1 DIV PUSH20 0xFFFFFFFFFFFFFFFFFFFFFFFFFFFFFFFFFFFFFFFF AND PUSH1 0x6 PUSH1 0x0 DUP7 PUSH20 0xFFFFFFFFFFFFFFFFFFFFFFFFFFFFFFFFFFFFFFFF AND PUSH20 0xFFFFFFFFFFFFFFFFFFFFFFFFFFFFFFFFFFFFFFFF AND DUP2 MSTORE PUSH1 0x20 ADD SWAP1 DUP2 MSTORE PUSH1 0x20 ADD PUSH1 0x0 KECCAK256 PUSH1 0x3 ADD DUP3 DUP2 SLOAD DUP2 LT PUSH3 0x2040 JUMPI PUSH3 0x203F PUSH3 0x32EA JUMP JUMPDEST JUMPDEST SWAP1 PUSH1 0x0 MSTORE PUSH1 0x20 PUSH1 0x0 KECCAK256 ADD PUSH1 0x0 PUSH2 0x100 EXP DUP2 SLOAD DUP2 PUSH20 0xFFFFFFFFFFFFFFFFFFFFFFFFFFFFFFFFFFFFFFFF MUL NOT AND SWAP1 DUP4 PUSH20 0xFFFFFFFFFFFFFFFFFFFFFFFFFFFFFFFFFFFFFFFF AND MUL OR SWAP1 SSTORE POP DUP1 DUP1 PUSH3 0x2095 SWAP1 PUSH3 0x3319 JUMP JUMPDEST SWAP2 POP POP PUSH3 0x1EFD JUMP JUMPDEST POP PUSH1 0x6 PUSH1 0x0 DUP5 PUSH20 0xFFFFFFFFFFFFFFFFFFFFFFFFFFFFFFFFFFFFFFFF AND PUSH20 0xFFFFFFFFFFFFFFFFFFFFFFFFFFFFFFFFFFFFFFFF AND DUP2 MSTORE PUSH1 0x20 ADD SWAP1 DUP2 MSTORE PUSH1 0x20 ADD PUSH1 0x0 KECCAK256 PUSH1 0x3 ADD DUP1 SLOAD DUP1 PUSH3 0x20F4 JUMPI PUSH3 0x20F3 PUSH3 0x37F2 JUMP JUMPDEST JUMPDEST PUSH1 0x1 SWAP1 SUB DUP2 DUP2 SWAP1 PUSH1 0x0 MSTORE PUSH1 0x20 PUSH1 0x0 KECCAK256 ADD PUSH1 0x0 PUSH2 0x100 EXP DUP2 SLOAD SWAP1 PUSH20 0xFFFFFFFFFFFFFFFFFFFFFFFFFFFFFFFFFFFFFFFF MUL NOT AND SWAP1 SSTORE SWAP1 SSTORE POP POP POP JUMP JUMPDEST PUSH1 0x0 PUSH3 0x213C DUP4 DUP4 PUSH3 0x28A9 JUMP JUMPDEST SWAP1 POP PUSH1 0x0 DUP1 PUSH1 0x0 DUP6 PUSH20 0xFFFFFFFFFFFFFFFFFFFFFFFFFFFFFFFFFFFFFFFF AND PUSH20 0xFFFFFFFFFFFFFFFFFFFFFFFFFFFFFFFFFFFFFFFF AND DUP2 MSTORE PUSH1 0x20 ADD SWAP1 DUP2 MSTORE PUSH1 0x20 ADD PUSH1 0x0 KECCAK256 PUSH1 0x1 ADD DUP1 SLOAD SWAP1 POP SWAP1 POP PUSH1 0x0 DUP3 SWAP1 POP JUMPDEST PUSH1 0x1 DUP3 PUSH3 0x219C SWAP2 SWAP1 PUSH3 0x32AF JUMP JUMPDEST DUP2 LT ISZERO PUSH3 0x22E7 JUMPI PUSH1 0x0 DUP1 DUP7 PUSH20 0xFFFFFFFFFFFFFFFFFFFFFFFFFFFFFFFFFFFFFFFF AND PUSH20 0xFFFFFFFFFFFFFFFFFFFFFFFFFFFFFFFFFFFFFFFF AND DUP2 MSTORE PUSH1 0x20 ADD SWAP1 DUP2 MSTORE PUSH1 0x20 ADD PUSH1 0x0 KECCAK256 PUSH1 0x1 ADD PUSH1 0x1 DUP3 PUSH3 0x21F4 SWAP2 SWAP1 PUSH3 0x3795 JUMP JUMPDEST DUP2 SLOAD DUP2 LT PUSH3 0x2208 JUMPI PUSH3 0x2207 PUSH3 0x32EA JUMP JUMPDEST JUMPDEST SWAP1 PUSH1 0x0 MSTORE PUSH1 0x20 PUSH1 0x0 KECCAK256 ADD PUSH1 0x0 SWAP1 SLOAD SWAP1 PUSH2 0x100 EXP SWAP1 DIV PUSH20 0xFFFFFFFFFFFFFFFFFFFFFFFFFFFFFFFFFFFFFFFF AND PUSH1 0x0 DUP1 DUP8 PUSH20 0xFFFFFFFFFFFFFFFFFFFFFFFFFFFFFFFFFFFFFFFF AND PUSH20 0xFFFFFFFFFFFFFFFFFFFFFFFFFFFFFFFFFFFFFFFF AND DUP2 MSTORE PUSH1 0x20 ADD SWAP1 DUP2 MSTORE PUSH1 0x20 ADD PUSH1 0x0 KECCAK256 PUSH1 0x1 ADD DUP3 DUP2 SLOAD DUP2 LT PUSH3 0x2289 JUMPI PUSH3 0x2288 PUSH3 0x32EA JUMP JUMPDEST JUMPDEST SWAP1 PUSH1 0x0 MSTORE PUSH1 0x20 PUSH1 0x0 KECCAK256 ADD PUSH1 0x0 PUSH2 0x100 EXP DUP2 SLOAD DUP2 PUSH20 0xFFFFFFFFFFFFFFFFFFFFFFFFFFFFFFFFFFFFFFFF MUL NOT AND SWAP1 DUP4 PUSH20 0xFFFFFFFFFFFFFFFFFFFFFFFFFFFFFFFFFFFFFFFF AND MUL OR SWAP1 SSTORE POP DUP1 DUP1 PUSH3 0x22DE SWAP1 PUSH3 0x3319 JUMP JUMPDEST SWAP2 POP POP PUSH3 0x218D JUMP JUMPDEST POP PUSH1 0x0 DUP1 DUP6 PUSH20 0xFFFFFFFFFFFFFFFFFFFFFFFFFFFFFFFFFFFFFFFF AND PUSH20 0xFFFFFFFFFFFFFFFFFFFFFFFFFFFFFFFFFFFFFFFF AND DUP2 MSTORE PUSH1 0x20 ADD SWAP1 DUP2 MSTORE PUSH1 0x20 ADD PUSH1 0x0 KECCAK256 PUSH1 0x2 ADD PUSH1 0x0 DUP1 DUP7 PUSH20 0xFFFFFFFFFFFFFFFFFFFFFFFFFFFFFFFFFFFFFFFF AND PUSH20 0xFFFFFFFFFFFFFFFFFFFFFFFFFFFFFFFFFFFFFFFF AND DUP2 MSTORE PUSH1 0x20 ADD SWAP1 DUP2 MSTORE PUSH1 0x20 ADD PUSH1 0x0 KECCAK256 PUSH1 0x1 ADD PUSH1 0x1 PUSH1 0x0 DUP1 DUP9 PUSH20 0xFFFFFFFFFFFFFFFFFFFFFFFFFFFFFFFFFFFFFFFF AND PUSH20 0xFFFFFFFFFFFFFFFFFFFFFFFFFFFFFFFFFFFFFFFF AND DUP2 MSTORE PUSH1 0x20 ADD SWAP1 DUP2 MSTORE PUSH1 0x20 ADD PUSH1 0x0 KECCAK256 PUSH1 0x1 ADD DUP1 SLOAD SWAP1 POP PUSH3 0x23BD SWAP2 SWAP1 PUSH3 0x32AF JUMP JUMPDEST DUP2 SLOAD DUP2 LT PUSH3 0x23D1 JUMPI PUSH3 0x23D0 PUSH3 0x32EA JUMP JUMPDEST JUMPDEST SWAP1 PUSH1 0x0 MSTORE PUSH1 0x20 PUSH1 0x0 KECCAK256 ADD PUSH1 0x0 SWAP1 SLOAD SWAP1 PUSH2 0x100 EXP SWAP1 DIV PUSH20 0xFFFFFFFFFFFFFFFFFFFFFFFFFFFFFFFFFFFFFFFF AND SWAP1 DUP1 PUSH1 0x1 DUP2 SLOAD ADD DUP1 DUP3 SSTORE DUP1 SWAP2 POP POP PUSH1 0x1 SWAP1 SUB SWAP1 PUSH1 0x0 MSTORE PUSH1 0x20 PUSH1 0x0 KECCAK256 ADD PUSH1 0x0 SWAP1 SWAP2 SWAP1 SWAP2 SWAP1 SWAP2 PUSH2 0x100 EXP DUP2 SLOAD DUP2 PUSH20 0xFFFFFFFFFFFFFFFFFFFFFFFFFFFFFFFFFFFFFFFF MUL NOT AND SWAP1 DUP4 PUSH20 0xFFFFFFFFFFFFFFFFFFFFFFFFFFFFFFFFFFFFFFFF AND MUL OR SWAP1 SSTORE POP PUSH1 0x0 DUP1 DUP6 PUSH20 0xFFFFFFFFFFFFFFFFFFFFFFFFFFFFFFFFFFFFFFFF AND PUSH20 0xFFFFFFFFFFFFFFFFFFFFFFFFFFFFFFFFFFFFFFFF AND DUP2 MSTORE PUSH1 0x20 ADD SWAP1 DUP2 MSTORE PUSH1 0x20 ADD PUSH1 0x0 KECCAK256 PUSH1 0x1 ADD DUP1 SLOAD DUP1 PUSH3 0x24B0 JUMPI PUSH3 0x24AF PUSH3 0x37F2 JUMP JUMPDEST JUMPDEST PUSH1 0x1 SWAP1 SUB DUP2 DUP2 SWAP1 PUSH1 0x0 MSTORE PUSH1 0x20 PUSH1 0x0 KECCAK256 ADD PUSH1 0x0 PUSH2 0x100 EXP DUP2 SLOAD SWAP1 PUSH20 0xFFFFFFFFFFFFFFFFFFFFFFFFFFFFFFFFFFFFFFFF MUL NOT AND SWAP1 SSTORE SWAP1 SSTORE POP POP POP POP JUMP JUMPDEST PUSH1 0x0 PUSH3 0x24F9 DUP4 DUP4 PUSH3 0x29E3 JUMP JUMPDEST SWAP1 POP PUSH1 0x0 DUP2 SWAP1 POP JUMPDEST PUSH1 0x1 PUSH1 0x6 PUSH1 0x0 DUP7 PUSH20 0xFFFFFFFFFFFFFFFFFFFFFFFFFFFFFFFFFFFFFFFF AND PUSH20 0xFFFFFFFFFFFFFFFFFFFFFFFFFFFFFFFFFFFFFFFF AND DUP2 MSTORE PUSH1 0x20 ADD SWAP1 DUP2 MSTORE PUSH1 0x20 ADD PUSH1 0x0 KECCAK256 PUSH1 0x1 ADD DUP1 SLOAD SWAP1 POP PUSH3 0x2555 SWAP2 SWAP1 PUSH3 0x32AF JUMP JUMPDEST DUP2 LT ISZERO PUSH3 0x26A2 JUMPI PUSH1 0x6 PUSH1 0x0 DUP6 PUSH20 0xFFFFFFFFFFFFFFFFFFFFFFFFFFFFFFFFFFFFFFFF AND PUSH20 0xFFFFFFFFFFFFFFFFFFFFFFFFFFFFFFFFFFFFFFFF AND DUP2 MSTORE PUSH1 0x20 ADD SWAP1 DUP2 MSTORE PUSH1 0x20 ADD PUSH1 0x0 KECCAK256 PUSH1 0x1 ADD PUSH1 0x1 DUP3 PUSH3 0x25AE SWAP2 SWAP1 PUSH3 0x3795 JUMP JUMPDEST DUP2 SLOAD DUP2 LT PUSH3 0x25C2 JUMPI PUSH3 0x25C1 PUSH3 0x32EA JUMP JUMPDEST JUMPDEST SWAP1 PUSH1 0x0 MSTORE PUSH1 0x20 PUSH1 0x0 KECCAK256 ADD PUSH1 0x0 SWAP1 SLOAD SWAP1 PUSH2 0x100 EXP SWAP1 DIV PUSH20 0xFFFFFFFFFFFFFFFFFFFFFFFFFFFFFFFFFFFFFFFF AND PUSH1 0x6 PUSH1 0x0 DUP7 PUSH20 0xFFFFFFFFFFFFFFFFFFFFFFFFFFFFFFFFFFFFFFFF AND PUSH20 0xFFFFFFFFFFFFFFFFFFFFFFFFFFFFFFFFFFFFFFFF AND DUP2 MSTORE PUSH1 0x20 ADD SWAP1 DUP2 MSTORE PUSH1 0x20 ADD PUSH1 0x0 KECCAK256 PUSH1 0x1 ADD DUP3 DUP2 SLOAD DUP2 LT PUSH3 0x2644 JUMPI PUSH3 0x2643 PUSH3 0x32EA JUMP JUMPDEST JUMPDEST SWAP1 PUSH1 0x0 MSTORE PUSH1 0x20 PUSH1 0x0 KECCAK256 ADD PUSH1 0x0 PUSH2 0x100 EXP DUP2 SLOAD DUP2 PUSH20 0xFFFFFFFFFFFFFFFFFFFFFFFFFFFFFFFFFFFFFFFF MUL NOT AND SWAP1 DUP4 PUSH20 0xFFFFFFFFFFFFFFFFFFFFFFFFFFFFFFFFFFFFFFFF AND MUL OR SWAP1 SSTORE POP DUP1 DUP1 PUSH3 0x2699 SWAP1 PUSH3 0x3319 JUMP JUMPDEST SWAP2 POP POP PUSH3 0x2501 JUMP JUMPDEST POP PUSH1 0x6 PUSH1 0x0 DUP5 PUSH20 0xFFFFFFFFFFFFFFFFFFFFFFFFFFFFFFFFFFFFFFFF AND PUSH20 0xFFFFFFFFFFFFFFFFFFFFFFFFFFFFFFFFFFFFFFFF AND DUP2 MSTORE PUSH1 0x20 ADD SWAP1 DUP2 MSTORE PUSH1 0x20 ADD PUSH1 0x0 KECCAK256 PUSH1 0x2 ADD PUSH1 0x6 PUSH1 0x0 DUP6 PUSH20 0xFFFFFFFFFFFFFFFFFFFFFFFFFFFFFFFFFFFFFFFF AND PUSH20 0xFFFFFFFFFFFFFFFFFFFFFFFFFFFFFFFFFFFFFFFF AND DUP2 MSTORE PUSH1 0x20 ADD SWAP1 DUP2 MSTORE PUSH1 0x20 ADD PUSH1 0x0 KECCAK256 PUSH1 0x1 ADD PUSH1 0x1 PUSH1 0x6 PUSH1 0x0 DUP8 PUSH20 0xFFFFFFFFFFFFFFFFFFFFFFFFFFFFFFFFFFFFFFFF AND PUSH20 0xFFFFFFFFFFFFFFFFFFFFFFFFFFFFFFFFFFFFFFFF AND DUP2 MSTORE PUSH1 0x20 ADD SWAP1 DUP2 MSTORE PUSH1 0x20 ADD PUSH1 0x0 KECCAK256 PUSH1 0x1 ADD DUP1 SLOAD SWAP1 POP PUSH3 0x277B SWAP2 SWAP1 PUSH3 0x32AF JUMP JUMPDEST DUP2 SLOAD DUP2 LT PUSH3 0x278F JUMPI PUSH3 0x278E PUSH3 0x32EA JUMP JUMPDEST JUMPDEST SWAP1 PUSH1 0x0 MSTORE PUSH1 0x20 PUSH1 0x0 KECCAK256 ADD PUSH1 0x0 SWAP1 SLOAD SWAP1 PUSH2 0x100 EXP SWAP1 DIV PUSH20 0xFFFFFFFFFFFFFFFFFFFFFFFFFFFFFFFFFFFFFFFF AND SWAP1 DUP1 PUSH1 0x1 DUP2 SLOAD ADD DUP1 DUP3 SSTORE DUP1 SWAP2 POP POP PUSH1 0x1 SWAP1 SUB SWAP1 PUSH1 0x0 MSTORE PUSH1 0x20 PUSH1 0x0 KECCAK256 ADD PUSH1 0x0 SWAP1 SWAP2 SWAP1 SWAP2 SWAP1 SWAP2 PUSH2 0x100 EXP DUP2 SLOAD DUP2 PUSH20 0xFFFFFFFFFFFFFFFFFFFFFFFFFFFFFFFFFFFFFFFF MUL NOT AND SWAP1 DUP4 PUSH20 0xFFFFFFFFFFFFFFFFFFFFFFFFFFFFFFFFFFFFFFFF AND MUL OR SWAP1 SSTORE POP PUSH1 0x6 PUSH1 0x0 DUP5 PUSH20 0xFFFFFFFFFFFFFFFFFFFFFFFFFFFFFFFFFFFFFFFF AND PUSH20 0xFFFFFFFFFFFFFFFFFFFFFFFFFFFFFFFFFFFFFFFF AND DUP2 MSTORE PUSH1 0x20 ADD SWAP1 DUP2 MSTORE PUSH1 0x20 ADD PUSH1 0x0 KECCAK256 PUSH1 0x1 ADD DUP1 SLOAD DUP1 PUSH3 0x286F JUMPI PUSH3 0x286E PUSH3 0x37F2 JUMP JUMPDEST JUMPDEST PUSH1 0x1 SWAP1 SUB DUP2 DUP2 SWAP1 PUSH1 0x0 MSTORE PUSH1 0x20 PUSH1 0x0 KECCAK256 ADD PUSH1 0x0 PUSH2 0x100 EXP DUP2 SLOAD SWAP1 PUSH20 0xFFFFFFFFFFFFFFFFFFFFFFFFFFFFFFFFFFFFFFFF MUL NOT AND SWAP1 SSTORE SWAP1 SSTORE POP POP POP JUMP JUMPDEST PUSH1 0x0 DUP1 PUSH1 0x0 JUMPDEST PUSH1 0x1 PUSH1 0x0 DUP1 DUP8 PUSH20 0xFFFFFFFFFFFFFFFFFFFFFFFFFFFFFFFFFFFFFFFF AND PUSH20 0xFFFFFFFFFFFFFFFFFFFFFFFFFFFFFFFFFFFFFFFF AND DUP2 MSTORE PUSH1 0x20 ADD SWAP1 DUP2 MSTORE PUSH1 0x20 ADD PUSH1 0x0 KECCAK256 PUSH1 0x1 ADD DUP1 SLOAD SWAP1 POP PUSH3 0x2902 SWAP2 SWAP1 PUSH3 0x32AF JUMP JUMPDEST DUP2 GT PUSH3 0x29D8 JUMPI DUP4 PUSH20 0xFFFFFFFFFFFFFFFFFFFFFFFFFFFFFFFFFFFFFFFF AND PUSH1 0x0 DUP1 DUP8 PUSH20 0xFFFFFFFFFFFFFFFFFFFFFFFFFFFFFFFFFFFFFFFF AND PUSH20 0xFFFFFFFFFFFFFFFFFFFFFFFFFFFFFFFFFFFFFFFF AND DUP2 MSTORE PUSH1 0x20 ADD SWAP1 DUP2 MSTORE PUSH1 0x20 ADD PUSH1 0x0 KECCAK256 PUSH1 0x1 ADD DUP3 DUP2 SLOAD DUP2 LT PUSH3 0x2976 JUMPI PUSH3 0x2975 PUSH3 0x32EA JUMP JUMPDEST JUMPDEST SWAP1 PUSH1 0x0 MSTORE PUSH1 0x20 PUSH1 0x0 KECCAK256 ADD PUSH1 0x0 SWAP1 SLOAD SWAP1 PUSH2 0x100 EXP SWAP1 DIV PUSH20 0xFFFFFFFFFFFFFFFFFFFFFFFFFFFFFFFFFFFFFFFF AND PUSH20 0xFFFFFFFFFFFFFFFFFFFFFFFFFFFFFFFFFFFFFFFF AND EQ ISZERO PUSH3 0x29C2 JUMPI DUP1 SWAP2 POP JUMPDEST DUP1 DUP1 PUSH3 0x29CF SWAP1 PUSH3 0x3319 JUMP JUMPDEST SWAP2 POP POP PUSH3 0x28AF JUMP JUMPDEST POP DUP1 SWAP2 POP POP SWAP3 SWAP2 POP POP JUMP JUMPDEST PUSH1 0x0 DUP1 PUSH1 0x0 JUMPDEST PUSH1 0x1 PUSH1 0x6 PUSH1 0x0 DUP8 PUSH20 0xFFFFFFFFFFFFFFFFFFFFFFFFFFFFFFFFFFFFFFFF AND PUSH20 0xFFFFFFFFFFFFFFFFFFFFFFFFFFFFFFFFFFFFFFFF AND DUP2 MSTORE PUSH1 0x20 ADD SWAP1 DUP2 MSTORE PUSH1 0x20 ADD PUSH1 0x0 KECCAK256 PUSH1 0x1 ADD DUP1 SLOAD SWAP1 POP PUSH3 0x2A3D SWAP2 SWAP1 PUSH3 0x32AF JUMP JUMPDEST DUP2 GT PUSH3 0x2B14 JUMPI DUP4 PUSH20 0xFFFFFFFFFFFFFFFFFFFFFFFFFFFFFFFFFFFFFFFF AND PUSH1 0x6 PUSH1 0x0 DUP8 PUSH20 0xFFFFFFFFFFFFFFFFFFFFFFFFFFFFFFFFFFFFFFFF AND PUSH20 0xFFFFFFFFFFFFFFFFFFFFFFFFFFFFFFFFFFFFFFFF AND DUP2 MSTORE PUSH1 0x20 ADD SWAP1 DUP2 MSTORE PUSH1 0x20 ADD PUSH1 0x0 KECCAK256 PUSH1 0x1 ADD DUP3 DUP2 SLOAD DUP2 LT PUSH3 0x2AB2 JUMPI PUSH3 0x2AB1 PUSH3 0x32EA JUMP JUMPDEST JUMPDEST SWAP1 PUSH1 0x0 MSTORE PUSH1 0x20 PUSH1 0x0 KECCAK256 ADD PUSH1 0x0 SWAP1 SLOAD SWAP1 PUSH2 0x100 EXP SWAP1 DIV PUSH20 0xFFFFFFFFFFFFFFFFFFFFFFFFFFFFFFFFFFFFFFFF AND PUSH20 0xFFFFFFFFFFFFFFFFFFFFFFFFFFFFFFFFFFFFFFFF AND EQ ISZERO PUSH3 0x2AFE JUMPI DUP1 SWAP2 POP JUMPDEST DUP1 DUP1 PUSH3 0x2B0B SWAP1 PUSH3 0x3319 JUMP JUMPDEST SWAP2 POP POP PUSH3 0x29E9 JUMP JUMPDEST POP DUP1 SWAP2 POP POP SWAP3 SWAP2 POP POP JUMP JUMPDEST PUSH2 0xD19 DUP1 PUSH3 0x3822 DUP4 CODECOPY ADD SWAP1 JUMP JUMPDEST PUSH2 0x119C DUP1 PUSH3 0x453B DUP4 CODECOPY ADD SWAP1 JUMP JUMPDEST PUSH1 0x0 PUSH1 0x40 MLOAD SWAP1 POP SWAP1 JUMP JUMPDEST PUSH1 0x0 DUP1 REVERT JUMPDEST PUSH1 0x0 DUP1 REVERT JUMPDEST PUSH1 0x0 PUSH20 0xFFFFFFFFFFFFFFFFFFFFFFFFFFFFFFFFFFFFFFFF DUP3 AND SWAP1 POP SWAP2 SWAP1 POP JUMP JUMPDEST PUSH1 0x0 PUSH3 0x2B7C DUP3 PUSH3 0x2B4F JUMP JUMPDEST SWAP1 POP SWAP2 SWAP1 POP JUMP JUMPDEST PUSH3 0x2B8E DUP2 PUSH3 0x2B6F JUMP JUMPDEST DUP2 EQ PUSH3 0x2B9A JUMPI PUSH1 0x0 DUP1 REVERT JUMPDEST POP JUMP JUMPDEST PUSH1 0x0 DUP2 CALLDATALOAD SWAP1 POP PUSH3 0x2BAE DUP2 PUSH3 0x2B83 JUMP JUMPDEST SWAP3 SWAP2 POP POP JUMP JUMPDEST PUSH1 0x0 PUSH1 0x20 DUP3 DUP5 SUB SLT ISZERO PUSH3 0x2BCD JUMPI PUSH3 0x2BCC PUSH3 0x2B45 JUMP JUMPDEST JUMPDEST PUSH1 0x0 PUSH3 0x2BDD DUP5 DUP3 DUP6 ADD PUSH3 0x2B9D JUMP JUMPDEST SWAP2 POP POP SWAP3 SWAP2 POP POP JUMP JUMPDEST PUSH1 0x0 DUP2 SWAP1 POP SWAP2 SWAP1 POP JUMP JUMPDEST PUSH3 0x2BFB DUP2 PUSH3 0x2BE6 JUMP JUMPDEST DUP2 EQ PUSH3 0x2C07 JUMPI PUSH1 0x0 DUP1 REVERT JUMPDEST POP JUMP JUMPDEST PUSH1 0x0 DUP2 CALLDATALOAD SWAP1 POP PUSH3 0x2C1B DUP2 PUSH3 0x2BF0 JUMP JUMPDEST SWAP3 SWAP2 POP POP JUMP JUMPDEST PUSH1 0x0 DUP1 PUSH1 0x40 DUP4 DUP6 SUB SLT ISZERO PUSH3 0x2C3B JUMPI PUSH3 0x2C3A PUSH3 0x2B45 JUMP JUMPDEST JUMPDEST PUSH1 0x0 PUSH3 0x2C4B DUP6 DUP3 DUP7 ADD PUSH3 0x2C0A JUMP JUMPDEST SWAP3 POP POP PUSH1 0x20 PUSH3 0x2C5E DUP6 DUP3 DUP7 ADD PUSH3 0x2C0A JUMP JUMPDEST SWAP2 POP POP SWAP3 POP SWAP3 SWAP1 POP JUMP JUMPDEST PUSH1 0x0 DUP2 MLOAD SWAP1 POP SWAP2 SWAP1 POP JUMP JUMPDEST PUSH1 0x0 DUP3 DUP3 MSTORE PUSH1 0x20 DUP3 ADD SWAP1 POP SWAP3 SWAP2 POP POP JUMP JUMPDEST PUSH1 0x0 DUP2 SWAP1 POP PUSH1 0x20 DUP3 ADD SWAP1 POP SWAP2 SWAP1 POP JUMP JUMPDEST PUSH3 0x2C9F DUP2 PUSH3 0x2B6F JUMP JUMPDEST DUP3 MSTORE POP POP JUMP JUMPDEST PUSH1 0x0 PUSH3 0x2CB3 DUP4 DUP4 PUSH3 0x2C94 JUMP JUMPDEST PUSH1 0x20 DUP4 ADD SWAP1 POP SWAP3 SWAP2 POP POP JUMP JUMPDEST PUSH1 0x0 PUSH1 0x20 DUP3 ADD SWAP1 POP SWAP2 SWAP1 POP JUMP JUMPDEST PUSH1 0x0 PUSH3 0x2CD9 DUP3 PUSH3 0x2C68 JUMP JUMPDEST PUSH3 0x2CE5 DUP2 DUP6 PUSH3 0x2C73 JUMP JUMPDEST SWAP4 POP PUSH3 0x2CF2 DUP4 PUSH3 0x2C84 JUMP JUMPDEST DUP1 PUSH1 0x0 JUMPDEST DUP4 DUP2 LT ISZERO PUSH3 0x2D29 JUMPI DUP2 MLOAD PUSH3 0x2D0D DUP9 DUP3 PUSH3 0x2CA5 JUMP JUMPDEST SWAP8 POP PUSH3 0x2D1A DUP4 PUSH3 0x2CBF JUMP JUMPDEST SWAP3 POP POP PUSH1 0x1 DUP2 ADD SWAP1 POP PUSH3 0x2CF6 JUMP JUMPDEST POP DUP6 SWAP4 POP POP POP POP SWAP3 SWAP2 POP POP JUMP JUMPDEST PUSH1 0x0 PUSH1 0x20 DUP3 ADD SWAP1 POP DUP2 DUP2 SUB PUSH1 0x0 DUP4 ADD MSTORE PUSH3 0x2D52 DUP2 DUP5 PUSH3 0x2CCC JUMP JUMPDEST SWAP1 POP SWAP3 SWAP2 POP POP JUMP JUMPDEST PUSH1 0x0 PUSH1 0x20 DUP3 DUP5 SUB SLT ISZERO PUSH3 0x2D73 JUMPI PUSH3 0x2D72 PUSH3 0x2B45 JUMP JUMPDEST JUMPDEST PUSH1 0x0 PUSH3 0x2D83 DUP5 DUP3 DUP6 ADD PUSH3 0x2C0A JUMP JUMPDEST SWAP2 POP POP SWAP3 SWAP2 POP POP JUMP JUMPDEST PUSH3 0x2D97 DUP2 PUSH3 0x2B6F JUMP JUMPDEST DUP3 MSTORE POP POP JUMP JUMPDEST PUSH1 0x0 PUSH1 0x20 DUP3 ADD SWAP1 POP PUSH3 0x2DB4 PUSH1 0x0 DUP4 ADD DUP5 PUSH3 0x2D8C JUMP JUMPDEST SWAP3 SWAP2 POP POP JUMP JUMPDEST PUSH3 0x2DC5 DUP2 PUSH3 0x2BE6 JUMP JUMPDEST DUP3 MSTORE POP POP JUMP JUMPDEST PUSH1 0x0 PUSH1 0x20 DUP3 ADD SWAP1 POP PUSH3 0x2DE2 PUSH1 0x0 DUP4 ADD DUP5 PUSH3 0x2DBA JUMP JUMPDEST SWAP3 SWAP2 POP POP JUMP JUMPDEST PUSH1 0x0 DUP1 REVERT JUMPDEST PUSH1 0x0 DUP1 REVERT JUMPDEST PUSH1 0x0 PUSH1 0x1F NOT PUSH1 0x1F DUP4 ADD AND SWAP1 POP SWAP2 SWAP1 POP JUMP JUMPDEST PUSH32 0x4E487B7100000000000000000000000000000000000000000000000000000000 PUSH1 0x0 MSTORE PUSH1 0x41 PUSH1 0x4 MSTORE PUSH1 0x24 PUSH1 0x0 REVERT JUMPDEST PUSH3 0x2E3D DUP3 PUSH3 0x2DF2 JUMP JUMPDEST DUP2 ADD DUP2 DUP2 LT PUSH8 0xFFFFFFFFFFFFFFFF DUP3 GT OR ISZERO PUSH3 0x2E5F JUMPI PUSH3 0x2E5E PUSH3 0x2E03 JUMP JUMPDEST JUMPDEST DUP1 PUSH1 0x40 MSTORE POP POP POP JUMP JUMPDEST PUSH1 0x0 PUSH3 0x2E74 PUSH3 0x2B3B JUMP JUMPDEST SWAP1 POP PUSH3 0x2E82 DUP3 DUP3 PUSH3 0x2E32 JUMP JUMPDEST SWAP2 SWAP1 POP JUMP JUMPDEST PUSH1 0x0 PUSH8 0xFFFFFFFFFFFFFFFF DUP3 GT ISZERO PUSH3 0x2EA5 JUMPI PUSH3 0x2EA4 PUSH3 0x2E03 JUMP JUMPDEST JUMPDEST PUSH3 0x2EB0 DUP3 PUSH3 0x2DF2 JUMP JUMPDEST SWAP1 POP PUSH1 0x20 DUP2 ADD SWAP1 POP SWAP2 SWAP1 POP JUMP JUMPDEST DUP3 DUP2 DUP4 CALLDATACOPY PUSH1 0x0 DUP4 DUP4 ADD MSTORE POP POP POP JUMP JUMPDEST PUSH1 0x0 PUSH3 0x2EE3 PUSH3 0x2EDD DUP5 PUSH3 0x2E87 JUMP JUMPDEST PUSH3 0x2E68 JUMP JUMPDEST SWAP1 POP DUP3 DUP2 MSTORE PUSH1 0x20 DUP2 ADD DUP5 DUP5 DUP5 ADD GT ISZERO PUSH3 0x2F02 JUMPI PUSH3 0x2F01 PUSH3 0x2DED JUMP JUMPDEST JUMPDEST PUSH3 0x2F0F DUP5 DUP3 DUP6 PUSH3 0x2EBD JUMP JUMPDEST POP SWAP4 SWAP3 POP POP POP JUMP JUMPDEST PUSH1 0x0 DUP3 PUSH1 0x1F DUP4 ADD SLT PUSH3 0x2F2F JUMPI PUSH3 0x2F2E PUSH3 0x2DE8 JUMP JUMPDEST JUMPDEST DUP2 CALLDATALOAD PUSH3 0x2F41 DUP5 DUP3 PUSH1 0x20 DUP7 ADD PUSH3 0x2ECC JUMP JUMPDEST SWAP2 POP POP SWAP3 SWAP2 POP POP JUMP JUMPDEST PUSH1 0x0 DUP1 PUSH1 0x40 DUP4 DUP6 SUB SLT ISZERO PUSH3 0x2F64 JUMPI PUSH3 0x2F63 PUSH3 0x2B45 JUMP JUMPDEST JUMPDEST PUSH1 0x0 PUSH3 0x2F74 DUP6 DUP3 DUP7 ADD PUSH3 0x2B9D JUMP JUMPDEST SWAP3 POP POP PUSH1 0x20 DUP4 ADD CALLDATALOAD PUSH8 0xFFFFFFFFFFFFFFFF DUP2 GT ISZERO PUSH3 0x2F98 JUMPI PUSH3 0x2F97 PUSH3 0x2B4A JUMP JUMPDEST JUMPDEST PUSH3 0x2FA6 DUP6 DUP3 DUP7 ADD PUSH3 0x2F17 JUMP JUMPDEST SWAP2 POP POP SWAP3 POP SWAP3 SWAP1 POP JUMP JUMPDEST PUSH1 0x0 PUSH3 0x2FBD DUP3 PUSH3 0x2B4F JUMP JUMPDEST SWAP1 POP SWAP2 SWAP1 POP JUMP JUMPDEST PUSH3 0x2FCF DUP2 PUSH3 0x2FB0 JUMP JUMPDEST DUP2 EQ PUSH3 0x2FDB JUMPI PUSH1 0x0 DUP1 REVERT JUMPDEST POP JUMP JUMPDEST PUSH1 0x0 DUP2 CALLDATALOAD SWAP1 POP PUSH3 0x2FEF DUP2 PUSH3 0x2FC4 JUMP JUMPDEST SWAP3 SWAP2 POP POP JUMP JUMPDEST PUSH1 0x0 DUP1 PUSH1 0x0 DUP1 PUSH1 0x80 DUP6 DUP8 SUB SLT ISZERO PUSH3 0x3012 JUMPI PUSH3 0x3011 PUSH3 0x2B45 JUMP JUMPDEST JUMPDEST PUSH1 0x0 PUSH3 0x3022 DUP8 DUP3 DUP9 ADD PUSH3 0x2B9D JUMP JUMPDEST SWAP5 POP POP PUSH1 0x20 DUP6 ADD CALLDATALOAD PUSH8 0xFFFFFFFFFFFFFFFF DUP2 GT ISZERO PUSH3 0x3046 JUMPI PUSH3 0x3045 PUSH3 0x2B4A JUMP JUMPDEST JUMPDEST PUSH3 0x3054 DUP8 DUP3 DUP9 ADD PUSH3 0x2F17 JUMP JUMPDEST SWAP4 POP POP PUSH1 0x40 DUP6 ADD CALLDATALOAD PUSH8 0xFFFFFFFFFFFFFFFF DUP2 GT ISZERO PUSH3 0x3078 JUMPI PUSH3 0x3077 PUSH3 0x2B4A JUMP JUMPDEST JUMPDEST PUSH3 0x3086 DUP8 DUP3 DUP9 ADD PUSH3 0x2F17 JUMP JUMPDEST SWAP3 POP POP PUSH1 0x60 PUSH3 0x3099 DUP8 DUP3 DUP9 ADD PUSH3 0x2FDE JUMP JUMPDEST SWAP2 POP POP SWAP3 SWAP6 SWAP2 SWAP5 POP SWAP3 POP JUMP JUMPDEST PUSH1 0x0 DUP2 MLOAD SWAP1 POP PUSH3 0x30B6 DUP2 PUSH3 0x2B83 JUMP JUMPDEST SWAP3 SWAP2 POP POP JUMP JUMPDEST PUSH1 0x0 PUSH1 0x20 DUP3 DUP5 SUB SLT ISZERO PUSH3 0x30D5 JUMPI PUSH3 0x30D4 PUSH3 0x2B45 JUMP JUMPDEST JUMPDEST PUSH1 0x0 PUSH3 0x30E5 DUP5 DUP3 DUP6 ADD PUSH3 0x30A5 JUMP JUMPDEST SWAP2 POP POP SWAP3 SWAP2 POP POP JUMP JUMPDEST PUSH1 0x0 PUSH3 0x30FB DUP3 PUSH3 0x2B6F JUMP JUMPDEST SWAP1 POP SWAP2 SWAP1 POP JUMP JUMPDEST PUSH3 0x310D DUP2 PUSH3 0x30EE JUMP JUMPDEST DUP2 EQ PUSH3 0x3119 JUMPI PUSH1 0x0 DUP1 REVERT JUMPDEST POP JUMP JUMPDEST PUSH1 0x0 DUP2 MLOAD SWAP1 POP PUSH3 0x312D DUP2 PUSH3 0x3102 JUMP JUMPDEST SWAP3 SWAP2 POP POP JUMP JUMPDEST PUSH1 0x0 PUSH1 0x20 DUP3 DUP5 SUB SLT ISZERO PUSH3 0x314C JUMPI PUSH3 0x314B PUSH3 0x2B45 JUMP JUMPDEST JUMPDEST PUSH1 0x0 PUSH3 0x315C DUP5 DUP3 DUP6 ADD PUSH3 0x311C JUMP JUMPDEST SWAP2 POP POP SWAP3 SWAP2 POP POP JUMP JUMPDEST PUSH1 0x0 DUP3 DUP3 MSTORE PUSH1 0x20 DUP3 ADD SWAP1 POP SWAP3 SWAP2 POP POP JUMP JUMPDEST PUSH32 0x537461727420696E6465782063616E6E6F74206265206E656761746976650000 PUSH1 0x0 DUP3 ADD MSTORE POP JUMP JUMPDEST PUSH1 0x0 PUSH3 0x31AE PUSH1 0x1E DUP4 PUSH3 0x3165 JUMP JUMPDEST SWAP2 POP PUSH3 0x31BB DUP3 PUSH3 0x3176 JUMP JUMPDEST PUSH1 0x20 DUP3 ADD SWAP1 POP SWAP2 SWAP1 POP JUMP JUMPDEST PUSH1 0x0 PUSH1 0x20 DUP3 ADD SWAP1 POP DUP2 DUP2 SUB PUSH1 0x0 DUP4 ADD MSTORE PUSH3 0x31E1 DUP2 PUSH3 0x319F JUMP JUMPDEST SWAP1 POP SWAP2 SWAP1 POP JUMP JUMPDEST PUSH32 0x456E6420696E6465782065786365656473207573657220616464726573736573 PUSH1 0x0 DUP3 ADD MSTORE PUSH32 0x206C656E67746800000000000000000000000000000000000000000000000000 PUSH1 0x20 DUP3 ADD MSTORE POP JUMP JUMPDEST PUSH1 0x0 PUSH3 0x3246 PUSH1 0x27 DUP4 PUSH3 0x3165 JUMP JUMPDEST SWAP2 POP PUSH3 0x3253 DUP3 PUSH3 0x31E8 JUMP JUMPDEST PUSH1 0x40 DUP3 ADD SWAP1 POP SWAP2 SWAP1 POP JUMP JUMPDEST PUSH1 0x0 PUSH1 0x20 DUP3 ADD SWAP1 POP DUP2 DUP2 SUB PUSH1 0x0 DUP4 ADD MSTORE PUSH3 0x3279 DUP2 PUSH3 0x3237 JUMP JUMPDEST SWAP1 POP SWAP2 SWAP1 POP JUMP JUMPDEST PUSH32 0x4E487B7100000000000000000000000000000000000000000000000000000000 PUSH1 0x0 MSTORE PUSH1 0x11 PUSH1 0x4 MSTORE PUSH1 0x24 PUSH1 0x0 REVERT JUMPDEST PUSH1 0x0 PUSH3 0x32BC DUP3 PUSH3 0x2BE6 JUMP JUMPDEST SWAP2 POP PUSH3 0x32C9 DUP4 PUSH3 0x2BE6 JUMP JUMPDEST SWAP3 POP DUP3 DUP3 LT ISZERO PUSH3 0x32DF JUMPI PUSH3 0x32DE PUSH3 0x3280 JUMP JUMPDEST JUMPDEST DUP3 DUP3 SUB SWAP1 POP SWAP3 SWAP2 POP POP JUMP JUMPDEST PUSH32 0x4E487B7100000000000000000000000000000000000000000000000000000000 PUSH1 0x0 MSTORE PUSH1 0x32 PUSH1 0x4 MSTORE PUSH1 0x24 PUSH1 0x0 REVERT JUMPDEST PUSH1 0x0 PUSH3 0x3326 DUP3 PUSH3 0x2BE6 JUMP JUMPDEST SWAP2 POP PUSH32 0xFFFFFFFFFFFFFFFFFFFFFFFFFFFFFFFFFFFFFFFFFFFFFFFFFFFFFFFFFFFFFFFF DUP3 EQ ISZERO PUSH3 0x335C JUMPI PUSH3 0x335B PUSH3 0x3280 JUMP JUMPDEST JUMPDEST PUSH1 0x1 DUP3 ADD SWAP1 POP SWAP2 SWAP1 POP JUMP JUMPDEST PUSH1 0x0 PUSH3 0x3374 DUP3 PUSH3 0x2B6F JUMP JUMPDEST SWAP1 POP SWAP2 SWAP1 POP JUMP JUMPDEST PUSH3 0x3386 DUP2 PUSH3 0x3367 JUMP JUMPDEST DUP2 EQ PUSH3 0x3392 JUMPI PUSH1 0x0 DUP1 REVERT JUMPDEST POP JUMP JUMPDEST PUSH1 0x0 DUP2 MLOAD SWAP1 POP PUSH3 0x33A6 DUP2 PUSH3 0x337B JUMP JUMPDEST SWAP3 SWAP2 POP POP JUMP JUMPDEST PUSH1 0x0 PUSH1 0x20 DUP3 DUP5 SUB SLT ISZERO PUSH3 0x33C5 JUMPI PUSH3 0x33C4 PUSH3 0x2B45 JUMP JUMPDEST JUMPDEST PUSH1 0x0 PUSH3 0x33D5 DUP5 DUP3 DUP6 ADD PUSH3 0x3395 JUMP JUMPDEST SWAP2 POP POP SWAP3 SWAP2 POP POP JUMP JUMPDEST PUSH1 0x0 DUP2 MLOAD SWAP1 POP SWAP2 SWAP1 POP JUMP JUMPDEST PUSH1 0x0 JUMPDEST DUP4 DUP2 LT ISZERO PUSH3 0x3409 JUMPI DUP1 DUP3 ADD MLOAD DUP2 DUP5 ADD MSTORE PUSH1 0x20 DUP2 ADD SWAP1 POP PUSH3 0x33EC JUMP JUMPDEST DUP4 DUP2 GT ISZERO PUSH3 0x3419 JUMPI PUSH1 0x0 DUP5 DUP5 ADD MSTORE JUMPDEST POP POP POP POP JUMP JUMPDEST PUSH1 0x0 PUSH3 0x342C DUP3 PUSH3 0x33DE JUMP JUMPDEST PUSH3 0x3438 DUP2 DUP6 PUSH3 0x3165 JUMP JUMPDEST SWAP4 POP PUSH3 0x344A DUP2 DUP6 PUSH1 0x20 DUP7 ADD PUSH3 0x33E9 JUMP JUMPDEST PUSH3 0x3455 DUP2 PUSH3 0x2DF2 JUMP JUMPDEST DUP5 ADD SWAP2 POP POP SWAP3 SWAP2 POP POP JUMP JUMPDEST PUSH1 0x0 PUSH1 0x20 DUP3 ADD SWAP1 POP DUP2 DUP2 SUB PUSH1 0x0 DUP4 ADD MSTORE PUSH3 0x347C DUP2 DUP5 PUSH3 0x341F JUMP JUMPDEST SWAP1 POP SWAP3 SWAP2 POP POP JUMP JUMPDEST PUSH32 0x4E487B7100000000000000000000000000000000000000000000000000000000 PUSH1 0x0 MSTORE PUSH1 0x21 PUSH1 0x4 MSTORE PUSH1 0x24 PUSH1 0x0 REVERT JUMPDEST PUSH1 0x3 DUP2 LT PUSH3 0x34C1 JUMPI PUSH1 0x0 DUP1 REVERT JUMPDEST POP JUMP JUMPDEST PUSH1 0x0 DUP2 MLOAD SWAP1 POP PUSH3 0x34D5 DUP2 PUSH3 0x34B3 JUMP JUMPDEST SWAP3 SWAP2 POP POP JUMP JUMPDEST PUSH1 0x0 PUSH1 0x20 DUP3 DUP5 SUB SLT ISZERO PUSH3 0x34F4 JUMPI PUSH3 0x34F3 PUSH3 0x2B45 JUMP JUMPDEST JUMPDEST PUSH1 0x0 PUSH3 0x3504 DUP5 DUP3 DUP6 ADD PUSH3 0x34C4 JUMP JUMPDEST SWAP2 POP POP SWAP3 SWAP2 POP POP JUMP JUMPDEST PUSH32 0x436F6E747261637420737461747573206D757374206265206F70656E00000000 PUSH1 0x0 DUP3 ADD MSTORE POP JUMP JUMPDEST PUSH1 0x0 PUSH3 0x3545 PUSH1 0x1C DUP4 PUSH3 0x3165 JUMP JUMPDEST SWAP2 POP PUSH3 0x3552 DUP3 PUSH3 0x350D JUMP JUMPDEST PUSH1 0x20 DUP3 ADD SWAP1 POP SWAP2 SWAP1 POP JUMP JUMPDEST PUSH1 0x0 PUSH1 0x20 DUP3 ADD SWAP1 POP DUP2 DUP2 SUB PUSH1 0x0 DUP4 ADD MSTORE PUSH3 0x3578 DUP2 PUSH3 0x3536 JUMP JUMPDEST SWAP1 POP SWAP2 SWAP1 POP JUMP JUMPDEST PUSH32 0x4F6E6C792063726561746F72206F6620636F6E74726163742063616E20726571 PUSH1 0x0 DUP3 ADD MSTORE PUSH32 0x7565737420636F6D706C6574696F6E0000000000000000000000000000000000 PUSH1 0x20 DUP3 ADD MSTORE POP JUMP JUMPDEST PUSH1 0x0 PUSH3 0x35DD PUSH1 0x2F DUP4 PUSH3 0x3165 JUMP JUMPDEST SWAP2 POP PUSH3 0x35EA DUP3 PUSH3 0x357F JUMP JUMPDEST PUSH1 0x40 DUP3 ADD SWAP1 POP SWAP2 SWAP1 POP JUMP JUMPDEST PUSH1 0x0 PUSH1 0x20 DUP3 ADD SWAP1 POP DUP2 DUP2 SUB PUSH1 0x0 DUP4 ADD MSTORE PUSH3 0x3610 DUP2 PUSH3 0x35CE JUMP JUMPDEST SWAP1 POP SWAP2 SWAP1 POP JUMP JUMPDEST PUSH32 0x43616E6E6F74207265717565737420617070726F76616C207768656E20637265 PUSH1 0x0 DUP3 ADD MSTORE PUSH32 0x61746F7220697320726566657265650000000000000000000000000000000000 PUSH1 0x20 DUP3 ADD MSTORE POP JUMP JUMPDEST PUSH1 0x0 PUSH3 0x3675 PUSH1 0x2F DUP4 PUSH3 0x3165 JUMP JUMPDEST SWAP2 POP PUSH3 0x3682 DUP3 PUSH3 0x3617 JUMP JUMPDEST PUSH1 0x40 DUP3 ADD SWAP1 POP SWAP2 SWAP1 POP JUMP JUMPDEST PUSH1 0x0 PUSH1 0x20 DUP3 ADD SWAP1 POP DUP2 DUP2 SUB PUSH1 0x0 DUP4 ADD MSTORE PUSH3 0x36A8 DUP2 PUSH3 0x3666 JUMP JUMPDEST SWAP1 POP SWAP2 SWAP1 POP JUMP JUMPDEST PUSH1 0x0 DUP2 SWAP1 POP SWAP2 SWAP1 POP JUMP JUMPDEST PUSH1 0x0 PUSH3 0x36DA PUSH3 0x36D4 PUSH3 0x36CE DUP5 PUSH3 0x2B4F JUMP JUMPDEST PUSH3 0x36AF JUMP JUMPDEST PUSH3 0x2B4F JUMP JUMPDEST SWAP1 POP SWAP2 SWAP1 POP JUMP JUMPDEST PUSH1 0x0 PUSH3 0x36EE DUP3 PUSH3 0x36B9 JUMP JUMPDEST SWAP1 POP SWAP2 SWAP1 POP JUMP JUMPDEST PUSH1 0x0 PUSH3 0x3702 DUP3 PUSH3 0x36E1 JUMP JUMPDEST SWAP1 POP SWAP2 SWAP1 POP JUMP JUMPDEST PUSH3 0x3714 DUP2 PUSH3 0x36F5 JUMP JUMPDEST DUP3 MSTORE POP POP JUMP JUMPDEST PUSH1 0x0 PUSH1 0xC0 DUP3 ADD SWAP1 POP PUSH3 0x3731 PUSH1 0x0 DUP4 ADD DUP10 PUSH3 0x2D8C JUMP JUMPDEST PUSH3 0x3740 PUSH1 0x20 DUP4 ADD DUP9 PUSH3 0x2D8C JUMP JUMPDEST DUP2 DUP2 SUB PUSH1 0x40 DUP4 ADD MSTORE PUSH3 0x3754 DUP2 DUP8 PUSH3 0x341F JUMP JUMPDEST SWAP1 POP DUP2 DUP2 SUB PUSH1 0x60 DUP4 ADD MSTORE PUSH3 0x376A DUP2 DUP7 PUSH3 0x341F JUMP JUMPDEST SWAP1 POP PUSH3 0x377B PUSH1 0x80 DUP4 ADD DUP6 PUSH3 0x3709 JUMP JUMPDEST PUSH3 0x378A PUSH1 0xA0 DUP4 ADD DUP5 PUSH3 0x2DBA JUMP JUMPDEST SWAP8 SWAP7 POP POP POP POP POP POP POP JUMP JUMPDEST PUSH1 0x0 PUSH3 0x37A2 DUP3 PUSH3 0x2BE6 JUMP JUMPDEST SWAP2 POP PUSH3 0x37AF DUP4 PUSH3 0x2BE6 JUMP JUMPDEST SWAP3 POP DUP3 PUSH32 0xFFFFFFFFFFFFFFFFFFFFFFFFFFFFFFFFFFFFFFFFFFFFFFFFFFFFFFFFFFFFFFFF SUB DUP3 GT ISZERO PUSH3 0x37E7 JUMPI PUSH3 0x37E6 PUSH3 0x3280 JUMP JUMPDEST JUMPDEST DUP3 DUP3 ADD SWAP1 POP SWAP3 SWAP2 POP POP JUMP JUMPDEST PUSH32 0x4E487B7100000000000000000000000000000000000000000000000000000000 PUSH1 0x0 MSTORE PUSH1 0x31 PUSH1 0x4 MSTORE PUSH1 0x24 PUSH1 0x0 REVERT INVALID PUSH1 0x80 PUSH1 0x40 MSTORE CALLVALUE DUP1 ISZERO PUSH3 0x11 JUMPI PUSH1 0x0 DUP1 REVERT JUMPDEST POP PUSH1 0x40 MLOAD PUSH3 0xD19 CODESIZE SUB DUP1 PUSH3 0xD19 DUP4 CODECOPY DUP2 DUP2 ADD PUSH1 0x40 MSTORE DUP2 ADD SWAP1 PUSH3 0x37 SWAP2 SWAP1 PUSH3 0x280 JUMP JUMPDEST PUSH1 0x0 DUP2 SWAP1 POP DUP1 PUSH20 0xFFFFFFFFFFFFFFFFFFFFFFFFFFFFFFFFFFFFFFFF AND PUSH4 0x2D05D3F PUSH1 0x40 MLOAD DUP2 PUSH4 0xFFFFFFFF AND PUSH1 0xE0 SHL DUP2 MSTORE PUSH1 0x4 ADD PUSH1 0x20 PUSH1 0x40 MLOAD DUP1 DUP4 SUB DUP2 DUP7 GAS STATICCALL ISZERO DUP1 ISZERO PUSH3 0x88 JUMPI RETURNDATASIZE PUSH1 0x0 DUP1 RETURNDATACOPY RETURNDATASIZE PUSH1 0x0 REVERT JUMPDEST POP POP POP POP PUSH1 0x40 MLOAD RETURNDATASIZE PUSH1 0x1F NOT PUSH1 0x1F DUP3 ADD AND DUP3 ADD DUP1 PUSH1 0x40 MSTORE POP DUP2 ADD SWAP1 PUSH3 0xAE SWAP2 SWAP1 PUSH3 0x280 JUMP JUMPDEST PUSH1 0x0 DUP1 PUSH2 0x100 EXP DUP2 SLOAD DUP2 PUSH20 0xFFFFFFFFFFFFFFFFFFFFFFFFFFFFFFFFFFFFFFFF MUL NOT AND SWAP1 DUP4 PUSH20 0xFFFFFFFFFFFFFFFFFFFFFFFFFFFFFFFFFFFFFFFF AND MUL OR SWAP1 SSTORE POP DUP1 PUSH20 0xFFFFFFFFFFFFFFFFFFFFFFFFFFFFFFFFFFFFFFFF AND PUSH4 0x3B1BEBD1 PUSH1 0x40 MLOAD DUP2 PUSH4 0xFFFFFFFF AND PUSH1 0xE0 SHL DUP2 MSTORE PUSH1 0x4 ADD PUSH1 0x20 PUSH1 0x40 MLOAD DUP1 DUP4 SUB DUP2 DUP7 GAS STATICCALL ISZERO DUP1 ISZERO PUSH3 0x139 JUMPI RETURNDATASIZE PUSH1 0x0 DUP1 RETURNDATACOPY RETURNDATASIZE PUSH1 0x0 REVERT JUMPDEST POP POP POP POP PUSH1 0x40 MLOAD RETURNDATASIZE PUSH1 0x1F NOT PUSH1 0x1F DUP3 ADD AND DUP3 ADD DUP1 PUSH1 0x40 MSTORE POP DUP2 ADD SWAP1 PUSH3 0x15F SWAP2 SWAP1 PUSH3 0x280 JUMP JUMPDEST PUSH1 0x1 PUSH1 0x0 PUSH2 0x100 EXP DUP2 SLOAD DUP2 PUSH20 0xFFFFFFFFFFFFFFFFFFFFFFFFFFFFFFFFFFFFFFFF MUL NOT AND SWAP1 DUP4 PUSH20 0xFFFFFFFFFFFFFFFFFFFFFFFFFFFFFFFFFFFFFFFF AND MUL OR SWAP1 SSTORE POP DUP2 PUSH1 0x2 PUSH1 0x0 PUSH2 0x100 EXP DUP2 SLOAD DUP2 PUSH20 0xFFFFFFFFFFFFFFFFFFFFFFFFFFFFFFFFFFFFFFFF MUL NOT AND SWAP1 DUP4 PUSH20 0xFFFFFFFFFFFFFFFFFFFFFFFFFFFFFFFFFFFFFFFF AND MUL OR SWAP1 SSTORE POP PUSH1 0x0 PUSH1 0x2 PUSH1 0x14 PUSH2 0x100 EXP DUP2 SLOAD DUP2 PUSH1 0xFF MUL NOT AND SWAP1 DUP4 PUSH1 0x2 DUP2 GT ISZERO PUSH3 0x209 JUMPI PUSH3 0x208 PUSH3 0x2B2 JUMP JUMPDEST JUMPDEST MUL OR SWAP1 SSTORE POP POP POP PUSH3 0x2E1 JUMP JUMPDEST PUSH1 0x0 DUP1 REVERT JUMPDEST PUSH1 0x0 PUSH20 0xFFFFFFFFFFFFFFFFFFFFFFFFFFFFFFFFFFFFFFFF DUP3 AND SWAP1 POP SWAP2 SWAP1 POP JUMP JUMPDEST PUSH1 0x0 PUSH3 0x248 DUP3 PUSH3 0x21B JUMP JUMPDEST SWAP1 POP SWAP2 SWAP1 POP JUMP JUMPDEST PUSH3 0x25A DUP2 PUSH3 0x23B JUMP JUMPDEST DUP2 EQ PUSH3 0x266 JUMPI PUSH1 0x0 DUP1 REVERT JUMPDEST POP JUMP JUMPDEST PUSH1 0x0 DUP2 MLOAD SWAP1 POP PUSH3 0x27A DUP2 PUSH3 0x24F JUMP JUMPDEST SWAP3 SWAP2 POP POP JUMP JUMPDEST PUSH1 0x0 PUSH1 0x20 DUP3 DUP5 SUB SLT ISZERO PUSH3 0x299 JUMPI PUSH3 0x298 PUSH3 0x216 JUMP JUMPDEST JUMPDEST PUSH1 0x0 PUSH3 0x2A9 DUP5 DUP3 DUP6 ADD PUSH3 0x269 JUMP JUMPDEST SWAP2 POP POP SWAP3 SWAP2 POP POP JUMP JUMPDEST PUSH32 0x4E487B7100000000000000000000000000000000000000000000000000000000 PUSH1 0x0 MSTORE PUSH1 0x21 PUSH1 0x4 MSTORE PUSH1 0x24 PUSH1 0x0 REVERT JUMPDEST PUSH2 0xA28 DUP1 PUSH3 0x2F1 PUSH1 0x0 CODECOPY PUSH1 0x0 RETURN INVALID PUSH1 0x80 PUSH1 0x40 MSTORE CALLVALUE DUP1 ISZERO PUSH2 0x10 JUMPI PUSH1 0x0 DUP1 REVERT JUMPDEST POP PUSH1 0x4 CALLDATASIZE LT PUSH2 0x7D JUMPI PUSH1 0x0 CALLDATALOAD PUSH1 0xE0 SHR DUP1 PUSH4 0x3B1BEBD1 GT PUSH2 0x5B JUMPI DUP1 PUSH4 0x3B1BEBD1 EQ PUSH2 0xDC JUMPI DUP1 PUSH4 0x3C490174 EQ PUSH2 0xFA JUMPI DUP1 PUSH4 0x7A7F01A7 EQ PUSH2 0x118 JUMPI DUP1 PUSH4 0xD69B7CE3 EQ PUSH2 0x136 JUMPI PUSH2 0x7D JUMP JUMPDEST DUP1 PUSH4 0x2D05D3F EQ PUSH2 0x82 JUMPI DUP1 PUSH4 0x200D2ED2 EQ PUSH2 0xA0 JUMPI DUP1 PUSH4 0x263B81C9 EQ PUSH2 0xBE JUMPI JUMPDEST PUSH1 0x0 DUP1 REVERT JUMPDEST PUSH2 0x8A PUSH2 0x166 JUMP JUMPDEST PUSH1 0x40 MLOAD PUSH2 0x97 SWAP2 SWAP1 PUSH2 0x4F9 JUMP JUMPDEST PUSH1 0x40 MLOAD DUP1 SWAP2 SUB SWAP1 RETURN JUMPDEST PUSH2 0xA8 PUSH2 0x18A JUMP JUMPDEST PUSH1 0x40 MLOAD PUSH2 0xB5 SWAP2 SWAP1 PUSH2 0x58B JUMP JUMPDEST PUSH1 0x40 MLOAD DUP1 SWAP2 SUB SWAP1 RETURN JUMPDEST PUSH2 0xC6 PUSH2 0x19D JUMP JUMPDEST PUSH1 0x40 MLOAD PUSH2 0xD3 SWAP2 SWAP1 PUSH2 0x605 JUMP JUMPDEST PUSH1 0x40 MLOAD DUP1 SWAP2 SUB SWAP1 RETURN JUMPDEST PUSH2 0xE4 PUSH2 0x260 JUMP JUMPDEST PUSH1 0x40 MLOAD PUSH2 0xF1 SWAP2 SWAP1 PUSH2 0x4F9 JUMP JUMPDEST PUSH1 0x40 MLOAD DUP1 SWAP2 SUB SWAP1 RETURN JUMPDEST PUSH2 0x102 PUSH2 0x286 JUMP JUMPDEST PUSH1 0x40 MLOAD PUSH2 0x10F SWAP2 SWAP1 PUSH2 0x4F9 JUMP JUMPDEST PUSH1 0x40 MLOAD DUP1 SWAP2 SUB SWAP1 RETURN JUMPDEST PUSH2 0x120 PUSH2 0x2AC JUMP JUMPDEST PUSH1 0x40 MLOAD PUSH2 0x12D SWAP2 SWAP1 PUSH2 0x6B9 JUMP JUMPDEST PUSH1 0x40 MLOAD DUP1 SWAP2 SUB SWAP1 RETURN JUMPDEST PUSH2 0x150 PUSH1 0x4 DUP1 CALLDATASIZE SUB DUP2 ADD SWAP1 PUSH2 0x14B SWAP2 SWAP1 PUSH2 0x824 JUMP JUMPDEST PUSH2 0x33A JUMP JUMPDEST PUSH1 0x40 MLOAD PUSH2 0x15D SWAP2 SWAP1 PUSH2 0x605 JUMP JUMPDEST PUSH1 0x40 MLOAD DUP1 SWAP2 SUB SWAP1 RETURN JUMPDEST PUSH1 0x0 DUP1 SLOAD SWAP1 PUSH2 0x100 EXP SWAP1 DIV PUSH20 0xFFFFFFFFFFFFFFFFFFFFFFFFFFFFFFFFFFFFFFFF AND DUP2 JUMP JUMPDEST PUSH1 0x2 PUSH1 0x14 SWAP1 SLOAD SWAP1 PUSH2 0x100 EXP SWAP1 DIV PUSH1 0xFF AND DUP2 JUMP JUMPDEST PUSH1 0x0 PUSH1 0x1 PUSH1 0x0 SWAP1 SLOAD SWAP1 PUSH2 0x100 EXP SWAP1 DIV PUSH20 0xFFFFFFFFFFFFFFFFFFFFFFFFFFFFFFFFFFFFFFFF AND PUSH20 0xFFFFFFFFFFFFFFFFFFFFFFFFFFFFFFFFFFFFFFFF AND ORIGIN PUSH20 0xFFFFFFFFFFFFFFFFFFFFFFFFFFFFFFFFFFFFFFFF AND EQ PUSH2 0x22F JUMPI PUSH1 0x40 MLOAD PUSH32 0x8C379A000000000000000000000000000000000000000000000000000000000 DUP2 MSTORE PUSH1 0x4 ADD PUSH2 0x226 SWAP1 PUSH2 0x8DF JUMP JUMPDEST PUSH1 0x40 MLOAD DUP1 SWAP2 SUB SWAP1 REVERT JUMPDEST PUSH1 0x1 PUSH1 0x2 PUSH1 0x14 PUSH2 0x100 EXP DUP2 SLOAD DUP2 PUSH1 0xFF MUL NOT AND SWAP1 DUP4 PUSH1 0x2 DUP2 GT ISZERO PUSH2 0x255 JUMPI PUSH2 0x254 PUSH2 0x514 JUMP JUMPDEST JUMPDEST MUL OR SWAP1 SSTORE POP ADDRESS SWAP1 POP SWAP1 JUMP JUMPDEST PUSH1 0x1 PUSH1 0x0 SWAP1 SLOAD SWAP1 PUSH2 0x100 EXP SWAP1 DIV PUSH20 0xFFFFFFFFFFFFFFFFFFFFFFFFFFFFFFFFFFFFFFFF AND DUP2 JUMP JUMPDEST PUSH1 0x2 PUSH1 0x0 SWAP1 SLOAD SWAP1 PUSH2 0x100 EXP SWAP1 DIV PUSH20 0xFFFFFFFFFFFFFFFFFFFFFFFFFFFFFFFFFFFFFFFF AND DUP2 JUMP JUMPDEST PUSH1 0x3 DUP1 SLOAD PUSH2 0x2B9 SWAP1 PUSH2 0x92E JUMP JUMPDEST DUP1 PUSH1 0x1F ADD PUSH1 0x20 DUP1 SWAP2 DIV MUL PUSH1 0x20 ADD PUSH1 0x40 MLOAD SWAP1 DUP2 ADD PUSH1 0x40 MSTORE DUP1 SWAP3 SWAP2 SWAP1 DUP2 DUP2 MSTORE PUSH1 0x20 ADD DUP3 DUP1 SLOAD PUSH2 0x2E5 SWAP1 PUSH2 0x92E JUMP JUMPDEST DUP1 ISZERO PUSH2 0x332 JUMPI DUP1 PUSH1 0x1F LT PUSH2 0x307 JUMPI PUSH2 0x100 DUP1 DUP4 SLOAD DIV MUL DUP4 MSTORE SWAP2 PUSH1 0x20 ADD SWAP2 PUSH2 0x332 JUMP JUMPDEST DUP3 ADD SWAP2 SWAP1 PUSH1 0x0 MSTORE PUSH1 0x20 PUSH1 0x0 KECCAK256 SWAP1 JUMPDEST DUP2 SLOAD DUP2 MSTORE SWAP1 PUSH1 0x1 ADD SWAP1 PUSH1 0x20 ADD DUP1 DUP4 GT PUSH2 0x315 JUMPI DUP3 SWAP1 SUB PUSH1 0x1F AND DUP3 ADD SWAP2 JUMPDEST POP POP POP POP POP DUP2 JUMP JUMPDEST PUSH1 0x0 PUSH1 0x1 PUSH1 0x0 SWAP1 SLOAD SWAP1 PUSH2 0x100 EXP SWAP1 DIV PUSH20 0xFFFFFFFFFFFFFFFFFFFFFFFFFFFFFFFFFFFFFFFF AND PUSH20 0xFFFFFFFFFFFFFFFFFFFFFFFFFFFFFFFFFFFFFFFF AND ORIGIN PUSH20 0xFFFFFFFFFFFFFFFFFFFFFFFFFFFFFFFFFFFFFFFF AND EQ PUSH2 0x3CC JUMPI PUSH1 0x40 MLOAD PUSH32 0x8C379A000000000000000000000000000000000000000000000000000000000 DUP2 MSTORE PUSH1 0x4 ADD PUSH2 0x3C3 SWAP1 PUSH2 0x9D2 JUMP JUMPDEST PUSH1 0x40 MLOAD DUP1 SWAP2 SUB SWAP1 REVERT JUMPDEST PUSH1 0x2 DUP1 PUSH1 0x14 PUSH2 0x100 EXP DUP2 SLOAD DUP2 PUSH1 0xFF MUL NOT AND SWAP1 DUP4 PUSH1 0x2 DUP2 GT ISZERO PUSH2 0x3F1 JUMPI PUSH2 0x3F0 PUSH2 0x514 JUMP JUMPDEST JUMPDEST MUL OR SWAP1 SSTORE POP DUP2 PUSH1 0x3 SWAP1 DUP1 MLOAD SWAP1 PUSH1 0x20 ADD SWAP1 PUSH2 0x40C SWAP3 SWAP2 SWAP1 PUSH2 0x415 JUMP JUMPDEST POP ADDRESS SWAP1 POP SWAP2 SWAP1 POP JUMP JUMPDEST DUP3 DUP1 SLOAD PUSH2 0x421 SWAP1 PUSH2 0x92E JUMP JUMPDEST SWAP1 PUSH1 0x0 MSTORE PUSH1 0x20 PUSH1 0x0 KECCAK256 SWAP1 PUSH1 0x1F ADD PUSH1 0x20 SWAP1 DIV DUP2 ADD SWAP3 DUP3 PUSH2 0x443 JUMPI PUSH1 0x0 DUP6 SSTORE PUSH2 0x48A JUMP JUMPDEST DUP3 PUSH1 0x1F LT PUSH2 0x45C JUMPI DUP1 MLOAD PUSH1 0xFF NOT AND DUP4 DUP1 ADD OR DUP6 SSTORE PUSH2 0x48A JUMP JUMPDEST DUP3 DUP1 ADD PUSH1 0x1 ADD DUP6 SSTORE DUP3 ISZERO PUSH2 0x48A JUMPI SWAP2 DUP3 ADD JUMPDEST DUP3 DUP2 GT ISZERO PUSH2 0x489 JUMPI DUP3 MLOAD DUP3 SSTORE SWAP2 PUSH1 0x20 ADD SWAP2 SWAP1 PUSH1 0x1 ADD SWAP1 PUSH2 0x46E JUMP JUMPDEST JUMPDEST POP SWAP1 POP PUSH2 0x497 SWAP2 SWAP1 PUSH2 0x49B JUMP JUMPDEST POP SWAP1 JUMP JUMPDEST JUMPDEST DUP1 DUP3 GT ISZERO PUSH2 0x4B4 JUMPI PUSH1 0x0 DUP2 PUSH1 0x0 SWAP1 SSTORE POP PUSH1 0x1 ADD PUSH2 0x49C JUMP JUMPDEST POP SWAP1 JUMP JUMPDEST PUSH1 0x0 PUSH20 0xFFFFFFFFFFFFFFFFFFFFFFFFFFFFFFFFFFFFFFFF DUP3 AND SWAP1 POP SWAP2 SWAP1 POP JUMP JUMPDEST PUSH1 0x0 PUSH2 0x4E3 DUP3 PUSH2 0x4B8 JUMP JUMPDEST SWAP1 POP SWAP2 SWAP1 POP JUMP JUMPDEST PUSH2 0x4F3 DUP2 PUSH2 0x4D8 JUMP JUMPDEST DUP3 MSTORE POP POP JUMP JUMPDEST PUSH1 0x0 PUSH1 0x20 DUP3 ADD SWAP1 POP PUSH2 0x50E PUSH1 0x0 DUP4 ADD DUP5 PUSH2 0x4EA JUMP JUMPDEST SWAP3 SWAP2 POP POP JUMP JUMPDEST PUSH32 0x4E487B7100000000000000000000000000000000000000000000000000000000 PUSH1 0x0 MSTORE PUSH1 0x21 PUSH1 0x4 MSTORE PUSH1 0x24 PUSH1 0x0 REVERT JUMPDEST PUSH1 0x3 DUP2 LT PUSH2 0x554 JUMPI PUSH2 0x553 PUSH2 0x514 JUMP JUMPDEST JUMPDEST POP JUMP JUMPDEST PUSH1 0x0 DUP2 SWAP1 POP PUSH2 0x565 DUP3 PUSH2 0x543 JUMP JUMPDEST SWAP2 SWAP1 POP JUMP JUMPDEST PUSH1 0x0 PUSH2 0x575 DUP3 PUSH2 0x557 JUMP JUMPDEST SWAP1 POP SWAP2 SWAP1 POP JUMP JUMPDEST PUSH2 0x585 DUP2 PUSH2 0x56A JUMP JUMPDEST DUP3 MSTORE POP POP JUMP JUMPDEST PUSH1 0x0 PUSH1 0x20 DUP3 ADD SWAP1 POP PUSH2 0x5A0 PUSH1 0x0 DUP4 ADD DUP5 PUSH2 0x57C JUMP JUMPDEST SWAP3 SWAP2 POP POP JUMP JUMPDEST PUSH1 0x0 DUP2 SWAP1 POP SWAP2 SWAP1 POP JUMP JUMPDEST PUSH1 0x0 PUSH2 0x5CB PUSH2 0x5C6 PUSH2 0x5C1 DUP5 PUSH2 0x4B8 JUMP JUMPDEST PUSH2 0x5A6 JUMP JUMPDEST PUSH2 0x4B8 JUMP JUMPDEST SWAP1 POP SWAP2 SWAP1 POP JUMP JUMPDEST PUSH1 0x0 PUSH2 0x5DD DUP3 PUSH2 0x5B0 JUMP JUMPDEST SWAP1 POP SWAP2 SWAP1 POP JUMP JUMPDEST PUSH1 0x0 PUSH2 0x5EF DUP3 PUSH2 0x5D2 JUMP JUMPDEST SWAP1 POP SWAP2 SWAP1 POP JUMP JUMPDEST PUSH2 0x5FF DUP2 PUSH2 0x5E4 JUMP JUMPDEST DUP3 MSTORE POP POP JUMP JUMPDEST PUSH1 0x0 PUSH1 0x20 DUP3 ADD SWAP1 POP PUSH2 0x61A PUSH1 0x0 DUP4 ADD DUP5 PUSH2 0x5F6 JUMP JUMPDEST SWAP3 SWAP2 POP POP JUMP JUMPDEST PUSH1 0x0 DUP2 MLOAD SWAP1 POP SWAP2 SWAP1 POP JUMP JUMPDEST PUSH1 0x0 DUP3 DUP3 MSTORE PUSH1 0x20 DUP3 ADD SWAP1 POP SWAP3 SWAP2 POP POP JUMP JUMPDEST PUSH1 0x0 JUMPDEST DUP4 DUP2 LT ISZERO PUSH2 0x65A JUMPI DUP1 DUP3 ADD MLOAD DUP2 DUP5 ADD MSTORE PUSH1 0x20 DUP2 ADD SWAP1 POP PUSH2 0x63F JUMP JUMPDEST DUP4 DUP2 GT ISZERO PUSH2 0x669 JUMPI PUSH1 0x0 DUP5 DUP5 ADD MSTORE JUMPDEST POP POP POP POP JUMP JUMPDEST PUSH1 0x0 PUSH1 0x1F NOT PUSH1 0x1F DUP4 ADD AND SWAP1 POP SWAP2 SWAP1 POP JUMP JUMPDEST PUSH1 0x0 PUSH2 0x68B DUP3 PUSH2 0x620 JUMP JUMPDEST PUSH2 0x695 DUP2 DUP6 PUSH2 0x62B JUMP JUMPDEST SWAP4 POP PUSH2 0x6A5 DUP2 DUP6 PUSH1 0x20 DUP7 ADD PUSH2 0x63C JUMP JUMPDEST PUSH2 0x6AE DUP2 PUSH2 0x66F JUMP JUMPDEST DUP5 ADD SWAP2 POP POP SWAP3 SWAP2 POP POP JUMP JUMPDEST PUSH1 0x0 PUSH1 0x20 DUP3 ADD SWAP1 POP DUP2 DUP2 SUB PUSH1 0x0 DUP4 ADD MSTORE PUSH2 0x6D3 DUP2 DUP5 PUSH2 0x680 JUMP JUMPDEST SWAP1 POP SWAP3 SWAP2 POP POP JUMP JUMPDEST PUSH1 0x0 PUSH1 0x40 MLOAD SWAP1 POP SWAP1 JUMP JUMPDEST PUSH1 0x0 DUP1 REVERT JUMPDEST PUSH1 0x0 DUP1 REVERT JUMPDEST PUSH1 0x0 DUP1 REVERT JUMPDEST PUSH1 0x0 DUP1 REVERT JUMPDEST PUSH32 0x4E487B7100000000000000000000000000000000000000000000000000000000 PUSH1 0x0 MSTORE PUSH1 0x41 PUSH1 0x4 MSTORE PUSH1 0x24 PUSH1 0x0 REVERT JUMPDEST PUSH2 0x731 DUP3 PUSH2 0x66F JUMP JUMPDEST DUP2 ADD DUP2 DUP2 LT PUSH8 0xFFFFFFFFFFFFFFFF DUP3 GT OR ISZERO PUSH2 0x750 JUMPI PUSH2 0x74F PUSH2 0x6F9 JUMP JUMPDEST JUMPDEST DUP1 PUSH1 0x40 MSTORE POP POP POP JUMP JUMPDEST PUSH1 0x0 PUSH2 0x763 PUSH2 0x6DB JUMP JUMPDEST SWAP1 POP PUSH2 0x76F DUP3 DUP3 PUSH2 0x728 JUMP JUMPDEST SWAP2 SWAP1 POP JUMP JUMPDEST PUSH1 0x0 PUSH8 0xFFFFFFFFFFFFFFFF DUP3 GT ISZERO PUSH2 0x78F JUMPI PUSH2 0x78E PUSH2 0x6F9 JUMP JUMPDEST JUMPDEST PUSH2 0x798 DUP3 PUSH2 0x66F JUMP JUMPDEST SWAP1 POP PUSH1 0x20 DUP2 ADD SWAP1 POP SWAP2 SWAP1 POP JUMP JUMPDEST DUP3 DUP2 DUP4 CALLDATACOPY PUSH1 0x0 DUP4 DUP4 ADD MSTORE POP POP POP JUMP JUMPDEST PUSH1 0x0 PUSH2 0x7C7 PUSH2 0x7C2 DUP5 PUSH2 0x774 JUMP JUMPDEST PUSH2 0x759 JUMP JUMPDEST SWAP1 POP DUP3 DUP2 MSTORE PUSH1 0x20 DUP2 ADD DUP5 DUP5 DUP5 ADD GT ISZERO PUSH2 0x7E3 JUMPI PUSH2 0x7E2 PUSH2 0x6F4 JUMP JUMPDEST JUMPDEST PUSH2 0x7EE DUP5 DUP3 DUP6 PUSH2 0x7A5 JUMP JUMPDEST POP SWAP4 SWAP3 POP POP POP JUMP JUMPDEST PUSH1 0x0 DUP3 PUSH1 0x1F DUP4 ADD SLT PUSH2 0x80B JUMPI PUSH2 0x80A PUSH2 0x6EF JUMP JUMPDEST JUMPDEST DUP2 CALLDATALOAD PUSH2 0x81B DUP5 DUP3 PUSH1 0x20 DUP7 ADD PUSH2 0x7B4 JUMP JUMPDEST SWAP2 POP POP SWAP3 SWAP2 POP POP JUMP JUMPDEST PUSH1 0x0 PUSH1 0x20 DUP3 DUP5 SUB SLT ISZERO PUSH2 0x83A JUMPI PUSH2 0x839 PUSH2 0x6E5 JUMP JUMPDEST JUMPDEST PUSH1 0x0 DUP3 ADD CALLDATALOAD PUSH8 0xFFFFFFFFFFFFFFFF DUP2 GT ISZERO PUSH2 0x858 JUMPI PUSH2 0x857 PUSH2 0x6EA JUMP JUMPDEST JUMPDEST PUSH2 0x864 DUP5 DUP3 DUP6 ADD PUSH2 0x7F6 JUMP JUMPDEST SWAP2 POP POP SWAP3 SWAP2 POP POP JUMP JUMPDEST PUSH32 0x4F6E6C7920726566657265652063616E20617070726F766520617070726F7661 PUSH1 0x0 DUP3 ADD MSTORE PUSH32 0x6C20726571756573740000000000000000000000000000000000000000000000 PUSH1 0x20 DUP3 ADD MSTORE POP JUMP JUMPDEST PUSH1 0x0 PUSH2 0x8C9 PUSH1 0x29 DUP4 PUSH2 0x62B JUMP JUMPDEST SWAP2 POP PUSH2 0x8D4 DUP3 PUSH2 0x86D JUMP JUMPDEST PUSH1 0x40 DUP3 ADD SWAP1 POP SWAP2 SWAP1 POP JUMP JUMPDEST PUSH1 0x0 PUSH1 0x20 DUP3 ADD SWAP1 POP DUP2 DUP2 SUB PUSH1 0x0 DUP4 ADD MSTORE PUSH2 0x8F8 DUP2 PUSH2 0x8BC JUMP JUMPDEST SWAP1 POP SWAP2 SWAP1 POP JUMP JUMPDEST PUSH32 0x4E487B7100000000000000000000000000000000000000000000000000000000 PUSH1 0x0 MSTORE PUSH1 0x22 PUSH1 0x4 MSTORE PUSH1 0x24 PUSH1 0x0 REVERT JUMPDEST PUSH1 0x0 PUSH1 0x2 DUP3 DIV SWAP1 POP PUSH1 0x1 DUP3 AND DUP1 PUSH2 0x946 JUMPI PUSH1 0x7F DUP3 AND SWAP2 POP JUMPDEST PUSH1 0x20 DUP3 LT DUP2 EQ ISZERO PUSH2 0x95A JUMPI PUSH2 0x959 PUSH2 0x8FF JUMP JUMPDEST JUMPDEST POP SWAP2 SWAP1 POP JUMP JUMPDEST PUSH32 0x4F6E6C7920726566657265652063616E2072656A65637420617070726F76616C PUSH1 0x0 DUP3 ADD MSTORE PUSH32 0x2072657175657374000000000000000000000000000000000000000000000000 PUSH1 0x20 DUP3 ADD MSTORE POP JUMP JUMPDEST PUSH1 0x0 PUSH2 0x9BC PUSH1 0x28 DUP4 PUSH2 0x62B JUMP JUMPDEST SWAP2 POP PUSH2 0x9C7 DUP3 PUSH2 0x960 JUMP JUMPDEST PUSH1 0x40 DUP3 ADD SWAP1 POP SWAP2 SWAP1 POP JUMP JUMPDEST PUSH1 0x0 PUSH1 0x20 DUP3 ADD SWAP1 POP DUP2 DUP2 SUB PUSH1 0x0 DUP4 ADD MSTORE PUSH2 0x9EB DUP2 PUSH2 0x9AF JUMP JUMPDEST SWAP1 POP SWAP2 SWAP1 POP JUMP INVALID LOG2 PUSH5 0x6970667358 0x22 SLT KECCAK256 SLOAD GAS 0x28 0xD1 SGT LOG3 0xCB 0xFB PUSH21 0x29AF5F711E093183F3CEAF6A0664589B435746A0FF PUSH16 0x9E64736F6C634300080C003360806040 MSTORE PUSH1 0x40 MLOAD PUSH3 0x119C CODESIZE SUB DUP1 PUSH3 0x119C DUP4 CODECOPY DUP2 DUP2 ADD PUSH1 0x40 MSTORE DUP2 ADD SWAP1 PUSH3 0x29 SWAP2 SWAP1 PUSH3 0x44B JUMP JUMPDEST DUP6 PUSH1 0x0 DUP1 PUSH2 0x100 EXP DUP2 SLOAD DUP2 PUSH20 0xFFFFFFFFFFFFFFFFFFFFFFFFFFFFFFFFFFFFFFFF MUL NOT AND SWAP1 DUP4 PUSH20 0xFFFFFFFFFFFFFFFFFFFFFFFFFFFFFFFFFFFFFFFF AND MUL OR SWAP1 SSTORE POP DUP5 PUSH1 0x1 PUSH1 0x0 PUSH2 0x100 EXP DUP2 SLOAD DUP2 PUSH20 0xFFFFFFFFFFFFFFFFFFFFFFFFFFFFFFFFFFFFFFFF MUL NOT AND SWAP1 DUP4 PUSH20 0xFFFFFFFFFFFFFFFFFFFFFFFFFFFFFFFFFFFFFFFF AND MUL OR SWAP1 SSTORE POP DUP4 PUSH1 0x2 SWAP1 DUP1 MLOAD SWAP1 PUSH1 0x20 ADD SWAP1 PUSH3 0xC2 SWAP3 SWAP2 SWAP1 PUSH3 0x15E JUMP JUMPDEST POP DUP3 PUSH1 0x3 SWAP1 DUP1 MLOAD SWAP1 PUSH1 0x20 ADD SWAP1 PUSH3 0xDB SWAP3 SWAP2 SWAP1 PUSH3 0x15E JUMP JUMPDEST POP DUP2 PUSH1 0x4 PUSH1 0x0 PUSH2 0x100 EXP DUP2 SLOAD DUP2 PUSH20 0xFFFFFFFFFFFFFFFFFFFFFFFFFFFFFFFFFFFFFFFF MUL NOT AND SWAP1 DUP4 PUSH20 0xFFFFFFFFFFFFFFFFFFFFFFFFFFFFFFFFFFFFFFFF AND MUL OR SWAP1 SSTORE POP DUP1 PUSH1 0x5 DUP2 SWAP1 SSTORE POP PUSH1 0x0 PUSH1 0x6 PUSH1 0x0 PUSH2 0x100 EXP DUP2 SLOAD DUP2 PUSH1 0xFF MUL NOT AND SWAP1 DUP4 PUSH1 0x2 DUP2 GT ISZERO PUSH3 0x14D JUMPI PUSH3 0x14C PUSH3 0x525 JUMP JUMPDEST JUMPDEST MUL OR SWAP1 SSTORE POP POP POP POP POP POP POP PUSH3 0x5B9 JUMP JUMPDEST DUP3 DUP1 SLOAD PUSH3 0x16C SWAP1 PUSH3 0x583 JUMP JUMPDEST SWAP1 PUSH1 0x0 MSTORE PUSH1 0x20 PUSH1 0x0 KECCAK256 SWAP1 PUSH1 0x1F ADD PUSH1 0x20 SWAP1 DIV DUP2 ADD SWAP3 DUP3 PUSH3 0x190 JUMPI PUSH1 0x0 DUP6 SSTORE PUSH3 0x1DC JUMP JUMPDEST DUP3 PUSH1 0x1F LT PUSH3 0x1AB JUMPI DUP1 MLOAD PUSH1 0xFF NOT AND DUP4 DUP1 ADD OR DUP6 SSTORE PUSH3 0x1DC JUMP JUMPDEST DUP3 DUP1 ADD PUSH1 0x1 ADD DUP6 SSTORE DUP3 ISZERO PUSH3 0x1DC JUMPI SWAP2 DUP3 ADD JUMPDEST DUP3 DUP2 GT ISZERO PUSH3 0x1DB JUMPI DUP3 MLOAD DUP3 SSTORE SWAP2 PUSH1 0x20 ADD SWAP2 SWAP1 PUSH1 0x1 ADD SWAP1 PUSH3 0x1BE JUMP JUMPDEST JUMPDEST POP SWAP1 POP PUSH3 0x1EB SWAP2 SWAP1 PUSH3 0x1EF JUMP JUMPDEST POP SWAP1 JUMP JUMPDEST JUMPDEST DUP1 DUP3 GT ISZERO PUSH3 0x20A JUMPI PUSH1 0x0 DUP2 PUSH1 0x0 SWAP1 SSTORE POP PUSH1 0x1 ADD PUSH3 0x1F0 JUMP JUMPDEST POP SWAP1 JUMP JUMPDEST PUSH1 0x0 PUSH1 0x40 MLOAD SWAP1 POP SWAP1 JUMP JUMPDEST PUSH1 0x0 DUP1 REVERT JUMPDEST PUSH1 0x0 DUP1 REVERT JUMPDEST PUSH1 0x0 PUSH20 0xFFFFFFFFFFFFFFFFFFFFFFFFFFFFFFFFFFFFFFFF DUP3 AND SWAP1 POP SWAP2 SWAP1 POP JUMP JUMPDEST PUSH1 0x0 PUSH3 0x24F DUP3 PUSH3 0x222 JUMP JUMPDEST SWAP1 POP SWAP2 SWAP1 POP JUMP JUMPDEST PUSH3 0x261 DUP2 PUSH3 0x242 JUMP JUMPDEST DUP2 EQ PUSH3 0x26D JUMPI PUSH1 0x0 DUP1 REVERT JUMPDEST POP JUMP JUMPDEST PUSH1 0x0 DUP2 MLOAD SWAP1 POP PUSH3 0x281 DUP2 PUSH3 0x256 JUMP JUMPDEST SWAP3 SWAP2 POP POP JUMP JUMPDEST PUSH1 0x0 DUP1 REVERT JUMPDEST PUSH1 0x0 DUP1 REVERT JUMPDEST PUSH1 0x0 PUSH1 0x1F NOT PUSH1 0x1F DUP4 ADD AND SWAP1 POP SWAP2 SWAP1 POP JUMP JUMPDEST PUSH32 0x4E487B7100000000000000000000000000000000000000000000000000000000 PUSH1 0x0 MSTORE PUSH1 0x41 PUSH1 0x4 MSTORE PUSH1 0x24 PUSH1 0x0 REVERT JUMPDEST PUSH3 0x2DC DUP3 PUSH3 0x291 JUMP JUMPDEST DUP2 ADD DUP2 DUP2 LT PUSH8 0xFFFFFFFFFFFFFFFF DUP3 GT OR ISZERO PUSH3 0x2FE JUMPI PUSH3 0x2FD PUSH3 0x2A2 JUMP JUMPDEST JUMPDEST DUP1 PUSH1 0x40 MSTORE POP POP POP JUMP JUMPDEST PUSH1 0x0 PUSH3 0x313 PUSH3 0x20E JUMP JUMPDEST SWAP1 POP PUSH3 0x321 DUP3 DUP3 PUSH3 0x2D1 JUMP JUMPDEST SWAP2 SWAP1 POP JUMP JUMPDEST PUSH1 0x0 PUSH8 0xFFFFFFFFFFFFFFFF DUP3 GT ISZERO PUSH3 0x344 JUMPI PUSH3 0x343 PUSH3 0x2A2 JUMP JUMPDEST JUMPDEST PUSH3 0x34F DUP3 PUSH3 0x291 JUMP JUMPDEST SWAP1 POP PUSH1 0x20 DUP2 ADD SWAP1 POP SWAP2 SWAP1 POP JUMP JUMPDEST PUSH1 0x0 JUMPDEST DUP4 DUP2 LT ISZERO PUSH3 0x37C JUMPI DUP1 DUP3 ADD MLOAD DUP2 DUP5 ADD MSTORE PUSH1 0x20 DUP2 ADD SWAP1 POP PUSH3 0x35F JUMP JUMPDEST DUP4 DUP2 GT ISZERO PUSH3 0x38C JUMPI PUSH1 0x0 DUP5 DUP5 ADD MSTORE JUMPDEST POP POP POP POP JUMP JUMPDEST PUSH1 0x0 PUSH3 0x3A9 PUSH3 0x3A3 DUP5 PUSH3 0x326 JUMP JUMPDEST PUSH3 0x307 JUMP JUMPDEST SWAP1 POP DUP3 DUP2 MSTORE PUSH1 0x20 DUP2 ADD DUP5 DUP5 DUP5 ADD GT ISZERO PUSH3 0x3C8 JUMPI PUSH3 0x3C7 PUSH3 0x28C JUMP JUMPDEST JUMPDEST PUSH3 0x3D5 DUP5 DUP3 DUP6 PUSH3 0x35C JUMP JUMPDEST POP SWAP4 SWAP3 POP POP POP JUMP JUMPDEST PUSH1 0x0 DUP3 PUSH1 0x1F DUP4 ADD SLT PUSH3 0x3F5 JUMPI PUSH3 0x3F4 PUSH3 0x287 JUMP JUMPDEST JUMPDEST DUP2 MLOAD PUSH3 0x407 DUP5 DUP3 PUSH1 0x20 DUP7 ADD PUSH3 0x392 JUMP JUMPDEST SWAP2 POP POP SWAP3 SWAP2 POP POP JUMP JUMPDEST PUSH1 0x0 DUP2 SWAP1 POP SWAP2 SWAP1 POP JUMP JUMPDEST PUSH3 0x425 DUP2 PUSH3 0x410 JUMP JUMPDEST DUP2 EQ PUSH3 0x431 JUMPI PUSH1 0x0 DUP1 REVERT JUMPDEST POP JUMP JUMPDEST PUSH1 0x0 DUP2 MLOAD SWAP1 POP PUSH3 0x445 DUP2 PUSH3 0x41A JUMP JUMPDEST SWAP3 SWAP2 POP POP JUMP JUMPDEST PUSH1 0x0 DUP1 PUSH1 0x0 DUP1 PUSH1 0x0 DUP1 PUSH1 0xC0 DUP8 DUP10 SUB SLT ISZERO PUSH3 0x46B JUMPI PUSH3 0x46A PUSH3 0x218 JUMP JUMPDEST JUMPDEST PUSH1 0x0 PUSH3 0x47B DUP10 DUP3 DUP11 ADD PUSH3 0x270 JUMP JUMPDEST SWAP7 POP POP PUSH1 0x20 PUSH3 0x48E DUP10 DUP3 DUP11 ADD PUSH3 0x270 JUMP JUMPDEST SWAP6 POP POP PUSH1 0x40 DUP8 ADD MLOAD PUSH8 0xFFFFFFFFFFFFFFFF DUP2 GT ISZERO PUSH3 0x4B2 JUMPI PUSH3 0x4B1 PUSH3 0x21D JUMP JUMPDEST JUMPDEST PUSH3 0x4C0 DUP10 DUP3 DUP11 ADD PUSH3 0x3DD JUMP JUMPDEST SWAP5 POP POP PUSH1 0x60 DUP8 ADD MLOAD PUSH8 0xFFFFFFFFFFFFFFFF DUP2 GT ISZERO PUSH3 0x4E4 JUMPI PUSH3 0x4E3 PUSH3 0x21D JUMP JUMPDEST JUMPDEST PUSH3 0x4F2 DUP10 DUP3 DUP11 ADD PUSH3 0x3DD JUMP JUMPDEST SWAP4 POP POP PUSH1 0x80 PUSH3 0x505 DUP10 DUP3 DUP11 ADD PUSH3 0x270 JUMP JUMPDEST SWAP3 POP POP PUSH1 0xA0 PUSH3 0x518 DUP10 DUP3 DUP11 ADD PUSH3 0x434 JUMP JUMPDEST SWAP2 POP POP SWAP3 SWAP6 POP SWAP3 SWAP6 POP SWAP3 SWAP6 JUMP JUMPDEST PUSH32 0x4E487B7100000000000000000000000000000000000000000000000000000000 PUSH1 0x0 MSTORE PUSH1 0x21 PUSH1 0x4 MSTORE PUSH1 0x24 PUSH1 0x0 REVERT JUMPDEST PUSH32 0x4E487B7100000000000000000000000000000000000000000000000000000000 PUSH1 0x0 MSTORE PUSH1 0x22 PUSH1 0x4 MSTORE PUSH1 0x24 PUSH1 0x0 REVERT JUMPDEST PUSH1 0x0 PUSH1 0x2 DUP3 DIV SWAP1 POP PUSH1 0x1 DUP3 AND DUP1 PUSH3 0x59C JUMPI PUSH1 0x7F DUP3 AND SWAP2 POP JUMPDEST PUSH1 0x20 DUP3 LT DUP2 EQ ISZERO PUSH3 0x5B3 JUMPI PUSH3 0x5B2 PUSH3 0x554 JUMP JUMPDEST JUMPDEST POP SWAP2 SWAP1 POP JUMP JUMPDEST PUSH2 0xBD3 DUP1 PUSH3 0x5C9 PUSH1 0x0 CODECOPY PUSH1 0x0 RETURN INVALID PUSH1 0x80 PUSH1 0x40 MSTORE PUSH1 0x4 CALLDATASIZE LT PUSH2 0x86 JUMPI PUSH1 0x0 CALLDATALOAD PUSH1 0xE0 SHR DUP1 PUSH4 0x3B1BEBD1 GT PUSH2 0x59 JUMPI DUP1 PUSH4 0x3B1BEBD1 EQ PUSH2 0x12A JUMPI DUP1 PUSH4 0x4177FE51 EQ PUSH2 0x155 JUMPI DUP1 PUSH4 0x7284E416 EQ PUSH2 0x180 JUMPI DUP1 PUSH4 0xAA8C217C EQ PUSH2 0x1AB JUMPI DUP1 PUSH4 0xB4FEDC11 EQ PUSH2 0x1D6 JUMPI PUSH2 0x86 JUMP JUMPDEST DUP1 PUSH4 0x2D05D3F EQ PUSH2 0x8B JUMPI DUP1 PUSH4 0x6FDDE03 EQ PUSH2 0xB6 JUMPI DUP1 PUSH4 0x200D2ED2 EQ PUSH2 0xE1 JUMPI DUP1 PUSH4 0x2D398FA6 EQ PUSH2 0x10C JUMPI JUMPDEST PUSH1 0x0 DUP1 REVERT JUMPDEST CALLVALUE DUP1 ISZERO PUSH2 0x97 JUMPI PUSH1 0x0 DUP1 REVERT JUMPDEST POP PUSH2 0xA0 PUSH2 0x1F4 JUMP JUMPDEST PUSH1 0x40 MLOAD PUSH2 0xAD SWAP2 SWAP1 PUSH2 0x770 JUMP JUMPDEST PUSH1 0x40 MLOAD DUP1 SWAP2 SUB SWAP1 RETURN JUMPDEST CALLVALUE DUP1 ISZERO PUSH2 0xC2 JUMPI PUSH1 0x0 DUP1 REVERT JUMPDEST POP PUSH2 0xCB PUSH2 0x218 JUMP JUMPDEST PUSH1 0x40 MLOAD PUSH2 0xD8 SWAP2 SWAP1 PUSH2 0x824 JUMP JUMPDEST PUSH1 0x40 MLOAD DUP1 SWAP2 SUB SWAP1 RETURN JUMPDEST CALLVALUE DUP1 ISZERO PUSH2 0xED JUMPI PUSH1 0x0 DUP1 REVERT JUMPDEST POP PUSH2 0xF6 PUSH2 0x2A6 JUMP JUMPDEST PUSH1 0x40 MLOAD PUSH2 0x103 SWAP2 SWAP1 PUSH2 0x8BD JUMP JUMPDEST PUSH1 0x40 MLOAD DUP1 SWAP2 SUB SWAP1 RETURN JUMPDEST PUSH2 0x114 PUSH2 0x2B9 JUMP JUMPDEST PUSH1 0x40 MLOAD PUSH2 0x121 SWAP2 SWAP1 PUSH2 0x937 JUMP JUMPDEST PUSH1 0x40 MLOAD DUP1 SWAP2 SUB SWAP1 RETURN JUMPDEST CALLVALUE DUP1 ISZERO PUSH2 0x136 JUMPI PUSH1 0x0 DUP1 REVERT JUMPDEST POP PUSH2 0x13F PUSH2 0x4B0 JUMP JUMPDEST PUSH1 0x40 MLOAD PUSH2 0x14C SWAP2 SWAP1 PUSH2 0x770 JUMP JUMPDEST PUSH1 0x40 MLOAD DUP1 SWAP2 SUB SWAP1 RETURN JUMPDEST CALLVALUE DUP1 ISZERO PUSH2 0x161 JUMPI PUSH1 0x0 DUP1 REVERT JUMPDEST POP PUSH2 0x16A PUSH2 0x4D6 JUMP JUMPDEST PUSH1 0x40 MLOAD PUSH2 0x177 SWAP2 SWAP1 PUSH2 0x770 JUMP JUMPDEST PUSH1 0x40 MLOAD DUP1 SWAP2 SUB SWAP1 RETURN JUMPDEST CALLVALUE DUP1 ISZERO PUSH2 0x18C JUMPI PUSH1 0x0 DUP1 REVERT JUMPDEST POP PUSH2 0x195 PUSH2 0x4FC JUMP JUMPDEST PUSH1 0x40 MLOAD PUSH2 0x1A2 SWAP2 SWAP1 PUSH2 0x824 JUMP JUMPDEST PUSH1 0x40 MLOAD DUP1 SWAP2 SUB SWAP1 RETURN JUMPDEST CALLVALUE DUP1 ISZERO PUSH2 0x1B7 JUMPI PUSH1 0x0 DUP1 REVERT JUMPDEST POP PUSH2 0x1C0 PUSH2 0x58A JUMP JUMPDEST PUSH1 0x40 MLOAD PUSH2 0x1CD SWAP2 SWAP1 PUSH2 0x96B JUMP JUMPDEST PUSH1 0x40 MLOAD DUP1 SWAP2 SUB SWAP1 RETURN JUMPDEST PUSH2 0x1DE PUSH2 0x590 JUMP JUMPDEST PUSH1 0x40 MLOAD PUSH2 0x1EB SWAP2 SWAP1 PUSH2 0x937 JUMP JUMPDEST PUSH1 0x40 MLOAD DUP1 SWAP2 SUB SWAP1 RETURN JUMPDEST PUSH1 0x0 DUP1 SLOAD SWAP1 PUSH2 0x100 EXP SWAP1 DIV PUSH20 0xFFFFFFFFFFFFFFFFFFFFFFFFFFFFFFFFFFFFFFFF AND DUP2 JUMP JUMPDEST PUSH1 0x2 DUP1 SLOAD PUSH2 0x225 SWAP1 PUSH2 0x9B5 JUMP JUMPDEST DUP1 PUSH1 0x1F ADD PUSH1 0x20 DUP1 SWAP2 DIV MUL PUSH1 0x20 ADD PUSH1 0x40 MLOAD SWAP1 DUP2 ADD PUSH1 0x40 MSTORE DUP1 SWAP3 SWAP2 SWAP1 DUP2 DUP2 MSTORE PUSH1 0x20 ADD DUP3 DUP1 SLOAD PUSH2 0x251 SWAP1 PUSH2 0x9B5 JUMP JUMPDEST DUP1 ISZERO PUSH2 0x29E JUMPI DUP1 PUSH1 0x1F LT PUSH2 0x273 JUMPI PUSH2 0x100 DUP1 DUP4 SLOAD DIV MUL DUP4 MSTORE SWAP2 PUSH1 0x20 ADD SWAP2 PUSH2 0x29E JUMP JUMPDEST DUP3 ADD SWAP2 SWAP1 PUSH1 0x0 MSTORE PUSH1 0x20 PUSH1 0x0 KECCAK256 SWAP1 JUMPDEST DUP2 SLOAD DUP2 MSTORE SWAP1 PUSH1 0x1 ADD SWAP1 PUSH1 0x20 ADD DUP1 DUP4 GT PUSH2 0x281 JUMPI DUP3 SWAP1 SUB PUSH1 0x1F AND DUP3 ADD SWAP2 JUMPDEST POP POP POP POP POP DUP2 JUMP JUMPDEST PUSH1 0x6 PUSH1 0x0 SWAP1 SLOAD SWAP1 PUSH2 0x100 EXP SWAP1 DIV PUSH1 0xFF AND DUP2 JUMP JUMPDEST PUSH1 0x0 DUP1 PUSH1 0x2 DUP2 GT ISZERO PUSH2 0x2CE JUMPI PUSH2 0x2CD PUSH2 0x846 JUMP JUMPDEST JUMPDEST PUSH1 0x6 PUSH1 0x0 SWAP1 SLOAD SWAP1 PUSH2 0x100 EXP SWAP1 DIV PUSH1 0xFF AND PUSH1 0x2 DUP2 GT ISZERO PUSH2 0x2F0 JUMPI PUSH2 0x2EF PUSH2 0x846 JUMP JUMPDEST JUMPDEST EQ PUSH2 0x330 JUMPI PUSH1 0x40 MLOAD PUSH32 0x8C379A000000000000000000000000000000000000000000000000000000000 DUP2 MSTORE PUSH1 0x4 ADD PUSH2 0x327 SWAP1 PUSH2 0xA59 JUMP JUMPDEST PUSH1 0x40 MLOAD DUP1 SWAP2 SUB SWAP1 REVERT JUMPDEST PUSH1 0x1 PUSH1 0x0 SWAP1 SLOAD SWAP1 PUSH2 0x100 EXP SWAP1 DIV PUSH20 0xFFFFFFFFFFFFFFFFFFFFFFFFFFFFFFFFFFFFFFFF AND PUSH20 0xFFFFFFFFFFFFFFFFFFFFFFFFFFFFFFFFFFFFFFFF AND ORIGIN PUSH20 0xFFFFFFFFFFFFFFFFFFFFFFFFFFFFFFFFFFFFFFFF AND EQ DUP1 PUSH2 0x3D7 JUMPI POP PUSH1 0x0 DUP1 SLOAD SWAP1 PUSH2 0x100 EXP SWAP1 DIV PUSH20 0xFFFFFFFFFFFFFFFFFFFFFFFFFFFFFFFFFFFFFFFF AND PUSH20 0xFFFFFFFFFFFFFFFFFFFFFFFFFFFFFFFFFFFFFFFF AND ORIGIN PUSH20 0xFFFFFFFFFFFFFFFFFFFFFFFFFFFFFFFFFFFFFFFF AND EQ JUMPDEST PUSH2 0x416 JUMPI PUSH1 0x40 MLOAD PUSH32 0x8C379A000000000000000000000000000000000000000000000000000000000 DUP2 MSTORE PUSH1 0x4 ADD PUSH2 0x40D SWAP1 PUSH2 0xAEB JUMP JUMPDEST PUSH1 0x40 MLOAD DUP1 SWAP2 SUB SWAP1 REVERT JUMPDEST PUSH1 0x4 PUSH1 0x0 SWAP1 SLOAD SWAP1 PUSH2 0x100 EXP SWAP1 DIV PUSH20 0xFFFFFFFFFFFFFFFFFFFFFFFFFFFFFFFFFFFFFFFF AND PUSH20 0xFFFFFFFFFFFFFFFFFFFFFFFFFFFFFFFFFFFFFFFF AND PUSH2 0x8FC SELFBALANCE SWAP1 DUP2 ISZERO MUL SWAP1 PUSH1 0x40 MLOAD PUSH1 0x0 PUSH1 0x40 MLOAD DUP1 DUP4 SUB DUP2 DUP6 DUP9 DUP9 CALL SWAP4 POP POP POP POP ISZERO DUP1 ISZERO PUSH2 0x47E JUMPI RETURNDATASIZE PUSH1 0x0 DUP1 RETURNDATACOPY RETURNDATASIZE PUSH1 0x0 REVERT JUMPDEST POP PUSH1 0x2 PUSH1 0x6 PUSH1 0x0 PUSH2 0x100 EXP DUP2 SLOAD DUP2 PUSH1 0xFF MUL NOT AND SWAP1 DUP4 PUSH1 0x2 DUP2 GT ISZERO PUSH2 0x4A5 JUMPI PUSH2 0x4A4 PUSH2 0x846 JUMP JUMPDEST JUMPDEST MUL OR SWAP1 SSTORE POP ADDRESS SWAP1 POP SWAP1 JUMP JUMPDEST PUSH1 0x1 PUSH1 0x0 SWAP1 SLOAD SWAP1 PUSH2 0x100 EXP SWAP1 DIV PUSH20 0xFFFFFFFFFFFFFFFFFFFFFFFFFFFFFFFFFFFFFFFF AND DUP2 JUMP JUMPDEST PUSH1 0x4 PUSH1 0x0 SWAP1 SLOAD SWAP1 PUSH2 0x100 EXP SWAP1 DIV PUSH20 0xFFFFFFFFFFFFFFFFFFFFFFFFFFFFFFFFFFFFFFFF AND DUP2 JUMP JUMPDEST PUSH1 0x3 DUP1 SLOAD PUSH2 0x509 SWAP1 PUSH2 0x9B5 JUMP JUMPDEST DUP1 PUSH1 0x1F ADD PUSH1 0x20 DUP1 SWAP2 DIV MUL PUSH1 0x20 ADD PUSH1 0x40 MLOAD SWAP1 DUP2 ADD PUSH1 0x40 MSTORE DUP1 SWAP3 SWAP2 SWAP1 DUP2 DUP2 MSTORE PUSH1 0x20 ADD DUP3 DUP1 SLOAD PUSH2 0x535 SWAP1 PUSH2 0x9B5 JUMP JUMPDEST DUP1 ISZERO PUSH2 0x582 JUMPI DUP1 PUSH1 0x1F LT PUSH2 0x557 JUMPI PUSH2 0x100 DUP1 DUP4 SLOAD DIV MUL DUP4 MSTORE SWAP2 PUSH1 0x20 ADD SWAP2 PUSH2 0x582 JUMP JUMPDEST DUP3 ADD SWAP2 SWAP1 PUSH1 0x0 MSTORE PUSH1 0x20 PUSH1 0x0 KECCAK256 SWAP1 JUMPDEST DUP2 SLOAD DUP2 MSTORE SWAP1 PUSH1 0x1 ADD SWAP1 PUSH1 0x20 ADD DUP1 DUP4 GT PUSH2 0x565 JUMPI DUP3 SWAP1 SUB PUSH1 0x1F AND DUP3 ADD SWAP2 JUMPDEST POP POP POP POP POP DUP2 JUMP JUMPDEST PUSH1 0x5 SLOAD DUP2 JUMP JUMPDEST PUSH1 0x0 DUP1 PUSH1 0x2 DUP2 GT ISZERO PUSH2 0x5A5 JUMPI PUSH2 0x5A4 PUSH2 0x846 JUMP JUMPDEST JUMPDEST PUSH1 0x6 PUSH1 0x0 SWAP1 SLOAD SWAP1 PUSH2 0x100 EXP SWAP1 DIV PUSH1 0xFF AND PUSH1 0x2 DUP2 GT ISZERO PUSH2 0x5C7 JUMPI PUSH2 0x5C6 PUSH2 0x846 JUMP JUMPDEST JUMPDEST EQ PUSH2 0x607 JUMPI PUSH1 0x40 MLOAD PUSH32 0x8C379A000000000000000000000000000000000000000000000000000000000 DUP2 MSTORE PUSH1 0x4 ADD PUSH2 0x5FE SWAP1 PUSH2 0xA59 JUMP JUMPDEST PUSH1 0x40 MLOAD DUP1 SWAP2 SUB SWAP1 REVERT JUMPDEST PUSH1 0x1 PUSH1 0x0 SWAP1 SLOAD SWAP1 PUSH2 0x100 EXP SWAP1 DIV PUSH20 0xFFFFFFFFFFFFFFFFFFFFFFFFFFFFFFFFFFFFFFFF AND PUSH20 0xFFFFFFFFFFFFFFFFFFFFFFFFFFFFFFFFFFFFFFFF AND ORIGIN PUSH20 0xFFFFFFFFFFFFFFFFFFFFFFFFFFFFFFFFFFFFFFFF AND EQ PUSH2 0x697 JUMPI PUSH1 0x40 MLOAD PUSH32 0x8C379A000000000000000000000000000000000000000000000000000000000 DUP2 MSTORE PUSH1 0x4 ADD PUSH2 0x68E SWAP1 PUSH2 0xB7D JUMP JUMPDEST PUSH1 0x40 MLOAD DUP1 SWAP2 SUB SWAP1 REVERT JUMPDEST PUSH1 0x0 DUP1 SLOAD SWAP1 PUSH2 0x100 EXP SWAP1 DIV PUSH20 0xFFFFFFFFFFFFFFFFFFFFFFFFFFFFFFFFFFFFFFFF AND PUSH20 0xFFFFFFFFFFFFFFFFFFFFFFFFFFFFFFFFFFFFFFFF AND PUSH2 0x8FC SELFBALANCE SWAP1 DUP2 ISZERO MUL SWAP1 PUSH1 0x40 MLOAD PUSH1 0x0 PUSH1 0x40 MLOAD DUP1 DUP4 SUB DUP2 DUP6 DUP9 DUP9 CALL SWAP4 POP POP POP POP ISZERO DUP1 ISZERO PUSH2 0x6FD JUMPI RETURNDATASIZE PUSH1 0x0 DUP1 RETURNDATACOPY RETURNDATASIZE PUSH1 0x0 REVERT JUMPDEST POP PUSH1 0x1 PUSH1 0x6 PUSH1 0x0 PUSH2 0x100 EXP DUP2 SLOAD DUP2 PUSH1 0xFF MUL NOT AND SWAP1 DUP4 PUSH1 0x2 DUP2 GT ISZERO PUSH2 0x724 JUMPI PUSH2 0x723 PUSH2 0x846 JUMP JUMPDEST JUMPDEST MUL OR SWAP1 SSTORE POP ADDRESS SWAP1 POP SWAP1 JUMP JUMPDEST PUSH1 0x0 PUSH20 0xFFFFFFFFFFFFFFFFFFFFFFFFFFFFFFFFFFFFFFFF DUP3 AND SWAP1 POP SWAP2 SWAP1 POP JUMP JUMPDEST PUSH1 0x0 PUSH2 0x75A DUP3 PUSH2 0x72F JUMP JUMPDEST SWAP1 POP SWAP2 SWAP1 POP JUMP JUMPDEST PUSH2 0x76A DUP2 PUSH2 0x74F JUMP JUMPDEST DUP3 MSTORE POP POP JUMP JUMPDEST PUSH1 0x0 PUSH1 0x20 DUP3 ADD SWAP1 POP PUSH2 0x785 PUSH1 0x0 DUP4 ADD DUP5 PUSH2 0x761 JUMP JUMPDEST SWAP3 SWAP2 POP POP JUMP JUMPDEST PUSH1 0x0 DUP2 MLOAD SWAP1 POP SWAP2 SWAP1 POP JUMP JUMPDEST PUSH1 0x0 DUP3 DUP3 MSTORE PUSH1 0x20 DUP3 ADD SWAP1 POP SWAP3 SWAP2 POP POP JUMP JUMPDEST PUSH1 0x0 JUMPDEST DUP4 DUP2 LT ISZERO PUSH2 0x7C5 JUMPI DUP1 DUP3 ADD MLOAD DUP2 DUP5 ADD MSTORE PUSH1 0x20 DUP2 ADD SWAP1 POP PUSH2 0x7AA JUMP JUMPDEST DUP4 DUP2 GT ISZERO PUSH2 0x7D4 JUMPI PUSH1 0x0 DUP5 DUP5 ADD MSTORE JUMPDEST POP POP POP POP JUMP JUMPDEST PUSH1 0x0 PUSH1 0x1F NOT PUSH1 0x1F DUP4 ADD AND SWAP1 POP SWAP2 SWAP1 POP JUMP JUMPDEST PUSH1 0x0 PUSH2 0x7F6 DUP3 PUSH2 0x78B JUMP JUMPDEST PUSH2 0x800 DUP2 DUP6 PUSH2 0x796 JUMP JUMPDEST SWAP4 POP PUSH2 0x810 DUP2 DUP6 PUSH1 0x20 DUP7 ADD PUSH2 0x7A7 JUMP JUMPDEST PUSH2 0x819 DUP2 PUSH2 0x7DA JUMP JUMPDEST DUP5 ADD SWAP2 POP POP SWAP3 SWAP2 POP POP JUMP JUMPDEST PUSH1 0x0 PUSH1 0x20 DUP3 ADD SWAP1 POP DUP2 DUP2 SUB PUSH1 0x0 DUP4 ADD MSTORE PUSH2 0x83E DUP2 DUP5 PUSH2 0x7EB JUMP JUMPDEST SWAP1 POP SWAP3 SWAP2 POP POP JUMP JUMPDEST PUSH32 0x4E487B7100000000000000000000000000000000000000000000000000000000 PUSH1 0x0 MSTORE PUSH1 0x21 PUSH1 0x4 MSTORE PUSH1 0x24 PUSH1 0x0 REVERT JUMPDEST PUSH1 0x3 DUP2 LT PUSH2 0x886 JUMPI PUSH2 0x885 PUSH2 0x846 JUMP JUMPDEST JUMPDEST POP JUMP JUMPDEST PUSH1 0x0 DUP2 SWAP1 POP PUSH2 0x897 DUP3 PUSH2 0x875 JUMP JUMPDEST SWAP2 SWAP1 POP JUMP JUMPDEST PUSH1 0x0 PUSH2 0x8A7 DUP3 PUSH2 0x889 JUMP JUMPDEST SWAP1 POP SWAP2 SWAP1 POP JUMP JUMPDEST PUSH2 0x8B7 DUP2 PUSH2 0x89C JUMP JUMPDEST DUP3 MSTORE POP POP JUMP JUMPDEST PUSH1 0x0 PUSH1 0x20 DUP3 ADD SWAP1 POP PUSH2 0x8D2 PUSH1 0x0 DUP4 ADD DUP5 PUSH2 0x8AE JUMP JUMPDEST SWAP3 SWAP2 POP POP JUMP JUMPDEST PUSH1 0x0 DUP2 SWAP1 POP SWAP2 SWAP1 POP JUMP JUMPDEST PUSH1 0x0 PUSH2 0x8FD PUSH2 0x8F8 PUSH2 0x8F3 DUP5 PUSH2 0x72F JUMP JUMPDEST PUSH2 0x8D8 JUMP JUMPDEST PUSH2 0x72F JUMP JUMPDEST SWAP1 POP SWAP2 SWAP1 POP JUMP JUMPDEST PUSH1 0x0 PUSH2 0x90F DUP3 PUSH2 0x8E2 JUMP JUMPDEST SWAP1 POP SWAP2 SWAP1 POP JUMP JUMPDEST PUSH1 0x0 PUSH2 0x921 DUP3 PUSH2 0x904 JUMP JUMPDEST SWAP1 POP SWAP2 SWAP1 POP JUMP JUMPDEST PUSH2 0x931 DUP2 PUSH2 0x916 JUMP JUMPDEST DUP3 MSTORE POP POP JUMP JUMPDEST PUSH1 0x0 PUSH1 0x20 DUP3 ADD SWAP1 POP PUSH2 0x94C PUSH1 0x0 DUP4 ADD DUP5 PUSH2 0x928 JUMP JUMPDEST SWAP3 SWAP2 POP POP JUMP JUMPDEST PUSH1 0x0 DUP2 SWAP1 POP SWAP2 SWAP1 POP JUMP JUMPDEST PUSH2 0x965 DUP2 PUSH2 0x952 JUMP JUMPDEST DUP3 MSTORE POP POP JUMP JUMPDEST PUSH1 0x0 PUSH1 0x20 DUP3 ADD SWAP1 POP PUSH2 0x980 PUSH1 0x0 DUP4 ADD DUP5 PUSH2 0x95C JUMP JUMPDEST SWAP3 SWAP2 POP POP JUMP JUMPDEST PUSH32 0x4E487B7100000000000000000000000000000000000000000000000000000000 PUSH1 0x0 MSTORE PUSH1 0x22 PUSH1 0x4 MSTORE PUSH1 0x24 PUSH1 0x0 REVERT JUMPDEST PUSH1 0x0 PUSH1 0x2 DUP3 DIV SWAP1 POP PUSH1 0x1 DUP3 AND DUP1 PUSH2 0x9CD JUMPI PUSH1 0x7F DUP3 AND SWAP2 POP JUMPDEST PUSH1 0x20 DUP3 LT DUP2 EQ ISZERO PUSH2 0x9E1 JUMPI PUSH2 0x9E0 PUSH2 0x986 JUMP JUMPDEST JUMPDEST POP SWAP2 SWAP1 POP JUMP JUMPDEST PUSH32 0x436F6E747261637420737461747573206973206E6F7420657175616C20746F20 PUSH1 0x0 DUP3 ADD MSTORE PUSH32 0x6F70656E00000000000000000000000000000000000000000000000000000000 PUSH1 0x20 DUP3 ADD MSTORE POP JUMP JUMPDEST PUSH1 0x0 PUSH2 0xA43 PUSH1 0x24 DUP4 PUSH2 0x796 JUMP JUMPDEST SWAP2 POP PUSH2 0xA4E DUP3 PUSH2 0x9E7 JUMP JUMPDEST PUSH1 0x40 DUP3 ADD SWAP1 POP SWAP2 SWAP1 POP JUMP JUMPDEST PUSH1 0x0 PUSH1 0x20 DUP3 ADD SWAP1 POP DUP2 DUP2 SUB PUSH1 0x0 DUP4 ADD MSTORE PUSH2 0xA72 DUP2 PUSH2 0xA36 JUMP JUMPDEST SWAP1 POP SWAP2 SWAP1 POP JUMP JUMPDEST PUSH32 0x4F6E6C792072656665726565206F722063726561746F722063616E206661696C PUSH1 0x0 DUP3 ADD MSTORE PUSH32 0x20636F6E74726163740000000000000000000000000000000000000000000000 PUSH1 0x20 DUP3 ADD MSTORE POP JUMP JUMPDEST PUSH1 0x0 PUSH2 0xAD5 PUSH1 0x29 DUP4 PUSH2 0x796 JUMP JUMPDEST SWAP2 POP PUSH2 0xAE0 DUP3 PUSH2 0xA79 JUMP JUMPDEST PUSH1 0x40 DUP3 ADD SWAP1 POP SWAP2 SWAP1 POP JUMP JUMPDEST PUSH1 0x0 PUSH1 0x20 DUP3 ADD SWAP1 POP DUP2 DUP2 SUB PUSH1 0x0 DUP4 ADD MSTORE PUSH2 0xB04 DUP2 PUSH2 0xAC8 JUMP JUMPDEST SWAP1 POP SWAP2 SWAP1 POP JUMP JUMPDEST PUSH32 0x4F6E6C7920726566657265652063616E20636F6D706C657465206120636F6E74 PUSH1 0x0 DUP3 ADD MSTORE PUSH32 0x7261637400000000000000000000000000000000000000000000000000000000 PUSH1 0x20 DUP3 ADD MSTORE POP JUMP JUMPDEST PUSH1 0x0 PUSH2 0xB67 PUSH1 0x24 DUP4 PUSH2 0x796 JUMP JUMPDEST SWAP2 POP PUSH2 0xB72 DUP3 PUSH2 0xB0B JUMP JUMPDEST PUSH1 0x40 DUP3 ADD SWAP1 POP SWAP2 SWAP1 POP JUMP JUMPDEST PUSH1 0x0 PUSH1 0x20 DUP3 ADD SWAP1 POP DUP2 DUP2 SUB PUSH1 0x0 DUP4 ADD MSTORE PUSH2 0xB96 DUP2 PUSH2 0xB5A JUMP JUMPDEST SWAP1 POP SWAP2 SWAP1 POP JUMP INVALID LOG2 PUSH5 0x6970667358 0x22 SLT KECCAK256 DUP11 CALLDATACOPY SLOAD SWAP14 PUSH10 0xE3BA78944C331A4521F9 CALL PUSH13 0xC23A19F688291ED3E73AD3B815 MLOAD JUMP PUSH5 0x736F6C6343 STOP ADDMOD 0xC STOP CALLER LOG2 PUSH5 0x6970667358 0x22 SLT KECCAK256 GASLIMIT 0xBB SWAP3 GASLIMIT DUP16 POP PUSH14 0x60630DDA0EA3789371560B488E47 DUP9 0x1E 0xE7 BYTE XOR 0xE5 PUSH5 0x1E3712A964 PUSH20 0x6F6C634300080C00330000000000000000000000 "},"gasEstimates":{"creation":{"codeDepositCost":"4456800","executionCost":"5181","totalCost":"4461981"},"external":{"accountabilityContractAddresses(uint256)":"5046","approveRequest(address)":"infinite","completeOpenAccountabilityContract(address)":"infinite","createAccountabilityContract(address,string,string,address)":"infinite","failOpenAccountabilityContract(address)":"infinite","getAccountabilityContractAddresses(uint256,uint256)":"infinite","getApprovalRequests(address)":"infinite","getClosedAccountabilityContractAddressesForReferee(address)":"infinite","getClosedAccountabilityContractAddressesForUser(address)":"infinite","getOpenAccountabilityContractAddressesForReferee(address)":"infinite","getOpenAccountabilityContractAddressesForUser(address)":"infinite","getUserAddresses(uint256,uint256)":"infinite","numberOfAccountabilityContracts()":"2474","numberOfReferees()":"2473","numberOfUsers()":"2452","refereeAddresses(uint256)":"5068","referees(address)":"2961","rejectRequest(address,string)":"infinite","requestApproval(address)":"infinite","totalEthInContracts()":"2517","userAddresses(uint256)":"5023","users(address)":"2917"},"internal":{"deleteApprovalRequestForReferee(address,address)":"infinite","getContractIndexForReferee(address,address)":"infinite","getContractIndexForUser(address,address)":"infinite","moveOpenContractToClosedContractsForReferee(address,address)":"infinite","moveOpenContractToClosedContractsForUser(address,address)":"infinite"}},"methodIdentifiers":{"accountabilityContractAddresses(uint256)":"38db44bc","approveRequest(address)":"061dff9a","completeOpenAccountabilityContract(address)":"61542c44","createAccountabilityContract(address,string,string,address)":"e436e826","failOpenAccountabilityContract(address)":"5b259abf","getAccountabilityContractAddresses(uint256,uint256)":"0e865751","getApprovalRequests(address)":"8793ed80","getClosedAccountabilityContractAddressesForReferee(address)":"19ee8bd4","getClosedAccountabilityContractAddressesForUser(address)":"b24e67d0","getOpenAccountabilityContractAddressesForReferee(address)":"9051e234","getOpenAccountabilityContractAddressesForUser(address)":"442a7bc7","getUserAddresses(uint256,uint256)":"a908f4fa","numberOfAccountabilityContracts()":"4841a885","numberOfReferees()":"b3b6633e","numberOfUsers()":"75ce46a7","refereeAddresses(uint256)":"38fb42fd","referees(address)":"64a60b47","rejectRequest(address,string)":"d77399e5","requestApproval(address)":"e10bc834","totalEthInContracts()":"dc0e0c13","userAddresses(uint256)":"502c9bd5","users(address)":"a87430ba"}}}