{"abi":[{"inputs":[{"internalType":"uint256","name":"","type":"uint256"}],"name":"accountabilityContractAddresses","outputs":[{"internalType":"address","name":"","type":"address"}],"stateMutability":"view","type":"function"},{"inputs":[{"internalType":"address","name":"approvalRequestAddress","type":"address"}],"name":"approveRequest","outputs":[],"stateMutability":"nonpayable","type":"function"},{"inputs":[{"internalType":"address","name":"contractAddress","type":"address"}],"name":"completeOpenAccountabilityContract","outputs":[],"stateMutability":"nonpayable","type":"function"},{"inputs":[{"internalType":"address","name":"_referee","type":"address"},{"internalType":"string","name":"_name","type":"string"},{"internalType":"string","name":"_description","type":"string"},{"internalType":"address payable","name":"_failureRecipient","type":"address"}],"name":"createAccountabilityContract","outputs":[],"stateMutability":"payable","type":"function"},{"inputs":[{"internalType":"address","name":"contractAddress","type":"address"}],"name":"failOpenAccountabilityContract","outputs":[],"stateMutability":"nonpayable","type":"function"},{"inputs":[{"internalType":"uint256","name":"startIndex","type":"uint256"},{"internalType":"uint256","name":"endIndex","type":"uint256"}],"name":"getAccountabilityContractAddresses","outputs":[{"internalType":"address[]","name":"","type":"address[]"}],"stateMutability":"view","type":"function"},{"inputs":[{"internalType":"address","name":"referee","type":"address"}],"name":"getApprovalRequests","outputs":[{"internalType":"address[]","name":"","type":"address[]"}],"stateMutability":"view","type":"function"},{"inputs":[{"internalType":"address","name":"referee","type":"address"}],"name":"getClosedAccountabilityContractAddressesForReferee","outputs":[{"internalType":"address[]","name":"","type":"address[]"}],"stateMutability":"view","type":"function"},{"inputs":[{"internalType":"address","name":"user","type":"address"}],"name":"getClosedAccountabilityContractAddressesForUser","outputs":[{"internalType":"address[]","name":"","type":"address[]"}],"stateMutability":"view","type":"function"},{"inputs":[{"internalType":"address","name":"referee","type":"address"}],"name":"getOpenAccountabilityContractAddressesForReferee","outputs":[{"internalType":"address[]","name":"","type":"address[]"}],"stateMutability":"view","type":"function"},{"inputs":[{"internalType":"address","name":"user","type":"address"}],"name":"getOpenAccountabilityContractAddressesForUser","outputs":[{"internalType":"address[]","name":"","type":"address[]"}],"stateMutability":"view","type":"function"},{"inputs":[{"internalType":"uint256","name":"startIndex","type":"uint256"},{"internalType":"uint256","name":"endIndex","type":"uint256"}],"name":"getUserAddresses","outputs":[{"internalType":"address[]","name":"","type":"address[]"}],"stateMutability":"view","type":"function"},{"inputs":[],"name":"numberOfAccountabilityContracts","outputs":[{"internalType":"uint256","name":"","type":"uint256"}],"stateMutability":"view","type":"function"},{"inputs":[],"name":"numberOfReferees","outputs":[{"internalType":"uint256","name":"","type":"uint256"}],"stateMutability":"view","type":"function"},{"inputs":[],"name":"numberOfUsers","outputs":[{"internalType":"uint256","name":"","type":"uint256"}],"stateMutability":"view","type":"function"},{"inputs":[{"internalType":"uint256","name":"","type":"uint256"}],"name":"refereeAddresses","outputs":[{"internalType":"address","name":"","type":"address"}],"stateMutability":"view","type":"function"},{"inputs":[{"internalType":"address","name":"","type":"address"}],"name":"referees","outputs":[{"internalType":"uint256","name":"managedContracts","type":"uint256"}],"stateMutability":"view","type":"function"},{"inputs":[{"internalType":"address","name":"approvalRequestAddress","type":"address"}],"name":"rejectRequest","outputs":[],"stateMutability":"nonpayable","type":"function"},{"inputs":[{"internalType":"address","name":"contractAddress","type":"address"}],"name":"requestApproval","outputs":[],"stateMutability":"nonpayable","type":"function"},{"inputs":[],"name":"totalEthInContracts","outputs":[{"internalType":"uint256","name":"","type":"uint256"}],"stateMutability":"view","type":"function"},{"inputs":[{"internalType":"uint256","name":"","type":"uint256"}],"name":"userAddresses","outputs":[{"internalType":"address","name":"","type":"address"}],"stateMutability":"view","type":"function"},{"inputs":[{"internalType":"address","name":"","type":"address"}],"name":"users","outputs":[{"internalType":"uint256","name":"createdContracts","type":"uint256"}],"stateMutability":"view","type":"function"}],"evm":{"assembly":"    /* \"Contracts\":57:9604  contract AccountabilityContractFactory {... */\n  mstore(0x40, 0x80)\n  callvalue\n  dup1\n  iszero\n  tag_1\n  jumpi\n  0x00\n  dup1\n  revert\ntag_1:\n  pop\n  dataSize(sub_0)\n  dup1\n  dataOffset(sub_0)\n  0x00\n  codecopy\n  0x00\n  return\nstop\n\nsub_0: assembly {\n        /* \"Contracts\":57:9604  contract AccountabilityContractFactory {... */\n      mstore(0x40, 0x80)\n      jumpi(tag_1, lt(calldatasize, 0x04))\n      shr(0xe0, calldataload(0x00))\n      dup1\n      0x75ce46a7\n      gt\n      tag_24\n      jumpi\n      dup1\n      0xb24e67d0\n      gt\n      tag_25\n      jumpi\n      dup1\n      0xb24e67d0\n      eq\n      tag_18\n      jumpi\n      dup1\n      0xb3b6633e\n      eq\n      tag_19\n      jumpi\n      dup1\n      0xca07b4b4\n      eq\n      tag_20\n      jumpi\n      dup1\n      0xdc0e0c13\n      eq\n      tag_21\n      jumpi\n      dup1\n      0xe10bc834\n      eq\n      tag_22\n      jumpi\n      dup1\n      0xe436e826\n      eq\n      tag_23\n      jumpi\n      jump(tag_1)\n    tag_25:\n      dup1\n      0x75ce46a7\n      eq\n      tag_13\n      jumpi\n      dup1\n      0x8793ed80\n      eq\n      tag_14\n      jumpi\n      dup1\n      0x9051e234\n      eq\n      tag_15\n      jumpi\n      dup1\n      0xa87430ba\n      eq\n      tag_16\n      jumpi\n      dup1\n      0xa908f4fa\n      eq\n      tag_17\n      jumpi\n      jump(tag_1)\n    tag_24:\n      dup1\n      0x442a7bc7\n      gt\n      tag_26\n      jumpi\n      dup1\n      0x442a7bc7\n      eq\n      tag_7\n      jumpi\n      dup1\n      0x4841a885\n      eq\n      tag_8\n      jumpi\n      dup1\n      0x502c9bd5\n      eq\n      tag_9\n      jumpi\n      dup1\n      0x5b259abf\n      eq\n      tag_10\n      jumpi\n      dup1\n      0x61542c44\n      eq\n      tag_11\n      jumpi\n      dup1\n      0x64a60b47\n      eq\n      tag_12\n      jumpi\n      jump(tag_1)\n    tag_26:\n      dup1\n      0x061dff9a\n      eq\n      tag_2\n      jumpi\n      dup1\n      0x0e865751\n      eq\n      tag_3\n      jumpi\n      dup1\n      0x19ee8bd4\n      eq\n      tag_4\n      jumpi\n      dup1\n      0x38db44bc\n      eq\n      tag_5\n      jumpi\n      dup1\n      0x38fb42fd\n      eq\n      tag_6\n      jumpi\n    tag_1:\n      0x00\n      dup1\n      revert\n        /* \"Contracts\":4474:5018  function approveRequest(address approvalRequestAddress) public {... */\n    tag_2:\n      callvalue\n      dup1\n      iszero\n      tag_27\n      jumpi\n      0x00\n      dup1\n      revert\n    tag_27:\n      pop\n      tag_28\n      0x04\n      dup1\n      calldatasize\n      sub\n      dup2\n      add\n      swap1\n      tag_29\n      swap2\n      swap1\n      tag_30\n      jump\t// in\n    tag_29:\n      tag_31\n      jump\t// in\n    tag_28:\n      stop\n        /* \"Contracts\":8999:9602  function getAccountabilityContractAddresses(uint startIndex, uint endIndex) public view returns (address[] memory) {... */\n    tag_3:\n      callvalue\n      dup1\n      iszero\n      tag_32\n      jumpi\n      0x00\n      dup1\n      revert\n    tag_32:\n      pop\n      tag_33\n      0x04\n      dup1\n      calldatasize\n      sub\n      dup2\n      add\n      swap1\n      tag_34\n      swap2\n      swap1\n      tag_35\n      jump\t// in\n    tag_34:\n      tag_36\n      jump\t// in\n    tag_33:\n      mload(0x40)\n      tag_37\n      swap2\n      swap1\n      tag_38\n      jump\t// in\n    tag_37:\n      mload(0x40)\n      dup1\n      swap2\n      sub\n      swap1\n      return\n        /* \"Contracts\":2417:2611  function getClosedAccountabilityContractAddressesForReferee(address referee) public view returns (address[] memory){... */\n    tag_4:\n      callvalue\n      dup1\n      iszero\n      tag_39\n      jumpi\n      0x00\n      dup1\n      revert\n    tag_39:\n      pop\n      tag_40\n      0x04\n      dup1\n      calldatasize\n      sub\n      dup2\n      add\n      swap1\n      tag_41\n      swap2\n      swap1\n      tag_30\n      jump\t// in\n    tag_41:\n      tag_42\n      jump\t// in\n    tag_40:\n      mload(0x40)\n      tag_43\n      swap2\n      swap1\n      tag_38\n      jump\t// in\n    tag_43:\n      mload(0x40)\n      dup1\n      swap2\n      sub\n      swap1\n      return\n        /* \"Contracts\":204:252  address[] public accountabilityContractAddresses */\n    tag_5:\n      callvalue\n      dup1\n      iszero\n      tag_44\n      jumpi\n      0x00\n      dup1\n      revert\n    tag_44:\n      pop\n      tag_45\n      0x04\n      dup1\n      calldatasize\n      sub\n      dup2\n      add\n      swap1\n      tag_46\n      swap2\n      swap1\n      tag_47\n      jump\t// in\n    tag_46:\n      tag_48\n      jump\t// in\n    tag_45:\n      mload(0x40)\n      tag_49\n      swap2\n      swap1\n      tag_50\n      jump\t// in\n    tag_49:\n      mload(0x40)\n      dup1\n      swap2\n      sub\n      swap1\n      return\n        /* \"Contracts\":417:450  address[] public refereeAddresses */\n    tag_6:\n      callvalue\n      dup1\n      iszero\n      tag_51\n      jumpi\n      0x00\n      dup1\n      revert\n    tag_51:\n      pop\n      tag_52\n      0x04\n      dup1\n      calldatasize\n      sub\n      dup2\n      add\n      swap1\n      tag_53\n      swap2\n      swap1\n      tag_47\n      jump\t// in\n    tag_53:\n      tag_54\n      jump\t// in\n    tag_52:\n      mload(0x40)\n      tag_55\n      swap2\n      swap1\n      tag_50\n      jump\t// in\n    tag_55:\n      mload(0x40)\n      dup1\n      swap2\n      sub\n      swap1\n      return\n        /* \"Contracts\":1849:2027  function getOpenAccountabilityContractAddressesForUser(address user) public view returns (address[] memory){... */\n    tag_7:\n      callvalue\n      dup1\n      iszero\n      tag_56\n      jumpi\n      0x00\n      dup1\n      revert\n    tag_56:\n      pop\n      tag_57\n      0x04\n      dup1\n      calldatasize\n      sub\n      dup2\n      add\n      swap1\n      tag_58\n      swap2\n      swap1\n      tag_30\n      jump\t// in\n    tag_58:\n      tag_59\n      jump\t// in\n    tag_57:\n      mload(0x40)\n      tag_60\n      swap2\n      swap1\n      tag_38\n      jump\t// in\n    tag_60:\n      mload(0x40)\n      dup1\n      swap2\n      sub\n      swap1\n      return\n        /* \"Contracts\":256:299  uint public numberOfAccountabilityContracts */\n    tag_8:\n      callvalue\n      dup1\n      iszero\n      tag_61\n      jumpi\n      0x00\n      dup1\n      revert\n    tag_61:\n      pop\n      tag_62\n      tag_63\n      jump\t// in\n    tag_62:\n      mload(0x40)\n      tag_64\n      swap2\n      swap1\n      tag_65\n      jump\t// in\n    tag_64:\n      mload(0x40)\n      dup1\n      swap2\n      sub\n      swap1\n      return\n        /* \"Contracts\":141:171  address[] public userAddresses */\n    tag_9:\n      callvalue\n      dup1\n      iszero\n      tag_66\n      jumpi\n      0x00\n      dup1\n      revert\n    tag_66:\n      pop\n      tag_67\n      0x04\n      dup1\n      calldatasize\n      sub\n      dup2\n      add\n      swap1\n      tag_68\n      swap2\n      swap1\n      tag_47\n      jump\t// in\n    tag_68:\n      tag_69\n      jump\t// in\n    tag_67:\n      mload(0x40)\n      tag_70\n      swap2\n      swap1\n      tag_50\n      jump\t// in\n    tag_70:\n      mload(0x40)\n      dup1\n      swap2\n      sub\n      swap1\n      return\n        /* \"Contracts\":2774:3193  function failOpenAccountabilityContract(address contractAddress) public {... */\n    tag_10:\n      callvalue\n      dup1\n      iszero\n      tag_71\n      jumpi\n      0x00\n      dup1\n      revert\n    tag_71:\n      pop\n      tag_72\n      0x04\n      dup1\n      calldatasize\n      sub\n      dup2\n      add\n      swap1\n      tag_73\n      swap2\n      swap1\n      tag_30\n      jump\t// in\n    tag_73:\n      tag_74\n      jump\t// in\n    tag_72:\n      stop\n        /* \"Contracts\":3199:3627  function completeOpenAccountabilityContract(address contractAddress) public {... */\n    tag_11:\n      callvalue\n      dup1\n      iszero\n      tag_75\n      jumpi\n      0x00\n      dup1\n      revert\n    tag_75:\n      pop\n      tag_76\n      0x04\n      dup1\n      calldatasize\n      sub\n      dup2\n      add\n      swap1\n      tag_77\n      swap2\n      swap1\n      tag_30\n      jump\t// in\n    tag_77:\n      tag_78\n      jump\t// in\n    tag_76:\n      stop\n        /* \"Contracts\":338:381  mapping(address => Referee) public referees */\n    tag_12:\n      callvalue\n      dup1\n      iszero\n      tag_79\n      jumpi\n      0x00\n      dup1\n      revert\n    tag_79:\n      pop\n      tag_80\n      0x04\n      dup1\n      calldatasize\n      sub\n      dup2\n      add\n      swap1\n      tag_81\n      swap2\n      swap1\n      tag_30\n      jump\t// in\n    tag_81:\n      tag_82\n      jump\t// in\n    tag_80:\n      mload(0x40)\n      tag_83\n      swap2\n      swap1\n      tag_65\n      jump\t// in\n    tag_83:\n      mload(0x40)\n      dup1\n      swap2\n      sub\n      swap1\n      return\n        /* \"Contracts\":175:200  uint public numberOfUsers */\n    tag_13:\n      callvalue\n      dup1\n      iszero\n      tag_84\n      jumpi\n      0x00\n      dup1\n      revert\n    tag_84:\n      pop\n      tag_85\n      tag_86\n      jump\t// in\n    tag_85:\n      mload(0x40)\n      tag_87\n      swap2\n      swap1\n      tag_65\n      jump\t// in\n    tag_87:\n      mload(0x40)\n      dup1\n      swap2\n      sub\n      swap1\n      return\n        /* \"Contracts\":2617:2768  function getApprovalRequests(address referee) public view returns (address[] memory){... */\n    tag_14:\n      callvalue\n      dup1\n      iszero\n      tag_88\n      jumpi\n      0x00\n      dup1\n      revert\n    tag_88:\n      pop\n      tag_89\n      0x04\n      dup1\n      calldatasize\n      sub\n      dup2\n      add\n      swap1\n      tag_90\n      swap2\n      swap1\n      tag_30\n      jump\t// in\n    tag_90:\n      tag_91\n      jump\t// in\n    tag_89:\n      mload(0x40)\n      tag_92\n      swap2\n      swap1\n      tag_38\n      jump\t// in\n    tag_92:\n      mload(0x40)\n      dup1\n      swap2\n      sub\n      swap1\n      return\n        /* \"Contracts\":2221:2411  function getOpenAccountabilityContractAddressesForReferee(address referee) public view returns (address[] memory){... */\n    tag_15:\n      callvalue\n      dup1\n      iszero\n      tag_93\n      jumpi\n      0x00\n      dup1\n      revert\n    tag_93:\n      pop\n      tag_94\n      0x04\n      dup1\n      calldatasize\n      sub\n      dup2\n      add\n      swap1\n      tag_95\n      swap2\n      swap1\n      tag_30\n      jump\t// in\n    tag_95:\n      tag_96\n      jump\t// in\n    tag_94:\n      mload(0x40)\n      tag_97\n      swap2\n      swap1\n      tag_38\n      jump\t// in\n    tag_97:\n      mload(0x40)\n      dup1\n      swap2\n      sub\n      swap1\n      return\n        /* \"Contracts\":100:137  mapping(address => User) public users */\n    tag_16:\n      callvalue\n      dup1\n      iszero\n      tag_98\n      jumpi\n      0x00\n      dup1\n      revert\n    tag_98:\n      pop\n      tag_99\n      0x04\n      dup1\n      calldatasize\n      sub\n      dup2\n      add\n      swap1\n      tag_100\n      swap2\n      swap1\n      tag_30\n      jump\t// in\n    tag_100:\n      tag_101\n      jump\t// in\n    tag_99:\n      mload(0x40)\n      tag_102\n      swap2\n      swap1\n      tag_65\n      jump\t// in\n    tag_102:\n      mload(0x40)\n      dup1\n      swap2\n      sub\n      swap1\n      return\n        /* \"Contracts\":8498:8993  function getUserAddresses(uint startIndex, uint endIndex) public view returns (address[] memory) {... */\n    tag_17:\n      callvalue\n      dup1\n      iszero\n      tag_103\n      jumpi\n      0x00\n      dup1\n      revert\n    tag_103:\n      pop\n      tag_104\n      0x04\n      dup1\n      calldatasize\n      sub\n      dup2\n      add\n      swap1\n      tag_105\n      swap2\n      swap1\n      tag_35\n      jump\t// in\n    tag_105:\n      tag_106\n      jump\t// in\n    tag_104:\n      mload(0x40)\n      tag_107\n      swap2\n      swap1\n      tag_38\n      jump\t// in\n    tag_107:\n      mload(0x40)\n      dup1\n      swap2\n      sub\n      swap1\n      return\n        /* \"Contracts\":2033:2215  function getClosedAccountabilityContractAddressesForUser(address user) public view returns (address[] memory){... */\n    tag_18:\n      callvalue\n      dup1\n      iszero\n      tag_108\n      jumpi\n      0x00\n      dup1\n      revert\n    tag_108:\n      pop\n      tag_109\n      0x04\n      dup1\n      calldatasize\n      sub\n      dup2\n      add\n      swap1\n      tag_110\n      swap2\n      swap1\n      tag_30\n      jump\t// in\n    tag_110:\n      tag_111\n      jump\t// in\n    tag_109:\n      mload(0x40)\n      tag_112\n      swap2\n      swap1\n      tag_38\n      jump\t// in\n    tag_112:\n      mload(0x40)\n      dup1\n      swap2\n      sub\n      swap1\n      return\n        /* \"Contracts\":385:413  uint public numberOfReferees */\n    tag_19:\n      callvalue\n      dup1\n      iszero\n      tag_113\n      jumpi\n      0x00\n      dup1\n      revert\n    tag_113:\n      pop\n      tag_114\n      tag_115\n      jump\t// in\n    tag_114:\n      mload(0x40)\n      tag_116\n      swap2\n      swap1\n      tag_65\n      jump\t// in\n    tag_116:\n      mload(0x40)\n      dup1\n      swap2\n      sub\n      swap1\n      return\n        /* \"Contracts\":5024:5539  function rejectRequest(address approvalRequestAddress) public {... */\n    tag_20:\n      callvalue\n      dup1\n      iszero\n      tag_117\n      jumpi\n      0x00\n      dup1\n      revert\n    tag_117:\n      pop\n      tag_118\n      0x04\n      dup1\n      calldatasize\n      sub\n      dup2\n      add\n      swap1\n      tag_119\n      swap2\n      swap1\n      tag_30\n      jump\t// in\n    tag_119:\n      tag_120\n      jump\t// in\n    tag_118:\n      stop\n        /* \"Contracts\":303:334  uint public totalEthInContracts */\n    tag_21:\n      callvalue\n      dup1\n      iszero\n      tag_121\n      jumpi\n      0x00\n      dup1\n      revert\n    tag_121:\n      pop\n      tag_122\n      tag_123\n      jump\t// in\n    tag_122:\n      mload(0x40)\n      tag_124\n      swap2\n      swap1\n      tag_65\n      jump\t// in\n    tag_124:\n      mload(0x40)\n      dup1\n      swap2\n      sub\n      swap1\n      return\n        /* \"Contracts\":3633:4468  function requestApproval(address contractAddress) public {... */\n    tag_22:\n      callvalue\n      dup1\n      iszero\n      tag_125\n      jumpi\n      0x00\n      dup1\n      revert\n    tag_125:\n      pop\n      tag_126\n      0x04\n      dup1\n      calldatasize\n      sub\n      dup2\n      add\n      swap1\n      tag_127\n      swap2\n      swap1\n      tag_30\n      jump\t// in\n    tag_127:\n      tag_128\n      jump\t// in\n    tag_126:\n      stop\n        /* \"Contracts\":813:1843  function createAccountabilityContract(address _referee, string memory _name, string memory _description, address payable _failureRecipient) public payable {... */\n    tag_23:\n      tag_129\n      0x04\n      dup1\n      calldatasize\n      sub\n      dup2\n      add\n      swap1\n      tag_130\n      swap2\n      swap1\n      tag_131\n      jump\t// in\n    tag_130:\n      tag_132\n      jump\t// in\n    tag_129:\n      stop\n        /* \"Contracts\":4474:5018  function approveRequest(address approvalRequestAddress) public {... */\n    tag_31:\n        /* \"Contracts\":4547:4600  AccountabilityContractApprovalRequest approvalRequest */\n      0x00\n        /* \"Contracts\":4641:4663  approvalRequestAddress */\n      dup2\n        /* \"Contracts\":4547:4664  AccountabilityContractApprovalRequest approvalRequest = AccountabilityContractApprovalRequest(approvalRequestAddress) */\n      swap1\n      pop\n        /* \"Contracts\":4674:4719  AccountabilityContract accountabilityContract */\n      0x00\n        /* \"Contracts\":4745:4760  approvalRequest */\n      dup2\n        /* \"Contracts\":4745:4790  approvalRequest.accountabilityContractAddress */\n      0xffffffffffffffffffffffffffffffffffffffff\n      and\n      0x3c490174\n        /* \"Contracts\":4745:4792  approvalRequest.accountabilityContractAddress() */\n      mload(0x40)\n      dup2\n      0xffffffff\n      and\n      0xe0\n      shl\n      dup2\n      mstore\n      0x04\n      add\n      0x20\n      mload(0x40)\n      dup1\n      dup4\n      sub\n      dup2\n      dup7\n      gas\n      staticcall\n      iszero\n      dup1\n      iszero\n      tag_135\n      jumpi\n      returndatasize\n      0x00\n      dup1\n      returndatacopy\n      revert(0x00, returndatasize)\n    tag_135:\n      pop\n      pop\n      pop\n      pop\n      mload(0x40)\n      returndatasize\n      not(0x1f)\n      0x1f\n      dup3\n      add\n      and\n      dup3\n      add\n      dup1\n      0x40\n      mstore\n      pop\n      dup2\n      add\n      swap1\n      tag_136\n      swap2\n      swap1\n      tag_137\n      jump\t// in\n    tag_136:\n        /* \"Contracts\":4674:4793  AccountabilityContract accountabilityContract = AccountabilityContract(approvalRequest.accountabilityContractAddress()) */\n      swap1\n      pop\n        /* \"Contracts\":4803:4818  approvalRequest */\n      dup2\n        /* \"Contracts\":4803:4833  approvalRequest.approveRequest */\n      0xffffffffffffffffffffffffffffffffffffffff\n      and\n      0x263b81c9\n        /* \"Contracts\":4803:4835  approvalRequest.approveRequest() */\n      mload(0x40)\n      dup2\n      0xffffffff\n      and\n      0xe0\n      shl\n      dup2\n      mstore\n      0x04\n      add\n      0x20\n      mload(0x40)\n      dup1\n      dup4\n      sub\n      dup2\n      0x00\n      dup8\n      gas\n      call\n      iszero\n      dup1\n      iszero\n      tag_139\n      jumpi\n      returndatasize\n      0x00\n      dup1\n      returndatacopy\n      revert(0x00, returndatasize)\n    tag_139:\n      pop\n      pop\n      pop\n      pop\n      mload(0x40)\n      returndatasize\n      not(0x1f)\n      0x1f\n      dup3\n      add\n      and\n      dup3\n      add\n      dup1\n      0x40\n      mstore\n      pop\n      dup2\n      add\n      swap1\n      tag_140\n      swap2\n      swap1\n      tag_141\n      jump\t// in\n    tag_140:\n      pop\n        /* \"Contracts\":4845:4912  completeOpenAccountabilityContract(address(accountabilityContract)) */\n      tag_142\n        /* \"Contracts\":4888:4910  accountabilityContract */\n      dup2\n        /* \"Contracts\":4845:4879  completeOpenAccountabilityContract */\n      tag_78\n        /* \"Contracts\":4845:4912  completeOpenAccountabilityContract(address(accountabilityContract)) */\n      jump\t// in\n    tag_142:\n        /* \"Contracts\":4922:5011  deleteApprovalRequestForReferee(accountabilityContract.referee(), approvalRequestAddress) */\n      tag_143\n        /* \"Contracts\":4954:4976  accountabilityContract */\n      dup2\n        /* \"Contracts\":4954:4984  accountabilityContract.referee */\n      0xffffffffffffffffffffffffffffffffffffffff\n      and\n      0x3b1bebd1\n        /* \"Contracts\":4954:4986  accountabilityContract.referee() */\n      mload(0x40)\n      dup2\n      0xffffffff\n      and\n      0xe0\n      shl\n      dup2\n      mstore\n      0x04\n      add\n      0x20\n      mload(0x40)\n      dup1\n      dup4\n      sub\n      dup2\n      dup7\n      gas\n      staticcall\n      iszero\n      dup1\n      iszero\n      tag_145\n      jumpi\n      returndatasize\n      0x00\n      dup1\n      returndatacopy\n      revert(0x00, returndatasize)\n    tag_145:\n      pop\n      pop\n      pop\n      pop\n      mload(0x40)\n      returndatasize\n      not(0x1f)\n      0x1f\n      dup3\n      add\n      and\n      dup3\n      add\n      dup1\n      0x40\n      mstore\n      pop\n      dup2\n      add\n      swap1\n      tag_146\n      swap2\n      swap1\n      tag_137\n      jump\t// in\n    tag_146:\n        /* \"Contracts\":4988:5010  approvalRequestAddress */\n      dup5\n        /* \"Contracts\":4922:4953  deleteApprovalRequestForReferee */\n      tag_147\n        /* \"Contracts\":4922:5011  deleteApprovalRequestForReferee(accountabilityContract.referee(), approvalRequestAddress) */\n      jump\t// in\n    tag_143:\n        /* \"Contracts\":4537:5018  {... */\n      pop\n      pop\n        /* \"Contracts\":4474:5018  function approveRequest(address approvalRequestAddress) public {... */\n      pop\n      jump\t// out\n        /* \"Contracts\":8999:9602  function getAccountabilityContractAddresses(uint startIndex, uint endIndex) public view returns (address[] memory) {... */\n    tag_36:\n        /* \"Contracts\":9096:9112  address[] memory */\n      0x60\n        /* \"Contracts\":9145:9146  0 */\n      0x00\n        /* \"Contracts\":9131:9141  startIndex */\n      dup4\n        /* \"Contracts\":9131:9146  startIndex >= 0 */\n      lt\n      iszero\n        /* \"Contracts\":9123:9181  require(startIndex >= 0, \"Start index cannot be negative\") */\n      tag_149\n      jumpi\n      mload(0x40)\n      0x08c379a000000000000000000000000000000000000000000000000000000000\n      dup2\n      mstore\n      0x04\n      add\n      tag_150\n      swap1\n      tag_151\n      jump\t// in\n    tag_150:\n      mload(0x40)\n      dup1\n      swap2\n      sub\n      swap1\n      revert\n    tag_149:\n        /* \"Contracts\":9210:9241  accountabilityContractAddresses */\n      0x03\n        /* \"Contracts\":9210:9248  accountabilityContractAddresses.length */\n      dup1\n      sload\n      swap1\n      pop\n        /* \"Contracts\":9198:9206  endIndex */\n      dup3\n        /* \"Contracts\":9198:9248  endIndex <= accountabilityContractAddresses.length */\n      gt\n      iszero\n        /* \"Contracts\":9190:9292  require(endIndex <= accountabilityContractAddresses.length, \"End index exceeds user addresses length\") */\n      tag_152\n      jumpi\n      mload(0x40)\n      0x08c379a000000000000000000000000000000000000000000000000000000000\n      dup2\n      mstore\n      0x04\n      add\n      tag_153\n      swap1\n      tag_154\n      jump\t// in\n    tag_153:\n      mload(0x40)\n      dup1\n      swap2\n      sub\n      swap1\n      revert\n    tag_152:\n        /* \"Contracts\":9301:9355  address[] memory slicedAccountabilityContractAddresses */\n      0x00\n        /* \"Contracts\":9381:9391  startIndex */\n      dup4\n        /* \"Contracts\":9372:9380  endIndex */\n      dup4\n        /* \"Contracts\":9372:9391  endIndex-startIndex */\n      tag_155\n      swap2\n      swap1\n      tag_156\n      jump\t// in\n    tag_155:\n        /* \"Contracts\":9358:9392  new address[](endIndex-startIndex) */\n      0xffffffffffffffff\n      dup2\n      gt\n      iszero\n      tag_157\n      jumpi\n      tag_158\n      tag_159\n      jump\t// in\n    tag_158:\n    tag_157:\n      mload(0x40)\n      swap1\n      dup1\n      dup3\n      mstore\n      dup1\n      0x20\n      mul\n      0x20\n      add\n      dup3\n      add\n      0x40\n      mstore\n      dup1\n      iszero\n      tag_160\n      jumpi\n      dup2\n      0x20\n      add\n      0x20\n      dup3\n      mul\n      dup1\n      calldatasize\n      dup4\n      calldatacopy\n      dup1\n      dup3\n      add\n      swap2\n      pop\n      pop\n      swap1\n      pop\n    tag_160:\n      pop\n        /* \"Contracts\":9301:9392  address[] memory slicedAccountabilityContractAddresses = new address[](endIndex-startIndex) */\n      swap1\n      pop\n        /* \"Contracts\":9405:9411  uint i */\n      0x00\n        /* \"Contracts\":9412:9422  startIndex */\n      dup5\n        /* \"Contracts\":9405:9422  uint i=startIndex */\n      swap1\n      pop\n        /* \"Contracts\":9401:9542  for(uint i=startIndex; i<endIndex; i++){... */\n    tag_161:\n        /* \"Contracts\":9426:9434  endIndex */\n      dup4\n        /* \"Contracts\":9424:9425  i */\n      dup2\n        /* \"Contracts\":9424:9434  i<endIndex */\n      lt\n        /* \"Contracts\":9401:9542  for(uint i=startIndex; i<endIndex; i++){... */\n      iszero\n      tag_162\n      jumpi\n        /* \"Contracts\":9497:9528  accountabilityContractAddresses */\n      0x03\n        /* \"Contracts\":9529:9530  i */\n      dup2\n        /* \"Contracts\":9497:9531  accountabilityContractAddresses[i] */\n      dup2\n      sload\n      dup2\n      lt\n      tag_164\n      jumpi\n      tag_165\n      tag_166\n      jump\t// in\n    tag_165:\n    tag_164:\n      swap1\n      0x00\n      mstore\n      keccak256(0x00, 0x20)\n      add\n      0x00\n      swap1\n      sload\n      swap1\n      0x0100\n      exp\n      swap1\n      div\n      0xffffffffffffffffffffffffffffffffffffffff\n      and\n        /* \"Contracts\":9454:9491  slicedAccountabilityContractAddresses */\n      dup3\n        /* \"Contracts\":9492:9493  i */\n      dup3\n        /* \"Contracts\":9454:9494  slicedAccountabilityContractAddresses[i] */\n      dup2\n      mload\n      dup2\n      lt\n      tag_168\n      jumpi\n      tag_169\n      tag_166\n      jump\t// in\n    tag_169:\n    tag_168:\n      0x20\n      mul\n      0x20\n      add\n      add\n        /* \"Contracts\":9454:9531  slicedAccountabilityContractAddresses[i] = accountabilityContractAddresses[i] */\n      swap1\n      0xffffffffffffffffffffffffffffffffffffffff\n      and\n      swap1\n      dup2\n      0xffffffffffffffffffffffffffffffffffffffff\n      and\n      dup2\n      mstore\n      pop\n      pop\n        /* \"Contracts\":9436:9439  i++ */\n      dup1\n      dup1\n      tag_170\n      swap1\n      tag_171\n      jump\t// in\n    tag_170:\n      swap2\n      pop\n      pop\n        /* \"Contracts\":9401:9542  for(uint i=startIndex; i<endIndex; i++){... */\n      jump(tag_161)\n    tag_162:\n      pop\n        /* \"Contracts\":9558:9595  slicedAccountabilityContractAddresses */\n      dup1\n        /* \"Contracts\":9551:9595  return slicedAccountabilityContractAddresses */\n      swap2\n      pop\n      pop\n        /* \"Contracts\":8999:9602  function getAccountabilityContractAddresses(uint startIndex, uint endIndex) public view returns (address[] memory) {... */\n      swap3\n      swap2\n      pop\n      pop\n      jump\t// out\n        /* \"Contracts\":2417:2611  function getClosedAccountabilityContractAddressesForReferee(address referee) public view returns (address[] memory){... */\n    tag_42:\n        /* \"Contracts\":2515:2531  address[] memory */\n      0x60\n        /* \"Contracts\":2549:2557  referees */\n      0x06\n        /* \"Contracts\":2549:2566  referees[referee] */\n      0x00\n        /* \"Contracts\":2558:2565  referee */\n      dup4\n        /* \"Contracts\":2549:2566  referees[referee] */\n      0xffffffffffffffffffffffffffffffffffffffff\n      and\n      0xffffffffffffffffffffffffffffffffffffffff\n      and\n      dup2\n      mstore\n      0x20\n      add\n      swap1\n      dup2\n      mstore\n      0x20\n      add\n      0x00\n      keccak256\n        /* \"Contracts\":2549:2604  referees[referee].closedAccountabilityContractAddresses */\n      0x02\n      add\n        /* \"Contracts\":2542:2604  return referees[referee].closedAccountabilityContractAddresses */\n      dup1\n      sload\n      dup1\n      0x20\n      mul\n      0x20\n      add\n      mload(0x40)\n      swap1\n      dup2\n      add\n      0x40\n      mstore\n      dup1\n      swap3\n      swap2\n      swap1\n      dup2\n      dup2\n      mstore\n      0x20\n      add\n      dup3\n      dup1\n      sload\n      dup1\n      iszero\n      tag_173\n      jumpi\n      0x20\n      mul\n      dup3\n      add\n      swap2\n      swap1\n      0x00\n      mstore\n      keccak256(0x00, 0x20)\n      swap1\n    tag_174:\n      dup2\n      0x00\n      swap1\n      sload\n      swap1\n      0x0100\n      exp\n      swap1\n      div\n      0xffffffffffffffffffffffffffffffffffffffff\n      and\n      0xffffffffffffffffffffffffffffffffffffffff\n      and\n      dup2\n      mstore\n      0x20\n      add\n      swap1\n      0x01\n      add\n      swap1\n      dup1\n      dup4\n      gt\n      tag_174\n      jumpi\n    tag_173:\n      pop\n      pop\n      pop\n      pop\n      pop\n      swap1\n      pop\n        /* \"Contracts\":2417:2611  function getClosedAccountabilityContractAddressesForReferee(address referee) public view returns (address[] memory){... */\n      swap2\n      swap1\n      pop\n      jump\t// out\n        /* \"Contracts\":204:252  address[] public accountabilityContractAddresses */\n    tag_48:\n      0x03\n      dup2\n      dup2\n      sload\n      dup2\n      lt\n      tag_175\n      jumpi\n      0x00\n      dup1\n      revert\n    tag_175:\n      swap1\n      0x00\n      mstore\n      keccak256(0x00, 0x20)\n      add\n      0x00\n      swap2\n      pop\n      sload\n      swap1\n      0x0100\n      exp\n      swap1\n      div\n      0xffffffffffffffffffffffffffffffffffffffff\n      and\n      dup2\n      jump\t// out\n        /* \"Contracts\":417:450  address[] public refereeAddresses */\n    tag_54:\n      0x08\n      dup2\n      dup2\n      sload\n      dup2\n      lt\n      tag_177\n      jumpi\n      0x00\n      dup1\n      revert\n    tag_177:\n      swap1\n      0x00\n      mstore\n      keccak256(0x00, 0x20)\n      add\n      0x00\n      swap2\n      pop\n      sload\n      swap1\n      0x0100\n      exp\n      swap1\n      div\n      0xffffffffffffffffffffffffffffffffffffffff\n      and\n      dup2\n      jump\t// out\n        /* \"Contracts\":1849:2027  function getOpenAccountabilityContractAddressesForUser(address user) public view returns (address[] memory){... */\n    tag_59:\n        /* \"Contracts\":1939:1955  address[] memory */\n      0x60\n        /* \"Contracts\":1973:1978  users */\n      0x00\n        /* \"Contracts\":1973:1984  users[user] */\n      dup1\n        /* \"Contracts\":1979:1983  user */\n      dup4\n        /* \"Contracts\":1973:1984  users[user] */\n      0xffffffffffffffffffffffffffffffffffffffff\n      and\n      0xffffffffffffffffffffffffffffffffffffffff\n      and\n      dup2\n      mstore\n      0x20\n      add\n      swap1\n      dup2\n      mstore\n      0x20\n      add\n      0x00\n      keccak256\n        /* \"Contracts\":1973:2020  users[user].openAccountabilityContractAddresses */\n      0x01\n      add\n        /* \"Contracts\":1966:2020  return users[user].openAccountabilityContractAddresses */\n      dup1\n      sload\n      dup1\n      0x20\n      mul\n      0x20\n      add\n      mload(0x40)\n      swap1\n      dup2\n      add\n      0x40\n      mstore\n      dup1\n      swap3\n      swap2\n      swap1\n      dup2\n      dup2\n      mstore\n      0x20\n      add\n      dup3\n      dup1\n      sload\n      dup1\n      iszero\n      tag_180\n      jumpi\n      0x20\n      mul\n      dup3\n      add\n      swap2\n      swap1\n      0x00\n      mstore\n      keccak256(0x00, 0x20)\n      swap1\n    tag_181:\n      dup2\n      0x00\n      swap1\n      sload\n      swap1\n      0x0100\n      exp\n      swap1\n      div\n      0xffffffffffffffffffffffffffffffffffffffff\n      and\n      0xffffffffffffffffffffffffffffffffffffffff\n      and\n      dup2\n      mstore\n      0x20\n      add\n      swap1\n      0x01\n      add\n      swap1\n      dup1\n      dup4\n      gt\n      tag_181\n      jumpi\n    tag_180:\n      pop\n      pop\n      pop\n      pop\n      pop\n      swap1\n      pop\n        /* \"Contracts\":1849:2027  function getOpenAccountabilityContractAddressesForUser(address user) public view returns (address[] memory){... */\n      swap2\n      swap1\n      pop\n      jump\t// out\n        /* \"Contracts\":256:299  uint public numberOfAccountabilityContracts */\n    tag_63:\n      sload(0x04)\n      dup2\n      jump\t// out\n        /* \"Contracts\":141:171  address[] public userAddresses */\n    tag_69:\n      0x01\n      dup2\n      dup2\n      sload\n      dup2\n      lt\n      tag_182\n      jumpi\n      0x00\n      dup1\n      revert\n    tag_182:\n      swap1\n      0x00\n      mstore\n      keccak256(0x00, 0x20)\n      add\n      0x00\n      swap2\n      pop\n      sload\n      swap1\n      0x0100\n      exp\n      swap1\n      div\n      0xffffffffffffffffffffffffffffffffffffffff\n      and\n      dup2\n      jump\t// out\n        /* \"Contracts\":2774:3193  function failOpenAccountabilityContract(address contractAddress) public {... */\n    tag_74:\n        /* \"Contracts\":2854:2899  AccountabilityContract accountabilityContract */\n      0x00\n        /* \"Contracts\":2925:2940  contractAddress */\n      dup2\n        /* \"Contracts\":2854:2941  AccountabilityContract accountabilityContract = AccountabilityContract(contractAddress) */\n      swap1\n      pop\n        /* \"Contracts\":2949:2971  accountabilityContract */\n      dup1\n        /* \"Contracts\":2949:2984  accountabilityContract.failContract */\n      0xffffffffffffffffffffffffffffffffffffffff\n      and\n      0x2d398fa6\n        /* \"Contracts\":2949:2986  accountabilityContract.failContract() */\n      mload(0x40)\n      dup2\n      0xffffffff\n      and\n      0xe0\n      shl\n      dup2\n      mstore\n      0x04\n      add\n      0x00\n      mload(0x40)\n      dup1\n      dup4\n      sub\n      dup2\n      0x00\n      dup8\n      dup1\n      extcodesize\n      iszero\n      dup1\n      iszero\n      tag_185\n      jumpi\n      0x00\n      dup1\n      revert\n    tag_185:\n      pop\n      gas\n      call\n      iszero\n      dup1\n      iszero\n      tag_187\n      jumpi\n      returndatasize\n      0x00\n      dup1\n      returndatacopy\n      revert(0x00, returndatasize)\n    tag_187:\n      pop\n      pop\n      pop\n      pop\n        /* \"Contracts\":2994:3084  moveOpenContractToClosedContractsForUser(accountabilityContract.creator(),contractAddress) */\n      tag_188\n        /* \"Contracts\":3035:3057  accountabilityContract */\n      dup2\n        /* \"Contracts\":3035:3065  accountabilityContract.creator */\n      0xffffffffffffffffffffffffffffffffffffffff\n      and\n      0x02d05d3f\n        /* \"Contracts\":3035:3067  accountabilityContract.creator() */\n      mload(0x40)\n      dup2\n      0xffffffff\n      and\n      0xe0\n      shl\n      dup2\n      mstore\n      0x04\n      add\n      0x20\n      mload(0x40)\n      dup1\n      dup4\n      sub\n      dup2\n      dup7\n      gas\n      staticcall\n      iszero\n      dup1\n      iszero\n      tag_190\n      jumpi\n      returndatasize\n      0x00\n      dup1\n      returndatacopy\n      revert(0x00, returndatasize)\n    tag_190:\n      pop\n      pop\n      pop\n      pop\n      mload(0x40)\n      returndatasize\n      not(0x1f)\n      0x1f\n      dup3\n      add\n      and\n      dup3\n      add\n      dup1\n      0x40\n      mstore\n      pop\n      dup2\n      add\n      swap1\n      tag_191\n      swap2\n      swap1\n      tag_137\n      jump\t// in\n    tag_191:\n        /* \"Contracts\":3068:3083  contractAddress */\n      dup4\n        /* \"Contracts\":2994:3034  moveOpenContractToClosedContractsForUser */\n      tag_192\n        /* \"Contracts\":2994:3084  moveOpenContractToClosedContractsForUser(accountabilityContract.creator(),contractAddress) */\n      jump\t// in\n    tag_188:\n        /* \"Contracts\":3092:3186  moveOpenContractToClosedContractsForReferee(accountabilityContract.referee(), contractAddress) */\n      tag_193\n        /* \"Contracts\":3136:3158  accountabilityContract */\n      dup2\n        /* \"Contracts\":3136:3166  accountabilityContract.referee */\n      0xffffffffffffffffffffffffffffffffffffffff\n      and\n      0x3b1bebd1\n        /* \"Contracts\":3136:3168  accountabilityContract.referee() */\n      mload(0x40)\n      dup2\n      0xffffffff\n      and\n      0xe0\n      shl\n      dup2\n      mstore\n      0x04\n      add\n      0x20\n      mload(0x40)\n      dup1\n      dup4\n      sub\n      dup2\n      dup7\n      gas\n      staticcall\n      iszero\n      dup1\n      iszero\n      tag_195\n      jumpi\n      returndatasize\n      0x00\n      dup1\n      returndatacopy\n      revert(0x00, returndatasize)\n    tag_195:\n      pop\n      pop\n      pop\n      pop\n      mload(0x40)\n      returndatasize\n      not(0x1f)\n      0x1f\n      dup3\n      add\n      and\n      dup3\n      add\n      dup1\n      0x40\n      mstore\n      pop\n      dup2\n      add\n      swap1\n      tag_196\n      swap2\n      swap1\n      tag_137\n      jump\t// in\n    tag_196:\n        /* \"Contracts\":3170:3185  contractAddress */\n      dup4\n        /* \"Contracts\":3092:3135  moveOpenContractToClosedContractsForReferee */\n      tag_197\n        /* \"Contracts\":3092:3186  moveOpenContractToClosedContractsForReferee(accountabilityContract.referee(), contractAddress) */\n      jump\t// in\n    tag_193:\n        /* \"Contracts\":2846:3193  {... */\n      pop\n        /* \"Contracts\":2774:3193  function failOpenAccountabilityContract(address contractAddress) public {... */\n      pop\n      jump\t// out\n        /* \"Contracts\":3199:3627  function completeOpenAccountabilityContract(address contractAddress) public {... */\n    tag_78:\n        /* \"Contracts\":3283:3328  AccountabilityContract accountabilityContract */\n      0x00\n        /* \"Contracts\":3354:3369  contractAddress */\n      dup2\n        /* \"Contracts\":3283:3370  AccountabilityContract accountabilityContract = AccountabilityContract(contractAddress) */\n      swap1\n      pop\n        /* \"Contracts\":3378:3400  accountabilityContract */\n      dup1\n        /* \"Contracts\":3378:3417  accountabilityContract.completeContract */\n      0xffffffffffffffffffffffffffffffffffffffff\n      and\n      0xb4fedc11\n        /* \"Contracts\":3378:3419  accountabilityContract.completeContract() */\n      mload(0x40)\n      dup2\n      0xffffffff\n      and\n      0xe0\n      shl\n      dup2\n      mstore\n      0x04\n      add\n      0x00\n      mload(0x40)\n      dup1\n      dup4\n      sub\n      dup2\n      0x00\n      dup8\n      dup1\n      extcodesize\n      iszero\n      dup1\n      iszero\n      tag_199\n      jumpi\n      0x00\n      dup1\n      revert\n    tag_199:\n      pop\n      gas\n      call\n      iszero\n      dup1\n      iszero\n      tag_201\n      jumpi\n      returndatasize\n      0x00\n      dup1\n      returndatacopy\n      revert(0x00, returndatasize)\n    tag_201:\n      pop\n      pop\n      pop\n      pop\n        /* \"Contracts\":3427:3518  moveOpenContractToClosedContractsForUser(accountabilityContract.creator(), contractAddress) */\n      tag_202\n        /* \"Contracts\":3468:3490  accountabilityContract */\n      dup2\n        /* \"Contracts\":3468:3498  accountabilityContract.creator */\n      0xffffffffffffffffffffffffffffffffffffffff\n      and\n      0x02d05d3f\n        /* \"Contracts\":3468:3500  accountabilityContract.creator() */\n      mload(0x40)\n      dup2\n      0xffffffff\n      and\n      0xe0\n      shl\n      dup2\n      mstore\n      0x04\n      add\n      0x20\n      mload(0x40)\n      dup1\n      dup4\n      sub\n      dup2\n      dup7\n      gas\n      staticcall\n      iszero\n      dup1\n      iszero\n      tag_204\n      jumpi\n      returndatasize\n      0x00\n      dup1\n      returndatacopy\n      revert(0x00, returndatasize)\n    tag_204:\n      pop\n      pop\n      pop\n      pop\n      mload(0x40)\n      returndatasize\n      not(0x1f)\n      0x1f\n      dup3\n      add\n      and\n      dup3\n      add\n      dup1\n      0x40\n      mstore\n      pop\n      dup2\n      add\n      swap1\n      tag_205\n      swap2\n      swap1\n      tag_137\n      jump\t// in\n    tag_205:\n        /* \"Contracts\":3502:3517  contractAddress */\n      dup4\n        /* \"Contracts\":3427:3467  moveOpenContractToClosedContractsForUser */\n      tag_192\n        /* \"Contracts\":3427:3518  moveOpenContractToClosedContractsForUser(accountabilityContract.creator(), contractAddress) */\n      jump\t// in\n    tag_202:\n        /* \"Contracts\":3526:3620  moveOpenContractToClosedContractsForReferee(accountabilityContract.referee(), contractAddress) */\n      tag_206\n        /* \"Contracts\":3570:3592  accountabilityContract */\n      dup2\n        /* \"Contracts\":3570:3600  accountabilityContract.referee */\n      0xffffffffffffffffffffffffffffffffffffffff\n      and\n      0x3b1bebd1\n        /* \"Contracts\":3570:3602  accountabilityContract.referee() */\n      mload(0x40)\n      dup2\n      0xffffffff\n      and\n      0xe0\n      shl\n      dup2\n      mstore\n      0x04\n      add\n      0x20\n      mload(0x40)\n      dup1\n      dup4\n      sub\n      dup2\n      dup7\n      gas\n      staticcall\n      iszero\n      dup1\n      iszero\n      tag_208\n      jumpi\n      returndatasize\n      0x00\n      dup1\n      returndatacopy\n      revert(0x00, returndatasize)\n    tag_208:\n      pop\n      pop\n      pop\n      pop\n      mload(0x40)\n      returndatasize\n      not(0x1f)\n      0x1f\n      dup3\n      add\n      and\n      dup3\n      add\n      dup1\n      0x40\n      mstore\n      pop\n      dup2\n      add\n      swap1\n      tag_209\n      swap2\n      swap1\n      tag_137\n      jump\t// in\n    tag_209:\n        /* \"Contracts\":3604:3619  contractAddress */\n      dup4\n        /* \"Contracts\":3526:3569  moveOpenContractToClosedContractsForReferee */\n      tag_197\n        /* \"Contracts\":3526:3620  moveOpenContractToClosedContractsForReferee(accountabilityContract.referee(), contractAddress) */\n      jump\t// in\n    tag_206:\n        /* \"Contracts\":3275:3627  {... */\n      pop\n        /* \"Contracts\":3199:3627  function completeOpenAccountabilityContract(address contractAddress) public {... */\n      pop\n      jump\t// out\n        /* \"Contracts\":338:381  mapping(address => Referee) public referees */\n    tag_82:\n      mstore(0x20, 0x06)\n      dup1\n      0x00\n      mstore\n      keccak256(0x00, 0x40)\n      0x00\n      swap2\n      pop\n      swap1\n      pop\n      dup1\n      0x00\n      add\n      sload\n      swap1\n      pop\n      dup2\n      jump\t// out\n        /* \"Contracts\":175:200  uint public numberOfUsers */\n    tag_86:\n      sload(0x02)\n      dup2\n      jump\t// out\n        /* \"Contracts\":2617:2768  function getApprovalRequests(address referee) public view returns (address[] memory){... */\n    tag_91:\n        /* \"Contracts\":2684:2700  address[] memory */\n      0x60\n        /* \"Contracts\":2718:2726  referees */\n      0x06\n        /* \"Contracts\":2718:2735  referees[referee] */\n      0x00\n        /* \"Contracts\":2727:2734  referee */\n      dup4\n        /* \"Contracts\":2718:2735  referees[referee] */\n      0xffffffffffffffffffffffffffffffffffffffff\n      and\n      0xffffffffffffffffffffffffffffffffffffffff\n      and\n      dup2\n      mstore\n      0x20\n      add\n      swap1\n      dup2\n      mstore\n      0x20\n      add\n      0x00\n      keccak256\n        /* \"Contracts\":2718:2761  referees[referee].approvalRequestsAddresses */\n      0x03\n      add\n        /* \"Contracts\":2711:2761  return referees[referee].approvalRequestsAddresses */\n      dup1\n      sload\n      dup1\n      0x20\n      mul\n      0x20\n      add\n      mload(0x40)\n      swap1\n      dup2\n      add\n      0x40\n      mstore\n      dup1\n      swap3\n      swap2\n      swap1\n      dup2\n      dup2\n      mstore\n      0x20\n      add\n      dup3\n      dup1\n      sload\n      dup1\n      iszero\n      tag_211\n      jumpi\n      0x20\n      mul\n      dup3\n      add\n      swap2\n      swap1\n      0x00\n      mstore\n      keccak256(0x00, 0x20)\n      swap1\n    tag_212:\n      dup2\n      0x00\n      swap1\n      sload\n      swap1\n      0x0100\n      exp\n      swap1\n      div\n      0xffffffffffffffffffffffffffffffffffffffff\n      and\n      0xffffffffffffffffffffffffffffffffffffffff\n      and\n      dup2\n      mstore\n      0x20\n      add\n      swap1\n      0x01\n      add\n      swap1\n      dup1\n      dup4\n      gt\n      tag_212\n      jumpi\n    tag_211:\n      pop\n      pop\n      pop\n      pop\n      pop\n      swap1\n      pop\n        /* \"Contracts\":2617:2768  function getApprovalRequests(address referee) public view returns (address[] memory){... */\n      swap2\n      swap1\n      pop\n      jump\t// out\n        /* \"Contracts\":2221:2411  function getOpenAccountabilityContractAddressesForReferee(address referee) public view returns (address[] memory){... */\n    tag_96:\n        /* \"Contracts\":2317:2333  address[] memory */\n      0x60\n        /* \"Contracts\":2351:2359  referees */\n      0x06\n        /* \"Contracts\":2351:2368  referees[referee] */\n      0x00\n        /* \"Contracts\":2360:2367  referee */\n      dup4\n        /* \"Contracts\":2351:2368  referees[referee] */\n      0xffffffffffffffffffffffffffffffffffffffff\n      and\n      0xffffffffffffffffffffffffffffffffffffffff\n      and\n      dup2\n      mstore\n      0x20\n      add\n      swap1\n      dup2\n      mstore\n      0x20\n      add\n      0x00\n      keccak256\n        /* \"Contracts\":2351:2404  referees[referee].openAccountabilityContractAddresses */\n      0x01\n      add\n        /* \"Contracts\":2344:2404  return referees[referee].openAccountabilityContractAddresses */\n      dup1\n      sload\n      dup1\n      0x20\n      mul\n      0x20\n      add\n      mload(0x40)\n      swap1\n      dup2\n      add\n      0x40\n      mstore\n      dup1\n      swap3\n      swap2\n      swap1\n      dup2\n      dup2\n      mstore\n      0x20\n      add\n      dup3\n      dup1\n      sload\n      dup1\n      iszero\n      tag_214\n      jumpi\n      0x20\n      mul\n      dup3\n      add\n      swap2\n      swap1\n      0x00\n      mstore\n      keccak256(0x00, 0x20)\n      swap1\n    tag_215:\n      dup2\n      0x00\n      swap1\n      sload\n      swap1\n      0x0100\n      exp\n      swap1\n      div\n      0xffffffffffffffffffffffffffffffffffffffff\n      and\n      0xffffffffffffffffffffffffffffffffffffffff\n      and\n      dup2\n      mstore\n      0x20\n      add\n      swap1\n      0x01\n      add\n      swap1\n      dup1\n      dup4\n      gt\n      tag_215\n      jumpi\n    tag_214:\n      pop\n      pop\n      pop\n      pop\n      pop\n      swap1\n      pop\n        /* \"Contracts\":2221:2411  function getOpenAccountabilityContractAddressesForReferee(address referee) public view returns (address[] memory){... */\n      swap2\n      swap1\n      pop\n      jump\t// out\n        /* \"Contracts\":100:137  mapping(address => User) public users */\n    tag_101:\n      mstore(0x20, 0x00)\n      dup1\n      0x00\n      mstore\n      keccak256(0x00, 0x40)\n      0x00\n      swap2\n      pop\n      swap1\n      pop\n      dup1\n      0x00\n      add\n      sload\n      swap1\n      pop\n      dup2\n      jump\t// out\n        /* \"Contracts\":8498:8993  function getUserAddresses(uint startIndex, uint endIndex) public view returns (address[] memory) {... */\n    tag_106:\n        /* \"Contracts\":8577:8593  address[] memory */\n      0x60\n        /* \"Contracts\":8626:8627  0 */\n      0x00\n        /* \"Contracts\":8612:8622  startIndex */\n      dup4\n        /* \"Contracts\":8612:8627  startIndex >= 0 */\n      lt\n      iszero\n        /* \"Contracts\":8604:8662  require(startIndex >= 0, \"Start index cannot be negative\") */\n      tag_217\n      jumpi\n      mload(0x40)\n      0x08c379a000000000000000000000000000000000000000000000000000000000\n      dup2\n      mstore\n      0x04\n      add\n      tag_218\n      swap1\n      tag_151\n      jump\t// in\n    tag_218:\n      mload(0x40)\n      dup1\n      swap2\n      sub\n      swap1\n      revert\n    tag_217:\n        /* \"Contracts\":8691:8704  userAddresses */\n      0x01\n        /* \"Contracts\":8691:8711  userAddresses.length */\n      dup1\n      sload\n      swap1\n      pop\n        /* \"Contracts\":8679:8687  endIndex */\n      dup3\n        /* \"Contracts\":8679:8711  endIndex <= userAddresses.length */\n      gt\n      iszero\n        /* \"Contracts\":8671:8755  require(endIndex <= userAddresses.length, \"End index exceeds user addresses length\") */\n      tag_219\n      jumpi\n      mload(0x40)\n      0x08c379a000000000000000000000000000000000000000000000000000000000\n      dup2\n      mstore\n      0x04\n      add\n      tag_220\n      swap1\n      tag_154\n      jump\t// in\n    tag_220:\n      mload(0x40)\n      dup1\n      swap2\n      sub\n      swap1\n      revert\n    tag_219:\n        /* \"Contracts\":8764:8800  address[] memory slicedUserAddresses */\n      0x00\n        /* \"Contracts\":8826:8836  startIndex */\n      dup4\n        /* \"Contracts\":8817:8825  endIndex */\n      dup4\n        /* \"Contracts\":8817:8836  endIndex-startIndex */\n      tag_221\n      swap2\n      swap1\n      tag_156\n      jump\t// in\n    tag_221:\n        /* \"Contracts\":8803:8837  new address[](endIndex-startIndex) */\n      0xffffffffffffffff\n      dup2\n      gt\n      iszero\n      tag_222\n      jumpi\n      tag_223\n      tag_159\n      jump\t// in\n    tag_223:\n    tag_222:\n      mload(0x40)\n      swap1\n      dup1\n      dup3\n      mstore\n      dup1\n      0x20\n      mul\n      0x20\n      add\n      dup3\n      add\n      0x40\n      mstore\n      dup1\n      iszero\n      tag_224\n      jumpi\n      dup2\n      0x20\n      add\n      0x20\n      dup3\n      mul\n      dup1\n      calldatasize\n      dup4\n      calldatacopy\n      dup1\n      dup3\n      add\n      swap2\n      pop\n      pop\n      swap1\n      pop\n    tag_224:\n      pop\n        /* \"Contracts\":8764:8837  address[] memory slicedUserAddresses = new address[](endIndex-startIndex) */\n      swap1\n      pop\n        /* \"Contracts\":8850:8856  uint i */\n      0x00\n        /* \"Contracts\":8857:8867  startIndex */\n      dup5\n        /* \"Contracts\":8850:8867  uint i=startIndex */\n      swap1\n      pop\n        /* \"Contracts\":8846:8951  for(uint i=startIndex; i<endIndex; i++){... */\n    tag_225:\n        /* \"Contracts\":8871:8879  endIndex */\n      dup4\n        /* \"Contracts\":8869:8870  i */\n      dup2\n        /* \"Contracts\":8869:8879  i<endIndex */\n      lt\n        /* \"Contracts\":8846:8951  for(uint i=startIndex; i<endIndex; i++){... */\n      iszero\n      tag_226\n      jumpi\n        /* \"Contracts\":8924:8937  userAddresses */\n      0x01\n        /* \"Contracts\":8938:8939  i */\n      dup2\n        /* \"Contracts\":8924:8940  userAddresses[i] */\n      dup2\n      sload\n      dup2\n      lt\n      tag_228\n      jumpi\n      tag_229\n      tag_166\n      jump\t// in\n    tag_229:\n    tag_228:\n      swap1\n      0x00\n      mstore\n      keccak256(0x00, 0x20)\n      add\n      0x00\n      swap1\n      sload\n      swap1\n      0x0100\n      exp\n      swap1\n      div\n      0xffffffffffffffffffffffffffffffffffffffff\n      and\n        /* \"Contracts\":8899:8918  slicedUserAddresses */\n      dup3\n        /* \"Contracts\":8919:8920  i */\n      dup3\n        /* \"Contracts\":8899:8921  slicedUserAddresses[i] */\n      dup2\n      mload\n      dup2\n      lt\n      tag_231\n      jumpi\n      tag_232\n      tag_166\n      jump\t// in\n    tag_232:\n    tag_231:\n      0x20\n      mul\n      0x20\n      add\n      add\n        /* \"Contracts\":8899:8940  slicedUserAddresses[i] = userAddresses[i] */\n      swap1\n      0xffffffffffffffffffffffffffffffffffffffff\n      and\n      swap1\n      dup2\n      0xffffffffffffffffffffffffffffffffffffffff\n      and\n      dup2\n      mstore\n      pop\n      pop\n        /* \"Contracts\":8881:8884  i++ */\n      dup1\n      dup1\n      tag_233\n      swap1\n      tag_171\n      jump\t// in\n    tag_233:\n      swap2\n      pop\n      pop\n        /* \"Contracts\":8846:8951  for(uint i=startIndex; i<endIndex; i++){... */\n      jump(tag_225)\n    tag_226:\n      pop\n        /* \"Contracts\":8967:8986  slicedUserAddresses */\n      dup1\n        /* \"Contracts\":8960:8986  return slicedUserAddresses */\n      swap2\n      pop\n      pop\n        /* \"Contracts\":8498:8993  function getUserAddresses(uint startIndex, uint endIndex) public view returns (address[] memory) {... */\n      swap3\n      swap2\n      pop\n      pop\n      jump\t// out\n        /* \"Contracts\":2033:2215  function getClosedAccountabilityContractAddressesForUser(address user) public view returns (address[] memory){... */\n    tag_111:\n        /* \"Contracts\":2125:2141  address[] memory */\n      0x60\n        /* \"Contracts\":2159:2164  users */\n      0x00\n        /* \"Contracts\":2159:2170  users[user] */\n      dup1\n        /* \"Contracts\":2165:2169  user */\n      dup4\n        /* \"Contracts\":2159:2170  users[user] */\n      0xffffffffffffffffffffffffffffffffffffffff\n      and\n      0xffffffffffffffffffffffffffffffffffffffff\n      and\n      dup2\n      mstore\n      0x20\n      add\n      swap1\n      dup2\n      mstore\n      0x20\n      add\n      0x00\n      keccak256\n        /* \"Contracts\":2159:2208  users[user].closedAccountabilityContractAddresses */\n      0x02\n      add\n        /* \"Contracts\":2152:2208  return users[user].closedAccountabilityContractAddresses */\n      dup1\n      sload\n      dup1\n      0x20\n      mul\n      0x20\n      add\n      mload(0x40)\n      swap1\n      dup2\n      add\n      0x40\n      mstore\n      dup1\n      swap3\n      swap2\n      swap1\n      dup2\n      dup2\n      mstore\n      0x20\n      add\n      dup3\n      dup1\n      sload\n      dup1\n      iszero\n      tag_235\n      jumpi\n      0x20\n      mul\n      dup3\n      add\n      swap2\n      swap1\n      0x00\n      mstore\n      keccak256(0x00, 0x20)\n      swap1\n    tag_236:\n      dup2\n      0x00\n      swap1\n      sload\n      swap1\n      0x0100\n      exp\n      swap1\n      div\n      0xffffffffffffffffffffffffffffffffffffffff\n      and\n      0xffffffffffffffffffffffffffffffffffffffff\n      and\n      dup2\n      mstore\n      0x20\n      add\n      swap1\n      0x01\n      add\n      swap1\n      dup1\n      dup4\n      gt\n      tag_236\n      jumpi\n    tag_235:\n      pop\n      pop\n      pop\n      pop\n      pop\n      swap1\n      pop\n        /* \"Contracts\":2033:2215  function getClosedAccountabilityContractAddressesForUser(address user) public view returns (address[] memory){... */\n      swap2\n      swap1\n      pop\n      jump\t// out\n        /* \"Contracts\":385:413  uint public numberOfReferees */\n    tag_115:\n      sload(0x07)\n      dup2\n      jump\t// out\n        /* \"Contracts\":5024:5539  function rejectRequest(address approvalRequestAddress) public {... */\n    tag_120:\n        /* \"Contracts\":5096:5149  AccountabilityContractApprovalRequest approvalRequest */\n      0x00\n        /* \"Contracts\":5190:5212  approvalRequestAddress */\n      dup2\n        /* \"Contracts\":5096:5213  AccountabilityContractApprovalRequest approvalRequest = AccountabilityContractApprovalRequest(approvalRequestAddress) */\n      swap1\n      pop\n        /* \"Contracts\":5223:5268  AccountabilityContract accountabilityContract */\n      0x00\n        /* \"Contracts\":5294:5309  approvalRequest */\n      dup2\n        /* \"Contracts\":5294:5339  approvalRequest.accountabilityContractAddress */\n      0xffffffffffffffffffffffffffffffffffffffff\n      and\n      0x3c490174\n        /* \"Contracts\":5294:5341  approvalRequest.accountabilityContractAddress() */\n      mload(0x40)\n      dup2\n      0xffffffff\n      and\n      0xe0\n      shl\n      dup2\n      mstore\n      0x04\n      add\n      0x20\n      mload(0x40)\n      dup1\n      dup4\n      sub\n      dup2\n      dup7\n      gas\n      staticcall\n      iszero\n      dup1\n      iszero\n      tag_239\n      jumpi\n      returndatasize\n      0x00\n      dup1\n      returndatacopy\n      revert(0x00, returndatasize)\n    tag_239:\n      pop\n      pop\n      pop\n      pop\n      mload(0x40)\n      returndatasize\n      not(0x1f)\n      0x1f\n      dup3\n      add\n      and\n      dup3\n      add\n      dup1\n      0x40\n      mstore\n      pop\n      dup2\n      add\n      swap1\n      tag_240\n      swap2\n      swap1\n      tag_137\n      jump\t// in\n    tag_240:\n        /* \"Contracts\":5223:5342  AccountabilityContract accountabilityContract = AccountabilityContract(approvalRequest.accountabilityContractAddress()) */\n      swap1\n      pop\n        /* \"Contracts\":5352:5367  approvalRequest */\n      dup2\n        /* \"Contracts\":5352:5381  approvalRequest.rejectRequest */\n      0xffffffffffffffffffffffffffffffffffffffff\n      and\n      0xe19695f7\n        /* \"Contracts\":5352:5383  approvalRequest.rejectRequest() */\n      mload(0x40)\n      dup2\n      0xffffffff\n      and\n      0xe0\n      shl\n      dup2\n      mstore\n      0x04\n      add\n      0x20\n      mload(0x40)\n      dup1\n      dup4\n      sub\n      dup2\n      0x00\n      dup8\n      gas\n      call\n      iszero\n      dup1\n      iszero\n      tag_242\n      jumpi\n      returndatasize\n      0x00\n      dup1\n      returndatacopy\n      revert(0x00, returndatasize)\n    tag_242:\n      pop\n      pop\n      pop\n      pop\n      mload(0x40)\n      returndatasize\n      not(0x1f)\n      0x1f\n      dup3\n      add\n      and\n      dup3\n      add\n      dup1\n      0x40\n      mstore\n      pop\n      dup2\n      add\n      swap1\n      tag_243\n      swap2\n      swap1\n      tag_141\n      jump\t// in\n    tag_243:\n      pop\n        /* \"Contracts\":5393:5482  deleteApprovalRequestForReferee(accountabilityContract.referee(), approvalRequestAddress) */\n      tag_244\n        /* \"Contracts\":5425:5447  accountabilityContract */\n      dup2\n        /* \"Contracts\":5425:5455  accountabilityContract.referee */\n      0xffffffffffffffffffffffffffffffffffffffff\n      and\n      0x3b1bebd1\n        /* \"Contracts\":5425:5457  accountabilityContract.referee() */\n      mload(0x40)\n      dup2\n      0xffffffff\n      and\n      0xe0\n      shl\n      dup2\n      mstore\n      0x04\n      add\n      0x20\n      mload(0x40)\n      dup1\n      dup4\n      sub\n      dup2\n      dup7\n      gas\n      staticcall\n      iszero\n      dup1\n      iszero\n      tag_246\n      jumpi\n      returndatasize\n      0x00\n      dup1\n      returndatacopy\n      revert(0x00, returndatasize)\n    tag_246:\n      pop\n      pop\n      pop\n      pop\n      mload(0x40)\n      returndatasize\n      not(0x1f)\n      0x1f\n      dup3\n      add\n      and\n      dup3\n      add\n      dup1\n      0x40\n      mstore\n      pop\n      dup2\n      add\n      swap1\n      tag_247\n      swap2\n      swap1\n      tag_137\n      jump\t// in\n    tag_247:\n        /* \"Contracts\":5459:5481  approvalRequestAddress */\n      dup5\n        /* \"Contracts\":5393:5424  deleteApprovalRequestForReferee */\n      tag_147\n        /* \"Contracts\":5393:5482  deleteApprovalRequestForReferee(accountabilityContract.referee(), approvalRequestAddress) */\n      jump\t// in\n    tag_244:\n        /* \"Contracts\":5492:5514  accountabilityContract */\n      dup1\n        /* \"Contracts\":5492:5530  accountabilityContract.setStatusToOpen */\n      0xffffffffffffffffffffffffffffffffffffffff\n      and\n      0xf7cc7e4e\n        /* \"Contracts\":5492:5532  accountabilityContract.setStatusToOpen() */\n      mload(0x40)\n      dup2\n      0xffffffff\n      and\n      0xe0\n      shl\n      dup2\n      mstore\n      0x04\n      add\n      0x00\n      mload(0x40)\n      dup1\n      dup4\n      sub\n      dup2\n      0x00\n      dup8\n      dup1\n      extcodesize\n      iszero\n      dup1\n      iszero\n      tag_248\n      jumpi\n      0x00\n      dup1\n      revert\n    tag_248:\n      pop\n      gas\n      call\n      iszero\n      dup1\n      iszero\n      tag_250\n      jumpi\n      returndatasize\n      0x00\n      dup1\n      returndatacopy\n      revert(0x00, returndatasize)\n    tag_250:\n      pop\n      pop\n      pop\n      pop\n        /* \"Contracts\":5086:5539  {... */\n      pop\n      pop\n        /* \"Contracts\":5024:5539  function rejectRequest(address approvalRequestAddress) public {... */\n      pop\n      jump\t// out\n        /* \"Contracts\":303:334  uint public totalEthInContracts */\n    tag_123:\n      sload(0x05)\n      dup2\n      jump\t// out\n        /* \"Contracts\":3633:4468  function requestApproval(address contractAddress) public {... */\n    tag_128:\n        /* \"Contracts\":3700:3745  AccountabilityContract accountabilityContract */\n      0x00\n        /* \"Contracts\":3771:3786  contractAddress */\n      dup2\n        /* \"Contracts\":3700:3787  AccountabilityContract accountabilityContract = AccountabilityContract(contractAddress) */\n      swap1\n      pop\n        /* \"Contracts\":3840:3874  AccountabilityContract.Status.OPEN */\n      0x00\n        /* \"Contracts\":3805:3874  accountabilityContract.status() == AccountabilityContract.Status.OPEN */\n      0x03\n      dup2\n      gt\n      iszero\n      tag_252\n      jumpi\n      tag_253\n      tag_254\n      jump\t// in\n    tag_253:\n    tag_252:\n        /* \"Contracts\":3805:3827  accountabilityContract */\n      dup2\n        /* \"Contracts\":3805:3834  accountabilityContract.status */\n      0xffffffffffffffffffffffffffffffffffffffff\n      and\n      0x200d2ed2\n        /* \"Contracts\":3805:3836  accountabilityContract.status() */\n      mload(0x40)\n      dup2\n      0xffffffff\n      and\n      0xe0\n      shl\n      dup2\n      mstore\n      0x04\n      add\n      0x20\n      mload(0x40)\n      dup1\n      dup4\n      sub\n      dup2\n      dup7\n      gas\n      staticcall\n      iszero\n      dup1\n      iszero\n      tag_256\n      jumpi\n      returndatasize\n      0x00\n      dup1\n      returndatacopy\n      revert(0x00, returndatasize)\n    tag_256:\n      pop\n      pop\n      pop\n      pop\n      mload(0x40)\n      returndatasize\n      not(0x1f)\n      0x1f\n      dup3\n      add\n      and\n      dup3\n      add\n      dup1\n      0x40\n      mstore\n      pop\n      dup2\n      add\n      swap1\n      tag_257\n      swap2\n      swap1\n      tag_258\n      jump\t// in\n    tag_257:\n        /* \"Contracts\":3805:3874  accountabilityContract.status() == AccountabilityContract.Status.OPEN */\n      0x03\n      dup2\n      gt\n      iszero\n      tag_259\n      jumpi\n      tag_260\n      tag_254\n      jump\t// in\n    tag_260:\n    tag_259:\n      eq\n        /* \"Contracts\":3797:3907  require(accountabilityContract.status() == AccountabilityContract.Status.OPEN, \"Contract status must be open\") */\n      tag_261\n      jumpi\n      mload(0x40)\n      0x08c379a000000000000000000000000000000000000000000000000000000000\n      dup2\n      mstore\n      0x04\n      add\n      tag_262\n      swap1\n      tag_263\n      jump\t// in\n    tag_262:\n      mload(0x40)\n      dup1\n      swap2\n      sub\n      swap1\n      revert\n    tag_261:\n        /* \"Contracts\":3938:3960  accountabilityContract */\n      dup1\n        /* \"Contracts\":3938:3968  accountabilityContract.creator */\n      0xffffffffffffffffffffffffffffffffffffffff\n      and\n      0x02d05d3f\n        /* \"Contracts\":3938:3970  accountabilityContract.creator() */\n      mload(0x40)\n      dup2\n      0xffffffff\n      and\n      0xe0\n      shl\n      dup2\n      mstore\n      0x04\n      add\n      0x20\n      mload(0x40)\n      dup1\n      dup4\n      sub\n      dup2\n      dup7\n      gas\n      staticcall\n      iszero\n      dup1\n      iszero\n      tag_265\n      jumpi\n      returndatasize\n      0x00\n      dup1\n      returndatacopy\n      revert(0x00, returndatasize)\n    tag_265:\n      pop\n      pop\n      pop\n      pop\n      mload(0x40)\n      returndatasize\n      not(0x1f)\n      0x1f\n      dup3\n      add\n      and\n      dup3\n      add\n      dup1\n      0x40\n      mstore\n      pop\n      dup2\n      add\n      swap1\n      tag_266\n      swap2\n      swap1\n      tag_137\n      jump\t// in\n    tag_266:\n        /* \"Contracts\":3925:3970  tx.origin == accountabilityContract.creator() */\n      0xffffffffffffffffffffffffffffffffffffffff\n      and\n        /* \"Contracts\":3925:3934  tx.origin */\n      origin\n        /* \"Contracts\":3925:3970  tx.origin == accountabilityContract.creator() */\n      0xffffffffffffffffffffffffffffffffffffffff\n      and\n      eq\n        /* \"Contracts\":3917:4022  require(tx.origin == accountabilityContract.creator(), \"Only creator of contract can request completion\") */\n      tag_267\n      jumpi\n      mload(0x40)\n      0x08c379a000000000000000000000000000000000000000000000000000000000\n      dup2\n      mstore\n      0x04\n      add\n      tag_268\n      swap1\n      tag_269\n      jump\t// in\n    tag_268:\n      mload(0x40)\n      dup1\n      swap2\n      sub\n      swap1\n      revert\n    tag_267:\n        /* \"Contracts\":4076:4098  accountabilityContract */\n      dup1\n        /* \"Contracts\":4076:4106  accountabilityContract.referee */\n      0xffffffffffffffffffffffffffffffffffffffff\n      and\n      0x3b1bebd1\n        /* \"Contracts\":4076:4108  accountabilityContract.referee() */\n      mload(0x40)\n      dup2\n      0xffffffff\n      and\n      0xe0\n      shl\n      dup2\n      mstore\n      0x04\n      add\n      0x20\n      mload(0x40)\n      dup1\n      dup4\n      sub\n      dup2\n      dup7\n      gas\n      staticcall\n      iszero\n      dup1\n      iszero\n      tag_271\n      jumpi\n      returndatasize\n      0x00\n      dup1\n      returndatacopy\n      revert(0x00, returndatasize)\n    tag_271:\n      pop\n      pop\n      pop\n      pop\n      mload(0x40)\n      returndatasize\n      not(0x1f)\n      0x1f\n      dup3\n      add\n      and\n      dup3\n      add\n      dup1\n      0x40\n      mstore\n      pop\n      dup2\n      add\n      swap1\n      tag_272\n      swap2\n      swap1\n      tag_137\n      jump\t// in\n    tag_272:\n        /* \"Contracts\":4040:4108  accountabilityContract.creator() != accountabilityContract.referee() */\n      0xffffffffffffffffffffffffffffffffffffffff\n      and\n        /* \"Contracts\":4040:4062  accountabilityContract */\n      dup2\n        /* \"Contracts\":4040:4070  accountabilityContract.creator */\n      0xffffffffffffffffffffffffffffffffffffffff\n      and\n      0x02d05d3f\n        /* \"Contracts\":4040:4072  accountabilityContract.creator() */\n      mload(0x40)\n      dup2\n      0xffffffff\n      and\n      0xe0\n      shl\n      dup2\n      mstore\n      0x04\n      add\n      0x20\n      mload(0x40)\n      dup1\n      dup4\n      sub\n      dup2\n      dup7\n      gas\n      staticcall\n      iszero\n      dup1\n      iszero\n      tag_274\n      jumpi\n      returndatasize\n      0x00\n      dup1\n      returndatacopy\n      revert(0x00, returndatasize)\n    tag_274:\n      pop\n      pop\n      pop\n      pop\n      mload(0x40)\n      returndatasize\n      not(0x1f)\n      0x1f\n      dup3\n      add\n      and\n      dup3\n      add\n      dup1\n      0x40\n      mstore\n      pop\n      dup2\n      add\n      swap1\n      tag_275\n      swap2\n      swap1\n      tag_137\n      jump\t// in\n    tag_275:\n        /* \"Contracts\":4040:4108  accountabilityContract.creator() != accountabilityContract.referee() */\n      0xffffffffffffffffffffffffffffffffffffffff\n      and\n      eq\n      iszero\n        /* \"Contracts\":4032:4160  require(accountabilityContract.creator() != accountabilityContract.referee(), \"Cannot request approval when creator is referee\") */\n      tag_276\n      jumpi\n      mload(0x40)\n      0x08c379a000000000000000000000000000000000000000000000000000000000\n      dup2\n      mstore\n      0x04\n      add\n      tag_277\n      swap1\n      tag_278\n      jump\t// in\n    tag_277:\n      mload(0x40)\n      dup1\n      swap2\n      sub\n      swap1\n      revert\n    tag_276:\n        /* \"Contracts\":4170:4226  AccountabilityContractApprovalRequest newApprovalRequest */\n      0x00\n        /* \"Contracts\":4271:4286  contractAddress */\n      dup3\n        /* \"Contracts\":4229:4287  new AccountabilityContractApprovalRequest(contractAddress) */\n      mload(0x40)\n      tag_279\n      swap1\n      tag_280\n      jump\t// in\n    tag_279:\n      tag_281\n      swap2\n      swap1\n      tag_50\n      jump\t// in\n    tag_281:\n      mload(0x40)\n      dup1\n      swap2\n      sub\n      swap1\n      0x00\n      create\n      dup1\n      iszero\n      dup1\n      iszero\n      tag_282\n      jumpi\n      returndatasize\n      0x00\n      dup1\n      returndatacopy\n      revert(0x00, returndatasize)\n    tag_282:\n      pop\n        /* \"Contracts\":4170:4287  AccountabilityContractApprovalRequest newApprovalRequest = new AccountabilityContractApprovalRequest(contractAddress) */\n      swap1\n      pop\n        /* \"Contracts\":4297:4305  referees */\n      0x06\n        /* \"Contracts\":4297:4339  referees[accountabilityContract.referee()] */\n      0x00\n        /* \"Contracts\":4306:4328  accountabilityContract */\n      dup4\n        /* \"Contracts\":4306:4336  accountabilityContract.referee */\n      0xffffffffffffffffffffffffffffffffffffffff\n      and\n      0x3b1bebd1\n        /* \"Contracts\":4306:4338  accountabilityContract.referee() */\n      mload(0x40)\n      dup2\n      0xffffffff\n      and\n      0xe0\n      shl\n      dup2\n      mstore\n      0x04\n      add\n      0x20\n      mload(0x40)\n      dup1\n      dup4\n      sub\n      dup2\n      dup7\n      gas\n      staticcall\n      iszero\n      dup1\n      iszero\n      tag_284\n      jumpi\n      returndatasize\n      0x00\n      dup1\n      returndatacopy\n      revert(0x00, returndatasize)\n    tag_284:\n      pop\n      pop\n      pop\n      pop\n      mload(0x40)\n      returndatasize\n      not(0x1f)\n      0x1f\n      dup3\n      add\n      and\n      dup3\n      add\n      dup1\n      0x40\n      mstore\n      pop\n      dup2\n      add\n      swap1\n      tag_285\n      swap2\n      swap1\n      tag_137\n      jump\t// in\n    tag_285:\n        /* \"Contracts\":4297:4339  referees[accountabilityContract.referee()] */\n      0xffffffffffffffffffffffffffffffffffffffff\n      and\n      0xffffffffffffffffffffffffffffffffffffffff\n      and\n      dup2\n      mstore\n      0x20\n      add\n      swap1\n      dup2\n      mstore\n      0x20\n      add\n      0x00\n      keccak256\n        /* \"Contracts\":4297:4365  referees[accountabilityContract.referee()].approvalRequestsAddresses */\n      0x03\n      add\n        /* \"Contracts\":4379:4397  newApprovalRequest */\n      dup2\n        /* \"Contracts\":4297:4399  referees[accountabilityContract.referee()].approvalRequestsAddresses.push(address(newApprovalRequest)) */\n      swap1\n      dup1\n      0x01\n      dup2\n      sload\n      add\n      dup1\n      dup3\n      sstore\n      dup1\n      swap2\n      pop\n      pop\n      0x01\n      swap1\n      sub\n      swap1\n      0x00\n      mstore\n      keccak256(0x00, 0x20)\n      add\n      0x00\n      swap1\n      swap2\n      swap1\n      swap2\n      swap1\n      swap2\n      0x0100\n      exp\n      dup2\n      sload\n      dup2\n      0xffffffffffffffffffffffffffffffffffffffff\n      mul\n      not\n      and\n      swap1\n      dup4\n      0xffffffffffffffffffffffffffffffffffffffff\n      and\n      mul\n      or\n      swap1\n      sstore\n      pop\n        /* \"Contracts\":4409:4431  accountabilityContract */\n      dup2\n        /* \"Contracts\":4409:4459  accountabilityContract.setStatusToAwaitingApproval */\n      0xffffffffffffffffffffffffffffffffffffffff\n      and\n      0xd1f0047b\n        /* \"Contracts\":4409:4461  accountabilityContract.setStatusToAwaitingApproval() */\n      mload(0x40)\n      dup2\n      0xffffffff\n      and\n      0xe0\n      shl\n      dup2\n      mstore\n      0x04\n      add\n      0x00\n      mload(0x40)\n      dup1\n      dup4\n      sub\n      dup2\n      0x00\n      dup8\n      dup1\n      extcodesize\n      iszero\n      dup1\n      iszero\n      tag_287\n      jumpi\n      0x00\n      dup1\n      revert\n    tag_287:\n      pop\n      gas\n      call\n      iszero\n      dup1\n      iszero\n      tag_289\n      jumpi\n      returndatasize\n      0x00\n      dup1\n      returndatacopy\n      revert(0x00, returndatasize)\n    tag_289:\n      pop\n      pop\n      pop\n      pop\n        /* \"Contracts\":3690:4468  {... */\n      pop\n      pop\n        /* \"Contracts\":3633:4468  function requestApproval(address contractAddress) public {... */\n      pop\n      jump\t// out\n        /* \"Contracts\":813:1843  function createAccountabilityContract(address _referee, string memory _name, string memory _description, address payable _failureRecipient) public payable {... */\n    tag_132:\n        /* \"Contracts\":1019:1020  0 */\n      0x00\n        /* \"Contracts\":981:986  users */\n      dup1\n        /* \"Contracts\":981:998  users[msg.sender] */\n      0x00\n        /* \"Contracts\":987:997  msg.sender */\n      caller\n        /* \"Contracts\":981:998  users[msg.sender] */\n      0xffffffffffffffffffffffffffffffffffffffff\n      and\n      0xffffffffffffffffffffffffffffffffffffffff\n      and\n      dup2\n      mstore\n      0x20\n      add\n      swap1\n      dup2\n      mstore\n      0x20\n      add\n      0x00\n      keccak256\n        /* \"Contracts\":981:1015  users[msg.sender].createdContracts */\n      0x00\n      add\n      sload\n        /* \"Contracts\":981:1020  users[msg.sender].createdContracts == 0 */\n      eq\n        /* \"Contracts\":978:1105  if(users[msg.sender].createdContracts == 0){... */\n      iszero\n      tag_291\n      jumpi\n        /* \"Contracts\":1035:1048  numberOfUsers */\n      0x02\n      0x00\n        /* \"Contracts\":1035:1050  numberOfUsers++ */\n      dup2\n      sload\n      dup1\n      swap3\n      swap2\n      swap1\n      tag_292\n      swap1\n      tag_171\n      jump\t// in\n    tag_292:\n      swap2\n      swap1\n      pop\n      sstore\n      pop\n        /* \"Contracts\":1064:1077  userAddresses */\n      0x01\n        /* \"Contracts\":1083:1093  msg.sender */\n      caller\n        /* \"Contracts\":1064:1094  userAddresses.push(msg.sender) */\n      swap1\n      dup1\n      0x01\n      dup2\n      sload\n      add\n      dup1\n      dup3\n      sstore\n      dup1\n      swap2\n      pop\n      pop\n      0x01\n      swap1\n      sub\n      swap1\n      0x00\n      mstore\n      keccak256(0x00, 0x20)\n      add\n      0x00\n      swap1\n      swap2\n      swap1\n      swap2\n      swap1\n      swap2\n      0x0100\n      exp\n      dup2\n      sload\n      dup2\n      0xffffffffffffffffffffffffffffffffffffffff\n      mul\n      not\n      and\n      swap1\n      dup4\n      0xffffffffffffffffffffffffffffffffffffffff\n      and\n      mul\n      or\n      swap1\n      sstore\n      pop\n        /* \"Contracts\":978:1105  if(users[msg.sender].createdContracts == 0){... */\n    tag_291:\n        /* \"Contracts\":1156:1157  0 */\n      0x00\n        /* \"Contracts\":1117:1125  referees */\n      0x06\n        /* \"Contracts\":1117:1135  referees[_referee] */\n      0x00\n        /* \"Contracts\":1126:1134  _referee */\n      dup7\n        /* \"Contracts\":1117:1135  referees[_referee] */\n      0xffffffffffffffffffffffffffffffffffffffff\n      and\n      0xffffffffffffffffffffffffffffffffffffffff\n      and\n      dup2\n      mstore\n      0x20\n      add\n      swap1\n      dup2\n      mstore\n      0x20\n      add\n      0x00\n      keccak256\n        /* \"Contracts\":1117:1152  referees[_referee].managedContracts */\n      0x00\n      add\n      sload\n        /* \"Contracts\":1117:1157  referees[_referee].managedContracts == 0 */\n      eq\n        /* \"Contracts\":1114:1246  if(referees[_referee].managedContracts == 0){... */\n      iszero\n      tag_294\n      jumpi\n        /* \"Contracts\":1172:1188  numberOfReferees */\n      0x07\n      0x00\n        /* \"Contracts\":1172:1190  numberOfReferees++ */\n      dup2\n      sload\n      dup1\n      swap3\n      swap2\n      swap1\n      tag_295\n      swap1\n      tag_171\n      jump\t// in\n    tag_295:\n      swap2\n      swap1\n      pop\n      sstore\n      pop\n        /* \"Contracts\":1204:1220  refereeAddresses */\n      0x08\n        /* \"Contracts\":1226:1234  _referee */\n      dup5\n        /* \"Contracts\":1204:1235  refereeAddresses.push(_referee) */\n      swap1\n      dup1\n      0x01\n      dup2\n      sload\n      add\n      dup1\n      dup3\n      sstore\n      dup1\n      swap2\n      pop\n      pop\n      0x01\n      swap1\n      sub\n      swap1\n      0x00\n      mstore\n      keccak256(0x00, 0x20)\n      add\n      0x00\n      swap1\n      swap2\n      swap1\n      swap2\n      swap1\n      swap2\n      0x0100\n      exp\n      dup2\n      sload\n      dup2\n      0xffffffffffffffffffffffffffffffffffffffff\n      mul\n      not\n      and\n      swap1\n      dup4\n      0xffffffffffffffffffffffffffffffffffffffff\n      and\n      mul\n      or\n      swap1\n      sstore\n      pop\n        /* \"Contracts\":1114:1246  if(referees[_referee].managedContracts == 0){... */\n    tag_294:\n        /* \"Contracts\":1255:1289  AccountabilityContract newContract */\n      0x00\n        /* \"Contracts\":1328:1337  msg.value */\n      callvalue\n        /* \"Contracts\":1339:1349  msg.sender */\n      caller\n        /* \"Contracts\":1351:1359  _referee */\n      dup7\n        /* \"Contracts\":1361:1366  _name */\n      dup7\n        /* \"Contracts\":1368:1380  _description */\n      dup7\n        /* \"Contracts\":1382:1399  _failureRecipient */\n      dup7\n        /* \"Contracts\":1401:1410  msg.value */\n      callvalue\n        /* \"Contracts\":1292:1411  (new AccountabilityContract){value: msg.value}(msg.sender, _referee, _name, _description, _failureRecipient, msg.value) */\n      mload(0x40)\n      tag_297\n      swap1\n      tag_298\n      jump\t// in\n    tag_297:\n      tag_299\n      swap7\n      swap6\n      swap5\n      swap4\n      swap3\n      swap2\n      swap1\n      tag_300\n      jump\t// in\n    tag_299:\n      mload(0x40)\n      dup1\n      swap2\n      sub\n      swap1\n      dup3\n      create\n      swap1\n      pop\n      dup1\n      iszero\n      dup1\n      iszero\n      tag_301\n      jumpi\n      returndatasize\n      0x00\n      dup1\n      returndatacopy\n      revert(0x00, returndatasize)\n    tag_301:\n      pop\n        /* \"Contracts\":1255:1411  AccountabilityContract newContract = (new AccountabilityContract){value: msg.value}(msg.sender, _referee, _name, _description, _failureRecipient, msg.value) */\n      swap1\n      pop\n        /* \"Contracts\":1421:1452  numberOfAccountabilityContracts */\n      0x04\n      0x00\n        /* \"Contracts\":1421:1454  numberOfAccountabilityContracts++ */\n      dup2\n      sload\n      dup1\n      swap3\n      swap2\n      swap1\n      tag_302\n      swap1\n      tag_171\n      jump\t// in\n    tag_302:\n      swap2\n      swap1\n      pop\n      sstore\n      pop\n        /* \"Contracts\":1464:1495  accountabilityContractAddresses */\n      0x03\n        /* \"Contracts\":1509:1520  newContract */\n      dup2\n        /* \"Contracts\":1464:1522  accountabilityContractAddresses.push(address(newContract)) */\n      swap1\n      dup1\n      0x01\n      dup2\n      sload\n      add\n      dup1\n      dup3\n      sstore\n      dup1\n      swap2\n      pop\n      pop\n      0x01\n      swap1\n      sub\n      swap1\n      0x00\n      mstore\n      keccak256(0x00, 0x20)\n      add\n      0x00\n      swap1\n      swap2\n      swap1\n      swap2\n      swap1\n      swap2\n      0x0100\n      exp\n      dup2\n      sload\n      dup2\n      0xffffffffffffffffffffffffffffffffffffffff\n      mul\n      not\n      and\n      swap1\n      dup4\n      0xffffffffffffffffffffffffffffffffffffffff\n      and\n      mul\n      or\n      swap1\n      sstore\n      pop\n        /* \"Contracts\":1553:1562  msg.value */\n      callvalue\n        /* \"Contracts\":1532:1551  totalEthInContracts */\n      0x05\n      0x00\n        /* \"Contracts\":1532:1562  totalEthInContracts+=msg.value */\n      dup3\n      dup3\n      sload\n      tag_304\n      swap2\n      swap1\n      tag_305\n      jump\t// in\n    tag_304:\n      swap3\n      pop\n      pop\n      dup2\n      swap1\n      sstore\n      pop\n        /* \"Contracts\":1572:1577  users */\n      0x00\n        /* \"Contracts\":1572:1589  users[msg.sender] */\n      dup1\n        /* \"Contracts\":1578:1588  msg.sender */\n      caller\n        /* \"Contracts\":1572:1589  users[msg.sender] */\n      0xffffffffffffffffffffffffffffffffffffffff\n      and\n      0xffffffffffffffffffffffffffffffffffffffff\n      and\n      dup2\n      mstore\n      0x20\n      add\n      swap1\n      dup2\n      mstore\n      0x20\n      add\n      0x00\n      keccak256\n        /* \"Contracts\":1572:1606  users[msg.sender].createdContracts */\n      0x00\n      add\n      0x00\n        /* \"Contracts\":1572:1608  users[msg.sender].createdContracts++ */\n      dup2\n      sload\n      dup1\n      swap3\n      swap2\n      swap1\n      tag_306\n      swap1\n      tag_171\n      jump\t// in\n    tag_306:\n      swap2\n      swap1\n      pop\n      sstore\n      pop\n        /* \"Contracts\":1618:1623  users */\n      0x00\n        /* \"Contracts\":1618:1635  users[msg.sender] */\n      dup1\n        /* \"Contracts\":1624:1634  msg.sender */\n      caller\n        /* \"Contracts\":1618:1635  users[msg.sender] */\n      0xffffffffffffffffffffffffffffffffffffffff\n      and\n      0xffffffffffffffffffffffffffffffffffffffff\n      and\n      dup2\n      mstore\n      0x20\n      add\n      swap1\n      dup2\n      mstore\n      0x20\n      add\n      0x00\n      keccak256\n        /* \"Contracts\":1618:1671  users[msg.sender].openAccountabilityContractAddresses */\n      0x01\n      add\n        /* \"Contracts\":1685:1696  newContract */\n      dup2\n        /* \"Contracts\":1618:1698  users[msg.sender].openAccountabilityContractAddresses.push(address(newContract)) */\n      swap1\n      dup1\n      0x01\n      dup2\n      sload\n      add\n      dup1\n      dup3\n      sstore\n      dup1\n      swap2\n      pop\n      pop\n      0x01\n      swap1\n      sub\n      swap1\n      0x00\n      mstore\n      keccak256(0x00, 0x20)\n      add\n      0x00\n      swap1\n      swap2\n      swap1\n      swap2\n      swap1\n      swap2\n      0x0100\n      exp\n      dup2\n      sload\n      dup2\n      0xffffffffffffffffffffffffffffffffffffffff\n      mul\n      not\n      and\n      swap1\n      dup4\n      0xffffffffffffffffffffffffffffffffffffffff\n      and\n      mul\n      or\n      swap1\n      sstore\n      pop\n        /* \"Contracts\":1708:1716  referees */\n      0x06\n        /* \"Contracts\":1708:1726  referees[_referee] */\n      0x00\n        /* \"Contracts\":1717:1725  _referee */\n      dup7\n        /* \"Contracts\":1708:1726  referees[_referee] */\n      0xffffffffffffffffffffffffffffffffffffffff\n      and\n      0xffffffffffffffffffffffffffffffffffffffff\n      and\n      dup2\n      mstore\n      0x20\n      add\n      swap1\n      dup2\n      mstore\n      0x20\n      add\n      0x00\n      keccak256\n        /* \"Contracts\":1708:1743  referees[_referee].managedContracts */\n      0x00\n      add\n      0x00\n        /* \"Contracts\":1708:1745  referees[_referee].managedContracts++ */\n      dup2\n      sload\n      dup1\n      swap3\n      swap2\n      swap1\n      tag_308\n      swap1\n      tag_171\n      jump\t// in\n    tag_308:\n      swap2\n      swap1\n      pop\n      sstore\n      pop\n        /* \"Contracts\":1755:1763  referees */\n      0x06\n        /* \"Contracts\":1755:1773  referees[_referee] */\n      0x00\n        /* \"Contracts\":1764:1772  _referee */\n      dup7\n        /* \"Contracts\":1755:1773  referees[_referee] */\n      0xffffffffffffffffffffffffffffffffffffffff\n      and\n      0xffffffffffffffffffffffffffffffffffffffff\n      and\n      dup2\n      mstore\n      0x20\n      add\n      swap1\n      dup2\n      mstore\n      0x20\n      add\n      0x00\n      keccak256\n        /* \"Contracts\":1755:1809  referees[_referee].openAccountabilityContractAddresses */\n      0x01\n      add\n        /* \"Contracts\":1823:1834  newContract */\n      dup2\n        /* \"Contracts\":1755:1836  referees[_referee].openAccountabilityContractAddresses.push(address(newContract)) */\n      swap1\n      dup1\n      0x01\n      dup2\n      sload\n      add\n      dup1\n      dup3\n      sstore\n      dup1\n      swap2\n      pop\n      pop\n      0x01\n      swap1\n      sub\n      swap1\n      0x00\n      mstore\n      keccak256(0x00, 0x20)\n      add\n      0x00\n      swap1\n      swap2\n      swap1\n      swap2\n      swap1\n      swap2\n      0x0100\n      exp\n      dup2\n      sload\n      dup2\n      0xffffffffffffffffffffffffffffffffffffffff\n      mul\n      not\n      and\n      swap1\n      dup4\n      0xffffffffffffffffffffffffffffffffffffffff\n      and\n      mul\n      or\n      swap1\n      sstore\n      pop\n        /* \"Contracts\":968:1843  {... */\n      pop\n        /* \"Contracts\":813:1843  function createAccountabilityContract(address _referee, string memory _name, string memory _description, address payable _failureRecipient) public payable {... */\n      pop\n      pop\n      pop\n      pop\n      jump\t// out\n        /* \"Contracts\":7819:8492  function deleteApprovalRequestForReferee(address referee, address approvalRequestAddress) private {... */\n    tag_147:\n        /* \"Contracts\":7927:7945  uint contractIndex */\n      0x00\n        /* \"Contracts\":7960:7966  uint i */\n      dup1\n        /* \"Contracts\":7969:7970  0 */\n      0x00\n        /* \"Contracts\":7960:7970  uint i = 0 */\n      swap1\n      pop\n        /* \"Contracts\":7955:8206  for (uint i = 0; i<=referees[referee].approvalRequestsAddresses.length-1; i++){... */\n    tag_311:\n        /* \"Contracts\":8026:8027  1 */\n      0x01\n        /* \"Contracts\":7975:7983  referees */\n      0x06\n        /* \"Contracts\":7975:7992  referees[referee] */\n      0x00\n        /* \"Contracts\":7984:7991  referee */\n      dup7\n        /* \"Contracts\":7975:7992  referees[referee] */\n      0xffffffffffffffffffffffffffffffffffffffff\n      and\n      0xffffffffffffffffffffffffffffffffffffffff\n      and\n      dup2\n      mstore\n      0x20\n      add\n      swap1\n      dup2\n      mstore\n      0x20\n      add\n      0x00\n      keccak256\n        /* \"Contracts\":7975:8018  referees[referee].approvalRequestsAddresses */\n      0x03\n      add\n        /* \"Contracts\":7975:8025  referees[referee].approvalRequestsAddresses.length */\n      dup1\n      sload\n      swap1\n      pop\n        /* \"Contracts\":7975:8027  referees[referee].approvalRequestsAddresses.length-1 */\n      tag_314\n      swap2\n      swap1\n      tag_156\n      jump\t// in\n    tag_314:\n        /* \"Contracts\":7972:7973  i */\n      dup2\n        /* \"Contracts\":7972:8027  i<=referees[referee].approvalRequestsAddresses.length-1 */\n      gt\n        /* \"Contracts\":7955:8206  for (uint i = 0; i<=referees[referee].approvalRequestsAddresses.length-1; i++){... */\n      tag_312\n      jumpi\n        /* \"Contracts\":8100:8122  approvalRequestAddress */\n      dup3\n        /* \"Contracts\":8050:8122  referees[referee].approvalRequestsAddresses[i] == approvalRequestAddress */\n      0xffffffffffffffffffffffffffffffffffffffff\n      and\n        /* \"Contracts\":8050:8058  referees */\n      0x06\n        /* \"Contracts\":8050:8067  referees[referee] */\n      0x00\n        /* \"Contracts\":8059:8066  referee */\n      dup7\n        /* \"Contracts\":8050:8067  referees[referee] */\n      0xffffffffffffffffffffffffffffffffffffffff\n      and\n      0xffffffffffffffffffffffffffffffffffffffff\n      and\n      dup2\n      mstore\n      0x20\n      add\n      swap1\n      dup2\n      mstore\n      0x20\n      add\n      0x00\n      keccak256\n        /* \"Contracts\":8050:8093  referees[referee].approvalRequestsAddresses */\n      0x03\n      add\n        /* \"Contracts\":8094:8095  i */\n      dup3\n        /* \"Contracts\":8050:8096  referees[referee].approvalRequestsAddresses[i] */\n      dup2\n      sload\n      dup2\n      lt\n      tag_315\n      jumpi\n      tag_316\n      tag_166\n      jump\t// in\n    tag_316:\n    tag_315:\n      swap1\n      0x00\n      mstore\n      keccak256(0x00, 0x20)\n      add\n      0x00\n      swap1\n      sload\n      swap1\n      0x0100\n      exp\n      swap1\n      div\n      0xffffffffffffffffffffffffffffffffffffffff\n      and\n        /* \"Contracts\":8050:8122  referees[referee].approvalRequestsAddresses[i] == approvalRequestAddress */\n      0xffffffffffffffffffffffffffffffffffffffff\n      and\n      eq\n        /* \"Contracts\":8047:8196  if(referees[referee].approvalRequestsAddresses[i] == approvalRequestAddress){... */\n      iszero\n      tag_318\n      jumpi\n        /* \"Contracts\":8157:8158  i */\n      dup1\n        /* \"Contracts\":8141:8158  contractIndex = i */\n      swap2\n      pop\n        /* \"Contracts\":8176:8181  break */\n      jump(tag_312)\n        /* \"Contracts\":8047:8196  if(referees[referee].approvalRequestsAddresses[i] == approvalRequestAddress){... */\n    tag_318:\n        /* \"Contracts\":8029:8032  i++ */\n      dup1\n      dup1\n      tag_319\n      swap1\n      tag_171\n      jump\t// in\n    tag_319:\n      swap2\n      pop\n      pop\n        /* \"Contracts\":7955:8206  for (uint i = 0; i<=referees[referee].approvalRequestsAddresses.length-1; i++){... */\n      jump(tag_311)\n    tag_312:\n      pop\n        /* \"Contracts\":8220:8226  uint i */\n      0x00\n        /* \"Contracts\":8229:8242  contractIndex */\n      dup2\n        /* \"Contracts\":8220:8242  uint i = contractIndex */\n      swap1\n      pop\n        /* \"Contracts\":8215:8426  for (uint i = contractIndex; i<referees[referee].approvalRequestsAddresses.length-1; i++){... */\n    tag_320:\n        /* \"Contracts\":8297:8298  1 */\n      0x01\n        /* \"Contracts\":8246:8254  referees */\n      0x06\n        /* \"Contracts\":8246:8263  referees[referee] */\n      0x00\n        /* \"Contracts\":8255:8262  referee */\n      dup7\n        /* \"Contracts\":8246:8263  referees[referee] */\n      0xffffffffffffffffffffffffffffffffffffffff\n      and\n      0xffffffffffffffffffffffffffffffffffffffff\n      and\n      dup2\n      mstore\n      0x20\n      add\n      swap1\n      dup2\n      mstore\n      0x20\n      add\n      0x00\n      keccak256\n        /* \"Contracts\":8246:8289  referees[referee].approvalRequestsAddresses */\n      0x03\n      add\n        /* \"Contracts\":8246:8296  referees[referee].approvalRequestsAddresses.length */\n      dup1\n      sload\n      swap1\n      pop\n        /* \"Contracts\":8246:8298  referees[referee].approvalRequestsAddresses.length-1 */\n      tag_323\n      swap2\n      swap1\n      tag_156\n      jump\t// in\n    tag_323:\n        /* \"Contracts\":8244:8245  i */\n      dup2\n        /* \"Contracts\":8244:8298  i<referees[referee].approvalRequestsAddresses.length-1 */\n      lt\n        /* \"Contracts\":8215:8426  for (uint i = contractIndex; i<referees[referee].approvalRequestsAddresses.length-1; i++){... */\n      iszero\n      tag_321\n      jumpi\n        /* \"Contracts\":8367:8375  referees */\n      0x06\n        /* \"Contracts\":8367:8384  referees[referee] */\n      0x00\n        /* \"Contracts\":8376:8383  referee */\n      dup6\n        /* \"Contracts\":8367:8384  referees[referee] */\n      0xffffffffffffffffffffffffffffffffffffffff\n      and\n      0xffffffffffffffffffffffffffffffffffffffff\n      and\n      dup2\n      mstore\n      0x20\n      add\n      swap1\n      dup2\n      mstore\n      0x20\n      add\n      0x00\n      keccak256\n        /* \"Contracts\":8367:8410  referees[referee].approvalRequestsAddresses */\n      0x03\n      add\n        /* \"Contracts\":8413:8414  1 */\n      0x01\n        /* \"Contracts\":8411:8412  i */\n      dup3\n        /* \"Contracts\":8411:8414  i+1 */\n      tag_324\n      swap2\n      swap1\n      tag_305\n      jump\t// in\n    tag_324:\n        /* \"Contracts\":8367:8415  referees[referee].approvalRequestsAddresses[i+1] */\n      dup2\n      sload\n      dup2\n      lt\n      tag_325\n      jumpi\n      tag_326\n      tag_166\n      jump\t// in\n    tag_326:\n    tag_325:\n      swap1\n      0x00\n      mstore\n      keccak256(0x00, 0x20)\n      add\n      0x00\n      swap1\n      sload\n      swap1\n      0x0100\n      exp\n      swap1\n      div\n      0xffffffffffffffffffffffffffffffffffffffff\n      and\n        /* \"Contracts\":8318:8326  referees */\n      0x06\n        /* \"Contracts\":8318:8335  referees[referee] */\n      0x00\n        /* \"Contracts\":8327:8334  referee */\n      dup7\n        /* \"Contracts\":8318:8335  referees[referee] */\n      0xffffffffffffffffffffffffffffffffffffffff\n      and\n      0xffffffffffffffffffffffffffffffffffffffff\n      and\n      dup2\n      mstore\n      0x20\n      add\n      swap1\n      dup2\n      mstore\n      0x20\n      add\n      0x00\n      keccak256\n        /* \"Contracts\":8318:8361  referees[referee].approvalRequestsAddresses */\n      0x03\n      add\n        /* \"Contracts\":8362:8363  i */\n      dup3\n        /* \"Contracts\":8318:8364  referees[referee].approvalRequestsAddresses[i] */\n      dup2\n      sload\n      dup2\n      lt\n      tag_328\n      jumpi\n      tag_329\n      tag_166\n      jump\t// in\n    tag_329:\n    tag_328:\n      swap1\n      0x00\n      mstore\n      keccak256(0x00, 0x20)\n      add\n      0x00\n        /* \"Contracts\":8318:8415  referees[referee].approvalRequestsAddresses[i] = referees[referee].approvalRequestsAddresses[i+1] */\n      0x0100\n      exp\n      dup2\n      sload\n      dup2\n      0xffffffffffffffffffffffffffffffffffffffff\n      mul\n      not\n      and\n      swap1\n      dup4\n      0xffffffffffffffffffffffffffffffffffffffff\n      and\n      mul\n      or\n      swap1\n      sstore\n      pop\n        /* \"Contracts\":8300:8303  i++ */\n      dup1\n      dup1\n      tag_331\n      swap1\n      tag_171\n      jump\t// in\n    tag_331:\n      swap2\n      pop\n      pop\n        /* \"Contracts\":8215:8426  for (uint i = contractIndex; i<referees[referee].approvalRequestsAddresses.length-1; i++){... */\n      jump(tag_320)\n    tag_321:\n      pop\n        /* \"Contracts\":8435:8443  referees */\n      0x06\n        /* \"Contracts\":8435:8452  referees[referee] */\n      0x00\n        /* \"Contracts\":8444:8451  referee */\n      dup5\n        /* \"Contracts\":8435:8452  referees[referee] */\n      0xffffffffffffffffffffffffffffffffffffffff\n      and\n      0xffffffffffffffffffffffffffffffffffffffff\n      and\n      dup2\n      mstore\n      0x20\n      add\n      swap1\n      dup2\n      mstore\n      0x20\n      add\n      0x00\n      keccak256\n        /* \"Contracts\":8435:8478  referees[referee].approvalRequestsAddresses */\n      0x03\n      add\n        /* \"Contracts\":8435:8484  referees[referee].approvalRequestsAddresses.pop() */\n      dup1\n      sload\n      dup1\n      tag_332\n      jumpi\n      tag_333\n      tag_334\n      jump\t// in\n    tag_333:\n    tag_332:\n      0x01\n      swap1\n      sub\n      dup2\n      dup2\n      swap1\n      0x00\n      mstore\n      keccak256(0x00, 0x20)\n      add\n      exp(0x0100, 0x00)\n      dup2\n      sload\n      swap1\n      0xffffffffffffffffffffffffffffffffffffffff\n      mul\n      not\n      and\n      swap1\n      sstore\n      swap1\n      sstore\n        /* \"Contracts\":7917:8492  {... */\n      pop\n        /* \"Contracts\":7819:8492  function deleteApprovalRequestForReferee(address referee, address approvalRequestAddress) private {... */\n      pop\n      pop\n      jump\t// out\n        /* \"Contracts\":5957:6676  function moveOpenContractToClosedContractsForUser(address user, address contractAddress) private {... */\n    tag_192:\n        /* \"Contracts\":6064:6082  uint contractIndex */\n      0x00\n        /* \"Contracts\":6085:6131  getContractIndexForUser(user, contractAddress) */\n      tag_337\n        /* \"Contracts\":6109:6113  user */\n      dup4\n        /* \"Contracts\":6115:6130  contractAddress */\n      dup4\n        /* \"Contracts\":6085:6108  getContractIndexForUser */\n      tag_338\n        /* \"Contracts\":6085:6131  getContractIndexForUser(user, contractAddress) */\n      jump\t// in\n    tag_337:\n        /* \"Contracts\":6064:6131  uint contractIndex = getContractIndexForUser(user, contractAddress) */\n      swap1\n      pop\n        /* \"Contracts\":6141:6173  uint openContractAddressesLength */\n      0x00\n        /* \"Contracts\":6176:6181  users */\n      dup1\n        /* \"Contracts\":6176:6187  users[user] */\n      0x00\n        /* \"Contracts\":6182:6186  user */\n      dup6\n        /* \"Contracts\":6176:6187  users[user] */\n      0xffffffffffffffffffffffffffffffffffffffff\n      and\n      0xffffffffffffffffffffffffffffffffffffffff\n      and\n      dup2\n      mstore\n      0x20\n      add\n      swap1\n      dup2\n      mstore\n      0x20\n      add\n      0x00\n      keccak256\n        /* \"Contracts\":6176:6223  users[user].openAccountabilityContractAddresses */\n      0x01\n      add\n        /* \"Contracts\":6176:6230  users[user].openAccountabilityContractAddresses.length */\n      dup1\n      sload\n      swap1\n      pop\n        /* \"Contracts\":6141:6230  uint openContractAddressesLength = users[user].openAccountabilityContractAddresses.length */\n      swap1\n      pop\n        /* \"Contracts\":6245:6251  uint i */\n      0x00\n        /* \"Contracts\":6254:6267  contractIndex */\n      dup3\n        /* \"Contracts\":6245:6267  uint i = contractIndex */\n      swap1\n      pop\n        /* \"Contracts\":6240:6436  for (uint i = contractIndex; i<openContractAddressesLength-1; i++){... */\n    tag_339:\n        /* \"Contracts\":6299:6300  1 */\n      0x01\n        /* \"Contracts\":6271:6298  openContractAddressesLength */\n      dup3\n        /* \"Contracts\":6271:6300  openContractAddressesLength-1 */\n      tag_342\n      swap2\n      swap1\n      tag_156\n      jump\t// in\n    tag_342:\n        /* \"Contracts\":6269:6270  i */\n      dup2\n        /* \"Contracts\":6269:6300  i<openContractAddressesLength-1 */\n      lt\n        /* \"Contracts\":6240:6436  for (uint i = contractIndex; i<openContractAddressesLength-1; i++){... */\n      iszero\n      tag_340\n      jumpi\n        /* \"Contracts\":6373:6378  users */\n      0x00\n        /* \"Contracts\":6373:6384  users[user] */\n      dup1\n        /* \"Contracts\":6379:6383  user */\n      dup7\n        /* \"Contracts\":6373:6384  users[user] */\n      0xffffffffffffffffffffffffffffffffffffffff\n      and\n      0xffffffffffffffffffffffffffffffffffffffff\n      and\n      dup2\n      mstore\n      0x20\n      add\n      swap1\n      dup2\n      mstore\n      0x20\n      add\n      0x00\n      keccak256\n        /* \"Contracts\":6373:6420  users[user].openAccountabilityContractAddresses */\n      0x01\n      add\n        /* \"Contracts\":6423:6424  1 */\n      0x01\n        /* \"Contracts\":6421:6422  i */\n      dup3\n        /* \"Contracts\":6421:6424  i+1 */\n      tag_343\n      swap2\n      swap1\n      tag_305\n      jump\t// in\n    tag_343:\n        /* \"Contracts\":6373:6425  users[user].openAccountabilityContractAddresses[i+1] */\n      dup2\n      sload\n      dup2\n      lt\n      tag_344\n      jumpi\n      tag_345\n      tag_166\n      jump\t// in\n    tag_345:\n    tag_344:\n      swap1\n      0x00\n      mstore\n      keccak256(0x00, 0x20)\n      add\n      0x00\n      swap1\n      sload\n      swap1\n      0x0100\n      exp\n      swap1\n      div\n      0xffffffffffffffffffffffffffffffffffffffff\n      and\n        /* \"Contracts\":6320:6325  users */\n      0x00\n        /* \"Contracts\":6320:6331  users[user] */\n      dup1\n        /* \"Contracts\":6326:6330  user */\n      dup8\n        /* \"Contracts\":6320:6331  users[user] */\n      0xffffffffffffffffffffffffffffffffffffffff\n      and\n      0xffffffffffffffffffffffffffffffffffffffff\n      and\n      dup2\n      mstore\n      0x20\n      add\n      swap1\n      dup2\n      mstore\n      0x20\n      add\n      0x00\n      keccak256\n        /* \"Contracts\":6320:6367  users[user].openAccountabilityContractAddresses */\n      0x01\n      add\n        /* \"Contracts\":6368:6369  i */\n      dup3\n        /* \"Contracts\":6320:6370  users[user].openAccountabilityContractAddresses[i] */\n      dup2\n      sload\n      dup2\n      lt\n      tag_347\n      jumpi\n      tag_348\n      tag_166\n      jump\t// in\n    tag_348:\n    tag_347:\n      swap1\n      0x00\n      mstore\n      keccak256(0x00, 0x20)\n      add\n      0x00\n        /* \"Contracts\":6320:6425  users[user].openAccountabilityContractAddresses[i] = users[user].openAccountabilityContractAddresses[i+1] */\n      0x0100\n      exp\n      dup2\n      sload\n      dup2\n      0xffffffffffffffffffffffffffffffffffffffff\n      mul\n      not\n      and\n      swap1\n      dup4\n      0xffffffffffffffffffffffffffffffffffffffff\n      and\n      mul\n      or\n      swap1\n      sstore\n      pop\n        /* \"Contracts\":6302:6305  i++ */\n      dup1\n      dup1\n      tag_350\n      swap1\n      tag_171\n      jump\t// in\n    tag_350:\n      swap2\n      pop\n      pop\n        /* \"Contracts\":6240:6436  for (uint i = contractIndex; i<openContractAddressesLength-1; i++){... */\n      jump(tag_339)\n    tag_340:\n      pop\n        /* \"Contracts\":6445:6450  users */\n      0x00\n        /* \"Contracts\":6445:6456  users[user] */\n      dup1\n        /* \"Contracts\":6451:6455  user */\n      dup6\n        /* \"Contracts\":6445:6456  users[user] */\n      0xffffffffffffffffffffffffffffffffffffffff\n      and\n      0xffffffffffffffffffffffffffffffffffffffff\n      and\n      dup2\n      mstore\n      0x20\n      add\n      swap1\n      dup2\n      mstore\n      0x20\n      add\n      0x00\n      keccak256\n        /* \"Contracts\":6445:6494  users[user].closedAccountabilityContractAddresses */\n      0x02\n      add\n        /* \"Contracts\":6500:6505  users */\n      0x00\n        /* \"Contracts\":6500:6511  users[user] */\n      dup1\n        /* \"Contracts\":6506:6510  user */\n      dup7\n        /* \"Contracts\":6500:6511  users[user] */\n      0xffffffffffffffffffffffffffffffffffffffff\n      and\n      0xffffffffffffffffffffffffffffffffffffffff\n      and\n      dup2\n      mstore\n      0x20\n      add\n      swap1\n      dup2\n      mstore\n      0x20\n      add\n      0x00\n      keccak256\n        /* \"Contracts\":6500:6547  users[user].openAccountabilityContractAddresses */\n      0x01\n      add\n        /* \"Contracts\":6603:6604  1 */\n      0x01\n        /* \"Contracts\":6548:6553  users */\n      0x00\n        /* \"Contracts\":6548:6559  users[user] */\n      dup1\n        /* \"Contracts\":6554:6558  user */\n      dup9\n        /* \"Contracts\":6548:6559  users[user] */\n      0xffffffffffffffffffffffffffffffffffffffff\n      and\n      0xffffffffffffffffffffffffffffffffffffffff\n      and\n      dup2\n      mstore\n      0x20\n      add\n      swap1\n      dup2\n      mstore\n      0x20\n      add\n      0x00\n      keccak256\n        /* \"Contracts\":6548:6595  users[user].openAccountabilityContractAddresses */\n      0x01\n      add\n        /* \"Contracts\":6548:6602  users[user].openAccountabilityContractAddresses.length */\n      dup1\n      sload\n      swap1\n      pop\n        /* \"Contracts\":6548:6604  users[user].openAccountabilityContractAddresses.length-1 */\n      tag_351\n      swap2\n      swap1\n      tag_156\n      jump\t// in\n    tag_351:\n        /* \"Contracts\":6500:6605  users[user].openAccountabilityContractAddresses[users[user].openAccountabilityContractAddresses.length-1] */\n      dup2\n      sload\n      dup2\n      lt\n      tag_352\n      jumpi\n      tag_353\n      tag_166\n      jump\t// in\n    tag_353:\n    tag_352:\n      swap1\n      0x00\n      mstore\n      keccak256(0x00, 0x20)\n      add\n      0x00\n      swap1\n      sload\n      swap1\n      0x0100\n      exp\n      swap1\n      div\n      0xffffffffffffffffffffffffffffffffffffffff\n      and\n        /* \"Contracts\":6445:6606  users[user].closedAccountabilityContractAddresses.push(users[user].openAccountabilityContractAddresses[users[user].openAccountabilityContractAddresses.length-1]) */\n      swap1\n      dup1\n      0x01\n      dup2\n      sload\n      add\n      dup1\n      dup3\n      sstore\n      dup1\n      swap2\n      pop\n      pop\n      0x01\n      swap1\n      sub\n      swap1\n      0x00\n      mstore\n      keccak256(0x00, 0x20)\n      add\n      0x00\n      swap1\n      swap2\n      swap1\n      swap2\n      swap1\n      swap2\n      0x0100\n      exp\n      dup2\n      sload\n      dup2\n      0xffffffffffffffffffffffffffffffffffffffff\n      mul\n      not\n      and\n      swap1\n      dup4\n      0xffffffffffffffffffffffffffffffffffffffff\n      and\n      mul\n      or\n      swap1\n      sstore\n      pop\n        /* \"Contracts\":6616:6621  users */\n      0x00\n        /* \"Contracts\":6616:6627  users[user] */\n      dup1\n        /* \"Contracts\":6622:6626  user */\n      dup6\n        /* \"Contracts\":6616:6627  users[user] */\n      0xffffffffffffffffffffffffffffffffffffffff\n      and\n      0xffffffffffffffffffffffffffffffffffffffff\n      and\n      dup2\n      mstore\n      0x20\n      add\n      swap1\n      dup2\n      mstore\n      0x20\n      add\n      0x00\n      keccak256\n        /* \"Contracts\":6616:6663  users[user].openAccountabilityContractAddresses */\n      0x01\n      add\n        /* \"Contracts\":6616:6669  users[user].openAccountabilityContractAddresses.pop() */\n      dup1\n      sload\n      dup1\n      tag_356\n      jumpi\n      tag_357\n      tag_334\n      jump\t// in\n    tag_357:\n    tag_356:\n      0x01\n      swap1\n      sub\n      dup2\n      dup2\n      swap1\n      0x00\n      mstore\n      keccak256(0x00, 0x20)\n      add\n      exp(0x0100, 0x00)\n      dup2\n      sload\n      swap1\n      0xffffffffffffffffffffffffffffffffffffffff\n      mul\n      not\n      and\n      swap1\n      sstore\n      swap1\n      sstore\n        /* \"Contracts\":6054:6676  {... */\n      pop\n      pop\n        /* \"Contracts\":5957:6676  function moveOpenContractToClosedContractsForUser(address user, address contractAddress) private {... */\n      pop\n      pop\n      jump\t// out\n        /* \"Contracts\":7112:7813  function moveOpenContractToClosedContractsForReferee(address referee, address contractAddress) private {... */\n    tag_197:\n        /* \"Contracts\":7225:7243  uint contractIndex */\n      0x00\n        /* \"Contracts\":7246:7298  getContractIndexForReferee(referee, contractAddress) */\n      tag_360\n        /* \"Contracts\":7273:7280  referee */\n      dup4\n        /* \"Contracts\":7282:7297  contractAddress */\n      dup4\n        /* \"Contracts\":7246:7272  getContractIndexForReferee */\n      tag_361\n        /* \"Contracts\":7246:7298  getContractIndexForReferee(referee, contractAddress) */\n      jump\t// in\n    tag_360:\n        /* \"Contracts\":7225:7298  uint contractIndex = getContractIndexForReferee(referee, contractAddress) */\n      swap1\n      pop\n        /* \"Contracts\":7313:7319  uint i */\n      0x00\n        /* \"Contracts\":7322:7335  contractIndex */\n      dup2\n        /* \"Contracts\":7313:7335  uint i = contractIndex */\n      swap1\n      pop\n        /* \"Contracts\":7308:7549  for (uint i = contractIndex; i<referees[referee].openAccountabilityContractAddresses.length-1; i++){... */\n    tag_362:\n        /* \"Contracts\":7400:7401  1 */\n      0x01\n        /* \"Contracts\":7339:7347  referees */\n      0x06\n        /* \"Contracts\":7339:7356  referees[referee] */\n      0x00\n        /* \"Contracts\":7348:7355  referee */\n      dup7\n        /* \"Contracts\":7339:7356  referees[referee] */\n      0xffffffffffffffffffffffffffffffffffffffff\n      and\n      0xffffffffffffffffffffffffffffffffffffffff\n      and\n      dup2\n      mstore\n      0x20\n      add\n      swap1\n      dup2\n      mstore\n      0x20\n      add\n      0x00\n      keccak256\n        /* \"Contracts\":7339:7392  referees[referee].openAccountabilityContractAddresses */\n      0x01\n      add\n        /* \"Contracts\":7339:7399  referees[referee].openAccountabilityContractAddresses.length */\n      dup1\n      sload\n      swap1\n      pop\n        /* \"Contracts\":7339:7401  referees[referee].openAccountabilityContractAddresses.length-1 */\n      tag_365\n      swap2\n      swap1\n      tag_156\n      jump\t// in\n    tag_365:\n        /* \"Contracts\":7337:7338  i */\n      dup2\n        /* \"Contracts\":7337:7401  i<referees[referee].openAccountabilityContractAddresses.length-1 */\n      lt\n        /* \"Contracts\":7308:7549  for (uint i = contractIndex; i<referees[referee].openAccountabilityContractAddresses.length-1; i++){... */\n      iszero\n      tag_363\n      jumpi\n        /* \"Contracts\":7480:7488  referees */\n      0x06\n        /* \"Contracts\":7480:7497  referees[referee] */\n      0x00\n        /* \"Contracts\":7489:7496  referee */\n      dup6\n        /* \"Contracts\":7480:7497  referees[referee] */\n      0xffffffffffffffffffffffffffffffffffffffff\n      and\n      0xffffffffffffffffffffffffffffffffffffffff\n      and\n      dup2\n      mstore\n      0x20\n      add\n      swap1\n      dup2\n      mstore\n      0x20\n      add\n      0x00\n      keccak256\n        /* \"Contracts\":7480:7533  referees[referee].openAccountabilityContractAddresses */\n      0x01\n      add\n        /* \"Contracts\":7536:7537  1 */\n      0x01\n        /* \"Contracts\":7534:7535  i */\n      dup3\n        /* \"Contracts\":7534:7537  i+1 */\n      tag_366\n      swap2\n      swap1\n      tag_305\n      jump\t// in\n    tag_366:\n        /* \"Contracts\":7480:7538  referees[referee].openAccountabilityContractAddresses[i+1] */\n      dup2\n      sload\n      dup2\n      lt\n      tag_367\n      jumpi\n      tag_368\n      tag_166\n      jump\t// in\n    tag_368:\n    tag_367:\n      swap1\n      0x00\n      mstore\n      keccak256(0x00, 0x20)\n      add\n      0x00\n      swap1\n      sload\n      swap1\n      0x0100\n      exp\n      swap1\n      div\n      0xffffffffffffffffffffffffffffffffffffffff\n      and\n        /* \"Contracts\":7421:7429  referees */\n      0x06\n        /* \"Contracts\":7421:7438  referees[referee] */\n      0x00\n        /* \"Contracts\":7430:7437  referee */\n      dup7\n        /* \"Contracts\":7421:7438  referees[referee] */\n      0xffffffffffffffffffffffffffffffffffffffff\n      and\n      0xffffffffffffffffffffffffffffffffffffffff\n      and\n      dup2\n      mstore\n      0x20\n      add\n      swap1\n      dup2\n      mstore\n      0x20\n      add\n      0x00\n      keccak256\n        /* \"Contracts\":7421:7474  referees[referee].openAccountabilityContractAddresses */\n      0x01\n      add\n        /* \"Contracts\":7475:7476  i */\n      dup3\n        /* \"Contracts\":7421:7477  referees[referee].openAccountabilityContractAddresses[i] */\n      dup2\n      sload\n      dup2\n      lt\n      tag_370\n      jumpi\n      tag_371\n      tag_166\n      jump\t// in\n    tag_371:\n    tag_370:\n      swap1\n      0x00\n      mstore\n      keccak256(0x00, 0x20)\n      add\n      0x00\n        /* \"Contracts\":7421:7538  referees[referee].openAccountabilityContractAddresses[i] = referees[referee].openAccountabilityContractAddresses[i+1] */\n      0x0100\n      exp\n      dup2\n      sload\n      dup2\n      0xffffffffffffffffffffffffffffffffffffffff\n      mul\n      not\n      and\n      swap1\n      dup4\n      0xffffffffffffffffffffffffffffffffffffffff\n      and\n      mul\n      or\n      swap1\n      sstore\n      pop\n        /* \"Contracts\":7403:7406  i++ */\n      dup1\n      dup1\n      tag_373\n      swap1\n      tag_171\n      jump\t// in\n    tag_373:\n      swap2\n      pop\n      pop\n        /* \"Contracts\":7308:7549  for (uint i = contractIndex; i<referees[referee].openAccountabilityContractAddresses.length-1; i++){... */\n      jump(tag_362)\n    tag_363:\n      pop\n        /* \"Contracts\":7558:7566  referees */\n      0x06\n        /* \"Contracts\":7558:7575  referees[referee] */\n      0x00\n        /* \"Contracts\":7567:7574  referee */\n      dup5\n        /* \"Contracts\":7558:7575  referees[referee] */\n      0xffffffffffffffffffffffffffffffffffffffff\n      and\n      0xffffffffffffffffffffffffffffffffffffffff\n      and\n      dup2\n      mstore\n      0x20\n      add\n      swap1\n      dup2\n      mstore\n      0x20\n      add\n      0x00\n      keccak256\n        /* \"Contracts\":7558:7613  referees[referee].closedAccountabilityContractAddresses */\n      0x02\n      add\n        /* \"Contracts\":7619:7627  referees */\n      0x06\n        /* \"Contracts\":7619:7636  referees[referee] */\n      0x00\n        /* \"Contracts\":7628:7635  referee */\n      dup6\n        /* \"Contracts\":7619:7636  referees[referee] */\n      0xffffffffffffffffffffffffffffffffffffffff\n      and\n      0xffffffffffffffffffffffffffffffffffffffff\n      and\n      dup2\n      mstore\n      0x20\n      add\n      swap1\n      dup2\n      mstore\n      0x20\n      add\n      0x00\n      keccak256\n        /* \"Contracts\":7619:7672  referees[referee].openAccountabilityContractAddresses */\n      0x01\n      add\n        /* \"Contracts\":7734:7735  1 */\n      0x01\n        /* \"Contracts\":7673:7681  referees */\n      0x06\n        /* \"Contracts\":7673:7690  referees[referee] */\n      0x00\n        /* \"Contracts\":7682:7689  referee */\n      dup8\n        /* \"Contracts\":7673:7690  referees[referee] */\n      0xffffffffffffffffffffffffffffffffffffffff\n      and\n      0xffffffffffffffffffffffffffffffffffffffff\n      and\n      dup2\n      mstore\n      0x20\n      add\n      swap1\n      dup2\n      mstore\n      0x20\n      add\n      0x00\n      keccak256\n        /* \"Contracts\":7673:7726  referees[referee].openAccountabilityContractAddresses */\n      0x01\n      add\n        /* \"Contracts\":7673:7733  referees[referee].openAccountabilityContractAddresses.length */\n      dup1\n      sload\n      swap1\n      pop\n        /* \"Contracts\":7673:7735  referees[referee].openAccountabilityContractAddresses.length-1 */\n      tag_374\n      swap2\n      swap1\n      tag_156\n      jump\t// in\n    tag_374:\n        /* \"Contracts\":7619:7736  referees[referee].openAccountabilityContractAddresses[referees[referee].openAccountabilityContractAddresses.length-1] */\n      dup2\n      sload\n      dup2\n      lt\n      tag_375\n      jumpi\n      tag_376\n      tag_166\n      jump\t// in\n    tag_376:\n    tag_375:\n      swap1\n      0x00\n      mstore\n      keccak256(0x00, 0x20)\n      add\n      0x00\n      swap1\n      sload\n      swap1\n      0x0100\n      exp\n      swap1\n      div\n      0xffffffffffffffffffffffffffffffffffffffff\n      and\n        /* \"Contracts\":7558:7737  referees[referee].closedAccountabilityContractAddresses.push(referees[referee].openAccountabilityContractAddresses[referees[referee].openAccountabilityContractAddresses.length-1]) */\n      swap1\n      dup1\n      0x01\n      dup2\n      sload\n      add\n      dup1\n      dup3\n      sstore\n      dup1\n      swap2\n      pop\n      pop\n      0x01\n      swap1\n      sub\n      swap1\n      0x00\n      mstore\n      keccak256(0x00, 0x20)\n      add\n      0x00\n      swap1\n      swap2\n      swap1\n      swap2\n      swap1\n      swap2\n      0x0100\n      exp\n      dup2\n      sload\n      dup2\n      0xffffffffffffffffffffffffffffffffffffffff\n      mul\n      not\n      and\n      swap1\n      dup4\n      0xffffffffffffffffffffffffffffffffffffffff\n      and\n      mul\n      or\n      swap1\n      sstore\n      pop\n        /* \"Contracts\":7747:7755  referees */\n      0x06\n        /* \"Contracts\":7747:7764  referees[referee] */\n      0x00\n        /* \"Contracts\":7756:7763  referee */\n      dup5\n        /* \"Contracts\":7747:7764  referees[referee] */\n      0xffffffffffffffffffffffffffffffffffffffff\n      and\n      0xffffffffffffffffffffffffffffffffffffffff\n      and\n      dup2\n      mstore\n      0x20\n      add\n      swap1\n      dup2\n      mstore\n      0x20\n      add\n      0x00\n      keccak256\n        /* \"Contracts\":7747:7800  referees[referee].openAccountabilityContractAddresses */\n      0x01\n      add\n        /* \"Contracts\":7747:7806  referees[referee].openAccountabilityContractAddresses.pop() */\n      dup1\n      sload\n      dup1\n      tag_379\n      jumpi\n      tag_380\n      tag_334\n      jump\t// in\n    tag_380:\n    tag_379:\n      0x01\n      swap1\n      sub\n      dup2\n      dup2\n      swap1\n      0x00\n      mstore\n      keccak256(0x00, 0x20)\n      add\n      exp(0x0100, 0x00)\n      dup2\n      sload\n      swap1\n      0xffffffffffffffffffffffffffffffffffffffff\n      mul\n      not\n      and\n      swap1\n      sstore\n      swap1\n      sstore\n        /* \"Contracts\":7215:7813  {... */\n      pop\n        /* \"Contracts\":7112:7813  function moveOpenContractToClosedContractsForReferee(address referee, address contractAddress) private {... */\n      pop\n      pop\n      jump\t// out\n        /* \"Contracts\":5545:5951  function getContractIndexForUser(address user, address contractAddress) view private returns (uint){... */\n    tag_338:\n        /* \"Contracts\":5639:5643  uint */\n      0x00\n        /* \"Contracts\":5654:5672  uint contractIndex */\n      dup1\n        /* \"Contracts\":5687:5693  uint i */\n      0x00\n        /* \"Contracts\":5682:5915  for (uint i = 0; i<=users[user].openAccountabilityContractAddresses.length-1; i++){... */\n    tag_383:\n        /* \"Contracts\":5757:5758  1 */\n      0x01\n        /* \"Contracts\":5702:5707  users */\n      0x00\n        /* \"Contracts\":5702:5713  users[user] */\n      dup1\n        /* \"Contracts\":5708:5712  user */\n      dup8\n        /* \"Contracts\":5702:5713  users[user] */\n      0xffffffffffffffffffffffffffffffffffffffff\n      and\n      0xffffffffffffffffffffffffffffffffffffffff\n      and\n      dup2\n      mstore\n      0x20\n      add\n      swap1\n      dup2\n      mstore\n      0x20\n      add\n      0x00\n      keccak256\n        /* \"Contracts\":5702:5749  users[user].openAccountabilityContractAddresses */\n      0x01\n      add\n        /* \"Contracts\":5702:5756  users[user].openAccountabilityContractAddresses.length */\n      dup1\n      sload\n      swap1\n      pop\n        /* \"Contracts\":5702:5758  users[user].openAccountabilityContractAddresses.length-1 */\n      tag_386\n      swap2\n      swap1\n      tag_156\n      jump\t// in\n    tag_386:\n        /* \"Contracts\":5699:5700  i */\n      dup2\n        /* \"Contracts\":5699:5758  i<=users[user].openAccountabilityContractAddresses.length-1 */\n      gt\n        /* \"Contracts\":5682:5915  for (uint i = 0; i<=users[user].openAccountabilityContractAddresses.length-1; i++){... */\n      tag_384\n      jumpi\n        /* \"Contracts\":5835:5850  contractAddress */\n      dup4\n        /* \"Contracts\":5781:5850  users[user].openAccountabilityContractAddresses[i] == contractAddress */\n      0xffffffffffffffffffffffffffffffffffffffff\n      and\n        /* \"Contracts\":5781:5786  users */\n      0x00\n        /* \"Contracts\":5781:5792  users[user] */\n      dup1\n        /* \"Contracts\":5787:5791  user */\n      dup8\n        /* \"Contracts\":5781:5792  users[user] */\n      0xffffffffffffffffffffffffffffffffffffffff\n      and\n      0xffffffffffffffffffffffffffffffffffffffff\n      and\n      dup2\n      mstore\n      0x20\n      add\n      swap1\n      dup2\n      mstore\n      0x20\n      add\n      0x00\n      keccak256\n        /* \"Contracts\":5781:5828  users[user].openAccountabilityContractAddresses */\n      0x01\n      add\n        /* \"Contracts\":5829:5830  i */\n      dup3\n        /* \"Contracts\":5781:5831  users[user].openAccountabilityContractAddresses[i] */\n      dup2\n      sload\n      dup2\n      lt\n      tag_387\n      jumpi\n      tag_388\n      tag_166\n      jump\t// in\n    tag_388:\n    tag_387:\n      swap1\n      0x00\n      mstore\n      keccak256(0x00, 0x20)\n      add\n      0x00\n      swap1\n      sload\n      swap1\n      0x0100\n      exp\n      swap1\n      div\n      0xffffffffffffffffffffffffffffffffffffffff\n      and\n        /* \"Contracts\":5781:5850  users[user].openAccountabilityContractAddresses[i] == contractAddress */\n      0xffffffffffffffffffffffffffffffffffffffff\n      and\n      eq\n        /* \"Contracts\":5778:5905  if(users[user].openAccountabilityContractAddresses[i] == contractAddress){... */\n      iszero\n      tag_390\n      jumpi\n        /* \"Contracts\":5885:5886  i */\n      dup1\n        /* \"Contracts\":5869:5886  contractIndex = i */\n      swap2\n      pop\n        /* \"Contracts\":5778:5905  if(users[user].openAccountabilityContractAddresses[i] == contractAddress){... */\n    tag_390:\n        /* \"Contracts\":5760:5763  i++ */\n      dup1\n      dup1\n      tag_391\n      swap1\n      tag_171\n      jump\t// in\n    tag_391:\n      swap2\n      pop\n      pop\n        /* \"Contracts\":5682:5915  for (uint i = 0; i<=users[user].openAccountabilityContractAddresses.length-1; i++){... */\n      jump(tag_383)\n    tag_384:\n      pop\n        /* \"Contracts\":5931:5944  contractIndex */\n      dup1\n        /* \"Contracts\":5924:5944  return contractIndex */\n      swap2\n      pop\n      pop\n        /* \"Contracts\":5545:5951  function getContractIndexForUser(address user, address contractAddress) view private returns (uint){... */\n      swap3\n      swap2\n      pop\n      pop\n      jump\t// out\n        /* \"Contracts\":6684:7105  function getContractIndexForReferee(address referee, address contractAddress) view private returns (uint){... */\n    tag_361:\n        /* \"Contracts\":6784:6788  uint */\n      0x00\n        /* \"Contracts\":6799:6817  uint contractIndex */\n      dup1\n        /* \"Contracts\":6832:6838  uint i */\n      0x00\n        /* \"Contracts\":6827:7069  for (uint i = 0; i<=referees[referee].openAccountabilityContractAddresses.length-1; i++){... */\n    tag_393:\n        /* \"Contracts\":6908:6909  1 */\n      0x01\n        /* \"Contracts\":6847:6855  referees */\n      0x06\n        /* \"Contracts\":6847:6864  referees[referee] */\n      0x00\n        /* \"Contracts\":6856:6863  referee */\n      dup8\n        /* \"Contracts\":6847:6864  referees[referee] */\n      0xffffffffffffffffffffffffffffffffffffffff\n      and\n      0xffffffffffffffffffffffffffffffffffffffff\n      and\n      dup2\n      mstore\n      0x20\n      add\n      swap1\n      dup2\n      mstore\n      0x20\n      add\n      0x00\n      keccak256\n        /* \"Contracts\":6847:6900  referees[referee].openAccountabilityContractAddresses */\n      0x01\n      add\n        /* \"Contracts\":6847:6907  referees[referee].openAccountabilityContractAddresses.length */\n      dup1\n      sload\n      swap1\n      pop\n        /* \"Contracts\":6847:6909  referees[referee].openAccountabilityContractAddresses.length-1 */\n      tag_396\n      swap2\n      swap1\n      tag_156\n      jump\t// in\n    tag_396:\n        /* \"Contracts\":6844:6845  i */\n      dup2\n        /* \"Contracts\":6844:6909  i<=referees[referee].openAccountabilityContractAddresses.length-1 */\n      gt\n        /* \"Contracts\":6827:7069  for (uint i = 0; i<=referees[referee].openAccountabilityContractAddresses.length-1; i++){... */\n      tag_394\n      jumpi\n        /* \"Contracts\":6992:7007  contractAddress */\n      dup4\n        /* \"Contracts\":6932:7007  referees[referee].openAccountabilityContractAddresses[i] == contractAddress */\n      0xffffffffffffffffffffffffffffffffffffffff\n      and\n        /* \"Contracts\":6932:6940  referees */\n      0x06\n        /* \"Contracts\":6932:6949  referees[referee] */\n      0x00\n        /* \"Contracts\":6941:6948  referee */\n      dup8\n        /* \"Contracts\":6932:6949  referees[referee] */\n      0xffffffffffffffffffffffffffffffffffffffff\n      and\n      0xffffffffffffffffffffffffffffffffffffffff\n      and\n      dup2\n      mstore\n      0x20\n      add\n      swap1\n      dup2\n      mstore\n      0x20\n      add\n      0x00\n      keccak256\n        /* \"Contracts\":6932:6985  referees[referee].openAccountabilityContractAddresses */\n      0x01\n      add\n        /* \"Contracts\":6986:6987  i */\n      dup3\n        /* \"Contracts\":6932:6988  referees[referee].openAccountabilityContractAddresses[i] */\n      dup2\n      sload\n      dup2\n      lt\n      tag_397\n      jumpi\n      tag_398\n      tag_166\n      jump\t// in\n    tag_398:\n    tag_397:\n      swap1\n      0x00\n      mstore\n      keccak256(0x00, 0x20)\n      add\n      0x00\n      swap1\n      sload\n      swap1\n      0x0100\n      exp\n      swap1\n      div\n      0xffffffffffffffffffffffffffffffffffffffff\n      and\n        /* \"Contracts\":6932:7007  referees[referee].openAccountabilityContractAddresses[i] == contractAddress */\n      0xffffffffffffffffffffffffffffffffffffffff\n      and\n      eq\n        /* \"Contracts\":6929:7059  if(referees[referee].openAccountabilityContractAddresses[i] == contractAddress){... */\n      iszero\n      tag_400\n      jumpi\n        /* \"Contracts\":7043:7044  i */\n      dup1\n        /* \"Contracts\":7027:7044  contractIndex = i */\n      swap2\n      pop\n        /* \"Contracts\":6929:7059  if(referees[referee].openAccountabilityContractAddresses[i] == contractAddress){... */\n    tag_400:\n        /* \"Contracts\":6911:6914  i++ */\n      dup1\n      dup1\n      tag_401\n      swap1\n      tag_171\n      jump\t// in\n    tag_401:\n      swap2\n      pop\n      pop\n        /* \"Contracts\":6827:7069  for (uint i = 0; i<=referees[referee].openAccountabilityContractAddresses.length-1; i++){... */\n      jump(tag_393)\n    tag_394:\n      pop\n        /* \"Contracts\":7085:7098  contractIndex */\n      dup1\n        /* \"Contracts\":7078:7098  return contractIndex */\n      swap2\n      pop\n      pop\n        /* \"Contracts\":6684:7105  function getContractIndexForReferee(address referee, address contractAddress) view private returns (uint){... */\n      swap3\n      swap2\n      pop\n      pop\n      jump\t// out\n    tag_280:\n      dataSize(sub_0)\n      dup1\n      dataOffset(sub_0)\n      dup4\n      codecopy\n      add\n      swap1\n      jump\t// out\n    tag_298:\n      dataSize(sub_1)\n      dup1\n      dataOffset(sub_1)\n      dup4\n      codecopy\n      add\n      swap1\n      jump\t// out\n        /* \"#utility.yul\":7:82   */\n    tag_402:\n        /* \"#utility.yul\":40:46   */\n      0x00\n        /* \"#utility.yul\":73:75   */\n      0x40\n        /* \"#utility.yul\":67:76   */\n      mload\n        /* \"#utility.yul\":57:76   */\n      swap1\n      pop\n        /* \"#utility.yul\":7:82   */\n      swap1\n      jump\t// out\n        /* \"#utility.yul\":88:205   */\n    tag_403:\n        /* \"#utility.yul\":197:198   */\n      0x00\n        /* \"#utility.yul\":194:195   */\n      dup1\n        /* \"#utility.yul\":187:199   */\n      revert\n        /* \"#utility.yul\":211:328   */\n    tag_404:\n        /* \"#utility.yul\":320:321   */\n      0x00\n        /* \"#utility.yul\":317:318   */\n      dup1\n        /* \"#utility.yul\":310:322   */\n      revert\n        /* \"#utility.yul\":334:460   */\n    tag_405:\n        /* \"#utility.yul\":371:378   */\n      0x00\n        /* \"#utility.yul\":411:453   */\n      0xffffffffffffffffffffffffffffffffffffffff\n        /* \"#utility.yul\":404:409   */\n      dup3\n        /* \"#utility.yul\":400:454   */\n      and\n        /* \"#utility.yul\":389:454   */\n      swap1\n      pop\n        /* \"#utility.yul\":334:460   */\n      swap2\n      swap1\n      pop\n      jump\t// out\n        /* \"#utility.yul\":466:562   */\n    tag_406:\n        /* \"#utility.yul\":503:510   */\n      0x00\n        /* \"#utility.yul\":532:556   */\n      tag_465\n        /* \"#utility.yul\":550:555   */\n      dup3\n        /* \"#utility.yul\":532:556   */\n      tag_405\n      jump\t// in\n    tag_465:\n        /* \"#utility.yul\":521:556   */\n      swap1\n      pop\n        /* \"#utility.yul\":466:562   */\n      swap2\n      swap1\n      pop\n      jump\t// out\n        /* \"#utility.yul\":568:690   */\n    tag_407:\n        /* \"#utility.yul\":641:665   */\n      tag_467\n        /* \"#utility.yul\":659:664   */\n      dup2\n        /* \"#utility.yul\":641:665   */\n      tag_406\n      jump\t// in\n    tag_467:\n        /* \"#utility.yul\":634:639   */\n      dup2\n        /* \"#utility.yul\":631:666   */\n      eq\n        /* \"#utility.yul\":621:684   */\n      tag_468\n      jumpi\n        /* \"#utility.yul\":680:681   */\n      0x00\n        /* \"#utility.yul\":677:678   */\n      dup1\n        /* \"#utility.yul\":670:682   */\n      revert\n        /* \"#utility.yul\":621:684   */\n    tag_468:\n        /* \"#utility.yul\":568:690   */\n      pop\n      jump\t// out\n        /* \"#utility.yul\":696:835   */\n    tag_408:\n        /* \"#utility.yul\":742:747   */\n      0x00\n        /* \"#utility.yul\":780:786   */\n      dup2\n        /* \"#utility.yul\":767:787   */\n      calldataload\n        /* \"#utility.yul\":758:787   */\n      swap1\n      pop\n        /* \"#utility.yul\":796:829   */\n      tag_470\n        /* \"#utility.yul\":823:828   */\n      dup2\n        /* \"#utility.yul\":796:829   */\n      tag_407\n      jump\t// in\n    tag_470:\n        /* \"#utility.yul\":696:835   */\n      swap3\n      swap2\n      pop\n      pop\n      jump\t// out\n        /* \"#utility.yul\":841:1170   */\n    tag_30:\n        /* \"#utility.yul\":900:906   */\n      0x00\n        /* \"#utility.yul\":949:951   */\n      0x20\n        /* \"#utility.yul\":937:946   */\n      dup3\n        /* \"#utility.yul\":928:935   */\n      dup5\n        /* \"#utility.yul\":924:947   */\n      sub\n        /* \"#utility.yul\":920:952   */\n      slt\n        /* \"#utility.yul\":917:1036   */\n      iszero\n      tag_472\n      jumpi\n        /* \"#utility.yul\":955:1034   */\n      tag_473\n      tag_403\n      jump\t// in\n    tag_473:\n        /* \"#utility.yul\":917:1036   */\n    tag_472:\n        /* \"#utility.yul\":1075:1076   */\n      0x00\n        /* \"#utility.yul\":1100:1153   */\n      tag_474\n        /* \"#utility.yul\":1145:1152   */\n      dup5\n        /* \"#utility.yul\":1136:1142   */\n      dup3\n        /* \"#utility.yul\":1125:1134   */\n      dup6\n        /* \"#utility.yul\":1121:1143   */\n      add\n        /* \"#utility.yul\":1100:1153   */\n      tag_408\n      jump\t// in\n    tag_474:\n        /* \"#utility.yul\":1090:1153   */\n      swap2\n      pop\n        /* \"#utility.yul\":1046:1163   */\n      pop\n        /* \"#utility.yul\":841:1170   */\n      swap3\n      swap2\n      pop\n      pop\n      jump\t// out\n        /* \"#utility.yul\":1176:1253   */\n    tag_409:\n        /* \"#utility.yul\":1213:1220   */\n      0x00\n        /* \"#utility.yul\":1242:1247   */\n      dup2\n        /* \"#utility.yul\":1231:1247   */\n      swap1\n      pop\n        /* \"#utility.yul\":1176:1253   */\n      swap2\n      swap1\n      pop\n      jump\t// out\n        /* \"#utility.yul\":1259:1381   */\n    tag_410:\n        /* \"#utility.yul\":1332:1356   */\n      tag_477\n        /* \"#utility.yul\":1350:1355   */\n      dup2\n        /* \"#utility.yul\":1332:1356   */\n      tag_409\n      jump\t// in\n    tag_477:\n        /* \"#utility.yul\":1325:1330   */\n      dup2\n        /* \"#utility.yul\":1322:1357   */\n      eq\n        /* \"#utility.yul\":1312:1375   */\n      tag_478\n      jumpi\n        /* \"#utility.yul\":1371:1372   */\n      0x00\n        /* \"#utility.yul\":1368:1369   */\n      dup1\n        /* \"#utility.yul\":1361:1373   */\n      revert\n        /* \"#utility.yul\":1312:1375   */\n    tag_478:\n        /* \"#utility.yul\":1259:1381   */\n      pop\n      jump\t// out\n        /* \"#utility.yul\":1387:1526   */\n    tag_411:\n        /* \"#utility.yul\":1433:1438   */\n      0x00\n        /* \"#utility.yul\":1471:1477   */\n      dup2\n        /* \"#utility.yul\":1458:1478   */\n      calldataload\n        /* \"#utility.yul\":1449:1478   */\n      swap1\n      pop\n        /* \"#utility.yul\":1487:1520   */\n      tag_480\n        /* \"#utility.yul\":1514:1519   */\n      dup2\n        /* \"#utility.yul\":1487:1520   */\n      tag_410\n      jump\t// in\n    tag_480:\n        /* \"#utility.yul\":1387:1526   */\n      swap3\n      swap2\n      pop\n      pop\n      jump\t// out\n        /* \"#utility.yul\":1532:2006   */\n    tag_35:\n        /* \"#utility.yul\":1600:1606   */\n      0x00\n        /* \"#utility.yul\":1608:1614   */\n      dup1\n        /* \"#utility.yul\":1657:1659   */\n      0x40\n        /* \"#utility.yul\":1645:1654   */\n      dup4\n        /* \"#utility.yul\":1636:1643   */\n      dup6\n        /* \"#utility.yul\":1632:1655   */\n      sub\n        /* \"#utility.yul\":1628:1660   */\n      slt\n        /* \"#utility.yul\":1625:1744   */\n      iszero\n      tag_482\n      jumpi\n        /* \"#utility.yul\":1663:1742   */\n      tag_483\n      tag_403\n      jump\t// in\n    tag_483:\n        /* \"#utility.yul\":1625:1744   */\n    tag_482:\n        /* \"#utility.yul\":1783:1784   */\n      0x00\n        /* \"#utility.yul\":1808:1861   */\n      tag_484\n        /* \"#utility.yul\":1853:1860   */\n      dup6\n        /* \"#utility.yul\":1844:1850   */\n      dup3\n        /* \"#utility.yul\":1833:1842   */\n      dup7\n        /* \"#utility.yul\":1829:1851   */\n      add\n        /* \"#utility.yul\":1808:1861   */\n      tag_411\n      jump\t// in\n    tag_484:\n        /* \"#utility.yul\":1798:1861   */\n      swap3\n      pop\n        /* \"#utility.yul\":1754:1871   */\n      pop\n        /* \"#utility.yul\":1910:1912   */\n      0x20\n        /* \"#utility.yul\":1936:1989   */\n      tag_485\n        /* \"#utility.yul\":1981:1988   */\n      dup6\n        /* \"#utility.yul\":1972:1978   */\n      dup3\n        /* \"#utility.yul\":1961:1970   */\n      dup7\n        /* \"#utility.yul\":1957:1979   */\n      add\n        /* \"#utility.yul\":1936:1989   */\n      tag_411\n      jump\t// in\n    tag_485:\n        /* \"#utility.yul\":1926:1989   */\n      swap2\n      pop\n        /* \"#utility.yul\":1881:1999   */\n      pop\n        /* \"#utility.yul\":1532:2006   */\n      swap3\n      pop\n      swap3\n      swap1\n      pop\n      jump\t// out\n        /* \"#utility.yul\":2012:2126   */\n    tag_412:\n        /* \"#utility.yul\":2079:2085   */\n      0x00\n        /* \"#utility.yul\":2113:2118   */\n      dup2\n        /* \"#utility.yul\":2107:2119   */\n      mload\n        /* \"#utility.yul\":2097:2119   */\n      swap1\n      pop\n        /* \"#utility.yul\":2012:2126   */\n      swap2\n      swap1\n      pop\n      jump\t// out\n        /* \"#utility.yul\":2132:2316   */\n    tag_413:\n        /* \"#utility.yul\":2231:2242   */\n      0x00\n        /* \"#utility.yul\":2265:2271   */\n      dup3\n        /* \"#utility.yul\":2260:2263   */\n      dup3\n        /* \"#utility.yul\":2253:2272   */\n      mstore\n        /* \"#utility.yul\":2305:2309   */\n      0x20\n        /* \"#utility.yul\":2300:2303   */\n      dup3\n        /* \"#utility.yul\":2296:2310   */\n      add\n        /* \"#utility.yul\":2281:2310   */\n      swap1\n      pop\n        /* \"#utility.yul\":2132:2316   */\n      swap3\n      swap2\n      pop\n      pop\n      jump\t// out\n        /* \"#utility.yul\":2322:2454   */\n    tag_414:\n        /* \"#utility.yul\":2389:2393   */\n      0x00\n        /* \"#utility.yul\":2412:2415   */\n      dup2\n        /* \"#utility.yul\":2404:2415   */\n      swap1\n      pop\n        /* \"#utility.yul\":2442:2446   */\n      0x20\n        /* \"#utility.yul\":2437:2440   */\n      dup3\n        /* \"#utility.yul\":2433:2447   */\n      add\n        /* \"#utility.yul\":2425:2447   */\n      swap1\n      pop\n        /* \"#utility.yul\":2322:2454   */\n      swap2\n      swap1\n      pop\n      jump\t// out\n        /* \"#utility.yul\":2460:2568   */\n    tag_415:\n        /* \"#utility.yul\":2537:2561   */\n      tag_490\n        /* \"#utility.yul\":2555:2560   */\n      dup2\n        /* \"#utility.yul\":2537:2561   */\n      tag_406\n      jump\t// in\n    tag_490:\n        /* \"#utility.yul\":2532:2535   */\n      dup3\n        /* \"#utility.yul\":2525:2562   */\n      mstore\n        /* \"#utility.yul\":2460:2568   */\n      pop\n      pop\n      jump\t// out\n        /* \"#utility.yul\":2574:2753   */\n    tag_416:\n        /* \"#utility.yul\":2643:2653   */\n      0x00\n        /* \"#utility.yul\":2664:2710   */\n      tag_492\n        /* \"#utility.yul\":2706:2709   */\n      dup4\n        /* \"#utility.yul\":2698:2704   */\n      dup4\n        /* \"#utility.yul\":2664:2710   */\n      tag_415\n      jump\t// in\n    tag_492:\n        /* \"#utility.yul\":2742:2746   */\n      0x20\n        /* \"#utility.yul\":2737:2740   */\n      dup4\n        /* \"#utility.yul\":2733:2747   */\n      add\n        /* \"#utility.yul\":2719:2747   */\n      swap1\n      pop\n        /* \"#utility.yul\":2574:2753   */\n      swap3\n      swap2\n      pop\n      pop\n      jump\t// out\n        /* \"#utility.yul\":2759:2872   */\n    tag_417:\n        /* \"#utility.yul\":2829:2833   */\n      0x00\n        /* \"#utility.yul\":2861:2865   */\n      0x20\n        /* \"#utility.yul\":2856:2859   */\n      dup3\n        /* \"#utility.yul\":2852:2866   */\n      add\n        /* \"#utility.yul\":2844:2866   */\n      swap1\n      pop\n        /* \"#utility.yul\":2759:2872   */\n      swap2\n      swap1\n      pop\n      jump\t// out\n        /* \"#utility.yul\":2908:3640   */\n    tag_418:\n        /* \"#utility.yul\":3027:3030   */\n      0x00\n        /* \"#utility.yul\":3056:3110   */\n      tag_495\n        /* \"#utility.yul\":3104:3109   */\n      dup3\n        /* \"#utility.yul\":3056:3110   */\n      tag_412\n      jump\t// in\n    tag_495:\n        /* \"#utility.yul\":3126:3212   */\n      tag_496\n        /* \"#utility.yul\":3205:3211   */\n      dup2\n        /* \"#utility.yul\":3200:3203   */\n      dup6\n        /* \"#utility.yul\":3126:3212   */\n      tag_413\n      jump\t// in\n    tag_496:\n        /* \"#utility.yul\":3119:3212   */\n      swap4\n      pop\n        /* \"#utility.yul\":3236:3292   */\n      tag_497\n        /* \"#utility.yul\":3286:3291   */\n      dup4\n        /* \"#utility.yul\":3236:3292   */\n      tag_414\n      jump\t// in\n    tag_497:\n        /* \"#utility.yul\":3315:3322   */\n      dup1\n        /* \"#utility.yul\":3346:3347   */\n      0x00\n        /* \"#utility.yul\":3331:3615   */\n    tag_498:\n        /* \"#utility.yul\":3356:3362   */\n      dup4\n        /* \"#utility.yul\":3353:3354   */\n      dup2\n        /* \"#utility.yul\":3350:3363   */\n      lt\n        /* \"#utility.yul\":3331:3615   */\n      iszero\n      tag_500\n      jumpi\n        /* \"#utility.yul\":3432:3438   */\n      dup2\n        /* \"#utility.yul\":3426:3439   */\n      mload\n        /* \"#utility.yul\":3459:3522   */\n      tag_501\n        /* \"#utility.yul\":3518:3521   */\n      dup9\n        /* \"#utility.yul\":3503:3516   */\n      dup3\n        /* \"#utility.yul\":3459:3522   */\n      tag_416\n      jump\t// in\n    tag_501:\n        /* \"#utility.yul\":3452:3522   */\n      swap8\n      pop\n        /* \"#utility.yul\":3545:3605   */\n      tag_502\n        /* \"#utility.yul\":3598:3604   */\n      dup4\n        /* \"#utility.yul\":3545:3605   */\n      tag_417\n      jump\t// in\n    tag_502:\n        /* \"#utility.yul\":3535:3605   */\n      swap3\n      pop\n        /* \"#utility.yul\":3391:3615   */\n      pop\n        /* \"#utility.yul\":3378:3379   */\n      0x01\n        /* \"#utility.yul\":3375:3376   */\n      dup2\n        /* \"#utility.yul\":3371:3380   */\n      add\n        /* \"#utility.yul\":3366:3380   */\n      swap1\n      pop\n        /* \"#utility.yul\":3331:3615   */\n      jump(tag_498)\n    tag_500:\n        /* \"#utility.yul\":3335:3349   */\n      pop\n        /* \"#utility.yul\":3631:3634   */\n      dup6\n        /* \"#utility.yul\":3624:3634   */\n      swap4\n      pop\n        /* \"#utility.yul\":3032:3640   */\n      pop\n      pop\n      pop\n        /* \"#utility.yul\":2908:3640   */\n      swap3\n      swap2\n      pop\n      pop\n      jump\t// out\n        /* \"#utility.yul\":3646:4019   */\n    tag_38:\n        /* \"#utility.yul\":3789:3793   */\n      0x00\n        /* \"#utility.yul\":3827:3829   */\n      0x20\n        /* \"#utility.yul\":3816:3825   */\n      dup3\n        /* \"#utility.yul\":3812:3830   */\n      add\n        /* \"#utility.yul\":3804:3830   */\n      swap1\n      pop\n        /* \"#utility.yul\":3876:3885   */\n      dup2\n        /* \"#utility.yul\":3870:3874   */\n      dup2\n        /* \"#utility.yul\":3866:3886   */\n      sub\n        /* \"#utility.yul\":3862:3863   */\n      0x00\n        /* \"#utility.yul\":3851:3860   */\n      dup4\n        /* \"#utility.yul\":3847:3864   */\n      add\n        /* \"#utility.yul\":3840:3887   */\n      mstore\n        /* \"#utility.yul\":3904:4012   */\n      tag_504\n        /* \"#utility.yul\":4007:4011   */\n      dup2\n        /* \"#utility.yul\":3998:4004   */\n      dup5\n        /* \"#utility.yul\":3904:4012   */\n      tag_418\n      jump\t// in\n    tag_504:\n        /* \"#utility.yul\":3896:4012   */\n      swap1\n      pop\n        /* \"#utility.yul\":3646:4019   */\n      swap3\n      swap2\n      pop\n      pop\n      jump\t// out\n        /* \"#utility.yul\":4025:4354   */\n    tag_47:\n        /* \"#utility.yul\":4084:4090   */\n      0x00\n        /* \"#utility.yul\":4133:4135   */\n      0x20\n        /* \"#utility.yul\":4121:4130   */\n      dup3\n        /* \"#utility.yul\":4112:4119   */\n      dup5\n        /* \"#utility.yul\":4108:4131   */\n      sub\n        /* \"#utility.yul\":4104:4136   */\n      slt\n        /* \"#utility.yul\":4101:4220   */\n      iszero\n      tag_506\n      jumpi\n        /* \"#utility.yul\":4139:4218   */\n      tag_507\n      tag_403\n      jump\t// in\n    tag_507:\n        /* \"#utility.yul\":4101:4220   */\n    tag_506:\n        /* \"#utility.yul\":4259:4260   */\n      0x00\n        /* \"#utility.yul\":4284:4337   */\n      tag_508\n        /* \"#utility.yul\":4329:4336   */\n      dup5\n        /* \"#utility.yul\":4320:4326   */\n      dup3\n        /* \"#utility.yul\":4309:4318   */\n      dup6\n        /* \"#utility.yul\":4305:4327   */\n      add\n        /* \"#utility.yul\":4284:4337   */\n      tag_411\n      jump\t// in\n    tag_508:\n        /* \"#utility.yul\":4274:4337   */\n      swap2\n      pop\n        /* \"#utility.yul\":4230:4347   */\n      pop\n        /* \"#utility.yul\":4025:4354   */\n      swap3\n      swap2\n      pop\n      pop\n      jump\t// out\n        /* \"#utility.yul\":4360:4478   */\n    tag_419:\n        /* \"#utility.yul\":4447:4471   */\n      tag_510\n        /* \"#utility.yul\":4465:4470   */\n      dup2\n        /* \"#utility.yul\":4447:4471   */\n      tag_406\n      jump\t// in\n    tag_510:\n        /* \"#utility.yul\":4442:4445   */\n      dup3\n        /* \"#utility.yul\":4435:4472   */\n      mstore\n        /* \"#utility.yul\":4360:4478   */\n      pop\n      pop\n      jump\t// out\n        /* \"#utility.yul\":4484:4706   */\n    tag_50:\n        /* \"#utility.yul\":4577:4581   */\n      0x00\n        /* \"#utility.yul\":4615:4617   */\n      0x20\n        /* \"#utility.yul\":4604:4613   */\n      dup3\n        /* \"#utility.yul\":4600:4618   */\n      add\n        /* \"#utility.yul\":4592:4618   */\n      swap1\n      pop\n        /* \"#utility.yul\":4628:4699   */\n      tag_512\n        /* \"#utility.yul\":4696:4697   */\n      0x00\n        /* \"#utility.yul\":4685:4694   */\n      dup4\n        /* \"#utility.yul\":4681:4698   */\n      add\n        /* \"#utility.yul\":4672:4678   */\n      dup5\n        /* \"#utility.yul\":4628:4699   */\n      tag_419\n      jump\t// in\n    tag_512:\n        /* \"#utility.yul\":4484:4706   */\n      swap3\n      swap2\n      pop\n      pop\n      jump\t// out\n        /* \"#utility.yul\":4712:4830   */\n    tag_420:\n        /* \"#utility.yul\":4799:4823   */\n      tag_514\n        /* \"#utility.yul\":4817:4822   */\n      dup2\n        /* \"#utility.yul\":4799:4823   */\n      tag_409\n      jump\t// in\n    tag_514:\n        /* \"#utility.yul\":4794:4797   */\n      dup3\n        /* \"#utility.yul\":4787:4824   */\n      mstore\n        /* \"#utility.yul\":4712:4830   */\n      pop\n      pop\n      jump\t// out\n        /* \"#utility.yul\":4836:5058   */\n    tag_65:\n        /* \"#utility.yul\":4929:4933   */\n      0x00\n        /* \"#utility.yul\":4967:4969   */\n      0x20\n        /* \"#utility.yul\":4956:4965   */\n      dup3\n        /* \"#utility.yul\":4952:4970   */\n      add\n        /* \"#utility.yul\":4944:4970   */\n      swap1\n      pop\n        /* \"#utility.yul\":4980:5051   */\n      tag_516\n        /* \"#utility.yul\":5048:5049   */\n      0x00\n        /* \"#utility.yul\":5037:5046   */\n      dup4\n        /* \"#utility.yul\":5033:5050   */\n      add\n        /* \"#utility.yul\":5024:5030   */\n      dup5\n        /* \"#utility.yul\":4980:5051   */\n      tag_420\n      jump\t// in\n    tag_516:\n        /* \"#utility.yul\":4836:5058   */\n      swap3\n      swap2\n      pop\n      pop\n      jump\t// out\n        /* \"#utility.yul\":5064:5181   */\n    tag_421:\n        /* \"#utility.yul\":5173:5174   */\n      0x00\n        /* \"#utility.yul\":5170:5171   */\n      dup1\n        /* \"#utility.yul\":5163:5175   */\n      revert\n        /* \"#utility.yul\":5187:5304   */\n    tag_422:\n        /* \"#utility.yul\":5296:5297   */\n      0x00\n        /* \"#utility.yul\":5293:5294   */\n      dup1\n        /* \"#utility.yul\":5286:5298   */\n      revert\n        /* \"#utility.yul\":5310:5412   */\n    tag_423:\n        /* \"#utility.yul\":5351:5357   */\n      0x00\n        /* \"#utility.yul\":5402:5404   */\n      0x1f\n        /* \"#utility.yul\":5398:5405   */\n      not\n        /* \"#utility.yul\":5393:5395   */\n      0x1f\n        /* \"#utility.yul\":5386:5391   */\n      dup4\n        /* \"#utility.yul\":5382:5396   */\n      add\n        /* \"#utility.yul\":5378:5406   */\n      and\n        /* \"#utility.yul\":5368:5406   */\n      swap1\n      pop\n        /* \"#utility.yul\":5310:5412   */\n      swap2\n      swap1\n      pop\n      jump\t// out\n        /* \"#utility.yul\":5418:5598   */\n    tag_159:\n        /* \"#utility.yul\":5466:5543   */\n      0x4e487b7100000000000000000000000000000000000000000000000000000000\n        /* \"#utility.yul\":5463:5464   */\n      0x00\n        /* \"#utility.yul\":5456:5544   */\n      mstore\n        /* \"#utility.yul\":5563:5567   */\n      0x41\n        /* \"#utility.yul\":5560:5561   */\n      0x04\n        /* \"#utility.yul\":5553:5568   */\n      mstore\n        /* \"#utility.yul\":5587:5591   */\n      0x24\n        /* \"#utility.yul\":5584:5585   */\n      0x00\n        /* \"#utility.yul\":5577:5592   */\n      revert\n        /* \"#utility.yul\":5604:5885   */\n    tag_424:\n        /* \"#utility.yul\":5687:5714   */\n      tag_522\n        /* \"#utility.yul\":5709:5713   */\n      dup3\n        /* \"#utility.yul\":5687:5714   */\n      tag_423\n      jump\t// in\n    tag_522:\n        /* \"#utility.yul\":5679:5685   */\n      dup2\n        /* \"#utility.yul\":5675:5715   */\n      add\n        /* \"#utility.yul\":5817:5823   */\n      dup2\n        /* \"#utility.yul\":5805:5815   */\n      dup2\n        /* \"#utility.yul\":5802:5824   */\n      lt\n        /* \"#utility.yul\":5781:5799   */\n      0xffffffffffffffff\n        /* \"#utility.yul\":5769:5779   */\n      dup3\n        /* \"#utility.yul\":5766:5800   */\n      gt\n        /* \"#utility.yul\":5763:5825   */\n      or\n        /* \"#utility.yul\":5760:5848   */\n      iszero\n      tag_523\n      jumpi\n        /* \"#utility.yul\":5828:5846   */\n      tag_524\n      tag_159\n      jump\t// in\n    tag_524:\n        /* \"#utility.yul\":5760:5848   */\n    tag_523:\n        /* \"#utility.yul\":5868:5878   */\n      dup1\n        /* \"#utility.yul\":5864:5866   */\n      0x40\n        /* \"#utility.yul\":5857:5879   */\n      mstore\n        /* \"#utility.yul\":5647:5885   */\n      pop\n        /* \"#utility.yul\":5604:5885   */\n      pop\n      pop\n      jump\t// out\n        /* \"#utility.yul\":5891:6020   */\n    tag_425:\n        /* \"#utility.yul\":5925:5931   */\n      0x00\n        /* \"#utility.yul\":5952:5972   */\n      tag_526\n      tag_402\n      jump\t// in\n    tag_526:\n        /* \"#utility.yul\":5942:5972   */\n      swap1\n      pop\n        /* \"#utility.yul\":5981:6014   */\n      tag_527\n        /* \"#utility.yul\":6009:6013   */\n      dup3\n        /* \"#utility.yul\":6001:6007   */\n      dup3\n        /* \"#utility.yul\":5981:6014   */\n      tag_424\n      jump\t// in\n    tag_527:\n        /* \"#utility.yul\":5891:6020   */\n      swap2\n      swap1\n      pop\n      jump\t// out\n        /* \"#utility.yul\":6026:6334   */\n    tag_426:\n        /* \"#utility.yul\":6088:6092   */\n      0x00\n        /* \"#utility.yul\":6178:6196   */\n      0xffffffffffffffff\n        /* \"#utility.yul\":6170:6176   */\n      dup3\n        /* \"#utility.yul\":6167:6197   */\n      gt\n        /* \"#utility.yul\":6164:6220   */\n      iszero\n      tag_529\n      jumpi\n        /* \"#utility.yul\":6200:6218   */\n      tag_530\n      tag_159\n      jump\t// in\n    tag_530:\n        /* \"#utility.yul\":6164:6220   */\n    tag_529:\n        /* \"#utility.yul\":6238:6267   */\n      tag_531\n        /* \"#utility.yul\":6260:6266   */\n      dup3\n        /* \"#utility.yul\":6238:6267   */\n      tag_423\n      jump\t// in\n    tag_531:\n        /* \"#utility.yul\":6230:6267   */\n      swap1\n      pop\n        /* \"#utility.yul\":6322:6326   */\n      0x20\n        /* \"#utility.yul\":6316:6320   */\n      dup2\n        /* \"#utility.yul\":6312:6327   */\n      add\n        /* \"#utility.yul\":6304:6327   */\n      swap1\n      pop\n        /* \"#utility.yul\":6026:6334   */\n      swap2\n      swap1\n      pop\n      jump\t// out\n        /* \"#utility.yul\":6340:6494   */\n    tag_427:\n        /* \"#utility.yul\":6424:6430   */\n      dup3\n        /* \"#utility.yul\":6419:6422   */\n      dup2\n        /* \"#utility.yul\":6414:6417   */\n      dup4\n        /* \"#utility.yul\":6401:6431   */\n      calldatacopy\n        /* \"#utility.yul\":6486:6487   */\n      0x00\n        /* \"#utility.yul\":6477:6483   */\n      dup4\n        /* \"#utility.yul\":6472:6475   */\n      dup4\n        /* \"#utility.yul\":6468:6484   */\n      add\n        /* \"#utility.yul\":6461:6488   */\n      mstore\n        /* \"#utility.yul\":6340:6494   */\n      pop\n      pop\n      pop\n      jump\t// out\n        /* \"#utility.yul\":6500:6912   */\n    tag_428:\n        /* \"#utility.yul\":6578:6583   */\n      0x00\n        /* \"#utility.yul\":6603:6669   */\n      tag_534\n        /* \"#utility.yul\":6619:6668   */\n      tag_535\n        /* \"#utility.yul\":6661:6667   */\n      dup5\n        /* \"#utility.yul\":6619:6668   */\n      tag_426\n      jump\t// in\n    tag_535:\n        /* \"#utility.yul\":6603:6669   */\n      tag_425\n      jump\t// in\n    tag_534:\n        /* \"#utility.yul\":6594:6669   */\n      swap1\n      pop\n        /* \"#utility.yul\":6692:6698   */\n      dup3\n        /* \"#utility.yul\":6685:6690   */\n      dup2\n        /* \"#utility.yul\":6678:6699   */\n      mstore\n        /* \"#utility.yul\":6730:6734   */\n      0x20\n        /* \"#utility.yul\":6723:6728   */\n      dup2\n        /* \"#utility.yul\":6719:6735   */\n      add\n        /* \"#utility.yul\":6768:6771   */\n      dup5\n        /* \"#utility.yul\":6759:6765   */\n      dup5\n        /* \"#utility.yul\":6754:6757   */\n      dup5\n        /* \"#utility.yul\":6750:6766   */\n      add\n        /* \"#utility.yul\":6747:6772   */\n      gt\n        /* \"#utility.yul\":6744:6856   */\n      iszero\n      tag_536\n      jumpi\n        /* \"#utility.yul\":6775:6854   */\n      tag_537\n      tag_422\n      jump\t// in\n    tag_537:\n        /* \"#utility.yul\":6744:6856   */\n    tag_536:\n        /* \"#utility.yul\":6865:6906   */\n      tag_538\n        /* \"#utility.yul\":6899:6905   */\n      dup5\n        /* \"#utility.yul\":6894:6897   */\n      dup3\n        /* \"#utility.yul\":6889:6892   */\n      dup6\n        /* \"#utility.yul\":6865:6906   */\n      tag_427\n      jump\t// in\n    tag_538:\n        /* \"#utility.yul\":6584:6912   */\n      pop\n        /* \"#utility.yul\":6500:6912   */\n      swap4\n      swap3\n      pop\n      pop\n      pop\n      jump\t// out\n        /* \"#utility.yul\":6932:7272   */\n    tag_429:\n        /* \"#utility.yul\":6988:6993   */\n      0x00\n        /* \"#utility.yul\":7037:7040   */\n      dup3\n        /* \"#utility.yul\":7030:7034   */\n      0x1f\n        /* \"#utility.yul\":7022:7028   */\n      dup4\n        /* \"#utility.yul\":7018:7035   */\n      add\n        /* \"#utility.yul\":7014:7041   */\n      slt\n        /* \"#utility.yul\":7004:7126   */\n      tag_540\n      jumpi\n        /* \"#utility.yul\":7045:7124   */\n      tag_541\n      tag_421\n      jump\t// in\n    tag_541:\n        /* \"#utility.yul\":7004:7126   */\n    tag_540:\n        /* \"#utility.yul\":7162:7168   */\n      dup2\n        /* \"#utility.yul\":7149:7169   */\n      calldataload\n        /* \"#utility.yul\":7187:7266   */\n      tag_542\n        /* \"#utility.yul\":7262:7265   */\n      dup5\n        /* \"#utility.yul\":7254:7260   */\n      dup3\n        /* \"#utility.yul\":7247:7251   */\n      0x20\n        /* \"#utility.yul\":7239:7245   */\n      dup7\n        /* \"#utility.yul\":7235:7252   */\n      add\n        /* \"#utility.yul\":7187:7266   */\n      tag_428\n      jump\t// in\n    tag_542:\n        /* \"#utility.yul\":7178:7266   */\n      swap2\n      pop\n        /* \"#utility.yul\":6994:7272   */\n      pop\n        /* \"#utility.yul\":6932:7272   */\n      swap3\n      swap2\n      pop\n      pop\n      jump\t// out\n        /* \"#utility.yul\":7278:7382   */\n    tag_430:\n        /* \"#utility.yul\":7323:7330   */\n      0x00\n        /* \"#utility.yul\":7352:7376   */\n      tag_544\n        /* \"#utility.yul\":7370:7375   */\n      dup3\n        /* \"#utility.yul\":7352:7376   */\n      tag_405\n      jump\t// in\n    tag_544:\n        /* \"#utility.yul\":7341:7376   */\n      swap1\n      pop\n        /* \"#utility.yul\":7278:7382   */\n      swap2\n      swap1\n      pop\n      jump\t// out\n        /* \"#utility.yul\":7388:7526   */\n    tag_431:\n        /* \"#utility.yul\":7469:7501   */\n      tag_546\n        /* \"#utility.yul\":7495:7500   */\n      dup2\n        /* \"#utility.yul\":7469:7501   */\n      tag_430\n      jump\t// in\n    tag_546:\n        /* \"#utility.yul\":7462:7467   */\n      dup2\n        /* \"#utility.yul\":7459:7502   */\n      eq\n        /* \"#utility.yul\":7449:7520   */\n      tag_547\n      jumpi\n        /* \"#utility.yul\":7516:7517   */\n      0x00\n        /* \"#utility.yul\":7513:7514   */\n      dup1\n        /* \"#utility.yul\":7506:7518   */\n      revert\n        /* \"#utility.yul\":7449:7520   */\n    tag_547:\n        /* \"#utility.yul\":7388:7526   */\n      pop\n      jump\t// out\n        /* \"#utility.yul\":7532:7687   */\n    tag_432:\n        /* \"#utility.yul\":7586:7591   */\n      0x00\n        /* \"#utility.yul\":7624:7630   */\n      dup2\n        /* \"#utility.yul\":7611:7631   */\n      calldataload\n        /* \"#utility.yul\":7602:7631   */\n      swap1\n      pop\n        /* \"#utility.yul\":7640:7681   */\n      tag_549\n        /* \"#utility.yul\":7675:7680   */\n      dup2\n        /* \"#utility.yul\":7640:7681   */\n      tag_431\n      jump\t// in\n    tag_549:\n        /* \"#utility.yul\":7532:7687   */\n      swap3\n      swap2\n      pop\n      pop\n      jump\t// out\n        /* \"#utility.yul\":7693:8834   */\n    tag_131:\n        /* \"#utility.yul\":7807:7813   */\n      0x00\n        /* \"#utility.yul\":7815:7821   */\n      dup1\n        /* \"#utility.yul\":7823:7829   */\n      0x00\n        /* \"#utility.yul\":7831:7837   */\n      dup1\n        /* \"#utility.yul\":7880:7883   */\n      0x80\n        /* \"#utility.yul\":7868:7877   */\n      dup6\n        /* \"#utility.yul\":7859:7866   */\n      dup8\n        /* \"#utility.yul\":7855:7878   */\n      sub\n        /* \"#utility.yul\":7851:7884   */\n      slt\n        /* \"#utility.yul\":7848:7968   */\n      iszero\n      tag_551\n      jumpi\n        /* \"#utility.yul\":7887:7966   */\n      tag_552\n      tag_403\n      jump\t// in\n    tag_552:\n        /* \"#utility.yul\":7848:7968   */\n    tag_551:\n        /* \"#utility.yul\":8007:8008   */\n      0x00\n        /* \"#utility.yul\":8032:8085   */\n      tag_553\n        /* \"#utility.yul\":8077:8084   */\n      dup8\n        /* \"#utility.yul\":8068:8074   */\n      dup3\n        /* \"#utility.yul\":8057:8066   */\n      dup9\n        /* \"#utility.yul\":8053:8075   */\n      add\n        /* \"#utility.yul\":8032:8085   */\n      tag_408\n      jump\t// in\n    tag_553:\n        /* \"#utility.yul\":8022:8085   */\n      swap5\n      pop\n        /* \"#utility.yul\":7978:8095   */\n      pop\n        /* \"#utility.yul\":8162:8164   */\n      0x20\n        /* \"#utility.yul\":8151:8160   */\n      dup6\n        /* \"#utility.yul\":8147:8165   */\n      add\n        /* \"#utility.yul\":8134:8166   */\n      calldataload\n        /* \"#utility.yul\":8193:8211   */\n      0xffffffffffffffff\n        /* \"#utility.yul\":8185:8191   */\n      dup2\n        /* \"#utility.yul\":8182:8212   */\n      gt\n        /* \"#utility.yul\":8179:8296   */\n      iszero\n      tag_554\n      jumpi\n        /* \"#utility.yul\":8215:8294   */\n      tag_555\n      tag_404\n      jump\t// in\n    tag_555:\n        /* \"#utility.yul\":8179:8296   */\n    tag_554:\n        /* \"#utility.yul\":8320:8383   */\n      tag_556\n        /* \"#utility.yul\":8375:8382   */\n      dup8\n        /* \"#utility.yul\":8366:8372   */\n      dup3\n        /* \"#utility.yul\":8355:8364   */\n      dup9\n        /* \"#utility.yul\":8351:8373   */\n      add\n        /* \"#utility.yul\":8320:8383   */\n      tag_429\n      jump\t// in\n    tag_556:\n        /* \"#utility.yul\":8310:8383   */\n      swap4\n      pop\n        /* \"#utility.yul\":8105:8393   */\n      pop\n        /* \"#utility.yul\":8460:8462   */\n      0x40\n        /* \"#utility.yul\":8449:8458   */\n      dup6\n        /* \"#utility.yul\":8445:8463   */\n      add\n        /* \"#utility.yul\":8432:8464   */\n      calldataload\n        /* \"#utility.yul\":8491:8509   */\n      0xffffffffffffffff\n        /* \"#utility.yul\":8483:8489   */\n      dup2\n        /* \"#utility.yul\":8480:8510   */\n      gt\n        /* \"#utility.yul\":8477:8594   */\n      iszero\n      tag_557\n      jumpi\n        /* \"#utility.yul\":8513:8592   */\n      tag_558\n      tag_404\n      jump\t// in\n    tag_558:\n        /* \"#utility.yul\":8477:8594   */\n    tag_557:\n        /* \"#utility.yul\":8618:8681   */\n      tag_559\n        /* \"#utility.yul\":8673:8680   */\n      dup8\n        /* \"#utility.yul\":8664:8670   */\n      dup3\n        /* \"#utility.yul\":8653:8662   */\n      dup9\n        /* \"#utility.yul\":8649:8671   */\n      add\n        /* \"#utility.yul\":8618:8681   */\n      tag_429\n      jump\t// in\n    tag_559:\n        /* \"#utility.yul\":8608:8681   */\n      swap3\n      pop\n        /* \"#utility.yul\":8403:8691   */\n      pop\n        /* \"#utility.yul\":8730:8732   */\n      0x60\n        /* \"#utility.yul\":8756:8817   */\n      tag_560\n        /* \"#utility.yul\":8809:8816   */\n      dup8\n        /* \"#utility.yul\":8800:8806   */\n      dup3\n        /* \"#utility.yul\":8789:8798   */\n      dup9\n        /* \"#utility.yul\":8785:8807   */\n      add\n        /* \"#utility.yul\":8756:8817   */\n      tag_432\n      jump\t// in\n    tag_560:\n        /* \"#utility.yul\":8746:8817   */\n      swap2\n      pop\n        /* \"#utility.yul\":8701:8827   */\n      pop\n        /* \"#utility.yul\":7693:8834   */\n      swap3\n      swap6\n      swap2\n      swap5\n      pop\n      swap3\n      pop\n      jump\t// out\n        /* \"#utility.yul\":8840:8983   */\n    tag_433:\n        /* \"#utility.yul\":8897:8902   */\n      0x00\n        /* \"#utility.yul\":8928:8934   */\n      dup2\n        /* \"#utility.yul\":8922:8935   */\n      mload\n        /* \"#utility.yul\":8913:8935   */\n      swap1\n      pop\n        /* \"#utility.yul\":8944:8977   */\n      tag_562\n        /* \"#utility.yul\":8971:8976   */\n      dup2\n        /* \"#utility.yul\":8944:8977   */\n      tag_407\n      jump\t// in\n    tag_562:\n        /* \"#utility.yul\":8840:8983   */\n      swap3\n      swap2\n      pop\n      pop\n      jump\t// out\n        /* \"#utility.yul\":8989:9340   */\n    tag_137:\n        /* \"#utility.yul\":9059:9065   */\n      0x00\n        /* \"#utility.yul\":9108:9110   */\n      0x20\n        /* \"#utility.yul\":9096:9105   */\n      dup3\n        /* \"#utility.yul\":9087:9094   */\n      dup5\n        /* \"#utility.yul\":9083:9106   */\n      sub\n        /* \"#utility.yul\":9079:9111   */\n      slt\n        /* \"#utility.yul\":9076:9195   */\n      iszero\n      tag_564\n      jumpi\n        /* \"#utility.yul\":9114:9193   */\n      tag_565\n      tag_403\n      jump\t// in\n    tag_565:\n        /* \"#utility.yul\":9076:9195   */\n    tag_564:\n        /* \"#utility.yul\":9234:9235   */\n      0x00\n        /* \"#utility.yul\":9259:9323   */\n      tag_566\n        /* \"#utility.yul\":9315:9322   */\n      dup5\n        /* \"#utility.yul\":9306:9312   */\n      dup3\n        /* \"#utility.yul\":9295:9304   */\n      dup6\n        /* \"#utility.yul\":9291:9313   */\n      add\n        /* \"#utility.yul\":9259:9323   */\n      tag_433\n      jump\t// in\n    tag_566:\n        /* \"#utility.yul\":9249:9323   */\n      swap2\n      pop\n        /* \"#utility.yul\":9205:9333   */\n      pop\n        /* \"#utility.yul\":8989:9340   */\n      swap3\n      swap2\n      pop\n      pop\n      jump\t// out\n        /* \"#utility.yul\":9346:9488   */\n    tag_434:\n        /* \"#utility.yul\":9429:9436   */\n      0x00\n        /* \"#utility.yul\":9458:9482   */\n      tag_568\n        /* \"#utility.yul\":9476:9481   */\n      dup3\n        /* \"#utility.yul\":9458:9482   */\n      tag_406\n      jump\t// in\n    tag_568:\n        /* \"#utility.yul\":9447:9482   */\n      swap1\n      pop\n        /* \"#utility.yul\":9346:9488   */\n      swap2\n      swap1\n      pop\n      jump\t// out\n        /* \"#utility.yul\":9494:9708   */\n    tag_435:\n        /* \"#utility.yul\":9613:9683   */\n      tag_570\n        /* \"#utility.yul\":9677:9682   */\n      dup2\n        /* \"#utility.yul\":9613:9683   */\n      tag_434\n      jump\t// in\n    tag_570:\n        /* \"#utility.yul\":9606:9611   */\n      dup2\n        /* \"#utility.yul\":9603:9684   */\n      eq\n        /* \"#utility.yul\":9593:9702   */\n      tag_571\n      jumpi\n        /* \"#utility.yul\":9698:9699   */\n      0x00\n        /* \"#utility.yul\":9695:9696   */\n      dup1\n        /* \"#utility.yul\":9688:9700   */\n      revert\n        /* \"#utility.yul\":9593:9702   */\n    tag_571:\n        /* \"#utility.yul\":9494:9708   */\n      pop\n      jump\t// out\n        /* \"#utility.yul\":9714:9949   */\n    tag_436:\n        /* \"#utility.yul\":9817:9822   */\n      0x00\n        /* \"#utility.yul\":9848:9854   */\n      dup2\n        /* \"#utility.yul\":9842:9855   */\n      mload\n        /* \"#utility.yul\":9833:9855   */\n      swap1\n      pop\n        /* \"#utility.yul\":9864:9943   */\n      tag_573\n        /* \"#utility.yul\":9937:9942   */\n      dup2\n        /* \"#utility.yul\":9864:9943   */\n      tag_435\n      jump\t// in\n    tag_573:\n        /* \"#utility.yul\":9714:9949   */\n      swap3\n      swap2\n      pop\n      pop\n      jump\t// out\n        /* \"#utility.yul\":9955:10398   */\n    tag_141:\n        /* \"#utility.yul\":10071:10077   */\n      0x00\n        /* \"#utility.yul\":10120:10122   */\n      0x20\n        /* \"#utility.yul\":10108:10117   */\n      dup3\n        /* \"#utility.yul\":10099:10106   */\n      dup5\n        /* \"#utility.yul\":10095:10118   */\n      sub\n        /* \"#utility.yul\":10091:10123   */\n      slt\n        /* \"#utility.yul\":10088:10207   */\n      iszero\n      tag_575\n      jumpi\n        /* \"#utility.yul\":10126:10205   */\n      tag_576\n      tag_403\n      jump\t// in\n    tag_576:\n        /* \"#utility.yul\":10088:10207   */\n    tag_575:\n        /* \"#utility.yul\":10246:10247   */\n      0x00\n        /* \"#utility.yul\":10271:10381   */\n      tag_577\n        /* \"#utility.yul\":10373:10380   */\n      dup5\n        /* \"#utility.yul\":10364:10370   */\n      dup3\n        /* \"#utility.yul\":10353:10362   */\n      dup6\n        /* \"#utility.yul\":10349:10371   */\n      add\n        /* \"#utility.yul\":10271:10381   */\n      tag_436\n      jump\t// in\n    tag_577:\n        /* \"#utility.yul\":10261:10381   */\n      swap2\n      pop\n        /* \"#utility.yul\":10217:10391   */\n      pop\n        /* \"#utility.yul\":9955:10398   */\n      swap3\n      swap2\n      pop\n      pop\n      jump\t// out\n        /* \"#utility.yul\":10404:10573   */\n    tag_437:\n        /* \"#utility.yul\":10488:10499   */\n      0x00\n        /* \"#utility.yul\":10522:10528   */\n      dup3\n        /* \"#utility.yul\":10517:10520   */\n      dup3\n        /* \"#utility.yul\":10510:10529   */\n      mstore\n        /* \"#utility.yul\":10562:10566   */\n      0x20\n        /* \"#utility.yul\":10557:10560   */\n      dup3\n        /* \"#utility.yul\":10553:10567   */\n      add\n        /* \"#utility.yul\":10538:10567   */\n      swap1\n      pop\n        /* \"#utility.yul\":10404:10573   */\n      swap3\n      swap2\n      pop\n      pop\n      jump\t// out\n        /* \"#utility.yul\":10579:10759   */\n    tag_438:\n        /* \"#utility.yul\":10719:10751   */\n      0x537461727420696e6465782063616e6e6f74206265206e656761746976650000\n        /* \"#utility.yul\":10715:10716   */\n      0x00\n        /* \"#utility.yul\":10707:10713   */\n      dup3\n        /* \"#utility.yul\":10703:10717   */\n      add\n        /* \"#utility.yul\":10696:10752   */\n      mstore\n        /* \"#utility.yul\":10579:10759   */\n      pop\n      jump\t// out\n        /* \"#utility.yul\":10765:11131   */\n    tag_439:\n        /* \"#utility.yul\":10907:10910   */\n      0x00\n        /* \"#utility.yul\":10928:10995   */\n      tag_581\n        /* \"#utility.yul\":10992:10994   */\n      0x1e\n        /* \"#utility.yul\":10987:10990   */\n      dup4\n        /* \"#utility.yul\":10928:10995   */\n      tag_437\n      jump\t// in\n    tag_581:\n        /* \"#utility.yul\":10921:10995   */\n      swap2\n      pop\n        /* \"#utility.yul\":11004:11097   */\n      tag_582\n        /* \"#utility.yul\":11093:11096   */\n      dup3\n        /* \"#utility.yul\":11004:11097   */\n      tag_438\n      jump\t// in\n    tag_582:\n        /* \"#utility.yul\":11122:11124   */\n      0x20\n        /* \"#utility.yul\":11117:11120   */\n      dup3\n        /* \"#utility.yul\":11113:11125   */\n      add\n        /* \"#utility.yul\":11106:11125   */\n      swap1\n      pop\n        /* \"#utility.yul\":10765:11131   */\n      swap2\n      swap1\n      pop\n      jump\t// out\n        /* \"#utility.yul\":11137:11556   */\n    tag_151:\n        /* \"#utility.yul\":11303:11307   */\n      0x00\n        /* \"#utility.yul\":11341:11343   */\n      0x20\n        /* \"#utility.yul\":11330:11339   */\n      dup3\n        /* \"#utility.yul\":11326:11344   */\n      add\n        /* \"#utility.yul\":11318:11344   */\n      swap1\n      pop\n        /* \"#utility.yul\":11390:11399   */\n      dup2\n        /* \"#utility.yul\":11384:11388   */\n      dup2\n        /* \"#utility.yul\":11380:11400   */\n      sub\n        /* \"#utility.yul\":11376:11377   */\n      0x00\n        /* \"#utility.yul\":11365:11374   */\n      dup4\n        /* \"#utility.yul\":11361:11378   */\n      add\n        /* \"#utility.yul\":11354:11401   */\n      mstore\n        /* \"#utility.yul\":11418:11549   */\n      tag_584\n        /* \"#utility.yul\":11544:11548   */\n      dup2\n        /* \"#utility.yul\":11418:11549   */\n      tag_439\n      jump\t// in\n    tag_584:\n        /* \"#utility.yul\":11410:11549   */\n      swap1\n      pop\n        /* \"#utility.yul\":11137:11556   */\n      swap2\n      swap1\n      pop\n      jump\t// out\n        /* \"#utility.yul\":11562:11788   */\n    tag_440:\n        /* \"#utility.yul\":11702:11736   */\n      0x456e6420696e6465782065786365656473207573657220616464726573736573\n        /* \"#utility.yul\":11698:11699   */\n      0x00\n        /* \"#utility.yul\":11690:11696   */\n      dup3\n        /* \"#utility.yul\":11686:11700   */\n      add\n        /* \"#utility.yul\":11679:11737   */\n      mstore\n        /* \"#utility.yul\":11771:11780   */\n      0x206c656e67746800000000000000000000000000000000000000000000000000\n        /* \"#utility.yul\":11766:11768   */\n      0x20\n        /* \"#utility.yul\":11758:11764   */\n      dup3\n        /* \"#utility.yul\":11754:11769   */\n      add\n        /* \"#utility.yul\":11747:11781   */\n      mstore\n        /* \"#utility.yul\":11562:11788   */\n      pop\n      jump\t// out\n        /* \"#utility.yul\":11794:12160   */\n    tag_441:\n        /* \"#utility.yul\":11936:11939   */\n      0x00\n        /* \"#utility.yul\":11957:12024   */\n      tag_587\n        /* \"#utility.yul\":12021:12023   */\n      0x27\n        /* \"#utility.yul\":12016:12019   */\n      dup4\n        /* \"#utility.yul\":11957:12024   */\n      tag_437\n      jump\t// in\n    tag_587:\n        /* \"#utility.yul\":11950:12024   */\n      swap2\n      pop\n        /* \"#utility.yul\":12033:12126   */\n      tag_588\n        /* \"#utility.yul\":12122:12125   */\n      dup3\n        /* \"#utility.yul\":12033:12126   */\n      tag_440\n      jump\t// in\n    tag_588:\n        /* \"#utility.yul\":12151:12153   */\n      0x40\n        /* \"#utility.yul\":12146:12149   */\n      dup3\n        /* \"#utility.yul\":12142:12154   */\n      add\n        /* \"#utility.yul\":12135:12154   */\n      swap1\n      pop\n        /* \"#utility.yul\":11794:12160   */\n      swap2\n      swap1\n      pop\n      jump\t// out\n        /* \"#utility.yul\":12166:12585   */\n    tag_154:\n        /* \"#utility.yul\":12332:12336   */\n      0x00\n        /* \"#utility.yul\":12370:12372   */\n      0x20\n        /* \"#utility.yul\":12359:12368   */\n      dup3\n        /* \"#utility.yul\":12355:12373   */\n      add\n        /* \"#utility.yul\":12347:12373   */\n      swap1\n      pop\n        /* \"#utility.yul\":12419:12428   */\n      dup2\n        /* \"#utility.yul\":12413:12417   */\n      dup2\n        /* \"#utility.yul\":12409:12429   */\n      sub\n        /* \"#utility.yul\":12405:12406   */\n      0x00\n        /* \"#utility.yul\":12394:12403   */\n      dup4\n        /* \"#utility.yul\":12390:12407   */\n      add\n        /* \"#utility.yul\":12383:12430   */\n      mstore\n        /* \"#utility.yul\":12447:12578   */\n      tag_590\n        /* \"#utility.yul\":12573:12577   */\n      dup2\n        /* \"#utility.yul\":12447:12578   */\n      tag_441\n      jump\t// in\n    tag_590:\n        /* \"#utility.yul\":12439:12578   */\n      swap1\n      pop\n        /* \"#utility.yul\":12166:12585   */\n      swap2\n      swap1\n      pop\n      jump\t// out\n        /* \"#utility.yul\":12591:12771   */\n    tag_442:\n        /* \"#utility.yul\":12639:12716   */\n      0x4e487b7100000000000000000000000000000000000000000000000000000000\n        /* \"#utility.yul\":12636:12637   */\n      0x00\n        /* \"#utility.yul\":12629:12717   */\n      mstore\n        /* \"#utility.yul\":12736:12740   */\n      0x11\n        /* \"#utility.yul\":12733:12734   */\n      0x04\n        /* \"#utility.yul\":12726:12741   */\n      mstore\n        /* \"#utility.yul\":12760:12764   */\n      0x24\n        /* \"#utility.yul\":12757:12758   */\n      0x00\n        /* \"#utility.yul\":12750:12765   */\n      revert\n        /* \"#utility.yul\":12777:12968   */\n    tag_156:\n        /* \"#utility.yul\":12817:12821   */\n      0x00\n        /* \"#utility.yul\":12837:12857   */\n      tag_593\n        /* \"#utility.yul\":12855:12856   */\n      dup3\n        /* \"#utility.yul\":12837:12857   */\n      tag_409\n      jump\t// in\n    tag_593:\n        /* \"#utility.yul\":12832:12857   */\n      swap2\n      pop\n        /* \"#utility.yul\":12871:12891   */\n      tag_594\n        /* \"#utility.yul\":12889:12890   */\n      dup4\n        /* \"#utility.yul\":12871:12891   */\n      tag_409\n      jump\t// in\n    tag_594:\n        /* \"#utility.yul\":12866:12891   */\n      swap3\n      pop\n        /* \"#utility.yul\":12910:12911   */\n      dup3\n        /* \"#utility.yul\":12907:12908   */\n      dup3\n        /* \"#utility.yul\":12904:12912   */\n      lt\n        /* \"#utility.yul\":12901:12935   */\n      iszero\n      tag_595\n      jumpi\n        /* \"#utility.yul\":12915:12933   */\n      tag_596\n      tag_442\n      jump\t// in\n    tag_596:\n        /* \"#utility.yul\":12901:12935   */\n    tag_595:\n        /* \"#utility.yul\":12960:12961   */\n      dup3\n        /* \"#utility.yul\":12957:12958   */\n      dup3\n        /* \"#utility.yul\":12953:12962   */\n      sub\n        /* \"#utility.yul\":12945:12962   */\n      swap1\n      pop\n        /* \"#utility.yul\":12777:12968   */\n      swap3\n      swap2\n      pop\n      pop\n      jump\t// out\n        /* \"#utility.yul\":12974:13154   */\n    tag_166:\n        /* \"#utility.yul\":13022:13099   */\n      0x4e487b7100000000000000000000000000000000000000000000000000000000\n        /* \"#utility.yul\":13019:13020   */\n      0x00\n        /* \"#utility.yul\":13012:13100   */\n      mstore\n        /* \"#utility.yul\":13119:13123   */\n      0x32\n        /* \"#utility.yul\":13116:13117   */\n      0x04\n        /* \"#utility.yul\":13109:13124   */\n      mstore\n        /* \"#utility.yul\":13143:13147   */\n      0x24\n        /* \"#utility.yul\":13140:13141   */\n      0x00\n        /* \"#utility.yul\":13133:13148   */\n      revert\n        /* \"#utility.yul\":13160:13393   */\n    tag_171:\n        /* \"#utility.yul\":13199:13202   */\n      0x00\n        /* \"#utility.yul\":13222:13246   */\n      tag_599\n        /* \"#utility.yul\":13240:13245   */\n      dup3\n        /* \"#utility.yul\":13222:13246   */\n      tag_409\n      jump\t// in\n    tag_599:\n        /* \"#utility.yul\":13213:13246   */\n      swap2\n      pop\n        /* \"#utility.yul\":13268:13334   */\n      0xffffffffffffffffffffffffffffffffffffffffffffffffffffffffffffffff\n        /* \"#utility.yul\":13261:13266   */\n      dup3\n        /* \"#utility.yul\":13258:13335   */\n      eq\n        /* \"#utility.yul\":13255:13358   */\n      iszero\n      tag_600\n      jumpi\n        /* \"#utility.yul\":13338:13356   */\n      tag_601\n      tag_442\n      jump\t// in\n    tag_601:\n        /* \"#utility.yul\":13255:13358   */\n    tag_600:\n        /* \"#utility.yul\":13385:13386   */\n      0x01\n        /* \"#utility.yul\":13378:13383   */\n      dup3\n        /* \"#utility.yul\":13374:13387   */\n      add\n        /* \"#utility.yul\":13367:13387   */\n      swap1\n      pop\n        /* \"#utility.yul\":13160:13393   */\n      swap2\n      swap1\n      pop\n      jump\t// out\n        /* \"#utility.yul\":13399:13579   */\n    tag_254:\n        /* \"#utility.yul\":13447:13524   */\n      0x4e487b7100000000000000000000000000000000000000000000000000000000\n        /* \"#utility.yul\":13444:13445   */\n      0x00\n        /* \"#utility.yul\":13437:13525   */\n      mstore\n        /* \"#utility.yul\":13544:13548   */\n      0x21\n        /* \"#utility.yul\":13541:13542   */\n      0x04\n        /* \"#utility.yul\":13534:13549   */\n      mstore\n        /* \"#utility.yul\":13568:13572   */\n      0x24\n        /* \"#utility.yul\":13565:13566   */\n      0x00\n        /* \"#utility.yul\":13558:13573   */\n      revert\n        /* \"#utility.yul\":13585:13695   */\n    tag_443:\n        /* \"#utility.yul\":13669:13670   */\n      0x04\n        /* \"#utility.yul\":13662:13667   */\n      dup2\n        /* \"#utility.yul\":13659:13671   */\n      lt\n        /* \"#utility.yul\":13649:13689   */\n      tag_604\n      jumpi\n        /* \"#utility.yul\":13685:13686   */\n      0x00\n        /* \"#utility.yul\":13682:13683   */\n      dup1\n        /* \"#utility.yul\":13675:13687   */\n      revert\n        /* \"#utility.yul\":13649:13689   */\n    tag_604:\n        /* \"#utility.yul\":13585:13695   */\n      pop\n      jump\t// out\n        /* \"#utility.yul\":13701:13866   */\n    tag_444:\n        /* \"#utility.yul\":13769:13774   */\n      0x00\n        /* \"#utility.yul\":13800:13806   */\n      dup2\n        /* \"#utility.yul\":13794:13807   */\n      mload\n        /* \"#utility.yul\":13785:13807   */\n      swap1\n      pop\n        /* \"#utility.yul\":13816:13860   */\n      tag_606\n        /* \"#utility.yul\":13854:13859   */\n      dup2\n        /* \"#utility.yul\":13816:13860   */\n      tag_443\n      jump\t// in\n    tag_606:\n        /* \"#utility.yul\":13701:13866   */\n      swap3\n      swap2\n      pop\n      pop\n      jump\t// out\n        /* \"#utility.yul\":13872:14245   */\n    tag_258:\n        /* \"#utility.yul\":13953:13959   */\n      0x00\n        /* \"#utility.yul\":14002:14004   */\n      0x20\n        /* \"#utility.yul\":13990:13999   */\n      dup3\n        /* \"#utility.yul\":13981:13988   */\n      dup5\n        /* \"#utility.yul\":13977:14000   */\n      sub\n        /* \"#utility.yul\":13973:14005   */\n      slt\n        /* \"#utility.yul\":13970:14089   */\n      iszero\n      tag_608\n      jumpi\n        /* \"#utility.yul\":14008:14087   */\n      tag_609\n      tag_403\n      jump\t// in\n    tag_609:\n        /* \"#utility.yul\":13970:14089   */\n    tag_608:\n        /* \"#utility.yul\":14128:14129   */\n      0x00\n        /* \"#utility.yul\":14153:14228   */\n      tag_610\n        /* \"#utility.yul\":14220:14227   */\n      dup5\n        /* \"#utility.yul\":14211:14217   */\n      dup3\n        /* \"#utility.yul\":14200:14209   */\n      dup6\n        /* \"#utility.yul\":14196:14218   */\n      add\n        /* \"#utility.yul\":14153:14228   */\n      tag_444\n      jump\t// in\n    tag_610:\n        /* \"#utility.yul\":14143:14228   */\n      swap2\n      pop\n        /* \"#utility.yul\":14099:14238   */\n      pop\n        /* \"#utility.yul\":13872:14245   */\n      swap3\n      swap2\n      pop\n      pop\n      jump\t// out\n        /* \"#utility.yul\":14251:14429   */\n    tag_445:\n        /* \"#utility.yul\":14391:14421   */\n      0x436f6e747261637420737461747573206d757374206265206f70656e00000000\n        /* \"#utility.yul\":14387:14388   */\n      0x00\n        /* \"#utility.yul\":14379:14385   */\n      dup3\n        /* \"#utility.yul\":14375:14389   */\n      add\n        /* \"#utility.yul\":14368:14422   */\n      mstore\n        /* \"#utility.yul\":14251:14429   */\n      pop\n      jump\t// out\n        /* \"#utility.yul\":14435:14801   */\n    tag_446:\n        /* \"#utility.yul\":14577:14580   */\n      0x00\n        /* \"#utility.yul\":14598:14665   */\n      tag_613\n        /* \"#utility.yul\":14662:14664   */\n      0x1c\n        /* \"#utility.yul\":14657:14660   */\n      dup4\n        /* \"#utility.yul\":14598:14665   */\n      tag_437\n      jump\t// in\n    tag_613:\n        /* \"#utility.yul\":14591:14665   */\n      swap2\n      pop\n        /* \"#utility.yul\":14674:14767   */\n      tag_614\n        /* \"#utility.yul\":14763:14766   */\n      dup3\n        /* \"#utility.yul\":14674:14767   */\n      tag_445\n      jump\t// in\n    tag_614:\n        /* \"#utility.yul\":14792:14794   */\n      0x20\n        /* \"#utility.yul\":14787:14790   */\n      dup3\n        /* \"#utility.yul\":14783:14795   */\n      add\n        /* \"#utility.yul\":14776:14795   */\n      swap1\n      pop\n        /* \"#utility.yul\":14435:14801   */\n      swap2\n      swap1\n      pop\n      jump\t// out\n        /* \"#utility.yul\":14807:15226   */\n    tag_263:\n        /* \"#utility.yul\":14973:14977   */\n      0x00\n        /* \"#utility.yul\":15011:15013   */\n      0x20\n        /* \"#utility.yul\":15000:15009   */\n      dup3\n        /* \"#utility.yul\":14996:15014   */\n      add\n        /* \"#utility.yul\":14988:15014   */\n      swap1\n      pop\n        /* \"#utility.yul\":15060:15069   */\n      dup2\n        /* \"#utility.yul\":15054:15058   */\n      dup2\n        /* \"#utility.yul\":15050:15070   */\n      sub\n        /* \"#utility.yul\":15046:15047   */\n      0x00\n        /* \"#utility.yul\":15035:15044   */\n      dup4\n        /* \"#utility.yul\":15031:15048   */\n      add\n        /* \"#utility.yul\":15024:15071   */\n      mstore\n        /* \"#utility.yul\":15088:15219   */\n      tag_616\n        /* \"#utility.yul\":15214:15218   */\n      dup2\n        /* \"#utility.yul\":15088:15219   */\n      tag_446\n      jump\t// in\n    tag_616:\n        /* \"#utility.yul\":15080:15219   */\n      swap1\n      pop\n        /* \"#utility.yul\":14807:15226   */\n      swap2\n      swap1\n      pop\n      jump\t// out\n        /* \"#utility.yul\":15232:15466   */\n    tag_447:\n        /* \"#utility.yul\":15372:15406   */\n      0x4f6e6c792063726561746f72206f6620636f6e74726163742063616e20726571\n        /* \"#utility.yul\":15368:15369   */\n      0x00\n        /* \"#utility.yul\":15360:15366   */\n      dup3\n        /* \"#utility.yul\":15356:15370   */\n      add\n        /* \"#utility.yul\":15349:15407   */\n      mstore\n        /* \"#utility.yul\":15441:15458   */\n      0x7565737420636f6d706c6574696f6e0000000000000000000000000000000000\n        /* \"#utility.yul\":15436:15438   */\n      0x20\n        /* \"#utility.yul\":15428:15434   */\n      dup3\n        /* \"#utility.yul\":15424:15439   */\n      add\n        /* \"#utility.yul\":15417:15459   */\n      mstore\n        /* \"#utility.yul\":15232:15466   */\n      pop\n      jump\t// out\n        /* \"#utility.yul\":15472:15838   */\n    tag_448:\n        /* \"#utility.yul\":15614:15617   */\n      0x00\n        /* \"#utility.yul\":15635:15702   */\n      tag_619\n        /* \"#utility.yul\":15699:15701   */\n      0x2f\n        /* \"#utility.yul\":15694:15697   */\n      dup4\n        /* \"#utility.yul\":15635:15702   */\n      tag_437\n      jump\t// in\n    tag_619:\n        /* \"#utility.yul\":15628:15702   */\n      swap2\n      pop\n        /* \"#utility.yul\":15711:15804   */\n      tag_620\n        /* \"#utility.yul\":15800:15803   */\n      dup3\n        /* \"#utility.yul\":15711:15804   */\n      tag_447\n      jump\t// in\n    tag_620:\n        /* \"#utility.yul\":15829:15831   */\n      0x40\n        /* \"#utility.yul\":15824:15827   */\n      dup3\n        /* \"#utility.yul\":15820:15832   */\n      add\n        /* \"#utility.yul\":15813:15832   */\n      swap1\n      pop\n        /* \"#utility.yul\":15472:15838   */\n      swap2\n      swap1\n      pop\n      jump\t// out\n        /* \"#utility.yul\":15844:16263   */\n    tag_269:\n        /* \"#utility.yul\":16010:16014   */\n      0x00\n        /* \"#utility.yul\":16048:16050   */\n      0x20\n        /* \"#utility.yul\":16037:16046   */\n      dup3\n        /* \"#utility.yul\":16033:16051   */\n      add\n        /* \"#utility.yul\":16025:16051   */\n      swap1\n      pop\n        /* \"#utility.yul\":16097:16106   */\n      dup2\n        /* \"#utility.yul\":16091:16095   */\n      dup2\n        /* \"#utility.yul\":16087:16107   */\n      sub\n        /* \"#utility.yul\":16083:16084   */\n      0x00\n        /* \"#utility.yul\":16072:16081   */\n      dup4\n        /* \"#utility.yul\":16068:16085   */\n      add\n        /* \"#utility.yul\":16061:16108   */\n      mstore\n        /* \"#utility.yul\":16125:16256   */\n      tag_622\n        /* \"#utility.yul\":16251:16255   */\n      dup2\n        /* \"#utility.yul\":16125:16256   */\n      tag_448\n      jump\t// in\n    tag_622:\n        /* \"#utility.yul\":16117:16256   */\n      swap1\n      pop\n        /* \"#utility.yul\":15844:16263   */\n      swap2\n      swap1\n      pop\n      jump\t// out\n        /* \"#utility.yul\":16269:16503   */\n    tag_449:\n        /* \"#utility.yul\":16409:16443   */\n      0x43616e6e6f74207265717565737420617070726f76616c207768656e20637265\n        /* \"#utility.yul\":16405:16406   */\n      0x00\n        /* \"#utility.yul\":16397:16403   */\n      dup3\n        /* \"#utility.yul\":16393:16407   */\n      add\n        /* \"#utility.yul\":16386:16444   */\n      mstore\n        /* \"#utility.yul\":16478:16495   */\n      0x61746f7220697320726566657265650000000000000000000000000000000000\n        /* \"#utility.yul\":16473:16475   */\n      0x20\n        /* \"#utility.yul\":16465:16471   */\n      dup3\n        /* \"#utility.yul\":16461:16476   */\n      add\n        /* \"#utility.yul\":16454:16496   */\n      mstore\n        /* \"#utility.yul\":16269:16503   */\n      pop\n      jump\t// out\n        /* \"#utility.yul\":16509:16875   */\n    tag_450:\n        /* \"#utility.yul\":16651:16654   */\n      0x00\n        /* \"#utility.yul\":16672:16739   */\n      tag_625\n        /* \"#utility.yul\":16736:16738   */\n      0x2f\n        /* \"#utility.yul\":16731:16734   */\n      dup4\n        /* \"#utility.yul\":16672:16739   */\n      tag_437\n      jump\t// in\n    tag_625:\n        /* \"#utility.yul\":16665:16739   */\n      swap2\n      pop\n        /* \"#utility.yul\":16748:16841   */\n      tag_626\n        /* \"#utility.yul\":16837:16840   */\n      dup3\n        /* \"#utility.yul\":16748:16841   */\n      tag_449\n      jump\t// in\n    tag_626:\n        /* \"#utility.yul\":16866:16868   */\n      0x40\n        /* \"#utility.yul\":16861:16864   */\n      dup3\n        /* \"#utility.yul\":16857:16869   */\n      add\n        /* \"#utility.yul\":16850:16869   */\n      swap1\n      pop\n        /* \"#utility.yul\":16509:16875   */\n      swap2\n      swap1\n      pop\n      jump\t// out\n        /* \"#utility.yul\":16881:17300   */\n    tag_278:\n        /* \"#utility.yul\":17047:17051   */\n      0x00\n        /* \"#utility.yul\":17085:17087   */\n      0x20\n        /* \"#utility.yul\":17074:17083   */\n      dup3\n        /* \"#utility.yul\":17070:17088   */\n      add\n        /* \"#utility.yul\":17062:17088   */\n      swap1\n      pop\n        /* \"#utility.yul\":17134:17143   */\n      dup2\n        /* \"#utility.yul\":17128:17132   */\n      dup2\n        /* \"#utility.yul\":17124:17144   */\n      sub\n        /* \"#utility.yul\":17120:17121   */\n      0x00\n        /* \"#utility.yul\":17109:17118   */\n      dup4\n        /* \"#utility.yul\":17105:17122   */\n      add\n        /* \"#utility.yul\":17098:17145   */\n      mstore\n        /* \"#utility.yul\":17162:17293   */\n      tag_628\n        /* \"#utility.yul\":17288:17292   */\n      dup2\n        /* \"#utility.yul\":17162:17293   */\n      tag_450\n      jump\t// in\n    tag_628:\n        /* \"#utility.yul\":17154:17293   */\n      swap1\n      pop\n        /* \"#utility.yul\":16881:17300   */\n      swap2\n      swap1\n      pop\n      jump\t// out\n        /* \"#utility.yul\":17306:17405   */\n    tag_451:\n        /* \"#utility.yul\":17358:17364   */\n      0x00\n        /* \"#utility.yul\":17392:17397   */\n      dup2\n        /* \"#utility.yul\":17386:17398   */\n      mload\n        /* \"#utility.yul\":17376:17398   */\n      swap1\n      pop\n        /* \"#utility.yul\":17306:17405   */\n      swap2\n      swap1\n      pop\n      jump\t// out\n        /* \"#utility.yul\":17411:17718   */\n    tag_452:\n        /* \"#utility.yul\":17479:17480   */\n      0x00\n        /* \"#utility.yul\":17489:17602   */\n    tag_631:\n        /* \"#utility.yul\":17503:17509   */\n      dup4\n        /* \"#utility.yul\":17500:17501   */\n      dup2\n        /* \"#utility.yul\":17497:17510   */\n      lt\n        /* \"#utility.yul\":17489:17602   */\n      iszero\n      tag_633\n      jumpi\n        /* \"#utility.yul\":17588:17589   */\n      dup1\n        /* \"#utility.yul\":17583:17586   */\n      dup3\n        /* \"#utility.yul\":17579:17590   */\n      add\n        /* \"#utility.yul\":17573:17591   */\n      mload\n        /* \"#utility.yul\":17569:17570   */\n      dup2\n        /* \"#utility.yul\":17564:17567   */\n      dup5\n        /* \"#utility.yul\":17560:17571   */\n      add\n        /* \"#utility.yul\":17553:17592   */\n      mstore\n        /* \"#utility.yul\":17525:17527   */\n      0x20\n        /* \"#utility.yul\":17522:17523   */\n      dup2\n        /* \"#utility.yul\":17518:17528   */\n      add\n        /* \"#utility.yul\":17513:17528   */\n      swap1\n      pop\n        /* \"#utility.yul\":17489:17602   */\n      jump(tag_631)\n    tag_633:\n        /* \"#utility.yul\":17620:17626   */\n      dup4\n        /* \"#utility.yul\":17617:17618   */\n      dup2\n        /* \"#utility.yul\":17614:17627   */\n      gt\n        /* \"#utility.yul\":17611:17712   */\n      iszero\n      tag_634\n      jumpi\n        /* \"#utility.yul\":17700:17701   */\n      0x00\n        /* \"#utility.yul\":17691:17697   */\n      dup5\n        /* \"#utility.yul\":17686:17689   */\n      dup5\n        /* \"#utility.yul\":17682:17698   */\n      add\n        /* \"#utility.yul\":17675:17702   */\n      mstore\n        /* \"#utility.yul\":17611:17712   */\n    tag_634:\n        /* \"#utility.yul\":17460:17718   */\n      pop\n        /* \"#utility.yul\":17411:17718   */\n      pop\n      pop\n      pop\n      jump\t// out\n        /* \"#utility.yul\":17724:18088   */\n    tag_453:\n        /* \"#utility.yul\":17812:17815   */\n      0x00\n        /* \"#utility.yul\":17840:17879   */\n      tag_636\n        /* \"#utility.yul\":17873:17878   */\n      dup3\n        /* \"#utility.yul\":17840:17879   */\n      tag_451\n      jump\t// in\n    tag_636:\n        /* \"#utility.yul\":17895:17966   */\n      tag_637\n        /* \"#utility.yul\":17959:17965   */\n      dup2\n        /* \"#utility.yul\":17954:17957   */\n      dup6\n        /* \"#utility.yul\":17895:17966   */\n      tag_437\n      jump\t// in\n    tag_637:\n        /* \"#utility.yul\":17888:17966   */\n      swap4\n      pop\n        /* \"#utility.yul\":17975:18027   */\n      tag_638\n        /* \"#utility.yul\":18020:18026   */\n      dup2\n        /* \"#utility.yul\":18015:18018   */\n      dup6\n        /* \"#utility.yul\":18008:18012   */\n      0x20\n        /* \"#utility.yul\":18001:18006   */\n      dup7\n        /* \"#utility.yul\":17997:18013   */\n      add\n        /* \"#utility.yul\":17975:18027   */\n      tag_452\n      jump\t// in\n    tag_638:\n        /* \"#utility.yul\":18052:18081   */\n      tag_639\n        /* \"#utility.yul\":18074:18080   */\n      dup2\n        /* \"#utility.yul\":18052:18081   */\n      tag_423\n      jump\t// in\n    tag_639:\n        /* \"#utility.yul\":18047:18050   */\n      dup5\n        /* \"#utility.yul\":18043:18082   */\n      add\n        /* \"#utility.yul\":18036:18082   */\n      swap2\n      pop\n        /* \"#utility.yul\":17816:18088   */\n      pop\n        /* \"#utility.yul\":17724:18088   */\n      swap3\n      swap2\n      pop\n      pop\n      jump\t// out\n        /* \"#utility.yul\":18094:18154   */\n    tag_454:\n        /* \"#utility.yul\":18122:18125   */\n      0x00\n        /* \"#utility.yul\":18143:18148   */\n      dup2\n        /* \"#utility.yul\":18136:18148   */\n      swap1\n      pop\n        /* \"#utility.yul\":18094:18154   */\n      swap2\n      swap1\n      pop\n      jump\t// out\n        /* \"#utility.yul\":18160:18302   */\n    tag_455:\n        /* \"#utility.yul\":18210:18219   */\n      0x00\n        /* \"#utility.yul\":18243:18296   */\n      tag_642\n        /* \"#utility.yul\":18261:18295   */\n      tag_643\n        /* \"#utility.yul\":18270:18294   */\n      tag_644\n        /* \"#utility.yul\":18288:18293   */\n      dup5\n        /* \"#utility.yul\":18270:18294   */\n      tag_405\n      jump\t// in\n    tag_644:\n        /* \"#utility.yul\":18261:18295   */\n      tag_454\n      jump\t// in\n    tag_643:\n        /* \"#utility.yul\":18243:18296   */\n      tag_405\n      jump\t// in\n    tag_642:\n        /* \"#utility.yul\":18230:18296   */\n      swap1\n      pop\n        /* \"#utility.yul\":18160:18302   */\n      swap2\n      swap1\n      pop\n      jump\t// out\n        /* \"#utility.yul\":18308:18434   */\n    tag_456:\n        /* \"#utility.yul\":18358:18367   */\n      0x00\n        /* \"#utility.yul\":18391:18428   */\n      tag_646\n        /* \"#utility.yul\":18422:18427   */\n      dup3\n        /* \"#utility.yul\":18391:18428   */\n      tag_455\n      jump\t// in\n    tag_646:\n        /* \"#utility.yul\":18378:18428   */\n      swap1\n      pop\n        /* \"#utility.yul\":18308:18434   */\n      swap2\n      swap1\n      pop\n      jump\t// out\n        /* \"#utility.yul\":18440:18574   */\n    tag_457:\n        /* \"#utility.yul\":18498:18507   */\n      0x00\n        /* \"#utility.yul\":18531:18568   */\n      tag_648\n        /* \"#utility.yul\":18562:18567   */\n      dup3\n        /* \"#utility.yul\":18531:18568   */\n      tag_456\n      jump\t// in\n    tag_648:\n        /* \"#utility.yul\":18518:18568   */\n      swap1\n      pop\n        /* \"#utility.yul\":18440:18574   */\n      swap2\n      swap1\n      pop\n      jump\t// out\n        /* \"#utility.yul\":18580:18727   */\n    tag_458:\n        /* \"#utility.yul\":18675:18720   */\n      tag_650\n        /* \"#utility.yul\":18714:18719   */\n      dup2\n        /* \"#utility.yul\":18675:18720   */\n      tag_457\n      jump\t// in\n    tag_650:\n        /* \"#utility.yul\":18670:18673   */\n      dup3\n        /* \"#utility.yul\":18663:18721   */\n      mstore\n        /* \"#utility.yul\":18580:18727   */\n      pop\n      pop\n      jump\t// out\n        /* \"#utility.yul\":18733:19706   */\n    tag_300:\n        /* \"#utility.yul\":19014:19018   */\n      0x00\n        /* \"#utility.yul\":19052:19055   */\n      0xc0\n        /* \"#utility.yul\":19041:19050   */\n      dup3\n        /* \"#utility.yul\":19037:19056   */\n      add\n        /* \"#utility.yul\":19029:19056   */\n      swap1\n      pop\n        /* \"#utility.yul\":19066:19137   */\n      tag_652\n        /* \"#utility.yul\":19134:19135   */\n      0x00\n        /* \"#utility.yul\":19123:19132   */\n      dup4\n        /* \"#utility.yul\":19119:19136   */\n      add\n        /* \"#utility.yul\":19110:19116   */\n      dup10\n        /* \"#utility.yul\":19066:19137   */\n      tag_419\n      jump\t// in\n    tag_652:\n        /* \"#utility.yul\":19147:19219   */\n      tag_653\n        /* \"#utility.yul\":19215:19217   */\n      0x20\n        /* \"#utility.yul\":19204:19213   */\n      dup4\n        /* \"#utility.yul\":19200:19218   */\n      add\n        /* \"#utility.yul\":19191:19197   */\n      dup9\n        /* \"#utility.yul\":19147:19219   */\n      tag_419\n      jump\t// in\n    tag_653:\n        /* \"#utility.yul\":19266:19275   */\n      dup2\n        /* \"#utility.yul\":19260:19264   */\n      dup2\n        /* \"#utility.yul\":19256:19276   */\n      sub\n        /* \"#utility.yul\":19251:19253   */\n      0x40\n        /* \"#utility.yul\":19240:19249   */\n      dup4\n        /* \"#utility.yul\":19236:19254   */\n      add\n        /* \"#utility.yul\":19229:19277   */\n      mstore\n        /* \"#utility.yul\":19294:19372   */\n      tag_654\n        /* \"#utility.yul\":19367:19371   */\n      dup2\n        /* \"#utility.yul\":19358:19364   */\n      dup8\n        /* \"#utility.yul\":19294:19372   */\n      tag_453\n      jump\t// in\n    tag_654:\n        /* \"#utility.yul\":19286:19372   */\n      swap1\n      pop\n        /* \"#utility.yul\":19419:19428   */\n      dup2\n        /* \"#utility.yul\":19413:19417   */\n      dup2\n        /* \"#utility.yul\":19409:19429   */\n      sub\n        /* \"#utility.yul\":19404:19406   */\n      0x60\n        /* \"#utility.yul\":19393:19402   */\n      dup4\n        /* \"#utility.yul\":19389:19407   */\n      add\n        /* \"#utility.yul\":19382:19430   */\n      mstore\n        /* \"#utility.yul\":19447:19525   */\n      tag_655\n        /* \"#utility.yul\":19520:19524   */\n      dup2\n        /* \"#utility.yul\":19511:19517   */\n      dup7\n        /* \"#utility.yul\":19447:19525   */\n      tag_453\n      jump\t// in\n    tag_655:\n        /* \"#utility.yul\":19439:19525   */\n      swap1\n      pop\n        /* \"#utility.yul\":19535:19616   */\n      tag_656\n        /* \"#utility.yul\":19611:19614   */\n      0x80\n        /* \"#utility.yul\":19600:19609   */\n      dup4\n        /* \"#utility.yul\":19596:19615   */\n      add\n        /* \"#utility.yul\":19587:19593   */\n      dup6\n        /* \"#utility.yul\":19535:19616   */\n      tag_458\n      jump\t// in\n    tag_656:\n        /* \"#utility.yul\":19626:19699   */\n      tag_657\n        /* \"#utility.yul\":19694:19697   */\n      0xa0\n        /* \"#utility.yul\":19683:19692   */\n      dup4\n        /* \"#utility.yul\":19679:19698   */\n      add\n        /* \"#utility.yul\":19670:19676   */\n      dup5\n        /* \"#utility.yul\":19626:19699   */\n      tag_420\n      jump\t// in\n    tag_657:\n        /* \"#utility.yul\":18733:19706   */\n      swap8\n      swap7\n      pop\n      pop\n      pop\n      pop\n      pop\n      pop\n      pop\n      jump\t// out\n        /* \"#utility.yul\":19712:20017   */\n    tag_305:\n        /* \"#utility.yul\":19752:19755   */\n      0x00\n        /* \"#utility.yul\":19771:19791   */\n      tag_659\n        /* \"#utility.yul\":19789:19790   */\n      dup3\n        /* \"#utility.yul\":19771:19791   */\n      tag_409\n      jump\t// in\n    tag_659:\n        /* \"#utility.yul\":19766:19791   */\n      swap2\n      pop\n        /* \"#utility.yul\":19805:19825   */\n      tag_660\n        /* \"#utility.yul\":19823:19824   */\n      dup4\n        /* \"#utility.yul\":19805:19825   */\n      tag_409\n      jump\t// in\n    tag_660:\n        /* \"#utility.yul\":19800:19825   */\n      swap3\n      pop\n        /* \"#utility.yul\":19959:19960   */\n      dup3\n        /* \"#utility.yul\":19891:19957   */\n      0xffffffffffffffffffffffffffffffffffffffffffffffffffffffffffffffff\n        /* \"#utility.yul\":19887:19961   */\n      sub\n        /* \"#utility.yul\":19884:19885   */\n      dup3\n        /* \"#utility.yul\":19881:19962   */\n      gt\n        /* \"#utility.yul\":19878:19985   */\n      iszero\n      tag_661\n      jumpi\n        /* \"#utility.yul\":19965:19983   */\n      tag_662\n      tag_442\n      jump\t// in\n    tag_662:\n        /* \"#utility.yul\":19878:19985   */\n    tag_661:\n        /* \"#utility.yul\":20009:20010   */\n      dup3\n        /* \"#utility.yul\":20006:20007   */\n      dup3\n        /* \"#utility.yul\":20002:20011   */\n      add\n        /* \"#utility.yul\":19995:20011   */\n      swap1\n      pop\n        /* \"#utility.yul\":19712:20017   */\n      swap3\n      swap2\n      pop\n      pop\n      jump\t// out\n        /* \"#utility.yul\":20023:20203   */\n    tag_334:\n        /* \"#utility.yul\":20071:20148   */\n      0x4e487b7100000000000000000000000000000000000000000000000000000000\n        /* \"#utility.yul\":20068:20069   */\n      0x00\n        /* \"#utility.yul\":20061:20149   */\n      mstore\n        /* \"#utility.yul\":20168:20172   */\n      0x31\n        /* \"#utility.yul\":20165:20166   */\n      0x04\n        /* \"#utility.yul\":20158:20173   */\n      mstore\n        /* \"#utility.yul\":20192:20196   */\n      0x24\n        /* \"#utility.yul\":20189:20190   */\n      0x00\n        /* \"#utility.yul\":20182:20197   */\n      revert\n    stop\n\n    sub_0: assembly {\n            /* \"Contracts\":9606:10682  contract AccountabilityContractApprovalRequest {... */\n          mstore(0x40, 0x80)\n            /* \"Contracts\":9838:10215  constructor(address _accountabilityContractAddress) {... */\n          callvalue\n          dup1\n          iszero\n          tag_1\n          jumpi\n          0x00\n          dup1\n          revert\n        tag_1:\n          pop\n          mload(0x40)\n          sub(codesize, bytecodeSize)\n          dup1\n          bytecodeSize\n          dup4\n          codecopy\n          dup2\n          dup2\n          add\n          0x40\n          mstore\n          dup2\n          add\n          swap1\n          tag_2\n          swap2\n          swap1\n          tag_3\n          jump\t// in\n        tag_2:\n            /* \"Contracts\":9900:9945  AccountabilityContract accountabilityContract */\n          0x00\n            /* \"Contracts\":9971:10001  _accountabilityContractAddress */\n          dup2\n            /* \"Contracts\":9900:10002  AccountabilityContract accountabilityContract = AccountabilityContract(_accountabilityContractAddress) */\n          swap1\n          pop\n            /* \"Contracts\":10022:10044  accountabilityContract */\n          dup1\n            /* \"Contracts\":10022:10052  accountabilityContract.creator */\n          0xffffffffffffffffffffffffffffffffffffffff\n          and\n          0x02d05d3f\n            /* \"Contracts\":10022:10054  accountabilityContract.creator() */\n          mload(0x40)\n          dup2\n          0xffffffff\n          and\n          0xe0\n          shl\n          dup2\n          mstore\n          0x04\n          add\n          0x20\n          mload(0x40)\n          dup1\n          dup4\n          sub\n          dup2\n          dup7\n          gas\n          staticcall\n          iszero\n          dup1\n          iszero\n          tag_7\n          jumpi\n          returndatasize\n          0x00\n          dup1\n          returndatacopy\n          revert(0x00, returndatasize)\n        tag_7:\n          pop\n          pop\n          pop\n          pop\n          mload(0x40)\n          returndatasize\n          not(0x1f)\n          0x1f\n          dup3\n          add\n          and\n          dup3\n          add\n          dup1\n          0x40\n          mstore\n          pop\n          dup2\n          add\n          swap1\n          tag_8\n          swap2\n          swap1\n          tag_3\n          jump\t// in\n        tag_8:\n            /* \"Contracts\":10012:10019  creator */\n          0x00\n          dup1\n            /* \"Contracts\":10012:10054  creator = accountabilityContract.creator() */\n          0x0100\n          exp\n          dup2\n          sload\n          dup2\n          0xffffffffffffffffffffffffffffffffffffffff\n          mul\n          not\n          and\n          swap1\n          dup4\n          0xffffffffffffffffffffffffffffffffffffffff\n          and\n          mul\n          or\n          swap1\n          sstore\n          pop\n            /* \"Contracts\":10074:10096  accountabilityContract */\n          dup1\n            /* \"Contracts\":10074:10104  accountabilityContract.referee */\n          0xffffffffffffffffffffffffffffffffffffffff\n          and\n          0x3b1bebd1\n            /* \"Contracts\":10074:10106  accountabilityContract.referee() */\n          mload(0x40)\n          dup2\n          0xffffffff\n          and\n          0xe0\n          shl\n          dup2\n          mstore\n          0x04\n          add\n          0x20\n          mload(0x40)\n          dup1\n          dup4\n          sub\n          dup2\n          dup7\n          gas\n          staticcall\n          iszero\n          dup1\n          iszero\n          tag_10\n          jumpi\n          returndatasize\n          0x00\n          dup1\n          returndatacopy\n          revert(0x00, returndatasize)\n        tag_10:\n          pop\n          pop\n          pop\n          pop\n          mload(0x40)\n          returndatasize\n          not(0x1f)\n          0x1f\n          dup3\n          add\n          and\n          dup3\n          add\n          dup1\n          0x40\n          mstore\n          pop\n          dup2\n          add\n          swap1\n          tag_11\n          swap2\n          swap1\n          tag_3\n          jump\t// in\n        tag_11:\n            /* \"Contracts\":10064:10071  referee */\n          0x01\n          0x00\n            /* \"Contracts\":10064:10106  referee = accountabilityContract.referee() */\n          0x0100\n          exp\n          dup2\n          sload\n          dup2\n          0xffffffffffffffffffffffffffffffffffffffff\n          mul\n          not\n          and\n          swap1\n          dup4\n          0xffffffffffffffffffffffffffffffffffffffff\n          and\n          mul\n          or\n          swap1\n          sstore\n          pop\n            /* \"Contracts\":10148:10178  _accountabilityContractAddress */\n          dup2\n            /* \"Contracts\":10116:10145  accountabilityContractAddress */\n          0x02\n          0x00\n            /* \"Contracts\":10116:10178  accountabilityContractAddress = _accountabilityContractAddress */\n          0x0100\n          exp\n          dup2\n          sload\n          dup2\n          0xffffffffffffffffffffffffffffffffffffffff\n          mul\n          not\n          and\n          swap1\n          dup4\n          0xffffffffffffffffffffffffffffffffffffffff\n          and\n          mul\n          or\n          swap1\n          sstore\n          pop\n            /* \"Contracts\":10197:10208  Status.OPEN */\n          0x00\n            /* \"Contracts\":10188:10194  status */\n          0x02\n          0x14\n            /* \"Contracts\":10188:10208  status = Status.OPEN */\n          0x0100\n          exp\n          dup2\n          sload\n          dup2\n          0xff\n          mul\n          not\n          and\n          swap1\n          dup4\n          0x02\n          dup2\n          gt\n          iszero\n          tag_12\n          jumpi\n          tag_13\n          tag_14\n          jump\t// in\n        tag_13:\n        tag_12:\n          mul\n          or\n          swap1\n          sstore\n          pop\n            /* \"Contracts\":9890:10215  {... */\n          pop\n            /* \"Contracts\":9838:10215  constructor(address _accountabilityContractAddress) {... */\n          pop\n            /* \"Contracts\":9606:10682  contract AccountabilityContractApprovalRequest {... */\n          jump(tag_15)\n            /* \"#utility.yul\":88:205   */\n        tag_17:\n            /* \"#utility.yul\":197:198   */\n          0x00\n            /* \"#utility.yul\":194:195   */\n          dup1\n            /* \"#utility.yul\":187:199   */\n          revert\n            /* \"#utility.yul\":334:460   */\n        tag_19:\n            /* \"#utility.yul\":371:378   */\n          0x00\n            /* \"#utility.yul\":411:453   */\n          0xffffffffffffffffffffffffffffffffffffffff\n            /* \"#utility.yul\":404:409   */\n          dup3\n            /* \"#utility.yul\":400:454   */\n          and\n            /* \"#utility.yul\":389:454   */\n          swap1\n          pop\n            /* \"#utility.yul\":334:460   */\n          swap2\n          swap1\n          pop\n          jump\t// out\n            /* \"#utility.yul\":466:562   */\n        tag_20:\n            /* \"#utility.yul\":503:510   */\n          0x00\n            /* \"#utility.yul\":532:556   */\n          tag_29\n            /* \"#utility.yul\":550:555   */\n          dup3\n            /* \"#utility.yul\":532:556   */\n          tag_19\n          jump\t// in\n        tag_29:\n            /* \"#utility.yul\":521:556   */\n          swap1\n          pop\n            /* \"#utility.yul\":466:562   */\n          swap2\n          swap1\n          pop\n          jump\t// out\n            /* \"#utility.yul\":568:690   */\n        tag_21:\n            /* \"#utility.yul\":641:665   */\n          tag_31\n            /* \"#utility.yul\":659:664   */\n          dup2\n            /* \"#utility.yul\":641:665   */\n          tag_20\n          jump\t// in\n        tag_31:\n            /* \"#utility.yul\":634:639   */\n          dup2\n            /* \"#utility.yul\":631:666   */\n          eq\n            /* \"#utility.yul\":621:684   */\n          tag_32\n          jumpi\n            /* \"#utility.yul\":680:681   */\n          0x00\n            /* \"#utility.yul\":677:678   */\n          dup1\n            /* \"#utility.yul\":670:682   */\n          revert\n            /* \"#utility.yul\":621:684   */\n        tag_32:\n            /* \"#utility.yul\":568:690   */\n          pop\n          jump\t// out\n            /* \"#utility.yul\":696:839   */\n        tag_22:\n            /* \"#utility.yul\":753:758   */\n          0x00\n            /* \"#utility.yul\":784:790   */\n          dup2\n            /* \"#utility.yul\":778:791   */\n          mload\n            /* \"#utility.yul\":769:791   */\n          swap1\n          pop\n            /* \"#utility.yul\":800:833   */\n          tag_34\n            /* \"#utility.yul\":827:832   */\n          dup2\n            /* \"#utility.yul\":800:833   */\n          tag_21\n          jump\t// in\n        tag_34:\n            /* \"#utility.yul\":696:839   */\n          swap3\n          swap2\n          pop\n          pop\n          jump\t// out\n            /* \"#utility.yul\":845:1196   */\n        tag_3:\n            /* \"#utility.yul\":915:921   */\n          0x00\n            /* \"#utility.yul\":964:966   */\n          0x20\n            /* \"#utility.yul\":952:961   */\n          dup3\n            /* \"#utility.yul\":943:950   */\n          dup5\n            /* \"#utility.yul\":939:962   */\n          sub\n            /* \"#utility.yul\":935:967   */\n          slt\n            /* \"#utility.yul\":932:1051   */\n          iszero\n          tag_36\n          jumpi\n            /* \"#utility.yul\":970:1049   */\n          tag_37\n          tag_17\n          jump\t// in\n        tag_37:\n            /* \"#utility.yul\":932:1051   */\n        tag_36:\n            /* \"#utility.yul\":1090:1091   */\n          0x00\n            /* \"#utility.yul\":1115:1179   */\n          tag_38\n            /* \"#utility.yul\":1171:1178   */\n          dup5\n            /* \"#utility.yul\":1162:1168   */\n          dup3\n            /* \"#utility.yul\":1151:1160   */\n          dup6\n            /* \"#utility.yul\":1147:1169   */\n          add\n            /* \"#utility.yul\":1115:1179   */\n          tag_22\n          jump\t// in\n        tag_38:\n            /* \"#utility.yul\":1105:1179   */\n          swap2\n          pop\n            /* \"#utility.yul\":1061:1189   */\n          pop\n            /* \"#utility.yul\":845:1196   */\n          swap3\n          swap2\n          pop\n          pop\n          jump\t// out\n            /* \"#utility.yul\":1202:1382   */\n        tag_14:\n            /* \"#utility.yul\":1250:1327   */\n          0x4e487b7100000000000000000000000000000000000000000000000000000000\n            /* \"#utility.yul\":1247:1248   */\n          0x00\n            /* \"#utility.yul\":1240:1328   */\n          mstore\n            /* \"#utility.yul\":1347:1351   */\n          0x21\n            /* \"#utility.yul\":1344:1345   */\n          0x04\n            /* \"#utility.yul\":1337:1352   */\n          mstore\n            /* \"#utility.yul\":1371:1375   */\n          0x24\n            /* \"#utility.yul\":1368:1369   */\n          0x00\n            /* \"#utility.yul\":1361:1376   */\n          revert\n            /* \"Contracts\":9606:10682  contract AccountabilityContractApprovalRequest {... */\n        tag_15:\n          dataSize(sub_0)\n          dup1\n          dataOffset(sub_0)\n          0x00\n          codecopy\n          0x00\n          return\n        stop\n\n        sub_0: assembly {\n                /* \"Contracts\":9606:10682  contract AccountabilityContractApprovalRequest {... */\n              mstore(0x40, 0x80)\n              callvalue\n              dup1\n              iszero\n              tag_1\n              jumpi\n              0x00\n              dup1\n              revert\n            tag_1:\n              pop\n              jumpi(tag_2, lt(calldatasize, 0x04))\n              shr(0xe0, calldataload(0x00))\n              dup1\n              0x02d05d3f\n              eq\n              tag_3\n              jumpi\n              dup1\n              0x200d2ed2\n              eq\n              tag_4\n              jumpi\n              dup1\n              0x263b81c9\n              eq\n              tag_5\n              jumpi\n              dup1\n              0x3b1bebd1\n              eq\n              tag_6\n              jumpi\n              dup1\n              0x3c490174\n              eq\n              tag_7\n              jumpi\n              dup1\n              0xe19695f7\n              eq\n              tag_8\n              jumpi\n            tag_2:\n              0x00\n              dup1\n              revert\n                /* \"Contracts\":9659:9681  address public creator */\n            tag_3:\n              tag_9\n              tag_10\n              jump\t// in\n            tag_9:\n              mload(0x40)\n              tag_11\n              swap2\n              swap1\n              tag_12\n              jump\t// in\n            tag_11:\n              mload(0x40)\n              dup1\n              swap2\n              sub\n              swap1\n              return\n                /* \"Contracts\":9807:9827  Status public status */\n            tag_4:\n              tag_13\n              tag_14\n              jump\t// in\n            tag_13:\n              mload(0x40)\n              tag_15\n              swap2\n              swap1\n              tag_16\n              jump\t// in\n            tag_15:\n              mload(0x40)\n              dup1\n              swap2\n              sub\n              swap1\n              return\n                /* \"Contracts\":10221:10449  function approveRequest() public  returns (AccountabilityContractApprovalRequest) {... */\n            tag_5:\n              tag_17\n              tag_18\n              jump\t// in\n            tag_17:\n              mload(0x40)\n              tag_19\n              swap2\n              swap1\n              tag_20\n              jump\t// in\n            tag_19:\n              mload(0x40)\n              dup1\n              swap2\n              sub\n              swap1\n              return\n                /* \"Contracts\":9687:9709  address public referee */\n            tag_6:\n              tag_21\n              tag_22\n              jump\t// in\n            tag_21:\n              mload(0x40)\n              tag_23\n              swap2\n              swap1\n              tag_12\n              jump\t// in\n            tag_23:\n              mload(0x40)\n              dup1\n              swap2\n              sub\n              swap1\n              return\n                /* \"Contracts\":9715:9759  address public accountabilityContractAddress */\n            tag_7:\n              tag_24\n              tag_25\n              jump\t// in\n            tag_24:\n              mload(0x40)\n              tag_26\n              swap2\n              swap1\n              tag_12\n              jump\t// in\n            tag_26:\n              mload(0x40)\n              dup1\n              swap2\n              sub\n              swap1\n              return\n                /* \"Contracts\":10456:10679  function rejectRequest() public returns (AccountabilityContractApprovalRequest) {... */\n            tag_8:\n              tag_27\n              tag_28\n              jump\t// in\n            tag_27:\n              mload(0x40)\n              tag_29\n              swap2\n              swap1\n              tag_20\n              jump\t// in\n            tag_29:\n              mload(0x40)\n              dup1\n              swap2\n              sub\n              swap1\n              return\n                /* \"Contracts\":9659:9681  address public creator */\n            tag_10:\n              0x00\n              dup1\n              sload\n              swap1\n              0x0100\n              exp\n              swap1\n              div\n              0xffffffffffffffffffffffffffffffffffffffff\n              and\n              dup2\n              jump\t// out\n                /* \"Contracts\":9807:9827  Status public status */\n            tag_14:\n              0x02\n              0x14\n              swap1\n              sload\n              swap1\n              0x0100\n              exp\n              swap1\n              div\n              0xff\n              and\n              dup2\n              jump\t// out\n                /* \"Contracts\":10221:10449  function approveRequest() public  returns (AccountabilityContractApprovalRequest) {... */\n            tag_18:\n                /* \"Contracts\":10264:10301  AccountabilityContractApprovalRequest */\n              0x00\n                /* \"Contracts\":10334:10341  referee */\n              0x01\n              0x00\n              swap1\n              sload\n              swap1\n              0x0100\n              exp\n              swap1\n              div\n              0xffffffffffffffffffffffffffffffffffffffff\n              and\n                /* \"Contracts\":10321:10341  tx.origin == referee */\n              0xffffffffffffffffffffffffffffffffffffffff\n              and\n                /* \"Contracts\":10321:10330  tx.origin */\n              origin\n                /* \"Contracts\":10321:10341  tx.origin == referee */\n              0xffffffffffffffffffffffffffffffffffffffff\n              and\n              eq\n                /* \"Contracts\":10313:10387  require(tx.origin == referee, \"Only referee can approve approval request\") */\n              tag_31\n              jumpi\n              mload(0x40)\n              0x08c379a000000000000000000000000000000000000000000000000000000000\n              dup2\n              mstore\n              0x04\n              add\n              tag_32\n              swap1\n              tag_33\n              jump\t// in\n            tag_32:\n              mload(0x40)\n              dup1\n              swap2\n              sub\n              swap1\n              revert\n            tag_31:\n                /* \"Contracts\":10406:10421  Status.APPROVED */\n              0x01\n                /* \"Contracts\":10397:10403  status */\n              0x02\n              0x14\n                /* \"Contracts\":10397:10421  status = Status.APPROVED */\n              0x0100\n              exp\n              dup2\n              sload\n              dup2\n              0xff\n              mul\n              not\n              and\n              swap1\n              dup4\n              0x02\n              dup2\n              gt\n              iszero\n              tag_34\n              jumpi\n              tag_35\n              tag_36\n              jump\t// in\n            tag_35:\n            tag_34:\n              mul\n              or\n              swap1\n              sstore\n              pop\n                /* \"Contracts\":10438:10442  this */\n              address\n                /* \"Contracts\":10431:10442  return this */\n              swap1\n              pop\n                /* \"Contracts\":10221:10449  function approveRequest() public  returns (AccountabilityContractApprovalRequest) {... */\n              swap1\n              jump\t// out\n                /* \"Contracts\":9687:9709  address public referee */\n            tag_22:\n              0x01\n              0x00\n              swap1\n              sload\n              swap1\n              0x0100\n              exp\n              swap1\n              div\n              0xffffffffffffffffffffffffffffffffffffffff\n              and\n              dup2\n              jump\t// out\n                /* \"Contracts\":9715:9759  address public accountabilityContractAddress */\n            tag_25:\n              0x02\n              0x00\n              swap1\n              sload\n              swap1\n              0x0100\n              exp\n              swap1\n              div\n              0xffffffffffffffffffffffffffffffffffffffff\n              and\n              dup2\n              jump\t// out\n                /* \"Contracts\":10456:10679  function rejectRequest() public returns (AccountabilityContractApprovalRequest) {... */\n            tag_28:\n                /* \"Contracts\":10497:10534  AccountabilityContractApprovalRequest */\n              0x00\n                /* \"Contracts\":10567:10574  referee */\n              0x01\n              0x00\n              swap1\n              sload\n              swap1\n              0x0100\n              exp\n              swap1\n              div\n              0xffffffffffffffffffffffffffffffffffffffff\n              and\n                /* \"Contracts\":10554:10574  tx.origin == referee */\n              0xffffffffffffffffffffffffffffffffffffffff\n              and\n                /* \"Contracts\":10554:10563  tx.origin */\n              origin\n                /* \"Contracts\":10554:10574  tx.origin == referee */\n              0xffffffffffffffffffffffffffffffffffffffff\n              and\n              eq\n                /* \"Contracts\":10546:10619  require(tx.origin == referee, \"Only referee can reject approval request\") */\n              tag_38\n              jumpi\n              mload(0x40)\n              0x08c379a000000000000000000000000000000000000000000000000000000000\n              dup2\n              mstore\n              0x04\n              add\n              tag_39\n              swap1\n              tag_40\n              jump\t// in\n            tag_39:\n              mload(0x40)\n              dup1\n              swap2\n              sub\n              swap1\n              revert\n            tag_38:\n                /* \"Contracts\":10638:10651  Status.DENIED */\n              0x02\n                /* \"Contracts\":10629:10635  status */\n              dup1\n              0x14\n                /* \"Contracts\":10629:10651  status = Status.DENIED */\n              0x0100\n              exp\n              dup2\n              sload\n              dup2\n              0xff\n              mul\n              not\n              and\n              swap1\n              dup4\n              0x02\n              dup2\n              gt\n              iszero\n              tag_41\n              jumpi\n              tag_42\n              tag_36\n              jump\t// in\n            tag_42:\n            tag_41:\n              mul\n              or\n              swap1\n              sstore\n              pop\n                /* \"Contracts\":10668:10672  this */\n              address\n                /* \"Contracts\":10661:10672  return this */\n              swap1\n              pop\n                /* \"Contracts\":10456:10679  function rejectRequest() public returns (AccountabilityContractApprovalRequest) {... */\n              swap1\n              jump\t// out\n                /* \"#utility.yul\":7:133   */\n            tag_43:\n                /* \"#utility.yul\":44:51   */\n              0x00\n                /* \"#utility.yul\":84:126   */\n              0xffffffffffffffffffffffffffffffffffffffff\n                /* \"#utility.yul\":77:82   */\n              dup3\n                /* \"#utility.yul\":73:127   */\n              and\n                /* \"#utility.yul\":62:127   */\n              swap1\n              pop\n                /* \"#utility.yul\":7:133   */\n              swap2\n              swap1\n              pop\n              jump\t// out\n                /* \"#utility.yul\":139:235   */\n            tag_44:\n                /* \"#utility.yul\":176:183   */\n              0x00\n                /* \"#utility.yul\":205:229   */\n              tag_63\n                /* \"#utility.yul\":223:228   */\n              dup3\n                /* \"#utility.yul\":205:229   */\n              tag_43\n              jump\t// in\n            tag_63:\n                /* \"#utility.yul\":194:229   */\n              swap1\n              pop\n                /* \"#utility.yul\":139:235   */\n              swap2\n              swap1\n              pop\n              jump\t// out\n                /* \"#utility.yul\":241:359   */\n            tag_45:\n                /* \"#utility.yul\":328:352   */\n              tag_65\n                /* \"#utility.yul\":346:351   */\n              dup2\n                /* \"#utility.yul\":328:352   */\n              tag_44\n              jump\t// in\n            tag_65:\n                /* \"#utility.yul\":323:326   */\n              dup3\n                /* \"#utility.yul\":316:353   */\n              mstore\n                /* \"#utility.yul\":241:359   */\n              pop\n              pop\n              jump\t// out\n                /* \"#utility.yul\":365:587   */\n            tag_12:\n                /* \"#utility.yul\":458:462   */\n              0x00\n                /* \"#utility.yul\":496:498   */\n              0x20\n                /* \"#utility.yul\":485:494   */\n              dup3\n                /* \"#utility.yul\":481:499   */\n              add\n                /* \"#utility.yul\":473:499   */\n              swap1\n              pop\n                /* \"#utility.yul\":509:580   */\n              tag_67\n                /* \"#utility.yul\":577:578   */\n              0x00\n                /* \"#utility.yul\":566:575   */\n              dup4\n                /* \"#utility.yul\":562:579   */\n              add\n                /* \"#utility.yul\":553:559   */\n              dup5\n                /* \"#utility.yul\":509:580   */\n              tag_45\n              jump\t// in\n            tag_67:\n                /* \"#utility.yul\":365:587   */\n              swap3\n              swap2\n              pop\n              pop\n              jump\t// out\n                /* \"#utility.yul\":593:773   */\n            tag_36:\n                /* \"#utility.yul\":641:718   */\n              0x4e487b7100000000000000000000000000000000000000000000000000000000\n                /* \"#utility.yul\":638:639   */\n              0x00\n                /* \"#utility.yul\":631:719   */\n              mstore\n                /* \"#utility.yul\":738:742   */\n              0x21\n                /* \"#utility.yul\":735:736   */\n              0x04\n                /* \"#utility.yul\":728:743   */\n              mstore\n                /* \"#utility.yul\":762:766   */\n              0x24\n                /* \"#utility.yul\":759:760   */\n              0x00\n                /* \"#utility.yul\":752:767   */\n              revert\n                /* \"#utility.yul\":779:894   */\n            tag_46:\n                /* \"#utility.yul\":862:863   */\n              0x03\n                /* \"#utility.yul\":855:860   */\n              dup2\n                /* \"#utility.yul\":852:864   */\n              lt\n                /* \"#utility.yul\":842:888   */\n              tag_70\n              jumpi\n                /* \"#utility.yul\":868:886   */\n              tag_71\n              tag_36\n              jump\t// in\n            tag_71:\n                /* \"#utility.yul\":842:888   */\n            tag_70:\n                /* \"#utility.yul\":779:894   */\n              pop\n              jump\t// out\n                /* \"#utility.yul\":900:1031   */\n            tag_47:\n                /* \"#utility.yul\":947:954   */\n              0x00\n                /* \"#utility.yul\":976:981   */\n              dup2\n                /* \"#utility.yul\":965:981   */\n              swap1\n              pop\n                /* \"#utility.yul\":982:1025   */\n              tag_73\n                /* \"#utility.yul\":1019:1024   */\n              dup3\n                /* \"#utility.yul\":982:1025   */\n              tag_46\n              jump\t// in\n            tag_73:\n                /* \"#utility.yul\":900:1031   */\n              swap2\n              swap1\n              pop\n              jump\t// out\n                /* \"#utility.yul\":1037:1168   */\n            tag_48:\n                /* \"#utility.yul\":1095:1104   */\n              0x00\n                /* \"#utility.yul\":1128:1162   */\n              tag_75\n                /* \"#utility.yul\":1156:1161   */\n              dup3\n                /* \"#utility.yul\":1128:1162   */\n              tag_47\n              jump\t// in\n            tag_75:\n                /* \"#utility.yul\":1115:1162   */\n              swap1\n              pop\n                /* \"#utility.yul\":1037:1168   */\n              swap2\n              swap1\n              pop\n              jump\t// out\n                /* \"#utility.yul\":1174:1321   */\n            tag_49:\n                /* \"#utility.yul\":1269:1314   */\n              tag_77\n                /* \"#utility.yul\":1308:1313   */\n              dup2\n                /* \"#utility.yul\":1269:1314   */\n              tag_48\n              jump\t// in\n            tag_77:\n                /* \"#utility.yul\":1264:1267   */\n              dup3\n                /* \"#utility.yul\":1257:1315   */\n              mstore\n                /* \"#utility.yul\":1174:1321   */\n              pop\n              pop\n              jump\t// out\n                /* \"#utility.yul\":1327:1565   */\n            tag_16:\n                /* \"#utility.yul\":1428:1432   */\n              0x00\n                /* \"#utility.yul\":1466:1468   */\n              0x20\n                /* \"#utility.yul\":1455:1464   */\n              dup3\n                /* \"#utility.yul\":1451:1469   */\n              add\n                /* \"#utility.yul\":1443:1469   */\n              swap1\n              pop\n                /* \"#utility.yul\":1479:1558   */\n              tag_79\n                /* \"#utility.yul\":1555:1556   */\n              0x00\n                /* \"#utility.yul\":1544:1553   */\n              dup4\n                /* \"#utility.yul\":1540:1557   */\n              add\n                /* \"#utility.yul\":1531:1537   */\n              dup5\n                /* \"#utility.yul\":1479:1558   */\n              tag_49\n              jump\t// in\n            tag_79:\n                /* \"#utility.yul\":1327:1565   */\n              swap3\n              swap2\n              pop\n              pop\n              jump\t// out\n                /* \"#utility.yul\":1571:1631   */\n            tag_50:\n                /* \"#utility.yul\":1599:1602   */\n              0x00\n                /* \"#utility.yul\":1620:1625   */\n              dup2\n                /* \"#utility.yul\":1613:1625   */\n              swap1\n              pop\n                /* \"#utility.yul\":1571:1631   */\n              swap2\n              swap1\n              pop\n              jump\t// out\n                /* \"#utility.yul\":1637:1779   */\n            tag_51:\n                /* \"#utility.yul\":1687:1696   */\n              0x00\n                /* \"#utility.yul\":1720:1773   */\n              tag_82\n                /* \"#utility.yul\":1738:1772   */\n              tag_83\n                /* \"#utility.yul\":1747:1771   */\n              tag_84\n                /* \"#utility.yul\":1765:1770   */\n              dup5\n                /* \"#utility.yul\":1747:1771   */\n              tag_43\n              jump\t// in\n            tag_84:\n                /* \"#utility.yul\":1738:1772   */\n              tag_50\n              jump\t// in\n            tag_83:\n                /* \"#utility.yul\":1720:1773   */\n              tag_43\n              jump\t// in\n            tag_82:\n                /* \"#utility.yul\":1707:1773   */\n              swap1\n              pop\n                /* \"#utility.yul\":1637:1779   */\n              swap2\n              swap1\n              pop\n              jump\t// out\n                /* \"#utility.yul\":1785:1911   */\n            tag_52:\n                /* \"#utility.yul\":1835:1844   */\n              0x00\n                /* \"#utility.yul\":1868:1905   */\n              tag_86\n                /* \"#utility.yul\":1899:1904   */\n              dup3\n                /* \"#utility.yul\":1868:1905   */\n              tag_51\n              jump\t// in\n            tag_86:\n                /* \"#utility.yul\":1855:1905   */\n              swap1\n              pop\n                /* \"#utility.yul\":1785:1911   */\n              swap2\n              swap1\n              pop\n              jump\t// out\n                /* \"#utility.yul\":1917:2089   */\n            tag_53:\n                /* \"#utility.yul\":2013:2022   */\n              0x00\n                /* \"#utility.yul\":2046:2083   */\n              tag_88\n                /* \"#utility.yul\":2077:2082   */\n              dup3\n                /* \"#utility.yul\":2046:2083   */\n              tag_52\n              jump\t// in\n            tag_88:\n                /* \"#utility.yul\":2033:2083   */\n              swap1\n              pop\n                /* \"#utility.yul\":1917:2089   */\n              swap2\n              swap1\n              pop\n              jump\t// out\n                /* \"#utility.yul\":2095:2318   */\n            tag_54:\n                /* \"#utility.yul\":2228:2311   */\n              tag_90\n                /* \"#utility.yul\":2305:2310   */\n              dup2\n                /* \"#utility.yul\":2228:2311   */\n              tag_53\n              jump\t// in\n            tag_90:\n                /* \"#utility.yul\":2223:2226   */\n              dup3\n                /* \"#utility.yul\":2216:2312   */\n              mstore\n                /* \"#utility.yul\":2095:2318   */\n              pop\n              pop\n              jump\t// out\n                /* \"#utility.yul\":2324:2638   */\n            tag_20:\n                /* \"#utility.yul\":2463:2467   */\n              0x00\n                /* \"#utility.yul\":2501:2503   */\n              0x20\n                /* \"#utility.yul\":2490:2499   */\n              dup3\n                /* \"#utility.yul\":2486:2504   */\n              add\n                /* \"#utility.yul\":2478:2504   */\n              swap1\n              pop\n                /* \"#utility.yul\":2514:2631   */\n              tag_92\n                /* \"#utility.yul\":2628:2629   */\n              0x00\n                /* \"#utility.yul\":2617:2626   */\n              dup4\n                /* \"#utility.yul\":2613:2630   */\n              add\n                /* \"#utility.yul\":2604:2610   */\n              dup5\n                /* \"#utility.yul\":2514:2631   */\n              tag_54\n              jump\t// in\n            tag_92:\n                /* \"#utility.yul\":2324:2638   */\n              swap3\n              swap2\n              pop\n              pop\n              jump\t// out\n                /* \"#utility.yul\":2644:2813   */\n            tag_55:\n                /* \"#utility.yul\":2728:2739   */\n              0x00\n                /* \"#utility.yul\":2762:2768   */\n              dup3\n                /* \"#utility.yul\":2757:2760   */\n              dup3\n                /* \"#utility.yul\":2750:2769   */\n              mstore\n                /* \"#utility.yul\":2802:2806   */\n              0x20\n                /* \"#utility.yul\":2797:2800   */\n              dup3\n                /* \"#utility.yul\":2793:2807   */\n              add\n                /* \"#utility.yul\":2778:2807   */\n              swap1\n              pop\n                /* \"#utility.yul\":2644:2813   */\n              swap3\n              swap2\n              pop\n              pop\n              jump\t// out\n                /* \"#utility.yul\":2819:3047   */\n            tag_56:\n                /* \"#utility.yul\":2959:2993   */\n              0x4f6e6c7920726566657265652063616e20617070726f766520617070726f7661\n                /* \"#utility.yul\":2955:2956   */\n              0x00\n                /* \"#utility.yul\":2947:2953   */\n              dup3\n                /* \"#utility.yul\":2943:2957   */\n              add\n                /* \"#utility.yul\":2936:2994   */\n              mstore\n                /* \"#utility.yul\":3028:3039   */\n              0x6c20726571756573740000000000000000000000000000000000000000000000\n                /* \"#utility.yul\":3023:3025   */\n              0x20\n                /* \"#utility.yul\":3015:3021   */\n              dup3\n                /* \"#utility.yul\":3011:3026   */\n              add\n                /* \"#utility.yul\":3004:3040   */\n              mstore\n                /* \"#utility.yul\":2819:3047   */\n              pop\n              jump\t// out\n                /* \"#utility.yul\":3053:3419   */\n            tag_57:\n                /* \"#utility.yul\":3195:3198   */\n              0x00\n                /* \"#utility.yul\":3216:3283   */\n              tag_96\n                /* \"#utility.yul\":3280:3282   */\n              0x29\n                /* \"#utility.yul\":3275:3278   */\n              dup4\n                /* \"#utility.yul\":3216:3283   */\n              tag_55\n              jump\t// in\n            tag_96:\n                /* \"#utility.yul\":3209:3283   */\n              swap2\n              pop\n                /* \"#utility.yul\":3292:3385   */\n              tag_97\n                /* \"#utility.yul\":3381:3384   */\n              dup3\n                /* \"#utility.yul\":3292:3385   */\n              tag_56\n              jump\t// in\n            tag_97:\n                /* \"#utility.yul\":3410:3412   */\n              0x40\n                /* \"#utility.yul\":3405:3408   */\n              dup3\n                /* \"#utility.yul\":3401:3413   */\n              add\n                /* \"#utility.yul\":3394:3413   */\n              swap1\n              pop\n                /* \"#utility.yul\":3053:3419   */\n              swap2\n              swap1\n              pop\n              jump\t// out\n                /* \"#utility.yul\":3425:3844   */\n            tag_33:\n                /* \"#utility.yul\":3591:3595   */\n              0x00\n                /* \"#utility.yul\":3629:3631   */\n              0x20\n                /* \"#utility.yul\":3618:3627   */\n              dup3\n                /* \"#utility.yul\":3614:3632   */\n              add\n                /* \"#utility.yul\":3606:3632   */\n              swap1\n              pop\n                /* \"#utility.yul\":3678:3687   */\n              dup2\n                /* \"#utility.yul\":3672:3676   */\n              dup2\n                /* \"#utility.yul\":3668:3688   */\n              sub\n                /* \"#utility.yul\":3664:3665   */\n              0x00\n                /* \"#utility.yul\":3653:3662   */\n              dup4\n                /* \"#utility.yul\":3649:3666   */\n              add\n                /* \"#utility.yul\":3642:3689   */\n              mstore\n                /* \"#utility.yul\":3706:3837   */\n              tag_99\n                /* \"#utility.yul\":3832:3836   */\n              dup2\n                /* \"#utility.yul\":3706:3837   */\n              tag_57\n              jump\t// in\n            tag_99:\n                /* \"#utility.yul\":3698:3837   */\n              swap1\n              pop\n                /* \"#utility.yul\":3425:3844   */\n              swap2\n              swap1\n              pop\n              jump\t// out\n                /* \"#utility.yul\":3850:4077   */\n            tag_58:\n                /* \"#utility.yul\":3990:4024   */\n              0x4f6e6c7920726566657265652063616e2072656a65637420617070726f76616c\n                /* \"#utility.yul\":3986:3987   */\n              0x00\n                /* \"#utility.yul\":3978:3984   */\n              dup3\n                /* \"#utility.yul\":3974:3988   */\n              add\n                /* \"#utility.yul\":3967:4025   */\n              mstore\n                /* \"#utility.yul\":4059:4069   */\n              0x2072657175657374000000000000000000000000000000000000000000000000\n                /* \"#utility.yul\":4054:4056   */\n              0x20\n                /* \"#utility.yul\":4046:4052   */\n              dup3\n                /* \"#utility.yul\":4042:4057   */\n              add\n                /* \"#utility.yul\":4035:4070   */\n              mstore\n                /* \"#utility.yul\":3850:4077   */\n              pop\n              jump\t// out\n                /* \"#utility.yul\":4083:4449   */\n            tag_59:\n                /* \"#utility.yul\":4225:4228   */\n              0x00\n                /* \"#utility.yul\":4246:4313   */\n              tag_102\n                /* \"#utility.yul\":4310:4312   */\n              0x28\n                /* \"#utility.yul\":4305:4308   */\n              dup4\n                /* \"#utility.yul\":4246:4313   */\n              tag_55\n              jump\t// in\n            tag_102:\n                /* \"#utility.yul\":4239:4313   */\n              swap2\n              pop\n                /* \"#utility.yul\":4322:4415   */\n              tag_103\n                /* \"#utility.yul\":4411:4414   */\n              dup3\n                /* \"#utility.yul\":4322:4415   */\n              tag_58\n              jump\t// in\n            tag_103:\n                /* \"#utility.yul\":4440:4442   */\n              0x40\n                /* \"#utility.yul\":4435:4438   */\n              dup3\n                /* \"#utility.yul\":4431:4443   */\n              add\n                /* \"#utility.yul\":4424:4443   */\n              swap1\n              pop\n                /* \"#utility.yul\":4083:4449   */\n              swap2\n              swap1\n              pop\n              jump\t// out\n                /* \"#utility.yul\":4455:4874   */\n            tag_40:\n                /* \"#utility.yul\":4621:4625   */\n              0x00\n                /* \"#utility.yul\":4659:4661   */\n              0x20\n                /* \"#utility.yul\":4648:4657   */\n              dup3\n                /* \"#utility.yul\":4644:4662   */\n              add\n                /* \"#utility.yul\":4636:4662   */\n              swap1\n              pop\n                /* \"#utility.yul\":4708:4717   */\n              dup2\n                /* \"#utility.yul\":4702:4706   */\n              dup2\n                /* \"#utility.yul\":4698:4718   */\n              sub\n                /* \"#utility.yul\":4694:4695   */\n              0x00\n                /* \"#utility.yul\":4683:4692   */\n              dup4\n                /* \"#utility.yul\":4679:4696   */\n              add\n                /* \"#utility.yul\":4672:4719   */\n              mstore\n                /* \"#utility.yul\":4736:4867   */\n              tag_105\n                /* \"#utility.yul\":4862:4866   */\n              dup2\n                /* \"#utility.yul\":4736:4867   */\n              tag_59\n              jump\t// in\n            tag_105:\n                /* \"#utility.yul\":4728:4867   */\n              swap1\n              pop\n                /* \"#utility.yul\":4455:4874   */\n              swap2\n              swap1\n              pop\n              jump\t// out\n\n            auxdata: 0xa264697066735822122072e7ac8a134eb6b516d4ba864838b1f75901825f6d8b482291a4434724150a8864736f6c634300080c0033\n        }\n    }\n\n    sub_1: assembly {\n            /* \"Contracts\":10684:12615  contract AccountabilityContract {... */\n          mstore(0x40, 0x80)\n            /* \"Contracts\":10982:11351  constructor(address _creator, address _referee, string memory _name, string memory _description, address _failureRecipient, uint _amount) payable {... */\n          mload(0x40)\n          sub(codesize, bytecodeSize)\n          dup1\n          bytecodeSize\n          dup4\n          codecopy\n          dup2\n          dup2\n          add\n          0x40\n          mstore\n          dup2\n          add\n          swap1\n          tag_1\n          swap2\n          swap1\n          tag_2\n          jump\t// in\n        tag_1:\n            /* \"Contracts\":11148:11156  _creator */\n          dup6\n            /* \"Contracts\":11138:11145  creator */\n          0x00\n          dup1\n            /* \"Contracts\":11138:11156  creator = _creator */\n          0x0100\n          exp\n          dup2\n          sload\n          dup2\n          0xffffffffffffffffffffffffffffffffffffffff\n          mul\n          not\n          and\n          swap1\n          dup4\n          0xffffffffffffffffffffffffffffffffffffffff\n          and\n          mul\n          or\n          swap1\n          sstore\n          pop\n            /* \"Contracts\":11176:11184  _referee */\n          dup5\n            /* \"Contracts\":11166:11173  referee */\n          0x01\n          0x00\n            /* \"Contracts\":11166:11184  referee = _referee */\n          0x0100\n          exp\n          dup2\n          sload\n          dup2\n          0xffffffffffffffffffffffffffffffffffffffff\n          mul\n          not\n          and\n          swap1\n          dup4\n          0xffffffffffffffffffffffffffffffffffffffff\n          and\n          mul\n          or\n          swap1\n          sstore\n          pop\n            /* \"Contracts\":11201:11206  _name */\n          dup4\n            /* \"Contracts\":11194:11198  name */\n          0x02\n            /* \"Contracts\":11194:11206  name = _name */\n          swap1\n          dup1\n          mload\n          swap1\n          0x20\n          add\n          swap1\n          tag_5\n          swap3\n          swap2\n          swap1\n          tag_6\n          jump\t// in\n        tag_5:\n          pop\n            /* \"Contracts\":11230:11242  _description */\n          dup3\n            /* \"Contracts\":11216:11227  description */\n          0x03\n            /* \"Contracts\":11216:11242  description = _description */\n          swap1\n          dup1\n          mload\n          swap1\n          0x20\n          add\n          swap1\n          tag_7\n          swap3\n          swap2\n          swap1\n          tag_6\n          jump\t// in\n        tag_7:\n          pop\n            /* \"Contracts\":11271:11288  _failureRecipient */\n          dup2\n            /* \"Contracts\":11252:11268  failureRecipient */\n          0x04\n          0x00\n            /* \"Contracts\":11252:11288  failureRecipient = _failureRecipient */\n          0x0100\n          exp\n          dup2\n          sload\n          dup2\n          0xffffffffffffffffffffffffffffffffffffffff\n          mul\n          not\n          and\n          swap1\n          dup4\n          0xffffffffffffffffffffffffffffffffffffffff\n          and\n          mul\n          or\n          swap1\n          sstore\n          pop\n            /* \"Contracts\":11307:11314  _amount */\n          dup1\n            /* \"Contracts\":11298:11304  amount */\n          0x05\n            /* \"Contracts\":11298:11314  amount = _amount */\n          dup2\n          swap1\n          sstore\n          pop\n            /* \"Contracts\":11333:11344  Status.OPEN */\n          0x00\n            /* \"Contracts\":11324:11330  status */\n          0x06\n          0x00\n            /* \"Contracts\":11324:11344  status = Status.OPEN */\n          0x0100\n          exp\n          dup2\n          sload\n          dup2\n          0xff\n          mul\n          not\n          and\n          swap1\n          dup4\n          0x03\n          dup2\n          gt\n          iszero\n          tag_8\n          jumpi\n          tag_9\n          tag_10\n          jump\t// in\n        tag_9:\n        tag_8:\n          mul\n          or\n          swap1\n          sstore\n          pop\n            /* \"Contracts\":10982:11351  constructor(address _creator, address _referee, string memory _name, string memory _description, address _failureRecipient, uint _amount) payable {... */\n          pop\n          pop\n          pop\n          pop\n          pop\n          pop\n            /* \"Contracts\":10684:12615  contract AccountabilityContract {... */\n          jump(tag_11)\n        tag_6:\n          dup3\n          dup1\n          sload\n          tag_12\n          swap1\n          tag_13\n          jump\t// in\n        tag_12:\n          swap1\n          0x00\n          mstore\n          keccak256(0x00, 0x20)\n          swap1\n          0x1f\n          add\n          0x20\n          swap1\n          div\n          dup2\n          add\n          swap3\n          dup3\n          tag_15\n          jumpi\n          0x00\n          dup6\n          sstore\n          jump(tag_14)\n        tag_15:\n          dup3\n          0x1f\n          lt\n          tag_16\n          jumpi\n          dup1\n          mload\n          not(0xff)\n          and\n          dup4\n          dup1\n          add\n          or\n          dup6\n          sstore\n          jump(tag_14)\n        tag_16:\n          dup3\n          dup1\n          add\n          0x01\n          add\n          dup6\n          sstore\n          dup3\n          iszero\n          tag_14\n          jumpi\n          swap2\n          dup3\n          add\n        tag_17:\n          dup3\n          dup2\n          gt\n          iszero\n          tag_18\n          jumpi\n          dup3\n          mload\n          dup3\n          sstore\n          swap2\n          0x20\n          add\n          swap2\n          swap1\n          0x01\n          add\n          swap1\n          jump(tag_17)\n        tag_18:\n        tag_14:\n          pop\n          swap1\n          pop\n          tag_19\n          swap2\n          swap1\n          tag_20\n          jump\t// in\n        tag_19:\n          pop\n          swap1\n          jump\t// out\n        tag_20:\n        tag_21:\n          dup1\n          dup3\n          gt\n          iszero\n          tag_22\n          jumpi\n          0x00\n          dup2\n          0x00\n          swap1\n          sstore\n          pop\n          0x01\n          add\n          jump(tag_21)\n        tag_22:\n          pop\n          swap1\n          jump\t// out\n            /* \"#utility.yul\":7:82   */\n        tag_23:\n            /* \"#utility.yul\":40:46   */\n          0x00\n            /* \"#utility.yul\":73:75   */\n          0x40\n            /* \"#utility.yul\":67:76   */\n          mload\n            /* \"#utility.yul\":57:76   */\n          swap1\n          pop\n            /* \"#utility.yul\":7:82   */\n          swap1\n          jump\t// out\n            /* \"#utility.yul\":88:205   */\n        tag_24:\n            /* \"#utility.yul\":197:198   */\n          0x00\n            /* \"#utility.yul\":194:195   */\n          dup1\n            /* \"#utility.yul\":187:199   */\n          revert\n            /* \"#utility.yul\":211:328   */\n        tag_25:\n            /* \"#utility.yul\":320:321   */\n          0x00\n            /* \"#utility.yul\":317:318   */\n          dup1\n            /* \"#utility.yul\":310:322   */\n          revert\n            /* \"#utility.yul\":334:460   */\n        tag_26:\n            /* \"#utility.yul\":371:378   */\n          0x00\n            /* \"#utility.yul\":411:453   */\n          0xffffffffffffffffffffffffffffffffffffffff\n            /* \"#utility.yul\":404:409   */\n          dup3\n            /* \"#utility.yul\":400:454   */\n          and\n            /* \"#utility.yul\":389:454   */\n          swap1\n          pop\n            /* \"#utility.yul\":334:460   */\n          swap2\n          swap1\n          pop\n          jump\t// out\n            /* \"#utility.yul\":466:562   */\n        tag_27:\n            /* \"#utility.yul\":503:510   */\n          0x00\n            /* \"#utility.yul\":532:556   */\n          tag_50\n            /* \"#utility.yul\":550:555   */\n          dup3\n            /* \"#utility.yul\":532:556   */\n          tag_26\n          jump\t// in\n        tag_50:\n            /* \"#utility.yul\":521:556   */\n          swap1\n          pop\n            /* \"#utility.yul\":466:562   */\n          swap2\n          swap1\n          pop\n          jump\t// out\n            /* \"#utility.yul\":568:690   */\n        tag_28:\n            /* \"#utility.yul\":641:665   */\n          tag_52\n            /* \"#utility.yul\":659:664   */\n          dup2\n            /* \"#utility.yul\":641:665   */\n          tag_27\n          jump\t// in\n        tag_52:\n            /* \"#utility.yul\":634:639   */\n          dup2\n            /* \"#utility.yul\":631:666   */\n          eq\n            /* \"#utility.yul\":621:684   */\n          tag_53\n          jumpi\n            /* \"#utility.yul\":680:681   */\n          0x00\n            /* \"#utility.yul\":677:678   */\n          dup1\n            /* \"#utility.yul\":670:682   */\n          revert\n            /* \"#utility.yul\":621:684   */\n        tag_53:\n            /* \"#utility.yul\":568:690   */\n          pop\n          jump\t// out\n            /* \"#utility.yul\":696:839   */\n        tag_29:\n            /* \"#utility.yul\":753:758   */\n          0x00\n            /* \"#utility.yul\":784:790   */\n          dup2\n            /* \"#utility.yul\":778:791   */\n          mload\n            /* \"#utility.yul\":769:791   */\n          swap1\n          pop\n            /* \"#utility.yul\":800:833   */\n          tag_55\n            /* \"#utility.yul\":827:832   */\n          dup2\n            /* \"#utility.yul\":800:833   */\n          tag_28\n          jump\t// in\n        tag_55:\n            /* \"#utility.yul\":696:839   */\n          swap3\n          swap2\n          pop\n          pop\n          jump\t// out\n            /* \"#utility.yul\":845:962   */\n        tag_30:\n            /* \"#utility.yul\":954:955   */\n          0x00\n            /* \"#utility.yul\":951:952   */\n          dup1\n            /* \"#utility.yul\":944:956   */\n          revert\n            /* \"#utility.yul\":968:1085   */\n        tag_31:\n            /* \"#utility.yul\":1077:1078   */\n          0x00\n            /* \"#utility.yul\":1074:1075   */\n          dup1\n            /* \"#utility.yul\":1067:1079   */\n          revert\n            /* \"#utility.yul\":1091:1193   */\n        tag_32:\n            /* \"#utility.yul\":1132:1138   */\n          0x00\n            /* \"#utility.yul\":1183:1185   */\n          0x1f\n            /* \"#utility.yul\":1179:1186   */\n          not\n            /* \"#utility.yul\":1174:1176   */\n          0x1f\n            /* \"#utility.yul\":1167:1172   */\n          dup4\n            /* \"#utility.yul\":1163:1177   */\n          add\n            /* \"#utility.yul\":1159:1187   */\n          and\n            /* \"#utility.yul\":1149:1187   */\n          swap1\n          pop\n            /* \"#utility.yul\":1091:1193   */\n          swap2\n          swap1\n          pop\n          jump\t// out\n            /* \"#utility.yul\":1199:1379   */\n        tag_33:\n            /* \"#utility.yul\":1247:1324   */\n          0x4e487b7100000000000000000000000000000000000000000000000000000000\n            /* \"#utility.yul\":1244:1245   */\n          0x00\n            /* \"#utility.yul\":1237:1325   */\n          mstore\n            /* \"#utility.yul\":1344:1348   */\n          0x41\n            /* \"#utility.yul\":1341:1342   */\n          0x04\n            /* \"#utility.yul\":1334:1349   */\n          mstore\n            /* \"#utility.yul\":1368:1372   */\n          0x24\n            /* \"#utility.yul\":1365:1366   */\n          0x00\n            /* \"#utility.yul\":1358:1373   */\n          revert\n            /* \"#utility.yul\":1385:1666   */\n        tag_34:\n            /* \"#utility.yul\":1468:1495   */\n          tag_61\n            /* \"#utility.yul\":1490:1494   */\n          dup3\n            /* \"#utility.yul\":1468:1495   */\n          tag_32\n          jump\t// in\n        tag_61:\n            /* \"#utility.yul\":1460:1466   */\n          dup2\n            /* \"#utility.yul\":1456:1496   */\n          add\n            /* \"#utility.yul\":1598:1604   */\n          dup2\n            /* \"#utility.yul\":1586:1596   */\n          dup2\n            /* \"#utility.yul\":1583:1605   */\n          lt\n            /* \"#utility.yul\":1562:1580   */\n          0xffffffffffffffff\n            /* \"#utility.yul\":1550:1560   */\n          dup3\n            /* \"#utility.yul\":1547:1581   */\n          gt\n            /* \"#utility.yul\":1544:1606   */\n          or\n            /* \"#utility.yul\":1541:1629   */\n          iszero\n          tag_62\n          jumpi\n            /* \"#utility.yul\":1609:1627   */\n          tag_63\n          tag_33\n          jump\t// in\n        tag_63:\n            /* \"#utility.yul\":1541:1629   */\n        tag_62:\n            /* \"#utility.yul\":1649:1659   */\n          dup1\n            /* \"#utility.yul\":1645:1647   */\n          0x40\n            /* \"#utility.yul\":1638:1660   */\n          mstore\n            /* \"#utility.yul\":1428:1666   */\n          pop\n            /* \"#utility.yul\":1385:1666   */\n          pop\n          pop\n          jump\t// out\n            /* \"#utility.yul\":1672:1801   */\n        tag_35:\n            /* \"#utility.yul\":1706:1712   */\n          0x00\n            /* \"#utility.yul\":1733:1753   */\n          tag_65\n          tag_23\n          jump\t// in\n        tag_65:\n            /* \"#utility.yul\":1723:1753   */\n          swap1\n          pop\n            /* \"#utility.yul\":1762:1795   */\n          tag_66\n            /* \"#utility.yul\":1790:1794   */\n          dup3\n            /* \"#utility.yul\":1782:1788   */\n          dup3\n            /* \"#utility.yul\":1762:1795   */\n          tag_34\n          jump\t// in\n        tag_66:\n            /* \"#utility.yul\":1672:1801   */\n          swap2\n          swap1\n          pop\n          jump\t// out\n            /* \"#utility.yul\":1807:2115   */\n        tag_36:\n            /* \"#utility.yul\":1869:1873   */\n          0x00\n            /* \"#utility.yul\":1959:1977   */\n          0xffffffffffffffff\n            /* \"#utility.yul\":1951:1957   */\n          dup3\n            /* \"#utility.yul\":1948:1978   */\n          gt\n            /* \"#utility.yul\":1945:2001   */\n          iszero\n          tag_68\n          jumpi\n            /* \"#utility.yul\":1981:1999   */\n          tag_69\n          tag_33\n          jump\t// in\n        tag_69:\n            /* \"#utility.yul\":1945:2001   */\n        tag_68:\n            /* \"#utility.yul\":2019:2048   */\n          tag_70\n            /* \"#utility.yul\":2041:2047   */\n          dup3\n            /* \"#utility.yul\":2019:2048   */\n          tag_32\n          jump\t// in\n        tag_70:\n            /* \"#utility.yul\":2011:2048   */\n          swap1\n          pop\n            /* \"#utility.yul\":2103:2107   */\n          0x20\n            /* \"#utility.yul\":2097:2101   */\n          dup2\n            /* \"#utility.yul\":2093:2108   */\n          add\n            /* \"#utility.yul\":2085:2108   */\n          swap1\n          pop\n            /* \"#utility.yul\":1807:2115   */\n          swap2\n          swap1\n          pop\n          jump\t// out\n            /* \"#utility.yul\":2121:2428   */\n        tag_37:\n            /* \"#utility.yul\":2189:2190   */\n          0x00\n            /* \"#utility.yul\":2199:2312   */\n        tag_72:\n            /* \"#utility.yul\":2213:2219   */\n          dup4\n            /* \"#utility.yul\":2210:2211   */\n          dup2\n            /* \"#utility.yul\":2207:2220   */\n          lt\n            /* \"#utility.yul\":2199:2312   */\n          iszero\n          tag_74\n          jumpi\n            /* \"#utility.yul\":2298:2299   */\n          dup1\n            /* \"#utility.yul\":2293:2296   */\n          dup3\n            /* \"#utility.yul\":2289:2300   */\n          add\n            /* \"#utility.yul\":2283:2301   */\n          mload\n            /* \"#utility.yul\":2279:2280   */\n          dup2\n            /* \"#utility.yul\":2274:2277   */\n          dup5\n            /* \"#utility.yul\":2270:2281   */\n          add\n            /* \"#utility.yul\":2263:2302   */\n          mstore\n            /* \"#utility.yul\":2235:2237   */\n          0x20\n            /* \"#utility.yul\":2232:2233   */\n          dup2\n            /* \"#utility.yul\":2228:2238   */\n          add\n            /* \"#utility.yul\":2223:2238   */\n          swap1\n          pop\n            /* \"#utility.yul\":2199:2312   */\n          jump(tag_72)\n        tag_74:\n            /* \"#utility.yul\":2330:2336   */\n          dup4\n            /* \"#utility.yul\":2327:2328   */\n          dup2\n            /* \"#utility.yul\":2324:2337   */\n          gt\n            /* \"#utility.yul\":2321:2422   */\n          iszero\n          tag_75\n          jumpi\n            /* \"#utility.yul\":2410:2411   */\n          0x00\n            /* \"#utility.yul\":2401:2407   */\n          dup5\n            /* \"#utility.yul\":2396:2399   */\n          dup5\n            /* \"#utility.yul\":2392:2408   */\n          add\n            /* \"#utility.yul\":2385:2412   */\n          mstore\n            /* \"#utility.yul\":2321:2422   */\n        tag_75:\n            /* \"#utility.yul\":2170:2428   */\n          pop\n            /* \"#utility.yul\":2121:2428   */\n          pop\n          pop\n          pop\n          jump\t// out\n            /* \"#utility.yul\":2434:2855   */\n        tag_38:\n            /* \"#utility.yul\":2523:2528   */\n          0x00\n            /* \"#utility.yul\":2548:2614   */\n          tag_77\n            /* \"#utility.yul\":2564:2613   */\n          tag_78\n            /* \"#utility.yul\":2606:2612   */\n          dup5\n            /* \"#utility.yul\":2564:2613   */\n          tag_36\n          jump\t// in\n        tag_78:\n            /* \"#utility.yul\":2548:2614   */\n          tag_35\n          jump\t// in\n        tag_77:\n            /* \"#utility.yul\":2539:2614   */\n          swap1\n          pop\n            /* \"#utility.yul\":2637:2643   */\n          dup3\n            /* \"#utility.yul\":2630:2635   */\n          dup2\n            /* \"#utility.yul\":2623:2644   */\n          mstore\n            /* \"#utility.yul\":2675:2679   */\n          0x20\n            /* \"#utility.yul\":2668:2673   */\n          dup2\n            /* \"#utility.yul\":2664:2680   */\n          add\n            /* \"#utility.yul\":2713:2716   */\n          dup5\n            /* \"#utility.yul\":2704:2710   */\n          dup5\n            /* \"#utility.yul\":2699:2702   */\n          dup5\n            /* \"#utility.yul\":2695:2711   */\n          add\n            /* \"#utility.yul\":2692:2717   */\n          gt\n            /* \"#utility.yul\":2689:2801   */\n          iszero\n          tag_79\n          jumpi\n            /* \"#utility.yul\":2720:2799   */\n          tag_80\n          tag_31\n          jump\t// in\n        tag_80:\n            /* \"#utility.yul\":2689:2801   */\n        tag_79:\n            /* \"#utility.yul\":2810:2849   */\n          tag_81\n            /* \"#utility.yul\":2842:2848   */\n          dup5\n            /* \"#utility.yul\":2837:2840   */\n          dup3\n            /* \"#utility.yul\":2832:2835   */\n          dup6\n            /* \"#utility.yul\":2810:2849   */\n          tag_37\n          jump\t// in\n        tag_81:\n            /* \"#utility.yul\":2529:2855   */\n          pop\n            /* \"#utility.yul\":2434:2855   */\n          swap4\n          swap3\n          pop\n          pop\n          pop\n          jump\t// out\n            /* \"#utility.yul\":2875:3230   */\n        tag_39:\n            /* \"#utility.yul\":2942:2947   */\n          0x00\n            /* \"#utility.yul\":2991:2994   */\n          dup3\n            /* \"#utility.yul\":2984:2988   */\n          0x1f\n            /* \"#utility.yul\":2976:2982   */\n          dup4\n            /* \"#utility.yul\":2972:2989   */\n          add\n            /* \"#utility.yul\":2968:2995   */\n          slt\n            /* \"#utility.yul\":2958:3080   */\n          tag_83\n          jumpi\n            /* \"#utility.yul\":2999:3078   */\n          tag_84\n          tag_30\n          jump\t// in\n        tag_84:\n            /* \"#utility.yul\":2958:3080   */\n        tag_83:\n            /* \"#utility.yul\":3109:3115   */\n          dup2\n            /* \"#utility.yul\":3103:3116   */\n          mload\n            /* \"#utility.yul\":3134:3224   */\n          tag_85\n            /* \"#utility.yul\":3220:3223   */\n          dup5\n            /* \"#utility.yul\":3212:3218   */\n          dup3\n            /* \"#utility.yul\":3205:3209   */\n          0x20\n            /* \"#utility.yul\":3197:3203   */\n          dup7\n            /* \"#utility.yul\":3193:3210   */\n          add\n            /* \"#utility.yul\":3134:3224   */\n          tag_38\n          jump\t// in\n        tag_85:\n            /* \"#utility.yul\":3125:3224   */\n          swap2\n          pop\n            /* \"#utility.yul\":2948:3230   */\n          pop\n            /* \"#utility.yul\":2875:3230   */\n          swap3\n          swap2\n          pop\n          pop\n          jump\t// out\n            /* \"#utility.yul\":3236:3313   */\n        tag_40:\n            /* \"#utility.yul\":3273:3280   */\n          0x00\n            /* \"#utility.yul\":3302:3307   */\n          dup2\n            /* \"#utility.yul\":3291:3307   */\n          swap1\n          pop\n            /* \"#utility.yul\":3236:3313   */\n          swap2\n          swap1\n          pop\n          jump\t// out\n            /* \"#utility.yul\":3319:3441   */\n        tag_41:\n            /* \"#utility.yul\":3392:3416   */\n          tag_88\n            /* \"#utility.yul\":3410:3415   */\n          dup2\n            /* \"#utility.yul\":3392:3416   */\n          tag_40\n          jump\t// in\n        tag_88:\n            /* \"#utility.yul\":3385:3390   */\n          dup2\n            /* \"#utility.yul\":3382:3417   */\n          eq\n            /* \"#utility.yul\":3372:3435   */\n          tag_89\n          jumpi\n            /* \"#utility.yul\":3431:3432   */\n          0x00\n            /* \"#utility.yul\":3428:3429   */\n          dup1\n            /* \"#utility.yul\":3421:3433   */\n          revert\n            /* \"#utility.yul\":3372:3435   */\n        tag_89:\n            /* \"#utility.yul\":3319:3441   */\n          pop\n          jump\t// out\n            /* \"#utility.yul\":3447:3590   */\n        tag_42:\n            /* \"#utility.yul\":3504:3509   */\n          0x00\n            /* \"#utility.yul\":3535:3541   */\n          dup2\n            /* \"#utility.yul\":3529:3542   */\n          mload\n            /* \"#utility.yul\":3520:3542   */\n          swap1\n          pop\n            /* \"#utility.yul\":3551:3584   */\n          tag_91\n            /* \"#utility.yul\":3578:3583   */\n          dup2\n            /* \"#utility.yul\":3551:3584   */\n          tag_41\n          jump\t// in\n        tag_91:\n            /* \"#utility.yul\":3447:3590   */\n          swap3\n          swap2\n          pop\n          pop\n          jump\t// out\n            /* \"#utility.yul\":3596:5076   */\n        tag_2:\n            /* \"#utility.yul\":3731:3737   */\n          0x00\n            /* \"#utility.yul\":3739:3745   */\n          dup1\n            /* \"#utility.yul\":3747:3753   */\n          0x00\n            /* \"#utility.yul\":3755:3761   */\n          dup1\n            /* \"#utility.yul\":3763:3769   */\n          0x00\n            /* \"#utility.yul\":3771:3777   */\n          dup1\n            /* \"#utility.yul\":3820:3823   */\n          0xc0\n            /* \"#utility.yul\":3808:3817   */\n          dup8\n            /* \"#utility.yul\":3799:3806   */\n          dup10\n            /* \"#utility.yul\":3795:3818   */\n          sub\n            /* \"#utility.yul\":3791:3824   */\n          slt\n            /* \"#utility.yul\":3788:3908   */\n          iszero\n          tag_93\n          jumpi\n            /* \"#utility.yul\":3827:3906   */\n          tag_94\n          tag_24\n          jump\t// in\n        tag_94:\n            /* \"#utility.yul\":3788:3908   */\n        tag_93:\n            /* \"#utility.yul\":3947:3948   */\n          0x00\n            /* \"#utility.yul\":3972:4036   */\n          tag_95\n            /* \"#utility.yul\":4028:4035   */\n          dup10\n            /* \"#utility.yul\":4019:4025   */\n          dup3\n            /* \"#utility.yul\":4008:4017   */\n          dup11\n            /* \"#utility.yul\":4004:4026   */\n          add\n            /* \"#utility.yul\":3972:4036   */\n          tag_29\n          jump\t// in\n        tag_95:\n            /* \"#utility.yul\":3962:4036   */\n          swap7\n          pop\n            /* \"#utility.yul\":3918:4046   */\n          pop\n            /* \"#utility.yul\":4085:4087   */\n          0x20\n            /* \"#utility.yul\":4111:4175   */\n          tag_96\n            /* \"#utility.yul\":4167:4174   */\n          dup10\n            /* \"#utility.yul\":4158:4164   */\n          dup3\n            /* \"#utility.yul\":4147:4156   */\n          dup11\n            /* \"#utility.yul\":4143:4165   */\n          add\n            /* \"#utility.yul\":4111:4175   */\n          tag_29\n          jump\t// in\n        tag_96:\n            /* \"#utility.yul\":4101:4175   */\n          swap6\n          pop\n            /* \"#utility.yul\":4056:4185   */\n          pop\n            /* \"#utility.yul\":4245:4247   */\n          0x40\n            /* \"#utility.yul\":4234:4243   */\n          dup8\n            /* \"#utility.yul\":4230:4248   */\n          add\n            /* \"#utility.yul\":4224:4249   */\n          mload\n            /* \"#utility.yul\":4276:4294   */\n          0xffffffffffffffff\n            /* \"#utility.yul\":4268:4274   */\n          dup2\n            /* \"#utility.yul\":4265:4295   */\n          gt\n            /* \"#utility.yul\":4262:4379   */\n          iszero\n          tag_97\n          jumpi\n            /* \"#utility.yul\":4298:4377   */\n          tag_98\n          tag_25\n          jump\t// in\n        tag_98:\n            /* \"#utility.yul\":4262:4379   */\n        tag_97:\n            /* \"#utility.yul\":4403:4477   */\n          tag_99\n            /* \"#utility.yul\":4469:4476   */\n          dup10\n            /* \"#utility.yul\":4460:4466   */\n          dup3\n            /* \"#utility.yul\":4449:4458   */\n          dup11\n            /* \"#utility.yul\":4445:4467   */\n          add\n            /* \"#utility.yul\":4403:4477   */\n          tag_39\n          jump\t// in\n        tag_99:\n            /* \"#utility.yul\":4393:4477   */\n          swap5\n          pop\n            /* \"#utility.yul\":4195:4487   */\n          pop\n            /* \"#utility.yul\":4547:4549   */\n          0x60\n            /* \"#utility.yul\":4536:4545   */\n          dup8\n            /* \"#utility.yul\":4532:4550   */\n          add\n            /* \"#utility.yul\":4526:4551   */\n          mload\n            /* \"#utility.yul\":4578:4596   */\n          0xffffffffffffffff\n            /* \"#utility.yul\":4570:4576   */\n          dup2\n            /* \"#utility.yul\":4567:4597   */\n          gt\n            /* \"#utility.yul\":4564:4681   */\n          iszero\n          tag_100\n          jumpi\n            /* \"#utility.yul\":4600:4679   */\n          tag_101\n          tag_25\n          jump\t// in\n        tag_101:\n            /* \"#utility.yul\":4564:4681   */\n        tag_100:\n            /* \"#utility.yul\":4705:4779   */\n          tag_102\n            /* \"#utility.yul\":4771:4778   */\n          dup10\n            /* \"#utility.yul\":4762:4768   */\n          dup3\n            /* \"#utility.yul\":4751:4760   */\n          dup11\n            /* \"#utility.yul\":4747:4769   */\n          add\n            /* \"#utility.yul\":4705:4779   */\n          tag_39\n          jump\t// in\n        tag_102:\n            /* \"#utility.yul\":4695:4779   */\n          swap4\n          pop\n            /* \"#utility.yul\":4497:4789   */\n          pop\n            /* \"#utility.yul\":4828:4831   */\n          0x80\n            /* \"#utility.yul\":4855:4919   */\n          tag_103\n            /* \"#utility.yul\":4911:4918   */\n          dup10\n            /* \"#utility.yul\":4902:4908   */\n          dup3\n            /* \"#utility.yul\":4891:4900   */\n          dup11\n            /* \"#utility.yul\":4887:4909   */\n          add\n            /* \"#utility.yul\":4855:4919   */\n          tag_29\n          jump\t// in\n        tag_103:\n            /* \"#utility.yul\":4845:4919   */\n          swap3\n          pop\n            /* \"#utility.yul\":4799:4929   */\n          pop\n            /* \"#utility.yul\":4968:4971   */\n          0xa0\n            /* \"#utility.yul\":4995:5059   */\n          tag_104\n            /* \"#utility.yul\":5051:5058   */\n          dup10\n            /* \"#utility.yul\":5042:5048   */\n          dup3\n            /* \"#utility.yul\":5031:5040   */\n          dup11\n            /* \"#utility.yul\":5027:5049   */\n          add\n            /* \"#utility.yul\":4995:5059   */\n          tag_42\n          jump\t// in\n        tag_104:\n            /* \"#utility.yul\":4985:5059   */\n          swap2\n          pop\n            /* \"#utility.yul\":4939:5069   */\n          pop\n            /* \"#utility.yul\":3596:5076   */\n          swap3\n          swap6\n          pop\n          swap3\n          swap6\n          pop\n          swap3\n          swap6\n          jump\t// out\n            /* \"#utility.yul\":5082:5262   */\n        tag_10:\n            /* \"#utility.yul\":5130:5207   */\n          0x4e487b7100000000000000000000000000000000000000000000000000000000\n            /* \"#utility.yul\":5127:5128   */\n          0x00\n            /* \"#utility.yul\":5120:5208   */\n          mstore\n            /* \"#utility.yul\":5227:5231   */\n          0x21\n            /* \"#utility.yul\":5224:5225   */\n          0x04\n            /* \"#utility.yul\":5217:5232   */\n          mstore\n            /* \"#utility.yul\":5251:5255   */\n          0x24\n            /* \"#utility.yul\":5248:5249   */\n          0x00\n            /* \"#utility.yul\":5241:5256   */\n          revert\n            /* \"#utility.yul\":5268:5448   */\n        tag_43:\n            /* \"#utility.yul\":5316:5393   */\n          0x4e487b7100000000000000000000000000000000000000000000000000000000\n            /* \"#utility.yul\":5313:5314   */\n          0x00\n            /* \"#utility.yul\":5306:5394   */\n          mstore\n            /* \"#utility.yul\":5413:5417   */\n          0x22\n            /* \"#utility.yul\":5410:5411   */\n          0x04\n            /* \"#utility.yul\":5403:5418   */\n          mstore\n            /* \"#utility.yul\":5437:5441   */\n          0x24\n            /* \"#utility.yul\":5434:5435   */\n          0x00\n            /* \"#utility.yul\":5427:5442   */\n          revert\n            /* \"#utility.yul\":5454:5774   */\n        tag_13:\n            /* \"#utility.yul\":5498:5504   */\n          0x00\n            /* \"#utility.yul\":5535:5536   */\n          0x02\n            /* \"#utility.yul\":5529:5533   */\n          dup3\n            /* \"#utility.yul\":5525:5537   */\n          div\n            /* \"#utility.yul\":5515:5537   */\n          swap1\n          pop\n            /* \"#utility.yul\":5582:5583   */\n          0x01\n            /* \"#utility.yul\":5576:5580   */\n          dup3\n            /* \"#utility.yul\":5572:5584   */\n          and\n            /* \"#utility.yul\":5603:5621   */\n          dup1\n            /* \"#utility.yul\":5593:5674   */\n          tag_108\n          jumpi\n            /* \"#utility.yul\":5659:5663   */\n          0x7f\n            /* \"#utility.yul\":5651:5657   */\n          dup3\n            /* \"#utility.yul\":5647:5664   */\n          and\n            /* \"#utility.yul\":5637:5664   */\n          swap2\n          pop\n            /* \"#utility.yul\":5593:5674   */\n        tag_108:\n            /* \"#utility.yul\":5721:5723   */\n          0x20\n            /* \"#utility.yul\":5713:5719   */\n          dup3\n            /* \"#utility.yul\":5710:5724   */\n          lt\n            /* \"#utility.yul\":5690:5708   */\n          dup2\n            /* \"#utility.yul\":5687:5725   */\n          eq\n            /* \"#utility.yul\":5684:5768   */\n          iszero\n          tag_109\n          jumpi\n            /* \"#utility.yul\":5740:5758   */\n          tag_110\n          tag_43\n          jump\t// in\n        tag_110:\n            /* \"#utility.yul\":5684:5768   */\n        tag_109:\n            /* \"#utility.yul\":5505:5774   */\n          pop\n            /* \"#utility.yul\":5454:5774   */\n          swap2\n          swap1\n          pop\n          jump\t// out\n            /* \"Contracts\":10684:12615  contract AccountabilityContract {... */\n        tag_11:\n          dataSize(sub_0)\n          dup1\n          dataOffset(sub_0)\n          0x00\n          codecopy\n          0x00\n          return\n        stop\n\n        sub_0: assembly {\n                /* \"Contracts\":10684:12615  contract AccountabilityContract {... */\n              mstore(0x40, 0x80)\n              jumpi(tag_1, lt(calldatasize, 0x04))\n              shr(0xe0, calldataload(0x00))\n              dup1\n              0x4177fe51\n              gt\n              tag_13\n              jumpi\n              dup1\n              0x4177fe51\n              eq\n              tag_7\n              jumpi\n              dup1\n              0x7284e416\n              eq\n              tag_8\n              jumpi\n              dup1\n              0xaa8c217c\n              eq\n              tag_9\n              jumpi\n              dup1\n              0xb4fedc11\n              eq\n              tag_10\n              jumpi\n              dup1\n              0xd1f0047b\n              eq\n              tag_11\n              jumpi\n              dup1\n              0xf7cc7e4e\n              eq\n              tag_12\n              jumpi\n              jump(tag_1)\n            tag_13:\n              dup1\n              0x02d05d3f\n              eq\n              tag_2\n              jumpi\n              dup1\n              0x06fdde03\n              eq\n              tag_3\n              jumpi\n              dup1\n              0x200d2ed2\n              eq\n              tag_4\n              jumpi\n              dup1\n              0x2d398fa6\n              eq\n              tag_5\n              jumpi\n              dup1\n              0x3b1bebd1\n              eq\n              tag_6\n              jumpi\n            tag_1:\n              0x00\n              dup1\n              revert\n                /* \"Contracts\":10783:10805  address public creator */\n            tag_2:\n              callvalue\n              dup1\n              iszero\n              tag_14\n              jumpi\n              0x00\n              dup1\n              revert\n            tag_14:\n              pop\n              tag_15\n              tag_16\n              jump\t// in\n            tag_15:\n              mload(0x40)\n              tag_17\n              swap2\n              swap1\n              tag_18\n              jump\t// in\n            tag_17:\n              mload(0x40)\n              dup1\n              swap2\n              sub\n              swap1\n              return\n                /* \"Contracts\":10839:10857  string public name */\n            tag_3:\n              callvalue\n              dup1\n              iszero\n              tag_19\n              jumpi\n              0x00\n              dup1\n              revert\n            tag_19:\n              pop\n              tag_20\n              tag_21\n              jump\t// in\n            tag_20:\n              mload(0x40)\n              tag_22\n              swap2\n              swap1\n              tag_23\n              jump\t// in\n            tag_22:\n              mload(0x40)\n              dup1\n              swap2\n              sub\n              swap1\n              return\n                /* \"Contracts\":10955:10975  Status public status */\n            tag_4:\n              callvalue\n              dup1\n              iszero\n              tag_24\n              jumpi\n              0x00\n              dup1\n              revert\n            tag_24:\n              pop\n              tag_25\n              tag_26\n              jump\t// in\n            tag_25:\n              mload(0x40)\n              tag_27\n              swap2\n              swap1\n              tag_28\n              jump\t// in\n            tag_27:\n              mload(0x40)\n              dup1\n              swap2\n              sub\n              swap1\n              return\n                /* \"Contracts\":11870:12255  function failContract() public payable {... */\n            tag_5:\n              tag_29\n              tag_30\n              jump\t// in\n            tag_29:\n              stop\n                /* \"Contracts\":10811:10833  address public referee */\n            tag_6:\n              callvalue\n              dup1\n              iszero\n              tag_31\n              jumpi\n              0x00\n              dup1\n              revert\n            tag_31:\n              pop\n              tag_32\n              tag_33\n              jump\t// in\n            tag_32:\n              mload(0x40)\n              tag_34\n              swap2\n              swap1\n              tag_18\n              jump\t// in\n            tag_34:\n              mload(0x40)\n              dup1\n              swap2\n              sub\n              swap1\n              return\n                /* \"Contracts\":10894:10925  address public failureRecipient */\n            tag_7:\n              callvalue\n              dup1\n              iszero\n              tag_35\n              jumpi\n              0x00\n              dup1\n              revert\n            tag_35:\n              pop\n              tag_36\n              tag_37\n              jump\t// in\n            tag_36:\n              mload(0x40)\n              tag_38\n              swap2\n              swap1\n              tag_18\n              jump\t// in\n            tag_38:\n              mload(0x40)\n              dup1\n              swap2\n              sub\n              swap1\n              return\n                /* \"Contracts\":10863:10888  string public description */\n            tag_8:\n              callvalue\n              dup1\n              iszero\n              tag_39\n              jumpi\n              0x00\n              dup1\n              revert\n            tag_39:\n              pop\n              tag_40\n              tag_41\n              jump\t// in\n            tag_40:\n              mload(0x40)\n              tag_42\n              swap2\n              swap1\n              tag_23\n              jump\t// in\n            tag_42:\n              mload(0x40)\n              dup1\n              swap2\n              sub\n              swap1\n              return\n                /* \"Contracts\":10931:10949  uint public amount */\n            tag_9:\n              callvalue\n              dup1\n              iszero\n              tag_43\n              jumpi\n              0x00\n              dup1\n              revert\n            tag_43:\n              pop\n              tag_44\n              tag_45\n              jump\t// in\n            tag_44:\n              mload(0x40)\n              tag_46\n              swap2\n              swap1\n              tag_47\n              jump\t// in\n            tag_46:\n              mload(0x40)\n              dup1\n              swap2\n              sub\n              swap1\n              return\n                /* \"Contracts\":12262:12613  function completeContract() public payable {... */\n            tag_10:\n              tag_48\n              tag_49\n              jump\t// in\n            tag_48:\n              stop\n                /* \"Contracts\":11612:11863  function setStatusToAwaitingApproval()  public {... */\n            tag_11:\n              callvalue\n              dup1\n              iszero\n              tag_50\n              jumpi\n              0x00\n              dup1\n              revert\n            tag_50:\n              pop\n              tag_51\n              tag_52\n              jump\t// in\n            tag_51:\n              stop\n                /* \"Contracts\":11357:11605  function setStatusToOpen()  public {... */\n            tag_12:\n              callvalue\n              dup1\n              iszero\n              tag_53\n              jumpi\n              0x00\n              dup1\n              revert\n            tag_53:\n              pop\n              tag_54\n              tag_55\n              jump\t// in\n            tag_54:\n              stop\n                /* \"Contracts\":10783:10805  address public creator */\n            tag_16:\n              0x00\n              dup1\n              sload\n              swap1\n              0x0100\n              exp\n              swap1\n              div\n              0xffffffffffffffffffffffffffffffffffffffff\n              and\n              dup2\n              jump\t// out\n                /* \"Contracts\":10839:10857  string public name */\n            tag_21:\n              0x02\n              dup1\n              sload\n              tag_56\n              swap1\n              tag_57\n              jump\t// in\n            tag_56:\n              dup1\n              0x1f\n              add\n              0x20\n              dup1\n              swap2\n              div\n              mul\n              0x20\n              add\n              mload(0x40)\n              swap1\n              dup2\n              add\n              0x40\n              mstore\n              dup1\n              swap3\n              swap2\n              swap1\n              dup2\n              dup2\n              mstore\n              0x20\n              add\n              dup3\n              dup1\n              sload\n              tag_58\n              swap1\n              tag_57\n              jump\t// in\n            tag_58:\n              dup1\n              iszero\n              tag_59\n              jumpi\n              dup1\n              0x1f\n              lt\n              tag_60\n              jumpi\n              0x0100\n              dup1\n              dup4\n              sload\n              div\n              mul\n              dup4\n              mstore\n              swap2\n              0x20\n              add\n              swap2\n              jump(tag_59)\n            tag_60:\n              dup3\n              add\n              swap2\n              swap1\n              0x00\n              mstore\n              keccak256(0x00, 0x20)\n              swap1\n            tag_61:\n              dup2\n              sload\n              dup2\n              mstore\n              swap1\n              0x01\n              add\n              swap1\n              0x20\n              add\n              dup1\n              dup4\n              gt\n              tag_61\n              jumpi\n              dup3\n              swap1\n              sub\n              0x1f\n              and\n              dup3\n              add\n              swap2\n            tag_59:\n              pop\n              pop\n              pop\n              pop\n              pop\n              dup2\n              jump\t// out\n                /* \"Contracts\":10955:10975  Status public status */\n            tag_26:\n              0x06\n              0x00\n              swap1\n              sload\n              swap1\n              0x0100\n              exp\n              swap1\n              div\n              0xff\n              and\n              dup2\n              jump\t// out\n                /* \"Contracts\":11870:12255  function failContract() public payable {... */\n            tag_30:\n                /* \"Contracts\":11937:11948  Status.OPEN */\n              0x00\n                /* \"Contracts\":11927:11948  status == Status.OPEN */\n              0x03\n              dup2\n              gt\n              iszero\n              tag_63\n              jumpi\n              tag_64\n              tag_65\n              jump\t// in\n            tag_64:\n            tag_63:\n                /* \"Contracts\":11927:11933  status */\n              0x06\n              0x00\n              swap1\n              sload\n              swap1\n              0x0100\n              exp\n              swap1\n              div\n              0xff\n              and\n                /* \"Contracts\":11927:11948  status == Status.OPEN */\n              0x03\n              dup2\n              gt\n              iszero\n              tag_66\n              jumpi\n              tag_67\n              tag_65\n              jump\t// in\n            tag_67:\n            tag_66:\n              eq\n                /* \"Contracts\":11927:11986  status == Status.OPEN || status == Status.AWAITING_APPROVAL */\n              dup1\n              tag_68\n              jumpi\n              pop\n                /* \"Contracts\":11962:11986  Status.AWAITING_APPROVAL */\n              0x01\n                /* \"Contracts\":11952:11986  status == Status.AWAITING_APPROVAL */\n              0x03\n              dup2\n              gt\n              iszero\n              tag_69\n              jumpi\n              tag_70\n              tag_65\n              jump\t// in\n            tag_70:\n            tag_69:\n                /* \"Contracts\":11952:11958  status */\n              0x06\n              0x00\n              swap1\n              sload\n              swap1\n              0x0100\n              exp\n              swap1\n              div\n              0xff\n              and\n                /* \"Contracts\":11952:11986  status == Status.AWAITING_APPROVAL */\n              0x03\n              dup2\n              gt\n              iszero\n              tag_71\n              jumpi\n              tag_72\n              tag_65\n              jump\t// in\n            tag_72:\n            tag_71:\n              eq\n                /* \"Contracts\":11927:11986  status == Status.OPEN || status == Status.AWAITING_APPROVAL */\n            tag_68:\n                /* \"Contracts\":11919:12040  require(status == Status.OPEN || status == Status.AWAITING_APPROVAL, \"Contract status must be open or awaiting approval\") */\n              tag_73\n              jumpi\n              mload(0x40)\n              0x08c379a000000000000000000000000000000000000000000000000000000000\n              dup2\n              mstore\n              0x04\n              add\n              tag_74\n              swap1\n              tag_75\n              jump\t// in\n            tag_74:\n              mload(0x40)\n              dup1\n              swap2\n              sub\n              swap1\n              revert\n            tag_73:\n                /* \"Contracts\":12071:12078  referee */\n              0x01\n              0x00\n              swap1\n              sload\n              swap1\n              0x0100\n              exp\n              swap1\n              div\n              0xffffffffffffffffffffffffffffffffffffffff\n              and\n                /* \"Contracts\":12058:12078  tx.origin == referee */\n              0xffffffffffffffffffffffffffffffffffffffff\n              and\n                /* \"Contracts\":12058:12067  tx.origin */\n              origin\n                /* \"Contracts\":12058:12078  tx.origin == referee */\n              0xffffffffffffffffffffffffffffffffffffffff\n              and\n              eq\n                /* \"Contracts\":12058:12102  tx.origin == referee || tx.origin == creator */\n              dup1\n              tag_76\n              jumpi\n              pop\n                /* \"Contracts\":12095:12102  creator */\n              0x00\n              dup1\n              sload\n              swap1\n              0x0100\n              exp\n              swap1\n              div\n              0xffffffffffffffffffffffffffffffffffffffff\n              and\n                /* \"Contracts\":12082:12102  tx.origin == creator */\n              0xffffffffffffffffffffffffffffffffffffffff\n              and\n                /* \"Contracts\":12082:12091  tx.origin */\n              origin\n                /* \"Contracts\":12082:12102  tx.origin == creator */\n              0xffffffffffffffffffffffffffffffffffffffff\n              and\n              eq\n                /* \"Contracts\":12058:12102  tx.origin == referee || tx.origin == creator */\n            tag_76:\n                /* \"Contracts\":12050:12148  require(tx.origin == referee || tx.origin == creator, \"Only referee or creator can fail contract\") */\n              tag_77\n              jumpi\n              mload(0x40)\n              0x08c379a000000000000000000000000000000000000000000000000000000000\n              dup2\n              mstore\n              0x04\n              add\n              tag_78\n              swap1\n              tag_79\n              jump\t// in\n            tag_78:\n              mload(0x40)\n              dup1\n              swap2\n              sub\n              swap1\n              revert\n            tag_77:\n                /* \"Contracts\":12166:12182  failureRecipient */\n              0x04\n              0x00\n              swap1\n              sload\n              swap1\n              0x0100\n              exp\n              swap1\n              div\n              0xffffffffffffffffffffffffffffffffffffffff\n              and\n                /* \"Contracts\":12158:12192  payable(failureRecipient).transfer */\n              0xffffffffffffffffffffffffffffffffffffffff\n              and\n                /* \"Contracts\":12158:12215  payable(failureRecipient).transfer(address(this).balance) */\n              0x08fc\n                /* \"Contracts\":12193:12214  address(this).balance */\n              selfbalance\n                /* \"Contracts\":12158:12215  payable(failureRecipient).transfer(address(this).balance) */\n              swap1\n              dup2\n              iszero\n              mul\n              swap1\n              mload(0x40)\n              0x00\n              mload(0x40)\n              dup1\n              dup4\n              sub\n              dup2\n              dup6\n              dup9\n              dup9\n              call\n              swap4\n              pop\n              pop\n              pop\n              pop\n              iszero\n              dup1\n              iszero\n              tag_81\n              jumpi\n              returndatasize\n              0x00\n              dup1\n              returndatacopy\n              revert(0x00, returndatasize)\n            tag_81:\n              pop\n                /* \"Contracts\":12234:12248  Status.FAILURE */\n              0x03\n                /* \"Contracts\":12225:12231  status */\n              0x06\n              0x00\n                /* \"Contracts\":12225:12248  status = Status.FAILURE */\n              0x0100\n              exp\n              dup2\n              sload\n              dup2\n              0xff\n              mul\n              not\n              and\n              swap1\n              dup4\n              0x03\n              dup2\n              gt\n              iszero\n              tag_82\n              jumpi\n              tag_83\n              tag_65\n              jump\t// in\n            tag_83:\n            tag_82:\n              mul\n              or\n              swap1\n              sstore\n              pop\n                /* \"Contracts\":11870:12255  function failContract() public payable {... */\n              jump\t// out\n                /* \"Contracts\":10811:10833  address public referee */\n            tag_33:\n              0x01\n              0x00\n              swap1\n              sload\n              swap1\n              0x0100\n              exp\n              swap1\n              div\n              0xffffffffffffffffffffffffffffffffffffffff\n              and\n              dup2\n              jump\t// out\n                /* \"Contracts\":10894:10925  address public failureRecipient */\n            tag_37:\n              0x04\n              0x00\n              swap1\n              sload\n              swap1\n              0x0100\n              exp\n              swap1\n              div\n              0xffffffffffffffffffffffffffffffffffffffff\n              and\n              dup2\n              jump\t// out\n                /* \"Contracts\":10863:10888  string public description */\n            tag_41:\n              0x03\n              dup1\n              sload\n              tag_84\n              swap1\n              tag_57\n              jump\t// in\n            tag_84:\n              dup1\n              0x1f\n              add\n              0x20\n              dup1\n              swap2\n              div\n              mul\n              0x20\n              add\n              mload(0x40)\n              swap1\n              dup2\n              add\n              0x40\n              mstore\n              dup1\n              swap3\n              swap2\n              swap1\n              dup2\n              dup2\n              mstore\n              0x20\n              add\n              dup3\n              dup1\n              sload\n              tag_85\n              swap1\n              tag_57\n              jump\t// in\n            tag_85:\n              dup1\n              iszero\n              tag_86\n              jumpi\n              dup1\n              0x1f\n              lt\n              tag_87\n              jumpi\n              0x0100\n              dup1\n              dup4\n              sload\n              div\n              mul\n              dup4\n              mstore\n              swap2\n              0x20\n              add\n              swap2\n              jump(tag_86)\n            tag_87:\n              dup3\n              add\n              swap2\n              swap1\n              0x00\n              mstore\n              keccak256(0x00, 0x20)\n              swap1\n            tag_88:\n              dup2\n              sload\n              dup2\n              mstore\n              swap1\n              0x01\n              add\n              swap1\n              0x20\n              add\n              dup1\n              dup4\n              gt\n              tag_88\n              jumpi\n              dup3\n              swap1\n              sub\n              0x1f\n              and\n              dup3\n              add\n              swap2\n            tag_86:\n              pop\n              pop\n              pop\n              pop\n              pop\n              dup2\n              jump\t// out\n                /* \"Contracts\":10931:10949  uint public amount */\n            tag_45:\n              sload(0x05)\n              dup2\n              jump\t// out\n                /* \"Contracts\":12262:12613  function completeContract() public payable {... */\n            tag_49:\n                /* \"Contracts\":12333:12344  Status.OPEN */\n              0x00\n                /* \"Contracts\":12323:12344  status == Status.OPEN */\n              0x03\n              dup2\n              gt\n              iszero\n              tag_90\n              jumpi\n              tag_91\n              tag_65\n              jump\t// in\n            tag_91:\n            tag_90:\n                /* \"Contracts\":12323:12329  status */\n              0x06\n              0x00\n              swap1\n              sload\n              swap1\n              0x0100\n              exp\n              swap1\n              div\n              0xff\n              and\n                /* \"Contracts\":12323:12344  status == Status.OPEN */\n              0x03\n              dup2\n              gt\n              iszero\n              tag_92\n              jumpi\n              tag_93\n              tag_65\n              jump\t// in\n            tag_93:\n            tag_92:\n              eq\n                /* \"Contracts\":12323:12382  status == Status.OPEN || status == Status.AWAITING_APPROVAL */\n              dup1\n              tag_94\n              jumpi\n              pop\n                /* \"Contracts\":12358:12382  Status.AWAITING_APPROVAL */\n              0x01\n                /* \"Contracts\":12348:12382  status == Status.AWAITING_APPROVAL */\n              0x03\n              dup2\n              gt\n              iszero\n              tag_95\n              jumpi\n              tag_96\n              tag_65\n              jump\t// in\n            tag_96:\n            tag_95:\n                /* \"Contracts\":12348:12354  status */\n              0x06\n              0x00\n              swap1\n              sload\n              swap1\n              0x0100\n              exp\n              swap1\n              div\n              0xff\n              and\n                /* \"Contracts\":12348:12382  status == Status.AWAITING_APPROVAL */\n              0x03\n              dup2\n              gt\n              iszero\n              tag_97\n              jumpi\n              tag_98\n              tag_65\n              jump\t// in\n            tag_98:\n            tag_97:\n              eq\n                /* \"Contracts\":12323:12382  status == Status.OPEN || status == Status.AWAITING_APPROVAL */\n            tag_94:\n                /* \"Contracts\":12315:12436  require(status == Status.OPEN || status == Status.AWAITING_APPROVAL, \"Contract status must be open or awaiting approval\") */\n              tag_99\n              jumpi\n              mload(0x40)\n              0x08c379a000000000000000000000000000000000000000000000000000000000\n              dup2\n              mstore\n              0x04\n              add\n              tag_100\n              swap1\n              tag_75\n              jump\t// in\n            tag_100:\n              mload(0x40)\n              dup1\n              swap2\n              sub\n              swap1\n              revert\n            tag_99:\n                /* \"Contracts\":12467:12474  referee */\n              0x01\n              0x00\n              swap1\n              sload\n              swap1\n              0x0100\n              exp\n              swap1\n              div\n              0xffffffffffffffffffffffffffffffffffffffff\n              and\n                /* \"Contracts\":12454:12474  tx.origin == referee */\n              0xffffffffffffffffffffffffffffffffffffffff\n              and\n                /* \"Contracts\":12454:12463  tx.origin */\n              origin\n                /* \"Contracts\":12454:12474  tx.origin == referee */\n              0xffffffffffffffffffffffffffffffffffffffff\n              and\n              eq\n                /* \"Contracts\":12446:12515  require(tx.origin == referee, \"Only referee can complete a contract\") */\n              tag_101\n              jumpi\n              mload(0x40)\n              0x08c379a000000000000000000000000000000000000000000000000000000000\n              dup2\n              mstore\n              0x04\n              add\n              tag_102\n              swap1\n              tag_103\n              jump\t// in\n            tag_102:\n              mload(0x40)\n              dup1\n              swap2\n              sub\n              swap1\n              revert\n            tag_101:\n                /* \"Contracts\":12533:12540  creator */\n              0x00\n              dup1\n              sload\n              swap1\n              0x0100\n              exp\n              swap1\n              div\n              0xffffffffffffffffffffffffffffffffffffffff\n              and\n                /* \"Contracts\":12525:12550  payable(creator).transfer */\n              0xffffffffffffffffffffffffffffffffffffffff\n              and\n                /* \"Contracts\":12525:12573  payable(creator).transfer(address(this).balance) */\n              0x08fc\n                /* \"Contracts\":12551:12572  address(this).balance */\n              selfbalance\n                /* \"Contracts\":12525:12573  payable(creator).transfer(address(this).balance) */\n              swap1\n              dup2\n              iszero\n              mul\n              swap1\n              mload(0x40)\n              0x00\n              mload(0x40)\n              dup1\n              dup4\n              sub\n              dup2\n              dup6\n              dup9\n              dup9\n              call\n              swap4\n              pop\n              pop\n              pop\n              pop\n              iszero\n              dup1\n              iszero\n              tag_105\n              jumpi\n              returndatasize\n              0x00\n              dup1\n              returndatacopy\n              revert(0x00, returndatasize)\n            tag_105:\n              pop\n                /* \"Contracts\":12592:12606  Status.SUCCESS */\n              0x02\n                /* \"Contracts\":12583:12589  status */\n              0x06\n              0x00\n                /* \"Contracts\":12583:12606  status = Status.SUCCESS */\n              0x0100\n              exp\n              dup2\n              sload\n              dup2\n              0xff\n              mul\n              not\n              and\n              swap1\n              dup4\n              0x03\n              dup2\n              gt\n              iszero\n              tag_106\n              jumpi\n              tag_107\n              tag_65\n              jump\t// in\n            tag_107:\n            tag_106:\n              mul\n              or\n              swap1\n              sstore\n              pop\n                /* \"Contracts\":12262:12613  function completeContract() public payable {... */\n              jump\t// out\n                /* \"Contracts\":11612:11863  function setStatusToAwaitingApproval()  public {... */\n            tag_52:\n                /* \"Contracts\":11687:11698  Status.OPEN */\n              0x00\n                /* \"Contracts\":11677:11698  status == Status.OPEN */\n              0x03\n              dup2\n              gt\n              iszero\n              tag_109\n              jumpi\n              tag_110\n              tag_65\n              jump\t// in\n            tag_110:\n            tag_109:\n                /* \"Contracts\":11677:11683  status */\n              0x06\n              0x00\n              swap1\n              sload\n              swap1\n              0x0100\n              exp\n              swap1\n              div\n              0xff\n              and\n                /* \"Contracts\":11677:11698  status == Status.OPEN */\n              0x03\n              dup2\n              gt\n              iszero\n              tag_111\n              jumpi\n              tag_112\n              tag_65\n              jump\t// in\n            tag_112:\n            tag_111:\n              eq\n                /* \"Contracts\":11669:11731  require(status == Status.OPEN, \"Contract status must be open\") */\n              tag_113\n              jumpi\n              mload(0x40)\n              0x08c379a000000000000000000000000000000000000000000000000000000000\n              dup2\n              mstore\n              0x04\n              add\n              tag_114\n              swap1\n              tag_115\n              jump\t// in\n            tag_114:\n              mload(0x40)\n              dup1\n              swap2\n              sub\n              swap1\n              revert\n            tag_113:\n                /* \"Contracts\":11762:11769  creator */\n              0x00\n              dup1\n              sload\n              swap1\n              0x0100\n              exp\n              swap1\n              div\n              0xffffffffffffffffffffffffffffffffffffffff\n              and\n                /* \"Contracts\":11749:11769  tx.origin == creator */\n              0xffffffffffffffffffffffffffffffffffffffff\n              and\n                /* \"Contracts\":11749:11758  tx.origin */\n              origin\n                /* \"Contracts\":11749:11769  tx.origin == creator */\n              0xffffffffffffffffffffffffffffffffffffffff\n              and\n              eq\n                /* \"Contracts\":11741:11813  require(tx.origin == creator, \"Only creator can change approval status\") */\n              tag_116\n              jumpi\n              mload(0x40)\n              0x08c379a000000000000000000000000000000000000000000000000000000000\n              dup2\n              mstore\n              0x04\n              add\n              tag_117\n              swap1\n              tag_118\n              jump\t// in\n            tag_117:\n              mload(0x40)\n              dup1\n              swap2\n              sub\n              swap1\n              revert\n            tag_116:\n                /* \"Contracts\":11832:11856  Status.AWAITING_APPROVAL */\n              0x01\n                /* \"Contracts\":11823:11829  status */\n              0x06\n              0x00\n                /* \"Contracts\":11823:11856  status = Status.AWAITING_APPROVAL */\n              0x0100\n              exp\n              dup2\n              sload\n              dup2\n              0xff\n              mul\n              not\n              and\n              swap1\n              dup4\n              0x03\n              dup2\n              gt\n              iszero\n              tag_119\n              jumpi\n              tag_120\n              tag_65\n              jump\t// in\n            tag_120:\n            tag_119:\n              mul\n              or\n              swap1\n              sstore\n              pop\n                /* \"Contracts\":11612:11863  function setStatusToAwaitingApproval()  public {... */\n              jump\t// out\n                /* \"Contracts\":11357:11605  function setStatusToOpen()  public {... */\n            tag_55:\n                /* \"Contracts\":11420:11444  Status.AWAITING_APPROVAL */\n              0x01\n                /* \"Contracts\":11410:11444  status == Status.AWAITING_APPROVAL */\n              0x03\n              dup2\n              gt\n              iszero\n              tag_122\n              jumpi\n              tag_123\n              tag_65\n              jump\t// in\n            tag_123:\n            tag_122:\n                /* \"Contracts\":11410:11416  status */\n              0x06\n              0x00\n              swap1\n              sload\n              swap1\n              0x0100\n              exp\n              swap1\n              div\n              0xff\n              and\n                /* \"Contracts\":11410:11444  status == Status.AWAITING_APPROVAL */\n              0x03\n              dup2\n              gt\n              iszero\n              tag_124\n              jumpi\n              tag_125\n              tag_65\n              jump\t// in\n            tag_125:\n            tag_124:\n              eq\n                /* \"Contracts\":11402:11490  require(status == Status.AWAITING_APPROVAL, \"Contract status must be awaiting approval\") */\n              tag_126\n              jumpi\n              mload(0x40)\n              0x08c379a000000000000000000000000000000000000000000000000000000000\n              dup2\n              mstore\n              0x04\n              add\n              tag_127\n              swap1\n              tag_128\n              jump\t// in\n            tag_127:\n              mload(0x40)\n              dup1\n              swap2\n              sub\n              swap1\n              revert\n            tag_126:\n                /* \"Contracts\":11521:11528  referee */\n              0x01\n              0x00\n              swap1\n              sload\n              swap1\n              0x0100\n              exp\n              swap1\n              div\n              0xffffffffffffffffffffffffffffffffffffffff\n              and\n                /* \"Contracts\":11508:11528  tx.origin == referee */\n              0xffffffffffffffffffffffffffffffffffffffff\n              and\n                /* \"Contracts\":11508:11517  tx.origin */\n              origin\n                /* \"Contracts\":11508:11528  tx.origin == referee */\n              0xffffffffffffffffffffffffffffffffffffffff\n              and\n              eq\n                /* \"Contracts\":11500:11568  require(tx.origin == referee, \"Only referee can set status to open\") */\n              tag_129\n              jumpi\n              mload(0x40)\n              0x08c379a000000000000000000000000000000000000000000000000000000000\n              dup2\n              mstore\n              0x04\n              add\n              tag_130\n              swap1\n              tag_131\n              jump\t// in\n            tag_130:\n              mload(0x40)\n              dup1\n              swap2\n              sub\n              swap1\n              revert\n            tag_129:\n                /* \"Contracts\":11587:11598  Status.OPEN */\n              0x00\n                /* \"Contracts\":11578:11584  status */\n              0x06\n              0x00\n                /* \"Contracts\":11578:11598  status = Status.OPEN */\n              0x0100\n              exp\n              dup2\n              sload\n              dup2\n              0xff\n              mul\n              not\n              and\n              swap1\n              dup4\n              0x03\n              dup2\n              gt\n              iszero\n              tag_132\n              jumpi\n              tag_133\n              tag_65\n              jump\t// in\n            tag_133:\n            tag_132:\n              mul\n              or\n              swap1\n              sstore\n              pop\n                /* \"Contracts\":11357:11605  function setStatusToOpen()  public {... */\n              jump\t// out\n                /* \"#utility.yul\":7:133   */\n            tag_134:\n                /* \"#utility.yul\":44:51   */\n              0x00\n                /* \"#utility.yul\":84:126   */\n              0xffffffffffffffffffffffffffffffffffffffff\n                /* \"#utility.yul\":77:82   */\n              dup3\n                /* \"#utility.yul\":73:127   */\n              and\n                /* \"#utility.yul\":62:127   */\n              swap1\n              pop\n                /* \"#utility.yul\":7:133   */\n              swap2\n              swap1\n              pop\n              jump\t// out\n                /* \"#utility.yul\":139:235   */\n            tag_135:\n                /* \"#utility.yul\":176:183   */\n              0x00\n                /* \"#utility.yul\":205:229   */\n              tag_166\n                /* \"#utility.yul\":223:228   */\n              dup3\n                /* \"#utility.yul\":205:229   */\n              tag_134\n              jump\t// in\n            tag_166:\n                /* \"#utility.yul\":194:229   */\n              swap1\n              pop\n                /* \"#utility.yul\":139:235   */\n              swap2\n              swap1\n              pop\n              jump\t// out\n                /* \"#utility.yul\":241:359   */\n            tag_136:\n                /* \"#utility.yul\":328:352   */\n              tag_168\n                /* \"#utility.yul\":346:351   */\n              dup2\n                /* \"#utility.yul\":328:352   */\n              tag_135\n              jump\t// in\n            tag_168:\n                /* \"#utility.yul\":323:326   */\n              dup3\n                /* \"#utility.yul\":316:353   */\n              mstore\n                /* \"#utility.yul\":241:359   */\n              pop\n              pop\n              jump\t// out\n                /* \"#utility.yul\":365:587   */\n            tag_18:\n                /* \"#utility.yul\":458:462   */\n              0x00\n                /* \"#utility.yul\":496:498   */\n              0x20\n                /* \"#utility.yul\":485:494   */\n              dup3\n                /* \"#utility.yul\":481:499   */\n              add\n                /* \"#utility.yul\":473:499   */\n              swap1\n              pop\n                /* \"#utility.yul\":509:580   */\n              tag_170\n                /* \"#utility.yul\":577:578   */\n              0x00\n                /* \"#utility.yul\":566:575   */\n              dup4\n                /* \"#utility.yul\":562:579   */\n              add\n                /* \"#utility.yul\":553:559   */\n              dup5\n                /* \"#utility.yul\":509:580   */\n              tag_136\n              jump\t// in\n            tag_170:\n                /* \"#utility.yul\":365:587   */\n              swap3\n              swap2\n              pop\n              pop\n              jump\t// out\n                /* \"#utility.yul\":593:692   */\n            tag_137:\n                /* \"#utility.yul\":645:651   */\n              0x00\n                /* \"#utility.yul\":679:684   */\n              dup2\n                /* \"#utility.yul\":673:685   */\n              mload\n                /* \"#utility.yul\":663:685   */\n              swap1\n              pop\n                /* \"#utility.yul\":593:692   */\n              swap2\n              swap1\n              pop\n              jump\t// out\n                /* \"#utility.yul\":698:867   */\n            tag_138:\n                /* \"#utility.yul\":782:793   */\n              0x00\n                /* \"#utility.yul\":816:822   */\n              dup3\n                /* \"#utility.yul\":811:814   */\n              dup3\n                /* \"#utility.yul\":804:823   */\n              mstore\n                /* \"#utility.yul\":856:860   */\n              0x20\n                /* \"#utility.yul\":851:854   */\n              dup3\n                /* \"#utility.yul\":847:861   */\n              add\n                /* \"#utility.yul\":832:861   */\n              swap1\n              pop\n                /* \"#utility.yul\":698:867   */\n              swap3\n              swap2\n              pop\n              pop\n              jump\t// out\n                /* \"#utility.yul\":873:1180   */\n            tag_139:\n                /* \"#utility.yul\":941:942   */\n              0x00\n                /* \"#utility.yul\":951:1064   */\n            tag_174:\n                /* \"#utility.yul\":965:971   */\n              dup4\n                /* \"#utility.yul\":962:963   */\n              dup2\n                /* \"#utility.yul\":959:972   */\n              lt\n                /* \"#utility.yul\":951:1064   */\n              iszero\n              tag_176\n              jumpi\n                /* \"#utility.yul\":1050:1051   */\n              dup1\n                /* \"#utility.yul\":1045:1048   */\n              dup3\n                /* \"#utility.yul\":1041:1052   */\n              add\n                /* \"#utility.yul\":1035:1053   */\n              mload\n                /* \"#utility.yul\":1031:1032   */\n              dup2\n                /* \"#utility.yul\":1026:1029   */\n              dup5\n                /* \"#utility.yul\":1022:1033   */\n              add\n                /* \"#utility.yul\":1015:1054   */\n              mstore\n                /* \"#utility.yul\":987:989   */\n              0x20\n                /* \"#utility.yul\":984:985   */\n              dup2\n                /* \"#utility.yul\":980:990   */\n              add\n                /* \"#utility.yul\":975:990   */\n              swap1\n              pop\n                /* \"#utility.yul\":951:1064   */\n              jump(tag_174)\n            tag_176:\n                /* \"#utility.yul\":1082:1088   */\n              dup4\n                /* \"#utility.yul\":1079:1080   */\n              dup2\n                /* \"#utility.yul\":1076:1089   */\n              gt\n                /* \"#utility.yul\":1073:1174   */\n              iszero\n              tag_177\n              jumpi\n                /* \"#utility.yul\":1162:1163   */\n              0x00\n                /* \"#utility.yul\":1153:1159   */\n              dup5\n                /* \"#utility.yul\":1148:1151   */\n              dup5\n                /* \"#utility.yul\":1144:1160   */\n              add\n                /* \"#utility.yul\":1137:1164   */\n              mstore\n                /* \"#utility.yul\":1073:1174   */\n            tag_177:\n                /* \"#utility.yul\":922:1180   */\n              pop\n                /* \"#utility.yul\":873:1180   */\n              pop\n              pop\n              pop\n              jump\t// out\n                /* \"#utility.yul\":1186:1288   */\n            tag_140:\n                /* \"#utility.yul\":1227:1233   */\n              0x00\n                /* \"#utility.yul\":1278:1280   */\n              0x1f\n                /* \"#utility.yul\":1274:1281   */\n              not\n                /* \"#utility.yul\":1269:1271   */\n              0x1f\n                /* \"#utility.yul\":1262:1267   */\n              dup4\n                /* \"#utility.yul\":1258:1272   */\n              add\n                /* \"#utility.yul\":1254:1282   */\n              and\n                /* \"#utility.yul\":1244:1282   */\n              swap1\n              pop\n                /* \"#utility.yul\":1186:1288   */\n              swap2\n              swap1\n              pop\n              jump\t// out\n                /* \"#utility.yul\":1294:1658   */\n            tag_141:\n                /* \"#utility.yul\":1382:1385   */\n              0x00\n                /* \"#utility.yul\":1410:1449   */\n              tag_180\n                /* \"#utility.yul\":1443:1448   */\n              dup3\n                /* \"#utility.yul\":1410:1449   */\n              tag_137\n              jump\t// in\n            tag_180:\n                /* \"#utility.yul\":1465:1536   */\n              tag_181\n                /* \"#utility.yul\":1529:1535   */\n              dup2\n                /* \"#utility.yul\":1524:1527   */\n              dup6\n                /* \"#utility.yul\":1465:1536   */\n              tag_138\n              jump\t// in\n            tag_181:\n                /* \"#utility.yul\":1458:1536   */\n              swap4\n              pop\n                /* \"#utility.yul\":1545:1597   */\n              tag_182\n                /* \"#utility.yul\":1590:1596   */\n              dup2\n                /* \"#utility.yul\":1585:1588   */\n              dup6\n                /* \"#utility.yul\":1578:1582   */\n              0x20\n                /* \"#utility.yul\":1571:1576   */\n              dup7\n                /* \"#utility.yul\":1567:1583   */\n              add\n                /* \"#utility.yul\":1545:1597   */\n              tag_139\n              jump\t// in\n            tag_182:\n                /* \"#utility.yul\":1622:1651   */\n              tag_183\n                /* \"#utility.yul\":1644:1650   */\n              dup2\n                /* \"#utility.yul\":1622:1651   */\n              tag_140\n              jump\t// in\n            tag_183:\n                /* \"#utility.yul\":1617:1620   */\n              dup5\n                /* \"#utility.yul\":1613:1652   */\n              add\n                /* \"#utility.yul\":1606:1652   */\n              swap2\n              pop\n                /* \"#utility.yul\":1386:1658   */\n              pop\n                /* \"#utility.yul\":1294:1658   */\n              swap3\n              swap2\n              pop\n              pop\n              jump\t// out\n                /* \"#utility.yul\":1664:1977   */\n            tag_23:\n                /* \"#utility.yul\":1777:1781   */\n              0x00\n                /* \"#utility.yul\":1815:1817   */\n              0x20\n                /* \"#utility.yul\":1804:1813   */\n              dup3\n                /* \"#utility.yul\":1800:1818   */\n              add\n                /* \"#utility.yul\":1792:1818   */\n              swap1\n              pop\n                /* \"#utility.yul\":1864:1873   */\n              dup2\n                /* \"#utility.yul\":1858:1862   */\n              dup2\n                /* \"#utility.yul\":1854:1874   */\n              sub\n                /* \"#utility.yul\":1850:1851   */\n              0x00\n                /* \"#utility.yul\":1839:1848   */\n              dup4\n                /* \"#utility.yul\":1835:1852   */\n              add\n                /* \"#utility.yul\":1828:1875   */\n              mstore\n                /* \"#utility.yul\":1892:1970   */\n              tag_185\n                /* \"#utility.yul\":1965:1969   */\n              dup2\n                /* \"#utility.yul\":1956:1962   */\n              dup5\n                /* \"#utility.yul\":1892:1970   */\n              tag_141\n              jump\t// in\n            tag_185:\n                /* \"#utility.yul\":1884:1970   */\n              swap1\n              pop\n                /* \"#utility.yul\":1664:1977   */\n              swap3\n              swap2\n              pop\n              pop\n              jump\t// out\n                /* \"#utility.yul\":1983:2163   */\n            tag_65:\n                /* \"#utility.yul\":2031:2108   */\n              0x4e487b7100000000000000000000000000000000000000000000000000000000\n                /* \"#utility.yul\":2028:2029   */\n              0x00\n                /* \"#utility.yul\":2021:2109   */\n              mstore\n                /* \"#utility.yul\":2128:2132   */\n              0x21\n                /* \"#utility.yul\":2125:2126   */\n              0x04\n                /* \"#utility.yul\":2118:2133   */\n              mstore\n                /* \"#utility.yul\":2152:2156   */\n              0x24\n                /* \"#utility.yul\":2149:2150   */\n              0x00\n                /* \"#utility.yul\":2142:2157   */\n              revert\n                /* \"#utility.yul\":2169:2285   */\n            tag_142:\n                /* \"#utility.yul\":2253:2254   */\n              0x04\n                /* \"#utility.yul\":2246:2251   */\n              dup2\n                /* \"#utility.yul\":2243:2255   */\n              lt\n                /* \"#utility.yul\":2233:2279   */\n              tag_188\n              jumpi\n                /* \"#utility.yul\":2259:2277   */\n              tag_189\n              tag_65\n              jump\t// in\n            tag_189:\n                /* \"#utility.yul\":2233:2279   */\n            tag_188:\n                /* \"#utility.yul\":2169:2285   */\n              pop\n              jump\t// out\n                /* \"#utility.yul\":2291:2424   */\n            tag_143:\n                /* \"#utility.yul\":2339:2346   */\n              0x00\n                /* \"#utility.yul\":2368:2373   */\n              dup2\n                /* \"#utility.yul\":2357:2373   */\n              swap1\n              pop\n                /* \"#utility.yul\":2374:2418   */\n              tag_191\n                /* \"#utility.yul\":2412:2417   */\n              dup3\n                /* \"#utility.yul\":2374:2418   */\n              tag_142\n              jump\t// in\n            tag_191:\n                /* \"#utility.yul\":2291:2424   */\n              swap2\n              swap1\n              pop\n              jump\t// out\n                /* \"#utility.yul\":2430:2563   */\n            tag_144:\n                /* \"#utility.yul\":2489:2498   */\n              0x00\n                /* \"#utility.yul\":2522:2557   */\n              tag_193\n                /* \"#utility.yul\":2551:2556   */\n              dup3\n                /* \"#utility.yul\":2522:2557   */\n              tag_143\n              jump\t// in\n            tag_193:\n                /* \"#utility.yul\":2509:2557   */\n              swap1\n              pop\n                /* \"#utility.yul\":2430:2563   */\n              swap2\n              swap1\n              pop\n              jump\t// out\n                /* \"#utility.yul\":2569:2718   */\n            tag_145:\n                /* \"#utility.yul\":2665:2711   */\n              tag_195\n                /* \"#utility.yul\":2705:2710   */\n              dup2\n                /* \"#utility.yul\":2665:2711   */\n              tag_144\n              jump\t// in\n            tag_195:\n                /* \"#utility.yul\":2660:2663   */\n              dup3\n                /* \"#utility.yul\":2653:2712   */\n              mstore\n                /* \"#utility.yul\":2569:2718   */\n              pop\n              pop\n              jump\t// out\n                /* \"#utility.yul\":2724:2964   */\n            tag_28:\n                /* \"#utility.yul\":2826:2830   */\n              0x00\n                /* \"#utility.yul\":2864:2866   */\n              0x20\n                /* \"#utility.yul\":2853:2862   */\n              dup3\n                /* \"#utility.yul\":2849:2867   */\n              add\n                /* \"#utility.yul\":2841:2867   */\n              swap1\n              pop\n                /* \"#utility.yul\":2877:2957   */\n              tag_197\n                /* \"#utility.yul\":2954:2955   */\n              0x00\n                /* \"#utility.yul\":2943:2952   */\n              dup4\n                /* \"#utility.yul\":2939:2956   */\n              add\n                /* \"#utility.yul\":2930:2936   */\n              dup5\n                /* \"#utility.yul\":2877:2957   */\n              tag_145\n              jump\t// in\n            tag_197:\n                /* \"#utility.yul\":2724:2964   */\n              swap3\n              swap2\n              pop\n              pop\n              jump\t// out\n                /* \"#utility.yul\":2970:3047   */\n            tag_146:\n                /* \"#utility.yul\":3007:3014   */\n              0x00\n                /* \"#utility.yul\":3036:3041   */\n              dup2\n                /* \"#utility.yul\":3025:3041   */\n              swap1\n              pop\n                /* \"#utility.yul\":2970:3047   */\n              swap2\n              swap1\n              pop\n              jump\t// out\n                /* \"#utility.yul\":3053:3171   */\n            tag_147:\n                /* \"#utility.yul\":3140:3164   */\n              tag_200\n                /* \"#utility.yul\":3158:3163   */\n              dup2\n                /* \"#utility.yul\":3140:3164   */\n              tag_146\n              jump\t// in\n            tag_200:\n                /* \"#utility.yul\":3135:3138   */\n              dup3\n                /* \"#utility.yul\":3128:3165   */\n              mstore\n                /* \"#utility.yul\":3053:3171   */\n              pop\n              pop\n              jump\t// out\n                /* \"#utility.yul\":3177:3399   */\n            tag_47:\n                /* \"#utility.yul\":3270:3274   */\n              0x00\n                /* \"#utility.yul\":3308:3310   */\n              0x20\n                /* \"#utility.yul\":3297:3306   */\n              dup3\n                /* \"#utility.yul\":3293:3311   */\n              add\n                /* \"#utility.yul\":3285:3311   */\n              swap1\n              pop\n                /* \"#utility.yul\":3321:3392   */\n              tag_202\n                /* \"#utility.yul\":3389:3390   */\n              0x00\n                /* \"#utility.yul\":3378:3387   */\n              dup4\n                /* \"#utility.yul\":3374:3391   */\n              add\n                /* \"#utility.yul\":3365:3371   */\n              dup5\n                /* \"#utility.yul\":3321:3392   */\n              tag_147\n              jump\t// in\n            tag_202:\n                /* \"#utility.yul\":3177:3399   */\n              swap3\n              swap2\n              pop\n              pop\n              jump\t// out\n                /* \"#utility.yul\":3405:3585   */\n            tag_148:\n                /* \"#utility.yul\":3453:3530   */\n              0x4e487b7100000000000000000000000000000000000000000000000000000000\n                /* \"#utility.yul\":3450:3451   */\n              0x00\n                /* \"#utility.yul\":3443:3531   */\n              mstore\n                /* \"#utility.yul\":3550:3554   */\n              0x22\n                /* \"#utility.yul\":3547:3548   */\n              0x04\n                /* \"#utility.yul\":3540:3555   */\n              mstore\n                /* \"#utility.yul\":3574:3578   */\n              0x24\n                /* \"#utility.yul\":3571:3572   */\n              0x00\n                /* \"#utility.yul\":3564:3579   */\n              revert\n                /* \"#utility.yul\":3591:3911   */\n            tag_57:\n                /* \"#utility.yul\":3635:3641   */\n              0x00\n                /* \"#utility.yul\":3672:3673   */\n              0x02\n                /* \"#utility.yul\":3666:3670   */\n              dup3\n                /* \"#utility.yul\":3662:3674   */\n              div\n                /* \"#utility.yul\":3652:3674   */\n              swap1\n              pop\n                /* \"#utility.yul\":3719:3720   */\n              0x01\n                /* \"#utility.yul\":3713:3717   */\n              dup3\n                /* \"#utility.yul\":3709:3721   */\n              and\n                /* \"#utility.yul\":3740:3758   */\n              dup1\n                /* \"#utility.yul\":3730:3811   */\n              tag_205\n              jumpi\n                /* \"#utility.yul\":3796:3800   */\n              0x7f\n                /* \"#utility.yul\":3788:3794   */\n              dup3\n                /* \"#utility.yul\":3784:3801   */\n              and\n                /* \"#utility.yul\":3774:3801   */\n              swap2\n              pop\n                /* \"#utility.yul\":3730:3811   */\n            tag_205:\n                /* \"#utility.yul\":3858:3860   */\n              0x20\n                /* \"#utility.yul\":3850:3856   */\n              dup3\n                /* \"#utility.yul\":3847:3861   */\n              lt\n                /* \"#utility.yul\":3827:3845   */\n              dup2\n                /* \"#utility.yul\":3824:3862   */\n              eq\n                /* \"#utility.yul\":3821:3905   */\n              iszero\n              tag_206\n              jumpi\n                /* \"#utility.yul\":3877:3895   */\n              tag_207\n              tag_148\n              jump\t// in\n            tag_207:\n                /* \"#utility.yul\":3821:3905   */\n            tag_206:\n                /* \"#utility.yul\":3642:3911   */\n              pop\n                /* \"#utility.yul\":3591:3911   */\n              swap2\n              swap1\n              pop\n              jump\t// out\n                /* \"#utility.yul\":3917:4153   */\n            tag_149:\n                /* \"#utility.yul\":4057:4091   */\n              0x436f6e747261637420737461747573206d757374206265206f70656e206f7220\n                /* \"#utility.yul\":4053:4054   */\n              0x00\n                /* \"#utility.yul\":4045:4051   */\n              dup3\n                /* \"#utility.yul\":4041:4055   */\n              add\n                /* \"#utility.yul\":4034:4092   */\n              mstore\n                /* \"#utility.yul\":4126:4145   */\n              0x6177616974696e6720617070726f76616c000000000000000000000000000000\n                /* \"#utility.yul\":4121:4123   */\n              0x20\n                /* \"#utility.yul\":4113:4119   */\n              dup3\n                /* \"#utility.yul\":4109:4124   */\n              add\n                /* \"#utility.yul\":4102:4146   */\n              mstore\n                /* \"#utility.yul\":3917:4153   */\n              pop\n              jump\t// out\n                /* \"#utility.yul\":4159:4525   */\n            tag_150:\n                /* \"#utility.yul\":4301:4304   */\n              0x00\n                /* \"#utility.yul\":4322:4389   */\n              tag_210\n                /* \"#utility.yul\":4386:4388   */\n              0x31\n                /* \"#utility.yul\":4381:4384   */\n              dup4\n                /* \"#utility.yul\":4322:4389   */\n              tag_138\n              jump\t// in\n            tag_210:\n                /* \"#utility.yul\":4315:4389   */\n              swap2\n              pop\n                /* \"#utility.yul\":4398:4491   */\n              tag_211\n                /* \"#utility.yul\":4487:4490   */\n              dup3\n                /* \"#utility.yul\":4398:4491   */\n              tag_149\n              jump\t// in\n            tag_211:\n                /* \"#utility.yul\":4516:4518   */\n              0x40\n                /* \"#utility.yul\":4511:4514   */\n              dup3\n                /* \"#utility.yul\":4507:4519   */\n              add\n                /* \"#utility.yul\":4500:4519   */\n              swap1\n              pop\n                /* \"#utility.yul\":4159:4525   */\n              swap2\n              swap1\n              pop\n              jump\t// out\n                /* \"#utility.yul\":4531:4950   */\n            tag_75:\n                /* \"#utility.yul\":4697:4701   */\n              0x00\n                /* \"#utility.yul\":4735:4737   */\n              0x20\n                /* \"#utility.yul\":4724:4733   */\n              dup3\n                /* \"#utility.yul\":4720:4738   */\n              add\n                /* \"#utility.yul\":4712:4738   */\n              swap1\n              pop\n                /* \"#utility.yul\":4784:4793   */\n              dup2\n                /* \"#utility.yul\":4778:4782   */\n              dup2\n                /* \"#utility.yul\":4774:4794   */\n              sub\n                /* \"#utility.yul\":4770:4771   */\n              0x00\n                /* \"#utility.yul\":4759:4768   */\n              dup4\n                /* \"#utility.yul\":4755:4772   */\n              add\n                /* \"#utility.yul\":4748:4795   */\n              mstore\n                /* \"#utility.yul\":4812:4943   */\n              tag_213\n                /* \"#utility.yul\":4938:4942   */\n              dup2\n                /* \"#utility.yul\":4812:4943   */\n              tag_150\n              jump\t// in\n            tag_213:\n                /* \"#utility.yul\":4804:4943   */\n              swap1\n              pop\n                /* \"#utility.yul\":4531:4950   */\n              swap2\n              swap1\n              pop\n              jump\t// out\n                /* \"#utility.yul\":4956:5184   */\n            tag_151:\n                /* \"#utility.yul\":5096:5130   */\n              0x4f6e6c792072656665726565206f722063726561746f722063616e206661696c\n                /* \"#utility.yul\":5092:5093   */\n              0x00\n                /* \"#utility.yul\":5084:5090   */\n              dup3\n                /* \"#utility.yul\":5080:5094   */\n              add\n                /* \"#utility.yul\":5073:5131   */\n              mstore\n                /* \"#utility.yul\":5165:5176   */\n              0x20636f6e74726163740000000000000000000000000000000000000000000000\n                /* \"#utility.yul\":5160:5162   */\n              0x20\n                /* \"#utility.yul\":5152:5158   */\n              dup3\n                /* \"#utility.yul\":5148:5163   */\n              add\n                /* \"#utility.yul\":5141:5177   */\n              mstore\n                /* \"#utility.yul\":4956:5184   */\n              pop\n              jump\t// out\n                /* \"#utility.yul\":5190:5556   */\n            tag_152:\n                /* \"#utility.yul\":5332:5335   */\n              0x00\n                /* \"#utility.yul\":5353:5420   */\n              tag_216\n                /* \"#utility.yul\":5417:5419   */\n              0x29\n                /* \"#utility.yul\":5412:5415   */\n              dup4\n                /* \"#utility.yul\":5353:5420   */\n              tag_138\n              jump\t// in\n            tag_216:\n                /* \"#utility.yul\":5346:5420   */\n              swap2\n              pop\n                /* \"#utility.yul\":5429:5522   */\n              tag_217\n                /* \"#utility.yul\":5518:5521   */\n              dup3\n                /* \"#utility.yul\":5429:5522   */\n              tag_151\n              jump\t// in\n            tag_217:\n                /* \"#utility.yul\":5547:5549   */\n              0x40\n                /* \"#utility.yul\":5542:5545   */\n              dup3\n                /* \"#utility.yul\":5538:5550   */\n              add\n                /* \"#utility.yul\":5531:5550   */\n              swap1\n              pop\n                /* \"#utility.yul\":5190:5556   */\n              swap2\n              swap1\n              pop\n              jump\t// out\n                /* \"#utility.yul\":5562:5981   */\n            tag_79:\n                /* \"#utility.yul\":5728:5732   */\n              0x00\n                /* \"#utility.yul\":5766:5768   */\n              0x20\n                /* \"#utility.yul\":5755:5764   */\n              dup3\n                /* \"#utility.yul\":5751:5769   */\n              add\n                /* \"#utility.yul\":5743:5769   */\n              swap1\n              pop\n                /* \"#utility.yul\":5815:5824   */\n              dup2\n                /* \"#utility.yul\":5809:5813   */\n              dup2\n                /* \"#utility.yul\":5805:5825   */\n              sub\n                /* \"#utility.yul\":5801:5802   */\n              0x00\n                /* \"#utility.yul\":5790:5799   */\n              dup4\n                /* \"#utility.yul\":5786:5803   */\n              add\n                /* \"#utility.yul\":5779:5826   */\n              mstore\n                /* \"#utility.yul\":5843:5974   */\n              tag_219\n                /* \"#utility.yul\":5969:5973   */\n              dup2\n                /* \"#utility.yul\":5843:5974   */\n              tag_152\n              jump\t// in\n            tag_219:\n                /* \"#utility.yul\":5835:5974   */\n              swap1\n              pop\n                /* \"#utility.yul\":5562:5981   */\n              swap2\n              swap1\n              pop\n              jump\t// out\n                /* \"#utility.yul\":5987:6210   */\n            tag_153:\n                /* \"#utility.yul\":6127:6161   */\n              0x4f6e6c7920726566657265652063616e20636f6d706c657465206120636f6e74\n                /* \"#utility.yul\":6123:6124   */\n              0x00\n                /* \"#utility.yul\":6115:6121   */\n              dup3\n                /* \"#utility.yul\":6111:6125   */\n              add\n                /* \"#utility.yul\":6104:6162   */\n              mstore\n                /* \"#utility.yul\":6196:6202   */\n              0x7261637400000000000000000000000000000000000000000000000000000000\n                /* \"#utility.yul\":6191:6193   */\n              0x20\n                /* \"#utility.yul\":6183:6189   */\n              dup3\n                /* \"#utility.yul\":6179:6194   */\n              add\n                /* \"#utility.yul\":6172:6203   */\n              mstore\n                /* \"#utility.yul\":5987:6210   */\n              pop\n              jump\t// out\n                /* \"#utility.yul\":6216:6582   */\n            tag_154:\n                /* \"#utility.yul\":6358:6361   */\n              0x00\n                /* \"#utility.yul\":6379:6446   */\n              tag_222\n                /* \"#utility.yul\":6443:6445   */\n              0x24\n                /* \"#utility.yul\":6438:6441   */\n              dup4\n                /* \"#utility.yul\":6379:6446   */\n              tag_138\n              jump\t// in\n            tag_222:\n                /* \"#utility.yul\":6372:6446   */\n              swap2\n              pop\n                /* \"#utility.yul\":6455:6548   */\n              tag_223\n                /* \"#utility.yul\":6544:6547   */\n              dup3\n                /* \"#utility.yul\":6455:6548   */\n              tag_153\n              jump\t// in\n            tag_223:\n                /* \"#utility.yul\":6573:6575   */\n              0x40\n                /* \"#utility.yul\":6568:6571   */\n              dup3\n                /* \"#utility.yul\":6564:6576   */\n              add\n                /* \"#utility.yul\":6557:6576   */\n              swap1\n              pop\n                /* \"#utility.yul\":6216:6582   */\n              swap2\n              swap1\n              pop\n              jump\t// out\n                /* \"#utility.yul\":6588:7007   */\n            tag_103:\n                /* \"#utility.yul\":6754:6758   */\n              0x00\n                /* \"#utility.yul\":6792:6794   */\n              0x20\n                /* \"#utility.yul\":6781:6790   */\n              dup3\n                /* \"#utility.yul\":6777:6795   */\n              add\n                /* \"#utility.yul\":6769:6795   */\n              swap1\n              pop\n                /* \"#utility.yul\":6841:6850   */\n              dup2\n                /* \"#utility.yul\":6835:6839   */\n              dup2\n                /* \"#utility.yul\":6831:6851   */\n              sub\n                /* \"#utility.yul\":6827:6828   */\n              0x00\n                /* \"#utility.yul\":6816:6825   */\n              dup4\n                /* \"#utility.yul\":6812:6829   */\n              add\n                /* \"#utility.yul\":6805:6852   */\n              mstore\n                /* \"#utility.yul\":6869:7000   */\n              tag_225\n                /* \"#utility.yul\":6995:6999   */\n              dup2\n                /* \"#utility.yul\":6869:7000   */\n              tag_154\n              jump\t// in\n            tag_225:\n                /* \"#utility.yul\":6861:7000   */\n              swap1\n              pop\n                /* \"#utility.yul\":6588:7007   */\n              swap2\n              swap1\n              pop\n              jump\t// out\n                /* \"#utility.yul\":7013:7191   */\n            tag_155:\n                /* \"#utility.yul\":7153:7183   */\n              0x436f6e747261637420737461747573206d757374206265206f70656e00000000\n                /* \"#utility.yul\":7149:7150   */\n              0x00\n                /* \"#utility.yul\":7141:7147   */\n              dup3\n                /* \"#utility.yul\":7137:7151   */\n              add\n                /* \"#utility.yul\":7130:7184   */\n              mstore\n                /* \"#utility.yul\":7013:7191   */\n              pop\n              jump\t// out\n                /* \"#utility.yul\":7197:7563   */\n            tag_156:\n                /* \"#utility.yul\":7339:7342   */\n              0x00\n                /* \"#utility.yul\":7360:7427   */\n              tag_228\n                /* \"#utility.yul\":7424:7426   */\n              0x1c\n                /* \"#utility.yul\":7419:7422   */\n              dup4\n                /* \"#utility.yul\":7360:7427   */\n              tag_138\n              jump\t// in\n            tag_228:\n                /* \"#utility.yul\":7353:7427   */\n              swap2\n              pop\n                /* \"#utility.yul\":7436:7529   */\n              tag_229\n                /* \"#utility.yul\":7525:7528   */\n              dup3\n                /* \"#utility.yul\":7436:7529   */\n              tag_155\n              jump\t// in\n            tag_229:\n                /* \"#utility.yul\":7554:7556   */\n              0x20\n                /* \"#utility.yul\":7549:7552   */\n              dup3\n                /* \"#utility.yul\":7545:7557   */\n              add\n                /* \"#utility.yul\":7538:7557   */\n              swap1\n              pop\n                /* \"#utility.yul\":7197:7563   */\n              swap2\n              swap1\n              pop\n              jump\t// out\n                /* \"#utility.yul\":7569:7988   */\n            tag_115:\n                /* \"#utility.yul\":7735:7739   */\n              0x00\n                /* \"#utility.yul\":7773:7775   */\n              0x20\n                /* \"#utility.yul\":7762:7771   */\n              dup3\n                /* \"#utility.yul\":7758:7776   */\n              add\n                /* \"#utility.yul\":7750:7776   */\n              swap1\n              pop\n                /* \"#utility.yul\":7822:7831   */\n              dup2\n                /* \"#utility.yul\":7816:7820   */\n              dup2\n                /* \"#utility.yul\":7812:7832   */\n              sub\n                /* \"#utility.yul\":7808:7809   */\n              0x00\n                /* \"#utility.yul\":7797:7806   */\n              dup4\n                /* \"#utility.yul\":7793:7810   */\n              add\n                /* \"#utility.yul\":7786:7833   */\n              mstore\n                /* \"#utility.yul\":7850:7981   */\n              tag_231\n                /* \"#utility.yul\":7976:7980   */\n              dup2\n                /* \"#utility.yul\":7850:7981   */\n              tag_156\n              jump\t// in\n            tag_231:\n                /* \"#utility.yul\":7842:7981   */\n              swap1\n              pop\n                /* \"#utility.yul\":7569:7988   */\n              swap2\n              swap1\n              pop\n              jump\t// out\n                /* \"#utility.yul\":7994:8220   */\n            tag_157:\n                /* \"#utility.yul\":8134:8168   */\n              0x4f6e6c792063726561746f722063616e206368616e676520617070726f76616c\n                /* \"#utility.yul\":8130:8131   */\n              0x00\n                /* \"#utility.yul\":8122:8128   */\n              dup3\n                /* \"#utility.yul\":8118:8132   */\n              add\n                /* \"#utility.yul\":8111:8169   */\n              mstore\n                /* \"#utility.yul\":8203:8212   */\n              0x2073746174757300000000000000000000000000000000000000000000000000\n                /* \"#utility.yul\":8198:8200   */\n              0x20\n                /* \"#utility.yul\":8190:8196   */\n              dup3\n                /* \"#utility.yul\":8186:8201   */\n              add\n                /* \"#utility.yul\":8179:8213   */\n              mstore\n                /* \"#utility.yul\":7994:8220   */\n              pop\n              jump\t// out\n                /* \"#utility.yul\":8226:8592   */\n            tag_158:\n                /* \"#utility.yul\":8368:8371   */\n              0x00\n                /* \"#utility.yul\":8389:8456   */\n              tag_234\n                /* \"#utility.yul\":8453:8455   */\n              0x27\n                /* \"#utility.yul\":8448:8451   */\n              dup4\n                /* \"#utility.yul\":8389:8456   */\n              tag_138\n              jump\t// in\n            tag_234:\n                /* \"#utility.yul\":8382:8456   */\n              swap2\n              pop\n                /* \"#utility.yul\":8465:8558   */\n              tag_235\n                /* \"#utility.yul\":8554:8557   */\n              dup3\n                /* \"#utility.yul\":8465:8558   */\n              tag_157\n              jump\t// in\n            tag_235:\n                /* \"#utility.yul\":8583:8585   */\n              0x40\n                /* \"#utility.yul\":8578:8581   */\n              dup3\n                /* \"#utility.yul\":8574:8586   */\n              add\n                /* \"#utility.yul\":8567:8586   */\n              swap1\n              pop\n                /* \"#utility.yul\":8226:8592   */\n              swap2\n              swap1\n              pop\n              jump\t// out\n                /* \"#utility.yul\":8598:9017   */\n            tag_118:\n                /* \"#utility.yul\":8764:8768   */\n              0x00\n                /* \"#utility.yul\":8802:8804   */\n              0x20\n                /* \"#utility.yul\":8791:8800   */\n              dup3\n                /* \"#utility.yul\":8787:8805   */\n              add\n                /* \"#utility.yul\":8779:8805   */\n              swap1\n              pop\n                /* \"#utility.yul\":8851:8860   */\n              dup2\n                /* \"#utility.yul\":8845:8849   */\n              dup2\n                /* \"#utility.yul\":8841:8861   */\n              sub\n                /* \"#utility.yul\":8837:8838   */\n              0x00\n                /* \"#utility.yul\":8826:8835   */\n              dup4\n                /* \"#utility.yul\":8822:8839   */\n              add\n                /* \"#utility.yul\":8815:8862   */\n              mstore\n                /* \"#utility.yul\":8879:9010   */\n              tag_237\n                /* \"#utility.yul\":9005:9009   */\n              dup2\n                /* \"#utility.yul\":8879:9010   */\n              tag_158\n              jump\t// in\n            tag_237:\n                /* \"#utility.yul\":8871:9010   */\n              swap1\n              pop\n                /* \"#utility.yul\":8598:9017   */\n              swap2\n              swap1\n              pop\n              jump\t// out\n                /* \"#utility.yul\":9023:9251   */\n            tag_159:\n                /* \"#utility.yul\":9163:9197   */\n              0x436f6e747261637420737461747573206d757374206265206177616974696e67\n                /* \"#utility.yul\":9159:9160   */\n              0x00\n                /* \"#utility.yul\":9151:9157   */\n              dup3\n                /* \"#utility.yul\":9147:9161   */\n              add\n                /* \"#utility.yul\":9140:9198   */\n              mstore\n                /* \"#utility.yul\":9232:9243   */\n              0x20617070726f76616c0000000000000000000000000000000000000000000000\n                /* \"#utility.yul\":9227:9229   */\n              0x20\n                /* \"#utility.yul\":9219:9225   */\n              dup3\n                /* \"#utility.yul\":9215:9230   */\n              add\n                /* \"#utility.yul\":9208:9244   */\n              mstore\n                /* \"#utility.yul\":9023:9251   */\n              pop\n              jump\t// out\n                /* \"#utility.yul\":9257:9623   */\n            tag_160:\n                /* \"#utility.yul\":9399:9402   */\n              0x00\n                /* \"#utility.yul\":9420:9487   */\n              tag_240\n                /* \"#utility.yul\":9484:9486   */\n              0x29\n                /* \"#utility.yul\":9479:9482   */\n              dup4\n                /* \"#utility.yul\":9420:9487   */\n              tag_138\n              jump\t// in\n            tag_240:\n                /* \"#utility.yul\":9413:9487   */\n              swap2\n              pop\n                /* \"#utility.yul\":9496:9589   */\n              tag_241\n                /* \"#utility.yul\":9585:9588   */\n              dup3\n                /* \"#utility.yul\":9496:9589   */\n              tag_159\n              jump\t// in\n            tag_241:\n                /* \"#utility.yul\":9614:9616   */\n              0x40\n                /* \"#utility.yul\":9609:9612   */\n              dup3\n                /* \"#utility.yul\":9605:9617   */\n              add\n                /* \"#utility.yul\":9598:9617   */\n              swap1\n              pop\n                /* \"#utility.yul\":9257:9623   */\n              swap2\n              swap1\n              pop\n              jump\t// out\n                /* \"#utility.yul\":9629:10048   */\n            tag_128:\n                /* \"#utility.yul\":9795:9799   */\n              0x00\n                /* \"#utility.yul\":9833:9835   */\n              0x20\n                /* \"#utility.yul\":9822:9831   */\n              dup3\n                /* \"#utility.yul\":9818:9836   */\n              add\n                /* \"#utility.yul\":9810:9836   */\n              swap1\n              pop\n                /* \"#utility.yul\":9882:9891   */\n              dup2\n                /* \"#utility.yul\":9876:9880   */\n              dup2\n                /* \"#utility.yul\":9872:9892   */\n              sub\n                /* \"#utility.yul\":9868:9869   */\n              0x00\n                /* \"#utility.yul\":9857:9866   */\n              dup4\n                /* \"#utility.yul\":9853:9870   */\n              add\n                /* \"#utility.yul\":9846:9893   */\n              mstore\n                /* \"#utility.yul\":9910:10041   */\n              tag_243\n                /* \"#utility.yul\":10036:10040   */\n              dup2\n                /* \"#utility.yul\":9910:10041   */\n              tag_160\n              jump\t// in\n            tag_243:\n                /* \"#utility.yul\":9902:10041   */\n              swap1\n              pop\n                /* \"#utility.yul\":9629:10048   */\n              swap2\n              swap1\n              pop\n              jump\t// out\n                /* \"#utility.yul\":10054:10276   */\n            tag_161:\n                /* \"#utility.yul\":10194:10228   */\n              0x4f6e6c7920726566657265652063616e207365742073746174757320746f206f\n                /* \"#utility.yul\":10190:10191   */\n              0x00\n                /* \"#utility.yul\":10182:10188   */\n              dup3\n                /* \"#utility.yul\":10178:10192   */\n              add\n                /* \"#utility.yul\":10171:10229   */\n              mstore\n                /* \"#utility.yul\":10263:10268   */\n              0x70656e0000000000000000000000000000000000000000000000000000000000\n                /* \"#utility.yul\":10258:10260   */\n              0x20\n                /* \"#utility.yul\":10250:10256   */\n              dup3\n                /* \"#utility.yul\":10246:10261   */\n              add\n                /* \"#utility.yul\":10239:10269   */\n              mstore\n                /* \"#utility.yul\":10054:10276   */\n              pop\n              jump\t// out\n                /* \"#utility.yul\":10282:10648   */\n            tag_162:\n                /* \"#utility.yul\":10424:10427   */\n              0x00\n                /* \"#utility.yul\":10445:10512   */\n              tag_246\n                /* \"#utility.yul\":10509:10511   */\n              0x23\n                /* \"#utility.yul\":10504:10507   */\n              dup4\n                /* \"#utility.yul\":10445:10512   */\n              tag_138\n              jump\t// in\n            tag_246:\n                /* \"#utility.yul\":10438:10512   */\n              swap2\n              pop\n                /* \"#utility.yul\":10521:10614   */\n              tag_247\n                /* \"#utility.yul\":10610:10613   */\n              dup3\n                /* \"#utility.yul\":10521:10614   */\n              tag_161\n              jump\t// in\n            tag_247:\n                /* \"#utility.yul\":10639:10641   */\n              0x40\n                /* \"#utility.yul\":10634:10637   */\n              dup3\n                /* \"#utility.yul\":10630:10642   */\n              add\n                /* \"#utility.yul\":10623:10642   */\n              swap1\n              pop\n                /* \"#utility.yul\":10282:10648   */\n              swap2\n              swap1\n              pop\n              jump\t// out\n                /* \"#utility.yul\":10654:11073   */\n            tag_131:\n                /* \"#utility.yul\":10820:10824   */\n              0x00\n                /* \"#utility.yul\":10858:10860   */\n              0x20\n                /* \"#utility.yul\":10847:10856   */\n              dup3\n                /* \"#utility.yul\":10843:10861   */\n              add\n                /* \"#utility.yul\":10835:10861   */\n              swap1\n              pop\n                /* \"#utility.yul\":10907:10916   */\n              dup2\n                /* \"#utility.yul\":10901:10905   */\n              dup2\n                /* \"#utility.yul\":10897:10917   */\n              sub\n                /* \"#utility.yul\":10893:10894   */\n              0x00\n                /* \"#utility.yul\":10882:10891   */\n              dup4\n                /* \"#utility.yul\":10878:10895   */\n              add\n                /* \"#utility.yul\":10871:10918   */\n              mstore\n                /* \"#utility.yul\":10935:11066   */\n              tag_249\n                /* \"#utility.yul\":11061:11065   */\n              dup2\n                /* \"#utility.yul\":10935:11066   */\n              tag_162\n              jump\t// in\n            tag_249:\n                /* \"#utility.yul\":10927:11066   */\n              swap1\n              pop\n                /* \"#utility.yul\":10654:11073   */\n              swap2\n              swap1\n              pop\n              jump\t// out\n\n            auxdata: 0xa2646970667358221220140047dd435b50ace3e33ed8436e086aa952dadfa876fd3c2bfc5e91d8a07c5c64736f6c634300080c0033\n        }\n    }\n\n    auxdata: 0xa2646970667358221220b461fb3e9d9e9dfdf1a1438d44cfad7387a598d45d9bcf057e9a317a178a372564736f6c634300080c0033\n}\n","bytecode":{"linkReferences":{},"object":"608060405234801561001057600080fd5b506156dc806100206000396000f3fe608060405260043610620001525760003560e01c806375ce46a711620000bb578063b24e67d01162000079578063b24e67d0146200052d578063b3b6633e1462000571578063ca07b4b414620005a1578063dc0e0c1314620005cf578063e10bc83414620005ff578063e436e826146200062d5762000152565b806375ce46a714620003ed5780638793ed80146200041d5780639051e2341462000461578063a87430ba14620004a5578063a908f4fa14620004e95762000152565b8063442a7bc71162000115578063442a7bc714620002955780634841a88514620002d9578063502c9bd514620003095780635b259abf146200034d57806361542c44146200037b57806364a60b4714620003a95762000152565b8063061dff9a14620001575780630e865751146200018557806319ee8bd414620001c957806338db44bc146200020d57806338fb42fd1462000251575b600080fd5b3480156200016457600080fd5b506200018360048036038101906200017d919062002c39565b6200064d565b005b3480156200019257600080fd5b50620001b16004803603810190620001ab919062002ca6565b620007ca565b604051620001c0919062002dbb565b60405180910390f35b348015620001d657600080fd5b50620001f56004803603810190620001ef919062002c39565b6200097e565b60405162000204919062002dbb565b60405180910390f35b3480156200021a57600080fd5b5062000239600480360381019062000233919062002ddf565b62000a50565b60405162000248919062002e22565b60405180910390f35b3480156200025e57600080fd5b506200027d600480360381019062000277919062002ddf565b62000a90565b6040516200028c919062002e22565b60405180910390f35b348015620002a257600080fd5b50620002c16004803603810190620002bb919062002c39565b62000ad0565b604051620002d0919062002dbb565b60405180910390f35b348015620002e657600080fd5b50620002f162000ba1565b60405162000300919062002e50565b60405180910390f35b3480156200031657600080fd5b506200033560048036038101906200032f919062002ddf565b62000ba7565b60405162000344919062002e22565b60405180910390f35b3480156200035a57600080fd5b5062000379600480360381019062000373919062002c39565b62000be7565b005b3480156200038857600080fd5b50620003a76004803603810190620003a1919062002c39565b62000d4c565b005b348015620003b657600080fd5b50620003d56004803603810190620003cf919062002c39565b62000eb1565b604051620003e4919062002e50565b60405180910390f35b348015620003fa57600080fd5b506200040562000ecf565b60405162000414919062002e50565b60405180910390f35b3480156200042a57600080fd5b5062000449600480360381019062000443919062002c39565b62000ed5565b60405162000458919062002dbb565b60405180910390f35b3480156200046e57600080fd5b506200048d600480360381019062000487919062002c39565b62000fa7565b6040516200049c919062002dbb565b60405180910390f35b348015620004b257600080fd5b50620004d16004803603810190620004cb919062002c39565b62001079565b604051620004e0919062002e50565b60405180910390f35b348015620004f657600080fd5b506200051560048036038101906200050f919062002ca6565b62001097565b60405162000524919062002dbb565b60405180910390f35b3480156200053a57600080fd5b5062000559600480360381019062000553919062002c39565b6200124b565b60405162000568919062002dbb565b60405180910390f35b3480156200057e57600080fd5b50620005896200131c565b60405162000598919062002e50565b60405180910390f35b348015620005ae57600080fd5b50620005cd6004803603810190620005c7919062002c39565b62001322565b005b348015620005dc57600080fd5b50620005e7620014f6565b604051620005f6919062002e50565b60405180910390f35b3480156200060c57600080fd5b506200062b600480360381019062000625919062002c39565b620014fc565b005b6200064b600480360381019062000645919062003014565b620019d0565b005b600081905060008173ffffffffffffffffffffffffffffffffffffffff16633c4901746040518163ffffffff1660e01b8152600401602060405180830381865afa158015620006a0573d6000803e3d6000fd5b505050506040513d601f19601f82011682018060405250810190620006c69190620030db565b90508173ffffffffffffffffffffffffffffffffffffffff1663263b81c96040518163ffffffff1660e01b81526004016020604051808303816000875af115801562000716573d6000803e3d6000fd5b505050506040513d601f19601f820116820180604052508101906200073c919062003152565b50620007488162000d4c565b620007c58173ffffffffffffffffffffffffffffffffffffffff16633b1bebd16040518163ffffffff1660e01b8152600401602060405180830381865afa15801562000798573d6000803e3d6000fd5b505050506040513d601f19601f82011682018060405250810190620007be9190620030db565b8462001e43565b505050565b6060600083101562000813576040517f08c379a00000000000000000000000000000000000000000000000000000000081526004016200080a90620031e5565b60405180910390fd5b6003805490508211156200085e576040517f08c379a000000000000000000000000000000000000000000000000000000000815260040162000855906200327d565b60405180910390fd5b600083836200086e9190620032ce565b67ffffffffffffffff8111156200088a576200088962002e88565b5b604051908082528060200260200182016040528015620008b95781602001602082028036833780820191505090505b50905060008490505b83811015620009735760038181548110620008e257620008e162003309565b5b9060005260206000200160009054906101000a900473ffffffffffffffffffffffffffffffffffffffff1682828151811062000923576200092262003309565b5b602002602001019073ffffffffffffffffffffffffffffffffffffffff16908173ffffffffffffffffffffffffffffffffffffffff168152505080806200096a9062003338565b915050620008c2565b508091505092915050565b6060600660008373ffffffffffffffffffffffffffffffffffffffff1673ffffffffffffffffffffffffffffffffffffffff16815260200190815260200160002060020180548060200260200160405190810160405280929190818152602001828054801562000a4457602002820191906000526020600020905b8160009054906101000a900473ffffffffffffffffffffffffffffffffffffffff1673ffffffffffffffffffffffffffffffffffffffff1681526020019060010190808311620009f9575b50505050509050919050565b6003818154811062000a6157600080fd5b906000526020600020016000915054906101000a900473ffffffffffffffffffffffffffffffffffffffff1681565b6008818154811062000aa157600080fd5b906000526020600020016000915054906101000a900473ffffffffffffffffffffffffffffffffffffffff1681565b60606000808373ffffffffffffffffffffffffffffffffffffffff1673ffffffffffffffffffffffffffffffffffffffff16815260200190815260200160002060010180548060200260200160405190810160405280929190818152602001828054801562000b9557602002820191906000526020600020905b8160009054906101000a900473ffffffffffffffffffffffffffffffffffffffff1673ffffffffffffffffffffffffffffffffffffffff168152602001906001019080831162000b4a575b50505050509050919050565b60045481565b6001818154811062000bb857600080fd5b906000526020600020016000915054906101000a900473ffffffffffffffffffffffffffffffffffffffff1681565b60008190508073ffffffffffffffffffffffffffffffffffffffff16632d398fa66040518163ffffffff1660e01b8152600401600060405180830381600087803b15801562000c3557600080fd5b505af115801562000c4a573d6000803e3d6000fd5b5050505062000ccb8173ffffffffffffffffffffffffffffffffffffffff166302d05d3f6040518163ffffffff1660e01b8152600401602060405180830381865afa15801562000c9e573d6000803e3d6000fd5b505050506040513d601f19601f8201168201806040525081019062000cc49190620030db565b83620021b3565b62000d488173ffffffffffffffffffffffffffffffffffffffff16633b1bebd16040518163ffffffff1660e01b8152600401602060405180830381865afa15801562000d1b573d6000803e3d6000fd5b505050506040513d601f19601f8201168201806040525081019062000d419190620030db565b8362002570565b5050565b60008190508073ffffffffffffffffffffffffffffffffffffffff1663b4fedc116040518163ffffffff1660e01b8152600401600060405180830381600087803b15801562000d9a57600080fd5b505af115801562000daf573d6000803e3d6000fd5b5050505062000e308173ffffffffffffffffffffffffffffffffffffffff166302d05d3f6040518163ffffffff1660e01b8152600401602060405180830381865afa15801562000e03573d6000803e3d6000fd5b505050506040513d601f19601f8201168201806040525081019062000e299190620030db565b83620021b3565b62000ead8173ffffffffffffffffffffffffffffffffffffffff16633b1bebd16040518163ffffffff1660e01b8152600401602060405180830381865afa15801562000e80573d6000803e3d6000fd5b505050506040513d601f19601f8201168201806040525081019062000ea69190620030db565b8362002570565b5050565b60066020528060005260406000206000915090508060000154905081565b60025481565b6060600660008373ffffffffffffffffffffffffffffffffffffffff1673ffffffffffffffffffffffffffffffffffffffff16815260200190815260200160002060030180548060200260200160405190810160405280929190818152602001828054801562000f9b57602002820191906000526020600020905b8160009054906101000a900473ffffffffffffffffffffffffffffffffffffffff1673ffffffffffffffffffffffffffffffffffffffff168152602001906001019080831162000f50575b50505050509050919050565b6060600660008373ffffffffffffffffffffffffffffffffffffffff1673ffffffffffffffffffffffffffffffffffffffff1681526020019081526020016000206001018054806020026020016040519081016040528092919081815260200182805480156200106d57602002820191906000526020600020905b8160009054906101000a900473ffffffffffffffffffffffffffffffffffffffff1673ffffffffffffffffffffffffffffffffffffffff168152602001906001019080831162001022575b50505050509050919050565b60006020528060005260406000206000915090508060000154905081565b60606000831015620010e0576040517f08c379a0000000000000000000000000000000000000000000000000000000008152600401620010d790620031e5565b60405180910390fd5b6001805490508211156200112b576040517f08c379a000000000000000000000000000000000000000000000000000000000815260040162001122906200327d565b60405180910390fd5b600083836200113b9190620032ce565b67ffffffffffffffff81111562001157576200115662002e88565b5b604051908082528060200260200182016040528015620011865781602001602082028036833780820191505090505b50905060008490505b83811015620012405760018181548110620011af57620011ae62003309565b5b9060005260206000200160009054906101000a900473ffffffffffffffffffffffffffffffffffffffff16828281518110620011f057620011ef62003309565b5b602002602001019073ffffffffffffffffffffffffffffffffffffffff16908173ffffffffffffffffffffffffffffffffffffffff16815250508080620012379062003338565b9150506200118f565b508091505092915050565b60606000808373ffffffffffffffffffffffffffffffffffffffff1673ffffffffffffffffffffffffffffffffffffffff1681526020019081526020016000206002018054806020026020016040519081016040528092919081815260200182805480156200131057602002820191906000526020600020905b8160009054906101000a900473ffffffffffffffffffffffffffffffffffffffff1673ffffffffffffffffffffffffffffffffffffffff1681526020019060010190808311620012c5575b50505050509050919050565b60075481565b600081905060008173ffffffffffffffffffffffffffffffffffffffff16633c4901746040518163ffffffff1660e01b8152600401602060405180830381865afa15801562001375573d6000803e3d6000fd5b505050506040513d601f19601f820116820180604052508101906200139b9190620030db565b90508173ffffffffffffffffffffffffffffffffffffffff1663e19695f76040518163ffffffff1660e01b81526004016020604051808303816000875af1158015620013eb573d6000803e3d6000fd5b505050506040513d601f19601f8201168201806040525081019062001411919062003152565b506200148f8173ffffffffffffffffffffffffffffffffffffffff16633b1bebd16040518163ffffffff1660e01b8152600401602060405180830381865afa15801562001462573d6000803e3d6000fd5b505050506040513d601f19601f82011682018060405250810190620014889190620030db565b8462001e43565b8073ffffffffffffffffffffffffffffffffffffffff1663f7cc7e4e6040518163ffffffff1660e01b8152600401600060405180830381600087803b158015620014d857600080fd5b505af1158015620014ed573d6000803e3d6000fd5b50505050505050565b60055481565b60008190506000600381111562001518576200151762003386565b5b8173ffffffffffffffffffffffffffffffffffffffff1663200d2ed26040518163ffffffff1660e01b8152600401602060405180830381865afa15801562001564573d6000803e3d6000fd5b505050506040513d601f19601f820116820180604052508101906200158a9190620033dd565b60038111156200159f576200159e62003386565b5b14620015e2576040517f08c379a0000000000000000000000000000000000000000000000000000000008152600401620015d9906200345f565b60405180910390fd5b8073ffffffffffffffffffffffffffffffffffffffff166302d05d3f6040518163ffffffff1660e01b8152600401602060405180830381865afa1580156200162e573d6000803e3d6000fd5b505050506040513d601f19601f82011682018060405250810190620016549190620030db565b73ffffffffffffffffffffffffffffffffffffffff163273ffffffffffffffffffffffffffffffffffffffff1614620016c4576040517f08c379a0000000000000000000000000000000000000000000000000000000008152600401620016bb90620034f7565b60405180910390fd5b8073ffffffffffffffffffffffffffffffffffffffff16633b1bebd16040518163ffffffff1660e01b8152600401602060405180830381865afa15801562001710573d6000803e3d6000fd5b505050506040513d601f19601f82011682018060405250810190620017369190620030db565b73ffffffffffffffffffffffffffffffffffffffff168173ffffffffffffffffffffffffffffffffffffffff166302d05d3f6040518163ffffffff1660e01b8152600401602060405180830381865afa15801562001798573d6000803e3d6000fd5b505050506040513d601f19601f82011682018060405250810190620017be9190620030db565b73ffffffffffffffffffffffffffffffffffffffff16141562001818576040517f08c379a00000000000000000000000000000000000000000000000000000000081526004016200180f906200358f565b60405180910390fd5b600082604051620018299062002ba4565b62001835919062002e22565b604051809103906000f08015801562001852573d6000803e3d6000fd5b509050600660008373ffffffffffffffffffffffffffffffffffffffff16633b1bebd16040518163ffffffff1660e01b8152600401602060405180830381865afa158015620018a5573d6000803e3d6000fd5b505050506040513d601f19601f82011682018060405250810190620018cb9190620030db565b73ffffffffffffffffffffffffffffffffffffffff1673ffffffffffffffffffffffffffffffffffffffff168152602001908152602001600020600301819080600181540180825580915050600190039060005260206000200160009091909190916101000a81548173ffffffffffffffffffffffffffffffffffffffff021916908373ffffffffffffffffffffffffffffffffffffffff1602179055508173ffffffffffffffffffffffffffffffffffffffff1663d1f0047b6040518163ffffffff1660e01b8152600401600060405180830381600087803b158015620019b257600080fd5b505af1158015620019c7573d6000803e3d6000fd5b50505050505050565b60008060003373ffffffffffffffffffffffffffffffffffffffff1673ffffffffffffffffffffffffffffffffffffffff16815260200190815260200160002060000154141562001a99576002600081548092919062001a309062003338565b91905055506001339080600181540180825580915050600190039060005260206000200160009091909190916101000a81548173ffffffffffffffffffffffffffffffffffffffff021916908373ffffffffffffffffffffffffffffffffffffffff1602179055505b6000600660008673ffffffffffffffffffffffffffffffffffffffff1673ffffffffffffffffffffffffffffffffffffffff16815260200190815260200160002060000154141562001b63576007600081548092919062001afa9062003338565b91905055506008849080600181540180825580915050600190039060005260206000200160009091909190916101000a81548173ffffffffffffffffffffffffffffffffffffffff021916908373ffffffffffffffffffffffffffffffffffffffff1602179055505b60003433868686863460405162001b7a9062002bb2565b62001b8b969594939291906200369e565b6040518091039082f090508015801562001ba9573d6000803e3d6000fd5b5090506004600081548092919062001bc19062003338565b91905055506003819080600181540180825580915050600190039060005260206000200160009091909190916101000a81548173ffffffffffffffffffffffffffffffffffffffff021916908373ffffffffffffffffffffffffffffffffffffffff160217905550346005600082825462001c3d919062003719565b925050819055506000803373ffffffffffffffffffffffffffffffffffffffff1673ffffffffffffffffffffffffffffffffffffffff168152602001908152602001600020600001600081548092919062001c989062003338565b91905055506000803373ffffffffffffffffffffffffffffffffffffffff1673ffffffffffffffffffffffffffffffffffffffff168152602001908152602001600020600101819080600181540180825580915050600190039060005260206000200160009091909190916101000a81548173ffffffffffffffffffffffffffffffffffffffff021916908373ffffffffffffffffffffffffffffffffffffffff160217905550600660008673ffffffffffffffffffffffffffffffffffffffff1673ffffffffffffffffffffffffffffffffffffffff168152602001908152602001600020600001600081548092919062001d949062003338565b9190505550600660008673ffffffffffffffffffffffffffffffffffffffff1673ffffffffffffffffffffffffffffffffffffffff168152602001908152602001600020600101819080600181540180825580915050600190039060005260206000200160009091909190916101000a81548173ffffffffffffffffffffffffffffffffffffffff021916908373ffffffffffffffffffffffffffffffffffffffff1602179055505050505050565b600080600090505b6001600660008673ffffffffffffffffffffffffffffffffffffffff1673ffffffffffffffffffffffffffffffffffffffff1681526020019081526020016000206003018054905062001e9f9190620032ce565b811162001f7b578273ffffffffffffffffffffffffffffffffffffffff16600660008673ffffffffffffffffffffffffffffffffffffffff1673ffffffffffffffffffffffffffffffffffffffff168152602001908152602001600020600301828154811062001f145762001f1362003309565b5b9060005260206000200160009054906101000a900473ffffffffffffffffffffffffffffffffffffffff1673ffffffffffffffffffffffffffffffffffffffff16141562001f655780915062001f7b565b808062001f729062003338565b91505062001e4b565b5060008190505b6001600660008673ffffffffffffffffffffffffffffffffffffffff1673ffffffffffffffffffffffffffffffffffffffff1681526020019081526020016000206003018054905062001fd69190620032ce565b8110156200212357600660008573ffffffffffffffffffffffffffffffffffffffff1673ffffffffffffffffffffffffffffffffffffffff1681526020019081526020016000206003016001826200202f919062003719565b8154811062002043576200204262003309565b5b9060005260206000200160009054906101000a900473ffffffffffffffffffffffffffffffffffffffff16600660008673ffffffffffffffffffffffffffffffffffffffff1673ffffffffffffffffffffffffffffffffffffffff1681526020019081526020016000206003018281548110620020c557620020c462003309565b5b9060005260206000200160006101000a81548173ffffffffffffffffffffffffffffffffffffffff021916908373ffffffffffffffffffffffffffffffffffffffff16021790555080806200211a9062003338565b91505062001f82565b50600660008473ffffffffffffffffffffffffffffffffffffffff1673ffffffffffffffffffffffffffffffffffffffff16815260200190815260200160002060030180548062002179576200217862003776565b5b6001900381819060005260206000200160006101000a81549073ffffffffffffffffffffffffffffffffffffffff02191690559055505050565b6000620021c183836200292e565b905060008060008573ffffffffffffffffffffffffffffffffffffffff1673ffffffffffffffffffffffffffffffffffffffff16815260200190815260200160002060010180549050905060008290505b600182620022219190620032ce565b8110156200236c576000808673ffffffffffffffffffffffffffffffffffffffff1673ffffffffffffffffffffffffffffffffffffffff16815260200190815260200160002060010160018262002279919062003719565b815481106200228d576200228c62003309565b5b9060005260206000200160009054906101000a900473ffffffffffffffffffffffffffffffffffffffff166000808773ffffffffffffffffffffffffffffffffffffffff1673ffffffffffffffffffffffffffffffffffffffff16815260200190815260200160002060010182815481106200230e576200230d62003309565b5b9060005260206000200160006101000a81548173ffffffffffffffffffffffffffffffffffffffff021916908373ffffffffffffffffffffffffffffffffffffffff1602179055508080620023639062003338565b91505062002212565b506000808573ffffffffffffffffffffffffffffffffffffffff1673ffffffffffffffffffffffffffffffffffffffff1681526020019081526020016000206002016000808673ffffffffffffffffffffffffffffffffffffffff1673ffffffffffffffffffffffffffffffffffffffff16815260200190815260200160002060010160016000808873ffffffffffffffffffffffffffffffffffffffff1673ffffffffffffffffffffffffffffffffffffffff16815260200190815260200160002060010180549050620024429190620032ce565b8154811062002456576200245562003309565b5b9060005260206000200160009054906101000a900473ffffffffffffffffffffffffffffffffffffffff169080600181540180825580915050600190039060005260206000200160009091909190916101000a81548173ffffffffffffffffffffffffffffffffffffffff021916908373ffffffffffffffffffffffffffffffffffffffff1602179055506000808573ffffffffffffffffffffffffffffffffffffffff1673ffffffffffffffffffffffffffffffffffffffff16815260200190815260200160002060010180548062002535576200253462003776565b5b6001900381819060005260206000200160006101000a81549073ffffffffffffffffffffffffffffffffffffffff0219169055905550505050565b60006200257e838362002a68565b905060008190505b6001600660008673ffffffffffffffffffffffffffffffffffffffff1673ffffffffffffffffffffffffffffffffffffffff16815260200190815260200160002060010180549050620025da9190620032ce565b8110156200272757600660008573ffffffffffffffffffffffffffffffffffffffff1673ffffffffffffffffffffffffffffffffffffffff16815260200190815260200160002060010160018262002633919062003719565b8154811062002647576200264662003309565b5b9060005260206000200160009054906101000a900473ffffffffffffffffffffffffffffffffffffffff16600660008673ffffffffffffffffffffffffffffffffffffffff1673ffffffffffffffffffffffffffffffffffffffff1681526020019081526020016000206001018281548110620026c957620026c862003309565b5b9060005260206000200160006101000a81548173ffffffffffffffffffffffffffffffffffffffff021916908373ffffffffffffffffffffffffffffffffffffffff16021790555080806200271e9062003338565b91505062002586565b50600660008473ffffffffffffffffffffffffffffffffffffffff1673ffffffffffffffffffffffffffffffffffffffff168152602001908152602001600020600201600660008573ffffffffffffffffffffffffffffffffffffffff1673ffffffffffffffffffffffffffffffffffffffff1681526020019081526020016000206001016001600660008773ffffffffffffffffffffffffffffffffffffffff1673ffffffffffffffffffffffffffffffffffffffff16815260200190815260200160002060010180549050620028009190620032ce565b8154811062002814576200281362003309565b5b9060005260206000200160009054906101000a900473ffffffffffffffffffffffffffffffffffffffff169080600181540180825580915050600190039060005260206000200160009091909190916101000a81548173ffffffffffffffffffffffffffffffffffffffff021916908373ffffffffffffffffffffffffffffffffffffffff160217905550600660008473ffffffffffffffffffffffffffffffffffffffff1673ffffffffffffffffffffffffffffffffffffffff168152602001908152602001600020600101805480620028f457620028f362003776565b5b6001900381819060005260206000200160006101000a81549073ffffffffffffffffffffffffffffffffffffffff02191690559055505050565b60008060005b60016000808773ffffffffffffffffffffffffffffffffffffffff1673ffffffffffffffffffffffffffffffffffffffff16815260200190815260200160002060010180549050620029879190620032ce565b811162002a5d578373ffffffffffffffffffffffffffffffffffffffff166000808773ffffffffffffffffffffffffffffffffffffffff1673ffffffffffffffffffffffffffffffffffffffff1681526020019081526020016000206001018281548110620029fb57620029fa62003309565b5b9060005260206000200160009054906101000a900473ffffffffffffffffffffffffffffffffffffffff1673ffffffffffffffffffffffffffffffffffffffff16141562002a47578091505b808062002a549062003338565b91505062002934565b508091505092915050565b60008060005b6001600660008773ffffffffffffffffffffffffffffffffffffffff1673ffffffffffffffffffffffffffffffffffffffff1681526020019081526020016000206001018054905062002ac29190620032ce565b811162002b99578373ffffffffffffffffffffffffffffffffffffffff16600660008773ffffffffffffffffffffffffffffffffffffffff1673ffffffffffffffffffffffffffffffffffffffff168152602001908152602001600020600101828154811062002b375762002b3662003309565b5b9060005260206000200160009054906101000a900473ffffffffffffffffffffffffffffffffffffffff1673ffffffffffffffffffffffffffffffffffffffff16141562002b83578091505b808062002b909062003338565b91505062002a6e565b508091505092915050565b6108cb80620037a683390190565b611636806200407183390190565b6000604051905090565b600080fd5b600080fd5b600073ffffffffffffffffffffffffffffffffffffffff82169050919050565b600062002c018262002bd4565b9050919050565b62002c138162002bf4565b811462002c1f57600080fd5b50565b60008135905062002c338162002c08565b92915050565b60006020828403121562002c525762002c5162002bca565b5b600062002c628482850162002c22565b91505092915050565b6000819050919050565b62002c808162002c6b565b811462002c8c57600080fd5b50565b60008135905062002ca08162002c75565b92915050565b6000806040838503121562002cc05762002cbf62002bca565b5b600062002cd08582860162002c8f565b925050602062002ce38582860162002c8f565b9150509250929050565b600081519050919050565b600082825260208201905092915050565b6000819050602082019050919050565b62002d248162002bf4565b82525050565b600062002d38838362002d19565b60208301905092915050565b6000602082019050919050565b600062002d5e8262002ced565b62002d6a818562002cf8565b935062002d778362002d09565b8060005b8381101562002dae57815162002d92888262002d2a565b975062002d9f8362002d44565b92505060018101905062002d7b565b5085935050505092915050565b6000602082019050818103600083015262002dd7818462002d51565b905092915050565b60006020828403121562002df85762002df762002bca565b5b600062002e088482850162002c8f565b91505092915050565b62002e1c8162002bf4565b82525050565b600060208201905062002e39600083018462002e11565b92915050565b62002e4a8162002c6b565b82525050565b600060208201905062002e67600083018462002e3f565b92915050565b600080fd5b600080fd5b6000601f19601f8301169050919050565b7f4e487b7100000000000000000000000000000000000000000000000000000000600052604160045260246000fd5b62002ec28262002e77565b810181811067ffffffffffffffff8211171562002ee45762002ee362002e88565b5b80604052505050565b600062002ef962002bc0565b905062002f07828262002eb7565b919050565b600067ffffffffffffffff82111562002f2a5762002f2962002e88565b5b62002f358262002e77565b9050602081019050919050565b82818337600083830152505050565b600062002f6862002f628462002f0c565b62002eed565b90508281526020810184848401111562002f875762002f8662002e72565b5b62002f9484828562002f42565b509392505050565b600082601f83011262002fb45762002fb362002e6d565b5b813562002fc684826020860162002f51565b91505092915050565b600062002fdc8262002bd4565b9050919050565b62002fee8162002fcf565b811462002ffa57600080fd5b50565b6000813590506200300e8162002fe3565b92915050565b6000806000806080858703121562003031576200303062002bca565b5b6000620030418782880162002c22565b945050602085013567ffffffffffffffff81111562003065576200306462002bcf565b5b620030738782880162002f9c565b935050604085013567ffffffffffffffff81111562003097576200309662002bcf565b5b620030a58782880162002f9c565b9250506060620030b88782880162002ffd565b91505092959194509250565b600081519050620030d58162002c08565b92915050565b600060208284031215620030f457620030f362002bca565b5b60006200310484828501620030c4565b91505092915050565b60006200311a8262002bf4565b9050919050565b6200312c816200310d565b81146200313857600080fd5b50565b6000815190506200314c8162003121565b92915050565b6000602082840312156200316b576200316a62002bca565b5b60006200317b848285016200313b565b91505092915050565b600082825260208201905092915050565b7f537461727420696e6465782063616e6e6f74206265206e656761746976650000600082015250565b6000620031cd601e8362003184565b9150620031da8262003195565b602082019050919050565b600060208201905081810360008301526200320081620031be565b9050919050565b7f456e6420696e646578206578636565647320757365722061646472657373657360008201527f206c656e67746800000000000000000000000000000000000000000000000000602082015250565b60006200326560278362003184565b9150620032728262003207565b604082019050919050565b60006020820190508181036000830152620032988162003256565b9050919050565b7f4e487b7100000000000000000000000000000000000000000000000000000000600052601160045260246000fd5b6000620032db8262002c6b565b9150620032e88362002c6b565b925082821015620032fe57620032fd6200329f565b5b828203905092915050565b7f4e487b7100000000000000000000000000000000000000000000000000000000600052603260045260246000fd5b6000620033458262002c6b565b91507fffffffffffffffffffffffffffffffffffffffffffffffffffffffffffffffff8214156200337b576200337a6200329f565b5b600182019050919050565b7f4e487b7100000000000000000000000000000000000000000000000000000000600052602160045260246000fd5b60048110620033c357600080fd5b50565b600081519050620033d781620033b5565b92915050565b600060208284031215620033f657620033f562002bca565b5b60006200340684828501620033c6565b91505092915050565b7f436f6e747261637420737461747573206d757374206265206f70656e00000000600082015250565b600062003447601c8362003184565b915062003454826200340f565b602082019050919050565b600060208201905081810360008301526200347a8162003438565b9050919050565b7f4f6e6c792063726561746f72206f6620636f6e74726163742063616e2072657160008201527f7565737420636f6d706c6574696f6e0000000000000000000000000000000000602082015250565b6000620034df602f8362003184565b9150620034ec8262003481565b604082019050919050565b600060208201905081810360008301526200351281620034d0565b9050919050565b7f43616e6e6f74207265717565737420617070726f76616c207768656e2063726560008201527f61746f7220697320726566657265650000000000000000000000000000000000602082015250565b600062003577602f8362003184565b9150620035848262003519565b604082019050919050565b60006020820190508181036000830152620035aa8162003568565b9050919050565b600081519050919050565b60005b83811015620035dc578082015181840152602081019050620035bf565b83811115620035ec576000848401525b50505050565b6000620035ff82620035b1565b6200360b818562003184565b93506200361d818560208601620035bc565b620036288162002e77565b840191505092915050565b6000819050919050565b60006200365e62003658620036528462002bd4565b62003633565b62002bd4565b9050919050565b600062003672826200363d565b9050919050565b6000620036868262003665565b9050919050565b620036988162003679565b82525050565b600060c082019050620036b5600083018962002e11565b620036c4602083018862002e11565b8181036040830152620036d88187620035f2565b90508181036060830152620036ee8186620035f2565b9050620036ff60808301856200368d565b6200370e60a083018462002e3f565b979650505050505050565b6000620037268262002c6b565b9150620037338362002c6b565b9250827fffffffffffffffffffffffffffffffffffffffffffffffffffffffffffffffff038211156200376b576200376a6200329f565b5b828201905092915050565b7f4e487b7100000000000000000000000000000000000000000000000000000000600052603160045260246000fdfe608060405234801561001057600080fd5b506040516108cb3803806108cb8339818101604052810190610032919061026a565b60008190508073ffffffffffffffffffffffffffffffffffffffff166302d05d3f6040518163ffffffff1660e01b8152600401602060405180830381865afa158015610082573d6000803e3d6000fd5b505050506040513d601f19601f820116820180604052508101906100a6919061026a565b6000806101000a81548173ffffffffffffffffffffffffffffffffffffffff021916908373ffffffffffffffffffffffffffffffffffffffff1602179055508073ffffffffffffffffffffffffffffffffffffffff16633b1bebd16040518163ffffffff1660e01b8152600401602060405180830381865afa158015610130573d6000803e3d6000fd5b505050506040513d601f19601f82011682018060405250810190610154919061026a565b600160006101000a81548173ffffffffffffffffffffffffffffffffffffffff021916908373ffffffffffffffffffffffffffffffffffffffff16021790555081600260006101000a81548173ffffffffffffffffffffffffffffffffffffffff021916908373ffffffffffffffffffffffffffffffffffffffff1602179055506000600260146101000a81548160ff021916908360028111156101fb576101fa610297565b5b021790555050506102c6565b600080fd5b600073ffffffffffffffffffffffffffffffffffffffff82169050919050565b60006102378261020c565b9050919050565b6102478161022c565b811461025257600080fd5b50565b6000815190506102648161023e565b92915050565b6000602082840312156102805761027f610207565b5b600061028e84828501610255565b91505092915050565b7f4e487b7100000000000000000000000000000000000000000000000000000000600052602160045260246000fd5b6105f6806102d56000396000f3fe608060405234801561001057600080fd5b50600436106100625760003560e01c806302d05d3f14610067578063200d2ed214610085578063263b81c9146100a35780633b1bebd1146100c15780633c490174146100df578063e19695f7146100fd575b600080fd5b61006f61011b565b60405161007c9190610364565b60405180910390f35b61008d61013f565b60405161009a91906103f6565b60405180910390f35b6100ab610152565b6040516100b89190610470565b60405180910390f35b6100c9610215565b6040516100d69190610364565b60405180910390f35b6100e761023b565b6040516100f49190610364565b60405180910390f35b610105610261565b6040516101129190610470565b60405180910390f35b60008054906101000a900473ffffffffffffffffffffffffffffffffffffffff1681565b600260149054906101000a900460ff1681565b6000600160009054906101000a900473ffffffffffffffffffffffffffffffffffffffff1673ffffffffffffffffffffffffffffffffffffffff163273ffffffffffffffffffffffffffffffffffffffff16146101e4576040517f08c379a00000000000000000000000000000000000000000000000000000000081526004016101db9061050e565b60405180910390fd5b6001600260146101000a81548160ff0219169083600281111561020a5761020961037f565b5b021790555030905090565b600160009054906101000a900473ffffffffffffffffffffffffffffffffffffffff1681565b600260009054906101000a900473ffffffffffffffffffffffffffffffffffffffff1681565b6000600160009054906101000a900473ffffffffffffffffffffffffffffffffffffffff1673ffffffffffffffffffffffffffffffffffffffff163273ffffffffffffffffffffffffffffffffffffffff16146102f3576040517f08c379a00000000000000000000000000000000000000000000000000000000081526004016102ea906105a0565b60405180910390fd5b60028060146101000a81548160ff021916908360028111156103185761031761037f565b5b021790555030905090565b600073ffffffffffffffffffffffffffffffffffffffff82169050919050565b600061034e82610323565b9050919050565b61035e81610343565b82525050565b60006020820190506103796000830184610355565b92915050565b7f4e487b7100000000000000000000000000000000000000000000000000000000600052602160045260246000fd5b600381106103bf576103be61037f565b5b50565b60008190506103d0826103ae565b919050565b60006103e0826103c2565b9050919050565b6103f0816103d5565b82525050565b600060208201905061040b60008301846103e7565b92915050565b6000819050919050565b600061043661043161042c84610323565b610411565b610323565b9050919050565b60006104488261041b565b9050919050565b600061045a8261043d565b9050919050565b61046a8161044f565b82525050565b60006020820190506104856000830184610461565b92915050565b600082825260208201905092915050565b7f4f6e6c7920726566657265652063616e20617070726f766520617070726f766160008201527f6c20726571756573740000000000000000000000000000000000000000000000602082015250565b60006104f860298361048b565b91506105038261049c565b604082019050919050565b60006020820190508181036000830152610527816104eb565b9050919050565b7f4f6e6c7920726566657265652063616e2072656a65637420617070726f76616c60008201527f2072657175657374000000000000000000000000000000000000000000000000602082015250565b600061058a60288361048b565b91506105958261052e565b604082019050919050565b600060208201905081810360008301526105b98161057d565b905091905056fea264697066735822122072e7ac8a134eb6b516d4ba864838b1f75901825f6d8b482291a4434724150a8864736f6c634300080c00336080604052604051620016363803806200163683398181016040528101906200002991906200044b565b856000806101000a81548173ffffffffffffffffffffffffffffffffffffffff021916908373ffffffffffffffffffffffffffffffffffffffff16021790555084600160006101000a81548173ffffffffffffffffffffffffffffffffffffffff021916908373ffffffffffffffffffffffffffffffffffffffff1602179055508360029080519060200190620000c29291906200015e565b508260039080519060200190620000db9291906200015e565b5081600460006101000a81548173ffffffffffffffffffffffffffffffffffffffff021916908373ffffffffffffffffffffffffffffffffffffffff160217905550806005819055506000600660006101000a81548160ff021916908360038111156200014d576200014c62000525565b5b0217905550505050505050620005b9565b8280546200016c9062000583565b90600052602060002090601f016020900481019282620001905760008555620001dc565b82601f10620001ab57805160ff1916838001178555620001dc565b82800160010185558215620001dc579182015b82811115620001db578251825591602001919060010190620001be565b5b509050620001eb9190620001ef565b5090565b5b808211156200020a576000816000905550600101620001f0565b5090565b6000604051905090565b600080fd5b600080fd5b600073ffffffffffffffffffffffffffffffffffffffff82169050919050565b60006200024f8262000222565b9050919050565b620002618162000242565b81146200026d57600080fd5b50565b600081519050620002818162000256565b92915050565b600080fd5b600080fd5b6000601f19601f8301169050919050565b7f4e487b7100000000000000000000000000000000000000000000000000000000600052604160045260246000fd5b620002dc8262000291565b810181811067ffffffffffffffff82111715620002fe57620002fd620002a2565b5b80604052505050565b6000620003136200020e565b9050620003218282620002d1565b919050565b600067ffffffffffffffff821115620003445762000343620002a2565b5b6200034f8262000291565b9050602081019050919050565b60005b838110156200037c5780820151818401526020810190506200035f565b838111156200038c576000848401525b50505050565b6000620003a9620003a38462000326565b62000307565b905082815260208101848484011115620003c857620003c76200028c565b5b620003d58482856200035c565b509392505050565b600082601f830112620003f557620003f462000287565b5b81516200040784826020860162000392565b91505092915050565b6000819050919050565b620004258162000410565b81146200043157600080fd5b50565b60008151905062000445816200041a565b92915050565b60008060008060008060c087890312156200046b576200046a62000218565b5b60006200047b89828a0162000270565b96505060206200048e89828a0162000270565b955050604087015167ffffffffffffffff811115620004b257620004b16200021d565b5b620004c089828a01620003dd565b945050606087015167ffffffffffffffff811115620004e457620004e36200021d565b5b620004f289828a01620003dd565b93505060806200050589828a0162000270565b92505060a06200051889828a0162000434565b9150509295509295509295565b7f4e487b7100000000000000000000000000000000000000000000000000000000600052602160045260246000fd5b7f4e487b7100000000000000000000000000000000000000000000000000000000600052602260045260246000fd5b600060028204905060018216806200059c57607f821691505b60208210811415620005b357620005b262000554565b5b50919050565b61106d80620005c96000396000f3fe60806040526004361061009c5760003560e01c80634177fe51116100645780634177fe51146101575780637284e41614610182578063aa8c217c146101ad578063b4fedc11146101d8578063d1f0047b146101e2578063f7cc7e4e146101f95761009c565b806302d05d3f146100a157806306fdde03146100cc578063200d2ed2146100f75780632d398fa6146101225780633b1bebd11461012c575b600080fd5b3480156100ad57600080fd5b506100b6610210565b6040516100c39190610a62565b60405180910390f35b3480156100d857600080fd5b506100e1610234565b6040516100ee9190610b16565b60405180910390f35b34801561010357600080fd5b5061010c6102c2565b6040516101199190610baf565b60405180910390f35b61012a6102d5565b005b34801561013857600080fd5b50610141610505565b60405161014e9190610a62565b60405180910390f35b34801561016357600080fd5b5061016c61052b565b6040516101799190610a62565b60405180910390f35b34801561018e57600080fd5b50610197610551565b6040516101a49190610b16565b60405180910390f35b3480156101b957600080fd5b506101c26105df565b6040516101cf9190610be3565b60405180910390f35b6101e06105e5565b005b3480156101ee57600080fd5b506101f76107bd565b005b34801561020557600080fd5b5061020e6108ee565b005b60008054906101000a900473ffffffffffffffffffffffffffffffffffffffff1681565b6002805461024190610c2d565b80601f016020809104026020016040519081016040528092919081815260200182805461026d90610c2d565b80156102ba5780601f1061028f576101008083540402835291602001916102ba565b820191906000526020600020905b81548152906001019060200180831161029d57829003601f168201915b505050505081565b600660009054906101000a900460ff1681565b600060038111156102e9576102e8610b38565b5b600660009054906101000a900460ff16600381111561030b5761030a610b38565b5b148061034a57506001600381111561032657610325610b38565b5b600660009054906101000a900460ff16600381111561034857610347610b38565b5b145b610389576040517f08c379a000000000000000000000000000000000000000000000000000000000815260040161038090610cd1565b60405180910390fd5b600160009054906101000a900473ffffffffffffffffffffffffffffffffffffffff1673ffffffffffffffffffffffffffffffffffffffff163273ffffffffffffffffffffffffffffffffffffffff161480610430575060008054906101000a900473ffffffffffffffffffffffffffffffffffffffff1673ffffffffffffffffffffffffffffffffffffffff163273ffffffffffffffffffffffffffffffffffffffff16145b61046f576040517f08c379a000000000000000000000000000000000000000000000000000000000815260040161046690610d63565b60405180910390fd5b600460009054906101000a900473ffffffffffffffffffffffffffffffffffffffff1673ffffffffffffffffffffffffffffffffffffffff166108fc479081150290604051600060405180830381858888f193505050501580156104d7573d6000803e3d6000fd5b506003600660006101000a81548160ff021916908360038111156104fe576104fd610b38565b5b0217905550565b600160009054906101000a900473ffffffffffffffffffffffffffffffffffffffff1681565b600460009054906101000a900473ffffffffffffffffffffffffffffffffffffffff1681565b6003805461055e90610c2d565b80601f016020809104026020016040519081016040528092919081815260200182805461058a90610c2d565b80156105d75780601f106105ac576101008083540402835291602001916105d7565b820191906000526020600020905b8154815290600101906020018083116105ba57829003601f168201915b505050505081565b60055481565b600060038111156105f9576105f8610b38565b5b600660009054906101000a900460ff16600381111561061b5761061a610b38565b5b148061065a57506001600381111561063657610635610b38565b5b600660009054906101000a900460ff16600381111561065857610657610b38565b5b145b610699576040517f08c379a000000000000000000000000000000000000000000000000000000000815260040161069090610cd1565b60405180910390fd5b600160009054906101000a900473ffffffffffffffffffffffffffffffffffffffff1673ffffffffffffffffffffffffffffffffffffffff163273ffffffffffffffffffffffffffffffffffffffff1614610729576040517f08c379a000000000000000000000000000000000000000000000000000000000815260040161072090610df5565b60405180910390fd5b60008054906101000a900473ffffffffffffffffffffffffffffffffffffffff1673ffffffffffffffffffffffffffffffffffffffff166108fc479081150290604051600060405180830381858888f1935050505015801561078f573d6000803e3d6000fd5b506002600660006101000a81548160ff021916908360038111156107b6576107b5610b38565b5b0217905550565b600060038111156107d1576107d0610b38565b5b600660009054906101000a900460ff1660038111156107f3576107f2610b38565b5b14610833576040517f08c379a000000000000000000000000000000000000000000000000000000000815260040161082a90610e61565b60405180910390fd5b60008054906101000a900473ffffffffffffffffffffffffffffffffffffffff1673ffffffffffffffffffffffffffffffffffffffff163273ffffffffffffffffffffffffffffffffffffffff16146108c1576040517f08c379a00000000000000000000000000000000000000000000000000000000081526004016108b890610ef3565b60405180910390fd5b6001600660006101000a81548160ff021916908360038111156108e7576108e6610b38565b5b0217905550565b6001600381111561090257610901610b38565b5b600660009054906101000a900460ff16600381111561092457610923610b38565b5b14610964576040517f08c379a000000000000000000000000000000000000000000000000000000000815260040161095b90610f85565b60405180910390fd5b600160009054906101000a900473ffffffffffffffffffffffffffffffffffffffff1673ffffffffffffffffffffffffffffffffffffffff163273ffffffffffffffffffffffffffffffffffffffff16146109f4576040517f08c379a00000000000000000000000000000000000000000000000000000000081526004016109eb90611017565b60405180910390fd5b6000600660006101000a81548160ff02191690836003811115610a1a57610a19610b38565b5b0217905550565b600073ffffffffffffffffffffffffffffffffffffffff82169050919050565b6000610a4c82610a21565b9050919050565b610a5c81610a41565b82525050565b6000602082019050610a776000830184610a53565b92915050565b600081519050919050565b600082825260208201905092915050565b60005b83811015610ab7578082015181840152602081019050610a9c565b83811115610ac6576000848401525b50505050565b6000601f19601f8301169050919050565b6000610ae882610a7d565b610af28185610a88565b9350610b02818560208601610a99565b610b0b81610acc565b840191505092915050565b60006020820190508181036000830152610b308184610add565b905092915050565b7f4e487b7100000000000000000000000000000000000000000000000000000000600052602160045260246000fd5b60048110610b7857610b77610b38565b5b50565b6000819050610b8982610b67565b919050565b6000610b9982610b7b565b9050919050565b610ba981610b8e565b82525050565b6000602082019050610bc46000830184610ba0565b92915050565b6000819050919050565b610bdd81610bca565b82525050565b6000602082019050610bf86000830184610bd4565b92915050565b7f4e487b7100000000000000000000000000000000000000000000000000000000600052602260045260246000fd5b60006002820490506001821680610c4557607f821691505b60208210811415610c5957610c58610bfe565b5b50919050565b7f436f6e747261637420737461747573206d757374206265206f70656e206f722060008201527f6177616974696e6720617070726f76616c000000000000000000000000000000602082015250565b6000610cbb603183610a88565b9150610cc682610c5f565b604082019050919050565b60006020820190508181036000830152610cea81610cae565b9050919050565b7f4f6e6c792072656665726565206f722063726561746f722063616e206661696c60008201527f20636f6e74726163740000000000000000000000000000000000000000000000602082015250565b6000610d4d602983610a88565b9150610d5882610cf1565b604082019050919050565b60006020820190508181036000830152610d7c81610d40565b9050919050565b7f4f6e6c7920726566657265652063616e20636f6d706c657465206120636f6e7460008201527f7261637400000000000000000000000000000000000000000000000000000000602082015250565b6000610ddf602483610a88565b9150610dea82610d83565b604082019050919050565b60006020820190508181036000830152610e0e81610dd2565b9050919050565b7f436f6e747261637420737461747573206d757374206265206f70656e00000000600082015250565b6000610e4b601c83610a88565b9150610e5682610e15565b602082019050919050565b60006020820190508181036000830152610e7a81610e3e565b9050919050565b7f4f6e6c792063726561746f722063616e206368616e676520617070726f76616c60008201527f2073746174757300000000000000000000000000000000000000000000000000602082015250565b6000610edd602783610a88565b9150610ee882610e81565b604082019050919050565b60006020820190508181036000830152610f0c81610ed0565b9050919050565b7f436f6e747261637420737461747573206d757374206265206177616974696e6760008201527f20617070726f76616c0000000000000000000000000000000000000000000000602082015250565b6000610f6f602983610a88565b9150610f7a82610f13565b604082019050919050565b60006020820190508181036000830152610f9e81610f62565b9050919050565b7f4f6e6c7920726566657265652063616e207365742073746174757320746f206f60008201527f70656e0000000000000000000000000000000000000000000000000000000000602082015250565b6000611001602383610a88565b915061100c82610fa5565b604082019050919050565b6000602082019050818103600083015261103081610ff4565b905091905056fea2646970667358221220140047dd435b50ace3e33ed8436e086aa952dadfa876fd3c2bfc5e91d8a07c5c64736f6c634300080c0033a2646970667358221220b461fb3e9d9e9dfdf1a1438d44cfad7387a598d45d9bcf057e9a317a178a372564736f6c634300080c0033","opcodes":"PUSH1 0x80 PUSH1 0x40 MSTORE CALLVALUE DUP1 ISZERO PUSH2 0x10 JUMPI PUSH1 0x0 DUP1 REVERT JUMPDEST POP PUSH2 0x56DC DUP1 PUSH2 0x20 PUSH1 0x0 CODECOPY PUSH1 0x0 RETURN INVALID PUSH1 0x80 PUSH1 0x40 MSTORE PUSH1 0x4 CALLDATASIZE LT PUSH3 0x152 JUMPI PUSH1 0x0 CALLDATALOAD PUSH1 0xE0 SHR DUP1 PUSH4 0x75CE46A7 GT PUSH3 0xBB JUMPI DUP1 PUSH4 0xB24E67D0 GT PUSH3 0x79 JUMPI DUP1 PUSH4 0xB24E67D0 EQ PUSH3 0x52D JUMPI DUP1 PUSH4 0xB3B6633E EQ PUSH3 0x571 JUMPI DUP1 PUSH4 0xCA07B4B4 EQ PUSH3 0x5A1 JUMPI DUP1 PUSH4 0xDC0E0C13 EQ PUSH3 0x5CF JUMPI DUP1 PUSH4 0xE10BC834 EQ PUSH3 0x5FF JUMPI DUP1 PUSH4 0xE436E826 EQ PUSH3 0x62D JUMPI PUSH3 0x152 JUMP JUMPDEST DUP1 PUSH4 0x75CE46A7 EQ PUSH3 0x3ED JUMPI DUP1 PUSH4 0x8793ED80 EQ PUSH3 0x41D JUMPI DUP1 PUSH4 0x9051E234 EQ PUSH3 0x461 JUMPI DUP1 PUSH4 0xA87430BA EQ PUSH3 0x4A5 JUMPI DUP1 PUSH4 0xA908F4FA EQ PUSH3 0x4E9 JUMPI PUSH3 0x152 JUMP JUMPDEST DUP1 PUSH4 0x442A7BC7 GT PUSH3 0x115 JUMPI DUP1 PUSH4 0x442A7BC7 EQ PUSH3 0x295 JUMPI DUP1 PUSH4 0x4841A885 EQ PUSH3 0x2D9 JUMPI DUP1 PUSH4 0x502C9BD5 EQ PUSH3 0x309 JUMPI DUP1 PUSH4 0x5B259ABF EQ PUSH3 0x34D JUMPI DUP1 PUSH4 0x61542C44 EQ PUSH3 0x37B JUMPI DUP1 PUSH4 0x64A60B47 EQ PUSH3 0x3A9 JUMPI PUSH3 0x152 JUMP JUMPDEST DUP1 PUSH4 0x61DFF9A EQ PUSH3 0x157 JUMPI DUP1 PUSH4 0xE865751 EQ PUSH3 0x185 JUMPI DUP1 PUSH4 0x19EE8BD4 EQ PUSH3 0x1C9 JUMPI DUP1 PUSH4 0x38DB44BC EQ PUSH3 0x20D JUMPI DUP1 PUSH4 0x38FB42FD EQ PUSH3 0x251 JUMPI JUMPDEST PUSH1 0x0 DUP1 REVERT JUMPDEST CALLVALUE DUP1 ISZERO PUSH3 0x164 JUMPI PUSH1 0x0 DUP1 REVERT JUMPDEST POP PUSH3 0x183 PUSH1 0x4 DUP1 CALLDATASIZE SUB DUP2 ADD SWAP1 PUSH3 0x17D SWAP2 SWAP1 PUSH3 0x2C39 JUMP JUMPDEST PUSH3 0x64D JUMP JUMPDEST STOP JUMPDEST CALLVALUE DUP1 ISZERO PUSH3 0x192 JUMPI PUSH1 0x0 DUP1 REVERT JUMPDEST POP PUSH3 0x1B1 PUSH1 0x4 DUP1 CALLDATASIZE SUB DUP2 ADD SWAP1 PUSH3 0x1AB SWAP2 SWAP1 PUSH3 0x2CA6 JUMP JUMPDEST PUSH3 0x7CA JUMP JUMPDEST PUSH1 0x40 MLOAD PUSH3 0x1C0 SWAP2 SWAP1 PUSH3 0x2DBB JUMP JUMPDEST PUSH1 0x40 MLOAD DUP1 SWAP2 SUB SWAP1 RETURN JUMPDEST CALLVALUE DUP1 ISZERO PUSH3 0x1D6 JUMPI PUSH1 0x0 DUP1 REVERT JUMPDEST POP PUSH3 0x1F5 PUSH1 0x4 DUP1 CALLDATASIZE SUB DUP2 ADD SWAP1 PUSH3 0x1EF SWAP2 SWAP1 PUSH3 0x2C39 JUMP JUMPDEST PUSH3 0x97E JUMP JUMPDEST PUSH1 0x40 MLOAD PUSH3 0x204 SWAP2 SWAP1 PUSH3 0x2DBB JUMP JUMPDEST PUSH1 0x40 MLOAD DUP1 SWAP2 SUB SWAP1 RETURN JUMPDEST CALLVALUE DUP1 ISZERO PUSH3 0x21A JUMPI PUSH1 0x0 DUP1 REVERT JUMPDEST POP PUSH3 0x239 PUSH1 0x4 DUP1 CALLDATASIZE SUB DUP2 ADD SWAP1 PUSH3 0x233 SWAP2 SWAP1 PUSH3 0x2DDF JUMP JUMPDEST PUSH3 0xA50 JUMP JUMPDEST PUSH1 0x40 MLOAD PUSH3 0x248 SWAP2 SWAP1 PUSH3 0x2E22 JUMP JUMPDEST PUSH1 0x40 MLOAD DUP1 SWAP2 SUB SWAP1 RETURN JUMPDEST CALLVALUE DUP1 ISZERO PUSH3 0x25E JUMPI PUSH1 0x0 DUP1 REVERT JUMPDEST POP PUSH3 0x27D PUSH1 0x4 DUP1 CALLDATASIZE SUB DUP2 ADD SWAP1 PUSH3 0x277 SWAP2 SWAP1 PUSH3 0x2DDF JUMP JUMPDEST PUSH3 0xA90 JUMP JUMPDEST PUSH1 0x40 MLOAD PUSH3 0x28C SWAP2 SWAP1 PUSH3 0x2E22 JUMP JUMPDEST PUSH1 0x40 MLOAD DUP1 SWAP2 SUB SWAP1 RETURN JUMPDEST CALLVALUE DUP1 ISZERO PUSH3 0x2A2 JUMPI PUSH1 0x0 DUP1 REVERT JUMPDEST POP PUSH3 0x2C1 PUSH1 0x4 DUP1 CALLDATASIZE SUB DUP2 ADD SWAP1 PUSH3 0x2BB SWAP2 SWAP1 PUSH3 0x2C39 JUMP JUMPDEST PUSH3 0xAD0 JUMP JUMPDEST PUSH1 0x40 MLOAD PUSH3 0x2D0 SWAP2 SWAP1 PUSH3 0x2DBB JUMP JUMPDEST PUSH1 0x40 MLOAD DUP1 SWAP2 SUB SWAP1 RETURN JUMPDEST CALLVALUE DUP1 ISZERO PUSH3 0x2E6 JUMPI PUSH1 0x0 DUP1 REVERT JUMPDEST POP PUSH3 0x2F1 PUSH3 0xBA1 JUMP JUMPDEST PUSH1 0x40 MLOAD PUSH3 0x300 SWAP2 SWAP1 PUSH3 0x2E50 JUMP JUMPDEST PUSH1 0x40 MLOAD DUP1 SWAP2 SUB SWAP1 RETURN JUMPDEST CALLVALUE DUP1 ISZERO PUSH3 0x316 JUMPI PUSH1 0x0 DUP1 REVERT JUMPDEST POP PUSH3 0x335 PUSH1 0x4 DUP1 CALLDATASIZE SUB DUP2 ADD SWAP1 PUSH3 0x32F SWAP2 SWAP1 PUSH3 0x2DDF JUMP JUMPDEST PUSH3 0xBA7 JUMP JUMPDEST PUSH1 0x40 MLOAD PUSH3 0x344 SWAP2 SWAP1 PUSH3 0x2E22 JUMP JUMPDEST PUSH1 0x40 MLOAD DUP1 SWAP2 SUB SWAP1 RETURN JUMPDEST CALLVALUE DUP1 ISZERO PUSH3 0x35A JUMPI PUSH1 0x0 DUP1 REVERT JUMPDEST POP PUSH3 0x379 PUSH1 0x4 DUP1 CALLDATASIZE SUB DUP2 ADD SWAP1 PUSH3 0x373 SWAP2 SWAP1 PUSH3 0x2C39 JUMP JUMPDEST PUSH3 0xBE7 JUMP JUMPDEST STOP JUMPDEST CALLVALUE DUP1 ISZERO PUSH3 0x388 JUMPI PUSH1 0x0 DUP1 REVERT JUMPDEST POP PUSH3 0x3A7 PUSH1 0x4 DUP1 CALLDATASIZE SUB DUP2 ADD SWAP1 PUSH3 0x3A1 SWAP2 SWAP1 PUSH3 0x2C39 JUMP JUMPDEST PUSH3 0xD4C JUMP JUMPDEST STOP JUMPDEST CALLVALUE DUP1 ISZERO PUSH3 0x3B6 JUMPI PUSH1 0x0 DUP1 REVERT JUMPDEST POP PUSH3 0x3D5 PUSH1 0x4 DUP1 CALLDATASIZE SUB DUP2 ADD SWAP1 PUSH3 0x3CF SWAP2 SWAP1 PUSH3 0x2C39 JUMP JUMPDEST PUSH3 0xEB1 JUMP JUMPDEST PUSH1 0x40 MLOAD PUSH3 0x3E4 SWAP2 SWAP1 PUSH3 0x2E50 JUMP JUMPDEST PUSH1 0x40 MLOAD DUP1 SWAP2 SUB SWAP1 RETURN JUMPDEST CALLVALUE DUP1 ISZERO PUSH3 0x3FA JUMPI PUSH1 0x0 DUP1 REVERT JUMPDEST POP PUSH3 0x405 PUSH3 0xECF JUMP JUMPDEST PUSH1 0x40 MLOAD PUSH3 0x414 SWAP2 SWAP1 PUSH3 0x2E50 JUMP JUMPDEST PUSH1 0x40 MLOAD DUP1 SWAP2 SUB SWAP1 RETURN JUMPDEST CALLVALUE DUP1 ISZERO PUSH3 0x42A JUMPI PUSH1 0x0 DUP1 REVERT JUMPDEST POP PUSH3 0x449 PUSH1 0x4 DUP1 CALLDATASIZE SUB DUP2 ADD SWAP1 PUSH3 0x443 SWAP2 SWAP1 PUSH3 0x2C39 JUMP JUMPDEST PUSH3 0xED5 JUMP JUMPDEST PUSH1 0x40 MLOAD PUSH3 0x458 SWAP2 SWAP1 PUSH3 0x2DBB JUMP JUMPDEST PUSH1 0x40 MLOAD DUP1 SWAP2 SUB SWAP1 RETURN JUMPDEST CALLVALUE DUP1 ISZERO PUSH3 0x46E JUMPI PUSH1 0x0 DUP1 REVERT JUMPDEST POP PUSH3 0x48D PUSH1 0x4 DUP1 CALLDATASIZE SUB DUP2 ADD SWAP1 PUSH3 0x487 SWAP2 SWAP1 PUSH3 0x2C39 JUMP JUMPDEST PUSH3 0xFA7 JUMP JUMPDEST PUSH1 0x40 MLOAD PUSH3 0x49C SWAP2 SWAP1 PUSH3 0x2DBB JUMP JUMPDEST PUSH1 0x40 MLOAD DUP1 SWAP2 SUB SWAP1 RETURN JUMPDEST CALLVALUE DUP1 ISZERO PUSH3 0x4B2 JUMPI PUSH1 0x0 DUP1 REVERT JUMPDEST POP PUSH3 0x4D1 PUSH1 0x4 DUP1 CALLDATASIZE SUB DUP2 ADD SWAP1 PUSH3 0x4CB SWAP2 SWAP1 PUSH3 0x2C39 JUMP JUMPDEST PUSH3 0x1079 JUMP JUMPDEST PUSH1 0x40 MLOAD PUSH3 0x4E0 SWAP2 SWAP1 PUSH3 0x2E50 JUMP JUMPDEST PUSH1 0x40 MLOAD DUP1 SWAP2 SUB SWAP1 RETURN JUMPDEST CALLVALUE DUP1 ISZERO PUSH3 0x4F6 JUMPI PUSH1 0x0 DUP1 REVERT JUMPDEST POP PUSH3 0x515 PUSH1 0x4 DUP1 CALLDATASIZE SUB DUP2 ADD SWAP1 PUSH3 0x50F SWAP2 SWAP1 PUSH3 0x2CA6 JUMP JUMPDEST PUSH3 0x1097 JUMP JUMPDEST PUSH1 0x40 MLOAD PUSH3 0x524 SWAP2 SWAP1 PUSH3 0x2DBB JUMP JUMPDEST PUSH1 0x40 MLOAD DUP1 SWAP2 SUB SWAP1 RETURN JUMPDEST CALLVALUE DUP1 ISZERO PUSH3 0x53A JUMPI PUSH1 0x0 DUP1 REVERT JUMPDEST POP PUSH3 0x559 PUSH1 0x4 DUP1 CALLDATASIZE SUB DUP2 ADD SWAP1 PUSH3 0x553 SWAP2 SWAP1 PUSH3 0x2C39 JUMP JUMPDEST PUSH3 0x124B JUMP JUMPDEST PUSH1 0x40 MLOAD PUSH3 0x568 SWAP2 SWAP1 PUSH3 0x2DBB JUMP JUMPDEST PUSH1 0x40 MLOAD DUP1 SWAP2 SUB SWAP1 RETURN JUMPDEST CALLVALUE DUP1 ISZERO PUSH3 0x57E JUMPI PUSH1 0x0 DUP1 REVERT JUMPDEST POP PUSH3 0x589 PUSH3 0x131C JUMP JUMPDEST PUSH1 0x40 MLOAD PUSH3 0x598 SWAP2 SWAP1 PUSH3 0x2E50 JUMP JUMPDEST PUSH1 0x40 MLOAD DUP1 SWAP2 SUB SWAP1 RETURN JUMPDEST CALLVALUE DUP1 ISZERO PUSH3 0x5AE JUMPI PUSH1 0x0 DUP1 REVERT JUMPDEST POP PUSH3 0x5CD PUSH1 0x4 DUP1 CALLDATASIZE SUB DUP2 ADD SWAP1 PUSH3 0x5C7 SWAP2 SWAP1 PUSH3 0x2C39 JUMP JUMPDEST PUSH3 0x1322 JUMP JUMPDEST STOP JUMPDEST CALLVALUE DUP1 ISZERO PUSH3 0x5DC JUMPI PUSH1 0x0 DUP1 REVERT JUMPDEST POP PUSH3 0x5E7 PUSH3 0x14F6 JUMP JUMPDEST PUSH1 0x40 MLOAD PUSH3 0x5F6 SWAP2 SWAP1 PUSH3 0x2E50 JUMP JUMPDEST PUSH1 0x40 MLOAD DUP1 SWAP2 SUB SWAP1 RETURN JUMPDEST CALLVALUE DUP1 ISZERO PUSH3 0x60C JUMPI PUSH1 0x0 DUP1 REVERT JUMPDEST POP PUSH3 0x62B PUSH1 0x4 DUP1 CALLDATASIZE SUB DUP2 ADD SWAP1 PUSH3 0x625 SWAP2 SWAP1 PUSH3 0x2C39 JUMP JUMPDEST PUSH3 0x14FC JUMP JUMPDEST STOP JUMPDEST PUSH3 0x64B PUSH1 0x4 DUP1 CALLDATASIZE SUB DUP2 ADD SWAP1 PUSH3 0x645 SWAP2 SWAP1 PUSH3 0x3014 JUMP JUMPDEST PUSH3 0x19D0 JUMP JUMPDEST STOP JUMPDEST PUSH1 0x0 DUP2 SWAP1 POP PUSH1 0x0 DUP2 PUSH20 0xFFFFFFFFFFFFFFFFFFFFFFFFFFFFFFFFFFFFFFFF AND PUSH4 0x3C490174 PUSH1 0x40 MLOAD DUP2 PUSH4 0xFFFFFFFF AND PUSH1 0xE0 SHL DUP2 MSTORE PUSH1 0x4 ADD PUSH1 0x20 PUSH1 0x40 MLOAD DUP1 DUP4 SUB DUP2 DUP7 GAS STATICCALL ISZERO DUP1 ISZERO PUSH3 0x6A0 JUMPI RETURNDATASIZE PUSH1 0x0 DUP1 RETURNDATACOPY RETURNDATASIZE PUSH1 0x0 REVERT JUMPDEST POP POP POP POP PUSH1 0x40 MLOAD RETURNDATASIZE PUSH1 0x1F NOT PUSH1 0x1F DUP3 ADD AND DUP3 ADD DUP1 PUSH1 0x40 MSTORE POP DUP2 ADD SWAP1 PUSH3 0x6C6 SWAP2 SWAP1 PUSH3 0x30DB JUMP JUMPDEST SWAP1 POP DUP2 PUSH20 0xFFFFFFFFFFFFFFFFFFFFFFFFFFFFFFFFFFFFFFFF AND PUSH4 0x263B81C9 PUSH1 0x40 MLOAD DUP2 PUSH4 0xFFFFFFFF AND PUSH1 0xE0 SHL DUP2 MSTORE PUSH1 0x4 ADD PUSH1 0x20 PUSH1 0x40 MLOAD DUP1 DUP4 SUB DUP2 PUSH1 0x0 DUP8 GAS CALL ISZERO DUP1 ISZERO PUSH3 0x716 JUMPI RETURNDATASIZE PUSH1 0x0 DUP1 RETURNDATACOPY RETURNDATASIZE PUSH1 0x0 REVERT JUMPDEST POP POP POP POP PUSH1 0x40 MLOAD RETURNDATASIZE PUSH1 0x1F NOT PUSH1 0x1F DUP3 ADD AND DUP3 ADD DUP1 PUSH1 0x40 MSTORE POP DUP2 ADD SWAP1 PUSH3 0x73C SWAP2 SWAP1 PUSH3 0x3152 JUMP JUMPDEST POP PUSH3 0x748 DUP2 PUSH3 0xD4C JUMP JUMPDEST PUSH3 0x7C5 DUP2 PUSH20 0xFFFFFFFFFFFFFFFFFFFFFFFFFFFFFFFFFFFFFFFF AND PUSH4 0x3B1BEBD1 PUSH1 0x40 MLOAD DUP2 PUSH4 0xFFFFFFFF AND PUSH1 0xE0 SHL DUP2 MSTORE PUSH1 0x4 ADD PUSH1 0x20 PUSH1 0x40 MLOAD DUP1 DUP4 SUB DUP2 DUP7 GAS STATICCALL ISZERO DUP1 ISZERO PUSH3 0x798 JUMPI RETURNDATASIZE PUSH1 0x0 DUP1 RETURNDATACOPY RETURNDATASIZE PUSH1 0x0 REVERT JUMPDEST POP POP POP POP PUSH1 0x40 MLOAD RETURNDATASIZE PUSH1 0x1F NOT PUSH1 0x1F DUP3 ADD AND DUP3 ADD DUP1 PUSH1 0x40 MSTORE POP DUP2 ADD SWAP1 PUSH3 0x7BE SWAP2 SWAP1 PUSH3 0x30DB JUMP JUMPDEST DUP5 PUSH3 0x1E43 JUMP JUMPDEST POP POP POP JUMP JUMPDEST PUSH1 0x60 PUSH1 0x0 DUP4 LT ISZERO PUSH3 0x813 JUMPI PUSH1 0x40 MLOAD PUSH32 0x8C379A000000000000000000000000000000000000000000000000000000000 DUP2 MSTORE PUSH1 0x4 ADD PUSH3 0x80A SWAP1 PUSH3 0x31E5 JUMP JUMPDEST PUSH1 0x40 MLOAD DUP1 SWAP2 SUB SWAP1 REVERT JUMPDEST PUSH1 0x3 DUP1 SLOAD SWAP1 POP DUP3 GT ISZERO PUSH3 0x85E JUMPI PUSH1 0x40 MLOAD PUSH32 0x8C379A000000000000000000000000000000000000000000000000000000000 DUP2 MSTORE PUSH1 0x4 ADD PUSH3 0x855 SWAP1 PUSH3 0x327D JUMP JUMPDEST PUSH1 0x40 MLOAD DUP1 SWAP2 SUB SWAP1 REVERT JUMPDEST PUSH1 0x0 DUP4 DUP4 PUSH3 0x86E SWAP2 SWAP1 PUSH3 0x32CE JUMP JUMPDEST PUSH8 0xFFFFFFFFFFFFFFFF DUP2 GT ISZERO PUSH3 0x88A JUMPI PUSH3 0x889 PUSH3 0x2E88 JUMP JUMPDEST JUMPDEST PUSH1 0x40 MLOAD SWAP1 DUP1 DUP3 MSTORE DUP1 PUSH1 0x20 MUL PUSH1 0x20 ADD DUP3 ADD PUSH1 0x40 MSTORE DUP1 ISZERO PUSH3 0x8B9 JUMPI DUP2 PUSH1 0x20 ADD PUSH1 0x20 DUP3 MUL DUP1 CALLDATASIZE DUP4 CALLDATACOPY DUP1 DUP3 ADD SWAP2 POP POP SWAP1 POP JUMPDEST POP SWAP1 POP PUSH1 0x0 DUP5 SWAP1 POP JUMPDEST DUP4 DUP2 LT ISZERO PUSH3 0x973 JUMPI PUSH1 0x3 DUP2 DUP2 SLOAD DUP2 LT PUSH3 0x8E2 JUMPI PUSH3 0x8E1 PUSH3 0x3309 JUMP JUMPDEST JUMPDEST SWAP1 PUSH1 0x0 MSTORE PUSH1 0x20 PUSH1 0x0 KECCAK256 ADD PUSH1 0x0 SWAP1 SLOAD SWAP1 PUSH2 0x100 EXP SWAP1 DIV PUSH20 0xFFFFFFFFFFFFFFFFFFFFFFFFFFFFFFFFFFFFFFFF AND DUP3 DUP3 DUP2 MLOAD DUP2 LT PUSH3 0x923 JUMPI PUSH3 0x922 PUSH3 0x3309 JUMP JUMPDEST JUMPDEST PUSH1 0x20 MUL PUSH1 0x20 ADD ADD SWAP1 PUSH20 0xFFFFFFFFFFFFFFFFFFFFFFFFFFFFFFFFFFFFFFFF AND SWAP1 DUP2 PUSH20 0xFFFFFFFFFFFFFFFFFFFFFFFFFFFFFFFFFFFFFFFF AND DUP2 MSTORE POP POP DUP1 DUP1 PUSH3 0x96A SWAP1 PUSH3 0x3338 JUMP JUMPDEST SWAP2 POP POP PUSH3 0x8C2 JUMP JUMPDEST POP DUP1 SWAP2 POP POP SWAP3 SWAP2 POP POP JUMP JUMPDEST PUSH1 0x60 PUSH1 0x6 PUSH1 0x0 DUP4 PUSH20 0xFFFFFFFFFFFFFFFFFFFFFFFFFFFFFFFFFFFFFFFF AND PUSH20 0xFFFFFFFFFFFFFFFFFFFFFFFFFFFFFFFFFFFFFFFF AND DUP2 MSTORE PUSH1 0x20 ADD SWAP1 DUP2 MSTORE PUSH1 0x20 ADD PUSH1 0x0 KECCAK256 PUSH1 0x2 ADD DUP1 SLOAD DUP1 PUSH1 0x20 MUL PUSH1 0x20 ADD PUSH1 0x40 MLOAD SWAP1 DUP2 ADD PUSH1 0x40 MSTORE DUP1 SWAP3 SWAP2 SWAP1 DUP2 DUP2 MSTORE PUSH1 0x20 ADD DUP3 DUP1 SLOAD DUP1 ISZERO PUSH3 0xA44 JUMPI PUSH1 0x20 MUL DUP3 ADD SWAP2 SWAP1 PUSH1 0x0 MSTORE PUSH1 0x20 PUSH1 0x0 KECCAK256 SWAP1 JUMPDEST DUP2 PUSH1 0x0 SWAP1 SLOAD SWAP1 PUSH2 0x100 EXP SWAP1 DIV PUSH20 0xFFFFFFFFFFFFFFFFFFFFFFFFFFFFFFFFFFFFFFFF AND PUSH20 0xFFFFFFFFFFFFFFFFFFFFFFFFFFFFFFFFFFFFFFFF AND DUP2 MSTORE PUSH1 0x20 ADD SWAP1 PUSH1 0x1 ADD SWAP1 DUP1 DUP4 GT PUSH3 0x9F9 JUMPI JUMPDEST POP POP POP POP POP SWAP1 POP SWAP2 SWAP1 POP JUMP JUMPDEST PUSH1 0x3 DUP2 DUP2 SLOAD DUP2 LT PUSH3 0xA61 JUMPI PUSH1 0x0 DUP1 REVERT JUMPDEST SWAP1 PUSH1 0x0 MSTORE PUSH1 0x20 PUSH1 0x0 KECCAK256 ADD PUSH1 0x0 SWAP2 POP SLOAD SWAP1 PUSH2 0x100 EXP SWAP1 DIV PUSH20 0xFFFFFFFFFFFFFFFFFFFFFFFFFFFFFFFFFFFFFFFF AND DUP2 JUMP JUMPDEST PUSH1 0x8 DUP2 DUP2 SLOAD DUP2 LT PUSH3 0xAA1 JUMPI PUSH1 0x0 DUP1 REVERT JUMPDEST SWAP1 PUSH1 0x0 MSTORE PUSH1 0x20 PUSH1 0x0 KECCAK256 ADD PUSH1 0x0 SWAP2 POP SLOAD SWAP1 PUSH2 0x100 EXP SWAP1 DIV PUSH20 0xFFFFFFFFFFFFFFFFFFFFFFFFFFFFFFFFFFFFFFFF AND DUP2 JUMP JUMPDEST PUSH1 0x60 PUSH1 0x0 DUP1 DUP4 PUSH20 0xFFFFFFFFFFFFFFFFFFFFFFFFFFFFFFFFFFFFFFFF AND PUSH20 0xFFFFFFFFFFFFFFFFFFFFFFFFFFFFFFFFFFFFFFFF AND DUP2 MSTORE PUSH1 0x20 ADD SWAP1 DUP2 MSTORE PUSH1 0x20 ADD PUSH1 0x0 KECCAK256 PUSH1 0x1 ADD DUP1 SLOAD DUP1 PUSH1 0x20 MUL PUSH1 0x20 ADD PUSH1 0x40 MLOAD SWAP1 DUP2 ADD PUSH1 0x40 MSTORE DUP1 SWAP3 SWAP2 SWAP1 DUP2 DUP2 MSTORE PUSH1 0x20 ADD DUP3 DUP1 SLOAD DUP1 ISZERO PUSH3 0xB95 JUMPI PUSH1 0x20 MUL DUP3 ADD SWAP2 SWAP1 PUSH1 0x0 MSTORE PUSH1 0x20 PUSH1 0x0 KECCAK256 SWAP1 JUMPDEST DUP2 PUSH1 0x0 SWAP1 SLOAD SWAP1 PUSH2 0x100 EXP SWAP1 DIV PUSH20 0xFFFFFFFFFFFFFFFFFFFFFFFFFFFFFFFFFFFFFFFF AND PUSH20 0xFFFFFFFFFFFFFFFFFFFFFFFFFFFFFFFFFFFFFFFF AND DUP2 MSTORE PUSH1 0x20 ADD SWAP1 PUSH1 0x1 ADD SWAP1 DUP1 DUP4 GT PUSH3 0xB4A JUMPI JUMPDEST POP POP POP POP POP SWAP1 POP SWAP2 SWAP1 POP JUMP JUMPDEST PUSH1 0x4 SLOAD DUP2 JUMP JUMPDEST PUSH1 0x1 DUP2 DUP2 SLOAD DUP2 LT PUSH3 0xBB8 JUMPI PUSH1 0x0 DUP1 REVERT JUMPDEST SWAP1 PUSH1 0x0 MSTORE PUSH1 0x20 PUSH1 0x0 KECCAK256 ADD PUSH1 0x0 SWAP2 POP SLOAD SWAP1 PUSH2 0x100 EXP SWAP1 DIV PUSH20 0xFFFFFFFFFFFFFFFFFFFFFFFFFFFFFFFFFFFFFFFF AND DUP2 JUMP JUMPDEST PUSH1 0x0 DUP2 SWAP1 POP DUP1 PUSH20 0xFFFFFFFFFFFFFFFFFFFFFFFFFFFFFFFFFFFFFFFF AND PUSH4 0x2D398FA6 PUSH1 0x40 MLOAD DUP2 PUSH4 0xFFFFFFFF AND PUSH1 0xE0 SHL DUP2 MSTORE PUSH1 0x4 ADD PUSH1 0x0 PUSH1 0x40 MLOAD DUP1 DUP4 SUB DUP2 PUSH1 0x0 DUP8 DUP1 EXTCODESIZE ISZERO DUP1 ISZERO PUSH3 0xC35 JUMPI PUSH1 0x0 DUP1 REVERT JUMPDEST POP GAS CALL ISZERO DUP1 ISZERO PUSH3 0xC4A JUMPI RETURNDATASIZE PUSH1 0x0 DUP1 RETURNDATACOPY RETURNDATASIZE PUSH1 0x0 REVERT JUMPDEST POP POP POP POP PUSH3 0xCCB DUP2 PUSH20 0xFFFFFFFFFFFFFFFFFFFFFFFFFFFFFFFFFFFFFFFF AND PUSH4 0x2D05D3F PUSH1 0x40 MLOAD DUP2 PUSH4 0xFFFFFFFF AND PUSH1 0xE0 SHL DUP2 MSTORE PUSH1 0x4 ADD PUSH1 0x20 PUSH1 0x40 MLOAD DUP1 DUP4 SUB DUP2 DUP7 GAS STATICCALL ISZERO DUP1 ISZERO PUSH3 0xC9E JUMPI RETURNDATASIZE PUSH1 0x0 DUP1 RETURNDATACOPY RETURNDATASIZE PUSH1 0x0 REVERT JUMPDEST POP POP POP POP PUSH1 0x40 MLOAD RETURNDATASIZE PUSH1 0x1F NOT PUSH1 0x1F DUP3 ADD AND DUP3 ADD DUP1 PUSH1 0x40 MSTORE POP DUP2 ADD SWAP1 PUSH3 0xCC4 SWAP2 SWAP1 PUSH3 0x30DB JUMP JUMPDEST DUP4 PUSH3 0x21B3 JUMP JUMPDEST PUSH3 0xD48 DUP2 PUSH20 0xFFFFFFFFFFFFFFFFFFFFFFFFFFFFFFFFFFFFFFFF AND PUSH4 0x3B1BEBD1 PUSH1 0x40 MLOAD DUP2 PUSH4 0xFFFFFFFF AND PUSH1 0xE0 SHL DUP2 MSTORE PUSH1 0x4 ADD PUSH1 0x20 PUSH1 0x40 MLOAD DUP1 DUP4 SUB DUP2 DUP7 GAS STATICCALL ISZERO DUP1 ISZERO PUSH3 0xD1B JUMPI RETURNDATASIZE PUSH1 0x0 DUP1 RETURNDATACOPY RETURNDATASIZE PUSH1 0x0 REVERT JUMPDEST POP POP POP POP PUSH1 0x40 MLOAD RETURNDATASIZE PUSH1 0x1F NOT PUSH1 0x1F DUP3 ADD AND DUP3 ADD DUP1 PUSH1 0x40 MSTORE POP DUP2 ADD SWAP1 PUSH3 0xD41 SWAP2 SWAP1 PUSH3 0x30DB JUMP JUMPDEST DUP4 PUSH3 0x2570 JUMP JUMPDEST POP POP JUMP JUMPDEST PUSH1 0x0 DUP2 SWAP1 POP DUP1 PUSH20 0xFFFFFFFFFFFFFFFFFFFFFFFFFFFFFFFFFFFFFFFF AND PUSH4 0xB4FEDC11 PUSH1 0x40 MLOAD DUP2 PUSH4 0xFFFFFFFF AND PUSH1 0xE0 SHL DUP2 MSTORE PUSH1 0x4 ADD PUSH1 0x0 PUSH1 0x40 MLOAD DUP1 DUP4 SUB DUP2 PUSH1 0x0 DUP8 DUP1 EXTCODESIZE ISZERO DUP1 ISZERO PUSH3 0xD9A JUMPI PUSH1 0x0 DUP1 REVERT JUMPDEST POP GAS CALL ISZERO DUP1 ISZERO PUSH3 0xDAF JUMPI RETURNDATASIZE PUSH1 0x0 DUP1 RETURNDATACOPY RETURNDATASIZE PUSH1 0x0 REVERT JUMPDEST POP POP POP POP PUSH3 0xE30 DUP2 PUSH20 0xFFFFFFFFFFFFFFFFFFFFFFFFFFFFFFFFFFFFFFFF AND PUSH4 0x2D05D3F PUSH1 0x40 MLOAD DUP2 PUSH4 0xFFFFFFFF AND PUSH1 0xE0 SHL DUP2 MSTORE PUSH1 0x4 ADD PUSH1 0x20 PUSH1 0x40 MLOAD DUP1 DUP4 SUB DUP2 DUP7 GAS STATICCALL ISZERO DUP1 ISZERO PUSH3 0xE03 JUMPI RETURNDATASIZE PUSH1 0x0 DUP1 RETURNDATACOPY RETURNDATASIZE PUSH1 0x0 REVERT JUMPDEST POP POP POP POP PUSH1 0x40 MLOAD RETURNDATASIZE PUSH1 0x1F NOT PUSH1 0x1F DUP3 ADD AND DUP3 ADD DUP1 PUSH1 0x40 MSTORE POP DUP2 ADD SWAP1 PUSH3 0xE29 SWAP2 SWAP1 PUSH3 0x30DB JUMP JUMPDEST DUP4 PUSH3 0x21B3 JUMP JUMPDEST PUSH3 0xEAD DUP2 PUSH20 0xFFFFFFFFFFFFFFFFFFFFFFFFFFFFFFFFFFFFFFFF AND PUSH4 0x3B1BEBD1 PUSH1 0x40 MLOAD DUP2 PUSH4 0xFFFFFFFF AND PUSH1 0xE0 SHL DUP2 MSTORE PUSH1 0x4 ADD PUSH1 0x20 PUSH1 0x40 MLOAD DUP1 DUP4 SUB DUP2 DUP7 GAS STATICCALL ISZERO DUP1 ISZERO PUSH3 0xE80 JUMPI RETURNDATASIZE PUSH1 0x0 DUP1 RETURNDATACOPY RETURNDATASIZE PUSH1 0x0 REVERT JUMPDEST POP POP POP POP PUSH1 0x40 MLOAD RETURNDATASIZE PUSH1 0x1F NOT PUSH1 0x1F DUP3 ADD AND DUP3 ADD DUP1 PUSH1 0x40 MSTORE POP DUP2 ADD SWAP1 PUSH3 0xEA6 SWAP2 SWAP1 PUSH3 0x30DB JUMP JUMPDEST DUP4 PUSH3 0x2570 JUMP JUMPDEST POP POP JUMP JUMPDEST PUSH1 0x6 PUSH1 0x20 MSTORE DUP1 PUSH1 0x0 MSTORE PUSH1 0x40 PUSH1 0x0 KECCAK256 PUSH1 0x0 SWAP2 POP SWAP1 POP DUP1 PUSH1 0x0 ADD SLOAD SWAP1 POP DUP2 JUMP JUMPDEST PUSH1 0x2 SLOAD DUP2 JUMP JUMPDEST PUSH1 0x60 PUSH1 0x6 PUSH1 0x0 DUP4 PUSH20 0xFFFFFFFFFFFFFFFFFFFFFFFFFFFFFFFFFFFFFFFF AND PUSH20 0xFFFFFFFFFFFFFFFFFFFFFFFFFFFFFFFFFFFFFFFF AND DUP2 MSTORE PUSH1 0x20 ADD SWAP1 DUP2 MSTORE PUSH1 0x20 ADD PUSH1 0x0 KECCAK256 PUSH1 0x3 ADD DUP1 SLOAD DUP1 PUSH1 0x20 MUL PUSH1 0x20 ADD PUSH1 0x40 MLOAD SWAP1 DUP2 ADD PUSH1 0x40 MSTORE DUP1 SWAP3 SWAP2 SWAP1 DUP2 DUP2 MSTORE PUSH1 0x20 ADD DUP3 DUP1 SLOAD DUP1 ISZERO PUSH3 0xF9B JUMPI PUSH1 0x20 MUL DUP3 ADD SWAP2 SWAP1 PUSH1 0x0 MSTORE PUSH1 0x20 PUSH1 0x0 KECCAK256 SWAP1 JUMPDEST DUP2 PUSH1 0x0 SWAP1 SLOAD SWAP1 PUSH2 0x100 EXP SWAP1 DIV PUSH20 0xFFFFFFFFFFFFFFFFFFFFFFFFFFFFFFFFFFFFFFFF AND PUSH20 0xFFFFFFFFFFFFFFFFFFFFFFFFFFFFFFFFFFFFFFFF AND DUP2 MSTORE PUSH1 0x20 ADD SWAP1 PUSH1 0x1 ADD SWAP1 DUP1 DUP4 GT PUSH3 0xF50 JUMPI JUMPDEST POP POP POP POP POP SWAP1 POP SWAP2 SWAP1 POP JUMP JUMPDEST PUSH1 0x60 PUSH1 0x6 PUSH1 0x0 DUP4 PUSH20 0xFFFFFFFFFFFFFFFFFFFFFFFFFFFFFFFFFFFFFFFF AND PUSH20 0xFFFFFFFFFFFFFFFFFFFFFFFFFFFFFFFFFFFFFFFF AND DUP2 MSTORE PUSH1 0x20 ADD SWAP1 DUP2 MSTORE PUSH1 0x20 ADD PUSH1 0x0 KECCAK256 PUSH1 0x1 ADD DUP1 SLOAD DUP1 PUSH1 0x20 MUL PUSH1 0x20 ADD PUSH1 0x40 MLOAD SWAP1 DUP2 ADD PUSH1 0x40 MSTORE DUP1 SWAP3 SWAP2 SWAP1 DUP2 DUP2 MSTORE PUSH1 0x20 ADD DUP3 DUP1 SLOAD DUP1 ISZERO PUSH3 0x106D JUMPI PUSH1 0x20 MUL DUP3 ADD SWAP2 SWAP1 PUSH1 0x0 MSTORE PUSH1 0x20 PUSH1 0x0 KECCAK256 SWAP1 JUMPDEST DUP2 PUSH1 0x0 SWAP1 SLOAD SWAP1 PUSH2 0x100 EXP SWAP1 DIV PUSH20 0xFFFFFFFFFFFFFFFFFFFFFFFFFFFFFFFFFFFFFFFF AND PUSH20 0xFFFFFFFFFFFFFFFFFFFFFFFFFFFFFFFFFFFFFFFF AND DUP2 MSTORE PUSH1 0x20 ADD SWAP1 PUSH1 0x1 ADD SWAP1 DUP1 DUP4 GT PUSH3 0x1022 JUMPI JUMPDEST POP POP POP POP POP SWAP1 POP SWAP2 SWAP1 POP JUMP JUMPDEST PUSH1 0x0 PUSH1 0x20 MSTORE DUP1 PUSH1 0x0 MSTORE PUSH1 0x40 PUSH1 0x0 KECCAK256 PUSH1 0x0 SWAP2 POP SWAP1 POP DUP1 PUSH1 0x0 ADD SLOAD SWAP1 POP DUP2 JUMP JUMPDEST PUSH1 0x60 PUSH1 0x0 DUP4 LT ISZERO PUSH3 0x10E0 JUMPI PUSH1 0x40 MLOAD PUSH32 0x8C379A000000000000000000000000000000000000000000000000000000000 DUP2 MSTORE PUSH1 0x4 ADD PUSH3 0x10D7 SWAP1 PUSH3 0x31E5 JUMP JUMPDEST PUSH1 0x40 MLOAD DUP1 SWAP2 SUB SWAP1 REVERT JUMPDEST PUSH1 0x1 DUP1 SLOAD SWAP1 POP DUP3 GT ISZERO PUSH3 0x112B JUMPI PUSH1 0x40 MLOAD PUSH32 0x8C379A000000000000000000000000000000000000000000000000000000000 DUP2 MSTORE PUSH1 0x4 ADD PUSH3 0x1122 SWAP1 PUSH3 0x327D JUMP JUMPDEST PUSH1 0x40 MLOAD DUP1 SWAP2 SUB SWAP1 REVERT JUMPDEST PUSH1 0x0 DUP4 DUP4 PUSH3 0x113B SWAP2 SWAP1 PUSH3 0x32CE JUMP JUMPDEST PUSH8 0xFFFFFFFFFFFFFFFF DUP2 GT ISZERO PUSH3 0x1157 JUMPI PUSH3 0x1156 PUSH3 0x2E88 JUMP JUMPDEST JUMPDEST PUSH1 0x40 MLOAD SWAP1 DUP1 DUP3 MSTORE DUP1 PUSH1 0x20 MUL PUSH1 0x20 ADD DUP3 ADD PUSH1 0x40 MSTORE DUP1 ISZERO PUSH3 0x1186 JUMPI DUP2 PUSH1 0x20 ADD PUSH1 0x20 DUP3 MUL DUP1 CALLDATASIZE DUP4 CALLDATACOPY DUP1 DUP3 ADD SWAP2 POP POP SWAP1 POP JUMPDEST POP SWAP1 POP PUSH1 0x0 DUP5 SWAP1 POP JUMPDEST DUP4 DUP2 LT ISZERO PUSH3 0x1240 JUMPI PUSH1 0x1 DUP2 DUP2 SLOAD DUP2 LT PUSH3 0x11AF JUMPI PUSH3 0x11AE PUSH3 0x3309 JUMP JUMPDEST JUMPDEST SWAP1 PUSH1 0x0 MSTORE PUSH1 0x20 PUSH1 0x0 KECCAK256 ADD PUSH1 0x0 SWAP1 SLOAD SWAP1 PUSH2 0x100 EXP SWAP1 DIV PUSH20 0xFFFFFFFFFFFFFFFFFFFFFFFFFFFFFFFFFFFFFFFF AND DUP3 DUP3 DUP2 MLOAD DUP2 LT PUSH3 0x11F0 JUMPI PUSH3 0x11EF PUSH3 0x3309 JUMP JUMPDEST JUMPDEST PUSH1 0x20 MUL PUSH1 0x20 ADD ADD SWAP1 PUSH20 0xFFFFFFFFFFFFFFFFFFFFFFFFFFFFFFFFFFFFFFFF AND SWAP1 DUP2 PUSH20 0xFFFFFFFFFFFFFFFFFFFFFFFFFFFFFFFFFFFFFFFF AND DUP2 MSTORE POP POP DUP1 DUP1 PUSH3 0x1237 SWAP1 PUSH3 0x3338 JUMP JUMPDEST SWAP2 POP POP PUSH3 0x118F JUMP JUMPDEST POP DUP1 SWAP2 POP POP SWAP3 SWAP2 POP POP JUMP JUMPDEST PUSH1 0x60 PUSH1 0x0 DUP1 DUP4 PUSH20 0xFFFFFFFFFFFFFFFFFFFFFFFFFFFFFFFFFFFFFFFF AND PUSH20 0xFFFFFFFFFFFFFFFFFFFFFFFFFFFFFFFFFFFFFFFF AND DUP2 MSTORE PUSH1 0x20 ADD SWAP1 DUP2 MSTORE PUSH1 0x20 ADD PUSH1 0x0 KECCAK256 PUSH1 0x2 ADD DUP1 SLOAD DUP1 PUSH1 0x20 MUL PUSH1 0x20 ADD PUSH1 0x40 MLOAD SWAP1 DUP2 ADD PUSH1 0x40 MSTORE DUP1 SWAP3 SWAP2 SWAP1 DUP2 DUP2 MSTORE PUSH1 0x20 ADD DUP3 DUP1 SLOAD DUP1 ISZERO PUSH3 0x1310 JUMPI PUSH1 0x20 MUL DUP3 ADD SWAP2 SWAP1 PUSH1 0x0 MSTORE PUSH1 0x20 PUSH1 0x0 KECCAK256 SWAP1 JUMPDEST DUP2 PUSH1 0x0 SWAP1 SLOAD SWAP1 PUSH2 0x100 EXP SWAP1 DIV PUSH20 0xFFFFFFFFFFFFFFFFFFFFFFFFFFFFFFFFFFFFFFFF AND PUSH20 0xFFFFFFFFFFFFFFFFFFFFFFFFFFFFFFFFFFFFFFFF AND DUP2 MSTORE PUSH1 0x20 ADD SWAP1 PUSH1 0x1 ADD SWAP1 DUP1 DUP4 GT PUSH3 0x12C5 JUMPI JUMPDEST POP POP POP POP POP SWAP1 POP SWAP2 SWAP1 POP JUMP JUMPDEST PUSH1 0x7 SLOAD DUP2 JUMP JUMPDEST PUSH1 0x0 DUP2 SWAP1 POP PUSH1 0x0 DUP2 PUSH20 0xFFFFFFFFFFFFFFFFFFFFFFFFFFFFFFFFFFFFFFFF AND PUSH4 0x3C490174 PUSH1 0x40 MLOAD DUP2 PUSH4 0xFFFFFFFF AND PUSH1 0xE0 SHL DUP2 MSTORE PUSH1 0x4 ADD PUSH1 0x20 PUSH1 0x40 MLOAD DUP1 DUP4 SUB DUP2 DUP7 GAS STATICCALL ISZERO DUP1 ISZERO PUSH3 0x1375 JUMPI RETURNDATASIZE PUSH1 0x0 DUP1 RETURNDATACOPY RETURNDATASIZE PUSH1 0x0 REVERT JUMPDEST POP POP POP POP PUSH1 0x40 MLOAD RETURNDATASIZE PUSH1 0x1F NOT PUSH1 0x1F DUP3 ADD AND DUP3 ADD DUP1 PUSH1 0x40 MSTORE POP DUP2 ADD SWAP1 PUSH3 0x139B SWAP2 SWAP1 PUSH3 0x30DB JUMP JUMPDEST SWAP1 POP DUP2 PUSH20 0xFFFFFFFFFFFFFFFFFFFFFFFFFFFFFFFFFFFFFFFF AND PUSH4 0xE19695F7 PUSH1 0x40 MLOAD DUP2 PUSH4 0xFFFFFFFF AND PUSH1 0xE0 SHL DUP2 MSTORE PUSH1 0x4 ADD PUSH1 0x20 PUSH1 0x40 MLOAD DUP1 DUP4 SUB DUP2 PUSH1 0x0 DUP8 GAS CALL ISZERO DUP1 ISZERO PUSH3 0x13EB JUMPI RETURNDATASIZE PUSH1 0x0 DUP1 RETURNDATACOPY RETURNDATASIZE PUSH1 0x0 REVERT JUMPDEST POP POP POP POP PUSH1 0x40 MLOAD RETURNDATASIZE PUSH1 0x1F NOT PUSH1 0x1F DUP3 ADD AND DUP3 ADD DUP1 PUSH1 0x40 MSTORE POP DUP2 ADD SWAP1 PUSH3 0x1411 SWAP2 SWAP1 PUSH3 0x3152 JUMP JUMPDEST POP PUSH3 0x148F DUP2 PUSH20 0xFFFFFFFFFFFFFFFFFFFFFFFFFFFFFFFFFFFFFFFF AND PUSH4 0x3B1BEBD1 PUSH1 0x40 MLOAD DUP2 PUSH4 0xFFFFFFFF AND PUSH1 0xE0 SHL DUP2 MSTORE PUSH1 0x4 ADD PUSH1 0x20 PUSH1 0x40 MLOAD DUP1 DUP4 SUB DUP2 DUP7 GAS STATICCALL ISZERO DUP1 ISZERO PUSH3 0x1462 JUMPI RETURNDATASIZE PUSH1 0x0 DUP1 RETURNDATACOPY RETURNDATASIZE PUSH1 0x0 REVERT JUMPDEST POP POP POP POP PUSH1 0x40 MLOAD RETURNDATASIZE PUSH1 0x1F NOT PUSH1 0x1F DUP3 ADD AND DUP3 ADD DUP1 PUSH1 0x40 MSTORE POP DUP2 ADD SWAP1 PUSH3 0x1488 SWAP2 SWAP1 PUSH3 0x30DB JUMP JUMPDEST DUP5 PUSH3 0x1E43 JUMP JUMPDEST DUP1 PUSH20 0xFFFFFFFFFFFFFFFFFFFFFFFFFFFFFFFFFFFFFFFF AND PUSH4 0xF7CC7E4E PUSH1 0x40 MLOAD DUP2 PUSH4 0xFFFFFFFF AND PUSH1 0xE0 SHL DUP2 MSTORE PUSH1 0x4 ADD PUSH1 0x0 PUSH1 0x40 MLOAD DUP1 DUP4 SUB DUP2 PUSH1 0x0 DUP8 DUP1 EXTCODESIZE ISZERO DUP1 ISZERO PUSH3 0x14D8 JUMPI PUSH1 0x0 DUP1 REVERT JUMPDEST POP GAS CALL ISZERO DUP1 ISZERO PUSH3 0x14ED JUMPI RETURNDATASIZE PUSH1 0x0 DUP1 RETURNDATACOPY RETURNDATASIZE PUSH1 0x0 REVERT JUMPDEST POP POP POP POP POP POP POP JUMP JUMPDEST PUSH1 0x5 SLOAD DUP2 JUMP JUMPDEST PUSH1 0x0 DUP2 SWAP1 POP PUSH1 0x0 PUSH1 0x3 DUP2 GT ISZERO PUSH3 0x1518 JUMPI PUSH3 0x1517 PUSH3 0x3386 JUMP JUMPDEST JUMPDEST DUP2 PUSH20 0xFFFFFFFFFFFFFFFFFFFFFFFFFFFFFFFFFFFFFFFF AND PUSH4 0x200D2ED2 PUSH1 0x40 MLOAD DUP2 PUSH4 0xFFFFFFFF AND PUSH1 0xE0 SHL DUP2 MSTORE PUSH1 0x4 ADD PUSH1 0x20 PUSH1 0x40 MLOAD DUP1 DUP4 SUB DUP2 DUP7 GAS STATICCALL ISZERO DUP1 ISZERO PUSH3 0x1564 JUMPI RETURNDATASIZE PUSH1 0x0 DUP1 RETURNDATACOPY RETURNDATASIZE PUSH1 0x0 REVERT JUMPDEST POP POP POP POP PUSH1 0x40 MLOAD RETURNDATASIZE PUSH1 0x1F NOT PUSH1 0x1F DUP3 ADD AND DUP3 ADD DUP1 PUSH1 0x40 MSTORE POP DUP2 ADD SWAP1 PUSH3 0x158A SWAP2 SWAP1 PUSH3 0x33DD JUMP JUMPDEST PUSH1 0x3 DUP2 GT ISZERO PUSH3 0x159F JUMPI PUSH3 0x159E PUSH3 0x3386 JUMP JUMPDEST JUMPDEST EQ PUSH3 0x15E2 JUMPI PUSH1 0x40 MLOAD PUSH32 0x8C379A000000000000000000000000000000000000000000000000000000000 DUP2 MSTORE PUSH1 0x4 ADD PUSH3 0x15D9 SWAP1 PUSH3 0x345F JUMP JUMPDEST PUSH1 0x40 MLOAD DUP1 SWAP2 SUB SWAP1 REVERT JUMPDEST DUP1 PUSH20 0xFFFFFFFFFFFFFFFFFFFFFFFFFFFFFFFFFFFFFFFF AND PUSH4 0x2D05D3F PUSH1 0x40 MLOAD DUP2 PUSH4 0xFFFFFFFF AND PUSH1 0xE0 SHL DUP2 MSTORE PUSH1 0x4 ADD PUSH1 0x20 PUSH1 0x40 MLOAD DUP1 DUP4 SUB DUP2 DUP7 GAS STATICCALL ISZERO DUP1 ISZERO PUSH3 0x162E JUMPI RETURNDATASIZE PUSH1 0x0 DUP1 RETURNDATACOPY RETURNDATASIZE PUSH1 0x0 REVERT JUMPDEST POP POP POP POP PUSH1 0x40 MLOAD RETURNDATASIZE PUSH1 0x1F NOT PUSH1 0x1F DUP3 ADD AND DUP3 ADD DUP1 PUSH1 0x40 MSTORE POP DUP2 ADD SWAP1 PUSH3 0x1654 SWAP2 SWAP1 PUSH3 0x30DB JUMP JUMPDEST PUSH20 0xFFFFFFFFFFFFFFFFFFFFFFFFFFFFFFFFFFFFFFFF AND ORIGIN PUSH20 0xFFFFFFFFFFFFFFFFFFFFFFFFFFFFFFFFFFFFFFFF AND EQ PUSH3 0x16C4 JUMPI PUSH1 0x40 MLOAD PUSH32 0x8C379A000000000000000000000000000000000000000000000000000000000 DUP2 MSTORE PUSH1 0x4 ADD PUSH3 0x16BB SWAP1 PUSH3 0x34F7 JUMP JUMPDEST PUSH1 0x40 MLOAD DUP1 SWAP2 SUB SWAP1 REVERT JUMPDEST DUP1 PUSH20 0xFFFFFFFFFFFFFFFFFFFFFFFFFFFFFFFFFFFFFFFF AND PUSH4 0x3B1BEBD1 PUSH1 0x40 MLOAD DUP2 PUSH4 0xFFFFFFFF AND PUSH1 0xE0 SHL DUP2 MSTORE PUSH1 0x4 ADD PUSH1 0x20 PUSH1 0x40 MLOAD DUP1 DUP4 SUB DUP2 DUP7 GAS STATICCALL ISZERO DUP1 ISZERO PUSH3 0x1710 JUMPI RETURNDATASIZE PUSH1 0x0 DUP1 RETURNDATACOPY RETURNDATASIZE PUSH1 0x0 REVERT JUMPDEST POP POP POP POP PUSH1 0x40 MLOAD RETURNDATASIZE PUSH1 0x1F NOT PUSH1 0x1F DUP3 ADD AND DUP3 ADD DUP1 PUSH1 0x40 MSTORE POP DUP2 ADD SWAP1 PUSH3 0x1736 SWAP2 SWAP1 PUSH3 0x30DB JUMP JUMPDEST PUSH20 0xFFFFFFFFFFFFFFFFFFFFFFFFFFFFFFFFFFFFFFFF AND DUP2 PUSH20 0xFFFFFFFFFFFFFFFFFFFFFFFFFFFFFFFFFFFFFFFF AND PUSH4 0x2D05D3F PUSH1 0x40 MLOAD DUP2 PUSH4 0xFFFFFFFF AND PUSH1 0xE0 SHL DUP2 MSTORE PUSH1 0x4 ADD PUSH1 0x20 PUSH1 0x40 MLOAD DUP1 DUP4 SUB DUP2 DUP7 GAS STATICCALL ISZERO DUP1 ISZERO PUSH3 0x1798 JUMPI RETURNDATASIZE PUSH1 0x0 DUP1 RETURNDATACOPY RETURNDATASIZE PUSH1 0x0 REVERT JUMPDEST POP POP POP POP PUSH1 0x40 MLOAD RETURNDATASIZE PUSH1 0x1F NOT PUSH1 0x1F DUP3 ADD AND DUP3 ADD DUP1 PUSH1 0x40 MSTORE POP DUP2 ADD SWAP1 PUSH3 0x17BE SWAP2 SWAP1 PUSH3 0x30DB JUMP JUMPDEST PUSH20 0xFFFFFFFFFFFFFFFFFFFFFFFFFFFFFFFFFFFFFFFF AND EQ ISZERO PUSH3 0x1818 JUMPI PUSH1 0x40 MLOAD PUSH32 0x8C379A000000000000000000000000000000000000000000000000000000000 DUP2 MSTORE PUSH1 0x4 ADD PUSH3 0x180F SWAP1 PUSH3 0x358F JUMP JUMPDEST PUSH1 0x40 MLOAD DUP1 SWAP2 SUB SWAP1 REVERT JUMPDEST PUSH1 0x0 DUP3 PUSH1 0x40 MLOAD PUSH3 0x1829 SWAP1 PUSH3 0x2BA4 JUMP JUMPDEST PUSH3 0x1835 SWAP2 SWAP1 PUSH3 0x2E22 JUMP JUMPDEST PUSH1 0x40 MLOAD DUP1 SWAP2 SUB SWAP1 PUSH1 0x0 CREATE DUP1 ISZERO DUP1 ISZERO PUSH3 0x1852 JUMPI RETURNDATASIZE PUSH1 0x0 DUP1 RETURNDATACOPY RETURNDATASIZE PUSH1 0x0 REVERT JUMPDEST POP SWAP1 POP PUSH1 0x6 PUSH1 0x0 DUP4 PUSH20 0xFFFFFFFFFFFFFFFFFFFFFFFFFFFFFFFFFFFFFFFF AND PUSH4 0x3B1BEBD1 PUSH1 0x40 MLOAD DUP2 PUSH4 0xFFFFFFFF AND PUSH1 0xE0 SHL DUP2 MSTORE PUSH1 0x4 ADD PUSH1 0x20 PUSH1 0x40 MLOAD DUP1 DUP4 SUB DUP2 DUP7 GAS STATICCALL ISZERO DUP1 ISZERO PUSH3 0x18A5 JUMPI RETURNDATASIZE PUSH1 0x0 DUP1 RETURNDATACOPY RETURNDATASIZE PUSH1 0x0 REVERT JUMPDEST POP POP POP POP PUSH1 0x40 MLOAD RETURNDATASIZE PUSH1 0x1F NOT PUSH1 0x1F DUP3 ADD AND DUP3 ADD DUP1 PUSH1 0x40 MSTORE POP DUP2 ADD SWAP1 PUSH3 0x18CB SWAP2 SWAP1 PUSH3 0x30DB JUMP JUMPDEST PUSH20 0xFFFFFFFFFFFFFFFFFFFFFFFFFFFFFFFFFFFFFFFF AND PUSH20 0xFFFFFFFFFFFFFFFFFFFFFFFFFFFFFFFFFFFFFFFF AND DUP2 MSTORE PUSH1 0x20 ADD SWAP1 DUP2 MSTORE PUSH1 0x20 ADD PUSH1 0x0 KECCAK256 PUSH1 0x3 ADD DUP2 SWAP1 DUP1 PUSH1 0x1 DUP2 SLOAD ADD DUP1 DUP3 SSTORE DUP1 SWAP2 POP POP PUSH1 0x1 SWAP1 SUB SWAP1 PUSH1 0x0 MSTORE PUSH1 0x20 PUSH1 0x0 KECCAK256 ADD PUSH1 0x0 SWAP1 SWAP2 SWAP1 SWAP2 SWAP1 SWAP2 PUSH2 0x100 EXP DUP2 SLOAD DUP2 PUSH20 0xFFFFFFFFFFFFFFFFFFFFFFFFFFFFFFFFFFFFFFFF MUL NOT AND SWAP1 DUP4 PUSH20 0xFFFFFFFFFFFFFFFFFFFFFFFFFFFFFFFFFFFFFFFF AND MUL OR SWAP1 SSTORE POP DUP2 PUSH20 0xFFFFFFFFFFFFFFFFFFFFFFFFFFFFFFFFFFFFFFFF AND PUSH4 0xD1F0047B PUSH1 0x40 MLOAD DUP2 PUSH4 0xFFFFFFFF AND PUSH1 0xE0 SHL DUP2 MSTORE PUSH1 0x4 ADD PUSH1 0x0 PUSH1 0x40 MLOAD DUP1 DUP4 SUB DUP2 PUSH1 0x0 DUP8 DUP1 EXTCODESIZE ISZERO DUP1 ISZERO PUSH3 0x19B2 JUMPI PUSH1 0x0 DUP1 REVERT JUMPDEST POP GAS CALL ISZERO DUP1 ISZERO PUSH3 0x19C7 JUMPI RETURNDATASIZE PUSH1 0x0 DUP1 RETURNDATACOPY RETURNDATASIZE PUSH1 0x0 REVERT JUMPDEST POP POP POP POP POP POP POP JUMP JUMPDEST PUSH1 0x0 DUP1 PUSH1 0x0 CALLER PUSH20 0xFFFFFFFFFFFFFFFFFFFFFFFFFFFFFFFFFFFFFFFF AND PUSH20 0xFFFFFFFFFFFFFFFFFFFFFFFFFFFFFFFFFFFFFFFF AND DUP2 MSTORE PUSH1 0x20 ADD SWAP1 DUP2 MSTORE PUSH1 0x20 ADD PUSH1 0x0 KECCAK256 PUSH1 0x0 ADD SLOAD EQ ISZERO PUSH3 0x1A99 JUMPI PUSH1 0x2 PUSH1 0x0 DUP2 SLOAD DUP1 SWAP3 SWAP2 SWAP1 PUSH3 0x1A30 SWAP1 PUSH3 0x3338 JUMP JUMPDEST SWAP2 SWAP1 POP SSTORE POP PUSH1 0x1 CALLER SWAP1 DUP1 PUSH1 0x1 DUP2 SLOAD ADD DUP1 DUP3 SSTORE DUP1 SWAP2 POP POP PUSH1 0x1 SWAP1 SUB SWAP1 PUSH1 0x0 MSTORE PUSH1 0x20 PUSH1 0x0 KECCAK256 ADD PUSH1 0x0 SWAP1 SWAP2 SWAP1 SWAP2 SWAP1 SWAP2 PUSH2 0x100 EXP DUP2 SLOAD DUP2 PUSH20 0xFFFFFFFFFFFFFFFFFFFFFFFFFFFFFFFFFFFFFFFF MUL NOT AND SWAP1 DUP4 PUSH20 0xFFFFFFFFFFFFFFFFFFFFFFFFFFFFFFFFFFFFFFFF AND MUL OR SWAP1 SSTORE POP JUMPDEST PUSH1 0x0 PUSH1 0x6 PUSH1 0x0 DUP7 PUSH20 0xFFFFFFFFFFFFFFFFFFFFFFFFFFFFFFFFFFFFFFFF AND PUSH20 0xFFFFFFFFFFFFFFFFFFFFFFFFFFFFFFFFFFFFFFFF AND DUP2 MSTORE PUSH1 0x20 ADD SWAP1 DUP2 MSTORE PUSH1 0x20 ADD PUSH1 0x0 KECCAK256 PUSH1 0x0 ADD SLOAD EQ ISZERO PUSH3 0x1B63 JUMPI PUSH1 0x7 PUSH1 0x0 DUP2 SLOAD DUP1 SWAP3 SWAP2 SWAP1 PUSH3 0x1AFA SWAP1 PUSH3 0x3338 JUMP JUMPDEST SWAP2 SWAP1 POP SSTORE POP PUSH1 0x8 DUP5 SWAP1 DUP1 PUSH1 0x1 DUP2 SLOAD ADD DUP1 DUP3 SSTORE DUP1 SWAP2 POP POP PUSH1 0x1 SWAP1 SUB SWAP1 PUSH1 0x0 MSTORE PUSH1 0x20 PUSH1 0x0 KECCAK256 ADD PUSH1 0x0 SWAP1 SWAP2 SWAP1 SWAP2 SWAP1 SWAP2 PUSH2 0x100 EXP DUP2 SLOAD DUP2 PUSH20 0xFFFFFFFFFFFFFFFFFFFFFFFFFFFFFFFFFFFFFFFF MUL NOT AND SWAP1 DUP4 PUSH20 0xFFFFFFFFFFFFFFFFFFFFFFFFFFFFFFFFFFFFFFFF AND MUL OR SWAP1 SSTORE POP JUMPDEST PUSH1 0x0 CALLVALUE CALLER DUP7 DUP7 DUP7 DUP7 CALLVALUE PUSH1 0x40 MLOAD PUSH3 0x1B7A SWAP1 PUSH3 0x2BB2 JUMP JUMPDEST PUSH3 0x1B8B SWAP7 SWAP6 SWAP5 SWAP4 SWAP3 SWAP2 SWAP1 PUSH3 0x369E JUMP JUMPDEST PUSH1 0x40 MLOAD DUP1 SWAP2 SUB SWAP1 DUP3 CREATE SWAP1 POP DUP1 ISZERO DUP1 ISZERO PUSH3 0x1BA9 JUMPI RETURNDATASIZE PUSH1 0x0 DUP1 RETURNDATACOPY RETURNDATASIZE PUSH1 0x0 REVERT JUMPDEST POP SWAP1 POP PUSH1 0x4 PUSH1 0x0 DUP2 SLOAD DUP1 SWAP3 SWAP2 SWAP1 PUSH3 0x1BC1 SWAP1 PUSH3 0x3338 JUMP JUMPDEST SWAP2 SWAP1 POP SSTORE POP PUSH1 0x3 DUP2 SWAP1 DUP1 PUSH1 0x1 DUP2 SLOAD ADD DUP1 DUP3 SSTORE DUP1 SWAP2 POP POP PUSH1 0x1 SWAP1 SUB SWAP1 PUSH1 0x0 MSTORE PUSH1 0x20 PUSH1 0x0 KECCAK256 ADD PUSH1 0x0 SWAP1 SWAP2 SWAP1 SWAP2 SWAP1 SWAP2 PUSH2 0x100 EXP DUP2 SLOAD DUP2 PUSH20 0xFFFFFFFFFFFFFFFFFFFFFFFFFFFFFFFFFFFFFFFF MUL NOT AND SWAP1 DUP4 PUSH20 0xFFFFFFFFFFFFFFFFFFFFFFFFFFFFFFFFFFFFFFFF AND MUL OR SWAP1 SSTORE POP CALLVALUE PUSH1 0x5 PUSH1 0x0 DUP3 DUP3 SLOAD PUSH3 0x1C3D SWAP2 SWAP1 PUSH3 0x3719 JUMP JUMPDEST SWAP3 POP POP DUP2 SWAP1 SSTORE POP PUSH1 0x0 DUP1 CALLER PUSH20 0xFFFFFFFFFFFFFFFFFFFFFFFFFFFFFFFFFFFFFFFF AND PUSH20 0xFFFFFFFFFFFFFFFFFFFFFFFFFFFFFFFFFFFFFFFF AND DUP2 MSTORE PUSH1 0x20 ADD SWAP1 DUP2 MSTORE PUSH1 0x20 ADD PUSH1 0x0 KECCAK256 PUSH1 0x0 ADD PUSH1 0x0 DUP2 SLOAD DUP1 SWAP3 SWAP2 SWAP1 PUSH3 0x1C98 SWAP1 PUSH3 0x3338 JUMP JUMPDEST SWAP2 SWAP1 POP SSTORE POP PUSH1 0x0 DUP1 CALLER PUSH20 0xFFFFFFFFFFFFFFFFFFFFFFFFFFFFFFFFFFFFFFFF AND PUSH20 0xFFFFFFFFFFFFFFFFFFFFFFFFFFFFFFFFFFFFFFFF AND DUP2 MSTORE PUSH1 0x20 ADD SWAP1 DUP2 MSTORE PUSH1 0x20 ADD PUSH1 0x0 KECCAK256 PUSH1 0x1 ADD DUP2 SWAP1 DUP1 PUSH1 0x1 DUP2 SLOAD ADD DUP1 DUP3 SSTORE DUP1 SWAP2 POP POP PUSH1 0x1 SWAP1 SUB SWAP1 PUSH1 0x0 MSTORE PUSH1 0x20 PUSH1 0x0 KECCAK256 ADD PUSH1 0x0 SWAP1 SWAP2 SWAP1 SWAP2 SWAP1 SWAP2 PUSH2 0x100 EXP DUP2 SLOAD DUP2 PUSH20 0xFFFFFFFFFFFFFFFFFFFFFFFFFFFFFFFFFFFFFFFF MUL NOT AND SWAP1 DUP4 PUSH20 0xFFFFFFFFFFFFFFFFFFFFFFFFFFFFFFFFFFFFFFFF AND MUL OR SWAP1 SSTORE POP PUSH1 0x6 PUSH1 0x0 DUP7 PUSH20 0xFFFFFFFFFFFFFFFFFFFFFFFFFFFFFFFFFFFFFFFF AND PUSH20 0xFFFFFFFFFFFFFFFFFFFFFFFFFFFFFFFFFFFFFFFF AND DUP2 MSTORE PUSH1 0x20 ADD SWAP1 DUP2 MSTORE PUSH1 0x20 ADD PUSH1 0x0 KECCAK256 PUSH1 0x0 ADD PUSH1 0x0 DUP2 SLOAD DUP1 SWAP3 SWAP2 SWAP1 PUSH3 0x1D94 SWAP1 PUSH3 0x3338 JUMP JUMPDEST SWAP2 SWAP1 POP SSTORE POP PUSH1 0x6 PUSH1 0x0 DUP7 PUSH20 0xFFFFFFFFFFFFFFFFFFFFFFFFFFFFFFFFFFFFFFFF AND PUSH20 0xFFFFFFFFFFFFFFFFFFFFFFFFFFFFFFFFFFFFFFFF AND DUP2 MSTORE PUSH1 0x20 ADD SWAP1 DUP2 MSTORE PUSH1 0x20 ADD PUSH1 0x0 KECCAK256 PUSH1 0x1 ADD DUP2 SWAP1 DUP1 PUSH1 0x1 DUP2 SLOAD ADD DUP1 DUP3 SSTORE DUP1 SWAP2 POP POP PUSH1 0x1 SWAP1 SUB SWAP1 PUSH1 0x0 MSTORE PUSH1 0x20 PUSH1 0x0 KECCAK256 ADD PUSH1 0x0 SWAP1 SWAP2 SWAP1 SWAP2 SWAP1 SWAP2 PUSH2 0x100 EXP DUP2 SLOAD DUP2 PUSH20 0xFFFFFFFFFFFFFFFFFFFFFFFFFFFFFFFFFFFFFFFF MUL NOT AND SWAP1 DUP4 PUSH20 0xFFFFFFFFFFFFFFFFFFFFFFFFFFFFFFFFFFFFFFFF AND MUL OR SWAP1 SSTORE POP POP POP POP POP POP JUMP JUMPDEST PUSH1 0x0 DUP1 PUSH1 0x0 SWAP1 POP JUMPDEST PUSH1 0x1 PUSH1 0x6 PUSH1 0x0 DUP7 PUSH20 0xFFFFFFFFFFFFFFFFFFFFFFFFFFFFFFFFFFFFFFFF AND PUSH20 0xFFFFFFFFFFFFFFFFFFFFFFFFFFFFFFFFFFFFFFFF AND DUP2 MSTORE PUSH1 0x20 ADD SWAP1 DUP2 MSTORE PUSH1 0x20 ADD PUSH1 0x0 KECCAK256 PUSH1 0x3 ADD DUP1 SLOAD SWAP1 POP PUSH3 0x1E9F SWAP2 SWAP1 PUSH3 0x32CE JUMP JUMPDEST DUP2 GT PUSH3 0x1F7B JUMPI DUP3 PUSH20 0xFFFFFFFFFFFFFFFFFFFFFFFFFFFFFFFFFFFFFFFF AND PUSH1 0x6 PUSH1 0x0 DUP7 PUSH20 0xFFFFFFFFFFFFFFFFFFFFFFFFFFFFFFFFFFFFFFFF AND PUSH20 0xFFFFFFFFFFFFFFFFFFFFFFFFFFFFFFFFFFFFFFFF AND DUP2 MSTORE PUSH1 0x20 ADD SWAP1 DUP2 MSTORE PUSH1 0x20 ADD PUSH1 0x0 KECCAK256 PUSH1 0x3 ADD DUP3 DUP2 SLOAD DUP2 LT PUSH3 0x1F14 JUMPI PUSH3 0x1F13 PUSH3 0x3309 JUMP JUMPDEST JUMPDEST SWAP1 PUSH1 0x0 MSTORE PUSH1 0x20 PUSH1 0x0 KECCAK256 ADD PUSH1 0x0 SWAP1 SLOAD SWAP1 PUSH2 0x100 EXP SWAP1 DIV PUSH20 0xFFFFFFFFFFFFFFFFFFFFFFFFFFFFFFFFFFFFFFFF AND PUSH20 0xFFFFFFFFFFFFFFFFFFFFFFFFFFFFFFFFFFFFFFFF AND EQ ISZERO PUSH3 0x1F65 JUMPI DUP1 SWAP2 POP PUSH3 0x1F7B JUMP JUMPDEST DUP1 DUP1 PUSH3 0x1F72 SWAP1 PUSH3 0x3338 JUMP JUMPDEST SWAP2 POP POP PUSH3 0x1E4B JUMP JUMPDEST POP PUSH1 0x0 DUP2 SWAP1 POP JUMPDEST PUSH1 0x1 PUSH1 0x6 PUSH1 0x0 DUP7 PUSH20 0xFFFFFFFFFFFFFFFFFFFFFFFFFFFFFFFFFFFFFFFF AND PUSH20 0xFFFFFFFFFFFFFFFFFFFFFFFFFFFFFFFFFFFFFFFF AND DUP2 MSTORE PUSH1 0x20 ADD SWAP1 DUP2 MSTORE PUSH1 0x20 ADD PUSH1 0x0 KECCAK256 PUSH1 0x3 ADD DUP1 SLOAD SWAP1 POP PUSH3 0x1FD6 SWAP2 SWAP1 PUSH3 0x32CE JUMP JUMPDEST DUP2 LT ISZERO PUSH3 0x2123 JUMPI PUSH1 0x6 PUSH1 0x0 DUP6 PUSH20 0xFFFFFFFFFFFFFFFFFFFFFFFFFFFFFFFFFFFFFFFF AND PUSH20 0xFFFFFFFFFFFFFFFFFFFFFFFFFFFFFFFFFFFFFFFF AND DUP2 MSTORE PUSH1 0x20 ADD SWAP1 DUP2 MSTORE PUSH1 0x20 ADD PUSH1 0x0 KECCAK256 PUSH1 0x3 ADD PUSH1 0x1 DUP3 PUSH3 0x202F SWAP2 SWAP1 PUSH3 0x3719 JUMP JUMPDEST DUP2 SLOAD DUP2 LT PUSH3 0x2043 JUMPI PUSH3 0x2042 PUSH3 0x3309 JUMP JUMPDEST JUMPDEST SWAP1 PUSH1 0x0 MSTORE PUSH1 0x20 PUSH1 0x0 KECCAK256 ADD PUSH1 0x0 SWAP1 SLOAD SWAP1 PUSH2 0x100 EXP SWAP1 DIV PUSH20 0xFFFFFFFFFFFFFFFFFFFFFFFFFFFFFFFFFFFFFFFF AND PUSH1 0x6 PUSH1 0x0 DUP7 PUSH20 0xFFFFFFFFFFFFFFFFFFFFFFFFFFFFFFFFFFFFFFFF AND PUSH20 0xFFFFFFFFFFFFFFFFFFFFFFFFFFFFFFFFFFFFFFFF AND DUP2 MSTORE PUSH1 0x20 ADD SWAP1 DUP2 MSTORE PUSH1 0x20 ADD PUSH1 0x0 KECCAK256 PUSH1 0x3 ADD DUP3 DUP2 SLOAD DUP2 LT PUSH3 0x20C5 JUMPI PUSH3 0x20C4 PUSH3 0x3309 JUMP JUMPDEST JUMPDEST SWAP1 PUSH1 0x0 MSTORE PUSH1 0x20 PUSH1 0x0 KECCAK256 ADD PUSH1 0x0 PUSH2 0x100 EXP DUP2 SLOAD DUP2 PUSH20 0xFFFFFFFFFFFFFFFFFFFFFFFFFFFFFFFFFFFFFFFF MUL NOT AND SWAP1 DUP4 PUSH20 0xFFFFFFFFFFFFFFFFFFFFFFFFFFFFFFFFFFFFFFFF AND MUL OR SWAP1 SSTORE POP DUP1 DUP1 PUSH3 0x211A SWAP1 PUSH3 0x3338 JUMP JUMPDEST SWAP2 POP POP PUSH3 0x1F82 JUMP JUMPDEST POP PUSH1 0x6 PUSH1 0x0 DUP5 PUSH20 0xFFFFFFFFFFFFFFFFFFFFFFFFFFFFFFFFFFFFFFFF AND PUSH20 0xFFFFFFFFFFFFFFFFFFFFFFFFFFFFFFFFFFFFFFFF AND DUP2 MSTORE PUSH1 0x20 ADD SWAP1 DUP2 MSTORE PUSH1 0x20 ADD PUSH1 0x0 KECCAK256 PUSH1 0x3 ADD DUP1 SLOAD DUP1 PUSH3 0x2179 JUMPI PUSH3 0x2178 PUSH3 0x3776 JUMP JUMPDEST JUMPDEST PUSH1 0x1 SWAP1 SUB DUP2 DUP2 SWAP1 PUSH1 0x0 MSTORE PUSH1 0x20 PUSH1 0x0 KECCAK256 ADD PUSH1 0x0 PUSH2 0x100 EXP DUP2 SLOAD SWAP1 PUSH20 0xFFFFFFFFFFFFFFFFFFFFFFFFFFFFFFFFFFFFFFFF MUL NOT AND SWAP1 SSTORE SWAP1 SSTORE POP POP POP JUMP JUMPDEST PUSH1 0x0 PUSH3 0x21C1 DUP4 DUP4 PUSH3 0x292E JUMP JUMPDEST SWAP1 POP PUSH1 0x0 DUP1 PUSH1 0x0 DUP6 PUSH20 0xFFFFFFFFFFFFFFFFFFFFFFFFFFFFFFFFFFFFFFFF AND PUSH20 0xFFFFFFFFFFFFFFFFFFFFFFFFFFFFFFFFFFFFFFFF AND DUP2 MSTORE PUSH1 0x20 ADD SWAP1 DUP2 MSTORE PUSH1 0x20 ADD PUSH1 0x0 KECCAK256 PUSH1 0x1 ADD DUP1 SLOAD SWAP1 POP SWAP1 POP PUSH1 0x0 DUP3 SWAP1 POP JUMPDEST PUSH1 0x1 DUP3 PUSH3 0x2221 SWAP2 SWAP1 PUSH3 0x32CE JUMP JUMPDEST DUP2 LT ISZERO PUSH3 0x236C JUMPI PUSH1 0x0 DUP1 DUP7 PUSH20 0xFFFFFFFFFFFFFFFFFFFFFFFFFFFFFFFFFFFFFFFF AND PUSH20 0xFFFFFFFFFFFFFFFFFFFFFFFFFFFFFFFFFFFFFFFF AND DUP2 MSTORE PUSH1 0x20 ADD SWAP1 DUP2 MSTORE PUSH1 0x20 ADD PUSH1 0x0 KECCAK256 PUSH1 0x1 ADD PUSH1 0x1 DUP3 PUSH3 0x2279 SWAP2 SWAP1 PUSH3 0x3719 JUMP JUMPDEST DUP2 SLOAD DUP2 LT PUSH3 0x228D JUMPI PUSH3 0x228C PUSH3 0x3309 JUMP JUMPDEST JUMPDEST SWAP1 PUSH1 0x0 MSTORE PUSH1 0x20 PUSH1 0x0 KECCAK256 ADD PUSH1 0x0 SWAP1 SLOAD SWAP1 PUSH2 0x100 EXP SWAP1 DIV PUSH20 0xFFFFFFFFFFFFFFFFFFFFFFFFFFFFFFFFFFFFFFFF AND PUSH1 0x0 DUP1 DUP8 PUSH20 0xFFFFFFFFFFFFFFFFFFFFFFFFFFFFFFFFFFFFFFFF AND PUSH20 0xFFFFFFFFFFFFFFFFFFFFFFFFFFFFFFFFFFFFFFFF AND DUP2 MSTORE PUSH1 0x20 ADD SWAP1 DUP2 MSTORE PUSH1 0x20 ADD PUSH1 0x0 KECCAK256 PUSH1 0x1 ADD DUP3 DUP2 SLOAD DUP2 LT PUSH3 0x230E JUMPI PUSH3 0x230D PUSH3 0x3309 JUMP JUMPDEST JUMPDEST SWAP1 PUSH1 0x0 MSTORE PUSH1 0x20 PUSH1 0x0 KECCAK256 ADD PUSH1 0x0 PUSH2 0x100 EXP DUP2 SLOAD DUP2 PUSH20 0xFFFFFFFFFFFFFFFFFFFFFFFFFFFFFFFFFFFFFFFF MUL NOT AND SWAP1 DUP4 PUSH20 0xFFFFFFFFFFFFFFFFFFFFFFFFFFFFFFFFFFFFFFFF AND MUL OR SWAP1 SSTORE POP DUP1 DUP1 PUSH3 0x2363 SWAP1 PUSH3 0x3338 JUMP JUMPDEST SWAP2 POP POP PUSH3 0x2212 JUMP JUMPDEST POP PUSH1 0x0 DUP1 DUP6 PUSH20 0xFFFFFFFFFFFFFFFFFFFFFFFFFFFFFFFFFFFFFFFF AND PUSH20 0xFFFFFFFFFFFFFFFFFFFFFFFFFFFFFFFFFFFFFFFF AND DUP2 MSTORE PUSH1 0x20 ADD SWAP1 DUP2 MSTORE PUSH1 0x20 ADD PUSH1 0x0 KECCAK256 PUSH1 0x2 ADD PUSH1 0x0 DUP1 DUP7 PUSH20 0xFFFFFFFFFFFFFFFFFFFFFFFFFFFFFFFFFFFFFFFF AND PUSH20 0xFFFFFFFFFFFFFFFFFFFFFFFFFFFFFFFFFFFFFFFF AND DUP2 MSTORE PUSH1 0x20 ADD SWAP1 DUP2 MSTORE PUSH1 0x20 ADD PUSH1 0x0 KECCAK256 PUSH1 0x1 ADD PUSH1 0x1 PUSH1 0x0 DUP1 DUP9 PUSH20 0xFFFFFFFFFFFFFFFFFFFFFFFFFFFFFFFFFFFFFFFF AND PUSH20 0xFFFFFFFFFFFFFFFFFFFFFFFFFFFFFFFFFFFFFFFF AND DUP2 MSTORE PUSH1 0x20 ADD SWAP1 DUP2 MSTORE PUSH1 0x20 ADD PUSH1 0x0 KECCAK256 PUSH1 0x1 ADD DUP1 SLOAD SWAP1 POP PUSH3 0x2442 SWAP2 SWAP1 PUSH3 0x32CE JUMP JUMPDEST DUP2 SLOAD DUP2 LT PUSH3 0x2456 JUMPI PUSH3 0x2455 PUSH3 0x3309 JUMP JUMPDEST JUMPDEST SWAP1 PUSH1 0x0 MSTORE PUSH1 0x20 PUSH1 0x0 KECCAK256 ADD PUSH1 0x0 SWAP1 SLOAD SWAP1 PUSH2 0x100 EXP SWAP1 DIV PUSH20 0xFFFFFFFFFFFFFFFFFFFFFFFFFFFFFFFFFFFFFFFF AND SWAP1 DUP1 PUSH1 0x1 DUP2 SLOAD ADD DUP1 DUP3 SSTORE DUP1 SWAP2 POP POP PUSH1 0x1 SWAP1 SUB SWAP1 PUSH1 0x0 MSTORE PUSH1 0x20 PUSH1 0x0 KECCAK256 ADD PUSH1 0x0 SWAP1 SWAP2 SWAP1 SWAP2 SWAP1 SWAP2 PUSH2 0x100 EXP DUP2 SLOAD DUP2 PUSH20 0xFFFFFFFFFFFFFFFFFFFFFFFFFFFFFFFFFFFFFFFF MUL NOT AND SWAP1 DUP4 PUSH20 0xFFFFFFFFFFFFFFFFFFFFFFFFFFFFFFFFFFFFFFFF AND MUL OR SWAP1 SSTORE POP PUSH1 0x0 DUP1 DUP6 PUSH20 0xFFFFFFFFFFFFFFFFFFFFFFFFFFFFFFFFFFFFFFFF AND PUSH20 0xFFFFFFFFFFFFFFFFFFFFFFFFFFFFFFFFFFFFFFFF AND DUP2 MSTORE PUSH1 0x20 ADD SWAP1 DUP2 MSTORE PUSH1 0x20 ADD PUSH1 0x0 KECCAK256 PUSH1 0x1 ADD DUP1 SLOAD DUP1 PUSH3 0x2535 JUMPI PUSH3 0x2534 PUSH3 0x3776 JUMP JUMPDEST JUMPDEST PUSH1 0x1 SWAP1 SUB DUP2 DUP2 SWAP1 PUSH1 0x0 MSTORE PUSH1 0x20 PUSH1 0x0 KECCAK256 ADD PUSH1 0x0 PUSH2 0x100 EXP DUP2 SLOAD SWAP1 PUSH20 0xFFFFFFFFFFFFFFFFFFFFFFFFFFFFFFFFFFFFFFFF MUL NOT AND SWAP1 SSTORE SWAP1 SSTORE POP POP POP POP JUMP JUMPDEST PUSH1 0x0 PUSH3 0x257E DUP4 DUP4 PUSH3 0x2A68 JUMP JUMPDEST SWAP1 POP PUSH1 0x0 DUP2 SWAP1 POP JUMPDEST PUSH1 0x1 PUSH1 0x6 PUSH1 0x0 DUP7 PUSH20 0xFFFFFFFFFFFFFFFFFFFFFFFFFFFFFFFFFFFFFFFF AND PUSH20 0xFFFFFFFFFFFFFFFFFFFFFFFFFFFFFFFFFFFFFFFF AND DUP2 MSTORE PUSH1 0x20 ADD SWAP1 DUP2 MSTORE PUSH1 0x20 ADD PUSH1 0x0 KECCAK256 PUSH1 0x1 ADD DUP1 SLOAD SWAP1 POP PUSH3 0x25DA SWAP2 SWAP1 PUSH3 0x32CE JUMP JUMPDEST DUP2 LT ISZERO PUSH3 0x2727 JUMPI PUSH1 0x6 PUSH1 0x0 DUP6 PUSH20 0xFFFFFFFFFFFFFFFFFFFFFFFFFFFFFFFFFFFFFFFF AND PUSH20 0xFFFFFFFFFFFFFFFFFFFFFFFFFFFFFFFFFFFFFFFF AND DUP2 MSTORE PUSH1 0x20 ADD SWAP1 DUP2 MSTORE PUSH1 0x20 ADD PUSH1 0x0 KECCAK256 PUSH1 0x1 ADD PUSH1 0x1 DUP3 PUSH3 0x2633 SWAP2 SWAP1 PUSH3 0x3719 JUMP JUMPDEST DUP2 SLOAD DUP2 LT PUSH3 0x2647 JUMPI PUSH3 0x2646 PUSH3 0x3309 JUMP JUMPDEST JUMPDEST SWAP1 PUSH1 0x0 MSTORE PUSH1 0x20 PUSH1 0x0 KECCAK256 ADD PUSH1 0x0 SWAP1 SLOAD SWAP1 PUSH2 0x100 EXP SWAP1 DIV PUSH20 0xFFFFFFFFFFFFFFFFFFFFFFFFFFFFFFFFFFFFFFFF AND PUSH1 0x6 PUSH1 0x0 DUP7 PUSH20 0xFFFFFFFFFFFFFFFFFFFFFFFFFFFFFFFFFFFFFFFF AND PUSH20 0xFFFFFFFFFFFFFFFFFFFFFFFFFFFFFFFFFFFFFFFF AND DUP2 MSTORE PUSH1 0x20 ADD SWAP1 DUP2 MSTORE PUSH1 0x20 ADD PUSH1 0x0 KECCAK256 PUSH1 0x1 ADD DUP3 DUP2 SLOAD DUP2 LT PUSH3 0x26C9 JUMPI PUSH3 0x26C8 PUSH3 0x3309 JUMP JUMPDEST JUMPDEST SWAP1 PUSH1 0x0 MSTORE PUSH1 0x20 PUSH1 0x0 KECCAK256 ADD PUSH1 0x0 PUSH2 0x100 EXP DUP2 SLOAD DUP2 PUSH20 0xFFFFFFFFFFFFFFFFFFFFFFFFFFFFFFFFFFFFFFFF MUL NOT AND SWAP1 DUP4 PUSH20 0xFFFFFFFFFFFFFFFFFFFFFFFFFFFFFFFFFFFFFFFF AND MUL OR SWAP1 SSTORE POP DUP1 DUP1 PUSH3 0x271E SWAP1 PUSH3 0x3338 JUMP JUMPDEST SWAP2 POP POP PUSH3 0x2586 JUMP JUMPDEST POP PUSH1 0x6 PUSH1 0x0 DUP5 PUSH20 0xFFFFFFFFFFFFFFFFFFFFFFFFFFFFFFFFFFFFFFFF AND PUSH20 0xFFFFFFFFFFFFFFFFFFFFFFFFFFFFFFFFFFFFFFFF AND DUP2 MSTORE PUSH1 0x20 ADD SWAP1 DUP2 MSTORE PUSH1 0x20 ADD PUSH1 0x0 KECCAK256 PUSH1 0x2 ADD PUSH1 0x6 PUSH1 0x0 DUP6 PUSH20 0xFFFFFFFFFFFFFFFFFFFFFFFFFFFFFFFFFFFFFFFF AND PUSH20 0xFFFFFFFFFFFFFFFFFFFFFFFFFFFFFFFFFFFFFFFF AND DUP2 MSTORE PUSH1 0x20 ADD SWAP1 DUP2 MSTORE PUSH1 0x20 ADD PUSH1 0x0 KECCAK256 PUSH1 0x1 ADD PUSH1 0x1 PUSH1 0x6 PUSH1 0x0 DUP8 PUSH20 0xFFFFFFFFFFFFFFFFFFFFFFFFFFFFFFFFFFFFFFFF AND PUSH20 0xFFFFFFFFFFFFFFFFFFFFFFFFFFFFFFFFFFFFFFFF AND DUP2 MSTORE PUSH1 0x20 ADD SWAP1 DUP2 MSTORE PUSH1 0x20 ADD PUSH1 0x0 KECCAK256 PUSH1 0x1 ADD DUP1 SLOAD SWAP1 POP PUSH3 0x2800 SWAP2 SWAP1 PUSH3 0x32CE JUMP JUMPDEST DUP2 SLOAD DUP2 LT PUSH3 0x2814 JUMPI PUSH3 0x2813 PUSH3 0x3309 JUMP JUMPDEST JUMPDEST SWAP1 PUSH1 0x0 MSTORE PUSH1 0x20 PUSH1 0x0 KECCAK256 ADD PUSH1 0x0 SWAP1 SLOAD SWAP1 PUSH2 0x100 EXP SWAP1 DIV PUSH20 0xFFFFFFFFFFFFFFFFFFFFFFFFFFFFFFFFFFFFFFFF AND SWAP1 DUP1 PUSH1 0x1 DUP2 SLOAD ADD DUP1 DUP3 SSTORE DUP1 SWAP2 POP POP PUSH1 0x1 SWAP1 SUB SWAP1 PUSH1 0x0 MSTORE PUSH1 0x20 PUSH1 0x0 KECCAK256 ADD PUSH1 0x0 SWAP1 SWAP2 SWAP1 SWAP2 SWAP1 SWAP2 PUSH2 0x100 EXP DUP2 SLOAD DUP2 PUSH20 0xFFFFFFFFFFFFFFFFFFFFFFFFFFFFFFFFFFFFFFFF MUL NOT AND SWAP1 DUP4 PUSH20 0xFFFFFFFFFFFFFFFFFFFFFFFFFFFFFFFFFFFFFFFF AND MUL OR SWAP1 SSTORE POP PUSH1 0x6 PUSH1 0x0 DUP5 PUSH20 0xFFFFFFFFFFFFFFFFFFFFFFFFFFFFFFFFFFFFFFFF AND PUSH20 0xFFFFFFFFFFFFFFFFFFFFFFFFFFFFFFFFFFFFFFFF AND DUP2 MSTORE PUSH1 0x20 ADD SWAP1 DUP2 MSTORE PUSH1 0x20 ADD PUSH1 0x0 KECCAK256 PUSH1 0x1 ADD DUP1 SLOAD DUP1 PUSH3 0x28F4 JUMPI PUSH3 0x28F3 PUSH3 0x3776 JUMP JUMPDEST JUMPDEST PUSH1 0x1 SWAP1 SUB DUP2 DUP2 SWAP1 PUSH1 0x0 MSTORE PUSH1 0x20 PUSH1 0x0 KECCAK256 ADD PUSH1 0x0 PUSH2 0x100 EXP DUP2 SLOAD SWAP1 PUSH20 0xFFFFFFFFFFFFFFFFFFFFFFFFFFFFFFFFFFFFFFFF MUL NOT AND SWAP1 SSTORE SWAP1 SSTORE POP POP POP JUMP JUMPDEST PUSH1 0x0 DUP1 PUSH1 0x0 JUMPDEST PUSH1 0x1 PUSH1 0x0 DUP1 DUP8 PUSH20 0xFFFFFFFFFFFFFFFFFFFFFFFFFFFFFFFFFFFFFFFF AND PUSH20 0xFFFFFFFFFFFFFFFFFFFFFFFFFFFFFFFFFFFFFFFF AND DUP2 MSTORE PUSH1 0x20 ADD SWAP1 DUP2 MSTORE PUSH1 0x20 ADD PUSH1 0x0 KECCAK256 PUSH1 0x1 ADD DUP1 SLOAD SWAP1 POP PUSH3 0x2987 SWAP2 SWAP1 PUSH3 0x32CE JUMP JUMPDEST DUP2 GT PUSH3 0x2A5D JUMPI DUP4 PUSH20 0xFFFFFFFFFFFFFFFFFFFFFFFFFFFFFFFFFFFFFFFF AND PUSH1 0x0 DUP1 DUP8 PUSH20 0xFFFFFFFFFFFFFFFFFFFFFFFFFFFFFFFFFFFFFFFF AND PUSH20 0xFFFFFFFFFFFFFFFFFFFFFFFFFFFFFFFFFFFFFFFF AND DUP2 MSTORE PUSH1 0x20 ADD SWAP1 DUP2 MSTORE PUSH1 0x20 ADD PUSH1 0x0 KECCAK256 PUSH1 0x1 ADD DUP3 DUP2 SLOAD DUP2 LT PUSH3 0x29FB JUMPI PUSH3 0x29FA PUSH3 0x3309 JUMP JUMPDEST JUMPDEST SWAP1 PUSH1 0x0 MSTORE PUSH1 0x20 PUSH1 0x0 KECCAK256 ADD PUSH1 0x0 SWAP1 SLOAD SWAP1 PUSH2 0x100 EXP SWAP1 DIV PUSH20 0xFFFFFFFFFFFFFFFFFFFFFFFFFFFFFFFFFFFFFFFF AND PUSH20 0xFFFFFFFFFFFFFFFFFFFFFFFFFFFFFFFFFFFFFFFF AND EQ ISZERO PUSH3 0x2A47 JUMPI DUP1 SWAP2 POP JUMPDEST DUP1 DUP1 PUSH3 0x2A54 SWAP1 PUSH3 0x3338 JUMP JUMPDEST SWAP2 POP POP PUSH3 0x2934 JUMP JUMPDEST POP DUP1 SWAP2 POP POP SWAP3 SWAP2 POP POP JUMP JUMPDEST PUSH1 0x0 DUP1 PUSH1 0x0 JUMPDEST PUSH1 0x1 PUSH1 0x6 PUSH1 0x0 DUP8 PUSH20 0xFFFFFFFFFFFFFFFFFFFFFFFFFFFFFFFFFFFFFFFF AND PUSH20 0xFFFFFFFFFFFFFFFFFFFFFFFFFFFFFFFFFFFFFFFF AND DUP2 MSTORE PUSH1 0x20 ADD SWAP1 DUP2 MSTORE PUSH1 0x20 ADD PUSH1 0x0 KECCAK256 PUSH1 0x1 ADD DUP1 SLOAD SWAP1 POP PUSH3 0x2AC2 SWAP2 SWAP1 PUSH3 0x32CE JUMP JUMPDEST DUP2 GT PUSH3 0x2B99 JUMPI DUP4 PUSH20 0xFFFFFFFFFFFFFFFFFFFFFFFFFFFFFFFFFFFFFFFF AND PUSH1 0x6 PUSH1 0x0 DUP8 PUSH20 0xFFFFFFFFFFFFFFFFFFFFFFFFFFFFFFFFFFFFFFFF AND PUSH20 0xFFFFFFFFFFFFFFFFFFFFFFFFFFFFFFFFFFFFFFFF AND DUP2 MSTORE PUSH1 0x20 ADD SWAP1 DUP2 MSTORE PUSH1 0x20 ADD PUSH1 0x0 KECCAK256 PUSH1 0x1 ADD DUP3 DUP2 SLOAD DUP2 LT PUSH3 0x2B37 JUMPI PUSH3 0x2B36 PUSH3 0x3309 JUMP JUMPDEST JUMPDEST SWAP1 PUSH1 0x0 MSTORE PUSH1 0x20 PUSH1 0x0 KECCAK256 ADD PUSH1 0x0 SWAP1 SLOAD SWAP1 PUSH2 0x100 EXP SWAP1 DIV PUSH20 0xFFFFFFFFFFFFFFFFFFFFFFFFFFFFFFFFFFFFFFFF AND PUSH20 0xFFFFFFFFFFFFFFFFFFFFFFFFFFFFFFFFFFFFFFFF AND EQ ISZERO PUSH3 0x2B83 JUMPI DUP1 SWAP2 POP JUMPDEST DUP1 DUP1 PUSH3 0x2B90 SWAP1 PUSH3 0x3338 JUMP JUMPDEST SWAP2 POP POP PUSH3 0x2A6E JUMP JUMPDEST POP DUP1 SWAP2 POP POP SWAP3 SWAP2 POP POP JUMP JUMPDEST PUSH2 0x8CB DUP1 PUSH3 0x37A6 DUP4 CODECOPY ADD SWAP1 JUMP JUMPDEST PUSH2 0x1636 DUP1 PUSH3 0x4071 DUP4 CODECOPY ADD SWAP1 JUMP JUMPDEST PUSH1 0x0 PUSH1 0x40 MLOAD SWAP1 POP SWAP1 JUMP JUMPDEST PUSH1 0x0 DUP1 REVERT JUMPDEST PUSH1 0x0 DUP1 REVERT JUMPDEST PUSH1 0x0 PUSH20 0xFFFFFFFFFFFFFFFFFFFFFFFFFFFFFFFFFFFFFFFF DUP3 AND SWAP1 POP SWAP2 SWAP1 POP JUMP JUMPDEST PUSH1 0x0 PUSH3 0x2C01 DUP3 PUSH3 0x2BD4 JUMP JUMPDEST SWAP1 POP SWAP2 SWAP1 POP JUMP JUMPDEST PUSH3 0x2C13 DUP2 PUSH3 0x2BF4 JUMP JUMPDEST DUP2 EQ PUSH3 0x2C1F JUMPI PUSH1 0x0 DUP1 REVERT JUMPDEST POP JUMP JUMPDEST PUSH1 0x0 DUP2 CALLDATALOAD SWAP1 POP PUSH3 0x2C33 DUP2 PUSH3 0x2C08 JUMP JUMPDEST SWAP3 SWAP2 POP POP JUMP JUMPDEST PUSH1 0x0 PUSH1 0x20 DUP3 DUP5 SUB SLT ISZERO PUSH3 0x2C52 JUMPI PUSH3 0x2C51 PUSH3 0x2BCA JUMP JUMPDEST JUMPDEST PUSH1 0x0 PUSH3 0x2C62 DUP5 DUP3 DUP6 ADD PUSH3 0x2C22 JUMP JUMPDEST SWAP2 POP POP SWAP3 SWAP2 POP POP JUMP JUMPDEST PUSH1 0x0 DUP2 SWAP1 POP SWAP2 SWAP1 POP JUMP JUMPDEST PUSH3 0x2C80 DUP2 PUSH3 0x2C6B JUMP JUMPDEST DUP2 EQ PUSH3 0x2C8C JUMPI PUSH1 0x0 DUP1 REVERT JUMPDEST POP JUMP JUMPDEST PUSH1 0x0 DUP2 CALLDATALOAD SWAP1 POP PUSH3 0x2CA0 DUP2 PUSH3 0x2C75 JUMP JUMPDEST SWAP3 SWAP2 POP POP JUMP JUMPDEST PUSH1 0x0 DUP1 PUSH1 0x40 DUP4 DUP6 SUB SLT ISZERO PUSH3 0x2CC0 JUMPI PUSH3 0x2CBF PUSH3 0x2BCA JUMP JUMPDEST JUMPDEST PUSH1 0x0 PUSH3 0x2CD0 DUP6 DUP3 DUP7 ADD PUSH3 0x2C8F JUMP JUMPDEST SWAP3 POP POP PUSH1 0x20 PUSH3 0x2CE3 DUP6 DUP3 DUP7 ADD PUSH3 0x2C8F JUMP JUMPDEST SWAP2 POP POP SWAP3 POP SWAP3 SWAP1 POP JUMP JUMPDEST PUSH1 0x0 DUP2 MLOAD SWAP1 POP SWAP2 SWAP1 POP JUMP JUMPDEST PUSH1 0x0 DUP3 DUP3 MSTORE PUSH1 0x20 DUP3 ADD SWAP1 POP SWAP3 SWAP2 POP POP JUMP JUMPDEST PUSH1 0x0 DUP2 SWAP1 POP PUSH1 0x20 DUP3 ADD SWAP1 POP SWAP2 SWAP1 POP JUMP JUMPDEST PUSH3 0x2D24 DUP2 PUSH3 0x2BF4 JUMP JUMPDEST DUP3 MSTORE POP POP JUMP JUMPDEST PUSH1 0x0 PUSH3 0x2D38 DUP4 DUP4 PUSH3 0x2D19 JUMP JUMPDEST PUSH1 0x20 DUP4 ADD SWAP1 POP SWAP3 SWAP2 POP POP JUMP JUMPDEST PUSH1 0x0 PUSH1 0x20 DUP3 ADD SWAP1 POP SWAP2 SWAP1 POP JUMP JUMPDEST PUSH1 0x0 PUSH3 0x2D5E DUP3 PUSH3 0x2CED JUMP JUMPDEST PUSH3 0x2D6A DUP2 DUP6 PUSH3 0x2CF8 JUMP JUMPDEST SWAP4 POP PUSH3 0x2D77 DUP4 PUSH3 0x2D09 JUMP JUMPDEST DUP1 PUSH1 0x0 JUMPDEST DUP4 DUP2 LT ISZERO PUSH3 0x2DAE JUMPI DUP2 MLOAD PUSH3 0x2D92 DUP9 DUP3 PUSH3 0x2D2A JUMP JUMPDEST SWAP8 POP PUSH3 0x2D9F DUP4 PUSH3 0x2D44 JUMP JUMPDEST SWAP3 POP POP PUSH1 0x1 DUP2 ADD SWAP1 POP PUSH3 0x2D7B JUMP JUMPDEST POP DUP6 SWAP4 POP POP POP POP SWAP3 SWAP2 POP POP JUMP JUMPDEST PUSH1 0x0 PUSH1 0x20 DUP3 ADD SWAP1 POP DUP2 DUP2 SUB PUSH1 0x0 DUP4 ADD MSTORE PUSH3 0x2DD7 DUP2 DUP5 PUSH3 0x2D51 JUMP JUMPDEST SWAP1 POP SWAP3 SWAP2 POP POP JUMP JUMPDEST PUSH1 0x0 PUSH1 0x20 DUP3 DUP5 SUB SLT ISZERO PUSH3 0x2DF8 JUMPI PUSH3 0x2DF7 PUSH3 0x2BCA JUMP JUMPDEST JUMPDEST PUSH1 0x0 PUSH3 0x2E08 DUP5 DUP3 DUP6 ADD PUSH3 0x2C8F JUMP JUMPDEST SWAP2 POP POP SWAP3 SWAP2 POP POP JUMP JUMPDEST PUSH3 0x2E1C DUP2 PUSH3 0x2BF4 JUMP JUMPDEST DUP3 MSTORE POP POP JUMP JUMPDEST PUSH1 0x0 PUSH1 0x20 DUP3 ADD SWAP1 POP PUSH3 0x2E39 PUSH1 0x0 DUP4 ADD DUP5 PUSH3 0x2E11 JUMP JUMPDEST SWAP3 SWAP2 POP POP JUMP JUMPDEST PUSH3 0x2E4A DUP2 PUSH3 0x2C6B JUMP JUMPDEST DUP3 MSTORE POP POP JUMP JUMPDEST PUSH1 0x0 PUSH1 0x20 DUP3 ADD SWAP1 POP PUSH3 0x2E67 PUSH1 0x0 DUP4 ADD DUP5 PUSH3 0x2E3F JUMP JUMPDEST SWAP3 SWAP2 POP POP JUMP JUMPDEST PUSH1 0x0 DUP1 REVERT JUMPDEST PUSH1 0x0 DUP1 REVERT JUMPDEST PUSH1 0x0 PUSH1 0x1F NOT PUSH1 0x1F DUP4 ADD AND SWAP1 POP SWAP2 SWAP1 POP JUMP JUMPDEST PUSH32 0x4E487B7100000000000000000000000000000000000000000000000000000000 PUSH1 0x0 MSTORE PUSH1 0x41 PUSH1 0x4 MSTORE PUSH1 0x24 PUSH1 0x0 REVERT JUMPDEST PUSH3 0x2EC2 DUP3 PUSH3 0x2E77 JUMP JUMPDEST DUP2 ADD DUP2 DUP2 LT PUSH8 0xFFFFFFFFFFFFFFFF DUP3 GT OR ISZERO PUSH3 0x2EE4 JUMPI PUSH3 0x2EE3 PUSH3 0x2E88 JUMP JUMPDEST JUMPDEST DUP1 PUSH1 0x40 MSTORE POP POP POP JUMP JUMPDEST PUSH1 0x0 PUSH3 0x2EF9 PUSH3 0x2BC0 JUMP JUMPDEST SWAP1 POP PUSH3 0x2F07 DUP3 DUP3 PUSH3 0x2EB7 JUMP JUMPDEST SWAP2 SWAP1 POP JUMP JUMPDEST PUSH1 0x0 PUSH8 0xFFFFFFFFFFFFFFFF DUP3 GT ISZERO PUSH3 0x2F2A JUMPI PUSH3 0x2F29 PUSH3 0x2E88 JUMP JUMPDEST JUMPDEST PUSH3 0x2F35 DUP3 PUSH3 0x2E77 JUMP JUMPDEST SWAP1 POP PUSH1 0x20 DUP2 ADD SWAP1 POP SWAP2 SWAP1 POP JUMP JUMPDEST DUP3 DUP2 DUP4 CALLDATACOPY PUSH1 0x0 DUP4 DUP4 ADD MSTORE POP POP POP JUMP JUMPDEST PUSH1 0x0 PUSH3 0x2F68 PUSH3 0x2F62 DUP5 PUSH3 0x2F0C JUMP JUMPDEST PUSH3 0x2EED JUMP JUMPDEST SWAP1 POP DUP3 DUP2 MSTORE PUSH1 0x20 DUP2 ADD DUP5 DUP5 DUP5 ADD GT ISZERO PUSH3 0x2F87 JUMPI PUSH3 0x2F86 PUSH3 0x2E72 JUMP JUMPDEST JUMPDEST PUSH3 0x2F94 DUP5 DUP3 DUP6 PUSH3 0x2F42 JUMP JUMPDEST POP SWAP4 SWAP3 POP POP POP JUMP JUMPDEST PUSH1 0x0 DUP3 PUSH1 0x1F DUP4 ADD SLT PUSH3 0x2FB4 JUMPI PUSH3 0x2FB3 PUSH3 0x2E6D JUMP JUMPDEST JUMPDEST DUP2 CALLDATALOAD PUSH3 0x2FC6 DUP5 DUP3 PUSH1 0x20 DUP7 ADD PUSH3 0x2F51 JUMP JUMPDEST SWAP2 POP POP SWAP3 SWAP2 POP POP JUMP JUMPDEST PUSH1 0x0 PUSH3 0x2FDC DUP3 PUSH3 0x2BD4 JUMP JUMPDEST SWAP1 POP SWAP2 SWAP1 POP JUMP JUMPDEST PUSH3 0x2FEE DUP2 PUSH3 0x2FCF JUMP JUMPDEST DUP2 EQ PUSH3 0x2FFA JUMPI PUSH1 0x0 DUP1 REVERT JUMPDEST POP JUMP JUMPDEST PUSH1 0x0 DUP2 CALLDATALOAD SWAP1 POP PUSH3 0x300E DUP2 PUSH3 0x2FE3 JUMP JUMPDEST SWAP3 SWAP2 POP POP JUMP JUMPDEST PUSH1 0x0 DUP1 PUSH1 0x0 DUP1 PUSH1 0x80 DUP6 DUP8 SUB SLT ISZERO PUSH3 0x3031 JUMPI PUSH3 0x3030 PUSH3 0x2BCA JUMP JUMPDEST JUMPDEST PUSH1 0x0 PUSH3 0x3041 DUP8 DUP3 DUP9 ADD PUSH3 0x2C22 JUMP JUMPDEST SWAP5 POP POP PUSH1 0x20 DUP6 ADD CALLDATALOAD PUSH8 0xFFFFFFFFFFFFFFFF DUP2 GT ISZERO PUSH3 0x3065 JUMPI PUSH3 0x3064 PUSH3 0x2BCF JUMP JUMPDEST JUMPDEST PUSH3 0x3073 DUP8 DUP3 DUP9 ADD PUSH3 0x2F9C JUMP JUMPDEST SWAP4 POP POP PUSH1 0x40 DUP6 ADD CALLDATALOAD PUSH8 0xFFFFFFFFFFFFFFFF DUP2 GT ISZERO PUSH3 0x3097 JUMPI PUSH3 0x3096 PUSH3 0x2BCF JUMP JUMPDEST JUMPDEST PUSH3 0x30A5 DUP8 DUP3 DUP9 ADD PUSH3 0x2F9C JUMP JUMPDEST SWAP3 POP POP PUSH1 0x60 PUSH3 0x30B8 DUP8 DUP3 DUP9 ADD PUSH3 0x2FFD JUMP JUMPDEST SWAP2 POP POP SWAP3 SWAP6 SWAP2 SWAP5 POP SWAP3 POP JUMP JUMPDEST PUSH1 0x0 DUP2 MLOAD SWAP1 POP PUSH3 0x30D5 DUP2 PUSH3 0x2C08 JUMP JUMPDEST SWAP3 SWAP2 POP POP JUMP JUMPDEST PUSH1 0x0 PUSH1 0x20 DUP3 DUP5 SUB SLT ISZERO PUSH3 0x30F4 JUMPI PUSH3 0x30F3 PUSH3 0x2BCA JUMP JUMPDEST JUMPDEST PUSH1 0x0 PUSH3 0x3104 DUP5 DUP3 DUP6 ADD PUSH3 0x30C4 JUMP JUMPDEST SWAP2 POP POP SWAP3 SWAP2 POP POP JUMP JUMPDEST PUSH1 0x0 PUSH3 0x311A DUP3 PUSH3 0x2BF4 JUMP JUMPDEST SWAP1 POP SWAP2 SWAP1 POP JUMP JUMPDEST PUSH3 0x312C DUP2 PUSH3 0x310D JUMP JUMPDEST DUP2 EQ PUSH3 0x3138 JUMPI PUSH1 0x0 DUP1 REVERT JUMPDEST POP JUMP JUMPDEST PUSH1 0x0 DUP2 MLOAD SWAP1 POP PUSH3 0x314C DUP2 PUSH3 0x3121 JUMP JUMPDEST SWAP3 SWAP2 POP POP JUMP JUMPDEST PUSH1 0x0 PUSH1 0x20 DUP3 DUP5 SUB SLT ISZERO PUSH3 0x316B JUMPI PUSH3 0x316A PUSH3 0x2BCA JUMP JUMPDEST JUMPDEST PUSH1 0x0 PUSH3 0x317B DUP5 DUP3 DUP6 ADD PUSH3 0x313B JUMP JUMPDEST SWAP2 POP POP SWAP3 SWAP2 POP POP JUMP JUMPDEST PUSH1 0x0 DUP3 DUP3 MSTORE PUSH1 0x20 DUP3 ADD SWAP1 POP SWAP3 SWAP2 POP POP JUMP JUMPDEST PUSH32 0x537461727420696E6465782063616E6E6F74206265206E656761746976650000 PUSH1 0x0 DUP3 ADD MSTORE POP JUMP JUMPDEST PUSH1 0x0 PUSH3 0x31CD PUSH1 0x1E DUP4 PUSH3 0x3184 JUMP JUMPDEST SWAP2 POP PUSH3 0x31DA DUP3 PUSH3 0x3195 JUMP JUMPDEST PUSH1 0x20 DUP3 ADD SWAP1 POP SWAP2 SWAP1 POP JUMP JUMPDEST PUSH1 0x0 PUSH1 0x20 DUP3 ADD SWAP1 POP DUP2 DUP2 SUB PUSH1 0x0 DUP4 ADD MSTORE PUSH3 0x3200 DUP2 PUSH3 0x31BE JUMP JUMPDEST SWAP1 POP SWAP2 SWAP1 POP JUMP JUMPDEST PUSH32 0x456E6420696E6465782065786365656473207573657220616464726573736573 PUSH1 0x0 DUP3 ADD MSTORE PUSH32 0x206C656E67746800000000000000000000000000000000000000000000000000 PUSH1 0x20 DUP3 ADD MSTORE POP JUMP JUMPDEST PUSH1 0x0 PUSH3 0x3265 PUSH1 0x27 DUP4 PUSH3 0x3184 JUMP JUMPDEST SWAP2 POP PUSH3 0x3272 DUP3 PUSH3 0x3207 JUMP JUMPDEST PUSH1 0x40 DUP3 ADD SWAP1 POP SWAP2 SWAP1 POP JUMP JUMPDEST PUSH1 0x0 PUSH1 0x20 DUP3 ADD SWAP1 POP DUP2 DUP2 SUB PUSH1 0x0 DUP4 ADD MSTORE PUSH3 0x3298 DUP2 PUSH3 0x3256 JUMP JUMPDEST SWAP1 POP SWAP2 SWAP1 POP JUMP JUMPDEST PUSH32 0x4E487B7100000000000000000000000000000000000000000000000000000000 PUSH1 0x0 MSTORE PUSH1 0x11 PUSH1 0x4 MSTORE PUSH1 0x24 PUSH1 0x0 REVERT JUMPDEST PUSH1 0x0 PUSH3 0x32DB DUP3 PUSH3 0x2C6B JUMP JUMPDEST SWAP2 POP PUSH3 0x32E8 DUP4 PUSH3 0x2C6B JUMP JUMPDEST SWAP3 POP DUP3 DUP3 LT ISZERO PUSH3 0x32FE JUMPI PUSH3 0x32FD PUSH3 0x329F JUMP JUMPDEST JUMPDEST DUP3 DUP3 SUB SWAP1 POP SWAP3 SWAP2 POP POP JUMP JUMPDEST PUSH32 0x4E487B7100000000000000000000000000000000000000000000000000000000 PUSH1 0x0 MSTORE PUSH1 0x32 PUSH1 0x4 MSTORE PUSH1 0x24 PUSH1 0x0 REVERT JUMPDEST PUSH1 0x0 PUSH3 0x3345 DUP3 PUSH3 0x2C6B JUMP JUMPDEST SWAP2 POP PUSH32 0xFFFFFFFFFFFFFFFFFFFFFFFFFFFFFFFFFFFFFFFFFFFFFFFFFFFFFFFFFFFFFFFF DUP3 EQ ISZERO PUSH3 0x337B JUMPI PUSH3 0x337A PUSH3 0x329F JUMP JUMPDEST JUMPDEST PUSH1 0x1 DUP3 ADD SWAP1 POP SWAP2 SWAP1 POP JUMP JUMPDEST PUSH32 0x4E487B7100000000000000000000000000000000000000000000000000000000 PUSH1 0x0 MSTORE PUSH1 0x21 PUSH1 0x4 MSTORE PUSH1 0x24 PUSH1 0x0 REVERT JUMPDEST PUSH1 0x4 DUP2 LT PUSH3 0x33C3 JUMPI PUSH1 0x0 DUP1 REVERT JUMPDEST POP JUMP JUMPDEST PUSH1 0x0 DUP2 MLOAD SWAP1 POP PUSH3 0x33D7 DUP2 PUSH3 0x33B5 JUMP JUMPDEST SWAP3 SWAP2 POP POP JUMP JUMPDEST PUSH1 0x0 PUSH1 0x20 DUP3 DUP5 SUB SLT ISZERO PUSH3 0x33F6 JUMPI PUSH3 0x33F5 PUSH3 0x2BCA JUMP JUMPDEST JUMPDEST PUSH1 0x0 PUSH3 0x3406 DUP5 DUP3 DUP6 ADD PUSH3 0x33C6 JUMP JUMPDEST SWAP2 POP POP SWAP3 SWAP2 POP POP JUMP JUMPDEST PUSH32 0x436F6E747261637420737461747573206D757374206265206F70656E00000000 PUSH1 0x0 DUP3 ADD MSTORE POP JUMP JUMPDEST PUSH1 0x0 PUSH3 0x3447 PUSH1 0x1C DUP4 PUSH3 0x3184 JUMP JUMPDEST SWAP2 POP PUSH3 0x3454 DUP3 PUSH3 0x340F JUMP JUMPDEST PUSH1 0x20 DUP3 ADD SWAP1 POP SWAP2 SWAP1 POP JUMP JUMPDEST PUSH1 0x0 PUSH1 0x20 DUP3 ADD SWAP1 POP DUP2 DUP2 SUB PUSH1 0x0 DUP4 ADD MSTORE PUSH3 0x347A DUP2 PUSH3 0x3438 JUMP JUMPDEST SWAP1 POP SWAP2 SWAP1 POP JUMP JUMPDEST PUSH32 0x4F6E6C792063726561746F72206F6620636F6E74726163742063616E20726571 PUSH1 0x0 DUP3 ADD MSTORE PUSH32 0x7565737420636F6D706C6574696F6E0000000000000000000000000000000000 PUSH1 0x20 DUP3 ADD MSTORE POP JUMP JUMPDEST PUSH1 0x0 PUSH3 0x34DF PUSH1 0x2F DUP4 PUSH3 0x3184 JUMP JUMPDEST SWAP2 POP PUSH3 0x34EC DUP3 PUSH3 0x3481 JUMP JUMPDEST PUSH1 0x40 DUP3 ADD SWAP1 POP SWAP2 SWAP1 POP JUMP JUMPDEST PUSH1 0x0 PUSH1 0x20 DUP3 ADD SWAP1 POP DUP2 DUP2 SUB PUSH1 0x0 DUP4 ADD MSTORE PUSH3 0x3512 DUP2 PUSH3 0x34D0 JUMP JUMPDEST SWAP1 POP SWAP2 SWAP1 POP JUMP JUMPDEST PUSH32 0x43616E6E6F74207265717565737420617070726F76616C207768656E20637265 PUSH1 0x0 DUP3 ADD MSTORE PUSH32 0x61746F7220697320726566657265650000000000000000000000000000000000 PUSH1 0x20 DUP3 ADD MSTORE POP JUMP JUMPDEST PUSH1 0x0 PUSH3 0x3577 PUSH1 0x2F DUP4 PUSH3 0x3184 JUMP JUMPDEST SWAP2 POP PUSH3 0x3584 DUP3 PUSH3 0x3519 JUMP JUMPDEST PUSH1 0x40 DUP3 ADD SWAP1 POP SWAP2 SWAP1 POP JUMP JUMPDEST PUSH1 0x0 PUSH1 0x20 DUP3 ADD SWAP1 POP DUP2 DUP2 SUB PUSH1 0x0 DUP4 ADD MSTORE PUSH3 0x35AA DUP2 PUSH3 0x3568 JUMP JUMPDEST SWAP1 POP SWAP2 SWAP1 POP JUMP JUMPDEST PUSH1 0x0 DUP2 MLOAD SWAP1 POP SWAP2 SWAP1 POP JUMP JUMPDEST PUSH1 0x0 JUMPDEST DUP4 DUP2 LT ISZERO PUSH3 0x35DC JUMPI DUP1 DUP3 ADD MLOAD DUP2 DUP5 ADD MSTORE PUSH1 0x20 DUP2 ADD SWAP1 POP PUSH3 0x35BF JUMP JUMPDEST DUP4 DUP2 GT ISZERO PUSH3 0x35EC JUMPI PUSH1 0x0 DUP5 DUP5 ADD MSTORE JUMPDEST POP POP POP POP JUMP JUMPDEST PUSH1 0x0 PUSH3 0x35FF DUP3 PUSH3 0x35B1 JUMP JUMPDEST PUSH3 0x360B DUP2 DUP6 PUSH3 0x3184 JUMP JUMPDEST SWAP4 POP PUSH3 0x361D DUP2 DUP6 PUSH1 0x20 DUP7 ADD PUSH3 0x35BC JUMP JUMPDEST PUSH3 0x3628 DUP2 PUSH3 0x2E77 JUMP JUMPDEST DUP5 ADD SWAP2 POP POP SWAP3 SWAP2 POP POP JUMP JUMPDEST PUSH1 0x0 DUP2 SWAP1 POP SWAP2 SWAP1 POP JUMP JUMPDEST PUSH1 0x0 PUSH3 0x365E PUSH3 0x3658 PUSH3 0x3652 DUP5 PUSH3 0x2BD4 JUMP JUMPDEST PUSH3 0x3633 JUMP JUMPDEST PUSH3 0x2BD4 JUMP JUMPDEST SWAP1 POP SWAP2 SWAP1 POP JUMP JUMPDEST PUSH1 0x0 PUSH3 0x3672 DUP3 PUSH3 0x363D JUMP JUMPDEST SWAP1 POP SWAP2 SWAP1 POP JUMP JUMPDEST PUSH1 0x0 PUSH3 0x3686 DUP3 PUSH3 0x3665 JUMP JUMPDEST SWAP1 POP SWAP2 SWAP1 POP JUMP JUMPDEST PUSH3 0x3698 DUP2 PUSH3 0x3679 JUMP JUMPDEST DUP3 MSTORE POP POP JUMP JUMPDEST PUSH1 0x0 PUSH1 0xC0 DUP3 ADD SWAP1 POP PUSH3 0x36B5 PUSH1 0x0 DUP4 ADD DUP10 PUSH3 0x2E11 JUMP JUMPDEST PUSH3 0x36C4 PUSH1 0x20 DUP4 ADD DUP9 PUSH3 0x2E11 JUMP JUMPDEST DUP2 DUP2 SUB PUSH1 0x40 DUP4 ADD MSTORE PUSH3 0x36D8 DUP2 DUP8 PUSH3 0x35F2 JUMP JUMPDEST SWAP1 POP DUP2 DUP2 SUB PUSH1 0x60 DUP4 ADD MSTORE PUSH3 0x36EE DUP2 DUP7 PUSH3 0x35F2 JUMP JUMPDEST SWAP1 POP PUSH3 0x36FF PUSH1 0x80 DUP4 ADD DUP6 PUSH3 0x368D JUMP JUMPDEST PUSH3 0x370E PUSH1 0xA0 DUP4 ADD DUP5 PUSH3 0x2E3F JUMP JUMPDEST SWAP8 SWAP7 POP POP POP POP POP POP POP JUMP JUMPDEST PUSH1 0x0 PUSH3 0x3726 DUP3 PUSH3 0x2C6B JUMP JUMPDEST SWAP2 POP PUSH3 0x3733 DUP4 PUSH3 0x2C6B JUMP JUMPDEST SWAP3 POP DUP3 PUSH32 0xFFFFFFFFFFFFFFFFFFFFFFFFFFFFFFFFFFFFFFFFFFFFFFFFFFFFFFFFFFFFFFFF SUB DUP3 GT ISZERO PUSH3 0x376B JUMPI PUSH3 0x376A PUSH3 0x329F JUMP JUMPDEST JUMPDEST DUP3 DUP3 ADD SWAP1 POP SWAP3 SWAP2 POP POP JUMP JUMPDEST PUSH32 0x4E487B7100000000000000000000000000000000000000000000000000000000 PUSH1 0x0 MSTORE PUSH1 0x31 PUSH1 0x4 MSTORE PUSH1 0x24 PUSH1 0x0 REVERT INVALID PUSH1 0x80 PUSH1 0x40 MSTORE CALLVALUE DUP1 ISZERO PUSH2 0x10 JUMPI PUSH1 0x0 DUP1 REVERT JUMPDEST POP PUSH1 0x40 MLOAD PUSH2 0x8CB CODESIZE SUB DUP1 PUSH2 0x8CB DUP4 CODECOPY DUP2 DUP2 ADD PUSH1 0x40 MSTORE DUP2 ADD SWAP1 PUSH2 0x32 SWAP2 SWAP1 PUSH2 0x26A JUMP JUMPDEST PUSH1 0x0 DUP2 SWAP1 POP DUP1 PUSH20 0xFFFFFFFFFFFFFFFFFFFFFFFFFFFFFFFFFFFFFFFF AND PUSH4 0x2D05D3F PUSH1 0x40 MLOAD DUP2 PUSH4 0xFFFFFFFF AND PUSH1 0xE0 SHL DUP2 MSTORE PUSH1 0x4 ADD PUSH1 0x20 PUSH1 0x40 MLOAD DUP1 DUP4 SUB DUP2 DUP7 GAS STATICCALL ISZERO DUP1 ISZERO PUSH2 0x82 JUMPI RETURNDATASIZE PUSH1 0x0 DUP1 RETURNDATACOPY RETURNDATASIZE PUSH1 0x0 REVERT JUMPDEST POP POP POP POP PUSH1 0x40 MLOAD RETURNDATASIZE PUSH1 0x1F NOT PUSH1 0x1F DUP3 ADD AND DUP3 ADD DUP1 PUSH1 0x40 MSTORE POP DUP2 ADD SWAP1 PUSH2 0xA6 SWAP2 SWAP1 PUSH2 0x26A JUMP JUMPDEST PUSH1 0x0 DUP1 PUSH2 0x100 EXP DUP2 SLOAD DUP2 PUSH20 0xFFFFFFFFFFFFFFFFFFFFFFFFFFFFFFFFFFFFFFFF MUL NOT AND SWAP1 DUP4 PUSH20 0xFFFFFFFFFFFFFFFFFFFFFFFFFFFFFFFFFFFFFFFF AND MUL OR SWAP1 SSTORE POP DUP1 PUSH20 0xFFFFFFFFFFFFFFFFFFFFFFFFFFFFFFFFFFFFFFFF AND PUSH4 0x3B1BEBD1 PUSH1 0x40 MLOAD DUP2 PUSH4 0xFFFFFFFF AND PUSH1 0xE0 SHL DUP2 MSTORE PUSH1 0x4 ADD PUSH1 0x20 PUSH1 0x40 MLOAD DUP1 DUP4 SUB DUP2 DUP7 GAS STATICCALL ISZERO DUP1 ISZERO PUSH2 0x130 JUMPI RETURNDATASIZE PUSH1 0x0 DUP1 RETURNDATACOPY RETURNDATASIZE PUSH1 0x0 REVERT JUMPDEST POP POP POP POP PUSH1 0x40 MLOAD RETURNDATASIZE PUSH1 0x1F NOT PUSH1 0x1F DUP3 ADD AND DUP3 ADD DUP1 PUSH1 0x40 MSTORE POP DUP2 ADD SWAP1 PUSH2 0x154 SWAP2 SWAP1 PUSH2 0x26A JUMP JUMPDEST PUSH1 0x1 PUSH1 0x0 PUSH2 0x100 EXP DUP2 SLOAD DUP2 PUSH20 0xFFFFFFFFFFFFFFFFFFFFFFFFFFFFFFFFFFFFFFFF MUL NOT AND SWAP1 DUP4 PUSH20 0xFFFFFFFFFFFFFFFFFFFFFFFFFFFFFFFFFFFFFFFF AND MUL OR SWAP1 SSTORE POP DUP2 PUSH1 0x2 PUSH1 0x0 PUSH2 0x100 EXP DUP2 SLOAD DUP2 PUSH20 0xFFFFFFFFFFFFFFFFFFFFFFFFFFFFFFFFFFFFFFFF MUL NOT AND SWAP1 DUP4 PUSH20 0xFFFFFFFFFFFFFFFFFFFFFFFFFFFFFFFFFFFFFFFF AND MUL OR SWAP1 SSTORE POP PUSH1 0x0 PUSH1 0x2 PUSH1 0x14 PUSH2 0x100 EXP DUP2 SLOAD DUP2 PUSH1 0xFF MUL NOT AND SWAP1 DUP4 PUSH1 0x2 DUP2 GT ISZERO PUSH2 0x1FB JUMPI PUSH2 0x1FA PUSH2 0x297 JUMP JUMPDEST JUMPDEST MUL OR SWAP1 SSTORE POP POP POP PUSH2 0x2C6 JUMP JUMPDEST PUSH1 0x0 DUP1 REVERT JUMPDEST PUSH1 0x0 PUSH20 0xFFFFFFFFFFFFFFFFFFFFFFFFFFFFFFFFFFFFFFFF DUP3 AND SWAP1 POP SWAP2 SWAP1 POP JUMP JUMPDEST PUSH1 0x0 PUSH2 0x237 DUP3 PUSH2 0x20C JUMP JUMPDEST SWAP1 POP SWAP2 SWAP1 POP JUMP JUMPDEST PUSH2 0x247 DUP2 PUSH2 0x22C JUMP JUMPDEST DUP2 EQ PUSH2 0x252 JUMPI PUSH1 0x0 DUP1 REVERT JUMPDEST POP JUMP JUMPDEST PUSH1 0x0 DUP2 MLOAD SWAP1 POP PUSH2 0x264 DUP2 PUSH2 0x23E JUMP JUMPDEST SWAP3 SWAP2 POP POP JUMP JUMPDEST PUSH1 0x0 PUSH1 0x20 DUP3 DUP5 SUB SLT ISZERO PUSH2 0x280 JUMPI PUSH2 0x27F PUSH2 0x207 JUMP JUMPDEST JUMPDEST PUSH1 0x0 PUSH2 0x28E DUP5 DUP3 DUP6 ADD PUSH2 0x255 JUMP JUMPDEST SWAP2 POP POP SWAP3 SWAP2 POP POP JUMP JUMPDEST PUSH32 0x4E487B7100000000000000000000000000000000000000000000000000000000 PUSH1 0x0 MSTORE PUSH1 0x21 PUSH1 0x4 MSTORE PUSH1 0x24 PUSH1 0x0 REVERT JUMPDEST PUSH2 0x5F6 DUP1 PUSH2 0x2D5 PUSH1 0x0 CODECOPY PUSH1 0x0 RETURN INVALID PUSH1 0x80 PUSH1 0x40 MSTORE CALLVALUE DUP1 ISZERO PUSH2 0x10 JUMPI PUSH1 0x0 DUP1 REVERT JUMPDEST POP PUSH1 0x4 CALLDATASIZE LT PUSH2 0x62 JUMPI PUSH1 0x0 CALLDATALOAD PUSH1 0xE0 SHR DUP1 PUSH4 0x2D05D3F EQ PUSH2 0x67 JUMPI DUP1 PUSH4 0x200D2ED2 EQ PUSH2 0x85 JUMPI DUP1 PUSH4 0x263B81C9 EQ PUSH2 0xA3 JUMPI DUP1 PUSH4 0x3B1BEBD1 EQ PUSH2 0xC1 JUMPI DUP1 PUSH4 0x3C490174 EQ PUSH2 0xDF JUMPI DUP1 PUSH4 0xE19695F7 EQ PUSH2 0xFD JUMPI JUMPDEST PUSH1 0x0 DUP1 REVERT JUMPDEST PUSH2 0x6F PUSH2 0x11B JUMP JUMPDEST PUSH1 0x40 MLOAD PUSH2 0x7C SWAP2 SWAP1 PUSH2 0x364 JUMP JUMPDEST PUSH1 0x40 MLOAD DUP1 SWAP2 SUB SWAP1 RETURN JUMPDEST PUSH2 0x8D PUSH2 0x13F JUMP JUMPDEST PUSH1 0x40 MLOAD PUSH2 0x9A SWAP2 SWAP1 PUSH2 0x3F6 JUMP JUMPDEST PUSH1 0x40 MLOAD DUP1 SWAP2 SUB SWAP1 RETURN JUMPDEST PUSH2 0xAB PUSH2 0x152 JUMP JUMPDEST PUSH1 0x40 MLOAD PUSH2 0xB8 SWAP2 SWAP1 PUSH2 0x470 JUMP JUMPDEST PUSH1 0x40 MLOAD DUP1 SWAP2 SUB SWAP1 RETURN JUMPDEST PUSH2 0xC9 PUSH2 0x215 JUMP JUMPDEST PUSH1 0x40 MLOAD PUSH2 0xD6 SWAP2 SWAP1 PUSH2 0x364 JUMP JUMPDEST PUSH1 0x40 MLOAD DUP1 SWAP2 SUB SWAP1 RETURN JUMPDEST PUSH2 0xE7 PUSH2 0x23B JUMP JUMPDEST PUSH1 0x40 MLOAD PUSH2 0xF4 SWAP2 SWAP1 PUSH2 0x364 JUMP JUMPDEST PUSH1 0x40 MLOAD DUP1 SWAP2 SUB SWAP1 RETURN JUMPDEST PUSH2 0x105 PUSH2 0x261 JUMP JUMPDEST PUSH1 0x40 MLOAD PUSH2 0x112 SWAP2 SWAP1 PUSH2 0x470 JUMP JUMPDEST PUSH1 0x40 MLOAD DUP1 SWAP2 SUB SWAP1 RETURN JUMPDEST PUSH1 0x0 DUP1 SLOAD SWAP1 PUSH2 0x100 EXP SWAP1 DIV PUSH20 0xFFFFFFFFFFFFFFFFFFFFFFFFFFFFFFFFFFFFFFFF AND DUP2 JUMP JUMPDEST PUSH1 0x2 PUSH1 0x14 SWAP1 SLOAD SWAP1 PUSH2 0x100 EXP SWAP1 DIV PUSH1 0xFF AND DUP2 JUMP JUMPDEST PUSH1 0x0 PUSH1 0x1 PUSH1 0x0 SWAP1 SLOAD SWAP1 PUSH2 0x100 EXP SWAP1 DIV PUSH20 0xFFFFFFFFFFFFFFFFFFFFFFFFFFFFFFFFFFFFFFFF AND PUSH20 0xFFFFFFFFFFFFFFFFFFFFFFFFFFFFFFFFFFFFFFFF AND ORIGIN PUSH20 0xFFFFFFFFFFFFFFFFFFFFFFFFFFFFFFFFFFFFFFFF AND EQ PUSH2 0x1E4 JUMPI PUSH1 0x40 MLOAD PUSH32 0x8C379A000000000000000000000000000000000000000000000000000000000 DUP2 MSTORE PUSH1 0x4 ADD PUSH2 0x1DB SWAP1 PUSH2 0x50E JUMP JUMPDEST PUSH1 0x40 MLOAD DUP1 SWAP2 SUB SWAP1 REVERT JUMPDEST PUSH1 0x1 PUSH1 0x2 PUSH1 0x14 PUSH2 0x100 EXP DUP2 SLOAD DUP2 PUSH1 0xFF MUL NOT AND SWAP1 DUP4 PUSH1 0x2 DUP2 GT ISZERO PUSH2 0x20A JUMPI PUSH2 0x209 PUSH2 0x37F JUMP JUMPDEST JUMPDEST MUL OR SWAP1 SSTORE POP ADDRESS SWAP1 POP SWAP1 JUMP JUMPDEST PUSH1 0x1 PUSH1 0x0 SWAP1 SLOAD SWAP1 PUSH2 0x100 EXP SWAP1 DIV PUSH20 0xFFFFFFFFFFFFFFFFFFFFFFFFFFFFFFFFFFFFFFFF AND DUP2 JUMP JUMPDEST PUSH1 0x2 PUSH1 0x0 SWAP1 SLOAD SWAP1 PUSH2 0x100 EXP SWAP1 DIV PUSH20 0xFFFFFFFFFFFFFFFFFFFFFFFFFFFFFFFFFFFFFFFF AND DUP2 JUMP JUMPDEST PUSH1 0x0 PUSH1 0x1 PUSH1 0x0 SWAP1 SLOAD SWAP1 PUSH2 0x100 EXP SWAP1 DIV PUSH20 0xFFFFFFFFFFFFFFFFFFFFFFFFFFFFFFFFFFFFFFFF AND PUSH20 0xFFFFFFFFFFFFFFFFFFFFFFFFFFFFFFFFFFFFFFFF AND ORIGIN PUSH20 0xFFFFFFFFFFFFFFFFFFFFFFFFFFFFFFFFFFFFFFFF AND EQ PUSH2 0x2F3 JUMPI PUSH1 0x40 MLOAD PUSH32 0x8C379A000000000000000000000000000000000000000000000000000000000 DUP2 MSTORE PUSH1 0x4 ADD PUSH2 0x2EA SWAP1 PUSH2 0x5A0 JUMP JUMPDEST PUSH1 0x40 MLOAD DUP1 SWAP2 SUB SWAP1 REVERT JUMPDEST PUSH1 0x2 DUP1 PUSH1 0x14 PUSH2 0x100 EXP DUP2 SLOAD DUP2 PUSH1 0xFF MUL NOT AND SWAP1 DUP4 PUSH1 0x2 DUP2 GT ISZERO PUSH2 0x318 JUMPI PUSH2 0x317 PUSH2 0x37F JUMP JUMPDEST JUMPDEST MUL OR SWAP1 SSTORE POP ADDRESS SWAP1 POP SWAP1 JUMP JUMPDEST PUSH1 0x0 PUSH20 0xFFFFFFFFFFFFFFFFFFFFFFFFFFFFFFFFFFFFFFFF DUP3 AND SWAP1 POP SWAP2 SWAP1 POP JUMP JUMPDEST PUSH1 0x0 PUSH2 0x34E DUP3 PUSH2 0x323 JUMP JUMPDEST SWAP1 POP SWAP2 SWAP1 POP JUMP JUMPDEST PUSH2 0x35E DUP2 PUSH2 0x343 JUMP JUMPDEST DUP3 MSTORE POP POP JUMP JUMPDEST PUSH1 0x0 PUSH1 0x20 DUP3 ADD SWAP1 POP PUSH2 0x379 PUSH1 0x0 DUP4 ADD DUP5 PUSH2 0x355 JUMP JUMPDEST SWAP3 SWAP2 POP POP JUMP JUMPDEST PUSH32 0x4E487B7100000000000000000000000000000000000000000000000000000000 PUSH1 0x0 MSTORE PUSH1 0x21 PUSH1 0x4 MSTORE PUSH1 0x24 PUSH1 0x0 REVERT JUMPDEST PUSH1 0x3 DUP2 LT PUSH2 0x3BF JUMPI PUSH2 0x3BE PUSH2 0x37F JUMP JUMPDEST JUMPDEST POP JUMP JUMPDEST PUSH1 0x0 DUP2 SWAP1 POP PUSH2 0x3D0 DUP3 PUSH2 0x3AE JUMP JUMPDEST SWAP2 SWAP1 POP JUMP JUMPDEST PUSH1 0x0 PUSH2 0x3E0 DUP3 PUSH2 0x3C2 JUMP JUMPDEST SWAP1 POP SWAP2 SWAP1 POP JUMP JUMPDEST PUSH2 0x3F0 DUP2 PUSH2 0x3D5 JUMP JUMPDEST DUP3 MSTORE POP POP JUMP JUMPDEST PUSH1 0x0 PUSH1 0x20 DUP3 ADD SWAP1 POP PUSH2 0x40B PUSH1 0x0 DUP4 ADD DUP5 PUSH2 0x3E7 JUMP JUMPDEST SWAP3 SWAP2 POP POP JUMP JUMPDEST PUSH1 0x0 DUP2 SWAP1 POP SWAP2 SWAP1 POP JUMP JUMPDEST PUSH1 0x0 PUSH2 0x436 PUSH2 0x431 PUSH2 0x42C DUP5 PUSH2 0x323 JUMP JUMPDEST PUSH2 0x411 JUMP JUMPDEST PUSH2 0x323 JUMP JUMPDEST SWAP1 POP SWAP2 SWAP1 POP JUMP JUMPDEST PUSH1 0x0 PUSH2 0x448 DUP3 PUSH2 0x41B JUMP JUMPDEST SWAP1 POP SWAP2 SWAP1 POP JUMP JUMPDEST PUSH1 0x0 PUSH2 0x45A DUP3 PUSH2 0x43D JUMP JUMPDEST SWAP1 POP SWAP2 SWAP1 POP JUMP JUMPDEST PUSH2 0x46A DUP2 PUSH2 0x44F JUMP JUMPDEST DUP3 MSTORE POP POP JUMP JUMPDEST PUSH1 0x0 PUSH1 0x20 DUP3 ADD SWAP1 POP PUSH2 0x485 PUSH1 0x0 DUP4 ADD DUP5 PUSH2 0x461 JUMP JUMPDEST SWAP3 SWAP2 POP POP JUMP JUMPDEST PUSH1 0x0 DUP3 DUP3 MSTORE PUSH1 0x20 DUP3 ADD SWAP1 POP SWAP3 SWAP2 POP POP JUMP JUMPDEST PUSH32 0x4F6E6C7920726566657265652063616E20617070726F766520617070726F7661 PUSH1 0x0 DUP3 ADD MSTORE PUSH32 0x6C20726571756573740000000000000000000000000000000000000000000000 PUSH1 0x20 DUP3 ADD MSTORE POP JUMP JUMPDEST PUSH1 0x0 PUSH2 0x4F8 PUSH1 0x29 DUP4 PUSH2 0x48B JUMP JUMPDEST SWAP2 POP PUSH2 0x503 DUP3 PUSH2 0x49C JUMP JUMPDEST PUSH1 0x40 DUP3 ADD SWAP1 POP SWAP2 SWAP1 POP JUMP JUMPDEST PUSH1 0x0 PUSH1 0x20 DUP3 ADD SWAP1 POP DUP2 DUP2 SUB PUSH1 0x0 DUP4 ADD MSTORE PUSH2 0x527 DUP2 PUSH2 0x4EB JUMP JUMPDEST SWAP1 POP SWAP2 SWAP1 POP JUMP JUMPDEST PUSH32 0x4F6E6C7920726566657265652063616E2072656A65637420617070726F76616C PUSH1 0x0 DUP3 ADD MSTORE PUSH32 0x2072657175657374000000000000000000000000000000000000000000000000 PUSH1 0x20 DUP3 ADD MSTORE POP JUMP JUMPDEST PUSH1 0x0 PUSH2 0x58A PUSH1 0x28 DUP4 PUSH2 0x48B JUMP JUMPDEST SWAP2 POP PUSH2 0x595 DUP3 PUSH2 0x52E JUMP JUMPDEST PUSH1 0x40 DUP3 ADD SWAP1 POP SWAP2 SWAP1 POP JUMP JUMPDEST PUSH1 0x0 PUSH1 0x20 DUP3 ADD SWAP1 POP DUP2 DUP2 SUB PUSH1 0x0 DUP4 ADD MSTORE PUSH2 0x5B9 DUP2 PUSH2 0x57D JUMP JUMPDEST SWAP1 POP SWAP2 SWAP1 POP JUMP INVALID LOG2 PUSH5 0x6970667358 0x22 SLT KECCAK256 PUSH19 0xE7AC8A134EB6B516D4BA864838B1F75901825F PUSH14 0x8B482291A4434724150A8864736F PUSH13 0x634300080C0033608060405260 BLOCKHASH MLOAD PUSH3 0x1636 CODESIZE SUB DUP1 PUSH3 0x1636 DUP4 CODECOPY DUP2 DUP2 ADD PUSH1 0x40 MSTORE DUP2 ADD SWAP1 PUSH3 0x29 SWAP2 SWAP1 PUSH3 0x44B JUMP JUMPDEST DUP6 PUSH1 0x0 DUP1 PUSH2 0x100 EXP DUP2 SLOAD DUP2 PUSH20 0xFFFFFFFFFFFFFFFFFFFFFFFFFFFFFFFFFFFFFFFF MUL NOT AND SWAP1 DUP4 PUSH20 0xFFFFFFFFFFFFFFFFFFFFFFFFFFFFFFFFFFFFFFFF AND MUL OR SWAP1 SSTORE POP DUP5 PUSH1 0x1 PUSH1 0x0 PUSH2 0x100 EXP DUP2 SLOAD DUP2 PUSH20 0xFFFFFFFFFFFFFFFFFFFFFFFFFFFFFFFFFFFFFFFF MUL NOT AND SWAP1 DUP4 PUSH20 0xFFFFFFFFFFFFFFFFFFFFFFFFFFFFFFFFFFFFFFFF AND MUL OR SWAP1 SSTORE POP DUP4 PUSH1 0x2 SWAP1 DUP1 MLOAD SWAP1 PUSH1 0x20 ADD SWAP1 PUSH3 0xC2 SWAP3 SWAP2 SWAP1 PUSH3 0x15E JUMP JUMPDEST POP DUP3 PUSH1 0x3 SWAP1 DUP1 MLOAD SWAP1 PUSH1 0x20 ADD SWAP1 PUSH3 0xDB SWAP3 SWAP2 SWAP1 PUSH3 0x15E JUMP JUMPDEST POP DUP2 PUSH1 0x4 PUSH1 0x0 PUSH2 0x100 EXP DUP2 SLOAD DUP2 PUSH20 0xFFFFFFFFFFFFFFFFFFFFFFFFFFFFFFFFFFFFFFFF MUL NOT AND SWAP1 DUP4 PUSH20 0xFFFFFFFFFFFFFFFFFFFFFFFFFFFFFFFFFFFFFFFF AND MUL OR SWAP1 SSTORE POP DUP1 PUSH1 0x5 DUP2 SWAP1 SSTORE POP PUSH1 0x0 PUSH1 0x6 PUSH1 0x0 PUSH2 0x100 EXP DUP2 SLOAD DUP2 PUSH1 0xFF MUL NOT AND SWAP1 DUP4 PUSH1 0x3 DUP2 GT ISZERO PUSH3 0x14D JUMPI PUSH3 0x14C PUSH3 0x525 JUMP JUMPDEST JUMPDEST MUL OR SWAP1 SSTORE POP POP POP POP POP POP POP PUSH3 0x5B9 JUMP JUMPDEST DUP3 DUP1 SLOAD PUSH3 0x16C SWAP1 PUSH3 0x583 JUMP JUMPDEST SWAP1 PUSH1 0x0 MSTORE PUSH1 0x20 PUSH1 0x0 KECCAK256 SWAP1 PUSH1 0x1F ADD PUSH1 0x20 SWAP1 DIV DUP2 ADD SWAP3 DUP3 PUSH3 0x190 JUMPI PUSH1 0x0 DUP6 SSTORE PUSH3 0x1DC JUMP JUMPDEST DUP3 PUSH1 0x1F LT PUSH3 0x1AB JUMPI DUP1 MLOAD PUSH1 0xFF NOT AND DUP4 DUP1 ADD OR DUP6 SSTORE PUSH3 0x1DC JUMP JUMPDEST DUP3 DUP1 ADD PUSH1 0x1 ADD DUP6 SSTORE DUP3 ISZERO PUSH3 0x1DC JUMPI SWAP2 DUP3 ADD JUMPDEST DUP3 DUP2 GT ISZERO PUSH3 0x1DB JUMPI DUP3 MLOAD DUP3 SSTORE SWAP2 PUSH1 0x20 ADD SWAP2 SWAP1 PUSH1 0x1 ADD SWAP1 PUSH3 0x1BE JUMP JUMPDEST JUMPDEST POP SWAP1 POP PUSH3 0x1EB SWAP2 SWAP1 PUSH3 0x1EF JUMP JUMPDEST POP SWAP1 JUMP JUMPDEST JUMPDEST DUP1 DUP3 GT ISZERO PUSH3 0x20A JUMPI PUSH1 0x0 DUP2 PUSH1 0x0 SWAP1 SSTORE POP PUSH1 0x1 ADD PUSH3 0x1F0 JUMP JUMPDEST POP SWAP1 JUMP JUMPDEST PUSH1 0x0 PUSH1 0x40 MLOAD SWAP1 POP SWAP1 JUMP JUMPDEST PUSH1 0x0 DUP1 REVERT JUMPDEST PUSH1 0x0 DUP1 REVERT JUMPDEST PUSH1 0x0 PUSH20 0xFFFFFFFFFFFFFFFFFFFFFFFFFFFFFFFFFFFFFFFF DUP3 AND SWAP1 POP SWAP2 SWAP1 POP JUMP JUMPDEST PUSH1 0x0 PUSH3 0x24F DUP3 PUSH3 0x222 JUMP JUMPDEST SWAP1 POP SWAP2 SWAP1 POP JUMP JUMPDEST PUSH3 0x261 DUP2 PUSH3 0x242 JUMP JUMPDEST DUP2 EQ PUSH3 0x26D JUMPI PUSH1 0x0 DUP1 REVERT JUMPDEST POP JUMP JUMPDEST PUSH1 0x0 DUP2 MLOAD SWAP1 POP PUSH3 0x281 DUP2 PUSH3 0x256 JUMP JUMPDEST SWAP3 SWAP2 POP POP JUMP JUMPDEST PUSH1 0x0 DUP1 REVERT JUMPDEST PUSH1 0x0 DUP1 REVERT JUMPDEST PUSH1 0x0 PUSH1 0x1F NOT PUSH1 0x1F DUP4 ADD AND SWAP1 POP SWAP2 SWAP1 POP JUMP JUMPDEST PUSH32 0x4E487B7100000000000000000000000000000000000000000000000000000000 PUSH1 0x0 MSTORE PUSH1 0x41 PUSH1 0x4 MSTORE PUSH1 0x24 PUSH1 0x0 REVERT JUMPDEST PUSH3 0x2DC DUP3 PUSH3 0x291 JUMP JUMPDEST DUP2 ADD DUP2 DUP2 LT PUSH8 0xFFFFFFFFFFFFFFFF DUP3 GT OR ISZERO PUSH3 0x2FE JUMPI PUSH3 0x2FD PUSH3 0x2A2 JUMP JUMPDEST JUMPDEST DUP1 PUSH1 0x40 MSTORE POP POP POP JUMP JUMPDEST PUSH1 0x0 PUSH3 0x313 PUSH3 0x20E JUMP JUMPDEST SWAP1 POP PUSH3 0x321 DUP3 DUP3 PUSH3 0x2D1 JUMP JUMPDEST SWAP2 SWAP1 POP JUMP JUMPDEST PUSH1 0x0 PUSH8 0xFFFFFFFFFFFFFFFF DUP3 GT ISZERO PUSH3 0x344 JUMPI PUSH3 0x343 PUSH3 0x2A2 JUMP JUMPDEST JUMPDEST PUSH3 0x34F DUP3 PUSH3 0x291 JUMP JUMPDEST SWAP1 POP PUSH1 0x20 DUP2 ADD SWAP1 POP SWAP2 SWAP1 POP JUMP JUMPDEST PUSH1 0x0 JUMPDEST DUP4 DUP2 LT ISZERO PUSH3 0x37C JUMPI DUP1 DUP3 ADD MLOAD DUP2 DUP5 ADD MSTORE PUSH1 0x20 DUP2 ADD SWAP1 POP PUSH3 0x35F JUMP JUMPDEST DUP4 DUP2 GT ISZERO PUSH3 0x38C JUMPI PUSH1 0x0 DUP5 DUP5 ADD MSTORE JUMPDEST POP POP POP POP JUMP JUMPDEST PUSH1 0x0 PUSH3 0x3A9 PUSH3 0x3A3 DUP5 PUSH3 0x326 JUMP JUMPDEST PUSH3 0x307 JUMP JUMPDEST SWAP1 POP DUP3 DUP2 MSTORE PUSH1 0x20 DUP2 ADD DUP5 DUP5 DUP5 ADD GT ISZERO PUSH3 0x3C8 JUMPI PUSH3 0x3C7 PUSH3 0x28C JUMP JUMPDEST JUMPDEST PUSH3 0x3D5 DUP5 DUP3 DUP6 PUSH3 0x35C JUMP JUMPDEST POP SWAP4 SWAP3 POP POP POP JUMP JUMPDEST PUSH1 0x0 DUP3 PUSH1 0x1F DUP4 ADD SLT PUSH3 0x3F5 JUMPI PUSH3 0x3F4 PUSH3 0x287 JUMP JUMPDEST JUMPDEST DUP2 MLOAD PUSH3 0x407 DUP5 DUP3 PUSH1 0x20 DUP7 ADD PUSH3 0x392 JUMP JUMPDEST SWAP2 POP POP SWAP3 SWAP2 POP POP JUMP JUMPDEST PUSH1 0x0 DUP2 SWAP1 POP SWAP2 SWAP1 POP JUMP JUMPDEST PUSH3 0x425 DUP2 PUSH3 0x410 JUMP JUMPDEST DUP2 EQ PUSH3 0x431 JUMPI PUSH1 0x0 DUP1 REVERT JUMPDEST POP JUMP JUMPDEST PUSH1 0x0 DUP2 MLOAD SWAP1 POP PUSH3 0x445 DUP2 PUSH3 0x41A JUMP JUMPDEST SWAP3 SWAP2 POP POP JUMP JUMPDEST PUSH1 0x0 DUP1 PUSH1 0x0 DUP1 PUSH1 0x0 DUP1 PUSH1 0xC0 DUP8 DUP10 SUB SLT ISZERO PUSH3 0x46B JUMPI PUSH3 0x46A PUSH3 0x218 JUMP JUMPDEST JUMPDEST PUSH1 0x0 PUSH3 0x47B DUP10 DUP3 DUP11 ADD PUSH3 0x270 JUMP JUMPDEST SWAP7 POP POP PUSH1 0x20 PUSH3 0x48E DUP10 DUP3 DUP11 ADD PUSH3 0x270 JUMP JUMPDEST SWAP6 POP POP PUSH1 0x40 DUP8 ADD MLOAD PUSH8 0xFFFFFFFFFFFFFFFF DUP2 GT ISZERO PUSH3 0x4B2 JUMPI PUSH3 0x4B1 PUSH3 0x21D JUMP JUMPDEST JUMPDEST PUSH3 0x4C0 DUP10 DUP3 DUP11 ADD PUSH3 0x3DD JUMP JUMPDEST SWAP5 POP POP PUSH1 0x60 DUP8 ADD MLOAD PUSH8 0xFFFFFFFFFFFFFFFF DUP2 GT ISZERO PUSH3 0x4E4 JUMPI PUSH3 0x4E3 PUSH3 0x21D JUMP JUMPDEST JUMPDEST PUSH3 0x4F2 DUP10 DUP3 DUP11 ADD PUSH3 0x3DD JUMP JUMPDEST SWAP4 POP POP PUSH1 0x80 PUSH3 0x505 DUP10 DUP3 DUP11 ADD PUSH3 0x270 JUMP JUMPDEST SWAP3 POP POP PUSH1 0xA0 PUSH3 0x518 DUP10 DUP3 DUP11 ADD PUSH3 0x434 JUMP JUMPDEST SWAP2 POP POP SWAP3 SWAP6 POP SWAP3 SWAP6 POP SWAP3 SWAP6 JUMP JUMPDEST PUSH32 0x4E487B7100000000000000000000000000000000000000000000000000000000 PUSH1 0x0 MSTORE PUSH1 0x21 PUSH1 0x4 MSTORE PUSH1 0x24 PUSH1 0x0 REVERT JUMPDEST PUSH32 0x4E487B7100000000000000000000000000000000000000000000000000000000 PUSH1 0x0 MSTORE PUSH1 0x22 PUSH1 0x4 MSTORE PUSH1 0x24 PUSH1 0x0 REVERT JUMPDEST PUSH1 0x0 PUSH1 0x2 DUP3 DIV SWAP1 POP PUSH1 0x1 DUP3 AND DUP1 PUSH3 0x59C JUMPI PUSH1 0x7F DUP3 AND SWAP2 POP JUMPDEST PUSH1 0x20 DUP3 LT DUP2 EQ ISZERO PUSH3 0x5B3 JUMPI PUSH3 0x5B2 PUSH3 0x554 JUMP JUMPDEST JUMPDEST POP SWAP2 SWAP1 POP JUMP JUMPDEST PUSH2 0x106D DUP1 PUSH3 0x5C9 PUSH1 0x0 CODECOPY PUSH1 0x0 RETURN INVALID PUSH1 0x80 PUSH1 0x40 MSTORE PUSH1 0x4 CALLDATASIZE LT PUSH2 0x9C JUMPI PUSH1 0x0 CALLDATALOAD PUSH1 0xE0 SHR DUP1 PUSH4 0x4177FE51 GT PUSH2 0x64 JUMPI DUP1 PUSH4 0x4177FE51 EQ PUSH2 0x157 JUMPI DUP1 PUSH4 0x7284E416 EQ PUSH2 0x182 JUMPI DUP1 PUSH4 0xAA8C217C EQ PUSH2 0x1AD JUMPI DUP1 PUSH4 0xB4FEDC11 EQ PUSH2 0x1D8 JUMPI DUP1 PUSH4 0xD1F0047B EQ PUSH2 0x1E2 JUMPI DUP1 PUSH4 0xF7CC7E4E EQ PUSH2 0x1F9 JUMPI PUSH2 0x9C JUMP JUMPDEST DUP1 PUSH4 0x2D05D3F EQ PUSH2 0xA1 JUMPI DUP1 PUSH4 0x6FDDE03 EQ PUSH2 0xCC JUMPI DUP1 PUSH4 0x200D2ED2 EQ PUSH2 0xF7 JUMPI DUP1 PUSH4 0x2D398FA6 EQ PUSH2 0x122 JUMPI DUP1 PUSH4 0x3B1BEBD1 EQ PUSH2 0x12C JUMPI JUMPDEST PUSH1 0x0 DUP1 REVERT JUMPDEST CALLVALUE DUP1 ISZERO PUSH2 0xAD JUMPI PUSH1 0x0 DUP1 REVERT JUMPDEST POP PUSH2 0xB6 PUSH2 0x210 JUMP JUMPDEST PUSH1 0x40 MLOAD PUSH2 0xC3 SWAP2 SWAP1 PUSH2 0xA62 JUMP JUMPDEST PUSH1 0x40 MLOAD DUP1 SWAP2 SUB SWAP1 RETURN JUMPDEST CALLVALUE DUP1 ISZERO PUSH2 0xD8 JUMPI PUSH1 0x0 DUP1 REVERT JUMPDEST POP PUSH2 0xE1 PUSH2 0x234 JUMP JUMPDEST PUSH1 0x40 MLOAD PUSH2 0xEE SWAP2 SWAP1 PUSH2 0xB16 JUMP JUMPDEST PUSH1 0x40 MLOAD DUP1 SWAP2 SUB SWAP1 RETURN JUMPDEST CALLVALUE DUP1 ISZERO PUSH2 0x103 JUMPI PUSH1 0x0 DUP1 REVERT JUMPDEST POP PUSH2 0x10C PUSH2 0x2C2 JUMP JUMPDEST PUSH1 0x40 MLOAD PUSH2 0x119 SWAP2 SWAP1 PUSH2 0xBAF JUMP JUMPDEST PUSH1 0x40 MLOAD DUP1 SWAP2 SUB SWAP1 RETURN JUMPDEST PUSH2 0x12A PUSH2 0x2D5 JUMP JUMPDEST STOP JUMPDEST CALLVALUE DUP1 ISZERO PUSH2 0x138 JUMPI PUSH1 0x0 DUP1 REVERT JUMPDEST POP PUSH2 0x141 PUSH2 0x505 JUMP JUMPDEST PUSH1 0x40 MLOAD PUSH2 0x14E SWAP2 SWAP1 PUSH2 0xA62 JUMP JUMPDEST PUSH1 0x40 MLOAD DUP1 SWAP2 SUB SWAP1 RETURN JUMPDEST CALLVALUE DUP1 ISZERO PUSH2 0x163 JUMPI PUSH1 0x0 DUP1 REVERT JUMPDEST POP PUSH2 0x16C PUSH2 0x52B JUMP JUMPDEST PUSH1 0x40 MLOAD PUSH2 0x179 SWAP2 SWAP1 PUSH2 0xA62 JUMP JUMPDEST PUSH1 0x40 MLOAD DUP1 SWAP2 SUB SWAP1 RETURN JUMPDEST CALLVALUE DUP1 ISZERO PUSH2 0x18E JUMPI PUSH1 0x0 DUP1 REVERT JUMPDEST POP PUSH2 0x197 PUSH2 0x551 JUMP JUMPDEST PUSH1 0x40 MLOAD PUSH2 0x1A4 SWAP2 SWAP1 PUSH2 0xB16 JUMP JUMPDEST PUSH1 0x40 MLOAD DUP1 SWAP2 SUB SWAP1 RETURN JUMPDEST CALLVALUE DUP1 ISZERO PUSH2 0x1B9 JUMPI PUSH1 0x0 DUP1 REVERT JUMPDEST POP PUSH2 0x1C2 PUSH2 0x5DF JUMP JUMPDEST PUSH1 0x40 MLOAD PUSH2 0x1CF SWAP2 SWAP1 PUSH2 0xBE3 JUMP JUMPDEST PUSH1 0x40 MLOAD DUP1 SWAP2 SUB SWAP1 RETURN JUMPDEST PUSH2 0x1E0 PUSH2 0x5E5 JUMP JUMPDEST STOP JUMPDEST CALLVALUE DUP1 ISZERO PUSH2 0x1EE JUMPI PUSH1 0x0 DUP1 REVERT JUMPDEST POP PUSH2 0x1F7 PUSH2 0x7BD JUMP JUMPDEST STOP JUMPDEST CALLVALUE DUP1 ISZERO PUSH2 0x205 JUMPI PUSH1 0x0 DUP1 REVERT JUMPDEST POP PUSH2 0x20E PUSH2 0x8EE JUMP JUMPDEST STOP JUMPDEST PUSH1 0x0 DUP1 SLOAD SWAP1 PUSH2 0x100 EXP SWAP1 DIV PUSH20 0xFFFFFFFFFFFFFFFFFFFFFFFFFFFFFFFFFFFFFFFF AND DUP2 JUMP JUMPDEST PUSH1 0x2 DUP1 SLOAD PUSH2 0x241 SWAP1 PUSH2 0xC2D JUMP JUMPDEST DUP1 PUSH1 0x1F ADD PUSH1 0x20 DUP1 SWAP2 DIV MUL PUSH1 0x20 ADD PUSH1 0x40 MLOAD SWAP1 DUP2 ADD PUSH1 0x40 MSTORE DUP1 SWAP3 SWAP2 SWAP1 DUP2 DUP2 MSTORE PUSH1 0x20 ADD DUP3 DUP1 SLOAD PUSH2 0x26D SWAP1 PUSH2 0xC2D JUMP JUMPDEST DUP1 ISZERO PUSH2 0x2BA JUMPI DUP1 PUSH1 0x1F LT PUSH2 0x28F JUMPI PUSH2 0x100 DUP1 DUP4 SLOAD DIV MUL DUP4 MSTORE SWAP2 PUSH1 0x20 ADD SWAP2 PUSH2 0x2BA JUMP JUMPDEST DUP3 ADD SWAP2 SWAP1 PUSH1 0x0 MSTORE PUSH1 0x20 PUSH1 0x0 KECCAK256 SWAP1 JUMPDEST DUP2 SLOAD DUP2 MSTORE SWAP1 PUSH1 0x1 ADD SWAP1 PUSH1 0x20 ADD DUP1 DUP4 GT PUSH2 0x29D JUMPI DUP3 SWAP1 SUB PUSH1 0x1F AND DUP3 ADD SWAP2 JUMPDEST POP POP POP POP POP DUP2 JUMP JUMPDEST PUSH1 0x6 PUSH1 0x0 SWAP1 SLOAD SWAP1 PUSH2 0x100 EXP SWAP1 DIV PUSH1 0xFF AND DUP2 JUMP JUMPDEST PUSH1 0x0 PUSH1 0x3 DUP2 GT ISZERO PUSH2 0x2E9 JUMPI PUSH2 0x2E8 PUSH2 0xB38 JUMP JUMPDEST JUMPDEST PUSH1 0x6 PUSH1 0x0 SWAP1 SLOAD SWAP1 PUSH2 0x100 EXP SWAP1 DIV PUSH1 0xFF AND PUSH1 0x3 DUP2 GT ISZERO PUSH2 0x30B JUMPI PUSH2 0x30A PUSH2 0xB38 JUMP JUMPDEST JUMPDEST EQ DUP1 PUSH2 0x34A JUMPI POP PUSH1 0x1 PUSH1 0x3 DUP2 GT ISZERO PUSH2 0x326 JUMPI PUSH2 0x325 PUSH2 0xB38 JUMP JUMPDEST JUMPDEST PUSH1 0x6 PUSH1 0x0 SWAP1 SLOAD SWAP1 PUSH2 0x100 EXP SWAP1 DIV PUSH1 0xFF AND PUSH1 0x3 DUP2 GT ISZERO PUSH2 0x348 JUMPI PUSH2 0x347 PUSH2 0xB38 JUMP JUMPDEST JUMPDEST EQ JUMPDEST PUSH2 0x389 JUMPI PUSH1 0x40 MLOAD PUSH32 0x8C379A000000000000000000000000000000000000000000000000000000000 DUP2 MSTORE PUSH1 0x4 ADD PUSH2 0x380 SWAP1 PUSH2 0xCD1 JUMP JUMPDEST PUSH1 0x40 MLOAD DUP1 SWAP2 SUB SWAP1 REVERT JUMPDEST PUSH1 0x1 PUSH1 0x0 SWAP1 SLOAD SWAP1 PUSH2 0x100 EXP SWAP1 DIV PUSH20 0xFFFFFFFFFFFFFFFFFFFFFFFFFFFFFFFFFFFFFFFF AND PUSH20 0xFFFFFFFFFFFFFFFFFFFFFFFFFFFFFFFFFFFFFFFF AND ORIGIN PUSH20 0xFFFFFFFFFFFFFFFFFFFFFFFFFFFFFFFFFFFFFFFF AND EQ DUP1 PUSH2 0x430 JUMPI POP PUSH1 0x0 DUP1 SLOAD SWAP1 PUSH2 0x100 EXP SWAP1 DIV PUSH20 0xFFFFFFFFFFFFFFFFFFFFFFFFFFFFFFFFFFFFFFFF AND PUSH20 0xFFFFFFFFFFFFFFFFFFFFFFFFFFFFFFFFFFFFFFFF AND ORIGIN PUSH20 0xFFFFFFFFFFFFFFFFFFFFFFFFFFFFFFFFFFFFFFFF AND EQ JUMPDEST PUSH2 0x46F JUMPI PUSH1 0x40 MLOAD PUSH32 0x8C379A000000000000000000000000000000000000000000000000000000000 DUP2 MSTORE PUSH1 0x4 ADD PUSH2 0x466 SWAP1 PUSH2 0xD63 JUMP JUMPDEST PUSH1 0x40 MLOAD DUP1 SWAP2 SUB SWAP1 REVERT JUMPDEST PUSH1 0x4 PUSH1 0x0 SWAP1 SLOAD SWAP1 PUSH2 0x100 EXP SWAP1 DIV PUSH20 0xFFFFFFFFFFFFFFFFFFFFFFFFFFFFFFFFFFFFFFFF AND PUSH20 0xFFFFFFFFFFFFFFFFFFFFFFFFFFFFFFFFFFFFFFFF AND PUSH2 0x8FC SELFBALANCE SWAP1 DUP2 ISZERO MUL SWAP1 PUSH1 0x40 MLOAD PUSH1 0x0 PUSH1 0x40 MLOAD DUP1 DUP4 SUB DUP2 DUP6 DUP9 DUP9 CALL SWAP4 POP POP POP POP ISZERO DUP1 ISZERO PUSH2 0x4D7 JUMPI RETURNDATASIZE PUSH1 0x0 DUP1 RETURNDATACOPY RETURNDATASIZE PUSH1 0x0 REVERT JUMPDEST POP PUSH1 0x3 PUSH1 0x6 PUSH1 0x0 PUSH2 0x100 EXP DUP2 SLOAD DUP2 PUSH1 0xFF MUL NOT AND SWAP1 DUP4 PUSH1 0x3 DUP2 GT ISZERO PUSH2 0x4FE JUMPI PUSH2 0x4FD PUSH2 0xB38 JUMP JUMPDEST JUMPDEST MUL OR SWAP1 SSTORE POP JUMP JUMPDEST PUSH1 0x1 PUSH1 0x0 SWAP1 SLOAD SWAP1 PUSH2 0x100 EXP SWAP1 DIV PUSH20 0xFFFFFFFFFFFFFFFFFFFFFFFFFFFFFFFFFFFFFFFF AND DUP2 JUMP JUMPDEST PUSH1 0x4 PUSH1 0x0 SWAP1 SLOAD SWAP1 PUSH2 0x100 EXP SWAP1 DIV PUSH20 0xFFFFFFFFFFFFFFFFFFFFFFFFFFFFFFFFFFFFFFFF AND DUP2 JUMP JUMPDEST PUSH1 0x3 DUP1 SLOAD PUSH2 0x55E SWAP1 PUSH2 0xC2D JUMP JUMPDEST DUP1 PUSH1 0x1F ADD PUSH1 0x20 DUP1 SWAP2 DIV MUL PUSH1 0x20 ADD PUSH1 0x40 MLOAD SWAP1 DUP2 ADD PUSH1 0x40 MSTORE DUP1 SWAP3 SWAP2 SWAP1 DUP2 DUP2 MSTORE PUSH1 0x20 ADD DUP3 DUP1 SLOAD PUSH2 0x58A SWAP1 PUSH2 0xC2D JUMP JUMPDEST DUP1 ISZERO PUSH2 0x5D7 JUMPI DUP1 PUSH1 0x1F LT PUSH2 0x5AC JUMPI PUSH2 0x100 DUP1 DUP4 SLOAD DIV MUL DUP4 MSTORE SWAP2 PUSH1 0x20 ADD SWAP2 PUSH2 0x5D7 JUMP JUMPDEST DUP3 ADD SWAP2 SWAP1 PUSH1 0x0 MSTORE PUSH1 0x20 PUSH1 0x0 KECCAK256 SWAP1 JUMPDEST DUP2 SLOAD DUP2 MSTORE SWAP1 PUSH1 0x1 ADD SWAP1 PUSH1 0x20 ADD DUP1 DUP4 GT PUSH2 0x5BA JUMPI DUP3 SWAP1 SUB PUSH1 0x1F AND DUP3 ADD SWAP2 JUMPDEST POP POP POP POP POP DUP2 JUMP JUMPDEST PUSH1 0x5 SLOAD DUP2 JUMP JUMPDEST PUSH1 0x0 PUSH1 0x3 DUP2 GT ISZERO PUSH2 0x5F9 JUMPI PUSH2 0x5F8 PUSH2 0xB38 JUMP JUMPDEST JUMPDEST PUSH1 0x6 PUSH1 0x0 SWAP1 SLOAD SWAP1 PUSH2 0x100 EXP SWAP1 DIV PUSH1 0xFF AND PUSH1 0x3 DUP2 GT ISZERO PUSH2 0x61B JUMPI PUSH2 0x61A PUSH2 0xB38 JUMP JUMPDEST JUMPDEST EQ DUP1 PUSH2 0x65A JUMPI POP PUSH1 0x1 PUSH1 0x3 DUP2 GT ISZERO PUSH2 0x636 JUMPI PUSH2 0x635 PUSH2 0xB38 JUMP JUMPDEST JUMPDEST PUSH1 0x6 PUSH1 0x0 SWAP1 SLOAD SWAP1 PUSH2 0x100 EXP SWAP1 DIV PUSH1 0xFF AND PUSH1 0x3 DUP2 GT ISZERO PUSH2 0x658 JUMPI PUSH2 0x657 PUSH2 0xB38 JUMP JUMPDEST JUMPDEST EQ JUMPDEST PUSH2 0x699 JUMPI PUSH1 0x40 MLOAD PUSH32 0x8C379A000000000000000000000000000000000000000000000000000000000 DUP2 MSTORE PUSH1 0x4 ADD PUSH2 0x690 SWAP1 PUSH2 0xCD1 JUMP JUMPDEST PUSH1 0x40 MLOAD DUP1 SWAP2 SUB SWAP1 REVERT JUMPDEST PUSH1 0x1 PUSH1 0x0 SWAP1 SLOAD SWAP1 PUSH2 0x100 EXP SWAP1 DIV PUSH20 0xFFFFFFFFFFFFFFFFFFFFFFFFFFFFFFFFFFFFFFFF AND PUSH20 0xFFFFFFFFFFFFFFFFFFFFFFFFFFFFFFFFFFFFFFFF AND ORIGIN PUSH20 0xFFFFFFFFFFFFFFFFFFFFFFFFFFFFFFFFFFFFFFFF AND EQ PUSH2 0x729 JUMPI PUSH1 0x40 MLOAD PUSH32 0x8C379A000000000000000000000000000000000000000000000000000000000 DUP2 MSTORE PUSH1 0x4 ADD PUSH2 0x720 SWAP1 PUSH2 0xDF5 JUMP JUMPDEST PUSH1 0x40 MLOAD DUP1 SWAP2 SUB SWAP1 REVERT JUMPDEST PUSH1 0x0 DUP1 SLOAD SWAP1 PUSH2 0x100 EXP SWAP1 DIV PUSH20 0xFFFFFFFFFFFFFFFFFFFFFFFFFFFFFFFFFFFFFFFF AND PUSH20 0xFFFFFFFFFFFFFFFFFFFFFFFFFFFFFFFFFFFFFFFF AND PUSH2 0x8FC SELFBALANCE SWAP1 DUP2 ISZERO MUL SWAP1 PUSH1 0x40 MLOAD PUSH1 0x0 PUSH1 0x40 MLOAD DUP1 DUP4 SUB DUP2 DUP6 DUP9 DUP9 CALL SWAP4 POP POP POP POP ISZERO DUP1 ISZERO PUSH2 0x78F JUMPI RETURNDATASIZE PUSH1 0x0 DUP1 RETURNDATACOPY RETURNDATASIZE PUSH1 0x0 REVERT JUMPDEST POP PUSH1 0x2 PUSH1 0x6 PUSH1 0x0 PUSH2 0x100 EXP DUP2 SLOAD DUP2 PUSH1 0xFF MUL NOT AND SWAP1 DUP4 PUSH1 0x3 DUP2 GT ISZERO PUSH2 0x7B6 JUMPI PUSH2 0x7B5 PUSH2 0xB38 JUMP JUMPDEST JUMPDEST MUL OR SWAP1 SSTORE POP JUMP JUMPDEST PUSH1 0x0 PUSH1 0x3 DUP2 GT ISZERO PUSH2 0x7D1 JUMPI PUSH2 0x7D0 PUSH2 0xB38 JUMP JUMPDEST JUMPDEST PUSH1 0x6 PUSH1 0x0 SWAP1 SLOAD SWAP1 PUSH2 0x100 EXP SWAP1 DIV PUSH1 0xFF AND PUSH1 0x3 DUP2 GT ISZERO PUSH2 0x7F3 JUMPI PUSH2 0x7F2 PUSH2 0xB38 JUMP JUMPDEST JUMPDEST EQ PUSH2 0x833 JUMPI PUSH1 0x40 MLOAD PUSH32 0x8C379A000000000000000000000000000000000000000000000000000000000 DUP2 MSTORE PUSH1 0x4 ADD PUSH2 0x82A SWAP1 PUSH2 0xE61 JUMP JUMPDEST PUSH1 0x40 MLOAD DUP1 SWAP2 SUB SWAP1 REVERT JUMPDEST PUSH1 0x0 DUP1 SLOAD SWAP1 PUSH2 0x100 EXP SWAP1 DIV PUSH20 0xFFFFFFFFFFFFFFFFFFFFFFFFFFFFFFFFFFFFFFFF AND PUSH20 0xFFFFFFFFFFFFFFFFFFFFFFFFFFFFFFFFFFFFFFFF AND ORIGIN PUSH20 0xFFFFFFFFFFFFFFFFFFFFFFFFFFFFFFFFFFFFFFFF AND EQ PUSH2 0x8C1 JUMPI PUSH1 0x40 MLOAD PUSH32 0x8C379A000000000000000000000000000000000000000000000000000000000 DUP2 MSTORE PUSH1 0x4 ADD PUSH2 0x8B8 SWAP1 PUSH2 0xEF3 JUMP JUMPDEST PUSH1 0x40 MLOAD DUP1 SWAP2 SUB SWAP1 REVERT JUMPDEST PUSH1 0x1 PUSH1 0x6 PUSH1 0x0 PUSH2 0x100 EXP DUP2 SLOAD DUP2 PUSH1 0xFF MUL NOT AND SWAP1 DUP4 PUSH1 0x3 DUP2 GT ISZERO PUSH2 0x8E7 JUMPI PUSH2 0x8E6 PUSH2 0xB38 JUMP JUMPDEST JUMPDEST MUL OR SWAP1 SSTORE POP JUMP JUMPDEST PUSH1 0x1 PUSH1 0x3 DUP2 GT ISZERO PUSH2 0x902 JUMPI PUSH2 0x901 PUSH2 0xB38 JUMP JUMPDEST JUMPDEST PUSH1 0x6 PUSH1 0x0 SWAP1 SLOAD SWAP1 PUSH2 0x100 EXP SWAP1 DIV PUSH1 0xFF AND PUSH1 0x3 DUP2 GT ISZERO PUSH2 0x924 JUMPI PUSH2 0x923 PUSH2 0xB38 JUMP JUMPDEST JUMPDEST EQ PUSH2 0x964 JUMPI PUSH1 0x40 MLOAD PUSH32 0x8C379A000000000000000000000000000000000000000000000000000000000 DUP2 MSTORE PUSH1 0x4 ADD PUSH2 0x95B SWAP1 PUSH2 0xF85 JUMP JUMPDEST PUSH1 0x40 MLOAD DUP1 SWAP2 SUB SWAP1 REVERT JUMPDEST PUSH1 0x1 PUSH1 0x0 SWAP1 SLOAD SWAP1 PUSH2 0x100 EXP SWAP1 DIV PUSH20 0xFFFFFFFFFFFFFFFFFFFFFFFFFFFFFFFFFFFFFFFF AND PUSH20 0xFFFFFFFFFFFFFFFFFFFFFFFFFFFFFFFFFFFFFFFF AND ORIGIN PUSH20 0xFFFFFFFFFFFFFFFFFFFFFFFFFFFFFFFFFFFFFFFF AND EQ PUSH2 0x9F4 JUMPI PUSH1 0x40 MLOAD PUSH32 0x8C379A000000000000000000000000000000000000000000000000000000000 DUP2 MSTORE PUSH1 0x4 ADD PUSH2 0x9EB SWAP1 PUSH2 0x1017 JUMP JUMPDEST PUSH1 0x40 MLOAD DUP1 SWAP2 SUB SWAP1 REVERT JUMPDEST PUSH1 0x0 PUSH1 0x6 PUSH1 0x0 PUSH2 0x100 EXP DUP2 SLOAD DUP2 PUSH1 0xFF MUL NOT AND SWAP1 DUP4 PUSH1 0x3 DUP2 GT ISZERO PUSH2 0xA1A JUMPI PUSH2 0xA19 PUSH2 0xB38 JUMP JUMPDEST JUMPDEST MUL OR SWAP1 SSTORE POP JUMP JUMPDEST PUSH1 0x0 PUSH20 0xFFFFFFFFFFFFFFFFFFFFFFFFFFFFFFFFFFFFFFFF DUP3 AND SWAP1 POP SWAP2 SWAP1 POP JUMP JUMPDEST PUSH1 0x0 PUSH2 0xA4C DUP3 PUSH2 0xA21 JUMP JUMPDEST SWAP1 POP SWAP2 SWAP1 POP JUMP JUMPDEST PUSH2 0xA5C DUP2 PUSH2 0xA41 JUMP JUMPDEST DUP3 MSTORE POP POP JUMP JUMPDEST PUSH1 0x0 PUSH1 0x20 DUP3 ADD SWAP1 POP PUSH2 0xA77 PUSH1 0x0 DUP4 ADD DUP5 PUSH2 0xA53 JUMP JUMPDEST SWAP3 SWAP2 POP POP JUMP JUMPDEST PUSH1 0x0 DUP2 MLOAD SWAP1 POP SWAP2 SWAP1 POP JUMP JUMPDEST PUSH1 0x0 DUP3 DUP3 MSTORE PUSH1 0x20 DUP3 ADD SWAP1 POP SWAP3 SWAP2 POP POP JUMP JUMPDEST PUSH1 0x0 JUMPDEST DUP4 DUP2 LT ISZERO PUSH2 0xAB7 JUMPI DUP1 DUP3 ADD MLOAD DUP2 DUP5 ADD MSTORE PUSH1 0x20 DUP2 ADD SWAP1 POP PUSH2 0xA9C JUMP JUMPDEST DUP4 DUP2 GT ISZERO PUSH2 0xAC6 JUMPI PUSH1 0x0 DUP5 DUP5 ADD MSTORE JUMPDEST POP POP POP POP JUMP JUMPDEST PUSH1 0x0 PUSH1 0x1F NOT PUSH1 0x1F DUP4 ADD AND SWAP1 POP SWAP2 SWAP1 POP JUMP JUMPDEST PUSH1 0x0 PUSH2 0xAE8 DUP3 PUSH2 0xA7D JUMP JUMPDEST PUSH2 0xAF2 DUP2 DUP6 PUSH2 0xA88 JUMP JUMPDEST SWAP4 POP PUSH2 0xB02 DUP2 DUP6 PUSH1 0x20 DUP7 ADD PUSH2 0xA99 JUMP JUMPDEST PUSH2 0xB0B DUP2 PUSH2 0xACC JUMP JUMPDEST DUP5 ADD SWAP2 POP POP SWAP3 SWAP2 POP POP JUMP JUMPDEST PUSH1 0x0 PUSH1 0x20 DUP3 ADD SWAP1 POP DUP2 DUP2 SUB PUSH1 0x0 DUP4 ADD MSTORE PUSH2 0xB30 DUP2 DUP5 PUSH2 0xADD JUMP JUMPDEST SWAP1 POP SWAP3 SWAP2 POP POP JUMP JUMPDEST PUSH32 0x4E487B7100000000000000000000000000000000000000000000000000000000 PUSH1 0x0 MSTORE PUSH1 0x21 PUSH1 0x4 MSTORE PUSH1 0x24 PUSH1 0x0 REVERT JUMPDEST PUSH1 0x4 DUP2 LT PUSH2 0xB78 JUMPI PUSH2 0xB77 PUSH2 0xB38 JUMP JUMPDEST JUMPDEST POP JUMP JUMPDEST PUSH1 0x0 DUP2 SWAP1 POP PUSH2 0xB89 DUP3 PUSH2 0xB67 JUMP JUMPDEST SWAP2 SWAP1 POP JUMP JUMPDEST PUSH1 0x0 PUSH2 0xB99 DUP3 PUSH2 0xB7B JUMP JUMPDEST SWAP1 POP SWAP2 SWAP1 POP JUMP JUMPDEST PUSH2 0xBA9 DUP2 PUSH2 0xB8E JUMP JUMPDEST DUP3 MSTORE POP POP JUMP JUMPDEST PUSH1 0x0 PUSH1 0x20 DUP3 ADD SWAP1 POP PUSH2 0xBC4 PUSH1 0x0 DUP4 ADD DUP5 PUSH2 0xBA0 JUMP JUMPDEST SWAP3 SWAP2 POP POP JUMP JUMPDEST PUSH1 0x0 DUP2 SWAP1 POP SWAP2 SWAP1 POP JUMP JUMPDEST PUSH2 0xBDD DUP2 PUSH2 0xBCA JUMP JUMPDEST DUP3 MSTORE POP POP JUMP JUMPDEST PUSH1 0x0 PUSH1 0x20 DUP3 ADD SWAP1 POP PUSH2 0xBF8 PUSH1 0x0 DUP4 ADD DUP5 PUSH2 0xBD4 JUMP JUMPDEST SWAP3 SWAP2 POP POP JUMP JUMPDEST PUSH32 0x4E487B7100000000000000000000000000000000000000000000000000000000 PUSH1 0x0 MSTORE PUSH1 0x22 PUSH1 0x4 MSTORE PUSH1 0x24 PUSH1 0x0 REVERT JUMPDEST PUSH1 0x0 PUSH1 0x2 DUP3 DIV SWAP1 POP PUSH1 0x1 DUP3 AND DUP1 PUSH2 0xC45 JUMPI PUSH1 0x7F DUP3 AND SWAP2 POP JUMPDEST PUSH1 0x20 DUP3 LT DUP2 EQ ISZERO PUSH2 0xC59 JUMPI PUSH2 0xC58 PUSH2 0xBFE JUMP JUMPDEST JUMPDEST POP SWAP2 SWAP1 POP JUMP JUMPDEST PUSH32 0x436F6E747261637420737461747573206D757374206265206F70656E206F7220 PUSH1 0x0 DUP3 ADD MSTORE PUSH32 0x6177616974696E6720617070726F76616C000000000000000000000000000000 PUSH1 0x20 DUP3 ADD MSTORE POP JUMP JUMPDEST PUSH1 0x0 PUSH2 0xCBB PUSH1 0x31 DUP4 PUSH2 0xA88 JUMP JUMPDEST SWAP2 POP PUSH2 0xCC6 DUP3 PUSH2 0xC5F JUMP JUMPDEST PUSH1 0x40 DUP3 ADD SWAP1 POP SWAP2 SWAP1 POP JUMP JUMPDEST PUSH1 0x0 PUSH1 0x20 DUP3 ADD SWAP1 POP DUP2 DUP2 SUB PUSH1 0x0 DUP4 ADD MSTORE PUSH2 0xCEA DUP2 PUSH2 0xCAE JUMP JUMPDEST SWAP1 POP SWAP2 SWAP1 POP JUMP JUMPDEST PUSH32 0x4F6E6C792072656665726565206F722063726561746F722063616E206661696C PUSH1 0x0 DUP3 ADD MSTORE PUSH32 0x20636F6E74726163740000000000000000000000000000000000000000000000 PUSH1 0x20 DUP3 ADD MSTORE POP JUMP JUMPDEST PUSH1 0x0 PUSH2 0xD4D PUSH1 0x29 DUP4 PUSH2 0xA88 JUMP JUMPDEST SWAP2 POP PUSH2 0xD58 DUP3 PUSH2 0xCF1 JUMP JUMPDEST PUSH1 0x40 DUP3 ADD SWAP1 POP SWAP2 SWAP1 POP JUMP JUMPDEST PUSH1 0x0 PUSH1 0x20 DUP3 ADD SWAP1 POP DUP2 DUP2 SUB PUSH1 0x0 DUP4 ADD MSTORE PUSH2 0xD7C DUP2 PUSH2 0xD40 JUMP JUMPDEST SWAP1 POP SWAP2 SWAP1 POP JUMP JUMPDEST PUSH32 0x4F6E6C7920726566657265652063616E20636F6D706C657465206120636F6E74 PUSH1 0x0 DUP3 ADD MSTORE PUSH32 0x7261637400000000000000000000000000000000000000000000000000000000 PUSH1 0x20 DUP3 ADD MSTORE POP JUMP JUMPDEST PUSH1 0x0 PUSH2 0xDDF PUSH1 0x24 DUP4 PUSH2 0xA88 JUMP JUMPDEST SWAP2 POP PUSH2 0xDEA DUP3 PUSH2 0xD83 JUMP JUMPDEST PUSH1 0x40 DUP3 ADD SWAP1 POP SWAP2 SWAP1 POP JUMP JUMPDEST PUSH1 0x0 PUSH1 0x20 DUP3 ADD SWAP1 POP DUP2 DUP2 SUB PUSH1 0x0 DUP4 ADD MSTORE PUSH2 0xE0E DUP2 PUSH2 0xDD2 JUMP JUMPDEST SWAP1 POP SWAP2 SWAP1 POP JUMP JUMPDEST PUSH32 0x436F6E747261637420737461747573206D757374206265206F70656E00000000 PUSH1 0x0 DUP3 ADD MSTORE POP JUMP JUMPDEST PUSH1 0x0 PUSH2 0xE4B PUSH1 0x1C DUP4 PUSH2 0xA88 JUMP JUMPDEST SWAP2 POP PUSH2 0xE56 DUP3 PUSH2 0xE15 JUMP JUMPDEST PUSH1 0x20 DUP3 ADD SWAP1 POP SWAP2 SWAP1 POP JUMP JUMPDEST PUSH1 0x0 PUSH1 0x20 DUP3 ADD SWAP1 POP DUP2 DUP2 SUB PUSH1 0x0 DUP4 ADD MSTORE PUSH2 0xE7A DUP2 PUSH2 0xE3E JUMP JUMPDEST SWAP1 POP SWAP2 SWAP1 POP JUMP JUMPDEST PUSH32 0x4F6E6C792063726561746F722063616E206368616E676520617070726F76616C PUSH1 0x0 DUP3 ADD MSTORE PUSH32 0x2073746174757300000000000000000000000000000000000000000000000000 PUSH1 0x20 DUP3 ADD MSTORE POP JUMP JUMPDEST PUSH1 0x0 PUSH2 0xEDD PUSH1 0x27 DUP4 PUSH2 0xA88 JUMP JUMPDEST SWAP2 POP PUSH2 0xEE8 DUP3 PUSH2 0xE81 JUMP JUMPDEST PUSH1 0x40 DUP3 ADD SWAP1 POP SWAP2 SWAP1 POP JUMP JUMPDEST PUSH1 0x0 PUSH1 0x20 DUP3 ADD SWAP1 POP DUP2 DUP2 SUB PUSH1 0x0 DUP4 ADD MSTORE PUSH2 0xF0C DUP2 PUSH2 0xED0 JUMP JUMPDEST SWAP1 POP SWAP2 SWAP1 POP JUMP JUMPDEST PUSH32 0x436F6E747261637420737461747573206D757374206265206177616974696E67 PUSH1 0x0 DUP3 ADD MSTORE PUSH32 0x20617070726F76616C0000000000000000000000000000000000000000000000 PUSH1 0x20 DUP3 ADD MSTORE POP JUMP JUMPDEST PUSH1 0x0 PUSH2 0xF6F PUSH1 0x29 DUP4 PUSH2 0xA88 JUMP JUMPDEST SWAP2 POP PUSH2 0xF7A DUP3 PUSH2 0xF13 JUMP JUMPDEST PUSH1 0x40 DUP3 ADD SWAP1 POP SWAP2 SWAP1 POP JUMP JUMPDEST PUSH1 0x0 PUSH1 0x20 DUP3 ADD SWAP1 POP DUP2 DUP2 SUB PUSH1 0x0 DUP4 ADD MSTORE PUSH2 0xF9E DUP2 PUSH2 0xF62 JUMP JUMPDEST SWAP1 POP SWAP2 SWAP1 POP JUMP JUMPDEST PUSH32 0x4F6E6C7920726566657265652063616E207365742073746174757320746F206F PUSH1 0x0 DUP3 ADD MSTORE PUSH32 0x70656E0000000000000000000000000000000000000000000000000000000000 PUSH1 0x20 DUP3 ADD MSTORE POP JUMP JUMPDEST PUSH1 0x0 PUSH2 0x1001 PUSH1 0x23 DUP4 PUSH2 0xA88 JUMP JUMPDEST SWAP2 POP PUSH2 0x100C DUP3 PUSH2 0xFA5 JUMP JUMPDEST PUSH1 0x40 DUP3 ADD SWAP1 POP SWAP2 SWAP1 POP JUMP JUMPDEST PUSH1 0x0 PUSH1 0x20 DUP3 ADD SWAP1 POP DUP2 DUP2 SUB PUSH1 0x0 DUP4 ADD MSTORE PUSH2 0x1030 DUP2 PUSH2 0xFF4 JUMP JUMPDEST SWAP1 POP SWAP2 SWAP1 POP JUMP INVALID LOG2 PUSH5 0x6970667358 0x22 SLT KECCAK256 EQ STOP SELFBALANCE 0xDD NUMBER JUMPDEST POP 0xAC 0xE3 0xE3 RETURNDATACOPY 0xD8 NUMBER PUSH15 0x86AA952DADFA876FD3C2BFC5E91D8 LOG0 PUSH29 0x5C64736F6C634300080C0033A2646970667358221220B461FB3E9D9E9D REVERT CALL LOG1 NUMBER DUP14 DIFFICULTY 0xCF 0xAD PUSH20 0x87A598D45D9BCF057E9A317A178A372564736F6C PUSH4 0x4300080C STOP CALLER "},"gasEstimates":{"creation":{"codeDepositCost":"4447200","executionCost":"5164","totalCost":"4452364"},"external":{"accountabilityContractAddresses(uint256)":"5046","approveRequest(address)":"infinite","completeOpenAccountabilityContract(address)":"infinite","createAccountabilityContract(address,string,string,address)":"infinite","failOpenAccountabilityContract(address)":"infinite","getAccountabilityContractAddresses(uint256,uint256)":"infinite","getApprovalRequests(address)":"infinite","getClosedAccountabilityContractAddressesForReferee(address)":"infinite","getClosedAccountabilityContractAddressesForUser(address)":"infinite","getOpenAccountabilityContractAddressesForReferee(address)":"infinite","getOpenAccountabilityContractAddressesForUser(address)":"infinite","getUserAddresses(uint256,uint256)":"infinite","numberOfAccountabilityContracts()":"2474","numberOfReferees()":"2473","numberOfUsers()":"2452","refereeAddresses(uint256)":"5068","referees(address)":"2961","rejectRequest(address)":"infinite","requestApproval(address)":"infinite","totalEthInContracts()":"2517","userAddresses(uint256)":"5023","users(address)":"2917"},"internal":{"deleteApprovalRequestForReferee(address,address)":"infinite","getContractIndexForReferee(address,address)":"infinite","getContractIndexForUser(address,address)":"infinite","moveOpenContractToClosedContractsForReferee(address,address)":"infinite","moveOpenContractToClosedContractsForUser(address,address)":"infinite"}},"methodIdentifiers":{"accountabilityContractAddresses(uint256)":"38db44bc","approveRequest(address)":"061dff9a","completeOpenAccountabilityContract(address)":"61542c44","createAccountabilityContract(address,string,string,address)":"e436e826","failOpenAccountabilityContract(address)":"5b259abf","getAccountabilityContractAddresses(uint256,uint256)":"0e865751","getApprovalRequests(address)":"8793ed80","getClosedAccountabilityContractAddressesForReferee(address)":"19ee8bd4","getClosedAccountabilityContractAddressesForUser(address)":"b24e67d0","getOpenAccountabilityContractAddressesForReferee(address)":"9051e234","getOpenAccountabilityContractAddressesForUser(address)":"442a7bc7","getUserAddresses(uint256,uint256)":"a908f4fa","numberOfAccountabilityContracts()":"4841a885","numberOfReferees()":"b3b6633e","numberOfUsers()":"75ce46a7","refereeAddresses(uint256)":"38fb42fd","referees(address)":"64a60b47","rejectRequest(address)":"ca07b4b4","requestApproval(address)":"e10bc834","totalEthInContracts()":"dc0e0c13","userAddresses(uint256)":"502c9bd5","users(address)":"a87430ba"}}}