{"abi":[{"inputs":[{"internalType":"uint256","name":"","type":"uint256"}],"name":"accountabilityContractAddresses","outputs":[{"internalType":"address","name":"","type":"address"}],"stateMutability":"view","type":"function"},{"inputs":[{"internalType":"address","name":"completionRequestContractAddress","type":"address"}],"name":"approveRequestForCompletion","outputs":[],"stateMutability":"nonpayable","type":"function"},{"inputs":[{"internalType":"address","name":"contractAddress","type":"address"}],"name":"completeOpenAccountabilityContract","outputs":[],"stateMutability":"nonpayable","type":"function"},{"inputs":[{"internalType":"address","name":"_referee","type":"address"},{"internalType":"string","name":"_name","type":"string"},{"internalType":"string","name":"_description","type":"string"},{"internalType":"address payable","name":"_failureRecipient","type":"address"}],"name":"createAccountabilityContract","outputs":[],"stateMutability":"payable","type":"function"},{"inputs":[{"internalType":"address","name":"contractAddress","type":"address"}],"name":"failOpenAccountabilityContract","outputs":[],"stateMutability":"nonpayable","type":"function"},{"inputs":[{"internalType":"uint256","name":"startIndex","type":"uint256"},{"internalType":"uint256","name":"endIndex","type":"uint256"}],"name":"getAccountabilityContractAddresses","outputs":[{"internalType":"address[]","name":"","type":"address[]"}],"stateMutability":"view","type":"function"},{"inputs":[{"internalType":"address","name":"referee","type":"address"}],"name":"getClosedAccountabilityContractAddressesForReferee","outputs":[{"internalType":"address[]","name":"","type":"address[]"}],"stateMutability":"view","type":"function"},{"inputs":[{"internalType":"address","name":"user","type":"address"}],"name":"getClosedAccountabilityContractAddressesForUser","outputs":[{"internalType":"address[]","name":"","type":"address[]"}],"stateMutability":"view","type":"function"},{"inputs":[{"internalType":"address","name":"referee","type":"address"}],"name":"getCompleteAccountabilityContractRequestsForReferee","outputs":[{"internalType":"address[]","name":"","type":"address[]"}],"stateMutability":"view","type":"function"},{"inputs":[{"internalType":"address","name":"referee","type":"address"}],"name":"getOpenAccountabilityContractAddressesForReferee","outputs":[{"internalType":"address[]","name":"","type":"address[]"}],"stateMutability":"view","type":"function"},{"inputs":[{"internalType":"address","name":"user","type":"address"}],"name":"getOpenAccountabilityContractAddressesForUser","outputs":[{"internalType":"address[]","name":"","type":"address[]"}],"stateMutability":"view","type":"function"},{"inputs":[{"internalType":"uint256","name":"startIndex","type":"uint256"},{"internalType":"uint256","name":"endIndex","type":"uint256"}],"name":"getUserAddresses","outputs":[{"internalType":"address[]","name":"","type":"address[]"}],"stateMutability":"view","type":"function"},{"inputs":[],"name":"numberOfAccountabilityContracts","outputs":[{"internalType":"uint256","name":"","type":"uint256"}],"stateMutability":"view","type":"function"},{"inputs":[],"name":"numberOfReferees","outputs":[{"internalType":"uint256","name":"","type":"uint256"}],"stateMutability":"view","type":"function"},{"inputs":[],"name":"numberOfUsers","outputs":[{"internalType":"uint256","name":"","type":"uint256"}],"stateMutability":"view","type":"function"},{"inputs":[{"internalType":"uint256","name":"","type":"uint256"}],"name":"refereeAddresses","outputs":[{"internalType":"address","name":"","type":"address"}],"stateMutability":"view","type":"function"},{"inputs":[{"internalType":"address","name":"","type":"address"}],"name":"referees","outputs":[{"internalType":"uint256","name":"managedContracts","type":"uint256"}],"stateMutability":"view","type":"function"},{"inputs":[{"internalType":"address","name":"contractAddress","type":"address"}],"name":"requestRefereeCompletesContract","outputs":[],"stateMutability":"nonpayable","type":"function"},{"inputs":[],"name":"totalEthInContracts","outputs":[{"internalType":"uint256","name":"","type":"uint256"}],"stateMutability":"view","type":"function"},{"inputs":[{"internalType":"uint256","name":"","type":"uint256"}],"name":"userAddresses","outputs":[{"internalType":"address","name":"","type":"address"}],"stateMutability":"view","type":"function"},{"inputs":[{"internalType":"address","name":"","type":"address"}],"name":"users","outputs":[{"internalType":"uint256","name":"createdContracts","type":"uint256"}],"stateMutability":"view","type":"function"}],"evm":{"assembly":"    /* \"Contracts\":57:8592  contract AccountabilityContractFactory {... */\n  mstore(0x40, 0x80)\n  callvalue\n  dup1\n  iszero\n  tag_1\n  jumpi\n  0x00\n  dup1\n  revert\ntag_1:\n  pop\n  dataSize(sub_0)\n  dup1\n  dataOffset(sub_0)\n  0x00\n  codecopy\n  0x00\n  return\nstop\n\nsub_0: assembly {\n        /* \"Contracts\":57:8592  contract AccountabilityContractFactory {... */\n      mstore(0x40, 0x80)\n      jumpi(tag_1, lt(calldatasize, 0x04))\n      shr(0xe0, calldataload(0x00))\n      dup1\n      0x61542c44\n      gt\n      tag_23\n      jumpi\n      dup1\n      0xa87430ba\n      gt\n      tag_24\n      jumpi\n      dup1\n      0xa87430ba\n      eq\n      tag_17\n      jumpi\n      dup1\n      0xa908f4fa\n      eq\n      tag_18\n      jumpi\n      dup1\n      0xb24e67d0\n      eq\n      tag_19\n      jumpi\n      dup1\n      0xb3b6633e\n      eq\n      tag_20\n      jumpi\n      dup1\n      0xdc0e0c13\n      eq\n      tag_21\n      jumpi\n      dup1\n      0xe436e826\n      eq\n      tag_22\n      jumpi\n      jump(tag_1)\n    tag_24:\n      dup1\n      0x61542c44\n      eq\n      tag_12\n      jumpi\n      dup1\n      0x64a60b47\n      eq\n      tag_13\n      jumpi\n      dup1\n      0x75ce46a7\n      eq\n      tag_14\n      jumpi\n      dup1\n      0x7aabe058\n      eq\n      tag_15\n      jumpi\n      dup1\n      0x9051e234\n      eq\n      tag_16\n      jumpi\n      jump(tag_1)\n    tag_23:\n      dup1\n      0x442a7bc7\n      gt\n      tag_25\n      jumpi\n      dup1\n      0x442a7bc7\n      eq\n      tag_7\n      jumpi\n      dup1\n      0x4841a885\n      eq\n      tag_8\n      jumpi\n      dup1\n      0x4ea34671\n      eq\n      tag_9\n      jumpi\n      dup1\n      0x502c9bd5\n      eq\n      tag_10\n      jumpi\n      dup1\n      0x5b259abf\n      eq\n      tag_11\n      jumpi\n      jump(tag_1)\n    tag_25:\n      dup1\n      0x0e865751\n      eq\n      tag_2\n      jumpi\n      dup1\n      0x19ee8bd4\n      eq\n      tag_3\n      jumpi\n      dup1\n      0x20d08884\n      eq\n      tag_4\n      jumpi\n      dup1\n      0x38db44bc\n      eq\n      tag_5\n      jumpi\n      dup1\n      0x38fb42fd\n      eq\n      tag_6\n      jumpi\n    tag_1:\n      0x00\n      dup1\n      revert\n        /* \"Contracts\":7987:8590  function getAccountabilityContractAddresses(uint startIndex, uint endIndex) public view returns (address[] memory) {... */\n    tag_2:\n      callvalue\n      dup1\n      iszero\n      tag_26\n      jumpi\n      0x00\n      dup1\n      revert\n    tag_26:\n      pop\n      tag_27\n      0x04\n      dup1\n      calldatasize\n      sub\n      dup2\n      add\n      swap1\n      tag_28\n      swap2\n      swap1\n      tag_29\n      jump\t// in\n    tag_28:\n      tag_30\n      jump\t// in\n    tag_27:\n      mload(0x40)\n      tag_31\n      swap2\n      swap1\n      tag_32\n      jump\t// in\n    tag_31:\n      mload(0x40)\n      dup1\n      swap2\n      sub\n      swap1\n      return\n        /* \"Contracts\":2439:2633  function getClosedAccountabilityContractAddressesForReferee(address referee) public view returns (address[] memory){... */\n    tag_3:\n      callvalue\n      dup1\n      iszero\n      tag_33\n      jumpi\n      0x00\n      dup1\n      revert\n    tag_33:\n      pop\n      tag_34\n      0x04\n      dup1\n      calldatasize\n      sub\n      dup2\n      add\n      swap1\n      tag_35\n      swap2\n      swap1\n      tag_36\n      jump\t// in\n    tag_35:\n      tag_37\n      jump\t// in\n    tag_34:\n      mload(0x40)\n      tag_38\n      swap2\n      swap1\n      tag_32\n      jump\t// in\n    tag_38:\n      mload(0x40)\n      dup1\n      swap2\n      sub\n      swap1\n      return\n        /* \"Contracts\":4388:5207  function approveRequestForCompletion(address completionRequestContractAddress) public {... */\n    tag_4:\n      callvalue\n      dup1\n      iszero\n      tag_39\n      jumpi\n      0x00\n      dup1\n      revert\n    tag_39:\n      pop\n      tag_40\n      0x04\n      dup1\n      calldatasize\n      sub\n      dup2\n      add\n      swap1\n      tag_41\n      swap2\n      swap1\n      tag_36\n      jump\t// in\n    tag_41:\n      tag_42\n      jump\t// in\n    tag_40:\n      stop\n        /* \"Contracts\":204:252  address[] public accountabilityContractAddresses */\n    tag_5:\n      callvalue\n      dup1\n      iszero\n      tag_43\n      jumpi\n      0x00\n      dup1\n      revert\n    tag_43:\n      pop\n      tag_44\n      0x04\n      dup1\n      calldatasize\n      sub\n      dup2\n      add\n      swap1\n      tag_45\n      swap2\n      swap1\n      tag_46\n      jump\t// in\n    tag_45:\n      tag_47\n      jump\t// in\n    tag_44:\n      mload(0x40)\n      tag_48\n      swap2\n      swap1\n      tag_49\n      jump\t// in\n    tag_48:\n      mload(0x40)\n      dup1\n      swap2\n      sub\n      swap1\n      return\n        /* \"Contracts\":417:450  address[] public refereeAddresses */\n    tag_6:\n      callvalue\n      dup1\n      iszero\n      tag_50\n      jumpi\n      0x00\n      dup1\n      revert\n    tag_50:\n      pop\n      tag_51\n      0x04\n      dup1\n      calldatasize\n      sub\n      dup2\n      add\n      swap1\n      tag_52\n      swap2\n      swap1\n      tag_46\n      jump\t// in\n    tag_52:\n      tag_53\n      jump\t// in\n    tag_51:\n      mload(0x40)\n      tag_54\n      swap2\n      swap1\n      tag_49\n      jump\t// in\n    tag_54:\n      mload(0x40)\n      dup1\n      swap2\n      sub\n      swap1\n      return\n        /* \"Contracts\":1871:2049  function getOpenAccountabilityContractAddressesForUser(address user) public view returns (address[] memory){... */\n    tag_7:\n      callvalue\n      dup1\n      iszero\n      tag_55\n      jumpi\n      0x00\n      dup1\n      revert\n    tag_55:\n      pop\n      tag_56\n      0x04\n      dup1\n      calldatasize\n      sub\n      dup2\n      add\n      swap1\n      tag_57\n      swap2\n      swap1\n      tag_36\n      jump\t// in\n    tag_57:\n      tag_58\n      jump\t// in\n    tag_56:\n      mload(0x40)\n      tag_59\n      swap2\n      swap1\n      tag_32\n      jump\t// in\n    tag_59:\n      mload(0x40)\n      dup1\n      swap2\n      sub\n      swap1\n      return\n        /* \"Contracts\":256:299  uint public numberOfAccountabilityContracts */\n    tag_8:\n      callvalue\n      dup1\n      iszero\n      tag_60\n      jumpi\n      0x00\n      dup1\n      revert\n    tag_60:\n      pop\n      tag_61\n      tag_62\n      jump\t// in\n    tag_61:\n      mload(0x40)\n      tag_63\n      swap2\n      swap1\n      tag_64\n      jump\t// in\n    tag_63:\n      mload(0x40)\n      dup1\n      swap2\n      sub\n      swap1\n      return\n        /* \"Contracts\":2639:2844  function getCompleteAccountabilityContractRequestsForReferee(address referee) public view returns (address[] memory){... */\n    tag_9:\n      callvalue\n      dup1\n      iszero\n      tag_65\n      jumpi\n      0x00\n      dup1\n      revert\n    tag_65:\n      pop\n      tag_66\n      0x04\n      dup1\n      calldatasize\n      sub\n      dup2\n      add\n      swap1\n      tag_67\n      swap2\n      swap1\n      tag_36\n      jump\t// in\n    tag_67:\n      tag_68\n      jump\t// in\n    tag_66:\n      mload(0x40)\n      tag_69\n      swap2\n      swap1\n      tag_32\n      jump\t// in\n    tag_69:\n      mload(0x40)\n      dup1\n      swap2\n      sub\n      swap1\n      return\n        /* \"Contracts\":141:171  address[] public userAddresses */\n    tag_10:\n      callvalue\n      dup1\n      iszero\n      tag_70\n      jumpi\n      0x00\n      dup1\n      revert\n    tag_70:\n      pop\n      tag_71\n      0x04\n      dup1\n      calldatasize\n      sub\n      dup2\n      add\n      swap1\n      tag_72\n      swap2\n      swap1\n      tag_46\n      jump\t// in\n    tag_72:\n      tag_73\n      jump\t// in\n    tag_71:\n      mload(0x40)\n      tag_74\n      swap2\n      swap1\n      tag_49\n      jump\t// in\n    tag_74:\n      mload(0x40)\n      dup1\n      swap2\n      sub\n      swap1\n      return\n        /* \"Contracts\":2850:3269  function failOpenAccountabilityContract(address contractAddress) public {... */\n    tag_11:\n      callvalue\n      dup1\n      iszero\n      tag_75\n      jumpi\n      0x00\n      dup1\n      revert\n    tag_75:\n      pop\n      tag_76\n      0x04\n      dup1\n      calldatasize\n      sub\n      dup2\n      add\n      swap1\n      tag_77\n      swap2\n      swap1\n      tag_36\n      jump\t// in\n    tag_77:\n      tag_78\n      jump\t// in\n    tag_76:\n      stop\n        /* \"Contracts\":3275:3703  function completeOpenAccountabilityContract(address contractAddress) public {... */\n    tag_12:\n      callvalue\n      dup1\n      iszero\n      tag_79\n      jumpi\n      0x00\n      dup1\n      revert\n    tag_79:\n      pop\n      tag_80\n      0x04\n      dup1\n      calldatasize\n      sub\n      dup2\n      add\n      swap1\n      tag_81\n      swap2\n      swap1\n      tag_36\n      jump\t// in\n    tag_81:\n      tag_82\n      jump\t// in\n    tag_80:\n      stop\n        /* \"Contracts\":338:381  mapping(address => Referee) public referees */\n    tag_13:\n      callvalue\n      dup1\n      iszero\n      tag_83\n      jumpi\n      0x00\n      dup1\n      revert\n    tag_83:\n      pop\n      tag_84\n      0x04\n      dup1\n      calldatasize\n      sub\n      dup2\n      add\n      swap1\n      tag_85\n      swap2\n      swap1\n      tag_36\n      jump\t// in\n    tag_85:\n      tag_86\n      jump\t// in\n    tag_84:\n      mload(0x40)\n      tag_87\n      swap2\n      swap1\n      tag_64\n      jump\t// in\n    tag_87:\n      mload(0x40)\n      dup1\n      swap2\n      sub\n      swap1\n      return\n        /* \"Contracts\":175:200  uint public numberOfUsers */\n    tag_14:\n      callvalue\n      dup1\n      iszero\n      tag_88\n      jumpi\n      0x00\n      dup1\n      revert\n    tag_88:\n      pop\n      tag_89\n      tag_90\n      jump\t// in\n    tag_89:\n      mload(0x40)\n      tag_91\n      swap2\n      swap1\n      tag_64\n      jump\t// in\n    tag_91:\n      mload(0x40)\n      dup1\n      swap2\n      sub\n      swap1\n      return\n        /* \"Contracts\":3709:4382  function requestRefereeCompletesContract(address contractAddress) public {... */\n    tag_15:\n      callvalue\n      dup1\n      iszero\n      tag_92\n      jumpi\n      0x00\n      dup1\n      revert\n    tag_92:\n      pop\n      tag_93\n      0x04\n      dup1\n      calldatasize\n      sub\n      dup2\n      add\n      swap1\n      tag_94\n      swap2\n      swap1\n      tag_36\n      jump\t// in\n    tag_94:\n      tag_95\n      jump\t// in\n    tag_93:\n      stop\n        /* \"Contracts\":2243:2433  function getOpenAccountabilityContractAddressesForReferee(address referee) public view returns (address[] memory){... */\n    tag_16:\n      callvalue\n      dup1\n      iszero\n      tag_96\n      jumpi\n      0x00\n      dup1\n      revert\n    tag_96:\n      pop\n      tag_97\n      0x04\n      dup1\n      calldatasize\n      sub\n      dup2\n      add\n      swap1\n      tag_98\n      swap2\n      swap1\n      tag_36\n      jump\t// in\n    tag_98:\n      tag_99\n      jump\t// in\n    tag_97:\n      mload(0x40)\n      tag_100\n      swap2\n      swap1\n      tag_32\n      jump\t// in\n    tag_100:\n      mload(0x40)\n      dup1\n      swap2\n      sub\n      swap1\n      return\n        /* \"Contracts\":100:137  mapping(address => User) public users */\n    tag_17:\n      callvalue\n      dup1\n      iszero\n      tag_101\n      jumpi\n      0x00\n      dup1\n      revert\n    tag_101:\n      pop\n      tag_102\n      0x04\n      dup1\n      calldatasize\n      sub\n      dup2\n      add\n      swap1\n      tag_103\n      swap2\n      swap1\n      tag_36\n      jump\t// in\n    tag_103:\n      tag_104\n      jump\t// in\n    tag_102:\n      mload(0x40)\n      tag_105\n      swap2\n      swap1\n      tag_64\n      jump\t// in\n    tag_105:\n      mload(0x40)\n      dup1\n      swap2\n      sub\n      swap1\n      return\n        /* \"Contracts\":7486:7981  function getUserAddresses(uint startIndex, uint endIndex) public view returns (address[] memory) {... */\n    tag_18:\n      callvalue\n      dup1\n      iszero\n      tag_106\n      jumpi\n      0x00\n      dup1\n      revert\n    tag_106:\n      pop\n      tag_107\n      0x04\n      dup1\n      calldatasize\n      sub\n      dup2\n      add\n      swap1\n      tag_108\n      swap2\n      swap1\n      tag_29\n      jump\t// in\n    tag_108:\n      tag_109\n      jump\t// in\n    tag_107:\n      mload(0x40)\n      tag_110\n      swap2\n      swap1\n      tag_32\n      jump\t// in\n    tag_110:\n      mload(0x40)\n      dup1\n      swap2\n      sub\n      swap1\n      return\n        /* \"Contracts\":2055:2237  function getClosedAccountabilityContractAddressesForUser(address user) public view returns (address[] memory){... */\n    tag_19:\n      callvalue\n      dup1\n      iszero\n      tag_111\n      jumpi\n      0x00\n      dup1\n      revert\n    tag_111:\n      pop\n      tag_112\n      0x04\n      dup1\n      calldatasize\n      sub\n      dup2\n      add\n      swap1\n      tag_113\n      swap2\n      swap1\n      tag_36\n      jump\t// in\n    tag_113:\n      tag_114\n      jump\t// in\n    tag_112:\n      mload(0x40)\n      tag_115\n      swap2\n      swap1\n      tag_32\n      jump\t// in\n    tag_115:\n      mload(0x40)\n      dup1\n      swap2\n      sub\n      swap1\n      return\n        /* \"Contracts\":385:413  uint public numberOfReferees */\n    tag_20:\n      callvalue\n      dup1\n      iszero\n      tag_116\n      jumpi\n      0x00\n      dup1\n      revert\n    tag_116:\n      pop\n      tag_117\n      tag_118\n      jump\t// in\n    tag_117:\n      mload(0x40)\n      tag_119\n      swap2\n      swap1\n      tag_64\n      jump\t// in\n    tag_119:\n      mload(0x40)\n      dup1\n      swap2\n      sub\n      swap1\n      return\n        /* \"Contracts\":303:334  uint public totalEthInContracts */\n    tag_21:\n      callvalue\n      dup1\n      iszero\n      tag_120\n      jumpi\n      0x00\n      dup1\n      revert\n    tag_120:\n      pop\n      tag_121\n      tag_122\n      jump\t// in\n    tag_121:\n      mload(0x40)\n      tag_123\n      swap2\n      swap1\n      tag_64\n      jump\t// in\n    tag_123:\n      mload(0x40)\n      dup1\n      swap2\n      sub\n      swap1\n      return\n        /* \"Contracts\":835:1865  function createAccountabilityContract(address _referee, string memory _name, string memory _description, address payable _failureRecipient) public payable {... */\n    tag_22:\n      tag_124\n      0x04\n      dup1\n      calldatasize\n      sub\n      dup2\n      add\n      swap1\n      tag_125\n      swap2\n      swap1\n      tag_126\n      jump\t// in\n    tag_125:\n      tag_127\n      jump\t// in\n    tag_124:\n      stop\n        /* \"Contracts\":7987:8590  function getAccountabilityContractAddresses(uint startIndex, uint endIndex) public view returns (address[] memory) {... */\n    tag_30:\n        /* \"Contracts\":8084:8100  address[] memory */\n      0x60\n        /* \"Contracts\":8133:8134  0 */\n      0x00\n        /* \"Contracts\":8119:8129  startIndex */\n      dup4\n        /* \"Contracts\":8119:8134  startIndex >= 0 */\n      lt\n      iszero\n        /* \"Contracts\":8111:8169  require(startIndex >= 0, \"Start index cannot be negative\") */\n      tag_129\n      jumpi\n      mload(0x40)\n      0x08c379a000000000000000000000000000000000000000000000000000000000\n      dup2\n      mstore\n      0x04\n      add\n      tag_130\n      swap1\n      tag_131\n      jump\t// in\n    tag_130:\n      mload(0x40)\n      dup1\n      swap2\n      sub\n      swap1\n      revert\n    tag_129:\n        /* \"Contracts\":8198:8229  accountabilityContractAddresses */\n      0x03\n        /* \"Contracts\":8198:8236  accountabilityContractAddresses.length */\n      dup1\n      sload\n      swap1\n      pop\n        /* \"Contracts\":8186:8194  endIndex */\n      dup3\n        /* \"Contracts\":8186:8236  endIndex <= accountabilityContractAddresses.length */\n      gt\n      iszero\n        /* \"Contracts\":8178:8280  require(endIndex <= accountabilityContractAddresses.length, \"End index exceeds user addresses length\") */\n      tag_132\n      jumpi\n      mload(0x40)\n      0x08c379a000000000000000000000000000000000000000000000000000000000\n      dup2\n      mstore\n      0x04\n      add\n      tag_133\n      swap1\n      tag_134\n      jump\t// in\n    tag_133:\n      mload(0x40)\n      dup1\n      swap2\n      sub\n      swap1\n      revert\n    tag_132:\n        /* \"Contracts\":8289:8343  address[] memory slicedAccountabilityContractAddresses */\n      0x00\n        /* \"Contracts\":8369:8379  startIndex */\n      dup4\n        /* \"Contracts\":8360:8368  endIndex */\n      dup4\n        /* \"Contracts\":8360:8379  endIndex-startIndex */\n      tag_135\n      swap2\n      swap1\n      tag_136\n      jump\t// in\n    tag_135:\n        /* \"Contracts\":8346:8380  new address[](endIndex-startIndex) */\n      0xffffffffffffffff\n      dup2\n      gt\n      iszero\n      tag_137\n      jumpi\n      tag_138\n      tag_139\n      jump\t// in\n    tag_138:\n    tag_137:\n      mload(0x40)\n      swap1\n      dup1\n      dup3\n      mstore\n      dup1\n      0x20\n      mul\n      0x20\n      add\n      dup3\n      add\n      0x40\n      mstore\n      dup1\n      iszero\n      tag_140\n      jumpi\n      dup2\n      0x20\n      add\n      0x20\n      dup3\n      mul\n      dup1\n      calldatasize\n      dup4\n      calldatacopy\n      dup1\n      dup3\n      add\n      swap2\n      pop\n      pop\n      swap1\n      pop\n    tag_140:\n      pop\n        /* \"Contracts\":8289:8380  address[] memory slicedAccountabilityContractAddresses = new address[](endIndex-startIndex) */\n      swap1\n      pop\n        /* \"Contracts\":8393:8399  uint i */\n      0x00\n        /* \"Contracts\":8400:8410  startIndex */\n      dup5\n        /* \"Contracts\":8393:8410  uint i=startIndex */\n      swap1\n      pop\n        /* \"Contracts\":8389:8530  for(uint i=startIndex; i<endIndex; i++){... */\n    tag_141:\n        /* \"Contracts\":8414:8422  endIndex */\n      dup4\n        /* \"Contracts\":8412:8413  i */\n      dup2\n        /* \"Contracts\":8412:8422  i<endIndex */\n      lt\n        /* \"Contracts\":8389:8530  for(uint i=startIndex; i<endIndex; i++){... */\n      iszero\n      tag_142\n      jumpi\n        /* \"Contracts\":8485:8516  accountabilityContractAddresses */\n      0x03\n        /* \"Contracts\":8517:8518  i */\n      dup2\n        /* \"Contracts\":8485:8519  accountabilityContractAddresses[i] */\n      dup2\n      sload\n      dup2\n      lt\n      tag_144\n      jumpi\n      tag_145\n      tag_146\n      jump\t// in\n    tag_145:\n    tag_144:\n      swap1\n      0x00\n      mstore\n      keccak256(0x00, 0x20)\n      add\n      0x00\n      swap1\n      sload\n      swap1\n      0x0100\n      exp\n      swap1\n      div\n      0xffffffffffffffffffffffffffffffffffffffff\n      and\n        /* \"Contracts\":8442:8479  slicedAccountabilityContractAddresses */\n      dup3\n        /* \"Contracts\":8480:8481  i */\n      dup3\n        /* \"Contracts\":8442:8482  slicedAccountabilityContractAddresses[i] */\n      dup2\n      mload\n      dup2\n      lt\n      tag_148\n      jumpi\n      tag_149\n      tag_146\n      jump\t// in\n    tag_149:\n    tag_148:\n      0x20\n      mul\n      0x20\n      add\n      add\n        /* \"Contracts\":8442:8519  slicedAccountabilityContractAddresses[i] = accountabilityContractAddresses[i] */\n      swap1\n      0xffffffffffffffffffffffffffffffffffffffff\n      and\n      swap1\n      dup2\n      0xffffffffffffffffffffffffffffffffffffffff\n      and\n      dup2\n      mstore\n      pop\n      pop\n        /* \"Contracts\":8424:8427  i++ */\n      dup1\n      dup1\n      tag_150\n      swap1\n      tag_151\n      jump\t// in\n    tag_150:\n      swap2\n      pop\n      pop\n        /* \"Contracts\":8389:8530  for(uint i=startIndex; i<endIndex; i++){... */\n      jump(tag_141)\n    tag_142:\n      pop\n        /* \"Contracts\":8546:8583  slicedAccountabilityContractAddresses */\n      dup1\n        /* \"Contracts\":8539:8583  return slicedAccountabilityContractAddresses */\n      swap2\n      pop\n      pop\n        /* \"Contracts\":7987:8590  function getAccountabilityContractAddresses(uint startIndex, uint endIndex) public view returns (address[] memory) {... */\n      swap3\n      swap2\n      pop\n      pop\n      jump\t// out\n        /* \"Contracts\":2439:2633  function getClosedAccountabilityContractAddressesForReferee(address referee) public view returns (address[] memory){... */\n    tag_37:\n        /* \"Contracts\":2537:2553  address[] memory */\n      0x60\n        /* \"Contracts\":2571:2579  referees */\n      0x06\n        /* \"Contracts\":2571:2588  referees[referee] */\n      0x00\n        /* \"Contracts\":2580:2587  referee */\n      dup4\n        /* \"Contracts\":2571:2588  referees[referee] */\n      0xffffffffffffffffffffffffffffffffffffffff\n      and\n      0xffffffffffffffffffffffffffffffffffffffff\n      and\n      dup2\n      mstore\n      0x20\n      add\n      swap1\n      dup2\n      mstore\n      0x20\n      add\n      0x00\n      keccak256\n        /* \"Contracts\":2571:2626  referees[referee].closedAccountabilityContractAddresses */\n      0x02\n      add\n        /* \"Contracts\":2564:2626  return referees[referee].closedAccountabilityContractAddresses */\n      dup1\n      sload\n      dup1\n      0x20\n      mul\n      0x20\n      add\n      mload(0x40)\n      swap1\n      dup2\n      add\n      0x40\n      mstore\n      dup1\n      swap3\n      swap2\n      swap1\n      dup2\n      dup2\n      mstore\n      0x20\n      add\n      dup3\n      dup1\n      sload\n      dup1\n      iszero\n      tag_153\n      jumpi\n      0x20\n      mul\n      dup3\n      add\n      swap2\n      swap1\n      0x00\n      mstore\n      keccak256(0x00, 0x20)\n      swap1\n    tag_154:\n      dup2\n      0x00\n      swap1\n      sload\n      swap1\n      0x0100\n      exp\n      swap1\n      div\n      0xffffffffffffffffffffffffffffffffffffffff\n      and\n      0xffffffffffffffffffffffffffffffffffffffff\n      and\n      dup2\n      mstore\n      0x20\n      add\n      swap1\n      0x01\n      add\n      swap1\n      dup1\n      dup4\n      gt\n      tag_154\n      jumpi\n    tag_153:\n      pop\n      pop\n      pop\n      pop\n      pop\n      swap1\n      pop\n        /* \"Contracts\":2439:2633  function getClosedAccountabilityContractAddressesForReferee(address referee) public view returns (address[] memory){... */\n      swap2\n      swap1\n      pop\n      jump\t// out\n        /* \"Contracts\":4388:5207  function approveRequestForCompletion(address completionRequestContractAddress) public {... */\n    tag_42:\n        /* \"Contracts\":4484:4537  AccountabilityContractApprovalRequest approvalRequest */\n      0x00\n        /* \"Contracts\":4578:4610  completionRequestContractAddress */\n      dup2\n        /* \"Contracts\":4484:4611  AccountabilityContractApprovalRequest approvalRequest = AccountabilityContractApprovalRequest(completionRequestContractAddress) */\n      swap1\n      pop\n        /* \"Contracts\":4621:4666  AccountabilityContract accountabilityContract */\n      0x00\n        /* \"Contracts\":4692:4707  approvalRequest */\n      dup2\n        /* \"Contracts\":4692:4737  approvalRequest.accountabilityContractAddress */\n      0xffffffffffffffffffffffffffffffffffffffff\n      and\n      0x3c490174\n        /* \"Contracts\":4692:4739  approvalRequest.accountabilityContractAddress() */\n      mload(0x40)\n      dup2\n      0xffffffff\n      and\n      0xe0\n      shl\n      dup2\n      mstore\n      0x04\n      add\n      0x20\n      mload(0x40)\n      dup1\n      dup4\n      sub\n      dup2\n      dup7\n      gas\n      staticcall\n      iszero\n      dup1\n      iszero\n      tag_157\n      jumpi\n      returndatasize\n      0x00\n      dup1\n      returndatacopy\n      revert(0x00, returndatasize)\n    tag_157:\n      pop\n      pop\n      pop\n      pop\n      mload(0x40)\n      returndatasize\n      not(0x1f)\n      0x1f\n      dup3\n      add\n      and\n      dup3\n      add\n      dup1\n      0x40\n      mstore\n      pop\n      dup2\n      add\n      swap1\n      tag_158\n      swap2\n      swap1\n      tag_159\n      jump\t// in\n    tag_158:\n        /* \"Contracts\":4621:4740  AccountabilityContract accountabilityContract = AccountabilityContract(approvalRequest.accountabilityContractAddress()) */\n      swap1\n      pop\n        /* \"Contracts\":4794:4809  approvalRequest */\n      dup2\n        /* \"Contracts\":4794:4817  approvalRequest.referee */\n      0xffffffffffffffffffffffffffffffffffffffff\n      and\n      0x3b1bebd1\n        /* \"Contracts\":4794:4819  approvalRequest.referee() */\n      mload(0x40)\n      dup2\n      0xffffffff\n      and\n      0xe0\n      shl\n      dup2\n      mstore\n      0x04\n      add\n      0x20\n      mload(0x40)\n      dup1\n      dup4\n      sub\n      dup2\n      dup7\n      gas\n      staticcall\n      iszero\n      dup1\n      iszero\n      tag_161\n      jumpi\n      returndatasize\n      0x00\n      dup1\n      returndatacopy\n      revert(0x00, returndatasize)\n    tag_161:\n      pop\n      pop\n      pop\n      pop\n      mload(0x40)\n      returndatasize\n      not(0x1f)\n      0x1f\n      dup3\n      add\n      and\n      dup3\n      add\n      dup1\n      0x40\n      mstore\n      pop\n      dup2\n      add\n      swap1\n      tag_162\n      swap2\n      swap1\n      tag_159\n      jump\t// in\n    tag_162:\n        /* \"Contracts\":4758:4819  accountabilityContract.referee() == approvalRequest.referee() */\n      0xffffffffffffffffffffffffffffffffffffffff\n      and\n        /* \"Contracts\":4758:4780  accountabilityContract */\n      dup2\n        /* \"Contracts\":4758:4788  accountabilityContract.referee */\n      0xffffffffffffffffffffffffffffffffffffffff\n      and\n      0x3b1bebd1\n        /* \"Contracts\":4758:4790  accountabilityContract.referee() */\n      mload(0x40)\n      dup2\n      0xffffffff\n      and\n      0xe0\n      shl\n      dup2\n      mstore\n      0x04\n      add\n      0x20\n      mload(0x40)\n      dup1\n      dup4\n      sub\n      dup2\n      dup7\n      gas\n      staticcall\n      iszero\n      dup1\n      iszero\n      tag_164\n      jumpi\n      returndatasize\n      0x00\n      dup1\n      returndatacopy\n      revert(0x00, returndatasize)\n    tag_164:\n      pop\n      pop\n      pop\n      pop\n      mload(0x40)\n      returndatasize\n      not(0x1f)\n      0x1f\n      dup3\n      add\n      and\n      dup3\n      add\n      dup1\n      0x40\n      mstore\n      pop\n      dup2\n      add\n      swap1\n      tag_165\n      swap2\n      swap1\n      tag_159\n      jump\t// in\n    tag_165:\n        /* \"Contracts\":4758:4819  accountabilityContract.referee() == approvalRequest.referee() */\n      0xffffffffffffffffffffffffffffffffffffffff\n      and\n      eq\n        /* \"Contracts\":4750:4880  require(accountabilityContract.referee() == approvalRequest.referee(), \"Only contract referee can approve request for completion\") */\n      tag_166\n      jumpi\n      mload(0x40)\n      0x08c379a000000000000000000000000000000000000000000000000000000000\n      dup2\n      mstore\n      0x04\n      add\n      tag_167\n      swap1\n      tag_168\n      jump\t// in\n    tag_167:\n      mload(0x40)\n      dup1\n      swap2\n      sub\n      swap1\n      revert\n    tag_166:\n        /* \"Contracts\":4890:4912  accountabilityContract */\n      dup1\n        /* \"Contracts\":4890:4929  accountabilityContract.completeContract */\n      0xffffffffffffffffffffffffffffffffffffffff\n      and\n      0xb4fedc11\n        /* \"Contracts\":4890:4931  accountabilityContract.completeContract() */\n      mload(0x40)\n      dup2\n      0xffffffff\n      and\n      0xe0\n      shl\n      dup2\n      mstore\n      0x04\n      add\n      0x20\n      mload(0x40)\n      dup1\n      dup4\n      sub\n      dup2\n      0x00\n      dup8\n      gas\n      call\n      iszero\n      dup1\n      iszero\n      tag_170\n      jumpi\n      returndatasize\n      0x00\n      dup1\n      returndatacopy\n      revert(0x00, returndatasize)\n    tag_170:\n      pop\n      pop\n      pop\n      pop\n      mload(0x40)\n      returndatasize\n      not(0x1f)\n      0x1f\n      dup3\n      add\n      and\n      dup3\n      add\n      dup1\n      0x40\n      mstore\n      pop\n      dup2\n      add\n      swap1\n      tag_171\n      swap2\n      swap1\n      tag_172\n      jump\t// in\n    tag_171:\n      pop\n        /* \"Contracts\":4941:5064  moveOpenContractToClosedContractsForUser(accountabilityContract.creator(), approvalRequest.accountabilityContractAddress()) */\n      tag_173\n        /* \"Contracts\":4982:5004  accountabilityContract */\n      dup2\n        /* \"Contracts\":4982:5012  accountabilityContract.creator */\n      0xffffffffffffffffffffffffffffffffffffffff\n      and\n      0x02d05d3f\n        /* \"Contracts\":4982:5014  accountabilityContract.creator() */\n      mload(0x40)\n      dup2\n      0xffffffff\n      and\n      0xe0\n      shl\n      dup2\n      mstore\n      0x04\n      add\n      0x20\n      mload(0x40)\n      dup1\n      dup4\n      sub\n      dup2\n      dup7\n      gas\n      staticcall\n      iszero\n      dup1\n      iszero\n      tag_175\n      jumpi\n      returndatasize\n      0x00\n      dup1\n      returndatacopy\n      revert(0x00, returndatasize)\n    tag_175:\n      pop\n      pop\n      pop\n      pop\n      mload(0x40)\n      returndatasize\n      not(0x1f)\n      0x1f\n      dup3\n      add\n      and\n      dup3\n      add\n      dup1\n      0x40\n      mstore\n      pop\n      dup2\n      add\n      swap1\n      tag_176\n      swap2\n      swap1\n      tag_159\n      jump\t// in\n    tag_176:\n        /* \"Contracts\":5016:5031  approvalRequest */\n      dup4\n        /* \"Contracts\":5016:5061  approvalRequest.accountabilityContractAddress */\n      0xffffffffffffffffffffffffffffffffffffffff\n      and\n      0x3c490174\n        /* \"Contracts\":5016:5063  approvalRequest.accountabilityContractAddress() */\n      mload(0x40)\n      dup2\n      0xffffffff\n      and\n      0xe0\n      shl\n      dup2\n      mstore\n      0x04\n      add\n      0x20\n      mload(0x40)\n      dup1\n      dup4\n      sub\n      dup2\n      dup7\n      gas\n      staticcall\n      iszero\n      dup1\n      iszero\n      tag_178\n      jumpi\n      returndatasize\n      0x00\n      dup1\n      returndatacopy\n      revert(0x00, returndatasize)\n    tag_178:\n      pop\n      pop\n      pop\n      pop\n      mload(0x40)\n      returndatasize\n      not(0x1f)\n      0x1f\n      dup3\n      add\n      and\n      dup3\n      add\n      dup1\n      0x40\n      mstore\n      pop\n      dup2\n      add\n      swap1\n      tag_179\n      swap2\n      swap1\n      tag_159\n      jump\t// in\n    tag_179:\n        /* \"Contracts\":4941:4981  moveOpenContractToClosedContractsForUser */\n      tag_180\n        /* \"Contracts\":4941:5064  moveOpenContractToClosedContractsForUser(accountabilityContract.creator(), approvalRequest.accountabilityContractAddress()) */\n      jump\t// in\n    tag_173:\n        /* \"Contracts\":5074:5200  moveOpenContractToClosedContractsForReferee(accountabilityContract.referee(), approvalRequest.accountabilityContractAddress()) */\n      tag_181\n        /* \"Contracts\":5118:5140  accountabilityContract */\n      dup2\n        /* \"Contracts\":5118:5148  accountabilityContract.referee */\n      0xffffffffffffffffffffffffffffffffffffffff\n      and\n      0x3b1bebd1\n        /* \"Contracts\":5118:5150  accountabilityContract.referee() */\n      mload(0x40)\n      dup2\n      0xffffffff\n      and\n      0xe0\n      shl\n      dup2\n      mstore\n      0x04\n      add\n      0x20\n      mload(0x40)\n      dup1\n      dup4\n      sub\n      dup2\n      dup7\n      gas\n      staticcall\n      iszero\n      dup1\n      iszero\n      tag_183\n      jumpi\n      returndatasize\n      0x00\n      dup1\n      returndatacopy\n      revert(0x00, returndatasize)\n    tag_183:\n      pop\n      pop\n      pop\n      pop\n      mload(0x40)\n      returndatasize\n      not(0x1f)\n      0x1f\n      dup3\n      add\n      and\n      dup3\n      add\n      dup1\n      0x40\n      mstore\n      pop\n      dup2\n      add\n      swap1\n      tag_184\n      swap2\n      swap1\n      tag_159\n      jump\t// in\n    tag_184:\n        /* \"Contracts\":5152:5167  approvalRequest */\n      dup4\n        /* \"Contracts\":5152:5197  approvalRequest.accountabilityContractAddress */\n      0xffffffffffffffffffffffffffffffffffffffff\n      and\n      0x3c490174\n        /* \"Contracts\":5152:5199  approvalRequest.accountabilityContractAddress() */\n      mload(0x40)\n      dup2\n      0xffffffff\n      and\n      0xe0\n      shl\n      dup2\n      mstore\n      0x04\n      add\n      0x20\n      mload(0x40)\n      dup1\n      dup4\n      sub\n      dup2\n      dup7\n      gas\n      staticcall\n      iszero\n      dup1\n      iszero\n      tag_186\n      jumpi\n      returndatasize\n      0x00\n      dup1\n      returndatacopy\n      revert(0x00, returndatasize)\n    tag_186:\n      pop\n      pop\n      pop\n      pop\n      mload(0x40)\n      returndatasize\n      not(0x1f)\n      0x1f\n      dup3\n      add\n      and\n      dup3\n      add\n      dup1\n      0x40\n      mstore\n      pop\n      dup2\n      add\n      swap1\n      tag_187\n      swap2\n      swap1\n      tag_159\n      jump\t// in\n    tag_187:\n        /* \"Contracts\":5074:5117  moveOpenContractToClosedContractsForReferee */\n      tag_188\n        /* \"Contracts\":5074:5200  moveOpenContractToClosedContractsForReferee(accountabilityContract.referee(), approvalRequest.accountabilityContractAddress()) */\n      jump\t// in\n    tag_181:\n        /* \"Contracts\":4474:5207  {... */\n      pop\n      pop\n        /* \"Contracts\":4388:5207  function approveRequestForCompletion(address completionRequestContractAddress) public {... */\n      pop\n      jump\t// out\n        /* \"Contracts\":204:252  address[] public accountabilityContractAddresses */\n    tag_47:\n      0x03\n      dup2\n      dup2\n      sload\n      dup2\n      lt\n      tag_189\n      jumpi\n      0x00\n      dup1\n      revert\n    tag_189:\n      swap1\n      0x00\n      mstore\n      keccak256(0x00, 0x20)\n      add\n      0x00\n      swap2\n      pop\n      sload\n      swap1\n      0x0100\n      exp\n      swap1\n      div\n      0xffffffffffffffffffffffffffffffffffffffff\n      and\n      dup2\n      jump\t// out\n        /* \"Contracts\":417:450  address[] public refereeAddresses */\n    tag_53:\n      0x08\n      dup2\n      dup2\n      sload\n      dup2\n      lt\n      tag_191\n      jumpi\n      0x00\n      dup1\n      revert\n    tag_191:\n      swap1\n      0x00\n      mstore\n      keccak256(0x00, 0x20)\n      add\n      0x00\n      swap2\n      pop\n      sload\n      swap1\n      0x0100\n      exp\n      swap1\n      div\n      0xffffffffffffffffffffffffffffffffffffffff\n      and\n      dup2\n      jump\t// out\n        /* \"Contracts\":1871:2049  function getOpenAccountabilityContractAddressesForUser(address user) public view returns (address[] memory){... */\n    tag_58:\n        /* \"Contracts\":1961:1977  address[] memory */\n      0x60\n        /* \"Contracts\":1995:2000  users */\n      0x00\n        /* \"Contracts\":1995:2006  users[user] */\n      dup1\n        /* \"Contracts\":2001:2005  user */\n      dup4\n        /* \"Contracts\":1995:2006  users[user] */\n      0xffffffffffffffffffffffffffffffffffffffff\n      and\n      0xffffffffffffffffffffffffffffffffffffffff\n      and\n      dup2\n      mstore\n      0x20\n      add\n      swap1\n      dup2\n      mstore\n      0x20\n      add\n      0x00\n      keccak256\n        /* \"Contracts\":1995:2042  users[user].openAccountabilityContractAddresses */\n      0x01\n      add\n        /* \"Contracts\":1988:2042  return users[user].openAccountabilityContractAddresses */\n      dup1\n      sload\n      dup1\n      0x20\n      mul\n      0x20\n      add\n      mload(0x40)\n      swap1\n      dup2\n      add\n      0x40\n      mstore\n      dup1\n      swap3\n      swap2\n      swap1\n      dup2\n      dup2\n      mstore\n      0x20\n      add\n      dup3\n      dup1\n      sload\n      dup1\n      iszero\n      tag_194\n      jumpi\n      0x20\n      mul\n      dup3\n      add\n      swap2\n      swap1\n      0x00\n      mstore\n      keccak256(0x00, 0x20)\n      swap1\n    tag_195:\n      dup2\n      0x00\n      swap1\n      sload\n      swap1\n      0x0100\n      exp\n      swap1\n      div\n      0xffffffffffffffffffffffffffffffffffffffff\n      and\n      0xffffffffffffffffffffffffffffffffffffffff\n      and\n      dup2\n      mstore\n      0x20\n      add\n      swap1\n      0x01\n      add\n      swap1\n      dup1\n      dup4\n      gt\n      tag_195\n      jumpi\n    tag_194:\n      pop\n      pop\n      pop\n      pop\n      pop\n      swap1\n      pop\n        /* \"Contracts\":1871:2049  function getOpenAccountabilityContractAddressesForUser(address user) public view returns (address[] memory){... */\n      swap2\n      swap1\n      pop\n      jump\t// out\n        /* \"Contracts\":256:299  uint public numberOfAccountabilityContracts */\n    tag_62:\n      sload(0x04)\n      dup2\n      jump\t// out\n        /* \"Contracts\":2639:2844  function getCompleteAccountabilityContractRequestsForReferee(address referee) public view returns (address[] memory){... */\n    tag_68:\n        /* \"Contracts\":2738:2754  address[] memory */\n      0x60\n        /* \"Contracts\":2772:2780  referees */\n      0x06\n        /* \"Contracts\":2772:2789  referees[referee] */\n      0x00\n        /* \"Contracts\":2781:2788  referee */\n      dup4\n        /* \"Contracts\":2772:2789  referees[referee] */\n      0xffffffffffffffffffffffffffffffffffffffff\n      and\n      0xffffffffffffffffffffffffffffffffffffffff\n      and\n      dup2\n      mstore\n      0x20\n      add\n      swap1\n      dup2\n      mstore\n      0x20\n      add\n      0x00\n      keccak256\n        /* \"Contracts\":2772:2837  referees[referee].completeAccountabilityContractRequestsAddresses */\n      0x03\n      add\n        /* \"Contracts\":2765:2837  return referees[referee].completeAccountabilityContractRequestsAddresses */\n      dup1\n      sload\n      dup1\n      0x20\n      mul\n      0x20\n      add\n      mload(0x40)\n      swap1\n      dup2\n      add\n      0x40\n      mstore\n      dup1\n      swap3\n      swap2\n      swap1\n      dup2\n      dup2\n      mstore\n      0x20\n      add\n      dup3\n      dup1\n      sload\n      dup1\n      iszero\n      tag_197\n      jumpi\n      0x20\n      mul\n      dup3\n      add\n      swap2\n      swap1\n      0x00\n      mstore\n      keccak256(0x00, 0x20)\n      swap1\n    tag_198:\n      dup2\n      0x00\n      swap1\n      sload\n      swap1\n      0x0100\n      exp\n      swap1\n      div\n      0xffffffffffffffffffffffffffffffffffffffff\n      and\n      0xffffffffffffffffffffffffffffffffffffffff\n      and\n      dup2\n      mstore\n      0x20\n      add\n      swap1\n      0x01\n      add\n      swap1\n      dup1\n      dup4\n      gt\n      tag_198\n      jumpi\n    tag_197:\n      pop\n      pop\n      pop\n      pop\n      pop\n      swap1\n      pop\n        /* \"Contracts\":2639:2844  function getCompleteAccountabilityContractRequestsForReferee(address referee) public view returns (address[] memory){... */\n      swap2\n      swap1\n      pop\n      jump\t// out\n        /* \"Contracts\":141:171  address[] public userAddresses */\n    tag_73:\n      0x01\n      dup2\n      dup2\n      sload\n      dup2\n      lt\n      tag_199\n      jumpi\n      0x00\n      dup1\n      revert\n    tag_199:\n      swap1\n      0x00\n      mstore\n      keccak256(0x00, 0x20)\n      add\n      0x00\n      swap2\n      pop\n      sload\n      swap1\n      0x0100\n      exp\n      swap1\n      div\n      0xffffffffffffffffffffffffffffffffffffffff\n      and\n      dup2\n      jump\t// out\n        /* \"Contracts\":2850:3269  function failOpenAccountabilityContract(address contractAddress) public {... */\n    tag_78:\n        /* \"Contracts\":2930:2975  AccountabilityContract accountabilityContract */\n      0x00\n        /* \"Contracts\":3001:3016  contractAddress */\n      dup2\n        /* \"Contracts\":2930:3017  AccountabilityContract accountabilityContract = AccountabilityContract(contractAddress) */\n      swap1\n      pop\n        /* \"Contracts\":3025:3047  accountabilityContract */\n      dup1\n        /* \"Contracts\":3025:3060  accountabilityContract.failContract */\n      0xffffffffffffffffffffffffffffffffffffffff\n      and\n      0x2d398fa6\n        /* \"Contracts\":3025:3062  accountabilityContract.failContract() */\n      mload(0x40)\n      dup2\n      0xffffffff\n      and\n      0xe0\n      shl\n      dup2\n      mstore\n      0x04\n      add\n      0x20\n      mload(0x40)\n      dup1\n      dup4\n      sub\n      dup2\n      0x00\n      dup8\n      gas\n      call\n      iszero\n      dup1\n      iszero\n      tag_203\n      jumpi\n      returndatasize\n      0x00\n      dup1\n      returndatacopy\n      revert(0x00, returndatasize)\n    tag_203:\n      pop\n      pop\n      pop\n      pop\n      mload(0x40)\n      returndatasize\n      not(0x1f)\n      0x1f\n      dup3\n      add\n      and\n      dup3\n      add\n      dup1\n      0x40\n      mstore\n      pop\n      dup2\n      add\n      swap1\n      tag_204\n      swap2\n      swap1\n      tag_172\n      jump\t// in\n    tag_204:\n      pop\n        /* \"Contracts\":3070:3160  moveOpenContractToClosedContractsForUser(accountabilityContract.creator(),contractAddress) */\n      tag_205\n        /* \"Contracts\":3111:3133  accountabilityContract */\n      dup2\n        /* \"Contracts\":3111:3141  accountabilityContract.creator */\n      0xffffffffffffffffffffffffffffffffffffffff\n      and\n      0x02d05d3f\n        /* \"Contracts\":3111:3143  accountabilityContract.creator() */\n      mload(0x40)\n      dup2\n      0xffffffff\n      and\n      0xe0\n      shl\n      dup2\n      mstore\n      0x04\n      add\n      0x20\n      mload(0x40)\n      dup1\n      dup4\n      sub\n      dup2\n      dup7\n      gas\n      staticcall\n      iszero\n      dup1\n      iszero\n      tag_207\n      jumpi\n      returndatasize\n      0x00\n      dup1\n      returndatacopy\n      revert(0x00, returndatasize)\n    tag_207:\n      pop\n      pop\n      pop\n      pop\n      mload(0x40)\n      returndatasize\n      not(0x1f)\n      0x1f\n      dup3\n      add\n      and\n      dup3\n      add\n      dup1\n      0x40\n      mstore\n      pop\n      dup2\n      add\n      swap1\n      tag_208\n      swap2\n      swap1\n      tag_159\n      jump\t// in\n    tag_208:\n        /* \"Contracts\":3144:3159  contractAddress */\n      dup4\n        /* \"Contracts\":3070:3110  moveOpenContractToClosedContractsForUser */\n      tag_180\n        /* \"Contracts\":3070:3160  moveOpenContractToClosedContractsForUser(accountabilityContract.creator(),contractAddress) */\n      jump\t// in\n    tag_205:\n        /* \"Contracts\":3168:3262  moveOpenContractToClosedContractsForReferee(accountabilityContract.referee(), contractAddress) */\n      tag_209\n        /* \"Contracts\":3212:3234  accountabilityContract */\n      dup2\n        /* \"Contracts\":3212:3242  accountabilityContract.referee */\n      0xffffffffffffffffffffffffffffffffffffffff\n      and\n      0x3b1bebd1\n        /* \"Contracts\":3212:3244  accountabilityContract.referee() */\n      mload(0x40)\n      dup2\n      0xffffffff\n      and\n      0xe0\n      shl\n      dup2\n      mstore\n      0x04\n      add\n      0x20\n      mload(0x40)\n      dup1\n      dup4\n      sub\n      dup2\n      dup7\n      gas\n      staticcall\n      iszero\n      dup1\n      iszero\n      tag_211\n      jumpi\n      returndatasize\n      0x00\n      dup1\n      returndatacopy\n      revert(0x00, returndatasize)\n    tag_211:\n      pop\n      pop\n      pop\n      pop\n      mload(0x40)\n      returndatasize\n      not(0x1f)\n      0x1f\n      dup3\n      add\n      and\n      dup3\n      add\n      dup1\n      0x40\n      mstore\n      pop\n      dup2\n      add\n      swap1\n      tag_212\n      swap2\n      swap1\n      tag_159\n      jump\t// in\n    tag_212:\n        /* \"Contracts\":3246:3261  contractAddress */\n      dup4\n        /* \"Contracts\":3168:3211  moveOpenContractToClosedContractsForReferee */\n      tag_188\n        /* \"Contracts\":3168:3262  moveOpenContractToClosedContractsForReferee(accountabilityContract.referee(), contractAddress) */\n      jump\t// in\n    tag_209:\n        /* \"Contracts\":2922:3269  {... */\n      pop\n        /* \"Contracts\":2850:3269  function failOpenAccountabilityContract(address contractAddress) public {... */\n      pop\n      jump\t// out\n        /* \"Contracts\":3275:3703  function completeOpenAccountabilityContract(address contractAddress) public {... */\n    tag_82:\n        /* \"Contracts\":3359:3404  AccountabilityContract accountabilityContract */\n      0x00\n        /* \"Contracts\":3430:3445  contractAddress */\n      dup2\n        /* \"Contracts\":3359:3446  AccountabilityContract accountabilityContract = AccountabilityContract(contractAddress) */\n      swap1\n      pop\n        /* \"Contracts\":3454:3476  accountabilityContract */\n      dup1\n        /* \"Contracts\":3454:3493  accountabilityContract.completeContract */\n      0xffffffffffffffffffffffffffffffffffffffff\n      and\n      0xb4fedc11\n        /* \"Contracts\":3454:3495  accountabilityContract.completeContract() */\n      mload(0x40)\n      dup2\n      0xffffffff\n      and\n      0xe0\n      shl\n      dup2\n      mstore\n      0x04\n      add\n      0x20\n      mload(0x40)\n      dup1\n      dup4\n      sub\n      dup2\n      0x00\n      dup8\n      gas\n      call\n      iszero\n      dup1\n      iszero\n      tag_215\n      jumpi\n      returndatasize\n      0x00\n      dup1\n      returndatacopy\n      revert(0x00, returndatasize)\n    tag_215:\n      pop\n      pop\n      pop\n      pop\n      mload(0x40)\n      returndatasize\n      not(0x1f)\n      0x1f\n      dup3\n      add\n      and\n      dup3\n      add\n      dup1\n      0x40\n      mstore\n      pop\n      dup2\n      add\n      swap1\n      tag_216\n      swap2\n      swap1\n      tag_172\n      jump\t// in\n    tag_216:\n      pop\n        /* \"Contracts\":3503:3594  moveOpenContractToClosedContractsForUser(accountabilityContract.creator(), contractAddress) */\n      tag_217\n        /* \"Contracts\":3544:3566  accountabilityContract */\n      dup2\n        /* \"Contracts\":3544:3574  accountabilityContract.creator */\n      0xffffffffffffffffffffffffffffffffffffffff\n      and\n      0x02d05d3f\n        /* \"Contracts\":3544:3576  accountabilityContract.creator() */\n      mload(0x40)\n      dup2\n      0xffffffff\n      and\n      0xe0\n      shl\n      dup2\n      mstore\n      0x04\n      add\n      0x20\n      mload(0x40)\n      dup1\n      dup4\n      sub\n      dup2\n      dup7\n      gas\n      staticcall\n      iszero\n      dup1\n      iszero\n      tag_219\n      jumpi\n      returndatasize\n      0x00\n      dup1\n      returndatacopy\n      revert(0x00, returndatasize)\n    tag_219:\n      pop\n      pop\n      pop\n      pop\n      mload(0x40)\n      returndatasize\n      not(0x1f)\n      0x1f\n      dup3\n      add\n      and\n      dup3\n      add\n      dup1\n      0x40\n      mstore\n      pop\n      dup2\n      add\n      swap1\n      tag_220\n      swap2\n      swap1\n      tag_159\n      jump\t// in\n    tag_220:\n        /* \"Contracts\":3578:3593  contractAddress */\n      dup4\n        /* \"Contracts\":3503:3543  moveOpenContractToClosedContractsForUser */\n      tag_180\n        /* \"Contracts\":3503:3594  moveOpenContractToClosedContractsForUser(accountabilityContract.creator(), contractAddress) */\n      jump\t// in\n    tag_217:\n        /* \"Contracts\":3602:3696  moveOpenContractToClosedContractsForReferee(accountabilityContract.referee(), contractAddress) */\n      tag_221\n        /* \"Contracts\":3646:3668  accountabilityContract */\n      dup2\n        /* \"Contracts\":3646:3676  accountabilityContract.referee */\n      0xffffffffffffffffffffffffffffffffffffffff\n      and\n      0x3b1bebd1\n        /* \"Contracts\":3646:3678  accountabilityContract.referee() */\n      mload(0x40)\n      dup2\n      0xffffffff\n      and\n      0xe0\n      shl\n      dup2\n      mstore\n      0x04\n      add\n      0x20\n      mload(0x40)\n      dup1\n      dup4\n      sub\n      dup2\n      dup7\n      gas\n      staticcall\n      iszero\n      dup1\n      iszero\n      tag_223\n      jumpi\n      returndatasize\n      0x00\n      dup1\n      returndatacopy\n      revert(0x00, returndatasize)\n    tag_223:\n      pop\n      pop\n      pop\n      pop\n      mload(0x40)\n      returndatasize\n      not(0x1f)\n      0x1f\n      dup3\n      add\n      and\n      dup3\n      add\n      dup1\n      0x40\n      mstore\n      pop\n      dup2\n      add\n      swap1\n      tag_224\n      swap2\n      swap1\n      tag_159\n      jump\t// in\n    tag_224:\n        /* \"Contracts\":3680:3695  contractAddress */\n      dup4\n        /* \"Contracts\":3602:3645  moveOpenContractToClosedContractsForReferee */\n      tag_188\n        /* \"Contracts\":3602:3696  moveOpenContractToClosedContractsForReferee(accountabilityContract.referee(), contractAddress) */\n      jump\t// in\n    tag_221:\n        /* \"Contracts\":3351:3703  {... */\n      pop\n        /* \"Contracts\":3275:3703  function completeOpenAccountabilityContract(address contractAddress) public {... */\n      pop\n      jump\t// out\n        /* \"Contracts\":338:381  mapping(address => Referee) public referees */\n    tag_86:\n      mstore(0x20, 0x06)\n      dup1\n      0x00\n      mstore\n      keccak256(0x00, 0x40)\n      0x00\n      swap2\n      pop\n      swap1\n      pop\n      dup1\n      0x00\n      add\n      sload\n      swap1\n      pop\n      dup2\n      jump\t// out\n        /* \"Contracts\":175:200  uint public numberOfUsers */\n    tag_90:\n      sload(0x02)\n      dup2\n      jump\t// out\n        /* \"Contracts\":3709:4382  function requestRefereeCompletesContract(address contractAddress) public {... */\n    tag_95:\n        /* \"Contracts\":3792:3837  AccountabilityContract accountabilityContract */\n      0x00\n        /* \"Contracts\":3863:3878  contractAddress */\n      dup2\n        /* \"Contracts\":3792:3879  AccountabilityContract accountabilityContract = AccountabilityContract(contractAddress) */\n      swap1\n      pop\n        /* \"Contracts\":3932:3966  AccountabilityContract.Status.OPEN */\n      0x00\n        /* \"Contracts\":3897:3966  accountabilityContract.status() == AccountabilityContract.Status.OPEN */\n      0x02\n      dup2\n      gt\n      iszero\n      tag_226\n      jumpi\n      tag_227\n      tag_228\n      jump\t// in\n    tag_227:\n    tag_226:\n        /* \"Contracts\":3897:3919  accountabilityContract */\n      dup2\n        /* \"Contracts\":3897:3926  accountabilityContract.status */\n      0xffffffffffffffffffffffffffffffffffffffff\n      and\n      0x200d2ed2\n        /* \"Contracts\":3897:3928  accountabilityContract.status() */\n      mload(0x40)\n      dup2\n      0xffffffff\n      and\n      0xe0\n      shl\n      dup2\n      mstore\n      0x04\n      add\n      0x20\n      mload(0x40)\n      dup1\n      dup4\n      sub\n      dup2\n      dup7\n      gas\n      staticcall\n      iszero\n      dup1\n      iszero\n      tag_230\n      jumpi\n      returndatasize\n      0x00\n      dup1\n      returndatacopy\n      revert(0x00, returndatasize)\n    tag_230:\n      pop\n      pop\n      pop\n      pop\n      mload(0x40)\n      returndatasize\n      not(0x1f)\n      0x1f\n      dup3\n      add\n      and\n      dup3\n      add\n      dup1\n      0x40\n      mstore\n      pop\n      dup2\n      add\n      swap1\n      tag_231\n      swap2\n      swap1\n      tag_232\n      jump\t// in\n    tag_231:\n        /* \"Contracts\":3897:3966  accountabilityContract.status() == AccountabilityContract.Status.OPEN */\n      0x02\n      dup2\n      gt\n      iszero\n      tag_233\n      jumpi\n      tag_234\n      tag_228\n      jump\t// in\n    tag_234:\n    tag_233:\n      eq\n        /* \"Contracts\":3889:3999  require(accountabilityContract.status() == AccountabilityContract.Status.OPEN, \"Contract status must be open\") */\n      tag_235\n      jumpi\n      mload(0x40)\n      0x08c379a000000000000000000000000000000000000000000000000000000000\n      dup2\n      mstore\n      0x04\n      add\n      tag_236\n      swap1\n      tag_237\n      jump\t// in\n    tag_236:\n      mload(0x40)\n      dup1\n      swap2\n      sub\n      swap1\n      revert\n    tag_235:\n        /* \"Contracts\":4030:4052  accountabilityContract */\n      dup1\n        /* \"Contracts\":4030:4060  accountabilityContract.creator */\n      0xffffffffffffffffffffffffffffffffffffffff\n      and\n      0x02d05d3f\n        /* \"Contracts\":4030:4062  accountabilityContract.creator() */\n      mload(0x40)\n      dup2\n      0xffffffff\n      and\n      0xe0\n      shl\n      dup2\n      mstore\n      0x04\n      add\n      0x20\n      mload(0x40)\n      dup1\n      dup4\n      sub\n      dup2\n      dup7\n      gas\n      staticcall\n      iszero\n      dup1\n      iszero\n      tag_239\n      jumpi\n      returndatasize\n      0x00\n      dup1\n      returndatacopy\n      revert(0x00, returndatasize)\n    tag_239:\n      pop\n      pop\n      pop\n      pop\n      mload(0x40)\n      returndatasize\n      not(0x1f)\n      0x1f\n      dup3\n      add\n      and\n      dup3\n      add\n      dup1\n      0x40\n      mstore\n      pop\n      dup2\n      add\n      swap1\n      tag_240\n      swap2\n      swap1\n      tag_159\n      jump\t// in\n    tag_240:\n        /* \"Contracts\":4017:4062  tx.origin == accountabilityContract.creator() */\n      0xffffffffffffffffffffffffffffffffffffffff\n      and\n        /* \"Contracts\":4017:4026  tx.origin */\n      origin\n        /* \"Contracts\":4017:4062  tx.origin == accountabilityContract.creator() */\n      0xffffffffffffffffffffffffffffffffffffffff\n      and\n      eq\n        /* \"Contracts\":4009:4114  require(tx.origin == accountabilityContract.creator(), \"Only creator of contract can request completion\") */\n      tag_241\n      jumpi\n      mload(0x40)\n      0x08c379a000000000000000000000000000000000000000000000000000000000\n      dup2\n      mstore\n      0x04\n      add\n      tag_242\n      swap1\n      tag_243\n      jump\t// in\n    tag_242:\n      mload(0x40)\n      dup1\n      swap2\n      sub\n      swap1\n      revert\n    tag_241:\n        /* \"Contracts\":4124:4180  AccountabilityContractApprovalRequest newApprovalRequest */\n      0x00\n        /* \"Contracts\":4225:4240  contractAddress */\n      dup3\n        /* \"Contracts\":4183:4241  new AccountabilityContractApprovalRequest(contractAddress) */\n      mload(0x40)\n      tag_244\n      swap1\n      tag_245\n      jump\t// in\n    tag_244:\n      tag_246\n      swap2\n      swap1\n      tag_49\n      jump\t// in\n    tag_246:\n      mload(0x40)\n      dup1\n      swap2\n      sub\n      swap1\n      0x00\n      create\n      dup1\n      iszero\n      dup1\n      iszero\n      tag_247\n      jumpi\n      returndatasize\n      0x00\n      dup1\n      returndatacopy\n      revert(0x00, returndatasize)\n    tag_247:\n      pop\n        /* \"Contracts\":4124:4241  AccountabilityContractApprovalRequest newApprovalRequest = new AccountabilityContractApprovalRequest(contractAddress) */\n      swap1\n      pop\n        /* \"Contracts\":4251:4259  referees */\n      0x06\n        /* \"Contracts\":4251:4293  referees[accountabilityContract.referee()] */\n      0x00\n        /* \"Contracts\":4260:4282  accountabilityContract */\n      dup4\n        /* \"Contracts\":4260:4290  accountabilityContract.referee */\n      0xffffffffffffffffffffffffffffffffffffffff\n      and\n      0x3b1bebd1\n        /* \"Contracts\":4260:4292  accountabilityContract.referee() */\n      mload(0x40)\n      dup2\n      0xffffffff\n      and\n      0xe0\n      shl\n      dup2\n      mstore\n      0x04\n      add\n      0x20\n      mload(0x40)\n      dup1\n      dup4\n      sub\n      dup2\n      dup7\n      gas\n      staticcall\n      iszero\n      dup1\n      iszero\n      tag_249\n      jumpi\n      returndatasize\n      0x00\n      dup1\n      returndatacopy\n      revert(0x00, returndatasize)\n    tag_249:\n      pop\n      pop\n      pop\n      pop\n      mload(0x40)\n      returndatasize\n      not(0x1f)\n      0x1f\n      dup3\n      add\n      and\n      dup3\n      add\n      dup1\n      0x40\n      mstore\n      pop\n      dup2\n      add\n      swap1\n      tag_250\n      swap2\n      swap1\n      tag_159\n      jump\t// in\n    tag_250:\n        /* \"Contracts\":4251:4293  referees[accountabilityContract.referee()] */\n      0xffffffffffffffffffffffffffffffffffffffff\n      and\n      0xffffffffffffffffffffffffffffffffffffffff\n      and\n      dup2\n      mstore\n      0x20\n      add\n      swap1\n      dup2\n      mstore\n      0x20\n      add\n      0x00\n      keccak256\n        /* \"Contracts\":4251:4341  referees[accountabilityContract.referee()].completeAccountabilityContractRequestsAddresses */\n      0x03\n      add\n        /* \"Contracts\":4355:4373  newApprovalRequest */\n      dup2\n        /* \"Contracts\":4251:4375  referees[accountabilityContract.referee()].completeAccountabilityContractRequestsAddresses.push(address(newApprovalRequest)) */\n      swap1\n      dup1\n      0x01\n      dup2\n      sload\n      add\n      dup1\n      dup3\n      sstore\n      dup1\n      swap2\n      pop\n      pop\n      0x01\n      swap1\n      sub\n      swap1\n      0x00\n      mstore\n      keccak256(0x00, 0x20)\n      add\n      0x00\n      swap1\n      swap2\n      swap1\n      swap2\n      swap1\n      swap2\n      0x0100\n      exp\n      dup2\n      sload\n      dup2\n      0xffffffffffffffffffffffffffffffffffffffff\n      mul\n      not\n      and\n      swap1\n      dup4\n      0xffffffffffffffffffffffffffffffffffffffff\n      and\n      mul\n      or\n      swap1\n      sstore\n      pop\n        /* \"Contracts\":3782:4382  {... */\n      pop\n      pop\n        /* \"Contracts\":3709:4382  function requestRefereeCompletesContract(address contractAddress) public {... */\n      pop\n      jump\t// out\n        /* \"Contracts\":2243:2433  function getOpenAccountabilityContractAddressesForReferee(address referee) public view returns (address[] memory){... */\n    tag_99:\n        /* \"Contracts\":2339:2355  address[] memory */\n      0x60\n        /* \"Contracts\":2373:2381  referees */\n      0x06\n        /* \"Contracts\":2373:2390  referees[referee] */\n      0x00\n        /* \"Contracts\":2382:2389  referee */\n      dup4\n        /* \"Contracts\":2373:2390  referees[referee] */\n      0xffffffffffffffffffffffffffffffffffffffff\n      and\n      0xffffffffffffffffffffffffffffffffffffffff\n      and\n      dup2\n      mstore\n      0x20\n      add\n      swap1\n      dup2\n      mstore\n      0x20\n      add\n      0x00\n      keccak256\n        /* \"Contracts\":2373:2426  referees[referee].openAccountabilityContractAddresses */\n      0x01\n      add\n        /* \"Contracts\":2366:2426  return referees[referee].openAccountabilityContractAddresses */\n      dup1\n      sload\n      dup1\n      0x20\n      mul\n      0x20\n      add\n      mload(0x40)\n      swap1\n      dup2\n      add\n      0x40\n      mstore\n      dup1\n      swap3\n      swap2\n      swap1\n      dup2\n      dup2\n      mstore\n      0x20\n      add\n      dup3\n      dup1\n      sload\n      dup1\n      iszero\n      tag_253\n      jumpi\n      0x20\n      mul\n      dup3\n      add\n      swap2\n      swap1\n      0x00\n      mstore\n      keccak256(0x00, 0x20)\n      swap1\n    tag_254:\n      dup2\n      0x00\n      swap1\n      sload\n      swap1\n      0x0100\n      exp\n      swap1\n      div\n      0xffffffffffffffffffffffffffffffffffffffff\n      and\n      0xffffffffffffffffffffffffffffffffffffffff\n      and\n      dup2\n      mstore\n      0x20\n      add\n      swap1\n      0x01\n      add\n      swap1\n      dup1\n      dup4\n      gt\n      tag_254\n      jumpi\n    tag_253:\n      pop\n      pop\n      pop\n      pop\n      pop\n      swap1\n      pop\n        /* \"Contracts\":2243:2433  function getOpenAccountabilityContractAddressesForReferee(address referee) public view returns (address[] memory){... */\n      swap2\n      swap1\n      pop\n      jump\t// out\n        /* \"Contracts\":100:137  mapping(address => User) public users */\n    tag_104:\n      mstore(0x20, 0x00)\n      dup1\n      0x00\n      mstore\n      keccak256(0x00, 0x40)\n      0x00\n      swap2\n      pop\n      swap1\n      pop\n      dup1\n      0x00\n      add\n      sload\n      swap1\n      pop\n      dup2\n      jump\t// out\n        /* \"Contracts\":7486:7981  function getUserAddresses(uint startIndex, uint endIndex) public view returns (address[] memory) {... */\n    tag_109:\n        /* \"Contracts\":7565:7581  address[] memory */\n      0x60\n        /* \"Contracts\":7614:7615  0 */\n      0x00\n        /* \"Contracts\":7600:7610  startIndex */\n      dup4\n        /* \"Contracts\":7600:7615  startIndex >= 0 */\n      lt\n      iszero\n        /* \"Contracts\":7592:7650  require(startIndex >= 0, \"Start index cannot be negative\") */\n      tag_256\n      jumpi\n      mload(0x40)\n      0x08c379a000000000000000000000000000000000000000000000000000000000\n      dup2\n      mstore\n      0x04\n      add\n      tag_257\n      swap1\n      tag_131\n      jump\t// in\n    tag_257:\n      mload(0x40)\n      dup1\n      swap2\n      sub\n      swap1\n      revert\n    tag_256:\n        /* \"Contracts\":7679:7692  userAddresses */\n      0x01\n        /* \"Contracts\":7679:7699  userAddresses.length */\n      dup1\n      sload\n      swap1\n      pop\n        /* \"Contracts\":7667:7675  endIndex */\n      dup3\n        /* \"Contracts\":7667:7699  endIndex <= userAddresses.length */\n      gt\n      iszero\n        /* \"Contracts\":7659:7743  require(endIndex <= userAddresses.length, \"End index exceeds user addresses length\") */\n      tag_258\n      jumpi\n      mload(0x40)\n      0x08c379a000000000000000000000000000000000000000000000000000000000\n      dup2\n      mstore\n      0x04\n      add\n      tag_259\n      swap1\n      tag_134\n      jump\t// in\n    tag_259:\n      mload(0x40)\n      dup1\n      swap2\n      sub\n      swap1\n      revert\n    tag_258:\n        /* \"Contracts\":7752:7788  address[] memory slicedUserAddresses */\n      0x00\n        /* \"Contracts\":7814:7824  startIndex */\n      dup4\n        /* \"Contracts\":7805:7813  endIndex */\n      dup4\n        /* \"Contracts\":7805:7824  endIndex-startIndex */\n      tag_260\n      swap2\n      swap1\n      tag_136\n      jump\t// in\n    tag_260:\n        /* \"Contracts\":7791:7825  new address[](endIndex-startIndex) */\n      0xffffffffffffffff\n      dup2\n      gt\n      iszero\n      tag_261\n      jumpi\n      tag_262\n      tag_139\n      jump\t// in\n    tag_262:\n    tag_261:\n      mload(0x40)\n      swap1\n      dup1\n      dup3\n      mstore\n      dup1\n      0x20\n      mul\n      0x20\n      add\n      dup3\n      add\n      0x40\n      mstore\n      dup1\n      iszero\n      tag_263\n      jumpi\n      dup2\n      0x20\n      add\n      0x20\n      dup3\n      mul\n      dup1\n      calldatasize\n      dup4\n      calldatacopy\n      dup1\n      dup3\n      add\n      swap2\n      pop\n      pop\n      swap1\n      pop\n    tag_263:\n      pop\n        /* \"Contracts\":7752:7825  address[] memory slicedUserAddresses = new address[](endIndex-startIndex) */\n      swap1\n      pop\n        /* \"Contracts\":7838:7844  uint i */\n      0x00\n        /* \"Contracts\":7845:7855  startIndex */\n      dup5\n        /* \"Contracts\":7838:7855  uint i=startIndex */\n      swap1\n      pop\n        /* \"Contracts\":7834:7939  for(uint i=startIndex; i<endIndex; i++){... */\n    tag_264:\n        /* \"Contracts\":7859:7867  endIndex */\n      dup4\n        /* \"Contracts\":7857:7858  i */\n      dup2\n        /* \"Contracts\":7857:7867  i<endIndex */\n      lt\n        /* \"Contracts\":7834:7939  for(uint i=startIndex; i<endIndex; i++){... */\n      iszero\n      tag_265\n      jumpi\n        /* \"Contracts\":7912:7925  userAddresses */\n      0x01\n        /* \"Contracts\":7926:7927  i */\n      dup2\n        /* \"Contracts\":7912:7928  userAddresses[i] */\n      dup2\n      sload\n      dup2\n      lt\n      tag_267\n      jumpi\n      tag_268\n      tag_146\n      jump\t// in\n    tag_268:\n    tag_267:\n      swap1\n      0x00\n      mstore\n      keccak256(0x00, 0x20)\n      add\n      0x00\n      swap1\n      sload\n      swap1\n      0x0100\n      exp\n      swap1\n      div\n      0xffffffffffffffffffffffffffffffffffffffff\n      and\n        /* \"Contracts\":7887:7906  slicedUserAddresses */\n      dup3\n        /* \"Contracts\":7907:7908  i */\n      dup3\n        /* \"Contracts\":7887:7909  slicedUserAddresses[i] */\n      dup2\n      mload\n      dup2\n      lt\n      tag_270\n      jumpi\n      tag_271\n      tag_146\n      jump\t// in\n    tag_271:\n    tag_270:\n      0x20\n      mul\n      0x20\n      add\n      add\n        /* \"Contracts\":7887:7928  slicedUserAddresses[i] = userAddresses[i] */\n      swap1\n      0xffffffffffffffffffffffffffffffffffffffff\n      and\n      swap1\n      dup2\n      0xffffffffffffffffffffffffffffffffffffffff\n      and\n      dup2\n      mstore\n      pop\n      pop\n        /* \"Contracts\":7869:7872  i++ */\n      dup1\n      dup1\n      tag_272\n      swap1\n      tag_151\n      jump\t// in\n    tag_272:\n      swap2\n      pop\n      pop\n        /* \"Contracts\":7834:7939  for(uint i=startIndex; i<endIndex; i++){... */\n      jump(tag_264)\n    tag_265:\n      pop\n        /* \"Contracts\":7955:7974  slicedUserAddresses */\n      dup1\n        /* \"Contracts\":7948:7974  return slicedUserAddresses */\n      swap2\n      pop\n      pop\n        /* \"Contracts\":7486:7981  function getUserAddresses(uint startIndex, uint endIndex) public view returns (address[] memory) {... */\n      swap3\n      swap2\n      pop\n      pop\n      jump\t// out\n        /* \"Contracts\":2055:2237  function getClosedAccountabilityContractAddressesForUser(address user) public view returns (address[] memory){... */\n    tag_114:\n        /* \"Contracts\":2147:2163  address[] memory */\n      0x60\n        /* \"Contracts\":2181:2186  users */\n      0x00\n        /* \"Contracts\":2181:2192  users[user] */\n      dup1\n        /* \"Contracts\":2187:2191  user */\n      dup4\n        /* \"Contracts\":2181:2192  users[user] */\n      0xffffffffffffffffffffffffffffffffffffffff\n      and\n      0xffffffffffffffffffffffffffffffffffffffff\n      and\n      dup2\n      mstore\n      0x20\n      add\n      swap1\n      dup2\n      mstore\n      0x20\n      add\n      0x00\n      keccak256\n        /* \"Contracts\":2181:2230  users[user].closedAccountabilityContractAddresses */\n      0x02\n      add\n        /* \"Contracts\":2174:2230  return users[user].closedAccountabilityContractAddresses */\n      dup1\n      sload\n      dup1\n      0x20\n      mul\n      0x20\n      add\n      mload(0x40)\n      swap1\n      dup2\n      add\n      0x40\n      mstore\n      dup1\n      swap3\n      swap2\n      swap1\n      dup2\n      dup2\n      mstore\n      0x20\n      add\n      dup3\n      dup1\n      sload\n      dup1\n      iszero\n      tag_274\n      jumpi\n      0x20\n      mul\n      dup3\n      add\n      swap2\n      swap1\n      0x00\n      mstore\n      keccak256(0x00, 0x20)\n      swap1\n    tag_275:\n      dup2\n      0x00\n      swap1\n      sload\n      swap1\n      0x0100\n      exp\n      swap1\n      div\n      0xffffffffffffffffffffffffffffffffffffffff\n      and\n      0xffffffffffffffffffffffffffffffffffffffff\n      and\n      dup2\n      mstore\n      0x20\n      add\n      swap1\n      0x01\n      add\n      swap1\n      dup1\n      dup4\n      gt\n      tag_275\n      jumpi\n    tag_274:\n      pop\n      pop\n      pop\n      pop\n      pop\n      swap1\n      pop\n        /* \"Contracts\":2055:2237  function getClosedAccountabilityContractAddressesForUser(address user) public view returns (address[] memory){... */\n      swap2\n      swap1\n      pop\n      jump\t// out\n        /* \"Contracts\":385:413  uint public numberOfReferees */\n    tag_118:\n      sload(0x07)\n      dup2\n      jump\t// out\n        /* \"Contracts\":303:334  uint public totalEthInContracts */\n    tag_122:\n      sload(0x05)\n      dup2\n      jump\t// out\n        /* \"Contracts\":835:1865  function createAccountabilityContract(address _referee, string memory _name, string memory _description, address payable _failureRecipient) public payable {... */\n    tag_127:\n        /* \"Contracts\":1041:1042  0 */\n      0x00\n        /* \"Contracts\":1003:1008  users */\n      dup1\n        /* \"Contracts\":1003:1020  users[msg.sender] */\n      0x00\n        /* \"Contracts\":1009:1019  msg.sender */\n      caller\n        /* \"Contracts\":1003:1020  users[msg.sender] */\n      0xffffffffffffffffffffffffffffffffffffffff\n      and\n      0xffffffffffffffffffffffffffffffffffffffff\n      and\n      dup2\n      mstore\n      0x20\n      add\n      swap1\n      dup2\n      mstore\n      0x20\n      add\n      0x00\n      keccak256\n        /* \"Contracts\":1003:1037  users[msg.sender].createdContracts */\n      0x00\n      add\n      sload\n        /* \"Contracts\":1003:1042  users[msg.sender].createdContracts == 0 */\n      eq\n        /* \"Contracts\":1000:1127  if(users[msg.sender].createdContracts == 0){... */\n      iszero\n      tag_277\n      jumpi\n        /* \"Contracts\":1057:1070  numberOfUsers */\n      0x02\n      0x00\n        /* \"Contracts\":1057:1072  numberOfUsers++ */\n      dup2\n      sload\n      dup1\n      swap3\n      swap2\n      swap1\n      tag_278\n      swap1\n      tag_151\n      jump\t// in\n    tag_278:\n      swap2\n      swap1\n      pop\n      sstore\n      pop\n        /* \"Contracts\":1086:1099  userAddresses */\n      0x01\n        /* \"Contracts\":1105:1115  msg.sender */\n      caller\n        /* \"Contracts\":1086:1116  userAddresses.push(msg.sender) */\n      swap1\n      dup1\n      0x01\n      dup2\n      sload\n      add\n      dup1\n      dup3\n      sstore\n      dup1\n      swap2\n      pop\n      pop\n      0x01\n      swap1\n      sub\n      swap1\n      0x00\n      mstore\n      keccak256(0x00, 0x20)\n      add\n      0x00\n      swap1\n      swap2\n      swap1\n      swap2\n      swap1\n      swap2\n      0x0100\n      exp\n      dup2\n      sload\n      dup2\n      0xffffffffffffffffffffffffffffffffffffffff\n      mul\n      not\n      and\n      swap1\n      dup4\n      0xffffffffffffffffffffffffffffffffffffffff\n      and\n      mul\n      or\n      swap1\n      sstore\n      pop\n        /* \"Contracts\":1000:1127  if(users[msg.sender].createdContracts == 0){... */\n    tag_277:\n        /* \"Contracts\":1178:1179  0 */\n      0x00\n        /* \"Contracts\":1139:1147  referees */\n      0x06\n        /* \"Contracts\":1139:1157  referees[_referee] */\n      0x00\n        /* \"Contracts\":1148:1156  _referee */\n      dup7\n        /* \"Contracts\":1139:1157  referees[_referee] */\n      0xffffffffffffffffffffffffffffffffffffffff\n      and\n      0xffffffffffffffffffffffffffffffffffffffff\n      and\n      dup2\n      mstore\n      0x20\n      add\n      swap1\n      dup2\n      mstore\n      0x20\n      add\n      0x00\n      keccak256\n        /* \"Contracts\":1139:1174  referees[_referee].managedContracts */\n      0x00\n      add\n      sload\n        /* \"Contracts\":1139:1179  referees[_referee].managedContracts == 0 */\n      eq\n        /* \"Contracts\":1136:1268  if(referees[_referee].managedContracts == 0){... */\n      iszero\n      tag_280\n      jumpi\n        /* \"Contracts\":1194:1210  numberOfReferees */\n      0x07\n      0x00\n        /* \"Contracts\":1194:1212  numberOfReferees++ */\n      dup2\n      sload\n      dup1\n      swap3\n      swap2\n      swap1\n      tag_281\n      swap1\n      tag_151\n      jump\t// in\n    tag_281:\n      swap2\n      swap1\n      pop\n      sstore\n      pop\n        /* \"Contracts\":1226:1242  refereeAddresses */\n      0x08\n        /* \"Contracts\":1248:1256  _referee */\n      dup5\n        /* \"Contracts\":1226:1257  refereeAddresses.push(_referee) */\n      swap1\n      dup1\n      0x01\n      dup2\n      sload\n      add\n      dup1\n      dup3\n      sstore\n      dup1\n      swap2\n      pop\n      pop\n      0x01\n      swap1\n      sub\n      swap1\n      0x00\n      mstore\n      keccak256(0x00, 0x20)\n      add\n      0x00\n      swap1\n      swap2\n      swap1\n      swap2\n      swap1\n      swap2\n      0x0100\n      exp\n      dup2\n      sload\n      dup2\n      0xffffffffffffffffffffffffffffffffffffffff\n      mul\n      not\n      and\n      swap1\n      dup4\n      0xffffffffffffffffffffffffffffffffffffffff\n      and\n      mul\n      or\n      swap1\n      sstore\n      pop\n        /* \"Contracts\":1136:1268  if(referees[_referee].managedContracts == 0){... */\n    tag_280:\n        /* \"Contracts\":1277:1311  AccountabilityContract newContract */\n      0x00\n        /* \"Contracts\":1350:1359  msg.value */\n      callvalue\n        /* \"Contracts\":1361:1371  msg.sender */\n      caller\n        /* \"Contracts\":1373:1381  _referee */\n      dup7\n        /* \"Contracts\":1383:1388  _name */\n      dup7\n        /* \"Contracts\":1390:1402  _description */\n      dup7\n        /* \"Contracts\":1404:1421  _failureRecipient */\n      dup7\n        /* \"Contracts\":1423:1432  msg.value */\n      callvalue\n        /* \"Contracts\":1314:1433  (new AccountabilityContract){value: msg.value}(msg.sender, _referee, _name, _description, _failureRecipient, msg.value) */\n      mload(0x40)\n      tag_283\n      swap1\n      tag_284\n      jump\t// in\n    tag_283:\n      tag_285\n      swap7\n      swap6\n      swap5\n      swap4\n      swap3\n      swap2\n      swap1\n      tag_286\n      jump\t// in\n    tag_285:\n      mload(0x40)\n      dup1\n      swap2\n      sub\n      swap1\n      dup3\n      create\n      swap1\n      pop\n      dup1\n      iszero\n      dup1\n      iszero\n      tag_287\n      jumpi\n      returndatasize\n      0x00\n      dup1\n      returndatacopy\n      revert(0x00, returndatasize)\n    tag_287:\n      pop\n        /* \"Contracts\":1277:1433  AccountabilityContract newContract = (new AccountabilityContract){value: msg.value}(msg.sender, _referee, _name, _description, _failureRecipient, msg.value) */\n      swap1\n      pop\n        /* \"Contracts\":1443:1474  numberOfAccountabilityContracts */\n      0x04\n      0x00\n        /* \"Contracts\":1443:1476  numberOfAccountabilityContracts++ */\n      dup2\n      sload\n      dup1\n      swap3\n      swap2\n      swap1\n      tag_288\n      swap1\n      tag_151\n      jump\t// in\n    tag_288:\n      swap2\n      swap1\n      pop\n      sstore\n      pop\n        /* \"Contracts\":1486:1517  accountabilityContractAddresses */\n      0x03\n        /* \"Contracts\":1531:1542  newContract */\n      dup2\n        /* \"Contracts\":1486:1544  accountabilityContractAddresses.push(address(newContract)) */\n      swap1\n      dup1\n      0x01\n      dup2\n      sload\n      add\n      dup1\n      dup3\n      sstore\n      dup1\n      swap2\n      pop\n      pop\n      0x01\n      swap1\n      sub\n      swap1\n      0x00\n      mstore\n      keccak256(0x00, 0x20)\n      add\n      0x00\n      swap1\n      swap2\n      swap1\n      swap2\n      swap1\n      swap2\n      0x0100\n      exp\n      dup2\n      sload\n      dup2\n      0xffffffffffffffffffffffffffffffffffffffff\n      mul\n      not\n      and\n      swap1\n      dup4\n      0xffffffffffffffffffffffffffffffffffffffff\n      and\n      mul\n      or\n      swap1\n      sstore\n      pop\n        /* \"Contracts\":1575:1584  msg.value */\n      callvalue\n        /* \"Contracts\":1554:1573  totalEthInContracts */\n      0x05\n      0x00\n        /* \"Contracts\":1554:1584  totalEthInContracts+=msg.value */\n      dup3\n      dup3\n      sload\n      tag_290\n      swap2\n      swap1\n      tag_291\n      jump\t// in\n    tag_290:\n      swap3\n      pop\n      pop\n      dup2\n      swap1\n      sstore\n      pop\n        /* \"Contracts\":1594:1599  users */\n      0x00\n        /* \"Contracts\":1594:1611  users[msg.sender] */\n      dup1\n        /* \"Contracts\":1600:1610  msg.sender */\n      caller\n        /* \"Contracts\":1594:1611  users[msg.sender] */\n      0xffffffffffffffffffffffffffffffffffffffff\n      and\n      0xffffffffffffffffffffffffffffffffffffffff\n      and\n      dup2\n      mstore\n      0x20\n      add\n      swap1\n      dup2\n      mstore\n      0x20\n      add\n      0x00\n      keccak256\n        /* \"Contracts\":1594:1628  users[msg.sender].createdContracts */\n      0x00\n      add\n      0x00\n        /* \"Contracts\":1594:1630  users[msg.sender].createdContracts++ */\n      dup2\n      sload\n      dup1\n      swap3\n      swap2\n      swap1\n      tag_292\n      swap1\n      tag_151\n      jump\t// in\n    tag_292:\n      swap2\n      swap1\n      pop\n      sstore\n      pop\n        /* \"Contracts\":1640:1645  users */\n      0x00\n        /* \"Contracts\":1640:1657  users[msg.sender] */\n      dup1\n        /* \"Contracts\":1646:1656  msg.sender */\n      caller\n        /* \"Contracts\":1640:1657  users[msg.sender] */\n      0xffffffffffffffffffffffffffffffffffffffff\n      and\n      0xffffffffffffffffffffffffffffffffffffffff\n      and\n      dup2\n      mstore\n      0x20\n      add\n      swap1\n      dup2\n      mstore\n      0x20\n      add\n      0x00\n      keccak256\n        /* \"Contracts\":1640:1693  users[msg.sender].openAccountabilityContractAddresses */\n      0x01\n      add\n        /* \"Contracts\":1707:1718  newContract */\n      dup2\n        /* \"Contracts\":1640:1720  users[msg.sender].openAccountabilityContractAddresses.push(address(newContract)) */\n      swap1\n      dup1\n      0x01\n      dup2\n      sload\n      add\n      dup1\n      dup3\n      sstore\n      dup1\n      swap2\n      pop\n      pop\n      0x01\n      swap1\n      sub\n      swap1\n      0x00\n      mstore\n      keccak256(0x00, 0x20)\n      add\n      0x00\n      swap1\n      swap2\n      swap1\n      swap2\n      swap1\n      swap2\n      0x0100\n      exp\n      dup2\n      sload\n      dup2\n      0xffffffffffffffffffffffffffffffffffffffff\n      mul\n      not\n      and\n      swap1\n      dup4\n      0xffffffffffffffffffffffffffffffffffffffff\n      and\n      mul\n      or\n      swap1\n      sstore\n      pop\n        /* \"Contracts\":1730:1738  referees */\n      0x06\n        /* \"Contracts\":1730:1748  referees[_referee] */\n      0x00\n        /* \"Contracts\":1739:1747  _referee */\n      dup7\n        /* \"Contracts\":1730:1748  referees[_referee] */\n      0xffffffffffffffffffffffffffffffffffffffff\n      and\n      0xffffffffffffffffffffffffffffffffffffffff\n      and\n      dup2\n      mstore\n      0x20\n      add\n      swap1\n      dup2\n      mstore\n      0x20\n      add\n      0x00\n      keccak256\n        /* \"Contracts\":1730:1765  referees[_referee].managedContracts */\n      0x00\n      add\n      0x00\n        /* \"Contracts\":1730:1767  referees[_referee].managedContracts++ */\n      dup2\n      sload\n      dup1\n      swap3\n      swap2\n      swap1\n      tag_294\n      swap1\n      tag_151\n      jump\t// in\n    tag_294:\n      swap2\n      swap1\n      pop\n      sstore\n      pop\n        /* \"Contracts\":1777:1785  referees */\n      0x06\n        /* \"Contracts\":1777:1795  referees[_referee] */\n      0x00\n        /* \"Contracts\":1786:1794  _referee */\n      dup7\n        /* \"Contracts\":1777:1795  referees[_referee] */\n      0xffffffffffffffffffffffffffffffffffffffff\n      and\n      0xffffffffffffffffffffffffffffffffffffffff\n      and\n      dup2\n      mstore\n      0x20\n      add\n      swap1\n      dup2\n      mstore\n      0x20\n      add\n      0x00\n      keccak256\n        /* \"Contracts\":1777:1831  referees[_referee].openAccountabilityContractAddresses */\n      0x01\n      add\n        /* \"Contracts\":1845:1856  newContract */\n      dup2\n        /* \"Contracts\":1777:1858  referees[_referee].openAccountabilityContractAddresses.push(address(newContract)) */\n      swap1\n      dup1\n      0x01\n      dup2\n      sload\n      add\n      dup1\n      dup3\n      sstore\n      dup1\n      swap2\n      pop\n      pop\n      0x01\n      swap1\n      sub\n      swap1\n      0x00\n      mstore\n      keccak256(0x00, 0x20)\n      add\n      0x00\n      swap1\n      swap2\n      swap1\n      swap2\n      swap1\n      swap2\n      0x0100\n      exp\n      dup2\n      sload\n      dup2\n      0xffffffffffffffffffffffffffffffffffffffff\n      mul\n      not\n      and\n      swap1\n      dup4\n      0xffffffffffffffffffffffffffffffffffffffff\n      and\n      mul\n      or\n      swap1\n      sstore\n      pop\n        /* \"Contracts\":990:1865  {... */\n      pop\n        /* \"Contracts\":835:1865  function createAccountabilityContract(address _referee, string memory _name, string memory _description, address payable _failureRecipient) public payable {... */\n      pop\n      pop\n      pop\n      pop\n      jump\t// out\n        /* \"Contracts\":5625:6344  function moveOpenContractToClosedContractsForUser(address user, address contractAddress) private {... */\n    tag_180:\n        /* \"Contracts\":5732:5750  uint contractIndex */\n      0x00\n        /* \"Contracts\":5753:5799  getContractIndexForUser(user, contractAddress) */\n      tag_297\n        /* \"Contracts\":5777:5781  user */\n      dup4\n        /* \"Contracts\":5783:5798  contractAddress */\n      dup4\n        /* \"Contracts\":5753:5776  getContractIndexForUser */\n      tag_298\n        /* \"Contracts\":5753:5799  getContractIndexForUser(user, contractAddress) */\n      jump\t// in\n    tag_297:\n        /* \"Contracts\":5732:5799  uint contractIndex = getContractIndexForUser(user, contractAddress) */\n      swap1\n      pop\n        /* \"Contracts\":5809:5841  uint openContractAddressesLength */\n      0x00\n        /* \"Contracts\":5844:5849  users */\n      dup1\n        /* \"Contracts\":5844:5855  users[user] */\n      0x00\n        /* \"Contracts\":5850:5854  user */\n      dup6\n        /* \"Contracts\":5844:5855  users[user] */\n      0xffffffffffffffffffffffffffffffffffffffff\n      and\n      0xffffffffffffffffffffffffffffffffffffffff\n      and\n      dup2\n      mstore\n      0x20\n      add\n      swap1\n      dup2\n      mstore\n      0x20\n      add\n      0x00\n      keccak256\n        /* \"Contracts\":5844:5891  users[user].openAccountabilityContractAddresses */\n      0x01\n      add\n        /* \"Contracts\":5844:5898  users[user].openAccountabilityContractAddresses.length */\n      dup1\n      sload\n      swap1\n      pop\n        /* \"Contracts\":5809:5898  uint openContractAddressesLength = users[user].openAccountabilityContractAddresses.length */\n      swap1\n      pop\n        /* \"Contracts\":5913:5919  uint i */\n      0x00\n        /* \"Contracts\":5922:5935  contractIndex */\n      dup3\n        /* \"Contracts\":5913:5935  uint i = contractIndex */\n      swap1\n      pop\n        /* \"Contracts\":5908:6104  for (uint i = contractIndex; i<openContractAddressesLength-1; i++){... */\n    tag_299:\n        /* \"Contracts\":5967:5968  1 */\n      0x01\n        /* \"Contracts\":5939:5966  openContractAddressesLength */\n      dup3\n        /* \"Contracts\":5939:5968  openContractAddressesLength-1 */\n      tag_302\n      swap2\n      swap1\n      tag_136\n      jump\t// in\n    tag_302:\n        /* \"Contracts\":5937:5938  i */\n      dup2\n        /* \"Contracts\":5937:5968  i<openContractAddressesLength-1 */\n      lt\n        /* \"Contracts\":5908:6104  for (uint i = contractIndex; i<openContractAddressesLength-1; i++){... */\n      iszero\n      tag_300\n      jumpi\n        /* \"Contracts\":6041:6046  users */\n      0x00\n        /* \"Contracts\":6041:6052  users[user] */\n      dup1\n        /* \"Contracts\":6047:6051  user */\n      dup7\n        /* \"Contracts\":6041:6052  users[user] */\n      0xffffffffffffffffffffffffffffffffffffffff\n      and\n      0xffffffffffffffffffffffffffffffffffffffff\n      and\n      dup2\n      mstore\n      0x20\n      add\n      swap1\n      dup2\n      mstore\n      0x20\n      add\n      0x00\n      keccak256\n        /* \"Contracts\":6041:6088  users[user].openAccountabilityContractAddresses */\n      0x01\n      add\n        /* \"Contracts\":6091:6092  1 */\n      0x01\n        /* \"Contracts\":6089:6090  i */\n      dup3\n        /* \"Contracts\":6089:6092  i+1 */\n      tag_303\n      swap2\n      swap1\n      tag_291\n      jump\t// in\n    tag_303:\n        /* \"Contracts\":6041:6093  users[user].openAccountabilityContractAddresses[i+1] */\n      dup2\n      sload\n      dup2\n      lt\n      tag_304\n      jumpi\n      tag_305\n      tag_146\n      jump\t// in\n    tag_305:\n    tag_304:\n      swap1\n      0x00\n      mstore\n      keccak256(0x00, 0x20)\n      add\n      0x00\n      swap1\n      sload\n      swap1\n      0x0100\n      exp\n      swap1\n      div\n      0xffffffffffffffffffffffffffffffffffffffff\n      and\n        /* \"Contracts\":5988:5993  users */\n      0x00\n        /* \"Contracts\":5988:5999  users[user] */\n      dup1\n        /* \"Contracts\":5994:5998  user */\n      dup8\n        /* \"Contracts\":5988:5999  users[user] */\n      0xffffffffffffffffffffffffffffffffffffffff\n      and\n      0xffffffffffffffffffffffffffffffffffffffff\n      and\n      dup2\n      mstore\n      0x20\n      add\n      swap1\n      dup2\n      mstore\n      0x20\n      add\n      0x00\n      keccak256\n        /* \"Contracts\":5988:6035  users[user].openAccountabilityContractAddresses */\n      0x01\n      add\n        /* \"Contracts\":6036:6037  i */\n      dup3\n        /* \"Contracts\":5988:6038  users[user].openAccountabilityContractAddresses[i] */\n      dup2\n      sload\n      dup2\n      lt\n      tag_307\n      jumpi\n      tag_308\n      tag_146\n      jump\t// in\n    tag_308:\n    tag_307:\n      swap1\n      0x00\n      mstore\n      keccak256(0x00, 0x20)\n      add\n      0x00\n        /* \"Contracts\":5988:6093  users[user].openAccountabilityContractAddresses[i] = users[user].openAccountabilityContractAddresses[i+1] */\n      0x0100\n      exp\n      dup2\n      sload\n      dup2\n      0xffffffffffffffffffffffffffffffffffffffff\n      mul\n      not\n      and\n      swap1\n      dup4\n      0xffffffffffffffffffffffffffffffffffffffff\n      and\n      mul\n      or\n      swap1\n      sstore\n      pop\n        /* \"Contracts\":5970:5973  i++ */\n      dup1\n      dup1\n      tag_310\n      swap1\n      tag_151\n      jump\t// in\n    tag_310:\n      swap2\n      pop\n      pop\n        /* \"Contracts\":5908:6104  for (uint i = contractIndex; i<openContractAddressesLength-1; i++){... */\n      jump(tag_299)\n    tag_300:\n      pop\n        /* \"Contracts\":6113:6118  users */\n      0x00\n        /* \"Contracts\":6113:6124  users[user] */\n      dup1\n        /* \"Contracts\":6119:6123  user */\n      dup6\n        /* \"Contracts\":6113:6124  users[user] */\n      0xffffffffffffffffffffffffffffffffffffffff\n      and\n      0xffffffffffffffffffffffffffffffffffffffff\n      and\n      dup2\n      mstore\n      0x20\n      add\n      swap1\n      dup2\n      mstore\n      0x20\n      add\n      0x00\n      keccak256\n        /* \"Contracts\":6113:6162  users[user].closedAccountabilityContractAddresses */\n      0x02\n      add\n        /* \"Contracts\":6168:6173  users */\n      0x00\n        /* \"Contracts\":6168:6179  users[user] */\n      dup1\n        /* \"Contracts\":6174:6178  user */\n      dup7\n        /* \"Contracts\":6168:6179  users[user] */\n      0xffffffffffffffffffffffffffffffffffffffff\n      and\n      0xffffffffffffffffffffffffffffffffffffffff\n      and\n      dup2\n      mstore\n      0x20\n      add\n      swap1\n      dup2\n      mstore\n      0x20\n      add\n      0x00\n      keccak256\n        /* \"Contracts\":6168:6215  users[user].openAccountabilityContractAddresses */\n      0x01\n      add\n        /* \"Contracts\":6271:6272  1 */\n      0x01\n        /* \"Contracts\":6216:6221  users */\n      0x00\n        /* \"Contracts\":6216:6227  users[user] */\n      dup1\n        /* \"Contracts\":6222:6226  user */\n      dup9\n        /* \"Contracts\":6216:6227  users[user] */\n      0xffffffffffffffffffffffffffffffffffffffff\n      and\n      0xffffffffffffffffffffffffffffffffffffffff\n      and\n      dup2\n      mstore\n      0x20\n      add\n      swap1\n      dup2\n      mstore\n      0x20\n      add\n      0x00\n      keccak256\n        /* \"Contracts\":6216:6263  users[user].openAccountabilityContractAddresses */\n      0x01\n      add\n        /* \"Contracts\":6216:6270  users[user].openAccountabilityContractAddresses.length */\n      dup1\n      sload\n      swap1\n      pop\n        /* \"Contracts\":6216:6272  users[user].openAccountabilityContractAddresses.length-1 */\n      tag_311\n      swap2\n      swap1\n      tag_136\n      jump\t// in\n    tag_311:\n        /* \"Contracts\":6168:6273  users[user].openAccountabilityContractAddresses[users[user].openAccountabilityContractAddresses.length-1] */\n      dup2\n      sload\n      dup2\n      lt\n      tag_312\n      jumpi\n      tag_313\n      tag_146\n      jump\t// in\n    tag_313:\n    tag_312:\n      swap1\n      0x00\n      mstore\n      keccak256(0x00, 0x20)\n      add\n      0x00\n      swap1\n      sload\n      swap1\n      0x0100\n      exp\n      swap1\n      div\n      0xffffffffffffffffffffffffffffffffffffffff\n      and\n        /* \"Contracts\":6113:6274  users[user].closedAccountabilityContractAddresses.push(users[user].openAccountabilityContractAddresses[users[user].openAccountabilityContractAddresses.length-1]) */\n      swap1\n      dup1\n      0x01\n      dup2\n      sload\n      add\n      dup1\n      dup3\n      sstore\n      dup1\n      swap2\n      pop\n      pop\n      0x01\n      swap1\n      sub\n      swap1\n      0x00\n      mstore\n      keccak256(0x00, 0x20)\n      add\n      0x00\n      swap1\n      swap2\n      swap1\n      swap2\n      swap1\n      swap2\n      0x0100\n      exp\n      dup2\n      sload\n      dup2\n      0xffffffffffffffffffffffffffffffffffffffff\n      mul\n      not\n      and\n      swap1\n      dup4\n      0xffffffffffffffffffffffffffffffffffffffff\n      and\n      mul\n      or\n      swap1\n      sstore\n      pop\n        /* \"Contracts\":6284:6289  users */\n      0x00\n        /* \"Contracts\":6284:6295  users[user] */\n      dup1\n        /* \"Contracts\":6290:6294  user */\n      dup6\n        /* \"Contracts\":6284:6295  users[user] */\n      0xffffffffffffffffffffffffffffffffffffffff\n      and\n      0xffffffffffffffffffffffffffffffffffffffff\n      and\n      dup2\n      mstore\n      0x20\n      add\n      swap1\n      dup2\n      mstore\n      0x20\n      add\n      0x00\n      keccak256\n        /* \"Contracts\":6284:6331  users[user].openAccountabilityContractAddresses */\n      0x01\n      add\n        /* \"Contracts\":6284:6337  users[user].openAccountabilityContractAddresses.pop() */\n      dup1\n      sload\n      dup1\n      tag_316\n      jumpi\n      tag_317\n      tag_318\n      jump\t// in\n    tag_317:\n    tag_316:\n      0x01\n      swap1\n      sub\n      dup2\n      dup2\n      swap1\n      0x00\n      mstore\n      keccak256(0x00, 0x20)\n      add\n      exp(0x0100, 0x00)\n      dup2\n      sload\n      swap1\n      0xffffffffffffffffffffffffffffffffffffffff\n      mul\n      not\n      and\n      swap1\n      sstore\n      swap1\n      sstore\n        /* \"Contracts\":5722:6344  {... */\n      pop\n      pop\n        /* \"Contracts\":5625:6344  function moveOpenContractToClosedContractsForUser(address user, address contractAddress) private {... */\n      pop\n      pop\n      jump\t// out\n        /* \"Contracts\":6779:7480  function moveOpenContractToClosedContractsForReferee(address referee, address contractAddress) private {... */\n    tag_188:\n        /* \"Contracts\":6892:6910  uint contractIndex */\n      0x00\n        /* \"Contracts\":6913:6965  getContractIndexForReferee(referee, contractAddress) */\n      tag_321\n        /* \"Contracts\":6940:6947  referee */\n      dup4\n        /* \"Contracts\":6949:6964  contractAddress */\n      dup4\n        /* \"Contracts\":6913:6939  getContractIndexForReferee */\n      tag_322\n        /* \"Contracts\":6913:6965  getContractIndexForReferee(referee, contractAddress) */\n      jump\t// in\n    tag_321:\n        /* \"Contracts\":6892:6965  uint contractIndex = getContractIndexForReferee(referee, contractAddress) */\n      swap1\n      pop\n        /* \"Contracts\":6980:6986  uint i */\n      0x00\n        /* \"Contracts\":6989:7002  contractIndex */\n      dup2\n        /* \"Contracts\":6980:7002  uint i = contractIndex */\n      swap1\n      pop\n        /* \"Contracts\":6975:7216  for (uint i = contractIndex; i<referees[referee].openAccountabilityContractAddresses.length-1; i++){... */\n    tag_323:\n        /* \"Contracts\":7067:7068  1 */\n      0x01\n        /* \"Contracts\":7006:7014  referees */\n      0x06\n        /* \"Contracts\":7006:7023  referees[referee] */\n      0x00\n        /* \"Contracts\":7015:7022  referee */\n      dup7\n        /* \"Contracts\":7006:7023  referees[referee] */\n      0xffffffffffffffffffffffffffffffffffffffff\n      and\n      0xffffffffffffffffffffffffffffffffffffffff\n      and\n      dup2\n      mstore\n      0x20\n      add\n      swap1\n      dup2\n      mstore\n      0x20\n      add\n      0x00\n      keccak256\n        /* \"Contracts\":7006:7059  referees[referee].openAccountabilityContractAddresses */\n      0x01\n      add\n        /* \"Contracts\":7006:7066  referees[referee].openAccountabilityContractAddresses.length */\n      dup1\n      sload\n      swap1\n      pop\n        /* \"Contracts\":7006:7068  referees[referee].openAccountabilityContractAddresses.length-1 */\n      tag_326\n      swap2\n      swap1\n      tag_136\n      jump\t// in\n    tag_326:\n        /* \"Contracts\":7004:7005  i */\n      dup2\n        /* \"Contracts\":7004:7068  i<referees[referee].openAccountabilityContractAddresses.length-1 */\n      lt\n        /* \"Contracts\":6975:7216  for (uint i = contractIndex; i<referees[referee].openAccountabilityContractAddresses.length-1; i++){... */\n      iszero\n      tag_324\n      jumpi\n        /* \"Contracts\":7147:7155  referees */\n      0x06\n        /* \"Contracts\":7147:7164  referees[referee] */\n      0x00\n        /* \"Contracts\":7156:7163  referee */\n      dup6\n        /* \"Contracts\":7147:7164  referees[referee] */\n      0xffffffffffffffffffffffffffffffffffffffff\n      and\n      0xffffffffffffffffffffffffffffffffffffffff\n      and\n      dup2\n      mstore\n      0x20\n      add\n      swap1\n      dup2\n      mstore\n      0x20\n      add\n      0x00\n      keccak256\n        /* \"Contracts\":7147:7200  referees[referee].openAccountabilityContractAddresses */\n      0x01\n      add\n        /* \"Contracts\":7203:7204  1 */\n      0x01\n        /* \"Contracts\":7201:7202  i */\n      dup3\n        /* \"Contracts\":7201:7204  i+1 */\n      tag_327\n      swap2\n      swap1\n      tag_291\n      jump\t// in\n    tag_327:\n        /* \"Contracts\":7147:7205  referees[referee].openAccountabilityContractAddresses[i+1] */\n      dup2\n      sload\n      dup2\n      lt\n      tag_328\n      jumpi\n      tag_329\n      tag_146\n      jump\t// in\n    tag_329:\n    tag_328:\n      swap1\n      0x00\n      mstore\n      keccak256(0x00, 0x20)\n      add\n      0x00\n      swap1\n      sload\n      swap1\n      0x0100\n      exp\n      swap1\n      div\n      0xffffffffffffffffffffffffffffffffffffffff\n      and\n        /* \"Contracts\":7088:7096  referees */\n      0x06\n        /* \"Contracts\":7088:7105  referees[referee] */\n      0x00\n        /* \"Contracts\":7097:7104  referee */\n      dup7\n        /* \"Contracts\":7088:7105  referees[referee] */\n      0xffffffffffffffffffffffffffffffffffffffff\n      and\n      0xffffffffffffffffffffffffffffffffffffffff\n      and\n      dup2\n      mstore\n      0x20\n      add\n      swap1\n      dup2\n      mstore\n      0x20\n      add\n      0x00\n      keccak256\n        /* \"Contracts\":7088:7141  referees[referee].openAccountabilityContractAddresses */\n      0x01\n      add\n        /* \"Contracts\":7142:7143  i */\n      dup3\n        /* \"Contracts\":7088:7144  referees[referee].openAccountabilityContractAddresses[i] */\n      dup2\n      sload\n      dup2\n      lt\n      tag_331\n      jumpi\n      tag_332\n      tag_146\n      jump\t// in\n    tag_332:\n    tag_331:\n      swap1\n      0x00\n      mstore\n      keccak256(0x00, 0x20)\n      add\n      0x00\n        /* \"Contracts\":7088:7205  referees[referee].openAccountabilityContractAddresses[i] = referees[referee].openAccountabilityContractAddresses[i+1] */\n      0x0100\n      exp\n      dup2\n      sload\n      dup2\n      0xffffffffffffffffffffffffffffffffffffffff\n      mul\n      not\n      and\n      swap1\n      dup4\n      0xffffffffffffffffffffffffffffffffffffffff\n      and\n      mul\n      or\n      swap1\n      sstore\n      pop\n        /* \"Contracts\":7070:7073  i++ */\n      dup1\n      dup1\n      tag_334\n      swap1\n      tag_151\n      jump\t// in\n    tag_334:\n      swap2\n      pop\n      pop\n        /* \"Contracts\":6975:7216  for (uint i = contractIndex; i<referees[referee].openAccountabilityContractAddresses.length-1; i++){... */\n      jump(tag_323)\n    tag_324:\n      pop\n        /* \"Contracts\":7225:7233  referees */\n      0x06\n        /* \"Contracts\":7225:7242  referees[referee] */\n      0x00\n        /* \"Contracts\":7234:7241  referee */\n      dup5\n        /* \"Contracts\":7225:7242  referees[referee] */\n      0xffffffffffffffffffffffffffffffffffffffff\n      and\n      0xffffffffffffffffffffffffffffffffffffffff\n      and\n      dup2\n      mstore\n      0x20\n      add\n      swap1\n      dup2\n      mstore\n      0x20\n      add\n      0x00\n      keccak256\n        /* \"Contracts\":7225:7280  referees[referee].closedAccountabilityContractAddresses */\n      0x02\n      add\n        /* \"Contracts\":7286:7294  referees */\n      0x06\n        /* \"Contracts\":7286:7303  referees[referee] */\n      0x00\n        /* \"Contracts\":7295:7302  referee */\n      dup6\n        /* \"Contracts\":7286:7303  referees[referee] */\n      0xffffffffffffffffffffffffffffffffffffffff\n      and\n      0xffffffffffffffffffffffffffffffffffffffff\n      and\n      dup2\n      mstore\n      0x20\n      add\n      swap1\n      dup2\n      mstore\n      0x20\n      add\n      0x00\n      keccak256\n        /* \"Contracts\":7286:7339  referees[referee].openAccountabilityContractAddresses */\n      0x01\n      add\n        /* \"Contracts\":7401:7402  1 */\n      0x01\n        /* \"Contracts\":7340:7348  referees */\n      0x06\n        /* \"Contracts\":7340:7357  referees[referee] */\n      0x00\n        /* \"Contracts\":7349:7356  referee */\n      dup8\n        /* \"Contracts\":7340:7357  referees[referee] */\n      0xffffffffffffffffffffffffffffffffffffffff\n      and\n      0xffffffffffffffffffffffffffffffffffffffff\n      and\n      dup2\n      mstore\n      0x20\n      add\n      swap1\n      dup2\n      mstore\n      0x20\n      add\n      0x00\n      keccak256\n        /* \"Contracts\":7340:7393  referees[referee].openAccountabilityContractAddresses */\n      0x01\n      add\n        /* \"Contracts\":7340:7400  referees[referee].openAccountabilityContractAddresses.length */\n      dup1\n      sload\n      swap1\n      pop\n        /* \"Contracts\":7340:7402  referees[referee].openAccountabilityContractAddresses.length-1 */\n      tag_335\n      swap2\n      swap1\n      tag_136\n      jump\t// in\n    tag_335:\n        /* \"Contracts\":7286:7403  referees[referee].openAccountabilityContractAddresses[referees[referee].openAccountabilityContractAddresses.length-1] */\n      dup2\n      sload\n      dup2\n      lt\n      tag_336\n      jumpi\n      tag_337\n      tag_146\n      jump\t// in\n    tag_337:\n    tag_336:\n      swap1\n      0x00\n      mstore\n      keccak256(0x00, 0x20)\n      add\n      0x00\n      swap1\n      sload\n      swap1\n      0x0100\n      exp\n      swap1\n      div\n      0xffffffffffffffffffffffffffffffffffffffff\n      and\n        /* \"Contracts\":7225:7404  referees[referee].closedAccountabilityContractAddresses.push(referees[referee].openAccountabilityContractAddresses[referees[referee].openAccountabilityContractAddresses.length-1]) */\n      swap1\n      dup1\n      0x01\n      dup2\n      sload\n      add\n      dup1\n      dup3\n      sstore\n      dup1\n      swap2\n      pop\n      pop\n      0x01\n      swap1\n      sub\n      swap1\n      0x00\n      mstore\n      keccak256(0x00, 0x20)\n      add\n      0x00\n      swap1\n      swap2\n      swap1\n      swap2\n      swap1\n      swap2\n      0x0100\n      exp\n      dup2\n      sload\n      dup2\n      0xffffffffffffffffffffffffffffffffffffffff\n      mul\n      not\n      and\n      swap1\n      dup4\n      0xffffffffffffffffffffffffffffffffffffffff\n      and\n      mul\n      or\n      swap1\n      sstore\n      pop\n        /* \"Contracts\":7414:7422  referees */\n      0x06\n        /* \"Contracts\":7414:7431  referees[referee] */\n      0x00\n        /* \"Contracts\":7423:7430  referee */\n      dup5\n        /* \"Contracts\":7414:7431  referees[referee] */\n      0xffffffffffffffffffffffffffffffffffffffff\n      and\n      0xffffffffffffffffffffffffffffffffffffffff\n      and\n      dup2\n      mstore\n      0x20\n      add\n      swap1\n      dup2\n      mstore\n      0x20\n      add\n      0x00\n      keccak256\n        /* \"Contracts\":7414:7467  referees[referee].openAccountabilityContractAddresses */\n      0x01\n      add\n        /* \"Contracts\":7414:7473  referees[referee].openAccountabilityContractAddresses.pop() */\n      dup1\n      sload\n      dup1\n      tag_340\n      jumpi\n      tag_341\n      tag_318\n      jump\t// in\n    tag_341:\n    tag_340:\n      0x01\n      swap1\n      sub\n      dup2\n      dup2\n      swap1\n      0x00\n      mstore\n      keccak256(0x00, 0x20)\n      add\n      exp(0x0100, 0x00)\n      dup2\n      sload\n      swap1\n      0xffffffffffffffffffffffffffffffffffffffff\n      mul\n      not\n      and\n      swap1\n      sstore\n      swap1\n      sstore\n        /* \"Contracts\":6882:7480  {... */\n      pop\n        /* \"Contracts\":6779:7480  function moveOpenContractToClosedContractsForReferee(address referee, address contractAddress) private {... */\n      pop\n      pop\n      jump\t// out\n        /* \"Contracts\":5213:5619  function getContractIndexForUser(address user, address contractAddress) view private returns (uint){... */\n    tag_298:\n        /* \"Contracts\":5307:5311  uint */\n      0x00\n        /* \"Contracts\":5322:5340  uint contractIndex */\n      dup1\n        /* \"Contracts\":5355:5361  uint i */\n      0x00\n        /* \"Contracts\":5350:5583  for (uint i = 0; i<=users[user].openAccountabilityContractAddresses.length-1; i++){... */\n    tag_344:\n        /* \"Contracts\":5425:5426  1 */\n      0x01\n        /* \"Contracts\":5370:5375  users */\n      0x00\n        /* \"Contracts\":5370:5381  users[user] */\n      dup1\n        /* \"Contracts\":5376:5380  user */\n      dup8\n        /* \"Contracts\":5370:5381  users[user] */\n      0xffffffffffffffffffffffffffffffffffffffff\n      and\n      0xffffffffffffffffffffffffffffffffffffffff\n      and\n      dup2\n      mstore\n      0x20\n      add\n      swap1\n      dup2\n      mstore\n      0x20\n      add\n      0x00\n      keccak256\n        /* \"Contracts\":5370:5417  users[user].openAccountabilityContractAddresses */\n      0x01\n      add\n        /* \"Contracts\":5370:5424  users[user].openAccountabilityContractAddresses.length */\n      dup1\n      sload\n      swap1\n      pop\n        /* \"Contracts\":5370:5426  users[user].openAccountabilityContractAddresses.length-1 */\n      tag_347\n      swap2\n      swap1\n      tag_136\n      jump\t// in\n    tag_347:\n        /* \"Contracts\":5367:5368  i */\n      dup2\n        /* \"Contracts\":5367:5426  i<=users[user].openAccountabilityContractAddresses.length-1 */\n      gt\n        /* \"Contracts\":5350:5583  for (uint i = 0; i<=users[user].openAccountabilityContractAddresses.length-1; i++){... */\n      tag_345\n      jumpi\n        /* \"Contracts\":5503:5518  contractAddress */\n      dup4\n        /* \"Contracts\":5449:5518  users[user].openAccountabilityContractAddresses[i] == contractAddress */\n      0xffffffffffffffffffffffffffffffffffffffff\n      and\n        /* \"Contracts\":5449:5454  users */\n      0x00\n        /* \"Contracts\":5449:5460  users[user] */\n      dup1\n        /* \"Contracts\":5455:5459  user */\n      dup8\n        /* \"Contracts\":5449:5460  users[user] */\n      0xffffffffffffffffffffffffffffffffffffffff\n      and\n      0xffffffffffffffffffffffffffffffffffffffff\n      and\n      dup2\n      mstore\n      0x20\n      add\n      swap1\n      dup2\n      mstore\n      0x20\n      add\n      0x00\n      keccak256\n        /* \"Contracts\":5449:5496  users[user].openAccountabilityContractAddresses */\n      0x01\n      add\n        /* \"Contracts\":5497:5498  i */\n      dup3\n        /* \"Contracts\":5449:5499  users[user].openAccountabilityContractAddresses[i] */\n      dup2\n      sload\n      dup2\n      lt\n      tag_348\n      jumpi\n      tag_349\n      tag_146\n      jump\t// in\n    tag_349:\n    tag_348:\n      swap1\n      0x00\n      mstore\n      keccak256(0x00, 0x20)\n      add\n      0x00\n      swap1\n      sload\n      swap1\n      0x0100\n      exp\n      swap1\n      div\n      0xffffffffffffffffffffffffffffffffffffffff\n      and\n        /* \"Contracts\":5449:5518  users[user].openAccountabilityContractAddresses[i] == contractAddress */\n      0xffffffffffffffffffffffffffffffffffffffff\n      and\n      eq\n        /* \"Contracts\":5446:5573  if(users[user].openAccountabilityContractAddresses[i] == contractAddress){... */\n      iszero\n      tag_351\n      jumpi\n        /* \"Contracts\":5553:5554  i */\n      dup1\n        /* \"Contracts\":5537:5554  contractIndex = i */\n      swap2\n      pop\n        /* \"Contracts\":5446:5573  if(users[user].openAccountabilityContractAddresses[i] == contractAddress){... */\n    tag_351:\n        /* \"Contracts\":5428:5431  i++ */\n      dup1\n      dup1\n      tag_352\n      swap1\n      tag_151\n      jump\t// in\n    tag_352:\n      swap2\n      pop\n      pop\n        /* \"Contracts\":5350:5583  for (uint i = 0; i<=users[user].openAccountabilityContractAddresses.length-1; i++){... */\n      jump(tag_344)\n    tag_345:\n      pop\n        /* \"Contracts\":5599:5612  contractIndex */\n      dup1\n        /* \"Contracts\":5592:5612  return contractIndex */\n      swap2\n      pop\n      pop\n        /* \"Contracts\":5213:5619  function getContractIndexForUser(address user, address contractAddress) view private returns (uint){... */\n      swap3\n      swap2\n      pop\n      pop\n      jump\t// out\n        /* \"Contracts\":6352:6772  function getContractIndexForReferee(address referee, address contractAddress) view private returns (uint){... */\n    tag_322:\n        /* \"Contracts\":6452:6456  uint */\n      0x00\n        /* \"Contracts\":6467:6485  uint contractIndex */\n      dup1\n        /* \"Contracts\":6500:6506  uint i */\n      0x00\n        /* \"Contracts\":6495:6736  for (uint i = 0; i<=referees[referee].openAccountabilityContractAddresses.length-1; i++){... */\n    tag_354:\n        /* \"Contracts\":6576:6577  1 */\n      0x01\n        /* \"Contracts\":6515:6523  referees */\n      0x06\n        /* \"Contracts\":6515:6532  referees[referee] */\n      0x00\n        /* \"Contracts\":6524:6531  referee */\n      dup8\n        /* \"Contracts\":6515:6532  referees[referee] */\n      0xffffffffffffffffffffffffffffffffffffffff\n      and\n      0xffffffffffffffffffffffffffffffffffffffff\n      and\n      dup2\n      mstore\n      0x20\n      add\n      swap1\n      dup2\n      mstore\n      0x20\n      add\n      0x00\n      keccak256\n        /* \"Contracts\":6515:6568  referees[referee].openAccountabilityContractAddresses */\n      0x01\n      add\n        /* \"Contracts\":6515:6575  referees[referee].openAccountabilityContractAddresses.length */\n      dup1\n      sload\n      swap1\n      pop\n        /* \"Contracts\":6515:6577  referees[referee].openAccountabilityContractAddresses.length-1 */\n      tag_357\n      swap2\n      swap1\n      tag_136\n      jump\t// in\n    tag_357:\n        /* \"Contracts\":6512:6513  i */\n      dup2\n        /* \"Contracts\":6512:6577  i<=referees[referee].openAccountabilityContractAddresses.length-1 */\n      gt\n        /* \"Contracts\":6495:6736  for (uint i = 0; i<=referees[referee].openAccountabilityContractAddresses.length-1; i++){... */\n      tag_355\n      jumpi\n        /* \"Contracts\":6660:6675  contractAddress */\n      dup4\n        /* \"Contracts\":6600:6675  referees[referee].openAccountabilityContractAddresses[i] == contractAddress */\n      0xffffffffffffffffffffffffffffffffffffffff\n      and\n        /* \"Contracts\":6600:6608  referees */\n      0x06\n        /* \"Contracts\":6600:6617  referees[referee] */\n      0x00\n        /* \"Contracts\":6609:6616  referee */\n      dup8\n        /* \"Contracts\":6600:6617  referees[referee] */\n      0xffffffffffffffffffffffffffffffffffffffff\n      and\n      0xffffffffffffffffffffffffffffffffffffffff\n      and\n      dup2\n      mstore\n      0x20\n      add\n      swap1\n      dup2\n      mstore\n      0x20\n      add\n      0x00\n      keccak256\n        /* \"Contracts\":6600:6653  referees[referee].openAccountabilityContractAddresses */\n      0x01\n      add\n        /* \"Contracts\":6654:6655  i */\n      dup3\n        /* \"Contracts\":6600:6656  referees[referee].openAccountabilityContractAddresses[i] */\n      dup2\n      sload\n      dup2\n      lt\n      tag_358\n      jumpi\n      tag_359\n      tag_146\n      jump\t// in\n    tag_359:\n    tag_358:\n      swap1\n      0x00\n      mstore\n      keccak256(0x00, 0x20)\n      add\n      0x00\n      swap1\n      sload\n      swap1\n      0x0100\n      exp\n      swap1\n      div\n      0xffffffffffffffffffffffffffffffffffffffff\n      and\n        /* \"Contracts\":6600:6675  referees[referee].openAccountabilityContractAddresses[i] == contractAddress */\n      0xffffffffffffffffffffffffffffffffffffffff\n      and\n      eq\n        /* \"Contracts\":6597:6726  if(referees[referee].openAccountabilityContractAddresses[i] == contractAddress){... */\n      iszero\n      tag_361\n      jumpi\n        /* \"Contracts\":6710:6711  i */\n      dup1\n        /* \"Contracts\":6694:6711  contractIndex = i */\n      swap2\n      pop\n        /* \"Contracts\":6597:6726  if(referees[referee].openAccountabilityContractAddresses[i] == contractAddress){... */\n    tag_361:\n        /* \"Contracts\":6579:6582  i++ */\n      dup1\n      dup1\n      tag_362\n      swap1\n      tag_151\n      jump\t// in\n    tag_362:\n      swap2\n      pop\n      pop\n        /* \"Contracts\":6495:6736  for (uint i = 0; i<=referees[referee].openAccountabilityContractAddresses.length-1; i++){... */\n      jump(tag_354)\n    tag_355:\n      pop\n        /* \"Contracts\":6752:6765  contractIndex */\n      dup1\n        /* \"Contracts\":6745:6765  return contractIndex */\n      swap2\n      pop\n      pop\n        /* \"Contracts\":6352:6772  function getContractIndexForReferee(address referee, address contractAddress) view private returns (uint){... */\n      swap3\n      swap2\n      pop\n      pop\n      jump\t// out\n    tag_245:\n      dataSize(sub_0)\n      dup1\n      dataOffset(sub_0)\n      dup4\n      codecopy\n      add\n      swap1\n      jump\t// out\n    tag_284:\n      dataSize(sub_1)\n      dup1\n      dataOffset(sub_1)\n      dup4\n      codecopy\n      add\n      swap1\n      jump\t// out\n        /* \"#utility.yul\":7:82   */\n    tag_363:\n        /* \"#utility.yul\":40:46   */\n      0x00\n        /* \"#utility.yul\":73:75   */\n      0x40\n        /* \"#utility.yul\":67:76   */\n      mload\n        /* \"#utility.yul\":57:76   */\n      swap1\n      pop\n        /* \"#utility.yul\":7:82   */\n      swap1\n      jump\t// out\n        /* \"#utility.yul\":88:205   */\n    tag_364:\n        /* \"#utility.yul\":197:198   */\n      0x00\n        /* \"#utility.yul\":194:195   */\n      dup1\n        /* \"#utility.yul\":187:199   */\n      revert\n        /* \"#utility.yul\":211:328   */\n    tag_365:\n        /* \"#utility.yul\":320:321   */\n      0x00\n        /* \"#utility.yul\":317:318   */\n      dup1\n        /* \"#utility.yul\":310:322   */\n      revert\n        /* \"#utility.yul\":334:411   */\n    tag_366:\n        /* \"#utility.yul\":371:378   */\n      0x00\n        /* \"#utility.yul\":400:405   */\n      dup2\n        /* \"#utility.yul\":389:405   */\n      swap1\n      pop\n        /* \"#utility.yul\":334:411   */\n      swap2\n      swap1\n      pop\n      jump\t// out\n        /* \"#utility.yul\":417:539   */\n    tag_367:\n        /* \"#utility.yul\":490:514   */\n      tag_426\n        /* \"#utility.yul\":508:513   */\n      dup2\n        /* \"#utility.yul\":490:514   */\n      tag_366\n      jump\t// in\n    tag_426:\n        /* \"#utility.yul\":483:488   */\n      dup2\n        /* \"#utility.yul\":480:515   */\n      eq\n        /* \"#utility.yul\":470:533   */\n      tag_427\n      jumpi\n        /* \"#utility.yul\":529:530   */\n      0x00\n        /* \"#utility.yul\":526:527   */\n      dup1\n        /* \"#utility.yul\":519:531   */\n      revert\n        /* \"#utility.yul\":470:533   */\n    tag_427:\n        /* \"#utility.yul\":417:539   */\n      pop\n      jump\t// out\n        /* \"#utility.yul\":545:684   */\n    tag_368:\n        /* \"#utility.yul\":591:596   */\n      0x00\n        /* \"#utility.yul\":629:635   */\n      dup2\n        /* \"#utility.yul\":616:636   */\n      calldataload\n        /* \"#utility.yul\":607:636   */\n      swap1\n      pop\n        /* \"#utility.yul\":645:678   */\n      tag_429\n        /* \"#utility.yul\":672:677   */\n      dup2\n        /* \"#utility.yul\":645:678   */\n      tag_367\n      jump\t// in\n    tag_429:\n        /* \"#utility.yul\":545:684   */\n      swap3\n      swap2\n      pop\n      pop\n      jump\t// out\n        /* \"#utility.yul\":690:1164   */\n    tag_29:\n        /* \"#utility.yul\":758:764   */\n      0x00\n        /* \"#utility.yul\":766:772   */\n      dup1\n        /* \"#utility.yul\":815:817   */\n      0x40\n        /* \"#utility.yul\":803:812   */\n      dup4\n        /* \"#utility.yul\":794:801   */\n      dup6\n        /* \"#utility.yul\":790:813   */\n      sub\n        /* \"#utility.yul\":786:818   */\n      slt\n        /* \"#utility.yul\":783:902   */\n      iszero\n      tag_431\n      jumpi\n        /* \"#utility.yul\":821:900   */\n      tag_432\n      tag_364\n      jump\t// in\n    tag_432:\n        /* \"#utility.yul\":783:902   */\n    tag_431:\n        /* \"#utility.yul\":941:942   */\n      0x00\n        /* \"#utility.yul\":966:1019   */\n      tag_433\n        /* \"#utility.yul\":1011:1018   */\n      dup6\n        /* \"#utility.yul\":1002:1008   */\n      dup3\n        /* \"#utility.yul\":991:1000   */\n      dup7\n        /* \"#utility.yul\":987:1009   */\n      add\n        /* \"#utility.yul\":966:1019   */\n      tag_368\n      jump\t// in\n    tag_433:\n        /* \"#utility.yul\":956:1019   */\n      swap3\n      pop\n        /* \"#utility.yul\":912:1029   */\n      pop\n        /* \"#utility.yul\":1068:1070   */\n      0x20\n        /* \"#utility.yul\":1094:1147   */\n      tag_434\n        /* \"#utility.yul\":1139:1146   */\n      dup6\n        /* \"#utility.yul\":1130:1136   */\n      dup3\n        /* \"#utility.yul\":1119:1128   */\n      dup7\n        /* \"#utility.yul\":1115:1137   */\n      add\n        /* \"#utility.yul\":1094:1147   */\n      tag_368\n      jump\t// in\n    tag_434:\n        /* \"#utility.yul\":1084:1147   */\n      swap2\n      pop\n        /* \"#utility.yul\":1039:1157   */\n      pop\n        /* \"#utility.yul\":690:1164   */\n      swap3\n      pop\n      swap3\n      swap1\n      pop\n      jump\t// out\n        /* \"#utility.yul\":1170:1284   */\n    tag_369:\n        /* \"#utility.yul\":1237:1243   */\n      0x00\n        /* \"#utility.yul\":1271:1276   */\n      dup2\n        /* \"#utility.yul\":1265:1277   */\n      mload\n        /* \"#utility.yul\":1255:1277   */\n      swap1\n      pop\n        /* \"#utility.yul\":1170:1284   */\n      swap2\n      swap1\n      pop\n      jump\t// out\n        /* \"#utility.yul\":1290:1474   */\n    tag_370:\n        /* \"#utility.yul\":1389:1400   */\n      0x00\n        /* \"#utility.yul\":1423:1429   */\n      dup3\n        /* \"#utility.yul\":1418:1421   */\n      dup3\n        /* \"#utility.yul\":1411:1430   */\n      mstore\n        /* \"#utility.yul\":1463:1467   */\n      0x20\n        /* \"#utility.yul\":1458:1461   */\n      dup3\n        /* \"#utility.yul\":1454:1468   */\n      add\n        /* \"#utility.yul\":1439:1468   */\n      swap1\n      pop\n        /* \"#utility.yul\":1290:1474   */\n      swap3\n      swap2\n      pop\n      pop\n      jump\t// out\n        /* \"#utility.yul\":1480:1612   */\n    tag_371:\n        /* \"#utility.yul\":1547:1551   */\n      0x00\n        /* \"#utility.yul\":1570:1573   */\n      dup2\n        /* \"#utility.yul\":1562:1573   */\n      swap1\n      pop\n        /* \"#utility.yul\":1600:1604   */\n      0x20\n        /* \"#utility.yul\":1595:1598   */\n      dup3\n        /* \"#utility.yul\":1591:1605   */\n      add\n        /* \"#utility.yul\":1583:1605   */\n      swap1\n      pop\n        /* \"#utility.yul\":1480:1612   */\n      swap2\n      swap1\n      pop\n      jump\t// out\n        /* \"#utility.yul\":1618:1744   */\n    tag_372:\n        /* \"#utility.yul\":1655:1662   */\n      0x00\n        /* \"#utility.yul\":1695:1737   */\n      0xffffffffffffffffffffffffffffffffffffffff\n        /* \"#utility.yul\":1688:1693   */\n      dup3\n        /* \"#utility.yul\":1684:1738   */\n      and\n        /* \"#utility.yul\":1673:1738   */\n      swap1\n      pop\n        /* \"#utility.yul\":1618:1744   */\n      swap2\n      swap1\n      pop\n      jump\t// out\n        /* \"#utility.yul\":1750:1846   */\n    tag_373:\n        /* \"#utility.yul\":1787:1794   */\n      0x00\n        /* \"#utility.yul\":1816:1840   */\n      tag_440\n        /* \"#utility.yul\":1834:1839   */\n      dup3\n        /* \"#utility.yul\":1816:1840   */\n      tag_372\n      jump\t// in\n    tag_440:\n        /* \"#utility.yul\":1805:1840   */\n      swap1\n      pop\n        /* \"#utility.yul\":1750:1846   */\n      swap2\n      swap1\n      pop\n      jump\t// out\n        /* \"#utility.yul\":1852:1960   */\n    tag_374:\n        /* \"#utility.yul\":1929:1953   */\n      tag_442\n        /* \"#utility.yul\":1947:1952   */\n      dup2\n        /* \"#utility.yul\":1929:1953   */\n      tag_373\n      jump\t// in\n    tag_442:\n        /* \"#utility.yul\":1924:1927   */\n      dup3\n        /* \"#utility.yul\":1917:1954   */\n      mstore\n        /* \"#utility.yul\":1852:1960   */\n      pop\n      pop\n      jump\t// out\n        /* \"#utility.yul\":1966:2145   */\n    tag_375:\n        /* \"#utility.yul\":2035:2045   */\n      0x00\n        /* \"#utility.yul\":2056:2102   */\n      tag_444\n        /* \"#utility.yul\":2098:2101   */\n      dup4\n        /* \"#utility.yul\":2090:2096   */\n      dup4\n        /* \"#utility.yul\":2056:2102   */\n      tag_374\n      jump\t// in\n    tag_444:\n        /* \"#utility.yul\":2134:2138   */\n      0x20\n        /* \"#utility.yul\":2129:2132   */\n      dup4\n        /* \"#utility.yul\":2125:2139   */\n      add\n        /* \"#utility.yul\":2111:2139   */\n      swap1\n      pop\n        /* \"#utility.yul\":1966:2145   */\n      swap3\n      swap2\n      pop\n      pop\n      jump\t// out\n        /* \"#utility.yul\":2151:2264   */\n    tag_376:\n        /* \"#utility.yul\":2221:2225   */\n      0x00\n        /* \"#utility.yul\":2253:2257   */\n      0x20\n        /* \"#utility.yul\":2248:2251   */\n      dup3\n        /* \"#utility.yul\":2244:2258   */\n      add\n        /* \"#utility.yul\":2236:2258   */\n      swap1\n      pop\n        /* \"#utility.yul\":2151:2264   */\n      swap2\n      swap1\n      pop\n      jump\t// out\n        /* \"#utility.yul\":2300:3032   */\n    tag_377:\n        /* \"#utility.yul\":2419:2422   */\n      0x00\n        /* \"#utility.yul\":2448:2502   */\n      tag_447\n        /* \"#utility.yul\":2496:2501   */\n      dup3\n        /* \"#utility.yul\":2448:2502   */\n      tag_369\n      jump\t// in\n    tag_447:\n        /* \"#utility.yul\":2518:2604   */\n      tag_448\n        /* \"#utility.yul\":2597:2603   */\n      dup2\n        /* \"#utility.yul\":2592:2595   */\n      dup6\n        /* \"#utility.yul\":2518:2604   */\n      tag_370\n      jump\t// in\n    tag_448:\n        /* \"#utility.yul\":2511:2604   */\n      swap4\n      pop\n        /* \"#utility.yul\":2628:2684   */\n      tag_449\n        /* \"#utility.yul\":2678:2683   */\n      dup4\n        /* \"#utility.yul\":2628:2684   */\n      tag_371\n      jump\t// in\n    tag_449:\n        /* \"#utility.yul\":2707:2714   */\n      dup1\n        /* \"#utility.yul\":2738:2739   */\n      0x00\n        /* \"#utility.yul\":2723:3007   */\n    tag_450:\n        /* \"#utility.yul\":2748:2754   */\n      dup4\n        /* \"#utility.yul\":2745:2746   */\n      dup2\n        /* \"#utility.yul\":2742:2755   */\n      lt\n        /* \"#utility.yul\":2723:3007   */\n      iszero\n      tag_452\n      jumpi\n        /* \"#utility.yul\":2824:2830   */\n      dup2\n        /* \"#utility.yul\":2818:2831   */\n      mload\n        /* \"#utility.yul\":2851:2914   */\n      tag_453\n        /* \"#utility.yul\":2910:2913   */\n      dup9\n        /* \"#utility.yul\":2895:2908   */\n      dup3\n        /* \"#utility.yul\":2851:2914   */\n      tag_375\n      jump\t// in\n    tag_453:\n        /* \"#utility.yul\":2844:2914   */\n      swap8\n      pop\n        /* \"#utility.yul\":2937:2997   */\n      tag_454\n        /* \"#utility.yul\":2990:2996   */\n      dup4\n        /* \"#utility.yul\":2937:2997   */\n      tag_376\n      jump\t// in\n    tag_454:\n        /* \"#utility.yul\":2927:2997   */\n      swap3\n      pop\n        /* \"#utility.yul\":2783:3007   */\n      pop\n        /* \"#utility.yul\":2770:2771   */\n      0x01\n        /* \"#utility.yul\":2767:2768   */\n      dup2\n        /* \"#utility.yul\":2763:2772   */\n      add\n        /* \"#utility.yul\":2758:2772   */\n      swap1\n      pop\n        /* \"#utility.yul\":2723:3007   */\n      jump(tag_450)\n    tag_452:\n        /* \"#utility.yul\":2727:2741   */\n      pop\n        /* \"#utility.yul\":3023:3026   */\n      dup6\n        /* \"#utility.yul\":3016:3026   */\n      swap4\n      pop\n        /* \"#utility.yul\":2424:3032   */\n      pop\n      pop\n      pop\n        /* \"#utility.yul\":2300:3032   */\n      swap3\n      swap2\n      pop\n      pop\n      jump\t// out\n        /* \"#utility.yul\":3038:3411   */\n    tag_32:\n        /* \"#utility.yul\":3181:3185   */\n      0x00\n        /* \"#utility.yul\":3219:3221   */\n      0x20\n        /* \"#utility.yul\":3208:3217   */\n      dup3\n        /* \"#utility.yul\":3204:3222   */\n      add\n        /* \"#utility.yul\":3196:3222   */\n      swap1\n      pop\n        /* \"#utility.yul\":3268:3277   */\n      dup2\n        /* \"#utility.yul\":3262:3266   */\n      dup2\n        /* \"#utility.yul\":3258:3278   */\n      sub\n        /* \"#utility.yul\":3254:3255   */\n      0x00\n        /* \"#utility.yul\":3243:3252   */\n      dup4\n        /* \"#utility.yul\":3239:3256   */\n      add\n        /* \"#utility.yul\":3232:3279   */\n      mstore\n        /* \"#utility.yul\":3296:3404   */\n      tag_456\n        /* \"#utility.yul\":3399:3403   */\n      dup2\n        /* \"#utility.yul\":3390:3396   */\n      dup5\n        /* \"#utility.yul\":3296:3404   */\n      tag_377\n      jump\t// in\n    tag_456:\n        /* \"#utility.yul\":3288:3404   */\n      swap1\n      pop\n        /* \"#utility.yul\":3038:3411   */\n      swap3\n      swap2\n      pop\n      pop\n      jump\t// out\n        /* \"#utility.yul\":3417:3539   */\n    tag_378:\n        /* \"#utility.yul\":3490:3514   */\n      tag_458\n        /* \"#utility.yul\":3508:3513   */\n      dup2\n        /* \"#utility.yul\":3490:3514   */\n      tag_373\n      jump\t// in\n    tag_458:\n        /* \"#utility.yul\":3483:3488   */\n      dup2\n        /* \"#utility.yul\":3480:3515   */\n      eq\n        /* \"#utility.yul\":3470:3533   */\n      tag_459\n      jumpi\n        /* \"#utility.yul\":3529:3530   */\n      0x00\n        /* \"#utility.yul\":3526:3527   */\n      dup1\n        /* \"#utility.yul\":3519:3531   */\n      revert\n        /* \"#utility.yul\":3470:3533   */\n    tag_459:\n        /* \"#utility.yul\":3417:3539   */\n      pop\n      jump\t// out\n        /* \"#utility.yul\":3545:3684   */\n    tag_379:\n        /* \"#utility.yul\":3591:3596   */\n      0x00\n        /* \"#utility.yul\":3629:3635   */\n      dup2\n        /* \"#utility.yul\":3616:3636   */\n      calldataload\n        /* \"#utility.yul\":3607:3636   */\n      swap1\n      pop\n        /* \"#utility.yul\":3645:3678   */\n      tag_461\n        /* \"#utility.yul\":3672:3677   */\n      dup2\n        /* \"#utility.yul\":3645:3678   */\n      tag_378\n      jump\t// in\n    tag_461:\n        /* \"#utility.yul\":3545:3684   */\n      swap3\n      swap2\n      pop\n      pop\n      jump\t// out\n        /* \"#utility.yul\":3690:4019   */\n    tag_36:\n        /* \"#utility.yul\":3749:3755   */\n      0x00\n        /* \"#utility.yul\":3798:3800   */\n      0x20\n        /* \"#utility.yul\":3786:3795   */\n      dup3\n        /* \"#utility.yul\":3777:3784   */\n      dup5\n        /* \"#utility.yul\":3773:3796   */\n      sub\n        /* \"#utility.yul\":3769:3801   */\n      slt\n        /* \"#utility.yul\":3766:3885   */\n      iszero\n      tag_463\n      jumpi\n        /* \"#utility.yul\":3804:3883   */\n      tag_464\n      tag_364\n      jump\t// in\n    tag_464:\n        /* \"#utility.yul\":3766:3885   */\n    tag_463:\n        /* \"#utility.yul\":3924:3925   */\n      0x00\n        /* \"#utility.yul\":3949:4002   */\n      tag_465\n        /* \"#utility.yul\":3994:4001   */\n      dup5\n        /* \"#utility.yul\":3985:3991   */\n      dup3\n        /* \"#utility.yul\":3974:3983   */\n      dup6\n        /* \"#utility.yul\":3970:3992   */\n      add\n        /* \"#utility.yul\":3949:4002   */\n      tag_379\n      jump\t// in\n    tag_465:\n        /* \"#utility.yul\":3939:4002   */\n      swap2\n      pop\n        /* \"#utility.yul\":3895:4012   */\n      pop\n        /* \"#utility.yul\":3690:4019   */\n      swap3\n      swap2\n      pop\n      pop\n      jump\t// out\n        /* \"#utility.yul\":4025:4354   */\n    tag_46:\n        /* \"#utility.yul\":4084:4090   */\n      0x00\n        /* \"#utility.yul\":4133:4135   */\n      0x20\n        /* \"#utility.yul\":4121:4130   */\n      dup3\n        /* \"#utility.yul\":4112:4119   */\n      dup5\n        /* \"#utility.yul\":4108:4131   */\n      sub\n        /* \"#utility.yul\":4104:4136   */\n      slt\n        /* \"#utility.yul\":4101:4220   */\n      iszero\n      tag_467\n      jumpi\n        /* \"#utility.yul\":4139:4218   */\n      tag_468\n      tag_364\n      jump\t// in\n    tag_468:\n        /* \"#utility.yul\":4101:4220   */\n    tag_467:\n        /* \"#utility.yul\":4259:4260   */\n      0x00\n        /* \"#utility.yul\":4284:4337   */\n      tag_469\n        /* \"#utility.yul\":4329:4336   */\n      dup5\n        /* \"#utility.yul\":4320:4326   */\n      dup3\n        /* \"#utility.yul\":4309:4318   */\n      dup6\n        /* \"#utility.yul\":4305:4327   */\n      add\n        /* \"#utility.yul\":4284:4337   */\n      tag_368\n      jump\t// in\n    tag_469:\n        /* \"#utility.yul\":4274:4337   */\n      swap2\n      pop\n        /* \"#utility.yul\":4230:4347   */\n      pop\n        /* \"#utility.yul\":4025:4354   */\n      swap3\n      swap2\n      pop\n      pop\n      jump\t// out\n        /* \"#utility.yul\":4360:4478   */\n    tag_380:\n        /* \"#utility.yul\":4447:4471   */\n      tag_471\n        /* \"#utility.yul\":4465:4470   */\n      dup2\n        /* \"#utility.yul\":4447:4471   */\n      tag_373\n      jump\t// in\n    tag_471:\n        /* \"#utility.yul\":4442:4445   */\n      dup3\n        /* \"#utility.yul\":4435:4472   */\n      mstore\n        /* \"#utility.yul\":4360:4478   */\n      pop\n      pop\n      jump\t// out\n        /* \"#utility.yul\":4484:4706   */\n    tag_49:\n        /* \"#utility.yul\":4577:4581   */\n      0x00\n        /* \"#utility.yul\":4615:4617   */\n      0x20\n        /* \"#utility.yul\":4604:4613   */\n      dup3\n        /* \"#utility.yul\":4600:4618   */\n      add\n        /* \"#utility.yul\":4592:4618   */\n      swap1\n      pop\n        /* \"#utility.yul\":4628:4699   */\n      tag_473\n        /* \"#utility.yul\":4696:4697   */\n      0x00\n        /* \"#utility.yul\":4685:4694   */\n      dup4\n        /* \"#utility.yul\":4681:4698   */\n      add\n        /* \"#utility.yul\":4672:4678   */\n      dup5\n        /* \"#utility.yul\":4628:4699   */\n      tag_380\n      jump\t// in\n    tag_473:\n        /* \"#utility.yul\":4484:4706   */\n      swap3\n      swap2\n      pop\n      pop\n      jump\t// out\n        /* \"#utility.yul\":4712:4830   */\n    tag_381:\n        /* \"#utility.yul\":4799:4823   */\n      tag_475\n        /* \"#utility.yul\":4817:4822   */\n      dup2\n        /* \"#utility.yul\":4799:4823   */\n      tag_366\n      jump\t// in\n    tag_475:\n        /* \"#utility.yul\":4794:4797   */\n      dup3\n        /* \"#utility.yul\":4787:4824   */\n      mstore\n        /* \"#utility.yul\":4712:4830   */\n      pop\n      pop\n      jump\t// out\n        /* \"#utility.yul\":4836:5058   */\n    tag_64:\n        /* \"#utility.yul\":4929:4933   */\n      0x00\n        /* \"#utility.yul\":4967:4969   */\n      0x20\n        /* \"#utility.yul\":4956:4965   */\n      dup3\n        /* \"#utility.yul\":4952:4970   */\n      add\n        /* \"#utility.yul\":4944:4970   */\n      swap1\n      pop\n        /* \"#utility.yul\":4980:5051   */\n      tag_477\n        /* \"#utility.yul\":5048:5049   */\n      0x00\n        /* \"#utility.yul\":5037:5046   */\n      dup4\n        /* \"#utility.yul\":5033:5050   */\n      add\n        /* \"#utility.yul\":5024:5030   */\n      dup5\n        /* \"#utility.yul\":4980:5051   */\n      tag_381\n      jump\t// in\n    tag_477:\n        /* \"#utility.yul\":4836:5058   */\n      swap3\n      swap2\n      pop\n      pop\n      jump\t// out\n        /* \"#utility.yul\":5064:5181   */\n    tag_382:\n        /* \"#utility.yul\":5173:5174   */\n      0x00\n        /* \"#utility.yul\":5170:5171   */\n      dup1\n        /* \"#utility.yul\":5163:5175   */\n      revert\n        /* \"#utility.yul\":5187:5304   */\n    tag_383:\n        /* \"#utility.yul\":5296:5297   */\n      0x00\n        /* \"#utility.yul\":5293:5294   */\n      dup1\n        /* \"#utility.yul\":5286:5298   */\n      revert\n        /* \"#utility.yul\":5310:5412   */\n    tag_384:\n        /* \"#utility.yul\":5351:5357   */\n      0x00\n        /* \"#utility.yul\":5402:5404   */\n      0x1f\n        /* \"#utility.yul\":5398:5405   */\n      not\n        /* \"#utility.yul\":5393:5395   */\n      0x1f\n        /* \"#utility.yul\":5386:5391   */\n      dup4\n        /* \"#utility.yul\":5382:5396   */\n      add\n        /* \"#utility.yul\":5378:5406   */\n      and\n        /* \"#utility.yul\":5368:5406   */\n      swap1\n      pop\n        /* \"#utility.yul\":5310:5412   */\n      swap2\n      swap1\n      pop\n      jump\t// out\n        /* \"#utility.yul\":5418:5598   */\n    tag_139:\n        /* \"#utility.yul\":5466:5543   */\n      0x4e487b7100000000000000000000000000000000000000000000000000000000\n        /* \"#utility.yul\":5463:5464   */\n      0x00\n        /* \"#utility.yul\":5456:5544   */\n      mstore\n        /* \"#utility.yul\":5563:5567   */\n      0x41\n        /* \"#utility.yul\":5560:5561   */\n      0x04\n        /* \"#utility.yul\":5553:5568   */\n      mstore\n        /* \"#utility.yul\":5587:5591   */\n      0x24\n        /* \"#utility.yul\":5584:5585   */\n      0x00\n        /* \"#utility.yul\":5577:5592   */\n      revert\n        /* \"#utility.yul\":5604:5885   */\n    tag_385:\n        /* \"#utility.yul\":5687:5714   */\n      tag_483\n        /* \"#utility.yul\":5709:5713   */\n      dup3\n        /* \"#utility.yul\":5687:5714   */\n      tag_384\n      jump\t// in\n    tag_483:\n        /* \"#utility.yul\":5679:5685   */\n      dup2\n        /* \"#utility.yul\":5675:5715   */\n      add\n        /* \"#utility.yul\":5817:5823   */\n      dup2\n        /* \"#utility.yul\":5805:5815   */\n      dup2\n        /* \"#utility.yul\":5802:5824   */\n      lt\n        /* \"#utility.yul\":5781:5799   */\n      0xffffffffffffffff\n        /* \"#utility.yul\":5769:5779   */\n      dup3\n        /* \"#utility.yul\":5766:5800   */\n      gt\n        /* \"#utility.yul\":5763:5825   */\n      or\n        /* \"#utility.yul\":5760:5848   */\n      iszero\n      tag_484\n      jumpi\n        /* \"#utility.yul\":5828:5846   */\n      tag_485\n      tag_139\n      jump\t// in\n    tag_485:\n        /* \"#utility.yul\":5760:5848   */\n    tag_484:\n        /* \"#utility.yul\":5868:5878   */\n      dup1\n        /* \"#utility.yul\":5864:5866   */\n      0x40\n        /* \"#utility.yul\":5857:5879   */\n      mstore\n        /* \"#utility.yul\":5647:5885   */\n      pop\n        /* \"#utility.yul\":5604:5885   */\n      pop\n      pop\n      jump\t// out\n        /* \"#utility.yul\":5891:6020   */\n    tag_386:\n        /* \"#utility.yul\":5925:5931   */\n      0x00\n        /* \"#utility.yul\":5952:5972   */\n      tag_487\n      tag_363\n      jump\t// in\n    tag_487:\n        /* \"#utility.yul\":5942:5972   */\n      swap1\n      pop\n        /* \"#utility.yul\":5981:6014   */\n      tag_488\n        /* \"#utility.yul\":6009:6013   */\n      dup3\n        /* \"#utility.yul\":6001:6007   */\n      dup3\n        /* \"#utility.yul\":5981:6014   */\n      tag_385\n      jump\t// in\n    tag_488:\n        /* \"#utility.yul\":5891:6020   */\n      swap2\n      swap1\n      pop\n      jump\t// out\n        /* \"#utility.yul\":6026:6334   */\n    tag_387:\n        /* \"#utility.yul\":6088:6092   */\n      0x00\n        /* \"#utility.yul\":6178:6196   */\n      0xffffffffffffffff\n        /* \"#utility.yul\":6170:6176   */\n      dup3\n        /* \"#utility.yul\":6167:6197   */\n      gt\n        /* \"#utility.yul\":6164:6220   */\n      iszero\n      tag_490\n      jumpi\n        /* \"#utility.yul\":6200:6218   */\n      tag_491\n      tag_139\n      jump\t// in\n    tag_491:\n        /* \"#utility.yul\":6164:6220   */\n    tag_490:\n        /* \"#utility.yul\":6238:6267   */\n      tag_492\n        /* \"#utility.yul\":6260:6266   */\n      dup3\n        /* \"#utility.yul\":6238:6267   */\n      tag_384\n      jump\t// in\n    tag_492:\n        /* \"#utility.yul\":6230:6267   */\n      swap1\n      pop\n        /* \"#utility.yul\":6322:6326   */\n      0x20\n        /* \"#utility.yul\":6316:6320   */\n      dup2\n        /* \"#utility.yul\":6312:6327   */\n      add\n        /* \"#utility.yul\":6304:6327   */\n      swap1\n      pop\n        /* \"#utility.yul\":6026:6334   */\n      swap2\n      swap1\n      pop\n      jump\t// out\n        /* \"#utility.yul\":6340:6494   */\n    tag_388:\n        /* \"#utility.yul\":6424:6430   */\n      dup3\n        /* \"#utility.yul\":6419:6422   */\n      dup2\n        /* \"#utility.yul\":6414:6417   */\n      dup4\n        /* \"#utility.yul\":6401:6431   */\n      calldatacopy\n        /* \"#utility.yul\":6486:6487   */\n      0x00\n        /* \"#utility.yul\":6477:6483   */\n      dup4\n        /* \"#utility.yul\":6472:6475   */\n      dup4\n        /* \"#utility.yul\":6468:6484   */\n      add\n        /* \"#utility.yul\":6461:6488   */\n      mstore\n        /* \"#utility.yul\":6340:6494   */\n      pop\n      pop\n      pop\n      jump\t// out\n        /* \"#utility.yul\":6500:6912   */\n    tag_389:\n        /* \"#utility.yul\":6578:6583   */\n      0x00\n        /* \"#utility.yul\":6603:6669   */\n      tag_495\n        /* \"#utility.yul\":6619:6668   */\n      tag_496\n        /* \"#utility.yul\":6661:6667   */\n      dup5\n        /* \"#utility.yul\":6619:6668   */\n      tag_387\n      jump\t// in\n    tag_496:\n        /* \"#utility.yul\":6603:6669   */\n      tag_386\n      jump\t// in\n    tag_495:\n        /* \"#utility.yul\":6594:6669   */\n      swap1\n      pop\n        /* \"#utility.yul\":6692:6698   */\n      dup3\n        /* \"#utility.yul\":6685:6690   */\n      dup2\n        /* \"#utility.yul\":6678:6699   */\n      mstore\n        /* \"#utility.yul\":6730:6734   */\n      0x20\n        /* \"#utility.yul\":6723:6728   */\n      dup2\n        /* \"#utility.yul\":6719:6735   */\n      add\n        /* \"#utility.yul\":6768:6771   */\n      dup5\n        /* \"#utility.yul\":6759:6765   */\n      dup5\n        /* \"#utility.yul\":6754:6757   */\n      dup5\n        /* \"#utility.yul\":6750:6766   */\n      add\n        /* \"#utility.yul\":6747:6772   */\n      gt\n        /* \"#utility.yul\":6744:6856   */\n      iszero\n      tag_497\n      jumpi\n        /* \"#utility.yul\":6775:6854   */\n      tag_498\n      tag_383\n      jump\t// in\n    tag_498:\n        /* \"#utility.yul\":6744:6856   */\n    tag_497:\n        /* \"#utility.yul\":6865:6906   */\n      tag_499\n        /* \"#utility.yul\":6899:6905   */\n      dup5\n        /* \"#utility.yul\":6894:6897   */\n      dup3\n        /* \"#utility.yul\":6889:6892   */\n      dup6\n        /* \"#utility.yul\":6865:6906   */\n      tag_388\n      jump\t// in\n    tag_499:\n        /* \"#utility.yul\":6584:6912   */\n      pop\n        /* \"#utility.yul\":6500:6912   */\n      swap4\n      swap3\n      pop\n      pop\n      pop\n      jump\t// out\n        /* \"#utility.yul\":6932:7272   */\n    tag_390:\n        /* \"#utility.yul\":6988:6993   */\n      0x00\n        /* \"#utility.yul\":7037:7040   */\n      dup3\n        /* \"#utility.yul\":7030:7034   */\n      0x1f\n        /* \"#utility.yul\":7022:7028   */\n      dup4\n        /* \"#utility.yul\":7018:7035   */\n      add\n        /* \"#utility.yul\":7014:7041   */\n      slt\n        /* \"#utility.yul\":7004:7126   */\n      tag_501\n      jumpi\n        /* \"#utility.yul\":7045:7124   */\n      tag_502\n      tag_382\n      jump\t// in\n    tag_502:\n        /* \"#utility.yul\":7004:7126   */\n    tag_501:\n        /* \"#utility.yul\":7162:7168   */\n      dup2\n        /* \"#utility.yul\":7149:7169   */\n      calldataload\n        /* \"#utility.yul\":7187:7266   */\n      tag_503\n        /* \"#utility.yul\":7262:7265   */\n      dup5\n        /* \"#utility.yul\":7254:7260   */\n      dup3\n        /* \"#utility.yul\":7247:7251   */\n      0x20\n        /* \"#utility.yul\":7239:7245   */\n      dup7\n        /* \"#utility.yul\":7235:7252   */\n      add\n        /* \"#utility.yul\":7187:7266   */\n      tag_389\n      jump\t// in\n    tag_503:\n        /* \"#utility.yul\":7178:7266   */\n      swap2\n      pop\n        /* \"#utility.yul\":6994:7272   */\n      pop\n        /* \"#utility.yul\":6932:7272   */\n      swap3\n      swap2\n      pop\n      pop\n      jump\t// out\n        /* \"#utility.yul\":7278:7382   */\n    tag_391:\n        /* \"#utility.yul\":7323:7330   */\n      0x00\n        /* \"#utility.yul\":7352:7376   */\n      tag_505\n        /* \"#utility.yul\":7370:7375   */\n      dup3\n        /* \"#utility.yul\":7352:7376   */\n      tag_372\n      jump\t// in\n    tag_505:\n        /* \"#utility.yul\":7341:7376   */\n      swap1\n      pop\n        /* \"#utility.yul\":7278:7382   */\n      swap2\n      swap1\n      pop\n      jump\t// out\n        /* \"#utility.yul\":7388:7526   */\n    tag_392:\n        /* \"#utility.yul\":7469:7501   */\n      tag_507\n        /* \"#utility.yul\":7495:7500   */\n      dup2\n        /* \"#utility.yul\":7469:7501   */\n      tag_391\n      jump\t// in\n    tag_507:\n        /* \"#utility.yul\":7462:7467   */\n      dup2\n        /* \"#utility.yul\":7459:7502   */\n      eq\n        /* \"#utility.yul\":7449:7520   */\n      tag_508\n      jumpi\n        /* \"#utility.yul\":7516:7517   */\n      0x00\n        /* \"#utility.yul\":7513:7514   */\n      dup1\n        /* \"#utility.yul\":7506:7518   */\n      revert\n        /* \"#utility.yul\":7449:7520   */\n    tag_508:\n        /* \"#utility.yul\":7388:7526   */\n      pop\n      jump\t// out\n        /* \"#utility.yul\":7532:7687   */\n    tag_393:\n        /* \"#utility.yul\":7586:7591   */\n      0x00\n        /* \"#utility.yul\":7624:7630   */\n      dup2\n        /* \"#utility.yul\":7611:7631   */\n      calldataload\n        /* \"#utility.yul\":7602:7631   */\n      swap1\n      pop\n        /* \"#utility.yul\":7640:7681   */\n      tag_510\n        /* \"#utility.yul\":7675:7680   */\n      dup2\n        /* \"#utility.yul\":7640:7681   */\n      tag_392\n      jump\t// in\n    tag_510:\n        /* \"#utility.yul\":7532:7687   */\n      swap3\n      swap2\n      pop\n      pop\n      jump\t// out\n        /* \"#utility.yul\":7693:8834   */\n    tag_126:\n        /* \"#utility.yul\":7807:7813   */\n      0x00\n        /* \"#utility.yul\":7815:7821   */\n      dup1\n        /* \"#utility.yul\":7823:7829   */\n      0x00\n        /* \"#utility.yul\":7831:7837   */\n      dup1\n        /* \"#utility.yul\":7880:7883   */\n      0x80\n        /* \"#utility.yul\":7868:7877   */\n      dup6\n        /* \"#utility.yul\":7859:7866   */\n      dup8\n        /* \"#utility.yul\":7855:7878   */\n      sub\n        /* \"#utility.yul\":7851:7884   */\n      slt\n        /* \"#utility.yul\":7848:7968   */\n      iszero\n      tag_512\n      jumpi\n        /* \"#utility.yul\":7887:7966   */\n      tag_513\n      tag_364\n      jump\t// in\n    tag_513:\n        /* \"#utility.yul\":7848:7968   */\n    tag_512:\n        /* \"#utility.yul\":8007:8008   */\n      0x00\n        /* \"#utility.yul\":8032:8085   */\n      tag_514\n        /* \"#utility.yul\":8077:8084   */\n      dup8\n        /* \"#utility.yul\":8068:8074   */\n      dup3\n        /* \"#utility.yul\":8057:8066   */\n      dup9\n        /* \"#utility.yul\":8053:8075   */\n      add\n        /* \"#utility.yul\":8032:8085   */\n      tag_379\n      jump\t// in\n    tag_514:\n        /* \"#utility.yul\":8022:8085   */\n      swap5\n      pop\n        /* \"#utility.yul\":7978:8095   */\n      pop\n        /* \"#utility.yul\":8162:8164   */\n      0x20\n        /* \"#utility.yul\":8151:8160   */\n      dup6\n        /* \"#utility.yul\":8147:8165   */\n      add\n        /* \"#utility.yul\":8134:8166   */\n      calldataload\n        /* \"#utility.yul\":8193:8211   */\n      0xffffffffffffffff\n        /* \"#utility.yul\":8185:8191   */\n      dup2\n        /* \"#utility.yul\":8182:8212   */\n      gt\n        /* \"#utility.yul\":8179:8296   */\n      iszero\n      tag_515\n      jumpi\n        /* \"#utility.yul\":8215:8294   */\n      tag_516\n      tag_365\n      jump\t// in\n    tag_516:\n        /* \"#utility.yul\":8179:8296   */\n    tag_515:\n        /* \"#utility.yul\":8320:8383   */\n      tag_517\n        /* \"#utility.yul\":8375:8382   */\n      dup8\n        /* \"#utility.yul\":8366:8372   */\n      dup3\n        /* \"#utility.yul\":8355:8364   */\n      dup9\n        /* \"#utility.yul\":8351:8373   */\n      add\n        /* \"#utility.yul\":8320:8383   */\n      tag_390\n      jump\t// in\n    tag_517:\n        /* \"#utility.yul\":8310:8383   */\n      swap4\n      pop\n        /* \"#utility.yul\":8105:8393   */\n      pop\n        /* \"#utility.yul\":8460:8462   */\n      0x40\n        /* \"#utility.yul\":8449:8458   */\n      dup6\n        /* \"#utility.yul\":8445:8463   */\n      add\n        /* \"#utility.yul\":8432:8464   */\n      calldataload\n        /* \"#utility.yul\":8491:8509   */\n      0xffffffffffffffff\n        /* \"#utility.yul\":8483:8489   */\n      dup2\n        /* \"#utility.yul\":8480:8510   */\n      gt\n        /* \"#utility.yul\":8477:8594   */\n      iszero\n      tag_518\n      jumpi\n        /* \"#utility.yul\":8513:8592   */\n      tag_519\n      tag_365\n      jump\t// in\n    tag_519:\n        /* \"#utility.yul\":8477:8594   */\n    tag_518:\n        /* \"#utility.yul\":8618:8681   */\n      tag_520\n        /* \"#utility.yul\":8673:8680   */\n      dup8\n        /* \"#utility.yul\":8664:8670   */\n      dup3\n        /* \"#utility.yul\":8653:8662   */\n      dup9\n        /* \"#utility.yul\":8649:8671   */\n      add\n        /* \"#utility.yul\":8618:8681   */\n      tag_390\n      jump\t// in\n    tag_520:\n        /* \"#utility.yul\":8608:8681   */\n      swap3\n      pop\n        /* \"#utility.yul\":8403:8691   */\n      pop\n        /* \"#utility.yul\":8730:8732   */\n      0x60\n        /* \"#utility.yul\":8756:8817   */\n      tag_521\n        /* \"#utility.yul\":8809:8816   */\n      dup8\n        /* \"#utility.yul\":8800:8806   */\n      dup3\n        /* \"#utility.yul\":8789:8798   */\n      dup9\n        /* \"#utility.yul\":8785:8807   */\n      add\n        /* \"#utility.yul\":8756:8817   */\n      tag_393\n      jump\t// in\n    tag_521:\n        /* \"#utility.yul\":8746:8817   */\n      swap2\n      pop\n        /* \"#utility.yul\":8701:8827   */\n      pop\n        /* \"#utility.yul\":7693:8834   */\n      swap3\n      swap6\n      swap2\n      swap5\n      pop\n      swap3\n      pop\n      jump\t// out\n        /* \"#utility.yul\":8840:9009   */\n    tag_394:\n        /* \"#utility.yul\":8924:8935   */\n      0x00\n        /* \"#utility.yul\":8958:8964   */\n      dup3\n        /* \"#utility.yul\":8953:8956   */\n      dup3\n        /* \"#utility.yul\":8946:8965   */\n      mstore\n        /* \"#utility.yul\":8998:9002   */\n      0x20\n        /* \"#utility.yul\":8993:8996   */\n      dup3\n        /* \"#utility.yul\":8989:9003   */\n      add\n        /* \"#utility.yul\":8974:9003   */\n      swap1\n      pop\n        /* \"#utility.yul\":8840:9009   */\n      swap3\n      swap2\n      pop\n      pop\n      jump\t// out\n        /* \"#utility.yul\":9015:9195   */\n    tag_395:\n        /* \"#utility.yul\":9155:9187   */\n      0x537461727420696e6465782063616e6e6f74206265206e656761746976650000\n        /* \"#utility.yul\":9151:9152   */\n      0x00\n        /* \"#utility.yul\":9143:9149   */\n      dup3\n        /* \"#utility.yul\":9139:9153   */\n      add\n        /* \"#utility.yul\":9132:9188   */\n      mstore\n        /* \"#utility.yul\":9015:9195   */\n      pop\n      jump\t// out\n        /* \"#utility.yul\":9201:9567   */\n    tag_396:\n        /* \"#utility.yul\":9343:9346   */\n      0x00\n        /* \"#utility.yul\":9364:9431   */\n      tag_525\n        /* \"#utility.yul\":9428:9430   */\n      0x1e\n        /* \"#utility.yul\":9423:9426   */\n      dup4\n        /* \"#utility.yul\":9364:9431   */\n      tag_394\n      jump\t// in\n    tag_525:\n        /* \"#utility.yul\":9357:9431   */\n      swap2\n      pop\n        /* \"#utility.yul\":9440:9533   */\n      tag_526\n        /* \"#utility.yul\":9529:9532   */\n      dup3\n        /* \"#utility.yul\":9440:9533   */\n      tag_395\n      jump\t// in\n    tag_526:\n        /* \"#utility.yul\":9558:9560   */\n      0x20\n        /* \"#utility.yul\":9553:9556   */\n      dup3\n        /* \"#utility.yul\":9549:9561   */\n      add\n        /* \"#utility.yul\":9542:9561   */\n      swap1\n      pop\n        /* \"#utility.yul\":9201:9567   */\n      swap2\n      swap1\n      pop\n      jump\t// out\n        /* \"#utility.yul\":9573:9992   */\n    tag_131:\n        /* \"#utility.yul\":9739:9743   */\n      0x00\n        /* \"#utility.yul\":9777:9779   */\n      0x20\n        /* \"#utility.yul\":9766:9775   */\n      dup3\n        /* \"#utility.yul\":9762:9780   */\n      add\n        /* \"#utility.yul\":9754:9780   */\n      swap1\n      pop\n        /* \"#utility.yul\":9826:9835   */\n      dup2\n        /* \"#utility.yul\":9820:9824   */\n      dup2\n        /* \"#utility.yul\":9816:9836   */\n      sub\n        /* \"#utility.yul\":9812:9813   */\n      0x00\n        /* \"#utility.yul\":9801:9810   */\n      dup4\n        /* \"#utility.yul\":9797:9814   */\n      add\n        /* \"#utility.yul\":9790:9837   */\n      mstore\n        /* \"#utility.yul\":9854:9985   */\n      tag_528\n        /* \"#utility.yul\":9980:9984   */\n      dup2\n        /* \"#utility.yul\":9854:9985   */\n      tag_396\n      jump\t// in\n    tag_528:\n        /* \"#utility.yul\":9846:9985   */\n      swap1\n      pop\n        /* \"#utility.yul\":9573:9992   */\n      swap2\n      swap1\n      pop\n      jump\t// out\n        /* \"#utility.yul\":9998:10224   */\n    tag_397:\n        /* \"#utility.yul\":10138:10172   */\n      0x456e6420696e6465782065786365656473207573657220616464726573736573\n        /* \"#utility.yul\":10134:10135   */\n      0x00\n        /* \"#utility.yul\":10126:10132   */\n      dup3\n        /* \"#utility.yul\":10122:10136   */\n      add\n        /* \"#utility.yul\":10115:10173   */\n      mstore\n        /* \"#utility.yul\":10207:10216   */\n      0x206c656e67746800000000000000000000000000000000000000000000000000\n        /* \"#utility.yul\":10202:10204   */\n      0x20\n        /* \"#utility.yul\":10194:10200   */\n      dup3\n        /* \"#utility.yul\":10190:10205   */\n      add\n        /* \"#utility.yul\":10183:10217   */\n      mstore\n        /* \"#utility.yul\":9998:10224   */\n      pop\n      jump\t// out\n        /* \"#utility.yul\":10230:10596   */\n    tag_398:\n        /* \"#utility.yul\":10372:10375   */\n      0x00\n        /* \"#utility.yul\":10393:10460   */\n      tag_531\n        /* \"#utility.yul\":10457:10459   */\n      0x27\n        /* \"#utility.yul\":10452:10455   */\n      dup4\n        /* \"#utility.yul\":10393:10460   */\n      tag_394\n      jump\t// in\n    tag_531:\n        /* \"#utility.yul\":10386:10460   */\n      swap2\n      pop\n        /* \"#utility.yul\":10469:10562   */\n      tag_532\n        /* \"#utility.yul\":10558:10561   */\n      dup3\n        /* \"#utility.yul\":10469:10562   */\n      tag_397\n      jump\t// in\n    tag_532:\n        /* \"#utility.yul\":10587:10589   */\n      0x40\n        /* \"#utility.yul\":10582:10585   */\n      dup3\n        /* \"#utility.yul\":10578:10590   */\n      add\n        /* \"#utility.yul\":10571:10590   */\n      swap1\n      pop\n        /* \"#utility.yul\":10230:10596   */\n      swap2\n      swap1\n      pop\n      jump\t// out\n        /* \"#utility.yul\":10602:11021   */\n    tag_134:\n        /* \"#utility.yul\":10768:10772   */\n      0x00\n        /* \"#utility.yul\":10806:10808   */\n      0x20\n        /* \"#utility.yul\":10795:10804   */\n      dup3\n        /* \"#utility.yul\":10791:10809   */\n      add\n        /* \"#utility.yul\":10783:10809   */\n      swap1\n      pop\n        /* \"#utility.yul\":10855:10864   */\n      dup2\n        /* \"#utility.yul\":10849:10853   */\n      dup2\n        /* \"#utility.yul\":10845:10865   */\n      sub\n        /* \"#utility.yul\":10841:10842   */\n      0x00\n        /* \"#utility.yul\":10830:10839   */\n      dup4\n        /* \"#utility.yul\":10826:10843   */\n      add\n        /* \"#utility.yul\":10819:10866   */\n      mstore\n        /* \"#utility.yul\":10883:11014   */\n      tag_534\n        /* \"#utility.yul\":11009:11013   */\n      dup2\n        /* \"#utility.yul\":10883:11014   */\n      tag_398\n      jump\t// in\n    tag_534:\n        /* \"#utility.yul\":10875:11014   */\n      swap1\n      pop\n        /* \"#utility.yul\":10602:11021   */\n      swap2\n      swap1\n      pop\n      jump\t// out\n        /* \"#utility.yul\":11027:11207   */\n    tag_399:\n        /* \"#utility.yul\":11075:11152   */\n      0x4e487b7100000000000000000000000000000000000000000000000000000000\n        /* \"#utility.yul\":11072:11073   */\n      0x00\n        /* \"#utility.yul\":11065:11153   */\n      mstore\n        /* \"#utility.yul\":11172:11176   */\n      0x11\n        /* \"#utility.yul\":11169:11170   */\n      0x04\n        /* \"#utility.yul\":11162:11177   */\n      mstore\n        /* \"#utility.yul\":11196:11200   */\n      0x24\n        /* \"#utility.yul\":11193:11194   */\n      0x00\n        /* \"#utility.yul\":11186:11201   */\n      revert\n        /* \"#utility.yul\":11213:11404   */\n    tag_136:\n        /* \"#utility.yul\":11253:11257   */\n      0x00\n        /* \"#utility.yul\":11273:11293   */\n      tag_537\n        /* \"#utility.yul\":11291:11292   */\n      dup3\n        /* \"#utility.yul\":11273:11293   */\n      tag_366\n      jump\t// in\n    tag_537:\n        /* \"#utility.yul\":11268:11293   */\n      swap2\n      pop\n        /* \"#utility.yul\":11307:11327   */\n      tag_538\n        /* \"#utility.yul\":11325:11326   */\n      dup4\n        /* \"#utility.yul\":11307:11327   */\n      tag_366\n      jump\t// in\n    tag_538:\n        /* \"#utility.yul\":11302:11327   */\n      swap3\n      pop\n        /* \"#utility.yul\":11346:11347   */\n      dup3\n        /* \"#utility.yul\":11343:11344   */\n      dup3\n        /* \"#utility.yul\":11340:11348   */\n      lt\n        /* \"#utility.yul\":11337:11371   */\n      iszero\n      tag_539\n      jumpi\n        /* \"#utility.yul\":11351:11369   */\n      tag_540\n      tag_399\n      jump\t// in\n    tag_540:\n        /* \"#utility.yul\":11337:11371   */\n    tag_539:\n        /* \"#utility.yul\":11396:11397   */\n      dup3\n        /* \"#utility.yul\":11393:11394   */\n      dup3\n        /* \"#utility.yul\":11389:11398   */\n      sub\n        /* \"#utility.yul\":11381:11398   */\n      swap1\n      pop\n        /* \"#utility.yul\":11213:11404   */\n      swap3\n      swap2\n      pop\n      pop\n      jump\t// out\n        /* \"#utility.yul\":11410:11590   */\n    tag_146:\n        /* \"#utility.yul\":11458:11535   */\n      0x4e487b7100000000000000000000000000000000000000000000000000000000\n        /* \"#utility.yul\":11455:11456   */\n      0x00\n        /* \"#utility.yul\":11448:11536   */\n      mstore\n        /* \"#utility.yul\":11555:11559   */\n      0x32\n        /* \"#utility.yul\":11552:11553   */\n      0x04\n        /* \"#utility.yul\":11545:11560   */\n      mstore\n        /* \"#utility.yul\":11579:11583   */\n      0x24\n        /* \"#utility.yul\":11576:11577   */\n      0x00\n        /* \"#utility.yul\":11569:11584   */\n      revert\n        /* \"#utility.yul\":11596:11829   */\n    tag_151:\n        /* \"#utility.yul\":11635:11638   */\n      0x00\n        /* \"#utility.yul\":11658:11682   */\n      tag_543\n        /* \"#utility.yul\":11676:11681   */\n      dup3\n        /* \"#utility.yul\":11658:11682   */\n      tag_366\n      jump\t// in\n    tag_543:\n        /* \"#utility.yul\":11649:11682   */\n      swap2\n      pop\n        /* \"#utility.yul\":11704:11770   */\n      0xffffffffffffffffffffffffffffffffffffffffffffffffffffffffffffffff\n        /* \"#utility.yul\":11697:11702   */\n      dup3\n        /* \"#utility.yul\":11694:11771   */\n      eq\n        /* \"#utility.yul\":11691:11794   */\n      iszero\n      tag_544\n      jumpi\n        /* \"#utility.yul\":11774:11792   */\n      tag_545\n      tag_399\n      jump\t// in\n    tag_545:\n        /* \"#utility.yul\":11691:11794   */\n    tag_544:\n        /* \"#utility.yul\":11821:11822   */\n      0x01\n        /* \"#utility.yul\":11814:11819   */\n      dup3\n        /* \"#utility.yul\":11810:11823   */\n      add\n        /* \"#utility.yul\":11803:11823   */\n      swap1\n      pop\n        /* \"#utility.yul\":11596:11829   */\n      swap2\n      swap1\n      pop\n      jump\t// out\n        /* \"#utility.yul\":11835:11978   */\n    tag_400:\n        /* \"#utility.yul\":11892:11897   */\n      0x00\n        /* \"#utility.yul\":11923:11929   */\n      dup2\n        /* \"#utility.yul\":11917:11930   */\n      mload\n        /* \"#utility.yul\":11908:11930   */\n      swap1\n      pop\n        /* \"#utility.yul\":11939:11972   */\n      tag_547\n        /* \"#utility.yul\":11966:11971   */\n      dup2\n        /* \"#utility.yul\":11939:11972   */\n      tag_378\n      jump\t// in\n    tag_547:\n        /* \"#utility.yul\":11835:11978   */\n      swap3\n      swap2\n      pop\n      pop\n      jump\t// out\n        /* \"#utility.yul\":11984:12335   */\n    tag_159:\n        /* \"#utility.yul\":12054:12060   */\n      0x00\n        /* \"#utility.yul\":12103:12105   */\n      0x20\n        /* \"#utility.yul\":12091:12100   */\n      dup3\n        /* \"#utility.yul\":12082:12089   */\n      dup5\n        /* \"#utility.yul\":12078:12101   */\n      sub\n        /* \"#utility.yul\":12074:12106   */\n      slt\n        /* \"#utility.yul\":12071:12190   */\n      iszero\n      tag_549\n      jumpi\n        /* \"#utility.yul\":12109:12188   */\n      tag_550\n      tag_364\n      jump\t// in\n    tag_550:\n        /* \"#utility.yul\":12071:12190   */\n    tag_549:\n        /* \"#utility.yul\":12229:12230   */\n      0x00\n        /* \"#utility.yul\":12254:12318   */\n      tag_551\n        /* \"#utility.yul\":12310:12317   */\n      dup5\n        /* \"#utility.yul\":12301:12307   */\n      dup3\n        /* \"#utility.yul\":12290:12299   */\n      dup6\n        /* \"#utility.yul\":12286:12308   */\n      add\n        /* \"#utility.yul\":12254:12318   */\n      tag_400\n      jump\t// in\n    tag_551:\n        /* \"#utility.yul\":12244:12318   */\n      swap2\n      pop\n        /* \"#utility.yul\":12200:12328   */\n      pop\n        /* \"#utility.yul\":11984:12335   */\n      swap3\n      swap2\n      pop\n      pop\n      jump\t// out\n        /* \"#utility.yul\":12341:12584   */\n    tag_401:\n        /* \"#utility.yul\":12481:12515   */\n      0x4f6e6c7920636f6e747261637420726566657265652063616e20617070726f76\n        /* \"#utility.yul\":12477:12478   */\n      0x00\n        /* \"#utility.yul\":12469:12475   */\n      dup3\n        /* \"#utility.yul\":12465:12479   */\n      add\n        /* \"#utility.yul\":12458:12516   */\n      mstore\n        /* \"#utility.yul\":12550:12576   */\n      0x65207265717565737420666f7220636f6d706c6574696f6e0000000000000000\n        /* \"#utility.yul\":12545:12547   */\n      0x20\n        /* \"#utility.yul\":12537:12543   */\n      dup3\n        /* \"#utility.yul\":12533:12548   */\n      add\n        /* \"#utility.yul\":12526:12577   */\n      mstore\n        /* \"#utility.yul\":12341:12584   */\n      pop\n      jump\t// out\n        /* \"#utility.yul\":12590:12956   */\n    tag_402:\n        /* \"#utility.yul\":12732:12735   */\n      0x00\n        /* \"#utility.yul\":12753:12820   */\n      tag_554\n        /* \"#utility.yul\":12817:12819   */\n      0x38\n        /* \"#utility.yul\":12812:12815   */\n      dup4\n        /* \"#utility.yul\":12753:12820   */\n      tag_394\n      jump\t// in\n    tag_554:\n        /* \"#utility.yul\":12746:12820   */\n      swap2\n      pop\n        /* \"#utility.yul\":12829:12922   */\n      tag_555\n        /* \"#utility.yul\":12918:12921   */\n      dup3\n        /* \"#utility.yul\":12829:12922   */\n      tag_401\n      jump\t// in\n    tag_555:\n        /* \"#utility.yul\":12947:12949   */\n      0x40\n        /* \"#utility.yul\":12942:12945   */\n      dup3\n        /* \"#utility.yul\":12938:12950   */\n      add\n        /* \"#utility.yul\":12931:12950   */\n      swap1\n      pop\n        /* \"#utility.yul\":12590:12956   */\n      swap2\n      swap1\n      pop\n      jump\t// out\n        /* \"#utility.yul\":12962:13381   */\n    tag_168:\n        /* \"#utility.yul\":13128:13132   */\n      0x00\n        /* \"#utility.yul\":13166:13168   */\n      0x20\n        /* \"#utility.yul\":13155:13164   */\n      dup3\n        /* \"#utility.yul\":13151:13169   */\n      add\n        /* \"#utility.yul\":13143:13169   */\n      swap1\n      pop\n        /* \"#utility.yul\":13215:13224   */\n      dup2\n        /* \"#utility.yul\":13209:13213   */\n      dup2\n        /* \"#utility.yul\":13205:13225   */\n      sub\n        /* \"#utility.yul\":13201:13202   */\n      0x00\n        /* \"#utility.yul\":13190:13199   */\n      dup4\n        /* \"#utility.yul\":13186:13203   */\n      add\n        /* \"#utility.yul\":13179:13226   */\n      mstore\n        /* \"#utility.yul\":13243:13374   */\n      tag_557\n        /* \"#utility.yul\":13369:13373   */\n      dup2\n        /* \"#utility.yul\":13243:13374   */\n      tag_402\n      jump\t// in\n    tag_557:\n        /* \"#utility.yul\":13235:13374   */\n      swap1\n      pop\n        /* \"#utility.yul\":12962:13381   */\n      swap2\n      swap1\n      pop\n      jump\t// out\n        /* \"#utility.yul\":13387:13514   */\n    tag_403:\n        /* \"#utility.yul\":13455:13462   */\n      0x00\n        /* \"#utility.yul\":13484:13508   */\n      tag_559\n        /* \"#utility.yul\":13502:13507   */\n      dup3\n        /* \"#utility.yul\":13484:13508   */\n      tag_373\n      jump\t// in\n    tag_559:\n        /* \"#utility.yul\":13473:13508   */\n      swap1\n      pop\n        /* \"#utility.yul\":13387:13514   */\n      swap2\n      swap1\n      pop\n      jump\t// out\n        /* \"#utility.yul\":13520:13704   */\n    tag_404:\n        /* \"#utility.yul\":13624:13679   */\n      tag_561\n        /* \"#utility.yul\":13673:13678   */\n      dup2\n        /* \"#utility.yul\":13624:13679   */\n      tag_403\n      jump\t// in\n    tag_561:\n        /* \"#utility.yul\":13617:13622   */\n      dup2\n        /* \"#utility.yul\":13614:13680   */\n      eq\n        /* \"#utility.yul\":13604:13698   */\n      tag_562\n      jumpi\n        /* \"#utility.yul\":13694:13695   */\n      0x00\n        /* \"#utility.yul\":13691:13692   */\n      dup1\n        /* \"#utility.yul\":13684:13696   */\n      revert\n        /* \"#utility.yul\":13604:13698   */\n    tag_562:\n        /* \"#utility.yul\":13520:13704   */\n      pop\n      jump\t// out\n        /* \"#utility.yul\":13710:13915   */\n    tag_405:\n        /* \"#utility.yul\":13798:13803   */\n      0x00\n        /* \"#utility.yul\":13829:13835   */\n      dup2\n        /* \"#utility.yul\":13823:13836   */\n      mload\n        /* \"#utility.yul\":13814:13836   */\n      swap1\n      pop\n        /* \"#utility.yul\":13845:13909   */\n      tag_564\n        /* \"#utility.yul\":13903:13908   */\n      dup2\n        /* \"#utility.yul\":13845:13909   */\n      tag_404\n      jump\t// in\n    tag_564:\n        /* \"#utility.yul\":13710:13915   */\n      swap3\n      swap2\n      pop\n      pop\n      jump\t// out\n        /* \"#utility.yul\":13921:14334   */\n    tag_172:\n        /* \"#utility.yul\":14022:14028   */\n      0x00\n        /* \"#utility.yul\":14071:14073   */\n      0x20\n        /* \"#utility.yul\":14059:14068   */\n      dup3\n        /* \"#utility.yul\":14050:14057   */\n      dup5\n        /* \"#utility.yul\":14046:14069   */\n      sub\n        /* \"#utility.yul\":14042:14074   */\n      slt\n        /* \"#utility.yul\":14039:14158   */\n      iszero\n      tag_566\n      jumpi\n        /* \"#utility.yul\":14077:14156   */\n      tag_567\n      tag_364\n      jump\t// in\n    tag_567:\n        /* \"#utility.yul\":14039:14158   */\n    tag_566:\n        /* \"#utility.yul\":14197:14198   */\n      0x00\n        /* \"#utility.yul\":14222:14317   */\n      tag_568\n        /* \"#utility.yul\":14309:14316   */\n      dup5\n        /* \"#utility.yul\":14300:14306   */\n      dup3\n        /* \"#utility.yul\":14289:14298   */\n      dup6\n        /* \"#utility.yul\":14285:14307   */\n      add\n        /* \"#utility.yul\":14222:14317   */\n      tag_405\n      jump\t// in\n    tag_568:\n        /* \"#utility.yul\":14212:14317   */\n      swap2\n      pop\n        /* \"#utility.yul\":14168:14327   */\n      pop\n        /* \"#utility.yul\":13921:14334   */\n      swap3\n      swap2\n      pop\n      pop\n      jump\t// out\n        /* \"#utility.yul\":14340:14520   */\n    tag_228:\n        /* \"#utility.yul\":14388:14465   */\n      0x4e487b7100000000000000000000000000000000000000000000000000000000\n        /* \"#utility.yul\":14385:14386   */\n      0x00\n        /* \"#utility.yul\":14378:14466   */\n      mstore\n        /* \"#utility.yul\":14485:14489   */\n      0x21\n        /* \"#utility.yul\":14482:14483   */\n      0x04\n        /* \"#utility.yul\":14475:14490   */\n      mstore\n        /* \"#utility.yul\":14509:14513   */\n      0x24\n        /* \"#utility.yul\":14506:14507   */\n      0x00\n        /* \"#utility.yul\":14499:14514   */\n      revert\n        /* \"#utility.yul\":14526:14635   */\n    tag_406:\n        /* \"#utility.yul\":14609:14610   */\n      0x03\n        /* \"#utility.yul\":14602:14607   */\n      dup2\n        /* \"#utility.yul\":14599:14611   */\n      lt\n        /* \"#utility.yul\":14589:14629   */\n      tag_571\n      jumpi\n        /* \"#utility.yul\":14625:14626   */\n      0x00\n        /* \"#utility.yul\":14622:14623   */\n      dup1\n        /* \"#utility.yul\":14615:14627   */\n      revert\n        /* \"#utility.yul\":14589:14629   */\n    tag_571:\n        /* \"#utility.yul\":14526:14635   */\n      pop\n      jump\t// out\n        /* \"#utility.yul\":14641:14804   */\n    tag_407:\n        /* \"#utility.yul\":14708:14713   */\n      0x00\n        /* \"#utility.yul\":14739:14745   */\n      dup2\n        /* \"#utility.yul\":14733:14746   */\n      mload\n        /* \"#utility.yul\":14724:14746   */\n      swap1\n      pop\n        /* \"#utility.yul\":14755:14798   */\n      tag_573\n        /* \"#utility.yul\":14792:14797   */\n      dup2\n        /* \"#utility.yul\":14755:14798   */\n      tag_406\n      jump\t// in\n    tag_573:\n        /* \"#utility.yul\":14641:14804   */\n      swap3\n      swap2\n      pop\n      pop\n      jump\t// out\n        /* \"#utility.yul\":14810:15181   */\n    tag_232:\n        /* \"#utility.yul\":14890:14896   */\n      0x00\n        /* \"#utility.yul\":14939:14941   */\n      0x20\n        /* \"#utility.yul\":14927:14936   */\n      dup3\n        /* \"#utility.yul\":14918:14925   */\n      dup5\n        /* \"#utility.yul\":14914:14937   */\n      sub\n        /* \"#utility.yul\":14910:14942   */\n      slt\n        /* \"#utility.yul\":14907:15026   */\n      iszero\n      tag_575\n      jumpi\n        /* \"#utility.yul\":14945:15024   */\n      tag_576\n      tag_364\n      jump\t// in\n    tag_576:\n        /* \"#utility.yul\":14907:15026   */\n    tag_575:\n        /* \"#utility.yul\":15065:15066   */\n      0x00\n        /* \"#utility.yul\":15090:15164   */\n      tag_577\n        /* \"#utility.yul\":15156:15163   */\n      dup5\n        /* \"#utility.yul\":15147:15153   */\n      dup3\n        /* \"#utility.yul\":15136:15145   */\n      dup6\n        /* \"#utility.yul\":15132:15154   */\n      add\n        /* \"#utility.yul\":15090:15164   */\n      tag_407\n      jump\t// in\n    tag_577:\n        /* \"#utility.yul\":15080:15164   */\n      swap2\n      pop\n        /* \"#utility.yul\":15036:15174   */\n      pop\n        /* \"#utility.yul\":14810:15181   */\n      swap3\n      swap2\n      pop\n      pop\n      jump\t// out\n        /* \"#utility.yul\":15187:15365   */\n    tag_408:\n        /* \"#utility.yul\":15327:15357   */\n      0x436f6e747261637420737461747573206d757374206265206f70656e00000000\n        /* \"#utility.yul\":15323:15324   */\n      0x00\n        /* \"#utility.yul\":15315:15321   */\n      dup3\n        /* \"#utility.yul\":15311:15325   */\n      add\n        /* \"#utility.yul\":15304:15358   */\n      mstore\n        /* \"#utility.yul\":15187:15365   */\n      pop\n      jump\t// out\n        /* \"#utility.yul\":15371:15737   */\n    tag_409:\n        /* \"#utility.yul\":15513:15516   */\n      0x00\n        /* \"#utility.yul\":15534:15601   */\n      tag_580\n        /* \"#utility.yul\":15598:15600   */\n      0x1c\n        /* \"#utility.yul\":15593:15596   */\n      dup4\n        /* \"#utility.yul\":15534:15601   */\n      tag_394\n      jump\t// in\n    tag_580:\n        /* \"#utility.yul\":15527:15601   */\n      swap2\n      pop\n        /* \"#utility.yul\":15610:15703   */\n      tag_581\n        /* \"#utility.yul\":15699:15702   */\n      dup3\n        /* \"#utility.yul\":15610:15703   */\n      tag_408\n      jump\t// in\n    tag_581:\n        /* \"#utility.yul\":15728:15730   */\n      0x20\n        /* \"#utility.yul\":15723:15726   */\n      dup3\n        /* \"#utility.yul\":15719:15731   */\n      add\n        /* \"#utility.yul\":15712:15731   */\n      swap1\n      pop\n        /* \"#utility.yul\":15371:15737   */\n      swap2\n      swap1\n      pop\n      jump\t// out\n        /* \"#utility.yul\":15743:16162   */\n    tag_237:\n        /* \"#utility.yul\":15909:15913   */\n      0x00\n        /* \"#utility.yul\":15947:15949   */\n      0x20\n        /* \"#utility.yul\":15936:15945   */\n      dup3\n        /* \"#utility.yul\":15932:15950   */\n      add\n        /* \"#utility.yul\":15924:15950   */\n      swap1\n      pop\n        /* \"#utility.yul\":15996:16005   */\n      dup2\n        /* \"#utility.yul\":15990:15994   */\n      dup2\n        /* \"#utility.yul\":15986:16006   */\n      sub\n        /* \"#utility.yul\":15982:15983   */\n      0x00\n        /* \"#utility.yul\":15971:15980   */\n      dup4\n        /* \"#utility.yul\":15967:15984   */\n      add\n        /* \"#utility.yul\":15960:16007   */\n      mstore\n        /* \"#utility.yul\":16024:16155   */\n      tag_583\n        /* \"#utility.yul\":16150:16154   */\n      dup2\n        /* \"#utility.yul\":16024:16155   */\n      tag_409\n      jump\t// in\n    tag_583:\n        /* \"#utility.yul\":16016:16155   */\n      swap1\n      pop\n        /* \"#utility.yul\":15743:16162   */\n      swap2\n      swap1\n      pop\n      jump\t// out\n        /* \"#utility.yul\":16168:16402   */\n    tag_410:\n        /* \"#utility.yul\":16308:16342   */\n      0x4f6e6c792063726561746f72206f6620636f6e74726163742063616e20726571\n        /* \"#utility.yul\":16304:16305   */\n      0x00\n        /* \"#utility.yul\":16296:16302   */\n      dup3\n        /* \"#utility.yul\":16292:16306   */\n      add\n        /* \"#utility.yul\":16285:16343   */\n      mstore\n        /* \"#utility.yul\":16377:16394   */\n      0x7565737420636f6d706c6574696f6e0000000000000000000000000000000000\n        /* \"#utility.yul\":16372:16374   */\n      0x20\n        /* \"#utility.yul\":16364:16370   */\n      dup3\n        /* \"#utility.yul\":16360:16375   */\n      add\n        /* \"#utility.yul\":16353:16395   */\n      mstore\n        /* \"#utility.yul\":16168:16402   */\n      pop\n      jump\t// out\n        /* \"#utility.yul\":16408:16774   */\n    tag_411:\n        /* \"#utility.yul\":16550:16553   */\n      0x00\n        /* \"#utility.yul\":16571:16638   */\n      tag_586\n        /* \"#utility.yul\":16635:16637   */\n      0x2f\n        /* \"#utility.yul\":16630:16633   */\n      dup4\n        /* \"#utility.yul\":16571:16638   */\n      tag_394\n      jump\t// in\n    tag_586:\n        /* \"#utility.yul\":16564:16638   */\n      swap2\n      pop\n        /* \"#utility.yul\":16647:16740   */\n      tag_587\n        /* \"#utility.yul\":16736:16739   */\n      dup3\n        /* \"#utility.yul\":16647:16740   */\n      tag_410\n      jump\t// in\n    tag_587:\n        /* \"#utility.yul\":16765:16767   */\n      0x40\n        /* \"#utility.yul\":16760:16763   */\n      dup3\n        /* \"#utility.yul\":16756:16768   */\n      add\n        /* \"#utility.yul\":16749:16768   */\n      swap1\n      pop\n        /* \"#utility.yul\":16408:16774   */\n      swap2\n      swap1\n      pop\n      jump\t// out\n        /* \"#utility.yul\":16780:17199   */\n    tag_243:\n        /* \"#utility.yul\":16946:16950   */\n      0x00\n        /* \"#utility.yul\":16984:16986   */\n      0x20\n        /* \"#utility.yul\":16973:16982   */\n      dup3\n        /* \"#utility.yul\":16969:16987   */\n      add\n        /* \"#utility.yul\":16961:16987   */\n      swap1\n      pop\n        /* \"#utility.yul\":17033:17042   */\n      dup2\n        /* \"#utility.yul\":17027:17031   */\n      dup2\n        /* \"#utility.yul\":17023:17043   */\n      sub\n        /* \"#utility.yul\":17019:17020   */\n      0x00\n        /* \"#utility.yul\":17008:17017   */\n      dup4\n        /* \"#utility.yul\":17004:17021   */\n      add\n        /* \"#utility.yul\":16997:17044   */\n      mstore\n        /* \"#utility.yul\":17061:17192   */\n      tag_589\n        /* \"#utility.yul\":17187:17191   */\n      dup2\n        /* \"#utility.yul\":17061:17192   */\n      tag_411\n      jump\t// in\n    tag_589:\n        /* \"#utility.yul\":17053:17192   */\n      swap1\n      pop\n        /* \"#utility.yul\":16780:17199   */\n      swap2\n      swap1\n      pop\n      jump\t// out\n        /* \"#utility.yul\":17205:17304   */\n    tag_412:\n        /* \"#utility.yul\":17257:17263   */\n      0x00\n        /* \"#utility.yul\":17291:17296   */\n      dup2\n        /* \"#utility.yul\":17285:17297   */\n      mload\n        /* \"#utility.yul\":17275:17297   */\n      swap1\n      pop\n        /* \"#utility.yul\":17205:17304   */\n      swap2\n      swap1\n      pop\n      jump\t// out\n        /* \"#utility.yul\":17310:17617   */\n    tag_413:\n        /* \"#utility.yul\":17378:17379   */\n      0x00\n        /* \"#utility.yul\":17388:17501   */\n    tag_592:\n        /* \"#utility.yul\":17402:17408   */\n      dup4\n        /* \"#utility.yul\":17399:17400   */\n      dup2\n        /* \"#utility.yul\":17396:17409   */\n      lt\n        /* \"#utility.yul\":17388:17501   */\n      iszero\n      tag_594\n      jumpi\n        /* \"#utility.yul\":17487:17488   */\n      dup1\n        /* \"#utility.yul\":17482:17485   */\n      dup3\n        /* \"#utility.yul\":17478:17489   */\n      add\n        /* \"#utility.yul\":17472:17490   */\n      mload\n        /* \"#utility.yul\":17468:17469   */\n      dup2\n        /* \"#utility.yul\":17463:17466   */\n      dup5\n        /* \"#utility.yul\":17459:17470   */\n      add\n        /* \"#utility.yul\":17452:17491   */\n      mstore\n        /* \"#utility.yul\":17424:17426   */\n      0x20\n        /* \"#utility.yul\":17421:17422   */\n      dup2\n        /* \"#utility.yul\":17417:17427   */\n      add\n        /* \"#utility.yul\":17412:17427   */\n      swap1\n      pop\n        /* \"#utility.yul\":17388:17501   */\n      jump(tag_592)\n    tag_594:\n        /* \"#utility.yul\":17519:17525   */\n      dup4\n        /* \"#utility.yul\":17516:17517   */\n      dup2\n        /* \"#utility.yul\":17513:17526   */\n      gt\n        /* \"#utility.yul\":17510:17611   */\n      iszero\n      tag_595\n      jumpi\n        /* \"#utility.yul\":17599:17600   */\n      0x00\n        /* \"#utility.yul\":17590:17596   */\n      dup5\n        /* \"#utility.yul\":17585:17588   */\n      dup5\n        /* \"#utility.yul\":17581:17597   */\n      add\n        /* \"#utility.yul\":17574:17601   */\n      mstore\n        /* \"#utility.yul\":17510:17611   */\n    tag_595:\n        /* \"#utility.yul\":17359:17617   */\n      pop\n        /* \"#utility.yul\":17310:17617   */\n      pop\n      pop\n      pop\n      jump\t// out\n        /* \"#utility.yul\":17623:17987   */\n    tag_414:\n        /* \"#utility.yul\":17711:17714   */\n      0x00\n        /* \"#utility.yul\":17739:17778   */\n      tag_597\n        /* \"#utility.yul\":17772:17777   */\n      dup3\n        /* \"#utility.yul\":17739:17778   */\n      tag_412\n      jump\t// in\n    tag_597:\n        /* \"#utility.yul\":17794:17865   */\n      tag_598\n        /* \"#utility.yul\":17858:17864   */\n      dup2\n        /* \"#utility.yul\":17853:17856   */\n      dup6\n        /* \"#utility.yul\":17794:17865   */\n      tag_394\n      jump\t// in\n    tag_598:\n        /* \"#utility.yul\":17787:17865   */\n      swap4\n      pop\n        /* \"#utility.yul\":17874:17926   */\n      tag_599\n        /* \"#utility.yul\":17919:17925   */\n      dup2\n        /* \"#utility.yul\":17914:17917   */\n      dup6\n        /* \"#utility.yul\":17907:17911   */\n      0x20\n        /* \"#utility.yul\":17900:17905   */\n      dup7\n        /* \"#utility.yul\":17896:17912   */\n      add\n        /* \"#utility.yul\":17874:17926   */\n      tag_413\n      jump\t// in\n    tag_599:\n        /* \"#utility.yul\":17951:17980   */\n      tag_600\n        /* \"#utility.yul\":17973:17979   */\n      dup2\n        /* \"#utility.yul\":17951:17980   */\n      tag_384\n      jump\t// in\n    tag_600:\n        /* \"#utility.yul\":17946:17949   */\n      dup5\n        /* \"#utility.yul\":17942:17981   */\n      add\n        /* \"#utility.yul\":17935:17981   */\n      swap2\n      pop\n        /* \"#utility.yul\":17715:17987   */\n      pop\n        /* \"#utility.yul\":17623:17987   */\n      swap3\n      swap2\n      pop\n      pop\n      jump\t// out\n        /* \"#utility.yul\":17993:18053   */\n    tag_415:\n        /* \"#utility.yul\":18021:18024   */\n      0x00\n        /* \"#utility.yul\":18042:18047   */\n      dup2\n        /* \"#utility.yul\":18035:18047   */\n      swap1\n      pop\n        /* \"#utility.yul\":17993:18053   */\n      swap2\n      swap1\n      pop\n      jump\t// out\n        /* \"#utility.yul\":18059:18201   */\n    tag_416:\n        /* \"#utility.yul\":18109:18118   */\n      0x00\n        /* \"#utility.yul\":18142:18195   */\n      tag_603\n        /* \"#utility.yul\":18160:18194   */\n      tag_604\n        /* \"#utility.yul\":18169:18193   */\n      tag_605\n        /* \"#utility.yul\":18187:18192   */\n      dup5\n        /* \"#utility.yul\":18169:18193   */\n      tag_372\n      jump\t// in\n    tag_605:\n        /* \"#utility.yul\":18160:18194   */\n      tag_415\n      jump\t// in\n    tag_604:\n        /* \"#utility.yul\":18142:18195   */\n      tag_372\n      jump\t// in\n    tag_603:\n        /* \"#utility.yul\":18129:18195   */\n      swap1\n      pop\n        /* \"#utility.yul\":18059:18201   */\n      swap2\n      swap1\n      pop\n      jump\t// out\n        /* \"#utility.yul\":18207:18333   */\n    tag_417:\n        /* \"#utility.yul\":18257:18266   */\n      0x00\n        /* \"#utility.yul\":18290:18327   */\n      tag_607\n        /* \"#utility.yul\":18321:18326   */\n      dup3\n        /* \"#utility.yul\":18290:18327   */\n      tag_416\n      jump\t// in\n    tag_607:\n        /* \"#utility.yul\":18277:18327   */\n      swap1\n      pop\n        /* \"#utility.yul\":18207:18333   */\n      swap2\n      swap1\n      pop\n      jump\t// out\n        /* \"#utility.yul\":18339:18473   */\n    tag_418:\n        /* \"#utility.yul\":18397:18406   */\n      0x00\n        /* \"#utility.yul\":18430:18467   */\n      tag_609\n        /* \"#utility.yul\":18461:18466   */\n      dup3\n        /* \"#utility.yul\":18430:18467   */\n      tag_417\n      jump\t// in\n    tag_609:\n        /* \"#utility.yul\":18417:18467   */\n      swap1\n      pop\n        /* \"#utility.yul\":18339:18473   */\n      swap2\n      swap1\n      pop\n      jump\t// out\n        /* \"#utility.yul\":18479:18626   */\n    tag_419:\n        /* \"#utility.yul\":18574:18619   */\n      tag_611\n        /* \"#utility.yul\":18613:18618   */\n      dup2\n        /* \"#utility.yul\":18574:18619   */\n      tag_418\n      jump\t// in\n    tag_611:\n        /* \"#utility.yul\":18569:18572   */\n      dup3\n        /* \"#utility.yul\":18562:18620   */\n      mstore\n        /* \"#utility.yul\":18479:18626   */\n      pop\n      pop\n      jump\t// out\n        /* \"#utility.yul\":18632:19605   */\n    tag_286:\n        /* \"#utility.yul\":18913:18917   */\n      0x00\n        /* \"#utility.yul\":18951:18954   */\n      0xc0\n        /* \"#utility.yul\":18940:18949   */\n      dup3\n        /* \"#utility.yul\":18936:18955   */\n      add\n        /* \"#utility.yul\":18928:18955   */\n      swap1\n      pop\n        /* \"#utility.yul\":18965:19036   */\n      tag_613\n        /* \"#utility.yul\":19033:19034   */\n      0x00\n        /* \"#utility.yul\":19022:19031   */\n      dup4\n        /* \"#utility.yul\":19018:19035   */\n      add\n        /* \"#utility.yul\":19009:19015   */\n      dup10\n        /* \"#utility.yul\":18965:19036   */\n      tag_380\n      jump\t// in\n    tag_613:\n        /* \"#utility.yul\":19046:19118   */\n      tag_614\n        /* \"#utility.yul\":19114:19116   */\n      0x20\n        /* \"#utility.yul\":19103:19112   */\n      dup4\n        /* \"#utility.yul\":19099:19117   */\n      add\n        /* \"#utility.yul\":19090:19096   */\n      dup9\n        /* \"#utility.yul\":19046:19118   */\n      tag_380\n      jump\t// in\n    tag_614:\n        /* \"#utility.yul\":19165:19174   */\n      dup2\n        /* \"#utility.yul\":19159:19163   */\n      dup2\n        /* \"#utility.yul\":19155:19175   */\n      sub\n        /* \"#utility.yul\":19150:19152   */\n      0x40\n        /* \"#utility.yul\":19139:19148   */\n      dup4\n        /* \"#utility.yul\":19135:19153   */\n      add\n        /* \"#utility.yul\":19128:19176   */\n      mstore\n        /* \"#utility.yul\":19193:19271   */\n      tag_615\n        /* \"#utility.yul\":19266:19270   */\n      dup2\n        /* \"#utility.yul\":19257:19263   */\n      dup8\n        /* \"#utility.yul\":19193:19271   */\n      tag_414\n      jump\t// in\n    tag_615:\n        /* \"#utility.yul\":19185:19271   */\n      swap1\n      pop\n        /* \"#utility.yul\":19318:19327   */\n      dup2\n        /* \"#utility.yul\":19312:19316   */\n      dup2\n        /* \"#utility.yul\":19308:19328   */\n      sub\n        /* \"#utility.yul\":19303:19305   */\n      0x60\n        /* \"#utility.yul\":19292:19301   */\n      dup4\n        /* \"#utility.yul\":19288:19306   */\n      add\n        /* \"#utility.yul\":19281:19329   */\n      mstore\n        /* \"#utility.yul\":19346:19424   */\n      tag_616\n        /* \"#utility.yul\":19419:19423   */\n      dup2\n        /* \"#utility.yul\":19410:19416   */\n      dup7\n        /* \"#utility.yul\":19346:19424   */\n      tag_414\n      jump\t// in\n    tag_616:\n        /* \"#utility.yul\":19338:19424   */\n      swap1\n      pop\n        /* \"#utility.yul\":19434:19515   */\n      tag_617\n        /* \"#utility.yul\":19510:19513   */\n      0x80\n        /* \"#utility.yul\":19499:19508   */\n      dup4\n        /* \"#utility.yul\":19495:19514   */\n      add\n        /* \"#utility.yul\":19486:19492   */\n      dup6\n        /* \"#utility.yul\":19434:19515   */\n      tag_419\n      jump\t// in\n    tag_617:\n        /* \"#utility.yul\":19525:19598   */\n      tag_618\n        /* \"#utility.yul\":19593:19596   */\n      0xa0\n        /* \"#utility.yul\":19582:19591   */\n      dup4\n        /* \"#utility.yul\":19578:19597   */\n      add\n        /* \"#utility.yul\":19569:19575   */\n      dup5\n        /* \"#utility.yul\":19525:19598   */\n      tag_381\n      jump\t// in\n    tag_618:\n        /* \"#utility.yul\":18632:19605   */\n      swap8\n      swap7\n      pop\n      pop\n      pop\n      pop\n      pop\n      pop\n      pop\n      jump\t// out\n        /* \"#utility.yul\":19611:19916   */\n    tag_291:\n        /* \"#utility.yul\":19651:19654   */\n      0x00\n        /* \"#utility.yul\":19670:19690   */\n      tag_620\n        /* \"#utility.yul\":19688:19689   */\n      dup3\n        /* \"#utility.yul\":19670:19690   */\n      tag_366\n      jump\t// in\n    tag_620:\n        /* \"#utility.yul\":19665:19690   */\n      swap2\n      pop\n        /* \"#utility.yul\":19704:19724   */\n      tag_621\n        /* \"#utility.yul\":19722:19723   */\n      dup4\n        /* \"#utility.yul\":19704:19724   */\n      tag_366\n      jump\t// in\n    tag_621:\n        /* \"#utility.yul\":19699:19724   */\n      swap3\n      pop\n        /* \"#utility.yul\":19858:19859   */\n      dup3\n        /* \"#utility.yul\":19790:19856   */\n      0xffffffffffffffffffffffffffffffffffffffffffffffffffffffffffffffff\n        /* \"#utility.yul\":19786:19860   */\n      sub\n        /* \"#utility.yul\":19783:19784   */\n      dup3\n        /* \"#utility.yul\":19780:19861   */\n      gt\n        /* \"#utility.yul\":19777:19884   */\n      iszero\n      tag_622\n      jumpi\n        /* \"#utility.yul\":19864:19882   */\n      tag_623\n      tag_399\n      jump\t// in\n    tag_623:\n        /* \"#utility.yul\":19777:19884   */\n    tag_622:\n        /* \"#utility.yul\":19908:19909   */\n      dup3\n        /* \"#utility.yul\":19905:19906   */\n      dup3\n        /* \"#utility.yul\":19901:19910   */\n      add\n        /* \"#utility.yul\":19894:19910   */\n      swap1\n      pop\n        /* \"#utility.yul\":19611:19916   */\n      swap3\n      swap2\n      pop\n      pop\n      jump\t// out\n        /* \"#utility.yul\":19922:20102   */\n    tag_318:\n        /* \"#utility.yul\":19970:20047   */\n      0x4e487b7100000000000000000000000000000000000000000000000000000000\n        /* \"#utility.yul\":19967:19968   */\n      0x00\n        /* \"#utility.yul\":19960:20048   */\n      mstore\n        /* \"#utility.yul\":20067:20071   */\n      0x31\n        /* \"#utility.yul\":20064:20065   */\n      0x04\n        /* \"#utility.yul\":20057:20072   */\n      mstore\n        /* \"#utility.yul\":20091:20095   */\n      0x24\n        /* \"#utility.yul\":20088:20089   */\n      0x00\n        /* \"#utility.yul\":20081:20096   */\n      revert\n    stop\n\n    sub_0: assembly {\n            /* \"Contracts\":8594:9667  contract AccountabilityContractApprovalRequest {... */\n          mstore(0x40, 0x80)\n            /* \"Contracts\":8826:9203  constructor(address _accountabilityContractAddress) {... */\n          callvalue\n          dup1\n          iszero\n          tag_1\n          jumpi\n          0x00\n          dup1\n          revert\n        tag_1:\n          pop\n          mload(0x40)\n          sub(codesize, bytecodeSize)\n          dup1\n          bytecodeSize\n          dup4\n          codecopy\n          dup2\n          dup2\n          add\n          0x40\n          mstore\n          dup2\n          add\n          swap1\n          tag_2\n          swap2\n          swap1\n          tag_3\n          jump\t// in\n        tag_2:\n            /* \"Contracts\":8888:8933  AccountabilityContract accountabilityContract */\n          0x00\n            /* \"Contracts\":8959:8989  _accountabilityContractAddress */\n          dup2\n            /* \"Contracts\":8888:8990  AccountabilityContract accountabilityContract = AccountabilityContract(_accountabilityContractAddress) */\n          swap1\n          pop\n            /* \"Contracts\":9010:9032  accountabilityContract */\n          dup1\n            /* \"Contracts\":9010:9040  accountabilityContract.creator */\n          0xffffffffffffffffffffffffffffffffffffffff\n          and\n          0x02d05d3f\n            /* \"Contracts\":9010:9042  accountabilityContract.creator() */\n          mload(0x40)\n          dup2\n          0xffffffff\n          and\n          0xe0\n          shl\n          dup2\n          mstore\n          0x04\n          add\n          0x20\n          mload(0x40)\n          dup1\n          dup4\n          sub\n          dup2\n          dup7\n          gas\n          staticcall\n          iszero\n          dup1\n          iszero\n          tag_7\n          jumpi\n          returndatasize\n          0x00\n          dup1\n          returndatacopy\n          revert(0x00, returndatasize)\n        tag_7:\n          pop\n          pop\n          pop\n          pop\n          mload(0x40)\n          returndatasize\n          not(0x1f)\n          0x1f\n          dup3\n          add\n          and\n          dup3\n          add\n          dup1\n          0x40\n          mstore\n          pop\n          dup2\n          add\n          swap1\n          tag_8\n          swap2\n          swap1\n          tag_3\n          jump\t// in\n        tag_8:\n            /* \"Contracts\":9000:9007  creator */\n          0x00\n          dup1\n            /* \"Contracts\":9000:9042  creator = accountabilityContract.creator() */\n          0x0100\n          exp\n          dup2\n          sload\n          dup2\n          0xffffffffffffffffffffffffffffffffffffffff\n          mul\n          not\n          and\n          swap1\n          dup4\n          0xffffffffffffffffffffffffffffffffffffffff\n          and\n          mul\n          or\n          swap1\n          sstore\n          pop\n            /* \"Contracts\":9062:9084  accountabilityContract */\n          dup1\n            /* \"Contracts\":9062:9092  accountabilityContract.referee */\n          0xffffffffffffffffffffffffffffffffffffffff\n          and\n          0x3b1bebd1\n            /* \"Contracts\":9062:9094  accountabilityContract.referee() */\n          mload(0x40)\n          dup2\n          0xffffffff\n          and\n          0xe0\n          shl\n          dup2\n          mstore\n          0x04\n          add\n          0x20\n          mload(0x40)\n          dup1\n          dup4\n          sub\n          dup2\n          dup7\n          gas\n          staticcall\n          iszero\n          dup1\n          iszero\n          tag_10\n          jumpi\n          returndatasize\n          0x00\n          dup1\n          returndatacopy\n          revert(0x00, returndatasize)\n        tag_10:\n          pop\n          pop\n          pop\n          pop\n          mload(0x40)\n          returndatasize\n          not(0x1f)\n          0x1f\n          dup3\n          add\n          and\n          dup3\n          add\n          dup1\n          0x40\n          mstore\n          pop\n          dup2\n          add\n          swap1\n          tag_11\n          swap2\n          swap1\n          tag_3\n          jump\t// in\n        tag_11:\n            /* \"Contracts\":9052:9059  referee */\n          0x01\n          0x00\n            /* \"Contracts\":9052:9094  referee = accountabilityContract.referee() */\n          0x0100\n          exp\n          dup2\n          sload\n          dup2\n          0xffffffffffffffffffffffffffffffffffffffff\n          mul\n          not\n          and\n          swap1\n          dup4\n          0xffffffffffffffffffffffffffffffffffffffff\n          and\n          mul\n          or\n          swap1\n          sstore\n          pop\n            /* \"Contracts\":9136:9166  _accountabilityContractAddress */\n          dup2\n            /* \"Contracts\":9104:9133  accountabilityContractAddress */\n          0x02\n          0x00\n            /* \"Contracts\":9104:9166  accountabilityContractAddress = _accountabilityContractAddress */\n          0x0100\n          exp\n          dup2\n          sload\n          dup2\n          0xffffffffffffffffffffffffffffffffffffffff\n          mul\n          not\n          and\n          swap1\n          dup4\n          0xffffffffffffffffffffffffffffffffffffffff\n          and\n          mul\n          or\n          swap1\n          sstore\n          pop\n            /* \"Contracts\":9185:9196  Status.OPEN */\n          0x00\n            /* \"Contracts\":9176:9182  status */\n          0x02\n          0x14\n            /* \"Contracts\":9176:9196  status = Status.OPEN */\n          0x0100\n          exp\n          dup2\n          sload\n          dup2\n          0xff\n          mul\n          not\n          and\n          swap1\n          dup4\n          0x02\n          dup2\n          gt\n          iszero\n          tag_12\n          jumpi\n          tag_13\n          tag_14\n          jump\t// in\n        tag_13:\n        tag_12:\n          mul\n          or\n          swap1\n          sstore\n          pop\n            /* \"Contracts\":8878:9203  {... */\n          pop\n            /* \"Contracts\":8826:9203  constructor(address _accountabilityContractAddress) {... */\n          pop\n            /* \"Contracts\":8594:9667  contract AccountabilityContractApprovalRequest {... */\n          jump(tag_15)\n            /* \"#utility.yul\":88:205   */\n        tag_17:\n            /* \"#utility.yul\":197:198   */\n          0x00\n            /* \"#utility.yul\":194:195   */\n          dup1\n            /* \"#utility.yul\":187:199   */\n          revert\n            /* \"#utility.yul\":334:460   */\n        tag_19:\n            /* \"#utility.yul\":371:378   */\n          0x00\n            /* \"#utility.yul\":411:453   */\n          0xffffffffffffffffffffffffffffffffffffffff\n            /* \"#utility.yul\":404:409   */\n          dup3\n            /* \"#utility.yul\":400:454   */\n          and\n            /* \"#utility.yul\":389:454   */\n          swap1\n          pop\n            /* \"#utility.yul\":334:460   */\n          swap2\n          swap1\n          pop\n          jump\t// out\n            /* \"#utility.yul\":466:562   */\n        tag_20:\n            /* \"#utility.yul\":503:510   */\n          0x00\n            /* \"#utility.yul\":532:556   */\n          tag_29\n            /* \"#utility.yul\":550:555   */\n          dup3\n            /* \"#utility.yul\":532:556   */\n          tag_19\n          jump\t// in\n        tag_29:\n            /* \"#utility.yul\":521:556   */\n          swap1\n          pop\n            /* \"#utility.yul\":466:562   */\n          swap2\n          swap1\n          pop\n          jump\t// out\n            /* \"#utility.yul\":568:690   */\n        tag_21:\n            /* \"#utility.yul\":641:665   */\n          tag_31\n            /* \"#utility.yul\":659:664   */\n          dup2\n            /* \"#utility.yul\":641:665   */\n          tag_20\n          jump\t// in\n        tag_31:\n            /* \"#utility.yul\":634:639   */\n          dup2\n            /* \"#utility.yul\":631:666   */\n          eq\n            /* \"#utility.yul\":621:684   */\n          tag_32\n          jumpi\n            /* \"#utility.yul\":680:681   */\n          0x00\n            /* \"#utility.yul\":677:678   */\n          dup1\n            /* \"#utility.yul\":670:682   */\n          revert\n            /* \"#utility.yul\":621:684   */\n        tag_32:\n            /* \"#utility.yul\":568:690   */\n          pop\n          jump\t// out\n            /* \"#utility.yul\":696:839   */\n        tag_22:\n            /* \"#utility.yul\":753:758   */\n          0x00\n            /* \"#utility.yul\":784:790   */\n          dup2\n            /* \"#utility.yul\":778:791   */\n          mload\n            /* \"#utility.yul\":769:791   */\n          swap1\n          pop\n            /* \"#utility.yul\":800:833   */\n          tag_34\n            /* \"#utility.yul\":827:832   */\n          dup2\n            /* \"#utility.yul\":800:833   */\n          tag_21\n          jump\t// in\n        tag_34:\n            /* \"#utility.yul\":696:839   */\n          swap3\n          swap2\n          pop\n          pop\n          jump\t// out\n            /* \"#utility.yul\":845:1196   */\n        tag_3:\n            /* \"#utility.yul\":915:921   */\n          0x00\n            /* \"#utility.yul\":964:966   */\n          0x20\n            /* \"#utility.yul\":952:961   */\n          dup3\n            /* \"#utility.yul\":943:950   */\n          dup5\n            /* \"#utility.yul\":939:962   */\n          sub\n            /* \"#utility.yul\":935:967   */\n          slt\n            /* \"#utility.yul\":932:1051   */\n          iszero\n          tag_36\n          jumpi\n            /* \"#utility.yul\":970:1049   */\n          tag_37\n          tag_17\n          jump\t// in\n        tag_37:\n            /* \"#utility.yul\":932:1051   */\n        tag_36:\n            /* \"#utility.yul\":1090:1091   */\n          0x00\n            /* \"#utility.yul\":1115:1179   */\n          tag_38\n            /* \"#utility.yul\":1171:1178   */\n          dup5\n            /* \"#utility.yul\":1162:1168   */\n          dup3\n            /* \"#utility.yul\":1151:1160   */\n          dup6\n            /* \"#utility.yul\":1147:1169   */\n          add\n            /* \"#utility.yul\":1115:1179   */\n          tag_22\n          jump\t// in\n        tag_38:\n            /* \"#utility.yul\":1105:1179   */\n          swap2\n          pop\n            /* \"#utility.yul\":1061:1189   */\n          pop\n            /* \"#utility.yul\":845:1196   */\n          swap3\n          swap2\n          pop\n          pop\n          jump\t// out\n            /* \"#utility.yul\":1202:1382   */\n        tag_14:\n            /* \"#utility.yul\":1250:1327   */\n          0x4e487b7100000000000000000000000000000000000000000000000000000000\n            /* \"#utility.yul\":1247:1248   */\n          0x00\n            /* \"#utility.yul\":1240:1328   */\n          mstore\n            /* \"#utility.yul\":1347:1351   */\n          0x21\n            /* \"#utility.yul\":1344:1345   */\n          0x04\n            /* \"#utility.yul\":1337:1352   */\n          mstore\n            /* \"#utility.yul\":1371:1375   */\n          0x24\n            /* \"#utility.yul\":1368:1369   */\n          0x00\n            /* \"#utility.yul\":1361:1376   */\n          revert\n            /* \"Contracts\":8594:9667  contract AccountabilityContractApprovalRequest {... */\n        tag_15:\n          dataSize(sub_0)\n          dup1\n          dataOffset(sub_0)\n          0x00\n          codecopy\n          0x00\n          return\n        stop\n\n        sub_0: assembly {\n                /* \"Contracts\":8594:9667  contract AccountabilityContractApprovalRequest {... */\n              mstore(0x40, 0x80)\n              callvalue\n              dup1\n              iszero\n              tag_1\n              jumpi\n              0x00\n              dup1\n              revert\n            tag_1:\n              pop\n              jumpi(tag_2, lt(calldatasize, 0x04))\n              shr(0xe0, calldataload(0x00))\n              dup1\n              0x02d05d3f\n              eq\n              tag_3\n              jumpi\n              dup1\n              0x200d2ed2\n              eq\n              tag_4\n              jumpi\n              dup1\n              0x263b81c9\n              eq\n              tag_5\n              jumpi\n              dup1\n              0x3b1bebd1\n              eq\n              tag_6\n              jumpi\n              dup1\n              0x3c490174\n              eq\n              tag_7\n              jumpi\n              dup1\n              0xa4a44a22\n              eq\n              tag_8\n              jumpi\n            tag_2:\n              0x00\n              dup1\n              revert\n                /* \"Contracts\":8647:8669  address public creator */\n            tag_3:\n              tag_9\n              tag_10\n              jump\t// in\n            tag_9:\n              mload(0x40)\n              tag_11\n              swap2\n              swap1\n              tag_12\n              jump\t// in\n            tag_11:\n              mload(0x40)\n              dup1\n              swap2\n              sub\n              swap1\n              return\n                /* \"Contracts\":8795:8815  Status public status */\n            tag_4:\n              tag_13\n              tag_14\n              jump\t// in\n            tag_13:\n              mload(0x40)\n              tag_15\n              swap2\n              swap1\n              tag_16\n              jump\t// in\n            tag_15:\n              mload(0x40)\n              dup1\n              swap2\n              sub\n              swap1\n              return\n                /* \"Contracts\":9209:9437  function approveRequest() public  returns (AccountabilityContractApprovalRequest) {... */\n            tag_5:\n              tag_17\n              tag_18\n              jump\t// in\n            tag_17:\n              mload(0x40)\n              tag_19\n              swap2\n              swap1\n              tag_20\n              jump\t// in\n            tag_19:\n              mload(0x40)\n              dup1\n              swap2\n              sub\n              swap1\n              return\n                /* \"Contracts\":8675:8697  address public referee */\n            tag_6:\n              tag_21\n              tag_22\n              jump\t// in\n            tag_21:\n              mload(0x40)\n              tag_23\n              swap2\n              swap1\n              tag_12\n              jump\t// in\n            tag_23:\n              mload(0x40)\n              dup1\n              swap2\n              sub\n              swap1\n              return\n                /* \"Contracts\":8703:8747  address public accountabilityContractAddress */\n            tag_7:\n              tag_24\n              tag_25\n              jump\t// in\n            tag_24:\n              mload(0x40)\n              tag_26\n              swap2\n              swap1\n              tag_12\n              jump\t// in\n            tag_26:\n              mload(0x40)\n              dup1\n              swap2\n              sub\n              swap1\n              return\n                /* \"Contracts\":9444:9664  function denyRequest() public  returns (AccountabilityContractApprovalRequest) {... */\n            tag_8:\n              tag_27\n              tag_28\n              jump\t// in\n            tag_27:\n              mload(0x40)\n              tag_29\n              swap2\n              swap1\n              tag_20\n              jump\t// in\n            tag_29:\n              mload(0x40)\n              dup1\n              swap2\n              sub\n              swap1\n              return\n                /* \"Contracts\":8647:8669  address public creator */\n            tag_10:\n              0x00\n              dup1\n              sload\n              swap1\n              0x0100\n              exp\n              swap1\n              div\n              0xffffffffffffffffffffffffffffffffffffffff\n              and\n              dup2\n              jump\t// out\n                /* \"Contracts\":8795:8815  Status public status */\n            tag_14:\n              0x02\n              0x14\n              swap1\n              sload\n              swap1\n              0x0100\n              exp\n              swap1\n              div\n              0xff\n              and\n              dup2\n              jump\t// out\n                /* \"Contracts\":9209:9437  function approveRequest() public  returns (AccountabilityContractApprovalRequest) {... */\n            tag_18:\n                /* \"Contracts\":9252:9289  AccountabilityContractApprovalRequest */\n              0x00\n                /* \"Contracts\":9322:9329  referee */\n              0x01\n              0x00\n              swap1\n              sload\n              swap1\n              0x0100\n              exp\n              swap1\n              div\n              0xffffffffffffffffffffffffffffffffffffffff\n              and\n                /* \"Contracts\":9309:9329  tx.origin == referee */\n              0xffffffffffffffffffffffffffffffffffffffff\n              and\n                /* \"Contracts\":9309:9318  tx.origin */\n              origin\n                /* \"Contracts\":9309:9329  tx.origin == referee */\n              0xffffffffffffffffffffffffffffffffffffffff\n              and\n              eq\n                /* \"Contracts\":9301:9375  require(tx.origin == referee, \"Only referee can approve approval request\") */\n              tag_31\n              jumpi\n              mload(0x40)\n              0x08c379a000000000000000000000000000000000000000000000000000000000\n              dup2\n              mstore\n              0x04\n              add\n              tag_32\n              swap1\n              tag_33\n              jump\t// in\n            tag_32:\n              mload(0x40)\n              dup1\n              swap2\n              sub\n              swap1\n              revert\n            tag_31:\n                /* \"Contracts\":9394:9409  Status.APPROVED */\n              0x01\n                /* \"Contracts\":9385:9391  status */\n              0x02\n              0x14\n                /* \"Contracts\":9385:9409  status = Status.APPROVED */\n              0x0100\n              exp\n              dup2\n              sload\n              dup2\n              0xff\n              mul\n              not\n              and\n              swap1\n              dup4\n              0x02\n              dup2\n              gt\n              iszero\n              tag_34\n              jumpi\n              tag_35\n              tag_36\n              jump\t// in\n            tag_35:\n            tag_34:\n              mul\n              or\n              swap1\n              sstore\n              pop\n                /* \"Contracts\":9426:9430  this */\n              address\n                /* \"Contracts\":9419:9430  return this */\n              swap1\n              pop\n                /* \"Contracts\":9209:9437  function approveRequest() public  returns (AccountabilityContractApprovalRequest) {... */\n              swap1\n              jump\t// out\n                /* \"Contracts\":8675:8697  address public referee */\n            tag_22:\n              0x01\n              0x00\n              swap1\n              sload\n              swap1\n              0x0100\n              exp\n              swap1\n              div\n              0xffffffffffffffffffffffffffffffffffffffff\n              and\n              dup2\n              jump\t// out\n                /* \"Contracts\":8703:8747  address public accountabilityContractAddress */\n            tag_25:\n              0x02\n              0x00\n              swap1\n              sload\n              swap1\n              0x0100\n              exp\n              swap1\n              div\n              0xffffffffffffffffffffffffffffffffffffffff\n              and\n              dup2\n              jump\t// out\n                /* \"Contracts\":9444:9664  function denyRequest() public  returns (AccountabilityContractApprovalRequest) {... */\n            tag_28:\n                /* \"Contracts\":9484:9521  AccountabilityContractApprovalRequest */\n              0x00\n                /* \"Contracts\":9554:9561  referee */\n              0x01\n              0x00\n              swap1\n              sload\n              swap1\n              0x0100\n              exp\n              swap1\n              div\n              0xffffffffffffffffffffffffffffffffffffffff\n              and\n                /* \"Contracts\":9541:9561  tx.origin == referee */\n              0xffffffffffffffffffffffffffffffffffffffff\n              and\n                /* \"Contracts\":9541:9550  tx.origin */\n              origin\n                /* \"Contracts\":9541:9561  tx.origin == referee */\n              0xffffffffffffffffffffffffffffffffffffffff\n              and\n              eq\n                /* \"Contracts\":9533:9604  require(tx.origin == referee, \"Only referee can deny approval request\") */\n              tag_38\n              jumpi\n              mload(0x40)\n              0x08c379a000000000000000000000000000000000000000000000000000000000\n              dup2\n              mstore\n              0x04\n              add\n              tag_39\n              swap1\n              tag_40\n              jump\t// in\n            tag_39:\n              mload(0x40)\n              dup1\n              swap2\n              sub\n              swap1\n              revert\n            tag_38:\n                /* \"Contracts\":9623:9636  Status.DENIED */\n              0x02\n                /* \"Contracts\":9614:9620  status */\n              dup1\n              0x14\n                /* \"Contracts\":9614:9636  status = Status.DENIED */\n              0x0100\n              exp\n              dup2\n              sload\n              dup2\n              0xff\n              mul\n              not\n              and\n              swap1\n              dup4\n              0x02\n              dup2\n              gt\n              iszero\n              tag_41\n              jumpi\n              tag_42\n              tag_36\n              jump\t// in\n            tag_42:\n            tag_41:\n              mul\n              or\n              swap1\n              sstore\n              pop\n                /* \"Contracts\":9653:9657  this */\n              address\n                /* \"Contracts\":9646:9657  return this */\n              swap1\n              pop\n                /* \"Contracts\":9444:9664  function denyRequest() public  returns (AccountabilityContractApprovalRequest) {... */\n              swap1\n              jump\t// out\n                /* \"#utility.yul\":7:133   */\n            tag_43:\n                /* \"#utility.yul\":44:51   */\n              0x00\n                /* \"#utility.yul\":84:126   */\n              0xffffffffffffffffffffffffffffffffffffffff\n                /* \"#utility.yul\":77:82   */\n              dup3\n                /* \"#utility.yul\":73:127   */\n              and\n                /* \"#utility.yul\":62:127   */\n              swap1\n              pop\n                /* \"#utility.yul\":7:133   */\n              swap2\n              swap1\n              pop\n              jump\t// out\n                /* \"#utility.yul\":139:235   */\n            tag_44:\n                /* \"#utility.yul\":176:183   */\n              0x00\n                /* \"#utility.yul\":205:229   */\n              tag_63\n                /* \"#utility.yul\":223:228   */\n              dup3\n                /* \"#utility.yul\":205:229   */\n              tag_43\n              jump\t// in\n            tag_63:\n                /* \"#utility.yul\":194:229   */\n              swap1\n              pop\n                /* \"#utility.yul\":139:235   */\n              swap2\n              swap1\n              pop\n              jump\t// out\n                /* \"#utility.yul\":241:359   */\n            tag_45:\n                /* \"#utility.yul\":328:352   */\n              tag_65\n                /* \"#utility.yul\":346:351   */\n              dup2\n                /* \"#utility.yul\":328:352   */\n              tag_44\n              jump\t// in\n            tag_65:\n                /* \"#utility.yul\":323:326   */\n              dup3\n                /* \"#utility.yul\":316:353   */\n              mstore\n                /* \"#utility.yul\":241:359   */\n              pop\n              pop\n              jump\t// out\n                /* \"#utility.yul\":365:587   */\n            tag_12:\n                /* \"#utility.yul\":458:462   */\n              0x00\n                /* \"#utility.yul\":496:498   */\n              0x20\n                /* \"#utility.yul\":485:494   */\n              dup3\n                /* \"#utility.yul\":481:499   */\n              add\n                /* \"#utility.yul\":473:499   */\n              swap1\n              pop\n                /* \"#utility.yul\":509:580   */\n              tag_67\n                /* \"#utility.yul\":577:578   */\n              0x00\n                /* \"#utility.yul\":566:575   */\n              dup4\n                /* \"#utility.yul\":562:579   */\n              add\n                /* \"#utility.yul\":553:559   */\n              dup5\n                /* \"#utility.yul\":509:580   */\n              tag_45\n              jump\t// in\n            tag_67:\n                /* \"#utility.yul\":365:587   */\n              swap3\n              swap2\n              pop\n              pop\n              jump\t// out\n                /* \"#utility.yul\":593:773   */\n            tag_36:\n                /* \"#utility.yul\":641:718   */\n              0x4e487b7100000000000000000000000000000000000000000000000000000000\n                /* \"#utility.yul\":638:639   */\n              0x00\n                /* \"#utility.yul\":631:719   */\n              mstore\n                /* \"#utility.yul\":738:742   */\n              0x21\n                /* \"#utility.yul\":735:736   */\n              0x04\n                /* \"#utility.yul\":728:743   */\n              mstore\n                /* \"#utility.yul\":762:766   */\n              0x24\n                /* \"#utility.yul\":759:760   */\n              0x00\n                /* \"#utility.yul\":752:767   */\n              revert\n                /* \"#utility.yul\":779:894   */\n            tag_46:\n                /* \"#utility.yul\":862:863   */\n              0x03\n                /* \"#utility.yul\":855:860   */\n              dup2\n                /* \"#utility.yul\":852:864   */\n              lt\n                /* \"#utility.yul\":842:888   */\n              tag_70\n              jumpi\n                /* \"#utility.yul\":868:886   */\n              tag_71\n              tag_36\n              jump\t// in\n            tag_71:\n                /* \"#utility.yul\":842:888   */\n            tag_70:\n                /* \"#utility.yul\":779:894   */\n              pop\n              jump\t// out\n                /* \"#utility.yul\":900:1031   */\n            tag_47:\n                /* \"#utility.yul\":947:954   */\n              0x00\n                /* \"#utility.yul\":976:981   */\n              dup2\n                /* \"#utility.yul\":965:981   */\n              swap1\n              pop\n                /* \"#utility.yul\":982:1025   */\n              tag_73\n                /* \"#utility.yul\":1019:1024   */\n              dup3\n                /* \"#utility.yul\":982:1025   */\n              tag_46\n              jump\t// in\n            tag_73:\n                /* \"#utility.yul\":900:1031   */\n              swap2\n              swap1\n              pop\n              jump\t// out\n                /* \"#utility.yul\":1037:1168   */\n            tag_48:\n                /* \"#utility.yul\":1095:1104   */\n              0x00\n                /* \"#utility.yul\":1128:1162   */\n              tag_75\n                /* \"#utility.yul\":1156:1161   */\n              dup3\n                /* \"#utility.yul\":1128:1162   */\n              tag_47\n              jump\t// in\n            tag_75:\n                /* \"#utility.yul\":1115:1162   */\n              swap1\n              pop\n                /* \"#utility.yul\":1037:1168   */\n              swap2\n              swap1\n              pop\n              jump\t// out\n                /* \"#utility.yul\":1174:1321   */\n            tag_49:\n                /* \"#utility.yul\":1269:1314   */\n              tag_77\n                /* \"#utility.yul\":1308:1313   */\n              dup2\n                /* \"#utility.yul\":1269:1314   */\n              tag_48\n              jump\t// in\n            tag_77:\n                /* \"#utility.yul\":1264:1267   */\n              dup3\n                /* \"#utility.yul\":1257:1315   */\n              mstore\n                /* \"#utility.yul\":1174:1321   */\n              pop\n              pop\n              jump\t// out\n                /* \"#utility.yul\":1327:1565   */\n            tag_16:\n                /* \"#utility.yul\":1428:1432   */\n              0x00\n                /* \"#utility.yul\":1466:1468   */\n              0x20\n                /* \"#utility.yul\":1455:1464   */\n              dup3\n                /* \"#utility.yul\":1451:1469   */\n              add\n                /* \"#utility.yul\":1443:1469   */\n              swap1\n              pop\n                /* \"#utility.yul\":1479:1558   */\n              tag_79\n                /* \"#utility.yul\":1555:1556   */\n              0x00\n                /* \"#utility.yul\":1544:1553   */\n              dup4\n                /* \"#utility.yul\":1540:1557   */\n              add\n                /* \"#utility.yul\":1531:1537   */\n              dup5\n                /* \"#utility.yul\":1479:1558   */\n              tag_49\n              jump\t// in\n            tag_79:\n                /* \"#utility.yul\":1327:1565   */\n              swap3\n              swap2\n              pop\n              pop\n              jump\t// out\n                /* \"#utility.yul\":1571:1631   */\n            tag_50:\n                /* \"#utility.yul\":1599:1602   */\n              0x00\n                /* \"#utility.yul\":1620:1625   */\n              dup2\n                /* \"#utility.yul\":1613:1625   */\n              swap1\n              pop\n                /* \"#utility.yul\":1571:1631   */\n              swap2\n              swap1\n              pop\n              jump\t// out\n                /* \"#utility.yul\":1637:1779   */\n            tag_51:\n                /* \"#utility.yul\":1687:1696   */\n              0x00\n                /* \"#utility.yul\":1720:1773   */\n              tag_82\n                /* \"#utility.yul\":1738:1772   */\n              tag_83\n                /* \"#utility.yul\":1747:1771   */\n              tag_84\n                /* \"#utility.yul\":1765:1770   */\n              dup5\n                /* \"#utility.yul\":1747:1771   */\n              tag_43\n              jump\t// in\n            tag_84:\n                /* \"#utility.yul\":1738:1772   */\n              tag_50\n              jump\t// in\n            tag_83:\n                /* \"#utility.yul\":1720:1773   */\n              tag_43\n              jump\t// in\n            tag_82:\n                /* \"#utility.yul\":1707:1773   */\n              swap1\n              pop\n                /* \"#utility.yul\":1637:1779   */\n              swap2\n              swap1\n              pop\n              jump\t// out\n                /* \"#utility.yul\":1785:1911   */\n            tag_52:\n                /* \"#utility.yul\":1835:1844   */\n              0x00\n                /* \"#utility.yul\":1868:1905   */\n              tag_86\n                /* \"#utility.yul\":1899:1904   */\n              dup3\n                /* \"#utility.yul\":1868:1905   */\n              tag_51\n              jump\t// in\n            tag_86:\n                /* \"#utility.yul\":1855:1905   */\n              swap1\n              pop\n                /* \"#utility.yul\":1785:1911   */\n              swap2\n              swap1\n              pop\n              jump\t// out\n                /* \"#utility.yul\":1917:2088   */\n            tag_53:\n                /* \"#utility.yul\":2012:2021   */\n              0x00\n                /* \"#utility.yul\":2045:2082   */\n              tag_88\n                /* \"#utility.yul\":2076:2081   */\n              dup3\n                /* \"#utility.yul\":2045:2082   */\n              tag_52\n              jump\t// in\n            tag_88:\n                /* \"#utility.yul\":2032:2082   */\n              swap1\n              pop\n                /* \"#utility.yul\":1917:2088   */\n              swap2\n              swap1\n              pop\n              jump\t// out\n                /* \"#utility.yul\":2094:2315   */\n            tag_54:\n                /* \"#utility.yul\":2226:2308   */\n              tag_90\n                /* \"#utility.yul\":2302:2307   */\n              dup2\n                /* \"#utility.yul\":2226:2308   */\n              tag_53\n              jump\t// in\n            tag_90:\n                /* \"#utility.yul\":2221:2224   */\n              dup3\n                /* \"#utility.yul\":2214:2309   */\n              mstore\n                /* \"#utility.yul\":2094:2315   */\n              pop\n              pop\n              jump\t// out\n                /* \"#utility.yul\":2321:2633   */\n            tag_20:\n                /* \"#utility.yul\":2459:2463   */\n              0x00\n                /* \"#utility.yul\":2497:2499   */\n              0x20\n                /* \"#utility.yul\":2486:2495   */\n              dup3\n                /* \"#utility.yul\":2482:2500   */\n              add\n                /* \"#utility.yul\":2474:2500   */\n              swap1\n              pop\n                /* \"#utility.yul\":2510:2626   */\n              tag_92\n                /* \"#utility.yul\":2623:2624   */\n              0x00\n                /* \"#utility.yul\":2612:2621   */\n              dup4\n                /* \"#utility.yul\":2608:2625   */\n              add\n                /* \"#utility.yul\":2599:2605   */\n              dup5\n                /* \"#utility.yul\":2510:2626   */\n              tag_54\n              jump\t// in\n            tag_92:\n                /* \"#utility.yul\":2321:2633   */\n              swap3\n              swap2\n              pop\n              pop\n              jump\t// out\n                /* \"#utility.yul\":2639:2808   */\n            tag_55:\n                /* \"#utility.yul\":2723:2734   */\n              0x00\n                /* \"#utility.yul\":2757:2763   */\n              dup3\n                /* \"#utility.yul\":2752:2755   */\n              dup3\n                /* \"#utility.yul\":2745:2764   */\n              mstore\n                /* \"#utility.yul\":2797:2801   */\n              0x20\n                /* \"#utility.yul\":2792:2795   */\n              dup3\n                /* \"#utility.yul\":2788:2802   */\n              add\n                /* \"#utility.yul\":2773:2802   */\n              swap1\n              pop\n                /* \"#utility.yul\":2639:2808   */\n              swap3\n              swap2\n              pop\n              pop\n              jump\t// out\n                /* \"#utility.yul\":2814:3042   */\n            tag_56:\n                /* \"#utility.yul\":2954:2988   */\n              0x4f6e6c7920726566657265652063616e20617070726f766520617070726f7661\n                /* \"#utility.yul\":2950:2951   */\n              0x00\n                /* \"#utility.yul\":2942:2948   */\n              dup3\n                /* \"#utility.yul\":2938:2952   */\n              add\n                /* \"#utility.yul\":2931:2989   */\n              mstore\n                /* \"#utility.yul\":3023:3034   */\n              0x6c20726571756573740000000000000000000000000000000000000000000000\n                /* \"#utility.yul\":3018:3020   */\n              0x20\n                /* \"#utility.yul\":3010:3016   */\n              dup3\n                /* \"#utility.yul\":3006:3021   */\n              add\n                /* \"#utility.yul\":2999:3035   */\n              mstore\n                /* \"#utility.yul\":2814:3042   */\n              pop\n              jump\t// out\n                /* \"#utility.yul\":3048:3414   */\n            tag_57:\n                /* \"#utility.yul\":3190:3193   */\n              0x00\n                /* \"#utility.yul\":3211:3278   */\n              tag_96\n                /* \"#utility.yul\":3275:3277   */\n              0x29\n                /* \"#utility.yul\":3270:3273   */\n              dup4\n                /* \"#utility.yul\":3211:3278   */\n              tag_55\n              jump\t// in\n            tag_96:\n                /* \"#utility.yul\":3204:3278   */\n              swap2\n              pop\n                /* \"#utility.yul\":3287:3380   */\n              tag_97\n                /* \"#utility.yul\":3376:3379   */\n              dup3\n                /* \"#utility.yul\":3287:3380   */\n              tag_56\n              jump\t// in\n            tag_97:\n                /* \"#utility.yul\":3405:3407   */\n              0x40\n                /* \"#utility.yul\":3400:3403   */\n              dup3\n                /* \"#utility.yul\":3396:3408   */\n              add\n                /* \"#utility.yul\":3389:3408   */\n              swap1\n              pop\n                /* \"#utility.yul\":3048:3414   */\n              swap2\n              swap1\n              pop\n              jump\t// out\n                /* \"#utility.yul\":3420:3839   */\n            tag_33:\n                /* \"#utility.yul\":3586:3590   */\n              0x00\n                /* \"#utility.yul\":3624:3626   */\n              0x20\n                /* \"#utility.yul\":3613:3622   */\n              dup3\n                /* \"#utility.yul\":3609:3627   */\n              add\n                /* \"#utility.yul\":3601:3627   */\n              swap1\n              pop\n                /* \"#utility.yul\":3673:3682   */\n              dup2\n                /* \"#utility.yul\":3667:3671   */\n              dup2\n                /* \"#utility.yul\":3663:3683   */\n              sub\n                /* \"#utility.yul\":3659:3660   */\n              0x00\n                /* \"#utility.yul\":3648:3657   */\n              dup4\n                /* \"#utility.yul\":3644:3661   */\n              add\n                /* \"#utility.yul\":3637:3684   */\n              mstore\n                /* \"#utility.yul\":3701:3832   */\n              tag_99\n                /* \"#utility.yul\":3827:3831   */\n              dup2\n                /* \"#utility.yul\":3701:3832   */\n              tag_57\n              jump\t// in\n            tag_99:\n                /* \"#utility.yul\":3693:3832   */\n              swap1\n              pop\n                /* \"#utility.yul\":3420:3839   */\n              swap2\n              swap1\n              pop\n              jump\t// out\n                /* \"#utility.yul\":3845:4070   */\n            tag_58:\n                /* \"#utility.yul\":3985:4019   */\n              0x4f6e6c7920726566657265652063616e2064656e7920617070726f76616c2072\n                /* \"#utility.yul\":3981:3982   */\n              0x00\n                /* \"#utility.yul\":3973:3979   */\n              dup3\n                /* \"#utility.yul\":3969:3983   */\n              add\n                /* \"#utility.yul\":3962:4020   */\n              mstore\n                /* \"#utility.yul\":4054:4062   */\n              0x6571756573740000000000000000000000000000000000000000000000000000\n                /* \"#utility.yul\":4049:4051   */\n              0x20\n                /* \"#utility.yul\":4041:4047   */\n              dup3\n                /* \"#utility.yul\":4037:4052   */\n              add\n                /* \"#utility.yul\":4030:4063   */\n              mstore\n                /* \"#utility.yul\":3845:4070   */\n              pop\n              jump\t// out\n                /* \"#utility.yul\":4076:4442   */\n            tag_59:\n                /* \"#utility.yul\":4218:4221   */\n              0x00\n                /* \"#utility.yul\":4239:4306   */\n              tag_102\n                /* \"#utility.yul\":4303:4305   */\n              0x26\n                /* \"#utility.yul\":4298:4301   */\n              dup4\n                /* \"#utility.yul\":4239:4306   */\n              tag_55\n              jump\t// in\n            tag_102:\n                /* \"#utility.yul\":4232:4306   */\n              swap2\n              pop\n                /* \"#utility.yul\":4315:4408   */\n              tag_103\n                /* \"#utility.yul\":4404:4407   */\n              dup3\n                /* \"#utility.yul\":4315:4408   */\n              tag_58\n              jump\t// in\n            tag_103:\n                /* \"#utility.yul\":4433:4435   */\n              0x40\n                /* \"#utility.yul\":4428:4431   */\n              dup3\n                /* \"#utility.yul\":4424:4436   */\n              add\n                /* \"#utility.yul\":4417:4436   */\n              swap1\n              pop\n                /* \"#utility.yul\":4076:4442   */\n              swap2\n              swap1\n              pop\n              jump\t// out\n                /* \"#utility.yul\":4448:4867   */\n            tag_40:\n                /* \"#utility.yul\":4614:4618   */\n              0x00\n                /* \"#utility.yul\":4652:4654   */\n              0x20\n                /* \"#utility.yul\":4641:4650   */\n              dup3\n                /* \"#utility.yul\":4637:4655   */\n              add\n                /* \"#utility.yul\":4629:4655   */\n              swap1\n              pop\n                /* \"#utility.yul\":4701:4710   */\n              dup2\n                /* \"#utility.yul\":4695:4699   */\n              dup2\n                /* \"#utility.yul\":4691:4711   */\n              sub\n                /* \"#utility.yul\":4687:4688   */\n              0x00\n                /* \"#utility.yul\":4676:4685   */\n              dup4\n                /* \"#utility.yul\":4672:4689   */\n              add\n                /* \"#utility.yul\":4665:4712   */\n              mstore\n                /* \"#utility.yul\":4729:4860   */\n              tag_105\n                /* \"#utility.yul\":4855:4859   */\n              dup2\n                /* \"#utility.yul\":4729:4860   */\n              tag_59\n              jump\t// in\n            tag_105:\n                /* \"#utility.yul\":4721:4860   */\n              swap1\n              pop\n                /* \"#utility.yul\":4448:4867   */\n              swap2\n              swap1\n              pop\n              jump\t// out\n\n            auxdata: 0xa26469706673582212201b69bc1632425cc4ee58e5a15f4d5e389c3b1836eb6041da14f2dfa1c461666764736f6c634300080c0033\n        }\n    }\n\n    sub_1: assembly {\n            /* \"Contracts\":9669:11062  contract AccountabilityContract {... */\n          mstore(0x40, 0x80)\n            /* \"Contracts\":9948:10317  constructor(address _creator, address _referee, string memory _name, string memory _description, address _failureRecipient, uint _amount) payable {... */\n          mload(0x40)\n          sub(codesize, bytecodeSize)\n          dup1\n          bytecodeSize\n          dup4\n          codecopy\n          dup2\n          dup2\n          add\n          0x40\n          mstore\n          dup2\n          add\n          swap1\n          tag_1\n          swap2\n          swap1\n          tag_2\n          jump\t// in\n        tag_1:\n            /* \"Contracts\":10114:10122  _creator */\n          dup6\n            /* \"Contracts\":10104:10111  creator */\n          0x00\n          dup1\n            /* \"Contracts\":10104:10122  creator = _creator */\n          0x0100\n          exp\n          dup2\n          sload\n          dup2\n          0xffffffffffffffffffffffffffffffffffffffff\n          mul\n          not\n          and\n          swap1\n          dup4\n          0xffffffffffffffffffffffffffffffffffffffff\n          and\n          mul\n          or\n          swap1\n          sstore\n          pop\n            /* \"Contracts\":10142:10150  _referee */\n          dup5\n            /* \"Contracts\":10132:10139  referee */\n          0x01\n          0x00\n            /* \"Contracts\":10132:10150  referee = _referee */\n          0x0100\n          exp\n          dup2\n          sload\n          dup2\n          0xffffffffffffffffffffffffffffffffffffffff\n          mul\n          not\n          and\n          swap1\n          dup4\n          0xffffffffffffffffffffffffffffffffffffffff\n          and\n          mul\n          or\n          swap1\n          sstore\n          pop\n            /* \"Contracts\":10167:10172  _name */\n          dup4\n            /* \"Contracts\":10160:10164  name */\n          0x02\n            /* \"Contracts\":10160:10172  name = _name */\n          swap1\n          dup1\n          mload\n          swap1\n          0x20\n          add\n          swap1\n          tag_5\n          swap3\n          swap2\n          swap1\n          tag_6\n          jump\t// in\n        tag_5:\n          pop\n            /* \"Contracts\":10196:10208  _description */\n          dup3\n            /* \"Contracts\":10182:10193  description */\n          0x03\n            /* \"Contracts\":10182:10208  description = _description */\n          swap1\n          dup1\n          mload\n          swap1\n          0x20\n          add\n          swap1\n          tag_7\n          swap3\n          swap2\n          swap1\n          tag_6\n          jump\t// in\n        tag_7:\n          pop\n            /* \"Contracts\":10237:10254  _failureRecipient */\n          dup2\n            /* \"Contracts\":10218:10234  failureRecipient */\n          0x04\n          0x00\n            /* \"Contracts\":10218:10254  failureRecipient = _failureRecipient */\n          0x0100\n          exp\n          dup2\n          sload\n          dup2\n          0xffffffffffffffffffffffffffffffffffffffff\n          mul\n          not\n          and\n          swap1\n          dup4\n          0xffffffffffffffffffffffffffffffffffffffff\n          and\n          mul\n          or\n          swap1\n          sstore\n          pop\n            /* \"Contracts\":10273:10280  _amount */\n          dup1\n            /* \"Contracts\":10264:10270  amount */\n          0x05\n            /* \"Contracts\":10264:10280  amount = _amount */\n          dup2\n          swap1\n          sstore\n          pop\n            /* \"Contracts\":10299:10310  Status.OPEN */\n          0x00\n            /* \"Contracts\":10290:10296  status */\n          0x06\n          0x00\n            /* \"Contracts\":10290:10310  status = Status.OPEN */\n          0x0100\n          exp\n          dup2\n          sload\n          dup2\n          0xff\n          mul\n          not\n          and\n          swap1\n          dup4\n          0x02\n          dup2\n          gt\n          iszero\n          tag_8\n          jumpi\n          tag_9\n          tag_10\n          jump\t// in\n        tag_9:\n        tag_8:\n          mul\n          or\n          swap1\n          sstore\n          pop\n            /* \"Contracts\":9948:10317  constructor(address _creator, address _referee, string memory _name, string memory _description, address _failureRecipient, uint _amount) payable {... */\n          pop\n          pop\n          pop\n          pop\n          pop\n          pop\n            /* \"Contracts\":9669:11062  contract AccountabilityContract {... */\n          jump(tag_11)\n        tag_6:\n          dup3\n          dup1\n          sload\n          tag_12\n          swap1\n          tag_13\n          jump\t// in\n        tag_12:\n          swap1\n          0x00\n          mstore\n          keccak256(0x00, 0x20)\n          swap1\n          0x1f\n          add\n          0x20\n          swap1\n          div\n          dup2\n          add\n          swap3\n          dup3\n          tag_15\n          jumpi\n          0x00\n          dup6\n          sstore\n          jump(tag_14)\n        tag_15:\n          dup3\n          0x1f\n          lt\n          tag_16\n          jumpi\n          dup1\n          mload\n          not(0xff)\n          and\n          dup4\n          dup1\n          add\n          or\n          dup6\n          sstore\n          jump(tag_14)\n        tag_16:\n          dup3\n          dup1\n          add\n          0x01\n          add\n          dup6\n          sstore\n          dup3\n          iszero\n          tag_14\n          jumpi\n          swap2\n          dup3\n          add\n        tag_17:\n          dup3\n          dup2\n          gt\n          iszero\n          tag_18\n          jumpi\n          dup3\n          mload\n          dup3\n          sstore\n          swap2\n          0x20\n          add\n          swap2\n          swap1\n          0x01\n          add\n          swap1\n          jump(tag_17)\n        tag_18:\n        tag_14:\n          pop\n          swap1\n          pop\n          tag_19\n          swap2\n          swap1\n          tag_20\n          jump\t// in\n        tag_19:\n          pop\n          swap1\n          jump\t// out\n        tag_20:\n        tag_21:\n          dup1\n          dup3\n          gt\n          iszero\n          tag_22\n          jumpi\n          0x00\n          dup2\n          0x00\n          swap1\n          sstore\n          pop\n          0x01\n          add\n          jump(tag_21)\n        tag_22:\n          pop\n          swap1\n          jump\t// out\n            /* \"#utility.yul\":7:82   */\n        tag_23:\n            /* \"#utility.yul\":40:46   */\n          0x00\n            /* \"#utility.yul\":73:75   */\n          0x40\n            /* \"#utility.yul\":67:76   */\n          mload\n            /* \"#utility.yul\":57:76   */\n          swap1\n          pop\n            /* \"#utility.yul\":7:82   */\n          swap1\n          jump\t// out\n            /* \"#utility.yul\":88:205   */\n        tag_24:\n            /* \"#utility.yul\":197:198   */\n          0x00\n            /* \"#utility.yul\":194:195   */\n          dup1\n            /* \"#utility.yul\":187:199   */\n          revert\n            /* \"#utility.yul\":211:328   */\n        tag_25:\n            /* \"#utility.yul\":320:321   */\n          0x00\n            /* \"#utility.yul\":317:318   */\n          dup1\n            /* \"#utility.yul\":310:322   */\n          revert\n            /* \"#utility.yul\":334:460   */\n        tag_26:\n            /* \"#utility.yul\":371:378   */\n          0x00\n            /* \"#utility.yul\":411:453   */\n          0xffffffffffffffffffffffffffffffffffffffff\n            /* \"#utility.yul\":404:409   */\n          dup3\n            /* \"#utility.yul\":400:454   */\n          and\n            /* \"#utility.yul\":389:454   */\n          swap1\n          pop\n            /* \"#utility.yul\":334:460   */\n          swap2\n          swap1\n          pop\n          jump\t// out\n            /* \"#utility.yul\":466:562   */\n        tag_27:\n            /* \"#utility.yul\":503:510   */\n          0x00\n            /* \"#utility.yul\":532:556   */\n          tag_50\n            /* \"#utility.yul\":550:555   */\n          dup3\n            /* \"#utility.yul\":532:556   */\n          tag_26\n          jump\t// in\n        tag_50:\n            /* \"#utility.yul\":521:556   */\n          swap1\n          pop\n            /* \"#utility.yul\":466:562   */\n          swap2\n          swap1\n          pop\n          jump\t// out\n            /* \"#utility.yul\":568:690   */\n        tag_28:\n            /* \"#utility.yul\":641:665   */\n          tag_52\n            /* \"#utility.yul\":659:664   */\n          dup2\n            /* \"#utility.yul\":641:665   */\n          tag_27\n          jump\t// in\n        tag_52:\n            /* \"#utility.yul\":634:639   */\n          dup2\n            /* \"#utility.yul\":631:666   */\n          eq\n            /* \"#utility.yul\":621:684   */\n          tag_53\n          jumpi\n            /* \"#utility.yul\":680:681   */\n          0x00\n            /* \"#utility.yul\":677:678   */\n          dup1\n            /* \"#utility.yul\":670:682   */\n          revert\n            /* \"#utility.yul\":621:684   */\n        tag_53:\n            /* \"#utility.yul\":568:690   */\n          pop\n          jump\t// out\n            /* \"#utility.yul\":696:839   */\n        tag_29:\n            /* \"#utility.yul\":753:758   */\n          0x00\n            /* \"#utility.yul\":784:790   */\n          dup2\n            /* \"#utility.yul\":778:791   */\n          mload\n            /* \"#utility.yul\":769:791   */\n          swap1\n          pop\n            /* \"#utility.yul\":800:833   */\n          tag_55\n            /* \"#utility.yul\":827:832   */\n          dup2\n            /* \"#utility.yul\":800:833   */\n          tag_28\n          jump\t// in\n        tag_55:\n            /* \"#utility.yul\":696:839   */\n          swap3\n          swap2\n          pop\n          pop\n          jump\t// out\n            /* \"#utility.yul\":845:962   */\n        tag_30:\n            /* \"#utility.yul\":954:955   */\n          0x00\n            /* \"#utility.yul\":951:952   */\n          dup1\n            /* \"#utility.yul\":944:956   */\n          revert\n            /* \"#utility.yul\":968:1085   */\n        tag_31:\n            /* \"#utility.yul\":1077:1078   */\n          0x00\n            /* \"#utility.yul\":1074:1075   */\n          dup1\n            /* \"#utility.yul\":1067:1079   */\n          revert\n            /* \"#utility.yul\":1091:1193   */\n        tag_32:\n            /* \"#utility.yul\":1132:1138   */\n          0x00\n            /* \"#utility.yul\":1183:1185   */\n          0x1f\n            /* \"#utility.yul\":1179:1186   */\n          not\n            /* \"#utility.yul\":1174:1176   */\n          0x1f\n            /* \"#utility.yul\":1167:1172   */\n          dup4\n            /* \"#utility.yul\":1163:1177   */\n          add\n            /* \"#utility.yul\":1159:1187   */\n          and\n            /* \"#utility.yul\":1149:1187   */\n          swap1\n          pop\n            /* \"#utility.yul\":1091:1193   */\n          swap2\n          swap1\n          pop\n          jump\t// out\n            /* \"#utility.yul\":1199:1379   */\n        tag_33:\n            /* \"#utility.yul\":1247:1324   */\n          0x4e487b7100000000000000000000000000000000000000000000000000000000\n            /* \"#utility.yul\":1244:1245   */\n          0x00\n            /* \"#utility.yul\":1237:1325   */\n          mstore\n            /* \"#utility.yul\":1344:1348   */\n          0x41\n            /* \"#utility.yul\":1341:1342   */\n          0x04\n            /* \"#utility.yul\":1334:1349   */\n          mstore\n            /* \"#utility.yul\":1368:1372   */\n          0x24\n            /* \"#utility.yul\":1365:1366   */\n          0x00\n            /* \"#utility.yul\":1358:1373   */\n          revert\n            /* \"#utility.yul\":1385:1666   */\n        tag_34:\n            /* \"#utility.yul\":1468:1495   */\n          tag_61\n            /* \"#utility.yul\":1490:1494   */\n          dup3\n            /* \"#utility.yul\":1468:1495   */\n          tag_32\n          jump\t// in\n        tag_61:\n            /* \"#utility.yul\":1460:1466   */\n          dup2\n            /* \"#utility.yul\":1456:1496   */\n          add\n            /* \"#utility.yul\":1598:1604   */\n          dup2\n            /* \"#utility.yul\":1586:1596   */\n          dup2\n            /* \"#utility.yul\":1583:1605   */\n          lt\n            /* \"#utility.yul\":1562:1580   */\n          0xffffffffffffffff\n            /* \"#utility.yul\":1550:1560   */\n          dup3\n            /* \"#utility.yul\":1547:1581   */\n          gt\n            /* \"#utility.yul\":1544:1606   */\n          or\n            /* \"#utility.yul\":1541:1629   */\n          iszero\n          tag_62\n          jumpi\n            /* \"#utility.yul\":1609:1627   */\n          tag_63\n          tag_33\n          jump\t// in\n        tag_63:\n            /* \"#utility.yul\":1541:1629   */\n        tag_62:\n            /* \"#utility.yul\":1649:1659   */\n          dup1\n            /* \"#utility.yul\":1645:1647   */\n          0x40\n            /* \"#utility.yul\":1638:1660   */\n          mstore\n            /* \"#utility.yul\":1428:1666   */\n          pop\n            /* \"#utility.yul\":1385:1666   */\n          pop\n          pop\n          jump\t// out\n            /* \"#utility.yul\":1672:1801   */\n        tag_35:\n            /* \"#utility.yul\":1706:1712   */\n          0x00\n            /* \"#utility.yul\":1733:1753   */\n          tag_65\n          tag_23\n          jump\t// in\n        tag_65:\n            /* \"#utility.yul\":1723:1753   */\n          swap1\n          pop\n            /* \"#utility.yul\":1762:1795   */\n          tag_66\n            /* \"#utility.yul\":1790:1794   */\n          dup3\n            /* \"#utility.yul\":1782:1788   */\n          dup3\n            /* \"#utility.yul\":1762:1795   */\n          tag_34\n          jump\t// in\n        tag_66:\n            /* \"#utility.yul\":1672:1801   */\n          swap2\n          swap1\n          pop\n          jump\t// out\n            /* \"#utility.yul\":1807:2115   */\n        tag_36:\n            /* \"#utility.yul\":1869:1873   */\n          0x00\n            /* \"#utility.yul\":1959:1977   */\n          0xffffffffffffffff\n            /* \"#utility.yul\":1951:1957   */\n          dup3\n            /* \"#utility.yul\":1948:1978   */\n          gt\n            /* \"#utility.yul\":1945:2001   */\n          iszero\n          tag_68\n          jumpi\n            /* \"#utility.yul\":1981:1999   */\n          tag_69\n          tag_33\n          jump\t// in\n        tag_69:\n            /* \"#utility.yul\":1945:2001   */\n        tag_68:\n            /* \"#utility.yul\":2019:2048   */\n          tag_70\n            /* \"#utility.yul\":2041:2047   */\n          dup3\n            /* \"#utility.yul\":2019:2048   */\n          tag_32\n          jump\t// in\n        tag_70:\n            /* \"#utility.yul\":2011:2048   */\n          swap1\n          pop\n            /* \"#utility.yul\":2103:2107   */\n          0x20\n            /* \"#utility.yul\":2097:2101   */\n          dup2\n            /* \"#utility.yul\":2093:2108   */\n          add\n            /* \"#utility.yul\":2085:2108   */\n          swap1\n          pop\n            /* \"#utility.yul\":1807:2115   */\n          swap2\n          swap1\n          pop\n          jump\t// out\n            /* \"#utility.yul\":2121:2428   */\n        tag_37:\n            /* \"#utility.yul\":2189:2190   */\n          0x00\n            /* \"#utility.yul\":2199:2312   */\n        tag_72:\n            /* \"#utility.yul\":2213:2219   */\n          dup4\n            /* \"#utility.yul\":2210:2211   */\n          dup2\n            /* \"#utility.yul\":2207:2220   */\n          lt\n            /* \"#utility.yul\":2199:2312   */\n          iszero\n          tag_74\n          jumpi\n            /* \"#utility.yul\":2298:2299   */\n          dup1\n            /* \"#utility.yul\":2293:2296   */\n          dup3\n            /* \"#utility.yul\":2289:2300   */\n          add\n            /* \"#utility.yul\":2283:2301   */\n          mload\n            /* \"#utility.yul\":2279:2280   */\n          dup2\n            /* \"#utility.yul\":2274:2277   */\n          dup5\n            /* \"#utility.yul\":2270:2281   */\n          add\n            /* \"#utility.yul\":2263:2302   */\n          mstore\n            /* \"#utility.yul\":2235:2237   */\n          0x20\n            /* \"#utility.yul\":2232:2233   */\n          dup2\n            /* \"#utility.yul\":2228:2238   */\n          add\n            /* \"#utility.yul\":2223:2238   */\n          swap1\n          pop\n            /* \"#utility.yul\":2199:2312   */\n          jump(tag_72)\n        tag_74:\n            /* \"#utility.yul\":2330:2336   */\n          dup4\n            /* \"#utility.yul\":2327:2328   */\n          dup2\n            /* \"#utility.yul\":2324:2337   */\n          gt\n            /* \"#utility.yul\":2321:2422   */\n          iszero\n          tag_75\n          jumpi\n            /* \"#utility.yul\":2410:2411   */\n          0x00\n            /* \"#utility.yul\":2401:2407   */\n          dup5\n            /* \"#utility.yul\":2396:2399   */\n          dup5\n            /* \"#utility.yul\":2392:2408   */\n          add\n            /* \"#utility.yul\":2385:2412   */\n          mstore\n            /* \"#utility.yul\":2321:2422   */\n        tag_75:\n            /* \"#utility.yul\":2170:2428   */\n          pop\n            /* \"#utility.yul\":2121:2428   */\n          pop\n          pop\n          pop\n          jump\t// out\n            /* \"#utility.yul\":2434:2855   */\n        tag_38:\n            /* \"#utility.yul\":2523:2528   */\n          0x00\n            /* \"#utility.yul\":2548:2614   */\n          tag_77\n            /* \"#utility.yul\":2564:2613   */\n          tag_78\n            /* \"#utility.yul\":2606:2612   */\n          dup5\n            /* \"#utility.yul\":2564:2613   */\n          tag_36\n          jump\t// in\n        tag_78:\n            /* \"#utility.yul\":2548:2614   */\n          tag_35\n          jump\t// in\n        tag_77:\n            /* \"#utility.yul\":2539:2614   */\n          swap1\n          pop\n            /* \"#utility.yul\":2637:2643   */\n          dup3\n            /* \"#utility.yul\":2630:2635   */\n          dup2\n            /* \"#utility.yul\":2623:2644   */\n          mstore\n            /* \"#utility.yul\":2675:2679   */\n          0x20\n            /* \"#utility.yul\":2668:2673   */\n          dup2\n            /* \"#utility.yul\":2664:2680   */\n          add\n            /* \"#utility.yul\":2713:2716   */\n          dup5\n            /* \"#utility.yul\":2704:2710   */\n          dup5\n            /* \"#utility.yul\":2699:2702   */\n          dup5\n            /* \"#utility.yul\":2695:2711   */\n          add\n            /* \"#utility.yul\":2692:2717   */\n          gt\n            /* \"#utility.yul\":2689:2801   */\n          iszero\n          tag_79\n          jumpi\n            /* \"#utility.yul\":2720:2799   */\n          tag_80\n          tag_31\n          jump\t// in\n        tag_80:\n            /* \"#utility.yul\":2689:2801   */\n        tag_79:\n            /* \"#utility.yul\":2810:2849   */\n          tag_81\n            /* \"#utility.yul\":2842:2848   */\n          dup5\n            /* \"#utility.yul\":2837:2840   */\n          dup3\n            /* \"#utility.yul\":2832:2835   */\n          dup6\n            /* \"#utility.yul\":2810:2849   */\n          tag_37\n          jump\t// in\n        tag_81:\n            /* \"#utility.yul\":2529:2855   */\n          pop\n            /* \"#utility.yul\":2434:2855   */\n          swap4\n          swap3\n          pop\n          pop\n          pop\n          jump\t// out\n            /* \"#utility.yul\":2875:3230   */\n        tag_39:\n            /* \"#utility.yul\":2942:2947   */\n          0x00\n            /* \"#utility.yul\":2991:2994   */\n          dup3\n            /* \"#utility.yul\":2984:2988   */\n          0x1f\n            /* \"#utility.yul\":2976:2982   */\n          dup4\n            /* \"#utility.yul\":2972:2989   */\n          add\n            /* \"#utility.yul\":2968:2995   */\n          slt\n            /* \"#utility.yul\":2958:3080   */\n          tag_83\n          jumpi\n            /* \"#utility.yul\":2999:3078   */\n          tag_84\n          tag_30\n          jump\t// in\n        tag_84:\n            /* \"#utility.yul\":2958:3080   */\n        tag_83:\n            /* \"#utility.yul\":3109:3115   */\n          dup2\n            /* \"#utility.yul\":3103:3116   */\n          mload\n            /* \"#utility.yul\":3134:3224   */\n          tag_85\n            /* \"#utility.yul\":3220:3223   */\n          dup5\n            /* \"#utility.yul\":3212:3218   */\n          dup3\n            /* \"#utility.yul\":3205:3209   */\n          0x20\n            /* \"#utility.yul\":3197:3203   */\n          dup7\n            /* \"#utility.yul\":3193:3210   */\n          add\n            /* \"#utility.yul\":3134:3224   */\n          tag_38\n          jump\t// in\n        tag_85:\n            /* \"#utility.yul\":3125:3224   */\n          swap2\n          pop\n            /* \"#utility.yul\":2948:3230   */\n          pop\n            /* \"#utility.yul\":2875:3230   */\n          swap3\n          swap2\n          pop\n          pop\n          jump\t// out\n            /* \"#utility.yul\":3236:3313   */\n        tag_40:\n            /* \"#utility.yul\":3273:3280   */\n          0x00\n            /* \"#utility.yul\":3302:3307   */\n          dup2\n            /* \"#utility.yul\":3291:3307   */\n          swap1\n          pop\n            /* \"#utility.yul\":3236:3313   */\n          swap2\n          swap1\n          pop\n          jump\t// out\n            /* \"#utility.yul\":3319:3441   */\n        tag_41:\n            /* \"#utility.yul\":3392:3416   */\n          tag_88\n            /* \"#utility.yul\":3410:3415   */\n          dup2\n            /* \"#utility.yul\":3392:3416   */\n          tag_40\n          jump\t// in\n        tag_88:\n            /* \"#utility.yul\":3385:3390   */\n          dup2\n            /* \"#utility.yul\":3382:3417   */\n          eq\n            /* \"#utility.yul\":3372:3435   */\n          tag_89\n          jumpi\n            /* \"#utility.yul\":3431:3432   */\n          0x00\n            /* \"#utility.yul\":3428:3429   */\n          dup1\n            /* \"#utility.yul\":3421:3433   */\n          revert\n            /* \"#utility.yul\":3372:3435   */\n        tag_89:\n            /* \"#utility.yul\":3319:3441   */\n          pop\n          jump\t// out\n            /* \"#utility.yul\":3447:3590   */\n        tag_42:\n            /* \"#utility.yul\":3504:3509   */\n          0x00\n            /* \"#utility.yul\":3535:3541   */\n          dup2\n            /* \"#utility.yul\":3529:3542   */\n          mload\n            /* \"#utility.yul\":3520:3542   */\n          swap1\n          pop\n            /* \"#utility.yul\":3551:3584   */\n          tag_91\n            /* \"#utility.yul\":3578:3583   */\n          dup2\n            /* \"#utility.yul\":3551:3584   */\n          tag_41\n          jump\t// in\n        tag_91:\n            /* \"#utility.yul\":3447:3590   */\n          swap3\n          swap2\n          pop\n          pop\n          jump\t// out\n            /* \"#utility.yul\":3596:5076   */\n        tag_2:\n            /* \"#utility.yul\":3731:3737   */\n          0x00\n            /* \"#utility.yul\":3739:3745   */\n          dup1\n            /* \"#utility.yul\":3747:3753   */\n          0x00\n            /* \"#utility.yul\":3755:3761   */\n          dup1\n            /* \"#utility.yul\":3763:3769   */\n          0x00\n            /* \"#utility.yul\":3771:3777   */\n          dup1\n            /* \"#utility.yul\":3820:3823   */\n          0xc0\n            /* \"#utility.yul\":3808:3817   */\n          dup8\n            /* \"#utility.yul\":3799:3806   */\n          dup10\n            /* \"#utility.yul\":3795:3818   */\n          sub\n            /* \"#utility.yul\":3791:3824   */\n          slt\n            /* \"#utility.yul\":3788:3908   */\n          iszero\n          tag_93\n          jumpi\n            /* \"#utility.yul\":3827:3906   */\n          tag_94\n          tag_24\n          jump\t// in\n        tag_94:\n            /* \"#utility.yul\":3788:3908   */\n        tag_93:\n            /* \"#utility.yul\":3947:3948   */\n          0x00\n            /* \"#utility.yul\":3972:4036   */\n          tag_95\n            /* \"#utility.yul\":4028:4035   */\n          dup10\n            /* \"#utility.yul\":4019:4025   */\n          dup3\n            /* \"#utility.yul\":4008:4017   */\n          dup11\n            /* \"#utility.yul\":4004:4026   */\n          add\n            /* \"#utility.yul\":3972:4036   */\n          tag_29\n          jump\t// in\n        tag_95:\n            /* \"#utility.yul\":3962:4036   */\n          swap7\n          pop\n            /* \"#utility.yul\":3918:4046   */\n          pop\n            /* \"#utility.yul\":4085:4087   */\n          0x20\n            /* \"#utility.yul\":4111:4175   */\n          tag_96\n            /* \"#utility.yul\":4167:4174   */\n          dup10\n            /* \"#utility.yul\":4158:4164   */\n          dup3\n            /* \"#utility.yul\":4147:4156   */\n          dup11\n            /* \"#utility.yul\":4143:4165   */\n          add\n            /* \"#utility.yul\":4111:4175   */\n          tag_29\n          jump\t// in\n        tag_96:\n            /* \"#utility.yul\":4101:4175   */\n          swap6\n          pop\n            /* \"#utility.yul\":4056:4185   */\n          pop\n            /* \"#utility.yul\":4245:4247   */\n          0x40\n            /* \"#utility.yul\":4234:4243   */\n          dup8\n            /* \"#utility.yul\":4230:4248   */\n          add\n            /* \"#utility.yul\":4224:4249   */\n          mload\n            /* \"#utility.yul\":4276:4294   */\n          0xffffffffffffffff\n            /* \"#utility.yul\":4268:4274   */\n          dup2\n            /* \"#utility.yul\":4265:4295   */\n          gt\n            /* \"#utility.yul\":4262:4379   */\n          iszero\n          tag_97\n          jumpi\n            /* \"#utility.yul\":4298:4377   */\n          tag_98\n          tag_25\n          jump\t// in\n        tag_98:\n            /* \"#utility.yul\":4262:4379   */\n        tag_97:\n            /* \"#utility.yul\":4403:4477   */\n          tag_99\n            /* \"#utility.yul\":4469:4476   */\n          dup10\n            /* \"#utility.yul\":4460:4466   */\n          dup3\n            /* \"#utility.yul\":4449:4458   */\n          dup11\n            /* \"#utility.yul\":4445:4467   */\n          add\n            /* \"#utility.yul\":4403:4477   */\n          tag_39\n          jump\t// in\n        tag_99:\n            /* \"#utility.yul\":4393:4477   */\n          swap5\n          pop\n            /* \"#utility.yul\":4195:4487   */\n          pop\n            /* \"#utility.yul\":4547:4549   */\n          0x60\n            /* \"#utility.yul\":4536:4545   */\n          dup8\n            /* \"#utility.yul\":4532:4550   */\n          add\n            /* \"#utility.yul\":4526:4551   */\n          mload\n            /* \"#utility.yul\":4578:4596   */\n          0xffffffffffffffff\n            /* \"#utility.yul\":4570:4576   */\n          dup2\n            /* \"#utility.yul\":4567:4597   */\n          gt\n            /* \"#utility.yul\":4564:4681   */\n          iszero\n          tag_100\n          jumpi\n            /* \"#utility.yul\":4600:4679   */\n          tag_101\n          tag_25\n          jump\t// in\n        tag_101:\n            /* \"#utility.yul\":4564:4681   */\n        tag_100:\n            /* \"#utility.yul\":4705:4779   */\n          tag_102\n            /* \"#utility.yul\":4771:4778   */\n          dup10\n            /* \"#utility.yul\":4762:4768   */\n          dup3\n            /* \"#utility.yul\":4751:4760   */\n          dup11\n            /* \"#utility.yul\":4747:4769   */\n          add\n            /* \"#utility.yul\":4705:4779   */\n          tag_39\n          jump\t// in\n        tag_102:\n            /* \"#utility.yul\":4695:4779   */\n          swap4\n          pop\n            /* \"#utility.yul\":4497:4789   */\n          pop\n            /* \"#utility.yul\":4828:4831   */\n          0x80\n            /* \"#utility.yul\":4855:4919   */\n          tag_103\n            /* \"#utility.yul\":4911:4918   */\n          dup10\n            /* \"#utility.yul\":4902:4908   */\n          dup3\n            /* \"#utility.yul\":4891:4900   */\n          dup11\n            /* \"#utility.yul\":4887:4909   */\n          add\n            /* \"#utility.yul\":4855:4919   */\n          tag_29\n          jump\t// in\n        tag_103:\n            /* \"#utility.yul\":4845:4919   */\n          swap3\n          pop\n            /* \"#utility.yul\":4799:4929   */\n          pop\n            /* \"#utility.yul\":4968:4971   */\n          0xa0\n            /* \"#utility.yul\":4995:5059   */\n          tag_104\n            /* \"#utility.yul\":5051:5058   */\n          dup10\n            /* \"#utility.yul\":5042:5048   */\n          dup3\n            /* \"#utility.yul\":5031:5040   */\n          dup11\n            /* \"#utility.yul\":5027:5049   */\n          add\n            /* \"#utility.yul\":4995:5059   */\n          tag_42\n          jump\t// in\n        tag_104:\n            /* \"#utility.yul\":4985:5059   */\n          swap2\n          pop\n            /* \"#utility.yul\":4939:5069   */\n          pop\n            /* \"#utility.yul\":3596:5076   */\n          swap3\n          swap6\n          pop\n          swap3\n          swap6\n          pop\n          swap3\n          swap6\n          jump\t// out\n            /* \"#utility.yul\":5082:5262   */\n        tag_10:\n            /* \"#utility.yul\":5130:5207   */\n          0x4e487b7100000000000000000000000000000000000000000000000000000000\n            /* \"#utility.yul\":5127:5128   */\n          0x00\n            /* \"#utility.yul\":5120:5208   */\n          mstore\n            /* \"#utility.yul\":5227:5231   */\n          0x21\n            /* \"#utility.yul\":5224:5225   */\n          0x04\n            /* \"#utility.yul\":5217:5232   */\n          mstore\n            /* \"#utility.yul\":5251:5255   */\n          0x24\n            /* \"#utility.yul\":5248:5249   */\n          0x00\n            /* \"#utility.yul\":5241:5256   */\n          revert\n            /* \"#utility.yul\":5268:5448   */\n        tag_43:\n            /* \"#utility.yul\":5316:5393   */\n          0x4e487b7100000000000000000000000000000000000000000000000000000000\n            /* \"#utility.yul\":5313:5314   */\n          0x00\n            /* \"#utility.yul\":5306:5394   */\n          mstore\n            /* \"#utility.yul\":5413:5417   */\n          0x22\n            /* \"#utility.yul\":5410:5411   */\n          0x04\n            /* \"#utility.yul\":5403:5418   */\n          mstore\n            /* \"#utility.yul\":5437:5441   */\n          0x24\n            /* \"#utility.yul\":5434:5435   */\n          0x00\n            /* \"#utility.yul\":5427:5442   */\n          revert\n            /* \"#utility.yul\":5454:5774   */\n        tag_13:\n            /* \"#utility.yul\":5498:5504   */\n          0x00\n            /* \"#utility.yul\":5535:5536   */\n          0x02\n            /* \"#utility.yul\":5529:5533   */\n          dup3\n            /* \"#utility.yul\":5525:5537   */\n          div\n            /* \"#utility.yul\":5515:5537   */\n          swap1\n          pop\n            /* \"#utility.yul\":5582:5583   */\n          0x01\n            /* \"#utility.yul\":5576:5580   */\n          dup3\n            /* \"#utility.yul\":5572:5584   */\n          and\n            /* \"#utility.yul\":5603:5621   */\n          dup1\n            /* \"#utility.yul\":5593:5674   */\n          tag_108\n          jumpi\n            /* \"#utility.yul\":5659:5663   */\n          0x7f\n            /* \"#utility.yul\":5651:5657   */\n          dup3\n            /* \"#utility.yul\":5647:5664   */\n          and\n            /* \"#utility.yul\":5637:5664   */\n          swap2\n          pop\n            /* \"#utility.yul\":5593:5674   */\n        tag_108:\n            /* \"#utility.yul\":5721:5723   */\n          0x20\n            /* \"#utility.yul\":5713:5719   */\n          dup3\n            /* \"#utility.yul\":5710:5724   */\n          lt\n            /* \"#utility.yul\":5690:5708   */\n          dup2\n            /* \"#utility.yul\":5687:5725   */\n          eq\n            /* \"#utility.yul\":5684:5768   */\n          iszero\n          tag_109\n          jumpi\n            /* \"#utility.yul\":5740:5758   */\n          tag_110\n          tag_43\n          jump\t// in\n        tag_110:\n            /* \"#utility.yul\":5684:5768   */\n        tag_109:\n            /* \"#utility.yul\":5505:5774   */\n          pop\n            /* \"#utility.yul\":5454:5774   */\n          swap2\n          swap1\n          pop\n          jump\t// out\n            /* \"Contracts\":9669:11062  contract AccountabilityContract {... */\n        tag_11:\n          dataSize(sub_0)\n          dup1\n          dataOffset(sub_0)\n          0x00\n          codecopy\n          0x00\n          return\n        stop\n\n        sub_0: assembly {\n                /* \"Contracts\":9669:11062  contract AccountabilityContract {... */\n              mstore(0x40, 0x80)\n              jumpi(tag_1, lt(calldatasize, 0x04))\n              shr(0xe0, calldataload(0x00))\n              dup1\n              0x3b1bebd1\n              gt\n              tag_11\n              jumpi\n              dup1\n              0x3b1bebd1\n              eq\n              tag_6\n              jumpi\n              dup1\n              0x4177fe51\n              eq\n              tag_7\n              jumpi\n              dup1\n              0x7284e416\n              eq\n              tag_8\n              jumpi\n              dup1\n              0xaa8c217c\n              eq\n              tag_9\n              jumpi\n              dup1\n              0xb4fedc11\n              eq\n              tag_10\n              jumpi\n              jump(tag_1)\n            tag_11:\n              dup1\n              0x02d05d3f\n              eq\n              tag_2\n              jumpi\n              dup1\n              0x06fdde03\n              eq\n              tag_3\n              jumpi\n              dup1\n              0x200d2ed2\n              eq\n              tag_4\n              jumpi\n              dup1\n              0x2d398fa6\n              eq\n              tag_5\n              jumpi\n            tag_1:\n              0x00\n              dup1\n              revert\n                /* \"Contracts\":9749:9771  address public creator */\n            tag_2:\n              callvalue\n              dup1\n              iszero\n              tag_12\n              jumpi\n              0x00\n              dup1\n              revert\n            tag_12:\n              pop\n              tag_13\n              tag_14\n              jump\t// in\n            tag_13:\n              mload(0x40)\n              tag_15\n              swap2\n              swap1\n              tag_16\n              jump\t// in\n            tag_15:\n              mload(0x40)\n              dup1\n              swap2\n              sub\n              swap1\n              return\n                /* \"Contracts\":9805:9823  string public name */\n            tag_3:\n              callvalue\n              dup1\n              iszero\n              tag_17\n              jumpi\n              0x00\n              dup1\n              revert\n            tag_17:\n              pop\n              tag_18\n              tag_19\n              jump\t// in\n            tag_18:\n              mload(0x40)\n              tag_20\n              swap2\n              swap1\n              tag_21\n              jump\t// in\n            tag_20:\n              mload(0x40)\n              dup1\n              swap2\n              sub\n              swap1\n              return\n                /* \"Contracts\":9921:9941  Status public status */\n            tag_4:\n              callvalue\n              dup1\n              iszero\n              tag_22\n              jumpi\n              0x00\n              dup1\n              revert\n            tag_22:\n              pop\n              tag_23\n              tag_24\n              jump\t// in\n            tag_23:\n              mload(0x40)\n              tag_25\n              swap2\n              swap1\n              tag_26\n              jump\t// in\n            tag_25:\n              mload(0x40)\n              dup1\n              swap2\n              sub\n              swap1\n              return\n                /* \"Contracts\":10449:10768  function failContract() public payable restricted returns (AccountabilityContract) {... */\n            tag_5:\n              tag_27\n              tag_28\n              jump\t// in\n            tag_27:\n              mload(0x40)\n              tag_29\n              swap2\n              swap1\n              tag_30\n              jump\t// in\n            tag_29:\n              mload(0x40)\n              dup1\n              swap2\n              sub\n              swap1\n              return\n                /* \"Contracts\":9777:9799  address public referee */\n            tag_6:\n              callvalue\n              dup1\n              iszero\n              tag_31\n              jumpi\n              0x00\n              dup1\n              revert\n            tag_31:\n              pop\n              tag_32\n              tag_33\n              jump\t// in\n            tag_32:\n              mload(0x40)\n              tag_34\n              swap2\n              swap1\n              tag_16\n              jump\t// in\n            tag_34:\n              mload(0x40)\n              dup1\n              swap2\n              sub\n              swap1\n              return\n                /* \"Contracts\":9860:9891  address public failureRecipient */\n            tag_7:\n              callvalue\n              dup1\n              iszero\n              tag_35\n              jumpi\n              0x00\n              dup1\n              revert\n            tag_35:\n              pop\n              tag_36\n              tag_37\n              jump\t// in\n            tag_36:\n              mload(0x40)\n              tag_38\n              swap2\n              swap1\n              tag_16\n              jump\t// in\n            tag_38:\n              mload(0x40)\n              dup1\n              swap2\n              sub\n              swap1\n              return\n                /* \"Contracts\":9829:9854  string public description */\n            tag_8:\n              callvalue\n              dup1\n              iszero\n              tag_39\n              jumpi\n              0x00\n              dup1\n              revert\n            tag_39:\n              pop\n              tag_40\n              tag_41\n              jump\t// in\n            tag_40:\n              mload(0x40)\n              tag_42\n              swap2\n              swap1\n              tag_21\n              jump\t// in\n            tag_42:\n              mload(0x40)\n              dup1\n              swap2\n              sub\n              swap1\n              return\n                /* \"Contracts\":9897:9915  uint public amount */\n            tag_9:\n              callvalue\n              dup1\n              iszero\n              tag_43\n              jumpi\n              0x00\n              dup1\n              revert\n            tag_43:\n              pop\n              tag_44\n              tag_45\n              jump\t// in\n            tag_44:\n              mload(0x40)\n              tag_46\n              swap2\n              swap1\n              tag_47\n              jump\t// in\n            tag_46:\n              mload(0x40)\n              dup1\n              swap2\n              sub\n              swap1\n              return\n                /* \"Contracts\":10775:11060  function completeContract() public payable restricted returns (AccountabilityContract) {... */\n            tag_10:\n              tag_48\n              tag_49\n              jump\t// in\n            tag_48:\n              mload(0x40)\n              tag_50\n              swap2\n              swap1\n              tag_30\n              jump\t// in\n            tag_50:\n              mload(0x40)\n              dup1\n              swap2\n              sub\n              swap1\n              return\n                /* \"Contracts\":9749:9771  address public creator */\n            tag_14:\n              0x00\n              dup1\n              sload\n              swap1\n              0x0100\n              exp\n              swap1\n              div\n              0xffffffffffffffffffffffffffffffffffffffff\n              and\n              dup2\n              jump\t// out\n                /* \"Contracts\":9805:9823  string public name */\n            tag_19:\n              0x02\n              dup1\n              sload\n              tag_51\n              swap1\n              tag_52\n              jump\t// in\n            tag_51:\n              dup1\n              0x1f\n              add\n              0x20\n              dup1\n              swap2\n              div\n              mul\n              0x20\n              add\n              mload(0x40)\n              swap1\n              dup2\n              add\n              0x40\n              mstore\n              dup1\n              swap3\n              swap2\n              swap1\n              dup2\n              dup2\n              mstore\n              0x20\n              add\n              dup3\n              dup1\n              sload\n              tag_53\n              swap1\n              tag_52\n              jump\t// in\n            tag_53:\n              dup1\n              iszero\n              tag_54\n              jumpi\n              dup1\n              0x1f\n              lt\n              tag_55\n              jumpi\n              0x0100\n              dup1\n              dup4\n              sload\n              div\n              mul\n              dup4\n              mstore\n              swap2\n              0x20\n              add\n              swap2\n              jump(tag_54)\n            tag_55:\n              dup3\n              add\n              swap2\n              swap1\n              0x00\n              mstore\n              keccak256(0x00, 0x20)\n              swap1\n            tag_56:\n              dup2\n              sload\n              dup2\n              mstore\n              swap1\n              0x01\n              add\n              swap1\n              0x20\n              add\n              dup1\n              dup4\n              gt\n              tag_56\n              jumpi\n              dup3\n              swap1\n              sub\n              0x1f\n              and\n              dup3\n              add\n              swap2\n            tag_54:\n              pop\n              pop\n              pop\n              pop\n              pop\n              dup2\n              jump\t// out\n                /* \"Contracts\":9921:9941  Status public status */\n            tag_24:\n              0x06\n              0x00\n              swap1\n              sload\n              swap1\n              0x0100\n              exp\n              swap1\n              div\n              0xff\n              and\n              dup2\n              jump\t// out\n                /* \"Contracts\":10449:10768  function failContract() public payable restricted returns (AccountabilityContract) {... */\n            tag_28:\n                /* \"Contracts\":10508:10530  AccountabilityContract */\n              0x00\n                /* \"Contracts\":10373:10384  Status.OPEN */\n              dup1\n                /* \"Contracts\":10363:10384  status == Status.OPEN */\n              0x02\n              dup2\n              gt\n              iszero\n              tag_58\n              jumpi\n              tag_59\n              tag_60\n              jump\t// in\n            tag_59:\n            tag_58:\n                /* \"Contracts\":10363:10369  status */\n              0x06\n              0x00\n              swap1\n              sload\n              swap1\n              0x0100\n              exp\n              swap1\n              div\n              0xff\n              and\n                /* \"Contracts\":10363:10384  status == Status.OPEN */\n              0x02\n              dup2\n              gt\n              iszero\n              tag_61\n              jumpi\n              tag_62\n              tag_60\n              jump\t// in\n            tag_62:\n            tag_61:\n              eq\n                /* \"Contracts\":10355:10425  require(status == Status.OPEN, \"Contract status is not equal to open\") */\n              tag_63\n              jumpi\n              mload(0x40)\n              0x08c379a000000000000000000000000000000000000000000000000000000000\n              dup2\n              mstore\n              0x04\n              add\n              tag_64\n              swap1\n              tag_65\n              jump\t// in\n            tag_64:\n              mload(0x40)\n              dup1\n              swap2\n              sub\n              swap1\n              revert\n            tag_63:\n                /* \"Contracts\":10563:10570  referee */\n              0x01\n              0x00\n              swap1\n              sload\n              swap1\n              0x0100\n              exp\n              swap1\n              div\n              0xffffffffffffffffffffffffffffffffffffffff\n              and\n                /* \"Contracts\":10550:10570  tx.origin == referee */\n              0xffffffffffffffffffffffffffffffffffffffff\n              and\n                /* \"Contracts\":10550:10559  tx.origin */\n              origin\n                /* \"Contracts\":10550:10570  tx.origin == referee */\n              0xffffffffffffffffffffffffffffffffffffffff\n              and\n              eq\n                /* \"Contracts\":10550:10594  tx.origin == referee || tx.origin == creator */\n              dup1\n              tag_67\n              jumpi\n              pop\n                /* \"Contracts\":10587:10594  creator */\n              0x00\n              dup1\n              sload\n              swap1\n              0x0100\n              exp\n              swap1\n              div\n              0xffffffffffffffffffffffffffffffffffffffff\n              and\n                /* \"Contracts\":10574:10594  tx.origin == creator */\n              0xffffffffffffffffffffffffffffffffffffffff\n              and\n                /* \"Contracts\":10574:10583  tx.origin */\n              origin\n                /* \"Contracts\":10574:10594  tx.origin == creator */\n              0xffffffffffffffffffffffffffffffffffffffff\n              and\n              eq\n                /* \"Contracts\":10550:10594  tx.origin == referee || tx.origin == creator */\n            tag_67:\n                /* \"Contracts\":10542:10640  require(tx.origin == referee || tx.origin == creator, \"Only referee or creator can fail contract\") */\n              tag_68\n              jumpi\n              mload(0x40)\n              0x08c379a000000000000000000000000000000000000000000000000000000000\n              dup2\n              mstore\n              0x04\n              add\n              tag_69\n              swap1\n              tag_70\n              jump\t// in\n            tag_69:\n              mload(0x40)\n              dup1\n              swap2\n              sub\n              swap1\n              revert\n            tag_68:\n                /* \"Contracts\":10658:10674  failureRecipient */\n              0x04\n              0x00\n              swap1\n              sload\n              swap1\n              0x0100\n              exp\n              swap1\n              div\n              0xffffffffffffffffffffffffffffffffffffffff\n              and\n                /* \"Contracts\":10650:10684  payable(failureRecipient).transfer */\n              0xffffffffffffffffffffffffffffffffffffffff\n              and\n                /* \"Contracts\":10650:10707  payable(failureRecipient).transfer(address(this).balance) */\n              0x08fc\n                /* \"Contracts\":10685:10706  address(this).balance */\n              selfbalance\n                /* \"Contracts\":10650:10707  payable(failureRecipient).transfer(address(this).balance) */\n              swap1\n              dup2\n              iszero\n              mul\n              swap1\n              mload(0x40)\n              0x00\n              mload(0x40)\n              dup1\n              dup4\n              sub\n              dup2\n              dup6\n              dup9\n              dup9\n              call\n              swap4\n              pop\n              pop\n              pop\n              pop\n              iszero\n              dup1\n              iszero\n              tag_72\n              jumpi\n              returndatasize\n              0x00\n              dup1\n              returndatacopy\n              revert(0x00, returndatasize)\n            tag_72:\n              pop\n                /* \"Contracts\":10726:10740  Status.FAILURE */\n              0x02\n                /* \"Contracts\":10717:10723  status */\n              0x06\n              0x00\n                /* \"Contracts\":10717:10740  status = Status.FAILURE */\n              0x0100\n              exp\n              dup2\n              sload\n              dup2\n              0xff\n              mul\n              not\n              and\n              swap1\n              dup4\n              0x02\n              dup2\n              gt\n              iszero\n              tag_73\n              jumpi\n              tag_74\n              tag_60\n              jump\t// in\n            tag_74:\n            tag_73:\n              mul\n              or\n              swap1\n              sstore\n              pop\n                /* \"Contracts\":10757:10761  this */\n              address\n                /* \"Contracts\":10750:10761  return this */\n              swap1\n              pop\n                /* \"Contracts\":10449:10768  function failContract() public payable restricted returns (AccountabilityContract) {... */\n              swap1\n              jump\t// out\n                /* \"Contracts\":9777:9799  address public referee */\n            tag_33:\n              0x01\n              0x00\n              swap1\n              sload\n              swap1\n              0x0100\n              exp\n              swap1\n              div\n              0xffffffffffffffffffffffffffffffffffffffff\n              and\n              dup2\n              jump\t// out\n                /* \"Contracts\":9860:9891  address public failureRecipient */\n            tag_37:\n              0x04\n              0x00\n              swap1\n              sload\n              swap1\n              0x0100\n              exp\n              swap1\n              div\n              0xffffffffffffffffffffffffffffffffffffffff\n              and\n              dup2\n              jump\t// out\n                /* \"Contracts\":9829:9854  string public description */\n            tag_41:\n              0x03\n              dup1\n              sload\n              tag_75\n              swap1\n              tag_52\n              jump\t// in\n            tag_75:\n              dup1\n              0x1f\n              add\n              0x20\n              dup1\n              swap2\n              div\n              mul\n              0x20\n              add\n              mload(0x40)\n              swap1\n              dup2\n              add\n              0x40\n              mstore\n              dup1\n              swap3\n              swap2\n              swap1\n              dup2\n              dup2\n              mstore\n              0x20\n              add\n              dup3\n              dup1\n              sload\n              tag_76\n              swap1\n              tag_52\n              jump\t// in\n            tag_76:\n              dup1\n              iszero\n              tag_77\n              jumpi\n              dup1\n              0x1f\n              lt\n              tag_78\n              jumpi\n              0x0100\n              dup1\n              dup4\n              sload\n              div\n              mul\n              dup4\n              mstore\n              swap2\n              0x20\n              add\n              swap2\n              jump(tag_77)\n            tag_78:\n              dup3\n              add\n              swap2\n              swap1\n              0x00\n              mstore\n              keccak256(0x00, 0x20)\n              swap1\n            tag_79:\n              dup2\n              sload\n              dup2\n              mstore\n              swap1\n              0x01\n              add\n              swap1\n              0x20\n              add\n              dup1\n              dup4\n              gt\n              tag_79\n              jumpi\n              dup3\n              swap1\n              sub\n              0x1f\n              and\n              dup3\n              add\n              swap2\n            tag_77:\n              pop\n              pop\n              pop\n              pop\n              pop\n              dup2\n              jump\t// out\n                /* \"Contracts\":9897:9915  uint public amount */\n            tag_45:\n              sload(0x05)\n              dup2\n              jump\t// out\n                /* \"Contracts\":10775:11060  function completeContract() public payable restricted returns (AccountabilityContract) {... */\n            tag_49:\n                /* \"Contracts\":10838:10860  AccountabilityContract */\n              0x00\n                /* \"Contracts\":10373:10384  Status.OPEN */\n              dup1\n                /* \"Contracts\":10363:10384  status == Status.OPEN */\n              0x02\n              dup2\n              gt\n              iszero\n              tag_81\n              jumpi\n              tag_82\n              tag_60\n              jump\t// in\n            tag_82:\n            tag_81:\n                /* \"Contracts\":10363:10369  status */\n              0x06\n              0x00\n              swap1\n              sload\n              swap1\n              0x0100\n              exp\n              swap1\n              div\n              0xff\n              and\n                /* \"Contracts\":10363:10384  status == Status.OPEN */\n              0x02\n              dup2\n              gt\n              iszero\n              tag_83\n              jumpi\n              tag_84\n              tag_60\n              jump\t// in\n            tag_84:\n            tag_83:\n              eq\n                /* \"Contracts\":10355:10425  require(status == Status.OPEN, \"Contract status is not equal to open\") */\n              tag_85\n              jumpi\n              mload(0x40)\n              0x08c379a000000000000000000000000000000000000000000000000000000000\n              dup2\n              mstore\n              0x04\n              add\n              tag_86\n              swap1\n              tag_65\n              jump\t// in\n            tag_86:\n              mload(0x40)\n              dup1\n              swap2\n              sub\n              swap1\n              revert\n            tag_85:\n                /* \"Contracts\":10893:10900  referee */\n              0x01\n              0x00\n              swap1\n              sload\n              swap1\n              0x0100\n              exp\n              swap1\n              div\n              0xffffffffffffffffffffffffffffffffffffffff\n              and\n                /* \"Contracts\":10880:10900  tx.origin == referee */\n              0xffffffffffffffffffffffffffffffffffffffff\n              and\n                /* \"Contracts\":10880:10889  tx.origin */\n              origin\n                /* \"Contracts\":10880:10900  tx.origin == referee */\n              0xffffffffffffffffffffffffffffffffffffffff\n              and\n              eq\n                /* \"Contracts\":10872:10941  require(tx.origin == referee, \"Only referee can complete a contract\") */\n              tag_88\n              jumpi\n              mload(0x40)\n              0x08c379a000000000000000000000000000000000000000000000000000000000\n              dup2\n              mstore\n              0x04\n              add\n              tag_89\n              swap1\n              tag_90\n              jump\t// in\n            tag_89:\n              mload(0x40)\n              dup1\n              swap2\n              sub\n              swap1\n              revert\n            tag_88:\n                /* \"Contracts\":10959:10966  creator */\n              0x00\n              dup1\n              sload\n              swap1\n              0x0100\n              exp\n              swap1\n              div\n              0xffffffffffffffffffffffffffffffffffffffff\n              and\n                /* \"Contracts\":10951:10976  payable(creator).transfer */\n              0xffffffffffffffffffffffffffffffffffffffff\n              and\n                /* \"Contracts\":10951:10999  payable(creator).transfer(address(this).balance) */\n              0x08fc\n                /* \"Contracts\":10977:10998  address(this).balance */\n              selfbalance\n                /* \"Contracts\":10951:10999  payable(creator).transfer(address(this).balance) */\n              swap1\n              dup2\n              iszero\n              mul\n              swap1\n              mload(0x40)\n              0x00\n              mload(0x40)\n              dup1\n              dup4\n              sub\n              dup2\n              dup6\n              dup9\n              dup9\n              call\n              swap4\n              pop\n              pop\n              pop\n              pop\n              iszero\n              dup1\n              iszero\n              tag_92\n              jumpi\n              returndatasize\n              0x00\n              dup1\n              returndatacopy\n              revert(0x00, returndatasize)\n            tag_92:\n              pop\n                /* \"Contracts\":11018:11032  Status.SUCCESS */\n              0x01\n                /* \"Contracts\":11009:11015  status */\n              0x06\n              0x00\n                /* \"Contracts\":11009:11032  status = Status.SUCCESS */\n              0x0100\n              exp\n              dup2\n              sload\n              dup2\n              0xff\n              mul\n              not\n              and\n              swap1\n              dup4\n              0x02\n              dup2\n              gt\n              iszero\n              tag_93\n              jumpi\n              tag_94\n              tag_60\n              jump\t// in\n            tag_94:\n            tag_93:\n              mul\n              or\n              swap1\n              sstore\n              pop\n                /* \"Contracts\":11049:11053  this */\n              address\n                /* \"Contracts\":11042:11053  return this */\n              swap1\n              pop\n                /* \"Contracts\":10775:11060  function completeContract() public payable restricted returns (AccountabilityContract) {... */\n              swap1\n              jump\t// out\n                /* \"#utility.yul\":7:133   */\n            tag_95:\n                /* \"#utility.yul\":44:51   */\n              0x00\n                /* \"#utility.yul\":84:126   */\n              0xffffffffffffffffffffffffffffffffffffffff\n                /* \"#utility.yul\":77:82   */\n              dup3\n                /* \"#utility.yul\":73:127   */\n              and\n                /* \"#utility.yul\":62:127   */\n              swap1\n              pop\n                /* \"#utility.yul\":7:133   */\n              swap2\n              swap1\n              pop\n              jump\t// out\n                /* \"#utility.yul\":139:235   */\n            tag_96:\n                /* \"#utility.yul\":176:183   */\n              0x00\n                /* \"#utility.yul\":205:229   */\n              tag_124\n                /* \"#utility.yul\":223:228   */\n              dup3\n                /* \"#utility.yul\":205:229   */\n              tag_95\n              jump\t// in\n            tag_124:\n                /* \"#utility.yul\":194:229   */\n              swap1\n              pop\n                /* \"#utility.yul\":139:235   */\n              swap2\n              swap1\n              pop\n              jump\t// out\n                /* \"#utility.yul\":241:359   */\n            tag_97:\n                /* \"#utility.yul\":328:352   */\n              tag_126\n                /* \"#utility.yul\":346:351   */\n              dup2\n                /* \"#utility.yul\":328:352   */\n              tag_96\n              jump\t// in\n            tag_126:\n                /* \"#utility.yul\":323:326   */\n              dup3\n                /* \"#utility.yul\":316:353   */\n              mstore\n                /* \"#utility.yul\":241:359   */\n              pop\n              pop\n              jump\t// out\n                /* \"#utility.yul\":365:587   */\n            tag_16:\n                /* \"#utility.yul\":458:462   */\n              0x00\n                /* \"#utility.yul\":496:498   */\n              0x20\n                /* \"#utility.yul\":485:494   */\n              dup3\n                /* \"#utility.yul\":481:499   */\n              add\n                /* \"#utility.yul\":473:499   */\n              swap1\n              pop\n                /* \"#utility.yul\":509:580   */\n              tag_128\n                /* \"#utility.yul\":577:578   */\n              0x00\n                /* \"#utility.yul\":566:575   */\n              dup4\n                /* \"#utility.yul\":562:579   */\n              add\n                /* \"#utility.yul\":553:559   */\n              dup5\n                /* \"#utility.yul\":509:580   */\n              tag_97\n              jump\t// in\n            tag_128:\n                /* \"#utility.yul\":365:587   */\n              swap3\n              swap2\n              pop\n              pop\n              jump\t// out\n                /* \"#utility.yul\":593:692   */\n            tag_98:\n                /* \"#utility.yul\":645:651   */\n              0x00\n                /* \"#utility.yul\":679:684   */\n              dup2\n                /* \"#utility.yul\":673:685   */\n              mload\n                /* \"#utility.yul\":663:685   */\n              swap1\n              pop\n                /* \"#utility.yul\":593:692   */\n              swap2\n              swap1\n              pop\n              jump\t// out\n                /* \"#utility.yul\":698:867   */\n            tag_99:\n                /* \"#utility.yul\":782:793   */\n              0x00\n                /* \"#utility.yul\":816:822   */\n              dup3\n                /* \"#utility.yul\":811:814   */\n              dup3\n                /* \"#utility.yul\":804:823   */\n              mstore\n                /* \"#utility.yul\":856:860   */\n              0x20\n                /* \"#utility.yul\":851:854   */\n              dup3\n                /* \"#utility.yul\":847:861   */\n              add\n                /* \"#utility.yul\":832:861   */\n              swap1\n              pop\n                /* \"#utility.yul\":698:867   */\n              swap3\n              swap2\n              pop\n              pop\n              jump\t// out\n                /* \"#utility.yul\":873:1180   */\n            tag_100:\n                /* \"#utility.yul\":941:942   */\n              0x00\n                /* \"#utility.yul\":951:1064   */\n            tag_132:\n                /* \"#utility.yul\":965:971   */\n              dup4\n                /* \"#utility.yul\":962:963   */\n              dup2\n                /* \"#utility.yul\":959:972   */\n              lt\n                /* \"#utility.yul\":951:1064   */\n              iszero\n              tag_134\n              jumpi\n                /* \"#utility.yul\":1050:1051   */\n              dup1\n                /* \"#utility.yul\":1045:1048   */\n              dup3\n                /* \"#utility.yul\":1041:1052   */\n              add\n                /* \"#utility.yul\":1035:1053   */\n              mload\n                /* \"#utility.yul\":1031:1032   */\n              dup2\n                /* \"#utility.yul\":1026:1029   */\n              dup5\n                /* \"#utility.yul\":1022:1033   */\n              add\n                /* \"#utility.yul\":1015:1054   */\n              mstore\n                /* \"#utility.yul\":987:989   */\n              0x20\n                /* \"#utility.yul\":984:985   */\n              dup2\n                /* \"#utility.yul\":980:990   */\n              add\n                /* \"#utility.yul\":975:990   */\n              swap1\n              pop\n                /* \"#utility.yul\":951:1064   */\n              jump(tag_132)\n            tag_134:\n                /* \"#utility.yul\":1082:1088   */\n              dup4\n                /* \"#utility.yul\":1079:1080   */\n              dup2\n                /* \"#utility.yul\":1076:1089   */\n              gt\n                /* \"#utility.yul\":1073:1174   */\n              iszero\n              tag_135\n              jumpi\n                /* \"#utility.yul\":1162:1163   */\n              0x00\n                /* \"#utility.yul\":1153:1159   */\n              dup5\n                /* \"#utility.yul\":1148:1151   */\n              dup5\n                /* \"#utility.yul\":1144:1160   */\n              add\n                /* \"#utility.yul\":1137:1164   */\n              mstore\n                /* \"#utility.yul\":1073:1174   */\n            tag_135:\n                /* \"#utility.yul\":922:1180   */\n              pop\n                /* \"#utility.yul\":873:1180   */\n              pop\n              pop\n              pop\n              jump\t// out\n                /* \"#utility.yul\":1186:1288   */\n            tag_101:\n                /* \"#utility.yul\":1227:1233   */\n              0x00\n                /* \"#utility.yul\":1278:1280   */\n              0x1f\n                /* \"#utility.yul\":1274:1281   */\n              not\n                /* \"#utility.yul\":1269:1271   */\n              0x1f\n                /* \"#utility.yul\":1262:1267   */\n              dup4\n                /* \"#utility.yul\":1258:1272   */\n              add\n                /* \"#utility.yul\":1254:1282   */\n              and\n                /* \"#utility.yul\":1244:1282   */\n              swap1\n              pop\n                /* \"#utility.yul\":1186:1288   */\n              swap2\n              swap1\n              pop\n              jump\t// out\n                /* \"#utility.yul\":1294:1658   */\n            tag_102:\n                /* \"#utility.yul\":1382:1385   */\n              0x00\n                /* \"#utility.yul\":1410:1449   */\n              tag_138\n                /* \"#utility.yul\":1443:1448   */\n              dup3\n                /* \"#utility.yul\":1410:1449   */\n              tag_98\n              jump\t// in\n            tag_138:\n                /* \"#utility.yul\":1465:1536   */\n              tag_139\n                /* \"#utility.yul\":1529:1535   */\n              dup2\n                /* \"#utility.yul\":1524:1527   */\n              dup6\n                /* \"#utility.yul\":1465:1536   */\n              tag_99\n              jump\t// in\n            tag_139:\n                /* \"#utility.yul\":1458:1536   */\n              swap4\n              pop\n                /* \"#utility.yul\":1545:1597   */\n              tag_140\n                /* \"#utility.yul\":1590:1596   */\n              dup2\n                /* \"#utility.yul\":1585:1588   */\n              dup6\n                /* \"#utility.yul\":1578:1582   */\n              0x20\n                /* \"#utility.yul\":1571:1576   */\n              dup7\n                /* \"#utility.yul\":1567:1583   */\n              add\n                /* \"#utility.yul\":1545:1597   */\n              tag_100\n              jump\t// in\n            tag_140:\n                /* \"#utility.yul\":1622:1651   */\n              tag_141\n                /* \"#utility.yul\":1644:1650   */\n              dup2\n                /* \"#utility.yul\":1622:1651   */\n              tag_101\n              jump\t// in\n            tag_141:\n                /* \"#utility.yul\":1617:1620   */\n              dup5\n                /* \"#utility.yul\":1613:1652   */\n              add\n                /* \"#utility.yul\":1606:1652   */\n              swap2\n              pop\n                /* \"#utility.yul\":1386:1658   */\n              pop\n                /* \"#utility.yul\":1294:1658   */\n              swap3\n              swap2\n              pop\n              pop\n              jump\t// out\n                /* \"#utility.yul\":1664:1977   */\n            tag_21:\n                /* \"#utility.yul\":1777:1781   */\n              0x00\n                /* \"#utility.yul\":1815:1817   */\n              0x20\n                /* \"#utility.yul\":1804:1813   */\n              dup3\n                /* \"#utility.yul\":1800:1818   */\n              add\n                /* \"#utility.yul\":1792:1818   */\n              swap1\n              pop\n                /* \"#utility.yul\":1864:1873   */\n              dup2\n                /* \"#utility.yul\":1858:1862   */\n              dup2\n                /* \"#utility.yul\":1854:1874   */\n              sub\n                /* \"#utility.yul\":1850:1851   */\n              0x00\n                /* \"#utility.yul\":1839:1848   */\n              dup4\n                /* \"#utility.yul\":1835:1852   */\n              add\n                /* \"#utility.yul\":1828:1875   */\n              mstore\n                /* \"#utility.yul\":1892:1970   */\n              tag_143\n                /* \"#utility.yul\":1965:1969   */\n              dup2\n                /* \"#utility.yul\":1956:1962   */\n              dup5\n                /* \"#utility.yul\":1892:1970   */\n              tag_102\n              jump\t// in\n            tag_143:\n                /* \"#utility.yul\":1884:1970   */\n              swap1\n              pop\n                /* \"#utility.yul\":1664:1977   */\n              swap3\n              swap2\n              pop\n              pop\n              jump\t// out\n                /* \"#utility.yul\":1983:2163   */\n            tag_60:\n                /* \"#utility.yul\":2031:2108   */\n              0x4e487b7100000000000000000000000000000000000000000000000000000000\n                /* \"#utility.yul\":2028:2029   */\n              0x00\n                /* \"#utility.yul\":2021:2109   */\n              mstore\n                /* \"#utility.yul\":2128:2132   */\n              0x21\n                /* \"#utility.yul\":2125:2126   */\n              0x04\n                /* \"#utility.yul\":2118:2133   */\n              mstore\n                /* \"#utility.yul\":2152:2156   */\n              0x24\n                /* \"#utility.yul\":2149:2150   */\n              0x00\n                /* \"#utility.yul\":2142:2157   */\n              revert\n                /* \"#utility.yul\":2169:2284   */\n            tag_103:\n                /* \"#utility.yul\":2252:2253   */\n              0x03\n                /* \"#utility.yul\":2245:2250   */\n              dup2\n                /* \"#utility.yul\":2242:2254   */\n              lt\n                /* \"#utility.yul\":2232:2278   */\n              tag_146\n              jumpi\n                /* \"#utility.yul\":2258:2276   */\n              tag_147\n              tag_60\n              jump\t// in\n            tag_147:\n                /* \"#utility.yul\":2232:2278   */\n            tag_146:\n                /* \"#utility.yul\":2169:2284   */\n              pop\n              jump\t// out\n                /* \"#utility.yul\":2290:2421   */\n            tag_104:\n                /* \"#utility.yul\":2337:2344   */\n              0x00\n                /* \"#utility.yul\":2366:2371   */\n              dup2\n                /* \"#utility.yul\":2355:2371   */\n              swap1\n              pop\n                /* \"#utility.yul\":2372:2415   */\n              tag_149\n                /* \"#utility.yul\":2409:2414   */\n              dup3\n                /* \"#utility.yul\":2372:2415   */\n              tag_103\n              jump\t// in\n            tag_149:\n                /* \"#utility.yul\":2290:2421   */\n              swap2\n              swap1\n              pop\n              jump\t// out\n                /* \"#utility.yul\":2427:2558   */\n            tag_105:\n                /* \"#utility.yul\":2485:2494   */\n              0x00\n                /* \"#utility.yul\":2518:2552   */\n              tag_151\n                /* \"#utility.yul\":2546:2551   */\n              dup3\n                /* \"#utility.yul\":2518:2552   */\n              tag_104\n              jump\t// in\n            tag_151:\n                /* \"#utility.yul\":2505:2552   */\n              swap1\n              pop\n                /* \"#utility.yul\":2427:2558   */\n              swap2\n              swap1\n              pop\n              jump\t// out\n                /* \"#utility.yul\":2564:2711   */\n            tag_106:\n                /* \"#utility.yul\":2659:2704   */\n              tag_153\n                /* \"#utility.yul\":2698:2703   */\n              dup2\n                /* \"#utility.yul\":2659:2704   */\n              tag_105\n              jump\t// in\n            tag_153:\n                /* \"#utility.yul\":2654:2657   */\n              dup3\n                /* \"#utility.yul\":2647:2705   */\n              mstore\n                /* \"#utility.yul\":2564:2711   */\n              pop\n              pop\n              jump\t// out\n                /* \"#utility.yul\":2717:2955   */\n            tag_26:\n                /* \"#utility.yul\":2818:2822   */\n              0x00\n                /* \"#utility.yul\":2856:2858   */\n              0x20\n                /* \"#utility.yul\":2845:2854   */\n              dup3\n                /* \"#utility.yul\":2841:2859   */\n              add\n                /* \"#utility.yul\":2833:2859   */\n              swap1\n              pop\n                /* \"#utility.yul\":2869:2948   */\n              tag_155\n                /* \"#utility.yul\":2945:2946   */\n              0x00\n                /* \"#utility.yul\":2934:2943   */\n              dup4\n                /* \"#utility.yul\":2930:2947   */\n              add\n                /* \"#utility.yul\":2921:2927   */\n              dup5\n                /* \"#utility.yul\":2869:2948   */\n              tag_106\n              jump\t// in\n            tag_155:\n                /* \"#utility.yul\":2717:2955   */\n              swap3\n              swap2\n              pop\n              pop\n              jump\t// out\n                /* \"#utility.yul\":2961:3021   */\n            tag_107:\n                /* \"#utility.yul\":2989:2992   */\n              0x00\n                /* \"#utility.yul\":3010:3015   */\n              dup2\n                /* \"#utility.yul\":3003:3015   */\n              swap1\n              pop\n                /* \"#utility.yul\":2961:3021   */\n              swap2\n              swap1\n              pop\n              jump\t// out\n                /* \"#utility.yul\":3027:3169   */\n            tag_108:\n                /* \"#utility.yul\":3077:3086   */\n              0x00\n                /* \"#utility.yul\":3110:3163   */\n              tag_158\n                /* \"#utility.yul\":3128:3162   */\n              tag_159\n                /* \"#utility.yul\":3137:3161   */\n              tag_160\n                /* \"#utility.yul\":3155:3160   */\n              dup5\n                /* \"#utility.yul\":3137:3161   */\n              tag_95\n              jump\t// in\n            tag_160:\n                /* \"#utility.yul\":3128:3162   */\n              tag_107\n              jump\t// in\n            tag_159:\n                /* \"#utility.yul\":3110:3163   */\n              tag_95\n              jump\t// in\n            tag_158:\n                /* \"#utility.yul\":3097:3163   */\n              swap1\n              pop\n                /* \"#utility.yul\":3027:3169   */\n              swap2\n              swap1\n              pop\n              jump\t// out\n                /* \"#utility.yul\":3175:3301   */\n            tag_109:\n                /* \"#utility.yul\":3225:3234   */\n              0x00\n                /* \"#utility.yul\":3258:3295   */\n              tag_162\n                /* \"#utility.yul\":3289:3294   */\n              dup3\n                /* \"#utility.yul\":3258:3295   */\n              tag_108\n              jump\t// in\n            tag_162:\n                /* \"#utility.yul\":3245:3295   */\n              swap1\n              pop\n                /* \"#utility.yul\":3175:3301   */\n              swap2\n              swap1\n              pop\n              jump\t// out\n                /* \"#utility.yul\":3307:3464   */\n            tag_110:\n                /* \"#utility.yul\":3388:3397   */\n              0x00\n                /* \"#utility.yul\":3421:3458   */\n              tag_164\n                /* \"#utility.yul\":3452:3457   */\n              dup3\n                /* \"#utility.yul\":3421:3458   */\n              tag_109\n              jump\t// in\n            tag_164:\n                /* \"#utility.yul\":3408:3458   */\n              swap1\n              pop\n                /* \"#utility.yul\":3307:3464   */\n              swap2\n              swap1\n              pop\n              jump\t// out\n                /* \"#utility.yul\":3470:3663   */\n            tag_111:\n                /* \"#utility.yul\":3588:3656   */\n              tag_166\n                /* \"#utility.yul\":3650:3655   */\n              dup2\n                /* \"#utility.yul\":3588:3656   */\n              tag_110\n              jump\t// in\n            tag_166:\n                /* \"#utility.yul\":3583:3586   */\n              dup3\n                /* \"#utility.yul\":3576:3657   */\n              mstore\n                /* \"#utility.yul\":3470:3663   */\n              pop\n              pop\n              jump\t// out\n                /* \"#utility.yul\":3669:3953   */\n            tag_30:\n                /* \"#utility.yul\":3793:3797   */\n              0x00\n                /* \"#utility.yul\":3831:3833   */\n              0x20\n                /* \"#utility.yul\":3820:3829   */\n              dup3\n                /* \"#utility.yul\":3816:3834   */\n              add\n                /* \"#utility.yul\":3808:3834   */\n              swap1\n              pop\n                /* \"#utility.yul\":3844:3946   */\n              tag_168\n                /* \"#utility.yul\":3943:3944   */\n              0x00\n                /* \"#utility.yul\":3932:3941   */\n              dup4\n                /* \"#utility.yul\":3928:3945   */\n              add\n                /* \"#utility.yul\":3919:3925   */\n              dup5\n                /* \"#utility.yul\":3844:3946   */\n              tag_111\n              jump\t// in\n            tag_168:\n                /* \"#utility.yul\":3669:3953   */\n              swap3\n              swap2\n              pop\n              pop\n              jump\t// out\n                /* \"#utility.yul\":3959:4036   */\n            tag_112:\n                /* \"#utility.yul\":3996:4003   */\n              0x00\n                /* \"#utility.yul\":4025:4030   */\n              dup2\n                /* \"#utility.yul\":4014:4030   */\n              swap1\n              pop\n                /* \"#utility.yul\":3959:4036   */\n              swap2\n              swap1\n              pop\n              jump\t// out\n                /* \"#utility.yul\":4042:4160   */\n            tag_113:\n                /* \"#utility.yul\":4129:4153   */\n              tag_171\n                /* \"#utility.yul\":4147:4152   */\n              dup2\n                /* \"#utility.yul\":4129:4153   */\n              tag_112\n              jump\t// in\n            tag_171:\n                /* \"#utility.yul\":4124:4127   */\n              dup3\n                /* \"#utility.yul\":4117:4154   */\n              mstore\n                /* \"#utility.yul\":4042:4160   */\n              pop\n              pop\n              jump\t// out\n                /* \"#utility.yul\":4166:4388   */\n            tag_47:\n                /* \"#utility.yul\":4259:4263   */\n              0x00\n                /* \"#utility.yul\":4297:4299   */\n              0x20\n                /* \"#utility.yul\":4286:4295   */\n              dup3\n                /* \"#utility.yul\":4282:4300   */\n              add\n                /* \"#utility.yul\":4274:4300   */\n              swap1\n              pop\n                /* \"#utility.yul\":4310:4381   */\n              tag_173\n                /* \"#utility.yul\":4378:4379   */\n              0x00\n                /* \"#utility.yul\":4367:4376   */\n              dup4\n                /* \"#utility.yul\":4363:4380   */\n              add\n                /* \"#utility.yul\":4354:4360   */\n              dup5\n                /* \"#utility.yul\":4310:4381   */\n              tag_113\n              jump\t// in\n            tag_173:\n                /* \"#utility.yul\":4166:4388   */\n              swap3\n              swap2\n              pop\n              pop\n              jump\t// out\n                /* \"#utility.yul\":4394:4574   */\n            tag_114:\n                /* \"#utility.yul\":4442:4519   */\n              0x4e487b7100000000000000000000000000000000000000000000000000000000\n                /* \"#utility.yul\":4439:4440   */\n              0x00\n                /* \"#utility.yul\":4432:4520   */\n              mstore\n                /* \"#utility.yul\":4539:4543   */\n              0x22\n                /* \"#utility.yul\":4536:4537   */\n              0x04\n                /* \"#utility.yul\":4529:4544   */\n              mstore\n                /* \"#utility.yul\":4563:4567   */\n              0x24\n                /* \"#utility.yul\":4560:4561   */\n              0x00\n                /* \"#utility.yul\":4553:4568   */\n              revert\n                /* \"#utility.yul\":4580:4900   */\n            tag_52:\n                /* \"#utility.yul\":4624:4630   */\n              0x00\n                /* \"#utility.yul\":4661:4662   */\n              0x02\n                /* \"#utility.yul\":4655:4659   */\n              dup3\n                /* \"#utility.yul\":4651:4663   */\n              div\n                /* \"#utility.yul\":4641:4663   */\n              swap1\n              pop\n                /* \"#utility.yul\":4708:4709   */\n              0x01\n                /* \"#utility.yul\":4702:4706   */\n              dup3\n                /* \"#utility.yul\":4698:4710   */\n              and\n                /* \"#utility.yul\":4729:4747   */\n              dup1\n                /* \"#utility.yul\":4719:4800   */\n              tag_176\n              jumpi\n                /* \"#utility.yul\":4785:4789   */\n              0x7f\n                /* \"#utility.yul\":4777:4783   */\n              dup3\n                /* \"#utility.yul\":4773:4790   */\n              and\n                /* \"#utility.yul\":4763:4790   */\n              swap2\n              pop\n                /* \"#utility.yul\":4719:4800   */\n            tag_176:\n                /* \"#utility.yul\":4847:4849   */\n              0x20\n                /* \"#utility.yul\":4839:4845   */\n              dup3\n                /* \"#utility.yul\":4836:4850   */\n              lt\n                /* \"#utility.yul\":4816:4834   */\n              dup2\n                /* \"#utility.yul\":4813:4851   */\n              eq\n                /* \"#utility.yul\":4810:4894   */\n              iszero\n              tag_177\n              jumpi\n                /* \"#utility.yul\":4866:4884   */\n              tag_178\n              tag_114\n              jump\t// in\n            tag_178:\n                /* \"#utility.yul\":4810:4894   */\n            tag_177:\n                /* \"#utility.yul\":4631:4900   */\n              pop\n                /* \"#utility.yul\":4580:4900   */\n              swap2\n              swap1\n              pop\n              jump\t// out\n                /* \"#utility.yul\":4906:5129   */\n            tag_115:\n                /* \"#utility.yul\":5046:5080   */\n              0x436f6e747261637420737461747573206973206e6f7420657175616c20746f20\n                /* \"#utility.yul\":5042:5043   */\n              0x00\n                /* \"#utility.yul\":5034:5040   */\n              dup3\n                /* \"#utility.yul\":5030:5044   */\n              add\n                /* \"#utility.yul\":5023:5081   */\n              mstore\n                /* \"#utility.yul\":5115:5121   */\n              0x6f70656e00000000000000000000000000000000000000000000000000000000\n                /* \"#utility.yul\":5110:5112   */\n              0x20\n                /* \"#utility.yul\":5102:5108   */\n              dup3\n                /* \"#utility.yul\":5098:5113   */\n              add\n                /* \"#utility.yul\":5091:5122   */\n              mstore\n                /* \"#utility.yul\":4906:5129   */\n              pop\n              jump\t// out\n                /* \"#utility.yul\":5135:5501   */\n            tag_116:\n                /* \"#utility.yul\":5277:5280   */\n              0x00\n                /* \"#utility.yul\":5298:5365   */\n              tag_181\n                /* \"#utility.yul\":5362:5364   */\n              0x24\n                /* \"#utility.yul\":5357:5360   */\n              dup4\n                /* \"#utility.yul\":5298:5365   */\n              tag_99\n              jump\t// in\n            tag_181:\n                /* \"#utility.yul\":5291:5365   */\n              swap2\n              pop\n                /* \"#utility.yul\":5374:5467   */\n              tag_182\n                /* \"#utility.yul\":5463:5466   */\n              dup3\n                /* \"#utility.yul\":5374:5467   */\n              tag_115\n              jump\t// in\n            tag_182:\n                /* \"#utility.yul\":5492:5494   */\n              0x40\n                /* \"#utility.yul\":5487:5490   */\n              dup3\n                /* \"#utility.yul\":5483:5495   */\n              add\n                /* \"#utility.yul\":5476:5495   */\n              swap1\n              pop\n                /* \"#utility.yul\":5135:5501   */\n              swap2\n              swap1\n              pop\n              jump\t// out\n                /* \"#utility.yul\":5507:5926   */\n            tag_65:\n                /* \"#utility.yul\":5673:5677   */\n              0x00\n                /* \"#utility.yul\":5711:5713   */\n              0x20\n                /* \"#utility.yul\":5700:5709   */\n              dup3\n                /* \"#utility.yul\":5696:5714   */\n              add\n                /* \"#utility.yul\":5688:5714   */\n              swap1\n              pop\n                /* \"#utility.yul\":5760:5769   */\n              dup2\n                /* \"#utility.yul\":5754:5758   */\n              dup2\n                /* \"#utility.yul\":5750:5770   */\n              sub\n                /* \"#utility.yul\":5746:5747   */\n              0x00\n                /* \"#utility.yul\":5735:5744   */\n              dup4\n                /* \"#utility.yul\":5731:5748   */\n              add\n                /* \"#utility.yul\":5724:5771   */\n              mstore\n                /* \"#utility.yul\":5788:5919   */\n              tag_184\n                /* \"#utility.yul\":5914:5918   */\n              dup2\n                /* \"#utility.yul\":5788:5919   */\n              tag_116\n              jump\t// in\n            tag_184:\n                /* \"#utility.yul\":5780:5919   */\n              swap1\n              pop\n                /* \"#utility.yul\":5507:5926   */\n              swap2\n              swap1\n              pop\n              jump\t// out\n                /* \"#utility.yul\":5932:6160   */\n            tag_117:\n                /* \"#utility.yul\":6072:6106   */\n              0x4f6e6c792072656665726565206f722063726561746f722063616e206661696c\n                /* \"#utility.yul\":6068:6069   */\n              0x00\n                /* \"#utility.yul\":6060:6066   */\n              dup3\n                /* \"#utility.yul\":6056:6070   */\n              add\n                /* \"#utility.yul\":6049:6107   */\n              mstore\n                /* \"#utility.yul\":6141:6152   */\n              0x20636f6e74726163740000000000000000000000000000000000000000000000\n                /* \"#utility.yul\":6136:6138   */\n              0x20\n                /* \"#utility.yul\":6128:6134   */\n              dup3\n                /* \"#utility.yul\":6124:6139   */\n              add\n                /* \"#utility.yul\":6117:6153   */\n              mstore\n                /* \"#utility.yul\":5932:6160   */\n              pop\n              jump\t// out\n                /* \"#utility.yul\":6166:6532   */\n            tag_118:\n                /* \"#utility.yul\":6308:6311   */\n              0x00\n                /* \"#utility.yul\":6329:6396   */\n              tag_187\n                /* \"#utility.yul\":6393:6395   */\n              0x29\n                /* \"#utility.yul\":6388:6391   */\n              dup4\n                /* \"#utility.yul\":6329:6396   */\n              tag_99\n              jump\t// in\n            tag_187:\n                /* \"#utility.yul\":6322:6396   */\n              swap2\n              pop\n                /* \"#utility.yul\":6405:6498   */\n              tag_188\n                /* \"#utility.yul\":6494:6497   */\n              dup3\n                /* \"#utility.yul\":6405:6498   */\n              tag_117\n              jump\t// in\n            tag_188:\n                /* \"#utility.yul\":6523:6525   */\n              0x40\n                /* \"#utility.yul\":6518:6521   */\n              dup3\n                /* \"#utility.yul\":6514:6526   */\n              add\n                /* \"#utility.yul\":6507:6526   */\n              swap1\n              pop\n                /* \"#utility.yul\":6166:6532   */\n              swap2\n              swap1\n              pop\n              jump\t// out\n                /* \"#utility.yul\":6538:6957   */\n            tag_70:\n                /* \"#utility.yul\":6704:6708   */\n              0x00\n                /* \"#utility.yul\":6742:6744   */\n              0x20\n                /* \"#utility.yul\":6731:6740   */\n              dup3\n                /* \"#utility.yul\":6727:6745   */\n              add\n                /* \"#utility.yul\":6719:6745   */\n              swap1\n              pop\n                /* \"#utility.yul\":6791:6800   */\n              dup2\n                /* \"#utility.yul\":6785:6789   */\n              dup2\n                /* \"#utility.yul\":6781:6801   */\n              sub\n                /* \"#utility.yul\":6777:6778   */\n              0x00\n                /* \"#utility.yul\":6766:6775   */\n              dup4\n                /* \"#utility.yul\":6762:6779   */\n              add\n                /* \"#utility.yul\":6755:6802   */\n              mstore\n                /* \"#utility.yul\":6819:6950   */\n              tag_190\n                /* \"#utility.yul\":6945:6949   */\n              dup2\n                /* \"#utility.yul\":6819:6950   */\n              tag_118\n              jump\t// in\n            tag_190:\n                /* \"#utility.yul\":6811:6950   */\n              swap1\n              pop\n                /* \"#utility.yul\":6538:6957   */\n              swap2\n              swap1\n              pop\n              jump\t// out\n                /* \"#utility.yul\":6963:7186   */\n            tag_119:\n                /* \"#utility.yul\":7103:7137   */\n              0x4f6e6c7920726566657265652063616e20636f6d706c657465206120636f6e74\n                /* \"#utility.yul\":7099:7100   */\n              0x00\n                /* \"#utility.yul\":7091:7097   */\n              dup3\n                /* \"#utility.yul\":7087:7101   */\n              add\n                /* \"#utility.yul\":7080:7138   */\n              mstore\n                /* \"#utility.yul\":7172:7178   */\n              0x7261637400000000000000000000000000000000000000000000000000000000\n                /* \"#utility.yul\":7167:7169   */\n              0x20\n                /* \"#utility.yul\":7159:7165   */\n              dup3\n                /* \"#utility.yul\":7155:7170   */\n              add\n                /* \"#utility.yul\":7148:7179   */\n              mstore\n                /* \"#utility.yul\":6963:7186   */\n              pop\n              jump\t// out\n                /* \"#utility.yul\":7192:7558   */\n            tag_120:\n                /* \"#utility.yul\":7334:7337   */\n              0x00\n                /* \"#utility.yul\":7355:7422   */\n              tag_193\n                /* \"#utility.yul\":7419:7421   */\n              0x24\n                /* \"#utility.yul\":7414:7417   */\n              dup4\n                /* \"#utility.yul\":7355:7422   */\n              tag_99\n              jump\t// in\n            tag_193:\n                /* \"#utility.yul\":7348:7422   */\n              swap2\n              pop\n                /* \"#utility.yul\":7431:7524   */\n              tag_194\n                /* \"#utility.yul\":7520:7523   */\n              dup3\n                /* \"#utility.yul\":7431:7524   */\n              tag_119\n              jump\t// in\n            tag_194:\n                /* \"#utility.yul\":7549:7551   */\n              0x40\n                /* \"#utility.yul\":7544:7547   */\n              dup3\n                /* \"#utility.yul\":7540:7552   */\n              add\n                /* \"#utility.yul\":7533:7552   */\n              swap1\n              pop\n                /* \"#utility.yul\":7192:7558   */\n              swap2\n              swap1\n              pop\n              jump\t// out\n                /* \"#utility.yul\":7564:7983   */\n            tag_90:\n                /* \"#utility.yul\":7730:7734   */\n              0x00\n                /* \"#utility.yul\":7768:7770   */\n              0x20\n                /* \"#utility.yul\":7757:7766   */\n              dup3\n                /* \"#utility.yul\":7753:7771   */\n              add\n                /* \"#utility.yul\":7745:7771   */\n              swap1\n              pop\n                /* \"#utility.yul\":7817:7826   */\n              dup2\n                /* \"#utility.yul\":7811:7815   */\n              dup2\n                /* \"#utility.yul\":7807:7827   */\n              sub\n                /* \"#utility.yul\":7803:7804   */\n              0x00\n                /* \"#utility.yul\":7792:7801   */\n              dup4\n                /* \"#utility.yul\":7788:7805   */\n              add\n                /* \"#utility.yul\":7781:7828   */\n              mstore\n                /* \"#utility.yul\":7845:7976   */\n              tag_196\n                /* \"#utility.yul\":7971:7975   */\n              dup2\n                /* \"#utility.yul\":7845:7976   */\n              tag_120\n              jump\t// in\n            tag_196:\n                /* \"#utility.yul\":7837:7976   */\n              swap1\n              pop\n                /* \"#utility.yul\":7564:7983   */\n              swap2\n              swap1\n              pop\n              jump\t// out\n\n            auxdata: 0xa2646970667358221220637f58734fc63ce22b4a8b6e882d1b3e8dacd1b17e6302de86ef67ade3b6c1e664736f6c634300080c0033\n        }\n    }\n\n    auxdata: 0xa2646970667358221220e3e552b7e5fd32be79b355b214c0702d51ff519b2c697e303d3cab2c41e428cc64736f6c634300080c0033\n}\n","bytecode":{"linkReferences":{},"object":"608060405234801561001057600080fd5b50614ddb806100206000396000f3fe608060405260043610620001465760003560e01c806361542c4411620000bb578063a87430ba1162000079578063a87430ba14620004c7578063a908f4fa146200050b578063b24e67d0146200054f578063b3b6633e1462000593578063dc0e0c1314620005c3578063e436e82614620005f35762000146565b806361542c4414620003b357806364a60b4714620003e157806375ce46a714620004255780637aabe05814620004555780639051e23414620004835762000146565b8063442a7bc71162000109578063442a7bc714620002895780634841a88514620002cd5780634ea3467114620002fd578063502c9bd514620003415780635b259abf14620003855762000146565b80630e865751146200014b57806319ee8bd4146200018f57806320d0888414620001d357806338db44bc146200020157806338fb42fd1462000245575b600080fd5b3480156200015857600080fd5b50620001776004803603810190620001719190620027a8565b62000613565b604051620001869190620028f1565b60405180910390f35b3480156200019c57600080fd5b50620001bb6004803603810190620001b5919062002946565b620007c7565b604051620001ca9190620028f1565b60405180910390f35b348015620001e057600080fd5b50620001ff6004803603810190620001f9919062002946565b62000899565b005b3480156200020e57600080fd5b506200022d600480360381019062000227919062002978565b62000cbd565b6040516200023c9190620029bb565b60405180910390f35b3480156200025257600080fd5b506200027160048036038101906200026b919062002978565b62000cfd565b604051620002809190620029bb565b60405180910390f35b3480156200029657600080fd5b50620002b56004803603810190620002af919062002946565b62000d3d565b604051620002c49190620028f1565b60405180910390f35b348015620002da57600080fd5b50620002e562000e0e565b604051620002f49190620029e9565b60405180910390f35b3480156200030a57600080fd5b5062000329600480360381019062000323919062002946565b62000e14565b604051620003389190620028f1565b60405180910390f35b3480156200034e57600080fd5b506200036d600480360381019062000367919062002978565b62000ee6565b6040516200037c9190620029bb565b60405180910390f35b3480156200039257600080fd5b50620003b16004803603810190620003ab919062002946565b62000f26565b005b348015620003c057600080fd5b50620003df6004803603810190620003d9919062002946565b6200109e565b005b348015620003ee57600080fd5b506200040d600480360381019062000407919062002946565b62001216565b6040516200041c9190620029e9565b60405180910390f35b3480156200043257600080fd5b506200043d62001234565b6040516200044c9190620029e9565b60405180910390f35b3480156200046257600080fd5b506200048160048036038101906200047b919062002946565b6200123a565b005b3480156200049057600080fd5b50620004af6004803603810190620004a9919062002946565b62001558565b604051620004be9190620028f1565b60405180910390f35b348015620004d457600080fd5b50620004f36004803603810190620004ed919062002946565b6200162a565b604051620005029190620029e9565b60405180910390f35b3480156200051857600080fd5b50620005376004803603810190620005319190620027a8565b62001648565b604051620005469190620028f1565b60405180910390f35b3480156200055c57600080fd5b506200057b600480360381019062000575919062002946565b620017fc565b6040516200058a9190620028f1565b60405180910390f35b348015620005a057600080fd5b50620005ab620018cd565b604051620005ba9190620029e9565b60405180910390f35b348015620005d057600080fd5b50620005db620018d3565b604051620005ea9190620029e9565b60405180910390f35b6200061160048036038101906200060b919062002bad565b620018d9565b005b606060008310156200065c576040517f08c379a0000000000000000000000000000000000000000000000000000000008152600401620006539062002cbe565b60405180910390fd5b600380549050821115620006a7576040517f08c379a00000000000000000000000000000000000000000000000000000000081526004016200069e9062002d56565b60405180910390fd5b60008383620006b7919062002da7565b67ffffffffffffffff811115620006d357620006d262002a21565b5b604051908082528060200260200182016040528015620007025781602001602082028036833780820191505090505b50905060008490505b83811015620007bc57600381815481106200072b576200072a62002de2565b5b9060005260206000200160009054906101000a900473ffffffffffffffffffffffffffffffffffffffff168282815181106200076c576200076b62002de2565b5b602002602001019073ffffffffffffffffffffffffffffffffffffffff16908173ffffffffffffffffffffffffffffffffffffffff16815250508080620007b39062002e11565b9150506200070b565b508091505092915050565b6060600660008373ffffffffffffffffffffffffffffffffffffffff1673ffffffffffffffffffffffffffffffffffffffff1681526020019081526020016000206002018054806020026020016040519081016040528092919081815260200182805480156200088d57602002820191906000526020600020905b8160009054906101000a900473ffffffffffffffffffffffffffffffffffffffff1673ffffffffffffffffffffffffffffffffffffffff168152602001906001019080831162000842575b50505050509050919050565b600081905060008173ffffffffffffffffffffffffffffffffffffffff16633c4901746040518163ffffffff1660e01b8152600401602060405180830381865afa158015620008ec573d6000803e3d6000fd5b505050506040513d601f19601f8201168201806040525081019062000912919062002e76565b90508173ffffffffffffffffffffffffffffffffffffffff16633b1bebd16040518163ffffffff1660e01b8152600401602060405180830381865afa15801562000960573d6000803e3d6000fd5b505050506040513d601f19601f8201168201806040525081019062000986919062002e76565b73ffffffffffffffffffffffffffffffffffffffff168173ffffffffffffffffffffffffffffffffffffffff16633b1bebd16040518163ffffffff1660e01b8152600401602060405180830381865afa158015620009e8573d6000803e3d6000fd5b505050506040513d601f19601f8201168201806040525081019062000a0e919062002e76565b73ffffffffffffffffffffffffffffffffffffffff161462000a67576040517f08c379a000000000000000000000000000000000000000000000000000000000815260040162000a5e9062002f1e565b60405180910390fd5b8073ffffffffffffffffffffffffffffffffffffffff1663b4fedc116040518163ffffffff1660e01b81526004016020604051808303816000875af115801562000ab5573d6000803e3d6000fd5b505050506040513d601f19601f8201168201806040525081019062000adb919062002f85565b5062000bca8173ffffffffffffffffffffffffffffffffffffffff166302d05d3f6040518163ffffffff1660e01b8152600401602060405180830381865afa15801562000b2c573d6000803e3d6000fd5b505050506040513d601f19601f8201168201806040525081019062000b52919062002e76565b8373ffffffffffffffffffffffffffffffffffffffff16633c4901746040518163ffffffff1660e01b8152600401602060405180830381865afa15801562000b9e573d6000803e3d6000fd5b505050506040513d601f19601f8201168201806040525081019062000bc4919062002e76565b62001d4c565b62000cb88173ffffffffffffffffffffffffffffffffffffffff16633b1bebd16040518163ffffffff1660e01b8152600401602060405180830381865afa15801562000c1a573d6000803e3d6000fd5b505050506040513d601f19601f8201168201806040525081019062000c40919062002e76565b8373ffffffffffffffffffffffffffffffffffffffff16633c4901746040518163ffffffff1660e01b8152600401602060405180830381865afa15801562000c8c573d6000803e3d6000fd5b505050506040513d601f19601f8201168201806040525081019062000cb2919062002e76565b62002109565b505050565b6003818154811062000cce57600080fd5b906000526020600020016000915054906101000a900473ffffffffffffffffffffffffffffffffffffffff1681565b6008818154811062000d0e57600080fd5b906000526020600020016000915054906101000a900473ffffffffffffffffffffffffffffffffffffffff1681565b60606000808373ffffffffffffffffffffffffffffffffffffffff1673ffffffffffffffffffffffffffffffffffffffff16815260200190815260200160002060010180548060200260200160405190810160405280929190818152602001828054801562000e0257602002820191906000526020600020905b8160009054906101000a900473ffffffffffffffffffffffffffffffffffffffff1673ffffffffffffffffffffffffffffffffffffffff168152602001906001019080831162000db7575b50505050509050919050565b60045481565b6060600660008373ffffffffffffffffffffffffffffffffffffffff1673ffffffffffffffffffffffffffffffffffffffff16815260200190815260200160002060030180548060200260200160405190810160405280929190818152602001828054801562000eda57602002820191906000526020600020905b8160009054906101000a900473ffffffffffffffffffffffffffffffffffffffff1673ffffffffffffffffffffffffffffffffffffffff168152602001906001019080831162000e8f575b50505050509050919050565b6001818154811062000ef757600080fd5b906000526020600020016000915054906101000a900473ffffffffffffffffffffffffffffffffffffffff1681565b60008190508073ffffffffffffffffffffffffffffffffffffffff16632d398fa66040518163ffffffff1660e01b81526004016020604051808303816000875af115801562000f79573d6000803e3d6000fd5b505050506040513d601f19601f8201168201806040525081019062000f9f919062002f85565b506200101d8173ffffffffffffffffffffffffffffffffffffffff166302d05d3f6040518163ffffffff1660e01b8152600401602060405180830381865afa15801562000ff0573d6000803e3d6000fd5b505050506040513d601f19601f8201168201806040525081019062001016919062002e76565b8362001d4c565b6200109a8173ffffffffffffffffffffffffffffffffffffffff16633b1bebd16040518163ffffffff1660e01b8152600401602060405180830381865afa1580156200106d573d6000803e3d6000fd5b505050506040513d601f19601f8201168201806040525081019062001093919062002e76565b8362002109565b5050565b60008190508073ffffffffffffffffffffffffffffffffffffffff1663b4fedc116040518163ffffffff1660e01b81526004016020604051808303816000875af1158015620010f1573d6000803e3d6000fd5b505050506040513d601f19601f8201168201806040525081019062001117919062002f85565b50620011958173ffffffffffffffffffffffffffffffffffffffff166302d05d3f6040518163ffffffff1660e01b8152600401602060405180830381865afa15801562001168573d6000803e3d6000fd5b505050506040513d601f19601f820116820180604052508101906200118e919062002e76565b8362001d4c565b620012128173ffffffffffffffffffffffffffffffffffffffff16633b1bebd16040518163ffffffff1660e01b8152600401602060405180830381865afa158015620011e5573d6000803e3d6000fd5b505050506040513d601f19601f820116820180604052508101906200120b919062002e76565b8362002109565b5050565b60066020528060005260406000206000915090508060000154905081565b60025481565b60008190506000600281111562001256576200125562002fb7565b5b8173ffffffffffffffffffffffffffffffffffffffff1663200d2ed26040518163ffffffff1660e01b8152600401602060405180830381865afa158015620012a2573d6000803e3d6000fd5b505050506040513d601f19601f82011682018060405250810190620012c891906200300e565b6002811115620012dd57620012dc62002fb7565b5b1462001320576040517f08c379a0000000000000000000000000000000000000000000000000000000008152600401620013179062003090565b60405180910390fd5b8073ffffffffffffffffffffffffffffffffffffffff166302d05d3f6040518163ffffffff1660e01b8152600401602060405180830381865afa1580156200136c573d6000803e3d6000fd5b505050506040513d601f19601f8201168201806040525081019062001392919062002e76565b73ffffffffffffffffffffffffffffffffffffffff163273ffffffffffffffffffffffffffffffffffffffff161462001402576040517f08c379a0000000000000000000000000000000000000000000000000000000008152600401620013f99062003128565b60405180910390fd5b60008260405162001413906200273d565b6200141f9190620029bb565b604051809103906000f0801580156200143c573d6000803e3d6000fd5b509050600660008373ffffffffffffffffffffffffffffffffffffffff16633b1bebd16040518163ffffffff1660e01b8152600401602060405180830381865afa1580156200148f573d6000803e3d6000fd5b505050506040513d601f19601f82011682018060405250810190620014b5919062002e76565b73ffffffffffffffffffffffffffffffffffffffff1673ffffffffffffffffffffffffffffffffffffffff168152602001908152602001600020600301819080600181540180825580915050600190039060005260206000200160009091909190916101000a81548173ffffffffffffffffffffffffffffffffffffffff021916908373ffffffffffffffffffffffffffffffffffffffff160217905550505050565b6060600660008373ffffffffffffffffffffffffffffffffffffffff1673ffffffffffffffffffffffffffffffffffffffff1681526020019081526020016000206001018054806020026020016040519081016040528092919081815260200182805480156200161e57602002820191906000526020600020905b8160009054906101000a900473ffffffffffffffffffffffffffffffffffffffff1673ffffffffffffffffffffffffffffffffffffffff1681526020019060010190808311620015d3575b50505050509050919050565b60006020528060005260406000206000915090508060000154905081565b6060600083101562001691576040517f08c379a0000000000000000000000000000000000000000000000000000000008152600401620016889062002cbe565b60405180910390fd5b600180549050821115620016dc576040517f08c379a0000000000000000000000000000000000000000000000000000000008152600401620016d39062002d56565b60405180910390fd5b60008383620016ec919062002da7565b67ffffffffffffffff81111562001708576200170762002a21565b5b604051908082528060200260200182016040528015620017375781602001602082028036833780820191505090505b50905060008490505b83811015620017f1576001818154811062001760576200175f62002de2565b5b9060005260206000200160009054906101000a900473ffffffffffffffffffffffffffffffffffffffff16828281518110620017a157620017a062002de2565b5b602002602001019073ffffffffffffffffffffffffffffffffffffffff16908173ffffffffffffffffffffffffffffffffffffffff16815250508080620017e89062002e11565b91505062001740565b508091505092915050565b60606000808373ffffffffffffffffffffffffffffffffffffffff1673ffffffffffffffffffffffffffffffffffffffff168152602001908152602001600020600201805480602002602001604051908101604052809291908181526020018280548015620018c157602002820191906000526020600020905b8160009054906101000a900473ffffffffffffffffffffffffffffffffffffffff1673ffffffffffffffffffffffffffffffffffffffff168152602001906001019080831162001876575b50505050509050919050565b60075481565b60055481565b60008060003373ffffffffffffffffffffffffffffffffffffffff1673ffffffffffffffffffffffffffffffffffffffff168152602001908152602001600020600001541415620019a25760026000815480929190620019399062002e11565b91905055506001339080600181540180825580915050600190039060005260206000200160009091909190916101000a81548173ffffffffffffffffffffffffffffffffffffffff021916908373ffffffffffffffffffffffffffffffffffffffff1602179055505b6000600660008673ffffffffffffffffffffffffffffffffffffffff1673ffffffffffffffffffffffffffffffffffffffff16815260200190815260200160002060000154141562001a6c576007600081548092919062001a039062002e11565b91905055506008849080600181540180825580915050600190039060005260206000200160009091909190916101000a81548173ffffffffffffffffffffffffffffffffffffffff021916908373ffffffffffffffffffffffffffffffffffffffff1602179055505b60003433868686863460405162001a83906200274b565b62001a949695949392919062003237565b6040518091039082f090508015801562001ab2573d6000803e3d6000fd5b5090506004600081548092919062001aca9062002e11565b91905055506003819080600181540180825580915050600190039060005260206000200160009091909190916101000a81548173ffffffffffffffffffffffffffffffffffffffff021916908373ffffffffffffffffffffffffffffffffffffffff160217905550346005600082825462001b469190620032b2565b925050819055506000803373ffffffffffffffffffffffffffffffffffffffff1673ffffffffffffffffffffffffffffffffffffffff168152602001908152602001600020600001600081548092919062001ba19062002e11565b91905055506000803373ffffffffffffffffffffffffffffffffffffffff1673ffffffffffffffffffffffffffffffffffffffff168152602001908152602001600020600101819080600181540180825580915050600190039060005260206000200160009091909190916101000a81548173ffffffffffffffffffffffffffffffffffffffff021916908373ffffffffffffffffffffffffffffffffffffffff160217905550600660008673ffffffffffffffffffffffffffffffffffffffff1673ffffffffffffffffffffffffffffffffffffffff168152602001908152602001600020600001600081548092919062001c9d9062002e11565b9190505550600660008673ffffffffffffffffffffffffffffffffffffffff1673ffffffffffffffffffffffffffffffffffffffff168152602001908152602001600020600101819080600181540180825580915050600190039060005260206000200160009091909190916101000a81548173ffffffffffffffffffffffffffffffffffffffff021916908373ffffffffffffffffffffffffffffffffffffffff1602179055505050505050565b600062001d5a8383620024c7565b905060008060008573ffffffffffffffffffffffffffffffffffffffff1673ffffffffffffffffffffffffffffffffffffffff16815260200190815260200160002060010180549050905060008290505b60018262001dba919062002da7565b81101562001f05576000808673ffffffffffffffffffffffffffffffffffffffff1673ffffffffffffffffffffffffffffffffffffffff16815260200190815260200160002060010160018262001e129190620032b2565b8154811062001e265762001e2562002de2565b5b9060005260206000200160009054906101000a900473ffffffffffffffffffffffffffffffffffffffff166000808773ffffffffffffffffffffffffffffffffffffffff1673ffffffffffffffffffffffffffffffffffffffff168152602001908152602001600020600101828154811062001ea75762001ea662002de2565b5b9060005260206000200160006101000a81548173ffffffffffffffffffffffffffffffffffffffff021916908373ffffffffffffffffffffffffffffffffffffffff160217905550808062001efc9062002e11565b91505062001dab565b506000808573ffffffffffffffffffffffffffffffffffffffff1673ffffffffffffffffffffffffffffffffffffffff1681526020019081526020016000206002016000808673ffffffffffffffffffffffffffffffffffffffff1673ffffffffffffffffffffffffffffffffffffffff16815260200190815260200160002060010160016000808873ffffffffffffffffffffffffffffffffffffffff1673ffffffffffffffffffffffffffffffffffffffff1681526020019081526020016000206001018054905062001fdb919062002da7565b8154811062001fef5762001fee62002de2565b5b9060005260206000200160009054906101000a900473ffffffffffffffffffffffffffffffffffffffff169080600181540180825580915050600190039060005260206000200160009091909190916101000a81548173ffffffffffffffffffffffffffffffffffffffff021916908373ffffffffffffffffffffffffffffffffffffffff1602179055506000808573ffffffffffffffffffffffffffffffffffffffff1673ffffffffffffffffffffffffffffffffffffffff168152602001908152602001600020600101805480620020ce57620020cd6200330f565b5b6001900381819060005260206000200160006101000a81549073ffffffffffffffffffffffffffffffffffffffff0219169055905550505050565b600062002117838362002601565b905060008190505b6001600660008673ffffffffffffffffffffffffffffffffffffffff1673ffffffffffffffffffffffffffffffffffffffff1681526020019081526020016000206001018054905062002173919062002da7565b811015620022c057600660008573ffffffffffffffffffffffffffffffffffffffff1673ffffffffffffffffffffffffffffffffffffffff168152602001908152602001600020600101600182620021cc9190620032b2565b81548110620021e057620021df62002de2565b5b9060005260206000200160009054906101000a900473ffffffffffffffffffffffffffffffffffffffff16600660008673ffffffffffffffffffffffffffffffffffffffff1673ffffffffffffffffffffffffffffffffffffffff168152602001908152602001600020600101828154811062002262576200226162002de2565b5b9060005260206000200160006101000a81548173ffffffffffffffffffffffffffffffffffffffff021916908373ffffffffffffffffffffffffffffffffffffffff1602179055508080620022b79062002e11565b9150506200211f565b50600660008473ffffffffffffffffffffffffffffffffffffffff1673ffffffffffffffffffffffffffffffffffffffff168152602001908152602001600020600201600660008573ffffffffffffffffffffffffffffffffffffffff1673ffffffffffffffffffffffffffffffffffffffff1681526020019081526020016000206001016001600660008773ffffffffffffffffffffffffffffffffffffffff1673ffffffffffffffffffffffffffffffffffffffff1681526020019081526020016000206001018054905062002399919062002da7565b81548110620023ad57620023ac62002de2565b5b9060005260206000200160009054906101000a900473ffffffffffffffffffffffffffffffffffffffff169080600181540180825580915050600190039060005260206000200160009091909190916101000a81548173ffffffffffffffffffffffffffffffffffffffff021916908373ffffffffffffffffffffffffffffffffffffffff160217905550600660008473ffffffffffffffffffffffffffffffffffffffff1673ffffffffffffffffffffffffffffffffffffffff1681526020019081526020016000206001018054806200248d576200248c6200330f565b5b6001900381819060005260206000200160006101000a81549073ffffffffffffffffffffffffffffffffffffffff02191690559055505050565b60008060005b60016000808773ffffffffffffffffffffffffffffffffffffffff1673ffffffffffffffffffffffffffffffffffffffff1681526020019081526020016000206001018054905062002520919062002da7565b8111620025f6578373ffffffffffffffffffffffffffffffffffffffff166000808773ffffffffffffffffffffffffffffffffffffffff1673ffffffffffffffffffffffffffffffffffffffff168152602001908152602001600020600101828154811062002594576200259362002de2565b5b9060005260206000200160009054906101000a900473ffffffffffffffffffffffffffffffffffffffff1673ffffffffffffffffffffffffffffffffffffffff161415620025e0578091505b8080620025ed9062002e11565b915050620024cd565b508091505092915050565b60008060005b6001600660008773ffffffffffffffffffffffffffffffffffffffff1673ffffffffffffffffffffffffffffffffffffffff168152602001908152602001600020600101805490506200265b919062002da7565b811162002732578373ffffffffffffffffffffffffffffffffffffffff16600660008773ffffffffffffffffffffffffffffffffffffffff1673ffffffffffffffffffffffffffffffffffffffff1681526020019081526020016000206001018281548110620026d057620026cf62002de2565b5b9060005260206000200160009054906101000a900473ffffffffffffffffffffffffffffffffffffffff1673ffffffffffffffffffffffffffffffffffffffff1614156200271c578091505b8080620027299062002e11565b91505062002607565b508091505092915050565b6108cb806200333f83390190565b61119c8062003c0a83390190565b6000604051905090565b600080fd5b600080fd5b6000819050919050565b62002782816200276d565b81146200278e57600080fd5b50565b600081359050620027a28162002777565b92915050565b60008060408385031215620027c257620027c162002763565b5b6000620027d28582860162002791565b9250506020620027e58582860162002791565b9150509250929050565b600081519050919050565b600082825260208201905092915050565b6000819050602082019050919050565b600073ffffffffffffffffffffffffffffffffffffffff82169050919050565b600062002848826200281b565b9050919050565b6200285a816200283b565b82525050565b60006200286e83836200284f565b60208301905092915050565b6000602082019050919050565b60006200289482620027ef565b620028a08185620027fa565b9350620028ad836200280b565b8060005b83811015620028e4578151620028c8888262002860565b9750620028d5836200287a565b925050600181019050620028b1565b5085935050505092915050565b600060208201905081810360008301526200290d818462002887565b905092915050565b62002920816200283b565b81146200292c57600080fd5b50565b600081359050620029408162002915565b92915050565b6000602082840312156200295f576200295e62002763565b5b60006200296f848285016200292f565b91505092915050565b60006020828403121562002991576200299062002763565b5b6000620029a18482850162002791565b91505092915050565b620029b5816200283b565b82525050565b6000602082019050620029d26000830184620029aa565b92915050565b620029e3816200276d565b82525050565b600060208201905062002a006000830184620029d8565b92915050565b600080fd5b600080fd5b6000601f19601f8301169050919050565b7f4e487b7100000000000000000000000000000000000000000000000000000000600052604160045260246000fd5b62002a5b8262002a10565b810181811067ffffffffffffffff8211171562002a7d5762002a7c62002a21565b5b80604052505050565b600062002a9262002759565b905062002aa0828262002a50565b919050565b600067ffffffffffffffff82111562002ac35762002ac262002a21565b5b62002ace8262002a10565b9050602081019050919050565b82818337600083830152505050565b600062002b0162002afb8462002aa5565b62002a86565b90508281526020810184848401111562002b205762002b1f62002a0b565b5b62002b2d84828562002adb565b509392505050565b600082601f83011262002b4d5762002b4c62002a06565b5b813562002b5f84826020860162002aea565b91505092915050565b600062002b75826200281b565b9050919050565b62002b878162002b68565b811462002b9357600080fd5b50565b60008135905062002ba78162002b7c565b92915050565b6000806000806080858703121562002bca5762002bc962002763565b5b600062002bda878288016200292f565b945050602085013567ffffffffffffffff81111562002bfe5762002bfd62002768565b5b62002c0c8782880162002b35565b935050604085013567ffffffffffffffff81111562002c305762002c2f62002768565b5b62002c3e8782880162002b35565b925050606062002c518782880162002b96565b91505092959194509250565b600082825260208201905092915050565b7f537461727420696e6465782063616e6e6f74206265206e656761746976650000600082015250565b600062002ca6601e8362002c5d565b915062002cb38262002c6e565b602082019050919050565b6000602082019050818103600083015262002cd98162002c97565b9050919050565b7f456e6420696e646578206578636565647320757365722061646472657373657360008201527f206c656e67746800000000000000000000000000000000000000000000000000602082015250565b600062002d3e60278362002c5d565b915062002d4b8262002ce0565b604082019050919050565b6000602082019050818103600083015262002d718162002d2f565b9050919050565b7f4e487b7100000000000000000000000000000000000000000000000000000000600052601160045260246000fd5b600062002db4826200276d565b915062002dc1836200276d565b92508282101562002dd75762002dd662002d78565b5b828203905092915050565b7f4e487b7100000000000000000000000000000000000000000000000000000000600052603260045260246000fd5b600062002e1e826200276d565b91507fffffffffffffffffffffffffffffffffffffffffffffffffffffffffffffffff82141562002e545762002e5362002d78565b5b600182019050919050565b60008151905062002e708162002915565b92915050565b60006020828403121562002e8f5762002e8e62002763565b5b600062002e9f8482850162002e5f565b91505092915050565b7f4f6e6c7920636f6e747261637420726566657265652063616e20617070726f7660008201527f65207265717565737420666f7220636f6d706c6574696f6e0000000000000000602082015250565b600062002f0660388362002c5d565b915062002f138262002ea8565b604082019050919050565b6000602082019050818103600083015262002f398162002ef7565b9050919050565b600062002f4d826200283b565b9050919050565b62002f5f8162002f40565b811462002f6b57600080fd5b50565b60008151905062002f7f8162002f54565b92915050565b60006020828403121562002f9e5762002f9d62002763565b5b600062002fae8482850162002f6e565b91505092915050565b7f4e487b7100000000000000000000000000000000000000000000000000000000600052602160045260246000fd5b6003811062002ff457600080fd5b50565b600081519050620030088162002fe6565b92915050565b60006020828403121562003027576200302662002763565b5b6000620030378482850162002ff7565b91505092915050565b7f436f6e747261637420737461747573206d757374206265206f70656e00000000600082015250565b600062003078601c8362002c5d565b9150620030858262003040565b602082019050919050565b60006020820190508181036000830152620030ab8162003069565b9050919050565b7f4f6e6c792063726561746f72206f6620636f6e74726163742063616e2072657160008201527f7565737420636f6d706c6574696f6e0000000000000000000000000000000000602082015250565b600062003110602f8362002c5d565b91506200311d82620030b2565b604082019050919050565b60006020820190508181036000830152620031438162003101565b9050919050565b600081519050919050565b60005b838110156200317557808201518184015260208101905062003158565b8381111562003185576000848401525b50505050565b600062003198826200314a565b620031a4818562002c5d565b9350620031b681856020860162003155565b620031c18162002a10565b840191505092915050565b6000819050919050565b6000620031f7620031f1620031eb846200281b565b620031cc565b6200281b565b9050919050565b60006200320b82620031d6565b9050919050565b60006200321f82620031fe565b9050919050565b620032318162003212565b82525050565b600060c0820190506200324e6000830189620029aa565b6200325d6020830188620029aa565b81810360408301526200327181876200318b565b905081810360608301526200328781866200318b565b905062003298608083018562003226565b620032a760a0830184620029d8565b979650505050505050565b6000620032bf826200276d565b9150620032cc836200276d565b9250827fffffffffffffffffffffffffffffffffffffffffffffffffffffffffffffffff0382111562003304576200330362002d78565b5b828201905092915050565b7f4e487b7100000000000000000000000000000000000000000000000000000000600052603160045260246000fdfe608060405234801561001057600080fd5b506040516108cb3803806108cb8339818101604052810190610032919061026a565b60008190508073ffffffffffffffffffffffffffffffffffffffff166302d05d3f6040518163ffffffff1660e01b8152600401602060405180830381865afa158015610082573d6000803e3d6000fd5b505050506040513d601f19601f820116820180604052508101906100a6919061026a565b6000806101000a81548173ffffffffffffffffffffffffffffffffffffffff021916908373ffffffffffffffffffffffffffffffffffffffff1602179055508073ffffffffffffffffffffffffffffffffffffffff16633b1bebd16040518163ffffffff1660e01b8152600401602060405180830381865afa158015610130573d6000803e3d6000fd5b505050506040513d601f19601f82011682018060405250810190610154919061026a565b600160006101000a81548173ffffffffffffffffffffffffffffffffffffffff021916908373ffffffffffffffffffffffffffffffffffffffff16021790555081600260006101000a81548173ffffffffffffffffffffffffffffffffffffffff021916908373ffffffffffffffffffffffffffffffffffffffff1602179055506000600260146101000a81548160ff021916908360028111156101fb576101fa610297565b5b021790555050506102c6565b600080fd5b600073ffffffffffffffffffffffffffffffffffffffff82169050919050565b60006102378261020c565b9050919050565b6102478161022c565b811461025257600080fd5b50565b6000815190506102648161023e565b92915050565b6000602082840312156102805761027f610207565b5b600061028e84828501610255565b91505092915050565b7f4e487b7100000000000000000000000000000000000000000000000000000000600052602160045260246000fd5b6105f6806102d56000396000f3fe608060405234801561001057600080fd5b50600436106100625760003560e01c806302d05d3f14610067578063200d2ed214610085578063263b81c9146100a35780633b1bebd1146100c15780633c490174146100df578063a4a44a22146100fd575b600080fd5b61006f61011b565b60405161007c9190610364565b60405180910390f35b61008d61013f565b60405161009a91906103f6565b60405180910390f35b6100ab610152565b6040516100b89190610470565b60405180910390f35b6100c9610215565b6040516100d69190610364565b60405180910390f35b6100e761023b565b6040516100f49190610364565b60405180910390f35b610105610261565b6040516101129190610470565b60405180910390f35b60008054906101000a900473ffffffffffffffffffffffffffffffffffffffff1681565b600260149054906101000a900460ff1681565b6000600160009054906101000a900473ffffffffffffffffffffffffffffffffffffffff1673ffffffffffffffffffffffffffffffffffffffff163273ffffffffffffffffffffffffffffffffffffffff16146101e4576040517f08c379a00000000000000000000000000000000000000000000000000000000081526004016101db9061050e565b60405180910390fd5b6001600260146101000a81548160ff0219169083600281111561020a5761020961037f565b5b021790555030905090565b600160009054906101000a900473ffffffffffffffffffffffffffffffffffffffff1681565b600260009054906101000a900473ffffffffffffffffffffffffffffffffffffffff1681565b6000600160009054906101000a900473ffffffffffffffffffffffffffffffffffffffff1673ffffffffffffffffffffffffffffffffffffffff163273ffffffffffffffffffffffffffffffffffffffff16146102f3576040517f08c379a00000000000000000000000000000000000000000000000000000000081526004016102ea906105a0565b60405180910390fd5b60028060146101000a81548160ff021916908360028111156103185761031761037f565b5b021790555030905090565b600073ffffffffffffffffffffffffffffffffffffffff82169050919050565b600061034e82610323565b9050919050565b61035e81610343565b82525050565b60006020820190506103796000830184610355565b92915050565b7f4e487b7100000000000000000000000000000000000000000000000000000000600052602160045260246000fd5b600381106103bf576103be61037f565b5b50565b60008190506103d0826103ae565b919050565b60006103e0826103c2565b9050919050565b6103f0816103d5565b82525050565b600060208201905061040b60008301846103e7565b92915050565b6000819050919050565b600061043661043161042c84610323565b610411565b610323565b9050919050565b60006104488261041b565b9050919050565b600061045a8261043d565b9050919050565b61046a8161044f565b82525050565b60006020820190506104856000830184610461565b92915050565b600082825260208201905092915050565b7f4f6e6c7920726566657265652063616e20617070726f766520617070726f766160008201527f6c20726571756573740000000000000000000000000000000000000000000000602082015250565b60006104f860298361048b565b91506105038261049c565b604082019050919050565b60006020820190508181036000830152610527816104eb565b9050919050565b7f4f6e6c7920726566657265652063616e2064656e7920617070726f76616c207260008201527f6571756573740000000000000000000000000000000000000000000000000000602082015250565b600061058a60268361048b565b91506105958261052e565b604082019050919050565b600060208201905081810360008301526105b98161057d565b905091905056fea26469706673582212201b69bc1632425cc4ee58e5a15f4d5e389c3b1836eb6041da14f2dfa1c461666764736f6c634300080c003360806040526040516200119c3803806200119c83398181016040528101906200002991906200044b565b856000806101000a81548173ffffffffffffffffffffffffffffffffffffffff021916908373ffffffffffffffffffffffffffffffffffffffff16021790555084600160006101000a81548173ffffffffffffffffffffffffffffffffffffffff021916908373ffffffffffffffffffffffffffffffffffffffff1602179055508360029080519060200190620000c29291906200015e565b508260039080519060200190620000db9291906200015e565b5081600460006101000a81548173ffffffffffffffffffffffffffffffffffffffff021916908373ffffffffffffffffffffffffffffffffffffffff160217905550806005819055506000600660006101000a81548160ff021916908360028111156200014d576200014c62000525565b5b0217905550505050505050620005b9565b8280546200016c9062000583565b90600052602060002090601f016020900481019282620001905760008555620001dc565b82601f10620001ab57805160ff1916838001178555620001dc565b82800160010185558215620001dc579182015b82811115620001db578251825591602001919060010190620001be565b5b509050620001eb9190620001ef565b5090565b5b808211156200020a576000816000905550600101620001f0565b5090565b6000604051905090565b600080fd5b600080fd5b600073ffffffffffffffffffffffffffffffffffffffff82169050919050565b60006200024f8262000222565b9050919050565b620002618162000242565b81146200026d57600080fd5b50565b600081519050620002818162000256565b92915050565b600080fd5b600080fd5b6000601f19601f8301169050919050565b7f4e487b7100000000000000000000000000000000000000000000000000000000600052604160045260246000fd5b620002dc8262000291565b810181811067ffffffffffffffff82111715620002fe57620002fd620002a2565b5b80604052505050565b6000620003136200020e565b9050620003218282620002d1565b919050565b600067ffffffffffffffff821115620003445762000343620002a2565b5b6200034f8262000291565b9050602081019050919050565b60005b838110156200037c5780820151818401526020810190506200035f565b838111156200038c576000848401525b50505050565b6000620003a9620003a38462000326565b62000307565b905082815260208101848484011115620003c857620003c76200028c565b5b620003d58482856200035c565b509392505050565b600082601f830112620003f557620003f462000287565b5b81516200040784826020860162000392565b91505092915050565b6000819050919050565b620004258162000410565b81146200043157600080fd5b50565b60008151905062000445816200041a565b92915050565b60008060008060008060c087890312156200046b576200046a62000218565b5b60006200047b89828a0162000270565b96505060206200048e89828a0162000270565b955050604087015167ffffffffffffffff811115620004b257620004b16200021d565b5b620004c089828a01620003dd565b945050606087015167ffffffffffffffff811115620004e457620004e36200021d565b5b620004f289828a01620003dd565b93505060806200050589828a0162000270565b92505060a06200051889828a0162000434565b9150509295509295509295565b7f4e487b7100000000000000000000000000000000000000000000000000000000600052602160045260246000fd5b7f4e487b7100000000000000000000000000000000000000000000000000000000600052602260045260246000fd5b600060028204905060018216806200059c57607f821691505b60208210811415620005b357620005b262000554565b5b50919050565b610bd380620005c96000396000f3fe6080604052600436106100865760003560e01c80633b1bebd1116100595780633b1bebd11461012a5780634177fe51146101555780637284e41614610180578063aa8c217c146101ab578063b4fedc11146101d657610086565b806302d05d3f1461008b57806306fdde03146100b6578063200d2ed2146100e15780632d398fa61461010c575b600080fd5b34801561009757600080fd5b506100a06101f4565b6040516100ad9190610770565b60405180910390f35b3480156100c257600080fd5b506100cb610218565b6040516100d89190610824565b60405180910390f35b3480156100ed57600080fd5b506100f66102a6565b60405161010391906108bd565b60405180910390f35b6101146102b9565b6040516101219190610937565b60405180910390f35b34801561013657600080fd5b5061013f6104b0565b60405161014c9190610770565b60405180910390f35b34801561016157600080fd5b5061016a6104d6565b6040516101779190610770565b60405180910390f35b34801561018c57600080fd5b506101956104fc565b6040516101a29190610824565b60405180910390f35b3480156101b757600080fd5b506101c061058a565b6040516101cd919061096b565b60405180910390f35b6101de610590565b6040516101eb9190610937565b60405180910390f35b60008054906101000a900473ffffffffffffffffffffffffffffffffffffffff1681565b60028054610225906109b5565b80601f0160208091040260200160405190810160405280929190818152602001828054610251906109b5565b801561029e5780601f106102735761010080835404028352916020019161029e565b820191906000526020600020905b81548152906001019060200180831161028157829003601f168201915b505050505081565b600660009054906101000a900460ff1681565b60008060028111156102ce576102cd610846565b5b600660009054906101000a900460ff1660028111156102f0576102ef610846565b5b14610330576040517f08c379a000000000000000000000000000000000000000000000000000000000815260040161032790610a59565b60405180910390fd5b600160009054906101000a900473ffffffffffffffffffffffffffffffffffffffff1673ffffffffffffffffffffffffffffffffffffffff163273ffffffffffffffffffffffffffffffffffffffff1614806103d7575060008054906101000a900473ffffffffffffffffffffffffffffffffffffffff1673ffffffffffffffffffffffffffffffffffffffff163273ffffffffffffffffffffffffffffffffffffffff16145b610416576040517f08c379a000000000000000000000000000000000000000000000000000000000815260040161040d90610aeb565b60405180910390fd5b600460009054906101000a900473ffffffffffffffffffffffffffffffffffffffff1673ffffffffffffffffffffffffffffffffffffffff166108fc479081150290604051600060405180830381858888f1935050505015801561047e573d6000803e3d6000fd5b506002600660006101000a81548160ff021916908360028111156104a5576104a4610846565b5b021790555030905090565b600160009054906101000a900473ffffffffffffffffffffffffffffffffffffffff1681565b600460009054906101000a900473ffffffffffffffffffffffffffffffffffffffff1681565b60038054610509906109b5565b80601f0160208091040260200160405190810160405280929190818152602001828054610535906109b5565b80156105825780601f1061055757610100808354040283529160200191610582565b820191906000526020600020905b81548152906001019060200180831161056557829003601f168201915b505050505081565b60055481565b60008060028111156105a5576105a4610846565b5b600660009054906101000a900460ff1660028111156105c7576105c6610846565b5b14610607576040517f08c379a00000000000000000000000000000000000000000000000000000000081526004016105fe90610a59565b60405180910390fd5b600160009054906101000a900473ffffffffffffffffffffffffffffffffffffffff1673ffffffffffffffffffffffffffffffffffffffff163273ffffffffffffffffffffffffffffffffffffffff1614610697576040517f08c379a000000000000000000000000000000000000000000000000000000000815260040161068e90610b7d565b60405180910390fd5b60008054906101000a900473ffffffffffffffffffffffffffffffffffffffff1673ffffffffffffffffffffffffffffffffffffffff166108fc479081150290604051600060405180830381858888f193505050501580156106fd573d6000803e3d6000fd5b506001600660006101000a81548160ff0219169083600281111561072457610723610846565b5b021790555030905090565b600073ffffffffffffffffffffffffffffffffffffffff82169050919050565b600061075a8261072f565b9050919050565b61076a8161074f565b82525050565b60006020820190506107856000830184610761565b92915050565b600081519050919050565b600082825260208201905092915050565b60005b838110156107c55780820151818401526020810190506107aa565b838111156107d4576000848401525b50505050565b6000601f19601f8301169050919050565b60006107f68261078b565b6108008185610796565b93506108108185602086016107a7565b610819816107da565b840191505092915050565b6000602082019050818103600083015261083e81846107eb565b905092915050565b7f4e487b7100000000000000000000000000000000000000000000000000000000600052602160045260246000fd5b6003811061088657610885610846565b5b50565b600081905061089782610875565b919050565b60006108a782610889565b9050919050565b6108b78161089c565b82525050565b60006020820190506108d260008301846108ae565b92915050565b6000819050919050565b60006108fd6108f86108f38461072f565b6108d8565b61072f565b9050919050565b600061090f826108e2565b9050919050565b600061092182610904565b9050919050565b61093181610916565b82525050565b600060208201905061094c6000830184610928565b92915050565b6000819050919050565b61096581610952565b82525050565b6000602082019050610980600083018461095c565b92915050565b7f4e487b7100000000000000000000000000000000000000000000000000000000600052602260045260246000fd5b600060028204905060018216806109cd57607f821691505b602082108114156109e1576109e0610986565b5b50919050565b7f436f6e747261637420737461747573206973206e6f7420657175616c20746f2060008201527f6f70656e00000000000000000000000000000000000000000000000000000000602082015250565b6000610a43602483610796565b9150610a4e826109e7565b604082019050919050565b60006020820190508181036000830152610a7281610a36565b9050919050565b7f4f6e6c792072656665726565206f722063726561746f722063616e206661696c60008201527f20636f6e74726163740000000000000000000000000000000000000000000000602082015250565b6000610ad5602983610796565b9150610ae082610a79565b604082019050919050565b60006020820190508181036000830152610b0481610ac8565b9050919050565b7f4f6e6c7920726566657265652063616e20636f6d706c657465206120636f6e7460008201527f7261637400000000000000000000000000000000000000000000000000000000602082015250565b6000610b67602483610796565b9150610b7282610b0b565b604082019050919050565b60006020820190508181036000830152610b9681610b5a565b905091905056fea2646970667358221220637f58734fc63ce22b4a8b6e882d1b3e8dacd1b17e6302de86ef67ade3b6c1e664736f6c634300080c0033a2646970667358221220e3e552b7e5fd32be79b355b214c0702d51ff519b2c697e303d3cab2c41e428cc64736f6c634300080c0033","opcodes":"PUSH1 0x80 PUSH1 0x40 MSTORE CALLVALUE DUP1 ISZERO PUSH2 0x10 JUMPI PUSH1 0x0 DUP1 REVERT JUMPDEST POP PUSH2 0x4DDB DUP1 PUSH2 0x20 PUSH1 0x0 CODECOPY PUSH1 0x0 RETURN INVALID PUSH1 0x80 PUSH1 0x40 MSTORE PUSH1 0x4 CALLDATASIZE LT PUSH3 0x146 JUMPI PUSH1 0x0 CALLDATALOAD PUSH1 0xE0 SHR DUP1 PUSH4 0x61542C44 GT PUSH3 0xBB JUMPI DUP1 PUSH4 0xA87430BA GT PUSH3 0x79 JUMPI DUP1 PUSH4 0xA87430BA EQ PUSH3 0x4C7 JUMPI DUP1 PUSH4 0xA908F4FA EQ PUSH3 0x50B JUMPI DUP1 PUSH4 0xB24E67D0 EQ PUSH3 0x54F JUMPI DUP1 PUSH4 0xB3B6633E EQ PUSH3 0x593 JUMPI DUP1 PUSH4 0xDC0E0C13 EQ PUSH3 0x5C3 JUMPI DUP1 PUSH4 0xE436E826 EQ PUSH3 0x5F3 JUMPI PUSH3 0x146 JUMP JUMPDEST DUP1 PUSH4 0x61542C44 EQ PUSH3 0x3B3 JUMPI DUP1 PUSH4 0x64A60B47 EQ PUSH3 0x3E1 JUMPI DUP1 PUSH4 0x75CE46A7 EQ PUSH3 0x425 JUMPI DUP1 PUSH4 0x7AABE058 EQ PUSH3 0x455 JUMPI DUP1 PUSH4 0x9051E234 EQ PUSH3 0x483 JUMPI PUSH3 0x146 JUMP JUMPDEST DUP1 PUSH4 0x442A7BC7 GT PUSH3 0x109 JUMPI DUP1 PUSH4 0x442A7BC7 EQ PUSH3 0x289 JUMPI DUP1 PUSH4 0x4841A885 EQ PUSH3 0x2CD JUMPI DUP1 PUSH4 0x4EA34671 EQ PUSH3 0x2FD JUMPI DUP1 PUSH4 0x502C9BD5 EQ PUSH3 0x341 JUMPI DUP1 PUSH4 0x5B259ABF EQ PUSH3 0x385 JUMPI PUSH3 0x146 JUMP JUMPDEST DUP1 PUSH4 0xE865751 EQ PUSH3 0x14B JUMPI DUP1 PUSH4 0x19EE8BD4 EQ PUSH3 0x18F JUMPI DUP1 PUSH4 0x20D08884 EQ PUSH3 0x1D3 JUMPI DUP1 PUSH4 0x38DB44BC EQ PUSH3 0x201 JUMPI DUP1 PUSH4 0x38FB42FD EQ PUSH3 0x245 JUMPI JUMPDEST PUSH1 0x0 DUP1 REVERT JUMPDEST CALLVALUE DUP1 ISZERO PUSH3 0x158 JUMPI PUSH1 0x0 DUP1 REVERT JUMPDEST POP PUSH3 0x177 PUSH1 0x4 DUP1 CALLDATASIZE SUB DUP2 ADD SWAP1 PUSH3 0x171 SWAP2 SWAP1 PUSH3 0x27A8 JUMP JUMPDEST PUSH3 0x613 JUMP JUMPDEST PUSH1 0x40 MLOAD PUSH3 0x186 SWAP2 SWAP1 PUSH3 0x28F1 JUMP JUMPDEST PUSH1 0x40 MLOAD DUP1 SWAP2 SUB SWAP1 RETURN JUMPDEST CALLVALUE DUP1 ISZERO PUSH3 0x19C JUMPI PUSH1 0x0 DUP1 REVERT JUMPDEST POP PUSH3 0x1BB PUSH1 0x4 DUP1 CALLDATASIZE SUB DUP2 ADD SWAP1 PUSH3 0x1B5 SWAP2 SWAP1 PUSH3 0x2946 JUMP JUMPDEST PUSH3 0x7C7 JUMP JUMPDEST PUSH1 0x40 MLOAD PUSH3 0x1CA SWAP2 SWAP1 PUSH3 0x28F1 JUMP JUMPDEST PUSH1 0x40 MLOAD DUP1 SWAP2 SUB SWAP1 RETURN JUMPDEST CALLVALUE DUP1 ISZERO PUSH3 0x1E0 JUMPI PUSH1 0x0 DUP1 REVERT JUMPDEST POP PUSH3 0x1FF PUSH1 0x4 DUP1 CALLDATASIZE SUB DUP2 ADD SWAP1 PUSH3 0x1F9 SWAP2 SWAP1 PUSH3 0x2946 JUMP JUMPDEST PUSH3 0x899 JUMP JUMPDEST STOP JUMPDEST CALLVALUE DUP1 ISZERO PUSH3 0x20E JUMPI PUSH1 0x0 DUP1 REVERT JUMPDEST POP PUSH3 0x22D PUSH1 0x4 DUP1 CALLDATASIZE SUB DUP2 ADD SWAP1 PUSH3 0x227 SWAP2 SWAP1 PUSH3 0x2978 JUMP JUMPDEST PUSH3 0xCBD JUMP JUMPDEST PUSH1 0x40 MLOAD PUSH3 0x23C SWAP2 SWAP1 PUSH3 0x29BB JUMP JUMPDEST PUSH1 0x40 MLOAD DUP1 SWAP2 SUB SWAP1 RETURN JUMPDEST CALLVALUE DUP1 ISZERO PUSH3 0x252 JUMPI PUSH1 0x0 DUP1 REVERT JUMPDEST POP PUSH3 0x271 PUSH1 0x4 DUP1 CALLDATASIZE SUB DUP2 ADD SWAP1 PUSH3 0x26B SWAP2 SWAP1 PUSH3 0x2978 JUMP JUMPDEST PUSH3 0xCFD JUMP JUMPDEST PUSH1 0x40 MLOAD PUSH3 0x280 SWAP2 SWAP1 PUSH3 0x29BB JUMP JUMPDEST PUSH1 0x40 MLOAD DUP1 SWAP2 SUB SWAP1 RETURN JUMPDEST CALLVALUE DUP1 ISZERO PUSH3 0x296 JUMPI PUSH1 0x0 DUP1 REVERT JUMPDEST POP PUSH3 0x2B5 PUSH1 0x4 DUP1 CALLDATASIZE SUB DUP2 ADD SWAP1 PUSH3 0x2AF SWAP2 SWAP1 PUSH3 0x2946 JUMP JUMPDEST PUSH3 0xD3D JUMP JUMPDEST PUSH1 0x40 MLOAD PUSH3 0x2C4 SWAP2 SWAP1 PUSH3 0x28F1 JUMP JUMPDEST PUSH1 0x40 MLOAD DUP1 SWAP2 SUB SWAP1 RETURN JUMPDEST CALLVALUE DUP1 ISZERO PUSH3 0x2DA JUMPI PUSH1 0x0 DUP1 REVERT JUMPDEST POP PUSH3 0x2E5 PUSH3 0xE0E JUMP JUMPDEST PUSH1 0x40 MLOAD PUSH3 0x2F4 SWAP2 SWAP1 PUSH3 0x29E9 JUMP JUMPDEST PUSH1 0x40 MLOAD DUP1 SWAP2 SUB SWAP1 RETURN JUMPDEST CALLVALUE DUP1 ISZERO PUSH3 0x30A JUMPI PUSH1 0x0 DUP1 REVERT JUMPDEST POP PUSH3 0x329 PUSH1 0x4 DUP1 CALLDATASIZE SUB DUP2 ADD SWAP1 PUSH3 0x323 SWAP2 SWAP1 PUSH3 0x2946 JUMP JUMPDEST PUSH3 0xE14 JUMP JUMPDEST PUSH1 0x40 MLOAD PUSH3 0x338 SWAP2 SWAP1 PUSH3 0x28F1 JUMP JUMPDEST PUSH1 0x40 MLOAD DUP1 SWAP2 SUB SWAP1 RETURN JUMPDEST CALLVALUE DUP1 ISZERO PUSH3 0x34E JUMPI PUSH1 0x0 DUP1 REVERT JUMPDEST POP PUSH3 0x36D PUSH1 0x4 DUP1 CALLDATASIZE SUB DUP2 ADD SWAP1 PUSH3 0x367 SWAP2 SWAP1 PUSH3 0x2978 JUMP JUMPDEST PUSH3 0xEE6 JUMP JUMPDEST PUSH1 0x40 MLOAD PUSH3 0x37C SWAP2 SWAP1 PUSH3 0x29BB JUMP JUMPDEST PUSH1 0x40 MLOAD DUP1 SWAP2 SUB SWAP1 RETURN JUMPDEST CALLVALUE DUP1 ISZERO PUSH3 0x392 JUMPI PUSH1 0x0 DUP1 REVERT JUMPDEST POP PUSH3 0x3B1 PUSH1 0x4 DUP1 CALLDATASIZE SUB DUP2 ADD SWAP1 PUSH3 0x3AB SWAP2 SWAP1 PUSH3 0x2946 JUMP JUMPDEST PUSH3 0xF26 JUMP JUMPDEST STOP JUMPDEST CALLVALUE DUP1 ISZERO PUSH3 0x3C0 JUMPI PUSH1 0x0 DUP1 REVERT JUMPDEST POP PUSH3 0x3DF PUSH1 0x4 DUP1 CALLDATASIZE SUB DUP2 ADD SWAP1 PUSH3 0x3D9 SWAP2 SWAP1 PUSH3 0x2946 JUMP JUMPDEST PUSH3 0x109E JUMP JUMPDEST STOP JUMPDEST CALLVALUE DUP1 ISZERO PUSH3 0x3EE JUMPI PUSH1 0x0 DUP1 REVERT JUMPDEST POP PUSH3 0x40D PUSH1 0x4 DUP1 CALLDATASIZE SUB DUP2 ADD SWAP1 PUSH3 0x407 SWAP2 SWAP1 PUSH3 0x2946 JUMP JUMPDEST PUSH3 0x1216 JUMP JUMPDEST PUSH1 0x40 MLOAD PUSH3 0x41C SWAP2 SWAP1 PUSH3 0x29E9 JUMP JUMPDEST PUSH1 0x40 MLOAD DUP1 SWAP2 SUB SWAP1 RETURN JUMPDEST CALLVALUE DUP1 ISZERO PUSH3 0x432 JUMPI PUSH1 0x0 DUP1 REVERT JUMPDEST POP PUSH3 0x43D PUSH3 0x1234 JUMP JUMPDEST PUSH1 0x40 MLOAD PUSH3 0x44C SWAP2 SWAP1 PUSH3 0x29E9 JUMP JUMPDEST PUSH1 0x40 MLOAD DUP1 SWAP2 SUB SWAP1 RETURN JUMPDEST CALLVALUE DUP1 ISZERO PUSH3 0x462 JUMPI PUSH1 0x0 DUP1 REVERT JUMPDEST POP PUSH3 0x481 PUSH1 0x4 DUP1 CALLDATASIZE SUB DUP2 ADD SWAP1 PUSH3 0x47B SWAP2 SWAP1 PUSH3 0x2946 JUMP JUMPDEST PUSH3 0x123A JUMP JUMPDEST STOP JUMPDEST CALLVALUE DUP1 ISZERO PUSH3 0x490 JUMPI PUSH1 0x0 DUP1 REVERT JUMPDEST POP PUSH3 0x4AF PUSH1 0x4 DUP1 CALLDATASIZE SUB DUP2 ADD SWAP1 PUSH3 0x4A9 SWAP2 SWAP1 PUSH3 0x2946 JUMP JUMPDEST PUSH3 0x1558 JUMP JUMPDEST PUSH1 0x40 MLOAD PUSH3 0x4BE SWAP2 SWAP1 PUSH3 0x28F1 JUMP JUMPDEST PUSH1 0x40 MLOAD DUP1 SWAP2 SUB SWAP1 RETURN JUMPDEST CALLVALUE DUP1 ISZERO PUSH3 0x4D4 JUMPI PUSH1 0x0 DUP1 REVERT JUMPDEST POP PUSH3 0x4F3 PUSH1 0x4 DUP1 CALLDATASIZE SUB DUP2 ADD SWAP1 PUSH3 0x4ED SWAP2 SWAP1 PUSH3 0x2946 JUMP JUMPDEST PUSH3 0x162A JUMP JUMPDEST PUSH1 0x40 MLOAD PUSH3 0x502 SWAP2 SWAP1 PUSH3 0x29E9 JUMP JUMPDEST PUSH1 0x40 MLOAD DUP1 SWAP2 SUB SWAP1 RETURN JUMPDEST CALLVALUE DUP1 ISZERO PUSH3 0x518 JUMPI PUSH1 0x0 DUP1 REVERT JUMPDEST POP PUSH3 0x537 PUSH1 0x4 DUP1 CALLDATASIZE SUB DUP2 ADD SWAP1 PUSH3 0x531 SWAP2 SWAP1 PUSH3 0x27A8 JUMP JUMPDEST PUSH3 0x1648 JUMP JUMPDEST PUSH1 0x40 MLOAD PUSH3 0x546 SWAP2 SWAP1 PUSH3 0x28F1 JUMP JUMPDEST PUSH1 0x40 MLOAD DUP1 SWAP2 SUB SWAP1 RETURN JUMPDEST CALLVALUE DUP1 ISZERO PUSH3 0x55C JUMPI PUSH1 0x0 DUP1 REVERT JUMPDEST POP PUSH3 0x57B PUSH1 0x4 DUP1 CALLDATASIZE SUB DUP2 ADD SWAP1 PUSH3 0x575 SWAP2 SWAP1 PUSH3 0x2946 JUMP JUMPDEST PUSH3 0x17FC JUMP JUMPDEST PUSH1 0x40 MLOAD PUSH3 0x58A SWAP2 SWAP1 PUSH3 0x28F1 JUMP JUMPDEST PUSH1 0x40 MLOAD DUP1 SWAP2 SUB SWAP1 RETURN JUMPDEST CALLVALUE DUP1 ISZERO PUSH3 0x5A0 JUMPI PUSH1 0x0 DUP1 REVERT JUMPDEST POP PUSH3 0x5AB PUSH3 0x18CD JUMP JUMPDEST PUSH1 0x40 MLOAD PUSH3 0x5BA SWAP2 SWAP1 PUSH3 0x29E9 JUMP JUMPDEST PUSH1 0x40 MLOAD DUP1 SWAP2 SUB SWAP1 RETURN JUMPDEST CALLVALUE DUP1 ISZERO PUSH3 0x5D0 JUMPI PUSH1 0x0 DUP1 REVERT JUMPDEST POP PUSH3 0x5DB PUSH3 0x18D3 JUMP JUMPDEST PUSH1 0x40 MLOAD PUSH3 0x5EA SWAP2 SWAP1 PUSH3 0x29E9 JUMP JUMPDEST PUSH1 0x40 MLOAD DUP1 SWAP2 SUB SWAP1 RETURN JUMPDEST PUSH3 0x611 PUSH1 0x4 DUP1 CALLDATASIZE SUB DUP2 ADD SWAP1 PUSH3 0x60B SWAP2 SWAP1 PUSH3 0x2BAD JUMP JUMPDEST PUSH3 0x18D9 JUMP JUMPDEST STOP JUMPDEST PUSH1 0x60 PUSH1 0x0 DUP4 LT ISZERO PUSH3 0x65C JUMPI PUSH1 0x40 MLOAD PUSH32 0x8C379A000000000000000000000000000000000000000000000000000000000 DUP2 MSTORE PUSH1 0x4 ADD PUSH3 0x653 SWAP1 PUSH3 0x2CBE JUMP JUMPDEST PUSH1 0x40 MLOAD DUP1 SWAP2 SUB SWAP1 REVERT JUMPDEST PUSH1 0x3 DUP1 SLOAD SWAP1 POP DUP3 GT ISZERO PUSH3 0x6A7 JUMPI PUSH1 0x40 MLOAD PUSH32 0x8C379A000000000000000000000000000000000000000000000000000000000 DUP2 MSTORE PUSH1 0x4 ADD PUSH3 0x69E SWAP1 PUSH3 0x2D56 JUMP JUMPDEST PUSH1 0x40 MLOAD DUP1 SWAP2 SUB SWAP1 REVERT JUMPDEST PUSH1 0x0 DUP4 DUP4 PUSH3 0x6B7 SWAP2 SWAP1 PUSH3 0x2DA7 JUMP JUMPDEST PUSH8 0xFFFFFFFFFFFFFFFF DUP2 GT ISZERO PUSH3 0x6D3 JUMPI PUSH3 0x6D2 PUSH3 0x2A21 JUMP JUMPDEST JUMPDEST PUSH1 0x40 MLOAD SWAP1 DUP1 DUP3 MSTORE DUP1 PUSH1 0x20 MUL PUSH1 0x20 ADD DUP3 ADD PUSH1 0x40 MSTORE DUP1 ISZERO PUSH3 0x702 JUMPI DUP2 PUSH1 0x20 ADD PUSH1 0x20 DUP3 MUL DUP1 CALLDATASIZE DUP4 CALLDATACOPY DUP1 DUP3 ADD SWAP2 POP POP SWAP1 POP JUMPDEST POP SWAP1 POP PUSH1 0x0 DUP5 SWAP1 POP JUMPDEST DUP4 DUP2 LT ISZERO PUSH3 0x7BC JUMPI PUSH1 0x3 DUP2 DUP2 SLOAD DUP2 LT PUSH3 0x72B JUMPI PUSH3 0x72A PUSH3 0x2DE2 JUMP JUMPDEST JUMPDEST SWAP1 PUSH1 0x0 MSTORE PUSH1 0x20 PUSH1 0x0 KECCAK256 ADD PUSH1 0x0 SWAP1 SLOAD SWAP1 PUSH2 0x100 EXP SWAP1 DIV PUSH20 0xFFFFFFFFFFFFFFFFFFFFFFFFFFFFFFFFFFFFFFFF AND DUP3 DUP3 DUP2 MLOAD DUP2 LT PUSH3 0x76C JUMPI PUSH3 0x76B PUSH3 0x2DE2 JUMP JUMPDEST JUMPDEST PUSH1 0x20 MUL PUSH1 0x20 ADD ADD SWAP1 PUSH20 0xFFFFFFFFFFFFFFFFFFFFFFFFFFFFFFFFFFFFFFFF AND SWAP1 DUP2 PUSH20 0xFFFFFFFFFFFFFFFFFFFFFFFFFFFFFFFFFFFFFFFF AND DUP2 MSTORE POP POP DUP1 DUP1 PUSH3 0x7B3 SWAP1 PUSH3 0x2E11 JUMP JUMPDEST SWAP2 POP POP PUSH3 0x70B JUMP JUMPDEST POP DUP1 SWAP2 POP POP SWAP3 SWAP2 POP POP JUMP JUMPDEST PUSH1 0x60 PUSH1 0x6 PUSH1 0x0 DUP4 PUSH20 0xFFFFFFFFFFFFFFFFFFFFFFFFFFFFFFFFFFFFFFFF AND PUSH20 0xFFFFFFFFFFFFFFFFFFFFFFFFFFFFFFFFFFFFFFFF AND DUP2 MSTORE PUSH1 0x20 ADD SWAP1 DUP2 MSTORE PUSH1 0x20 ADD PUSH1 0x0 KECCAK256 PUSH1 0x2 ADD DUP1 SLOAD DUP1 PUSH1 0x20 MUL PUSH1 0x20 ADD PUSH1 0x40 MLOAD SWAP1 DUP2 ADD PUSH1 0x40 MSTORE DUP1 SWAP3 SWAP2 SWAP1 DUP2 DUP2 MSTORE PUSH1 0x20 ADD DUP3 DUP1 SLOAD DUP1 ISZERO PUSH3 0x88D JUMPI PUSH1 0x20 MUL DUP3 ADD SWAP2 SWAP1 PUSH1 0x0 MSTORE PUSH1 0x20 PUSH1 0x0 KECCAK256 SWAP1 JUMPDEST DUP2 PUSH1 0x0 SWAP1 SLOAD SWAP1 PUSH2 0x100 EXP SWAP1 DIV PUSH20 0xFFFFFFFFFFFFFFFFFFFFFFFFFFFFFFFFFFFFFFFF AND PUSH20 0xFFFFFFFFFFFFFFFFFFFFFFFFFFFFFFFFFFFFFFFF AND DUP2 MSTORE PUSH1 0x20 ADD SWAP1 PUSH1 0x1 ADD SWAP1 DUP1 DUP4 GT PUSH3 0x842 JUMPI JUMPDEST POP POP POP POP POP SWAP1 POP SWAP2 SWAP1 POP JUMP JUMPDEST PUSH1 0x0 DUP2 SWAP1 POP PUSH1 0x0 DUP2 PUSH20 0xFFFFFFFFFFFFFFFFFFFFFFFFFFFFFFFFFFFFFFFF AND PUSH4 0x3C490174 PUSH1 0x40 MLOAD DUP2 PUSH4 0xFFFFFFFF AND PUSH1 0xE0 SHL DUP2 MSTORE PUSH1 0x4 ADD PUSH1 0x20 PUSH1 0x40 MLOAD DUP1 DUP4 SUB DUP2 DUP7 GAS STATICCALL ISZERO DUP1 ISZERO PUSH3 0x8EC JUMPI RETURNDATASIZE PUSH1 0x0 DUP1 RETURNDATACOPY RETURNDATASIZE PUSH1 0x0 REVERT JUMPDEST POP POP POP POP PUSH1 0x40 MLOAD RETURNDATASIZE PUSH1 0x1F NOT PUSH1 0x1F DUP3 ADD AND DUP3 ADD DUP1 PUSH1 0x40 MSTORE POP DUP2 ADD SWAP1 PUSH3 0x912 SWAP2 SWAP1 PUSH3 0x2E76 JUMP JUMPDEST SWAP1 POP DUP2 PUSH20 0xFFFFFFFFFFFFFFFFFFFFFFFFFFFFFFFFFFFFFFFF AND PUSH4 0x3B1BEBD1 PUSH1 0x40 MLOAD DUP2 PUSH4 0xFFFFFFFF AND PUSH1 0xE0 SHL DUP2 MSTORE PUSH1 0x4 ADD PUSH1 0x20 PUSH1 0x40 MLOAD DUP1 DUP4 SUB DUP2 DUP7 GAS STATICCALL ISZERO DUP1 ISZERO PUSH3 0x960 JUMPI RETURNDATASIZE PUSH1 0x0 DUP1 RETURNDATACOPY RETURNDATASIZE PUSH1 0x0 REVERT JUMPDEST POP POP POP POP PUSH1 0x40 MLOAD RETURNDATASIZE PUSH1 0x1F NOT PUSH1 0x1F DUP3 ADD AND DUP3 ADD DUP1 PUSH1 0x40 MSTORE POP DUP2 ADD SWAP1 PUSH3 0x986 SWAP2 SWAP1 PUSH3 0x2E76 JUMP JUMPDEST PUSH20 0xFFFFFFFFFFFFFFFFFFFFFFFFFFFFFFFFFFFFFFFF AND DUP2 PUSH20 0xFFFFFFFFFFFFFFFFFFFFFFFFFFFFFFFFFFFFFFFF AND PUSH4 0x3B1BEBD1 PUSH1 0x40 MLOAD DUP2 PUSH4 0xFFFFFFFF AND PUSH1 0xE0 SHL DUP2 MSTORE PUSH1 0x4 ADD PUSH1 0x20 PUSH1 0x40 MLOAD DUP1 DUP4 SUB DUP2 DUP7 GAS STATICCALL ISZERO DUP1 ISZERO PUSH3 0x9E8 JUMPI RETURNDATASIZE PUSH1 0x0 DUP1 RETURNDATACOPY RETURNDATASIZE PUSH1 0x0 REVERT JUMPDEST POP POP POP POP PUSH1 0x40 MLOAD RETURNDATASIZE PUSH1 0x1F NOT PUSH1 0x1F DUP3 ADD AND DUP3 ADD DUP1 PUSH1 0x40 MSTORE POP DUP2 ADD SWAP1 PUSH3 0xA0E SWAP2 SWAP1 PUSH3 0x2E76 JUMP JUMPDEST PUSH20 0xFFFFFFFFFFFFFFFFFFFFFFFFFFFFFFFFFFFFFFFF AND EQ PUSH3 0xA67 JUMPI PUSH1 0x40 MLOAD PUSH32 0x8C379A000000000000000000000000000000000000000000000000000000000 DUP2 MSTORE PUSH1 0x4 ADD PUSH3 0xA5E SWAP1 PUSH3 0x2F1E JUMP JUMPDEST PUSH1 0x40 MLOAD DUP1 SWAP2 SUB SWAP1 REVERT JUMPDEST DUP1 PUSH20 0xFFFFFFFFFFFFFFFFFFFFFFFFFFFFFFFFFFFFFFFF AND PUSH4 0xB4FEDC11 PUSH1 0x40 MLOAD DUP2 PUSH4 0xFFFFFFFF AND PUSH1 0xE0 SHL DUP2 MSTORE PUSH1 0x4 ADD PUSH1 0x20 PUSH1 0x40 MLOAD DUP1 DUP4 SUB DUP2 PUSH1 0x0 DUP8 GAS CALL ISZERO DUP1 ISZERO PUSH3 0xAB5 JUMPI RETURNDATASIZE PUSH1 0x0 DUP1 RETURNDATACOPY RETURNDATASIZE PUSH1 0x0 REVERT JUMPDEST POP POP POP POP PUSH1 0x40 MLOAD RETURNDATASIZE PUSH1 0x1F NOT PUSH1 0x1F DUP3 ADD AND DUP3 ADD DUP1 PUSH1 0x40 MSTORE POP DUP2 ADD SWAP1 PUSH3 0xADB SWAP2 SWAP1 PUSH3 0x2F85 JUMP JUMPDEST POP PUSH3 0xBCA DUP2 PUSH20 0xFFFFFFFFFFFFFFFFFFFFFFFFFFFFFFFFFFFFFFFF AND PUSH4 0x2D05D3F PUSH1 0x40 MLOAD DUP2 PUSH4 0xFFFFFFFF AND PUSH1 0xE0 SHL DUP2 MSTORE PUSH1 0x4 ADD PUSH1 0x20 PUSH1 0x40 MLOAD DUP1 DUP4 SUB DUP2 DUP7 GAS STATICCALL ISZERO DUP1 ISZERO PUSH3 0xB2C JUMPI RETURNDATASIZE PUSH1 0x0 DUP1 RETURNDATACOPY RETURNDATASIZE PUSH1 0x0 REVERT JUMPDEST POP POP POP POP PUSH1 0x40 MLOAD RETURNDATASIZE PUSH1 0x1F NOT PUSH1 0x1F DUP3 ADD AND DUP3 ADD DUP1 PUSH1 0x40 MSTORE POP DUP2 ADD SWAP1 PUSH3 0xB52 SWAP2 SWAP1 PUSH3 0x2E76 JUMP JUMPDEST DUP4 PUSH20 0xFFFFFFFFFFFFFFFFFFFFFFFFFFFFFFFFFFFFFFFF AND PUSH4 0x3C490174 PUSH1 0x40 MLOAD DUP2 PUSH4 0xFFFFFFFF AND PUSH1 0xE0 SHL DUP2 MSTORE PUSH1 0x4 ADD PUSH1 0x20 PUSH1 0x40 MLOAD DUP1 DUP4 SUB DUP2 DUP7 GAS STATICCALL ISZERO DUP1 ISZERO PUSH3 0xB9E JUMPI RETURNDATASIZE PUSH1 0x0 DUP1 RETURNDATACOPY RETURNDATASIZE PUSH1 0x0 REVERT JUMPDEST POP POP POP POP PUSH1 0x40 MLOAD RETURNDATASIZE PUSH1 0x1F NOT PUSH1 0x1F DUP3 ADD AND DUP3 ADD DUP1 PUSH1 0x40 MSTORE POP DUP2 ADD SWAP1 PUSH3 0xBC4 SWAP2 SWAP1 PUSH3 0x2E76 JUMP JUMPDEST PUSH3 0x1D4C JUMP JUMPDEST PUSH3 0xCB8 DUP2 PUSH20 0xFFFFFFFFFFFFFFFFFFFFFFFFFFFFFFFFFFFFFFFF AND PUSH4 0x3B1BEBD1 PUSH1 0x40 MLOAD DUP2 PUSH4 0xFFFFFFFF AND PUSH1 0xE0 SHL DUP2 MSTORE PUSH1 0x4 ADD PUSH1 0x20 PUSH1 0x40 MLOAD DUP1 DUP4 SUB DUP2 DUP7 GAS STATICCALL ISZERO DUP1 ISZERO PUSH3 0xC1A JUMPI RETURNDATASIZE PUSH1 0x0 DUP1 RETURNDATACOPY RETURNDATASIZE PUSH1 0x0 REVERT JUMPDEST POP POP POP POP PUSH1 0x40 MLOAD RETURNDATASIZE PUSH1 0x1F NOT PUSH1 0x1F DUP3 ADD AND DUP3 ADD DUP1 PUSH1 0x40 MSTORE POP DUP2 ADD SWAP1 PUSH3 0xC40 SWAP2 SWAP1 PUSH3 0x2E76 JUMP JUMPDEST DUP4 PUSH20 0xFFFFFFFFFFFFFFFFFFFFFFFFFFFFFFFFFFFFFFFF AND PUSH4 0x3C490174 PUSH1 0x40 MLOAD DUP2 PUSH4 0xFFFFFFFF AND PUSH1 0xE0 SHL DUP2 MSTORE PUSH1 0x4 ADD PUSH1 0x20 PUSH1 0x40 MLOAD DUP1 DUP4 SUB DUP2 DUP7 GAS STATICCALL ISZERO DUP1 ISZERO PUSH3 0xC8C JUMPI RETURNDATASIZE PUSH1 0x0 DUP1 RETURNDATACOPY RETURNDATASIZE PUSH1 0x0 REVERT JUMPDEST POP POP POP POP PUSH1 0x40 MLOAD RETURNDATASIZE PUSH1 0x1F NOT PUSH1 0x1F DUP3 ADD AND DUP3 ADD DUP1 PUSH1 0x40 MSTORE POP DUP2 ADD SWAP1 PUSH3 0xCB2 SWAP2 SWAP1 PUSH3 0x2E76 JUMP JUMPDEST PUSH3 0x2109 JUMP JUMPDEST POP POP POP JUMP JUMPDEST PUSH1 0x3 DUP2 DUP2 SLOAD DUP2 LT PUSH3 0xCCE JUMPI PUSH1 0x0 DUP1 REVERT JUMPDEST SWAP1 PUSH1 0x0 MSTORE PUSH1 0x20 PUSH1 0x0 KECCAK256 ADD PUSH1 0x0 SWAP2 POP SLOAD SWAP1 PUSH2 0x100 EXP SWAP1 DIV PUSH20 0xFFFFFFFFFFFFFFFFFFFFFFFFFFFFFFFFFFFFFFFF AND DUP2 JUMP JUMPDEST PUSH1 0x8 DUP2 DUP2 SLOAD DUP2 LT PUSH3 0xD0E JUMPI PUSH1 0x0 DUP1 REVERT JUMPDEST SWAP1 PUSH1 0x0 MSTORE PUSH1 0x20 PUSH1 0x0 KECCAK256 ADD PUSH1 0x0 SWAP2 POP SLOAD SWAP1 PUSH2 0x100 EXP SWAP1 DIV PUSH20 0xFFFFFFFFFFFFFFFFFFFFFFFFFFFFFFFFFFFFFFFF AND DUP2 JUMP JUMPDEST PUSH1 0x60 PUSH1 0x0 DUP1 DUP4 PUSH20 0xFFFFFFFFFFFFFFFFFFFFFFFFFFFFFFFFFFFFFFFF AND PUSH20 0xFFFFFFFFFFFFFFFFFFFFFFFFFFFFFFFFFFFFFFFF AND DUP2 MSTORE PUSH1 0x20 ADD SWAP1 DUP2 MSTORE PUSH1 0x20 ADD PUSH1 0x0 KECCAK256 PUSH1 0x1 ADD DUP1 SLOAD DUP1 PUSH1 0x20 MUL PUSH1 0x20 ADD PUSH1 0x40 MLOAD SWAP1 DUP2 ADD PUSH1 0x40 MSTORE DUP1 SWAP3 SWAP2 SWAP1 DUP2 DUP2 MSTORE PUSH1 0x20 ADD DUP3 DUP1 SLOAD DUP1 ISZERO PUSH3 0xE02 JUMPI PUSH1 0x20 MUL DUP3 ADD SWAP2 SWAP1 PUSH1 0x0 MSTORE PUSH1 0x20 PUSH1 0x0 KECCAK256 SWAP1 JUMPDEST DUP2 PUSH1 0x0 SWAP1 SLOAD SWAP1 PUSH2 0x100 EXP SWAP1 DIV PUSH20 0xFFFFFFFFFFFFFFFFFFFFFFFFFFFFFFFFFFFFFFFF AND PUSH20 0xFFFFFFFFFFFFFFFFFFFFFFFFFFFFFFFFFFFFFFFF AND DUP2 MSTORE PUSH1 0x20 ADD SWAP1 PUSH1 0x1 ADD SWAP1 DUP1 DUP4 GT PUSH3 0xDB7 JUMPI JUMPDEST POP POP POP POP POP SWAP1 POP SWAP2 SWAP1 POP JUMP JUMPDEST PUSH1 0x4 SLOAD DUP2 JUMP JUMPDEST PUSH1 0x60 PUSH1 0x6 PUSH1 0x0 DUP4 PUSH20 0xFFFFFFFFFFFFFFFFFFFFFFFFFFFFFFFFFFFFFFFF AND PUSH20 0xFFFFFFFFFFFFFFFFFFFFFFFFFFFFFFFFFFFFFFFF AND DUP2 MSTORE PUSH1 0x20 ADD SWAP1 DUP2 MSTORE PUSH1 0x20 ADD PUSH1 0x0 KECCAK256 PUSH1 0x3 ADD DUP1 SLOAD DUP1 PUSH1 0x20 MUL PUSH1 0x20 ADD PUSH1 0x40 MLOAD SWAP1 DUP2 ADD PUSH1 0x40 MSTORE DUP1 SWAP3 SWAP2 SWAP1 DUP2 DUP2 MSTORE PUSH1 0x20 ADD DUP3 DUP1 SLOAD DUP1 ISZERO PUSH3 0xEDA JUMPI PUSH1 0x20 MUL DUP3 ADD SWAP2 SWAP1 PUSH1 0x0 MSTORE PUSH1 0x20 PUSH1 0x0 KECCAK256 SWAP1 JUMPDEST DUP2 PUSH1 0x0 SWAP1 SLOAD SWAP1 PUSH2 0x100 EXP SWAP1 DIV PUSH20 0xFFFFFFFFFFFFFFFFFFFFFFFFFFFFFFFFFFFFFFFF AND PUSH20 0xFFFFFFFFFFFFFFFFFFFFFFFFFFFFFFFFFFFFFFFF AND DUP2 MSTORE PUSH1 0x20 ADD SWAP1 PUSH1 0x1 ADD SWAP1 DUP1 DUP4 GT PUSH3 0xE8F JUMPI JUMPDEST POP POP POP POP POP SWAP1 POP SWAP2 SWAP1 POP JUMP JUMPDEST PUSH1 0x1 DUP2 DUP2 SLOAD DUP2 LT PUSH3 0xEF7 JUMPI PUSH1 0x0 DUP1 REVERT JUMPDEST SWAP1 PUSH1 0x0 MSTORE PUSH1 0x20 PUSH1 0x0 KECCAK256 ADD PUSH1 0x0 SWAP2 POP SLOAD SWAP1 PUSH2 0x100 EXP SWAP1 DIV PUSH20 0xFFFFFFFFFFFFFFFFFFFFFFFFFFFFFFFFFFFFFFFF AND DUP2 JUMP JUMPDEST PUSH1 0x0 DUP2 SWAP1 POP DUP1 PUSH20 0xFFFFFFFFFFFFFFFFFFFFFFFFFFFFFFFFFFFFFFFF AND PUSH4 0x2D398FA6 PUSH1 0x40 MLOAD DUP2 PUSH4 0xFFFFFFFF AND PUSH1 0xE0 SHL DUP2 MSTORE PUSH1 0x4 ADD PUSH1 0x20 PUSH1 0x40 MLOAD DUP1 DUP4 SUB DUP2 PUSH1 0x0 DUP8 GAS CALL ISZERO DUP1 ISZERO PUSH3 0xF79 JUMPI RETURNDATASIZE PUSH1 0x0 DUP1 RETURNDATACOPY RETURNDATASIZE PUSH1 0x0 REVERT JUMPDEST POP POP POP POP PUSH1 0x40 MLOAD RETURNDATASIZE PUSH1 0x1F NOT PUSH1 0x1F DUP3 ADD AND DUP3 ADD DUP1 PUSH1 0x40 MSTORE POP DUP2 ADD SWAP1 PUSH3 0xF9F SWAP2 SWAP1 PUSH3 0x2F85 JUMP JUMPDEST POP PUSH3 0x101D DUP2 PUSH20 0xFFFFFFFFFFFFFFFFFFFFFFFFFFFFFFFFFFFFFFFF AND PUSH4 0x2D05D3F PUSH1 0x40 MLOAD DUP2 PUSH4 0xFFFFFFFF AND PUSH1 0xE0 SHL DUP2 MSTORE PUSH1 0x4 ADD PUSH1 0x20 PUSH1 0x40 MLOAD DUP1 DUP4 SUB DUP2 DUP7 GAS STATICCALL ISZERO DUP1 ISZERO PUSH3 0xFF0 JUMPI RETURNDATASIZE PUSH1 0x0 DUP1 RETURNDATACOPY RETURNDATASIZE PUSH1 0x0 REVERT JUMPDEST POP POP POP POP PUSH1 0x40 MLOAD RETURNDATASIZE PUSH1 0x1F NOT PUSH1 0x1F DUP3 ADD AND DUP3 ADD DUP1 PUSH1 0x40 MSTORE POP DUP2 ADD SWAP1 PUSH3 0x1016 SWAP2 SWAP1 PUSH3 0x2E76 JUMP JUMPDEST DUP4 PUSH3 0x1D4C JUMP JUMPDEST PUSH3 0x109A DUP2 PUSH20 0xFFFFFFFFFFFFFFFFFFFFFFFFFFFFFFFFFFFFFFFF AND PUSH4 0x3B1BEBD1 PUSH1 0x40 MLOAD DUP2 PUSH4 0xFFFFFFFF AND PUSH1 0xE0 SHL DUP2 MSTORE PUSH1 0x4 ADD PUSH1 0x20 PUSH1 0x40 MLOAD DUP1 DUP4 SUB DUP2 DUP7 GAS STATICCALL ISZERO DUP1 ISZERO PUSH3 0x106D JUMPI RETURNDATASIZE PUSH1 0x0 DUP1 RETURNDATACOPY RETURNDATASIZE PUSH1 0x0 REVERT JUMPDEST POP POP POP POP PUSH1 0x40 MLOAD RETURNDATASIZE PUSH1 0x1F NOT PUSH1 0x1F DUP3 ADD AND DUP3 ADD DUP1 PUSH1 0x40 MSTORE POP DUP2 ADD SWAP1 PUSH3 0x1093 SWAP2 SWAP1 PUSH3 0x2E76 JUMP JUMPDEST DUP4 PUSH3 0x2109 JUMP JUMPDEST POP POP JUMP JUMPDEST PUSH1 0x0 DUP2 SWAP1 POP DUP1 PUSH20 0xFFFFFFFFFFFFFFFFFFFFFFFFFFFFFFFFFFFFFFFF AND PUSH4 0xB4FEDC11 PUSH1 0x40 MLOAD DUP2 PUSH4 0xFFFFFFFF AND PUSH1 0xE0 SHL DUP2 MSTORE PUSH1 0x4 ADD PUSH1 0x20 PUSH1 0x40 MLOAD DUP1 DUP4 SUB DUP2 PUSH1 0x0 DUP8 GAS CALL ISZERO DUP1 ISZERO PUSH3 0x10F1 JUMPI RETURNDATASIZE PUSH1 0x0 DUP1 RETURNDATACOPY RETURNDATASIZE PUSH1 0x0 REVERT JUMPDEST POP POP POP POP PUSH1 0x40 MLOAD RETURNDATASIZE PUSH1 0x1F NOT PUSH1 0x1F DUP3 ADD AND DUP3 ADD DUP1 PUSH1 0x40 MSTORE POP DUP2 ADD SWAP1 PUSH3 0x1117 SWAP2 SWAP1 PUSH3 0x2F85 JUMP JUMPDEST POP PUSH3 0x1195 DUP2 PUSH20 0xFFFFFFFFFFFFFFFFFFFFFFFFFFFFFFFFFFFFFFFF AND PUSH4 0x2D05D3F PUSH1 0x40 MLOAD DUP2 PUSH4 0xFFFFFFFF AND PUSH1 0xE0 SHL DUP2 MSTORE PUSH1 0x4 ADD PUSH1 0x20 PUSH1 0x40 MLOAD DUP1 DUP4 SUB DUP2 DUP7 GAS STATICCALL ISZERO DUP1 ISZERO PUSH3 0x1168 JUMPI RETURNDATASIZE PUSH1 0x0 DUP1 RETURNDATACOPY RETURNDATASIZE PUSH1 0x0 REVERT JUMPDEST POP POP POP POP PUSH1 0x40 MLOAD RETURNDATASIZE PUSH1 0x1F NOT PUSH1 0x1F DUP3 ADD AND DUP3 ADD DUP1 PUSH1 0x40 MSTORE POP DUP2 ADD SWAP1 PUSH3 0x118E SWAP2 SWAP1 PUSH3 0x2E76 JUMP JUMPDEST DUP4 PUSH3 0x1D4C JUMP JUMPDEST PUSH3 0x1212 DUP2 PUSH20 0xFFFFFFFFFFFFFFFFFFFFFFFFFFFFFFFFFFFFFFFF AND PUSH4 0x3B1BEBD1 PUSH1 0x40 MLOAD DUP2 PUSH4 0xFFFFFFFF AND PUSH1 0xE0 SHL DUP2 MSTORE PUSH1 0x4 ADD PUSH1 0x20 PUSH1 0x40 MLOAD DUP1 DUP4 SUB DUP2 DUP7 GAS STATICCALL ISZERO DUP1 ISZERO PUSH3 0x11E5 JUMPI RETURNDATASIZE PUSH1 0x0 DUP1 RETURNDATACOPY RETURNDATASIZE PUSH1 0x0 REVERT JUMPDEST POP POP POP POP PUSH1 0x40 MLOAD RETURNDATASIZE PUSH1 0x1F NOT PUSH1 0x1F DUP3 ADD AND DUP3 ADD DUP1 PUSH1 0x40 MSTORE POP DUP2 ADD SWAP1 PUSH3 0x120B SWAP2 SWAP1 PUSH3 0x2E76 JUMP JUMPDEST DUP4 PUSH3 0x2109 JUMP JUMPDEST POP POP JUMP JUMPDEST PUSH1 0x6 PUSH1 0x20 MSTORE DUP1 PUSH1 0x0 MSTORE PUSH1 0x40 PUSH1 0x0 KECCAK256 PUSH1 0x0 SWAP2 POP SWAP1 POP DUP1 PUSH1 0x0 ADD SLOAD SWAP1 POP DUP2 JUMP JUMPDEST PUSH1 0x2 SLOAD DUP2 JUMP JUMPDEST PUSH1 0x0 DUP2 SWAP1 POP PUSH1 0x0 PUSH1 0x2 DUP2 GT ISZERO PUSH3 0x1256 JUMPI PUSH3 0x1255 PUSH3 0x2FB7 JUMP JUMPDEST JUMPDEST DUP2 PUSH20 0xFFFFFFFFFFFFFFFFFFFFFFFFFFFFFFFFFFFFFFFF AND PUSH4 0x200D2ED2 PUSH1 0x40 MLOAD DUP2 PUSH4 0xFFFFFFFF AND PUSH1 0xE0 SHL DUP2 MSTORE PUSH1 0x4 ADD PUSH1 0x20 PUSH1 0x40 MLOAD DUP1 DUP4 SUB DUP2 DUP7 GAS STATICCALL ISZERO DUP1 ISZERO PUSH3 0x12A2 JUMPI RETURNDATASIZE PUSH1 0x0 DUP1 RETURNDATACOPY RETURNDATASIZE PUSH1 0x0 REVERT JUMPDEST POP POP POP POP PUSH1 0x40 MLOAD RETURNDATASIZE PUSH1 0x1F NOT PUSH1 0x1F DUP3 ADD AND DUP3 ADD DUP1 PUSH1 0x40 MSTORE POP DUP2 ADD SWAP1 PUSH3 0x12C8 SWAP2 SWAP1 PUSH3 0x300E JUMP JUMPDEST PUSH1 0x2 DUP2 GT ISZERO PUSH3 0x12DD JUMPI PUSH3 0x12DC PUSH3 0x2FB7 JUMP JUMPDEST JUMPDEST EQ PUSH3 0x1320 JUMPI PUSH1 0x40 MLOAD PUSH32 0x8C379A000000000000000000000000000000000000000000000000000000000 DUP2 MSTORE PUSH1 0x4 ADD PUSH3 0x1317 SWAP1 PUSH3 0x3090 JUMP JUMPDEST PUSH1 0x40 MLOAD DUP1 SWAP2 SUB SWAP1 REVERT JUMPDEST DUP1 PUSH20 0xFFFFFFFFFFFFFFFFFFFFFFFFFFFFFFFFFFFFFFFF AND PUSH4 0x2D05D3F PUSH1 0x40 MLOAD DUP2 PUSH4 0xFFFFFFFF AND PUSH1 0xE0 SHL DUP2 MSTORE PUSH1 0x4 ADD PUSH1 0x20 PUSH1 0x40 MLOAD DUP1 DUP4 SUB DUP2 DUP7 GAS STATICCALL ISZERO DUP1 ISZERO PUSH3 0x136C JUMPI RETURNDATASIZE PUSH1 0x0 DUP1 RETURNDATACOPY RETURNDATASIZE PUSH1 0x0 REVERT JUMPDEST POP POP POP POP PUSH1 0x40 MLOAD RETURNDATASIZE PUSH1 0x1F NOT PUSH1 0x1F DUP3 ADD AND DUP3 ADD DUP1 PUSH1 0x40 MSTORE POP DUP2 ADD SWAP1 PUSH3 0x1392 SWAP2 SWAP1 PUSH3 0x2E76 JUMP JUMPDEST PUSH20 0xFFFFFFFFFFFFFFFFFFFFFFFFFFFFFFFFFFFFFFFF AND ORIGIN PUSH20 0xFFFFFFFFFFFFFFFFFFFFFFFFFFFFFFFFFFFFFFFF AND EQ PUSH3 0x1402 JUMPI PUSH1 0x40 MLOAD PUSH32 0x8C379A000000000000000000000000000000000000000000000000000000000 DUP2 MSTORE PUSH1 0x4 ADD PUSH3 0x13F9 SWAP1 PUSH3 0x3128 JUMP JUMPDEST PUSH1 0x40 MLOAD DUP1 SWAP2 SUB SWAP1 REVERT JUMPDEST PUSH1 0x0 DUP3 PUSH1 0x40 MLOAD PUSH3 0x1413 SWAP1 PUSH3 0x273D JUMP JUMPDEST PUSH3 0x141F SWAP2 SWAP1 PUSH3 0x29BB JUMP JUMPDEST PUSH1 0x40 MLOAD DUP1 SWAP2 SUB SWAP1 PUSH1 0x0 CREATE DUP1 ISZERO DUP1 ISZERO PUSH3 0x143C JUMPI RETURNDATASIZE PUSH1 0x0 DUP1 RETURNDATACOPY RETURNDATASIZE PUSH1 0x0 REVERT JUMPDEST POP SWAP1 POP PUSH1 0x6 PUSH1 0x0 DUP4 PUSH20 0xFFFFFFFFFFFFFFFFFFFFFFFFFFFFFFFFFFFFFFFF AND PUSH4 0x3B1BEBD1 PUSH1 0x40 MLOAD DUP2 PUSH4 0xFFFFFFFF AND PUSH1 0xE0 SHL DUP2 MSTORE PUSH1 0x4 ADD PUSH1 0x20 PUSH1 0x40 MLOAD DUP1 DUP4 SUB DUP2 DUP7 GAS STATICCALL ISZERO DUP1 ISZERO PUSH3 0x148F JUMPI RETURNDATASIZE PUSH1 0x0 DUP1 RETURNDATACOPY RETURNDATASIZE PUSH1 0x0 REVERT JUMPDEST POP POP POP POP PUSH1 0x40 MLOAD RETURNDATASIZE PUSH1 0x1F NOT PUSH1 0x1F DUP3 ADD AND DUP3 ADD DUP1 PUSH1 0x40 MSTORE POP DUP2 ADD SWAP1 PUSH3 0x14B5 SWAP2 SWAP1 PUSH3 0x2E76 JUMP JUMPDEST PUSH20 0xFFFFFFFFFFFFFFFFFFFFFFFFFFFFFFFFFFFFFFFF AND PUSH20 0xFFFFFFFFFFFFFFFFFFFFFFFFFFFFFFFFFFFFFFFF AND DUP2 MSTORE PUSH1 0x20 ADD SWAP1 DUP2 MSTORE PUSH1 0x20 ADD PUSH1 0x0 KECCAK256 PUSH1 0x3 ADD DUP2 SWAP1 DUP1 PUSH1 0x1 DUP2 SLOAD ADD DUP1 DUP3 SSTORE DUP1 SWAP2 POP POP PUSH1 0x1 SWAP1 SUB SWAP1 PUSH1 0x0 MSTORE PUSH1 0x20 PUSH1 0x0 KECCAK256 ADD PUSH1 0x0 SWAP1 SWAP2 SWAP1 SWAP2 SWAP1 SWAP2 PUSH2 0x100 EXP DUP2 SLOAD DUP2 PUSH20 0xFFFFFFFFFFFFFFFFFFFFFFFFFFFFFFFFFFFFFFFF MUL NOT AND SWAP1 DUP4 PUSH20 0xFFFFFFFFFFFFFFFFFFFFFFFFFFFFFFFFFFFFFFFF AND MUL OR SWAP1 SSTORE POP POP POP POP JUMP JUMPDEST PUSH1 0x60 PUSH1 0x6 PUSH1 0x0 DUP4 PUSH20 0xFFFFFFFFFFFFFFFFFFFFFFFFFFFFFFFFFFFFFFFF AND PUSH20 0xFFFFFFFFFFFFFFFFFFFFFFFFFFFFFFFFFFFFFFFF AND DUP2 MSTORE PUSH1 0x20 ADD SWAP1 DUP2 MSTORE PUSH1 0x20 ADD PUSH1 0x0 KECCAK256 PUSH1 0x1 ADD DUP1 SLOAD DUP1 PUSH1 0x20 MUL PUSH1 0x20 ADD PUSH1 0x40 MLOAD SWAP1 DUP2 ADD PUSH1 0x40 MSTORE DUP1 SWAP3 SWAP2 SWAP1 DUP2 DUP2 MSTORE PUSH1 0x20 ADD DUP3 DUP1 SLOAD DUP1 ISZERO PUSH3 0x161E JUMPI PUSH1 0x20 MUL DUP3 ADD SWAP2 SWAP1 PUSH1 0x0 MSTORE PUSH1 0x20 PUSH1 0x0 KECCAK256 SWAP1 JUMPDEST DUP2 PUSH1 0x0 SWAP1 SLOAD SWAP1 PUSH2 0x100 EXP SWAP1 DIV PUSH20 0xFFFFFFFFFFFFFFFFFFFFFFFFFFFFFFFFFFFFFFFF AND PUSH20 0xFFFFFFFFFFFFFFFFFFFFFFFFFFFFFFFFFFFFFFFF AND DUP2 MSTORE PUSH1 0x20 ADD SWAP1 PUSH1 0x1 ADD SWAP1 DUP1 DUP4 GT PUSH3 0x15D3 JUMPI JUMPDEST POP POP POP POP POP SWAP1 POP SWAP2 SWAP1 POP JUMP JUMPDEST PUSH1 0x0 PUSH1 0x20 MSTORE DUP1 PUSH1 0x0 MSTORE PUSH1 0x40 PUSH1 0x0 KECCAK256 PUSH1 0x0 SWAP2 POP SWAP1 POP DUP1 PUSH1 0x0 ADD SLOAD SWAP1 POP DUP2 JUMP JUMPDEST PUSH1 0x60 PUSH1 0x0 DUP4 LT ISZERO PUSH3 0x1691 JUMPI PUSH1 0x40 MLOAD PUSH32 0x8C379A000000000000000000000000000000000000000000000000000000000 DUP2 MSTORE PUSH1 0x4 ADD PUSH3 0x1688 SWAP1 PUSH3 0x2CBE JUMP JUMPDEST PUSH1 0x40 MLOAD DUP1 SWAP2 SUB SWAP1 REVERT JUMPDEST PUSH1 0x1 DUP1 SLOAD SWAP1 POP DUP3 GT ISZERO PUSH3 0x16DC JUMPI PUSH1 0x40 MLOAD PUSH32 0x8C379A000000000000000000000000000000000000000000000000000000000 DUP2 MSTORE PUSH1 0x4 ADD PUSH3 0x16D3 SWAP1 PUSH3 0x2D56 JUMP JUMPDEST PUSH1 0x40 MLOAD DUP1 SWAP2 SUB SWAP1 REVERT JUMPDEST PUSH1 0x0 DUP4 DUP4 PUSH3 0x16EC SWAP2 SWAP1 PUSH3 0x2DA7 JUMP JUMPDEST PUSH8 0xFFFFFFFFFFFFFFFF DUP2 GT ISZERO PUSH3 0x1708 JUMPI PUSH3 0x1707 PUSH3 0x2A21 JUMP JUMPDEST JUMPDEST PUSH1 0x40 MLOAD SWAP1 DUP1 DUP3 MSTORE DUP1 PUSH1 0x20 MUL PUSH1 0x20 ADD DUP3 ADD PUSH1 0x40 MSTORE DUP1 ISZERO PUSH3 0x1737 JUMPI DUP2 PUSH1 0x20 ADD PUSH1 0x20 DUP3 MUL DUP1 CALLDATASIZE DUP4 CALLDATACOPY DUP1 DUP3 ADD SWAP2 POP POP SWAP1 POP JUMPDEST POP SWAP1 POP PUSH1 0x0 DUP5 SWAP1 POP JUMPDEST DUP4 DUP2 LT ISZERO PUSH3 0x17F1 JUMPI PUSH1 0x1 DUP2 DUP2 SLOAD DUP2 LT PUSH3 0x1760 JUMPI PUSH3 0x175F PUSH3 0x2DE2 JUMP JUMPDEST JUMPDEST SWAP1 PUSH1 0x0 MSTORE PUSH1 0x20 PUSH1 0x0 KECCAK256 ADD PUSH1 0x0 SWAP1 SLOAD SWAP1 PUSH2 0x100 EXP SWAP1 DIV PUSH20 0xFFFFFFFFFFFFFFFFFFFFFFFFFFFFFFFFFFFFFFFF AND DUP3 DUP3 DUP2 MLOAD DUP2 LT PUSH3 0x17A1 JUMPI PUSH3 0x17A0 PUSH3 0x2DE2 JUMP JUMPDEST JUMPDEST PUSH1 0x20 MUL PUSH1 0x20 ADD ADD SWAP1 PUSH20 0xFFFFFFFFFFFFFFFFFFFFFFFFFFFFFFFFFFFFFFFF AND SWAP1 DUP2 PUSH20 0xFFFFFFFFFFFFFFFFFFFFFFFFFFFFFFFFFFFFFFFF AND DUP2 MSTORE POP POP DUP1 DUP1 PUSH3 0x17E8 SWAP1 PUSH3 0x2E11 JUMP JUMPDEST SWAP2 POP POP PUSH3 0x1740 JUMP JUMPDEST POP DUP1 SWAP2 POP POP SWAP3 SWAP2 POP POP JUMP JUMPDEST PUSH1 0x60 PUSH1 0x0 DUP1 DUP4 PUSH20 0xFFFFFFFFFFFFFFFFFFFFFFFFFFFFFFFFFFFFFFFF AND PUSH20 0xFFFFFFFFFFFFFFFFFFFFFFFFFFFFFFFFFFFFFFFF AND DUP2 MSTORE PUSH1 0x20 ADD SWAP1 DUP2 MSTORE PUSH1 0x20 ADD PUSH1 0x0 KECCAK256 PUSH1 0x2 ADD DUP1 SLOAD DUP1 PUSH1 0x20 MUL PUSH1 0x20 ADD PUSH1 0x40 MLOAD SWAP1 DUP2 ADD PUSH1 0x40 MSTORE DUP1 SWAP3 SWAP2 SWAP1 DUP2 DUP2 MSTORE PUSH1 0x20 ADD DUP3 DUP1 SLOAD DUP1 ISZERO PUSH3 0x18C1 JUMPI PUSH1 0x20 MUL DUP3 ADD SWAP2 SWAP1 PUSH1 0x0 MSTORE PUSH1 0x20 PUSH1 0x0 KECCAK256 SWAP1 JUMPDEST DUP2 PUSH1 0x0 SWAP1 SLOAD SWAP1 PUSH2 0x100 EXP SWAP1 DIV PUSH20 0xFFFFFFFFFFFFFFFFFFFFFFFFFFFFFFFFFFFFFFFF AND PUSH20 0xFFFFFFFFFFFFFFFFFFFFFFFFFFFFFFFFFFFFFFFF AND DUP2 MSTORE PUSH1 0x20 ADD SWAP1 PUSH1 0x1 ADD SWAP1 DUP1 DUP4 GT PUSH3 0x1876 JUMPI JUMPDEST POP POP POP POP POP SWAP1 POP SWAP2 SWAP1 POP JUMP JUMPDEST PUSH1 0x7 SLOAD DUP2 JUMP JUMPDEST PUSH1 0x5 SLOAD DUP2 JUMP JUMPDEST PUSH1 0x0 DUP1 PUSH1 0x0 CALLER PUSH20 0xFFFFFFFFFFFFFFFFFFFFFFFFFFFFFFFFFFFFFFFF AND PUSH20 0xFFFFFFFFFFFFFFFFFFFFFFFFFFFFFFFFFFFFFFFF AND DUP2 MSTORE PUSH1 0x20 ADD SWAP1 DUP2 MSTORE PUSH1 0x20 ADD PUSH1 0x0 KECCAK256 PUSH1 0x0 ADD SLOAD EQ ISZERO PUSH3 0x19A2 JUMPI PUSH1 0x2 PUSH1 0x0 DUP2 SLOAD DUP1 SWAP3 SWAP2 SWAP1 PUSH3 0x1939 SWAP1 PUSH3 0x2E11 JUMP JUMPDEST SWAP2 SWAP1 POP SSTORE POP PUSH1 0x1 CALLER SWAP1 DUP1 PUSH1 0x1 DUP2 SLOAD ADD DUP1 DUP3 SSTORE DUP1 SWAP2 POP POP PUSH1 0x1 SWAP1 SUB SWAP1 PUSH1 0x0 MSTORE PUSH1 0x20 PUSH1 0x0 KECCAK256 ADD PUSH1 0x0 SWAP1 SWAP2 SWAP1 SWAP2 SWAP1 SWAP2 PUSH2 0x100 EXP DUP2 SLOAD DUP2 PUSH20 0xFFFFFFFFFFFFFFFFFFFFFFFFFFFFFFFFFFFFFFFF MUL NOT AND SWAP1 DUP4 PUSH20 0xFFFFFFFFFFFFFFFFFFFFFFFFFFFFFFFFFFFFFFFF AND MUL OR SWAP1 SSTORE POP JUMPDEST PUSH1 0x0 PUSH1 0x6 PUSH1 0x0 DUP7 PUSH20 0xFFFFFFFFFFFFFFFFFFFFFFFFFFFFFFFFFFFFFFFF AND PUSH20 0xFFFFFFFFFFFFFFFFFFFFFFFFFFFFFFFFFFFFFFFF AND DUP2 MSTORE PUSH1 0x20 ADD SWAP1 DUP2 MSTORE PUSH1 0x20 ADD PUSH1 0x0 KECCAK256 PUSH1 0x0 ADD SLOAD EQ ISZERO PUSH3 0x1A6C JUMPI PUSH1 0x7 PUSH1 0x0 DUP2 SLOAD DUP1 SWAP3 SWAP2 SWAP1 PUSH3 0x1A03 SWAP1 PUSH3 0x2E11 JUMP JUMPDEST SWAP2 SWAP1 POP SSTORE POP PUSH1 0x8 DUP5 SWAP1 DUP1 PUSH1 0x1 DUP2 SLOAD ADD DUP1 DUP3 SSTORE DUP1 SWAP2 POP POP PUSH1 0x1 SWAP1 SUB SWAP1 PUSH1 0x0 MSTORE PUSH1 0x20 PUSH1 0x0 KECCAK256 ADD PUSH1 0x0 SWAP1 SWAP2 SWAP1 SWAP2 SWAP1 SWAP2 PUSH2 0x100 EXP DUP2 SLOAD DUP2 PUSH20 0xFFFFFFFFFFFFFFFFFFFFFFFFFFFFFFFFFFFFFFFF MUL NOT AND SWAP1 DUP4 PUSH20 0xFFFFFFFFFFFFFFFFFFFFFFFFFFFFFFFFFFFFFFFF AND MUL OR SWAP1 SSTORE POP JUMPDEST PUSH1 0x0 CALLVALUE CALLER DUP7 DUP7 DUP7 DUP7 CALLVALUE PUSH1 0x40 MLOAD PUSH3 0x1A83 SWAP1 PUSH3 0x274B JUMP JUMPDEST PUSH3 0x1A94 SWAP7 SWAP6 SWAP5 SWAP4 SWAP3 SWAP2 SWAP1 PUSH3 0x3237 JUMP JUMPDEST PUSH1 0x40 MLOAD DUP1 SWAP2 SUB SWAP1 DUP3 CREATE SWAP1 POP DUP1 ISZERO DUP1 ISZERO PUSH3 0x1AB2 JUMPI RETURNDATASIZE PUSH1 0x0 DUP1 RETURNDATACOPY RETURNDATASIZE PUSH1 0x0 REVERT JUMPDEST POP SWAP1 POP PUSH1 0x4 PUSH1 0x0 DUP2 SLOAD DUP1 SWAP3 SWAP2 SWAP1 PUSH3 0x1ACA SWAP1 PUSH3 0x2E11 JUMP JUMPDEST SWAP2 SWAP1 POP SSTORE POP PUSH1 0x3 DUP2 SWAP1 DUP1 PUSH1 0x1 DUP2 SLOAD ADD DUP1 DUP3 SSTORE DUP1 SWAP2 POP POP PUSH1 0x1 SWAP1 SUB SWAP1 PUSH1 0x0 MSTORE PUSH1 0x20 PUSH1 0x0 KECCAK256 ADD PUSH1 0x0 SWAP1 SWAP2 SWAP1 SWAP2 SWAP1 SWAP2 PUSH2 0x100 EXP DUP2 SLOAD DUP2 PUSH20 0xFFFFFFFFFFFFFFFFFFFFFFFFFFFFFFFFFFFFFFFF MUL NOT AND SWAP1 DUP4 PUSH20 0xFFFFFFFFFFFFFFFFFFFFFFFFFFFFFFFFFFFFFFFF AND MUL OR SWAP1 SSTORE POP CALLVALUE PUSH1 0x5 PUSH1 0x0 DUP3 DUP3 SLOAD PUSH3 0x1B46 SWAP2 SWAP1 PUSH3 0x32B2 JUMP JUMPDEST SWAP3 POP POP DUP2 SWAP1 SSTORE POP PUSH1 0x0 DUP1 CALLER PUSH20 0xFFFFFFFFFFFFFFFFFFFFFFFFFFFFFFFFFFFFFFFF AND PUSH20 0xFFFFFFFFFFFFFFFFFFFFFFFFFFFFFFFFFFFFFFFF AND DUP2 MSTORE PUSH1 0x20 ADD SWAP1 DUP2 MSTORE PUSH1 0x20 ADD PUSH1 0x0 KECCAK256 PUSH1 0x0 ADD PUSH1 0x0 DUP2 SLOAD DUP1 SWAP3 SWAP2 SWAP1 PUSH3 0x1BA1 SWAP1 PUSH3 0x2E11 JUMP JUMPDEST SWAP2 SWAP1 POP SSTORE POP PUSH1 0x0 DUP1 CALLER PUSH20 0xFFFFFFFFFFFFFFFFFFFFFFFFFFFFFFFFFFFFFFFF AND PUSH20 0xFFFFFFFFFFFFFFFFFFFFFFFFFFFFFFFFFFFFFFFF AND DUP2 MSTORE PUSH1 0x20 ADD SWAP1 DUP2 MSTORE PUSH1 0x20 ADD PUSH1 0x0 KECCAK256 PUSH1 0x1 ADD DUP2 SWAP1 DUP1 PUSH1 0x1 DUP2 SLOAD ADD DUP1 DUP3 SSTORE DUP1 SWAP2 POP POP PUSH1 0x1 SWAP1 SUB SWAP1 PUSH1 0x0 MSTORE PUSH1 0x20 PUSH1 0x0 KECCAK256 ADD PUSH1 0x0 SWAP1 SWAP2 SWAP1 SWAP2 SWAP1 SWAP2 PUSH2 0x100 EXP DUP2 SLOAD DUP2 PUSH20 0xFFFFFFFFFFFFFFFFFFFFFFFFFFFFFFFFFFFFFFFF MUL NOT AND SWAP1 DUP4 PUSH20 0xFFFFFFFFFFFFFFFFFFFFFFFFFFFFFFFFFFFFFFFF AND MUL OR SWAP1 SSTORE POP PUSH1 0x6 PUSH1 0x0 DUP7 PUSH20 0xFFFFFFFFFFFFFFFFFFFFFFFFFFFFFFFFFFFFFFFF AND PUSH20 0xFFFFFFFFFFFFFFFFFFFFFFFFFFFFFFFFFFFFFFFF AND DUP2 MSTORE PUSH1 0x20 ADD SWAP1 DUP2 MSTORE PUSH1 0x20 ADD PUSH1 0x0 KECCAK256 PUSH1 0x0 ADD PUSH1 0x0 DUP2 SLOAD DUP1 SWAP3 SWAP2 SWAP1 PUSH3 0x1C9D SWAP1 PUSH3 0x2E11 JUMP JUMPDEST SWAP2 SWAP1 POP SSTORE POP PUSH1 0x6 PUSH1 0x0 DUP7 PUSH20 0xFFFFFFFFFFFFFFFFFFFFFFFFFFFFFFFFFFFFFFFF AND PUSH20 0xFFFFFFFFFFFFFFFFFFFFFFFFFFFFFFFFFFFFFFFF AND DUP2 MSTORE PUSH1 0x20 ADD SWAP1 DUP2 MSTORE PUSH1 0x20 ADD PUSH1 0x0 KECCAK256 PUSH1 0x1 ADD DUP2 SWAP1 DUP1 PUSH1 0x1 DUP2 SLOAD ADD DUP1 DUP3 SSTORE DUP1 SWAP2 POP POP PUSH1 0x1 SWAP1 SUB SWAP1 PUSH1 0x0 MSTORE PUSH1 0x20 PUSH1 0x0 KECCAK256 ADD PUSH1 0x0 SWAP1 SWAP2 SWAP1 SWAP2 SWAP1 SWAP2 PUSH2 0x100 EXP DUP2 SLOAD DUP2 PUSH20 0xFFFFFFFFFFFFFFFFFFFFFFFFFFFFFFFFFFFFFFFF MUL NOT AND SWAP1 DUP4 PUSH20 0xFFFFFFFFFFFFFFFFFFFFFFFFFFFFFFFFFFFFFFFF AND MUL OR SWAP1 SSTORE POP POP POP POP POP POP JUMP JUMPDEST PUSH1 0x0 PUSH3 0x1D5A DUP4 DUP4 PUSH3 0x24C7 JUMP JUMPDEST SWAP1 POP PUSH1 0x0 DUP1 PUSH1 0x0 DUP6 PUSH20 0xFFFFFFFFFFFFFFFFFFFFFFFFFFFFFFFFFFFFFFFF AND PUSH20 0xFFFFFFFFFFFFFFFFFFFFFFFFFFFFFFFFFFFFFFFF AND DUP2 MSTORE PUSH1 0x20 ADD SWAP1 DUP2 MSTORE PUSH1 0x20 ADD PUSH1 0x0 KECCAK256 PUSH1 0x1 ADD DUP1 SLOAD SWAP1 POP SWAP1 POP PUSH1 0x0 DUP3 SWAP1 POP JUMPDEST PUSH1 0x1 DUP3 PUSH3 0x1DBA SWAP2 SWAP1 PUSH3 0x2DA7 JUMP JUMPDEST DUP2 LT ISZERO PUSH3 0x1F05 JUMPI PUSH1 0x0 DUP1 DUP7 PUSH20 0xFFFFFFFFFFFFFFFFFFFFFFFFFFFFFFFFFFFFFFFF AND PUSH20 0xFFFFFFFFFFFFFFFFFFFFFFFFFFFFFFFFFFFFFFFF AND DUP2 MSTORE PUSH1 0x20 ADD SWAP1 DUP2 MSTORE PUSH1 0x20 ADD PUSH1 0x0 KECCAK256 PUSH1 0x1 ADD PUSH1 0x1 DUP3 PUSH3 0x1E12 SWAP2 SWAP1 PUSH3 0x32B2 JUMP JUMPDEST DUP2 SLOAD DUP2 LT PUSH3 0x1E26 JUMPI PUSH3 0x1E25 PUSH3 0x2DE2 JUMP JUMPDEST JUMPDEST SWAP1 PUSH1 0x0 MSTORE PUSH1 0x20 PUSH1 0x0 KECCAK256 ADD PUSH1 0x0 SWAP1 SLOAD SWAP1 PUSH2 0x100 EXP SWAP1 DIV PUSH20 0xFFFFFFFFFFFFFFFFFFFFFFFFFFFFFFFFFFFFFFFF AND PUSH1 0x0 DUP1 DUP8 PUSH20 0xFFFFFFFFFFFFFFFFFFFFFFFFFFFFFFFFFFFFFFFF AND PUSH20 0xFFFFFFFFFFFFFFFFFFFFFFFFFFFFFFFFFFFFFFFF AND DUP2 MSTORE PUSH1 0x20 ADD SWAP1 DUP2 MSTORE PUSH1 0x20 ADD PUSH1 0x0 KECCAK256 PUSH1 0x1 ADD DUP3 DUP2 SLOAD DUP2 LT PUSH3 0x1EA7 JUMPI PUSH3 0x1EA6 PUSH3 0x2DE2 JUMP JUMPDEST JUMPDEST SWAP1 PUSH1 0x0 MSTORE PUSH1 0x20 PUSH1 0x0 KECCAK256 ADD PUSH1 0x0 PUSH2 0x100 EXP DUP2 SLOAD DUP2 PUSH20 0xFFFFFFFFFFFFFFFFFFFFFFFFFFFFFFFFFFFFFFFF MUL NOT AND SWAP1 DUP4 PUSH20 0xFFFFFFFFFFFFFFFFFFFFFFFFFFFFFFFFFFFFFFFF AND MUL OR SWAP1 SSTORE POP DUP1 DUP1 PUSH3 0x1EFC SWAP1 PUSH3 0x2E11 JUMP JUMPDEST SWAP2 POP POP PUSH3 0x1DAB JUMP JUMPDEST POP PUSH1 0x0 DUP1 DUP6 PUSH20 0xFFFFFFFFFFFFFFFFFFFFFFFFFFFFFFFFFFFFFFFF AND PUSH20 0xFFFFFFFFFFFFFFFFFFFFFFFFFFFFFFFFFFFFFFFF AND DUP2 MSTORE PUSH1 0x20 ADD SWAP1 DUP2 MSTORE PUSH1 0x20 ADD PUSH1 0x0 KECCAK256 PUSH1 0x2 ADD PUSH1 0x0 DUP1 DUP7 PUSH20 0xFFFFFFFFFFFFFFFFFFFFFFFFFFFFFFFFFFFFFFFF AND PUSH20 0xFFFFFFFFFFFFFFFFFFFFFFFFFFFFFFFFFFFFFFFF AND DUP2 MSTORE PUSH1 0x20 ADD SWAP1 DUP2 MSTORE PUSH1 0x20 ADD PUSH1 0x0 KECCAK256 PUSH1 0x1 ADD PUSH1 0x1 PUSH1 0x0 DUP1 DUP9 PUSH20 0xFFFFFFFFFFFFFFFFFFFFFFFFFFFFFFFFFFFFFFFF AND PUSH20 0xFFFFFFFFFFFFFFFFFFFFFFFFFFFFFFFFFFFFFFFF AND DUP2 MSTORE PUSH1 0x20 ADD SWAP1 DUP2 MSTORE PUSH1 0x20 ADD PUSH1 0x0 KECCAK256 PUSH1 0x1 ADD DUP1 SLOAD SWAP1 POP PUSH3 0x1FDB SWAP2 SWAP1 PUSH3 0x2DA7 JUMP JUMPDEST DUP2 SLOAD DUP2 LT PUSH3 0x1FEF JUMPI PUSH3 0x1FEE PUSH3 0x2DE2 JUMP JUMPDEST JUMPDEST SWAP1 PUSH1 0x0 MSTORE PUSH1 0x20 PUSH1 0x0 KECCAK256 ADD PUSH1 0x0 SWAP1 SLOAD SWAP1 PUSH2 0x100 EXP SWAP1 DIV PUSH20 0xFFFFFFFFFFFFFFFFFFFFFFFFFFFFFFFFFFFFFFFF AND SWAP1 DUP1 PUSH1 0x1 DUP2 SLOAD ADD DUP1 DUP3 SSTORE DUP1 SWAP2 POP POP PUSH1 0x1 SWAP1 SUB SWAP1 PUSH1 0x0 MSTORE PUSH1 0x20 PUSH1 0x0 KECCAK256 ADD PUSH1 0x0 SWAP1 SWAP2 SWAP1 SWAP2 SWAP1 SWAP2 PUSH2 0x100 EXP DUP2 SLOAD DUP2 PUSH20 0xFFFFFFFFFFFFFFFFFFFFFFFFFFFFFFFFFFFFFFFF MUL NOT AND SWAP1 DUP4 PUSH20 0xFFFFFFFFFFFFFFFFFFFFFFFFFFFFFFFFFFFFFFFF AND MUL OR SWAP1 SSTORE POP PUSH1 0x0 DUP1 DUP6 PUSH20 0xFFFFFFFFFFFFFFFFFFFFFFFFFFFFFFFFFFFFFFFF AND PUSH20 0xFFFFFFFFFFFFFFFFFFFFFFFFFFFFFFFFFFFFFFFF AND DUP2 MSTORE PUSH1 0x20 ADD SWAP1 DUP2 MSTORE PUSH1 0x20 ADD PUSH1 0x0 KECCAK256 PUSH1 0x1 ADD DUP1 SLOAD DUP1 PUSH3 0x20CE JUMPI PUSH3 0x20CD PUSH3 0x330F JUMP JUMPDEST JUMPDEST PUSH1 0x1 SWAP1 SUB DUP2 DUP2 SWAP1 PUSH1 0x0 MSTORE PUSH1 0x20 PUSH1 0x0 KECCAK256 ADD PUSH1 0x0 PUSH2 0x100 EXP DUP2 SLOAD SWAP1 PUSH20 0xFFFFFFFFFFFFFFFFFFFFFFFFFFFFFFFFFFFFFFFF MUL NOT AND SWAP1 SSTORE SWAP1 SSTORE POP POP POP POP JUMP JUMPDEST PUSH1 0x0 PUSH3 0x2117 DUP4 DUP4 PUSH3 0x2601 JUMP JUMPDEST SWAP1 POP PUSH1 0x0 DUP2 SWAP1 POP JUMPDEST PUSH1 0x1 PUSH1 0x6 PUSH1 0x0 DUP7 PUSH20 0xFFFFFFFFFFFFFFFFFFFFFFFFFFFFFFFFFFFFFFFF AND PUSH20 0xFFFFFFFFFFFFFFFFFFFFFFFFFFFFFFFFFFFFFFFF AND DUP2 MSTORE PUSH1 0x20 ADD SWAP1 DUP2 MSTORE PUSH1 0x20 ADD PUSH1 0x0 KECCAK256 PUSH1 0x1 ADD DUP1 SLOAD SWAP1 POP PUSH3 0x2173 SWAP2 SWAP1 PUSH3 0x2DA7 JUMP JUMPDEST DUP2 LT ISZERO PUSH3 0x22C0 JUMPI PUSH1 0x6 PUSH1 0x0 DUP6 PUSH20 0xFFFFFFFFFFFFFFFFFFFFFFFFFFFFFFFFFFFFFFFF AND PUSH20 0xFFFFFFFFFFFFFFFFFFFFFFFFFFFFFFFFFFFFFFFF AND DUP2 MSTORE PUSH1 0x20 ADD SWAP1 DUP2 MSTORE PUSH1 0x20 ADD PUSH1 0x0 KECCAK256 PUSH1 0x1 ADD PUSH1 0x1 DUP3 PUSH3 0x21CC SWAP2 SWAP1 PUSH3 0x32B2 JUMP JUMPDEST DUP2 SLOAD DUP2 LT PUSH3 0x21E0 JUMPI PUSH3 0x21DF PUSH3 0x2DE2 JUMP JUMPDEST JUMPDEST SWAP1 PUSH1 0x0 MSTORE PUSH1 0x20 PUSH1 0x0 KECCAK256 ADD PUSH1 0x0 SWAP1 SLOAD SWAP1 PUSH2 0x100 EXP SWAP1 DIV PUSH20 0xFFFFFFFFFFFFFFFFFFFFFFFFFFFFFFFFFFFFFFFF AND PUSH1 0x6 PUSH1 0x0 DUP7 PUSH20 0xFFFFFFFFFFFFFFFFFFFFFFFFFFFFFFFFFFFFFFFF AND PUSH20 0xFFFFFFFFFFFFFFFFFFFFFFFFFFFFFFFFFFFFFFFF AND DUP2 MSTORE PUSH1 0x20 ADD SWAP1 DUP2 MSTORE PUSH1 0x20 ADD PUSH1 0x0 KECCAK256 PUSH1 0x1 ADD DUP3 DUP2 SLOAD DUP2 LT PUSH3 0x2262 JUMPI PUSH3 0x2261 PUSH3 0x2DE2 JUMP JUMPDEST JUMPDEST SWAP1 PUSH1 0x0 MSTORE PUSH1 0x20 PUSH1 0x0 KECCAK256 ADD PUSH1 0x0 PUSH2 0x100 EXP DUP2 SLOAD DUP2 PUSH20 0xFFFFFFFFFFFFFFFFFFFFFFFFFFFFFFFFFFFFFFFF MUL NOT AND SWAP1 DUP4 PUSH20 0xFFFFFFFFFFFFFFFFFFFFFFFFFFFFFFFFFFFFFFFF AND MUL OR SWAP1 SSTORE POP DUP1 DUP1 PUSH3 0x22B7 SWAP1 PUSH3 0x2E11 JUMP JUMPDEST SWAP2 POP POP PUSH3 0x211F JUMP JUMPDEST POP PUSH1 0x6 PUSH1 0x0 DUP5 PUSH20 0xFFFFFFFFFFFFFFFFFFFFFFFFFFFFFFFFFFFFFFFF AND PUSH20 0xFFFFFFFFFFFFFFFFFFFFFFFFFFFFFFFFFFFFFFFF AND DUP2 MSTORE PUSH1 0x20 ADD SWAP1 DUP2 MSTORE PUSH1 0x20 ADD PUSH1 0x0 KECCAK256 PUSH1 0x2 ADD PUSH1 0x6 PUSH1 0x0 DUP6 PUSH20 0xFFFFFFFFFFFFFFFFFFFFFFFFFFFFFFFFFFFFFFFF AND PUSH20 0xFFFFFFFFFFFFFFFFFFFFFFFFFFFFFFFFFFFFFFFF AND DUP2 MSTORE PUSH1 0x20 ADD SWAP1 DUP2 MSTORE PUSH1 0x20 ADD PUSH1 0x0 KECCAK256 PUSH1 0x1 ADD PUSH1 0x1 PUSH1 0x6 PUSH1 0x0 DUP8 PUSH20 0xFFFFFFFFFFFFFFFFFFFFFFFFFFFFFFFFFFFFFFFF AND PUSH20 0xFFFFFFFFFFFFFFFFFFFFFFFFFFFFFFFFFFFFFFFF AND DUP2 MSTORE PUSH1 0x20 ADD SWAP1 DUP2 MSTORE PUSH1 0x20 ADD PUSH1 0x0 KECCAK256 PUSH1 0x1 ADD DUP1 SLOAD SWAP1 POP PUSH3 0x2399 SWAP2 SWAP1 PUSH3 0x2DA7 JUMP JUMPDEST DUP2 SLOAD DUP2 LT PUSH3 0x23AD JUMPI PUSH3 0x23AC PUSH3 0x2DE2 JUMP JUMPDEST JUMPDEST SWAP1 PUSH1 0x0 MSTORE PUSH1 0x20 PUSH1 0x0 KECCAK256 ADD PUSH1 0x0 SWAP1 SLOAD SWAP1 PUSH2 0x100 EXP SWAP1 DIV PUSH20 0xFFFFFFFFFFFFFFFFFFFFFFFFFFFFFFFFFFFFFFFF AND SWAP1 DUP1 PUSH1 0x1 DUP2 SLOAD ADD DUP1 DUP3 SSTORE DUP1 SWAP2 POP POP PUSH1 0x1 SWAP1 SUB SWAP1 PUSH1 0x0 MSTORE PUSH1 0x20 PUSH1 0x0 KECCAK256 ADD PUSH1 0x0 SWAP1 SWAP2 SWAP1 SWAP2 SWAP1 SWAP2 PUSH2 0x100 EXP DUP2 SLOAD DUP2 PUSH20 0xFFFFFFFFFFFFFFFFFFFFFFFFFFFFFFFFFFFFFFFF MUL NOT AND SWAP1 DUP4 PUSH20 0xFFFFFFFFFFFFFFFFFFFFFFFFFFFFFFFFFFFFFFFF AND MUL OR SWAP1 SSTORE POP PUSH1 0x6 PUSH1 0x0 DUP5 PUSH20 0xFFFFFFFFFFFFFFFFFFFFFFFFFFFFFFFFFFFFFFFF AND PUSH20 0xFFFFFFFFFFFFFFFFFFFFFFFFFFFFFFFFFFFFFFFF AND DUP2 MSTORE PUSH1 0x20 ADD SWAP1 DUP2 MSTORE PUSH1 0x20 ADD PUSH1 0x0 KECCAK256 PUSH1 0x1 ADD DUP1 SLOAD DUP1 PUSH3 0x248D JUMPI PUSH3 0x248C PUSH3 0x330F JUMP JUMPDEST JUMPDEST PUSH1 0x1 SWAP1 SUB DUP2 DUP2 SWAP1 PUSH1 0x0 MSTORE PUSH1 0x20 PUSH1 0x0 KECCAK256 ADD PUSH1 0x0 PUSH2 0x100 EXP DUP2 SLOAD SWAP1 PUSH20 0xFFFFFFFFFFFFFFFFFFFFFFFFFFFFFFFFFFFFFFFF MUL NOT AND SWAP1 SSTORE SWAP1 SSTORE POP POP POP JUMP JUMPDEST PUSH1 0x0 DUP1 PUSH1 0x0 JUMPDEST PUSH1 0x1 PUSH1 0x0 DUP1 DUP8 PUSH20 0xFFFFFFFFFFFFFFFFFFFFFFFFFFFFFFFFFFFFFFFF AND PUSH20 0xFFFFFFFFFFFFFFFFFFFFFFFFFFFFFFFFFFFFFFFF AND DUP2 MSTORE PUSH1 0x20 ADD SWAP1 DUP2 MSTORE PUSH1 0x20 ADD PUSH1 0x0 KECCAK256 PUSH1 0x1 ADD DUP1 SLOAD SWAP1 POP PUSH3 0x2520 SWAP2 SWAP1 PUSH3 0x2DA7 JUMP JUMPDEST DUP2 GT PUSH3 0x25F6 JUMPI DUP4 PUSH20 0xFFFFFFFFFFFFFFFFFFFFFFFFFFFFFFFFFFFFFFFF AND PUSH1 0x0 DUP1 DUP8 PUSH20 0xFFFFFFFFFFFFFFFFFFFFFFFFFFFFFFFFFFFFFFFF AND PUSH20 0xFFFFFFFFFFFFFFFFFFFFFFFFFFFFFFFFFFFFFFFF AND DUP2 MSTORE PUSH1 0x20 ADD SWAP1 DUP2 MSTORE PUSH1 0x20 ADD PUSH1 0x0 KECCAK256 PUSH1 0x1 ADD DUP3 DUP2 SLOAD DUP2 LT PUSH3 0x2594 JUMPI PUSH3 0x2593 PUSH3 0x2DE2 JUMP JUMPDEST JUMPDEST SWAP1 PUSH1 0x0 MSTORE PUSH1 0x20 PUSH1 0x0 KECCAK256 ADD PUSH1 0x0 SWAP1 SLOAD SWAP1 PUSH2 0x100 EXP SWAP1 DIV PUSH20 0xFFFFFFFFFFFFFFFFFFFFFFFFFFFFFFFFFFFFFFFF AND PUSH20 0xFFFFFFFFFFFFFFFFFFFFFFFFFFFFFFFFFFFFFFFF AND EQ ISZERO PUSH3 0x25E0 JUMPI DUP1 SWAP2 POP JUMPDEST DUP1 DUP1 PUSH3 0x25ED SWAP1 PUSH3 0x2E11 JUMP JUMPDEST SWAP2 POP POP PUSH3 0x24CD JUMP JUMPDEST POP DUP1 SWAP2 POP POP SWAP3 SWAP2 POP POP JUMP JUMPDEST PUSH1 0x0 DUP1 PUSH1 0x0 JUMPDEST PUSH1 0x1 PUSH1 0x6 PUSH1 0x0 DUP8 PUSH20 0xFFFFFFFFFFFFFFFFFFFFFFFFFFFFFFFFFFFFFFFF AND PUSH20 0xFFFFFFFFFFFFFFFFFFFFFFFFFFFFFFFFFFFFFFFF AND DUP2 MSTORE PUSH1 0x20 ADD SWAP1 DUP2 MSTORE PUSH1 0x20 ADD PUSH1 0x0 KECCAK256 PUSH1 0x1 ADD DUP1 SLOAD SWAP1 POP PUSH3 0x265B SWAP2 SWAP1 PUSH3 0x2DA7 JUMP JUMPDEST DUP2 GT PUSH3 0x2732 JUMPI DUP4 PUSH20 0xFFFFFFFFFFFFFFFFFFFFFFFFFFFFFFFFFFFFFFFF AND PUSH1 0x6 PUSH1 0x0 DUP8 PUSH20 0xFFFFFFFFFFFFFFFFFFFFFFFFFFFFFFFFFFFFFFFF AND PUSH20 0xFFFFFFFFFFFFFFFFFFFFFFFFFFFFFFFFFFFFFFFF AND DUP2 MSTORE PUSH1 0x20 ADD SWAP1 DUP2 MSTORE PUSH1 0x20 ADD PUSH1 0x0 KECCAK256 PUSH1 0x1 ADD DUP3 DUP2 SLOAD DUP2 LT PUSH3 0x26D0 JUMPI PUSH3 0x26CF PUSH3 0x2DE2 JUMP JUMPDEST JUMPDEST SWAP1 PUSH1 0x0 MSTORE PUSH1 0x20 PUSH1 0x0 KECCAK256 ADD PUSH1 0x0 SWAP1 SLOAD SWAP1 PUSH2 0x100 EXP SWAP1 DIV PUSH20 0xFFFFFFFFFFFFFFFFFFFFFFFFFFFFFFFFFFFFFFFF AND PUSH20 0xFFFFFFFFFFFFFFFFFFFFFFFFFFFFFFFFFFFFFFFF AND EQ ISZERO PUSH3 0x271C JUMPI DUP1 SWAP2 POP JUMPDEST DUP1 DUP1 PUSH3 0x2729 SWAP1 PUSH3 0x2E11 JUMP JUMPDEST SWAP2 POP POP PUSH3 0x2607 JUMP JUMPDEST POP DUP1 SWAP2 POP POP SWAP3 SWAP2 POP POP JUMP JUMPDEST PUSH2 0x8CB DUP1 PUSH3 0x333F DUP4 CODECOPY ADD SWAP1 JUMP JUMPDEST PUSH2 0x119C DUP1 PUSH3 0x3C0A DUP4 CODECOPY ADD SWAP1 JUMP JUMPDEST PUSH1 0x0 PUSH1 0x40 MLOAD SWAP1 POP SWAP1 JUMP JUMPDEST PUSH1 0x0 DUP1 REVERT JUMPDEST PUSH1 0x0 DUP1 REVERT JUMPDEST PUSH1 0x0 DUP2 SWAP1 POP SWAP2 SWAP1 POP JUMP JUMPDEST PUSH3 0x2782 DUP2 PUSH3 0x276D JUMP JUMPDEST DUP2 EQ PUSH3 0x278E JUMPI PUSH1 0x0 DUP1 REVERT JUMPDEST POP JUMP JUMPDEST PUSH1 0x0 DUP2 CALLDATALOAD SWAP1 POP PUSH3 0x27A2 DUP2 PUSH3 0x2777 JUMP JUMPDEST SWAP3 SWAP2 POP POP JUMP JUMPDEST PUSH1 0x0 DUP1 PUSH1 0x40 DUP4 DUP6 SUB SLT ISZERO PUSH3 0x27C2 JUMPI PUSH3 0x27C1 PUSH3 0x2763 JUMP JUMPDEST JUMPDEST PUSH1 0x0 PUSH3 0x27D2 DUP6 DUP3 DUP7 ADD PUSH3 0x2791 JUMP JUMPDEST SWAP3 POP POP PUSH1 0x20 PUSH3 0x27E5 DUP6 DUP3 DUP7 ADD PUSH3 0x2791 JUMP JUMPDEST SWAP2 POP POP SWAP3 POP SWAP3 SWAP1 POP JUMP JUMPDEST PUSH1 0x0 DUP2 MLOAD SWAP1 POP SWAP2 SWAP1 POP JUMP JUMPDEST PUSH1 0x0 DUP3 DUP3 MSTORE PUSH1 0x20 DUP3 ADD SWAP1 POP SWAP3 SWAP2 POP POP JUMP JUMPDEST PUSH1 0x0 DUP2 SWAP1 POP PUSH1 0x20 DUP3 ADD SWAP1 POP SWAP2 SWAP1 POP JUMP JUMPDEST PUSH1 0x0 PUSH20 0xFFFFFFFFFFFFFFFFFFFFFFFFFFFFFFFFFFFFFFFF DUP3 AND SWAP1 POP SWAP2 SWAP1 POP JUMP JUMPDEST PUSH1 0x0 PUSH3 0x2848 DUP3 PUSH3 0x281B JUMP JUMPDEST SWAP1 POP SWAP2 SWAP1 POP JUMP JUMPDEST PUSH3 0x285A DUP2 PUSH3 0x283B JUMP JUMPDEST DUP3 MSTORE POP POP JUMP JUMPDEST PUSH1 0x0 PUSH3 0x286E DUP4 DUP4 PUSH3 0x284F JUMP JUMPDEST PUSH1 0x20 DUP4 ADD SWAP1 POP SWAP3 SWAP2 POP POP JUMP JUMPDEST PUSH1 0x0 PUSH1 0x20 DUP3 ADD SWAP1 POP SWAP2 SWAP1 POP JUMP JUMPDEST PUSH1 0x0 PUSH3 0x2894 DUP3 PUSH3 0x27EF JUMP JUMPDEST PUSH3 0x28A0 DUP2 DUP6 PUSH3 0x27FA JUMP JUMPDEST SWAP4 POP PUSH3 0x28AD DUP4 PUSH3 0x280B JUMP JUMPDEST DUP1 PUSH1 0x0 JUMPDEST DUP4 DUP2 LT ISZERO PUSH3 0x28E4 JUMPI DUP2 MLOAD PUSH3 0x28C8 DUP9 DUP3 PUSH3 0x2860 JUMP JUMPDEST SWAP8 POP PUSH3 0x28D5 DUP4 PUSH3 0x287A JUMP JUMPDEST SWAP3 POP POP PUSH1 0x1 DUP2 ADD SWAP1 POP PUSH3 0x28B1 JUMP JUMPDEST POP DUP6 SWAP4 POP POP POP POP SWAP3 SWAP2 POP POP JUMP JUMPDEST PUSH1 0x0 PUSH1 0x20 DUP3 ADD SWAP1 POP DUP2 DUP2 SUB PUSH1 0x0 DUP4 ADD MSTORE PUSH3 0x290D DUP2 DUP5 PUSH3 0x2887 JUMP JUMPDEST SWAP1 POP SWAP3 SWAP2 POP POP JUMP JUMPDEST PUSH3 0x2920 DUP2 PUSH3 0x283B JUMP JUMPDEST DUP2 EQ PUSH3 0x292C JUMPI PUSH1 0x0 DUP1 REVERT JUMPDEST POP JUMP JUMPDEST PUSH1 0x0 DUP2 CALLDATALOAD SWAP1 POP PUSH3 0x2940 DUP2 PUSH3 0x2915 JUMP JUMPDEST SWAP3 SWAP2 POP POP JUMP JUMPDEST PUSH1 0x0 PUSH1 0x20 DUP3 DUP5 SUB SLT ISZERO PUSH3 0x295F JUMPI PUSH3 0x295E PUSH3 0x2763 JUMP JUMPDEST JUMPDEST PUSH1 0x0 PUSH3 0x296F DUP5 DUP3 DUP6 ADD PUSH3 0x292F JUMP JUMPDEST SWAP2 POP POP SWAP3 SWAP2 POP POP JUMP JUMPDEST PUSH1 0x0 PUSH1 0x20 DUP3 DUP5 SUB SLT ISZERO PUSH3 0x2991 JUMPI PUSH3 0x2990 PUSH3 0x2763 JUMP JUMPDEST JUMPDEST PUSH1 0x0 PUSH3 0x29A1 DUP5 DUP3 DUP6 ADD PUSH3 0x2791 JUMP JUMPDEST SWAP2 POP POP SWAP3 SWAP2 POP POP JUMP JUMPDEST PUSH3 0x29B5 DUP2 PUSH3 0x283B JUMP JUMPDEST DUP3 MSTORE POP POP JUMP JUMPDEST PUSH1 0x0 PUSH1 0x20 DUP3 ADD SWAP1 POP PUSH3 0x29D2 PUSH1 0x0 DUP4 ADD DUP5 PUSH3 0x29AA JUMP JUMPDEST SWAP3 SWAP2 POP POP JUMP JUMPDEST PUSH3 0x29E3 DUP2 PUSH3 0x276D JUMP JUMPDEST DUP3 MSTORE POP POP JUMP JUMPDEST PUSH1 0x0 PUSH1 0x20 DUP3 ADD SWAP1 POP PUSH3 0x2A00 PUSH1 0x0 DUP4 ADD DUP5 PUSH3 0x29D8 JUMP JUMPDEST SWAP3 SWAP2 POP POP JUMP JUMPDEST PUSH1 0x0 DUP1 REVERT JUMPDEST PUSH1 0x0 DUP1 REVERT JUMPDEST PUSH1 0x0 PUSH1 0x1F NOT PUSH1 0x1F DUP4 ADD AND SWAP1 POP SWAP2 SWAP1 POP JUMP JUMPDEST PUSH32 0x4E487B7100000000000000000000000000000000000000000000000000000000 PUSH1 0x0 MSTORE PUSH1 0x41 PUSH1 0x4 MSTORE PUSH1 0x24 PUSH1 0x0 REVERT JUMPDEST PUSH3 0x2A5B DUP3 PUSH3 0x2A10 JUMP JUMPDEST DUP2 ADD DUP2 DUP2 LT PUSH8 0xFFFFFFFFFFFFFFFF DUP3 GT OR ISZERO PUSH3 0x2A7D JUMPI PUSH3 0x2A7C PUSH3 0x2A21 JUMP JUMPDEST JUMPDEST DUP1 PUSH1 0x40 MSTORE POP POP POP JUMP JUMPDEST PUSH1 0x0 PUSH3 0x2A92 PUSH3 0x2759 JUMP JUMPDEST SWAP1 POP PUSH3 0x2AA0 DUP3 DUP3 PUSH3 0x2A50 JUMP JUMPDEST SWAP2 SWAP1 POP JUMP JUMPDEST PUSH1 0x0 PUSH8 0xFFFFFFFFFFFFFFFF DUP3 GT ISZERO PUSH3 0x2AC3 JUMPI PUSH3 0x2AC2 PUSH3 0x2A21 JUMP JUMPDEST JUMPDEST PUSH3 0x2ACE DUP3 PUSH3 0x2A10 JUMP JUMPDEST SWAP1 POP PUSH1 0x20 DUP2 ADD SWAP1 POP SWAP2 SWAP1 POP JUMP JUMPDEST DUP3 DUP2 DUP4 CALLDATACOPY PUSH1 0x0 DUP4 DUP4 ADD MSTORE POP POP POP JUMP JUMPDEST PUSH1 0x0 PUSH3 0x2B01 PUSH3 0x2AFB DUP5 PUSH3 0x2AA5 JUMP JUMPDEST PUSH3 0x2A86 JUMP JUMPDEST SWAP1 POP DUP3 DUP2 MSTORE PUSH1 0x20 DUP2 ADD DUP5 DUP5 DUP5 ADD GT ISZERO PUSH3 0x2B20 JUMPI PUSH3 0x2B1F PUSH3 0x2A0B JUMP JUMPDEST JUMPDEST PUSH3 0x2B2D DUP5 DUP3 DUP6 PUSH3 0x2ADB JUMP JUMPDEST POP SWAP4 SWAP3 POP POP POP JUMP JUMPDEST PUSH1 0x0 DUP3 PUSH1 0x1F DUP4 ADD SLT PUSH3 0x2B4D JUMPI PUSH3 0x2B4C PUSH3 0x2A06 JUMP JUMPDEST JUMPDEST DUP2 CALLDATALOAD PUSH3 0x2B5F DUP5 DUP3 PUSH1 0x20 DUP7 ADD PUSH3 0x2AEA JUMP JUMPDEST SWAP2 POP POP SWAP3 SWAP2 POP POP JUMP JUMPDEST PUSH1 0x0 PUSH3 0x2B75 DUP3 PUSH3 0x281B JUMP JUMPDEST SWAP1 POP SWAP2 SWAP1 POP JUMP JUMPDEST PUSH3 0x2B87 DUP2 PUSH3 0x2B68 JUMP JUMPDEST DUP2 EQ PUSH3 0x2B93 JUMPI PUSH1 0x0 DUP1 REVERT JUMPDEST POP JUMP JUMPDEST PUSH1 0x0 DUP2 CALLDATALOAD SWAP1 POP PUSH3 0x2BA7 DUP2 PUSH3 0x2B7C JUMP JUMPDEST SWAP3 SWAP2 POP POP JUMP JUMPDEST PUSH1 0x0 DUP1 PUSH1 0x0 DUP1 PUSH1 0x80 DUP6 DUP8 SUB SLT ISZERO PUSH3 0x2BCA JUMPI PUSH3 0x2BC9 PUSH3 0x2763 JUMP JUMPDEST JUMPDEST PUSH1 0x0 PUSH3 0x2BDA DUP8 DUP3 DUP9 ADD PUSH3 0x292F JUMP JUMPDEST SWAP5 POP POP PUSH1 0x20 DUP6 ADD CALLDATALOAD PUSH8 0xFFFFFFFFFFFFFFFF DUP2 GT ISZERO PUSH3 0x2BFE JUMPI PUSH3 0x2BFD PUSH3 0x2768 JUMP JUMPDEST JUMPDEST PUSH3 0x2C0C DUP8 DUP3 DUP9 ADD PUSH3 0x2B35 JUMP JUMPDEST SWAP4 POP POP PUSH1 0x40 DUP6 ADD CALLDATALOAD PUSH8 0xFFFFFFFFFFFFFFFF DUP2 GT ISZERO PUSH3 0x2C30 JUMPI PUSH3 0x2C2F PUSH3 0x2768 JUMP JUMPDEST JUMPDEST PUSH3 0x2C3E DUP8 DUP3 DUP9 ADD PUSH3 0x2B35 JUMP JUMPDEST SWAP3 POP POP PUSH1 0x60 PUSH3 0x2C51 DUP8 DUP3 DUP9 ADD PUSH3 0x2B96 JUMP JUMPDEST SWAP2 POP POP SWAP3 SWAP6 SWAP2 SWAP5 POP SWAP3 POP JUMP JUMPDEST PUSH1 0x0 DUP3 DUP3 MSTORE PUSH1 0x20 DUP3 ADD SWAP1 POP SWAP3 SWAP2 POP POP JUMP JUMPDEST PUSH32 0x537461727420696E6465782063616E6E6F74206265206E656761746976650000 PUSH1 0x0 DUP3 ADD MSTORE POP JUMP JUMPDEST PUSH1 0x0 PUSH3 0x2CA6 PUSH1 0x1E DUP4 PUSH3 0x2C5D JUMP JUMPDEST SWAP2 POP PUSH3 0x2CB3 DUP3 PUSH3 0x2C6E JUMP JUMPDEST PUSH1 0x20 DUP3 ADD SWAP1 POP SWAP2 SWAP1 POP JUMP JUMPDEST PUSH1 0x0 PUSH1 0x20 DUP3 ADD SWAP1 POP DUP2 DUP2 SUB PUSH1 0x0 DUP4 ADD MSTORE PUSH3 0x2CD9 DUP2 PUSH3 0x2C97 JUMP JUMPDEST SWAP1 POP SWAP2 SWAP1 POP JUMP JUMPDEST PUSH32 0x456E6420696E6465782065786365656473207573657220616464726573736573 PUSH1 0x0 DUP3 ADD MSTORE PUSH32 0x206C656E67746800000000000000000000000000000000000000000000000000 PUSH1 0x20 DUP3 ADD MSTORE POP JUMP JUMPDEST PUSH1 0x0 PUSH3 0x2D3E PUSH1 0x27 DUP4 PUSH3 0x2C5D JUMP JUMPDEST SWAP2 POP PUSH3 0x2D4B DUP3 PUSH3 0x2CE0 JUMP JUMPDEST PUSH1 0x40 DUP3 ADD SWAP1 POP SWAP2 SWAP1 POP JUMP JUMPDEST PUSH1 0x0 PUSH1 0x20 DUP3 ADD SWAP1 POP DUP2 DUP2 SUB PUSH1 0x0 DUP4 ADD MSTORE PUSH3 0x2D71 DUP2 PUSH3 0x2D2F JUMP JUMPDEST SWAP1 POP SWAP2 SWAP1 POP JUMP JUMPDEST PUSH32 0x4E487B7100000000000000000000000000000000000000000000000000000000 PUSH1 0x0 MSTORE PUSH1 0x11 PUSH1 0x4 MSTORE PUSH1 0x24 PUSH1 0x0 REVERT JUMPDEST PUSH1 0x0 PUSH3 0x2DB4 DUP3 PUSH3 0x276D JUMP JUMPDEST SWAP2 POP PUSH3 0x2DC1 DUP4 PUSH3 0x276D JUMP JUMPDEST SWAP3 POP DUP3 DUP3 LT ISZERO PUSH3 0x2DD7 JUMPI PUSH3 0x2DD6 PUSH3 0x2D78 JUMP JUMPDEST JUMPDEST DUP3 DUP3 SUB SWAP1 POP SWAP3 SWAP2 POP POP JUMP JUMPDEST PUSH32 0x4E487B7100000000000000000000000000000000000000000000000000000000 PUSH1 0x0 MSTORE PUSH1 0x32 PUSH1 0x4 MSTORE PUSH1 0x24 PUSH1 0x0 REVERT JUMPDEST PUSH1 0x0 PUSH3 0x2E1E DUP3 PUSH3 0x276D JUMP JUMPDEST SWAP2 POP PUSH32 0xFFFFFFFFFFFFFFFFFFFFFFFFFFFFFFFFFFFFFFFFFFFFFFFFFFFFFFFFFFFFFFFF DUP3 EQ ISZERO PUSH3 0x2E54 JUMPI PUSH3 0x2E53 PUSH3 0x2D78 JUMP JUMPDEST JUMPDEST PUSH1 0x1 DUP3 ADD SWAP1 POP SWAP2 SWAP1 POP JUMP JUMPDEST PUSH1 0x0 DUP2 MLOAD SWAP1 POP PUSH3 0x2E70 DUP2 PUSH3 0x2915 JUMP JUMPDEST SWAP3 SWAP2 POP POP JUMP JUMPDEST PUSH1 0x0 PUSH1 0x20 DUP3 DUP5 SUB SLT ISZERO PUSH3 0x2E8F JUMPI PUSH3 0x2E8E PUSH3 0x2763 JUMP JUMPDEST JUMPDEST PUSH1 0x0 PUSH3 0x2E9F DUP5 DUP3 DUP6 ADD PUSH3 0x2E5F JUMP JUMPDEST SWAP2 POP POP SWAP3 SWAP2 POP POP JUMP JUMPDEST PUSH32 0x4F6E6C7920636F6E747261637420726566657265652063616E20617070726F76 PUSH1 0x0 DUP3 ADD MSTORE PUSH32 0x65207265717565737420666F7220636F6D706C6574696F6E0000000000000000 PUSH1 0x20 DUP3 ADD MSTORE POP JUMP JUMPDEST PUSH1 0x0 PUSH3 0x2F06 PUSH1 0x38 DUP4 PUSH3 0x2C5D JUMP JUMPDEST SWAP2 POP PUSH3 0x2F13 DUP3 PUSH3 0x2EA8 JUMP JUMPDEST PUSH1 0x40 DUP3 ADD SWAP1 POP SWAP2 SWAP1 POP JUMP JUMPDEST PUSH1 0x0 PUSH1 0x20 DUP3 ADD SWAP1 POP DUP2 DUP2 SUB PUSH1 0x0 DUP4 ADD MSTORE PUSH3 0x2F39 DUP2 PUSH3 0x2EF7 JUMP JUMPDEST SWAP1 POP SWAP2 SWAP1 POP JUMP JUMPDEST PUSH1 0x0 PUSH3 0x2F4D DUP3 PUSH3 0x283B JUMP JUMPDEST SWAP1 POP SWAP2 SWAP1 POP JUMP JUMPDEST PUSH3 0x2F5F DUP2 PUSH3 0x2F40 JUMP JUMPDEST DUP2 EQ PUSH3 0x2F6B JUMPI PUSH1 0x0 DUP1 REVERT JUMPDEST POP JUMP JUMPDEST PUSH1 0x0 DUP2 MLOAD SWAP1 POP PUSH3 0x2F7F DUP2 PUSH3 0x2F54 JUMP JUMPDEST SWAP3 SWAP2 POP POP JUMP JUMPDEST PUSH1 0x0 PUSH1 0x20 DUP3 DUP5 SUB SLT ISZERO PUSH3 0x2F9E JUMPI PUSH3 0x2F9D PUSH3 0x2763 JUMP JUMPDEST JUMPDEST PUSH1 0x0 PUSH3 0x2FAE DUP5 DUP3 DUP6 ADD PUSH3 0x2F6E JUMP JUMPDEST SWAP2 POP POP SWAP3 SWAP2 POP POP JUMP JUMPDEST PUSH32 0x4E487B7100000000000000000000000000000000000000000000000000000000 PUSH1 0x0 MSTORE PUSH1 0x21 PUSH1 0x4 MSTORE PUSH1 0x24 PUSH1 0x0 REVERT JUMPDEST PUSH1 0x3 DUP2 LT PUSH3 0x2FF4 JUMPI PUSH1 0x0 DUP1 REVERT JUMPDEST POP JUMP JUMPDEST PUSH1 0x0 DUP2 MLOAD SWAP1 POP PUSH3 0x3008 DUP2 PUSH3 0x2FE6 JUMP JUMPDEST SWAP3 SWAP2 POP POP JUMP JUMPDEST PUSH1 0x0 PUSH1 0x20 DUP3 DUP5 SUB SLT ISZERO PUSH3 0x3027 JUMPI PUSH3 0x3026 PUSH3 0x2763 JUMP JUMPDEST JUMPDEST PUSH1 0x0 PUSH3 0x3037 DUP5 DUP3 DUP6 ADD PUSH3 0x2FF7 JUMP JUMPDEST SWAP2 POP POP SWAP3 SWAP2 POP POP JUMP JUMPDEST PUSH32 0x436F6E747261637420737461747573206D757374206265206F70656E00000000 PUSH1 0x0 DUP3 ADD MSTORE POP JUMP JUMPDEST PUSH1 0x0 PUSH3 0x3078 PUSH1 0x1C DUP4 PUSH3 0x2C5D JUMP JUMPDEST SWAP2 POP PUSH3 0x3085 DUP3 PUSH3 0x3040 JUMP JUMPDEST PUSH1 0x20 DUP3 ADD SWAP1 POP SWAP2 SWAP1 POP JUMP JUMPDEST PUSH1 0x0 PUSH1 0x20 DUP3 ADD SWAP1 POP DUP2 DUP2 SUB PUSH1 0x0 DUP4 ADD MSTORE PUSH3 0x30AB DUP2 PUSH3 0x3069 JUMP JUMPDEST SWAP1 POP SWAP2 SWAP1 POP JUMP JUMPDEST PUSH32 0x4F6E6C792063726561746F72206F6620636F6E74726163742063616E20726571 PUSH1 0x0 DUP3 ADD MSTORE PUSH32 0x7565737420636F6D706C6574696F6E0000000000000000000000000000000000 PUSH1 0x20 DUP3 ADD MSTORE POP JUMP JUMPDEST PUSH1 0x0 PUSH3 0x3110 PUSH1 0x2F DUP4 PUSH3 0x2C5D JUMP JUMPDEST SWAP2 POP PUSH3 0x311D DUP3 PUSH3 0x30B2 JUMP JUMPDEST PUSH1 0x40 DUP3 ADD SWAP1 POP SWAP2 SWAP1 POP JUMP JUMPDEST PUSH1 0x0 PUSH1 0x20 DUP3 ADD SWAP1 POP DUP2 DUP2 SUB PUSH1 0x0 DUP4 ADD MSTORE PUSH3 0x3143 DUP2 PUSH3 0x3101 JUMP JUMPDEST SWAP1 POP SWAP2 SWAP1 POP JUMP JUMPDEST PUSH1 0x0 DUP2 MLOAD SWAP1 POP SWAP2 SWAP1 POP JUMP JUMPDEST PUSH1 0x0 JUMPDEST DUP4 DUP2 LT ISZERO PUSH3 0x3175 JUMPI DUP1 DUP3 ADD MLOAD DUP2 DUP5 ADD MSTORE PUSH1 0x20 DUP2 ADD SWAP1 POP PUSH3 0x3158 JUMP JUMPDEST DUP4 DUP2 GT ISZERO PUSH3 0x3185 JUMPI PUSH1 0x0 DUP5 DUP5 ADD MSTORE JUMPDEST POP POP POP POP JUMP JUMPDEST PUSH1 0x0 PUSH3 0x3198 DUP3 PUSH3 0x314A JUMP JUMPDEST PUSH3 0x31A4 DUP2 DUP6 PUSH3 0x2C5D JUMP JUMPDEST SWAP4 POP PUSH3 0x31B6 DUP2 DUP6 PUSH1 0x20 DUP7 ADD PUSH3 0x3155 JUMP JUMPDEST PUSH3 0x31C1 DUP2 PUSH3 0x2A10 JUMP JUMPDEST DUP5 ADD SWAP2 POP POP SWAP3 SWAP2 POP POP JUMP JUMPDEST PUSH1 0x0 DUP2 SWAP1 POP SWAP2 SWAP1 POP JUMP JUMPDEST PUSH1 0x0 PUSH3 0x31F7 PUSH3 0x31F1 PUSH3 0x31EB DUP5 PUSH3 0x281B JUMP JUMPDEST PUSH3 0x31CC JUMP JUMPDEST PUSH3 0x281B JUMP JUMPDEST SWAP1 POP SWAP2 SWAP1 POP JUMP JUMPDEST PUSH1 0x0 PUSH3 0x320B DUP3 PUSH3 0x31D6 JUMP JUMPDEST SWAP1 POP SWAP2 SWAP1 POP JUMP JUMPDEST PUSH1 0x0 PUSH3 0x321F DUP3 PUSH3 0x31FE JUMP JUMPDEST SWAP1 POP SWAP2 SWAP1 POP JUMP JUMPDEST PUSH3 0x3231 DUP2 PUSH3 0x3212 JUMP JUMPDEST DUP3 MSTORE POP POP JUMP JUMPDEST PUSH1 0x0 PUSH1 0xC0 DUP3 ADD SWAP1 POP PUSH3 0x324E PUSH1 0x0 DUP4 ADD DUP10 PUSH3 0x29AA JUMP JUMPDEST PUSH3 0x325D PUSH1 0x20 DUP4 ADD DUP9 PUSH3 0x29AA JUMP JUMPDEST DUP2 DUP2 SUB PUSH1 0x40 DUP4 ADD MSTORE PUSH3 0x3271 DUP2 DUP8 PUSH3 0x318B JUMP JUMPDEST SWAP1 POP DUP2 DUP2 SUB PUSH1 0x60 DUP4 ADD MSTORE PUSH3 0x3287 DUP2 DUP7 PUSH3 0x318B JUMP JUMPDEST SWAP1 POP PUSH3 0x3298 PUSH1 0x80 DUP4 ADD DUP6 PUSH3 0x3226 JUMP JUMPDEST PUSH3 0x32A7 PUSH1 0xA0 DUP4 ADD DUP5 PUSH3 0x29D8 JUMP JUMPDEST SWAP8 SWAP7 POP POP POP POP POP POP POP JUMP JUMPDEST PUSH1 0x0 PUSH3 0x32BF DUP3 PUSH3 0x276D JUMP JUMPDEST SWAP2 POP PUSH3 0x32CC DUP4 PUSH3 0x276D JUMP JUMPDEST SWAP3 POP DUP3 PUSH32 0xFFFFFFFFFFFFFFFFFFFFFFFFFFFFFFFFFFFFFFFFFFFFFFFFFFFFFFFFFFFFFFFF SUB DUP3 GT ISZERO PUSH3 0x3304 JUMPI PUSH3 0x3303 PUSH3 0x2D78 JUMP JUMPDEST JUMPDEST DUP3 DUP3 ADD SWAP1 POP SWAP3 SWAP2 POP POP JUMP JUMPDEST PUSH32 0x4E487B7100000000000000000000000000000000000000000000000000000000 PUSH1 0x0 MSTORE PUSH1 0x31 PUSH1 0x4 MSTORE PUSH1 0x24 PUSH1 0x0 REVERT INVALID PUSH1 0x80 PUSH1 0x40 MSTORE CALLVALUE DUP1 ISZERO PUSH2 0x10 JUMPI PUSH1 0x0 DUP1 REVERT JUMPDEST POP PUSH1 0x40 MLOAD PUSH2 0x8CB CODESIZE SUB DUP1 PUSH2 0x8CB DUP4 CODECOPY DUP2 DUP2 ADD PUSH1 0x40 MSTORE DUP2 ADD SWAP1 PUSH2 0x32 SWAP2 SWAP1 PUSH2 0x26A JUMP JUMPDEST PUSH1 0x0 DUP2 SWAP1 POP DUP1 PUSH20 0xFFFFFFFFFFFFFFFFFFFFFFFFFFFFFFFFFFFFFFFF AND PUSH4 0x2D05D3F PUSH1 0x40 MLOAD DUP2 PUSH4 0xFFFFFFFF AND PUSH1 0xE0 SHL DUP2 MSTORE PUSH1 0x4 ADD PUSH1 0x20 PUSH1 0x40 MLOAD DUP1 DUP4 SUB DUP2 DUP7 GAS STATICCALL ISZERO DUP1 ISZERO PUSH2 0x82 JUMPI RETURNDATASIZE PUSH1 0x0 DUP1 RETURNDATACOPY RETURNDATASIZE PUSH1 0x0 REVERT JUMPDEST POP POP POP POP PUSH1 0x40 MLOAD RETURNDATASIZE PUSH1 0x1F NOT PUSH1 0x1F DUP3 ADD AND DUP3 ADD DUP1 PUSH1 0x40 MSTORE POP DUP2 ADD SWAP1 PUSH2 0xA6 SWAP2 SWAP1 PUSH2 0x26A JUMP JUMPDEST PUSH1 0x0 DUP1 PUSH2 0x100 EXP DUP2 SLOAD DUP2 PUSH20 0xFFFFFFFFFFFFFFFFFFFFFFFFFFFFFFFFFFFFFFFF MUL NOT AND SWAP1 DUP4 PUSH20 0xFFFFFFFFFFFFFFFFFFFFFFFFFFFFFFFFFFFFFFFF AND MUL OR SWAP1 SSTORE POP DUP1 PUSH20 0xFFFFFFFFFFFFFFFFFFFFFFFFFFFFFFFFFFFFFFFF AND PUSH4 0x3B1BEBD1 PUSH1 0x40 MLOAD DUP2 PUSH4 0xFFFFFFFF AND PUSH1 0xE0 SHL DUP2 MSTORE PUSH1 0x4 ADD PUSH1 0x20 PUSH1 0x40 MLOAD DUP1 DUP4 SUB DUP2 DUP7 GAS STATICCALL ISZERO DUP1 ISZERO PUSH2 0x130 JUMPI RETURNDATASIZE PUSH1 0x0 DUP1 RETURNDATACOPY RETURNDATASIZE PUSH1 0x0 REVERT JUMPDEST POP POP POP POP PUSH1 0x40 MLOAD RETURNDATASIZE PUSH1 0x1F NOT PUSH1 0x1F DUP3 ADD AND DUP3 ADD DUP1 PUSH1 0x40 MSTORE POP DUP2 ADD SWAP1 PUSH2 0x154 SWAP2 SWAP1 PUSH2 0x26A JUMP JUMPDEST PUSH1 0x1 PUSH1 0x0 PUSH2 0x100 EXP DUP2 SLOAD DUP2 PUSH20 0xFFFFFFFFFFFFFFFFFFFFFFFFFFFFFFFFFFFFFFFF MUL NOT AND SWAP1 DUP4 PUSH20 0xFFFFFFFFFFFFFFFFFFFFFFFFFFFFFFFFFFFFFFFF AND MUL OR SWAP1 SSTORE POP DUP2 PUSH1 0x2 PUSH1 0x0 PUSH2 0x100 EXP DUP2 SLOAD DUP2 PUSH20 0xFFFFFFFFFFFFFFFFFFFFFFFFFFFFFFFFFFFFFFFF MUL NOT AND SWAP1 DUP4 PUSH20 0xFFFFFFFFFFFFFFFFFFFFFFFFFFFFFFFFFFFFFFFF AND MUL OR SWAP1 SSTORE POP PUSH1 0x0 PUSH1 0x2 PUSH1 0x14 PUSH2 0x100 EXP DUP2 SLOAD DUP2 PUSH1 0xFF MUL NOT AND SWAP1 DUP4 PUSH1 0x2 DUP2 GT ISZERO PUSH2 0x1FB JUMPI PUSH2 0x1FA PUSH2 0x297 JUMP JUMPDEST JUMPDEST MUL OR SWAP1 SSTORE POP POP POP PUSH2 0x2C6 JUMP JUMPDEST PUSH1 0x0 DUP1 REVERT JUMPDEST PUSH1 0x0 PUSH20 0xFFFFFFFFFFFFFFFFFFFFFFFFFFFFFFFFFFFFFFFF DUP3 AND SWAP1 POP SWAP2 SWAP1 POP JUMP JUMPDEST PUSH1 0x0 PUSH2 0x237 DUP3 PUSH2 0x20C JUMP JUMPDEST SWAP1 POP SWAP2 SWAP1 POP JUMP JUMPDEST PUSH2 0x247 DUP2 PUSH2 0x22C JUMP JUMPDEST DUP2 EQ PUSH2 0x252 JUMPI PUSH1 0x0 DUP1 REVERT JUMPDEST POP JUMP JUMPDEST PUSH1 0x0 DUP2 MLOAD SWAP1 POP PUSH2 0x264 DUP2 PUSH2 0x23E JUMP JUMPDEST SWAP3 SWAP2 POP POP JUMP JUMPDEST PUSH1 0x0 PUSH1 0x20 DUP3 DUP5 SUB SLT ISZERO PUSH2 0x280 JUMPI PUSH2 0x27F PUSH2 0x207 JUMP JUMPDEST JUMPDEST PUSH1 0x0 PUSH2 0x28E DUP5 DUP3 DUP6 ADD PUSH2 0x255 JUMP JUMPDEST SWAP2 POP POP SWAP3 SWAP2 POP POP JUMP JUMPDEST PUSH32 0x4E487B7100000000000000000000000000000000000000000000000000000000 PUSH1 0x0 MSTORE PUSH1 0x21 PUSH1 0x4 MSTORE PUSH1 0x24 PUSH1 0x0 REVERT JUMPDEST PUSH2 0x5F6 DUP1 PUSH2 0x2D5 PUSH1 0x0 CODECOPY PUSH1 0x0 RETURN INVALID PUSH1 0x80 PUSH1 0x40 MSTORE CALLVALUE DUP1 ISZERO PUSH2 0x10 JUMPI PUSH1 0x0 DUP1 REVERT JUMPDEST POP PUSH1 0x4 CALLDATASIZE LT PUSH2 0x62 JUMPI PUSH1 0x0 CALLDATALOAD PUSH1 0xE0 SHR DUP1 PUSH4 0x2D05D3F EQ PUSH2 0x67 JUMPI DUP1 PUSH4 0x200D2ED2 EQ PUSH2 0x85 JUMPI DUP1 PUSH4 0x263B81C9 EQ PUSH2 0xA3 JUMPI DUP1 PUSH4 0x3B1BEBD1 EQ PUSH2 0xC1 JUMPI DUP1 PUSH4 0x3C490174 EQ PUSH2 0xDF JUMPI DUP1 PUSH4 0xA4A44A22 EQ PUSH2 0xFD JUMPI JUMPDEST PUSH1 0x0 DUP1 REVERT JUMPDEST PUSH2 0x6F PUSH2 0x11B JUMP JUMPDEST PUSH1 0x40 MLOAD PUSH2 0x7C SWAP2 SWAP1 PUSH2 0x364 JUMP JUMPDEST PUSH1 0x40 MLOAD DUP1 SWAP2 SUB SWAP1 RETURN JUMPDEST PUSH2 0x8D PUSH2 0x13F JUMP JUMPDEST PUSH1 0x40 MLOAD PUSH2 0x9A SWAP2 SWAP1 PUSH2 0x3F6 JUMP JUMPDEST PUSH1 0x40 MLOAD DUP1 SWAP2 SUB SWAP1 RETURN JUMPDEST PUSH2 0xAB PUSH2 0x152 JUMP JUMPDEST PUSH1 0x40 MLOAD PUSH2 0xB8 SWAP2 SWAP1 PUSH2 0x470 JUMP JUMPDEST PUSH1 0x40 MLOAD DUP1 SWAP2 SUB SWAP1 RETURN JUMPDEST PUSH2 0xC9 PUSH2 0x215 JUMP JUMPDEST PUSH1 0x40 MLOAD PUSH2 0xD6 SWAP2 SWAP1 PUSH2 0x364 JUMP JUMPDEST PUSH1 0x40 MLOAD DUP1 SWAP2 SUB SWAP1 RETURN JUMPDEST PUSH2 0xE7 PUSH2 0x23B JUMP JUMPDEST PUSH1 0x40 MLOAD PUSH2 0xF4 SWAP2 SWAP1 PUSH2 0x364 JUMP JUMPDEST PUSH1 0x40 MLOAD DUP1 SWAP2 SUB SWAP1 RETURN JUMPDEST PUSH2 0x105 PUSH2 0x261 JUMP JUMPDEST PUSH1 0x40 MLOAD PUSH2 0x112 SWAP2 SWAP1 PUSH2 0x470 JUMP JUMPDEST PUSH1 0x40 MLOAD DUP1 SWAP2 SUB SWAP1 RETURN JUMPDEST PUSH1 0x0 DUP1 SLOAD SWAP1 PUSH2 0x100 EXP SWAP1 DIV PUSH20 0xFFFFFFFFFFFFFFFFFFFFFFFFFFFFFFFFFFFFFFFF AND DUP2 JUMP JUMPDEST PUSH1 0x2 PUSH1 0x14 SWAP1 SLOAD SWAP1 PUSH2 0x100 EXP SWAP1 DIV PUSH1 0xFF AND DUP2 JUMP JUMPDEST PUSH1 0x0 PUSH1 0x1 PUSH1 0x0 SWAP1 SLOAD SWAP1 PUSH2 0x100 EXP SWAP1 DIV PUSH20 0xFFFFFFFFFFFFFFFFFFFFFFFFFFFFFFFFFFFFFFFF AND PUSH20 0xFFFFFFFFFFFFFFFFFFFFFFFFFFFFFFFFFFFFFFFF AND ORIGIN PUSH20 0xFFFFFFFFFFFFFFFFFFFFFFFFFFFFFFFFFFFFFFFF AND EQ PUSH2 0x1E4 JUMPI PUSH1 0x40 MLOAD PUSH32 0x8C379A000000000000000000000000000000000000000000000000000000000 DUP2 MSTORE PUSH1 0x4 ADD PUSH2 0x1DB SWAP1 PUSH2 0x50E JUMP JUMPDEST PUSH1 0x40 MLOAD DUP1 SWAP2 SUB SWAP1 REVERT JUMPDEST PUSH1 0x1 PUSH1 0x2 PUSH1 0x14 PUSH2 0x100 EXP DUP2 SLOAD DUP2 PUSH1 0xFF MUL NOT AND SWAP1 DUP4 PUSH1 0x2 DUP2 GT ISZERO PUSH2 0x20A JUMPI PUSH2 0x209 PUSH2 0x37F JUMP JUMPDEST JUMPDEST MUL OR SWAP1 SSTORE POP ADDRESS SWAP1 POP SWAP1 JUMP JUMPDEST PUSH1 0x1 PUSH1 0x0 SWAP1 SLOAD SWAP1 PUSH2 0x100 EXP SWAP1 DIV PUSH20 0xFFFFFFFFFFFFFFFFFFFFFFFFFFFFFFFFFFFFFFFF AND DUP2 JUMP JUMPDEST PUSH1 0x2 PUSH1 0x0 SWAP1 SLOAD SWAP1 PUSH2 0x100 EXP SWAP1 DIV PUSH20 0xFFFFFFFFFFFFFFFFFFFFFFFFFFFFFFFFFFFFFFFF AND DUP2 JUMP JUMPDEST PUSH1 0x0 PUSH1 0x1 PUSH1 0x0 SWAP1 SLOAD SWAP1 PUSH2 0x100 EXP SWAP1 DIV PUSH20 0xFFFFFFFFFFFFFFFFFFFFFFFFFFFFFFFFFFFFFFFF AND PUSH20 0xFFFFFFFFFFFFFFFFFFFFFFFFFFFFFFFFFFFFFFFF AND ORIGIN PUSH20 0xFFFFFFFFFFFFFFFFFFFFFFFFFFFFFFFFFFFFFFFF AND EQ PUSH2 0x2F3 JUMPI PUSH1 0x40 MLOAD PUSH32 0x8C379A000000000000000000000000000000000000000000000000000000000 DUP2 MSTORE PUSH1 0x4 ADD PUSH2 0x2EA SWAP1 PUSH2 0x5A0 JUMP JUMPDEST PUSH1 0x40 MLOAD DUP1 SWAP2 SUB SWAP1 REVERT JUMPDEST PUSH1 0x2 DUP1 PUSH1 0x14 PUSH2 0x100 EXP DUP2 SLOAD DUP2 PUSH1 0xFF MUL NOT AND SWAP1 DUP4 PUSH1 0x2 DUP2 GT ISZERO PUSH2 0x318 JUMPI PUSH2 0x317 PUSH2 0x37F JUMP JUMPDEST JUMPDEST MUL OR SWAP1 SSTORE POP ADDRESS SWAP1 POP SWAP1 JUMP JUMPDEST PUSH1 0x0 PUSH20 0xFFFFFFFFFFFFFFFFFFFFFFFFFFFFFFFFFFFFFFFF DUP3 AND SWAP1 POP SWAP2 SWAP1 POP JUMP JUMPDEST PUSH1 0x0 PUSH2 0x34E DUP3 PUSH2 0x323 JUMP JUMPDEST SWAP1 POP SWAP2 SWAP1 POP JUMP JUMPDEST PUSH2 0x35E DUP2 PUSH2 0x343 JUMP JUMPDEST DUP3 MSTORE POP POP JUMP JUMPDEST PUSH1 0x0 PUSH1 0x20 DUP3 ADD SWAP1 POP PUSH2 0x379 PUSH1 0x0 DUP4 ADD DUP5 PUSH2 0x355 JUMP JUMPDEST SWAP3 SWAP2 POP POP JUMP JUMPDEST PUSH32 0x4E487B7100000000000000000000000000000000000000000000000000000000 PUSH1 0x0 MSTORE PUSH1 0x21 PUSH1 0x4 MSTORE PUSH1 0x24 PUSH1 0x0 REVERT JUMPDEST PUSH1 0x3 DUP2 LT PUSH2 0x3BF JUMPI PUSH2 0x3BE PUSH2 0x37F JUMP JUMPDEST JUMPDEST POP JUMP JUMPDEST PUSH1 0x0 DUP2 SWAP1 POP PUSH2 0x3D0 DUP3 PUSH2 0x3AE JUMP JUMPDEST SWAP2 SWAP1 POP JUMP JUMPDEST PUSH1 0x0 PUSH2 0x3E0 DUP3 PUSH2 0x3C2 JUMP JUMPDEST SWAP1 POP SWAP2 SWAP1 POP JUMP JUMPDEST PUSH2 0x3F0 DUP2 PUSH2 0x3D5 JUMP JUMPDEST DUP3 MSTORE POP POP JUMP JUMPDEST PUSH1 0x0 PUSH1 0x20 DUP3 ADD SWAP1 POP PUSH2 0x40B PUSH1 0x0 DUP4 ADD DUP5 PUSH2 0x3E7 JUMP JUMPDEST SWAP3 SWAP2 POP POP JUMP JUMPDEST PUSH1 0x0 DUP2 SWAP1 POP SWAP2 SWAP1 POP JUMP JUMPDEST PUSH1 0x0 PUSH2 0x436 PUSH2 0x431 PUSH2 0x42C DUP5 PUSH2 0x323 JUMP JUMPDEST PUSH2 0x411 JUMP JUMPDEST PUSH2 0x323 JUMP JUMPDEST SWAP1 POP SWAP2 SWAP1 POP JUMP JUMPDEST PUSH1 0x0 PUSH2 0x448 DUP3 PUSH2 0x41B JUMP JUMPDEST SWAP1 POP SWAP2 SWAP1 POP JUMP JUMPDEST PUSH1 0x0 PUSH2 0x45A DUP3 PUSH2 0x43D JUMP JUMPDEST SWAP1 POP SWAP2 SWAP1 POP JUMP JUMPDEST PUSH2 0x46A DUP2 PUSH2 0x44F JUMP JUMPDEST DUP3 MSTORE POP POP JUMP JUMPDEST PUSH1 0x0 PUSH1 0x20 DUP3 ADD SWAP1 POP PUSH2 0x485 PUSH1 0x0 DUP4 ADD DUP5 PUSH2 0x461 JUMP JUMPDEST SWAP3 SWAP2 POP POP JUMP JUMPDEST PUSH1 0x0 DUP3 DUP3 MSTORE PUSH1 0x20 DUP3 ADD SWAP1 POP SWAP3 SWAP2 POP POP JUMP JUMPDEST PUSH32 0x4F6E6C7920726566657265652063616E20617070726F766520617070726F7661 PUSH1 0x0 DUP3 ADD MSTORE PUSH32 0x6C20726571756573740000000000000000000000000000000000000000000000 PUSH1 0x20 DUP3 ADD MSTORE POP JUMP JUMPDEST PUSH1 0x0 PUSH2 0x4F8 PUSH1 0x29 DUP4 PUSH2 0x48B JUMP JUMPDEST SWAP2 POP PUSH2 0x503 DUP3 PUSH2 0x49C JUMP JUMPDEST PUSH1 0x40 DUP3 ADD SWAP1 POP SWAP2 SWAP1 POP JUMP JUMPDEST PUSH1 0x0 PUSH1 0x20 DUP3 ADD SWAP1 POP DUP2 DUP2 SUB PUSH1 0x0 DUP4 ADD MSTORE PUSH2 0x527 DUP2 PUSH2 0x4EB JUMP JUMPDEST SWAP1 POP SWAP2 SWAP1 POP JUMP JUMPDEST PUSH32 0x4F6E6C7920726566657265652063616E2064656E7920617070726F76616C2072 PUSH1 0x0 DUP3 ADD MSTORE PUSH32 0x6571756573740000000000000000000000000000000000000000000000000000 PUSH1 0x20 DUP3 ADD MSTORE POP JUMP JUMPDEST PUSH1 0x0 PUSH2 0x58A PUSH1 0x26 DUP4 PUSH2 0x48B JUMP JUMPDEST SWAP2 POP PUSH2 0x595 DUP3 PUSH2 0x52E JUMP JUMPDEST PUSH1 0x40 DUP3 ADD SWAP1 POP SWAP2 SWAP1 POP JUMP JUMPDEST PUSH1 0x0 PUSH1 0x20 DUP3 ADD SWAP1 POP DUP2 DUP2 SUB PUSH1 0x0 DUP4 ADD MSTORE PUSH2 0x5B9 DUP2 PUSH2 0x57D JUMP JUMPDEST SWAP1 POP SWAP2 SWAP1 POP JUMP INVALID LOG2 PUSH5 0x6970667358 0x22 SLT KECCAK256 SHL PUSH10 0xBC1632425CC4EE58E5A1 0x5F 0x4D 0x5E CODESIZE SWAP13 EXTCODESIZE XOR CALLDATASIZE 0xEB PUSH1 0x41 0xDA EQ CALLCODE 0xDF LOG1 0xC4 PUSH2 0x6667 PUSH5 0x736F6C6343 STOP ADDMOD 0xC STOP CALLER PUSH1 0x80 PUSH1 0x40 MSTORE PUSH1 0x40 MLOAD PUSH3 0x119C CODESIZE SUB DUP1 PUSH3 0x119C DUP4 CODECOPY DUP2 DUP2 ADD PUSH1 0x40 MSTORE DUP2 ADD SWAP1 PUSH3 0x29 SWAP2 SWAP1 PUSH3 0x44B JUMP JUMPDEST DUP6 PUSH1 0x0 DUP1 PUSH2 0x100 EXP DUP2 SLOAD DUP2 PUSH20 0xFFFFFFFFFFFFFFFFFFFFFFFFFFFFFFFFFFFFFFFF MUL NOT AND SWAP1 DUP4 PUSH20 0xFFFFFFFFFFFFFFFFFFFFFFFFFFFFFFFFFFFFFFFF AND MUL OR SWAP1 SSTORE POP DUP5 PUSH1 0x1 PUSH1 0x0 PUSH2 0x100 EXP DUP2 SLOAD DUP2 PUSH20 0xFFFFFFFFFFFFFFFFFFFFFFFFFFFFFFFFFFFFFFFF MUL NOT AND SWAP1 DUP4 PUSH20 0xFFFFFFFFFFFFFFFFFFFFFFFFFFFFFFFFFFFFFFFF AND MUL OR SWAP1 SSTORE POP DUP4 PUSH1 0x2 SWAP1 DUP1 MLOAD SWAP1 PUSH1 0x20 ADD SWAP1 PUSH3 0xC2 SWAP3 SWAP2 SWAP1 PUSH3 0x15E JUMP JUMPDEST POP DUP3 PUSH1 0x3 SWAP1 DUP1 MLOAD SWAP1 PUSH1 0x20 ADD SWAP1 PUSH3 0xDB SWAP3 SWAP2 SWAP1 PUSH3 0x15E JUMP JUMPDEST POP DUP2 PUSH1 0x4 PUSH1 0x0 PUSH2 0x100 EXP DUP2 SLOAD DUP2 PUSH20 0xFFFFFFFFFFFFFFFFFFFFFFFFFFFFFFFFFFFFFFFF MUL NOT AND SWAP1 DUP4 PUSH20 0xFFFFFFFFFFFFFFFFFFFFFFFFFFFFFFFFFFFFFFFF AND MUL OR SWAP1 SSTORE POP DUP1 PUSH1 0x5 DUP2 SWAP1 SSTORE POP PUSH1 0x0 PUSH1 0x6 PUSH1 0x0 PUSH2 0x100 EXP DUP2 SLOAD DUP2 PUSH1 0xFF MUL NOT AND SWAP1 DUP4 PUSH1 0x2 DUP2 GT ISZERO PUSH3 0x14D JUMPI PUSH3 0x14C PUSH3 0x525 JUMP JUMPDEST JUMPDEST MUL OR SWAP1 SSTORE POP POP POP POP POP POP POP PUSH3 0x5B9 JUMP JUMPDEST DUP3 DUP1 SLOAD PUSH3 0x16C SWAP1 PUSH3 0x583 JUMP JUMPDEST SWAP1 PUSH1 0x0 MSTORE PUSH1 0x20 PUSH1 0x0 KECCAK256 SWAP1 PUSH1 0x1F ADD PUSH1 0x20 SWAP1 DIV DUP2 ADD SWAP3 DUP3 PUSH3 0x190 JUMPI PUSH1 0x0 DUP6 SSTORE PUSH3 0x1DC JUMP JUMPDEST DUP3 PUSH1 0x1F LT PUSH3 0x1AB JUMPI DUP1 MLOAD PUSH1 0xFF NOT AND DUP4 DUP1 ADD OR DUP6 SSTORE PUSH3 0x1DC JUMP JUMPDEST DUP3 DUP1 ADD PUSH1 0x1 ADD DUP6 SSTORE DUP3 ISZERO PUSH3 0x1DC JUMPI SWAP2 DUP3 ADD JUMPDEST DUP3 DUP2 GT ISZERO PUSH3 0x1DB JUMPI DUP3 MLOAD DUP3 SSTORE SWAP2 PUSH1 0x20 ADD SWAP2 SWAP1 PUSH1 0x1 ADD SWAP1 PUSH3 0x1BE JUMP JUMPDEST JUMPDEST POP SWAP1 POP PUSH3 0x1EB SWAP2 SWAP1 PUSH3 0x1EF JUMP JUMPDEST POP SWAP1 JUMP JUMPDEST JUMPDEST DUP1 DUP3 GT ISZERO PUSH3 0x20A JUMPI PUSH1 0x0 DUP2 PUSH1 0x0 SWAP1 SSTORE POP PUSH1 0x1 ADD PUSH3 0x1F0 JUMP JUMPDEST POP SWAP1 JUMP JUMPDEST PUSH1 0x0 PUSH1 0x40 MLOAD SWAP1 POP SWAP1 JUMP JUMPDEST PUSH1 0x0 DUP1 REVERT JUMPDEST PUSH1 0x0 DUP1 REVERT JUMPDEST PUSH1 0x0 PUSH20 0xFFFFFFFFFFFFFFFFFFFFFFFFFFFFFFFFFFFFFFFF DUP3 AND SWAP1 POP SWAP2 SWAP1 POP JUMP JUMPDEST PUSH1 0x0 PUSH3 0x24F DUP3 PUSH3 0x222 JUMP JUMPDEST SWAP1 POP SWAP2 SWAP1 POP JUMP JUMPDEST PUSH3 0x261 DUP2 PUSH3 0x242 JUMP JUMPDEST DUP2 EQ PUSH3 0x26D JUMPI PUSH1 0x0 DUP1 REVERT JUMPDEST POP JUMP JUMPDEST PUSH1 0x0 DUP2 MLOAD SWAP1 POP PUSH3 0x281 DUP2 PUSH3 0x256 JUMP JUMPDEST SWAP3 SWAP2 POP POP JUMP JUMPDEST PUSH1 0x0 DUP1 REVERT JUMPDEST PUSH1 0x0 DUP1 REVERT JUMPDEST PUSH1 0x0 PUSH1 0x1F NOT PUSH1 0x1F DUP4 ADD AND SWAP1 POP SWAP2 SWAP1 POP JUMP JUMPDEST PUSH32 0x4E487B7100000000000000000000000000000000000000000000000000000000 PUSH1 0x0 MSTORE PUSH1 0x41 PUSH1 0x4 MSTORE PUSH1 0x24 PUSH1 0x0 REVERT JUMPDEST PUSH3 0x2DC DUP3 PUSH3 0x291 JUMP JUMPDEST DUP2 ADD DUP2 DUP2 LT PUSH8 0xFFFFFFFFFFFFFFFF DUP3 GT OR ISZERO PUSH3 0x2FE JUMPI PUSH3 0x2FD PUSH3 0x2A2 JUMP JUMPDEST JUMPDEST DUP1 PUSH1 0x40 MSTORE POP POP POP JUMP JUMPDEST PUSH1 0x0 PUSH3 0x313 PUSH3 0x20E JUMP JUMPDEST SWAP1 POP PUSH3 0x321 DUP3 DUP3 PUSH3 0x2D1 JUMP JUMPDEST SWAP2 SWAP1 POP JUMP JUMPDEST PUSH1 0x0 PUSH8 0xFFFFFFFFFFFFFFFF DUP3 GT ISZERO PUSH3 0x344 JUMPI PUSH3 0x343 PUSH3 0x2A2 JUMP JUMPDEST JUMPDEST PUSH3 0x34F DUP3 PUSH3 0x291 JUMP JUMPDEST SWAP1 POP PUSH1 0x20 DUP2 ADD SWAP1 POP SWAP2 SWAP1 POP JUMP JUMPDEST PUSH1 0x0 JUMPDEST DUP4 DUP2 LT ISZERO PUSH3 0x37C JUMPI DUP1 DUP3 ADD MLOAD DUP2 DUP5 ADD MSTORE PUSH1 0x20 DUP2 ADD SWAP1 POP PUSH3 0x35F JUMP JUMPDEST DUP4 DUP2 GT ISZERO PUSH3 0x38C JUMPI PUSH1 0x0 DUP5 DUP5 ADD MSTORE JUMPDEST POP POP POP POP JUMP JUMPDEST PUSH1 0x0 PUSH3 0x3A9 PUSH3 0x3A3 DUP5 PUSH3 0x326 JUMP JUMPDEST PUSH3 0x307 JUMP JUMPDEST SWAP1 POP DUP3 DUP2 MSTORE PUSH1 0x20 DUP2 ADD DUP5 DUP5 DUP5 ADD GT ISZERO PUSH3 0x3C8 JUMPI PUSH3 0x3C7 PUSH3 0x28C JUMP JUMPDEST JUMPDEST PUSH3 0x3D5 DUP5 DUP3 DUP6 PUSH3 0x35C JUMP JUMPDEST POP SWAP4 SWAP3 POP POP POP JUMP JUMPDEST PUSH1 0x0 DUP3 PUSH1 0x1F DUP4 ADD SLT PUSH3 0x3F5 JUMPI PUSH3 0x3F4 PUSH3 0x287 JUMP JUMPDEST JUMPDEST DUP2 MLOAD PUSH3 0x407 DUP5 DUP3 PUSH1 0x20 DUP7 ADD PUSH3 0x392 JUMP JUMPDEST SWAP2 POP POP SWAP3 SWAP2 POP POP JUMP JUMPDEST PUSH1 0x0 DUP2 SWAP1 POP SWAP2 SWAP1 POP JUMP JUMPDEST PUSH3 0x425 DUP2 PUSH3 0x410 JUMP JUMPDEST DUP2 EQ PUSH3 0x431 JUMPI PUSH1 0x0 DUP1 REVERT JUMPDEST POP JUMP JUMPDEST PUSH1 0x0 DUP2 MLOAD SWAP1 POP PUSH3 0x445 DUP2 PUSH3 0x41A JUMP JUMPDEST SWAP3 SWAP2 POP POP JUMP JUMPDEST PUSH1 0x0 DUP1 PUSH1 0x0 DUP1 PUSH1 0x0 DUP1 PUSH1 0xC0 DUP8 DUP10 SUB SLT ISZERO PUSH3 0x46B JUMPI PUSH3 0x46A PUSH3 0x218 JUMP JUMPDEST JUMPDEST PUSH1 0x0 PUSH3 0x47B DUP10 DUP3 DUP11 ADD PUSH3 0x270 JUMP JUMPDEST SWAP7 POP POP PUSH1 0x20 PUSH3 0x48E DUP10 DUP3 DUP11 ADD PUSH3 0x270 JUMP JUMPDEST SWAP6 POP POP PUSH1 0x40 DUP8 ADD MLOAD PUSH8 0xFFFFFFFFFFFFFFFF DUP2 GT ISZERO PUSH3 0x4B2 JUMPI PUSH3 0x4B1 PUSH3 0x21D JUMP JUMPDEST JUMPDEST PUSH3 0x4C0 DUP10 DUP3 DUP11 ADD PUSH3 0x3DD JUMP JUMPDEST SWAP5 POP POP PUSH1 0x60 DUP8 ADD MLOAD PUSH8 0xFFFFFFFFFFFFFFFF DUP2 GT ISZERO PUSH3 0x4E4 JUMPI PUSH3 0x4E3 PUSH3 0x21D JUMP JUMPDEST JUMPDEST PUSH3 0x4F2 DUP10 DUP3 DUP11 ADD PUSH3 0x3DD JUMP JUMPDEST SWAP4 POP POP PUSH1 0x80 PUSH3 0x505 DUP10 DUP3 DUP11 ADD PUSH3 0x270 JUMP JUMPDEST SWAP3 POP POP PUSH1 0xA0 PUSH3 0x518 DUP10 DUP3 DUP11 ADD PUSH3 0x434 JUMP JUMPDEST SWAP2 POP POP SWAP3 SWAP6 POP SWAP3 SWAP6 POP SWAP3 SWAP6 JUMP JUMPDEST PUSH32 0x4E487B7100000000000000000000000000000000000000000000000000000000 PUSH1 0x0 MSTORE PUSH1 0x21 PUSH1 0x4 MSTORE PUSH1 0x24 PUSH1 0x0 REVERT JUMPDEST PUSH32 0x4E487B7100000000000000000000000000000000000000000000000000000000 PUSH1 0x0 MSTORE PUSH1 0x22 PUSH1 0x4 MSTORE PUSH1 0x24 PUSH1 0x0 REVERT JUMPDEST PUSH1 0x0 PUSH1 0x2 DUP3 DIV SWAP1 POP PUSH1 0x1 DUP3 AND DUP1 PUSH3 0x59C JUMPI PUSH1 0x7F DUP3 AND SWAP2 POP JUMPDEST PUSH1 0x20 DUP3 LT DUP2 EQ ISZERO PUSH3 0x5B3 JUMPI PUSH3 0x5B2 PUSH3 0x554 JUMP JUMPDEST JUMPDEST POP SWAP2 SWAP1 POP JUMP JUMPDEST PUSH2 0xBD3 DUP1 PUSH3 0x5C9 PUSH1 0x0 CODECOPY PUSH1 0x0 RETURN INVALID PUSH1 0x80 PUSH1 0x40 MSTORE PUSH1 0x4 CALLDATASIZE LT PUSH2 0x86 JUMPI PUSH1 0x0 CALLDATALOAD PUSH1 0xE0 SHR DUP1 PUSH4 0x3B1BEBD1 GT PUSH2 0x59 JUMPI DUP1 PUSH4 0x3B1BEBD1 EQ PUSH2 0x12A JUMPI DUP1 PUSH4 0x4177FE51 EQ PUSH2 0x155 JUMPI DUP1 PUSH4 0x7284E416 EQ PUSH2 0x180 JUMPI DUP1 PUSH4 0xAA8C217C EQ PUSH2 0x1AB JUMPI DUP1 PUSH4 0xB4FEDC11 EQ PUSH2 0x1D6 JUMPI PUSH2 0x86 JUMP JUMPDEST DUP1 PUSH4 0x2D05D3F EQ PUSH2 0x8B JUMPI DUP1 PUSH4 0x6FDDE03 EQ PUSH2 0xB6 JUMPI DUP1 PUSH4 0x200D2ED2 EQ PUSH2 0xE1 JUMPI DUP1 PUSH4 0x2D398FA6 EQ PUSH2 0x10C JUMPI JUMPDEST PUSH1 0x0 DUP1 REVERT JUMPDEST CALLVALUE DUP1 ISZERO PUSH2 0x97 JUMPI PUSH1 0x0 DUP1 REVERT JUMPDEST POP PUSH2 0xA0 PUSH2 0x1F4 JUMP JUMPDEST PUSH1 0x40 MLOAD PUSH2 0xAD SWAP2 SWAP1 PUSH2 0x770 JUMP JUMPDEST PUSH1 0x40 MLOAD DUP1 SWAP2 SUB SWAP1 RETURN JUMPDEST CALLVALUE DUP1 ISZERO PUSH2 0xC2 JUMPI PUSH1 0x0 DUP1 REVERT JUMPDEST POP PUSH2 0xCB PUSH2 0x218 JUMP JUMPDEST PUSH1 0x40 MLOAD PUSH2 0xD8 SWAP2 SWAP1 PUSH2 0x824 JUMP JUMPDEST PUSH1 0x40 MLOAD DUP1 SWAP2 SUB SWAP1 RETURN JUMPDEST CALLVALUE DUP1 ISZERO PUSH2 0xED JUMPI PUSH1 0x0 DUP1 REVERT JUMPDEST POP PUSH2 0xF6 PUSH2 0x2A6 JUMP JUMPDEST PUSH1 0x40 MLOAD PUSH2 0x103 SWAP2 SWAP1 PUSH2 0x8BD JUMP JUMPDEST PUSH1 0x40 MLOAD DUP1 SWAP2 SUB SWAP1 RETURN JUMPDEST PUSH2 0x114 PUSH2 0x2B9 JUMP JUMPDEST PUSH1 0x40 MLOAD PUSH2 0x121 SWAP2 SWAP1 PUSH2 0x937 JUMP JUMPDEST PUSH1 0x40 MLOAD DUP1 SWAP2 SUB SWAP1 RETURN JUMPDEST CALLVALUE DUP1 ISZERO PUSH2 0x136 JUMPI PUSH1 0x0 DUP1 REVERT JUMPDEST POP PUSH2 0x13F PUSH2 0x4B0 JUMP JUMPDEST PUSH1 0x40 MLOAD PUSH2 0x14C SWAP2 SWAP1 PUSH2 0x770 JUMP JUMPDEST PUSH1 0x40 MLOAD DUP1 SWAP2 SUB SWAP1 RETURN JUMPDEST CALLVALUE DUP1 ISZERO PUSH2 0x161 JUMPI PUSH1 0x0 DUP1 REVERT JUMPDEST POP PUSH2 0x16A PUSH2 0x4D6 JUMP JUMPDEST PUSH1 0x40 MLOAD PUSH2 0x177 SWAP2 SWAP1 PUSH2 0x770 JUMP JUMPDEST PUSH1 0x40 MLOAD DUP1 SWAP2 SUB SWAP1 RETURN JUMPDEST CALLVALUE DUP1 ISZERO PUSH2 0x18C JUMPI PUSH1 0x0 DUP1 REVERT JUMPDEST POP PUSH2 0x195 PUSH2 0x4FC JUMP JUMPDEST PUSH1 0x40 MLOAD PUSH2 0x1A2 SWAP2 SWAP1 PUSH2 0x824 JUMP JUMPDEST PUSH1 0x40 MLOAD DUP1 SWAP2 SUB SWAP1 RETURN JUMPDEST CALLVALUE DUP1 ISZERO PUSH2 0x1B7 JUMPI PUSH1 0x0 DUP1 REVERT JUMPDEST POP PUSH2 0x1C0 PUSH2 0x58A JUMP JUMPDEST PUSH1 0x40 MLOAD PUSH2 0x1CD SWAP2 SWAP1 PUSH2 0x96B JUMP JUMPDEST PUSH1 0x40 MLOAD DUP1 SWAP2 SUB SWAP1 RETURN JUMPDEST PUSH2 0x1DE PUSH2 0x590 JUMP JUMPDEST PUSH1 0x40 MLOAD PUSH2 0x1EB SWAP2 SWAP1 PUSH2 0x937 JUMP JUMPDEST PUSH1 0x40 MLOAD DUP1 SWAP2 SUB SWAP1 RETURN JUMPDEST PUSH1 0x0 DUP1 SLOAD SWAP1 PUSH2 0x100 EXP SWAP1 DIV PUSH20 0xFFFFFFFFFFFFFFFFFFFFFFFFFFFFFFFFFFFFFFFF AND DUP2 JUMP JUMPDEST PUSH1 0x2 DUP1 SLOAD PUSH2 0x225 SWAP1 PUSH2 0x9B5 JUMP JUMPDEST DUP1 PUSH1 0x1F ADD PUSH1 0x20 DUP1 SWAP2 DIV MUL PUSH1 0x20 ADD PUSH1 0x40 MLOAD SWAP1 DUP2 ADD PUSH1 0x40 MSTORE DUP1 SWAP3 SWAP2 SWAP1 DUP2 DUP2 MSTORE PUSH1 0x20 ADD DUP3 DUP1 SLOAD PUSH2 0x251 SWAP1 PUSH2 0x9B5 JUMP JUMPDEST DUP1 ISZERO PUSH2 0x29E JUMPI DUP1 PUSH1 0x1F LT PUSH2 0x273 JUMPI PUSH2 0x100 DUP1 DUP4 SLOAD DIV MUL DUP4 MSTORE SWAP2 PUSH1 0x20 ADD SWAP2 PUSH2 0x29E JUMP JUMPDEST DUP3 ADD SWAP2 SWAP1 PUSH1 0x0 MSTORE PUSH1 0x20 PUSH1 0x0 KECCAK256 SWAP1 JUMPDEST DUP2 SLOAD DUP2 MSTORE SWAP1 PUSH1 0x1 ADD SWAP1 PUSH1 0x20 ADD DUP1 DUP4 GT PUSH2 0x281 JUMPI DUP3 SWAP1 SUB PUSH1 0x1F AND DUP3 ADD SWAP2 JUMPDEST POP POP POP POP POP DUP2 JUMP JUMPDEST PUSH1 0x6 PUSH1 0x0 SWAP1 SLOAD SWAP1 PUSH2 0x100 EXP SWAP1 DIV PUSH1 0xFF AND DUP2 JUMP JUMPDEST PUSH1 0x0 DUP1 PUSH1 0x2 DUP2 GT ISZERO PUSH2 0x2CE JUMPI PUSH2 0x2CD PUSH2 0x846 JUMP JUMPDEST JUMPDEST PUSH1 0x6 PUSH1 0x0 SWAP1 SLOAD SWAP1 PUSH2 0x100 EXP SWAP1 DIV PUSH1 0xFF AND PUSH1 0x2 DUP2 GT ISZERO PUSH2 0x2F0 JUMPI PUSH2 0x2EF PUSH2 0x846 JUMP JUMPDEST JUMPDEST EQ PUSH2 0x330 JUMPI PUSH1 0x40 MLOAD PUSH32 0x8C379A000000000000000000000000000000000000000000000000000000000 DUP2 MSTORE PUSH1 0x4 ADD PUSH2 0x327 SWAP1 PUSH2 0xA59 JUMP JUMPDEST PUSH1 0x40 MLOAD DUP1 SWAP2 SUB SWAP1 REVERT JUMPDEST PUSH1 0x1 PUSH1 0x0 SWAP1 SLOAD SWAP1 PUSH2 0x100 EXP SWAP1 DIV PUSH20 0xFFFFFFFFFFFFFFFFFFFFFFFFFFFFFFFFFFFFFFFF AND PUSH20 0xFFFFFFFFFFFFFFFFFFFFFFFFFFFFFFFFFFFFFFFF AND ORIGIN PUSH20 0xFFFFFFFFFFFFFFFFFFFFFFFFFFFFFFFFFFFFFFFF AND EQ DUP1 PUSH2 0x3D7 JUMPI POP PUSH1 0x0 DUP1 SLOAD SWAP1 PUSH2 0x100 EXP SWAP1 DIV PUSH20 0xFFFFFFFFFFFFFFFFFFFFFFFFFFFFFFFFFFFFFFFF AND PUSH20 0xFFFFFFFFFFFFFFFFFFFFFFFFFFFFFFFFFFFFFFFF AND ORIGIN PUSH20 0xFFFFFFFFFFFFFFFFFFFFFFFFFFFFFFFFFFFFFFFF AND EQ JUMPDEST PUSH2 0x416 JUMPI PUSH1 0x40 MLOAD PUSH32 0x8C379A000000000000000000000000000000000000000000000000000000000 DUP2 MSTORE PUSH1 0x4 ADD PUSH2 0x40D SWAP1 PUSH2 0xAEB JUMP JUMPDEST PUSH1 0x40 MLOAD DUP1 SWAP2 SUB SWAP1 REVERT JUMPDEST PUSH1 0x4 PUSH1 0x0 SWAP1 SLOAD SWAP1 PUSH2 0x100 EXP SWAP1 DIV PUSH20 0xFFFFFFFFFFFFFFFFFFFFFFFFFFFFFFFFFFFFFFFF AND PUSH20 0xFFFFFFFFFFFFFFFFFFFFFFFFFFFFFFFFFFFFFFFF AND PUSH2 0x8FC SELFBALANCE SWAP1 DUP2 ISZERO MUL SWAP1 PUSH1 0x40 MLOAD PUSH1 0x0 PUSH1 0x40 MLOAD DUP1 DUP4 SUB DUP2 DUP6 DUP9 DUP9 CALL SWAP4 POP POP POP POP ISZERO DUP1 ISZERO PUSH2 0x47E JUMPI RETURNDATASIZE PUSH1 0x0 DUP1 RETURNDATACOPY RETURNDATASIZE PUSH1 0x0 REVERT JUMPDEST POP PUSH1 0x2 PUSH1 0x6 PUSH1 0x0 PUSH2 0x100 EXP DUP2 SLOAD DUP2 PUSH1 0xFF MUL NOT AND SWAP1 DUP4 PUSH1 0x2 DUP2 GT ISZERO PUSH2 0x4A5 JUMPI PUSH2 0x4A4 PUSH2 0x846 JUMP JUMPDEST JUMPDEST MUL OR SWAP1 SSTORE POP ADDRESS SWAP1 POP SWAP1 JUMP JUMPDEST PUSH1 0x1 PUSH1 0x0 SWAP1 SLOAD SWAP1 PUSH2 0x100 EXP SWAP1 DIV PUSH20 0xFFFFFFFFFFFFFFFFFFFFFFFFFFFFFFFFFFFFFFFF AND DUP2 JUMP JUMPDEST PUSH1 0x4 PUSH1 0x0 SWAP1 SLOAD SWAP1 PUSH2 0x100 EXP SWAP1 DIV PUSH20 0xFFFFFFFFFFFFFFFFFFFFFFFFFFFFFFFFFFFFFFFF AND DUP2 JUMP JUMPDEST PUSH1 0x3 DUP1 SLOAD PUSH2 0x509 SWAP1 PUSH2 0x9B5 JUMP JUMPDEST DUP1 PUSH1 0x1F ADD PUSH1 0x20 DUP1 SWAP2 DIV MUL PUSH1 0x20 ADD PUSH1 0x40 MLOAD SWAP1 DUP2 ADD PUSH1 0x40 MSTORE DUP1 SWAP3 SWAP2 SWAP1 DUP2 DUP2 MSTORE PUSH1 0x20 ADD DUP3 DUP1 SLOAD PUSH2 0x535 SWAP1 PUSH2 0x9B5 JUMP JUMPDEST DUP1 ISZERO PUSH2 0x582 JUMPI DUP1 PUSH1 0x1F LT PUSH2 0x557 JUMPI PUSH2 0x100 DUP1 DUP4 SLOAD DIV MUL DUP4 MSTORE SWAP2 PUSH1 0x20 ADD SWAP2 PUSH2 0x582 JUMP JUMPDEST DUP3 ADD SWAP2 SWAP1 PUSH1 0x0 MSTORE PUSH1 0x20 PUSH1 0x0 KECCAK256 SWAP1 JUMPDEST DUP2 SLOAD DUP2 MSTORE SWAP1 PUSH1 0x1 ADD SWAP1 PUSH1 0x20 ADD DUP1 DUP4 GT PUSH2 0x565 JUMPI DUP3 SWAP1 SUB PUSH1 0x1F AND DUP3 ADD SWAP2 JUMPDEST POP POP POP POP POP DUP2 JUMP JUMPDEST PUSH1 0x5 SLOAD DUP2 JUMP JUMPDEST PUSH1 0x0 DUP1 PUSH1 0x2 DUP2 GT ISZERO PUSH2 0x5A5 JUMPI PUSH2 0x5A4 PUSH2 0x846 JUMP JUMPDEST JUMPDEST PUSH1 0x6 PUSH1 0x0 SWAP1 SLOAD SWAP1 PUSH2 0x100 EXP SWAP1 DIV PUSH1 0xFF AND PUSH1 0x2 DUP2 GT ISZERO PUSH2 0x5C7 JUMPI PUSH2 0x5C6 PUSH2 0x846 JUMP JUMPDEST JUMPDEST EQ PUSH2 0x607 JUMPI PUSH1 0x40 MLOAD PUSH32 0x8C379A000000000000000000000000000000000000000000000000000000000 DUP2 MSTORE PUSH1 0x4 ADD PUSH2 0x5FE SWAP1 PUSH2 0xA59 JUMP JUMPDEST PUSH1 0x40 MLOAD DUP1 SWAP2 SUB SWAP1 REVERT JUMPDEST PUSH1 0x1 PUSH1 0x0 SWAP1 SLOAD SWAP1 PUSH2 0x100 EXP SWAP1 DIV PUSH20 0xFFFFFFFFFFFFFFFFFFFFFFFFFFFFFFFFFFFFFFFF AND PUSH20 0xFFFFFFFFFFFFFFFFFFFFFFFFFFFFFFFFFFFFFFFF AND ORIGIN PUSH20 0xFFFFFFFFFFFFFFFFFFFFFFFFFFFFFFFFFFFFFFFF AND EQ PUSH2 0x697 JUMPI PUSH1 0x40 MLOAD PUSH32 0x8C379A000000000000000000000000000000000000000000000000000000000 DUP2 MSTORE PUSH1 0x4 ADD PUSH2 0x68E SWAP1 PUSH2 0xB7D JUMP JUMPDEST PUSH1 0x40 MLOAD DUP1 SWAP2 SUB SWAP1 REVERT JUMPDEST PUSH1 0x0 DUP1 SLOAD SWAP1 PUSH2 0x100 EXP SWAP1 DIV PUSH20 0xFFFFFFFFFFFFFFFFFFFFFFFFFFFFFFFFFFFFFFFF AND PUSH20 0xFFFFFFFFFFFFFFFFFFFFFFFFFFFFFFFFFFFFFFFF AND PUSH2 0x8FC SELFBALANCE SWAP1 DUP2 ISZERO MUL SWAP1 PUSH1 0x40 MLOAD PUSH1 0x0 PUSH1 0x40 MLOAD DUP1 DUP4 SUB DUP2 DUP6 DUP9 DUP9 CALL SWAP4 POP POP POP POP ISZERO DUP1 ISZERO PUSH2 0x6FD JUMPI RETURNDATASIZE PUSH1 0x0 DUP1 RETURNDATACOPY RETURNDATASIZE PUSH1 0x0 REVERT JUMPDEST POP PUSH1 0x1 PUSH1 0x6 PUSH1 0x0 PUSH2 0x100 EXP DUP2 SLOAD DUP2 PUSH1 0xFF MUL NOT AND SWAP1 DUP4 PUSH1 0x2 DUP2 GT ISZERO PUSH2 0x724 JUMPI PUSH2 0x723 PUSH2 0x846 JUMP JUMPDEST JUMPDEST MUL OR SWAP1 SSTORE POP ADDRESS SWAP1 POP SWAP1 JUMP JUMPDEST PUSH1 0x0 PUSH20 0xFFFFFFFFFFFFFFFFFFFFFFFFFFFFFFFFFFFFFFFF DUP3 AND SWAP1 POP SWAP2 SWAP1 POP JUMP JUMPDEST PUSH1 0x0 PUSH2 0x75A DUP3 PUSH2 0x72F JUMP JUMPDEST SWAP1 POP SWAP2 SWAP1 POP JUMP JUMPDEST PUSH2 0x76A DUP2 PUSH2 0x74F JUMP JUMPDEST DUP3 MSTORE POP POP JUMP JUMPDEST PUSH1 0x0 PUSH1 0x20 DUP3 ADD SWAP1 POP PUSH2 0x785 PUSH1 0x0 DUP4 ADD DUP5 PUSH2 0x761 JUMP JUMPDEST SWAP3 SWAP2 POP POP JUMP JUMPDEST PUSH1 0x0 DUP2 MLOAD SWAP1 POP SWAP2 SWAP1 POP JUMP JUMPDEST PUSH1 0x0 DUP3 DUP3 MSTORE PUSH1 0x20 DUP3 ADD SWAP1 POP SWAP3 SWAP2 POP POP JUMP JUMPDEST PUSH1 0x0 JUMPDEST DUP4 DUP2 LT ISZERO PUSH2 0x7C5 JUMPI DUP1 DUP3 ADD MLOAD DUP2 DUP5 ADD MSTORE PUSH1 0x20 DUP2 ADD SWAP1 POP PUSH2 0x7AA JUMP JUMPDEST DUP4 DUP2 GT ISZERO PUSH2 0x7D4 JUMPI PUSH1 0x0 DUP5 DUP5 ADD MSTORE JUMPDEST POP POP POP POP JUMP JUMPDEST PUSH1 0x0 PUSH1 0x1F NOT PUSH1 0x1F DUP4 ADD AND SWAP1 POP SWAP2 SWAP1 POP JUMP JUMPDEST PUSH1 0x0 PUSH2 0x7F6 DUP3 PUSH2 0x78B JUMP JUMPDEST PUSH2 0x800 DUP2 DUP6 PUSH2 0x796 JUMP JUMPDEST SWAP4 POP PUSH2 0x810 DUP2 DUP6 PUSH1 0x20 DUP7 ADD PUSH2 0x7A7 JUMP JUMPDEST PUSH2 0x819 DUP2 PUSH2 0x7DA JUMP JUMPDEST DUP5 ADD SWAP2 POP POP SWAP3 SWAP2 POP POP JUMP JUMPDEST PUSH1 0x0 PUSH1 0x20 DUP3 ADD SWAP1 POP DUP2 DUP2 SUB PUSH1 0x0 DUP4 ADD MSTORE PUSH2 0x83E DUP2 DUP5 PUSH2 0x7EB JUMP JUMPDEST SWAP1 POP SWAP3 SWAP2 POP POP JUMP JUMPDEST PUSH32 0x4E487B7100000000000000000000000000000000000000000000000000000000 PUSH1 0x0 MSTORE PUSH1 0x21 PUSH1 0x4 MSTORE PUSH1 0x24 PUSH1 0x0 REVERT JUMPDEST PUSH1 0x3 DUP2 LT PUSH2 0x886 JUMPI PUSH2 0x885 PUSH2 0x846 JUMP JUMPDEST JUMPDEST POP JUMP JUMPDEST PUSH1 0x0 DUP2 SWAP1 POP PUSH2 0x897 DUP3 PUSH2 0x875 JUMP JUMPDEST SWAP2 SWAP1 POP JUMP JUMPDEST PUSH1 0x0 PUSH2 0x8A7 DUP3 PUSH2 0x889 JUMP JUMPDEST SWAP1 POP SWAP2 SWAP1 POP JUMP JUMPDEST PUSH2 0x8B7 DUP2 PUSH2 0x89C JUMP JUMPDEST DUP3 MSTORE POP POP JUMP JUMPDEST PUSH1 0x0 PUSH1 0x20 DUP3 ADD SWAP1 POP PUSH2 0x8D2 PUSH1 0x0 DUP4 ADD DUP5 PUSH2 0x8AE JUMP JUMPDEST SWAP3 SWAP2 POP POP JUMP JUMPDEST PUSH1 0x0 DUP2 SWAP1 POP SWAP2 SWAP1 POP JUMP JUMPDEST PUSH1 0x0 PUSH2 0x8FD PUSH2 0x8F8 PUSH2 0x8F3 DUP5 PUSH2 0x72F JUMP JUMPDEST PUSH2 0x8D8 JUMP JUMPDEST PUSH2 0x72F JUMP JUMPDEST SWAP1 POP SWAP2 SWAP1 POP JUMP JUMPDEST PUSH1 0x0 PUSH2 0x90F DUP3 PUSH2 0x8E2 JUMP JUMPDEST SWAP1 POP SWAP2 SWAP1 POP JUMP JUMPDEST PUSH1 0x0 PUSH2 0x921 DUP3 PUSH2 0x904 JUMP JUMPDEST SWAP1 POP SWAP2 SWAP1 POP JUMP JUMPDEST PUSH2 0x931 DUP2 PUSH2 0x916 JUMP JUMPDEST DUP3 MSTORE POP POP JUMP JUMPDEST PUSH1 0x0 PUSH1 0x20 DUP3 ADD SWAP1 POP PUSH2 0x94C PUSH1 0x0 DUP4 ADD DUP5 PUSH2 0x928 JUMP JUMPDEST SWAP3 SWAP2 POP POP JUMP JUMPDEST PUSH1 0x0 DUP2 SWAP1 POP SWAP2 SWAP1 POP JUMP JUMPDEST PUSH2 0x965 DUP2 PUSH2 0x952 JUMP JUMPDEST DUP3 MSTORE POP POP JUMP JUMPDEST PUSH1 0x0 PUSH1 0x20 DUP3 ADD SWAP1 POP PUSH2 0x980 PUSH1 0x0 DUP4 ADD DUP5 PUSH2 0x95C JUMP JUMPDEST SWAP3 SWAP2 POP POP JUMP JUMPDEST PUSH32 0x4E487B7100000000000000000000000000000000000000000000000000000000 PUSH1 0x0 MSTORE PUSH1 0x22 PUSH1 0x4 MSTORE PUSH1 0x24 PUSH1 0x0 REVERT JUMPDEST PUSH1 0x0 PUSH1 0x2 DUP3 DIV SWAP1 POP PUSH1 0x1 DUP3 AND DUP1 PUSH2 0x9CD JUMPI PUSH1 0x7F DUP3 AND SWAP2 POP JUMPDEST PUSH1 0x20 DUP3 LT DUP2 EQ ISZERO PUSH2 0x9E1 JUMPI PUSH2 0x9E0 PUSH2 0x986 JUMP JUMPDEST JUMPDEST POP SWAP2 SWAP1 POP JUMP JUMPDEST PUSH32 0x436F6E747261637420737461747573206973206E6F7420657175616C20746F20 PUSH1 0x0 DUP3 ADD MSTORE PUSH32 0x6F70656E00000000000000000000000000000000000000000000000000000000 PUSH1 0x20 DUP3 ADD MSTORE POP JUMP JUMPDEST PUSH1 0x0 PUSH2 0xA43 PUSH1 0x24 DUP4 PUSH2 0x796 JUMP JUMPDEST SWAP2 POP PUSH2 0xA4E DUP3 PUSH2 0x9E7 JUMP JUMPDEST PUSH1 0x40 DUP3 ADD SWAP1 POP SWAP2 SWAP1 POP JUMP JUMPDEST PUSH1 0x0 PUSH1 0x20 DUP3 ADD SWAP1 POP DUP2 DUP2 SUB PUSH1 0x0 DUP4 ADD MSTORE PUSH2 0xA72 DUP2 PUSH2 0xA36 JUMP JUMPDEST SWAP1 POP SWAP2 SWAP1 POP JUMP JUMPDEST PUSH32 0x4F6E6C792072656665726565206F722063726561746F722063616E206661696C PUSH1 0x0 DUP3 ADD MSTORE PUSH32 0x20636F6E74726163740000000000000000000000000000000000000000000000 PUSH1 0x20 DUP3 ADD MSTORE POP JUMP JUMPDEST PUSH1 0x0 PUSH2 0xAD5 PUSH1 0x29 DUP4 PUSH2 0x796 JUMP JUMPDEST SWAP2 POP PUSH2 0xAE0 DUP3 PUSH2 0xA79 JUMP JUMPDEST PUSH1 0x40 DUP3 ADD SWAP1 POP SWAP2 SWAP1 POP JUMP JUMPDEST PUSH1 0x0 PUSH1 0x20 DUP3 ADD SWAP1 POP DUP2 DUP2 SUB PUSH1 0x0 DUP4 ADD MSTORE PUSH2 0xB04 DUP2 PUSH2 0xAC8 JUMP JUMPDEST SWAP1 POP SWAP2 SWAP1 POP JUMP JUMPDEST PUSH32 0x4F6E6C7920726566657265652063616E20636F6D706C657465206120636F6E74 PUSH1 0x0 DUP3 ADD MSTORE PUSH32 0x7261637400000000000000000000000000000000000000000000000000000000 PUSH1 0x20 DUP3 ADD MSTORE POP JUMP JUMPDEST PUSH1 0x0 PUSH2 0xB67 PUSH1 0x24 DUP4 PUSH2 0x796 JUMP JUMPDEST SWAP2 POP PUSH2 0xB72 DUP3 PUSH2 0xB0B JUMP JUMPDEST PUSH1 0x40 DUP3 ADD SWAP1 POP SWAP2 SWAP1 POP JUMP JUMPDEST PUSH1 0x0 PUSH1 0x20 DUP3 ADD SWAP1 POP DUP2 DUP2 SUB PUSH1 0x0 DUP4 ADD MSTORE PUSH2 0xB96 DUP2 PUSH2 0xB5A JUMP JUMPDEST SWAP1 POP SWAP2 SWAP1 POP JUMP INVALID LOG2 PUSH5 0x6970667358 0x22 SLT KECCAK256 PUSH4 0x7F58734F 0xC6 EXTCODECOPY 0xE2 0x2B 0x4A DUP12 PUSH15 0x882D1B3E8DACD1B17E6302DE86EF67 0xAD 0xE3 0xB6 0xC1 0xE6 PUSH5 0x736F6C6343 STOP ADDMOD 0xC STOP CALLER LOG2 PUSH5 0x6970667358 0x22 SLT KECCAK256 0xE3 0xE5 MSTORE 0xB7 0xE5 REVERT ORIGIN 0xBE PUSH26 0xB355B214C0702D51FF519B2C697E303D3CAB2C41E428CC64736F PUSH13 0x634300080C0033000000000000 "},"gasEstimates":{"creation":{"codeDepositCost":"3986200","executionCost":"4547","totalCost":"3990747"},"external":{"accountabilityContractAddresses(uint256)":"5046","approveRequestForCompletion(address)":"infinite","completeOpenAccountabilityContract(address)":"infinite","createAccountabilityContract(address,string,string,address)":"infinite","failOpenAccountabilityContract(address)":"infinite","getAccountabilityContractAddresses(uint256,uint256)":"infinite","getClosedAccountabilityContractAddressesForReferee(address)":"infinite","getClosedAccountabilityContractAddressesForUser(address)":"infinite","getCompleteAccountabilityContractRequestsForReferee(address)":"infinite","getOpenAccountabilityContractAddressesForReferee(address)":"infinite","getOpenAccountabilityContractAddressesForUser(address)":"infinite","getUserAddresses(uint256,uint256)":"infinite","numberOfAccountabilityContracts()":"2474","numberOfReferees()":"2517","numberOfUsers()":"2496","refereeAddresses(uint256)":"5068","referees(address)":"2873","requestRefereeCompletesContract(address)":"infinite","totalEthInContracts()":"2539","userAddresses(uint256)":"5045","users(address)":"2850"},"internal":{"getContractIndexForReferee(address,address)":"infinite","getContractIndexForUser(address,address)":"infinite","moveOpenContractToClosedContractsForReferee(address,address)":"infinite","moveOpenContractToClosedContractsForUser(address,address)":"infinite"}},"methodIdentifiers":{"accountabilityContractAddresses(uint256)":"38db44bc","approveRequestForCompletion(address)":"20d08884","completeOpenAccountabilityContract(address)":"61542c44","createAccountabilityContract(address,string,string,address)":"e436e826","failOpenAccountabilityContract(address)":"5b259abf","getAccountabilityContractAddresses(uint256,uint256)":"0e865751","getClosedAccountabilityContractAddressesForReferee(address)":"19ee8bd4","getClosedAccountabilityContractAddressesForUser(address)":"b24e67d0","getCompleteAccountabilityContractRequestsForReferee(address)":"4ea34671","getOpenAccountabilityContractAddressesForReferee(address)":"9051e234","getOpenAccountabilityContractAddressesForUser(address)":"442a7bc7","getUserAddresses(uint256,uint256)":"a908f4fa","numberOfAccountabilityContracts()":"4841a885","numberOfReferees()":"b3b6633e","numberOfUsers()":"75ce46a7","refereeAddresses(uint256)":"38fb42fd","referees(address)":"64a60b47","requestRefereeCompletesContract(address)":"7aabe058","totalEthInContracts()":"dc0e0c13","userAddresses(uint256)":"502c9bd5","users(address)":"a87430ba"}}}