{"abi":[{"inputs":[{"internalType":"address","name":"_accountabilityContractAddress","type":"address"}],"stateMutability":"nonpayable","type":"constructor"},{"inputs":[],"name":"accountabilityContractAddress","outputs":[{"internalType":"address","name":"","type":"address"}],"stateMutability":"view","type":"function"},{"inputs":[],"name":"approveRequest","outputs":[{"internalType":"contract AccountabilityContractApprovalRequest","name":"","type":"address"}],"stateMutability":"nonpayable","type":"function"},{"inputs":[],"name":"creator","outputs":[{"internalType":"address","name":"","type":"address"}],"stateMutability":"view","type":"function"},{"inputs":[{"internalType":"string","name":"_response","type":"string"}],"name":"denyRequest","outputs":[{"internalType":"contract AccountabilityContractApprovalRequest","name":"","type":"address"}],"stateMutability":"nonpayable","type":"function"},{"inputs":[],"name":"referee","outputs":[{"internalType":"address","name":"","type":"address"}],"stateMutability":"view","type":"function"},{"inputs":[],"name":"response","outputs":[{"internalType":"string","name":"","type":"string"}],"stateMutability":"view","type":"function"},{"inputs":[],"name":"status","outputs":[{"internalType":"enum AccountabilityContractApprovalRequest.Status","name":"","type":"uint8"}],"stateMutability":"view","type":"function"}],"evm":{"assembly":"    /* \"Contracts\":8834:9988  contract AccountabilityContractApprovalRequest {... */\n  mstore(0x40, 0x80)\n    /* \"Contracts\":9094:9471  constructor(address _accountabilityContractAddress) {... */\n  callvalue\n  dup1\n  iszero\n  tag_1\n  jumpi\n  0x00\n  dup1\n  revert\ntag_1:\n  pop\n  mload(0x40)\n  sub(codesize, bytecodeSize)\n  dup1\n  bytecodeSize\n  dup4\n  codecopy\n  dup2\n  dup2\n  add\n  0x40\n  mstore\n  dup2\n  add\n  swap1\n  tag_2\n  swap2\n  swap1\n  tag_3\n  jump\t// in\ntag_2:\n    /* \"Contracts\":9156:9201  AccountabilityContract accountabilityContract */\n  0x00\n    /* \"Contracts\":9227:9257  _accountabilityContractAddress */\n  dup2\n    /* \"Contracts\":9156:9258  AccountabilityContract accountabilityContract = AccountabilityContract(_accountabilityContractAddress) */\n  swap1\n  pop\n    /* \"Contracts\":9278:9300  accountabilityContract */\n  dup1\n    /* \"Contracts\":9278:9308  accountabilityContract.creator */\n  0xffffffffffffffffffffffffffffffffffffffff\n  and\n  0x02d05d3f\n    /* \"Contracts\":9278:9310  accountabilityContract.creator() */\n  mload(0x40)\n  dup2\n  0xffffffff\n  and\n  0xe0\n  shl\n  dup2\n  mstore\n  0x04\n  add\n  0x20\n  mload(0x40)\n  dup1\n  dup4\n  sub\n  dup2\n  dup7\n  gas\n  staticcall\n  iszero\n  dup1\n  iszero\n  tag_7\n  jumpi\n  returndatasize\n  0x00\n  dup1\n  returndatacopy\n  revert(0x00, returndatasize)\ntag_7:\n  pop\n  pop\n  pop\n  pop\n  mload(0x40)\n  returndatasize\n  not(0x1f)\n  0x1f\n  dup3\n  add\n  and\n  dup3\n  add\n  dup1\n  0x40\n  mstore\n  pop\n  dup2\n  add\n  swap1\n  tag_8\n  swap2\n  swap1\n  tag_3\n  jump\t// in\ntag_8:\n    /* \"Contracts\":9268:9275  creator */\n  0x00\n  dup1\n    /* \"Contracts\":9268:9310  creator = accountabilityContract.creator() */\n  0x0100\n  exp\n  dup2\n  sload\n  dup2\n  0xffffffffffffffffffffffffffffffffffffffff\n  mul\n  not\n  and\n  swap1\n  dup4\n  0xffffffffffffffffffffffffffffffffffffffff\n  and\n  mul\n  or\n  swap1\n  sstore\n  pop\n    /* \"Contracts\":9330:9352  accountabilityContract */\n  dup1\n    /* \"Contracts\":9330:9360  accountabilityContract.referee */\n  0xffffffffffffffffffffffffffffffffffffffff\n  and\n  0x3b1bebd1\n    /* \"Contracts\":9330:9362  accountabilityContract.referee() */\n  mload(0x40)\n  dup2\n  0xffffffff\n  and\n  0xe0\n  shl\n  dup2\n  mstore\n  0x04\n  add\n  0x20\n  mload(0x40)\n  dup1\n  dup4\n  sub\n  dup2\n  dup7\n  gas\n  staticcall\n  iszero\n  dup1\n  iszero\n  tag_10\n  jumpi\n  returndatasize\n  0x00\n  dup1\n  returndatacopy\n  revert(0x00, returndatasize)\ntag_10:\n  pop\n  pop\n  pop\n  pop\n  mload(0x40)\n  returndatasize\n  not(0x1f)\n  0x1f\n  dup3\n  add\n  and\n  dup3\n  add\n  dup1\n  0x40\n  mstore\n  pop\n  dup2\n  add\n  swap1\n  tag_11\n  swap2\n  swap1\n  tag_3\n  jump\t// in\ntag_11:\n    /* \"Contracts\":9320:9327  referee */\n  0x01\n  0x00\n    /* \"Contracts\":9320:9362  referee = accountabilityContract.referee() */\n  0x0100\n  exp\n  dup2\n  sload\n  dup2\n  0xffffffffffffffffffffffffffffffffffffffff\n  mul\n  not\n  and\n  swap1\n  dup4\n  0xffffffffffffffffffffffffffffffffffffffff\n  and\n  mul\n  or\n  swap1\n  sstore\n  pop\n    /* \"Contracts\":9404:9434  _accountabilityContractAddress */\n  dup2\n    /* \"Contracts\":9372:9401  accountabilityContractAddress */\n  0x02\n  0x00\n    /* \"Contracts\":9372:9434  accountabilityContractAddress = _accountabilityContractAddress */\n  0x0100\n  exp\n  dup2\n  sload\n  dup2\n  0xffffffffffffffffffffffffffffffffffffffff\n  mul\n  not\n  and\n  swap1\n  dup4\n  0xffffffffffffffffffffffffffffffffffffffff\n  and\n  mul\n  or\n  swap1\n  sstore\n  pop\n    /* \"Contracts\":9453:9464  Status.OPEN */\n  0x00\n    /* \"Contracts\":9444:9450  status */\n  0x02\n  0x14\n    /* \"Contracts\":9444:9464  status = Status.OPEN */\n  0x0100\n  exp\n  dup2\n  sload\n  dup2\n  0xff\n  mul\n  not\n  and\n  swap1\n  dup4\n  0x02\n  dup2\n  gt\n  iszero\n  tag_12\n  jumpi\n  tag_13\n  tag_14\n  jump\t// in\ntag_13:\ntag_12:\n  mul\n  or\n  swap1\n  sstore\n  pop\n    /* \"Contracts\":9146:9471  {... */\n  pop\n    /* \"Contracts\":9094:9471  constructor(address _accountabilityContractAddress) {... */\n  pop\n    /* \"Contracts\":8834:9988  contract AccountabilityContractApprovalRequest {... */\n  jump(tag_15)\n    /* \"#utility.yul\":88:205   */\ntag_17:\n    /* \"#utility.yul\":197:198   */\n  0x00\n    /* \"#utility.yul\":194:195   */\n  dup1\n    /* \"#utility.yul\":187:199   */\n  revert\n    /* \"#utility.yul\":334:460   */\ntag_19:\n    /* \"#utility.yul\":371:378   */\n  0x00\n    /* \"#utility.yul\":411:453   */\n  0xffffffffffffffffffffffffffffffffffffffff\n    /* \"#utility.yul\":404:409   */\n  dup3\n    /* \"#utility.yul\":400:454   */\n  and\n    /* \"#utility.yul\":389:454   */\n  swap1\n  pop\n    /* \"#utility.yul\":334:460   */\n  swap2\n  swap1\n  pop\n  jump\t// out\n    /* \"#utility.yul\":466:562   */\ntag_20:\n    /* \"#utility.yul\":503:510   */\n  0x00\n    /* \"#utility.yul\":532:556   */\n  tag_29\n    /* \"#utility.yul\":550:555   */\n  dup3\n    /* \"#utility.yul\":532:556   */\n  tag_19\n  jump\t// in\ntag_29:\n    /* \"#utility.yul\":521:556   */\n  swap1\n  pop\n    /* \"#utility.yul\":466:562   */\n  swap2\n  swap1\n  pop\n  jump\t// out\n    /* \"#utility.yul\":568:690   */\ntag_21:\n    /* \"#utility.yul\":641:665   */\n  tag_31\n    /* \"#utility.yul\":659:664   */\n  dup2\n    /* \"#utility.yul\":641:665   */\n  tag_20\n  jump\t// in\ntag_31:\n    /* \"#utility.yul\":634:639   */\n  dup2\n    /* \"#utility.yul\":631:666   */\n  eq\n    /* \"#utility.yul\":621:684   */\n  tag_32\n  jumpi\n    /* \"#utility.yul\":680:681   */\n  0x00\n    /* \"#utility.yul\":677:678   */\n  dup1\n    /* \"#utility.yul\":670:682   */\n  revert\n    /* \"#utility.yul\":621:684   */\ntag_32:\n    /* \"#utility.yul\":568:690   */\n  pop\n  jump\t// out\n    /* \"#utility.yul\":696:839   */\ntag_22:\n    /* \"#utility.yul\":753:758   */\n  0x00\n    /* \"#utility.yul\":784:790   */\n  dup2\n    /* \"#utility.yul\":778:791   */\n  mload\n    /* \"#utility.yul\":769:791   */\n  swap1\n  pop\n    /* \"#utility.yul\":800:833   */\n  tag_34\n    /* \"#utility.yul\":827:832   */\n  dup2\n    /* \"#utility.yul\":800:833   */\n  tag_21\n  jump\t// in\ntag_34:\n    /* \"#utility.yul\":696:839   */\n  swap3\n  swap2\n  pop\n  pop\n  jump\t// out\n    /* \"#utility.yul\":845:1196   */\ntag_3:\n    /* \"#utility.yul\":915:921   */\n  0x00\n    /* \"#utility.yul\":964:966   */\n  0x20\n    /* \"#utility.yul\":952:961   */\n  dup3\n    /* \"#utility.yul\":943:950   */\n  dup5\n    /* \"#utility.yul\":939:962   */\n  sub\n    /* \"#utility.yul\":935:967   */\n  slt\n    /* \"#utility.yul\":932:1051   */\n  iszero\n  tag_36\n  jumpi\n    /* \"#utility.yul\":970:1049   */\n  tag_37\n  tag_17\n  jump\t// in\ntag_37:\n    /* \"#utility.yul\":932:1051   */\ntag_36:\n    /* \"#utility.yul\":1090:1091   */\n  0x00\n    /* \"#utility.yul\":1115:1179   */\n  tag_38\n    /* \"#utility.yul\":1171:1178   */\n  dup5\n    /* \"#utility.yul\":1162:1168   */\n  dup3\n    /* \"#utility.yul\":1151:1160   */\n  dup6\n    /* \"#utility.yul\":1147:1169   */\n  add\n    /* \"#utility.yul\":1115:1179   */\n  tag_22\n  jump\t// in\ntag_38:\n    /* \"#utility.yul\":1105:1179   */\n  swap2\n  pop\n    /* \"#utility.yul\":1061:1189   */\n  pop\n    /* \"#utility.yul\":845:1196   */\n  swap3\n  swap2\n  pop\n  pop\n  jump\t// out\n    /* \"#utility.yul\":1202:1382   */\ntag_14:\n    /* \"#utility.yul\":1250:1327   */\n  0x4e487b7100000000000000000000000000000000000000000000000000000000\n    /* \"#utility.yul\":1247:1248   */\n  0x00\n    /* \"#utility.yul\":1240:1328   */\n  mstore\n    /* \"#utility.yul\":1347:1351   */\n  0x21\n    /* \"#utility.yul\":1344:1345   */\n  0x04\n    /* \"#utility.yul\":1337:1352   */\n  mstore\n    /* \"#utility.yul\":1371:1375   */\n  0x24\n    /* \"#utility.yul\":1368:1369   */\n  0x00\n    /* \"#utility.yul\":1361:1376   */\n  revert\n    /* \"Contracts\":8834:9988  contract AccountabilityContractApprovalRequest {... */\ntag_15:\n  dataSize(sub_0)\n  dup1\n  dataOffset(sub_0)\n  0x00\n  codecopy\n  0x00\n  return\nstop\n\nsub_0: assembly {\n        /* \"Contracts\":8834:9988  contract AccountabilityContractApprovalRequest {... */\n      mstore(0x40, 0x80)\n      callvalue\n      dup1\n      iszero\n      tag_1\n      jumpi\n      0x00\n      dup1\n      revert\n    tag_1:\n      pop\n      jumpi(tag_2, lt(calldatasize, 0x04))\n      shr(0xe0, calldataload(0x00))\n      dup1\n      0x3b1bebd1\n      gt\n      tag_10\n      jumpi\n      dup1\n      0x3b1bebd1\n      eq\n      tag_6\n      jumpi\n      dup1\n      0x3c490174\n      eq\n      tag_7\n      jumpi\n      dup1\n      0x7a7f01a7\n      eq\n      tag_8\n      jumpi\n      dup1\n      0xd2daa825\n      eq\n      tag_9\n      jumpi\n      jump(tag_2)\n    tag_10:\n      dup1\n      0x02d05d3f\n      eq\n      tag_3\n      jumpi\n      dup1\n      0x200d2ed2\n      eq\n      tag_4\n      jumpi\n      dup1\n      0x263b81c9\n      eq\n      tag_5\n      jumpi\n    tag_2:\n      0x00\n      dup1\n      revert\n        /* \"Contracts\":8887:8909  address public creator */\n    tag_3:\n      tag_11\n      tag_12\n      jump\t// in\n    tag_11:\n      mload(0x40)\n      tag_13\n      swap2\n      swap1\n      tag_14\n      jump\t// in\n    tag_13:\n      mload(0x40)\n      dup1\n      swap2\n      sub\n      swap1\n      return\n        /* \"Contracts\":9035:9055  Status public status */\n    tag_4:\n      tag_15\n      tag_16\n      jump\t// in\n    tag_15:\n      mload(0x40)\n      tag_17\n      swap2\n      swap1\n      tag_18\n      jump\t// in\n    tag_17:\n      mload(0x40)\n      dup1\n      swap2\n      sub\n      swap1\n      return\n        /* \"Contracts\":9477:9705  function approveRequest() public  returns (AccountabilityContractApprovalRequest) {... */\n    tag_5:\n      tag_19\n      tag_20\n      jump\t// in\n    tag_19:\n      mload(0x40)\n      tag_21\n      swap2\n      swap1\n      tag_22\n      jump\t// in\n    tag_21:\n      mload(0x40)\n      dup1\n      swap2\n      sub\n      swap1\n      return\n        /* \"Contracts\":8915:8937  address public referee */\n    tag_6:\n      tag_23\n      tag_24\n      jump\t// in\n    tag_23:\n      mload(0x40)\n      tag_25\n      swap2\n      swap1\n      tag_14\n      jump\t// in\n    tag_25:\n      mload(0x40)\n      dup1\n      swap2\n      sub\n      swap1\n      return\n        /* \"Contracts\":8943:8987  address public accountabilityContractAddress */\n    tag_7:\n      tag_26\n      tag_27\n      jump\t// in\n    tag_26:\n      mload(0x40)\n      tag_28\n      swap2\n      swap1\n      tag_14\n      jump\t// in\n    tag_28:\n      mload(0x40)\n      dup1\n      swap2\n      sub\n      swap1\n      return\n        /* \"Contracts\":9061:9083  string public response */\n    tag_8:\n      tag_29\n      tag_30\n      jump\t// in\n    tag_29:\n      mload(0x40)\n      tag_31\n      swap2\n      swap1\n      tag_32\n      jump\t// in\n    tag_31:\n      mload(0x40)\n      dup1\n      swap2\n      sub\n      swap1\n      return\n        /* \"Contracts\":9712:9985  function denyRequest(string memory _response) public  returns (AccountabilityContractApprovalRequest) {... */\n    tag_9:\n      tag_33\n      0x04\n      dup1\n      calldatasize\n      sub\n      dup2\n      add\n      swap1\n      tag_34\n      swap2\n      swap1\n      tag_35\n      jump\t// in\n    tag_34:\n      tag_36\n      jump\t// in\n    tag_33:\n      mload(0x40)\n      tag_37\n      swap2\n      swap1\n      tag_22\n      jump\t// in\n    tag_37:\n      mload(0x40)\n      dup1\n      swap2\n      sub\n      swap1\n      return\n        /* \"Contracts\":8887:8909  address public creator */\n    tag_12:\n      0x00\n      dup1\n      sload\n      swap1\n      0x0100\n      exp\n      swap1\n      div\n      0xffffffffffffffffffffffffffffffffffffffff\n      and\n      dup2\n      jump\t// out\n        /* \"Contracts\":9035:9055  Status public status */\n    tag_16:\n      0x02\n      0x14\n      swap1\n      sload\n      swap1\n      0x0100\n      exp\n      swap1\n      div\n      0xff\n      and\n      dup2\n      jump\t// out\n        /* \"Contracts\":9477:9705  function approveRequest() public  returns (AccountabilityContractApprovalRequest) {... */\n    tag_20:\n        /* \"Contracts\":9520:9557  AccountabilityContractApprovalRequest */\n      0x00\n        /* \"Contracts\":9590:9597  referee */\n      0x01\n      0x00\n      swap1\n      sload\n      swap1\n      0x0100\n      exp\n      swap1\n      div\n      0xffffffffffffffffffffffffffffffffffffffff\n      and\n        /* \"Contracts\":9577:9597  tx.origin == referee */\n      0xffffffffffffffffffffffffffffffffffffffff\n      and\n        /* \"Contracts\":9577:9586  tx.origin */\n      origin\n        /* \"Contracts\":9577:9597  tx.origin == referee */\n      0xffffffffffffffffffffffffffffffffffffffff\n      and\n      eq\n        /* \"Contracts\":9569:9643  require(tx.origin == referee, \"Only referee can approve approval request\") */\n      tag_39\n      jumpi\n      mload(0x40)\n      0x08c379a000000000000000000000000000000000000000000000000000000000\n      dup2\n      mstore\n      0x04\n      add\n      tag_40\n      swap1\n      tag_41\n      jump\t// in\n    tag_40:\n      mload(0x40)\n      dup1\n      swap2\n      sub\n      swap1\n      revert\n    tag_39:\n        /* \"Contracts\":9662:9677  Status.APPROVED */\n      0x01\n        /* \"Contracts\":9653:9659  status */\n      0x02\n      0x14\n        /* \"Contracts\":9653:9677  status = Status.APPROVED */\n      0x0100\n      exp\n      dup2\n      sload\n      dup2\n      0xff\n      mul\n      not\n      and\n      swap1\n      dup4\n      0x02\n      dup2\n      gt\n      iszero\n      tag_42\n      jumpi\n      tag_43\n      tag_44\n      jump\t// in\n    tag_43:\n    tag_42:\n      mul\n      or\n      swap1\n      sstore\n      pop\n        /* \"Contracts\":9694:9698  this */\n      address\n        /* \"Contracts\":9687:9698  return this */\n      swap1\n      pop\n        /* \"Contracts\":9477:9705  function approveRequest() public  returns (AccountabilityContractApprovalRequest) {... */\n      swap1\n      jump\t// out\n        /* \"Contracts\":8915:8937  address public referee */\n    tag_24:\n      0x01\n      0x00\n      swap1\n      sload\n      swap1\n      0x0100\n      exp\n      swap1\n      div\n      0xffffffffffffffffffffffffffffffffffffffff\n      and\n      dup2\n      jump\t// out\n        /* \"Contracts\":8943:8987  address public accountabilityContractAddress */\n    tag_27:\n      0x02\n      0x00\n      swap1\n      sload\n      swap1\n      0x0100\n      exp\n      swap1\n      div\n      0xffffffffffffffffffffffffffffffffffffffff\n      and\n      dup2\n      jump\t// out\n        /* \"Contracts\":9061:9083  string public response */\n    tag_30:\n      0x03\n      dup1\n      sload\n      tag_45\n      swap1\n      tag_46\n      jump\t// in\n    tag_45:\n      dup1\n      0x1f\n      add\n      0x20\n      dup1\n      swap2\n      div\n      mul\n      0x20\n      add\n      mload(0x40)\n      swap1\n      dup2\n      add\n      0x40\n      mstore\n      dup1\n      swap3\n      swap2\n      swap1\n      dup2\n      dup2\n      mstore\n      0x20\n      add\n      dup3\n      dup1\n      sload\n      tag_47\n      swap1\n      tag_46\n      jump\t// in\n    tag_47:\n      dup1\n      iszero\n      tag_48\n      jumpi\n      dup1\n      0x1f\n      lt\n      tag_49\n      jumpi\n      0x0100\n      dup1\n      dup4\n      sload\n      div\n      mul\n      dup4\n      mstore\n      swap2\n      0x20\n      add\n      swap2\n      jump(tag_48)\n    tag_49:\n      dup3\n      add\n      swap2\n      swap1\n      0x00\n      mstore\n      keccak256(0x00, 0x20)\n      swap1\n    tag_50:\n      dup2\n      sload\n      dup2\n      mstore\n      swap1\n      0x01\n      add\n      swap1\n      0x20\n      add\n      dup1\n      dup4\n      gt\n      tag_50\n      jumpi\n      dup3\n      swap1\n      sub\n      0x1f\n      and\n      dup3\n      add\n      swap2\n    tag_48:\n      pop\n      pop\n      pop\n      pop\n      pop\n      dup2\n      jump\t// out\n        /* \"Contracts\":9712:9985  function denyRequest(string memory _response) public  returns (AccountabilityContractApprovalRequest) {... */\n    tag_36:\n        /* \"Contracts\":9775:9812  AccountabilityContractApprovalRequest */\n      0x00\n        /* \"Contracts\":9845:9852  referee */\n      0x01\n      0x00\n      swap1\n      sload\n      swap1\n      0x0100\n      exp\n      swap1\n      div\n      0xffffffffffffffffffffffffffffffffffffffff\n      and\n        /* \"Contracts\":9832:9852  tx.origin == referee */\n      0xffffffffffffffffffffffffffffffffffffffff\n      and\n        /* \"Contracts\":9832:9841  tx.origin */\n      origin\n        /* \"Contracts\":9832:9852  tx.origin == referee */\n      0xffffffffffffffffffffffffffffffffffffffff\n      and\n      eq\n        /* \"Contracts\":9824:9895  require(tx.origin == referee, \"Only referee can deny approval request\") */\n      tag_52\n      jumpi\n      mload(0x40)\n      0x08c379a000000000000000000000000000000000000000000000000000000000\n      dup2\n      mstore\n      0x04\n      add\n      tag_53\n      swap1\n      tag_54\n      jump\t// in\n    tag_53:\n      mload(0x40)\n      dup1\n      swap2\n      sub\n      swap1\n      revert\n    tag_52:\n        /* \"Contracts\":9914:9927  Status.DENIED */\n      0x02\n        /* \"Contracts\":9905:9911  status */\n      dup1\n      0x14\n        /* \"Contracts\":9905:9927  status = Status.DENIED */\n      0x0100\n      exp\n      dup2\n      sload\n      dup2\n      0xff\n      mul\n      not\n      and\n      swap1\n      dup4\n      0x02\n      dup2\n      gt\n      iszero\n      tag_55\n      jumpi\n      tag_56\n      tag_44\n      jump\t// in\n    tag_56:\n    tag_55:\n      mul\n      or\n      swap1\n      sstore\n      pop\n        /* \"Contracts\":9948:9957  _response */\n      dup2\n        /* \"Contracts\":9937:9945  response */\n      0x03\n        /* \"Contracts\":9937:9957  response = _response */\n      swap1\n      dup1\n      mload\n      swap1\n      0x20\n      add\n      swap1\n      tag_57\n      swap3\n      swap2\n      swap1\n      tag_58\n      jump\t// in\n    tag_57:\n      pop\n        /* \"Contracts\":9974:9978  this */\n      address\n        /* \"Contracts\":9967:9978  return this */\n      swap1\n      pop\n        /* \"Contracts\":9712:9985  function denyRequest(string memory _response) public  returns (AccountabilityContractApprovalRequest) {... */\n      swap2\n      swap1\n      pop\n      jump\t// out\n    tag_58:\n      dup3\n      dup1\n      sload\n      tag_59\n      swap1\n      tag_46\n      jump\t// in\n    tag_59:\n      swap1\n      0x00\n      mstore\n      keccak256(0x00, 0x20)\n      swap1\n      0x1f\n      add\n      0x20\n      swap1\n      div\n      dup2\n      add\n      swap3\n      dup3\n      tag_61\n      jumpi\n      0x00\n      dup6\n      sstore\n      jump(tag_60)\n    tag_61:\n      dup3\n      0x1f\n      lt\n      tag_62\n      jumpi\n      dup1\n      mload\n      not(0xff)\n      and\n      dup4\n      dup1\n      add\n      or\n      dup6\n      sstore\n      jump(tag_60)\n    tag_62:\n      dup3\n      dup1\n      add\n      0x01\n      add\n      dup6\n      sstore\n      dup3\n      iszero\n      tag_60\n      jumpi\n      swap2\n      dup3\n      add\n    tag_63:\n      dup3\n      dup2\n      gt\n      iszero\n      tag_64\n      jumpi\n      dup3\n      mload\n      dup3\n      sstore\n      swap2\n      0x20\n      add\n      swap2\n      swap1\n      0x01\n      add\n      swap1\n      jump(tag_63)\n    tag_64:\n    tag_60:\n      pop\n      swap1\n      pop\n      tag_65\n      swap2\n      swap1\n      tag_66\n      jump\t// in\n    tag_65:\n      pop\n      swap1\n      jump\t// out\n    tag_66:\n    tag_67:\n      dup1\n      dup3\n      gt\n      iszero\n      tag_68\n      jumpi\n      0x00\n      dup2\n      0x00\n      swap1\n      sstore\n      pop\n      0x01\n      add\n      jump(tag_67)\n    tag_68:\n      pop\n      swap1\n      jump\t// out\n        /* \"#utility.yul\":7:133   */\n    tag_69:\n        /* \"#utility.yul\":44:51   */\n      0x00\n        /* \"#utility.yul\":84:126   */\n      0xffffffffffffffffffffffffffffffffffffffff\n        /* \"#utility.yul\":77:82   */\n      dup3\n        /* \"#utility.yul\":73:127   */\n      and\n        /* \"#utility.yul\":62:127   */\n      swap1\n      pop\n        /* \"#utility.yul\":7:133   */\n      swap2\n      swap1\n      pop\n      jump\t// out\n        /* \"#utility.yul\":139:235   */\n    tag_70:\n        /* \"#utility.yul\":176:183   */\n      0x00\n        /* \"#utility.yul\":205:229   */\n      tag_106\n        /* \"#utility.yul\":223:228   */\n      dup3\n        /* \"#utility.yul\":205:229   */\n      tag_69\n      jump\t// in\n    tag_106:\n        /* \"#utility.yul\":194:229   */\n      swap1\n      pop\n        /* \"#utility.yul\":139:235   */\n      swap2\n      swap1\n      pop\n      jump\t// out\n        /* \"#utility.yul\":241:359   */\n    tag_71:\n        /* \"#utility.yul\":328:352   */\n      tag_108\n        /* \"#utility.yul\":346:351   */\n      dup2\n        /* \"#utility.yul\":328:352   */\n      tag_70\n      jump\t// in\n    tag_108:\n        /* \"#utility.yul\":323:326   */\n      dup3\n        /* \"#utility.yul\":316:353   */\n      mstore\n        /* \"#utility.yul\":241:359   */\n      pop\n      pop\n      jump\t// out\n        /* \"#utility.yul\":365:587   */\n    tag_14:\n        /* \"#utility.yul\":458:462   */\n      0x00\n        /* \"#utility.yul\":496:498   */\n      0x20\n        /* \"#utility.yul\":485:494   */\n      dup3\n        /* \"#utility.yul\":481:499   */\n      add\n        /* \"#utility.yul\":473:499   */\n      swap1\n      pop\n        /* \"#utility.yul\":509:580   */\n      tag_110\n        /* \"#utility.yul\":577:578   */\n      0x00\n        /* \"#utility.yul\":566:575   */\n      dup4\n        /* \"#utility.yul\":562:579   */\n      add\n        /* \"#utility.yul\":553:559   */\n      dup5\n        /* \"#utility.yul\":509:580   */\n      tag_71\n      jump\t// in\n    tag_110:\n        /* \"#utility.yul\":365:587   */\n      swap3\n      swap2\n      pop\n      pop\n      jump\t// out\n        /* \"#utility.yul\":593:773   */\n    tag_44:\n        /* \"#utility.yul\":641:718   */\n      0x4e487b7100000000000000000000000000000000000000000000000000000000\n        /* \"#utility.yul\":638:639   */\n      0x00\n        /* \"#utility.yul\":631:719   */\n      mstore\n        /* \"#utility.yul\":738:742   */\n      0x21\n        /* \"#utility.yul\":735:736   */\n      0x04\n        /* \"#utility.yul\":728:743   */\n      mstore\n        /* \"#utility.yul\":762:766   */\n      0x24\n        /* \"#utility.yul\":759:760   */\n      0x00\n        /* \"#utility.yul\":752:767   */\n      revert\n        /* \"#utility.yul\":779:894   */\n    tag_72:\n        /* \"#utility.yul\":862:863   */\n      0x03\n        /* \"#utility.yul\":855:860   */\n      dup2\n        /* \"#utility.yul\":852:864   */\n      lt\n        /* \"#utility.yul\":842:888   */\n      tag_113\n      jumpi\n        /* \"#utility.yul\":868:886   */\n      tag_114\n      tag_44\n      jump\t// in\n    tag_114:\n        /* \"#utility.yul\":842:888   */\n    tag_113:\n        /* \"#utility.yul\":779:894   */\n      pop\n      jump\t// out\n        /* \"#utility.yul\":900:1031   */\n    tag_73:\n        /* \"#utility.yul\":947:954   */\n      0x00\n        /* \"#utility.yul\":976:981   */\n      dup2\n        /* \"#utility.yul\":965:981   */\n      swap1\n      pop\n        /* \"#utility.yul\":982:1025   */\n      tag_116\n        /* \"#utility.yul\":1019:1024   */\n      dup3\n        /* \"#utility.yul\":982:1025   */\n      tag_72\n      jump\t// in\n    tag_116:\n        /* \"#utility.yul\":900:1031   */\n      swap2\n      swap1\n      pop\n      jump\t// out\n        /* \"#utility.yul\":1037:1168   */\n    tag_74:\n        /* \"#utility.yul\":1095:1104   */\n      0x00\n        /* \"#utility.yul\":1128:1162   */\n      tag_118\n        /* \"#utility.yul\":1156:1161   */\n      dup3\n        /* \"#utility.yul\":1128:1162   */\n      tag_73\n      jump\t// in\n    tag_118:\n        /* \"#utility.yul\":1115:1162   */\n      swap1\n      pop\n        /* \"#utility.yul\":1037:1168   */\n      swap2\n      swap1\n      pop\n      jump\t// out\n        /* \"#utility.yul\":1174:1321   */\n    tag_75:\n        /* \"#utility.yul\":1269:1314   */\n      tag_120\n        /* \"#utility.yul\":1308:1313   */\n      dup2\n        /* \"#utility.yul\":1269:1314   */\n      tag_74\n      jump\t// in\n    tag_120:\n        /* \"#utility.yul\":1264:1267   */\n      dup3\n        /* \"#utility.yul\":1257:1315   */\n      mstore\n        /* \"#utility.yul\":1174:1321   */\n      pop\n      pop\n      jump\t// out\n        /* \"#utility.yul\":1327:1565   */\n    tag_18:\n        /* \"#utility.yul\":1428:1432   */\n      0x00\n        /* \"#utility.yul\":1466:1468   */\n      0x20\n        /* \"#utility.yul\":1455:1464   */\n      dup3\n        /* \"#utility.yul\":1451:1469   */\n      add\n        /* \"#utility.yul\":1443:1469   */\n      swap1\n      pop\n        /* \"#utility.yul\":1479:1558   */\n      tag_122\n        /* \"#utility.yul\":1555:1556   */\n      0x00\n        /* \"#utility.yul\":1544:1553   */\n      dup4\n        /* \"#utility.yul\":1540:1557   */\n      add\n        /* \"#utility.yul\":1531:1537   */\n      dup5\n        /* \"#utility.yul\":1479:1558   */\n      tag_75\n      jump\t// in\n    tag_122:\n        /* \"#utility.yul\":1327:1565   */\n      swap3\n      swap2\n      pop\n      pop\n      jump\t// out\n        /* \"#utility.yul\":1571:1631   */\n    tag_76:\n        /* \"#utility.yul\":1599:1602   */\n      0x00\n        /* \"#utility.yul\":1620:1625   */\n      dup2\n        /* \"#utility.yul\":1613:1625   */\n      swap1\n      pop\n        /* \"#utility.yul\":1571:1631   */\n      swap2\n      swap1\n      pop\n      jump\t// out\n        /* \"#utility.yul\":1637:1779   */\n    tag_77:\n        /* \"#utility.yul\":1687:1696   */\n      0x00\n        /* \"#utility.yul\":1720:1773   */\n      tag_125\n        /* \"#utility.yul\":1738:1772   */\n      tag_126\n        /* \"#utility.yul\":1747:1771   */\n      tag_127\n        /* \"#utility.yul\":1765:1770   */\n      dup5\n        /* \"#utility.yul\":1747:1771   */\n      tag_69\n      jump\t// in\n    tag_127:\n        /* \"#utility.yul\":1738:1772   */\n      tag_76\n      jump\t// in\n    tag_126:\n        /* \"#utility.yul\":1720:1773   */\n      tag_69\n      jump\t// in\n    tag_125:\n        /* \"#utility.yul\":1707:1773   */\n      swap1\n      pop\n        /* \"#utility.yul\":1637:1779   */\n      swap2\n      swap1\n      pop\n      jump\t// out\n        /* \"#utility.yul\":1785:1911   */\n    tag_78:\n        /* \"#utility.yul\":1835:1844   */\n      0x00\n        /* \"#utility.yul\":1868:1905   */\n      tag_129\n        /* \"#utility.yul\":1899:1904   */\n      dup3\n        /* \"#utility.yul\":1868:1905   */\n      tag_77\n      jump\t// in\n    tag_129:\n        /* \"#utility.yul\":1855:1905   */\n      swap1\n      pop\n        /* \"#utility.yul\":1785:1911   */\n      swap2\n      swap1\n      pop\n      jump\t// out\n        /* \"#utility.yul\":1917:2088   */\n    tag_79:\n        /* \"#utility.yul\":2012:2021   */\n      0x00\n        /* \"#utility.yul\":2045:2082   */\n      tag_131\n        /* \"#utility.yul\":2076:2081   */\n      dup3\n        /* \"#utility.yul\":2045:2082   */\n      tag_78\n      jump\t// in\n    tag_131:\n        /* \"#utility.yul\":2032:2082   */\n      swap1\n      pop\n        /* \"#utility.yul\":1917:2088   */\n      swap2\n      swap1\n      pop\n      jump\t// out\n        /* \"#utility.yul\":2094:2315   */\n    tag_80:\n        /* \"#utility.yul\":2226:2308   */\n      tag_133\n        /* \"#utility.yul\":2302:2307   */\n      dup2\n        /* \"#utility.yul\":2226:2308   */\n      tag_79\n      jump\t// in\n    tag_133:\n        /* \"#utility.yul\":2221:2224   */\n      dup3\n        /* \"#utility.yul\":2214:2309   */\n      mstore\n        /* \"#utility.yul\":2094:2315   */\n      pop\n      pop\n      jump\t// out\n        /* \"#utility.yul\":2321:2633   */\n    tag_22:\n        /* \"#utility.yul\":2459:2463   */\n      0x00\n        /* \"#utility.yul\":2497:2499   */\n      0x20\n        /* \"#utility.yul\":2486:2495   */\n      dup3\n        /* \"#utility.yul\":2482:2500   */\n      add\n        /* \"#utility.yul\":2474:2500   */\n      swap1\n      pop\n        /* \"#utility.yul\":2510:2626   */\n      tag_135\n        /* \"#utility.yul\":2623:2624   */\n      0x00\n        /* \"#utility.yul\":2612:2621   */\n      dup4\n        /* \"#utility.yul\":2608:2625   */\n      add\n        /* \"#utility.yul\":2599:2605   */\n      dup5\n        /* \"#utility.yul\":2510:2626   */\n      tag_80\n      jump\t// in\n    tag_135:\n        /* \"#utility.yul\":2321:2633   */\n      swap3\n      swap2\n      pop\n      pop\n      jump\t// out\n        /* \"#utility.yul\":2639:2738   */\n    tag_81:\n        /* \"#utility.yul\":2691:2697   */\n      0x00\n        /* \"#utility.yul\":2725:2730   */\n      dup2\n        /* \"#utility.yul\":2719:2731   */\n      mload\n        /* \"#utility.yul\":2709:2731   */\n      swap1\n      pop\n        /* \"#utility.yul\":2639:2738   */\n      swap2\n      swap1\n      pop\n      jump\t// out\n        /* \"#utility.yul\":2744:2913   */\n    tag_82:\n        /* \"#utility.yul\":2828:2839   */\n      0x00\n        /* \"#utility.yul\":2862:2868   */\n      dup3\n        /* \"#utility.yul\":2857:2860   */\n      dup3\n        /* \"#utility.yul\":2850:2869   */\n      mstore\n        /* \"#utility.yul\":2902:2906   */\n      0x20\n        /* \"#utility.yul\":2897:2900   */\n      dup3\n        /* \"#utility.yul\":2893:2907   */\n      add\n        /* \"#utility.yul\":2878:2907   */\n      swap1\n      pop\n        /* \"#utility.yul\":2744:2913   */\n      swap3\n      swap2\n      pop\n      pop\n      jump\t// out\n        /* \"#utility.yul\":2919:3226   */\n    tag_83:\n        /* \"#utility.yul\":2987:2988   */\n      0x00\n        /* \"#utility.yul\":2997:3110   */\n    tag_139:\n        /* \"#utility.yul\":3011:3017   */\n      dup4\n        /* \"#utility.yul\":3008:3009   */\n      dup2\n        /* \"#utility.yul\":3005:3018   */\n      lt\n        /* \"#utility.yul\":2997:3110   */\n      iszero\n      tag_141\n      jumpi\n        /* \"#utility.yul\":3096:3097   */\n      dup1\n        /* \"#utility.yul\":3091:3094   */\n      dup3\n        /* \"#utility.yul\":3087:3098   */\n      add\n        /* \"#utility.yul\":3081:3099   */\n      mload\n        /* \"#utility.yul\":3077:3078   */\n      dup2\n        /* \"#utility.yul\":3072:3075   */\n      dup5\n        /* \"#utility.yul\":3068:3079   */\n      add\n        /* \"#utility.yul\":3061:3100   */\n      mstore\n        /* \"#utility.yul\":3033:3035   */\n      0x20\n        /* \"#utility.yul\":3030:3031   */\n      dup2\n        /* \"#utility.yul\":3026:3036   */\n      add\n        /* \"#utility.yul\":3021:3036   */\n      swap1\n      pop\n        /* \"#utility.yul\":2997:3110   */\n      jump(tag_139)\n    tag_141:\n        /* \"#utility.yul\":3128:3134   */\n      dup4\n        /* \"#utility.yul\":3125:3126   */\n      dup2\n        /* \"#utility.yul\":3122:3135   */\n      gt\n        /* \"#utility.yul\":3119:3220   */\n      iszero\n      tag_142\n      jumpi\n        /* \"#utility.yul\":3208:3209   */\n      0x00\n        /* \"#utility.yul\":3199:3205   */\n      dup5\n        /* \"#utility.yul\":3194:3197   */\n      dup5\n        /* \"#utility.yul\":3190:3206   */\n      add\n        /* \"#utility.yul\":3183:3210   */\n      mstore\n        /* \"#utility.yul\":3119:3220   */\n    tag_142:\n        /* \"#utility.yul\":2968:3226   */\n      pop\n        /* \"#utility.yul\":2919:3226   */\n      pop\n      pop\n      pop\n      jump\t// out\n        /* \"#utility.yul\":3232:3334   */\n    tag_84:\n        /* \"#utility.yul\":3273:3279   */\n      0x00\n        /* \"#utility.yul\":3324:3326   */\n      0x1f\n        /* \"#utility.yul\":3320:3327   */\n      not\n        /* \"#utility.yul\":3315:3317   */\n      0x1f\n        /* \"#utility.yul\":3308:3313   */\n      dup4\n        /* \"#utility.yul\":3304:3318   */\n      add\n        /* \"#utility.yul\":3300:3328   */\n      and\n        /* \"#utility.yul\":3290:3328   */\n      swap1\n      pop\n        /* \"#utility.yul\":3232:3334   */\n      swap2\n      swap1\n      pop\n      jump\t// out\n        /* \"#utility.yul\":3340:3704   */\n    tag_85:\n        /* \"#utility.yul\":3428:3431   */\n      0x00\n        /* \"#utility.yul\":3456:3495   */\n      tag_145\n        /* \"#utility.yul\":3489:3494   */\n      dup3\n        /* \"#utility.yul\":3456:3495   */\n      tag_81\n      jump\t// in\n    tag_145:\n        /* \"#utility.yul\":3511:3582   */\n      tag_146\n        /* \"#utility.yul\":3575:3581   */\n      dup2\n        /* \"#utility.yul\":3570:3573   */\n      dup6\n        /* \"#utility.yul\":3511:3582   */\n      tag_82\n      jump\t// in\n    tag_146:\n        /* \"#utility.yul\":3504:3582   */\n      swap4\n      pop\n        /* \"#utility.yul\":3591:3643   */\n      tag_147\n        /* \"#utility.yul\":3636:3642   */\n      dup2\n        /* \"#utility.yul\":3631:3634   */\n      dup6\n        /* \"#utility.yul\":3624:3628   */\n      0x20\n        /* \"#utility.yul\":3617:3622   */\n      dup7\n        /* \"#utility.yul\":3613:3629   */\n      add\n        /* \"#utility.yul\":3591:3643   */\n      tag_83\n      jump\t// in\n    tag_147:\n        /* \"#utility.yul\":3668:3697   */\n      tag_148\n        /* \"#utility.yul\":3690:3696   */\n      dup2\n        /* \"#utility.yul\":3668:3697   */\n      tag_84\n      jump\t// in\n    tag_148:\n        /* \"#utility.yul\":3663:3666   */\n      dup5\n        /* \"#utility.yul\":3659:3698   */\n      add\n        /* \"#utility.yul\":3652:3698   */\n      swap2\n      pop\n        /* \"#utility.yul\":3432:3704   */\n      pop\n        /* \"#utility.yul\":3340:3704   */\n      swap3\n      swap2\n      pop\n      pop\n      jump\t// out\n        /* \"#utility.yul\":3710:4023   */\n    tag_32:\n        /* \"#utility.yul\":3823:3827   */\n      0x00\n        /* \"#utility.yul\":3861:3863   */\n      0x20\n        /* \"#utility.yul\":3850:3859   */\n      dup3\n        /* \"#utility.yul\":3846:3864   */\n      add\n        /* \"#utility.yul\":3838:3864   */\n      swap1\n      pop\n        /* \"#utility.yul\":3910:3919   */\n      dup2\n        /* \"#utility.yul\":3904:3908   */\n      dup2\n        /* \"#utility.yul\":3900:3920   */\n      sub\n        /* \"#utility.yul\":3896:3897   */\n      0x00\n        /* \"#utility.yul\":3885:3894   */\n      dup4\n        /* \"#utility.yul\":3881:3898   */\n      add\n        /* \"#utility.yul\":3874:3921   */\n      mstore\n        /* \"#utility.yul\":3938:4016   */\n      tag_150\n        /* \"#utility.yul\":4011:4015   */\n      dup2\n        /* \"#utility.yul\":4002:4008   */\n      dup5\n        /* \"#utility.yul\":3938:4016   */\n      tag_85\n      jump\t// in\n    tag_150:\n        /* \"#utility.yul\":3930:4016   */\n      swap1\n      pop\n        /* \"#utility.yul\":3710:4023   */\n      swap3\n      swap2\n      pop\n      pop\n      jump\t// out\n        /* \"#utility.yul\":4029:4104   */\n    tag_86:\n        /* \"#utility.yul\":4062:4068   */\n      0x00\n        /* \"#utility.yul\":4095:4097   */\n      0x40\n        /* \"#utility.yul\":4089:4098   */\n      mload\n        /* \"#utility.yul\":4079:4098   */\n      swap1\n      pop\n        /* \"#utility.yul\":4029:4104   */\n      swap1\n      jump\t// out\n        /* \"#utility.yul\":4110:4227   */\n    tag_87:\n        /* \"#utility.yul\":4219:4220   */\n      0x00\n        /* \"#utility.yul\":4216:4217   */\n      dup1\n        /* \"#utility.yul\":4209:4221   */\n      revert\n        /* \"#utility.yul\":4233:4350   */\n    tag_88:\n        /* \"#utility.yul\":4342:4343   */\n      0x00\n        /* \"#utility.yul\":4339:4340   */\n      dup1\n        /* \"#utility.yul\":4332:4344   */\n      revert\n        /* \"#utility.yul\":4356:4473   */\n    tag_89:\n        /* \"#utility.yul\":4465:4466   */\n      0x00\n        /* \"#utility.yul\":4462:4463   */\n      dup1\n        /* \"#utility.yul\":4455:4467   */\n      revert\n        /* \"#utility.yul\":4479:4596   */\n    tag_90:\n        /* \"#utility.yul\":4588:4589   */\n      0x00\n        /* \"#utility.yul\":4585:4586   */\n      dup1\n        /* \"#utility.yul\":4578:4590   */\n      revert\n        /* \"#utility.yul\":4602:4782   */\n    tag_91:\n        /* \"#utility.yul\":4650:4727   */\n      0x4e487b7100000000000000000000000000000000000000000000000000000000\n        /* \"#utility.yul\":4647:4648   */\n      0x00\n        /* \"#utility.yul\":4640:4728   */\n      mstore\n        /* \"#utility.yul\":4747:4751   */\n      0x41\n        /* \"#utility.yul\":4744:4745   */\n      0x04\n        /* \"#utility.yul\":4737:4752   */\n      mstore\n        /* \"#utility.yul\":4771:4775   */\n      0x24\n        /* \"#utility.yul\":4768:4769   */\n      0x00\n        /* \"#utility.yul\":4761:4776   */\n      revert\n        /* \"#utility.yul\":4788:5069   */\n    tag_92:\n        /* \"#utility.yul\":4871:4898   */\n      tag_158\n        /* \"#utility.yul\":4893:4897   */\n      dup3\n        /* \"#utility.yul\":4871:4898   */\n      tag_84\n      jump\t// in\n    tag_158:\n        /* \"#utility.yul\":4863:4869   */\n      dup2\n        /* \"#utility.yul\":4859:4899   */\n      add\n        /* \"#utility.yul\":5001:5007   */\n      dup2\n        /* \"#utility.yul\":4989:4999   */\n      dup2\n        /* \"#utility.yul\":4986:5008   */\n      lt\n        /* \"#utility.yul\":4965:4983   */\n      0xffffffffffffffff\n        /* \"#utility.yul\":4953:4963   */\n      dup3\n        /* \"#utility.yul\":4950:4984   */\n      gt\n        /* \"#utility.yul\":4947:5009   */\n      or\n        /* \"#utility.yul\":4944:5032   */\n      iszero\n      tag_159\n      jumpi\n        /* \"#utility.yul\":5012:5030   */\n      tag_160\n      tag_91\n      jump\t// in\n    tag_160:\n        /* \"#utility.yul\":4944:5032   */\n    tag_159:\n        /* \"#utility.yul\":5052:5062   */\n      dup1\n        /* \"#utility.yul\":5048:5050   */\n      0x40\n        /* \"#utility.yul\":5041:5063   */\n      mstore\n        /* \"#utility.yul\":4831:5069   */\n      pop\n        /* \"#utility.yul\":4788:5069   */\n      pop\n      pop\n      jump\t// out\n        /* \"#utility.yul\":5075:5204   */\n    tag_93:\n        /* \"#utility.yul\":5109:5115   */\n      0x00\n        /* \"#utility.yul\":5136:5156   */\n      tag_162\n      tag_86\n      jump\t// in\n    tag_162:\n        /* \"#utility.yul\":5126:5156   */\n      swap1\n      pop\n        /* \"#utility.yul\":5165:5198   */\n      tag_163\n        /* \"#utility.yul\":5193:5197   */\n      dup3\n        /* \"#utility.yul\":5185:5191   */\n      dup3\n        /* \"#utility.yul\":5165:5198   */\n      tag_92\n      jump\t// in\n    tag_163:\n        /* \"#utility.yul\":5075:5204   */\n      swap2\n      swap1\n      pop\n      jump\t// out\n        /* \"#utility.yul\":5210:5518   */\n    tag_94:\n        /* \"#utility.yul\":5272:5276   */\n      0x00\n        /* \"#utility.yul\":5362:5380   */\n      0xffffffffffffffff\n        /* \"#utility.yul\":5354:5360   */\n      dup3\n        /* \"#utility.yul\":5351:5381   */\n      gt\n        /* \"#utility.yul\":5348:5404   */\n      iszero\n      tag_165\n      jumpi\n        /* \"#utility.yul\":5384:5402   */\n      tag_166\n      tag_91\n      jump\t// in\n    tag_166:\n        /* \"#utility.yul\":5348:5404   */\n    tag_165:\n        /* \"#utility.yul\":5422:5451   */\n      tag_167\n        /* \"#utility.yul\":5444:5450   */\n      dup3\n        /* \"#utility.yul\":5422:5451   */\n      tag_84\n      jump\t// in\n    tag_167:\n        /* \"#utility.yul\":5414:5451   */\n      swap1\n      pop\n        /* \"#utility.yul\":5506:5510   */\n      0x20\n        /* \"#utility.yul\":5500:5504   */\n      dup2\n        /* \"#utility.yul\":5496:5511   */\n      add\n        /* \"#utility.yul\":5488:5511   */\n      swap1\n      pop\n        /* \"#utility.yul\":5210:5518   */\n      swap2\n      swap1\n      pop\n      jump\t// out\n        /* \"#utility.yul\":5524:5678   */\n    tag_95:\n        /* \"#utility.yul\":5608:5614   */\n      dup3\n        /* \"#utility.yul\":5603:5606   */\n      dup2\n        /* \"#utility.yul\":5598:5601   */\n      dup4\n        /* \"#utility.yul\":5585:5615   */\n      calldatacopy\n        /* \"#utility.yul\":5670:5671   */\n      0x00\n        /* \"#utility.yul\":5661:5667   */\n      dup4\n        /* \"#utility.yul\":5656:5659   */\n      dup4\n        /* \"#utility.yul\":5652:5668   */\n      add\n        /* \"#utility.yul\":5645:5672   */\n      mstore\n        /* \"#utility.yul\":5524:5678   */\n      pop\n      pop\n      pop\n      jump\t// out\n        /* \"#utility.yul\":5684:6096   */\n    tag_96:\n        /* \"#utility.yul\":5762:5767   */\n      0x00\n        /* \"#utility.yul\":5787:5853   */\n      tag_170\n        /* \"#utility.yul\":5803:5852   */\n      tag_171\n        /* \"#utility.yul\":5845:5851   */\n      dup5\n        /* \"#utility.yul\":5803:5852   */\n      tag_94\n      jump\t// in\n    tag_171:\n        /* \"#utility.yul\":5787:5853   */\n      tag_93\n      jump\t// in\n    tag_170:\n        /* \"#utility.yul\":5778:5853   */\n      swap1\n      pop\n        /* \"#utility.yul\":5876:5882   */\n      dup3\n        /* \"#utility.yul\":5869:5874   */\n      dup2\n        /* \"#utility.yul\":5862:5883   */\n      mstore\n        /* \"#utility.yul\":5914:5918   */\n      0x20\n        /* \"#utility.yul\":5907:5912   */\n      dup2\n        /* \"#utility.yul\":5903:5919   */\n      add\n        /* \"#utility.yul\":5952:5955   */\n      dup5\n        /* \"#utility.yul\":5943:5949   */\n      dup5\n        /* \"#utility.yul\":5938:5941   */\n      dup5\n        /* \"#utility.yul\":5934:5950   */\n      add\n        /* \"#utility.yul\":5931:5956   */\n      gt\n        /* \"#utility.yul\":5928:6040   */\n      iszero\n      tag_172\n      jumpi\n        /* \"#utility.yul\":5959:6038   */\n      tag_173\n      tag_90\n      jump\t// in\n    tag_173:\n        /* \"#utility.yul\":5928:6040   */\n    tag_172:\n        /* \"#utility.yul\":6049:6090   */\n      tag_174\n        /* \"#utility.yul\":6083:6089   */\n      dup5\n        /* \"#utility.yul\":6078:6081   */\n      dup3\n        /* \"#utility.yul\":6073:6076   */\n      dup6\n        /* \"#utility.yul\":6049:6090   */\n      tag_95\n      jump\t// in\n    tag_174:\n        /* \"#utility.yul\":5768:6096   */\n      pop\n        /* \"#utility.yul\":5684:6096   */\n      swap4\n      swap3\n      pop\n      pop\n      pop\n      jump\t// out\n        /* \"#utility.yul\":6116:6456   */\n    tag_97:\n        /* \"#utility.yul\":6172:6177   */\n      0x00\n        /* \"#utility.yul\":6221:6224   */\n      dup3\n        /* \"#utility.yul\":6214:6218   */\n      0x1f\n        /* \"#utility.yul\":6206:6212   */\n      dup4\n        /* \"#utility.yul\":6202:6219   */\n      add\n        /* \"#utility.yul\":6198:6225   */\n      slt\n        /* \"#utility.yul\":6188:6310   */\n      tag_176\n      jumpi\n        /* \"#utility.yul\":6229:6308   */\n      tag_177\n      tag_89\n      jump\t// in\n    tag_177:\n        /* \"#utility.yul\":6188:6310   */\n    tag_176:\n        /* \"#utility.yul\":6346:6352   */\n      dup2\n        /* \"#utility.yul\":6333:6353   */\n      calldataload\n        /* \"#utility.yul\":6371:6450   */\n      tag_178\n        /* \"#utility.yul\":6446:6449   */\n      dup5\n        /* \"#utility.yul\":6438:6444   */\n      dup3\n        /* \"#utility.yul\":6431:6435   */\n      0x20\n        /* \"#utility.yul\":6423:6429   */\n      dup7\n        /* \"#utility.yul\":6419:6436   */\n      add\n        /* \"#utility.yul\":6371:6450   */\n      tag_96\n      jump\t// in\n    tag_178:\n        /* \"#utility.yul\":6362:6450   */\n      swap2\n      pop\n        /* \"#utility.yul\":6178:6456   */\n      pop\n        /* \"#utility.yul\":6116:6456   */\n      swap3\n      swap2\n      pop\n      pop\n      jump\t// out\n        /* \"#utility.yul\":6462:6971   */\n    tag_35:\n        /* \"#utility.yul\":6531:6537   */\n      0x00\n        /* \"#utility.yul\":6580:6582   */\n      0x20\n        /* \"#utility.yul\":6568:6577   */\n      dup3\n        /* \"#utility.yul\":6559:6566   */\n      dup5\n        /* \"#utility.yul\":6555:6578   */\n      sub\n        /* \"#utility.yul\":6551:6583   */\n      slt\n        /* \"#utility.yul\":6548:6667   */\n      iszero\n      tag_180\n      jumpi\n        /* \"#utility.yul\":6586:6665   */\n      tag_181\n      tag_87\n      jump\t// in\n    tag_181:\n        /* \"#utility.yul\":6548:6667   */\n    tag_180:\n        /* \"#utility.yul\":6734:6735   */\n      0x00\n        /* \"#utility.yul\":6723:6732   */\n      dup3\n        /* \"#utility.yul\":6719:6736   */\n      add\n        /* \"#utility.yul\":6706:6737   */\n      calldataload\n        /* \"#utility.yul\":6764:6782   */\n      0xffffffffffffffff\n        /* \"#utility.yul\":6756:6762   */\n      dup2\n        /* \"#utility.yul\":6753:6783   */\n      gt\n        /* \"#utility.yul\":6750:6867   */\n      iszero\n      tag_182\n      jumpi\n        /* \"#utility.yul\":6786:6865   */\n      tag_183\n      tag_88\n      jump\t// in\n    tag_183:\n        /* \"#utility.yul\":6750:6867   */\n    tag_182:\n        /* \"#utility.yul\":6891:6954   */\n      tag_184\n        /* \"#utility.yul\":6946:6953   */\n      dup5\n        /* \"#utility.yul\":6937:6943   */\n      dup3\n        /* \"#utility.yul\":6926:6935   */\n      dup6\n        /* \"#utility.yul\":6922:6944   */\n      add\n        /* \"#utility.yul\":6891:6954   */\n      tag_97\n      jump\t// in\n    tag_184:\n        /* \"#utility.yul\":6881:6954   */\n      swap2\n      pop\n        /* \"#utility.yul\":6677:6964   */\n      pop\n        /* \"#utility.yul\":6462:6971   */\n      swap3\n      swap2\n      pop\n      pop\n      jump\t// out\n        /* \"#utility.yul\":6977:7205   */\n    tag_98:\n        /* \"#utility.yul\":7117:7151   */\n      0x4f6e6c7920726566657265652063616e20617070726f766520617070726f7661\n        /* \"#utility.yul\":7113:7114   */\n      0x00\n        /* \"#utility.yul\":7105:7111   */\n      dup3\n        /* \"#utility.yul\":7101:7115   */\n      add\n        /* \"#utility.yul\":7094:7152   */\n      mstore\n        /* \"#utility.yul\":7186:7197   */\n      0x6c20726571756573740000000000000000000000000000000000000000000000\n        /* \"#utility.yul\":7181:7183   */\n      0x20\n        /* \"#utility.yul\":7173:7179   */\n      dup3\n        /* \"#utility.yul\":7169:7184   */\n      add\n        /* \"#utility.yul\":7162:7198   */\n      mstore\n        /* \"#utility.yul\":6977:7205   */\n      pop\n      jump\t// out\n        /* \"#utility.yul\":7211:7577   */\n    tag_99:\n        /* \"#utility.yul\":7353:7356   */\n      0x00\n        /* \"#utility.yul\":7374:7441   */\n      tag_187\n        /* \"#utility.yul\":7438:7440   */\n      0x29\n        /* \"#utility.yul\":7433:7436   */\n      dup4\n        /* \"#utility.yul\":7374:7441   */\n      tag_82\n      jump\t// in\n    tag_187:\n        /* \"#utility.yul\":7367:7441   */\n      swap2\n      pop\n        /* \"#utility.yul\":7450:7543   */\n      tag_188\n        /* \"#utility.yul\":7539:7542   */\n      dup3\n        /* \"#utility.yul\":7450:7543   */\n      tag_98\n      jump\t// in\n    tag_188:\n        /* \"#utility.yul\":7568:7570   */\n      0x40\n        /* \"#utility.yul\":7563:7566   */\n      dup3\n        /* \"#utility.yul\":7559:7571   */\n      add\n        /* \"#utility.yul\":7552:7571   */\n      swap1\n      pop\n        /* \"#utility.yul\":7211:7577   */\n      swap2\n      swap1\n      pop\n      jump\t// out\n        /* \"#utility.yul\":7583:8002   */\n    tag_41:\n        /* \"#utility.yul\":7749:7753   */\n      0x00\n        /* \"#utility.yul\":7787:7789   */\n      0x20\n        /* \"#utility.yul\":7776:7785   */\n      dup3\n        /* \"#utility.yul\":7772:7790   */\n      add\n        /* \"#utility.yul\":7764:7790   */\n      swap1\n      pop\n        /* \"#utility.yul\":7836:7845   */\n      dup2\n        /* \"#utility.yul\":7830:7834   */\n      dup2\n        /* \"#utility.yul\":7826:7846   */\n      sub\n        /* \"#utility.yul\":7822:7823   */\n      0x00\n        /* \"#utility.yul\":7811:7820   */\n      dup4\n        /* \"#utility.yul\":7807:7824   */\n      add\n        /* \"#utility.yul\":7800:7847   */\n      mstore\n        /* \"#utility.yul\":7864:7995   */\n      tag_190\n        /* \"#utility.yul\":7990:7994   */\n      dup2\n        /* \"#utility.yul\":7864:7995   */\n      tag_99\n      jump\t// in\n    tag_190:\n        /* \"#utility.yul\":7856:7995   */\n      swap1\n      pop\n        /* \"#utility.yul\":7583:8002   */\n      swap2\n      swap1\n      pop\n      jump\t// out\n        /* \"#utility.yul\":8008:8188   */\n    tag_100:\n        /* \"#utility.yul\":8056:8133   */\n      0x4e487b7100000000000000000000000000000000000000000000000000000000\n        /* \"#utility.yul\":8053:8054   */\n      0x00\n        /* \"#utility.yul\":8046:8134   */\n      mstore\n        /* \"#utility.yul\":8153:8157   */\n      0x22\n        /* \"#utility.yul\":8150:8151   */\n      0x04\n        /* \"#utility.yul\":8143:8158   */\n      mstore\n        /* \"#utility.yul\":8177:8181   */\n      0x24\n        /* \"#utility.yul\":8174:8175   */\n      0x00\n        /* \"#utility.yul\":8167:8182   */\n      revert\n        /* \"#utility.yul\":8194:8514   */\n    tag_46:\n        /* \"#utility.yul\":8238:8244   */\n      0x00\n        /* \"#utility.yul\":8275:8276   */\n      0x02\n        /* \"#utility.yul\":8269:8273   */\n      dup3\n        /* \"#utility.yul\":8265:8277   */\n      div\n        /* \"#utility.yul\":8255:8277   */\n      swap1\n      pop\n        /* \"#utility.yul\":8322:8323   */\n      0x01\n        /* \"#utility.yul\":8316:8320   */\n      dup3\n        /* \"#utility.yul\":8312:8324   */\n      and\n        /* \"#utility.yul\":8343:8361   */\n      dup1\n        /* \"#utility.yul\":8333:8414   */\n      tag_193\n      jumpi\n        /* \"#utility.yul\":8399:8403   */\n      0x7f\n        /* \"#utility.yul\":8391:8397   */\n      dup3\n        /* \"#utility.yul\":8387:8404   */\n      and\n        /* \"#utility.yul\":8377:8404   */\n      swap2\n      pop\n        /* \"#utility.yul\":8333:8414   */\n    tag_193:\n        /* \"#utility.yul\":8461:8463   */\n      0x20\n        /* \"#utility.yul\":8453:8459   */\n      dup3\n        /* \"#utility.yul\":8450:8464   */\n      lt\n        /* \"#utility.yul\":8430:8448   */\n      dup2\n        /* \"#utility.yul\":8427:8465   */\n      eq\n        /* \"#utility.yul\":8424:8508   */\n      iszero\n      tag_194\n      jumpi\n        /* \"#utility.yul\":8480:8498   */\n      tag_195\n      tag_100\n      jump\t// in\n    tag_195:\n        /* \"#utility.yul\":8424:8508   */\n    tag_194:\n        /* \"#utility.yul\":8245:8514   */\n      pop\n        /* \"#utility.yul\":8194:8514   */\n      swap2\n      swap1\n      pop\n      jump\t// out\n        /* \"#utility.yul\":8520:8745   */\n    tag_101:\n        /* \"#utility.yul\":8660:8694   */\n      0x4f6e6c7920726566657265652063616e2064656e7920617070726f76616c2072\n        /* \"#utility.yul\":8656:8657   */\n      0x00\n        /* \"#utility.yul\":8648:8654   */\n      dup3\n        /* \"#utility.yul\":8644:8658   */\n      add\n        /* \"#utility.yul\":8637:8695   */\n      mstore\n        /* \"#utility.yul\":8729:8737   */\n      0x6571756573740000000000000000000000000000000000000000000000000000\n        /* \"#utility.yul\":8724:8726   */\n      0x20\n        /* \"#utility.yul\":8716:8722   */\n      dup3\n        /* \"#utility.yul\":8712:8727   */\n      add\n        /* \"#utility.yul\":8705:8738   */\n      mstore\n        /* \"#utility.yul\":8520:8745   */\n      pop\n      jump\t// out\n        /* \"#utility.yul\":8751:9117   */\n    tag_102:\n        /* \"#utility.yul\":8893:8896   */\n      0x00\n        /* \"#utility.yul\":8914:8981   */\n      tag_198\n        /* \"#utility.yul\":8978:8980   */\n      0x26\n        /* \"#utility.yul\":8973:8976   */\n      dup4\n        /* \"#utility.yul\":8914:8981   */\n      tag_82\n      jump\t// in\n    tag_198:\n        /* \"#utility.yul\":8907:8981   */\n      swap2\n      pop\n        /* \"#utility.yul\":8990:9083   */\n      tag_199\n        /* \"#utility.yul\":9079:9082   */\n      dup3\n        /* \"#utility.yul\":8990:9083   */\n      tag_101\n      jump\t// in\n    tag_199:\n        /* \"#utility.yul\":9108:9110   */\n      0x40\n        /* \"#utility.yul\":9103:9106   */\n      dup3\n        /* \"#utility.yul\":9099:9111   */\n      add\n        /* \"#utility.yul\":9092:9111   */\n      swap1\n      pop\n        /* \"#utility.yul\":8751:9117   */\n      swap2\n      swap1\n      pop\n      jump\t// out\n        /* \"#utility.yul\":9123:9542   */\n    tag_54:\n        /* \"#utility.yul\":9289:9293   */\n      0x00\n        /* \"#utility.yul\":9327:9329   */\n      0x20\n        /* \"#utility.yul\":9316:9325   */\n      dup3\n        /* \"#utility.yul\":9312:9330   */\n      add\n        /* \"#utility.yul\":9304:9330   */\n      swap1\n      pop\n        /* \"#utility.yul\":9376:9385   */\n      dup2\n        /* \"#utility.yul\":9370:9374   */\n      dup2\n        /* \"#utility.yul\":9366:9386   */\n      sub\n        /* \"#utility.yul\":9362:9363   */\n      0x00\n        /* \"#utility.yul\":9351:9360   */\n      dup4\n        /* \"#utility.yul\":9347:9364   */\n      add\n        /* \"#utility.yul\":9340:9387   */\n      mstore\n        /* \"#utility.yul\":9404:9535   */\n      tag_201\n        /* \"#utility.yul\":9530:9534   */\n      dup2\n        /* \"#utility.yul\":9404:9535   */\n      tag_102\n      jump\t// in\n    tag_201:\n        /* \"#utility.yul\":9396:9535   */\n      swap1\n      pop\n        /* \"#utility.yul\":9123:9542   */\n      swap2\n      swap1\n      pop\n      jump\t// out\n\n    auxdata: 0xa26469706673582212206a3229443fa6a62c6fef0ef6cf0dbba5efa359990d8aebd2ba3ad5e6b45380dd64736f6c634300080c0033\n}\n","bytecode":{"linkReferences":{},"object":"60806040523480156200001157600080fd5b5060405162000d1938038062000d19833981810160405281019062000037919062000280565b60008190508073ffffffffffffffffffffffffffffffffffffffff166302d05d3f6040518163ffffffff1660e01b8152600401602060405180830381865afa15801562000088573d6000803e3d6000fd5b505050506040513d601f19601f82011682018060405250810190620000ae919062000280565b6000806101000a81548173ffffffffffffffffffffffffffffffffffffffff021916908373ffffffffffffffffffffffffffffffffffffffff1602179055508073ffffffffffffffffffffffffffffffffffffffff16633b1bebd16040518163ffffffff1660e01b8152600401602060405180830381865afa15801562000139573d6000803e3d6000fd5b505050506040513d601f19601f820116820180604052508101906200015f919062000280565b600160006101000a81548173ffffffffffffffffffffffffffffffffffffffff021916908373ffffffffffffffffffffffffffffffffffffffff16021790555081600260006101000a81548173ffffffffffffffffffffffffffffffffffffffff021916908373ffffffffffffffffffffffffffffffffffffffff1602179055506000600260146101000a81548160ff02191690836002811115620002095762000208620002b2565b5b02179055505050620002e1565b600080fd5b600073ffffffffffffffffffffffffffffffffffffffff82169050919050565b600062000248826200021b565b9050919050565b6200025a816200023b565b81146200026657600080fd5b50565b6000815190506200027a816200024f565b92915050565b60006020828403121562000299576200029862000216565b5b6000620002a98482850162000269565b91505092915050565b7f4e487b7100000000000000000000000000000000000000000000000000000000600052602160045260246000fd5b610a2880620002f16000396000f3fe608060405234801561001057600080fd5b506004361061007d5760003560e01c80633b1bebd11161005b5780633b1bebd1146100dc5780633c490174146100fa5780637a7f01a714610118578063d2daa825146101365761007d565b806302d05d3f14610082578063200d2ed2146100a0578063263b81c9146100be575b600080fd5b61008a610166565b60405161009791906104f9565b60405180910390f35b6100a861018a565b6040516100b5919061058b565b60405180910390f35b6100c661019d565b6040516100d39190610605565b60405180910390f35b6100e4610260565b6040516100f191906104f9565b60405180910390f35b610102610286565b60405161010f91906104f9565b60405180910390f35b6101206102ac565b60405161012d91906106b9565b60405180910390f35b610150600480360381019061014b9190610824565b61033a565b60405161015d9190610605565b60405180910390f35b60008054906101000a900473ffffffffffffffffffffffffffffffffffffffff1681565b600260149054906101000a900460ff1681565b6000600160009054906101000a900473ffffffffffffffffffffffffffffffffffffffff1673ffffffffffffffffffffffffffffffffffffffff163273ffffffffffffffffffffffffffffffffffffffff161461022f576040517f08c379a0000000000000000000000000000000000000000000000000000000008152600401610226906108df565b60405180910390fd5b6001600260146101000a81548160ff0219169083600281111561025557610254610514565b5b021790555030905090565b600160009054906101000a900473ffffffffffffffffffffffffffffffffffffffff1681565b600260009054906101000a900473ffffffffffffffffffffffffffffffffffffffff1681565b600380546102b99061092e565b80601f01602080910402602001604051908101604052809291908181526020018280546102e59061092e565b80156103325780601f1061030757610100808354040283529160200191610332565b820191906000526020600020905b81548152906001019060200180831161031557829003601f168201915b505050505081565b6000600160009054906101000a900473ffffffffffffffffffffffffffffffffffffffff1673ffffffffffffffffffffffffffffffffffffffff163273ffffffffffffffffffffffffffffffffffffffff16146103cc576040517f08c379a00000000000000000000000000000000000000000000000000000000081526004016103c3906109d2565b60405180910390fd5b60028060146101000a81548160ff021916908360028111156103f1576103f0610514565b5b0217905550816003908051906020019061040c929190610415565b50309050919050565b8280546104219061092e565b90600052602060002090601f016020900481019282610443576000855561048a565b82601f1061045c57805160ff191683800117855561048a565b8280016001018555821561048a579182015b8281111561048957825182559160200191906001019061046e565b5b509050610497919061049b565b5090565b5b808211156104b457600081600090555060010161049c565b5090565b600073ffffffffffffffffffffffffffffffffffffffff82169050919050565b60006104e3826104b8565b9050919050565b6104f3816104d8565b82525050565b600060208201905061050e60008301846104ea565b92915050565b7f4e487b7100000000000000000000000000000000000000000000000000000000600052602160045260246000fd5b6003811061055457610553610514565b5b50565b600081905061056582610543565b919050565b600061057582610557565b9050919050565b6105858161056a565b82525050565b60006020820190506105a0600083018461057c565b92915050565b6000819050919050565b60006105cb6105c66105c1846104b8565b6105a6565b6104b8565b9050919050565b60006105dd826105b0565b9050919050565b60006105ef826105d2565b9050919050565b6105ff816105e4565b82525050565b600060208201905061061a60008301846105f6565b92915050565b600081519050919050565b600082825260208201905092915050565b60005b8381101561065a57808201518184015260208101905061063f565b83811115610669576000848401525b50505050565b6000601f19601f8301169050919050565b600061068b82610620565b610695818561062b565b93506106a581856020860161063c565b6106ae8161066f565b840191505092915050565b600060208201905081810360008301526106d38184610680565b905092915050565b6000604051905090565b600080fd5b600080fd5b600080fd5b600080fd5b7f4e487b7100000000000000000000000000000000000000000000000000000000600052604160045260246000fd5b6107318261066f565b810181811067ffffffffffffffff821117156107505761074f6106f9565b5b80604052505050565b60006107636106db565b905061076f8282610728565b919050565b600067ffffffffffffffff82111561078f5761078e6106f9565b5b6107988261066f565b9050602081019050919050565b82818337600083830152505050565b60006107c76107c284610774565b610759565b9050828152602081018484840111156107e3576107e26106f4565b5b6107ee8482856107a5565b509392505050565b600082601f83011261080b5761080a6106ef565b5b813561081b8482602086016107b4565b91505092915050565b60006020828403121561083a576108396106e5565b5b600082013567ffffffffffffffff811115610858576108576106ea565b5b610864848285016107f6565b91505092915050565b7f4f6e6c7920726566657265652063616e20617070726f766520617070726f766160008201527f6c20726571756573740000000000000000000000000000000000000000000000602082015250565b60006108c960298361062b565b91506108d48261086d565b604082019050919050565b600060208201905081810360008301526108f8816108bc565b9050919050565b7f4e487b7100000000000000000000000000000000000000000000000000000000600052602260045260246000fd5b6000600282049050600182168061094657607f821691505b6020821081141561095a576109596108ff565b5b50919050565b7f4f6e6c7920726566657265652063616e2064656e7920617070726f76616c207260008201527f6571756573740000000000000000000000000000000000000000000000000000602082015250565b60006109bc60268361062b565b91506109c782610960565b604082019050919050565b600060208201905081810360008301526109eb816109af565b905091905056fea26469706673582212206a3229443fa6a62c6fef0ef6cf0dbba5efa359990d8aebd2ba3ad5e6b45380dd64736f6c634300080c0033","opcodes":"PUSH1 0x80 PUSH1 0x40 MSTORE CALLVALUE DUP1 ISZERO PUSH3 0x11 JUMPI PUSH1 0x0 DUP1 REVERT JUMPDEST POP PUSH1 0x40 MLOAD PUSH3 0xD19 CODESIZE SUB DUP1 PUSH3 0xD19 DUP4 CODECOPY DUP2 DUP2 ADD PUSH1 0x40 MSTORE DUP2 ADD SWAP1 PUSH3 0x37 SWAP2 SWAP1 PUSH3 0x280 JUMP JUMPDEST PUSH1 0x0 DUP2 SWAP1 POP DUP1 PUSH20 0xFFFFFFFFFFFFFFFFFFFFFFFFFFFFFFFFFFFFFFFF AND PUSH4 0x2D05D3F PUSH1 0x40 MLOAD DUP2 PUSH4 0xFFFFFFFF AND PUSH1 0xE0 SHL DUP2 MSTORE PUSH1 0x4 ADD PUSH1 0x20 PUSH1 0x40 MLOAD DUP1 DUP4 SUB DUP2 DUP7 GAS STATICCALL ISZERO DUP1 ISZERO PUSH3 0x88 JUMPI RETURNDATASIZE PUSH1 0x0 DUP1 RETURNDATACOPY RETURNDATASIZE PUSH1 0x0 REVERT JUMPDEST POP POP POP POP PUSH1 0x40 MLOAD RETURNDATASIZE PUSH1 0x1F NOT PUSH1 0x1F DUP3 ADD AND DUP3 ADD DUP1 PUSH1 0x40 MSTORE POP DUP2 ADD SWAP1 PUSH3 0xAE SWAP2 SWAP1 PUSH3 0x280 JUMP JUMPDEST PUSH1 0x0 DUP1 PUSH2 0x100 EXP DUP2 SLOAD DUP2 PUSH20 0xFFFFFFFFFFFFFFFFFFFFFFFFFFFFFFFFFFFFFFFF MUL NOT AND SWAP1 DUP4 PUSH20 0xFFFFFFFFFFFFFFFFFFFFFFFFFFFFFFFFFFFFFFFF AND MUL OR SWAP1 SSTORE POP DUP1 PUSH20 0xFFFFFFFFFFFFFFFFFFFFFFFFFFFFFFFFFFFFFFFF AND PUSH4 0x3B1BEBD1 PUSH1 0x40 MLOAD DUP2 PUSH4 0xFFFFFFFF AND PUSH1 0xE0 SHL DUP2 MSTORE PUSH1 0x4 ADD PUSH1 0x20 PUSH1 0x40 MLOAD DUP1 DUP4 SUB DUP2 DUP7 GAS STATICCALL ISZERO DUP1 ISZERO PUSH3 0x139 JUMPI RETURNDATASIZE PUSH1 0x0 DUP1 RETURNDATACOPY RETURNDATASIZE PUSH1 0x0 REVERT JUMPDEST POP POP POP POP PUSH1 0x40 MLOAD RETURNDATASIZE PUSH1 0x1F NOT PUSH1 0x1F DUP3 ADD AND DUP3 ADD DUP1 PUSH1 0x40 MSTORE POP DUP2 ADD SWAP1 PUSH3 0x15F SWAP2 SWAP1 PUSH3 0x280 JUMP JUMPDEST PUSH1 0x1 PUSH1 0x0 PUSH2 0x100 EXP DUP2 SLOAD DUP2 PUSH20 0xFFFFFFFFFFFFFFFFFFFFFFFFFFFFFFFFFFFFFFFF MUL NOT AND SWAP1 DUP4 PUSH20 0xFFFFFFFFFFFFFFFFFFFFFFFFFFFFFFFFFFFFFFFF AND MUL OR SWAP1 SSTORE POP DUP2 PUSH1 0x2 PUSH1 0x0 PUSH2 0x100 EXP DUP2 SLOAD DUP2 PUSH20 0xFFFFFFFFFFFFFFFFFFFFFFFFFFFFFFFFFFFFFFFF MUL NOT AND SWAP1 DUP4 PUSH20 0xFFFFFFFFFFFFFFFFFFFFFFFFFFFFFFFFFFFFFFFF AND MUL OR SWAP1 SSTORE POP PUSH1 0x0 PUSH1 0x2 PUSH1 0x14 PUSH2 0x100 EXP DUP2 SLOAD DUP2 PUSH1 0xFF MUL NOT AND SWAP1 DUP4 PUSH1 0x2 DUP2 GT ISZERO PUSH3 0x209 JUMPI PUSH3 0x208 PUSH3 0x2B2 JUMP JUMPDEST JUMPDEST MUL OR SWAP1 SSTORE POP POP POP PUSH3 0x2E1 JUMP JUMPDEST PUSH1 0x0 DUP1 REVERT JUMPDEST PUSH1 0x0 PUSH20 0xFFFFFFFFFFFFFFFFFFFFFFFFFFFFFFFFFFFFFFFF DUP3 AND SWAP1 POP SWAP2 SWAP1 POP JUMP JUMPDEST PUSH1 0x0 PUSH3 0x248 DUP3 PUSH3 0x21B JUMP JUMPDEST SWAP1 POP SWAP2 SWAP1 POP JUMP JUMPDEST PUSH3 0x25A DUP2 PUSH3 0x23B JUMP JUMPDEST DUP2 EQ PUSH3 0x266 JUMPI PUSH1 0x0 DUP1 REVERT JUMPDEST POP JUMP JUMPDEST PUSH1 0x0 DUP2 MLOAD SWAP1 POP PUSH3 0x27A DUP2 PUSH3 0x24F JUMP JUMPDEST SWAP3 SWAP2 POP POP JUMP JUMPDEST PUSH1 0x0 PUSH1 0x20 DUP3 DUP5 SUB SLT ISZERO PUSH3 0x299 JUMPI PUSH3 0x298 PUSH3 0x216 JUMP JUMPDEST JUMPDEST PUSH1 0x0 PUSH3 0x2A9 DUP5 DUP3 DUP6 ADD PUSH3 0x269 JUMP JUMPDEST SWAP2 POP POP SWAP3 SWAP2 POP POP JUMP JUMPDEST PUSH32 0x4E487B7100000000000000000000000000000000000000000000000000000000 PUSH1 0x0 MSTORE PUSH1 0x21 PUSH1 0x4 MSTORE PUSH1 0x24 PUSH1 0x0 REVERT JUMPDEST PUSH2 0xA28 DUP1 PUSH3 0x2F1 PUSH1 0x0 CODECOPY PUSH1 0x0 RETURN INVALID PUSH1 0x80 PUSH1 0x40 MSTORE CALLVALUE DUP1 ISZERO PUSH2 0x10 JUMPI PUSH1 0x0 DUP1 REVERT JUMPDEST POP PUSH1 0x4 CALLDATASIZE LT PUSH2 0x7D JUMPI PUSH1 0x0 CALLDATALOAD PUSH1 0xE0 SHR DUP1 PUSH4 0x3B1BEBD1 GT PUSH2 0x5B JUMPI DUP1 PUSH4 0x3B1BEBD1 EQ PUSH2 0xDC JUMPI DUP1 PUSH4 0x3C490174 EQ PUSH2 0xFA JUMPI DUP1 PUSH4 0x7A7F01A7 EQ PUSH2 0x118 JUMPI DUP1 PUSH4 0xD2DAA825 EQ PUSH2 0x136 JUMPI PUSH2 0x7D JUMP JUMPDEST DUP1 PUSH4 0x2D05D3F EQ PUSH2 0x82 JUMPI DUP1 PUSH4 0x200D2ED2 EQ PUSH2 0xA0 JUMPI DUP1 PUSH4 0x263B81C9 EQ PUSH2 0xBE JUMPI JUMPDEST PUSH1 0x0 DUP1 REVERT JUMPDEST PUSH2 0x8A PUSH2 0x166 JUMP JUMPDEST PUSH1 0x40 MLOAD PUSH2 0x97 SWAP2 SWAP1 PUSH2 0x4F9 JUMP JUMPDEST PUSH1 0x40 MLOAD DUP1 SWAP2 SUB SWAP1 RETURN JUMPDEST PUSH2 0xA8 PUSH2 0x18A JUMP JUMPDEST PUSH1 0x40 MLOAD PUSH2 0xB5 SWAP2 SWAP1 PUSH2 0x58B JUMP JUMPDEST PUSH1 0x40 MLOAD DUP1 SWAP2 SUB SWAP1 RETURN JUMPDEST PUSH2 0xC6 PUSH2 0x19D JUMP JUMPDEST PUSH1 0x40 MLOAD PUSH2 0xD3 SWAP2 SWAP1 PUSH2 0x605 JUMP JUMPDEST PUSH1 0x40 MLOAD DUP1 SWAP2 SUB SWAP1 RETURN JUMPDEST PUSH2 0xE4 PUSH2 0x260 JUMP JUMPDEST PUSH1 0x40 MLOAD PUSH2 0xF1 SWAP2 SWAP1 PUSH2 0x4F9 JUMP JUMPDEST PUSH1 0x40 MLOAD DUP1 SWAP2 SUB SWAP1 RETURN JUMPDEST PUSH2 0x102 PUSH2 0x286 JUMP JUMPDEST PUSH1 0x40 MLOAD PUSH2 0x10F SWAP2 SWAP1 PUSH2 0x4F9 JUMP JUMPDEST PUSH1 0x40 MLOAD DUP1 SWAP2 SUB SWAP1 RETURN JUMPDEST PUSH2 0x120 PUSH2 0x2AC JUMP JUMPDEST PUSH1 0x40 MLOAD PUSH2 0x12D SWAP2 SWAP1 PUSH2 0x6B9 JUMP JUMPDEST PUSH1 0x40 MLOAD DUP1 SWAP2 SUB SWAP1 RETURN JUMPDEST PUSH2 0x150 PUSH1 0x4 DUP1 CALLDATASIZE SUB DUP2 ADD SWAP1 PUSH2 0x14B SWAP2 SWAP1 PUSH2 0x824 JUMP JUMPDEST PUSH2 0x33A JUMP JUMPDEST PUSH1 0x40 MLOAD PUSH2 0x15D SWAP2 SWAP1 PUSH2 0x605 JUMP JUMPDEST PUSH1 0x40 MLOAD DUP1 SWAP2 SUB SWAP1 RETURN JUMPDEST PUSH1 0x0 DUP1 SLOAD SWAP1 PUSH2 0x100 EXP SWAP1 DIV PUSH20 0xFFFFFFFFFFFFFFFFFFFFFFFFFFFFFFFFFFFFFFFF AND DUP2 JUMP JUMPDEST PUSH1 0x2 PUSH1 0x14 SWAP1 SLOAD SWAP1 PUSH2 0x100 EXP SWAP1 DIV PUSH1 0xFF AND DUP2 JUMP JUMPDEST PUSH1 0x0 PUSH1 0x1 PUSH1 0x0 SWAP1 SLOAD SWAP1 PUSH2 0x100 EXP SWAP1 DIV PUSH20 0xFFFFFFFFFFFFFFFFFFFFFFFFFFFFFFFFFFFFFFFF AND PUSH20 0xFFFFFFFFFFFFFFFFFFFFFFFFFFFFFFFFFFFFFFFF AND ORIGIN PUSH20 0xFFFFFFFFFFFFFFFFFFFFFFFFFFFFFFFFFFFFFFFF AND EQ PUSH2 0x22F JUMPI PUSH1 0x40 MLOAD PUSH32 0x8C379A000000000000000000000000000000000000000000000000000000000 DUP2 MSTORE PUSH1 0x4 ADD PUSH2 0x226 SWAP1 PUSH2 0x8DF JUMP JUMPDEST PUSH1 0x40 MLOAD DUP1 SWAP2 SUB SWAP1 REVERT JUMPDEST PUSH1 0x1 PUSH1 0x2 PUSH1 0x14 PUSH2 0x100 EXP DUP2 SLOAD DUP2 PUSH1 0xFF MUL NOT AND SWAP1 DUP4 PUSH1 0x2 DUP2 GT ISZERO PUSH2 0x255 JUMPI PUSH2 0x254 PUSH2 0x514 JUMP JUMPDEST JUMPDEST MUL OR SWAP1 SSTORE POP ADDRESS SWAP1 POP SWAP1 JUMP JUMPDEST PUSH1 0x1 PUSH1 0x0 SWAP1 SLOAD SWAP1 PUSH2 0x100 EXP SWAP1 DIV PUSH20 0xFFFFFFFFFFFFFFFFFFFFFFFFFFFFFFFFFFFFFFFF AND DUP2 JUMP JUMPDEST PUSH1 0x2 PUSH1 0x0 SWAP1 SLOAD SWAP1 PUSH2 0x100 EXP SWAP1 DIV PUSH20 0xFFFFFFFFFFFFFFFFFFFFFFFFFFFFFFFFFFFFFFFF AND DUP2 JUMP JUMPDEST PUSH1 0x3 DUP1 SLOAD PUSH2 0x2B9 SWAP1 PUSH2 0x92E JUMP JUMPDEST DUP1 PUSH1 0x1F ADD PUSH1 0x20 DUP1 SWAP2 DIV MUL PUSH1 0x20 ADD PUSH1 0x40 MLOAD SWAP1 DUP2 ADD PUSH1 0x40 MSTORE DUP1 SWAP3 SWAP2 SWAP1 DUP2 DUP2 MSTORE PUSH1 0x20 ADD DUP3 DUP1 SLOAD PUSH2 0x2E5 SWAP1 PUSH2 0x92E JUMP JUMPDEST DUP1 ISZERO PUSH2 0x332 JUMPI DUP1 PUSH1 0x1F LT PUSH2 0x307 JUMPI PUSH2 0x100 DUP1 DUP4 SLOAD DIV MUL DUP4 MSTORE SWAP2 PUSH1 0x20 ADD SWAP2 PUSH2 0x332 JUMP JUMPDEST DUP3 ADD SWAP2 SWAP1 PUSH1 0x0 MSTORE PUSH1 0x20 PUSH1 0x0 KECCAK256 SWAP1 JUMPDEST DUP2 SLOAD DUP2 MSTORE SWAP1 PUSH1 0x1 ADD SWAP1 PUSH1 0x20 ADD DUP1 DUP4 GT PUSH2 0x315 JUMPI DUP3 SWAP1 SUB PUSH1 0x1F AND DUP3 ADD SWAP2 JUMPDEST POP POP POP POP POP DUP2 JUMP JUMPDEST PUSH1 0x0 PUSH1 0x1 PUSH1 0x0 SWAP1 SLOAD SWAP1 PUSH2 0x100 EXP SWAP1 DIV PUSH20 0xFFFFFFFFFFFFFFFFFFFFFFFFFFFFFFFFFFFFFFFF AND PUSH20 0xFFFFFFFFFFFFFFFFFFFFFFFFFFFFFFFFFFFFFFFF AND ORIGIN PUSH20 0xFFFFFFFFFFFFFFFFFFFFFFFFFFFFFFFFFFFFFFFF AND EQ PUSH2 0x3CC JUMPI PUSH1 0x40 MLOAD PUSH32 0x8C379A000000000000000000000000000000000000000000000000000000000 DUP2 MSTORE PUSH1 0x4 ADD PUSH2 0x3C3 SWAP1 PUSH2 0x9D2 JUMP JUMPDEST PUSH1 0x40 MLOAD DUP1 SWAP2 SUB SWAP1 REVERT JUMPDEST PUSH1 0x2 DUP1 PUSH1 0x14 PUSH2 0x100 EXP DUP2 SLOAD DUP2 PUSH1 0xFF MUL NOT AND SWAP1 DUP4 PUSH1 0x2 DUP2 GT ISZERO PUSH2 0x3F1 JUMPI PUSH2 0x3F0 PUSH2 0x514 JUMP JUMPDEST JUMPDEST MUL OR SWAP1 SSTORE POP DUP2 PUSH1 0x3 SWAP1 DUP1 MLOAD SWAP1 PUSH1 0x20 ADD SWAP1 PUSH2 0x40C SWAP3 SWAP2 SWAP1 PUSH2 0x415 JUMP JUMPDEST POP ADDRESS SWAP1 POP SWAP2 SWAP1 POP JUMP JUMPDEST DUP3 DUP1 SLOAD PUSH2 0x421 SWAP1 PUSH2 0x92E JUMP JUMPDEST SWAP1 PUSH1 0x0 MSTORE PUSH1 0x20 PUSH1 0x0 KECCAK256 SWAP1 PUSH1 0x1F ADD PUSH1 0x20 SWAP1 DIV DUP2 ADD SWAP3 DUP3 PUSH2 0x443 JUMPI PUSH1 0x0 DUP6 SSTORE PUSH2 0x48A JUMP JUMPDEST DUP3 PUSH1 0x1F LT PUSH2 0x45C JUMPI DUP1 MLOAD PUSH1 0xFF NOT AND DUP4 DUP1 ADD OR DUP6 SSTORE PUSH2 0x48A JUMP JUMPDEST DUP3 DUP1 ADD PUSH1 0x1 ADD DUP6 SSTORE DUP3 ISZERO PUSH2 0x48A JUMPI SWAP2 DUP3 ADD JUMPDEST DUP3 DUP2 GT ISZERO PUSH2 0x489 JUMPI DUP3 MLOAD DUP3 SSTORE SWAP2 PUSH1 0x20 ADD SWAP2 SWAP1 PUSH1 0x1 ADD SWAP1 PUSH2 0x46E JUMP JUMPDEST JUMPDEST POP SWAP1 POP PUSH2 0x497 SWAP2 SWAP1 PUSH2 0x49B JUMP JUMPDEST POP SWAP1 JUMP JUMPDEST JUMPDEST DUP1 DUP3 GT ISZERO PUSH2 0x4B4 JUMPI PUSH1 0x0 DUP2 PUSH1 0x0 SWAP1 SSTORE POP PUSH1 0x1 ADD PUSH2 0x49C JUMP JUMPDEST POP SWAP1 JUMP JUMPDEST PUSH1 0x0 PUSH20 0xFFFFFFFFFFFFFFFFFFFFFFFFFFFFFFFFFFFFFFFF DUP3 AND SWAP1 POP SWAP2 SWAP1 POP JUMP JUMPDEST PUSH1 0x0 PUSH2 0x4E3 DUP3 PUSH2 0x4B8 JUMP JUMPDEST SWAP1 POP SWAP2 SWAP1 POP JUMP JUMPDEST PUSH2 0x4F3 DUP2 PUSH2 0x4D8 JUMP JUMPDEST DUP3 MSTORE POP POP JUMP JUMPDEST PUSH1 0x0 PUSH1 0x20 DUP3 ADD SWAP1 POP PUSH2 0x50E PUSH1 0x0 DUP4 ADD DUP5 PUSH2 0x4EA JUMP JUMPDEST SWAP3 SWAP2 POP POP JUMP JUMPDEST PUSH32 0x4E487B7100000000000000000000000000000000000000000000000000000000 PUSH1 0x0 MSTORE PUSH1 0x21 PUSH1 0x4 MSTORE PUSH1 0x24 PUSH1 0x0 REVERT JUMPDEST PUSH1 0x3 DUP2 LT PUSH2 0x554 JUMPI PUSH2 0x553 PUSH2 0x514 JUMP JUMPDEST JUMPDEST POP JUMP JUMPDEST PUSH1 0x0 DUP2 SWAP1 POP PUSH2 0x565 DUP3 PUSH2 0x543 JUMP JUMPDEST SWAP2 SWAP1 POP JUMP JUMPDEST PUSH1 0x0 PUSH2 0x575 DUP3 PUSH2 0x557 JUMP JUMPDEST SWAP1 POP SWAP2 SWAP1 POP JUMP JUMPDEST PUSH2 0x585 DUP2 PUSH2 0x56A JUMP JUMPDEST DUP3 MSTORE POP POP JUMP JUMPDEST PUSH1 0x0 PUSH1 0x20 DUP3 ADD SWAP1 POP PUSH2 0x5A0 PUSH1 0x0 DUP4 ADD DUP5 PUSH2 0x57C JUMP JUMPDEST SWAP3 SWAP2 POP POP JUMP JUMPDEST PUSH1 0x0 DUP2 SWAP1 POP SWAP2 SWAP1 POP JUMP JUMPDEST PUSH1 0x0 PUSH2 0x5CB PUSH2 0x5C6 PUSH2 0x5C1 DUP5 PUSH2 0x4B8 JUMP JUMPDEST PUSH2 0x5A6 JUMP JUMPDEST PUSH2 0x4B8 JUMP JUMPDEST SWAP1 POP SWAP2 SWAP1 POP JUMP JUMPDEST PUSH1 0x0 PUSH2 0x5DD DUP3 PUSH2 0x5B0 JUMP JUMPDEST SWAP1 POP SWAP2 SWAP1 POP JUMP JUMPDEST PUSH1 0x0 PUSH2 0x5EF DUP3 PUSH2 0x5D2 JUMP JUMPDEST SWAP1 POP SWAP2 SWAP1 POP JUMP JUMPDEST PUSH2 0x5FF DUP2 PUSH2 0x5E4 JUMP JUMPDEST DUP3 MSTORE POP POP JUMP JUMPDEST PUSH1 0x0 PUSH1 0x20 DUP3 ADD SWAP1 POP PUSH2 0x61A PUSH1 0x0 DUP4 ADD DUP5 PUSH2 0x5F6 JUMP JUMPDEST SWAP3 SWAP2 POP POP JUMP JUMPDEST PUSH1 0x0 DUP2 MLOAD SWAP1 POP SWAP2 SWAP1 POP JUMP JUMPDEST PUSH1 0x0 DUP3 DUP3 MSTORE PUSH1 0x20 DUP3 ADD SWAP1 POP SWAP3 SWAP2 POP POP JUMP JUMPDEST PUSH1 0x0 JUMPDEST DUP4 DUP2 LT ISZERO PUSH2 0x65A JUMPI DUP1 DUP3 ADD MLOAD DUP2 DUP5 ADD MSTORE PUSH1 0x20 DUP2 ADD SWAP1 POP PUSH2 0x63F JUMP JUMPDEST DUP4 DUP2 GT ISZERO PUSH2 0x669 JUMPI PUSH1 0x0 DUP5 DUP5 ADD MSTORE JUMPDEST POP POP POP POP JUMP JUMPDEST PUSH1 0x0 PUSH1 0x1F NOT PUSH1 0x1F DUP4 ADD AND SWAP1 POP SWAP2 SWAP1 POP JUMP JUMPDEST PUSH1 0x0 PUSH2 0x68B DUP3 PUSH2 0x620 JUMP JUMPDEST PUSH2 0x695 DUP2 DUP6 PUSH2 0x62B JUMP JUMPDEST SWAP4 POP PUSH2 0x6A5 DUP2 DUP6 PUSH1 0x20 DUP7 ADD PUSH2 0x63C JUMP JUMPDEST PUSH2 0x6AE DUP2 PUSH2 0x66F JUMP JUMPDEST DUP5 ADD SWAP2 POP POP SWAP3 SWAP2 POP POP JUMP JUMPDEST PUSH1 0x0 PUSH1 0x20 DUP3 ADD SWAP1 POP DUP2 DUP2 SUB PUSH1 0x0 DUP4 ADD MSTORE PUSH2 0x6D3 DUP2 DUP5 PUSH2 0x680 JUMP JUMPDEST SWAP1 POP SWAP3 SWAP2 POP POP JUMP JUMPDEST PUSH1 0x0 PUSH1 0x40 MLOAD SWAP1 POP SWAP1 JUMP JUMPDEST PUSH1 0x0 DUP1 REVERT JUMPDEST PUSH1 0x0 DUP1 REVERT JUMPDEST PUSH1 0x0 DUP1 REVERT JUMPDEST PUSH1 0x0 DUP1 REVERT JUMPDEST PUSH32 0x4E487B7100000000000000000000000000000000000000000000000000000000 PUSH1 0x0 MSTORE PUSH1 0x41 PUSH1 0x4 MSTORE PUSH1 0x24 PUSH1 0x0 REVERT JUMPDEST PUSH2 0x731 DUP3 PUSH2 0x66F JUMP JUMPDEST DUP2 ADD DUP2 DUP2 LT PUSH8 0xFFFFFFFFFFFFFFFF DUP3 GT OR ISZERO PUSH2 0x750 JUMPI PUSH2 0x74F PUSH2 0x6F9 JUMP JUMPDEST JUMPDEST DUP1 PUSH1 0x40 MSTORE POP POP POP JUMP JUMPDEST PUSH1 0x0 PUSH2 0x763 PUSH2 0x6DB JUMP JUMPDEST SWAP1 POP PUSH2 0x76F DUP3 DUP3 PUSH2 0x728 JUMP JUMPDEST SWAP2 SWAP1 POP JUMP JUMPDEST PUSH1 0x0 PUSH8 0xFFFFFFFFFFFFFFFF DUP3 GT ISZERO PUSH2 0x78F JUMPI PUSH2 0x78E PUSH2 0x6F9 JUMP JUMPDEST JUMPDEST PUSH2 0x798 DUP3 PUSH2 0x66F JUMP JUMPDEST SWAP1 POP PUSH1 0x20 DUP2 ADD SWAP1 POP SWAP2 SWAP1 POP JUMP JUMPDEST DUP3 DUP2 DUP4 CALLDATACOPY PUSH1 0x0 DUP4 DUP4 ADD MSTORE POP POP POP JUMP JUMPDEST PUSH1 0x0 PUSH2 0x7C7 PUSH2 0x7C2 DUP5 PUSH2 0x774 JUMP JUMPDEST PUSH2 0x759 JUMP JUMPDEST SWAP1 POP DUP3 DUP2 MSTORE PUSH1 0x20 DUP2 ADD DUP5 DUP5 DUP5 ADD GT ISZERO PUSH2 0x7E3 JUMPI PUSH2 0x7E2 PUSH2 0x6F4 JUMP JUMPDEST JUMPDEST PUSH2 0x7EE DUP5 DUP3 DUP6 PUSH2 0x7A5 JUMP JUMPDEST POP SWAP4 SWAP3 POP POP POP JUMP JUMPDEST PUSH1 0x0 DUP3 PUSH1 0x1F DUP4 ADD SLT PUSH2 0x80B JUMPI PUSH2 0x80A PUSH2 0x6EF JUMP JUMPDEST JUMPDEST DUP2 CALLDATALOAD PUSH2 0x81B DUP5 DUP3 PUSH1 0x20 DUP7 ADD PUSH2 0x7B4 JUMP JUMPDEST SWAP2 POP POP SWAP3 SWAP2 POP POP JUMP JUMPDEST PUSH1 0x0 PUSH1 0x20 DUP3 DUP5 SUB SLT ISZERO PUSH2 0x83A JUMPI PUSH2 0x839 PUSH2 0x6E5 JUMP JUMPDEST JUMPDEST PUSH1 0x0 DUP3 ADD CALLDATALOAD PUSH8 0xFFFFFFFFFFFFFFFF DUP2 GT ISZERO PUSH2 0x858 JUMPI PUSH2 0x857 PUSH2 0x6EA JUMP JUMPDEST JUMPDEST PUSH2 0x864 DUP5 DUP3 DUP6 ADD PUSH2 0x7F6 JUMP JUMPDEST SWAP2 POP POP SWAP3 SWAP2 POP POP JUMP JUMPDEST PUSH32 0x4F6E6C7920726566657265652063616E20617070726F766520617070726F7661 PUSH1 0x0 DUP3 ADD MSTORE PUSH32 0x6C20726571756573740000000000000000000000000000000000000000000000 PUSH1 0x20 DUP3 ADD MSTORE POP JUMP JUMPDEST PUSH1 0x0 PUSH2 0x8C9 PUSH1 0x29 DUP4 PUSH2 0x62B JUMP JUMPDEST SWAP2 POP PUSH2 0x8D4 DUP3 PUSH2 0x86D JUMP JUMPDEST PUSH1 0x40 DUP3 ADD SWAP1 POP SWAP2 SWAP1 POP JUMP JUMPDEST PUSH1 0x0 PUSH1 0x20 DUP3 ADD SWAP1 POP DUP2 DUP2 SUB PUSH1 0x0 DUP4 ADD MSTORE PUSH2 0x8F8 DUP2 PUSH2 0x8BC JUMP JUMPDEST SWAP1 POP SWAP2 SWAP1 POP JUMP JUMPDEST PUSH32 0x4E487B7100000000000000000000000000000000000000000000000000000000 PUSH1 0x0 MSTORE PUSH1 0x22 PUSH1 0x4 MSTORE PUSH1 0x24 PUSH1 0x0 REVERT JUMPDEST PUSH1 0x0 PUSH1 0x2 DUP3 DIV SWAP1 POP PUSH1 0x1 DUP3 AND DUP1 PUSH2 0x946 JUMPI PUSH1 0x7F DUP3 AND SWAP2 POP JUMPDEST PUSH1 0x20 DUP3 LT DUP2 EQ ISZERO PUSH2 0x95A JUMPI PUSH2 0x959 PUSH2 0x8FF JUMP JUMPDEST JUMPDEST POP SWAP2 SWAP1 POP JUMP JUMPDEST PUSH32 0x4F6E6C7920726566657265652063616E2064656E7920617070726F76616C2072 PUSH1 0x0 DUP3 ADD MSTORE PUSH32 0x6571756573740000000000000000000000000000000000000000000000000000 PUSH1 0x20 DUP3 ADD MSTORE POP JUMP JUMPDEST PUSH1 0x0 PUSH2 0x9BC PUSH1 0x26 DUP4 PUSH2 0x62B JUMP JUMPDEST SWAP2 POP PUSH2 0x9C7 DUP3 PUSH2 0x960 JUMP JUMPDEST PUSH1 0x40 DUP3 ADD SWAP1 POP SWAP2 SWAP1 POP JUMP JUMPDEST PUSH1 0x0 PUSH1 0x20 DUP3 ADD SWAP1 POP DUP2 DUP2 SUB PUSH1 0x0 DUP4 ADD MSTORE PUSH2 0x9EB DUP2 PUSH2 0x9AF JUMP JUMPDEST SWAP1 POP SWAP2 SWAP1 POP JUMP INVALID LOG2 PUSH5 0x6970667358 0x22 SLT KECCAK256 PUSH11 0x3229443FA6A62C6FEF0EF6 0xCF 0xD 0xBB 0xA5 0xEF LOG3 MSIZE SWAP10 0xD DUP11 0xEB 0xD2 0xBA GASPRICE 0xD5 0xE6 0xB4 MSTORE8 DUP1 0xDD PUSH5 0x736F6C6343 STOP ADDMOD 0xC STOP CALLER "},"gasEstimates":{"creation":{"codeDepositCost":"520000","executionCost":"infinite","totalCost":"infinite"},"external":{"accountabilityContractAddress()":"2536","approveRequest()":"infinite","creator()":"2512","denyRequest(string)":"infinite","referee()":"2514","response()":"infinite","status()":"2633"}},"methodIdentifiers":{"accountabilityContractAddress()":"3c490174","approveRequest()":"263b81c9","creator()":"02d05d3f","denyRequest(string)":"d2daa825","referee()":"3b1bebd1","response()":"7a7f01a7","status()":"200d2ed2"}}}