{"abi":[{"inputs":[{"internalType":"address","name":"user","type":"address"},{"internalType":"uint256","name":"contractIndex","type":"uint256"}],"name":"completeOpenAccountabilityContract","outputs":[],"stateMutability":"nonpayable","type":"function"},{"inputs":[{"internalType":"address","name":"_referee","type":"address"},{"internalType":"string","name":"_name","type":"string"},{"internalType":"string","name":"_description","type":"string"},{"internalType":"address payable","name":"_failureRecipient","type":"address"}],"name":"createAccountabilityContract","outputs":[],"stateMutability":"payable","type":"function"},{"inputs":[{"internalType":"address","name":"user","type":"address"},{"internalType":"uint256","name":"contractIndex","type":"uint256"}],"name":"failOpenAccountabilityContract","outputs":[{"internalType":"uint256","name":"","type":"uint256"},{"internalType":"address[]","name":"","type":"address[]"},{"internalType":"address","name":"","type":"address"}],"stateMutability":"nonpayable","type":"function"},{"inputs":[{"internalType":"address","name":"referee","type":"address"}],"name":"getClosedAccountabilityContractAddressesForReferee","outputs":[{"internalType":"address[]","name":"","type":"address[]"}],"stateMutability":"view","type":"function"},{"inputs":[{"internalType":"address","name":"user","type":"address"}],"name":"getClosedAccountabilityContractAddressesForUser","outputs":[{"internalType":"address[]","name":"","type":"address[]"}],"stateMutability":"view","type":"function"},{"inputs":[{"internalType":"address","name":"referee","type":"address"},{"internalType":"address","name":"contractAddress","type":"address"}],"name":"getContractIndex","outputs":[{"internalType":"uint256","name":"","type":"uint256"},{"internalType":"address[]","name":"","type":"address[]"},{"internalType":"address","name":"","type":"address"}],"stateMutability":"view","type":"function"},{"inputs":[{"internalType":"address","name":"referee","type":"address"}],"name":"getOpenAccountabilityContractAddressesForReferee","outputs":[{"internalType":"address[]","name":"","type":"address[]"}],"stateMutability":"view","type":"function"},{"inputs":[{"internalType":"address","name":"user","type":"address"}],"name":"getOpenAccountabilityContractAddressesForUser","outputs":[{"internalType":"address[]","name":"","type":"address[]"}],"stateMutability":"view","type":"function"},{"inputs":[],"name":"numberOfReferees","outputs":[{"internalType":"uint256","name":"","type":"uint256"}],"stateMutability":"view","type":"function"},{"inputs":[],"name":"numberOfUsers","outputs":[{"internalType":"uint256","name":"","type":"uint256"}],"stateMutability":"view","type":"function"},{"inputs":[{"internalType":"address","name":"","type":"address"}],"name":"referees","outputs":[{"internalType":"uint256","name":"managedContracts","type":"uint256"}],"stateMutability":"view","type":"function"},{"inputs":[{"internalType":"address","name":"","type":"address"}],"name":"users","outputs":[{"internalType":"uint256","name":"createdContracts","type":"uint256"}],"stateMutability":"view","type":"function"}],"evm":{"assembly":"    /* \"Contracts\":57:5444  contract AccountabilityContractFactory {... */\n  mstore(0x40, 0x80)\n  callvalue\n  dup1\n  iszero\n  tag_1\n  jumpi\n  0x00\n  dup1\n  revert\ntag_1:\n  pop\n  dataSize(sub_0)\n  dup1\n  dataOffset(sub_0)\n  0x00\n  codecopy\n  0x00\n  return\nstop\n\nsub_0: assembly {\n        /* \"Contracts\":57:5444  contract AccountabilityContractFactory {... */\n      mstore(0x40, 0x80)\n      jumpi(tag_1, lt(calldatasize, 0x04))\n      shr(0xe0, calldataload(0x00))\n      dup1\n      0x75ce46a7\n      gt\n      tag_14\n      jumpi\n      dup1\n      0x75ce46a7\n      eq\n      tag_8\n      jumpi\n      dup1\n      0x9051e234\n      eq\n      tag_9\n      jumpi\n      dup1\n      0xa87430ba\n      eq\n      tag_10\n      jumpi\n      dup1\n      0xb24e67d0\n      eq\n      tag_11\n      jumpi\n      dup1\n      0xb3b6633e\n      eq\n      tag_12\n      jumpi\n      dup1\n      0xe436e826\n      eq\n      tag_13\n      jumpi\n      jump(tag_1)\n    tag_14:\n      dup1\n      0x19ee8bd4\n      eq\n      tag_2\n      jumpi\n      dup1\n      0x2bc7decc\n      eq\n      tag_3\n      jumpi\n      dup1\n      0x33157f34\n      eq\n      tag_4\n      jumpi\n      dup1\n      0x442a7bc7\n      eq\n      tag_5\n      jumpi\n      dup1\n      0x64a60b47\n      eq\n      tag_6\n      jumpi\n      dup1\n      0x74baa69c\n      eq\n      tag_7\n      jumpi\n    tag_1:\n      0x00\n      dup1\n      revert\n        /* \"Contracts\":2077:2271  function getClosedAccountabilityContractAddressesForReferee(address referee) public view returns (address[] memory){... */\n    tag_2:\n      callvalue\n      dup1\n      iszero\n      tag_15\n      jumpi\n      0x00\n      dup1\n      revert\n    tag_15:\n      pop\n      tag_16\n      0x04\n      dup1\n      calldatasize\n      sub\n      dup2\n      add\n      swap1\n      tag_17\n      swap2\n      swap1\n      tag_18\n      jump\t// in\n    tag_17:\n      tag_19\n      jump\t// in\n    tag_16:\n      mload(0x40)\n      tag_20\n      swap2\n      swap1\n      tag_21\n      jump\t// in\n    tag_20:\n      mload(0x40)\n      dup1\n      swap2\n      sub\n      swap1\n      return\n        /* \"Contracts\":2767:3268  function completeOpenAccountabilityContract(address user, uint contractIndex) public {... */\n    tag_3:\n      callvalue\n      dup1\n      iszero\n      tag_22\n      jumpi\n      0x00\n      dup1\n      revert\n    tag_22:\n      pop\n      tag_23\n      0x04\n      dup1\n      calldatasize\n      sub\n      dup2\n      add\n      swap1\n      tag_24\n      swap2\n      swap1\n      tag_25\n      jump\t// in\n    tag_24:\n      tag_26\n      jump\t// in\n    tag_23:\n      stop\n        /* \"Contracts\":4028:4538  function getContractIndex(address referee, address contractAddress) public view returns (uint, address[] memory, address) {... */\n    tag_4:\n      callvalue\n      dup1\n      iszero\n      tag_27\n      jumpi\n      0x00\n      dup1\n      revert\n    tag_27:\n      pop\n      tag_28\n      0x04\n      dup1\n      calldatasize\n      sub\n      dup2\n      add\n      swap1\n      tag_29\n      swap2\n      swap1\n      tag_30\n      jump\t// in\n    tag_29:\n      tag_31\n      jump\t// in\n    tag_28:\n      mload(0x40)\n      tag_32\n      swap4\n      swap3\n      swap2\n      swap1\n      tag_33\n      jump\t// in\n    tag_32:\n      mload(0x40)\n      dup1\n      swap2\n      sub\n      swap1\n      return\n        /* \"Contracts\":1509:1687  function getOpenAccountabilityContractAddressesForUser(address user) public view returns (address[] memory){... */\n    tag_5:\n      callvalue\n      dup1\n      iszero\n      tag_34\n      jumpi\n      0x00\n      dup1\n      revert\n    tag_34:\n      pop\n      tag_35\n      0x04\n      dup1\n      calldatasize\n      sub\n      dup2\n      add\n      swap1\n      tag_36\n      swap2\n      swap1\n      tag_18\n      jump\t// in\n    tag_36:\n      tag_37\n      jump\t// in\n    tag_35:\n      mload(0x40)\n      tag_38\n      swap2\n      swap1\n      tag_21\n      jump\t// in\n    tag_38:\n      mload(0x40)\n      dup1\n      swap2\n      sub\n      swap1\n      return\n        /* \"Contracts\":197:240  mapping(address => Referee) public referees */\n    tag_6:\n      callvalue\n      dup1\n      iszero\n      tag_39\n      jumpi\n      0x00\n      dup1\n      revert\n    tag_39:\n      pop\n      tag_40\n      0x04\n      dup1\n      calldatasize\n      sub\n      dup2\n      add\n      swap1\n      tag_41\n      swap2\n      swap1\n      tag_18\n      jump\t// in\n    tag_41:\n      tag_42\n      jump\t// in\n    tag_40:\n      mload(0x40)\n      tag_43\n      swap2\n      swap1\n      tag_44\n      jump\t// in\n    tag_43:\n      mload(0x40)\n      dup1\n      swap2\n      sub\n      swap1\n      return\n        /* \"Contracts\":2277:2761  function failOpenAccountabilityContract(address user, uint contractIndex) public returns (uint, address[] memory, address) {... */\n    tag_7:\n      callvalue\n      dup1\n      iszero\n      tag_45\n      jumpi\n      0x00\n      dup1\n      revert\n    tag_45:\n      pop\n      tag_46\n      0x04\n      dup1\n      calldatasize\n      sub\n      dup2\n      add\n      swap1\n      tag_47\n      swap2\n      swap1\n      tag_25\n      jump\t// in\n    tag_47:\n      tag_48\n      jump\t// in\n    tag_46:\n      mload(0x40)\n      tag_49\n      swap4\n      swap3\n      swap2\n      swap1\n      tag_33\n      jump\t// in\n    tag_49:\n      mload(0x40)\n      dup1\n      swap2\n      sub\n      swap1\n      return\n        /* \"Contracts\":141:166  uint public numberOfUsers */\n    tag_8:\n      callvalue\n      dup1\n      iszero\n      tag_50\n      jumpi\n      0x00\n      dup1\n      revert\n    tag_50:\n      pop\n      tag_51\n      tag_52\n      jump\t// in\n    tag_51:\n      mload(0x40)\n      tag_53\n      swap2\n      swap1\n      tag_44\n      jump\t// in\n    tag_53:\n      mload(0x40)\n      dup1\n      swap2\n      sub\n      swap1\n      return\n        /* \"Contracts\":1881:2071  function getOpenAccountabilityContractAddressesForReferee(address referee) public view returns (address[] memory){... */\n    tag_9:\n      callvalue\n      dup1\n      iszero\n      tag_54\n      jumpi\n      0x00\n      dup1\n      revert\n    tag_54:\n      pop\n      tag_55\n      0x04\n      dup1\n      calldatasize\n      sub\n      dup2\n      add\n      swap1\n      tag_56\n      swap2\n      swap1\n      tag_18\n      jump\t// in\n    tag_56:\n      tag_57\n      jump\t// in\n    tag_55:\n      mload(0x40)\n      tag_58\n      swap2\n      swap1\n      tag_21\n      jump\t// in\n    tag_58:\n      mload(0x40)\n      dup1\n      swap2\n      sub\n      swap1\n      return\n        /* \"Contracts\":100:137  mapping(address => User) public users */\n    tag_10:\n      callvalue\n      dup1\n      iszero\n      tag_59\n      jumpi\n      0x00\n      dup1\n      revert\n    tag_59:\n      pop\n      tag_60\n      0x04\n      dup1\n      calldatasize\n      sub\n      dup2\n      add\n      swap1\n      tag_61\n      swap2\n      swap1\n      tag_18\n      jump\t// in\n    tag_61:\n      tag_62\n      jump\t// in\n    tag_60:\n      mload(0x40)\n      tag_63\n      swap2\n      swap1\n      tag_44\n      jump\t// in\n    tag_63:\n      mload(0x40)\n      dup1\n      swap2\n      sub\n      swap1\n      return\n        /* \"Contracts\":1693:1875  function getClosedAccountabilityContractAddressesForUser(address user) public view returns (address[] memory){... */\n    tag_11:\n      callvalue\n      dup1\n      iszero\n      tag_64\n      jumpi\n      0x00\n      dup1\n      revert\n    tag_64:\n      pop\n      tag_65\n      0x04\n      dup1\n      calldatasize\n      sub\n      dup2\n      add\n      swap1\n      tag_66\n      swap2\n      swap1\n      tag_18\n      jump\t// in\n    tag_66:\n      tag_67\n      jump\t// in\n    tag_65:\n      mload(0x40)\n      tag_68\n      swap2\n      swap1\n      tag_21\n      jump\t// in\n    tag_68:\n      mload(0x40)\n      dup1\n      swap2\n      sub\n      swap1\n      return\n        /* \"Contracts\":244:272  uint public numberOfReferees */\n    tag_12:\n      callvalue\n      dup1\n      iszero\n      tag_69\n      jumpi\n      0x00\n      dup1\n      revert\n    tag_69:\n      pop\n      tag_70\n      tag_71\n      jump\t// in\n    tag_70:\n      mload(0x40)\n      tag_72\n      swap2\n      swap1\n      tag_44\n      jump\t// in\n    tag_72:\n      mload(0x40)\n      dup1\n      swap2\n      sub\n      swap1\n      return\n        /* \"Contracts\":624:1503  function createAccountabilityContract(address _referee, string memory _name, string memory _description, address payable _failureRecipient) public payable {... */\n    tag_13:\n      tag_73\n      0x04\n      dup1\n      calldatasize\n      sub\n      dup2\n      add\n      swap1\n      tag_74\n      swap2\n      swap1\n      tag_75\n      jump\t// in\n    tag_74:\n      tag_76\n      jump\t// in\n    tag_73:\n      stop\n        /* \"Contracts\":2077:2271  function getClosedAccountabilityContractAddressesForReferee(address referee) public view returns (address[] memory){... */\n    tag_19:\n        /* \"Contracts\":2175:2191  address[] memory */\n      0x60\n        /* \"Contracts\":2209:2217  referees */\n      0x03\n        /* \"Contracts\":2209:2226  referees[referee] */\n      0x00\n        /* \"Contracts\":2218:2225  referee */\n      dup4\n        /* \"Contracts\":2209:2226  referees[referee] */\n      0xffffffffffffffffffffffffffffffffffffffff\n      and\n      0xffffffffffffffffffffffffffffffffffffffff\n      and\n      dup2\n      mstore\n      0x20\n      add\n      swap1\n      dup2\n      mstore\n      0x20\n      add\n      0x00\n      keccak256\n        /* \"Contracts\":2209:2264  referees[referee].closedAccountabilityContractAddresses */\n      0x02\n      add\n        /* \"Contracts\":2202:2264  return referees[referee].closedAccountabilityContractAddresses */\n      dup1\n      sload\n      dup1\n      0x20\n      mul\n      0x20\n      add\n      mload(0x40)\n      swap1\n      dup2\n      add\n      0x40\n      mstore\n      dup1\n      swap3\n      swap2\n      swap1\n      dup2\n      dup2\n      mstore\n      0x20\n      add\n      dup3\n      dup1\n      sload\n      dup1\n      iszero\n      tag_78\n      jumpi\n      0x20\n      mul\n      dup3\n      add\n      swap2\n      swap1\n      0x00\n      mstore\n      keccak256(0x00, 0x20)\n      swap1\n    tag_79:\n      dup2\n      0x00\n      swap1\n      sload\n      swap1\n      0x0100\n      exp\n      swap1\n      div\n      0xffffffffffffffffffffffffffffffffffffffff\n      and\n      0xffffffffffffffffffffffffffffffffffffffff\n      and\n      dup2\n      mstore\n      0x20\n      add\n      swap1\n      0x01\n      add\n      swap1\n      dup1\n      dup4\n      gt\n      tag_79\n      jumpi\n    tag_78:\n      pop\n      pop\n      pop\n      pop\n      pop\n      swap1\n      pop\n        /* \"Contracts\":2077:2271  function getClosedAccountabilityContractAddressesForReferee(address referee) public view returns (address[] memory){... */\n      swap2\n      swap1\n      pop\n      jump\t// out\n        /* \"Contracts\":2767:3268  function completeOpenAccountabilityContract(address user, uint contractIndex) public {... */\n    tag_26:\n        /* \"Contracts\":2860:2905  AccountabilityContract accountabilityContract */\n      0x00\n        /* \"Contracts\":2931:2936  users */\n      dup1\n        /* \"Contracts\":2931:2942  users[user] */\n      0x00\n        /* \"Contracts\":2937:2941  user */\n      dup5\n        /* \"Contracts\":2931:2942  users[user] */\n      0xffffffffffffffffffffffffffffffffffffffff\n      and\n      0xffffffffffffffffffffffffffffffffffffffff\n      and\n      dup2\n      mstore\n      0x20\n      add\n      swap1\n      dup2\n      mstore\n      0x20\n      add\n      0x00\n      keccak256\n        /* \"Contracts\":2931:2978  users[user].openAccountabilityContractAddresses */\n      0x01\n      add\n        /* \"Contracts\":2979:2992  contractIndex */\n      dup3\n        /* \"Contracts\":2931:2993  users[user].openAccountabilityContractAddresses[contractIndex] */\n      dup2\n      sload\n      dup2\n      lt\n      tag_81\n      jumpi\n      tag_82\n      tag_83\n      jump\t// in\n    tag_82:\n    tag_81:\n      swap1\n      0x00\n      mstore\n      keccak256(0x00, 0x20)\n      add\n      0x00\n      swap1\n      sload\n      swap1\n      0x0100\n      exp\n      swap1\n      div\n      0xffffffffffffffffffffffffffffffffffffffff\n      and\n        /* \"Contracts\":2860:2994  AccountabilityContract accountabilityContract = AccountabilityContract(users[user].openAccountabilityContractAddresses[contractIndex]) */\n      swap1\n      pop\n        /* \"Contracts\":3002:3024  accountabilityContract */\n      dup1\n        /* \"Contracts\":3002:3041  accountabilityContract.completeContract */\n      0xffffffffffffffffffffffffffffffffffffffff\n      and\n      0xb4fedc11\n        /* \"Contracts\":3002:3043  accountabilityContract.completeContract() */\n      mload(0x40)\n      dup2\n      0xffffffff\n      and\n      0xe0\n      shl\n      dup2\n      mstore\n      0x04\n      add\n      0x20\n      mload(0x40)\n      dup1\n      dup4\n      sub\n      dup2\n      0x00\n      dup8\n      gas\n      call\n      iszero\n      dup1\n      iszero\n      tag_86\n      jumpi\n      returndatasize\n      0x00\n      dup1\n      returndatacopy\n      revert(0x00, returndatasize)\n    tag_86:\n      pop\n      pop\n      pop\n      pop\n      mload(0x40)\n      returndatasize\n      not(0x1f)\n      0x1f\n      dup3\n      add\n      and\n      dup3\n      add\n      dup1\n      0x40\n      mstore\n      pop\n      dup2\n      add\n      swap1\n      tag_87\n      swap2\n      swap1\n      tag_88\n      jump\t// in\n    tag_87:\n      pop\n        /* \"Contracts\":3051:3112  moveOpenContractToClosedContractsForUser(user, contractIndex) */\n      tag_89\n        /* \"Contracts\":3092:3096  user */\n      dup4\n        /* \"Contracts\":3098:3111  contractIndex */\n      dup4\n        /* \"Contracts\":3051:3091  moveOpenContractToClosedContractsForUser */\n      tag_90\n        /* \"Contracts\":3051:3112  moveOpenContractToClosedContractsForUser(user, contractIndex) */\n      jump\t// in\n    tag_89:\n        /* \"Contracts\":3120:3261  moveOpenContractToClosedContractsForReferee(accountabilityContract.referee(), users[user].openAccountabilityContractAddresses[contractIndex]) */\n      tag_91\n        /* \"Contracts\":3164:3186  accountabilityContract */\n      dup2\n        /* \"Contracts\":3164:3194  accountabilityContract.referee */\n      0xffffffffffffffffffffffffffffffffffffffff\n      and\n      0x3b1bebd1\n        /* \"Contracts\":3164:3196  accountabilityContract.referee() */\n      mload(0x40)\n      dup2\n      0xffffffff\n      and\n      0xe0\n      shl\n      dup2\n      mstore\n      0x04\n      add\n      0x20\n      mload(0x40)\n      dup1\n      dup4\n      sub\n      dup2\n      dup7\n      gas\n      staticcall\n      iszero\n      dup1\n      iszero\n      tag_93\n      jumpi\n      returndatasize\n      0x00\n      dup1\n      returndatacopy\n      revert(0x00, returndatasize)\n    tag_93:\n      pop\n      pop\n      pop\n      pop\n      mload(0x40)\n      returndatasize\n      not(0x1f)\n      0x1f\n      dup3\n      add\n      and\n      dup3\n      add\n      dup1\n      0x40\n      mstore\n      pop\n      dup2\n      add\n      swap1\n      tag_94\n      swap2\n      swap1\n      tag_95\n      jump\t// in\n    tag_94:\n        /* \"Contracts\":3198:3203  users */\n      0x00\n        /* \"Contracts\":3198:3209  users[user] */\n      dup1\n        /* \"Contracts\":3204:3208  user */\n      dup7\n        /* \"Contracts\":3198:3209  users[user] */\n      0xffffffffffffffffffffffffffffffffffffffff\n      and\n      0xffffffffffffffffffffffffffffffffffffffff\n      and\n      dup2\n      mstore\n      0x20\n      add\n      swap1\n      dup2\n      mstore\n      0x20\n      add\n      0x00\n      keccak256\n        /* \"Contracts\":3198:3245  users[user].openAccountabilityContractAddresses */\n      0x01\n      add\n        /* \"Contracts\":3246:3259  contractIndex */\n      dup5\n        /* \"Contracts\":3198:3260  users[user].openAccountabilityContractAddresses[contractIndex] */\n      dup2\n      sload\n      dup2\n      lt\n      tag_96\n      jumpi\n      tag_97\n      tag_83\n      jump\t// in\n    tag_97:\n    tag_96:\n      swap1\n      0x00\n      mstore\n      keccak256(0x00, 0x20)\n      add\n      0x00\n      swap1\n      sload\n      swap1\n      0x0100\n      exp\n      swap1\n      div\n      0xffffffffffffffffffffffffffffffffffffffff\n      and\n        /* \"Contracts\":3120:3163  moveOpenContractToClosedContractsForReferee */\n      tag_99\n        /* \"Contracts\":3120:3261  moveOpenContractToClosedContractsForReferee(accountabilityContract.referee(), users[user].openAccountabilityContractAddresses[contractIndex]) */\n      jump\t// in\n    tag_91:\n        /* \"Contracts\":2852:3268  {... */\n      pop\n        /* \"Contracts\":2767:3268  function completeOpenAccountabilityContract(address user, uint contractIndex) public {... */\n      pop\n      pop\n      jump\t// out\n        /* \"Contracts\":4028:4538  function getContractIndex(address referee, address contractAddress) public view returns (uint, address[] memory, address) {... */\n    tag_31:\n        /* \"Contracts\":4117:4121  uint */\n      0x00\n        /* \"Contracts\":4123:4139  address[] memory */\n      0x60\n        /* \"Contracts\":4141:4148  address */\n      0x00\n        /* \"Contracts\":4160:4178  uint contractIndex */\n      dup1\n        /* \"Contracts\":4193:4199  uint i */\n      0x00\n        /* \"Contracts\":4188:4428  for (uint i = 0; i<referees[referee].openAccountabilityContractAddresses.length-1; i++){... */\n    tag_101:\n        /* \"Contracts\":4268:4269  1 */\n      0x01\n        /* \"Contracts\":4207:4215  referees */\n      0x03\n        /* \"Contracts\":4207:4224  referees[referee] */\n      0x00\n        /* \"Contracts\":4216:4223  referee */\n      dup10\n        /* \"Contracts\":4207:4224  referees[referee] */\n      0xffffffffffffffffffffffffffffffffffffffff\n      and\n      0xffffffffffffffffffffffffffffffffffffffff\n      and\n      dup2\n      mstore\n      0x20\n      add\n      swap1\n      dup2\n      mstore\n      0x20\n      add\n      0x00\n      keccak256\n        /* \"Contracts\":4207:4260  referees[referee].openAccountabilityContractAddresses */\n      0x01\n      add\n        /* \"Contracts\":4207:4267  referees[referee].openAccountabilityContractAddresses.length */\n      dup1\n      sload\n      swap1\n      pop\n        /* \"Contracts\":4207:4269  referees[referee].openAccountabilityContractAddresses.length-1 */\n      tag_104\n      swap2\n      swap1\n      tag_105\n      jump\t// in\n    tag_104:\n        /* \"Contracts\":4205:4206  i */\n      dup2\n        /* \"Contracts\":4205:4269  i<referees[referee].openAccountabilityContractAddresses.length-1 */\n      lt\n        /* \"Contracts\":4188:4428  for (uint i = 0; i<referees[referee].openAccountabilityContractAddresses.length-1; i++){... */\n      iszero\n      tag_102\n      jumpi\n        /* \"Contracts\":4352:4367  contractAddress */\n      dup6\n        /* \"Contracts\":4292:4367  referees[referee].openAccountabilityContractAddresses[i] == contractAddress */\n      0xffffffffffffffffffffffffffffffffffffffff\n      and\n        /* \"Contracts\":4292:4300  referees */\n      0x03\n        /* \"Contracts\":4292:4309  referees[referee] */\n      0x00\n        /* \"Contracts\":4301:4308  referee */\n      dup10\n        /* \"Contracts\":4292:4309  referees[referee] */\n      0xffffffffffffffffffffffffffffffffffffffff\n      and\n      0xffffffffffffffffffffffffffffffffffffffff\n      and\n      dup2\n      mstore\n      0x20\n      add\n      swap1\n      dup2\n      mstore\n      0x20\n      add\n      0x00\n      keccak256\n        /* \"Contracts\":4292:4345  referees[referee].openAccountabilityContractAddresses */\n      0x01\n      add\n        /* \"Contracts\":4346:4347  i */\n      dup3\n        /* \"Contracts\":4292:4348  referees[referee].openAccountabilityContractAddresses[i] */\n      dup2\n      sload\n      dup2\n      lt\n      tag_106\n      jumpi\n      tag_107\n      tag_83\n      jump\t// in\n    tag_107:\n    tag_106:\n      swap1\n      0x00\n      mstore\n      keccak256(0x00, 0x20)\n      add\n      0x00\n      swap1\n      sload\n      swap1\n      0x0100\n      exp\n      swap1\n      div\n      0xffffffffffffffffffffffffffffffffffffffff\n      and\n        /* \"Contracts\":4292:4367  referees[referee].openAccountabilityContractAddresses[i] == contractAddress */\n      0xffffffffffffffffffffffffffffffffffffffff\n      and\n      eq\n        /* \"Contracts\":4289:4418  if(referees[referee].openAccountabilityContractAddresses[i] == contractAddress){... */\n      iszero\n      tag_109\n      jumpi\n        /* \"Contracts\":4402:4403  i */\n      dup1\n        /* \"Contracts\":4386:4403  contractIndex = i */\n      swap2\n      pop\n        /* \"Contracts\":4289:4418  if(referees[referee].openAccountabilityContractAddresses[i] == contractAddress){... */\n    tag_109:\n        /* \"Contracts\":4271:4274  i++ */\n      dup1\n      dup1\n      tag_110\n      swap1\n      tag_111\n      jump\t// in\n    tag_110:\n      swap2\n      pop\n      pop\n        /* \"Contracts\":4188:4428  for (uint i = 0; i<referees[referee].openAccountabilityContractAddresses.length-1; i++){... */\n      jump(tag_101)\n    tag_102:\n      pop\n        /* \"Contracts\":4445:4458  contractIndex */\n      dup1\n        /* \"Contracts\":4460:4468  referees */\n      0x03\n        /* \"Contracts\":4460:4477  referees[referee] */\n      0x00\n        /* \"Contracts\":4469:4476  referee */\n      dup9\n        /* \"Contracts\":4460:4477  referees[referee] */\n      0xffffffffffffffffffffffffffffffffffffffff\n      and\n      0xffffffffffffffffffffffffffffffffffffffff\n      and\n      dup2\n      mstore\n      0x20\n      add\n      swap1\n      dup2\n      mstore\n      0x20\n      add\n      0x00\n      keccak256\n        /* \"Contracts\":4460:4513  referees[referee].openAccountabilityContractAddresses */\n      0x01\n      add\n        /* \"Contracts\":4515:4530  contractAddress */\n      dup7\n        /* \"Contracts\":4437:4531  return (contractIndex, referees[referee].openAccountabilityContractAddresses, contractAddress) */\n      dup2\n      dup1\n      sload\n      dup1\n      0x20\n      mul\n      0x20\n      add\n      mload(0x40)\n      swap1\n      dup2\n      add\n      0x40\n      mstore\n      dup1\n      swap3\n      swap2\n      swap1\n      dup2\n      dup2\n      mstore\n      0x20\n      add\n      dup3\n      dup1\n      sload\n      dup1\n      iszero\n      tag_112\n      jumpi\n      0x20\n      mul\n      dup3\n      add\n      swap2\n      swap1\n      0x00\n      mstore\n      keccak256(0x00, 0x20)\n      swap1\n    tag_113:\n      dup2\n      0x00\n      swap1\n      sload\n      swap1\n      0x0100\n      exp\n      swap1\n      div\n      0xffffffffffffffffffffffffffffffffffffffff\n      and\n      0xffffffffffffffffffffffffffffffffffffffff\n      and\n      dup2\n      mstore\n      0x20\n      add\n      swap1\n      0x01\n      add\n      swap1\n      dup1\n      dup4\n      gt\n      tag_113\n      jumpi\n    tag_112:\n      pop\n      pop\n      pop\n      pop\n      pop\n      swap2\n      pop\n      swap4\n      pop\n      swap4\n      pop\n      swap4\n      pop\n      pop\n        /* \"Contracts\":4028:4538  function getContractIndex(address referee, address contractAddress) public view returns (uint, address[] memory, address) {... */\n      swap3\n      pop\n      swap3\n      pop\n      swap3\n      jump\t// out\n        /* \"Contracts\":1509:1687  function getOpenAccountabilityContractAddressesForUser(address user) public view returns (address[] memory){... */\n    tag_37:\n        /* \"Contracts\":1599:1615  address[] memory */\n      0x60\n        /* \"Contracts\":1633:1638  users */\n      0x00\n        /* \"Contracts\":1633:1644  users[user] */\n      dup1\n        /* \"Contracts\":1639:1643  user */\n      dup4\n        /* \"Contracts\":1633:1644  users[user] */\n      0xffffffffffffffffffffffffffffffffffffffff\n      and\n      0xffffffffffffffffffffffffffffffffffffffff\n      and\n      dup2\n      mstore\n      0x20\n      add\n      swap1\n      dup2\n      mstore\n      0x20\n      add\n      0x00\n      keccak256\n        /* \"Contracts\":1633:1680  users[user].openAccountabilityContractAddresses */\n      0x01\n      add\n        /* \"Contracts\":1626:1680  return users[user].openAccountabilityContractAddresses */\n      dup1\n      sload\n      dup1\n      0x20\n      mul\n      0x20\n      add\n      mload(0x40)\n      swap1\n      dup2\n      add\n      0x40\n      mstore\n      dup1\n      swap3\n      swap2\n      swap1\n      dup2\n      dup2\n      mstore\n      0x20\n      add\n      dup3\n      dup1\n      sload\n      dup1\n      iszero\n      tag_115\n      jumpi\n      0x20\n      mul\n      dup3\n      add\n      swap2\n      swap1\n      0x00\n      mstore\n      keccak256(0x00, 0x20)\n      swap1\n    tag_116:\n      dup2\n      0x00\n      swap1\n      sload\n      swap1\n      0x0100\n      exp\n      swap1\n      div\n      0xffffffffffffffffffffffffffffffffffffffff\n      and\n      0xffffffffffffffffffffffffffffffffffffffff\n      and\n      dup2\n      mstore\n      0x20\n      add\n      swap1\n      0x01\n      add\n      swap1\n      dup1\n      dup4\n      gt\n      tag_116\n      jumpi\n    tag_115:\n      pop\n      pop\n      pop\n      pop\n      pop\n      swap1\n      pop\n        /* \"Contracts\":1509:1687  function getOpenAccountabilityContractAddressesForUser(address user) public view returns (address[] memory){... */\n      swap2\n      swap1\n      pop\n      jump\t// out\n        /* \"Contracts\":197:240  mapping(address => Referee) public referees */\n    tag_42:\n      mstore(0x20, 0x03)\n      dup1\n      0x00\n      mstore\n      keccak256(0x00, 0x40)\n      0x00\n      swap2\n      pop\n      swap1\n      pop\n      dup1\n      0x00\n      add\n      sload\n      swap1\n      pop\n      dup2\n      jump\t// out\n        /* \"Contracts\":2277:2761  function failOpenAccountabilityContract(address user, uint contractIndex) public returns (uint, address[] memory, address) {... */\n    tag_48:\n        /* \"Contracts\":2367:2371  uint */\n      0x00\n        /* \"Contracts\":2373:2389  address[] memory */\n      0x60\n        /* \"Contracts\":2391:2398  address */\n      0x00\n        /* \"Contracts\":2408:2453  AccountabilityContract accountabilityContract */\n      dup1\n        /* \"Contracts\":2479:2484  users */\n      0x00\n        /* \"Contracts\":2479:2490  users[user] */\n      dup1\n        /* \"Contracts\":2485:2489  user */\n      dup8\n        /* \"Contracts\":2479:2490  users[user] */\n      0xffffffffffffffffffffffffffffffffffffffff\n      and\n      0xffffffffffffffffffffffffffffffffffffffff\n      and\n      dup2\n      mstore\n      0x20\n      add\n      swap1\n      dup2\n      mstore\n      0x20\n      add\n      0x00\n      keccak256\n        /* \"Contracts\":2479:2526  users[user].openAccountabilityContractAddresses */\n      0x01\n      add\n        /* \"Contracts\":2527:2540  contractIndex */\n      dup6\n        /* \"Contracts\":2479:2541  users[user].openAccountabilityContractAddresses[contractIndex] */\n      dup2\n      sload\n      dup2\n      lt\n      tag_118\n      jumpi\n      tag_119\n      tag_83\n      jump\t// in\n    tag_119:\n    tag_118:\n      swap1\n      0x00\n      mstore\n      keccak256(0x00, 0x20)\n      add\n      0x00\n      swap1\n      sload\n      swap1\n      0x0100\n      exp\n      swap1\n      div\n      0xffffffffffffffffffffffffffffffffffffffff\n      and\n        /* \"Contracts\":2408:2542  AccountabilityContract accountabilityContract = AccountabilityContract(users[user].openAccountabilityContractAddresses[contractIndex]) */\n      swap1\n      pop\n        /* \"Contracts\":2550:2572  accountabilityContract */\n      dup1\n        /* \"Contracts\":2550:2585  accountabilityContract.failContract */\n      0xffffffffffffffffffffffffffffffffffffffff\n      and\n      0x2d398fa6\n        /* \"Contracts\":2550:2587  accountabilityContract.failContract() */\n      mload(0x40)\n      dup2\n      0xffffffff\n      and\n      0xe0\n      shl\n      dup2\n      mstore\n      0x04\n      add\n      0x20\n      mload(0x40)\n      dup1\n      dup4\n      sub\n      dup2\n      0x00\n      dup8\n      gas\n      call\n      iszero\n      dup1\n      iszero\n      tag_122\n      jumpi\n      returndatasize\n      0x00\n      dup1\n      returndatacopy\n      revert(0x00, returndatasize)\n    tag_122:\n      pop\n      pop\n      pop\n      pop\n      mload(0x40)\n      returndatasize\n      not(0x1f)\n      0x1f\n      dup3\n      add\n      and\n      dup3\n      add\n      dup1\n      0x40\n      mstore\n      pop\n      dup2\n      add\n      swap1\n      tag_123\n      swap2\n      swap1\n      tag_88\n      jump\t// in\n    tag_123:\n      pop\n        /* \"Contracts\":2595:2656  moveOpenContractToClosedContractsForUser(user, contractIndex) */\n      tag_124\n        /* \"Contracts\":2636:2640  user */\n      dup7\n        /* \"Contracts\":2642:2655  contractIndex */\n      dup7\n        /* \"Contracts\":2595:2635  moveOpenContractToClosedContractsForUser */\n      tag_90\n        /* \"Contracts\":2595:2656  moveOpenContractToClosedContractsForUser(user, contractIndex) */\n      jump\t// in\n    tag_124:\n        /* \"Contracts\":2671:2754  getContractIndex(accountabilityContract.referee(), address(accountabilityContract)) */\n      tag_125\n        /* \"Contracts\":2688:2710  accountabilityContract */\n      dup2\n        /* \"Contracts\":2688:2718  accountabilityContract.referee */\n      0xffffffffffffffffffffffffffffffffffffffff\n      and\n      0x3b1bebd1\n        /* \"Contracts\":2688:2720  accountabilityContract.referee() */\n      mload(0x40)\n      dup2\n      0xffffffff\n      and\n      0xe0\n      shl\n      dup2\n      mstore\n      0x04\n      add\n      0x20\n      mload(0x40)\n      dup1\n      dup4\n      sub\n      dup2\n      dup7\n      gas\n      staticcall\n      iszero\n      dup1\n      iszero\n      tag_127\n      jumpi\n      returndatasize\n      0x00\n      dup1\n      returndatacopy\n      revert(0x00, returndatasize)\n    tag_127:\n      pop\n      pop\n      pop\n      pop\n      mload(0x40)\n      returndatasize\n      not(0x1f)\n      0x1f\n      dup3\n      add\n      and\n      dup3\n      add\n      dup1\n      0x40\n      mstore\n      pop\n      dup2\n      add\n      swap1\n      tag_128\n      swap2\n      swap1\n      tag_95\n      jump\t// in\n    tag_128:\n        /* \"Contracts\":2730:2752  accountabilityContract */\n      dup3\n        /* \"Contracts\":2671:2687  getContractIndex */\n      tag_31\n        /* \"Contracts\":2671:2754  getContractIndex(accountabilityContract.referee(), address(accountabilityContract)) */\n      jump\t// in\n    tag_125:\n        /* \"Contracts\":2664:2754  return getContractIndex(accountabilityContract.referee(), address(accountabilityContract)) */\n      swap4\n      pop\n      swap4\n      pop\n      swap4\n      pop\n      pop\n        /* \"Contracts\":2277:2761  function failOpenAccountabilityContract(address user, uint contractIndex) public returns (uint, address[] memory, address) {... */\n      swap3\n      pop\n      swap3\n      pop\n      swap3\n      jump\t// out\n        /* \"Contracts\":141:166  uint public numberOfUsers */\n    tag_52:\n      sload(0x01)\n      dup2\n      jump\t// out\n        /* \"Contracts\":1881:2071  function getOpenAccountabilityContractAddressesForReferee(address referee) public view returns (address[] memory){... */\n    tag_57:\n        /* \"Contracts\":1977:1993  address[] memory */\n      0x60\n        /* \"Contracts\":2011:2019  referees */\n      0x03\n        /* \"Contracts\":2011:2028  referees[referee] */\n      0x00\n        /* \"Contracts\":2020:2027  referee */\n      dup4\n        /* \"Contracts\":2011:2028  referees[referee] */\n      0xffffffffffffffffffffffffffffffffffffffff\n      and\n      0xffffffffffffffffffffffffffffffffffffffff\n      and\n      dup2\n      mstore\n      0x20\n      add\n      swap1\n      dup2\n      mstore\n      0x20\n      add\n      0x00\n      keccak256\n        /* \"Contracts\":2011:2064  referees[referee].openAccountabilityContractAddresses */\n      0x01\n      add\n        /* \"Contracts\":2004:2064  return referees[referee].openAccountabilityContractAddresses */\n      dup1\n      sload\n      dup1\n      0x20\n      mul\n      0x20\n      add\n      mload(0x40)\n      swap1\n      dup2\n      add\n      0x40\n      mstore\n      dup1\n      swap3\n      swap2\n      swap1\n      dup2\n      dup2\n      mstore\n      0x20\n      add\n      dup3\n      dup1\n      sload\n      dup1\n      iszero\n      tag_130\n      jumpi\n      0x20\n      mul\n      dup3\n      add\n      swap2\n      swap1\n      0x00\n      mstore\n      keccak256(0x00, 0x20)\n      swap1\n    tag_131:\n      dup2\n      0x00\n      swap1\n      sload\n      swap1\n      0x0100\n      exp\n      swap1\n      div\n      0xffffffffffffffffffffffffffffffffffffffff\n      and\n      0xffffffffffffffffffffffffffffffffffffffff\n      and\n      dup2\n      mstore\n      0x20\n      add\n      swap1\n      0x01\n      add\n      swap1\n      dup1\n      dup4\n      gt\n      tag_131\n      jumpi\n    tag_130:\n      pop\n      pop\n      pop\n      pop\n      pop\n      swap1\n      pop\n        /* \"Contracts\":1881:2071  function getOpenAccountabilityContractAddressesForReferee(address referee) public view returns (address[] memory){... */\n      swap2\n      swap1\n      pop\n      jump\t// out\n        /* \"Contracts\":100:137  mapping(address => User) public users */\n    tag_62:\n      mstore(0x20, 0x00)\n      dup1\n      0x00\n      mstore\n      keccak256(0x00, 0x40)\n      0x00\n      swap2\n      pop\n      swap1\n      pop\n      dup1\n      0x00\n      add\n      sload\n      swap1\n      pop\n      dup2\n      jump\t// out\n        /* \"Contracts\":1693:1875  function getClosedAccountabilityContractAddressesForUser(address user) public view returns (address[] memory){... */\n    tag_67:\n        /* \"Contracts\":1785:1801  address[] memory */\n      0x60\n        /* \"Contracts\":1819:1824  users */\n      0x00\n        /* \"Contracts\":1819:1830  users[user] */\n      dup1\n        /* \"Contracts\":1825:1829  user */\n      dup4\n        /* \"Contracts\":1819:1830  users[user] */\n      0xffffffffffffffffffffffffffffffffffffffff\n      and\n      0xffffffffffffffffffffffffffffffffffffffff\n      and\n      dup2\n      mstore\n      0x20\n      add\n      swap1\n      dup2\n      mstore\n      0x20\n      add\n      0x00\n      keccak256\n        /* \"Contracts\":1819:1868  users[user].closedAccountabilityContractAddresses */\n      0x02\n      add\n        /* \"Contracts\":1812:1868  return users[user].closedAccountabilityContractAddresses */\n      dup1\n      sload\n      dup1\n      0x20\n      mul\n      0x20\n      add\n      mload(0x40)\n      swap1\n      dup2\n      add\n      0x40\n      mstore\n      dup1\n      swap3\n      swap2\n      swap1\n      dup2\n      dup2\n      mstore\n      0x20\n      add\n      dup3\n      dup1\n      sload\n      dup1\n      iszero\n      tag_133\n      jumpi\n      0x20\n      mul\n      dup3\n      add\n      swap2\n      swap1\n      0x00\n      mstore\n      keccak256(0x00, 0x20)\n      swap1\n    tag_134:\n      dup2\n      0x00\n      swap1\n      sload\n      swap1\n      0x0100\n      exp\n      swap1\n      div\n      0xffffffffffffffffffffffffffffffffffffffff\n      and\n      0xffffffffffffffffffffffffffffffffffffffff\n      and\n      dup2\n      mstore\n      0x20\n      add\n      swap1\n      0x01\n      add\n      swap1\n      dup1\n      dup4\n      gt\n      tag_134\n      jumpi\n    tag_133:\n      pop\n      pop\n      pop\n      pop\n      pop\n      swap1\n      pop\n        /* \"Contracts\":1693:1875  function getClosedAccountabilityContractAddressesForUser(address user) public view returns (address[] memory){... */\n      swap2\n      swap1\n      pop\n      jump\t// out\n        /* \"Contracts\":244:272  uint public numberOfReferees */\n    tag_71:\n      sload(0x04)\n      dup2\n      jump\t// out\n        /* \"Contracts\":624:1503  function createAccountabilityContract(address _referee, string memory _name, string memory _description, address payable _failureRecipient) public payable {... */\n    tag_76:\n        /* \"Contracts\":830:831  0 */\n      0x00\n        /* \"Contracts\":792:797  users */\n      dup1\n        /* \"Contracts\":792:809  users[msg.sender] */\n      0x00\n        /* \"Contracts\":798:808  msg.sender */\n      caller\n        /* \"Contracts\":792:809  users[msg.sender] */\n      0xffffffffffffffffffffffffffffffffffffffff\n      and\n      0xffffffffffffffffffffffffffffffffffffffff\n      and\n      dup2\n      mstore\n      0x20\n      add\n      swap1\n      dup2\n      mstore\n      0x20\n      add\n      0x00\n      keccak256\n        /* \"Contracts\":792:826  users[msg.sender].createdContracts */\n      0x00\n      add\n      sload\n        /* \"Contracts\":792:831  users[msg.sender].createdContracts == 0 */\n      eq\n        /* \"Contracts\":789:916  if(users[msg.sender].createdContracts == 0){... */\n      iszero\n      tag_136\n      jumpi\n        /* \"Contracts\":846:859  numberOfUsers */\n      0x01\n      0x00\n        /* \"Contracts\":846:861  numberOfUsers++ */\n      dup2\n      sload\n      dup1\n      swap3\n      swap2\n      swap1\n      tag_137\n      swap1\n      tag_111\n      jump\t// in\n    tag_137:\n      swap2\n      swap1\n      pop\n      sstore\n      pop\n        /* \"Contracts\":875:888  userAddresses */\n      0x02\n        /* \"Contracts\":894:904  msg.sender */\n      caller\n        /* \"Contracts\":875:905  userAddresses.push(msg.sender) */\n      swap1\n      dup1\n      0x01\n      dup2\n      sload\n      add\n      dup1\n      dup3\n      sstore\n      dup1\n      swap2\n      pop\n      pop\n      0x01\n      swap1\n      sub\n      swap1\n      0x00\n      mstore\n      keccak256(0x00, 0x20)\n      add\n      0x00\n      swap1\n      swap2\n      swap1\n      swap2\n      swap1\n      swap2\n      0x0100\n      exp\n      dup2\n      sload\n      dup2\n      0xffffffffffffffffffffffffffffffffffffffff\n      mul\n      not\n      and\n      swap1\n      dup4\n      0xffffffffffffffffffffffffffffffffffffffff\n      and\n      mul\n      or\n      swap1\n      sstore\n      pop\n        /* \"Contracts\":789:916  if(users[msg.sender].createdContracts == 0){... */\n    tag_136:\n        /* \"Contracts\":967:968  0 */\n      0x00\n        /* \"Contracts\":928:936  referees */\n      0x03\n        /* \"Contracts\":928:946  referees[_referee] */\n      0x00\n        /* \"Contracts\":937:945  _referee */\n      dup7\n        /* \"Contracts\":928:946  referees[_referee] */\n      0xffffffffffffffffffffffffffffffffffffffff\n      and\n      0xffffffffffffffffffffffffffffffffffffffff\n      and\n      dup2\n      mstore\n      0x20\n      add\n      swap1\n      dup2\n      mstore\n      0x20\n      add\n      0x00\n      keccak256\n        /* \"Contracts\":928:963  referees[_referee].managedContracts */\n      0x00\n      add\n      sload\n        /* \"Contracts\":928:968  referees[_referee].managedContracts == 0 */\n      eq\n        /* \"Contracts\":925:1057  if(referees[_referee].managedContracts == 0){... */\n      iszero\n      tag_139\n      jumpi\n        /* \"Contracts\":983:999  numberOfReferees */\n      0x04\n      0x00\n        /* \"Contracts\":983:1001  numberOfReferees++ */\n      dup2\n      sload\n      dup1\n      swap3\n      swap2\n      swap1\n      tag_140\n      swap1\n      tag_111\n      jump\t// in\n    tag_140:\n      swap2\n      swap1\n      pop\n      sstore\n      pop\n        /* \"Contracts\":1015:1031  refereeAddresses */\n      0x05\n        /* \"Contracts\":1037:1045  _referee */\n      dup5\n        /* \"Contracts\":1015:1046  refereeAddresses.push(_referee) */\n      swap1\n      dup1\n      0x01\n      dup2\n      sload\n      add\n      dup1\n      dup3\n      sstore\n      dup1\n      swap2\n      pop\n      pop\n      0x01\n      swap1\n      sub\n      swap1\n      0x00\n      mstore\n      keccak256(0x00, 0x20)\n      add\n      0x00\n      swap1\n      swap2\n      swap1\n      swap2\n      swap1\n      swap2\n      0x0100\n      exp\n      dup2\n      sload\n      dup2\n      0xffffffffffffffffffffffffffffffffffffffff\n      mul\n      not\n      and\n      swap1\n      dup4\n      0xffffffffffffffffffffffffffffffffffffffff\n      and\n      mul\n      or\n      swap1\n      sstore\n      pop\n        /* \"Contracts\":925:1057  if(referees[_referee].managedContracts == 0){... */\n    tag_139:\n        /* \"Contracts\":1066:1100  AccountabilityContract newContract */\n      0x00\n        /* \"Contracts\":1139:1148  msg.value */\n      callvalue\n        /* \"Contracts\":1150:1160  msg.sender */\n      caller\n        /* \"Contracts\":1162:1170  _referee */\n      dup7\n        /* \"Contracts\":1172:1177  _name */\n      dup7\n        /* \"Contracts\":1179:1191  _description */\n      dup7\n        /* \"Contracts\":1193:1210  _failureRecipient */\n      dup7\n        /* \"Contracts\":1212:1221  msg.value */\n      callvalue\n        /* \"Contracts\":1103:1222  (new AccountabilityContract){value: msg.value}(msg.sender, _referee, _name, _description, _failureRecipient, msg.value) */\n      mload(0x40)\n      tag_142\n      swap1\n      tag_143\n      jump\t// in\n    tag_142:\n      tag_144\n      swap7\n      swap6\n      swap5\n      swap4\n      swap3\n      swap2\n      swap1\n      tag_145\n      jump\t// in\n    tag_144:\n      mload(0x40)\n      dup1\n      swap2\n      sub\n      swap1\n      dup3\n      create\n      swap1\n      pop\n      dup1\n      iszero\n      dup1\n      iszero\n      tag_146\n      jumpi\n      returndatasize\n      0x00\n      dup1\n      returndatacopy\n      revert(0x00, returndatasize)\n    tag_146:\n      pop\n        /* \"Contracts\":1066:1222  AccountabilityContract newContract = (new AccountabilityContract){value: msg.value}(msg.sender, _referee, _name, _description, _failureRecipient, msg.value) */\n      swap1\n      pop\n        /* \"Contracts\":1232:1237  users */\n      0x00\n        /* \"Contracts\":1232:1249  users[msg.sender] */\n      dup1\n        /* \"Contracts\":1238:1248  msg.sender */\n      caller\n        /* \"Contracts\":1232:1249  users[msg.sender] */\n      0xffffffffffffffffffffffffffffffffffffffff\n      and\n      0xffffffffffffffffffffffffffffffffffffffff\n      and\n      dup2\n      mstore\n      0x20\n      add\n      swap1\n      dup2\n      mstore\n      0x20\n      add\n      0x00\n      keccak256\n        /* \"Contracts\":1232:1266  users[msg.sender].createdContracts */\n      0x00\n      add\n      0x00\n        /* \"Contracts\":1232:1268  users[msg.sender].createdContracts++ */\n      dup2\n      sload\n      dup1\n      swap3\n      swap2\n      swap1\n      tag_147\n      swap1\n      tag_111\n      jump\t// in\n    tag_147:\n      swap2\n      swap1\n      pop\n      sstore\n      pop\n        /* \"Contracts\":1278:1283  users */\n      0x00\n        /* \"Contracts\":1278:1295  users[msg.sender] */\n      dup1\n        /* \"Contracts\":1284:1294  msg.sender */\n      caller\n        /* \"Contracts\":1278:1295  users[msg.sender] */\n      0xffffffffffffffffffffffffffffffffffffffff\n      and\n      0xffffffffffffffffffffffffffffffffffffffff\n      and\n      dup2\n      mstore\n      0x20\n      add\n      swap1\n      dup2\n      mstore\n      0x20\n      add\n      0x00\n      keccak256\n        /* \"Contracts\":1278:1331  users[msg.sender].openAccountabilityContractAddresses */\n      0x01\n      add\n        /* \"Contracts\":1345:1356  newContract */\n      dup2\n        /* \"Contracts\":1278:1358  users[msg.sender].openAccountabilityContractAddresses.push(address(newContract)) */\n      swap1\n      dup1\n      0x01\n      dup2\n      sload\n      add\n      dup1\n      dup3\n      sstore\n      dup1\n      swap2\n      pop\n      pop\n      0x01\n      swap1\n      sub\n      swap1\n      0x00\n      mstore\n      keccak256(0x00, 0x20)\n      add\n      0x00\n      swap1\n      swap2\n      swap1\n      swap2\n      swap1\n      swap2\n      0x0100\n      exp\n      dup2\n      sload\n      dup2\n      0xffffffffffffffffffffffffffffffffffffffff\n      mul\n      not\n      and\n      swap1\n      dup4\n      0xffffffffffffffffffffffffffffffffffffffff\n      and\n      mul\n      or\n      swap1\n      sstore\n      pop\n        /* \"Contracts\":1368:1376  referees */\n      0x03\n        /* \"Contracts\":1368:1386  referees[_referee] */\n      0x00\n        /* \"Contracts\":1377:1385  _referee */\n      dup7\n        /* \"Contracts\":1368:1386  referees[_referee] */\n      0xffffffffffffffffffffffffffffffffffffffff\n      and\n      0xffffffffffffffffffffffffffffffffffffffff\n      and\n      dup2\n      mstore\n      0x20\n      add\n      swap1\n      dup2\n      mstore\n      0x20\n      add\n      0x00\n      keccak256\n        /* \"Contracts\":1368:1403  referees[_referee].managedContracts */\n      0x00\n      add\n      0x00\n        /* \"Contracts\":1368:1405  referees[_referee].managedContracts++ */\n      dup2\n      sload\n      dup1\n      swap3\n      swap2\n      swap1\n      tag_149\n      swap1\n      tag_111\n      jump\t// in\n    tag_149:\n      swap2\n      swap1\n      pop\n      sstore\n      pop\n        /* \"Contracts\":1415:1423  referees */\n      0x03\n        /* \"Contracts\":1415:1433  referees[_referee] */\n      0x00\n        /* \"Contracts\":1424:1432  _referee */\n      dup7\n        /* \"Contracts\":1415:1433  referees[_referee] */\n      0xffffffffffffffffffffffffffffffffffffffff\n      and\n      0xffffffffffffffffffffffffffffffffffffffff\n      and\n      dup2\n      mstore\n      0x20\n      add\n      swap1\n      dup2\n      mstore\n      0x20\n      add\n      0x00\n      keccak256\n        /* \"Contracts\":1415:1469  referees[_referee].openAccountabilityContractAddresses */\n      0x01\n      add\n        /* \"Contracts\":1483:1494  newContract */\n      dup2\n        /* \"Contracts\":1415:1496  referees[_referee].openAccountabilityContractAddresses.push(address(newContract)) */\n      swap1\n      dup1\n      0x01\n      dup2\n      sload\n      add\n      dup1\n      dup3\n      sstore\n      dup1\n      swap2\n      pop\n      pop\n      0x01\n      swap1\n      sub\n      swap1\n      0x00\n      mstore\n      keccak256(0x00, 0x20)\n      add\n      0x00\n      swap1\n      swap2\n      swap1\n      swap2\n      swap1\n      swap2\n      0x0100\n      exp\n      dup2\n      sload\n      dup2\n      0xffffffffffffffffffffffffffffffffffffffff\n      mul\n      not\n      and\n      swap1\n      dup4\n      0xffffffffffffffffffffffffffffffffffffffff\n      and\n      mul\n      or\n      swap1\n      sstore\n      pop\n        /* \"Contracts\":779:1503  {... */\n      pop\n        /* \"Contracts\":624:1503  function createAccountabilityContract(address _referee, string memory _name, string memory _description, address payable _failureRecipient) public payable {... */\n      pop\n      pop\n      pop\n      pop\n      jump\t// out\n        /* \"Contracts\":3274:4022  function moveOpenContractToClosedContractsForUser(address user, uint openContractIndex) private {... */\n    tag_90:\n        /* \"Contracts\":3380:3412  uint openContractAddressesLength */\n      0x00\n        /* \"Contracts\":3415:3420  users */\n      dup1\n        /* \"Contracts\":3415:3426  users[user] */\n      0x00\n        /* \"Contracts\":3421:3425  user */\n      dup5\n        /* \"Contracts\":3415:3426  users[user] */\n      0xffffffffffffffffffffffffffffffffffffffff\n      and\n      0xffffffffffffffffffffffffffffffffffffffff\n      and\n      dup2\n      mstore\n      0x20\n      add\n      swap1\n      dup2\n      mstore\n      0x20\n      add\n      0x00\n      keccak256\n        /* \"Contracts\":3415:3462  users[user].openAccountabilityContractAddresses */\n      0x01\n      add\n        /* \"Contracts\":3415:3469  users[user].openAccountabilityContractAddresses.length */\n      dup1\n      sload\n      swap1\n      pop\n        /* \"Contracts\":3380:3469  uint openContractAddressesLength = users[user].openAccountabilityContractAddresses.length */\n      swap1\n      pop\n        /* \"Contracts\":3507:3534  openContractAddressesLength */\n      dup1\n        /* \"Contracts\":3487:3504  openContractIndex */\n      dup3\n        /* \"Contracts\":3487:3534  openContractIndex < openContractAddressesLength */\n      lt\n        /* \"Contracts\":3479:3572  require(openContractIndex < openContractAddressesLength, \"Open contract index out of bounds\") */\n      tag_152\n      jumpi\n      mload(0x40)\n      0x08c379a000000000000000000000000000000000000000000000000000000000\n      dup2\n      mstore\n      0x04\n      add\n      tag_153\n      swap1\n      tag_154\n      jump\t// in\n    tag_153:\n      mload(0x40)\n      dup1\n      swap2\n      sub\n      swap1\n      revert\n    tag_152:\n        /* \"Contracts\":3587:3593  uint i */\n      0x00\n        /* \"Contracts\":3596:3613  openContractIndex */\n      dup3\n        /* \"Contracts\":3587:3613  uint i = openContractIndex */\n      swap1\n      pop\n        /* \"Contracts\":3582:3782  for (uint i = openContractIndex; i<openContractAddressesLength-1; i++){... */\n    tag_155:\n        /* \"Contracts\":3645:3646  1 */\n      0x01\n        /* \"Contracts\":3617:3644  openContractAddressesLength */\n      dup3\n        /* \"Contracts\":3617:3646  openContractAddressesLength-1 */\n      tag_158\n      swap2\n      swap1\n      tag_105\n      jump\t// in\n    tag_158:\n        /* \"Contracts\":3615:3616  i */\n      dup2\n        /* \"Contracts\":3615:3646  i<openContractAddressesLength-1 */\n      lt\n        /* \"Contracts\":3582:3782  for (uint i = openContractIndex; i<openContractAddressesLength-1; i++){... */\n      iszero\n      tag_156\n      jumpi\n        /* \"Contracts\":3719:3724  users */\n      0x00\n        /* \"Contracts\":3719:3730  users[user] */\n      dup1\n        /* \"Contracts\":3725:3729  user */\n      dup6\n        /* \"Contracts\":3719:3730  users[user] */\n      0xffffffffffffffffffffffffffffffffffffffff\n      and\n      0xffffffffffffffffffffffffffffffffffffffff\n      and\n      dup2\n      mstore\n      0x20\n      add\n      swap1\n      dup2\n      mstore\n      0x20\n      add\n      0x00\n      keccak256\n        /* \"Contracts\":3719:3766  users[user].openAccountabilityContractAddresses */\n      0x01\n      add\n        /* \"Contracts\":3769:3770  1 */\n      0x01\n        /* \"Contracts\":3767:3768  i */\n      dup3\n        /* \"Contracts\":3767:3770  i+1 */\n      tag_159\n      swap2\n      swap1\n      tag_160\n      jump\t// in\n    tag_159:\n        /* \"Contracts\":3719:3771  users[user].openAccountabilityContractAddresses[i+1] */\n      dup2\n      sload\n      dup2\n      lt\n      tag_161\n      jumpi\n      tag_162\n      tag_83\n      jump\t// in\n    tag_162:\n    tag_161:\n      swap1\n      0x00\n      mstore\n      keccak256(0x00, 0x20)\n      add\n      0x00\n      swap1\n      sload\n      swap1\n      0x0100\n      exp\n      swap1\n      div\n      0xffffffffffffffffffffffffffffffffffffffff\n      and\n        /* \"Contracts\":3666:3671  users */\n      0x00\n        /* \"Contracts\":3666:3677  users[user] */\n      dup1\n        /* \"Contracts\":3672:3676  user */\n      dup7\n        /* \"Contracts\":3666:3677  users[user] */\n      0xffffffffffffffffffffffffffffffffffffffff\n      and\n      0xffffffffffffffffffffffffffffffffffffffff\n      and\n      dup2\n      mstore\n      0x20\n      add\n      swap1\n      dup2\n      mstore\n      0x20\n      add\n      0x00\n      keccak256\n        /* \"Contracts\":3666:3713  users[user].openAccountabilityContractAddresses */\n      0x01\n      add\n        /* \"Contracts\":3714:3715  i */\n      dup3\n        /* \"Contracts\":3666:3716  users[user].openAccountabilityContractAddresses[i] */\n      dup2\n      sload\n      dup2\n      lt\n      tag_164\n      jumpi\n      tag_165\n      tag_83\n      jump\t// in\n    tag_165:\n    tag_164:\n      swap1\n      0x00\n      mstore\n      keccak256(0x00, 0x20)\n      add\n      0x00\n        /* \"Contracts\":3666:3771  users[user].openAccountabilityContractAddresses[i] = users[user].openAccountabilityContractAddresses[i+1] */\n      0x0100\n      exp\n      dup2\n      sload\n      dup2\n      0xffffffffffffffffffffffffffffffffffffffff\n      mul\n      not\n      and\n      swap1\n      dup4\n      0xffffffffffffffffffffffffffffffffffffffff\n      and\n      mul\n      or\n      swap1\n      sstore\n      pop\n        /* \"Contracts\":3648:3651  i++ */\n      dup1\n      dup1\n      tag_167\n      swap1\n      tag_111\n      jump\t// in\n    tag_167:\n      swap2\n      pop\n      pop\n        /* \"Contracts\":3582:3782  for (uint i = openContractIndex; i<openContractAddressesLength-1; i++){... */\n      jump(tag_155)\n    tag_156:\n      pop\n        /* \"Contracts\":3791:3796  users */\n      0x00\n        /* \"Contracts\":3791:3802  users[user] */\n      dup1\n        /* \"Contracts\":3797:3801  user */\n      dup5\n        /* \"Contracts\":3791:3802  users[user] */\n      0xffffffffffffffffffffffffffffffffffffffff\n      and\n      0xffffffffffffffffffffffffffffffffffffffff\n      and\n      dup2\n      mstore\n      0x20\n      add\n      swap1\n      dup2\n      mstore\n      0x20\n      add\n      0x00\n      keccak256\n        /* \"Contracts\":3791:3840  users[user].closedAccountabilityContractAddresses */\n      0x02\n      add\n        /* \"Contracts\":3846:3851  users */\n      0x00\n        /* \"Contracts\":3846:3857  users[user] */\n      dup1\n        /* \"Contracts\":3852:3856  user */\n      dup6\n        /* \"Contracts\":3846:3857  users[user] */\n      0xffffffffffffffffffffffffffffffffffffffff\n      and\n      0xffffffffffffffffffffffffffffffffffffffff\n      and\n      dup2\n      mstore\n      0x20\n      add\n      swap1\n      dup2\n      mstore\n      0x20\n      add\n      0x00\n      keccak256\n        /* \"Contracts\":3846:3893  users[user].openAccountabilityContractAddresses */\n      0x01\n      add\n        /* \"Contracts\":3949:3950  1 */\n      0x01\n        /* \"Contracts\":3894:3899  users */\n      0x00\n        /* \"Contracts\":3894:3905  users[user] */\n      dup1\n        /* \"Contracts\":3900:3904  user */\n      dup8\n        /* \"Contracts\":3894:3905  users[user] */\n      0xffffffffffffffffffffffffffffffffffffffff\n      and\n      0xffffffffffffffffffffffffffffffffffffffff\n      and\n      dup2\n      mstore\n      0x20\n      add\n      swap1\n      dup2\n      mstore\n      0x20\n      add\n      0x00\n      keccak256\n        /* \"Contracts\":3894:3941  users[user].openAccountabilityContractAddresses */\n      0x01\n      add\n        /* \"Contracts\":3894:3948  users[user].openAccountabilityContractAddresses.length */\n      dup1\n      sload\n      swap1\n      pop\n        /* \"Contracts\":3894:3950  users[user].openAccountabilityContractAddresses.length-1 */\n      tag_168\n      swap2\n      swap1\n      tag_105\n      jump\t// in\n    tag_168:\n        /* \"Contracts\":3846:3951  users[user].openAccountabilityContractAddresses[users[user].openAccountabilityContractAddresses.length-1] */\n      dup2\n      sload\n      dup2\n      lt\n      tag_169\n      jumpi\n      tag_170\n      tag_83\n      jump\t// in\n    tag_170:\n    tag_169:\n      swap1\n      0x00\n      mstore\n      keccak256(0x00, 0x20)\n      add\n      0x00\n      swap1\n      sload\n      swap1\n      0x0100\n      exp\n      swap1\n      div\n      0xffffffffffffffffffffffffffffffffffffffff\n      and\n        /* \"Contracts\":3791:3952  users[user].closedAccountabilityContractAddresses.push(users[user].openAccountabilityContractAddresses[users[user].openAccountabilityContractAddresses.length-1]) */\n      swap1\n      dup1\n      0x01\n      dup2\n      sload\n      add\n      dup1\n      dup3\n      sstore\n      dup1\n      swap2\n      pop\n      pop\n      0x01\n      swap1\n      sub\n      swap1\n      0x00\n      mstore\n      keccak256(0x00, 0x20)\n      add\n      0x00\n      swap1\n      swap2\n      swap1\n      swap2\n      swap1\n      swap2\n      0x0100\n      exp\n      dup2\n      sload\n      dup2\n      0xffffffffffffffffffffffffffffffffffffffff\n      mul\n      not\n      and\n      swap1\n      dup4\n      0xffffffffffffffffffffffffffffffffffffffff\n      and\n      mul\n      or\n      swap1\n      sstore\n      pop\n        /* \"Contracts\":3962:3967  users */\n      0x00\n        /* \"Contracts\":3962:3973  users[user] */\n      dup1\n        /* \"Contracts\":3968:3972  user */\n      dup5\n        /* \"Contracts\":3962:3973  users[user] */\n      0xffffffffffffffffffffffffffffffffffffffff\n      and\n      0xffffffffffffffffffffffffffffffffffffffff\n      and\n      dup2\n      mstore\n      0x20\n      add\n      swap1\n      dup2\n      mstore\n      0x20\n      add\n      0x00\n      keccak256\n        /* \"Contracts\":3962:4009  users[user].openAccountabilityContractAddresses */\n      0x01\n      add\n        /* \"Contracts\":3962:4015  users[user].openAccountabilityContractAddresses.pop() */\n      dup1\n      sload\n      dup1\n      tag_173\n      jumpi\n      tag_174\n      tag_175\n      jump\t// in\n    tag_174:\n    tag_173:\n      0x01\n      swap1\n      sub\n      dup2\n      dup2\n      swap1\n      0x00\n      mstore\n      keccak256(0x00, 0x20)\n      add\n      exp(0x0100, 0x00)\n      dup2\n      sload\n      swap1\n      0xffffffffffffffffffffffffffffffffffffffff\n      mul\n      not\n      and\n      swap1\n      sstore\n      swap1\n      sstore\n        /* \"Contracts\":3370:4022  {... */\n      pop\n        /* \"Contracts\":3274:4022  function moveOpenContractToClosedContractsForUser(address user, uint openContractIndex) private {... */\n      pop\n      pop\n      jump\t// out\n        /* \"Contracts\":4545:5442  function moveOpenContractToClosedContractsForReferee(address referee, address contractAddress) private {... */\n    tag_99:\n        /* \"Contracts\":4658:4676  uint contractIndex */\n      0x00\n        /* \"Contracts\":4691:4697  uint i */\n      dup1\n        /* \"Contracts\":4700:4701  0 */\n      0x00\n        /* \"Contracts\":4691:4701  uint i = 0 */\n      swap1\n      pop\n        /* \"Contracts\":4686:4926  for (uint i = 0; i<referees[referee].openAccountabilityContractAddresses.length-1; i++){... */\n    tag_178:\n        /* \"Contracts\":4766:4767  1 */\n      0x01\n        /* \"Contracts\":4705:4713  referees */\n      0x03\n        /* \"Contracts\":4705:4722  referees[referee] */\n      0x00\n        /* \"Contracts\":4714:4721  referee */\n      dup7\n        /* \"Contracts\":4705:4722  referees[referee] */\n      0xffffffffffffffffffffffffffffffffffffffff\n      and\n      0xffffffffffffffffffffffffffffffffffffffff\n      and\n      dup2\n      mstore\n      0x20\n      add\n      swap1\n      dup2\n      mstore\n      0x20\n      add\n      0x00\n      keccak256\n        /* \"Contracts\":4705:4758  referees[referee].openAccountabilityContractAddresses */\n      0x01\n      add\n        /* \"Contracts\":4705:4765  referees[referee].openAccountabilityContractAddresses.length */\n      dup1\n      sload\n      swap1\n      pop\n        /* \"Contracts\":4705:4767  referees[referee].openAccountabilityContractAddresses.length-1 */\n      tag_181\n      swap2\n      swap1\n      tag_105\n      jump\t// in\n    tag_181:\n        /* \"Contracts\":4703:4704  i */\n      dup2\n        /* \"Contracts\":4703:4767  i<referees[referee].openAccountabilityContractAddresses.length-1 */\n      lt\n        /* \"Contracts\":4686:4926  for (uint i = 0; i<referees[referee].openAccountabilityContractAddresses.length-1; i++){... */\n      iszero\n      tag_179\n      jumpi\n        /* \"Contracts\":4850:4865  contractAddress */\n      dup3\n        /* \"Contracts\":4790:4865  referees[referee].openAccountabilityContractAddresses[i] == contractAddress */\n      0xffffffffffffffffffffffffffffffffffffffff\n      and\n        /* \"Contracts\":4790:4798  referees */\n      0x03\n        /* \"Contracts\":4790:4807  referees[referee] */\n      0x00\n        /* \"Contracts\":4799:4806  referee */\n      dup7\n        /* \"Contracts\":4790:4807  referees[referee] */\n      0xffffffffffffffffffffffffffffffffffffffff\n      and\n      0xffffffffffffffffffffffffffffffffffffffff\n      and\n      dup2\n      mstore\n      0x20\n      add\n      swap1\n      dup2\n      mstore\n      0x20\n      add\n      0x00\n      keccak256\n        /* \"Contracts\":4790:4843  referees[referee].openAccountabilityContractAddresses */\n      0x01\n      add\n        /* \"Contracts\":4844:4845  i */\n      dup3\n        /* \"Contracts\":4790:4846  referees[referee].openAccountabilityContractAddresses[i] */\n      dup2\n      sload\n      dup2\n      lt\n      tag_182\n      jumpi\n      tag_183\n      tag_83\n      jump\t// in\n    tag_183:\n    tag_182:\n      swap1\n      0x00\n      mstore\n      keccak256(0x00, 0x20)\n      add\n      0x00\n      swap1\n      sload\n      swap1\n      0x0100\n      exp\n      swap1\n      div\n      0xffffffffffffffffffffffffffffffffffffffff\n      and\n        /* \"Contracts\":4790:4865  referees[referee].openAccountabilityContractAddresses[i] == contractAddress */\n      0xffffffffffffffffffffffffffffffffffffffff\n      and\n      eq\n        /* \"Contracts\":4787:4916  if(referees[referee].openAccountabilityContractAddresses[i] == contractAddress){... */\n      iszero\n      tag_185\n      jumpi\n        /* \"Contracts\":4900:4901  i */\n      dup1\n        /* \"Contracts\":4884:4901  contractIndex = i */\n      swap2\n      pop\n        /* \"Contracts\":4787:4916  if(referees[referee].openAccountabilityContractAddresses[i] == contractAddress){... */\n    tag_185:\n        /* \"Contracts\":4769:4772  i++ */\n      dup1\n      dup1\n      tag_186\n      swap1\n      tag_111\n      jump\t// in\n    tag_186:\n      swap2\n      pop\n      pop\n        /* \"Contracts\":4686:4926  for (uint i = 0; i<referees[referee].openAccountabilityContractAddresses.length-1; i++){... */\n      jump(tag_178)\n    tag_179:\n      pop\n        /* \"Contracts\":4940:4946  uint i */\n      0x00\n        /* \"Contracts\":4949:4962  contractIndex */\n      dup2\n        /* \"Contracts\":4940:4962  uint i = contractIndex */\n      swap1\n      pop\n        /* \"Contracts\":4935:5176  for (uint i = contractIndex; i<referees[referee].openAccountabilityContractAddresses.length-1; i++){... */\n    tag_187:\n        /* \"Contracts\":5027:5028  1 */\n      0x01\n        /* \"Contracts\":4966:4974  referees */\n      0x03\n        /* \"Contracts\":4966:4983  referees[referee] */\n      0x00\n        /* \"Contracts\":4975:4982  referee */\n      dup7\n        /* \"Contracts\":4966:4983  referees[referee] */\n      0xffffffffffffffffffffffffffffffffffffffff\n      and\n      0xffffffffffffffffffffffffffffffffffffffff\n      and\n      dup2\n      mstore\n      0x20\n      add\n      swap1\n      dup2\n      mstore\n      0x20\n      add\n      0x00\n      keccak256\n        /* \"Contracts\":4966:5019  referees[referee].openAccountabilityContractAddresses */\n      0x01\n      add\n        /* \"Contracts\":4966:5026  referees[referee].openAccountabilityContractAddresses.length */\n      dup1\n      sload\n      swap1\n      pop\n        /* \"Contracts\":4966:5028  referees[referee].openAccountabilityContractAddresses.length-1 */\n      tag_190\n      swap2\n      swap1\n      tag_105\n      jump\t// in\n    tag_190:\n        /* \"Contracts\":4964:4965  i */\n      dup2\n        /* \"Contracts\":4964:5028  i<referees[referee].openAccountabilityContractAddresses.length-1 */\n      lt\n        /* \"Contracts\":4935:5176  for (uint i = contractIndex; i<referees[referee].openAccountabilityContractAddresses.length-1; i++){... */\n      iszero\n      tag_188\n      jumpi\n        /* \"Contracts\":5107:5115  referees */\n      0x03\n        /* \"Contracts\":5107:5124  referees[referee] */\n      0x00\n        /* \"Contracts\":5116:5123  referee */\n      dup6\n        /* \"Contracts\":5107:5124  referees[referee] */\n      0xffffffffffffffffffffffffffffffffffffffff\n      and\n      0xffffffffffffffffffffffffffffffffffffffff\n      and\n      dup2\n      mstore\n      0x20\n      add\n      swap1\n      dup2\n      mstore\n      0x20\n      add\n      0x00\n      keccak256\n        /* \"Contracts\":5107:5160  referees[referee].openAccountabilityContractAddresses */\n      0x01\n      add\n        /* \"Contracts\":5163:5164  1 */\n      0x01\n        /* \"Contracts\":5161:5162  i */\n      dup3\n        /* \"Contracts\":5161:5164  i+1 */\n      tag_191\n      swap2\n      swap1\n      tag_160\n      jump\t// in\n    tag_191:\n        /* \"Contracts\":5107:5165  referees[referee].openAccountabilityContractAddresses[i+1] */\n      dup2\n      sload\n      dup2\n      lt\n      tag_192\n      jumpi\n      tag_193\n      tag_83\n      jump\t// in\n    tag_193:\n    tag_192:\n      swap1\n      0x00\n      mstore\n      keccak256(0x00, 0x20)\n      add\n      0x00\n      swap1\n      sload\n      swap1\n      0x0100\n      exp\n      swap1\n      div\n      0xffffffffffffffffffffffffffffffffffffffff\n      and\n        /* \"Contracts\":5048:5056  referees */\n      0x03\n        /* \"Contracts\":5048:5065  referees[referee] */\n      0x00\n        /* \"Contracts\":5057:5064  referee */\n      dup7\n        /* \"Contracts\":5048:5065  referees[referee] */\n      0xffffffffffffffffffffffffffffffffffffffff\n      and\n      0xffffffffffffffffffffffffffffffffffffffff\n      and\n      dup2\n      mstore\n      0x20\n      add\n      swap1\n      dup2\n      mstore\n      0x20\n      add\n      0x00\n      keccak256\n        /* \"Contracts\":5048:5101  referees[referee].openAccountabilityContractAddresses */\n      0x01\n      add\n        /* \"Contracts\":5102:5103  i */\n      dup3\n        /* \"Contracts\":5048:5104  referees[referee].openAccountabilityContractAddresses[i] */\n      dup2\n      sload\n      dup2\n      lt\n      tag_195\n      jumpi\n      tag_196\n      tag_83\n      jump\t// in\n    tag_196:\n    tag_195:\n      swap1\n      0x00\n      mstore\n      keccak256(0x00, 0x20)\n      add\n      0x00\n        /* \"Contracts\":5048:5165  referees[referee].openAccountabilityContractAddresses[i] = referees[referee].openAccountabilityContractAddresses[i+1] */\n      0x0100\n      exp\n      dup2\n      sload\n      dup2\n      0xffffffffffffffffffffffffffffffffffffffff\n      mul\n      not\n      and\n      swap1\n      dup4\n      0xffffffffffffffffffffffffffffffffffffffff\n      and\n      mul\n      or\n      swap1\n      sstore\n      pop\n        /* \"Contracts\":5030:5033  i++ */\n      dup1\n      dup1\n      tag_198\n      swap1\n      tag_111\n      jump\t// in\n    tag_198:\n      swap2\n      pop\n      pop\n        /* \"Contracts\":4935:5176  for (uint i = contractIndex; i<referees[referee].openAccountabilityContractAddresses.length-1; i++){... */\n      jump(tag_187)\n    tag_188:\n      pop\n        /* \"Contracts\":5185:5193  referees */\n      0x03\n        /* \"Contracts\":5185:5202  referees[referee] */\n      0x00\n        /* \"Contracts\":5194:5201  referee */\n      dup5\n        /* \"Contracts\":5185:5202  referees[referee] */\n      0xffffffffffffffffffffffffffffffffffffffff\n      and\n      0xffffffffffffffffffffffffffffffffffffffff\n      and\n      dup2\n      mstore\n      0x20\n      add\n      swap1\n      dup2\n      mstore\n      0x20\n      add\n      0x00\n      keccak256\n        /* \"Contracts\":5185:5240  referees[referee].closedAccountabilityContractAddresses */\n      0x02\n      add\n        /* \"Contracts\":5246:5254  referees */\n      0x03\n        /* \"Contracts\":5246:5263  referees[referee] */\n      0x00\n        /* \"Contracts\":5255:5262  referee */\n      dup6\n        /* \"Contracts\":5246:5263  referees[referee] */\n      0xffffffffffffffffffffffffffffffffffffffff\n      and\n      0xffffffffffffffffffffffffffffffffffffffff\n      and\n      dup2\n      mstore\n      0x20\n      add\n      swap1\n      dup2\n      mstore\n      0x20\n      add\n      0x00\n      keccak256\n        /* \"Contracts\":5246:5299  referees[referee].openAccountabilityContractAddresses */\n      0x01\n      add\n        /* \"Contracts\":5361:5362  1 */\n      0x01\n        /* \"Contracts\":5300:5308  referees */\n      0x03\n        /* \"Contracts\":5300:5317  referees[referee] */\n      0x00\n        /* \"Contracts\":5309:5316  referee */\n      dup8\n        /* \"Contracts\":5300:5317  referees[referee] */\n      0xffffffffffffffffffffffffffffffffffffffff\n      and\n      0xffffffffffffffffffffffffffffffffffffffff\n      and\n      dup2\n      mstore\n      0x20\n      add\n      swap1\n      dup2\n      mstore\n      0x20\n      add\n      0x00\n      keccak256\n        /* \"Contracts\":5300:5353  referees[referee].openAccountabilityContractAddresses */\n      0x01\n      add\n        /* \"Contracts\":5300:5360  referees[referee].openAccountabilityContractAddresses.length */\n      dup1\n      sload\n      swap1\n      pop\n        /* \"Contracts\":5300:5362  referees[referee].openAccountabilityContractAddresses.length-1 */\n      tag_199\n      swap2\n      swap1\n      tag_105\n      jump\t// in\n    tag_199:\n        /* \"Contracts\":5246:5363  referees[referee].openAccountabilityContractAddresses[referees[referee].openAccountabilityContractAddresses.length-1] */\n      dup2\n      sload\n      dup2\n      lt\n      tag_200\n      jumpi\n      tag_201\n      tag_83\n      jump\t// in\n    tag_201:\n    tag_200:\n      swap1\n      0x00\n      mstore\n      keccak256(0x00, 0x20)\n      add\n      0x00\n      swap1\n      sload\n      swap1\n      0x0100\n      exp\n      swap1\n      div\n      0xffffffffffffffffffffffffffffffffffffffff\n      and\n        /* \"Contracts\":5185:5364  referees[referee].closedAccountabilityContractAddresses.push(referees[referee].openAccountabilityContractAddresses[referees[referee].openAccountabilityContractAddresses.length-1]) */\n      swap1\n      dup1\n      0x01\n      dup2\n      sload\n      add\n      dup1\n      dup3\n      sstore\n      dup1\n      swap2\n      pop\n      pop\n      0x01\n      swap1\n      sub\n      swap1\n      0x00\n      mstore\n      keccak256(0x00, 0x20)\n      add\n      0x00\n      swap1\n      swap2\n      swap1\n      swap2\n      swap1\n      swap2\n      0x0100\n      exp\n      dup2\n      sload\n      dup2\n      0xffffffffffffffffffffffffffffffffffffffff\n      mul\n      not\n      and\n      swap1\n      dup4\n      0xffffffffffffffffffffffffffffffffffffffff\n      and\n      mul\n      or\n      swap1\n      sstore\n      pop\n        /* \"Contracts\":5374:5382  referees */\n      0x03\n        /* \"Contracts\":5374:5391  referees[referee] */\n      0x00\n        /* \"Contracts\":5383:5390  referee */\n      dup5\n        /* \"Contracts\":5374:5391  referees[referee] */\n      0xffffffffffffffffffffffffffffffffffffffff\n      and\n      0xffffffffffffffffffffffffffffffffffffffff\n      and\n      dup2\n      mstore\n      0x20\n      add\n      swap1\n      dup2\n      mstore\n      0x20\n      add\n      0x00\n      keccak256\n        /* \"Contracts\":5374:5429  referees[referee].closedAccountabilityContractAddresses */\n      0x02\n      add\n        /* \"Contracts\":5374:5435  referees[referee].closedAccountabilityContractAddresses.pop() */\n      dup1\n      sload\n      dup1\n      tag_204\n      jumpi\n      tag_205\n      tag_175\n      jump\t// in\n    tag_205:\n    tag_204:\n      0x01\n      swap1\n      sub\n      dup2\n      dup2\n      swap1\n      0x00\n      mstore\n      keccak256(0x00, 0x20)\n      add\n      exp(0x0100, 0x00)\n      dup2\n      sload\n      swap1\n      0xffffffffffffffffffffffffffffffffffffffff\n      mul\n      not\n      and\n      swap1\n      sstore\n      swap1\n      sstore\n        /* \"Contracts\":4648:5442  {... */\n      pop\n        /* \"Contracts\":4545:5442  function moveOpenContractToClosedContractsForReferee(address referee, address contractAddress) private {... */\n      pop\n      pop\n      jump\t// out\n    tag_143:\n      dataSize(sub_0)\n      dup1\n      dataOffset(sub_0)\n      dup4\n      codecopy\n      add\n      swap1\n      jump\t// out\n        /* \"#utility.yul\":7:82   */\n    tag_207:\n        /* \"#utility.yul\":40:46   */\n      0x00\n        /* \"#utility.yul\":73:75   */\n      0x40\n        /* \"#utility.yul\":67:76   */\n      mload\n        /* \"#utility.yul\":57:76   */\n      swap1\n      pop\n        /* \"#utility.yul\":7:82   */\n      swap1\n      jump\t// out\n        /* \"#utility.yul\":88:205   */\n    tag_208:\n        /* \"#utility.yul\":197:198   */\n      0x00\n        /* \"#utility.yul\":194:195   */\n      dup1\n        /* \"#utility.yul\":187:199   */\n      revert\n        /* \"#utility.yul\":211:328   */\n    tag_209:\n        /* \"#utility.yul\":320:321   */\n      0x00\n        /* \"#utility.yul\":317:318   */\n      dup1\n        /* \"#utility.yul\":310:322   */\n      revert\n        /* \"#utility.yul\":334:460   */\n    tag_210:\n        /* \"#utility.yul\":371:378   */\n      0x00\n        /* \"#utility.yul\":411:453   */\n      0xffffffffffffffffffffffffffffffffffffffff\n        /* \"#utility.yul\":404:409   */\n      dup3\n        /* \"#utility.yul\":400:454   */\n      and\n        /* \"#utility.yul\":389:454   */\n      swap1\n      pop\n        /* \"#utility.yul\":334:460   */\n      swap2\n      swap1\n      pop\n      jump\t// out\n        /* \"#utility.yul\":466:562   */\n    tag_211:\n        /* \"#utility.yul\":503:510   */\n      0x00\n        /* \"#utility.yul\":532:556   */\n      tag_261\n        /* \"#utility.yul\":550:555   */\n      dup3\n        /* \"#utility.yul\":532:556   */\n      tag_210\n      jump\t// in\n    tag_261:\n        /* \"#utility.yul\":521:556   */\n      swap1\n      pop\n        /* \"#utility.yul\":466:562   */\n      swap2\n      swap1\n      pop\n      jump\t// out\n        /* \"#utility.yul\":568:690   */\n    tag_212:\n        /* \"#utility.yul\":641:665   */\n      tag_263\n        /* \"#utility.yul\":659:664   */\n      dup2\n        /* \"#utility.yul\":641:665   */\n      tag_211\n      jump\t// in\n    tag_263:\n        /* \"#utility.yul\":634:639   */\n      dup2\n        /* \"#utility.yul\":631:666   */\n      eq\n        /* \"#utility.yul\":621:684   */\n      tag_264\n      jumpi\n        /* \"#utility.yul\":680:681   */\n      0x00\n        /* \"#utility.yul\":677:678   */\n      dup1\n        /* \"#utility.yul\":670:682   */\n      revert\n        /* \"#utility.yul\":621:684   */\n    tag_264:\n        /* \"#utility.yul\":568:690   */\n      pop\n      jump\t// out\n        /* \"#utility.yul\":696:835   */\n    tag_213:\n        /* \"#utility.yul\":742:747   */\n      0x00\n        /* \"#utility.yul\":780:786   */\n      dup2\n        /* \"#utility.yul\":767:787   */\n      calldataload\n        /* \"#utility.yul\":758:787   */\n      swap1\n      pop\n        /* \"#utility.yul\":796:829   */\n      tag_266\n        /* \"#utility.yul\":823:828   */\n      dup2\n        /* \"#utility.yul\":796:829   */\n      tag_212\n      jump\t// in\n    tag_266:\n        /* \"#utility.yul\":696:835   */\n      swap3\n      swap2\n      pop\n      pop\n      jump\t// out\n        /* \"#utility.yul\":841:1170   */\n    tag_18:\n        /* \"#utility.yul\":900:906   */\n      0x00\n        /* \"#utility.yul\":949:951   */\n      0x20\n        /* \"#utility.yul\":937:946   */\n      dup3\n        /* \"#utility.yul\":928:935   */\n      dup5\n        /* \"#utility.yul\":924:947   */\n      sub\n        /* \"#utility.yul\":920:952   */\n      slt\n        /* \"#utility.yul\":917:1036   */\n      iszero\n      tag_268\n      jumpi\n        /* \"#utility.yul\":955:1034   */\n      tag_269\n      tag_208\n      jump\t// in\n    tag_269:\n        /* \"#utility.yul\":917:1036   */\n    tag_268:\n        /* \"#utility.yul\":1075:1076   */\n      0x00\n        /* \"#utility.yul\":1100:1153   */\n      tag_270\n        /* \"#utility.yul\":1145:1152   */\n      dup5\n        /* \"#utility.yul\":1136:1142   */\n      dup3\n        /* \"#utility.yul\":1125:1134   */\n      dup6\n        /* \"#utility.yul\":1121:1143   */\n      add\n        /* \"#utility.yul\":1100:1153   */\n      tag_213\n      jump\t// in\n    tag_270:\n        /* \"#utility.yul\":1090:1153   */\n      swap2\n      pop\n        /* \"#utility.yul\":1046:1163   */\n      pop\n        /* \"#utility.yul\":841:1170   */\n      swap3\n      swap2\n      pop\n      pop\n      jump\t// out\n        /* \"#utility.yul\":1176:1290   */\n    tag_214:\n        /* \"#utility.yul\":1243:1249   */\n      0x00\n        /* \"#utility.yul\":1277:1282   */\n      dup2\n        /* \"#utility.yul\":1271:1283   */\n      mload\n        /* \"#utility.yul\":1261:1283   */\n      swap1\n      pop\n        /* \"#utility.yul\":1176:1290   */\n      swap2\n      swap1\n      pop\n      jump\t// out\n        /* \"#utility.yul\":1296:1480   */\n    tag_215:\n        /* \"#utility.yul\":1395:1406   */\n      0x00\n        /* \"#utility.yul\":1429:1435   */\n      dup3\n        /* \"#utility.yul\":1424:1427   */\n      dup3\n        /* \"#utility.yul\":1417:1436   */\n      mstore\n        /* \"#utility.yul\":1469:1473   */\n      0x20\n        /* \"#utility.yul\":1464:1467   */\n      dup3\n        /* \"#utility.yul\":1460:1474   */\n      add\n        /* \"#utility.yul\":1445:1474   */\n      swap1\n      pop\n        /* \"#utility.yul\":1296:1480   */\n      swap3\n      swap2\n      pop\n      pop\n      jump\t// out\n        /* \"#utility.yul\":1486:1618   */\n    tag_216:\n        /* \"#utility.yul\":1553:1557   */\n      0x00\n        /* \"#utility.yul\":1576:1579   */\n      dup2\n        /* \"#utility.yul\":1568:1579   */\n      swap1\n      pop\n        /* \"#utility.yul\":1606:1610   */\n      0x20\n        /* \"#utility.yul\":1601:1604   */\n      dup3\n        /* \"#utility.yul\":1597:1611   */\n      add\n        /* \"#utility.yul\":1589:1611   */\n      swap1\n      pop\n        /* \"#utility.yul\":1486:1618   */\n      swap2\n      swap1\n      pop\n      jump\t// out\n        /* \"#utility.yul\":1624:1732   */\n    tag_217:\n        /* \"#utility.yul\":1701:1725   */\n      tag_275\n        /* \"#utility.yul\":1719:1724   */\n      dup2\n        /* \"#utility.yul\":1701:1725   */\n      tag_211\n      jump\t// in\n    tag_275:\n        /* \"#utility.yul\":1696:1699   */\n      dup3\n        /* \"#utility.yul\":1689:1726   */\n      mstore\n        /* \"#utility.yul\":1624:1732   */\n      pop\n      pop\n      jump\t// out\n        /* \"#utility.yul\":1738:1917   */\n    tag_218:\n        /* \"#utility.yul\":1807:1817   */\n      0x00\n        /* \"#utility.yul\":1828:1874   */\n      tag_277\n        /* \"#utility.yul\":1870:1873   */\n      dup4\n        /* \"#utility.yul\":1862:1868   */\n      dup4\n        /* \"#utility.yul\":1828:1874   */\n      tag_217\n      jump\t// in\n    tag_277:\n        /* \"#utility.yul\":1906:1910   */\n      0x20\n        /* \"#utility.yul\":1901:1904   */\n      dup4\n        /* \"#utility.yul\":1897:1911   */\n      add\n        /* \"#utility.yul\":1883:1911   */\n      swap1\n      pop\n        /* \"#utility.yul\":1738:1917   */\n      swap3\n      swap2\n      pop\n      pop\n      jump\t// out\n        /* \"#utility.yul\":1923:2036   */\n    tag_219:\n        /* \"#utility.yul\":1993:1997   */\n      0x00\n        /* \"#utility.yul\":2025:2029   */\n      0x20\n        /* \"#utility.yul\":2020:2023   */\n      dup3\n        /* \"#utility.yul\":2016:2030   */\n      add\n        /* \"#utility.yul\":2008:2030   */\n      swap1\n      pop\n        /* \"#utility.yul\":1923:2036   */\n      swap2\n      swap1\n      pop\n      jump\t// out\n        /* \"#utility.yul\":2072:2804   */\n    tag_220:\n        /* \"#utility.yul\":2191:2194   */\n      0x00\n        /* \"#utility.yul\":2220:2274   */\n      tag_280\n        /* \"#utility.yul\":2268:2273   */\n      dup3\n        /* \"#utility.yul\":2220:2274   */\n      tag_214\n      jump\t// in\n    tag_280:\n        /* \"#utility.yul\":2290:2376   */\n      tag_281\n        /* \"#utility.yul\":2369:2375   */\n      dup2\n        /* \"#utility.yul\":2364:2367   */\n      dup6\n        /* \"#utility.yul\":2290:2376   */\n      tag_215\n      jump\t// in\n    tag_281:\n        /* \"#utility.yul\":2283:2376   */\n      swap4\n      pop\n        /* \"#utility.yul\":2400:2456   */\n      tag_282\n        /* \"#utility.yul\":2450:2455   */\n      dup4\n        /* \"#utility.yul\":2400:2456   */\n      tag_216\n      jump\t// in\n    tag_282:\n        /* \"#utility.yul\":2479:2486   */\n      dup1\n        /* \"#utility.yul\":2510:2511   */\n      0x00\n        /* \"#utility.yul\":2495:2779   */\n    tag_283:\n        /* \"#utility.yul\":2520:2526   */\n      dup4\n        /* \"#utility.yul\":2517:2518   */\n      dup2\n        /* \"#utility.yul\":2514:2527   */\n      lt\n        /* \"#utility.yul\":2495:2779   */\n      iszero\n      tag_285\n      jumpi\n        /* \"#utility.yul\":2596:2602   */\n      dup2\n        /* \"#utility.yul\":2590:2603   */\n      mload\n        /* \"#utility.yul\":2623:2686   */\n      tag_286\n        /* \"#utility.yul\":2682:2685   */\n      dup9\n        /* \"#utility.yul\":2667:2680   */\n      dup3\n        /* \"#utility.yul\":2623:2686   */\n      tag_218\n      jump\t// in\n    tag_286:\n        /* \"#utility.yul\":2616:2686   */\n      swap8\n      pop\n        /* \"#utility.yul\":2709:2769   */\n      tag_287\n        /* \"#utility.yul\":2762:2768   */\n      dup4\n        /* \"#utility.yul\":2709:2769   */\n      tag_219\n      jump\t// in\n    tag_287:\n        /* \"#utility.yul\":2699:2769   */\n      swap3\n      pop\n        /* \"#utility.yul\":2555:2779   */\n      pop\n        /* \"#utility.yul\":2542:2543   */\n      0x01\n        /* \"#utility.yul\":2539:2540   */\n      dup2\n        /* \"#utility.yul\":2535:2544   */\n      add\n        /* \"#utility.yul\":2530:2544   */\n      swap1\n      pop\n        /* \"#utility.yul\":2495:2779   */\n      jump(tag_283)\n    tag_285:\n        /* \"#utility.yul\":2499:2513   */\n      pop\n        /* \"#utility.yul\":2795:2798   */\n      dup6\n        /* \"#utility.yul\":2788:2798   */\n      swap4\n      pop\n        /* \"#utility.yul\":2196:2804   */\n      pop\n      pop\n      pop\n        /* \"#utility.yul\":2072:2804   */\n      swap3\n      swap2\n      pop\n      pop\n      jump\t// out\n        /* \"#utility.yul\":2810:3183   */\n    tag_21:\n        /* \"#utility.yul\":2953:2957   */\n      0x00\n        /* \"#utility.yul\":2991:2993   */\n      0x20\n        /* \"#utility.yul\":2980:2989   */\n      dup3\n        /* \"#utility.yul\":2976:2994   */\n      add\n        /* \"#utility.yul\":2968:2994   */\n      swap1\n      pop\n        /* \"#utility.yul\":3040:3049   */\n      dup2\n        /* \"#utility.yul\":3034:3038   */\n      dup2\n        /* \"#utility.yul\":3030:3050   */\n      sub\n        /* \"#utility.yul\":3026:3027   */\n      0x00\n        /* \"#utility.yul\":3015:3024   */\n      dup4\n        /* \"#utility.yul\":3011:3028   */\n      add\n        /* \"#utility.yul\":3004:3051   */\n      mstore\n        /* \"#utility.yul\":3068:3176   */\n      tag_289\n        /* \"#utility.yul\":3171:3175   */\n      dup2\n        /* \"#utility.yul\":3162:3168   */\n      dup5\n        /* \"#utility.yul\":3068:3176   */\n      tag_220\n      jump\t// in\n    tag_289:\n        /* \"#utility.yul\":3060:3176   */\n      swap1\n      pop\n        /* \"#utility.yul\":2810:3183   */\n      swap3\n      swap2\n      pop\n      pop\n      jump\t// out\n        /* \"#utility.yul\":3189:3266   */\n    tag_221:\n        /* \"#utility.yul\":3226:3233   */\n      0x00\n        /* \"#utility.yul\":3255:3260   */\n      dup2\n        /* \"#utility.yul\":3244:3260   */\n      swap1\n      pop\n        /* \"#utility.yul\":3189:3266   */\n      swap2\n      swap1\n      pop\n      jump\t// out\n        /* \"#utility.yul\":3272:3394   */\n    tag_222:\n        /* \"#utility.yul\":3345:3369   */\n      tag_292\n        /* \"#utility.yul\":3363:3368   */\n      dup2\n        /* \"#utility.yul\":3345:3369   */\n      tag_221\n      jump\t// in\n    tag_292:\n        /* \"#utility.yul\":3338:3343   */\n      dup2\n        /* \"#utility.yul\":3335:3370   */\n      eq\n        /* \"#utility.yul\":3325:3388   */\n      tag_293\n      jumpi\n        /* \"#utility.yul\":3384:3385   */\n      0x00\n        /* \"#utility.yul\":3381:3382   */\n      dup1\n        /* \"#utility.yul\":3374:3386   */\n      revert\n        /* \"#utility.yul\":3325:3388   */\n    tag_293:\n        /* \"#utility.yul\":3272:3394   */\n      pop\n      jump\t// out\n        /* \"#utility.yul\":3400:3539   */\n    tag_223:\n        /* \"#utility.yul\":3446:3451   */\n      0x00\n        /* \"#utility.yul\":3484:3490   */\n      dup2\n        /* \"#utility.yul\":3471:3491   */\n      calldataload\n        /* \"#utility.yul\":3462:3491   */\n      swap1\n      pop\n        /* \"#utility.yul\":3500:3533   */\n      tag_295\n        /* \"#utility.yul\":3527:3532   */\n      dup2\n        /* \"#utility.yul\":3500:3533   */\n      tag_222\n      jump\t// in\n    tag_295:\n        /* \"#utility.yul\":3400:3539   */\n      swap3\n      swap2\n      pop\n      pop\n      jump\t// out\n        /* \"#utility.yul\":3545:4019   */\n    tag_25:\n        /* \"#utility.yul\":3613:3619   */\n      0x00\n        /* \"#utility.yul\":3621:3627   */\n      dup1\n        /* \"#utility.yul\":3670:3672   */\n      0x40\n        /* \"#utility.yul\":3658:3667   */\n      dup4\n        /* \"#utility.yul\":3649:3656   */\n      dup6\n        /* \"#utility.yul\":3645:3668   */\n      sub\n        /* \"#utility.yul\":3641:3673   */\n      slt\n        /* \"#utility.yul\":3638:3757   */\n      iszero\n      tag_297\n      jumpi\n        /* \"#utility.yul\":3676:3755   */\n      tag_298\n      tag_208\n      jump\t// in\n    tag_298:\n        /* \"#utility.yul\":3638:3757   */\n    tag_297:\n        /* \"#utility.yul\":3796:3797   */\n      0x00\n        /* \"#utility.yul\":3821:3874   */\n      tag_299\n        /* \"#utility.yul\":3866:3873   */\n      dup6\n        /* \"#utility.yul\":3857:3863   */\n      dup3\n        /* \"#utility.yul\":3846:3855   */\n      dup7\n        /* \"#utility.yul\":3842:3864   */\n      add\n        /* \"#utility.yul\":3821:3874   */\n      tag_213\n      jump\t// in\n    tag_299:\n        /* \"#utility.yul\":3811:3874   */\n      swap3\n      pop\n        /* \"#utility.yul\":3767:3884   */\n      pop\n        /* \"#utility.yul\":3923:3925   */\n      0x20\n        /* \"#utility.yul\":3949:4002   */\n      tag_300\n        /* \"#utility.yul\":3994:4001   */\n      dup6\n        /* \"#utility.yul\":3985:3991   */\n      dup3\n        /* \"#utility.yul\":3974:3983   */\n      dup7\n        /* \"#utility.yul\":3970:3992   */\n      add\n        /* \"#utility.yul\":3949:4002   */\n      tag_223\n      jump\t// in\n    tag_300:\n        /* \"#utility.yul\":3939:4002   */\n      swap2\n      pop\n        /* \"#utility.yul\":3894:4012   */\n      pop\n        /* \"#utility.yul\":3545:4019   */\n      swap3\n      pop\n      swap3\n      swap1\n      pop\n      jump\t// out\n        /* \"#utility.yul\":4025:4499   */\n    tag_30:\n        /* \"#utility.yul\":4093:4099   */\n      0x00\n        /* \"#utility.yul\":4101:4107   */\n      dup1\n        /* \"#utility.yul\":4150:4152   */\n      0x40\n        /* \"#utility.yul\":4138:4147   */\n      dup4\n        /* \"#utility.yul\":4129:4136   */\n      dup6\n        /* \"#utility.yul\":4125:4148   */\n      sub\n        /* \"#utility.yul\":4121:4153   */\n      slt\n        /* \"#utility.yul\":4118:4237   */\n      iszero\n      tag_302\n      jumpi\n        /* \"#utility.yul\":4156:4235   */\n      tag_303\n      tag_208\n      jump\t// in\n    tag_303:\n        /* \"#utility.yul\":4118:4237   */\n    tag_302:\n        /* \"#utility.yul\":4276:4277   */\n      0x00\n        /* \"#utility.yul\":4301:4354   */\n      tag_304\n        /* \"#utility.yul\":4346:4353   */\n      dup6\n        /* \"#utility.yul\":4337:4343   */\n      dup3\n        /* \"#utility.yul\":4326:4335   */\n      dup7\n        /* \"#utility.yul\":4322:4344   */\n      add\n        /* \"#utility.yul\":4301:4354   */\n      tag_213\n      jump\t// in\n    tag_304:\n        /* \"#utility.yul\":4291:4354   */\n      swap3\n      pop\n        /* \"#utility.yul\":4247:4364   */\n      pop\n        /* \"#utility.yul\":4403:4405   */\n      0x20\n        /* \"#utility.yul\":4429:4482   */\n      tag_305\n        /* \"#utility.yul\":4474:4481   */\n      dup6\n        /* \"#utility.yul\":4465:4471   */\n      dup3\n        /* \"#utility.yul\":4454:4463   */\n      dup7\n        /* \"#utility.yul\":4450:4472   */\n      add\n        /* \"#utility.yul\":4429:4482   */\n      tag_213\n      jump\t// in\n    tag_305:\n        /* \"#utility.yul\":4419:4482   */\n      swap2\n      pop\n        /* \"#utility.yul\":4374:4492   */\n      pop\n        /* \"#utility.yul\":4025:4499   */\n      swap3\n      pop\n      swap3\n      swap1\n      pop\n      jump\t// out\n        /* \"#utility.yul\":4505:4623   */\n    tag_224:\n        /* \"#utility.yul\":4592:4616   */\n      tag_307\n        /* \"#utility.yul\":4610:4615   */\n      dup2\n        /* \"#utility.yul\":4592:4616   */\n      tag_221\n      jump\t// in\n    tag_307:\n        /* \"#utility.yul\":4587:4590   */\n      dup3\n        /* \"#utility.yul\":4580:4617   */\n      mstore\n        /* \"#utility.yul\":4505:4623   */\n      pop\n      pop\n      jump\t// out\n        /* \"#utility.yul\":4629:4747   */\n    tag_225:\n        /* \"#utility.yul\":4716:4740   */\n      tag_309\n        /* \"#utility.yul\":4734:4739   */\n      dup2\n        /* \"#utility.yul\":4716:4740   */\n      tag_211\n      jump\t// in\n    tag_309:\n        /* \"#utility.yul\":4711:4714   */\n      dup3\n        /* \"#utility.yul\":4704:4741   */\n      mstore\n        /* \"#utility.yul\":4629:4747   */\n      pop\n      pop\n      jump\t// out\n        /* \"#utility.yul\":4753:5346   */\n    tag_33:\n        /* \"#utility.yul\":4952:4956   */\n      0x00\n        /* \"#utility.yul\":4990:4992   */\n      0x60\n        /* \"#utility.yul\":4979:4988   */\n      dup3\n        /* \"#utility.yul\":4975:4993   */\n      add\n        /* \"#utility.yul\":4967:4993   */\n      swap1\n      pop\n        /* \"#utility.yul\":5003:5074   */\n      tag_311\n        /* \"#utility.yul\":5071:5072   */\n      0x00\n        /* \"#utility.yul\":5060:5069   */\n      dup4\n        /* \"#utility.yul\":5056:5073   */\n      add\n        /* \"#utility.yul\":5047:5053   */\n      dup7\n        /* \"#utility.yul\":5003:5074   */\n      tag_224\n      jump\t// in\n    tag_311:\n        /* \"#utility.yul\":5121:5130   */\n      dup2\n        /* \"#utility.yul\":5115:5119   */\n      dup2\n        /* \"#utility.yul\":5111:5131   */\n      sub\n        /* \"#utility.yul\":5106:5108   */\n      0x20\n        /* \"#utility.yul\":5095:5104   */\n      dup4\n        /* \"#utility.yul\":5091:5109   */\n      add\n        /* \"#utility.yul\":5084:5132   */\n      mstore\n        /* \"#utility.yul\":5149:5257   */\n      tag_312\n        /* \"#utility.yul\":5252:5256   */\n      dup2\n        /* \"#utility.yul\":5243:5249   */\n      dup6\n        /* \"#utility.yul\":5149:5257   */\n      tag_220\n      jump\t// in\n    tag_312:\n        /* \"#utility.yul\":5141:5257   */\n      swap1\n      pop\n        /* \"#utility.yul\":5267:5339   */\n      tag_313\n        /* \"#utility.yul\":5335:5337   */\n      0x40\n        /* \"#utility.yul\":5324:5333   */\n      dup4\n        /* \"#utility.yul\":5320:5338   */\n      add\n        /* \"#utility.yul\":5311:5317   */\n      dup5\n        /* \"#utility.yul\":5267:5339   */\n      tag_225\n      jump\t// in\n    tag_313:\n        /* \"#utility.yul\":4753:5346   */\n      swap5\n      swap4\n      pop\n      pop\n      pop\n      pop\n      jump\t// out\n        /* \"#utility.yul\":5352:5574   */\n    tag_44:\n        /* \"#utility.yul\":5445:5449   */\n      0x00\n        /* \"#utility.yul\":5483:5485   */\n      0x20\n        /* \"#utility.yul\":5472:5481   */\n      dup3\n        /* \"#utility.yul\":5468:5486   */\n      add\n        /* \"#utility.yul\":5460:5486   */\n      swap1\n      pop\n        /* \"#utility.yul\":5496:5567   */\n      tag_315\n        /* \"#utility.yul\":5564:5565   */\n      0x00\n        /* \"#utility.yul\":5553:5562   */\n      dup4\n        /* \"#utility.yul\":5549:5566   */\n      add\n        /* \"#utility.yul\":5540:5546   */\n      dup5\n        /* \"#utility.yul\":5496:5567   */\n      tag_224\n      jump\t// in\n    tag_315:\n        /* \"#utility.yul\":5352:5574   */\n      swap3\n      swap2\n      pop\n      pop\n      jump\t// out\n        /* \"#utility.yul\":5580:5697   */\n    tag_226:\n        /* \"#utility.yul\":5689:5690   */\n      0x00\n        /* \"#utility.yul\":5686:5687   */\n      dup1\n        /* \"#utility.yul\":5679:5691   */\n      revert\n        /* \"#utility.yul\":5703:5820   */\n    tag_227:\n        /* \"#utility.yul\":5812:5813   */\n      0x00\n        /* \"#utility.yul\":5809:5810   */\n      dup1\n        /* \"#utility.yul\":5802:5814   */\n      revert\n        /* \"#utility.yul\":5826:5928   */\n    tag_228:\n        /* \"#utility.yul\":5867:5873   */\n      0x00\n        /* \"#utility.yul\":5918:5920   */\n      0x1f\n        /* \"#utility.yul\":5914:5921   */\n      not\n        /* \"#utility.yul\":5909:5911   */\n      0x1f\n        /* \"#utility.yul\":5902:5907   */\n      dup4\n        /* \"#utility.yul\":5898:5912   */\n      add\n        /* \"#utility.yul\":5894:5922   */\n      and\n        /* \"#utility.yul\":5884:5922   */\n      swap1\n      pop\n        /* \"#utility.yul\":5826:5928   */\n      swap2\n      swap1\n      pop\n      jump\t// out\n        /* \"#utility.yul\":5934:6114   */\n    tag_229:\n        /* \"#utility.yul\":5982:6059   */\n      0x4e487b7100000000000000000000000000000000000000000000000000000000\n        /* \"#utility.yul\":5979:5980   */\n      0x00\n        /* \"#utility.yul\":5972:6060   */\n      mstore\n        /* \"#utility.yul\":6079:6083   */\n      0x41\n        /* \"#utility.yul\":6076:6077   */\n      0x04\n        /* \"#utility.yul\":6069:6084   */\n      mstore\n        /* \"#utility.yul\":6103:6107   */\n      0x24\n        /* \"#utility.yul\":6100:6101   */\n      0x00\n        /* \"#utility.yul\":6093:6108   */\n      revert\n        /* \"#utility.yul\":6120:6401   */\n    tag_230:\n        /* \"#utility.yul\":6203:6230   */\n      tag_321\n        /* \"#utility.yul\":6225:6229   */\n      dup3\n        /* \"#utility.yul\":6203:6230   */\n      tag_228\n      jump\t// in\n    tag_321:\n        /* \"#utility.yul\":6195:6201   */\n      dup2\n        /* \"#utility.yul\":6191:6231   */\n      add\n        /* \"#utility.yul\":6333:6339   */\n      dup2\n        /* \"#utility.yul\":6321:6331   */\n      dup2\n        /* \"#utility.yul\":6318:6340   */\n      lt\n        /* \"#utility.yul\":6297:6315   */\n      0xffffffffffffffff\n        /* \"#utility.yul\":6285:6295   */\n      dup3\n        /* \"#utility.yul\":6282:6316   */\n      gt\n        /* \"#utility.yul\":6279:6341   */\n      or\n        /* \"#utility.yul\":6276:6364   */\n      iszero\n      tag_322\n      jumpi\n        /* \"#utility.yul\":6344:6362   */\n      tag_323\n      tag_229\n      jump\t// in\n    tag_323:\n        /* \"#utility.yul\":6276:6364   */\n    tag_322:\n        /* \"#utility.yul\":6384:6394   */\n      dup1\n        /* \"#utility.yul\":6380:6382   */\n      0x40\n        /* \"#utility.yul\":6373:6395   */\n      mstore\n        /* \"#utility.yul\":6163:6401   */\n      pop\n        /* \"#utility.yul\":6120:6401   */\n      pop\n      pop\n      jump\t// out\n        /* \"#utility.yul\":6407:6536   */\n    tag_231:\n        /* \"#utility.yul\":6441:6447   */\n      0x00\n        /* \"#utility.yul\":6468:6488   */\n      tag_325\n      tag_207\n      jump\t// in\n    tag_325:\n        /* \"#utility.yul\":6458:6488   */\n      swap1\n      pop\n        /* \"#utility.yul\":6497:6530   */\n      tag_326\n        /* \"#utility.yul\":6525:6529   */\n      dup3\n        /* \"#utility.yul\":6517:6523   */\n      dup3\n        /* \"#utility.yul\":6497:6530   */\n      tag_230\n      jump\t// in\n    tag_326:\n        /* \"#utility.yul\":6407:6536   */\n      swap2\n      swap1\n      pop\n      jump\t// out\n        /* \"#utility.yul\":6542:6850   */\n    tag_232:\n        /* \"#utility.yul\":6604:6608   */\n      0x00\n        /* \"#utility.yul\":6694:6712   */\n      0xffffffffffffffff\n        /* \"#utility.yul\":6686:6692   */\n      dup3\n        /* \"#utility.yul\":6683:6713   */\n      gt\n        /* \"#utility.yul\":6680:6736   */\n      iszero\n      tag_328\n      jumpi\n        /* \"#utility.yul\":6716:6734   */\n      tag_329\n      tag_229\n      jump\t// in\n    tag_329:\n        /* \"#utility.yul\":6680:6736   */\n    tag_328:\n        /* \"#utility.yul\":6754:6783   */\n      tag_330\n        /* \"#utility.yul\":6776:6782   */\n      dup3\n        /* \"#utility.yul\":6754:6783   */\n      tag_228\n      jump\t// in\n    tag_330:\n        /* \"#utility.yul\":6746:6783   */\n      swap1\n      pop\n        /* \"#utility.yul\":6838:6842   */\n      0x20\n        /* \"#utility.yul\":6832:6836   */\n      dup2\n        /* \"#utility.yul\":6828:6843   */\n      add\n        /* \"#utility.yul\":6820:6843   */\n      swap1\n      pop\n        /* \"#utility.yul\":6542:6850   */\n      swap2\n      swap1\n      pop\n      jump\t// out\n        /* \"#utility.yul\":6856:7010   */\n    tag_233:\n        /* \"#utility.yul\":6940:6946   */\n      dup3\n        /* \"#utility.yul\":6935:6938   */\n      dup2\n        /* \"#utility.yul\":6930:6933   */\n      dup4\n        /* \"#utility.yul\":6917:6947   */\n      calldatacopy\n        /* \"#utility.yul\":7002:7003   */\n      0x00\n        /* \"#utility.yul\":6993:6999   */\n      dup4\n        /* \"#utility.yul\":6988:6991   */\n      dup4\n        /* \"#utility.yul\":6984:7000   */\n      add\n        /* \"#utility.yul\":6977:7004   */\n      mstore\n        /* \"#utility.yul\":6856:7010   */\n      pop\n      pop\n      pop\n      jump\t// out\n        /* \"#utility.yul\":7016:7428   */\n    tag_234:\n        /* \"#utility.yul\":7094:7099   */\n      0x00\n        /* \"#utility.yul\":7119:7185   */\n      tag_333\n        /* \"#utility.yul\":7135:7184   */\n      tag_334\n        /* \"#utility.yul\":7177:7183   */\n      dup5\n        /* \"#utility.yul\":7135:7184   */\n      tag_232\n      jump\t// in\n    tag_334:\n        /* \"#utility.yul\":7119:7185   */\n      tag_231\n      jump\t// in\n    tag_333:\n        /* \"#utility.yul\":7110:7185   */\n      swap1\n      pop\n        /* \"#utility.yul\":7208:7214   */\n      dup3\n        /* \"#utility.yul\":7201:7206   */\n      dup2\n        /* \"#utility.yul\":7194:7215   */\n      mstore\n        /* \"#utility.yul\":7246:7250   */\n      0x20\n        /* \"#utility.yul\":7239:7244   */\n      dup2\n        /* \"#utility.yul\":7235:7251   */\n      add\n        /* \"#utility.yul\":7284:7287   */\n      dup5\n        /* \"#utility.yul\":7275:7281   */\n      dup5\n        /* \"#utility.yul\":7270:7273   */\n      dup5\n        /* \"#utility.yul\":7266:7282   */\n      add\n        /* \"#utility.yul\":7263:7288   */\n      gt\n        /* \"#utility.yul\":7260:7372   */\n      iszero\n      tag_335\n      jumpi\n        /* \"#utility.yul\":7291:7370   */\n      tag_336\n      tag_227\n      jump\t// in\n    tag_336:\n        /* \"#utility.yul\":7260:7372   */\n    tag_335:\n        /* \"#utility.yul\":7381:7422   */\n      tag_337\n        /* \"#utility.yul\":7415:7421   */\n      dup5\n        /* \"#utility.yul\":7410:7413   */\n      dup3\n        /* \"#utility.yul\":7405:7408   */\n      dup6\n        /* \"#utility.yul\":7381:7422   */\n      tag_233\n      jump\t// in\n    tag_337:\n        /* \"#utility.yul\":7100:7428   */\n      pop\n        /* \"#utility.yul\":7016:7428   */\n      swap4\n      swap3\n      pop\n      pop\n      pop\n      jump\t// out\n        /* \"#utility.yul\":7448:7788   */\n    tag_235:\n        /* \"#utility.yul\":7504:7509   */\n      0x00\n        /* \"#utility.yul\":7553:7556   */\n      dup3\n        /* \"#utility.yul\":7546:7550   */\n      0x1f\n        /* \"#utility.yul\":7538:7544   */\n      dup4\n        /* \"#utility.yul\":7534:7551   */\n      add\n        /* \"#utility.yul\":7530:7557   */\n      slt\n        /* \"#utility.yul\":7520:7642   */\n      tag_339\n      jumpi\n        /* \"#utility.yul\":7561:7640   */\n      tag_340\n      tag_226\n      jump\t// in\n    tag_340:\n        /* \"#utility.yul\":7520:7642   */\n    tag_339:\n        /* \"#utility.yul\":7678:7684   */\n      dup2\n        /* \"#utility.yul\":7665:7685   */\n      calldataload\n        /* \"#utility.yul\":7703:7782   */\n      tag_341\n        /* \"#utility.yul\":7778:7781   */\n      dup5\n        /* \"#utility.yul\":7770:7776   */\n      dup3\n        /* \"#utility.yul\":7763:7767   */\n      0x20\n        /* \"#utility.yul\":7755:7761   */\n      dup7\n        /* \"#utility.yul\":7751:7768   */\n      add\n        /* \"#utility.yul\":7703:7782   */\n      tag_234\n      jump\t// in\n    tag_341:\n        /* \"#utility.yul\":7694:7782   */\n      swap2\n      pop\n        /* \"#utility.yul\":7510:7788   */\n      pop\n        /* \"#utility.yul\":7448:7788   */\n      swap3\n      swap2\n      pop\n      pop\n      jump\t// out\n        /* \"#utility.yul\":7794:7898   */\n    tag_236:\n        /* \"#utility.yul\":7839:7846   */\n      0x00\n        /* \"#utility.yul\":7868:7892   */\n      tag_343\n        /* \"#utility.yul\":7886:7891   */\n      dup3\n        /* \"#utility.yul\":7868:7892   */\n      tag_210\n      jump\t// in\n    tag_343:\n        /* \"#utility.yul\":7857:7892   */\n      swap1\n      pop\n        /* \"#utility.yul\":7794:7898   */\n      swap2\n      swap1\n      pop\n      jump\t// out\n        /* \"#utility.yul\":7904:8042   */\n    tag_237:\n        /* \"#utility.yul\":7985:8017   */\n      tag_345\n        /* \"#utility.yul\":8011:8016   */\n      dup2\n        /* \"#utility.yul\":7985:8017   */\n      tag_236\n      jump\t// in\n    tag_345:\n        /* \"#utility.yul\":7978:7983   */\n      dup2\n        /* \"#utility.yul\":7975:8018   */\n      eq\n        /* \"#utility.yul\":7965:8036   */\n      tag_346\n      jumpi\n        /* \"#utility.yul\":8032:8033   */\n      0x00\n        /* \"#utility.yul\":8029:8030   */\n      dup1\n        /* \"#utility.yul\":8022:8034   */\n      revert\n        /* \"#utility.yul\":7965:8036   */\n    tag_346:\n        /* \"#utility.yul\":7904:8042   */\n      pop\n      jump\t// out\n        /* \"#utility.yul\":8048:8203   */\n    tag_238:\n        /* \"#utility.yul\":8102:8107   */\n      0x00\n        /* \"#utility.yul\":8140:8146   */\n      dup2\n        /* \"#utility.yul\":8127:8147   */\n      calldataload\n        /* \"#utility.yul\":8118:8147   */\n      swap1\n      pop\n        /* \"#utility.yul\":8156:8197   */\n      tag_348\n        /* \"#utility.yul\":8191:8196   */\n      dup2\n        /* \"#utility.yul\":8156:8197   */\n      tag_237\n      jump\t// in\n    tag_348:\n        /* \"#utility.yul\":8048:8203   */\n      swap3\n      swap2\n      pop\n      pop\n      jump\t// out\n        /* \"#utility.yul\":8209:9350   */\n    tag_75:\n        /* \"#utility.yul\":8323:8329   */\n      0x00\n        /* \"#utility.yul\":8331:8337   */\n      dup1\n        /* \"#utility.yul\":8339:8345   */\n      0x00\n        /* \"#utility.yul\":8347:8353   */\n      dup1\n        /* \"#utility.yul\":8396:8399   */\n      0x80\n        /* \"#utility.yul\":8384:8393   */\n      dup6\n        /* \"#utility.yul\":8375:8382   */\n      dup8\n        /* \"#utility.yul\":8371:8394   */\n      sub\n        /* \"#utility.yul\":8367:8400   */\n      slt\n        /* \"#utility.yul\":8364:8484   */\n      iszero\n      tag_350\n      jumpi\n        /* \"#utility.yul\":8403:8482   */\n      tag_351\n      tag_208\n      jump\t// in\n    tag_351:\n        /* \"#utility.yul\":8364:8484   */\n    tag_350:\n        /* \"#utility.yul\":8523:8524   */\n      0x00\n        /* \"#utility.yul\":8548:8601   */\n      tag_352\n        /* \"#utility.yul\":8593:8600   */\n      dup8\n        /* \"#utility.yul\":8584:8590   */\n      dup3\n        /* \"#utility.yul\":8573:8582   */\n      dup9\n        /* \"#utility.yul\":8569:8591   */\n      add\n        /* \"#utility.yul\":8548:8601   */\n      tag_213\n      jump\t// in\n    tag_352:\n        /* \"#utility.yul\":8538:8601   */\n      swap5\n      pop\n        /* \"#utility.yul\":8494:8611   */\n      pop\n        /* \"#utility.yul\":8678:8680   */\n      0x20\n        /* \"#utility.yul\":8667:8676   */\n      dup6\n        /* \"#utility.yul\":8663:8681   */\n      add\n        /* \"#utility.yul\":8650:8682   */\n      calldataload\n        /* \"#utility.yul\":8709:8727   */\n      0xffffffffffffffff\n        /* \"#utility.yul\":8701:8707   */\n      dup2\n        /* \"#utility.yul\":8698:8728   */\n      gt\n        /* \"#utility.yul\":8695:8812   */\n      iszero\n      tag_353\n      jumpi\n        /* \"#utility.yul\":8731:8810   */\n      tag_354\n      tag_209\n      jump\t// in\n    tag_354:\n        /* \"#utility.yul\":8695:8812   */\n    tag_353:\n        /* \"#utility.yul\":8836:8899   */\n      tag_355\n        /* \"#utility.yul\":8891:8898   */\n      dup8\n        /* \"#utility.yul\":8882:8888   */\n      dup3\n        /* \"#utility.yul\":8871:8880   */\n      dup9\n        /* \"#utility.yul\":8867:8889   */\n      add\n        /* \"#utility.yul\":8836:8899   */\n      tag_235\n      jump\t// in\n    tag_355:\n        /* \"#utility.yul\":8826:8899   */\n      swap4\n      pop\n        /* \"#utility.yul\":8621:8909   */\n      pop\n        /* \"#utility.yul\":8976:8978   */\n      0x40\n        /* \"#utility.yul\":8965:8974   */\n      dup6\n        /* \"#utility.yul\":8961:8979   */\n      add\n        /* \"#utility.yul\":8948:8980   */\n      calldataload\n        /* \"#utility.yul\":9007:9025   */\n      0xffffffffffffffff\n        /* \"#utility.yul\":8999:9005   */\n      dup2\n        /* \"#utility.yul\":8996:9026   */\n      gt\n        /* \"#utility.yul\":8993:9110   */\n      iszero\n      tag_356\n      jumpi\n        /* \"#utility.yul\":9029:9108   */\n      tag_357\n      tag_209\n      jump\t// in\n    tag_357:\n        /* \"#utility.yul\":8993:9110   */\n    tag_356:\n        /* \"#utility.yul\":9134:9197   */\n      tag_358\n        /* \"#utility.yul\":9189:9196   */\n      dup8\n        /* \"#utility.yul\":9180:9186   */\n      dup3\n        /* \"#utility.yul\":9169:9178   */\n      dup9\n        /* \"#utility.yul\":9165:9187   */\n      add\n        /* \"#utility.yul\":9134:9197   */\n      tag_235\n      jump\t// in\n    tag_358:\n        /* \"#utility.yul\":9124:9197   */\n      swap3\n      pop\n        /* \"#utility.yul\":8919:9207   */\n      pop\n        /* \"#utility.yul\":9246:9248   */\n      0x60\n        /* \"#utility.yul\":9272:9333   */\n      tag_359\n        /* \"#utility.yul\":9325:9332   */\n      dup8\n        /* \"#utility.yul\":9316:9322   */\n      dup3\n        /* \"#utility.yul\":9305:9314   */\n      dup9\n        /* \"#utility.yul\":9301:9323   */\n      add\n        /* \"#utility.yul\":9272:9333   */\n      tag_238\n      jump\t// in\n    tag_359:\n        /* \"#utility.yul\":9262:9333   */\n      swap2\n      pop\n        /* \"#utility.yul\":9217:9343   */\n      pop\n        /* \"#utility.yul\":8209:9350   */\n      swap3\n      swap6\n      swap2\n      swap5\n      pop\n      swap3\n      pop\n      jump\t// out\n        /* \"#utility.yul\":9356:9536   */\n    tag_83:\n        /* \"#utility.yul\":9404:9481   */\n      0x4e487b7100000000000000000000000000000000000000000000000000000000\n        /* \"#utility.yul\":9401:9402   */\n      0x00\n        /* \"#utility.yul\":9394:9482   */\n      mstore\n        /* \"#utility.yul\":9501:9505   */\n      0x32\n        /* \"#utility.yul\":9498:9499   */\n      0x04\n        /* \"#utility.yul\":9491:9506   */\n      mstore\n        /* \"#utility.yul\":9525:9529   */\n      0x24\n        /* \"#utility.yul\":9522:9523   */\n      0x00\n        /* \"#utility.yul\":9515:9530   */\n      revert\n        /* \"#utility.yul\":9542:9668   */\n    tag_239:\n        /* \"#utility.yul\":9609:9616   */\n      0x00\n        /* \"#utility.yul\":9638:9662   */\n      tag_362\n        /* \"#utility.yul\":9656:9661   */\n      dup3\n        /* \"#utility.yul\":9638:9662   */\n      tag_211\n      jump\t// in\n    tag_362:\n        /* \"#utility.yul\":9627:9662   */\n      swap1\n      pop\n        /* \"#utility.yul\":9542:9668   */\n      swap2\n      swap1\n      pop\n      jump\t// out\n        /* \"#utility.yul\":9674:9856   */\n    tag_240:\n        /* \"#utility.yul\":9777:9831   */\n      tag_364\n        /* \"#utility.yul\":9825:9830   */\n      dup2\n        /* \"#utility.yul\":9777:9831   */\n      tag_239\n      jump\t// in\n    tag_364:\n        /* \"#utility.yul\":9770:9775   */\n      dup2\n        /* \"#utility.yul\":9767:9832   */\n      eq\n        /* \"#utility.yul\":9757:9850   */\n      tag_365\n      jumpi\n        /* \"#utility.yul\":9846:9847   */\n      0x00\n        /* \"#utility.yul\":9843:9844   */\n      dup1\n        /* \"#utility.yul\":9836:9848   */\n      revert\n        /* \"#utility.yul\":9757:9850   */\n    tag_365:\n        /* \"#utility.yul\":9674:9856   */\n      pop\n      jump\t// out\n        /* \"#utility.yul\":9862:10065   */\n    tag_241:\n        /* \"#utility.yul\":9949:9954   */\n      0x00\n        /* \"#utility.yul\":9980:9986   */\n      dup2\n        /* \"#utility.yul\":9974:9987   */\n      mload\n        /* \"#utility.yul\":9965:9987   */\n      swap1\n      pop\n        /* \"#utility.yul\":9996:10059   */\n      tag_367\n        /* \"#utility.yul\":10053:10058   */\n      dup2\n        /* \"#utility.yul\":9996:10059   */\n      tag_240\n      jump\t// in\n    tag_367:\n        /* \"#utility.yul\":9862:10065   */\n      swap3\n      swap2\n      pop\n      pop\n      jump\t// out\n        /* \"#utility.yul\":10071:10482   */\n    tag_88:\n        /* \"#utility.yul\":10171:10177   */\n      0x00\n        /* \"#utility.yul\":10220:10222   */\n      0x20\n        /* \"#utility.yul\":10208:10217   */\n      dup3\n        /* \"#utility.yul\":10199:10206   */\n      dup5\n        /* \"#utility.yul\":10195:10218   */\n      sub\n        /* \"#utility.yul\":10191:10223   */\n      slt\n        /* \"#utility.yul\":10188:10307   */\n      iszero\n      tag_369\n      jumpi\n        /* \"#utility.yul\":10226:10305   */\n      tag_370\n      tag_208\n      jump\t// in\n    tag_370:\n        /* \"#utility.yul\":10188:10307   */\n    tag_369:\n        /* \"#utility.yul\":10346:10347   */\n      0x00\n        /* \"#utility.yul\":10371:10465   */\n      tag_371\n        /* \"#utility.yul\":10457:10464   */\n      dup5\n        /* \"#utility.yul\":10448:10454   */\n      dup3\n        /* \"#utility.yul\":10437:10446   */\n      dup6\n        /* \"#utility.yul\":10433:10455   */\n      add\n        /* \"#utility.yul\":10371:10465   */\n      tag_241\n      jump\t// in\n    tag_371:\n        /* \"#utility.yul\":10361:10465   */\n      swap2\n      pop\n        /* \"#utility.yul\":10317:10475   */\n      pop\n        /* \"#utility.yul\":10071:10482   */\n      swap3\n      swap2\n      pop\n      pop\n      jump\t// out\n        /* \"#utility.yul\":10488:10631   */\n    tag_242:\n        /* \"#utility.yul\":10545:10550   */\n      0x00\n        /* \"#utility.yul\":10576:10582   */\n      dup2\n        /* \"#utility.yul\":10570:10583   */\n      mload\n        /* \"#utility.yul\":10561:10583   */\n      swap1\n      pop\n        /* \"#utility.yul\":10592:10625   */\n      tag_373\n        /* \"#utility.yul\":10619:10624   */\n      dup2\n        /* \"#utility.yul\":10592:10625   */\n      tag_212\n      jump\t// in\n    tag_373:\n        /* \"#utility.yul\":10488:10631   */\n      swap3\n      swap2\n      pop\n      pop\n      jump\t// out\n        /* \"#utility.yul\":10637:10988   */\n    tag_95:\n        /* \"#utility.yul\":10707:10713   */\n      0x00\n        /* \"#utility.yul\":10756:10758   */\n      0x20\n        /* \"#utility.yul\":10744:10753   */\n      dup3\n        /* \"#utility.yul\":10735:10742   */\n      dup5\n        /* \"#utility.yul\":10731:10754   */\n      sub\n        /* \"#utility.yul\":10727:10759   */\n      slt\n        /* \"#utility.yul\":10724:10843   */\n      iszero\n      tag_375\n      jumpi\n        /* \"#utility.yul\":10762:10841   */\n      tag_376\n      tag_208\n      jump\t// in\n    tag_376:\n        /* \"#utility.yul\":10724:10843   */\n    tag_375:\n        /* \"#utility.yul\":10882:10883   */\n      0x00\n        /* \"#utility.yul\":10907:10971   */\n      tag_377\n        /* \"#utility.yul\":10963:10970   */\n      dup5\n        /* \"#utility.yul\":10954:10960   */\n      dup3\n        /* \"#utility.yul\":10943:10952   */\n      dup6\n        /* \"#utility.yul\":10939:10961   */\n      add\n        /* \"#utility.yul\":10907:10971   */\n      tag_242\n      jump\t// in\n    tag_377:\n        /* \"#utility.yul\":10897:10971   */\n      swap2\n      pop\n        /* \"#utility.yul\":10853:10981   */\n      pop\n        /* \"#utility.yul\":10637:10988   */\n      swap3\n      swap2\n      pop\n      pop\n      jump\t// out\n        /* \"#utility.yul\":10994:11174   */\n    tag_243:\n        /* \"#utility.yul\":11042:11119   */\n      0x4e487b7100000000000000000000000000000000000000000000000000000000\n        /* \"#utility.yul\":11039:11040   */\n      0x00\n        /* \"#utility.yul\":11032:11120   */\n      mstore\n        /* \"#utility.yul\":11139:11143   */\n      0x11\n        /* \"#utility.yul\":11136:11137   */\n      0x04\n        /* \"#utility.yul\":11129:11144   */\n      mstore\n        /* \"#utility.yul\":11163:11167   */\n      0x24\n        /* \"#utility.yul\":11160:11161   */\n      0x00\n        /* \"#utility.yul\":11153:11168   */\n      revert\n        /* \"#utility.yul\":11180:11371   */\n    tag_105:\n        /* \"#utility.yul\":11220:11224   */\n      0x00\n        /* \"#utility.yul\":11240:11260   */\n      tag_380\n        /* \"#utility.yul\":11258:11259   */\n      dup3\n        /* \"#utility.yul\":11240:11260   */\n      tag_221\n      jump\t// in\n    tag_380:\n        /* \"#utility.yul\":11235:11260   */\n      swap2\n      pop\n        /* \"#utility.yul\":11274:11294   */\n      tag_381\n        /* \"#utility.yul\":11292:11293   */\n      dup4\n        /* \"#utility.yul\":11274:11294   */\n      tag_221\n      jump\t// in\n    tag_381:\n        /* \"#utility.yul\":11269:11294   */\n      swap3\n      pop\n        /* \"#utility.yul\":11313:11314   */\n      dup3\n        /* \"#utility.yul\":11310:11311   */\n      dup3\n        /* \"#utility.yul\":11307:11315   */\n      lt\n        /* \"#utility.yul\":11304:11338   */\n      iszero\n      tag_382\n      jumpi\n        /* \"#utility.yul\":11318:11336   */\n      tag_383\n      tag_243\n      jump\t// in\n    tag_383:\n        /* \"#utility.yul\":11304:11338   */\n    tag_382:\n        /* \"#utility.yul\":11363:11364   */\n      dup3\n        /* \"#utility.yul\":11360:11361   */\n      dup3\n        /* \"#utility.yul\":11356:11365   */\n      sub\n        /* \"#utility.yul\":11348:11365   */\n      swap1\n      pop\n        /* \"#utility.yul\":11180:11371   */\n      swap3\n      swap2\n      pop\n      pop\n      jump\t// out\n        /* \"#utility.yul\":11377:11610   */\n    tag_111:\n        /* \"#utility.yul\":11416:11419   */\n      0x00\n        /* \"#utility.yul\":11439:11463   */\n      tag_385\n        /* \"#utility.yul\":11457:11462   */\n      dup3\n        /* \"#utility.yul\":11439:11463   */\n      tag_221\n      jump\t// in\n    tag_385:\n        /* \"#utility.yul\":11430:11463   */\n      swap2\n      pop\n        /* \"#utility.yul\":11485:11551   */\n      0xffffffffffffffffffffffffffffffffffffffffffffffffffffffffffffffff\n        /* \"#utility.yul\":11478:11483   */\n      dup3\n        /* \"#utility.yul\":11475:11552   */\n      eq\n        /* \"#utility.yul\":11472:11575   */\n      iszero\n      tag_386\n      jumpi\n        /* \"#utility.yul\":11555:11573   */\n      tag_387\n      tag_243\n      jump\t// in\n    tag_387:\n        /* \"#utility.yul\":11472:11575   */\n    tag_386:\n        /* \"#utility.yul\":11602:11603   */\n      0x01\n        /* \"#utility.yul\":11595:11600   */\n      dup3\n        /* \"#utility.yul\":11591:11604   */\n      add\n        /* \"#utility.yul\":11584:11604   */\n      swap1\n      pop\n        /* \"#utility.yul\":11377:11610   */\n      swap2\n      swap1\n      pop\n      jump\t// out\n        /* \"#utility.yul\":11616:11715   */\n    tag_244:\n        /* \"#utility.yul\":11668:11674   */\n      0x00\n        /* \"#utility.yul\":11702:11707   */\n      dup2\n        /* \"#utility.yul\":11696:11708   */\n      mload\n        /* \"#utility.yul\":11686:11708   */\n      swap1\n      pop\n        /* \"#utility.yul\":11616:11715   */\n      swap2\n      swap1\n      pop\n      jump\t// out\n        /* \"#utility.yul\":11721:11890   */\n    tag_245:\n        /* \"#utility.yul\":11805:11816   */\n      0x00\n        /* \"#utility.yul\":11839:11845   */\n      dup3\n        /* \"#utility.yul\":11834:11837   */\n      dup3\n        /* \"#utility.yul\":11827:11846   */\n      mstore\n        /* \"#utility.yul\":11879:11883   */\n      0x20\n        /* \"#utility.yul\":11874:11877   */\n      dup3\n        /* \"#utility.yul\":11870:11884   */\n      add\n        /* \"#utility.yul\":11855:11884   */\n      swap1\n      pop\n        /* \"#utility.yul\":11721:11890   */\n      swap3\n      swap2\n      pop\n      pop\n      jump\t// out\n        /* \"#utility.yul\":11896:12203   */\n    tag_246:\n        /* \"#utility.yul\":11964:11965   */\n      0x00\n        /* \"#utility.yul\":11974:12087   */\n    tag_391:\n        /* \"#utility.yul\":11988:11994   */\n      dup4\n        /* \"#utility.yul\":11985:11986   */\n      dup2\n        /* \"#utility.yul\":11982:11995   */\n      lt\n        /* \"#utility.yul\":11974:12087   */\n      iszero\n      tag_393\n      jumpi\n        /* \"#utility.yul\":12073:12074   */\n      dup1\n        /* \"#utility.yul\":12068:12071   */\n      dup3\n        /* \"#utility.yul\":12064:12075   */\n      add\n        /* \"#utility.yul\":12058:12076   */\n      mload\n        /* \"#utility.yul\":12054:12055   */\n      dup2\n        /* \"#utility.yul\":12049:12052   */\n      dup5\n        /* \"#utility.yul\":12045:12056   */\n      add\n        /* \"#utility.yul\":12038:12077   */\n      mstore\n        /* \"#utility.yul\":12010:12012   */\n      0x20\n        /* \"#utility.yul\":12007:12008   */\n      dup2\n        /* \"#utility.yul\":12003:12013   */\n      add\n        /* \"#utility.yul\":11998:12013   */\n      swap1\n      pop\n        /* \"#utility.yul\":11974:12087   */\n      jump(tag_391)\n    tag_393:\n        /* \"#utility.yul\":12105:12111   */\n      dup4\n        /* \"#utility.yul\":12102:12103   */\n      dup2\n        /* \"#utility.yul\":12099:12112   */\n      gt\n        /* \"#utility.yul\":12096:12197   */\n      iszero\n      tag_394\n      jumpi\n        /* \"#utility.yul\":12185:12186   */\n      0x00\n        /* \"#utility.yul\":12176:12182   */\n      dup5\n        /* \"#utility.yul\":12171:12174   */\n      dup5\n        /* \"#utility.yul\":12167:12183   */\n      add\n        /* \"#utility.yul\":12160:12187   */\n      mstore\n        /* \"#utility.yul\":12096:12197   */\n    tag_394:\n        /* \"#utility.yul\":11945:12203   */\n      pop\n        /* \"#utility.yul\":11896:12203   */\n      pop\n      pop\n      pop\n      jump\t// out\n        /* \"#utility.yul\":12209:12573   */\n    tag_247:\n        /* \"#utility.yul\":12297:12300   */\n      0x00\n        /* \"#utility.yul\":12325:12364   */\n      tag_396\n        /* \"#utility.yul\":12358:12363   */\n      dup3\n        /* \"#utility.yul\":12325:12364   */\n      tag_244\n      jump\t// in\n    tag_396:\n        /* \"#utility.yul\":12380:12451   */\n      tag_397\n        /* \"#utility.yul\":12444:12450   */\n      dup2\n        /* \"#utility.yul\":12439:12442   */\n      dup6\n        /* \"#utility.yul\":12380:12451   */\n      tag_245\n      jump\t// in\n    tag_397:\n        /* \"#utility.yul\":12373:12451   */\n      swap4\n      pop\n        /* \"#utility.yul\":12460:12512   */\n      tag_398\n        /* \"#utility.yul\":12505:12511   */\n      dup2\n        /* \"#utility.yul\":12500:12503   */\n      dup6\n        /* \"#utility.yul\":12493:12497   */\n      0x20\n        /* \"#utility.yul\":12486:12491   */\n      dup7\n        /* \"#utility.yul\":12482:12498   */\n      add\n        /* \"#utility.yul\":12460:12512   */\n      tag_246\n      jump\t// in\n    tag_398:\n        /* \"#utility.yul\":12537:12566   */\n      tag_399\n        /* \"#utility.yul\":12559:12565   */\n      dup2\n        /* \"#utility.yul\":12537:12566   */\n      tag_228\n      jump\t// in\n    tag_399:\n        /* \"#utility.yul\":12532:12535   */\n      dup5\n        /* \"#utility.yul\":12528:12567   */\n      add\n        /* \"#utility.yul\":12521:12567   */\n      swap2\n      pop\n        /* \"#utility.yul\":12301:12573   */\n      pop\n        /* \"#utility.yul\":12209:12573   */\n      swap3\n      swap2\n      pop\n      pop\n      jump\t// out\n        /* \"#utility.yul\":12579:12639   */\n    tag_248:\n        /* \"#utility.yul\":12607:12610   */\n      0x00\n        /* \"#utility.yul\":12628:12633   */\n      dup2\n        /* \"#utility.yul\":12621:12633   */\n      swap1\n      pop\n        /* \"#utility.yul\":12579:12639   */\n      swap2\n      swap1\n      pop\n      jump\t// out\n        /* \"#utility.yul\":12645:12787   */\n    tag_249:\n        /* \"#utility.yul\":12695:12704   */\n      0x00\n        /* \"#utility.yul\":12728:12781   */\n      tag_402\n        /* \"#utility.yul\":12746:12780   */\n      tag_403\n        /* \"#utility.yul\":12755:12779   */\n      tag_404\n        /* \"#utility.yul\":12773:12778   */\n      dup5\n        /* \"#utility.yul\":12755:12779   */\n      tag_210\n      jump\t// in\n    tag_404:\n        /* \"#utility.yul\":12746:12780   */\n      tag_248\n      jump\t// in\n    tag_403:\n        /* \"#utility.yul\":12728:12781   */\n      tag_210\n      jump\t// in\n    tag_402:\n        /* \"#utility.yul\":12715:12781   */\n      swap1\n      pop\n        /* \"#utility.yul\":12645:12787   */\n      swap2\n      swap1\n      pop\n      jump\t// out\n        /* \"#utility.yul\":12793:12919   */\n    tag_250:\n        /* \"#utility.yul\":12843:12852   */\n      0x00\n        /* \"#utility.yul\":12876:12913   */\n      tag_406\n        /* \"#utility.yul\":12907:12912   */\n      dup3\n        /* \"#utility.yul\":12876:12913   */\n      tag_249\n      jump\t// in\n    tag_406:\n        /* \"#utility.yul\":12863:12913   */\n      swap1\n      pop\n        /* \"#utility.yul\":12793:12919   */\n      swap2\n      swap1\n      pop\n      jump\t// out\n        /* \"#utility.yul\":12925:13059   */\n    tag_251:\n        /* \"#utility.yul\":12983:12992   */\n      0x00\n        /* \"#utility.yul\":13016:13053   */\n      tag_408\n        /* \"#utility.yul\":13047:13052   */\n      dup3\n        /* \"#utility.yul\":13016:13053   */\n      tag_250\n      jump\t// in\n    tag_408:\n        /* \"#utility.yul\":13003:13053   */\n      swap1\n      pop\n        /* \"#utility.yul\":12925:13059   */\n      swap2\n      swap1\n      pop\n      jump\t// out\n        /* \"#utility.yul\":13065:13212   */\n    tag_252:\n        /* \"#utility.yul\":13160:13205   */\n      tag_410\n        /* \"#utility.yul\":13199:13204   */\n      dup2\n        /* \"#utility.yul\":13160:13205   */\n      tag_251\n      jump\t// in\n    tag_410:\n        /* \"#utility.yul\":13155:13158   */\n      dup3\n        /* \"#utility.yul\":13148:13206   */\n      mstore\n        /* \"#utility.yul\":13065:13212   */\n      pop\n      pop\n      jump\t// out\n        /* \"#utility.yul\":13218:14191   */\n    tag_145:\n        /* \"#utility.yul\":13499:13503   */\n      0x00\n        /* \"#utility.yul\":13537:13540   */\n      0xc0\n        /* \"#utility.yul\":13526:13535   */\n      dup3\n        /* \"#utility.yul\":13522:13541   */\n      add\n        /* \"#utility.yul\":13514:13541   */\n      swap1\n      pop\n        /* \"#utility.yul\":13551:13622   */\n      tag_412\n        /* \"#utility.yul\":13619:13620   */\n      0x00\n        /* \"#utility.yul\":13608:13617   */\n      dup4\n        /* \"#utility.yul\":13604:13621   */\n      add\n        /* \"#utility.yul\":13595:13601   */\n      dup10\n        /* \"#utility.yul\":13551:13622   */\n      tag_225\n      jump\t// in\n    tag_412:\n        /* \"#utility.yul\":13632:13704   */\n      tag_413\n        /* \"#utility.yul\":13700:13702   */\n      0x20\n        /* \"#utility.yul\":13689:13698   */\n      dup4\n        /* \"#utility.yul\":13685:13703   */\n      add\n        /* \"#utility.yul\":13676:13682   */\n      dup9\n        /* \"#utility.yul\":13632:13704   */\n      tag_225\n      jump\t// in\n    tag_413:\n        /* \"#utility.yul\":13751:13760   */\n      dup2\n        /* \"#utility.yul\":13745:13749   */\n      dup2\n        /* \"#utility.yul\":13741:13761   */\n      sub\n        /* \"#utility.yul\":13736:13738   */\n      0x40\n        /* \"#utility.yul\":13725:13734   */\n      dup4\n        /* \"#utility.yul\":13721:13739   */\n      add\n        /* \"#utility.yul\":13714:13762   */\n      mstore\n        /* \"#utility.yul\":13779:13857   */\n      tag_414\n        /* \"#utility.yul\":13852:13856   */\n      dup2\n        /* \"#utility.yul\":13843:13849   */\n      dup8\n        /* \"#utility.yul\":13779:13857   */\n      tag_247\n      jump\t// in\n    tag_414:\n        /* \"#utility.yul\":13771:13857   */\n      swap1\n      pop\n        /* \"#utility.yul\":13904:13913   */\n      dup2\n        /* \"#utility.yul\":13898:13902   */\n      dup2\n        /* \"#utility.yul\":13894:13914   */\n      sub\n        /* \"#utility.yul\":13889:13891   */\n      0x60\n        /* \"#utility.yul\":13878:13887   */\n      dup4\n        /* \"#utility.yul\":13874:13892   */\n      add\n        /* \"#utility.yul\":13867:13915   */\n      mstore\n        /* \"#utility.yul\":13932:14010   */\n      tag_415\n        /* \"#utility.yul\":14005:14009   */\n      dup2\n        /* \"#utility.yul\":13996:14002   */\n      dup7\n        /* \"#utility.yul\":13932:14010   */\n      tag_247\n      jump\t// in\n    tag_415:\n        /* \"#utility.yul\":13924:14010   */\n      swap1\n      pop\n        /* \"#utility.yul\":14020:14101   */\n      tag_416\n        /* \"#utility.yul\":14096:14099   */\n      0x80\n        /* \"#utility.yul\":14085:14094   */\n      dup4\n        /* \"#utility.yul\":14081:14100   */\n      add\n        /* \"#utility.yul\":14072:14078   */\n      dup6\n        /* \"#utility.yul\":14020:14101   */\n      tag_252\n      jump\t// in\n    tag_416:\n        /* \"#utility.yul\":14111:14184   */\n      tag_417\n        /* \"#utility.yul\":14179:14182   */\n      0xa0\n        /* \"#utility.yul\":14168:14177   */\n      dup4\n        /* \"#utility.yul\":14164:14183   */\n      add\n        /* \"#utility.yul\":14155:14161   */\n      dup5\n        /* \"#utility.yul\":14111:14184   */\n      tag_224\n      jump\t// in\n    tag_417:\n        /* \"#utility.yul\":13218:14191   */\n      swap8\n      swap7\n      pop\n      pop\n      pop\n      pop\n      pop\n      pop\n      pop\n      jump\t// out\n        /* \"#utility.yul\":14197:14417   */\n    tag_253:\n        /* \"#utility.yul\":14337:14371   */\n      0x4f70656e20636f6e747261637420696e646578206f7574206f6620626f756e64\n        /* \"#utility.yul\":14333:14334   */\n      0x00\n        /* \"#utility.yul\":14325:14331   */\n      dup3\n        /* \"#utility.yul\":14321:14335   */\n      add\n        /* \"#utility.yul\":14314:14372   */\n      mstore\n        /* \"#utility.yul\":14406:14409   */\n      0x7300000000000000000000000000000000000000000000000000000000000000\n        /* \"#utility.yul\":14401:14403   */\n      0x20\n        /* \"#utility.yul\":14393:14399   */\n      dup3\n        /* \"#utility.yul\":14389:14404   */\n      add\n        /* \"#utility.yul\":14382:14410   */\n      mstore\n        /* \"#utility.yul\":14197:14417   */\n      pop\n      jump\t// out\n        /* \"#utility.yul\":14423:14789   */\n    tag_254:\n        /* \"#utility.yul\":14565:14568   */\n      0x00\n        /* \"#utility.yul\":14586:14653   */\n      tag_420\n        /* \"#utility.yul\":14650:14652   */\n      0x21\n        /* \"#utility.yul\":14645:14648   */\n      dup4\n        /* \"#utility.yul\":14586:14653   */\n      tag_245\n      jump\t// in\n    tag_420:\n        /* \"#utility.yul\":14579:14653   */\n      swap2\n      pop\n        /* \"#utility.yul\":14662:14755   */\n      tag_421\n        /* \"#utility.yul\":14751:14754   */\n      dup3\n        /* \"#utility.yul\":14662:14755   */\n      tag_253\n      jump\t// in\n    tag_421:\n        /* \"#utility.yul\":14780:14782   */\n      0x40\n        /* \"#utility.yul\":14775:14778   */\n      dup3\n        /* \"#utility.yul\":14771:14783   */\n      add\n        /* \"#utility.yul\":14764:14783   */\n      swap1\n      pop\n        /* \"#utility.yul\":14423:14789   */\n      swap2\n      swap1\n      pop\n      jump\t// out\n        /* \"#utility.yul\":14795:15214   */\n    tag_154:\n        /* \"#utility.yul\":14961:14965   */\n      0x00\n        /* \"#utility.yul\":14999:15001   */\n      0x20\n        /* \"#utility.yul\":14988:14997   */\n      dup3\n        /* \"#utility.yul\":14984:15002   */\n      add\n        /* \"#utility.yul\":14976:15002   */\n      swap1\n      pop\n        /* \"#utility.yul\":15048:15057   */\n      dup2\n        /* \"#utility.yul\":15042:15046   */\n      dup2\n        /* \"#utility.yul\":15038:15058   */\n      sub\n        /* \"#utility.yul\":15034:15035   */\n      0x00\n        /* \"#utility.yul\":15023:15032   */\n      dup4\n        /* \"#utility.yul\":15019:15036   */\n      add\n        /* \"#utility.yul\":15012:15059   */\n      mstore\n        /* \"#utility.yul\":15076:15207   */\n      tag_423\n        /* \"#utility.yul\":15202:15206   */\n      dup2\n        /* \"#utility.yul\":15076:15207   */\n      tag_254\n      jump\t// in\n    tag_423:\n        /* \"#utility.yul\":15068:15207   */\n      swap1\n      pop\n        /* \"#utility.yul\":14795:15214   */\n      swap2\n      swap1\n      pop\n      jump\t// out\n        /* \"#utility.yul\":15220:15525   */\n    tag_160:\n        /* \"#utility.yul\":15260:15263   */\n      0x00\n        /* \"#utility.yul\":15279:15299   */\n      tag_425\n        /* \"#utility.yul\":15297:15298   */\n      dup3\n        /* \"#utility.yul\":15279:15299   */\n      tag_221\n      jump\t// in\n    tag_425:\n        /* \"#utility.yul\":15274:15299   */\n      swap2\n      pop\n        /* \"#utility.yul\":15313:15333   */\n      tag_426\n        /* \"#utility.yul\":15331:15332   */\n      dup4\n        /* \"#utility.yul\":15313:15333   */\n      tag_221\n      jump\t// in\n    tag_426:\n        /* \"#utility.yul\":15308:15333   */\n      swap3\n      pop\n        /* \"#utility.yul\":15467:15468   */\n      dup3\n        /* \"#utility.yul\":15399:15465   */\n      0xffffffffffffffffffffffffffffffffffffffffffffffffffffffffffffffff\n        /* \"#utility.yul\":15395:15469   */\n      sub\n        /* \"#utility.yul\":15392:15393   */\n      dup3\n        /* \"#utility.yul\":15389:15470   */\n      gt\n        /* \"#utility.yul\":15386:15493   */\n      iszero\n      tag_427\n      jumpi\n        /* \"#utility.yul\":15473:15491   */\n      tag_428\n      tag_243\n      jump\t// in\n    tag_428:\n        /* \"#utility.yul\":15386:15493   */\n    tag_427:\n        /* \"#utility.yul\":15517:15518   */\n      dup3\n        /* \"#utility.yul\":15514:15515   */\n      dup3\n        /* \"#utility.yul\":15510:15519   */\n      add\n        /* \"#utility.yul\":15503:15519   */\n      swap1\n      pop\n        /* \"#utility.yul\":15220:15525   */\n      swap3\n      swap2\n      pop\n      pop\n      jump\t// out\n        /* \"#utility.yul\":15531:15711   */\n    tag_175:\n        /* \"#utility.yul\":15579:15656   */\n      0x4e487b7100000000000000000000000000000000000000000000000000000000\n        /* \"#utility.yul\":15576:15577   */\n      0x00\n        /* \"#utility.yul\":15569:15657   */\n      mstore\n        /* \"#utility.yul\":15676:15680   */\n      0x31\n        /* \"#utility.yul\":15673:15674   */\n      0x04\n        /* \"#utility.yul\":15666:15681   */\n      mstore\n        /* \"#utility.yul\":15700:15704   */\n      0x24\n        /* \"#utility.yul\":15697:15698   */\n      0x00\n        /* \"#utility.yul\":15690:15705   */\n      revert\n    stop\n\n    sub_0: assembly {\n            /* \"Contracts\":5446:6839  contract AccountabilityContract {... */\n          mstore(0x40, 0x80)\n            /* \"Contracts\":5725:6094  constructor(address _creator, address _referee, string memory _name, string memory _description, address _failureRecipient, uint _amount) payable {... */\n          mload(0x40)\n          sub(codesize, bytecodeSize)\n          dup1\n          bytecodeSize\n          dup4\n          codecopy\n          dup2\n          dup2\n          add\n          0x40\n          mstore\n          dup2\n          add\n          swap1\n          tag_1\n          swap2\n          swap1\n          tag_2\n          jump\t// in\n        tag_1:\n            /* \"Contracts\":5891:5899  _creator */\n          dup6\n            /* \"Contracts\":5881:5888  creator */\n          0x00\n          dup1\n            /* \"Contracts\":5881:5899  creator = _creator */\n          0x0100\n          exp\n          dup2\n          sload\n          dup2\n          0xffffffffffffffffffffffffffffffffffffffff\n          mul\n          not\n          and\n          swap1\n          dup4\n          0xffffffffffffffffffffffffffffffffffffffff\n          and\n          mul\n          or\n          swap1\n          sstore\n          pop\n            /* \"Contracts\":5919:5927  _referee */\n          dup5\n            /* \"Contracts\":5909:5916  referee */\n          0x01\n          0x00\n            /* \"Contracts\":5909:5927  referee = _referee */\n          0x0100\n          exp\n          dup2\n          sload\n          dup2\n          0xffffffffffffffffffffffffffffffffffffffff\n          mul\n          not\n          and\n          swap1\n          dup4\n          0xffffffffffffffffffffffffffffffffffffffff\n          and\n          mul\n          or\n          swap1\n          sstore\n          pop\n            /* \"Contracts\":5944:5949  _name */\n          dup4\n            /* \"Contracts\":5937:5941  name */\n          0x02\n            /* \"Contracts\":5937:5949  name = _name */\n          swap1\n          dup1\n          mload\n          swap1\n          0x20\n          add\n          swap1\n          tag_5\n          swap3\n          swap2\n          swap1\n          tag_6\n          jump\t// in\n        tag_5:\n          pop\n            /* \"Contracts\":5973:5985  _description */\n          dup3\n            /* \"Contracts\":5959:5970  description */\n          0x03\n            /* \"Contracts\":5959:5985  description = _description */\n          swap1\n          dup1\n          mload\n          swap1\n          0x20\n          add\n          swap1\n          tag_7\n          swap3\n          swap2\n          swap1\n          tag_6\n          jump\t// in\n        tag_7:\n          pop\n            /* \"Contracts\":6014:6031  _failureRecipient */\n          dup2\n            /* \"Contracts\":5995:6011  failureRecipient */\n          0x04\n          0x00\n            /* \"Contracts\":5995:6031  failureRecipient = _failureRecipient */\n          0x0100\n          exp\n          dup2\n          sload\n          dup2\n          0xffffffffffffffffffffffffffffffffffffffff\n          mul\n          not\n          and\n          swap1\n          dup4\n          0xffffffffffffffffffffffffffffffffffffffff\n          and\n          mul\n          or\n          swap1\n          sstore\n          pop\n            /* \"Contracts\":6050:6057  _amount */\n          dup1\n            /* \"Contracts\":6041:6047  amount */\n          0x05\n            /* \"Contracts\":6041:6057  amount = _amount */\n          dup2\n          swap1\n          sstore\n          pop\n            /* \"Contracts\":6076:6087  Status.OPEN */\n          0x00\n            /* \"Contracts\":6067:6073  status */\n          0x06\n          0x00\n            /* \"Contracts\":6067:6087  status = Status.OPEN */\n          0x0100\n          exp\n          dup2\n          sload\n          dup2\n          0xff\n          mul\n          not\n          and\n          swap1\n          dup4\n          0x02\n          dup2\n          gt\n          iszero\n          tag_8\n          jumpi\n          tag_9\n          tag_10\n          jump\t// in\n        tag_9:\n        tag_8:\n          mul\n          or\n          swap1\n          sstore\n          pop\n            /* \"Contracts\":5725:6094  constructor(address _creator, address _referee, string memory _name, string memory _description, address _failureRecipient, uint _amount) payable {... */\n          pop\n          pop\n          pop\n          pop\n          pop\n          pop\n            /* \"Contracts\":5446:6839  contract AccountabilityContract {... */\n          jump(tag_11)\n        tag_6:\n          dup3\n          dup1\n          sload\n          tag_12\n          swap1\n          tag_13\n          jump\t// in\n        tag_12:\n          swap1\n          0x00\n          mstore\n          keccak256(0x00, 0x20)\n          swap1\n          0x1f\n          add\n          0x20\n          swap1\n          div\n          dup2\n          add\n          swap3\n          dup3\n          tag_15\n          jumpi\n          0x00\n          dup6\n          sstore\n          jump(tag_14)\n        tag_15:\n          dup3\n          0x1f\n          lt\n          tag_16\n          jumpi\n          dup1\n          mload\n          not(0xff)\n          and\n          dup4\n          dup1\n          add\n          or\n          dup6\n          sstore\n          jump(tag_14)\n        tag_16:\n          dup3\n          dup1\n          add\n          0x01\n          add\n          dup6\n          sstore\n          dup3\n          iszero\n          tag_14\n          jumpi\n          swap2\n          dup3\n          add\n        tag_17:\n          dup3\n          dup2\n          gt\n          iszero\n          tag_18\n          jumpi\n          dup3\n          mload\n          dup3\n          sstore\n          swap2\n          0x20\n          add\n          swap2\n          swap1\n          0x01\n          add\n          swap1\n          jump(tag_17)\n        tag_18:\n        tag_14:\n          pop\n          swap1\n          pop\n          tag_19\n          swap2\n          swap1\n          tag_20\n          jump\t// in\n        tag_19:\n          pop\n          swap1\n          jump\t// out\n        tag_20:\n        tag_21:\n          dup1\n          dup3\n          gt\n          iszero\n          tag_22\n          jumpi\n          0x00\n          dup2\n          0x00\n          swap1\n          sstore\n          pop\n          0x01\n          add\n          jump(tag_21)\n        tag_22:\n          pop\n          swap1\n          jump\t// out\n            /* \"#utility.yul\":7:82   */\n        tag_23:\n            /* \"#utility.yul\":40:46   */\n          0x00\n            /* \"#utility.yul\":73:75   */\n          0x40\n            /* \"#utility.yul\":67:76   */\n          mload\n            /* \"#utility.yul\":57:76   */\n          swap1\n          pop\n            /* \"#utility.yul\":7:82   */\n          swap1\n          jump\t// out\n            /* \"#utility.yul\":88:205   */\n        tag_24:\n            /* \"#utility.yul\":197:198   */\n          0x00\n            /* \"#utility.yul\":194:195   */\n          dup1\n            /* \"#utility.yul\":187:199   */\n          revert\n            /* \"#utility.yul\":211:328   */\n        tag_25:\n            /* \"#utility.yul\":320:321   */\n          0x00\n            /* \"#utility.yul\":317:318   */\n          dup1\n            /* \"#utility.yul\":310:322   */\n          revert\n            /* \"#utility.yul\":334:460   */\n        tag_26:\n            /* \"#utility.yul\":371:378   */\n          0x00\n            /* \"#utility.yul\":411:453   */\n          0xffffffffffffffffffffffffffffffffffffffff\n            /* \"#utility.yul\":404:409   */\n          dup3\n            /* \"#utility.yul\":400:454   */\n          and\n            /* \"#utility.yul\":389:454   */\n          swap1\n          pop\n            /* \"#utility.yul\":334:460   */\n          swap2\n          swap1\n          pop\n          jump\t// out\n            /* \"#utility.yul\":466:562   */\n        tag_27:\n            /* \"#utility.yul\":503:510   */\n          0x00\n            /* \"#utility.yul\":532:556   */\n          tag_50\n            /* \"#utility.yul\":550:555   */\n          dup3\n            /* \"#utility.yul\":532:556   */\n          tag_26\n          jump\t// in\n        tag_50:\n            /* \"#utility.yul\":521:556   */\n          swap1\n          pop\n            /* \"#utility.yul\":466:562   */\n          swap2\n          swap1\n          pop\n          jump\t// out\n            /* \"#utility.yul\":568:690   */\n        tag_28:\n            /* \"#utility.yul\":641:665   */\n          tag_52\n            /* \"#utility.yul\":659:664   */\n          dup2\n            /* \"#utility.yul\":641:665   */\n          tag_27\n          jump\t// in\n        tag_52:\n            /* \"#utility.yul\":634:639   */\n          dup2\n            /* \"#utility.yul\":631:666   */\n          eq\n            /* \"#utility.yul\":621:684   */\n          tag_53\n          jumpi\n            /* \"#utility.yul\":680:681   */\n          0x00\n            /* \"#utility.yul\":677:678   */\n          dup1\n            /* \"#utility.yul\":670:682   */\n          revert\n            /* \"#utility.yul\":621:684   */\n        tag_53:\n            /* \"#utility.yul\":568:690   */\n          pop\n          jump\t// out\n            /* \"#utility.yul\":696:839   */\n        tag_29:\n            /* \"#utility.yul\":753:758   */\n          0x00\n            /* \"#utility.yul\":784:790   */\n          dup2\n            /* \"#utility.yul\":778:791   */\n          mload\n            /* \"#utility.yul\":769:791   */\n          swap1\n          pop\n            /* \"#utility.yul\":800:833   */\n          tag_55\n            /* \"#utility.yul\":827:832   */\n          dup2\n            /* \"#utility.yul\":800:833   */\n          tag_28\n          jump\t// in\n        tag_55:\n            /* \"#utility.yul\":696:839   */\n          swap3\n          swap2\n          pop\n          pop\n          jump\t// out\n            /* \"#utility.yul\":845:962   */\n        tag_30:\n            /* \"#utility.yul\":954:955   */\n          0x00\n            /* \"#utility.yul\":951:952   */\n          dup1\n            /* \"#utility.yul\":944:956   */\n          revert\n            /* \"#utility.yul\":968:1085   */\n        tag_31:\n            /* \"#utility.yul\":1077:1078   */\n          0x00\n            /* \"#utility.yul\":1074:1075   */\n          dup1\n            /* \"#utility.yul\":1067:1079   */\n          revert\n            /* \"#utility.yul\":1091:1193   */\n        tag_32:\n            /* \"#utility.yul\":1132:1138   */\n          0x00\n            /* \"#utility.yul\":1183:1185   */\n          0x1f\n            /* \"#utility.yul\":1179:1186   */\n          not\n            /* \"#utility.yul\":1174:1176   */\n          0x1f\n            /* \"#utility.yul\":1167:1172   */\n          dup4\n            /* \"#utility.yul\":1163:1177   */\n          add\n            /* \"#utility.yul\":1159:1187   */\n          and\n            /* \"#utility.yul\":1149:1187   */\n          swap1\n          pop\n            /* \"#utility.yul\":1091:1193   */\n          swap2\n          swap1\n          pop\n          jump\t// out\n            /* \"#utility.yul\":1199:1379   */\n        tag_33:\n            /* \"#utility.yul\":1247:1324   */\n          0x4e487b7100000000000000000000000000000000000000000000000000000000\n            /* \"#utility.yul\":1244:1245   */\n          0x00\n            /* \"#utility.yul\":1237:1325   */\n          mstore\n            /* \"#utility.yul\":1344:1348   */\n          0x41\n            /* \"#utility.yul\":1341:1342   */\n          0x04\n            /* \"#utility.yul\":1334:1349   */\n          mstore\n            /* \"#utility.yul\":1368:1372   */\n          0x24\n            /* \"#utility.yul\":1365:1366   */\n          0x00\n            /* \"#utility.yul\":1358:1373   */\n          revert\n            /* \"#utility.yul\":1385:1666   */\n        tag_34:\n            /* \"#utility.yul\":1468:1495   */\n          tag_61\n            /* \"#utility.yul\":1490:1494   */\n          dup3\n            /* \"#utility.yul\":1468:1495   */\n          tag_32\n          jump\t// in\n        tag_61:\n            /* \"#utility.yul\":1460:1466   */\n          dup2\n            /* \"#utility.yul\":1456:1496   */\n          add\n            /* \"#utility.yul\":1598:1604   */\n          dup2\n            /* \"#utility.yul\":1586:1596   */\n          dup2\n            /* \"#utility.yul\":1583:1605   */\n          lt\n            /* \"#utility.yul\":1562:1580   */\n          0xffffffffffffffff\n            /* \"#utility.yul\":1550:1560   */\n          dup3\n            /* \"#utility.yul\":1547:1581   */\n          gt\n            /* \"#utility.yul\":1544:1606   */\n          or\n            /* \"#utility.yul\":1541:1629   */\n          iszero\n          tag_62\n          jumpi\n            /* \"#utility.yul\":1609:1627   */\n          tag_63\n          tag_33\n          jump\t// in\n        tag_63:\n            /* \"#utility.yul\":1541:1629   */\n        tag_62:\n            /* \"#utility.yul\":1649:1659   */\n          dup1\n            /* \"#utility.yul\":1645:1647   */\n          0x40\n            /* \"#utility.yul\":1638:1660   */\n          mstore\n            /* \"#utility.yul\":1428:1666   */\n          pop\n            /* \"#utility.yul\":1385:1666   */\n          pop\n          pop\n          jump\t// out\n            /* \"#utility.yul\":1672:1801   */\n        tag_35:\n            /* \"#utility.yul\":1706:1712   */\n          0x00\n            /* \"#utility.yul\":1733:1753   */\n          tag_65\n          tag_23\n          jump\t// in\n        tag_65:\n            /* \"#utility.yul\":1723:1753   */\n          swap1\n          pop\n            /* \"#utility.yul\":1762:1795   */\n          tag_66\n            /* \"#utility.yul\":1790:1794   */\n          dup3\n            /* \"#utility.yul\":1782:1788   */\n          dup3\n            /* \"#utility.yul\":1762:1795   */\n          tag_34\n          jump\t// in\n        tag_66:\n            /* \"#utility.yul\":1672:1801   */\n          swap2\n          swap1\n          pop\n          jump\t// out\n            /* \"#utility.yul\":1807:2115   */\n        tag_36:\n            /* \"#utility.yul\":1869:1873   */\n          0x00\n            /* \"#utility.yul\":1959:1977   */\n          0xffffffffffffffff\n            /* \"#utility.yul\":1951:1957   */\n          dup3\n            /* \"#utility.yul\":1948:1978   */\n          gt\n            /* \"#utility.yul\":1945:2001   */\n          iszero\n          tag_68\n          jumpi\n            /* \"#utility.yul\":1981:1999   */\n          tag_69\n          tag_33\n          jump\t// in\n        tag_69:\n            /* \"#utility.yul\":1945:2001   */\n        tag_68:\n            /* \"#utility.yul\":2019:2048   */\n          tag_70\n            /* \"#utility.yul\":2041:2047   */\n          dup3\n            /* \"#utility.yul\":2019:2048   */\n          tag_32\n          jump\t// in\n        tag_70:\n            /* \"#utility.yul\":2011:2048   */\n          swap1\n          pop\n            /* \"#utility.yul\":2103:2107   */\n          0x20\n            /* \"#utility.yul\":2097:2101   */\n          dup2\n            /* \"#utility.yul\":2093:2108   */\n          add\n            /* \"#utility.yul\":2085:2108   */\n          swap1\n          pop\n            /* \"#utility.yul\":1807:2115   */\n          swap2\n          swap1\n          pop\n          jump\t// out\n            /* \"#utility.yul\":2121:2428   */\n        tag_37:\n            /* \"#utility.yul\":2189:2190   */\n          0x00\n            /* \"#utility.yul\":2199:2312   */\n        tag_72:\n            /* \"#utility.yul\":2213:2219   */\n          dup4\n            /* \"#utility.yul\":2210:2211   */\n          dup2\n            /* \"#utility.yul\":2207:2220   */\n          lt\n            /* \"#utility.yul\":2199:2312   */\n          iszero\n          tag_74\n          jumpi\n            /* \"#utility.yul\":2298:2299   */\n          dup1\n            /* \"#utility.yul\":2293:2296   */\n          dup3\n            /* \"#utility.yul\":2289:2300   */\n          add\n            /* \"#utility.yul\":2283:2301   */\n          mload\n            /* \"#utility.yul\":2279:2280   */\n          dup2\n            /* \"#utility.yul\":2274:2277   */\n          dup5\n            /* \"#utility.yul\":2270:2281   */\n          add\n            /* \"#utility.yul\":2263:2302   */\n          mstore\n            /* \"#utility.yul\":2235:2237   */\n          0x20\n            /* \"#utility.yul\":2232:2233   */\n          dup2\n            /* \"#utility.yul\":2228:2238   */\n          add\n            /* \"#utility.yul\":2223:2238   */\n          swap1\n          pop\n            /* \"#utility.yul\":2199:2312   */\n          jump(tag_72)\n        tag_74:\n            /* \"#utility.yul\":2330:2336   */\n          dup4\n            /* \"#utility.yul\":2327:2328   */\n          dup2\n            /* \"#utility.yul\":2324:2337   */\n          gt\n            /* \"#utility.yul\":2321:2422   */\n          iszero\n          tag_75\n          jumpi\n            /* \"#utility.yul\":2410:2411   */\n          0x00\n            /* \"#utility.yul\":2401:2407   */\n          dup5\n            /* \"#utility.yul\":2396:2399   */\n          dup5\n            /* \"#utility.yul\":2392:2408   */\n          add\n            /* \"#utility.yul\":2385:2412   */\n          mstore\n            /* \"#utility.yul\":2321:2422   */\n        tag_75:\n            /* \"#utility.yul\":2170:2428   */\n          pop\n            /* \"#utility.yul\":2121:2428   */\n          pop\n          pop\n          pop\n          jump\t// out\n            /* \"#utility.yul\":2434:2855   */\n        tag_38:\n            /* \"#utility.yul\":2523:2528   */\n          0x00\n            /* \"#utility.yul\":2548:2614   */\n          tag_77\n            /* \"#utility.yul\":2564:2613   */\n          tag_78\n            /* \"#utility.yul\":2606:2612   */\n          dup5\n            /* \"#utility.yul\":2564:2613   */\n          tag_36\n          jump\t// in\n        tag_78:\n            /* \"#utility.yul\":2548:2614   */\n          tag_35\n          jump\t// in\n        tag_77:\n            /* \"#utility.yul\":2539:2614   */\n          swap1\n          pop\n            /* \"#utility.yul\":2637:2643   */\n          dup3\n            /* \"#utility.yul\":2630:2635   */\n          dup2\n            /* \"#utility.yul\":2623:2644   */\n          mstore\n            /* \"#utility.yul\":2675:2679   */\n          0x20\n            /* \"#utility.yul\":2668:2673   */\n          dup2\n            /* \"#utility.yul\":2664:2680   */\n          add\n            /* \"#utility.yul\":2713:2716   */\n          dup5\n            /* \"#utility.yul\":2704:2710   */\n          dup5\n            /* \"#utility.yul\":2699:2702   */\n          dup5\n            /* \"#utility.yul\":2695:2711   */\n          add\n            /* \"#utility.yul\":2692:2717   */\n          gt\n            /* \"#utility.yul\":2689:2801   */\n          iszero\n          tag_79\n          jumpi\n            /* \"#utility.yul\":2720:2799   */\n          tag_80\n          tag_31\n          jump\t// in\n        tag_80:\n            /* \"#utility.yul\":2689:2801   */\n        tag_79:\n            /* \"#utility.yul\":2810:2849   */\n          tag_81\n            /* \"#utility.yul\":2842:2848   */\n          dup5\n            /* \"#utility.yul\":2837:2840   */\n          dup3\n            /* \"#utility.yul\":2832:2835   */\n          dup6\n            /* \"#utility.yul\":2810:2849   */\n          tag_37\n          jump\t// in\n        tag_81:\n            /* \"#utility.yul\":2529:2855   */\n          pop\n            /* \"#utility.yul\":2434:2855   */\n          swap4\n          swap3\n          pop\n          pop\n          pop\n          jump\t// out\n            /* \"#utility.yul\":2875:3230   */\n        tag_39:\n            /* \"#utility.yul\":2942:2947   */\n          0x00\n            /* \"#utility.yul\":2991:2994   */\n          dup3\n            /* \"#utility.yul\":2984:2988   */\n          0x1f\n            /* \"#utility.yul\":2976:2982   */\n          dup4\n            /* \"#utility.yul\":2972:2989   */\n          add\n            /* \"#utility.yul\":2968:2995   */\n          slt\n            /* \"#utility.yul\":2958:3080   */\n          tag_83\n          jumpi\n            /* \"#utility.yul\":2999:3078   */\n          tag_84\n          tag_30\n          jump\t// in\n        tag_84:\n            /* \"#utility.yul\":2958:3080   */\n        tag_83:\n            /* \"#utility.yul\":3109:3115   */\n          dup2\n            /* \"#utility.yul\":3103:3116   */\n          mload\n            /* \"#utility.yul\":3134:3224   */\n          tag_85\n            /* \"#utility.yul\":3220:3223   */\n          dup5\n            /* \"#utility.yul\":3212:3218   */\n          dup3\n            /* \"#utility.yul\":3205:3209   */\n          0x20\n            /* \"#utility.yul\":3197:3203   */\n          dup7\n            /* \"#utility.yul\":3193:3210   */\n          add\n            /* \"#utility.yul\":3134:3224   */\n          tag_38\n          jump\t// in\n        tag_85:\n            /* \"#utility.yul\":3125:3224   */\n          swap2\n          pop\n            /* \"#utility.yul\":2948:3230   */\n          pop\n            /* \"#utility.yul\":2875:3230   */\n          swap3\n          swap2\n          pop\n          pop\n          jump\t// out\n            /* \"#utility.yul\":3236:3313   */\n        tag_40:\n            /* \"#utility.yul\":3273:3280   */\n          0x00\n            /* \"#utility.yul\":3302:3307   */\n          dup2\n            /* \"#utility.yul\":3291:3307   */\n          swap1\n          pop\n            /* \"#utility.yul\":3236:3313   */\n          swap2\n          swap1\n          pop\n          jump\t// out\n            /* \"#utility.yul\":3319:3441   */\n        tag_41:\n            /* \"#utility.yul\":3392:3416   */\n          tag_88\n            /* \"#utility.yul\":3410:3415   */\n          dup2\n            /* \"#utility.yul\":3392:3416   */\n          tag_40\n          jump\t// in\n        tag_88:\n            /* \"#utility.yul\":3385:3390   */\n          dup2\n            /* \"#utility.yul\":3382:3417   */\n          eq\n            /* \"#utility.yul\":3372:3435   */\n          tag_89\n          jumpi\n            /* \"#utility.yul\":3431:3432   */\n          0x00\n            /* \"#utility.yul\":3428:3429   */\n          dup1\n            /* \"#utility.yul\":3421:3433   */\n          revert\n            /* \"#utility.yul\":3372:3435   */\n        tag_89:\n            /* \"#utility.yul\":3319:3441   */\n          pop\n          jump\t// out\n            /* \"#utility.yul\":3447:3590   */\n        tag_42:\n            /* \"#utility.yul\":3504:3509   */\n          0x00\n            /* \"#utility.yul\":3535:3541   */\n          dup2\n            /* \"#utility.yul\":3529:3542   */\n          mload\n            /* \"#utility.yul\":3520:3542   */\n          swap1\n          pop\n            /* \"#utility.yul\":3551:3584   */\n          tag_91\n            /* \"#utility.yul\":3578:3583   */\n          dup2\n            /* \"#utility.yul\":3551:3584   */\n          tag_41\n          jump\t// in\n        tag_91:\n            /* \"#utility.yul\":3447:3590   */\n          swap3\n          swap2\n          pop\n          pop\n          jump\t// out\n            /* \"#utility.yul\":3596:5076   */\n        tag_2:\n            /* \"#utility.yul\":3731:3737   */\n          0x00\n            /* \"#utility.yul\":3739:3745   */\n          dup1\n            /* \"#utility.yul\":3747:3753   */\n          0x00\n            /* \"#utility.yul\":3755:3761   */\n          dup1\n            /* \"#utility.yul\":3763:3769   */\n          0x00\n            /* \"#utility.yul\":3771:3777   */\n          dup1\n            /* \"#utility.yul\":3820:3823   */\n          0xc0\n            /* \"#utility.yul\":3808:3817   */\n          dup8\n            /* \"#utility.yul\":3799:3806   */\n          dup10\n            /* \"#utility.yul\":3795:3818   */\n          sub\n            /* \"#utility.yul\":3791:3824   */\n          slt\n            /* \"#utility.yul\":3788:3908   */\n          iszero\n          tag_93\n          jumpi\n            /* \"#utility.yul\":3827:3906   */\n          tag_94\n          tag_24\n          jump\t// in\n        tag_94:\n            /* \"#utility.yul\":3788:3908   */\n        tag_93:\n            /* \"#utility.yul\":3947:3948   */\n          0x00\n            /* \"#utility.yul\":3972:4036   */\n          tag_95\n            /* \"#utility.yul\":4028:4035   */\n          dup10\n            /* \"#utility.yul\":4019:4025   */\n          dup3\n            /* \"#utility.yul\":4008:4017   */\n          dup11\n            /* \"#utility.yul\":4004:4026   */\n          add\n            /* \"#utility.yul\":3972:4036   */\n          tag_29\n          jump\t// in\n        tag_95:\n            /* \"#utility.yul\":3962:4036   */\n          swap7\n          pop\n            /* \"#utility.yul\":3918:4046   */\n          pop\n            /* \"#utility.yul\":4085:4087   */\n          0x20\n            /* \"#utility.yul\":4111:4175   */\n          tag_96\n            /* \"#utility.yul\":4167:4174   */\n          dup10\n            /* \"#utility.yul\":4158:4164   */\n          dup3\n            /* \"#utility.yul\":4147:4156   */\n          dup11\n            /* \"#utility.yul\":4143:4165   */\n          add\n            /* \"#utility.yul\":4111:4175   */\n          tag_29\n          jump\t// in\n        tag_96:\n            /* \"#utility.yul\":4101:4175   */\n          swap6\n          pop\n            /* \"#utility.yul\":4056:4185   */\n          pop\n            /* \"#utility.yul\":4245:4247   */\n          0x40\n            /* \"#utility.yul\":4234:4243   */\n          dup8\n            /* \"#utility.yul\":4230:4248   */\n          add\n            /* \"#utility.yul\":4224:4249   */\n          mload\n            /* \"#utility.yul\":4276:4294   */\n          0xffffffffffffffff\n            /* \"#utility.yul\":4268:4274   */\n          dup2\n            /* \"#utility.yul\":4265:4295   */\n          gt\n            /* \"#utility.yul\":4262:4379   */\n          iszero\n          tag_97\n          jumpi\n            /* \"#utility.yul\":4298:4377   */\n          tag_98\n          tag_25\n          jump\t// in\n        tag_98:\n            /* \"#utility.yul\":4262:4379   */\n        tag_97:\n            /* \"#utility.yul\":4403:4477   */\n          tag_99\n            /* \"#utility.yul\":4469:4476   */\n          dup10\n            /* \"#utility.yul\":4460:4466   */\n          dup3\n            /* \"#utility.yul\":4449:4458   */\n          dup11\n            /* \"#utility.yul\":4445:4467   */\n          add\n            /* \"#utility.yul\":4403:4477   */\n          tag_39\n          jump\t// in\n        tag_99:\n            /* \"#utility.yul\":4393:4477   */\n          swap5\n          pop\n            /* \"#utility.yul\":4195:4487   */\n          pop\n            /* \"#utility.yul\":4547:4549   */\n          0x60\n            /* \"#utility.yul\":4536:4545   */\n          dup8\n            /* \"#utility.yul\":4532:4550   */\n          add\n            /* \"#utility.yul\":4526:4551   */\n          mload\n            /* \"#utility.yul\":4578:4596   */\n          0xffffffffffffffff\n            /* \"#utility.yul\":4570:4576   */\n          dup2\n            /* \"#utility.yul\":4567:4597   */\n          gt\n            /* \"#utility.yul\":4564:4681   */\n          iszero\n          tag_100\n          jumpi\n            /* \"#utility.yul\":4600:4679   */\n          tag_101\n          tag_25\n          jump\t// in\n        tag_101:\n            /* \"#utility.yul\":4564:4681   */\n        tag_100:\n            /* \"#utility.yul\":4705:4779   */\n          tag_102\n            /* \"#utility.yul\":4771:4778   */\n          dup10\n            /* \"#utility.yul\":4762:4768   */\n          dup3\n            /* \"#utility.yul\":4751:4760   */\n          dup11\n            /* \"#utility.yul\":4747:4769   */\n          add\n            /* \"#utility.yul\":4705:4779   */\n          tag_39\n          jump\t// in\n        tag_102:\n            /* \"#utility.yul\":4695:4779   */\n          swap4\n          pop\n            /* \"#utility.yul\":4497:4789   */\n          pop\n            /* \"#utility.yul\":4828:4831   */\n          0x80\n            /* \"#utility.yul\":4855:4919   */\n          tag_103\n            /* \"#utility.yul\":4911:4918   */\n          dup10\n            /* \"#utility.yul\":4902:4908   */\n          dup3\n            /* \"#utility.yul\":4891:4900   */\n          dup11\n            /* \"#utility.yul\":4887:4909   */\n          add\n            /* \"#utility.yul\":4855:4919   */\n          tag_29\n          jump\t// in\n        tag_103:\n            /* \"#utility.yul\":4845:4919   */\n          swap3\n          pop\n            /* \"#utility.yul\":4799:4929   */\n          pop\n            /* \"#utility.yul\":4968:4971   */\n          0xa0\n            /* \"#utility.yul\":4995:5059   */\n          tag_104\n            /* \"#utility.yul\":5051:5058   */\n          dup10\n            /* \"#utility.yul\":5042:5048   */\n          dup3\n            /* \"#utility.yul\":5031:5040   */\n          dup11\n            /* \"#utility.yul\":5027:5049   */\n          add\n            /* \"#utility.yul\":4995:5059   */\n          tag_42\n          jump\t// in\n        tag_104:\n            /* \"#utility.yul\":4985:5059   */\n          swap2\n          pop\n            /* \"#utility.yul\":4939:5069   */\n          pop\n            /* \"#utility.yul\":3596:5076   */\n          swap3\n          swap6\n          pop\n          swap3\n          swap6\n          pop\n          swap3\n          swap6\n          jump\t// out\n            /* \"#utility.yul\":5082:5262   */\n        tag_10:\n            /* \"#utility.yul\":5130:5207   */\n          0x4e487b7100000000000000000000000000000000000000000000000000000000\n            /* \"#utility.yul\":5127:5128   */\n          0x00\n            /* \"#utility.yul\":5120:5208   */\n          mstore\n            /* \"#utility.yul\":5227:5231   */\n          0x21\n            /* \"#utility.yul\":5224:5225   */\n          0x04\n            /* \"#utility.yul\":5217:5232   */\n          mstore\n            /* \"#utility.yul\":5251:5255   */\n          0x24\n            /* \"#utility.yul\":5248:5249   */\n          0x00\n            /* \"#utility.yul\":5241:5256   */\n          revert\n            /* \"#utility.yul\":5268:5448   */\n        tag_43:\n            /* \"#utility.yul\":5316:5393   */\n          0x4e487b7100000000000000000000000000000000000000000000000000000000\n            /* \"#utility.yul\":5313:5314   */\n          0x00\n            /* \"#utility.yul\":5306:5394   */\n          mstore\n            /* \"#utility.yul\":5413:5417   */\n          0x22\n            /* \"#utility.yul\":5410:5411   */\n          0x04\n            /* \"#utility.yul\":5403:5418   */\n          mstore\n            /* \"#utility.yul\":5437:5441   */\n          0x24\n            /* \"#utility.yul\":5434:5435   */\n          0x00\n            /* \"#utility.yul\":5427:5442   */\n          revert\n            /* \"#utility.yul\":5454:5774   */\n        tag_13:\n            /* \"#utility.yul\":5498:5504   */\n          0x00\n            /* \"#utility.yul\":5535:5536   */\n          0x02\n            /* \"#utility.yul\":5529:5533   */\n          dup3\n            /* \"#utility.yul\":5525:5537   */\n          div\n            /* \"#utility.yul\":5515:5537   */\n          swap1\n          pop\n            /* \"#utility.yul\":5582:5583   */\n          0x01\n            /* \"#utility.yul\":5576:5580   */\n          dup3\n            /* \"#utility.yul\":5572:5584   */\n          and\n            /* \"#utility.yul\":5603:5621   */\n          dup1\n            /* \"#utility.yul\":5593:5674   */\n          tag_108\n          jumpi\n            /* \"#utility.yul\":5659:5663   */\n          0x7f\n            /* \"#utility.yul\":5651:5657   */\n          dup3\n            /* \"#utility.yul\":5647:5664   */\n          and\n            /* \"#utility.yul\":5637:5664   */\n          swap2\n          pop\n            /* \"#utility.yul\":5593:5674   */\n        tag_108:\n            /* \"#utility.yul\":5721:5723   */\n          0x20\n            /* \"#utility.yul\":5713:5719   */\n          dup3\n            /* \"#utility.yul\":5710:5724   */\n          lt\n            /* \"#utility.yul\":5690:5708   */\n          dup2\n            /* \"#utility.yul\":5687:5725   */\n          eq\n            /* \"#utility.yul\":5684:5768   */\n          iszero\n          tag_109\n          jumpi\n            /* \"#utility.yul\":5740:5758   */\n          tag_110\n          tag_43\n          jump\t// in\n        tag_110:\n            /* \"#utility.yul\":5684:5768   */\n        tag_109:\n            /* \"#utility.yul\":5505:5774   */\n          pop\n            /* \"#utility.yul\":5454:5774   */\n          swap2\n          swap1\n          pop\n          jump\t// out\n            /* \"Contracts\":5446:6839  contract AccountabilityContract {... */\n        tag_11:\n          dataSize(sub_0)\n          dup1\n          dataOffset(sub_0)\n          0x00\n          codecopy\n          0x00\n          return\n        stop\n\n        sub_0: assembly {\n                /* \"Contracts\":5446:6839  contract AccountabilityContract {... */\n              mstore(0x40, 0x80)\n              jumpi(tag_1, lt(calldatasize, 0x04))\n              shr(0xe0, calldataload(0x00))\n              dup1\n              0x3b1bebd1\n              gt\n              tag_11\n              jumpi\n              dup1\n              0x3b1bebd1\n              eq\n              tag_6\n              jumpi\n              dup1\n              0x4177fe51\n              eq\n              tag_7\n              jumpi\n              dup1\n              0x7284e416\n              eq\n              tag_8\n              jumpi\n              dup1\n              0xaa8c217c\n              eq\n              tag_9\n              jumpi\n              dup1\n              0xb4fedc11\n              eq\n              tag_10\n              jumpi\n              jump(tag_1)\n            tag_11:\n              dup1\n              0x02d05d3f\n              eq\n              tag_2\n              jumpi\n              dup1\n              0x06fdde03\n              eq\n              tag_3\n              jumpi\n              dup1\n              0x200d2ed2\n              eq\n              tag_4\n              jumpi\n              dup1\n              0x2d398fa6\n              eq\n              tag_5\n              jumpi\n            tag_1:\n              0x00\n              dup1\n              revert\n                /* \"Contracts\":5526:5548  address public creator */\n            tag_2:\n              callvalue\n              dup1\n              iszero\n              tag_12\n              jumpi\n              0x00\n              dup1\n              revert\n            tag_12:\n              pop\n              tag_13\n              tag_14\n              jump\t// in\n            tag_13:\n              mload(0x40)\n              tag_15\n              swap2\n              swap1\n              tag_16\n              jump\t// in\n            tag_15:\n              mload(0x40)\n              dup1\n              swap2\n              sub\n              swap1\n              return\n                /* \"Contracts\":5582:5600  string public name */\n            tag_3:\n              callvalue\n              dup1\n              iszero\n              tag_17\n              jumpi\n              0x00\n              dup1\n              revert\n            tag_17:\n              pop\n              tag_18\n              tag_19\n              jump\t// in\n            tag_18:\n              mload(0x40)\n              tag_20\n              swap2\n              swap1\n              tag_21\n              jump\t// in\n            tag_20:\n              mload(0x40)\n              dup1\n              swap2\n              sub\n              swap1\n              return\n                /* \"Contracts\":5698:5718  Status public status */\n            tag_4:\n              callvalue\n              dup1\n              iszero\n              tag_22\n              jumpi\n              0x00\n              dup1\n              revert\n            tag_22:\n              pop\n              tag_23\n              tag_24\n              jump\t// in\n            tag_23:\n              mload(0x40)\n              tag_25\n              swap2\n              swap1\n              tag_26\n              jump\t// in\n            tag_25:\n              mload(0x40)\n              dup1\n              swap2\n              sub\n              swap1\n              return\n                /* \"Contracts\":6226:6545  function failContract() public payable restricted returns (AccountabilityContract) {... */\n            tag_5:\n              tag_27\n              tag_28\n              jump\t// in\n            tag_27:\n              mload(0x40)\n              tag_29\n              swap2\n              swap1\n              tag_30\n              jump\t// in\n            tag_29:\n              mload(0x40)\n              dup1\n              swap2\n              sub\n              swap1\n              return\n                /* \"Contracts\":5554:5576  address public referee */\n            tag_6:\n              callvalue\n              dup1\n              iszero\n              tag_31\n              jumpi\n              0x00\n              dup1\n              revert\n            tag_31:\n              pop\n              tag_32\n              tag_33\n              jump\t// in\n            tag_32:\n              mload(0x40)\n              tag_34\n              swap2\n              swap1\n              tag_16\n              jump\t// in\n            tag_34:\n              mload(0x40)\n              dup1\n              swap2\n              sub\n              swap1\n              return\n                /* \"Contracts\":5637:5668  address public failureRecipient */\n            tag_7:\n              callvalue\n              dup1\n              iszero\n              tag_35\n              jumpi\n              0x00\n              dup1\n              revert\n            tag_35:\n              pop\n              tag_36\n              tag_37\n              jump\t// in\n            tag_36:\n              mload(0x40)\n              tag_38\n              swap2\n              swap1\n              tag_16\n              jump\t// in\n            tag_38:\n              mload(0x40)\n              dup1\n              swap2\n              sub\n              swap1\n              return\n                /* \"Contracts\":5606:5631  string public description */\n            tag_8:\n              callvalue\n              dup1\n              iszero\n              tag_39\n              jumpi\n              0x00\n              dup1\n              revert\n            tag_39:\n              pop\n              tag_40\n              tag_41\n              jump\t// in\n            tag_40:\n              mload(0x40)\n              tag_42\n              swap2\n              swap1\n              tag_21\n              jump\t// in\n            tag_42:\n              mload(0x40)\n              dup1\n              swap2\n              sub\n              swap1\n              return\n                /* \"Contracts\":5674:5692  uint public amount */\n            tag_9:\n              callvalue\n              dup1\n              iszero\n              tag_43\n              jumpi\n              0x00\n              dup1\n              revert\n            tag_43:\n              pop\n              tag_44\n              tag_45\n              jump\t// in\n            tag_44:\n              mload(0x40)\n              tag_46\n              swap2\n              swap1\n              tag_47\n              jump\t// in\n            tag_46:\n              mload(0x40)\n              dup1\n              swap2\n              sub\n              swap1\n              return\n                /* \"Contracts\":6552:6837  function completeContract() public payable restricted returns (AccountabilityContract) {... */\n            tag_10:\n              tag_48\n              tag_49\n              jump\t// in\n            tag_48:\n              mload(0x40)\n              tag_50\n              swap2\n              swap1\n              tag_30\n              jump\t// in\n            tag_50:\n              mload(0x40)\n              dup1\n              swap2\n              sub\n              swap1\n              return\n                /* \"Contracts\":5526:5548  address public creator */\n            tag_14:\n              0x00\n              dup1\n              sload\n              swap1\n              0x0100\n              exp\n              swap1\n              div\n              0xffffffffffffffffffffffffffffffffffffffff\n              and\n              dup2\n              jump\t// out\n                /* \"Contracts\":5582:5600  string public name */\n            tag_19:\n              0x02\n              dup1\n              sload\n              tag_51\n              swap1\n              tag_52\n              jump\t// in\n            tag_51:\n              dup1\n              0x1f\n              add\n              0x20\n              dup1\n              swap2\n              div\n              mul\n              0x20\n              add\n              mload(0x40)\n              swap1\n              dup2\n              add\n              0x40\n              mstore\n              dup1\n              swap3\n              swap2\n              swap1\n              dup2\n              dup2\n              mstore\n              0x20\n              add\n              dup3\n              dup1\n              sload\n              tag_53\n              swap1\n              tag_52\n              jump\t// in\n            tag_53:\n              dup1\n              iszero\n              tag_54\n              jumpi\n              dup1\n              0x1f\n              lt\n              tag_55\n              jumpi\n              0x0100\n              dup1\n              dup4\n              sload\n              div\n              mul\n              dup4\n              mstore\n              swap2\n              0x20\n              add\n              swap2\n              jump(tag_54)\n            tag_55:\n              dup3\n              add\n              swap2\n              swap1\n              0x00\n              mstore\n              keccak256(0x00, 0x20)\n              swap1\n            tag_56:\n              dup2\n              sload\n              dup2\n              mstore\n              swap1\n              0x01\n              add\n              swap1\n              0x20\n              add\n              dup1\n              dup4\n              gt\n              tag_56\n              jumpi\n              dup3\n              swap1\n              sub\n              0x1f\n              and\n              dup3\n              add\n              swap2\n            tag_54:\n              pop\n              pop\n              pop\n              pop\n              pop\n              dup2\n              jump\t// out\n                /* \"Contracts\":5698:5718  Status public status */\n            tag_24:\n              0x06\n              0x00\n              swap1\n              sload\n              swap1\n              0x0100\n              exp\n              swap1\n              div\n              0xff\n              and\n              dup2\n              jump\t// out\n                /* \"Contracts\":6226:6545  function failContract() public payable restricted returns (AccountabilityContract) {... */\n            tag_28:\n                /* \"Contracts\":6285:6307  AccountabilityContract */\n              0x00\n                /* \"Contracts\":6150:6161  Status.OPEN */\n              dup1\n                /* \"Contracts\":6140:6161  status == Status.OPEN */\n              0x02\n              dup2\n              gt\n              iszero\n              tag_58\n              jumpi\n              tag_59\n              tag_60\n              jump\t// in\n            tag_59:\n            tag_58:\n                /* \"Contracts\":6140:6146  status */\n              0x06\n              0x00\n              swap1\n              sload\n              swap1\n              0x0100\n              exp\n              swap1\n              div\n              0xff\n              and\n                /* \"Contracts\":6140:6161  status == Status.OPEN */\n              0x02\n              dup2\n              gt\n              iszero\n              tag_61\n              jumpi\n              tag_62\n              tag_60\n              jump\t// in\n            tag_62:\n            tag_61:\n              eq\n                /* \"Contracts\":6132:6202  require(status == Status.OPEN, \"Contract status is not equal to open\") */\n              tag_63\n              jumpi\n              mload(0x40)\n              0x08c379a000000000000000000000000000000000000000000000000000000000\n              dup2\n              mstore\n              0x04\n              add\n              tag_64\n              swap1\n              tag_65\n              jump\t// in\n            tag_64:\n              mload(0x40)\n              dup1\n              swap2\n              sub\n              swap1\n              revert\n            tag_63:\n                /* \"Contracts\":6340:6347  referee */\n              0x01\n              0x00\n              swap1\n              sload\n              swap1\n              0x0100\n              exp\n              swap1\n              div\n              0xffffffffffffffffffffffffffffffffffffffff\n              and\n                /* \"Contracts\":6327:6347  tx.origin == referee */\n              0xffffffffffffffffffffffffffffffffffffffff\n              and\n                /* \"Contracts\":6327:6336  tx.origin */\n              origin\n                /* \"Contracts\":6327:6347  tx.origin == referee */\n              0xffffffffffffffffffffffffffffffffffffffff\n              and\n              eq\n                /* \"Contracts\":6327:6371  tx.origin == referee || tx.origin == creator */\n              dup1\n              tag_67\n              jumpi\n              pop\n                /* \"Contracts\":6364:6371  creator */\n              0x00\n              dup1\n              sload\n              swap1\n              0x0100\n              exp\n              swap1\n              div\n              0xffffffffffffffffffffffffffffffffffffffff\n              and\n                /* \"Contracts\":6351:6371  tx.origin == creator */\n              0xffffffffffffffffffffffffffffffffffffffff\n              and\n                /* \"Contracts\":6351:6360  tx.origin */\n              origin\n                /* \"Contracts\":6351:6371  tx.origin == creator */\n              0xffffffffffffffffffffffffffffffffffffffff\n              and\n              eq\n                /* \"Contracts\":6327:6371  tx.origin == referee || tx.origin == creator */\n            tag_67:\n                /* \"Contracts\":6319:6417  require(tx.origin == referee || tx.origin == creator, \"Only referee or creator can fail contract\") */\n              tag_68\n              jumpi\n              mload(0x40)\n              0x08c379a000000000000000000000000000000000000000000000000000000000\n              dup2\n              mstore\n              0x04\n              add\n              tag_69\n              swap1\n              tag_70\n              jump\t// in\n            tag_69:\n              mload(0x40)\n              dup1\n              swap2\n              sub\n              swap1\n              revert\n            tag_68:\n                /* \"Contracts\":6435:6451  failureRecipient */\n              0x04\n              0x00\n              swap1\n              sload\n              swap1\n              0x0100\n              exp\n              swap1\n              div\n              0xffffffffffffffffffffffffffffffffffffffff\n              and\n                /* \"Contracts\":6427:6461  payable(failureRecipient).transfer */\n              0xffffffffffffffffffffffffffffffffffffffff\n              and\n                /* \"Contracts\":6427:6484  payable(failureRecipient).transfer(address(this).balance) */\n              0x08fc\n                /* \"Contracts\":6462:6483  address(this).balance */\n              selfbalance\n                /* \"Contracts\":6427:6484  payable(failureRecipient).transfer(address(this).balance) */\n              swap1\n              dup2\n              iszero\n              mul\n              swap1\n              mload(0x40)\n              0x00\n              mload(0x40)\n              dup1\n              dup4\n              sub\n              dup2\n              dup6\n              dup9\n              dup9\n              call\n              swap4\n              pop\n              pop\n              pop\n              pop\n              iszero\n              dup1\n              iszero\n              tag_72\n              jumpi\n              returndatasize\n              0x00\n              dup1\n              returndatacopy\n              revert(0x00, returndatasize)\n            tag_72:\n              pop\n                /* \"Contracts\":6503:6517  Status.FAILURE */\n              0x02\n                /* \"Contracts\":6494:6500  status */\n              0x06\n              0x00\n                /* \"Contracts\":6494:6517  status = Status.FAILURE */\n              0x0100\n              exp\n              dup2\n              sload\n              dup2\n              0xff\n              mul\n              not\n              and\n              swap1\n              dup4\n              0x02\n              dup2\n              gt\n              iszero\n              tag_73\n              jumpi\n              tag_74\n              tag_60\n              jump\t// in\n            tag_74:\n            tag_73:\n              mul\n              or\n              swap1\n              sstore\n              pop\n                /* \"Contracts\":6534:6538  this */\n              address\n                /* \"Contracts\":6527:6538  return this */\n              swap1\n              pop\n                /* \"Contracts\":6226:6545  function failContract() public payable restricted returns (AccountabilityContract) {... */\n              swap1\n              jump\t// out\n                /* \"Contracts\":5554:5576  address public referee */\n            tag_33:\n              0x01\n              0x00\n              swap1\n              sload\n              swap1\n              0x0100\n              exp\n              swap1\n              div\n              0xffffffffffffffffffffffffffffffffffffffff\n              and\n              dup2\n              jump\t// out\n                /* \"Contracts\":5637:5668  address public failureRecipient */\n            tag_37:\n              0x04\n              0x00\n              swap1\n              sload\n              swap1\n              0x0100\n              exp\n              swap1\n              div\n              0xffffffffffffffffffffffffffffffffffffffff\n              and\n              dup2\n              jump\t// out\n                /* \"Contracts\":5606:5631  string public description */\n            tag_41:\n              0x03\n              dup1\n              sload\n              tag_75\n              swap1\n              tag_52\n              jump\t// in\n            tag_75:\n              dup1\n              0x1f\n              add\n              0x20\n              dup1\n              swap2\n              div\n              mul\n              0x20\n              add\n              mload(0x40)\n              swap1\n              dup2\n              add\n              0x40\n              mstore\n              dup1\n              swap3\n              swap2\n              swap1\n              dup2\n              dup2\n              mstore\n              0x20\n              add\n              dup3\n              dup1\n              sload\n              tag_76\n              swap1\n              tag_52\n              jump\t// in\n            tag_76:\n              dup1\n              iszero\n              tag_77\n              jumpi\n              dup1\n              0x1f\n              lt\n              tag_78\n              jumpi\n              0x0100\n              dup1\n              dup4\n              sload\n              div\n              mul\n              dup4\n              mstore\n              swap2\n              0x20\n              add\n              swap2\n              jump(tag_77)\n            tag_78:\n              dup3\n              add\n              swap2\n              swap1\n              0x00\n              mstore\n              keccak256(0x00, 0x20)\n              swap1\n            tag_79:\n              dup2\n              sload\n              dup2\n              mstore\n              swap1\n              0x01\n              add\n              swap1\n              0x20\n              add\n              dup1\n              dup4\n              gt\n              tag_79\n              jumpi\n              dup3\n              swap1\n              sub\n              0x1f\n              and\n              dup3\n              add\n              swap2\n            tag_77:\n              pop\n              pop\n              pop\n              pop\n              pop\n              dup2\n              jump\t// out\n                /* \"Contracts\":5674:5692  uint public amount */\n            tag_45:\n              sload(0x05)\n              dup2\n              jump\t// out\n                /* \"Contracts\":6552:6837  function completeContract() public payable restricted returns (AccountabilityContract) {... */\n            tag_49:\n                /* \"Contracts\":6615:6637  AccountabilityContract */\n              0x00\n                /* \"Contracts\":6150:6161  Status.OPEN */\n              dup1\n                /* \"Contracts\":6140:6161  status == Status.OPEN */\n              0x02\n              dup2\n              gt\n              iszero\n              tag_81\n              jumpi\n              tag_82\n              tag_60\n              jump\t// in\n            tag_82:\n            tag_81:\n                /* \"Contracts\":6140:6146  status */\n              0x06\n              0x00\n              swap1\n              sload\n              swap1\n              0x0100\n              exp\n              swap1\n              div\n              0xff\n              and\n                /* \"Contracts\":6140:6161  status == Status.OPEN */\n              0x02\n              dup2\n              gt\n              iszero\n              tag_83\n              jumpi\n              tag_84\n              tag_60\n              jump\t// in\n            tag_84:\n            tag_83:\n              eq\n                /* \"Contracts\":6132:6202  require(status == Status.OPEN, \"Contract status is not equal to open\") */\n              tag_85\n              jumpi\n              mload(0x40)\n              0x08c379a000000000000000000000000000000000000000000000000000000000\n              dup2\n              mstore\n              0x04\n              add\n              tag_86\n              swap1\n              tag_65\n              jump\t// in\n            tag_86:\n              mload(0x40)\n              dup1\n              swap2\n              sub\n              swap1\n              revert\n            tag_85:\n                /* \"Contracts\":6670:6677  referee */\n              0x01\n              0x00\n              swap1\n              sload\n              swap1\n              0x0100\n              exp\n              swap1\n              div\n              0xffffffffffffffffffffffffffffffffffffffff\n              and\n                /* \"Contracts\":6657:6677  tx.origin == referee */\n              0xffffffffffffffffffffffffffffffffffffffff\n              and\n                /* \"Contracts\":6657:6666  tx.origin */\n              origin\n                /* \"Contracts\":6657:6677  tx.origin == referee */\n              0xffffffffffffffffffffffffffffffffffffffff\n              and\n              eq\n                /* \"Contracts\":6649:6718  require(tx.origin == referee, \"Only referee can complete a contract\") */\n              tag_88\n              jumpi\n              mload(0x40)\n              0x08c379a000000000000000000000000000000000000000000000000000000000\n              dup2\n              mstore\n              0x04\n              add\n              tag_89\n              swap1\n              tag_90\n              jump\t// in\n            tag_89:\n              mload(0x40)\n              dup1\n              swap2\n              sub\n              swap1\n              revert\n            tag_88:\n                /* \"Contracts\":6736:6743  creator */\n              0x00\n              dup1\n              sload\n              swap1\n              0x0100\n              exp\n              swap1\n              div\n              0xffffffffffffffffffffffffffffffffffffffff\n              and\n                /* \"Contracts\":6728:6753  payable(creator).transfer */\n              0xffffffffffffffffffffffffffffffffffffffff\n              and\n                /* \"Contracts\":6728:6776  payable(creator).transfer(address(this).balance) */\n              0x08fc\n                /* \"Contracts\":6754:6775  address(this).balance */\n              selfbalance\n                /* \"Contracts\":6728:6776  payable(creator).transfer(address(this).balance) */\n              swap1\n              dup2\n              iszero\n              mul\n              swap1\n              mload(0x40)\n              0x00\n              mload(0x40)\n              dup1\n              dup4\n              sub\n              dup2\n              dup6\n              dup9\n              dup9\n              call\n              swap4\n              pop\n              pop\n              pop\n              pop\n              iszero\n              dup1\n              iszero\n              tag_92\n              jumpi\n              returndatasize\n              0x00\n              dup1\n              returndatacopy\n              revert(0x00, returndatasize)\n            tag_92:\n              pop\n                /* \"Contracts\":6795:6809  Status.SUCCESS */\n              0x01\n                /* \"Contracts\":6786:6792  status */\n              0x06\n              0x00\n                /* \"Contracts\":6786:6809  status = Status.SUCCESS */\n              0x0100\n              exp\n              dup2\n              sload\n              dup2\n              0xff\n              mul\n              not\n              and\n              swap1\n              dup4\n              0x02\n              dup2\n              gt\n              iszero\n              tag_93\n              jumpi\n              tag_94\n              tag_60\n              jump\t// in\n            tag_94:\n            tag_93:\n              mul\n              or\n              swap1\n              sstore\n              pop\n                /* \"Contracts\":6826:6830  this */\n              address\n                /* \"Contracts\":6819:6830  return this */\n              swap1\n              pop\n                /* \"Contracts\":6552:6837  function completeContract() public payable restricted returns (AccountabilityContract) {... */\n              swap1\n              jump\t// out\n                /* \"#utility.yul\":7:133   */\n            tag_95:\n                /* \"#utility.yul\":44:51   */\n              0x00\n                /* \"#utility.yul\":84:126   */\n              0xffffffffffffffffffffffffffffffffffffffff\n                /* \"#utility.yul\":77:82   */\n              dup3\n                /* \"#utility.yul\":73:127   */\n              and\n                /* \"#utility.yul\":62:127   */\n              swap1\n              pop\n                /* \"#utility.yul\":7:133   */\n              swap2\n              swap1\n              pop\n              jump\t// out\n                /* \"#utility.yul\":139:235   */\n            tag_96:\n                /* \"#utility.yul\":176:183   */\n              0x00\n                /* \"#utility.yul\":205:229   */\n              tag_124\n                /* \"#utility.yul\":223:228   */\n              dup3\n                /* \"#utility.yul\":205:229   */\n              tag_95\n              jump\t// in\n            tag_124:\n                /* \"#utility.yul\":194:229   */\n              swap1\n              pop\n                /* \"#utility.yul\":139:235   */\n              swap2\n              swap1\n              pop\n              jump\t// out\n                /* \"#utility.yul\":241:359   */\n            tag_97:\n                /* \"#utility.yul\":328:352   */\n              tag_126\n                /* \"#utility.yul\":346:351   */\n              dup2\n                /* \"#utility.yul\":328:352   */\n              tag_96\n              jump\t// in\n            tag_126:\n                /* \"#utility.yul\":323:326   */\n              dup3\n                /* \"#utility.yul\":316:353   */\n              mstore\n                /* \"#utility.yul\":241:359   */\n              pop\n              pop\n              jump\t// out\n                /* \"#utility.yul\":365:587   */\n            tag_16:\n                /* \"#utility.yul\":458:462   */\n              0x00\n                /* \"#utility.yul\":496:498   */\n              0x20\n                /* \"#utility.yul\":485:494   */\n              dup3\n                /* \"#utility.yul\":481:499   */\n              add\n                /* \"#utility.yul\":473:499   */\n              swap1\n              pop\n                /* \"#utility.yul\":509:580   */\n              tag_128\n                /* \"#utility.yul\":577:578   */\n              0x00\n                /* \"#utility.yul\":566:575   */\n              dup4\n                /* \"#utility.yul\":562:579   */\n              add\n                /* \"#utility.yul\":553:559   */\n              dup5\n                /* \"#utility.yul\":509:580   */\n              tag_97\n              jump\t// in\n            tag_128:\n                /* \"#utility.yul\":365:587   */\n              swap3\n              swap2\n              pop\n              pop\n              jump\t// out\n                /* \"#utility.yul\":593:692   */\n            tag_98:\n                /* \"#utility.yul\":645:651   */\n              0x00\n                /* \"#utility.yul\":679:684   */\n              dup2\n                /* \"#utility.yul\":673:685   */\n              mload\n                /* \"#utility.yul\":663:685   */\n              swap1\n              pop\n                /* \"#utility.yul\":593:692   */\n              swap2\n              swap1\n              pop\n              jump\t// out\n                /* \"#utility.yul\":698:867   */\n            tag_99:\n                /* \"#utility.yul\":782:793   */\n              0x00\n                /* \"#utility.yul\":816:822   */\n              dup3\n                /* \"#utility.yul\":811:814   */\n              dup3\n                /* \"#utility.yul\":804:823   */\n              mstore\n                /* \"#utility.yul\":856:860   */\n              0x20\n                /* \"#utility.yul\":851:854   */\n              dup3\n                /* \"#utility.yul\":847:861   */\n              add\n                /* \"#utility.yul\":832:861   */\n              swap1\n              pop\n                /* \"#utility.yul\":698:867   */\n              swap3\n              swap2\n              pop\n              pop\n              jump\t// out\n                /* \"#utility.yul\":873:1180   */\n            tag_100:\n                /* \"#utility.yul\":941:942   */\n              0x00\n                /* \"#utility.yul\":951:1064   */\n            tag_132:\n                /* \"#utility.yul\":965:971   */\n              dup4\n                /* \"#utility.yul\":962:963   */\n              dup2\n                /* \"#utility.yul\":959:972   */\n              lt\n                /* \"#utility.yul\":951:1064   */\n              iszero\n              tag_134\n              jumpi\n                /* \"#utility.yul\":1050:1051   */\n              dup1\n                /* \"#utility.yul\":1045:1048   */\n              dup3\n                /* \"#utility.yul\":1041:1052   */\n              add\n                /* \"#utility.yul\":1035:1053   */\n              mload\n                /* \"#utility.yul\":1031:1032   */\n              dup2\n                /* \"#utility.yul\":1026:1029   */\n              dup5\n                /* \"#utility.yul\":1022:1033   */\n              add\n                /* \"#utility.yul\":1015:1054   */\n              mstore\n                /* \"#utility.yul\":987:989   */\n              0x20\n                /* \"#utility.yul\":984:985   */\n              dup2\n                /* \"#utility.yul\":980:990   */\n              add\n                /* \"#utility.yul\":975:990   */\n              swap1\n              pop\n                /* \"#utility.yul\":951:1064   */\n              jump(tag_132)\n            tag_134:\n                /* \"#utility.yul\":1082:1088   */\n              dup4\n                /* \"#utility.yul\":1079:1080   */\n              dup2\n                /* \"#utility.yul\":1076:1089   */\n              gt\n                /* \"#utility.yul\":1073:1174   */\n              iszero\n              tag_135\n              jumpi\n                /* \"#utility.yul\":1162:1163   */\n              0x00\n                /* \"#utility.yul\":1153:1159   */\n              dup5\n                /* \"#utility.yul\":1148:1151   */\n              dup5\n                /* \"#utility.yul\":1144:1160   */\n              add\n                /* \"#utility.yul\":1137:1164   */\n              mstore\n                /* \"#utility.yul\":1073:1174   */\n            tag_135:\n                /* \"#utility.yul\":922:1180   */\n              pop\n                /* \"#utility.yul\":873:1180   */\n              pop\n              pop\n              pop\n              jump\t// out\n                /* \"#utility.yul\":1186:1288   */\n            tag_101:\n                /* \"#utility.yul\":1227:1233   */\n              0x00\n                /* \"#utility.yul\":1278:1280   */\n              0x1f\n                /* \"#utility.yul\":1274:1281   */\n              not\n                /* \"#utility.yul\":1269:1271   */\n              0x1f\n                /* \"#utility.yul\":1262:1267   */\n              dup4\n                /* \"#utility.yul\":1258:1272   */\n              add\n                /* \"#utility.yul\":1254:1282   */\n              and\n                /* \"#utility.yul\":1244:1282   */\n              swap1\n              pop\n                /* \"#utility.yul\":1186:1288   */\n              swap2\n              swap1\n              pop\n              jump\t// out\n                /* \"#utility.yul\":1294:1658   */\n            tag_102:\n                /* \"#utility.yul\":1382:1385   */\n              0x00\n                /* \"#utility.yul\":1410:1449   */\n              tag_138\n                /* \"#utility.yul\":1443:1448   */\n              dup3\n                /* \"#utility.yul\":1410:1449   */\n              tag_98\n              jump\t// in\n            tag_138:\n                /* \"#utility.yul\":1465:1536   */\n              tag_139\n                /* \"#utility.yul\":1529:1535   */\n              dup2\n                /* \"#utility.yul\":1524:1527   */\n              dup6\n                /* \"#utility.yul\":1465:1536   */\n              tag_99\n              jump\t// in\n            tag_139:\n                /* \"#utility.yul\":1458:1536   */\n              swap4\n              pop\n                /* \"#utility.yul\":1545:1597   */\n              tag_140\n                /* \"#utility.yul\":1590:1596   */\n              dup2\n                /* \"#utility.yul\":1585:1588   */\n              dup6\n                /* \"#utility.yul\":1578:1582   */\n              0x20\n                /* \"#utility.yul\":1571:1576   */\n              dup7\n                /* \"#utility.yul\":1567:1583   */\n              add\n                /* \"#utility.yul\":1545:1597   */\n              tag_100\n              jump\t// in\n            tag_140:\n                /* \"#utility.yul\":1622:1651   */\n              tag_141\n                /* \"#utility.yul\":1644:1650   */\n              dup2\n                /* \"#utility.yul\":1622:1651   */\n              tag_101\n              jump\t// in\n            tag_141:\n                /* \"#utility.yul\":1617:1620   */\n              dup5\n                /* \"#utility.yul\":1613:1652   */\n              add\n                /* \"#utility.yul\":1606:1652   */\n              swap2\n              pop\n                /* \"#utility.yul\":1386:1658   */\n              pop\n                /* \"#utility.yul\":1294:1658   */\n              swap3\n              swap2\n              pop\n              pop\n              jump\t// out\n                /* \"#utility.yul\":1664:1977   */\n            tag_21:\n                /* \"#utility.yul\":1777:1781   */\n              0x00\n                /* \"#utility.yul\":1815:1817   */\n              0x20\n                /* \"#utility.yul\":1804:1813   */\n              dup3\n                /* \"#utility.yul\":1800:1818   */\n              add\n                /* \"#utility.yul\":1792:1818   */\n              swap1\n              pop\n                /* \"#utility.yul\":1864:1873   */\n              dup2\n                /* \"#utility.yul\":1858:1862   */\n              dup2\n                /* \"#utility.yul\":1854:1874   */\n              sub\n                /* \"#utility.yul\":1850:1851   */\n              0x00\n                /* \"#utility.yul\":1839:1848   */\n              dup4\n                /* \"#utility.yul\":1835:1852   */\n              add\n                /* \"#utility.yul\":1828:1875   */\n              mstore\n                /* \"#utility.yul\":1892:1970   */\n              tag_143\n                /* \"#utility.yul\":1965:1969   */\n              dup2\n                /* \"#utility.yul\":1956:1962   */\n              dup5\n                /* \"#utility.yul\":1892:1970   */\n              tag_102\n              jump\t// in\n            tag_143:\n                /* \"#utility.yul\":1884:1970   */\n              swap1\n              pop\n                /* \"#utility.yul\":1664:1977   */\n              swap3\n              swap2\n              pop\n              pop\n              jump\t// out\n                /* \"#utility.yul\":1983:2163   */\n            tag_60:\n                /* \"#utility.yul\":2031:2108   */\n              0x4e487b7100000000000000000000000000000000000000000000000000000000\n                /* \"#utility.yul\":2028:2029   */\n              0x00\n                /* \"#utility.yul\":2021:2109   */\n              mstore\n                /* \"#utility.yul\":2128:2132   */\n              0x21\n                /* \"#utility.yul\":2125:2126   */\n              0x04\n                /* \"#utility.yul\":2118:2133   */\n              mstore\n                /* \"#utility.yul\":2152:2156   */\n              0x24\n                /* \"#utility.yul\":2149:2150   */\n              0x00\n                /* \"#utility.yul\":2142:2157   */\n              revert\n                /* \"#utility.yul\":2169:2284   */\n            tag_103:\n                /* \"#utility.yul\":2252:2253   */\n              0x03\n                /* \"#utility.yul\":2245:2250   */\n              dup2\n                /* \"#utility.yul\":2242:2254   */\n              lt\n                /* \"#utility.yul\":2232:2278   */\n              tag_146\n              jumpi\n                /* \"#utility.yul\":2258:2276   */\n              tag_147\n              tag_60\n              jump\t// in\n            tag_147:\n                /* \"#utility.yul\":2232:2278   */\n            tag_146:\n                /* \"#utility.yul\":2169:2284   */\n              pop\n              jump\t// out\n                /* \"#utility.yul\":2290:2421   */\n            tag_104:\n                /* \"#utility.yul\":2337:2344   */\n              0x00\n                /* \"#utility.yul\":2366:2371   */\n              dup2\n                /* \"#utility.yul\":2355:2371   */\n              swap1\n              pop\n                /* \"#utility.yul\":2372:2415   */\n              tag_149\n                /* \"#utility.yul\":2409:2414   */\n              dup3\n                /* \"#utility.yul\":2372:2415   */\n              tag_103\n              jump\t// in\n            tag_149:\n                /* \"#utility.yul\":2290:2421   */\n              swap2\n              swap1\n              pop\n              jump\t// out\n                /* \"#utility.yul\":2427:2558   */\n            tag_105:\n                /* \"#utility.yul\":2485:2494   */\n              0x00\n                /* \"#utility.yul\":2518:2552   */\n              tag_151\n                /* \"#utility.yul\":2546:2551   */\n              dup3\n                /* \"#utility.yul\":2518:2552   */\n              tag_104\n              jump\t// in\n            tag_151:\n                /* \"#utility.yul\":2505:2552   */\n              swap1\n              pop\n                /* \"#utility.yul\":2427:2558   */\n              swap2\n              swap1\n              pop\n              jump\t// out\n                /* \"#utility.yul\":2564:2711   */\n            tag_106:\n                /* \"#utility.yul\":2659:2704   */\n              tag_153\n                /* \"#utility.yul\":2698:2703   */\n              dup2\n                /* \"#utility.yul\":2659:2704   */\n              tag_105\n              jump\t// in\n            tag_153:\n                /* \"#utility.yul\":2654:2657   */\n              dup3\n                /* \"#utility.yul\":2647:2705   */\n              mstore\n                /* \"#utility.yul\":2564:2711   */\n              pop\n              pop\n              jump\t// out\n                /* \"#utility.yul\":2717:2955   */\n            tag_26:\n                /* \"#utility.yul\":2818:2822   */\n              0x00\n                /* \"#utility.yul\":2856:2858   */\n              0x20\n                /* \"#utility.yul\":2845:2854   */\n              dup3\n                /* \"#utility.yul\":2841:2859   */\n              add\n                /* \"#utility.yul\":2833:2859   */\n              swap1\n              pop\n                /* \"#utility.yul\":2869:2948   */\n              tag_155\n                /* \"#utility.yul\":2945:2946   */\n              0x00\n                /* \"#utility.yul\":2934:2943   */\n              dup4\n                /* \"#utility.yul\":2930:2947   */\n              add\n                /* \"#utility.yul\":2921:2927   */\n              dup5\n                /* \"#utility.yul\":2869:2948   */\n              tag_106\n              jump\t// in\n            tag_155:\n                /* \"#utility.yul\":2717:2955   */\n              swap3\n              swap2\n              pop\n              pop\n              jump\t// out\n                /* \"#utility.yul\":2961:3021   */\n            tag_107:\n                /* \"#utility.yul\":2989:2992   */\n              0x00\n                /* \"#utility.yul\":3010:3015   */\n              dup2\n                /* \"#utility.yul\":3003:3015   */\n              swap1\n              pop\n                /* \"#utility.yul\":2961:3021   */\n              swap2\n              swap1\n              pop\n              jump\t// out\n                /* \"#utility.yul\":3027:3169   */\n            tag_108:\n                /* \"#utility.yul\":3077:3086   */\n              0x00\n                /* \"#utility.yul\":3110:3163   */\n              tag_158\n                /* \"#utility.yul\":3128:3162   */\n              tag_159\n                /* \"#utility.yul\":3137:3161   */\n              tag_160\n                /* \"#utility.yul\":3155:3160   */\n              dup5\n                /* \"#utility.yul\":3137:3161   */\n              tag_95\n              jump\t// in\n            tag_160:\n                /* \"#utility.yul\":3128:3162   */\n              tag_107\n              jump\t// in\n            tag_159:\n                /* \"#utility.yul\":3110:3163   */\n              tag_95\n              jump\t// in\n            tag_158:\n                /* \"#utility.yul\":3097:3163   */\n              swap1\n              pop\n                /* \"#utility.yul\":3027:3169   */\n              swap2\n              swap1\n              pop\n              jump\t// out\n                /* \"#utility.yul\":3175:3301   */\n            tag_109:\n                /* \"#utility.yul\":3225:3234   */\n              0x00\n                /* \"#utility.yul\":3258:3295   */\n              tag_162\n                /* \"#utility.yul\":3289:3294   */\n              dup3\n                /* \"#utility.yul\":3258:3295   */\n              tag_108\n              jump\t// in\n            tag_162:\n                /* \"#utility.yul\":3245:3295   */\n              swap1\n              pop\n                /* \"#utility.yul\":3175:3301   */\n              swap2\n              swap1\n              pop\n              jump\t// out\n                /* \"#utility.yul\":3307:3463   */\n            tag_110:\n                /* \"#utility.yul\":3387:3396   */\n              0x00\n                /* \"#utility.yul\":3420:3457   */\n              tag_164\n                /* \"#utility.yul\":3451:3456   */\n              dup3\n                /* \"#utility.yul\":3420:3457   */\n              tag_109\n              jump\t// in\n            tag_164:\n                /* \"#utility.yul\":3407:3457   */\n              swap1\n              pop\n                /* \"#utility.yul\":3307:3463   */\n              swap2\n              swap1\n              pop\n              jump\t// out\n                /* \"#utility.yul\":3469:3660   */\n            tag_111:\n                /* \"#utility.yul\":3586:3653   */\n              tag_166\n                /* \"#utility.yul\":3647:3652   */\n              dup2\n                /* \"#utility.yul\":3586:3653   */\n              tag_110\n              jump\t// in\n            tag_166:\n                /* \"#utility.yul\":3581:3584   */\n              dup3\n                /* \"#utility.yul\":3574:3654   */\n              mstore\n                /* \"#utility.yul\":3469:3660   */\n              pop\n              pop\n              jump\t// out\n                /* \"#utility.yul\":3666:3948   */\n            tag_30:\n                /* \"#utility.yul\":3789:3793   */\n              0x00\n                /* \"#utility.yul\":3827:3829   */\n              0x20\n                /* \"#utility.yul\":3816:3825   */\n              dup3\n                /* \"#utility.yul\":3812:3830   */\n              add\n                /* \"#utility.yul\":3804:3830   */\n              swap1\n              pop\n                /* \"#utility.yul\":3840:3941   */\n              tag_168\n                /* \"#utility.yul\":3938:3939   */\n              0x00\n                /* \"#utility.yul\":3927:3936   */\n              dup4\n                /* \"#utility.yul\":3923:3940   */\n              add\n                /* \"#utility.yul\":3914:3920   */\n              dup5\n                /* \"#utility.yul\":3840:3941   */\n              tag_111\n              jump\t// in\n            tag_168:\n                /* \"#utility.yul\":3666:3948   */\n              swap3\n              swap2\n              pop\n              pop\n              jump\t// out\n                /* \"#utility.yul\":3954:4031   */\n            tag_112:\n                /* \"#utility.yul\":3991:3998   */\n              0x00\n                /* \"#utility.yul\":4020:4025   */\n              dup2\n                /* \"#utility.yul\":4009:4025   */\n              swap1\n              pop\n                /* \"#utility.yul\":3954:4031   */\n              swap2\n              swap1\n              pop\n              jump\t// out\n                /* \"#utility.yul\":4037:4155   */\n            tag_113:\n                /* \"#utility.yul\":4124:4148   */\n              tag_171\n                /* \"#utility.yul\":4142:4147   */\n              dup2\n                /* \"#utility.yul\":4124:4148   */\n              tag_112\n              jump\t// in\n            tag_171:\n                /* \"#utility.yul\":4119:4122   */\n              dup3\n                /* \"#utility.yul\":4112:4149   */\n              mstore\n                /* \"#utility.yul\":4037:4155   */\n              pop\n              pop\n              jump\t// out\n                /* \"#utility.yul\":4161:4383   */\n            tag_47:\n                /* \"#utility.yul\":4254:4258   */\n              0x00\n                /* \"#utility.yul\":4292:4294   */\n              0x20\n                /* \"#utility.yul\":4281:4290   */\n              dup3\n                /* \"#utility.yul\":4277:4295   */\n              add\n                /* \"#utility.yul\":4269:4295   */\n              swap1\n              pop\n                /* \"#utility.yul\":4305:4376   */\n              tag_173\n                /* \"#utility.yul\":4373:4374   */\n              0x00\n                /* \"#utility.yul\":4362:4371   */\n              dup4\n                /* \"#utility.yul\":4358:4375   */\n              add\n                /* \"#utility.yul\":4349:4355   */\n              dup5\n                /* \"#utility.yul\":4305:4376   */\n              tag_113\n              jump\t// in\n            tag_173:\n                /* \"#utility.yul\":4161:4383   */\n              swap3\n              swap2\n              pop\n              pop\n              jump\t// out\n                /* \"#utility.yul\":4389:4569   */\n            tag_114:\n                /* \"#utility.yul\":4437:4514   */\n              0x4e487b7100000000000000000000000000000000000000000000000000000000\n                /* \"#utility.yul\":4434:4435   */\n              0x00\n                /* \"#utility.yul\":4427:4515   */\n              mstore\n                /* \"#utility.yul\":4534:4538   */\n              0x22\n                /* \"#utility.yul\":4531:4532   */\n              0x04\n                /* \"#utility.yul\":4524:4539   */\n              mstore\n                /* \"#utility.yul\":4558:4562   */\n              0x24\n                /* \"#utility.yul\":4555:4556   */\n              0x00\n                /* \"#utility.yul\":4548:4563   */\n              revert\n                /* \"#utility.yul\":4575:4895   */\n            tag_52:\n                /* \"#utility.yul\":4619:4625   */\n              0x00\n                /* \"#utility.yul\":4656:4657   */\n              0x02\n                /* \"#utility.yul\":4650:4654   */\n              dup3\n                /* \"#utility.yul\":4646:4658   */\n              div\n                /* \"#utility.yul\":4636:4658   */\n              swap1\n              pop\n                /* \"#utility.yul\":4703:4704   */\n              0x01\n                /* \"#utility.yul\":4697:4701   */\n              dup3\n                /* \"#utility.yul\":4693:4705   */\n              and\n                /* \"#utility.yul\":4724:4742   */\n              dup1\n                /* \"#utility.yul\":4714:4795   */\n              tag_176\n              jumpi\n                /* \"#utility.yul\":4780:4784   */\n              0x7f\n                /* \"#utility.yul\":4772:4778   */\n              dup3\n                /* \"#utility.yul\":4768:4785   */\n              and\n                /* \"#utility.yul\":4758:4785   */\n              swap2\n              pop\n                /* \"#utility.yul\":4714:4795   */\n            tag_176:\n                /* \"#utility.yul\":4842:4844   */\n              0x20\n                /* \"#utility.yul\":4834:4840   */\n              dup3\n                /* \"#utility.yul\":4831:4845   */\n              lt\n                /* \"#utility.yul\":4811:4829   */\n              dup2\n                /* \"#utility.yul\":4808:4846   */\n              eq\n                /* \"#utility.yul\":4805:4889   */\n              iszero\n              tag_177\n              jumpi\n                /* \"#utility.yul\":4861:4879   */\n              tag_178\n              tag_114\n              jump\t// in\n            tag_178:\n                /* \"#utility.yul\":4805:4889   */\n            tag_177:\n                /* \"#utility.yul\":4626:4895   */\n              pop\n                /* \"#utility.yul\":4575:4895   */\n              swap2\n              swap1\n              pop\n              jump\t// out\n                /* \"#utility.yul\":4901:5124   */\n            tag_115:\n                /* \"#utility.yul\":5041:5075   */\n              0x436f6e747261637420737461747573206973206e6f7420657175616c20746f20\n                /* \"#utility.yul\":5037:5038   */\n              0x00\n                /* \"#utility.yul\":5029:5035   */\n              dup3\n                /* \"#utility.yul\":5025:5039   */\n              add\n                /* \"#utility.yul\":5018:5076   */\n              mstore\n                /* \"#utility.yul\":5110:5116   */\n              0x6f70656e00000000000000000000000000000000000000000000000000000000\n                /* \"#utility.yul\":5105:5107   */\n              0x20\n                /* \"#utility.yul\":5097:5103   */\n              dup3\n                /* \"#utility.yul\":5093:5108   */\n              add\n                /* \"#utility.yul\":5086:5117   */\n              mstore\n                /* \"#utility.yul\":4901:5124   */\n              pop\n              jump\t// out\n                /* \"#utility.yul\":5130:5496   */\n            tag_116:\n                /* \"#utility.yul\":5272:5275   */\n              0x00\n                /* \"#utility.yul\":5293:5360   */\n              tag_181\n                /* \"#utility.yul\":5357:5359   */\n              0x24\n                /* \"#utility.yul\":5352:5355   */\n              dup4\n                /* \"#utility.yul\":5293:5360   */\n              tag_99\n              jump\t// in\n            tag_181:\n                /* \"#utility.yul\":5286:5360   */\n              swap2\n              pop\n                /* \"#utility.yul\":5369:5462   */\n              tag_182\n                /* \"#utility.yul\":5458:5461   */\n              dup3\n                /* \"#utility.yul\":5369:5462   */\n              tag_115\n              jump\t// in\n            tag_182:\n                /* \"#utility.yul\":5487:5489   */\n              0x40\n                /* \"#utility.yul\":5482:5485   */\n              dup3\n                /* \"#utility.yul\":5478:5490   */\n              add\n                /* \"#utility.yul\":5471:5490   */\n              swap1\n              pop\n                /* \"#utility.yul\":5130:5496   */\n              swap2\n              swap1\n              pop\n              jump\t// out\n                /* \"#utility.yul\":5502:5921   */\n            tag_65:\n                /* \"#utility.yul\":5668:5672   */\n              0x00\n                /* \"#utility.yul\":5706:5708   */\n              0x20\n                /* \"#utility.yul\":5695:5704   */\n              dup3\n                /* \"#utility.yul\":5691:5709   */\n              add\n                /* \"#utility.yul\":5683:5709   */\n              swap1\n              pop\n                /* \"#utility.yul\":5755:5764   */\n              dup2\n                /* \"#utility.yul\":5749:5753   */\n              dup2\n                /* \"#utility.yul\":5745:5765   */\n              sub\n                /* \"#utility.yul\":5741:5742   */\n              0x00\n                /* \"#utility.yul\":5730:5739   */\n              dup4\n                /* \"#utility.yul\":5726:5743   */\n              add\n                /* \"#utility.yul\":5719:5766   */\n              mstore\n                /* \"#utility.yul\":5783:5914   */\n              tag_184\n                /* \"#utility.yul\":5909:5913   */\n              dup2\n                /* \"#utility.yul\":5783:5914   */\n              tag_116\n              jump\t// in\n            tag_184:\n                /* \"#utility.yul\":5775:5914   */\n              swap1\n              pop\n                /* \"#utility.yul\":5502:5921   */\n              swap2\n              swap1\n              pop\n              jump\t// out\n                /* \"#utility.yul\":5927:6155   */\n            tag_117:\n                /* \"#utility.yul\":6067:6101   */\n              0x4f6e6c792072656665726565206f722063726561746f722063616e206661696c\n                /* \"#utility.yul\":6063:6064   */\n              0x00\n                /* \"#utility.yul\":6055:6061   */\n              dup3\n                /* \"#utility.yul\":6051:6065   */\n              add\n                /* \"#utility.yul\":6044:6102   */\n              mstore\n                /* \"#utility.yul\":6136:6147   */\n              0x20636f6e74726163740000000000000000000000000000000000000000000000\n                /* \"#utility.yul\":6131:6133   */\n              0x20\n                /* \"#utility.yul\":6123:6129   */\n              dup3\n                /* \"#utility.yul\":6119:6134   */\n              add\n                /* \"#utility.yul\":6112:6148   */\n              mstore\n                /* \"#utility.yul\":5927:6155   */\n              pop\n              jump\t// out\n                /* \"#utility.yul\":6161:6527   */\n            tag_118:\n                /* \"#utility.yul\":6303:6306   */\n              0x00\n                /* \"#utility.yul\":6324:6391   */\n              tag_187\n                /* \"#utility.yul\":6388:6390   */\n              0x29\n                /* \"#utility.yul\":6383:6386   */\n              dup4\n                /* \"#utility.yul\":6324:6391   */\n              tag_99\n              jump\t// in\n            tag_187:\n                /* \"#utility.yul\":6317:6391   */\n              swap2\n              pop\n                /* \"#utility.yul\":6400:6493   */\n              tag_188\n                /* \"#utility.yul\":6489:6492   */\n              dup3\n                /* \"#utility.yul\":6400:6493   */\n              tag_117\n              jump\t// in\n            tag_188:\n                /* \"#utility.yul\":6518:6520   */\n              0x40\n                /* \"#utility.yul\":6513:6516   */\n              dup3\n                /* \"#utility.yul\":6509:6521   */\n              add\n                /* \"#utility.yul\":6502:6521   */\n              swap1\n              pop\n                /* \"#utility.yul\":6161:6527   */\n              swap2\n              swap1\n              pop\n              jump\t// out\n                /* \"#utility.yul\":6533:6952   */\n            tag_70:\n                /* \"#utility.yul\":6699:6703   */\n              0x00\n                /* \"#utility.yul\":6737:6739   */\n              0x20\n                /* \"#utility.yul\":6726:6735   */\n              dup3\n                /* \"#utility.yul\":6722:6740   */\n              add\n                /* \"#utility.yul\":6714:6740   */\n              swap1\n              pop\n                /* \"#utility.yul\":6786:6795   */\n              dup2\n                /* \"#utility.yul\":6780:6784   */\n              dup2\n                /* \"#utility.yul\":6776:6796   */\n              sub\n                /* \"#utility.yul\":6772:6773   */\n              0x00\n                /* \"#utility.yul\":6761:6770   */\n              dup4\n                /* \"#utility.yul\":6757:6774   */\n              add\n                /* \"#utility.yul\":6750:6797   */\n              mstore\n                /* \"#utility.yul\":6814:6945   */\n              tag_190\n                /* \"#utility.yul\":6940:6944   */\n              dup2\n                /* \"#utility.yul\":6814:6945   */\n              tag_118\n              jump\t// in\n            tag_190:\n                /* \"#utility.yul\":6806:6945   */\n              swap1\n              pop\n                /* \"#utility.yul\":6533:6952   */\n              swap2\n              swap1\n              pop\n              jump\t// out\n                /* \"#utility.yul\":6958:7181   */\n            tag_119:\n                /* \"#utility.yul\":7098:7132   */\n              0x4f6e6c7920726566657265652063616e20636f6d706c657465206120636f6e74\n                /* \"#utility.yul\":7094:7095   */\n              0x00\n                /* \"#utility.yul\":7086:7092   */\n              dup3\n                /* \"#utility.yul\":7082:7096   */\n              add\n                /* \"#utility.yul\":7075:7133   */\n              mstore\n                /* \"#utility.yul\":7167:7173   */\n              0x7261637400000000000000000000000000000000000000000000000000000000\n                /* \"#utility.yul\":7162:7164   */\n              0x20\n                /* \"#utility.yul\":7154:7160   */\n              dup3\n                /* \"#utility.yul\":7150:7165   */\n              add\n                /* \"#utility.yul\":7143:7174   */\n              mstore\n                /* \"#utility.yul\":6958:7181   */\n              pop\n              jump\t// out\n                /* \"#utility.yul\":7187:7553   */\n            tag_120:\n                /* \"#utility.yul\":7329:7332   */\n              0x00\n                /* \"#utility.yul\":7350:7417   */\n              tag_193\n                /* \"#utility.yul\":7414:7416   */\n              0x24\n                /* \"#utility.yul\":7409:7412   */\n              dup4\n                /* \"#utility.yul\":7350:7417   */\n              tag_99\n              jump\t// in\n            tag_193:\n                /* \"#utility.yul\":7343:7417   */\n              swap2\n              pop\n                /* \"#utility.yul\":7426:7519   */\n              tag_194\n                /* \"#utility.yul\":7515:7518   */\n              dup3\n                /* \"#utility.yul\":7426:7519   */\n              tag_119\n              jump\t// in\n            tag_194:\n                /* \"#utility.yul\":7544:7546   */\n              0x40\n                /* \"#utility.yul\":7539:7542   */\n              dup3\n                /* \"#utility.yul\":7535:7547   */\n              add\n                /* \"#utility.yul\":7528:7547   */\n              swap1\n              pop\n                /* \"#utility.yul\":7187:7553   */\n              swap2\n              swap1\n              pop\n              jump\t// out\n                /* \"#utility.yul\":7559:7978   */\n            tag_90:\n                /* \"#utility.yul\":7725:7729   */\n              0x00\n                /* \"#utility.yul\":7763:7765   */\n              0x20\n                /* \"#utility.yul\":7752:7761   */\n              dup3\n                /* \"#utility.yul\":7748:7766   */\n              add\n                /* \"#utility.yul\":7740:7766   */\n              swap1\n              pop\n                /* \"#utility.yul\":7812:7821   */\n              dup2\n                /* \"#utility.yul\":7806:7810   */\n              dup2\n                /* \"#utility.yul\":7802:7822   */\n              sub\n                /* \"#utility.yul\":7798:7799   */\n              0x00\n                /* \"#utility.yul\":7787:7796   */\n              dup4\n                /* \"#utility.yul\":7783:7800   */\n              add\n                /* \"#utility.yul\":7776:7823   */\n              mstore\n                /* \"#utility.yul\":7840:7971   */\n              tag_196\n                /* \"#utility.yul\":7966:7970   */\n              dup2\n                /* \"#utility.yul\":7840:7971   */\n              tag_120\n              jump\t// in\n            tag_196:\n                /* \"#utility.yul\":7832:7971   */\n              swap1\n              pop\n                /* \"#utility.yul\":7559:7978   */\n              swap2\n              swap1\n              pop\n              jump\t// out\n\n            auxdata: 0xa2646970667358221220b571a0d69ef27a82fb7d164771a6ce84fa6403ee970a1cca32a93d0db9ab84f664736f6c634300080c0033\n        }\n    }\n\n    auxdata: 0xa2646970667358221220f6e7110ba24f300f1e34976af7ac6dae7b5f4680fcf9da0c4bd7a4e8a53adf9664736f6c634300080c0033\n}\n","bytecode":{"linkReferences":{},"object":"608060405234801561001057600080fd5b506134df806100206000396000f3fe608060405260043610620000b65760003560e01c806375ce46a7116200006d57806375ce46a714620002415780639051e2341462000271578063a87430ba14620002b5578063b24e67d014620002f9578063b3b6633e146200033d578063e436e826146200036d57620000b6565b806319ee8bd414620000bb5780632bc7decc14620000ff57806333157f34146200012d578063442a7bc7146200017357806364a60b4714620001b757806374baa69c14620001fb575b600080fd5b348015620000c857600080fd5b50620000e76004803603810190620000e1919062001a02565b6200038d565b604051620000f6919062001b02565b60405180910390f35b3480156200010c57600080fd5b506200012b600480360381019062000125919062001b61565b6200045f565b005b3480156200013a57600080fd5b5062000159600480360381019062000153919062001ba8565b62000667565b6040516200016a9392919062001c11565b60405180910390f35b3480156200018057600080fd5b506200019f600480360381019062000199919062001a02565b6200087a565b604051620001ae919062001b02565b60405180910390f35b348015620001c457600080fd5b50620001e36004803603810190620001dd919062001a02565b6200094b565b604051620001f2919062001c55565b60405180910390f35b3480156200020857600080fd5b5062000227600480360381019062000221919062001b61565b62000969565b604051620002389392919062001c11565b60405180910390f35b3480156200024e57600080fd5b506200025962000aff565b60405162000268919062001c55565b60405180910390f35b3480156200027e57600080fd5b506200029d600480360381019062000297919062001a02565b62000b05565b604051620002ac919062001b02565b60405180910390f35b348015620002c257600080fd5b50620002e16004803603810190620002db919062001a02565b62000bd7565b604051620002f0919062001c55565b60405180910390f35b3480156200030657600080fd5b506200032560048036038101906200031f919062001a02565b62000bf5565b60405162000334919062001b02565b60405180910390f35b3480156200034a57600080fd5b506200035562000cc6565b60405162000364919062001c55565b60405180910390f35b6200038b600480360381019062000385919062001e19565b62000ccc565b005b6060600360008373ffffffffffffffffffffffffffffffffffffffff1673ffffffffffffffffffffffffffffffffffffffff1681526020019081526020016000206002018054806020026020016040519081016040528092919081815260200182805480156200045357602002820191906000526020600020905b8160009054906101000a900473ffffffffffffffffffffffffffffffffffffffff1673ffffffffffffffffffffffffffffffffffffffff168152602001906001019080831162000408575b50505050509050919050565b60008060008473ffffffffffffffffffffffffffffffffffffffff1673ffffffffffffffffffffffffffffffffffffffff1681526020019081526020016000206001018281548110620004b757620004b662001ec9565b5b9060005260206000200160009054906101000a900473ffffffffffffffffffffffffffffffffffffffff1690508073ffffffffffffffffffffffffffffffffffffffff1663b4fedc116040518163ffffffff1660e01b81526004016020604051808303816000875af115801562000532573d6000803e3d6000fd5b505050506040513d601f19601f8201168201806040525081019062000558919062001f3d565b50620005658383620010a7565b620006628173ffffffffffffffffffffffffffffffffffffffff16633b1bebd16040518163ffffffff1660e01b8152600401602060405180830381865afa158015620005b5573d6000803e3d6000fd5b505050506040513d601f19601f82011682018060405250810190620005db919062001f86565b6000808673ffffffffffffffffffffffffffffffffffffffff1673ffffffffffffffffffffffffffffffffffffffff168152602001908152602001600020600101848154811062000631576200063062001ec9565b5b9060005260206000200160009054906101000a900473ffffffffffffffffffffffffffffffffffffffff1662001498565b505050565b6000606060008060005b6001600360008973ffffffffffffffffffffffffffffffffffffffff1673ffffffffffffffffffffffffffffffffffffffff16815260200190815260200160002060010180549050620006c5919062001fe7565b8110156200079d578573ffffffffffffffffffffffffffffffffffffffff16600360008973ffffffffffffffffffffffffffffffffffffffff1673ffffffffffffffffffffffffffffffffffffffff16815260200190815260200160002060010182815481106200073b576200073a62001ec9565b5b9060005260206000200160009054906101000a900473ffffffffffffffffffffffffffffffffffffffff1673ffffffffffffffffffffffffffffffffffffffff16141562000787578091505b8080620007949062002022565b91505062000671565b5080600360008873ffffffffffffffffffffffffffffffffffffffff1673ffffffffffffffffffffffffffffffffffffffff16815260200190815260200160002060010186818054806020026020016040519081016040528092919081815260200182805480156200086557602002820191906000526020600020905b8160009054906101000a900473ffffffffffffffffffffffffffffffffffffffff1673ffffffffffffffffffffffffffffffffffffffff16815260200190600101908083116200081a575b50505050509150935093509350509250925092565b60606000808373ffffffffffffffffffffffffffffffffffffffff1673ffffffffffffffffffffffffffffffffffffffff1681526020019081526020016000206001018054806020026020016040519081016040528092919081815260200182805480156200093f57602002820191906000526020600020905b8160009054906101000a900473ffffffffffffffffffffffffffffffffffffffff1673ffffffffffffffffffffffffffffffffffffffff1681526020019060010190808311620008f4575b50505050509050919050565b60036020528060005260406000206000915090508060000154905081565b600060606000806000808773ffffffffffffffffffffffffffffffffffffffff1673ffffffffffffffffffffffffffffffffffffffff1681526020019081526020016000206001018581548110620009c657620009c562001ec9565b5b9060005260206000200160009054906101000a900473ffffffffffffffffffffffffffffffffffffffff1690508073ffffffffffffffffffffffffffffffffffffffff16632d398fa66040518163ffffffff1660e01b81526004016020604051808303816000875af115801562000a41573d6000803e3d6000fd5b505050506040513d601f19601f8201168201806040525081019062000a67919062001f3d565b5062000a748686620010a7565b62000af18173ffffffffffffffffffffffffffffffffffffffff16633b1bebd16040518163ffffffff1660e01b8152600401602060405180830381865afa15801562000ac4573d6000803e3d6000fd5b505050506040513d601f19601f8201168201806040525081019062000aea919062001f86565b8262000667565b935093509350509250925092565b60015481565b6060600360008373ffffffffffffffffffffffffffffffffffffffff1673ffffffffffffffffffffffffffffffffffffffff16815260200190815260200160002060010180548060200260200160405190810160405280929190818152602001828054801562000bcb57602002820191906000526020600020905b8160009054906101000a900473ffffffffffffffffffffffffffffffffffffffff1673ffffffffffffffffffffffffffffffffffffffff168152602001906001019080831162000b80575b50505050509050919050565b60006020528060005260406000206000915090508060000154905081565b60606000808373ffffffffffffffffffffffffffffffffffffffff1673ffffffffffffffffffffffffffffffffffffffff16815260200190815260200160002060020180548060200260200160405190810160405280929190818152602001828054801562000cba57602002820191906000526020600020905b8160009054906101000a900473ffffffffffffffffffffffffffffffffffffffff1673ffffffffffffffffffffffffffffffffffffffff168152602001906001019080831162000c6f575b50505050509050919050565b60045481565b60008060003373ffffffffffffffffffffffffffffffffffffffff1673ffffffffffffffffffffffffffffffffffffffff16815260200190815260200160002060000154141562000d95576001600081548092919062000d2c9062002022565b91905055506002339080600181540180825580915050600190039060005260206000200160009091909190916101000a81548173ffffffffffffffffffffffffffffffffffffffff021916908373ffffffffffffffffffffffffffffffffffffffff1602179055505b6000600360008673ffffffffffffffffffffffffffffffffffffffff1673ffffffffffffffffffffffffffffffffffffffff16815260200190815260200160002060000154141562000e5f576004600081548092919062000df69062002022565b91905055506005849080600181540180825580915050600190039060005260206000200160009091909190916101000a81548173ffffffffffffffffffffffffffffffffffffffff021916908373ffffffffffffffffffffffffffffffffffffffff1602179055505b60003433868686863460405162000e76906200197b565b62000e87969594939291906200216e565b6040518091039082f090508015801562000ea5573d6000803e3d6000fd5b5090506000803373ffffffffffffffffffffffffffffffffffffffff1673ffffffffffffffffffffffffffffffffffffffff168152602001908152602001600020600001600081548092919062000efc9062002022565b91905055506000803373ffffffffffffffffffffffffffffffffffffffff1673ffffffffffffffffffffffffffffffffffffffff168152602001908152602001600020600101819080600181540180825580915050600190039060005260206000200160009091909190916101000a81548173ffffffffffffffffffffffffffffffffffffffff021916908373ffffffffffffffffffffffffffffffffffffffff160217905550600360008673ffffffffffffffffffffffffffffffffffffffff1673ffffffffffffffffffffffffffffffffffffffff168152602001908152602001600020600001600081548092919062000ff89062002022565b9190505550600360008673ffffffffffffffffffffffffffffffffffffffff1673ffffffffffffffffffffffffffffffffffffffff168152602001908152602001600020600101819080600181540180825580915050600190039060005260206000200160009091909190916101000a81548173ffffffffffffffffffffffffffffffffffffffff021916908373ffffffffffffffffffffffffffffffffffffffff1602179055505050505050565b60008060008473ffffffffffffffffffffffffffffffffffffffff1673ffffffffffffffffffffffffffffffffffffffff16815260200190815260200160002060010180549050905080821062001135576040517f08c379a00000000000000000000000000000000000000000000000000000000081526004016200112c906200225f565b60405180910390fd5b60008290505b6001826200114a919062001fe7565b81101562001295576000808573ffffffffffffffffffffffffffffffffffffffff1673ffffffffffffffffffffffffffffffffffffffff168152602001908152602001600020600101600182620011a2919062002281565b81548110620011b657620011b562001ec9565b5b9060005260206000200160009054906101000a900473ffffffffffffffffffffffffffffffffffffffff166000808673ffffffffffffffffffffffffffffffffffffffff1673ffffffffffffffffffffffffffffffffffffffff168152602001908152602001600020600101828154811062001237576200123662001ec9565b5b9060005260206000200160006101000a81548173ffffffffffffffffffffffffffffffffffffffff021916908373ffffffffffffffffffffffffffffffffffffffff16021790555080806200128c9062002022565b9150506200113b565b506000808473ffffffffffffffffffffffffffffffffffffffff1673ffffffffffffffffffffffffffffffffffffffff1681526020019081526020016000206002016000808573ffffffffffffffffffffffffffffffffffffffff1673ffffffffffffffffffffffffffffffffffffffff16815260200190815260200160002060010160016000808773ffffffffffffffffffffffffffffffffffffffff1673ffffffffffffffffffffffffffffffffffffffff168152602001908152602001600020600101805490506200136b919062001fe7565b815481106200137f576200137e62001ec9565b5b9060005260206000200160009054906101000a900473ffffffffffffffffffffffffffffffffffffffff169080600181540180825580915050600190039060005260206000200160009091909190916101000a81548173ffffffffffffffffffffffffffffffffffffffff021916908373ffffffffffffffffffffffffffffffffffffffff1602179055506000808473ffffffffffffffffffffffffffffffffffffffff1673ffffffffffffffffffffffffffffffffffffffff1681526020019081526020016000206001018054806200145e576200145d620022de565b5b6001900381819060005260206000200160006101000a81549073ffffffffffffffffffffffffffffffffffffffff02191690559055505050565b600080600090505b6001600360008673ffffffffffffffffffffffffffffffffffffffff1673ffffffffffffffffffffffffffffffffffffffff16815260200190815260200160002060010180549050620014f4919062001fe7565b811015620015cc578273ffffffffffffffffffffffffffffffffffffffff16600360008673ffffffffffffffffffffffffffffffffffffffff1673ffffffffffffffffffffffffffffffffffffffff16815260200190815260200160002060010182815481106200156a576200156962001ec9565b5b9060005260206000200160009054906101000a900473ffffffffffffffffffffffffffffffffffffffff1673ffffffffffffffffffffffffffffffffffffffff161415620015b6578091505b8080620015c39062002022565b915050620014a0565b5060008190505b6001600360008673ffffffffffffffffffffffffffffffffffffffff1673ffffffffffffffffffffffffffffffffffffffff1681526020019081526020016000206001018054905062001627919062001fe7565b8110156200177457600360008573ffffffffffffffffffffffffffffffffffffffff1673ffffffffffffffffffffffffffffffffffffffff16815260200190815260200160002060010160018262001680919062002281565b8154811062001694576200169362001ec9565b5b9060005260206000200160009054906101000a900473ffffffffffffffffffffffffffffffffffffffff16600360008673ffffffffffffffffffffffffffffffffffffffff1673ffffffffffffffffffffffffffffffffffffffff168152602001908152602001600020600101828154811062001716576200171562001ec9565b5b9060005260206000200160006101000a81548173ffffffffffffffffffffffffffffffffffffffff021916908373ffffffffffffffffffffffffffffffffffffffff16021790555080806200176b9062002022565b915050620015d3565b50600360008473ffffffffffffffffffffffffffffffffffffffff1673ffffffffffffffffffffffffffffffffffffffff168152602001908152602001600020600201600360008573ffffffffffffffffffffffffffffffffffffffff1673ffffffffffffffffffffffffffffffffffffffff1681526020019081526020016000206001016001600360008773ffffffffffffffffffffffffffffffffffffffff1673ffffffffffffffffffffffffffffffffffffffff168152602001908152602001600020600101805490506200184d919062001fe7565b8154811062001861576200186062001ec9565b5b9060005260206000200160009054906101000a900473ffffffffffffffffffffffffffffffffffffffff169080600181540180825580915050600190039060005260206000200160009091909190916101000a81548173ffffffffffffffffffffffffffffffffffffffff021916908373ffffffffffffffffffffffffffffffffffffffff160217905550600360008473ffffffffffffffffffffffffffffffffffffffff1673ffffffffffffffffffffffffffffffffffffffff168152602001908152602001600020600201805480620019415762001940620022de565b5b6001900381819060005260206000200160006101000a81549073ffffffffffffffffffffffffffffffffffffffff02191690559055505050565b61119c806200230e83390190565b6000604051905090565b600080fd5b600080fd5b600073ffffffffffffffffffffffffffffffffffffffff82169050919050565b6000620019ca826200199d565b9050919050565b620019dc81620019bd565b8114620019e857600080fd5b50565b600081359050620019fc81620019d1565b92915050565b60006020828403121562001a1b5762001a1a62001993565b5b600062001a2b84828501620019eb565b91505092915050565b600081519050919050565b600082825260208201905092915050565b6000819050602082019050919050565b62001a6b81620019bd565b82525050565b600062001a7f838362001a60565b60208301905092915050565b6000602082019050919050565b600062001aa58262001a34565b62001ab1818562001a3f565b935062001abe8362001a50565b8060005b8381101562001af557815162001ad9888262001a71565b975062001ae68362001a8b565b92505060018101905062001ac2565b5085935050505092915050565b6000602082019050818103600083015262001b1e818462001a98565b905092915050565b6000819050919050565b62001b3b8162001b26565b811462001b4757600080fd5b50565b60008135905062001b5b8162001b30565b92915050565b6000806040838503121562001b7b5762001b7a62001993565b5b600062001b8b85828601620019eb565b925050602062001b9e8582860162001b4a565b9150509250929050565b6000806040838503121562001bc25762001bc162001993565b5b600062001bd285828601620019eb565b925050602062001be585828601620019eb565b9150509250929050565b62001bfa8162001b26565b82525050565b62001c0b81620019bd565b82525050565b600060608201905062001c28600083018662001bef565b818103602083015262001c3c818562001a98565b905062001c4d604083018462001c00565b949350505050565b600060208201905062001c6c600083018462001bef565b92915050565b600080fd5b600080fd5b6000601f19601f8301169050919050565b7f4e487b7100000000000000000000000000000000000000000000000000000000600052604160045260246000fd5b62001cc78262001c7c565b810181811067ffffffffffffffff8211171562001ce95762001ce862001c8d565b5b80604052505050565b600062001cfe62001989565b905062001d0c828262001cbc565b919050565b600067ffffffffffffffff82111562001d2f5762001d2e62001c8d565b5b62001d3a8262001c7c565b9050602081019050919050565b82818337600083830152505050565b600062001d6d62001d678462001d11565b62001cf2565b90508281526020810184848401111562001d8c5762001d8b62001c77565b5b62001d9984828562001d47565b509392505050565b600082601f83011262001db95762001db862001c72565b5b813562001dcb84826020860162001d56565b91505092915050565b600062001de1826200199d565b9050919050565b62001df38162001dd4565b811462001dff57600080fd5b50565b60008135905062001e138162001de8565b92915050565b6000806000806080858703121562001e365762001e3562001993565b5b600062001e4687828801620019eb565b945050602085013567ffffffffffffffff81111562001e6a5762001e6962001998565b5b62001e788782880162001da1565b935050604085013567ffffffffffffffff81111562001e9c5762001e9b62001998565b5b62001eaa8782880162001da1565b925050606062001ebd8782880162001e02565b91505092959194509250565b7f4e487b7100000000000000000000000000000000000000000000000000000000600052603260045260246000fd5b600062001f0582620019bd565b9050919050565b62001f178162001ef8565b811462001f2357600080fd5b50565b60008151905062001f378162001f0c565b92915050565b60006020828403121562001f565762001f5562001993565b5b600062001f668482850162001f26565b91505092915050565b60008151905062001f8081620019d1565b92915050565b60006020828403121562001f9f5762001f9e62001993565b5b600062001faf8482850162001f6f565b91505092915050565b7f4e487b7100000000000000000000000000000000000000000000000000000000600052601160045260246000fd5b600062001ff48262001b26565b9150620020018362001b26565b92508282101562002017576200201662001fb8565b5b828203905092915050565b60006200202f8262001b26565b91507fffffffffffffffffffffffffffffffffffffffffffffffffffffffffffffffff82141562002065576200206462001fb8565b5b600182019050919050565b600081519050919050565b600082825260208201905092915050565b60005b83811015620020ac5780820151818401526020810190506200208f565b83811115620020bc576000848401525b50505050565b6000620020cf8262002070565b620020db81856200207b565b9350620020ed8185602086016200208c565b620020f88162001c7c565b840191505092915050565b6000819050919050565b60006200212e6200212862002122846200199d565b62002103565b6200199d565b9050919050565b600062002142826200210d565b9050919050565b6000620021568262002135565b9050919050565b620021688162002149565b82525050565b600060c08201905062002185600083018962001c00565b62002194602083018862001c00565b8181036040830152620021a88187620020c2565b90508181036060830152620021be8186620020c2565b9050620021cf60808301856200215d565b620021de60a083018462001bef565b979650505050505050565b7f4f70656e20636f6e747261637420696e646578206f7574206f6620626f756e6460008201527f7300000000000000000000000000000000000000000000000000000000000000602082015250565b6000620022476021836200207b565b91506200225482620021e9565b604082019050919050565b600060208201905081810360008301526200227a8162002238565b9050919050565b60006200228e8262001b26565b91506200229b8362001b26565b9250827fffffffffffffffffffffffffffffffffffffffffffffffffffffffffffffffff03821115620022d357620022d262001fb8565b5b828201905092915050565b7f4e487b7100000000000000000000000000000000000000000000000000000000600052603160045260246000fdfe60806040526040516200119c3803806200119c83398181016040528101906200002991906200044b565b856000806101000a81548173ffffffffffffffffffffffffffffffffffffffff021916908373ffffffffffffffffffffffffffffffffffffffff16021790555084600160006101000a81548173ffffffffffffffffffffffffffffffffffffffff021916908373ffffffffffffffffffffffffffffffffffffffff1602179055508360029080519060200190620000c29291906200015e565b508260039080519060200190620000db9291906200015e565b5081600460006101000a81548173ffffffffffffffffffffffffffffffffffffffff021916908373ffffffffffffffffffffffffffffffffffffffff160217905550806005819055506000600660006101000a81548160ff021916908360028111156200014d576200014c62000525565b5b0217905550505050505050620005b9565b8280546200016c9062000583565b90600052602060002090601f016020900481019282620001905760008555620001dc565b82601f10620001ab57805160ff1916838001178555620001dc565b82800160010185558215620001dc579182015b82811115620001db578251825591602001919060010190620001be565b5b509050620001eb9190620001ef565b5090565b5b808211156200020a576000816000905550600101620001f0565b5090565b6000604051905090565b600080fd5b600080fd5b600073ffffffffffffffffffffffffffffffffffffffff82169050919050565b60006200024f8262000222565b9050919050565b620002618162000242565b81146200026d57600080fd5b50565b600081519050620002818162000256565b92915050565b600080fd5b600080fd5b6000601f19601f8301169050919050565b7f4e487b7100000000000000000000000000000000000000000000000000000000600052604160045260246000fd5b620002dc8262000291565b810181811067ffffffffffffffff82111715620002fe57620002fd620002a2565b5b80604052505050565b6000620003136200020e565b9050620003218282620002d1565b919050565b600067ffffffffffffffff821115620003445762000343620002a2565b5b6200034f8262000291565b9050602081019050919050565b60005b838110156200037c5780820151818401526020810190506200035f565b838111156200038c576000848401525b50505050565b6000620003a9620003a38462000326565b62000307565b905082815260208101848484011115620003c857620003c76200028c565b5b620003d58482856200035c565b509392505050565b600082601f830112620003f557620003f462000287565b5b81516200040784826020860162000392565b91505092915050565b6000819050919050565b620004258162000410565b81146200043157600080fd5b50565b60008151905062000445816200041a565b92915050565b60008060008060008060c087890312156200046b576200046a62000218565b5b60006200047b89828a0162000270565b96505060206200048e89828a0162000270565b955050604087015167ffffffffffffffff811115620004b257620004b16200021d565b5b620004c089828a01620003dd565b945050606087015167ffffffffffffffff811115620004e457620004e36200021d565b5b620004f289828a01620003dd565b93505060806200050589828a0162000270565b92505060a06200051889828a0162000434565b9150509295509295509295565b7f4e487b7100000000000000000000000000000000000000000000000000000000600052602160045260246000fd5b7f4e487b7100000000000000000000000000000000000000000000000000000000600052602260045260246000fd5b600060028204905060018216806200059c57607f821691505b60208210811415620005b357620005b262000554565b5b50919050565b610bd380620005c96000396000f3fe6080604052600436106100865760003560e01c80633b1bebd1116100595780633b1bebd11461012a5780634177fe51146101555780637284e41614610180578063aa8c217c146101ab578063b4fedc11146101d657610086565b806302d05d3f1461008b57806306fdde03146100b6578063200d2ed2146100e15780632d398fa61461010c575b600080fd5b34801561009757600080fd5b506100a06101f4565b6040516100ad9190610770565b60405180910390f35b3480156100c257600080fd5b506100cb610218565b6040516100d89190610824565b60405180910390f35b3480156100ed57600080fd5b506100f66102a6565b60405161010391906108bd565b60405180910390f35b6101146102b9565b6040516101219190610937565b60405180910390f35b34801561013657600080fd5b5061013f6104b0565b60405161014c9190610770565b60405180910390f35b34801561016157600080fd5b5061016a6104d6565b6040516101779190610770565b60405180910390f35b34801561018c57600080fd5b506101956104fc565b6040516101a29190610824565b60405180910390f35b3480156101b757600080fd5b506101c061058a565b6040516101cd919061096b565b60405180910390f35b6101de610590565b6040516101eb9190610937565b60405180910390f35b60008054906101000a900473ffffffffffffffffffffffffffffffffffffffff1681565b60028054610225906109b5565b80601f0160208091040260200160405190810160405280929190818152602001828054610251906109b5565b801561029e5780601f106102735761010080835404028352916020019161029e565b820191906000526020600020905b81548152906001019060200180831161028157829003601f168201915b505050505081565b600660009054906101000a900460ff1681565b60008060028111156102ce576102cd610846565b5b600660009054906101000a900460ff1660028111156102f0576102ef610846565b5b14610330576040517f08c379a000000000000000000000000000000000000000000000000000000000815260040161032790610a59565b60405180910390fd5b600160009054906101000a900473ffffffffffffffffffffffffffffffffffffffff1673ffffffffffffffffffffffffffffffffffffffff163273ffffffffffffffffffffffffffffffffffffffff1614806103d7575060008054906101000a900473ffffffffffffffffffffffffffffffffffffffff1673ffffffffffffffffffffffffffffffffffffffff163273ffffffffffffffffffffffffffffffffffffffff16145b610416576040517f08c379a000000000000000000000000000000000000000000000000000000000815260040161040d90610aeb565b60405180910390fd5b600460009054906101000a900473ffffffffffffffffffffffffffffffffffffffff1673ffffffffffffffffffffffffffffffffffffffff166108fc479081150290604051600060405180830381858888f1935050505015801561047e573d6000803e3d6000fd5b506002600660006101000a81548160ff021916908360028111156104a5576104a4610846565b5b021790555030905090565b600160009054906101000a900473ffffffffffffffffffffffffffffffffffffffff1681565b600460009054906101000a900473ffffffffffffffffffffffffffffffffffffffff1681565b60038054610509906109b5565b80601f0160208091040260200160405190810160405280929190818152602001828054610535906109b5565b80156105825780601f1061055757610100808354040283529160200191610582565b820191906000526020600020905b81548152906001019060200180831161056557829003601f168201915b505050505081565b60055481565b60008060028111156105a5576105a4610846565b5b600660009054906101000a900460ff1660028111156105c7576105c6610846565b5b14610607576040517f08c379a00000000000000000000000000000000000000000000000000000000081526004016105fe90610a59565b60405180910390fd5b600160009054906101000a900473ffffffffffffffffffffffffffffffffffffffff1673ffffffffffffffffffffffffffffffffffffffff163273ffffffffffffffffffffffffffffffffffffffff1614610697576040517f08c379a000000000000000000000000000000000000000000000000000000000815260040161068e90610b7d565b60405180910390fd5b60008054906101000a900473ffffffffffffffffffffffffffffffffffffffff1673ffffffffffffffffffffffffffffffffffffffff166108fc479081150290604051600060405180830381858888f193505050501580156106fd573d6000803e3d6000fd5b506001600660006101000a81548160ff0219169083600281111561072457610723610846565b5b021790555030905090565b600073ffffffffffffffffffffffffffffffffffffffff82169050919050565b600061075a8261072f565b9050919050565b61076a8161074f565b82525050565b60006020820190506107856000830184610761565b92915050565b600081519050919050565b600082825260208201905092915050565b60005b838110156107c55780820151818401526020810190506107aa565b838111156107d4576000848401525b50505050565b6000601f19601f8301169050919050565b60006107f68261078b565b6108008185610796565b93506108108185602086016107a7565b610819816107da565b840191505092915050565b6000602082019050818103600083015261083e81846107eb565b905092915050565b7f4e487b7100000000000000000000000000000000000000000000000000000000600052602160045260246000fd5b6003811061088657610885610846565b5b50565b600081905061089782610875565b919050565b60006108a782610889565b9050919050565b6108b78161089c565b82525050565b60006020820190506108d260008301846108ae565b92915050565b6000819050919050565b60006108fd6108f86108f38461072f565b6108d8565b61072f565b9050919050565b600061090f826108e2565b9050919050565b600061092182610904565b9050919050565b61093181610916565b82525050565b600060208201905061094c6000830184610928565b92915050565b6000819050919050565b61096581610952565b82525050565b6000602082019050610980600083018461095c565b92915050565b7f4e487b7100000000000000000000000000000000000000000000000000000000600052602260045260246000fd5b600060028204905060018216806109cd57607f821691505b602082108114156109e1576109e0610986565b5b50919050565b7f436f6e747261637420737461747573206973206e6f7420657175616c20746f2060008201527f6f70656e00000000000000000000000000000000000000000000000000000000602082015250565b6000610a43602483610796565b9150610a4e826109e7565b604082019050919050565b60006020820190508181036000830152610a7281610a36565b9050919050565b7f4f6e6c792072656665726565206f722063726561746f722063616e206661696c60008201527f20636f6e74726163740000000000000000000000000000000000000000000000602082015250565b6000610ad5602983610796565b9150610ae082610a79565b604082019050919050565b60006020820190508181036000830152610b0481610ac8565b9050919050565b7f4f6e6c7920726566657265652063616e20636f6d706c657465206120636f6e7460008201527f7261637400000000000000000000000000000000000000000000000000000000602082015250565b6000610b67602483610796565b9150610b7282610b0b565b604082019050919050565b60006020820190508181036000830152610b9681610b5a565b905091905056fea2646970667358221220b571a0d69ef27a82fb7d164771a6ce84fa6403ee970a1cca32a93d0db9ab84f664736f6c634300080c0033a2646970667358221220f6e7110ba24f300f1e34976af7ac6dae7b5f4680fcf9da0c4bd7a4e8a53adf9664736f6c634300080c0033","opcodes":"PUSH1 0x80 PUSH1 0x40 MSTORE CALLVALUE DUP1 ISZERO PUSH2 0x10 JUMPI PUSH1 0x0 DUP1 REVERT JUMPDEST POP PUSH2 0x34DF DUP1 PUSH2 0x20 PUSH1 0x0 CODECOPY PUSH1 0x0 RETURN INVALID PUSH1 0x80 PUSH1 0x40 MSTORE PUSH1 0x4 CALLDATASIZE LT PUSH3 0xB6 JUMPI PUSH1 0x0 CALLDATALOAD PUSH1 0xE0 SHR DUP1 PUSH4 0x75CE46A7 GT PUSH3 0x6D JUMPI DUP1 PUSH4 0x75CE46A7 EQ PUSH3 0x241 JUMPI DUP1 PUSH4 0x9051E234 EQ PUSH3 0x271 JUMPI DUP1 PUSH4 0xA87430BA EQ PUSH3 0x2B5 JUMPI DUP1 PUSH4 0xB24E67D0 EQ PUSH3 0x2F9 JUMPI DUP1 PUSH4 0xB3B6633E EQ PUSH3 0x33D JUMPI DUP1 PUSH4 0xE436E826 EQ PUSH3 0x36D JUMPI PUSH3 0xB6 JUMP JUMPDEST DUP1 PUSH4 0x19EE8BD4 EQ PUSH3 0xBB JUMPI DUP1 PUSH4 0x2BC7DECC EQ PUSH3 0xFF JUMPI DUP1 PUSH4 0x33157F34 EQ PUSH3 0x12D JUMPI DUP1 PUSH4 0x442A7BC7 EQ PUSH3 0x173 JUMPI DUP1 PUSH4 0x64A60B47 EQ PUSH3 0x1B7 JUMPI DUP1 PUSH4 0x74BAA69C EQ PUSH3 0x1FB JUMPI JUMPDEST PUSH1 0x0 DUP1 REVERT JUMPDEST CALLVALUE DUP1 ISZERO PUSH3 0xC8 JUMPI PUSH1 0x0 DUP1 REVERT JUMPDEST POP PUSH3 0xE7 PUSH1 0x4 DUP1 CALLDATASIZE SUB DUP2 ADD SWAP1 PUSH3 0xE1 SWAP2 SWAP1 PUSH3 0x1A02 JUMP JUMPDEST PUSH3 0x38D JUMP JUMPDEST PUSH1 0x40 MLOAD PUSH3 0xF6 SWAP2 SWAP1 PUSH3 0x1B02 JUMP JUMPDEST PUSH1 0x40 MLOAD DUP1 SWAP2 SUB SWAP1 RETURN JUMPDEST CALLVALUE DUP1 ISZERO PUSH3 0x10C JUMPI PUSH1 0x0 DUP1 REVERT JUMPDEST POP PUSH3 0x12B PUSH1 0x4 DUP1 CALLDATASIZE SUB DUP2 ADD SWAP1 PUSH3 0x125 SWAP2 SWAP1 PUSH3 0x1B61 JUMP JUMPDEST PUSH3 0x45F JUMP JUMPDEST STOP JUMPDEST CALLVALUE DUP1 ISZERO PUSH3 0x13A JUMPI PUSH1 0x0 DUP1 REVERT JUMPDEST POP PUSH3 0x159 PUSH1 0x4 DUP1 CALLDATASIZE SUB DUP2 ADD SWAP1 PUSH3 0x153 SWAP2 SWAP1 PUSH3 0x1BA8 JUMP JUMPDEST PUSH3 0x667 JUMP JUMPDEST PUSH1 0x40 MLOAD PUSH3 0x16A SWAP4 SWAP3 SWAP2 SWAP1 PUSH3 0x1C11 JUMP JUMPDEST PUSH1 0x40 MLOAD DUP1 SWAP2 SUB SWAP1 RETURN JUMPDEST CALLVALUE DUP1 ISZERO PUSH3 0x180 JUMPI PUSH1 0x0 DUP1 REVERT JUMPDEST POP PUSH3 0x19F PUSH1 0x4 DUP1 CALLDATASIZE SUB DUP2 ADD SWAP1 PUSH3 0x199 SWAP2 SWAP1 PUSH3 0x1A02 JUMP JUMPDEST PUSH3 0x87A JUMP JUMPDEST PUSH1 0x40 MLOAD PUSH3 0x1AE SWAP2 SWAP1 PUSH3 0x1B02 JUMP JUMPDEST PUSH1 0x40 MLOAD DUP1 SWAP2 SUB SWAP1 RETURN JUMPDEST CALLVALUE DUP1 ISZERO PUSH3 0x1C4 JUMPI PUSH1 0x0 DUP1 REVERT JUMPDEST POP PUSH3 0x1E3 PUSH1 0x4 DUP1 CALLDATASIZE SUB DUP2 ADD SWAP1 PUSH3 0x1DD SWAP2 SWAP1 PUSH3 0x1A02 JUMP JUMPDEST PUSH3 0x94B JUMP JUMPDEST PUSH1 0x40 MLOAD PUSH3 0x1F2 SWAP2 SWAP1 PUSH3 0x1C55 JUMP JUMPDEST PUSH1 0x40 MLOAD DUP1 SWAP2 SUB SWAP1 RETURN JUMPDEST CALLVALUE DUP1 ISZERO PUSH3 0x208 JUMPI PUSH1 0x0 DUP1 REVERT JUMPDEST POP PUSH3 0x227 PUSH1 0x4 DUP1 CALLDATASIZE SUB DUP2 ADD SWAP1 PUSH3 0x221 SWAP2 SWAP1 PUSH3 0x1B61 JUMP JUMPDEST PUSH3 0x969 JUMP JUMPDEST PUSH1 0x40 MLOAD PUSH3 0x238 SWAP4 SWAP3 SWAP2 SWAP1 PUSH3 0x1C11 JUMP JUMPDEST PUSH1 0x40 MLOAD DUP1 SWAP2 SUB SWAP1 RETURN JUMPDEST CALLVALUE DUP1 ISZERO PUSH3 0x24E JUMPI PUSH1 0x0 DUP1 REVERT JUMPDEST POP PUSH3 0x259 PUSH3 0xAFF JUMP JUMPDEST PUSH1 0x40 MLOAD PUSH3 0x268 SWAP2 SWAP1 PUSH3 0x1C55 JUMP JUMPDEST PUSH1 0x40 MLOAD DUP1 SWAP2 SUB SWAP1 RETURN JUMPDEST CALLVALUE DUP1 ISZERO PUSH3 0x27E JUMPI PUSH1 0x0 DUP1 REVERT JUMPDEST POP PUSH3 0x29D PUSH1 0x4 DUP1 CALLDATASIZE SUB DUP2 ADD SWAP1 PUSH3 0x297 SWAP2 SWAP1 PUSH3 0x1A02 JUMP JUMPDEST PUSH3 0xB05 JUMP JUMPDEST PUSH1 0x40 MLOAD PUSH3 0x2AC SWAP2 SWAP1 PUSH3 0x1B02 JUMP JUMPDEST PUSH1 0x40 MLOAD DUP1 SWAP2 SUB SWAP1 RETURN JUMPDEST CALLVALUE DUP1 ISZERO PUSH3 0x2C2 JUMPI PUSH1 0x0 DUP1 REVERT JUMPDEST POP PUSH3 0x2E1 PUSH1 0x4 DUP1 CALLDATASIZE SUB DUP2 ADD SWAP1 PUSH3 0x2DB SWAP2 SWAP1 PUSH3 0x1A02 JUMP JUMPDEST PUSH3 0xBD7 JUMP JUMPDEST PUSH1 0x40 MLOAD PUSH3 0x2F0 SWAP2 SWAP1 PUSH3 0x1C55 JUMP JUMPDEST PUSH1 0x40 MLOAD DUP1 SWAP2 SUB SWAP1 RETURN JUMPDEST CALLVALUE DUP1 ISZERO PUSH3 0x306 JUMPI PUSH1 0x0 DUP1 REVERT JUMPDEST POP PUSH3 0x325 PUSH1 0x4 DUP1 CALLDATASIZE SUB DUP2 ADD SWAP1 PUSH3 0x31F SWAP2 SWAP1 PUSH3 0x1A02 JUMP JUMPDEST PUSH3 0xBF5 JUMP JUMPDEST PUSH1 0x40 MLOAD PUSH3 0x334 SWAP2 SWAP1 PUSH3 0x1B02 JUMP JUMPDEST PUSH1 0x40 MLOAD DUP1 SWAP2 SUB SWAP1 RETURN JUMPDEST CALLVALUE DUP1 ISZERO PUSH3 0x34A JUMPI PUSH1 0x0 DUP1 REVERT JUMPDEST POP PUSH3 0x355 PUSH3 0xCC6 JUMP JUMPDEST PUSH1 0x40 MLOAD PUSH3 0x364 SWAP2 SWAP1 PUSH3 0x1C55 JUMP JUMPDEST PUSH1 0x40 MLOAD DUP1 SWAP2 SUB SWAP1 RETURN JUMPDEST PUSH3 0x38B PUSH1 0x4 DUP1 CALLDATASIZE SUB DUP2 ADD SWAP1 PUSH3 0x385 SWAP2 SWAP1 PUSH3 0x1E19 JUMP JUMPDEST PUSH3 0xCCC JUMP JUMPDEST STOP JUMPDEST PUSH1 0x60 PUSH1 0x3 PUSH1 0x0 DUP4 PUSH20 0xFFFFFFFFFFFFFFFFFFFFFFFFFFFFFFFFFFFFFFFF AND PUSH20 0xFFFFFFFFFFFFFFFFFFFFFFFFFFFFFFFFFFFFFFFF AND DUP2 MSTORE PUSH1 0x20 ADD SWAP1 DUP2 MSTORE PUSH1 0x20 ADD PUSH1 0x0 KECCAK256 PUSH1 0x2 ADD DUP1 SLOAD DUP1 PUSH1 0x20 MUL PUSH1 0x20 ADD PUSH1 0x40 MLOAD SWAP1 DUP2 ADD PUSH1 0x40 MSTORE DUP1 SWAP3 SWAP2 SWAP1 DUP2 DUP2 MSTORE PUSH1 0x20 ADD DUP3 DUP1 SLOAD DUP1 ISZERO PUSH3 0x453 JUMPI PUSH1 0x20 MUL DUP3 ADD SWAP2 SWAP1 PUSH1 0x0 MSTORE PUSH1 0x20 PUSH1 0x0 KECCAK256 SWAP1 JUMPDEST DUP2 PUSH1 0x0 SWAP1 SLOAD SWAP1 PUSH2 0x100 EXP SWAP1 DIV PUSH20 0xFFFFFFFFFFFFFFFFFFFFFFFFFFFFFFFFFFFFFFFF AND PUSH20 0xFFFFFFFFFFFFFFFFFFFFFFFFFFFFFFFFFFFFFFFF AND DUP2 MSTORE PUSH1 0x20 ADD SWAP1 PUSH1 0x1 ADD SWAP1 DUP1 DUP4 GT PUSH3 0x408 JUMPI JUMPDEST POP POP POP POP POP SWAP1 POP SWAP2 SWAP1 POP JUMP JUMPDEST PUSH1 0x0 DUP1 PUSH1 0x0 DUP5 PUSH20 0xFFFFFFFFFFFFFFFFFFFFFFFFFFFFFFFFFFFFFFFF AND PUSH20 0xFFFFFFFFFFFFFFFFFFFFFFFFFFFFFFFFFFFFFFFF AND DUP2 MSTORE PUSH1 0x20 ADD SWAP1 DUP2 MSTORE PUSH1 0x20 ADD PUSH1 0x0 KECCAK256 PUSH1 0x1 ADD DUP3 DUP2 SLOAD DUP2 LT PUSH3 0x4B7 JUMPI PUSH3 0x4B6 PUSH3 0x1EC9 JUMP JUMPDEST JUMPDEST SWAP1 PUSH1 0x0 MSTORE PUSH1 0x20 PUSH1 0x0 KECCAK256 ADD PUSH1 0x0 SWAP1 SLOAD SWAP1 PUSH2 0x100 EXP SWAP1 DIV PUSH20 0xFFFFFFFFFFFFFFFFFFFFFFFFFFFFFFFFFFFFFFFF AND SWAP1 POP DUP1 PUSH20 0xFFFFFFFFFFFFFFFFFFFFFFFFFFFFFFFFFFFFFFFF AND PUSH4 0xB4FEDC11 PUSH1 0x40 MLOAD DUP2 PUSH4 0xFFFFFFFF AND PUSH1 0xE0 SHL DUP2 MSTORE PUSH1 0x4 ADD PUSH1 0x20 PUSH1 0x40 MLOAD DUP1 DUP4 SUB DUP2 PUSH1 0x0 DUP8 GAS CALL ISZERO DUP1 ISZERO PUSH3 0x532 JUMPI RETURNDATASIZE PUSH1 0x0 DUP1 RETURNDATACOPY RETURNDATASIZE PUSH1 0x0 REVERT JUMPDEST POP POP POP POP PUSH1 0x40 MLOAD RETURNDATASIZE PUSH1 0x1F NOT PUSH1 0x1F DUP3 ADD AND DUP3 ADD DUP1 PUSH1 0x40 MSTORE POP DUP2 ADD SWAP1 PUSH3 0x558 SWAP2 SWAP1 PUSH3 0x1F3D JUMP JUMPDEST POP PUSH3 0x565 DUP4 DUP4 PUSH3 0x10A7 JUMP JUMPDEST PUSH3 0x662 DUP2 PUSH20 0xFFFFFFFFFFFFFFFFFFFFFFFFFFFFFFFFFFFFFFFF AND PUSH4 0x3B1BEBD1 PUSH1 0x40 MLOAD DUP2 PUSH4 0xFFFFFFFF AND PUSH1 0xE0 SHL DUP2 MSTORE PUSH1 0x4 ADD PUSH1 0x20 PUSH1 0x40 MLOAD DUP1 DUP4 SUB DUP2 DUP7 GAS STATICCALL ISZERO DUP1 ISZERO PUSH3 0x5B5 JUMPI RETURNDATASIZE PUSH1 0x0 DUP1 RETURNDATACOPY RETURNDATASIZE PUSH1 0x0 REVERT JUMPDEST POP POP POP POP PUSH1 0x40 MLOAD RETURNDATASIZE PUSH1 0x1F NOT PUSH1 0x1F DUP3 ADD AND DUP3 ADD DUP1 PUSH1 0x40 MSTORE POP DUP2 ADD SWAP1 PUSH3 0x5DB SWAP2 SWAP1 PUSH3 0x1F86 JUMP JUMPDEST PUSH1 0x0 DUP1 DUP7 PUSH20 0xFFFFFFFFFFFFFFFFFFFFFFFFFFFFFFFFFFFFFFFF AND PUSH20 0xFFFFFFFFFFFFFFFFFFFFFFFFFFFFFFFFFFFFFFFF AND DUP2 MSTORE PUSH1 0x20 ADD SWAP1 DUP2 MSTORE PUSH1 0x20 ADD PUSH1 0x0 KECCAK256 PUSH1 0x1 ADD DUP5 DUP2 SLOAD DUP2 LT PUSH3 0x631 JUMPI PUSH3 0x630 PUSH3 0x1EC9 JUMP JUMPDEST JUMPDEST SWAP1 PUSH1 0x0 MSTORE PUSH1 0x20 PUSH1 0x0 KECCAK256 ADD PUSH1 0x0 SWAP1 SLOAD SWAP1 PUSH2 0x100 EXP SWAP1 DIV PUSH20 0xFFFFFFFFFFFFFFFFFFFFFFFFFFFFFFFFFFFFFFFF AND PUSH3 0x1498 JUMP JUMPDEST POP POP POP JUMP JUMPDEST PUSH1 0x0 PUSH1 0x60 PUSH1 0x0 DUP1 PUSH1 0x0 JUMPDEST PUSH1 0x1 PUSH1 0x3 PUSH1 0x0 DUP10 PUSH20 0xFFFFFFFFFFFFFFFFFFFFFFFFFFFFFFFFFFFFFFFF AND PUSH20 0xFFFFFFFFFFFFFFFFFFFFFFFFFFFFFFFFFFFFFFFF AND DUP2 MSTORE PUSH1 0x20 ADD SWAP1 DUP2 MSTORE PUSH1 0x20 ADD PUSH1 0x0 KECCAK256 PUSH1 0x1 ADD DUP1 SLOAD SWAP1 POP PUSH3 0x6C5 SWAP2 SWAP1 PUSH3 0x1FE7 JUMP JUMPDEST DUP2 LT ISZERO PUSH3 0x79D JUMPI DUP6 PUSH20 0xFFFFFFFFFFFFFFFFFFFFFFFFFFFFFFFFFFFFFFFF AND PUSH1 0x3 PUSH1 0x0 DUP10 PUSH20 0xFFFFFFFFFFFFFFFFFFFFFFFFFFFFFFFFFFFFFFFF AND PUSH20 0xFFFFFFFFFFFFFFFFFFFFFFFFFFFFFFFFFFFFFFFF AND DUP2 MSTORE PUSH1 0x20 ADD SWAP1 DUP2 MSTORE PUSH1 0x20 ADD PUSH1 0x0 KECCAK256 PUSH1 0x1 ADD DUP3 DUP2 SLOAD DUP2 LT PUSH3 0x73B JUMPI PUSH3 0x73A PUSH3 0x1EC9 JUMP JUMPDEST JUMPDEST SWAP1 PUSH1 0x0 MSTORE PUSH1 0x20 PUSH1 0x0 KECCAK256 ADD PUSH1 0x0 SWAP1 SLOAD SWAP1 PUSH2 0x100 EXP SWAP1 DIV PUSH20 0xFFFFFFFFFFFFFFFFFFFFFFFFFFFFFFFFFFFFFFFF AND PUSH20 0xFFFFFFFFFFFFFFFFFFFFFFFFFFFFFFFFFFFFFFFF AND EQ ISZERO PUSH3 0x787 JUMPI DUP1 SWAP2 POP JUMPDEST DUP1 DUP1 PUSH3 0x794 SWAP1 PUSH3 0x2022 JUMP JUMPDEST SWAP2 POP POP PUSH3 0x671 JUMP JUMPDEST POP DUP1 PUSH1 0x3 PUSH1 0x0 DUP9 PUSH20 0xFFFFFFFFFFFFFFFFFFFFFFFFFFFFFFFFFFFFFFFF AND PUSH20 0xFFFFFFFFFFFFFFFFFFFFFFFFFFFFFFFFFFFFFFFF AND DUP2 MSTORE PUSH1 0x20 ADD SWAP1 DUP2 MSTORE PUSH1 0x20 ADD PUSH1 0x0 KECCAK256 PUSH1 0x1 ADD DUP7 DUP2 DUP1 SLOAD DUP1 PUSH1 0x20 MUL PUSH1 0x20 ADD PUSH1 0x40 MLOAD SWAP1 DUP2 ADD PUSH1 0x40 MSTORE DUP1 SWAP3 SWAP2 SWAP1 DUP2 DUP2 MSTORE PUSH1 0x20 ADD DUP3 DUP1 SLOAD DUP1 ISZERO PUSH3 0x865 JUMPI PUSH1 0x20 MUL DUP3 ADD SWAP2 SWAP1 PUSH1 0x0 MSTORE PUSH1 0x20 PUSH1 0x0 KECCAK256 SWAP1 JUMPDEST DUP2 PUSH1 0x0 SWAP1 SLOAD SWAP1 PUSH2 0x100 EXP SWAP1 DIV PUSH20 0xFFFFFFFFFFFFFFFFFFFFFFFFFFFFFFFFFFFFFFFF AND PUSH20 0xFFFFFFFFFFFFFFFFFFFFFFFFFFFFFFFFFFFFFFFF AND DUP2 MSTORE PUSH1 0x20 ADD SWAP1 PUSH1 0x1 ADD SWAP1 DUP1 DUP4 GT PUSH3 0x81A JUMPI JUMPDEST POP POP POP POP POP SWAP2 POP SWAP4 POP SWAP4 POP SWAP4 POP POP SWAP3 POP SWAP3 POP SWAP3 JUMP JUMPDEST PUSH1 0x60 PUSH1 0x0 DUP1 DUP4 PUSH20 0xFFFFFFFFFFFFFFFFFFFFFFFFFFFFFFFFFFFFFFFF AND PUSH20 0xFFFFFFFFFFFFFFFFFFFFFFFFFFFFFFFFFFFFFFFF AND DUP2 MSTORE PUSH1 0x20 ADD SWAP1 DUP2 MSTORE PUSH1 0x20 ADD PUSH1 0x0 KECCAK256 PUSH1 0x1 ADD DUP1 SLOAD DUP1 PUSH1 0x20 MUL PUSH1 0x20 ADD PUSH1 0x40 MLOAD SWAP1 DUP2 ADD PUSH1 0x40 MSTORE DUP1 SWAP3 SWAP2 SWAP1 DUP2 DUP2 MSTORE PUSH1 0x20 ADD DUP3 DUP1 SLOAD DUP1 ISZERO PUSH3 0x93F JUMPI PUSH1 0x20 MUL DUP3 ADD SWAP2 SWAP1 PUSH1 0x0 MSTORE PUSH1 0x20 PUSH1 0x0 KECCAK256 SWAP1 JUMPDEST DUP2 PUSH1 0x0 SWAP1 SLOAD SWAP1 PUSH2 0x100 EXP SWAP1 DIV PUSH20 0xFFFFFFFFFFFFFFFFFFFFFFFFFFFFFFFFFFFFFFFF AND PUSH20 0xFFFFFFFFFFFFFFFFFFFFFFFFFFFFFFFFFFFFFFFF AND DUP2 MSTORE PUSH1 0x20 ADD SWAP1 PUSH1 0x1 ADD SWAP1 DUP1 DUP4 GT PUSH3 0x8F4 JUMPI JUMPDEST POP POP POP POP POP SWAP1 POP SWAP2 SWAP1 POP JUMP JUMPDEST PUSH1 0x3 PUSH1 0x20 MSTORE DUP1 PUSH1 0x0 MSTORE PUSH1 0x40 PUSH1 0x0 KECCAK256 PUSH1 0x0 SWAP2 POP SWAP1 POP DUP1 PUSH1 0x0 ADD SLOAD SWAP1 POP DUP2 JUMP JUMPDEST PUSH1 0x0 PUSH1 0x60 PUSH1 0x0 DUP1 PUSH1 0x0 DUP1 DUP8 PUSH20 0xFFFFFFFFFFFFFFFFFFFFFFFFFFFFFFFFFFFFFFFF AND PUSH20 0xFFFFFFFFFFFFFFFFFFFFFFFFFFFFFFFFFFFFFFFF AND DUP2 MSTORE PUSH1 0x20 ADD SWAP1 DUP2 MSTORE PUSH1 0x20 ADD PUSH1 0x0 KECCAK256 PUSH1 0x1 ADD DUP6 DUP2 SLOAD DUP2 LT PUSH3 0x9C6 JUMPI PUSH3 0x9C5 PUSH3 0x1EC9 JUMP JUMPDEST JUMPDEST SWAP1 PUSH1 0x0 MSTORE PUSH1 0x20 PUSH1 0x0 KECCAK256 ADD PUSH1 0x0 SWAP1 SLOAD SWAP1 PUSH2 0x100 EXP SWAP1 DIV PUSH20 0xFFFFFFFFFFFFFFFFFFFFFFFFFFFFFFFFFFFFFFFF AND SWAP1 POP DUP1 PUSH20 0xFFFFFFFFFFFFFFFFFFFFFFFFFFFFFFFFFFFFFFFF AND PUSH4 0x2D398FA6 PUSH1 0x40 MLOAD DUP2 PUSH4 0xFFFFFFFF AND PUSH1 0xE0 SHL DUP2 MSTORE PUSH1 0x4 ADD PUSH1 0x20 PUSH1 0x40 MLOAD DUP1 DUP4 SUB DUP2 PUSH1 0x0 DUP8 GAS CALL ISZERO DUP1 ISZERO PUSH3 0xA41 JUMPI RETURNDATASIZE PUSH1 0x0 DUP1 RETURNDATACOPY RETURNDATASIZE PUSH1 0x0 REVERT JUMPDEST POP POP POP POP PUSH1 0x40 MLOAD RETURNDATASIZE PUSH1 0x1F NOT PUSH1 0x1F DUP3 ADD AND DUP3 ADD DUP1 PUSH1 0x40 MSTORE POP DUP2 ADD SWAP1 PUSH3 0xA67 SWAP2 SWAP1 PUSH3 0x1F3D JUMP JUMPDEST POP PUSH3 0xA74 DUP7 DUP7 PUSH3 0x10A7 JUMP JUMPDEST PUSH3 0xAF1 DUP2 PUSH20 0xFFFFFFFFFFFFFFFFFFFFFFFFFFFFFFFFFFFFFFFF AND PUSH4 0x3B1BEBD1 PUSH1 0x40 MLOAD DUP2 PUSH4 0xFFFFFFFF AND PUSH1 0xE0 SHL DUP2 MSTORE PUSH1 0x4 ADD PUSH1 0x20 PUSH1 0x40 MLOAD DUP1 DUP4 SUB DUP2 DUP7 GAS STATICCALL ISZERO DUP1 ISZERO PUSH3 0xAC4 JUMPI RETURNDATASIZE PUSH1 0x0 DUP1 RETURNDATACOPY RETURNDATASIZE PUSH1 0x0 REVERT JUMPDEST POP POP POP POP PUSH1 0x40 MLOAD RETURNDATASIZE PUSH1 0x1F NOT PUSH1 0x1F DUP3 ADD AND DUP3 ADD DUP1 PUSH1 0x40 MSTORE POP DUP2 ADD SWAP1 PUSH3 0xAEA SWAP2 SWAP1 PUSH3 0x1F86 JUMP JUMPDEST DUP3 PUSH3 0x667 JUMP JUMPDEST SWAP4 POP SWAP4 POP SWAP4 POP POP SWAP3 POP SWAP3 POP SWAP3 JUMP JUMPDEST PUSH1 0x1 SLOAD DUP2 JUMP JUMPDEST PUSH1 0x60 PUSH1 0x3 PUSH1 0x0 DUP4 PUSH20 0xFFFFFFFFFFFFFFFFFFFFFFFFFFFFFFFFFFFFFFFF AND PUSH20 0xFFFFFFFFFFFFFFFFFFFFFFFFFFFFFFFFFFFFFFFF AND DUP2 MSTORE PUSH1 0x20 ADD SWAP1 DUP2 MSTORE PUSH1 0x20 ADD PUSH1 0x0 KECCAK256 PUSH1 0x1 ADD DUP1 SLOAD DUP1 PUSH1 0x20 MUL PUSH1 0x20 ADD PUSH1 0x40 MLOAD SWAP1 DUP2 ADD PUSH1 0x40 MSTORE DUP1 SWAP3 SWAP2 SWAP1 DUP2 DUP2 MSTORE PUSH1 0x20 ADD DUP3 DUP1 SLOAD DUP1 ISZERO PUSH3 0xBCB JUMPI PUSH1 0x20 MUL DUP3 ADD SWAP2 SWAP1 PUSH1 0x0 MSTORE PUSH1 0x20 PUSH1 0x0 KECCAK256 SWAP1 JUMPDEST DUP2 PUSH1 0x0 SWAP1 SLOAD SWAP1 PUSH2 0x100 EXP SWAP1 DIV PUSH20 0xFFFFFFFFFFFFFFFFFFFFFFFFFFFFFFFFFFFFFFFF AND PUSH20 0xFFFFFFFFFFFFFFFFFFFFFFFFFFFFFFFFFFFFFFFF AND DUP2 MSTORE PUSH1 0x20 ADD SWAP1 PUSH1 0x1 ADD SWAP1 DUP1 DUP4 GT PUSH3 0xB80 JUMPI JUMPDEST POP POP POP POP POP SWAP1 POP SWAP2 SWAP1 POP JUMP JUMPDEST PUSH1 0x0 PUSH1 0x20 MSTORE DUP1 PUSH1 0x0 MSTORE PUSH1 0x40 PUSH1 0x0 KECCAK256 PUSH1 0x0 SWAP2 POP SWAP1 POP DUP1 PUSH1 0x0 ADD SLOAD SWAP1 POP DUP2 JUMP JUMPDEST PUSH1 0x60 PUSH1 0x0 DUP1 DUP4 PUSH20 0xFFFFFFFFFFFFFFFFFFFFFFFFFFFFFFFFFFFFFFFF AND PUSH20 0xFFFFFFFFFFFFFFFFFFFFFFFFFFFFFFFFFFFFFFFF AND DUP2 MSTORE PUSH1 0x20 ADD SWAP1 DUP2 MSTORE PUSH1 0x20 ADD PUSH1 0x0 KECCAK256 PUSH1 0x2 ADD DUP1 SLOAD DUP1 PUSH1 0x20 MUL PUSH1 0x20 ADD PUSH1 0x40 MLOAD SWAP1 DUP2 ADD PUSH1 0x40 MSTORE DUP1 SWAP3 SWAP2 SWAP1 DUP2 DUP2 MSTORE PUSH1 0x20 ADD DUP3 DUP1 SLOAD DUP1 ISZERO PUSH3 0xCBA JUMPI PUSH1 0x20 MUL DUP3 ADD SWAP2 SWAP1 PUSH1 0x0 MSTORE PUSH1 0x20 PUSH1 0x0 KECCAK256 SWAP1 JUMPDEST DUP2 PUSH1 0x0 SWAP1 SLOAD SWAP1 PUSH2 0x100 EXP SWAP1 DIV PUSH20 0xFFFFFFFFFFFFFFFFFFFFFFFFFFFFFFFFFFFFFFFF AND PUSH20 0xFFFFFFFFFFFFFFFFFFFFFFFFFFFFFFFFFFFFFFFF AND DUP2 MSTORE PUSH1 0x20 ADD SWAP1 PUSH1 0x1 ADD SWAP1 DUP1 DUP4 GT PUSH3 0xC6F JUMPI JUMPDEST POP POP POP POP POP SWAP1 POP SWAP2 SWAP1 POP JUMP JUMPDEST PUSH1 0x4 SLOAD DUP2 JUMP JUMPDEST PUSH1 0x0 DUP1 PUSH1 0x0 CALLER PUSH20 0xFFFFFFFFFFFFFFFFFFFFFFFFFFFFFFFFFFFFFFFF AND PUSH20 0xFFFFFFFFFFFFFFFFFFFFFFFFFFFFFFFFFFFFFFFF AND DUP2 MSTORE PUSH1 0x20 ADD SWAP1 DUP2 MSTORE PUSH1 0x20 ADD PUSH1 0x0 KECCAK256 PUSH1 0x0 ADD SLOAD EQ ISZERO PUSH3 0xD95 JUMPI PUSH1 0x1 PUSH1 0x0 DUP2 SLOAD DUP1 SWAP3 SWAP2 SWAP1 PUSH3 0xD2C SWAP1 PUSH3 0x2022 JUMP JUMPDEST SWAP2 SWAP1 POP SSTORE POP PUSH1 0x2 CALLER SWAP1 DUP1 PUSH1 0x1 DUP2 SLOAD ADD DUP1 DUP3 SSTORE DUP1 SWAP2 POP POP PUSH1 0x1 SWAP1 SUB SWAP1 PUSH1 0x0 MSTORE PUSH1 0x20 PUSH1 0x0 KECCAK256 ADD PUSH1 0x0 SWAP1 SWAP2 SWAP1 SWAP2 SWAP1 SWAP2 PUSH2 0x100 EXP DUP2 SLOAD DUP2 PUSH20 0xFFFFFFFFFFFFFFFFFFFFFFFFFFFFFFFFFFFFFFFF MUL NOT AND SWAP1 DUP4 PUSH20 0xFFFFFFFFFFFFFFFFFFFFFFFFFFFFFFFFFFFFFFFF AND MUL OR SWAP1 SSTORE POP JUMPDEST PUSH1 0x0 PUSH1 0x3 PUSH1 0x0 DUP7 PUSH20 0xFFFFFFFFFFFFFFFFFFFFFFFFFFFFFFFFFFFFFFFF AND PUSH20 0xFFFFFFFFFFFFFFFFFFFFFFFFFFFFFFFFFFFFFFFF AND DUP2 MSTORE PUSH1 0x20 ADD SWAP1 DUP2 MSTORE PUSH1 0x20 ADD PUSH1 0x0 KECCAK256 PUSH1 0x0 ADD SLOAD EQ ISZERO PUSH3 0xE5F JUMPI PUSH1 0x4 PUSH1 0x0 DUP2 SLOAD DUP1 SWAP3 SWAP2 SWAP1 PUSH3 0xDF6 SWAP1 PUSH3 0x2022 JUMP JUMPDEST SWAP2 SWAP1 POP SSTORE POP PUSH1 0x5 DUP5 SWAP1 DUP1 PUSH1 0x1 DUP2 SLOAD ADD DUP1 DUP3 SSTORE DUP1 SWAP2 POP POP PUSH1 0x1 SWAP1 SUB SWAP1 PUSH1 0x0 MSTORE PUSH1 0x20 PUSH1 0x0 KECCAK256 ADD PUSH1 0x0 SWAP1 SWAP2 SWAP1 SWAP2 SWAP1 SWAP2 PUSH2 0x100 EXP DUP2 SLOAD DUP2 PUSH20 0xFFFFFFFFFFFFFFFFFFFFFFFFFFFFFFFFFFFFFFFF MUL NOT AND SWAP1 DUP4 PUSH20 0xFFFFFFFFFFFFFFFFFFFFFFFFFFFFFFFFFFFFFFFF AND MUL OR SWAP1 SSTORE POP JUMPDEST PUSH1 0x0 CALLVALUE CALLER DUP7 DUP7 DUP7 DUP7 CALLVALUE PUSH1 0x40 MLOAD PUSH3 0xE76 SWAP1 PUSH3 0x197B JUMP JUMPDEST PUSH3 0xE87 SWAP7 SWAP6 SWAP5 SWAP4 SWAP3 SWAP2 SWAP1 PUSH3 0x216E JUMP JUMPDEST PUSH1 0x40 MLOAD DUP1 SWAP2 SUB SWAP1 DUP3 CREATE SWAP1 POP DUP1 ISZERO DUP1 ISZERO PUSH3 0xEA5 JUMPI RETURNDATASIZE PUSH1 0x0 DUP1 RETURNDATACOPY RETURNDATASIZE PUSH1 0x0 REVERT JUMPDEST POP SWAP1 POP PUSH1 0x0 DUP1 CALLER PUSH20 0xFFFFFFFFFFFFFFFFFFFFFFFFFFFFFFFFFFFFFFFF AND PUSH20 0xFFFFFFFFFFFFFFFFFFFFFFFFFFFFFFFFFFFFFFFF AND DUP2 MSTORE PUSH1 0x20 ADD SWAP1 DUP2 MSTORE PUSH1 0x20 ADD PUSH1 0x0 KECCAK256 PUSH1 0x0 ADD PUSH1 0x0 DUP2 SLOAD DUP1 SWAP3 SWAP2 SWAP1 PUSH3 0xEFC SWAP1 PUSH3 0x2022 JUMP JUMPDEST SWAP2 SWAP1 POP SSTORE POP PUSH1 0x0 DUP1 CALLER PUSH20 0xFFFFFFFFFFFFFFFFFFFFFFFFFFFFFFFFFFFFFFFF AND PUSH20 0xFFFFFFFFFFFFFFFFFFFFFFFFFFFFFFFFFFFFFFFF AND DUP2 MSTORE PUSH1 0x20 ADD SWAP1 DUP2 MSTORE PUSH1 0x20 ADD PUSH1 0x0 KECCAK256 PUSH1 0x1 ADD DUP2 SWAP1 DUP1 PUSH1 0x1 DUP2 SLOAD ADD DUP1 DUP3 SSTORE DUP1 SWAP2 POP POP PUSH1 0x1 SWAP1 SUB SWAP1 PUSH1 0x0 MSTORE PUSH1 0x20 PUSH1 0x0 KECCAK256 ADD PUSH1 0x0 SWAP1 SWAP2 SWAP1 SWAP2 SWAP1 SWAP2 PUSH2 0x100 EXP DUP2 SLOAD DUP2 PUSH20 0xFFFFFFFFFFFFFFFFFFFFFFFFFFFFFFFFFFFFFFFF MUL NOT AND SWAP1 DUP4 PUSH20 0xFFFFFFFFFFFFFFFFFFFFFFFFFFFFFFFFFFFFFFFF AND MUL OR SWAP1 SSTORE POP PUSH1 0x3 PUSH1 0x0 DUP7 PUSH20 0xFFFFFFFFFFFFFFFFFFFFFFFFFFFFFFFFFFFFFFFF AND PUSH20 0xFFFFFFFFFFFFFFFFFFFFFFFFFFFFFFFFFFFFFFFF AND DUP2 MSTORE PUSH1 0x20 ADD SWAP1 DUP2 MSTORE PUSH1 0x20 ADD PUSH1 0x0 KECCAK256 PUSH1 0x0 ADD PUSH1 0x0 DUP2 SLOAD DUP1 SWAP3 SWAP2 SWAP1 PUSH3 0xFF8 SWAP1 PUSH3 0x2022 JUMP JUMPDEST SWAP2 SWAP1 POP SSTORE POP PUSH1 0x3 PUSH1 0x0 DUP7 PUSH20 0xFFFFFFFFFFFFFFFFFFFFFFFFFFFFFFFFFFFFFFFF AND PUSH20 0xFFFFFFFFFFFFFFFFFFFFFFFFFFFFFFFFFFFFFFFF AND DUP2 MSTORE PUSH1 0x20 ADD SWAP1 DUP2 MSTORE PUSH1 0x20 ADD PUSH1 0x0 KECCAK256 PUSH1 0x1 ADD DUP2 SWAP1 DUP1 PUSH1 0x1 DUP2 SLOAD ADD DUP1 DUP3 SSTORE DUP1 SWAP2 POP POP PUSH1 0x1 SWAP1 SUB SWAP1 PUSH1 0x0 MSTORE PUSH1 0x20 PUSH1 0x0 KECCAK256 ADD PUSH1 0x0 SWAP1 SWAP2 SWAP1 SWAP2 SWAP1 SWAP2 PUSH2 0x100 EXP DUP2 SLOAD DUP2 PUSH20 0xFFFFFFFFFFFFFFFFFFFFFFFFFFFFFFFFFFFFFFFF MUL NOT AND SWAP1 DUP4 PUSH20 0xFFFFFFFFFFFFFFFFFFFFFFFFFFFFFFFFFFFFFFFF AND MUL OR SWAP1 SSTORE POP POP POP POP POP POP JUMP JUMPDEST PUSH1 0x0 DUP1 PUSH1 0x0 DUP5 PUSH20 0xFFFFFFFFFFFFFFFFFFFFFFFFFFFFFFFFFFFFFFFF AND PUSH20 0xFFFFFFFFFFFFFFFFFFFFFFFFFFFFFFFFFFFFFFFF AND DUP2 MSTORE PUSH1 0x20 ADD SWAP1 DUP2 MSTORE PUSH1 0x20 ADD PUSH1 0x0 KECCAK256 PUSH1 0x1 ADD DUP1 SLOAD SWAP1 POP SWAP1 POP DUP1 DUP3 LT PUSH3 0x1135 JUMPI PUSH1 0x40 MLOAD PUSH32 0x8C379A000000000000000000000000000000000000000000000000000000000 DUP2 MSTORE PUSH1 0x4 ADD PUSH3 0x112C SWAP1 PUSH3 0x225F JUMP JUMPDEST PUSH1 0x40 MLOAD DUP1 SWAP2 SUB SWAP1 REVERT JUMPDEST PUSH1 0x0 DUP3 SWAP1 POP JUMPDEST PUSH1 0x1 DUP3 PUSH3 0x114A SWAP2 SWAP1 PUSH3 0x1FE7 JUMP JUMPDEST DUP2 LT ISZERO PUSH3 0x1295 JUMPI PUSH1 0x0 DUP1 DUP6 PUSH20 0xFFFFFFFFFFFFFFFFFFFFFFFFFFFFFFFFFFFFFFFF AND PUSH20 0xFFFFFFFFFFFFFFFFFFFFFFFFFFFFFFFFFFFFFFFF AND DUP2 MSTORE PUSH1 0x20 ADD SWAP1 DUP2 MSTORE PUSH1 0x20 ADD PUSH1 0x0 KECCAK256 PUSH1 0x1 ADD PUSH1 0x1 DUP3 PUSH3 0x11A2 SWAP2 SWAP1 PUSH3 0x2281 JUMP JUMPDEST DUP2 SLOAD DUP2 LT PUSH3 0x11B6 JUMPI PUSH3 0x11B5 PUSH3 0x1EC9 JUMP JUMPDEST JUMPDEST SWAP1 PUSH1 0x0 MSTORE PUSH1 0x20 PUSH1 0x0 KECCAK256 ADD PUSH1 0x0 SWAP1 SLOAD SWAP1 PUSH2 0x100 EXP SWAP1 DIV PUSH20 0xFFFFFFFFFFFFFFFFFFFFFFFFFFFFFFFFFFFFFFFF AND PUSH1 0x0 DUP1 DUP7 PUSH20 0xFFFFFFFFFFFFFFFFFFFFFFFFFFFFFFFFFFFFFFFF AND PUSH20 0xFFFFFFFFFFFFFFFFFFFFFFFFFFFFFFFFFFFFFFFF AND DUP2 MSTORE PUSH1 0x20 ADD SWAP1 DUP2 MSTORE PUSH1 0x20 ADD PUSH1 0x0 KECCAK256 PUSH1 0x1 ADD DUP3 DUP2 SLOAD DUP2 LT PUSH3 0x1237 JUMPI PUSH3 0x1236 PUSH3 0x1EC9 JUMP JUMPDEST JUMPDEST SWAP1 PUSH1 0x0 MSTORE PUSH1 0x20 PUSH1 0x0 KECCAK256 ADD PUSH1 0x0 PUSH2 0x100 EXP DUP2 SLOAD DUP2 PUSH20 0xFFFFFFFFFFFFFFFFFFFFFFFFFFFFFFFFFFFFFFFF MUL NOT AND SWAP1 DUP4 PUSH20 0xFFFFFFFFFFFFFFFFFFFFFFFFFFFFFFFFFFFFFFFF AND MUL OR SWAP1 SSTORE POP DUP1 DUP1 PUSH3 0x128C SWAP1 PUSH3 0x2022 JUMP JUMPDEST SWAP2 POP POP PUSH3 0x113B JUMP JUMPDEST POP PUSH1 0x0 DUP1 DUP5 PUSH20 0xFFFFFFFFFFFFFFFFFFFFFFFFFFFFFFFFFFFFFFFF AND PUSH20 0xFFFFFFFFFFFFFFFFFFFFFFFFFFFFFFFFFFFFFFFF AND DUP2 MSTORE PUSH1 0x20 ADD SWAP1 DUP2 MSTORE PUSH1 0x20 ADD PUSH1 0x0 KECCAK256 PUSH1 0x2 ADD PUSH1 0x0 DUP1 DUP6 PUSH20 0xFFFFFFFFFFFFFFFFFFFFFFFFFFFFFFFFFFFFFFFF AND PUSH20 0xFFFFFFFFFFFFFFFFFFFFFFFFFFFFFFFFFFFFFFFF AND DUP2 MSTORE PUSH1 0x20 ADD SWAP1 DUP2 MSTORE PUSH1 0x20 ADD PUSH1 0x0 KECCAK256 PUSH1 0x1 ADD PUSH1 0x1 PUSH1 0x0 DUP1 DUP8 PUSH20 0xFFFFFFFFFFFFFFFFFFFFFFFFFFFFFFFFFFFFFFFF AND PUSH20 0xFFFFFFFFFFFFFFFFFFFFFFFFFFFFFFFFFFFFFFFF AND DUP2 MSTORE PUSH1 0x20 ADD SWAP1 DUP2 MSTORE PUSH1 0x20 ADD PUSH1 0x0 KECCAK256 PUSH1 0x1 ADD DUP1 SLOAD SWAP1 POP PUSH3 0x136B SWAP2 SWAP1 PUSH3 0x1FE7 JUMP JUMPDEST DUP2 SLOAD DUP2 LT PUSH3 0x137F JUMPI PUSH3 0x137E PUSH3 0x1EC9 JUMP JUMPDEST JUMPDEST SWAP1 PUSH1 0x0 MSTORE PUSH1 0x20 PUSH1 0x0 KECCAK256 ADD PUSH1 0x0 SWAP1 SLOAD SWAP1 PUSH2 0x100 EXP SWAP1 DIV PUSH20 0xFFFFFFFFFFFFFFFFFFFFFFFFFFFFFFFFFFFFFFFF AND SWAP1 DUP1 PUSH1 0x1 DUP2 SLOAD ADD DUP1 DUP3 SSTORE DUP1 SWAP2 POP POP PUSH1 0x1 SWAP1 SUB SWAP1 PUSH1 0x0 MSTORE PUSH1 0x20 PUSH1 0x0 KECCAK256 ADD PUSH1 0x0 SWAP1 SWAP2 SWAP1 SWAP2 SWAP1 SWAP2 PUSH2 0x100 EXP DUP2 SLOAD DUP2 PUSH20 0xFFFFFFFFFFFFFFFFFFFFFFFFFFFFFFFFFFFFFFFF MUL NOT AND SWAP1 DUP4 PUSH20 0xFFFFFFFFFFFFFFFFFFFFFFFFFFFFFFFFFFFFFFFF AND MUL OR SWAP1 SSTORE POP PUSH1 0x0 DUP1 DUP5 PUSH20 0xFFFFFFFFFFFFFFFFFFFFFFFFFFFFFFFFFFFFFFFF AND PUSH20 0xFFFFFFFFFFFFFFFFFFFFFFFFFFFFFFFFFFFFFFFF AND DUP2 MSTORE PUSH1 0x20 ADD SWAP1 DUP2 MSTORE PUSH1 0x20 ADD PUSH1 0x0 KECCAK256 PUSH1 0x1 ADD DUP1 SLOAD DUP1 PUSH3 0x145E JUMPI PUSH3 0x145D PUSH3 0x22DE JUMP JUMPDEST JUMPDEST PUSH1 0x1 SWAP1 SUB DUP2 DUP2 SWAP1 PUSH1 0x0 MSTORE PUSH1 0x20 PUSH1 0x0 KECCAK256 ADD PUSH1 0x0 PUSH2 0x100 EXP DUP2 SLOAD SWAP1 PUSH20 0xFFFFFFFFFFFFFFFFFFFFFFFFFFFFFFFFFFFFFFFF MUL NOT AND SWAP1 SSTORE SWAP1 SSTORE POP POP POP JUMP JUMPDEST PUSH1 0x0 DUP1 PUSH1 0x0 SWAP1 POP JUMPDEST PUSH1 0x1 PUSH1 0x3 PUSH1 0x0 DUP7 PUSH20 0xFFFFFFFFFFFFFFFFFFFFFFFFFFFFFFFFFFFFFFFF AND PUSH20 0xFFFFFFFFFFFFFFFFFFFFFFFFFFFFFFFFFFFFFFFF AND DUP2 MSTORE PUSH1 0x20 ADD SWAP1 DUP2 MSTORE PUSH1 0x20 ADD PUSH1 0x0 KECCAK256 PUSH1 0x1 ADD DUP1 SLOAD SWAP1 POP PUSH3 0x14F4 SWAP2 SWAP1 PUSH3 0x1FE7 JUMP JUMPDEST DUP2 LT ISZERO PUSH3 0x15CC JUMPI DUP3 PUSH20 0xFFFFFFFFFFFFFFFFFFFFFFFFFFFFFFFFFFFFFFFF AND PUSH1 0x3 PUSH1 0x0 DUP7 PUSH20 0xFFFFFFFFFFFFFFFFFFFFFFFFFFFFFFFFFFFFFFFF AND PUSH20 0xFFFFFFFFFFFFFFFFFFFFFFFFFFFFFFFFFFFFFFFF AND DUP2 MSTORE PUSH1 0x20 ADD SWAP1 DUP2 MSTORE PUSH1 0x20 ADD PUSH1 0x0 KECCAK256 PUSH1 0x1 ADD DUP3 DUP2 SLOAD DUP2 LT PUSH3 0x156A JUMPI PUSH3 0x1569 PUSH3 0x1EC9 JUMP JUMPDEST JUMPDEST SWAP1 PUSH1 0x0 MSTORE PUSH1 0x20 PUSH1 0x0 KECCAK256 ADD PUSH1 0x0 SWAP1 SLOAD SWAP1 PUSH2 0x100 EXP SWAP1 DIV PUSH20 0xFFFFFFFFFFFFFFFFFFFFFFFFFFFFFFFFFFFFFFFF AND PUSH20 0xFFFFFFFFFFFFFFFFFFFFFFFFFFFFFFFFFFFFFFFF AND EQ ISZERO PUSH3 0x15B6 JUMPI DUP1 SWAP2 POP JUMPDEST DUP1 DUP1 PUSH3 0x15C3 SWAP1 PUSH3 0x2022 JUMP JUMPDEST SWAP2 POP POP PUSH3 0x14A0 JUMP JUMPDEST POP PUSH1 0x0 DUP2 SWAP1 POP JUMPDEST PUSH1 0x1 PUSH1 0x3 PUSH1 0x0 DUP7 PUSH20 0xFFFFFFFFFFFFFFFFFFFFFFFFFFFFFFFFFFFFFFFF AND PUSH20 0xFFFFFFFFFFFFFFFFFFFFFFFFFFFFFFFFFFFFFFFF AND DUP2 MSTORE PUSH1 0x20 ADD SWAP1 DUP2 MSTORE PUSH1 0x20 ADD PUSH1 0x0 KECCAK256 PUSH1 0x1 ADD DUP1 SLOAD SWAP1 POP PUSH3 0x1627 SWAP2 SWAP1 PUSH3 0x1FE7 JUMP JUMPDEST DUP2 LT ISZERO PUSH3 0x1774 JUMPI PUSH1 0x3 PUSH1 0x0 DUP6 PUSH20 0xFFFFFFFFFFFFFFFFFFFFFFFFFFFFFFFFFFFFFFFF AND PUSH20 0xFFFFFFFFFFFFFFFFFFFFFFFFFFFFFFFFFFFFFFFF AND DUP2 MSTORE PUSH1 0x20 ADD SWAP1 DUP2 MSTORE PUSH1 0x20 ADD PUSH1 0x0 KECCAK256 PUSH1 0x1 ADD PUSH1 0x1 DUP3 PUSH3 0x1680 SWAP2 SWAP1 PUSH3 0x2281 JUMP JUMPDEST DUP2 SLOAD DUP2 LT PUSH3 0x1694 JUMPI PUSH3 0x1693 PUSH3 0x1EC9 JUMP JUMPDEST JUMPDEST SWAP1 PUSH1 0x0 MSTORE PUSH1 0x20 PUSH1 0x0 KECCAK256 ADD PUSH1 0x0 SWAP1 SLOAD SWAP1 PUSH2 0x100 EXP SWAP1 DIV PUSH20 0xFFFFFFFFFFFFFFFFFFFFFFFFFFFFFFFFFFFFFFFF AND PUSH1 0x3 PUSH1 0x0 DUP7 PUSH20 0xFFFFFFFFFFFFFFFFFFFFFFFFFFFFFFFFFFFFFFFF AND PUSH20 0xFFFFFFFFFFFFFFFFFFFFFFFFFFFFFFFFFFFFFFFF AND DUP2 MSTORE PUSH1 0x20 ADD SWAP1 DUP2 MSTORE PUSH1 0x20 ADD PUSH1 0x0 KECCAK256 PUSH1 0x1 ADD DUP3 DUP2 SLOAD DUP2 LT PUSH3 0x1716 JUMPI PUSH3 0x1715 PUSH3 0x1EC9 JUMP JUMPDEST JUMPDEST SWAP1 PUSH1 0x0 MSTORE PUSH1 0x20 PUSH1 0x0 KECCAK256 ADD PUSH1 0x0 PUSH2 0x100 EXP DUP2 SLOAD DUP2 PUSH20 0xFFFFFFFFFFFFFFFFFFFFFFFFFFFFFFFFFFFFFFFF MUL NOT AND SWAP1 DUP4 PUSH20 0xFFFFFFFFFFFFFFFFFFFFFFFFFFFFFFFFFFFFFFFF AND MUL OR SWAP1 SSTORE POP DUP1 DUP1 PUSH3 0x176B SWAP1 PUSH3 0x2022 JUMP JUMPDEST SWAP2 POP POP PUSH3 0x15D3 JUMP JUMPDEST POP PUSH1 0x3 PUSH1 0x0 DUP5 PUSH20 0xFFFFFFFFFFFFFFFFFFFFFFFFFFFFFFFFFFFFFFFF AND PUSH20 0xFFFFFFFFFFFFFFFFFFFFFFFFFFFFFFFFFFFFFFFF AND DUP2 MSTORE PUSH1 0x20 ADD SWAP1 DUP2 MSTORE PUSH1 0x20 ADD PUSH1 0x0 KECCAK256 PUSH1 0x2 ADD PUSH1 0x3 PUSH1 0x0 DUP6 PUSH20 0xFFFFFFFFFFFFFFFFFFFFFFFFFFFFFFFFFFFFFFFF AND PUSH20 0xFFFFFFFFFFFFFFFFFFFFFFFFFFFFFFFFFFFFFFFF AND DUP2 MSTORE PUSH1 0x20 ADD SWAP1 DUP2 MSTORE PUSH1 0x20 ADD PUSH1 0x0 KECCAK256 PUSH1 0x1 ADD PUSH1 0x1 PUSH1 0x3 PUSH1 0x0 DUP8 PUSH20 0xFFFFFFFFFFFFFFFFFFFFFFFFFFFFFFFFFFFFFFFF AND PUSH20 0xFFFFFFFFFFFFFFFFFFFFFFFFFFFFFFFFFFFFFFFF AND DUP2 MSTORE PUSH1 0x20 ADD SWAP1 DUP2 MSTORE PUSH1 0x20 ADD PUSH1 0x0 KECCAK256 PUSH1 0x1 ADD DUP1 SLOAD SWAP1 POP PUSH3 0x184D SWAP2 SWAP1 PUSH3 0x1FE7 JUMP JUMPDEST DUP2 SLOAD DUP2 LT PUSH3 0x1861 JUMPI PUSH3 0x1860 PUSH3 0x1EC9 JUMP JUMPDEST JUMPDEST SWAP1 PUSH1 0x0 MSTORE PUSH1 0x20 PUSH1 0x0 KECCAK256 ADD PUSH1 0x0 SWAP1 SLOAD SWAP1 PUSH2 0x100 EXP SWAP1 DIV PUSH20 0xFFFFFFFFFFFFFFFFFFFFFFFFFFFFFFFFFFFFFFFF AND SWAP1 DUP1 PUSH1 0x1 DUP2 SLOAD ADD DUP1 DUP3 SSTORE DUP1 SWAP2 POP POP PUSH1 0x1 SWAP1 SUB SWAP1 PUSH1 0x0 MSTORE PUSH1 0x20 PUSH1 0x0 KECCAK256 ADD PUSH1 0x0 SWAP1 SWAP2 SWAP1 SWAP2 SWAP1 SWAP2 PUSH2 0x100 EXP DUP2 SLOAD DUP2 PUSH20 0xFFFFFFFFFFFFFFFFFFFFFFFFFFFFFFFFFFFFFFFF MUL NOT AND SWAP1 DUP4 PUSH20 0xFFFFFFFFFFFFFFFFFFFFFFFFFFFFFFFFFFFFFFFF AND MUL OR SWAP1 SSTORE POP PUSH1 0x3 PUSH1 0x0 DUP5 PUSH20 0xFFFFFFFFFFFFFFFFFFFFFFFFFFFFFFFFFFFFFFFF AND PUSH20 0xFFFFFFFFFFFFFFFFFFFFFFFFFFFFFFFFFFFFFFFF AND DUP2 MSTORE PUSH1 0x20 ADD SWAP1 DUP2 MSTORE PUSH1 0x20 ADD PUSH1 0x0 KECCAK256 PUSH1 0x2 ADD DUP1 SLOAD DUP1 PUSH3 0x1941 JUMPI PUSH3 0x1940 PUSH3 0x22DE JUMP JUMPDEST JUMPDEST PUSH1 0x1 SWAP1 SUB DUP2 DUP2 SWAP1 PUSH1 0x0 MSTORE PUSH1 0x20 PUSH1 0x0 KECCAK256 ADD PUSH1 0x0 PUSH2 0x100 EXP DUP2 SLOAD SWAP1 PUSH20 0xFFFFFFFFFFFFFFFFFFFFFFFFFFFFFFFFFFFFFFFF MUL NOT AND SWAP1 SSTORE SWAP1 SSTORE POP POP POP JUMP JUMPDEST PUSH2 0x119C DUP1 PUSH3 0x230E DUP4 CODECOPY ADD SWAP1 JUMP JUMPDEST PUSH1 0x0 PUSH1 0x40 MLOAD SWAP1 POP SWAP1 JUMP JUMPDEST PUSH1 0x0 DUP1 REVERT JUMPDEST PUSH1 0x0 DUP1 REVERT JUMPDEST PUSH1 0x0 PUSH20 0xFFFFFFFFFFFFFFFFFFFFFFFFFFFFFFFFFFFFFFFF DUP3 AND SWAP1 POP SWAP2 SWAP1 POP JUMP JUMPDEST PUSH1 0x0 PUSH3 0x19CA DUP3 PUSH3 0x199D JUMP JUMPDEST SWAP1 POP SWAP2 SWAP1 POP JUMP JUMPDEST PUSH3 0x19DC DUP2 PUSH3 0x19BD JUMP JUMPDEST DUP2 EQ PUSH3 0x19E8 JUMPI PUSH1 0x0 DUP1 REVERT JUMPDEST POP JUMP JUMPDEST PUSH1 0x0 DUP2 CALLDATALOAD SWAP1 POP PUSH3 0x19FC DUP2 PUSH3 0x19D1 JUMP JUMPDEST SWAP3 SWAP2 POP POP JUMP JUMPDEST PUSH1 0x0 PUSH1 0x20 DUP3 DUP5 SUB SLT ISZERO PUSH3 0x1A1B JUMPI PUSH3 0x1A1A PUSH3 0x1993 JUMP JUMPDEST JUMPDEST PUSH1 0x0 PUSH3 0x1A2B DUP5 DUP3 DUP6 ADD PUSH3 0x19EB JUMP JUMPDEST SWAP2 POP POP SWAP3 SWAP2 POP POP JUMP JUMPDEST PUSH1 0x0 DUP2 MLOAD SWAP1 POP SWAP2 SWAP1 POP JUMP JUMPDEST PUSH1 0x0 DUP3 DUP3 MSTORE PUSH1 0x20 DUP3 ADD SWAP1 POP SWAP3 SWAP2 POP POP JUMP JUMPDEST PUSH1 0x0 DUP2 SWAP1 POP PUSH1 0x20 DUP3 ADD SWAP1 POP SWAP2 SWAP1 POP JUMP JUMPDEST PUSH3 0x1A6B DUP2 PUSH3 0x19BD JUMP JUMPDEST DUP3 MSTORE POP POP JUMP JUMPDEST PUSH1 0x0 PUSH3 0x1A7F DUP4 DUP4 PUSH3 0x1A60 JUMP JUMPDEST PUSH1 0x20 DUP4 ADD SWAP1 POP SWAP3 SWAP2 POP POP JUMP JUMPDEST PUSH1 0x0 PUSH1 0x20 DUP3 ADD SWAP1 POP SWAP2 SWAP1 POP JUMP JUMPDEST PUSH1 0x0 PUSH3 0x1AA5 DUP3 PUSH3 0x1A34 JUMP JUMPDEST PUSH3 0x1AB1 DUP2 DUP6 PUSH3 0x1A3F JUMP JUMPDEST SWAP4 POP PUSH3 0x1ABE DUP4 PUSH3 0x1A50 JUMP JUMPDEST DUP1 PUSH1 0x0 JUMPDEST DUP4 DUP2 LT ISZERO PUSH3 0x1AF5 JUMPI DUP2 MLOAD PUSH3 0x1AD9 DUP9 DUP3 PUSH3 0x1A71 JUMP JUMPDEST SWAP8 POP PUSH3 0x1AE6 DUP4 PUSH3 0x1A8B JUMP JUMPDEST SWAP3 POP POP PUSH1 0x1 DUP2 ADD SWAP1 POP PUSH3 0x1AC2 JUMP JUMPDEST POP DUP6 SWAP4 POP POP POP POP SWAP3 SWAP2 POP POP JUMP JUMPDEST PUSH1 0x0 PUSH1 0x20 DUP3 ADD SWAP1 POP DUP2 DUP2 SUB PUSH1 0x0 DUP4 ADD MSTORE PUSH3 0x1B1E DUP2 DUP5 PUSH3 0x1A98 JUMP JUMPDEST SWAP1 POP SWAP3 SWAP2 POP POP JUMP JUMPDEST PUSH1 0x0 DUP2 SWAP1 POP SWAP2 SWAP1 POP JUMP JUMPDEST PUSH3 0x1B3B DUP2 PUSH3 0x1B26 JUMP JUMPDEST DUP2 EQ PUSH3 0x1B47 JUMPI PUSH1 0x0 DUP1 REVERT JUMPDEST POP JUMP JUMPDEST PUSH1 0x0 DUP2 CALLDATALOAD SWAP1 POP PUSH3 0x1B5B DUP2 PUSH3 0x1B30 JUMP JUMPDEST SWAP3 SWAP2 POP POP JUMP JUMPDEST PUSH1 0x0 DUP1 PUSH1 0x40 DUP4 DUP6 SUB SLT ISZERO PUSH3 0x1B7B JUMPI PUSH3 0x1B7A PUSH3 0x1993 JUMP JUMPDEST JUMPDEST PUSH1 0x0 PUSH3 0x1B8B DUP6 DUP3 DUP7 ADD PUSH3 0x19EB JUMP JUMPDEST SWAP3 POP POP PUSH1 0x20 PUSH3 0x1B9E DUP6 DUP3 DUP7 ADD PUSH3 0x1B4A JUMP JUMPDEST SWAP2 POP POP SWAP3 POP SWAP3 SWAP1 POP JUMP JUMPDEST PUSH1 0x0 DUP1 PUSH1 0x40 DUP4 DUP6 SUB SLT ISZERO PUSH3 0x1BC2 JUMPI PUSH3 0x1BC1 PUSH3 0x1993 JUMP JUMPDEST JUMPDEST PUSH1 0x0 PUSH3 0x1BD2 DUP6 DUP3 DUP7 ADD PUSH3 0x19EB JUMP JUMPDEST SWAP3 POP POP PUSH1 0x20 PUSH3 0x1BE5 DUP6 DUP3 DUP7 ADD PUSH3 0x19EB JUMP JUMPDEST SWAP2 POP POP SWAP3 POP SWAP3 SWAP1 POP JUMP JUMPDEST PUSH3 0x1BFA DUP2 PUSH3 0x1B26 JUMP JUMPDEST DUP3 MSTORE POP POP JUMP JUMPDEST PUSH3 0x1C0B DUP2 PUSH3 0x19BD JUMP JUMPDEST DUP3 MSTORE POP POP JUMP JUMPDEST PUSH1 0x0 PUSH1 0x60 DUP3 ADD SWAP1 POP PUSH3 0x1C28 PUSH1 0x0 DUP4 ADD DUP7 PUSH3 0x1BEF JUMP JUMPDEST DUP2 DUP2 SUB PUSH1 0x20 DUP4 ADD MSTORE PUSH3 0x1C3C DUP2 DUP6 PUSH3 0x1A98 JUMP JUMPDEST SWAP1 POP PUSH3 0x1C4D PUSH1 0x40 DUP4 ADD DUP5 PUSH3 0x1C00 JUMP JUMPDEST SWAP5 SWAP4 POP POP POP POP JUMP JUMPDEST PUSH1 0x0 PUSH1 0x20 DUP3 ADD SWAP1 POP PUSH3 0x1C6C PUSH1 0x0 DUP4 ADD DUP5 PUSH3 0x1BEF JUMP JUMPDEST SWAP3 SWAP2 POP POP JUMP JUMPDEST PUSH1 0x0 DUP1 REVERT JUMPDEST PUSH1 0x0 DUP1 REVERT JUMPDEST PUSH1 0x0 PUSH1 0x1F NOT PUSH1 0x1F DUP4 ADD AND SWAP1 POP SWAP2 SWAP1 POP JUMP JUMPDEST PUSH32 0x4E487B7100000000000000000000000000000000000000000000000000000000 PUSH1 0x0 MSTORE PUSH1 0x41 PUSH1 0x4 MSTORE PUSH1 0x24 PUSH1 0x0 REVERT JUMPDEST PUSH3 0x1CC7 DUP3 PUSH3 0x1C7C JUMP JUMPDEST DUP2 ADD DUP2 DUP2 LT PUSH8 0xFFFFFFFFFFFFFFFF DUP3 GT OR ISZERO PUSH3 0x1CE9 JUMPI PUSH3 0x1CE8 PUSH3 0x1C8D JUMP JUMPDEST JUMPDEST DUP1 PUSH1 0x40 MSTORE POP POP POP JUMP JUMPDEST PUSH1 0x0 PUSH3 0x1CFE PUSH3 0x1989 JUMP JUMPDEST SWAP1 POP PUSH3 0x1D0C DUP3 DUP3 PUSH3 0x1CBC JUMP JUMPDEST SWAP2 SWAP1 POP JUMP JUMPDEST PUSH1 0x0 PUSH8 0xFFFFFFFFFFFFFFFF DUP3 GT ISZERO PUSH3 0x1D2F JUMPI PUSH3 0x1D2E PUSH3 0x1C8D JUMP JUMPDEST JUMPDEST PUSH3 0x1D3A DUP3 PUSH3 0x1C7C JUMP JUMPDEST SWAP1 POP PUSH1 0x20 DUP2 ADD SWAP1 POP SWAP2 SWAP1 POP JUMP JUMPDEST DUP3 DUP2 DUP4 CALLDATACOPY PUSH1 0x0 DUP4 DUP4 ADD MSTORE POP POP POP JUMP JUMPDEST PUSH1 0x0 PUSH3 0x1D6D PUSH3 0x1D67 DUP5 PUSH3 0x1D11 JUMP JUMPDEST PUSH3 0x1CF2 JUMP JUMPDEST SWAP1 POP DUP3 DUP2 MSTORE PUSH1 0x20 DUP2 ADD DUP5 DUP5 DUP5 ADD GT ISZERO PUSH3 0x1D8C JUMPI PUSH3 0x1D8B PUSH3 0x1C77 JUMP JUMPDEST JUMPDEST PUSH3 0x1D99 DUP5 DUP3 DUP6 PUSH3 0x1D47 JUMP JUMPDEST POP SWAP4 SWAP3 POP POP POP JUMP JUMPDEST PUSH1 0x0 DUP3 PUSH1 0x1F DUP4 ADD SLT PUSH3 0x1DB9 JUMPI PUSH3 0x1DB8 PUSH3 0x1C72 JUMP JUMPDEST JUMPDEST DUP2 CALLDATALOAD PUSH3 0x1DCB DUP5 DUP3 PUSH1 0x20 DUP7 ADD PUSH3 0x1D56 JUMP JUMPDEST SWAP2 POP POP SWAP3 SWAP2 POP POP JUMP JUMPDEST PUSH1 0x0 PUSH3 0x1DE1 DUP3 PUSH3 0x199D JUMP JUMPDEST SWAP1 POP SWAP2 SWAP1 POP JUMP JUMPDEST PUSH3 0x1DF3 DUP2 PUSH3 0x1DD4 JUMP JUMPDEST DUP2 EQ PUSH3 0x1DFF JUMPI PUSH1 0x0 DUP1 REVERT JUMPDEST POP JUMP JUMPDEST PUSH1 0x0 DUP2 CALLDATALOAD SWAP1 POP PUSH3 0x1E13 DUP2 PUSH3 0x1DE8 JUMP JUMPDEST SWAP3 SWAP2 POP POP JUMP JUMPDEST PUSH1 0x0 DUP1 PUSH1 0x0 DUP1 PUSH1 0x80 DUP6 DUP8 SUB SLT ISZERO PUSH3 0x1E36 JUMPI PUSH3 0x1E35 PUSH3 0x1993 JUMP JUMPDEST JUMPDEST PUSH1 0x0 PUSH3 0x1E46 DUP8 DUP3 DUP9 ADD PUSH3 0x19EB JUMP JUMPDEST SWAP5 POP POP PUSH1 0x20 DUP6 ADD CALLDATALOAD PUSH8 0xFFFFFFFFFFFFFFFF DUP2 GT ISZERO PUSH3 0x1E6A JUMPI PUSH3 0x1E69 PUSH3 0x1998 JUMP JUMPDEST JUMPDEST PUSH3 0x1E78 DUP8 DUP3 DUP9 ADD PUSH3 0x1DA1 JUMP JUMPDEST SWAP4 POP POP PUSH1 0x40 DUP6 ADD CALLDATALOAD PUSH8 0xFFFFFFFFFFFFFFFF DUP2 GT ISZERO PUSH3 0x1E9C JUMPI PUSH3 0x1E9B PUSH3 0x1998 JUMP JUMPDEST JUMPDEST PUSH3 0x1EAA DUP8 DUP3 DUP9 ADD PUSH3 0x1DA1 JUMP JUMPDEST SWAP3 POP POP PUSH1 0x60 PUSH3 0x1EBD DUP8 DUP3 DUP9 ADD PUSH3 0x1E02 JUMP JUMPDEST SWAP2 POP POP SWAP3 SWAP6 SWAP2 SWAP5 POP SWAP3 POP JUMP JUMPDEST PUSH32 0x4E487B7100000000000000000000000000000000000000000000000000000000 PUSH1 0x0 MSTORE PUSH1 0x32 PUSH1 0x4 MSTORE PUSH1 0x24 PUSH1 0x0 REVERT JUMPDEST PUSH1 0x0 PUSH3 0x1F05 DUP3 PUSH3 0x19BD JUMP JUMPDEST SWAP1 POP SWAP2 SWAP1 POP JUMP JUMPDEST PUSH3 0x1F17 DUP2 PUSH3 0x1EF8 JUMP JUMPDEST DUP2 EQ PUSH3 0x1F23 JUMPI PUSH1 0x0 DUP1 REVERT JUMPDEST POP JUMP JUMPDEST PUSH1 0x0 DUP2 MLOAD SWAP1 POP PUSH3 0x1F37 DUP2 PUSH3 0x1F0C JUMP JUMPDEST SWAP3 SWAP2 POP POP JUMP JUMPDEST PUSH1 0x0 PUSH1 0x20 DUP3 DUP5 SUB SLT ISZERO PUSH3 0x1F56 JUMPI PUSH3 0x1F55 PUSH3 0x1993 JUMP JUMPDEST JUMPDEST PUSH1 0x0 PUSH3 0x1F66 DUP5 DUP3 DUP6 ADD PUSH3 0x1F26 JUMP JUMPDEST SWAP2 POP POP SWAP3 SWAP2 POP POP JUMP JUMPDEST PUSH1 0x0 DUP2 MLOAD SWAP1 POP PUSH3 0x1F80 DUP2 PUSH3 0x19D1 JUMP JUMPDEST SWAP3 SWAP2 POP POP JUMP JUMPDEST PUSH1 0x0 PUSH1 0x20 DUP3 DUP5 SUB SLT ISZERO PUSH3 0x1F9F JUMPI PUSH3 0x1F9E PUSH3 0x1993 JUMP JUMPDEST JUMPDEST PUSH1 0x0 PUSH3 0x1FAF DUP5 DUP3 DUP6 ADD PUSH3 0x1F6F JUMP JUMPDEST SWAP2 POP POP SWAP3 SWAP2 POP POP JUMP JUMPDEST PUSH32 0x4E487B7100000000000000000000000000000000000000000000000000000000 PUSH1 0x0 MSTORE PUSH1 0x11 PUSH1 0x4 MSTORE PUSH1 0x24 PUSH1 0x0 REVERT JUMPDEST PUSH1 0x0 PUSH3 0x1FF4 DUP3 PUSH3 0x1B26 JUMP JUMPDEST SWAP2 POP PUSH3 0x2001 DUP4 PUSH3 0x1B26 JUMP JUMPDEST SWAP3 POP DUP3 DUP3 LT ISZERO PUSH3 0x2017 JUMPI PUSH3 0x2016 PUSH3 0x1FB8 JUMP JUMPDEST JUMPDEST DUP3 DUP3 SUB SWAP1 POP SWAP3 SWAP2 POP POP JUMP JUMPDEST PUSH1 0x0 PUSH3 0x202F DUP3 PUSH3 0x1B26 JUMP JUMPDEST SWAP2 POP PUSH32 0xFFFFFFFFFFFFFFFFFFFFFFFFFFFFFFFFFFFFFFFFFFFFFFFFFFFFFFFFFFFFFFFF DUP3 EQ ISZERO PUSH3 0x2065 JUMPI PUSH3 0x2064 PUSH3 0x1FB8 JUMP JUMPDEST JUMPDEST PUSH1 0x1 DUP3 ADD SWAP1 POP SWAP2 SWAP1 POP JUMP JUMPDEST PUSH1 0x0 DUP2 MLOAD SWAP1 POP SWAP2 SWAP1 POP JUMP JUMPDEST PUSH1 0x0 DUP3 DUP3 MSTORE PUSH1 0x20 DUP3 ADD SWAP1 POP SWAP3 SWAP2 POP POP JUMP JUMPDEST PUSH1 0x0 JUMPDEST DUP4 DUP2 LT ISZERO PUSH3 0x20AC JUMPI DUP1 DUP3 ADD MLOAD DUP2 DUP5 ADD MSTORE PUSH1 0x20 DUP2 ADD SWAP1 POP PUSH3 0x208F JUMP JUMPDEST DUP4 DUP2 GT ISZERO PUSH3 0x20BC JUMPI PUSH1 0x0 DUP5 DUP5 ADD MSTORE JUMPDEST POP POP POP POP JUMP JUMPDEST PUSH1 0x0 PUSH3 0x20CF DUP3 PUSH3 0x2070 JUMP JUMPDEST PUSH3 0x20DB DUP2 DUP6 PUSH3 0x207B JUMP JUMPDEST SWAP4 POP PUSH3 0x20ED DUP2 DUP6 PUSH1 0x20 DUP7 ADD PUSH3 0x208C JUMP JUMPDEST PUSH3 0x20F8 DUP2 PUSH3 0x1C7C JUMP JUMPDEST DUP5 ADD SWAP2 POP POP SWAP3 SWAP2 POP POP JUMP JUMPDEST PUSH1 0x0 DUP2 SWAP1 POP SWAP2 SWAP1 POP JUMP JUMPDEST PUSH1 0x0 PUSH3 0x212E PUSH3 0x2128 PUSH3 0x2122 DUP5 PUSH3 0x199D JUMP JUMPDEST PUSH3 0x2103 JUMP JUMPDEST PUSH3 0x199D JUMP JUMPDEST SWAP1 POP SWAP2 SWAP1 POP JUMP JUMPDEST PUSH1 0x0 PUSH3 0x2142 DUP3 PUSH3 0x210D JUMP JUMPDEST SWAP1 POP SWAP2 SWAP1 POP JUMP JUMPDEST PUSH1 0x0 PUSH3 0x2156 DUP3 PUSH3 0x2135 JUMP JUMPDEST SWAP1 POP SWAP2 SWAP1 POP JUMP JUMPDEST PUSH3 0x2168 DUP2 PUSH3 0x2149 JUMP JUMPDEST DUP3 MSTORE POP POP JUMP JUMPDEST PUSH1 0x0 PUSH1 0xC0 DUP3 ADD SWAP1 POP PUSH3 0x2185 PUSH1 0x0 DUP4 ADD DUP10 PUSH3 0x1C00 JUMP JUMPDEST PUSH3 0x2194 PUSH1 0x20 DUP4 ADD DUP9 PUSH3 0x1C00 JUMP JUMPDEST DUP2 DUP2 SUB PUSH1 0x40 DUP4 ADD MSTORE PUSH3 0x21A8 DUP2 DUP8 PUSH3 0x20C2 JUMP JUMPDEST SWAP1 POP DUP2 DUP2 SUB PUSH1 0x60 DUP4 ADD MSTORE PUSH3 0x21BE DUP2 DUP7 PUSH3 0x20C2 JUMP JUMPDEST SWAP1 POP PUSH3 0x21CF PUSH1 0x80 DUP4 ADD DUP6 PUSH3 0x215D JUMP JUMPDEST PUSH3 0x21DE PUSH1 0xA0 DUP4 ADD DUP5 PUSH3 0x1BEF JUMP JUMPDEST SWAP8 SWAP7 POP POP POP POP POP POP POP JUMP JUMPDEST PUSH32 0x4F70656E20636F6E747261637420696E646578206F7574206F6620626F756E64 PUSH1 0x0 DUP3 ADD MSTORE PUSH32 0x7300000000000000000000000000000000000000000000000000000000000000 PUSH1 0x20 DUP3 ADD MSTORE POP JUMP JUMPDEST PUSH1 0x0 PUSH3 0x2247 PUSH1 0x21 DUP4 PUSH3 0x207B JUMP JUMPDEST SWAP2 POP PUSH3 0x2254 DUP3 PUSH3 0x21E9 JUMP JUMPDEST PUSH1 0x40 DUP3 ADD SWAP1 POP SWAP2 SWAP1 POP JUMP JUMPDEST PUSH1 0x0 PUSH1 0x20 DUP3 ADD SWAP1 POP DUP2 DUP2 SUB PUSH1 0x0 DUP4 ADD MSTORE PUSH3 0x227A DUP2 PUSH3 0x2238 JUMP JUMPDEST SWAP1 POP SWAP2 SWAP1 POP JUMP JUMPDEST PUSH1 0x0 PUSH3 0x228E DUP3 PUSH3 0x1B26 JUMP JUMPDEST SWAP2 POP PUSH3 0x229B DUP4 PUSH3 0x1B26 JUMP JUMPDEST SWAP3 POP DUP3 PUSH32 0xFFFFFFFFFFFFFFFFFFFFFFFFFFFFFFFFFFFFFFFFFFFFFFFFFFFFFFFFFFFFFFFF SUB DUP3 GT ISZERO PUSH3 0x22D3 JUMPI PUSH3 0x22D2 PUSH3 0x1FB8 JUMP JUMPDEST JUMPDEST DUP3 DUP3 ADD SWAP1 POP SWAP3 SWAP2 POP POP JUMP JUMPDEST PUSH32 0x4E487B7100000000000000000000000000000000000000000000000000000000 PUSH1 0x0 MSTORE PUSH1 0x31 PUSH1 0x4 MSTORE PUSH1 0x24 PUSH1 0x0 REVERT INVALID PUSH1 0x80 PUSH1 0x40 MSTORE PUSH1 0x40 MLOAD PUSH3 0x119C CODESIZE SUB DUP1 PUSH3 0x119C DUP4 CODECOPY DUP2 DUP2 ADD PUSH1 0x40 MSTORE DUP2 ADD SWAP1 PUSH3 0x29 SWAP2 SWAP1 PUSH3 0x44B JUMP JUMPDEST DUP6 PUSH1 0x0 DUP1 PUSH2 0x100 EXP DUP2 SLOAD DUP2 PUSH20 0xFFFFFFFFFFFFFFFFFFFFFFFFFFFFFFFFFFFFFFFF MUL NOT AND SWAP1 DUP4 PUSH20 0xFFFFFFFFFFFFFFFFFFFFFFFFFFFFFFFFFFFFFFFF AND MUL OR SWAP1 SSTORE POP DUP5 PUSH1 0x1 PUSH1 0x0 PUSH2 0x100 EXP DUP2 SLOAD DUP2 PUSH20 0xFFFFFFFFFFFFFFFFFFFFFFFFFFFFFFFFFFFFFFFF MUL NOT AND SWAP1 DUP4 PUSH20 0xFFFFFFFFFFFFFFFFFFFFFFFFFFFFFFFFFFFFFFFF AND MUL OR SWAP1 SSTORE POP DUP4 PUSH1 0x2 SWAP1 DUP1 MLOAD SWAP1 PUSH1 0x20 ADD SWAP1 PUSH3 0xC2 SWAP3 SWAP2 SWAP1 PUSH3 0x15E JUMP JUMPDEST POP DUP3 PUSH1 0x3 SWAP1 DUP1 MLOAD SWAP1 PUSH1 0x20 ADD SWAP1 PUSH3 0xDB SWAP3 SWAP2 SWAP1 PUSH3 0x15E JUMP JUMPDEST POP DUP2 PUSH1 0x4 PUSH1 0x0 PUSH2 0x100 EXP DUP2 SLOAD DUP2 PUSH20 0xFFFFFFFFFFFFFFFFFFFFFFFFFFFFFFFFFFFFFFFF MUL NOT AND SWAP1 DUP4 PUSH20 0xFFFFFFFFFFFFFFFFFFFFFFFFFFFFFFFFFFFFFFFF AND MUL OR SWAP1 SSTORE POP DUP1 PUSH1 0x5 DUP2 SWAP1 SSTORE POP PUSH1 0x0 PUSH1 0x6 PUSH1 0x0 PUSH2 0x100 EXP DUP2 SLOAD DUP2 PUSH1 0xFF MUL NOT AND SWAP1 DUP4 PUSH1 0x2 DUP2 GT ISZERO PUSH3 0x14D JUMPI PUSH3 0x14C PUSH3 0x525 JUMP JUMPDEST JUMPDEST MUL OR SWAP1 SSTORE POP POP POP POP POP POP POP PUSH3 0x5B9 JUMP JUMPDEST DUP3 DUP1 SLOAD PUSH3 0x16C SWAP1 PUSH3 0x583 JUMP JUMPDEST SWAP1 PUSH1 0x0 MSTORE PUSH1 0x20 PUSH1 0x0 KECCAK256 SWAP1 PUSH1 0x1F ADD PUSH1 0x20 SWAP1 DIV DUP2 ADD SWAP3 DUP3 PUSH3 0x190 JUMPI PUSH1 0x0 DUP6 SSTORE PUSH3 0x1DC JUMP JUMPDEST DUP3 PUSH1 0x1F LT PUSH3 0x1AB JUMPI DUP1 MLOAD PUSH1 0xFF NOT AND DUP4 DUP1 ADD OR DUP6 SSTORE PUSH3 0x1DC JUMP JUMPDEST DUP3 DUP1 ADD PUSH1 0x1 ADD DUP6 SSTORE DUP3 ISZERO PUSH3 0x1DC JUMPI SWAP2 DUP3 ADD JUMPDEST DUP3 DUP2 GT ISZERO PUSH3 0x1DB JUMPI DUP3 MLOAD DUP3 SSTORE SWAP2 PUSH1 0x20 ADD SWAP2 SWAP1 PUSH1 0x1 ADD SWAP1 PUSH3 0x1BE JUMP JUMPDEST JUMPDEST POP SWAP1 POP PUSH3 0x1EB SWAP2 SWAP1 PUSH3 0x1EF JUMP JUMPDEST POP SWAP1 JUMP JUMPDEST JUMPDEST DUP1 DUP3 GT ISZERO PUSH3 0x20A JUMPI PUSH1 0x0 DUP2 PUSH1 0x0 SWAP1 SSTORE POP PUSH1 0x1 ADD PUSH3 0x1F0 JUMP JUMPDEST POP SWAP1 JUMP JUMPDEST PUSH1 0x0 PUSH1 0x40 MLOAD SWAP1 POP SWAP1 JUMP JUMPDEST PUSH1 0x0 DUP1 REVERT JUMPDEST PUSH1 0x0 DUP1 REVERT JUMPDEST PUSH1 0x0 PUSH20 0xFFFFFFFFFFFFFFFFFFFFFFFFFFFFFFFFFFFFFFFF DUP3 AND SWAP1 POP SWAP2 SWAP1 POP JUMP JUMPDEST PUSH1 0x0 PUSH3 0x24F DUP3 PUSH3 0x222 JUMP JUMPDEST SWAP1 POP SWAP2 SWAP1 POP JUMP JUMPDEST PUSH3 0x261 DUP2 PUSH3 0x242 JUMP JUMPDEST DUP2 EQ PUSH3 0x26D JUMPI PUSH1 0x0 DUP1 REVERT JUMPDEST POP JUMP JUMPDEST PUSH1 0x0 DUP2 MLOAD SWAP1 POP PUSH3 0x281 DUP2 PUSH3 0x256 JUMP JUMPDEST SWAP3 SWAP2 POP POP JUMP JUMPDEST PUSH1 0x0 DUP1 REVERT JUMPDEST PUSH1 0x0 DUP1 REVERT JUMPDEST PUSH1 0x0 PUSH1 0x1F NOT PUSH1 0x1F DUP4 ADD AND SWAP1 POP SWAP2 SWAP1 POP JUMP JUMPDEST PUSH32 0x4E487B7100000000000000000000000000000000000000000000000000000000 PUSH1 0x0 MSTORE PUSH1 0x41 PUSH1 0x4 MSTORE PUSH1 0x24 PUSH1 0x0 REVERT JUMPDEST PUSH3 0x2DC DUP3 PUSH3 0x291 JUMP JUMPDEST DUP2 ADD DUP2 DUP2 LT PUSH8 0xFFFFFFFFFFFFFFFF DUP3 GT OR ISZERO PUSH3 0x2FE JUMPI PUSH3 0x2FD PUSH3 0x2A2 JUMP JUMPDEST JUMPDEST DUP1 PUSH1 0x40 MSTORE POP POP POP JUMP JUMPDEST PUSH1 0x0 PUSH3 0x313 PUSH3 0x20E JUMP JUMPDEST SWAP1 POP PUSH3 0x321 DUP3 DUP3 PUSH3 0x2D1 JUMP JUMPDEST SWAP2 SWAP1 POP JUMP JUMPDEST PUSH1 0x0 PUSH8 0xFFFFFFFFFFFFFFFF DUP3 GT ISZERO PUSH3 0x344 JUMPI PUSH3 0x343 PUSH3 0x2A2 JUMP JUMPDEST JUMPDEST PUSH3 0x34F DUP3 PUSH3 0x291 JUMP JUMPDEST SWAP1 POP PUSH1 0x20 DUP2 ADD SWAP1 POP SWAP2 SWAP1 POP JUMP JUMPDEST PUSH1 0x0 JUMPDEST DUP4 DUP2 LT ISZERO PUSH3 0x37C JUMPI DUP1 DUP3 ADD MLOAD DUP2 DUP5 ADD MSTORE PUSH1 0x20 DUP2 ADD SWAP1 POP PUSH3 0x35F JUMP JUMPDEST DUP4 DUP2 GT ISZERO PUSH3 0x38C JUMPI PUSH1 0x0 DUP5 DUP5 ADD MSTORE JUMPDEST POP POP POP POP JUMP JUMPDEST PUSH1 0x0 PUSH3 0x3A9 PUSH3 0x3A3 DUP5 PUSH3 0x326 JUMP JUMPDEST PUSH3 0x307 JUMP JUMPDEST SWAP1 POP DUP3 DUP2 MSTORE PUSH1 0x20 DUP2 ADD DUP5 DUP5 DUP5 ADD GT ISZERO PUSH3 0x3C8 JUMPI PUSH3 0x3C7 PUSH3 0x28C JUMP JUMPDEST JUMPDEST PUSH3 0x3D5 DUP5 DUP3 DUP6 PUSH3 0x35C JUMP JUMPDEST POP SWAP4 SWAP3 POP POP POP JUMP JUMPDEST PUSH1 0x0 DUP3 PUSH1 0x1F DUP4 ADD SLT PUSH3 0x3F5 JUMPI PUSH3 0x3F4 PUSH3 0x287 JUMP JUMPDEST JUMPDEST DUP2 MLOAD PUSH3 0x407 DUP5 DUP3 PUSH1 0x20 DUP7 ADD PUSH3 0x392 JUMP JUMPDEST SWAP2 POP POP SWAP3 SWAP2 POP POP JUMP JUMPDEST PUSH1 0x0 DUP2 SWAP1 POP SWAP2 SWAP1 POP JUMP JUMPDEST PUSH3 0x425 DUP2 PUSH3 0x410 JUMP JUMPDEST DUP2 EQ PUSH3 0x431 JUMPI PUSH1 0x0 DUP1 REVERT JUMPDEST POP JUMP JUMPDEST PUSH1 0x0 DUP2 MLOAD SWAP1 POP PUSH3 0x445 DUP2 PUSH3 0x41A JUMP JUMPDEST SWAP3 SWAP2 POP POP JUMP JUMPDEST PUSH1 0x0 DUP1 PUSH1 0x0 DUP1 PUSH1 0x0 DUP1 PUSH1 0xC0 DUP8 DUP10 SUB SLT ISZERO PUSH3 0x46B JUMPI PUSH3 0x46A PUSH3 0x218 JUMP JUMPDEST JUMPDEST PUSH1 0x0 PUSH3 0x47B DUP10 DUP3 DUP11 ADD PUSH3 0x270 JUMP JUMPDEST SWAP7 POP POP PUSH1 0x20 PUSH3 0x48E DUP10 DUP3 DUP11 ADD PUSH3 0x270 JUMP JUMPDEST SWAP6 POP POP PUSH1 0x40 DUP8 ADD MLOAD PUSH8 0xFFFFFFFFFFFFFFFF DUP2 GT ISZERO PUSH3 0x4B2 JUMPI PUSH3 0x4B1 PUSH3 0x21D JUMP JUMPDEST JUMPDEST PUSH3 0x4C0 DUP10 DUP3 DUP11 ADD PUSH3 0x3DD JUMP JUMPDEST SWAP5 POP POP PUSH1 0x60 DUP8 ADD MLOAD PUSH8 0xFFFFFFFFFFFFFFFF DUP2 GT ISZERO PUSH3 0x4E4 JUMPI PUSH3 0x4E3 PUSH3 0x21D JUMP JUMPDEST JUMPDEST PUSH3 0x4F2 DUP10 DUP3 DUP11 ADD PUSH3 0x3DD JUMP JUMPDEST SWAP4 POP POP PUSH1 0x80 PUSH3 0x505 DUP10 DUP3 DUP11 ADD PUSH3 0x270 JUMP JUMPDEST SWAP3 POP POP PUSH1 0xA0 PUSH3 0x518 DUP10 DUP3 DUP11 ADD PUSH3 0x434 JUMP JUMPDEST SWAP2 POP POP SWAP3 SWAP6 POP SWAP3 SWAP6 POP SWAP3 SWAP6 JUMP JUMPDEST PUSH32 0x4E487B7100000000000000000000000000000000000000000000000000000000 PUSH1 0x0 MSTORE PUSH1 0x21 PUSH1 0x4 MSTORE PUSH1 0x24 PUSH1 0x0 REVERT JUMPDEST PUSH32 0x4E487B7100000000000000000000000000000000000000000000000000000000 PUSH1 0x0 MSTORE PUSH1 0x22 PUSH1 0x4 MSTORE PUSH1 0x24 PUSH1 0x0 REVERT JUMPDEST PUSH1 0x0 PUSH1 0x2 DUP3 DIV SWAP1 POP PUSH1 0x1 DUP3 AND DUP1 PUSH3 0x59C JUMPI PUSH1 0x7F DUP3 AND SWAP2 POP JUMPDEST PUSH1 0x20 DUP3 LT DUP2 EQ ISZERO PUSH3 0x5B3 JUMPI PUSH3 0x5B2 PUSH3 0x554 JUMP JUMPDEST JUMPDEST POP SWAP2 SWAP1 POP JUMP JUMPDEST PUSH2 0xBD3 DUP1 PUSH3 0x5C9 PUSH1 0x0 CODECOPY PUSH1 0x0 RETURN INVALID PUSH1 0x80 PUSH1 0x40 MSTORE PUSH1 0x4 CALLDATASIZE LT PUSH2 0x86 JUMPI PUSH1 0x0 CALLDATALOAD PUSH1 0xE0 SHR DUP1 PUSH4 0x3B1BEBD1 GT PUSH2 0x59 JUMPI DUP1 PUSH4 0x3B1BEBD1 EQ PUSH2 0x12A JUMPI DUP1 PUSH4 0x4177FE51 EQ PUSH2 0x155 JUMPI DUP1 PUSH4 0x7284E416 EQ PUSH2 0x180 JUMPI DUP1 PUSH4 0xAA8C217C EQ PUSH2 0x1AB JUMPI DUP1 PUSH4 0xB4FEDC11 EQ PUSH2 0x1D6 JUMPI PUSH2 0x86 JUMP JUMPDEST DUP1 PUSH4 0x2D05D3F EQ PUSH2 0x8B JUMPI DUP1 PUSH4 0x6FDDE03 EQ PUSH2 0xB6 JUMPI DUP1 PUSH4 0x200D2ED2 EQ PUSH2 0xE1 JUMPI DUP1 PUSH4 0x2D398FA6 EQ PUSH2 0x10C JUMPI JUMPDEST PUSH1 0x0 DUP1 REVERT JUMPDEST CALLVALUE DUP1 ISZERO PUSH2 0x97 JUMPI PUSH1 0x0 DUP1 REVERT JUMPDEST POP PUSH2 0xA0 PUSH2 0x1F4 JUMP JUMPDEST PUSH1 0x40 MLOAD PUSH2 0xAD SWAP2 SWAP1 PUSH2 0x770 JUMP JUMPDEST PUSH1 0x40 MLOAD DUP1 SWAP2 SUB SWAP1 RETURN JUMPDEST CALLVALUE DUP1 ISZERO PUSH2 0xC2 JUMPI PUSH1 0x0 DUP1 REVERT JUMPDEST POP PUSH2 0xCB PUSH2 0x218 JUMP JUMPDEST PUSH1 0x40 MLOAD PUSH2 0xD8 SWAP2 SWAP1 PUSH2 0x824 JUMP JUMPDEST PUSH1 0x40 MLOAD DUP1 SWAP2 SUB SWAP1 RETURN JUMPDEST CALLVALUE DUP1 ISZERO PUSH2 0xED JUMPI PUSH1 0x0 DUP1 REVERT JUMPDEST POP PUSH2 0xF6 PUSH2 0x2A6 JUMP JUMPDEST PUSH1 0x40 MLOAD PUSH2 0x103 SWAP2 SWAP1 PUSH2 0x8BD JUMP JUMPDEST PUSH1 0x40 MLOAD DUP1 SWAP2 SUB SWAP1 RETURN JUMPDEST PUSH2 0x114 PUSH2 0x2B9 JUMP JUMPDEST PUSH1 0x40 MLOAD PUSH2 0x121 SWAP2 SWAP1 PUSH2 0x937 JUMP JUMPDEST PUSH1 0x40 MLOAD DUP1 SWAP2 SUB SWAP1 RETURN JUMPDEST CALLVALUE DUP1 ISZERO PUSH2 0x136 JUMPI PUSH1 0x0 DUP1 REVERT JUMPDEST POP PUSH2 0x13F PUSH2 0x4B0 JUMP JUMPDEST PUSH1 0x40 MLOAD PUSH2 0x14C SWAP2 SWAP1 PUSH2 0x770 JUMP JUMPDEST PUSH1 0x40 MLOAD DUP1 SWAP2 SUB SWAP1 RETURN JUMPDEST CALLVALUE DUP1 ISZERO PUSH2 0x161 JUMPI PUSH1 0x0 DUP1 REVERT JUMPDEST POP PUSH2 0x16A PUSH2 0x4D6 JUMP JUMPDEST PUSH1 0x40 MLOAD PUSH2 0x177 SWAP2 SWAP1 PUSH2 0x770 JUMP JUMPDEST PUSH1 0x40 MLOAD DUP1 SWAP2 SUB SWAP1 RETURN JUMPDEST CALLVALUE DUP1 ISZERO PUSH2 0x18C JUMPI PUSH1 0x0 DUP1 REVERT JUMPDEST POP PUSH2 0x195 PUSH2 0x4FC JUMP JUMPDEST PUSH1 0x40 MLOAD PUSH2 0x1A2 SWAP2 SWAP1 PUSH2 0x824 JUMP JUMPDEST PUSH1 0x40 MLOAD DUP1 SWAP2 SUB SWAP1 RETURN JUMPDEST CALLVALUE DUP1 ISZERO PUSH2 0x1B7 JUMPI PUSH1 0x0 DUP1 REVERT JUMPDEST POP PUSH2 0x1C0 PUSH2 0x58A JUMP JUMPDEST PUSH1 0x40 MLOAD PUSH2 0x1CD SWAP2 SWAP1 PUSH2 0x96B JUMP JUMPDEST PUSH1 0x40 MLOAD DUP1 SWAP2 SUB SWAP1 RETURN JUMPDEST PUSH2 0x1DE PUSH2 0x590 JUMP JUMPDEST PUSH1 0x40 MLOAD PUSH2 0x1EB SWAP2 SWAP1 PUSH2 0x937 JUMP JUMPDEST PUSH1 0x40 MLOAD DUP1 SWAP2 SUB SWAP1 RETURN JUMPDEST PUSH1 0x0 DUP1 SLOAD SWAP1 PUSH2 0x100 EXP SWAP1 DIV PUSH20 0xFFFFFFFFFFFFFFFFFFFFFFFFFFFFFFFFFFFFFFFF AND DUP2 JUMP JUMPDEST PUSH1 0x2 DUP1 SLOAD PUSH2 0x225 SWAP1 PUSH2 0x9B5 JUMP JUMPDEST DUP1 PUSH1 0x1F ADD PUSH1 0x20 DUP1 SWAP2 DIV MUL PUSH1 0x20 ADD PUSH1 0x40 MLOAD SWAP1 DUP2 ADD PUSH1 0x40 MSTORE DUP1 SWAP3 SWAP2 SWAP1 DUP2 DUP2 MSTORE PUSH1 0x20 ADD DUP3 DUP1 SLOAD PUSH2 0x251 SWAP1 PUSH2 0x9B5 JUMP JUMPDEST DUP1 ISZERO PUSH2 0x29E JUMPI DUP1 PUSH1 0x1F LT PUSH2 0x273 JUMPI PUSH2 0x100 DUP1 DUP4 SLOAD DIV MUL DUP4 MSTORE SWAP2 PUSH1 0x20 ADD SWAP2 PUSH2 0x29E JUMP JUMPDEST DUP3 ADD SWAP2 SWAP1 PUSH1 0x0 MSTORE PUSH1 0x20 PUSH1 0x0 KECCAK256 SWAP1 JUMPDEST DUP2 SLOAD DUP2 MSTORE SWAP1 PUSH1 0x1 ADD SWAP1 PUSH1 0x20 ADD DUP1 DUP4 GT PUSH2 0x281 JUMPI DUP3 SWAP1 SUB PUSH1 0x1F AND DUP3 ADD SWAP2 JUMPDEST POP POP POP POP POP DUP2 JUMP JUMPDEST PUSH1 0x6 PUSH1 0x0 SWAP1 SLOAD SWAP1 PUSH2 0x100 EXP SWAP1 DIV PUSH1 0xFF AND DUP2 JUMP JUMPDEST PUSH1 0x0 DUP1 PUSH1 0x2 DUP2 GT ISZERO PUSH2 0x2CE JUMPI PUSH2 0x2CD PUSH2 0x846 JUMP JUMPDEST JUMPDEST PUSH1 0x6 PUSH1 0x0 SWAP1 SLOAD SWAP1 PUSH2 0x100 EXP SWAP1 DIV PUSH1 0xFF AND PUSH1 0x2 DUP2 GT ISZERO PUSH2 0x2F0 JUMPI PUSH2 0x2EF PUSH2 0x846 JUMP JUMPDEST JUMPDEST EQ PUSH2 0x330 JUMPI PUSH1 0x40 MLOAD PUSH32 0x8C379A000000000000000000000000000000000000000000000000000000000 DUP2 MSTORE PUSH1 0x4 ADD PUSH2 0x327 SWAP1 PUSH2 0xA59 JUMP JUMPDEST PUSH1 0x40 MLOAD DUP1 SWAP2 SUB SWAP1 REVERT JUMPDEST PUSH1 0x1 PUSH1 0x0 SWAP1 SLOAD SWAP1 PUSH2 0x100 EXP SWAP1 DIV PUSH20 0xFFFFFFFFFFFFFFFFFFFFFFFFFFFFFFFFFFFFFFFF AND PUSH20 0xFFFFFFFFFFFFFFFFFFFFFFFFFFFFFFFFFFFFFFFF AND ORIGIN PUSH20 0xFFFFFFFFFFFFFFFFFFFFFFFFFFFFFFFFFFFFFFFF AND EQ DUP1 PUSH2 0x3D7 JUMPI POP PUSH1 0x0 DUP1 SLOAD SWAP1 PUSH2 0x100 EXP SWAP1 DIV PUSH20 0xFFFFFFFFFFFFFFFFFFFFFFFFFFFFFFFFFFFFFFFF AND PUSH20 0xFFFFFFFFFFFFFFFFFFFFFFFFFFFFFFFFFFFFFFFF AND ORIGIN PUSH20 0xFFFFFFFFFFFFFFFFFFFFFFFFFFFFFFFFFFFFFFFF AND EQ JUMPDEST PUSH2 0x416 JUMPI PUSH1 0x40 MLOAD PUSH32 0x8C379A000000000000000000000000000000000000000000000000000000000 DUP2 MSTORE PUSH1 0x4 ADD PUSH2 0x40D SWAP1 PUSH2 0xAEB JUMP JUMPDEST PUSH1 0x40 MLOAD DUP1 SWAP2 SUB SWAP1 REVERT JUMPDEST PUSH1 0x4 PUSH1 0x0 SWAP1 SLOAD SWAP1 PUSH2 0x100 EXP SWAP1 DIV PUSH20 0xFFFFFFFFFFFFFFFFFFFFFFFFFFFFFFFFFFFFFFFF AND PUSH20 0xFFFFFFFFFFFFFFFFFFFFFFFFFFFFFFFFFFFFFFFF AND PUSH2 0x8FC SELFBALANCE SWAP1 DUP2 ISZERO MUL SWAP1 PUSH1 0x40 MLOAD PUSH1 0x0 PUSH1 0x40 MLOAD DUP1 DUP4 SUB DUP2 DUP6 DUP9 DUP9 CALL SWAP4 POP POP POP POP ISZERO DUP1 ISZERO PUSH2 0x47E JUMPI RETURNDATASIZE PUSH1 0x0 DUP1 RETURNDATACOPY RETURNDATASIZE PUSH1 0x0 REVERT JUMPDEST POP PUSH1 0x2 PUSH1 0x6 PUSH1 0x0 PUSH2 0x100 EXP DUP2 SLOAD DUP2 PUSH1 0xFF MUL NOT AND SWAP1 DUP4 PUSH1 0x2 DUP2 GT ISZERO PUSH2 0x4A5 JUMPI PUSH2 0x4A4 PUSH2 0x846 JUMP JUMPDEST JUMPDEST MUL OR SWAP1 SSTORE POP ADDRESS SWAP1 POP SWAP1 JUMP JUMPDEST PUSH1 0x1 PUSH1 0x0 SWAP1 SLOAD SWAP1 PUSH2 0x100 EXP SWAP1 DIV PUSH20 0xFFFFFFFFFFFFFFFFFFFFFFFFFFFFFFFFFFFFFFFF AND DUP2 JUMP JUMPDEST PUSH1 0x4 PUSH1 0x0 SWAP1 SLOAD SWAP1 PUSH2 0x100 EXP SWAP1 DIV PUSH20 0xFFFFFFFFFFFFFFFFFFFFFFFFFFFFFFFFFFFFFFFF AND DUP2 JUMP JUMPDEST PUSH1 0x3 DUP1 SLOAD PUSH2 0x509 SWAP1 PUSH2 0x9B5 JUMP JUMPDEST DUP1 PUSH1 0x1F ADD PUSH1 0x20 DUP1 SWAP2 DIV MUL PUSH1 0x20 ADD PUSH1 0x40 MLOAD SWAP1 DUP2 ADD PUSH1 0x40 MSTORE DUP1 SWAP3 SWAP2 SWAP1 DUP2 DUP2 MSTORE PUSH1 0x20 ADD DUP3 DUP1 SLOAD PUSH2 0x535 SWAP1 PUSH2 0x9B5 JUMP JUMPDEST DUP1 ISZERO PUSH2 0x582 JUMPI DUP1 PUSH1 0x1F LT PUSH2 0x557 JUMPI PUSH2 0x100 DUP1 DUP4 SLOAD DIV MUL DUP4 MSTORE SWAP2 PUSH1 0x20 ADD SWAP2 PUSH2 0x582 JUMP JUMPDEST DUP3 ADD SWAP2 SWAP1 PUSH1 0x0 MSTORE PUSH1 0x20 PUSH1 0x0 KECCAK256 SWAP1 JUMPDEST DUP2 SLOAD DUP2 MSTORE SWAP1 PUSH1 0x1 ADD SWAP1 PUSH1 0x20 ADD DUP1 DUP4 GT PUSH2 0x565 JUMPI DUP3 SWAP1 SUB PUSH1 0x1F AND DUP3 ADD SWAP2 JUMPDEST POP POP POP POP POP DUP2 JUMP JUMPDEST PUSH1 0x5 SLOAD DUP2 JUMP JUMPDEST PUSH1 0x0 DUP1 PUSH1 0x2 DUP2 GT ISZERO PUSH2 0x5A5 JUMPI PUSH2 0x5A4 PUSH2 0x846 JUMP JUMPDEST JUMPDEST PUSH1 0x6 PUSH1 0x0 SWAP1 SLOAD SWAP1 PUSH2 0x100 EXP SWAP1 DIV PUSH1 0xFF AND PUSH1 0x2 DUP2 GT ISZERO PUSH2 0x5C7 JUMPI PUSH2 0x5C6 PUSH2 0x846 JUMP JUMPDEST JUMPDEST EQ PUSH2 0x607 JUMPI PUSH1 0x40 MLOAD PUSH32 0x8C379A000000000000000000000000000000000000000000000000000000000 DUP2 MSTORE PUSH1 0x4 ADD PUSH2 0x5FE SWAP1 PUSH2 0xA59 JUMP JUMPDEST PUSH1 0x40 MLOAD DUP1 SWAP2 SUB SWAP1 REVERT JUMPDEST PUSH1 0x1 PUSH1 0x0 SWAP1 SLOAD SWAP1 PUSH2 0x100 EXP SWAP1 DIV PUSH20 0xFFFFFFFFFFFFFFFFFFFFFFFFFFFFFFFFFFFFFFFF AND PUSH20 0xFFFFFFFFFFFFFFFFFFFFFFFFFFFFFFFFFFFFFFFF AND ORIGIN PUSH20 0xFFFFFFFFFFFFFFFFFFFFFFFFFFFFFFFFFFFFFFFF AND EQ PUSH2 0x697 JUMPI PUSH1 0x40 MLOAD PUSH32 0x8C379A000000000000000000000000000000000000000000000000000000000 DUP2 MSTORE PUSH1 0x4 ADD PUSH2 0x68E SWAP1 PUSH2 0xB7D JUMP JUMPDEST PUSH1 0x40 MLOAD DUP1 SWAP2 SUB SWAP1 REVERT JUMPDEST PUSH1 0x0 DUP1 SLOAD SWAP1 PUSH2 0x100 EXP SWAP1 DIV PUSH20 0xFFFFFFFFFFFFFFFFFFFFFFFFFFFFFFFFFFFFFFFF AND PUSH20 0xFFFFFFFFFFFFFFFFFFFFFFFFFFFFFFFFFFFFFFFF AND PUSH2 0x8FC SELFBALANCE SWAP1 DUP2 ISZERO MUL SWAP1 PUSH1 0x40 MLOAD PUSH1 0x0 PUSH1 0x40 MLOAD DUP1 DUP4 SUB DUP2 DUP6 DUP9 DUP9 CALL SWAP4 POP POP POP POP ISZERO DUP1 ISZERO PUSH2 0x6FD JUMPI RETURNDATASIZE PUSH1 0x0 DUP1 RETURNDATACOPY RETURNDATASIZE PUSH1 0x0 REVERT JUMPDEST POP PUSH1 0x1 PUSH1 0x6 PUSH1 0x0 PUSH2 0x100 EXP DUP2 SLOAD DUP2 PUSH1 0xFF MUL NOT AND SWAP1 DUP4 PUSH1 0x2 DUP2 GT ISZERO PUSH2 0x724 JUMPI PUSH2 0x723 PUSH2 0x846 JUMP JUMPDEST JUMPDEST MUL OR SWAP1 SSTORE POP ADDRESS SWAP1 POP SWAP1 JUMP JUMPDEST PUSH1 0x0 PUSH20 0xFFFFFFFFFFFFFFFFFFFFFFFFFFFFFFFFFFFFFFFF DUP3 AND SWAP1 POP SWAP2 SWAP1 POP JUMP JUMPDEST PUSH1 0x0 PUSH2 0x75A DUP3 PUSH2 0x72F JUMP JUMPDEST SWAP1 POP SWAP2 SWAP1 POP JUMP JUMPDEST PUSH2 0x76A DUP2 PUSH2 0x74F JUMP JUMPDEST DUP3 MSTORE POP POP JUMP JUMPDEST PUSH1 0x0 PUSH1 0x20 DUP3 ADD SWAP1 POP PUSH2 0x785 PUSH1 0x0 DUP4 ADD DUP5 PUSH2 0x761 JUMP JUMPDEST SWAP3 SWAP2 POP POP JUMP JUMPDEST PUSH1 0x0 DUP2 MLOAD SWAP1 POP SWAP2 SWAP1 POP JUMP JUMPDEST PUSH1 0x0 DUP3 DUP3 MSTORE PUSH1 0x20 DUP3 ADD SWAP1 POP SWAP3 SWAP2 POP POP JUMP JUMPDEST PUSH1 0x0 JUMPDEST DUP4 DUP2 LT ISZERO PUSH2 0x7C5 JUMPI DUP1 DUP3 ADD MLOAD DUP2 DUP5 ADD MSTORE PUSH1 0x20 DUP2 ADD SWAP1 POP PUSH2 0x7AA JUMP JUMPDEST DUP4 DUP2 GT ISZERO PUSH2 0x7D4 JUMPI PUSH1 0x0 DUP5 DUP5 ADD MSTORE JUMPDEST POP POP POP POP JUMP JUMPDEST PUSH1 0x0 PUSH1 0x1F NOT PUSH1 0x1F DUP4 ADD AND SWAP1 POP SWAP2 SWAP1 POP JUMP JUMPDEST PUSH1 0x0 PUSH2 0x7F6 DUP3 PUSH2 0x78B JUMP JUMPDEST PUSH2 0x800 DUP2 DUP6 PUSH2 0x796 JUMP JUMPDEST SWAP4 POP PUSH2 0x810 DUP2 DUP6 PUSH1 0x20 DUP7 ADD PUSH2 0x7A7 JUMP JUMPDEST PUSH2 0x819 DUP2 PUSH2 0x7DA JUMP JUMPDEST DUP5 ADD SWAP2 POP POP SWAP3 SWAP2 POP POP JUMP JUMPDEST PUSH1 0x0 PUSH1 0x20 DUP3 ADD SWAP1 POP DUP2 DUP2 SUB PUSH1 0x0 DUP4 ADD MSTORE PUSH2 0x83E DUP2 DUP5 PUSH2 0x7EB JUMP JUMPDEST SWAP1 POP SWAP3 SWAP2 POP POP JUMP JUMPDEST PUSH32 0x4E487B7100000000000000000000000000000000000000000000000000000000 PUSH1 0x0 MSTORE PUSH1 0x21 PUSH1 0x4 MSTORE PUSH1 0x24 PUSH1 0x0 REVERT JUMPDEST PUSH1 0x3 DUP2 LT PUSH2 0x886 JUMPI PUSH2 0x885 PUSH2 0x846 JUMP JUMPDEST JUMPDEST POP JUMP JUMPDEST PUSH1 0x0 DUP2 SWAP1 POP PUSH2 0x897 DUP3 PUSH2 0x875 JUMP JUMPDEST SWAP2 SWAP1 POP JUMP JUMPDEST PUSH1 0x0 PUSH2 0x8A7 DUP3 PUSH2 0x889 JUMP JUMPDEST SWAP1 POP SWAP2 SWAP1 POP JUMP JUMPDEST PUSH2 0x8B7 DUP2 PUSH2 0x89C JUMP JUMPDEST DUP3 MSTORE POP POP JUMP JUMPDEST PUSH1 0x0 PUSH1 0x20 DUP3 ADD SWAP1 POP PUSH2 0x8D2 PUSH1 0x0 DUP4 ADD DUP5 PUSH2 0x8AE JUMP JUMPDEST SWAP3 SWAP2 POP POP JUMP JUMPDEST PUSH1 0x0 DUP2 SWAP1 POP SWAP2 SWAP1 POP JUMP JUMPDEST PUSH1 0x0 PUSH2 0x8FD PUSH2 0x8F8 PUSH2 0x8F3 DUP5 PUSH2 0x72F JUMP JUMPDEST PUSH2 0x8D8 JUMP JUMPDEST PUSH2 0x72F JUMP JUMPDEST SWAP1 POP SWAP2 SWAP1 POP JUMP JUMPDEST PUSH1 0x0 PUSH2 0x90F DUP3 PUSH2 0x8E2 JUMP JUMPDEST SWAP1 POP SWAP2 SWAP1 POP JUMP JUMPDEST PUSH1 0x0 PUSH2 0x921 DUP3 PUSH2 0x904 JUMP JUMPDEST SWAP1 POP SWAP2 SWAP1 POP JUMP JUMPDEST PUSH2 0x931 DUP2 PUSH2 0x916 JUMP JUMPDEST DUP3 MSTORE POP POP JUMP JUMPDEST PUSH1 0x0 PUSH1 0x20 DUP3 ADD SWAP1 POP PUSH2 0x94C PUSH1 0x0 DUP4 ADD DUP5 PUSH2 0x928 JUMP JUMPDEST SWAP3 SWAP2 POP POP JUMP JUMPDEST PUSH1 0x0 DUP2 SWAP1 POP SWAP2 SWAP1 POP JUMP JUMPDEST PUSH2 0x965 DUP2 PUSH2 0x952 JUMP JUMPDEST DUP3 MSTORE POP POP JUMP JUMPDEST PUSH1 0x0 PUSH1 0x20 DUP3 ADD SWAP1 POP PUSH2 0x980 PUSH1 0x0 DUP4 ADD DUP5 PUSH2 0x95C JUMP JUMPDEST SWAP3 SWAP2 POP POP JUMP JUMPDEST PUSH32 0x4E487B7100000000000000000000000000000000000000000000000000000000 PUSH1 0x0 MSTORE PUSH1 0x22 PUSH1 0x4 MSTORE PUSH1 0x24 PUSH1 0x0 REVERT JUMPDEST PUSH1 0x0 PUSH1 0x2 DUP3 DIV SWAP1 POP PUSH1 0x1 DUP3 AND DUP1 PUSH2 0x9CD JUMPI PUSH1 0x7F DUP3 AND SWAP2 POP JUMPDEST PUSH1 0x20 DUP3 LT DUP2 EQ ISZERO PUSH2 0x9E1 JUMPI PUSH2 0x9E0 PUSH2 0x986 JUMP JUMPDEST JUMPDEST POP SWAP2 SWAP1 POP JUMP JUMPDEST PUSH32 0x436F6E747261637420737461747573206973206E6F7420657175616C20746F20 PUSH1 0x0 DUP3 ADD MSTORE PUSH32 0x6F70656E00000000000000000000000000000000000000000000000000000000 PUSH1 0x20 DUP3 ADD MSTORE POP JUMP JUMPDEST PUSH1 0x0 PUSH2 0xA43 PUSH1 0x24 DUP4 PUSH2 0x796 JUMP JUMPDEST SWAP2 POP PUSH2 0xA4E DUP3 PUSH2 0x9E7 JUMP JUMPDEST PUSH1 0x40 DUP3 ADD SWAP1 POP SWAP2 SWAP1 POP JUMP JUMPDEST PUSH1 0x0 PUSH1 0x20 DUP3 ADD SWAP1 POP DUP2 DUP2 SUB PUSH1 0x0 DUP4 ADD MSTORE PUSH2 0xA72 DUP2 PUSH2 0xA36 JUMP JUMPDEST SWAP1 POP SWAP2 SWAP1 POP JUMP JUMPDEST PUSH32 0x4F6E6C792072656665726565206F722063726561746F722063616E206661696C PUSH1 0x0 DUP3 ADD MSTORE PUSH32 0x20636F6E74726163740000000000000000000000000000000000000000000000 PUSH1 0x20 DUP3 ADD MSTORE POP JUMP JUMPDEST PUSH1 0x0 PUSH2 0xAD5 PUSH1 0x29 DUP4 PUSH2 0x796 JUMP JUMPDEST SWAP2 POP PUSH2 0xAE0 DUP3 PUSH2 0xA79 JUMP JUMPDEST PUSH1 0x40 DUP3 ADD SWAP1 POP SWAP2 SWAP1 POP JUMP JUMPDEST PUSH1 0x0 PUSH1 0x20 DUP3 ADD SWAP1 POP DUP2 DUP2 SUB PUSH1 0x0 DUP4 ADD MSTORE PUSH2 0xB04 DUP2 PUSH2 0xAC8 JUMP JUMPDEST SWAP1 POP SWAP2 SWAP1 POP JUMP JUMPDEST PUSH32 0x4F6E6C7920726566657265652063616E20636F6D706C657465206120636F6E74 PUSH1 0x0 DUP3 ADD MSTORE PUSH32 0x7261637400000000000000000000000000000000000000000000000000000000 PUSH1 0x20 DUP3 ADD MSTORE POP JUMP JUMPDEST PUSH1 0x0 PUSH2 0xB67 PUSH1 0x24 DUP4 PUSH2 0x796 JUMP JUMPDEST SWAP2 POP PUSH2 0xB72 DUP3 PUSH2 0xB0B JUMP JUMPDEST PUSH1 0x40 DUP3 ADD SWAP1 POP SWAP2 SWAP1 POP JUMP JUMPDEST PUSH1 0x0 PUSH1 0x20 DUP3 ADD SWAP1 POP DUP2 DUP2 SUB PUSH1 0x0 DUP4 ADD MSTORE PUSH2 0xB96 DUP2 PUSH2 0xB5A JUMP JUMPDEST SWAP1 POP SWAP2 SWAP1 POP JUMP INVALID LOG2 PUSH5 0x6970667358 0x22 SLT KECCAK256 0xB5 PUSH18 0xA0D69EF27A82FB7D164771A6CE84FA6403EE SWAP8 EXP SHR 0xCA ORIGIN 0xA9 RETURNDATASIZE 0xD 0xB9 0xAB DUP5 0xF6 PUSH5 0x736F6C6343 STOP ADDMOD 0xC STOP CALLER LOG2 PUSH5 0x6970667358 0x22 SLT KECCAK256 0xF6 0xE7 GT SIGNEXTEND LOG2 0x4F ADDRESS 0xF 0x1E CALLVALUE SWAP8 PUSH11 0xF7AC6DAE7B5F4680FCF9DA 0xC 0x4B 0xD7 LOG4 0xE8 0xA5 GASPRICE 0xDF SWAP7 PUSH5 0x736F6C6343 STOP ADDMOD 0xC STOP CALLER "},"gasEstimates":{"creation":{"codeDepositCost":"2707000","executionCost":"2938","totalCost":"2709938"},"external":{"completeOpenAccountabilityContract(address,uint256)":"infinite","createAccountabilityContract(address,string,string,address)":"infinite","failOpenAccountabilityContract(address,uint256)":"infinite","getClosedAccountabilityContractAddressesForReferee(address)":"infinite","getClosedAccountabilityContractAddressesForUser(address)":"infinite","getContractIndex(address,address)":"infinite","getOpenAccountabilityContractAddressesForReferee(address)":"infinite","getOpenAccountabilityContractAddressesForUser(address)":"infinite","numberOfReferees()":"2517","numberOfUsers()":"2429","referees(address)":"2917","users(address)":"2872"},"internal":{"moveOpenContractToClosedContractsForReferee(address,address)":"infinite","moveOpenContractToClosedContractsForUser(address,uint256)":"infinite"}},"methodIdentifiers":{"completeOpenAccountabilityContract(address,uint256)":"2bc7decc","createAccountabilityContract(address,string,string,address)":"e436e826","failOpenAccountabilityContract(address,uint256)":"74baa69c","getClosedAccountabilityContractAddressesForReferee(address)":"19ee8bd4","getClosedAccountabilityContractAddressesForUser(address)":"b24e67d0","getContractIndex(address,address)":"33157f34","getOpenAccountabilityContractAddressesForReferee(address)":"9051e234","getOpenAccountabilityContractAddressesForUser(address)":"442a7bc7","numberOfReferees()":"b3b6633e","numberOfUsers()":"75ce46a7","referees(address)":"64a60b47","users(address)":"a87430ba"}}}