{"abi":[{"inputs":[{"internalType":"uint256","name":"","type":"uint256"}],"name":"accountabilityContractAddresses","outputs":[{"internalType":"address","name":"","type":"address"}],"stateMutability":"view","type":"function"},{"inputs":[{"internalType":"address","name":"completionRequestContractAddress","type":"address"}],"name":"approveRequest","outputs":[],"stateMutability":"nonpayable","type":"function"},{"inputs":[{"internalType":"address","name":"contractAddress","type":"address"}],"name":"completeOpenAccountabilityContract","outputs":[],"stateMutability":"nonpayable","type":"function"},{"inputs":[{"internalType":"address","name":"_referee","type":"address"},{"internalType":"string","name":"_name","type":"string"},{"internalType":"string","name":"_description","type":"string"},{"internalType":"address payable","name":"_failureRecipient","type":"address"}],"name":"createAccountabilityContract","outputs":[],"stateMutability":"payable","type":"function"},{"inputs":[{"internalType":"address","name":"contractAddress","type":"address"}],"name":"failOpenAccountabilityContract","outputs":[],"stateMutability":"nonpayable","type":"function"},{"inputs":[{"internalType":"uint256","name":"startIndex","type":"uint256"},{"internalType":"uint256","name":"endIndex","type":"uint256"}],"name":"getAccountabilityContractAddresses","outputs":[{"internalType":"address[]","name":"","type":"address[]"}],"stateMutability":"view","type":"function"},{"inputs":[{"internalType":"address","name":"referee","type":"address"}],"name":"getClosedAccountabilityContractAddressesForReferee","outputs":[{"internalType":"address[]","name":"","type":"address[]"}],"stateMutability":"view","type":"function"},{"inputs":[{"internalType":"address","name":"user","type":"address"}],"name":"getClosedAccountabilityContractAddressesForUser","outputs":[{"internalType":"address[]","name":"","type":"address[]"}],"stateMutability":"view","type":"function"},{"inputs":[{"internalType":"address","name":"referee","type":"address"}],"name":"getCompleteAccountabilityContractRequestsForReferee","outputs":[{"internalType":"address[]","name":"","type":"address[]"}],"stateMutability":"view","type":"function"},{"inputs":[{"internalType":"address","name":"referee","type":"address"}],"name":"getOpenAccountabilityContractAddressesForReferee","outputs":[{"internalType":"address[]","name":"","type":"address[]"}],"stateMutability":"view","type":"function"},{"inputs":[{"internalType":"address","name":"user","type":"address"}],"name":"getOpenAccountabilityContractAddressesForUser","outputs":[{"internalType":"address[]","name":"","type":"address[]"}],"stateMutability":"view","type":"function"},{"inputs":[{"internalType":"uint256","name":"startIndex","type":"uint256"},{"internalType":"uint256","name":"endIndex","type":"uint256"}],"name":"getUserAddresses","outputs":[{"internalType":"address[]","name":"","type":"address[]"}],"stateMutability":"view","type":"function"},{"inputs":[],"name":"numberOfAccountabilityContracts","outputs":[{"internalType":"uint256","name":"","type":"uint256"}],"stateMutability":"view","type":"function"},{"inputs":[],"name":"numberOfReferees","outputs":[{"internalType":"uint256","name":"","type":"uint256"}],"stateMutability":"view","type":"function"},{"inputs":[],"name":"numberOfUsers","outputs":[{"internalType":"uint256","name":"","type":"uint256"}],"stateMutability":"view","type":"function"},{"inputs":[{"internalType":"uint256","name":"","type":"uint256"}],"name":"refereeAddresses","outputs":[{"internalType":"address","name":"","type":"address"}],"stateMutability":"view","type":"function"},{"inputs":[{"internalType":"address","name":"","type":"address"}],"name":"referees","outputs":[{"internalType":"uint256","name":"managedContracts","type":"uint256"}],"stateMutability":"view","type":"function"},{"inputs":[{"internalType":"address","name":"completionRequestContractAddress","type":"address"},{"internalType":"string","name":"response","type":"string"}],"name":"rejectRequest","outputs":[],"stateMutability":"nonpayable","type":"function"},{"inputs":[{"internalType":"address","name":"contractAddress","type":"address"}],"name":"requestApproval","outputs":[],"stateMutability":"nonpayable","type":"function"},{"inputs":[],"name":"totalEthInContracts","outputs":[{"internalType":"uint256","name":"","type":"uint256"}],"stateMutability":"view","type":"function"},{"inputs":[{"internalType":"uint256","name":"","type":"uint256"}],"name":"userAddresses","outputs":[{"internalType":"address","name":"","type":"address"}],"stateMutability":"view","type":"function"},{"inputs":[{"internalType":"address","name":"","type":"address"}],"name":"users","outputs":[{"internalType":"uint256","name":"createdContracts","type":"uint256"}],"stateMutability":"view","type":"function"}],"evm":{"assembly":"    /* \"Contracts\":57:8832  contract AccountabilityContractFactory {... */\n  mstore(0x40, 0x80)\n  callvalue\n  dup1\n  iszero\n  tag_1\n  jumpi\n  0x00\n  dup1\n  revert\ntag_1:\n  pop\n  dataSize(sub_0)\n  dup1\n  dataOffset(sub_0)\n  0x00\n  codecopy\n  0x00\n  return\nstop\n\nsub_0: assembly {\n        /* \"Contracts\":57:8832  contract AccountabilityContractFactory {... */\n      mstore(0x40, 0x80)\n      jumpi(tag_1, lt(calldatasize, 0x04))\n      shr(0xe0, calldataload(0x00))\n      dup1\n      0x64a60b47\n      gt\n      tag_24\n      jumpi\n      dup1\n      0xb24e67d0\n      gt\n      tag_25\n      jumpi\n      dup1\n      0xb24e67d0\n      eq\n      tag_18\n      jumpi\n      dup1\n      0xb3b6633e\n      eq\n      tag_19\n      jumpi\n      dup1\n      0xd77399e5\n      eq\n      tag_20\n      jumpi\n      dup1\n      0xdc0e0c13\n      eq\n      tag_21\n      jumpi\n      dup1\n      0xe10bc834\n      eq\n      tag_22\n      jumpi\n      dup1\n      0xe436e826\n      eq\n      tag_23\n      jumpi\n      jump(tag_1)\n    tag_25:\n      dup1\n      0x64a60b47\n      eq\n      tag_13\n      jumpi\n      dup1\n      0x75ce46a7\n      eq\n      tag_14\n      jumpi\n      dup1\n      0x9051e234\n      eq\n      tag_15\n      jumpi\n      dup1\n      0xa87430ba\n      eq\n      tag_16\n      jumpi\n      dup1\n      0xa908f4fa\n      eq\n      tag_17\n      jumpi\n      jump(tag_1)\n    tag_24:\n      dup1\n      0x442a7bc7\n      gt\n      tag_26\n      jumpi\n      dup1\n      0x442a7bc7\n      eq\n      tag_7\n      jumpi\n      dup1\n      0x4841a885\n      eq\n      tag_8\n      jumpi\n      dup1\n      0x4ea34671\n      eq\n      tag_9\n      jumpi\n      dup1\n      0x502c9bd5\n      eq\n      tag_10\n      jumpi\n      dup1\n      0x5b259abf\n      eq\n      tag_11\n      jumpi\n      dup1\n      0x61542c44\n      eq\n      tag_12\n      jumpi\n      jump(tag_1)\n    tag_26:\n      dup1\n      0x061dff9a\n      eq\n      tag_2\n      jumpi\n      dup1\n      0x0e865751\n      eq\n      tag_3\n      jumpi\n      dup1\n      0x19ee8bd4\n      eq\n      tag_4\n      jumpi\n      dup1\n      0x38db44bc\n      eq\n      tag_5\n      jumpi\n      dup1\n      0x38fb42fd\n      eq\n      tag_6\n      jumpi\n    tag_1:\n      0x00\n      dup1\n      revert\n        /* \"Contracts\":4306:5154  function approveRequest(address completionRequestContractAddress) public {... */\n    tag_2:\n      callvalue\n      dup1\n      iszero\n      tag_27\n      jumpi\n      0x00\n      dup1\n      revert\n    tag_27:\n      pop\n      tag_28\n      0x04\n      dup1\n      calldatasize\n      sub\n      dup2\n      add\n      swap1\n      tag_29\n      swap2\n      swap1\n      tag_30\n      jump\t// in\n    tag_29:\n      tag_31\n      jump\t// in\n    tag_28:\n      stop\n        /* \"Contracts\":8227:8830  function getAccountabilityContractAddresses(uint startIndex, uint endIndex) public view returns (address[] memory) {... */\n    tag_3:\n      callvalue\n      dup1\n      iszero\n      tag_32\n      jumpi\n      0x00\n      dup1\n      revert\n    tag_32:\n      pop\n      tag_33\n      0x04\n      dup1\n      calldatasize\n      sub\n      dup2\n      add\n      swap1\n      tag_34\n      swap2\n      swap1\n      tag_35\n      jump\t// in\n    tag_34:\n      tag_36\n      jump\t// in\n    tag_33:\n      mload(0x40)\n      tag_37\n      swap2\n      swap1\n      tag_38\n      jump\t// in\n    tag_37:\n      mload(0x40)\n      dup1\n      swap2\n      sub\n      swap1\n      return\n        /* \"Contracts\":2417:2611  function getClosedAccountabilityContractAddressesForReferee(address referee) public view returns (address[] memory){... */\n    tag_4:\n      callvalue\n      dup1\n      iszero\n      tag_39\n      jumpi\n      0x00\n      dup1\n      revert\n    tag_39:\n      pop\n      tag_40\n      0x04\n      dup1\n      calldatasize\n      sub\n      dup2\n      add\n      swap1\n      tag_41\n      swap2\n      swap1\n      tag_30\n      jump\t// in\n    tag_41:\n      tag_42\n      jump\t// in\n    tag_40:\n      mload(0x40)\n      tag_43\n      swap2\n      swap1\n      tag_38\n      jump\t// in\n    tag_43:\n      mload(0x40)\n      dup1\n      swap2\n      sub\n      swap1\n      return\n        /* \"Contracts\":204:252  address[] public accountabilityContractAddresses */\n    tag_5:\n      callvalue\n      dup1\n      iszero\n      tag_44\n      jumpi\n      0x00\n      dup1\n      revert\n    tag_44:\n      pop\n      tag_45\n      0x04\n      dup1\n      calldatasize\n      sub\n      dup2\n      add\n      swap1\n      tag_46\n      swap2\n      swap1\n      tag_47\n      jump\t// in\n    tag_46:\n      tag_48\n      jump\t// in\n    tag_45:\n      mload(0x40)\n      tag_49\n      swap2\n      swap1\n      tag_50\n      jump\t// in\n    tag_49:\n      mload(0x40)\n      dup1\n      swap2\n      sub\n      swap1\n      return\n        /* \"Contracts\":417:450  address[] public refereeAddresses */\n    tag_6:\n      callvalue\n      dup1\n      iszero\n      tag_51\n      jumpi\n      0x00\n      dup1\n      revert\n    tag_51:\n      pop\n      tag_52\n      0x04\n      dup1\n      calldatasize\n      sub\n      dup2\n      add\n      swap1\n      tag_53\n      swap2\n      swap1\n      tag_47\n      jump\t// in\n    tag_53:\n      tag_54\n      jump\t// in\n    tag_52:\n      mload(0x40)\n      tag_55\n      swap2\n      swap1\n      tag_50\n      jump\t// in\n    tag_55:\n      mload(0x40)\n      dup1\n      swap2\n      sub\n      swap1\n      return\n        /* \"Contracts\":1849:2027  function getOpenAccountabilityContractAddressesForUser(address user) public view returns (address[] memory){... */\n    tag_7:\n      callvalue\n      dup1\n      iszero\n      tag_56\n      jumpi\n      0x00\n      dup1\n      revert\n    tag_56:\n      pop\n      tag_57\n      0x04\n      dup1\n      calldatasize\n      sub\n      dup2\n      add\n      swap1\n      tag_58\n      swap2\n      swap1\n      tag_30\n      jump\t// in\n    tag_58:\n      tag_59\n      jump\t// in\n    tag_57:\n      mload(0x40)\n      tag_60\n      swap2\n      swap1\n      tag_38\n      jump\t// in\n    tag_60:\n      mload(0x40)\n      dup1\n      swap2\n      sub\n      swap1\n      return\n        /* \"Contracts\":256:299  uint public numberOfAccountabilityContracts */\n    tag_8:\n      callvalue\n      dup1\n      iszero\n      tag_61\n      jumpi\n      0x00\n      dup1\n      revert\n    tag_61:\n      pop\n      tag_62\n      tag_63\n      jump\t// in\n    tag_62:\n      mload(0x40)\n      tag_64\n      swap2\n      swap1\n      tag_65\n      jump\t// in\n    tag_64:\n      mload(0x40)\n      dup1\n      swap2\n      sub\n      swap1\n      return\n        /* \"Contracts\":2617:2800  function getCompleteAccountabilityContractRequestsForReferee(address referee) public view returns (address[] memory){... */\n    tag_9:\n      callvalue\n      dup1\n      iszero\n      tag_66\n      jumpi\n      0x00\n      dup1\n      revert\n    tag_66:\n      pop\n      tag_67\n      0x04\n      dup1\n      calldatasize\n      sub\n      dup2\n      add\n      swap1\n      tag_68\n      swap2\n      swap1\n      tag_30\n      jump\t// in\n    tag_68:\n      tag_69\n      jump\t// in\n    tag_67:\n      mload(0x40)\n      tag_70\n      swap2\n      swap1\n      tag_38\n      jump\t// in\n    tag_70:\n      mload(0x40)\n      dup1\n      swap2\n      sub\n      swap1\n      return\n        /* \"Contracts\":141:171  address[] public userAddresses */\n    tag_10:\n      callvalue\n      dup1\n      iszero\n      tag_71\n      jumpi\n      0x00\n      dup1\n      revert\n    tag_71:\n      pop\n      tag_72\n      0x04\n      dup1\n      calldatasize\n      sub\n      dup2\n      add\n      swap1\n      tag_73\n      swap2\n      swap1\n      tag_47\n      jump\t// in\n    tag_73:\n      tag_74\n      jump\t// in\n    tag_72:\n      mload(0x40)\n      tag_75\n      swap2\n      swap1\n      tag_50\n      jump\t// in\n    tag_75:\n      mload(0x40)\n      dup1\n      swap2\n      sub\n      swap1\n      return\n        /* \"Contracts\":2806:3225  function failOpenAccountabilityContract(address contractAddress) public {... */\n    tag_11:\n      callvalue\n      dup1\n      iszero\n      tag_76\n      jumpi\n      0x00\n      dup1\n      revert\n    tag_76:\n      pop\n      tag_77\n      0x04\n      dup1\n      calldatasize\n      sub\n      dup2\n      add\n      swap1\n      tag_78\n      swap2\n      swap1\n      tag_30\n      jump\t// in\n    tag_78:\n      tag_79\n      jump\t// in\n    tag_77:\n      stop\n        /* \"Contracts\":3231:3659  function completeOpenAccountabilityContract(address contractAddress) public {... */\n    tag_12:\n      callvalue\n      dup1\n      iszero\n      tag_80\n      jumpi\n      0x00\n      dup1\n      revert\n    tag_80:\n      pop\n      tag_81\n      0x04\n      dup1\n      calldatasize\n      sub\n      dup2\n      add\n      swap1\n      tag_82\n      swap2\n      swap1\n      tag_30\n      jump\t// in\n    tag_82:\n      tag_83\n      jump\t// in\n    tag_81:\n      stop\n        /* \"Contracts\":338:381  mapping(address => Referee) public referees */\n    tag_13:\n      callvalue\n      dup1\n      iszero\n      tag_84\n      jumpi\n      0x00\n      dup1\n      revert\n    tag_84:\n      pop\n      tag_85\n      0x04\n      dup1\n      calldatasize\n      sub\n      dup2\n      add\n      swap1\n      tag_86\n      swap2\n      swap1\n      tag_30\n      jump\t// in\n    tag_86:\n      tag_87\n      jump\t// in\n    tag_85:\n      mload(0x40)\n      tag_88\n      swap2\n      swap1\n      tag_65\n      jump\t// in\n    tag_88:\n      mload(0x40)\n      dup1\n      swap2\n      sub\n      swap1\n      return\n        /* \"Contracts\":175:200  uint public numberOfUsers */\n    tag_14:\n      callvalue\n      dup1\n      iszero\n      tag_89\n      jumpi\n      0x00\n      dup1\n      revert\n    tag_89:\n      pop\n      tag_90\n      tag_91\n      jump\t// in\n    tag_90:\n      mload(0x40)\n      tag_92\n      swap2\n      swap1\n      tag_65\n      jump\t// in\n    tag_92:\n      mload(0x40)\n      dup1\n      swap2\n      sub\n      swap1\n      return\n        /* \"Contracts\":2221:2411  function getOpenAccountabilityContractAddressesForReferee(address referee) public view returns (address[] memory){... */\n    tag_15:\n      callvalue\n      dup1\n      iszero\n      tag_93\n      jumpi\n      0x00\n      dup1\n      revert\n    tag_93:\n      pop\n      tag_94\n      0x04\n      dup1\n      calldatasize\n      sub\n      dup2\n      add\n      swap1\n      tag_95\n      swap2\n      swap1\n      tag_30\n      jump\t// in\n    tag_95:\n      tag_96\n      jump\t// in\n    tag_94:\n      mload(0x40)\n      tag_97\n      swap2\n      swap1\n      tag_38\n      jump\t// in\n    tag_97:\n      mload(0x40)\n      dup1\n      swap2\n      sub\n      swap1\n      return\n        /* \"Contracts\":100:137  mapping(address => User) public users */\n    tag_16:\n      callvalue\n      dup1\n      iszero\n      tag_98\n      jumpi\n      0x00\n      dup1\n      revert\n    tag_98:\n      pop\n      tag_99\n      0x04\n      dup1\n      calldatasize\n      sub\n      dup2\n      add\n      swap1\n      tag_100\n      swap2\n      swap1\n      tag_30\n      jump\t// in\n    tag_100:\n      tag_101\n      jump\t// in\n    tag_99:\n      mload(0x40)\n      tag_102\n      swap2\n      swap1\n      tag_65\n      jump\t// in\n    tag_102:\n      mload(0x40)\n      dup1\n      swap2\n      sub\n      swap1\n      return\n        /* \"Contracts\":7726:8221  function getUserAddresses(uint startIndex, uint endIndex) public view returns (address[] memory) {... */\n    tag_17:\n      callvalue\n      dup1\n      iszero\n      tag_103\n      jumpi\n      0x00\n      dup1\n      revert\n    tag_103:\n      pop\n      tag_104\n      0x04\n      dup1\n      calldatasize\n      sub\n      dup2\n      add\n      swap1\n      tag_105\n      swap2\n      swap1\n      tag_35\n      jump\t// in\n    tag_105:\n      tag_106\n      jump\t// in\n    tag_104:\n      mload(0x40)\n      tag_107\n      swap2\n      swap1\n      tag_38\n      jump\t// in\n    tag_107:\n      mload(0x40)\n      dup1\n      swap2\n      sub\n      swap1\n      return\n        /* \"Contracts\":2033:2215  function getClosedAccountabilityContractAddressesForUser(address user) public view returns (address[] memory){... */\n    tag_18:\n      callvalue\n      dup1\n      iszero\n      tag_108\n      jumpi\n      0x00\n      dup1\n      revert\n    tag_108:\n      pop\n      tag_109\n      0x04\n      dup1\n      calldatasize\n      sub\n      dup2\n      add\n      swap1\n      tag_110\n      swap2\n      swap1\n      tag_30\n      jump\t// in\n    tag_110:\n      tag_111\n      jump\t// in\n    tag_109:\n      mload(0x40)\n      tag_112\n      swap2\n      swap1\n      tag_38\n      jump\t// in\n    tag_112:\n      mload(0x40)\n      dup1\n      swap2\n      sub\n      swap1\n      return\n        /* \"Contracts\":385:413  uint public numberOfReferees */\n    tag_19:\n      callvalue\n      dup1\n      iszero\n      tag_113\n      jumpi\n      0x00\n      dup1\n      revert\n    tag_113:\n      pop\n      tag_114\n      tag_115\n      jump\t// in\n    tag_114:\n      mload(0x40)\n      tag_116\n      swap2\n      swap1\n      tag_65\n      jump\t// in\n    tag_116:\n      mload(0x40)\n      dup1\n      swap2\n      sub\n      swap1\n      return\n        /* \"Contracts\":5160:5447  function rejectRequest(address completionRequestContractAddress, string memory response) public {... */\n    tag_20:\n      callvalue\n      dup1\n      iszero\n      tag_117\n      jumpi\n      0x00\n      dup1\n      revert\n    tag_117:\n      pop\n      tag_118\n      0x04\n      dup1\n      calldatasize\n      sub\n      dup2\n      add\n      swap1\n      tag_119\n      swap2\n      swap1\n      tag_120\n      jump\t// in\n    tag_119:\n      tag_121\n      jump\t// in\n    tag_118:\n      stop\n        /* \"Contracts\":303:334  uint public totalEthInContracts */\n    tag_21:\n      callvalue\n      dup1\n      iszero\n      tag_122\n      jumpi\n      0x00\n      dup1\n      revert\n    tag_122:\n      pop\n      tag_123\n      tag_124\n      jump\t// in\n    tag_123:\n      mload(0x40)\n      tag_125\n      swap2\n      swap1\n      tag_65\n      jump\t// in\n    tag_125:\n      mload(0x40)\n      dup1\n      swap2\n      sub\n      swap1\n      return\n        /* \"Contracts\":3665:4300  function requestApproval(address contractAddress) public {... */\n    tag_22:\n      callvalue\n      dup1\n      iszero\n      tag_126\n      jumpi\n      0x00\n      dup1\n      revert\n    tag_126:\n      pop\n      tag_127\n      0x04\n      dup1\n      calldatasize\n      sub\n      dup2\n      add\n      swap1\n      tag_128\n      swap2\n      swap1\n      tag_30\n      jump\t// in\n    tag_128:\n      tag_129\n      jump\t// in\n    tag_127:\n      stop\n        /* \"Contracts\":813:1843  function createAccountabilityContract(address _referee, string memory _name, string memory _description, address payable _failureRecipient) public payable {... */\n    tag_23:\n      tag_130\n      0x04\n      dup1\n      calldatasize\n      sub\n      dup2\n      add\n      swap1\n      tag_131\n      swap2\n      swap1\n      tag_132\n      jump\t// in\n    tag_131:\n      tag_133\n      jump\t// in\n    tag_130:\n      stop\n        /* \"Contracts\":4306:5154  function approveRequest(address completionRequestContractAddress) public {... */\n    tag_31:\n        /* \"Contracts\":4389:4442  AccountabilityContractApprovalRequest approvalRequest */\n      0x00\n        /* \"Contracts\":4483:4515  completionRequestContractAddress */\n      dup2\n        /* \"Contracts\":4389:4516  AccountabilityContractApprovalRequest approvalRequest = AccountabilityContractApprovalRequest(completionRequestContractAddress) */\n      swap1\n      pop\n        /* \"Contracts\":4526:4571  AccountabilityContract accountabilityContract */\n      0x00\n        /* \"Contracts\":4597:4612  approvalRequest */\n      dup2\n        /* \"Contracts\":4597:4642  approvalRequest.accountabilityContractAddress */\n      0xffffffffffffffffffffffffffffffffffffffff\n      and\n      0x3c490174\n        /* \"Contracts\":4597:4644  approvalRequest.accountabilityContractAddress() */\n      mload(0x40)\n      dup2\n      0xffffffff\n      and\n      0xe0\n      shl\n      dup2\n      mstore\n      0x04\n      add\n      0x20\n      mload(0x40)\n      dup1\n      dup4\n      sub\n      dup2\n      dup7\n      gas\n      staticcall\n      iszero\n      dup1\n      iszero\n      tag_136\n      jumpi\n      returndatasize\n      0x00\n      dup1\n      returndatacopy\n      revert(0x00, returndatasize)\n    tag_136:\n      pop\n      pop\n      pop\n      pop\n      mload(0x40)\n      returndatasize\n      not(0x1f)\n      0x1f\n      dup3\n      add\n      and\n      dup3\n      add\n      dup1\n      0x40\n      mstore\n      pop\n      dup2\n      add\n      swap1\n      tag_137\n      swap2\n      swap1\n      tag_138\n      jump\t// in\n    tag_137:\n        /* \"Contracts\":4526:4645  AccountabilityContract accountabilityContract = AccountabilityContract(approvalRequest.accountabilityContractAddress()) */\n      swap1\n      pop\n        /* \"Contracts\":4699:4714  approvalRequest */\n      dup2\n        /* \"Contracts\":4699:4722  approvalRequest.referee */\n      0xffffffffffffffffffffffffffffffffffffffff\n      and\n      0x3b1bebd1\n        /* \"Contracts\":4699:4724  approvalRequest.referee() */\n      mload(0x40)\n      dup2\n      0xffffffff\n      and\n      0xe0\n      shl\n      dup2\n      mstore\n      0x04\n      add\n      0x20\n      mload(0x40)\n      dup1\n      dup4\n      sub\n      dup2\n      dup7\n      gas\n      staticcall\n      iszero\n      dup1\n      iszero\n      tag_140\n      jumpi\n      returndatasize\n      0x00\n      dup1\n      returndatacopy\n      revert(0x00, returndatasize)\n    tag_140:\n      pop\n      pop\n      pop\n      pop\n      mload(0x40)\n      returndatasize\n      not(0x1f)\n      0x1f\n      dup3\n      add\n      and\n      dup3\n      add\n      dup1\n      0x40\n      mstore\n      pop\n      dup2\n      add\n      swap1\n      tag_141\n      swap2\n      swap1\n      tag_138\n      jump\t// in\n    tag_141:\n        /* \"Contracts\":4663:4724  accountabilityContract.referee() == approvalRequest.referee() */\n      0xffffffffffffffffffffffffffffffffffffffff\n      and\n        /* \"Contracts\":4663:4685  accountabilityContract */\n      dup2\n        /* \"Contracts\":4663:4693  accountabilityContract.referee */\n      0xffffffffffffffffffffffffffffffffffffffff\n      and\n      0x3b1bebd1\n        /* \"Contracts\":4663:4695  accountabilityContract.referee() */\n      mload(0x40)\n      dup2\n      0xffffffff\n      and\n      0xe0\n      shl\n      dup2\n      mstore\n      0x04\n      add\n      0x20\n      mload(0x40)\n      dup1\n      dup4\n      sub\n      dup2\n      dup7\n      gas\n      staticcall\n      iszero\n      dup1\n      iszero\n      tag_143\n      jumpi\n      returndatasize\n      0x00\n      dup1\n      returndatacopy\n      revert(0x00, returndatasize)\n    tag_143:\n      pop\n      pop\n      pop\n      pop\n      mload(0x40)\n      returndatasize\n      not(0x1f)\n      0x1f\n      dup3\n      add\n      and\n      dup3\n      add\n      dup1\n      0x40\n      mstore\n      pop\n      dup2\n      add\n      swap1\n      tag_144\n      swap2\n      swap1\n      tag_138\n      jump\t// in\n    tag_144:\n        /* \"Contracts\":4663:4724  accountabilityContract.referee() == approvalRequest.referee() */\n      0xffffffffffffffffffffffffffffffffffffffff\n      and\n      eq\n        /* \"Contracts\":4655:4785  require(accountabilityContract.referee() == approvalRequest.referee(), \"Only contract referee can approve request for completion\") */\n      tag_145\n      jumpi\n      mload(0x40)\n      0x08c379a000000000000000000000000000000000000000000000000000000000\n      dup2\n      mstore\n      0x04\n      add\n      tag_146\n      swap1\n      tag_147\n      jump\t// in\n    tag_146:\n      mload(0x40)\n      dup1\n      swap2\n      sub\n      swap1\n      revert\n    tag_145:\n        /* \"Contracts\":4795:4810  approvalRequest */\n      dup2\n        /* \"Contracts\":4795:4825  approvalRequest.approveRequest */\n      0xffffffffffffffffffffffffffffffffffffffff\n      and\n      0x263b81c9\n        /* \"Contracts\":4795:4827  approvalRequest.approveRequest() */\n      mload(0x40)\n      dup2\n      0xffffffff\n      and\n      0xe0\n      shl\n      dup2\n      mstore\n      0x04\n      add\n      0x20\n      mload(0x40)\n      dup1\n      dup4\n      sub\n      dup2\n      0x00\n      dup8\n      gas\n      call\n      iszero\n      dup1\n      iszero\n      tag_149\n      jumpi\n      returndatasize\n      0x00\n      dup1\n      returndatacopy\n      revert(0x00, returndatasize)\n    tag_149:\n      pop\n      pop\n      pop\n      pop\n      mload(0x40)\n      returndatasize\n      not(0x1f)\n      0x1f\n      dup3\n      add\n      and\n      dup3\n      add\n      dup1\n      0x40\n      mstore\n      pop\n      dup2\n      add\n      swap1\n      tag_150\n      swap2\n      swap1\n      tag_151\n      jump\t// in\n    tag_150:\n      pop\n        /* \"Contracts\":4837:4859  accountabilityContract */\n      dup1\n        /* \"Contracts\":4837:4876  accountabilityContract.completeContract */\n      0xffffffffffffffffffffffffffffffffffffffff\n      and\n      0xb4fedc11\n        /* \"Contracts\":4837:4878  accountabilityContract.completeContract() */\n      mload(0x40)\n      dup2\n      0xffffffff\n      and\n      0xe0\n      shl\n      dup2\n      mstore\n      0x04\n      add\n      0x20\n      mload(0x40)\n      dup1\n      dup4\n      sub\n      dup2\n      0x00\n      dup8\n      gas\n      call\n      iszero\n      dup1\n      iszero\n      tag_153\n      jumpi\n      returndatasize\n      0x00\n      dup1\n      returndatacopy\n      revert(0x00, returndatasize)\n    tag_153:\n      pop\n      pop\n      pop\n      pop\n      mload(0x40)\n      returndatasize\n      not(0x1f)\n      0x1f\n      dup3\n      add\n      and\n      dup3\n      add\n      dup1\n      0x40\n      mstore\n      pop\n      dup2\n      add\n      swap1\n      tag_154\n      swap2\n      swap1\n      tag_155\n      jump\t// in\n    tag_154:\n      pop\n        /* \"Contracts\":4888:5011  moveOpenContractToClosedContractsForUser(accountabilityContract.creator(), approvalRequest.accountabilityContractAddress()) */\n      tag_156\n        /* \"Contracts\":4929:4951  accountabilityContract */\n      dup2\n        /* \"Contracts\":4929:4959  accountabilityContract.creator */\n      0xffffffffffffffffffffffffffffffffffffffff\n      and\n      0x02d05d3f\n        /* \"Contracts\":4929:4961  accountabilityContract.creator() */\n      mload(0x40)\n      dup2\n      0xffffffff\n      and\n      0xe0\n      shl\n      dup2\n      mstore\n      0x04\n      add\n      0x20\n      mload(0x40)\n      dup1\n      dup4\n      sub\n      dup2\n      dup7\n      gas\n      staticcall\n      iszero\n      dup1\n      iszero\n      tag_158\n      jumpi\n      returndatasize\n      0x00\n      dup1\n      returndatacopy\n      revert(0x00, returndatasize)\n    tag_158:\n      pop\n      pop\n      pop\n      pop\n      mload(0x40)\n      returndatasize\n      not(0x1f)\n      0x1f\n      dup3\n      add\n      and\n      dup3\n      add\n      dup1\n      0x40\n      mstore\n      pop\n      dup2\n      add\n      swap1\n      tag_159\n      swap2\n      swap1\n      tag_138\n      jump\t// in\n    tag_159:\n        /* \"Contracts\":4963:4978  approvalRequest */\n      dup4\n        /* \"Contracts\":4963:5008  approvalRequest.accountabilityContractAddress */\n      0xffffffffffffffffffffffffffffffffffffffff\n      and\n      0x3c490174\n        /* \"Contracts\":4963:5010  approvalRequest.accountabilityContractAddress() */\n      mload(0x40)\n      dup2\n      0xffffffff\n      and\n      0xe0\n      shl\n      dup2\n      mstore\n      0x04\n      add\n      0x20\n      mload(0x40)\n      dup1\n      dup4\n      sub\n      dup2\n      dup7\n      gas\n      staticcall\n      iszero\n      dup1\n      iszero\n      tag_161\n      jumpi\n      returndatasize\n      0x00\n      dup1\n      returndatacopy\n      revert(0x00, returndatasize)\n    tag_161:\n      pop\n      pop\n      pop\n      pop\n      mload(0x40)\n      returndatasize\n      not(0x1f)\n      0x1f\n      dup3\n      add\n      and\n      dup3\n      add\n      dup1\n      0x40\n      mstore\n      pop\n      dup2\n      add\n      swap1\n      tag_162\n      swap2\n      swap1\n      tag_138\n      jump\t// in\n    tag_162:\n        /* \"Contracts\":4888:4928  moveOpenContractToClosedContractsForUser */\n      tag_163\n        /* \"Contracts\":4888:5011  moveOpenContractToClosedContractsForUser(accountabilityContract.creator(), approvalRequest.accountabilityContractAddress()) */\n      jump\t// in\n    tag_156:\n        /* \"Contracts\":5021:5147  moveOpenContractToClosedContractsForReferee(accountabilityContract.referee(), approvalRequest.accountabilityContractAddress()) */\n      tag_164\n        /* \"Contracts\":5065:5087  accountabilityContract */\n      dup2\n        /* \"Contracts\":5065:5095  accountabilityContract.referee */\n      0xffffffffffffffffffffffffffffffffffffffff\n      and\n      0x3b1bebd1\n        /* \"Contracts\":5065:5097  accountabilityContract.referee() */\n      mload(0x40)\n      dup2\n      0xffffffff\n      and\n      0xe0\n      shl\n      dup2\n      mstore\n      0x04\n      add\n      0x20\n      mload(0x40)\n      dup1\n      dup4\n      sub\n      dup2\n      dup7\n      gas\n      staticcall\n      iszero\n      dup1\n      iszero\n      tag_166\n      jumpi\n      returndatasize\n      0x00\n      dup1\n      returndatacopy\n      revert(0x00, returndatasize)\n    tag_166:\n      pop\n      pop\n      pop\n      pop\n      mload(0x40)\n      returndatasize\n      not(0x1f)\n      0x1f\n      dup3\n      add\n      and\n      dup3\n      add\n      dup1\n      0x40\n      mstore\n      pop\n      dup2\n      add\n      swap1\n      tag_167\n      swap2\n      swap1\n      tag_138\n      jump\t// in\n    tag_167:\n        /* \"Contracts\":5099:5114  approvalRequest */\n      dup4\n        /* \"Contracts\":5099:5144  approvalRequest.accountabilityContractAddress */\n      0xffffffffffffffffffffffffffffffffffffffff\n      and\n      0x3c490174\n        /* \"Contracts\":5099:5146  approvalRequest.accountabilityContractAddress() */\n      mload(0x40)\n      dup2\n      0xffffffff\n      and\n      0xe0\n      shl\n      dup2\n      mstore\n      0x04\n      add\n      0x20\n      mload(0x40)\n      dup1\n      dup4\n      sub\n      dup2\n      dup7\n      gas\n      staticcall\n      iszero\n      dup1\n      iszero\n      tag_169\n      jumpi\n      returndatasize\n      0x00\n      dup1\n      returndatacopy\n      revert(0x00, returndatasize)\n    tag_169:\n      pop\n      pop\n      pop\n      pop\n      mload(0x40)\n      returndatasize\n      not(0x1f)\n      0x1f\n      dup3\n      add\n      and\n      dup3\n      add\n      dup1\n      0x40\n      mstore\n      pop\n      dup2\n      add\n      swap1\n      tag_170\n      swap2\n      swap1\n      tag_138\n      jump\t// in\n    tag_170:\n        /* \"Contracts\":5021:5064  moveOpenContractToClosedContractsForReferee */\n      tag_171\n        /* \"Contracts\":5021:5147  moveOpenContractToClosedContractsForReferee(accountabilityContract.referee(), approvalRequest.accountabilityContractAddress()) */\n      jump\t// in\n    tag_164:\n        /* \"Contracts\":4379:5154  {... */\n      pop\n      pop\n        /* \"Contracts\":4306:5154  function approveRequest(address completionRequestContractAddress) public {... */\n      pop\n      jump\t// out\n        /* \"Contracts\":8227:8830  function getAccountabilityContractAddresses(uint startIndex, uint endIndex) public view returns (address[] memory) {... */\n    tag_36:\n        /* \"Contracts\":8324:8340  address[] memory */\n      0x60\n        /* \"Contracts\":8373:8374  0 */\n      0x00\n        /* \"Contracts\":8359:8369  startIndex */\n      dup4\n        /* \"Contracts\":8359:8374  startIndex >= 0 */\n      lt\n      iszero\n        /* \"Contracts\":8351:8409  require(startIndex >= 0, \"Start index cannot be negative\") */\n      tag_173\n      jumpi\n      mload(0x40)\n      0x08c379a000000000000000000000000000000000000000000000000000000000\n      dup2\n      mstore\n      0x04\n      add\n      tag_174\n      swap1\n      tag_175\n      jump\t// in\n    tag_174:\n      mload(0x40)\n      dup1\n      swap2\n      sub\n      swap1\n      revert\n    tag_173:\n        /* \"Contracts\":8438:8469  accountabilityContractAddresses */\n      0x03\n        /* \"Contracts\":8438:8476  accountabilityContractAddresses.length */\n      dup1\n      sload\n      swap1\n      pop\n        /* \"Contracts\":8426:8434  endIndex */\n      dup3\n        /* \"Contracts\":8426:8476  endIndex <= accountabilityContractAddresses.length */\n      gt\n      iszero\n        /* \"Contracts\":8418:8520  require(endIndex <= accountabilityContractAddresses.length, \"End index exceeds user addresses length\") */\n      tag_176\n      jumpi\n      mload(0x40)\n      0x08c379a000000000000000000000000000000000000000000000000000000000\n      dup2\n      mstore\n      0x04\n      add\n      tag_177\n      swap1\n      tag_178\n      jump\t// in\n    tag_177:\n      mload(0x40)\n      dup1\n      swap2\n      sub\n      swap1\n      revert\n    tag_176:\n        /* \"Contracts\":8529:8583  address[] memory slicedAccountabilityContractAddresses */\n      0x00\n        /* \"Contracts\":8609:8619  startIndex */\n      dup4\n        /* \"Contracts\":8600:8608  endIndex */\n      dup4\n        /* \"Contracts\":8600:8619  endIndex-startIndex */\n      tag_179\n      swap2\n      swap1\n      tag_180\n      jump\t// in\n    tag_179:\n        /* \"Contracts\":8586:8620  new address[](endIndex-startIndex) */\n      0xffffffffffffffff\n      dup2\n      gt\n      iszero\n      tag_181\n      jumpi\n      tag_182\n      tag_183\n      jump\t// in\n    tag_182:\n    tag_181:\n      mload(0x40)\n      swap1\n      dup1\n      dup3\n      mstore\n      dup1\n      0x20\n      mul\n      0x20\n      add\n      dup3\n      add\n      0x40\n      mstore\n      dup1\n      iszero\n      tag_184\n      jumpi\n      dup2\n      0x20\n      add\n      0x20\n      dup3\n      mul\n      dup1\n      calldatasize\n      dup4\n      calldatacopy\n      dup1\n      dup3\n      add\n      swap2\n      pop\n      pop\n      swap1\n      pop\n    tag_184:\n      pop\n        /* \"Contracts\":8529:8620  address[] memory slicedAccountabilityContractAddresses = new address[](endIndex-startIndex) */\n      swap1\n      pop\n        /* \"Contracts\":8633:8639  uint i */\n      0x00\n        /* \"Contracts\":8640:8650  startIndex */\n      dup5\n        /* \"Contracts\":8633:8650  uint i=startIndex */\n      swap1\n      pop\n        /* \"Contracts\":8629:8770  for(uint i=startIndex; i<endIndex; i++){... */\n    tag_185:\n        /* \"Contracts\":8654:8662  endIndex */\n      dup4\n        /* \"Contracts\":8652:8653  i */\n      dup2\n        /* \"Contracts\":8652:8662  i<endIndex */\n      lt\n        /* \"Contracts\":8629:8770  for(uint i=startIndex; i<endIndex; i++){... */\n      iszero\n      tag_186\n      jumpi\n        /* \"Contracts\":8725:8756  accountabilityContractAddresses */\n      0x03\n        /* \"Contracts\":8757:8758  i */\n      dup2\n        /* \"Contracts\":8725:8759  accountabilityContractAddresses[i] */\n      dup2\n      sload\n      dup2\n      lt\n      tag_188\n      jumpi\n      tag_189\n      tag_190\n      jump\t// in\n    tag_189:\n    tag_188:\n      swap1\n      0x00\n      mstore\n      keccak256(0x00, 0x20)\n      add\n      0x00\n      swap1\n      sload\n      swap1\n      0x0100\n      exp\n      swap1\n      div\n      0xffffffffffffffffffffffffffffffffffffffff\n      and\n        /* \"Contracts\":8682:8719  slicedAccountabilityContractAddresses */\n      dup3\n        /* \"Contracts\":8720:8721  i */\n      dup3\n        /* \"Contracts\":8682:8722  slicedAccountabilityContractAddresses[i] */\n      dup2\n      mload\n      dup2\n      lt\n      tag_192\n      jumpi\n      tag_193\n      tag_190\n      jump\t// in\n    tag_193:\n    tag_192:\n      0x20\n      mul\n      0x20\n      add\n      add\n        /* \"Contracts\":8682:8759  slicedAccountabilityContractAddresses[i] = accountabilityContractAddresses[i] */\n      swap1\n      0xffffffffffffffffffffffffffffffffffffffff\n      and\n      swap1\n      dup2\n      0xffffffffffffffffffffffffffffffffffffffff\n      and\n      dup2\n      mstore\n      pop\n      pop\n        /* \"Contracts\":8664:8667  i++ */\n      dup1\n      dup1\n      tag_194\n      swap1\n      tag_195\n      jump\t// in\n    tag_194:\n      swap2\n      pop\n      pop\n        /* \"Contracts\":8629:8770  for(uint i=startIndex; i<endIndex; i++){... */\n      jump(tag_185)\n    tag_186:\n      pop\n        /* \"Contracts\":8786:8823  slicedAccountabilityContractAddresses */\n      dup1\n        /* \"Contracts\":8779:8823  return slicedAccountabilityContractAddresses */\n      swap2\n      pop\n      pop\n        /* \"Contracts\":8227:8830  function getAccountabilityContractAddresses(uint startIndex, uint endIndex) public view returns (address[] memory) {... */\n      swap3\n      swap2\n      pop\n      pop\n      jump\t// out\n        /* \"Contracts\":2417:2611  function getClosedAccountabilityContractAddressesForReferee(address referee) public view returns (address[] memory){... */\n    tag_42:\n        /* \"Contracts\":2515:2531  address[] memory */\n      0x60\n        /* \"Contracts\":2549:2557  referees */\n      0x06\n        /* \"Contracts\":2549:2566  referees[referee] */\n      0x00\n        /* \"Contracts\":2558:2565  referee */\n      dup4\n        /* \"Contracts\":2549:2566  referees[referee] */\n      0xffffffffffffffffffffffffffffffffffffffff\n      and\n      0xffffffffffffffffffffffffffffffffffffffff\n      and\n      dup2\n      mstore\n      0x20\n      add\n      swap1\n      dup2\n      mstore\n      0x20\n      add\n      0x00\n      keccak256\n        /* \"Contracts\":2549:2604  referees[referee].closedAccountabilityContractAddresses */\n      0x02\n      add\n        /* \"Contracts\":2542:2604  return referees[referee].closedAccountabilityContractAddresses */\n      dup1\n      sload\n      dup1\n      0x20\n      mul\n      0x20\n      add\n      mload(0x40)\n      swap1\n      dup2\n      add\n      0x40\n      mstore\n      dup1\n      swap3\n      swap2\n      swap1\n      dup2\n      dup2\n      mstore\n      0x20\n      add\n      dup3\n      dup1\n      sload\n      dup1\n      iszero\n      tag_197\n      jumpi\n      0x20\n      mul\n      dup3\n      add\n      swap2\n      swap1\n      0x00\n      mstore\n      keccak256(0x00, 0x20)\n      swap1\n    tag_198:\n      dup2\n      0x00\n      swap1\n      sload\n      swap1\n      0x0100\n      exp\n      swap1\n      div\n      0xffffffffffffffffffffffffffffffffffffffff\n      and\n      0xffffffffffffffffffffffffffffffffffffffff\n      and\n      dup2\n      mstore\n      0x20\n      add\n      swap1\n      0x01\n      add\n      swap1\n      dup1\n      dup4\n      gt\n      tag_198\n      jumpi\n    tag_197:\n      pop\n      pop\n      pop\n      pop\n      pop\n      swap1\n      pop\n        /* \"Contracts\":2417:2611  function getClosedAccountabilityContractAddressesForReferee(address referee) public view returns (address[] memory){... */\n      swap2\n      swap1\n      pop\n      jump\t// out\n        /* \"Contracts\":204:252  address[] public accountabilityContractAddresses */\n    tag_48:\n      0x03\n      dup2\n      dup2\n      sload\n      dup2\n      lt\n      tag_199\n      jumpi\n      0x00\n      dup1\n      revert\n    tag_199:\n      swap1\n      0x00\n      mstore\n      keccak256(0x00, 0x20)\n      add\n      0x00\n      swap2\n      pop\n      sload\n      swap1\n      0x0100\n      exp\n      swap1\n      div\n      0xffffffffffffffffffffffffffffffffffffffff\n      and\n      dup2\n      jump\t// out\n        /* \"Contracts\":417:450  address[] public refereeAddresses */\n    tag_54:\n      0x08\n      dup2\n      dup2\n      sload\n      dup2\n      lt\n      tag_201\n      jumpi\n      0x00\n      dup1\n      revert\n    tag_201:\n      swap1\n      0x00\n      mstore\n      keccak256(0x00, 0x20)\n      add\n      0x00\n      swap2\n      pop\n      sload\n      swap1\n      0x0100\n      exp\n      swap1\n      div\n      0xffffffffffffffffffffffffffffffffffffffff\n      and\n      dup2\n      jump\t// out\n        /* \"Contracts\":1849:2027  function getOpenAccountabilityContractAddressesForUser(address user) public view returns (address[] memory){... */\n    tag_59:\n        /* \"Contracts\":1939:1955  address[] memory */\n      0x60\n        /* \"Contracts\":1973:1978  users */\n      0x00\n        /* \"Contracts\":1973:1984  users[user] */\n      dup1\n        /* \"Contracts\":1979:1983  user */\n      dup4\n        /* \"Contracts\":1973:1984  users[user] */\n      0xffffffffffffffffffffffffffffffffffffffff\n      and\n      0xffffffffffffffffffffffffffffffffffffffff\n      and\n      dup2\n      mstore\n      0x20\n      add\n      swap1\n      dup2\n      mstore\n      0x20\n      add\n      0x00\n      keccak256\n        /* \"Contracts\":1973:2020  users[user].openAccountabilityContractAddresses */\n      0x01\n      add\n        /* \"Contracts\":1966:2020  return users[user].openAccountabilityContractAddresses */\n      dup1\n      sload\n      dup1\n      0x20\n      mul\n      0x20\n      add\n      mload(0x40)\n      swap1\n      dup2\n      add\n      0x40\n      mstore\n      dup1\n      swap3\n      swap2\n      swap1\n      dup2\n      dup2\n      mstore\n      0x20\n      add\n      dup3\n      dup1\n      sload\n      dup1\n      iszero\n      tag_204\n      jumpi\n      0x20\n      mul\n      dup3\n      add\n      swap2\n      swap1\n      0x00\n      mstore\n      keccak256(0x00, 0x20)\n      swap1\n    tag_205:\n      dup2\n      0x00\n      swap1\n      sload\n      swap1\n      0x0100\n      exp\n      swap1\n      div\n      0xffffffffffffffffffffffffffffffffffffffff\n      and\n      0xffffffffffffffffffffffffffffffffffffffff\n      and\n      dup2\n      mstore\n      0x20\n      add\n      swap1\n      0x01\n      add\n      swap1\n      dup1\n      dup4\n      gt\n      tag_205\n      jumpi\n    tag_204:\n      pop\n      pop\n      pop\n      pop\n      pop\n      swap1\n      pop\n        /* \"Contracts\":1849:2027  function getOpenAccountabilityContractAddressesForUser(address user) public view returns (address[] memory){... */\n      swap2\n      swap1\n      pop\n      jump\t// out\n        /* \"Contracts\":256:299  uint public numberOfAccountabilityContracts */\n    tag_63:\n      sload(0x04)\n      dup2\n      jump\t// out\n        /* \"Contracts\":2617:2800  function getCompleteAccountabilityContractRequestsForReferee(address referee) public view returns (address[] memory){... */\n    tag_69:\n        /* \"Contracts\":2716:2732  address[] memory */\n      0x60\n        /* \"Contracts\":2750:2758  referees */\n      0x06\n        /* \"Contracts\":2750:2767  referees[referee] */\n      0x00\n        /* \"Contracts\":2759:2766  referee */\n      dup4\n        /* \"Contracts\":2750:2767  referees[referee] */\n      0xffffffffffffffffffffffffffffffffffffffff\n      and\n      0xffffffffffffffffffffffffffffffffffffffff\n      and\n      dup2\n      mstore\n      0x20\n      add\n      swap1\n      dup2\n      mstore\n      0x20\n      add\n      0x00\n      keccak256\n        /* \"Contracts\":2750:2793  referees[referee].approvalRequestsAddresses */\n      0x03\n      add\n        /* \"Contracts\":2743:2793  return referees[referee].approvalRequestsAddresses */\n      dup1\n      sload\n      dup1\n      0x20\n      mul\n      0x20\n      add\n      mload(0x40)\n      swap1\n      dup2\n      add\n      0x40\n      mstore\n      dup1\n      swap3\n      swap2\n      swap1\n      dup2\n      dup2\n      mstore\n      0x20\n      add\n      dup3\n      dup1\n      sload\n      dup1\n      iszero\n      tag_207\n      jumpi\n      0x20\n      mul\n      dup3\n      add\n      swap2\n      swap1\n      0x00\n      mstore\n      keccak256(0x00, 0x20)\n      swap1\n    tag_208:\n      dup2\n      0x00\n      swap1\n      sload\n      swap1\n      0x0100\n      exp\n      swap1\n      div\n      0xffffffffffffffffffffffffffffffffffffffff\n      and\n      0xffffffffffffffffffffffffffffffffffffffff\n      and\n      dup2\n      mstore\n      0x20\n      add\n      swap1\n      0x01\n      add\n      swap1\n      dup1\n      dup4\n      gt\n      tag_208\n      jumpi\n    tag_207:\n      pop\n      pop\n      pop\n      pop\n      pop\n      swap1\n      pop\n        /* \"Contracts\":2617:2800  function getCompleteAccountabilityContractRequestsForReferee(address referee) public view returns (address[] memory){... */\n      swap2\n      swap1\n      pop\n      jump\t// out\n        /* \"Contracts\":141:171  address[] public userAddresses */\n    tag_74:\n      0x01\n      dup2\n      dup2\n      sload\n      dup2\n      lt\n      tag_209\n      jumpi\n      0x00\n      dup1\n      revert\n    tag_209:\n      swap1\n      0x00\n      mstore\n      keccak256(0x00, 0x20)\n      add\n      0x00\n      swap2\n      pop\n      sload\n      swap1\n      0x0100\n      exp\n      swap1\n      div\n      0xffffffffffffffffffffffffffffffffffffffff\n      and\n      dup2\n      jump\t// out\n        /* \"Contracts\":2806:3225  function failOpenAccountabilityContract(address contractAddress) public {... */\n    tag_79:\n        /* \"Contracts\":2886:2931  AccountabilityContract accountabilityContract */\n      0x00\n        /* \"Contracts\":2957:2972  contractAddress */\n      dup2\n        /* \"Contracts\":2886:2973  AccountabilityContract accountabilityContract = AccountabilityContract(contractAddress) */\n      swap1\n      pop\n        /* \"Contracts\":2981:3003  accountabilityContract */\n      dup1\n        /* \"Contracts\":2981:3016  accountabilityContract.failContract */\n      0xffffffffffffffffffffffffffffffffffffffff\n      and\n      0x2d398fa6\n        /* \"Contracts\":2981:3018  accountabilityContract.failContract() */\n      mload(0x40)\n      dup2\n      0xffffffff\n      and\n      0xe0\n      shl\n      dup2\n      mstore\n      0x04\n      add\n      0x20\n      mload(0x40)\n      dup1\n      dup4\n      sub\n      dup2\n      0x00\n      dup8\n      gas\n      call\n      iszero\n      dup1\n      iszero\n      tag_213\n      jumpi\n      returndatasize\n      0x00\n      dup1\n      returndatacopy\n      revert(0x00, returndatasize)\n    tag_213:\n      pop\n      pop\n      pop\n      pop\n      mload(0x40)\n      returndatasize\n      not(0x1f)\n      0x1f\n      dup3\n      add\n      and\n      dup3\n      add\n      dup1\n      0x40\n      mstore\n      pop\n      dup2\n      add\n      swap1\n      tag_214\n      swap2\n      swap1\n      tag_155\n      jump\t// in\n    tag_214:\n      pop\n        /* \"Contracts\":3026:3116  moveOpenContractToClosedContractsForUser(accountabilityContract.creator(),contractAddress) */\n      tag_215\n        /* \"Contracts\":3067:3089  accountabilityContract */\n      dup2\n        /* \"Contracts\":3067:3097  accountabilityContract.creator */\n      0xffffffffffffffffffffffffffffffffffffffff\n      and\n      0x02d05d3f\n        /* \"Contracts\":3067:3099  accountabilityContract.creator() */\n      mload(0x40)\n      dup2\n      0xffffffff\n      and\n      0xe0\n      shl\n      dup2\n      mstore\n      0x04\n      add\n      0x20\n      mload(0x40)\n      dup1\n      dup4\n      sub\n      dup2\n      dup7\n      gas\n      staticcall\n      iszero\n      dup1\n      iszero\n      tag_217\n      jumpi\n      returndatasize\n      0x00\n      dup1\n      returndatacopy\n      revert(0x00, returndatasize)\n    tag_217:\n      pop\n      pop\n      pop\n      pop\n      mload(0x40)\n      returndatasize\n      not(0x1f)\n      0x1f\n      dup3\n      add\n      and\n      dup3\n      add\n      dup1\n      0x40\n      mstore\n      pop\n      dup2\n      add\n      swap1\n      tag_218\n      swap2\n      swap1\n      tag_138\n      jump\t// in\n    tag_218:\n        /* \"Contracts\":3100:3115  contractAddress */\n      dup4\n        /* \"Contracts\":3026:3066  moveOpenContractToClosedContractsForUser */\n      tag_163\n        /* \"Contracts\":3026:3116  moveOpenContractToClosedContractsForUser(accountabilityContract.creator(),contractAddress) */\n      jump\t// in\n    tag_215:\n        /* \"Contracts\":3124:3218  moveOpenContractToClosedContractsForReferee(accountabilityContract.referee(), contractAddress) */\n      tag_219\n        /* \"Contracts\":3168:3190  accountabilityContract */\n      dup2\n        /* \"Contracts\":3168:3198  accountabilityContract.referee */\n      0xffffffffffffffffffffffffffffffffffffffff\n      and\n      0x3b1bebd1\n        /* \"Contracts\":3168:3200  accountabilityContract.referee() */\n      mload(0x40)\n      dup2\n      0xffffffff\n      and\n      0xe0\n      shl\n      dup2\n      mstore\n      0x04\n      add\n      0x20\n      mload(0x40)\n      dup1\n      dup4\n      sub\n      dup2\n      dup7\n      gas\n      staticcall\n      iszero\n      dup1\n      iszero\n      tag_221\n      jumpi\n      returndatasize\n      0x00\n      dup1\n      returndatacopy\n      revert(0x00, returndatasize)\n    tag_221:\n      pop\n      pop\n      pop\n      pop\n      mload(0x40)\n      returndatasize\n      not(0x1f)\n      0x1f\n      dup3\n      add\n      and\n      dup3\n      add\n      dup1\n      0x40\n      mstore\n      pop\n      dup2\n      add\n      swap1\n      tag_222\n      swap2\n      swap1\n      tag_138\n      jump\t// in\n    tag_222:\n        /* \"Contracts\":3202:3217  contractAddress */\n      dup4\n        /* \"Contracts\":3124:3167  moveOpenContractToClosedContractsForReferee */\n      tag_171\n        /* \"Contracts\":3124:3218  moveOpenContractToClosedContractsForReferee(accountabilityContract.referee(), contractAddress) */\n      jump\t// in\n    tag_219:\n        /* \"Contracts\":2878:3225  {... */\n      pop\n        /* \"Contracts\":2806:3225  function failOpenAccountabilityContract(address contractAddress) public {... */\n      pop\n      jump\t// out\n        /* \"Contracts\":3231:3659  function completeOpenAccountabilityContract(address contractAddress) public {... */\n    tag_83:\n        /* \"Contracts\":3315:3360  AccountabilityContract accountabilityContract */\n      0x00\n        /* \"Contracts\":3386:3401  contractAddress */\n      dup2\n        /* \"Contracts\":3315:3402  AccountabilityContract accountabilityContract = AccountabilityContract(contractAddress) */\n      swap1\n      pop\n        /* \"Contracts\":3410:3432  accountabilityContract */\n      dup1\n        /* \"Contracts\":3410:3449  accountabilityContract.completeContract */\n      0xffffffffffffffffffffffffffffffffffffffff\n      and\n      0xb4fedc11\n        /* \"Contracts\":3410:3451  accountabilityContract.completeContract() */\n      mload(0x40)\n      dup2\n      0xffffffff\n      and\n      0xe0\n      shl\n      dup2\n      mstore\n      0x04\n      add\n      0x20\n      mload(0x40)\n      dup1\n      dup4\n      sub\n      dup2\n      0x00\n      dup8\n      gas\n      call\n      iszero\n      dup1\n      iszero\n      tag_225\n      jumpi\n      returndatasize\n      0x00\n      dup1\n      returndatacopy\n      revert(0x00, returndatasize)\n    tag_225:\n      pop\n      pop\n      pop\n      pop\n      mload(0x40)\n      returndatasize\n      not(0x1f)\n      0x1f\n      dup3\n      add\n      and\n      dup3\n      add\n      dup1\n      0x40\n      mstore\n      pop\n      dup2\n      add\n      swap1\n      tag_226\n      swap2\n      swap1\n      tag_155\n      jump\t// in\n    tag_226:\n      pop\n        /* \"Contracts\":3459:3550  moveOpenContractToClosedContractsForUser(accountabilityContract.creator(), contractAddress) */\n      tag_227\n        /* \"Contracts\":3500:3522  accountabilityContract */\n      dup2\n        /* \"Contracts\":3500:3530  accountabilityContract.creator */\n      0xffffffffffffffffffffffffffffffffffffffff\n      and\n      0x02d05d3f\n        /* \"Contracts\":3500:3532  accountabilityContract.creator() */\n      mload(0x40)\n      dup2\n      0xffffffff\n      and\n      0xe0\n      shl\n      dup2\n      mstore\n      0x04\n      add\n      0x20\n      mload(0x40)\n      dup1\n      dup4\n      sub\n      dup2\n      dup7\n      gas\n      staticcall\n      iszero\n      dup1\n      iszero\n      tag_229\n      jumpi\n      returndatasize\n      0x00\n      dup1\n      returndatacopy\n      revert(0x00, returndatasize)\n    tag_229:\n      pop\n      pop\n      pop\n      pop\n      mload(0x40)\n      returndatasize\n      not(0x1f)\n      0x1f\n      dup3\n      add\n      and\n      dup3\n      add\n      dup1\n      0x40\n      mstore\n      pop\n      dup2\n      add\n      swap1\n      tag_230\n      swap2\n      swap1\n      tag_138\n      jump\t// in\n    tag_230:\n        /* \"Contracts\":3534:3549  contractAddress */\n      dup4\n        /* \"Contracts\":3459:3499  moveOpenContractToClosedContractsForUser */\n      tag_163\n        /* \"Contracts\":3459:3550  moveOpenContractToClosedContractsForUser(accountabilityContract.creator(), contractAddress) */\n      jump\t// in\n    tag_227:\n        /* \"Contracts\":3558:3652  moveOpenContractToClosedContractsForReferee(accountabilityContract.referee(), contractAddress) */\n      tag_231\n        /* \"Contracts\":3602:3624  accountabilityContract */\n      dup2\n        /* \"Contracts\":3602:3632  accountabilityContract.referee */\n      0xffffffffffffffffffffffffffffffffffffffff\n      and\n      0x3b1bebd1\n        /* \"Contracts\":3602:3634  accountabilityContract.referee() */\n      mload(0x40)\n      dup2\n      0xffffffff\n      and\n      0xe0\n      shl\n      dup2\n      mstore\n      0x04\n      add\n      0x20\n      mload(0x40)\n      dup1\n      dup4\n      sub\n      dup2\n      dup7\n      gas\n      staticcall\n      iszero\n      dup1\n      iszero\n      tag_233\n      jumpi\n      returndatasize\n      0x00\n      dup1\n      returndatacopy\n      revert(0x00, returndatasize)\n    tag_233:\n      pop\n      pop\n      pop\n      pop\n      mload(0x40)\n      returndatasize\n      not(0x1f)\n      0x1f\n      dup3\n      add\n      and\n      dup3\n      add\n      dup1\n      0x40\n      mstore\n      pop\n      dup2\n      add\n      swap1\n      tag_234\n      swap2\n      swap1\n      tag_138\n      jump\t// in\n    tag_234:\n        /* \"Contracts\":3636:3651  contractAddress */\n      dup4\n        /* \"Contracts\":3558:3601  moveOpenContractToClosedContractsForReferee */\n      tag_171\n        /* \"Contracts\":3558:3652  moveOpenContractToClosedContractsForReferee(accountabilityContract.referee(), contractAddress) */\n      jump\t// in\n    tag_231:\n        /* \"Contracts\":3307:3659  {... */\n      pop\n        /* \"Contracts\":3231:3659  function completeOpenAccountabilityContract(address contractAddress) public {... */\n      pop\n      jump\t// out\n        /* \"Contracts\":338:381  mapping(address => Referee) public referees */\n    tag_87:\n      mstore(0x20, 0x06)\n      dup1\n      0x00\n      mstore\n      keccak256(0x00, 0x40)\n      0x00\n      swap2\n      pop\n      swap1\n      pop\n      dup1\n      0x00\n      add\n      sload\n      swap1\n      pop\n      dup2\n      jump\t// out\n        /* \"Contracts\":175:200  uint public numberOfUsers */\n    tag_91:\n      sload(0x02)\n      dup2\n      jump\t// out\n        /* \"Contracts\":2221:2411  function getOpenAccountabilityContractAddressesForReferee(address referee) public view returns (address[] memory){... */\n    tag_96:\n        /* \"Contracts\":2317:2333  address[] memory */\n      0x60\n        /* \"Contracts\":2351:2359  referees */\n      0x06\n        /* \"Contracts\":2351:2368  referees[referee] */\n      0x00\n        /* \"Contracts\":2360:2367  referee */\n      dup4\n        /* \"Contracts\":2351:2368  referees[referee] */\n      0xffffffffffffffffffffffffffffffffffffffff\n      and\n      0xffffffffffffffffffffffffffffffffffffffff\n      and\n      dup2\n      mstore\n      0x20\n      add\n      swap1\n      dup2\n      mstore\n      0x20\n      add\n      0x00\n      keccak256\n        /* \"Contracts\":2351:2404  referees[referee].openAccountabilityContractAddresses */\n      0x01\n      add\n        /* \"Contracts\":2344:2404  return referees[referee].openAccountabilityContractAddresses */\n      dup1\n      sload\n      dup1\n      0x20\n      mul\n      0x20\n      add\n      mload(0x40)\n      swap1\n      dup2\n      add\n      0x40\n      mstore\n      dup1\n      swap3\n      swap2\n      swap1\n      dup2\n      dup2\n      mstore\n      0x20\n      add\n      dup3\n      dup1\n      sload\n      dup1\n      iszero\n      tag_236\n      jumpi\n      0x20\n      mul\n      dup3\n      add\n      swap2\n      swap1\n      0x00\n      mstore\n      keccak256(0x00, 0x20)\n      swap1\n    tag_237:\n      dup2\n      0x00\n      swap1\n      sload\n      swap1\n      0x0100\n      exp\n      swap1\n      div\n      0xffffffffffffffffffffffffffffffffffffffff\n      and\n      0xffffffffffffffffffffffffffffffffffffffff\n      and\n      dup2\n      mstore\n      0x20\n      add\n      swap1\n      0x01\n      add\n      swap1\n      dup1\n      dup4\n      gt\n      tag_237\n      jumpi\n    tag_236:\n      pop\n      pop\n      pop\n      pop\n      pop\n      swap1\n      pop\n        /* \"Contracts\":2221:2411  function getOpenAccountabilityContractAddressesForReferee(address referee) public view returns (address[] memory){... */\n      swap2\n      swap1\n      pop\n      jump\t// out\n        /* \"Contracts\":100:137  mapping(address => User) public users */\n    tag_101:\n      mstore(0x20, 0x00)\n      dup1\n      0x00\n      mstore\n      keccak256(0x00, 0x40)\n      0x00\n      swap2\n      pop\n      swap1\n      pop\n      dup1\n      0x00\n      add\n      sload\n      swap1\n      pop\n      dup2\n      jump\t// out\n        /* \"Contracts\":7726:8221  function getUserAddresses(uint startIndex, uint endIndex) public view returns (address[] memory) {... */\n    tag_106:\n        /* \"Contracts\":7805:7821  address[] memory */\n      0x60\n        /* \"Contracts\":7854:7855  0 */\n      0x00\n        /* \"Contracts\":7840:7850  startIndex */\n      dup4\n        /* \"Contracts\":7840:7855  startIndex >= 0 */\n      lt\n      iszero\n        /* \"Contracts\":7832:7890  require(startIndex >= 0, \"Start index cannot be negative\") */\n      tag_239\n      jumpi\n      mload(0x40)\n      0x08c379a000000000000000000000000000000000000000000000000000000000\n      dup2\n      mstore\n      0x04\n      add\n      tag_240\n      swap1\n      tag_175\n      jump\t// in\n    tag_240:\n      mload(0x40)\n      dup1\n      swap2\n      sub\n      swap1\n      revert\n    tag_239:\n        /* \"Contracts\":7919:7932  userAddresses */\n      0x01\n        /* \"Contracts\":7919:7939  userAddresses.length */\n      dup1\n      sload\n      swap1\n      pop\n        /* \"Contracts\":7907:7915  endIndex */\n      dup3\n        /* \"Contracts\":7907:7939  endIndex <= userAddresses.length */\n      gt\n      iszero\n        /* \"Contracts\":7899:7983  require(endIndex <= userAddresses.length, \"End index exceeds user addresses length\") */\n      tag_241\n      jumpi\n      mload(0x40)\n      0x08c379a000000000000000000000000000000000000000000000000000000000\n      dup2\n      mstore\n      0x04\n      add\n      tag_242\n      swap1\n      tag_178\n      jump\t// in\n    tag_242:\n      mload(0x40)\n      dup1\n      swap2\n      sub\n      swap1\n      revert\n    tag_241:\n        /* \"Contracts\":7992:8028  address[] memory slicedUserAddresses */\n      0x00\n        /* \"Contracts\":8054:8064  startIndex */\n      dup4\n        /* \"Contracts\":8045:8053  endIndex */\n      dup4\n        /* \"Contracts\":8045:8064  endIndex-startIndex */\n      tag_243\n      swap2\n      swap1\n      tag_180\n      jump\t// in\n    tag_243:\n        /* \"Contracts\":8031:8065  new address[](endIndex-startIndex) */\n      0xffffffffffffffff\n      dup2\n      gt\n      iszero\n      tag_244\n      jumpi\n      tag_245\n      tag_183\n      jump\t// in\n    tag_245:\n    tag_244:\n      mload(0x40)\n      swap1\n      dup1\n      dup3\n      mstore\n      dup1\n      0x20\n      mul\n      0x20\n      add\n      dup3\n      add\n      0x40\n      mstore\n      dup1\n      iszero\n      tag_246\n      jumpi\n      dup2\n      0x20\n      add\n      0x20\n      dup3\n      mul\n      dup1\n      calldatasize\n      dup4\n      calldatacopy\n      dup1\n      dup3\n      add\n      swap2\n      pop\n      pop\n      swap1\n      pop\n    tag_246:\n      pop\n        /* \"Contracts\":7992:8065  address[] memory slicedUserAddresses = new address[](endIndex-startIndex) */\n      swap1\n      pop\n        /* \"Contracts\":8078:8084  uint i */\n      0x00\n        /* \"Contracts\":8085:8095  startIndex */\n      dup5\n        /* \"Contracts\":8078:8095  uint i=startIndex */\n      swap1\n      pop\n        /* \"Contracts\":8074:8179  for(uint i=startIndex; i<endIndex; i++){... */\n    tag_247:\n        /* \"Contracts\":8099:8107  endIndex */\n      dup4\n        /* \"Contracts\":8097:8098  i */\n      dup2\n        /* \"Contracts\":8097:8107  i<endIndex */\n      lt\n        /* \"Contracts\":8074:8179  for(uint i=startIndex; i<endIndex; i++){... */\n      iszero\n      tag_248\n      jumpi\n        /* \"Contracts\":8152:8165  userAddresses */\n      0x01\n        /* \"Contracts\":8166:8167  i */\n      dup2\n        /* \"Contracts\":8152:8168  userAddresses[i] */\n      dup2\n      sload\n      dup2\n      lt\n      tag_250\n      jumpi\n      tag_251\n      tag_190\n      jump\t// in\n    tag_251:\n    tag_250:\n      swap1\n      0x00\n      mstore\n      keccak256(0x00, 0x20)\n      add\n      0x00\n      swap1\n      sload\n      swap1\n      0x0100\n      exp\n      swap1\n      div\n      0xffffffffffffffffffffffffffffffffffffffff\n      and\n        /* \"Contracts\":8127:8146  slicedUserAddresses */\n      dup3\n        /* \"Contracts\":8147:8148  i */\n      dup3\n        /* \"Contracts\":8127:8149  slicedUserAddresses[i] */\n      dup2\n      mload\n      dup2\n      lt\n      tag_253\n      jumpi\n      tag_254\n      tag_190\n      jump\t// in\n    tag_254:\n    tag_253:\n      0x20\n      mul\n      0x20\n      add\n      add\n        /* \"Contracts\":8127:8168  slicedUserAddresses[i] = userAddresses[i] */\n      swap1\n      0xffffffffffffffffffffffffffffffffffffffff\n      and\n      swap1\n      dup2\n      0xffffffffffffffffffffffffffffffffffffffff\n      and\n      dup2\n      mstore\n      pop\n      pop\n        /* \"Contracts\":8109:8112  i++ */\n      dup1\n      dup1\n      tag_255\n      swap1\n      tag_195\n      jump\t// in\n    tag_255:\n      swap2\n      pop\n      pop\n        /* \"Contracts\":8074:8179  for(uint i=startIndex; i<endIndex; i++){... */\n      jump(tag_247)\n    tag_248:\n      pop\n        /* \"Contracts\":8195:8214  slicedUserAddresses */\n      dup1\n        /* \"Contracts\":8188:8214  return slicedUserAddresses */\n      swap2\n      pop\n      pop\n        /* \"Contracts\":7726:8221  function getUserAddresses(uint startIndex, uint endIndex) public view returns (address[] memory) {... */\n      swap3\n      swap2\n      pop\n      pop\n      jump\t// out\n        /* \"Contracts\":2033:2215  function getClosedAccountabilityContractAddressesForUser(address user) public view returns (address[] memory){... */\n    tag_111:\n        /* \"Contracts\":2125:2141  address[] memory */\n      0x60\n        /* \"Contracts\":2159:2164  users */\n      0x00\n        /* \"Contracts\":2159:2170  users[user] */\n      dup1\n        /* \"Contracts\":2165:2169  user */\n      dup4\n        /* \"Contracts\":2159:2170  users[user] */\n      0xffffffffffffffffffffffffffffffffffffffff\n      and\n      0xffffffffffffffffffffffffffffffffffffffff\n      and\n      dup2\n      mstore\n      0x20\n      add\n      swap1\n      dup2\n      mstore\n      0x20\n      add\n      0x00\n      keccak256\n        /* \"Contracts\":2159:2208  users[user].closedAccountabilityContractAddresses */\n      0x02\n      add\n        /* \"Contracts\":2152:2208  return users[user].closedAccountabilityContractAddresses */\n      dup1\n      sload\n      dup1\n      0x20\n      mul\n      0x20\n      add\n      mload(0x40)\n      swap1\n      dup2\n      add\n      0x40\n      mstore\n      dup1\n      swap3\n      swap2\n      swap1\n      dup2\n      dup2\n      mstore\n      0x20\n      add\n      dup3\n      dup1\n      sload\n      dup1\n      iszero\n      tag_257\n      jumpi\n      0x20\n      mul\n      dup3\n      add\n      swap2\n      swap1\n      0x00\n      mstore\n      keccak256(0x00, 0x20)\n      swap1\n    tag_258:\n      dup2\n      0x00\n      swap1\n      sload\n      swap1\n      0x0100\n      exp\n      swap1\n      div\n      0xffffffffffffffffffffffffffffffffffffffff\n      and\n      0xffffffffffffffffffffffffffffffffffffffff\n      and\n      dup2\n      mstore\n      0x20\n      add\n      swap1\n      0x01\n      add\n      swap1\n      dup1\n      dup4\n      gt\n      tag_258\n      jumpi\n    tag_257:\n      pop\n      pop\n      pop\n      pop\n      pop\n      swap1\n      pop\n        /* \"Contracts\":2033:2215  function getClosedAccountabilityContractAddressesForUser(address user) public view returns (address[] memory){... */\n      swap2\n      swap1\n      pop\n      jump\t// out\n        /* \"Contracts\":385:413  uint public numberOfReferees */\n    tag_115:\n      sload(0x07)\n      dup2\n      jump\t// out\n        /* \"Contracts\":5160:5447  function rejectRequest(address completionRequestContractAddress, string memory response) public {... */\n    tag_121:\n        /* \"Contracts\":5266:5319  AccountabilityContractApprovalRequest approvalRequest */\n      0x00\n        /* \"Contracts\":5360:5392  completionRequestContractAddress */\n      dup3\n        /* \"Contracts\":5266:5393  AccountabilityContractApprovalRequest approvalRequest = AccountabilityContractApprovalRequest(completionRequestContractAddress) */\n      swap1\n      pop\n        /* \"Contracts\":5403:5418  approvalRequest */\n      dup1\n        /* \"Contracts\":5403:5430  approvalRequest.denyRequest */\n      0xffffffffffffffffffffffffffffffffffffffff\n      and\n      0xd2daa825\n        /* \"Contracts\":5431:5439  response */\n      dup4\n        /* \"Contracts\":5403:5440  approvalRequest.denyRequest(response) */\n      mload(0x40)\n      dup3\n      0xffffffff\n      and\n      0xe0\n      shl\n      dup2\n      mstore\n      0x04\n      add\n      tag_260\n      swap2\n      swap1\n      tag_261\n      jump\t// in\n    tag_260:\n      0x20\n      mload(0x40)\n      dup1\n      dup4\n      sub\n      dup2\n      0x00\n      dup8\n      gas\n      call\n      iszero\n      dup1\n      iszero\n      tag_263\n      jumpi\n      returndatasize\n      0x00\n      dup1\n      returndatacopy\n      revert(0x00, returndatasize)\n    tag_263:\n      pop\n      pop\n      pop\n      pop\n      mload(0x40)\n      returndatasize\n      not(0x1f)\n      0x1f\n      dup3\n      add\n      and\n      dup3\n      add\n      dup1\n      0x40\n      mstore\n      pop\n      dup2\n      add\n      swap1\n      tag_264\n      swap2\n      swap1\n      tag_151\n      jump\t// in\n    tag_264:\n      pop\n        /* \"Contracts\":5256:5447  {... */\n      pop\n        /* \"Contracts\":5160:5447  function rejectRequest(address completionRequestContractAddress, string memory response) public {... */\n      pop\n      pop\n      jump\t// out\n        /* \"Contracts\":303:334  uint public totalEthInContracts */\n    tag_124:\n      sload(0x05)\n      dup2\n      jump\t// out\n        /* \"Contracts\":3665:4300  function requestApproval(address contractAddress) public {... */\n    tag_129:\n        /* \"Contracts\":3732:3777  AccountabilityContract accountabilityContract */\n      0x00\n        /* \"Contracts\":3803:3818  contractAddress */\n      dup2\n        /* \"Contracts\":3732:3819  AccountabilityContract accountabilityContract = AccountabilityContract(contractAddress) */\n      swap1\n      pop\n        /* \"Contracts\":3872:3906  AccountabilityContract.Status.OPEN */\n      0x00\n        /* \"Contracts\":3837:3906  accountabilityContract.status() == AccountabilityContract.Status.OPEN */\n      0x02\n      dup2\n      gt\n      iszero\n      tag_266\n      jumpi\n      tag_267\n      tag_268\n      jump\t// in\n    tag_267:\n    tag_266:\n        /* \"Contracts\":3837:3859  accountabilityContract */\n      dup2\n        /* \"Contracts\":3837:3866  accountabilityContract.status */\n      0xffffffffffffffffffffffffffffffffffffffff\n      and\n      0x200d2ed2\n        /* \"Contracts\":3837:3868  accountabilityContract.status() */\n      mload(0x40)\n      dup2\n      0xffffffff\n      and\n      0xe0\n      shl\n      dup2\n      mstore\n      0x04\n      add\n      0x20\n      mload(0x40)\n      dup1\n      dup4\n      sub\n      dup2\n      dup7\n      gas\n      staticcall\n      iszero\n      dup1\n      iszero\n      tag_270\n      jumpi\n      returndatasize\n      0x00\n      dup1\n      returndatacopy\n      revert(0x00, returndatasize)\n    tag_270:\n      pop\n      pop\n      pop\n      pop\n      mload(0x40)\n      returndatasize\n      not(0x1f)\n      0x1f\n      dup3\n      add\n      and\n      dup3\n      add\n      dup1\n      0x40\n      mstore\n      pop\n      dup2\n      add\n      swap1\n      tag_271\n      swap2\n      swap1\n      tag_272\n      jump\t// in\n    tag_271:\n        /* \"Contracts\":3837:3906  accountabilityContract.status() == AccountabilityContract.Status.OPEN */\n      0x02\n      dup2\n      gt\n      iszero\n      tag_273\n      jumpi\n      tag_274\n      tag_268\n      jump\t// in\n    tag_274:\n    tag_273:\n      eq\n        /* \"Contracts\":3829:3939  require(accountabilityContract.status() == AccountabilityContract.Status.OPEN, \"Contract status must be open\") */\n      tag_275\n      jumpi\n      mload(0x40)\n      0x08c379a000000000000000000000000000000000000000000000000000000000\n      dup2\n      mstore\n      0x04\n      add\n      tag_276\n      swap1\n      tag_277\n      jump\t// in\n    tag_276:\n      mload(0x40)\n      dup1\n      swap2\n      sub\n      swap1\n      revert\n    tag_275:\n        /* \"Contracts\":3970:3992  accountabilityContract */\n      dup1\n        /* \"Contracts\":3970:4000  accountabilityContract.creator */\n      0xffffffffffffffffffffffffffffffffffffffff\n      and\n      0x02d05d3f\n        /* \"Contracts\":3970:4002  accountabilityContract.creator() */\n      mload(0x40)\n      dup2\n      0xffffffff\n      and\n      0xe0\n      shl\n      dup2\n      mstore\n      0x04\n      add\n      0x20\n      mload(0x40)\n      dup1\n      dup4\n      sub\n      dup2\n      dup7\n      gas\n      staticcall\n      iszero\n      dup1\n      iszero\n      tag_279\n      jumpi\n      returndatasize\n      0x00\n      dup1\n      returndatacopy\n      revert(0x00, returndatasize)\n    tag_279:\n      pop\n      pop\n      pop\n      pop\n      mload(0x40)\n      returndatasize\n      not(0x1f)\n      0x1f\n      dup3\n      add\n      and\n      dup3\n      add\n      dup1\n      0x40\n      mstore\n      pop\n      dup2\n      add\n      swap1\n      tag_280\n      swap2\n      swap1\n      tag_138\n      jump\t// in\n    tag_280:\n        /* \"Contracts\":3957:4002  tx.origin == accountabilityContract.creator() */\n      0xffffffffffffffffffffffffffffffffffffffff\n      and\n        /* \"Contracts\":3957:3966  tx.origin */\n      origin\n        /* \"Contracts\":3957:4002  tx.origin == accountabilityContract.creator() */\n      0xffffffffffffffffffffffffffffffffffffffff\n      and\n      eq\n        /* \"Contracts\":3949:4054  require(tx.origin == accountabilityContract.creator(), \"Only creator of contract can request completion\") */\n      tag_281\n      jumpi\n      mload(0x40)\n      0x08c379a000000000000000000000000000000000000000000000000000000000\n      dup2\n      mstore\n      0x04\n      add\n      tag_282\n      swap1\n      tag_283\n      jump\t// in\n    tag_282:\n      mload(0x40)\n      dup1\n      swap2\n      sub\n      swap1\n      revert\n    tag_281:\n        /* \"Contracts\":4064:4120  AccountabilityContractApprovalRequest newApprovalRequest */\n      0x00\n        /* \"Contracts\":4165:4180  contractAddress */\n      dup3\n        /* \"Contracts\":4123:4181  new AccountabilityContractApprovalRequest(contractAddress) */\n      mload(0x40)\n      tag_284\n      swap1\n      tag_285\n      jump\t// in\n    tag_284:\n      tag_286\n      swap2\n      swap1\n      tag_50\n      jump\t// in\n    tag_286:\n      mload(0x40)\n      dup1\n      swap2\n      sub\n      swap1\n      0x00\n      create\n      dup1\n      iszero\n      dup1\n      iszero\n      tag_287\n      jumpi\n      returndatasize\n      0x00\n      dup1\n      returndatacopy\n      revert(0x00, returndatasize)\n    tag_287:\n      pop\n        /* \"Contracts\":4064:4181  AccountabilityContractApprovalRequest newApprovalRequest = new AccountabilityContractApprovalRequest(contractAddress) */\n      swap1\n      pop\n        /* \"Contracts\":4191:4199  referees */\n      0x06\n        /* \"Contracts\":4191:4233  referees[accountabilityContract.referee()] */\n      0x00\n        /* \"Contracts\":4200:4222  accountabilityContract */\n      dup4\n        /* \"Contracts\":4200:4230  accountabilityContract.referee */\n      0xffffffffffffffffffffffffffffffffffffffff\n      and\n      0x3b1bebd1\n        /* \"Contracts\":4200:4232  accountabilityContract.referee() */\n      mload(0x40)\n      dup2\n      0xffffffff\n      and\n      0xe0\n      shl\n      dup2\n      mstore\n      0x04\n      add\n      0x20\n      mload(0x40)\n      dup1\n      dup4\n      sub\n      dup2\n      dup7\n      gas\n      staticcall\n      iszero\n      dup1\n      iszero\n      tag_289\n      jumpi\n      returndatasize\n      0x00\n      dup1\n      returndatacopy\n      revert(0x00, returndatasize)\n    tag_289:\n      pop\n      pop\n      pop\n      pop\n      mload(0x40)\n      returndatasize\n      not(0x1f)\n      0x1f\n      dup3\n      add\n      and\n      dup3\n      add\n      dup1\n      0x40\n      mstore\n      pop\n      dup2\n      add\n      swap1\n      tag_290\n      swap2\n      swap1\n      tag_138\n      jump\t// in\n    tag_290:\n        /* \"Contracts\":4191:4233  referees[accountabilityContract.referee()] */\n      0xffffffffffffffffffffffffffffffffffffffff\n      and\n      0xffffffffffffffffffffffffffffffffffffffff\n      and\n      dup2\n      mstore\n      0x20\n      add\n      swap1\n      dup2\n      mstore\n      0x20\n      add\n      0x00\n      keccak256\n        /* \"Contracts\":4191:4259  referees[accountabilityContract.referee()].approvalRequestsAddresses */\n      0x03\n      add\n        /* \"Contracts\":4273:4291  newApprovalRequest */\n      dup2\n        /* \"Contracts\":4191:4293  referees[accountabilityContract.referee()].approvalRequestsAddresses.push(address(newApprovalRequest)) */\n      swap1\n      dup1\n      0x01\n      dup2\n      sload\n      add\n      dup1\n      dup3\n      sstore\n      dup1\n      swap2\n      pop\n      pop\n      0x01\n      swap1\n      sub\n      swap1\n      0x00\n      mstore\n      keccak256(0x00, 0x20)\n      add\n      0x00\n      swap1\n      swap2\n      swap1\n      swap2\n      swap1\n      swap2\n      0x0100\n      exp\n      dup2\n      sload\n      dup2\n      0xffffffffffffffffffffffffffffffffffffffff\n      mul\n      not\n      and\n      swap1\n      dup4\n      0xffffffffffffffffffffffffffffffffffffffff\n      and\n      mul\n      or\n      swap1\n      sstore\n      pop\n        /* \"Contracts\":3722:4300  {... */\n      pop\n      pop\n        /* \"Contracts\":3665:4300  function requestApproval(address contractAddress) public {... */\n      pop\n      jump\t// out\n        /* \"Contracts\":813:1843  function createAccountabilityContract(address _referee, string memory _name, string memory _description, address payable _failureRecipient) public payable {... */\n    tag_133:\n        /* \"Contracts\":1019:1020  0 */\n      0x00\n        /* \"Contracts\":981:986  users */\n      dup1\n        /* \"Contracts\":981:998  users[msg.sender] */\n      0x00\n        /* \"Contracts\":987:997  msg.sender */\n      caller\n        /* \"Contracts\":981:998  users[msg.sender] */\n      0xffffffffffffffffffffffffffffffffffffffff\n      and\n      0xffffffffffffffffffffffffffffffffffffffff\n      and\n      dup2\n      mstore\n      0x20\n      add\n      swap1\n      dup2\n      mstore\n      0x20\n      add\n      0x00\n      keccak256\n        /* \"Contracts\":981:1015  users[msg.sender].createdContracts */\n      0x00\n      add\n      sload\n        /* \"Contracts\":981:1020  users[msg.sender].createdContracts == 0 */\n      eq\n        /* \"Contracts\":978:1105  if(users[msg.sender].createdContracts == 0){... */\n      iszero\n      tag_293\n      jumpi\n        /* \"Contracts\":1035:1048  numberOfUsers */\n      0x02\n      0x00\n        /* \"Contracts\":1035:1050  numberOfUsers++ */\n      dup2\n      sload\n      dup1\n      swap3\n      swap2\n      swap1\n      tag_294\n      swap1\n      tag_195\n      jump\t// in\n    tag_294:\n      swap2\n      swap1\n      pop\n      sstore\n      pop\n        /* \"Contracts\":1064:1077  userAddresses */\n      0x01\n        /* \"Contracts\":1083:1093  msg.sender */\n      caller\n        /* \"Contracts\":1064:1094  userAddresses.push(msg.sender) */\n      swap1\n      dup1\n      0x01\n      dup2\n      sload\n      add\n      dup1\n      dup3\n      sstore\n      dup1\n      swap2\n      pop\n      pop\n      0x01\n      swap1\n      sub\n      swap1\n      0x00\n      mstore\n      keccak256(0x00, 0x20)\n      add\n      0x00\n      swap1\n      swap2\n      swap1\n      swap2\n      swap1\n      swap2\n      0x0100\n      exp\n      dup2\n      sload\n      dup2\n      0xffffffffffffffffffffffffffffffffffffffff\n      mul\n      not\n      and\n      swap1\n      dup4\n      0xffffffffffffffffffffffffffffffffffffffff\n      and\n      mul\n      or\n      swap1\n      sstore\n      pop\n        /* \"Contracts\":978:1105  if(users[msg.sender].createdContracts == 0){... */\n    tag_293:\n        /* \"Contracts\":1156:1157  0 */\n      0x00\n        /* \"Contracts\":1117:1125  referees */\n      0x06\n        /* \"Contracts\":1117:1135  referees[_referee] */\n      0x00\n        /* \"Contracts\":1126:1134  _referee */\n      dup7\n        /* \"Contracts\":1117:1135  referees[_referee] */\n      0xffffffffffffffffffffffffffffffffffffffff\n      and\n      0xffffffffffffffffffffffffffffffffffffffff\n      and\n      dup2\n      mstore\n      0x20\n      add\n      swap1\n      dup2\n      mstore\n      0x20\n      add\n      0x00\n      keccak256\n        /* \"Contracts\":1117:1152  referees[_referee].managedContracts */\n      0x00\n      add\n      sload\n        /* \"Contracts\":1117:1157  referees[_referee].managedContracts == 0 */\n      eq\n        /* \"Contracts\":1114:1246  if(referees[_referee].managedContracts == 0){... */\n      iszero\n      tag_296\n      jumpi\n        /* \"Contracts\":1172:1188  numberOfReferees */\n      0x07\n      0x00\n        /* \"Contracts\":1172:1190  numberOfReferees++ */\n      dup2\n      sload\n      dup1\n      swap3\n      swap2\n      swap1\n      tag_297\n      swap1\n      tag_195\n      jump\t// in\n    tag_297:\n      swap2\n      swap1\n      pop\n      sstore\n      pop\n        /* \"Contracts\":1204:1220  refereeAddresses */\n      0x08\n        /* \"Contracts\":1226:1234  _referee */\n      dup5\n        /* \"Contracts\":1204:1235  refereeAddresses.push(_referee) */\n      swap1\n      dup1\n      0x01\n      dup2\n      sload\n      add\n      dup1\n      dup3\n      sstore\n      dup1\n      swap2\n      pop\n      pop\n      0x01\n      swap1\n      sub\n      swap1\n      0x00\n      mstore\n      keccak256(0x00, 0x20)\n      add\n      0x00\n      swap1\n      swap2\n      swap1\n      swap2\n      swap1\n      swap2\n      0x0100\n      exp\n      dup2\n      sload\n      dup2\n      0xffffffffffffffffffffffffffffffffffffffff\n      mul\n      not\n      and\n      swap1\n      dup4\n      0xffffffffffffffffffffffffffffffffffffffff\n      and\n      mul\n      or\n      swap1\n      sstore\n      pop\n        /* \"Contracts\":1114:1246  if(referees[_referee].managedContracts == 0){... */\n    tag_296:\n        /* \"Contracts\":1255:1289  AccountabilityContract newContract */\n      0x00\n        /* \"Contracts\":1328:1337  msg.value */\n      callvalue\n        /* \"Contracts\":1339:1349  msg.sender */\n      caller\n        /* \"Contracts\":1351:1359  _referee */\n      dup7\n        /* \"Contracts\":1361:1366  _name */\n      dup7\n        /* \"Contracts\":1368:1380  _description */\n      dup7\n        /* \"Contracts\":1382:1399  _failureRecipient */\n      dup7\n        /* \"Contracts\":1401:1410  msg.value */\n      callvalue\n        /* \"Contracts\":1292:1411  (new AccountabilityContract){value: msg.value}(msg.sender, _referee, _name, _description, _failureRecipient, msg.value) */\n      mload(0x40)\n      tag_299\n      swap1\n      tag_300\n      jump\t// in\n    tag_299:\n      tag_301\n      swap7\n      swap6\n      swap5\n      swap4\n      swap3\n      swap2\n      swap1\n      tag_302\n      jump\t// in\n    tag_301:\n      mload(0x40)\n      dup1\n      swap2\n      sub\n      swap1\n      dup3\n      create\n      swap1\n      pop\n      dup1\n      iszero\n      dup1\n      iszero\n      tag_303\n      jumpi\n      returndatasize\n      0x00\n      dup1\n      returndatacopy\n      revert(0x00, returndatasize)\n    tag_303:\n      pop\n        /* \"Contracts\":1255:1411  AccountabilityContract newContract = (new AccountabilityContract){value: msg.value}(msg.sender, _referee, _name, _description, _failureRecipient, msg.value) */\n      swap1\n      pop\n        /* \"Contracts\":1421:1452  numberOfAccountabilityContracts */\n      0x04\n      0x00\n        /* \"Contracts\":1421:1454  numberOfAccountabilityContracts++ */\n      dup2\n      sload\n      dup1\n      swap3\n      swap2\n      swap1\n      tag_304\n      swap1\n      tag_195\n      jump\t// in\n    tag_304:\n      swap2\n      swap1\n      pop\n      sstore\n      pop\n        /* \"Contracts\":1464:1495  accountabilityContractAddresses */\n      0x03\n        /* \"Contracts\":1509:1520  newContract */\n      dup2\n        /* \"Contracts\":1464:1522  accountabilityContractAddresses.push(address(newContract)) */\n      swap1\n      dup1\n      0x01\n      dup2\n      sload\n      add\n      dup1\n      dup3\n      sstore\n      dup1\n      swap2\n      pop\n      pop\n      0x01\n      swap1\n      sub\n      swap1\n      0x00\n      mstore\n      keccak256(0x00, 0x20)\n      add\n      0x00\n      swap1\n      swap2\n      swap1\n      swap2\n      swap1\n      swap2\n      0x0100\n      exp\n      dup2\n      sload\n      dup2\n      0xffffffffffffffffffffffffffffffffffffffff\n      mul\n      not\n      and\n      swap1\n      dup4\n      0xffffffffffffffffffffffffffffffffffffffff\n      and\n      mul\n      or\n      swap1\n      sstore\n      pop\n        /* \"Contracts\":1553:1562  msg.value */\n      callvalue\n        /* \"Contracts\":1532:1551  totalEthInContracts */\n      0x05\n      0x00\n        /* \"Contracts\":1532:1562  totalEthInContracts+=msg.value */\n      dup3\n      dup3\n      sload\n      tag_306\n      swap2\n      swap1\n      tag_307\n      jump\t// in\n    tag_306:\n      swap3\n      pop\n      pop\n      dup2\n      swap1\n      sstore\n      pop\n        /* \"Contracts\":1572:1577  users */\n      0x00\n        /* \"Contracts\":1572:1589  users[msg.sender] */\n      dup1\n        /* \"Contracts\":1578:1588  msg.sender */\n      caller\n        /* \"Contracts\":1572:1589  users[msg.sender] */\n      0xffffffffffffffffffffffffffffffffffffffff\n      and\n      0xffffffffffffffffffffffffffffffffffffffff\n      and\n      dup2\n      mstore\n      0x20\n      add\n      swap1\n      dup2\n      mstore\n      0x20\n      add\n      0x00\n      keccak256\n        /* \"Contracts\":1572:1606  users[msg.sender].createdContracts */\n      0x00\n      add\n      0x00\n        /* \"Contracts\":1572:1608  users[msg.sender].createdContracts++ */\n      dup2\n      sload\n      dup1\n      swap3\n      swap2\n      swap1\n      tag_308\n      swap1\n      tag_195\n      jump\t// in\n    tag_308:\n      swap2\n      swap1\n      pop\n      sstore\n      pop\n        /* \"Contracts\":1618:1623  users */\n      0x00\n        /* \"Contracts\":1618:1635  users[msg.sender] */\n      dup1\n        /* \"Contracts\":1624:1634  msg.sender */\n      caller\n        /* \"Contracts\":1618:1635  users[msg.sender] */\n      0xffffffffffffffffffffffffffffffffffffffff\n      and\n      0xffffffffffffffffffffffffffffffffffffffff\n      and\n      dup2\n      mstore\n      0x20\n      add\n      swap1\n      dup2\n      mstore\n      0x20\n      add\n      0x00\n      keccak256\n        /* \"Contracts\":1618:1671  users[msg.sender].openAccountabilityContractAddresses */\n      0x01\n      add\n        /* \"Contracts\":1685:1696  newContract */\n      dup2\n        /* \"Contracts\":1618:1698  users[msg.sender].openAccountabilityContractAddresses.push(address(newContract)) */\n      swap1\n      dup1\n      0x01\n      dup2\n      sload\n      add\n      dup1\n      dup3\n      sstore\n      dup1\n      swap2\n      pop\n      pop\n      0x01\n      swap1\n      sub\n      swap1\n      0x00\n      mstore\n      keccak256(0x00, 0x20)\n      add\n      0x00\n      swap1\n      swap2\n      swap1\n      swap2\n      swap1\n      swap2\n      0x0100\n      exp\n      dup2\n      sload\n      dup2\n      0xffffffffffffffffffffffffffffffffffffffff\n      mul\n      not\n      and\n      swap1\n      dup4\n      0xffffffffffffffffffffffffffffffffffffffff\n      and\n      mul\n      or\n      swap1\n      sstore\n      pop\n        /* \"Contracts\":1708:1716  referees */\n      0x06\n        /* \"Contracts\":1708:1726  referees[_referee] */\n      0x00\n        /* \"Contracts\":1717:1725  _referee */\n      dup7\n        /* \"Contracts\":1708:1726  referees[_referee] */\n      0xffffffffffffffffffffffffffffffffffffffff\n      and\n      0xffffffffffffffffffffffffffffffffffffffff\n      and\n      dup2\n      mstore\n      0x20\n      add\n      swap1\n      dup2\n      mstore\n      0x20\n      add\n      0x00\n      keccak256\n        /* \"Contracts\":1708:1743  referees[_referee].managedContracts */\n      0x00\n      add\n      0x00\n        /* \"Contracts\":1708:1745  referees[_referee].managedContracts++ */\n      dup2\n      sload\n      dup1\n      swap3\n      swap2\n      swap1\n      tag_310\n      swap1\n      tag_195\n      jump\t// in\n    tag_310:\n      swap2\n      swap1\n      pop\n      sstore\n      pop\n        /* \"Contracts\":1755:1763  referees */\n      0x06\n        /* \"Contracts\":1755:1773  referees[_referee] */\n      0x00\n        /* \"Contracts\":1764:1772  _referee */\n      dup7\n        /* \"Contracts\":1755:1773  referees[_referee] */\n      0xffffffffffffffffffffffffffffffffffffffff\n      and\n      0xffffffffffffffffffffffffffffffffffffffff\n      and\n      dup2\n      mstore\n      0x20\n      add\n      swap1\n      dup2\n      mstore\n      0x20\n      add\n      0x00\n      keccak256\n        /* \"Contracts\":1755:1809  referees[_referee].openAccountabilityContractAddresses */\n      0x01\n      add\n        /* \"Contracts\":1823:1834  newContract */\n      dup2\n        /* \"Contracts\":1755:1836  referees[_referee].openAccountabilityContractAddresses.push(address(newContract)) */\n      swap1\n      dup1\n      0x01\n      dup2\n      sload\n      add\n      dup1\n      dup3\n      sstore\n      dup1\n      swap2\n      pop\n      pop\n      0x01\n      swap1\n      sub\n      swap1\n      0x00\n      mstore\n      keccak256(0x00, 0x20)\n      add\n      0x00\n      swap1\n      swap2\n      swap1\n      swap2\n      swap1\n      swap2\n      0x0100\n      exp\n      dup2\n      sload\n      dup2\n      0xffffffffffffffffffffffffffffffffffffffff\n      mul\n      not\n      and\n      swap1\n      dup4\n      0xffffffffffffffffffffffffffffffffffffffff\n      and\n      mul\n      or\n      swap1\n      sstore\n      pop\n        /* \"Contracts\":968:1843  {... */\n      pop\n        /* \"Contracts\":813:1843  function createAccountabilityContract(address _referee, string memory _name, string memory _description, address payable _failureRecipient) public payable {... */\n      pop\n      pop\n      pop\n      pop\n      jump\t// out\n        /* \"Contracts\":5865:6584  function moveOpenContractToClosedContractsForUser(address user, address contractAddress) private {... */\n    tag_163:\n        /* \"Contracts\":5972:5990  uint contractIndex */\n      0x00\n        /* \"Contracts\":5993:6039  getContractIndexForUser(user, contractAddress) */\n      tag_313\n        /* \"Contracts\":6017:6021  user */\n      dup4\n        /* \"Contracts\":6023:6038  contractAddress */\n      dup4\n        /* \"Contracts\":5993:6016  getContractIndexForUser */\n      tag_314\n        /* \"Contracts\":5993:6039  getContractIndexForUser(user, contractAddress) */\n      jump\t// in\n    tag_313:\n        /* \"Contracts\":5972:6039  uint contractIndex = getContractIndexForUser(user, contractAddress) */\n      swap1\n      pop\n        /* \"Contracts\":6049:6081  uint openContractAddressesLength */\n      0x00\n        /* \"Contracts\":6084:6089  users */\n      dup1\n        /* \"Contracts\":6084:6095  users[user] */\n      0x00\n        /* \"Contracts\":6090:6094  user */\n      dup6\n        /* \"Contracts\":6084:6095  users[user] */\n      0xffffffffffffffffffffffffffffffffffffffff\n      and\n      0xffffffffffffffffffffffffffffffffffffffff\n      and\n      dup2\n      mstore\n      0x20\n      add\n      swap1\n      dup2\n      mstore\n      0x20\n      add\n      0x00\n      keccak256\n        /* \"Contracts\":6084:6131  users[user].openAccountabilityContractAddresses */\n      0x01\n      add\n        /* \"Contracts\":6084:6138  users[user].openAccountabilityContractAddresses.length */\n      dup1\n      sload\n      swap1\n      pop\n        /* \"Contracts\":6049:6138  uint openContractAddressesLength = users[user].openAccountabilityContractAddresses.length */\n      swap1\n      pop\n        /* \"Contracts\":6153:6159  uint i */\n      0x00\n        /* \"Contracts\":6162:6175  contractIndex */\n      dup3\n        /* \"Contracts\":6153:6175  uint i = contractIndex */\n      swap1\n      pop\n        /* \"Contracts\":6148:6344  for (uint i = contractIndex; i<openContractAddressesLength-1; i++){... */\n    tag_315:\n        /* \"Contracts\":6207:6208  1 */\n      0x01\n        /* \"Contracts\":6179:6206  openContractAddressesLength */\n      dup3\n        /* \"Contracts\":6179:6208  openContractAddressesLength-1 */\n      tag_318\n      swap2\n      swap1\n      tag_180\n      jump\t// in\n    tag_318:\n        /* \"Contracts\":6177:6178  i */\n      dup2\n        /* \"Contracts\":6177:6208  i<openContractAddressesLength-1 */\n      lt\n        /* \"Contracts\":6148:6344  for (uint i = contractIndex; i<openContractAddressesLength-1; i++){... */\n      iszero\n      tag_316\n      jumpi\n        /* \"Contracts\":6281:6286  users */\n      0x00\n        /* \"Contracts\":6281:6292  users[user] */\n      dup1\n        /* \"Contracts\":6287:6291  user */\n      dup7\n        /* \"Contracts\":6281:6292  users[user] */\n      0xffffffffffffffffffffffffffffffffffffffff\n      and\n      0xffffffffffffffffffffffffffffffffffffffff\n      and\n      dup2\n      mstore\n      0x20\n      add\n      swap1\n      dup2\n      mstore\n      0x20\n      add\n      0x00\n      keccak256\n        /* \"Contracts\":6281:6328  users[user].openAccountabilityContractAddresses */\n      0x01\n      add\n        /* \"Contracts\":6331:6332  1 */\n      0x01\n        /* \"Contracts\":6329:6330  i */\n      dup3\n        /* \"Contracts\":6329:6332  i+1 */\n      tag_319\n      swap2\n      swap1\n      tag_307\n      jump\t// in\n    tag_319:\n        /* \"Contracts\":6281:6333  users[user].openAccountabilityContractAddresses[i+1] */\n      dup2\n      sload\n      dup2\n      lt\n      tag_320\n      jumpi\n      tag_321\n      tag_190\n      jump\t// in\n    tag_321:\n    tag_320:\n      swap1\n      0x00\n      mstore\n      keccak256(0x00, 0x20)\n      add\n      0x00\n      swap1\n      sload\n      swap1\n      0x0100\n      exp\n      swap1\n      div\n      0xffffffffffffffffffffffffffffffffffffffff\n      and\n        /* \"Contracts\":6228:6233  users */\n      0x00\n        /* \"Contracts\":6228:6239  users[user] */\n      dup1\n        /* \"Contracts\":6234:6238  user */\n      dup8\n        /* \"Contracts\":6228:6239  users[user] */\n      0xffffffffffffffffffffffffffffffffffffffff\n      and\n      0xffffffffffffffffffffffffffffffffffffffff\n      and\n      dup2\n      mstore\n      0x20\n      add\n      swap1\n      dup2\n      mstore\n      0x20\n      add\n      0x00\n      keccak256\n        /* \"Contracts\":6228:6275  users[user].openAccountabilityContractAddresses */\n      0x01\n      add\n        /* \"Contracts\":6276:6277  i */\n      dup3\n        /* \"Contracts\":6228:6278  users[user].openAccountabilityContractAddresses[i] */\n      dup2\n      sload\n      dup2\n      lt\n      tag_323\n      jumpi\n      tag_324\n      tag_190\n      jump\t// in\n    tag_324:\n    tag_323:\n      swap1\n      0x00\n      mstore\n      keccak256(0x00, 0x20)\n      add\n      0x00\n        /* \"Contracts\":6228:6333  users[user].openAccountabilityContractAddresses[i] = users[user].openAccountabilityContractAddresses[i+1] */\n      0x0100\n      exp\n      dup2\n      sload\n      dup2\n      0xffffffffffffffffffffffffffffffffffffffff\n      mul\n      not\n      and\n      swap1\n      dup4\n      0xffffffffffffffffffffffffffffffffffffffff\n      and\n      mul\n      or\n      swap1\n      sstore\n      pop\n        /* \"Contracts\":6210:6213  i++ */\n      dup1\n      dup1\n      tag_326\n      swap1\n      tag_195\n      jump\t// in\n    tag_326:\n      swap2\n      pop\n      pop\n        /* \"Contracts\":6148:6344  for (uint i = contractIndex; i<openContractAddressesLength-1; i++){... */\n      jump(tag_315)\n    tag_316:\n      pop\n        /* \"Contracts\":6353:6358  users */\n      0x00\n        /* \"Contracts\":6353:6364  users[user] */\n      dup1\n        /* \"Contracts\":6359:6363  user */\n      dup6\n        /* \"Contracts\":6353:6364  users[user] */\n      0xffffffffffffffffffffffffffffffffffffffff\n      and\n      0xffffffffffffffffffffffffffffffffffffffff\n      and\n      dup2\n      mstore\n      0x20\n      add\n      swap1\n      dup2\n      mstore\n      0x20\n      add\n      0x00\n      keccak256\n        /* \"Contracts\":6353:6402  users[user].closedAccountabilityContractAddresses */\n      0x02\n      add\n        /* \"Contracts\":6408:6413  users */\n      0x00\n        /* \"Contracts\":6408:6419  users[user] */\n      dup1\n        /* \"Contracts\":6414:6418  user */\n      dup7\n        /* \"Contracts\":6408:6419  users[user] */\n      0xffffffffffffffffffffffffffffffffffffffff\n      and\n      0xffffffffffffffffffffffffffffffffffffffff\n      and\n      dup2\n      mstore\n      0x20\n      add\n      swap1\n      dup2\n      mstore\n      0x20\n      add\n      0x00\n      keccak256\n        /* \"Contracts\":6408:6455  users[user].openAccountabilityContractAddresses */\n      0x01\n      add\n        /* \"Contracts\":6511:6512  1 */\n      0x01\n        /* \"Contracts\":6456:6461  users */\n      0x00\n        /* \"Contracts\":6456:6467  users[user] */\n      dup1\n        /* \"Contracts\":6462:6466  user */\n      dup9\n        /* \"Contracts\":6456:6467  users[user] */\n      0xffffffffffffffffffffffffffffffffffffffff\n      and\n      0xffffffffffffffffffffffffffffffffffffffff\n      and\n      dup2\n      mstore\n      0x20\n      add\n      swap1\n      dup2\n      mstore\n      0x20\n      add\n      0x00\n      keccak256\n        /* \"Contracts\":6456:6503  users[user].openAccountabilityContractAddresses */\n      0x01\n      add\n        /* \"Contracts\":6456:6510  users[user].openAccountabilityContractAddresses.length */\n      dup1\n      sload\n      swap1\n      pop\n        /* \"Contracts\":6456:6512  users[user].openAccountabilityContractAddresses.length-1 */\n      tag_327\n      swap2\n      swap1\n      tag_180\n      jump\t// in\n    tag_327:\n        /* \"Contracts\":6408:6513  users[user].openAccountabilityContractAddresses[users[user].openAccountabilityContractAddresses.length-1] */\n      dup2\n      sload\n      dup2\n      lt\n      tag_328\n      jumpi\n      tag_329\n      tag_190\n      jump\t// in\n    tag_329:\n    tag_328:\n      swap1\n      0x00\n      mstore\n      keccak256(0x00, 0x20)\n      add\n      0x00\n      swap1\n      sload\n      swap1\n      0x0100\n      exp\n      swap1\n      div\n      0xffffffffffffffffffffffffffffffffffffffff\n      and\n        /* \"Contracts\":6353:6514  users[user].closedAccountabilityContractAddresses.push(users[user].openAccountabilityContractAddresses[users[user].openAccountabilityContractAddresses.length-1]) */\n      swap1\n      dup1\n      0x01\n      dup2\n      sload\n      add\n      dup1\n      dup3\n      sstore\n      dup1\n      swap2\n      pop\n      pop\n      0x01\n      swap1\n      sub\n      swap1\n      0x00\n      mstore\n      keccak256(0x00, 0x20)\n      add\n      0x00\n      swap1\n      swap2\n      swap1\n      swap2\n      swap1\n      swap2\n      0x0100\n      exp\n      dup2\n      sload\n      dup2\n      0xffffffffffffffffffffffffffffffffffffffff\n      mul\n      not\n      and\n      swap1\n      dup4\n      0xffffffffffffffffffffffffffffffffffffffff\n      and\n      mul\n      or\n      swap1\n      sstore\n      pop\n        /* \"Contracts\":6524:6529  users */\n      0x00\n        /* \"Contracts\":6524:6535  users[user] */\n      dup1\n        /* \"Contracts\":6530:6534  user */\n      dup6\n        /* \"Contracts\":6524:6535  users[user] */\n      0xffffffffffffffffffffffffffffffffffffffff\n      and\n      0xffffffffffffffffffffffffffffffffffffffff\n      and\n      dup2\n      mstore\n      0x20\n      add\n      swap1\n      dup2\n      mstore\n      0x20\n      add\n      0x00\n      keccak256\n        /* \"Contracts\":6524:6571  users[user].openAccountabilityContractAddresses */\n      0x01\n      add\n        /* \"Contracts\":6524:6577  users[user].openAccountabilityContractAddresses.pop() */\n      dup1\n      sload\n      dup1\n      tag_332\n      jumpi\n      tag_333\n      tag_334\n      jump\t// in\n    tag_333:\n    tag_332:\n      0x01\n      swap1\n      sub\n      dup2\n      dup2\n      swap1\n      0x00\n      mstore\n      keccak256(0x00, 0x20)\n      add\n      exp(0x0100, 0x00)\n      dup2\n      sload\n      swap1\n      0xffffffffffffffffffffffffffffffffffffffff\n      mul\n      not\n      and\n      swap1\n      sstore\n      swap1\n      sstore\n        /* \"Contracts\":5962:6584  {... */\n      pop\n      pop\n        /* \"Contracts\":5865:6584  function moveOpenContractToClosedContractsForUser(address user, address contractAddress) private {... */\n      pop\n      pop\n      jump\t// out\n        /* \"Contracts\":7019:7720  function moveOpenContractToClosedContractsForReferee(address referee, address contractAddress) private {... */\n    tag_171:\n        /* \"Contracts\":7132:7150  uint contractIndex */\n      0x00\n        /* \"Contracts\":7153:7205  getContractIndexForReferee(referee, contractAddress) */\n      tag_337\n        /* \"Contracts\":7180:7187  referee */\n      dup4\n        /* \"Contracts\":7189:7204  contractAddress */\n      dup4\n        /* \"Contracts\":7153:7179  getContractIndexForReferee */\n      tag_338\n        /* \"Contracts\":7153:7205  getContractIndexForReferee(referee, contractAddress) */\n      jump\t// in\n    tag_337:\n        /* \"Contracts\":7132:7205  uint contractIndex = getContractIndexForReferee(referee, contractAddress) */\n      swap1\n      pop\n        /* \"Contracts\":7220:7226  uint i */\n      0x00\n        /* \"Contracts\":7229:7242  contractIndex */\n      dup2\n        /* \"Contracts\":7220:7242  uint i = contractIndex */\n      swap1\n      pop\n        /* \"Contracts\":7215:7456  for (uint i = contractIndex; i<referees[referee].openAccountabilityContractAddresses.length-1; i++){... */\n    tag_339:\n        /* \"Contracts\":7307:7308  1 */\n      0x01\n        /* \"Contracts\":7246:7254  referees */\n      0x06\n        /* \"Contracts\":7246:7263  referees[referee] */\n      0x00\n        /* \"Contracts\":7255:7262  referee */\n      dup7\n        /* \"Contracts\":7246:7263  referees[referee] */\n      0xffffffffffffffffffffffffffffffffffffffff\n      and\n      0xffffffffffffffffffffffffffffffffffffffff\n      and\n      dup2\n      mstore\n      0x20\n      add\n      swap1\n      dup2\n      mstore\n      0x20\n      add\n      0x00\n      keccak256\n        /* \"Contracts\":7246:7299  referees[referee].openAccountabilityContractAddresses */\n      0x01\n      add\n        /* \"Contracts\":7246:7306  referees[referee].openAccountabilityContractAddresses.length */\n      dup1\n      sload\n      swap1\n      pop\n        /* \"Contracts\":7246:7308  referees[referee].openAccountabilityContractAddresses.length-1 */\n      tag_342\n      swap2\n      swap1\n      tag_180\n      jump\t// in\n    tag_342:\n        /* \"Contracts\":7244:7245  i */\n      dup2\n        /* \"Contracts\":7244:7308  i<referees[referee].openAccountabilityContractAddresses.length-1 */\n      lt\n        /* \"Contracts\":7215:7456  for (uint i = contractIndex; i<referees[referee].openAccountabilityContractAddresses.length-1; i++){... */\n      iszero\n      tag_340\n      jumpi\n        /* \"Contracts\":7387:7395  referees */\n      0x06\n        /* \"Contracts\":7387:7404  referees[referee] */\n      0x00\n        /* \"Contracts\":7396:7403  referee */\n      dup6\n        /* \"Contracts\":7387:7404  referees[referee] */\n      0xffffffffffffffffffffffffffffffffffffffff\n      and\n      0xffffffffffffffffffffffffffffffffffffffff\n      and\n      dup2\n      mstore\n      0x20\n      add\n      swap1\n      dup2\n      mstore\n      0x20\n      add\n      0x00\n      keccak256\n        /* \"Contracts\":7387:7440  referees[referee].openAccountabilityContractAddresses */\n      0x01\n      add\n        /* \"Contracts\":7443:7444  1 */\n      0x01\n        /* \"Contracts\":7441:7442  i */\n      dup3\n        /* \"Contracts\":7441:7444  i+1 */\n      tag_343\n      swap2\n      swap1\n      tag_307\n      jump\t// in\n    tag_343:\n        /* \"Contracts\":7387:7445  referees[referee].openAccountabilityContractAddresses[i+1] */\n      dup2\n      sload\n      dup2\n      lt\n      tag_344\n      jumpi\n      tag_345\n      tag_190\n      jump\t// in\n    tag_345:\n    tag_344:\n      swap1\n      0x00\n      mstore\n      keccak256(0x00, 0x20)\n      add\n      0x00\n      swap1\n      sload\n      swap1\n      0x0100\n      exp\n      swap1\n      div\n      0xffffffffffffffffffffffffffffffffffffffff\n      and\n        /* \"Contracts\":7328:7336  referees */\n      0x06\n        /* \"Contracts\":7328:7345  referees[referee] */\n      0x00\n        /* \"Contracts\":7337:7344  referee */\n      dup7\n        /* \"Contracts\":7328:7345  referees[referee] */\n      0xffffffffffffffffffffffffffffffffffffffff\n      and\n      0xffffffffffffffffffffffffffffffffffffffff\n      and\n      dup2\n      mstore\n      0x20\n      add\n      swap1\n      dup2\n      mstore\n      0x20\n      add\n      0x00\n      keccak256\n        /* \"Contracts\":7328:7381  referees[referee].openAccountabilityContractAddresses */\n      0x01\n      add\n        /* \"Contracts\":7382:7383  i */\n      dup3\n        /* \"Contracts\":7328:7384  referees[referee].openAccountabilityContractAddresses[i] */\n      dup2\n      sload\n      dup2\n      lt\n      tag_347\n      jumpi\n      tag_348\n      tag_190\n      jump\t// in\n    tag_348:\n    tag_347:\n      swap1\n      0x00\n      mstore\n      keccak256(0x00, 0x20)\n      add\n      0x00\n        /* \"Contracts\":7328:7445  referees[referee].openAccountabilityContractAddresses[i] = referees[referee].openAccountabilityContractAddresses[i+1] */\n      0x0100\n      exp\n      dup2\n      sload\n      dup2\n      0xffffffffffffffffffffffffffffffffffffffff\n      mul\n      not\n      and\n      swap1\n      dup4\n      0xffffffffffffffffffffffffffffffffffffffff\n      and\n      mul\n      or\n      swap1\n      sstore\n      pop\n        /* \"Contracts\":7310:7313  i++ */\n      dup1\n      dup1\n      tag_350\n      swap1\n      tag_195\n      jump\t// in\n    tag_350:\n      swap2\n      pop\n      pop\n        /* \"Contracts\":7215:7456  for (uint i = contractIndex; i<referees[referee].openAccountabilityContractAddresses.length-1; i++){... */\n      jump(tag_339)\n    tag_340:\n      pop\n        /* \"Contracts\":7465:7473  referees */\n      0x06\n        /* \"Contracts\":7465:7482  referees[referee] */\n      0x00\n        /* \"Contracts\":7474:7481  referee */\n      dup5\n        /* \"Contracts\":7465:7482  referees[referee] */\n      0xffffffffffffffffffffffffffffffffffffffff\n      and\n      0xffffffffffffffffffffffffffffffffffffffff\n      and\n      dup2\n      mstore\n      0x20\n      add\n      swap1\n      dup2\n      mstore\n      0x20\n      add\n      0x00\n      keccak256\n        /* \"Contracts\":7465:7520  referees[referee].closedAccountabilityContractAddresses */\n      0x02\n      add\n        /* \"Contracts\":7526:7534  referees */\n      0x06\n        /* \"Contracts\":7526:7543  referees[referee] */\n      0x00\n        /* \"Contracts\":7535:7542  referee */\n      dup6\n        /* \"Contracts\":7526:7543  referees[referee] */\n      0xffffffffffffffffffffffffffffffffffffffff\n      and\n      0xffffffffffffffffffffffffffffffffffffffff\n      and\n      dup2\n      mstore\n      0x20\n      add\n      swap1\n      dup2\n      mstore\n      0x20\n      add\n      0x00\n      keccak256\n        /* \"Contracts\":7526:7579  referees[referee].openAccountabilityContractAddresses */\n      0x01\n      add\n        /* \"Contracts\":7641:7642  1 */\n      0x01\n        /* \"Contracts\":7580:7588  referees */\n      0x06\n        /* \"Contracts\":7580:7597  referees[referee] */\n      0x00\n        /* \"Contracts\":7589:7596  referee */\n      dup8\n        /* \"Contracts\":7580:7597  referees[referee] */\n      0xffffffffffffffffffffffffffffffffffffffff\n      and\n      0xffffffffffffffffffffffffffffffffffffffff\n      and\n      dup2\n      mstore\n      0x20\n      add\n      swap1\n      dup2\n      mstore\n      0x20\n      add\n      0x00\n      keccak256\n        /* \"Contracts\":7580:7633  referees[referee].openAccountabilityContractAddresses */\n      0x01\n      add\n        /* \"Contracts\":7580:7640  referees[referee].openAccountabilityContractAddresses.length */\n      dup1\n      sload\n      swap1\n      pop\n        /* \"Contracts\":7580:7642  referees[referee].openAccountabilityContractAddresses.length-1 */\n      tag_351\n      swap2\n      swap1\n      tag_180\n      jump\t// in\n    tag_351:\n        /* \"Contracts\":7526:7643  referees[referee].openAccountabilityContractAddresses[referees[referee].openAccountabilityContractAddresses.length-1] */\n      dup2\n      sload\n      dup2\n      lt\n      tag_352\n      jumpi\n      tag_353\n      tag_190\n      jump\t// in\n    tag_353:\n    tag_352:\n      swap1\n      0x00\n      mstore\n      keccak256(0x00, 0x20)\n      add\n      0x00\n      swap1\n      sload\n      swap1\n      0x0100\n      exp\n      swap1\n      div\n      0xffffffffffffffffffffffffffffffffffffffff\n      and\n        /* \"Contracts\":7465:7644  referees[referee].closedAccountabilityContractAddresses.push(referees[referee].openAccountabilityContractAddresses[referees[referee].openAccountabilityContractAddresses.length-1]) */\n      swap1\n      dup1\n      0x01\n      dup2\n      sload\n      add\n      dup1\n      dup3\n      sstore\n      dup1\n      swap2\n      pop\n      pop\n      0x01\n      swap1\n      sub\n      swap1\n      0x00\n      mstore\n      keccak256(0x00, 0x20)\n      add\n      0x00\n      swap1\n      swap2\n      swap1\n      swap2\n      swap1\n      swap2\n      0x0100\n      exp\n      dup2\n      sload\n      dup2\n      0xffffffffffffffffffffffffffffffffffffffff\n      mul\n      not\n      and\n      swap1\n      dup4\n      0xffffffffffffffffffffffffffffffffffffffff\n      and\n      mul\n      or\n      swap1\n      sstore\n      pop\n        /* \"Contracts\":7654:7662  referees */\n      0x06\n        /* \"Contracts\":7654:7671  referees[referee] */\n      0x00\n        /* \"Contracts\":7663:7670  referee */\n      dup5\n        /* \"Contracts\":7654:7671  referees[referee] */\n      0xffffffffffffffffffffffffffffffffffffffff\n      and\n      0xffffffffffffffffffffffffffffffffffffffff\n      and\n      dup2\n      mstore\n      0x20\n      add\n      swap1\n      dup2\n      mstore\n      0x20\n      add\n      0x00\n      keccak256\n        /* \"Contracts\":7654:7707  referees[referee].openAccountabilityContractAddresses */\n      0x01\n      add\n        /* \"Contracts\":7654:7713  referees[referee].openAccountabilityContractAddresses.pop() */\n      dup1\n      sload\n      dup1\n      tag_356\n      jumpi\n      tag_357\n      tag_334\n      jump\t// in\n    tag_357:\n    tag_356:\n      0x01\n      swap1\n      sub\n      dup2\n      dup2\n      swap1\n      0x00\n      mstore\n      keccak256(0x00, 0x20)\n      add\n      exp(0x0100, 0x00)\n      dup2\n      sload\n      swap1\n      0xffffffffffffffffffffffffffffffffffffffff\n      mul\n      not\n      and\n      swap1\n      sstore\n      swap1\n      sstore\n        /* \"Contracts\":7122:7720  {... */\n      pop\n        /* \"Contracts\":7019:7720  function moveOpenContractToClosedContractsForReferee(address referee, address contractAddress) private {... */\n      pop\n      pop\n      jump\t// out\n        /* \"Contracts\":5453:5859  function getContractIndexForUser(address user, address contractAddress) view private returns (uint){... */\n    tag_314:\n        /* \"Contracts\":5547:5551  uint */\n      0x00\n        /* \"Contracts\":5562:5580  uint contractIndex */\n      dup1\n        /* \"Contracts\":5595:5601  uint i */\n      0x00\n        /* \"Contracts\":5590:5823  for (uint i = 0; i<=users[user].openAccountabilityContractAddresses.length-1; i++){... */\n    tag_360:\n        /* \"Contracts\":5665:5666  1 */\n      0x01\n        /* \"Contracts\":5610:5615  users */\n      0x00\n        /* \"Contracts\":5610:5621  users[user] */\n      dup1\n        /* \"Contracts\":5616:5620  user */\n      dup8\n        /* \"Contracts\":5610:5621  users[user] */\n      0xffffffffffffffffffffffffffffffffffffffff\n      and\n      0xffffffffffffffffffffffffffffffffffffffff\n      and\n      dup2\n      mstore\n      0x20\n      add\n      swap1\n      dup2\n      mstore\n      0x20\n      add\n      0x00\n      keccak256\n        /* \"Contracts\":5610:5657  users[user].openAccountabilityContractAddresses */\n      0x01\n      add\n        /* \"Contracts\":5610:5664  users[user].openAccountabilityContractAddresses.length */\n      dup1\n      sload\n      swap1\n      pop\n        /* \"Contracts\":5610:5666  users[user].openAccountabilityContractAddresses.length-1 */\n      tag_363\n      swap2\n      swap1\n      tag_180\n      jump\t// in\n    tag_363:\n        /* \"Contracts\":5607:5608  i */\n      dup2\n        /* \"Contracts\":5607:5666  i<=users[user].openAccountabilityContractAddresses.length-1 */\n      gt\n        /* \"Contracts\":5590:5823  for (uint i = 0; i<=users[user].openAccountabilityContractAddresses.length-1; i++){... */\n      tag_361\n      jumpi\n        /* \"Contracts\":5743:5758  contractAddress */\n      dup4\n        /* \"Contracts\":5689:5758  users[user].openAccountabilityContractAddresses[i] == contractAddress */\n      0xffffffffffffffffffffffffffffffffffffffff\n      and\n        /* \"Contracts\":5689:5694  users */\n      0x00\n        /* \"Contracts\":5689:5700  users[user] */\n      dup1\n        /* \"Contracts\":5695:5699  user */\n      dup8\n        /* \"Contracts\":5689:5700  users[user] */\n      0xffffffffffffffffffffffffffffffffffffffff\n      and\n      0xffffffffffffffffffffffffffffffffffffffff\n      and\n      dup2\n      mstore\n      0x20\n      add\n      swap1\n      dup2\n      mstore\n      0x20\n      add\n      0x00\n      keccak256\n        /* \"Contracts\":5689:5736  users[user].openAccountabilityContractAddresses */\n      0x01\n      add\n        /* \"Contracts\":5737:5738  i */\n      dup3\n        /* \"Contracts\":5689:5739  users[user].openAccountabilityContractAddresses[i] */\n      dup2\n      sload\n      dup2\n      lt\n      tag_364\n      jumpi\n      tag_365\n      tag_190\n      jump\t// in\n    tag_365:\n    tag_364:\n      swap1\n      0x00\n      mstore\n      keccak256(0x00, 0x20)\n      add\n      0x00\n      swap1\n      sload\n      swap1\n      0x0100\n      exp\n      swap1\n      div\n      0xffffffffffffffffffffffffffffffffffffffff\n      and\n        /* \"Contracts\":5689:5758  users[user].openAccountabilityContractAddresses[i] == contractAddress */\n      0xffffffffffffffffffffffffffffffffffffffff\n      and\n      eq\n        /* \"Contracts\":5686:5813  if(users[user].openAccountabilityContractAddresses[i] == contractAddress){... */\n      iszero\n      tag_367\n      jumpi\n        /* \"Contracts\":5793:5794  i */\n      dup1\n        /* \"Contracts\":5777:5794  contractIndex = i */\n      swap2\n      pop\n        /* \"Contracts\":5686:5813  if(users[user].openAccountabilityContractAddresses[i] == contractAddress){... */\n    tag_367:\n        /* \"Contracts\":5668:5671  i++ */\n      dup1\n      dup1\n      tag_368\n      swap1\n      tag_195\n      jump\t// in\n    tag_368:\n      swap2\n      pop\n      pop\n        /* \"Contracts\":5590:5823  for (uint i = 0; i<=users[user].openAccountabilityContractAddresses.length-1; i++){... */\n      jump(tag_360)\n    tag_361:\n      pop\n        /* \"Contracts\":5839:5852  contractIndex */\n      dup1\n        /* \"Contracts\":5832:5852  return contractIndex */\n      swap2\n      pop\n      pop\n        /* \"Contracts\":5453:5859  function getContractIndexForUser(address user, address contractAddress) view private returns (uint){... */\n      swap3\n      swap2\n      pop\n      pop\n      jump\t// out\n        /* \"Contracts\":6592:7012  function getContractIndexForReferee(address referee, address contractAddress) view private returns (uint){... */\n    tag_338:\n        /* \"Contracts\":6692:6696  uint */\n      0x00\n        /* \"Contracts\":6707:6725  uint contractIndex */\n      dup1\n        /* \"Contracts\":6740:6746  uint i */\n      0x00\n        /* \"Contracts\":6735:6976  for (uint i = 0; i<=referees[referee].openAccountabilityContractAddresses.length-1; i++){... */\n    tag_370:\n        /* \"Contracts\":6816:6817  1 */\n      0x01\n        /* \"Contracts\":6755:6763  referees */\n      0x06\n        /* \"Contracts\":6755:6772  referees[referee] */\n      0x00\n        /* \"Contracts\":6764:6771  referee */\n      dup8\n        /* \"Contracts\":6755:6772  referees[referee] */\n      0xffffffffffffffffffffffffffffffffffffffff\n      and\n      0xffffffffffffffffffffffffffffffffffffffff\n      and\n      dup2\n      mstore\n      0x20\n      add\n      swap1\n      dup2\n      mstore\n      0x20\n      add\n      0x00\n      keccak256\n        /* \"Contracts\":6755:6808  referees[referee].openAccountabilityContractAddresses */\n      0x01\n      add\n        /* \"Contracts\":6755:6815  referees[referee].openAccountabilityContractAddresses.length */\n      dup1\n      sload\n      swap1\n      pop\n        /* \"Contracts\":6755:6817  referees[referee].openAccountabilityContractAddresses.length-1 */\n      tag_373\n      swap2\n      swap1\n      tag_180\n      jump\t// in\n    tag_373:\n        /* \"Contracts\":6752:6753  i */\n      dup2\n        /* \"Contracts\":6752:6817  i<=referees[referee].openAccountabilityContractAddresses.length-1 */\n      gt\n        /* \"Contracts\":6735:6976  for (uint i = 0; i<=referees[referee].openAccountabilityContractAddresses.length-1; i++){... */\n      tag_371\n      jumpi\n        /* \"Contracts\":6900:6915  contractAddress */\n      dup4\n        /* \"Contracts\":6840:6915  referees[referee].openAccountabilityContractAddresses[i] == contractAddress */\n      0xffffffffffffffffffffffffffffffffffffffff\n      and\n        /* \"Contracts\":6840:6848  referees */\n      0x06\n        /* \"Contracts\":6840:6857  referees[referee] */\n      0x00\n        /* \"Contracts\":6849:6856  referee */\n      dup8\n        /* \"Contracts\":6840:6857  referees[referee] */\n      0xffffffffffffffffffffffffffffffffffffffff\n      and\n      0xffffffffffffffffffffffffffffffffffffffff\n      and\n      dup2\n      mstore\n      0x20\n      add\n      swap1\n      dup2\n      mstore\n      0x20\n      add\n      0x00\n      keccak256\n        /* \"Contracts\":6840:6893  referees[referee].openAccountabilityContractAddresses */\n      0x01\n      add\n        /* \"Contracts\":6894:6895  i */\n      dup3\n        /* \"Contracts\":6840:6896  referees[referee].openAccountabilityContractAddresses[i] */\n      dup2\n      sload\n      dup2\n      lt\n      tag_374\n      jumpi\n      tag_375\n      tag_190\n      jump\t// in\n    tag_375:\n    tag_374:\n      swap1\n      0x00\n      mstore\n      keccak256(0x00, 0x20)\n      add\n      0x00\n      swap1\n      sload\n      swap1\n      0x0100\n      exp\n      swap1\n      div\n      0xffffffffffffffffffffffffffffffffffffffff\n      and\n        /* \"Contracts\":6840:6915  referees[referee].openAccountabilityContractAddresses[i] == contractAddress */\n      0xffffffffffffffffffffffffffffffffffffffff\n      and\n      eq\n        /* \"Contracts\":6837:6966  if(referees[referee].openAccountabilityContractAddresses[i] == contractAddress){... */\n      iszero\n      tag_377\n      jumpi\n        /* \"Contracts\":6950:6951  i */\n      dup1\n        /* \"Contracts\":6934:6951  contractIndex = i */\n      swap2\n      pop\n        /* \"Contracts\":6837:6966  if(referees[referee].openAccountabilityContractAddresses[i] == contractAddress){... */\n    tag_377:\n        /* \"Contracts\":6819:6822  i++ */\n      dup1\n      dup1\n      tag_378\n      swap1\n      tag_195\n      jump\t// in\n    tag_378:\n      swap2\n      pop\n      pop\n        /* \"Contracts\":6735:6976  for (uint i = 0; i<=referees[referee].openAccountabilityContractAddresses.length-1; i++){... */\n      jump(tag_370)\n    tag_371:\n      pop\n        /* \"Contracts\":6992:7005  contractIndex */\n      dup1\n        /* \"Contracts\":6985:7005  return contractIndex */\n      swap2\n      pop\n      pop\n        /* \"Contracts\":6592:7012  function getContractIndexForReferee(address referee, address contractAddress) view private returns (uint){... */\n      swap3\n      swap2\n      pop\n      pop\n      jump\t// out\n    tag_285:\n      dataSize(sub_0)\n      dup1\n      dataOffset(sub_0)\n      dup4\n      codecopy\n      add\n      swap1\n      jump\t// out\n    tag_300:\n      dataSize(sub_1)\n      dup1\n      dataOffset(sub_1)\n      dup4\n      codecopy\n      add\n      swap1\n      jump\t// out\n        /* \"#utility.yul\":7:82   */\n    tag_379:\n        /* \"#utility.yul\":40:46   */\n      0x00\n        /* \"#utility.yul\":73:75   */\n      0x40\n        /* \"#utility.yul\":67:76   */\n      mload\n        /* \"#utility.yul\":57:76   */\n      swap1\n      pop\n        /* \"#utility.yul\":7:82   */\n      swap1\n      jump\t// out\n        /* \"#utility.yul\":88:205   */\n    tag_380:\n        /* \"#utility.yul\":197:198   */\n      0x00\n        /* \"#utility.yul\":194:195   */\n      dup1\n        /* \"#utility.yul\":187:199   */\n      revert\n        /* \"#utility.yul\":211:328   */\n    tag_381:\n        /* \"#utility.yul\":320:321   */\n      0x00\n        /* \"#utility.yul\":317:318   */\n      dup1\n        /* \"#utility.yul\":310:322   */\n      revert\n        /* \"#utility.yul\":334:460   */\n    tag_382:\n        /* \"#utility.yul\":371:378   */\n      0x00\n        /* \"#utility.yul\":411:453   */\n      0xffffffffffffffffffffffffffffffffffffffff\n        /* \"#utility.yul\":404:409   */\n      dup3\n        /* \"#utility.yul\":400:454   */\n      and\n        /* \"#utility.yul\":389:454   */\n      swap1\n      pop\n        /* \"#utility.yul\":334:460   */\n      swap2\n      swap1\n      pop\n      jump\t// out\n        /* \"#utility.yul\":466:562   */\n    tag_383:\n        /* \"#utility.yul\":503:510   */\n      0x00\n        /* \"#utility.yul\":532:556   */\n      tag_445\n        /* \"#utility.yul\":550:555   */\n      dup3\n        /* \"#utility.yul\":532:556   */\n      tag_382\n      jump\t// in\n    tag_445:\n        /* \"#utility.yul\":521:556   */\n      swap1\n      pop\n        /* \"#utility.yul\":466:562   */\n      swap2\n      swap1\n      pop\n      jump\t// out\n        /* \"#utility.yul\":568:690   */\n    tag_384:\n        /* \"#utility.yul\":641:665   */\n      tag_447\n        /* \"#utility.yul\":659:664   */\n      dup2\n        /* \"#utility.yul\":641:665   */\n      tag_383\n      jump\t// in\n    tag_447:\n        /* \"#utility.yul\":634:639   */\n      dup2\n        /* \"#utility.yul\":631:666   */\n      eq\n        /* \"#utility.yul\":621:684   */\n      tag_448\n      jumpi\n        /* \"#utility.yul\":680:681   */\n      0x00\n        /* \"#utility.yul\":677:678   */\n      dup1\n        /* \"#utility.yul\":670:682   */\n      revert\n        /* \"#utility.yul\":621:684   */\n    tag_448:\n        /* \"#utility.yul\":568:690   */\n      pop\n      jump\t// out\n        /* \"#utility.yul\":696:835   */\n    tag_385:\n        /* \"#utility.yul\":742:747   */\n      0x00\n        /* \"#utility.yul\":780:786   */\n      dup2\n        /* \"#utility.yul\":767:787   */\n      calldataload\n        /* \"#utility.yul\":758:787   */\n      swap1\n      pop\n        /* \"#utility.yul\":796:829   */\n      tag_450\n        /* \"#utility.yul\":823:828   */\n      dup2\n        /* \"#utility.yul\":796:829   */\n      tag_384\n      jump\t// in\n    tag_450:\n        /* \"#utility.yul\":696:835   */\n      swap3\n      swap2\n      pop\n      pop\n      jump\t// out\n        /* \"#utility.yul\":841:1170   */\n    tag_30:\n        /* \"#utility.yul\":900:906   */\n      0x00\n        /* \"#utility.yul\":949:951   */\n      0x20\n        /* \"#utility.yul\":937:946   */\n      dup3\n        /* \"#utility.yul\":928:935   */\n      dup5\n        /* \"#utility.yul\":924:947   */\n      sub\n        /* \"#utility.yul\":920:952   */\n      slt\n        /* \"#utility.yul\":917:1036   */\n      iszero\n      tag_452\n      jumpi\n        /* \"#utility.yul\":955:1034   */\n      tag_453\n      tag_380\n      jump\t// in\n    tag_453:\n        /* \"#utility.yul\":917:1036   */\n    tag_452:\n        /* \"#utility.yul\":1075:1076   */\n      0x00\n        /* \"#utility.yul\":1100:1153   */\n      tag_454\n        /* \"#utility.yul\":1145:1152   */\n      dup5\n        /* \"#utility.yul\":1136:1142   */\n      dup3\n        /* \"#utility.yul\":1125:1134   */\n      dup6\n        /* \"#utility.yul\":1121:1143   */\n      add\n        /* \"#utility.yul\":1100:1153   */\n      tag_385\n      jump\t// in\n    tag_454:\n        /* \"#utility.yul\":1090:1153   */\n      swap2\n      pop\n        /* \"#utility.yul\":1046:1163   */\n      pop\n        /* \"#utility.yul\":841:1170   */\n      swap3\n      swap2\n      pop\n      pop\n      jump\t// out\n        /* \"#utility.yul\":1176:1253   */\n    tag_386:\n        /* \"#utility.yul\":1213:1220   */\n      0x00\n        /* \"#utility.yul\":1242:1247   */\n      dup2\n        /* \"#utility.yul\":1231:1247   */\n      swap1\n      pop\n        /* \"#utility.yul\":1176:1253   */\n      swap2\n      swap1\n      pop\n      jump\t// out\n        /* \"#utility.yul\":1259:1381   */\n    tag_387:\n        /* \"#utility.yul\":1332:1356   */\n      tag_457\n        /* \"#utility.yul\":1350:1355   */\n      dup2\n        /* \"#utility.yul\":1332:1356   */\n      tag_386\n      jump\t// in\n    tag_457:\n        /* \"#utility.yul\":1325:1330   */\n      dup2\n        /* \"#utility.yul\":1322:1357   */\n      eq\n        /* \"#utility.yul\":1312:1375   */\n      tag_458\n      jumpi\n        /* \"#utility.yul\":1371:1372   */\n      0x00\n        /* \"#utility.yul\":1368:1369   */\n      dup1\n        /* \"#utility.yul\":1361:1373   */\n      revert\n        /* \"#utility.yul\":1312:1375   */\n    tag_458:\n        /* \"#utility.yul\":1259:1381   */\n      pop\n      jump\t// out\n        /* \"#utility.yul\":1387:1526   */\n    tag_388:\n        /* \"#utility.yul\":1433:1438   */\n      0x00\n        /* \"#utility.yul\":1471:1477   */\n      dup2\n        /* \"#utility.yul\":1458:1478   */\n      calldataload\n        /* \"#utility.yul\":1449:1478   */\n      swap1\n      pop\n        /* \"#utility.yul\":1487:1520   */\n      tag_460\n        /* \"#utility.yul\":1514:1519   */\n      dup2\n        /* \"#utility.yul\":1487:1520   */\n      tag_387\n      jump\t// in\n    tag_460:\n        /* \"#utility.yul\":1387:1526   */\n      swap3\n      swap2\n      pop\n      pop\n      jump\t// out\n        /* \"#utility.yul\":1532:2006   */\n    tag_35:\n        /* \"#utility.yul\":1600:1606   */\n      0x00\n        /* \"#utility.yul\":1608:1614   */\n      dup1\n        /* \"#utility.yul\":1657:1659   */\n      0x40\n        /* \"#utility.yul\":1645:1654   */\n      dup4\n        /* \"#utility.yul\":1636:1643   */\n      dup6\n        /* \"#utility.yul\":1632:1655   */\n      sub\n        /* \"#utility.yul\":1628:1660   */\n      slt\n        /* \"#utility.yul\":1625:1744   */\n      iszero\n      tag_462\n      jumpi\n        /* \"#utility.yul\":1663:1742   */\n      tag_463\n      tag_380\n      jump\t// in\n    tag_463:\n        /* \"#utility.yul\":1625:1744   */\n    tag_462:\n        /* \"#utility.yul\":1783:1784   */\n      0x00\n        /* \"#utility.yul\":1808:1861   */\n      tag_464\n        /* \"#utility.yul\":1853:1860   */\n      dup6\n        /* \"#utility.yul\":1844:1850   */\n      dup3\n        /* \"#utility.yul\":1833:1842   */\n      dup7\n        /* \"#utility.yul\":1829:1851   */\n      add\n        /* \"#utility.yul\":1808:1861   */\n      tag_388\n      jump\t// in\n    tag_464:\n        /* \"#utility.yul\":1798:1861   */\n      swap3\n      pop\n        /* \"#utility.yul\":1754:1871   */\n      pop\n        /* \"#utility.yul\":1910:1912   */\n      0x20\n        /* \"#utility.yul\":1936:1989   */\n      tag_465\n        /* \"#utility.yul\":1981:1988   */\n      dup6\n        /* \"#utility.yul\":1972:1978   */\n      dup3\n        /* \"#utility.yul\":1961:1970   */\n      dup7\n        /* \"#utility.yul\":1957:1979   */\n      add\n        /* \"#utility.yul\":1936:1989   */\n      tag_388\n      jump\t// in\n    tag_465:\n        /* \"#utility.yul\":1926:1989   */\n      swap2\n      pop\n        /* \"#utility.yul\":1881:1999   */\n      pop\n        /* \"#utility.yul\":1532:2006   */\n      swap3\n      pop\n      swap3\n      swap1\n      pop\n      jump\t// out\n        /* \"#utility.yul\":2012:2126   */\n    tag_389:\n        /* \"#utility.yul\":2079:2085   */\n      0x00\n        /* \"#utility.yul\":2113:2118   */\n      dup2\n        /* \"#utility.yul\":2107:2119   */\n      mload\n        /* \"#utility.yul\":2097:2119   */\n      swap1\n      pop\n        /* \"#utility.yul\":2012:2126   */\n      swap2\n      swap1\n      pop\n      jump\t// out\n        /* \"#utility.yul\":2132:2316   */\n    tag_390:\n        /* \"#utility.yul\":2231:2242   */\n      0x00\n        /* \"#utility.yul\":2265:2271   */\n      dup3\n        /* \"#utility.yul\":2260:2263   */\n      dup3\n        /* \"#utility.yul\":2253:2272   */\n      mstore\n        /* \"#utility.yul\":2305:2309   */\n      0x20\n        /* \"#utility.yul\":2300:2303   */\n      dup3\n        /* \"#utility.yul\":2296:2310   */\n      add\n        /* \"#utility.yul\":2281:2310   */\n      swap1\n      pop\n        /* \"#utility.yul\":2132:2316   */\n      swap3\n      swap2\n      pop\n      pop\n      jump\t// out\n        /* \"#utility.yul\":2322:2454   */\n    tag_391:\n        /* \"#utility.yul\":2389:2393   */\n      0x00\n        /* \"#utility.yul\":2412:2415   */\n      dup2\n        /* \"#utility.yul\":2404:2415   */\n      swap1\n      pop\n        /* \"#utility.yul\":2442:2446   */\n      0x20\n        /* \"#utility.yul\":2437:2440   */\n      dup3\n        /* \"#utility.yul\":2433:2447   */\n      add\n        /* \"#utility.yul\":2425:2447   */\n      swap1\n      pop\n        /* \"#utility.yul\":2322:2454   */\n      swap2\n      swap1\n      pop\n      jump\t// out\n        /* \"#utility.yul\":2460:2568   */\n    tag_392:\n        /* \"#utility.yul\":2537:2561   */\n      tag_470\n        /* \"#utility.yul\":2555:2560   */\n      dup2\n        /* \"#utility.yul\":2537:2561   */\n      tag_383\n      jump\t// in\n    tag_470:\n        /* \"#utility.yul\":2532:2535   */\n      dup3\n        /* \"#utility.yul\":2525:2562   */\n      mstore\n        /* \"#utility.yul\":2460:2568   */\n      pop\n      pop\n      jump\t// out\n        /* \"#utility.yul\":2574:2753   */\n    tag_393:\n        /* \"#utility.yul\":2643:2653   */\n      0x00\n        /* \"#utility.yul\":2664:2710   */\n      tag_472\n        /* \"#utility.yul\":2706:2709   */\n      dup4\n        /* \"#utility.yul\":2698:2704   */\n      dup4\n        /* \"#utility.yul\":2664:2710   */\n      tag_392\n      jump\t// in\n    tag_472:\n        /* \"#utility.yul\":2742:2746   */\n      0x20\n        /* \"#utility.yul\":2737:2740   */\n      dup4\n        /* \"#utility.yul\":2733:2747   */\n      add\n        /* \"#utility.yul\":2719:2747   */\n      swap1\n      pop\n        /* \"#utility.yul\":2574:2753   */\n      swap3\n      swap2\n      pop\n      pop\n      jump\t// out\n        /* \"#utility.yul\":2759:2872   */\n    tag_394:\n        /* \"#utility.yul\":2829:2833   */\n      0x00\n        /* \"#utility.yul\":2861:2865   */\n      0x20\n        /* \"#utility.yul\":2856:2859   */\n      dup3\n        /* \"#utility.yul\":2852:2866   */\n      add\n        /* \"#utility.yul\":2844:2866   */\n      swap1\n      pop\n        /* \"#utility.yul\":2759:2872   */\n      swap2\n      swap1\n      pop\n      jump\t// out\n        /* \"#utility.yul\":2908:3640   */\n    tag_395:\n        /* \"#utility.yul\":3027:3030   */\n      0x00\n        /* \"#utility.yul\":3056:3110   */\n      tag_475\n        /* \"#utility.yul\":3104:3109   */\n      dup3\n        /* \"#utility.yul\":3056:3110   */\n      tag_389\n      jump\t// in\n    tag_475:\n        /* \"#utility.yul\":3126:3212   */\n      tag_476\n        /* \"#utility.yul\":3205:3211   */\n      dup2\n        /* \"#utility.yul\":3200:3203   */\n      dup6\n        /* \"#utility.yul\":3126:3212   */\n      tag_390\n      jump\t// in\n    tag_476:\n        /* \"#utility.yul\":3119:3212   */\n      swap4\n      pop\n        /* \"#utility.yul\":3236:3292   */\n      tag_477\n        /* \"#utility.yul\":3286:3291   */\n      dup4\n        /* \"#utility.yul\":3236:3292   */\n      tag_391\n      jump\t// in\n    tag_477:\n        /* \"#utility.yul\":3315:3322   */\n      dup1\n        /* \"#utility.yul\":3346:3347   */\n      0x00\n        /* \"#utility.yul\":3331:3615   */\n    tag_478:\n        /* \"#utility.yul\":3356:3362   */\n      dup4\n        /* \"#utility.yul\":3353:3354   */\n      dup2\n        /* \"#utility.yul\":3350:3363   */\n      lt\n        /* \"#utility.yul\":3331:3615   */\n      iszero\n      tag_480\n      jumpi\n        /* \"#utility.yul\":3432:3438   */\n      dup2\n        /* \"#utility.yul\":3426:3439   */\n      mload\n        /* \"#utility.yul\":3459:3522   */\n      tag_481\n        /* \"#utility.yul\":3518:3521   */\n      dup9\n        /* \"#utility.yul\":3503:3516   */\n      dup3\n        /* \"#utility.yul\":3459:3522   */\n      tag_393\n      jump\t// in\n    tag_481:\n        /* \"#utility.yul\":3452:3522   */\n      swap8\n      pop\n        /* \"#utility.yul\":3545:3605   */\n      tag_482\n        /* \"#utility.yul\":3598:3604   */\n      dup4\n        /* \"#utility.yul\":3545:3605   */\n      tag_394\n      jump\t// in\n    tag_482:\n        /* \"#utility.yul\":3535:3605   */\n      swap3\n      pop\n        /* \"#utility.yul\":3391:3615   */\n      pop\n        /* \"#utility.yul\":3378:3379   */\n      0x01\n        /* \"#utility.yul\":3375:3376   */\n      dup2\n        /* \"#utility.yul\":3371:3380   */\n      add\n        /* \"#utility.yul\":3366:3380   */\n      swap1\n      pop\n        /* \"#utility.yul\":3331:3615   */\n      jump(tag_478)\n    tag_480:\n        /* \"#utility.yul\":3335:3349   */\n      pop\n        /* \"#utility.yul\":3631:3634   */\n      dup6\n        /* \"#utility.yul\":3624:3634   */\n      swap4\n      pop\n        /* \"#utility.yul\":3032:3640   */\n      pop\n      pop\n      pop\n        /* \"#utility.yul\":2908:3640   */\n      swap3\n      swap2\n      pop\n      pop\n      jump\t// out\n        /* \"#utility.yul\":3646:4019   */\n    tag_38:\n        /* \"#utility.yul\":3789:3793   */\n      0x00\n        /* \"#utility.yul\":3827:3829   */\n      0x20\n        /* \"#utility.yul\":3816:3825   */\n      dup3\n        /* \"#utility.yul\":3812:3830   */\n      add\n        /* \"#utility.yul\":3804:3830   */\n      swap1\n      pop\n        /* \"#utility.yul\":3876:3885   */\n      dup2\n        /* \"#utility.yul\":3870:3874   */\n      dup2\n        /* \"#utility.yul\":3866:3886   */\n      sub\n        /* \"#utility.yul\":3862:3863   */\n      0x00\n        /* \"#utility.yul\":3851:3860   */\n      dup4\n        /* \"#utility.yul\":3847:3864   */\n      add\n        /* \"#utility.yul\":3840:3887   */\n      mstore\n        /* \"#utility.yul\":3904:4012   */\n      tag_484\n        /* \"#utility.yul\":4007:4011   */\n      dup2\n        /* \"#utility.yul\":3998:4004   */\n      dup5\n        /* \"#utility.yul\":3904:4012   */\n      tag_395\n      jump\t// in\n    tag_484:\n        /* \"#utility.yul\":3896:4012   */\n      swap1\n      pop\n        /* \"#utility.yul\":3646:4019   */\n      swap3\n      swap2\n      pop\n      pop\n      jump\t// out\n        /* \"#utility.yul\":4025:4354   */\n    tag_47:\n        /* \"#utility.yul\":4084:4090   */\n      0x00\n        /* \"#utility.yul\":4133:4135   */\n      0x20\n        /* \"#utility.yul\":4121:4130   */\n      dup3\n        /* \"#utility.yul\":4112:4119   */\n      dup5\n        /* \"#utility.yul\":4108:4131   */\n      sub\n        /* \"#utility.yul\":4104:4136   */\n      slt\n        /* \"#utility.yul\":4101:4220   */\n      iszero\n      tag_486\n      jumpi\n        /* \"#utility.yul\":4139:4218   */\n      tag_487\n      tag_380\n      jump\t// in\n    tag_487:\n        /* \"#utility.yul\":4101:4220   */\n    tag_486:\n        /* \"#utility.yul\":4259:4260   */\n      0x00\n        /* \"#utility.yul\":4284:4337   */\n      tag_488\n        /* \"#utility.yul\":4329:4336   */\n      dup5\n        /* \"#utility.yul\":4320:4326   */\n      dup3\n        /* \"#utility.yul\":4309:4318   */\n      dup6\n        /* \"#utility.yul\":4305:4327   */\n      add\n        /* \"#utility.yul\":4284:4337   */\n      tag_388\n      jump\t// in\n    tag_488:\n        /* \"#utility.yul\":4274:4337   */\n      swap2\n      pop\n        /* \"#utility.yul\":4230:4347   */\n      pop\n        /* \"#utility.yul\":4025:4354   */\n      swap3\n      swap2\n      pop\n      pop\n      jump\t// out\n        /* \"#utility.yul\":4360:4478   */\n    tag_396:\n        /* \"#utility.yul\":4447:4471   */\n      tag_490\n        /* \"#utility.yul\":4465:4470   */\n      dup2\n        /* \"#utility.yul\":4447:4471   */\n      tag_383\n      jump\t// in\n    tag_490:\n        /* \"#utility.yul\":4442:4445   */\n      dup3\n        /* \"#utility.yul\":4435:4472   */\n      mstore\n        /* \"#utility.yul\":4360:4478   */\n      pop\n      pop\n      jump\t// out\n        /* \"#utility.yul\":4484:4706   */\n    tag_50:\n        /* \"#utility.yul\":4577:4581   */\n      0x00\n        /* \"#utility.yul\":4615:4617   */\n      0x20\n        /* \"#utility.yul\":4604:4613   */\n      dup3\n        /* \"#utility.yul\":4600:4618   */\n      add\n        /* \"#utility.yul\":4592:4618   */\n      swap1\n      pop\n        /* \"#utility.yul\":4628:4699   */\n      tag_492\n        /* \"#utility.yul\":4696:4697   */\n      0x00\n        /* \"#utility.yul\":4685:4694   */\n      dup4\n        /* \"#utility.yul\":4681:4698   */\n      add\n        /* \"#utility.yul\":4672:4678   */\n      dup5\n        /* \"#utility.yul\":4628:4699   */\n      tag_396\n      jump\t// in\n    tag_492:\n        /* \"#utility.yul\":4484:4706   */\n      swap3\n      swap2\n      pop\n      pop\n      jump\t// out\n        /* \"#utility.yul\":4712:4830   */\n    tag_397:\n        /* \"#utility.yul\":4799:4823   */\n      tag_494\n        /* \"#utility.yul\":4817:4822   */\n      dup2\n        /* \"#utility.yul\":4799:4823   */\n      tag_386\n      jump\t// in\n    tag_494:\n        /* \"#utility.yul\":4794:4797   */\n      dup3\n        /* \"#utility.yul\":4787:4824   */\n      mstore\n        /* \"#utility.yul\":4712:4830   */\n      pop\n      pop\n      jump\t// out\n        /* \"#utility.yul\":4836:5058   */\n    tag_65:\n        /* \"#utility.yul\":4929:4933   */\n      0x00\n        /* \"#utility.yul\":4967:4969   */\n      0x20\n        /* \"#utility.yul\":4956:4965   */\n      dup3\n        /* \"#utility.yul\":4952:4970   */\n      add\n        /* \"#utility.yul\":4944:4970   */\n      swap1\n      pop\n        /* \"#utility.yul\":4980:5051   */\n      tag_496\n        /* \"#utility.yul\":5048:5049   */\n      0x00\n        /* \"#utility.yul\":5037:5046   */\n      dup4\n        /* \"#utility.yul\":5033:5050   */\n      add\n        /* \"#utility.yul\":5024:5030   */\n      dup5\n        /* \"#utility.yul\":4980:5051   */\n      tag_397\n      jump\t// in\n    tag_496:\n        /* \"#utility.yul\":4836:5058   */\n      swap3\n      swap2\n      pop\n      pop\n      jump\t// out\n        /* \"#utility.yul\":5064:5181   */\n    tag_398:\n        /* \"#utility.yul\":5173:5174   */\n      0x00\n        /* \"#utility.yul\":5170:5171   */\n      dup1\n        /* \"#utility.yul\":5163:5175   */\n      revert\n        /* \"#utility.yul\":5187:5304   */\n    tag_399:\n        /* \"#utility.yul\":5296:5297   */\n      0x00\n        /* \"#utility.yul\":5293:5294   */\n      dup1\n        /* \"#utility.yul\":5286:5298   */\n      revert\n        /* \"#utility.yul\":5310:5412   */\n    tag_400:\n        /* \"#utility.yul\":5351:5357   */\n      0x00\n        /* \"#utility.yul\":5402:5404   */\n      0x1f\n        /* \"#utility.yul\":5398:5405   */\n      not\n        /* \"#utility.yul\":5393:5395   */\n      0x1f\n        /* \"#utility.yul\":5386:5391   */\n      dup4\n        /* \"#utility.yul\":5382:5396   */\n      add\n        /* \"#utility.yul\":5378:5406   */\n      and\n        /* \"#utility.yul\":5368:5406   */\n      swap1\n      pop\n        /* \"#utility.yul\":5310:5412   */\n      swap2\n      swap1\n      pop\n      jump\t// out\n        /* \"#utility.yul\":5418:5598   */\n    tag_183:\n        /* \"#utility.yul\":5466:5543   */\n      0x4e487b7100000000000000000000000000000000000000000000000000000000\n        /* \"#utility.yul\":5463:5464   */\n      0x00\n        /* \"#utility.yul\":5456:5544   */\n      mstore\n        /* \"#utility.yul\":5563:5567   */\n      0x41\n        /* \"#utility.yul\":5560:5561   */\n      0x04\n        /* \"#utility.yul\":5553:5568   */\n      mstore\n        /* \"#utility.yul\":5587:5591   */\n      0x24\n        /* \"#utility.yul\":5584:5585   */\n      0x00\n        /* \"#utility.yul\":5577:5592   */\n      revert\n        /* \"#utility.yul\":5604:5885   */\n    tag_401:\n        /* \"#utility.yul\":5687:5714   */\n      tag_502\n        /* \"#utility.yul\":5709:5713   */\n      dup3\n        /* \"#utility.yul\":5687:5714   */\n      tag_400\n      jump\t// in\n    tag_502:\n        /* \"#utility.yul\":5679:5685   */\n      dup2\n        /* \"#utility.yul\":5675:5715   */\n      add\n        /* \"#utility.yul\":5817:5823   */\n      dup2\n        /* \"#utility.yul\":5805:5815   */\n      dup2\n        /* \"#utility.yul\":5802:5824   */\n      lt\n        /* \"#utility.yul\":5781:5799   */\n      0xffffffffffffffff\n        /* \"#utility.yul\":5769:5779   */\n      dup3\n        /* \"#utility.yul\":5766:5800   */\n      gt\n        /* \"#utility.yul\":5763:5825   */\n      or\n        /* \"#utility.yul\":5760:5848   */\n      iszero\n      tag_503\n      jumpi\n        /* \"#utility.yul\":5828:5846   */\n      tag_504\n      tag_183\n      jump\t// in\n    tag_504:\n        /* \"#utility.yul\":5760:5848   */\n    tag_503:\n        /* \"#utility.yul\":5868:5878   */\n      dup1\n        /* \"#utility.yul\":5864:5866   */\n      0x40\n        /* \"#utility.yul\":5857:5879   */\n      mstore\n        /* \"#utility.yul\":5647:5885   */\n      pop\n        /* \"#utility.yul\":5604:5885   */\n      pop\n      pop\n      jump\t// out\n        /* \"#utility.yul\":5891:6020   */\n    tag_402:\n        /* \"#utility.yul\":5925:5931   */\n      0x00\n        /* \"#utility.yul\":5952:5972   */\n      tag_506\n      tag_379\n      jump\t// in\n    tag_506:\n        /* \"#utility.yul\":5942:5972   */\n      swap1\n      pop\n        /* \"#utility.yul\":5981:6014   */\n      tag_507\n        /* \"#utility.yul\":6009:6013   */\n      dup3\n        /* \"#utility.yul\":6001:6007   */\n      dup3\n        /* \"#utility.yul\":5981:6014   */\n      tag_401\n      jump\t// in\n    tag_507:\n        /* \"#utility.yul\":5891:6020   */\n      swap2\n      swap1\n      pop\n      jump\t// out\n        /* \"#utility.yul\":6026:6334   */\n    tag_403:\n        /* \"#utility.yul\":6088:6092   */\n      0x00\n        /* \"#utility.yul\":6178:6196   */\n      0xffffffffffffffff\n        /* \"#utility.yul\":6170:6176   */\n      dup3\n        /* \"#utility.yul\":6167:6197   */\n      gt\n        /* \"#utility.yul\":6164:6220   */\n      iszero\n      tag_509\n      jumpi\n        /* \"#utility.yul\":6200:6218   */\n      tag_510\n      tag_183\n      jump\t// in\n    tag_510:\n        /* \"#utility.yul\":6164:6220   */\n    tag_509:\n        /* \"#utility.yul\":6238:6267   */\n      tag_511\n        /* \"#utility.yul\":6260:6266   */\n      dup3\n        /* \"#utility.yul\":6238:6267   */\n      tag_400\n      jump\t// in\n    tag_511:\n        /* \"#utility.yul\":6230:6267   */\n      swap1\n      pop\n        /* \"#utility.yul\":6322:6326   */\n      0x20\n        /* \"#utility.yul\":6316:6320   */\n      dup2\n        /* \"#utility.yul\":6312:6327   */\n      add\n        /* \"#utility.yul\":6304:6327   */\n      swap1\n      pop\n        /* \"#utility.yul\":6026:6334   */\n      swap2\n      swap1\n      pop\n      jump\t// out\n        /* \"#utility.yul\":6340:6494   */\n    tag_404:\n        /* \"#utility.yul\":6424:6430   */\n      dup3\n        /* \"#utility.yul\":6419:6422   */\n      dup2\n        /* \"#utility.yul\":6414:6417   */\n      dup4\n        /* \"#utility.yul\":6401:6431   */\n      calldatacopy\n        /* \"#utility.yul\":6486:6487   */\n      0x00\n        /* \"#utility.yul\":6477:6483   */\n      dup4\n        /* \"#utility.yul\":6472:6475   */\n      dup4\n        /* \"#utility.yul\":6468:6484   */\n      add\n        /* \"#utility.yul\":6461:6488   */\n      mstore\n        /* \"#utility.yul\":6340:6494   */\n      pop\n      pop\n      pop\n      jump\t// out\n        /* \"#utility.yul\":6500:6912   */\n    tag_405:\n        /* \"#utility.yul\":6578:6583   */\n      0x00\n        /* \"#utility.yul\":6603:6669   */\n      tag_514\n        /* \"#utility.yul\":6619:6668   */\n      tag_515\n        /* \"#utility.yul\":6661:6667   */\n      dup5\n        /* \"#utility.yul\":6619:6668   */\n      tag_403\n      jump\t// in\n    tag_515:\n        /* \"#utility.yul\":6603:6669   */\n      tag_402\n      jump\t// in\n    tag_514:\n        /* \"#utility.yul\":6594:6669   */\n      swap1\n      pop\n        /* \"#utility.yul\":6692:6698   */\n      dup3\n        /* \"#utility.yul\":6685:6690   */\n      dup2\n        /* \"#utility.yul\":6678:6699   */\n      mstore\n        /* \"#utility.yul\":6730:6734   */\n      0x20\n        /* \"#utility.yul\":6723:6728   */\n      dup2\n        /* \"#utility.yul\":6719:6735   */\n      add\n        /* \"#utility.yul\":6768:6771   */\n      dup5\n        /* \"#utility.yul\":6759:6765   */\n      dup5\n        /* \"#utility.yul\":6754:6757   */\n      dup5\n        /* \"#utility.yul\":6750:6766   */\n      add\n        /* \"#utility.yul\":6747:6772   */\n      gt\n        /* \"#utility.yul\":6744:6856   */\n      iszero\n      tag_516\n      jumpi\n        /* \"#utility.yul\":6775:6854   */\n      tag_517\n      tag_399\n      jump\t// in\n    tag_517:\n        /* \"#utility.yul\":6744:6856   */\n    tag_516:\n        /* \"#utility.yul\":6865:6906   */\n      tag_518\n        /* \"#utility.yul\":6899:6905   */\n      dup5\n        /* \"#utility.yul\":6894:6897   */\n      dup3\n        /* \"#utility.yul\":6889:6892   */\n      dup6\n        /* \"#utility.yul\":6865:6906   */\n      tag_404\n      jump\t// in\n    tag_518:\n        /* \"#utility.yul\":6584:6912   */\n      pop\n        /* \"#utility.yul\":6500:6912   */\n      swap4\n      swap3\n      pop\n      pop\n      pop\n      jump\t// out\n        /* \"#utility.yul\":6932:7272   */\n    tag_406:\n        /* \"#utility.yul\":6988:6993   */\n      0x00\n        /* \"#utility.yul\":7037:7040   */\n      dup3\n        /* \"#utility.yul\":7030:7034   */\n      0x1f\n        /* \"#utility.yul\":7022:7028   */\n      dup4\n        /* \"#utility.yul\":7018:7035   */\n      add\n        /* \"#utility.yul\":7014:7041   */\n      slt\n        /* \"#utility.yul\":7004:7126   */\n      tag_520\n      jumpi\n        /* \"#utility.yul\":7045:7124   */\n      tag_521\n      tag_398\n      jump\t// in\n    tag_521:\n        /* \"#utility.yul\":7004:7126   */\n    tag_520:\n        /* \"#utility.yul\":7162:7168   */\n      dup2\n        /* \"#utility.yul\":7149:7169   */\n      calldataload\n        /* \"#utility.yul\":7187:7266   */\n      tag_522\n        /* \"#utility.yul\":7262:7265   */\n      dup5\n        /* \"#utility.yul\":7254:7260   */\n      dup3\n        /* \"#utility.yul\":7247:7251   */\n      0x20\n        /* \"#utility.yul\":7239:7245   */\n      dup7\n        /* \"#utility.yul\":7235:7252   */\n      add\n        /* \"#utility.yul\":7187:7266   */\n      tag_405\n      jump\t// in\n    tag_522:\n        /* \"#utility.yul\":7178:7266   */\n      swap2\n      pop\n        /* \"#utility.yul\":6994:7272   */\n      pop\n        /* \"#utility.yul\":6932:7272   */\n      swap3\n      swap2\n      pop\n      pop\n      jump\t// out\n        /* \"#utility.yul\":7278:7932   */\n    tag_120:\n        /* \"#utility.yul\":7356:7362   */\n      0x00\n        /* \"#utility.yul\":7364:7370   */\n      dup1\n        /* \"#utility.yul\":7413:7415   */\n      0x40\n        /* \"#utility.yul\":7401:7410   */\n      dup4\n        /* \"#utility.yul\":7392:7399   */\n      dup6\n        /* \"#utility.yul\":7388:7411   */\n      sub\n        /* \"#utility.yul\":7384:7416   */\n      slt\n        /* \"#utility.yul\":7381:7500   */\n      iszero\n      tag_524\n      jumpi\n        /* \"#utility.yul\":7419:7498   */\n      tag_525\n      tag_380\n      jump\t// in\n    tag_525:\n        /* \"#utility.yul\":7381:7500   */\n    tag_524:\n        /* \"#utility.yul\":7539:7540   */\n      0x00\n        /* \"#utility.yul\":7564:7617   */\n      tag_526\n        /* \"#utility.yul\":7609:7616   */\n      dup6\n        /* \"#utility.yul\":7600:7606   */\n      dup3\n        /* \"#utility.yul\":7589:7598   */\n      dup7\n        /* \"#utility.yul\":7585:7607   */\n      add\n        /* \"#utility.yul\":7564:7617   */\n      tag_385\n      jump\t// in\n    tag_526:\n        /* \"#utility.yul\":7554:7617   */\n      swap3\n      pop\n        /* \"#utility.yul\":7510:7627   */\n      pop\n        /* \"#utility.yul\":7694:7696   */\n      0x20\n        /* \"#utility.yul\":7683:7692   */\n      dup4\n        /* \"#utility.yul\":7679:7697   */\n      add\n        /* \"#utility.yul\":7666:7698   */\n      calldataload\n        /* \"#utility.yul\":7725:7743   */\n      0xffffffffffffffff\n        /* \"#utility.yul\":7717:7723   */\n      dup2\n        /* \"#utility.yul\":7714:7744   */\n      gt\n        /* \"#utility.yul\":7711:7828   */\n      iszero\n      tag_527\n      jumpi\n        /* \"#utility.yul\":7747:7826   */\n      tag_528\n      tag_381\n      jump\t// in\n    tag_528:\n        /* \"#utility.yul\":7711:7828   */\n    tag_527:\n        /* \"#utility.yul\":7852:7915   */\n      tag_529\n        /* \"#utility.yul\":7907:7914   */\n      dup6\n        /* \"#utility.yul\":7898:7904   */\n      dup3\n        /* \"#utility.yul\":7887:7896   */\n      dup7\n        /* \"#utility.yul\":7883:7905   */\n      add\n        /* \"#utility.yul\":7852:7915   */\n      tag_406\n      jump\t// in\n    tag_529:\n        /* \"#utility.yul\":7842:7915   */\n      swap2\n      pop\n        /* \"#utility.yul\":7637:7925   */\n      pop\n        /* \"#utility.yul\":7278:7932   */\n      swap3\n      pop\n      swap3\n      swap1\n      pop\n      jump\t// out\n        /* \"#utility.yul\":7938:8042   */\n    tag_407:\n        /* \"#utility.yul\":7983:7990   */\n      0x00\n        /* \"#utility.yul\":8012:8036   */\n      tag_531\n        /* \"#utility.yul\":8030:8035   */\n      dup3\n        /* \"#utility.yul\":8012:8036   */\n      tag_382\n      jump\t// in\n    tag_531:\n        /* \"#utility.yul\":8001:8036   */\n      swap1\n      pop\n        /* \"#utility.yul\":7938:8042   */\n      swap2\n      swap1\n      pop\n      jump\t// out\n        /* \"#utility.yul\":8048:8186   */\n    tag_408:\n        /* \"#utility.yul\":8129:8161   */\n      tag_533\n        /* \"#utility.yul\":8155:8160   */\n      dup2\n        /* \"#utility.yul\":8129:8161   */\n      tag_407\n      jump\t// in\n    tag_533:\n        /* \"#utility.yul\":8122:8127   */\n      dup2\n        /* \"#utility.yul\":8119:8162   */\n      eq\n        /* \"#utility.yul\":8109:8180   */\n      tag_534\n      jumpi\n        /* \"#utility.yul\":8176:8177   */\n      0x00\n        /* \"#utility.yul\":8173:8174   */\n      dup1\n        /* \"#utility.yul\":8166:8178   */\n      revert\n        /* \"#utility.yul\":8109:8180   */\n    tag_534:\n        /* \"#utility.yul\":8048:8186   */\n      pop\n      jump\t// out\n        /* \"#utility.yul\":8192:8347   */\n    tag_409:\n        /* \"#utility.yul\":8246:8251   */\n      0x00\n        /* \"#utility.yul\":8284:8290   */\n      dup2\n        /* \"#utility.yul\":8271:8291   */\n      calldataload\n        /* \"#utility.yul\":8262:8291   */\n      swap1\n      pop\n        /* \"#utility.yul\":8300:8341   */\n      tag_536\n        /* \"#utility.yul\":8335:8340   */\n      dup2\n        /* \"#utility.yul\":8300:8341   */\n      tag_408\n      jump\t// in\n    tag_536:\n        /* \"#utility.yul\":8192:8347   */\n      swap3\n      swap2\n      pop\n      pop\n      jump\t// out\n        /* \"#utility.yul\":8353:9494   */\n    tag_132:\n        /* \"#utility.yul\":8467:8473   */\n      0x00\n        /* \"#utility.yul\":8475:8481   */\n      dup1\n        /* \"#utility.yul\":8483:8489   */\n      0x00\n        /* \"#utility.yul\":8491:8497   */\n      dup1\n        /* \"#utility.yul\":8540:8543   */\n      0x80\n        /* \"#utility.yul\":8528:8537   */\n      dup6\n        /* \"#utility.yul\":8519:8526   */\n      dup8\n        /* \"#utility.yul\":8515:8538   */\n      sub\n        /* \"#utility.yul\":8511:8544   */\n      slt\n        /* \"#utility.yul\":8508:8628   */\n      iszero\n      tag_538\n      jumpi\n        /* \"#utility.yul\":8547:8626   */\n      tag_539\n      tag_380\n      jump\t// in\n    tag_539:\n        /* \"#utility.yul\":8508:8628   */\n    tag_538:\n        /* \"#utility.yul\":8667:8668   */\n      0x00\n        /* \"#utility.yul\":8692:8745   */\n      tag_540\n        /* \"#utility.yul\":8737:8744   */\n      dup8\n        /* \"#utility.yul\":8728:8734   */\n      dup3\n        /* \"#utility.yul\":8717:8726   */\n      dup9\n        /* \"#utility.yul\":8713:8735   */\n      add\n        /* \"#utility.yul\":8692:8745   */\n      tag_385\n      jump\t// in\n    tag_540:\n        /* \"#utility.yul\":8682:8745   */\n      swap5\n      pop\n        /* \"#utility.yul\":8638:8755   */\n      pop\n        /* \"#utility.yul\":8822:8824   */\n      0x20\n        /* \"#utility.yul\":8811:8820   */\n      dup6\n        /* \"#utility.yul\":8807:8825   */\n      add\n        /* \"#utility.yul\":8794:8826   */\n      calldataload\n        /* \"#utility.yul\":8853:8871   */\n      0xffffffffffffffff\n        /* \"#utility.yul\":8845:8851   */\n      dup2\n        /* \"#utility.yul\":8842:8872   */\n      gt\n        /* \"#utility.yul\":8839:8956   */\n      iszero\n      tag_541\n      jumpi\n        /* \"#utility.yul\":8875:8954   */\n      tag_542\n      tag_381\n      jump\t// in\n    tag_542:\n        /* \"#utility.yul\":8839:8956   */\n    tag_541:\n        /* \"#utility.yul\":8980:9043   */\n      tag_543\n        /* \"#utility.yul\":9035:9042   */\n      dup8\n        /* \"#utility.yul\":9026:9032   */\n      dup3\n        /* \"#utility.yul\":9015:9024   */\n      dup9\n        /* \"#utility.yul\":9011:9033   */\n      add\n        /* \"#utility.yul\":8980:9043   */\n      tag_406\n      jump\t// in\n    tag_543:\n        /* \"#utility.yul\":8970:9043   */\n      swap4\n      pop\n        /* \"#utility.yul\":8765:9053   */\n      pop\n        /* \"#utility.yul\":9120:9122   */\n      0x40\n        /* \"#utility.yul\":9109:9118   */\n      dup6\n        /* \"#utility.yul\":9105:9123   */\n      add\n        /* \"#utility.yul\":9092:9124   */\n      calldataload\n        /* \"#utility.yul\":9151:9169   */\n      0xffffffffffffffff\n        /* \"#utility.yul\":9143:9149   */\n      dup2\n        /* \"#utility.yul\":9140:9170   */\n      gt\n        /* \"#utility.yul\":9137:9254   */\n      iszero\n      tag_544\n      jumpi\n        /* \"#utility.yul\":9173:9252   */\n      tag_545\n      tag_381\n      jump\t// in\n    tag_545:\n        /* \"#utility.yul\":9137:9254   */\n    tag_544:\n        /* \"#utility.yul\":9278:9341   */\n      tag_546\n        /* \"#utility.yul\":9333:9340   */\n      dup8\n        /* \"#utility.yul\":9324:9330   */\n      dup3\n        /* \"#utility.yul\":9313:9322   */\n      dup9\n        /* \"#utility.yul\":9309:9331   */\n      add\n        /* \"#utility.yul\":9278:9341   */\n      tag_406\n      jump\t// in\n    tag_546:\n        /* \"#utility.yul\":9268:9341   */\n      swap3\n      pop\n        /* \"#utility.yul\":9063:9351   */\n      pop\n        /* \"#utility.yul\":9390:9392   */\n      0x60\n        /* \"#utility.yul\":9416:9477   */\n      tag_547\n        /* \"#utility.yul\":9469:9476   */\n      dup8\n        /* \"#utility.yul\":9460:9466   */\n      dup3\n        /* \"#utility.yul\":9449:9458   */\n      dup9\n        /* \"#utility.yul\":9445:9467   */\n      add\n        /* \"#utility.yul\":9416:9477   */\n      tag_409\n      jump\t// in\n    tag_547:\n        /* \"#utility.yul\":9406:9477   */\n      swap2\n      pop\n        /* \"#utility.yul\":9361:9487   */\n      pop\n        /* \"#utility.yul\":8353:9494   */\n      swap3\n      swap6\n      swap2\n      swap5\n      pop\n      swap3\n      pop\n      jump\t// out\n        /* \"#utility.yul\":9500:9643   */\n    tag_410:\n        /* \"#utility.yul\":9557:9562   */\n      0x00\n        /* \"#utility.yul\":9588:9594   */\n      dup2\n        /* \"#utility.yul\":9582:9595   */\n      mload\n        /* \"#utility.yul\":9573:9595   */\n      swap1\n      pop\n        /* \"#utility.yul\":9604:9637   */\n      tag_549\n        /* \"#utility.yul\":9631:9636   */\n      dup2\n        /* \"#utility.yul\":9604:9637   */\n      tag_384\n      jump\t// in\n    tag_549:\n        /* \"#utility.yul\":9500:9643   */\n      swap3\n      swap2\n      pop\n      pop\n      jump\t// out\n        /* \"#utility.yul\":9649:10000   */\n    tag_138:\n        /* \"#utility.yul\":9719:9725   */\n      0x00\n        /* \"#utility.yul\":9768:9770   */\n      0x20\n        /* \"#utility.yul\":9756:9765   */\n      dup3\n        /* \"#utility.yul\":9747:9754   */\n      dup5\n        /* \"#utility.yul\":9743:9766   */\n      sub\n        /* \"#utility.yul\":9739:9771   */\n      slt\n        /* \"#utility.yul\":9736:9855   */\n      iszero\n      tag_551\n      jumpi\n        /* \"#utility.yul\":9774:9853   */\n      tag_552\n      tag_380\n      jump\t// in\n    tag_552:\n        /* \"#utility.yul\":9736:9855   */\n    tag_551:\n        /* \"#utility.yul\":9894:9895   */\n      0x00\n        /* \"#utility.yul\":9919:9983   */\n      tag_553\n        /* \"#utility.yul\":9975:9982   */\n      dup5\n        /* \"#utility.yul\":9966:9972   */\n      dup3\n        /* \"#utility.yul\":9955:9964   */\n      dup6\n        /* \"#utility.yul\":9951:9973   */\n      add\n        /* \"#utility.yul\":9919:9983   */\n      tag_410\n      jump\t// in\n    tag_553:\n        /* \"#utility.yul\":9909:9983   */\n      swap2\n      pop\n        /* \"#utility.yul\":9865:9993   */\n      pop\n        /* \"#utility.yul\":9649:10000   */\n      swap3\n      swap2\n      pop\n      pop\n      jump\t// out\n        /* \"#utility.yul\":10006:10175   */\n    tag_411:\n        /* \"#utility.yul\":10090:10101   */\n      0x00\n        /* \"#utility.yul\":10124:10130   */\n      dup3\n        /* \"#utility.yul\":10119:10122   */\n      dup3\n        /* \"#utility.yul\":10112:10131   */\n      mstore\n        /* \"#utility.yul\":10164:10168   */\n      0x20\n        /* \"#utility.yul\":10159:10162   */\n      dup3\n        /* \"#utility.yul\":10155:10169   */\n      add\n        /* \"#utility.yul\":10140:10169   */\n      swap1\n      pop\n        /* \"#utility.yul\":10006:10175   */\n      swap3\n      swap2\n      pop\n      pop\n      jump\t// out\n        /* \"#utility.yul\":10181:10424   */\n    tag_412:\n        /* \"#utility.yul\":10321:10355   */\n      0x4f6e6c7920636f6e747261637420726566657265652063616e20617070726f76\n        /* \"#utility.yul\":10317:10318   */\n      0x00\n        /* \"#utility.yul\":10309:10315   */\n      dup3\n        /* \"#utility.yul\":10305:10319   */\n      add\n        /* \"#utility.yul\":10298:10356   */\n      mstore\n        /* \"#utility.yul\":10390:10416   */\n      0x65207265717565737420666f7220636f6d706c6574696f6e0000000000000000\n        /* \"#utility.yul\":10385:10387   */\n      0x20\n        /* \"#utility.yul\":10377:10383   */\n      dup3\n        /* \"#utility.yul\":10373:10388   */\n      add\n        /* \"#utility.yul\":10366:10417   */\n      mstore\n        /* \"#utility.yul\":10181:10424   */\n      pop\n      jump\t// out\n        /* \"#utility.yul\":10430:10796   */\n    tag_413:\n        /* \"#utility.yul\":10572:10575   */\n      0x00\n        /* \"#utility.yul\":10593:10660   */\n      tag_557\n        /* \"#utility.yul\":10657:10659   */\n      0x38\n        /* \"#utility.yul\":10652:10655   */\n      dup4\n        /* \"#utility.yul\":10593:10660   */\n      tag_411\n      jump\t// in\n    tag_557:\n        /* \"#utility.yul\":10586:10660   */\n      swap2\n      pop\n        /* \"#utility.yul\":10669:10762   */\n      tag_558\n        /* \"#utility.yul\":10758:10761   */\n      dup3\n        /* \"#utility.yul\":10669:10762   */\n      tag_412\n      jump\t// in\n    tag_558:\n        /* \"#utility.yul\":10787:10789   */\n      0x40\n        /* \"#utility.yul\":10782:10785   */\n      dup3\n        /* \"#utility.yul\":10778:10790   */\n      add\n        /* \"#utility.yul\":10771:10790   */\n      swap1\n      pop\n        /* \"#utility.yul\":10430:10796   */\n      swap2\n      swap1\n      pop\n      jump\t// out\n        /* \"#utility.yul\":10802:11221   */\n    tag_147:\n        /* \"#utility.yul\":10968:10972   */\n      0x00\n        /* \"#utility.yul\":11006:11008   */\n      0x20\n        /* \"#utility.yul\":10995:11004   */\n      dup3\n        /* \"#utility.yul\":10991:11009   */\n      add\n        /* \"#utility.yul\":10983:11009   */\n      swap1\n      pop\n        /* \"#utility.yul\":11055:11064   */\n      dup2\n        /* \"#utility.yul\":11049:11053   */\n      dup2\n        /* \"#utility.yul\":11045:11065   */\n      sub\n        /* \"#utility.yul\":11041:11042   */\n      0x00\n        /* \"#utility.yul\":11030:11039   */\n      dup4\n        /* \"#utility.yul\":11026:11043   */\n      add\n        /* \"#utility.yul\":11019:11066   */\n      mstore\n        /* \"#utility.yul\":11083:11214   */\n      tag_560\n        /* \"#utility.yul\":11209:11213   */\n      dup2\n        /* \"#utility.yul\":11083:11214   */\n      tag_413\n      jump\t// in\n    tag_560:\n        /* \"#utility.yul\":11075:11214   */\n      swap1\n      pop\n        /* \"#utility.yul\":10802:11221   */\n      swap2\n      swap1\n      pop\n      jump\t// out\n        /* \"#utility.yul\":11227:11368   */\n    tag_414:\n        /* \"#utility.yul\":11309:11316   */\n      0x00\n        /* \"#utility.yul\":11338:11362   */\n      tag_562\n        /* \"#utility.yul\":11356:11361   */\n      dup3\n        /* \"#utility.yul\":11338:11362   */\n      tag_383\n      jump\t// in\n    tag_562:\n        /* \"#utility.yul\":11327:11362   */\n      swap1\n      pop\n        /* \"#utility.yul\":11227:11368   */\n      swap2\n      swap1\n      pop\n      jump\t// out\n        /* \"#utility.yul\":11374:11586   */\n    tag_415:\n        /* \"#utility.yul\":11492:11561   */\n      tag_564\n        /* \"#utility.yul\":11555:11560   */\n      dup2\n        /* \"#utility.yul\":11492:11561   */\n      tag_414\n      jump\t// in\n    tag_564:\n        /* \"#utility.yul\":11485:11490   */\n      dup2\n        /* \"#utility.yul\":11482:11562   */\n      eq\n        /* \"#utility.yul\":11472:11580   */\n      tag_565\n      jumpi\n        /* \"#utility.yul\":11576:11577   */\n      0x00\n        /* \"#utility.yul\":11573:11574   */\n      dup1\n        /* \"#utility.yul\":11566:11578   */\n      revert\n        /* \"#utility.yul\":11472:11580   */\n    tag_565:\n        /* \"#utility.yul\":11374:11586   */\n      pop\n      jump\t// out\n        /* \"#utility.yul\":11592:11825   */\n    tag_416:\n        /* \"#utility.yul\":11694:11699   */\n      0x00\n        /* \"#utility.yul\":11725:11731   */\n      dup2\n        /* \"#utility.yul\":11719:11732   */\n      mload\n        /* \"#utility.yul\":11710:11732   */\n      swap1\n      pop\n        /* \"#utility.yul\":11741:11819   */\n      tag_567\n        /* \"#utility.yul\":11813:11818   */\n      dup2\n        /* \"#utility.yul\":11741:11819   */\n      tag_415\n      jump\t// in\n    tag_567:\n        /* \"#utility.yul\":11592:11825   */\n      swap3\n      swap2\n      pop\n      pop\n      jump\t// out\n        /* \"#utility.yul\":11831:12272   */\n    tag_151:\n        /* \"#utility.yul\":11946:11952   */\n      0x00\n        /* \"#utility.yul\":11995:11997   */\n      0x20\n        /* \"#utility.yul\":11983:11992   */\n      dup3\n        /* \"#utility.yul\":11974:11981   */\n      dup5\n        /* \"#utility.yul\":11970:11993   */\n      sub\n        /* \"#utility.yul\":11966:11998   */\n      slt\n        /* \"#utility.yul\":11963:12082   */\n      iszero\n      tag_569\n      jumpi\n        /* \"#utility.yul\":12001:12080   */\n      tag_570\n      tag_380\n      jump\t// in\n    tag_570:\n        /* \"#utility.yul\":11963:12082   */\n    tag_569:\n        /* \"#utility.yul\":12121:12122   */\n      0x00\n        /* \"#utility.yul\":12146:12255   */\n      tag_571\n        /* \"#utility.yul\":12247:12254   */\n      dup5\n        /* \"#utility.yul\":12238:12244   */\n      dup3\n        /* \"#utility.yul\":12227:12236   */\n      dup6\n        /* \"#utility.yul\":12223:12245   */\n      add\n        /* \"#utility.yul\":12146:12255   */\n      tag_416\n      jump\t// in\n    tag_571:\n        /* \"#utility.yul\":12136:12255   */\n      swap2\n      pop\n        /* \"#utility.yul\":12092:12265   */\n      pop\n        /* \"#utility.yul\":11831:12272   */\n      swap3\n      swap2\n      pop\n      pop\n      jump\t// out\n        /* \"#utility.yul\":12278:12405   */\n    tag_417:\n        /* \"#utility.yul\":12346:12353   */\n      0x00\n        /* \"#utility.yul\":12375:12399   */\n      tag_573\n        /* \"#utility.yul\":12393:12398   */\n      dup3\n        /* \"#utility.yul\":12375:12399   */\n      tag_383\n      jump\t// in\n    tag_573:\n        /* \"#utility.yul\":12364:12399   */\n      swap1\n      pop\n        /* \"#utility.yul\":12278:12405   */\n      swap2\n      swap1\n      pop\n      jump\t// out\n        /* \"#utility.yul\":12411:12595   */\n    tag_418:\n        /* \"#utility.yul\":12515:12570   */\n      tag_575\n        /* \"#utility.yul\":12564:12569   */\n      dup2\n        /* \"#utility.yul\":12515:12570   */\n      tag_417\n      jump\t// in\n    tag_575:\n        /* \"#utility.yul\":12508:12513   */\n      dup2\n        /* \"#utility.yul\":12505:12571   */\n      eq\n        /* \"#utility.yul\":12495:12589   */\n      tag_576\n      jumpi\n        /* \"#utility.yul\":12585:12586   */\n      0x00\n        /* \"#utility.yul\":12582:12583   */\n      dup1\n        /* \"#utility.yul\":12575:12587   */\n      revert\n        /* \"#utility.yul\":12495:12589   */\n    tag_576:\n        /* \"#utility.yul\":12411:12595   */\n      pop\n      jump\t// out\n        /* \"#utility.yul\":12601:12806   */\n    tag_419:\n        /* \"#utility.yul\":12689:12694   */\n      0x00\n        /* \"#utility.yul\":12720:12726   */\n      dup2\n        /* \"#utility.yul\":12714:12727   */\n      mload\n        /* \"#utility.yul\":12705:12727   */\n      swap1\n      pop\n        /* \"#utility.yul\":12736:12800   */\n      tag_578\n        /* \"#utility.yul\":12794:12799   */\n      dup2\n        /* \"#utility.yul\":12736:12800   */\n      tag_418\n      jump\t// in\n    tag_578:\n        /* \"#utility.yul\":12601:12806   */\n      swap3\n      swap2\n      pop\n      pop\n      jump\t// out\n        /* \"#utility.yul\":12812:13225   */\n    tag_155:\n        /* \"#utility.yul\":12913:12919   */\n      0x00\n        /* \"#utility.yul\":12962:12964   */\n      0x20\n        /* \"#utility.yul\":12950:12959   */\n      dup3\n        /* \"#utility.yul\":12941:12948   */\n      dup5\n        /* \"#utility.yul\":12937:12960   */\n      sub\n        /* \"#utility.yul\":12933:12965   */\n      slt\n        /* \"#utility.yul\":12930:13049   */\n      iszero\n      tag_580\n      jumpi\n        /* \"#utility.yul\":12968:13047   */\n      tag_581\n      tag_380\n      jump\t// in\n    tag_581:\n        /* \"#utility.yul\":12930:13049   */\n    tag_580:\n        /* \"#utility.yul\":13088:13089   */\n      0x00\n        /* \"#utility.yul\":13113:13208   */\n      tag_582\n        /* \"#utility.yul\":13200:13207   */\n      dup5\n        /* \"#utility.yul\":13191:13197   */\n      dup3\n        /* \"#utility.yul\":13180:13189   */\n      dup6\n        /* \"#utility.yul\":13176:13198   */\n      add\n        /* \"#utility.yul\":13113:13208   */\n      tag_419\n      jump\t// in\n    tag_582:\n        /* \"#utility.yul\":13103:13208   */\n      swap2\n      pop\n        /* \"#utility.yul\":13059:13218   */\n      pop\n        /* \"#utility.yul\":12812:13225   */\n      swap3\n      swap2\n      pop\n      pop\n      jump\t// out\n        /* \"#utility.yul\":13231:13411   */\n    tag_420:\n        /* \"#utility.yul\":13371:13403   */\n      0x537461727420696e6465782063616e6e6f74206265206e656761746976650000\n        /* \"#utility.yul\":13367:13368   */\n      0x00\n        /* \"#utility.yul\":13359:13365   */\n      dup3\n        /* \"#utility.yul\":13355:13369   */\n      add\n        /* \"#utility.yul\":13348:13404   */\n      mstore\n        /* \"#utility.yul\":13231:13411   */\n      pop\n      jump\t// out\n        /* \"#utility.yul\":13417:13783   */\n    tag_421:\n        /* \"#utility.yul\":13559:13562   */\n      0x00\n        /* \"#utility.yul\":13580:13647   */\n      tag_585\n        /* \"#utility.yul\":13644:13646   */\n      0x1e\n        /* \"#utility.yul\":13639:13642   */\n      dup4\n        /* \"#utility.yul\":13580:13647   */\n      tag_411\n      jump\t// in\n    tag_585:\n        /* \"#utility.yul\":13573:13647   */\n      swap2\n      pop\n        /* \"#utility.yul\":13656:13749   */\n      tag_586\n        /* \"#utility.yul\":13745:13748   */\n      dup3\n        /* \"#utility.yul\":13656:13749   */\n      tag_420\n      jump\t// in\n    tag_586:\n        /* \"#utility.yul\":13774:13776   */\n      0x20\n        /* \"#utility.yul\":13769:13772   */\n      dup3\n        /* \"#utility.yul\":13765:13777   */\n      add\n        /* \"#utility.yul\":13758:13777   */\n      swap1\n      pop\n        /* \"#utility.yul\":13417:13783   */\n      swap2\n      swap1\n      pop\n      jump\t// out\n        /* \"#utility.yul\":13789:14208   */\n    tag_175:\n        /* \"#utility.yul\":13955:13959   */\n      0x00\n        /* \"#utility.yul\":13993:13995   */\n      0x20\n        /* \"#utility.yul\":13982:13991   */\n      dup3\n        /* \"#utility.yul\":13978:13996   */\n      add\n        /* \"#utility.yul\":13970:13996   */\n      swap1\n      pop\n        /* \"#utility.yul\":14042:14051   */\n      dup2\n        /* \"#utility.yul\":14036:14040   */\n      dup2\n        /* \"#utility.yul\":14032:14052   */\n      sub\n        /* \"#utility.yul\":14028:14029   */\n      0x00\n        /* \"#utility.yul\":14017:14026   */\n      dup4\n        /* \"#utility.yul\":14013:14030   */\n      add\n        /* \"#utility.yul\":14006:14053   */\n      mstore\n        /* \"#utility.yul\":14070:14201   */\n      tag_588\n        /* \"#utility.yul\":14196:14200   */\n      dup2\n        /* \"#utility.yul\":14070:14201   */\n      tag_421\n      jump\t// in\n    tag_588:\n        /* \"#utility.yul\":14062:14201   */\n      swap1\n      pop\n        /* \"#utility.yul\":13789:14208   */\n      swap2\n      swap1\n      pop\n      jump\t// out\n        /* \"#utility.yul\":14214:14440   */\n    tag_422:\n        /* \"#utility.yul\":14354:14388   */\n      0x456e6420696e6465782065786365656473207573657220616464726573736573\n        /* \"#utility.yul\":14350:14351   */\n      0x00\n        /* \"#utility.yul\":14342:14348   */\n      dup3\n        /* \"#utility.yul\":14338:14352   */\n      add\n        /* \"#utility.yul\":14331:14389   */\n      mstore\n        /* \"#utility.yul\":14423:14432   */\n      0x206c656e67746800000000000000000000000000000000000000000000000000\n        /* \"#utility.yul\":14418:14420   */\n      0x20\n        /* \"#utility.yul\":14410:14416   */\n      dup3\n        /* \"#utility.yul\":14406:14421   */\n      add\n        /* \"#utility.yul\":14399:14433   */\n      mstore\n        /* \"#utility.yul\":14214:14440   */\n      pop\n      jump\t// out\n        /* \"#utility.yul\":14446:14812   */\n    tag_423:\n        /* \"#utility.yul\":14588:14591   */\n      0x00\n        /* \"#utility.yul\":14609:14676   */\n      tag_591\n        /* \"#utility.yul\":14673:14675   */\n      0x27\n        /* \"#utility.yul\":14668:14671   */\n      dup4\n        /* \"#utility.yul\":14609:14676   */\n      tag_411\n      jump\t// in\n    tag_591:\n        /* \"#utility.yul\":14602:14676   */\n      swap2\n      pop\n        /* \"#utility.yul\":14685:14778   */\n      tag_592\n        /* \"#utility.yul\":14774:14777   */\n      dup3\n        /* \"#utility.yul\":14685:14778   */\n      tag_422\n      jump\t// in\n    tag_592:\n        /* \"#utility.yul\":14803:14805   */\n      0x40\n        /* \"#utility.yul\":14798:14801   */\n      dup3\n        /* \"#utility.yul\":14794:14806   */\n      add\n        /* \"#utility.yul\":14787:14806   */\n      swap1\n      pop\n        /* \"#utility.yul\":14446:14812   */\n      swap2\n      swap1\n      pop\n      jump\t// out\n        /* \"#utility.yul\":14818:15237   */\n    tag_178:\n        /* \"#utility.yul\":14984:14988   */\n      0x00\n        /* \"#utility.yul\":15022:15024   */\n      0x20\n        /* \"#utility.yul\":15011:15020   */\n      dup3\n        /* \"#utility.yul\":15007:15025   */\n      add\n        /* \"#utility.yul\":14999:15025   */\n      swap1\n      pop\n        /* \"#utility.yul\":15071:15080   */\n      dup2\n        /* \"#utility.yul\":15065:15069   */\n      dup2\n        /* \"#utility.yul\":15061:15081   */\n      sub\n        /* \"#utility.yul\":15057:15058   */\n      0x00\n        /* \"#utility.yul\":15046:15055   */\n      dup4\n        /* \"#utility.yul\":15042:15059   */\n      add\n        /* \"#utility.yul\":15035:15082   */\n      mstore\n        /* \"#utility.yul\":15099:15230   */\n      tag_594\n        /* \"#utility.yul\":15225:15229   */\n      dup2\n        /* \"#utility.yul\":15099:15230   */\n      tag_423\n      jump\t// in\n    tag_594:\n        /* \"#utility.yul\":15091:15230   */\n      swap1\n      pop\n        /* \"#utility.yul\":14818:15237   */\n      swap2\n      swap1\n      pop\n      jump\t// out\n        /* \"#utility.yul\":15243:15423   */\n    tag_424:\n        /* \"#utility.yul\":15291:15368   */\n      0x4e487b7100000000000000000000000000000000000000000000000000000000\n        /* \"#utility.yul\":15288:15289   */\n      0x00\n        /* \"#utility.yul\":15281:15369   */\n      mstore\n        /* \"#utility.yul\":15388:15392   */\n      0x11\n        /* \"#utility.yul\":15385:15386   */\n      0x04\n        /* \"#utility.yul\":15378:15393   */\n      mstore\n        /* \"#utility.yul\":15412:15416   */\n      0x24\n        /* \"#utility.yul\":15409:15410   */\n      0x00\n        /* \"#utility.yul\":15402:15417   */\n      revert\n        /* \"#utility.yul\":15429:15620   */\n    tag_180:\n        /* \"#utility.yul\":15469:15473   */\n      0x00\n        /* \"#utility.yul\":15489:15509   */\n      tag_597\n        /* \"#utility.yul\":15507:15508   */\n      dup3\n        /* \"#utility.yul\":15489:15509   */\n      tag_386\n      jump\t// in\n    tag_597:\n        /* \"#utility.yul\":15484:15509   */\n      swap2\n      pop\n        /* \"#utility.yul\":15523:15543   */\n      tag_598\n        /* \"#utility.yul\":15541:15542   */\n      dup4\n        /* \"#utility.yul\":15523:15543   */\n      tag_386\n      jump\t// in\n    tag_598:\n        /* \"#utility.yul\":15518:15543   */\n      swap3\n      pop\n        /* \"#utility.yul\":15562:15563   */\n      dup3\n        /* \"#utility.yul\":15559:15560   */\n      dup3\n        /* \"#utility.yul\":15556:15564   */\n      lt\n        /* \"#utility.yul\":15553:15587   */\n      iszero\n      tag_599\n      jumpi\n        /* \"#utility.yul\":15567:15585   */\n      tag_600\n      tag_424\n      jump\t// in\n    tag_600:\n        /* \"#utility.yul\":15553:15587   */\n    tag_599:\n        /* \"#utility.yul\":15612:15613   */\n      dup3\n        /* \"#utility.yul\":15609:15610   */\n      dup3\n        /* \"#utility.yul\":15605:15614   */\n      sub\n        /* \"#utility.yul\":15597:15614   */\n      swap1\n      pop\n        /* \"#utility.yul\":15429:15620   */\n      swap3\n      swap2\n      pop\n      pop\n      jump\t// out\n        /* \"#utility.yul\":15626:15806   */\n    tag_190:\n        /* \"#utility.yul\":15674:15751   */\n      0x4e487b7100000000000000000000000000000000000000000000000000000000\n        /* \"#utility.yul\":15671:15672   */\n      0x00\n        /* \"#utility.yul\":15664:15752   */\n      mstore\n        /* \"#utility.yul\":15771:15775   */\n      0x32\n        /* \"#utility.yul\":15768:15769   */\n      0x04\n        /* \"#utility.yul\":15761:15776   */\n      mstore\n        /* \"#utility.yul\":15795:15799   */\n      0x24\n        /* \"#utility.yul\":15792:15793   */\n      0x00\n        /* \"#utility.yul\":15785:15800   */\n      revert\n        /* \"#utility.yul\":15812:16045   */\n    tag_195:\n        /* \"#utility.yul\":15851:15854   */\n      0x00\n        /* \"#utility.yul\":15874:15898   */\n      tag_603\n        /* \"#utility.yul\":15892:15897   */\n      dup3\n        /* \"#utility.yul\":15874:15898   */\n      tag_386\n      jump\t// in\n    tag_603:\n        /* \"#utility.yul\":15865:15898   */\n      swap2\n      pop\n        /* \"#utility.yul\":15920:15986   */\n      0xffffffffffffffffffffffffffffffffffffffffffffffffffffffffffffffff\n        /* \"#utility.yul\":15913:15918   */\n      dup3\n        /* \"#utility.yul\":15910:15987   */\n      eq\n        /* \"#utility.yul\":15907:16010   */\n      iszero\n      tag_604\n      jumpi\n        /* \"#utility.yul\":15990:16008   */\n      tag_605\n      tag_424\n      jump\t// in\n    tag_605:\n        /* \"#utility.yul\":15907:16010   */\n    tag_604:\n        /* \"#utility.yul\":16037:16038   */\n      0x01\n        /* \"#utility.yul\":16030:16035   */\n      dup3\n        /* \"#utility.yul\":16026:16039   */\n      add\n        /* \"#utility.yul\":16019:16039   */\n      swap1\n      pop\n        /* \"#utility.yul\":15812:16045   */\n      swap2\n      swap1\n      pop\n      jump\t// out\n        /* \"#utility.yul\":16051:16150   */\n    tag_425:\n        /* \"#utility.yul\":16103:16109   */\n      0x00\n        /* \"#utility.yul\":16137:16142   */\n      dup2\n        /* \"#utility.yul\":16131:16143   */\n      mload\n        /* \"#utility.yul\":16121:16143   */\n      swap1\n      pop\n        /* \"#utility.yul\":16051:16150   */\n      swap2\n      swap1\n      pop\n      jump\t// out\n        /* \"#utility.yul\":16156:16463   */\n    tag_426:\n        /* \"#utility.yul\":16224:16225   */\n      0x00\n        /* \"#utility.yul\":16234:16347   */\n    tag_608:\n        /* \"#utility.yul\":16248:16254   */\n      dup4\n        /* \"#utility.yul\":16245:16246   */\n      dup2\n        /* \"#utility.yul\":16242:16255   */\n      lt\n        /* \"#utility.yul\":16234:16347   */\n      iszero\n      tag_610\n      jumpi\n        /* \"#utility.yul\":16333:16334   */\n      dup1\n        /* \"#utility.yul\":16328:16331   */\n      dup3\n        /* \"#utility.yul\":16324:16335   */\n      add\n        /* \"#utility.yul\":16318:16336   */\n      mload\n        /* \"#utility.yul\":16314:16315   */\n      dup2\n        /* \"#utility.yul\":16309:16312   */\n      dup5\n        /* \"#utility.yul\":16305:16316   */\n      add\n        /* \"#utility.yul\":16298:16337   */\n      mstore\n        /* \"#utility.yul\":16270:16272   */\n      0x20\n        /* \"#utility.yul\":16267:16268   */\n      dup2\n        /* \"#utility.yul\":16263:16273   */\n      add\n        /* \"#utility.yul\":16258:16273   */\n      swap1\n      pop\n        /* \"#utility.yul\":16234:16347   */\n      jump(tag_608)\n    tag_610:\n        /* \"#utility.yul\":16365:16371   */\n      dup4\n        /* \"#utility.yul\":16362:16363   */\n      dup2\n        /* \"#utility.yul\":16359:16372   */\n      gt\n        /* \"#utility.yul\":16356:16457   */\n      iszero\n      tag_611\n      jumpi\n        /* \"#utility.yul\":16445:16446   */\n      0x00\n        /* \"#utility.yul\":16436:16442   */\n      dup5\n        /* \"#utility.yul\":16431:16434   */\n      dup5\n        /* \"#utility.yul\":16427:16443   */\n      add\n        /* \"#utility.yul\":16420:16447   */\n      mstore\n        /* \"#utility.yul\":16356:16457   */\n    tag_611:\n        /* \"#utility.yul\":16205:16463   */\n      pop\n        /* \"#utility.yul\":16156:16463   */\n      pop\n      pop\n      pop\n      jump\t// out\n        /* \"#utility.yul\":16469:16833   */\n    tag_427:\n        /* \"#utility.yul\":16557:16560   */\n      0x00\n        /* \"#utility.yul\":16585:16624   */\n      tag_613\n        /* \"#utility.yul\":16618:16623   */\n      dup3\n        /* \"#utility.yul\":16585:16624   */\n      tag_425\n      jump\t// in\n    tag_613:\n        /* \"#utility.yul\":16640:16711   */\n      tag_614\n        /* \"#utility.yul\":16704:16710   */\n      dup2\n        /* \"#utility.yul\":16699:16702   */\n      dup6\n        /* \"#utility.yul\":16640:16711   */\n      tag_411\n      jump\t// in\n    tag_614:\n        /* \"#utility.yul\":16633:16711   */\n      swap4\n      pop\n        /* \"#utility.yul\":16720:16772   */\n      tag_615\n        /* \"#utility.yul\":16765:16771   */\n      dup2\n        /* \"#utility.yul\":16760:16763   */\n      dup6\n        /* \"#utility.yul\":16753:16757   */\n      0x20\n        /* \"#utility.yul\":16746:16751   */\n      dup7\n        /* \"#utility.yul\":16742:16758   */\n      add\n        /* \"#utility.yul\":16720:16772   */\n      tag_426\n      jump\t// in\n    tag_615:\n        /* \"#utility.yul\":16797:16826   */\n      tag_616\n        /* \"#utility.yul\":16819:16825   */\n      dup2\n        /* \"#utility.yul\":16797:16826   */\n      tag_400\n      jump\t// in\n    tag_616:\n        /* \"#utility.yul\":16792:16795   */\n      dup5\n        /* \"#utility.yul\":16788:16827   */\n      add\n        /* \"#utility.yul\":16781:16827   */\n      swap2\n      pop\n        /* \"#utility.yul\":16561:16833   */\n      pop\n        /* \"#utility.yul\":16469:16833   */\n      swap3\n      swap2\n      pop\n      pop\n      jump\t// out\n        /* \"#utility.yul\":16839:17152   */\n    tag_261:\n        /* \"#utility.yul\":16952:16956   */\n      0x00\n        /* \"#utility.yul\":16990:16992   */\n      0x20\n        /* \"#utility.yul\":16979:16988   */\n      dup3\n        /* \"#utility.yul\":16975:16993   */\n      add\n        /* \"#utility.yul\":16967:16993   */\n      swap1\n      pop\n        /* \"#utility.yul\":17039:17048   */\n      dup2\n        /* \"#utility.yul\":17033:17037   */\n      dup2\n        /* \"#utility.yul\":17029:17049   */\n      sub\n        /* \"#utility.yul\":17025:17026   */\n      0x00\n        /* \"#utility.yul\":17014:17023   */\n      dup4\n        /* \"#utility.yul\":17010:17027   */\n      add\n        /* \"#utility.yul\":17003:17050   */\n      mstore\n        /* \"#utility.yul\":17067:17145   */\n      tag_618\n        /* \"#utility.yul\":17140:17144   */\n      dup2\n        /* \"#utility.yul\":17131:17137   */\n      dup5\n        /* \"#utility.yul\":17067:17145   */\n      tag_427\n      jump\t// in\n    tag_618:\n        /* \"#utility.yul\":17059:17145   */\n      swap1\n      pop\n        /* \"#utility.yul\":16839:17152   */\n      swap3\n      swap2\n      pop\n      pop\n      jump\t// out\n        /* \"#utility.yul\":17158:17338   */\n    tag_268:\n        /* \"#utility.yul\":17206:17283   */\n      0x4e487b7100000000000000000000000000000000000000000000000000000000\n        /* \"#utility.yul\":17203:17204   */\n      0x00\n        /* \"#utility.yul\":17196:17284   */\n      mstore\n        /* \"#utility.yul\":17303:17307   */\n      0x21\n        /* \"#utility.yul\":17300:17301   */\n      0x04\n        /* \"#utility.yul\":17293:17308   */\n      mstore\n        /* \"#utility.yul\":17327:17331   */\n      0x24\n        /* \"#utility.yul\":17324:17325   */\n      0x00\n        /* \"#utility.yul\":17317:17332   */\n      revert\n        /* \"#utility.yul\":17344:17453   */\n    tag_428:\n        /* \"#utility.yul\":17427:17428   */\n      0x03\n        /* \"#utility.yul\":17420:17425   */\n      dup2\n        /* \"#utility.yul\":17417:17429   */\n      lt\n        /* \"#utility.yul\":17407:17447   */\n      tag_621\n      jumpi\n        /* \"#utility.yul\":17443:17444   */\n      0x00\n        /* \"#utility.yul\":17440:17441   */\n      dup1\n        /* \"#utility.yul\":17433:17445   */\n      revert\n        /* \"#utility.yul\":17407:17447   */\n    tag_621:\n        /* \"#utility.yul\":17344:17453   */\n      pop\n      jump\t// out\n        /* \"#utility.yul\":17459:17622   */\n    tag_429:\n        /* \"#utility.yul\":17526:17531   */\n      0x00\n        /* \"#utility.yul\":17557:17563   */\n      dup2\n        /* \"#utility.yul\":17551:17564   */\n      mload\n        /* \"#utility.yul\":17542:17564   */\n      swap1\n      pop\n        /* \"#utility.yul\":17573:17616   */\n      tag_623\n        /* \"#utility.yul\":17610:17615   */\n      dup2\n        /* \"#utility.yul\":17573:17616   */\n      tag_428\n      jump\t// in\n    tag_623:\n        /* \"#utility.yul\":17459:17622   */\n      swap3\n      swap2\n      pop\n      pop\n      jump\t// out\n        /* \"#utility.yul\":17628:17999   */\n    tag_272:\n        /* \"#utility.yul\":17708:17714   */\n      0x00\n        /* \"#utility.yul\":17757:17759   */\n      0x20\n        /* \"#utility.yul\":17745:17754   */\n      dup3\n        /* \"#utility.yul\":17736:17743   */\n      dup5\n        /* \"#utility.yul\":17732:17755   */\n      sub\n        /* \"#utility.yul\":17728:17760   */\n      slt\n        /* \"#utility.yul\":17725:17844   */\n      iszero\n      tag_625\n      jumpi\n        /* \"#utility.yul\":17763:17842   */\n      tag_626\n      tag_380\n      jump\t// in\n    tag_626:\n        /* \"#utility.yul\":17725:17844   */\n    tag_625:\n        /* \"#utility.yul\":17883:17884   */\n      0x00\n        /* \"#utility.yul\":17908:17982   */\n      tag_627\n        /* \"#utility.yul\":17974:17981   */\n      dup5\n        /* \"#utility.yul\":17965:17971   */\n      dup3\n        /* \"#utility.yul\":17954:17963   */\n      dup6\n        /* \"#utility.yul\":17950:17972   */\n      add\n        /* \"#utility.yul\":17908:17982   */\n      tag_429\n      jump\t// in\n    tag_627:\n        /* \"#utility.yul\":17898:17982   */\n      swap2\n      pop\n        /* \"#utility.yul\":17854:17992   */\n      pop\n        /* \"#utility.yul\":17628:17999   */\n      swap3\n      swap2\n      pop\n      pop\n      jump\t// out\n        /* \"#utility.yul\":18005:18183   */\n    tag_430:\n        /* \"#utility.yul\":18145:18175   */\n      0x436f6e747261637420737461747573206d757374206265206f70656e00000000\n        /* \"#utility.yul\":18141:18142   */\n      0x00\n        /* \"#utility.yul\":18133:18139   */\n      dup3\n        /* \"#utility.yul\":18129:18143   */\n      add\n        /* \"#utility.yul\":18122:18176   */\n      mstore\n        /* \"#utility.yul\":18005:18183   */\n      pop\n      jump\t// out\n        /* \"#utility.yul\":18189:18555   */\n    tag_431:\n        /* \"#utility.yul\":18331:18334   */\n      0x00\n        /* \"#utility.yul\":18352:18419   */\n      tag_630\n        /* \"#utility.yul\":18416:18418   */\n      0x1c\n        /* \"#utility.yul\":18411:18414   */\n      dup4\n        /* \"#utility.yul\":18352:18419   */\n      tag_411\n      jump\t// in\n    tag_630:\n        /* \"#utility.yul\":18345:18419   */\n      swap2\n      pop\n        /* \"#utility.yul\":18428:18521   */\n      tag_631\n        /* \"#utility.yul\":18517:18520   */\n      dup3\n        /* \"#utility.yul\":18428:18521   */\n      tag_430\n      jump\t// in\n    tag_631:\n        /* \"#utility.yul\":18546:18548   */\n      0x20\n        /* \"#utility.yul\":18541:18544   */\n      dup3\n        /* \"#utility.yul\":18537:18549   */\n      add\n        /* \"#utility.yul\":18530:18549   */\n      swap1\n      pop\n        /* \"#utility.yul\":18189:18555   */\n      swap2\n      swap1\n      pop\n      jump\t// out\n        /* \"#utility.yul\":18561:18980   */\n    tag_277:\n        /* \"#utility.yul\":18727:18731   */\n      0x00\n        /* \"#utility.yul\":18765:18767   */\n      0x20\n        /* \"#utility.yul\":18754:18763   */\n      dup3\n        /* \"#utility.yul\":18750:18768   */\n      add\n        /* \"#utility.yul\":18742:18768   */\n      swap1\n      pop\n        /* \"#utility.yul\":18814:18823   */\n      dup2\n        /* \"#utility.yul\":18808:18812   */\n      dup2\n        /* \"#utility.yul\":18804:18824   */\n      sub\n        /* \"#utility.yul\":18800:18801   */\n      0x00\n        /* \"#utility.yul\":18789:18798   */\n      dup4\n        /* \"#utility.yul\":18785:18802   */\n      add\n        /* \"#utility.yul\":18778:18825   */\n      mstore\n        /* \"#utility.yul\":18842:18973   */\n      tag_633\n        /* \"#utility.yul\":18968:18972   */\n      dup2\n        /* \"#utility.yul\":18842:18973   */\n      tag_431\n      jump\t// in\n    tag_633:\n        /* \"#utility.yul\":18834:18973   */\n      swap1\n      pop\n        /* \"#utility.yul\":18561:18980   */\n      swap2\n      swap1\n      pop\n      jump\t// out\n        /* \"#utility.yul\":18986:19220   */\n    tag_432:\n        /* \"#utility.yul\":19126:19160   */\n      0x4f6e6c792063726561746f72206f6620636f6e74726163742063616e20726571\n        /* \"#utility.yul\":19122:19123   */\n      0x00\n        /* \"#utility.yul\":19114:19120   */\n      dup3\n        /* \"#utility.yul\":19110:19124   */\n      add\n        /* \"#utility.yul\":19103:19161   */\n      mstore\n        /* \"#utility.yul\":19195:19212   */\n      0x7565737420636f6d706c6574696f6e0000000000000000000000000000000000\n        /* \"#utility.yul\":19190:19192   */\n      0x20\n        /* \"#utility.yul\":19182:19188   */\n      dup3\n        /* \"#utility.yul\":19178:19193   */\n      add\n        /* \"#utility.yul\":19171:19213   */\n      mstore\n        /* \"#utility.yul\":18986:19220   */\n      pop\n      jump\t// out\n        /* \"#utility.yul\":19226:19592   */\n    tag_433:\n        /* \"#utility.yul\":19368:19371   */\n      0x00\n        /* \"#utility.yul\":19389:19456   */\n      tag_636\n        /* \"#utility.yul\":19453:19455   */\n      0x2f\n        /* \"#utility.yul\":19448:19451   */\n      dup4\n        /* \"#utility.yul\":19389:19456   */\n      tag_411\n      jump\t// in\n    tag_636:\n        /* \"#utility.yul\":19382:19456   */\n      swap2\n      pop\n        /* \"#utility.yul\":19465:19558   */\n      tag_637\n        /* \"#utility.yul\":19554:19557   */\n      dup3\n        /* \"#utility.yul\":19465:19558   */\n      tag_432\n      jump\t// in\n    tag_637:\n        /* \"#utility.yul\":19583:19585   */\n      0x40\n        /* \"#utility.yul\":19578:19581   */\n      dup3\n        /* \"#utility.yul\":19574:19586   */\n      add\n        /* \"#utility.yul\":19567:19586   */\n      swap1\n      pop\n        /* \"#utility.yul\":19226:19592   */\n      swap2\n      swap1\n      pop\n      jump\t// out\n        /* \"#utility.yul\":19598:20017   */\n    tag_283:\n        /* \"#utility.yul\":19764:19768   */\n      0x00\n        /* \"#utility.yul\":19802:19804   */\n      0x20\n        /* \"#utility.yul\":19791:19800   */\n      dup3\n        /* \"#utility.yul\":19787:19805   */\n      add\n        /* \"#utility.yul\":19779:19805   */\n      swap1\n      pop\n        /* \"#utility.yul\":19851:19860   */\n      dup2\n        /* \"#utility.yul\":19845:19849   */\n      dup2\n        /* \"#utility.yul\":19841:19861   */\n      sub\n        /* \"#utility.yul\":19837:19838   */\n      0x00\n        /* \"#utility.yul\":19826:19835   */\n      dup4\n        /* \"#utility.yul\":19822:19839   */\n      add\n        /* \"#utility.yul\":19815:19862   */\n      mstore\n        /* \"#utility.yul\":19879:20010   */\n      tag_639\n        /* \"#utility.yul\":20005:20009   */\n      dup2\n        /* \"#utility.yul\":19879:20010   */\n      tag_433\n      jump\t// in\n    tag_639:\n        /* \"#utility.yul\":19871:20010   */\n      swap1\n      pop\n        /* \"#utility.yul\":19598:20017   */\n      swap2\n      swap1\n      pop\n      jump\t// out\n        /* \"#utility.yul\":20023:20083   */\n    tag_434:\n        /* \"#utility.yul\":20051:20054   */\n      0x00\n        /* \"#utility.yul\":20072:20077   */\n      dup2\n        /* \"#utility.yul\":20065:20077   */\n      swap1\n      pop\n        /* \"#utility.yul\":20023:20083   */\n      swap2\n      swap1\n      pop\n      jump\t// out\n        /* \"#utility.yul\":20089:20231   */\n    tag_435:\n        /* \"#utility.yul\":20139:20148   */\n      0x00\n        /* \"#utility.yul\":20172:20225   */\n      tag_642\n        /* \"#utility.yul\":20190:20224   */\n      tag_643\n        /* \"#utility.yul\":20199:20223   */\n      tag_644\n        /* \"#utility.yul\":20217:20222   */\n      dup5\n        /* \"#utility.yul\":20199:20223   */\n      tag_382\n      jump\t// in\n    tag_644:\n        /* \"#utility.yul\":20190:20224   */\n      tag_434\n      jump\t// in\n    tag_643:\n        /* \"#utility.yul\":20172:20225   */\n      tag_382\n      jump\t// in\n    tag_642:\n        /* \"#utility.yul\":20159:20225   */\n      swap1\n      pop\n        /* \"#utility.yul\":20089:20231   */\n      swap2\n      swap1\n      pop\n      jump\t// out\n        /* \"#utility.yul\":20237:20363   */\n    tag_436:\n        /* \"#utility.yul\":20287:20296   */\n      0x00\n        /* \"#utility.yul\":20320:20357   */\n      tag_646\n        /* \"#utility.yul\":20351:20356   */\n      dup3\n        /* \"#utility.yul\":20320:20357   */\n      tag_435\n      jump\t// in\n    tag_646:\n        /* \"#utility.yul\":20307:20357   */\n      swap1\n      pop\n        /* \"#utility.yul\":20237:20363   */\n      swap2\n      swap1\n      pop\n      jump\t// out\n        /* \"#utility.yul\":20369:20503   */\n    tag_437:\n        /* \"#utility.yul\":20427:20436   */\n      0x00\n        /* \"#utility.yul\":20460:20497   */\n      tag_648\n        /* \"#utility.yul\":20491:20496   */\n      dup3\n        /* \"#utility.yul\":20460:20497   */\n      tag_436\n      jump\t// in\n    tag_648:\n        /* \"#utility.yul\":20447:20497   */\n      swap1\n      pop\n        /* \"#utility.yul\":20369:20503   */\n      swap2\n      swap1\n      pop\n      jump\t// out\n        /* \"#utility.yul\":20509:20656   */\n    tag_438:\n        /* \"#utility.yul\":20604:20649   */\n      tag_650\n        /* \"#utility.yul\":20643:20648   */\n      dup2\n        /* \"#utility.yul\":20604:20649   */\n      tag_437\n      jump\t// in\n    tag_650:\n        /* \"#utility.yul\":20599:20602   */\n      dup3\n        /* \"#utility.yul\":20592:20650   */\n      mstore\n        /* \"#utility.yul\":20509:20656   */\n      pop\n      pop\n      jump\t// out\n        /* \"#utility.yul\":20662:21635   */\n    tag_302:\n        /* \"#utility.yul\":20943:20947   */\n      0x00\n        /* \"#utility.yul\":20981:20984   */\n      0xc0\n        /* \"#utility.yul\":20970:20979   */\n      dup3\n        /* \"#utility.yul\":20966:20985   */\n      add\n        /* \"#utility.yul\":20958:20985   */\n      swap1\n      pop\n        /* \"#utility.yul\":20995:21066   */\n      tag_652\n        /* \"#utility.yul\":21063:21064   */\n      0x00\n        /* \"#utility.yul\":21052:21061   */\n      dup4\n        /* \"#utility.yul\":21048:21065   */\n      add\n        /* \"#utility.yul\":21039:21045   */\n      dup10\n        /* \"#utility.yul\":20995:21066   */\n      tag_396\n      jump\t// in\n    tag_652:\n        /* \"#utility.yul\":21076:21148   */\n      tag_653\n        /* \"#utility.yul\":21144:21146   */\n      0x20\n        /* \"#utility.yul\":21133:21142   */\n      dup4\n        /* \"#utility.yul\":21129:21147   */\n      add\n        /* \"#utility.yul\":21120:21126   */\n      dup9\n        /* \"#utility.yul\":21076:21148   */\n      tag_396\n      jump\t// in\n    tag_653:\n        /* \"#utility.yul\":21195:21204   */\n      dup2\n        /* \"#utility.yul\":21189:21193   */\n      dup2\n        /* \"#utility.yul\":21185:21205   */\n      sub\n        /* \"#utility.yul\":21180:21182   */\n      0x40\n        /* \"#utility.yul\":21169:21178   */\n      dup4\n        /* \"#utility.yul\":21165:21183   */\n      add\n        /* \"#utility.yul\":21158:21206   */\n      mstore\n        /* \"#utility.yul\":21223:21301   */\n      tag_654\n        /* \"#utility.yul\":21296:21300   */\n      dup2\n        /* \"#utility.yul\":21287:21293   */\n      dup8\n        /* \"#utility.yul\":21223:21301   */\n      tag_427\n      jump\t// in\n    tag_654:\n        /* \"#utility.yul\":21215:21301   */\n      swap1\n      pop\n        /* \"#utility.yul\":21348:21357   */\n      dup2\n        /* \"#utility.yul\":21342:21346   */\n      dup2\n        /* \"#utility.yul\":21338:21358   */\n      sub\n        /* \"#utility.yul\":21333:21335   */\n      0x60\n        /* \"#utility.yul\":21322:21331   */\n      dup4\n        /* \"#utility.yul\":21318:21336   */\n      add\n        /* \"#utility.yul\":21311:21359   */\n      mstore\n        /* \"#utility.yul\":21376:21454   */\n      tag_655\n        /* \"#utility.yul\":21449:21453   */\n      dup2\n        /* \"#utility.yul\":21440:21446   */\n      dup7\n        /* \"#utility.yul\":21376:21454   */\n      tag_427\n      jump\t// in\n    tag_655:\n        /* \"#utility.yul\":21368:21454   */\n      swap1\n      pop\n        /* \"#utility.yul\":21464:21545   */\n      tag_656\n        /* \"#utility.yul\":21540:21543   */\n      0x80\n        /* \"#utility.yul\":21529:21538   */\n      dup4\n        /* \"#utility.yul\":21525:21544   */\n      add\n        /* \"#utility.yul\":21516:21522   */\n      dup6\n        /* \"#utility.yul\":21464:21545   */\n      tag_438\n      jump\t// in\n    tag_656:\n        /* \"#utility.yul\":21555:21628   */\n      tag_657\n        /* \"#utility.yul\":21623:21626   */\n      0xa0\n        /* \"#utility.yul\":21612:21621   */\n      dup4\n        /* \"#utility.yul\":21608:21627   */\n      add\n        /* \"#utility.yul\":21599:21605   */\n      dup5\n        /* \"#utility.yul\":21555:21628   */\n      tag_397\n      jump\t// in\n    tag_657:\n        /* \"#utility.yul\":20662:21635   */\n      swap8\n      swap7\n      pop\n      pop\n      pop\n      pop\n      pop\n      pop\n      pop\n      jump\t// out\n        /* \"#utility.yul\":21641:21946   */\n    tag_307:\n        /* \"#utility.yul\":21681:21684   */\n      0x00\n        /* \"#utility.yul\":21700:21720   */\n      tag_659\n        /* \"#utility.yul\":21718:21719   */\n      dup3\n        /* \"#utility.yul\":21700:21720   */\n      tag_386\n      jump\t// in\n    tag_659:\n        /* \"#utility.yul\":21695:21720   */\n      swap2\n      pop\n        /* \"#utility.yul\":21734:21754   */\n      tag_660\n        /* \"#utility.yul\":21752:21753   */\n      dup4\n        /* \"#utility.yul\":21734:21754   */\n      tag_386\n      jump\t// in\n    tag_660:\n        /* \"#utility.yul\":21729:21754   */\n      swap3\n      pop\n        /* \"#utility.yul\":21888:21889   */\n      dup3\n        /* \"#utility.yul\":21820:21886   */\n      0xffffffffffffffffffffffffffffffffffffffffffffffffffffffffffffffff\n        /* \"#utility.yul\":21816:21890   */\n      sub\n        /* \"#utility.yul\":21813:21814   */\n      dup3\n        /* \"#utility.yul\":21810:21891   */\n      gt\n        /* \"#utility.yul\":21807:21914   */\n      iszero\n      tag_661\n      jumpi\n        /* \"#utility.yul\":21894:21912   */\n      tag_662\n      tag_424\n      jump\t// in\n    tag_662:\n        /* \"#utility.yul\":21807:21914   */\n    tag_661:\n        /* \"#utility.yul\":21938:21939   */\n      dup3\n        /* \"#utility.yul\":21935:21936   */\n      dup3\n        /* \"#utility.yul\":21931:21940   */\n      add\n        /* \"#utility.yul\":21924:21940   */\n      swap1\n      pop\n        /* \"#utility.yul\":21641:21946   */\n      swap3\n      swap2\n      pop\n      pop\n      jump\t// out\n        /* \"#utility.yul\":21952:22132   */\n    tag_334:\n        /* \"#utility.yul\":22000:22077   */\n      0x4e487b7100000000000000000000000000000000000000000000000000000000\n        /* \"#utility.yul\":21997:21998   */\n      0x00\n        /* \"#utility.yul\":21990:22078   */\n      mstore\n        /* \"#utility.yul\":22097:22101   */\n      0x31\n        /* \"#utility.yul\":22094:22095   */\n      0x04\n        /* \"#utility.yul\":22087:22102   */\n      mstore\n        /* \"#utility.yul\":22121:22125   */\n      0x24\n        /* \"#utility.yul\":22118:22119   */\n      0x00\n        /* \"#utility.yul\":22111:22126   */\n      revert\n    stop\n\n    sub_0: assembly {\n            /* \"Contracts\":8834:9988  contract AccountabilityContractApprovalRequest {... */\n          mstore(0x40, 0x80)\n            /* \"Contracts\":9094:9471  constructor(address _accountabilityContractAddress) {... */\n          callvalue\n          dup1\n          iszero\n          tag_1\n          jumpi\n          0x00\n          dup1\n          revert\n        tag_1:\n          pop\n          mload(0x40)\n          sub(codesize, bytecodeSize)\n          dup1\n          bytecodeSize\n          dup4\n          codecopy\n          dup2\n          dup2\n          add\n          0x40\n          mstore\n          dup2\n          add\n          swap1\n          tag_2\n          swap2\n          swap1\n          tag_3\n          jump\t// in\n        tag_2:\n            /* \"Contracts\":9156:9201  AccountabilityContract accountabilityContract */\n          0x00\n            /* \"Contracts\":9227:9257  _accountabilityContractAddress */\n          dup2\n            /* \"Contracts\":9156:9258  AccountabilityContract accountabilityContract = AccountabilityContract(_accountabilityContractAddress) */\n          swap1\n          pop\n            /* \"Contracts\":9278:9300  accountabilityContract */\n          dup1\n            /* \"Contracts\":9278:9308  accountabilityContract.creator */\n          0xffffffffffffffffffffffffffffffffffffffff\n          and\n          0x02d05d3f\n            /* \"Contracts\":9278:9310  accountabilityContract.creator() */\n          mload(0x40)\n          dup2\n          0xffffffff\n          and\n          0xe0\n          shl\n          dup2\n          mstore\n          0x04\n          add\n          0x20\n          mload(0x40)\n          dup1\n          dup4\n          sub\n          dup2\n          dup7\n          gas\n          staticcall\n          iszero\n          dup1\n          iszero\n          tag_7\n          jumpi\n          returndatasize\n          0x00\n          dup1\n          returndatacopy\n          revert(0x00, returndatasize)\n        tag_7:\n          pop\n          pop\n          pop\n          pop\n          mload(0x40)\n          returndatasize\n          not(0x1f)\n          0x1f\n          dup3\n          add\n          and\n          dup3\n          add\n          dup1\n          0x40\n          mstore\n          pop\n          dup2\n          add\n          swap1\n          tag_8\n          swap2\n          swap1\n          tag_3\n          jump\t// in\n        tag_8:\n            /* \"Contracts\":9268:9275  creator */\n          0x00\n          dup1\n            /* \"Contracts\":9268:9310  creator = accountabilityContract.creator() */\n          0x0100\n          exp\n          dup2\n          sload\n          dup2\n          0xffffffffffffffffffffffffffffffffffffffff\n          mul\n          not\n          and\n          swap1\n          dup4\n          0xffffffffffffffffffffffffffffffffffffffff\n          and\n          mul\n          or\n          swap1\n          sstore\n          pop\n            /* \"Contracts\":9330:9352  accountabilityContract */\n          dup1\n            /* \"Contracts\":9330:9360  accountabilityContract.referee */\n          0xffffffffffffffffffffffffffffffffffffffff\n          and\n          0x3b1bebd1\n            /* \"Contracts\":9330:9362  accountabilityContract.referee() */\n          mload(0x40)\n          dup2\n          0xffffffff\n          and\n          0xe0\n          shl\n          dup2\n          mstore\n          0x04\n          add\n          0x20\n          mload(0x40)\n          dup1\n          dup4\n          sub\n          dup2\n          dup7\n          gas\n          staticcall\n          iszero\n          dup1\n          iszero\n          tag_10\n          jumpi\n          returndatasize\n          0x00\n          dup1\n          returndatacopy\n          revert(0x00, returndatasize)\n        tag_10:\n          pop\n          pop\n          pop\n          pop\n          mload(0x40)\n          returndatasize\n          not(0x1f)\n          0x1f\n          dup3\n          add\n          and\n          dup3\n          add\n          dup1\n          0x40\n          mstore\n          pop\n          dup2\n          add\n          swap1\n          tag_11\n          swap2\n          swap1\n          tag_3\n          jump\t// in\n        tag_11:\n            /* \"Contracts\":9320:9327  referee */\n          0x01\n          0x00\n            /* \"Contracts\":9320:9362  referee = accountabilityContract.referee() */\n          0x0100\n          exp\n          dup2\n          sload\n          dup2\n          0xffffffffffffffffffffffffffffffffffffffff\n          mul\n          not\n          and\n          swap1\n          dup4\n          0xffffffffffffffffffffffffffffffffffffffff\n          and\n          mul\n          or\n          swap1\n          sstore\n          pop\n            /* \"Contracts\":9404:9434  _accountabilityContractAddress */\n          dup2\n            /* \"Contracts\":9372:9401  accountabilityContractAddress */\n          0x02\n          0x00\n            /* \"Contracts\":9372:9434  accountabilityContractAddress = _accountabilityContractAddress */\n          0x0100\n          exp\n          dup2\n          sload\n          dup2\n          0xffffffffffffffffffffffffffffffffffffffff\n          mul\n          not\n          and\n          swap1\n          dup4\n          0xffffffffffffffffffffffffffffffffffffffff\n          and\n          mul\n          or\n          swap1\n          sstore\n          pop\n            /* \"Contracts\":9453:9464  Status.OPEN */\n          0x00\n            /* \"Contracts\":9444:9450  status */\n          0x02\n          0x14\n            /* \"Contracts\":9444:9464  status = Status.OPEN */\n          0x0100\n          exp\n          dup2\n          sload\n          dup2\n          0xff\n          mul\n          not\n          and\n          swap1\n          dup4\n          0x02\n          dup2\n          gt\n          iszero\n          tag_12\n          jumpi\n          tag_13\n          tag_14\n          jump\t// in\n        tag_13:\n        tag_12:\n          mul\n          or\n          swap1\n          sstore\n          pop\n            /* \"Contracts\":9146:9471  {... */\n          pop\n            /* \"Contracts\":9094:9471  constructor(address _accountabilityContractAddress) {... */\n          pop\n            /* \"Contracts\":8834:9988  contract AccountabilityContractApprovalRequest {... */\n          jump(tag_15)\n            /* \"#utility.yul\":88:205   */\n        tag_17:\n            /* \"#utility.yul\":197:198   */\n          0x00\n            /* \"#utility.yul\":194:195   */\n          dup1\n            /* \"#utility.yul\":187:199   */\n          revert\n            /* \"#utility.yul\":334:460   */\n        tag_19:\n            /* \"#utility.yul\":371:378   */\n          0x00\n            /* \"#utility.yul\":411:453   */\n          0xffffffffffffffffffffffffffffffffffffffff\n            /* \"#utility.yul\":404:409   */\n          dup3\n            /* \"#utility.yul\":400:454   */\n          and\n            /* \"#utility.yul\":389:454   */\n          swap1\n          pop\n            /* \"#utility.yul\":334:460   */\n          swap2\n          swap1\n          pop\n          jump\t// out\n            /* \"#utility.yul\":466:562   */\n        tag_20:\n            /* \"#utility.yul\":503:510   */\n          0x00\n            /* \"#utility.yul\":532:556   */\n          tag_29\n            /* \"#utility.yul\":550:555   */\n          dup3\n            /* \"#utility.yul\":532:556   */\n          tag_19\n          jump\t// in\n        tag_29:\n            /* \"#utility.yul\":521:556   */\n          swap1\n          pop\n            /* \"#utility.yul\":466:562   */\n          swap2\n          swap1\n          pop\n          jump\t// out\n            /* \"#utility.yul\":568:690   */\n        tag_21:\n            /* \"#utility.yul\":641:665   */\n          tag_31\n            /* \"#utility.yul\":659:664   */\n          dup2\n            /* \"#utility.yul\":641:665   */\n          tag_20\n          jump\t// in\n        tag_31:\n            /* \"#utility.yul\":634:639   */\n          dup2\n            /* \"#utility.yul\":631:666   */\n          eq\n            /* \"#utility.yul\":621:684   */\n          tag_32\n          jumpi\n            /* \"#utility.yul\":680:681   */\n          0x00\n            /* \"#utility.yul\":677:678   */\n          dup1\n            /* \"#utility.yul\":670:682   */\n          revert\n            /* \"#utility.yul\":621:684   */\n        tag_32:\n            /* \"#utility.yul\":568:690   */\n          pop\n          jump\t// out\n            /* \"#utility.yul\":696:839   */\n        tag_22:\n            /* \"#utility.yul\":753:758   */\n          0x00\n            /* \"#utility.yul\":784:790   */\n          dup2\n            /* \"#utility.yul\":778:791   */\n          mload\n            /* \"#utility.yul\":769:791   */\n          swap1\n          pop\n            /* \"#utility.yul\":800:833   */\n          tag_34\n            /* \"#utility.yul\":827:832   */\n          dup2\n            /* \"#utility.yul\":800:833   */\n          tag_21\n          jump\t// in\n        tag_34:\n            /* \"#utility.yul\":696:839   */\n          swap3\n          swap2\n          pop\n          pop\n          jump\t// out\n            /* \"#utility.yul\":845:1196   */\n        tag_3:\n            /* \"#utility.yul\":915:921   */\n          0x00\n            /* \"#utility.yul\":964:966   */\n          0x20\n            /* \"#utility.yul\":952:961   */\n          dup3\n            /* \"#utility.yul\":943:950   */\n          dup5\n            /* \"#utility.yul\":939:962   */\n          sub\n            /* \"#utility.yul\":935:967   */\n          slt\n            /* \"#utility.yul\":932:1051   */\n          iszero\n          tag_36\n          jumpi\n            /* \"#utility.yul\":970:1049   */\n          tag_37\n          tag_17\n          jump\t// in\n        tag_37:\n            /* \"#utility.yul\":932:1051   */\n        tag_36:\n            /* \"#utility.yul\":1090:1091   */\n          0x00\n            /* \"#utility.yul\":1115:1179   */\n          tag_38\n            /* \"#utility.yul\":1171:1178   */\n          dup5\n            /* \"#utility.yul\":1162:1168   */\n          dup3\n            /* \"#utility.yul\":1151:1160   */\n          dup6\n            /* \"#utility.yul\":1147:1169   */\n          add\n            /* \"#utility.yul\":1115:1179   */\n          tag_22\n          jump\t// in\n        tag_38:\n            /* \"#utility.yul\":1105:1179   */\n          swap2\n          pop\n            /* \"#utility.yul\":1061:1189   */\n          pop\n            /* \"#utility.yul\":845:1196   */\n          swap3\n          swap2\n          pop\n          pop\n          jump\t// out\n            /* \"#utility.yul\":1202:1382   */\n        tag_14:\n            /* \"#utility.yul\":1250:1327   */\n          0x4e487b7100000000000000000000000000000000000000000000000000000000\n            /* \"#utility.yul\":1247:1248   */\n          0x00\n            /* \"#utility.yul\":1240:1328   */\n          mstore\n            /* \"#utility.yul\":1347:1351   */\n          0x21\n            /* \"#utility.yul\":1344:1345   */\n          0x04\n            /* \"#utility.yul\":1337:1352   */\n          mstore\n            /* \"#utility.yul\":1371:1375   */\n          0x24\n            /* \"#utility.yul\":1368:1369   */\n          0x00\n            /* \"#utility.yul\":1361:1376   */\n          revert\n            /* \"Contracts\":8834:9988  contract AccountabilityContractApprovalRequest {... */\n        tag_15:\n          dataSize(sub_0)\n          dup1\n          dataOffset(sub_0)\n          0x00\n          codecopy\n          0x00\n          return\n        stop\n\n        sub_0: assembly {\n                /* \"Contracts\":8834:9988  contract AccountabilityContractApprovalRequest {... */\n              mstore(0x40, 0x80)\n              callvalue\n              dup1\n              iszero\n              tag_1\n              jumpi\n              0x00\n              dup1\n              revert\n            tag_1:\n              pop\n              jumpi(tag_2, lt(calldatasize, 0x04))\n              shr(0xe0, calldataload(0x00))\n              dup1\n              0x3b1bebd1\n              gt\n              tag_10\n              jumpi\n              dup1\n              0x3b1bebd1\n              eq\n              tag_6\n              jumpi\n              dup1\n              0x3c490174\n              eq\n              tag_7\n              jumpi\n              dup1\n              0x7a7f01a7\n              eq\n              tag_8\n              jumpi\n              dup1\n              0xd2daa825\n              eq\n              tag_9\n              jumpi\n              jump(tag_2)\n            tag_10:\n              dup1\n              0x02d05d3f\n              eq\n              tag_3\n              jumpi\n              dup1\n              0x200d2ed2\n              eq\n              tag_4\n              jumpi\n              dup1\n              0x263b81c9\n              eq\n              tag_5\n              jumpi\n            tag_2:\n              0x00\n              dup1\n              revert\n                /* \"Contracts\":8887:8909  address public creator */\n            tag_3:\n              tag_11\n              tag_12\n              jump\t// in\n            tag_11:\n              mload(0x40)\n              tag_13\n              swap2\n              swap1\n              tag_14\n              jump\t// in\n            tag_13:\n              mload(0x40)\n              dup1\n              swap2\n              sub\n              swap1\n              return\n                /* \"Contracts\":9035:9055  Status public status */\n            tag_4:\n              tag_15\n              tag_16\n              jump\t// in\n            tag_15:\n              mload(0x40)\n              tag_17\n              swap2\n              swap1\n              tag_18\n              jump\t// in\n            tag_17:\n              mload(0x40)\n              dup1\n              swap2\n              sub\n              swap1\n              return\n                /* \"Contracts\":9477:9705  function approveRequest() public  returns (AccountabilityContractApprovalRequest) {... */\n            tag_5:\n              tag_19\n              tag_20\n              jump\t// in\n            tag_19:\n              mload(0x40)\n              tag_21\n              swap2\n              swap1\n              tag_22\n              jump\t// in\n            tag_21:\n              mload(0x40)\n              dup1\n              swap2\n              sub\n              swap1\n              return\n                /* \"Contracts\":8915:8937  address public referee */\n            tag_6:\n              tag_23\n              tag_24\n              jump\t// in\n            tag_23:\n              mload(0x40)\n              tag_25\n              swap2\n              swap1\n              tag_14\n              jump\t// in\n            tag_25:\n              mload(0x40)\n              dup1\n              swap2\n              sub\n              swap1\n              return\n                /* \"Contracts\":8943:8987  address public accountabilityContractAddress */\n            tag_7:\n              tag_26\n              tag_27\n              jump\t// in\n            tag_26:\n              mload(0x40)\n              tag_28\n              swap2\n              swap1\n              tag_14\n              jump\t// in\n            tag_28:\n              mload(0x40)\n              dup1\n              swap2\n              sub\n              swap1\n              return\n                /* \"Contracts\":9061:9083  string public response */\n            tag_8:\n              tag_29\n              tag_30\n              jump\t// in\n            tag_29:\n              mload(0x40)\n              tag_31\n              swap2\n              swap1\n              tag_32\n              jump\t// in\n            tag_31:\n              mload(0x40)\n              dup1\n              swap2\n              sub\n              swap1\n              return\n                /* \"Contracts\":9712:9985  function denyRequest(string memory _response) public  returns (AccountabilityContractApprovalRequest) {... */\n            tag_9:\n              tag_33\n              0x04\n              dup1\n              calldatasize\n              sub\n              dup2\n              add\n              swap1\n              tag_34\n              swap2\n              swap1\n              tag_35\n              jump\t// in\n            tag_34:\n              tag_36\n              jump\t// in\n            tag_33:\n              mload(0x40)\n              tag_37\n              swap2\n              swap1\n              tag_22\n              jump\t// in\n            tag_37:\n              mload(0x40)\n              dup1\n              swap2\n              sub\n              swap1\n              return\n                /* \"Contracts\":8887:8909  address public creator */\n            tag_12:\n              0x00\n              dup1\n              sload\n              swap1\n              0x0100\n              exp\n              swap1\n              div\n              0xffffffffffffffffffffffffffffffffffffffff\n              and\n              dup2\n              jump\t// out\n                /* \"Contracts\":9035:9055  Status public status */\n            tag_16:\n              0x02\n              0x14\n              swap1\n              sload\n              swap1\n              0x0100\n              exp\n              swap1\n              div\n              0xff\n              and\n              dup2\n              jump\t// out\n                /* \"Contracts\":9477:9705  function approveRequest() public  returns (AccountabilityContractApprovalRequest) {... */\n            tag_20:\n                /* \"Contracts\":9520:9557  AccountabilityContractApprovalRequest */\n              0x00\n                /* \"Contracts\":9590:9597  referee */\n              0x01\n              0x00\n              swap1\n              sload\n              swap1\n              0x0100\n              exp\n              swap1\n              div\n              0xffffffffffffffffffffffffffffffffffffffff\n              and\n                /* \"Contracts\":9577:9597  tx.origin == referee */\n              0xffffffffffffffffffffffffffffffffffffffff\n              and\n                /* \"Contracts\":9577:9586  tx.origin */\n              origin\n                /* \"Contracts\":9577:9597  tx.origin == referee */\n              0xffffffffffffffffffffffffffffffffffffffff\n              and\n              eq\n                /* \"Contracts\":9569:9643  require(tx.origin == referee, \"Only referee can approve approval request\") */\n              tag_39\n              jumpi\n              mload(0x40)\n              0x08c379a000000000000000000000000000000000000000000000000000000000\n              dup2\n              mstore\n              0x04\n              add\n              tag_40\n              swap1\n              tag_41\n              jump\t// in\n            tag_40:\n              mload(0x40)\n              dup1\n              swap2\n              sub\n              swap1\n              revert\n            tag_39:\n                /* \"Contracts\":9662:9677  Status.APPROVED */\n              0x01\n                /* \"Contracts\":9653:9659  status */\n              0x02\n              0x14\n                /* \"Contracts\":9653:9677  status = Status.APPROVED */\n              0x0100\n              exp\n              dup2\n              sload\n              dup2\n              0xff\n              mul\n              not\n              and\n              swap1\n              dup4\n              0x02\n              dup2\n              gt\n              iszero\n              tag_42\n              jumpi\n              tag_43\n              tag_44\n              jump\t// in\n            tag_43:\n            tag_42:\n              mul\n              or\n              swap1\n              sstore\n              pop\n                /* \"Contracts\":9694:9698  this */\n              address\n                /* \"Contracts\":9687:9698  return this */\n              swap1\n              pop\n                /* \"Contracts\":9477:9705  function approveRequest() public  returns (AccountabilityContractApprovalRequest) {... */\n              swap1\n              jump\t// out\n                /* \"Contracts\":8915:8937  address public referee */\n            tag_24:\n              0x01\n              0x00\n              swap1\n              sload\n              swap1\n              0x0100\n              exp\n              swap1\n              div\n              0xffffffffffffffffffffffffffffffffffffffff\n              and\n              dup2\n              jump\t// out\n                /* \"Contracts\":8943:8987  address public accountabilityContractAddress */\n            tag_27:\n              0x02\n              0x00\n              swap1\n              sload\n              swap1\n              0x0100\n              exp\n              swap1\n              div\n              0xffffffffffffffffffffffffffffffffffffffff\n              and\n              dup2\n              jump\t// out\n                /* \"Contracts\":9061:9083  string public response */\n            tag_30:\n              0x03\n              dup1\n              sload\n              tag_45\n              swap1\n              tag_46\n              jump\t// in\n            tag_45:\n              dup1\n              0x1f\n              add\n              0x20\n              dup1\n              swap2\n              div\n              mul\n              0x20\n              add\n              mload(0x40)\n              swap1\n              dup2\n              add\n              0x40\n              mstore\n              dup1\n              swap3\n              swap2\n              swap1\n              dup2\n              dup2\n              mstore\n              0x20\n              add\n              dup3\n              dup1\n              sload\n              tag_47\n              swap1\n              tag_46\n              jump\t// in\n            tag_47:\n              dup1\n              iszero\n              tag_48\n              jumpi\n              dup1\n              0x1f\n              lt\n              tag_49\n              jumpi\n              0x0100\n              dup1\n              dup4\n              sload\n              div\n              mul\n              dup4\n              mstore\n              swap2\n              0x20\n              add\n              swap2\n              jump(tag_48)\n            tag_49:\n              dup3\n              add\n              swap2\n              swap1\n              0x00\n              mstore\n              keccak256(0x00, 0x20)\n              swap1\n            tag_50:\n              dup2\n              sload\n              dup2\n              mstore\n              swap1\n              0x01\n              add\n              swap1\n              0x20\n              add\n              dup1\n              dup4\n              gt\n              tag_50\n              jumpi\n              dup3\n              swap1\n              sub\n              0x1f\n              and\n              dup3\n              add\n              swap2\n            tag_48:\n              pop\n              pop\n              pop\n              pop\n              pop\n              dup2\n              jump\t// out\n                /* \"Contracts\":9712:9985  function denyRequest(string memory _response) public  returns (AccountabilityContractApprovalRequest) {... */\n            tag_36:\n                /* \"Contracts\":9775:9812  AccountabilityContractApprovalRequest */\n              0x00\n                /* \"Contracts\":9845:9852  referee */\n              0x01\n              0x00\n              swap1\n              sload\n              swap1\n              0x0100\n              exp\n              swap1\n              div\n              0xffffffffffffffffffffffffffffffffffffffff\n              and\n                /* \"Contracts\":9832:9852  tx.origin == referee */\n              0xffffffffffffffffffffffffffffffffffffffff\n              and\n                /* \"Contracts\":9832:9841  tx.origin */\n              origin\n                /* \"Contracts\":9832:9852  tx.origin == referee */\n              0xffffffffffffffffffffffffffffffffffffffff\n              and\n              eq\n                /* \"Contracts\":9824:9895  require(tx.origin == referee, \"Only referee can deny approval request\") */\n              tag_52\n              jumpi\n              mload(0x40)\n              0x08c379a000000000000000000000000000000000000000000000000000000000\n              dup2\n              mstore\n              0x04\n              add\n              tag_53\n              swap1\n              tag_54\n              jump\t// in\n            tag_53:\n              mload(0x40)\n              dup1\n              swap2\n              sub\n              swap1\n              revert\n            tag_52:\n                /* \"Contracts\":9914:9927  Status.DENIED */\n              0x02\n                /* \"Contracts\":9905:9911  status */\n              dup1\n              0x14\n                /* \"Contracts\":9905:9927  status = Status.DENIED */\n              0x0100\n              exp\n              dup2\n              sload\n              dup2\n              0xff\n              mul\n              not\n              and\n              swap1\n              dup4\n              0x02\n              dup2\n              gt\n              iszero\n              tag_55\n              jumpi\n              tag_56\n              tag_44\n              jump\t// in\n            tag_56:\n            tag_55:\n              mul\n              or\n              swap1\n              sstore\n              pop\n                /* \"Contracts\":9948:9957  _response */\n              dup2\n                /* \"Contracts\":9937:9945  response */\n              0x03\n                /* \"Contracts\":9937:9957  response = _response */\n              swap1\n              dup1\n              mload\n              swap1\n              0x20\n              add\n              swap1\n              tag_57\n              swap3\n              swap2\n              swap1\n              tag_58\n              jump\t// in\n            tag_57:\n              pop\n                /* \"Contracts\":9974:9978  this */\n              address\n                /* \"Contracts\":9967:9978  return this */\n              swap1\n              pop\n                /* \"Contracts\":9712:9985  function denyRequest(string memory _response) public  returns (AccountabilityContractApprovalRequest) {... */\n              swap2\n              swap1\n              pop\n              jump\t// out\n            tag_58:\n              dup3\n              dup1\n              sload\n              tag_59\n              swap1\n              tag_46\n              jump\t// in\n            tag_59:\n              swap1\n              0x00\n              mstore\n              keccak256(0x00, 0x20)\n              swap1\n              0x1f\n              add\n              0x20\n              swap1\n              div\n              dup2\n              add\n              swap3\n              dup3\n              tag_61\n              jumpi\n              0x00\n              dup6\n              sstore\n              jump(tag_60)\n            tag_61:\n              dup3\n              0x1f\n              lt\n              tag_62\n              jumpi\n              dup1\n              mload\n              not(0xff)\n              and\n              dup4\n              dup1\n              add\n              or\n              dup6\n              sstore\n              jump(tag_60)\n            tag_62:\n              dup3\n              dup1\n              add\n              0x01\n              add\n              dup6\n              sstore\n              dup3\n              iszero\n              tag_60\n              jumpi\n              swap2\n              dup3\n              add\n            tag_63:\n              dup3\n              dup2\n              gt\n              iszero\n              tag_64\n              jumpi\n              dup3\n              mload\n              dup3\n              sstore\n              swap2\n              0x20\n              add\n              swap2\n              swap1\n              0x01\n              add\n              swap1\n              jump(tag_63)\n            tag_64:\n            tag_60:\n              pop\n              swap1\n              pop\n              tag_65\n              swap2\n              swap1\n              tag_66\n              jump\t// in\n            tag_65:\n              pop\n              swap1\n              jump\t// out\n            tag_66:\n            tag_67:\n              dup1\n              dup3\n              gt\n              iszero\n              tag_68\n              jumpi\n              0x00\n              dup2\n              0x00\n              swap1\n              sstore\n              pop\n              0x01\n              add\n              jump(tag_67)\n            tag_68:\n              pop\n              swap1\n              jump\t// out\n                /* \"#utility.yul\":7:133   */\n            tag_69:\n                /* \"#utility.yul\":44:51   */\n              0x00\n                /* \"#utility.yul\":84:126   */\n              0xffffffffffffffffffffffffffffffffffffffff\n                /* \"#utility.yul\":77:82   */\n              dup3\n                /* \"#utility.yul\":73:127   */\n              and\n                /* \"#utility.yul\":62:127   */\n              swap1\n              pop\n                /* \"#utility.yul\":7:133   */\n              swap2\n              swap1\n              pop\n              jump\t// out\n                /* \"#utility.yul\":139:235   */\n            tag_70:\n                /* \"#utility.yul\":176:183   */\n              0x00\n                /* \"#utility.yul\":205:229   */\n              tag_106\n                /* \"#utility.yul\":223:228   */\n              dup3\n                /* \"#utility.yul\":205:229   */\n              tag_69\n              jump\t// in\n            tag_106:\n                /* \"#utility.yul\":194:229   */\n              swap1\n              pop\n                /* \"#utility.yul\":139:235   */\n              swap2\n              swap1\n              pop\n              jump\t// out\n                /* \"#utility.yul\":241:359   */\n            tag_71:\n                /* \"#utility.yul\":328:352   */\n              tag_108\n                /* \"#utility.yul\":346:351   */\n              dup2\n                /* \"#utility.yul\":328:352   */\n              tag_70\n              jump\t// in\n            tag_108:\n                /* \"#utility.yul\":323:326   */\n              dup3\n                /* \"#utility.yul\":316:353   */\n              mstore\n                /* \"#utility.yul\":241:359   */\n              pop\n              pop\n              jump\t// out\n                /* \"#utility.yul\":365:587   */\n            tag_14:\n                /* \"#utility.yul\":458:462   */\n              0x00\n                /* \"#utility.yul\":496:498   */\n              0x20\n                /* \"#utility.yul\":485:494   */\n              dup3\n                /* \"#utility.yul\":481:499   */\n              add\n                /* \"#utility.yul\":473:499   */\n              swap1\n              pop\n                /* \"#utility.yul\":509:580   */\n              tag_110\n                /* \"#utility.yul\":577:578   */\n              0x00\n                /* \"#utility.yul\":566:575   */\n              dup4\n                /* \"#utility.yul\":562:579   */\n              add\n                /* \"#utility.yul\":553:559   */\n              dup5\n                /* \"#utility.yul\":509:580   */\n              tag_71\n              jump\t// in\n            tag_110:\n                /* \"#utility.yul\":365:587   */\n              swap3\n              swap2\n              pop\n              pop\n              jump\t// out\n                /* \"#utility.yul\":593:773   */\n            tag_44:\n                /* \"#utility.yul\":641:718   */\n              0x4e487b7100000000000000000000000000000000000000000000000000000000\n                /* \"#utility.yul\":638:639   */\n              0x00\n                /* \"#utility.yul\":631:719   */\n              mstore\n                /* \"#utility.yul\":738:742   */\n              0x21\n                /* \"#utility.yul\":735:736   */\n              0x04\n                /* \"#utility.yul\":728:743   */\n              mstore\n                /* \"#utility.yul\":762:766   */\n              0x24\n                /* \"#utility.yul\":759:760   */\n              0x00\n                /* \"#utility.yul\":752:767   */\n              revert\n                /* \"#utility.yul\":779:894   */\n            tag_72:\n                /* \"#utility.yul\":862:863   */\n              0x03\n                /* \"#utility.yul\":855:860   */\n              dup2\n                /* \"#utility.yul\":852:864   */\n              lt\n                /* \"#utility.yul\":842:888   */\n              tag_113\n              jumpi\n                /* \"#utility.yul\":868:886   */\n              tag_114\n              tag_44\n              jump\t// in\n            tag_114:\n                /* \"#utility.yul\":842:888   */\n            tag_113:\n                /* \"#utility.yul\":779:894   */\n              pop\n              jump\t// out\n                /* \"#utility.yul\":900:1031   */\n            tag_73:\n                /* \"#utility.yul\":947:954   */\n              0x00\n                /* \"#utility.yul\":976:981   */\n              dup2\n                /* \"#utility.yul\":965:981   */\n              swap1\n              pop\n                /* \"#utility.yul\":982:1025   */\n              tag_116\n                /* \"#utility.yul\":1019:1024   */\n              dup3\n                /* \"#utility.yul\":982:1025   */\n              tag_72\n              jump\t// in\n            tag_116:\n                /* \"#utility.yul\":900:1031   */\n              swap2\n              swap1\n              pop\n              jump\t// out\n                /* \"#utility.yul\":1037:1168   */\n            tag_74:\n                /* \"#utility.yul\":1095:1104   */\n              0x00\n                /* \"#utility.yul\":1128:1162   */\n              tag_118\n                /* \"#utility.yul\":1156:1161   */\n              dup3\n                /* \"#utility.yul\":1128:1162   */\n              tag_73\n              jump\t// in\n            tag_118:\n                /* \"#utility.yul\":1115:1162   */\n              swap1\n              pop\n                /* \"#utility.yul\":1037:1168   */\n              swap2\n              swap1\n              pop\n              jump\t// out\n                /* \"#utility.yul\":1174:1321   */\n            tag_75:\n                /* \"#utility.yul\":1269:1314   */\n              tag_120\n                /* \"#utility.yul\":1308:1313   */\n              dup2\n                /* \"#utility.yul\":1269:1314   */\n              tag_74\n              jump\t// in\n            tag_120:\n                /* \"#utility.yul\":1264:1267   */\n              dup3\n                /* \"#utility.yul\":1257:1315   */\n              mstore\n                /* \"#utility.yul\":1174:1321   */\n              pop\n              pop\n              jump\t// out\n                /* \"#utility.yul\":1327:1565   */\n            tag_18:\n                /* \"#utility.yul\":1428:1432   */\n              0x00\n                /* \"#utility.yul\":1466:1468   */\n              0x20\n                /* \"#utility.yul\":1455:1464   */\n              dup3\n                /* \"#utility.yul\":1451:1469   */\n              add\n                /* \"#utility.yul\":1443:1469   */\n              swap1\n              pop\n                /* \"#utility.yul\":1479:1558   */\n              tag_122\n                /* \"#utility.yul\":1555:1556   */\n              0x00\n                /* \"#utility.yul\":1544:1553   */\n              dup4\n                /* \"#utility.yul\":1540:1557   */\n              add\n                /* \"#utility.yul\":1531:1537   */\n              dup5\n                /* \"#utility.yul\":1479:1558   */\n              tag_75\n              jump\t// in\n            tag_122:\n                /* \"#utility.yul\":1327:1565   */\n              swap3\n              swap2\n              pop\n              pop\n              jump\t// out\n                /* \"#utility.yul\":1571:1631   */\n            tag_76:\n                /* \"#utility.yul\":1599:1602   */\n              0x00\n                /* \"#utility.yul\":1620:1625   */\n              dup2\n                /* \"#utility.yul\":1613:1625   */\n              swap1\n              pop\n                /* \"#utility.yul\":1571:1631   */\n              swap2\n              swap1\n              pop\n              jump\t// out\n                /* \"#utility.yul\":1637:1779   */\n            tag_77:\n                /* \"#utility.yul\":1687:1696   */\n              0x00\n                /* \"#utility.yul\":1720:1773   */\n              tag_125\n                /* \"#utility.yul\":1738:1772   */\n              tag_126\n                /* \"#utility.yul\":1747:1771   */\n              tag_127\n                /* \"#utility.yul\":1765:1770   */\n              dup5\n                /* \"#utility.yul\":1747:1771   */\n              tag_69\n              jump\t// in\n            tag_127:\n                /* \"#utility.yul\":1738:1772   */\n              tag_76\n              jump\t// in\n            tag_126:\n                /* \"#utility.yul\":1720:1773   */\n              tag_69\n              jump\t// in\n            tag_125:\n                /* \"#utility.yul\":1707:1773   */\n              swap1\n              pop\n                /* \"#utility.yul\":1637:1779   */\n              swap2\n              swap1\n              pop\n              jump\t// out\n                /* \"#utility.yul\":1785:1911   */\n            tag_78:\n                /* \"#utility.yul\":1835:1844   */\n              0x00\n                /* \"#utility.yul\":1868:1905   */\n              tag_129\n                /* \"#utility.yul\":1899:1904   */\n              dup3\n                /* \"#utility.yul\":1868:1905   */\n              tag_77\n              jump\t// in\n            tag_129:\n                /* \"#utility.yul\":1855:1905   */\n              swap1\n              pop\n                /* \"#utility.yul\":1785:1911   */\n              swap2\n              swap1\n              pop\n              jump\t// out\n                /* \"#utility.yul\":1917:2088   */\n            tag_79:\n                /* \"#utility.yul\":2012:2021   */\n              0x00\n                /* \"#utility.yul\":2045:2082   */\n              tag_131\n                /* \"#utility.yul\":2076:2081   */\n              dup3\n                /* \"#utility.yul\":2045:2082   */\n              tag_78\n              jump\t// in\n            tag_131:\n                /* \"#utility.yul\":2032:2082   */\n              swap1\n              pop\n                /* \"#utility.yul\":1917:2088   */\n              swap2\n              swap1\n              pop\n              jump\t// out\n                /* \"#utility.yul\":2094:2315   */\n            tag_80:\n                /* \"#utility.yul\":2226:2308   */\n              tag_133\n                /* \"#utility.yul\":2302:2307   */\n              dup2\n                /* \"#utility.yul\":2226:2308   */\n              tag_79\n              jump\t// in\n            tag_133:\n                /* \"#utility.yul\":2221:2224   */\n              dup3\n                /* \"#utility.yul\":2214:2309   */\n              mstore\n                /* \"#utility.yul\":2094:2315   */\n              pop\n              pop\n              jump\t// out\n                /* \"#utility.yul\":2321:2633   */\n            tag_22:\n                /* \"#utility.yul\":2459:2463   */\n              0x00\n                /* \"#utility.yul\":2497:2499   */\n              0x20\n                /* \"#utility.yul\":2486:2495   */\n              dup3\n                /* \"#utility.yul\":2482:2500   */\n              add\n                /* \"#utility.yul\":2474:2500   */\n              swap1\n              pop\n                /* \"#utility.yul\":2510:2626   */\n              tag_135\n                /* \"#utility.yul\":2623:2624   */\n              0x00\n                /* \"#utility.yul\":2612:2621   */\n              dup4\n                /* \"#utility.yul\":2608:2625   */\n              add\n                /* \"#utility.yul\":2599:2605   */\n              dup5\n                /* \"#utility.yul\":2510:2626   */\n              tag_80\n              jump\t// in\n            tag_135:\n                /* \"#utility.yul\":2321:2633   */\n              swap3\n              swap2\n              pop\n              pop\n              jump\t// out\n                /* \"#utility.yul\":2639:2738   */\n            tag_81:\n                /* \"#utility.yul\":2691:2697   */\n              0x00\n                /* \"#utility.yul\":2725:2730   */\n              dup2\n                /* \"#utility.yul\":2719:2731   */\n              mload\n                /* \"#utility.yul\":2709:2731   */\n              swap1\n              pop\n                /* \"#utility.yul\":2639:2738   */\n              swap2\n              swap1\n              pop\n              jump\t// out\n                /* \"#utility.yul\":2744:2913   */\n            tag_82:\n                /* \"#utility.yul\":2828:2839   */\n              0x00\n                /* \"#utility.yul\":2862:2868   */\n              dup3\n                /* \"#utility.yul\":2857:2860   */\n              dup3\n                /* \"#utility.yul\":2850:2869   */\n              mstore\n                /* \"#utility.yul\":2902:2906   */\n              0x20\n                /* \"#utility.yul\":2897:2900   */\n              dup3\n                /* \"#utility.yul\":2893:2907   */\n              add\n                /* \"#utility.yul\":2878:2907   */\n              swap1\n              pop\n                /* \"#utility.yul\":2744:2913   */\n              swap3\n              swap2\n              pop\n              pop\n              jump\t// out\n                /* \"#utility.yul\":2919:3226   */\n            tag_83:\n                /* \"#utility.yul\":2987:2988   */\n              0x00\n                /* \"#utility.yul\":2997:3110   */\n            tag_139:\n                /* \"#utility.yul\":3011:3017   */\n              dup4\n                /* \"#utility.yul\":3008:3009   */\n              dup2\n                /* \"#utility.yul\":3005:3018   */\n              lt\n                /* \"#utility.yul\":2997:3110   */\n              iszero\n              tag_141\n              jumpi\n                /* \"#utility.yul\":3096:3097   */\n              dup1\n                /* \"#utility.yul\":3091:3094   */\n              dup3\n                /* \"#utility.yul\":3087:3098   */\n              add\n                /* \"#utility.yul\":3081:3099   */\n              mload\n                /* \"#utility.yul\":3077:3078   */\n              dup2\n                /* \"#utility.yul\":3072:3075   */\n              dup5\n                /* \"#utility.yul\":3068:3079   */\n              add\n                /* \"#utility.yul\":3061:3100   */\n              mstore\n                /* \"#utility.yul\":3033:3035   */\n              0x20\n                /* \"#utility.yul\":3030:3031   */\n              dup2\n                /* \"#utility.yul\":3026:3036   */\n              add\n                /* \"#utility.yul\":3021:3036   */\n              swap1\n              pop\n                /* \"#utility.yul\":2997:3110   */\n              jump(tag_139)\n            tag_141:\n                /* \"#utility.yul\":3128:3134   */\n              dup4\n                /* \"#utility.yul\":3125:3126   */\n              dup2\n                /* \"#utility.yul\":3122:3135   */\n              gt\n                /* \"#utility.yul\":3119:3220   */\n              iszero\n              tag_142\n              jumpi\n                /* \"#utility.yul\":3208:3209   */\n              0x00\n                /* \"#utility.yul\":3199:3205   */\n              dup5\n                /* \"#utility.yul\":3194:3197   */\n              dup5\n                /* \"#utility.yul\":3190:3206   */\n              add\n                /* \"#utility.yul\":3183:3210   */\n              mstore\n                /* \"#utility.yul\":3119:3220   */\n            tag_142:\n                /* \"#utility.yul\":2968:3226   */\n              pop\n                /* \"#utility.yul\":2919:3226   */\n              pop\n              pop\n              pop\n              jump\t// out\n                /* \"#utility.yul\":3232:3334   */\n            tag_84:\n                /* \"#utility.yul\":3273:3279   */\n              0x00\n                /* \"#utility.yul\":3324:3326   */\n              0x1f\n                /* \"#utility.yul\":3320:3327   */\n              not\n                /* \"#utility.yul\":3315:3317   */\n              0x1f\n                /* \"#utility.yul\":3308:3313   */\n              dup4\n                /* \"#utility.yul\":3304:3318   */\n              add\n                /* \"#utility.yul\":3300:3328   */\n              and\n                /* \"#utility.yul\":3290:3328   */\n              swap1\n              pop\n                /* \"#utility.yul\":3232:3334   */\n              swap2\n              swap1\n              pop\n              jump\t// out\n                /* \"#utility.yul\":3340:3704   */\n            tag_85:\n                /* \"#utility.yul\":3428:3431   */\n              0x00\n                /* \"#utility.yul\":3456:3495   */\n              tag_145\n                /* \"#utility.yul\":3489:3494   */\n              dup3\n                /* \"#utility.yul\":3456:3495   */\n              tag_81\n              jump\t// in\n            tag_145:\n                /* \"#utility.yul\":3511:3582   */\n              tag_146\n                /* \"#utility.yul\":3575:3581   */\n              dup2\n                /* \"#utility.yul\":3570:3573   */\n              dup6\n                /* \"#utility.yul\":3511:3582   */\n              tag_82\n              jump\t// in\n            tag_146:\n                /* \"#utility.yul\":3504:3582   */\n              swap4\n              pop\n                /* \"#utility.yul\":3591:3643   */\n              tag_147\n                /* \"#utility.yul\":3636:3642   */\n              dup2\n                /* \"#utility.yul\":3631:3634   */\n              dup6\n                /* \"#utility.yul\":3624:3628   */\n              0x20\n                /* \"#utility.yul\":3617:3622   */\n              dup7\n                /* \"#utility.yul\":3613:3629   */\n              add\n                /* \"#utility.yul\":3591:3643   */\n              tag_83\n              jump\t// in\n            tag_147:\n                /* \"#utility.yul\":3668:3697   */\n              tag_148\n                /* \"#utility.yul\":3690:3696   */\n              dup2\n                /* \"#utility.yul\":3668:3697   */\n              tag_84\n              jump\t// in\n            tag_148:\n                /* \"#utility.yul\":3663:3666   */\n              dup5\n                /* \"#utility.yul\":3659:3698   */\n              add\n                /* \"#utility.yul\":3652:3698   */\n              swap2\n              pop\n                /* \"#utility.yul\":3432:3704   */\n              pop\n                /* \"#utility.yul\":3340:3704   */\n              swap3\n              swap2\n              pop\n              pop\n              jump\t// out\n                /* \"#utility.yul\":3710:4023   */\n            tag_32:\n                /* \"#utility.yul\":3823:3827   */\n              0x00\n                /* \"#utility.yul\":3861:3863   */\n              0x20\n                /* \"#utility.yul\":3850:3859   */\n              dup3\n                /* \"#utility.yul\":3846:3864   */\n              add\n                /* \"#utility.yul\":3838:3864   */\n              swap1\n              pop\n                /* \"#utility.yul\":3910:3919   */\n              dup2\n                /* \"#utility.yul\":3904:3908   */\n              dup2\n                /* \"#utility.yul\":3900:3920   */\n              sub\n                /* \"#utility.yul\":3896:3897   */\n              0x00\n                /* \"#utility.yul\":3885:3894   */\n              dup4\n                /* \"#utility.yul\":3881:3898   */\n              add\n                /* \"#utility.yul\":3874:3921   */\n              mstore\n                /* \"#utility.yul\":3938:4016   */\n              tag_150\n                /* \"#utility.yul\":4011:4015   */\n              dup2\n                /* \"#utility.yul\":4002:4008   */\n              dup5\n                /* \"#utility.yul\":3938:4016   */\n              tag_85\n              jump\t// in\n            tag_150:\n                /* \"#utility.yul\":3930:4016   */\n              swap1\n              pop\n                /* \"#utility.yul\":3710:4023   */\n              swap3\n              swap2\n              pop\n              pop\n              jump\t// out\n                /* \"#utility.yul\":4029:4104   */\n            tag_86:\n                /* \"#utility.yul\":4062:4068   */\n              0x00\n                /* \"#utility.yul\":4095:4097   */\n              0x40\n                /* \"#utility.yul\":4089:4098   */\n              mload\n                /* \"#utility.yul\":4079:4098   */\n              swap1\n              pop\n                /* \"#utility.yul\":4029:4104   */\n              swap1\n              jump\t// out\n                /* \"#utility.yul\":4110:4227   */\n            tag_87:\n                /* \"#utility.yul\":4219:4220   */\n              0x00\n                /* \"#utility.yul\":4216:4217   */\n              dup1\n                /* \"#utility.yul\":4209:4221   */\n              revert\n                /* \"#utility.yul\":4233:4350   */\n            tag_88:\n                /* \"#utility.yul\":4342:4343   */\n              0x00\n                /* \"#utility.yul\":4339:4340   */\n              dup1\n                /* \"#utility.yul\":4332:4344   */\n              revert\n                /* \"#utility.yul\":4356:4473   */\n            tag_89:\n                /* \"#utility.yul\":4465:4466   */\n              0x00\n                /* \"#utility.yul\":4462:4463   */\n              dup1\n                /* \"#utility.yul\":4455:4467   */\n              revert\n                /* \"#utility.yul\":4479:4596   */\n            tag_90:\n                /* \"#utility.yul\":4588:4589   */\n              0x00\n                /* \"#utility.yul\":4585:4586   */\n              dup1\n                /* \"#utility.yul\":4578:4590   */\n              revert\n                /* \"#utility.yul\":4602:4782   */\n            tag_91:\n                /* \"#utility.yul\":4650:4727   */\n              0x4e487b7100000000000000000000000000000000000000000000000000000000\n                /* \"#utility.yul\":4647:4648   */\n              0x00\n                /* \"#utility.yul\":4640:4728   */\n              mstore\n                /* \"#utility.yul\":4747:4751   */\n              0x41\n                /* \"#utility.yul\":4744:4745   */\n              0x04\n                /* \"#utility.yul\":4737:4752   */\n              mstore\n                /* \"#utility.yul\":4771:4775   */\n              0x24\n                /* \"#utility.yul\":4768:4769   */\n              0x00\n                /* \"#utility.yul\":4761:4776   */\n              revert\n                /* \"#utility.yul\":4788:5069   */\n            tag_92:\n                /* \"#utility.yul\":4871:4898   */\n              tag_158\n                /* \"#utility.yul\":4893:4897   */\n              dup3\n                /* \"#utility.yul\":4871:4898   */\n              tag_84\n              jump\t// in\n            tag_158:\n                /* \"#utility.yul\":4863:4869   */\n              dup2\n                /* \"#utility.yul\":4859:4899   */\n              add\n                /* \"#utility.yul\":5001:5007   */\n              dup2\n                /* \"#utility.yul\":4989:4999   */\n              dup2\n                /* \"#utility.yul\":4986:5008   */\n              lt\n                /* \"#utility.yul\":4965:4983   */\n              0xffffffffffffffff\n                /* \"#utility.yul\":4953:4963   */\n              dup3\n                /* \"#utility.yul\":4950:4984   */\n              gt\n                /* \"#utility.yul\":4947:5009   */\n              or\n                /* \"#utility.yul\":4944:5032   */\n              iszero\n              tag_159\n              jumpi\n                /* \"#utility.yul\":5012:5030   */\n              tag_160\n              tag_91\n              jump\t// in\n            tag_160:\n                /* \"#utility.yul\":4944:5032   */\n            tag_159:\n                /* \"#utility.yul\":5052:5062   */\n              dup1\n                /* \"#utility.yul\":5048:5050   */\n              0x40\n                /* \"#utility.yul\":5041:5063   */\n              mstore\n                /* \"#utility.yul\":4831:5069   */\n              pop\n                /* \"#utility.yul\":4788:5069   */\n              pop\n              pop\n              jump\t// out\n                /* \"#utility.yul\":5075:5204   */\n            tag_93:\n                /* \"#utility.yul\":5109:5115   */\n              0x00\n                /* \"#utility.yul\":5136:5156   */\n              tag_162\n              tag_86\n              jump\t// in\n            tag_162:\n                /* \"#utility.yul\":5126:5156   */\n              swap1\n              pop\n                /* \"#utility.yul\":5165:5198   */\n              tag_163\n                /* \"#utility.yul\":5193:5197   */\n              dup3\n                /* \"#utility.yul\":5185:5191   */\n              dup3\n                /* \"#utility.yul\":5165:5198   */\n              tag_92\n              jump\t// in\n            tag_163:\n                /* \"#utility.yul\":5075:5204   */\n              swap2\n              swap1\n              pop\n              jump\t// out\n                /* \"#utility.yul\":5210:5518   */\n            tag_94:\n                /* \"#utility.yul\":5272:5276   */\n              0x00\n                /* \"#utility.yul\":5362:5380   */\n              0xffffffffffffffff\n                /* \"#utility.yul\":5354:5360   */\n              dup3\n                /* \"#utility.yul\":5351:5381   */\n              gt\n                /* \"#utility.yul\":5348:5404   */\n              iszero\n              tag_165\n              jumpi\n                /* \"#utility.yul\":5384:5402   */\n              tag_166\n              tag_91\n              jump\t// in\n            tag_166:\n                /* \"#utility.yul\":5348:5404   */\n            tag_165:\n                /* \"#utility.yul\":5422:5451   */\n              tag_167\n                /* \"#utility.yul\":5444:5450   */\n              dup3\n                /* \"#utility.yul\":5422:5451   */\n              tag_84\n              jump\t// in\n            tag_167:\n                /* \"#utility.yul\":5414:5451   */\n              swap1\n              pop\n                /* \"#utility.yul\":5506:5510   */\n              0x20\n                /* \"#utility.yul\":5500:5504   */\n              dup2\n                /* \"#utility.yul\":5496:5511   */\n              add\n                /* \"#utility.yul\":5488:5511   */\n              swap1\n              pop\n                /* \"#utility.yul\":5210:5518   */\n              swap2\n              swap1\n              pop\n              jump\t// out\n                /* \"#utility.yul\":5524:5678   */\n            tag_95:\n                /* \"#utility.yul\":5608:5614   */\n              dup3\n                /* \"#utility.yul\":5603:5606   */\n              dup2\n                /* \"#utility.yul\":5598:5601   */\n              dup4\n                /* \"#utility.yul\":5585:5615   */\n              calldatacopy\n                /* \"#utility.yul\":5670:5671   */\n              0x00\n                /* \"#utility.yul\":5661:5667   */\n              dup4\n                /* \"#utility.yul\":5656:5659   */\n              dup4\n                /* \"#utility.yul\":5652:5668   */\n              add\n                /* \"#utility.yul\":5645:5672   */\n              mstore\n                /* \"#utility.yul\":5524:5678   */\n              pop\n              pop\n              pop\n              jump\t// out\n                /* \"#utility.yul\":5684:6096   */\n            tag_96:\n                /* \"#utility.yul\":5762:5767   */\n              0x00\n                /* \"#utility.yul\":5787:5853   */\n              tag_170\n                /* \"#utility.yul\":5803:5852   */\n              tag_171\n                /* \"#utility.yul\":5845:5851   */\n              dup5\n                /* \"#utility.yul\":5803:5852   */\n              tag_94\n              jump\t// in\n            tag_171:\n                /* \"#utility.yul\":5787:5853   */\n              tag_93\n              jump\t// in\n            tag_170:\n                /* \"#utility.yul\":5778:5853   */\n              swap1\n              pop\n                /* \"#utility.yul\":5876:5882   */\n              dup3\n                /* \"#utility.yul\":5869:5874   */\n              dup2\n                /* \"#utility.yul\":5862:5883   */\n              mstore\n                /* \"#utility.yul\":5914:5918   */\n              0x20\n                /* \"#utility.yul\":5907:5912   */\n              dup2\n                /* \"#utility.yul\":5903:5919   */\n              add\n                /* \"#utility.yul\":5952:5955   */\n              dup5\n                /* \"#utility.yul\":5943:5949   */\n              dup5\n                /* \"#utility.yul\":5938:5941   */\n              dup5\n                /* \"#utility.yul\":5934:5950   */\n              add\n                /* \"#utility.yul\":5931:5956   */\n              gt\n                /* \"#utility.yul\":5928:6040   */\n              iszero\n              tag_172\n              jumpi\n                /* \"#utility.yul\":5959:6038   */\n              tag_173\n              tag_90\n              jump\t// in\n            tag_173:\n                /* \"#utility.yul\":5928:6040   */\n            tag_172:\n                /* \"#utility.yul\":6049:6090   */\n              tag_174\n                /* \"#utility.yul\":6083:6089   */\n              dup5\n                /* \"#utility.yul\":6078:6081   */\n              dup3\n                /* \"#utility.yul\":6073:6076   */\n              dup6\n                /* \"#utility.yul\":6049:6090   */\n              tag_95\n              jump\t// in\n            tag_174:\n                /* \"#utility.yul\":5768:6096   */\n              pop\n                /* \"#utility.yul\":5684:6096   */\n              swap4\n              swap3\n              pop\n              pop\n              pop\n              jump\t// out\n                /* \"#utility.yul\":6116:6456   */\n            tag_97:\n                /* \"#utility.yul\":6172:6177   */\n              0x00\n                /* \"#utility.yul\":6221:6224   */\n              dup3\n                /* \"#utility.yul\":6214:6218   */\n              0x1f\n                /* \"#utility.yul\":6206:6212   */\n              dup4\n                /* \"#utility.yul\":6202:6219   */\n              add\n                /* \"#utility.yul\":6198:6225   */\n              slt\n                /* \"#utility.yul\":6188:6310   */\n              tag_176\n              jumpi\n                /* \"#utility.yul\":6229:6308   */\n              tag_177\n              tag_89\n              jump\t// in\n            tag_177:\n                /* \"#utility.yul\":6188:6310   */\n            tag_176:\n                /* \"#utility.yul\":6346:6352   */\n              dup2\n                /* \"#utility.yul\":6333:6353   */\n              calldataload\n                /* \"#utility.yul\":6371:6450   */\n              tag_178\n                /* \"#utility.yul\":6446:6449   */\n              dup5\n                /* \"#utility.yul\":6438:6444   */\n              dup3\n                /* \"#utility.yul\":6431:6435   */\n              0x20\n                /* \"#utility.yul\":6423:6429   */\n              dup7\n                /* \"#utility.yul\":6419:6436   */\n              add\n                /* \"#utility.yul\":6371:6450   */\n              tag_96\n              jump\t// in\n            tag_178:\n                /* \"#utility.yul\":6362:6450   */\n              swap2\n              pop\n                /* \"#utility.yul\":6178:6456   */\n              pop\n                /* \"#utility.yul\":6116:6456   */\n              swap3\n              swap2\n              pop\n              pop\n              jump\t// out\n                /* \"#utility.yul\":6462:6971   */\n            tag_35:\n                /* \"#utility.yul\":6531:6537   */\n              0x00\n                /* \"#utility.yul\":6580:6582   */\n              0x20\n                /* \"#utility.yul\":6568:6577   */\n              dup3\n                /* \"#utility.yul\":6559:6566   */\n              dup5\n                /* \"#utility.yul\":6555:6578   */\n              sub\n                /* \"#utility.yul\":6551:6583   */\n              slt\n                /* \"#utility.yul\":6548:6667   */\n              iszero\n              tag_180\n              jumpi\n                /* \"#utility.yul\":6586:6665   */\n              tag_181\n              tag_87\n              jump\t// in\n            tag_181:\n                /* \"#utility.yul\":6548:6667   */\n            tag_180:\n                /* \"#utility.yul\":6734:6735   */\n              0x00\n                /* \"#utility.yul\":6723:6732   */\n              dup3\n                /* \"#utility.yul\":6719:6736   */\n              add\n                /* \"#utility.yul\":6706:6737   */\n              calldataload\n                /* \"#utility.yul\":6764:6782   */\n              0xffffffffffffffff\n                /* \"#utility.yul\":6756:6762   */\n              dup2\n                /* \"#utility.yul\":6753:6783   */\n              gt\n                /* \"#utility.yul\":6750:6867   */\n              iszero\n              tag_182\n              jumpi\n                /* \"#utility.yul\":6786:6865   */\n              tag_183\n              tag_88\n              jump\t// in\n            tag_183:\n                /* \"#utility.yul\":6750:6867   */\n            tag_182:\n                /* \"#utility.yul\":6891:6954   */\n              tag_184\n                /* \"#utility.yul\":6946:6953   */\n              dup5\n                /* \"#utility.yul\":6937:6943   */\n              dup3\n                /* \"#utility.yul\":6926:6935   */\n              dup6\n                /* \"#utility.yul\":6922:6944   */\n              add\n                /* \"#utility.yul\":6891:6954   */\n              tag_97\n              jump\t// in\n            tag_184:\n                /* \"#utility.yul\":6881:6954   */\n              swap2\n              pop\n                /* \"#utility.yul\":6677:6964   */\n              pop\n                /* \"#utility.yul\":6462:6971   */\n              swap3\n              swap2\n              pop\n              pop\n              jump\t// out\n                /* \"#utility.yul\":6977:7205   */\n            tag_98:\n                /* \"#utility.yul\":7117:7151   */\n              0x4f6e6c7920726566657265652063616e20617070726f766520617070726f7661\n                /* \"#utility.yul\":7113:7114   */\n              0x00\n                /* \"#utility.yul\":7105:7111   */\n              dup3\n                /* \"#utility.yul\":7101:7115   */\n              add\n                /* \"#utility.yul\":7094:7152   */\n              mstore\n                /* \"#utility.yul\":7186:7197   */\n              0x6c20726571756573740000000000000000000000000000000000000000000000\n                /* \"#utility.yul\":7181:7183   */\n              0x20\n                /* \"#utility.yul\":7173:7179   */\n              dup3\n                /* \"#utility.yul\":7169:7184   */\n              add\n                /* \"#utility.yul\":7162:7198   */\n              mstore\n                /* \"#utility.yul\":6977:7205   */\n              pop\n              jump\t// out\n                /* \"#utility.yul\":7211:7577   */\n            tag_99:\n                /* \"#utility.yul\":7353:7356   */\n              0x00\n                /* \"#utility.yul\":7374:7441   */\n              tag_187\n                /* \"#utility.yul\":7438:7440   */\n              0x29\n                /* \"#utility.yul\":7433:7436   */\n              dup4\n                /* \"#utility.yul\":7374:7441   */\n              tag_82\n              jump\t// in\n            tag_187:\n                /* \"#utility.yul\":7367:7441   */\n              swap2\n              pop\n                /* \"#utility.yul\":7450:7543   */\n              tag_188\n                /* \"#utility.yul\":7539:7542   */\n              dup3\n                /* \"#utility.yul\":7450:7543   */\n              tag_98\n              jump\t// in\n            tag_188:\n                /* \"#utility.yul\":7568:7570   */\n              0x40\n                /* \"#utility.yul\":7563:7566   */\n              dup3\n                /* \"#utility.yul\":7559:7571   */\n              add\n                /* \"#utility.yul\":7552:7571   */\n              swap1\n              pop\n                /* \"#utility.yul\":7211:7577   */\n              swap2\n              swap1\n              pop\n              jump\t// out\n                /* \"#utility.yul\":7583:8002   */\n            tag_41:\n                /* \"#utility.yul\":7749:7753   */\n              0x00\n                /* \"#utility.yul\":7787:7789   */\n              0x20\n                /* \"#utility.yul\":7776:7785   */\n              dup3\n                /* \"#utility.yul\":7772:7790   */\n              add\n                /* \"#utility.yul\":7764:7790   */\n              swap1\n              pop\n                /* \"#utility.yul\":7836:7845   */\n              dup2\n                /* \"#utility.yul\":7830:7834   */\n              dup2\n                /* \"#utility.yul\":7826:7846   */\n              sub\n                /* \"#utility.yul\":7822:7823   */\n              0x00\n                /* \"#utility.yul\":7811:7820   */\n              dup4\n                /* \"#utility.yul\":7807:7824   */\n              add\n                /* \"#utility.yul\":7800:7847   */\n              mstore\n                /* \"#utility.yul\":7864:7995   */\n              tag_190\n                /* \"#utility.yul\":7990:7994   */\n              dup2\n                /* \"#utility.yul\":7864:7995   */\n              tag_99\n              jump\t// in\n            tag_190:\n                /* \"#utility.yul\":7856:7995   */\n              swap1\n              pop\n                /* \"#utility.yul\":7583:8002   */\n              swap2\n              swap1\n              pop\n              jump\t// out\n                /* \"#utility.yul\":8008:8188   */\n            tag_100:\n                /* \"#utility.yul\":8056:8133   */\n              0x4e487b7100000000000000000000000000000000000000000000000000000000\n                /* \"#utility.yul\":8053:8054   */\n              0x00\n                /* \"#utility.yul\":8046:8134   */\n              mstore\n                /* \"#utility.yul\":8153:8157   */\n              0x22\n                /* \"#utility.yul\":8150:8151   */\n              0x04\n                /* \"#utility.yul\":8143:8158   */\n              mstore\n                /* \"#utility.yul\":8177:8181   */\n              0x24\n                /* \"#utility.yul\":8174:8175   */\n              0x00\n                /* \"#utility.yul\":8167:8182   */\n              revert\n                /* \"#utility.yul\":8194:8514   */\n            tag_46:\n                /* \"#utility.yul\":8238:8244   */\n              0x00\n                /* \"#utility.yul\":8275:8276   */\n              0x02\n                /* \"#utility.yul\":8269:8273   */\n              dup3\n                /* \"#utility.yul\":8265:8277   */\n              div\n                /* \"#utility.yul\":8255:8277   */\n              swap1\n              pop\n                /* \"#utility.yul\":8322:8323   */\n              0x01\n                /* \"#utility.yul\":8316:8320   */\n              dup3\n                /* \"#utility.yul\":8312:8324   */\n              and\n                /* \"#utility.yul\":8343:8361   */\n              dup1\n                /* \"#utility.yul\":8333:8414   */\n              tag_193\n              jumpi\n                /* \"#utility.yul\":8399:8403   */\n              0x7f\n                /* \"#utility.yul\":8391:8397   */\n              dup3\n                /* \"#utility.yul\":8387:8404   */\n              and\n                /* \"#utility.yul\":8377:8404   */\n              swap2\n              pop\n                /* \"#utility.yul\":8333:8414   */\n            tag_193:\n                /* \"#utility.yul\":8461:8463   */\n              0x20\n                /* \"#utility.yul\":8453:8459   */\n              dup3\n                /* \"#utility.yul\":8450:8464   */\n              lt\n                /* \"#utility.yul\":8430:8448   */\n              dup2\n                /* \"#utility.yul\":8427:8465   */\n              eq\n                /* \"#utility.yul\":8424:8508   */\n              iszero\n              tag_194\n              jumpi\n                /* \"#utility.yul\":8480:8498   */\n              tag_195\n              tag_100\n              jump\t// in\n            tag_195:\n                /* \"#utility.yul\":8424:8508   */\n            tag_194:\n                /* \"#utility.yul\":8245:8514   */\n              pop\n                /* \"#utility.yul\":8194:8514   */\n              swap2\n              swap1\n              pop\n              jump\t// out\n                /* \"#utility.yul\":8520:8745   */\n            tag_101:\n                /* \"#utility.yul\":8660:8694   */\n              0x4f6e6c7920726566657265652063616e2064656e7920617070726f76616c2072\n                /* \"#utility.yul\":8656:8657   */\n              0x00\n                /* \"#utility.yul\":8648:8654   */\n              dup3\n                /* \"#utility.yul\":8644:8658   */\n              add\n                /* \"#utility.yul\":8637:8695   */\n              mstore\n                /* \"#utility.yul\":8729:8737   */\n              0x6571756573740000000000000000000000000000000000000000000000000000\n                /* \"#utility.yul\":8724:8726   */\n              0x20\n                /* \"#utility.yul\":8716:8722   */\n              dup3\n                /* \"#utility.yul\":8712:8727   */\n              add\n                /* \"#utility.yul\":8705:8738   */\n              mstore\n                /* \"#utility.yul\":8520:8745   */\n              pop\n              jump\t// out\n                /* \"#utility.yul\":8751:9117   */\n            tag_102:\n                /* \"#utility.yul\":8893:8896   */\n              0x00\n                /* \"#utility.yul\":8914:8981   */\n              tag_198\n                /* \"#utility.yul\":8978:8980   */\n              0x26\n                /* \"#utility.yul\":8973:8976   */\n              dup4\n                /* \"#utility.yul\":8914:8981   */\n              tag_82\n              jump\t// in\n            tag_198:\n                /* \"#utility.yul\":8907:8981   */\n              swap2\n              pop\n                /* \"#utility.yul\":8990:9083   */\n              tag_199\n                /* \"#utility.yul\":9079:9082   */\n              dup3\n                /* \"#utility.yul\":8990:9083   */\n              tag_101\n              jump\t// in\n            tag_199:\n                /* \"#utility.yul\":9108:9110   */\n              0x40\n                /* \"#utility.yul\":9103:9106   */\n              dup3\n                /* \"#utility.yul\":9099:9111   */\n              add\n                /* \"#utility.yul\":9092:9111   */\n              swap1\n              pop\n                /* \"#utility.yul\":8751:9117   */\n              swap2\n              swap1\n              pop\n              jump\t// out\n                /* \"#utility.yul\":9123:9542   */\n            tag_54:\n                /* \"#utility.yul\":9289:9293   */\n              0x00\n                /* \"#utility.yul\":9327:9329   */\n              0x20\n                /* \"#utility.yul\":9316:9325   */\n              dup3\n                /* \"#utility.yul\":9312:9330   */\n              add\n                /* \"#utility.yul\":9304:9330   */\n              swap1\n              pop\n                /* \"#utility.yul\":9376:9385   */\n              dup2\n                /* \"#utility.yul\":9370:9374   */\n              dup2\n                /* \"#utility.yul\":9366:9386   */\n              sub\n                /* \"#utility.yul\":9362:9363   */\n              0x00\n                /* \"#utility.yul\":9351:9360   */\n              dup4\n                /* \"#utility.yul\":9347:9364   */\n              add\n                /* \"#utility.yul\":9340:9387   */\n              mstore\n                /* \"#utility.yul\":9404:9535   */\n              tag_201\n                /* \"#utility.yul\":9530:9534   */\n              dup2\n                /* \"#utility.yul\":9404:9535   */\n              tag_102\n              jump\t// in\n            tag_201:\n                /* \"#utility.yul\":9396:9535   */\n              swap1\n              pop\n                /* \"#utility.yul\":9123:9542   */\n              swap2\n              swap1\n              pop\n              jump\t// out\n\n            auxdata: 0xa26469706673582212206a3229443fa6a62c6fef0ef6cf0dbba5efa359990d8aebd2ba3ad5e6b45380dd64736f6c634300080c0033\n        }\n    }\n\n    sub_1: assembly {\n            /* \"Contracts\":9990:11383  contract AccountabilityContract {... */\n          mstore(0x40, 0x80)\n            /* \"Contracts\":10269:10638  constructor(address _creator, address _referee, string memory _name, string memory _description, address _failureRecipient, uint _amount) payable {... */\n          mload(0x40)\n          sub(codesize, bytecodeSize)\n          dup1\n          bytecodeSize\n          dup4\n          codecopy\n          dup2\n          dup2\n          add\n          0x40\n          mstore\n          dup2\n          add\n          swap1\n          tag_1\n          swap2\n          swap1\n          tag_2\n          jump\t// in\n        tag_1:\n            /* \"Contracts\":10435:10443  _creator */\n          dup6\n            /* \"Contracts\":10425:10432  creator */\n          0x00\n          dup1\n            /* \"Contracts\":10425:10443  creator = _creator */\n          0x0100\n          exp\n          dup2\n          sload\n          dup2\n          0xffffffffffffffffffffffffffffffffffffffff\n          mul\n          not\n          and\n          swap1\n          dup4\n          0xffffffffffffffffffffffffffffffffffffffff\n          and\n          mul\n          or\n          swap1\n          sstore\n          pop\n            /* \"Contracts\":10463:10471  _referee */\n          dup5\n            /* \"Contracts\":10453:10460  referee */\n          0x01\n          0x00\n            /* \"Contracts\":10453:10471  referee = _referee */\n          0x0100\n          exp\n          dup2\n          sload\n          dup2\n          0xffffffffffffffffffffffffffffffffffffffff\n          mul\n          not\n          and\n          swap1\n          dup4\n          0xffffffffffffffffffffffffffffffffffffffff\n          and\n          mul\n          or\n          swap1\n          sstore\n          pop\n            /* \"Contracts\":10488:10493  _name */\n          dup4\n            /* \"Contracts\":10481:10485  name */\n          0x02\n            /* \"Contracts\":10481:10493  name = _name */\n          swap1\n          dup1\n          mload\n          swap1\n          0x20\n          add\n          swap1\n          tag_5\n          swap3\n          swap2\n          swap1\n          tag_6\n          jump\t// in\n        tag_5:\n          pop\n            /* \"Contracts\":10517:10529  _description */\n          dup3\n            /* \"Contracts\":10503:10514  description */\n          0x03\n            /* \"Contracts\":10503:10529  description = _description */\n          swap1\n          dup1\n          mload\n          swap1\n          0x20\n          add\n          swap1\n          tag_7\n          swap3\n          swap2\n          swap1\n          tag_6\n          jump\t// in\n        tag_7:\n          pop\n            /* \"Contracts\":10558:10575  _failureRecipient */\n          dup2\n            /* \"Contracts\":10539:10555  failureRecipient */\n          0x04\n          0x00\n            /* \"Contracts\":10539:10575  failureRecipient = _failureRecipient */\n          0x0100\n          exp\n          dup2\n          sload\n          dup2\n          0xffffffffffffffffffffffffffffffffffffffff\n          mul\n          not\n          and\n          swap1\n          dup4\n          0xffffffffffffffffffffffffffffffffffffffff\n          and\n          mul\n          or\n          swap1\n          sstore\n          pop\n            /* \"Contracts\":10594:10601  _amount */\n          dup1\n            /* \"Contracts\":10585:10591  amount */\n          0x05\n            /* \"Contracts\":10585:10601  amount = _amount */\n          dup2\n          swap1\n          sstore\n          pop\n            /* \"Contracts\":10620:10631  Status.OPEN */\n          0x00\n            /* \"Contracts\":10611:10617  status */\n          0x06\n          0x00\n            /* \"Contracts\":10611:10631  status = Status.OPEN */\n          0x0100\n          exp\n          dup2\n          sload\n          dup2\n          0xff\n          mul\n          not\n          and\n          swap1\n          dup4\n          0x02\n          dup2\n          gt\n          iszero\n          tag_8\n          jumpi\n          tag_9\n          tag_10\n          jump\t// in\n        tag_9:\n        tag_8:\n          mul\n          or\n          swap1\n          sstore\n          pop\n            /* \"Contracts\":10269:10638  constructor(address _creator, address _referee, string memory _name, string memory _description, address _failureRecipient, uint _amount) payable {... */\n          pop\n          pop\n          pop\n          pop\n          pop\n          pop\n            /* \"Contracts\":9990:11383  contract AccountabilityContract {... */\n          jump(tag_11)\n        tag_6:\n          dup3\n          dup1\n          sload\n          tag_12\n          swap1\n          tag_13\n          jump\t// in\n        tag_12:\n          swap1\n          0x00\n          mstore\n          keccak256(0x00, 0x20)\n          swap1\n          0x1f\n          add\n          0x20\n          swap1\n          div\n          dup2\n          add\n          swap3\n          dup3\n          tag_15\n          jumpi\n          0x00\n          dup6\n          sstore\n          jump(tag_14)\n        tag_15:\n          dup3\n          0x1f\n          lt\n          tag_16\n          jumpi\n          dup1\n          mload\n          not(0xff)\n          and\n          dup4\n          dup1\n          add\n          or\n          dup6\n          sstore\n          jump(tag_14)\n        tag_16:\n          dup3\n          dup1\n          add\n          0x01\n          add\n          dup6\n          sstore\n          dup3\n          iszero\n          tag_14\n          jumpi\n          swap2\n          dup3\n          add\n        tag_17:\n          dup3\n          dup2\n          gt\n          iszero\n          tag_18\n          jumpi\n          dup3\n          mload\n          dup3\n          sstore\n          swap2\n          0x20\n          add\n          swap2\n          swap1\n          0x01\n          add\n          swap1\n          jump(tag_17)\n        tag_18:\n        tag_14:\n          pop\n          swap1\n          pop\n          tag_19\n          swap2\n          swap1\n          tag_20\n          jump\t// in\n        tag_19:\n          pop\n          swap1\n          jump\t// out\n        tag_20:\n        tag_21:\n          dup1\n          dup3\n          gt\n          iszero\n          tag_22\n          jumpi\n          0x00\n          dup2\n          0x00\n          swap1\n          sstore\n          pop\n          0x01\n          add\n          jump(tag_21)\n        tag_22:\n          pop\n          swap1\n          jump\t// out\n            /* \"#utility.yul\":7:82   */\n        tag_23:\n            /* \"#utility.yul\":40:46   */\n          0x00\n            /* \"#utility.yul\":73:75   */\n          0x40\n            /* \"#utility.yul\":67:76   */\n          mload\n            /* \"#utility.yul\":57:76   */\n          swap1\n          pop\n            /* \"#utility.yul\":7:82   */\n          swap1\n          jump\t// out\n            /* \"#utility.yul\":88:205   */\n        tag_24:\n            /* \"#utility.yul\":197:198   */\n          0x00\n            /* \"#utility.yul\":194:195   */\n          dup1\n            /* \"#utility.yul\":187:199   */\n          revert\n            /* \"#utility.yul\":211:328   */\n        tag_25:\n            /* \"#utility.yul\":320:321   */\n          0x00\n            /* \"#utility.yul\":317:318   */\n          dup1\n            /* \"#utility.yul\":310:322   */\n          revert\n            /* \"#utility.yul\":334:460   */\n        tag_26:\n            /* \"#utility.yul\":371:378   */\n          0x00\n            /* \"#utility.yul\":411:453   */\n          0xffffffffffffffffffffffffffffffffffffffff\n            /* \"#utility.yul\":404:409   */\n          dup3\n            /* \"#utility.yul\":400:454   */\n          and\n            /* \"#utility.yul\":389:454   */\n          swap1\n          pop\n            /* \"#utility.yul\":334:460   */\n          swap2\n          swap1\n          pop\n          jump\t// out\n            /* \"#utility.yul\":466:562   */\n        tag_27:\n            /* \"#utility.yul\":503:510   */\n          0x00\n            /* \"#utility.yul\":532:556   */\n          tag_50\n            /* \"#utility.yul\":550:555   */\n          dup3\n            /* \"#utility.yul\":532:556   */\n          tag_26\n          jump\t// in\n        tag_50:\n            /* \"#utility.yul\":521:556   */\n          swap1\n          pop\n            /* \"#utility.yul\":466:562   */\n          swap2\n          swap1\n          pop\n          jump\t// out\n            /* \"#utility.yul\":568:690   */\n        tag_28:\n            /* \"#utility.yul\":641:665   */\n          tag_52\n            /* \"#utility.yul\":659:664   */\n          dup2\n            /* \"#utility.yul\":641:665   */\n          tag_27\n          jump\t// in\n        tag_52:\n            /* \"#utility.yul\":634:639   */\n          dup2\n            /* \"#utility.yul\":631:666   */\n          eq\n            /* \"#utility.yul\":621:684   */\n          tag_53\n          jumpi\n            /* \"#utility.yul\":680:681   */\n          0x00\n            /* \"#utility.yul\":677:678   */\n          dup1\n            /* \"#utility.yul\":670:682   */\n          revert\n            /* \"#utility.yul\":621:684   */\n        tag_53:\n            /* \"#utility.yul\":568:690   */\n          pop\n          jump\t// out\n            /* \"#utility.yul\":696:839   */\n        tag_29:\n            /* \"#utility.yul\":753:758   */\n          0x00\n            /* \"#utility.yul\":784:790   */\n          dup2\n            /* \"#utility.yul\":778:791   */\n          mload\n            /* \"#utility.yul\":769:791   */\n          swap1\n          pop\n            /* \"#utility.yul\":800:833   */\n          tag_55\n            /* \"#utility.yul\":827:832   */\n          dup2\n            /* \"#utility.yul\":800:833   */\n          tag_28\n          jump\t// in\n        tag_55:\n            /* \"#utility.yul\":696:839   */\n          swap3\n          swap2\n          pop\n          pop\n          jump\t// out\n            /* \"#utility.yul\":845:962   */\n        tag_30:\n            /* \"#utility.yul\":954:955   */\n          0x00\n            /* \"#utility.yul\":951:952   */\n          dup1\n            /* \"#utility.yul\":944:956   */\n          revert\n            /* \"#utility.yul\":968:1085   */\n        tag_31:\n            /* \"#utility.yul\":1077:1078   */\n          0x00\n            /* \"#utility.yul\":1074:1075   */\n          dup1\n            /* \"#utility.yul\":1067:1079   */\n          revert\n            /* \"#utility.yul\":1091:1193   */\n        tag_32:\n            /* \"#utility.yul\":1132:1138   */\n          0x00\n            /* \"#utility.yul\":1183:1185   */\n          0x1f\n            /* \"#utility.yul\":1179:1186   */\n          not\n            /* \"#utility.yul\":1174:1176   */\n          0x1f\n            /* \"#utility.yul\":1167:1172   */\n          dup4\n            /* \"#utility.yul\":1163:1177   */\n          add\n            /* \"#utility.yul\":1159:1187   */\n          and\n            /* \"#utility.yul\":1149:1187   */\n          swap1\n          pop\n            /* \"#utility.yul\":1091:1193   */\n          swap2\n          swap1\n          pop\n          jump\t// out\n            /* \"#utility.yul\":1199:1379   */\n        tag_33:\n            /* \"#utility.yul\":1247:1324   */\n          0x4e487b7100000000000000000000000000000000000000000000000000000000\n            /* \"#utility.yul\":1244:1245   */\n          0x00\n            /* \"#utility.yul\":1237:1325   */\n          mstore\n            /* \"#utility.yul\":1344:1348   */\n          0x41\n            /* \"#utility.yul\":1341:1342   */\n          0x04\n            /* \"#utility.yul\":1334:1349   */\n          mstore\n            /* \"#utility.yul\":1368:1372   */\n          0x24\n            /* \"#utility.yul\":1365:1366   */\n          0x00\n            /* \"#utility.yul\":1358:1373   */\n          revert\n            /* \"#utility.yul\":1385:1666   */\n        tag_34:\n            /* \"#utility.yul\":1468:1495   */\n          tag_61\n            /* \"#utility.yul\":1490:1494   */\n          dup3\n            /* \"#utility.yul\":1468:1495   */\n          tag_32\n          jump\t// in\n        tag_61:\n            /* \"#utility.yul\":1460:1466   */\n          dup2\n            /* \"#utility.yul\":1456:1496   */\n          add\n            /* \"#utility.yul\":1598:1604   */\n          dup2\n            /* \"#utility.yul\":1586:1596   */\n          dup2\n            /* \"#utility.yul\":1583:1605   */\n          lt\n            /* \"#utility.yul\":1562:1580   */\n          0xffffffffffffffff\n            /* \"#utility.yul\":1550:1560   */\n          dup3\n            /* \"#utility.yul\":1547:1581   */\n          gt\n            /* \"#utility.yul\":1544:1606   */\n          or\n            /* \"#utility.yul\":1541:1629   */\n          iszero\n          tag_62\n          jumpi\n            /* \"#utility.yul\":1609:1627   */\n          tag_63\n          tag_33\n          jump\t// in\n        tag_63:\n            /* \"#utility.yul\":1541:1629   */\n        tag_62:\n            /* \"#utility.yul\":1649:1659   */\n          dup1\n            /* \"#utility.yul\":1645:1647   */\n          0x40\n            /* \"#utility.yul\":1638:1660   */\n          mstore\n            /* \"#utility.yul\":1428:1666   */\n          pop\n            /* \"#utility.yul\":1385:1666   */\n          pop\n          pop\n          jump\t// out\n            /* \"#utility.yul\":1672:1801   */\n        tag_35:\n            /* \"#utility.yul\":1706:1712   */\n          0x00\n            /* \"#utility.yul\":1733:1753   */\n          tag_65\n          tag_23\n          jump\t// in\n        tag_65:\n            /* \"#utility.yul\":1723:1753   */\n          swap1\n          pop\n            /* \"#utility.yul\":1762:1795   */\n          tag_66\n            /* \"#utility.yul\":1790:1794   */\n          dup3\n            /* \"#utility.yul\":1782:1788   */\n          dup3\n            /* \"#utility.yul\":1762:1795   */\n          tag_34\n          jump\t// in\n        tag_66:\n            /* \"#utility.yul\":1672:1801   */\n          swap2\n          swap1\n          pop\n          jump\t// out\n            /* \"#utility.yul\":1807:2115   */\n        tag_36:\n            /* \"#utility.yul\":1869:1873   */\n          0x00\n            /* \"#utility.yul\":1959:1977   */\n          0xffffffffffffffff\n            /* \"#utility.yul\":1951:1957   */\n          dup3\n            /* \"#utility.yul\":1948:1978   */\n          gt\n            /* \"#utility.yul\":1945:2001   */\n          iszero\n          tag_68\n          jumpi\n            /* \"#utility.yul\":1981:1999   */\n          tag_69\n          tag_33\n          jump\t// in\n        tag_69:\n            /* \"#utility.yul\":1945:2001   */\n        tag_68:\n            /* \"#utility.yul\":2019:2048   */\n          tag_70\n            /* \"#utility.yul\":2041:2047   */\n          dup3\n            /* \"#utility.yul\":2019:2048   */\n          tag_32\n          jump\t// in\n        tag_70:\n            /* \"#utility.yul\":2011:2048   */\n          swap1\n          pop\n            /* \"#utility.yul\":2103:2107   */\n          0x20\n            /* \"#utility.yul\":2097:2101   */\n          dup2\n            /* \"#utility.yul\":2093:2108   */\n          add\n            /* \"#utility.yul\":2085:2108   */\n          swap1\n          pop\n            /* \"#utility.yul\":1807:2115   */\n          swap2\n          swap1\n          pop\n          jump\t// out\n            /* \"#utility.yul\":2121:2428   */\n        tag_37:\n            /* \"#utility.yul\":2189:2190   */\n          0x00\n            /* \"#utility.yul\":2199:2312   */\n        tag_72:\n            /* \"#utility.yul\":2213:2219   */\n          dup4\n            /* \"#utility.yul\":2210:2211   */\n          dup2\n            /* \"#utility.yul\":2207:2220   */\n          lt\n            /* \"#utility.yul\":2199:2312   */\n          iszero\n          tag_74\n          jumpi\n            /* \"#utility.yul\":2298:2299   */\n          dup1\n            /* \"#utility.yul\":2293:2296   */\n          dup3\n            /* \"#utility.yul\":2289:2300   */\n          add\n            /* \"#utility.yul\":2283:2301   */\n          mload\n            /* \"#utility.yul\":2279:2280   */\n          dup2\n            /* \"#utility.yul\":2274:2277   */\n          dup5\n            /* \"#utility.yul\":2270:2281   */\n          add\n            /* \"#utility.yul\":2263:2302   */\n          mstore\n            /* \"#utility.yul\":2235:2237   */\n          0x20\n            /* \"#utility.yul\":2232:2233   */\n          dup2\n            /* \"#utility.yul\":2228:2238   */\n          add\n            /* \"#utility.yul\":2223:2238   */\n          swap1\n          pop\n            /* \"#utility.yul\":2199:2312   */\n          jump(tag_72)\n        tag_74:\n            /* \"#utility.yul\":2330:2336   */\n          dup4\n            /* \"#utility.yul\":2327:2328   */\n          dup2\n            /* \"#utility.yul\":2324:2337   */\n          gt\n            /* \"#utility.yul\":2321:2422   */\n          iszero\n          tag_75\n          jumpi\n            /* \"#utility.yul\":2410:2411   */\n          0x00\n            /* \"#utility.yul\":2401:2407   */\n          dup5\n            /* \"#utility.yul\":2396:2399   */\n          dup5\n            /* \"#utility.yul\":2392:2408   */\n          add\n            /* \"#utility.yul\":2385:2412   */\n          mstore\n            /* \"#utility.yul\":2321:2422   */\n        tag_75:\n            /* \"#utility.yul\":2170:2428   */\n          pop\n            /* \"#utility.yul\":2121:2428   */\n          pop\n          pop\n          pop\n          jump\t// out\n            /* \"#utility.yul\":2434:2855   */\n        tag_38:\n            /* \"#utility.yul\":2523:2528   */\n          0x00\n            /* \"#utility.yul\":2548:2614   */\n          tag_77\n            /* \"#utility.yul\":2564:2613   */\n          tag_78\n            /* \"#utility.yul\":2606:2612   */\n          dup5\n            /* \"#utility.yul\":2564:2613   */\n          tag_36\n          jump\t// in\n        tag_78:\n            /* \"#utility.yul\":2548:2614   */\n          tag_35\n          jump\t// in\n        tag_77:\n            /* \"#utility.yul\":2539:2614   */\n          swap1\n          pop\n            /* \"#utility.yul\":2637:2643   */\n          dup3\n            /* \"#utility.yul\":2630:2635   */\n          dup2\n            /* \"#utility.yul\":2623:2644   */\n          mstore\n            /* \"#utility.yul\":2675:2679   */\n          0x20\n            /* \"#utility.yul\":2668:2673   */\n          dup2\n            /* \"#utility.yul\":2664:2680   */\n          add\n            /* \"#utility.yul\":2713:2716   */\n          dup5\n            /* \"#utility.yul\":2704:2710   */\n          dup5\n            /* \"#utility.yul\":2699:2702   */\n          dup5\n            /* \"#utility.yul\":2695:2711   */\n          add\n            /* \"#utility.yul\":2692:2717   */\n          gt\n            /* \"#utility.yul\":2689:2801   */\n          iszero\n          tag_79\n          jumpi\n            /* \"#utility.yul\":2720:2799   */\n          tag_80\n          tag_31\n          jump\t// in\n        tag_80:\n            /* \"#utility.yul\":2689:2801   */\n        tag_79:\n            /* \"#utility.yul\":2810:2849   */\n          tag_81\n            /* \"#utility.yul\":2842:2848   */\n          dup5\n            /* \"#utility.yul\":2837:2840   */\n          dup3\n            /* \"#utility.yul\":2832:2835   */\n          dup6\n            /* \"#utility.yul\":2810:2849   */\n          tag_37\n          jump\t// in\n        tag_81:\n            /* \"#utility.yul\":2529:2855   */\n          pop\n            /* \"#utility.yul\":2434:2855   */\n          swap4\n          swap3\n          pop\n          pop\n          pop\n          jump\t// out\n            /* \"#utility.yul\":2875:3230   */\n        tag_39:\n            /* \"#utility.yul\":2942:2947   */\n          0x00\n            /* \"#utility.yul\":2991:2994   */\n          dup3\n            /* \"#utility.yul\":2984:2988   */\n          0x1f\n            /* \"#utility.yul\":2976:2982   */\n          dup4\n            /* \"#utility.yul\":2972:2989   */\n          add\n            /* \"#utility.yul\":2968:2995   */\n          slt\n            /* \"#utility.yul\":2958:3080   */\n          tag_83\n          jumpi\n            /* \"#utility.yul\":2999:3078   */\n          tag_84\n          tag_30\n          jump\t// in\n        tag_84:\n            /* \"#utility.yul\":2958:3080   */\n        tag_83:\n            /* \"#utility.yul\":3109:3115   */\n          dup2\n            /* \"#utility.yul\":3103:3116   */\n          mload\n            /* \"#utility.yul\":3134:3224   */\n          tag_85\n            /* \"#utility.yul\":3220:3223   */\n          dup5\n            /* \"#utility.yul\":3212:3218   */\n          dup3\n            /* \"#utility.yul\":3205:3209   */\n          0x20\n            /* \"#utility.yul\":3197:3203   */\n          dup7\n            /* \"#utility.yul\":3193:3210   */\n          add\n            /* \"#utility.yul\":3134:3224   */\n          tag_38\n          jump\t// in\n        tag_85:\n            /* \"#utility.yul\":3125:3224   */\n          swap2\n          pop\n            /* \"#utility.yul\":2948:3230   */\n          pop\n            /* \"#utility.yul\":2875:3230   */\n          swap3\n          swap2\n          pop\n          pop\n          jump\t// out\n            /* \"#utility.yul\":3236:3313   */\n        tag_40:\n            /* \"#utility.yul\":3273:3280   */\n          0x00\n            /* \"#utility.yul\":3302:3307   */\n          dup2\n            /* \"#utility.yul\":3291:3307   */\n          swap1\n          pop\n            /* \"#utility.yul\":3236:3313   */\n          swap2\n          swap1\n          pop\n          jump\t// out\n            /* \"#utility.yul\":3319:3441   */\n        tag_41:\n            /* \"#utility.yul\":3392:3416   */\n          tag_88\n            /* \"#utility.yul\":3410:3415   */\n          dup2\n            /* \"#utility.yul\":3392:3416   */\n          tag_40\n          jump\t// in\n        tag_88:\n            /* \"#utility.yul\":3385:3390   */\n          dup2\n            /* \"#utility.yul\":3382:3417   */\n          eq\n            /* \"#utility.yul\":3372:3435   */\n          tag_89\n          jumpi\n            /* \"#utility.yul\":3431:3432   */\n          0x00\n            /* \"#utility.yul\":3428:3429   */\n          dup1\n            /* \"#utility.yul\":3421:3433   */\n          revert\n            /* \"#utility.yul\":3372:3435   */\n        tag_89:\n            /* \"#utility.yul\":3319:3441   */\n          pop\n          jump\t// out\n            /* \"#utility.yul\":3447:3590   */\n        tag_42:\n            /* \"#utility.yul\":3504:3509   */\n          0x00\n            /* \"#utility.yul\":3535:3541   */\n          dup2\n            /* \"#utility.yul\":3529:3542   */\n          mload\n            /* \"#utility.yul\":3520:3542   */\n          swap1\n          pop\n            /* \"#utility.yul\":3551:3584   */\n          tag_91\n            /* \"#utility.yul\":3578:3583   */\n          dup2\n            /* \"#utility.yul\":3551:3584   */\n          tag_41\n          jump\t// in\n        tag_91:\n            /* \"#utility.yul\":3447:3590   */\n          swap3\n          swap2\n          pop\n          pop\n          jump\t// out\n            /* \"#utility.yul\":3596:5076   */\n        tag_2:\n            /* \"#utility.yul\":3731:3737   */\n          0x00\n            /* \"#utility.yul\":3739:3745   */\n          dup1\n            /* \"#utility.yul\":3747:3753   */\n          0x00\n            /* \"#utility.yul\":3755:3761   */\n          dup1\n            /* \"#utility.yul\":3763:3769   */\n          0x00\n            /* \"#utility.yul\":3771:3777   */\n          dup1\n            /* \"#utility.yul\":3820:3823   */\n          0xc0\n            /* \"#utility.yul\":3808:3817   */\n          dup8\n            /* \"#utility.yul\":3799:3806   */\n          dup10\n            /* \"#utility.yul\":3795:3818   */\n          sub\n            /* \"#utility.yul\":3791:3824   */\n          slt\n            /* \"#utility.yul\":3788:3908   */\n          iszero\n          tag_93\n          jumpi\n            /* \"#utility.yul\":3827:3906   */\n          tag_94\n          tag_24\n          jump\t// in\n        tag_94:\n            /* \"#utility.yul\":3788:3908   */\n        tag_93:\n            /* \"#utility.yul\":3947:3948   */\n          0x00\n            /* \"#utility.yul\":3972:4036   */\n          tag_95\n            /* \"#utility.yul\":4028:4035   */\n          dup10\n            /* \"#utility.yul\":4019:4025   */\n          dup3\n            /* \"#utility.yul\":4008:4017   */\n          dup11\n            /* \"#utility.yul\":4004:4026   */\n          add\n            /* \"#utility.yul\":3972:4036   */\n          tag_29\n          jump\t// in\n        tag_95:\n            /* \"#utility.yul\":3962:4036   */\n          swap7\n          pop\n            /* \"#utility.yul\":3918:4046   */\n          pop\n            /* \"#utility.yul\":4085:4087   */\n          0x20\n            /* \"#utility.yul\":4111:4175   */\n          tag_96\n            /* \"#utility.yul\":4167:4174   */\n          dup10\n            /* \"#utility.yul\":4158:4164   */\n          dup3\n            /* \"#utility.yul\":4147:4156   */\n          dup11\n            /* \"#utility.yul\":4143:4165   */\n          add\n            /* \"#utility.yul\":4111:4175   */\n          tag_29\n          jump\t// in\n        tag_96:\n            /* \"#utility.yul\":4101:4175   */\n          swap6\n          pop\n            /* \"#utility.yul\":4056:4185   */\n          pop\n            /* \"#utility.yul\":4245:4247   */\n          0x40\n            /* \"#utility.yul\":4234:4243   */\n          dup8\n            /* \"#utility.yul\":4230:4248   */\n          add\n            /* \"#utility.yul\":4224:4249   */\n          mload\n            /* \"#utility.yul\":4276:4294   */\n          0xffffffffffffffff\n            /* \"#utility.yul\":4268:4274   */\n          dup2\n            /* \"#utility.yul\":4265:4295   */\n          gt\n            /* \"#utility.yul\":4262:4379   */\n          iszero\n          tag_97\n          jumpi\n            /* \"#utility.yul\":4298:4377   */\n          tag_98\n          tag_25\n          jump\t// in\n        tag_98:\n            /* \"#utility.yul\":4262:4379   */\n        tag_97:\n            /* \"#utility.yul\":4403:4477   */\n          tag_99\n            /* \"#utility.yul\":4469:4476   */\n          dup10\n            /* \"#utility.yul\":4460:4466   */\n          dup3\n            /* \"#utility.yul\":4449:4458   */\n          dup11\n            /* \"#utility.yul\":4445:4467   */\n          add\n            /* \"#utility.yul\":4403:4477   */\n          tag_39\n          jump\t// in\n        tag_99:\n            /* \"#utility.yul\":4393:4477   */\n          swap5\n          pop\n            /* \"#utility.yul\":4195:4487   */\n          pop\n            /* \"#utility.yul\":4547:4549   */\n          0x60\n            /* \"#utility.yul\":4536:4545   */\n          dup8\n            /* \"#utility.yul\":4532:4550   */\n          add\n            /* \"#utility.yul\":4526:4551   */\n          mload\n            /* \"#utility.yul\":4578:4596   */\n          0xffffffffffffffff\n            /* \"#utility.yul\":4570:4576   */\n          dup2\n            /* \"#utility.yul\":4567:4597   */\n          gt\n            /* \"#utility.yul\":4564:4681   */\n          iszero\n          tag_100\n          jumpi\n            /* \"#utility.yul\":4600:4679   */\n          tag_101\n          tag_25\n          jump\t// in\n        tag_101:\n            /* \"#utility.yul\":4564:4681   */\n        tag_100:\n            /* \"#utility.yul\":4705:4779   */\n          tag_102\n            /* \"#utility.yul\":4771:4778   */\n          dup10\n            /* \"#utility.yul\":4762:4768   */\n          dup3\n            /* \"#utility.yul\":4751:4760   */\n          dup11\n            /* \"#utility.yul\":4747:4769   */\n          add\n            /* \"#utility.yul\":4705:4779   */\n          tag_39\n          jump\t// in\n        tag_102:\n            /* \"#utility.yul\":4695:4779   */\n          swap4\n          pop\n            /* \"#utility.yul\":4497:4789   */\n          pop\n            /* \"#utility.yul\":4828:4831   */\n          0x80\n            /* \"#utility.yul\":4855:4919   */\n          tag_103\n            /* \"#utility.yul\":4911:4918   */\n          dup10\n            /* \"#utility.yul\":4902:4908   */\n          dup3\n            /* \"#utility.yul\":4891:4900   */\n          dup11\n            /* \"#utility.yul\":4887:4909   */\n          add\n            /* \"#utility.yul\":4855:4919   */\n          tag_29\n          jump\t// in\n        tag_103:\n            /* \"#utility.yul\":4845:4919   */\n          swap3\n          pop\n            /* \"#utility.yul\":4799:4929   */\n          pop\n            /* \"#utility.yul\":4968:4971   */\n          0xa0\n            /* \"#utility.yul\":4995:5059   */\n          tag_104\n            /* \"#utility.yul\":5051:5058   */\n          dup10\n            /* \"#utility.yul\":5042:5048   */\n          dup3\n            /* \"#utility.yul\":5031:5040   */\n          dup11\n            /* \"#utility.yul\":5027:5049   */\n          add\n            /* \"#utility.yul\":4995:5059   */\n          tag_42\n          jump\t// in\n        tag_104:\n            /* \"#utility.yul\":4985:5059   */\n          swap2\n          pop\n            /* \"#utility.yul\":4939:5069   */\n          pop\n            /* \"#utility.yul\":3596:5076   */\n          swap3\n          swap6\n          pop\n          swap3\n          swap6\n          pop\n          swap3\n          swap6\n          jump\t// out\n            /* \"#utility.yul\":5082:5262   */\n        tag_10:\n            /* \"#utility.yul\":5130:5207   */\n          0x4e487b7100000000000000000000000000000000000000000000000000000000\n            /* \"#utility.yul\":5127:5128   */\n          0x00\n            /* \"#utility.yul\":5120:5208   */\n          mstore\n            /* \"#utility.yul\":5227:5231   */\n          0x21\n            /* \"#utility.yul\":5224:5225   */\n          0x04\n            /* \"#utility.yul\":5217:5232   */\n          mstore\n            /* \"#utility.yul\":5251:5255   */\n          0x24\n            /* \"#utility.yul\":5248:5249   */\n          0x00\n            /* \"#utility.yul\":5241:5256   */\n          revert\n            /* \"#utility.yul\":5268:5448   */\n        tag_43:\n            /* \"#utility.yul\":5316:5393   */\n          0x4e487b7100000000000000000000000000000000000000000000000000000000\n            /* \"#utility.yul\":5313:5314   */\n          0x00\n            /* \"#utility.yul\":5306:5394   */\n          mstore\n            /* \"#utility.yul\":5413:5417   */\n          0x22\n            /* \"#utility.yul\":5410:5411   */\n          0x04\n            /* \"#utility.yul\":5403:5418   */\n          mstore\n            /* \"#utility.yul\":5437:5441   */\n          0x24\n            /* \"#utility.yul\":5434:5435   */\n          0x00\n            /* \"#utility.yul\":5427:5442   */\n          revert\n            /* \"#utility.yul\":5454:5774   */\n        tag_13:\n            /* \"#utility.yul\":5498:5504   */\n          0x00\n            /* \"#utility.yul\":5535:5536   */\n          0x02\n            /* \"#utility.yul\":5529:5533   */\n          dup3\n            /* \"#utility.yul\":5525:5537   */\n          div\n            /* \"#utility.yul\":5515:5537   */\n          swap1\n          pop\n            /* \"#utility.yul\":5582:5583   */\n          0x01\n            /* \"#utility.yul\":5576:5580   */\n          dup3\n            /* \"#utility.yul\":5572:5584   */\n          and\n            /* \"#utility.yul\":5603:5621   */\n          dup1\n            /* \"#utility.yul\":5593:5674   */\n          tag_108\n          jumpi\n            /* \"#utility.yul\":5659:5663   */\n          0x7f\n            /* \"#utility.yul\":5651:5657   */\n          dup3\n            /* \"#utility.yul\":5647:5664   */\n          and\n            /* \"#utility.yul\":5637:5664   */\n          swap2\n          pop\n            /* \"#utility.yul\":5593:5674   */\n        tag_108:\n            /* \"#utility.yul\":5721:5723   */\n          0x20\n            /* \"#utility.yul\":5713:5719   */\n          dup3\n            /* \"#utility.yul\":5710:5724   */\n          lt\n            /* \"#utility.yul\":5690:5708   */\n          dup2\n            /* \"#utility.yul\":5687:5725   */\n          eq\n            /* \"#utility.yul\":5684:5768   */\n          iszero\n          tag_109\n          jumpi\n            /* \"#utility.yul\":5740:5758   */\n          tag_110\n          tag_43\n          jump\t// in\n        tag_110:\n            /* \"#utility.yul\":5684:5768   */\n        tag_109:\n            /* \"#utility.yul\":5505:5774   */\n          pop\n            /* \"#utility.yul\":5454:5774   */\n          swap2\n          swap1\n          pop\n          jump\t// out\n            /* \"Contracts\":9990:11383  contract AccountabilityContract {... */\n        tag_11:\n          dataSize(sub_0)\n          dup1\n          dataOffset(sub_0)\n          0x00\n          codecopy\n          0x00\n          return\n        stop\n\n        sub_0: assembly {\n                /* \"Contracts\":9990:11383  contract AccountabilityContract {... */\n              mstore(0x40, 0x80)\n              jumpi(tag_1, lt(calldatasize, 0x04))\n              shr(0xe0, calldataload(0x00))\n              dup1\n              0x3b1bebd1\n              gt\n              tag_11\n              jumpi\n              dup1\n              0x3b1bebd1\n              eq\n              tag_6\n              jumpi\n              dup1\n              0x4177fe51\n              eq\n              tag_7\n              jumpi\n              dup1\n              0x7284e416\n              eq\n              tag_8\n              jumpi\n              dup1\n              0xaa8c217c\n              eq\n              tag_9\n              jumpi\n              dup1\n              0xb4fedc11\n              eq\n              tag_10\n              jumpi\n              jump(tag_1)\n            tag_11:\n              dup1\n              0x02d05d3f\n              eq\n              tag_2\n              jumpi\n              dup1\n              0x06fdde03\n              eq\n              tag_3\n              jumpi\n              dup1\n              0x200d2ed2\n              eq\n              tag_4\n              jumpi\n              dup1\n              0x2d398fa6\n              eq\n              tag_5\n              jumpi\n            tag_1:\n              0x00\n              dup1\n              revert\n                /* \"Contracts\":10070:10092  address public creator */\n            tag_2:\n              callvalue\n              dup1\n              iszero\n              tag_12\n              jumpi\n              0x00\n              dup1\n              revert\n            tag_12:\n              pop\n              tag_13\n              tag_14\n              jump\t// in\n            tag_13:\n              mload(0x40)\n              tag_15\n              swap2\n              swap1\n              tag_16\n              jump\t// in\n            tag_15:\n              mload(0x40)\n              dup1\n              swap2\n              sub\n              swap1\n              return\n                /* \"Contracts\":10126:10144  string public name */\n            tag_3:\n              callvalue\n              dup1\n              iszero\n              tag_17\n              jumpi\n              0x00\n              dup1\n              revert\n            tag_17:\n              pop\n              tag_18\n              tag_19\n              jump\t// in\n            tag_18:\n              mload(0x40)\n              tag_20\n              swap2\n              swap1\n              tag_21\n              jump\t// in\n            tag_20:\n              mload(0x40)\n              dup1\n              swap2\n              sub\n              swap1\n              return\n                /* \"Contracts\":10242:10262  Status public status */\n            tag_4:\n              callvalue\n              dup1\n              iszero\n              tag_22\n              jumpi\n              0x00\n              dup1\n              revert\n            tag_22:\n              pop\n              tag_23\n              tag_24\n              jump\t// in\n            tag_23:\n              mload(0x40)\n              tag_25\n              swap2\n              swap1\n              tag_26\n              jump\t// in\n            tag_25:\n              mload(0x40)\n              dup1\n              swap2\n              sub\n              swap1\n              return\n                /* \"Contracts\":10770:11089  function failContract() public payable restricted returns (AccountabilityContract) {... */\n            tag_5:\n              tag_27\n              tag_28\n              jump\t// in\n            tag_27:\n              mload(0x40)\n              tag_29\n              swap2\n              swap1\n              tag_30\n              jump\t// in\n            tag_29:\n              mload(0x40)\n              dup1\n              swap2\n              sub\n              swap1\n              return\n                /* \"Contracts\":10098:10120  address public referee */\n            tag_6:\n              callvalue\n              dup1\n              iszero\n              tag_31\n              jumpi\n              0x00\n              dup1\n              revert\n            tag_31:\n              pop\n              tag_32\n              tag_33\n              jump\t// in\n            tag_32:\n              mload(0x40)\n              tag_34\n              swap2\n              swap1\n              tag_16\n              jump\t// in\n            tag_34:\n              mload(0x40)\n              dup1\n              swap2\n              sub\n              swap1\n              return\n                /* \"Contracts\":10181:10212  address public failureRecipient */\n            tag_7:\n              callvalue\n              dup1\n              iszero\n              tag_35\n              jumpi\n              0x00\n              dup1\n              revert\n            tag_35:\n              pop\n              tag_36\n              tag_37\n              jump\t// in\n            tag_36:\n              mload(0x40)\n              tag_38\n              swap2\n              swap1\n              tag_16\n              jump\t// in\n            tag_38:\n              mload(0x40)\n              dup1\n              swap2\n              sub\n              swap1\n              return\n                /* \"Contracts\":10150:10175  string public description */\n            tag_8:\n              callvalue\n              dup1\n              iszero\n              tag_39\n              jumpi\n              0x00\n              dup1\n              revert\n            tag_39:\n              pop\n              tag_40\n              tag_41\n              jump\t// in\n            tag_40:\n              mload(0x40)\n              tag_42\n              swap2\n              swap1\n              tag_21\n              jump\t// in\n            tag_42:\n              mload(0x40)\n              dup1\n              swap2\n              sub\n              swap1\n              return\n                /* \"Contracts\":10218:10236  uint public amount */\n            tag_9:\n              callvalue\n              dup1\n              iszero\n              tag_43\n              jumpi\n              0x00\n              dup1\n              revert\n            tag_43:\n              pop\n              tag_44\n              tag_45\n              jump\t// in\n            tag_44:\n              mload(0x40)\n              tag_46\n              swap2\n              swap1\n              tag_47\n              jump\t// in\n            tag_46:\n              mload(0x40)\n              dup1\n              swap2\n              sub\n              swap1\n              return\n                /* \"Contracts\":11096:11381  function completeContract() public payable restricted returns (AccountabilityContract) {... */\n            tag_10:\n              tag_48\n              tag_49\n              jump\t// in\n            tag_48:\n              mload(0x40)\n              tag_50\n              swap2\n              swap1\n              tag_30\n              jump\t// in\n            tag_50:\n              mload(0x40)\n              dup1\n              swap2\n              sub\n              swap1\n              return\n                /* \"Contracts\":10070:10092  address public creator */\n            tag_14:\n              0x00\n              dup1\n              sload\n              swap1\n              0x0100\n              exp\n              swap1\n              div\n              0xffffffffffffffffffffffffffffffffffffffff\n              and\n              dup2\n              jump\t// out\n                /* \"Contracts\":10126:10144  string public name */\n            tag_19:\n              0x02\n              dup1\n              sload\n              tag_51\n              swap1\n              tag_52\n              jump\t// in\n            tag_51:\n              dup1\n              0x1f\n              add\n              0x20\n              dup1\n              swap2\n              div\n              mul\n              0x20\n              add\n              mload(0x40)\n              swap1\n              dup2\n              add\n              0x40\n              mstore\n              dup1\n              swap3\n              swap2\n              swap1\n              dup2\n              dup2\n              mstore\n              0x20\n              add\n              dup3\n              dup1\n              sload\n              tag_53\n              swap1\n              tag_52\n              jump\t// in\n            tag_53:\n              dup1\n              iszero\n              tag_54\n              jumpi\n              dup1\n              0x1f\n              lt\n              tag_55\n              jumpi\n              0x0100\n              dup1\n              dup4\n              sload\n              div\n              mul\n              dup4\n              mstore\n              swap2\n              0x20\n              add\n              swap2\n              jump(tag_54)\n            tag_55:\n              dup3\n              add\n              swap2\n              swap1\n              0x00\n              mstore\n              keccak256(0x00, 0x20)\n              swap1\n            tag_56:\n              dup2\n              sload\n              dup2\n              mstore\n              swap1\n              0x01\n              add\n              swap1\n              0x20\n              add\n              dup1\n              dup4\n              gt\n              tag_56\n              jumpi\n              dup3\n              swap1\n              sub\n              0x1f\n              and\n              dup3\n              add\n              swap2\n            tag_54:\n              pop\n              pop\n              pop\n              pop\n              pop\n              dup2\n              jump\t// out\n                /* \"Contracts\":10242:10262  Status public status */\n            tag_24:\n              0x06\n              0x00\n              swap1\n              sload\n              swap1\n              0x0100\n              exp\n              swap1\n              div\n              0xff\n              and\n              dup2\n              jump\t// out\n                /* \"Contracts\":10770:11089  function failContract() public payable restricted returns (AccountabilityContract) {... */\n            tag_28:\n                /* \"Contracts\":10829:10851  AccountabilityContract */\n              0x00\n                /* \"Contracts\":10694:10705  Status.OPEN */\n              dup1\n                /* \"Contracts\":10684:10705  status == Status.OPEN */\n              0x02\n              dup2\n              gt\n              iszero\n              tag_58\n              jumpi\n              tag_59\n              tag_60\n              jump\t// in\n            tag_59:\n            tag_58:\n                /* \"Contracts\":10684:10690  status */\n              0x06\n              0x00\n              swap1\n              sload\n              swap1\n              0x0100\n              exp\n              swap1\n              div\n              0xff\n              and\n                /* \"Contracts\":10684:10705  status == Status.OPEN */\n              0x02\n              dup2\n              gt\n              iszero\n              tag_61\n              jumpi\n              tag_62\n              tag_60\n              jump\t// in\n            tag_62:\n            tag_61:\n              eq\n                /* \"Contracts\":10676:10746  require(status == Status.OPEN, \"Contract status is not equal to open\") */\n              tag_63\n              jumpi\n              mload(0x40)\n              0x08c379a000000000000000000000000000000000000000000000000000000000\n              dup2\n              mstore\n              0x04\n              add\n              tag_64\n              swap1\n              tag_65\n              jump\t// in\n            tag_64:\n              mload(0x40)\n              dup1\n              swap2\n              sub\n              swap1\n              revert\n            tag_63:\n                /* \"Contracts\":10884:10891  referee */\n              0x01\n              0x00\n              swap1\n              sload\n              swap1\n              0x0100\n              exp\n              swap1\n              div\n              0xffffffffffffffffffffffffffffffffffffffff\n              and\n                /* \"Contracts\":10871:10891  tx.origin == referee */\n              0xffffffffffffffffffffffffffffffffffffffff\n              and\n                /* \"Contracts\":10871:10880  tx.origin */\n              origin\n                /* \"Contracts\":10871:10891  tx.origin == referee */\n              0xffffffffffffffffffffffffffffffffffffffff\n              and\n              eq\n                /* \"Contracts\":10871:10915  tx.origin == referee || tx.origin == creator */\n              dup1\n              tag_67\n              jumpi\n              pop\n                /* \"Contracts\":10908:10915  creator */\n              0x00\n              dup1\n              sload\n              swap1\n              0x0100\n              exp\n              swap1\n              div\n              0xffffffffffffffffffffffffffffffffffffffff\n              and\n                /* \"Contracts\":10895:10915  tx.origin == creator */\n              0xffffffffffffffffffffffffffffffffffffffff\n              and\n                /* \"Contracts\":10895:10904  tx.origin */\n              origin\n                /* \"Contracts\":10895:10915  tx.origin == creator */\n              0xffffffffffffffffffffffffffffffffffffffff\n              and\n              eq\n                /* \"Contracts\":10871:10915  tx.origin == referee || tx.origin == creator */\n            tag_67:\n                /* \"Contracts\":10863:10961  require(tx.origin == referee || tx.origin == creator, \"Only referee or creator can fail contract\") */\n              tag_68\n              jumpi\n              mload(0x40)\n              0x08c379a000000000000000000000000000000000000000000000000000000000\n              dup2\n              mstore\n              0x04\n              add\n              tag_69\n              swap1\n              tag_70\n              jump\t// in\n            tag_69:\n              mload(0x40)\n              dup1\n              swap2\n              sub\n              swap1\n              revert\n            tag_68:\n                /* \"Contracts\":10979:10995  failureRecipient */\n              0x04\n              0x00\n              swap1\n              sload\n              swap1\n              0x0100\n              exp\n              swap1\n              div\n              0xffffffffffffffffffffffffffffffffffffffff\n              and\n                /* \"Contracts\":10971:11005  payable(failureRecipient).transfer */\n              0xffffffffffffffffffffffffffffffffffffffff\n              and\n                /* \"Contracts\":10971:11028  payable(failureRecipient).transfer(address(this).balance) */\n              0x08fc\n                /* \"Contracts\":11006:11027  address(this).balance */\n              selfbalance\n                /* \"Contracts\":10971:11028  payable(failureRecipient).transfer(address(this).balance) */\n              swap1\n              dup2\n              iszero\n              mul\n              swap1\n              mload(0x40)\n              0x00\n              mload(0x40)\n              dup1\n              dup4\n              sub\n              dup2\n              dup6\n              dup9\n              dup9\n              call\n              swap4\n              pop\n              pop\n              pop\n              pop\n              iszero\n              dup1\n              iszero\n              tag_72\n              jumpi\n              returndatasize\n              0x00\n              dup1\n              returndatacopy\n              revert(0x00, returndatasize)\n            tag_72:\n              pop\n                /* \"Contracts\":11047:11061  Status.FAILURE */\n              0x02\n                /* \"Contracts\":11038:11044  status */\n              0x06\n              0x00\n                /* \"Contracts\":11038:11061  status = Status.FAILURE */\n              0x0100\n              exp\n              dup2\n              sload\n              dup2\n              0xff\n              mul\n              not\n              and\n              swap1\n              dup4\n              0x02\n              dup2\n              gt\n              iszero\n              tag_73\n              jumpi\n              tag_74\n              tag_60\n              jump\t// in\n            tag_74:\n            tag_73:\n              mul\n              or\n              swap1\n              sstore\n              pop\n                /* \"Contracts\":11078:11082  this */\n              address\n                /* \"Contracts\":11071:11082  return this */\n              swap1\n              pop\n                /* \"Contracts\":10770:11089  function failContract() public payable restricted returns (AccountabilityContract) {... */\n              swap1\n              jump\t// out\n                /* \"Contracts\":10098:10120  address public referee */\n            tag_33:\n              0x01\n              0x00\n              swap1\n              sload\n              swap1\n              0x0100\n              exp\n              swap1\n              div\n              0xffffffffffffffffffffffffffffffffffffffff\n              and\n              dup2\n              jump\t// out\n                /* \"Contracts\":10181:10212  address public failureRecipient */\n            tag_37:\n              0x04\n              0x00\n              swap1\n              sload\n              swap1\n              0x0100\n              exp\n              swap1\n              div\n              0xffffffffffffffffffffffffffffffffffffffff\n              and\n              dup2\n              jump\t// out\n                /* \"Contracts\":10150:10175  string public description */\n            tag_41:\n              0x03\n              dup1\n              sload\n              tag_75\n              swap1\n              tag_52\n              jump\t// in\n            tag_75:\n              dup1\n              0x1f\n              add\n              0x20\n              dup1\n              swap2\n              div\n              mul\n              0x20\n              add\n              mload(0x40)\n              swap1\n              dup2\n              add\n              0x40\n              mstore\n              dup1\n              swap3\n              swap2\n              swap1\n              dup2\n              dup2\n              mstore\n              0x20\n              add\n              dup3\n              dup1\n              sload\n              tag_76\n              swap1\n              tag_52\n              jump\t// in\n            tag_76:\n              dup1\n              iszero\n              tag_77\n              jumpi\n              dup1\n              0x1f\n              lt\n              tag_78\n              jumpi\n              0x0100\n              dup1\n              dup4\n              sload\n              div\n              mul\n              dup4\n              mstore\n              swap2\n              0x20\n              add\n              swap2\n              jump(tag_77)\n            tag_78:\n              dup3\n              add\n              swap2\n              swap1\n              0x00\n              mstore\n              keccak256(0x00, 0x20)\n              swap1\n            tag_79:\n              dup2\n              sload\n              dup2\n              mstore\n              swap1\n              0x01\n              add\n              swap1\n              0x20\n              add\n              dup1\n              dup4\n              gt\n              tag_79\n              jumpi\n              dup3\n              swap1\n              sub\n              0x1f\n              and\n              dup3\n              add\n              swap2\n            tag_77:\n              pop\n              pop\n              pop\n              pop\n              pop\n              dup2\n              jump\t// out\n                /* \"Contracts\":10218:10236  uint public amount */\n            tag_45:\n              sload(0x05)\n              dup2\n              jump\t// out\n                /* \"Contracts\":11096:11381  function completeContract() public payable restricted returns (AccountabilityContract) {... */\n            tag_49:\n                /* \"Contracts\":11159:11181  AccountabilityContract */\n              0x00\n                /* \"Contracts\":10694:10705  Status.OPEN */\n              dup1\n                /* \"Contracts\":10684:10705  status == Status.OPEN */\n              0x02\n              dup2\n              gt\n              iszero\n              tag_81\n              jumpi\n              tag_82\n              tag_60\n              jump\t// in\n            tag_82:\n            tag_81:\n                /* \"Contracts\":10684:10690  status */\n              0x06\n              0x00\n              swap1\n              sload\n              swap1\n              0x0100\n              exp\n              swap1\n              div\n              0xff\n              and\n                /* \"Contracts\":10684:10705  status == Status.OPEN */\n              0x02\n              dup2\n              gt\n              iszero\n              tag_83\n              jumpi\n              tag_84\n              tag_60\n              jump\t// in\n            tag_84:\n            tag_83:\n              eq\n                /* \"Contracts\":10676:10746  require(status == Status.OPEN, \"Contract status is not equal to open\") */\n              tag_85\n              jumpi\n              mload(0x40)\n              0x08c379a000000000000000000000000000000000000000000000000000000000\n              dup2\n              mstore\n              0x04\n              add\n              tag_86\n              swap1\n              tag_65\n              jump\t// in\n            tag_86:\n              mload(0x40)\n              dup1\n              swap2\n              sub\n              swap1\n              revert\n            tag_85:\n                /* \"Contracts\":11214:11221  referee */\n              0x01\n              0x00\n              swap1\n              sload\n              swap1\n              0x0100\n              exp\n              swap1\n              div\n              0xffffffffffffffffffffffffffffffffffffffff\n              and\n                /* \"Contracts\":11201:11221  tx.origin == referee */\n              0xffffffffffffffffffffffffffffffffffffffff\n              and\n                /* \"Contracts\":11201:11210  tx.origin */\n              origin\n                /* \"Contracts\":11201:11221  tx.origin == referee */\n              0xffffffffffffffffffffffffffffffffffffffff\n              and\n              eq\n                /* \"Contracts\":11193:11262  require(tx.origin == referee, \"Only referee can complete a contract\") */\n              tag_88\n              jumpi\n              mload(0x40)\n              0x08c379a000000000000000000000000000000000000000000000000000000000\n              dup2\n              mstore\n              0x04\n              add\n              tag_89\n              swap1\n              tag_90\n              jump\t// in\n            tag_89:\n              mload(0x40)\n              dup1\n              swap2\n              sub\n              swap1\n              revert\n            tag_88:\n                /* \"Contracts\":11280:11287  creator */\n              0x00\n              dup1\n              sload\n              swap1\n              0x0100\n              exp\n              swap1\n              div\n              0xffffffffffffffffffffffffffffffffffffffff\n              and\n                /* \"Contracts\":11272:11297  payable(creator).transfer */\n              0xffffffffffffffffffffffffffffffffffffffff\n              and\n                /* \"Contracts\":11272:11320  payable(creator).transfer(address(this).balance) */\n              0x08fc\n                /* \"Contracts\":11298:11319  address(this).balance */\n              selfbalance\n                /* \"Contracts\":11272:11320  payable(creator).transfer(address(this).balance) */\n              swap1\n              dup2\n              iszero\n              mul\n              swap1\n              mload(0x40)\n              0x00\n              mload(0x40)\n              dup1\n              dup4\n              sub\n              dup2\n              dup6\n              dup9\n              dup9\n              call\n              swap4\n              pop\n              pop\n              pop\n              pop\n              iszero\n              dup1\n              iszero\n              tag_92\n              jumpi\n              returndatasize\n              0x00\n              dup1\n              returndatacopy\n              revert(0x00, returndatasize)\n            tag_92:\n              pop\n                /* \"Contracts\":11339:11353  Status.SUCCESS */\n              0x01\n                /* \"Contracts\":11330:11336  status */\n              0x06\n              0x00\n                /* \"Contracts\":11330:11353  status = Status.SUCCESS */\n              0x0100\n              exp\n              dup2\n              sload\n              dup2\n              0xff\n              mul\n              not\n              and\n              swap1\n              dup4\n              0x02\n              dup2\n              gt\n              iszero\n              tag_93\n              jumpi\n              tag_94\n              tag_60\n              jump\t// in\n            tag_94:\n            tag_93:\n              mul\n              or\n              swap1\n              sstore\n              pop\n                /* \"Contracts\":11370:11374  this */\n              address\n                /* \"Contracts\":11363:11374  return this */\n              swap1\n              pop\n                /* \"Contracts\":11096:11381  function completeContract() public payable restricted returns (AccountabilityContract) {... */\n              swap1\n              jump\t// out\n                /* \"#utility.yul\":7:133   */\n            tag_95:\n                /* \"#utility.yul\":44:51   */\n              0x00\n                /* \"#utility.yul\":84:126   */\n              0xffffffffffffffffffffffffffffffffffffffff\n                /* \"#utility.yul\":77:82   */\n              dup3\n                /* \"#utility.yul\":73:127   */\n              and\n                /* \"#utility.yul\":62:127   */\n              swap1\n              pop\n                /* \"#utility.yul\":7:133   */\n              swap2\n              swap1\n              pop\n              jump\t// out\n                /* \"#utility.yul\":139:235   */\n            tag_96:\n                /* \"#utility.yul\":176:183   */\n              0x00\n                /* \"#utility.yul\":205:229   */\n              tag_124\n                /* \"#utility.yul\":223:228   */\n              dup3\n                /* \"#utility.yul\":205:229   */\n              tag_95\n              jump\t// in\n            tag_124:\n                /* \"#utility.yul\":194:229   */\n              swap1\n              pop\n                /* \"#utility.yul\":139:235   */\n              swap2\n              swap1\n              pop\n              jump\t// out\n                /* \"#utility.yul\":241:359   */\n            tag_97:\n                /* \"#utility.yul\":328:352   */\n              tag_126\n                /* \"#utility.yul\":346:351   */\n              dup2\n                /* \"#utility.yul\":328:352   */\n              tag_96\n              jump\t// in\n            tag_126:\n                /* \"#utility.yul\":323:326   */\n              dup3\n                /* \"#utility.yul\":316:353   */\n              mstore\n                /* \"#utility.yul\":241:359   */\n              pop\n              pop\n              jump\t// out\n                /* \"#utility.yul\":365:587   */\n            tag_16:\n                /* \"#utility.yul\":458:462   */\n              0x00\n                /* \"#utility.yul\":496:498   */\n              0x20\n                /* \"#utility.yul\":485:494   */\n              dup3\n                /* \"#utility.yul\":481:499   */\n              add\n                /* \"#utility.yul\":473:499   */\n              swap1\n              pop\n                /* \"#utility.yul\":509:580   */\n              tag_128\n                /* \"#utility.yul\":577:578   */\n              0x00\n                /* \"#utility.yul\":566:575   */\n              dup4\n                /* \"#utility.yul\":562:579   */\n              add\n                /* \"#utility.yul\":553:559   */\n              dup5\n                /* \"#utility.yul\":509:580   */\n              tag_97\n              jump\t// in\n            tag_128:\n                /* \"#utility.yul\":365:587   */\n              swap3\n              swap2\n              pop\n              pop\n              jump\t// out\n                /* \"#utility.yul\":593:692   */\n            tag_98:\n                /* \"#utility.yul\":645:651   */\n              0x00\n                /* \"#utility.yul\":679:684   */\n              dup2\n                /* \"#utility.yul\":673:685   */\n              mload\n                /* \"#utility.yul\":663:685   */\n              swap1\n              pop\n                /* \"#utility.yul\":593:692   */\n              swap2\n              swap1\n              pop\n              jump\t// out\n                /* \"#utility.yul\":698:867   */\n            tag_99:\n                /* \"#utility.yul\":782:793   */\n              0x00\n                /* \"#utility.yul\":816:822   */\n              dup3\n                /* \"#utility.yul\":811:814   */\n              dup3\n                /* \"#utility.yul\":804:823   */\n              mstore\n                /* \"#utility.yul\":856:860   */\n              0x20\n                /* \"#utility.yul\":851:854   */\n              dup3\n                /* \"#utility.yul\":847:861   */\n              add\n                /* \"#utility.yul\":832:861   */\n              swap1\n              pop\n                /* \"#utility.yul\":698:867   */\n              swap3\n              swap2\n              pop\n              pop\n              jump\t// out\n                /* \"#utility.yul\":873:1180   */\n            tag_100:\n                /* \"#utility.yul\":941:942   */\n              0x00\n                /* \"#utility.yul\":951:1064   */\n            tag_132:\n                /* \"#utility.yul\":965:971   */\n              dup4\n                /* \"#utility.yul\":962:963   */\n              dup2\n                /* \"#utility.yul\":959:972   */\n              lt\n                /* \"#utility.yul\":951:1064   */\n              iszero\n              tag_134\n              jumpi\n                /* \"#utility.yul\":1050:1051   */\n              dup1\n                /* \"#utility.yul\":1045:1048   */\n              dup3\n                /* \"#utility.yul\":1041:1052   */\n              add\n                /* \"#utility.yul\":1035:1053   */\n              mload\n                /* \"#utility.yul\":1031:1032   */\n              dup2\n                /* \"#utility.yul\":1026:1029   */\n              dup5\n                /* \"#utility.yul\":1022:1033   */\n              add\n                /* \"#utility.yul\":1015:1054   */\n              mstore\n                /* \"#utility.yul\":987:989   */\n              0x20\n                /* \"#utility.yul\":984:985   */\n              dup2\n                /* \"#utility.yul\":980:990   */\n              add\n                /* \"#utility.yul\":975:990   */\n              swap1\n              pop\n                /* \"#utility.yul\":951:1064   */\n              jump(tag_132)\n            tag_134:\n                /* \"#utility.yul\":1082:1088   */\n              dup4\n                /* \"#utility.yul\":1079:1080   */\n              dup2\n                /* \"#utility.yul\":1076:1089   */\n              gt\n                /* \"#utility.yul\":1073:1174   */\n              iszero\n              tag_135\n              jumpi\n                /* \"#utility.yul\":1162:1163   */\n              0x00\n                /* \"#utility.yul\":1153:1159   */\n              dup5\n                /* \"#utility.yul\":1148:1151   */\n              dup5\n                /* \"#utility.yul\":1144:1160   */\n              add\n                /* \"#utility.yul\":1137:1164   */\n              mstore\n                /* \"#utility.yul\":1073:1174   */\n            tag_135:\n                /* \"#utility.yul\":922:1180   */\n              pop\n                /* \"#utility.yul\":873:1180   */\n              pop\n              pop\n              pop\n              jump\t// out\n                /* \"#utility.yul\":1186:1288   */\n            tag_101:\n                /* \"#utility.yul\":1227:1233   */\n              0x00\n                /* \"#utility.yul\":1278:1280   */\n              0x1f\n                /* \"#utility.yul\":1274:1281   */\n              not\n                /* \"#utility.yul\":1269:1271   */\n              0x1f\n                /* \"#utility.yul\":1262:1267   */\n              dup4\n                /* \"#utility.yul\":1258:1272   */\n              add\n                /* \"#utility.yul\":1254:1282   */\n              and\n                /* \"#utility.yul\":1244:1282   */\n              swap1\n              pop\n                /* \"#utility.yul\":1186:1288   */\n              swap2\n              swap1\n              pop\n              jump\t// out\n                /* \"#utility.yul\":1294:1658   */\n            tag_102:\n                /* \"#utility.yul\":1382:1385   */\n              0x00\n                /* \"#utility.yul\":1410:1449   */\n              tag_138\n                /* \"#utility.yul\":1443:1448   */\n              dup3\n                /* \"#utility.yul\":1410:1449   */\n              tag_98\n              jump\t// in\n            tag_138:\n                /* \"#utility.yul\":1465:1536   */\n              tag_139\n                /* \"#utility.yul\":1529:1535   */\n              dup2\n                /* \"#utility.yul\":1524:1527   */\n              dup6\n                /* \"#utility.yul\":1465:1536   */\n              tag_99\n              jump\t// in\n            tag_139:\n                /* \"#utility.yul\":1458:1536   */\n              swap4\n              pop\n                /* \"#utility.yul\":1545:1597   */\n              tag_140\n                /* \"#utility.yul\":1590:1596   */\n              dup2\n                /* \"#utility.yul\":1585:1588   */\n              dup6\n                /* \"#utility.yul\":1578:1582   */\n              0x20\n                /* \"#utility.yul\":1571:1576   */\n              dup7\n                /* \"#utility.yul\":1567:1583   */\n              add\n                /* \"#utility.yul\":1545:1597   */\n              tag_100\n              jump\t// in\n            tag_140:\n                /* \"#utility.yul\":1622:1651   */\n              tag_141\n                /* \"#utility.yul\":1644:1650   */\n              dup2\n                /* \"#utility.yul\":1622:1651   */\n              tag_101\n              jump\t// in\n            tag_141:\n                /* \"#utility.yul\":1617:1620   */\n              dup5\n                /* \"#utility.yul\":1613:1652   */\n              add\n                /* \"#utility.yul\":1606:1652   */\n              swap2\n              pop\n                /* \"#utility.yul\":1386:1658   */\n              pop\n                /* \"#utility.yul\":1294:1658   */\n              swap3\n              swap2\n              pop\n              pop\n              jump\t// out\n                /* \"#utility.yul\":1664:1977   */\n            tag_21:\n                /* \"#utility.yul\":1777:1781   */\n              0x00\n                /* \"#utility.yul\":1815:1817   */\n              0x20\n                /* \"#utility.yul\":1804:1813   */\n              dup3\n                /* \"#utility.yul\":1800:1818   */\n              add\n                /* \"#utility.yul\":1792:1818   */\n              swap1\n              pop\n                /* \"#utility.yul\":1864:1873   */\n              dup2\n                /* \"#utility.yul\":1858:1862   */\n              dup2\n                /* \"#utility.yul\":1854:1874   */\n              sub\n                /* \"#utility.yul\":1850:1851   */\n              0x00\n                /* \"#utility.yul\":1839:1848   */\n              dup4\n                /* \"#utility.yul\":1835:1852   */\n              add\n                /* \"#utility.yul\":1828:1875   */\n              mstore\n                /* \"#utility.yul\":1892:1970   */\n              tag_143\n                /* \"#utility.yul\":1965:1969   */\n              dup2\n                /* \"#utility.yul\":1956:1962   */\n              dup5\n                /* \"#utility.yul\":1892:1970   */\n              tag_102\n              jump\t// in\n            tag_143:\n                /* \"#utility.yul\":1884:1970   */\n              swap1\n              pop\n                /* \"#utility.yul\":1664:1977   */\n              swap3\n              swap2\n              pop\n              pop\n              jump\t// out\n                /* \"#utility.yul\":1983:2163   */\n            tag_60:\n                /* \"#utility.yul\":2031:2108   */\n              0x4e487b7100000000000000000000000000000000000000000000000000000000\n                /* \"#utility.yul\":2028:2029   */\n              0x00\n                /* \"#utility.yul\":2021:2109   */\n              mstore\n                /* \"#utility.yul\":2128:2132   */\n              0x21\n                /* \"#utility.yul\":2125:2126   */\n              0x04\n                /* \"#utility.yul\":2118:2133   */\n              mstore\n                /* \"#utility.yul\":2152:2156   */\n              0x24\n                /* \"#utility.yul\":2149:2150   */\n              0x00\n                /* \"#utility.yul\":2142:2157   */\n              revert\n                /* \"#utility.yul\":2169:2284   */\n            tag_103:\n                /* \"#utility.yul\":2252:2253   */\n              0x03\n                /* \"#utility.yul\":2245:2250   */\n              dup2\n                /* \"#utility.yul\":2242:2254   */\n              lt\n                /* \"#utility.yul\":2232:2278   */\n              tag_146\n              jumpi\n                /* \"#utility.yul\":2258:2276   */\n              tag_147\n              tag_60\n              jump\t// in\n            tag_147:\n                /* \"#utility.yul\":2232:2278   */\n            tag_146:\n                /* \"#utility.yul\":2169:2284   */\n              pop\n              jump\t// out\n                /* \"#utility.yul\":2290:2421   */\n            tag_104:\n                /* \"#utility.yul\":2337:2344   */\n              0x00\n                /* \"#utility.yul\":2366:2371   */\n              dup2\n                /* \"#utility.yul\":2355:2371   */\n              swap1\n              pop\n                /* \"#utility.yul\":2372:2415   */\n              tag_149\n                /* \"#utility.yul\":2409:2414   */\n              dup3\n                /* \"#utility.yul\":2372:2415   */\n              tag_103\n              jump\t// in\n            tag_149:\n                /* \"#utility.yul\":2290:2421   */\n              swap2\n              swap1\n              pop\n              jump\t// out\n                /* \"#utility.yul\":2427:2558   */\n            tag_105:\n                /* \"#utility.yul\":2485:2494   */\n              0x00\n                /* \"#utility.yul\":2518:2552   */\n              tag_151\n                /* \"#utility.yul\":2546:2551   */\n              dup3\n                /* \"#utility.yul\":2518:2552   */\n              tag_104\n              jump\t// in\n            tag_151:\n                /* \"#utility.yul\":2505:2552   */\n              swap1\n              pop\n                /* \"#utility.yul\":2427:2558   */\n              swap2\n              swap1\n              pop\n              jump\t// out\n                /* \"#utility.yul\":2564:2711   */\n            tag_106:\n                /* \"#utility.yul\":2659:2704   */\n              tag_153\n                /* \"#utility.yul\":2698:2703   */\n              dup2\n                /* \"#utility.yul\":2659:2704   */\n              tag_105\n              jump\t// in\n            tag_153:\n                /* \"#utility.yul\":2654:2657   */\n              dup3\n                /* \"#utility.yul\":2647:2705   */\n              mstore\n                /* \"#utility.yul\":2564:2711   */\n              pop\n              pop\n              jump\t// out\n                /* \"#utility.yul\":2717:2955   */\n            tag_26:\n                /* \"#utility.yul\":2818:2822   */\n              0x00\n                /* \"#utility.yul\":2856:2858   */\n              0x20\n                /* \"#utility.yul\":2845:2854   */\n              dup3\n                /* \"#utility.yul\":2841:2859   */\n              add\n                /* \"#utility.yul\":2833:2859   */\n              swap1\n              pop\n                /* \"#utility.yul\":2869:2948   */\n              tag_155\n                /* \"#utility.yul\":2945:2946   */\n              0x00\n                /* \"#utility.yul\":2934:2943   */\n              dup4\n                /* \"#utility.yul\":2930:2947   */\n              add\n                /* \"#utility.yul\":2921:2927   */\n              dup5\n                /* \"#utility.yul\":2869:2948   */\n              tag_106\n              jump\t// in\n            tag_155:\n                /* \"#utility.yul\":2717:2955   */\n              swap3\n              swap2\n              pop\n              pop\n              jump\t// out\n                /* \"#utility.yul\":2961:3021   */\n            tag_107:\n                /* \"#utility.yul\":2989:2992   */\n              0x00\n                /* \"#utility.yul\":3010:3015   */\n              dup2\n                /* \"#utility.yul\":3003:3015   */\n              swap1\n              pop\n                /* \"#utility.yul\":2961:3021   */\n              swap2\n              swap1\n              pop\n              jump\t// out\n                /* \"#utility.yul\":3027:3169   */\n            tag_108:\n                /* \"#utility.yul\":3077:3086   */\n              0x00\n                /* \"#utility.yul\":3110:3163   */\n              tag_158\n                /* \"#utility.yul\":3128:3162   */\n              tag_159\n                /* \"#utility.yul\":3137:3161   */\n              tag_160\n                /* \"#utility.yul\":3155:3160   */\n              dup5\n                /* \"#utility.yul\":3137:3161   */\n              tag_95\n              jump\t// in\n            tag_160:\n                /* \"#utility.yul\":3128:3162   */\n              tag_107\n              jump\t// in\n            tag_159:\n                /* \"#utility.yul\":3110:3163   */\n              tag_95\n              jump\t// in\n            tag_158:\n                /* \"#utility.yul\":3097:3163   */\n              swap1\n              pop\n                /* \"#utility.yul\":3027:3169   */\n              swap2\n              swap1\n              pop\n              jump\t// out\n                /* \"#utility.yul\":3175:3301   */\n            tag_109:\n                /* \"#utility.yul\":3225:3234   */\n              0x00\n                /* \"#utility.yul\":3258:3295   */\n              tag_162\n                /* \"#utility.yul\":3289:3294   */\n              dup3\n                /* \"#utility.yul\":3258:3295   */\n              tag_108\n              jump\t// in\n            tag_162:\n                /* \"#utility.yul\":3245:3295   */\n              swap1\n              pop\n                /* \"#utility.yul\":3175:3301   */\n              swap2\n              swap1\n              pop\n              jump\t// out\n                /* \"#utility.yul\":3307:3464   */\n            tag_110:\n                /* \"#utility.yul\":3388:3397   */\n              0x00\n                /* \"#utility.yul\":3421:3458   */\n              tag_164\n                /* \"#utility.yul\":3452:3457   */\n              dup3\n                /* \"#utility.yul\":3421:3458   */\n              tag_109\n              jump\t// in\n            tag_164:\n                /* \"#utility.yul\":3408:3458   */\n              swap1\n              pop\n                /* \"#utility.yul\":3307:3464   */\n              swap2\n              swap1\n              pop\n              jump\t// out\n                /* \"#utility.yul\":3470:3663   */\n            tag_111:\n                /* \"#utility.yul\":3588:3656   */\n              tag_166\n                /* \"#utility.yul\":3650:3655   */\n              dup2\n                /* \"#utility.yul\":3588:3656   */\n              tag_110\n              jump\t// in\n            tag_166:\n                /* \"#utility.yul\":3583:3586   */\n              dup3\n                /* \"#utility.yul\":3576:3657   */\n              mstore\n                /* \"#utility.yul\":3470:3663   */\n              pop\n              pop\n              jump\t// out\n                /* \"#utility.yul\":3669:3953   */\n            tag_30:\n                /* \"#utility.yul\":3793:3797   */\n              0x00\n                /* \"#utility.yul\":3831:3833   */\n              0x20\n                /* \"#utility.yul\":3820:3829   */\n              dup3\n                /* \"#utility.yul\":3816:3834   */\n              add\n                /* \"#utility.yul\":3808:3834   */\n              swap1\n              pop\n                /* \"#utility.yul\":3844:3946   */\n              tag_168\n                /* \"#utility.yul\":3943:3944   */\n              0x00\n                /* \"#utility.yul\":3932:3941   */\n              dup4\n                /* \"#utility.yul\":3928:3945   */\n              add\n                /* \"#utility.yul\":3919:3925   */\n              dup5\n                /* \"#utility.yul\":3844:3946   */\n              tag_111\n              jump\t// in\n            tag_168:\n                /* \"#utility.yul\":3669:3953   */\n              swap3\n              swap2\n              pop\n              pop\n              jump\t// out\n                /* \"#utility.yul\":3959:4036   */\n            tag_112:\n                /* \"#utility.yul\":3996:4003   */\n              0x00\n                /* \"#utility.yul\":4025:4030   */\n              dup2\n                /* \"#utility.yul\":4014:4030   */\n              swap1\n              pop\n                /* \"#utility.yul\":3959:4036   */\n              swap2\n              swap1\n              pop\n              jump\t// out\n                /* \"#utility.yul\":4042:4160   */\n            tag_113:\n                /* \"#utility.yul\":4129:4153   */\n              tag_171\n                /* \"#utility.yul\":4147:4152   */\n              dup2\n                /* \"#utility.yul\":4129:4153   */\n              tag_112\n              jump\t// in\n            tag_171:\n                /* \"#utility.yul\":4124:4127   */\n              dup3\n                /* \"#utility.yul\":4117:4154   */\n              mstore\n                /* \"#utility.yul\":4042:4160   */\n              pop\n              pop\n              jump\t// out\n                /* \"#utility.yul\":4166:4388   */\n            tag_47:\n                /* \"#utility.yul\":4259:4263   */\n              0x00\n                /* \"#utility.yul\":4297:4299   */\n              0x20\n                /* \"#utility.yul\":4286:4295   */\n              dup3\n                /* \"#utility.yul\":4282:4300   */\n              add\n                /* \"#utility.yul\":4274:4300   */\n              swap1\n              pop\n                /* \"#utility.yul\":4310:4381   */\n              tag_173\n                /* \"#utility.yul\":4378:4379   */\n              0x00\n                /* \"#utility.yul\":4367:4376   */\n              dup4\n                /* \"#utility.yul\":4363:4380   */\n              add\n                /* \"#utility.yul\":4354:4360   */\n              dup5\n                /* \"#utility.yul\":4310:4381   */\n              tag_113\n              jump\t// in\n            tag_173:\n                /* \"#utility.yul\":4166:4388   */\n              swap3\n              swap2\n              pop\n              pop\n              jump\t// out\n                /* \"#utility.yul\":4394:4574   */\n            tag_114:\n                /* \"#utility.yul\":4442:4519   */\n              0x4e487b7100000000000000000000000000000000000000000000000000000000\n                /* \"#utility.yul\":4439:4440   */\n              0x00\n                /* \"#utility.yul\":4432:4520   */\n              mstore\n                /* \"#utility.yul\":4539:4543   */\n              0x22\n                /* \"#utility.yul\":4536:4537   */\n              0x04\n                /* \"#utility.yul\":4529:4544   */\n              mstore\n                /* \"#utility.yul\":4563:4567   */\n              0x24\n                /* \"#utility.yul\":4560:4561   */\n              0x00\n                /* \"#utility.yul\":4553:4568   */\n              revert\n                /* \"#utility.yul\":4580:4900   */\n            tag_52:\n                /* \"#utility.yul\":4624:4630   */\n              0x00\n                /* \"#utility.yul\":4661:4662   */\n              0x02\n                /* \"#utility.yul\":4655:4659   */\n              dup3\n                /* \"#utility.yul\":4651:4663   */\n              div\n                /* \"#utility.yul\":4641:4663   */\n              swap1\n              pop\n                /* \"#utility.yul\":4708:4709   */\n              0x01\n                /* \"#utility.yul\":4702:4706   */\n              dup3\n                /* \"#utility.yul\":4698:4710   */\n              and\n                /* \"#utility.yul\":4729:4747   */\n              dup1\n                /* \"#utility.yul\":4719:4800   */\n              tag_176\n              jumpi\n                /* \"#utility.yul\":4785:4789   */\n              0x7f\n                /* \"#utility.yul\":4777:4783   */\n              dup3\n                /* \"#utility.yul\":4773:4790   */\n              and\n                /* \"#utility.yul\":4763:4790   */\n              swap2\n              pop\n                /* \"#utility.yul\":4719:4800   */\n            tag_176:\n                /* \"#utility.yul\":4847:4849   */\n              0x20\n                /* \"#utility.yul\":4839:4845   */\n              dup3\n                /* \"#utility.yul\":4836:4850   */\n              lt\n                /* \"#utility.yul\":4816:4834   */\n              dup2\n                /* \"#utility.yul\":4813:4851   */\n              eq\n                /* \"#utility.yul\":4810:4894   */\n              iszero\n              tag_177\n              jumpi\n                /* \"#utility.yul\":4866:4884   */\n              tag_178\n              tag_114\n              jump\t// in\n            tag_178:\n                /* \"#utility.yul\":4810:4894   */\n            tag_177:\n                /* \"#utility.yul\":4631:4900   */\n              pop\n                /* \"#utility.yul\":4580:4900   */\n              swap2\n              swap1\n              pop\n              jump\t// out\n                /* \"#utility.yul\":4906:5129   */\n            tag_115:\n                /* \"#utility.yul\":5046:5080   */\n              0x436f6e747261637420737461747573206973206e6f7420657175616c20746f20\n                /* \"#utility.yul\":5042:5043   */\n              0x00\n                /* \"#utility.yul\":5034:5040   */\n              dup3\n                /* \"#utility.yul\":5030:5044   */\n              add\n                /* \"#utility.yul\":5023:5081   */\n              mstore\n                /* \"#utility.yul\":5115:5121   */\n              0x6f70656e00000000000000000000000000000000000000000000000000000000\n                /* \"#utility.yul\":5110:5112   */\n              0x20\n                /* \"#utility.yul\":5102:5108   */\n              dup3\n                /* \"#utility.yul\":5098:5113   */\n              add\n                /* \"#utility.yul\":5091:5122   */\n              mstore\n                /* \"#utility.yul\":4906:5129   */\n              pop\n              jump\t// out\n                /* \"#utility.yul\":5135:5501   */\n            tag_116:\n                /* \"#utility.yul\":5277:5280   */\n              0x00\n                /* \"#utility.yul\":5298:5365   */\n              tag_181\n                /* \"#utility.yul\":5362:5364   */\n              0x24\n                /* \"#utility.yul\":5357:5360   */\n              dup4\n                /* \"#utility.yul\":5298:5365   */\n              tag_99\n              jump\t// in\n            tag_181:\n                /* \"#utility.yul\":5291:5365   */\n              swap2\n              pop\n                /* \"#utility.yul\":5374:5467   */\n              tag_182\n                /* \"#utility.yul\":5463:5466   */\n              dup3\n                /* \"#utility.yul\":5374:5467   */\n              tag_115\n              jump\t// in\n            tag_182:\n                /* \"#utility.yul\":5492:5494   */\n              0x40\n                /* \"#utility.yul\":5487:5490   */\n              dup3\n                /* \"#utility.yul\":5483:5495   */\n              add\n                /* \"#utility.yul\":5476:5495   */\n              swap1\n              pop\n                /* \"#utility.yul\":5135:5501   */\n              swap2\n              swap1\n              pop\n              jump\t// out\n                /* \"#utility.yul\":5507:5926   */\n            tag_65:\n                /* \"#utility.yul\":5673:5677   */\n              0x00\n                /* \"#utility.yul\":5711:5713   */\n              0x20\n                /* \"#utility.yul\":5700:5709   */\n              dup3\n                /* \"#utility.yul\":5696:5714   */\n              add\n                /* \"#utility.yul\":5688:5714   */\n              swap1\n              pop\n                /* \"#utility.yul\":5760:5769   */\n              dup2\n                /* \"#utility.yul\":5754:5758   */\n              dup2\n                /* \"#utility.yul\":5750:5770   */\n              sub\n                /* \"#utility.yul\":5746:5747   */\n              0x00\n                /* \"#utility.yul\":5735:5744   */\n              dup4\n                /* \"#utility.yul\":5731:5748   */\n              add\n                /* \"#utility.yul\":5724:5771   */\n              mstore\n                /* \"#utility.yul\":5788:5919   */\n              tag_184\n                /* \"#utility.yul\":5914:5918   */\n              dup2\n                /* \"#utility.yul\":5788:5919   */\n              tag_116\n              jump\t// in\n            tag_184:\n                /* \"#utility.yul\":5780:5919   */\n              swap1\n              pop\n                /* \"#utility.yul\":5507:5926   */\n              swap2\n              swap1\n              pop\n              jump\t// out\n                /* \"#utility.yul\":5932:6160   */\n            tag_117:\n                /* \"#utility.yul\":6072:6106   */\n              0x4f6e6c792072656665726565206f722063726561746f722063616e206661696c\n                /* \"#utility.yul\":6068:6069   */\n              0x00\n                /* \"#utility.yul\":6060:6066   */\n              dup3\n                /* \"#utility.yul\":6056:6070   */\n              add\n                /* \"#utility.yul\":6049:6107   */\n              mstore\n                /* \"#utility.yul\":6141:6152   */\n              0x20636f6e74726163740000000000000000000000000000000000000000000000\n                /* \"#utility.yul\":6136:6138   */\n              0x20\n                /* \"#utility.yul\":6128:6134   */\n              dup3\n                /* \"#utility.yul\":6124:6139   */\n              add\n                /* \"#utility.yul\":6117:6153   */\n              mstore\n                /* \"#utility.yul\":5932:6160   */\n              pop\n              jump\t// out\n                /* \"#utility.yul\":6166:6532   */\n            tag_118:\n                /* \"#utility.yul\":6308:6311   */\n              0x00\n                /* \"#utility.yul\":6329:6396   */\n              tag_187\n                /* \"#utility.yul\":6393:6395   */\n              0x29\n                /* \"#utility.yul\":6388:6391   */\n              dup4\n                /* \"#utility.yul\":6329:6396   */\n              tag_99\n              jump\t// in\n            tag_187:\n                /* \"#utility.yul\":6322:6396   */\n              swap2\n              pop\n                /* \"#utility.yul\":6405:6498   */\n              tag_188\n                /* \"#utility.yul\":6494:6497   */\n              dup3\n                /* \"#utility.yul\":6405:6498   */\n              tag_117\n              jump\t// in\n            tag_188:\n                /* \"#utility.yul\":6523:6525   */\n              0x40\n                /* \"#utility.yul\":6518:6521   */\n              dup3\n                /* \"#utility.yul\":6514:6526   */\n              add\n                /* \"#utility.yul\":6507:6526   */\n              swap1\n              pop\n                /* \"#utility.yul\":6166:6532   */\n              swap2\n              swap1\n              pop\n              jump\t// out\n                /* \"#utility.yul\":6538:6957   */\n            tag_70:\n                /* \"#utility.yul\":6704:6708   */\n              0x00\n                /* \"#utility.yul\":6742:6744   */\n              0x20\n                /* \"#utility.yul\":6731:6740   */\n              dup3\n                /* \"#utility.yul\":6727:6745   */\n              add\n                /* \"#utility.yul\":6719:6745   */\n              swap1\n              pop\n                /* \"#utility.yul\":6791:6800   */\n              dup2\n                /* \"#utility.yul\":6785:6789   */\n              dup2\n                /* \"#utility.yul\":6781:6801   */\n              sub\n                /* \"#utility.yul\":6777:6778   */\n              0x00\n                /* \"#utility.yul\":6766:6775   */\n              dup4\n                /* \"#utility.yul\":6762:6779   */\n              add\n                /* \"#utility.yul\":6755:6802   */\n              mstore\n                /* \"#utility.yul\":6819:6950   */\n              tag_190\n                /* \"#utility.yul\":6945:6949   */\n              dup2\n                /* \"#utility.yul\":6819:6950   */\n              tag_118\n              jump\t// in\n            tag_190:\n                /* \"#utility.yul\":6811:6950   */\n              swap1\n              pop\n                /* \"#utility.yul\":6538:6957   */\n              swap2\n              swap1\n              pop\n              jump\t// out\n                /* \"#utility.yul\":6963:7186   */\n            tag_119:\n                /* \"#utility.yul\":7103:7137   */\n              0x4f6e6c7920726566657265652063616e20636f6d706c657465206120636f6e74\n                /* \"#utility.yul\":7099:7100   */\n              0x00\n                /* \"#utility.yul\":7091:7097   */\n              dup3\n                /* \"#utility.yul\":7087:7101   */\n              add\n                /* \"#utility.yul\":7080:7138   */\n              mstore\n                /* \"#utility.yul\":7172:7178   */\n              0x7261637400000000000000000000000000000000000000000000000000000000\n                /* \"#utility.yul\":7167:7169   */\n              0x20\n                /* \"#utility.yul\":7159:7165   */\n              dup3\n                /* \"#utility.yul\":7155:7170   */\n              add\n                /* \"#utility.yul\":7148:7179   */\n              mstore\n                /* \"#utility.yul\":6963:7186   */\n              pop\n              jump\t// out\n                /* \"#utility.yul\":7192:7558   */\n            tag_120:\n                /* \"#utility.yul\":7334:7337   */\n              0x00\n                /* \"#utility.yul\":7355:7422   */\n              tag_193\n                /* \"#utility.yul\":7419:7421   */\n              0x24\n                /* \"#utility.yul\":7414:7417   */\n              dup4\n                /* \"#utility.yul\":7355:7422   */\n              tag_99\n              jump\t// in\n            tag_193:\n                /* \"#utility.yul\":7348:7422   */\n              swap2\n              pop\n                /* \"#utility.yul\":7431:7524   */\n              tag_194\n                /* \"#utility.yul\":7520:7523   */\n              dup3\n                /* \"#utility.yul\":7431:7524   */\n              tag_119\n              jump\t// in\n            tag_194:\n                /* \"#utility.yul\":7549:7551   */\n              0x40\n                /* \"#utility.yul\":7544:7547   */\n              dup3\n                /* \"#utility.yul\":7540:7552   */\n              add\n                /* \"#utility.yul\":7533:7552   */\n              swap1\n              pop\n                /* \"#utility.yul\":7192:7558   */\n              swap2\n              swap1\n              pop\n              jump\t// out\n                /* \"#utility.yul\":7564:7983   */\n            tag_90:\n                /* \"#utility.yul\":7730:7734   */\n              0x00\n                /* \"#utility.yul\":7768:7770   */\n              0x20\n                /* \"#utility.yul\":7757:7766   */\n              dup3\n                /* \"#utility.yul\":7753:7771   */\n              add\n                /* \"#utility.yul\":7745:7771   */\n              swap1\n              pop\n                /* \"#utility.yul\":7817:7826   */\n              dup2\n                /* \"#utility.yul\":7811:7815   */\n              dup2\n                /* \"#utility.yul\":7807:7827   */\n              sub\n                /* \"#utility.yul\":7803:7804   */\n              0x00\n                /* \"#utility.yul\":7792:7801   */\n              dup4\n                /* \"#utility.yul\":7788:7805   */\n              add\n                /* \"#utility.yul\":7781:7828   */\n              mstore\n                /* \"#utility.yul\":7845:7976   */\n              tag_196\n                /* \"#utility.yul\":7971:7975   */\n              dup2\n                /* \"#utility.yul\":7845:7976   */\n              tag_120\n              jump\t// in\n            tag_196:\n                /* \"#utility.yul\":7837:7976   */\n              swap1\n              pop\n                /* \"#utility.yul\":7564:7983   */\n              swap2\n              swap1\n              pop\n              jump\t// out\n\n            auxdata: 0xa2646970667358221220028721c55c168e57539176ba96fc45384abc9896e58fd978dd5f56ec9a5426f664736f6c634300080c0033\n        }\n    }\n\n    auxdata: 0xa26469706673582212204aee6b5272a713a9fad75c3c96bfc986384fdb5ea0a8e0a5e2ad47bd8436250264736f6c634300080c0033\n}\n","bytecode":{"linkReferences":{},"object":"608060405234801561001057600080fd5b50615465806100206000396000f3fe608060405260043610620001525760003560e01c806364a60b4711620000bb578063b24e67d01162000079578063b24e67d0146200052d578063b3b6633e1462000571578063d77399e514620005a1578063dc0e0c1314620005cf578063e10bc83414620005ff578063e436e826146200062d5762000152565b806364a60b4714620003ed57806375ce46a714620004315780639051e2341462000461578063a87430ba14620004a5578063a908f4fa14620004e95762000152565b8063442a7bc71162000115578063442a7bc714620002955780634841a88514620002d95780634ea346711462000309578063502c9bd5146200034d5780635b259abf146200039157806361542c4414620003bf5762000152565b8063061dff9a14620001575780630e865751146200018557806319ee8bd414620001c957806338db44bc146200020d57806338fb42fd1462000251575b600080fd5b3480156200016457600080fd5b506200018360048036038101906200017d91906200290d565b6200064d565b005b3480156200019257600080fd5b50620001b16004803603810190620001ab91906200297a565b62000ae6565b604051620001c0919062002a8f565b60405180910390f35b348015620001d657600080fd5b50620001f56004803603810190620001ef91906200290d565b62000c9a565b60405162000204919062002a8f565b60405180910390f35b3480156200021a57600080fd5b5062000239600480360381019062000233919062002ab3565b62000d6c565b60405162000248919062002af6565b60405180910390f35b3480156200025e57600080fd5b506200027d600480360381019062000277919062002ab3565b62000dac565b6040516200028c919062002af6565b60405180910390f35b348015620002a257600080fd5b50620002c16004803603810190620002bb91906200290d565b62000dec565b604051620002d0919062002a8f565b60405180910390f35b348015620002e657600080fd5b50620002f162000ebd565b60405162000300919062002b24565b60405180910390f35b3480156200031657600080fd5b506200033560048036038101906200032f91906200290d565b62000ec3565b60405162000344919062002a8f565b60405180910390f35b3480156200035a57600080fd5b5062000379600480360381019062000373919062002ab3565b62000f95565b60405162000388919062002af6565b60405180910390f35b3480156200039e57600080fd5b50620003bd6004803603810190620003b791906200290d565b62000fd5565b005b348015620003cc57600080fd5b50620003eb6004803603810190620003e591906200290d565b6200114d565b005b348015620003fa57600080fd5b506200041960048036038101906200041391906200290d565b620012c5565b60405162000428919062002b24565b60405180910390f35b3480156200043e57600080fd5b5062000449620012e3565b60405162000458919062002b24565b60405180910390f35b3480156200046e57600080fd5b506200048d60048036038101906200048791906200290d565b620012e9565b6040516200049c919062002a8f565b60405180910390f35b348015620004b257600080fd5b50620004d16004803603810190620004cb91906200290d565b620013bb565b604051620004e0919062002b24565b60405180910390f35b348015620004f657600080fd5b506200051560048036038101906200050f91906200297a565b620013d9565b60405162000524919062002a8f565b60405180910390f35b3480156200053a57600080fd5b506200055960048036038101906200055391906200290d565b6200158d565b60405162000568919062002a8f565b60405180910390f35b3480156200057e57600080fd5b50620005896200165e565b60405162000598919062002b24565b60405180910390f35b348015620005ae57600080fd5b50620005cd6004803603810190620005c7919062002ca3565b62001664565b005b348015620005dc57600080fd5b50620005e7620016f0565b604051620005f6919062002b24565b60405180910390f35b3480156200060c57600080fd5b506200062b60048036038101906200062591906200290d565b620016f6565b005b6200064b600480360381019062000645919062002d4e565b62001a14565b005b600081905060008173ffffffffffffffffffffffffffffffffffffffff16633c4901746040518163ffffffff1660e01b8152600401602060405180830381865afa158015620006a0573d6000803e3d6000fd5b505050506040513d601f19601f82011682018060405250810190620006c6919062002e15565b90508173ffffffffffffffffffffffffffffffffffffffff16633b1bebd16040518163ffffffff1660e01b8152600401602060405180830381865afa15801562000714573d6000803e3d6000fd5b505050506040513d601f19601f820116820180604052508101906200073a919062002e15565b73ffffffffffffffffffffffffffffffffffffffff168173ffffffffffffffffffffffffffffffffffffffff16633b1bebd16040518163ffffffff1660e01b8152600401602060405180830381865afa1580156200079c573d6000803e3d6000fd5b505050506040513d601f19601f82011682018060405250810190620007c2919062002e15565b73ffffffffffffffffffffffffffffffffffffffff16146200081b576040517f08c379a0000000000000000000000000000000000000000000000000000000008152600401620008129062002ece565b60405180910390fd5b8173ffffffffffffffffffffffffffffffffffffffff1663263b81c96040518163ffffffff1660e01b81526004016020604051808303816000875af115801562000869573d6000803e3d6000fd5b505050506040513d601f19601f820116820180604052508101906200088f919062002f35565b508073ffffffffffffffffffffffffffffffffffffffff1663b4fedc116040518163ffffffff1660e01b81526004016020604051808303816000875af1158015620008de573d6000803e3d6000fd5b505050506040513d601f19601f8201168201806040525081019062000904919062002fac565b50620009f38173ffffffffffffffffffffffffffffffffffffffff166302d05d3f6040518163ffffffff1660e01b8152600401602060405180830381865afa15801562000955573d6000803e3d6000fd5b505050506040513d601f19601f820116820180604052508101906200097b919062002e15565b8373ffffffffffffffffffffffffffffffffffffffff16633c4901746040518163ffffffff1660e01b8152600401602060405180830381865afa158015620009c7573d6000803e3d6000fd5b505050506040513d601f19601f82011682018060405250810190620009ed919062002e15565b62001e87565b62000ae18173ffffffffffffffffffffffffffffffffffffffff16633b1bebd16040518163ffffffff1660e01b8152600401602060405180830381865afa15801562000a43573d6000803e3d6000fd5b505050506040513d601f19601f8201168201806040525081019062000a69919062002e15565b8373ffffffffffffffffffffffffffffffffffffffff16633c4901746040518163ffffffff1660e01b8152600401602060405180830381865afa15801562000ab5573d6000803e3d6000fd5b505050506040513d601f19601f8201168201806040525081019062000adb919062002e15565b62002244565b505050565b6060600083101562000b2f576040517f08c379a000000000000000000000000000000000000000000000000000000000815260040162000b26906200302e565b60405180910390fd5b60038054905082111562000b7a576040517f08c379a000000000000000000000000000000000000000000000000000000000815260040162000b7190620030c6565b60405180910390fd5b6000838362000b8a919062003117565b67ffffffffffffffff81111562000ba65762000ba562002b5c565b5b60405190808252806020026020018201604052801562000bd55781602001602082028036833780820191505090505b50905060008490505b8381101562000c8f576003818154811062000bfe5762000bfd62003152565b5b9060005260206000200160009054906101000a900473ffffffffffffffffffffffffffffffffffffffff1682828151811062000c3f5762000c3e62003152565b5b602002602001019073ffffffffffffffffffffffffffffffffffffffff16908173ffffffffffffffffffffffffffffffffffffffff1681525050808062000c869062003181565b91505062000bde565b508091505092915050565b6060600660008373ffffffffffffffffffffffffffffffffffffffff1673ffffffffffffffffffffffffffffffffffffffff16815260200190815260200160002060020180548060200260200160405190810160405280929190818152602001828054801562000d6057602002820191906000526020600020905b8160009054906101000a900473ffffffffffffffffffffffffffffffffffffffff1673ffffffffffffffffffffffffffffffffffffffff168152602001906001019080831162000d15575b50505050509050919050565b6003818154811062000d7d57600080fd5b906000526020600020016000915054906101000a900473ffffffffffffffffffffffffffffffffffffffff1681565b6008818154811062000dbd57600080fd5b906000526020600020016000915054906101000a900473ffffffffffffffffffffffffffffffffffffffff1681565b60606000808373ffffffffffffffffffffffffffffffffffffffff1673ffffffffffffffffffffffffffffffffffffffff16815260200190815260200160002060010180548060200260200160405190810160405280929190818152602001828054801562000eb157602002820191906000526020600020905b8160009054906101000a900473ffffffffffffffffffffffffffffffffffffffff1673ffffffffffffffffffffffffffffffffffffffff168152602001906001019080831162000e66575b50505050509050919050565b60045481565b6060600660008373ffffffffffffffffffffffffffffffffffffffff1673ffffffffffffffffffffffffffffffffffffffff16815260200190815260200160002060030180548060200260200160405190810160405280929190818152602001828054801562000f8957602002820191906000526020600020905b8160009054906101000a900473ffffffffffffffffffffffffffffffffffffffff1673ffffffffffffffffffffffffffffffffffffffff168152602001906001019080831162000f3e575b50505050509050919050565b6001818154811062000fa657600080fd5b906000526020600020016000915054906101000a900473ffffffffffffffffffffffffffffffffffffffff1681565b60008190508073ffffffffffffffffffffffffffffffffffffffff16632d398fa66040518163ffffffff1660e01b81526004016020604051808303816000875af115801562001028573d6000803e3d6000fd5b505050506040513d601f19601f820116820180604052508101906200104e919062002fac565b50620010cc8173ffffffffffffffffffffffffffffffffffffffff166302d05d3f6040518163ffffffff1660e01b8152600401602060405180830381865afa1580156200109f573d6000803e3d6000fd5b505050506040513d601f19601f82011682018060405250810190620010c5919062002e15565b8362001e87565b620011498173ffffffffffffffffffffffffffffffffffffffff16633b1bebd16040518163ffffffff1660e01b8152600401602060405180830381865afa1580156200111c573d6000803e3d6000fd5b505050506040513d601f19601f8201168201806040525081019062001142919062002e15565b8362002244565b5050565b60008190508073ffffffffffffffffffffffffffffffffffffffff1663b4fedc116040518163ffffffff1660e01b81526004016020604051808303816000875af1158015620011a0573d6000803e3d6000fd5b505050506040513d601f19601f82011682018060405250810190620011c6919062002fac565b50620012448173ffffffffffffffffffffffffffffffffffffffff166302d05d3f6040518163ffffffff1660e01b8152600401602060405180830381865afa15801562001217573d6000803e3d6000fd5b505050506040513d601f19601f820116820180604052508101906200123d919062002e15565b8362001e87565b620012c18173ffffffffffffffffffffffffffffffffffffffff16633b1bebd16040518163ffffffff1660e01b8152600401602060405180830381865afa15801562001294573d6000803e3d6000fd5b505050506040513d601f19601f82011682018060405250810190620012ba919062002e15565b8362002244565b5050565b60066020528060005260406000206000915090508060000154905081565b60025481565b6060600660008373ffffffffffffffffffffffffffffffffffffffff1673ffffffffffffffffffffffffffffffffffffffff168152602001908152602001600020600101805480602002602001604051908101604052809291908181526020018280548015620013af57602002820191906000526020600020905b8160009054906101000a900473ffffffffffffffffffffffffffffffffffffffff1673ffffffffffffffffffffffffffffffffffffffff168152602001906001019080831162001364575b50505050509050919050565b60006020528060005260406000206000915090508060000154905081565b6060600083101562001422576040517f08c379a000000000000000000000000000000000000000000000000000000000815260040162001419906200302e565b60405180910390fd5b6001805490508211156200146d576040517f08c379a00000000000000000000000000000000000000000000000000000000081526004016200146490620030c6565b60405180910390fd5b600083836200147d919062003117565b67ffffffffffffffff81111562001499576200149862002b5c565b5b604051908082528060200260200182016040528015620014c85781602001602082028036833780820191505090505b50905060008490505b83811015620015825760018181548110620014f157620014f062003152565b5b9060005260206000200160009054906101000a900473ffffffffffffffffffffffffffffffffffffffff1682828151811062001532576200153162003152565b5b602002602001019073ffffffffffffffffffffffffffffffffffffffff16908173ffffffffffffffffffffffffffffffffffffffff16815250508080620015799062003181565b915050620014d1565b508091505092915050565b60606000808373ffffffffffffffffffffffffffffffffffffffff1673ffffffffffffffffffffffffffffffffffffffff1681526020019081526020016000206002018054806020026020016040519081016040528092919081815260200182805480156200165257602002820191906000526020600020905b8160009054906101000a900473ffffffffffffffffffffffffffffffffffffffff1673ffffffffffffffffffffffffffffffffffffffff168152602001906001019080831162001607575b50505050509050919050565b60075481565b60008290508073ffffffffffffffffffffffffffffffffffffffff1663d2daa825836040518263ffffffff1660e01b8152600401620016a4919062003251565b6020604051808303816000875af1158015620016c4573d6000803e3d6000fd5b505050506040513d601f19601f82011682018060405250810190620016ea919062002f35565b50505050565b60055481565b60008190506000600281111562001712576200171162003275565b5b8173ffffffffffffffffffffffffffffffffffffffff1663200d2ed26040518163ffffffff1660e01b8152600401602060405180830381865afa1580156200175e573d6000803e3d6000fd5b505050506040513d601f19601f82011682018060405250810190620017849190620032cc565b600281111562001799576200179862003275565b5b14620017dc576040517f08c379a0000000000000000000000000000000000000000000000000000000008152600401620017d3906200334e565b60405180910390fd5b8073ffffffffffffffffffffffffffffffffffffffff166302d05d3f6040518163ffffffff1660e01b8152600401602060405180830381865afa15801562001828573d6000803e3d6000fd5b505050506040513d601f19601f820116820180604052508101906200184e919062002e15565b73ffffffffffffffffffffffffffffffffffffffff163273ffffffffffffffffffffffffffffffffffffffff1614620018be576040517f08c379a0000000000000000000000000000000000000000000000000000000008152600401620018b590620033e6565b60405180910390fd5b600082604051620018cf9062002878565b620018db919062002af6565b604051809103906000f080158015620018f8573d6000803e3d6000fd5b509050600660008373ffffffffffffffffffffffffffffffffffffffff16633b1bebd16040518163ffffffff1660e01b8152600401602060405180830381865afa1580156200194b573d6000803e3d6000fd5b505050506040513d601f19601f8201168201806040525081019062001971919062002e15565b73ffffffffffffffffffffffffffffffffffffffff1673ffffffffffffffffffffffffffffffffffffffff168152602001908152602001600020600301819080600181540180825580915050600190039060005260206000200160009091909190916101000a81548173ffffffffffffffffffffffffffffffffffffffff021916908373ffffffffffffffffffffffffffffffffffffffff160217905550505050565b60008060003373ffffffffffffffffffffffffffffffffffffffff1673ffffffffffffffffffffffffffffffffffffffff16815260200190815260200160002060000154141562001add576002600081548092919062001a749062003181565b91905055506001339080600181540180825580915050600190039060005260206000200160009091909190916101000a81548173ffffffffffffffffffffffffffffffffffffffff021916908373ffffffffffffffffffffffffffffffffffffffff1602179055505b6000600660008673ffffffffffffffffffffffffffffffffffffffff1673ffffffffffffffffffffffffffffffffffffffff16815260200190815260200160002060000154141562001ba7576007600081548092919062001b3e9062003181565b91905055506008849080600181540180825580915050600190039060005260206000200160009091909190916101000a81548173ffffffffffffffffffffffffffffffffffffffff021916908373ffffffffffffffffffffffffffffffffffffffff1602179055505b60003433868686863460405162001bbe9062002886565b62001bcf9695949392919062003473565b6040518091039082f090508015801562001bed573d6000803e3d6000fd5b5090506004600081548092919062001c059062003181565b91905055506003819080600181540180825580915050600190039060005260206000200160009091909190916101000a81548173ffffffffffffffffffffffffffffffffffffffff021916908373ffffffffffffffffffffffffffffffffffffffff160217905550346005600082825462001c819190620034ee565b925050819055506000803373ffffffffffffffffffffffffffffffffffffffff1673ffffffffffffffffffffffffffffffffffffffff168152602001908152602001600020600001600081548092919062001cdc9062003181565b91905055506000803373ffffffffffffffffffffffffffffffffffffffff1673ffffffffffffffffffffffffffffffffffffffff168152602001908152602001600020600101819080600181540180825580915050600190039060005260206000200160009091909190916101000a81548173ffffffffffffffffffffffffffffffffffffffff021916908373ffffffffffffffffffffffffffffffffffffffff160217905550600660008673ffffffffffffffffffffffffffffffffffffffff1673ffffffffffffffffffffffffffffffffffffffff168152602001908152602001600020600001600081548092919062001dd89062003181565b9190505550600660008673ffffffffffffffffffffffffffffffffffffffff1673ffffffffffffffffffffffffffffffffffffffff168152602001908152602001600020600101819080600181540180825580915050600190039060005260206000200160009091909190916101000a81548173ffffffffffffffffffffffffffffffffffffffff021916908373ffffffffffffffffffffffffffffffffffffffff1602179055505050505050565b600062001e95838362002602565b905060008060008573ffffffffffffffffffffffffffffffffffffffff1673ffffffffffffffffffffffffffffffffffffffff16815260200190815260200160002060010180549050905060008290505b60018262001ef5919062003117565b81101562002040576000808673ffffffffffffffffffffffffffffffffffffffff1673ffffffffffffffffffffffffffffffffffffffff16815260200190815260200160002060010160018262001f4d9190620034ee565b8154811062001f615762001f6062003152565b5b9060005260206000200160009054906101000a900473ffffffffffffffffffffffffffffffffffffffff166000808773ffffffffffffffffffffffffffffffffffffffff1673ffffffffffffffffffffffffffffffffffffffff168152602001908152602001600020600101828154811062001fe25762001fe162003152565b5b9060005260206000200160006101000a81548173ffffffffffffffffffffffffffffffffffffffff021916908373ffffffffffffffffffffffffffffffffffffffff1602179055508080620020379062003181565b91505062001ee6565b506000808573ffffffffffffffffffffffffffffffffffffffff1673ffffffffffffffffffffffffffffffffffffffff1681526020019081526020016000206002016000808673ffffffffffffffffffffffffffffffffffffffff1673ffffffffffffffffffffffffffffffffffffffff16815260200190815260200160002060010160016000808873ffffffffffffffffffffffffffffffffffffffff1673ffffffffffffffffffffffffffffffffffffffff1681526020019081526020016000206001018054905062002116919062003117565b815481106200212a576200212962003152565b5b9060005260206000200160009054906101000a900473ffffffffffffffffffffffffffffffffffffffff169080600181540180825580915050600190039060005260206000200160009091909190916101000a81548173ffffffffffffffffffffffffffffffffffffffff021916908373ffffffffffffffffffffffffffffffffffffffff1602179055506000808573ffffffffffffffffffffffffffffffffffffffff1673ffffffffffffffffffffffffffffffffffffffff1681526020019081526020016000206001018054806200220957620022086200354b565b5b6001900381819060005260206000200160006101000a81549073ffffffffffffffffffffffffffffffffffffffff0219169055905550505050565b60006200225283836200273c565b905060008190505b6001600660008673ffffffffffffffffffffffffffffffffffffffff1673ffffffffffffffffffffffffffffffffffffffff16815260200190815260200160002060010180549050620022ae919062003117565b811015620023fb57600660008573ffffffffffffffffffffffffffffffffffffffff1673ffffffffffffffffffffffffffffffffffffffff168152602001908152602001600020600101600182620023079190620034ee565b815481106200231b576200231a62003152565b5b9060005260206000200160009054906101000a900473ffffffffffffffffffffffffffffffffffffffff16600660008673ffffffffffffffffffffffffffffffffffffffff1673ffffffffffffffffffffffffffffffffffffffff16815260200190815260200160002060010182815481106200239d576200239c62003152565b5b9060005260206000200160006101000a81548173ffffffffffffffffffffffffffffffffffffffff021916908373ffffffffffffffffffffffffffffffffffffffff1602179055508080620023f29062003181565b9150506200225a565b50600660008473ffffffffffffffffffffffffffffffffffffffff1673ffffffffffffffffffffffffffffffffffffffff168152602001908152602001600020600201600660008573ffffffffffffffffffffffffffffffffffffffff1673ffffffffffffffffffffffffffffffffffffffff1681526020019081526020016000206001016001600660008773ffffffffffffffffffffffffffffffffffffffff1673ffffffffffffffffffffffffffffffffffffffff16815260200190815260200160002060010180549050620024d4919062003117565b81548110620024e857620024e762003152565b5b9060005260206000200160009054906101000a900473ffffffffffffffffffffffffffffffffffffffff169080600181540180825580915050600190039060005260206000200160009091909190916101000a81548173ffffffffffffffffffffffffffffffffffffffff021916908373ffffffffffffffffffffffffffffffffffffffff160217905550600660008473ffffffffffffffffffffffffffffffffffffffff1673ffffffffffffffffffffffffffffffffffffffff168152602001908152602001600020600101805480620025c857620025c76200354b565b5b6001900381819060005260206000200160006101000a81549073ffffffffffffffffffffffffffffffffffffffff02191690559055505050565b60008060005b60016000808773ffffffffffffffffffffffffffffffffffffffff1673ffffffffffffffffffffffffffffffffffffffff168152602001908152602001600020600101805490506200265b919062003117565b811162002731578373ffffffffffffffffffffffffffffffffffffffff166000808773ffffffffffffffffffffffffffffffffffffffff1673ffffffffffffffffffffffffffffffffffffffff1681526020019081526020016000206001018281548110620026cf57620026ce62003152565b5b9060005260206000200160009054906101000a900473ffffffffffffffffffffffffffffffffffffffff1673ffffffffffffffffffffffffffffffffffffffff1614156200271b578091505b8080620027289062003181565b91505062002608565b508091505092915050565b60008060005b6001600660008773ffffffffffffffffffffffffffffffffffffffff1673ffffffffffffffffffffffffffffffffffffffff1681526020019081526020016000206001018054905062002796919062003117565b81116200286d578373ffffffffffffffffffffffffffffffffffffffff16600660008773ffffffffffffffffffffffffffffffffffffffff1673ffffffffffffffffffffffffffffffffffffffff16815260200190815260200160002060010182815481106200280b576200280a62003152565b5b9060005260206000200160009054906101000a900473ffffffffffffffffffffffffffffffffffffffff1673ffffffffffffffffffffffffffffffffffffffff16141562002857578091505b8080620028649062003181565b91505062002742565b508091505092915050565b610d19806200357b83390190565b61119c806200429483390190565b6000604051905090565b600080fd5b600080fd5b600073ffffffffffffffffffffffffffffffffffffffff82169050919050565b6000620028d582620028a8565b9050919050565b620028e781620028c8565b8114620028f357600080fd5b50565b6000813590506200290781620028dc565b92915050565b6000602082840312156200292657620029256200289e565b5b60006200293684828501620028f6565b91505092915050565b6000819050919050565b62002954816200293f565b81146200296057600080fd5b50565b600081359050620029748162002949565b92915050565b600080604083850312156200299457620029936200289e565b5b6000620029a48582860162002963565b9250506020620029b78582860162002963565b9150509250929050565b600081519050919050565b600082825260208201905092915050565b6000819050602082019050919050565b620029f881620028c8565b82525050565b600062002a0c8383620029ed565b60208301905092915050565b6000602082019050919050565b600062002a3282620029c1565b62002a3e8185620029cc565b935062002a4b83620029dd565b8060005b8381101562002a8257815162002a668882620029fe565b975062002a738362002a18565b92505060018101905062002a4f565b5085935050505092915050565b6000602082019050818103600083015262002aab818462002a25565b905092915050565b60006020828403121562002acc5762002acb6200289e565b5b600062002adc8482850162002963565b91505092915050565b62002af081620028c8565b82525050565b600060208201905062002b0d600083018462002ae5565b92915050565b62002b1e816200293f565b82525050565b600060208201905062002b3b600083018462002b13565b92915050565b600080fd5b600080fd5b6000601f19601f8301169050919050565b7f4e487b7100000000000000000000000000000000000000000000000000000000600052604160045260246000fd5b62002b968262002b4b565b810181811067ffffffffffffffff8211171562002bb85762002bb762002b5c565b5b80604052505050565b600062002bcd62002894565b905062002bdb828262002b8b565b919050565b600067ffffffffffffffff82111562002bfe5762002bfd62002b5c565b5b62002c098262002b4b565b9050602081019050919050565b82818337600083830152505050565b600062002c3c62002c368462002be0565b62002bc1565b90508281526020810184848401111562002c5b5762002c5a62002b46565b5b62002c6884828562002c16565b509392505050565b600082601f83011262002c885762002c8762002b41565b5b813562002c9a84826020860162002c25565b91505092915050565b6000806040838503121562002cbd5762002cbc6200289e565b5b600062002ccd85828601620028f6565b925050602083013567ffffffffffffffff81111562002cf15762002cf0620028a3565b5b62002cff8582860162002c70565b9150509250929050565b600062002d1682620028a8565b9050919050565b62002d288162002d09565b811462002d3457600080fd5b50565b60008135905062002d488162002d1d565b92915050565b6000806000806080858703121562002d6b5762002d6a6200289e565b5b600062002d7b87828801620028f6565b945050602085013567ffffffffffffffff81111562002d9f5762002d9e620028a3565b5b62002dad8782880162002c70565b935050604085013567ffffffffffffffff81111562002dd15762002dd0620028a3565b5b62002ddf8782880162002c70565b925050606062002df28782880162002d37565b91505092959194509250565b60008151905062002e0f81620028dc565b92915050565b60006020828403121562002e2e5762002e2d6200289e565b5b600062002e3e8482850162002dfe565b91505092915050565b600082825260208201905092915050565b7f4f6e6c7920636f6e747261637420726566657265652063616e20617070726f7660008201527f65207265717565737420666f7220636f6d706c6574696f6e0000000000000000602082015250565b600062002eb660388362002e47565b915062002ec38262002e58565b604082019050919050565b6000602082019050818103600083015262002ee98162002ea7565b9050919050565b600062002efd82620028c8565b9050919050565b62002f0f8162002ef0565b811462002f1b57600080fd5b50565b60008151905062002f2f8162002f04565b92915050565b60006020828403121562002f4e5762002f4d6200289e565b5b600062002f5e8482850162002f1e565b91505092915050565b600062002f7482620028c8565b9050919050565b62002f868162002f67565b811462002f9257600080fd5b50565b60008151905062002fa68162002f7b565b92915050565b60006020828403121562002fc55762002fc46200289e565b5b600062002fd58482850162002f95565b91505092915050565b7f537461727420696e6465782063616e6e6f74206265206e656761746976650000600082015250565b600062003016601e8362002e47565b9150620030238262002fde565b602082019050919050565b60006020820190508181036000830152620030498162003007565b9050919050565b7f456e6420696e646578206578636565647320757365722061646472657373657360008201527f206c656e67746800000000000000000000000000000000000000000000000000602082015250565b6000620030ae60278362002e47565b9150620030bb8262003050565b604082019050919050565b60006020820190508181036000830152620030e1816200309f565b9050919050565b7f4e487b7100000000000000000000000000000000000000000000000000000000600052601160045260246000fd5b600062003124826200293f565b915062003131836200293f565b925082821015620031475762003146620030e8565b5b828203905092915050565b7f4e487b7100000000000000000000000000000000000000000000000000000000600052603260045260246000fd5b60006200318e826200293f565b91507fffffffffffffffffffffffffffffffffffffffffffffffffffffffffffffffff821415620031c457620031c3620030e8565b5b600182019050919050565b600081519050919050565b60005b83811015620031fa578082015181840152602081019050620031dd565b838111156200320a576000848401525b50505050565b60006200321d82620031cf565b62003229818562002e47565b93506200323b818560208601620031da565b620032468162002b4b565b840191505092915050565b600060208201905081810360008301526200326d818462003210565b905092915050565b7f4e487b7100000000000000000000000000000000000000000000000000000000600052602160045260246000fd5b60038110620032b257600080fd5b50565b600081519050620032c681620032a4565b92915050565b600060208284031215620032e557620032e46200289e565b5b6000620032f584828501620032b5565b91505092915050565b7f436f6e747261637420737461747573206d757374206265206f70656e00000000600082015250565b600062003336601c8362002e47565b91506200334382620032fe565b602082019050919050565b60006020820190508181036000830152620033698162003327565b9050919050565b7f4f6e6c792063726561746f72206f6620636f6e74726163742063616e2072657160008201527f7565737420636f6d706c6574696f6e0000000000000000000000000000000000602082015250565b6000620033ce602f8362002e47565b9150620033db8262003370565b604082019050919050565b600060208201905081810360008301526200340181620033bf565b9050919050565b6000819050919050565b6000620034336200342d6200342784620028a8565b62003408565b620028a8565b9050919050565b6000620034478262003412565b9050919050565b60006200345b826200343a565b9050919050565b6200346d816200344e565b82525050565b600060c0820190506200348a600083018962002ae5565b62003499602083018862002ae5565b8181036040830152620034ad818762003210565b90508181036060830152620034c3818662003210565b9050620034d4608083018562003462565b620034e360a083018462002b13565b979650505050505050565b6000620034fb826200293f565b915062003508836200293f565b9250827fffffffffffffffffffffffffffffffffffffffffffffffffffffffffffffffff0382111562003540576200353f620030e8565b5b828201905092915050565b7f4e487b7100000000000000000000000000000000000000000000000000000000600052603160045260246000fdfe60806040523480156200001157600080fd5b5060405162000d1938038062000d19833981810160405281019062000037919062000280565b60008190508073ffffffffffffffffffffffffffffffffffffffff166302d05d3f6040518163ffffffff1660e01b8152600401602060405180830381865afa15801562000088573d6000803e3d6000fd5b505050506040513d601f19601f82011682018060405250810190620000ae919062000280565b6000806101000a81548173ffffffffffffffffffffffffffffffffffffffff021916908373ffffffffffffffffffffffffffffffffffffffff1602179055508073ffffffffffffffffffffffffffffffffffffffff16633b1bebd16040518163ffffffff1660e01b8152600401602060405180830381865afa15801562000139573d6000803e3d6000fd5b505050506040513d601f19601f820116820180604052508101906200015f919062000280565b600160006101000a81548173ffffffffffffffffffffffffffffffffffffffff021916908373ffffffffffffffffffffffffffffffffffffffff16021790555081600260006101000a81548173ffffffffffffffffffffffffffffffffffffffff021916908373ffffffffffffffffffffffffffffffffffffffff1602179055506000600260146101000a81548160ff02191690836002811115620002095762000208620002b2565b5b02179055505050620002e1565b600080fd5b600073ffffffffffffffffffffffffffffffffffffffff82169050919050565b600062000248826200021b565b9050919050565b6200025a816200023b565b81146200026657600080fd5b50565b6000815190506200027a816200024f565b92915050565b60006020828403121562000299576200029862000216565b5b6000620002a98482850162000269565b91505092915050565b7f4e487b7100000000000000000000000000000000000000000000000000000000600052602160045260246000fd5b610a2880620002f16000396000f3fe608060405234801561001057600080fd5b506004361061007d5760003560e01c80633b1bebd11161005b5780633b1bebd1146100dc5780633c490174146100fa5780637a7f01a714610118578063d2daa825146101365761007d565b806302d05d3f14610082578063200d2ed2146100a0578063263b81c9146100be575b600080fd5b61008a610166565b60405161009791906104f9565b60405180910390f35b6100a861018a565b6040516100b5919061058b565b60405180910390f35b6100c661019d565b6040516100d39190610605565b60405180910390f35b6100e4610260565b6040516100f191906104f9565b60405180910390f35b610102610286565b60405161010f91906104f9565b60405180910390f35b6101206102ac565b60405161012d91906106b9565b60405180910390f35b610150600480360381019061014b9190610824565b61033a565b60405161015d9190610605565b60405180910390f35b60008054906101000a900473ffffffffffffffffffffffffffffffffffffffff1681565b600260149054906101000a900460ff1681565b6000600160009054906101000a900473ffffffffffffffffffffffffffffffffffffffff1673ffffffffffffffffffffffffffffffffffffffff163273ffffffffffffffffffffffffffffffffffffffff161461022f576040517f08c379a0000000000000000000000000000000000000000000000000000000008152600401610226906108df565b60405180910390fd5b6001600260146101000a81548160ff0219169083600281111561025557610254610514565b5b021790555030905090565b600160009054906101000a900473ffffffffffffffffffffffffffffffffffffffff1681565b600260009054906101000a900473ffffffffffffffffffffffffffffffffffffffff1681565b600380546102b99061092e565b80601f01602080910402602001604051908101604052809291908181526020018280546102e59061092e565b80156103325780601f1061030757610100808354040283529160200191610332565b820191906000526020600020905b81548152906001019060200180831161031557829003601f168201915b505050505081565b6000600160009054906101000a900473ffffffffffffffffffffffffffffffffffffffff1673ffffffffffffffffffffffffffffffffffffffff163273ffffffffffffffffffffffffffffffffffffffff16146103cc576040517f08c379a00000000000000000000000000000000000000000000000000000000081526004016103c3906109d2565b60405180910390fd5b60028060146101000a81548160ff021916908360028111156103f1576103f0610514565b5b0217905550816003908051906020019061040c929190610415565b50309050919050565b8280546104219061092e565b90600052602060002090601f016020900481019282610443576000855561048a565b82601f1061045c57805160ff191683800117855561048a565b8280016001018555821561048a579182015b8281111561048957825182559160200191906001019061046e565b5b509050610497919061049b565b5090565b5b808211156104b457600081600090555060010161049c565b5090565b600073ffffffffffffffffffffffffffffffffffffffff82169050919050565b60006104e3826104b8565b9050919050565b6104f3816104d8565b82525050565b600060208201905061050e60008301846104ea565b92915050565b7f4e487b7100000000000000000000000000000000000000000000000000000000600052602160045260246000fd5b6003811061055457610553610514565b5b50565b600081905061056582610543565b919050565b600061057582610557565b9050919050565b6105858161056a565b82525050565b60006020820190506105a0600083018461057c565b92915050565b6000819050919050565b60006105cb6105c66105c1846104b8565b6105a6565b6104b8565b9050919050565b60006105dd826105b0565b9050919050565b60006105ef826105d2565b9050919050565b6105ff816105e4565b82525050565b600060208201905061061a60008301846105f6565b92915050565b600081519050919050565b600082825260208201905092915050565b60005b8381101561065a57808201518184015260208101905061063f565b83811115610669576000848401525b50505050565b6000601f19601f8301169050919050565b600061068b82610620565b610695818561062b565b93506106a581856020860161063c565b6106ae8161066f565b840191505092915050565b600060208201905081810360008301526106d38184610680565b905092915050565b6000604051905090565b600080fd5b600080fd5b600080fd5b600080fd5b7f4e487b7100000000000000000000000000000000000000000000000000000000600052604160045260246000fd5b6107318261066f565b810181811067ffffffffffffffff821117156107505761074f6106f9565b5b80604052505050565b60006107636106db565b905061076f8282610728565b919050565b600067ffffffffffffffff82111561078f5761078e6106f9565b5b6107988261066f565b9050602081019050919050565b82818337600083830152505050565b60006107c76107c284610774565b610759565b9050828152602081018484840111156107e3576107e26106f4565b5b6107ee8482856107a5565b509392505050565b600082601f83011261080b5761080a6106ef565b5b813561081b8482602086016107b4565b91505092915050565b60006020828403121561083a576108396106e5565b5b600082013567ffffffffffffffff811115610858576108576106ea565b5b610864848285016107f6565b91505092915050565b7f4f6e6c7920726566657265652063616e20617070726f766520617070726f766160008201527f6c20726571756573740000000000000000000000000000000000000000000000602082015250565b60006108c960298361062b565b91506108d48261086d565b604082019050919050565b600060208201905081810360008301526108f8816108bc565b9050919050565b7f4e487b7100000000000000000000000000000000000000000000000000000000600052602260045260246000fd5b6000600282049050600182168061094657607f821691505b6020821081141561095a576109596108ff565b5b50919050565b7f4f6e6c7920726566657265652063616e2064656e7920617070726f76616c207260008201527f6571756573740000000000000000000000000000000000000000000000000000602082015250565b60006109bc60268361062b565b91506109c782610960565b604082019050919050565b600060208201905081810360008301526109eb816109af565b905091905056fea26469706673582212206a3229443fa6a62c6fef0ef6cf0dbba5efa359990d8aebd2ba3ad5e6b45380dd64736f6c634300080c003360806040526040516200119c3803806200119c83398181016040528101906200002991906200044b565b856000806101000a81548173ffffffffffffffffffffffffffffffffffffffff021916908373ffffffffffffffffffffffffffffffffffffffff16021790555084600160006101000a81548173ffffffffffffffffffffffffffffffffffffffff021916908373ffffffffffffffffffffffffffffffffffffffff1602179055508360029080519060200190620000c29291906200015e565b508260039080519060200190620000db9291906200015e565b5081600460006101000a81548173ffffffffffffffffffffffffffffffffffffffff021916908373ffffffffffffffffffffffffffffffffffffffff160217905550806005819055506000600660006101000a81548160ff021916908360028111156200014d576200014c62000525565b5b0217905550505050505050620005b9565b8280546200016c9062000583565b90600052602060002090601f016020900481019282620001905760008555620001dc565b82601f10620001ab57805160ff1916838001178555620001dc565b82800160010185558215620001dc579182015b82811115620001db578251825591602001919060010190620001be565b5b509050620001eb9190620001ef565b5090565b5b808211156200020a576000816000905550600101620001f0565b5090565b6000604051905090565b600080fd5b600080fd5b600073ffffffffffffffffffffffffffffffffffffffff82169050919050565b60006200024f8262000222565b9050919050565b620002618162000242565b81146200026d57600080fd5b50565b600081519050620002818162000256565b92915050565b600080fd5b600080fd5b6000601f19601f8301169050919050565b7f4e487b7100000000000000000000000000000000000000000000000000000000600052604160045260246000fd5b620002dc8262000291565b810181811067ffffffffffffffff82111715620002fe57620002fd620002a2565b5b80604052505050565b6000620003136200020e565b9050620003218282620002d1565b919050565b600067ffffffffffffffff821115620003445762000343620002a2565b5b6200034f8262000291565b9050602081019050919050565b60005b838110156200037c5780820151818401526020810190506200035f565b838111156200038c576000848401525b50505050565b6000620003a9620003a38462000326565b62000307565b905082815260208101848484011115620003c857620003c76200028c565b5b620003d58482856200035c565b509392505050565b600082601f830112620003f557620003f462000287565b5b81516200040784826020860162000392565b91505092915050565b6000819050919050565b620004258162000410565b81146200043157600080fd5b50565b60008151905062000445816200041a565b92915050565b60008060008060008060c087890312156200046b576200046a62000218565b5b60006200047b89828a0162000270565b96505060206200048e89828a0162000270565b955050604087015167ffffffffffffffff811115620004b257620004b16200021d565b5b620004c089828a01620003dd565b945050606087015167ffffffffffffffff811115620004e457620004e36200021d565b5b620004f289828a01620003dd565b93505060806200050589828a0162000270565b92505060a06200051889828a0162000434565b9150509295509295509295565b7f4e487b7100000000000000000000000000000000000000000000000000000000600052602160045260246000fd5b7f4e487b7100000000000000000000000000000000000000000000000000000000600052602260045260246000fd5b600060028204905060018216806200059c57607f821691505b60208210811415620005b357620005b262000554565b5b50919050565b610bd380620005c96000396000f3fe6080604052600436106100865760003560e01c80633b1bebd1116100595780633b1bebd11461012a5780634177fe51146101555780637284e41614610180578063aa8c217c146101ab578063b4fedc11146101d657610086565b806302d05d3f1461008b57806306fdde03146100b6578063200d2ed2146100e15780632d398fa61461010c575b600080fd5b34801561009757600080fd5b506100a06101f4565b6040516100ad9190610770565b60405180910390f35b3480156100c257600080fd5b506100cb610218565b6040516100d89190610824565b60405180910390f35b3480156100ed57600080fd5b506100f66102a6565b60405161010391906108bd565b60405180910390f35b6101146102b9565b6040516101219190610937565b60405180910390f35b34801561013657600080fd5b5061013f6104b0565b60405161014c9190610770565b60405180910390f35b34801561016157600080fd5b5061016a6104d6565b6040516101779190610770565b60405180910390f35b34801561018c57600080fd5b506101956104fc565b6040516101a29190610824565b60405180910390f35b3480156101b757600080fd5b506101c061058a565b6040516101cd919061096b565b60405180910390f35b6101de610590565b6040516101eb9190610937565b60405180910390f35b60008054906101000a900473ffffffffffffffffffffffffffffffffffffffff1681565b60028054610225906109b5565b80601f0160208091040260200160405190810160405280929190818152602001828054610251906109b5565b801561029e5780601f106102735761010080835404028352916020019161029e565b820191906000526020600020905b81548152906001019060200180831161028157829003601f168201915b505050505081565b600660009054906101000a900460ff1681565b60008060028111156102ce576102cd610846565b5b600660009054906101000a900460ff1660028111156102f0576102ef610846565b5b14610330576040517f08c379a000000000000000000000000000000000000000000000000000000000815260040161032790610a59565b60405180910390fd5b600160009054906101000a900473ffffffffffffffffffffffffffffffffffffffff1673ffffffffffffffffffffffffffffffffffffffff163273ffffffffffffffffffffffffffffffffffffffff1614806103d7575060008054906101000a900473ffffffffffffffffffffffffffffffffffffffff1673ffffffffffffffffffffffffffffffffffffffff163273ffffffffffffffffffffffffffffffffffffffff16145b610416576040517f08c379a000000000000000000000000000000000000000000000000000000000815260040161040d90610aeb565b60405180910390fd5b600460009054906101000a900473ffffffffffffffffffffffffffffffffffffffff1673ffffffffffffffffffffffffffffffffffffffff166108fc479081150290604051600060405180830381858888f1935050505015801561047e573d6000803e3d6000fd5b506002600660006101000a81548160ff021916908360028111156104a5576104a4610846565b5b021790555030905090565b600160009054906101000a900473ffffffffffffffffffffffffffffffffffffffff1681565b600460009054906101000a900473ffffffffffffffffffffffffffffffffffffffff1681565b60038054610509906109b5565b80601f0160208091040260200160405190810160405280929190818152602001828054610535906109b5565b80156105825780601f1061055757610100808354040283529160200191610582565b820191906000526020600020905b81548152906001019060200180831161056557829003601f168201915b505050505081565b60055481565b60008060028111156105a5576105a4610846565b5b600660009054906101000a900460ff1660028111156105c7576105c6610846565b5b14610607576040517f08c379a00000000000000000000000000000000000000000000000000000000081526004016105fe90610a59565b60405180910390fd5b600160009054906101000a900473ffffffffffffffffffffffffffffffffffffffff1673ffffffffffffffffffffffffffffffffffffffff163273ffffffffffffffffffffffffffffffffffffffff1614610697576040517f08c379a000000000000000000000000000000000000000000000000000000000815260040161068e90610b7d565b60405180910390fd5b60008054906101000a900473ffffffffffffffffffffffffffffffffffffffff1673ffffffffffffffffffffffffffffffffffffffff166108fc479081150290604051600060405180830381858888f193505050501580156106fd573d6000803e3d6000fd5b506001600660006101000a81548160ff0219169083600281111561072457610723610846565b5b021790555030905090565b600073ffffffffffffffffffffffffffffffffffffffff82169050919050565b600061075a8261072f565b9050919050565b61076a8161074f565b82525050565b60006020820190506107856000830184610761565b92915050565b600081519050919050565b600082825260208201905092915050565b60005b838110156107c55780820151818401526020810190506107aa565b838111156107d4576000848401525b50505050565b6000601f19601f8301169050919050565b60006107f68261078b565b6108008185610796565b93506108108185602086016107a7565b610819816107da565b840191505092915050565b6000602082019050818103600083015261083e81846107eb565b905092915050565b7f4e487b7100000000000000000000000000000000000000000000000000000000600052602160045260246000fd5b6003811061088657610885610846565b5b50565b600081905061089782610875565b919050565b60006108a782610889565b9050919050565b6108b78161089c565b82525050565b60006020820190506108d260008301846108ae565b92915050565b6000819050919050565b60006108fd6108f86108f38461072f565b6108d8565b61072f565b9050919050565b600061090f826108e2565b9050919050565b600061092182610904565b9050919050565b61093181610916565b82525050565b600060208201905061094c6000830184610928565b92915050565b6000819050919050565b61096581610952565b82525050565b6000602082019050610980600083018461095c565b92915050565b7f4e487b7100000000000000000000000000000000000000000000000000000000600052602260045260246000fd5b600060028204905060018216806109cd57607f821691505b602082108114156109e1576109e0610986565b5b50919050565b7f436f6e747261637420737461747573206973206e6f7420657175616c20746f2060008201527f6f70656e00000000000000000000000000000000000000000000000000000000602082015250565b6000610a43602483610796565b9150610a4e826109e7565b604082019050919050565b60006020820190508181036000830152610a7281610a36565b9050919050565b7f4f6e6c792072656665726565206f722063726561746f722063616e206661696c60008201527f20636f6e74726163740000000000000000000000000000000000000000000000602082015250565b6000610ad5602983610796565b9150610ae082610a79565b604082019050919050565b60006020820190508181036000830152610b0481610ac8565b9050919050565b7f4f6e6c7920726566657265652063616e20636f6d706c657465206120636f6e7460008201527f7261637400000000000000000000000000000000000000000000000000000000602082015250565b6000610b67602483610796565b9150610b7282610b0b565b604082019050919050565b60006020820190508181036000830152610b9681610b5a565b905091905056fea2646970667358221220028721c55c168e57539176ba96fc45384abc9896e58fd978dd5f56ec9a5426f664736f6c634300080c0033a26469706673582212204aee6b5272a713a9fad75c3c96bfc986384fdb5ea0a8e0a5e2ad47bd8436250264736f6c634300080c0033","opcodes":"PUSH1 0x80 PUSH1 0x40 MSTORE CALLVALUE DUP1 ISZERO PUSH2 0x10 JUMPI PUSH1 0x0 DUP1 REVERT JUMPDEST POP PUSH2 0x5465 DUP1 PUSH2 0x20 PUSH1 0x0 CODECOPY PUSH1 0x0 RETURN INVALID PUSH1 0x80 PUSH1 0x40 MSTORE PUSH1 0x4 CALLDATASIZE LT PUSH3 0x152 JUMPI PUSH1 0x0 CALLDATALOAD PUSH1 0xE0 SHR DUP1 PUSH4 0x64A60B47 GT PUSH3 0xBB JUMPI DUP1 PUSH4 0xB24E67D0 GT PUSH3 0x79 JUMPI DUP1 PUSH4 0xB24E67D0 EQ PUSH3 0x52D JUMPI DUP1 PUSH4 0xB3B6633E EQ PUSH3 0x571 JUMPI DUP1 PUSH4 0xD77399E5 EQ PUSH3 0x5A1 JUMPI DUP1 PUSH4 0xDC0E0C13 EQ PUSH3 0x5CF JUMPI DUP1 PUSH4 0xE10BC834 EQ PUSH3 0x5FF JUMPI DUP1 PUSH4 0xE436E826 EQ PUSH3 0x62D JUMPI PUSH3 0x152 JUMP JUMPDEST DUP1 PUSH4 0x64A60B47 EQ PUSH3 0x3ED JUMPI DUP1 PUSH4 0x75CE46A7 EQ PUSH3 0x431 JUMPI DUP1 PUSH4 0x9051E234 EQ PUSH3 0x461 JUMPI DUP1 PUSH4 0xA87430BA EQ PUSH3 0x4A5 JUMPI DUP1 PUSH4 0xA908F4FA EQ PUSH3 0x4E9 JUMPI PUSH3 0x152 JUMP JUMPDEST DUP1 PUSH4 0x442A7BC7 GT PUSH3 0x115 JUMPI DUP1 PUSH4 0x442A7BC7 EQ PUSH3 0x295 JUMPI DUP1 PUSH4 0x4841A885 EQ PUSH3 0x2D9 JUMPI DUP1 PUSH4 0x4EA34671 EQ PUSH3 0x309 JUMPI DUP1 PUSH4 0x502C9BD5 EQ PUSH3 0x34D JUMPI DUP1 PUSH4 0x5B259ABF EQ PUSH3 0x391 JUMPI DUP1 PUSH4 0x61542C44 EQ PUSH3 0x3BF JUMPI PUSH3 0x152 JUMP JUMPDEST DUP1 PUSH4 0x61DFF9A EQ PUSH3 0x157 JUMPI DUP1 PUSH4 0xE865751 EQ PUSH3 0x185 JUMPI DUP1 PUSH4 0x19EE8BD4 EQ PUSH3 0x1C9 JUMPI DUP1 PUSH4 0x38DB44BC EQ PUSH3 0x20D JUMPI DUP1 PUSH4 0x38FB42FD EQ PUSH3 0x251 JUMPI JUMPDEST PUSH1 0x0 DUP1 REVERT JUMPDEST CALLVALUE DUP1 ISZERO PUSH3 0x164 JUMPI PUSH1 0x0 DUP1 REVERT JUMPDEST POP PUSH3 0x183 PUSH1 0x4 DUP1 CALLDATASIZE SUB DUP2 ADD SWAP1 PUSH3 0x17D SWAP2 SWAP1 PUSH3 0x290D JUMP JUMPDEST PUSH3 0x64D JUMP JUMPDEST STOP JUMPDEST CALLVALUE DUP1 ISZERO PUSH3 0x192 JUMPI PUSH1 0x0 DUP1 REVERT JUMPDEST POP PUSH3 0x1B1 PUSH1 0x4 DUP1 CALLDATASIZE SUB DUP2 ADD SWAP1 PUSH3 0x1AB SWAP2 SWAP1 PUSH3 0x297A JUMP JUMPDEST PUSH3 0xAE6 JUMP JUMPDEST PUSH1 0x40 MLOAD PUSH3 0x1C0 SWAP2 SWAP1 PUSH3 0x2A8F JUMP JUMPDEST PUSH1 0x40 MLOAD DUP1 SWAP2 SUB SWAP1 RETURN JUMPDEST CALLVALUE DUP1 ISZERO PUSH3 0x1D6 JUMPI PUSH1 0x0 DUP1 REVERT JUMPDEST POP PUSH3 0x1F5 PUSH1 0x4 DUP1 CALLDATASIZE SUB DUP2 ADD SWAP1 PUSH3 0x1EF SWAP2 SWAP1 PUSH3 0x290D JUMP JUMPDEST PUSH3 0xC9A JUMP JUMPDEST PUSH1 0x40 MLOAD PUSH3 0x204 SWAP2 SWAP1 PUSH3 0x2A8F JUMP JUMPDEST PUSH1 0x40 MLOAD DUP1 SWAP2 SUB SWAP1 RETURN JUMPDEST CALLVALUE DUP1 ISZERO PUSH3 0x21A JUMPI PUSH1 0x0 DUP1 REVERT JUMPDEST POP PUSH3 0x239 PUSH1 0x4 DUP1 CALLDATASIZE SUB DUP2 ADD SWAP1 PUSH3 0x233 SWAP2 SWAP1 PUSH3 0x2AB3 JUMP JUMPDEST PUSH3 0xD6C JUMP JUMPDEST PUSH1 0x40 MLOAD PUSH3 0x248 SWAP2 SWAP1 PUSH3 0x2AF6 JUMP JUMPDEST PUSH1 0x40 MLOAD DUP1 SWAP2 SUB SWAP1 RETURN JUMPDEST CALLVALUE DUP1 ISZERO PUSH3 0x25E JUMPI PUSH1 0x0 DUP1 REVERT JUMPDEST POP PUSH3 0x27D PUSH1 0x4 DUP1 CALLDATASIZE SUB DUP2 ADD SWAP1 PUSH3 0x277 SWAP2 SWAP1 PUSH3 0x2AB3 JUMP JUMPDEST PUSH3 0xDAC JUMP JUMPDEST PUSH1 0x40 MLOAD PUSH3 0x28C SWAP2 SWAP1 PUSH3 0x2AF6 JUMP JUMPDEST PUSH1 0x40 MLOAD DUP1 SWAP2 SUB SWAP1 RETURN JUMPDEST CALLVALUE DUP1 ISZERO PUSH3 0x2A2 JUMPI PUSH1 0x0 DUP1 REVERT JUMPDEST POP PUSH3 0x2C1 PUSH1 0x4 DUP1 CALLDATASIZE SUB DUP2 ADD SWAP1 PUSH3 0x2BB SWAP2 SWAP1 PUSH3 0x290D JUMP JUMPDEST PUSH3 0xDEC JUMP JUMPDEST PUSH1 0x40 MLOAD PUSH3 0x2D0 SWAP2 SWAP1 PUSH3 0x2A8F JUMP JUMPDEST PUSH1 0x40 MLOAD DUP1 SWAP2 SUB SWAP1 RETURN JUMPDEST CALLVALUE DUP1 ISZERO PUSH3 0x2E6 JUMPI PUSH1 0x0 DUP1 REVERT JUMPDEST POP PUSH3 0x2F1 PUSH3 0xEBD JUMP JUMPDEST PUSH1 0x40 MLOAD PUSH3 0x300 SWAP2 SWAP1 PUSH3 0x2B24 JUMP JUMPDEST PUSH1 0x40 MLOAD DUP1 SWAP2 SUB SWAP1 RETURN JUMPDEST CALLVALUE DUP1 ISZERO PUSH3 0x316 JUMPI PUSH1 0x0 DUP1 REVERT JUMPDEST POP PUSH3 0x335 PUSH1 0x4 DUP1 CALLDATASIZE SUB DUP2 ADD SWAP1 PUSH3 0x32F SWAP2 SWAP1 PUSH3 0x290D JUMP JUMPDEST PUSH3 0xEC3 JUMP JUMPDEST PUSH1 0x40 MLOAD PUSH3 0x344 SWAP2 SWAP1 PUSH3 0x2A8F JUMP JUMPDEST PUSH1 0x40 MLOAD DUP1 SWAP2 SUB SWAP1 RETURN JUMPDEST CALLVALUE DUP1 ISZERO PUSH3 0x35A JUMPI PUSH1 0x0 DUP1 REVERT JUMPDEST POP PUSH3 0x379 PUSH1 0x4 DUP1 CALLDATASIZE SUB DUP2 ADD SWAP1 PUSH3 0x373 SWAP2 SWAP1 PUSH3 0x2AB3 JUMP JUMPDEST PUSH3 0xF95 JUMP JUMPDEST PUSH1 0x40 MLOAD PUSH3 0x388 SWAP2 SWAP1 PUSH3 0x2AF6 JUMP JUMPDEST PUSH1 0x40 MLOAD DUP1 SWAP2 SUB SWAP1 RETURN JUMPDEST CALLVALUE DUP1 ISZERO PUSH3 0x39E JUMPI PUSH1 0x0 DUP1 REVERT JUMPDEST POP PUSH3 0x3BD PUSH1 0x4 DUP1 CALLDATASIZE SUB DUP2 ADD SWAP1 PUSH3 0x3B7 SWAP2 SWAP1 PUSH3 0x290D JUMP JUMPDEST PUSH3 0xFD5 JUMP JUMPDEST STOP JUMPDEST CALLVALUE DUP1 ISZERO PUSH3 0x3CC JUMPI PUSH1 0x0 DUP1 REVERT JUMPDEST POP PUSH3 0x3EB PUSH1 0x4 DUP1 CALLDATASIZE SUB DUP2 ADD SWAP1 PUSH3 0x3E5 SWAP2 SWAP1 PUSH3 0x290D JUMP JUMPDEST PUSH3 0x114D JUMP JUMPDEST STOP JUMPDEST CALLVALUE DUP1 ISZERO PUSH3 0x3FA JUMPI PUSH1 0x0 DUP1 REVERT JUMPDEST POP PUSH3 0x419 PUSH1 0x4 DUP1 CALLDATASIZE SUB DUP2 ADD SWAP1 PUSH3 0x413 SWAP2 SWAP1 PUSH3 0x290D JUMP JUMPDEST PUSH3 0x12C5 JUMP JUMPDEST PUSH1 0x40 MLOAD PUSH3 0x428 SWAP2 SWAP1 PUSH3 0x2B24 JUMP JUMPDEST PUSH1 0x40 MLOAD DUP1 SWAP2 SUB SWAP1 RETURN JUMPDEST CALLVALUE DUP1 ISZERO PUSH3 0x43E JUMPI PUSH1 0x0 DUP1 REVERT JUMPDEST POP PUSH3 0x449 PUSH3 0x12E3 JUMP JUMPDEST PUSH1 0x40 MLOAD PUSH3 0x458 SWAP2 SWAP1 PUSH3 0x2B24 JUMP JUMPDEST PUSH1 0x40 MLOAD DUP1 SWAP2 SUB SWAP1 RETURN JUMPDEST CALLVALUE DUP1 ISZERO PUSH3 0x46E JUMPI PUSH1 0x0 DUP1 REVERT JUMPDEST POP PUSH3 0x48D PUSH1 0x4 DUP1 CALLDATASIZE SUB DUP2 ADD SWAP1 PUSH3 0x487 SWAP2 SWAP1 PUSH3 0x290D JUMP JUMPDEST PUSH3 0x12E9 JUMP JUMPDEST PUSH1 0x40 MLOAD PUSH3 0x49C SWAP2 SWAP1 PUSH3 0x2A8F JUMP JUMPDEST PUSH1 0x40 MLOAD DUP1 SWAP2 SUB SWAP1 RETURN JUMPDEST CALLVALUE DUP1 ISZERO PUSH3 0x4B2 JUMPI PUSH1 0x0 DUP1 REVERT JUMPDEST POP PUSH3 0x4D1 PUSH1 0x4 DUP1 CALLDATASIZE SUB DUP2 ADD SWAP1 PUSH3 0x4CB SWAP2 SWAP1 PUSH3 0x290D JUMP JUMPDEST PUSH3 0x13BB JUMP JUMPDEST PUSH1 0x40 MLOAD PUSH3 0x4E0 SWAP2 SWAP1 PUSH3 0x2B24 JUMP JUMPDEST PUSH1 0x40 MLOAD DUP1 SWAP2 SUB SWAP1 RETURN JUMPDEST CALLVALUE DUP1 ISZERO PUSH3 0x4F6 JUMPI PUSH1 0x0 DUP1 REVERT JUMPDEST POP PUSH3 0x515 PUSH1 0x4 DUP1 CALLDATASIZE SUB DUP2 ADD SWAP1 PUSH3 0x50F SWAP2 SWAP1 PUSH3 0x297A JUMP JUMPDEST PUSH3 0x13D9 JUMP JUMPDEST PUSH1 0x40 MLOAD PUSH3 0x524 SWAP2 SWAP1 PUSH3 0x2A8F JUMP JUMPDEST PUSH1 0x40 MLOAD DUP1 SWAP2 SUB SWAP1 RETURN JUMPDEST CALLVALUE DUP1 ISZERO PUSH3 0x53A JUMPI PUSH1 0x0 DUP1 REVERT JUMPDEST POP PUSH3 0x559 PUSH1 0x4 DUP1 CALLDATASIZE SUB DUP2 ADD SWAP1 PUSH3 0x553 SWAP2 SWAP1 PUSH3 0x290D JUMP JUMPDEST PUSH3 0x158D JUMP JUMPDEST PUSH1 0x40 MLOAD PUSH3 0x568 SWAP2 SWAP1 PUSH3 0x2A8F JUMP JUMPDEST PUSH1 0x40 MLOAD DUP1 SWAP2 SUB SWAP1 RETURN JUMPDEST CALLVALUE DUP1 ISZERO PUSH3 0x57E JUMPI PUSH1 0x0 DUP1 REVERT JUMPDEST POP PUSH3 0x589 PUSH3 0x165E JUMP JUMPDEST PUSH1 0x40 MLOAD PUSH3 0x598 SWAP2 SWAP1 PUSH3 0x2B24 JUMP JUMPDEST PUSH1 0x40 MLOAD DUP1 SWAP2 SUB SWAP1 RETURN JUMPDEST CALLVALUE DUP1 ISZERO PUSH3 0x5AE JUMPI PUSH1 0x0 DUP1 REVERT JUMPDEST POP PUSH3 0x5CD PUSH1 0x4 DUP1 CALLDATASIZE SUB DUP2 ADD SWAP1 PUSH3 0x5C7 SWAP2 SWAP1 PUSH3 0x2CA3 JUMP JUMPDEST PUSH3 0x1664 JUMP JUMPDEST STOP JUMPDEST CALLVALUE DUP1 ISZERO PUSH3 0x5DC JUMPI PUSH1 0x0 DUP1 REVERT JUMPDEST POP PUSH3 0x5E7 PUSH3 0x16F0 JUMP JUMPDEST PUSH1 0x40 MLOAD PUSH3 0x5F6 SWAP2 SWAP1 PUSH3 0x2B24 JUMP JUMPDEST PUSH1 0x40 MLOAD DUP1 SWAP2 SUB SWAP1 RETURN JUMPDEST CALLVALUE DUP1 ISZERO PUSH3 0x60C JUMPI PUSH1 0x0 DUP1 REVERT JUMPDEST POP PUSH3 0x62B PUSH1 0x4 DUP1 CALLDATASIZE SUB DUP2 ADD SWAP1 PUSH3 0x625 SWAP2 SWAP1 PUSH3 0x290D JUMP JUMPDEST PUSH3 0x16F6 JUMP JUMPDEST STOP JUMPDEST PUSH3 0x64B PUSH1 0x4 DUP1 CALLDATASIZE SUB DUP2 ADD SWAP1 PUSH3 0x645 SWAP2 SWAP1 PUSH3 0x2D4E JUMP JUMPDEST PUSH3 0x1A14 JUMP JUMPDEST STOP JUMPDEST PUSH1 0x0 DUP2 SWAP1 POP PUSH1 0x0 DUP2 PUSH20 0xFFFFFFFFFFFFFFFFFFFFFFFFFFFFFFFFFFFFFFFF AND PUSH4 0x3C490174 PUSH1 0x40 MLOAD DUP2 PUSH4 0xFFFFFFFF AND PUSH1 0xE0 SHL DUP2 MSTORE PUSH1 0x4 ADD PUSH1 0x20 PUSH1 0x40 MLOAD DUP1 DUP4 SUB DUP2 DUP7 GAS STATICCALL ISZERO DUP1 ISZERO PUSH3 0x6A0 JUMPI RETURNDATASIZE PUSH1 0x0 DUP1 RETURNDATACOPY RETURNDATASIZE PUSH1 0x0 REVERT JUMPDEST POP POP POP POP PUSH1 0x40 MLOAD RETURNDATASIZE PUSH1 0x1F NOT PUSH1 0x1F DUP3 ADD AND DUP3 ADD DUP1 PUSH1 0x40 MSTORE POP DUP2 ADD SWAP1 PUSH3 0x6C6 SWAP2 SWAP1 PUSH3 0x2E15 JUMP JUMPDEST SWAP1 POP DUP2 PUSH20 0xFFFFFFFFFFFFFFFFFFFFFFFFFFFFFFFFFFFFFFFF AND PUSH4 0x3B1BEBD1 PUSH1 0x40 MLOAD DUP2 PUSH4 0xFFFFFFFF AND PUSH1 0xE0 SHL DUP2 MSTORE PUSH1 0x4 ADD PUSH1 0x20 PUSH1 0x40 MLOAD DUP1 DUP4 SUB DUP2 DUP7 GAS STATICCALL ISZERO DUP1 ISZERO PUSH3 0x714 JUMPI RETURNDATASIZE PUSH1 0x0 DUP1 RETURNDATACOPY RETURNDATASIZE PUSH1 0x0 REVERT JUMPDEST POP POP POP POP PUSH1 0x40 MLOAD RETURNDATASIZE PUSH1 0x1F NOT PUSH1 0x1F DUP3 ADD AND DUP3 ADD DUP1 PUSH1 0x40 MSTORE POP DUP2 ADD SWAP1 PUSH3 0x73A SWAP2 SWAP1 PUSH3 0x2E15 JUMP JUMPDEST PUSH20 0xFFFFFFFFFFFFFFFFFFFFFFFFFFFFFFFFFFFFFFFF AND DUP2 PUSH20 0xFFFFFFFFFFFFFFFFFFFFFFFFFFFFFFFFFFFFFFFF AND PUSH4 0x3B1BEBD1 PUSH1 0x40 MLOAD DUP2 PUSH4 0xFFFFFFFF AND PUSH1 0xE0 SHL DUP2 MSTORE PUSH1 0x4 ADD PUSH1 0x20 PUSH1 0x40 MLOAD DUP1 DUP4 SUB DUP2 DUP7 GAS STATICCALL ISZERO DUP1 ISZERO PUSH3 0x79C JUMPI RETURNDATASIZE PUSH1 0x0 DUP1 RETURNDATACOPY RETURNDATASIZE PUSH1 0x0 REVERT JUMPDEST POP POP POP POP PUSH1 0x40 MLOAD RETURNDATASIZE PUSH1 0x1F NOT PUSH1 0x1F DUP3 ADD AND DUP3 ADD DUP1 PUSH1 0x40 MSTORE POP DUP2 ADD SWAP1 PUSH3 0x7C2 SWAP2 SWAP1 PUSH3 0x2E15 JUMP JUMPDEST PUSH20 0xFFFFFFFFFFFFFFFFFFFFFFFFFFFFFFFFFFFFFFFF AND EQ PUSH3 0x81B JUMPI PUSH1 0x40 MLOAD PUSH32 0x8C379A000000000000000000000000000000000000000000000000000000000 DUP2 MSTORE PUSH1 0x4 ADD PUSH3 0x812 SWAP1 PUSH3 0x2ECE JUMP JUMPDEST PUSH1 0x40 MLOAD DUP1 SWAP2 SUB SWAP1 REVERT JUMPDEST DUP2 PUSH20 0xFFFFFFFFFFFFFFFFFFFFFFFFFFFFFFFFFFFFFFFF AND PUSH4 0x263B81C9 PUSH1 0x40 MLOAD DUP2 PUSH4 0xFFFFFFFF AND PUSH1 0xE0 SHL DUP2 MSTORE PUSH1 0x4 ADD PUSH1 0x20 PUSH1 0x40 MLOAD DUP1 DUP4 SUB DUP2 PUSH1 0x0 DUP8 GAS CALL ISZERO DUP1 ISZERO PUSH3 0x869 JUMPI RETURNDATASIZE PUSH1 0x0 DUP1 RETURNDATACOPY RETURNDATASIZE PUSH1 0x0 REVERT JUMPDEST POP POP POP POP PUSH1 0x40 MLOAD RETURNDATASIZE PUSH1 0x1F NOT PUSH1 0x1F DUP3 ADD AND DUP3 ADD DUP1 PUSH1 0x40 MSTORE POP DUP2 ADD SWAP1 PUSH3 0x88F SWAP2 SWAP1 PUSH3 0x2F35 JUMP JUMPDEST POP DUP1 PUSH20 0xFFFFFFFFFFFFFFFFFFFFFFFFFFFFFFFFFFFFFFFF AND PUSH4 0xB4FEDC11 PUSH1 0x40 MLOAD DUP2 PUSH4 0xFFFFFFFF AND PUSH1 0xE0 SHL DUP2 MSTORE PUSH1 0x4 ADD PUSH1 0x20 PUSH1 0x40 MLOAD DUP1 DUP4 SUB DUP2 PUSH1 0x0 DUP8 GAS CALL ISZERO DUP1 ISZERO PUSH3 0x8DE JUMPI RETURNDATASIZE PUSH1 0x0 DUP1 RETURNDATACOPY RETURNDATASIZE PUSH1 0x0 REVERT JUMPDEST POP POP POP POP PUSH1 0x40 MLOAD RETURNDATASIZE PUSH1 0x1F NOT PUSH1 0x1F DUP3 ADD AND DUP3 ADD DUP1 PUSH1 0x40 MSTORE POP DUP2 ADD SWAP1 PUSH3 0x904 SWAP2 SWAP1 PUSH3 0x2FAC JUMP JUMPDEST POP PUSH3 0x9F3 DUP2 PUSH20 0xFFFFFFFFFFFFFFFFFFFFFFFFFFFFFFFFFFFFFFFF AND PUSH4 0x2D05D3F PUSH1 0x40 MLOAD DUP2 PUSH4 0xFFFFFFFF AND PUSH1 0xE0 SHL DUP2 MSTORE PUSH1 0x4 ADD PUSH1 0x20 PUSH1 0x40 MLOAD DUP1 DUP4 SUB DUP2 DUP7 GAS STATICCALL ISZERO DUP1 ISZERO PUSH3 0x955 JUMPI RETURNDATASIZE PUSH1 0x0 DUP1 RETURNDATACOPY RETURNDATASIZE PUSH1 0x0 REVERT JUMPDEST POP POP POP POP PUSH1 0x40 MLOAD RETURNDATASIZE PUSH1 0x1F NOT PUSH1 0x1F DUP3 ADD AND DUP3 ADD DUP1 PUSH1 0x40 MSTORE POP DUP2 ADD SWAP1 PUSH3 0x97B SWAP2 SWAP1 PUSH3 0x2E15 JUMP JUMPDEST DUP4 PUSH20 0xFFFFFFFFFFFFFFFFFFFFFFFFFFFFFFFFFFFFFFFF AND PUSH4 0x3C490174 PUSH1 0x40 MLOAD DUP2 PUSH4 0xFFFFFFFF AND PUSH1 0xE0 SHL DUP2 MSTORE PUSH1 0x4 ADD PUSH1 0x20 PUSH1 0x40 MLOAD DUP1 DUP4 SUB DUP2 DUP7 GAS STATICCALL ISZERO DUP1 ISZERO PUSH3 0x9C7 JUMPI RETURNDATASIZE PUSH1 0x0 DUP1 RETURNDATACOPY RETURNDATASIZE PUSH1 0x0 REVERT JUMPDEST POP POP POP POP PUSH1 0x40 MLOAD RETURNDATASIZE PUSH1 0x1F NOT PUSH1 0x1F DUP3 ADD AND DUP3 ADD DUP1 PUSH1 0x40 MSTORE POP DUP2 ADD SWAP1 PUSH3 0x9ED SWAP2 SWAP1 PUSH3 0x2E15 JUMP JUMPDEST PUSH3 0x1E87 JUMP JUMPDEST PUSH3 0xAE1 DUP2 PUSH20 0xFFFFFFFFFFFFFFFFFFFFFFFFFFFFFFFFFFFFFFFF AND PUSH4 0x3B1BEBD1 PUSH1 0x40 MLOAD DUP2 PUSH4 0xFFFFFFFF AND PUSH1 0xE0 SHL DUP2 MSTORE PUSH1 0x4 ADD PUSH1 0x20 PUSH1 0x40 MLOAD DUP1 DUP4 SUB DUP2 DUP7 GAS STATICCALL ISZERO DUP1 ISZERO PUSH3 0xA43 JUMPI RETURNDATASIZE PUSH1 0x0 DUP1 RETURNDATACOPY RETURNDATASIZE PUSH1 0x0 REVERT JUMPDEST POP POP POP POP PUSH1 0x40 MLOAD RETURNDATASIZE PUSH1 0x1F NOT PUSH1 0x1F DUP3 ADD AND DUP3 ADD DUP1 PUSH1 0x40 MSTORE POP DUP2 ADD SWAP1 PUSH3 0xA69 SWAP2 SWAP1 PUSH3 0x2E15 JUMP JUMPDEST DUP4 PUSH20 0xFFFFFFFFFFFFFFFFFFFFFFFFFFFFFFFFFFFFFFFF AND PUSH4 0x3C490174 PUSH1 0x40 MLOAD DUP2 PUSH4 0xFFFFFFFF AND PUSH1 0xE0 SHL DUP2 MSTORE PUSH1 0x4 ADD PUSH1 0x20 PUSH1 0x40 MLOAD DUP1 DUP4 SUB DUP2 DUP7 GAS STATICCALL ISZERO DUP1 ISZERO PUSH3 0xAB5 JUMPI RETURNDATASIZE PUSH1 0x0 DUP1 RETURNDATACOPY RETURNDATASIZE PUSH1 0x0 REVERT JUMPDEST POP POP POP POP PUSH1 0x40 MLOAD RETURNDATASIZE PUSH1 0x1F NOT PUSH1 0x1F DUP3 ADD AND DUP3 ADD DUP1 PUSH1 0x40 MSTORE POP DUP2 ADD SWAP1 PUSH3 0xADB SWAP2 SWAP1 PUSH3 0x2E15 JUMP JUMPDEST PUSH3 0x2244 JUMP JUMPDEST POP POP POP JUMP JUMPDEST PUSH1 0x60 PUSH1 0x0 DUP4 LT ISZERO PUSH3 0xB2F JUMPI PUSH1 0x40 MLOAD PUSH32 0x8C379A000000000000000000000000000000000000000000000000000000000 DUP2 MSTORE PUSH1 0x4 ADD PUSH3 0xB26 SWAP1 PUSH3 0x302E JUMP JUMPDEST PUSH1 0x40 MLOAD DUP1 SWAP2 SUB SWAP1 REVERT JUMPDEST PUSH1 0x3 DUP1 SLOAD SWAP1 POP DUP3 GT ISZERO PUSH3 0xB7A JUMPI PUSH1 0x40 MLOAD PUSH32 0x8C379A000000000000000000000000000000000000000000000000000000000 DUP2 MSTORE PUSH1 0x4 ADD PUSH3 0xB71 SWAP1 PUSH3 0x30C6 JUMP JUMPDEST PUSH1 0x40 MLOAD DUP1 SWAP2 SUB SWAP1 REVERT JUMPDEST PUSH1 0x0 DUP4 DUP4 PUSH3 0xB8A SWAP2 SWAP1 PUSH3 0x3117 JUMP JUMPDEST PUSH8 0xFFFFFFFFFFFFFFFF DUP2 GT ISZERO PUSH3 0xBA6 JUMPI PUSH3 0xBA5 PUSH3 0x2B5C JUMP JUMPDEST JUMPDEST PUSH1 0x40 MLOAD SWAP1 DUP1 DUP3 MSTORE DUP1 PUSH1 0x20 MUL PUSH1 0x20 ADD DUP3 ADD PUSH1 0x40 MSTORE DUP1 ISZERO PUSH3 0xBD5 JUMPI DUP2 PUSH1 0x20 ADD PUSH1 0x20 DUP3 MUL DUP1 CALLDATASIZE DUP4 CALLDATACOPY DUP1 DUP3 ADD SWAP2 POP POP SWAP1 POP JUMPDEST POP SWAP1 POP PUSH1 0x0 DUP5 SWAP1 POP JUMPDEST DUP4 DUP2 LT ISZERO PUSH3 0xC8F JUMPI PUSH1 0x3 DUP2 DUP2 SLOAD DUP2 LT PUSH3 0xBFE JUMPI PUSH3 0xBFD PUSH3 0x3152 JUMP JUMPDEST JUMPDEST SWAP1 PUSH1 0x0 MSTORE PUSH1 0x20 PUSH1 0x0 KECCAK256 ADD PUSH1 0x0 SWAP1 SLOAD SWAP1 PUSH2 0x100 EXP SWAP1 DIV PUSH20 0xFFFFFFFFFFFFFFFFFFFFFFFFFFFFFFFFFFFFFFFF AND DUP3 DUP3 DUP2 MLOAD DUP2 LT PUSH3 0xC3F JUMPI PUSH3 0xC3E PUSH3 0x3152 JUMP JUMPDEST JUMPDEST PUSH1 0x20 MUL PUSH1 0x20 ADD ADD SWAP1 PUSH20 0xFFFFFFFFFFFFFFFFFFFFFFFFFFFFFFFFFFFFFFFF AND SWAP1 DUP2 PUSH20 0xFFFFFFFFFFFFFFFFFFFFFFFFFFFFFFFFFFFFFFFF AND DUP2 MSTORE POP POP DUP1 DUP1 PUSH3 0xC86 SWAP1 PUSH3 0x3181 JUMP JUMPDEST SWAP2 POP POP PUSH3 0xBDE JUMP JUMPDEST POP DUP1 SWAP2 POP POP SWAP3 SWAP2 POP POP JUMP JUMPDEST PUSH1 0x60 PUSH1 0x6 PUSH1 0x0 DUP4 PUSH20 0xFFFFFFFFFFFFFFFFFFFFFFFFFFFFFFFFFFFFFFFF AND PUSH20 0xFFFFFFFFFFFFFFFFFFFFFFFFFFFFFFFFFFFFFFFF AND DUP2 MSTORE PUSH1 0x20 ADD SWAP1 DUP2 MSTORE PUSH1 0x20 ADD PUSH1 0x0 KECCAK256 PUSH1 0x2 ADD DUP1 SLOAD DUP1 PUSH1 0x20 MUL PUSH1 0x20 ADD PUSH1 0x40 MLOAD SWAP1 DUP2 ADD PUSH1 0x40 MSTORE DUP1 SWAP3 SWAP2 SWAP1 DUP2 DUP2 MSTORE PUSH1 0x20 ADD DUP3 DUP1 SLOAD DUP1 ISZERO PUSH3 0xD60 JUMPI PUSH1 0x20 MUL DUP3 ADD SWAP2 SWAP1 PUSH1 0x0 MSTORE PUSH1 0x20 PUSH1 0x0 KECCAK256 SWAP1 JUMPDEST DUP2 PUSH1 0x0 SWAP1 SLOAD SWAP1 PUSH2 0x100 EXP SWAP1 DIV PUSH20 0xFFFFFFFFFFFFFFFFFFFFFFFFFFFFFFFFFFFFFFFF AND PUSH20 0xFFFFFFFFFFFFFFFFFFFFFFFFFFFFFFFFFFFFFFFF AND DUP2 MSTORE PUSH1 0x20 ADD SWAP1 PUSH1 0x1 ADD SWAP1 DUP1 DUP4 GT PUSH3 0xD15 JUMPI JUMPDEST POP POP POP POP POP SWAP1 POP SWAP2 SWAP1 POP JUMP JUMPDEST PUSH1 0x3 DUP2 DUP2 SLOAD DUP2 LT PUSH3 0xD7D JUMPI PUSH1 0x0 DUP1 REVERT JUMPDEST SWAP1 PUSH1 0x0 MSTORE PUSH1 0x20 PUSH1 0x0 KECCAK256 ADD PUSH1 0x0 SWAP2 POP SLOAD SWAP1 PUSH2 0x100 EXP SWAP1 DIV PUSH20 0xFFFFFFFFFFFFFFFFFFFFFFFFFFFFFFFFFFFFFFFF AND DUP2 JUMP JUMPDEST PUSH1 0x8 DUP2 DUP2 SLOAD DUP2 LT PUSH3 0xDBD JUMPI PUSH1 0x0 DUP1 REVERT JUMPDEST SWAP1 PUSH1 0x0 MSTORE PUSH1 0x20 PUSH1 0x0 KECCAK256 ADD PUSH1 0x0 SWAP2 POP SLOAD SWAP1 PUSH2 0x100 EXP SWAP1 DIV PUSH20 0xFFFFFFFFFFFFFFFFFFFFFFFFFFFFFFFFFFFFFFFF AND DUP2 JUMP JUMPDEST PUSH1 0x60 PUSH1 0x0 DUP1 DUP4 PUSH20 0xFFFFFFFFFFFFFFFFFFFFFFFFFFFFFFFFFFFFFFFF AND PUSH20 0xFFFFFFFFFFFFFFFFFFFFFFFFFFFFFFFFFFFFFFFF AND DUP2 MSTORE PUSH1 0x20 ADD SWAP1 DUP2 MSTORE PUSH1 0x20 ADD PUSH1 0x0 KECCAK256 PUSH1 0x1 ADD DUP1 SLOAD DUP1 PUSH1 0x20 MUL PUSH1 0x20 ADD PUSH1 0x40 MLOAD SWAP1 DUP2 ADD PUSH1 0x40 MSTORE DUP1 SWAP3 SWAP2 SWAP1 DUP2 DUP2 MSTORE PUSH1 0x20 ADD DUP3 DUP1 SLOAD DUP1 ISZERO PUSH3 0xEB1 JUMPI PUSH1 0x20 MUL DUP3 ADD SWAP2 SWAP1 PUSH1 0x0 MSTORE PUSH1 0x20 PUSH1 0x0 KECCAK256 SWAP1 JUMPDEST DUP2 PUSH1 0x0 SWAP1 SLOAD SWAP1 PUSH2 0x100 EXP SWAP1 DIV PUSH20 0xFFFFFFFFFFFFFFFFFFFFFFFFFFFFFFFFFFFFFFFF AND PUSH20 0xFFFFFFFFFFFFFFFFFFFFFFFFFFFFFFFFFFFFFFFF AND DUP2 MSTORE PUSH1 0x20 ADD SWAP1 PUSH1 0x1 ADD SWAP1 DUP1 DUP4 GT PUSH3 0xE66 JUMPI JUMPDEST POP POP POP POP POP SWAP1 POP SWAP2 SWAP1 POP JUMP JUMPDEST PUSH1 0x4 SLOAD DUP2 JUMP JUMPDEST PUSH1 0x60 PUSH1 0x6 PUSH1 0x0 DUP4 PUSH20 0xFFFFFFFFFFFFFFFFFFFFFFFFFFFFFFFFFFFFFFFF AND PUSH20 0xFFFFFFFFFFFFFFFFFFFFFFFFFFFFFFFFFFFFFFFF AND DUP2 MSTORE PUSH1 0x20 ADD SWAP1 DUP2 MSTORE PUSH1 0x20 ADD PUSH1 0x0 KECCAK256 PUSH1 0x3 ADD DUP1 SLOAD DUP1 PUSH1 0x20 MUL PUSH1 0x20 ADD PUSH1 0x40 MLOAD SWAP1 DUP2 ADD PUSH1 0x40 MSTORE DUP1 SWAP3 SWAP2 SWAP1 DUP2 DUP2 MSTORE PUSH1 0x20 ADD DUP3 DUP1 SLOAD DUP1 ISZERO PUSH3 0xF89 JUMPI PUSH1 0x20 MUL DUP3 ADD SWAP2 SWAP1 PUSH1 0x0 MSTORE PUSH1 0x20 PUSH1 0x0 KECCAK256 SWAP1 JUMPDEST DUP2 PUSH1 0x0 SWAP1 SLOAD SWAP1 PUSH2 0x100 EXP SWAP1 DIV PUSH20 0xFFFFFFFFFFFFFFFFFFFFFFFFFFFFFFFFFFFFFFFF AND PUSH20 0xFFFFFFFFFFFFFFFFFFFFFFFFFFFFFFFFFFFFFFFF AND DUP2 MSTORE PUSH1 0x20 ADD SWAP1 PUSH1 0x1 ADD SWAP1 DUP1 DUP4 GT PUSH3 0xF3E JUMPI JUMPDEST POP POP POP POP POP SWAP1 POP SWAP2 SWAP1 POP JUMP JUMPDEST PUSH1 0x1 DUP2 DUP2 SLOAD DUP2 LT PUSH3 0xFA6 JUMPI PUSH1 0x0 DUP1 REVERT JUMPDEST SWAP1 PUSH1 0x0 MSTORE PUSH1 0x20 PUSH1 0x0 KECCAK256 ADD PUSH1 0x0 SWAP2 POP SLOAD SWAP1 PUSH2 0x100 EXP SWAP1 DIV PUSH20 0xFFFFFFFFFFFFFFFFFFFFFFFFFFFFFFFFFFFFFFFF AND DUP2 JUMP JUMPDEST PUSH1 0x0 DUP2 SWAP1 POP DUP1 PUSH20 0xFFFFFFFFFFFFFFFFFFFFFFFFFFFFFFFFFFFFFFFF AND PUSH4 0x2D398FA6 PUSH1 0x40 MLOAD DUP2 PUSH4 0xFFFFFFFF AND PUSH1 0xE0 SHL DUP2 MSTORE PUSH1 0x4 ADD PUSH1 0x20 PUSH1 0x40 MLOAD DUP1 DUP4 SUB DUP2 PUSH1 0x0 DUP8 GAS CALL ISZERO DUP1 ISZERO PUSH3 0x1028 JUMPI RETURNDATASIZE PUSH1 0x0 DUP1 RETURNDATACOPY RETURNDATASIZE PUSH1 0x0 REVERT JUMPDEST POP POP POP POP PUSH1 0x40 MLOAD RETURNDATASIZE PUSH1 0x1F NOT PUSH1 0x1F DUP3 ADD AND DUP3 ADD DUP1 PUSH1 0x40 MSTORE POP DUP2 ADD SWAP1 PUSH3 0x104E SWAP2 SWAP1 PUSH3 0x2FAC JUMP JUMPDEST POP PUSH3 0x10CC DUP2 PUSH20 0xFFFFFFFFFFFFFFFFFFFFFFFFFFFFFFFFFFFFFFFF AND PUSH4 0x2D05D3F PUSH1 0x40 MLOAD DUP2 PUSH4 0xFFFFFFFF AND PUSH1 0xE0 SHL DUP2 MSTORE PUSH1 0x4 ADD PUSH1 0x20 PUSH1 0x40 MLOAD DUP1 DUP4 SUB DUP2 DUP7 GAS STATICCALL ISZERO DUP1 ISZERO PUSH3 0x109F JUMPI RETURNDATASIZE PUSH1 0x0 DUP1 RETURNDATACOPY RETURNDATASIZE PUSH1 0x0 REVERT JUMPDEST POP POP POP POP PUSH1 0x40 MLOAD RETURNDATASIZE PUSH1 0x1F NOT PUSH1 0x1F DUP3 ADD AND DUP3 ADD DUP1 PUSH1 0x40 MSTORE POP DUP2 ADD SWAP1 PUSH3 0x10C5 SWAP2 SWAP1 PUSH3 0x2E15 JUMP JUMPDEST DUP4 PUSH3 0x1E87 JUMP JUMPDEST PUSH3 0x1149 DUP2 PUSH20 0xFFFFFFFFFFFFFFFFFFFFFFFFFFFFFFFFFFFFFFFF AND PUSH4 0x3B1BEBD1 PUSH1 0x40 MLOAD DUP2 PUSH4 0xFFFFFFFF AND PUSH1 0xE0 SHL DUP2 MSTORE PUSH1 0x4 ADD PUSH1 0x20 PUSH1 0x40 MLOAD DUP1 DUP4 SUB DUP2 DUP7 GAS STATICCALL ISZERO DUP1 ISZERO PUSH3 0x111C JUMPI RETURNDATASIZE PUSH1 0x0 DUP1 RETURNDATACOPY RETURNDATASIZE PUSH1 0x0 REVERT JUMPDEST POP POP POP POP PUSH1 0x40 MLOAD RETURNDATASIZE PUSH1 0x1F NOT PUSH1 0x1F DUP3 ADD AND DUP3 ADD DUP1 PUSH1 0x40 MSTORE POP DUP2 ADD SWAP1 PUSH3 0x1142 SWAP2 SWAP1 PUSH3 0x2E15 JUMP JUMPDEST DUP4 PUSH3 0x2244 JUMP JUMPDEST POP POP JUMP JUMPDEST PUSH1 0x0 DUP2 SWAP1 POP DUP1 PUSH20 0xFFFFFFFFFFFFFFFFFFFFFFFFFFFFFFFFFFFFFFFF AND PUSH4 0xB4FEDC11 PUSH1 0x40 MLOAD DUP2 PUSH4 0xFFFFFFFF AND PUSH1 0xE0 SHL DUP2 MSTORE PUSH1 0x4 ADD PUSH1 0x20 PUSH1 0x40 MLOAD DUP1 DUP4 SUB DUP2 PUSH1 0x0 DUP8 GAS CALL ISZERO DUP1 ISZERO PUSH3 0x11A0 JUMPI RETURNDATASIZE PUSH1 0x0 DUP1 RETURNDATACOPY RETURNDATASIZE PUSH1 0x0 REVERT JUMPDEST POP POP POP POP PUSH1 0x40 MLOAD RETURNDATASIZE PUSH1 0x1F NOT PUSH1 0x1F DUP3 ADD AND DUP3 ADD DUP1 PUSH1 0x40 MSTORE POP DUP2 ADD SWAP1 PUSH3 0x11C6 SWAP2 SWAP1 PUSH3 0x2FAC JUMP JUMPDEST POP PUSH3 0x1244 DUP2 PUSH20 0xFFFFFFFFFFFFFFFFFFFFFFFFFFFFFFFFFFFFFFFF AND PUSH4 0x2D05D3F PUSH1 0x40 MLOAD DUP2 PUSH4 0xFFFFFFFF AND PUSH1 0xE0 SHL DUP2 MSTORE PUSH1 0x4 ADD PUSH1 0x20 PUSH1 0x40 MLOAD DUP1 DUP4 SUB DUP2 DUP7 GAS STATICCALL ISZERO DUP1 ISZERO PUSH3 0x1217 JUMPI RETURNDATASIZE PUSH1 0x0 DUP1 RETURNDATACOPY RETURNDATASIZE PUSH1 0x0 REVERT JUMPDEST POP POP POP POP PUSH1 0x40 MLOAD RETURNDATASIZE PUSH1 0x1F NOT PUSH1 0x1F DUP3 ADD AND DUP3 ADD DUP1 PUSH1 0x40 MSTORE POP DUP2 ADD SWAP1 PUSH3 0x123D SWAP2 SWAP1 PUSH3 0x2E15 JUMP JUMPDEST DUP4 PUSH3 0x1E87 JUMP JUMPDEST PUSH3 0x12C1 DUP2 PUSH20 0xFFFFFFFFFFFFFFFFFFFFFFFFFFFFFFFFFFFFFFFF AND PUSH4 0x3B1BEBD1 PUSH1 0x40 MLOAD DUP2 PUSH4 0xFFFFFFFF AND PUSH1 0xE0 SHL DUP2 MSTORE PUSH1 0x4 ADD PUSH1 0x20 PUSH1 0x40 MLOAD DUP1 DUP4 SUB DUP2 DUP7 GAS STATICCALL ISZERO DUP1 ISZERO PUSH3 0x1294 JUMPI RETURNDATASIZE PUSH1 0x0 DUP1 RETURNDATACOPY RETURNDATASIZE PUSH1 0x0 REVERT JUMPDEST POP POP POP POP PUSH1 0x40 MLOAD RETURNDATASIZE PUSH1 0x1F NOT PUSH1 0x1F DUP3 ADD AND DUP3 ADD DUP1 PUSH1 0x40 MSTORE POP DUP2 ADD SWAP1 PUSH3 0x12BA SWAP2 SWAP1 PUSH3 0x2E15 JUMP JUMPDEST DUP4 PUSH3 0x2244 JUMP JUMPDEST POP POP JUMP JUMPDEST PUSH1 0x6 PUSH1 0x20 MSTORE DUP1 PUSH1 0x0 MSTORE PUSH1 0x40 PUSH1 0x0 KECCAK256 PUSH1 0x0 SWAP2 POP SWAP1 POP DUP1 PUSH1 0x0 ADD SLOAD SWAP1 POP DUP2 JUMP JUMPDEST PUSH1 0x2 SLOAD DUP2 JUMP JUMPDEST PUSH1 0x60 PUSH1 0x6 PUSH1 0x0 DUP4 PUSH20 0xFFFFFFFFFFFFFFFFFFFFFFFFFFFFFFFFFFFFFFFF AND PUSH20 0xFFFFFFFFFFFFFFFFFFFFFFFFFFFFFFFFFFFFFFFF AND DUP2 MSTORE PUSH1 0x20 ADD SWAP1 DUP2 MSTORE PUSH1 0x20 ADD PUSH1 0x0 KECCAK256 PUSH1 0x1 ADD DUP1 SLOAD DUP1 PUSH1 0x20 MUL PUSH1 0x20 ADD PUSH1 0x40 MLOAD SWAP1 DUP2 ADD PUSH1 0x40 MSTORE DUP1 SWAP3 SWAP2 SWAP1 DUP2 DUP2 MSTORE PUSH1 0x20 ADD DUP3 DUP1 SLOAD DUP1 ISZERO PUSH3 0x13AF JUMPI PUSH1 0x20 MUL DUP3 ADD SWAP2 SWAP1 PUSH1 0x0 MSTORE PUSH1 0x20 PUSH1 0x0 KECCAK256 SWAP1 JUMPDEST DUP2 PUSH1 0x0 SWAP1 SLOAD SWAP1 PUSH2 0x100 EXP SWAP1 DIV PUSH20 0xFFFFFFFFFFFFFFFFFFFFFFFFFFFFFFFFFFFFFFFF AND PUSH20 0xFFFFFFFFFFFFFFFFFFFFFFFFFFFFFFFFFFFFFFFF AND DUP2 MSTORE PUSH1 0x20 ADD SWAP1 PUSH1 0x1 ADD SWAP1 DUP1 DUP4 GT PUSH3 0x1364 JUMPI JUMPDEST POP POP POP POP POP SWAP1 POP SWAP2 SWAP1 POP JUMP JUMPDEST PUSH1 0x0 PUSH1 0x20 MSTORE DUP1 PUSH1 0x0 MSTORE PUSH1 0x40 PUSH1 0x0 KECCAK256 PUSH1 0x0 SWAP2 POP SWAP1 POP DUP1 PUSH1 0x0 ADD SLOAD SWAP1 POP DUP2 JUMP JUMPDEST PUSH1 0x60 PUSH1 0x0 DUP4 LT ISZERO PUSH3 0x1422 JUMPI PUSH1 0x40 MLOAD PUSH32 0x8C379A000000000000000000000000000000000000000000000000000000000 DUP2 MSTORE PUSH1 0x4 ADD PUSH3 0x1419 SWAP1 PUSH3 0x302E JUMP JUMPDEST PUSH1 0x40 MLOAD DUP1 SWAP2 SUB SWAP1 REVERT JUMPDEST PUSH1 0x1 DUP1 SLOAD SWAP1 POP DUP3 GT ISZERO PUSH3 0x146D JUMPI PUSH1 0x40 MLOAD PUSH32 0x8C379A000000000000000000000000000000000000000000000000000000000 DUP2 MSTORE PUSH1 0x4 ADD PUSH3 0x1464 SWAP1 PUSH3 0x30C6 JUMP JUMPDEST PUSH1 0x40 MLOAD DUP1 SWAP2 SUB SWAP1 REVERT JUMPDEST PUSH1 0x0 DUP4 DUP4 PUSH3 0x147D SWAP2 SWAP1 PUSH3 0x3117 JUMP JUMPDEST PUSH8 0xFFFFFFFFFFFFFFFF DUP2 GT ISZERO PUSH3 0x1499 JUMPI PUSH3 0x1498 PUSH3 0x2B5C JUMP JUMPDEST JUMPDEST PUSH1 0x40 MLOAD SWAP1 DUP1 DUP3 MSTORE DUP1 PUSH1 0x20 MUL PUSH1 0x20 ADD DUP3 ADD PUSH1 0x40 MSTORE DUP1 ISZERO PUSH3 0x14C8 JUMPI DUP2 PUSH1 0x20 ADD PUSH1 0x20 DUP3 MUL DUP1 CALLDATASIZE DUP4 CALLDATACOPY DUP1 DUP3 ADD SWAP2 POP POP SWAP1 POP JUMPDEST POP SWAP1 POP PUSH1 0x0 DUP5 SWAP1 POP JUMPDEST DUP4 DUP2 LT ISZERO PUSH3 0x1582 JUMPI PUSH1 0x1 DUP2 DUP2 SLOAD DUP2 LT PUSH3 0x14F1 JUMPI PUSH3 0x14F0 PUSH3 0x3152 JUMP JUMPDEST JUMPDEST SWAP1 PUSH1 0x0 MSTORE PUSH1 0x20 PUSH1 0x0 KECCAK256 ADD PUSH1 0x0 SWAP1 SLOAD SWAP1 PUSH2 0x100 EXP SWAP1 DIV PUSH20 0xFFFFFFFFFFFFFFFFFFFFFFFFFFFFFFFFFFFFFFFF AND DUP3 DUP3 DUP2 MLOAD DUP2 LT PUSH3 0x1532 JUMPI PUSH3 0x1531 PUSH3 0x3152 JUMP JUMPDEST JUMPDEST PUSH1 0x20 MUL PUSH1 0x20 ADD ADD SWAP1 PUSH20 0xFFFFFFFFFFFFFFFFFFFFFFFFFFFFFFFFFFFFFFFF AND SWAP1 DUP2 PUSH20 0xFFFFFFFFFFFFFFFFFFFFFFFFFFFFFFFFFFFFFFFF AND DUP2 MSTORE POP POP DUP1 DUP1 PUSH3 0x1579 SWAP1 PUSH3 0x3181 JUMP JUMPDEST SWAP2 POP POP PUSH3 0x14D1 JUMP JUMPDEST POP DUP1 SWAP2 POP POP SWAP3 SWAP2 POP POP JUMP JUMPDEST PUSH1 0x60 PUSH1 0x0 DUP1 DUP4 PUSH20 0xFFFFFFFFFFFFFFFFFFFFFFFFFFFFFFFFFFFFFFFF AND PUSH20 0xFFFFFFFFFFFFFFFFFFFFFFFFFFFFFFFFFFFFFFFF AND DUP2 MSTORE PUSH1 0x20 ADD SWAP1 DUP2 MSTORE PUSH1 0x20 ADD PUSH1 0x0 KECCAK256 PUSH1 0x2 ADD DUP1 SLOAD DUP1 PUSH1 0x20 MUL PUSH1 0x20 ADD PUSH1 0x40 MLOAD SWAP1 DUP2 ADD PUSH1 0x40 MSTORE DUP1 SWAP3 SWAP2 SWAP1 DUP2 DUP2 MSTORE PUSH1 0x20 ADD DUP3 DUP1 SLOAD DUP1 ISZERO PUSH3 0x1652 JUMPI PUSH1 0x20 MUL DUP3 ADD SWAP2 SWAP1 PUSH1 0x0 MSTORE PUSH1 0x20 PUSH1 0x0 KECCAK256 SWAP1 JUMPDEST DUP2 PUSH1 0x0 SWAP1 SLOAD SWAP1 PUSH2 0x100 EXP SWAP1 DIV PUSH20 0xFFFFFFFFFFFFFFFFFFFFFFFFFFFFFFFFFFFFFFFF AND PUSH20 0xFFFFFFFFFFFFFFFFFFFFFFFFFFFFFFFFFFFFFFFF AND DUP2 MSTORE PUSH1 0x20 ADD SWAP1 PUSH1 0x1 ADD SWAP1 DUP1 DUP4 GT PUSH3 0x1607 JUMPI JUMPDEST POP POP POP POP POP SWAP1 POP SWAP2 SWAP1 POP JUMP JUMPDEST PUSH1 0x7 SLOAD DUP2 JUMP JUMPDEST PUSH1 0x0 DUP3 SWAP1 POP DUP1 PUSH20 0xFFFFFFFFFFFFFFFFFFFFFFFFFFFFFFFFFFFFFFFF AND PUSH4 0xD2DAA825 DUP4 PUSH1 0x40 MLOAD DUP3 PUSH4 0xFFFFFFFF AND PUSH1 0xE0 SHL DUP2 MSTORE PUSH1 0x4 ADD PUSH3 0x16A4 SWAP2 SWAP1 PUSH3 0x3251 JUMP JUMPDEST PUSH1 0x20 PUSH1 0x40 MLOAD DUP1 DUP4 SUB DUP2 PUSH1 0x0 DUP8 GAS CALL ISZERO DUP1 ISZERO PUSH3 0x16C4 JUMPI RETURNDATASIZE PUSH1 0x0 DUP1 RETURNDATACOPY RETURNDATASIZE PUSH1 0x0 REVERT JUMPDEST POP POP POP POP PUSH1 0x40 MLOAD RETURNDATASIZE PUSH1 0x1F NOT PUSH1 0x1F DUP3 ADD AND DUP3 ADD DUP1 PUSH1 0x40 MSTORE POP DUP2 ADD SWAP1 PUSH3 0x16EA SWAP2 SWAP1 PUSH3 0x2F35 JUMP JUMPDEST POP POP POP POP JUMP JUMPDEST PUSH1 0x5 SLOAD DUP2 JUMP JUMPDEST PUSH1 0x0 DUP2 SWAP1 POP PUSH1 0x0 PUSH1 0x2 DUP2 GT ISZERO PUSH3 0x1712 JUMPI PUSH3 0x1711 PUSH3 0x3275 JUMP JUMPDEST JUMPDEST DUP2 PUSH20 0xFFFFFFFFFFFFFFFFFFFFFFFFFFFFFFFFFFFFFFFF AND PUSH4 0x200D2ED2 PUSH1 0x40 MLOAD DUP2 PUSH4 0xFFFFFFFF AND PUSH1 0xE0 SHL DUP2 MSTORE PUSH1 0x4 ADD PUSH1 0x20 PUSH1 0x40 MLOAD DUP1 DUP4 SUB DUP2 DUP7 GAS STATICCALL ISZERO DUP1 ISZERO PUSH3 0x175E JUMPI RETURNDATASIZE PUSH1 0x0 DUP1 RETURNDATACOPY RETURNDATASIZE PUSH1 0x0 REVERT JUMPDEST POP POP POP POP PUSH1 0x40 MLOAD RETURNDATASIZE PUSH1 0x1F NOT PUSH1 0x1F DUP3 ADD AND DUP3 ADD DUP1 PUSH1 0x40 MSTORE POP DUP2 ADD SWAP1 PUSH3 0x1784 SWAP2 SWAP1 PUSH3 0x32CC JUMP JUMPDEST PUSH1 0x2 DUP2 GT ISZERO PUSH3 0x1799 JUMPI PUSH3 0x1798 PUSH3 0x3275 JUMP JUMPDEST JUMPDEST EQ PUSH3 0x17DC JUMPI PUSH1 0x40 MLOAD PUSH32 0x8C379A000000000000000000000000000000000000000000000000000000000 DUP2 MSTORE PUSH1 0x4 ADD PUSH3 0x17D3 SWAP1 PUSH3 0x334E JUMP JUMPDEST PUSH1 0x40 MLOAD DUP1 SWAP2 SUB SWAP1 REVERT JUMPDEST DUP1 PUSH20 0xFFFFFFFFFFFFFFFFFFFFFFFFFFFFFFFFFFFFFFFF AND PUSH4 0x2D05D3F PUSH1 0x40 MLOAD DUP2 PUSH4 0xFFFFFFFF AND PUSH1 0xE0 SHL DUP2 MSTORE PUSH1 0x4 ADD PUSH1 0x20 PUSH1 0x40 MLOAD DUP1 DUP4 SUB DUP2 DUP7 GAS STATICCALL ISZERO DUP1 ISZERO PUSH3 0x1828 JUMPI RETURNDATASIZE PUSH1 0x0 DUP1 RETURNDATACOPY RETURNDATASIZE PUSH1 0x0 REVERT JUMPDEST POP POP POP POP PUSH1 0x40 MLOAD RETURNDATASIZE PUSH1 0x1F NOT PUSH1 0x1F DUP3 ADD AND DUP3 ADD DUP1 PUSH1 0x40 MSTORE POP DUP2 ADD SWAP1 PUSH3 0x184E SWAP2 SWAP1 PUSH3 0x2E15 JUMP JUMPDEST PUSH20 0xFFFFFFFFFFFFFFFFFFFFFFFFFFFFFFFFFFFFFFFF AND ORIGIN PUSH20 0xFFFFFFFFFFFFFFFFFFFFFFFFFFFFFFFFFFFFFFFF AND EQ PUSH3 0x18BE JUMPI PUSH1 0x40 MLOAD PUSH32 0x8C379A000000000000000000000000000000000000000000000000000000000 DUP2 MSTORE PUSH1 0x4 ADD PUSH3 0x18B5 SWAP1 PUSH3 0x33E6 JUMP JUMPDEST PUSH1 0x40 MLOAD DUP1 SWAP2 SUB SWAP1 REVERT JUMPDEST PUSH1 0x0 DUP3 PUSH1 0x40 MLOAD PUSH3 0x18CF SWAP1 PUSH3 0x2878 JUMP JUMPDEST PUSH3 0x18DB SWAP2 SWAP1 PUSH3 0x2AF6 JUMP JUMPDEST PUSH1 0x40 MLOAD DUP1 SWAP2 SUB SWAP1 PUSH1 0x0 CREATE DUP1 ISZERO DUP1 ISZERO PUSH3 0x18F8 JUMPI RETURNDATASIZE PUSH1 0x0 DUP1 RETURNDATACOPY RETURNDATASIZE PUSH1 0x0 REVERT JUMPDEST POP SWAP1 POP PUSH1 0x6 PUSH1 0x0 DUP4 PUSH20 0xFFFFFFFFFFFFFFFFFFFFFFFFFFFFFFFFFFFFFFFF AND PUSH4 0x3B1BEBD1 PUSH1 0x40 MLOAD DUP2 PUSH4 0xFFFFFFFF AND PUSH1 0xE0 SHL DUP2 MSTORE PUSH1 0x4 ADD PUSH1 0x20 PUSH1 0x40 MLOAD DUP1 DUP4 SUB DUP2 DUP7 GAS STATICCALL ISZERO DUP1 ISZERO PUSH3 0x194B JUMPI RETURNDATASIZE PUSH1 0x0 DUP1 RETURNDATACOPY RETURNDATASIZE PUSH1 0x0 REVERT JUMPDEST POP POP POP POP PUSH1 0x40 MLOAD RETURNDATASIZE PUSH1 0x1F NOT PUSH1 0x1F DUP3 ADD AND DUP3 ADD DUP1 PUSH1 0x40 MSTORE POP DUP2 ADD SWAP1 PUSH3 0x1971 SWAP2 SWAP1 PUSH3 0x2E15 JUMP JUMPDEST PUSH20 0xFFFFFFFFFFFFFFFFFFFFFFFFFFFFFFFFFFFFFFFF AND PUSH20 0xFFFFFFFFFFFFFFFFFFFFFFFFFFFFFFFFFFFFFFFF AND DUP2 MSTORE PUSH1 0x20 ADD SWAP1 DUP2 MSTORE PUSH1 0x20 ADD PUSH1 0x0 KECCAK256 PUSH1 0x3 ADD DUP2 SWAP1 DUP1 PUSH1 0x1 DUP2 SLOAD ADD DUP1 DUP3 SSTORE DUP1 SWAP2 POP POP PUSH1 0x1 SWAP1 SUB SWAP1 PUSH1 0x0 MSTORE PUSH1 0x20 PUSH1 0x0 KECCAK256 ADD PUSH1 0x0 SWAP1 SWAP2 SWAP1 SWAP2 SWAP1 SWAP2 PUSH2 0x100 EXP DUP2 SLOAD DUP2 PUSH20 0xFFFFFFFFFFFFFFFFFFFFFFFFFFFFFFFFFFFFFFFF MUL NOT AND SWAP1 DUP4 PUSH20 0xFFFFFFFFFFFFFFFFFFFFFFFFFFFFFFFFFFFFFFFF AND MUL OR SWAP1 SSTORE POP POP POP POP JUMP JUMPDEST PUSH1 0x0 DUP1 PUSH1 0x0 CALLER PUSH20 0xFFFFFFFFFFFFFFFFFFFFFFFFFFFFFFFFFFFFFFFF AND PUSH20 0xFFFFFFFFFFFFFFFFFFFFFFFFFFFFFFFFFFFFFFFF AND DUP2 MSTORE PUSH1 0x20 ADD SWAP1 DUP2 MSTORE PUSH1 0x20 ADD PUSH1 0x0 KECCAK256 PUSH1 0x0 ADD SLOAD EQ ISZERO PUSH3 0x1ADD JUMPI PUSH1 0x2 PUSH1 0x0 DUP2 SLOAD DUP1 SWAP3 SWAP2 SWAP1 PUSH3 0x1A74 SWAP1 PUSH3 0x3181 JUMP JUMPDEST SWAP2 SWAP1 POP SSTORE POP PUSH1 0x1 CALLER SWAP1 DUP1 PUSH1 0x1 DUP2 SLOAD ADD DUP1 DUP3 SSTORE DUP1 SWAP2 POP POP PUSH1 0x1 SWAP1 SUB SWAP1 PUSH1 0x0 MSTORE PUSH1 0x20 PUSH1 0x0 KECCAK256 ADD PUSH1 0x0 SWAP1 SWAP2 SWAP1 SWAP2 SWAP1 SWAP2 PUSH2 0x100 EXP DUP2 SLOAD DUP2 PUSH20 0xFFFFFFFFFFFFFFFFFFFFFFFFFFFFFFFFFFFFFFFF MUL NOT AND SWAP1 DUP4 PUSH20 0xFFFFFFFFFFFFFFFFFFFFFFFFFFFFFFFFFFFFFFFF AND MUL OR SWAP1 SSTORE POP JUMPDEST PUSH1 0x0 PUSH1 0x6 PUSH1 0x0 DUP7 PUSH20 0xFFFFFFFFFFFFFFFFFFFFFFFFFFFFFFFFFFFFFFFF AND PUSH20 0xFFFFFFFFFFFFFFFFFFFFFFFFFFFFFFFFFFFFFFFF AND DUP2 MSTORE PUSH1 0x20 ADD SWAP1 DUP2 MSTORE PUSH1 0x20 ADD PUSH1 0x0 KECCAK256 PUSH1 0x0 ADD SLOAD EQ ISZERO PUSH3 0x1BA7 JUMPI PUSH1 0x7 PUSH1 0x0 DUP2 SLOAD DUP1 SWAP3 SWAP2 SWAP1 PUSH3 0x1B3E SWAP1 PUSH3 0x3181 JUMP JUMPDEST SWAP2 SWAP1 POP SSTORE POP PUSH1 0x8 DUP5 SWAP1 DUP1 PUSH1 0x1 DUP2 SLOAD ADD DUP1 DUP3 SSTORE DUP1 SWAP2 POP POP PUSH1 0x1 SWAP1 SUB SWAP1 PUSH1 0x0 MSTORE PUSH1 0x20 PUSH1 0x0 KECCAK256 ADD PUSH1 0x0 SWAP1 SWAP2 SWAP1 SWAP2 SWAP1 SWAP2 PUSH2 0x100 EXP DUP2 SLOAD DUP2 PUSH20 0xFFFFFFFFFFFFFFFFFFFFFFFFFFFFFFFFFFFFFFFF MUL NOT AND SWAP1 DUP4 PUSH20 0xFFFFFFFFFFFFFFFFFFFFFFFFFFFFFFFFFFFFFFFF AND MUL OR SWAP1 SSTORE POP JUMPDEST PUSH1 0x0 CALLVALUE CALLER DUP7 DUP7 DUP7 DUP7 CALLVALUE PUSH1 0x40 MLOAD PUSH3 0x1BBE SWAP1 PUSH3 0x2886 JUMP JUMPDEST PUSH3 0x1BCF SWAP7 SWAP6 SWAP5 SWAP4 SWAP3 SWAP2 SWAP1 PUSH3 0x3473 JUMP JUMPDEST PUSH1 0x40 MLOAD DUP1 SWAP2 SUB SWAP1 DUP3 CREATE SWAP1 POP DUP1 ISZERO DUP1 ISZERO PUSH3 0x1BED JUMPI RETURNDATASIZE PUSH1 0x0 DUP1 RETURNDATACOPY RETURNDATASIZE PUSH1 0x0 REVERT JUMPDEST POP SWAP1 POP PUSH1 0x4 PUSH1 0x0 DUP2 SLOAD DUP1 SWAP3 SWAP2 SWAP1 PUSH3 0x1C05 SWAP1 PUSH3 0x3181 JUMP JUMPDEST SWAP2 SWAP1 POP SSTORE POP PUSH1 0x3 DUP2 SWAP1 DUP1 PUSH1 0x1 DUP2 SLOAD ADD DUP1 DUP3 SSTORE DUP1 SWAP2 POP POP PUSH1 0x1 SWAP1 SUB SWAP1 PUSH1 0x0 MSTORE PUSH1 0x20 PUSH1 0x0 KECCAK256 ADD PUSH1 0x0 SWAP1 SWAP2 SWAP1 SWAP2 SWAP1 SWAP2 PUSH2 0x100 EXP DUP2 SLOAD DUP2 PUSH20 0xFFFFFFFFFFFFFFFFFFFFFFFFFFFFFFFFFFFFFFFF MUL NOT AND SWAP1 DUP4 PUSH20 0xFFFFFFFFFFFFFFFFFFFFFFFFFFFFFFFFFFFFFFFF AND MUL OR SWAP1 SSTORE POP CALLVALUE PUSH1 0x5 PUSH1 0x0 DUP3 DUP3 SLOAD PUSH3 0x1C81 SWAP2 SWAP1 PUSH3 0x34EE JUMP JUMPDEST SWAP3 POP POP DUP2 SWAP1 SSTORE POP PUSH1 0x0 DUP1 CALLER PUSH20 0xFFFFFFFFFFFFFFFFFFFFFFFFFFFFFFFFFFFFFFFF AND PUSH20 0xFFFFFFFFFFFFFFFFFFFFFFFFFFFFFFFFFFFFFFFF AND DUP2 MSTORE PUSH1 0x20 ADD SWAP1 DUP2 MSTORE PUSH1 0x20 ADD PUSH1 0x0 KECCAK256 PUSH1 0x0 ADD PUSH1 0x0 DUP2 SLOAD DUP1 SWAP3 SWAP2 SWAP1 PUSH3 0x1CDC SWAP1 PUSH3 0x3181 JUMP JUMPDEST SWAP2 SWAP1 POP SSTORE POP PUSH1 0x0 DUP1 CALLER PUSH20 0xFFFFFFFFFFFFFFFFFFFFFFFFFFFFFFFFFFFFFFFF AND PUSH20 0xFFFFFFFFFFFFFFFFFFFFFFFFFFFFFFFFFFFFFFFF AND DUP2 MSTORE PUSH1 0x20 ADD SWAP1 DUP2 MSTORE PUSH1 0x20 ADD PUSH1 0x0 KECCAK256 PUSH1 0x1 ADD DUP2 SWAP1 DUP1 PUSH1 0x1 DUP2 SLOAD ADD DUP1 DUP3 SSTORE DUP1 SWAP2 POP POP PUSH1 0x1 SWAP1 SUB SWAP1 PUSH1 0x0 MSTORE PUSH1 0x20 PUSH1 0x0 KECCAK256 ADD PUSH1 0x0 SWAP1 SWAP2 SWAP1 SWAP2 SWAP1 SWAP2 PUSH2 0x100 EXP DUP2 SLOAD DUP2 PUSH20 0xFFFFFFFFFFFFFFFFFFFFFFFFFFFFFFFFFFFFFFFF MUL NOT AND SWAP1 DUP4 PUSH20 0xFFFFFFFFFFFFFFFFFFFFFFFFFFFFFFFFFFFFFFFF AND MUL OR SWAP1 SSTORE POP PUSH1 0x6 PUSH1 0x0 DUP7 PUSH20 0xFFFFFFFFFFFFFFFFFFFFFFFFFFFFFFFFFFFFFFFF AND PUSH20 0xFFFFFFFFFFFFFFFFFFFFFFFFFFFFFFFFFFFFFFFF AND DUP2 MSTORE PUSH1 0x20 ADD SWAP1 DUP2 MSTORE PUSH1 0x20 ADD PUSH1 0x0 KECCAK256 PUSH1 0x0 ADD PUSH1 0x0 DUP2 SLOAD DUP1 SWAP3 SWAP2 SWAP1 PUSH3 0x1DD8 SWAP1 PUSH3 0x3181 JUMP JUMPDEST SWAP2 SWAP1 POP SSTORE POP PUSH1 0x6 PUSH1 0x0 DUP7 PUSH20 0xFFFFFFFFFFFFFFFFFFFFFFFFFFFFFFFFFFFFFFFF AND PUSH20 0xFFFFFFFFFFFFFFFFFFFFFFFFFFFFFFFFFFFFFFFF AND DUP2 MSTORE PUSH1 0x20 ADD SWAP1 DUP2 MSTORE PUSH1 0x20 ADD PUSH1 0x0 KECCAK256 PUSH1 0x1 ADD DUP2 SWAP1 DUP1 PUSH1 0x1 DUP2 SLOAD ADD DUP1 DUP3 SSTORE DUP1 SWAP2 POP POP PUSH1 0x1 SWAP1 SUB SWAP1 PUSH1 0x0 MSTORE PUSH1 0x20 PUSH1 0x0 KECCAK256 ADD PUSH1 0x0 SWAP1 SWAP2 SWAP1 SWAP2 SWAP1 SWAP2 PUSH2 0x100 EXP DUP2 SLOAD DUP2 PUSH20 0xFFFFFFFFFFFFFFFFFFFFFFFFFFFFFFFFFFFFFFFF MUL NOT AND SWAP1 DUP4 PUSH20 0xFFFFFFFFFFFFFFFFFFFFFFFFFFFFFFFFFFFFFFFF AND MUL OR SWAP1 SSTORE POP POP POP POP POP POP JUMP JUMPDEST PUSH1 0x0 PUSH3 0x1E95 DUP4 DUP4 PUSH3 0x2602 JUMP JUMPDEST SWAP1 POP PUSH1 0x0 DUP1 PUSH1 0x0 DUP6 PUSH20 0xFFFFFFFFFFFFFFFFFFFFFFFFFFFFFFFFFFFFFFFF AND PUSH20 0xFFFFFFFFFFFFFFFFFFFFFFFFFFFFFFFFFFFFFFFF AND DUP2 MSTORE PUSH1 0x20 ADD SWAP1 DUP2 MSTORE PUSH1 0x20 ADD PUSH1 0x0 KECCAK256 PUSH1 0x1 ADD DUP1 SLOAD SWAP1 POP SWAP1 POP PUSH1 0x0 DUP3 SWAP1 POP JUMPDEST PUSH1 0x1 DUP3 PUSH3 0x1EF5 SWAP2 SWAP1 PUSH3 0x3117 JUMP JUMPDEST DUP2 LT ISZERO PUSH3 0x2040 JUMPI PUSH1 0x0 DUP1 DUP7 PUSH20 0xFFFFFFFFFFFFFFFFFFFFFFFFFFFFFFFFFFFFFFFF AND PUSH20 0xFFFFFFFFFFFFFFFFFFFFFFFFFFFFFFFFFFFFFFFF AND DUP2 MSTORE PUSH1 0x20 ADD SWAP1 DUP2 MSTORE PUSH1 0x20 ADD PUSH1 0x0 KECCAK256 PUSH1 0x1 ADD PUSH1 0x1 DUP3 PUSH3 0x1F4D SWAP2 SWAP1 PUSH3 0x34EE JUMP JUMPDEST DUP2 SLOAD DUP2 LT PUSH3 0x1F61 JUMPI PUSH3 0x1F60 PUSH3 0x3152 JUMP JUMPDEST JUMPDEST SWAP1 PUSH1 0x0 MSTORE PUSH1 0x20 PUSH1 0x0 KECCAK256 ADD PUSH1 0x0 SWAP1 SLOAD SWAP1 PUSH2 0x100 EXP SWAP1 DIV PUSH20 0xFFFFFFFFFFFFFFFFFFFFFFFFFFFFFFFFFFFFFFFF AND PUSH1 0x0 DUP1 DUP8 PUSH20 0xFFFFFFFFFFFFFFFFFFFFFFFFFFFFFFFFFFFFFFFF AND PUSH20 0xFFFFFFFFFFFFFFFFFFFFFFFFFFFFFFFFFFFFFFFF AND DUP2 MSTORE PUSH1 0x20 ADD SWAP1 DUP2 MSTORE PUSH1 0x20 ADD PUSH1 0x0 KECCAK256 PUSH1 0x1 ADD DUP3 DUP2 SLOAD DUP2 LT PUSH3 0x1FE2 JUMPI PUSH3 0x1FE1 PUSH3 0x3152 JUMP JUMPDEST JUMPDEST SWAP1 PUSH1 0x0 MSTORE PUSH1 0x20 PUSH1 0x0 KECCAK256 ADD PUSH1 0x0 PUSH2 0x100 EXP DUP2 SLOAD DUP2 PUSH20 0xFFFFFFFFFFFFFFFFFFFFFFFFFFFFFFFFFFFFFFFF MUL NOT AND SWAP1 DUP4 PUSH20 0xFFFFFFFFFFFFFFFFFFFFFFFFFFFFFFFFFFFFFFFF AND MUL OR SWAP1 SSTORE POP DUP1 DUP1 PUSH3 0x2037 SWAP1 PUSH3 0x3181 JUMP JUMPDEST SWAP2 POP POP PUSH3 0x1EE6 JUMP JUMPDEST POP PUSH1 0x0 DUP1 DUP6 PUSH20 0xFFFFFFFFFFFFFFFFFFFFFFFFFFFFFFFFFFFFFFFF AND PUSH20 0xFFFFFFFFFFFFFFFFFFFFFFFFFFFFFFFFFFFFFFFF AND DUP2 MSTORE PUSH1 0x20 ADD SWAP1 DUP2 MSTORE PUSH1 0x20 ADD PUSH1 0x0 KECCAK256 PUSH1 0x2 ADD PUSH1 0x0 DUP1 DUP7 PUSH20 0xFFFFFFFFFFFFFFFFFFFFFFFFFFFFFFFFFFFFFFFF AND PUSH20 0xFFFFFFFFFFFFFFFFFFFFFFFFFFFFFFFFFFFFFFFF AND DUP2 MSTORE PUSH1 0x20 ADD SWAP1 DUP2 MSTORE PUSH1 0x20 ADD PUSH1 0x0 KECCAK256 PUSH1 0x1 ADD PUSH1 0x1 PUSH1 0x0 DUP1 DUP9 PUSH20 0xFFFFFFFFFFFFFFFFFFFFFFFFFFFFFFFFFFFFFFFF AND PUSH20 0xFFFFFFFFFFFFFFFFFFFFFFFFFFFFFFFFFFFFFFFF AND DUP2 MSTORE PUSH1 0x20 ADD SWAP1 DUP2 MSTORE PUSH1 0x20 ADD PUSH1 0x0 KECCAK256 PUSH1 0x1 ADD DUP1 SLOAD SWAP1 POP PUSH3 0x2116 SWAP2 SWAP1 PUSH3 0x3117 JUMP JUMPDEST DUP2 SLOAD DUP2 LT PUSH3 0x212A JUMPI PUSH3 0x2129 PUSH3 0x3152 JUMP JUMPDEST JUMPDEST SWAP1 PUSH1 0x0 MSTORE PUSH1 0x20 PUSH1 0x0 KECCAK256 ADD PUSH1 0x0 SWAP1 SLOAD SWAP1 PUSH2 0x100 EXP SWAP1 DIV PUSH20 0xFFFFFFFFFFFFFFFFFFFFFFFFFFFFFFFFFFFFFFFF AND SWAP1 DUP1 PUSH1 0x1 DUP2 SLOAD ADD DUP1 DUP3 SSTORE DUP1 SWAP2 POP POP PUSH1 0x1 SWAP1 SUB SWAP1 PUSH1 0x0 MSTORE PUSH1 0x20 PUSH1 0x0 KECCAK256 ADD PUSH1 0x0 SWAP1 SWAP2 SWAP1 SWAP2 SWAP1 SWAP2 PUSH2 0x100 EXP DUP2 SLOAD DUP2 PUSH20 0xFFFFFFFFFFFFFFFFFFFFFFFFFFFFFFFFFFFFFFFF MUL NOT AND SWAP1 DUP4 PUSH20 0xFFFFFFFFFFFFFFFFFFFFFFFFFFFFFFFFFFFFFFFF AND MUL OR SWAP1 SSTORE POP PUSH1 0x0 DUP1 DUP6 PUSH20 0xFFFFFFFFFFFFFFFFFFFFFFFFFFFFFFFFFFFFFFFF AND PUSH20 0xFFFFFFFFFFFFFFFFFFFFFFFFFFFFFFFFFFFFFFFF AND DUP2 MSTORE PUSH1 0x20 ADD SWAP1 DUP2 MSTORE PUSH1 0x20 ADD PUSH1 0x0 KECCAK256 PUSH1 0x1 ADD DUP1 SLOAD DUP1 PUSH3 0x2209 JUMPI PUSH3 0x2208 PUSH3 0x354B JUMP JUMPDEST JUMPDEST PUSH1 0x1 SWAP1 SUB DUP2 DUP2 SWAP1 PUSH1 0x0 MSTORE PUSH1 0x20 PUSH1 0x0 KECCAK256 ADD PUSH1 0x0 PUSH2 0x100 EXP DUP2 SLOAD SWAP1 PUSH20 0xFFFFFFFFFFFFFFFFFFFFFFFFFFFFFFFFFFFFFFFF MUL NOT AND SWAP1 SSTORE SWAP1 SSTORE POP POP POP POP JUMP JUMPDEST PUSH1 0x0 PUSH3 0x2252 DUP4 DUP4 PUSH3 0x273C JUMP JUMPDEST SWAP1 POP PUSH1 0x0 DUP2 SWAP1 POP JUMPDEST PUSH1 0x1 PUSH1 0x6 PUSH1 0x0 DUP7 PUSH20 0xFFFFFFFFFFFFFFFFFFFFFFFFFFFFFFFFFFFFFFFF AND PUSH20 0xFFFFFFFFFFFFFFFFFFFFFFFFFFFFFFFFFFFFFFFF AND DUP2 MSTORE PUSH1 0x20 ADD SWAP1 DUP2 MSTORE PUSH1 0x20 ADD PUSH1 0x0 KECCAK256 PUSH1 0x1 ADD DUP1 SLOAD SWAP1 POP PUSH3 0x22AE SWAP2 SWAP1 PUSH3 0x3117 JUMP JUMPDEST DUP2 LT ISZERO PUSH3 0x23FB JUMPI PUSH1 0x6 PUSH1 0x0 DUP6 PUSH20 0xFFFFFFFFFFFFFFFFFFFFFFFFFFFFFFFFFFFFFFFF AND PUSH20 0xFFFFFFFFFFFFFFFFFFFFFFFFFFFFFFFFFFFFFFFF AND DUP2 MSTORE PUSH1 0x20 ADD SWAP1 DUP2 MSTORE PUSH1 0x20 ADD PUSH1 0x0 KECCAK256 PUSH1 0x1 ADD PUSH1 0x1 DUP3 PUSH3 0x2307 SWAP2 SWAP1 PUSH3 0x34EE JUMP JUMPDEST DUP2 SLOAD DUP2 LT PUSH3 0x231B JUMPI PUSH3 0x231A PUSH3 0x3152 JUMP JUMPDEST JUMPDEST SWAP1 PUSH1 0x0 MSTORE PUSH1 0x20 PUSH1 0x0 KECCAK256 ADD PUSH1 0x0 SWAP1 SLOAD SWAP1 PUSH2 0x100 EXP SWAP1 DIV PUSH20 0xFFFFFFFFFFFFFFFFFFFFFFFFFFFFFFFFFFFFFFFF AND PUSH1 0x6 PUSH1 0x0 DUP7 PUSH20 0xFFFFFFFFFFFFFFFFFFFFFFFFFFFFFFFFFFFFFFFF AND PUSH20 0xFFFFFFFFFFFFFFFFFFFFFFFFFFFFFFFFFFFFFFFF AND DUP2 MSTORE PUSH1 0x20 ADD SWAP1 DUP2 MSTORE PUSH1 0x20 ADD PUSH1 0x0 KECCAK256 PUSH1 0x1 ADD DUP3 DUP2 SLOAD DUP2 LT PUSH3 0x239D JUMPI PUSH3 0x239C PUSH3 0x3152 JUMP JUMPDEST JUMPDEST SWAP1 PUSH1 0x0 MSTORE PUSH1 0x20 PUSH1 0x0 KECCAK256 ADD PUSH1 0x0 PUSH2 0x100 EXP DUP2 SLOAD DUP2 PUSH20 0xFFFFFFFFFFFFFFFFFFFFFFFFFFFFFFFFFFFFFFFF MUL NOT AND SWAP1 DUP4 PUSH20 0xFFFFFFFFFFFFFFFFFFFFFFFFFFFFFFFFFFFFFFFF AND MUL OR SWAP1 SSTORE POP DUP1 DUP1 PUSH3 0x23F2 SWAP1 PUSH3 0x3181 JUMP JUMPDEST SWAP2 POP POP PUSH3 0x225A JUMP JUMPDEST POP PUSH1 0x6 PUSH1 0x0 DUP5 PUSH20 0xFFFFFFFFFFFFFFFFFFFFFFFFFFFFFFFFFFFFFFFF AND PUSH20 0xFFFFFFFFFFFFFFFFFFFFFFFFFFFFFFFFFFFFFFFF AND DUP2 MSTORE PUSH1 0x20 ADD SWAP1 DUP2 MSTORE PUSH1 0x20 ADD PUSH1 0x0 KECCAK256 PUSH1 0x2 ADD PUSH1 0x6 PUSH1 0x0 DUP6 PUSH20 0xFFFFFFFFFFFFFFFFFFFFFFFFFFFFFFFFFFFFFFFF AND PUSH20 0xFFFFFFFFFFFFFFFFFFFFFFFFFFFFFFFFFFFFFFFF AND DUP2 MSTORE PUSH1 0x20 ADD SWAP1 DUP2 MSTORE PUSH1 0x20 ADD PUSH1 0x0 KECCAK256 PUSH1 0x1 ADD PUSH1 0x1 PUSH1 0x6 PUSH1 0x0 DUP8 PUSH20 0xFFFFFFFFFFFFFFFFFFFFFFFFFFFFFFFFFFFFFFFF AND PUSH20 0xFFFFFFFFFFFFFFFFFFFFFFFFFFFFFFFFFFFFFFFF AND DUP2 MSTORE PUSH1 0x20 ADD SWAP1 DUP2 MSTORE PUSH1 0x20 ADD PUSH1 0x0 KECCAK256 PUSH1 0x1 ADD DUP1 SLOAD SWAP1 POP PUSH3 0x24D4 SWAP2 SWAP1 PUSH3 0x3117 JUMP JUMPDEST DUP2 SLOAD DUP2 LT PUSH3 0x24E8 JUMPI PUSH3 0x24E7 PUSH3 0x3152 JUMP JUMPDEST JUMPDEST SWAP1 PUSH1 0x0 MSTORE PUSH1 0x20 PUSH1 0x0 KECCAK256 ADD PUSH1 0x0 SWAP1 SLOAD SWAP1 PUSH2 0x100 EXP SWAP1 DIV PUSH20 0xFFFFFFFFFFFFFFFFFFFFFFFFFFFFFFFFFFFFFFFF AND SWAP1 DUP1 PUSH1 0x1 DUP2 SLOAD ADD DUP1 DUP3 SSTORE DUP1 SWAP2 POP POP PUSH1 0x1 SWAP1 SUB SWAP1 PUSH1 0x0 MSTORE PUSH1 0x20 PUSH1 0x0 KECCAK256 ADD PUSH1 0x0 SWAP1 SWAP2 SWAP1 SWAP2 SWAP1 SWAP2 PUSH2 0x100 EXP DUP2 SLOAD DUP2 PUSH20 0xFFFFFFFFFFFFFFFFFFFFFFFFFFFFFFFFFFFFFFFF MUL NOT AND SWAP1 DUP4 PUSH20 0xFFFFFFFFFFFFFFFFFFFFFFFFFFFFFFFFFFFFFFFF AND MUL OR SWAP1 SSTORE POP PUSH1 0x6 PUSH1 0x0 DUP5 PUSH20 0xFFFFFFFFFFFFFFFFFFFFFFFFFFFFFFFFFFFFFFFF AND PUSH20 0xFFFFFFFFFFFFFFFFFFFFFFFFFFFFFFFFFFFFFFFF AND DUP2 MSTORE PUSH1 0x20 ADD SWAP1 DUP2 MSTORE PUSH1 0x20 ADD PUSH1 0x0 KECCAK256 PUSH1 0x1 ADD DUP1 SLOAD DUP1 PUSH3 0x25C8 JUMPI PUSH3 0x25C7 PUSH3 0x354B JUMP JUMPDEST JUMPDEST PUSH1 0x1 SWAP1 SUB DUP2 DUP2 SWAP1 PUSH1 0x0 MSTORE PUSH1 0x20 PUSH1 0x0 KECCAK256 ADD PUSH1 0x0 PUSH2 0x100 EXP DUP2 SLOAD SWAP1 PUSH20 0xFFFFFFFFFFFFFFFFFFFFFFFFFFFFFFFFFFFFFFFF MUL NOT AND SWAP1 SSTORE SWAP1 SSTORE POP POP POP JUMP JUMPDEST PUSH1 0x0 DUP1 PUSH1 0x0 JUMPDEST PUSH1 0x1 PUSH1 0x0 DUP1 DUP8 PUSH20 0xFFFFFFFFFFFFFFFFFFFFFFFFFFFFFFFFFFFFFFFF AND PUSH20 0xFFFFFFFFFFFFFFFFFFFFFFFFFFFFFFFFFFFFFFFF AND DUP2 MSTORE PUSH1 0x20 ADD SWAP1 DUP2 MSTORE PUSH1 0x20 ADD PUSH1 0x0 KECCAK256 PUSH1 0x1 ADD DUP1 SLOAD SWAP1 POP PUSH3 0x265B SWAP2 SWAP1 PUSH3 0x3117 JUMP JUMPDEST DUP2 GT PUSH3 0x2731 JUMPI DUP4 PUSH20 0xFFFFFFFFFFFFFFFFFFFFFFFFFFFFFFFFFFFFFFFF AND PUSH1 0x0 DUP1 DUP8 PUSH20 0xFFFFFFFFFFFFFFFFFFFFFFFFFFFFFFFFFFFFFFFF AND PUSH20 0xFFFFFFFFFFFFFFFFFFFFFFFFFFFFFFFFFFFFFFFF AND DUP2 MSTORE PUSH1 0x20 ADD SWAP1 DUP2 MSTORE PUSH1 0x20 ADD PUSH1 0x0 KECCAK256 PUSH1 0x1 ADD DUP3 DUP2 SLOAD DUP2 LT PUSH3 0x26CF JUMPI PUSH3 0x26CE PUSH3 0x3152 JUMP JUMPDEST JUMPDEST SWAP1 PUSH1 0x0 MSTORE PUSH1 0x20 PUSH1 0x0 KECCAK256 ADD PUSH1 0x0 SWAP1 SLOAD SWAP1 PUSH2 0x100 EXP SWAP1 DIV PUSH20 0xFFFFFFFFFFFFFFFFFFFFFFFFFFFFFFFFFFFFFFFF AND PUSH20 0xFFFFFFFFFFFFFFFFFFFFFFFFFFFFFFFFFFFFFFFF AND EQ ISZERO PUSH3 0x271B JUMPI DUP1 SWAP2 POP JUMPDEST DUP1 DUP1 PUSH3 0x2728 SWAP1 PUSH3 0x3181 JUMP JUMPDEST SWAP2 POP POP PUSH3 0x2608 JUMP JUMPDEST POP DUP1 SWAP2 POP POP SWAP3 SWAP2 POP POP JUMP JUMPDEST PUSH1 0x0 DUP1 PUSH1 0x0 JUMPDEST PUSH1 0x1 PUSH1 0x6 PUSH1 0x0 DUP8 PUSH20 0xFFFFFFFFFFFFFFFFFFFFFFFFFFFFFFFFFFFFFFFF AND PUSH20 0xFFFFFFFFFFFFFFFFFFFFFFFFFFFFFFFFFFFFFFFF AND DUP2 MSTORE PUSH1 0x20 ADD SWAP1 DUP2 MSTORE PUSH1 0x20 ADD PUSH1 0x0 KECCAK256 PUSH1 0x1 ADD DUP1 SLOAD SWAP1 POP PUSH3 0x2796 SWAP2 SWAP1 PUSH3 0x3117 JUMP JUMPDEST DUP2 GT PUSH3 0x286D JUMPI DUP4 PUSH20 0xFFFFFFFFFFFFFFFFFFFFFFFFFFFFFFFFFFFFFFFF AND PUSH1 0x6 PUSH1 0x0 DUP8 PUSH20 0xFFFFFFFFFFFFFFFFFFFFFFFFFFFFFFFFFFFFFFFF AND PUSH20 0xFFFFFFFFFFFFFFFFFFFFFFFFFFFFFFFFFFFFFFFF AND DUP2 MSTORE PUSH1 0x20 ADD SWAP1 DUP2 MSTORE PUSH1 0x20 ADD PUSH1 0x0 KECCAK256 PUSH1 0x1 ADD DUP3 DUP2 SLOAD DUP2 LT PUSH3 0x280B JUMPI PUSH3 0x280A PUSH3 0x3152 JUMP JUMPDEST JUMPDEST SWAP1 PUSH1 0x0 MSTORE PUSH1 0x20 PUSH1 0x0 KECCAK256 ADD PUSH1 0x0 SWAP1 SLOAD SWAP1 PUSH2 0x100 EXP SWAP1 DIV PUSH20 0xFFFFFFFFFFFFFFFFFFFFFFFFFFFFFFFFFFFFFFFF AND PUSH20 0xFFFFFFFFFFFFFFFFFFFFFFFFFFFFFFFFFFFFFFFF AND EQ ISZERO PUSH3 0x2857 JUMPI DUP1 SWAP2 POP JUMPDEST DUP1 DUP1 PUSH3 0x2864 SWAP1 PUSH3 0x3181 JUMP JUMPDEST SWAP2 POP POP PUSH3 0x2742 JUMP JUMPDEST POP DUP1 SWAP2 POP POP SWAP3 SWAP2 POP POP JUMP JUMPDEST PUSH2 0xD19 DUP1 PUSH3 0x357B DUP4 CODECOPY ADD SWAP1 JUMP JUMPDEST PUSH2 0x119C DUP1 PUSH3 0x4294 DUP4 CODECOPY ADD SWAP1 JUMP JUMPDEST PUSH1 0x0 PUSH1 0x40 MLOAD SWAP1 POP SWAP1 JUMP JUMPDEST PUSH1 0x0 DUP1 REVERT JUMPDEST PUSH1 0x0 DUP1 REVERT JUMPDEST PUSH1 0x0 PUSH20 0xFFFFFFFFFFFFFFFFFFFFFFFFFFFFFFFFFFFFFFFF DUP3 AND SWAP1 POP SWAP2 SWAP1 POP JUMP JUMPDEST PUSH1 0x0 PUSH3 0x28D5 DUP3 PUSH3 0x28A8 JUMP JUMPDEST SWAP1 POP SWAP2 SWAP1 POP JUMP JUMPDEST PUSH3 0x28E7 DUP2 PUSH3 0x28C8 JUMP JUMPDEST DUP2 EQ PUSH3 0x28F3 JUMPI PUSH1 0x0 DUP1 REVERT JUMPDEST POP JUMP JUMPDEST PUSH1 0x0 DUP2 CALLDATALOAD SWAP1 POP PUSH3 0x2907 DUP2 PUSH3 0x28DC JUMP JUMPDEST SWAP3 SWAP2 POP POP JUMP JUMPDEST PUSH1 0x0 PUSH1 0x20 DUP3 DUP5 SUB SLT ISZERO PUSH3 0x2926 JUMPI PUSH3 0x2925 PUSH3 0x289E JUMP JUMPDEST JUMPDEST PUSH1 0x0 PUSH3 0x2936 DUP5 DUP3 DUP6 ADD PUSH3 0x28F6 JUMP JUMPDEST SWAP2 POP POP SWAP3 SWAP2 POP POP JUMP JUMPDEST PUSH1 0x0 DUP2 SWAP1 POP SWAP2 SWAP1 POP JUMP JUMPDEST PUSH3 0x2954 DUP2 PUSH3 0x293F JUMP JUMPDEST DUP2 EQ PUSH3 0x2960 JUMPI PUSH1 0x0 DUP1 REVERT JUMPDEST POP JUMP JUMPDEST PUSH1 0x0 DUP2 CALLDATALOAD SWAP1 POP PUSH3 0x2974 DUP2 PUSH3 0x2949 JUMP JUMPDEST SWAP3 SWAP2 POP POP JUMP JUMPDEST PUSH1 0x0 DUP1 PUSH1 0x40 DUP4 DUP6 SUB SLT ISZERO PUSH3 0x2994 JUMPI PUSH3 0x2993 PUSH3 0x289E JUMP JUMPDEST JUMPDEST PUSH1 0x0 PUSH3 0x29A4 DUP6 DUP3 DUP7 ADD PUSH3 0x2963 JUMP JUMPDEST SWAP3 POP POP PUSH1 0x20 PUSH3 0x29B7 DUP6 DUP3 DUP7 ADD PUSH3 0x2963 JUMP JUMPDEST SWAP2 POP POP SWAP3 POP SWAP3 SWAP1 POP JUMP JUMPDEST PUSH1 0x0 DUP2 MLOAD SWAP1 POP SWAP2 SWAP1 POP JUMP JUMPDEST PUSH1 0x0 DUP3 DUP3 MSTORE PUSH1 0x20 DUP3 ADD SWAP1 POP SWAP3 SWAP2 POP POP JUMP JUMPDEST PUSH1 0x0 DUP2 SWAP1 POP PUSH1 0x20 DUP3 ADD SWAP1 POP SWAP2 SWAP1 POP JUMP JUMPDEST PUSH3 0x29F8 DUP2 PUSH3 0x28C8 JUMP JUMPDEST DUP3 MSTORE POP POP JUMP JUMPDEST PUSH1 0x0 PUSH3 0x2A0C DUP4 DUP4 PUSH3 0x29ED JUMP JUMPDEST PUSH1 0x20 DUP4 ADD SWAP1 POP SWAP3 SWAP2 POP POP JUMP JUMPDEST PUSH1 0x0 PUSH1 0x20 DUP3 ADD SWAP1 POP SWAP2 SWAP1 POP JUMP JUMPDEST PUSH1 0x0 PUSH3 0x2A32 DUP3 PUSH3 0x29C1 JUMP JUMPDEST PUSH3 0x2A3E DUP2 DUP6 PUSH3 0x29CC JUMP JUMPDEST SWAP4 POP PUSH3 0x2A4B DUP4 PUSH3 0x29DD JUMP JUMPDEST DUP1 PUSH1 0x0 JUMPDEST DUP4 DUP2 LT ISZERO PUSH3 0x2A82 JUMPI DUP2 MLOAD PUSH3 0x2A66 DUP9 DUP3 PUSH3 0x29FE JUMP JUMPDEST SWAP8 POP PUSH3 0x2A73 DUP4 PUSH3 0x2A18 JUMP JUMPDEST SWAP3 POP POP PUSH1 0x1 DUP2 ADD SWAP1 POP PUSH3 0x2A4F JUMP JUMPDEST POP DUP6 SWAP4 POP POP POP POP SWAP3 SWAP2 POP POP JUMP JUMPDEST PUSH1 0x0 PUSH1 0x20 DUP3 ADD SWAP1 POP DUP2 DUP2 SUB PUSH1 0x0 DUP4 ADD MSTORE PUSH3 0x2AAB DUP2 DUP5 PUSH3 0x2A25 JUMP JUMPDEST SWAP1 POP SWAP3 SWAP2 POP POP JUMP JUMPDEST PUSH1 0x0 PUSH1 0x20 DUP3 DUP5 SUB SLT ISZERO PUSH3 0x2ACC JUMPI PUSH3 0x2ACB PUSH3 0x289E JUMP JUMPDEST JUMPDEST PUSH1 0x0 PUSH3 0x2ADC DUP5 DUP3 DUP6 ADD PUSH3 0x2963 JUMP JUMPDEST SWAP2 POP POP SWAP3 SWAP2 POP POP JUMP JUMPDEST PUSH3 0x2AF0 DUP2 PUSH3 0x28C8 JUMP JUMPDEST DUP3 MSTORE POP POP JUMP JUMPDEST PUSH1 0x0 PUSH1 0x20 DUP3 ADD SWAP1 POP PUSH3 0x2B0D PUSH1 0x0 DUP4 ADD DUP5 PUSH3 0x2AE5 JUMP JUMPDEST SWAP3 SWAP2 POP POP JUMP JUMPDEST PUSH3 0x2B1E DUP2 PUSH3 0x293F JUMP JUMPDEST DUP3 MSTORE POP POP JUMP JUMPDEST PUSH1 0x0 PUSH1 0x20 DUP3 ADD SWAP1 POP PUSH3 0x2B3B PUSH1 0x0 DUP4 ADD DUP5 PUSH3 0x2B13 JUMP JUMPDEST SWAP3 SWAP2 POP POP JUMP JUMPDEST PUSH1 0x0 DUP1 REVERT JUMPDEST PUSH1 0x0 DUP1 REVERT JUMPDEST PUSH1 0x0 PUSH1 0x1F NOT PUSH1 0x1F DUP4 ADD AND SWAP1 POP SWAP2 SWAP1 POP JUMP JUMPDEST PUSH32 0x4E487B7100000000000000000000000000000000000000000000000000000000 PUSH1 0x0 MSTORE PUSH1 0x41 PUSH1 0x4 MSTORE PUSH1 0x24 PUSH1 0x0 REVERT JUMPDEST PUSH3 0x2B96 DUP3 PUSH3 0x2B4B JUMP JUMPDEST DUP2 ADD DUP2 DUP2 LT PUSH8 0xFFFFFFFFFFFFFFFF DUP3 GT OR ISZERO PUSH3 0x2BB8 JUMPI PUSH3 0x2BB7 PUSH3 0x2B5C JUMP JUMPDEST JUMPDEST DUP1 PUSH1 0x40 MSTORE POP POP POP JUMP JUMPDEST PUSH1 0x0 PUSH3 0x2BCD PUSH3 0x2894 JUMP JUMPDEST SWAP1 POP PUSH3 0x2BDB DUP3 DUP3 PUSH3 0x2B8B JUMP JUMPDEST SWAP2 SWAP1 POP JUMP JUMPDEST PUSH1 0x0 PUSH8 0xFFFFFFFFFFFFFFFF DUP3 GT ISZERO PUSH3 0x2BFE JUMPI PUSH3 0x2BFD PUSH3 0x2B5C JUMP JUMPDEST JUMPDEST PUSH3 0x2C09 DUP3 PUSH3 0x2B4B JUMP JUMPDEST SWAP1 POP PUSH1 0x20 DUP2 ADD SWAP1 POP SWAP2 SWAP1 POP JUMP JUMPDEST DUP3 DUP2 DUP4 CALLDATACOPY PUSH1 0x0 DUP4 DUP4 ADD MSTORE POP POP POP JUMP JUMPDEST PUSH1 0x0 PUSH3 0x2C3C PUSH3 0x2C36 DUP5 PUSH3 0x2BE0 JUMP JUMPDEST PUSH3 0x2BC1 JUMP JUMPDEST SWAP1 POP DUP3 DUP2 MSTORE PUSH1 0x20 DUP2 ADD DUP5 DUP5 DUP5 ADD GT ISZERO PUSH3 0x2C5B JUMPI PUSH3 0x2C5A PUSH3 0x2B46 JUMP JUMPDEST JUMPDEST PUSH3 0x2C68 DUP5 DUP3 DUP6 PUSH3 0x2C16 JUMP JUMPDEST POP SWAP4 SWAP3 POP POP POP JUMP JUMPDEST PUSH1 0x0 DUP3 PUSH1 0x1F DUP4 ADD SLT PUSH3 0x2C88 JUMPI PUSH3 0x2C87 PUSH3 0x2B41 JUMP JUMPDEST JUMPDEST DUP2 CALLDATALOAD PUSH3 0x2C9A DUP5 DUP3 PUSH1 0x20 DUP7 ADD PUSH3 0x2C25 JUMP JUMPDEST SWAP2 POP POP SWAP3 SWAP2 POP POP JUMP JUMPDEST PUSH1 0x0 DUP1 PUSH1 0x40 DUP4 DUP6 SUB SLT ISZERO PUSH3 0x2CBD JUMPI PUSH3 0x2CBC PUSH3 0x289E JUMP JUMPDEST JUMPDEST PUSH1 0x0 PUSH3 0x2CCD DUP6 DUP3 DUP7 ADD PUSH3 0x28F6 JUMP JUMPDEST SWAP3 POP POP PUSH1 0x20 DUP4 ADD CALLDATALOAD PUSH8 0xFFFFFFFFFFFFFFFF DUP2 GT ISZERO PUSH3 0x2CF1 JUMPI PUSH3 0x2CF0 PUSH3 0x28A3 JUMP JUMPDEST JUMPDEST PUSH3 0x2CFF DUP6 DUP3 DUP7 ADD PUSH3 0x2C70 JUMP JUMPDEST SWAP2 POP POP SWAP3 POP SWAP3 SWAP1 POP JUMP JUMPDEST PUSH1 0x0 PUSH3 0x2D16 DUP3 PUSH3 0x28A8 JUMP JUMPDEST SWAP1 POP SWAP2 SWAP1 POP JUMP JUMPDEST PUSH3 0x2D28 DUP2 PUSH3 0x2D09 JUMP JUMPDEST DUP2 EQ PUSH3 0x2D34 JUMPI PUSH1 0x0 DUP1 REVERT JUMPDEST POP JUMP JUMPDEST PUSH1 0x0 DUP2 CALLDATALOAD SWAP1 POP PUSH3 0x2D48 DUP2 PUSH3 0x2D1D JUMP JUMPDEST SWAP3 SWAP2 POP POP JUMP JUMPDEST PUSH1 0x0 DUP1 PUSH1 0x0 DUP1 PUSH1 0x80 DUP6 DUP8 SUB SLT ISZERO PUSH3 0x2D6B JUMPI PUSH3 0x2D6A PUSH3 0x289E JUMP JUMPDEST JUMPDEST PUSH1 0x0 PUSH3 0x2D7B DUP8 DUP3 DUP9 ADD PUSH3 0x28F6 JUMP JUMPDEST SWAP5 POP POP PUSH1 0x20 DUP6 ADD CALLDATALOAD PUSH8 0xFFFFFFFFFFFFFFFF DUP2 GT ISZERO PUSH3 0x2D9F JUMPI PUSH3 0x2D9E PUSH3 0x28A3 JUMP JUMPDEST JUMPDEST PUSH3 0x2DAD DUP8 DUP3 DUP9 ADD PUSH3 0x2C70 JUMP JUMPDEST SWAP4 POP POP PUSH1 0x40 DUP6 ADD CALLDATALOAD PUSH8 0xFFFFFFFFFFFFFFFF DUP2 GT ISZERO PUSH3 0x2DD1 JUMPI PUSH3 0x2DD0 PUSH3 0x28A3 JUMP JUMPDEST JUMPDEST PUSH3 0x2DDF DUP8 DUP3 DUP9 ADD PUSH3 0x2C70 JUMP JUMPDEST SWAP3 POP POP PUSH1 0x60 PUSH3 0x2DF2 DUP8 DUP3 DUP9 ADD PUSH3 0x2D37 JUMP JUMPDEST SWAP2 POP POP SWAP3 SWAP6 SWAP2 SWAP5 POP SWAP3 POP JUMP JUMPDEST PUSH1 0x0 DUP2 MLOAD SWAP1 POP PUSH3 0x2E0F DUP2 PUSH3 0x28DC JUMP JUMPDEST SWAP3 SWAP2 POP POP JUMP JUMPDEST PUSH1 0x0 PUSH1 0x20 DUP3 DUP5 SUB SLT ISZERO PUSH3 0x2E2E JUMPI PUSH3 0x2E2D PUSH3 0x289E JUMP JUMPDEST JUMPDEST PUSH1 0x0 PUSH3 0x2E3E DUP5 DUP3 DUP6 ADD PUSH3 0x2DFE JUMP JUMPDEST SWAP2 POP POP SWAP3 SWAP2 POP POP JUMP JUMPDEST PUSH1 0x0 DUP3 DUP3 MSTORE PUSH1 0x20 DUP3 ADD SWAP1 POP SWAP3 SWAP2 POP POP JUMP JUMPDEST PUSH32 0x4F6E6C7920636F6E747261637420726566657265652063616E20617070726F76 PUSH1 0x0 DUP3 ADD MSTORE PUSH32 0x65207265717565737420666F7220636F6D706C6574696F6E0000000000000000 PUSH1 0x20 DUP3 ADD MSTORE POP JUMP JUMPDEST PUSH1 0x0 PUSH3 0x2EB6 PUSH1 0x38 DUP4 PUSH3 0x2E47 JUMP JUMPDEST SWAP2 POP PUSH3 0x2EC3 DUP3 PUSH3 0x2E58 JUMP JUMPDEST PUSH1 0x40 DUP3 ADD SWAP1 POP SWAP2 SWAP1 POP JUMP JUMPDEST PUSH1 0x0 PUSH1 0x20 DUP3 ADD SWAP1 POP DUP2 DUP2 SUB PUSH1 0x0 DUP4 ADD MSTORE PUSH3 0x2EE9 DUP2 PUSH3 0x2EA7 JUMP JUMPDEST SWAP1 POP SWAP2 SWAP1 POP JUMP JUMPDEST PUSH1 0x0 PUSH3 0x2EFD DUP3 PUSH3 0x28C8 JUMP JUMPDEST SWAP1 POP SWAP2 SWAP1 POP JUMP JUMPDEST PUSH3 0x2F0F DUP2 PUSH3 0x2EF0 JUMP JUMPDEST DUP2 EQ PUSH3 0x2F1B JUMPI PUSH1 0x0 DUP1 REVERT JUMPDEST POP JUMP JUMPDEST PUSH1 0x0 DUP2 MLOAD SWAP1 POP PUSH3 0x2F2F DUP2 PUSH3 0x2F04 JUMP JUMPDEST SWAP3 SWAP2 POP POP JUMP JUMPDEST PUSH1 0x0 PUSH1 0x20 DUP3 DUP5 SUB SLT ISZERO PUSH3 0x2F4E JUMPI PUSH3 0x2F4D PUSH3 0x289E JUMP JUMPDEST JUMPDEST PUSH1 0x0 PUSH3 0x2F5E DUP5 DUP3 DUP6 ADD PUSH3 0x2F1E JUMP JUMPDEST SWAP2 POP POP SWAP3 SWAP2 POP POP JUMP JUMPDEST PUSH1 0x0 PUSH3 0x2F74 DUP3 PUSH3 0x28C8 JUMP JUMPDEST SWAP1 POP SWAP2 SWAP1 POP JUMP JUMPDEST PUSH3 0x2F86 DUP2 PUSH3 0x2F67 JUMP JUMPDEST DUP2 EQ PUSH3 0x2F92 JUMPI PUSH1 0x0 DUP1 REVERT JUMPDEST POP JUMP JUMPDEST PUSH1 0x0 DUP2 MLOAD SWAP1 POP PUSH3 0x2FA6 DUP2 PUSH3 0x2F7B JUMP JUMPDEST SWAP3 SWAP2 POP POP JUMP JUMPDEST PUSH1 0x0 PUSH1 0x20 DUP3 DUP5 SUB SLT ISZERO PUSH3 0x2FC5 JUMPI PUSH3 0x2FC4 PUSH3 0x289E JUMP JUMPDEST JUMPDEST PUSH1 0x0 PUSH3 0x2FD5 DUP5 DUP3 DUP6 ADD PUSH3 0x2F95 JUMP JUMPDEST SWAP2 POP POP SWAP3 SWAP2 POP POP JUMP JUMPDEST PUSH32 0x537461727420696E6465782063616E6E6F74206265206E656761746976650000 PUSH1 0x0 DUP3 ADD MSTORE POP JUMP JUMPDEST PUSH1 0x0 PUSH3 0x3016 PUSH1 0x1E DUP4 PUSH3 0x2E47 JUMP JUMPDEST SWAP2 POP PUSH3 0x3023 DUP3 PUSH3 0x2FDE JUMP JUMPDEST PUSH1 0x20 DUP3 ADD SWAP1 POP SWAP2 SWAP1 POP JUMP JUMPDEST PUSH1 0x0 PUSH1 0x20 DUP3 ADD SWAP1 POP DUP2 DUP2 SUB PUSH1 0x0 DUP4 ADD MSTORE PUSH3 0x3049 DUP2 PUSH3 0x3007 JUMP JUMPDEST SWAP1 POP SWAP2 SWAP1 POP JUMP JUMPDEST PUSH32 0x456E6420696E6465782065786365656473207573657220616464726573736573 PUSH1 0x0 DUP3 ADD MSTORE PUSH32 0x206C656E67746800000000000000000000000000000000000000000000000000 PUSH1 0x20 DUP3 ADD MSTORE POP JUMP JUMPDEST PUSH1 0x0 PUSH3 0x30AE PUSH1 0x27 DUP4 PUSH3 0x2E47 JUMP JUMPDEST SWAP2 POP PUSH3 0x30BB DUP3 PUSH3 0x3050 JUMP JUMPDEST PUSH1 0x40 DUP3 ADD SWAP1 POP SWAP2 SWAP1 POP JUMP JUMPDEST PUSH1 0x0 PUSH1 0x20 DUP3 ADD SWAP1 POP DUP2 DUP2 SUB PUSH1 0x0 DUP4 ADD MSTORE PUSH3 0x30E1 DUP2 PUSH3 0x309F JUMP JUMPDEST SWAP1 POP SWAP2 SWAP1 POP JUMP JUMPDEST PUSH32 0x4E487B7100000000000000000000000000000000000000000000000000000000 PUSH1 0x0 MSTORE PUSH1 0x11 PUSH1 0x4 MSTORE PUSH1 0x24 PUSH1 0x0 REVERT JUMPDEST PUSH1 0x0 PUSH3 0x3124 DUP3 PUSH3 0x293F JUMP JUMPDEST SWAP2 POP PUSH3 0x3131 DUP4 PUSH3 0x293F JUMP JUMPDEST SWAP3 POP DUP3 DUP3 LT ISZERO PUSH3 0x3147 JUMPI PUSH3 0x3146 PUSH3 0x30E8 JUMP JUMPDEST JUMPDEST DUP3 DUP3 SUB SWAP1 POP SWAP3 SWAP2 POP POP JUMP JUMPDEST PUSH32 0x4E487B7100000000000000000000000000000000000000000000000000000000 PUSH1 0x0 MSTORE PUSH1 0x32 PUSH1 0x4 MSTORE PUSH1 0x24 PUSH1 0x0 REVERT JUMPDEST PUSH1 0x0 PUSH3 0x318E DUP3 PUSH3 0x293F JUMP JUMPDEST SWAP2 POP PUSH32 0xFFFFFFFFFFFFFFFFFFFFFFFFFFFFFFFFFFFFFFFFFFFFFFFFFFFFFFFFFFFFFFFF DUP3 EQ ISZERO PUSH3 0x31C4 JUMPI PUSH3 0x31C3 PUSH3 0x30E8 JUMP JUMPDEST JUMPDEST PUSH1 0x1 DUP3 ADD SWAP1 POP SWAP2 SWAP1 POP JUMP JUMPDEST PUSH1 0x0 DUP2 MLOAD SWAP1 POP SWAP2 SWAP1 POP JUMP JUMPDEST PUSH1 0x0 JUMPDEST DUP4 DUP2 LT ISZERO PUSH3 0x31FA JUMPI DUP1 DUP3 ADD MLOAD DUP2 DUP5 ADD MSTORE PUSH1 0x20 DUP2 ADD SWAP1 POP PUSH3 0x31DD JUMP JUMPDEST DUP4 DUP2 GT ISZERO PUSH3 0x320A JUMPI PUSH1 0x0 DUP5 DUP5 ADD MSTORE JUMPDEST POP POP POP POP JUMP JUMPDEST PUSH1 0x0 PUSH3 0x321D DUP3 PUSH3 0x31CF JUMP JUMPDEST PUSH3 0x3229 DUP2 DUP6 PUSH3 0x2E47 JUMP JUMPDEST SWAP4 POP PUSH3 0x323B DUP2 DUP6 PUSH1 0x20 DUP7 ADD PUSH3 0x31DA JUMP JUMPDEST PUSH3 0x3246 DUP2 PUSH3 0x2B4B JUMP JUMPDEST DUP5 ADD SWAP2 POP POP SWAP3 SWAP2 POP POP JUMP JUMPDEST PUSH1 0x0 PUSH1 0x20 DUP3 ADD SWAP1 POP DUP2 DUP2 SUB PUSH1 0x0 DUP4 ADD MSTORE PUSH3 0x326D DUP2 DUP5 PUSH3 0x3210 JUMP JUMPDEST SWAP1 POP SWAP3 SWAP2 POP POP JUMP JUMPDEST PUSH32 0x4E487B7100000000000000000000000000000000000000000000000000000000 PUSH1 0x0 MSTORE PUSH1 0x21 PUSH1 0x4 MSTORE PUSH1 0x24 PUSH1 0x0 REVERT JUMPDEST PUSH1 0x3 DUP2 LT PUSH3 0x32B2 JUMPI PUSH1 0x0 DUP1 REVERT JUMPDEST POP JUMP JUMPDEST PUSH1 0x0 DUP2 MLOAD SWAP1 POP PUSH3 0x32C6 DUP2 PUSH3 0x32A4 JUMP JUMPDEST SWAP3 SWAP2 POP POP JUMP JUMPDEST PUSH1 0x0 PUSH1 0x20 DUP3 DUP5 SUB SLT ISZERO PUSH3 0x32E5 JUMPI PUSH3 0x32E4 PUSH3 0x289E JUMP JUMPDEST JUMPDEST PUSH1 0x0 PUSH3 0x32F5 DUP5 DUP3 DUP6 ADD PUSH3 0x32B5 JUMP JUMPDEST SWAP2 POP POP SWAP3 SWAP2 POP POP JUMP JUMPDEST PUSH32 0x436F6E747261637420737461747573206D757374206265206F70656E00000000 PUSH1 0x0 DUP3 ADD MSTORE POP JUMP JUMPDEST PUSH1 0x0 PUSH3 0x3336 PUSH1 0x1C DUP4 PUSH3 0x2E47 JUMP JUMPDEST SWAP2 POP PUSH3 0x3343 DUP3 PUSH3 0x32FE JUMP JUMPDEST PUSH1 0x20 DUP3 ADD SWAP1 POP SWAP2 SWAP1 POP JUMP JUMPDEST PUSH1 0x0 PUSH1 0x20 DUP3 ADD SWAP1 POP DUP2 DUP2 SUB PUSH1 0x0 DUP4 ADD MSTORE PUSH3 0x3369 DUP2 PUSH3 0x3327 JUMP JUMPDEST SWAP1 POP SWAP2 SWAP1 POP JUMP JUMPDEST PUSH32 0x4F6E6C792063726561746F72206F6620636F6E74726163742063616E20726571 PUSH1 0x0 DUP3 ADD MSTORE PUSH32 0x7565737420636F6D706C6574696F6E0000000000000000000000000000000000 PUSH1 0x20 DUP3 ADD MSTORE POP JUMP JUMPDEST PUSH1 0x0 PUSH3 0x33CE PUSH1 0x2F DUP4 PUSH3 0x2E47 JUMP JUMPDEST SWAP2 POP PUSH3 0x33DB DUP3 PUSH3 0x3370 JUMP JUMPDEST PUSH1 0x40 DUP3 ADD SWAP1 POP SWAP2 SWAP1 POP JUMP JUMPDEST PUSH1 0x0 PUSH1 0x20 DUP3 ADD SWAP1 POP DUP2 DUP2 SUB PUSH1 0x0 DUP4 ADD MSTORE PUSH3 0x3401 DUP2 PUSH3 0x33BF JUMP JUMPDEST SWAP1 POP SWAP2 SWAP1 POP JUMP JUMPDEST PUSH1 0x0 DUP2 SWAP1 POP SWAP2 SWAP1 POP JUMP JUMPDEST PUSH1 0x0 PUSH3 0x3433 PUSH3 0x342D PUSH3 0x3427 DUP5 PUSH3 0x28A8 JUMP JUMPDEST PUSH3 0x3408 JUMP JUMPDEST PUSH3 0x28A8 JUMP JUMPDEST SWAP1 POP SWAP2 SWAP1 POP JUMP JUMPDEST PUSH1 0x0 PUSH3 0x3447 DUP3 PUSH3 0x3412 JUMP JUMPDEST SWAP1 POP SWAP2 SWAP1 POP JUMP JUMPDEST PUSH1 0x0 PUSH3 0x345B DUP3 PUSH3 0x343A JUMP JUMPDEST SWAP1 POP SWAP2 SWAP1 POP JUMP JUMPDEST PUSH3 0x346D DUP2 PUSH3 0x344E JUMP JUMPDEST DUP3 MSTORE POP POP JUMP JUMPDEST PUSH1 0x0 PUSH1 0xC0 DUP3 ADD SWAP1 POP PUSH3 0x348A PUSH1 0x0 DUP4 ADD DUP10 PUSH3 0x2AE5 JUMP JUMPDEST PUSH3 0x3499 PUSH1 0x20 DUP4 ADD DUP9 PUSH3 0x2AE5 JUMP JUMPDEST DUP2 DUP2 SUB PUSH1 0x40 DUP4 ADD MSTORE PUSH3 0x34AD DUP2 DUP8 PUSH3 0x3210 JUMP JUMPDEST SWAP1 POP DUP2 DUP2 SUB PUSH1 0x60 DUP4 ADD MSTORE PUSH3 0x34C3 DUP2 DUP7 PUSH3 0x3210 JUMP JUMPDEST SWAP1 POP PUSH3 0x34D4 PUSH1 0x80 DUP4 ADD DUP6 PUSH3 0x3462 JUMP JUMPDEST PUSH3 0x34E3 PUSH1 0xA0 DUP4 ADD DUP5 PUSH3 0x2B13 JUMP JUMPDEST SWAP8 SWAP7 POP POP POP POP POP POP POP JUMP JUMPDEST PUSH1 0x0 PUSH3 0x34FB DUP3 PUSH3 0x293F JUMP JUMPDEST SWAP2 POP PUSH3 0x3508 DUP4 PUSH3 0x293F JUMP JUMPDEST SWAP3 POP DUP3 PUSH32 0xFFFFFFFFFFFFFFFFFFFFFFFFFFFFFFFFFFFFFFFFFFFFFFFFFFFFFFFFFFFFFFFF SUB DUP3 GT ISZERO PUSH3 0x3540 JUMPI PUSH3 0x353F PUSH3 0x30E8 JUMP JUMPDEST JUMPDEST DUP3 DUP3 ADD SWAP1 POP SWAP3 SWAP2 POP POP JUMP JUMPDEST PUSH32 0x4E487B7100000000000000000000000000000000000000000000000000000000 PUSH1 0x0 MSTORE PUSH1 0x31 PUSH1 0x4 MSTORE PUSH1 0x24 PUSH1 0x0 REVERT INVALID PUSH1 0x80 PUSH1 0x40 MSTORE CALLVALUE DUP1 ISZERO PUSH3 0x11 JUMPI PUSH1 0x0 DUP1 REVERT JUMPDEST POP PUSH1 0x40 MLOAD PUSH3 0xD19 CODESIZE SUB DUP1 PUSH3 0xD19 DUP4 CODECOPY DUP2 DUP2 ADD PUSH1 0x40 MSTORE DUP2 ADD SWAP1 PUSH3 0x37 SWAP2 SWAP1 PUSH3 0x280 JUMP JUMPDEST PUSH1 0x0 DUP2 SWAP1 POP DUP1 PUSH20 0xFFFFFFFFFFFFFFFFFFFFFFFFFFFFFFFFFFFFFFFF AND PUSH4 0x2D05D3F PUSH1 0x40 MLOAD DUP2 PUSH4 0xFFFFFFFF AND PUSH1 0xE0 SHL DUP2 MSTORE PUSH1 0x4 ADD PUSH1 0x20 PUSH1 0x40 MLOAD DUP1 DUP4 SUB DUP2 DUP7 GAS STATICCALL ISZERO DUP1 ISZERO PUSH3 0x88 JUMPI RETURNDATASIZE PUSH1 0x0 DUP1 RETURNDATACOPY RETURNDATASIZE PUSH1 0x0 REVERT JUMPDEST POP POP POP POP PUSH1 0x40 MLOAD RETURNDATASIZE PUSH1 0x1F NOT PUSH1 0x1F DUP3 ADD AND DUP3 ADD DUP1 PUSH1 0x40 MSTORE POP DUP2 ADD SWAP1 PUSH3 0xAE SWAP2 SWAP1 PUSH3 0x280 JUMP JUMPDEST PUSH1 0x0 DUP1 PUSH2 0x100 EXP DUP2 SLOAD DUP2 PUSH20 0xFFFFFFFFFFFFFFFFFFFFFFFFFFFFFFFFFFFFFFFF MUL NOT AND SWAP1 DUP4 PUSH20 0xFFFFFFFFFFFFFFFFFFFFFFFFFFFFFFFFFFFFFFFF AND MUL OR SWAP1 SSTORE POP DUP1 PUSH20 0xFFFFFFFFFFFFFFFFFFFFFFFFFFFFFFFFFFFFFFFF AND PUSH4 0x3B1BEBD1 PUSH1 0x40 MLOAD DUP2 PUSH4 0xFFFFFFFF AND PUSH1 0xE0 SHL DUP2 MSTORE PUSH1 0x4 ADD PUSH1 0x20 PUSH1 0x40 MLOAD DUP1 DUP4 SUB DUP2 DUP7 GAS STATICCALL ISZERO DUP1 ISZERO PUSH3 0x139 JUMPI RETURNDATASIZE PUSH1 0x0 DUP1 RETURNDATACOPY RETURNDATASIZE PUSH1 0x0 REVERT JUMPDEST POP POP POP POP PUSH1 0x40 MLOAD RETURNDATASIZE PUSH1 0x1F NOT PUSH1 0x1F DUP3 ADD AND DUP3 ADD DUP1 PUSH1 0x40 MSTORE POP DUP2 ADD SWAP1 PUSH3 0x15F SWAP2 SWAP1 PUSH3 0x280 JUMP JUMPDEST PUSH1 0x1 PUSH1 0x0 PUSH2 0x100 EXP DUP2 SLOAD DUP2 PUSH20 0xFFFFFFFFFFFFFFFFFFFFFFFFFFFFFFFFFFFFFFFF MUL NOT AND SWAP1 DUP4 PUSH20 0xFFFFFFFFFFFFFFFFFFFFFFFFFFFFFFFFFFFFFFFF AND MUL OR SWAP1 SSTORE POP DUP2 PUSH1 0x2 PUSH1 0x0 PUSH2 0x100 EXP DUP2 SLOAD DUP2 PUSH20 0xFFFFFFFFFFFFFFFFFFFFFFFFFFFFFFFFFFFFFFFF MUL NOT AND SWAP1 DUP4 PUSH20 0xFFFFFFFFFFFFFFFFFFFFFFFFFFFFFFFFFFFFFFFF AND MUL OR SWAP1 SSTORE POP PUSH1 0x0 PUSH1 0x2 PUSH1 0x14 PUSH2 0x100 EXP DUP2 SLOAD DUP2 PUSH1 0xFF MUL NOT AND SWAP1 DUP4 PUSH1 0x2 DUP2 GT ISZERO PUSH3 0x209 JUMPI PUSH3 0x208 PUSH3 0x2B2 JUMP JUMPDEST JUMPDEST MUL OR SWAP1 SSTORE POP POP POP PUSH3 0x2E1 JUMP JUMPDEST PUSH1 0x0 DUP1 REVERT JUMPDEST PUSH1 0x0 PUSH20 0xFFFFFFFFFFFFFFFFFFFFFFFFFFFFFFFFFFFFFFFF DUP3 AND SWAP1 POP SWAP2 SWAP1 POP JUMP JUMPDEST PUSH1 0x0 PUSH3 0x248 DUP3 PUSH3 0x21B JUMP JUMPDEST SWAP1 POP SWAP2 SWAP1 POP JUMP JUMPDEST PUSH3 0x25A DUP2 PUSH3 0x23B JUMP JUMPDEST DUP2 EQ PUSH3 0x266 JUMPI PUSH1 0x0 DUP1 REVERT JUMPDEST POP JUMP JUMPDEST PUSH1 0x0 DUP2 MLOAD SWAP1 POP PUSH3 0x27A DUP2 PUSH3 0x24F JUMP JUMPDEST SWAP3 SWAP2 POP POP JUMP JUMPDEST PUSH1 0x0 PUSH1 0x20 DUP3 DUP5 SUB SLT ISZERO PUSH3 0x299 JUMPI PUSH3 0x298 PUSH3 0x216 JUMP JUMPDEST JUMPDEST PUSH1 0x0 PUSH3 0x2A9 DUP5 DUP3 DUP6 ADD PUSH3 0x269 JUMP JUMPDEST SWAP2 POP POP SWAP3 SWAP2 POP POP JUMP JUMPDEST PUSH32 0x4E487B7100000000000000000000000000000000000000000000000000000000 PUSH1 0x0 MSTORE PUSH1 0x21 PUSH1 0x4 MSTORE PUSH1 0x24 PUSH1 0x0 REVERT JUMPDEST PUSH2 0xA28 DUP1 PUSH3 0x2F1 PUSH1 0x0 CODECOPY PUSH1 0x0 RETURN INVALID PUSH1 0x80 PUSH1 0x40 MSTORE CALLVALUE DUP1 ISZERO PUSH2 0x10 JUMPI PUSH1 0x0 DUP1 REVERT JUMPDEST POP PUSH1 0x4 CALLDATASIZE LT PUSH2 0x7D JUMPI PUSH1 0x0 CALLDATALOAD PUSH1 0xE0 SHR DUP1 PUSH4 0x3B1BEBD1 GT PUSH2 0x5B JUMPI DUP1 PUSH4 0x3B1BEBD1 EQ PUSH2 0xDC JUMPI DUP1 PUSH4 0x3C490174 EQ PUSH2 0xFA JUMPI DUP1 PUSH4 0x7A7F01A7 EQ PUSH2 0x118 JUMPI DUP1 PUSH4 0xD2DAA825 EQ PUSH2 0x136 JUMPI PUSH2 0x7D JUMP JUMPDEST DUP1 PUSH4 0x2D05D3F EQ PUSH2 0x82 JUMPI DUP1 PUSH4 0x200D2ED2 EQ PUSH2 0xA0 JUMPI DUP1 PUSH4 0x263B81C9 EQ PUSH2 0xBE JUMPI JUMPDEST PUSH1 0x0 DUP1 REVERT JUMPDEST PUSH2 0x8A PUSH2 0x166 JUMP JUMPDEST PUSH1 0x40 MLOAD PUSH2 0x97 SWAP2 SWAP1 PUSH2 0x4F9 JUMP JUMPDEST PUSH1 0x40 MLOAD DUP1 SWAP2 SUB SWAP1 RETURN JUMPDEST PUSH2 0xA8 PUSH2 0x18A JUMP JUMPDEST PUSH1 0x40 MLOAD PUSH2 0xB5 SWAP2 SWAP1 PUSH2 0x58B JUMP JUMPDEST PUSH1 0x40 MLOAD DUP1 SWAP2 SUB SWAP1 RETURN JUMPDEST PUSH2 0xC6 PUSH2 0x19D JUMP JUMPDEST PUSH1 0x40 MLOAD PUSH2 0xD3 SWAP2 SWAP1 PUSH2 0x605 JUMP JUMPDEST PUSH1 0x40 MLOAD DUP1 SWAP2 SUB SWAP1 RETURN JUMPDEST PUSH2 0xE4 PUSH2 0x260 JUMP JUMPDEST PUSH1 0x40 MLOAD PUSH2 0xF1 SWAP2 SWAP1 PUSH2 0x4F9 JUMP JUMPDEST PUSH1 0x40 MLOAD DUP1 SWAP2 SUB SWAP1 RETURN JUMPDEST PUSH2 0x102 PUSH2 0x286 JUMP JUMPDEST PUSH1 0x40 MLOAD PUSH2 0x10F SWAP2 SWAP1 PUSH2 0x4F9 JUMP JUMPDEST PUSH1 0x40 MLOAD DUP1 SWAP2 SUB SWAP1 RETURN JUMPDEST PUSH2 0x120 PUSH2 0x2AC JUMP JUMPDEST PUSH1 0x40 MLOAD PUSH2 0x12D SWAP2 SWAP1 PUSH2 0x6B9 JUMP JUMPDEST PUSH1 0x40 MLOAD DUP1 SWAP2 SUB SWAP1 RETURN JUMPDEST PUSH2 0x150 PUSH1 0x4 DUP1 CALLDATASIZE SUB DUP2 ADD SWAP1 PUSH2 0x14B SWAP2 SWAP1 PUSH2 0x824 JUMP JUMPDEST PUSH2 0x33A JUMP JUMPDEST PUSH1 0x40 MLOAD PUSH2 0x15D SWAP2 SWAP1 PUSH2 0x605 JUMP JUMPDEST PUSH1 0x40 MLOAD DUP1 SWAP2 SUB SWAP1 RETURN JUMPDEST PUSH1 0x0 DUP1 SLOAD SWAP1 PUSH2 0x100 EXP SWAP1 DIV PUSH20 0xFFFFFFFFFFFFFFFFFFFFFFFFFFFFFFFFFFFFFFFF AND DUP2 JUMP JUMPDEST PUSH1 0x2 PUSH1 0x14 SWAP1 SLOAD SWAP1 PUSH2 0x100 EXP SWAP1 DIV PUSH1 0xFF AND DUP2 JUMP JUMPDEST PUSH1 0x0 PUSH1 0x1 PUSH1 0x0 SWAP1 SLOAD SWAP1 PUSH2 0x100 EXP SWAP1 DIV PUSH20 0xFFFFFFFFFFFFFFFFFFFFFFFFFFFFFFFFFFFFFFFF AND PUSH20 0xFFFFFFFFFFFFFFFFFFFFFFFFFFFFFFFFFFFFFFFF AND ORIGIN PUSH20 0xFFFFFFFFFFFFFFFFFFFFFFFFFFFFFFFFFFFFFFFF AND EQ PUSH2 0x22F JUMPI PUSH1 0x40 MLOAD PUSH32 0x8C379A000000000000000000000000000000000000000000000000000000000 DUP2 MSTORE PUSH1 0x4 ADD PUSH2 0x226 SWAP1 PUSH2 0x8DF JUMP JUMPDEST PUSH1 0x40 MLOAD DUP1 SWAP2 SUB SWAP1 REVERT JUMPDEST PUSH1 0x1 PUSH1 0x2 PUSH1 0x14 PUSH2 0x100 EXP DUP2 SLOAD DUP2 PUSH1 0xFF MUL NOT AND SWAP1 DUP4 PUSH1 0x2 DUP2 GT ISZERO PUSH2 0x255 JUMPI PUSH2 0x254 PUSH2 0x514 JUMP JUMPDEST JUMPDEST MUL OR SWAP1 SSTORE POP ADDRESS SWAP1 POP SWAP1 JUMP JUMPDEST PUSH1 0x1 PUSH1 0x0 SWAP1 SLOAD SWAP1 PUSH2 0x100 EXP SWAP1 DIV PUSH20 0xFFFFFFFFFFFFFFFFFFFFFFFFFFFFFFFFFFFFFFFF AND DUP2 JUMP JUMPDEST PUSH1 0x2 PUSH1 0x0 SWAP1 SLOAD SWAP1 PUSH2 0x100 EXP SWAP1 DIV PUSH20 0xFFFFFFFFFFFFFFFFFFFFFFFFFFFFFFFFFFFFFFFF AND DUP2 JUMP JUMPDEST PUSH1 0x3 DUP1 SLOAD PUSH2 0x2B9 SWAP1 PUSH2 0x92E JUMP JUMPDEST DUP1 PUSH1 0x1F ADD PUSH1 0x20 DUP1 SWAP2 DIV MUL PUSH1 0x20 ADD PUSH1 0x40 MLOAD SWAP1 DUP2 ADD PUSH1 0x40 MSTORE DUP1 SWAP3 SWAP2 SWAP1 DUP2 DUP2 MSTORE PUSH1 0x20 ADD DUP3 DUP1 SLOAD PUSH2 0x2E5 SWAP1 PUSH2 0x92E JUMP JUMPDEST DUP1 ISZERO PUSH2 0x332 JUMPI DUP1 PUSH1 0x1F LT PUSH2 0x307 JUMPI PUSH2 0x100 DUP1 DUP4 SLOAD DIV MUL DUP4 MSTORE SWAP2 PUSH1 0x20 ADD SWAP2 PUSH2 0x332 JUMP JUMPDEST DUP3 ADD SWAP2 SWAP1 PUSH1 0x0 MSTORE PUSH1 0x20 PUSH1 0x0 KECCAK256 SWAP1 JUMPDEST DUP2 SLOAD DUP2 MSTORE SWAP1 PUSH1 0x1 ADD SWAP1 PUSH1 0x20 ADD DUP1 DUP4 GT PUSH2 0x315 JUMPI DUP3 SWAP1 SUB PUSH1 0x1F AND DUP3 ADD SWAP2 JUMPDEST POP POP POP POP POP DUP2 JUMP JUMPDEST PUSH1 0x0 PUSH1 0x1 PUSH1 0x0 SWAP1 SLOAD SWAP1 PUSH2 0x100 EXP SWAP1 DIV PUSH20 0xFFFFFFFFFFFFFFFFFFFFFFFFFFFFFFFFFFFFFFFF AND PUSH20 0xFFFFFFFFFFFFFFFFFFFFFFFFFFFFFFFFFFFFFFFF AND ORIGIN PUSH20 0xFFFFFFFFFFFFFFFFFFFFFFFFFFFFFFFFFFFFFFFF AND EQ PUSH2 0x3CC JUMPI PUSH1 0x40 MLOAD PUSH32 0x8C379A000000000000000000000000000000000000000000000000000000000 DUP2 MSTORE PUSH1 0x4 ADD PUSH2 0x3C3 SWAP1 PUSH2 0x9D2 JUMP JUMPDEST PUSH1 0x40 MLOAD DUP1 SWAP2 SUB SWAP1 REVERT JUMPDEST PUSH1 0x2 DUP1 PUSH1 0x14 PUSH2 0x100 EXP DUP2 SLOAD DUP2 PUSH1 0xFF MUL NOT AND SWAP1 DUP4 PUSH1 0x2 DUP2 GT ISZERO PUSH2 0x3F1 JUMPI PUSH2 0x3F0 PUSH2 0x514 JUMP JUMPDEST JUMPDEST MUL OR SWAP1 SSTORE POP DUP2 PUSH1 0x3 SWAP1 DUP1 MLOAD SWAP1 PUSH1 0x20 ADD SWAP1 PUSH2 0x40C SWAP3 SWAP2 SWAP1 PUSH2 0x415 JUMP JUMPDEST POP ADDRESS SWAP1 POP SWAP2 SWAP1 POP JUMP JUMPDEST DUP3 DUP1 SLOAD PUSH2 0x421 SWAP1 PUSH2 0x92E JUMP JUMPDEST SWAP1 PUSH1 0x0 MSTORE PUSH1 0x20 PUSH1 0x0 KECCAK256 SWAP1 PUSH1 0x1F ADD PUSH1 0x20 SWAP1 DIV DUP2 ADD SWAP3 DUP3 PUSH2 0x443 JUMPI PUSH1 0x0 DUP6 SSTORE PUSH2 0x48A JUMP JUMPDEST DUP3 PUSH1 0x1F LT PUSH2 0x45C JUMPI DUP1 MLOAD PUSH1 0xFF NOT AND DUP4 DUP1 ADD OR DUP6 SSTORE PUSH2 0x48A JUMP JUMPDEST DUP3 DUP1 ADD PUSH1 0x1 ADD DUP6 SSTORE DUP3 ISZERO PUSH2 0x48A JUMPI SWAP2 DUP3 ADD JUMPDEST DUP3 DUP2 GT ISZERO PUSH2 0x489 JUMPI DUP3 MLOAD DUP3 SSTORE SWAP2 PUSH1 0x20 ADD SWAP2 SWAP1 PUSH1 0x1 ADD SWAP1 PUSH2 0x46E JUMP JUMPDEST JUMPDEST POP SWAP1 POP PUSH2 0x497 SWAP2 SWAP1 PUSH2 0x49B JUMP JUMPDEST POP SWAP1 JUMP JUMPDEST JUMPDEST DUP1 DUP3 GT ISZERO PUSH2 0x4B4 JUMPI PUSH1 0x0 DUP2 PUSH1 0x0 SWAP1 SSTORE POP PUSH1 0x1 ADD PUSH2 0x49C JUMP JUMPDEST POP SWAP1 JUMP JUMPDEST PUSH1 0x0 PUSH20 0xFFFFFFFFFFFFFFFFFFFFFFFFFFFFFFFFFFFFFFFF DUP3 AND SWAP1 POP SWAP2 SWAP1 POP JUMP JUMPDEST PUSH1 0x0 PUSH2 0x4E3 DUP3 PUSH2 0x4B8 JUMP JUMPDEST SWAP1 POP SWAP2 SWAP1 POP JUMP JUMPDEST PUSH2 0x4F3 DUP2 PUSH2 0x4D8 JUMP JUMPDEST DUP3 MSTORE POP POP JUMP JUMPDEST PUSH1 0x0 PUSH1 0x20 DUP3 ADD SWAP1 POP PUSH2 0x50E PUSH1 0x0 DUP4 ADD DUP5 PUSH2 0x4EA JUMP JUMPDEST SWAP3 SWAP2 POP POP JUMP JUMPDEST PUSH32 0x4E487B7100000000000000000000000000000000000000000000000000000000 PUSH1 0x0 MSTORE PUSH1 0x21 PUSH1 0x4 MSTORE PUSH1 0x24 PUSH1 0x0 REVERT JUMPDEST PUSH1 0x3 DUP2 LT PUSH2 0x554 JUMPI PUSH2 0x553 PUSH2 0x514 JUMP JUMPDEST JUMPDEST POP JUMP JUMPDEST PUSH1 0x0 DUP2 SWAP1 POP PUSH2 0x565 DUP3 PUSH2 0x543 JUMP JUMPDEST SWAP2 SWAP1 POP JUMP JUMPDEST PUSH1 0x0 PUSH2 0x575 DUP3 PUSH2 0x557 JUMP JUMPDEST SWAP1 POP SWAP2 SWAP1 POP JUMP JUMPDEST PUSH2 0x585 DUP2 PUSH2 0x56A JUMP JUMPDEST DUP3 MSTORE POP POP JUMP JUMPDEST PUSH1 0x0 PUSH1 0x20 DUP3 ADD SWAP1 POP PUSH2 0x5A0 PUSH1 0x0 DUP4 ADD DUP5 PUSH2 0x57C JUMP JUMPDEST SWAP3 SWAP2 POP POP JUMP JUMPDEST PUSH1 0x0 DUP2 SWAP1 POP SWAP2 SWAP1 POP JUMP JUMPDEST PUSH1 0x0 PUSH2 0x5CB PUSH2 0x5C6 PUSH2 0x5C1 DUP5 PUSH2 0x4B8 JUMP JUMPDEST PUSH2 0x5A6 JUMP JUMPDEST PUSH2 0x4B8 JUMP JUMPDEST SWAP1 POP SWAP2 SWAP1 POP JUMP JUMPDEST PUSH1 0x0 PUSH2 0x5DD DUP3 PUSH2 0x5B0 JUMP JUMPDEST SWAP1 POP SWAP2 SWAP1 POP JUMP JUMPDEST PUSH1 0x0 PUSH2 0x5EF DUP3 PUSH2 0x5D2 JUMP JUMPDEST SWAP1 POP SWAP2 SWAP1 POP JUMP JUMPDEST PUSH2 0x5FF DUP2 PUSH2 0x5E4 JUMP JUMPDEST DUP3 MSTORE POP POP JUMP JUMPDEST PUSH1 0x0 PUSH1 0x20 DUP3 ADD SWAP1 POP PUSH2 0x61A PUSH1 0x0 DUP4 ADD DUP5 PUSH2 0x5F6 JUMP JUMPDEST SWAP3 SWAP2 POP POP JUMP JUMPDEST PUSH1 0x0 DUP2 MLOAD SWAP1 POP SWAP2 SWAP1 POP JUMP JUMPDEST PUSH1 0x0 DUP3 DUP3 MSTORE PUSH1 0x20 DUP3 ADD SWAP1 POP SWAP3 SWAP2 POP POP JUMP JUMPDEST PUSH1 0x0 JUMPDEST DUP4 DUP2 LT ISZERO PUSH2 0x65A JUMPI DUP1 DUP3 ADD MLOAD DUP2 DUP5 ADD MSTORE PUSH1 0x20 DUP2 ADD SWAP1 POP PUSH2 0x63F JUMP JUMPDEST DUP4 DUP2 GT ISZERO PUSH2 0x669 JUMPI PUSH1 0x0 DUP5 DUP5 ADD MSTORE JUMPDEST POP POP POP POP JUMP JUMPDEST PUSH1 0x0 PUSH1 0x1F NOT PUSH1 0x1F DUP4 ADD AND SWAP1 POP SWAP2 SWAP1 POP JUMP JUMPDEST PUSH1 0x0 PUSH2 0x68B DUP3 PUSH2 0x620 JUMP JUMPDEST PUSH2 0x695 DUP2 DUP6 PUSH2 0x62B JUMP JUMPDEST SWAP4 POP PUSH2 0x6A5 DUP2 DUP6 PUSH1 0x20 DUP7 ADD PUSH2 0x63C JUMP JUMPDEST PUSH2 0x6AE DUP2 PUSH2 0x66F JUMP JUMPDEST DUP5 ADD SWAP2 POP POP SWAP3 SWAP2 POP POP JUMP JUMPDEST PUSH1 0x0 PUSH1 0x20 DUP3 ADD SWAP1 POP DUP2 DUP2 SUB PUSH1 0x0 DUP4 ADD MSTORE PUSH2 0x6D3 DUP2 DUP5 PUSH2 0x680 JUMP JUMPDEST SWAP1 POP SWAP3 SWAP2 POP POP JUMP JUMPDEST PUSH1 0x0 PUSH1 0x40 MLOAD SWAP1 POP SWAP1 JUMP JUMPDEST PUSH1 0x0 DUP1 REVERT JUMPDEST PUSH1 0x0 DUP1 REVERT JUMPDEST PUSH1 0x0 DUP1 REVERT JUMPDEST PUSH1 0x0 DUP1 REVERT JUMPDEST PUSH32 0x4E487B7100000000000000000000000000000000000000000000000000000000 PUSH1 0x0 MSTORE PUSH1 0x41 PUSH1 0x4 MSTORE PUSH1 0x24 PUSH1 0x0 REVERT JUMPDEST PUSH2 0x731 DUP3 PUSH2 0x66F JUMP JUMPDEST DUP2 ADD DUP2 DUP2 LT PUSH8 0xFFFFFFFFFFFFFFFF DUP3 GT OR ISZERO PUSH2 0x750 JUMPI PUSH2 0x74F PUSH2 0x6F9 JUMP JUMPDEST JUMPDEST DUP1 PUSH1 0x40 MSTORE POP POP POP JUMP JUMPDEST PUSH1 0x0 PUSH2 0x763 PUSH2 0x6DB JUMP JUMPDEST SWAP1 POP PUSH2 0x76F DUP3 DUP3 PUSH2 0x728 JUMP JUMPDEST SWAP2 SWAP1 POP JUMP JUMPDEST PUSH1 0x0 PUSH8 0xFFFFFFFFFFFFFFFF DUP3 GT ISZERO PUSH2 0x78F JUMPI PUSH2 0x78E PUSH2 0x6F9 JUMP JUMPDEST JUMPDEST PUSH2 0x798 DUP3 PUSH2 0x66F JUMP JUMPDEST SWAP1 POP PUSH1 0x20 DUP2 ADD SWAP1 POP SWAP2 SWAP1 POP JUMP JUMPDEST DUP3 DUP2 DUP4 CALLDATACOPY PUSH1 0x0 DUP4 DUP4 ADD MSTORE POP POP POP JUMP JUMPDEST PUSH1 0x0 PUSH2 0x7C7 PUSH2 0x7C2 DUP5 PUSH2 0x774 JUMP JUMPDEST PUSH2 0x759 JUMP JUMPDEST SWAP1 POP DUP3 DUP2 MSTORE PUSH1 0x20 DUP2 ADD DUP5 DUP5 DUP5 ADD GT ISZERO PUSH2 0x7E3 JUMPI PUSH2 0x7E2 PUSH2 0x6F4 JUMP JUMPDEST JUMPDEST PUSH2 0x7EE DUP5 DUP3 DUP6 PUSH2 0x7A5 JUMP JUMPDEST POP SWAP4 SWAP3 POP POP POP JUMP JUMPDEST PUSH1 0x0 DUP3 PUSH1 0x1F DUP4 ADD SLT PUSH2 0x80B JUMPI PUSH2 0x80A PUSH2 0x6EF JUMP JUMPDEST JUMPDEST DUP2 CALLDATALOAD PUSH2 0x81B DUP5 DUP3 PUSH1 0x20 DUP7 ADD PUSH2 0x7B4 JUMP JUMPDEST SWAP2 POP POP SWAP3 SWAP2 POP POP JUMP JUMPDEST PUSH1 0x0 PUSH1 0x20 DUP3 DUP5 SUB SLT ISZERO PUSH2 0x83A JUMPI PUSH2 0x839 PUSH2 0x6E5 JUMP JUMPDEST JUMPDEST PUSH1 0x0 DUP3 ADD CALLDATALOAD PUSH8 0xFFFFFFFFFFFFFFFF DUP2 GT ISZERO PUSH2 0x858 JUMPI PUSH2 0x857 PUSH2 0x6EA JUMP JUMPDEST JUMPDEST PUSH2 0x864 DUP5 DUP3 DUP6 ADD PUSH2 0x7F6 JUMP JUMPDEST SWAP2 POP POP SWAP3 SWAP2 POP POP JUMP JUMPDEST PUSH32 0x4F6E6C7920726566657265652063616E20617070726F766520617070726F7661 PUSH1 0x0 DUP3 ADD MSTORE PUSH32 0x6C20726571756573740000000000000000000000000000000000000000000000 PUSH1 0x20 DUP3 ADD MSTORE POP JUMP JUMPDEST PUSH1 0x0 PUSH2 0x8C9 PUSH1 0x29 DUP4 PUSH2 0x62B JUMP JUMPDEST SWAP2 POP PUSH2 0x8D4 DUP3 PUSH2 0x86D JUMP JUMPDEST PUSH1 0x40 DUP3 ADD SWAP1 POP SWAP2 SWAP1 POP JUMP JUMPDEST PUSH1 0x0 PUSH1 0x20 DUP3 ADD SWAP1 POP DUP2 DUP2 SUB PUSH1 0x0 DUP4 ADD MSTORE PUSH2 0x8F8 DUP2 PUSH2 0x8BC JUMP JUMPDEST SWAP1 POP SWAP2 SWAP1 POP JUMP JUMPDEST PUSH32 0x4E487B7100000000000000000000000000000000000000000000000000000000 PUSH1 0x0 MSTORE PUSH1 0x22 PUSH1 0x4 MSTORE PUSH1 0x24 PUSH1 0x0 REVERT JUMPDEST PUSH1 0x0 PUSH1 0x2 DUP3 DIV SWAP1 POP PUSH1 0x1 DUP3 AND DUP1 PUSH2 0x946 JUMPI PUSH1 0x7F DUP3 AND SWAP2 POP JUMPDEST PUSH1 0x20 DUP3 LT DUP2 EQ ISZERO PUSH2 0x95A JUMPI PUSH2 0x959 PUSH2 0x8FF JUMP JUMPDEST JUMPDEST POP SWAP2 SWAP1 POP JUMP JUMPDEST PUSH32 0x4F6E6C7920726566657265652063616E2064656E7920617070726F76616C2072 PUSH1 0x0 DUP3 ADD MSTORE PUSH32 0x6571756573740000000000000000000000000000000000000000000000000000 PUSH1 0x20 DUP3 ADD MSTORE POP JUMP JUMPDEST PUSH1 0x0 PUSH2 0x9BC PUSH1 0x26 DUP4 PUSH2 0x62B JUMP JUMPDEST SWAP2 POP PUSH2 0x9C7 DUP3 PUSH2 0x960 JUMP JUMPDEST PUSH1 0x40 DUP3 ADD SWAP1 POP SWAP2 SWAP1 POP JUMP JUMPDEST PUSH1 0x0 PUSH1 0x20 DUP3 ADD SWAP1 POP DUP2 DUP2 SUB PUSH1 0x0 DUP4 ADD MSTORE PUSH2 0x9EB DUP2 PUSH2 0x9AF JUMP JUMPDEST SWAP1 POP SWAP2 SWAP1 POP JUMP INVALID LOG2 PUSH5 0x6970667358 0x22 SLT KECCAK256 PUSH11 0x3229443FA6A62C6FEF0EF6 0xCF 0xD 0xBB 0xA5 0xEF LOG3 MSIZE SWAP10 0xD DUP11 0xEB 0xD2 0xBA GASPRICE 0xD5 0xE6 0xB4 MSTORE8 DUP1 0xDD PUSH5 0x736F6C6343 STOP ADDMOD 0xC STOP CALLER PUSH1 0x80 PUSH1 0x40 MSTORE PUSH1 0x40 MLOAD PUSH3 0x119C CODESIZE SUB DUP1 PUSH3 0x119C DUP4 CODECOPY DUP2 DUP2 ADD PUSH1 0x40 MSTORE DUP2 ADD SWAP1 PUSH3 0x29 SWAP2 SWAP1 PUSH3 0x44B JUMP JUMPDEST DUP6 PUSH1 0x0 DUP1 PUSH2 0x100 EXP DUP2 SLOAD DUP2 PUSH20 0xFFFFFFFFFFFFFFFFFFFFFFFFFFFFFFFFFFFFFFFF MUL NOT AND SWAP1 DUP4 PUSH20 0xFFFFFFFFFFFFFFFFFFFFFFFFFFFFFFFFFFFFFFFF AND MUL OR SWAP1 SSTORE POP DUP5 PUSH1 0x1 PUSH1 0x0 PUSH2 0x100 EXP DUP2 SLOAD DUP2 PUSH20 0xFFFFFFFFFFFFFFFFFFFFFFFFFFFFFFFFFFFFFFFF MUL NOT AND SWAP1 DUP4 PUSH20 0xFFFFFFFFFFFFFFFFFFFFFFFFFFFFFFFFFFFFFFFF AND MUL OR SWAP1 SSTORE POP DUP4 PUSH1 0x2 SWAP1 DUP1 MLOAD SWAP1 PUSH1 0x20 ADD SWAP1 PUSH3 0xC2 SWAP3 SWAP2 SWAP1 PUSH3 0x15E JUMP JUMPDEST POP DUP3 PUSH1 0x3 SWAP1 DUP1 MLOAD SWAP1 PUSH1 0x20 ADD SWAP1 PUSH3 0xDB SWAP3 SWAP2 SWAP1 PUSH3 0x15E JUMP JUMPDEST POP DUP2 PUSH1 0x4 PUSH1 0x0 PUSH2 0x100 EXP DUP2 SLOAD DUP2 PUSH20 0xFFFFFFFFFFFFFFFFFFFFFFFFFFFFFFFFFFFFFFFF MUL NOT AND SWAP1 DUP4 PUSH20 0xFFFFFFFFFFFFFFFFFFFFFFFFFFFFFFFFFFFFFFFF AND MUL OR SWAP1 SSTORE POP DUP1 PUSH1 0x5 DUP2 SWAP1 SSTORE POP PUSH1 0x0 PUSH1 0x6 PUSH1 0x0 PUSH2 0x100 EXP DUP2 SLOAD DUP2 PUSH1 0xFF MUL NOT AND SWAP1 DUP4 PUSH1 0x2 DUP2 GT ISZERO PUSH3 0x14D JUMPI PUSH3 0x14C PUSH3 0x525 JUMP JUMPDEST JUMPDEST MUL OR SWAP1 SSTORE POP POP POP POP POP POP POP PUSH3 0x5B9 JUMP JUMPDEST DUP3 DUP1 SLOAD PUSH3 0x16C SWAP1 PUSH3 0x583 JUMP JUMPDEST SWAP1 PUSH1 0x0 MSTORE PUSH1 0x20 PUSH1 0x0 KECCAK256 SWAP1 PUSH1 0x1F ADD PUSH1 0x20 SWAP1 DIV DUP2 ADD SWAP3 DUP3 PUSH3 0x190 JUMPI PUSH1 0x0 DUP6 SSTORE PUSH3 0x1DC JUMP JUMPDEST DUP3 PUSH1 0x1F LT PUSH3 0x1AB JUMPI DUP1 MLOAD PUSH1 0xFF NOT AND DUP4 DUP1 ADD OR DUP6 SSTORE PUSH3 0x1DC JUMP JUMPDEST DUP3 DUP1 ADD PUSH1 0x1 ADD DUP6 SSTORE DUP3 ISZERO PUSH3 0x1DC JUMPI SWAP2 DUP3 ADD JUMPDEST DUP3 DUP2 GT ISZERO PUSH3 0x1DB JUMPI DUP3 MLOAD DUP3 SSTORE SWAP2 PUSH1 0x20 ADD SWAP2 SWAP1 PUSH1 0x1 ADD SWAP1 PUSH3 0x1BE JUMP JUMPDEST JUMPDEST POP SWAP1 POP PUSH3 0x1EB SWAP2 SWAP1 PUSH3 0x1EF JUMP JUMPDEST POP SWAP1 JUMP JUMPDEST JUMPDEST DUP1 DUP3 GT ISZERO PUSH3 0x20A JUMPI PUSH1 0x0 DUP2 PUSH1 0x0 SWAP1 SSTORE POP PUSH1 0x1 ADD PUSH3 0x1F0 JUMP JUMPDEST POP SWAP1 JUMP JUMPDEST PUSH1 0x0 PUSH1 0x40 MLOAD SWAP1 POP SWAP1 JUMP JUMPDEST PUSH1 0x0 DUP1 REVERT JUMPDEST PUSH1 0x0 DUP1 REVERT JUMPDEST PUSH1 0x0 PUSH20 0xFFFFFFFFFFFFFFFFFFFFFFFFFFFFFFFFFFFFFFFF DUP3 AND SWAP1 POP SWAP2 SWAP1 POP JUMP JUMPDEST PUSH1 0x0 PUSH3 0x24F DUP3 PUSH3 0x222 JUMP JUMPDEST SWAP1 POP SWAP2 SWAP1 POP JUMP JUMPDEST PUSH3 0x261 DUP2 PUSH3 0x242 JUMP JUMPDEST DUP2 EQ PUSH3 0x26D JUMPI PUSH1 0x0 DUP1 REVERT JUMPDEST POP JUMP JUMPDEST PUSH1 0x0 DUP2 MLOAD SWAP1 POP PUSH3 0x281 DUP2 PUSH3 0x256 JUMP JUMPDEST SWAP3 SWAP2 POP POP JUMP JUMPDEST PUSH1 0x0 DUP1 REVERT JUMPDEST PUSH1 0x0 DUP1 REVERT JUMPDEST PUSH1 0x0 PUSH1 0x1F NOT PUSH1 0x1F DUP4 ADD AND SWAP1 POP SWAP2 SWAP1 POP JUMP JUMPDEST PUSH32 0x4E487B7100000000000000000000000000000000000000000000000000000000 PUSH1 0x0 MSTORE PUSH1 0x41 PUSH1 0x4 MSTORE PUSH1 0x24 PUSH1 0x0 REVERT JUMPDEST PUSH3 0x2DC DUP3 PUSH3 0x291 JUMP JUMPDEST DUP2 ADD DUP2 DUP2 LT PUSH8 0xFFFFFFFFFFFFFFFF DUP3 GT OR ISZERO PUSH3 0x2FE JUMPI PUSH3 0x2FD PUSH3 0x2A2 JUMP JUMPDEST JUMPDEST DUP1 PUSH1 0x40 MSTORE POP POP POP JUMP JUMPDEST PUSH1 0x0 PUSH3 0x313 PUSH3 0x20E JUMP JUMPDEST SWAP1 POP PUSH3 0x321 DUP3 DUP3 PUSH3 0x2D1 JUMP JUMPDEST SWAP2 SWAP1 POP JUMP JUMPDEST PUSH1 0x0 PUSH8 0xFFFFFFFFFFFFFFFF DUP3 GT ISZERO PUSH3 0x344 JUMPI PUSH3 0x343 PUSH3 0x2A2 JUMP JUMPDEST JUMPDEST PUSH3 0x34F DUP3 PUSH3 0x291 JUMP JUMPDEST SWAP1 POP PUSH1 0x20 DUP2 ADD SWAP1 POP SWAP2 SWAP1 POP JUMP JUMPDEST PUSH1 0x0 JUMPDEST DUP4 DUP2 LT ISZERO PUSH3 0x37C JUMPI DUP1 DUP3 ADD MLOAD DUP2 DUP5 ADD MSTORE PUSH1 0x20 DUP2 ADD SWAP1 POP PUSH3 0x35F JUMP JUMPDEST DUP4 DUP2 GT ISZERO PUSH3 0x38C JUMPI PUSH1 0x0 DUP5 DUP5 ADD MSTORE JUMPDEST POP POP POP POP JUMP JUMPDEST PUSH1 0x0 PUSH3 0x3A9 PUSH3 0x3A3 DUP5 PUSH3 0x326 JUMP JUMPDEST PUSH3 0x307 JUMP JUMPDEST SWAP1 POP DUP3 DUP2 MSTORE PUSH1 0x20 DUP2 ADD DUP5 DUP5 DUP5 ADD GT ISZERO PUSH3 0x3C8 JUMPI PUSH3 0x3C7 PUSH3 0x28C JUMP JUMPDEST JUMPDEST PUSH3 0x3D5 DUP5 DUP3 DUP6 PUSH3 0x35C JUMP JUMPDEST POP SWAP4 SWAP3 POP POP POP JUMP JUMPDEST PUSH1 0x0 DUP3 PUSH1 0x1F DUP4 ADD SLT PUSH3 0x3F5 JUMPI PUSH3 0x3F4 PUSH3 0x287 JUMP JUMPDEST JUMPDEST DUP2 MLOAD PUSH3 0x407 DUP5 DUP3 PUSH1 0x20 DUP7 ADD PUSH3 0x392 JUMP JUMPDEST SWAP2 POP POP SWAP3 SWAP2 POP POP JUMP JUMPDEST PUSH1 0x0 DUP2 SWAP1 POP SWAP2 SWAP1 POP JUMP JUMPDEST PUSH3 0x425 DUP2 PUSH3 0x410 JUMP JUMPDEST DUP2 EQ PUSH3 0x431 JUMPI PUSH1 0x0 DUP1 REVERT JUMPDEST POP JUMP JUMPDEST PUSH1 0x0 DUP2 MLOAD SWAP1 POP PUSH3 0x445 DUP2 PUSH3 0x41A JUMP JUMPDEST SWAP3 SWAP2 POP POP JUMP JUMPDEST PUSH1 0x0 DUP1 PUSH1 0x0 DUP1 PUSH1 0x0 DUP1 PUSH1 0xC0 DUP8 DUP10 SUB SLT ISZERO PUSH3 0x46B JUMPI PUSH3 0x46A PUSH3 0x218 JUMP JUMPDEST JUMPDEST PUSH1 0x0 PUSH3 0x47B DUP10 DUP3 DUP11 ADD PUSH3 0x270 JUMP JUMPDEST SWAP7 POP POP PUSH1 0x20 PUSH3 0x48E DUP10 DUP3 DUP11 ADD PUSH3 0x270 JUMP JUMPDEST SWAP6 POP POP PUSH1 0x40 DUP8 ADD MLOAD PUSH8 0xFFFFFFFFFFFFFFFF DUP2 GT ISZERO PUSH3 0x4B2 JUMPI PUSH3 0x4B1 PUSH3 0x21D JUMP JUMPDEST JUMPDEST PUSH3 0x4C0 DUP10 DUP3 DUP11 ADD PUSH3 0x3DD JUMP JUMPDEST SWAP5 POP POP PUSH1 0x60 DUP8 ADD MLOAD PUSH8 0xFFFFFFFFFFFFFFFF DUP2 GT ISZERO PUSH3 0x4E4 JUMPI PUSH3 0x4E3 PUSH3 0x21D JUMP JUMPDEST JUMPDEST PUSH3 0x4F2 DUP10 DUP3 DUP11 ADD PUSH3 0x3DD JUMP JUMPDEST SWAP4 POP POP PUSH1 0x80 PUSH3 0x505 DUP10 DUP3 DUP11 ADD PUSH3 0x270 JUMP JUMPDEST SWAP3 POP POP PUSH1 0xA0 PUSH3 0x518 DUP10 DUP3 DUP11 ADD PUSH3 0x434 JUMP JUMPDEST SWAP2 POP POP SWAP3 SWAP6 POP SWAP3 SWAP6 POP SWAP3 SWAP6 JUMP JUMPDEST PUSH32 0x4E487B7100000000000000000000000000000000000000000000000000000000 PUSH1 0x0 MSTORE PUSH1 0x21 PUSH1 0x4 MSTORE PUSH1 0x24 PUSH1 0x0 REVERT JUMPDEST PUSH32 0x4E487B7100000000000000000000000000000000000000000000000000000000 PUSH1 0x0 MSTORE PUSH1 0x22 PUSH1 0x4 MSTORE PUSH1 0x24 PUSH1 0x0 REVERT JUMPDEST PUSH1 0x0 PUSH1 0x2 DUP3 DIV SWAP1 POP PUSH1 0x1 DUP3 AND DUP1 PUSH3 0x59C JUMPI PUSH1 0x7F DUP3 AND SWAP2 POP JUMPDEST PUSH1 0x20 DUP3 LT DUP2 EQ ISZERO PUSH3 0x5B3 JUMPI PUSH3 0x5B2 PUSH3 0x554 JUMP JUMPDEST JUMPDEST POP SWAP2 SWAP1 POP JUMP JUMPDEST PUSH2 0xBD3 DUP1 PUSH3 0x5C9 PUSH1 0x0 CODECOPY PUSH1 0x0 RETURN INVALID PUSH1 0x80 PUSH1 0x40 MSTORE PUSH1 0x4 CALLDATASIZE LT PUSH2 0x86 JUMPI PUSH1 0x0 CALLDATALOAD PUSH1 0xE0 SHR DUP1 PUSH4 0x3B1BEBD1 GT PUSH2 0x59 JUMPI DUP1 PUSH4 0x3B1BEBD1 EQ PUSH2 0x12A JUMPI DUP1 PUSH4 0x4177FE51 EQ PUSH2 0x155 JUMPI DUP1 PUSH4 0x7284E416 EQ PUSH2 0x180 JUMPI DUP1 PUSH4 0xAA8C217C EQ PUSH2 0x1AB JUMPI DUP1 PUSH4 0xB4FEDC11 EQ PUSH2 0x1D6 JUMPI PUSH2 0x86 JUMP JUMPDEST DUP1 PUSH4 0x2D05D3F EQ PUSH2 0x8B JUMPI DUP1 PUSH4 0x6FDDE03 EQ PUSH2 0xB6 JUMPI DUP1 PUSH4 0x200D2ED2 EQ PUSH2 0xE1 JUMPI DUP1 PUSH4 0x2D398FA6 EQ PUSH2 0x10C JUMPI JUMPDEST PUSH1 0x0 DUP1 REVERT JUMPDEST CALLVALUE DUP1 ISZERO PUSH2 0x97 JUMPI PUSH1 0x0 DUP1 REVERT JUMPDEST POP PUSH2 0xA0 PUSH2 0x1F4 JUMP JUMPDEST PUSH1 0x40 MLOAD PUSH2 0xAD SWAP2 SWAP1 PUSH2 0x770 JUMP JUMPDEST PUSH1 0x40 MLOAD DUP1 SWAP2 SUB SWAP1 RETURN JUMPDEST CALLVALUE DUP1 ISZERO PUSH2 0xC2 JUMPI PUSH1 0x0 DUP1 REVERT JUMPDEST POP PUSH2 0xCB PUSH2 0x218 JUMP JUMPDEST PUSH1 0x40 MLOAD PUSH2 0xD8 SWAP2 SWAP1 PUSH2 0x824 JUMP JUMPDEST PUSH1 0x40 MLOAD DUP1 SWAP2 SUB SWAP1 RETURN JUMPDEST CALLVALUE DUP1 ISZERO PUSH2 0xED JUMPI PUSH1 0x0 DUP1 REVERT JUMPDEST POP PUSH2 0xF6 PUSH2 0x2A6 JUMP JUMPDEST PUSH1 0x40 MLOAD PUSH2 0x103 SWAP2 SWAP1 PUSH2 0x8BD JUMP JUMPDEST PUSH1 0x40 MLOAD DUP1 SWAP2 SUB SWAP1 RETURN JUMPDEST PUSH2 0x114 PUSH2 0x2B9 JUMP JUMPDEST PUSH1 0x40 MLOAD PUSH2 0x121 SWAP2 SWAP1 PUSH2 0x937 JUMP JUMPDEST PUSH1 0x40 MLOAD DUP1 SWAP2 SUB SWAP1 RETURN JUMPDEST CALLVALUE DUP1 ISZERO PUSH2 0x136 JUMPI PUSH1 0x0 DUP1 REVERT JUMPDEST POP PUSH2 0x13F PUSH2 0x4B0 JUMP JUMPDEST PUSH1 0x40 MLOAD PUSH2 0x14C SWAP2 SWAP1 PUSH2 0x770 JUMP JUMPDEST PUSH1 0x40 MLOAD DUP1 SWAP2 SUB SWAP1 RETURN JUMPDEST CALLVALUE DUP1 ISZERO PUSH2 0x161 JUMPI PUSH1 0x0 DUP1 REVERT JUMPDEST POP PUSH2 0x16A PUSH2 0x4D6 JUMP JUMPDEST PUSH1 0x40 MLOAD PUSH2 0x177 SWAP2 SWAP1 PUSH2 0x770 JUMP JUMPDEST PUSH1 0x40 MLOAD DUP1 SWAP2 SUB SWAP1 RETURN JUMPDEST CALLVALUE DUP1 ISZERO PUSH2 0x18C JUMPI PUSH1 0x0 DUP1 REVERT JUMPDEST POP PUSH2 0x195 PUSH2 0x4FC JUMP JUMPDEST PUSH1 0x40 MLOAD PUSH2 0x1A2 SWAP2 SWAP1 PUSH2 0x824 JUMP JUMPDEST PUSH1 0x40 MLOAD DUP1 SWAP2 SUB SWAP1 RETURN JUMPDEST CALLVALUE DUP1 ISZERO PUSH2 0x1B7 JUMPI PUSH1 0x0 DUP1 REVERT JUMPDEST POP PUSH2 0x1C0 PUSH2 0x58A JUMP JUMPDEST PUSH1 0x40 MLOAD PUSH2 0x1CD SWAP2 SWAP1 PUSH2 0x96B JUMP JUMPDEST PUSH1 0x40 MLOAD DUP1 SWAP2 SUB SWAP1 RETURN JUMPDEST PUSH2 0x1DE PUSH2 0x590 JUMP JUMPDEST PUSH1 0x40 MLOAD PUSH2 0x1EB SWAP2 SWAP1 PUSH2 0x937 JUMP JUMPDEST PUSH1 0x40 MLOAD DUP1 SWAP2 SUB SWAP1 RETURN JUMPDEST PUSH1 0x0 DUP1 SLOAD SWAP1 PUSH2 0x100 EXP SWAP1 DIV PUSH20 0xFFFFFFFFFFFFFFFFFFFFFFFFFFFFFFFFFFFFFFFF AND DUP2 JUMP JUMPDEST PUSH1 0x2 DUP1 SLOAD PUSH2 0x225 SWAP1 PUSH2 0x9B5 JUMP JUMPDEST DUP1 PUSH1 0x1F ADD PUSH1 0x20 DUP1 SWAP2 DIV MUL PUSH1 0x20 ADD PUSH1 0x40 MLOAD SWAP1 DUP2 ADD PUSH1 0x40 MSTORE DUP1 SWAP3 SWAP2 SWAP1 DUP2 DUP2 MSTORE PUSH1 0x20 ADD DUP3 DUP1 SLOAD PUSH2 0x251 SWAP1 PUSH2 0x9B5 JUMP JUMPDEST DUP1 ISZERO PUSH2 0x29E JUMPI DUP1 PUSH1 0x1F LT PUSH2 0x273 JUMPI PUSH2 0x100 DUP1 DUP4 SLOAD DIV MUL DUP4 MSTORE SWAP2 PUSH1 0x20 ADD SWAP2 PUSH2 0x29E JUMP JUMPDEST DUP3 ADD SWAP2 SWAP1 PUSH1 0x0 MSTORE PUSH1 0x20 PUSH1 0x0 KECCAK256 SWAP1 JUMPDEST DUP2 SLOAD DUP2 MSTORE SWAP1 PUSH1 0x1 ADD SWAP1 PUSH1 0x20 ADD DUP1 DUP4 GT PUSH2 0x281 JUMPI DUP3 SWAP1 SUB PUSH1 0x1F AND DUP3 ADD SWAP2 JUMPDEST POP POP POP POP POP DUP2 JUMP JUMPDEST PUSH1 0x6 PUSH1 0x0 SWAP1 SLOAD SWAP1 PUSH2 0x100 EXP SWAP1 DIV PUSH1 0xFF AND DUP2 JUMP JUMPDEST PUSH1 0x0 DUP1 PUSH1 0x2 DUP2 GT ISZERO PUSH2 0x2CE JUMPI PUSH2 0x2CD PUSH2 0x846 JUMP JUMPDEST JUMPDEST PUSH1 0x6 PUSH1 0x0 SWAP1 SLOAD SWAP1 PUSH2 0x100 EXP SWAP1 DIV PUSH1 0xFF AND PUSH1 0x2 DUP2 GT ISZERO PUSH2 0x2F0 JUMPI PUSH2 0x2EF PUSH2 0x846 JUMP JUMPDEST JUMPDEST EQ PUSH2 0x330 JUMPI PUSH1 0x40 MLOAD PUSH32 0x8C379A000000000000000000000000000000000000000000000000000000000 DUP2 MSTORE PUSH1 0x4 ADD PUSH2 0x327 SWAP1 PUSH2 0xA59 JUMP JUMPDEST PUSH1 0x40 MLOAD DUP1 SWAP2 SUB SWAP1 REVERT JUMPDEST PUSH1 0x1 PUSH1 0x0 SWAP1 SLOAD SWAP1 PUSH2 0x100 EXP SWAP1 DIV PUSH20 0xFFFFFFFFFFFFFFFFFFFFFFFFFFFFFFFFFFFFFFFF AND PUSH20 0xFFFFFFFFFFFFFFFFFFFFFFFFFFFFFFFFFFFFFFFF AND ORIGIN PUSH20 0xFFFFFFFFFFFFFFFFFFFFFFFFFFFFFFFFFFFFFFFF AND EQ DUP1 PUSH2 0x3D7 JUMPI POP PUSH1 0x0 DUP1 SLOAD SWAP1 PUSH2 0x100 EXP SWAP1 DIV PUSH20 0xFFFFFFFFFFFFFFFFFFFFFFFFFFFFFFFFFFFFFFFF AND PUSH20 0xFFFFFFFFFFFFFFFFFFFFFFFFFFFFFFFFFFFFFFFF AND ORIGIN PUSH20 0xFFFFFFFFFFFFFFFFFFFFFFFFFFFFFFFFFFFFFFFF AND EQ JUMPDEST PUSH2 0x416 JUMPI PUSH1 0x40 MLOAD PUSH32 0x8C379A000000000000000000000000000000000000000000000000000000000 DUP2 MSTORE PUSH1 0x4 ADD PUSH2 0x40D SWAP1 PUSH2 0xAEB JUMP JUMPDEST PUSH1 0x40 MLOAD DUP1 SWAP2 SUB SWAP1 REVERT JUMPDEST PUSH1 0x4 PUSH1 0x0 SWAP1 SLOAD SWAP1 PUSH2 0x100 EXP SWAP1 DIV PUSH20 0xFFFFFFFFFFFFFFFFFFFFFFFFFFFFFFFFFFFFFFFF AND PUSH20 0xFFFFFFFFFFFFFFFFFFFFFFFFFFFFFFFFFFFFFFFF AND PUSH2 0x8FC SELFBALANCE SWAP1 DUP2 ISZERO MUL SWAP1 PUSH1 0x40 MLOAD PUSH1 0x0 PUSH1 0x40 MLOAD DUP1 DUP4 SUB DUP2 DUP6 DUP9 DUP9 CALL SWAP4 POP POP POP POP ISZERO DUP1 ISZERO PUSH2 0x47E JUMPI RETURNDATASIZE PUSH1 0x0 DUP1 RETURNDATACOPY RETURNDATASIZE PUSH1 0x0 REVERT JUMPDEST POP PUSH1 0x2 PUSH1 0x6 PUSH1 0x0 PUSH2 0x100 EXP DUP2 SLOAD DUP2 PUSH1 0xFF MUL NOT AND SWAP1 DUP4 PUSH1 0x2 DUP2 GT ISZERO PUSH2 0x4A5 JUMPI PUSH2 0x4A4 PUSH2 0x846 JUMP JUMPDEST JUMPDEST MUL OR SWAP1 SSTORE POP ADDRESS SWAP1 POP SWAP1 JUMP JUMPDEST PUSH1 0x1 PUSH1 0x0 SWAP1 SLOAD SWAP1 PUSH2 0x100 EXP SWAP1 DIV PUSH20 0xFFFFFFFFFFFFFFFFFFFFFFFFFFFFFFFFFFFFFFFF AND DUP2 JUMP JUMPDEST PUSH1 0x4 PUSH1 0x0 SWAP1 SLOAD SWAP1 PUSH2 0x100 EXP SWAP1 DIV PUSH20 0xFFFFFFFFFFFFFFFFFFFFFFFFFFFFFFFFFFFFFFFF AND DUP2 JUMP JUMPDEST PUSH1 0x3 DUP1 SLOAD PUSH2 0x509 SWAP1 PUSH2 0x9B5 JUMP JUMPDEST DUP1 PUSH1 0x1F ADD PUSH1 0x20 DUP1 SWAP2 DIV MUL PUSH1 0x20 ADD PUSH1 0x40 MLOAD SWAP1 DUP2 ADD PUSH1 0x40 MSTORE DUP1 SWAP3 SWAP2 SWAP1 DUP2 DUP2 MSTORE PUSH1 0x20 ADD DUP3 DUP1 SLOAD PUSH2 0x535 SWAP1 PUSH2 0x9B5 JUMP JUMPDEST DUP1 ISZERO PUSH2 0x582 JUMPI DUP1 PUSH1 0x1F LT PUSH2 0x557 JUMPI PUSH2 0x100 DUP1 DUP4 SLOAD DIV MUL DUP4 MSTORE SWAP2 PUSH1 0x20 ADD SWAP2 PUSH2 0x582 JUMP JUMPDEST DUP3 ADD SWAP2 SWAP1 PUSH1 0x0 MSTORE PUSH1 0x20 PUSH1 0x0 KECCAK256 SWAP1 JUMPDEST DUP2 SLOAD DUP2 MSTORE SWAP1 PUSH1 0x1 ADD SWAP1 PUSH1 0x20 ADD DUP1 DUP4 GT PUSH2 0x565 JUMPI DUP3 SWAP1 SUB PUSH1 0x1F AND DUP3 ADD SWAP2 JUMPDEST POP POP POP POP POP DUP2 JUMP JUMPDEST PUSH1 0x5 SLOAD DUP2 JUMP JUMPDEST PUSH1 0x0 DUP1 PUSH1 0x2 DUP2 GT ISZERO PUSH2 0x5A5 JUMPI PUSH2 0x5A4 PUSH2 0x846 JUMP JUMPDEST JUMPDEST PUSH1 0x6 PUSH1 0x0 SWAP1 SLOAD SWAP1 PUSH2 0x100 EXP SWAP1 DIV PUSH1 0xFF AND PUSH1 0x2 DUP2 GT ISZERO PUSH2 0x5C7 JUMPI PUSH2 0x5C6 PUSH2 0x846 JUMP JUMPDEST JUMPDEST EQ PUSH2 0x607 JUMPI PUSH1 0x40 MLOAD PUSH32 0x8C379A000000000000000000000000000000000000000000000000000000000 DUP2 MSTORE PUSH1 0x4 ADD PUSH2 0x5FE SWAP1 PUSH2 0xA59 JUMP JUMPDEST PUSH1 0x40 MLOAD DUP1 SWAP2 SUB SWAP1 REVERT JUMPDEST PUSH1 0x1 PUSH1 0x0 SWAP1 SLOAD SWAP1 PUSH2 0x100 EXP SWAP1 DIV PUSH20 0xFFFFFFFFFFFFFFFFFFFFFFFFFFFFFFFFFFFFFFFF AND PUSH20 0xFFFFFFFFFFFFFFFFFFFFFFFFFFFFFFFFFFFFFFFF AND ORIGIN PUSH20 0xFFFFFFFFFFFFFFFFFFFFFFFFFFFFFFFFFFFFFFFF AND EQ PUSH2 0x697 JUMPI PUSH1 0x40 MLOAD PUSH32 0x8C379A000000000000000000000000000000000000000000000000000000000 DUP2 MSTORE PUSH1 0x4 ADD PUSH2 0x68E SWAP1 PUSH2 0xB7D JUMP JUMPDEST PUSH1 0x40 MLOAD DUP1 SWAP2 SUB SWAP1 REVERT JUMPDEST PUSH1 0x0 DUP1 SLOAD SWAP1 PUSH2 0x100 EXP SWAP1 DIV PUSH20 0xFFFFFFFFFFFFFFFFFFFFFFFFFFFFFFFFFFFFFFFF AND PUSH20 0xFFFFFFFFFFFFFFFFFFFFFFFFFFFFFFFFFFFFFFFF AND PUSH2 0x8FC SELFBALANCE SWAP1 DUP2 ISZERO MUL SWAP1 PUSH1 0x40 MLOAD PUSH1 0x0 PUSH1 0x40 MLOAD DUP1 DUP4 SUB DUP2 DUP6 DUP9 DUP9 CALL SWAP4 POP POP POP POP ISZERO DUP1 ISZERO PUSH2 0x6FD JUMPI RETURNDATASIZE PUSH1 0x0 DUP1 RETURNDATACOPY RETURNDATASIZE PUSH1 0x0 REVERT JUMPDEST POP PUSH1 0x1 PUSH1 0x6 PUSH1 0x0 PUSH2 0x100 EXP DUP2 SLOAD DUP2 PUSH1 0xFF MUL NOT AND SWAP1 DUP4 PUSH1 0x2 DUP2 GT ISZERO PUSH2 0x724 JUMPI PUSH2 0x723 PUSH2 0x846 JUMP JUMPDEST JUMPDEST MUL OR SWAP1 SSTORE POP ADDRESS SWAP1 POP SWAP1 JUMP JUMPDEST PUSH1 0x0 PUSH20 0xFFFFFFFFFFFFFFFFFFFFFFFFFFFFFFFFFFFFFFFF DUP3 AND SWAP1 POP SWAP2 SWAP1 POP JUMP JUMPDEST PUSH1 0x0 PUSH2 0x75A DUP3 PUSH2 0x72F JUMP JUMPDEST SWAP1 POP SWAP2 SWAP1 POP JUMP JUMPDEST PUSH2 0x76A DUP2 PUSH2 0x74F JUMP JUMPDEST DUP3 MSTORE POP POP JUMP JUMPDEST PUSH1 0x0 PUSH1 0x20 DUP3 ADD SWAP1 POP PUSH2 0x785 PUSH1 0x0 DUP4 ADD DUP5 PUSH2 0x761 JUMP JUMPDEST SWAP3 SWAP2 POP POP JUMP JUMPDEST PUSH1 0x0 DUP2 MLOAD SWAP1 POP SWAP2 SWAP1 POP JUMP JUMPDEST PUSH1 0x0 DUP3 DUP3 MSTORE PUSH1 0x20 DUP3 ADD SWAP1 POP SWAP3 SWAP2 POP POP JUMP JUMPDEST PUSH1 0x0 JUMPDEST DUP4 DUP2 LT ISZERO PUSH2 0x7C5 JUMPI DUP1 DUP3 ADD MLOAD DUP2 DUP5 ADD MSTORE PUSH1 0x20 DUP2 ADD SWAP1 POP PUSH2 0x7AA JUMP JUMPDEST DUP4 DUP2 GT ISZERO PUSH2 0x7D4 JUMPI PUSH1 0x0 DUP5 DUP5 ADD MSTORE JUMPDEST POP POP POP POP JUMP JUMPDEST PUSH1 0x0 PUSH1 0x1F NOT PUSH1 0x1F DUP4 ADD AND SWAP1 POP SWAP2 SWAP1 POP JUMP JUMPDEST PUSH1 0x0 PUSH2 0x7F6 DUP3 PUSH2 0x78B JUMP JUMPDEST PUSH2 0x800 DUP2 DUP6 PUSH2 0x796 JUMP JUMPDEST SWAP4 POP PUSH2 0x810 DUP2 DUP6 PUSH1 0x20 DUP7 ADD PUSH2 0x7A7 JUMP JUMPDEST PUSH2 0x819 DUP2 PUSH2 0x7DA JUMP JUMPDEST DUP5 ADD SWAP2 POP POP SWAP3 SWAP2 POP POP JUMP JUMPDEST PUSH1 0x0 PUSH1 0x20 DUP3 ADD SWAP1 POP DUP2 DUP2 SUB PUSH1 0x0 DUP4 ADD MSTORE PUSH2 0x83E DUP2 DUP5 PUSH2 0x7EB JUMP JUMPDEST SWAP1 POP SWAP3 SWAP2 POP POP JUMP JUMPDEST PUSH32 0x4E487B7100000000000000000000000000000000000000000000000000000000 PUSH1 0x0 MSTORE PUSH1 0x21 PUSH1 0x4 MSTORE PUSH1 0x24 PUSH1 0x0 REVERT JUMPDEST PUSH1 0x3 DUP2 LT PUSH2 0x886 JUMPI PUSH2 0x885 PUSH2 0x846 JUMP JUMPDEST JUMPDEST POP JUMP JUMPDEST PUSH1 0x0 DUP2 SWAP1 POP PUSH2 0x897 DUP3 PUSH2 0x875 JUMP JUMPDEST SWAP2 SWAP1 POP JUMP JUMPDEST PUSH1 0x0 PUSH2 0x8A7 DUP3 PUSH2 0x889 JUMP JUMPDEST SWAP1 POP SWAP2 SWAP1 POP JUMP JUMPDEST PUSH2 0x8B7 DUP2 PUSH2 0x89C JUMP JUMPDEST DUP3 MSTORE POP POP JUMP JUMPDEST PUSH1 0x0 PUSH1 0x20 DUP3 ADD SWAP1 POP PUSH2 0x8D2 PUSH1 0x0 DUP4 ADD DUP5 PUSH2 0x8AE JUMP JUMPDEST SWAP3 SWAP2 POP POP JUMP JUMPDEST PUSH1 0x0 DUP2 SWAP1 POP SWAP2 SWAP1 POP JUMP JUMPDEST PUSH1 0x0 PUSH2 0x8FD PUSH2 0x8F8 PUSH2 0x8F3 DUP5 PUSH2 0x72F JUMP JUMPDEST PUSH2 0x8D8 JUMP JUMPDEST PUSH2 0x72F JUMP JUMPDEST SWAP1 POP SWAP2 SWAP1 POP JUMP JUMPDEST PUSH1 0x0 PUSH2 0x90F DUP3 PUSH2 0x8E2 JUMP JUMPDEST SWAP1 POP SWAP2 SWAP1 POP JUMP JUMPDEST PUSH1 0x0 PUSH2 0x921 DUP3 PUSH2 0x904 JUMP JUMPDEST SWAP1 POP SWAP2 SWAP1 POP JUMP JUMPDEST PUSH2 0x931 DUP2 PUSH2 0x916 JUMP JUMPDEST DUP3 MSTORE POP POP JUMP JUMPDEST PUSH1 0x0 PUSH1 0x20 DUP3 ADD SWAP1 POP PUSH2 0x94C PUSH1 0x0 DUP4 ADD DUP5 PUSH2 0x928 JUMP JUMPDEST SWAP3 SWAP2 POP POP JUMP JUMPDEST PUSH1 0x0 DUP2 SWAP1 POP SWAP2 SWAP1 POP JUMP JUMPDEST PUSH2 0x965 DUP2 PUSH2 0x952 JUMP JUMPDEST DUP3 MSTORE POP POP JUMP JUMPDEST PUSH1 0x0 PUSH1 0x20 DUP3 ADD SWAP1 POP PUSH2 0x980 PUSH1 0x0 DUP4 ADD DUP5 PUSH2 0x95C JUMP JUMPDEST SWAP3 SWAP2 POP POP JUMP JUMPDEST PUSH32 0x4E487B7100000000000000000000000000000000000000000000000000000000 PUSH1 0x0 MSTORE PUSH1 0x22 PUSH1 0x4 MSTORE PUSH1 0x24 PUSH1 0x0 REVERT JUMPDEST PUSH1 0x0 PUSH1 0x2 DUP3 DIV SWAP1 POP PUSH1 0x1 DUP3 AND DUP1 PUSH2 0x9CD JUMPI PUSH1 0x7F DUP3 AND SWAP2 POP JUMPDEST PUSH1 0x20 DUP3 LT DUP2 EQ ISZERO PUSH2 0x9E1 JUMPI PUSH2 0x9E0 PUSH2 0x986 JUMP JUMPDEST JUMPDEST POP SWAP2 SWAP1 POP JUMP JUMPDEST PUSH32 0x436F6E747261637420737461747573206973206E6F7420657175616C20746F20 PUSH1 0x0 DUP3 ADD MSTORE PUSH32 0x6F70656E00000000000000000000000000000000000000000000000000000000 PUSH1 0x20 DUP3 ADD MSTORE POP JUMP JUMPDEST PUSH1 0x0 PUSH2 0xA43 PUSH1 0x24 DUP4 PUSH2 0x796 JUMP JUMPDEST SWAP2 POP PUSH2 0xA4E DUP3 PUSH2 0x9E7 JUMP JUMPDEST PUSH1 0x40 DUP3 ADD SWAP1 POP SWAP2 SWAP1 POP JUMP JUMPDEST PUSH1 0x0 PUSH1 0x20 DUP3 ADD SWAP1 POP DUP2 DUP2 SUB PUSH1 0x0 DUP4 ADD MSTORE PUSH2 0xA72 DUP2 PUSH2 0xA36 JUMP JUMPDEST SWAP1 POP SWAP2 SWAP1 POP JUMP JUMPDEST PUSH32 0x4F6E6C792072656665726565206F722063726561746F722063616E206661696C PUSH1 0x0 DUP3 ADD MSTORE PUSH32 0x20636F6E74726163740000000000000000000000000000000000000000000000 PUSH1 0x20 DUP3 ADD MSTORE POP JUMP JUMPDEST PUSH1 0x0 PUSH2 0xAD5 PUSH1 0x29 DUP4 PUSH2 0x796 JUMP JUMPDEST SWAP2 POP PUSH2 0xAE0 DUP3 PUSH2 0xA79 JUMP JUMPDEST PUSH1 0x40 DUP3 ADD SWAP1 POP SWAP2 SWAP1 POP JUMP JUMPDEST PUSH1 0x0 PUSH1 0x20 DUP3 ADD SWAP1 POP DUP2 DUP2 SUB PUSH1 0x0 DUP4 ADD MSTORE PUSH2 0xB04 DUP2 PUSH2 0xAC8 JUMP JUMPDEST SWAP1 POP SWAP2 SWAP1 POP JUMP JUMPDEST PUSH32 0x4F6E6C7920726566657265652063616E20636F6D706C657465206120636F6E74 PUSH1 0x0 DUP3 ADD MSTORE PUSH32 0x7261637400000000000000000000000000000000000000000000000000000000 PUSH1 0x20 DUP3 ADD MSTORE POP JUMP JUMPDEST PUSH1 0x0 PUSH2 0xB67 PUSH1 0x24 DUP4 PUSH2 0x796 JUMP JUMPDEST SWAP2 POP PUSH2 0xB72 DUP3 PUSH2 0xB0B JUMP JUMPDEST PUSH1 0x40 DUP3 ADD SWAP1 POP SWAP2 SWAP1 POP JUMP JUMPDEST PUSH1 0x0 PUSH1 0x20 DUP3 ADD SWAP1 POP DUP2 DUP2 SUB PUSH1 0x0 DUP4 ADD MSTORE PUSH2 0xB96 DUP2 PUSH2 0xB5A JUMP JUMPDEST SWAP1 POP SWAP2 SWAP1 POP JUMP INVALID LOG2 PUSH5 0x6970667358 0x22 SLT KECCAK256 MUL DUP8 0x21 0xC5 0x5C AND DUP15 JUMPI MSTORE8 SWAP2 PUSH23 0xBA96FC45384ABC9896E58FD978DD5F56EC9A5426F66473 PUSH16 0x6C634300080C0033A264697066735822 SLT KECCAK256 0x4A 0xEE PUSH12 0x5272A713A9FAD75C3C96BFC9 DUP7 CODESIZE 0x4F 0xDB 0x5E LOG0 0xA8 0xE0 0xA5 0xE2 0xAD SELFBALANCE 0xBD DUP5 CALLDATASIZE 0x25 MUL PUSH5 0x736F6C6343 STOP ADDMOD 0xC STOP CALLER "},"gasEstimates":{"creation":{"codeDepositCost":"4321000","executionCost":"4999","totalCost":"4325999"},"external":{"accountabilityContractAddresses(uint256)":"5046","approveRequest(address)":"infinite","completeOpenAccountabilityContract(address)":"infinite","createAccountabilityContract(address,string,string,address)":"infinite","failOpenAccountabilityContract(address)":"infinite","getAccountabilityContractAddresses(uint256,uint256)":"infinite","getClosedAccountabilityContractAddressesForReferee(address)":"infinite","getClosedAccountabilityContractAddressesForUser(address)":"infinite","getCompleteAccountabilityContractRequestsForReferee(address)":"infinite","getOpenAccountabilityContractAddressesForReferee(address)":"infinite","getOpenAccountabilityContractAddressesForUser(address)":"infinite","getUserAddresses(uint256,uint256)":"infinite","numberOfAccountabilityContracts()":"2474","numberOfReferees()":"2473","numberOfUsers()":"2474","refereeAddresses(uint256)":"5068","referees(address)":"2851","rejectRequest(address,string)":"infinite","requestApproval(address)":"infinite","totalEthInContracts()":"2517","userAddresses(uint256)":"5045","users(address)":"2917"},"internal":{"getContractIndexForReferee(address,address)":"infinite","getContractIndexForUser(address,address)":"infinite","moveOpenContractToClosedContractsForReferee(address,address)":"infinite","moveOpenContractToClosedContractsForUser(address,address)":"infinite"}},"methodIdentifiers":{"accountabilityContractAddresses(uint256)":"38db44bc","approveRequest(address)":"061dff9a","completeOpenAccountabilityContract(address)":"61542c44","createAccountabilityContract(address,string,string,address)":"e436e826","failOpenAccountabilityContract(address)":"5b259abf","getAccountabilityContractAddresses(uint256,uint256)":"0e865751","getClosedAccountabilityContractAddressesForReferee(address)":"19ee8bd4","getClosedAccountabilityContractAddressesForUser(address)":"b24e67d0","getCompleteAccountabilityContractRequestsForReferee(address)":"4ea34671","getOpenAccountabilityContractAddressesForReferee(address)":"9051e234","getOpenAccountabilityContractAddressesForUser(address)":"442a7bc7","getUserAddresses(uint256,uint256)":"a908f4fa","numberOfAccountabilityContracts()":"4841a885","numberOfReferees()":"b3b6633e","numberOfUsers()":"75ce46a7","refereeAddresses(uint256)":"38fb42fd","referees(address)":"64a60b47","rejectRequest(address,string)":"d77399e5","requestApproval(address)":"e10bc834","totalEthInContracts()":"dc0e0c13","userAddresses(uint256)":"502c9bd5","users(address)":"a87430ba"}}}