{"abi":[{"inputs":[{"internalType":"uint256","name":"","type":"uint256"}],"name":"accountabilityContractAddresses","outputs":[{"internalType":"address","name":"","type":"address"}],"stateMutability":"view","type":"function"},{"inputs":[{"internalType":"address","name":"user","type":"address"},{"internalType":"address","name":"contractAddress","type":"address"}],"name":"completeOpenAccountabilityContract","outputs":[],"stateMutability":"nonpayable","type":"function"},{"inputs":[{"internalType":"address","name":"_referee","type":"address"},{"internalType":"string","name":"_name","type":"string"},{"internalType":"string","name":"_description","type":"string"},{"internalType":"address payable","name":"_failureRecipient","type":"address"}],"name":"createAccountabilityContract","outputs":[],"stateMutability":"payable","type":"function"},{"inputs":[{"internalType":"address","name":"user","type":"address"},{"internalType":"address","name":"contractAddress","type":"address"}],"name":"failOpenAccountabilityContract","outputs":[],"stateMutability":"nonpayable","type":"function"},{"inputs":[{"internalType":"uint256","name":"startIndex","type":"uint256"},{"internalType":"uint256","name":"endIndex","type":"uint256"}],"name":"getAccountabilityContractAddresses","outputs":[{"internalType":"address[]","name":"","type":"address[]"}],"stateMutability":"view","type":"function"},{"inputs":[{"internalType":"address","name":"referee","type":"address"}],"name":"getClosedAccountabilityContractAddressesForReferee","outputs":[{"internalType":"address[]","name":"","type":"address[]"}],"stateMutability":"view","type":"function"},{"inputs":[{"internalType":"address","name":"user","type":"address"}],"name":"getClosedAccountabilityContractAddressesForUser","outputs":[{"internalType":"address[]","name":"","type":"address[]"}],"stateMutability":"view","type":"function"},{"inputs":[{"internalType":"address","name":"referee","type":"address"}],"name":"getCompleteAccountabilityContractRequestsForReferee","outputs":[{"internalType":"address[]","name":"","type":"address[]"}],"stateMutability":"view","type":"function"},{"inputs":[{"internalType":"address","name":"referee","type":"address"}],"name":"getOpenAccountabilityContractAddressesForReferee","outputs":[{"internalType":"address[]","name":"","type":"address[]"}],"stateMutability":"view","type":"function"},{"inputs":[{"internalType":"address","name":"user","type":"address"}],"name":"getOpenAccountabilityContractAddressesForUser","outputs":[{"internalType":"address[]","name":"","type":"address[]"}],"stateMutability":"view","type":"function"},{"inputs":[{"internalType":"uint256","name":"startIndex","type":"uint256"},{"internalType":"uint256","name":"endIndex","type":"uint256"}],"name":"getUserAddresses","outputs":[{"internalType":"address[]","name":"","type":"address[]"}],"stateMutability":"view","type":"function"},{"inputs":[],"name":"numberOfAccountabilityContracts","outputs":[{"internalType":"uint256","name":"","type":"uint256"}],"stateMutability":"view","type":"function"},{"inputs":[],"name":"numberOfReferees","outputs":[{"internalType":"uint256","name":"","type":"uint256"}],"stateMutability":"view","type":"function"},{"inputs":[],"name":"numberOfUsers","outputs":[{"internalType":"uint256","name":"","type":"uint256"}],"stateMutability":"view","type":"function"},{"inputs":[{"internalType":"uint256","name":"","type":"uint256"}],"name":"refereeAddresses","outputs":[{"internalType":"address","name":"","type":"address"}],"stateMutability":"view","type":"function"},{"inputs":[{"internalType":"address","name":"","type":"address"}],"name":"referees","outputs":[{"internalType":"uint256","name":"managedContracts","type":"uint256"}],"stateMutability":"view","type":"function"},{"inputs":[{"internalType":"address","name":"referee","type":"address"},{"internalType":"address","name":"contractAddress","type":"address"}],"name":"requestRefereeCompletesContract","outputs":[],"stateMutability":"nonpayable","type":"function"},{"inputs":[],"name":"totalEthInContracts","outputs":[{"internalType":"uint256","name":"","type":"uint256"}],"stateMutability":"view","type":"function"},{"inputs":[{"internalType":"uint256","name":"","type":"uint256"}],"name":"userAddresses","outputs":[{"internalType":"address","name":"","type":"address"}],"stateMutability":"view","type":"function"},{"inputs":[{"internalType":"address","name":"","type":"address"}],"name":"users","outputs":[{"internalType":"uint256","name":"createdContracts","type":"uint256"}],"stateMutability":"view","type":"function"}],"evm":{"assembly":"    /* \"Contracts\":57:7852  contract AccountabilityContractFactory {... */\n  mstore(0x40, 0x80)\n  callvalue\n  dup1\n  iszero\n  tag_1\n  jumpi\n  0x00\n  dup1\n  revert\ntag_1:\n  pop\n  dataSize(sub_0)\n  dup1\n  dataOffset(sub_0)\n  0x00\n  codecopy\n  0x00\n  return\nstop\n\nsub_0: assembly {\n        /* \"Contracts\":57:7852  contract AccountabilityContractFactory {... */\n      mstore(0x40, 0x80)\n      jumpi(tag_1, lt(calldatasize, 0x04))\n      shr(0xe0, calldataload(0x00))\n      dup1\n      0x64a60b47\n      gt\n      tag_22\n      jumpi\n      dup1\n      0xb24e67d0\n      gt\n      tag_23\n      jumpi\n      dup1\n      0xb24e67d0\n      eq\n      tag_17\n      jumpi\n      dup1\n      0xb3b6633e\n      eq\n      tag_18\n      jumpi\n      dup1\n      0xcc785850\n      eq\n      tag_19\n      jumpi\n      dup1\n      0xdc0e0c13\n      eq\n      tag_20\n      jumpi\n      dup1\n      0xe436e826\n      eq\n      tag_21\n      jumpi\n      jump(tag_1)\n    tag_23:\n      dup1\n      0x64a60b47\n      eq\n      tag_12\n      jumpi\n      dup1\n      0x75ce46a7\n      eq\n      tag_13\n      jumpi\n      dup1\n      0x9051e234\n      eq\n      tag_14\n      jumpi\n      dup1\n      0xa87430ba\n      eq\n      tag_15\n      jumpi\n      dup1\n      0xa908f4fa\n      eq\n      tag_16\n      jumpi\n      jump(tag_1)\n    tag_22:\n      dup1\n      0x442a7bc7\n      gt\n      tag_24\n      jumpi\n      dup1\n      0x442a7bc7\n      eq\n      tag_7\n      jumpi\n      dup1\n      0x4841a885\n      eq\n      tag_8\n      jumpi\n      dup1\n      0x4ac0b82d\n      eq\n      tag_9\n      jumpi\n      dup1\n      0x4ea34671\n      eq\n      tag_10\n      jumpi\n      dup1\n      0x502c9bd5\n      eq\n      tag_11\n      jumpi\n      jump(tag_1)\n    tag_24:\n      dup1\n      0x01af65e7\n      eq\n      tag_2\n      jumpi\n      dup1\n      0x0e865751\n      eq\n      tag_3\n      jumpi\n      dup1\n      0x19ee8bd4\n      eq\n      tag_4\n      jumpi\n      dup1\n      0x38db44bc\n      eq\n      tag_5\n      jumpi\n      dup1\n      0x38fb42fd\n      eq\n      tag_6\n      jumpi\n    tag_1:\n      0x00\n      dup1\n      revert\n        /* \"Contracts\":3664:4467  function requestRefereeCompletesContract(address referee, address contractAddress) public {... */\n    tag_2:\n      callvalue\n      dup1\n      iszero\n      tag_25\n      jumpi\n      0x00\n      dup1\n      revert\n    tag_25:\n      pop\n      tag_26\n      0x04\n      dup1\n      calldatasize\n      sub\n      dup2\n      add\n      swap1\n      tag_27\n      swap2\n      swap1\n      tag_28\n      jump\t// in\n    tag_27:\n      tag_29\n      jump\t// in\n    tag_26:\n      stop\n        /* \"Contracts\":7247:7850  function getAccountabilityContractAddresses(uint startIndex, uint endIndex) public view returns (address[] memory) {... */\n    tag_3:\n      callvalue\n      dup1\n      iszero\n      tag_30\n      jumpi\n      0x00\n      dup1\n      revert\n    tag_30:\n      pop\n      tag_31\n      0x04\n      dup1\n      calldatasize\n      sub\n      dup2\n      add\n      swap1\n      tag_32\n      swap2\n      swap1\n      tag_33\n      jump\t// in\n    tag_32:\n      tag_34\n      jump\t// in\n    tag_31:\n      mload(0x40)\n      tag_35\n      swap2\n      swap1\n      tag_36\n      jump\t// in\n    tag_35:\n      mload(0x40)\n      dup1\n      swap2\n      sub\n      swap1\n      return\n        /* \"Contracts\":2431:2625  function getClosedAccountabilityContractAddressesForReferee(address referee) public view returns (address[] memory){... */\n    tag_4:\n      callvalue\n      dup1\n      iszero\n      tag_37\n      jumpi\n      0x00\n      dup1\n      revert\n    tag_37:\n      pop\n      tag_38\n      0x04\n      dup1\n      calldatasize\n      sub\n      dup2\n      add\n      swap1\n      tag_39\n      swap2\n      swap1\n      tag_40\n      jump\t// in\n    tag_39:\n      tag_41\n      jump\t// in\n    tag_38:\n      mload(0x40)\n      tag_42\n      swap2\n      swap1\n      tag_36\n      jump\t// in\n    tag_42:\n      mload(0x40)\n      dup1\n      swap2\n      sub\n      swap1\n      return\n        /* \"Contracts\":204:252  address[] public accountabilityContractAddresses */\n    tag_5:\n      callvalue\n      dup1\n      iszero\n      tag_43\n      jumpi\n      0x00\n      dup1\n      revert\n    tag_43:\n      pop\n      tag_44\n      0x04\n      dup1\n      calldatasize\n      sub\n      dup2\n      add\n      swap1\n      tag_45\n      swap2\n      swap1\n      tag_46\n      jump\t// in\n    tag_45:\n      tag_47\n      jump\t// in\n    tag_44:\n      mload(0x40)\n      tag_48\n      swap2\n      swap1\n      tag_49\n      jump\t// in\n    tag_48:\n      mload(0x40)\n      dup1\n      swap2\n      sub\n      swap1\n      return\n        /* \"Contracts\":417:450  address[] public refereeAddresses */\n    tag_6:\n      callvalue\n      dup1\n      iszero\n      tag_50\n      jumpi\n      0x00\n      dup1\n      revert\n    tag_50:\n      pop\n      tag_51\n      0x04\n      dup1\n      calldatasize\n      sub\n      dup2\n      add\n      swap1\n      tag_52\n      swap2\n      swap1\n      tag_46\n      jump\t// in\n    tag_52:\n      tag_53\n      jump\t// in\n    tag_51:\n      mload(0x40)\n      tag_54\n      swap2\n      swap1\n      tag_49\n      jump\t// in\n    tag_54:\n      mload(0x40)\n      dup1\n      swap2\n      sub\n      swap1\n      return\n        /* \"Contracts\":1863:2041  function getOpenAccountabilityContractAddressesForUser(address user) public view returns (address[] memory){... */\n    tag_7:\n      callvalue\n      dup1\n      iszero\n      tag_55\n      jumpi\n      0x00\n      dup1\n      revert\n    tag_55:\n      pop\n      tag_56\n      0x04\n      dup1\n      calldatasize\n      sub\n      dup2\n      add\n      swap1\n      tag_57\n      swap2\n      swap1\n      tag_40\n      jump\t// in\n    tag_57:\n      tag_58\n      jump\t// in\n    tag_56:\n      mload(0x40)\n      tag_59\n      swap2\n      swap1\n      tag_36\n      jump\t// in\n    tag_59:\n      mload(0x40)\n      dup1\n      swap2\n      sub\n      swap1\n      return\n        /* \"Contracts\":256:299  uint public numberOfAccountabilityContracts */\n    tag_8:\n      callvalue\n      dup1\n      iszero\n      tag_60\n      jumpi\n      0x00\n      dup1\n      revert\n    tag_60:\n      pop\n      tag_61\n      tag_62\n      jump\t// in\n    tag_61:\n      mload(0x40)\n      tag_63\n      swap2\n      swap1\n      tag_64\n      jump\t// in\n    tag_63:\n      mload(0x40)\n      dup1\n      swap2\n      sub\n      swap1\n      return\n        /* \"Contracts\":2833:3238  function failOpenAccountabilityContract(address user, address contractAddress) public {... */\n    tag_9:\n      callvalue\n      dup1\n      iszero\n      tag_65\n      jumpi\n      0x00\n      dup1\n      revert\n    tag_65:\n      pop\n      tag_66\n      0x04\n      dup1\n      calldatasize\n      sub\n      dup2\n      add\n      swap1\n      tag_67\n      swap2\n      swap1\n      tag_28\n      jump\t// in\n    tag_67:\n      tag_68\n      jump\t// in\n    tag_66:\n      stop\n        /* \"Contracts\":2631:2827  function getCompleteAccountabilityContractRequestsForReferee(address referee) public view returns (address[] memory){... */\n    tag_10:\n      callvalue\n      dup1\n      iszero\n      tag_69\n      jumpi\n      0x00\n      dup1\n      revert\n    tag_69:\n      pop\n      tag_70\n      0x04\n      dup1\n      calldatasize\n      sub\n      dup2\n      add\n      swap1\n      tag_71\n      swap2\n      swap1\n      tag_40\n      jump\t// in\n    tag_71:\n      tag_72\n      jump\t// in\n    tag_70:\n      mload(0x40)\n      tag_73\n      swap2\n      swap1\n      tag_36\n      jump\t// in\n    tag_73:\n      mload(0x40)\n      dup1\n      swap2\n      sub\n      swap1\n      return\n        /* \"Contracts\":141:171  address[] public userAddresses */\n    tag_11:\n      callvalue\n      dup1\n      iszero\n      tag_74\n      jumpi\n      0x00\n      dup1\n      revert\n    tag_74:\n      pop\n      tag_75\n      0x04\n      dup1\n      calldatasize\n      sub\n      dup2\n      add\n      swap1\n      tag_76\n      swap2\n      swap1\n      tag_46\n      jump\t// in\n    tag_76:\n      tag_77\n      jump\t// in\n    tag_75:\n      mload(0x40)\n      tag_78\n      swap2\n      swap1\n      tag_49\n      jump\t// in\n    tag_78:\n      mload(0x40)\n      dup1\n      swap2\n      sub\n      swap1\n      return\n        /* \"Contracts\":338:381  mapping(address => Referee) public referees */\n    tag_12:\n      callvalue\n      dup1\n      iszero\n      tag_79\n      jumpi\n      0x00\n      dup1\n      revert\n    tag_79:\n      pop\n      tag_80\n      0x04\n      dup1\n      calldatasize\n      sub\n      dup2\n      add\n      swap1\n      tag_81\n      swap2\n      swap1\n      tag_40\n      jump\t// in\n    tag_81:\n      tag_82\n      jump\t// in\n    tag_80:\n      mload(0x40)\n      tag_83\n      swap2\n      swap1\n      tag_64\n      jump\t// in\n    tag_83:\n      mload(0x40)\n      dup1\n      swap2\n      sub\n      swap1\n      return\n        /* \"Contracts\":175:200  uint public numberOfUsers */\n    tag_13:\n      callvalue\n      dup1\n      iszero\n      tag_84\n      jumpi\n      0x00\n      dup1\n      revert\n    tag_84:\n      pop\n      tag_85\n      tag_86\n      jump\t// in\n    tag_85:\n      mload(0x40)\n      tag_87\n      swap2\n      swap1\n      tag_64\n      jump\t// in\n    tag_87:\n      mload(0x40)\n      dup1\n      swap2\n      sub\n      swap1\n      return\n        /* \"Contracts\":2235:2425  function getOpenAccountabilityContractAddressesForReferee(address referee) public view returns (address[] memory){... */\n    tag_14:\n      callvalue\n      dup1\n      iszero\n      tag_88\n      jumpi\n      0x00\n      dup1\n      revert\n    tag_88:\n      pop\n      tag_89\n      0x04\n      dup1\n      calldatasize\n      sub\n      dup2\n      add\n      swap1\n      tag_90\n      swap2\n      swap1\n      tag_40\n      jump\t// in\n    tag_90:\n      tag_91\n      jump\t// in\n    tag_89:\n      mload(0x40)\n      tag_92\n      swap2\n      swap1\n      tag_36\n      jump\t// in\n    tag_92:\n      mload(0x40)\n      dup1\n      swap2\n      sub\n      swap1\n      return\n        /* \"Contracts\":100:137  mapping(address => User) public users */\n    tag_15:\n      callvalue\n      dup1\n      iszero\n      tag_93\n      jumpi\n      0x00\n      dup1\n      revert\n    tag_93:\n      pop\n      tag_94\n      0x04\n      dup1\n      calldatasize\n      sub\n      dup2\n      add\n      swap1\n      tag_95\n      swap2\n      swap1\n      tag_40\n      jump\t// in\n    tag_95:\n      tag_96\n      jump\t// in\n    tag_94:\n      mload(0x40)\n      tag_97\n      swap2\n      swap1\n      tag_64\n      jump\t// in\n    tag_97:\n      mload(0x40)\n      dup1\n      swap2\n      sub\n      swap1\n      return\n        /* \"Contracts\":6746:7241  function getUserAddresses(uint startIndex, uint endIndex) public view returns (address[] memory) {... */\n    tag_16:\n      callvalue\n      dup1\n      iszero\n      tag_98\n      jumpi\n      0x00\n      dup1\n      revert\n    tag_98:\n      pop\n      tag_99\n      0x04\n      dup1\n      calldatasize\n      sub\n      dup2\n      add\n      swap1\n      tag_100\n      swap2\n      swap1\n      tag_33\n      jump\t// in\n    tag_100:\n      tag_101\n      jump\t// in\n    tag_99:\n      mload(0x40)\n      tag_102\n      swap2\n      swap1\n      tag_36\n      jump\t// in\n    tag_102:\n      mload(0x40)\n      dup1\n      swap2\n      sub\n      swap1\n      return\n        /* \"Contracts\":2047:2229  function getClosedAccountabilityContractAddressesForUser(address user) public view returns (address[] memory){... */\n    tag_17:\n      callvalue\n      dup1\n      iszero\n      tag_103\n      jumpi\n      0x00\n      dup1\n      revert\n    tag_103:\n      pop\n      tag_104\n      0x04\n      dup1\n      calldatasize\n      sub\n      dup2\n      add\n      swap1\n      tag_105\n      swap2\n      swap1\n      tag_40\n      jump\t// in\n    tag_105:\n      tag_106\n      jump\t// in\n    tag_104:\n      mload(0x40)\n      tag_107\n      swap2\n      swap1\n      tag_36\n      jump\t// in\n    tag_107:\n      mload(0x40)\n      dup1\n      swap2\n      sub\n      swap1\n      return\n        /* \"Contracts\":385:413  uint public numberOfReferees */\n    tag_18:\n      callvalue\n      dup1\n      iszero\n      tag_108\n      jumpi\n      0x00\n      dup1\n      revert\n    tag_108:\n      pop\n      tag_109\n      tag_110\n      jump\t// in\n    tag_109:\n      mload(0x40)\n      tag_111\n      swap2\n      swap1\n      tag_64\n      jump\t// in\n    tag_111:\n      mload(0x40)\n      dup1\n      swap2\n      sub\n      swap1\n      return\n        /* \"Contracts\":3244:3658  function completeOpenAccountabilityContract(address user, address contractAddress) public {... */\n    tag_19:\n      callvalue\n      dup1\n      iszero\n      tag_112\n      jumpi\n      0x00\n      dup1\n      revert\n    tag_112:\n      pop\n      tag_113\n      0x04\n      dup1\n      calldatasize\n      sub\n      dup2\n      add\n      swap1\n      tag_114\n      swap2\n      swap1\n      tag_28\n      jump\t// in\n    tag_114:\n      tag_115\n      jump\t// in\n    tag_113:\n      stop\n        /* \"Contracts\":303:334  uint public totalEthInContracts */\n    tag_20:\n      callvalue\n      dup1\n      iszero\n      tag_116\n      jumpi\n      0x00\n      dup1\n      revert\n    tag_116:\n      pop\n      tag_117\n      tag_118\n      jump\t// in\n    tag_117:\n      mload(0x40)\n      tag_119\n      swap2\n      swap1\n      tag_64\n      jump\t// in\n    tag_119:\n      mload(0x40)\n      dup1\n      swap2\n      sub\n      swap1\n      return\n        /* \"Contracts\":827:1857  function createAccountabilityContract(address _referee, string memory _name, string memory _description, address payable _failureRecipient) public payable {... */\n    tag_21:\n      tag_120\n      0x04\n      dup1\n      calldatasize\n      sub\n      dup2\n      add\n      swap1\n      tag_121\n      swap2\n      swap1\n      tag_122\n      jump\t// in\n    tag_121:\n      tag_123\n      jump\t// in\n    tag_120:\n      stop\n        /* \"Contracts\":3664:4467  function requestRefereeCompletesContract(address referee, address contractAddress) public {... */\n    tag_29:\n        /* \"Contracts\":3764:3809  AccountabilityContract accountabilityContract */\n      0x00\n        /* \"Contracts\":3835:3850  contractAddress */\n      dup2\n        /* \"Contracts\":3764:3851  AccountabilityContract accountabilityContract = AccountabilityContract(contractAddress) */\n      swap1\n      pop\n        /* \"Contracts\":3904:3938  AccountabilityContract.Status.OPEN */\n      0x00\n        /* \"Contracts\":3869:3938  accountabilityContract.status() == AccountabilityContract.Status.OPEN */\n      0x02\n      dup2\n      gt\n      iszero\n      tag_125\n      jumpi\n      tag_126\n      tag_127\n      jump\t// in\n    tag_126:\n    tag_125:\n        /* \"Contracts\":3869:3891  accountabilityContract */\n      dup2\n        /* \"Contracts\":3869:3898  accountabilityContract.status */\n      0xffffffffffffffffffffffffffffffffffffffff\n      and\n      0x200d2ed2\n        /* \"Contracts\":3869:3900  accountabilityContract.status() */\n      mload(0x40)\n      dup2\n      0xffffffff\n      and\n      0xe0\n      shl\n      dup2\n      mstore\n      0x04\n      add\n      0x20\n      mload(0x40)\n      dup1\n      dup4\n      sub\n      dup2\n      dup7\n      gas\n      staticcall\n      iszero\n      dup1\n      iszero\n      tag_129\n      jumpi\n      returndatasize\n      0x00\n      dup1\n      returndatacopy\n      revert(0x00, returndatasize)\n    tag_129:\n      pop\n      pop\n      pop\n      pop\n      mload(0x40)\n      returndatasize\n      not(0x1f)\n      0x1f\n      dup3\n      add\n      and\n      dup3\n      add\n      dup1\n      0x40\n      mstore\n      pop\n      dup2\n      add\n      swap1\n      tag_130\n      swap2\n      swap1\n      tag_131\n      jump\t// in\n    tag_130:\n        /* \"Contracts\":3869:3938  accountabilityContract.status() == AccountabilityContract.Status.OPEN */\n      0x02\n      dup2\n      gt\n      iszero\n      tag_132\n      jumpi\n      tag_133\n      tag_127\n      jump\t// in\n    tag_133:\n    tag_132:\n      eq\n        /* \"Contracts\":3861:3971  require(accountabilityContract.status() == AccountabilityContract.Status.OPEN, \"Contract status must be open\") */\n      tag_134\n      jumpi\n      mload(0x40)\n      0x08c379a000000000000000000000000000000000000000000000000000000000\n      dup2\n      mstore\n      0x04\n      add\n      tag_135\n      swap1\n      tag_136\n      jump\t// in\n    tag_135:\n      mload(0x40)\n      dup1\n      swap2\n      sub\n      swap1\n      revert\n    tag_134:\n        /* \"Contracts\":4025:4032  referee */\n      dup3\n        /* \"Contracts\":3989:4032  accountabilityContract.referee() == referee */\n      0xffffffffffffffffffffffffffffffffffffffff\n      and\n        /* \"Contracts\":3989:4011  accountabilityContract */\n      dup2\n        /* \"Contracts\":3989:4019  accountabilityContract.referee */\n      0xffffffffffffffffffffffffffffffffffffffff\n      and\n      0x3b1bebd1\n        /* \"Contracts\":3989:4021  accountabilityContract.referee() */\n      mload(0x40)\n      dup2\n      0xffffffff\n      and\n      0xe0\n      shl\n      dup2\n      mstore\n      0x04\n      add\n      0x20\n      mload(0x40)\n      dup1\n      dup4\n      sub\n      dup2\n      dup7\n      gas\n      staticcall\n      iszero\n      dup1\n      iszero\n      tag_138\n      jumpi\n      returndatasize\n      0x00\n      dup1\n      returndatacopy\n      revert(0x00, returndatasize)\n    tag_138:\n      pop\n      pop\n      pop\n      pop\n      mload(0x40)\n      returndatasize\n      not(0x1f)\n      0x1f\n      dup3\n      add\n      and\n      dup3\n      add\n      dup1\n      0x40\n      mstore\n      pop\n      dup2\n      add\n      swap1\n      tag_139\n      swap2\n      swap1\n      tag_140\n      jump\t// in\n    tag_139:\n        /* \"Contracts\":3989:4032  accountabilityContract.referee() == referee */\n      0xffffffffffffffffffffffffffffffffffffffff\n      and\n      eq\n        /* \"Contracts\":3981:4082  require(accountabilityContract.referee() == referee, \"Contract referee must equal requested referee\") */\n      tag_141\n      jumpi\n      mload(0x40)\n      0x08c379a000000000000000000000000000000000000000000000000000000000\n      dup2\n      mstore\n      0x04\n      add\n      tag_142\n      swap1\n      tag_143\n      jump\t// in\n    tag_142:\n      mload(0x40)\n      dup1\n      swap2\n      sub\n      swap1\n      revert\n    tag_141:\n        /* \"Contracts\":4113:4135  accountabilityContract */\n      dup1\n        /* \"Contracts\":4113:4143  accountabilityContract.creator */\n      0xffffffffffffffffffffffffffffffffffffffff\n      and\n      0x02d05d3f\n        /* \"Contracts\":4113:4145  accountabilityContract.creator() */\n      mload(0x40)\n      dup2\n      0xffffffff\n      and\n      0xe0\n      shl\n      dup2\n      mstore\n      0x04\n      add\n      0x20\n      mload(0x40)\n      dup1\n      dup4\n      sub\n      dup2\n      dup7\n      gas\n      staticcall\n      iszero\n      dup1\n      iszero\n      tag_145\n      jumpi\n      returndatasize\n      0x00\n      dup1\n      returndatacopy\n      revert(0x00, returndatasize)\n    tag_145:\n      pop\n      pop\n      pop\n      pop\n      mload(0x40)\n      returndatasize\n      not(0x1f)\n      0x1f\n      dup3\n      add\n      and\n      dup3\n      add\n      dup1\n      0x40\n      mstore\n      pop\n      dup2\n      add\n      swap1\n      tag_146\n      swap2\n      swap1\n      tag_140\n      jump\t// in\n    tag_146:\n        /* \"Contracts\":4100:4145  tx.origin == accountabilityContract.creator() */\n      0xffffffffffffffffffffffffffffffffffffffff\n      and\n        /* \"Contracts\":4100:4109  tx.origin */\n      origin\n        /* \"Contracts\":4100:4145  tx.origin == accountabilityContract.creator() */\n      0xffffffffffffffffffffffffffffffffffffffff\n      and\n      eq\n        /* \"Contracts\":4092:4197  require(tx.origin == accountabilityContract.creator(), \"Only creator of contract can request completion\") */\n      tag_147\n      jumpi\n      mload(0x40)\n      0x08c379a000000000000000000000000000000000000000000000000000000000\n      dup2\n      mstore\n      0x04\n      add\n      tag_148\n      swap1\n      tag_149\n      jump\t// in\n    tag_148:\n      mload(0x40)\n      dup1\n      swap2\n      sub\n      swap1\n      revert\n    tag_147:\n        /* \"Contracts\":4207:4263  AccountabilityContractApprovalRequest newApprovalRequest */\n      0x00\n        /* \"Contracts\":4310:4332  accountabilityContract */\n      dup2\n        /* \"Contracts\":4310:4340  accountabilityContract.creator */\n      0xffffffffffffffffffffffffffffffffffffffff\n      and\n      0x02d05d3f\n        /* \"Contracts\":4310:4342  accountabilityContract.creator() */\n      mload(0x40)\n      dup2\n      0xffffffff\n      and\n      0xe0\n      shl\n      dup2\n      mstore\n      0x04\n      add\n      0x20\n      mload(0x40)\n      dup1\n      dup4\n      sub\n      dup2\n      dup7\n      gas\n      staticcall\n      iszero\n      dup1\n      iszero\n      tag_151\n      jumpi\n      returndatasize\n      0x00\n      dup1\n      returndatacopy\n      revert(0x00, returndatasize)\n    tag_151:\n      pop\n      pop\n      pop\n      pop\n      mload(0x40)\n      returndatasize\n      not(0x1f)\n      0x1f\n      dup3\n      add\n      and\n      dup3\n      add\n      dup1\n      0x40\n      mstore\n      pop\n      dup2\n      add\n      swap1\n      tag_152\n      swap2\n      swap1\n      tag_140\n      jump\t// in\n    tag_152:\n        /* \"Contracts\":4344:4359  contractAddress */\n      dup4\n        /* \"Contracts\":4266:4360  (new AccountabilityContractApprovalRequest)(accountabilityContract.creator(), contractAddress) */\n      mload(0x40)\n      tag_153\n      swap1\n      tag_154\n      jump\t// in\n    tag_153:\n      tag_155\n      swap3\n      swap2\n      swap1\n      tag_156\n      jump\t// in\n    tag_155:\n      mload(0x40)\n      dup1\n      swap2\n      sub\n      swap1\n      0x00\n      create\n      dup1\n      iszero\n      dup1\n      iszero\n      tag_157\n      jumpi\n      returndatasize\n      0x00\n      dup1\n      returndatacopy\n      revert(0x00, returndatasize)\n    tag_157:\n      pop\n        /* \"Contracts\":4207:4360  AccountabilityContractApprovalRequest newApprovalRequest = (new AccountabilityContractApprovalRequest)(accountabilityContract.creator(), contractAddress) */\n      swap1\n      pop\n        /* \"Contracts\":4370:4378  referees */\n      0x06\n        /* \"Contracts\":4370:4387  referees[referee] */\n      0x00\n        /* \"Contracts\":4379:4386  referee */\n      dup6\n        /* \"Contracts\":4370:4387  referees[referee] */\n      0xffffffffffffffffffffffffffffffffffffffff\n      and\n      0xffffffffffffffffffffffffffffffffffffffff\n      and\n      dup2\n      mstore\n      0x20\n      add\n      swap1\n      dup2\n      mstore\n      0x20\n      add\n      0x00\n      keccak256\n        /* \"Contracts\":4370:4426  referees[referee].completeAccountabilityContractRequests */\n      0x03\n      add\n        /* \"Contracts\":4440:4458  newApprovalRequest */\n      dup2\n        /* \"Contracts\":4370:4460  referees[referee].completeAccountabilityContractRequests.push(address(newApprovalRequest)) */\n      swap1\n      dup1\n      0x01\n      dup2\n      sload\n      add\n      dup1\n      dup3\n      sstore\n      dup1\n      swap2\n      pop\n      pop\n      0x01\n      swap1\n      sub\n      swap1\n      0x00\n      mstore\n      keccak256(0x00, 0x20)\n      add\n      0x00\n      swap1\n      swap2\n      swap1\n      swap2\n      swap1\n      swap2\n      0x0100\n      exp\n      dup2\n      sload\n      dup2\n      0xffffffffffffffffffffffffffffffffffffffff\n      mul\n      not\n      and\n      swap1\n      dup4\n      0xffffffffffffffffffffffffffffffffffffffff\n      and\n      mul\n      or\n      swap1\n      sstore\n      pop\n        /* \"Contracts\":3754:4467  {... */\n      pop\n      pop\n        /* \"Contracts\":3664:4467  function requestRefereeCompletesContract(address referee, address contractAddress) public {... */\n      pop\n      pop\n      jump\t// out\n        /* \"Contracts\":7247:7850  function getAccountabilityContractAddresses(uint startIndex, uint endIndex) public view returns (address[] memory) {... */\n    tag_34:\n        /* \"Contracts\":7344:7360  address[] memory */\n      0x60\n        /* \"Contracts\":7393:7394  0 */\n      0x00\n        /* \"Contracts\":7379:7389  startIndex */\n      dup4\n        /* \"Contracts\":7379:7394  startIndex >= 0 */\n      lt\n      iszero\n        /* \"Contracts\":7371:7429  require(startIndex >= 0, \"Start index cannot be negative\") */\n      tag_160\n      jumpi\n      mload(0x40)\n      0x08c379a000000000000000000000000000000000000000000000000000000000\n      dup2\n      mstore\n      0x04\n      add\n      tag_161\n      swap1\n      tag_162\n      jump\t// in\n    tag_161:\n      mload(0x40)\n      dup1\n      swap2\n      sub\n      swap1\n      revert\n    tag_160:\n        /* \"Contracts\":7458:7489  accountabilityContractAddresses */\n      0x03\n        /* \"Contracts\":7458:7496  accountabilityContractAddresses.length */\n      dup1\n      sload\n      swap1\n      pop\n        /* \"Contracts\":7446:7454  endIndex */\n      dup3\n        /* \"Contracts\":7446:7496  endIndex <= accountabilityContractAddresses.length */\n      gt\n      iszero\n        /* \"Contracts\":7438:7540  require(endIndex <= accountabilityContractAddresses.length, \"End index exceeds user addresses length\") */\n      tag_163\n      jumpi\n      mload(0x40)\n      0x08c379a000000000000000000000000000000000000000000000000000000000\n      dup2\n      mstore\n      0x04\n      add\n      tag_164\n      swap1\n      tag_165\n      jump\t// in\n    tag_164:\n      mload(0x40)\n      dup1\n      swap2\n      sub\n      swap1\n      revert\n    tag_163:\n        /* \"Contracts\":7549:7603  address[] memory slicedAccountabilityContractAddresses */\n      0x00\n        /* \"Contracts\":7629:7639  startIndex */\n      dup4\n        /* \"Contracts\":7620:7628  endIndex */\n      dup4\n        /* \"Contracts\":7620:7639  endIndex-startIndex */\n      tag_166\n      swap2\n      swap1\n      tag_167\n      jump\t// in\n    tag_166:\n        /* \"Contracts\":7606:7640  new address[](endIndex-startIndex) */\n      0xffffffffffffffff\n      dup2\n      gt\n      iszero\n      tag_168\n      jumpi\n      tag_169\n      tag_170\n      jump\t// in\n    tag_169:\n    tag_168:\n      mload(0x40)\n      swap1\n      dup1\n      dup3\n      mstore\n      dup1\n      0x20\n      mul\n      0x20\n      add\n      dup3\n      add\n      0x40\n      mstore\n      dup1\n      iszero\n      tag_171\n      jumpi\n      dup2\n      0x20\n      add\n      0x20\n      dup3\n      mul\n      dup1\n      calldatasize\n      dup4\n      calldatacopy\n      dup1\n      dup3\n      add\n      swap2\n      pop\n      pop\n      swap1\n      pop\n    tag_171:\n      pop\n        /* \"Contracts\":7549:7640  address[] memory slicedAccountabilityContractAddresses = new address[](endIndex-startIndex) */\n      swap1\n      pop\n        /* \"Contracts\":7653:7659  uint i */\n      0x00\n        /* \"Contracts\":7660:7670  startIndex */\n      dup5\n        /* \"Contracts\":7653:7670  uint i=startIndex */\n      swap1\n      pop\n        /* \"Contracts\":7649:7790  for(uint i=startIndex; i<endIndex; i++){... */\n    tag_172:\n        /* \"Contracts\":7674:7682  endIndex */\n      dup4\n        /* \"Contracts\":7672:7673  i */\n      dup2\n        /* \"Contracts\":7672:7682  i<endIndex */\n      lt\n        /* \"Contracts\":7649:7790  for(uint i=startIndex; i<endIndex; i++){... */\n      iszero\n      tag_173\n      jumpi\n        /* \"Contracts\":7745:7776  accountabilityContractAddresses */\n      0x03\n        /* \"Contracts\":7777:7778  i */\n      dup2\n        /* \"Contracts\":7745:7779  accountabilityContractAddresses[i] */\n      dup2\n      sload\n      dup2\n      lt\n      tag_175\n      jumpi\n      tag_176\n      tag_177\n      jump\t// in\n    tag_176:\n    tag_175:\n      swap1\n      0x00\n      mstore\n      keccak256(0x00, 0x20)\n      add\n      0x00\n      swap1\n      sload\n      swap1\n      0x0100\n      exp\n      swap1\n      div\n      0xffffffffffffffffffffffffffffffffffffffff\n      and\n        /* \"Contracts\":7702:7739  slicedAccountabilityContractAddresses */\n      dup3\n        /* \"Contracts\":7740:7741  i */\n      dup3\n        /* \"Contracts\":7702:7742  slicedAccountabilityContractAddresses[i] */\n      dup2\n      mload\n      dup2\n      lt\n      tag_179\n      jumpi\n      tag_180\n      tag_177\n      jump\t// in\n    tag_180:\n    tag_179:\n      0x20\n      mul\n      0x20\n      add\n      add\n        /* \"Contracts\":7702:7779  slicedAccountabilityContractAddresses[i] = accountabilityContractAddresses[i] */\n      swap1\n      0xffffffffffffffffffffffffffffffffffffffff\n      and\n      swap1\n      dup2\n      0xffffffffffffffffffffffffffffffffffffffff\n      and\n      dup2\n      mstore\n      pop\n      pop\n        /* \"Contracts\":7684:7687  i++ */\n      dup1\n      dup1\n      tag_181\n      swap1\n      tag_182\n      jump\t// in\n    tag_181:\n      swap2\n      pop\n      pop\n        /* \"Contracts\":7649:7790  for(uint i=startIndex; i<endIndex; i++){... */\n      jump(tag_172)\n    tag_173:\n      pop\n        /* \"Contracts\":7806:7843  slicedAccountabilityContractAddresses */\n      dup1\n        /* \"Contracts\":7799:7843  return slicedAccountabilityContractAddresses */\n      swap2\n      pop\n      pop\n        /* \"Contracts\":7247:7850  function getAccountabilityContractAddresses(uint startIndex, uint endIndex) public view returns (address[] memory) {... */\n      swap3\n      swap2\n      pop\n      pop\n      jump\t// out\n        /* \"Contracts\":2431:2625  function getClosedAccountabilityContractAddressesForReferee(address referee) public view returns (address[] memory){... */\n    tag_41:\n        /* \"Contracts\":2529:2545  address[] memory */\n      0x60\n        /* \"Contracts\":2563:2571  referees */\n      0x06\n        /* \"Contracts\":2563:2580  referees[referee] */\n      0x00\n        /* \"Contracts\":2572:2579  referee */\n      dup4\n        /* \"Contracts\":2563:2580  referees[referee] */\n      0xffffffffffffffffffffffffffffffffffffffff\n      and\n      0xffffffffffffffffffffffffffffffffffffffff\n      and\n      dup2\n      mstore\n      0x20\n      add\n      swap1\n      dup2\n      mstore\n      0x20\n      add\n      0x00\n      keccak256\n        /* \"Contracts\":2563:2618  referees[referee].closedAccountabilityContractAddresses */\n      0x02\n      add\n        /* \"Contracts\":2556:2618  return referees[referee].closedAccountabilityContractAddresses */\n      dup1\n      sload\n      dup1\n      0x20\n      mul\n      0x20\n      add\n      mload(0x40)\n      swap1\n      dup2\n      add\n      0x40\n      mstore\n      dup1\n      swap3\n      swap2\n      swap1\n      dup2\n      dup2\n      mstore\n      0x20\n      add\n      dup3\n      dup1\n      sload\n      dup1\n      iszero\n      tag_184\n      jumpi\n      0x20\n      mul\n      dup3\n      add\n      swap2\n      swap1\n      0x00\n      mstore\n      keccak256(0x00, 0x20)\n      swap1\n    tag_185:\n      dup2\n      0x00\n      swap1\n      sload\n      swap1\n      0x0100\n      exp\n      swap1\n      div\n      0xffffffffffffffffffffffffffffffffffffffff\n      and\n      0xffffffffffffffffffffffffffffffffffffffff\n      and\n      dup2\n      mstore\n      0x20\n      add\n      swap1\n      0x01\n      add\n      swap1\n      dup1\n      dup4\n      gt\n      tag_185\n      jumpi\n    tag_184:\n      pop\n      pop\n      pop\n      pop\n      pop\n      swap1\n      pop\n        /* \"Contracts\":2431:2625  function getClosedAccountabilityContractAddressesForReferee(address referee) public view returns (address[] memory){... */\n      swap2\n      swap1\n      pop\n      jump\t// out\n        /* \"Contracts\":204:252  address[] public accountabilityContractAddresses */\n    tag_47:\n      0x03\n      dup2\n      dup2\n      sload\n      dup2\n      lt\n      tag_186\n      jumpi\n      0x00\n      dup1\n      revert\n    tag_186:\n      swap1\n      0x00\n      mstore\n      keccak256(0x00, 0x20)\n      add\n      0x00\n      swap2\n      pop\n      sload\n      swap1\n      0x0100\n      exp\n      swap1\n      div\n      0xffffffffffffffffffffffffffffffffffffffff\n      and\n      dup2\n      jump\t// out\n        /* \"Contracts\":417:450  address[] public refereeAddresses */\n    tag_53:\n      0x08\n      dup2\n      dup2\n      sload\n      dup2\n      lt\n      tag_188\n      jumpi\n      0x00\n      dup1\n      revert\n    tag_188:\n      swap1\n      0x00\n      mstore\n      keccak256(0x00, 0x20)\n      add\n      0x00\n      swap2\n      pop\n      sload\n      swap1\n      0x0100\n      exp\n      swap1\n      div\n      0xffffffffffffffffffffffffffffffffffffffff\n      and\n      dup2\n      jump\t// out\n        /* \"Contracts\":1863:2041  function getOpenAccountabilityContractAddressesForUser(address user) public view returns (address[] memory){... */\n    tag_58:\n        /* \"Contracts\":1953:1969  address[] memory */\n      0x60\n        /* \"Contracts\":1987:1992  users */\n      0x00\n        /* \"Contracts\":1987:1998  users[user] */\n      dup1\n        /* \"Contracts\":1993:1997  user */\n      dup4\n        /* \"Contracts\":1987:1998  users[user] */\n      0xffffffffffffffffffffffffffffffffffffffff\n      and\n      0xffffffffffffffffffffffffffffffffffffffff\n      and\n      dup2\n      mstore\n      0x20\n      add\n      swap1\n      dup2\n      mstore\n      0x20\n      add\n      0x00\n      keccak256\n        /* \"Contracts\":1987:2034  users[user].openAccountabilityContractAddresses */\n      0x01\n      add\n        /* \"Contracts\":1980:2034  return users[user].openAccountabilityContractAddresses */\n      dup1\n      sload\n      dup1\n      0x20\n      mul\n      0x20\n      add\n      mload(0x40)\n      swap1\n      dup2\n      add\n      0x40\n      mstore\n      dup1\n      swap3\n      swap2\n      swap1\n      dup2\n      dup2\n      mstore\n      0x20\n      add\n      dup3\n      dup1\n      sload\n      dup1\n      iszero\n      tag_191\n      jumpi\n      0x20\n      mul\n      dup3\n      add\n      swap2\n      swap1\n      0x00\n      mstore\n      keccak256(0x00, 0x20)\n      swap1\n    tag_192:\n      dup2\n      0x00\n      swap1\n      sload\n      swap1\n      0x0100\n      exp\n      swap1\n      div\n      0xffffffffffffffffffffffffffffffffffffffff\n      and\n      0xffffffffffffffffffffffffffffffffffffffff\n      and\n      dup2\n      mstore\n      0x20\n      add\n      swap1\n      0x01\n      add\n      swap1\n      dup1\n      dup4\n      gt\n      tag_192\n      jumpi\n    tag_191:\n      pop\n      pop\n      pop\n      pop\n      pop\n      swap1\n      pop\n        /* \"Contracts\":1863:2041  function getOpenAccountabilityContractAddressesForUser(address user) public view returns (address[] memory){... */\n      swap2\n      swap1\n      pop\n      jump\t// out\n        /* \"Contracts\":256:299  uint public numberOfAccountabilityContracts */\n    tag_62:\n      sload(0x04)\n      dup2\n      jump\t// out\n        /* \"Contracts\":2833:3238  function failOpenAccountabilityContract(address user, address contractAddress) public {... */\n    tag_68:\n        /* \"Contracts\":2927:2972  AccountabilityContract accountabilityContract */\n      0x00\n        /* \"Contracts\":2998:3013  contractAddress */\n      dup2\n        /* \"Contracts\":2927:3014  AccountabilityContract accountabilityContract = AccountabilityContract(contractAddress) */\n      swap1\n      pop\n        /* \"Contracts\":3022:3044  accountabilityContract */\n      dup1\n        /* \"Contracts\":3022:3057  accountabilityContract.failContract */\n      0xffffffffffffffffffffffffffffffffffffffff\n      and\n      0x2d398fa6\n        /* \"Contracts\":3022:3059  accountabilityContract.failContract() */\n      mload(0x40)\n      dup2\n      0xffffffff\n      and\n      0xe0\n      shl\n      dup2\n      mstore\n      0x04\n      add\n      0x20\n      mload(0x40)\n      dup1\n      dup4\n      sub\n      dup2\n      0x00\n      dup8\n      gas\n      call\n      iszero\n      dup1\n      iszero\n      tag_195\n      jumpi\n      returndatasize\n      0x00\n      dup1\n      returndatacopy\n      revert(0x00, returndatasize)\n    tag_195:\n      pop\n      pop\n      pop\n      pop\n      mload(0x40)\n      returndatasize\n      not(0x1f)\n      0x1f\n      dup3\n      add\n      and\n      dup3\n      add\n      dup1\n      0x40\n      mstore\n      pop\n      dup2\n      add\n      swap1\n      tag_196\n      swap2\n      swap1\n      tag_197\n      jump\t// in\n    tag_196:\n      pop\n        /* \"Contracts\":3067:3129  moveOpenContractToClosedContractsForUser(user,contractAddress) */\n      tag_198\n        /* \"Contracts\":3108:3112  user */\n      dup4\n        /* \"Contracts\":3113:3128  contractAddress */\n      dup4\n        /* \"Contracts\":3067:3107  moveOpenContractToClosedContractsForUser */\n      tag_199\n        /* \"Contracts\":3067:3129  moveOpenContractToClosedContractsForUser(user,contractAddress) */\n      jump\t// in\n    tag_198:\n        /* \"Contracts\":3137:3231  moveOpenContractToClosedContractsForReferee(accountabilityContract.referee(), contractAddress) */\n      tag_200\n        /* \"Contracts\":3181:3203  accountabilityContract */\n      dup2\n        /* \"Contracts\":3181:3211  accountabilityContract.referee */\n      0xffffffffffffffffffffffffffffffffffffffff\n      and\n      0x3b1bebd1\n        /* \"Contracts\":3181:3213  accountabilityContract.referee() */\n      mload(0x40)\n      dup2\n      0xffffffff\n      and\n      0xe0\n      shl\n      dup2\n      mstore\n      0x04\n      add\n      0x20\n      mload(0x40)\n      dup1\n      dup4\n      sub\n      dup2\n      dup7\n      gas\n      staticcall\n      iszero\n      dup1\n      iszero\n      tag_202\n      jumpi\n      returndatasize\n      0x00\n      dup1\n      returndatacopy\n      revert(0x00, returndatasize)\n    tag_202:\n      pop\n      pop\n      pop\n      pop\n      mload(0x40)\n      returndatasize\n      not(0x1f)\n      0x1f\n      dup3\n      add\n      and\n      dup3\n      add\n      dup1\n      0x40\n      mstore\n      pop\n      dup2\n      add\n      swap1\n      tag_203\n      swap2\n      swap1\n      tag_140\n      jump\t// in\n    tag_203:\n        /* \"Contracts\":3215:3230  contractAddress */\n      dup4\n        /* \"Contracts\":3137:3180  moveOpenContractToClosedContractsForReferee */\n      tag_204\n        /* \"Contracts\":3137:3231  moveOpenContractToClosedContractsForReferee(accountabilityContract.referee(), contractAddress) */\n      jump\t// in\n    tag_200:\n        /* \"Contracts\":2919:3238  {... */\n      pop\n        /* \"Contracts\":2833:3238  function failOpenAccountabilityContract(address user, address contractAddress) public {... */\n      pop\n      pop\n      jump\t// out\n        /* \"Contracts\":2631:2827  function getCompleteAccountabilityContractRequestsForReferee(address referee) public view returns (address[] memory){... */\n    tag_72:\n        /* \"Contracts\":2730:2746  address[] memory */\n      0x60\n        /* \"Contracts\":2764:2772  referees */\n      0x06\n        /* \"Contracts\":2764:2781  referees[referee] */\n      0x00\n        /* \"Contracts\":2773:2780  referee */\n      dup4\n        /* \"Contracts\":2764:2781  referees[referee] */\n      0xffffffffffffffffffffffffffffffffffffffff\n      and\n      0xffffffffffffffffffffffffffffffffffffffff\n      and\n      dup2\n      mstore\n      0x20\n      add\n      swap1\n      dup2\n      mstore\n      0x20\n      add\n      0x00\n      keccak256\n        /* \"Contracts\":2764:2820  referees[referee].completeAccountabilityContractRequests */\n      0x03\n      add\n        /* \"Contracts\":2757:2820  return referees[referee].completeAccountabilityContractRequests */\n      dup1\n      sload\n      dup1\n      0x20\n      mul\n      0x20\n      add\n      mload(0x40)\n      swap1\n      dup2\n      add\n      0x40\n      mstore\n      dup1\n      swap3\n      swap2\n      swap1\n      dup2\n      dup2\n      mstore\n      0x20\n      add\n      dup3\n      dup1\n      sload\n      dup1\n      iszero\n      tag_206\n      jumpi\n      0x20\n      mul\n      dup3\n      add\n      swap2\n      swap1\n      0x00\n      mstore\n      keccak256(0x00, 0x20)\n      swap1\n    tag_207:\n      dup2\n      0x00\n      swap1\n      sload\n      swap1\n      0x0100\n      exp\n      swap1\n      div\n      0xffffffffffffffffffffffffffffffffffffffff\n      and\n      0xffffffffffffffffffffffffffffffffffffffff\n      and\n      dup2\n      mstore\n      0x20\n      add\n      swap1\n      0x01\n      add\n      swap1\n      dup1\n      dup4\n      gt\n      tag_207\n      jumpi\n    tag_206:\n      pop\n      pop\n      pop\n      pop\n      pop\n      swap1\n      pop\n        /* \"Contracts\":2631:2827  function getCompleteAccountabilityContractRequestsForReferee(address referee) public view returns (address[] memory){... */\n      swap2\n      swap1\n      pop\n      jump\t// out\n        /* \"Contracts\":141:171  address[] public userAddresses */\n    tag_77:\n      0x01\n      dup2\n      dup2\n      sload\n      dup2\n      lt\n      tag_208\n      jumpi\n      0x00\n      dup1\n      revert\n    tag_208:\n      swap1\n      0x00\n      mstore\n      keccak256(0x00, 0x20)\n      add\n      0x00\n      swap2\n      pop\n      sload\n      swap1\n      0x0100\n      exp\n      swap1\n      div\n      0xffffffffffffffffffffffffffffffffffffffff\n      and\n      dup2\n      jump\t// out\n        /* \"Contracts\":338:381  mapping(address => Referee) public referees */\n    tag_82:\n      mstore(0x20, 0x06)\n      dup1\n      0x00\n      mstore\n      keccak256(0x00, 0x40)\n      0x00\n      swap2\n      pop\n      swap1\n      pop\n      dup1\n      0x00\n      add\n      sload\n      swap1\n      pop\n      dup2\n      jump\t// out\n        /* \"Contracts\":175:200  uint public numberOfUsers */\n    tag_86:\n      sload(0x02)\n      dup2\n      jump\t// out\n        /* \"Contracts\":2235:2425  function getOpenAccountabilityContractAddressesForReferee(address referee) public view returns (address[] memory){... */\n    tag_91:\n        /* \"Contracts\":2331:2347  address[] memory */\n      0x60\n        /* \"Contracts\":2365:2373  referees */\n      0x06\n        /* \"Contracts\":2365:2382  referees[referee] */\n      0x00\n        /* \"Contracts\":2374:2381  referee */\n      dup4\n        /* \"Contracts\":2365:2382  referees[referee] */\n      0xffffffffffffffffffffffffffffffffffffffff\n      and\n      0xffffffffffffffffffffffffffffffffffffffff\n      and\n      dup2\n      mstore\n      0x20\n      add\n      swap1\n      dup2\n      mstore\n      0x20\n      add\n      0x00\n      keccak256\n        /* \"Contracts\":2365:2418  referees[referee].openAccountabilityContractAddresses */\n      0x01\n      add\n        /* \"Contracts\":2358:2418  return referees[referee].openAccountabilityContractAddresses */\n      dup1\n      sload\n      dup1\n      0x20\n      mul\n      0x20\n      add\n      mload(0x40)\n      swap1\n      dup2\n      add\n      0x40\n      mstore\n      dup1\n      swap3\n      swap2\n      swap1\n      dup2\n      dup2\n      mstore\n      0x20\n      add\n      dup3\n      dup1\n      sload\n      dup1\n      iszero\n      tag_211\n      jumpi\n      0x20\n      mul\n      dup3\n      add\n      swap2\n      swap1\n      0x00\n      mstore\n      keccak256(0x00, 0x20)\n      swap1\n    tag_212:\n      dup2\n      0x00\n      swap1\n      sload\n      swap1\n      0x0100\n      exp\n      swap1\n      div\n      0xffffffffffffffffffffffffffffffffffffffff\n      and\n      0xffffffffffffffffffffffffffffffffffffffff\n      and\n      dup2\n      mstore\n      0x20\n      add\n      swap1\n      0x01\n      add\n      swap1\n      dup1\n      dup4\n      gt\n      tag_212\n      jumpi\n    tag_211:\n      pop\n      pop\n      pop\n      pop\n      pop\n      swap1\n      pop\n        /* \"Contracts\":2235:2425  function getOpenAccountabilityContractAddressesForReferee(address referee) public view returns (address[] memory){... */\n      swap2\n      swap1\n      pop\n      jump\t// out\n        /* \"Contracts\":100:137  mapping(address => User) public users */\n    tag_96:\n      mstore(0x20, 0x00)\n      dup1\n      0x00\n      mstore\n      keccak256(0x00, 0x40)\n      0x00\n      swap2\n      pop\n      swap1\n      pop\n      dup1\n      0x00\n      add\n      sload\n      swap1\n      pop\n      dup2\n      jump\t// out\n        /* \"Contracts\":6746:7241  function getUserAddresses(uint startIndex, uint endIndex) public view returns (address[] memory) {... */\n    tag_101:\n        /* \"Contracts\":6825:6841  address[] memory */\n      0x60\n        /* \"Contracts\":6874:6875  0 */\n      0x00\n        /* \"Contracts\":6860:6870  startIndex */\n      dup4\n        /* \"Contracts\":6860:6875  startIndex >= 0 */\n      lt\n      iszero\n        /* \"Contracts\":6852:6910  require(startIndex >= 0, \"Start index cannot be negative\") */\n      tag_214\n      jumpi\n      mload(0x40)\n      0x08c379a000000000000000000000000000000000000000000000000000000000\n      dup2\n      mstore\n      0x04\n      add\n      tag_215\n      swap1\n      tag_162\n      jump\t// in\n    tag_215:\n      mload(0x40)\n      dup1\n      swap2\n      sub\n      swap1\n      revert\n    tag_214:\n        /* \"Contracts\":6939:6952  userAddresses */\n      0x01\n        /* \"Contracts\":6939:6959  userAddresses.length */\n      dup1\n      sload\n      swap1\n      pop\n        /* \"Contracts\":6927:6935  endIndex */\n      dup3\n        /* \"Contracts\":6927:6959  endIndex <= userAddresses.length */\n      gt\n      iszero\n        /* \"Contracts\":6919:7003  require(endIndex <= userAddresses.length, \"End index exceeds user addresses length\") */\n      tag_216\n      jumpi\n      mload(0x40)\n      0x08c379a000000000000000000000000000000000000000000000000000000000\n      dup2\n      mstore\n      0x04\n      add\n      tag_217\n      swap1\n      tag_165\n      jump\t// in\n    tag_217:\n      mload(0x40)\n      dup1\n      swap2\n      sub\n      swap1\n      revert\n    tag_216:\n        /* \"Contracts\":7012:7048  address[] memory slicedUserAddresses */\n      0x00\n        /* \"Contracts\":7074:7084  startIndex */\n      dup4\n        /* \"Contracts\":7065:7073  endIndex */\n      dup4\n        /* \"Contracts\":7065:7084  endIndex-startIndex */\n      tag_218\n      swap2\n      swap1\n      tag_167\n      jump\t// in\n    tag_218:\n        /* \"Contracts\":7051:7085  new address[](endIndex-startIndex) */\n      0xffffffffffffffff\n      dup2\n      gt\n      iszero\n      tag_219\n      jumpi\n      tag_220\n      tag_170\n      jump\t// in\n    tag_220:\n    tag_219:\n      mload(0x40)\n      swap1\n      dup1\n      dup3\n      mstore\n      dup1\n      0x20\n      mul\n      0x20\n      add\n      dup3\n      add\n      0x40\n      mstore\n      dup1\n      iszero\n      tag_221\n      jumpi\n      dup2\n      0x20\n      add\n      0x20\n      dup3\n      mul\n      dup1\n      calldatasize\n      dup4\n      calldatacopy\n      dup1\n      dup3\n      add\n      swap2\n      pop\n      pop\n      swap1\n      pop\n    tag_221:\n      pop\n        /* \"Contracts\":7012:7085  address[] memory slicedUserAddresses = new address[](endIndex-startIndex) */\n      swap1\n      pop\n        /* \"Contracts\":7098:7104  uint i */\n      0x00\n        /* \"Contracts\":7105:7115  startIndex */\n      dup5\n        /* \"Contracts\":7098:7115  uint i=startIndex */\n      swap1\n      pop\n        /* \"Contracts\":7094:7199  for(uint i=startIndex; i<endIndex; i++){... */\n    tag_222:\n        /* \"Contracts\":7119:7127  endIndex */\n      dup4\n        /* \"Contracts\":7117:7118  i */\n      dup2\n        /* \"Contracts\":7117:7127  i<endIndex */\n      lt\n        /* \"Contracts\":7094:7199  for(uint i=startIndex; i<endIndex; i++){... */\n      iszero\n      tag_223\n      jumpi\n        /* \"Contracts\":7172:7185  userAddresses */\n      0x01\n        /* \"Contracts\":7186:7187  i */\n      dup2\n        /* \"Contracts\":7172:7188  userAddresses[i] */\n      dup2\n      sload\n      dup2\n      lt\n      tag_225\n      jumpi\n      tag_226\n      tag_177\n      jump\t// in\n    tag_226:\n    tag_225:\n      swap1\n      0x00\n      mstore\n      keccak256(0x00, 0x20)\n      add\n      0x00\n      swap1\n      sload\n      swap1\n      0x0100\n      exp\n      swap1\n      div\n      0xffffffffffffffffffffffffffffffffffffffff\n      and\n        /* \"Contracts\":7147:7166  slicedUserAddresses */\n      dup3\n        /* \"Contracts\":7167:7168  i */\n      dup3\n        /* \"Contracts\":7147:7169  slicedUserAddresses[i] */\n      dup2\n      mload\n      dup2\n      lt\n      tag_228\n      jumpi\n      tag_229\n      tag_177\n      jump\t// in\n    tag_229:\n    tag_228:\n      0x20\n      mul\n      0x20\n      add\n      add\n        /* \"Contracts\":7147:7188  slicedUserAddresses[i] = userAddresses[i] */\n      swap1\n      0xffffffffffffffffffffffffffffffffffffffff\n      and\n      swap1\n      dup2\n      0xffffffffffffffffffffffffffffffffffffffff\n      and\n      dup2\n      mstore\n      pop\n      pop\n        /* \"Contracts\":7129:7132  i++ */\n      dup1\n      dup1\n      tag_230\n      swap1\n      tag_182\n      jump\t// in\n    tag_230:\n      swap2\n      pop\n      pop\n        /* \"Contracts\":7094:7199  for(uint i=startIndex; i<endIndex; i++){... */\n      jump(tag_222)\n    tag_223:\n      pop\n        /* \"Contracts\":7215:7234  slicedUserAddresses */\n      dup1\n        /* \"Contracts\":7208:7234  return slicedUserAddresses */\n      swap2\n      pop\n      pop\n        /* \"Contracts\":6746:7241  function getUserAddresses(uint startIndex, uint endIndex) public view returns (address[] memory) {... */\n      swap3\n      swap2\n      pop\n      pop\n      jump\t// out\n        /* \"Contracts\":2047:2229  function getClosedAccountabilityContractAddressesForUser(address user) public view returns (address[] memory){... */\n    tag_106:\n        /* \"Contracts\":2139:2155  address[] memory */\n      0x60\n        /* \"Contracts\":2173:2178  users */\n      0x00\n        /* \"Contracts\":2173:2184  users[user] */\n      dup1\n        /* \"Contracts\":2179:2183  user */\n      dup4\n        /* \"Contracts\":2173:2184  users[user] */\n      0xffffffffffffffffffffffffffffffffffffffff\n      and\n      0xffffffffffffffffffffffffffffffffffffffff\n      and\n      dup2\n      mstore\n      0x20\n      add\n      swap1\n      dup2\n      mstore\n      0x20\n      add\n      0x00\n      keccak256\n        /* \"Contracts\":2173:2222  users[user].closedAccountabilityContractAddresses */\n      0x02\n      add\n        /* \"Contracts\":2166:2222  return users[user].closedAccountabilityContractAddresses */\n      dup1\n      sload\n      dup1\n      0x20\n      mul\n      0x20\n      add\n      mload(0x40)\n      swap1\n      dup2\n      add\n      0x40\n      mstore\n      dup1\n      swap3\n      swap2\n      swap1\n      dup2\n      dup2\n      mstore\n      0x20\n      add\n      dup3\n      dup1\n      sload\n      dup1\n      iszero\n      tag_232\n      jumpi\n      0x20\n      mul\n      dup3\n      add\n      swap2\n      swap1\n      0x00\n      mstore\n      keccak256(0x00, 0x20)\n      swap1\n    tag_233:\n      dup2\n      0x00\n      swap1\n      sload\n      swap1\n      0x0100\n      exp\n      swap1\n      div\n      0xffffffffffffffffffffffffffffffffffffffff\n      and\n      0xffffffffffffffffffffffffffffffffffffffff\n      and\n      dup2\n      mstore\n      0x20\n      add\n      swap1\n      0x01\n      add\n      swap1\n      dup1\n      dup4\n      gt\n      tag_233\n      jumpi\n    tag_232:\n      pop\n      pop\n      pop\n      pop\n      pop\n      swap1\n      pop\n        /* \"Contracts\":2047:2229  function getClosedAccountabilityContractAddressesForUser(address user) public view returns (address[] memory){... */\n      swap2\n      swap1\n      pop\n      jump\t// out\n        /* \"Contracts\":385:413  uint public numberOfReferees */\n    tag_110:\n      sload(0x07)\n      dup2\n      jump\t// out\n        /* \"Contracts\":3244:3658  function completeOpenAccountabilityContract(address user, address contractAddress) public {... */\n    tag_115:\n        /* \"Contracts\":3342:3387  AccountabilityContract accountabilityContract */\n      0x00\n        /* \"Contracts\":3413:3428  contractAddress */\n      dup2\n        /* \"Contracts\":3342:3429  AccountabilityContract accountabilityContract = AccountabilityContract(contractAddress) */\n      swap1\n      pop\n        /* \"Contracts\":3437:3459  accountabilityContract */\n      dup1\n        /* \"Contracts\":3437:3476  accountabilityContract.completeContract */\n      0xffffffffffffffffffffffffffffffffffffffff\n      and\n      0xb4fedc11\n        /* \"Contracts\":3437:3478  accountabilityContract.completeContract() */\n      mload(0x40)\n      dup2\n      0xffffffff\n      and\n      0xe0\n      shl\n      dup2\n      mstore\n      0x04\n      add\n      0x20\n      mload(0x40)\n      dup1\n      dup4\n      sub\n      dup2\n      0x00\n      dup8\n      gas\n      call\n      iszero\n      dup1\n      iszero\n      tag_236\n      jumpi\n      returndatasize\n      0x00\n      dup1\n      returndatacopy\n      revert(0x00, returndatasize)\n    tag_236:\n      pop\n      pop\n      pop\n      pop\n      mload(0x40)\n      returndatasize\n      not(0x1f)\n      0x1f\n      dup3\n      add\n      and\n      dup3\n      add\n      dup1\n      0x40\n      mstore\n      pop\n      dup2\n      add\n      swap1\n      tag_237\n      swap2\n      swap1\n      tag_197\n      jump\t// in\n    tag_237:\n      pop\n        /* \"Contracts\":3486:3549  moveOpenContractToClosedContractsForUser(user, contractAddress) */\n      tag_238\n        /* \"Contracts\":3527:3531  user */\n      dup4\n        /* \"Contracts\":3533:3548  contractAddress */\n      dup4\n        /* \"Contracts\":3486:3526  moveOpenContractToClosedContractsForUser */\n      tag_199\n        /* \"Contracts\":3486:3549  moveOpenContractToClosedContractsForUser(user, contractAddress) */\n      jump\t// in\n    tag_238:\n        /* \"Contracts\":3557:3651  moveOpenContractToClosedContractsForReferee(accountabilityContract.referee(), contractAddress) */\n      tag_239\n        /* \"Contracts\":3601:3623  accountabilityContract */\n      dup2\n        /* \"Contracts\":3601:3631  accountabilityContract.referee */\n      0xffffffffffffffffffffffffffffffffffffffff\n      and\n      0x3b1bebd1\n        /* \"Contracts\":3601:3633  accountabilityContract.referee() */\n      mload(0x40)\n      dup2\n      0xffffffff\n      and\n      0xe0\n      shl\n      dup2\n      mstore\n      0x04\n      add\n      0x20\n      mload(0x40)\n      dup1\n      dup4\n      sub\n      dup2\n      dup7\n      gas\n      staticcall\n      iszero\n      dup1\n      iszero\n      tag_241\n      jumpi\n      returndatasize\n      0x00\n      dup1\n      returndatacopy\n      revert(0x00, returndatasize)\n    tag_241:\n      pop\n      pop\n      pop\n      pop\n      mload(0x40)\n      returndatasize\n      not(0x1f)\n      0x1f\n      dup3\n      add\n      and\n      dup3\n      add\n      dup1\n      0x40\n      mstore\n      pop\n      dup2\n      add\n      swap1\n      tag_242\n      swap2\n      swap1\n      tag_140\n      jump\t// in\n    tag_242:\n        /* \"Contracts\":3635:3650  contractAddress */\n      dup4\n        /* \"Contracts\":3557:3600  moveOpenContractToClosedContractsForReferee */\n      tag_204\n        /* \"Contracts\":3557:3651  moveOpenContractToClosedContractsForReferee(accountabilityContract.referee(), contractAddress) */\n      jump\t// in\n    tag_239:\n        /* \"Contracts\":3334:3658  {... */\n      pop\n        /* \"Contracts\":3244:3658  function completeOpenAccountabilityContract(address user, address contractAddress) public {... */\n      pop\n      pop\n      jump\t// out\n        /* \"Contracts\":303:334  uint public totalEthInContracts */\n    tag_118:\n      sload(0x05)\n      dup2\n      jump\t// out\n        /* \"Contracts\":827:1857  function createAccountabilityContract(address _referee, string memory _name, string memory _description, address payable _failureRecipient) public payable {... */\n    tag_123:\n        /* \"Contracts\":1033:1034  0 */\n      0x00\n        /* \"Contracts\":995:1000  users */\n      dup1\n        /* \"Contracts\":995:1012  users[msg.sender] */\n      0x00\n        /* \"Contracts\":1001:1011  msg.sender */\n      caller\n        /* \"Contracts\":995:1012  users[msg.sender] */\n      0xffffffffffffffffffffffffffffffffffffffff\n      and\n      0xffffffffffffffffffffffffffffffffffffffff\n      and\n      dup2\n      mstore\n      0x20\n      add\n      swap1\n      dup2\n      mstore\n      0x20\n      add\n      0x00\n      keccak256\n        /* \"Contracts\":995:1029  users[msg.sender].createdContracts */\n      0x00\n      add\n      sload\n        /* \"Contracts\":995:1034  users[msg.sender].createdContracts == 0 */\n      eq\n        /* \"Contracts\":992:1119  if(users[msg.sender].createdContracts == 0){... */\n      iszero\n      tag_244\n      jumpi\n        /* \"Contracts\":1049:1062  numberOfUsers */\n      0x02\n      0x00\n        /* \"Contracts\":1049:1064  numberOfUsers++ */\n      dup2\n      sload\n      dup1\n      swap3\n      swap2\n      swap1\n      tag_245\n      swap1\n      tag_182\n      jump\t// in\n    tag_245:\n      swap2\n      swap1\n      pop\n      sstore\n      pop\n        /* \"Contracts\":1078:1091  userAddresses */\n      0x01\n        /* \"Contracts\":1097:1107  msg.sender */\n      caller\n        /* \"Contracts\":1078:1108  userAddresses.push(msg.sender) */\n      swap1\n      dup1\n      0x01\n      dup2\n      sload\n      add\n      dup1\n      dup3\n      sstore\n      dup1\n      swap2\n      pop\n      pop\n      0x01\n      swap1\n      sub\n      swap1\n      0x00\n      mstore\n      keccak256(0x00, 0x20)\n      add\n      0x00\n      swap1\n      swap2\n      swap1\n      swap2\n      swap1\n      swap2\n      0x0100\n      exp\n      dup2\n      sload\n      dup2\n      0xffffffffffffffffffffffffffffffffffffffff\n      mul\n      not\n      and\n      swap1\n      dup4\n      0xffffffffffffffffffffffffffffffffffffffff\n      and\n      mul\n      or\n      swap1\n      sstore\n      pop\n        /* \"Contracts\":992:1119  if(users[msg.sender].createdContracts == 0){... */\n    tag_244:\n        /* \"Contracts\":1170:1171  0 */\n      0x00\n        /* \"Contracts\":1131:1139  referees */\n      0x06\n        /* \"Contracts\":1131:1149  referees[_referee] */\n      0x00\n        /* \"Contracts\":1140:1148  _referee */\n      dup7\n        /* \"Contracts\":1131:1149  referees[_referee] */\n      0xffffffffffffffffffffffffffffffffffffffff\n      and\n      0xffffffffffffffffffffffffffffffffffffffff\n      and\n      dup2\n      mstore\n      0x20\n      add\n      swap1\n      dup2\n      mstore\n      0x20\n      add\n      0x00\n      keccak256\n        /* \"Contracts\":1131:1166  referees[_referee].managedContracts */\n      0x00\n      add\n      sload\n        /* \"Contracts\":1131:1171  referees[_referee].managedContracts == 0 */\n      eq\n        /* \"Contracts\":1128:1260  if(referees[_referee].managedContracts == 0){... */\n      iszero\n      tag_247\n      jumpi\n        /* \"Contracts\":1186:1202  numberOfReferees */\n      0x07\n      0x00\n        /* \"Contracts\":1186:1204  numberOfReferees++ */\n      dup2\n      sload\n      dup1\n      swap3\n      swap2\n      swap1\n      tag_248\n      swap1\n      tag_182\n      jump\t// in\n    tag_248:\n      swap2\n      swap1\n      pop\n      sstore\n      pop\n        /* \"Contracts\":1218:1234  refereeAddresses */\n      0x08\n        /* \"Contracts\":1240:1248  _referee */\n      dup5\n        /* \"Contracts\":1218:1249  refereeAddresses.push(_referee) */\n      swap1\n      dup1\n      0x01\n      dup2\n      sload\n      add\n      dup1\n      dup3\n      sstore\n      dup1\n      swap2\n      pop\n      pop\n      0x01\n      swap1\n      sub\n      swap1\n      0x00\n      mstore\n      keccak256(0x00, 0x20)\n      add\n      0x00\n      swap1\n      swap2\n      swap1\n      swap2\n      swap1\n      swap2\n      0x0100\n      exp\n      dup2\n      sload\n      dup2\n      0xffffffffffffffffffffffffffffffffffffffff\n      mul\n      not\n      and\n      swap1\n      dup4\n      0xffffffffffffffffffffffffffffffffffffffff\n      and\n      mul\n      or\n      swap1\n      sstore\n      pop\n        /* \"Contracts\":1128:1260  if(referees[_referee].managedContracts == 0){... */\n    tag_247:\n        /* \"Contracts\":1269:1303  AccountabilityContract newContract */\n      0x00\n        /* \"Contracts\":1342:1351  msg.value */\n      callvalue\n        /* \"Contracts\":1353:1363  msg.sender */\n      caller\n        /* \"Contracts\":1365:1373  _referee */\n      dup7\n        /* \"Contracts\":1375:1380  _name */\n      dup7\n        /* \"Contracts\":1382:1394  _description */\n      dup7\n        /* \"Contracts\":1396:1413  _failureRecipient */\n      dup7\n        /* \"Contracts\":1415:1424  msg.value */\n      callvalue\n        /* \"Contracts\":1306:1425  (new AccountabilityContract){value: msg.value}(msg.sender, _referee, _name, _description, _failureRecipient, msg.value) */\n      mload(0x40)\n      tag_250\n      swap1\n      tag_251\n      jump\t// in\n    tag_250:\n      tag_252\n      swap7\n      swap6\n      swap5\n      swap4\n      swap3\n      swap2\n      swap1\n      tag_253\n      jump\t// in\n    tag_252:\n      mload(0x40)\n      dup1\n      swap2\n      sub\n      swap1\n      dup3\n      create\n      swap1\n      pop\n      dup1\n      iszero\n      dup1\n      iszero\n      tag_254\n      jumpi\n      returndatasize\n      0x00\n      dup1\n      returndatacopy\n      revert(0x00, returndatasize)\n    tag_254:\n      pop\n        /* \"Contracts\":1269:1425  AccountabilityContract newContract = (new AccountabilityContract){value: msg.value}(msg.sender, _referee, _name, _description, _failureRecipient, msg.value) */\n      swap1\n      pop\n        /* \"Contracts\":1435:1466  numberOfAccountabilityContracts */\n      0x04\n      0x00\n        /* \"Contracts\":1435:1468  numberOfAccountabilityContracts++ */\n      dup2\n      sload\n      dup1\n      swap3\n      swap2\n      swap1\n      tag_255\n      swap1\n      tag_182\n      jump\t// in\n    tag_255:\n      swap2\n      swap1\n      pop\n      sstore\n      pop\n        /* \"Contracts\":1478:1509  accountabilityContractAddresses */\n      0x03\n        /* \"Contracts\":1523:1534  newContract */\n      dup2\n        /* \"Contracts\":1478:1536  accountabilityContractAddresses.push(address(newContract)) */\n      swap1\n      dup1\n      0x01\n      dup2\n      sload\n      add\n      dup1\n      dup3\n      sstore\n      dup1\n      swap2\n      pop\n      pop\n      0x01\n      swap1\n      sub\n      swap1\n      0x00\n      mstore\n      keccak256(0x00, 0x20)\n      add\n      0x00\n      swap1\n      swap2\n      swap1\n      swap2\n      swap1\n      swap2\n      0x0100\n      exp\n      dup2\n      sload\n      dup2\n      0xffffffffffffffffffffffffffffffffffffffff\n      mul\n      not\n      and\n      swap1\n      dup4\n      0xffffffffffffffffffffffffffffffffffffffff\n      and\n      mul\n      or\n      swap1\n      sstore\n      pop\n        /* \"Contracts\":1567:1576  msg.value */\n      callvalue\n        /* \"Contracts\":1546:1565  totalEthInContracts */\n      0x05\n      0x00\n        /* \"Contracts\":1546:1576  totalEthInContracts+=msg.value */\n      dup3\n      dup3\n      sload\n      tag_257\n      swap2\n      swap1\n      tag_258\n      jump\t// in\n    tag_257:\n      swap3\n      pop\n      pop\n      dup2\n      swap1\n      sstore\n      pop\n        /* \"Contracts\":1586:1591  users */\n      0x00\n        /* \"Contracts\":1586:1603  users[msg.sender] */\n      dup1\n        /* \"Contracts\":1592:1602  msg.sender */\n      caller\n        /* \"Contracts\":1586:1603  users[msg.sender] */\n      0xffffffffffffffffffffffffffffffffffffffff\n      and\n      0xffffffffffffffffffffffffffffffffffffffff\n      and\n      dup2\n      mstore\n      0x20\n      add\n      swap1\n      dup2\n      mstore\n      0x20\n      add\n      0x00\n      keccak256\n        /* \"Contracts\":1586:1620  users[msg.sender].createdContracts */\n      0x00\n      add\n      0x00\n        /* \"Contracts\":1586:1622  users[msg.sender].createdContracts++ */\n      dup2\n      sload\n      dup1\n      swap3\n      swap2\n      swap1\n      tag_259\n      swap1\n      tag_182\n      jump\t// in\n    tag_259:\n      swap2\n      swap1\n      pop\n      sstore\n      pop\n        /* \"Contracts\":1632:1637  users */\n      0x00\n        /* \"Contracts\":1632:1649  users[msg.sender] */\n      dup1\n        /* \"Contracts\":1638:1648  msg.sender */\n      caller\n        /* \"Contracts\":1632:1649  users[msg.sender] */\n      0xffffffffffffffffffffffffffffffffffffffff\n      and\n      0xffffffffffffffffffffffffffffffffffffffff\n      and\n      dup2\n      mstore\n      0x20\n      add\n      swap1\n      dup2\n      mstore\n      0x20\n      add\n      0x00\n      keccak256\n        /* \"Contracts\":1632:1685  users[msg.sender].openAccountabilityContractAddresses */\n      0x01\n      add\n        /* \"Contracts\":1699:1710  newContract */\n      dup2\n        /* \"Contracts\":1632:1712  users[msg.sender].openAccountabilityContractAddresses.push(address(newContract)) */\n      swap1\n      dup1\n      0x01\n      dup2\n      sload\n      add\n      dup1\n      dup3\n      sstore\n      dup1\n      swap2\n      pop\n      pop\n      0x01\n      swap1\n      sub\n      swap1\n      0x00\n      mstore\n      keccak256(0x00, 0x20)\n      add\n      0x00\n      swap1\n      swap2\n      swap1\n      swap2\n      swap1\n      swap2\n      0x0100\n      exp\n      dup2\n      sload\n      dup2\n      0xffffffffffffffffffffffffffffffffffffffff\n      mul\n      not\n      and\n      swap1\n      dup4\n      0xffffffffffffffffffffffffffffffffffffffff\n      and\n      mul\n      or\n      swap1\n      sstore\n      pop\n        /* \"Contracts\":1722:1730  referees */\n      0x06\n        /* \"Contracts\":1722:1740  referees[_referee] */\n      0x00\n        /* \"Contracts\":1731:1739  _referee */\n      dup7\n        /* \"Contracts\":1722:1740  referees[_referee] */\n      0xffffffffffffffffffffffffffffffffffffffff\n      and\n      0xffffffffffffffffffffffffffffffffffffffff\n      and\n      dup2\n      mstore\n      0x20\n      add\n      swap1\n      dup2\n      mstore\n      0x20\n      add\n      0x00\n      keccak256\n        /* \"Contracts\":1722:1757  referees[_referee].managedContracts */\n      0x00\n      add\n      0x00\n        /* \"Contracts\":1722:1759  referees[_referee].managedContracts++ */\n      dup2\n      sload\n      dup1\n      swap3\n      swap2\n      swap1\n      tag_261\n      swap1\n      tag_182\n      jump\t// in\n    tag_261:\n      swap2\n      swap1\n      pop\n      sstore\n      pop\n        /* \"Contracts\":1769:1777  referees */\n      0x06\n        /* \"Contracts\":1769:1787  referees[_referee] */\n      0x00\n        /* \"Contracts\":1778:1786  _referee */\n      dup7\n        /* \"Contracts\":1769:1787  referees[_referee] */\n      0xffffffffffffffffffffffffffffffffffffffff\n      and\n      0xffffffffffffffffffffffffffffffffffffffff\n      and\n      dup2\n      mstore\n      0x20\n      add\n      swap1\n      dup2\n      mstore\n      0x20\n      add\n      0x00\n      keccak256\n        /* \"Contracts\":1769:1823  referees[_referee].openAccountabilityContractAddresses */\n      0x01\n      add\n        /* \"Contracts\":1837:1848  newContract */\n      dup2\n        /* \"Contracts\":1769:1850  referees[_referee].openAccountabilityContractAddresses.push(address(newContract)) */\n      swap1\n      dup1\n      0x01\n      dup2\n      sload\n      add\n      dup1\n      dup3\n      sstore\n      dup1\n      swap2\n      pop\n      pop\n      0x01\n      swap1\n      sub\n      swap1\n      0x00\n      mstore\n      keccak256(0x00, 0x20)\n      add\n      0x00\n      swap1\n      swap2\n      swap1\n      swap2\n      swap1\n      swap2\n      0x0100\n      exp\n      dup2\n      sload\n      dup2\n      0xffffffffffffffffffffffffffffffffffffffff\n      mul\n      not\n      and\n      swap1\n      dup4\n      0xffffffffffffffffffffffffffffffffffffffff\n      and\n      mul\n      or\n      swap1\n      sstore\n      pop\n        /* \"Contracts\":982:1857  {... */\n      pop\n        /* \"Contracts\":827:1857  function createAccountabilityContract(address _referee, string memory _name, string memory _description, address payable _failureRecipient) public payable {... */\n      pop\n      pop\n      pop\n      pop\n      jump\t// out\n        /* \"Contracts\":4885:5604  function moveOpenContractToClosedContractsForUser(address user, address contractAddress) private {... */\n    tag_199:\n        /* \"Contracts\":4992:5010  uint contractIndex */\n      0x00\n        /* \"Contracts\":5013:5059  getContractIndexForUser(user, contractAddress) */\n      tag_264\n        /* \"Contracts\":5037:5041  user */\n      dup4\n        /* \"Contracts\":5043:5058  contractAddress */\n      dup4\n        /* \"Contracts\":5013:5036  getContractIndexForUser */\n      tag_265\n        /* \"Contracts\":5013:5059  getContractIndexForUser(user, contractAddress) */\n      jump\t// in\n    tag_264:\n        /* \"Contracts\":4992:5059  uint contractIndex = getContractIndexForUser(user, contractAddress) */\n      swap1\n      pop\n        /* \"Contracts\":5069:5101  uint openContractAddressesLength */\n      0x00\n        /* \"Contracts\":5104:5109  users */\n      dup1\n        /* \"Contracts\":5104:5115  users[user] */\n      0x00\n        /* \"Contracts\":5110:5114  user */\n      dup6\n        /* \"Contracts\":5104:5115  users[user] */\n      0xffffffffffffffffffffffffffffffffffffffff\n      and\n      0xffffffffffffffffffffffffffffffffffffffff\n      and\n      dup2\n      mstore\n      0x20\n      add\n      swap1\n      dup2\n      mstore\n      0x20\n      add\n      0x00\n      keccak256\n        /* \"Contracts\":5104:5151  users[user].openAccountabilityContractAddresses */\n      0x01\n      add\n        /* \"Contracts\":5104:5158  users[user].openAccountabilityContractAddresses.length */\n      dup1\n      sload\n      swap1\n      pop\n        /* \"Contracts\":5069:5158  uint openContractAddressesLength = users[user].openAccountabilityContractAddresses.length */\n      swap1\n      pop\n        /* \"Contracts\":5173:5179  uint i */\n      0x00\n        /* \"Contracts\":5182:5195  contractIndex */\n      dup3\n        /* \"Contracts\":5173:5195  uint i = contractIndex */\n      swap1\n      pop\n        /* \"Contracts\":5168:5364  for (uint i = contractIndex; i<openContractAddressesLength-1; i++){... */\n    tag_266:\n        /* \"Contracts\":5227:5228  1 */\n      0x01\n        /* \"Contracts\":5199:5226  openContractAddressesLength */\n      dup3\n        /* \"Contracts\":5199:5228  openContractAddressesLength-1 */\n      tag_269\n      swap2\n      swap1\n      tag_167\n      jump\t// in\n    tag_269:\n        /* \"Contracts\":5197:5198  i */\n      dup2\n        /* \"Contracts\":5197:5228  i<openContractAddressesLength-1 */\n      lt\n        /* \"Contracts\":5168:5364  for (uint i = contractIndex; i<openContractAddressesLength-1; i++){... */\n      iszero\n      tag_267\n      jumpi\n        /* \"Contracts\":5301:5306  users */\n      0x00\n        /* \"Contracts\":5301:5312  users[user] */\n      dup1\n        /* \"Contracts\":5307:5311  user */\n      dup7\n        /* \"Contracts\":5301:5312  users[user] */\n      0xffffffffffffffffffffffffffffffffffffffff\n      and\n      0xffffffffffffffffffffffffffffffffffffffff\n      and\n      dup2\n      mstore\n      0x20\n      add\n      swap1\n      dup2\n      mstore\n      0x20\n      add\n      0x00\n      keccak256\n        /* \"Contracts\":5301:5348  users[user].openAccountabilityContractAddresses */\n      0x01\n      add\n        /* \"Contracts\":5351:5352  1 */\n      0x01\n        /* \"Contracts\":5349:5350  i */\n      dup3\n        /* \"Contracts\":5349:5352  i+1 */\n      tag_270\n      swap2\n      swap1\n      tag_258\n      jump\t// in\n    tag_270:\n        /* \"Contracts\":5301:5353  users[user].openAccountabilityContractAddresses[i+1] */\n      dup2\n      sload\n      dup2\n      lt\n      tag_271\n      jumpi\n      tag_272\n      tag_177\n      jump\t// in\n    tag_272:\n    tag_271:\n      swap1\n      0x00\n      mstore\n      keccak256(0x00, 0x20)\n      add\n      0x00\n      swap1\n      sload\n      swap1\n      0x0100\n      exp\n      swap1\n      div\n      0xffffffffffffffffffffffffffffffffffffffff\n      and\n        /* \"Contracts\":5248:5253  users */\n      0x00\n        /* \"Contracts\":5248:5259  users[user] */\n      dup1\n        /* \"Contracts\":5254:5258  user */\n      dup8\n        /* \"Contracts\":5248:5259  users[user] */\n      0xffffffffffffffffffffffffffffffffffffffff\n      and\n      0xffffffffffffffffffffffffffffffffffffffff\n      and\n      dup2\n      mstore\n      0x20\n      add\n      swap1\n      dup2\n      mstore\n      0x20\n      add\n      0x00\n      keccak256\n        /* \"Contracts\":5248:5295  users[user].openAccountabilityContractAddresses */\n      0x01\n      add\n        /* \"Contracts\":5296:5297  i */\n      dup3\n        /* \"Contracts\":5248:5298  users[user].openAccountabilityContractAddresses[i] */\n      dup2\n      sload\n      dup2\n      lt\n      tag_274\n      jumpi\n      tag_275\n      tag_177\n      jump\t// in\n    tag_275:\n    tag_274:\n      swap1\n      0x00\n      mstore\n      keccak256(0x00, 0x20)\n      add\n      0x00\n        /* \"Contracts\":5248:5353  users[user].openAccountabilityContractAddresses[i] = users[user].openAccountabilityContractAddresses[i+1] */\n      0x0100\n      exp\n      dup2\n      sload\n      dup2\n      0xffffffffffffffffffffffffffffffffffffffff\n      mul\n      not\n      and\n      swap1\n      dup4\n      0xffffffffffffffffffffffffffffffffffffffff\n      and\n      mul\n      or\n      swap1\n      sstore\n      pop\n        /* \"Contracts\":5230:5233  i++ */\n      dup1\n      dup1\n      tag_277\n      swap1\n      tag_182\n      jump\t// in\n    tag_277:\n      swap2\n      pop\n      pop\n        /* \"Contracts\":5168:5364  for (uint i = contractIndex; i<openContractAddressesLength-1; i++){... */\n      jump(tag_266)\n    tag_267:\n      pop\n        /* \"Contracts\":5373:5378  users */\n      0x00\n        /* \"Contracts\":5373:5384  users[user] */\n      dup1\n        /* \"Contracts\":5379:5383  user */\n      dup6\n        /* \"Contracts\":5373:5384  users[user] */\n      0xffffffffffffffffffffffffffffffffffffffff\n      and\n      0xffffffffffffffffffffffffffffffffffffffff\n      and\n      dup2\n      mstore\n      0x20\n      add\n      swap1\n      dup2\n      mstore\n      0x20\n      add\n      0x00\n      keccak256\n        /* \"Contracts\":5373:5422  users[user].closedAccountabilityContractAddresses */\n      0x02\n      add\n        /* \"Contracts\":5428:5433  users */\n      0x00\n        /* \"Contracts\":5428:5439  users[user] */\n      dup1\n        /* \"Contracts\":5434:5438  user */\n      dup7\n        /* \"Contracts\":5428:5439  users[user] */\n      0xffffffffffffffffffffffffffffffffffffffff\n      and\n      0xffffffffffffffffffffffffffffffffffffffff\n      and\n      dup2\n      mstore\n      0x20\n      add\n      swap1\n      dup2\n      mstore\n      0x20\n      add\n      0x00\n      keccak256\n        /* \"Contracts\":5428:5475  users[user].openAccountabilityContractAddresses */\n      0x01\n      add\n        /* \"Contracts\":5531:5532  1 */\n      0x01\n        /* \"Contracts\":5476:5481  users */\n      0x00\n        /* \"Contracts\":5476:5487  users[user] */\n      dup1\n        /* \"Contracts\":5482:5486  user */\n      dup9\n        /* \"Contracts\":5476:5487  users[user] */\n      0xffffffffffffffffffffffffffffffffffffffff\n      and\n      0xffffffffffffffffffffffffffffffffffffffff\n      and\n      dup2\n      mstore\n      0x20\n      add\n      swap1\n      dup2\n      mstore\n      0x20\n      add\n      0x00\n      keccak256\n        /* \"Contracts\":5476:5523  users[user].openAccountabilityContractAddresses */\n      0x01\n      add\n        /* \"Contracts\":5476:5530  users[user].openAccountabilityContractAddresses.length */\n      dup1\n      sload\n      swap1\n      pop\n        /* \"Contracts\":5476:5532  users[user].openAccountabilityContractAddresses.length-1 */\n      tag_278\n      swap2\n      swap1\n      tag_167\n      jump\t// in\n    tag_278:\n        /* \"Contracts\":5428:5533  users[user].openAccountabilityContractAddresses[users[user].openAccountabilityContractAddresses.length-1] */\n      dup2\n      sload\n      dup2\n      lt\n      tag_279\n      jumpi\n      tag_280\n      tag_177\n      jump\t// in\n    tag_280:\n    tag_279:\n      swap1\n      0x00\n      mstore\n      keccak256(0x00, 0x20)\n      add\n      0x00\n      swap1\n      sload\n      swap1\n      0x0100\n      exp\n      swap1\n      div\n      0xffffffffffffffffffffffffffffffffffffffff\n      and\n        /* \"Contracts\":5373:5534  users[user].closedAccountabilityContractAddresses.push(users[user].openAccountabilityContractAddresses[users[user].openAccountabilityContractAddresses.length-1]) */\n      swap1\n      dup1\n      0x01\n      dup2\n      sload\n      add\n      dup1\n      dup3\n      sstore\n      dup1\n      swap2\n      pop\n      pop\n      0x01\n      swap1\n      sub\n      swap1\n      0x00\n      mstore\n      keccak256(0x00, 0x20)\n      add\n      0x00\n      swap1\n      swap2\n      swap1\n      swap2\n      swap1\n      swap2\n      0x0100\n      exp\n      dup2\n      sload\n      dup2\n      0xffffffffffffffffffffffffffffffffffffffff\n      mul\n      not\n      and\n      swap1\n      dup4\n      0xffffffffffffffffffffffffffffffffffffffff\n      and\n      mul\n      or\n      swap1\n      sstore\n      pop\n        /* \"Contracts\":5544:5549  users */\n      0x00\n        /* \"Contracts\":5544:5555  users[user] */\n      dup1\n        /* \"Contracts\":5550:5554  user */\n      dup6\n        /* \"Contracts\":5544:5555  users[user] */\n      0xffffffffffffffffffffffffffffffffffffffff\n      and\n      0xffffffffffffffffffffffffffffffffffffffff\n      and\n      dup2\n      mstore\n      0x20\n      add\n      swap1\n      dup2\n      mstore\n      0x20\n      add\n      0x00\n      keccak256\n        /* \"Contracts\":5544:5591  users[user].openAccountabilityContractAddresses */\n      0x01\n      add\n        /* \"Contracts\":5544:5597  users[user].openAccountabilityContractAddresses.pop() */\n      dup1\n      sload\n      dup1\n      tag_283\n      jumpi\n      tag_284\n      tag_285\n      jump\t// in\n    tag_284:\n    tag_283:\n      0x01\n      swap1\n      sub\n      dup2\n      dup2\n      swap1\n      0x00\n      mstore\n      keccak256(0x00, 0x20)\n      add\n      exp(0x0100, 0x00)\n      dup2\n      sload\n      swap1\n      0xffffffffffffffffffffffffffffffffffffffff\n      mul\n      not\n      and\n      swap1\n      sstore\n      swap1\n      sstore\n        /* \"Contracts\":4982:5604  {... */\n      pop\n      pop\n        /* \"Contracts\":4885:5604  function moveOpenContractToClosedContractsForUser(address user, address contractAddress) private {... */\n      pop\n      pop\n      jump\t// out\n        /* \"Contracts\":6039:6740  function moveOpenContractToClosedContractsForReferee(address referee, address contractAddress) private {... */\n    tag_204:\n        /* \"Contracts\":6152:6170  uint contractIndex */\n      0x00\n        /* \"Contracts\":6173:6225  getContractIndexForReferee(referee, contractAddress) */\n      tag_288\n        /* \"Contracts\":6200:6207  referee */\n      dup4\n        /* \"Contracts\":6209:6224  contractAddress */\n      dup4\n        /* \"Contracts\":6173:6199  getContractIndexForReferee */\n      tag_289\n        /* \"Contracts\":6173:6225  getContractIndexForReferee(referee, contractAddress) */\n      jump\t// in\n    tag_288:\n        /* \"Contracts\":6152:6225  uint contractIndex = getContractIndexForReferee(referee, contractAddress) */\n      swap1\n      pop\n        /* \"Contracts\":6240:6246  uint i */\n      0x00\n        /* \"Contracts\":6249:6262  contractIndex */\n      dup2\n        /* \"Contracts\":6240:6262  uint i = contractIndex */\n      swap1\n      pop\n        /* \"Contracts\":6235:6476  for (uint i = contractIndex; i<referees[referee].openAccountabilityContractAddresses.length-1; i++){... */\n    tag_290:\n        /* \"Contracts\":6327:6328  1 */\n      0x01\n        /* \"Contracts\":6266:6274  referees */\n      0x06\n        /* \"Contracts\":6266:6283  referees[referee] */\n      0x00\n        /* \"Contracts\":6275:6282  referee */\n      dup7\n        /* \"Contracts\":6266:6283  referees[referee] */\n      0xffffffffffffffffffffffffffffffffffffffff\n      and\n      0xffffffffffffffffffffffffffffffffffffffff\n      and\n      dup2\n      mstore\n      0x20\n      add\n      swap1\n      dup2\n      mstore\n      0x20\n      add\n      0x00\n      keccak256\n        /* \"Contracts\":6266:6319  referees[referee].openAccountabilityContractAddresses */\n      0x01\n      add\n        /* \"Contracts\":6266:6326  referees[referee].openAccountabilityContractAddresses.length */\n      dup1\n      sload\n      swap1\n      pop\n        /* \"Contracts\":6266:6328  referees[referee].openAccountabilityContractAddresses.length-1 */\n      tag_293\n      swap2\n      swap1\n      tag_167\n      jump\t// in\n    tag_293:\n        /* \"Contracts\":6264:6265  i */\n      dup2\n        /* \"Contracts\":6264:6328  i<referees[referee].openAccountabilityContractAddresses.length-1 */\n      lt\n        /* \"Contracts\":6235:6476  for (uint i = contractIndex; i<referees[referee].openAccountabilityContractAddresses.length-1; i++){... */\n      iszero\n      tag_291\n      jumpi\n        /* \"Contracts\":6407:6415  referees */\n      0x06\n        /* \"Contracts\":6407:6424  referees[referee] */\n      0x00\n        /* \"Contracts\":6416:6423  referee */\n      dup6\n        /* \"Contracts\":6407:6424  referees[referee] */\n      0xffffffffffffffffffffffffffffffffffffffff\n      and\n      0xffffffffffffffffffffffffffffffffffffffff\n      and\n      dup2\n      mstore\n      0x20\n      add\n      swap1\n      dup2\n      mstore\n      0x20\n      add\n      0x00\n      keccak256\n        /* \"Contracts\":6407:6460  referees[referee].openAccountabilityContractAddresses */\n      0x01\n      add\n        /* \"Contracts\":6463:6464  1 */\n      0x01\n        /* \"Contracts\":6461:6462  i */\n      dup3\n        /* \"Contracts\":6461:6464  i+1 */\n      tag_294\n      swap2\n      swap1\n      tag_258\n      jump\t// in\n    tag_294:\n        /* \"Contracts\":6407:6465  referees[referee].openAccountabilityContractAddresses[i+1] */\n      dup2\n      sload\n      dup2\n      lt\n      tag_295\n      jumpi\n      tag_296\n      tag_177\n      jump\t// in\n    tag_296:\n    tag_295:\n      swap1\n      0x00\n      mstore\n      keccak256(0x00, 0x20)\n      add\n      0x00\n      swap1\n      sload\n      swap1\n      0x0100\n      exp\n      swap1\n      div\n      0xffffffffffffffffffffffffffffffffffffffff\n      and\n        /* \"Contracts\":6348:6356  referees */\n      0x06\n        /* \"Contracts\":6348:6365  referees[referee] */\n      0x00\n        /* \"Contracts\":6357:6364  referee */\n      dup7\n        /* \"Contracts\":6348:6365  referees[referee] */\n      0xffffffffffffffffffffffffffffffffffffffff\n      and\n      0xffffffffffffffffffffffffffffffffffffffff\n      and\n      dup2\n      mstore\n      0x20\n      add\n      swap1\n      dup2\n      mstore\n      0x20\n      add\n      0x00\n      keccak256\n        /* \"Contracts\":6348:6401  referees[referee].openAccountabilityContractAddresses */\n      0x01\n      add\n        /* \"Contracts\":6402:6403  i */\n      dup3\n        /* \"Contracts\":6348:6404  referees[referee].openAccountabilityContractAddresses[i] */\n      dup2\n      sload\n      dup2\n      lt\n      tag_298\n      jumpi\n      tag_299\n      tag_177\n      jump\t// in\n    tag_299:\n    tag_298:\n      swap1\n      0x00\n      mstore\n      keccak256(0x00, 0x20)\n      add\n      0x00\n        /* \"Contracts\":6348:6465  referees[referee].openAccountabilityContractAddresses[i] = referees[referee].openAccountabilityContractAddresses[i+1] */\n      0x0100\n      exp\n      dup2\n      sload\n      dup2\n      0xffffffffffffffffffffffffffffffffffffffff\n      mul\n      not\n      and\n      swap1\n      dup4\n      0xffffffffffffffffffffffffffffffffffffffff\n      and\n      mul\n      or\n      swap1\n      sstore\n      pop\n        /* \"Contracts\":6330:6333  i++ */\n      dup1\n      dup1\n      tag_301\n      swap1\n      tag_182\n      jump\t// in\n    tag_301:\n      swap2\n      pop\n      pop\n        /* \"Contracts\":6235:6476  for (uint i = contractIndex; i<referees[referee].openAccountabilityContractAddresses.length-1; i++){... */\n      jump(tag_290)\n    tag_291:\n      pop\n        /* \"Contracts\":6485:6493  referees */\n      0x06\n        /* \"Contracts\":6485:6502  referees[referee] */\n      0x00\n        /* \"Contracts\":6494:6501  referee */\n      dup5\n        /* \"Contracts\":6485:6502  referees[referee] */\n      0xffffffffffffffffffffffffffffffffffffffff\n      and\n      0xffffffffffffffffffffffffffffffffffffffff\n      and\n      dup2\n      mstore\n      0x20\n      add\n      swap1\n      dup2\n      mstore\n      0x20\n      add\n      0x00\n      keccak256\n        /* \"Contracts\":6485:6540  referees[referee].closedAccountabilityContractAddresses */\n      0x02\n      add\n        /* \"Contracts\":6546:6554  referees */\n      0x06\n        /* \"Contracts\":6546:6563  referees[referee] */\n      0x00\n        /* \"Contracts\":6555:6562  referee */\n      dup6\n        /* \"Contracts\":6546:6563  referees[referee] */\n      0xffffffffffffffffffffffffffffffffffffffff\n      and\n      0xffffffffffffffffffffffffffffffffffffffff\n      and\n      dup2\n      mstore\n      0x20\n      add\n      swap1\n      dup2\n      mstore\n      0x20\n      add\n      0x00\n      keccak256\n        /* \"Contracts\":6546:6599  referees[referee].openAccountabilityContractAddresses */\n      0x01\n      add\n        /* \"Contracts\":6661:6662  1 */\n      0x01\n        /* \"Contracts\":6600:6608  referees */\n      0x06\n        /* \"Contracts\":6600:6617  referees[referee] */\n      0x00\n        /* \"Contracts\":6609:6616  referee */\n      dup8\n        /* \"Contracts\":6600:6617  referees[referee] */\n      0xffffffffffffffffffffffffffffffffffffffff\n      and\n      0xffffffffffffffffffffffffffffffffffffffff\n      and\n      dup2\n      mstore\n      0x20\n      add\n      swap1\n      dup2\n      mstore\n      0x20\n      add\n      0x00\n      keccak256\n        /* \"Contracts\":6600:6653  referees[referee].openAccountabilityContractAddresses */\n      0x01\n      add\n        /* \"Contracts\":6600:6660  referees[referee].openAccountabilityContractAddresses.length */\n      dup1\n      sload\n      swap1\n      pop\n        /* \"Contracts\":6600:6662  referees[referee].openAccountabilityContractAddresses.length-1 */\n      tag_302\n      swap2\n      swap1\n      tag_167\n      jump\t// in\n    tag_302:\n        /* \"Contracts\":6546:6663  referees[referee].openAccountabilityContractAddresses[referees[referee].openAccountabilityContractAddresses.length-1] */\n      dup2\n      sload\n      dup2\n      lt\n      tag_303\n      jumpi\n      tag_304\n      tag_177\n      jump\t// in\n    tag_304:\n    tag_303:\n      swap1\n      0x00\n      mstore\n      keccak256(0x00, 0x20)\n      add\n      0x00\n      swap1\n      sload\n      swap1\n      0x0100\n      exp\n      swap1\n      div\n      0xffffffffffffffffffffffffffffffffffffffff\n      and\n        /* \"Contracts\":6485:6664  referees[referee].closedAccountabilityContractAddresses.push(referees[referee].openAccountabilityContractAddresses[referees[referee].openAccountabilityContractAddresses.length-1]) */\n      swap1\n      dup1\n      0x01\n      dup2\n      sload\n      add\n      dup1\n      dup3\n      sstore\n      dup1\n      swap2\n      pop\n      pop\n      0x01\n      swap1\n      sub\n      swap1\n      0x00\n      mstore\n      keccak256(0x00, 0x20)\n      add\n      0x00\n      swap1\n      swap2\n      swap1\n      swap2\n      swap1\n      swap2\n      0x0100\n      exp\n      dup2\n      sload\n      dup2\n      0xffffffffffffffffffffffffffffffffffffffff\n      mul\n      not\n      and\n      swap1\n      dup4\n      0xffffffffffffffffffffffffffffffffffffffff\n      and\n      mul\n      or\n      swap1\n      sstore\n      pop\n        /* \"Contracts\":6674:6682  referees */\n      0x06\n        /* \"Contracts\":6674:6691  referees[referee] */\n      0x00\n        /* \"Contracts\":6683:6690  referee */\n      dup5\n        /* \"Contracts\":6674:6691  referees[referee] */\n      0xffffffffffffffffffffffffffffffffffffffff\n      and\n      0xffffffffffffffffffffffffffffffffffffffff\n      and\n      dup2\n      mstore\n      0x20\n      add\n      swap1\n      dup2\n      mstore\n      0x20\n      add\n      0x00\n      keccak256\n        /* \"Contracts\":6674:6727  referees[referee].openAccountabilityContractAddresses */\n      0x01\n      add\n        /* \"Contracts\":6674:6733  referees[referee].openAccountabilityContractAddresses.pop() */\n      dup1\n      sload\n      dup1\n      tag_307\n      jumpi\n      tag_308\n      tag_285\n      jump\t// in\n    tag_308:\n    tag_307:\n      0x01\n      swap1\n      sub\n      dup2\n      dup2\n      swap1\n      0x00\n      mstore\n      keccak256(0x00, 0x20)\n      add\n      exp(0x0100, 0x00)\n      dup2\n      sload\n      swap1\n      0xffffffffffffffffffffffffffffffffffffffff\n      mul\n      not\n      and\n      swap1\n      sstore\n      swap1\n      sstore\n        /* \"Contracts\":6142:6740  {... */\n      pop\n        /* \"Contracts\":6039:6740  function moveOpenContractToClosedContractsForReferee(address referee, address contractAddress) private {... */\n      pop\n      pop\n      jump\t// out\n        /* \"Contracts\":4473:4879  function getContractIndexForUser(address user, address contractAddress) view private returns (uint){... */\n    tag_265:\n        /* \"Contracts\":4567:4571  uint */\n      0x00\n        /* \"Contracts\":4582:4600  uint contractIndex */\n      dup1\n        /* \"Contracts\":4615:4621  uint i */\n      0x00\n        /* \"Contracts\":4610:4843  for (uint i = 0; i<=users[user].openAccountabilityContractAddresses.length-1; i++){... */\n    tag_311:\n        /* \"Contracts\":4685:4686  1 */\n      0x01\n        /* \"Contracts\":4630:4635  users */\n      0x00\n        /* \"Contracts\":4630:4641  users[user] */\n      dup1\n        /* \"Contracts\":4636:4640  user */\n      dup8\n        /* \"Contracts\":4630:4641  users[user] */\n      0xffffffffffffffffffffffffffffffffffffffff\n      and\n      0xffffffffffffffffffffffffffffffffffffffff\n      and\n      dup2\n      mstore\n      0x20\n      add\n      swap1\n      dup2\n      mstore\n      0x20\n      add\n      0x00\n      keccak256\n        /* \"Contracts\":4630:4677  users[user].openAccountabilityContractAddresses */\n      0x01\n      add\n        /* \"Contracts\":4630:4684  users[user].openAccountabilityContractAddresses.length */\n      dup1\n      sload\n      swap1\n      pop\n        /* \"Contracts\":4630:4686  users[user].openAccountabilityContractAddresses.length-1 */\n      tag_314\n      swap2\n      swap1\n      tag_167\n      jump\t// in\n    tag_314:\n        /* \"Contracts\":4627:4628  i */\n      dup2\n        /* \"Contracts\":4627:4686  i<=users[user].openAccountabilityContractAddresses.length-1 */\n      gt\n        /* \"Contracts\":4610:4843  for (uint i = 0; i<=users[user].openAccountabilityContractAddresses.length-1; i++){... */\n      tag_312\n      jumpi\n        /* \"Contracts\":4763:4778  contractAddress */\n      dup4\n        /* \"Contracts\":4709:4778  users[user].openAccountabilityContractAddresses[i] == contractAddress */\n      0xffffffffffffffffffffffffffffffffffffffff\n      and\n        /* \"Contracts\":4709:4714  users */\n      0x00\n        /* \"Contracts\":4709:4720  users[user] */\n      dup1\n        /* \"Contracts\":4715:4719  user */\n      dup8\n        /* \"Contracts\":4709:4720  users[user] */\n      0xffffffffffffffffffffffffffffffffffffffff\n      and\n      0xffffffffffffffffffffffffffffffffffffffff\n      and\n      dup2\n      mstore\n      0x20\n      add\n      swap1\n      dup2\n      mstore\n      0x20\n      add\n      0x00\n      keccak256\n        /* \"Contracts\":4709:4756  users[user].openAccountabilityContractAddresses */\n      0x01\n      add\n        /* \"Contracts\":4757:4758  i */\n      dup3\n        /* \"Contracts\":4709:4759  users[user].openAccountabilityContractAddresses[i] */\n      dup2\n      sload\n      dup2\n      lt\n      tag_315\n      jumpi\n      tag_316\n      tag_177\n      jump\t// in\n    tag_316:\n    tag_315:\n      swap1\n      0x00\n      mstore\n      keccak256(0x00, 0x20)\n      add\n      0x00\n      swap1\n      sload\n      swap1\n      0x0100\n      exp\n      swap1\n      div\n      0xffffffffffffffffffffffffffffffffffffffff\n      and\n        /* \"Contracts\":4709:4778  users[user].openAccountabilityContractAddresses[i] == contractAddress */\n      0xffffffffffffffffffffffffffffffffffffffff\n      and\n      eq\n        /* \"Contracts\":4706:4833  if(users[user].openAccountabilityContractAddresses[i] == contractAddress){... */\n      iszero\n      tag_318\n      jumpi\n        /* \"Contracts\":4813:4814  i */\n      dup1\n        /* \"Contracts\":4797:4814  contractIndex = i */\n      swap2\n      pop\n        /* \"Contracts\":4706:4833  if(users[user].openAccountabilityContractAddresses[i] == contractAddress){... */\n    tag_318:\n        /* \"Contracts\":4688:4691  i++ */\n      dup1\n      dup1\n      tag_319\n      swap1\n      tag_182\n      jump\t// in\n    tag_319:\n      swap2\n      pop\n      pop\n        /* \"Contracts\":4610:4843  for (uint i = 0; i<=users[user].openAccountabilityContractAddresses.length-1; i++){... */\n      jump(tag_311)\n    tag_312:\n      pop\n        /* \"Contracts\":4859:4872  contractIndex */\n      dup1\n        /* \"Contracts\":4852:4872  return contractIndex */\n      swap2\n      pop\n      pop\n        /* \"Contracts\":4473:4879  function getContractIndexForUser(address user, address contractAddress) view private returns (uint){... */\n      swap3\n      swap2\n      pop\n      pop\n      jump\t// out\n        /* \"Contracts\":5612:6032  function getContractIndexForReferee(address referee, address contractAddress) view private returns (uint){... */\n    tag_289:\n        /* \"Contracts\":5712:5716  uint */\n      0x00\n        /* \"Contracts\":5727:5745  uint contractIndex */\n      dup1\n        /* \"Contracts\":5760:5766  uint i */\n      0x00\n        /* \"Contracts\":5755:5996  for (uint i = 0; i<=referees[referee].openAccountabilityContractAddresses.length-1; i++){... */\n    tag_321:\n        /* \"Contracts\":5836:5837  1 */\n      0x01\n        /* \"Contracts\":5775:5783  referees */\n      0x06\n        /* \"Contracts\":5775:5792  referees[referee] */\n      0x00\n        /* \"Contracts\":5784:5791  referee */\n      dup8\n        /* \"Contracts\":5775:5792  referees[referee] */\n      0xffffffffffffffffffffffffffffffffffffffff\n      and\n      0xffffffffffffffffffffffffffffffffffffffff\n      and\n      dup2\n      mstore\n      0x20\n      add\n      swap1\n      dup2\n      mstore\n      0x20\n      add\n      0x00\n      keccak256\n        /* \"Contracts\":5775:5828  referees[referee].openAccountabilityContractAddresses */\n      0x01\n      add\n        /* \"Contracts\":5775:5835  referees[referee].openAccountabilityContractAddresses.length */\n      dup1\n      sload\n      swap1\n      pop\n        /* \"Contracts\":5775:5837  referees[referee].openAccountabilityContractAddresses.length-1 */\n      tag_324\n      swap2\n      swap1\n      tag_167\n      jump\t// in\n    tag_324:\n        /* \"Contracts\":5772:5773  i */\n      dup2\n        /* \"Contracts\":5772:5837  i<=referees[referee].openAccountabilityContractAddresses.length-1 */\n      gt\n        /* \"Contracts\":5755:5996  for (uint i = 0; i<=referees[referee].openAccountabilityContractAddresses.length-1; i++){... */\n      tag_322\n      jumpi\n        /* \"Contracts\":5920:5935  contractAddress */\n      dup4\n        /* \"Contracts\":5860:5935  referees[referee].openAccountabilityContractAddresses[i] == contractAddress */\n      0xffffffffffffffffffffffffffffffffffffffff\n      and\n        /* \"Contracts\":5860:5868  referees */\n      0x06\n        /* \"Contracts\":5860:5877  referees[referee] */\n      0x00\n        /* \"Contracts\":5869:5876  referee */\n      dup8\n        /* \"Contracts\":5860:5877  referees[referee] */\n      0xffffffffffffffffffffffffffffffffffffffff\n      and\n      0xffffffffffffffffffffffffffffffffffffffff\n      and\n      dup2\n      mstore\n      0x20\n      add\n      swap1\n      dup2\n      mstore\n      0x20\n      add\n      0x00\n      keccak256\n        /* \"Contracts\":5860:5913  referees[referee].openAccountabilityContractAddresses */\n      0x01\n      add\n        /* \"Contracts\":5914:5915  i */\n      dup3\n        /* \"Contracts\":5860:5916  referees[referee].openAccountabilityContractAddresses[i] */\n      dup2\n      sload\n      dup2\n      lt\n      tag_325\n      jumpi\n      tag_326\n      tag_177\n      jump\t// in\n    tag_326:\n    tag_325:\n      swap1\n      0x00\n      mstore\n      keccak256(0x00, 0x20)\n      add\n      0x00\n      swap1\n      sload\n      swap1\n      0x0100\n      exp\n      swap1\n      div\n      0xffffffffffffffffffffffffffffffffffffffff\n      and\n        /* \"Contracts\":5860:5935  referees[referee].openAccountabilityContractAddresses[i] == contractAddress */\n      0xffffffffffffffffffffffffffffffffffffffff\n      and\n      eq\n        /* \"Contracts\":5857:5986  if(referees[referee].openAccountabilityContractAddresses[i] == contractAddress){... */\n      iszero\n      tag_328\n      jumpi\n        /* \"Contracts\":5970:5971  i */\n      dup1\n        /* \"Contracts\":5954:5971  contractIndex = i */\n      swap2\n      pop\n        /* \"Contracts\":5857:5986  if(referees[referee].openAccountabilityContractAddresses[i] == contractAddress){... */\n    tag_328:\n        /* \"Contracts\":5839:5842  i++ */\n      dup1\n      dup1\n      tag_329\n      swap1\n      tag_182\n      jump\t// in\n    tag_329:\n      swap2\n      pop\n      pop\n        /* \"Contracts\":5755:5996  for (uint i = 0; i<=referees[referee].openAccountabilityContractAddresses.length-1; i++){... */\n      jump(tag_321)\n    tag_322:\n      pop\n        /* \"Contracts\":6012:6025  contractIndex */\n      dup1\n        /* \"Contracts\":6005:6025  return contractIndex */\n      swap2\n      pop\n      pop\n        /* \"Contracts\":5612:6032  function getContractIndexForReferee(address referee, address contractAddress) view private returns (uint){... */\n      swap3\n      swap2\n      pop\n      pop\n      jump\t// out\n    tag_154:\n      dataSize(sub_0)\n      dup1\n      dataOffset(sub_0)\n      dup4\n      codecopy\n      add\n      swap1\n      jump\t// out\n    tag_251:\n      dataSize(sub_1)\n      dup1\n      dataOffset(sub_1)\n      dup4\n      codecopy\n      add\n      swap1\n      jump\t// out\n        /* \"#utility.yul\":7:82   */\n    tag_330:\n        /* \"#utility.yul\":40:46   */\n      0x00\n        /* \"#utility.yul\":73:75   */\n      0x40\n        /* \"#utility.yul\":67:76   */\n      mload\n        /* \"#utility.yul\":57:76   */\n      swap1\n      pop\n        /* \"#utility.yul\":7:82   */\n      swap1\n      jump\t// out\n        /* \"#utility.yul\":88:205   */\n    tag_331:\n        /* \"#utility.yul\":197:198   */\n      0x00\n        /* \"#utility.yul\":194:195   */\n      dup1\n        /* \"#utility.yul\":187:199   */\n      revert\n        /* \"#utility.yul\":211:328   */\n    tag_332:\n        /* \"#utility.yul\":320:321   */\n      0x00\n        /* \"#utility.yul\":317:318   */\n      dup1\n        /* \"#utility.yul\":310:322   */\n      revert\n        /* \"#utility.yul\":334:460   */\n    tag_333:\n        /* \"#utility.yul\":371:378   */\n      0x00\n        /* \"#utility.yul\":411:453   */\n      0xffffffffffffffffffffffffffffffffffffffff\n        /* \"#utility.yul\":404:409   */\n      dup3\n        /* \"#utility.yul\":400:454   */\n      and\n        /* \"#utility.yul\":389:454   */\n      swap1\n      pop\n        /* \"#utility.yul\":334:460   */\n      swap2\n      swap1\n      pop\n      jump\t// out\n        /* \"#utility.yul\":466:562   */\n    tag_334:\n        /* \"#utility.yul\":503:510   */\n      0x00\n        /* \"#utility.yul\":532:556   */\n      tag_393\n        /* \"#utility.yul\":550:555   */\n      dup3\n        /* \"#utility.yul\":532:556   */\n      tag_333\n      jump\t// in\n    tag_393:\n        /* \"#utility.yul\":521:556   */\n      swap1\n      pop\n        /* \"#utility.yul\":466:562   */\n      swap2\n      swap1\n      pop\n      jump\t// out\n        /* \"#utility.yul\":568:690   */\n    tag_335:\n        /* \"#utility.yul\":641:665   */\n      tag_395\n        /* \"#utility.yul\":659:664   */\n      dup2\n        /* \"#utility.yul\":641:665   */\n      tag_334\n      jump\t// in\n    tag_395:\n        /* \"#utility.yul\":634:639   */\n      dup2\n        /* \"#utility.yul\":631:666   */\n      eq\n        /* \"#utility.yul\":621:684   */\n      tag_396\n      jumpi\n        /* \"#utility.yul\":680:681   */\n      0x00\n        /* \"#utility.yul\":677:678   */\n      dup1\n        /* \"#utility.yul\":670:682   */\n      revert\n        /* \"#utility.yul\":621:684   */\n    tag_396:\n        /* \"#utility.yul\":568:690   */\n      pop\n      jump\t// out\n        /* \"#utility.yul\":696:835   */\n    tag_336:\n        /* \"#utility.yul\":742:747   */\n      0x00\n        /* \"#utility.yul\":780:786   */\n      dup2\n        /* \"#utility.yul\":767:787   */\n      calldataload\n        /* \"#utility.yul\":758:787   */\n      swap1\n      pop\n        /* \"#utility.yul\":796:829   */\n      tag_398\n        /* \"#utility.yul\":823:828   */\n      dup2\n        /* \"#utility.yul\":796:829   */\n      tag_335\n      jump\t// in\n    tag_398:\n        /* \"#utility.yul\":696:835   */\n      swap3\n      swap2\n      pop\n      pop\n      jump\t// out\n        /* \"#utility.yul\":841:1315   */\n    tag_28:\n        /* \"#utility.yul\":909:915   */\n      0x00\n        /* \"#utility.yul\":917:923   */\n      dup1\n        /* \"#utility.yul\":966:968   */\n      0x40\n        /* \"#utility.yul\":954:963   */\n      dup4\n        /* \"#utility.yul\":945:952   */\n      dup6\n        /* \"#utility.yul\":941:964   */\n      sub\n        /* \"#utility.yul\":937:969   */\n      slt\n        /* \"#utility.yul\":934:1053   */\n      iszero\n      tag_400\n      jumpi\n        /* \"#utility.yul\":972:1051   */\n      tag_401\n      tag_331\n      jump\t// in\n    tag_401:\n        /* \"#utility.yul\":934:1053   */\n    tag_400:\n        /* \"#utility.yul\":1092:1093   */\n      0x00\n        /* \"#utility.yul\":1117:1170   */\n      tag_402\n        /* \"#utility.yul\":1162:1169   */\n      dup6\n        /* \"#utility.yul\":1153:1159   */\n      dup3\n        /* \"#utility.yul\":1142:1151   */\n      dup7\n        /* \"#utility.yul\":1138:1160   */\n      add\n        /* \"#utility.yul\":1117:1170   */\n      tag_336\n      jump\t// in\n    tag_402:\n        /* \"#utility.yul\":1107:1170   */\n      swap3\n      pop\n        /* \"#utility.yul\":1063:1180   */\n      pop\n        /* \"#utility.yul\":1219:1221   */\n      0x20\n        /* \"#utility.yul\":1245:1298   */\n      tag_403\n        /* \"#utility.yul\":1290:1297   */\n      dup6\n        /* \"#utility.yul\":1281:1287   */\n      dup3\n        /* \"#utility.yul\":1270:1279   */\n      dup7\n        /* \"#utility.yul\":1266:1288   */\n      add\n        /* \"#utility.yul\":1245:1298   */\n      tag_336\n      jump\t// in\n    tag_403:\n        /* \"#utility.yul\":1235:1298   */\n      swap2\n      pop\n        /* \"#utility.yul\":1190:1308   */\n      pop\n        /* \"#utility.yul\":841:1315   */\n      swap3\n      pop\n      swap3\n      swap1\n      pop\n      jump\t// out\n        /* \"#utility.yul\":1321:1398   */\n    tag_337:\n        /* \"#utility.yul\":1358:1365   */\n      0x00\n        /* \"#utility.yul\":1387:1392   */\n      dup2\n        /* \"#utility.yul\":1376:1392   */\n      swap1\n      pop\n        /* \"#utility.yul\":1321:1398   */\n      swap2\n      swap1\n      pop\n      jump\t// out\n        /* \"#utility.yul\":1404:1526   */\n    tag_338:\n        /* \"#utility.yul\":1477:1501   */\n      tag_406\n        /* \"#utility.yul\":1495:1500   */\n      dup2\n        /* \"#utility.yul\":1477:1501   */\n      tag_337\n      jump\t// in\n    tag_406:\n        /* \"#utility.yul\":1470:1475   */\n      dup2\n        /* \"#utility.yul\":1467:1502   */\n      eq\n        /* \"#utility.yul\":1457:1520   */\n      tag_407\n      jumpi\n        /* \"#utility.yul\":1516:1517   */\n      0x00\n        /* \"#utility.yul\":1513:1514   */\n      dup1\n        /* \"#utility.yul\":1506:1518   */\n      revert\n        /* \"#utility.yul\":1457:1520   */\n    tag_407:\n        /* \"#utility.yul\":1404:1526   */\n      pop\n      jump\t// out\n        /* \"#utility.yul\":1532:1671   */\n    tag_339:\n        /* \"#utility.yul\":1578:1583   */\n      0x00\n        /* \"#utility.yul\":1616:1622   */\n      dup2\n        /* \"#utility.yul\":1603:1623   */\n      calldataload\n        /* \"#utility.yul\":1594:1623   */\n      swap1\n      pop\n        /* \"#utility.yul\":1632:1665   */\n      tag_409\n        /* \"#utility.yul\":1659:1664   */\n      dup2\n        /* \"#utility.yul\":1632:1665   */\n      tag_338\n      jump\t// in\n    tag_409:\n        /* \"#utility.yul\":1532:1671   */\n      swap3\n      swap2\n      pop\n      pop\n      jump\t// out\n        /* \"#utility.yul\":1677:2151   */\n    tag_33:\n        /* \"#utility.yul\":1745:1751   */\n      0x00\n        /* \"#utility.yul\":1753:1759   */\n      dup1\n        /* \"#utility.yul\":1802:1804   */\n      0x40\n        /* \"#utility.yul\":1790:1799   */\n      dup4\n        /* \"#utility.yul\":1781:1788   */\n      dup6\n        /* \"#utility.yul\":1777:1800   */\n      sub\n        /* \"#utility.yul\":1773:1805   */\n      slt\n        /* \"#utility.yul\":1770:1889   */\n      iszero\n      tag_411\n      jumpi\n        /* \"#utility.yul\":1808:1887   */\n      tag_412\n      tag_331\n      jump\t// in\n    tag_412:\n        /* \"#utility.yul\":1770:1889   */\n    tag_411:\n        /* \"#utility.yul\":1928:1929   */\n      0x00\n        /* \"#utility.yul\":1953:2006   */\n      tag_413\n        /* \"#utility.yul\":1998:2005   */\n      dup6\n        /* \"#utility.yul\":1989:1995   */\n      dup3\n        /* \"#utility.yul\":1978:1987   */\n      dup7\n        /* \"#utility.yul\":1974:1996   */\n      add\n        /* \"#utility.yul\":1953:2006   */\n      tag_339\n      jump\t// in\n    tag_413:\n        /* \"#utility.yul\":1943:2006   */\n      swap3\n      pop\n        /* \"#utility.yul\":1899:2016   */\n      pop\n        /* \"#utility.yul\":2055:2057   */\n      0x20\n        /* \"#utility.yul\":2081:2134   */\n      tag_414\n        /* \"#utility.yul\":2126:2133   */\n      dup6\n        /* \"#utility.yul\":2117:2123   */\n      dup3\n        /* \"#utility.yul\":2106:2115   */\n      dup7\n        /* \"#utility.yul\":2102:2124   */\n      add\n        /* \"#utility.yul\":2081:2134   */\n      tag_339\n      jump\t// in\n    tag_414:\n        /* \"#utility.yul\":2071:2134   */\n      swap2\n      pop\n        /* \"#utility.yul\":2026:2144   */\n      pop\n        /* \"#utility.yul\":1677:2151   */\n      swap3\n      pop\n      swap3\n      swap1\n      pop\n      jump\t// out\n        /* \"#utility.yul\":2157:2271   */\n    tag_340:\n        /* \"#utility.yul\":2224:2230   */\n      0x00\n        /* \"#utility.yul\":2258:2263   */\n      dup2\n        /* \"#utility.yul\":2252:2264   */\n      mload\n        /* \"#utility.yul\":2242:2264   */\n      swap1\n      pop\n        /* \"#utility.yul\":2157:2271   */\n      swap2\n      swap1\n      pop\n      jump\t// out\n        /* \"#utility.yul\":2277:2461   */\n    tag_341:\n        /* \"#utility.yul\":2376:2387   */\n      0x00\n        /* \"#utility.yul\":2410:2416   */\n      dup3\n        /* \"#utility.yul\":2405:2408   */\n      dup3\n        /* \"#utility.yul\":2398:2417   */\n      mstore\n        /* \"#utility.yul\":2450:2454   */\n      0x20\n        /* \"#utility.yul\":2445:2448   */\n      dup3\n        /* \"#utility.yul\":2441:2455   */\n      add\n        /* \"#utility.yul\":2426:2455   */\n      swap1\n      pop\n        /* \"#utility.yul\":2277:2461   */\n      swap3\n      swap2\n      pop\n      pop\n      jump\t// out\n        /* \"#utility.yul\":2467:2599   */\n    tag_342:\n        /* \"#utility.yul\":2534:2538   */\n      0x00\n        /* \"#utility.yul\":2557:2560   */\n      dup2\n        /* \"#utility.yul\":2549:2560   */\n      swap1\n      pop\n        /* \"#utility.yul\":2587:2591   */\n      0x20\n        /* \"#utility.yul\":2582:2585   */\n      dup3\n        /* \"#utility.yul\":2578:2592   */\n      add\n        /* \"#utility.yul\":2570:2592   */\n      swap1\n      pop\n        /* \"#utility.yul\":2467:2599   */\n      swap2\n      swap1\n      pop\n      jump\t// out\n        /* \"#utility.yul\":2605:2713   */\n    tag_343:\n        /* \"#utility.yul\":2682:2706   */\n      tag_419\n        /* \"#utility.yul\":2700:2705   */\n      dup2\n        /* \"#utility.yul\":2682:2706   */\n      tag_334\n      jump\t// in\n    tag_419:\n        /* \"#utility.yul\":2677:2680   */\n      dup3\n        /* \"#utility.yul\":2670:2707   */\n      mstore\n        /* \"#utility.yul\":2605:2713   */\n      pop\n      pop\n      jump\t// out\n        /* \"#utility.yul\":2719:2898   */\n    tag_344:\n        /* \"#utility.yul\":2788:2798   */\n      0x00\n        /* \"#utility.yul\":2809:2855   */\n      tag_421\n        /* \"#utility.yul\":2851:2854   */\n      dup4\n        /* \"#utility.yul\":2843:2849   */\n      dup4\n        /* \"#utility.yul\":2809:2855   */\n      tag_343\n      jump\t// in\n    tag_421:\n        /* \"#utility.yul\":2887:2891   */\n      0x20\n        /* \"#utility.yul\":2882:2885   */\n      dup4\n        /* \"#utility.yul\":2878:2892   */\n      add\n        /* \"#utility.yul\":2864:2892   */\n      swap1\n      pop\n        /* \"#utility.yul\":2719:2898   */\n      swap3\n      swap2\n      pop\n      pop\n      jump\t// out\n        /* \"#utility.yul\":2904:3017   */\n    tag_345:\n        /* \"#utility.yul\":2974:2978   */\n      0x00\n        /* \"#utility.yul\":3006:3010   */\n      0x20\n        /* \"#utility.yul\":3001:3004   */\n      dup3\n        /* \"#utility.yul\":2997:3011   */\n      add\n        /* \"#utility.yul\":2989:3011   */\n      swap1\n      pop\n        /* \"#utility.yul\":2904:3017   */\n      swap2\n      swap1\n      pop\n      jump\t// out\n        /* \"#utility.yul\":3053:3785   */\n    tag_346:\n        /* \"#utility.yul\":3172:3175   */\n      0x00\n        /* \"#utility.yul\":3201:3255   */\n      tag_424\n        /* \"#utility.yul\":3249:3254   */\n      dup3\n        /* \"#utility.yul\":3201:3255   */\n      tag_340\n      jump\t// in\n    tag_424:\n        /* \"#utility.yul\":3271:3357   */\n      tag_425\n        /* \"#utility.yul\":3350:3356   */\n      dup2\n        /* \"#utility.yul\":3345:3348   */\n      dup6\n        /* \"#utility.yul\":3271:3357   */\n      tag_341\n      jump\t// in\n    tag_425:\n        /* \"#utility.yul\":3264:3357   */\n      swap4\n      pop\n        /* \"#utility.yul\":3381:3437   */\n      tag_426\n        /* \"#utility.yul\":3431:3436   */\n      dup4\n        /* \"#utility.yul\":3381:3437   */\n      tag_342\n      jump\t// in\n    tag_426:\n        /* \"#utility.yul\":3460:3467   */\n      dup1\n        /* \"#utility.yul\":3491:3492   */\n      0x00\n        /* \"#utility.yul\":3476:3760   */\n    tag_427:\n        /* \"#utility.yul\":3501:3507   */\n      dup4\n        /* \"#utility.yul\":3498:3499   */\n      dup2\n        /* \"#utility.yul\":3495:3508   */\n      lt\n        /* \"#utility.yul\":3476:3760   */\n      iszero\n      tag_429\n      jumpi\n        /* \"#utility.yul\":3577:3583   */\n      dup2\n        /* \"#utility.yul\":3571:3584   */\n      mload\n        /* \"#utility.yul\":3604:3667   */\n      tag_430\n        /* \"#utility.yul\":3663:3666   */\n      dup9\n        /* \"#utility.yul\":3648:3661   */\n      dup3\n        /* \"#utility.yul\":3604:3667   */\n      tag_344\n      jump\t// in\n    tag_430:\n        /* \"#utility.yul\":3597:3667   */\n      swap8\n      pop\n        /* \"#utility.yul\":3690:3750   */\n      tag_431\n        /* \"#utility.yul\":3743:3749   */\n      dup4\n        /* \"#utility.yul\":3690:3750   */\n      tag_345\n      jump\t// in\n    tag_431:\n        /* \"#utility.yul\":3680:3750   */\n      swap3\n      pop\n        /* \"#utility.yul\":3536:3760   */\n      pop\n        /* \"#utility.yul\":3523:3524   */\n      0x01\n        /* \"#utility.yul\":3520:3521   */\n      dup2\n        /* \"#utility.yul\":3516:3525   */\n      add\n        /* \"#utility.yul\":3511:3525   */\n      swap1\n      pop\n        /* \"#utility.yul\":3476:3760   */\n      jump(tag_427)\n    tag_429:\n        /* \"#utility.yul\":3480:3494   */\n      pop\n        /* \"#utility.yul\":3776:3779   */\n      dup6\n        /* \"#utility.yul\":3769:3779   */\n      swap4\n      pop\n        /* \"#utility.yul\":3177:3785   */\n      pop\n      pop\n      pop\n        /* \"#utility.yul\":3053:3785   */\n      swap3\n      swap2\n      pop\n      pop\n      jump\t// out\n        /* \"#utility.yul\":3791:4164   */\n    tag_36:\n        /* \"#utility.yul\":3934:3938   */\n      0x00\n        /* \"#utility.yul\":3972:3974   */\n      0x20\n        /* \"#utility.yul\":3961:3970   */\n      dup3\n        /* \"#utility.yul\":3957:3975   */\n      add\n        /* \"#utility.yul\":3949:3975   */\n      swap1\n      pop\n        /* \"#utility.yul\":4021:4030   */\n      dup2\n        /* \"#utility.yul\":4015:4019   */\n      dup2\n        /* \"#utility.yul\":4011:4031   */\n      sub\n        /* \"#utility.yul\":4007:4008   */\n      0x00\n        /* \"#utility.yul\":3996:4005   */\n      dup4\n        /* \"#utility.yul\":3992:4009   */\n      add\n        /* \"#utility.yul\":3985:4032   */\n      mstore\n        /* \"#utility.yul\":4049:4157   */\n      tag_433\n        /* \"#utility.yul\":4152:4156   */\n      dup2\n        /* \"#utility.yul\":4143:4149   */\n      dup5\n        /* \"#utility.yul\":4049:4157   */\n      tag_346\n      jump\t// in\n    tag_433:\n        /* \"#utility.yul\":4041:4157   */\n      swap1\n      pop\n        /* \"#utility.yul\":3791:4164   */\n      swap3\n      swap2\n      pop\n      pop\n      jump\t// out\n        /* \"#utility.yul\":4170:4499   */\n    tag_40:\n        /* \"#utility.yul\":4229:4235   */\n      0x00\n        /* \"#utility.yul\":4278:4280   */\n      0x20\n        /* \"#utility.yul\":4266:4275   */\n      dup3\n        /* \"#utility.yul\":4257:4264   */\n      dup5\n        /* \"#utility.yul\":4253:4276   */\n      sub\n        /* \"#utility.yul\":4249:4281   */\n      slt\n        /* \"#utility.yul\":4246:4365   */\n      iszero\n      tag_435\n      jumpi\n        /* \"#utility.yul\":4284:4363   */\n      tag_436\n      tag_331\n      jump\t// in\n    tag_436:\n        /* \"#utility.yul\":4246:4365   */\n    tag_435:\n        /* \"#utility.yul\":4404:4405   */\n      0x00\n        /* \"#utility.yul\":4429:4482   */\n      tag_437\n        /* \"#utility.yul\":4474:4481   */\n      dup5\n        /* \"#utility.yul\":4465:4471   */\n      dup3\n        /* \"#utility.yul\":4454:4463   */\n      dup6\n        /* \"#utility.yul\":4450:4472   */\n      add\n        /* \"#utility.yul\":4429:4482   */\n      tag_336\n      jump\t// in\n    tag_437:\n        /* \"#utility.yul\":4419:4482   */\n      swap2\n      pop\n        /* \"#utility.yul\":4375:4492   */\n      pop\n        /* \"#utility.yul\":4170:4499   */\n      swap3\n      swap2\n      pop\n      pop\n      jump\t// out\n        /* \"#utility.yul\":4505:4834   */\n    tag_46:\n        /* \"#utility.yul\":4564:4570   */\n      0x00\n        /* \"#utility.yul\":4613:4615   */\n      0x20\n        /* \"#utility.yul\":4601:4610   */\n      dup3\n        /* \"#utility.yul\":4592:4599   */\n      dup5\n        /* \"#utility.yul\":4588:4611   */\n      sub\n        /* \"#utility.yul\":4584:4616   */\n      slt\n        /* \"#utility.yul\":4581:4700   */\n      iszero\n      tag_439\n      jumpi\n        /* \"#utility.yul\":4619:4698   */\n      tag_440\n      tag_331\n      jump\t// in\n    tag_440:\n        /* \"#utility.yul\":4581:4700   */\n    tag_439:\n        /* \"#utility.yul\":4739:4740   */\n      0x00\n        /* \"#utility.yul\":4764:4817   */\n      tag_441\n        /* \"#utility.yul\":4809:4816   */\n      dup5\n        /* \"#utility.yul\":4800:4806   */\n      dup3\n        /* \"#utility.yul\":4789:4798   */\n      dup6\n        /* \"#utility.yul\":4785:4807   */\n      add\n        /* \"#utility.yul\":4764:4817   */\n      tag_339\n      jump\t// in\n    tag_441:\n        /* \"#utility.yul\":4754:4817   */\n      swap2\n      pop\n        /* \"#utility.yul\":4710:4827   */\n      pop\n        /* \"#utility.yul\":4505:4834   */\n      swap3\n      swap2\n      pop\n      pop\n      jump\t// out\n        /* \"#utility.yul\":4840:4958   */\n    tag_347:\n        /* \"#utility.yul\":4927:4951   */\n      tag_443\n        /* \"#utility.yul\":4945:4950   */\n      dup2\n        /* \"#utility.yul\":4927:4951   */\n      tag_334\n      jump\t// in\n    tag_443:\n        /* \"#utility.yul\":4922:4925   */\n      dup3\n        /* \"#utility.yul\":4915:4952   */\n      mstore\n        /* \"#utility.yul\":4840:4958   */\n      pop\n      pop\n      jump\t// out\n        /* \"#utility.yul\":4964:5186   */\n    tag_49:\n        /* \"#utility.yul\":5057:5061   */\n      0x00\n        /* \"#utility.yul\":5095:5097   */\n      0x20\n        /* \"#utility.yul\":5084:5093   */\n      dup3\n        /* \"#utility.yul\":5080:5098   */\n      add\n        /* \"#utility.yul\":5072:5098   */\n      swap1\n      pop\n        /* \"#utility.yul\":5108:5179   */\n      tag_445\n        /* \"#utility.yul\":5176:5177   */\n      0x00\n        /* \"#utility.yul\":5165:5174   */\n      dup4\n        /* \"#utility.yul\":5161:5178   */\n      add\n        /* \"#utility.yul\":5152:5158   */\n      dup5\n        /* \"#utility.yul\":5108:5179   */\n      tag_347\n      jump\t// in\n    tag_445:\n        /* \"#utility.yul\":4964:5186   */\n      swap3\n      swap2\n      pop\n      pop\n      jump\t// out\n        /* \"#utility.yul\":5192:5310   */\n    tag_348:\n        /* \"#utility.yul\":5279:5303   */\n      tag_447\n        /* \"#utility.yul\":5297:5302   */\n      dup2\n        /* \"#utility.yul\":5279:5303   */\n      tag_337\n      jump\t// in\n    tag_447:\n        /* \"#utility.yul\":5274:5277   */\n      dup3\n        /* \"#utility.yul\":5267:5304   */\n      mstore\n        /* \"#utility.yul\":5192:5310   */\n      pop\n      pop\n      jump\t// out\n        /* \"#utility.yul\":5316:5538   */\n    tag_64:\n        /* \"#utility.yul\":5409:5413   */\n      0x00\n        /* \"#utility.yul\":5447:5449   */\n      0x20\n        /* \"#utility.yul\":5436:5445   */\n      dup3\n        /* \"#utility.yul\":5432:5450   */\n      add\n        /* \"#utility.yul\":5424:5450   */\n      swap1\n      pop\n        /* \"#utility.yul\":5460:5531   */\n      tag_449\n        /* \"#utility.yul\":5528:5529   */\n      0x00\n        /* \"#utility.yul\":5517:5526   */\n      dup4\n        /* \"#utility.yul\":5513:5530   */\n      add\n        /* \"#utility.yul\":5504:5510   */\n      dup5\n        /* \"#utility.yul\":5460:5531   */\n      tag_348\n      jump\t// in\n    tag_449:\n        /* \"#utility.yul\":5316:5538   */\n      swap3\n      swap2\n      pop\n      pop\n      jump\t// out\n        /* \"#utility.yul\":5544:5661   */\n    tag_349:\n        /* \"#utility.yul\":5653:5654   */\n      0x00\n        /* \"#utility.yul\":5650:5651   */\n      dup1\n        /* \"#utility.yul\":5643:5655   */\n      revert\n        /* \"#utility.yul\":5667:5784   */\n    tag_350:\n        /* \"#utility.yul\":5776:5777   */\n      0x00\n        /* \"#utility.yul\":5773:5774   */\n      dup1\n        /* \"#utility.yul\":5766:5778   */\n      revert\n        /* \"#utility.yul\":5790:5892   */\n    tag_351:\n        /* \"#utility.yul\":5831:5837   */\n      0x00\n        /* \"#utility.yul\":5882:5884   */\n      0x1f\n        /* \"#utility.yul\":5878:5885   */\n      not\n        /* \"#utility.yul\":5873:5875   */\n      0x1f\n        /* \"#utility.yul\":5866:5871   */\n      dup4\n        /* \"#utility.yul\":5862:5876   */\n      add\n        /* \"#utility.yul\":5858:5886   */\n      and\n        /* \"#utility.yul\":5848:5886   */\n      swap1\n      pop\n        /* \"#utility.yul\":5790:5892   */\n      swap2\n      swap1\n      pop\n      jump\t// out\n        /* \"#utility.yul\":5898:6078   */\n    tag_170:\n        /* \"#utility.yul\":5946:6023   */\n      0x4e487b7100000000000000000000000000000000000000000000000000000000\n        /* \"#utility.yul\":5943:5944   */\n      0x00\n        /* \"#utility.yul\":5936:6024   */\n      mstore\n        /* \"#utility.yul\":6043:6047   */\n      0x41\n        /* \"#utility.yul\":6040:6041   */\n      0x04\n        /* \"#utility.yul\":6033:6048   */\n      mstore\n        /* \"#utility.yul\":6067:6071   */\n      0x24\n        /* \"#utility.yul\":6064:6065   */\n      0x00\n        /* \"#utility.yul\":6057:6072   */\n      revert\n        /* \"#utility.yul\":6084:6365   */\n    tag_352:\n        /* \"#utility.yul\":6167:6194   */\n      tag_455\n        /* \"#utility.yul\":6189:6193   */\n      dup3\n        /* \"#utility.yul\":6167:6194   */\n      tag_351\n      jump\t// in\n    tag_455:\n        /* \"#utility.yul\":6159:6165   */\n      dup2\n        /* \"#utility.yul\":6155:6195   */\n      add\n        /* \"#utility.yul\":6297:6303   */\n      dup2\n        /* \"#utility.yul\":6285:6295   */\n      dup2\n        /* \"#utility.yul\":6282:6304   */\n      lt\n        /* \"#utility.yul\":6261:6279   */\n      0xffffffffffffffff\n        /* \"#utility.yul\":6249:6259   */\n      dup3\n        /* \"#utility.yul\":6246:6280   */\n      gt\n        /* \"#utility.yul\":6243:6305   */\n      or\n        /* \"#utility.yul\":6240:6328   */\n      iszero\n      tag_456\n      jumpi\n        /* \"#utility.yul\":6308:6326   */\n      tag_457\n      tag_170\n      jump\t// in\n    tag_457:\n        /* \"#utility.yul\":6240:6328   */\n    tag_456:\n        /* \"#utility.yul\":6348:6358   */\n      dup1\n        /* \"#utility.yul\":6344:6346   */\n      0x40\n        /* \"#utility.yul\":6337:6359   */\n      mstore\n        /* \"#utility.yul\":6127:6365   */\n      pop\n        /* \"#utility.yul\":6084:6365   */\n      pop\n      pop\n      jump\t// out\n        /* \"#utility.yul\":6371:6500   */\n    tag_353:\n        /* \"#utility.yul\":6405:6411   */\n      0x00\n        /* \"#utility.yul\":6432:6452   */\n      tag_459\n      tag_330\n      jump\t// in\n    tag_459:\n        /* \"#utility.yul\":6422:6452   */\n      swap1\n      pop\n        /* \"#utility.yul\":6461:6494   */\n      tag_460\n        /* \"#utility.yul\":6489:6493   */\n      dup3\n        /* \"#utility.yul\":6481:6487   */\n      dup3\n        /* \"#utility.yul\":6461:6494   */\n      tag_352\n      jump\t// in\n    tag_460:\n        /* \"#utility.yul\":6371:6500   */\n      swap2\n      swap1\n      pop\n      jump\t// out\n        /* \"#utility.yul\":6506:6814   */\n    tag_354:\n        /* \"#utility.yul\":6568:6572   */\n      0x00\n        /* \"#utility.yul\":6658:6676   */\n      0xffffffffffffffff\n        /* \"#utility.yul\":6650:6656   */\n      dup3\n        /* \"#utility.yul\":6647:6677   */\n      gt\n        /* \"#utility.yul\":6644:6700   */\n      iszero\n      tag_462\n      jumpi\n        /* \"#utility.yul\":6680:6698   */\n      tag_463\n      tag_170\n      jump\t// in\n    tag_463:\n        /* \"#utility.yul\":6644:6700   */\n    tag_462:\n        /* \"#utility.yul\":6718:6747   */\n      tag_464\n        /* \"#utility.yul\":6740:6746   */\n      dup3\n        /* \"#utility.yul\":6718:6747   */\n      tag_351\n      jump\t// in\n    tag_464:\n        /* \"#utility.yul\":6710:6747   */\n      swap1\n      pop\n        /* \"#utility.yul\":6802:6806   */\n      0x20\n        /* \"#utility.yul\":6796:6800   */\n      dup2\n        /* \"#utility.yul\":6792:6807   */\n      add\n        /* \"#utility.yul\":6784:6807   */\n      swap1\n      pop\n        /* \"#utility.yul\":6506:6814   */\n      swap2\n      swap1\n      pop\n      jump\t// out\n        /* \"#utility.yul\":6820:6974   */\n    tag_355:\n        /* \"#utility.yul\":6904:6910   */\n      dup3\n        /* \"#utility.yul\":6899:6902   */\n      dup2\n        /* \"#utility.yul\":6894:6897   */\n      dup4\n        /* \"#utility.yul\":6881:6911   */\n      calldatacopy\n        /* \"#utility.yul\":6966:6967   */\n      0x00\n        /* \"#utility.yul\":6957:6963   */\n      dup4\n        /* \"#utility.yul\":6952:6955   */\n      dup4\n        /* \"#utility.yul\":6948:6964   */\n      add\n        /* \"#utility.yul\":6941:6968   */\n      mstore\n        /* \"#utility.yul\":6820:6974   */\n      pop\n      pop\n      pop\n      jump\t// out\n        /* \"#utility.yul\":6980:7392   */\n    tag_356:\n        /* \"#utility.yul\":7058:7063   */\n      0x00\n        /* \"#utility.yul\":7083:7149   */\n      tag_467\n        /* \"#utility.yul\":7099:7148   */\n      tag_468\n        /* \"#utility.yul\":7141:7147   */\n      dup5\n        /* \"#utility.yul\":7099:7148   */\n      tag_354\n      jump\t// in\n    tag_468:\n        /* \"#utility.yul\":7083:7149   */\n      tag_353\n      jump\t// in\n    tag_467:\n        /* \"#utility.yul\":7074:7149   */\n      swap1\n      pop\n        /* \"#utility.yul\":7172:7178   */\n      dup3\n        /* \"#utility.yul\":7165:7170   */\n      dup2\n        /* \"#utility.yul\":7158:7179   */\n      mstore\n        /* \"#utility.yul\":7210:7214   */\n      0x20\n        /* \"#utility.yul\":7203:7208   */\n      dup2\n        /* \"#utility.yul\":7199:7215   */\n      add\n        /* \"#utility.yul\":7248:7251   */\n      dup5\n        /* \"#utility.yul\":7239:7245   */\n      dup5\n        /* \"#utility.yul\":7234:7237   */\n      dup5\n        /* \"#utility.yul\":7230:7246   */\n      add\n        /* \"#utility.yul\":7227:7252   */\n      gt\n        /* \"#utility.yul\":7224:7336   */\n      iszero\n      tag_469\n      jumpi\n        /* \"#utility.yul\":7255:7334   */\n      tag_470\n      tag_350\n      jump\t// in\n    tag_470:\n        /* \"#utility.yul\":7224:7336   */\n    tag_469:\n        /* \"#utility.yul\":7345:7386   */\n      tag_471\n        /* \"#utility.yul\":7379:7385   */\n      dup5\n        /* \"#utility.yul\":7374:7377   */\n      dup3\n        /* \"#utility.yul\":7369:7372   */\n      dup6\n        /* \"#utility.yul\":7345:7386   */\n      tag_355\n      jump\t// in\n    tag_471:\n        /* \"#utility.yul\":7064:7392   */\n      pop\n        /* \"#utility.yul\":6980:7392   */\n      swap4\n      swap3\n      pop\n      pop\n      pop\n      jump\t// out\n        /* \"#utility.yul\":7412:7752   */\n    tag_357:\n        /* \"#utility.yul\":7468:7473   */\n      0x00\n        /* \"#utility.yul\":7517:7520   */\n      dup3\n        /* \"#utility.yul\":7510:7514   */\n      0x1f\n        /* \"#utility.yul\":7502:7508   */\n      dup4\n        /* \"#utility.yul\":7498:7515   */\n      add\n        /* \"#utility.yul\":7494:7521   */\n      slt\n        /* \"#utility.yul\":7484:7606   */\n      tag_473\n      jumpi\n        /* \"#utility.yul\":7525:7604   */\n      tag_474\n      tag_349\n      jump\t// in\n    tag_474:\n        /* \"#utility.yul\":7484:7606   */\n    tag_473:\n        /* \"#utility.yul\":7642:7648   */\n      dup2\n        /* \"#utility.yul\":7629:7649   */\n      calldataload\n        /* \"#utility.yul\":7667:7746   */\n      tag_475\n        /* \"#utility.yul\":7742:7745   */\n      dup5\n        /* \"#utility.yul\":7734:7740   */\n      dup3\n        /* \"#utility.yul\":7727:7731   */\n      0x20\n        /* \"#utility.yul\":7719:7725   */\n      dup7\n        /* \"#utility.yul\":7715:7732   */\n      add\n        /* \"#utility.yul\":7667:7746   */\n      tag_356\n      jump\t// in\n    tag_475:\n        /* \"#utility.yul\":7658:7746   */\n      swap2\n      pop\n        /* \"#utility.yul\":7474:7752   */\n      pop\n        /* \"#utility.yul\":7412:7752   */\n      swap3\n      swap2\n      pop\n      pop\n      jump\t// out\n        /* \"#utility.yul\":7758:7862   */\n    tag_358:\n        /* \"#utility.yul\":7803:7810   */\n      0x00\n        /* \"#utility.yul\":7832:7856   */\n      tag_477\n        /* \"#utility.yul\":7850:7855   */\n      dup3\n        /* \"#utility.yul\":7832:7856   */\n      tag_333\n      jump\t// in\n    tag_477:\n        /* \"#utility.yul\":7821:7856   */\n      swap1\n      pop\n        /* \"#utility.yul\":7758:7862   */\n      swap2\n      swap1\n      pop\n      jump\t// out\n        /* \"#utility.yul\":7868:8006   */\n    tag_359:\n        /* \"#utility.yul\":7949:7981   */\n      tag_479\n        /* \"#utility.yul\":7975:7980   */\n      dup2\n        /* \"#utility.yul\":7949:7981   */\n      tag_358\n      jump\t// in\n    tag_479:\n        /* \"#utility.yul\":7942:7947   */\n      dup2\n        /* \"#utility.yul\":7939:7982   */\n      eq\n        /* \"#utility.yul\":7929:8000   */\n      tag_480\n      jumpi\n        /* \"#utility.yul\":7996:7997   */\n      0x00\n        /* \"#utility.yul\":7993:7994   */\n      dup1\n        /* \"#utility.yul\":7986:7998   */\n      revert\n        /* \"#utility.yul\":7929:8000   */\n    tag_480:\n        /* \"#utility.yul\":7868:8006   */\n      pop\n      jump\t// out\n        /* \"#utility.yul\":8012:8167   */\n    tag_360:\n        /* \"#utility.yul\":8066:8071   */\n      0x00\n        /* \"#utility.yul\":8104:8110   */\n      dup2\n        /* \"#utility.yul\":8091:8111   */\n      calldataload\n        /* \"#utility.yul\":8082:8111   */\n      swap1\n      pop\n        /* \"#utility.yul\":8120:8161   */\n      tag_482\n        /* \"#utility.yul\":8155:8160   */\n      dup2\n        /* \"#utility.yul\":8120:8161   */\n      tag_359\n      jump\t// in\n    tag_482:\n        /* \"#utility.yul\":8012:8167   */\n      swap3\n      swap2\n      pop\n      pop\n      jump\t// out\n        /* \"#utility.yul\":8173:9314   */\n    tag_122:\n        /* \"#utility.yul\":8287:8293   */\n      0x00\n        /* \"#utility.yul\":8295:8301   */\n      dup1\n        /* \"#utility.yul\":8303:8309   */\n      0x00\n        /* \"#utility.yul\":8311:8317   */\n      dup1\n        /* \"#utility.yul\":8360:8363   */\n      0x80\n        /* \"#utility.yul\":8348:8357   */\n      dup6\n        /* \"#utility.yul\":8339:8346   */\n      dup8\n        /* \"#utility.yul\":8335:8358   */\n      sub\n        /* \"#utility.yul\":8331:8364   */\n      slt\n        /* \"#utility.yul\":8328:8448   */\n      iszero\n      tag_484\n      jumpi\n        /* \"#utility.yul\":8367:8446   */\n      tag_485\n      tag_331\n      jump\t// in\n    tag_485:\n        /* \"#utility.yul\":8328:8448   */\n    tag_484:\n        /* \"#utility.yul\":8487:8488   */\n      0x00\n        /* \"#utility.yul\":8512:8565   */\n      tag_486\n        /* \"#utility.yul\":8557:8564   */\n      dup8\n        /* \"#utility.yul\":8548:8554   */\n      dup3\n        /* \"#utility.yul\":8537:8546   */\n      dup9\n        /* \"#utility.yul\":8533:8555   */\n      add\n        /* \"#utility.yul\":8512:8565   */\n      tag_336\n      jump\t// in\n    tag_486:\n        /* \"#utility.yul\":8502:8565   */\n      swap5\n      pop\n        /* \"#utility.yul\":8458:8575   */\n      pop\n        /* \"#utility.yul\":8642:8644   */\n      0x20\n        /* \"#utility.yul\":8631:8640   */\n      dup6\n        /* \"#utility.yul\":8627:8645   */\n      add\n        /* \"#utility.yul\":8614:8646   */\n      calldataload\n        /* \"#utility.yul\":8673:8691   */\n      0xffffffffffffffff\n        /* \"#utility.yul\":8665:8671   */\n      dup2\n        /* \"#utility.yul\":8662:8692   */\n      gt\n        /* \"#utility.yul\":8659:8776   */\n      iszero\n      tag_487\n      jumpi\n        /* \"#utility.yul\":8695:8774   */\n      tag_488\n      tag_332\n      jump\t// in\n    tag_488:\n        /* \"#utility.yul\":8659:8776   */\n    tag_487:\n        /* \"#utility.yul\":8800:8863   */\n      tag_489\n        /* \"#utility.yul\":8855:8862   */\n      dup8\n        /* \"#utility.yul\":8846:8852   */\n      dup3\n        /* \"#utility.yul\":8835:8844   */\n      dup9\n        /* \"#utility.yul\":8831:8853   */\n      add\n        /* \"#utility.yul\":8800:8863   */\n      tag_357\n      jump\t// in\n    tag_489:\n        /* \"#utility.yul\":8790:8863   */\n      swap4\n      pop\n        /* \"#utility.yul\":8585:8873   */\n      pop\n        /* \"#utility.yul\":8940:8942   */\n      0x40\n        /* \"#utility.yul\":8929:8938   */\n      dup6\n        /* \"#utility.yul\":8925:8943   */\n      add\n        /* \"#utility.yul\":8912:8944   */\n      calldataload\n        /* \"#utility.yul\":8971:8989   */\n      0xffffffffffffffff\n        /* \"#utility.yul\":8963:8969   */\n      dup2\n        /* \"#utility.yul\":8960:8990   */\n      gt\n        /* \"#utility.yul\":8957:9074   */\n      iszero\n      tag_490\n      jumpi\n        /* \"#utility.yul\":8993:9072   */\n      tag_491\n      tag_332\n      jump\t// in\n    tag_491:\n        /* \"#utility.yul\":8957:9074   */\n    tag_490:\n        /* \"#utility.yul\":9098:9161   */\n      tag_492\n        /* \"#utility.yul\":9153:9160   */\n      dup8\n        /* \"#utility.yul\":9144:9150   */\n      dup3\n        /* \"#utility.yul\":9133:9142   */\n      dup9\n        /* \"#utility.yul\":9129:9151   */\n      add\n        /* \"#utility.yul\":9098:9161   */\n      tag_357\n      jump\t// in\n    tag_492:\n        /* \"#utility.yul\":9088:9161   */\n      swap3\n      pop\n        /* \"#utility.yul\":8883:9171   */\n      pop\n        /* \"#utility.yul\":9210:9212   */\n      0x60\n        /* \"#utility.yul\":9236:9297   */\n      tag_493\n        /* \"#utility.yul\":9289:9296   */\n      dup8\n        /* \"#utility.yul\":9280:9286   */\n      dup3\n        /* \"#utility.yul\":9269:9278   */\n      dup9\n        /* \"#utility.yul\":9265:9287   */\n      add\n        /* \"#utility.yul\":9236:9297   */\n      tag_360\n      jump\t// in\n    tag_493:\n        /* \"#utility.yul\":9226:9297   */\n      swap2\n      pop\n        /* \"#utility.yul\":9181:9307   */\n      pop\n        /* \"#utility.yul\":8173:9314   */\n      swap3\n      swap6\n      swap2\n      swap5\n      pop\n      swap3\n      pop\n      jump\t// out\n        /* \"#utility.yul\":9320:9500   */\n    tag_127:\n        /* \"#utility.yul\":9368:9445   */\n      0x4e487b7100000000000000000000000000000000000000000000000000000000\n        /* \"#utility.yul\":9365:9366   */\n      0x00\n        /* \"#utility.yul\":9358:9446   */\n      mstore\n        /* \"#utility.yul\":9465:9469   */\n      0x21\n        /* \"#utility.yul\":9462:9463   */\n      0x04\n        /* \"#utility.yul\":9455:9470   */\n      mstore\n        /* \"#utility.yul\":9489:9493   */\n      0x24\n        /* \"#utility.yul\":9486:9487   */\n      0x00\n        /* \"#utility.yul\":9479:9494   */\n      revert\n        /* \"#utility.yul\":9506:9615   */\n    tag_361:\n        /* \"#utility.yul\":9589:9590   */\n      0x03\n        /* \"#utility.yul\":9582:9587   */\n      dup2\n        /* \"#utility.yul\":9579:9591   */\n      lt\n        /* \"#utility.yul\":9569:9609   */\n      tag_496\n      jumpi\n        /* \"#utility.yul\":9605:9606   */\n      0x00\n        /* \"#utility.yul\":9602:9603   */\n      dup1\n        /* \"#utility.yul\":9595:9607   */\n      revert\n        /* \"#utility.yul\":9569:9609   */\n    tag_496:\n        /* \"#utility.yul\":9506:9615   */\n      pop\n      jump\t// out\n        /* \"#utility.yul\":9621:9784   */\n    tag_362:\n        /* \"#utility.yul\":9688:9693   */\n      0x00\n        /* \"#utility.yul\":9719:9725   */\n      dup2\n        /* \"#utility.yul\":9713:9726   */\n      mload\n        /* \"#utility.yul\":9704:9726   */\n      swap1\n      pop\n        /* \"#utility.yul\":9735:9778   */\n      tag_498\n        /* \"#utility.yul\":9772:9777   */\n      dup2\n        /* \"#utility.yul\":9735:9778   */\n      tag_361\n      jump\t// in\n    tag_498:\n        /* \"#utility.yul\":9621:9784   */\n      swap3\n      swap2\n      pop\n      pop\n      jump\t// out\n        /* \"#utility.yul\":9790:10161   */\n    tag_131:\n        /* \"#utility.yul\":9870:9876   */\n      0x00\n        /* \"#utility.yul\":9919:9921   */\n      0x20\n        /* \"#utility.yul\":9907:9916   */\n      dup3\n        /* \"#utility.yul\":9898:9905   */\n      dup5\n        /* \"#utility.yul\":9894:9917   */\n      sub\n        /* \"#utility.yul\":9890:9922   */\n      slt\n        /* \"#utility.yul\":9887:10006   */\n      iszero\n      tag_500\n      jumpi\n        /* \"#utility.yul\":9925:10004   */\n      tag_501\n      tag_331\n      jump\t// in\n    tag_501:\n        /* \"#utility.yul\":9887:10006   */\n    tag_500:\n        /* \"#utility.yul\":10045:10046   */\n      0x00\n        /* \"#utility.yul\":10070:10144   */\n      tag_502\n        /* \"#utility.yul\":10136:10143   */\n      dup5\n        /* \"#utility.yul\":10127:10133   */\n      dup3\n        /* \"#utility.yul\":10116:10125   */\n      dup6\n        /* \"#utility.yul\":10112:10134   */\n      add\n        /* \"#utility.yul\":10070:10144   */\n      tag_362\n      jump\t// in\n    tag_502:\n        /* \"#utility.yul\":10060:10144   */\n      swap2\n      pop\n        /* \"#utility.yul\":10016:10154   */\n      pop\n        /* \"#utility.yul\":9790:10161   */\n      swap3\n      swap2\n      pop\n      pop\n      jump\t// out\n        /* \"#utility.yul\":10167:10336   */\n    tag_363:\n        /* \"#utility.yul\":10251:10262   */\n      0x00\n        /* \"#utility.yul\":10285:10291   */\n      dup3\n        /* \"#utility.yul\":10280:10283   */\n      dup3\n        /* \"#utility.yul\":10273:10292   */\n      mstore\n        /* \"#utility.yul\":10325:10329   */\n      0x20\n        /* \"#utility.yul\":10320:10323   */\n      dup3\n        /* \"#utility.yul\":10316:10330   */\n      add\n        /* \"#utility.yul\":10301:10330   */\n      swap1\n      pop\n        /* \"#utility.yul\":10167:10336   */\n      swap3\n      swap2\n      pop\n      pop\n      jump\t// out\n        /* \"#utility.yul\":10342:10520   */\n    tag_364:\n        /* \"#utility.yul\":10482:10512   */\n      0x436f6e747261637420737461747573206d757374206265206f70656e00000000\n        /* \"#utility.yul\":10478:10479   */\n      0x00\n        /* \"#utility.yul\":10470:10476   */\n      dup3\n        /* \"#utility.yul\":10466:10480   */\n      add\n        /* \"#utility.yul\":10459:10513   */\n      mstore\n        /* \"#utility.yul\":10342:10520   */\n      pop\n      jump\t// out\n        /* \"#utility.yul\":10526:10892   */\n    tag_365:\n        /* \"#utility.yul\":10668:10671   */\n      0x00\n        /* \"#utility.yul\":10689:10756   */\n      tag_506\n        /* \"#utility.yul\":10753:10755   */\n      0x1c\n        /* \"#utility.yul\":10748:10751   */\n      dup4\n        /* \"#utility.yul\":10689:10756   */\n      tag_363\n      jump\t// in\n    tag_506:\n        /* \"#utility.yul\":10682:10756   */\n      swap2\n      pop\n        /* \"#utility.yul\":10765:10858   */\n      tag_507\n        /* \"#utility.yul\":10854:10857   */\n      dup3\n        /* \"#utility.yul\":10765:10858   */\n      tag_364\n      jump\t// in\n    tag_507:\n        /* \"#utility.yul\":10883:10885   */\n      0x20\n        /* \"#utility.yul\":10878:10881   */\n      dup3\n        /* \"#utility.yul\":10874:10886   */\n      add\n        /* \"#utility.yul\":10867:10886   */\n      swap1\n      pop\n        /* \"#utility.yul\":10526:10892   */\n      swap2\n      swap1\n      pop\n      jump\t// out\n        /* \"#utility.yul\":10898:11317   */\n    tag_136:\n        /* \"#utility.yul\":11064:11068   */\n      0x00\n        /* \"#utility.yul\":11102:11104   */\n      0x20\n        /* \"#utility.yul\":11091:11100   */\n      dup3\n        /* \"#utility.yul\":11087:11105   */\n      add\n        /* \"#utility.yul\":11079:11105   */\n      swap1\n      pop\n        /* \"#utility.yul\":11151:11160   */\n      dup2\n        /* \"#utility.yul\":11145:11149   */\n      dup2\n        /* \"#utility.yul\":11141:11161   */\n      sub\n        /* \"#utility.yul\":11137:11138   */\n      0x00\n        /* \"#utility.yul\":11126:11135   */\n      dup4\n        /* \"#utility.yul\":11122:11139   */\n      add\n        /* \"#utility.yul\":11115:11162   */\n      mstore\n        /* \"#utility.yul\":11179:11310   */\n      tag_509\n        /* \"#utility.yul\":11305:11309   */\n      dup2\n        /* \"#utility.yul\":11179:11310   */\n      tag_365\n      jump\t// in\n    tag_509:\n        /* \"#utility.yul\":11171:11310   */\n      swap1\n      pop\n        /* \"#utility.yul\":10898:11317   */\n      swap2\n      swap1\n      pop\n      jump\t// out\n        /* \"#utility.yul\":11323:11466   */\n    tag_366:\n        /* \"#utility.yul\":11380:11385   */\n      0x00\n        /* \"#utility.yul\":11411:11417   */\n      dup2\n        /* \"#utility.yul\":11405:11418   */\n      mload\n        /* \"#utility.yul\":11396:11418   */\n      swap1\n      pop\n        /* \"#utility.yul\":11427:11460   */\n      tag_511\n        /* \"#utility.yul\":11454:11459   */\n      dup2\n        /* \"#utility.yul\":11427:11460   */\n      tag_335\n      jump\t// in\n    tag_511:\n        /* \"#utility.yul\":11323:11466   */\n      swap3\n      swap2\n      pop\n      pop\n      jump\t// out\n        /* \"#utility.yul\":11472:11823   */\n    tag_140:\n        /* \"#utility.yul\":11542:11548   */\n      0x00\n        /* \"#utility.yul\":11591:11593   */\n      0x20\n        /* \"#utility.yul\":11579:11588   */\n      dup3\n        /* \"#utility.yul\":11570:11577   */\n      dup5\n        /* \"#utility.yul\":11566:11589   */\n      sub\n        /* \"#utility.yul\":11562:11594   */\n      slt\n        /* \"#utility.yul\":11559:11678   */\n      iszero\n      tag_513\n      jumpi\n        /* \"#utility.yul\":11597:11676   */\n      tag_514\n      tag_331\n      jump\t// in\n    tag_514:\n        /* \"#utility.yul\":11559:11678   */\n    tag_513:\n        /* \"#utility.yul\":11717:11718   */\n      0x00\n        /* \"#utility.yul\":11742:11806   */\n      tag_515\n        /* \"#utility.yul\":11798:11805   */\n      dup5\n        /* \"#utility.yul\":11789:11795   */\n      dup3\n        /* \"#utility.yul\":11778:11787   */\n      dup6\n        /* \"#utility.yul\":11774:11796   */\n      add\n        /* \"#utility.yul\":11742:11806   */\n      tag_366\n      jump\t// in\n    tag_515:\n        /* \"#utility.yul\":11732:11806   */\n      swap2\n      pop\n        /* \"#utility.yul\":11688:11816   */\n      pop\n        /* \"#utility.yul\":11472:11823   */\n      swap3\n      swap2\n      pop\n      pop\n      jump\t// out\n        /* \"#utility.yul\":11829:12061   */\n    tag_367:\n        /* \"#utility.yul\":11969:12003   */\n      0x436f6e74726163742072656665726565206d75737420657175616c2072657175\n        /* \"#utility.yul\":11965:11966   */\n      0x00\n        /* \"#utility.yul\":11957:11963   */\n      dup3\n        /* \"#utility.yul\":11953:11967   */\n      add\n        /* \"#utility.yul\":11946:12004   */\n      mstore\n        /* \"#utility.yul\":12038:12053   */\n      0x6573746564207265666572656500000000000000000000000000000000000000\n        /* \"#utility.yul\":12033:12035   */\n      0x20\n        /* \"#utility.yul\":12025:12031   */\n      dup3\n        /* \"#utility.yul\":12021:12036   */\n      add\n        /* \"#utility.yul\":12014:12054   */\n      mstore\n        /* \"#utility.yul\":11829:12061   */\n      pop\n      jump\t// out\n        /* \"#utility.yul\":12067:12433   */\n    tag_368:\n        /* \"#utility.yul\":12209:12212   */\n      0x00\n        /* \"#utility.yul\":12230:12297   */\n      tag_518\n        /* \"#utility.yul\":12294:12296   */\n      0x2d\n        /* \"#utility.yul\":12289:12292   */\n      dup4\n        /* \"#utility.yul\":12230:12297   */\n      tag_363\n      jump\t// in\n    tag_518:\n        /* \"#utility.yul\":12223:12297   */\n      swap2\n      pop\n        /* \"#utility.yul\":12306:12399   */\n      tag_519\n        /* \"#utility.yul\":12395:12398   */\n      dup3\n        /* \"#utility.yul\":12306:12399   */\n      tag_367\n      jump\t// in\n    tag_519:\n        /* \"#utility.yul\":12424:12426   */\n      0x40\n        /* \"#utility.yul\":12419:12422   */\n      dup3\n        /* \"#utility.yul\":12415:12427   */\n      add\n        /* \"#utility.yul\":12408:12427   */\n      swap1\n      pop\n        /* \"#utility.yul\":12067:12433   */\n      swap2\n      swap1\n      pop\n      jump\t// out\n        /* \"#utility.yul\":12439:12858   */\n    tag_143:\n        /* \"#utility.yul\":12605:12609   */\n      0x00\n        /* \"#utility.yul\":12643:12645   */\n      0x20\n        /* \"#utility.yul\":12632:12641   */\n      dup3\n        /* \"#utility.yul\":12628:12646   */\n      add\n        /* \"#utility.yul\":12620:12646   */\n      swap1\n      pop\n        /* \"#utility.yul\":12692:12701   */\n      dup2\n        /* \"#utility.yul\":12686:12690   */\n      dup2\n        /* \"#utility.yul\":12682:12702   */\n      sub\n        /* \"#utility.yul\":12678:12679   */\n      0x00\n        /* \"#utility.yul\":12667:12676   */\n      dup4\n        /* \"#utility.yul\":12663:12680   */\n      add\n        /* \"#utility.yul\":12656:12703   */\n      mstore\n        /* \"#utility.yul\":12720:12851   */\n      tag_521\n        /* \"#utility.yul\":12846:12850   */\n      dup2\n        /* \"#utility.yul\":12720:12851   */\n      tag_368\n      jump\t// in\n    tag_521:\n        /* \"#utility.yul\":12712:12851   */\n      swap1\n      pop\n        /* \"#utility.yul\":12439:12858   */\n      swap2\n      swap1\n      pop\n      jump\t// out\n        /* \"#utility.yul\":12864:13098   */\n    tag_369:\n        /* \"#utility.yul\":13004:13038   */\n      0x4f6e6c792063726561746f72206f6620636f6e74726163742063616e20726571\n        /* \"#utility.yul\":13000:13001   */\n      0x00\n        /* \"#utility.yul\":12992:12998   */\n      dup3\n        /* \"#utility.yul\":12988:13002   */\n      add\n        /* \"#utility.yul\":12981:13039   */\n      mstore\n        /* \"#utility.yul\":13073:13090   */\n      0x7565737420636f6d706c6574696f6e0000000000000000000000000000000000\n        /* \"#utility.yul\":13068:13070   */\n      0x20\n        /* \"#utility.yul\":13060:13066   */\n      dup3\n        /* \"#utility.yul\":13056:13071   */\n      add\n        /* \"#utility.yul\":13049:13091   */\n      mstore\n        /* \"#utility.yul\":12864:13098   */\n      pop\n      jump\t// out\n        /* \"#utility.yul\":13104:13470   */\n    tag_370:\n        /* \"#utility.yul\":13246:13249   */\n      0x00\n        /* \"#utility.yul\":13267:13334   */\n      tag_524\n        /* \"#utility.yul\":13331:13333   */\n      0x2f\n        /* \"#utility.yul\":13326:13329   */\n      dup4\n        /* \"#utility.yul\":13267:13334   */\n      tag_363\n      jump\t// in\n    tag_524:\n        /* \"#utility.yul\":13260:13334   */\n      swap2\n      pop\n        /* \"#utility.yul\":13343:13436   */\n      tag_525\n        /* \"#utility.yul\":13432:13435   */\n      dup3\n        /* \"#utility.yul\":13343:13436   */\n      tag_369\n      jump\t// in\n    tag_525:\n        /* \"#utility.yul\":13461:13463   */\n      0x40\n        /* \"#utility.yul\":13456:13459   */\n      dup3\n        /* \"#utility.yul\":13452:13464   */\n      add\n        /* \"#utility.yul\":13445:13464   */\n      swap1\n      pop\n        /* \"#utility.yul\":13104:13470   */\n      swap2\n      swap1\n      pop\n      jump\t// out\n        /* \"#utility.yul\":13476:13895   */\n    tag_149:\n        /* \"#utility.yul\":13642:13646   */\n      0x00\n        /* \"#utility.yul\":13680:13682   */\n      0x20\n        /* \"#utility.yul\":13669:13678   */\n      dup3\n        /* \"#utility.yul\":13665:13683   */\n      add\n        /* \"#utility.yul\":13657:13683   */\n      swap1\n      pop\n        /* \"#utility.yul\":13729:13738   */\n      dup2\n        /* \"#utility.yul\":13723:13727   */\n      dup2\n        /* \"#utility.yul\":13719:13739   */\n      sub\n        /* \"#utility.yul\":13715:13716   */\n      0x00\n        /* \"#utility.yul\":13704:13713   */\n      dup4\n        /* \"#utility.yul\":13700:13717   */\n      add\n        /* \"#utility.yul\":13693:13740   */\n      mstore\n        /* \"#utility.yul\":13757:13888   */\n      tag_527\n        /* \"#utility.yul\":13883:13887   */\n      dup2\n        /* \"#utility.yul\":13757:13888   */\n      tag_370\n      jump\t// in\n    tag_527:\n        /* \"#utility.yul\":13749:13888   */\n      swap1\n      pop\n        /* \"#utility.yul\":13476:13895   */\n      swap2\n      swap1\n      pop\n      jump\t// out\n        /* \"#utility.yul\":13901:14233   */\n    tag_156:\n        /* \"#utility.yul\":14022:14026   */\n      0x00\n        /* \"#utility.yul\":14060:14062   */\n      0x40\n        /* \"#utility.yul\":14049:14058   */\n      dup3\n        /* \"#utility.yul\":14045:14063   */\n      add\n        /* \"#utility.yul\":14037:14063   */\n      swap1\n      pop\n        /* \"#utility.yul\":14073:14144   */\n      tag_529\n        /* \"#utility.yul\":14141:14142   */\n      0x00\n        /* \"#utility.yul\":14130:14139   */\n      dup4\n        /* \"#utility.yul\":14126:14143   */\n      add\n        /* \"#utility.yul\":14117:14123   */\n      dup6\n        /* \"#utility.yul\":14073:14144   */\n      tag_347\n      jump\t// in\n    tag_529:\n        /* \"#utility.yul\":14154:14226   */\n      tag_530\n        /* \"#utility.yul\":14222:14224   */\n      0x20\n        /* \"#utility.yul\":14211:14220   */\n      dup4\n        /* \"#utility.yul\":14207:14225   */\n      add\n        /* \"#utility.yul\":14198:14204   */\n      dup5\n        /* \"#utility.yul\":14154:14226   */\n      tag_347\n      jump\t// in\n    tag_530:\n        /* \"#utility.yul\":13901:14233   */\n      swap4\n      swap3\n      pop\n      pop\n      pop\n      jump\t// out\n        /* \"#utility.yul\":14239:14419   */\n    tag_371:\n        /* \"#utility.yul\":14379:14411   */\n      0x537461727420696e6465782063616e6e6f74206265206e656761746976650000\n        /* \"#utility.yul\":14375:14376   */\n      0x00\n        /* \"#utility.yul\":14367:14373   */\n      dup3\n        /* \"#utility.yul\":14363:14377   */\n      add\n        /* \"#utility.yul\":14356:14412   */\n      mstore\n        /* \"#utility.yul\":14239:14419   */\n      pop\n      jump\t// out\n        /* \"#utility.yul\":14425:14791   */\n    tag_372:\n        /* \"#utility.yul\":14567:14570   */\n      0x00\n        /* \"#utility.yul\":14588:14655   */\n      tag_533\n        /* \"#utility.yul\":14652:14654   */\n      0x1e\n        /* \"#utility.yul\":14647:14650   */\n      dup4\n        /* \"#utility.yul\":14588:14655   */\n      tag_363\n      jump\t// in\n    tag_533:\n        /* \"#utility.yul\":14581:14655   */\n      swap2\n      pop\n        /* \"#utility.yul\":14664:14757   */\n      tag_534\n        /* \"#utility.yul\":14753:14756   */\n      dup3\n        /* \"#utility.yul\":14664:14757   */\n      tag_371\n      jump\t// in\n    tag_534:\n        /* \"#utility.yul\":14782:14784   */\n      0x20\n        /* \"#utility.yul\":14777:14780   */\n      dup3\n        /* \"#utility.yul\":14773:14785   */\n      add\n        /* \"#utility.yul\":14766:14785   */\n      swap1\n      pop\n        /* \"#utility.yul\":14425:14791   */\n      swap2\n      swap1\n      pop\n      jump\t// out\n        /* \"#utility.yul\":14797:15216   */\n    tag_162:\n        /* \"#utility.yul\":14963:14967   */\n      0x00\n        /* \"#utility.yul\":15001:15003   */\n      0x20\n        /* \"#utility.yul\":14990:14999   */\n      dup3\n        /* \"#utility.yul\":14986:15004   */\n      add\n        /* \"#utility.yul\":14978:15004   */\n      swap1\n      pop\n        /* \"#utility.yul\":15050:15059   */\n      dup2\n        /* \"#utility.yul\":15044:15048   */\n      dup2\n        /* \"#utility.yul\":15040:15060   */\n      sub\n        /* \"#utility.yul\":15036:15037   */\n      0x00\n        /* \"#utility.yul\":15025:15034   */\n      dup4\n        /* \"#utility.yul\":15021:15038   */\n      add\n        /* \"#utility.yul\":15014:15061   */\n      mstore\n        /* \"#utility.yul\":15078:15209   */\n      tag_536\n        /* \"#utility.yul\":15204:15208   */\n      dup2\n        /* \"#utility.yul\":15078:15209   */\n      tag_372\n      jump\t// in\n    tag_536:\n        /* \"#utility.yul\":15070:15209   */\n      swap1\n      pop\n        /* \"#utility.yul\":14797:15216   */\n      swap2\n      swap1\n      pop\n      jump\t// out\n        /* \"#utility.yul\":15222:15448   */\n    tag_373:\n        /* \"#utility.yul\":15362:15396   */\n      0x456e6420696e6465782065786365656473207573657220616464726573736573\n        /* \"#utility.yul\":15358:15359   */\n      0x00\n        /* \"#utility.yul\":15350:15356   */\n      dup3\n        /* \"#utility.yul\":15346:15360   */\n      add\n        /* \"#utility.yul\":15339:15397   */\n      mstore\n        /* \"#utility.yul\":15431:15440   */\n      0x206c656e67746800000000000000000000000000000000000000000000000000\n        /* \"#utility.yul\":15426:15428   */\n      0x20\n        /* \"#utility.yul\":15418:15424   */\n      dup3\n        /* \"#utility.yul\":15414:15429   */\n      add\n        /* \"#utility.yul\":15407:15441   */\n      mstore\n        /* \"#utility.yul\":15222:15448   */\n      pop\n      jump\t// out\n        /* \"#utility.yul\":15454:15820   */\n    tag_374:\n        /* \"#utility.yul\":15596:15599   */\n      0x00\n        /* \"#utility.yul\":15617:15684   */\n      tag_539\n        /* \"#utility.yul\":15681:15683   */\n      0x27\n        /* \"#utility.yul\":15676:15679   */\n      dup4\n        /* \"#utility.yul\":15617:15684   */\n      tag_363\n      jump\t// in\n    tag_539:\n        /* \"#utility.yul\":15610:15684   */\n      swap2\n      pop\n        /* \"#utility.yul\":15693:15786   */\n      tag_540\n        /* \"#utility.yul\":15782:15785   */\n      dup3\n        /* \"#utility.yul\":15693:15786   */\n      tag_373\n      jump\t// in\n    tag_540:\n        /* \"#utility.yul\":15811:15813   */\n      0x40\n        /* \"#utility.yul\":15806:15809   */\n      dup3\n        /* \"#utility.yul\":15802:15814   */\n      add\n        /* \"#utility.yul\":15795:15814   */\n      swap1\n      pop\n        /* \"#utility.yul\":15454:15820   */\n      swap2\n      swap1\n      pop\n      jump\t// out\n        /* \"#utility.yul\":15826:16245   */\n    tag_165:\n        /* \"#utility.yul\":15992:15996   */\n      0x00\n        /* \"#utility.yul\":16030:16032   */\n      0x20\n        /* \"#utility.yul\":16019:16028   */\n      dup3\n        /* \"#utility.yul\":16015:16033   */\n      add\n        /* \"#utility.yul\":16007:16033   */\n      swap1\n      pop\n        /* \"#utility.yul\":16079:16088   */\n      dup2\n        /* \"#utility.yul\":16073:16077   */\n      dup2\n        /* \"#utility.yul\":16069:16089   */\n      sub\n        /* \"#utility.yul\":16065:16066   */\n      0x00\n        /* \"#utility.yul\":16054:16063   */\n      dup4\n        /* \"#utility.yul\":16050:16067   */\n      add\n        /* \"#utility.yul\":16043:16090   */\n      mstore\n        /* \"#utility.yul\":16107:16238   */\n      tag_542\n        /* \"#utility.yul\":16233:16237   */\n      dup2\n        /* \"#utility.yul\":16107:16238   */\n      tag_374\n      jump\t// in\n    tag_542:\n        /* \"#utility.yul\":16099:16238   */\n      swap1\n      pop\n        /* \"#utility.yul\":15826:16245   */\n      swap2\n      swap1\n      pop\n      jump\t// out\n        /* \"#utility.yul\":16251:16431   */\n    tag_375:\n        /* \"#utility.yul\":16299:16376   */\n      0x4e487b7100000000000000000000000000000000000000000000000000000000\n        /* \"#utility.yul\":16296:16297   */\n      0x00\n        /* \"#utility.yul\":16289:16377   */\n      mstore\n        /* \"#utility.yul\":16396:16400   */\n      0x11\n        /* \"#utility.yul\":16393:16394   */\n      0x04\n        /* \"#utility.yul\":16386:16401   */\n      mstore\n        /* \"#utility.yul\":16420:16424   */\n      0x24\n        /* \"#utility.yul\":16417:16418   */\n      0x00\n        /* \"#utility.yul\":16410:16425   */\n      revert\n        /* \"#utility.yul\":16437:16628   */\n    tag_167:\n        /* \"#utility.yul\":16477:16481   */\n      0x00\n        /* \"#utility.yul\":16497:16517   */\n      tag_545\n        /* \"#utility.yul\":16515:16516   */\n      dup3\n        /* \"#utility.yul\":16497:16517   */\n      tag_337\n      jump\t// in\n    tag_545:\n        /* \"#utility.yul\":16492:16517   */\n      swap2\n      pop\n        /* \"#utility.yul\":16531:16551   */\n      tag_546\n        /* \"#utility.yul\":16549:16550   */\n      dup4\n        /* \"#utility.yul\":16531:16551   */\n      tag_337\n      jump\t// in\n    tag_546:\n        /* \"#utility.yul\":16526:16551   */\n      swap3\n      pop\n        /* \"#utility.yul\":16570:16571   */\n      dup3\n        /* \"#utility.yul\":16567:16568   */\n      dup3\n        /* \"#utility.yul\":16564:16572   */\n      lt\n        /* \"#utility.yul\":16561:16595   */\n      iszero\n      tag_547\n      jumpi\n        /* \"#utility.yul\":16575:16593   */\n      tag_548\n      tag_375\n      jump\t// in\n    tag_548:\n        /* \"#utility.yul\":16561:16595   */\n    tag_547:\n        /* \"#utility.yul\":16620:16621   */\n      dup3\n        /* \"#utility.yul\":16617:16618   */\n      dup3\n        /* \"#utility.yul\":16613:16622   */\n      sub\n        /* \"#utility.yul\":16605:16622   */\n      swap1\n      pop\n        /* \"#utility.yul\":16437:16628   */\n      swap3\n      swap2\n      pop\n      pop\n      jump\t// out\n        /* \"#utility.yul\":16634:16814   */\n    tag_177:\n        /* \"#utility.yul\":16682:16759   */\n      0x4e487b7100000000000000000000000000000000000000000000000000000000\n        /* \"#utility.yul\":16679:16680   */\n      0x00\n        /* \"#utility.yul\":16672:16760   */\n      mstore\n        /* \"#utility.yul\":16779:16783   */\n      0x32\n        /* \"#utility.yul\":16776:16777   */\n      0x04\n        /* \"#utility.yul\":16769:16784   */\n      mstore\n        /* \"#utility.yul\":16803:16807   */\n      0x24\n        /* \"#utility.yul\":16800:16801   */\n      0x00\n        /* \"#utility.yul\":16793:16808   */\n      revert\n        /* \"#utility.yul\":16820:17053   */\n    tag_182:\n        /* \"#utility.yul\":16859:16862   */\n      0x00\n        /* \"#utility.yul\":16882:16906   */\n      tag_551\n        /* \"#utility.yul\":16900:16905   */\n      dup3\n        /* \"#utility.yul\":16882:16906   */\n      tag_337\n      jump\t// in\n    tag_551:\n        /* \"#utility.yul\":16873:16906   */\n      swap2\n      pop\n        /* \"#utility.yul\":16928:16994   */\n      0xffffffffffffffffffffffffffffffffffffffffffffffffffffffffffffffff\n        /* \"#utility.yul\":16921:16926   */\n      dup3\n        /* \"#utility.yul\":16918:16995   */\n      eq\n        /* \"#utility.yul\":16915:17018   */\n      iszero\n      tag_552\n      jumpi\n        /* \"#utility.yul\":16998:17016   */\n      tag_553\n      tag_375\n      jump\t// in\n    tag_553:\n        /* \"#utility.yul\":16915:17018   */\n    tag_552:\n        /* \"#utility.yul\":17045:17046   */\n      0x01\n        /* \"#utility.yul\":17038:17043   */\n      dup3\n        /* \"#utility.yul\":17034:17047   */\n      add\n        /* \"#utility.yul\":17027:17047   */\n      swap1\n      pop\n        /* \"#utility.yul\":16820:17053   */\n      swap2\n      swap1\n      pop\n      jump\t// out\n        /* \"#utility.yul\":17059:17185   */\n    tag_376:\n        /* \"#utility.yul\":17126:17133   */\n      0x00\n        /* \"#utility.yul\":17155:17179   */\n      tag_555\n        /* \"#utility.yul\":17173:17178   */\n      dup3\n        /* \"#utility.yul\":17155:17179   */\n      tag_334\n      jump\t// in\n    tag_555:\n        /* \"#utility.yul\":17144:17179   */\n      swap1\n      pop\n        /* \"#utility.yul\":17059:17185   */\n      swap2\n      swap1\n      pop\n      jump\t// out\n        /* \"#utility.yul\":17191:17373   */\n    tag_377:\n        /* \"#utility.yul\":17294:17348   */\n      tag_557\n        /* \"#utility.yul\":17342:17347   */\n      dup2\n        /* \"#utility.yul\":17294:17348   */\n      tag_376\n      jump\t// in\n    tag_557:\n        /* \"#utility.yul\":17287:17292   */\n      dup2\n        /* \"#utility.yul\":17284:17349   */\n      eq\n        /* \"#utility.yul\":17274:17367   */\n      tag_558\n      jumpi\n        /* \"#utility.yul\":17363:17364   */\n      0x00\n        /* \"#utility.yul\":17360:17361   */\n      dup1\n        /* \"#utility.yul\":17353:17365   */\n      revert\n        /* \"#utility.yul\":17274:17367   */\n    tag_558:\n        /* \"#utility.yul\":17191:17373   */\n      pop\n      jump\t// out\n        /* \"#utility.yul\":17379:17582   */\n    tag_378:\n        /* \"#utility.yul\":17466:17471   */\n      0x00\n        /* \"#utility.yul\":17497:17503   */\n      dup2\n        /* \"#utility.yul\":17491:17504   */\n      mload\n        /* \"#utility.yul\":17482:17504   */\n      swap1\n      pop\n        /* \"#utility.yul\":17513:17576   */\n      tag_560\n        /* \"#utility.yul\":17570:17575   */\n      dup2\n        /* \"#utility.yul\":17513:17576   */\n      tag_377\n      jump\t// in\n    tag_560:\n        /* \"#utility.yul\":17379:17582   */\n      swap3\n      swap2\n      pop\n      pop\n      jump\t// out\n        /* \"#utility.yul\":17588:17999   */\n    tag_197:\n        /* \"#utility.yul\":17688:17694   */\n      0x00\n        /* \"#utility.yul\":17737:17739   */\n      0x20\n        /* \"#utility.yul\":17725:17734   */\n      dup3\n        /* \"#utility.yul\":17716:17723   */\n      dup5\n        /* \"#utility.yul\":17712:17735   */\n      sub\n        /* \"#utility.yul\":17708:17740   */\n      slt\n        /* \"#utility.yul\":17705:17824   */\n      iszero\n      tag_562\n      jumpi\n        /* \"#utility.yul\":17743:17822   */\n      tag_563\n      tag_331\n      jump\t// in\n    tag_563:\n        /* \"#utility.yul\":17705:17824   */\n    tag_562:\n        /* \"#utility.yul\":17863:17864   */\n      0x00\n        /* \"#utility.yul\":17888:17982   */\n      tag_564\n        /* \"#utility.yul\":17974:17981   */\n      dup5\n        /* \"#utility.yul\":17965:17971   */\n      dup3\n        /* \"#utility.yul\":17954:17963   */\n      dup6\n        /* \"#utility.yul\":17950:17972   */\n      add\n        /* \"#utility.yul\":17888:17982   */\n      tag_378\n      jump\t// in\n    tag_564:\n        /* \"#utility.yul\":17878:17982   */\n      swap2\n      pop\n        /* \"#utility.yul\":17834:17992   */\n      pop\n        /* \"#utility.yul\":17588:17999   */\n      swap3\n      swap2\n      pop\n      pop\n      jump\t// out\n        /* \"#utility.yul\":18005:18104   */\n    tag_379:\n        /* \"#utility.yul\":18057:18063   */\n      0x00\n        /* \"#utility.yul\":18091:18096   */\n      dup2\n        /* \"#utility.yul\":18085:18097   */\n      mload\n        /* \"#utility.yul\":18075:18097   */\n      swap1\n      pop\n        /* \"#utility.yul\":18005:18104   */\n      swap2\n      swap1\n      pop\n      jump\t// out\n        /* \"#utility.yul\":18110:18417   */\n    tag_380:\n        /* \"#utility.yul\":18178:18179   */\n      0x00\n        /* \"#utility.yul\":18188:18301   */\n    tag_567:\n        /* \"#utility.yul\":18202:18208   */\n      dup4\n        /* \"#utility.yul\":18199:18200   */\n      dup2\n        /* \"#utility.yul\":18196:18209   */\n      lt\n        /* \"#utility.yul\":18188:18301   */\n      iszero\n      tag_569\n      jumpi\n        /* \"#utility.yul\":18287:18288   */\n      dup1\n        /* \"#utility.yul\":18282:18285   */\n      dup3\n        /* \"#utility.yul\":18278:18289   */\n      add\n        /* \"#utility.yul\":18272:18290   */\n      mload\n        /* \"#utility.yul\":18268:18269   */\n      dup2\n        /* \"#utility.yul\":18263:18266   */\n      dup5\n        /* \"#utility.yul\":18259:18270   */\n      add\n        /* \"#utility.yul\":18252:18291   */\n      mstore\n        /* \"#utility.yul\":18224:18226   */\n      0x20\n        /* \"#utility.yul\":18221:18222   */\n      dup2\n        /* \"#utility.yul\":18217:18227   */\n      add\n        /* \"#utility.yul\":18212:18227   */\n      swap1\n      pop\n        /* \"#utility.yul\":18188:18301   */\n      jump(tag_567)\n    tag_569:\n        /* \"#utility.yul\":18319:18325   */\n      dup4\n        /* \"#utility.yul\":18316:18317   */\n      dup2\n        /* \"#utility.yul\":18313:18326   */\n      gt\n        /* \"#utility.yul\":18310:18411   */\n      iszero\n      tag_570\n      jumpi\n        /* \"#utility.yul\":18399:18400   */\n      0x00\n        /* \"#utility.yul\":18390:18396   */\n      dup5\n        /* \"#utility.yul\":18385:18388   */\n      dup5\n        /* \"#utility.yul\":18381:18397   */\n      add\n        /* \"#utility.yul\":18374:18401   */\n      mstore\n        /* \"#utility.yul\":18310:18411   */\n    tag_570:\n        /* \"#utility.yul\":18159:18417   */\n      pop\n        /* \"#utility.yul\":18110:18417   */\n      pop\n      pop\n      pop\n      jump\t// out\n        /* \"#utility.yul\":18423:18787   */\n    tag_381:\n        /* \"#utility.yul\":18511:18514   */\n      0x00\n        /* \"#utility.yul\":18539:18578   */\n      tag_572\n        /* \"#utility.yul\":18572:18577   */\n      dup3\n        /* \"#utility.yul\":18539:18578   */\n      tag_379\n      jump\t// in\n    tag_572:\n        /* \"#utility.yul\":18594:18665   */\n      tag_573\n        /* \"#utility.yul\":18658:18664   */\n      dup2\n        /* \"#utility.yul\":18653:18656   */\n      dup6\n        /* \"#utility.yul\":18594:18665   */\n      tag_363\n      jump\t// in\n    tag_573:\n        /* \"#utility.yul\":18587:18665   */\n      swap4\n      pop\n        /* \"#utility.yul\":18674:18726   */\n      tag_574\n        /* \"#utility.yul\":18719:18725   */\n      dup2\n        /* \"#utility.yul\":18714:18717   */\n      dup6\n        /* \"#utility.yul\":18707:18711   */\n      0x20\n        /* \"#utility.yul\":18700:18705   */\n      dup7\n        /* \"#utility.yul\":18696:18712   */\n      add\n        /* \"#utility.yul\":18674:18726   */\n      tag_380\n      jump\t// in\n    tag_574:\n        /* \"#utility.yul\":18751:18780   */\n      tag_575\n        /* \"#utility.yul\":18773:18779   */\n      dup2\n        /* \"#utility.yul\":18751:18780   */\n      tag_351\n      jump\t// in\n    tag_575:\n        /* \"#utility.yul\":18746:18749   */\n      dup5\n        /* \"#utility.yul\":18742:18781   */\n      add\n        /* \"#utility.yul\":18735:18781   */\n      swap2\n      pop\n        /* \"#utility.yul\":18515:18787   */\n      pop\n        /* \"#utility.yul\":18423:18787   */\n      swap3\n      swap2\n      pop\n      pop\n      jump\t// out\n        /* \"#utility.yul\":18793:18853   */\n    tag_382:\n        /* \"#utility.yul\":18821:18824   */\n      0x00\n        /* \"#utility.yul\":18842:18847   */\n      dup2\n        /* \"#utility.yul\":18835:18847   */\n      swap1\n      pop\n        /* \"#utility.yul\":18793:18853   */\n      swap2\n      swap1\n      pop\n      jump\t// out\n        /* \"#utility.yul\":18859:19001   */\n    tag_383:\n        /* \"#utility.yul\":18909:18918   */\n      0x00\n        /* \"#utility.yul\":18942:18995   */\n      tag_578\n        /* \"#utility.yul\":18960:18994   */\n      tag_579\n        /* \"#utility.yul\":18969:18993   */\n      tag_580\n        /* \"#utility.yul\":18987:18992   */\n      dup5\n        /* \"#utility.yul\":18969:18993   */\n      tag_333\n      jump\t// in\n    tag_580:\n        /* \"#utility.yul\":18960:18994   */\n      tag_382\n      jump\t// in\n    tag_579:\n        /* \"#utility.yul\":18942:18995   */\n      tag_333\n      jump\t// in\n    tag_578:\n        /* \"#utility.yul\":18929:18995   */\n      swap1\n      pop\n        /* \"#utility.yul\":18859:19001   */\n      swap2\n      swap1\n      pop\n      jump\t// out\n        /* \"#utility.yul\":19007:19133   */\n    tag_384:\n        /* \"#utility.yul\":19057:19066   */\n      0x00\n        /* \"#utility.yul\":19090:19127   */\n      tag_582\n        /* \"#utility.yul\":19121:19126   */\n      dup3\n        /* \"#utility.yul\":19090:19127   */\n      tag_383\n      jump\t// in\n    tag_582:\n        /* \"#utility.yul\":19077:19127   */\n      swap1\n      pop\n        /* \"#utility.yul\":19007:19133   */\n      swap2\n      swap1\n      pop\n      jump\t// out\n        /* \"#utility.yul\":19139:19273   */\n    tag_385:\n        /* \"#utility.yul\":19197:19206   */\n      0x00\n        /* \"#utility.yul\":19230:19267   */\n      tag_584\n        /* \"#utility.yul\":19261:19266   */\n      dup3\n        /* \"#utility.yul\":19230:19267   */\n      tag_384\n      jump\t// in\n    tag_584:\n        /* \"#utility.yul\":19217:19267   */\n      swap1\n      pop\n        /* \"#utility.yul\":19139:19273   */\n      swap2\n      swap1\n      pop\n      jump\t// out\n        /* \"#utility.yul\":19279:19426   */\n    tag_386:\n        /* \"#utility.yul\":19374:19419   */\n      tag_586\n        /* \"#utility.yul\":19413:19418   */\n      dup2\n        /* \"#utility.yul\":19374:19419   */\n      tag_385\n      jump\t// in\n    tag_586:\n        /* \"#utility.yul\":19369:19372   */\n      dup3\n        /* \"#utility.yul\":19362:19420   */\n      mstore\n        /* \"#utility.yul\":19279:19426   */\n      pop\n      pop\n      jump\t// out\n        /* \"#utility.yul\":19432:20405   */\n    tag_253:\n        /* \"#utility.yul\":19713:19717   */\n      0x00\n        /* \"#utility.yul\":19751:19754   */\n      0xc0\n        /* \"#utility.yul\":19740:19749   */\n      dup3\n        /* \"#utility.yul\":19736:19755   */\n      add\n        /* \"#utility.yul\":19728:19755   */\n      swap1\n      pop\n        /* \"#utility.yul\":19765:19836   */\n      tag_588\n        /* \"#utility.yul\":19833:19834   */\n      0x00\n        /* \"#utility.yul\":19822:19831   */\n      dup4\n        /* \"#utility.yul\":19818:19835   */\n      add\n        /* \"#utility.yul\":19809:19815   */\n      dup10\n        /* \"#utility.yul\":19765:19836   */\n      tag_347\n      jump\t// in\n    tag_588:\n        /* \"#utility.yul\":19846:19918   */\n      tag_589\n        /* \"#utility.yul\":19914:19916   */\n      0x20\n        /* \"#utility.yul\":19903:19912   */\n      dup4\n        /* \"#utility.yul\":19899:19917   */\n      add\n        /* \"#utility.yul\":19890:19896   */\n      dup9\n        /* \"#utility.yul\":19846:19918   */\n      tag_347\n      jump\t// in\n    tag_589:\n        /* \"#utility.yul\":19965:19974   */\n      dup2\n        /* \"#utility.yul\":19959:19963   */\n      dup2\n        /* \"#utility.yul\":19955:19975   */\n      sub\n        /* \"#utility.yul\":19950:19952   */\n      0x40\n        /* \"#utility.yul\":19939:19948   */\n      dup4\n        /* \"#utility.yul\":19935:19953   */\n      add\n        /* \"#utility.yul\":19928:19976   */\n      mstore\n        /* \"#utility.yul\":19993:20071   */\n      tag_590\n        /* \"#utility.yul\":20066:20070   */\n      dup2\n        /* \"#utility.yul\":20057:20063   */\n      dup8\n        /* \"#utility.yul\":19993:20071   */\n      tag_381\n      jump\t// in\n    tag_590:\n        /* \"#utility.yul\":19985:20071   */\n      swap1\n      pop\n        /* \"#utility.yul\":20118:20127   */\n      dup2\n        /* \"#utility.yul\":20112:20116   */\n      dup2\n        /* \"#utility.yul\":20108:20128   */\n      sub\n        /* \"#utility.yul\":20103:20105   */\n      0x60\n        /* \"#utility.yul\":20092:20101   */\n      dup4\n        /* \"#utility.yul\":20088:20106   */\n      add\n        /* \"#utility.yul\":20081:20129   */\n      mstore\n        /* \"#utility.yul\":20146:20224   */\n      tag_591\n        /* \"#utility.yul\":20219:20223   */\n      dup2\n        /* \"#utility.yul\":20210:20216   */\n      dup7\n        /* \"#utility.yul\":20146:20224   */\n      tag_381\n      jump\t// in\n    tag_591:\n        /* \"#utility.yul\":20138:20224   */\n      swap1\n      pop\n        /* \"#utility.yul\":20234:20315   */\n      tag_592\n        /* \"#utility.yul\":20310:20313   */\n      0x80\n        /* \"#utility.yul\":20299:20308   */\n      dup4\n        /* \"#utility.yul\":20295:20314   */\n      add\n        /* \"#utility.yul\":20286:20292   */\n      dup6\n        /* \"#utility.yul\":20234:20315   */\n      tag_386\n      jump\t// in\n    tag_592:\n        /* \"#utility.yul\":20325:20398   */\n      tag_593\n        /* \"#utility.yul\":20393:20396   */\n      0xa0\n        /* \"#utility.yul\":20382:20391   */\n      dup4\n        /* \"#utility.yul\":20378:20397   */\n      add\n        /* \"#utility.yul\":20369:20375   */\n      dup5\n        /* \"#utility.yul\":20325:20398   */\n      tag_348\n      jump\t// in\n    tag_593:\n        /* \"#utility.yul\":19432:20405   */\n      swap8\n      swap7\n      pop\n      pop\n      pop\n      pop\n      pop\n      pop\n      pop\n      jump\t// out\n        /* \"#utility.yul\":20411:20716   */\n    tag_258:\n        /* \"#utility.yul\":20451:20454   */\n      0x00\n        /* \"#utility.yul\":20470:20490   */\n      tag_595\n        /* \"#utility.yul\":20488:20489   */\n      dup3\n        /* \"#utility.yul\":20470:20490   */\n      tag_337\n      jump\t// in\n    tag_595:\n        /* \"#utility.yul\":20465:20490   */\n      swap2\n      pop\n        /* \"#utility.yul\":20504:20524   */\n      tag_596\n        /* \"#utility.yul\":20522:20523   */\n      dup4\n        /* \"#utility.yul\":20504:20524   */\n      tag_337\n      jump\t// in\n    tag_596:\n        /* \"#utility.yul\":20499:20524   */\n      swap3\n      pop\n        /* \"#utility.yul\":20658:20659   */\n      dup3\n        /* \"#utility.yul\":20590:20656   */\n      0xffffffffffffffffffffffffffffffffffffffffffffffffffffffffffffffff\n        /* \"#utility.yul\":20586:20660   */\n      sub\n        /* \"#utility.yul\":20583:20584   */\n      dup3\n        /* \"#utility.yul\":20580:20661   */\n      gt\n        /* \"#utility.yul\":20577:20684   */\n      iszero\n      tag_597\n      jumpi\n        /* \"#utility.yul\":20664:20682   */\n      tag_598\n      tag_375\n      jump\t// in\n    tag_598:\n        /* \"#utility.yul\":20577:20684   */\n    tag_597:\n        /* \"#utility.yul\":20708:20709   */\n      dup3\n        /* \"#utility.yul\":20705:20706   */\n      dup3\n        /* \"#utility.yul\":20701:20710   */\n      add\n        /* \"#utility.yul\":20694:20710   */\n      swap1\n      pop\n        /* \"#utility.yul\":20411:20716   */\n      swap3\n      swap2\n      pop\n      pop\n      jump\t// out\n        /* \"#utility.yul\":20722:20902   */\n    tag_285:\n        /* \"#utility.yul\":20770:20847   */\n      0x4e487b7100000000000000000000000000000000000000000000000000000000\n        /* \"#utility.yul\":20767:20768   */\n      0x00\n        /* \"#utility.yul\":20760:20848   */\n      mstore\n        /* \"#utility.yul\":20867:20871   */\n      0x31\n        /* \"#utility.yul\":20864:20865   */\n      0x04\n        /* \"#utility.yul\":20857:20872   */\n      mstore\n        /* \"#utility.yul\":20891:20895   */\n      0x24\n        /* \"#utility.yul\":20888:20889   */\n      0x00\n        /* \"#utility.yul\":20881:20896   */\n      revert\n    stop\n\n    sub_0: assembly {\n            /* \"Contracts\":7854:8253  contract AccountabilityContractApprovalRequest {... */\n          mstore(0x40, 0x80)\n            /* \"Contracts\":8045:8251  constructor(address _user, address _accountabilityContractAddress) payable {... */\n          mload(0x40)\n          sub(codesize, bytecodeSize)\n          dup1\n          bytecodeSize\n          dup4\n          codecopy\n          dup2\n          dup2\n          add\n          0x40\n          mstore\n          dup2\n          add\n          swap1\n          tag_1\n          swap2\n          swap1\n          tag_2\n          jump\t// in\n        tag_1:\n            /* \"Contracts\":8137:8142  _user */\n          dup2\n            /* \"Contracts\":8130:8134  user */\n          0x00\n          dup1\n            /* \"Contracts\":8130:8142  user = _user */\n          0x0100\n          exp\n          dup2\n          sload\n          dup2\n          0xffffffffffffffffffffffffffffffffffffffff\n          mul\n          not\n          and\n          swap1\n          dup4\n          0xffffffffffffffffffffffffffffffffffffffff\n          and\n          mul\n          or\n          swap1\n          sstore\n          pop\n            /* \"Contracts\":8184:8214  _accountabilityContractAddress */\n          dup1\n            /* \"Contracts\":8152:8181  accountabilityContractAddress */\n          0x01\n          0x00\n            /* \"Contracts\":8152:8214  accountabilityContractAddress = _accountabilityContractAddress */\n          0x0100\n          exp\n          dup2\n          sload\n          dup2\n          0xffffffffffffffffffffffffffffffffffffffff\n          mul\n          not\n          and\n          swap1\n          dup4\n          0xffffffffffffffffffffffffffffffffffffffff\n          and\n          mul\n          or\n          swap1\n          sstore\n          pop\n            /* \"Contracts\":8233:8244  Status.OPEN */\n          0x00\n            /* \"Contracts\":8224:8230  status */\n          0x01\n          0x14\n            /* \"Contracts\":8224:8244  status = Status.OPEN */\n          0x0100\n          exp\n          dup2\n          sload\n          dup2\n          0xff\n          mul\n          not\n          and\n          swap1\n          dup4\n          0x01\n          dup2\n          gt\n          iszero\n          tag_5\n          jumpi\n          tag_6\n          tag_7\n          jump\t// in\n        tag_6:\n        tag_5:\n          mul\n          or\n          swap1\n          sstore\n          pop\n            /* \"Contracts\":8045:8251  constructor(address _user, address _accountabilityContractAddress) payable {... */\n          pop\n          pop\n            /* \"Contracts\":7854:8253  contract AccountabilityContractApprovalRequest {... */\n          jump(tag_8)\n            /* \"#utility.yul\":88:205   */\n        tag_10:\n            /* \"#utility.yul\":197:198   */\n          0x00\n            /* \"#utility.yul\":194:195   */\n          dup1\n            /* \"#utility.yul\":187:199   */\n          revert\n            /* \"#utility.yul\":334:460   */\n        tag_12:\n            /* \"#utility.yul\":371:378   */\n          0x00\n            /* \"#utility.yul\":411:453   */\n          0xffffffffffffffffffffffffffffffffffffffff\n            /* \"#utility.yul\":404:409   */\n          dup3\n            /* \"#utility.yul\":400:454   */\n          and\n            /* \"#utility.yul\":389:454   */\n          swap1\n          pop\n            /* \"#utility.yul\":334:460   */\n          swap2\n          swap1\n          pop\n          jump\t// out\n            /* \"#utility.yul\":466:562   */\n        tag_13:\n            /* \"#utility.yul\":503:510   */\n          0x00\n            /* \"#utility.yul\":532:556   */\n          tag_22\n            /* \"#utility.yul\":550:555   */\n          dup3\n            /* \"#utility.yul\":532:556   */\n          tag_12\n          jump\t// in\n        tag_22:\n            /* \"#utility.yul\":521:556   */\n          swap1\n          pop\n            /* \"#utility.yul\":466:562   */\n          swap2\n          swap1\n          pop\n          jump\t// out\n            /* \"#utility.yul\":568:690   */\n        tag_14:\n            /* \"#utility.yul\":641:665   */\n          tag_24\n            /* \"#utility.yul\":659:664   */\n          dup2\n            /* \"#utility.yul\":641:665   */\n          tag_13\n          jump\t// in\n        tag_24:\n            /* \"#utility.yul\":634:639   */\n          dup2\n            /* \"#utility.yul\":631:666   */\n          eq\n            /* \"#utility.yul\":621:684   */\n          tag_25\n          jumpi\n            /* \"#utility.yul\":680:681   */\n          0x00\n            /* \"#utility.yul\":677:678   */\n          dup1\n            /* \"#utility.yul\":670:682   */\n          revert\n            /* \"#utility.yul\":621:684   */\n        tag_25:\n            /* \"#utility.yul\":568:690   */\n          pop\n          jump\t// out\n            /* \"#utility.yul\":696:839   */\n        tag_15:\n            /* \"#utility.yul\":753:758   */\n          0x00\n            /* \"#utility.yul\":784:790   */\n          dup2\n            /* \"#utility.yul\":778:791   */\n          mload\n            /* \"#utility.yul\":769:791   */\n          swap1\n          pop\n            /* \"#utility.yul\":800:833   */\n          tag_27\n            /* \"#utility.yul\":827:832   */\n          dup2\n            /* \"#utility.yul\":800:833   */\n          tag_14\n          jump\t// in\n        tag_27:\n            /* \"#utility.yul\":696:839   */\n          swap3\n          swap2\n          pop\n          pop\n          jump\t// out\n            /* \"#utility.yul\":845:1352   */\n        tag_2:\n            /* \"#utility.yul\":924:930   */\n          0x00\n            /* \"#utility.yul\":932:938   */\n          dup1\n            /* \"#utility.yul\":981:983   */\n          0x40\n            /* \"#utility.yul\":969:978   */\n          dup4\n            /* \"#utility.yul\":960:967   */\n          dup6\n            /* \"#utility.yul\":956:979   */\n          sub\n            /* \"#utility.yul\":952:984   */\n          slt\n            /* \"#utility.yul\":949:1068   */\n          iszero\n          tag_29\n          jumpi\n            /* \"#utility.yul\":987:1066   */\n          tag_30\n          tag_10\n          jump\t// in\n        tag_30:\n            /* \"#utility.yul\":949:1068   */\n        tag_29:\n            /* \"#utility.yul\":1107:1108   */\n          0x00\n            /* \"#utility.yul\":1132:1196   */\n          tag_31\n            /* \"#utility.yul\":1188:1195   */\n          dup6\n            /* \"#utility.yul\":1179:1185   */\n          dup3\n            /* \"#utility.yul\":1168:1177   */\n          dup7\n            /* \"#utility.yul\":1164:1186   */\n          add\n            /* \"#utility.yul\":1132:1196   */\n          tag_15\n          jump\t// in\n        tag_31:\n            /* \"#utility.yul\":1122:1196   */\n          swap3\n          pop\n            /* \"#utility.yul\":1078:1206   */\n          pop\n            /* \"#utility.yul\":1245:1247   */\n          0x20\n            /* \"#utility.yul\":1271:1335   */\n          tag_32\n            /* \"#utility.yul\":1327:1334   */\n          dup6\n            /* \"#utility.yul\":1318:1324   */\n          dup3\n            /* \"#utility.yul\":1307:1316   */\n          dup7\n            /* \"#utility.yul\":1303:1325   */\n          add\n            /* \"#utility.yul\":1271:1335   */\n          tag_15\n          jump\t// in\n        tag_32:\n            /* \"#utility.yul\":1261:1335   */\n          swap2\n          pop\n            /* \"#utility.yul\":1216:1345   */\n          pop\n            /* \"#utility.yul\":845:1352   */\n          swap3\n          pop\n          swap3\n          swap1\n          pop\n          jump\t// out\n            /* \"#utility.yul\":1358:1538   */\n        tag_7:\n            /* \"#utility.yul\":1406:1483   */\n          0x4e487b7100000000000000000000000000000000000000000000000000000000\n            /* \"#utility.yul\":1403:1404   */\n          0x00\n            /* \"#utility.yul\":1396:1484   */\n          mstore\n            /* \"#utility.yul\":1503:1507   */\n          0x21\n            /* \"#utility.yul\":1500:1501   */\n          0x04\n            /* \"#utility.yul\":1493:1508   */\n          mstore\n            /* \"#utility.yul\":1527:1531   */\n          0x24\n            /* \"#utility.yul\":1524:1525   */\n          0x00\n            /* \"#utility.yul\":1517:1532   */\n          revert\n            /* \"Contracts\":7854:8253  contract AccountabilityContractApprovalRequest {... */\n        tag_8:\n          dataSize(sub_0)\n          dup1\n          dataOffset(sub_0)\n          0x00\n          codecopy\n          0x00\n          return\n        stop\n\n        sub_0: assembly {\n                /* \"Contracts\":7854:8253  contract AccountabilityContractApprovalRequest {... */\n              mstore(0x40, 0x80)\n              callvalue\n              dup1\n              iszero\n              tag_1\n              jumpi\n              0x00\n              dup1\n              revert\n            tag_1:\n              pop\n              jumpi(tag_2, lt(calldatasize, 0x04))\n              shr(0xe0, calldataload(0x00))\n              dup1\n              0x200d2ed2\n              eq\n              tag_3\n              jumpi\n              dup1\n              0x3c490174\n              eq\n              tag_4\n              jumpi\n              dup1\n              0x4f8632ba\n              eq\n              tag_5\n              jumpi\n            tag_2:\n              0x00\n              dup1\n              revert\n                /* \"Contracts\":8014:8034  Status public status */\n            tag_3:\n              tag_6\n              tag_7\n              jump\t// in\n            tag_6:\n              mload(0x40)\n              tag_8\n              swap2\n              swap1\n              tag_9\n              jump\t// in\n            tag_8:\n              mload(0x40)\n              dup1\n              swap2\n              sub\n              swap1\n              return\n                /* \"Contracts\":7932:7976  address public accountabilityContractAddress */\n            tag_4:\n              tag_10\n              tag_11\n              jump\t// in\n            tag_10:\n              mload(0x40)\n              tag_12\n              swap2\n              swap1\n              tag_13\n              jump\t// in\n            tag_12:\n              mload(0x40)\n              dup1\n              swap2\n              sub\n              swap1\n              return\n                /* \"Contracts\":7907:7926  address public user */\n            tag_5:\n              tag_14\n              tag_15\n              jump\t// in\n            tag_14:\n              mload(0x40)\n              tag_16\n              swap2\n              swap1\n              tag_13\n              jump\t// in\n            tag_16:\n              mload(0x40)\n              dup1\n              swap2\n              sub\n              swap1\n              return\n                /* \"Contracts\":8014:8034  Status public status */\n            tag_7:\n              0x01\n              0x14\n              swap1\n              sload\n              swap1\n              0x0100\n              exp\n              swap1\n              div\n              0xff\n              and\n              dup2\n              jump\t// out\n                /* \"Contracts\":7932:7976  address public accountabilityContractAddress */\n            tag_11:\n              0x01\n              0x00\n              swap1\n              sload\n              swap1\n              0x0100\n              exp\n              swap1\n              div\n              0xffffffffffffffffffffffffffffffffffffffff\n              and\n              dup2\n              jump\t// out\n                /* \"Contracts\":7907:7926  address public user */\n            tag_15:\n              0x00\n              dup1\n              sload\n              swap1\n              0x0100\n              exp\n              swap1\n              div\n              0xffffffffffffffffffffffffffffffffffffffff\n              and\n              dup2\n              jump\t// out\n                /* \"#utility.yul\":7:187   */\n            tag_17:\n                /* \"#utility.yul\":55:132   */\n              0x4e487b7100000000000000000000000000000000000000000000000000000000\n                /* \"#utility.yul\":52:53   */\n              0x00\n                /* \"#utility.yul\":45:133   */\n              mstore\n                /* \"#utility.yul\":152:156   */\n              0x21\n                /* \"#utility.yul\":149:150   */\n              0x04\n                /* \"#utility.yul\":142:157   */\n              mstore\n                /* \"#utility.yul\":176:180   */\n              0x24\n                /* \"#utility.yul\":173:174   */\n              0x00\n                /* \"#utility.yul\":166:181   */\n              revert\n                /* \"#utility.yul\":193:308   */\n            tag_18:\n                /* \"#utility.yul\":276:277   */\n              0x02\n                /* \"#utility.yul\":269:274   */\n              dup2\n                /* \"#utility.yul\":266:278   */\n              lt\n                /* \"#utility.yul\":256:302   */\n              tag_28\n              jumpi\n                /* \"#utility.yul\":282:300   */\n              tag_29\n              tag_17\n              jump\t// in\n            tag_29:\n                /* \"#utility.yul\":256:302   */\n            tag_28:\n                /* \"#utility.yul\":193:308   */\n              pop\n              jump\t// out\n                /* \"#utility.yul\":314:445   */\n            tag_19:\n                /* \"#utility.yul\":361:368   */\n              0x00\n                /* \"#utility.yul\":390:395   */\n              dup2\n                /* \"#utility.yul\":379:395   */\n              swap1\n              pop\n                /* \"#utility.yul\":396:439   */\n              tag_31\n                /* \"#utility.yul\":433:438   */\n              dup3\n                /* \"#utility.yul\":396:439   */\n              tag_18\n              jump\t// in\n            tag_31:\n                /* \"#utility.yul\":314:445   */\n              swap2\n              swap1\n              pop\n              jump\t// out\n                /* \"#utility.yul\":451:582   */\n            tag_20:\n                /* \"#utility.yul\":509:518   */\n              0x00\n                /* \"#utility.yul\":542:576   */\n              tag_33\n                /* \"#utility.yul\":570:575   */\n              dup3\n                /* \"#utility.yul\":542:576   */\n              tag_19\n              jump\t// in\n            tag_33:\n                /* \"#utility.yul\":529:576   */\n              swap1\n              pop\n                /* \"#utility.yul\":451:582   */\n              swap2\n              swap1\n              pop\n              jump\t// out\n                /* \"#utility.yul\":588:735   */\n            tag_21:\n                /* \"#utility.yul\":683:728   */\n              tag_35\n                /* \"#utility.yul\":722:727   */\n              dup2\n                /* \"#utility.yul\":683:728   */\n              tag_20\n              jump\t// in\n            tag_35:\n                /* \"#utility.yul\":678:681   */\n              dup3\n                /* \"#utility.yul\":671:729   */\n              mstore\n                /* \"#utility.yul\":588:735   */\n              pop\n              pop\n              jump\t// out\n                /* \"#utility.yul\":741:979   */\n            tag_9:\n                /* \"#utility.yul\":842:846   */\n              0x00\n                /* \"#utility.yul\":880:882   */\n              0x20\n                /* \"#utility.yul\":869:878   */\n              dup3\n                /* \"#utility.yul\":865:883   */\n              add\n                /* \"#utility.yul\":857:883   */\n              swap1\n              pop\n                /* \"#utility.yul\":893:972   */\n              tag_37\n                /* \"#utility.yul\":969:970   */\n              0x00\n                /* \"#utility.yul\":958:967   */\n              dup4\n                /* \"#utility.yul\":954:971   */\n              add\n                /* \"#utility.yul\":945:951   */\n              dup5\n                /* \"#utility.yul\":893:972   */\n              tag_21\n              jump\t// in\n            tag_37:\n                /* \"#utility.yul\":741:979   */\n              swap3\n              swap2\n              pop\n              pop\n              jump\t// out\n                /* \"#utility.yul\":985:1111   */\n            tag_22:\n                /* \"#utility.yul\":1022:1029   */\n              0x00\n                /* \"#utility.yul\":1062:1104   */\n              0xffffffffffffffffffffffffffffffffffffffff\n                /* \"#utility.yul\":1055:1060   */\n              dup3\n                /* \"#utility.yul\":1051:1105   */\n              and\n                /* \"#utility.yul\":1040:1105   */\n              swap1\n              pop\n                /* \"#utility.yul\":985:1111   */\n              swap2\n              swap1\n              pop\n              jump\t// out\n                /* \"#utility.yul\":1117:1213   */\n            tag_23:\n                /* \"#utility.yul\":1154:1161   */\n              0x00\n                /* \"#utility.yul\":1183:1207   */\n              tag_40\n                /* \"#utility.yul\":1201:1206   */\n              dup3\n                /* \"#utility.yul\":1183:1207   */\n              tag_22\n              jump\t// in\n            tag_40:\n                /* \"#utility.yul\":1172:1207   */\n              swap1\n              pop\n                /* \"#utility.yul\":1117:1213   */\n              swap2\n              swap1\n              pop\n              jump\t// out\n                /* \"#utility.yul\":1219:1337   */\n            tag_24:\n                /* \"#utility.yul\":1306:1330   */\n              tag_42\n                /* \"#utility.yul\":1324:1329   */\n              dup2\n                /* \"#utility.yul\":1306:1330   */\n              tag_23\n              jump\t// in\n            tag_42:\n                /* \"#utility.yul\":1301:1304   */\n              dup3\n                /* \"#utility.yul\":1294:1331   */\n              mstore\n                /* \"#utility.yul\":1219:1337   */\n              pop\n              pop\n              jump\t// out\n                /* \"#utility.yul\":1343:1565   */\n            tag_13:\n                /* \"#utility.yul\":1436:1440   */\n              0x00\n                /* \"#utility.yul\":1474:1476   */\n              0x20\n                /* \"#utility.yul\":1463:1472   */\n              dup3\n                /* \"#utility.yul\":1459:1477   */\n              add\n                /* \"#utility.yul\":1451:1477   */\n              swap1\n              pop\n                /* \"#utility.yul\":1487:1558   */\n              tag_44\n                /* \"#utility.yul\":1555:1556   */\n              0x00\n                /* \"#utility.yul\":1544:1553   */\n              dup4\n                /* \"#utility.yul\":1540:1557   */\n              add\n                /* \"#utility.yul\":1531:1537   */\n              dup5\n                /* \"#utility.yul\":1487:1558   */\n              tag_24\n              jump\t// in\n            tag_44:\n                /* \"#utility.yul\":1343:1565   */\n              swap3\n              swap2\n              pop\n              pop\n              jump\t// out\n\n            auxdata: 0xa2646970667358221220126409edecd4573af344e065b32ba98cf8f2c0f3b4887cd190a240209fed8d4f64736f6c634300080c0033\n        }\n    }\n\n    sub_1: assembly {\n            /* \"Contracts\":8255:9648  contract AccountabilityContract {... */\n          mstore(0x40, 0x80)\n            /* \"Contracts\":8534:8903  constructor(address _creator, address _referee, string memory _name, string memory _description, address _failureRecipient, uint _amount) payable {... */\n          mload(0x40)\n          sub(codesize, bytecodeSize)\n          dup1\n          bytecodeSize\n          dup4\n          codecopy\n          dup2\n          dup2\n          add\n          0x40\n          mstore\n          dup2\n          add\n          swap1\n          tag_1\n          swap2\n          swap1\n          tag_2\n          jump\t// in\n        tag_1:\n            /* \"Contracts\":8700:8708  _creator */\n          dup6\n            /* \"Contracts\":8690:8697  creator */\n          0x00\n          dup1\n            /* \"Contracts\":8690:8708  creator = _creator */\n          0x0100\n          exp\n          dup2\n          sload\n          dup2\n          0xffffffffffffffffffffffffffffffffffffffff\n          mul\n          not\n          and\n          swap1\n          dup4\n          0xffffffffffffffffffffffffffffffffffffffff\n          and\n          mul\n          or\n          swap1\n          sstore\n          pop\n            /* \"Contracts\":8728:8736  _referee */\n          dup5\n            /* \"Contracts\":8718:8725  referee */\n          0x01\n          0x00\n            /* \"Contracts\":8718:8736  referee = _referee */\n          0x0100\n          exp\n          dup2\n          sload\n          dup2\n          0xffffffffffffffffffffffffffffffffffffffff\n          mul\n          not\n          and\n          swap1\n          dup4\n          0xffffffffffffffffffffffffffffffffffffffff\n          and\n          mul\n          or\n          swap1\n          sstore\n          pop\n            /* \"Contracts\":8753:8758  _name */\n          dup4\n            /* \"Contracts\":8746:8750  name */\n          0x02\n            /* \"Contracts\":8746:8758  name = _name */\n          swap1\n          dup1\n          mload\n          swap1\n          0x20\n          add\n          swap1\n          tag_5\n          swap3\n          swap2\n          swap1\n          tag_6\n          jump\t// in\n        tag_5:\n          pop\n            /* \"Contracts\":8782:8794  _description */\n          dup3\n            /* \"Contracts\":8768:8779  description */\n          0x03\n            /* \"Contracts\":8768:8794  description = _description */\n          swap1\n          dup1\n          mload\n          swap1\n          0x20\n          add\n          swap1\n          tag_7\n          swap3\n          swap2\n          swap1\n          tag_6\n          jump\t// in\n        tag_7:\n          pop\n            /* \"Contracts\":8823:8840  _failureRecipient */\n          dup2\n            /* \"Contracts\":8804:8820  failureRecipient */\n          0x04\n          0x00\n            /* \"Contracts\":8804:8840  failureRecipient = _failureRecipient */\n          0x0100\n          exp\n          dup2\n          sload\n          dup2\n          0xffffffffffffffffffffffffffffffffffffffff\n          mul\n          not\n          and\n          swap1\n          dup4\n          0xffffffffffffffffffffffffffffffffffffffff\n          and\n          mul\n          or\n          swap1\n          sstore\n          pop\n            /* \"Contracts\":8859:8866  _amount */\n          dup1\n            /* \"Contracts\":8850:8856  amount */\n          0x05\n            /* \"Contracts\":8850:8866  amount = _amount */\n          dup2\n          swap1\n          sstore\n          pop\n            /* \"Contracts\":8885:8896  Status.OPEN */\n          0x00\n            /* \"Contracts\":8876:8882  status */\n          0x06\n          0x00\n            /* \"Contracts\":8876:8896  status = Status.OPEN */\n          0x0100\n          exp\n          dup2\n          sload\n          dup2\n          0xff\n          mul\n          not\n          and\n          swap1\n          dup4\n          0x02\n          dup2\n          gt\n          iszero\n          tag_8\n          jumpi\n          tag_9\n          tag_10\n          jump\t// in\n        tag_9:\n        tag_8:\n          mul\n          or\n          swap1\n          sstore\n          pop\n            /* \"Contracts\":8534:8903  constructor(address _creator, address _referee, string memory _name, string memory _description, address _failureRecipient, uint _amount) payable {... */\n          pop\n          pop\n          pop\n          pop\n          pop\n          pop\n            /* \"Contracts\":8255:9648  contract AccountabilityContract {... */\n          jump(tag_11)\n        tag_6:\n          dup3\n          dup1\n          sload\n          tag_12\n          swap1\n          tag_13\n          jump\t// in\n        tag_12:\n          swap1\n          0x00\n          mstore\n          keccak256(0x00, 0x20)\n          swap1\n          0x1f\n          add\n          0x20\n          swap1\n          div\n          dup2\n          add\n          swap3\n          dup3\n          tag_15\n          jumpi\n          0x00\n          dup6\n          sstore\n          jump(tag_14)\n        tag_15:\n          dup3\n          0x1f\n          lt\n          tag_16\n          jumpi\n          dup1\n          mload\n          not(0xff)\n          and\n          dup4\n          dup1\n          add\n          or\n          dup6\n          sstore\n          jump(tag_14)\n        tag_16:\n          dup3\n          dup1\n          add\n          0x01\n          add\n          dup6\n          sstore\n          dup3\n          iszero\n          tag_14\n          jumpi\n          swap2\n          dup3\n          add\n        tag_17:\n          dup3\n          dup2\n          gt\n          iszero\n          tag_18\n          jumpi\n          dup3\n          mload\n          dup3\n          sstore\n          swap2\n          0x20\n          add\n          swap2\n          swap1\n          0x01\n          add\n          swap1\n          jump(tag_17)\n        tag_18:\n        tag_14:\n          pop\n          swap1\n          pop\n          tag_19\n          swap2\n          swap1\n          tag_20\n          jump\t// in\n        tag_19:\n          pop\n          swap1\n          jump\t// out\n        tag_20:\n        tag_21:\n          dup1\n          dup3\n          gt\n          iszero\n          tag_22\n          jumpi\n          0x00\n          dup2\n          0x00\n          swap1\n          sstore\n          pop\n          0x01\n          add\n          jump(tag_21)\n        tag_22:\n          pop\n          swap1\n          jump\t// out\n            /* \"#utility.yul\":7:82   */\n        tag_23:\n            /* \"#utility.yul\":40:46   */\n          0x00\n            /* \"#utility.yul\":73:75   */\n          0x40\n            /* \"#utility.yul\":67:76   */\n          mload\n            /* \"#utility.yul\":57:76   */\n          swap1\n          pop\n            /* \"#utility.yul\":7:82   */\n          swap1\n          jump\t// out\n            /* \"#utility.yul\":88:205   */\n        tag_24:\n            /* \"#utility.yul\":197:198   */\n          0x00\n            /* \"#utility.yul\":194:195   */\n          dup1\n            /* \"#utility.yul\":187:199   */\n          revert\n            /* \"#utility.yul\":211:328   */\n        tag_25:\n            /* \"#utility.yul\":320:321   */\n          0x00\n            /* \"#utility.yul\":317:318   */\n          dup1\n            /* \"#utility.yul\":310:322   */\n          revert\n            /* \"#utility.yul\":334:460   */\n        tag_26:\n            /* \"#utility.yul\":371:378   */\n          0x00\n            /* \"#utility.yul\":411:453   */\n          0xffffffffffffffffffffffffffffffffffffffff\n            /* \"#utility.yul\":404:409   */\n          dup3\n            /* \"#utility.yul\":400:454   */\n          and\n            /* \"#utility.yul\":389:454   */\n          swap1\n          pop\n            /* \"#utility.yul\":334:460   */\n          swap2\n          swap1\n          pop\n          jump\t// out\n            /* \"#utility.yul\":466:562   */\n        tag_27:\n            /* \"#utility.yul\":503:510   */\n          0x00\n            /* \"#utility.yul\":532:556   */\n          tag_50\n            /* \"#utility.yul\":550:555   */\n          dup3\n            /* \"#utility.yul\":532:556   */\n          tag_26\n          jump\t// in\n        tag_50:\n            /* \"#utility.yul\":521:556   */\n          swap1\n          pop\n            /* \"#utility.yul\":466:562   */\n          swap2\n          swap1\n          pop\n          jump\t// out\n            /* \"#utility.yul\":568:690   */\n        tag_28:\n            /* \"#utility.yul\":641:665   */\n          tag_52\n            /* \"#utility.yul\":659:664   */\n          dup2\n            /* \"#utility.yul\":641:665   */\n          tag_27\n          jump\t// in\n        tag_52:\n            /* \"#utility.yul\":634:639   */\n          dup2\n            /* \"#utility.yul\":631:666   */\n          eq\n            /* \"#utility.yul\":621:684   */\n          tag_53\n          jumpi\n            /* \"#utility.yul\":680:681   */\n          0x00\n            /* \"#utility.yul\":677:678   */\n          dup1\n            /* \"#utility.yul\":670:682   */\n          revert\n            /* \"#utility.yul\":621:684   */\n        tag_53:\n            /* \"#utility.yul\":568:690   */\n          pop\n          jump\t// out\n            /* \"#utility.yul\":696:839   */\n        tag_29:\n            /* \"#utility.yul\":753:758   */\n          0x00\n            /* \"#utility.yul\":784:790   */\n          dup2\n            /* \"#utility.yul\":778:791   */\n          mload\n            /* \"#utility.yul\":769:791   */\n          swap1\n          pop\n            /* \"#utility.yul\":800:833   */\n          tag_55\n            /* \"#utility.yul\":827:832   */\n          dup2\n            /* \"#utility.yul\":800:833   */\n          tag_28\n          jump\t// in\n        tag_55:\n            /* \"#utility.yul\":696:839   */\n          swap3\n          swap2\n          pop\n          pop\n          jump\t// out\n            /* \"#utility.yul\":845:962   */\n        tag_30:\n            /* \"#utility.yul\":954:955   */\n          0x00\n            /* \"#utility.yul\":951:952   */\n          dup1\n            /* \"#utility.yul\":944:956   */\n          revert\n            /* \"#utility.yul\":968:1085   */\n        tag_31:\n            /* \"#utility.yul\":1077:1078   */\n          0x00\n            /* \"#utility.yul\":1074:1075   */\n          dup1\n            /* \"#utility.yul\":1067:1079   */\n          revert\n            /* \"#utility.yul\":1091:1193   */\n        tag_32:\n            /* \"#utility.yul\":1132:1138   */\n          0x00\n            /* \"#utility.yul\":1183:1185   */\n          0x1f\n            /* \"#utility.yul\":1179:1186   */\n          not\n            /* \"#utility.yul\":1174:1176   */\n          0x1f\n            /* \"#utility.yul\":1167:1172   */\n          dup4\n            /* \"#utility.yul\":1163:1177   */\n          add\n            /* \"#utility.yul\":1159:1187   */\n          and\n            /* \"#utility.yul\":1149:1187   */\n          swap1\n          pop\n            /* \"#utility.yul\":1091:1193   */\n          swap2\n          swap1\n          pop\n          jump\t// out\n            /* \"#utility.yul\":1199:1379   */\n        tag_33:\n            /* \"#utility.yul\":1247:1324   */\n          0x4e487b7100000000000000000000000000000000000000000000000000000000\n            /* \"#utility.yul\":1244:1245   */\n          0x00\n            /* \"#utility.yul\":1237:1325   */\n          mstore\n            /* \"#utility.yul\":1344:1348   */\n          0x41\n            /* \"#utility.yul\":1341:1342   */\n          0x04\n            /* \"#utility.yul\":1334:1349   */\n          mstore\n            /* \"#utility.yul\":1368:1372   */\n          0x24\n            /* \"#utility.yul\":1365:1366   */\n          0x00\n            /* \"#utility.yul\":1358:1373   */\n          revert\n            /* \"#utility.yul\":1385:1666   */\n        tag_34:\n            /* \"#utility.yul\":1468:1495   */\n          tag_61\n            /* \"#utility.yul\":1490:1494   */\n          dup3\n            /* \"#utility.yul\":1468:1495   */\n          tag_32\n          jump\t// in\n        tag_61:\n            /* \"#utility.yul\":1460:1466   */\n          dup2\n            /* \"#utility.yul\":1456:1496   */\n          add\n            /* \"#utility.yul\":1598:1604   */\n          dup2\n            /* \"#utility.yul\":1586:1596   */\n          dup2\n            /* \"#utility.yul\":1583:1605   */\n          lt\n            /* \"#utility.yul\":1562:1580   */\n          0xffffffffffffffff\n            /* \"#utility.yul\":1550:1560   */\n          dup3\n            /* \"#utility.yul\":1547:1581   */\n          gt\n            /* \"#utility.yul\":1544:1606   */\n          or\n            /* \"#utility.yul\":1541:1629   */\n          iszero\n          tag_62\n          jumpi\n            /* \"#utility.yul\":1609:1627   */\n          tag_63\n          tag_33\n          jump\t// in\n        tag_63:\n            /* \"#utility.yul\":1541:1629   */\n        tag_62:\n            /* \"#utility.yul\":1649:1659   */\n          dup1\n            /* \"#utility.yul\":1645:1647   */\n          0x40\n            /* \"#utility.yul\":1638:1660   */\n          mstore\n            /* \"#utility.yul\":1428:1666   */\n          pop\n            /* \"#utility.yul\":1385:1666   */\n          pop\n          pop\n          jump\t// out\n            /* \"#utility.yul\":1672:1801   */\n        tag_35:\n            /* \"#utility.yul\":1706:1712   */\n          0x00\n            /* \"#utility.yul\":1733:1753   */\n          tag_65\n          tag_23\n          jump\t// in\n        tag_65:\n            /* \"#utility.yul\":1723:1753   */\n          swap1\n          pop\n            /* \"#utility.yul\":1762:1795   */\n          tag_66\n            /* \"#utility.yul\":1790:1794   */\n          dup3\n            /* \"#utility.yul\":1782:1788   */\n          dup3\n            /* \"#utility.yul\":1762:1795   */\n          tag_34\n          jump\t// in\n        tag_66:\n            /* \"#utility.yul\":1672:1801   */\n          swap2\n          swap1\n          pop\n          jump\t// out\n            /* \"#utility.yul\":1807:2115   */\n        tag_36:\n            /* \"#utility.yul\":1869:1873   */\n          0x00\n            /* \"#utility.yul\":1959:1977   */\n          0xffffffffffffffff\n            /* \"#utility.yul\":1951:1957   */\n          dup3\n            /* \"#utility.yul\":1948:1978   */\n          gt\n            /* \"#utility.yul\":1945:2001   */\n          iszero\n          tag_68\n          jumpi\n            /* \"#utility.yul\":1981:1999   */\n          tag_69\n          tag_33\n          jump\t// in\n        tag_69:\n            /* \"#utility.yul\":1945:2001   */\n        tag_68:\n            /* \"#utility.yul\":2019:2048   */\n          tag_70\n            /* \"#utility.yul\":2041:2047   */\n          dup3\n            /* \"#utility.yul\":2019:2048   */\n          tag_32\n          jump\t// in\n        tag_70:\n            /* \"#utility.yul\":2011:2048   */\n          swap1\n          pop\n            /* \"#utility.yul\":2103:2107   */\n          0x20\n            /* \"#utility.yul\":2097:2101   */\n          dup2\n            /* \"#utility.yul\":2093:2108   */\n          add\n            /* \"#utility.yul\":2085:2108   */\n          swap1\n          pop\n            /* \"#utility.yul\":1807:2115   */\n          swap2\n          swap1\n          pop\n          jump\t// out\n            /* \"#utility.yul\":2121:2428   */\n        tag_37:\n            /* \"#utility.yul\":2189:2190   */\n          0x00\n            /* \"#utility.yul\":2199:2312   */\n        tag_72:\n            /* \"#utility.yul\":2213:2219   */\n          dup4\n            /* \"#utility.yul\":2210:2211   */\n          dup2\n            /* \"#utility.yul\":2207:2220   */\n          lt\n            /* \"#utility.yul\":2199:2312   */\n          iszero\n          tag_74\n          jumpi\n            /* \"#utility.yul\":2298:2299   */\n          dup1\n            /* \"#utility.yul\":2293:2296   */\n          dup3\n            /* \"#utility.yul\":2289:2300   */\n          add\n            /* \"#utility.yul\":2283:2301   */\n          mload\n            /* \"#utility.yul\":2279:2280   */\n          dup2\n            /* \"#utility.yul\":2274:2277   */\n          dup5\n            /* \"#utility.yul\":2270:2281   */\n          add\n            /* \"#utility.yul\":2263:2302   */\n          mstore\n            /* \"#utility.yul\":2235:2237   */\n          0x20\n            /* \"#utility.yul\":2232:2233   */\n          dup2\n            /* \"#utility.yul\":2228:2238   */\n          add\n            /* \"#utility.yul\":2223:2238   */\n          swap1\n          pop\n            /* \"#utility.yul\":2199:2312   */\n          jump(tag_72)\n        tag_74:\n            /* \"#utility.yul\":2330:2336   */\n          dup4\n            /* \"#utility.yul\":2327:2328   */\n          dup2\n            /* \"#utility.yul\":2324:2337   */\n          gt\n            /* \"#utility.yul\":2321:2422   */\n          iszero\n          tag_75\n          jumpi\n            /* \"#utility.yul\":2410:2411   */\n          0x00\n            /* \"#utility.yul\":2401:2407   */\n          dup5\n            /* \"#utility.yul\":2396:2399   */\n          dup5\n            /* \"#utility.yul\":2392:2408   */\n          add\n            /* \"#utility.yul\":2385:2412   */\n          mstore\n            /* \"#utility.yul\":2321:2422   */\n        tag_75:\n            /* \"#utility.yul\":2170:2428   */\n          pop\n            /* \"#utility.yul\":2121:2428   */\n          pop\n          pop\n          pop\n          jump\t// out\n            /* \"#utility.yul\":2434:2855   */\n        tag_38:\n            /* \"#utility.yul\":2523:2528   */\n          0x00\n            /* \"#utility.yul\":2548:2614   */\n          tag_77\n            /* \"#utility.yul\":2564:2613   */\n          tag_78\n            /* \"#utility.yul\":2606:2612   */\n          dup5\n            /* \"#utility.yul\":2564:2613   */\n          tag_36\n          jump\t// in\n        tag_78:\n            /* \"#utility.yul\":2548:2614   */\n          tag_35\n          jump\t// in\n        tag_77:\n            /* \"#utility.yul\":2539:2614   */\n          swap1\n          pop\n            /* \"#utility.yul\":2637:2643   */\n          dup3\n            /* \"#utility.yul\":2630:2635   */\n          dup2\n            /* \"#utility.yul\":2623:2644   */\n          mstore\n            /* \"#utility.yul\":2675:2679   */\n          0x20\n            /* \"#utility.yul\":2668:2673   */\n          dup2\n            /* \"#utility.yul\":2664:2680   */\n          add\n            /* \"#utility.yul\":2713:2716   */\n          dup5\n            /* \"#utility.yul\":2704:2710   */\n          dup5\n            /* \"#utility.yul\":2699:2702   */\n          dup5\n            /* \"#utility.yul\":2695:2711   */\n          add\n            /* \"#utility.yul\":2692:2717   */\n          gt\n            /* \"#utility.yul\":2689:2801   */\n          iszero\n          tag_79\n          jumpi\n            /* \"#utility.yul\":2720:2799   */\n          tag_80\n          tag_31\n          jump\t// in\n        tag_80:\n            /* \"#utility.yul\":2689:2801   */\n        tag_79:\n            /* \"#utility.yul\":2810:2849   */\n          tag_81\n            /* \"#utility.yul\":2842:2848   */\n          dup5\n            /* \"#utility.yul\":2837:2840   */\n          dup3\n            /* \"#utility.yul\":2832:2835   */\n          dup6\n            /* \"#utility.yul\":2810:2849   */\n          tag_37\n          jump\t// in\n        tag_81:\n            /* \"#utility.yul\":2529:2855   */\n          pop\n            /* \"#utility.yul\":2434:2855   */\n          swap4\n          swap3\n          pop\n          pop\n          pop\n          jump\t// out\n            /* \"#utility.yul\":2875:3230   */\n        tag_39:\n            /* \"#utility.yul\":2942:2947   */\n          0x00\n            /* \"#utility.yul\":2991:2994   */\n          dup3\n            /* \"#utility.yul\":2984:2988   */\n          0x1f\n            /* \"#utility.yul\":2976:2982   */\n          dup4\n            /* \"#utility.yul\":2972:2989   */\n          add\n            /* \"#utility.yul\":2968:2995   */\n          slt\n            /* \"#utility.yul\":2958:3080   */\n          tag_83\n          jumpi\n            /* \"#utility.yul\":2999:3078   */\n          tag_84\n          tag_30\n          jump\t// in\n        tag_84:\n            /* \"#utility.yul\":2958:3080   */\n        tag_83:\n            /* \"#utility.yul\":3109:3115   */\n          dup2\n            /* \"#utility.yul\":3103:3116   */\n          mload\n            /* \"#utility.yul\":3134:3224   */\n          tag_85\n            /* \"#utility.yul\":3220:3223   */\n          dup5\n            /* \"#utility.yul\":3212:3218   */\n          dup3\n            /* \"#utility.yul\":3205:3209   */\n          0x20\n            /* \"#utility.yul\":3197:3203   */\n          dup7\n            /* \"#utility.yul\":3193:3210   */\n          add\n            /* \"#utility.yul\":3134:3224   */\n          tag_38\n          jump\t// in\n        tag_85:\n            /* \"#utility.yul\":3125:3224   */\n          swap2\n          pop\n            /* \"#utility.yul\":2948:3230   */\n          pop\n            /* \"#utility.yul\":2875:3230   */\n          swap3\n          swap2\n          pop\n          pop\n          jump\t// out\n            /* \"#utility.yul\":3236:3313   */\n        tag_40:\n            /* \"#utility.yul\":3273:3280   */\n          0x00\n            /* \"#utility.yul\":3302:3307   */\n          dup2\n            /* \"#utility.yul\":3291:3307   */\n          swap1\n          pop\n            /* \"#utility.yul\":3236:3313   */\n          swap2\n          swap1\n          pop\n          jump\t// out\n            /* \"#utility.yul\":3319:3441   */\n        tag_41:\n            /* \"#utility.yul\":3392:3416   */\n          tag_88\n            /* \"#utility.yul\":3410:3415   */\n          dup2\n            /* \"#utility.yul\":3392:3416   */\n          tag_40\n          jump\t// in\n        tag_88:\n            /* \"#utility.yul\":3385:3390   */\n          dup2\n            /* \"#utility.yul\":3382:3417   */\n          eq\n            /* \"#utility.yul\":3372:3435   */\n          tag_89\n          jumpi\n            /* \"#utility.yul\":3431:3432   */\n          0x00\n            /* \"#utility.yul\":3428:3429   */\n          dup1\n            /* \"#utility.yul\":3421:3433   */\n          revert\n            /* \"#utility.yul\":3372:3435   */\n        tag_89:\n            /* \"#utility.yul\":3319:3441   */\n          pop\n          jump\t// out\n            /* \"#utility.yul\":3447:3590   */\n        tag_42:\n            /* \"#utility.yul\":3504:3509   */\n          0x00\n            /* \"#utility.yul\":3535:3541   */\n          dup2\n            /* \"#utility.yul\":3529:3542   */\n          mload\n            /* \"#utility.yul\":3520:3542   */\n          swap1\n          pop\n            /* \"#utility.yul\":3551:3584   */\n          tag_91\n            /* \"#utility.yul\":3578:3583   */\n          dup2\n            /* \"#utility.yul\":3551:3584   */\n          tag_41\n          jump\t// in\n        tag_91:\n            /* \"#utility.yul\":3447:3590   */\n          swap3\n          swap2\n          pop\n          pop\n          jump\t// out\n            /* \"#utility.yul\":3596:5076   */\n        tag_2:\n            /* \"#utility.yul\":3731:3737   */\n          0x00\n            /* \"#utility.yul\":3739:3745   */\n          dup1\n            /* \"#utility.yul\":3747:3753   */\n          0x00\n            /* \"#utility.yul\":3755:3761   */\n          dup1\n            /* \"#utility.yul\":3763:3769   */\n          0x00\n            /* \"#utility.yul\":3771:3777   */\n          dup1\n            /* \"#utility.yul\":3820:3823   */\n          0xc0\n            /* \"#utility.yul\":3808:3817   */\n          dup8\n            /* \"#utility.yul\":3799:3806   */\n          dup10\n            /* \"#utility.yul\":3795:3818   */\n          sub\n            /* \"#utility.yul\":3791:3824   */\n          slt\n            /* \"#utility.yul\":3788:3908   */\n          iszero\n          tag_93\n          jumpi\n            /* \"#utility.yul\":3827:3906   */\n          tag_94\n          tag_24\n          jump\t// in\n        tag_94:\n            /* \"#utility.yul\":3788:3908   */\n        tag_93:\n            /* \"#utility.yul\":3947:3948   */\n          0x00\n            /* \"#utility.yul\":3972:4036   */\n          tag_95\n            /* \"#utility.yul\":4028:4035   */\n          dup10\n            /* \"#utility.yul\":4019:4025   */\n          dup3\n            /* \"#utility.yul\":4008:4017   */\n          dup11\n            /* \"#utility.yul\":4004:4026   */\n          add\n            /* \"#utility.yul\":3972:4036   */\n          tag_29\n          jump\t// in\n        tag_95:\n            /* \"#utility.yul\":3962:4036   */\n          swap7\n          pop\n            /* \"#utility.yul\":3918:4046   */\n          pop\n            /* \"#utility.yul\":4085:4087   */\n          0x20\n            /* \"#utility.yul\":4111:4175   */\n          tag_96\n            /* \"#utility.yul\":4167:4174   */\n          dup10\n            /* \"#utility.yul\":4158:4164   */\n          dup3\n            /* \"#utility.yul\":4147:4156   */\n          dup11\n            /* \"#utility.yul\":4143:4165   */\n          add\n            /* \"#utility.yul\":4111:4175   */\n          tag_29\n          jump\t// in\n        tag_96:\n            /* \"#utility.yul\":4101:4175   */\n          swap6\n          pop\n            /* \"#utility.yul\":4056:4185   */\n          pop\n            /* \"#utility.yul\":4245:4247   */\n          0x40\n            /* \"#utility.yul\":4234:4243   */\n          dup8\n            /* \"#utility.yul\":4230:4248   */\n          add\n            /* \"#utility.yul\":4224:4249   */\n          mload\n            /* \"#utility.yul\":4276:4294   */\n          0xffffffffffffffff\n            /* \"#utility.yul\":4268:4274   */\n          dup2\n            /* \"#utility.yul\":4265:4295   */\n          gt\n            /* \"#utility.yul\":4262:4379   */\n          iszero\n          tag_97\n          jumpi\n            /* \"#utility.yul\":4298:4377   */\n          tag_98\n          tag_25\n          jump\t// in\n        tag_98:\n            /* \"#utility.yul\":4262:4379   */\n        tag_97:\n            /* \"#utility.yul\":4403:4477   */\n          tag_99\n            /* \"#utility.yul\":4469:4476   */\n          dup10\n            /* \"#utility.yul\":4460:4466   */\n          dup3\n            /* \"#utility.yul\":4449:4458   */\n          dup11\n            /* \"#utility.yul\":4445:4467   */\n          add\n            /* \"#utility.yul\":4403:4477   */\n          tag_39\n          jump\t// in\n        tag_99:\n            /* \"#utility.yul\":4393:4477   */\n          swap5\n          pop\n            /* \"#utility.yul\":4195:4487   */\n          pop\n            /* \"#utility.yul\":4547:4549   */\n          0x60\n            /* \"#utility.yul\":4536:4545   */\n          dup8\n            /* \"#utility.yul\":4532:4550   */\n          add\n            /* \"#utility.yul\":4526:4551   */\n          mload\n            /* \"#utility.yul\":4578:4596   */\n          0xffffffffffffffff\n            /* \"#utility.yul\":4570:4576   */\n          dup2\n            /* \"#utility.yul\":4567:4597   */\n          gt\n            /* \"#utility.yul\":4564:4681   */\n          iszero\n          tag_100\n          jumpi\n            /* \"#utility.yul\":4600:4679   */\n          tag_101\n          tag_25\n          jump\t// in\n        tag_101:\n            /* \"#utility.yul\":4564:4681   */\n        tag_100:\n            /* \"#utility.yul\":4705:4779   */\n          tag_102\n            /* \"#utility.yul\":4771:4778   */\n          dup10\n            /* \"#utility.yul\":4762:4768   */\n          dup3\n            /* \"#utility.yul\":4751:4760   */\n          dup11\n            /* \"#utility.yul\":4747:4769   */\n          add\n            /* \"#utility.yul\":4705:4779   */\n          tag_39\n          jump\t// in\n        tag_102:\n            /* \"#utility.yul\":4695:4779   */\n          swap4\n          pop\n            /* \"#utility.yul\":4497:4789   */\n          pop\n            /* \"#utility.yul\":4828:4831   */\n          0x80\n            /* \"#utility.yul\":4855:4919   */\n          tag_103\n            /* \"#utility.yul\":4911:4918   */\n          dup10\n            /* \"#utility.yul\":4902:4908   */\n          dup3\n            /* \"#utility.yul\":4891:4900   */\n          dup11\n            /* \"#utility.yul\":4887:4909   */\n          add\n            /* \"#utility.yul\":4855:4919   */\n          tag_29\n          jump\t// in\n        tag_103:\n            /* \"#utility.yul\":4845:4919   */\n          swap3\n          pop\n            /* \"#utility.yul\":4799:4929   */\n          pop\n            /* \"#utility.yul\":4968:4971   */\n          0xa0\n            /* \"#utility.yul\":4995:5059   */\n          tag_104\n            /* \"#utility.yul\":5051:5058   */\n          dup10\n            /* \"#utility.yul\":5042:5048   */\n          dup3\n            /* \"#utility.yul\":5031:5040   */\n          dup11\n            /* \"#utility.yul\":5027:5049   */\n          add\n            /* \"#utility.yul\":4995:5059   */\n          tag_42\n          jump\t// in\n        tag_104:\n            /* \"#utility.yul\":4985:5059   */\n          swap2\n          pop\n            /* \"#utility.yul\":4939:5069   */\n          pop\n            /* \"#utility.yul\":3596:5076   */\n          swap3\n          swap6\n          pop\n          swap3\n          swap6\n          pop\n          swap3\n          swap6\n          jump\t// out\n            /* \"#utility.yul\":5082:5262   */\n        tag_10:\n            /* \"#utility.yul\":5130:5207   */\n          0x4e487b7100000000000000000000000000000000000000000000000000000000\n            /* \"#utility.yul\":5127:5128   */\n          0x00\n            /* \"#utility.yul\":5120:5208   */\n          mstore\n            /* \"#utility.yul\":5227:5231   */\n          0x21\n            /* \"#utility.yul\":5224:5225   */\n          0x04\n            /* \"#utility.yul\":5217:5232   */\n          mstore\n            /* \"#utility.yul\":5251:5255   */\n          0x24\n            /* \"#utility.yul\":5248:5249   */\n          0x00\n            /* \"#utility.yul\":5241:5256   */\n          revert\n            /* \"#utility.yul\":5268:5448   */\n        tag_43:\n            /* \"#utility.yul\":5316:5393   */\n          0x4e487b7100000000000000000000000000000000000000000000000000000000\n            /* \"#utility.yul\":5313:5314   */\n          0x00\n            /* \"#utility.yul\":5306:5394   */\n          mstore\n            /* \"#utility.yul\":5413:5417   */\n          0x22\n            /* \"#utility.yul\":5410:5411   */\n          0x04\n            /* \"#utility.yul\":5403:5418   */\n          mstore\n            /* \"#utility.yul\":5437:5441   */\n          0x24\n            /* \"#utility.yul\":5434:5435   */\n          0x00\n            /* \"#utility.yul\":5427:5442   */\n          revert\n            /* \"#utility.yul\":5454:5774   */\n        tag_13:\n            /* \"#utility.yul\":5498:5504   */\n          0x00\n            /* \"#utility.yul\":5535:5536   */\n          0x02\n            /* \"#utility.yul\":5529:5533   */\n          dup3\n            /* \"#utility.yul\":5525:5537   */\n          div\n            /* \"#utility.yul\":5515:5537   */\n          swap1\n          pop\n            /* \"#utility.yul\":5582:5583   */\n          0x01\n            /* \"#utility.yul\":5576:5580   */\n          dup3\n            /* \"#utility.yul\":5572:5584   */\n          and\n            /* \"#utility.yul\":5603:5621   */\n          dup1\n            /* \"#utility.yul\":5593:5674   */\n          tag_108\n          jumpi\n            /* \"#utility.yul\":5659:5663   */\n          0x7f\n            /* \"#utility.yul\":5651:5657   */\n          dup3\n            /* \"#utility.yul\":5647:5664   */\n          and\n            /* \"#utility.yul\":5637:5664   */\n          swap2\n          pop\n            /* \"#utility.yul\":5593:5674   */\n        tag_108:\n            /* \"#utility.yul\":5721:5723   */\n          0x20\n            /* \"#utility.yul\":5713:5719   */\n          dup3\n            /* \"#utility.yul\":5710:5724   */\n          lt\n            /* \"#utility.yul\":5690:5708   */\n          dup2\n            /* \"#utility.yul\":5687:5725   */\n          eq\n            /* \"#utility.yul\":5684:5768   */\n          iszero\n          tag_109\n          jumpi\n            /* \"#utility.yul\":5740:5758   */\n          tag_110\n          tag_43\n          jump\t// in\n        tag_110:\n            /* \"#utility.yul\":5684:5768   */\n        tag_109:\n            /* \"#utility.yul\":5505:5774   */\n          pop\n            /* \"#utility.yul\":5454:5774   */\n          swap2\n          swap1\n          pop\n          jump\t// out\n            /* \"Contracts\":8255:9648  contract AccountabilityContract {... */\n        tag_11:\n          dataSize(sub_0)\n          dup1\n          dataOffset(sub_0)\n          0x00\n          codecopy\n          0x00\n          return\n        stop\n\n        sub_0: assembly {\n                /* \"Contracts\":8255:9648  contract AccountabilityContract {... */\n              mstore(0x40, 0x80)\n              jumpi(tag_1, lt(calldatasize, 0x04))\n              shr(0xe0, calldataload(0x00))\n              dup1\n              0x3b1bebd1\n              gt\n              tag_11\n              jumpi\n              dup1\n              0x3b1bebd1\n              eq\n              tag_6\n              jumpi\n              dup1\n              0x4177fe51\n              eq\n              tag_7\n              jumpi\n              dup1\n              0x7284e416\n              eq\n              tag_8\n              jumpi\n              dup1\n              0xaa8c217c\n              eq\n              tag_9\n              jumpi\n              dup1\n              0xb4fedc11\n              eq\n              tag_10\n              jumpi\n              jump(tag_1)\n            tag_11:\n              dup1\n              0x02d05d3f\n              eq\n              tag_2\n              jumpi\n              dup1\n              0x06fdde03\n              eq\n              tag_3\n              jumpi\n              dup1\n              0x200d2ed2\n              eq\n              tag_4\n              jumpi\n              dup1\n              0x2d398fa6\n              eq\n              tag_5\n              jumpi\n            tag_1:\n              0x00\n              dup1\n              revert\n                /* \"Contracts\":8335:8357  address public creator */\n            tag_2:\n              callvalue\n              dup1\n              iszero\n              tag_12\n              jumpi\n              0x00\n              dup1\n              revert\n            tag_12:\n              pop\n              tag_13\n              tag_14\n              jump\t// in\n            tag_13:\n              mload(0x40)\n              tag_15\n              swap2\n              swap1\n              tag_16\n              jump\t// in\n            tag_15:\n              mload(0x40)\n              dup1\n              swap2\n              sub\n              swap1\n              return\n                /* \"Contracts\":8391:8409  string public name */\n            tag_3:\n              callvalue\n              dup1\n              iszero\n              tag_17\n              jumpi\n              0x00\n              dup1\n              revert\n            tag_17:\n              pop\n              tag_18\n              tag_19\n              jump\t// in\n            tag_18:\n              mload(0x40)\n              tag_20\n              swap2\n              swap1\n              tag_21\n              jump\t// in\n            tag_20:\n              mload(0x40)\n              dup1\n              swap2\n              sub\n              swap1\n              return\n                /* \"Contracts\":8507:8527  Status public status */\n            tag_4:\n              callvalue\n              dup1\n              iszero\n              tag_22\n              jumpi\n              0x00\n              dup1\n              revert\n            tag_22:\n              pop\n              tag_23\n              tag_24\n              jump\t// in\n            tag_23:\n              mload(0x40)\n              tag_25\n              swap2\n              swap1\n              tag_26\n              jump\t// in\n            tag_25:\n              mload(0x40)\n              dup1\n              swap2\n              sub\n              swap1\n              return\n                /* \"Contracts\":9035:9354  function failContract() public payable restricted returns (AccountabilityContract) {... */\n            tag_5:\n              tag_27\n              tag_28\n              jump\t// in\n            tag_27:\n              mload(0x40)\n              tag_29\n              swap2\n              swap1\n              tag_30\n              jump\t// in\n            tag_29:\n              mload(0x40)\n              dup1\n              swap2\n              sub\n              swap1\n              return\n                /* \"Contracts\":8363:8385  address public referee */\n            tag_6:\n              callvalue\n              dup1\n              iszero\n              tag_31\n              jumpi\n              0x00\n              dup1\n              revert\n            tag_31:\n              pop\n              tag_32\n              tag_33\n              jump\t// in\n            tag_32:\n              mload(0x40)\n              tag_34\n              swap2\n              swap1\n              tag_16\n              jump\t// in\n            tag_34:\n              mload(0x40)\n              dup1\n              swap2\n              sub\n              swap1\n              return\n                /* \"Contracts\":8446:8477  address public failureRecipient */\n            tag_7:\n              callvalue\n              dup1\n              iszero\n              tag_35\n              jumpi\n              0x00\n              dup1\n              revert\n            tag_35:\n              pop\n              tag_36\n              tag_37\n              jump\t// in\n            tag_36:\n              mload(0x40)\n              tag_38\n              swap2\n              swap1\n              tag_16\n              jump\t// in\n            tag_38:\n              mload(0x40)\n              dup1\n              swap2\n              sub\n              swap1\n              return\n                /* \"Contracts\":8415:8440  string public description */\n            tag_8:\n              callvalue\n              dup1\n              iszero\n              tag_39\n              jumpi\n              0x00\n              dup1\n              revert\n            tag_39:\n              pop\n              tag_40\n              tag_41\n              jump\t// in\n            tag_40:\n              mload(0x40)\n              tag_42\n              swap2\n              swap1\n              tag_21\n              jump\t// in\n            tag_42:\n              mload(0x40)\n              dup1\n              swap2\n              sub\n              swap1\n              return\n                /* \"Contracts\":8483:8501  uint public amount */\n            tag_9:\n              callvalue\n              dup1\n              iszero\n              tag_43\n              jumpi\n              0x00\n              dup1\n              revert\n            tag_43:\n              pop\n              tag_44\n              tag_45\n              jump\t// in\n            tag_44:\n              mload(0x40)\n              tag_46\n              swap2\n              swap1\n              tag_47\n              jump\t// in\n            tag_46:\n              mload(0x40)\n              dup1\n              swap2\n              sub\n              swap1\n              return\n                /* \"Contracts\":9361:9646  function completeContract() public payable restricted returns (AccountabilityContract) {... */\n            tag_10:\n              tag_48\n              tag_49\n              jump\t// in\n            tag_48:\n              mload(0x40)\n              tag_50\n              swap2\n              swap1\n              tag_30\n              jump\t// in\n            tag_50:\n              mload(0x40)\n              dup1\n              swap2\n              sub\n              swap1\n              return\n                /* \"Contracts\":8335:8357  address public creator */\n            tag_14:\n              0x00\n              dup1\n              sload\n              swap1\n              0x0100\n              exp\n              swap1\n              div\n              0xffffffffffffffffffffffffffffffffffffffff\n              and\n              dup2\n              jump\t// out\n                /* \"Contracts\":8391:8409  string public name */\n            tag_19:\n              0x02\n              dup1\n              sload\n              tag_51\n              swap1\n              tag_52\n              jump\t// in\n            tag_51:\n              dup1\n              0x1f\n              add\n              0x20\n              dup1\n              swap2\n              div\n              mul\n              0x20\n              add\n              mload(0x40)\n              swap1\n              dup2\n              add\n              0x40\n              mstore\n              dup1\n              swap3\n              swap2\n              swap1\n              dup2\n              dup2\n              mstore\n              0x20\n              add\n              dup3\n              dup1\n              sload\n              tag_53\n              swap1\n              tag_52\n              jump\t// in\n            tag_53:\n              dup1\n              iszero\n              tag_54\n              jumpi\n              dup1\n              0x1f\n              lt\n              tag_55\n              jumpi\n              0x0100\n              dup1\n              dup4\n              sload\n              div\n              mul\n              dup4\n              mstore\n              swap2\n              0x20\n              add\n              swap2\n              jump(tag_54)\n            tag_55:\n              dup3\n              add\n              swap2\n              swap1\n              0x00\n              mstore\n              keccak256(0x00, 0x20)\n              swap1\n            tag_56:\n              dup2\n              sload\n              dup2\n              mstore\n              swap1\n              0x01\n              add\n              swap1\n              0x20\n              add\n              dup1\n              dup4\n              gt\n              tag_56\n              jumpi\n              dup3\n              swap1\n              sub\n              0x1f\n              and\n              dup3\n              add\n              swap2\n            tag_54:\n              pop\n              pop\n              pop\n              pop\n              pop\n              dup2\n              jump\t// out\n                /* \"Contracts\":8507:8527  Status public status */\n            tag_24:\n              0x06\n              0x00\n              swap1\n              sload\n              swap1\n              0x0100\n              exp\n              swap1\n              div\n              0xff\n              and\n              dup2\n              jump\t// out\n                /* \"Contracts\":9035:9354  function failContract() public payable restricted returns (AccountabilityContract) {... */\n            tag_28:\n                /* \"Contracts\":9094:9116  AccountabilityContract */\n              0x00\n                /* \"Contracts\":8959:8970  Status.OPEN */\n              dup1\n                /* \"Contracts\":8949:8970  status == Status.OPEN */\n              0x02\n              dup2\n              gt\n              iszero\n              tag_58\n              jumpi\n              tag_59\n              tag_60\n              jump\t// in\n            tag_59:\n            tag_58:\n                /* \"Contracts\":8949:8955  status */\n              0x06\n              0x00\n              swap1\n              sload\n              swap1\n              0x0100\n              exp\n              swap1\n              div\n              0xff\n              and\n                /* \"Contracts\":8949:8970  status == Status.OPEN */\n              0x02\n              dup2\n              gt\n              iszero\n              tag_61\n              jumpi\n              tag_62\n              tag_60\n              jump\t// in\n            tag_62:\n            tag_61:\n              eq\n                /* \"Contracts\":8941:9011  require(status == Status.OPEN, \"Contract status is not equal to open\") */\n              tag_63\n              jumpi\n              mload(0x40)\n              0x08c379a000000000000000000000000000000000000000000000000000000000\n              dup2\n              mstore\n              0x04\n              add\n              tag_64\n              swap1\n              tag_65\n              jump\t// in\n            tag_64:\n              mload(0x40)\n              dup1\n              swap2\n              sub\n              swap1\n              revert\n            tag_63:\n                /* \"Contracts\":9149:9156  referee */\n              0x01\n              0x00\n              swap1\n              sload\n              swap1\n              0x0100\n              exp\n              swap1\n              div\n              0xffffffffffffffffffffffffffffffffffffffff\n              and\n                /* \"Contracts\":9136:9156  tx.origin == referee */\n              0xffffffffffffffffffffffffffffffffffffffff\n              and\n                /* \"Contracts\":9136:9145  tx.origin */\n              origin\n                /* \"Contracts\":9136:9156  tx.origin == referee */\n              0xffffffffffffffffffffffffffffffffffffffff\n              and\n              eq\n                /* \"Contracts\":9136:9180  tx.origin == referee || tx.origin == creator */\n              dup1\n              tag_67\n              jumpi\n              pop\n                /* \"Contracts\":9173:9180  creator */\n              0x00\n              dup1\n              sload\n              swap1\n              0x0100\n              exp\n              swap1\n              div\n              0xffffffffffffffffffffffffffffffffffffffff\n              and\n                /* \"Contracts\":9160:9180  tx.origin == creator */\n              0xffffffffffffffffffffffffffffffffffffffff\n              and\n                /* \"Contracts\":9160:9169  tx.origin */\n              origin\n                /* \"Contracts\":9160:9180  tx.origin == creator */\n              0xffffffffffffffffffffffffffffffffffffffff\n              and\n              eq\n                /* \"Contracts\":9136:9180  tx.origin == referee || tx.origin == creator */\n            tag_67:\n                /* \"Contracts\":9128:9226  require(tx.origin == referee || tx.origin == creator, \"Only referee or creator can fail contract\") */\n              tag_68\n              jumpi\n              mload(0x40)\n              0x08c379a000000000000000000000000000000000000000000000000000000000\n              dup2\n              mstore\n              0x04\n              add\n              tag_69\n              swap1\n              tag_70\n              jump\t// in\n            tag_69:\n              mload(0x40)\n              dup1\n              swap2\n              sub\n              swap1\n              revert\n            tag_68:\n                /* \"Contracts\":9244:9260  failureRecipient */\n              0x04\n              0x00\n              swap1\n              sload\n              swap1\n              0x0100\n              exp\n              swap1\n              div\n              0xffffffffffffffffffffffffffffffffffffffff\n              and\n                /* \"Contracts\":9236:9270  payable(failureRecipient).transfer */\n              0xffffffffffffffffffffffffffffffffffffffff\n              and\n                /* \"Contracts\":9236:9293  payable(failureRecipient).transfer(address(this).balance) */\n              0x08fc\n                /* \"Contracts\":9271:9292  address(this).balance */\n              selfbalance\n                /* \"Contracts\":9236:9293  payable(failureRecipient).transfer(address(this).balance) */\n              swap1\n              dup2\n              iszero\n              mul\n              swap1\n              mload(0x40)\n              0x00\n              mload(0x40)\n              dup1\n              dup4\n              sub\n              dup2\n              dup6\n              dup9\n              dup9\n              call\n              swap4\n              pop\n              pop\n              pop\n              pop\n              iszero\n              dup1\n              iszero\n              tag_72\n              jumpi\n              returndatasize\n              0x00\n              dup1\n              returndatacopy\n              revert(0x00, returndatasize)\n            tag_72:\n              pop\n                /* \"Contracts\":9312:9326  Status.FAILURE */\n              0x02\n                /* \"Contracts\":9303:9309  status */\n              0x06\n              0x00\n                /* \"Contracts\":9303:9326  status = Status.FAILURE */\n              0x0100\n              exp\n              dup2\n              sload\n              dup2\n              0xff\n              mul\n              not\n              and\n              swap1\n              dup4\n              0x02\n              dup2\n              gt\n              iszero\n              tag_73\n              jumpi\n              tag_74\n              tag_60\n              jump\t// in\n            tag_74:\n            tag_73:\n              mul\n              or\n              swap1\n              sstore\n              pop\n                /* \"Contracts\":9343:9347  this */\n              address\n                /* \"Contracts\":9336:9347  return this */\n              swap1\n              pop\n                /* \"Contracts\":9035:9354  function failContract() public payable restricted returns (AccountabilityContract) {... */\n              swap1\n              jump\t// out\n                /* \"Contracts\":8363:8385  address public referee */\n            tag_33:\n              0x01\n              0x00\n              swap1\n              sload\n              swap1\n              0x0100\n              exp\n              swap1\n              div\n              0xffffffffffffffffffffffffffffffffffffffff\n              and\n              dup2\n              jump\t// out\n                /* \"Contracts\":8446:8477  address public failureRecipient */\n            tag_37:\n              0x04\n              0x00\n              swap1\n              sload\n              swap1\n              0x0100\n              exp\n              swap1\n              div\n              0xffffffffffffffffffffffffffffffffffffffff\n              and\n              dup2\n              jump\t// out\n                /* \"Contracts\":8415:8440  string public description */\n            tag_41:\n              0x03\n              dup1\n              sload\n              tag_75\n              swap1\n              tag_52\n              jump\t// in\n            tag_75:\n              dup1\n              0x1f\n              add\n              0x20\n              dup1\n              swap2\n              div\n              mul\n              0x20\n              add\n              mload(0x40)\n              swap1\n              dup2\n              add\n              0x40\n              mstore\n              dup1\n              swap3\n              swap2\n              swap1\n              dup2\n              dup2\n              mstore\n              0x20\n              add\n              dup3\n              dup1\n              sload\n              tag_76\n              swap1\n              tag_52\n              jump\t// in\n            tag_76:\n              dup1\n              iszero\n              tag_77\n              jumpi\n              dup1\n              0x1f\n              lt\n              tag_78\n              jumpi\n              0x0100\n              dup1\n              dup4\n              sload\n              div\n              mul\n              dup4\n              mstore\n              swap2\n              0x20\n              add\n              swap2\n              jump(tag_77)\n            tag_78:\n              dup3\n              add\n              swap2\n              swap1\n              0x00\n              mstore\n              keccak256(0x00, 0x20)\n              swap1\n            tag_79:\n              dup2\n              sload\n              dup2\n              mstore\n              swap1\n              0x01\n              add\n              swap1\n              0x20\n              add\n              dup1\n              dup4\n              gt\n              tag_79\n              jumpi\n              dup3\n              swap1\n              sub\n              0x1f\n              and\n              dup3\n              add\n              swap2\n            tag_77:\n              pop\n              pop\n              pop\n              pop\n              pop\n              dup2\n              jump\t// out\n                /* \"Contracts\":8483:8501  uint public amount */\n            tag_45:\n              sload(0x05)\n              dup2\n              jump\t// out\n                /* \"Contracts\":9361:9646  function completeContract() public payable restricted returns (AccountabilityContract) {... */\n            tag_49:\n                /* \"Contracts\":9424:9446  AccountabilityContract */\n              0x00\n                /* \"Contracts\":8959:8970  Status.OPEN */\n              dup1\n                /* \"Contracts\":8949:8970  status == Status.OPEN */\n              0x02\n              dup2\n              gt\n              iszero\n              tag_81\n              jumpi\n              tag_82\n              tag_60\n              jump\t// in\n            tag_82:\n            tag_81:\n                /* \"Contracts\":8949:8955  status */\n              0x06\n              0x00\n              swap1\n              sload\n              swap1\n              0x0100\n              exp\n              swap1\n              div\n              0xff\n              and\n                /* \"Contracts\":8949:8970  status == Status.OPEN */\n              0x02\n              dup2\n              gt\n              iszero\n              tag_83\n              jumpi\n              tag_84\n              tag_60\n              jump\t// in\n            tag_84:\n            tag_83:\n              eq\n                /* \"Contracts\":8941:9011  require(status == Status.OPEN, \"Contract status is not equal to open\") */\n              tag_85\n              jumpi\n              mload(0x40)\n              0x08c379a000000000000000000000000000000000000000000000000000000000\n              dup2\n              mstore\n              0x04\n              add\n              tag_86\n              swap1\n              tag_65\n              jump\t// in\n            tag_86:\n              mload(0x40)\n              dup1\n              swap2\n              sub\n              swap1\n              revert\n            tag_85:\n                /* \"Contracts\":9479:9486  referee */\n              0x01\n              0x00\n              swap1\n              sload\n              swap1\n              0x0100\n              exp\n              swap1\n              div\n              0xffffffffffffffffffffffffffffffffffffffff\n              and\n                /* \"Contracts\":9466:9486  tx.origin == referee */\n              0xffffffffffffffffffffffffffffffffffffffff\n              and\n                /* \"Contracts\":9466:9475  tx.origin */\n              origin\n                /* \"Contracts\":9466:9486  tx.origin == referee */\n              0xffffffffffffffffffffffffffffffffffffffff\n              and\n              eq\n                /* \"Contracts\":9458:9527  require(tx.origin == referee, \"Only referee can complete a contract\") */\n              tag_88\n              jumpi\n              mload(0x40)\n              0x08c379a000000000000000000000000000000000000000000000000000000000\n              dup2\n              mstore\n              0x04\n              add\n              tag_89\n              swap1\n              tag_90\n              jump\t// in\n            tag_89:\n              mload(0x40)\n              dup1\n              swap2\n              sub\n              swap1\n              revert\n            tag_88:\n                /* \"Contracts\":9545:9552  creator */\n              0x00\n              dup1\n              sload\n              swap1\n              0x0100\n              exp\n              swap1\n              div\n              0xffffffffffffffffffffffffffffffffffffffff\n              and\n                /* \"Contracts\":9537:9562  payable(creator).transfer */\n              0xffffffffffffffffffffffffffffffffffffffff\n              and\n                /* \"Contracts\":9537:9585  payable(creator).transfer(address(this).balance) */\n              0x08fc\n                /* \"Contracts\":9563:9584  address(this).balance */\n              selfbalance\n                /* \"Contracts\":9537:9585  payable(creator).transfer(address(this).balance) */\n              swap1\n              dup2\n              iszero\n              mul\n              swap1\n              mload(0x40)\n              0x00\n              mload(0x40)\n              dup1\n              dup4\n              sub\n              dup2\n              dup6\n              dup9\n              dup9\n              call\n              swap4\n              pop\n              pop\n              pop\n              pop\n              iszero\n              dup1\n              iszero\n              tag_92\n              jumpi\n              returndatasize\n              0x00\n              dup1\n              returndatacopy\n              revert(0x00, returndatasize)\n            tag_92:\n              pop\n                /* \"Contracts\":9604:9618  Status.SUCCESS */\n              0x01\n                /* \"Contracts\":9595:9601  status */\n              0x06\n              0x00\n                /* \"Contracts\":9595:9618  status = Status.SUCCESS */\n              0x0100\n              exp\n              dup2\n              sload\n              dup2\n              0xff\n              mul\n              not\n              and\n              swap1\n              dup4\n              0x02\n              dup2\n              gt\n              iszero\n              tag_93\n              jumpi\n              tag_94\n              tag_60\n              jump\t// in\n            tag_94:\n            tag_93:\n              mul\n              or\n              swap1\n              sstore\n              pop\n                /* \"Contracts\":9635:9639  this */\n              address\n                /* \"Contracts\":9628:9639  return this */\n              swap1\n              pop\n                /* \"Contracts\":9361:9646  function completeContract() public payable restricted returns (AccountabilityContract) {... */\n              swap1\n              jump\t// out\n                /* \"#utility.yul\":7:133   */\n            tag_95:\n                /* \"#utility.yul\":44:51   */\n              0x00\n                /* \"#utility.yul\":84:126   */\n              0xffffffffffffffffffffffffffffffffffffffff\n                /* \"#utility.yul\":77:82   */\n              dup3\n                /* \"#utility.yul\":73:127   */\n              and\n                /* \"#utility.yul\":62:127   */\n              swap1\n              pop\n                /* \"#utility.yul\":7:133   */\n              swap2\n              swap1\n              pop\n              jump\t// out\n                /* \"#utility.yul\":139:235   */\n            tag_96:\n                /* \"#utility.yul\":176:183   */\n              0x00\n                /* \"#utility.yul\":205:229   */\n              tag_124\n                /* \"#utility.yul\":223:228   */\n              dup3\n                /* \"#utility.yul\":205:229   */\n              tag_95\n              jump\t// in\n            tag_124:\n                /* \"#utility.yul\":194:229   */\n              swap1\n              pop\n                /* \"#utility.yul\":139:235   */\n              swap2\n              swap1\n              pop\n              jump\t// out\n                /* \"#utility.yul\":241:359   */\n            tag_97:\n                /* \"#utility.yul\":328:352   */\n              tag_126\n                /* \"#utility.yul\":346:351   */\n              dup2\n                /* \"#utility.yul\":328:352   */\n              tag_96\n              jump\t// in\n            tag_126:\n                /* \"#utility.yul\":323:326   */\n              dup3\n                /* \"#utility.yul\":316:353   */\n              mstore\n                /* \"#utility.yul\":241:359   */\n              pop\n              pop\n              jump\t// out\n                /* \"#utility.yul\":365:587   */\n            tag_16:\n                /* \"#utility.yul\":458:462   */\n              0x00\n                /* \"#utility.yul\":496:498   */\n              0x20\n                /* \"#utility.yul\":485:494   */\n              dup3\n                /* \"#utility.yul\":481:499   */\n              add\n                /* \"#utility.yul\":473:499   */\n              swap1\n              pop\n                /* \"#utility.yul\":509:580   */\n              tag_128\n                /* \"#utility.yul\":577:578   */\n              0x00\n                /* \"#utility.yul\":566:575   */\n              dup4\n                /* \"#utility.yul\":562:579   */\n              add\n                /* \"#utility.yul\":553:559   */\n              dup5\n                /* \"#utility.yul\":509:580   */\n              tag_97\n              jump\t// in\n            tag_128:\n                /* \"#utility.yul\":365:587   */\n              swap3\n              swap2\n              pop\n              pop\n              jump\t// out\n                /* \"#utility.yul\":593:692   */\n            tag_98:\n                /* \"#utility.yul\":645:651   */\n              0x00\n                /* \"#utility.yul\":679:684   */\n              dup2\n                /* \"#utility.yul\":673:685   */\n              mload\n                /* \"#utility.yul\":663:685   */\n              swap1\n              pop\n                /* \"#utility.yul\":593:692   */\n              swap2\n              swap1\n              pop\n              jump\t// out\n                /* \"#utility.yul\":698:867   */\n            tag_99:\n                /* \"#utility.yul\":782:793   */\n              0x00\n                /* \"#utility.yul\":816:822   */\n              dup3\n                /* \"#utility.yul\":811:814   */\n              dup3\n                /* \"#utility.yul\":804:823   */\n              mstore\n                /* \"#utility.yul\":856:860   */\n              0x20\n                /* \"#utility.yul\":851:854   */\n              dup3\n                /* \"#utility.yul\":847:861   */\n              add\n                /* \"#utility.yul\":832:861   */\n              swap1\n              pop\n                /* \"#utility.yul\":698:867   */\n              swap3\n              swap2\n              pop\n              pop\n              jump\t// out\n                /* \"#utility.yul\":873:1180   */\n            tag_100:\n                /* \"#utility.yul\":941:942   */\n              0x00\n                /* \"#utility.yul\":951:1064   */\n            tag_132:\n                /* \"#utility.yul\":965:971   */\n              dup4\n                /* \"#utility.yul\":962:963   */\n              dup2\n                /* \"#utility.yul\":959:972   */\n              lt\n                /* \"#utility.yul\":951:1064   */\n              iszero\n              tag_134\n              jumpi\n                /* \"#utility.yul\":1050:1051   */\n              dup1\n                /* \"#utility.yul\":1045:1048   */\n              dup3\n                /* \"#utility.yul\":1041:1052   */\n              add\n                /* \"#utility.yul\":1035:1053   */\n              mload\n                /* \"#utility.yul\":1031:1032   */\n              dup2\n                /* \"#utility.yul\":1026:1029   */\n              dup5\n                /* \"#utility.yul\":1022:1033   */\n              add\n                /* \"#utility.yul\":1015:1054   */\n              mstore\n                /* \"#utility.yul\":987:989   */\n              0x20\n                /* \"#utility.yul\":984:985   */\n              dup2\n                /* \"#utility.yul\":980:990   */\n              add\n                /* \"#utility.yul\":975:990   */\n              swap1\n              pop\n                /* \"#utility.yul\":951:1064   */\n              jump(tag_132)\n            tag_134:\n                /* \"#utility.yul\":1082:1088   */\n              dup4\n                /* \"#utility.yul\":1079:1080   */\n              dup2\n                /* \"#utility.yul\":1076:1089   */\n              gt\n                /* \"#utility.yul\":1073:1174   */\n              iszero\n              tag_135\n              jumpi\n                /* \"#utility.yul\":1162:1163   */\n              0x00\n                /* \"#utility.yul\":1153:1159   */\n              dup5\n                /* \"#utility.yul\":1148:1151   */\n              dup5\n                /* \"#utility.yul\":1144:1160   */\n              add\n                /* \"#utility.yul\":1137:1164   */\n              mstore\n                /* \"#utility.yul\":1073:1174   */\n            tag_135:\n                /* \"#utility.yul\":922:1180   */\n              pop\n                /* \"#utility.yul\":873:1180   */\n              pop\n              pop\n              pop\n              jump\t// out\n                /* \"#utility.yul\":1186:1288   */\n            tag_101:\n                /* \"#utility.yul\":1227:1233   */\n              0x00\n                /* \"#utility.yul\":1278:1280   */\n              0x1f\n                /* \"#utility.yul\":1274:1281   */\n              not\n                /* \"#utility.yul\":1269:1271   */\n              0x1f\n                /* \"#utility.yul\":1262:1267   */\n              dup4\n                /* \"#utility.yul\":1258:1272   */\n              add\n                /* \"#utility.yul\":1254:1282   */\n              and\n                /* \"#utility.yul\":1244:1282   */\n              swap1\n              pop\n                /* \"#utility.yul\":1186:1288   */\n              swap2\n              swap1\n              pop\n              jump\t// out\n                /* \"#utility.yul\":1294:1658   */\n            tag_102:\n                /* \"#utility.yul\":1382:1385   */\n              0x00\n                /* \"#utility.yul\":1410:1449   */\n              tag_138\n                /* \"#utility.yul\":1443:1448   */\n              dup3\n                /* \"#utility.yul\":1410:1449   */\n              tag_98\n              jump\t// in\n            tag_138:\n                /* \"#utility.yul\":1465:1536   */\n              tag_139\n                /* \"#utility.yul\":1529:1535   */\n              dup2\n                /* \"#utility.yul\":1524:1527   */\n              dup6\n                /* \"#utility.yul\":1465:1536   */\n              tag_99\n              jump\t// in\n            tag_139:\n                /* \"#utility.yul\":1458:1536   */\n              swap4\n              pop\n                /* \"#utility.yul\":1545:1597   */\n              tag_140\n                /* \"#utility.yul\":1590:1596   */\n              dup2\n                /* \"#utility.yul\":1585:1588   */\n              dup6\n                /* \"#utility.yul\":1578:1582   */\n              0x20\n                /* \"#utility.yul\":1571:1576   */\n              dup7\n                /* \"#utility.yul\":1567:1583   */\n              add\n                /* \"#utility.yul\":1545:1597   */\n              tag_100\n              jump\t// in\n            tag_140:\n                /* \"#utility.yul\":1622:1651   */\n              tag_141\n                /* \"#utility.yul\":1644:1650   */\n              dup2\n                /* \"#utility.yul\":1622:1651   */\n              tag_101\n              jump\t// in\n            tag_141:\n                /* \"#utility.yul\":1617:1620   */\n              dup5\n                /* \"#utility.yul\":1613:1652   */\n              add\n                /* \"#utility.yul\":1606:1652   */\n              swap2\n              pop\n                /* \"#utility.yul\":1386:1658   */\n              pop\n                /* \"#utility.yul\":1294:1658   */\n              swap3\n              swap2\n              pop\n              pop\n              jump\t// out\n                /* \"#utility.yul\":1664:1977   */\n            tag_21:\n                /* \"#utility.yul\":1777:1781   */\n              0x00\n                /* \"#utility.yul\":1815:1817   */\n              0x20\n                /* \"#utility.yul\":1804:1813   */\n              dup3\n                /* \"#utility.yul\":1800:1818   */\n              add\n                /* \"#utility.yul\":1792:1818   */\n              swap1\n              pop\n                /* \"#utility.yul\":1864:1873   */\n              dup2\n                /* \"#utility.yul\":1858:1862   */\n              dup2\n                /* \"#utility.yul\":1854:1874   */\n              sub\n                /* \"#utility.yul\":1850:1851   */\n              0x00\n                /* \"#utility.yul\":1839:1848   */\n              dup4\n                /* \"#utility.yul\":1835:1852   */\n              add\n                /* \"#utility.yul\":1828:1875   */\n              mstore\n                /* \"#utility.yul\":1892:1970   */\n              tag_143\n                /* \"#utility.yul\":1965:1969   */\n              dup2\n                /* \"#utility.yul\":1956:1962   */\n              dup5\n                /* \"#utility.yul\":1892:1970   */\n              tag_102\n              jump\t// in\n            tag_143:\n                /* \"#utility.yul\":1884:1970   */\n              swap1\n              pop\n                /* \"#utility.yul\":1664:1977   */\n              swap3\n              swap2\n              pop\n              pop\n              jump\t// out\n                /* \"#utility.yul\":1983:2163   */\n            tag_60:\n                /* \"#utility.yul\":2031:2108   */\n              0x4e487b7100000000000000000000000000000000000000000000000000000000\n                /* \"#utility.yul\":2028:2029   */\n              0x00\n                /* \"#utility.yul\":2021:2109   */\n              mstore\n                /* \"#utility.yul\":2128:2132   */\n              0x21\n                /* \"#utility.yul\":2125:2126   */\n              0x04\n                /* \"#utility.yul\":2118:2133   */\n              mstore\n                /* \"#utility.yul\":2152:2156   */\n              0x24\n                /* \"#utility.yul\":2149:2150   */\n              0x00\n                /* \"#utility.yul\":2142:2157   */\n              revert\n                /* \"#utility.yul\":2169:2284   */\n            tag_103:\n                /* \"#utility.yul\":2252:2253   */\n              0x03\n                /* \"#utility.yul\":2245:2250   */\n              dup2\n                /* \"#utility.yul\":2242:2254   */\n              lt\n                /* \"#utility.yul\":2232:2278   */\n              tag_146\n              jumpi\n                /* \"#utility.yul\":2258:2276   */\n              tag_147\n              tag_60\n              jump\t// in\n            tag_147:\n                /* \"#utility.yul\":2232:2278   */\n            tag_146:\n                /* \"#utility.yul\":2169:2284   */\n              pop\n              jump\t// out\n                /* \"#utility.yul\":2290:2421   */\n            tag_104:\n                /* \"#utility.yul\":2337:2344   */\n              0x00\n                /* \"#utility.yul\":2366:2371   */\n              dup2\n                /* \"#utility.yul\":2355:2371   */\n              swap1\n              pop\n                /* \"#utility.yul\":2372:2415   */\n              tag_149\n                /* \"#utility.yul\":2409:2414   */\n              dup3\n                /* \"#utility.yul\":2372:2415   */\n              tag_103\n              jump\t// in\n            tag_149:\n                /* \"#utility.yul\":2290:2421   */\n              swap2\n              swap1\n              pop\n              jump\t// out\n                /* \"#utility.yul\":2427:2558   */\n            tag_105:\n                /* \"#utility.yul\":2485:2494   */\n              0x00\n                /* \"#utility.yul\":2518:2552   */\n              tag_151\n                /* \"#utility.yul\":2546:2551   */\n              dup3\n                /* \"#utility.yul\":2518:2552   */\n              tag_104\n              jump\t// in\n            tag_151:\n                /* \"#utility.yul\":2505:2552   */\n              swap1\n              pop\n                /* \"#utility.yul\":2427:2558   */\n              swap2\n              swap1\n              pop\n              jump\t// out\n                /* \"#utility.yul\":2564:2711   */\n            tag_106:\n                /* \"#utility.yul\":2659:2704   */\n              tag_153\n                /* \"#utility.yul\":2698:2703   */\n              dup2\n                /* \"#utility.yul\":2659:2704   */\n              tag_105\n              jump\t// in\n            tag_153:\n                /* \"#utility.yul\":2654:2657   */\n              dup3\n                /* \"#utility.yul\":2647:2705   */\n              mstore\n                /* \"#utility.yul\":2564:2711   */\n              pop\n              pop\n              jump\t// out\n                /* \"#utility.yul\":2717:2955   */\n            tag_26:\n                /* \"#utility.yul\":2818:2822   */\n              0x00\n                /* \"#utility.yul\":2856:2858   */\n              0x20\n                /* \"#utility.yul\":2845:2854   */\n              dup3\n                /* \"#utility.yul\":2841:2859   */\n              add\n                /* \"#utility.yul\":2833:2859   */\n              swap1\n              pop\n                /* \"#utility.yul\":2869:2948   */\n              tag_155\n                /* \"#utility.yul\":2945:2946   */\n              0x00\n                /* \"#utility.yul\":2934:2943   */\n              dup4\n                /* \"#utility.yul\":2930:2947   */\n              add\n                /* \"#utility.yul\":2921:2927   */\n              dup5\n                /* \"#utility.yul\":2869:2948   */\n              tag_106\n              jump\t// in\n            tag_155:\n                /* \"#utility.yul\":2717:2955   */\n              swap3\n              swap2\n              pop\n              pop\n              jump\t// out\n                /* \"#utility.yul\":2961:3021   */\n            tag_107:\n                /* \"#utility.yul\":2989:2992   */\n              0x00\n                /* \"#utility.yul\":3010:3015   */\n              dup2\n                /* \"#utility.yul\":3003:3015   */\n              swap1\n              pop\n                /* \"#utility.yul\":2961:3021   */\n              swap2\n              swap1\n              pop\n              jump\t// out\n                /* \"#utility.yul\":3027:3169   */\n            tag_108:\n                /* \"#utility.yul\":3077:3086   */\n              0x00\n                /* \"#utility.yul\":3110:3163   */\n              tag_158\n                /* \"#utility.yul\":3128:3162   */\n              tag_159\n                /* \"#utility.yul\":3137:3161   */\n              tag_160\n                /* \"#utility.yul\":3155:3160   */\n              dup5\n                /* \"#utility.yul\":3137:3161   */\n              tag_95\n              jump\t// in\n            tag_160:\n                /* \"#utility.yul\":3128:3162   */\n              tag_107\n              jump\t// in\n            tag_159:\n                /* \"#utility.yul\":3110:3163   */\n              tag_95\n              jump\t// in\n            tag_158:\n                /* \"#utility.yul\":3097:3163   */\n              swap1\n              pop\n                /* \"#utility.yul\":3027:3169   */\n              swap2\n              swap1\n              pop\n              jump\t// out\n                /* \"#utility.yul\":3175:3301   */\n            tag_109:\n                /* \"#utility.yul\":3225:3234   */\n              0x00\n                /* \"#utility.yul\":3258:3295   */\n              tag_162\n                /* \"#utility.yul\":3289:3294   */\n              dup3\n                /* \"#utility.yul\":3258:3295   */\n              tag_108\n              jump\t// in\n            tag_162:\n                /* \"#utility.yul\":3245:3295   */\n              swap1\n              pop\n                /* \"#utility.yul\":3175:3301   */\n              swap2\n              swap1\n              pop\n              jump\t// out\n                /* \"#utility.yul\":3307:3463   */\n            tag_110:\n                /* \"#utility.yul\":3387:3396   */\n              0x00\n                /* \"#utility.yul\":3420:3457   */\n              tag_164\n                /* \"#utility.yul\":3451:3456   */\n              dup3\n                /* \"#utility.yul\":3420:3457   */\n              tag_109\n              jump\t// in\n            tag_164:\n                /* \"#utility.yul\":3407:3457   */\n              swap1\n              pop\n                /* \"#utility.yul\":3307:3463   */\n              swap2\n              swap1\n              pop\n              jump\t// out\n                /* \"#utility.yul\":3469:3660   */\n            tag_111:\n                /* \"#utility.yul\":3586:3653   */\n              tag_166\n                /* \"#utility.yul\":3647:3652   */\n              dup2\n                /* \"#utility.yul\":3586:3653   */\n              tag_110\n              jump\t// in\n            tag_166:\n                /* \"#utility.yul\":3581:3584   */\n              dup3\n                /* \"#utility.yul\":3574:3654   */\n              mstore\n                /* \"#utility.yul\":3469:3660   */\n              pop\n              pop\n              jump\t// out\n                /* \"#utility.yul\":3666:3948   */\n            tag_30:\n                /* \"#utility.yul\":3789:3793   */\n              0x00\n                /* \"#utility.yul\":3827:3829   */\n              0x20\n                /* \"#utility.yul\":3816:3825   */\n              dup3\n                /* \"#utility.yul\":3812:3830   */\n              add\n                /* \"#utility.yul\":3804:3830   */\n              swap1\n              pop\n                /* \"#utility.yul\":3840:3941   */\n              tag_168\n                /* \"#utility.yul\":3938:3939   */\n              0x00\n                /* \"#utility.yul\":3927:3936   */\n              dup4\n                /* \"#utility.yul\":3923:3940   */\n              add\n                /* \"#utility.yul\":3914:3920   */\n              dup5\n                /* \"#utility.yul\":3840:3941   */\n              tag_111\n              jump\t// in\n            tag_168:\n                /* \"#utility.yul\":3666:3948   */\n              swap3\n              swap2\n              pop\n              pop\n              jump\t// out\n                /* \"#utility.yul\":3954:4031   */\n            tag_112:\n                /* \"#utility.yul\":3991:3998   */\n              0x00\n                /* \"#utility.yul\":4020:4025   */\n              dup2\n                /* \"#utility.yul\":4009:4025   */\n              swap1\n              pop\n                /* \"#utility.yul\":3954:4031   */\n              swap2\n              swap1\n              pop\n              jump\t// out\n                /* \"#utility.yul\":4037:4155   */\n            tag_113:\n                /* \"#utility.yul\":4124:4148   */\n              tag_171\n                /* \"#utility.yul\":4142:4147   */\n              dup2\n                /* \"#utility.yul\":4124:4148   */\n              tag_112\n              jump\t// in\n            tag_171:\n                /* \"#utility.yul\":4119:4122   */\n              dup3\n                /* \"#utility.yul\":4112:4149   */\n              mstore\n                /* \"#utility.yul\":4037:4155   */\n              pop\n              pop\n              jump\t// out\n                /* \"#utility.yul\":4161:4383   */\n            tag_47:\n                /* \"#utility.yul\":4254:4258   */\n              0x00\n                /* \"#utility.yul\":4292:4294   */\n              0x20\n                /* \"#utility.yul\":4281:4290   */\n              dup3\n                /* \"#utility.yul\":4277:4295   */\n              add\n                /* \"#utility.yul\":4269:4295   */\n              swap1\n              pop\n                /* \"#utility.yul\":4305:4376   */\n              tag_173\n                /* \"#utility.yul\":4373:4374   */\n              0x00\n                /* \"#utility.yul\":4362:4371   */\n              dup4\n                /* \"#utility.yul\":4358:4375   */\n              add\n                /* \"#utility.yul\":4349:4355   */\n              dup5\n                /* \"#utility.yul\":4305:4376   */\n              tag_113\n              jump\t// in\n            tag_173:\n                /* \"#utility.yul\":4161:4383   */\n              swap3\n              swap2\n              pop\n              pop\n              jump\t// out\n                /* \"#utility.yul\":4389:4569   */\n            tag_114:\n                /* \"#utility.yul\":4437:4514   */\n              0x4e487b7100000000000000000000000000000000000000000000000000000000\n                /* \"#utility.yul\":4434:4435   */\n              0x00\n                /* \"#utility.yul\":4427:4515   */\n              mstore\n                /* \"#utility.yul\":4534:4538   */\n              0x22\n                /* \"#utility.yul\":4531:4532   */\n              0x04\n                /* \"#utility.yul\":4524:4539   */\n              mstore\n                /* \"#utility.yul\":4558:4562   */\n              0x24\n                /* \"#utility.yul\":4555:4556   */\n              0x00\n                /* \"#utility.yul\":4548:4563   */\n              revert\n                /* \"#utility.yul\":4575:4895   */\n            tag_52:\n                /* \"#utility.yul\":4619:4625   */\n              0x00\n                /* \"#utility.yul\":4656:4657   */\n              0x02\n                /* \"#utility.yul\":4650:4654   */\n              dup3\n                /* \"#utility.yul\":4646:4658   */\n              div\n                /* \"#utility.yul\":4636:4658   */\n              swap1\n              pop\n                /* \"#utility.yul\":4703:4704   */\n              0x01\n                /* \"#utility.yul\":4697:4701   */\n              dup3\n                /* \"#utility.yul\":4693:4705   */\n              and\n                /* \"#utility.yul\":4724:4742   */\n              dup1\n                /* \"#utility.yul\":4714:4795   */\n              tag_176\n              jumpi\n                /* \"#utility.yul\":4780:4784   */\n              0x7f\n                /* \"#utility.yul\":4772:4778   */\n              dup3\n                /* \"#utility.yul\":4768:4785   */\n              and\n                /* \"#utility.yul\":4758:4785   */\n              swap2\n              pop\n                /* \"#utility.yul\":4714:4795   */\n            tag_176:\n                /* \"#utility.yul\":4842:4844   */\n              0x20\n                /* \"#utility.yul\":4834:4840   */\n              dup3\n                /* \"#utility.yul\":4831:4845   */\n              lt\n                /* \"#utility.yul\":4811:4829   */\n              dup2\n                /* \"#utility.yul\":4808:4846   */\n              eq\n                /* \"#utility.yul\":4805:4889   */\n              iszero\n              tag_177\n              jumpi\n                /* \"#utility.yul\":4861:4879   */\n              tag_178\n              tag_114\n              jump\t// in\n            tag_178:\n                /* \"#utility.yul\":4805:4889   */\n            tag_177:\n                /* \"#utility.yul\":4626:4895   */\n              pop\n                /* \"#utility.yul\":4575:4895   */\n              swap2\n              swap1\n              pop\n              jump\t// out\n                /* \"#utility.yul\":4901:5124   */\n            tag_115:\n                /* \"#utility.yul\":5041:5075   */\n              0x436f6e747261637420737461747573206973206e6f7420657175616c20746f20\n                /* \"#utility.yul\":5037:5038   */\n              0x00\n                /* \"#utility.yul\":5029:5035   */\n              dup3\n                /* \"#utility.yul\":5025:5039   */\n              add\n                /* \"#utility.yul\":5018:5076   */\n              mstore\n                /* \"#utility.yul\":5110:5116   */\n              0x6f70656e00000000000000000000000000000000000000000000000000000000\n                /* \"#utility.yul\":5105:5107   */\n              0x20\n                /* \"#utility.yul\":5097:5103   */\n              dup3\n                /* \"#utility.yul\":5093:5108   */\n              add\n                /* \"#utility.yul\":5086:5117   */\n              mstore\n                /* \"#utility.yul\":4901:5124   */\n              pop\n              jump\t// out\n                /* \"#utility.yul\":5130:5496   */\n            tag_116:\n                /* \"#utility.yul\":5272:5275   */\n              0x00\n                /* \"#utility.yul\":5293:5360   */\n              tag_181\n                /* \"#utility.yul\":5357:5359   */\n              0x24\n                /* \"#utility.yul\":5352:5355   */\n              dup4\n                /* \"#utility.yul\":5293:5360   */\n              tag_99\n              jump\t// in\n            tag_181:\n                /* \"#utility.yul\":5286:5360   */\n              swap2\n              pop\n                /* \"#utility.yul\":5369:5462   */\n              tag_182\n                /* \"#utility.yul\":5458:5461   */\n              dup3\n                /* \"#utility.yul\":5369:5462   */\n              tag_115\n              jump\t// in\n            tag_182:\n                /* \"#utility.yul\":5487:5489   */\n              0x40\n                /* \"#utility.yul\":5482:5485   */\n              dup3\n                /* \"#utility.yul\":5478:5490   */\n              add\n                /* \"#utility.yul\":5471:5490   */\n              swap1\n              pop\n                /* \"#utility.yul\":5130:5496   */\n              swap2\n              swap1\n              pop\n              jump\t// out\n                /* \"#utility.yul\":5502:5921   */\n            tag_65:\n                /* \"#utility.yul\":5668:5672   */\n              0x00\n                /* \"#utility.yul\":5706:5708   */\n              0x20\n                /* \"#utility.yul\":5695:5704   */\n              dup3\n                /* \"#utility.yul\":5691:5709   */\n              add\n                /* \"#utility.yul\":5683:5709   */\n              swap1\n              pop\n                /* \"#utility.yul\":5755:5764   */\n              dup2\n                /* \"#utility.yul\":5749:5753   */\n              dup2\n                /* \"#utility.yul\":5745:5765   */\n              sub\n                /* \"#utility.yul\":5741:5742   */\n              0x00\n                /* \"#utility.yul\":5730:5739   */\n              dup4\n                /* \"#utility.yul\":5726:5743   */\n              add\n                /* \"#utility.yul\":5719:5766   */\n              mstore\n                /* \"#utility.yul\":5783:5914   */\n              tag_184\n                /* \"#utility.yul\":5909:5913   */\n              dup2\n                /* \"#utility.yul\":5783:5914   */\n              tag_116\n              jump\t// in\n            tag_184:\n                /* \"#utility.yul\":5775:5914   */\n              swap1\n              pop\n                /* \"#utility.yul\":5502:5921   */\n              swap2\n              swap1\n              pop\n              jump\t// out\n                /* \"#utility.yul\":5927:6155   */\n            tag_117:\n                /* \"#utility.yul\":6067:6101   */\n              0x4f6e6c792072656665726565206f722063726561746f722063616e206661696c\n                /* \"#utility.yul\":6063:6064   */\n              0x00\n                /* \"#utility.yul\":6055:6061   */\n              dup3\n                /* \"#utility.yul\":6051:6065   */\n              add\n                /* \"#utility.yul\":6044:6102   */\n              mstore\n                /* \"#utility.yul\":6136:6147   */\n              0x20636f6e74726163740000000000000000000000000000000000000000000000\n                /* \"#utility.yul\":6131:6133   */\n              0x20\n                /* \"#utility.yul\":6123:6129   */\n              dup3\n                /* \"#utility.yul\":6119:6134   */\n              add\n                /* \"#utility.yul\":6112:6148   */\n              mstore\n                /* \"#utility.yul\":5927:6155   */\n              pop\n              jump\t// out\n                /* \"#utility.yul\":6161:6527   */\n            tag_118:\n                /* \"#utility.yul\":6303:6306   */\n              0x00\n                /* \"#utility.yul\":6324:6391   */\n              tag_187\n                /* \"#utility.yul\":6388:6390   */\n              0x29\n                /* \"#utility.yul\":6383:6386   */\n              dup4\n                /* \"#utility.yul\":6324:6391   */\n              tag_99\n              jump\t// in\n            tag_187:\n                /* \"#utility.yul\":6317:6391   */\n              swap2\n              pop\n                /* \"#utility.yul\":6400:6493   */\n              tag_188\n                /* \"#utility.yul\":6489:6492   */\n              dup3\n                /* \"#utility.yul\":6400:6493   */\n              tag_117\n              jump\t// in\n            tag_188:\n                /* \"#utility.yul\":6518:6520   */\n              0x40\n                /* \"#utility.yul\":6513:6516   */\n              dup3\n                /* \"#utility.yul\":6509:6521   */\n              add\n                /* \"#utility.yul\":6502:6521   */\n              swap1\n              pop\n                /* \"#utility.yul\":6161:6527   */\n              swap2\n              swap1\n              pop\n              jump\t// out\n                /* \"#utility.yul\":6533:6952   */\n            tag_70:\n                /* \"#utility.yul\":6699:6703   */\n              0x00\n                /* \"#utility.yul\":6737:6739   */\n              0x20\n                /* \"#utility.yul\":6726:6735   */\n              dup3\n                /* \"#utility.yul\":6722:6740   */\n              add\n                /* \"#utility.yul\":6714:6740   */\n              swap1\n              pop\n                /* \"#utility.yul\":6786:6795   */\n              dup2\n                /* \"#utility.yul\":6780:6784   */\n              dup2\n                /* \"#utility.yul\":6776:6796   */\n              sub\n                /* \"#utility.yul\":6772:6773   */\n              0x00\n                /* \"#utility.yul\":6761:6770   */\n              dup4\n                /* \"#utility.yul\":6757:6774   */\n              add\n                /* \"#utility.yul\":6750:6797   */\n              mstore\n                /* \"#utility.yul\":6814:6945   */\n              tag_190\n                /* \"#utility.yul\":6940:6944   */\n              dup2\n                /* \"#utility.yul\":6814:6945   */\n              tag_118\n              jump\t// in\n            tag_190:\n                /* \"#utility.yul\":6806:6945   */\n              swap1\n              pop\n                /* \"#utility.yul\":6533:6952   */\n              swap2\n              swap1\n              pop\n              jump\t// out\n                /* \"#utility.yul\":6958:7181   */\n            tag_119:\n                /* \"#utility.yul\":7098:7132   */\n              0x4f6e6c7920726566657265652063616e20636f6d706c657465206120636f6e74\n                /* \"#utility.yul\":7094:7095   */\n              0x00\n                /* \"#utility.yul\":7086:7092   */\n              dup3\n                /* \"#utility.yul\":7082:7096   */\n              add\n                /* \"#utility.yul\":7075:7133   */\n              mstore\n                /* \"#utility.yul\":7167:7173   */\n              0x7261637400000000000000000000000000000000000000000000000000000000\n                /* \"#utility.yul\":7162:7164   */\n              0x20\n                /* \"#utility.yul\":7154:7160   */\n              dup3\n                /* \"#utility.yul\":7150:7165   */\n              add\n                /* \"#utility.yul\":7143:7174   */\n              mstore\n                /* \"#utility.yul\":6958:7181   */\n              pop\n              jump\t// out\n                /* \"#utility.yul\":7187:7553   */\n            tag_120:\n                /* \"#utility.yul\":7329:7332   */\n              0x00\n                /* \"#utility.yul\":7350:7417   */\n              tag_193\n                /* \"#utility.yul\":7414:7416   */\n              0x24\n                /* \"#utility.yul\":7409:7412   */\n              dup4\n                /* \"#utility.yul\":7350:7417   */\n              tag_99\n              jump\t// in\n            tag_193:\n                /* \"#utility.yul\":7343:7417   */\n              swap2\n              pop\n                /* \"#utility.yul\":7426:7519   */\n              tag_194\n                /* \"#utility.yul\":7515:7518   */\n              dup3\n                /* \"#utility.yul\":7426:7519   */\n              tag_119\n              jump\t// in\n            tag_194:\n                /* \"#utility.yul\":7544:7546   */\n              0x40\n                /* \"#utility.yul\":7539:7542   */\n              dup3\n                /* \"#utility.yul\":7535:7547   */\n              add\n                /* \"#utility.yul\":7528:7547   */\n              swap1\n              pop\n                /* \"#utility.yul\":7187:7553   */\n              swap2\n              swap1\n              pop\n              jump\t// out\n                /* \"#utility.yul\":7559:7978   */\n            tag_90:\n                /* \"#utility.yul\":7725:7729   */\n              0x00\n                /* \"#utility.yul\":7763:7765   */\n              0x20\n                /* \"#utility.yul\":7752:7761   */\n              dup3\n                /* \"#utility.yul\":7748:7766   */\n              add\n                /* \"#utility.yul\":7740:7766   */\n              swap1\n              pop\n                /* \"#utility.yul\":7812:7821   */\n              dup2\n                /* \"#utility.yul\":7806:7810   */\n              dup2\n                /* \"#utility.yul\":7802:7822   */\n              sub\n                /* \"#utility.yul\":7798:7799   */\n              0x00\n                /* \"#utility.yul\":7787:7796   */\n              dup4\n                /* \"#utility.yul\":7783:7800   */\n              add\n                /* \"#utility.yul\":7776:7823   */\n              mstore\n                /* \"#utility.yul\":7840:7971   */\n              tag_196\n                /* \"#utility.yul\":7966:7970   */\n              dup2\n                /* \"#utility.yul\":7840:7971   */\n              tag_120\n              jump\t// in\n            tag_196:\n                /* \"#utility.yul\":7832:7971   */\n              swap1\n              pop\n                /* \"#utility.yul\":7559:7978   */\n              swap2\n              swap1\n              pop\n              jump\t// out\n\n            auxdata: 0xa2646970667358221220c20c9a737f796a1a50e73b1d2c19a0dabc97d1ca8d9fdfb7f0c9745f913ebfc164736f6c634300080c0033\n        }\n    }\n\n    auxdata: 0xa2646970667358221220c37cc71a15a2b86b9c2a2f112fd54c25d4bb5d50df7c81313fe2b890b4ae5b8564736f6c634300080c0033\n}\n","bytecode":{"linkReferences":{},"object":"608060405234801561001057600080fd5b50614505806100206000396000f3fe6080604052600436106200013a5760003560e01c806364a60b4711620000af578063b24e67d0116200006d578063b24e67d014620004e7578063b3b6633e146200052b578063cc785850146200055b578063dc0e0c131462000589578063e436e82614620005b9576200013a565b806364a60b4714620003a757806375ce46a714620003eb5780639051e234146200041b578063a87430ba146200045f578063a908f4fa14620004a3576200013a565b8063442a7bc711620000fd578063442a7bc7146200027d5780634841a88514620002c15780634ac0b82d14620002f15780634ea34671146200031f578063502c9bd51462000363576200013a565b806301af65e7146200013f5780630e865751146200016d57806319ee8bd414620001b157806338db44bc14620001f557806338fb42fd1462000239575b600080fd5b3480156200014c57600080fd5b506200016b600480360381019062000165919062002379565b620005d9565b005b3480156200017a57600080fd5b50620001996004803603810190620001939190620023fb565b620009dc565b604051620001a8919062002510565b60405180910390f35b348015620001be57600080fd5b50620001dd6004803603810190620001d7919062002534565b62000b90565b604051620001ec919062002510565b60405180910390f35b3480156200020257600080fd5b506200022160048036038101906200021b919062002566565b62000c62565b604051620002309190620025a9565b60405180910390f35b3480156200024657600080fd5b506200026560048036038101906200025f919062002566565b62000ca2565b604051620002749190620025a9565b60405180910390f35b3480156200028a57600080fd5b50620002a96004803603810190620002a3919062002534565b62000ce2565b604051620002b8919062002510565b60405180910390f35b348015620002ce57600080fd5b50620002d962000db3565b604051620002e89190620025d7565b60405180910390f35b348015620002fe57600080fd5b506200031d600480360381019062000317919062002379565b62000db9565b005b3480156200032c57600080fd5b506200034b600480360381019062000345919062002534565b62000ec1565b6040516200035a919062002510565b60405180910390f35b3480156200037057600080fd5b506200038f600480360381019062000389919062002566565b62000f93565b6040516200039e9190620025a9565b60405180910390f35b348015620003b457600080fd5b50620003d36004803603810190620003cd919062002534565b62000fd3565b604051620003e29190620025d7565b60405180910390f35b348015620003f857600080fd5b506200040362000ff1565b604051620004129190620025d7565b60405180910390f35b3480156200042857600080fd5b5062000447600480360381019062000441919062002534565b62000ff7565b60405162000456919062002510565b60405180910390f35b3480156200046c57600080fd5b506200048b600480360381019062000485919062002534565b620010c9565b6040516200049a9190620025d7565b60405180910390f35b348015620004b057600080fd5b50620004cf6004803603810190620004c99190620023fb565b620010e7565b604051620004de919062002510565b60405180910390f35b348015620004f457600080fd5b506200051360048036038101906200050d919062002534565b6200129b565b60405162000522919062002510565b60405180910390f35b3480156200053857600080fd5b50620005436200136c565b604051620005529190620025d7565b60405180910390f35b3480156200056857600080fd5b5062000587600480360381019062000581919062002379565b62001372565b005b3480156200059657600080fd5b50620005a16200147a565b604051620005b09190620025d7565b60405180910390f35b620005d76004803603810190620005d191906200279b565b62001480565b005b600081905060006002811115620005f557620005f46200284b565b5b8173ffffffffffffffffffffffffffffffffffffffff1663200d2ed26040518163ffffffff1660e01b8152600401602060405180830381865afa15801562000641573d6000803e3d6000fd5b505050506040513d601f19601f82011682018060405250810190620006679190620028a2565b60028111156200067c576200067b6200284b565b5b14620006bf576040517f08c379a0000000000000000000000000000000000000000000000000000000008152600401620006b69062002935565b60405180910390fd5b8273ffffffffffffffffffffffffffffffffffffffff168173ffffffffffffffffffffffffffffffffffffffff16633b1bebd16040518163ffffffff1660e01b8152600401602060405180830381865afa15801562000722573d6000803e3d6000fd5b505050506040513d601f19601f820116820180604052508101906200074891906200296e565b73ffffffffffffffffffffffffffffffffffffffff1614620007a1576040517f08c379a0000000000000000000000000000000000000000000000000000000008152600401620007989062002a16565b60405180910390fd5b8073ffffffffffffffffffffffffffffffffffffffff166302d05d3f6040518163ffffffff1660e01b8152600401602060405180830381865afa158015620007ed573d6000803e3d6000fd5b505050506040513d601f19601f820116820180604052508101906200081391906200296e565b73ffffffffffffffffffffffffffffffffffffffff163273ffffffffffffffffffffffffffffffffffffffff161462000883576040517f08c379a00000000000000000000000000000000000000000000000000000000081526004016200087a9062002aae565b60405180910390fd5b60008173ffffffffffffffffffffffffffffffffffffffff166302d05d3f6040518163ffffffff1660e01b8152600401602060405180830381865afa158015620008d1573d6000803e3d6000fd5b505050506040513d601f19601f82011682018060405250810190620008f791906200296e565b836040516200090690620022e4565b6200091392919062002ad0565b604051809103906000f08015801562000930573d6000803e3d6000fd5b509050600660008573ffffffffffffffffffffffffffffffffffffffff1673ffffffffffffffffffffffffffffffffffffffff168152602001908152602001600020600301819080600181540180825580915050600190039060005260206000200160009091909190916101000a81548173ffffffffffffffffffffffffffffffffffffffff021916908373ffffffffffffffffffffffffffffffffffffffff16021790555050505050565b6060600083101562000a25576040517f08c379a000000000000000000000000000000000000000000000000000000000815260040162000a1c9062002b4d565b60405180910390fd5b60038054905082111562000a70576040517f08c379a000000000000000000000000000000000000000000000000000000000815260040162000a679062002be5565b60405180910390fd5b6000838362000a80919062002c36565b67ffffffffffffffff81111562000a9c5762000a9b6200260f565b5b60405190808252806020026020018201604052801562000acb5781602001602082028036833780820191505090505b50905060008490505b8381101562000b85576003818154811062000af45762000af362002c71565b5b9060005260206000200160009054906101000a900473ffffffffffffffffffffffffffffffffffffffff1682828151811062000b355762000b3462002c71565b5b602002602001019073ffffffffffffffffffffffffffffffffffffffff16908173ffffffffffffffffffffffffffffffffffffffff1681525050808062000b7c9062002ca0565b91505062000ad4565b508091505092915050565b6060600660008373ffffffffffffffffffffffffffffffffffffffff1673ffffffffffffffffffffffffffffffffffffffff16815260200190815260200160002060020180548060200260200160405190810160405280929190818152602001828054801562000c5657602002820191906000526020600020905b8160009054906101000a900473ffffffffffffffffffffffffffffffffffffffff1673ffffffffffffffffffffffffffffffffffffffff168152602001906001019080831162000c0b575b50505050509050919050565b6003818154811062000c7357600080fd5b906000526020600020016000915054906101000a900473ffffffffffffffffffffffffffffffffffffffff1681565b6008818154811062000cb357600080fd5b906000526020600020016000915054906101000a900473ffffffffffffffffffffffffffffffffffffffff1681565b60606000808373ffffffffffffffffffffffffffffffffffffffff1673ffffffffffffffffffffffffffffffffffffffff16815260200190815260200160002060010180548060200260200160405190810160405280929190818152602001828054801562000da757602002820191906000526020600020905b8160009054906101000a900473ffffffffffffffffffffffffffffffffffffffff1673ffffffffffffffffffffffffffffffffffffffff168152602001906001019080831162000d5c575b50505050509050919050565b60045481565b60008190508073ffffffffffffffffffffffffffffffffffffffff16632d398fa66040518163ffffffff1660e01b81526004016020604051808303816000875af115801562000e0c573d6000803e3d6000fd5b505050506040513d601f19601f8201168201806040525081019062000e32919062002d33565b5062000e3f8383620018f3565b62000ebc8173ffffffffffffffffffffffffffffffffffffffff16633b1bebd16040518163ffffffff1660e01b8152600401602060405180830381865afa15801562000e8f573d6000803e3d6000fd5b505050506040513d601f19601f8201168201806040525081019062000eb591906200296e565b8362001cb0565b505050565b6060600660008373ffffffffffffffffffffffffffffffffffffffff1673ffffffffffffffffffffffffffffffffffffffff16815260200190815260200160002060030180548060200260200160405190810160405280929190818152602001828054801562000f8757602002820191906000526020600020905b8160009054906101000a900473ffffffffffffffffffffffffffffffffffffffff1673ffffffffffffffffffffffffffffffffffffffff168152602001906001019080831162000f3c575b50505050509050919050565b6001818154811062000fa457600080fd5b906000526020600020016000915054906101000a900473ffffffffffffffffffffffffffffffffffffffff1681565b60066020528060005260406000206000915090508060000154905081565b60025481565b6060600660008373ffffffffffffffffffffffffffffffffffffffff1673ffffffffffffffffffffffffffffffffffffffff168152602001908152602001600020600101805480602002602001604051908101604052809291908181526020018280548015620010bd57602002820191906000526020600020905b8160009054906101000a900473ffffffffffffffffffffffffffffffffffffffff1673ffffffffffffffffffffffffffffffffffffffff168152602001906001019080831162001072575b50505050509050919050565b60006020528060005260406000206000915090508060000154905081565b6060600083101562001130576040517f08c379a0000000000000000000000000000000000000000000000000000000008152600401620011279062002b4d565b60405180910390fd5b6001805490508211156200117b576040517f08c379a0000000000000000000000000000000000000000000000000000000008152600401620011729062002be5565b60405180910390fd5b600083836200118b919062002c36565b67ffffffffffffffff811115620011a757620011a66200260f565b5b604051908082528060200260200182016040528015620011d65781602001602082028036833780820191505090505b50905060008490505b83811015620012905760018181548110620011ff57620011fe62002c71565b5b9060005260206000200160009054906101000a900473ffffffffffffffffffffffffffffffffffffffff1682828151811062001240576200123f62002c71565b5b602002602001019073ffffffffffffffffffffffffffffffffffffffff16908173ffffffffffffffffffffffffffffffffffffffff16815250508080620012879062002ca0565b915050620011df565b508091505092915050565b60606000808373ffffffffffffffffffffffffffffffffffffffff1673ffffffffffffffffffffffffffffffffffffffff1681526020019081526020016000206002018054806020026020016040519081016040528092919081815260200182805480156200136057602002820191906000526020600020905b8160009054906101000a900473ffffffffffffffffffffffffffffffffffffffff1673ffffffffffffffffffffffffffffffffffffffff168152602001906001019080831162001315575b50505050509050919050565b60075481565b60008190508073ffffffffffffffffffffffffffffffffffffffff1663b4fedc116040518163ffffffff1660e01b81526004016020604051808303816000875af1158015620013c5573d6000803e3d6000fd5b505050506040513d601f19601f82011682018060405250810190620013eb919062002d33565b50620013f88383620018f3565b620014758173ffffffffffffffffffffffffffffffffffffffff16633b1bebd16040518163ffffffff1660e01b8152600401602060405180830381865afa15801562001448573d6000803e3d6000fd5b505050506040513d601f19601f820116820180604052508101906200146e91906200296e565b8362001cb0565b505050565b60055481565b60008060003373ffffffffffffffffffffffffffffffffffffffff1673ffffffffffffffffffffffffffffffffffffffff168152602001908152602001600020600001541415620015495760026000815480929190620014e09062002ca0565b91905055506001339080600181540180825580915050600190039060005260206000200160009091909190916101000a81548173ffffffffffffffffffffffffffffffffffffffff021916908373ffffffffffffffffffffffffffffffffffffffff1602179055505b6000600660008673ffffffffffffffffffffffffffffffffffffffff1673ffffffffffffffffffffffffffffffffffffffff168152602001908152602001600020600001541415620016135760076000815480929190620015aa9062002ca0565b91905055506008849080600181540180825580915050600190039060005260206000200160009091909190916101000a81548173ffffffffffffffffffffffffffffffffffffffff021916908373ffffffffffffffffffffffffffffffffffffffff1602179055505b6000343386868686346040516200162a90620022f2565b6200163b9695949392919062002e52565b6040518091039082f090508015801562001659573d6000803e3d6000fd5b50905060046000815480929190620016719062002ca0565b91905055506003819080600181540180825580915050600190039060005260206000200160009091909190916101000a81548173ffffffffffffffffffffffffffffffffffffffff021916908373ffffffffffffffffffffffffffffffffffffffff1602179055503460056000828254620016ed919062002ecd565b925050819055506000803373ffffffffffffffffffffffffffffffffffffffff1673ffffffffffffffffffffffffffffffffffffffff1681526020019081526020016000206000016000815480929190620017489062002ca0565b91905055506000803373ffffffffffffffffffffffffffffffffffffffff1673ffffffffffffffffffffffffffffffffffffffff168152602001908152602001600020600101819080600181540180825580915050600190039060005260206000200160009091909190916101000a81548173ffffffffffffffffffffffffffffffffffffffff021916908373ffffffffffffffffffffffffffffffffffffffff160217905550600660008673ffffffffffffffffffffffffffffffffffffffff1673ffffffffffffffffffffffffffffffffffffffff1681526020019081526020016000206000016000815480929190620018449062002ca0565b9190505550600660008673ffffffffffffffffffffffffffffffffffffffff1673ffffffffffffffffffffffffffffffffffffffff168152602001908152602001600020600101819080600181540180825580915050600190039060005260206000200160009091909190916101000a81548173ffffffffffffffffffffffffffffffffffffffff021916908373ffffffffffffffffffffffffffffffffffffffff1602179055505050505050565b60006200190183836200206e565b905060008060008573ffffffffffffffffffffffffffffffffffffffff1673ffffffffffffffffffffffffffffffffffffffff16815260200190815260200160002060010180549050905060008290505b60018262001961919062002c36565b81101562001aac576000808673ffffffffffffffffffffffffffffffffffffffff1673ffffffffffffffffffffffffffffffffffffffff168152602001908152602001600020600101600182620019b9919062002ecd565b81548110620019cd57620019cc62002c71565b5b9060005260206000200160009054906101000a900473ffffffffffffffffffffffffffffffffffffffff166000808773ffffffffffffffffffffffffffffffffffffffff1673ffffffffffffffffffffffffffffffffffffffff168152602001908152602001600020600101828154811062001a4e5762001a4d62002c71565b5b9060005260206000200160006101000a81548173ffffffffffffffffffffffffffffffffffffffff021916908373ffffffffffffffffffffffffffffffffffffffff160217905550808062001aa39062002ca0565b91505062001952565b506000808573ffffffffffffffffffffffffffffffffffffffff1673ffffffffffffffffffffffffffffffffffffffff1681526020019081526020016000206002016000808673ffffffffffffffffffffffffffffffffffffffff1673ffffffffffffffffffffffffffffffffffffffff16815260200190815260200160002060010160016000808873ffffffffffffffffffffffffffffffffffffffff1673ffffffffffffffffffffffffffffffffffffffff1681526020019081526020016000206001018054905062001b82919062002c36565b8154811062001b965762001b9562002c71565b5b9060005260206000200160009054906101000a900473ffffffffffffffffffffffffffffffffffffffff169080600181540180825580915050600190039060005260206000200160009091909190916101000a81548173ffffffffffffffffffffffffffffffffffffffff021916908373ffffffffffffffffffffffffffffffffffffffff1602179055506000808573ffffffffffffffffffffffffffffffffffffffff1673ffffffffffffffffffffffffffffffffffffffff16815260200190815260200160002060010180548062001c755762001c7462002f2a565b5b6001900381819060005260206000200160006101000a81549073ffffffffffffffffffffffffffffffffffffffff0219169055905550505050565b600062001cbe8383620021a8565b905060008190505b6001600660008673ffffffffffffffffffffffffffffffffffffffff1673ffffffffffffffffffffffffffffffffffffffff1681526020019081526020016000206001018054905062001d1a919062002c36565b81101562001e6757600660008573ffffffffffffffffffffffffffffffffffffffff1673ffffffffffffffffffffffffffffffffffffffff16815260200190815260200160002060010160018262001d73919062002ecd565b8154811062001d875762001d8662002c71565b5b9060005260206000200160009054906101000a900473ffffffffffffffffffffffffffffffffffffffff16600660008673ffffffffffffffffffffffffffffffffffffffff1673ffffffffffffffffffffffffffffffffffffffff168152602001908152602001600020600101828154811062001e095762001e0862002c71565b5b9060005260206000200160006101000a81548173ffffffffffffffffffffffffffffffffffffffff021916908373ffffffffffffffffffffffffffffffffffffffff160217905550808062001e5e9062002ca0565b91505062001cc6565b50600660008473ffffffffffffffffffffffffffffffffffffffff1673ffffffffffffffffffffffffffffffffffffffff168152602001908152602001600020600201600660008573ffffffffffffffffffffffffffffffffffffffff1673ffffffffffffffffffffffffffffffffffffffff1681526020019081526020016000206001016001600660008773ffffffffffffffffffffffffffffffffffffffff1673ffffffffffffffffffffffffffffffffffffffff1681526020019081526020016000206001018054905062001f40919062002c36565b8154811062001f545762001f5362002c71565b5b9060005260206000200160009054906101000a900473ffffffffffffffffffffffffffffffffffffffff169080600181540180825580915050600190039060005260206000200160009091909190916101000a81548173ffffffffffffffffffffffffffffffffffffffff021916908373ffffffffffffffffffffffffffffffffffffffff160217905550600660008473ffffffffffffffffffffffffffffffffffffffff1673ffffffffffffffffffffffffffffffffffffffff16815260200190815260200160002060010180548062002034576200203362002f2a565b5b6001900381819060005260206000200160006101000a81549073ffffffffffffffffffffffffffffffffffffffff02191690559055505050565b60008060005b60016000808773ffffffffffffffffffffffffffffffffffffffff1673ffffffffffffffffffffffffffffffffffffffff16815260200190815260200160002060010180549050620020c7919062002c36565b81116200219d578373ffffffffffffffffffffffffffffffffffffffff166000808773ffffffffffffffffffffffffffffffffffffffff1673ffffffffffffffffffffffffffffffffffffffff16815260200190815260200160002060010182815481106200213b576200213a62002c71565b5b9060005260206000200160009054906101000a900473ffffffffffffffffffffffffffffffffffffffff1673ffffffffffffffffffffffffffffffffffffffff16141562002187578091505b8080620021949062002ca0565b91505062002074565b508091505092915050565b60008060005b6001600660008773ffffffffffffffffffffffffffffffffffffffff1673ffffffffffffffffffffffffffffffffffffffff1681526020019081526020016000206001018054905062002202919062002c36565b8111620022d9578373ffffffffffffffffffffffffffffffffffffffff16600660008773ffffffffffffffffffffffffffffffffffffffff1673ffffffffffffffffffffffffffffffffffffffff168152602001908152602001600020600101828154811062002277576200227662002c71565b5b9060005260206000200160009054906101000a900473ffffffffffffffffffffffffffffffffffffffff1673ffffffffffffffffffffffffffffffffffffffff161415620022c3578091505b8080620022d09062002ca0565b915050620021ae565b508091505092915050565b6103da8062002f5a83390190565b61119c806200333483390190565b6000604051905090565b600080fd5b600080fd5b600073ffffffffffffffffffffffffffffffffffffffff82169050919050565b6000620023418262002314565b9050919050565b620023538162002334565b81146200235f57600080fd5b50565b600081359050620023738162002348565b92915050565b600080604083850312156200239357620023926200230a565b5b6000620023a38582860162002362565b9250506020620023b68582860162002362565b9150509250929050565b6000819050919050565b620023d581620023c0565b8114620023e157600080fd5b50565b600081359050620023f581620023ca565b92915050565b600080604083850312156200241557620024146200230a565b5b60006200242585828601620023e4565b92505060206200243885828601620023e4565b9150509250929050565b600081519050919050565b600082825260208201905092915050565b6000819050602082019050919050565b620024798162002334565b82525050565b60006200248d83836200246e565b60208301905092915050565b6000602082019050919050565b6000620024b38262002442565b620024bf81856200244d565b9350620024cc836200245e565b8060005b8381101562002503578151620024e788826200247f565b9750620024f48362002499565b925050600181019050620024d0565b5085935050505092915050565b600060208201905081810360008301526200252c8184620024a6565b905092915050565b6000602082840312156200254d576200254c6200230a565b5b60006200255d8482850162002362565b91505092915050565b6000602082840312156200257f576200257e6200230a565b5b60006200258f84828501620023e4565b91505092915050565b620025a38162002334565b82525050565b6000602082019050620025c0600083018462002598565b92915050565b620025d181620023c0565b82525050565b6000602082019050620025ee6000830184620025c6565b92915050565b600080fd5b600080fd5b6000601f19601f8301169050919050565b7f4e487b7100000000000000000000000000000000000000000000000000000000600052604160045260246000fd5b6200264982620025fe565b810181811067ffffffffffffffff821117156200266b576200266a6200260f565b5b80604052505050565b60006200268062002300565b90506200268e82826200263e565b919050565b600067ffffffffffffffff821115620026b157620026b06200260f565b5b620026bc82620025fe565b9050602081019050919050565b82818337600083830152505050565b6000620026ef620026e98462002693565b62002674565b9050828152602081018484840111156200270e576200270d620025f9565b5b6200271b848285620026c9565b509392505050565b600082601f8301126200273b576200273a620025f4565b5b81356200274d848260208601620026d8565b91505092915050565b6000620027638262002314565b9050919050565b620027758162002756565b81146200278157600080fd5b50565b60008135905062002795816200276a565b92915050565b60008060008060808587031215620027b857620027b76200230a565b5b6000620027c88782880162002362565b945050602085013567ffffffffffffffff811115620027ec57620027eb6200230f565b5b620027fa8782880162002723565b935050604085013567ffffffffffffffff8111156200281e576200281d6200230f565b5b6200282c8782880162002723565b92505060606200283f8782880162002784565b91505092959194509250565b7f4e487b7100000000000000000000000000000000000000000000000000000000600052602160045260246000fd5b600381106200288857600080fd5b50565b6000815190506200289c816200287a565b92915050565b600060208284031215620028bb57620028ba6200230a565b5b6000620028cb848285016200288b565b91505092915050565b600082825260208201905092915050565b7f436f6e747261637420737461747573206d757374206265206f70656e00000000600082015250565b60006200291d601c83620028d4565b91506200292a82620028e5565b602082019050919050565b6000602082019050818103600083015262002950816200290e565b9050919050565b600081519050620029688162002348565b92915050565b6000602082840312156200298757620029866200230a565b5b6000620029978482850162002957565b91505092915050565b7f436f6e74726163742072656665726565206d75737420657175616c207265717560008201527f6573746564207265666572656500000000000000000000000000000000000000602082015250565b6000620029fe602d83620028d4565b915062002a0b82620029a0565b604082019050919050565b6000602082019050818103600083015262002a3181620029ef565b9050919050565b7f4f6e6c792063726561746f72206f6620636f6e74726163742063616e2072657160008201527f7565737420636f6d706c6574696f6e0000000000000000000000000000000000602082015250565b600062002a96602f83620028d4565b915062002aa38262002a38565b604082019050919050565b6000602082019050818103600083015262002ac98162002a87565b9050919050565b600060408201905062002ae7600083018562002598565b62002af6602083018462002598565b9392505050565b7f537461727420696e6465782063616e6e6f74206265206e656761746976650000600082015250565b600062002b35601e83620028d4565b915062002b428262002afd565b602082019050919050565b6000602082019050818103600083015262002b688162002b26565b9050919050565b7f456e6420696e646578206578636565647320757365722061646472657373657360008201527f206c656e67746800000000000000000000000000000000000000000000000000602082015250565b600062002bcd602783620028d4565b915062002bda8262002b6f565b604082019050919050565b6000602082019050818103600083015262002c008162002bbe565b9050919050565b7f4e487b7100000000000000000000000000000000000000000000000000000000600052601160045260246000fd5b600062002c4382620023c0565b915062002c5083620023c0565b92508282101562002c665762002c6562002c07565b5b828203905092915050565b7f4e487b7100000000000000000000000000000000000000000000000000000000600052603260045260246000fd5b600062002cad82620023c0565b91507fffffffffffffffffffffffffffffffffffffffffffffffffffffffffffffffff82141562002ce35762002ce262002c07565b5b600182019050919050565b600062002cfb8262002334565b9050919050565b62002d0d8162002cee565b811462002d1957600080fd5b50565b60008151905062002d2d8162002d02565b92915050565b60006020828403121562002d4c5762002d4b6200230a565b5b600062002d5c8482850162002d1c565b91505092915050565b600081519050919050565b60005b8381101562002d9057808201518184015260208101905062002d73565b8381111562002da0576000848401525b50505050565b600062002db38262002d65565b62002dbf8185620028d4565b935062002dd181856020860162002d70565b62002ddc81620025fe565b840191505092915050565b6000819050919050565b600062002e1262002e0c62002e068462002314565b62002de7565b62002314565b9050919050565b600062002e268262002df1565b9050919050565b600062002e3a8262002e19565b9050919050565b62002e4c8162002e2d565b82525050565b600060c08201905062002e69600083018962002598565b62002e78602083018862002598565b818103604083015262002e8c818762002da6565b9050818103606083015262002ea2818662002da6565b905062002eb3608083018562002e41565b62002ec260a0830184620025c6565b979650505050505050565b600062002eda82620023c0565b915062002ee783620023c0565b9250827fffffffffffffffffffffffffffffffffffffffffffffffffffffffffffffffff0382111562002f1f5762002f1e62002c07565b5b828201905092915050565b7f4e487b7100000000000000000000000000000000000000000000000000000000600052603160045260246000fdfe60806040526040516103da3803806103da8339818101604052810190610025919061013b565b816000806101000a81548173ffffffffffffffffffffffffffffffffffffffff021916908373ffffffffffffffffffffffffffffffffffffffff16021790555080600160006101000a81548173ffffffffffffffffffffffffffffffffffffffff021916908373ffffffffffffffffffffffffffffffffffffffff1602179055506000600160146101000a81548160ff021916908360018111156100cc576100cb61017b565b5b021790555050506101aa565b600080fd5b600073ffffffffffffffffffffffffffffffffffffffff82169050919050565b6000610108826100dd565b9050919050565b610118816100fd565b811461012357600080fd5b50565b6000815190506101358161010f565b92915050565b60008060408385031215610152576101516100d8565b5b600061016085828601610126565b925050602061017185828601610126565b9150509250929050565b7f4e487b7100000000000000000000000000000000000000000000000000000000600052602160045260246000fd5b610221806101b96000396000f3fe608060405234801561001057600080fd5b50600436106100415760003560e01c8063200d2ed2146100465780633c490174146100645780634f8632ba14610082575b600080fd5b61004e6100a0565b60405161005b9190610174565b60405180910390f35b61006c6100b3565b60405161007991906101d0565b60405180910390f35b61008a6100d9565b60405161009791906101d0565b60405180910390f35b600160149054906101000a900460ff1681565b600160009054906101000a900473ffffffffffffffffffffffffffffffffffffffff1681565b60008054906101000a900473ffffffffffffffffffffffffffffffffffffffff1681565b7f4e487b7100000000000000000000000000000000000000000000000000000000600052602160045260246000fd5b6002811061013d5761013c6100fd565b5b50565b600081905061014e8261012c565b919050565b600061015e82610140565b9050919050565b61016e81610153565b82525050565b60006020820190506101896000830184610165565b92915050565b600073ffffffffffffffffffffffffffffffffffffffff82169050919050565b60006101ba8261018f565b9050919050565b6101ca816101af565b82525050565b60006020820190506101e560008301846101c1565b9291505056fea2646970667358221220126409edecd4573af344e065b32ba98cf8f2c0f3b4887cd190a240209fed8d4f64736f6c634300080c003360806040526040516200119c3803806200119c83398181016040528101906200002991906200044b565b856000806101000a81548173ffffffffffffffffffffffffffffffffffffffff021916908373ffffffffffffffffffffffffffffffffffffffff16021790555084600160006101000a81548173ffffffffffffffffffffffffffffffffffffffff021916908373ffffffffffffffffffffffffffffffffffffffff1602179055508360029080519060200190620000c29291906200015e565b508260039080519060200190620000db9291906200015e565b5081600460006101000a81548173ffffffffffffffffffffffffffffffffffffffff021916908373ffffffffffffffffffffffffffffffffffffffff160217905550806005819055506000600660006101000a81548160ff021916908360028111156200014d576200014c62000525565b5b0217905550505050505050620005b9565b8280546200016c9062000583565b90600052602060002090601f016020900481019282620001905760008555620001dc565b82601f10620001ab57805160ff1916838001178555620001dc565b82800160010185558215620001dc579182015b82811115620001db578251825591602001919060010190620001be565b5b509050620001eb9190620001ef565b5090565b5b808211156200020a576000816000905550600101620001f0565b5090565b6000604051905090565b600080fd5b600080fd5b600073ffffffffffffffffffffffffffffffffffffffff82169050919050565b60006200024f8262000222565b9050919050565b620002618162000242565b81146200026d57600080fd5b50565b600081519050620002818162000256565b92915050565b600080fd5b600080fd5b6000601f19601f8301169050919050565b7f4e487b7100000000000000000000000000000000000000000000000000000000600052604160045260246000fd5b620002dc8262000291565b810181811067ffffffffffffffff82111715620002fe57620002fd620002a2565b5b80604052505050565b6000620003136200020e565b9050620003218282620002d1565b919050565b600067ffffffffffffffff821115620003445762000343620002a2565b5b6200034f8262000291565b9050602081019050919050565b60005b838110156200037c5780820151818401526020810190506200035f565b838111156200038c576000848401525b50505050565b6000620003a9620003a38462000326565b62000307565b905082815260208101848484011115620003c857620003c76200028c565b5b620003d58482856200035c565b509392505050565b600082601f830112620003f557620003f462000287565b5b81516200040784826020860162000392565b91505092915050565b6000819050919050565b620004258162000410565b81146200043157600080fd5b50565b60008151905062000445816200041a565b92915050565b60008060008060008060c087890312156200046b576200046a62000218565b5b60006200047b89828a0162000270565b96505060206200048e89828a0162000270565b955050604087015167ffffffffffffffff811115620004b257620004b16200021d565b5b620004c089828a01620003dd565b945050606087015167ffffffffffffffff811115620004e457620004e36200021d565b5b620004f289828a01620003dd565b93505060806200050589828a0162000270565b92505060a06200051889828a0162000434565b9150509295509295509295565b7f4e487b7100000000000000000000000000000000000000000000000000000000600052602160045260246000fd5b7f4e487b7100000000000000000000000000000000000000000000000000000000600052602260045260246000fd5b600060028204905060018216806200059c57607f821691505b60208210811415620005b357620005b262000554565b5b50919050565b610bd380620005c96000396000f3fe6080604052600436106100865760003560e01c80633b1bebd1116100595780633b1bebd11461012a5780634177fe51146101555780637284e41614610180578063aa8c217c146101ab578063b4fedc11146101d657610086565b806302d05d3f1461008b57806306fdde03146100b6578063200d2ed2146100e15780632d398fa61461010c575b600080fd5b34801561009757600080fd5b506100a06101f4565b6040516100ad9190610770565b60405180910390f35b3480156100c257600080fd5b506100cb610218565b6040516100d89190610824565b60405180910390f35b3480156100ed57600080fd5b506100f66102a6565b60405161010391906108bd565b60405180910390f35b6101146102b9565b6040516101219190610937565b60405180910390f35b34801561013657600080fd5b5061013f6104b0565b60405161014c9190610770565b60405180910390f35b34801561016157600080fd5b5061016a6104d6565b6040516101779190610770565b60405180910390f35b34801561018c57600080fd5b506101956104fc565b6040516101a29190610824565b60405180910390f35b3480156101b757600080fd5b506101c061058a565b6040516101cd919061096b565b60405180910390f35b6101de610590565b6040516101eb9190610937565b60405180910390f35b60008054906101000a900473ffffffffffffffffffffffffffffffffffffffff1681565b60028054610225906109b5565b80601f0160208091040260200160405190810160405280929190818152602001828054610251906109b5565b801561029e5780601f106102735761010080835404028352916020019161029e565b820191906000526020600020905b81548152906001019060200180831161028157829003601f168201915b505050505081565b600660009054906101000a900460ff1681565b60008060028111156102ce576102cd610846565b5b600660009054906101000a900460ff1660028111156102f0576102ef610846565b5b14610330576040517f08c379a000000000000000000000000000000000000000000000000000000000815260040161032790610a59565b60405180910390fd5b600160009054906101000a900473ffffffffffffffffffffffffffffffffffffffff1673ffffffffffffffffffffffffffffffffffffffff163273ffffffffffffffffffffffffffffffffffffffff1614806103d7575060008054906101000a900473ffffffffffffffffffffffffffffffffffffffff1673ffffffffffffffffffffffffffffffffffffffff163273ffffffffffffffffffffffffffffffffffffffff16145b610416576040517f08c379a000000000000000000000000000000000000000000000000000000000815260040161040d90610aeb565b60405180910390fd5b600460009054906101000a900473ffffffffffffffffffffffffffffffffffffffff1673ffffffffffffffffffffffffffffffffffffffff166108fc479081150290604051600060405180830381858888f1935050505015801561047e573d6000803e3d6000fd5b506002600660006101000a81548160ff021916908360028111156104a5576104a4610846565b5b021790555030905090565b600160009054906101000a900473ffffffffffffffffffffffffffffffffffffffff1681565b600460009054906101000a900473ffffffffffffffffffffffffffffffffffffffff1681565b60038054610509906109b5565b80601f0160208091040260200160405190810160405280929190818152602001828054610535906109b5565b80156105825780601f1061055757610100808354040283529160200191610582565b820191906000526020600020905b81548152906001019060200180831161056557829003601f168201915b505050505081565b60055481565b60008060028111156105a5576105a4610846565b5b600660009054906101000a900460ff1660028111156105c7576105c6610846565b5b14610607576040517f08c379a00000000000000000000000000000000000000000000000000000000081526004016105fe90610a59565b60405180910390fd5b600160009054906101000a900473ffffffffffffffffffffffffffffffffffffffff1673ffffffffffffffffffffffffffffffffffffffff163273ffffffffffffffffffffffffffffffffffffffff1614610697576040517f08c379a000000000000000000000000000000000000000000000000000000000815260040161068e90610b7d565b60405180910390fd5b60008054906101000a900473ffffffffffffffffffffffffffffffffffffffff1673ffffffffffffffffffffffffffffffffffffffff166108fc479081150290604051600060405180830381858888f193505050501580156106fd573d6000803e3d6000fd5b506001600660006101000a81548160ff0219169083600281111561072457610723610846565b5b021790555030905090565b600073ffffffffffffffffffffffffffffffffffffffff82169050919050565b600061075a8261072f565b9050919050565b61076a8161074f565b82525050565b60006020820190506107856000830184610761565b92915050565b600081519050919050565b600082825260208201905092915050565b60005b838110156107c55780820151818401526020810190506107aa565b838111156107d4576000848401525b50505050565b6000601f19601f8301169050919050565b60006107f68261078b565b6108008185610796565b93506108108185602086016107a7565b610819816107da565b840191505092915050565b6000602082019050818103600083015261083e81846107eb565b905092915050565b7f4e487b7100000000000000000000000000000000000000000000000000000000600052602160045260246000fd5b6003811061088657610885610846565b5b50565b600081905061089782610875565b919050565b60006108a782610889565b9050919050565b6108b78161089c565b82525050565b60006020820190506108d260008301846108ae565b92915050565b6000819050919050565b60006108fd6108f86108f38461072f565b6108d8565b61072f565b9050919050565b600061090f826108e2565b9050919050565b600061092182610904565b9050919050565b61093181610916565b82525050565b600060208201905061094c6000830184610928565b92915050565b6000819050919050565b61096581610952565b82525050565b6000602082019050610980600083018461095c565b92915050565b7f4e487b7100000000000000000000000000000000000000000000000000000000600052602260045260246000fd5b600060028204905060018216806109cd57607f821691505b602082108114156109e1576109e0610986565b5b50919050565b7f436f6e747261637420737461747573206973206e6f7420657175616c20746f2060008201527f6f70656e00000000000000000000000000000000000000000000000000000000602082015250565b6000610a43602483610796565b9150610a4e826109e7565b604082019050919050565b60006020820190508181036000830152610a7281610a36565b9050919050565b7f4f6e6c792072656665726565206f722063726561746f722063616e206661696c60008201527f20636f6e74726163740000000000000000000000000000000000000000000000602082015250565b6000610ad5602983610796565b9150610ae082610a79565b604082019050919050565b60006020820190508181036000830152610b0481610ac8565b9050919050565b7f4f6e6c7920726566657265652063616e20636f6d706c657465206120636f6e7460008201527f7261637400000000000000000000000000000000000000000000000000000000602082015250565b6000610b67602483610796565b9150610b7282610b0b565b604082019050919050565b60006020820190508181036000830152610b9681610b5a565b905091905056fea2646970667358221220c20c9a737f796a1a50e73b1d2c19a0dabc97d1ca8d9fdfb7f0c9745f913ebfc164736f6c634300080c0033a2646970667358221220c37cc71a15a2b86b9c2a2f112fd54c25d4bb5d50df7c81313fe2b890b4ae5b8564736f6c634300080c0033","opcodes":"PUSH1 0x80 PUSH1 0x40 MSTORE CALLVALUE DUP1 ISZERO PUSH2 0x10 JUMPI PUSH1 0x0 DUP1 REVERT JUMPDEST POP PUSH2 0x4505 DUP1 PUSH2 0x20 PUSH1 0x0 CODECOPY PUSH1 0x0 RETURN INVALID PUSH1 0x80 PUSH1 0x40 MSTORE PUSH1 0x4 CALLDATASIZE LT PUSH3 0x13A JUMPI PUSH1 0x0 CALLDATALOAD PUSH1 0xE0 SHR DUP1 PUSH4 0x64A60B47 GT PUSH3 0xAF JUMPI DUP1 PUSH4 0xB24E67D0 GT PUSH3 0x6D JUMPI DUP1 PUSH4 0xB24E67D0 EQ PUSH3 0x4E7 JUMPI DUP1 PUSH4 0xB3B6633E EQ PUSH3 0x52B JUMPI DUP1 PUSH4 0xCC785850 EQ PUSH3 0x55B JUMPI DUP1 PUSH4 0xDC0E0C13 EQ PUSH3 0x589 JUMPI DUP1 PUSH4 0xE436E826 EQ PUSH3 0x5B9 JUMPI PUSH3 0x13A JUMP JUMPDEST DUP1 PUSH4 0x64A60B47 EQ PUSH3 0x3A7 JUMPI DUP1 PUSH4 0x75CE46A7 EQ PUSH3 0x3EB JUMPI DUP1 PUSH4 0x9051E234 EQ PUSH3 0x41B JUMPI DUP1 PUSH4 0xA87430BA EQ PUSH3 0x45F JUMPI DUP1 PUSH4 0xA908F4FA EQ PUSH3 0x4A3 JUMPI PUSH3 0x13A JUMP JUMPDEST DUP1 PUSH4 0x442A7BC7 GT PUSH3 0xFD JUMPI DUP1 PUSH4 0x442A7BC7 EQ PUSH3 0x27D JUMPI DUP1 PUSH4 0x4841A885 EQ PUSH3 0x2C1 JUMPI DUP1 PUSH4 0x4AC0B82D EQ PUSH3 0x2F1 JUMPI DUP1 PUSH4 0x4EA34671 EQ PUSH3 0x31F JUMPI DUP1 PUSH4 0x502C9BD5 EQ PUSH3 0x363 JUMPI PUSH3 0x13A JUMP JUMPDEST DUP1 PUSH4 0x1AF65E7 EQ PUSH3 0x13F JUMPI DUP1 PUSH4 0xE865751 EQ PUSH3 0x16D JUMPI DUP1 PUSH4 0x19EE8BD4 EQ PUSH3 0x1B1 JUMPI DUP1 PUSH4 0x38DB44BC EQ PUSH3 0x1F5 JUMPI DUP1 PUSH4 0x38FB42FD EQ PUSH3 0x239 JUMPI JUMPDEST PUSH1 0x0 DUP1 REVERT JUMPDEST CALLVALUE DUP1 ISZERO PUSH3 0x14C JUMPI PUSH1 0x0 DUP1 REVERT JUMPDEST POP PUSH3 0x16B PUSH1 0x4 DUP1 CALLDATASIZE SUB DUP2 ADD SWAP1 PUSH3 0x165 SWAP2 SWAP1 PUSH3 0x2379 JUMP JUMPDEST PUSH3 0x5D9 JUMP JUMPDEST STOP JUMPDEST CALLVALUE DUP1 ISZERO PUSH3 0x17A JUMPI PUSH1 0x0 DUP1 REVERT JUMPDEST POP PUSH3 0x199 PUSH1 0x4 DUP1 CALLDATASIZE SUB DUP2 ADD SWAP1 PUSH3 0x193 SWAP2 SWAP1 PUSH3 0x23FB JUMP JUMPDEST PUSH3 0x9DC JUMP JUMPDEST PUSH1 0x40 MLOAD PUSH3 0x1A8 SWAP2 SWAP1 PUSH3 0x2510 JUMP JUMPDEST PUSH1 0x40 MLOAD DUP1 SWAP2 SUB SWAP1 RETURN JUMPDEST CALLVALUE DUP1 ISZERO PUSH3 0x1BE JUMPI PUSH1 0x0 DUP1 REVERT JUMPDEST POP PUSH3 0x1DD PUSH1 0x4 DUP1 CALLDATASIZE SUB DUP2 ADD SWAP1 PUSH3 0x1D7 SWAP2 SWAP1 PUSH3 0x2534 JUMP JUMPDEST PUSH3 0xB90 JUMP JUMPDEST PUSH1 0x40 MLOAD PUSH3 0x1EC SWAP2 SWAP1 PUSH3 0x2510 JUMP JUMPDEST PUSH1 0x40 MLOAD DUP1 SWAP2 SUB SWAP1 RETURN JUMPDEST CALLVALUE DUP1 ISZERO PUSH3 0x202 JUMPI PUSH1 0x0 DUP1 REVERT JUMPDEST POP PUSH3 0x221 PUSH1 0x4 DUP1 CALLDATASIZE SUB DUP2 ADD SWAP1 PUSH3 0x21B SWAP2 SWAP1 PUSH3 0x2566 JUMP JUMPDEST PUSH3 0xC62 JUMP JUMPDEST PUSH1 0x40 MLOAD PUSH3 0x230 SWAP2 SWAP1 PUSH3 0x25A9 JUMP JUMPDEST PUSH1 0x40 MLOAD DUP1 SWAP2 SUB SWAP1 RETURN JUMPDEST CALLVALUE DUP1 ISZERO PUSH3 0x246 JUMPI PUSH1 0x0 DUP1 REVERT JUMPDEST POP PUSH3 0x265 PUSH1 0x4 DUP1 CALLDATASIZE SUB DUP2 ADD SWAP1 PUSH3 0x25F SWAP2 SWAP1 PUSH3 0x2566 JUMP JUMPDEST PUSH3 0xCA2 JUMP JUMPDEST PUSH1 0x40 MLOAD PUSH3 0x274 SWAP2 SWAP1 PUSH3 0x25A9 JUMP JUMPDEST PUSH1 0x40 MLOAD DUP1 SWAP2 SUB SWAP1 RETURN JUMPDEST CALLVALUE DUP1 ISZERO PUSH3 0x28A JUMPI PUSH1 0x0 DUP1 REVERT JUMPDEST POP PUSH3 0x2A9 PUSH1 0x4 DUP1 CALLDATASIZE SUB DUP2 ADD SWAP1 PUSH3 0x2A3 SWAP2 SWAP1 PUSH3 0x2534 JUMP JUMPDEST PUSH3 0xCE2 JUMP JUMPDEST PUSH1 0x40 MLOAD PUSH3 0x2B8 SWAP2 SWAP1 PUSH3 0x2510 JUMP JUMPDEST PUSH1 0x40 MLOAD DUP1 SWAP2 SUB SWAP1 RETURN JUMPDEST CALLVALUE DUP1 ISZERO PUSH3 0x2CE JUMPI PUSH1 0x0 DUP1 REVERT JUMPDEST POP PUSH3 0x2D9 PUSH3 0xDB3 JUMP JUMPDEST PUSH1 0x40 MLOAD PUSH3 0x2E8 SWAP2 SWAP1 PUSH3 0x25D7 JUMP JUMPDEST PUSH1 0x40 MLOAD DUP1 SWAP2 SUB SWAP1 RETURN JUMPDEST CALLVALUE DUP1 ISZERO PUSH3 0x2FE JUMPI PUSH1 0x0 DUP1 REVERT JUMPDEST POP PUSH3 0x31D PUSH1 0x4 DUP1 CALLDATASIZE SUB DUP2 ADD SWAP1 PUSH3 0x317 SWAP2 SWAP1 PUSH3 0x2379 JUMP JUMPDEST PUSH3 0xDB9 JUMP JUMPDEST STOP JUMPDEST CALLVALUE DUP1 ISZERO PUSH3 0x32C JUMPI PUSH1 0x0 DUP1 REVERT JUMPDEST POP PUSH3 0x34B PUSH1 0x4 DUP1 CALLDATASIZE SUB DUP2 ADD SWAP1 PUSH3 0x345 SWAP2 SWAP1 PUSH3 0x2534 JUMP JUMPDEST PUSH3 0xEC1 JUMP JUMPDEST PUSH1 0x40 MLOAD PUSH3 0x35A SWAP2 SWAP1 PUSH3 0x2510 JUMP JUMPDEST PUSH1 0x40 MLOAD DUP1 SWAP2 SUB SWAP1 RETURN JUMPDEST CALLVALUE DUP1 ISZERO PUSH3 0x370 JUMPI PUSH1 0x0 DUP1 REVERT JUMPDEST POP PUSH3 0x38F PUSH1 0x4 DUP1 CALLDATASIZE SUB DUP2 ADD SWAP1 PUSH3 0x389 SWAP2 SWAP1 PUSH3 0x2566 JUMP JUMPDEST PUSH3 0xF93 JUMP JUMPDEST PUSH1 0x40 MLOAD PUSH3 0x39E SWAP2 SWAP1 PUSH3 0x25A9 JUMP JUMPDEST PUSH1 0x40 MLOAD DUP1 SWAP2 SUB SWAP1 RETURN JUMPDEST CALLVALUE DUP1 ISZERO PUSH3 0x3B4 JUMPI PUSH1 0x0 DUP1 REVERT JUMPDEST POP PUSH3 0x3D3 PUSH1 0x4 DUP1 CALLDATASIZE SUB DUP2 ADD SWAP1 PUSH3 0x3CD SWAP2 SWAP1 PUSH3 0x2534 JUMP JUMPDEST PUSH3 0xFD3 JUMP JUMPDEST PUSH1 0x40 MLOAD PUSH3 0x3E2 SWAP2 SWAP1 PUSH3 0x25D7 JUMP JUMPDEST PUSH1 0x40 MLOAD DUP1 SWAP2 SUB SWAP1 RETURN JUMPDEST CALLVALUE DUP1 ISZERO PUSH3 0x3F8 JUMPI PUSH1 0x0 DUP1 REVERT JUMPDEST POP PUSH3 0x403 PUSH3 0xFF1 JUMP JUMPDEST PUSH1 0x40 MLOAD PUSH3 0x412 SWAP2 SWAP1 PUSH3 0x25D7 JUMP JUMPDEST PUSH1 0x40 MLOAD DUP1 SWAP2 SUB SWAP1 RETURN JUMPDEST CALLVALUE DUP1 ISZERO PUSH3 0x428 JUMPI PUSH1 0x0 DUP1 REVERT JUMPDEST POP PUSH3 0x447 PUSH1 0x4 DUP1 CALLDATASIZE SUB DUP2 ADD SWAP1 PUSH3 0x441 SWAP2 SWAP1 PUSH3 0x2534 JUMP JUMPDEST PUSH3 0xFF7 JUMP JUMPDEST PUSH1 0x40 MLOAD PUSH3 0x456 SWAP2 SWAP1 PUSH3 0x2510 JUMP JUMPDEST PUSH1 0x40 MLOAD DUP1 SWAP2 SUB SWAP1 RETURN JUMPDEST CALLVALUE DUP1 ISZERO PUSH3 0x46C JUMPI PUSH1 0x0 DUP1 REVERT JUMPDEST POP PUSH3 0x48B PUSH1 0x4 DUP1 CALLDATASIZE SUB DUP2 ADD SWAP1 PUSH3 0x485 SWAP2 SWAP1 PUSH3 0x2534 JUMP JUMPDEST PUSH3 0x10C9 JUMP JUMPDEST PUSH1 0x40 MLOAD PUSH3 0x49A SWAP2 SWAP1 PUSH3 0x25D7 JUMP JUMPDEST PUSH1 0x40 MLOAD DUP1 SWAP2 SUB SWAP1 RETURN JUMPDEST CALLVALUE DUP1 ISZERO PUSH3 0x4B0 JUMPI PUSH1 0x0 DUP1 REVERT JUMPDEST POP PUSH3 0x4CF PUSH1 0x4 DUP1 CALLDATASIZE SUB DUP2 ADD SWAP1 PUSH3 0x4C9 SWAP2 SWAP1 PUSH3 0x23FB JUMP JUMPDEST PUSH3 0x10E7 JUMP JUMPDEST PUSH1 0x40 MLOAD PUSH3 0x4DE SWAP2 SWAP1 PUSH3 0x2510 JUMP JUMPDEST PUSH1 0x40 MLOAD DUP1 SWAP2 SUB SWAP1 RETURN JUMPDEST CALLVALUE DUP1 ISZERO PUSH3 0x4F4 JUMPI PUSH1 0x0 DUP1 REVERT JUMPDEST POP PUSH3 0x513 PUSH1 0x4 DUP1 CALLDATASIZE SUB DUP2 ADD SWAP1 PUSH3 0x50D SWAP2 SWAP1 PUSH3 0x2534 JUMP JUMPDEST PUSH3 0x129B JUMP JUMPDEST PUSH1 0x40 MLOAD PUSH3 0x522 SWAP2 SWAP1 PUSH3 0x2510 JUMP JUMPDEST PUSH1 0x40 MLOAD DUP1 SWAP2 SUB SWAP1 RETURN JUMPDEST CALLVALUE DUP1 ISZERO PUSH3 0x538 JUMPI PUSH1 0x0 DUP1 REVERT JUMPDEST POP PUSH3 0x543 PUSH3 0x136C JUMP JUMPDEST PUSH1 0x40 MLOAD PUSH3 0x552 SWAP2 SWAP1 PUSH3 0x25D7 JUMP JUMPDEST PUSH1 0x40 MLOAD DUP1 SWAP2 SUB SWAP1 RETURN JUMPDEST CALLVALUE DUP1 ISZERO PUSH3 0x568 JUMPI PUSH1 0x0 DUP1 REVERT JUMPDEST POP PUSH3 0x587 PUSH1 0x4 DUP1 CALLDATASIZE SUB DUP2 ADD SWAP1 PUSH3 0x581 SWAP2 SWAP1 PUSH3 0x2379 JUMP JUMPDEST PUSH3 0x1372 JUMP JUMPDEST STOP JUMPDEST CALLVALUE DUP1 ISZERO PUSH3 0x596 JUMPI PUSH1 0x0 DUP1 REVERT JUMPDEST POP PUSH3 0x5A1 PUSH3 0x147A JUMP JUMPDEST PUSH1 0x40 MLOAD PUSH3 0x5B0 SWAP2 SWAP1 PUSH3 0x25D7 JUMP JUMPDEST PUSH1 0x40 MLOAD DUP1 SWAP2 SUB SWAP1 RETURN JUMPDEST PUSH3 0x5D7 PUSH1 0x4 DUP1 CALLDATASIZE SUB DUP2 ADD SWAP1 PUSH3 0x5D1 SWAP2 SWAP1 PUSH3 0x279B JUMP JUMPDEST PUSH3 0x1480 JUMP JUMPDEST STOP JUMPDEST PUSH1 0x0 DUP2 SWAP1 POP PUSH1 0x0 PUSH1 0x2 DUP2 GT ISZERO PUSH3 0x5F5 JUMPI PUSH3 0x5F4 PUSH3 0x284B JUMP JUMPDEST JUMPDEST DUP2 PUSH20 0xFFFFFFFFFFFFFFFFFFFFFFFFFFFFFFFFFFFFFFFF AND PUSH4 0x200D2ED2 PUSH1 0x40 MLOAD DUP2 PUSH4 0xFFFFFFFF AND PUSH1 0xE0 SHL DUP2 MSTORE PUSH1 0x4 ADD PUSH1 0x20 PUSH1 0x40 MLOAD DUP1 DUP4 SUB DUP2 DUP7 GAS STATICCALL ISZERO DUP1 ISZERO PUSH3 0x641 JUMPI RETURNDATASIZE PUSH1 0x0 DUP1 RETURNDATACOPY RETURNDATASIZE PUSH1 0x0 REVERT JUMPDEST POP POP POP POP PUSH1 0x40 MLOAD RETURNDATASIZE PUSH1 0x1F NOT PUSH1 0x1F DUP3 ADD AND DUP3 ADD DUP1 PUSH1 0x40 MSTORE POP DUP2 ADD SWAP1 PUSH3 0x667 SWAP2 SWAP1 PUSH3 0x28A2 JUMP JUMPDEST PUSH1 0x2 DUP2 GT ISZERO PUSH3 0x67C JUMPI PUSH3 0x67B PUSH3 0x284B JUMP JUMPDEST JUMPDEST EQ PUSH3 0x6BF JUMPI PUSH1 0x40 MLOAD PUSH32 0x8C379A000000000000000000000000000000000000000000000000000000000 DUP2 MSTORE PUSH1 0x4 ADD PUSH3 0x6B6 SWAP1 PUSH3 0x2935 JUMP JUMPDEST PUSH1 0x40 MLOAD DUP1 SWAP2 SUB SWAP1 REVERT JUMPDEST DUP3 PUSH20 0xFFFFFFFFFFFFFFFFFFFFFFFFFFFFFFFFFFFFFFFF AND DUP2 PUSH20 0xFFFFFFFFFFFFFFFFFFFFFFFFFFFFFFFFFFFFFFFF AND PUSH4 0x3B1BEBD1 PUSH1 0x40 MLOAD DUP2 PUSH4 0xFFFFFFFF AND PUSH1 0xE0 SHL DUP2 MSTORE PUSH1 0x4 ADD PUSH1 0x20 PUSH1 0x40 MLOAD DUP1 DUP4 SUB DUP2 DUP7 GAS STATICCALL ISZERO DUP1 ISZERO PUSH3 0x722 JUMPI RETURNDATASIZE PUSH1 0x0 DUP1 RETURNDATACOPY RETURNDATASIZE PUSH1 0x0 REVERT JUMPDEST POP POP POP POP PUSH1 0x40 MLOAD RETURNDATASIZE PUSH1 0x1F NOT PUSH1 0x1F DUP3 ADD AND DUP3 ADD DUP1 PUSH1 0x40 MSTORE POP DUP2 ADD SWAP1 PUSH3 0x748 SWAP2 SWAP1 PUSH3 0x296E JUMP JUMPDEST PUSH20 0xFFFFFFFFFFFFFFFFFFFFFFFFFFFFFFFFFFFFFFFF AND EQ PUSH3 0x7A1 JUMPI PUSH1 0x40 MLOAD PUSH32 0x8C379A000000000000000000000000000000000000000000000000000000000 DUP2 MSTORE PUSH1 0x4 ADD PUSH3 0x798 SWAP1 PUSH3 0x2A16 JUMP JUMPDEST PUSH1 0x40 MLOAD DUP1 SWAP2 SUB SWAP1 REVERT JUMPDEST DUP1 PUSH20 0xFFFFFFFFFFFFFFFFFFFFFFFFFFFFFFFFFFFFFFFF AND PUSH4 0x2D05D3F PUSH1 0x40 MLOAD DUP2 PUSH4 0xFFFFFFFF AND PUSH1 0xE0 SHL DUP2 MSTORE PUSH1 0x4 ADD PUSH1 0x20 PUSH1 0x40 MLOAD DUP1 DUP4 SUB DUP2 DUP7 GAS STATICCALL ISZERO DUP1 ISZERO PUSH3 0x7ED JUMPI RETURNDATASIZE PUSH1 0x0 DUP1 RETURNDATACOPY RETURNDATASIZE PUSH1 0x0 REVERT JUMPDEST POP POP POP POP PUSH1 0x40 MLOAD RETURNDATASIZE PUSH1 0x1F NOT PUSH1 0x1F DUP3 ADD AND DUP3 ADD DUP1 PUSH1 0x40 MSTORE POP DUP2 ADD SWAP1 PUSH3 0x813 SWAP2 SWAP1 PUSH3 0x296E JUMP JUMPDEST PUSH20 0xFFFFFFFFFFFFFFFFFFFFFFFFFFFFFFFFFFFFFFFF AND ORIGIN PUSH20 0xFFFFFFFFFFFFFFFFFFFFFFFFFFFFFFFFFFFFFFFF AND EQ PUSH3 0x883 JUMPI PUSH1 0x40 MLOAD PUSH32 0x8C379A000000000000000000000000000000000000000000000000000000000 DUP2 MSTORE PUSH1 0x4 ADD PUSH3 0x87A SWAP1 PUSH3 0x2AAE JUMP JUMPDEST PUSH1 0x40 MLOAD DUP1 SWAP2 SUB SWAP1 REVERT JUMPDEST PUSH1 0x0 DUP2 PUSH20 0xFFFFFFFFFFFFFFFFFFFFFFFFFFFFFFFFFFFFFFFF AND PUSH4 0x2D05D3F PUSH1 0x40 MLOAD DUP2 PUSH4 0xFFFFFFFF AND PUSH1 0xE0 SHL DUP2 MSTORE PUSH1 0x4 ADD PUSH1 0x20 PUSH1 0x40 MLOAD DUP1 DUP4 SUB DUP2 DUP7 GAS STATICCALL ISZERO DUP1 ISZERO PUSH3 0x8D1 JUMPI RETURNDATASIZE PUSH1 0x0 DUP1 RETURNDATACOPY RETURNDATASIZE PUSH1 0x0 REVERT JUMPDEST POP POP POP POP PUSH1 0x40 MLOAD RETURNDATASIZE PUSH1 0x1F NOT PUSH1 0x1F DUP3 ADD AND DUP3 ADD DUP1 PUSH1 0x40 MSTORE POP DUP2 ADD SWAP1 PUSH3 0x8F7 SWAP2 SWAP1 PUSH3 0x296E JUMP JUMPDEST DUP4 PUSH1 0x40 MLOAD PUSH3 0x906 SWAP1 PUSH3 0x22E4 JUMP JUMPDEST PUSH3 0x913 SWAP3 SWAP2 SWAP1 PUSH3 0x2AD0 JUMP JUMPDEST PUSH1 0x40 MLOAD DUP1 SWAP2 SUB SWAP1 PUSH1 0x0 CREATE DUP1 ISZERO DUP1 ISZERO PUSH3 0x930 JUMPI RETURNDATASIZE PUSH1 0x0 DUP1 RETURNDATACOPY RETURNDATASIZE PUSH1 0x0 REVERT JUMPDEST POP SWAP1 POP PUSH1 0x6 PUSH1 0x0 DUP6 PUSH20 0xFFFFFFFFFFFFFFFFFFFFFFFFFFFFFFFFFFFFFFFF AND PUSH20 0xFFFFFFFFFFFFFFFFFFFFFFFFFFFFFFFFFFFFFFFF AND DUP2 MSTORE PUSH1 0x20 ADD SWAP1 DUP2 MSTORE PUSH1 0x20 ADD PUSH1 0x0 KECCAK256 PUSH1 0x3 ADD DUP2 SWAP1 DUP1 PUSH1 0x1 DUP2 SLOAD ADD DUP1 DUP3 SSTORE DUP1 SWAP2 POP POP PUSH1 0x1 SWAP1 SUB SWAP1 PUSH1 0x0 MSTORE PUSH1 0x20 PUSH1 0x0 KECCAK256 ADD PUSH1 0x0 SWAP1 SWAP2 SWAP1 SWAP2 SWAP1 SWAP2 PUSH2 0x100 EXP DUP2 SLOAD DUP2 PUSH20 0xFFFFFFFFFFFFFFFFFFFFFFFFFFFFFFFFFFFFFFFF MUL NOT AND SWAP1 DUP4 PUSH20 0xFFFFFFFFFFFFFFFFFFFFFFFFFFFFFFFFFFFFFFFF AND MUL OR SWAP1 SSTORE POP POP POP POP POP JUMP JUMPDEST PUSH1 0x60 PUSH1 0x0 DUP4 LT ISZERO PUSH3 0xA25 JUMPI PUSH1 0x40 MLOAD PUSH32 0x8C379A000000000000000000000000000000000000000000000000000000000 DUP2 MSTORE PUSH1 0x4 ADD PUSH3 0xA1C SWAP1 PUSH3 0x2B4D JUMP JUMPDEST PUSH1 0x40 MLOAD DUP1 SWAP2 SUB SWAP1 REVERT JUMPDEST PUSH1 0x3 DUP1 SLOAD SWAP1 POP DUP3 GT ISZERO PUSH3 0xA70 JUMPI PUSH1 0x40 MLOAD PUSH32 0x8C379A000000000000000000000000000000000000000000000000000000000 DUP2 MSTORE PUSH1 0x4 ADD PUSH3 0xA67 SWAP1 PUSH3 0x2BE5 JUMP JUMPDEST PUSH1 0x40 MLOAD DUP1 SWAP2 SUB SWAP1 REVERT JUMPDEST PUSH1 0x0 DUP4 DUP4 PUSH3 0xA80 SWAP2 SWAP1 PUSH3 0x2C36 JUMP JUMPDEST PUSH8 0xFFFFFFFFFFFFFFFF DUP2 GT ISZERO PUSH3 0xA9C JUMPI PUSH3 0xA9B PUSH3 0x260F JUMP JUMPDEST JUMPDEST PUSH1 0x40 MLOAD SWAP1 DUP1 DUP3 MSTORE DUP1 PUSH1 0x20 MUL PUSH1 0x20 ADD DUP3 ADD PUSH1 0x40 MSTORE DUP1 ISZERO PUSH3 0xACB JUMPI DUP2 PUSH1 0x20 ADD PUSH1 0x20 DUP3 MUL DUP1 CALLDATASIZE DUP4 CALLDATACOPY DUP1 DUP3 ADD SWAP2 POP POP SWAP1 POP JUMPDEST POP SWAP1 POP PUSH1 0x0 DUP5 SWAP1 POP JUMPDEST DUP4 DUP2 LT ISZERO PUSH3 0xB85 JUMPI PUSH1 0x3 DUP2 DUP2 SLOAD DUP2 LT PUSH3 0xAF4 JUMPI PUSH3 0xAF3 PUSH3 0x2C71 JUMP JUMPDEST JUMPDEST SWAP1 PUSH1 0x0 MSTORE PUSH1 0x20 PUSH1 0x0 KECCAK256 ADD PUSH1 0x0 SWAP1 SLOAD SWAP1 PUSH2 0x100 EXP SWAP1 DIV PUSH20 0xFFFFFFFFFFFFFFFFFFFFFFFFFFFFFFFFFFFFFFFF AND DUP3 DUP3 DUP2 MLOAD DUP2 LT PUSH3 0xB35 JUMPI PUSH3 0xB34 PUSH3 0x2C71 JUMP JUMPDEST JUMPDEST PUSH1 0x20 MUL PUSH1 0x20 ADD ADD SWAP1 PUSH20 0xFFFFFFFFFFFFFFFFFFFFFFFFFFFFFFFFFFFFFFFF AND SWAP1 DUP2 PUSH20 0xFFFFFFFFFFFFFFFFFFFFFFFFFFFFFFFFFFFFFFFF AND DUP2 MSTORE POP POP DUP1 DUP1 PUSH3 0xB7C SWAP1 PUSH3 0x2CA0 JUMP JUMPDEST SWAP2 POP POP PUSH3 0xAD4 JUMP JUMPDEST POP DUP1 SWAP2 POP POP SWAP3 SWAP2 POP POP JUMP JUMPDEST PUSH1 0x60 PUSH1 0x6 PUSH1 0x0 DUP4 PUSH20 0xFFFFFFFFFFFFFFFFFFFFFFFFFFFFFFFFFFFFFFFF AND PUSH20 0xFFFFFFFFFFFFFFFFFFFFFFFFFFFFFFFFFFFFFFFF AND DUP2 MSTORE PUSH1 0x20 ADD SWAP1 DUP2 MSTORE PUSH1 0x20 ADD PUSH1 0x0 KECCAK256 PUSH1 0x2 ADD DUP1 SLOAD DUP1 PUSH1 0x20 MUL PUSH1 0x20 ADD PUSH1 0x40 MLOAD SWAP1 DUP2 ADD PUSH1 0x40 MSTORE DUP1 SWAP3 SWAP2 SWAP1 DUP2 DUP2 MSTORE PUSH1 0x20 ADD DUP3 DUP1 SLOAD DUP1 ISZERO PUSH3 0xC56 JUMPI PUSH1 0x20 MUL DUP3 ADD SWAP2 SWAP1 PUSH1 0x0 MSTORE PUSH1 0x20 PUSH1 0x0 KECCAK256 SWAP1 JUMPDEST DUP2 PUSH1 0x0 SWAP1 SLOAD SWAP1 PUSH2 0x100 EXP SWAP1 DIV PUSH20 0xFFFFFFFFFFFFFFFFFFFFFFFFFFFFFFFFFFFFFFFF AND PUSH20 0xFFFFFFFFFFFFFFFFFFFFFFFFFFFFFFFFFFFFFFFF AND DUP2 MSTORE PUSH1 0x20 ADD SWAP1 PUSH1 0x1 ADD SWAP1 DUP1 DUP4 GT PUSH3 0xC0B JUMPI JUMPDEST POP POP POP POP POP SWAP1 POP SWAP2 SWAP1 POP JUMP JUMPDEST PUSH1 0x3 DUP2 DUP2 SLOAD DUP2 LT PUSH3 0xC73 JUMPI PUSH1 0x0 DUP1 REVERT JUMPDEST SWAP1 PUSH1 0x0 MSTORE PUSH1 0x20 PUSH1 0x0 KECCAK256 ADD PUSH1 0x0 SWAP2 POP SLOAD SWAP1 PUSH2 0x100 EXP SWAP1 DIV PUSH20 0xFFFFFFFFFFFFFFFFFFFFFFFFFFFFFFFFFFFFFFFF AND DUP2 JUMP JUMPDEST PUSH1 0x8 DUP2 DUP2 SLOAD DUP2 LT PUSH3 0xCB3 JUMPI PUSH1 0x0 DUP1 REVERT JUMPDEST SWAP1 PUSH1 0x0 MSTORE PUSH1 0x20 PUSH1 0x0 KECCAK256 ADD PUSH1 0x0 SWAP2 POP SLOAD SWAP1 PUSH2 0x100 EXP SWAP1 DIV PUSH20 0xFFFFFFFFFFFFFFFFFFFFFFFFFFFFFFFFFFFFFFFF AND DUP2 JUMP JUMPDEST PUSH1 0x60 PUSH1 0x0 DUP1 DUP4 PUSH20 0xFFFFFFFFFFFFFFFFFFFFFFFFFFFFFFFFFFFFFFFF AND PUSH20 0xFFFFFFFFFFFFFFFFFFFFFFFFFFFFFFFFFFFFFFFF AND DUP2 MSTORE PUSH1 0x20 ADD SWAP1 DUP2 MSTORE PUSH1 0x20 ADD PUSH1 0x0 KECCAK256 PUSH1 0x1 ADD DUP1 SLOAD DUP1 PUSH1 0x20 MUL PUSH1 0x20 ADD PUSH1 0x40 MLOAD SWAP1 DUP2 ADD PUSH1 0x40 MSTORE DUP1 SWAP3 SWAP2 SWAP1 DUP2 DUP2 MSTORE PUSH1 0x20 ADD DUP3 DUP1 SLOAD DUP1 ISZERO PUSH3 0xDA7 JUMPI PUSH1 0x20 MUL DUP3 ADD SWAP2 SWAP1 PUSH1 0x0 MSTORE PUSH1 0x20 PUSH1 0x0 KECCAK256 SWAP1 JUMPDEST DUP2 PUSH1 0x0 SWAP1 SLOAD SWAP1 PUSH2 0x100 EXP SWAP1 DIV PUSH20 0xFFFFFFFFFFFFFFFFFFFFFFFFFFFFFFFFFFFFFFFF AND PUSH20 0xFFFFFFFFFFFFFFFFFFFFFFFFFFFFFFFFFFFFFFFF AND DUP2 MSTORE PUSH1 0x20 ADD SWAP1 PUSH1 0x1 ADD SWAP1 DUP1 DUP4 GT PUSH3 0xD5C JUMPI JUMPDEST POP POP POP POP POP SWAP1 POP SWAP2 SWAP1 POP JUMP JUMPDEST PUSH1 0x4 SLOAD DUP2 JUMP JUMPDEST PUSH1 0x0 DUP2 SWAP1 POP DUP1 PUSH20 0xFFFFFFFFFFFFFFFFFFFFFFFFFFFFFFFFFFFFFFFF AND PUSH4 0x2D398FA6 PUSH1 0x40 MLOAD DUP2 PUSH4 0xFFFFFFFF AND PUSH1 0xE0 SHL DUP2 MSTORE PUSH1 0x4 ADD PUSH1 0x20 PUSH1 0x40 MLOAD DUP1 DUP4 SUB DUP2 PUSH1 0x0 DUP8 GAS CALL ISZERO DUP1 ISZERO PUSH3 0xE0C JUMPI RETURNDATASIZE PUSH1 0x0 DUP1 RETURNDATACOPY RETURNDATASIZE PUSH1 0x0 REVERT JUMPDEST POP POP POP POP PUSH1 0x40 MLOAD RETURNDATASIZE PUSH1 0x1F NOT PUSH1 0x1F DUP3 ADD AND DUP3 ADD DUP1 PUSH1 0x40 MSTORE POP DUP2 ADD SWAP1 PUSH3 0xE32 SWAP2 SWAP1 PUSH3 0x2D33 JUMP JUMPDEST POP PUSH3 0xE3F DUP4 DUP4 PUSH3 0x18F3 JUMP JUMPDEST PUSH3 0xEBC DUP2 PUSH20 0xFFFFFFFFFFFFFFFFFFFFFFFFFFFFFFFFFFFFFFFF AND PUSH4 0x3B1BEBD1 PUSH1 0x40 MLOAD DUP2 PUSH4 0xFFFFFFFF AND PUSH1 0xE0 SHL DUP2 MSTORE PUSH1 0x4 ADD PUSH1 0x20 PUSH1 0x40 MLOAD DUP1 DUP4 SUB DUP2 DUP7 GAS STATICCALL ISZERO DUP1 ISZERO PUSH3 0xE8F JUMPI RETURNDATASIZE PUSH1 0x0 DUP1 RETURNDATACOPY RETURNDATASIZE PUSH1 0x0 REVERT JUMPDEST POP POP POP POP PUSH1 0x40 MLOAD RETURNDATASIZE PUSH1 0x1F NOT PUSH1 0x1F DUP3 ADD AND DUP3 ADD DUP1 PUSH1 0x40 MSTORE POP DUP2 ADD SWAP1 PUSH3 0xEB5 SWAP2 SWAP1 PUSH3 0x296E JUMP JUMPDEST DUP4 PUSH3 0x1CB0 JUMP JUMPDEST POP POP POP JUMP JUMPDEST PUSH1 0x60 PUSH1 0x6 PUSH1 0x0 DUP4 PUSH20 0xFFFFFFFFFFFFFFFFFFFFFFFFFFFFFFFFFFFFFFFF AND PUSH20 0xFFFFFFFFFFFFFFFFFFFFFFFFFFFFFFFFFFFFFFFF AND DUP2 MSTORE PUSH1 0x20 ADD SWAP1 DUP2 MSTORE PUSH1 0x20 ADD PUSH1 0x0 KECCAK256 PUSH1 0x3 ADD DUP1 SLOAD DUP1 PUSH1 0x20 MUL PUSH1 0x20 ADD PUSH1 0x40 MLOAD SWAP1 DUP2 ADD PUSH1 0x40 MSTORE DUP1 SWAP3 SWAP2 SWAP1 DUP2 DUP2 MSTORE PUSH1 0x20 ADD DUP3 DUP1 SLOAD DUP1 ISZERO PUSH3 0xF87 JUMPI PUSH1 0x20 MUL DUP3 ADD SWAP2 SWAP1 PUSH1 0x0 MSTORE PUSH1 0x20 PUSH1 0x0 KECCAK256 SWAP1 JUMPDEST DUP2 PUSH1 0x0 SWAP1 SLOAD SWAP1 PUSH2 0x100 EXP SWAP1 DIV PUSH20 0xFFFFFFFFFFFFFFFFFFFFFFFFFFFFFFFFFFFFFFFF AND PUSH20 0xFFFFFFFFFFFFFFFFFFFFFFFFFFFFFFFFFFFFFFFF AND DUP2 MSTORE PUSH1 0x20 ADD SWAP1 PUSH1 0x1 ADD SWAP1 DUP1 DUP4 GT PUSH3 0xF3C JUMPI JUMPDEST POP POP POP POP POP SWAP1 POP SWAP2 SWAP1 POP JUMP JUMPDEST PUSH1 0x1 DUP2 DUP2 SLOAD DUP2 LT PUSH3 0xFA4 JUMPI PUSH1 0x0 DUP1 REVERT JUMPDEST SWAP1 PUSH1 0x0 MSTORE PUSH1 0x20 PUSH1 0x0 KECCAK256 ADD PUSH1 0x0 SWAP2 POP SLOAD SWAP1 PUSH2 0x100 EXP SWAP1 DIV PUSH20 0xFFFFFFFFFFFFFFFFFFFFFFFFFFFFFFFFFFFFFFFF AND DUP2 JUMP JUMPDEST PUSH1 0x6 PUSH1 0x20 MSTORE DUP1 PUSH1 0x0 MSTORE PUSH1 0x40 PUSH1 0x0 KECCAK256 PUSH1 0x0 SWAP2 POP SWAP1 POP DUP1 PUSH1 0x0 ADD SLOAD SWAP1 POP DUP2 JUMP JUMPDEST PUSH1 0x2 SLOAD DUP2 JUMP JUMPDEST PUSH1 0x60 PUSH1 0x6 PUSH1 0x0 DUP4 PUSH20 0xFFFFFFFFFFFFFFFFFFFFFFFFFFFFFFFFFFFFFFFF AND PUSH20 0xFFFFFFFFFFFFFFFFFFFFFFFFFFFFFFFFFFFFFFFF AND DUP2 MSTORE PUSH1 0x20 ADD SWAP1 DUP2 MSTORE PUSH1 0x20 ADD PUSH1 0x0 KECCAK256 PUSH1 0x1 ADD DUP1 SLOAD DUP1 PUSH1 0x20 MUL PUSH1 0x20 ADD PUSH1 0x40 MLOAD SWAP1 DUP2 ADD PUSH1 0x40 MSTORE DUP1 SWAP3 SWAP2 SWAP1 DUP2 DUP2 MSTORE PUSH1 0x20 ADD DUP3 DUP1 SLOAD DUP1 ISZERO PUSH3 0x10BD JUMPI PUSH1 0x20 MUL DUP3 ADD SWAP2 SWAP1 PUSH1 0x0 MSTORE PUSH1 0x20 PUSH1 0x0 KECCAK256 SWAP1 JUMPDEST DUP2 PUSH1 0x0 SWAP1 SLOAD SWAP1 PUSH2 0x100 EXP SWAP1 DIV PUSH20 0xFFFFFFFFFFFFFFFFFFFFFFFFFFFFFFFFFFFFFFFF AND PUSH20 0xFFFFFFFFFFFFFFFFFFFFFFFFFFFFFFFFFFFFFFFF AND DUP2 MSTORE PUSH1 0x20 ADD SWAP1 PUSH1 0x1 ADD SWAP1 DUP1 DUP4 GT PUSH3 0x1072 JUMPI JUMPDEST POP POP POP POP POP SWAP1 POP SWAP2 SWAP1 POP JUMP JUMPDEST PUSH1 0x0 PUSH1 0x20 MSTORE DUP1 PUSH1 0x0 MSTORE PUSH1 0x40 PUSH1 0x0 KECCAK256 PUSH1 0x0 SWAP2 POP SWAP1 POP DUP1 PUSH1 0x0 ADD SLOAD SWAP1 POP DUP2 JUMP JUMPDEST PUSH1 0x60 PUSH1 0x0 DUP4 LT ISZERO PUSH3 0x1130 JUMPI PUSH1 0x40 MLOAD PUSH32 0x8C379A000000000000000000000000000000000000000000000000000000000 DUP2 MSTORE PUSH1 0x4 ADD PUSH3 0x1127 SWAP1 PUSH3 0x2B4D JUMP JUMPDEST PUSH1 0x40 MLOAD DUP1 SWAP2 SUB SWAP1 REVERT JUMPDEST PUSH1 0x1 DUP1 SLOAD SWAP1 POP DUP3 GT ISZERO PUSH3 0x117B JUMPI PUSH1 0x40 MLOAD PUSH32 0x8C379A000000000000000000000000000000000000000000000000000000000 DUP2 MSTORE PUSH1 0x4 ADD PUSH3 0x1172 SWAP1 PUSH3 0x2BE5 JUMP JUMPDEST PUSH1 0x40 MLOAD DUP1 SWAP2 SUB SWAP1 REVERT JUMPDEST PUSH1 0x0 DUP4 DUP4 PUSH3 0x118B SWAP2 SWAP1 PUSH3 0x2C36 JUMP JUMPDEST PUSH8 0xFFFFFFFFFFFFFFFF DUP2 GT ISZERO PUSH3 0x11A7 JUMPI PUSH3 0x11A6 PUSH3 0x260F JUMP JUMPDEST JUMPDEST PUSH1 0x40 MLOAD SWAP1 DUP1 DUP3 MSTORE DUP1 PUSH1 0x20 MUL PUSH1 0x20 ADD DUP3 ADD PUSH1 0x40 MSTORE DUP1 ISZERO PUSH3 0x11D6 JUMPI DUP2 PUSH1 0x20 ADD PUSH1 0x20 DUP3 MUL DUP1 CALLDATASIZE DUP4 CALLDATACOPY DUP1 DUP3 ADD SWAP2 POP POP SWAP1 POP JUMPDEST POP SWAP1 POP PUSH1 0x0 DUP5 SWAP1 POP JUMPDEST DUP4 DUP2 LT ISZERO PUSH3 0x1290 JUMPI PUSH1 0x1 DUP2 DUP2 SLOAD DUP2 LT PUSH3 0x11FF JUMPI PUSH3 0x11FE PUSH3 0x2C71 JUMP JUMPDEST JUMPDEST SWAP1 PUSH1 0x0 MSTORE PUSH1 0x20 PUSH1 0x0 KECCAK256 ADD PUSH1 0x0 SWAP1 SLOAD SWAP1 PUSH2 0x100 EXP SWAP1 DIV PUSH20 0xFFFFFFFFFFFFFFFFFFFFFFFFFFFFFFFFFFFFFFFF AND DUP3 DUP3 DUP2 MLOAD DUP2 LT PUSH3 0x1240 JUMPI PUSH3 0x123F PUSH3 0x2C71 JUMP JUMPDEST JUMPDEST PUSH1 0x20 MUL PUSH1 0x20 ADD ADD SWAP1 PUSH20 0xFFFFFFFFFFFFFFFFFFFFFFFFFFFFFFFFFFFFFFFF AND SWAP1 DUP2 PUSH20 0xFFFFFFFFFFFFFFFFFFFFFFFFFFFFFFFFFFFFFFFF AND DUP2 MSTORE POP POP DUP1 DUP1 PUSH3 0x1287 SWAP1 PUSH3 0x2CA0 JUMP JUMPDEST SWAP2 POP POP PUSH3 0x11DF JUMP JUMPDEST POP DUP1 SWAP2 POP POP SWAP3 SWAP2 POP POP JUMP JUMPDEST PUSH1 0x60 PUSH1 0x0 DUP1 DUP4 PUSH20 0xFFFFFFFFFFFFFFFFFFFFFFFFFFFFFFFFFFFFFFFF AND PUSH20 0xFFFFFFFFFFFFFFFFFFFFFFFFFFFFFFFFFFFFFFFF AND DUP2 MSTORE PUSH1 0x20 ADD SWAP1 DUP2 MSTORE PUSH1 0x20 ADD PUSH1 0x0 KECCAK256 PUSH1 0x2 ADD DUP1 SLOAD DUP1 PUSH1 0x20 MUL PUSH1 0x20 ADD PUSH1 0x40 MLOAD SWAP1 DUP2 ADD PUSH1 0x40 MSTORE DUP1 SWAP3 SWAP2 SWAP1 DUP2 DUP2 MSTORE PUSH1 0x20 ADD DUP3 DUP1 SLOAD DUP1 ISZERO PUSH3 0x1360 JUMPI PUSH1 0x20 MUL DUP3 ADD SWAP2 SWAP1 PUSH1 0x0 MSTORE PUSH1 0x20 PUSH1 0x0 KECCAK256 SWAP1 JUMPDEST DUP2 PUSH1 0x0 SWAP1 SLOAD SWAP1 PUSH2 0x100 EXP SWAP1 DIV PUSH20 0xFFFFFFFFFFFFFFFFFFFFFFFFFFFFFFFFFFFFFFFF AND PUSH20 0xFFFFFFFFFFFFFFFFFFFFFFFFFFFFFFFFFFFFFFFF AND DUP2 MSTORE PUSH1 0x20 ADD SWAP1 PUSH1 0x1 ADD SWAP1 DUP1 DUP4 GT PUSH3 0x1315 JUMPI JUMPDEST POP POP POP POP POP SWAP1 POP SWAP2 SWAP1 POP JUMP JUMPDEST PUSH1 0x7 SLOAD DUP2 JUMP JUMPDEST PUSH1 0x0 DUP2 SWAP1 POP DUP1 PUSH20 0xFFFFFFFFFFFFFFFFFFFFFFFFFFFFFFFFFFFFFFFF AND PUSH4 0xB4FEDC11 PUSH1 0x40 MLOAD DUP2 PUSH4 0xFFFFFFFF AND PUSH1 0xE0 SHL DUP2 MSTORE PUSH1 0x4 ADD PUSH1 0x20 PUSH1 0x40 MLOAD DUP1 DUP4 SUB DUP2 PUSH1 0x0 DUP8 GAS CALL ISZERO DUP1 ISZERO PUSH3 0x13C5 JUMPI RETURNDATASIZE PUSH1 0x0 DUP1 RETURNDATACOPY RETURNDATASIZE PUSH1 0x0 REVERT JUMPDEST POP POP POP POP PUSH1 0x40 MLOAD RETURNDATASIZE PUSH1 0x1F NOT PUSH1 0x1F DUP3 ADD AND DUP3 ADD DUP1 PUSH1 0x40 MSTORE POP DUP2 ADD SWAP1 PUSH3 0x13EB SWAP2 SWAP1 PUSH3 0x2D33 JUMP JUMPDEST POP PUSH3 0x13F8 DUP4 DUP4 PUSH3 0x18F3 JUMP JUMPDEST PUSH3 0x1475 DUP2 PUSH20 0xFFFFFFFFFFFFFFFFFFFFFFFFFFFFFFFFFFFFFFFF AND PUSH4 0x3B1BEBD1 PUSH1 0x40 MLOAD DUP2 PUSH4 0xFFFFFFFF AND PUSH1 0xE0 SHL DUP2 MSTORE PUSH1 0x4 ADD PUSH1 0x20 PUSH1 0x40 MLOAD DUP1 DUP4 SUB DUP2 DUP7 GAS STATICCALL ISZERO DUP1 ISZERO PUSH3 0x1448 JUMPI RETURNDATASIZE PUSH1 0x0 DUP1 RETURNDATACOPY RETURNDATASIZE PUSH1 0x0 REVERT JUMPDEST POP POP POP POP PUSH1 0x40 MLOAD RETURNDATASIZE PUSH1 0x1F NOT PUSH1 0x1F DUP3 ADD AND DUP3 ADD DUP1 PUSH1 0x40 MSTORE POP DUP2 ADD SWAP1 PUSH3 0x146E SWAP2 SWAP1 PUSH3 0x296E JUMP JUMPDEST DUP4 PUSH3 0x1CB0 JUMP JUMPDEST POP POP POP JUMP JUMPDEST PUSH1 0x5 SLOAD DUP2 JUMP JUMPDEST PUSH1 0x0 DUP1 PUSH1 0x0 CALLER PUSH20 0xFFFFFFFFFFFFFFFFFFFFFFFFFFFFFFFFFFFFFFFF AND PUSH20 0xFFFFFFFFFFFFFFFFFFFFFFFFFFFFFFFFFFFFFFFF AND DUP2 MSTORE PUSH1 0x20 ADD SWAP1 DUP2 MSTORE PUSH1 0x20 ADD PUSH1 0x0 KECCAK256 PUSH1 0x0 ADD SLOAD EQ ISZERO PUSH3 0x1549 JUMPI PUSH1 0x2 PUSH1 0x0 DUP2 SLOAD DUP1 SWAP3 SWAP2 SWAP1 PUSH3 0x14E0 SWAP1 PUSH3 0x2CA0 JUMP JUMPDEST SWAP2 SWAP1 POP SSTORE POP PUSH1 0x1 CALLER SWAP1 DUP1 PUSH1 0x1 DUP2 SLOAD ADD DUP1 DUP3 SSTORE DUP1 SWAP2 POP POP PUSH1 0x1 SWAP1 SUB SWAP1 PUSH1 0x0 MSTORE PUSH1 0x20 PUSH1 0x0 KECCAK256 ADD PUSH1 0x0 SWAP1 SWAP2 SWAP1 SWAP2 SWAP1 SWAP2 PUSH2 0x100 EXP DUP2 SLOAD DUP2 PUSH20 0xFFFFFFFFFFFFFFFFFFFFFFFFFFFFFFFFFFFFFFFF MUL NOT AND SWAP1 DUP4 PUSH20 0xFFFFFFFFFFFFFFFFFFFFFFFFFFFFFFFFFFFFFFFF AND MUL OR SWAP1 SSTORE POP JUMPDEST PUSH1 0x0 PUSH1 0x6 PUSH1 0x0 DUP7 PUSH20 0xFFFFFFFFFFFFFFFFFFFFFFFFFFFFFFFFFFFFFFFF AND PUSH20 0xFFFFFFFFFFFFFFFFFFFFFFFFFFFFFFFFFFFFFFFF AND DUP2 MSTORE PUSH1 0x20 ADD SWAP1 DUP2 MSTORE PUSH1 0x20 ADD PUSH1 0x0 KECCAK256 PUSH1 0x0 ADD SLOAD EQ ISZERO PUSH3 0x1613 JUMPI PUSH1 0x7 PUSH1 0x0 DUP2 SLOAD DUP1 SWAP3 SWAP2 SWAP1 PUSH3 0x15AA SWAP1 PUSH3 0x2CA0 JUMP JUMPDEST SWAP2 SWAP1 POP SSTORE POP PUSH1 0x8 DUP5 SWAP1 DUP1 PUSH1 0x1 DUP2 SLOAD ADD DUP1 DUP3 SSTORE DUP1 SWAP2 POP POP PUSH1 0x1 SWAP1 SUB SWAP1 PUSH1 0x0 MSTORE PUSH1 0x20 PUSH1 0x0 KECCAK256 ADD PUSH1 0x0 SWAP1 SWAP2 SWAP1 SWAP2 SWAP1 SWAP2 PUSH2 0x100 EXP DUP2 SLOAD DUP2 PUSH20 0xFFFFFFFFFFFFFFFFFFFFFFFFFFFFFFFFFFFFFFFF MUL NOT AND SWAP1 DUP4 PUSH20 0xFFFFFFFFFFFFFFFFFFFFFFFFFFFFFFFFFFFFFFFF AND MUL OR SWAP1 SSTORE POP JUMPDEST PUSH1 0x0 CALLVALUE CALLER DUP7 DUP7 DUP7 DUP7 CALLVALUE PUSH1 0x40 MLOAD PUSH3 0x162A SWAP1 PUSH3 0x22F2 JUMP JUMPDEST PUSH3 0x163B SWAP7 SWAP6 SWAP5 SWAP4 SWAP3 SWAP2 SWAP1 PUSH3 0x2E52 JUMP JUMPDEST PUSH1 0x40 MLOAD DUP1 SWAP2 SUB SWAP1 DUP3 CREATE SWAP1 POP DUP1 ISZERO DUP1 ISZERO PUSH3 0x1659 JUMPI RETURNDATASIZE PUSH1 0x0 DUP1 RETURNDATACOPY RETURNDATASIZE PUSH1 0x0 REVERT JUMPDEST POP SWAP1 POP PUSH1 0x4 PUSH1 0x0 DUP2 SLOAD DUP1 SWAP3 SWAP2 SWAP1 PUSH3 0x1671 SWAP1 PUSH3 0x2CA0 JUMP JUMPDEST SWAP2 SWAP1 POP SSTORE POP PUSH1 0x3 DUP2 SWAP1 DUP1 PUSH1 0x1 DUP2 SLOAD ADD DUP1 DUP3 SSTORE DUP1 SWAP2 POP POP PUSH1 0x1 SWAP1 SUB SWAP1 PUSH1 0x0 MSTORE PUSH1 0x20 PUSH1 0x0 KECCAK256 ADD PUSH1 0x0 SWAP1 SWAP2 SWAP1 SWAP2 SWAP1 SWAP2 PUSH2 0x100 EXP DUP2 SLOAD DUP2 PUSH20 0xFFFFFFFFFFFFFFFFFFFFFFFFFFFFFFFFFFFFFFFF MUL NOT AND SWAP1 DUP4 PUSH20 0xFFFFFFFFFFFFFFFFFFFFFFFFFFFFFFFFFFFFFFFF AND MUL OR SWAP1 SSTORE POP CALLVALUE PUSH1 0x5 PUSH1 0x0 DUP3 DUP3 SLOAD PUSH3 0x16ED SWAP2 SWAP1 PUSH3 0x2ECD JUMP JUMPDEST SWAP3 POP POP DUP2 SWAP1 SSTORE POP PUSH1 0x0 DUP1 CALLER PUSH20 0xFFFFFFFFFFFFFFFFFFFFFFFFFFFFFFFFFFFFFFFF AND PUSH20 0xFFFFFFFFFFFFFFFFFFFFFFFFFFFFFFFFFFFFFFFF AND DUP2 MSTORE PUSH1 0x20 ADD SWAP1 DUP2 MSTORE PUSH1 0x20 ADD PUSH1 0x0 KECCAK256 PUSH1 0x0 ADD PUSH1 0x0 DUP2 SLOAD DUP1 SWAP3 SWAP2 SWAP1 PUSH3 0x1748 SWAP1 PUSH3 0x2CA0 JUMP JUMPDEST SWAP2 SWAP1 POP SSTORE POP PUSH1 0x0 DUP1 CALLER PUSH20 0xFFFFFFFFFFFFFFFFFFFFFFFFFFFFFFFFFFFFFFFF AND PUSH20 0xFFFFFFFFFFFFFFFFFFFFFFFFFFFFFFFFFFFFFFFF AND DUP2 MSTORE PUSH1 0x20 ADD SWAP1 DUP2 MSTORE PUSH1 0x20 ADD PUSH1 0x0 KECCAK256 PUSH1 0x1 ADD DUP2 SWAP1 DUP1 PUSH1 0x1 DUP2 SLOAD ADD DUP1 DUP3 SSTORE DUP1 SWAP2 POP POP PUSH1 0x1 SWAP1 SUB SWAP1 PUSH1 0x0 MSTORE PUSH1 0x20 PUSH1 0x0 KECCAK256 ADD PUSH1 0x0 SWAP1 SWAP2 SWAP1 SWAP2 SWAP1 SWAP2 PUSH2 0x100 EXP DUP2 SLOAD DUP2 PUSH20 0xFFFFFFFFFFFFFFFFFFFFFFFFFFFFFFFFFFFFFFFF MUL NOT AND SWAP1 DUP4 PUSH20 0xFFFFFFFFFFFFFFFFFFFFFFFFFFFFFFFFFFFFFFFF AND MUL OR SWAP1 SSTORE POP PUSH1 0x6 PUSH1 0x0 DUP7 PUSH20 0xFFFFFFFFFFFFFFFFFFFFFFFFFFFFFFFFFFFFFFFF AND PUSH20 0xFFFFFFFFFFFFFFFFFFFFFFFFFFFFFFFFFFFFFFFF AND DUP2 MSTORE PUSH1 0x20 ADD SWAP1 DUP2 MSTORE PUSH1 0x20 ADD PUSH1 0x0 KECCAK256 PUSH1 0x0 ADD PUSH1 0x0 DUP2 SLOAD DUP1 SWAP3 SWAP2 SWAP1 PUSH3 0x1844 SWAP1 PUSH3 0x2CA0 JUMP JUMPDEST SWAP2 SWAP1 POP SSTORE POP PUSH1 0x6 PUSH1 0x0 DUP7 PUSH20 0xFFFFFFFFFFFFFFFFFFFFFFFFFFFFFFFFFFFFFFFF AND PUSH20 0xFFFFFFFFFFFFFFFFFFFFFFFFFFFFFFFFFFFFFFFF AND DUP2 MSTORE PUSH1 0x20 ADD SWAP1 DUP2 MSTORE PUSH1 0x20 ADD PUSH1 0x0 KECCAK256 PUSH1 0x1 ADD DUP2 SWAP1 DUP1 PUSH1 0x1 DUP2 SLOAD ADD DUP1 DUP3 SSTORE DUP1 SWAP2 POP POP PUSH1 0x1 SWAP1 SUB SWAP1 PUSH1 0x0 MSTORE PUSH1 0x20 PUSH1 0x0 KECCAK256 ADD PUSH1 0x0 SWAP1 SWAP2 SWAP1 SWAP2 SWAP1 SWAP2 PUSH2 0x100 EXP DUP2 SLOAD DUP2 PUSH20 0xFFFFFFFFFFFFFFFFFFFFFFFFFFFFFFFFFFFFFFFF MUL NOT AND SWAP1 DUP4 PUSH20 0xFFFFFFFFFFFFFFFFFFFFFFFFFFFFFFFFFFFFFFFF AND MUL OR SWAP1 SSTORE POP POP POP POP POP POP JUMP JUMPDEST PUSH1 0x0 PUSH3 0x1901 DUP4 DUP4 PUSH3 0x206E JUMP JUMPDEST SWAP1 POP PUSH1 0x0 DUP1 PUSH1 0x0 DUP6 PUSH20 0xFFFFFFFFFFFFFFFFFFFFFFFFFFFFFFFFFFFFFFFF AND PUSH20 0xFFFFFFFFFFFFFFFFFFFFFFFFFFFFFFFFFFFFFFFF AND DUP2 MSTORE PUSH1 0x20 ADD SWAP1 DUP2 MSTORE PUSH1 0x20 ADD PUSH1 0x0 KECCAK256 PUSH1 0x1 ADD DUP1 SLOAD SWAP1 POP SWAP1 POP PUSH1 0x0 DUP3 SWAP1 POP JUMPDEST PUSH1 0x1 DUP3 PUSH3 0x1961 SWAP2 SWAP1 PUSH3 0x2C36 JUMP JUMPDEST DUP2 LT ISZERO PUSH3 0x1AAC JUMPI PUSH1 0x0 DUP1 DUP7 PUSH20 0xFFFFFFFFFFFFFFFFFFFFFFFFFFFFFFFFFFFFFFFF AND PUSH20 0xFFFFFFFFFFFFFFFFFFFFFFFFFFFFFFFFFFFFFFFF AND DUP2 MSTORE PUSH1 0x20 ADD SWAP1 DUP2 MSTORE PUSH1 0x20 ADD PUSH1 0x0 KECCAK256 PUSH1 0x1 ADD PUSH1 0x1 DUP3 PUSH3 0x19B9 SWAP2 SWAP1 PUSH3 0x2ECD JUMP JUMPDEST DUP2 SLOAD DUP2 LT PUSH3 0x19CD JUMPI PUSH3 0x19CC PUSH3 0x2C71 JUMP JUMPDEST JUMPDEST SWAP1 PUSH1 0x0 MSTORE PUSH1 0x20 PUSH1 0x0 KECCAK256 ADD PUSH1 0x0 SWAP1 SLOAD SWAP1 PUSH2 0x100 EXP SWAP1 DIV PUSH20 0xFFFFFFFFFFFFFFFFFFFFFFFFFFFFFFFFFFFFFFFF AND PUSH1 0x0 DUP1 DUP8 PUSH20 0xFFFFFFFFFFFFFFFFFFFFFFFFFFFFFFFFFFFFFFFF AND PUSH20 0xFFFFFFFFFFFFFFFFFFFFFFFFFFFFFFFFFFFFFFFF AND DUP2 MSTORE PUSH1 0x20 ADD SWAP1 DUP2 MSTORE PUSH1 0x20 ADD PUSH1 0x0 KECCAK256 PUSH1 0x1 ADD DUP3 DUP2 SLOAD DUP2 LT PUSH3 0x1A4E JUMPI PUSH3 0x1A4D PUSH3 0x2C71 JUMP JUMPDEST JUMPDEST SWAP1 PUSH1 0x0 MSTORE PUSH1 0x20 PUSH1 0x0 KECCAK256 ADD PUSH1 0x0 PUSH2 0x100 EXP DUP2 SLOAD DUP2 PUSH20 0xFFFFFFFFFFFFFFFFFFFFFFFFFFFFFFFFFFFFFFFF MUL NOT AND SWAP1 DUP4 PUSH20 0xFFFFFFFFFFFFFFFFFFFFFFFFFFFFFFFFFFFFFFFF AND MUL OR SWAP1 SSTORE POP DUP1 DUP1 PUSH3 0x1AA3 SWAP1 PUSH3 0x2CA0 JUMP JUMPDEST SWAP2 POP POP PUSH3 0x1952 JUMP JUMPDEST POP PUSH1 0x0 DUP1 DUP6 PUSH20 0xFFFFFFFFFFFFFFFFFFFFFFFFFFFFFFFFFFFFFFFF AND PUSH20 0xFFFFFFFFFFFFFFFFFFFFFFFFFFFFFFFFFFFFFFFF AND DUP2 MSTORE PUSH1 0x20 ADD SWAP1 DUP2 MSTORE PUSH1 0x20 ADD PUSH1 0x0 KECCAK256 PUSH1 0x2 ADD PUSH1 0x0 DUP1 DUP7 PUSH20 0xFFFFFFFFFFFFFFFFFFFFFFFFFFFFFFFFFFFFFFFF AND PUSH20 0xFFFFFFFFFFFFFFFFFFFFFFFFFFFFFFFFFFFFFFFF AND DUP2 MSTORE PUSH1 0x20 ADD SWAP1 DUP2 MSTORE PUSH1 0x20 ADD PUSH1 0x0 KECCAK256 PUSH1 0x1 ADD PUSH1 0x1 PUSH1 0x0 DUP1 DUP9 PUSH20 0xFFFFFFFFFFFFFFFFFFFFFFFFFFFFFFFFFFFFFFFF AND PUSH20 0xFFFFFFFFFFFFFFFFFFFFFFFFFFFFFFFFFFFFFFFF AND DUP2 MSTORE PUSH1 0x20 ADD SWAP1 DUP2 MSTORE PUSH1 0x20 ADD PUSH1 0x0 KECCAK256 PUSH1 0x1 ADD DUP1 SLOAD SWAP1 POP PUSH3 0x1B82 SWAP2 SWAP1 PUSH3 0x2C36 JUMP JUMPDEST DUP2 SLOAD DUP2 LT PUSH3 0x1B96 JUMPI PUSH3 0x1B95 PUSH3 0x2C71 JUMP JUMPDEST JUMPDEST SWAP1 PUSH1 0x0 MSTORE PUSH1 0x20 PUSH1 0x0 KECCAK256 ADD PUSH1 0x0 SWAP1 SLOAD SWAP1 PUSH2 0x100 EXP SWAP1 DIV PUSH20 0xFFFFFFFFFFFFFFFFFFFFFFFFFFFFFFFFFFFFFFFF AND SWAP1 DUP1 PUSH1 0x1 DUP2 SLOAD ADD DUP1 DUP3 SSTORE DUP1 SWAP2 POP POP PUSH1 0x1 SWAP1 SUB SWAP1 PUSH1 0x0 MSTORE PUSH1 0x20 PUSH1 0x0 KECCAK256 ADD PUSH1 0x0 SWAP1 SWAP2 SWAP1 SWAP2 SWAP1 SWAP2 PUSH2 0x100 EXP DUP2 SLOAD DUP2 PUSH20 0xFFFFFFFFFFFFFFFFFFFFFFFFFFFFFFFFFFFFFFFF MUL NOT AND SWAP1 DUP4 PUSH20 0xFFFFFFFFFFFFFFFFFFFFFFFFFFFFFFFFFFFFFFFF AND MUL OR SWAP1 SSTORE POP PUSH1 0x0 DUP1 DUP6 PUSH20 0xFFFFFFFFFFFFFFFFFFFFFFFFFFFFFFFFFFFFFFFF AND PUSH20 0xFFFFFFFFFFFFFFFFFFFFFFFFFFFFFFFFFFFFFFFF AND DUP2 MSTORE PUSH1 0x20 ADD SWAP1 DUP2 MSTORE PUSH1 0x20 ADD PUSH1 0x0 KECCAK256 PUSH1 0x1 ADD DUP1 SLOAD DUP1 PUSH3 0x1C75 JUMPI PUSH3 0x1C74 PUSH3 0x2F2A JUMP JUMPDEST JUMPDEST PUSH1 0x1 SWAP1 SUB DUP2 DUP2 SWAP1 PUSH1 0x0 MSTORE PUSH1 0x20 PUSH1 0x0 KECCAK256 ADD PUSH1 0x0 PUSH2 0x100 EXP DUP2 SLOAD SWAP1 PUSH20 0xFFFFFFFFFFFFFFFFFFFFFFFFFFFFFFFFFFFFFFFF MUL NOT AND SWAP1 SSTORE SWAP1 SSTORE POP POP POP POP JUMP JUMPDEST PUSH1 0x0 PUSH3 0x1CBE DUP4 DUP4 PUSH3 0x21A8 JUMP JUMPDEST SWAP1 POP PUSH1 0x0 DUP2 SWAP1 POP JUMPDEST PUSH1 0x1 PUSH1 0x6 PUSH1 0x0 DUP7 PUSH20 0xFFFFFFFFFFFFFFFFFFFFFFFFFFFFFFFFFFFFFFFF AND PUSH20 0xFFFFFFFFFFFFFFFFFFFFFFFFFFFFFFFFFFFFFFFF AND DUP2 MSTORE PUSH1 0x20 ADD SWAP1 DUP2 MSTORE PUSH1 0x20 ADD PUSH1 0x0 KECCAK256 PUSH1 0x1 ADD DUP1 SLOAD SWAP1 POP PUSH3 0x1D1A SWAP2 SWAP1 PUSH3 0x2C36 JUMP JUMPDEST DUP2 LT ISZERO PUSH3 0x1E67 JUMPI PUSH1 0x6 PUSH1 0x0 DUP6 PUSH20 0xFFFFFFFFFFFFFFFFFFFFFFFFFFFFFFFFFFFFFFFF AND PUSH20 0xFFFFFFFFFFFFFFFFFFFFFFFFFFFFFFFFFFFFFFFF AND DUP2 MSTORE PUSH1 0x20 ADD SWAP1 DUP2 MSTORE PUSH1 0x20 ADD PUSH1 0x0 KECCAK256 PUSH1 0x1 ADD PUSH1 0x1 DUP3 PUSH3 0x1D73 SWAP2 SWAP1 PUSH3 0x2ECD JUMP JUMPDEST DUP2 SLOAD DUP2 LT PUSH3 0x1D87 JUMPI PUSH3 0x1D86 PUSH3 0x2C71 JUMP JUMPDEST JUMPDEST SWAP1 PUSH1 0x0 MSTORE PUSH1 0x20 PUSH1 0x0 KECCAK256 ADD PUSH1 0x0 SWAP1 SLOAD SWAP1 PUSH2 0x100 EXP SWAP1 DIV PUSH20 0xFFFFFFFFFFFFFFFFFFFFFFFFFFFFFFFFFFFFFFFF AND PUSH1 0x6 PUSH1 0x0 DUP7 PUSH20 0xFFFFFFFFFFFFFFFFFFFFFFFFFFFFFFFFFFFFFFFF AND PUSH20 0xFFFFFFFFFFFFFFFFFFFFFFFFFFFFFFFFFFFFFFFF AND DUP2 MSTORE PUSH1 0x20 ADD SWAP1 DUP2 MSTORE PUSH1 0x20 ADD PUSH1 0x0 KECCAK256 PUSH1 0x1 ADD DUP3 DUP2 SLOAD DUP2 LT PUSH3 0x1E09 JUMPI PUSH3 0x1E08 PUSH3 0x2C71 JUMP JUMPDEST JUMPDEST SWAP1 PUSH1 0x0 MSTORE PUSH1 0x20 PUSH1 0x0 KECCAK256 ADD PUSH1 0x0 PUSH2 0x100 EXP DUP2 SLOAD DUP2 PUSH20 0xFFFFFFFFFFFFFFFFFFFFFFFFFFFFFFFFFFFFFFFF MUL NOT AND SWAP1 DUP4 PUSH20 0xFFFFFFFFFFFFFFFFFFFFFFFFFFFFFFFFFFFFFFFF AND MUL OR SWAP1 SSTORE POP DUP1 DUP1 PUSH3 0x1E5E SWAP1 PUSH3 0x2CA0 JUMP JUMPDEST SWAP2 POP POP PUSH3 0x1CC6 JUMP JUMPDEST POP PUSH1 0x6 PUSH1 0x0 DUP5 PUSH20 0xFFFFFFFFFFFFFFFFFFFFFFFFFFFFFFFFFFFFFFFF AND PUSH20 0xFFFFFFFFFFFFFFFFFFFFFFFFFFFFFFFFFFFFFFFF AND DUP2 MSTORE PUSH1 0x20 ADD SWAP1 DUP2 MSTORE PUSH1 0x20 ADD PUSH1 0x0 KECCAK256 PUSH1 0x2 ADD PUSH1 0x6 PUSH1 0x0 DUP6 PUSH20 0xFFFFFFFFFFFFFFFFFFFFFFFFFFFFFFFFFFFFFFFF AND PUSH20 0xFFFFFFFFFFFFFFFFFFFFFFFFFFFFFFFFFFFFFFFF AND DUP2 MSTORE PUSH1 0x20 ADD SWAP1 DUP2 MSTORE PUSH1 0x20 ADD PUSH1 0x0 KECCAK256 PUSH1 0x1 ADD PUSH1 0x1 PUSH1 0x6 PUSH1 0x0 DUP8 PUSH20 0xFFFFFFFFFFFFFFFFFFFFFFFFFFFFFFFFFFFFFFFF AND PUSH20 0xFFFFFFFFFFFFFFFFFFFFFFFFFFFFFFFFFFFFFFFF AND DUP2 MSTORE PUSH1 0x20 ADD SWAP1 DUP2 MSTORE PUSH1 0x20 ADD PUSH1 0x0 KECCAK256 PUSH1 0x1 ADD DUP1 SLOAD SWAP1 POP PUSH3 0x1F40 SWAP2 SWAP1 PUSH3 0x2C36 JUMP JUMPDEST DUP2 SLOAD DUP2 LT PUSH3 0x1F54 JUMPI PUSH3 0x1F53 PUSH3 0x2C71 JUMP JUMPDEST JUMPDEST SWAP1 PUSH1 0x0 MSTORE PUSH1 0x20 PUSH1 0x0 KECCAK256 ADD PUSH1 0x0 SWAP1 SLOAD SWAP1 PUSH2 0x100 EXP SWAP1 DIV PUSH20 0xFFFFFFFFFFFFFFFFFFFFFFFFFFFFFFFFFFFFFFFF AND SWAP1 DUP1 PUSH1 0x1 DUP2 SLOAD ADD DUP1 DUP3 SSTORE DUP1 SWAP2 POP POP PUSH1 0x1 SWAP1 SUB SWAP1 PUSH1 0x0 MSTORE PUSH1 0x20 PUSH1 0x0 KECCAK256 ADD PUSH1 0x0 SWAP1 SWAP2 SWAP1 SWAP2 SWAP1 SWAP2 PUSH2 0x100 EXP DUP2 SLOAD DUP2 PUSH20 0xFFFFFFFFFFFFFFFFFFFFFFFFFFFFFFFFFFFFFFFF MUL NOT AND SWAP1 DUP4 PUSH20 0xFFFFFFFFFFFFFFFFFFFFFFFFFFFFFFFFFFFFFFFF AND MUL OR SWAP1 SSTORE POP PUSH1 0x6 PUSH1 0x0 DUP5 PUSH20 0xFFFFFFFFFFFFFFFFFFFFFFFFFFFFFFFFFFFFFFFF AND PUSH20 0xFFFFFFFFFFFFFFFFFFFFFFFFFFFFFFFFFFFFFFFF AND DUP2 MSTORE PUSH1 0x20 ADD SWAP1 DUP2 MSTORE PUSH1 0x20 ADD PUSH1 0x0 KECCAK256 PUSH1 0x1 ADD DUP1 SLOAD DUP1 PUSH3 0x2034 JUMPI PUSH3 0x2033 PUSH3 0x2F2A JUMP JUMPDEST JUMPDEST PUSH1 0x1 SWAP1 SUB DUP2 DUP2 SWAP1 PUSH1 0x0 MSTORE PUSH1 0x20 PUSH1 0x0 KECCAK256 ADD PUSH1 0x0 PUSH2 0x100 EXP DUP2 SLOAD SWAP1 PUSH20 0xFFFFFFFFFFFFFFFFFFFFFFFFFFFFFFFFFFFFFFFF MUL NOT AND SWAP1 SSTORE SWAP1 SSTORE POP POP POP JUMP JUMPDEST PUSH1 0x0 DUP1 PUSH1 0x0 JUMPDEST PUSH1 0x1 PUSH1 0x0 DUP1 DUP8 PUSH20 0xFFFFFFFFFFFFFFFFFFFFFFFFFFFFFFFFFFFFFFFF AND PUSH20 0xFFFFFFFFFFFFFFFFFFFFFFFFFFFFFFFFFFFFFFFF AND DUP2 MSTORE PUSH1 0x20 ADD SWAP1 DUP2 MSTORE PUSH1 0x20 ADD PUSH1 0x0 KECCAK256 PUSH1 0x1 ADD DUP1 SLOAD SWAP1 POP PUSH3 0x20C7 SWAP2 SWAP1 PUSH3 0x2C36 JUMP JUMPDEST DUP2 GT PUSH3 0x219D JUMPI DUP4 PUSH20 0xFFFFFFFFFFFFFFFFFFFFFFFFFFFFFFFFFFFFFFFF AND PUSH1 0x0 DUP1 DUP8 PUSH20 0xFFFFFFFFFFFFFFFFFFFFFFFFFFFFFFFFFFFFFFFF AND PUSH20 0xFFFFFFFFFFFFFFFFFFFFFFFFFFFFFFFFFFFFFFFF AND DUP2 MSTORE PUSH1 0x20 ADD SWAP1 DUP2 MSTORE PUSH1 0x20 ADD PUSH1 0x0 KECCAK256 PUSH1 0x1 ADD DUP3 DUP2 SLOAD DUP2 LT PUSH3 0x213B JUMPI PUSH3 0x213A PUSH3 0x2C71 JUMP JUMPDEST JUMPDEST SWAP1 PUSH1 0x0 MSTORE PUSH1 0x20 PUSH1 0x0 KECCAK256 ADD PUSH1 0x0 SWAP1 SLOAD SWAP1 PUSH2 0x100 EXP SWAP1 DIV PUSH20 0xFFFFFFFFFFFFFFFFFFFFFFFFFFFFFFFFFFFFFFFF AND PUSH20 0xFFFFFFFFFFFFFFFFFFFFFFFFFFFFFFFFFFFFFFFF AND EQ ISZERO PUSH3 0x2187 JUMPI DUP1 SWAP2 POP JUMPDEST DUP1 DUP1 PUSH3 0x2194 SWAP1 PUSH3 0x2CA0 JUMP JUMPDEST SWAP2 POP POP PUSH3 0x2074 JUMP JUMPDEST POP DUP1 SWAP2 POP POP SWAP3 SWAP2 POP POP JUMP JUMPDEST PUSH1 0x0 DUP1 PUSH1 0x0 JUMPDEST PUSH1 0x1 PUSH1 0x6 PUSH1 0x0 DUP8 PUSH20 0xFFFFFFFFFFFFFFFFFFFFFFFFFFFFFFFFFFFFFFFF AND PUSH20 0xFFFFFFFFFFFFFFFFFFFFFFFFFFFFFFFFFFFFFFFF AND DUP2 MSTORE PUSH1 0x20 ADD SWAP1 DUP2 MSTORE PUSH1 0x20 ADD PUSH1 0x0 KECCAK256 PUSH1 0x1 ADD DUP1 SLOAD SWAP1 POP PUSH3 0x2202 SWAP2 SWAP1 PUSH3 0x2C36 JUMP JUMPDEST DUP2 GT PUSH3 0x22D9 JUMPI DUP4 PUSH20 0xFFFFFFFFFFFFFFFFFFFFFFFFFFFFFFFFFFFFFFFF AND PUSH1 0x6 PUSH1 0x0 DUP8 PUSH20 0xFFFFFFFFFFFFFFFFFFFFFFFFFFFFFFFFFFFFFFFF AND PUSH20 0xFFFFFFFFFFFFFFFFFFFFFFFFFFFFFFFFFFFFFFFF AND DUP2 MSTORE PUSH1 0x20 ADD SWAP1 DUP2 MSTORE PUSH1 0x20 ADD PUSH1 0x0 KECCAK256 PUSH1 0x1 ADD DUP3 DUP2 SLOAD DUP2 LT PUSH3 0x2277 JUMPI PUSH3 0x2276 PUSH3 0x2C71 JUMP JUMPDEST JUMPDEST SWAP1 PUSH1 0x0 MSTORE PUSH1 0x20 PUSH1 0x0 KECCAK256 ADD PUSH1 0x0 SWAP1 SLOAD SWAP1 PUSH2 0x100 EXP SWAP1 DIV PUSH20 0xFFFFFFFFFFFFFFFFFFFFFFFFFFFFFFFFFFFFFFFF AND PUSH20 0xFFFFFFFFFFFFFFFFFFFFFFFFFFFFFFFFFFFFFFFF AND EQ ISZERO PUSH3 0x22C3 JUMPI DUP1 SWAP2 POP JUMPDEST DUP1 DUP1 PUSH3 0x22D0 SWAP1 PUSH3 0x2CA0 JUMP JUMPDEST SWAP2 POP POP PUSH3 0x21AE JUMP JUMPDEST POP DUP1 SWAP2 POP POP SWAP3 SWAP2 POP POP JUMP JUMPDEST PUSH2 0x3DA DUP1 PUSH3 0x2F5A DUP4 CODECOPY ADD SWAP1 JUMP JUMPDEST PUSH2 0x119C DUP1 PUSH3 0x3334 DUP4 CODECOPY ADD SWAP1 JUMP JUMPDEST PUSH1 0x0 PUSH1 0x40 MLOAD SWAP1 POP SWAP1 JUMP JUMPDEST PUSH1 0x0 DUP1 REVERT JUMPDEST PUSH1 0x0 DUP1 REVERT JUMPDEST PUSH1 0x0 PUSH20 0xFFFFFFFFFFFFFFFFFFFFFFFFFFFFFFFFFFFFFFFF DUP3 AND SWAP1 POP SWAP2 SWAP1 POP JUMP JUMPDEST PUSH1 0x0 PUSH3 0x2341 DUP3 PUSH3 0x2314 JUMP JUMPDEST SWAP1 POP SWAP2 SWAP1 POP JUMP JUMPDEST PUSH3 0x2353 DUP2 PUSH3 0x2334 JUMP JUMPDEST DUP2 EQ PUSH3 0x235F JUMPI PUSH1 0x0 DUP1 REVERT JUMPDEST POP JUMP JUMPDEST PUSH1 0x0 DUP2 CALLDATALOAD SWAP1 POP PUSH3 0x2373 DUP2 PUSH3 0x2348 JUMP JUMPDEST SWAP3 SWAP2 POP POP JUMP JUMPDEST PUSH1 0x0 DUP1 PUSH1 0x40 DUP4 DUP6 SUB SLT ISZERO PUSH3 0x2393 JUMPI PUSH3 0x2392 PUSH3 0x230A JUMP JUMPDEST JUMPDEST PUSH1 0x0 PUSH3 0x23A3 DUP6 DUP3 DUP7 ADD PUSH3 0x2362 JUMP JUMPDEST SWAP3 POP POP PUSH1 0x20 PUSH3 0x23B6 DUP6 DUP3 DUP7 ADD PUSH3 0x2362 JUMP JUMPDEST SWAP2 POP POP SWAP3 POP SWAP3 SWAP1 POP JUMP JUMPDEST PUSH1 0x0 DUP2 SWAP1 POP SWAP2 SWAP1 POP JUMP JUMPDEST PUSH3 0x23D5 DUP2 PUSH3 0x23C0 JUMP JUMPDEST DUP2 EQ PUSH3 0x23E1 JUMPI PUSH1 0x0 DUP1 REVERT JUMPDEST POP JUMP JUMPDEST PUSH1 0x0 DUP2 CALLDATALOAD SWAP1 POP PUSH3 0x23F5 DUP2 PUSH3 0x23CA JUMP JUMPDEST SWAP3 SWAP2 POP POP JUMP JUMPDEST PUSH1 0x0 DUP1 PUSH1 0x40 DUP4 DUP6 SUB SLT ISZERO PUSH3 0x2415 JUMPI PUSH3 0x2414 PUSH3 0x230A JUMP JUMPDEST JUMPDEST PUSH1 0x0 PUSH3 0x2425 DUP6 DUP3 DUP7 ADD PUSH3 0x23E4 JUMP JUMPDEST SWAP3 POP POP PUSH1 0x20 PUSH3 0x2438 DUP6 DUP3 DUP7 ADD PUSH3 0x23E4 JUMP JUMPDEST SWAP2 POP POP SWAP3 POP SWAP3 SWAP1 POP JUMP JUMPDEST PUSH1 0x0 DUP2 MLOAD SWAP1 POP SWAP2 SWAP1 POP JUMP JUMPDEST PUSH1 0x0 DUP3 DUP3 MSTORE PUSH1 0x20 DUP3 ADD SWAP1 POP SWAP3 SWAP2 POP POP JUMP JUMPDEST PUSH1 0x0 DUP2 SWAP1 POP PUSH1 0x20 DUP3 ADD SWAP1 POP SWAP2 SWAP1 POP JUMP JUMPDEST PUSH3 0x2479 DUP2 PUSH3 0x2334 JUMP JUMPDEST DUP3 MSTORE POP POP JUMP JUMPDEST PUSH1 0x0 PUSH3 0x248D DUP4 DUP4 PUSH3 0x246E JUMP JUMPDEST PUSH1 0x20 DUP4 ADD SWAP1 POP SWAP3 SWAP2 POP POP JUMP JUMPDEST PUSH1 0x0 PUSH1 0x20 DUP3 ADD SWAP1 POP SWAP2 SWAP1 POP JUMP JUMPDEST PUSH1 0x0 PUSH3 0x24B3 DUP3 PUSH3 0x2442 JUMP JUMPDEST PUSH3 0x24BF DUP2 DUP6 PUSH3 0x244D JUMP JUMPDEST SWAP4 POP PUSH3 0x24CC DUP4 PUSH3 0x245E JUMP JUMPDEST DUP1 PUSH1 0x0 JUMPDEST DUP4 DUP2 LT ISZERO PUSH3 0x2503 JUMPI DUP2 MLOAD PUSH3 0x24E7 DUP9 DUP3 PUSH3 0x247F JUMP JUMPDEST SWAP8 POP PUSH3 0x24F4 DUP4 PUSH3 0x2499 JUMP JUMPDEST SWAP3 POP POP PUSH1 0x1 DUP2 ADD SWAP1 POP PUSH3 0x24D0 JUMP JUMPDEST POP DUP6 SWAP4 POP POP POP POP SWAP3 SWAP2 POP POP JUMP JUMPDEST PUSH1 0x0 PUSH1 0x20 DUP3 ADD SWAP1 POP DUP2 DUP2 SUB PUSH1 0x0 DUP4 ADD MSTORE PUSH3 0x252C DUP2 DUP5 PUSH3 0x24A6 JUMP JUMPDEST SWAP1 POP SWAP3 SWAP2 POP POP JUMP JUMPDEST PUSH1 0x0 PUSH1 0x20 DUP3 DUP5 SUB SLT ISZERO PUSH3 0x254D JUMPI PUSH3 0x254C PUSH3 0x230A JUMP JUMPDEST JUMPDEST PUSH1 0x0 PUSH3 0x255D DUP5 DUP3 DUP6 ADD PUSH3 0x2362 JUMP JUMPDEST SWAP2 POP POP SWAP3 SWAP2 POP POP JUMP JUMPDEST PUSH1 0x0 PUSH1 0x20 DUP3 DUP5 SUB SLT ISZERO PUSH3 0x257F JUMPI PUSH3 0x257E PUSH3 0x230A JUMP JUMPDEST JUMPDEST PUSH1 0x0 PUSH3 0x258F DUP5 DUP3 DUP6 ADD PUSH3 0x23E4 JUMP JUMPDEST SWAP2 POP POP SWAP3 SWAP2 POP POP JUMP JUMPDEST PUSH3 0x25A3 DUP2 PUSH3 0x2334 JUMP JUMPDEST DUP3 MSTORE POP POP JUMP JUMPDEST PUSH1 0x0 PUSH1 0x20 DUP3 ADD SWAP1 POP PUSH3 0x25C0 PUSH1 0x0 DUP4 ADD DUP5 PUSH3 0x2598 JUMP JUMPDEST SWAP3 SWAP2 POP POP JUMP JUMPDEST PUSH3 0x25D1 DUP2 PUSH3 0x23C0 JUMP JUMPDEST DUP3 MSTORE POP POP JUMP JUMPDEST PUSH1 0x0 PUSH1 0x20 DUP3 ADD SWAP1 POP PUSH3 0x25EE PUSH1 0x0 DUP4 ADD DUP5 PUSH3 0x25C6 JUMP JUMPDEST SWAP3 SWAP2 POP POP JUMP JUMPDEST PUSH1 0x0 DUP1 REVERT JUMPDEST PUSH1 0x0 DUP1 REVERT JUMPDEST PUSH1 0x0 PUSH1 0x1F NOT PUSH1 0x1F DUP4 ADD AND SWAP1 POP SWAP2 SWAP1 POP JUMP JUMPDEST PUSH32 0x4E487B7100000000000000000000000000000000000000000000000000000000 PUSH1 0x0 MSTORE PUSH1 0x41 PUSH1 0x4 MSTORE PUSH1 0x24 PUSH1 0x0 REVERT JUMPDEST PUSH3 0x2649 DUP3 PUSH3 0x25FE JUMP JUMPDEST DUP2 ADD DUP2 DUP2 LT PUSH8 0xFFFFFFFFFFFFFFFF DUP3 GT OR ISZERO PUSH3 0x266B JUMPI PUSH3 0x266A PUSH3 0x260F JUMP JUMPDEST JUMPDEST DUP1 PUSH1 0x40 MSTORE POP POP POP JUMP JUMPDEST PUSH1 0x0 PUSH3 0x2680 PUSH3 0x2300 JUMP JUMPDEST SWAP1 POP PUSH3 0x268E DUP3 DUP3 PUSH3 0x263E JUMP JUMPDEST SWAP2 SWAP1 POP JUMP JUMPDEST PUSH1 0x0 PUSH8 0xFFFFFFFFFFFFFFFF DUP3 GT ISZERO PUSH3 0x26B1 JUMPI PUSH3 0x26B0 PUSH3 0x260F JUMP JUMPDEST JUMPDEST PUSH3 0x26BC DUP3 PUSH3 0x25FE JUMP JUMPDEST SWAP1 POP PUSH1 0x20 DUP2 ADD SWAP1 POP SWAP2 SWAP1 POP JUMP JUMPDEST DUP3 DUP2 DUP4 CALLDATACOPY PUSH1 0x0 DUP4 DUP4 ADD MSTORE POP POP POP JUMP JUMPDEST PUSH1 0x0 PUSH3 0x26EF PUSH3 0x26E9 DUP5 PUSH3 0x2693 JUMP JUMPDEST PUSH3 0x2674 JUMP JUMPDEST SWAP1 POP DUP3 DUP2 MSTORE PUSH1 0x20 DUP2 ADD DUP5 DUP5 DUP5 ADD GT ISZERO PUSH3 0x270E JUMPI PUSH3 0x270D PUSH3 0x25F9 JUMP JUMPDEST JUMPDEST PUSH3 0x271B DUP5 DUP3 DUP6 PUSH3 0x26C9 JUMP JUMPDEST POP SWAP4 SWAP3 POP POP POP JUMP JUMPDEST PUSH1 0x0 DUP3 PUSH1 0x1F DUP4 ADD SLT PUSH3 0x273B JUMPI PUSH3 0x273A PUSH3 0x25F4 JUMP JUMPDEST JUMPDEST DUP2 CALLDATALOAD PUSH3 0x274D DUP5 DUP3 PUSH1 0x20 DUP7 ADD PUSH3 0x26D8 JUMP JUMPDEST SWAP2 POP POP SWAP3 SWAP2 POP POP JUMP JUMPDEST PUSH1 0x0 PUSH3 0x2763 DUP3 PUSH3 0x2314 JUMP JUMPDEST SWAP1 POP SWAP2 SWAP1 POP JUMP JUMPDEST PUSH3 0x2775 DUP2 PUSH3 0x2756 JUMP JUMPDEST DUP2 EQ PUSH3 0x2781 JUMPI PUSH1 0x0 DUP1 REVERT JUMPDEST POP JUMP JUMPDEST PUSH1 0x0 DUP2 CALLDATALOAD SWAP1 POP PUSH3 0x2795 DUP2 PUSH3 0x276A JUMP JUMPDEST SWAP3 SWAP2 POP POP JUMP JUMPDEST PUSH1 0x0 DUP1 PUSH1 0x0 DUP1 PUSH1 0x80 DUP6 DUP8 SUB SLT ISZERO PUSH3 0x27B8 JUMPI PUSH3 0x27B7 PUSH3 0x230A JUMP JUMPDEST JUMPDEST PUSH1 0x0 PUSH3 0x27C8 DUP8 DUP3 DUP9 ADD PUSH3 0x2362 JUMP JUMPDEST SWAP5 POP POP PUSH1 0x20 DUP6 ADD CALLDATALOAD PUSH8 0xFFFFFFFFFFFFFFFF DUP2 GT ISZERO PUSH3 0x27EC JUMPI PUSH3 0x27EB PUSH3 0x230F JUMP JUMPDEST JUMPDEST PUSH3 0x27FA DUP8 DUP3 DUP9 ADD PUSH3 0x2723 JUMP JUMPDEST SWAP4 POP POP PUSH1 0x40 DUP6 ADD CALLDATALOAD PUSH8 0xFFFFFFFFFFFFFFFF DUP2 GT ISZERO PUSH3 0x281E JUMPI PUSH3 0x281D PUSH3 0x230F JUMP JUMPDEST JUMPDEST PUSH3 0x282C DUP8 DUP3 DUP9 ADD PUSH3 0x2723 JUMP JUMPDEST SWAP3 POP POP PUSH1 0x60 PUSH3 0x283F DUP8 DUP3 DUP9 ADD PUSH3 0x2784 JUMP JUMPDEST SWAP2 POP POP SWAP3 SWAP6 SWAP2 SWAP5 POP SWAP3 POP JUMP JUMPDEST PUSH32 0x4E487B7100000000000000000000000000000000000000000000000000000000 PUSH1 0x0 MSTORE PUSH1 0x21 PUSH1 0x4 MSTORE PUSH1 0x24 PUSH1 0x0 REVERT JUMPDEST PUSH1 0x3 DUP2 LT PUSH3 0x2888 JUMPI PUSH1 0x0 DUP1 REVERT JUMPDEST POP JUMP JUMPDEST PUSH1 0x0 DUP2 MLOAD SWAP1 POP PUSH3 0x289C DUP2 PUSH3 0x287A JUMP JUMPDEST SWAP3 SWAP2 POP POP JUMP JUMPDEST PUSH1 0x0 PUSH1 0x20 DUP3 DUP5 SUB SLT ISZERO PUSH3 0x28BB JUMPI PUSH3 0x28BA PUSH3 0x230A JUMP JUMPDEST JUMPDEST PUSH1 0x0 PUSH3 0x28CB DUP5 DUP3 DUP6 ADD PUSH3 0x288B JUMP JUMPDEST SWAP2 POP POP SWAP3 SWAP2 POP POP JUMP JUMPDEST PUSH1 0x0 DUP3 DUP3 MSTORE PUSH1 0x20 DUP3 ADD SWAP1 POP SWAP3 SWAP2 POP POP JUMP JUMPDEST PUSH32 0x436F6E747261637420737461747573206D757374206265206F70656E00000000 PUSH1 0x0 DUP3 ADD MSTORE POP JUMP JUMPDEST PUSH1 0x0 PUSH3 0x291D PUSH1 0x1C DUP4 PUSH3 0x28D4 JUMP JUMPDEST SWAP2 POP PUSH3 0x292A DUP3 PUSH3 0x28E5 JUMP JUMPDEST PUSH1 0x20 DUP3 ADD SWAP1 POP SWAP2 SWAP1 POP JUMP JUMPDEST PUSH1 0x0 PUSH1 0x20 DUP3 ADD SWAP1 POP DUP2 DUP2 SUB PUSH1 0x0 DUP4 ADD MSTORE PUSH3 0x2950 DUP2 PUSH3 0x290E JUMP JUMPDEST SWAP1 POP SWAP2 SWAP1 POP JUMP JUMPDEST PUSH1 0x0 DUP2 MLOAD SWAP1 POP PUSH3 0x2968 DUP2 PUSH3 0x2348 JUMP JUMPDEST SWAP3 SWAP2 POP POP JUMP JUMPDEST PUSH1 0x0 PUSH1 0x20 DUP3 DUP5 SUB SLT ISZERO PUSH3 0x2987 JUMPI PUSH3 0x2986 PUSH3 0x230A JUMP JUMPDEST JUMPDEST PUSH1 0x0 PUSH3 0x2997 DUP5 DUP3 DUP6 ADD PUSH3 0x2957 JUMP JUMPDEST SWAP2 POP POP SWAP3 SWAP2 POP POP JUMP JUMPDEST PUSH32 0x436F6E74726163742072656665726565206D75737420657175616C2072657175 PUSH1 0x0 DUP3 ADD MSTORE PUSH32 0x6573746564207265666572656500000000000000000000000000000000000000 PUSH1 0x20 DUP3 ADD MSTORE POP JUMP JUMPDEST PUSH1 0x0 PUSH3 0x29FE PUSH1 0x2D DUP4 PUSH3 0x28D4 JUMP JUMPDEST SWAP2 POP PUSH3 0x2A0B DUP3 PUSH3 0x29A0 JUMP JUMPDEST PUSH1 0x40 DUP3 ADD SWAP1 POP SWAP2 SWAP1 POP JUMP JUMPDEST PUSH1 0x0 PUSH1 0x20 DUP3 ADD SWAP1 POP DUP2 DUP2 SUB PUSH1 0x0 DUP4 ADD MSTORE PUSH3 0x2A31 DUP2 PUSH3 0x29EF JUMP JUMPDEST SWAP1 POP SWAP2 SWAP1 POP JUMP JUMPDEST PUSH32 0x4F6E6C792063726561746F72206F6620636F6E74726163742063616E20726571 PUSH1 0x0 DUP3 ADD MSTORE PUSH32 0x7565737420636F6D706C6574696F6E0000000000000000000000000000000000 PUSH1 0x20 DUP3 ADD MSTORE POP JUMP JUMPDEST PUSH1 0x0 PUSH3 0x2A96 PUSH1 0x2F DUP4 PUSH3 0x28D4 JUMP JUMPDEST SWAP2 POP PUSH3 0x2AA3 DUP3 PUSH3 0x2A38 JUMP JUMPDEST PUSH1 0x40 DUP3 ADD SWAP1 POP SWAP2 SWAP1 POP JUMP JUMPDEST PUSH1 0x0 PUSH1 0x20 DUP3 ADD SWAP1 POP DUP2 DUP2 SUB PUSH1 0x0 DUP4 ADD MSTORE PUSH3 0x2AC9 DUP2 PUSH3 0x2A87 JUMP JUMPDEST SWAP1 POP SWAP2 SWAP1 POP JUMP JUMPDEST PUSH1 0x0 PUSH1 0x40 DUP3 ADD SWAP1 POP PUSH3 0x2AE7 PUSH1 0x0 DUP4 ADD DUP6 PUSH3 0x2598 JUMP JUMPDEST PUSH3 0x2AF6 PUSH1 0x20 DUP4 ADD DUP5 PUSH3 0x2598 JUMP JUMPDEST SWAP4 SWAP3 POP POP POP JUMP JUMPDEST PUSH32 0x537461727420696E6465782063616E6E6F74206265206E656761746976650000 PUSH1 0x0 DUP3 ADD MSTORE POP JUMP JUMPDEST PUSH1 0x0 PUSH3 0x2B35 PUSH1 0x1E DUP4 PUSH3 0x28D4 JUMP JUMPDEST SWAP2 POP PUSH3 0x2B42 DUP3 PUSH3 0x2AFD JUMP JUMPDEST PUSH1 0x20 DUP3 ADD SWAP1 POP SWAP2 SWAP1 POP JUMP JUMPDEST PUSH1 0x0 PUSH1 0x20 DUP3 ADD SWAP1 POP DUP2 DUP2 SUB PUSH1 0x0 DUP4 ADD MSTORE PUSH3 0x2B68 DUP2 PUSH3 0x2B26 JUMP JUMPDEST SWAP1 POP SWAP2 SWAP1 POP JUMP JUMPDEST PUSH32 0x456E6420696E6465782065786365656473207573657220616464726573736573 PUSH1 0x0 DUP3 ADD MSTORE PUSH32 0x206C656E67746800000000000000000000000000000000000000000000000000 PUSH1 0x20 DUP3 ADD MSTORE POP JUMP JUMPDEST PUSH1 0x0 PUSH3 0x2BCD PUSH1 0x27 DUP4 PUSH3 0x28D4 JUMP JUMPDEST SWAP2 POP PUSH3 0x2BDA DUP3 PUSH3 0x2B6F JUMP JUMPDEST PUSH1 0x40 DUP3 ADD SWAP1 POP SWAP2 SWAP1 POP JUMP JUMPDEST PUSH1 0x0 PUSH1 0x20 DUP3 ADD SWAP1 POP DUP2 DUP2 SUB PUSH1 0x0 DUP4 ADD MSTORE PUSH3 0x2C00 DUP2 PUSH3 0x2BBE JUMP JUMPDEST SWAP1 POP SWAP2 SWAP1 POP JUMP JUMPDEST PUSH32 0x4E487B7100000000000000000000000000000000000000000000000000000000 PUSH1 0x0 MSTORE PUSH1 0x11 PUSH1 0x4 MSTORE PUSH1 0x24 PUSH1 0x0 REVERT JUMPDEST PUSH1 0x0 PUSH3 0x2C43 DUP3 PUSH3 0x23C0 JUMP JUMPDEST SWAP2 POP PUSH3 0x2C50 DUP4 PUSH3 0x23C0 JUMP JUMPDEST SWAP3 POP DUP3 DUP3 LT ISZERO PUSH3 0x2C66 JUMPI PUSH3 0x2C65 PUSH3 0x2C07 JUMP JUMPDEST JUMPDEST DUP3 DUP3 SUB SWAP1 POP SWAP3 SWAP2 POP POP JUMP JUMPDEST PUSH32 0x4E487B7100000000000000000000000000000000000000000000000000000000 PUSH1 0x0 MSTORE PUSH1 0x32 PUSH1 0x4 MSTORE PUSH1 0x24 PUSH1 0x0 REVERT JUMPDEST PUSH1 0x0 PUSH3 0x2CAD DUP3 PUSH3 0x23C0 JUMP JUMPDEST SWAP2 POP PUSH32 0xFFFFFFFFFFFFFFFFFFFFFFFFFFFFFFFFFFFFFFFFFFFFFFFFFFFFFFFFFFFFFFFF DUP3 EQ ISZERO PUSH3 0x2CE3 JUMPI PUSH3 0x2CE2 PUSH3 0x2C07 JUMP JUMPDEST JUMPDEST PUSH1 0x1 DUP3 ADD SWAP1 POP SWAP2 SWAP1 POP JUMP JUMPDEST PUSH1 0x0 PUSH3 0x2CFB DUP3 PUSH3 0x2334 JUMP JUMPDEST SWAP1 POP SWAP2 SWAP1 POP JUMP JUMPDEST PUSH3 0x2D0D DUP2 PUSH3 0x2CEE JUMP JUMPDEST DUP2 EQ PUSH3 0x2D19 JUMPI PUSH1 0x0 DUP1 REVERT JUMPDEST POP JUMP JUMPDEST PUSH1 0x0 DUP2 MLOAD SWAP1 POP PUSH3 0x2D2D DUP2 PUSH3 0x2D02 JUMP JUMPDEST SWAP3 SWAP2 POP POP JUMP JUMPDEST PUSH1 0x0 PUSH1 0x20 DUP3 DUP5 SUB SLT ISZERO PUSH3 0x2D4C JUMPI PUSH3 0x2D4B PUSH3 0x230A JUMP JUMPDEST JUMPDEST PUSH1 0x0 PUSH3 0x2D5C DUP5 DUP3 DUP6 ADD PUSH3 0x2D1C JUMP JUMPDEST SWAP2 POP POP SWAP3 SWAP2 POP POP JUMP JUMPDEST PUSH1 0x0 DUP2 MLOAD SWAP1 POP SWAP2 SWAP1 POP JUMP JUMPDEST PUSH1 0x0 JUMPDEST DUP4 DUP2 LT ISZERO PUSH3 0x2D90 JUMPI DUP1 DUP3 ADD MLOAD DUP2 DUP5 ADD MSTORE PUSH1 0x20 DUP2 ADD SWAP1 POP PUSH3 0x2D73 JUMP JUMPDEST DUP4 DUP2 GT ISZERO PUSH3 0x2DA0 JUMPI PUSH1 0x0 DUP5 DUP5 ADD MSTORE JUMPDEST POP POP POP POP JUMP JUMPDEST PUSH1 0x0 PUSH3 0x2DB3 DUP3 PUSH3 0x2D65 JUMP JUMPDEST PUSH3 0x2DBF DUP2 DUP6 PUSH3 0x28D4 JUMP JUMPDEST SWAP4 POP PUSH3 0x2DD1 DUP2 DUP6 PUSH1 0x20 DUP7 ADD PUSH3 0x2D70 JUMP JUMPDEST PUSH3 0x2DDC DUP2 PUSH3 0x25FE JUMP JUMPDEST DUP5 ADD SWAP2 POP POP SWAP3 SWAP2 POP POP JUMP JUMPDEST PUSH1 0x0 DUP2 SWAP1 POP SWAP2 SWAP1 POP JUMP JUMPDEST PUSH1 0x0 PUSH3 0x2E12 PUSH3 0x2E0C PUSH3 0x2E06 DUP5 PUSH3 0x2314 JUMP JUMPDEST PUSH3 0x2DE7 JUMP JUMPDEST PUSH3 0x2314 JUMP JUMPDEST SWAP1 POP SWAP2 SWAP1 POP JUMP JUMPDEST PUSH1 0x0 PUSH3 0x2E26 DUP3 PUSH3 0x2DF1 JUMP JUMPDEST SWAP1 POP SWAP2 SWAP1 POP JUMP JUMPDEST PUSH1 0x0 PUSH3 0x2E3A DUP3 PUSH3 0x2E19 JUMP JUMPDEST SWAP1 POP SWAP2 SWAP1 POP JUMP JUMPDEST PUSH3 0x2E4C DUP2 PUSH3 0x2E2D JUMP JUMPDEST DUP3 MSTORE POP POP JUMP JUMPDEST PUSH1 0x0 PUSH1 0xC0 DUP3 ADD SWAP1 POP PUSH3 0x2E69 PUSH1 0x0 DUP4 ADD DUP10 PUSH3 0x2598 JUMP JUMPDEST PUSH3 0x2E78 PUSH1 0x20 DUP4 ADD DUP9 PUSH3 0x2598 JUMP JUMPDEST DUP2 DUP2 SUB PUSH1 0x40 DUP4 ADD MSTORE PUSH3 0x2E8C DUP2 DUP8 PUSH3 0x2DA6 JUMP JUMPDEST SWAP1 POP DUP2 DUP2 SUB PUSH1 0x60 DUP4 ADD MSTORE PUSH3 0x2EA2 DUP2 DUP7 PUSH3 0x2DA6 JUMP JUMPDEST SWAP1 POP PUSH3 0x2EB3 PUSH1 0x80 DUP4 ADD DUP6 PUSH3 0x2E41 JUMP JUMPDEST PUSH3 0x2EC2 PUSH1 0xA0 DUP4 ADD DUP5 PUSH3 0x25C6 JUMP JUMPDEST SWAP8 SWAP7 POP POP POP POP POP POP POP JUMP JUMPDEST PUSH1 0x0 PUSH3 0x2EDA DUP3 PUSH3 0x23C0 JUMP JUMPDEST SWAP2 POP PUSH3 0x2EE7 DUP4 PUSH3 0x23C0 JUMP JUMPDEST SWAP3 POP DUP3 PUSH32 0xFFFFFFFFFFFFFFFFFFFFFFFFFFFFFFFFFFFFFFFFFFFFFFFFFFFFFFFFFFFFFFFF SUB DUP3 GT ISZERO PUSH3 0x2F1F JUMPI PUSH3 0x2F1E PUSH3 0x2C07 JUMP JUMPDEST JUMPDEST DUP3 DUP3 ADD SWAP1 POP SWAP3 SWAP2 POP POP JUMP JUMPDEST PUSH32 0x4E487B7100000000000000000000000000000000000000000000000000000000 PUSH1 0x0 MSTORE PUSH1 0x31 PUSH1 0x4 MSTORE PUSH1 0x24 PUSH1 0x0 REVERT INVALID PUSH1 0x80 PUSH1 0x40 MSTORE PUSH1 0x40 MLOAD PUSH2 0x3DA CODESIZE SUB DUP1 PUSH2 0x3DA DUP4 CODECOPY DUP2 DUP2 ADD PUSH1 0x40 MSTORE DUP2 ADD SWAP1 PUSH2 0x25 SWAP2 SWAP1 PUSH2 0x13B JUMP JUMPDEST DUP2 PUSH1 0x0 DUP1 PUSH2 0x100 EXP DUP2 SLOAD DUP2 PUSH20 0xFFFFFFFFFFFFFFFFFFFFFFFFFFFFFFFFFFFFFFFF MUL NOT AND SWAP1 DUP4 PUSH20 0xFFFFFFFFFFFFFFFFFFFFFFFFFFFFFFFFFFFFFFFF AND MUL OR SWAP1 SSTORE POP DUP1 PUSH1 0x1 PUSH1 0x0 PUSH2 0x100 EXP DUP2 SLOAD DUP2 PUSH20 0xFFFFFFFFFFFFFFFFFFFFFFFFFFFFFFFFFFFFFFFF MUL NOT AND SWAP1 DUP4 PUSH20 0xFFFFFFFFFFFFFFFFFFFFFFFFFFFFFFFFFFFFFFFF AND MUL OR SWAP1 SSTORE POP PUSH1 0x0 PUSH1 0x1 PUSH1 0x14 PUSH2 0x100 EXP DUP2 SLOAD DUP2 PUSH1 0xFF MUL NOT AND SWAP1 DUP4 PUSH1 0x1 DUP2 GT ISZERO PUSH2 0xCC JUMPI PUSH2 0xCB PUSH2 0x17B JUMP JUMPDEST JUMPDEST MUL OR SWAP1 SSTORE POP POP POP PUSH2 0x1AA JUMP JUMPDEST PUSH1 0x0 DUP1 REVERT JUMPDEST PUSH1 0x0 PUSH20 0xFFFFFFFFFFFFFFFFFFFFFFFFFFFFFFFFFFFFFFFF DUP3 AND SWAP1 POP SWAP2 SWAP1 POP JUMP JUMPDEST PUSH1 0x0 PUSH2 0x108 DUP3 PUSH2 0xDD JUMP JUMPDEST SWAP1 POP SWAP2 SWAP1 POP JUMP JUMPDEST PUSH2 0x118 DUP2 PUSH2 0xFD JUMP JUMPDEST DUP2 EQ PUSH2 0x123 JUMPI PUSH1 0x0 DUP1 REVERT JUMPDEST POP JUMP JUMPDEST PUSH1 0x0 DUP2 MLOAD SWAP1 POP PUSH2 0x135 DUP2 PUSH2 0x10F JUMP JUMPDEST SWAP3 SWAP2 POP POP JUMP JUMPDEST PUSH1 0x0 DUP1 PUSH1 0x40 DUP4 DUP6 SUB SLT ISZERO PUSH2 0x152 JUMPI PUSH2 0x151 PUSH2 0xD8 JUMP JUMPDEST JUMPDEST PUSH1 0x0 PUSH2 0x160 DUP6 DUP3 DUP7 ADD PUSH2 0x126 JUMP JUMPDEST SWAP3 POP POP PUSH1 0x20 PUSH2 0x171 DUP6 DUP3 DUP7 ADD PUSH2 0x126 JUMP JUMPDEST SWAP2 POP POP SWAP3 POP SWAP3 SWAP1 POP JUMP JUMPDEST PUSH32 0x4E487B7100000000000000000000000000000000000000000000000000000000 PUSH1 0x0 MSTORE PUSH1 0x21 PUSH1 0x4 MSTORE PUSH1 0x24 PUSH1 0x0 REVERT JUMPDEST PUSH2 0x221 DUP1 PUSH2 0x1B9 PUSH1 0x0 CODECOPY PUSH1 0x0 RETURN INVALID PUSH1 0x80 PUSH1 0x40 MSTORE CALLVALUE DUP1 ISZERO PUSH2 0x10 JUMPI PUSH1 0x0 DUP1 REVERT JUMPDEST POP PUSH1 0x4 CALLDATASIZE LT PUSH2 0x41 JUMPI PUSH1 0x0 CALLDATALOAD PUSH1 0xE0 SHR DUP1 PUSH4 0x200D2ED2 EQ PUSH2 0x46 JUMPI DUP1 PUSH4 0x3C490174 EQ PUSH2 0x64 JUMPI DUP1 PUSH4 0x4F8632BA EQ PUSH2 0x82 JUMPI JUMPDEST PUSH1 0x0 DUP1 REVERT JUMPDEST PUSH2 0x4E PUSH2 0xA0 JUMP JUMPDEST PUSH1 0x40 MLOAD PUSH2 0x5B SWAP2 SWAP1 PUSH2 0x174 JUMP JUMPDEST PUSH1 0x40 MLOAD DUP1 SWAP2 SUB SWAP1 RETURN JUMPDEST PUSH2 0x6C PUSH2 0xB3 JUMP JUMPDEST PUSH1 0x40 MLOAD PUSH2 0x79 SWAP2 SWAP1 PUSH2 0x1D0 JUMP JUMPDEST PUSH1 0x40 MLOAD DUP1 SWAP2 SUB SWAP1 RETURN JUMPDEST PUSH2 0x8A PUSH2 0xD9 JUMP JUMPDEST PUSH1 0x40 MLOAD PUSH2 0x97 SWAP2 SWAP1 PUSH2 0x1D0 JUMP JUMPDEST PUSH1 0x40 MLOAD DUP1 SWAP2 SUB SWAP1 RETURN JUMPDEST PUSH1 0x1 PUSH1 0x14 SWAP1 SLOAD SWAP1 PUSH2 0x100 EXP SWAP1 DIV PUSH1 0xFF AND DUP2 JUMP JUMPDEST PUSH1 0x1 PUSH1 0x0 SWAP1 SLOAD SWAP1 PUSH2 0x100 EXP SWAP1 DIV PUSH20 0xFFFFFFFFFFFFFFFFFFFFFFFFFFFFFFFFFFFFFFFF AND DUP2 JUMP JUMPDEST PUSH1 0x0 DUP1 SLOAD SWAP1 PUSH2 0x100 EXP SWAP1 DIV PUSH20 0xFFFFFFFFFFFFFFFFFFFFFFFFFFFFFFFFFFFFFFFF AND DUP2 JUMP JUMPDEST PUSH32 0x4E487B7100000000000000000000000000000000000000000000000000000000 PUSH1 0x0 MSTORE PUSH1 0x21 PUSH1 0x4 MSTORE PUSH1 0x24 PUSH1 0x0 REVERT JUMPDEST PUSH1 0x2 DUP2 LT PUSH2 0x13D JUMPI PUSH2 0x13C PUSH2 0xFD JUMP JUMPDEST JUMPDEST POP JUMP JUMPDEST PUSH1 0x0 DUP2 SWAP1 POP PUSH2 0x14E DUP3 PUSH2 0x12C JUMP JUMPDEST SWAP2 SWAP1 POP JUMP JUMPDEST PUSH1 0x0 PUSH2 0x15E DUP3 PUSH2 0x140 JUMP JUMPDEST SWAP1 POP SWAP2 SWAP1 POP JUMP JUMPDEST PUSH2 0x16E DUP2 PUSH2 0x153 JUMP JUMPDEST DUP3 MSTORE POP POP JUMP JUMPDEST PUSH1 0x0 PUSH1 0x20 DUP3 ADD SWAP1 POP PUSH2 0x189 PUSH1 0x0 DUP4 ADD DUP5 PUSH2 0x165 JUMP JUMPDEST SWAP3 SWAP2 POP POP JUMP JUMPDEST PUSH1 0x0 PUSH20 0xFFFFFFFFFFFFFFFFFFFFFFFFFFFFFFFFFFFFFFFF DUP3 AND SWAP1 POP SWAP2 SWAP1 POP JUMP JUMPDEST PUSH1 0x0 PUSH2 0x1BA DUP3 PUSH2 0x18F JUMP JUMPDEST SWAP1 POP SWAP2 SWAP1 POP JUMP JUMPDEST PUSH2 0x1CA DUP2 PUSH2 0x1AF JUMP JUMPDEST DUP3 MSTORE POP POP JUMP JUMPDEST PUSH1 0x0 PUSH1 0x20 DUP3 ADD SWAP1 POP PUSH2 0x1E5 PUSH1 0x0 DUP4 ADD DUP5 PUSH2 0x1C1 JUMP JUMPDEST SWAP3 SWAP2 POP POP JUMP INVALID LOG2 PUSH5 0x6970667358 0x22 SLT KECCAK256 SLT PUSH5 0x9EDECD457 GASPRICE RETURN DIFFICULTY 0xE0 PUSH6 0xB32BA98CF8F2 0xC0 RETURN 0xB4 DUP9 PUSH29 0xD190A240209FED8D4F64736F6C634300080C0033608060405260405162 STOP GT SWAP13 CODESIZE SUB DUP1 PUSH3 0x119C DUP4 CODECOPY DUP2 DUP2 ADD PUSH1 0x40 MSTORE DUP2 ADD SWAP1 PUSH3 0x29 SWAP2 SWAP1 PUSH3 0x44B JUMP JUMPDEST DUP6 PUSH1 0x0 DUP1 PUSH2 0x100 EXP DUP2 SLOAD DUP2 PUSH20 0xFFFFFFFFFFFFFFFFFFFFFFFFFFFFFFFFFFFFFFFF MUL NOT AND SWAP1 DUP4 PUSH20 0xFFFFFFFFFFFFFFFFFFFFFFFFFFFFFFFFFFFFFFFF AND MUL OR SWAP1 SSTORE POP DUP5 PUSH1 0x1 PUSH1 0x0 PUSH2 0x100 EXP DUP2 SLOAD DUP2 PUSH20 0xFFFFFFFFFFFFFFFFFFFFFFFFFFFFFFFFFFFFFFFF MUL NOT AND SWAP1 DUP4 PUSH20 0xFFFFFFFFFFFFFFFFFFFFFFFFFFFFFFFFFFFFFFFF AND MUL OR SWAP1 SSTORE POP DUP4 PUSH1 0x2 SWAP1 DUP1 MLOAD SWAP1 PUSH1 0x20 ADD SWAP1 PUSH3 0xC2 SWAP3 SWAP2 SWAP1 PUSH3 0x15E JUMP JUMPDEST POP DUP3 PUSH1 0x3 SWAP1 DUP1 MLOAD SWAP1 PUSH1 0x20 ADD SWAP1 PUSH3 0xDB SWAP3 SWAP2 SWAP1 PUSH3 0x15E JUMP JUMPDEST POP DUP2 PUSH1 0x4 PUSH1 0x0 PUSH2 0x100 EXP DUP2 SLOAD DUP2 PUSH20 0xFFFFFFFFFFFFFFFFFFFFFFFFFFFFFFFFFFFFFFFF MUL NOT AND SWAP1 DUP4 PUSH20 0xFFFFFFFFFFFFFFFFFFFFFFFFFFFFFFFFFFFFFFFF AND MUL OR SWAP1 SSTORE POP DUP1 PUSH1 0x5 DUP2 SWAP1 SSTORE POP PUSH1 0x0 PUSH1 0x6 PUSH1 0x0 PUSH2 0x100 EXP DUP2 SLOAD DUP2 PUSH1 0xFF MUL NOT AND SWAP1 DUP4 PUSH1 0x2 DUP2 GT ISZERO PUSH3 0x14D JUMPI PUSH3 0x14C PUSH3 0x525 JUMP JUMPDEST JUMPDEST MUL OR SWAP1 SSTORE POP POP POP POP POP POP POP PUSH3 0x5B9 JUMP JUMPDEST DUP3 DUP1 SLOAD PUSH3 0x16C SWAP1 PUSH3 0x583 JUMP JUMPDEST SWAP1 PUSH1 0x0 MSTORE PUSH1 0x20 PUSH1 0x0 KECCAK256 SWAP1 PUSH1 0x1F ADD PUSH1 0x20 SWAP1 DIV DUP2 ADD SWAP3 DUP3 PUSH3 0x190 JUMPI PUSH1 0x0 DUP6 SSTORE PUSH3 0x1DC JUMP JUMPDEST DUP3 PUSH1 0x1F LT PUSH3 0x1AB JUMPI DUP1 MLOAD PUSH1 0xFF NOT AND DUP4 DUP1 ADD OR DUP6 SSTORE PUSH3 0x1DC JUMP JUMPDEST DUP3 DUP1 ADD PUSH1 0x1 ADD DUP6 SSTORE DUP3 ISZERO PUSH3 0x1DC JUMPI SWAP2 DUP3 ADD JUMPDEST DUP3 DUP2 GT ISZERO PUSH3 0x1DB JUMPI DUP3 MLOAD DUP3 SSTORE SWAP2 PUSH1 0x20 ADD SWAP2 SWAP1 PUSH1 0x1 ADD SWAP1 PUSH3 0x1BE JUMP JUMPDEST JUMPDEST POP SWAP1 POP PUSH3 0x1EB SWAP2 SWAP1 PUSH3 0x1EF JUMP JUMPDEST POP SWAP1 JUMP JUMPDEST JUMPDEST DUP1 DUP3 GT ISZERO PUSH3 0x20A JUMPI PUSH1 0x0 DUP2 PUSH1 0x0 SWAP1 SSTORE POP PUSH1 0x1 ADD PUSH3 0x1F0 JUMP JUMPDEST POP SWAP1 JUMP JUMPDEST PUSH1 0x0 PUSH1 0x40 MLOAD SWAP1 POP SWAP1 JUMP JUMPDEST PUSH1 0x0 DUP1 REVERT JUMPDEST PUSH1 0x0 DUP1 REVERT JUMPDEST PUSH1 0x0 PUSH20 0xFFFFFFFFFFFFFFFFFFFFFFFFFFFFFFFFFFFFFFFF DUP3 AND SWAP1 POP SWAP2 SWAP1 POP JUMP JUMPDEST PUSH1 0x0 PUSH3 0x24F DUP3 PUSH3 0x222 JUMP JUMPDEST SWAP1 POP SWAP2 SWAP1 POP JUMP JUMPDEST PUSH3 0x261 DUP2 PUSH3 0x242 JUMP JUMPDEST DUP2 EQ PUSH3 0x26D JUMPI PUSH1 0x0 DUP1 REVERT JUMPDEST POP JUMP JUMPDEST PUSH1 0x0 DUP2 MLOAD SWAP1 POP PUSH3 0x281 DUP2 PUSH3 0x256 JUMP JUMPDEST SWAP3 SWAP2 POP POP JUMP JUMPDEST PUSH1 0x0 DUP1 REVERT JUMPDEST PUSH1 0x0 DUP1 REVERT JUMPDEST PUSH1 0x0 PUSH1 0x1F NOT PUSH1 0x1F DUP4 ADD AND SWAP1 POP SWAP2 SWAP1 POP JUMP JUMPDEST PUSH32 0x4E487B7100000000000000000000000000000000000000000000000000000000 PUSH1 0x0 MSTORE PUSH1 0x41 PUSH1 0x4 MSTORE PUSH1 0x24 PUSH1 0x0 REVERT JUMPDEST PUSH3 0x2DC DUP3 PUSH3 0x291 JUMP JUMPDEST DUP2 ADD DUP2 DUP2 LT PUSH8 0xFFFFFFFFFFFFFFFF DUP3 GT OR ISZERO PUSH3 0x2FE JUMPI PUSH3 0x2FD PUSH3 0x2A2 JUMP JUMPDEST JUMPDEST DUP1 PUSH1 0x40 MSTORE POP POP POP JUMP JUMPDEST PUSH1 0x0 PUSH3 0x313 PUSH3 0x20E JUMP JUMPDEST SWAP1 POP PUSH3 0x321 DUP3 DUP3 PUSH3 0x2D1 JUMP JUMPDEST SWAP2 SWAP1 POP JUMP JUMPDEST PUSH1 0x0 PUSH8 0xFFFFFFFFFFFFFFFF DUP3 GT ISZERO PUSH3 0x344 JUMPI PUSH3 0x343 PUSH3 0x2A2 JUMP JUMPDEST JUMPDEST PUSH3 0x34F DUP3 PUSH3 0x291 JUMP JUMPDEST SWAP1 POP PUSH1 0x20 DUP2 ADD SWAP1 POP SWAP2 SWAP1 POP JUMP JUMPDEST PUSH1 0x0 JUMPDEST DUP4 DUP2 LT ISZERO PUSH3 0x37C JUMPI DUP1 DUP3 ADD MLOAD DUP2 DUP5 ADD MSTORE PUSH1 0x20 DUP2 ADD SWAP1 POP PUSH3 0x35F JUMP JUMPDEST DUP4 DUP2 GT ISZERO PUSH3 0x38C JUMPI PUSH1 0x0 DUP5 DUP5 ADD MSTORE JUMPDEST POP POP POP POP JUMP JUMPDEST PUSH1 0x0 PUSH3 0x3A9 PUSH3 0x3A3 DUP5 PUSH3 0x326 JUMP JUMPDEST PUSH3 0x307 JUMP JUMPDEST SWAP1 POP DUP3 DUP2 MSTORE PUSH1 0x20 DUP2 ADD DUP5 DUP5 DUP5 ADD GT ISZERO PUSH3 0x3C8 JUMPI PUSH3 0x3C7 PUSH3 0x28C JUMP JUMPDEST JUMPDEST PUSH3 0x3D5 DUP5 DUP3 DUP6 PUSH3 0x35C JUMP JUMPDEST POP SWAP4 SWAP3 POP POP POP JUMP JUMPDEST PUSH1 0x0 DUP3 PUSH1 0x1F DUP4 ADD SLT PUSH3 0x3F5 JUMPI PUSH3 0x3F4 PUSH3 0x287 JUMP JUMPDEST JUMPDEST DUP2 MLOAD PUSH3 0x407 DUP5 DUP3 PUSH1 0x20 DUP7 ADD PUSH3 0x392 JUMP JUMPDEST SWAP2 POP POP SWAP3 SWAP2 POP POP JUMP JUMPDEST PUSH1 0x0 DUP2 SWAP1 POP SWAP2 SWAP1 POP JUMP JUMPDEST PUSH3 0x425 DUP2 PUSH3 0x410 JUMP JUMPDEST DUP2 EQ PUSH3 0x431 JUMPI PUSH1 0x0 DUP1 REVERT JUMPDEST POP JUMP JUMPDEST PUSH1 0x0 DUP2 MLOAD SWAP1 POP PUSH3 0x445 DUP2 PUSH3 0x41A JUMP JUMPDEST SWAP3 SWAP2 POP POP JUMP JUMPDEST PUSH1 0x0 DUP1 PUSH1 0x0 DUP1 PUSH1 0x0 DUP1 PUSH1 0xC0 DUP8 DUP10 SUB SLT ISZERO PUSH3 0x46B JUMPI PUSH3 0x46A PUSH3 0x218 JUMP JUMPDEST JUMPDEST PUSH1 0x0 PUSH3 0x47B DUP10 DUP3 DUP11 ADD PUSH3 0x270 JUMP JUMPDEST SWAP7 POP POP PUSH1 0x20 PUSH3 0x48E DUP10 DUP3 DUP11 ADD PUSH3 0x270 JUMP JUMPDEST SWAP6 POP POP PUSH1 0x40 DUP8 ADD MLOAD PUSH8 0xFFFFFFFFFFFFFFFF DUP2 GT ISZERO PUSH3 0x4B2 JUMPI PUSH3 0x4B1 PUSH3 0x21D JUMP JUMPDEST JUMPDEST PUSH3 0x4C0 DUP10 DUP3 DUP11 ADD PUSH3 0x3DD JUMP JUMPDEST SWAP5 POP POP PUSH1 0x60 DUP8 ADD MLOAD PUSH8 0xFFFFFFFFFFFFFFFF DUP2 GT ISZERO PUSH3 0x4E4 JUMPI PUSH3 0x4E3 PUSH3 0x21D JUMP JUMPDEST JUMPDEST PUSH3 0x4F2 DUP10 DUP3 DUP11 ADD PUSH3 0x3DD JUMP JUMPDEST SWAP4 POP POP PUSH1 0x80 PUSH3 0x505 DUP10 DUP3 DUP11 ADD PUSH3 0x270 JUMP JUMPDEST SWAP3 POP POP PUSH1 0xA0 PUSH3 0x518 DUP10 DUP3 DUP11 ADD PUSH3 0x434 JUMP JUMPDEST SWAP2 POP POP SWAP3 SWAP6 POP SWAP3 SWAP6 POP SWAP3 SWAP6 JUMP JUMPDEST PUSH32 0x4E487B7100000000000000000000000000000000000000000000000000000000 PUSH1 0x0 MSTORE PUSH1 0x21 PUSH1 0x4 MSTORE PUSH1 0x24 PUSH1 0x0 REVERT JUMPDEST PUSH32 0x4E487B7100000000000000000000000000000000000000000000000000000000 PUSH1 0x0 MSTORE PUSH1 0x22 PUSH1 0x4 MSTORE PUSH1 0x24 PUSH1 0x0 REVERT JUMPDEST PUSH1 0x0 PUSH1 0x2 DUP3 DIV SWAP1 POP PUSH1 0x1 DUP3 AND DUP1 PUSH3 0x59C JUMPI PUSH1 0x7F DUP3 AND SWAP2 POP JUMPDEST PUSH1 0x20 DUP3 LT DUP2 EQ ISZERO PUSH3 0x5B3 JUMPI PUSH3 0x5B2 PUSH3 0x554 JUMP JUMPDEST JUMPDEST POP SWAP2 SWAP1 POP JUMP JUMPDEST PUSH2 0xBD3 DUP1 PUSH3 0x5C9 PUSH1 0x0 CODECOPY PUSH1 0x0 RETURN INVALID PUSH1 0x80 PUSH1 0x40 MSTORE PUSH1 0x4 CALLDATASIZE LT PUSH2 0x86 JUMPI PUSH1 0x0 CALLDATALOAD PUSH1 0xE0 SHR DUP1 PUSH4 0x3B1BEBD1 GT PUSH2 0x59 JUMPI DUP1 PUSH4 0x3B1BEBD1 EQ PUSH2 0x12A JUMPI DUP1 PUSH4 0x4177FE51 EQ PUSH2 0x155 JUMPI DUP1 PUSH4 0x7284E416 EQ PUSH2 0x180 JUMPI DUP1 PUSH4 0xAA8C217C EQ PUSH2 0x1AB JUMPI DUP1 PUSH4 0xB4FEDC11 EQ PUSH2 0x1D6 JUMPI PUSH2 0x86 JUMP JUMPDEST DUP1 PUSH4 0x2D05D3F EQ PUSH2 0x8B JUMPI DUP1 PUSH4 0x6FDDE03 EQ PUSH2 0xB6 JUMPI DUP1 PUSH4 0x200D2ED2 EQ PUSH2 0xE1 JUMPI DUP1 PUSH4 0x2D398FA6 EQ PUSH2 0x10C JUMPI JUMPDEST PUSH1 0x0 DUP1 REVERT JUMPDEST CALLVALUE DUP1 ISZERO PUSH2 0x97 JUMPI PUSH1 0x0 DUP1 REVERT JUMPDEST POP PUSH2 0xA0 PUSH2 0x1F4 JUMP JUMPDEST PUSH1 0x40 MLOAD PUSH2 0xAD SWAP2 SWAP1 PUSH2 0x770 JUMP JUMPDEST PUSH1 0x40 MLOAD DUP1 SWAP2 SUB SWAP1 RETURN JUMPDEST CALLVALUE DUP1 ISZERO PUSH2 0xC2 JUMPI PUSH1 0x0 DUP1 REVERT JUMPDEST POP PUSH2 0xCB PUSH2 0x218 JUMP JUMPDEST PUSH1 0x40 MLOAD PUSH2 0xD8 SWAP2 SWAP1 PUSH2 0x824 JUMP JUMPDEST PUSH1 0x40 MLOAD DUP1 SWAP2 SUB SWAP1 RETURN JUMPDEST CALLVALUE DUP1 ISZERO PUSH2 0xED JUMPI PUSH1 0x0 DUP1 REVERT JUMPDEST POP PUSH2 0xF6 PUSH2 0x2A6 JUMP JUMPDEST PUSH1 0x40 MLOAD PUSH2 0x103 SWAP2 SWAP1 PUSH2 0x8BD JUMP JUMPDEST PUSH1 0x40 MLOAD DUP1 SWAP2 SUB SWAP1 RETURN JUMPDEST PUSH2 0x114 PUSH2 0x2B9 JUMP JUMPDEST PUSH1 0x40 MLOAD PUSH2 0x121 SWAP2 SWAP1 PUSH2 0x937 JUMP JUMPDEST PUSH1 0x40 MLOAD DUP1 SWAP2 SUB SWAP1 RETURN JUMPDEST CALLVALUE DUP1 ISZERO PUSH2 0x136 JUMPI PUSH1 0x0 DUP1 REVERT JUMPDEST POP PUSH2 0x13F PUSH2 0x4B0 JUMP JUMPDEST PUSH1 0x40 MLOAD PUSH2 0x14C SWAP2 SWAP1 PUSH2 0x770 JUMP JUMPDEST PUSH1 0x40 MLOAD DUP1 SWAP2 SUB SWAP1 RETURN JUMPDEST CALLVALUE DUP1 ISZERO PUSH2 0x161 JUMPI PUSH1 0x0 DUP1 REVERT JUMPDEST POP PUSH2 0x16A PUSH2 0x4D6 JUMP JUMPDEST PUSH1 0x40 MLOAD PUSH2 0x177 SWAP2 SWAP1 PUSH2 0x770 JUMP JUMPDEST PUSH1 0x40 MLOAD DUP1 SWAP2 SUB SWAP1 RETURN JUMPDEST CALLVALUE DUP1 ISZERO PUSH2 0x18C JUMPI PUSH1 0x0 DUP1 REVERT JUMPDEST POP PUSH2 0x195 PUSH2 0x4FC JUMP JUMPDEST PUSH1 0x40 MLOAD PUSH2 0x1A2 SWAP2 SWAP1 PUSH2 0x824 JUMP JUMPDEST PUSH1 0x40 MLOAD DUP1 SWAP2 SUB SWAP1 RETURN JUMPDEST CALLVALUE DUP1 ISZERO PUSH2 0x1B7 JUMPI PUSH1 0x0 DUP1 REVERT JUMPDEST POP PUSH2 0x1C0 PUSH2 0x58A JUMP JUMPDEST PUSH1 0x40 MLOAD PUSH2 0x1CD SWAP2 SWAP1 PUSH2 0x96B JUMP JUMPDEST PUSH1 0x40 MLOAD DUP1 SWAP2 SUB SWAP1 RETURN JUMPDEST PUSH2 0x1DE PUSH2 0x590 JUMP JUMPDEST PUSH1 0x40 MLOAD PUSH2 0x1EB SWAP2 SWAP1 PUSH2 0x937 JUMP JUMPDEST PUSH1 0x40 MLOAD DUP1 SWAP2 SUB SWAP1 RETURN JUMPDEST PUSH1 0x0 DUP1 SLOAD SWAP1 PUSH2 0x100 EXP SWAP1 DIV PUSH20 0xFFFFFFFFFFFFFFFFFFFFFFFFFFFFFFFFFFFFFFFF AND DUP2 JUMP JUMPDEST PUSH1 0x2 DUP1 SLOAD PUSH2 0x225 SWAP1 PUSH2 0x9B5 JUMP JUMPDEST DUP1 PUSH1 0x1F ADD PUSH1 0x20 DUP1 SWAP2 DIV MUL PUSH1 0x20 ADD PUSH1 0x40 MLOAD SWAP1 DUP2 ADD PUSH1 0x40 MSTORE DUP1 SWAP3 SWAP2 SWAP1 DUP2 DUP2 MSTORE PUSH1 0x20 ADD DUP3 DUP1 SLOAD PUSH2 0x251 SWAP1 PUSH2 0x9B5 JUMP JUMPDEST DUP1 ISZERO PUSH2 0x29E JUMPI DUP1 PUSH1 0x1F LT PUSH2 0x273 JUMPI PUSH2 0x100 DUP1 DUP4 SLOAD DIV MUL DUP4 MSTORE SWAP2 PUSH1 0x20 ADD SWAP2 PUSH2 0x29E JUMP JUMPDEST DUP3 ADD SWAP2 SWAP1 PUSH1 0x0 MSTORE PUSH1 0x20 PUSH1 0x0 KECCAK256 SWAP1 JUMPDEST DUP2 SLOAD DUP2 MSTORE SWAP1 PUSH1 0x1 ADD SWAP1 PUSH1 0x20 ADD DUP1 DUP4 GT PUSH2 0x281 JUMPI DUP3 SWAP1 SUB PUSH1 0x1F AND DUP3 ADD SWAP2 JUMPDEST POP POP POP POP POP DUP2 JUMP JUMPDEST PUSH1 0x6 PUSH1 0x0 SWAP1 SLOAD SWAP1 PUSH2 0x100 EXP SWAP1 DIV PUSH1 0xFF AND DUP2 JUMP JUMPDEST PUSH1 0x0 DUP1 PUSH1 0x2 DUP2 GT ISZERO PUSH2 0x2CE JUMPI PUSH2 0x2CD PUSH2 0x846 JUMP JUMPDEST JUMPDEST PUSH1 0x6 PUSH1 0x0 SWAP1 SLOAD SWAP1 PUSH2 0x100 EXP SWAP1 DIV PUSH1 0xFF AND PUSH1 0x2 DUP2 GT ISZERO PUSH2 0x2F0 JUMPI PUSH2 0x2EF PUSH2 0x846 JUMP JUMPDEST JUMPDEST EQ PUSH2 0x330 JUMPI PUSH1 0x40 MLOAD PUSH32 0x8C379A000000000000000000000000000000000000000000000000000000000 DUP2 MSTORE PUSH1 0x4 ADD PUSH2 0x327 SWAP1 PUSH2 0xA59 JUMP JUMPDEST PUSH1 0x40 MLOAD DUP1 SWAP2 SUB SWAP1 REVERT JUMPDEST PUSH1 0x1 PUSH1 0x0 SWAP1 SLOAD SWAP1 PUSH2 0x100 EXP SWAP1 DIV PUSH20 0xFFFFFFFFFFFFFFFFFFFFFFFFFFFFFFFFFFFFFFFF AND PUSH20 0xFFFFFFFFFFFFFFFFFFFFFFFFFFFFFFFFFFFFFFFF AND ORIGIN PUSH20 0xFFFFFFFFFFFFFFFFFFFFFFFFFFFFFFFFFFFFFFFF AND EQ DUP1 PUSH2 0x3D7 JUMPI POP PUSH1 0x0 DUP1 SLOAD SWAP1 PUSH2 0x100 EXP SWAP1 DIV PUSH20 0xFFFFFFFFFFFFFFFFFFFFFFFFFFFFFFFFFFFFFFFF AND PUSH20 0xFFFFFFFFFFFFFFFFFFFFFFFFFFFFFFFFFFFFFFFF AND ORIGIN PUSH20 0xFFFFFFFFFFFFFFFFFFFFFFFFFFFFFFFFFFFFFFFF AND EQ JUMPDEST PUSH2 0x416 JUMPI PUSH1 0x40 MLOAD PUSH32 0x8C379A000000000000000000000000000000000000000000000000000000000 DUP2 MSTORE PUSH1 0x4 ADD PUSH2 0x40D SWAP1 PUSH2 0xAEB JUMP JUMPDEST PUSH1 0x40 MLOAD DUP1 SWAP2 SUB SWAP1 REVERT JUMPDEST PUSH1 0x4 PUSH1 0x0 SWAP1 SLOAD SWAP1 PUSH2 0x100 EXP SWAP1 DIV PUSH20 0xFFFFFFFFFFFFFFFFFFFFFFFFFFFFFFFFFFFFFFFF AND PUSH20 0xFFFFFFFFFFFFFFFFFFFFFFFFFFFFFFFFFFFFFFFF AND PUSH2 0x8FC SELFBALANCE SWAP1 DUP2 ISZERO MUL SWAP1 PUSH1 0x40 MLOAD PUSH1 0x0 PUSH1 0x40 MLOAD DUP1 DUP4 SUB DUP2 DUP6 DUP9 DUP9 CALL SWAP4 POP POP POP POP ISZERO DUP1 ISZERO PUSH2 0x47E JUMPI RETURNDATASIZE PUSH1 0x0 DUP1 RETURNDATACOPY RETURNDATASIZE PUSH1 0x0 REVERT JUMPDEST POP PUSH1 0x2 PUSH1 0x6 PUSH1 0x0 PUSH2 0x100 EXP DUP2 SLOAD DUP2 PUSH1 0xFF MUL NOT AND SWAP1 DUP4 PUSH1 0x2 DUP2 GT ISZERO PUSH2 0x4A5 JUMPI PUSH2 0x4A4 PUSH2 0x846 JUMP JUMPDEST JUMPDEST MUL OR SWAP1 SSTORE POP ADDRESS SWAP1 POP SWAP1 JUMP JUMPDEST PUSH1 0x1 PUSH1 0x0 SWAP1 SLOAD SWAP1 PUSH2 0x100 EXP SWAP1 DIV PUSH20 0xFFFFFFFFFFFFFFFFFFFFFFFFFFFFFFFFFFFFFFFF AND DUP2 JUMP JUMPDEST PUSH1 0x4 PUSH1 0x0 SWAP1 SLOAD SWAP1 PUSH2 0x100 EXP SWAP1 DIV PUSH20 0xFFFFFFFFFFFFFFFFFFFFFFFFFFFFFFFFFFFFFFFF AND DUP2 JUMP JUMPDEST PUSH1 0x3 DUP1 SLOAD PUSH2 0x509 SWAP1 PUSH2 0x9B5 JUMP JUMPDEST DUP1 PUSH1 0x1F ADD PUSH1 0x20 DUP1 SWAP2 DIV MUL PUSH1 0x20 ADD PUSH1 0x40 MLOAD SWAP1 DUP2 ADD PUSH1 0x40 MSTORE DUP1 SWAP3 SWAP2 SWAP1 DUP2 DUP2 MSTORE PUSH1 0x20 ADD DUP3 DUP1 SLOAD PUSH2 0x535 SWAP1 PUSH2 0x9B5 JUMP JUMPDEST DUP1 ISZERO PUSH2 0x582 JUMPI DUP1 PUSH1 0x1F LT PUSH2 0x557 JUMPI PUSH2 0x100 DUP1 DUP4 SLOAD DIV MUL DUP4 MSTORE SWAP2 PUSH1 0x20 ADD SWAP2 PUSH2 0x582 JUMP JUMPDEST DUP3 ADD SWAP2 SWAP1 PUSH1 0x0 MSTORE PUSH1 0x20 PUSH1 0x0 KECCAK256 SWAP1 JUMPDEST DUP2 SLOAD DUP2 MSTORE SWAP1 PUSH1 0x1 ADD SWAP1 PUSH1 0x20 ADD DUP1 DUP4 GT PUSH2 0x565 JUMPI DUP3 SWAP1 SUB PUSH1 0x1F AND DUP3 ADD SWAP2 JUMPDEST POP POP POP POP POP DUP2 JUMP JUMPDEST PUSH1 0x5 SLOAD DUP2 JUMP JUMPDEST PUSH1 0x0 DUP1 PUSH1 0x2 DUP2 GT ISZERO PUSH2 0x5A5 JUMPI PUSH2 0x5A4 PUSH2 0x846 JUMP JUMPDEST JUMPDEST PUSH1 0x6 PUSH1 0x0 SWAP1 SLOAD SWAP1 PUSH2 0x100 EXP SWAP1 DIV PUSH1 0xFF AND PUSH1 0x2 DUP2 GT ISZERO PUSH2 0x5C7 JUMPI PUSH2 0x5C6 PUSH2 0x846 JUMP JUMPDEST JUMPDEST EQ PUSH2 0x607 JUMPI PUSH1 0x40 MLOAD PUSH32 0x8C379A000000000000000000000000000000000000000000000000000000000 DUP2 MSTORE PUSH1 0x4 ADD PUSH2 0x5FE SWAP1 PUSH2 0xA59 JUMP JUMPDEST PUSH1 0x40 MLOAD DUP1 SWAP2 SUB SWAP1 REVERT JUMPDEST PUSH1 0x1 PUSH1 0x0 SWAP1 SLOAD SWAP1 PUSH2 0x100 EXP SWAP1 DIV PUSH20 0xFFFFFFFFFFFFFFFFFFFFFFFFFFFFFFFFFFFFFFFF AND PUSH20 0xFFFFFFFFFFFFFFFFFFFFFFFFFFFFFFFFFFFFFFFF AND ORIGIN PUSH20 0xFFFFFFFFFFFFFFFFFFFFFFFFFFFFFFFFFFFFFFFF AND EQ PUSH2 0x697 JUMPI PUSH1 0x40 MLOAD PUSH32 0x8C379A000000000000000000000000000000000000000000000000000000000 DUP2 MSTORE PUSH1 0x4 ADD PUSH2 0x68E SWAP1 PUSH2 0xB7D JUMP JUMPDEST PUSH1 0x40 MLOAD DUP1 SWAP2 SUB SWAP1 REVERT JUMPDEST PUSH1 0x0 DUP1 SLOAD SWAP1 PUSH2 0x100 EXP SWAP1 DIV PUSH20 0xFFFFFFFFFFFFFFFFFFFFFFFFFFFFFFFFFFFFFFFF AND PUSH20 0xFFFFFFFFFFFFFFFFFFFFFFFFFFFFFFFFFFFFFFFF AND PUSH2 0x8FC SELFBALANCE SWAP1 DUP2 ISZERO MUL SWAP1 PUSH1 0x40 MLOAD PUSH1 0x0 PUSH1 0x40 MLOAD DUP1 DUP4 SUB DUP2 DUP6 DUP9 DUP9 CALL SWAP4 POP POP POP POP ISZERO DUP1 ISZERO PUSH2 0x6FD JUMPI RETURNDATASIZE PUSH1 0x0 DUP1 RETURNDATACOPY RETURNDATASIZE PUSH1 0x0 REVERT JUMPDEST POP PUSH1 0x1 PUSH1 0x6 PUSH1 0x0 PUSH2 0x100 EXP DUP2 SLOAD DUP2 PUSH1 0xFF MUL NOT AND SWAP1 DUP4 PUSH1 0x2 DUP2 GT ISZERO PUSH2 0x724 JUMPI PUSH2 0x723 PUSH2 0x846 JUMP JUMPDEST JUMPDEST MUL OR SWAP1 SSTORE POP ADDRESS SWAP1 POP SWAP1 JUMP JUMPDEST PUSH1 0x0 PUSH20 0xFFFFFFFFFFFFFFFFFFFFFFFFFFFFFFFFFFFFFFFF DUP3 AND SWAP1 POP SWAP2 SWAP1 POP JUMP JUMPDEST PUSH1 0x0 PUSH2 0x75A DUP3 PUSH2 0x72F JUMP JUMPDEST SWAP1 POP SWAP2 SWAP1 POP JUMP JUMPDEST PUSH2 0x76A DUP2 PUSH2 0x74F JUMP JUMPDEST DUP3 MSTORE POP POP JUMP JUMPDEST PUSH1 0x0 PUSH1 0x20 DUP3 ADD SWAP1 POP PUSH2 0x785 PUSH1 0x0 DUP4 ADD DUP5 PUSH2 0x761 JUMP JUMPDEST SWAP3 SWAP2 POP POP JUMP JUMPDEST PUSH1 0x0 DUP2 MLOAD SWAP1 POP SWAP2 SWAP1 POP JUMP JUMPDEST PUSH1 0x0 DUP3 DUP3 MSTORE PUSH1 0x20 DUP3 ADD SWAP1 POP SWAP3 SWAP2 POP POP JUMP JUMPDEST PUSH1 0x0 JUMPDEST DUP4 DUP2 LT ISZERO PUSH2 0x7C5 JUMPI DUP1 DUP3 ADD MLOAD DUP2 DUP5 ADD MSTORE PUSH1 0x20 DUP2 ADD SWAP1 POP PUSH2 0x7AA JUMP JUMPDEST DUP4 DUP2 GT ISZERO PUSH2 0x7D4 JUMPI PUSH1 0x0 DUP5 DUP5 ADD MSTORE JUMPDEST POP POP POP POP JUMP JUMPDEST PUSH1 0x0 PUSH1 0x1F NOT PUSH1 0x1F DUP4 ADD AND SWAP1 POP SWAP2 SWAP1 POP JUMP JUMPDEST PUSH1 0x0 PUSH2 0x7F6 DUP3 PUSH2 0x78B JUMP JUMPDEST PUSH2 0x800 DUP2 DUP6 PUSH2 0x796 JUMP JUMPDEST SWAP4 POP PUSH2 0x810 DUP2 DUP6 PUSH1 0x20 DUP7 ADD PUSH2 0x7A7 JUMP JUMPDEST PUSH2 0x819 DUP2 PUSH2 0x7DA JUMP JUMPDEST DUP5 ADD SWAP2 POP POP SWAP3 SWAP2 POP POP JUMP JUMPDEST PUSH1 0x0 PUSH1 0x20 DUP3 ADD SWAP1 POP DUP2 DUP2 SUB PUSH1 0x0 DUP4 ADD MSTORE PUSH2 0x83E DUP2 DUP5 PUSH2 0x7EB JUMP JUMPDEST SWAP1 POP SWAP3 SWAP2 POP POP JUMP JUMPDEST PUSH32 0x4E487B7100000000000000000000000000000000000000000000000000000000 PUSH1 0x0 MSTORE PUSH1 0x21 PUSH1 0x4 MSTORE PUSH1 0x24 PUSH1 0x0 REVERT JUMPDEST PUSH1 0x3 DUP2 LT PUSH2 0x886 JUMPI PUSH2 0x885 PUSH2 0x846 JUMP JUMPDEST JUMPDEST POP JUMP JUMPDEST PUSH1 0x0 DUP2 SWAP1 POP PUSH2 0x897 DUP3 PUSH2 0x875 JUMP JUMPDEST SWAP2 SWAP1 POP JUMP JUMPDEST PUSH1 0x0 PUSH2 0x8A7 DUP3 PUSH2 0x889 JUMP JUMPDEST SWAP1 POP SWAP2 SWAP1 POP JUMP JUMPDEST PUSH2 0x8B7 DUP2 PUSH2 0x89C JUMP JUMPDEST DUP3 MSTORE POP POP JUMP JUMPDEST PUSH1 0x0 PUSH1 0x20 DUP3 ADD SWAP1 POP PUSH2 0x8D2 PUSH1 0x0 DUP4 ADD DUP5 PUSH2 0x8AE JUMP JUMPDEST SWAP3 SWAP2 POP POP JUMP JUMPDEST PUSH1 0x0 DUP2 SWAP1 POP SWAP2 SWAP1 POP JUMP JUMPDEST PUSH1 0x0 PUSH2 0x8FD PUSH2 0x8F8 PUSH2 0x8F3 DUP5 PUSH2 0x72F JUMP JUMPDEST PUSH2 0x8D8 JUMP JUMPDEST PUSH2 0x72F JUMP JUMPDEST SWAP1 POP SWAP2 SWAP1 POP JUMP JUMPDEST PUSH1 0x0 PUSH2 0x90F DUP3 PUSH2 0x8E2 JUMP JUMPDEST SWAP1 POP SWAP2 SWAP1 POP JUMP JUMPDEST PUSH1 0x0 PUSH2 0x921 DUP3 PUSH2 0x904 JUMP JUMPDEST SWAP1 POP SWAP2 SWAP1 POP JUMP JUMPDEST PUSH2 0x931 DUP2 PUSH2 0x916 JUMP JUMPDEST DUP3 MSTORE POP POP JUMP JUMPDEST PUSH1 0x0 PUSH1 0x20 DUP3 ADD SWAP1 POP PUSH2 0x94C PUSH1 0x0 DUP4 ADD DUP5 PUSH2 0x928 JUMP JUMPDEST SWAP3 SWAP2 POP POP JUMP JUMPDEST PUSH1 0x0 DUP2 SWAP1 POP SWAP2 SWAP1 POP JUMP JUMPDEST PUSH2 0x965 DUP2 PUSH2 0x952 JUMP JUMPDEST DUP3 MSTORE POP POP JUMP JUMPDEST PUSH1 0x0 PUSH1 0x20 DUP3 ADD SWAP1 POP PUSH2 0x980 PUSH1 0x0 DUP4 ADD DUP5 PUSH2 0x95C JUMP JUMPDEST SWAP3 SWAP2 POP POP JUMP JUMPDEST PUSH32 0x4E487B7100000000000000000000000000000000000000000000000000000000 PUSH1 0x0 MSTORE PUSH1 0x22 PUSH1 0x4 MSTORE PUSH1 0x24 PUSH1 0x0 REVERT JUMPDEST PUSH1 0x0 PUSH1 0x2 DUP3 DIV SWAP1 POP PUSH1 0x1 DUP3 AND DUP1 PUSH2 0x9CD JUMPI PUSH1 0x7F DUP3 AND SWAP2 POP JUMPDEST PUSH1 0x20 DUP3 LT DUP2 EQ ISZERO PUSH2 0x9E1 JUMPI PUSH2 0x9E0 PUSH2 0x986 JUMP JUMPDEST JUMPDEST POP SWAP2 SWAP1 POP JUMP JUMPDEST PUSH32 0x436F6E747261637420737461747573206973206E6F7420657175616C20746F20 PUSH1 0x0 DUP3 ADD MSTORE PUSH32 0x6F70656E00000000000000000000000000000000000000000000000000000000 PUSH1 0x20 DUP3 ADD MSTORE POP JUMP JUMPDEST PUSH1 0x0 PUSH2 0xA43 PUSH1 0x24 DUP4 PUSH2 0x796 JUMP JUMPDEST SWAP2 POP PUSH2 0xA4E DUP3 PUSH2 0x9E7 JUMP JUMPDEST PUSH1 0x40 DUP3 ADD SWAP1 POP SWAP2 SWAP1 POP JUMP JUMPDEST PUSH1 0x0 PUSH1 0x20 DUP3 ADD SWAP1 POP DUP2 DUP2 SUB PUSH1 0x0 DUP4 ADD MSTORE PUSH2 0xA72 DUP2 PUSH2 0xA36 JUMP JUMPDEST SWAP1 POP SWAP2 SWAP1 POP JUMP JUMPDEST PUSH32 0x4F6E6C792072656665726565206F722063726561746F722063616E206661696C PUSH1 0x0 DUP3 ADD MSTORE PUSH32 0x20636F6E74726163740000000000000000000000000000000000000000000000 PUSH1 0x20 DUP3 ADD MSTORE POP JUMP JUMPDEST PUSH1 0x0 PUSH2 0xAD5 PUSH1 0x29 DUP4 PUSH2 0x796 JUMP JUMPDEST SWAP2 POP PUSH2 0xAE0 DUP3 PUSH2 0xA79 JUMP JUMPDEST PUSH1 0x40 DUP3 ADD SWAP1 POP SWAP2 SWAP1 POP JUMP JUMPDEST PUSH1 0x0 PUSH1 0x20 DUP3 ADD SWAP1 POP DUP2 DUP2 SUB PUSH1 0x0 DUP4 ADD MSTORE PUSH2 0xB04 DUP2 PUSH2 0xAC8 JUMP JUMPDEST SWAP1 POP SWAP2 SWAP1 POP JUMP JUMPDEST PUSH32 0x4F6E6C7920726566657265652063616E20636F6D706C657465206120636F6E74 PUSH1 0x0 DUP3 ADD MSTORE PUSH32 0x7261637400000000000000000000000000000000000000000000000000000000 PUSH1 0x20 DUP3 ADD MSTORE POP JUMP JUMPDEST PUSH1 0x0 PUSH2 0xB67 PUSH1 0x24 DUP4 PUSH2 0x796 JUMP JUMPDEST SWAP2 POP PUSH2 0xB72 DUP3 PUSH2 0xB0B JUMP JUMPDEST PUSH1 0x40 DUP3 ADD SWAP1 POP SWAP2 SWAP1 POP JUMP JUMPDEST PUSH1 0x0 PUSH1 0x20 DUP3 ADD SWAP1 POP DUP2 DUP2 SUB PUSH1 0x0 DUP4 ADD MSTORE PUSH2 0xB96 DUP2 PUSH2 0xB5A JUMP JUMPDEST SWAP1 POP SWAP2 SWAP1 POP JUMP INVALID LOG2 PUSH5 0x6970667358 0x22 SLT KECCAK256 0xC2 0xC SWAP11 PUSH20 0x7F796A1A50E73B1D2C19A0DABC97D1CA8D9FDFB7 CREATE 0xC9 PUSH21 0x5F913EBFC164736F6C634300080C0033A264697066 PUSH20 0x58221220C37CC71A15A2B86B9C2A2F112FD54C25 0xD4 0xBB 0x5D POP 0xDF PUSH29 0x81313FE2B890B4AE5B8564736F6C634300080C00330000000000000000 "},"gasEstimates":{"creation":{"codeDepositCost":"3533800","executionCost":"3966","totalCost":"3537766"},"external":{"accountabilityContractAddresses(uint256)":"5046","completeOpenAccountabilityContract(address,address)":"infinite","createAccountabilityContract(address,string,string,address)":"infinite","failOpenAccountabilityContract(address,address)":"infinite","getAccountabilityContractAddresses(uint256,uint256)":"infinite","getClosedAccountabilityContractAddressesForReferee(address)":"infinite","getClosedAccountabilityContractAddressesForUser(address)":"infinite","getCompleteAccountabilityContractRequestsForReferee(address)":"infinite","getOpenAccountabilityContractAddressesForReferee(address)":"infinite","getOpenAccountabilityContractAddressesForUser(address)":"infinite","getUserAddresses(uint256,uint256)":"infinite","numberOfAccountabilityContracts()":"2474","numberOfReferees()":"2473","numberOfUsers()":"2474","refereeAddresses(uint256)":"5068","referees(address)":"2851","requestRefereeCompletesContract(address,address)":"infinite","totalEthInContracts()":"2517","userAddresses(uint256)":"5067","users(address)":"2917"},"internal":{"getContractIndexForReferee(address,address)":"infinite","getContractIndexForUser(address,address)":"infinite","moveOpenContractToClosedContractsForReferee(address,address)":"infinite","moveOpenContractToClosedContractsForUser(address,address)":"infinite"}},"methodIdentifiers":{"accountabilityContractAddresses(uint256)":"38db44bc","completeOpenAccountabilityContract(address,address)":"cc785850","createAccountabilityContract(address,string,string,address)":"e436e826","failOpenAccountabilityContract(address,address)":"4ac0b82d","getAccountabilityContractAddresses(uint256,uint256)":"0e865751","getClosedAccountabilityContractAddressesForReferee(address)":"19ee8bd4","getClosedAccountabilityContractAddressesForUser(address)":"b24e67d0","getCompleteAccountabilityContractRequestsForReferee(address)":"4ea34671","getOpenAccountabilityContractAddressesForReferee(address)":"9051e234","getOpenAccountabilityContractAddressesForUser(address)":"442a7bc7","getUserAddresses(uint256,uint256)":"a908f4fa","numberOfAccountabilityContracts()":"4841a885","numberOfReferees()":"b3b6633e","numberOfUsers()":"75ce46a7","refereeAddresses(uint256)":"38fb42fd","referees(address)":"64a60b47","requestRefereeCompletesContract(address,address)":"01af65e7","totalEthInContracts()":"dc0e0c13","userAddresses(uint256)":"502c9bd5","users(address)":"a87430ba"}}}