{"abi":[{"inputs":[{"internalType":"uint256","name":"","type":"uint256"}],"name":"accountabilityContractAddresses","outputs":[{"internalType":"address","name":"","type":"address"}],"stateMutability":"view","type":"function"},{"inputs":[{"internalType":"address","name":"user","type":"address"},{"internalType":"address","name":"contractAddress","type":"address"}],"name":"completeOpenAccountabilityContract","outputs":[],"stateMutability":"nonpayable","type":"function"},{"inputs":[{"internalType":"address","name":"_referee","type":"address"},{"internalType":"string","name":"_name","type":"string"},{"internalType":"string","name":"_description","type":"string"},{"internalType":"address payable","name":"_failureRecipient","type":"address"}],"name":"createAccountabilityContract","outputs":[],"stateMutability":"payable","type":"function"},{"inputs":[{"internalType":"address","name":"user","type":"address"},{"internalType":"address","name":"contractAddress","type":"address"}],"name":"failOpenAccountabilityContract","outputs":[],"stateMutability":"nonpayable","type":"function"},{"inputs":[{"internalType":"uint256","name":"startIndex","type":"uint256"},{"internalType":"uint256","name":"endIndex","type":"uint256"}],"name":"getAccountabilityContractAddresses","outputs":[{"internalType":"address[]","name":"","type":"address[]"}],"stateMutability":"view","type":"function"},{"inputs":[{"internalType":"address","name":"referee","type":"address"}],"name":"getClosedAccountabilityContractAddressesForReferee","outputs":[{"internalType":"address[]","name":"","type":"address[]"}],"stateMutability":"view","type":"function"},{"inputs":[{"internalType":"address","name":"user","type":"address"}],"name":"getClosedAccountabilityContractAddressesForUser","outputs":[{"internalType":"address[]","name":"","type":"address[]"}],"stateMutability":"view","type":"function"},{"inputs":[{"internalType":"address","name":"referee","type":"address"}],"name":"getCompleteAccountabilityContractRequestsForReferee","outputs":[{"internalType":"address[]","name":"","type":"address[]"}],"stateMutability":"view","type":"function"},{"inputs":[{"internalType":"address","name":"referee","type":"address"}],"name":"getOpenAccountabilityContractAddressesForReferee","outputs":[{"internalType":"address[]","name":"","type":"address[]"}],"stateMutability":"view","type":"function"},{"inputs":[{"internalType":"address","name":"user","type":"address"}],"name":"getOpenAccountabilityContractAddressesForUser","outputs":[{"internalType":"address[]","name":"","type":"address[]"}],"stateMutability":"view","type":"function"},{"inputs":[{"internalType":"uint256","name":"startIndex","type":"uint256"},{"internalType":"uint256","name":"endIndex","type":"uint256"}],"name":"getUserAddresses","outputs":[{"internalType":"address[]","name":"","type":"address[]"}],"stateMutability":"view","type":"function"},{"inputs":[],"name":"numberOfAccountabilityContracts","outputs":[{"internalType":"uint256","name":"","type":"uint256"}],"stateMutability":"view","type":"function"},{"inputs":[],"name":"numberOfReferees","outputs":[{"internalType":"uint256","name":"","type":"uint256"}],"stateMutability":"view","type":"function"},{"inputs":[],"name":"numberOfUsers","outputs":[{"internalType":"uint256","name":"","type":"uint256"}],"stateMutability":"view","type":"function"},{"inputs":[{"internalType":"uint256","name":"","type":"uint256"}],"name":"refereeAddresses","outputs":[{"internalType":"address","name":"","type":"address"}],"stateMutability":"view","type":"function"},{"inputs":[{"internalType":"address","name":"","type":"address"}],"name":"referees","outputs":[{"internalType":"uint256","name":"managedContracts","type":"uint256"}],"stateMutability":"view","type":"function"},{"inputs":[{"internalType":"address","name":"referee","type":"address"},{"internalType":"address","name":"contractAddress","type":"address"}],"name":"requestRefereeCompletesContract","outputs":[],"stateMutability":"nonpayable","type":"function"},{"inputs":[],"name":"totalEthInContracts","outputs":[{"internalType":"uint256","name":"","type":"uint256"}],"stateMutability":"view","type":"function"},{"inputs":[{"internalType":"uint256","name":"","type":"uint256"}],"name":"userAddresses","outputs":[{"internalType":"address","name":"","type":"address"}],"stateMutability":"view","type":"function"},{"inputs":[{"internalType":"address","name":"","type":"address"}],"name":"users","outputs":[{"internalType":"uint256","name":"createdContracts","type":"uint256"}],"stateMutability":"view","type":"function"}],"evm":{"assembly":"    /* \"Contracts\":57:7886  contract AccountabilityContractFactory {... */\n  mstore(0x40, 0x80)\n  callvalue\n  dup1\n  iszero\n  tag_1\n  jumpi\n  0x00\n  dup1\n  revert\ntag_1:\n  pop\n  dataSize(sub_0)\n  dup1\n  dataOffset(sub_0)\n  0x00\n  codecopy\n  0x00\n  return\nstop\n\nsub_0: assembly {\n        /* \"Contracts\":57:7886  contract AccountabilityContractFactory {... */\n      mstore(0x40, 0x80)\n      jumpi(tag_1, lt(calldatasize, 0x04))\n      shr(0xe0, calldataload(0x00))\n      dup1\n      0x64a60b47\n      gt\n      tag_22\n      jumpi\n      dup1\n      0xb24e67d0\n      gt\n      tag_23\n      jumpi\n      dup1\n      0xb24e67d0\n      eq\n      tag_17\n      jumpi\n      dup1\n      0xb3b6633e\n      eq\n      tag_18\n      jumpi\n      dup1\n      0xcc785850\n      eq\n      tag_19\n      jumpi\n      dup1\n      0xdc0e0c13\n      eq\n      tag_20\n      jumpi\n      dup1\n      0xe436e826\n      eq\n      tag_21\n      jumpi\n      jump(tag_1)\n    tag_23:\n      dup1\n      0x64a60b47\n      eq\n      tag_12\n      jumpi\n      dup1\n      0x75ce46a7\n      eq\n      tag_13\n      jumpi\n      dup1\n      0x9051e234\n      eq\n      tag_14\n      jumpi\n      dup1\n      0xa87430ba\n      eq\n      tag_15\n      jumpi\n      dup1\n      0xa908f4fa\n      eq\n      tag_16\n      jumpi\n      jump(tag_1)\n    tag_22:\n      dup1\n      0x442a7bc7\n      gt\n      tag_24\n      jumpi\n      dup1\n      0x442a7bc7\n      eq\n      tag_7\n      jumpi\n      dup1\n      0x4841a885\n      eq\n      tag_8\n      jumpi\n      dup1\n      0x4ac0b82d\n      eq\n      tag_9\n      jumpi\n      dup1\n      0x4ea34671\n      eq\n      tag_10\n      jumpi\n      dup1\n      0x502c9bd5\n      eq\n      tag_11\n      jumpi\n      jump(tag_1)\n    tag_24:\n      dup1\n      0x01af65e7\n      eq\n      tag_2\n      jumpi\n      dup1\n      0x0e865751\n      eq\n      tag_3\n      jumpi\n      dup1\n      0x19ee8bd4\n      eq\n      tag_4\n      jumpi\n      dup1\n      0x38db44bc\n      eq\n      tag_5\n      jumpi\n      dup1\n      0x38fb42fd\n      eq\n      tag_6\n      jumpi\n    tag_1:\n      0x00\n      dup1\n      revert\n        /* \"Contracts\":3681:4501  function requestRefereeCompletesContract(address referee, address contractAddress) public {... */\n    tag_2:\n      callvalue\n      dup1\n      iszero\n      tag_25\n      jumpi\n      0x00\n      dup1\n      revert\n    tag_25:\n      pop\n      tag_26\n      0x04\n      dup1\n      calldatasize\n      sub\n      dup2\n      add\n      swap1\n      tag_27\n      swap2\n      swap1\n      tag_28\n      jump\t// in\n    tag_27:\n      tag_29\n      jump\t// in\n    tag_26:\n      stop\n        /* \"Contracts\":7281:7884  function getAccountabilityContractAddresses(uint startIndex, uint endIndex) public view returns (address[] memory) {... */\n    tag_3:\n      callvalue\n      dup1\n      iszero\n      tag_30\n      jumpi\n      0x00\n      dup1\n      revert\n    tag_30:\n      pop\n      tag_31\n      0x04\n      dup1\n      calldatasize\n      sub\n      dup2\n      add\n      swap1\n      tag_32\n      swap2\n      swap1\n      tag_33\n      jump\t// in\n    tag_32:\n      tag_34\n      jump\t// in\n    tag_31:\n      mload(0x40)\n      tag_35\n      swap2\n      swap1\n      tag_36\n      jump\t// in\n    tag_35:\n      mload(0x40)\n      dup1\n      swap2\n      sub\n      swap1\n      return\n        /* \"Contracts\":2439:2633  function getClosedAccountabilityContractAddressesForReferee(address referee) public view returns (address[] memory){... */\n    tag_4:\n      callvalue\n      dup1\n      iszero\n      tag_37\n      jumpi\n      0x00\n      dup1\n      revert\n    tag_37:\n      pop\n      tag_38\n      0x04\n      dup1\n      calldatasize\n      sub\n      dup2\n      add\n      swap1\n      tag_39\n      swap2\n      swap1\n      tag_40\n      jump\t// in\n    tag_39:\n      tag_41\n      jump\t// in\n    tag_38:\n      mload(0x40)\n      tag_42\n      swap2\n      swap1\n      tag_36\n      jump\t// in\n    tag_42:\n      mload(0x40)\n      dup1\n      swap2\n      sub\n      swap1\n      return\n        /* \"Contracts\":204:252  address[] public accountabilityContractAddresses */\n    tag_5:\n      callvalue\n      dup1\n      iszero\n      tag_43\n      jumpi\n      0x00\n      dup1\n      revert\n    tag_43:\n      pop\n      tag_44\n      0x04\n      dup1\n      calldatasize\n      sub\n      dup2\n      add\n      swap1\n      tag_45\n      swap2\n      swap1\n      tag_46\n      jump\t// in\n    tag_45:\n      tag_47\n      jump\t// in\n    tag_44:\n      mload(0x40)\n      tag_48\n      swap2\n      swap1\n      tag_49\n      jump\t// in\n    tag_48:\n      mload(0x40)\n      dup1\n      swap2\n      sub\n      swap1\n      return\n        /* \"Contracts\":417:450  address[] public refereeAddresses */\n    tag_6:\n      callvalue\n      dup1\n      iszero\n      tag_50\n      jumpi\n      0x00\n      dup1\n      revert\n    tag_50:\n      pop\n      tag_51\n      0x04\n      dup1\n      calldatasize\n      sub\n      dup2\n      add\n      swap1\n      tag_52\n      swap2\n      swap1\n      tag_46\n      jump\t// in\n    tag_52:\n      tag_53\n      jump\t// in\n    tag_51:\n      mload(0x40)\n      tag_54\n      swap2\n      swap1\n      tag_49\n      jump\t// in\n    tag_54:\n      mload(0x40)\n      dup1\n      swap2\n      sub\n      swap1\n      return\n        /* \"Contracts\":1871:2049  function getOpenAccountabilityContractAddressesForUser(address user) public view returns (address[] memory){... */\n    tag_7:\n      callvalue\n      dup1\n      iszero\n      tag_55\n      jumpi\n      0x00\n      dup1\n      revert\n    tag_55:\n      pop\n      tag_56\n      0x04\n      dup1\n      calldatasize\n      sub\n      dup2\n      add\n      swap1\n      tag_57\n      swap2\n      swap1\n      tag_40\n      jump\t// in\n    tag_57:\n      tag_58\n      jump\t// in\n    tag_56:\n      mload(0x40)\n      tag_59\n      swap2\n      swap1\n      tag_36\n      jump\t// in\n    tag_59:\n      mload(0x40)\n      dup1\n      swap2\n      sub\n      swap1\n      return\n        /* \"Contracts\":256:299  uint public numberOfAccountabilityContracts */\n    tag_8:\n      callvalue\n      dup1\n      iszero\n      tag_60\n      jumpi\n      0x00\n      dup1\n      revert\n    tag_60:\n      pop\n      tag_61\n      tag_62\n      jump\t// in\n    tag_61:\n      mload(0x40)\n      tag_63\n      swap2\n      swap1\n      tag_64\n      jump\t// in\n    tag_63:\n      mload(0x40)\n      dup1\n      swap2\n      sub\n      swap1\n      return\n        /* \"Contracts\":2850:3255  function failOpenAccountabilityContract(address user, address contractAddress) public {... */\n    tag_9:\n      callvalue\n      dup1\n      iszero\n      tag_65\n      jumpi\n      0x00\n      dup1\n      revert\n    tag_65:\n      pop\n      tag_66\n      0x04\n      dup1\n      calldatasize\n      sub\n      dup2\n      add\n      swap1\n      tag_67\n      swap2\n      swap1\n      tag_28\n      jump\t// in\n    tag_67:\n      tag_68\n      jump\t// in\n    tag_66:\n      stop\n        /* \"Contracts\":2639:2844  function getCompleteAccountabilityContractRequestsForReferee(address referee) public view returns (address[] memory){... */\n    tag_10:\n      callvalue\n      dup1\n      iszero\n      tag_69\n      jumpi\n      0x00\n      dup1\n      revert\n    tag_69:\n      pop\n      tag_70\n      0x04\n      dup1\n      calldatasize\n      sub\n      dup2\n      add\n      swap1\n      tag_71\n      swap2\n      swap1\n      tag_40\n      jump\t// in\n    tag_71:\n      tag_72\n      jump\t// in\n    tag_70:\n      mload(0x40)\n      tag_73\n      swap2\n      swap1\n      tag_36\n      jump\t// in\n    tag_73:\n      mload(0x40)\n      dup1\n      swap2\n      sub\n      swap1\n      return\n        /* \"Contracts\":141:171  address[] public userAddresses */\n    tag_11:\n      callvalue\n      dup1\n      iszero\n      tag_74\n      jumpi\n      0x00\n      dup1\n      revert\n    tag_74:\n      pop\n      tag_75\n      0x04\n      dup1\n      calldatasize\n      sub\n      dup2\n      add\n      swap1\n      tag_76\n      swap2\n      swap1\n      tag_46\n      jump\t// in\n    tag_76:\n      tag_77\n      jump\t// in\n    tag_75:\n      mload(0x40)\n      tag_78\n      swap2\n      swap1\n      tag_49\n      jump\t// in\n    tag_78:\n      mload(0x40)\n      dup1\n      swap2\n      sub\n      swap1\n      return\n        /* \"Contracts\":338:381  mapping(address => Referee) public referees */\n    tag_12:\n      callvalue\n      dup1\n      iszero\n      tag_79\n      jumpi\n      0x00\n      dup1\n      revert\n    tag_79:\n      pop\n      tag_80\n      0x04\n      dup1\n      calldatasize\n      sub\n      dup2\n      add\n      swap1\n      tag_81\n      swap2\n      swap1\n      tag_40\n      jump\t// in\n    tag_81:\n      tag_82\n      jump\t// in\n    tag_80:\n      mload(0x40)\n      tag_83\n      swap2\n      swap1\n      tag_64\n      jump\t// in\n    tag_83:\n      mload(0x40)\n      dup1\n      swap2\n      sub\n      swap1\n      return\n        /* \"Contracts\":175:200  uint public numberOfUsers */\n    tag_13:\n      callvalue\n      dup1\n      iszero\n      tag_84\n      jumpi\n      0x00\n      dup1\n      revert\n    tag_84:\n      pop\n      tag_85\n      tag_86\n      jump\t// in\n    tag_85:\n      mload(0x40)\n      tag_87\n      swap2\n      swap1\n      tag_64\n      jump\t// in\n    tag_87:\n      mload(0x40)\n      dup1\n      swap2\n      sub\n      swap1\n      return\n        /* \"Contracts\":2243:2433  function getOpenAccountabilityContractAddressesForReferee(address referee) public view returns (address[] memory){... */\n    tag_14:\n      callvalue\n      dup1\n      iszero\n      tag_88\n      jumpi\n      0x00\n      dup1\n      revert\n    tag_88:\n      pop\n      tag_89\n      0x04\n      dup1\n      calldatasize\n      sub\n      dup2\n      add\n      swap1\n      tag_90\n      swap2\n      swap1\n      tag_40\n      jump\t// in\n    tag_90:\n      tag_91\n      jump\t// in\n    tag_89:\n      mload(0x40)\n      tag_92\n      swap2\n      swap1\n      tag_36\n      jump\t// in\n    tag_92:\n      mload(0x40)\n      dup1\n      swap2\n      sub\n      swap1\n      return\n        /* \"Contracts\":100:137  mapping(address => User) public users */\n    tag_15:\n      callvalue\n      dup1\n      iszero\n      tag_93\n      jumpi\n      0x00\n      dup1\n      revert\n    tag_93:\n      pop\n      tag_94\n      0x04\n      dup1\n      calldatasize\n      sub\n      dup2\n      add\n      swap1\n      tag_95\n      swap2\n      swap1\n      tag_40\n      jump\t// in\n    tag_95:\n      tag_96\n      jump\t// in\n    tag_94:\n      mload(0x40)\n      tag_97\n      swap2\n      swap1\n      tag_64\n      jump\t// in\n    tag_97:\n      mload(0x40)\n      dup1\n      swap2\n      sub\n      swap1\n      return\n        /* \"Contracts\":6780:7275  function getUserAddresses(uint startIndex, uint endIndex) public view returns (address[] memory) {... */\n    tag_16:\n      callvalue\n      dup1\n      iszero\n      tag_98\n      jumpi\n      0x00\n      dup1\n      revert\n    tag_98:\n      pop\n      tag_99\n      0x04\n      dup1\n      calldatasize\n      sub\n      dup2\n      add\n      swap1\n      tag_100\n      swap2\n      swap1\n      tag_33\n      jump\t// in\n    tag_100:\n      tag_101\n      jump\t// in\n    tag_99:\n      mload(0x40)\n      tag_102\n      swap2\n      swap1\n      tag_36\n      jump\t// in\n    tag_102:\n      mload(0x40)\n      dup1\n      swap2\n      sub\n      swap1\n      return\n        /* \"Contracts\":2055:2237  function getClosedAccountabilityContractAddressesForUser(address user) public view returns (address[] memory){... */\n    tag_17:\n      callvalue\n      dup1\n      iszero\n      tag_103\n      jumpi\n      0x00\n      dup1\n      revert\n    tag_103:\n      pop\n      tag_104\n      0x04\n      dup1\n      calldatasize\n      sub\n      dup2\n      add\n      swap1\n      tag_105\n      swap2\n      swap1\n      tag_40\n      jump\t// in\n    tag_105:\n      tag_106\n      jump\t// in\n    tag_104:\n      mload(0x40)\n      tag_107\n      swap2\n      swap1\n      tag_36\n      jump\t// in\n    tag_107:\n      mload(0x40)\n      dup1\n      swap2\n      sub\n      swap1\n      return\n        /* \"Contracts\":385:413  uint public numberOfReferees */\n    tag_18:\n      callvalue\n      dup1\n      iszero\n      tag_108\n      jumpi\n      0x00\n      dup1\n      revert\n    tag_108:\n      pop\n      tag_109\n      tag_110\n      jump\t// in\n    tag_109:\n      mload(0x40)\n      tag_111\n      swap2\n      swap1\n      tag_64\n      jump\t// in\n    tag_111:\n      mload(0x40)\n      dup1\n      swap2\n      sub\n      swap1\n      return\n        /* \"Contracts\":3261:3675  function completeOpenAccountabilityContract(address user, address contractAddress) public {... */\n    tag_19:\n      callvalue\n      dup1\n      iszero\n      tag_112\n      jumpi\n      0x00\n      dup1\n      revert\n    tag_112:\n      pop\n      tag_113\n      0x04\n      dup1\n      calldatasize\n      sub\n      dup2\n      add\n      swap1\n      tag_114\n      swap2\n      swap1\n      tag_28\n      jump\t// in\n    tag_114:\n      tag_115\n      jump\t// in\n    tag_113:\n      stop\n        /* \"Contracts\":303:334  uint public totalEthInContracts */\n    tag_20:\n      callvalue\n      dup1\n      iszero\n      tag_116\n      jumpi\n      0x00\n      dup1\n      revert\n    tag_116:\n      pop\n      tag_117\n      tag_118\n      jump\t// in\n    tag_117:\n      mload(0x40)\n      tag_119\n      swap2\n      swap1\n      tag_64\n      jump\t// in\n    tag_119:\n      mload(0x40)\n      dup1\n      swap2\n      sub\n      swap1\n      return\n        /* \"Contracts\":835:1865  function createAccountabilityContract(address _referee, string memory _name, string memory _description, address payable _failureRecipient) public payable {... */\n    tag_21:\n      tag_120\n      0x04\n      dup1\n      calldatasize\n      sub\n      dup2\n      add\n      swap1\n      tag_121\n      swap2\n      swap1\n      tag_122\n      jump\t// in\n    tag_121:\n      tag_123\n      jump\t// in\n    tag_120:\n      stop\n        /* \"Contracts\":3681:4501  function requestRefereeCompletesContract(address referee, address contractAddress) public {... */\n    tag_29:\n        /* \"Contracts\":3781:3826  AccountabilityContract accountabilityContract */\n      0x00\n        /* \"Contracts\":3852:3867  contractAddress */\n      dup2\n        /* \"Contracts\":3781:3868  AccountabilityContract accountabilityContract = AccountabilityContract(contractAddress) */\n      swap1\n      pop\n        /* \"Contracts\":3878:3893  address creator */\n      0x00\n        /* \"Contracts\":3896:3918  accountabilityContract */\n      dup2\n        /* \"Contracts\":3896:3926  accountabilityContract.creator */\n      0xffffffffffffffffffffffffffffffffffffffff\n      and\n      0x02d05d3f\n        /* \"Contracts\":3896:3928  accountabilityContract.creator() */\n      mload(0x40)\n      dup2\n      0xffffffff\n      and\n      0xe0\n      shl\n      dup2\n      mstore\n      0x04\n      add\n      0x20\n      mload(0x40)\n      dup1\n      dup4\n      sub\n      dup2\n      dup7\n      gas\n      staticcall\n      iszero\n      dup1\n      iszero\n      tag_126\n      jumpi\n      returndatasize\n      0x00\n      dup1\n      returndatacopy\n      revert(0x00, returndatasize)\n    tag_126:\n      pop\n      pop\n      pop\n      pop\n      mload(0x40)\n      returndatasize\n      not(0x1f)\n      0x1f\n      dup3\n      add\n      and\n      dup3\n      add\n      dup1\n      0x40\n      mstore\n      pop\n      dup2\n      add\n      swap1\n      tag_127\n      swap2\n      swap1\n      tag_128\n      jump\t// in\n    tag_127:\n        /* \"Contracts\":3878:3928  address creator = accountabilityContract.creator() */\n      swap1\n      pop\n        /* \"Contracts\":3981:4015  AccountabilityContract.Status.OPEN */\n      0x00\n        /* \"Contracts\":3946:4015  accountabilityContract.status() == AccountabilityContract.Status.OPEN */\n      0x02\n      dup2\n      gt\n      iszero\n      tag_129\n      jumpi\n      tag_130\n      tag_131\n      jump\t// in\n    tag_130:\n    tag_129:\n        /* \"Contracts\":3946:3968  accountabilityContract */\n      dup3\n        /* \"Contracts\":3946:3975  accountabilityContract.status */\n      0xffffffffffffffffffffffffffffffffffffffff\n      and\n      0x200d2ed2\n        /* \"Contracts\":3946:3977  accountabilityContract.status() */\n      mload(0x40)\n      dup2\n      0xffffffff\n      and\n      0xe0\n      shl\n      dup2\n      mstore\n      0x04\n      add\n      0x20\n      mload(0x40)\n      dup1\n      dup4\n      sub\n      dup2\n      dup7\n      gas\n      staticcall\n      iszero\n      dup1\n      iszero\n      tag_133\n      jumpi\n      returndatasize\n      0x00\n      dup1\n      returndatacopy\n      revert(0x00, returndatasize)\n    tag_133:\n      pop\n      pop\n      pop\n      pop\n      mload(0x40)\n      returndatasize\n      not(0x1f)\n      0x1f\n      dup3\n      add\n      and\n      dup3\n      add\n      dup1\n      0x40\n      mstore\n      pop\n      dup2\n      add\n      swap1\n      tag_134\n      swap2\n      swap1\n      tag_135\n      jump\t// in\n    tag_134:\n        /* \"Contracts\":3946:4015  accountabilityContract.status() == AccountabilityContract.Status.OPEN */\n      0x02\n      dup2\n      gt\n      iszero\n      tag_136\n      jumpi\n      tag_137\n      tag_131\n      jump\t// in\n    tag_137:\n    tag_136:\n      eq\n        /* \"Contracts\":3938:4048  require(accountabilityContract.status() == AccountabilityContract.Status.OPEN, \"Contract status must be open\") */\n      tag_138\n      jumpi\n      mload(0x40)\n      0x08c379a000000000000000000000000000000000000000000000000000000000\n      dup2\n      mstore\n      0x04\n      add\n      tag_139\n      swap1\n      tag_140\n      jump\t// in\n    tag_139:\n      mload(0x40)\n      dup1\n      swap2\n      sub\n      swap1\n      revert\n    tag_138:\n        /* \"Contracts\":4102:4109  referee */\n      dup4\n        /* \"Contracts\":4066:4109  accountabilityContract.referee() == referee */\n      0xffffffffffffffffffffffffffffffffffffffff\n      and\n        /* \"Contracts\":4066:4088  accountabilityContract */\n      dup3\n        /* \"Contracts\":4066:4096  accountabilityContract.referee */\n      0xffffffffffffffffffffffffffffffffffffffff\n      and\n      0x3b1bebd1\n        /* \"Contracts\":4066:4098  accountabilityContract.referee() */\n      mload(0x40)\n      dup2\n      0xffffffff\n      and\n      0xe0\n      shl\n      dup2\n      mstore\n      0x04\n      add\n      0x20\n      mload(0x40)\n      dup1\n      dup4\n      sub\n      dup2\n      dup7\n      gas\n      staticcall\n      iszero\n      dup1\n      iszero\n      tag_142\n      jumpi\n      returndatasize\n      0x00\n      dup1\n      returndatacopy\n      revert(0x00, returndatasize)\n    tag_142:\n      pop\n      pop\n      pop\n      pop\n      mload(0x40)\n      returndatasize\n      not(0x1f)\n      0x1f\n      dup3\n      add\n      and\n      dup3\n      add\n      dup1\n      0x40\n      mstore\n      pop\n      dup2\n      add\n      swap1\n      tag_143\n      swap2\n      swap1\n      tag_128\n      jump\t// in\n    tag_143:\n        /* \"Contracts\":4066:4109  accountabilityContract.referee() == referee */\n      0xffffffffffffffffffffffffffffffffffffffff\n      and\n      eq\n        /* \"Contracts\":4058:4159  require(accountabilityContract.referee() == referee, \"Contract referee must equal requested referee\") */\n      tag_144\n      jumpi\n      mload(0x40)\n      0x08c379a000000000000000000000000000000000000000000000000000000000\n      dup2\n      mstore\n      0x04\n      add\n      tag_145\n      swap1\n      tag_146\n      jump\t// in\n    tag_145:\n      mload(0x40)\n      dup1\n      swap2\n      sub\n      swap1\n      revert\n    tag_144:\n        /* \"Contracts\":4190:4197  creator */\n      dup1\n        /* \"Contracts\":4177:4197  tx.origin == creator */\n      0xffffffffffffffffffffffffffffffffffffffff\n      and\n        /* \"Contracts\":4177:4186  tx.origin */\n      origin\n        /* \"Contracts\":4177:4197  tx.origin == creator */\n      0xffffffffffffffffffffffffffffffffffffffff\n      and\n      eq\n        /* \"Contracts\":4169:4249  require(tx.origin == creator, \"Only creator of contract can request completion\") */\n      tag_147\n      jumpi\n      mload(0x40)\n      0x08c379a000000000000000000000000000000000000000000000000000000000\n      dup2\n      mstore\n      0x04\n      add\n      tag_148\n      swap1\n      tag_149\n      jump\t// in\n    tag_148:\n      mload(0x40)\n      dup1\n      swap2\n      sub\n      swap1\n      revert\n    tag_147:\n        /* \"Contracts\":4259:4315  AccountabilityContractApprovalRequest newApprovalRequest */\n      0x00\n        /* \"Contracts\":4360:4367  creator */\n      dup2\n        /* \"Contracts\":4369:4384  contractAddress */\n      dup5\n        /* \"Contracts\":4318:4385  new AccountabilityContractApprovalRequest(creator, contractAddress) */\n      mload(0x40)\n      tag_150\n      swap1\n      tag_151\n      jump\t// in\n    tag_150:\n      tag_152\n      swap3\n      swap2\n      swap1\n      tag_153\n      jump\t// in\n    tag_152:\n      mload(0x40)\n      dup1\n      swap2\n      sub\n      swap1\n      0x00\n      create\n      dup1\n      iszero\n      dup1\n      iszero\n      tag_154\n      jumpi\n      returndatasize\n      0x00\n      dup1\n      returndatacopy\n      revert(0x00, returndatasize)\n    tag_154:\n      pop\n        /* \"Contracts\":4259:4385  AccountabilityContractApprovalRequest newApprovalRequest = new AccountabilityContractApprovalRequest(creator, contractAddress) */\n      swap1\n      pop\n        /* \"Contracts\":4395:4403  referees */\n      0x06\n        /* \"Contracts\":4395:4412  referees[referee] */\n      0x00\n        /* \"Contracts\":4404:4411  referee */\n      dup7\n        /* \"Contracts\":4395:4412  referees[referee] */\n      0xffffffffffffffffffffffffffffffffffffffff\n      and\n      0xffffffffffffffffffffffffffffffffffffffff\n      and\n      dup2\n      mstore\n      0x20\n      add\n      swap1\n      dup2\n      mstore\n      0x20\n      add\n      0x00\n      keccak256\n        /* \"Contracts\":4395:4460  referees[referee].completeAccountabilityContractRequestsAddresses */\n      0x03\n      add\n        /* \"Contracts\":4474:4492  newApprovalRequest */\n      dup2\n        /* \"Contracts\":4395:4494  referees[referee].completeAccountabilityContractRequestsAddresses.push(address(newApprovalRequest)) */\n      swap1\n      dup1\n      0x01\n      dup2\n      sload\n      add\n      dup1\n      dup3\n      sstore\n      dup1\n      swap2\n      pop\n      pop\n      0x01\n      swap1\n      sub\n      swap1\n      0x00\n      mstore\n      keccak256(0x00, 0x20)\n      add\n      0x00\n      swap1\n      swap2\n      swap1\n      swap2\n      swap1\n      swap2\n      0x0100\n      exp\n      dup2\n      sload\n      dup2\n      0xffffffffffffffffffffffffffffffffffffffff\n      mul\n      not\n      and\n      swap1\n      dup4\n      0xffffffffffffffffffffffffffffffffffffffff\n      and\n      mul\n      or\n      swap1\n      sstore\n      pop\n        /* \"Contracts\":3771:4501  {... */\n      pop\n      pop\n      pop\n        /* \"Contracts\":3681:4501  function requestRefereeCompletesContract(address referee, address contractAddress) public {... */\n      pop\n      pop\n      jump\t// out\n        /* \"Contracts\":7281:7884  function getAccountabilityContractAddresses(uint startIndex, uint endIndex) public view returns (address[] memory) {... */\n    tag_34:\n        /* \"Contracts\":7378:7394  address[] memory */\n      0x60\n        /* \"Contracts\":7427:7428  0 */\n      0x00\n        /* \"Contracts\":7413:7423  startIndex */\n      dup4\n        /* \"Contracts\":7413:7428  startIndex >= 0 */\n      lt\n      iszero\n        /* \"Contracts\":7405:7463  require(startIndex >= 0, \"Start index cannot be negative\") */\n      tag_157\n      jumpi\n      mload(0x40)\n      0x08c379a000000000000000000000000000000000000000000000000000000000\n      dup2\n      mstore\n      0x04\n      add\n      tag_158\n      swap1\n      tag_159\n      jump\t// in\n    tag_158:\n      mload(0x40)\n      dup1\n      swap2\n      sub\n      swap1\n      revert\n    tag_157:\n        /* \"Contracts\":7492:7523  accountabilityContractAddresses */\n      0x03\n        /* \"Contracts\":7492:7530  accountabilityContractAddresses.length */\n      dup1\n      sload\n      swap1\n      pop\n        /* \"Contracts\":7480:7488  endIndex */\n      dup3\n        /* \"Contracts\":7480:7530  endIndex <= accountabilityContractAddresses.length */\n      gt\n      iszero\n        /* \"Contracts\":7472:7574  require(endIndex <= accountabilityContractAddresses.length, \"End index exceeds user addresses length\") */\n      tag_160\n      jumpi\n      mload(0x40)\n      0x08c379a000000000000000000000000000000000000000000000000000000000\n      dup2\n      mstore\n      0x04\n      add\n      tag_161\n      swap1\n      tag_162\n      jump\t// in\n    tag_161:\n      mload(0x40)\n      dup1\n      swap2\n      sub\n      swap1\n      revert\n    tag_160:\n        /* \"Contracts\":7583:7637  address[] memory slicedAccountabilityContractAddresses */\n      0x00\n        /* \"Contracts\":7663:7673  startIndex */\n      dup4\n        /* \"Contracts\":7654:7662  endIndex */\n      dup4\n        /* \"Contracts\":7654:7673  endIndex-startIndex */\n      tag_163\n      swap2\n      swap1\n      tag_164\n      jump\t// in\n    tag_163:\n        /* \"Contracts\":7640:7674  new address[](endIndex-startIndex) */\n      0xffffffffffffffff\n      dup2\n      gt\n      iszero\n      tag_165\n      jumpi\n      tag_166\n      tag_167\n      jump\t// in\n    tag_166:\n    tag_165:\n      mload(0x40)\n      swap1\n      dup1\n      dup3\n      mstore\n      dup1\n      0x20\n      mul\n      0x20\n      add\n      dup3\n      add\n      0x40\n      mstore\n      dup1\n      iszero\n      tag_168\n      jumpi\n      dup2\n      0x20\n      add\n      0x20\n      dup3\n      mul\n      dup1\n      calldatasize\n      dup4\n      calldatacopy\n      dup1\n      dup3\n      add\n      swap2\n      pop\n      pop\n      swap1\n      pop\n    tag_168:\n      pop\n        /* \"Contracts\":7583:7674  address[] memory slicedAccountabilityContractAddresses = new address[](endIndex-startIndex) */\n      swap1\n      pop\n        /* \"Contracts\":7687:7693  uint i */\n      0x00\n        /* \"Contracts\":7694:7704  startIndex */\n      dup5\n        /* \"Contracts\":7687:7704  uint i=startIndex */\n      swap1\n      pop\n        /* \"Contracts\":7683:7824  for(uint i=startIndex; i<endIndex; i++){... */\n    tag_169:\n        /* \"Contracts\":7708:7716  endIndex */\n      dup4\n        /* \"Contracts\":7706:7707  i */\n      dup2\n        /* \"Contracts\":7706:7716  i<endIndex */\n      lt\n        /* \"Contracts\":7683:7824  for(uint i=startIndex; i<endIndex; i++){... */\n      iszero\n      tag_170\n      jumpi\n        /* \"Contracts\":7779:7810  accountabilityContractAddresses */\n      0x03\n        /* \"Contracts\":7811:7812  i */\n      dup2\n        /* \"Contracts\":7779:7813  accountabilityContractAddresses[i] */\n      dup2\n      sload\n      dup2\n      lt\n      tag_172\n      jumpi\n      tag_173\n      tag_174\n      jump\t// in\n    tag_173:\n    tag_172:\n      swap1\n      0x00\n      mstore\n      keccak256(0x00, 0x20)\n      add\n      0x00\n      swap1\n      sload\n      swap1\n      0x0100\n      exp\n      swap1\n      div\n      0xffffffffffffffffffffffffffffffffffffffff\n      and\n        /* \"Contracts\":7736:7773  slicedAccountabilityContractAddresses */\n      dup3\n        /* \"Contracts\":7774:7775  i */\n      dup3\n        /* \"Contracts\":7736:7776  slicedAccountabilityContractAddresses[i] */\n      dup2\n      mload\n      dup2\n      lt\n      tag_176\n      jumpi\n      tag_177\n      tag_174\n      jump\t// in\n    tag_177:\n    tag_176:\n      0x20\n      mul\n      0x20\n      add\n      add\n        /* \"Contracts\":7736:7813  slicedAccountabilityContractAddresses[i] = accountabilityContractAddresses[i] */\n      swap1\n      0xffffffffffffffffffffffffffffffffffffffff\n      and\n      swap1\n      dup2\n      0xffffffffffffffffffffffffffffffffffffffff\n      and\n      dup2\n      mstore\n      pop\n      pop\n        /* \"Contracts\":7718:7721  i++ */\n      dup1\n      dup1\n      tag_178\n      swap1\n      tag_179\n      jump\t// in\n    tag_178:\n      swap2\n      pop\n      pop\n        /* \"Contracts\":7683:7824  for(uint i=startIndex; i<endIndex; i++){... */\n      jump(tag_169)\n    tag_170:\n      pop\n        /* \"Contracts\":7840:7877  slicedAccountabilityContractAddresses */\n      dup1\n        /* \"Contracts\":7833:7877  return slicedAccountabilityContractAddresses */\n      swap2\n      pop\n      pop\n        /* \"Contracts\":7281:7884  function getAccountabilityContractAddresses(uint startIndex, uint endIndex) public view returns (address[] memory) {... */\n      swap3\n      swap2\n      pop\n      pop\n      jump\t// out\n        /* \"Contracts\":2439:2633  function getClosedAccountabilityContractAddressesForReferee(address referee) public view returns (address[] memory){... */\n    tag_41:\n        /* \"Contracts\":2537:2553  address[] memory */\n      0x60\n        /* \"Contracts\":2571:2579  referees */\n      0x06\n        /* \"Contracts\":2571:2588  referees[referee] */\n      0x00\n        /* \"Contracts\":2580:2587  referee */\n      dup4\n        /* \"Contracts\":2571:2588  referees[referee] */\n      0xffffffffffffffffffffffffffffffffffffffff\n      and\n      0xffffffffffffffffffffffffffffffffffffffff\n      and\n      dup2\n      mstore\n      0x20\n      add\n      swap1\n      dup2\n      mstore\n      0x20\n      add\n      0x00\n      keccak256\n        /* \"Contracts\":2571:2626  referees[referee].closedAccountabilityContractAddresses */\n      0x02\n      add\n        /* \"Contracts\":2564:2626  return referees[referee].closedAccountabilityContractAddresses */\n      dup1\n      sload\n      dup1\n      0x20\n      mul\n      0x20\n      add\n      mload(0x40)\n      swap1\n      dup2\n      add\n      0x40\n      mstore\n      dup1\n      swap3\n      swap2\n      swap1\n      dup2\n      dup2\n      mstore\n      0x20\n      add\n      dup3\n      dup1\n      sload\n      dup1\n      iszero\n      tag_181\n      jumpi\n      0x20\n      mul\n      dup3\n      add\n      swap2\n      swap1\n      0x00\n      mstore\n      keccak256(0x00, 0x20)\n      swap1\n    tag_182:\n      dup2\n      0x00\n      swap1\n      sload\n      swap1\n      0x0100\n      exp\n      swap1\n      div\n      0xffffffffffffffffffffffffffffffffffffffff\n      and\n      0xffffffffffffffffffffffffffffffffffffffff\n      and\n      dup2\n      mstore\n      0x20\n      add\n      swap1\n      0x01\n      add\n      swap1\n      dup1\n      dup4\n      gt\n      tag_182\n      jumpi\n    tag_181:\n      pop\n      pop\n      pop\n      pop\n      pop\n      swap1\n      pop\n        /* \"Contracts\":2439:2633  function getClosedAccountabilityContractAddressesForReferee(address referee) public view returns (address[] memory){... */\n      swap2\n      swap1\n      pop\n      jump\t// out\n        /* \"Contracts\":204:252  address[] public accountabilityContractAddresses */\n    tag_47:\n      0x03\n      dup2\n      dup2\n      sload\n      dup2\n      lt\n      tag_183\n      jumpi\n      0x00\n      dup1\n      revert\n    tag_183:\n      swap1\n      0x00\n      mstore\n      keccak256(0x00, 0x20)\n      add\n      0x00\n      swap2\n      pop\n      sload\n      swap1\n      0x0100\n      exp\n      swap1\n      div\n      0xffffffffffffffffffffffffffffffffffffffff\n      and\n      dup2\n      jump\t// out\n        /* \"Contracts\":417:450  address[] public refereeAddresses */\n    tag_53:\n      0x08\n      dup2\n      dup2\n      sload\n      dup2\n      lt\n      tag_185\n      jumpi\n      0x00\n      dup1\n      revert\n    tag_185:\n      swap1\n      0x00\n      mstore\n      keccak256(0x00, 0x20)\n      add\n      0x00\n      swap2\n      pop\n      sload\n      swap1\n      0x0100\n      exp\n      swap1\n      div\n      0xffffffffffffffffffffffffffffffffffffffff\n      and\n      dup2\n      jump\t// out\n        /* \"Contracts\":1871:2049  function getOpenAccountabilityContractAddressesForUser(address user) public view returns (address[] memory){... */\n    tag_58:\n        /* \"Contracts\":1961:1977  address[] memory */\n      0x60\n        /* \"Contracts\":1995:2000  users */\n      0x00\n        /* \"Contracts\":1995:2006  users[user] */\n      dup1\n        /* \"Contracts\":2001:2005  user */\n      dup4\n        /* \"Contracts\":1995:2006  users[user] */\n      0xffffffffffffffffffffffffffffffffffffffff\n      and\n      0xffffffffffffffffffffffffffffffffffffffff\n      and\n      dup2\n      mstore\n      0x20\n      add\n      swap1\n      dup2\n      mstore\n      0x20\n      add\n      0x00\n      keccak256\n        /* \"Contracts\":1995:2042  users[user].openAccountabilityContractAddresses */\n      0x01\n      add\n        /* \"Contracts\":1988:2042  return users[user].openAccountabilityContractAddresses */\n      dup1\n      sload\n      dup1\n      0x20\n      mul\n      0x20\n      add\n      mload(0x40)\n      swap1\n      dup2\n      add\n      0x40\n      mstore\n      dup1\n      swap3\n      swap2\n      swap1\n      dup2\n      dup2\n      mstore\n      0x20\n      add\n      dup3\n      dup1\n      sload\n      dup1\n      iszero\n      tag_188\n      jumpi\n      0x20\n      mul\n      dup3\n      add\n      swap2\n      swap1\n      0x00\n      mstore\n      keccak256(0x00, 0x20)\n      swap1\n    tag_189:\n      dup2\n      0x00\n      swap1\n      sload\n      swap1\n      0x0100\n      exp\n      swap1\n      div\n      0xffffffffffffffffffffffffffffffffffffffff\n      and\n      0xffffffffffffffffffffffffffffffffffffffff\n      and\n      dup2\n      mstore\n      0x20\n      add\n      swap1\n      0x01\n      add\n      swap1\n      dup1\n      dup4\n      gt\n      tag_189\n      jumpi\n    tag_188:\n      pop\n      pop\n      pop\n      pop\n      pop\n      swap1\n      pop\n        /* \"Contracts\":1871:2049  function getOpenAccountabilityContractAddressesForUser(address user) public view returns (address[] memory){... */\n      swap2\n      swap1\n      pop\n      jump\t// out\n        /* \"Contracts\":256:299  uint public numberOfAccountabilityContracts */\n    tag_62:\n      sload(0x04)\n      dup2\n      jump\t// out\n        /* \"Contracts\":2850:3255  function failOpenAccountabilityContract(address user, address contractAddress) public {... */\n    tag_68:\n        /* \"Contracts\":2944:2989  AccountabilityContract accountabilityContract */\n      0x00\n        /* \"Contracts\":3015:3030  contractAddress */\n      dup2\n        /* \"Contracts\":2944:3031  AccountabilityContract accountabilityContract = AccountabilityContract(contractAddress) */\n      swap1\n      pop\n        /* \"Contracts\":3039:3061  accountabilityContract */\n      dup1\n        /* \"Contracts\":3039:3074  accountabilityContract.failContract */\n      0xffffffffffffffffffffffffffffffffffffffff\n      and\n      0x2d398fa6\n        /* \"Contracts\":3039:3076  accountabilityContract.failContract() */\n      mload(0x40)\n      dup2\n      0xffffffff\n      and\n      0xe0\n      shl\n      dup2\n      mstore\n      0x04\n      add\n      0x20\n      mload(0x40)\n      dup1\n      dup4\n      sub\n      dup2\n      0x00\n      dup8\n      gas\n      call\n      iszero\n      dup1\n      iszero\n      tag_192\n      jumpi\n      returndatasize\n      0x00\n      dup1\n      returndatacopy\n      revert(0x00, returndatasize)\n    tag_192:\n      pop\n      pop\n      pop\n      pop\n      mload(0x40)\n      returndatasize\n      not(0x1f)\n      0x1f\n      dup3\n      add\n      and\n      dup3\n      add\n      dup1\n      0x40\n      mstore\n      pop\n      dup2\n      add\n      swap1\n      tag_193\n      swap2\n      swap1\n      tag_194\n      jump\t// in\n    tag_193:\n      pop\n        /* \"Contracts\":3084:3146  moveOpenContractToClosedContractsForUser(user,contractAddress) */\n      tag_195\n        /* \"Contracts\":3125:3129  user */\n      dup4\n        /* \"Contracts\":3130:3145  contractAddress */\n      dup4\n        /* \"Contracts\":3084:3124  moveOpenContractToClosedContractsForUser */\n      tag_196\n        /* \"Contracts\":3084:3146  moveOpenContractToClosedContractsForUser(user,contractAddress) */\n      jump\t// in\n    tag_195:\n        /* \"Contracts\":3154:3248  moveOpenContractToClosedContractsForReferee(accountabilityContract.referee(), contractAddress) */\n      tag_197\n        /* \"Contracts\":3198:3220  accountabilityContract */\n      dup2\n        /* \"Contracts\":3198:3228  accountabilityContract.referee */\n      0xffffffffffffffffffffffffffffffffffffffff\n      and\n      0x3b1bebd1\n        /* \"Contracts\":3198:3230  accountabilityContract.referee() */\n      mload(0x40)\n      dup2\n      0xffffffff\n      and\n      0xe0\n      shl\n      dup2\n      mstore\n      0x04\n      add\n      0x20\n      mload(0x40)\n      dup1\n      dup4\n      sub\n      dup2\n      dup7\n      gas\n      staticcall\n      iszero\n      dup1\n      iszero\n      tag_199\n      jumpi\n      returndatasize\n      0x00\n      dup1\n      returndatacopy\n      revert(0x00, returndatasize)\n    tag_199:\n      pop\n      pop\n      pop\n      pop\n      mload(0x40)\n      returndatasize\n      not(0x1f)\n      0x1f\n      dup3\n      add\n      and\n      dup3\n      add\n      dup1\n      0x40\n      mstore\n      pop\n      dup2\n      add\n      swap1\n      tag_200\n      swap2\n      swap1\n      tag_128\n      jump\t// in\n    tag_200:\n        /* \"Contracts\":3232:3247  contractAddress */\n      dup4\n        /* \"Contracts\":3154:3197  moveOpenContractToClosedContractsForReferee */\n      tag_201\n        /* \"Contracts\":3154:3248  moveOpenContractToClosedContractsForReferee(accountabilityContract.referee(), contractAddress) */\n      jump\t// in\n    tag_197:\n        /* \"Contracts\":2936:3255  {... */\n      pop\n        /* \"Contracts\":2850:3255  function failOpenAccountabilityContract(address user, address contractAddress) public {... */\n      pop\n      pop\n      jump\t// out\n        /* \"Contracts\":2639:2844  function getCompleteAccountabilityContractRequestsForReferee(address referee) public view returns (address[] memory){... */\n    tag_72:\n        /* \"Contracts\":2738:2754  address[] memory */\n      0x60\n        /* \"Contracts\":2772:2780  referees */\n      0x06\n        /* \"Contracts\":2772:2789  referees[referee] */\n      0x00\n        /* \"Contracts\":2781:2788  referee */\n      dup4\n        /* \"Contracts\":2772:2789  referees[referee] */\n      0xffffffffffffffffffffffffffffffffffffffff\n      and\n      0xffffffffffffffffffffffffffffffffffffffff\n      and\n      dup2\n      mstore\n      0x20\n      add\n      swap1\n      dup2\n      mstore\n      0x20\n      add\n      0x00\n      keccak256\n        /* \"Contracts\":2772:2837  referees[referee].completeAccountabilityContractRequestsAddresses */\n      0x03\n      add\n        /* \"Contracts\":2765:2837  return referees[referee].completeAccountabilityContractRequestsAddresses */\n      dup1\n      sload\n      dup1\n      0x20\n      mul\n      0x20\n      add\n      mload(0x40)\n      swap1\n      dup2\n      add\n      0x40\n      mstore\n      dup1\n      swap3\n      swap2\n      swap1\n      dup2\n      dup2\n      mstore\n      0x20\n      add\n      dup3\n      dup1\n      sload\n      dup1\n      iszero\n      tag_203\n      jumpi\n      0x20\n      mul\n      dup3\n      add\n      swap2\n      swap1\n      0x00\n      mstore\n      keccak256(0x00, 0x20)\n      swap1\n    tag_204:\n      dup2\n      0x00\n      swap1\n      sload\n      swap1\n      0x0100\n      exp\n      swap1\n      div\n      0xffffffffffffffffffffffffffffffffffffffff\n      and\n      0xffffffffffffffffffffffffffffffffffffffff\n      and\n      dup2\n      mstore\n      0x20\n      add\n      swap1\n      0x01\n      add\n      swap1\n      dup1\n      dup4\n      gt\n      tag_204\n      jumpi\n    tag_203:\n      pop\n      pop\n      pop\n      pop\n      pop\n      swap1\n      pop\n        /* \"Contracts\":2639:2844  function getCompleteAccountabilityContractRequestsForReferee(address referee) public view returns (address[] memory){... */\n      swap2\n      swap1\n      pop\n      jump\t// out\n        /* \"Contracts\":141:171  address[] public userAddresses */\n    tag_77:\n      0x01\n      dup2\n      dup2\n      sload\n      dup2\n      lt\n      tag_205\n      jumpi\n      0x00\n      dup1\n      revert\n    tag_205:\n      swap1\n      0x00\n      mstore\n      keccak256(0x00, 0x20)\n      add\n      0x00\n      swap2\n      pop\n      sload\n      swap1\n      0x0100\n      exp\n      swap1\n      div\n      0xffffffffffffffffffffffffffffffffffffffff\n      and\n      dup2\n      jump\t// out\n        /* \"Contracts\":338:381  mapping(address => Referee) public referees */\n    tag_82:\n      mstore(0x20, 0x06)\n      dup1\n      0x00\n      mstore\n      keccak256(0x00, 0x40)\n      0x00\n      swap2\n      pop\n      swap1\n      pop\n      dup1\n      0x00\n      add\n      sload\n      swap1\n      pop\n      dup2\n      jump\t// out\n        /* \"Contracts\":175:200  uint public numberOfUsers */\n    tag_86:\n      sload(0x02)\n      dup2\n      jump\t// out\n        /* \"Contracts\":2243:2433  function getOpenAccountabilityContractAddressesForReferee(address referee) public view returns (address[] memory){... */\n    tag_91:\n        /* \"Contracts\":2339:2355  address[] memory */\n      0x60\n        /* \"Contracts\":2373:2381  referees */\n      0x06\n        /* \"Contracts\":2373:2390  referees[referee] */\n      0x00\n        /* \"Contracts\":2382:2389  referee */\n      dup4\n        /* \"Contracts\":2373:2390  referees[referee] */\n      0xffffffffffffffffffffffffffffffffffffffff\n      and\n      0xffffffffffffffffffffffffffffffffffffffff\n      and\n      dup2\n      mstore\n      0x20\n      add\n      swap1\n      dup2\n      mstore\n      0x20\n      add\n      0x00\n      keccak256\n        /* \"Contracts\":2373:2426  referees[referee].openAccountabilityContractAddresses */\n      0x01\n      add\n        /* \"Contracts\":2366:2426  return referees[referee].openAccountabilityContractAddresses */\n      dup1\n      sload\n      dup1\n      0x20\n      mul\n      0x20\n      add\n      mload(0x40)\n      swap1\n      dup2\n      add\n      0x40\n      mstore\n      dup1\n      swap3\n      swap2\n      swap1\n      dup2\n      dup2\n      mstore\n      0x20\n      add\n      dup3\n      dup1\n      sload\n      dup1\n      iszero\n      tag_208\n      jumpi\n      0x20\n      mul\n      dup3\n      add\n      swap2\n      swap1\n      0x00\n      mstore\n      keccak256(0x00, 0x20)\n      swap1\n    tag_209:\n      dup2\n      0x00\n      swap1\n      sload\n      swap1\n      0x0100\n      exp\n      swap1\n      div\n      0xffffffffffffffffffffffffffffffffffffffff\n      and\n      0xffffffffffffffffffffffffffffffffffffffff\n      and\n      dup2\n      mstore\n      0x20\n      add\n      swap1\n      0x01\n      add\n      swap1\n      dup1\n      dup4\n      gt\n      tag_209\n      jumpi\n    tag_208:\n      pop\n      pop\n      pop\n      pop\n      pop\n      swap1\n      pop\n        /* \"Contracts\":2243:2433  function getOpenAccountabilityContractAddressesForReferee(address referee) public view returns (address[] memory){... */\n      swap2\n      swap1\n      pop\n      jump\t// out\n        /* \"Contracts\":100:137  mapping(address => User) public users */\n    tag_96:\n      mstore(0x20, 0x00)\n      dup1\n      0x00\n      mstore\n      keccak256(0x00, 0x40)\n      0x00\n      swap2\n      pop\n      swap1\n      pop\n      dup1\n      0x00\n      add\n      sload\n      swap1\n      pop\n      dup2\n      jump\t// out\n        /* \"Contracts\":6780:7275  function getUserAddresses(uint startIndex, uint endIndex) public view returns (address[] memory) {... */\n    tag_101:\n        /* \"Contracts\":6859:6875  address[] memory */\n      0x60\n        /* \"Contracts\":6908:6909  0 */\n      0x00\n        /* \"Contracts\":6894:6904  startIndex */\n      dup4\n        /* \"Contracts\":6894:6909  startIndex >= 0 */\n      lt\n      iszero\n        /* \"Contracts\":6886:6944  require(startIndex >= 0, \"Start index cannot be negative\") */\n      tag_211\n      jumpi\n      mload(0x40)\n      0x08c379a000000000000000000000000000000000000000000000000000000000\n      dup2\n      mstore\n      0x04\n      add\n      tag_212\n      swap1\n      tag_159\n      jump\t// in\n    tag_212:\n      mload(0x40)\n      dup1\n      swap2\n      sub\n      swap1\n      revert\n    tag_211:\n        /* \"Contracts\":6973:6986  userAddresses */\n      0x01\n        /* \"Contracts\":6973:6993  userAddresses.length */\n      dup1\n      sload\n      swap1\n      pop\n        /* \"Contracts\":6961:6969  endIndex */\n      dup3\n        /* \"Contracts\":6961:6993  endIndex <= userAddresses.length */\n      gt\n      iszero\n        /* \"Contracts\":6953:7037  require(endIndex <= userAddresses.length, \"End index exceeds user addresses length\") */\n      tag_213\n      jumpi\n      mload(0x40)\n      0x08c379a000000000000000000000000000000000000000000000000000000000\n      dup2\n      mstore\n      0x04\n      add\n      tag_214\n      swap1\n      tag_162\n      jump\t// in\n    tag_214:\n      mload(0x40)\n      dup1\n      swap2\n      sub\n      swap1\n      revert\n    tag_213:\n        /* \"Contracts\":7046:7082  address[] memory slicedUserAddresses */\n      0x00\n        /* \"Contracts\":7108:7118  startIndex */\n      dup4\n        /* \"Contracts\":7099:7107  endIndex */\n      dup4\n        /* \"Contracts\":7099:7118  endIndex-startIndex */\n      tag_215\n      swap2\n      swap1\n      tag_164\n      jump\t// in\n    tag_215:\n        /* \"Contracts\":7085:7119  new address[](endIndex-startIndex) */\n      0xffffffffffffffff\n      dup2\n      gt\n      iszero\n      tag_216\n      jumpi\n      tag_217\n      tag_167\n      jump\t// in\n    tag_217:\n    tag_216:\n      mload(0x40)\n      swap1\n      dup1\n      dup3\n      mstore\n      dup1\n      0x20\n      mul\n      0x20\n      add\n      dup3\n      add\n      0x40\n      mstore\n      dup1\n      iszero\n      tag_218\n      jumpi\n      dup2\n      0x20\n      add\n      0x20\n      dup3\n      mul\n      dup1\n      calldatasize\n      dup4\n      calldatacopy\n      dup1\n      dup3\n      add\n      swap2\n      pop\n      pop\n      swap1\n      pop\n    tag_218:\n      pop\n        /* \"Contracts\":7046:7119  address[] memory slicedUserAddresses = new address[](endIndex-startIndex) */\n      swap1\n      pop\n        /* \"Contracts\":7132:7138  uint i */\n      0x00\n        /* \"Contracts\":7139:7149  startIndex */\n      dup5\n        /* \"Contracts\":7132:7149  uint i=startIndex */\n      swap1\n      pop\n        /* \"Contracts\":7128:7233  for(uint i=startIndex; i<endIndex; i++){... */\n    tag_219:\n        /* \"Contracts\":7153:7161  endIndex */\n      dup4\n        /* \"Contracts\":7151:7152  i */\n      dup2\n        /* \"Contracts\":7151:7161  i<endIndex */\n      lt\n        /* \"Contracts\":7128:7233  for(uint i=startIndex; i<endIndex; i++){... */\n      iszero\n      tag_220\n      jumpi\n        /* \"Contracts\":7206:7219  userAddresses */\n      0x01\n        /* \"Contracts\":7220:7221  i */\n      dup2\n        /* \"Contracts\":7206:7222  userAddresses[i] */\n      dup2\n      sload\n      dup2\n      lt\n      tag_222\n      jumpi\n      tag_223\n      tag_174\n      jump\t// in\n    tag_223:\n    tag_222:\n      swap1\n      0x00\n      mstore\n      keccak256(0x00, 0x20)\n      add\n      0x00\n      swap1\n      sload\n      swap1\n      0x0100\n      exp\n      swap1\n      div\n      0xffffffffffffffffffffffffffffffffffffffff\n      and\n        /* \"Contracts\":7181:7200  slicedUserAddresses */\n      dup3\n        /* \"Contracts\":7201:7202  i */\n      dup3\n        /* \"Contracts\":7181:7203  slicedUserAddresses[i] */\n      dup2\n      mload\n      dup2\n      lt\n      tag_225\n      jumpi\n      tag_226\n      tag_174\n      jump\t// in\n    tag_226:\n    tag_225:\n      0x20\n      mul\n      0x20\n      add\n      add\n        /* \"Contracts\":7181:7222  slicedUserAddresses[i] = userAddresses[i] */\n      swap1\n      0xffffffffffffffffffffffffffffffffffffffff\n      and\n      swap1\n      dup2\n      0xffffffffffffffffffffffffffffffffffffffff\n      and\n      dup2\n      mstore\n      pop\n      pop\n        /* \"Contracts\":7163:7166  i++ */\n      dup1\n      dup1\n      tag_227\n      swap1\n      tag_179\n      jump\t// in\n    tag_227:\n      swap2\n      pop\n      pop\n        /* \"Contracts\":7128:7233  for(uint i=startIndex; i<endIndex; i++){... */\n      jump(tag_219)\n    tag_220:\n      pop\n        /* \"Contracts\":7249:7268  slicedUserAddresses */\n      dup1\n        /* \"Contracts\":7242:7268  return slicedUserAddresses */\n      swap2\n      pop\n      pop\n        /* \"Contracts\":6780:7275  function getUserAddresses(uint startIndex, uint endIndex) public view returns (address[] memory) {... */\n      swap3\n      swap2\n      pop\n      pop\n      jump\t// out\n        /* \"Contracts\":2055:2237  function getClosedAccountabilityContractAddressesForUser(address user) public view returns (address[] memory){... */\n    tag_106:\n        /* \"Contracts\":2147:2163  address[] memory */\n      0x60\n        /* \"Contracts\":2181:2186  users */\n      0x00\n        /* \"Contracts\":2181:2192  users[user] */\n      dup1\n        /* \"Contracts\":2187:2191  user */\n      dup4\n        /* \"Contracts\":2181:2192  users[user] */\n      0xffffffffffffffffffffffffffffffffffffffff\n      and\n      0xffffffffffffffffffffffffffffffffffffffff\n      and\n      dup2\n      mstore\n      0x20\n      add\n      swap1\n      dup2\n      mstore\n      0x20\n      add\n      0x00\n      keccak256\n        /* \"Contracts\":2181:2230  users[user].closedAccountabilityContractAddresses */\n      0x02\n      add\n        /* \"Contracts\":2174:2230  return users[user].closedAccountabilityContractAddresses */\n      dup1\n      sload\n      dup1\n      0x20\n      mul\n      0x20\n      add\n      mload(0x40)\n      swap1\n      dup2\n      add\n      0x40\n      mstore\n      dup1\n      swap3\n      swap2\n      swap1\n      dup2\n      dup2\n      mstore\n      0x20\n      add\n      dup3\n      dup1\n      sload\n      dup1\n      iszero\n      tag_229\n      jumpi\n      0x20\n      mul\n      dup3\n      add\n      swap2\n      swap1\n      0x00\n      mstore\n      keccak256(0x00, 0x20)\n      swap1\n    tag_230:\n      dup2\n      0x00\n      swap1\n      sload\n      swap1\n      0x0100\n      exp\n      swap1\n      div\n      0xffffffffffffffffffffffffffffffffffffffff\n      and\n      0xffffffffffffffffffffffffffffffffffffffff\n      and\n      dup2\n      mstore\n      0x20\n      add\n      swap1\n      0x01\n      add\n      swap1\n      dup1\n      dup4\n      gt\n      tag_230\n      jumpi\n    tag_229:\n      pop\n      pop\n      pop\n      pop\n      pop\n      swap1\n      pop\n        /* \"Contracts\":2055:2237  function getClosedAccountabilityContractAddressesForUser(address user) public view returns (address[] memory){... */\n      swap2\n      swap1\n      pop\n      jump\t// out\n        /* \"Contracts\":385:413  uint public numberOfReferees */\n    tag_110:\n      sload(0x07)\n      dup2\n      jump\t// out\n        /* \"Contracts\":3261:3675  function completeOpenAccountabilityContract(address user, address contractAddress) public {... */\n    tag_115:\n        /* \"Contracts\":3359:3404  AccountabilityContract accountabilityContract */\n      0x00\n        /* \"Contracts\":3430:3445  contractAddress */\n      dup2\n        /* \"Contracts\":3359:3446  AccountabilityContract accountabilityContract = AccountabilityContract(contractAddress) */\n      swap1\n      pop\n        /* \"Contracts\":3454:3476  accountabilityContract */\n      dup1\n        /* \"Contracts\":3454:3493  accountabilityContract.completeContract */\n      0xffffffffffffffffffffffffffffffffffffffff\n      and\n      0xb4fedc11\n        /* \"Contracts\":3454:3495  accountabilityContract.completeContract() */\n      mload(0x40)\n      dup2\n      0xffffffff\n      and\n      0xe0\n      shl\n      dup2\n      mstore\n      0x04\n      add\n      0x20\n      mload(0x40)\n      dup1\n      dup4\n      sub\n      dup2\n      0x00\n      dup8\n      gas\n      call\n      iszero\n      dup1\n      iszero\n      tag_233\n      jumpi\n      returndatasize\n      0x00\n      dup1\n      returndatacopy\n      revert(0x00, returndatasize)\n    tag_233:\n      pop\n      pop\n      pop\n      pop\n      mload(0x40)\n      returndatasize\n      not(0x1f)\n      0x1f\n      dup3\n      add\n      and\n      dup3\n      add\n      dup1\n      0x40\n      mstore\n      pop\n      dup2\n      add\n      swap1\n      tag_234\n      swap2\n      swap1\n      tag_194\n      jump\t// in\n    tag_234:\n      pop\n        /* \"Contracts\":3503:3566  moveOpenContractToClosedContractsForUser(user, contractAddress) */\n      tag_235\n        /* \"Contracts\":3544:3548  user */\n      dup4\n        /* \"Contracts\":3550:3565  contractAddress */\n      dup4\n        /* \"Contracts\":3503:3543  moveOpenContractToClosedContractsForUser */\n      tag_196\n        /* \"Contracts\":3503:3566  moveOpenContractToClosedContractsForUser(user, contractAddress) */\n      jump\t// in\n    tag_235:\n        /* \"Contracts\":3574:3668  moveOpenContractToClosedContractsForReferee(accountabilityContract.referee(), contractAddress) */\n      tag_236\n        /* \"Contracts\":3618:3640  accountabilityContract */\n      dup2\n        /* \"Contracts\":3618:3648  accountabilityContract.referee */\n      0xffffffffffffffffffffffffffffffffffffffff\n      and\n      0x3b1bebd1\n        /* \"Contracts\":3618:3650  accountabilityContract.referee() */\n      mload(0x40)\n      dup2\n      0xffffffff\n      and\n      0xe0\n      shl\n      dup2\n      mstore\n      0x04\n      add\n      0x20\n      mload(0x40)\n      dup1\n      dup4\n      sub\n      dup2\n      dup7\n      gas\n      staticcall\n      iszero\n      dup1\n      iszero\n      tag_238\n      jumpi\n      returndatasize\n      0x00\n      dup1\n      returndatacopy\n      revert(0x00, returndatasize)\n    tag_238:\n      pop\n      pop\n      pop\n      pop\n      mload(0x40)\n      returndatasize\n      not(0x1f)\n      0x1f\n      dup3\n      add\n      and\n      dup3\n      add\n      dup1\n      0x40\n      mstore\n      pop\n      dup2\n      add\n      swap1\n      tag_239\n      swap2\n      swap1\n      tag_128\n      jump\t// in\n    tag_239:\n        /* \"Contracts\":3652:3667  contractAddress */\n      dup4\n        /* \"Contracts\":3574:3617  moveOpenContractToClosedContractsForReferee */\n      tag_201\n        /* \"Contracts\":3574:3668  moveOpenContractToClosedContractsForReferee(accountabilityContract.referee(), contractAddress) */\n      jump\t// in\n    tag_236:\n        /* \"Contracts\":3351:3675  {... */\n      pop\n        /* \"Contracts\":3261:3675  function completeOpenAccountabilityContract(address user, address contractAddress) public {... */\n      pop\n      pop\n      jump\t// out\n        /* \"Contracts\":303:334  uint public totalEthInContracts */\n    tag_118:\n      sload(0x05)\n      dup2\n      jump\t// out\n        /* \"Contracts\":835:1865  function createAccountabilityContract(address _referee, string memory _name, string memory _description, address payable _failureRecipient) public payable {... */\n    tag_123:\n        /* \"Contracts\":1041:1042  0 */\n      0x00\n        /* \"Contracts\":1003:1008  users */\n      dup1\n        /* \"Contracts\":1003:1020  users[msg.sender] */\n      0x00\n        /* \"Contracts\":1009:1019  msg.sender */\n      caller\n        /* \"Contracts\":1003:1020  users[msg.sender] */\n      0xffffffffffffffffffffffffffffffffffffffff\n      and\n      0xffffffffffffffffffffffffffffffffffffffff\n      and\n      dup2\n      mstore\n      0x20\n      add\n      swap1\n      dup2\n      mstore\n      0x20\n      add\n      0x00\n      keccak256\n        /* \"Contracts\":1003:1037  users[msg.sender].createdContracts */\n      0x00\n      add\n      sload\n        /* \"Contracts\":1003:1042  users[msg.sender].createdContracts == 0 */\n      eq\n        /* \"Contracts\":1000:1127  if(users[msg.sender].createdContracts == 0){... */\n      iszero\n      tag_241\n      jumpi\n        /* \"Contracts\":1057:1070  numberOfUsers */\n      0x02\n      0x00\n        /* \"Contracts\":1057:1072  numberOfUsers++ */\n      dup2\n      sload\n      dup1\n      swap3\n      swap2\n      swap1\n      tag_242\n      swap1\n      tag_179\n      jump\t// in\n    tag_242:\n      swap2\n      swap1\n      pop\n      sstore\n      pop\n        /* \"Contracts\":1086:1099  userAddresses */\n      0x01\n        /* \"Contracts\":1105:1115  msg.sender */\n      caller\n        /* \"Contracts\":1086:1116  userAddresses.push(msg.sender) */\n      swap1\n      dup1\n      0x01\n      dup2\n      sload\n      add\n      dup1\n      dup3\n      sstore\n      dup1\n      swap2\n      pop\n      pop\n      0x01\n      swap1\n      sub\n      swap1\n      0x00\n      mstore\n      keccak256(0x00, 0x20)\n      add\n      0x00\n      swap1\n      swap2\n      swap1\n      swap2\n      swap1\n      swap2\n      0x0100\n      exp\n      dup2\n      sload\n      dup2\n      0xffffffffffffffffffffffffffffffffffffffff\n      mul\n      not\n      and\n      swap1\n      dup4\n      0xffffffffffffffffffffffffffffffffffffffff\n      and\n      mul\n      or\n      swap1\n      sstore\n      pop\n        /* \"Contracts\":1000:1127  if(users[msg.sender].createdContracts == 0){... */\n    tag_241:\n        /* \"Contracts\":1178:1179  0 */\n      0x00\n        /* \"Contracts\":1139:1147  referees */\n      0x06\n        /* \"Contracts\":1139:1157  referees[_referee] */\n      0x00\n        /* \"Contracts\":1148:1156  _referee */\n      dup7\n        /* \"Contracts\":1139:1157  referees[_referee] */\n      0xffffffffffffffffffffffffffffffffffffffff\n      and\n      0xffffffffffffffffffffffffffffffffffffffff\n      and\n      dup2\n      mstore\n      0x20\n      add\n      swap1\n      dup2\n      mstore\n      0x20\n      add\n      0x00\n      keccak256\n        /* \"Contracts\":1139:1174  referees[_referee].managedContracts */\n      0x00\n      add\n      sload\n        /* \"Contracts\":1139:1179  referees[_referee].managedContracts == 0 */\n      eq\n        /* \"Contracts\":1136:1268  if(referees[_referee].managedContracts == 0){... */\n      iszero\n      tag_244\n      jumpi\n        /* \"Contracts\":1194:1210  numberOfReferees */\n      0x07\n      0x00\n        /* \"Contracts\":1194:1212  numberOfReferees++ */\n      dup2\n      sload\n      dup1\n      swap3\n      swap2\n      swap1\n      tag_245\n      swap1\n      tag_179\n      jump\t// in\n    tag_245:\n      swap2\n      swap1\n      pop\n      sstore\n      pop\n        /* \"Contracts\":1226:1242  refereeAddresses */\n      0x08\n        /* \"Contracts\":1248:1256  _referee */\n      dup5\n        /* \"Contracts\":1226:1257  refereeAddresses.push(_referee) */\n      swap1\n      dup1\n      0x01\n      dup2\n      sload\n      add\n      dup1\n      dup3\n      sstore\n      dup1\n      swap2\n      pop\n      pop\n      0x01\n      swap1\n      sub\n      swap1\n      0x00\n      mstore\n      keccak256(0x00, 0x20)\n      add\n      0x00\n      swap1\n      swap2\n      swap1\n      swap2\n      swap1\n      swap2\n      0x0100\n      exp\n      dup2\n      sload\n      dup2\n      0xffffffffffffffffffffffffffffffffffffffff\n      mul\n      not\n      and\n      swap1\n      dup4\n      0xffffffffffffffffffffffffffffffffffffffff\n      and\n      mul\n      or\n      swap1\n      sstore\n      pop\n        /* \"Contracts\":1136:1268  if(referees[_referee].managedContracts == 0){... */\n    tag_244:\n        /* \"Contracts\":1277:1311  AccountabilityContract newContract */\n      0x00\n        /* \"Contracts\":1350:1359  msg.value */\n      callvalue\n        /* \"Contracts\":1361:1371  msg.sender */\n      caller\n        /* \"Contracts\":1373:1381  _referee */\n      dup7\n        /* \"Contracts\":1383:1388  _name */\n      dup7\n        /* \"Contracts\":1390:1402  _description */\n      dup7\n        /* \"Contracts\":1404:1421  _failureRecipient */\n      dup7\n        /* \"Contracts\":1423:1432  msg.value */\n      callvalue\n        /* \"Contracts\":1314:1433  (new AccountabilityContract){value: msg.value}(msg.sender, _referee, _name, _description, _failureRecipient, msg.value) */\n      mload(0x40)\n      tag_247\n      swap1\n      tag_248\n      jump\t// in\n    tag_247:\n      tag_249\n      swap7\n      swap6\n      swap5\n      swap4\n      swap3\n      swap2\n      swap1\n      tag_250\n      jump\t// in\n    tag_249:\n      mload(0x40)\n      dup1\n      swap2\n      sub\n      swap1\n      dup3\n      create\n      swap1\n      pop\n      dup1\n      iszero\n      dup1\n      iszero\n      tag_251\n      jumpi\n      returndatasize\n      0x00\n      dup1\n      returndatacopy\n      revert(0x00, returndatasize)\n    tag_251:\n      pop\n        /* \"Contracts\":1277:1433  AccountabilityContract newContract = (new AccountabilityContract){value: msg.value}(msg.sender, _referee, _name, _description, _failureRecipient, msg.value) */\n      swap1\n      pop\n        /* \"Contracts\":1443:1474  numberOfAccountabilityContracts */\n      0x04\n      0x00\n        /* \"Contracts\":1443:1476  numberOfAccountabilityContracts++ */\n      dup2\n      sload\n      dup1\n      swap3\n      swap2\n      swap1\n      tag_252\n      swap1\n      tag_179\n      jump\t// in\n    tag_252:\n      swap2\n      swap1\n      pop\n      sstore\n      pop\n        /* \"Contracts\":1486:1517  accountabilityContractAddresses */\n      0x03\n        /* \"Contracts\":1531:1542  newContract */\n      dup2\n        /* \"Contracts\":1486:1544  accountabilityContractAddresses.push(address(newContract)) */\n      swap1\n      dup1\n      0x01\n      dup2\n      sload\n      add\n      dup1\n      dup3\n      sstore\n      dup1\n      swap2\n      pop\n      pop\n      0x01\n      swap1\n      sub\n      swap1\n      0x00\n      mstore\n      keccak256(0x00, 0x20)\n      add\n      0x00\n      swap1\n      swap2\n      swap1\n      swap2\n      swap1\n      swap2\n      0x0100\n      exp\n      dup2\n      sload\n      dup2\n      0xffffffffffffffffffffffffffffffffffffffff\n      mul\n      not\n      and\n      swap1\n      dup4\n      0xffffffffffffffffffffffffffffffffffffffff\n      and\n      mul\n      or\n      swap1\n      sstore\n      pop\n        /* \"Contracts\":1575:1584  msg.value */\n      callvalue\n        /* \"Contracts\":1554:1573  totalEthInContracts */\n      0x05\n      0x00\n        /* \"Contracts\":1554:1584  totalEthInContracts+=msg.value */\n      dup3\n      dup3\n      sload\n      tag_254\n      swap2\n      swap1\n      tag_255\n      jump\t// in\n    tag_254:\n      swap3\n      pop\n      pop\n      dup2\n      swap1\n      sstore\n      pop\n        /* \"Contracts\":1594:1599  users */\n      0x00\n        /* \"Contracts\":1594:1611  users[msg.sender] */\n      dup1\n        /* \"Contracts\":1600:1610  msg.sender */\n      caller\n        /* \"Contracts\":1594:1611  users[msg.sender] */\n      0xffffffffffffffffffffffffffffffffffffffff\n      and\n      0xffffffffffffffffffffffffffffffffffffffff\n      and\n      dup2\n      mstore\n      0x20\n      add\n      swap1\n      dup2\n      mstore\n      0x20\n      add\n      0x00\n      keccak256\n        /* \"Contracts\":1594:1628  users[msg.sender].createdContracts */\n      0x00\n      add\n      0x00\n        /* \"Contracts\":1594:1630  users[msg.sender].createdContracts++ */\n      dup2\n      sload\n      dup1\n      swap3\n      swap2\n      swap1\n      tag_256\n      swap1\n      tag_179\n      jump\t// in\n    tag_256:\n      swap2\n      swap1\n      pop\n      sstore\n      pop\n        /* \"Contracts\":1640:1645  users */\n      0x00\n        /* \"Contracts\":1640:1657  users[msg.sender] */\n      dup1\n        /* \"Contracts\":1646:1656  msg.sender */\n      caller\n        /* \"Contracts\":1640:1657  users[msg.sender] */\n      0xffffffffffffffffffffffffffffffffffffffff\n      and\n      0xffffffffffffffffffffffffffffffffffffffff\n      and\n      dup2\n      mstore\n      0x20\n      add\n      swap1\n      dup2\n      mstore\n      0x20\n      add\n      0x00\n      keccak256\n        /* \"Contracts\":1640:1693  users[msg.sender].openAccountabilityContractAddresses */\n      0x01\n      add\n        /* \"Contracts\":1707:1718  newContract */\n      dup2\n        /* \"Contracts\":1640:1720  users[msg.sender].openAccountabilityContractAddresses.push(address(newContract)) */\n      swap1\n      dup1\n      0x01\n      dup2\n      sload\n      add\n      dup1\n      dup3\n      sstore\n      dup1\n      swap2\n      pop\n      pop\n      0x01\n      swap1\n      sub\n      swap1\n      0x00\n      mstore\n      keccak256(0x00, 0x20)\n      add\n      0x00\n      swap1\n      swap2\n      swap1\n      swap2\n      swap1\n      swap2\n      0x0100\n      exp\n      dup2\n      sload\n      dup2\n      0xffffffffffffffffffffffffffffffffffffffff\n      mul\n      not\n      and\n      swap1\n      dup4\n      0xffffffffffffffffffffffffffffffffffffffff\n      and\n      mul\n      or\n      swap1\n      sstore\n      pop\n        /* \"Contracts\":1730:1738  referees */\n      0x06\n        /* \"Contracts\":1730:1748  referees[_referee] */\n      0x00\n        /* \"Contracts\":1739:1747  _referee */\n      dup7\n        /* \"Contracts\":1730:1748  referees[_referee] */\n      0xffffffffffffffffffffffffffffffffffffffff\n      and\n      0xffffffffffffffffffffffffffffffffffffffff\n      and\n      dup2\n      mstore\n      0x20\n      add\n      swap1\n      dup2\n      mstore\n      0x20\n      add\n      0x00\n      keccak256\n        /* \"Contracts\":1730:1765  referees[_referee].managedContracts */\n      0x00\n      add\n      0x00\n        /* \"Contracts\":1730:1767  referees[_referee].managedContracts++ */\n      dup2\n      sload\n      dup1\n      swap3\n      swap2\n      swap1\n      tag_258\n      swap1\n      tag_179\n      jump\t// in\n    tag_258:\n      swap2\n      swap1\n      pop\n      sstore\n      pop\n        /* \"Contracts\":1777:1785  referees */\n      0x06\n        /* \"Contracts\":1777:1795  referees[_referee] */\n      0x00\n        /* \"Contracts\":1786:1794  _referee */\n      dup7\n        /* \"Contracts\":1777:1795  referees[_referee] */\n      0xffffffffffffffffffffffffffffffffffffffff\n      and\n      0xffffffffffffffffffffffffffffffffffffffff\n      and\n      dup2\n      mstore\n      0x20\n      add\n      swap1\n      dup2\n      mstore\n      0x20\n      add\n      0x00\n      keccak256\n        /* \"Contracts\":1777:1831  referees[_referee].openAccountabilityContractAddresses */\n      0x01\n      add\n        /* \"Contracts\":1845:1856  newContract */\n      dup2\n        /* \"Contracts\":1777:1858  referees[_referee].openAccountabilityContractAddresses.push(address(newContract)) */\n      swap1\n      dup1\n      0x01\n      dup2\n      sload\n      add\n      dup1\n      dup3\n      sstore\n      dup1\n      swap2\n      pop\n      pop\n      0x01\n      swap1\n      sub\n      swap1\n      0x00\n      mstore\n      keccak256(0x00, 0x20)\n      add\n      0x00\n      swap1\n      swap2\n      swap1\n      swap2\n      swap1\n      swap2\n      0x0100\n      exp\n      dup2\n      sload\n      dup2\n      0xffffffffffffffffffffffffffffffffffffffff\n      mul\n      not\n      and\n      swap1\n      dup4\n      0xffffffffffffffffffffffffffffffffffffffff\n      and\n      mul\n      or\n      swap1\n      sstore\n      pop\n        /* \"Contracts\":990:1865  {... */\n      pop\n        /* \"Contracts\":835:1865  function createAccountabilityContract(address _referee, string memory _name, string memory _description, address payable _failureRecipient) public payable {... */\n      pop\n      pop\n      pop\n      pop\n      jump\t// out\n        /* \"Contracts\":4919:5638  function moveOpenContractToClosedContractsForUser(address user, address contractAddress) private {... */\n    tag_196:\n        /* \"Contracts\":5026:5044  uint contractIndex */\n      0x00\n        /* \"Contracts\":5047:5093  getContractIndexForUser(user, contractAddress) */\n      tag_261\n        /* \"Contracts\":5071:5075  user */\n      dup4\n        /* \"Contracts\":5077:5092  contractAddress */\n      dup4\n        /* \"Contracts\":5047:5070  getContractIndexForUser */\n      tag_262\n        /* \"Contracts\":5047:5093  getContractIndexForUser(user, contractAddress) */\n      jump\t// in\n    tag_261:\n        /* \"Contracts\":5026:5093  uint contractIndex = getContractIndexForUser(user, contractAddress) */\n      swap1\n      pop\n        /* \"Contracts\":5103:5135  uint openContractAddressesLength */\n      0x00\n        /* \"Contracts\":5138:5143  users */\n      dup1\n        /* \"Contracts\":5138:5149  users[user] */\n      0x00\n        /* \"Contracts\":5144:5148  user */\n      dup6\n        /* \"Contracts\":5138:5149  users[user] */\n      0xffffffffffffffffffffffffffffffffffffffff\n      and\n      0xffffffffffffffffffffffffffffffffffffffff\n      and\n      dup2\n      mstore\n      0x20\n      add\n      swap1\n      dup2\n      mstore\n      0x20\n      add\n      0x00\n      keccak256\n        /* \"Contracts\":5138:5185  users[user].openAccountabilityContractAddresses */\n      0x01\n      add\n        /* \"Contracts\":5138:5192  users[user].openAccountabilityContractAddresses.length */\n      dup1\n      sload\n      swap1\n      pop\n        /* \"Contracts\":5103:5192  uint openContractAddressesLength = users[user].openAccountabilityContractAddresses.length */\n      swap1\n      pop\n        /* \"Contracts\":5207:5213  uint i */\n      0x00\n        /* \"Contracts\":5216:5229  contractIndex */\n      dup3\n        /* \"Contracts\":5207:5229  uint i = contractIndex */\n      swap1\n      pop\n        /* \"Contracts\":5202:5398  for (uint i = contractIndex; i<openContractAddressesLength-1; i++){... */\n    tag_263:\n        /* \"Contracts\":5261:5262  1 */\n      0x01\n        /* \"Contracts\":5233:5260  openContractAddressesLength */\n      dup3\n        /* \"Contracts\":5233:5262  openContractAddressesLength-1 */\n      tag_266\n      swap2\n      swap1\n      tag_164\n      jump\t// in\n    tag_266:\n        /* \"Contracts\":5231:5232  i */\n      dup2\n        /* \"Contracts\":5231:5262  i<openContractAddressesLength-1 */\n      lt\n        /* \"Contracts\":5202:5398  for (uint i = contractIndex; i<openContractAddressesLength-1; i++){... */\n      iszero\n      tag_264\n      jumpi\n        /* \"Contracts\":5335:5340  users */\n      0x00\n        /* \"Contracts\":5335:5346  users[user] */\n      dup1\n        /* \"Contracts\":5341:5345  user */\n      dup7\n        /* \"Contracts\":5335:5346  users[user] */\n      0xffffffffffffffffffffffffffffffffffffffff\n      and\n      0xffffffffffffffffffffffffffffffffffffffff\n      and\n      dup2\n      mstore\n      0x20\n      add\n      swap1\n      dup2\n      mstore\n      0x20\n      add\n      0x00\n      keccak256\n        /* \"Contracts\":5335:5382  users[user].openAccountabilityContractAddresses */\n      0x01\n      add\n        /* \"Contracts\":5385:5386  1 */\n      0x01\n        /* \"Contracts\":5383:5384  i */\n      dup3\n        /* \"Contracts\":5383:5386  i+1 */\n      tag_267\n      swap2\n      swap1\n      tag_255\n      jump\t// in\n    tag_267:\n        /* \"Contracts\":5335:5387  users[user].openAccountabilityContractAddresses[i+1] */\n      dup2\n      sload\n      dup2\n      lt\n      tag_268\n      jumpi\n      tag_269\n      tag_174\n      jump\t// in\n    tag_269:\n    tag_268:\n      swap1\n      0x00\n      mstore\n      keccak256(0x00, 0x20)\n      add\n      0x00\n      swap1\n      sload\n      swap1\n      0x0100\n      exp\n      swap1\n      div\n      0xffffffffffffffffffffffffffffffffffffffff\n      and\n        /* \"Contracts\":5282:5287  users */\n      0x00\n        /* \"Contracts\":5282:5293  users[user] */\n      dup1\n        /* \"Contracts\":5288:5292  user */\n      dup8\n        /* \"Contracts\":5282:5293  users[user] */\n      0xffffffffffffffffffffffffffffffffffffffff\n      and\n      0xffffffffffffffffffffffffffffffffffffffff\n      and\n      dup2\n      mstore\n      0x20\n      add\n      swap1\n      dup2\n      mstore\n      0x20\n      add\n      0x00\n      keccak256\n        /* \"Contracts\":5282:5329  users[user].openAccountabilityContractAddresses */\n      0x01\n      add\n        /* \"Contracts\":5330:5331  i */\n      dup3\n        /* \"Contracts\":5282:5332  users[user].openAccountabilityContractAddresses[i] */\n      dup2\n      sload\n      dup2\n      lt\n      tag_271\n      jumpi\n      tag_272\n      tag_174\n      jump\t// in\n    tag_272:\n    tag_271:\n      swap1\n      0x00\n      mstore\n      keccak256(0x00, 0x20)\n      add\n      0x00\n        /* \"Contracts\":5282:5387  users[user].openAccountabilityContractAddresses[i] = users[user].openAccountabilityContractAddresses[i+1] */\n      0x0100\n      exp\n      dup2\n      sload\n      dup2\n      0xffffffffffffffffffffffffffffffffffffffff\n      mul\n      not\n      and\n      swap1\n      dup4\n      0xffffffffffffffffffffffffffffffffffffffff\n      and\n      mul\n      or\n      swap1\n      sstore\n      pop\n        /* \"Contracts\":5264:5267  i++ */\n      dup1\n      dup1\n      tag_274\n      swap1\n      tag_179\n      jump\t// in\n    tag_274:\n      swap2\n      pop\n      pop\n        /* \"Contracts\":5202:5398  for (uint i = contractIndex; i<openContractAddressesLength-1; i++){... */\n      jump(tag_263)\n    tag_264:\n      pop\n        /* \"Contracts\":5407:5412  users */\n      0x00\n        /* \"Contracts\":5407:5418  users[user] */\n      dup1\n        /* \"Contracts\":5413:5417  user */\n      dup6\n        /* \"Contracts\":5407:5418  users[user] */\n      0xffffffffffffffffffffffffffffffffffffffff\n      and\n      0xffffffffffffffffffffffffffffffffffffffff\n      and\n      dup2\n      mstore\n      0x20\n      add\n      swap1\n      dup2\n      mstore\n      0x20\n      add\n      0x00\n      keccak256\n        /* \"Contracts\":5407:5456  users[user].closedAccountabilityContractAddresses */\n      0x02\n      add\n        /* \"Contracts\":5462:5467  users */\n      0x00\n        /* \"Contracts\":5462:5473  users[user] */\n      dup1\n        /* \"Contracts\":5468:5472  user */\n      dup7\n        /* \"Contracts\":5462:5473  users[user] */\n      0xffffffffffffffffffffffffffffffffffffffff\n      and\n      0xffffffffffffffffffffffffffffffffffffffff\n      and\n      dup2\n      mstore\n      0x20\n      add\n      swap1\n      dup2\n      mstore\n      0x20\n      add\n      0x00\n      keccak256\n        /* \"Contracts\":5462:5509  users[user].openAccountabilityContractAddresses */\n      0x01\n      add\n        /* \"Contracts\":5565:5566  1 */\n      0x01\n        /* \"Contracts\":5510:5515  users */\n      0x00\n        /* \"Contracts\":5510:5521  users[user] */\n      dup1\n        /* \"Contracts\":5516:5520  user */\n      dup9\n        /* \"Contracts\":5510:5521  users[user] */\n      0xffffffffffffffffffffffffffffffffffffffff\n      and\n      0xffffffffffffffffffffffffffffffffffffffff\n      and\n      dup2\n      mstore\n      0x20\n      add\n      swap1\n      dup2\n      mstore\n      0x20\n      add\n      0x00\n      keccak256\n        /* \"Contracts\":5510:5557  users[user].openAccountabilityContractAddresses */\n      0x01\n      add\n        /* \"Contracts\":5510:5564  users[user].openAccountabilityContractAddresses.length */\n      dup1\n      sload\n      swap1\n      pop\n        /* \"Contracts\":5510:5566  users[user].openAccountabilityContractAddresses.length-1 */\n      tag_275\n      swap2\n      swap1\n      tag_164\n      jump\t// in\n    tag_275:\n        /* \"Contracts\":5462:5567  users[user].openAccountabilityContractAddresses[users[user].openAccountabilityContractAddresses.length-1] */\n      dup2\n      sload\n      dup2\n      lt\n      tag_276\n      jumpi\n      tag_277\n      tag_174\n      jump\t// in\n    tag_277:\n    tag_276:\n      swap1\n      0x00\n      mstore\n      keccak256(0x00, 0x20)\n      add\n      0x00\n      swap1\n      sload\n      swap1\n      0x0100\n      exp\n      swap1\n      div\n      0xffffffffffffffffffffffffffffffffffffffff\n      and\n        /* \"Contracts\":5407:5568  users[user].closedAccountabilityContractAddresses.push(users[user].openAccountabilityContractAddresses[users[user].openAccountabilityContractAddresses.length-1]) */\n      swap1\n      dup1\n      0x01\n      dup2\n      sload\n      add\n      dup1\n      dup3\n      sstore\n      dup1\n      swap2\n      pop\n      pop\n      0x01\n      swap1\n      sub\n      swap1\n      0x00\n      mstore\n      keccak256(0x00, 0x20)\n      add\n      0x00\n      swap1\n      swap2\n      swap1\n      swap2\n      swap1\n      swap2\n      0x0100\n      exp\n      dup2\n      sload\n      dup2\n      0xffffffffffffffffffffffffffffffffffffffff\n      mul\n      not\n      and\n      swap1\n      dup4\n      0xffffffffffffffffffffffffffffffffffffffff\n      and\n      mul\n      or\n      swap1\n      sstore\n      pop\n        /* \"Contracts\":5578:5583  users */\n      0x00\n        /* \"Contracts\":5578:5589  users[user] */\n      dup1\n        /* \"Contracts\":5584:5588  user */\n      dup6\n        /* \"Contracts\":5578:5589  users[user] */\n      0xffffffffffffffffffffffffffffffffffffffff\n      and\n      0xffffffffffffffffffffffffffffffffffffffff\n      and\n      dup2\n      mstore\n      0x20\n      add\n      swap1\n      dup2\n      mstore\n      0x20\n      add\n      0x00\n      keccak256\n        /* \"Contracts\":5578:5625  users[user].openAccountabilityContractAddresses */\n      0x01\n      add\n        /* \"Contracts\":5578:5631  users[user].openAccountabilityContractAddresses.pop() */\n      dup1\n      sload\n      dup1\n      tag_280\n      jumpi\n      tag_281\n      tag_282\n      jump\t// in\n    tag_281:\n    tag_280:\n      0x01\n      swap1\n      sub\n      dup2\n      dup2\n      swap1\n      0x00\n      mstore\n      keccak256(0x00, 0x20)\n      add\n      exp(0x0100, 0x00)\n      dup2\n      sload\n      swap1\n      0xffffffffffffffffffffffffffffffffffffffff\n      mul\n      not\n      and\n      swap1\n      sstore\n      swap1\n      sstore\n        /* \"Contracts\":5016:5638  {... */\n      pop\n      pop\n        /* \"Contracts\":4919:5638  function moveOpenContractToClosedContractsForUser(address user, address contractAddress) private {... */\n      pop\n      pop\n      jump\t// out\n        /* \"Contracts\":6073:6774  function moveOpenContractToClosedContractsForReferee(address referee, address contractAddress) private {... */\n    tag_201:\n        /* \"Contracts\":6186:6204  uint contractIndex */\n      0x00\n        /* \"Contracts\":6207:6259  getContractIndexForReferee(referee, contractAddress) */\n      tag_285\n        /* \"Contracts\":6234:6241  referee */\n      dup4\n        /* \"Contracts\":6243:6258  contractAddress */\n      dup4\n        /* \"Contracts\":6207:6233  getContractIndexForReferee */\n      tag_286\n        /* \"Contracts\":6207:6259  getContractIndexForReferee(referee, contractAddress) */\n      jump\t// in\n    tag_285:\n        /* \"Contracts\":6186:6259  uint contractIndex = getContractIndexForReferee(referee, contractAddress) */\n      swap1\n      pop\n        /* \"Contracts\":6274:6280  uint i */\n      0x00\n        /* \"Contracts\":6283:6296  contractIndex */\n      dup2\n        /* \"Contracts\":6274:6296  uint i = contractIndex */\n      swap1\n      pop\n        /* \"Contracts\":6269:6510  for (uint i = contractIndex; i<referees[referee].openAccountabilityContractAddresses.length-1; i++){... */\n    tag_287:\n        /* \"Contracts\":6361:6362  1 */\n      0x01\n        /* \"Contracts\":6300:6308  referees */\n      0x06\n        /* \"Contracts\":6300:6317  referees[referee] */\n      0x00\n        /* \"Contracts\":6309:6316  referee */\n      dup7\n        /* \"Contracts\":6300:6317  referees[referee] */\n      0xffffffffffffffffffffffffffffffffffffffff\n      and\n      0xffffffffffffffffffffffffffffffffffffffff\n      and\n      dup2\n      mstore\n      0x20\n      add\n      swap1\n      dup2\n      mstore\n      0x20\n      add\n      0x00\n      keccak256\n        /* \"Contracts\":6300:6353  referees[referee].openAccountabilityContractAddresses */\n      0x01\n      add\n        /* \"Contracts\":6300:6360  referees[referee].openAccountabilityContractAddresses.length */\n      dup1\n      sload\n      swap1\n      pop\n        /* \"Contracts\":6300:6362  referees[referee].openAccountabilityContractAddresses.length-1 */\n      tag_290\n      swap2\n      swap1\n      tag_164\n      jump\t// in\n    tag_290:\n        /* \"Contracts\":6298:6299  i */\n      dup2\n        /* \"Contracts\":6298:6362  i<referees[referee].openAccountabilityContractAddresses.length-1 */\n      lt\n        /* \"Contracts\":6269:6510  for (uint i = contractIndex; i<referees[referee].openAccountabilityContractAddresses.length-1; i++){... */\n      iszero\n      tag_288\n      jumpi\n        /* \"Contracts\":6441:6449  referees */\n      0x06\n        /* \"Contracts\":6441:6458  referees[referee] */\n      0x00\n        /* \"Contracts\":6450:6457  referee */\n      dup6\n        /* \"Contracts\":6441:6458  referees[referee] */\n      0xffffffffffffffffffffffffffffffffffffffff\n      and\n      0xffffffffffffffffffffffffffffffffffffffff\n      and\n      dup2\n      mstore\n      0x20\n      add\n      swap1\n      dup2\n      mstore\n      0x20\n      add\n      0x00\n      keccak256\n        /* \"Contracts\":6441:6494  referees[referee].openAccountabilityContractAddresses */\n      0x01\n      add\n        /* \"Contracts\":6497:6498  1 */\n      0x01\n        /* \"Contracts\":6495:6496  i */\n      dup3\n        /* \"Contracts\":6495:6498  i+1 */\n      tag_291\n      swap2\n      swap1\n      tag_255\n      jump\t// in\n    tag_291:\n        /* \"Contracts\":6441:6499  referees[referee].openAccountabilityContractAddresses[i+1] */\n      dup2\n      sload\n      dup2\n      lt\n      tag_292\n      jumpi\n      tag_293\n      tag_174\n      jump\t// in\n    tag_293:\n    tag_292:\n      swap1\n      0x00\n      mstore\n      keccak256(0x00, 0x20)\n      add\n      0x00\n      swap1\n      sload\n      swap1\n      0x0100\n      exp\n      swap1\n      div\n      0xffffffffffffffffffffffffffffffffffffffff\n      and\n        /* \"Contracts\":6382:6390  referees */\n      0x06\n        /* \"Contracts\":6382:6399  referees[referee] */\n      0x00\n        /* \"Contracts\":6391:6398  referee */\n      dup7\n        /* \"Contracts\":6382:6399  referees[referee] */\n      0xffffffffffffffffffffffffffffffffffffffff\n      and\n      0xffffffffffffffffffffffffffffffffffffffff\n      and\n      dup2\n      mstore\n      0x20\n      add\n      swap1\n      dup2\n      mstore\n      0x20\n      add\n      0x00\n      keccak256\n        /* \"Contracts\":6382:6435  referees[referee].openAccountabilityContractAddresses */\n      0x01\n      add\n        /* \"Contracts\":6436:6437  i */\n      dup3\n        /* \"Contracts\":6382:6438  referees[referee].openAccountabilityContractAddresses[i] */\n      dup2\n      sload\n      dup2\n      lt\n      tag_295\n      jumpi\n      tag_296\n      tag_174\n      jump\t// in\n    tag_296:\n    tag_295:\n      swap1\n      0x00\n      mstore\n      keccak256(0x00, 0x20)\n      add\n      0x00\n        /* \"Contracts\":6382:6499  referees[referee].openAccountabilityContractAddresses[i] = referees[referee].openAccountabilityContractAddresses[i+1] */\n      0x0100\n      exp\n      dup2\n      sload\n      dup2\n      0xffffffffffffffffffffffffffffffffffffffff\n      mul\n      not\n      and\n      swap1\n      dup4\n      0xffffffffffffffffffffffffffffffffffffffff\n      and\n      mul\n      or\n      swap1\n      sstore\n      pop\n        /* \"Contracts\":6364:6367  i++ */\n      dup1\n      dup1\n      tag_298\n      swap1\n      tag_179\n      jump\t// in\n    tag_298:\n      swap2\n      pop\n      pop\n        /* \"Contracts\":6269:6510  for (uint i = contractIndex; i<referees[referee].openAccountabilityContractAddresses.length-1; i++){... */\n      jump(tag_287)\n    tag_288:\n      pop\n        /* \"Contracts\":6519:6527  referees */\n      0x06\n        /* \"Contracts\":6519:6536  referees[referee] */\n      0x00\n        /* \"Contracts\":6528:6535  referee */\n      dup5\n        /* \"Contracts\":6519:6536  referees[referee] */\n      0xffffffffffffffffffffffffffffffffffffffff\n      and\n      0xffffffffffffffffffffffffffffffffffffffff\n      and\n      dup2\n      mstore\n      0x20\n      add\n      swap1\n      dup2\n      mstore\n      0x20\n      add\n      0x00\n      keccak256\n        /* \"Contracts\":6519:6574  referees[referee].closedAccountabilityContractAddresses */\n      0x02\n      add\n        /* \"Contracts\":6580:6588  referees */\n      0x06\n        /* \"Contracts\":6580:6597  referees[referee] */\n      0x00\n        /* \"Contracts\":6589:6596  referee */\n      dup6\n        /* \"Contracts\":6580:6597  referees[referee] */\n      0xffffffffffffffffffffffffffffffffffffffff\n      and\n      0xffffffffffffffffffffffffffffffffffffffff\n      and\n      dup2\n      mstore\n      0x20\n      add\n      swap1\n      dup2\n      mstore\n      0x20\n      add\n      0x00\n      keccak256\n        /* \"Contracts\":6580:6633  referees[referee].openAccountabilityContractAddresses */\n      0x01\n      add\n        /* \"Contracts\":6695:6696  1 */\n      0x01\n        /* \"Contracts\":6634:6642  referees */\n      0x06\n        /* \"Contracts\":6634:6651  referees[referee] */\n      0x00\n        /* \"Contracts\":6643:6650  referee */\n      dup8\n        /* \"Contracts\":6634:6651  referees[referee] */\n      0xffffffffffffffffffffffffffffffffffffffff\n      and\n      0xffffffffffffffffffffffffffffffffffffffff\n      and\n      dup2\n      mstore\n      0x20\n      add\n      swap1\n      dup2\n      mstore\n      0x20\n      add\n      0x00\n      keccak256\n        /* \"Contracts\":6634:6687  referees[referee].openAccountabilityContractAddresses */\n      0x01\n      add\n        /* \"Contracts\":6634:6694  referees[referee].openAccountabilityContractAddresses.length */\n      dup1\n      sload\n      swap1\n      pop\n        /* \"Contracts\":6634:6696  referees[referee].openAccountabilityContractAddresses.length-1 */\n      tag_299\n      swap2\n      swap1\n      tag_164\n      jump\t// in\n    tag_299:\n        /* \"Contracts\":6580:6697  referees[referee].openAccountabilityContractAddresses[referees[referee].openAccountabilityContractAddresses.length-1] */\n      dup2\n      sload\n      dup2\n      lt\n      tag_300\n      jumpi\n      tag_301\n      tag_174\n      jump\t// in\n    tag_301:\n    tag_300:\n      swap1\n      0x00\n      mstore\n      keccak256(0x00, 0x20)\n      add\n      0x00\n      swap1\n      sload\n      swap1\n      0x0100\n      exp\n      swap1\n      div\n      0xffffffffffffffffffffffffffffffffffffffff\n      and\n        /* \"Contracts\":6519:6698  referees[referee].closedAccountabilityContractAddresses.push(referees[referee].openAccountabilityContractAddresses[referees[referee].openAccountabilityContractAddresses.length-1]) */\n      swap1\n      dup1\n      0x01\n      dup2\n      sload\n      add\n      dup1\n      dup3\n      sstore\n      dup1\n      swap2\n      pop\n      pop\n      0x01\n      swap1\n      sub\n      swap1\n      0x00\n      mstore\n      keccak256(0x00, 0x20)\n      add\n      0x00\n      swap1\n      swap2\n      swap1\n      swap2\n      swap1\n      swap2\n      0x0100\n      exp\n      dup2\n      sload\n      dup2\n      0xffffffffffffffffffffffffffffffffffffffff\n      mul\n      not\n      and\n      swap1\n      dup4\n      0xffffffffffffffffffffffffffffffffffffffff\n      and\n      mul\n      or\n      swap1\n      sstore\n      pop\n        /* \"Contracts\":6708:6716  referees */\n      0x06\n        /* \"Contracts\":6708:6725  referees[referee] */\n      0x00\n        /* \"Contracts\":6717:6724  referee */\n      dup5\n        /* \"Contracts\":6708:6725  referees[referee] */\n      0xffffffffffffffffffffffffffffffffffffffff\n      and\n      0xffffffffffffffffffffffffffffffffffffffff\n      and\n      dup2\n      mstore\n      0x20\n      add\n      swap1\n      dup2\n      mstore\n      0x20\n      add\n      0x00\n      keccak256\n        /* \"Contracts\":6708:6761  referees[referee].openAccountabilityContractAddresses */\n      0x01\n      add\n        /* \"Contracts\":6708:6767  referees[referee].openAccountabilityContractAddresses.pop() */\n      dup1\n      sload\n      dup1\n      tag_304\n      jumpi\n      tag_305\n      tag_282\n      jump\t// in\n    tag_305:\n    tag_304:\n      0x01\n      swap1\n      sub\n      dup2\n      dup2\n      swap1\n      0x00\n      mstore\n      keccak256(0x00, 0x20)\n      add\n      exp(0x0100, 0x00)\n      dup2\n      sload\n      swap1\n      0xffffffffffffffffffffffffffffffffffffffff\n      mul\n      not\n      and\n      swap1\n      sstore\n      swap1\n      sstore\n        /* \"Contracts\":6176:6774  {... */\n      pop\n        /* \"Contracts\":6073:6774  function moveOpenContractToClosedContractsForReferee(address referee, address contractAddress) private {... */\n      pop\n      pop\n      jump\t// out\n        /* \"Contracts\":4507:4913  function getContractIndexForUser(address user, address contractAddress) view private returns (uint){... */\n    tag_262:\n        /* \"Contracts\":4601:4605  uint */\n      0x00\n        /* \"Contracts\":4616:4634  uint contractIndex */\n      dup1\n        /* \"Contracts\":4649:4655  uint i */\n      0x00\n        /* \"Contracts\":4644:4877  for (uint i = 0; i<=users[user].openAccountabilityContractAddresses.length-1; i++){... */\n    tag_308:\n        /* \"Contracts\":4719:4720  1 */\n      0x01\n        /* \"Contracts\":4664:4669  users */\n      0x00\n        /* \"Contracts\":4664:4675  users[user] */\n      dup1\n        /* \"Contracts\":4670:4674  user */\n      dup8\n        /* \"Contracts\":4664:4675  users[user] */\n      0xffffffffffffffffffffffffffffffffffffffff\n      and\n      0xffffffffffffffffffffffffffffffffffffffff\n      and\n      dup2\n      mstore\n      0x20\n      add\n      swap1\n      dup2\n      mstore\n      0x20\n      add\n      0x00\n      keccak256\n        /* \"Contracts\":4664:4711  users[user].openAccountabilityContractAddresses */\n      0x01\n      add\n        /* \"Contracts\":4664:4718  users[user].openAccountabilityContractAddresses.length */\n      dup1\n      sload\n      swap1\n      pop\n        /* \"Contracts\":4664:4720  users[user].openAccountabilityContractAddresses.length-1 */\n      tag_311\n      swap2\n      swap1\n      tag_164\n      jump\t// in\n    tag_311:\n        /* \"Contracts\":4661:4662  i */\n      dup2\n        /* \"Contracts\":4661:4720  i<=users[user].openAccountabilityContractAddresses.length-1 */\n      gt\n        /* \"Contracts\":4644:4877  for (uint i = 0; i<=users[user].openAccountabilityContractAddresses.length-1; i++){... */\n      tag_309\n      jumpi\n        /* \"Contracts\":4797:4812  contractAddress */\n      dup4\n        /* \"Contracts\":4743:4812  users[user].openAccountabilityContractAddresses[i] == contractAddress */\n      0xffffffffffffffffffffffffffffffffffffffff\n      and\n        /* \"Contracts\":4743:4748  users */\n      0x00\n        /* \"Contracts\":4743:4754  users[user] */\n      dup1\n        /* \"Contracts\":4749:4753  user */\n      dup8\n        /* \"Contracts\":4743:4754  users[user] */\n      0xffffffffffffffffffffffffffffffffffffffff\n      and\n      0xffffffffffffffffffffffffffffffffffffffff\n      and\n      dup2\n      mstore\n      0x20\n      add\n      swap1\n      dup2\n      mstore\n      0x20\n      add\n      0x00\n      keccak256\n        /* \"Contracts\":4743:4790  users[user].openAccountabilityContractAddresses */\n      0x01\n      add\n        /* \"Contracts\":4791:4792  i */\n      dup3\n        /* \"Contracts\":4743:4793  users[user].openAccountabilityContractAddresses[i] */\n      dup2\n      sload\n      dup2\n      lt\n      tag_312\n      jumpi\n      tag_313\n      tag_174\n      jump\t// in\n    tag_313:\n    tag_312:\n      swap1\n      0x00\n      mstore\n      keccak256(0x00, 0x20)\n      add\n      0x00\n      swap1\n      sload\n      swap1\n      0x0100\n      exp\n      swap1\n      div\n      0xffffffffffffffffffffffffffffffffffffffff\n      and\n        /* \"Contracts\":4743:4812  users[user].openAccountabilityContractAddresses[i] == contractAddress */\n      0xffffffffffffffffffffffffffffffffffffffff\n      and\n      eq\n        /* \"Contracts\":4740:4867  if(users[user].openAccountabilityContractAddresses[i] == contractAddress){... */\n      iszero\n      tag_315\n      jumpi\n        /* \"Contracts\":4847:4848  i */\n      dup1\n        /* \"Contracts\":4831:4848  contractIndex = i */\n      swap2\n      pop\n        /* \"Contracts\":4740:4867  if(users[user].openAccountabilityContractAddresses[i] == contractAddress){... */\n    tag_315:\n        /* \"Contracts\":4722:4725  i++ */\n      dup1\n      dup1\n      tag_316\n      swap1\n      tag_179\n      jump\t// in\n    tag_316:\n      swap2\n      pop\n      pop\n        /* \"Contracts\":4644:4877  for (uint i = 0; i<=users[user].openAccountabilityContractAddresses.length-1; i++){... */\n      jump(tag_308)\n    tag_309:\n      pop\n        /* \"Contracts\":4893:4906  contractIndex */\n      dup1\n        /* \"Contracts\":4886:4906  return contractIndex */\n      swap2\n      pop\n      pop\n        /* \"Contracts\":4507:4913  function getContractIndexForUser(address user, address contractAddress) view private returns (uint){... */\n      swap3\n      swap2\n      pop\n      pop\n      jump\t// out\n        /* \"Contracts\":5646:6066  function getContractIndexForReferee(address referee, address contractAddress) view private returns (uint){... */\n    tag_286:\n        /* \"Contracts\":5746:5750  uint */\n      0x00\n        /* \"Contracts\":5761:5779  uint contractIndex */\n      dup1\n        /* \"Contracts\":5794:5800  uint i */\n      0x00\n        /* \"Contracts\":5789:6030  for (uint i = 0; i<=referees[referee].openAccountabilityContractAddresses.length-1; i++){... */\n    tag_318:\n        /* \"Contracts\":5870:5871  1 */\n      0x01\n        /* \"Contracts\":5809:5817  referees */\n      0x06\n        /* \"Contracts\":5809:5826  referees[referee] */\n      0x00\n        /* \"Contracts\":5818:5825  referee */\n      dup8\n        /* \"Contracts\":5809:5826  referees[referee] */\n      0xffffffffffffffffffffffffffffffffffffffff\n      and\n      0xffffffffffffffffffffffffffffffffffffffff\n      and\n      dup2\n      mstore\n      0x20\n      add\n      swap1\n      dup2\n      mstore\n      0x20\n      add\n      0x00\n      keccak256\n        /* \"Contracts\":5809:5862  referees[referee].openAccountabilityContractAddresses */\n      0x01\n      add\n        /* \"Contracts\":5809:5869  referees[referee].openAccountabilityContractAddresses.length */\n      dup1\n      sload\n      swap1\n      pop\n        /* \"Contracts\":5809:5871  referees[referee].openAccountabilityContractAddresses.length-1 */\n      tag_321\n      swap2\n      swap1\n      tag_164\n      jump\t// in\n    tag_321:\n        /* \"Contracts\":5806:5807  i */\n      dup2\n        /* \"Contracts\":5806:5871  i<=referees[referee].openAccountabilityContractAddresses.length-1 */\n      gt\n        /* \"Contracts\":5789:6030  for (uint i = 0; i<=referees[referee].openAccountabilityContractAddresses.length-1; i++){... */\n      tag_319\n      jumpi\n        /* \"Contracts\":5954:5969  contractAddress */\n      dup4\n        /* \"Contracts\":5894:5969  referees[referee].openAccountabilityContractAddresses[i] == contractAddress */\n      0xffffffffffffffffffffffffffffffffffffffff\n      and\n        /* \"Contracts\":5894:5902  referees */\n      0x06\n        /* \"Contracts\":5894:5911  referees[referee] */\n      0x00\n        /* \"Contracts\":5903:5910  referee */\n      dup8\n        /* \"Contracts\":5894:5911  referees[referee] */\n      0xffffffffffffffffffffffffffffffffffffffff\n      and\n      0xffffffffffffffffffffffffffffffffffffffff\n      and\n      dup2\n      mstore\n      0x20\n      add\n      swap1\n      dup2\n      mstore\n      0x20\n      add\n      0x00\n      keccak256\n        /* \"Contracts\":5894:5947  referees[referee].openAccountabilityContractAddresses */\n      0x01\n      add\n        /* \"Contracts\":5948:5949  i */\n      dup3\n        /* \"Contracts\":5894:5950  referees[referee].openAccountabilityContractAddresses[i] */\n      dup2\n      sload\n      dup2\n      lt\n      tag_322\n      jumpi\n      tag_323\n      tag_174\n      jump\t// in\n    tag_323:\n    tag_322:\n      swap1\n      0x00\n      mstore\n      keccak256(0x00, 0x20)\n      add\n      0x00\n      swap1\n      sload\n      swap1\n      0x0100\n      exp\n      swap1\n      div\n      0xffffffffffffffffffffffffffffffffffffffff\n      and\n        /* \"Contracts\":5894:5969  referees[referee].openAccountabilityContractAddresses[i] == contractAddress */\n      0xffffffffffffffffffffffffffffffffffffffff\n      and\n      eq\n        /* \"Contracts\":5891:6020  if(referees[referee].openAccountabilityContractAddresses[i] == contractAddress){... */\n      iszero\n      tag_325\n      jumpi\n        /* \"Contracts\":6004:6005  i */\n      dup1\n        /* \"Contracts\":5988:6005  contractIndex = i */\n      swap2\n      pop\n        /* \"Contracts\":5891:6020  if(referees[referee].openAccountabilityContractAddresses[i] == contractAddress){... */\n    tag_325:\n        /* \"Contracts\":5873:5876  i++ */\n      dup1\n      dup1\n      tag_326\n      swap1\n      tag_179\n      jump\t// in\n    tag_326:\n      swap2\n      pop\n      pop\n        /* \"Contracts\":5789:6030  for (uint i = 0; i<=referees[referee].openAccountabilityContractAddresses.length-1; i++){... */\n      jump(tag_318)\n    tag_319:\n      pop\n        /* \"Contracts\":6046:6059  contractIndex */\n      dup1\n        /* \"Contracts\":6039:6059  return contractIndex */\n      swap2\n      pop\n      pop\n        /* \"Contracts\":5646:6066  function getContractIndexForReferee(address referee, address contractAddress) view private returns (uint){... */\n      swap3\n      swap2\n      pop\n      pop\n      jump\t// out\n    tag_151:\n      dataSize(sub_0)\n      dup1\n      dataOffset(sub_0)\n      dup4\n      codecopy\n      add\n      swap1\n      jump\t// out\n    tag_248:\n      dataSize(sub_1)\n      dup1\n      dataOffset(sub_1)\n      dup4\n      codecopy\n      add\n      swap1\n      jump\t// out\n        /* \"#utility.yul\":7:82   */\n    tag_327:\n        /* \"#utility.yul\":40:46   */\n      0x00\n        /* \"#utility.yul\":73:75   */\n      0x40\n        /* \"#utility.yul\":67:76   */\n      mload\n        /* \"#utility.yul\":57:76   */\n      swap1\n      pop\n        /* \"#utility.yul\":7:82   */\n      swap1\n      jump\t// out\n        /* \"#utility.yul\":88:205   */\n    tag_328:\n        /* \"#utility.yul\":197:198   */\n      0x00\n        /* \"#utility.yul\":194:195   */\n      dup1\n        /* \"#utility.yul\":187:199   */\n      revert\n        /* \"#utility.yul\":211:328   */\n    tag_329:\n        /* \"#utility.yul\":320:321   */\n      0x00\n        /* \"#utility.yul\":317:318   */\n      dup1\n        /* \"#utility.yul\":310:322   */\n      revert\n        /* \"#utility.yul\":334:460   */\n    tag_330:\n        /* \"#utility.yul\":371:378   */\n      0x00\n        /* \"#utility.yul\":411:453   */\n      0xffffffffffffffffffffffffffffffffffffffff\n        /* \"#utility.yul\":404:409   */\n      dup3\n        /* \"#utility.yul\":400:454   */\n      and\n        /* \"#utility.yul\":389:454   */\n      swap1\n      pop\n        /* \"#utility.yul\":334:460   */\n      swap2\n      swap1\n      pop\n      jump\t// out\n        /* \"#utility.yul\":466:562   */\n    tag_331:\n        /* \"#utility.yul\":503:510   */\n      0x00\n        /* \"#utility.yul\":532:556   */\n      tag_390\n        /* \"#utility.yul\":550:555   */\n      dup3\n        /* \"#utility.yul\":532:556   */\n      tag_330\n      jump\t// in\n    tag_390:\n        /* \"#utility.yul\":521:556   */\n      swap1\n      pop\n        /* \"#utility.yul\":466:562   */\n      swap2\n      swap1\n      pop\n      jump\t// out\n        /* \"#utility.yul\":568:690   */\n    tag_332:\n        /* \"#utility.yul\":641:665   */\n      tag_392\n        /* \"#utility.yul\":659:664   */\n      dup2\n        /* \"#utility.yul\":641:665   */\n      tag_331\n      jump\t// in\n    tag_392:\n        /* \"#utility.yul\":634:639   */\n      dup2\n        /* \"#utility.yul\":631:666   */\n      eq\n        /* \"#utility.yul\":621:684   */\n      tag_393\n      jumpi\n        /* \"#utility.yul\":680:681   */\n      0x00\n        /* \"#utility.yul\":677:678   */\n      dup1\n        /* \"#utility.yul\":670:682   */\n      revert\n        /* \"#utility.yul\":621:684   */\n    tag_393:\n        /* \"#utility.yul\":568:690   */\n      pop\n      jump\t// out\n        /* \"#utility.yul\":696:835   */\n    tag_333:\n        /* \"#utility.yul\":742:747   */\n      0x00\n        /* \"#utility.yul\":780:786   */\n      dup2\n        /* \"#utility.yul\":767:787   */\n      calldataload\n        /* \"#utility.yul\":758:787   */\n      swap1\n      pop\n        /* \"#utility.yul\":796:829   */\n      tag_395\n        /* \"#utility.yul\":823:828   */\n      dup2\n        /* \"#utility.yul\":796:829   */\n      tag_332\n      jump\t// in\n    tag_395:\n        /* \"#utility.yul\":696:835   */\n      swap3\n      swap2\n      pop\n      pop\n      jump\t// out\n        /* \"#utility.yul\":841:1315   */\n    tag_28:\n        /* \"#utility.yul\":909:915   */\n      0x00\n        /* \"#utility.yul\":917:923   */\n      dup1\n        /* \"#utility.yul\":966:968   */\n      0x40\n        /* \"#utility.yul\":954:963   */\n      dup4\n        /* \"#utility.yul\":945:952   */\n      dup6\n        /* \"#utility.yul\":941:964   */\n      sub\n        /* \"#utility.yul\":937:969   */\n      slt\n        /* \"#utility.yul\":934:1053   */\n      iszero\n      tag_397\n      jumpi\n        /* \"#utility.yul\":972:1051   */\n      tag_398\n      tag_328\n      jump\t// in\n    tag_398:\n        /* \"#utility.yul\":934:1053   */\n    tag_397:\n        /* \"#utility.yul\":1092:1093   */\n      0x00\n        /* \"#utility.yul\":1117:1170   */\n      tag_399\n        /* \"#utility.yul\":1162:1169   */\n      dup6\n        /* \"#utility.yul\":1153:1159   */\n      dup3\n        /* \"#utility.yul\":1142:1151   */\n      dup7\n        /* \"#utility.yul\":1138:1160   */\n      add\n        /* \"#utility.yul\":1117:1170   */\n      tag_333\n      jump\t// in\n    tag_399:\n        /* \"#utility.yul\":1107:1170   */\n      swap3\n      pop\n        /* \"#utility.yul\":1063:1180   */\n      pop\n        /* \"#utility.yul\":1219:1221   */\n      0x20\n        /* \"#utility.yul\":1245:1298   */\n      tag_400\n        /* \"#utility.yul\":1290:1297   */\n      dup6\n        /* \"#utility.yul\":1281:1287   */\n      dup3\n        /* \"#utility.yul\":1270:1279   */\n      dup7\n        /* \"#utility.yul\":1266:1288   */\n      add\n        /* \"#utility.yul\":1245:1298   */\n      tag_333\n      jump\t// in\n    tag_400:\n        /* \"#utility.yul\":1235:1298   */\n      swap2\n      pop\n        /* \"#utility.yul\":1190:1308   */\n      pop\n        /* \"#utility.yul\":841:1315   */\n      swap3\n      pop\n      swap3\n      swap1\n      pop\n      jump\t// out\n        /* \"#utility.yul\":1321:1398   */\n    tag_334:\n        /* \"#utility.yul\":1358:1365   */\n      0x00\n        /* \"#utility.yul\":1387:1392   */\n      dup2\n        /* \"#utility.yul\":1376:1392   */\n      swap1\n      pop\n        /* \"#utility.yul\":1321:1398   */\n      swap2\n      swap1\n      pop\n      jump\t// out\n        /* \"#utility.yul\":1404:1526   */\n    tag_335:\n        /* \"#utility.yul\":1477:1501   */\n      tag_403\n        /* \"#utility.yul\":1495:1500   */\n      dup2\n        /* \"#utility.yul\":1477:1501   */\n      tag_334\n      jump\t// in\n    tag_403:\n        /* \"#utility.yul\":1470:1475   */\n      dup2\n        /* \"#utility.yul\":1467:1502   */\n      eq\n        /* \"#utility.yul\":1457:1520   */\n      tag_404\n      jumpi\n        /* \"#utility.yul\":1516:1517   */\n      0x00\n        /* \"#utility.yul\":1513:1514   */\n      dup1\n        /* \"#utility.yul\":1506:1518   */\n      revert\n        /* \"#utility.yul\":1457:1520   */\n    tag_404:\n        /* \"#utility.yul\":1404:1526   */\n      pop\n      jump\t// out\n        /* \"#utility.yul\":1532:1671   */\n    tag_336:\n        /* \"#utility.yul\":1578:1583   */\n      0x00\n        /* \"#utility.yul\":1616:1622   */\n      dup2\n        /* \"#utility.yul\":1603:1623   */\n      calldataload\n        /* \"#utility.yul\":1594:1623   */\n      swap1\n      pop\n        /* \"#utility.yul\":1632:1665   */\n      tag_406\n        /* \"#utility.yul\":1659:1664   */\n      dup2\n        /* \"#utility.yul\":1632:1665   */\n      tag_335\n      jump\t// in\n    tag_406:\n        /* \"#utility.yul\":1532:1671   */\n      swap3\n      swap2\n      pop\n      pop\n      jump\t// out\n        /* \"#utility.yul\":1677:2151   */\n    tag_33:\n        /* \"#utility.yul\":1745:1751   */\n      0x00\n        /* \"#utility.yul\":1753:1759   */\n      dup1\n        /* \"#utility.yul\":1802:1804   */\n      0x40\n        /* \"#utility.yul\":1790:1799   */\n      dup4\n        /* \"#utility.yul\":1781:1788   */\n      dup6\n        /* \"#utility.yul\":1777:1800   */\n      sub\n        /* \"#utility.yul\":1773:1805   */\n      slt\n        /* \"#utility.yul\":1770:1889   */\n      iszero\n      tag_408\n      jumpi\n        /* \"#utility.yul\":1808:1887   */\n      tag_409\n      tag_328\n      jump\t// in\n    tag_409:\n        /* \"#utility.yul\":1770:1889   */\n    tag_408:\n        /* \"#utility.yul\":1928:1929   */\n      0x00\n        /* \"#utility.yul\":1953:2006   */\n      tag_410\n        /* \"#utility.yul\":1998:2005   */\n      dup6\n        /* \"#utility.yul\":1989:1995   */\n      dup3\n        /* \"#utility.yul\":1978:1987   */\n      dup7\n        /* \"#utility.yul\":1974:1996   */\n      add\n        /* \"#utility.yul\":1953:2006   */\n      tag_336\n      jump\t// in\n    tag_410:\n        /* \"#utility.yul\":1943:2006   */\n      swap3\n      pop\n        /* \"#utility.yul\":1899:2016   */\n      pop\n        /* \"#utility.yul\":2055:2057   */\n      0x20\n        /* \"#utility.yul\":2081:2134   */\n      tag_411\n        /* \"#utility.yul\":2126:2133   */\n      dup6\n        /* \"#utility.yul\":2117:2123   */\n      dup3\n        /* \"#utility.yul\":2106:2115   */\n      dup7\n        /* \"#utility.yul\":2102:2124   */\n      add\n        /* \"#utility.yul\":2081:2134   */\n      tag_336\n      jump\t// in\n    tag_411:\n        /* \"#utility.yul\":2071:2134   */\n      swap2\n      pop\n        /* \"#utility.yul\":2026:2144   */\n      pop\n        /* \"#utility.yul\":1677:2151   */\n      swap3\n      pop\n      swap3\n      swap1\n      pop\n      jump\t// out\n        /* \"#utility.yul\":2157:2271   */\n    tag_337:\n        /* \"#utility.yul\":2224:2230   */\n      0x00\n        /* \"#utility.yul\":2258:2263   */\n      dup2\n        /* \"#utility.yul\":2252:2264   */\n      mload\n        /* \"#utility.yul\":2242:2264   */\n      swap1\n      pop\n        /* \"#utility.yul\":2157:2271   */\n      swap2\n      swap1\n      pop\n      jump\t// out\n        /* \"#utility.yul\":2277:2461   */\n    tag_338:\n        /* \"#utility.yul\":2376:2387   */\n      0x00\n        /* \"#utility.yul\":2410:2416   */\n      dup3\n        /* \"#utility.yul\":2405:2408   */\n      dup3\n        /* \"#utility.yul\":2398:2417   */\n      mstore\n        /* \"#utility.yul\":2450:2454   */\n      0x20\n        /* \"#utility.yul\":2445:2448   */\n      dup3\n        /* \"#utility.yul\":2441:2455   */\n      add\n        /* \"#utility.yul\":2426:2455   */\n      swap1\n      pop\n        /* \"#utility.yul\":2277:2461   */\n      swap3\n      swap2\n      pop\n      pop\n      jump\t// out\n        /* \"#utility.yul\":2467:2599   */\n    tag_339:\n        /* \"#utility.yul\":2534:2538   */\n      0x00\n        /* \"#utility.yul\":2557:2560   */\n      dup2\n        /* \"#utility.yul\":2549:2560   */\n      swap1\n      pop\n        /* \"#utility.yul\":2587:2591   */\n      0x20\n        /* \"#utility.yul\":2582:2585   */\n      dup3\n        /* \"#utility.yul\":2578:2592   */\n      add\n        /* \"#utility.yul\":2570:2592   */\n      swap1\n      pop\n        /* \"#utility.yul\":2467:2599   */\n      swap2\n      swap1\n      pop\n      jump\t// out\n        /* \"#utility.yul\":2605:2713   */\n    tag_340:\n        /* \"#utility.yul\":2682:2706   */\n      tag_416\n        /* \"#utility.yul\":2700:2705   */\n      dup2\n        /* \"#utility.yul\":2682:2706   */\n      tag_331\n      jump\t// in\n    tag_416:\n        /* \"#utility.yul\":2677:2680   */\n      dup3\n        /* \"#utility.yul\":2670:2707   */\n      mstore\n        /* \"#utility.yul\":2605:2713   */\n      pop\n      pop\n      jump\t// out\n        /* \"#utility.yul\":2719:2898   */\n    tag_341:\n        /* \"#utility.yul\":2788:2798   */\n      0x00\n        /* \"#utility.yul\":2809:2855   */\n      tag_418\n        /* \"#utility.yul\":2851:2854   */\n      dup4\n        /* \"#utility.yul\":2843:2849   */\n      dup4\n        /* \"#utility.yul\":2809:2855   */\n      tag_340\n      jump\t// in\n    tag_418:\n        /* \"#utility.yul\":2887:2891   */\n      0x20\n        /* \"#utility.yul\":2882:2885   */\n      dup4\n        /* \"#utility.yul\":2878:2892   */\n      add\n        /* \"#utility.yul\":2864:2892   */\n      swap1\n      pop\n        /* \"#utility.yul\":2719:2898   */\n      swap3\n      swap2\n      pop\n      pop\n      jump\t// out\n        /* \"#utility.yul\":2904:3017   */\n    tag_342:\n        /* \"#utility.yul\":2974:2978   */\n      0x00\n        /* \"#utility.yul\":3006:3010   */\n      0x20\n        /* \"#utility.yul\":3001:3004   */\n      dup3\n        /* \"#utility.yul\":2997:3011   */\n      add\n        /* \"#utility.yul\":2989:3011   */\n      swap1\n      pop\n        /* \"#utility.yul\":2904:3017   */\n      swap2\n      swap1\n      pop\n      jump\t// out\n        /* \"#utility.yul\":3053:3785   */\n    tag_343:\n        /* \"#utility.yul\":3172:3175   */\n      0x00\n        /* \"#utility.yul\":3201:3255   */\n      tag_421\n        /* \"#utility.yul\":3249:3254   */\n      dup3\n        /* \"#utility.yul\":3201:3255   */\n      tag_337\n      jump\t// in\n    tag_421:\n        /* \"#utility.yul\":3271:3357   */\n      tag_422\n        /* \"#utility.yul\":3350:3356   */\n      dup2\n        /* \"#utility.yul\":3345:3348   */\n      dup6\n        /* \"#utility.yul\":3271:3357   */\n      tag_338\n      jump\t// in\n    tag_422:\n        /* \"#utility.yul\":3264:3357   */\n      swap4\n      pop\n        /* \"#utility.yul\":3381:3437   */\n      tag_423\n        /* \"#utility.yul\":3431:3436   */\n      dup4\n        /* \"#utility.yul\":3381:3437   */\n      tag_339\n      jump\t// in\n    tag_423:\n        /* \"#utility.yul\":3460:3467   */\n      dup1\n        /* \"#utility.yul\":3491:3492   */\n      0x00\n        /* \"#utility.yul\":3476:3760   */\n    tag_424:\n        /* \"#utility.yul\":3501:3507   */\n      dup4\n        /* \"#utility.yul\":3498:3499   */\n      dup2\n        /* \"#utility.yul\":3495:3508   */\n      lt\n        /* \"#utility.yul\":3476:3760   */\n      iszero\n      tag_426\n      jumpi\n        /* \"#utility.yul\":3577:3583   */\n      dup2\n        /* \"#utility.yul\":3571:3584   */\n      mload\n        /* \"#utility.yul\":3604:3667   */\n      tag_427\n        /* \"#utility.yul\":3663:3666   */\n      dup9\n        /* \"#utility.yul\":3648:3661   */\n      dup3\n        /* \"#utility.yul\":3604:3667   */\n      tag_341\n      jump\t// in\n    tag_427:\n        /* \"#utility.yul\":3597:3667   */\n      swap8\n      pop\n        /* \"#utility.yul\":3690:3750   */\n      tag_428\n        /* \"#utility.yul\":3743:3749   */\n      dup4\n        /* \"#utility.yul\":3690:3750   */\n      tag_342\n      jump\t// in\n    tag_428:\n        /* \"#utility.yul\":3680:3750   */\n      swap3\n      pop\n        /* \"#utility.yul\":3536:3760   */\n      pop\n        /* \"#utility.yul\":3523:3524   */\n      0x01\n        /* \"#utility.yul\":3520:3521   */\n      dup2\n        /* \"#utility.yul\":3516:3525   */\n      add\n        /* \"#utility.yul\":3511:3525   */\n      swap1\n      pop\n        /* \"#utility.yul\":3476:3760   */\n      jump(tag_424)\n    tag_426:\n        /* \"#utility.yul\":3480:3494   */\n      pop\n        /* \"#utility.yul\":3776:3779   */\n      dup6\n        /* \"#utility.yul\":3769:3779   */\n      swap4\n      pop\n        /* \"#utility.yul\":3177:3785   */\n      pop\n      pop\n      pop\n        /* \"#utility.yul\":3053:3785   */\n      swap3\n      swap2\n      pop\n      pop\n      jump\t// out\n        /* \"#utility.yul\":3791:4164   */\n    tag_36:\n        /* \"#utility.yul\":3934:3938   */\n      0x00\n        /* \"#utility.yul\":3972:3974   */\n      0x20\n        /* \"#utility.yul\":3961:3970   */\n      dup3\n        /* \"#utility.yul\":3957:3975   */\n      add\n        /* \"#utility.yul\":3949:3975   */\n      swap1\n      pop\n        /* \"#utility.yul\":4021:4030   */\n      dup2\n        /* \"#utility.yul\":4015:4019   */\n      dup2\n        /* \"#utility.yul\":4011:4031   */\n      sub\n        /* \"#utility.yul\":4007:4008   */\n      0x00\n        /* \"#utility.yul\":3996:4005   */\n      dup4\n        /* \"#utility.yul\":3992:4009   */\n      add\n        /* \"#utility.yul\":3985:4032   */\n      mstore\n        /* \"#utility.yul\":4049:4157   */\n      tag_430\n        /* \"#utility.yul\":4152:4156   */\n      dup2\n        /* \"#utility.yul\":4143:4149   */\n      dup5\n        /* \"#utility.yul\":4049:4157   */\n      tag_343\n      jump\t// in\n    tag_430:\n        /* \"#utility.yul\":4041:4157   */\n      swap1\n      pop\n        /* \"#utility.yul\":3791:4164   */\n      swap3\n      swap2\n      pop\n      pop\n      jump\t// out\n        /* \"#utility.yul\":4170:4499   */\n    tag_40:\n        /* \"#utility.yul\":4229:4235   */\n      0x00\n        /* \"#utility.yul\":4278:4280   */\n      0x20\n        /* \"#utility.yul\":4266:4275   */\n      dup3\n        /* \"#utility.yul\":4257:4264   */\n      dup5\n        /* \"#utility.yul\":4253:4276   */\n      sub\n        /* \"#utility.yul\":4249:4281   */\n      slt\n        /* \"#utility.yul\":4246:4365   */\n      iszero\n      tag_432\n      jumpi\n        /* \"#utility.yul\":4284:4363   */\n      tag_433\n      tag_328\n      jump\t// in\n    tag_433:\n        /* \"#utility.yul\":4246:4365   */\n    tag_432:\n        /* \"#utility.yul\":4404:4405   */\n      0x00\n        /* \"#utility.yul\":4429:4482   */\n      tag_434\n        /* \"#utility.yul\":4474:4481   */\n      dup5\n        /* \"#utility.yul\":4465:4471   */\n      dup3\n        /* \"#utility.yul\":4454:4463   */\n      dup6\n        /* \"#utility.yul\":4450:4472   */\n      add\n        /* \"#utility.yul\":4429:4482   */\n      tag_333\n      jump\t// in\n    tag_434:\n        /* \"#utility.yul\":4419:4482   */\n      swap2\n      pop\n        /* \"#utility.yul\":4375:4492   */\n      pop\n        /* \"#utility.yul\":4170:4499   */\n      swap3\n      swap2\n      pop\n      pop\n      jump\t// out\n        /* \"#utility.yul\":4505:4834   */\n    tag_46:\n        /* \"#utility.yul\":4564:4570   */\n      0x00\n        /* \"#utility.yul\":4613:4615   */\n      0x20\n        /* \"#utility.yul\":4601:4610   */\n      dup3\n        /* \"#utility.yul\":4592:4599   */\n      dup5\n        /* \"#utility.yul\":4588:4611   */\n      sub\n        /* \"#utility.yul\":4584:4616   */\n      slt\n        /* \"#utility.yul\":4581:4700   */\n      iszero\n      tag_436\n      jumpi\n        /* \"#utility.yul\":4619:4698   */\n      tag_437\n      tag_328\n      jump\t// in\n    tag_437:\n        /* \"#utility.yul\":4581:4700   */\n    tag_436:\n        /* \"#utility.yul\":4739:4740   */\n      0x00\n        /* \"#utility.yul\":4764:4817   */\n      tag_438\n        /* \"#utility.yul\":4809:4816   */\n      dup5\n        /* \"#utility.yul\":4800:4806   */\n      dup3\n        /* \"#utility.yul\":4789:4798   */\n      dup6\n        /* \"#utility.yul\":4785:4807   */\n      add\n        /* \"#utility.yul\":4764:4817   */\n      tag_336\n      jump\t// in\n    tag_438:\n        /* \"#utility.yul\":4754:4817   */\n      swap2\n      pop\n        /* \"#utility.yul\":4710:4827   */\n      pop\n        /* \"#utility.yul\":4505:4834   */\n      swap3\n      swap2\n      pop\n      pop\n      jump\t// out\n        /* \"#utility.yul\":4840:4958   */\n    tag_344:\n        /* \"#utility.yul\":4927:4951   */\n      tag_440\n        /* \"#utility.yul\":4945:4950   */\n      dup2\n        /* \"#utility.yul\":4927:4951   */\n      tag_331\n      jump\t// in\n    tag_440:\n        /* \"#utility.yul\":4922:4925   */\n      dup3\n        /* \"#utility.yul\":4915:4952   */\n      mstore\n        /* \"#utility.yul\":4840:4958   */\n      pop\n      pop\n      jump\t// out\n        /* \"#utility.yul\":4964:5186   */\n    tag_49:\n        /* \"#utility.yul\":5057:5061   */\n      0x00\n        /* \"#utility.yul\":5095:5097   */\n      0x20\n        /* \"#utility.yul\":5084:5093   */\n      dup3\n        /* \"#utility.yul\":5080:5098   */\n      add\n        /* \"#utility.yul\":5072:5098   */\n      swap1\n      pop\n        /* \"#utility.yul\":5108:5179   */\n      tag_442\n        /* \"#utility.yul\":5176:5177   */\n      0x00\n        /* \"#utility.yul\":5165:5174   */\n      dup4\n        /* \"#utility.yul\":5161:5178   */\n      add\n        /* \"#utility.yul\":5152:5158   */\n      dup5\n        /* \"#utility.yul\":5108:5179   */\n      tag_344\n      jump\t// in\n    tag_442:\n        /* \"#utility.yul\":4964:5186   */\n      swap3\n      swap2\n      pop\n      pop\n      jump\t// out\n        /* \"#utility.yul\":5192:5310   */\n    tag_345:\n        /* \"#utility.yul\":5279:5303   */\n      tag_444\n        /* \"#utility.yul\":5297:5302   */\n      dup2\n        /* \"#utility.yul\":5279:5303   */\n      tag_334\n      jump\t// in\n    tag_444:\n        /* \"#utility.yul\":5274:5277   */\n      dup3\n        /* \"#utility.yul\":5267:5304   */\n      mstore\n        /* \"#utility.yul\":5192:5310   */\n      pop\n      pop\n      jump\t// out\n        /* \"#utility.yul\":5316:5538   */\n    tag_64:\n        /* \"#utility.yul\":5409:5413   */\n      0x00\n        /* \"#utility.yul\":5447:5449   */\n      0x20\n        /* \"#utility.yul\":5436:5445   */\n      dup3\n        /* \"#utility.yul\":5432:5450   */\n      add\n        /* \"#utility.yul\":5424:5450   */\n      swap1\n      pop\n        /* \"#utility.yul\":5460:5531   */\n      tag_446\n        /* \"#utility.yul\":5528:5529   */\n      0x00\n        /* \"#utility.yul\":5517:5526   */\n      dup4\n        /* \"#utility.yul\":5513:5530   */\n      add\n        /* \"#utility.yul\":5504:5510   */\n      dup5\n        /* \"#utility.yul\":5460:5531   */\n      tag_345\n      jump\t// in\n    tag_446:\n        /* \"#utility.yul\":5316:5538   */\n      swap3\n      swap2\n      pop\n      pop\n      jump\t// out\n        /* \"#utility.yul\":5544:5661   */\n    tag_346:\n        /* \"#utility.yul\":5653:5654   */\n      0x00\n        /* \"#utility.yul\":5650:5651   */\n      dup1\n        /* \"#utility.yul\":5643:5655   */\n      revert\n        /* \"#utility.yul\":5667:5784   */\n    tag_347:\n        /* \"#utility.yul\":5776:5777   */\n      0x00\n        /* \"#utility.yul\":5773:5774   */\n      dup1\n        /* \"#utility.yul\":5766:5778   */\n      revert\n        /* \"#utility.yul\":5790:5892   */\n    tag_348:\n        /* \"#utility.yul\":5831:5837   */\n      0x00\n        /* \"#utility.yul\":5882:5884   */\n      0x1f\n        /* \"#utility.yul\":5878:5885   */\n      not\n        /* \"#utility.yul\":5873:5875   */\n      0x1f\n        /* \"#utility.yul\":5866:5871   */\n      dup4\n        /* \"#utility.yul\":5862:5876   */\n      add\n        /* \"#utility.yul\":5858:5886   */\n      and\n        /* \"#utility.yul\":5848:5886   */\n      swap1\n      pop\n        /* \"#utility.yul\":5790:5892   */\n      swap2\n      swap1\n      pop\n      jump\t// out\n        /* \"#utility.yul\":5898:6078   */\n    tag_167:\n        /* \"#utility.yul\":5946:6023   */\n      0x4e487b7100000000000000000000000000000000000000000000000000000000\n        /* \"#utility.yul\":5943:5944   */\n      0x00\n        /* \"#utility.yul\":5936:6024   */\n      mstore\n        /* \"#utility.yul\":6043:6047   */\n      0x41\n        /* \"#utility.yul\":6040:6041   */\n      0x04\n        /* \"#utility.yul\":6033:6048   */\n      mstore\n        /* \"#utility.yul\":6067:6071   */\n      0x24\n        /* \"#utility.yul\":6064:6065   */\n      0x00\n        /* \"#utility.yul\":6057:6072   */\n      revert\n        /* \"#utility.yul\":6084:6365   */\n    tag_349:\n        /* \"#utility.yul\":6167:6194   */\n      tag_452\n        /* \"#utility.yul\":6189:6193   */\n      dup3\n        /* \"#utility.yul\":6167:6194   */\n      tag_348\n      jump\t// in\n    tag_452:\n        /* \"#utility.yul\":6159:6165   */\n      dup2\n        /* \"#utility.yul\":6155:6195   */\n      add\n        /* \"#utility.yul\":6297:6303   */\n      dup2\n        /* \"#utility.yul\":6285:6295   */\n      dup2\n        /* \"#utility.yul\":6282:6304   */\n      lt\n        /* \"#utility.yul\":6261:6279   */\n      0xffffffffffffffff\n        /* \"#utility.yul\":6249:6259   */\n      dup3\n        /* \"#utility.yul\":6246:6280   */\n      gt\n        /* \"#utility.yul\":6243:6305   */\n      or\n        /* \"#utility.yul\":6240:6328   */\n      iszero\n      tag_453\n      jumpi\n        /* \"#utility.yul\":6308:6326   */\n      tag_454\n      tag_167\n      jump\t// in\n    tag_454:\n        /* \"#utility.yul\":6240:6328   */\n    tag_453:\n        /* \"#utility.yul\":6348:6358   */\n      dup1\n        /* \"#utility.yul\":6344:6346   */\n      0x40\n        /* \"#utility.yul\":6337:6359   */\n      mstore\n        /* \"#utility.yul\":6127:6365   */\n      pop\n        /* \"#utility.yul\":6084:6365   */\n      pop\n      pop\n      jump\t// out\n        /* \"#utility.yul\":6371:6500   */\n    tag_350:\n        /* \"#utility.yul\":6405:6411   */\n      0x00\n        /* \"#utility.yul\":6432:6452   */\n      tag_456\n      tag_327\n      jump\t// in\n    tag_456:\n        /* \"#utility.yul\":6422:6452   */\n      swap1\n      pop\n        /* \"#utility.yul\":6461:6494   */\n      tag_457\n        /* \"#utility.yul\":6489:6493   */\n      dup3\n        /* \"#utility.yul\":6481:6487   */\n      dup3\n        /* \"#utility.yul\":6461:6494   */\n      tag_349\n      jump\t// in\n    tag_457:\n        /* \"#utility.yul\":6371:6500   */\n      swap2\n      swap1\n      pop\n      jump\t// out\n        /* \"#utility.yul\":6506:6814   */\n    tag_351:\n        /* \"#utility.yul\":6568:6572   */\n      0x00\n        /* \"#utility.yul\":6658:6676   */\n      0xffffffffffffffff\n        /* \"#utility.yul\":6650:6656   */\n      dup3\n        /* \"#utility.yul\":6647:6677   */\n      gt\n        /* \"#utility.yul\":6644:6700   */\n      iszero\n      tag_459\n      jumpi\n        /* \"#utility.yul\":6680:6698   */\n      tag_460\n      tag_167\n      jump\t// in\n    tag_460:\n        /* \"#utility.yul\":6644:6700   */\n    tag_459:\n        /* \"#utility.yul\":6718:6747   */\n      tag_461\n        /* \"#utility.yul\":6740:6746   */\n      dup3\n        /* \"#utility.yul\":6718:6747   */\n      tag_348\n      jump\t// in\n    tag_461:\n        /* \"#utility.yul\":6710:6747   */\n      swap1\n      pop\n        /* \"#utility.yul\":6802:6806   */\n      0x20\n        /* \"#utility.yul\":6796:6800   */\n      dup2\n        /* \"#utility.yul\":6792:6807   */\n      add\n        /* \"#utility.yul\":6784:6807   */\n      swap1\n      pop\n        /* \"#utility.yul\":6506:6814   */\n      swap2\n      swap1\n      pop\n      jump\t// out\n        /* \"#utility.yul\":6820:6974   */\n    tag_352:\n        /* \"#utility.yul\":6904:6910   */\n      dup3\n        /* \"#utility.yul\":6899:6902   */\n      dup2\n        /* \"#utility.yul\":6894:6897   */\n      dup4\n        /* \"#utility.yul\":6881:6911   */\n      calldatacopy\n        /* \"#utility.yul\":6966:6967   */\n      0x00\n        /* \"#utility.yul\":6957:6963   */\n      dup4\n        /* \"#utility.yul\":6952:6955   */\n      dup4\n        /* \"#utility.yul\":6948:6964   */\n      add\n        /* \"#utility.yul\":6941:6968   */\n      mstore\n        /* \"#utility.yul\":6820:6974   */\n      pop\n      pop\n      pop\n      jump\t// out\n        /* \"#utility.yul\":6980:7392   */\n    tag_353:\n        /* \"#utility.yul\":7058:7063   */\n      0x00\n        /* \"#utility.yul\":7083:7149   */\n      tag_464\n        /* \"#utility.yul\":7099:7148   */\n      tag_465\n        /* \"#utility.yul\":7141:7147   */\n      dup5\n        /* \"#utility.yul\":7099:7148   */\n      tag_351\n      jump\t// in\n    tag_465:\n        /* \"#utility.yul\":7083:7149   */\n      tag_350\n      jump\t// in\n    tag_464:\n        /* \"#utility.yul\":7074:7149   */\n      swap1\n      pop\n        /* \"#utility.yul\":7172:7178   */\n      dup3\n        /* \"#utility.yul\":7165:7170   */\n      dup2\n        /* \"#utility.yul\":7158:7179   */\n      mstore\n        /* \"#utility.yul\":7210:7214   */\n      0x20\n        /* \"#utility.yul\":7203:7208   */\n      dup2\n        /* \"#utility.yul\":7199:7215   */\n      add\n        /* \"#utility.yul\":7248:7251   */\n      dup5\n        /* \"#utility.yul\":7239:7245   */\n      dup5\n        /* \"#utility.yul\":7234:7237   */\n      dup5\n        /* \"#utility.yul\":7230:7246   */\n      add\n        /* \"#utility.yul\":7227:7252   */\n      gt\n        /* \"#utility.yul\":7224:7336   */\n      iszero\n      tag_466\n      jumpi\n        /* \"#utility.yul\":7255:7334   */\n      tag_467\n      tag_347\n      jump\t// in\n    tag_467:\n        /* \"#utility.yul\":7224:7336   */\n    tag_466:\n        /* \"#utility.yul\":7345:7386   */\n      tag_468\n        /* \"#utility.yul\":7379:7385   */\n      dup5\n        /* \"#utility.yul\":7374:7377   */\n      dup3\n        /* \"#utility.yul\":7369:7372   */\n      dup6\n        /* \"#utility.yul\":7345:7386   */\n      tag_352\n      jump\t// in\n    tag_468:\n        /* \"#utility.yul\":7064:7392   */\n      pop\n        /* \"#utility.yul\":6980:7392   */\n      swap4\n      swap3\n      pop\n      pop\n      pop\n      jump\t// out\n        /* \"#utility.yul\":7412:7752   */\n    tag_354:\n        /* \"#utility.yul\":7468:7473   */\n      0x00\n        /* \"#utility.yul\":7517:7520   */\n      dup3\n        /* \"#utility.yul\":7510:7514   */\n      0x1f\n        /* \"#utility.yul\":7502:7508   */\n      dup4\n        /* \"#utility.yul\":7498:7515   */\n      add\n        /* \"#utility.yul\":7494:7521   */\n      slt\n        /* \"#utility.yul\":7484:7606   */\n      tag_470\n      jumpi\n        /* \"#utility.yul\":7525:7604   */\n      tag_471\n      tag_346\n      jump\t// in\n    tag_471:\n        /* \"#utility.yul\":7484:7606   */\n    tag_470:\n        /* \"#utility.yul\":7642:7648   */\n      dup2\n        /* \"#utility.yul\":7629:7649   */\n      calldataload\n        /* \"#utility.yul\":7667:7746   */\n      tag_472\n        /* \"#utility.yul\":7742:7745   */\n      dup5\n        /* \"#utility.yul\":7734:7740   */\n      dup3\n        /* \"#utility.yul\":7727:7731   */\n      0x20\n        /* \"#utility.yul\":7719:7725   */\n      dup7\n        /* \"#utility.yul\":7715:7732   */\n      add\n        /* \"#utility.yul\":7667:7746   */\n      tag_353\n      jump\t// in\n    tag_472:\n        /* \"#utility.yul\":7658:7746   */\n      swap2\n      pop\n        /* \"#utility.yul\":7474:7752   */\n      pop\n        /* \"#utility.yul\":7412:7752   */\n      swap3\n      swap2\n      pop\n      pop\n      jump\t// out\n        /* \"#utility.yul\":7758:7862   */\n    tag_355:\n        /* \"#utility.yul\":7803:7810   */\n      0x00\n        /* \"#utility.yul\":7832:7856   */\n      tag_474\n        /* \"#utility.yul\":7850:7855   */\n      dup3\n        /* \"#utility.yul\":7832:7856   */\n      tag_330\n      jump\t// in\n    tag_474:\n        /* \"#utility.yul\":7821:7856   */\n      swap1\n      pop\n        /* \"#utility.yul\":7758:7862   */\n      swap2\n      swap1\n      pop\n      jump\t// out\n        /* \"#utility.yul\":7868:8006   */\n    tag_356:\n        /* \"#utility.yul\":7949:7981   */\n      tag_476\n        /* \"#utility.yul\":7975:7980   */\n      dup2\n        /* \"#utility.yul\":7949:7981   */\n      tag_355\n      jump\t// in\n    tag_476:\n        /* \"#utility.yul\":7942:7947   */\n      dup2\n        /* \"#utility.yul\":7939:7982   */\n      eq\n        /* \"#utility.yul\":7929:8000   */\n      tag_477\n      jumpi\n        /* \"#utility.yul\":7996:7997   */\n      0x00\n        /* \"#utility.yul\":7993:7994   */\n      dup1\n        /* \"#utility.yul\":7986:7998   */\n      revert\n        /* \"#utility.yul\":7929:8000   */\n    tag_477:\n        /* \"#utility.yul\":7868:8006   */\n      pop\n      jump\t// out\n        /* \"#utility.yul\":8012:8167   */\n    tag_357:\n        /* \"#utility.yul\":8066:8071   */\n      0x00\n        /* \"#utility.yul\":8104:8110   */\n      dup2\n        /* \"#utility.yul\":8091:8111   */\n      calldataload\n        /* \"#utility.yul\":8082:8111   */\n      swap1\n      pop\n        /* \"#utility.yul\":8120:8161   */\n      tag_479\n        /* \"#utility.yul\":8155:8160   */\n      dup2\n        /* \"#utility.yul\":8120:8161   */\n      tag_356\n      jump\t// in\n    tag_479:\n        /* \"#utility.yul\":8012:8167   */\n      swap3\n      swap2\n      pop\n      pop\n      jump\t// out\n        /* \"#utility.yul\":8173:9314   */\n    tag_122:\n        /* \"#utility.yul\":8287:8293   */\n      0x00\n        /* \"#utility.yul\":8295:8301   */\n      dup1\n        /* \"#utility.yul\":8303:8309   */\n      0x00\n        /* \"#utility.yul\":8311:8317   */\n      dup1\n        /* \"#utility.yul\":8360:8363   */\n      0x80\n        /* \"#utility.yul\":8348:8357   */\n      dup6\n        /* \"#utility.yul\":8339:8346   */\n      dup8\n        /* \"#utility.yul\":8335:8358   */\n      sub\n        /* \"#utility.yul\":8331:8364   */\n      slt\n        /* \"#utility.yul\":8328:8448   */\n      iszero\n      tag_481\n      jumpi\n        /* \"#utility.yul\":8367:8446   */\n      tag_482\n      tag_328\n      jump\t// in\n    tag_482:\n        /* \"#utility.yul\":8328:8448   */\n    tag_481:\n        /* \"#utility.yul\":8487:8488   */\n      0x00\n        /* \"#utility.yul\":8512:8565   */\n      tag_483\n        /* \"#utility.yul\":8557:8564   */\n      dup8\n        /* \"#utility.yul\":8548:8554   */\n      dup3\n        /* \"#utility.yul\":8537:8546   */\n      dup9\n        /* \"#utility.yul\":8533:8555   */\n      add\n        /* \"#utility.yul\":8512:8565   */\n      tag_333\n      jump\t// in\n    tag_483:\n        /* \"#utility.yul\":8502:8565   */\n      swap5\n      pop\n        /* \"#utility.yul\":8458:8575   */\n      pop\n        /* \"#utility.yul\":8642:8644   */\n      0x20\n        /* \"#utility.yul\":8631:8640   */\n      dup6\n        /* \"#utility.yul\":8627:8645   */\n      add\n        /* \"#utility.yul\":8614:8646   */\n      calldataload\n        /* \"#utility.yul\":8673:8691   */\n      0xffffffffffffffff\n        /* \"#utility.yul\":8665:8671   */\n      dup2\n        /* \"#utility.yul\":8662:8692   */\n      gt\n        /* \"#utility.yul\":8659:8776   */\n      iszero\n      tag_484\n      jumpi\n        /* \"#utility.yul\":8695:8774   */\n      tag_485\n      tag_329\n      jump\t// in\n    tag_485:\n        /* \"#utility.yul\":8659:8776   */\n    tag_484:\n        /* \"#utility.yul\":8800:8863   */\n      tag_486\n        /* \"#utility.yul\":8855:8862   */\n      dup8\n        /* \"#utility.yul\":8846:8852   */\n      dup3\n        /* \"#utility.yul\":8835:8844   */\n      dup9\n        /* \"#utility.yul\":8831:8853   */\n      add\n        /* \"#utility.yul\":8800:8863   */\n      tag_354\n      jump\t// in\n    tag_486:\n        /* \"#utility.yul\":8790:8863   */\n      swap4\n      pop\n        /* \"#utility.yul\":8585:8873   */\n      pop\n        /* \"#utility.yul\":8940:8942   */\n      0x40\n        /* \"#utility.yul\":8929:8938   */\n      dup6\n        /* \"#utility.yul\":8925:8943   */\n      add\n        /* \"#utility.yul\":8912:8944   */\n      calldataload\n        /* \"#utility.yul\":8971:8989   */\n      0xffffffffffffffff\n        /* \"#utility.yul\":8963:8969   */\n      dup2\n        /* \"#utility.yul\":8960:8990   */\n      gt\n        /* \"#utility.yul\":8957:9074   */\n      iszero\n      tag_487\n      jumpi\n        /* \"#utility.yul\":8993:9072   */\n      tag_488\n      tag_329\n      jump\t// in\n    tag_488:\n        /* \"#utility.yul\":8957:9074   */\n    tag_487:\n        /* \"#utility.yul\":9098:9161   */\n      tag_489\n        /* \"#utility.yul\":9153:9160   */\n      dup8\n        /* \"#utility.yul\":9144:9150   */\n      dup3\n        /* \"#utility.yul\":9133:9142   */\n      dup9\n        /* \"#utility.yul\":9129:9151   */\n      add\n        /* \"#utility.yul\":9098:9161   */\n      tag_354\n      jump\t// in\n    tag_489:\n        /* \"#utility.yul\":9088:9161   */\n      swap3\n      pop\n        /* \"#utility.yul\":8883:9171   */\n      pop\n        /* \"#utility.yul\":9210:9212   */\n      0x60\n        /* \"#utility.yul\":9236:9297   */\n      tag_490\n        /* \"#utility.yul\":9289:9296   */\n      dup8\n        /* \"#utility.yul\":9280:9286   */\n      dup3\n        /* \"#utility.yul\":9269:9278   */\n      dup9\n        /* \"#utility.yul\":9265:9287   */\n      add\n        /* \"#utility.yul\":9236:9297   */\n      tag_357\n      jump\t// in\n    tag_490:\n        /* \"#utility.yul\":9226:9297   */\n      swap2\n      pop\n        /* \"#utility.yul\":9181:9307   */\n      pop\n        /* \"#utility.yul\":8173:9314   */\n      swap3\n      swap6\n      swap2\n      swap5\n      pop\n      swap3\n      pop\n      jump\t// out\n        /* \"#utility.yul\":9320:9463   */\n    tag_358:\n        /* \"#utility.yul\":9377:9382   */\n      0x00\n        /* \"#utility.yul\":9408:9414   */\n      dup2\n        /* \"#utility.yul\":9402:9415   */\n      mload\n        /* \"#utility.yul\":9393:9415   */\n      swap1\n      pop\n        /* \"#utility.yul\":9424:9457   */\n      tag_492\n        /* \"#utility.yul\":9451:9456   */\n      dup2\n        /* \"#utility.yul\":9424:9457   */\n      tag_332\n      jump\t// in\n    tag_492:\n        /* \"#utility.yul\":9320:9463   */\n      swap3\n      swap2\n      pop\n      pop\n      jump\t// out\n        /* \"#utility.yul\":9469:9820   */\n    tag_128:\n        /* \"#utility.yul\":9539:9545   */\n      0x00\n        /* \"#utility.yul\":9588:9590   */\n      0x20\n        /* \"#utility.yul\":9576:9585   */\n      dup3\n        /* \"#utility.yul\":9567:9574   */\n      dup5\n        /* \"#utility.yul\":9563:9586   */\n      sub\n        /* \"#utility.yul\":9559:9591   */\n      slt\n        /* \"#utility.yul\":9556:9675   */\n      iszero\n      tag_494\n      jumpi\n        /* \"#utility.yul\":9594:9673   */\n      tag_495\n      tag_328\n      jump\t// in\n    tag_495:\n        /* \"#utility.yul\":9556:9675   */\n    tag_494:\n        /* \"#utility.yul\":9714:9715   */\n      0x00\n        /* \"#utility.yul\":9739:9803   */\n      tag_496\n        /* \"#utility.yul\":9795:9802   */\n      dup5\n        /* \"#utility.yul\":9786:9792   */\n      dup3\n        /* \"#utility.yul\":9775:9784   */\n      dup6\n        /* \"#utility.yul\":9771:9793   */\n      add\n        /* \"#utility.yul\":9739:9803   */\n      tag_358\n      jump\t// in\n    tag_496:\n        /* \"#utility.yul\":9729:9803   */\n      swap2\n      pop\n        /* \"#utility.yul\":9685:9813   */\n      pop\n        /* \"#utility.yul\":9469:9820   */\n      swap3\n      swap2\n      pop\n      pop\n      jump\t// out\n        /* \"#utility.yul\":9826:10006   */\n    tag_131:\n        /* \"#utility.yul\":9874:9951   */\n      0x4e487b7100000000000000000000000000000000000000000000000000000000\n        /* \"#utility.yul\":9871:9872   */\n      0x00\n        /* \"#utility.yul\":9864:9952   */\n      mstore\n        /* \"#utility.yul\":9971:9975   */\n      0x21\n        /* \"#utility.yul\":9968:9969   */\n      0x04\n        /* \"#utility.yul\":9961:9976   */\n      mstore\n        /* \"#utility.yul\":9995:9999   */\n      0x24\n        /* \"#utility.yul\":9992:9993   */\n      0x00\n        /* \"#utility.yul\":9985:10000   */\n      revert\n        /* \"#utility.yul\":10012:10121   */\n    tag_359:\n        /* \"#utility.yul\":10095:10096   */\n      0x03\n        /* \"#utility.yul\":10088:10093   */\n      dup2\n        /* \"#utility.yul\":10085:10097   */\n      lt\n        /* \"#utility.yul\":10075:10115   */\n      tag_499\n      jumpi\n        /* \"#utility.yul\":10111:10112   */\n      0x00\n        /* \"#utility.yul\":10108:10109   */\n      dup1\n        /* \"#utility.yul\":10101:10113   */\n      revert\n        /* \"#utility.yul\":10075:10115   */\n    tag_499:\n        /* \"#utility.yul\":10012:10121   */\n      pop\n      jump\t// out\n        /* \"#utility.yul\":10127:10290   */\n    tag_360:\n        /* \"#utility.yul\":10194:10199   */\n      0x00\n        /* \"#utility.yul\":10225:10231   */\n      dup2\n        /* \"#utility.yul\":10219:10232   */\n      mload\n        /* \"#utility.yul\":10210:10232   */\n      swap1\n      pop\n        /* \"#utility.yul\":10241:10284   */\n      tag_501\n        /* \"#utility.yul\":10278:10283   */\n      dup2\n        /* \"#utility.yul\":10241:10284   */\n      tag_359\n      jump\t// in\n    tag_501:\n        /* \"#utility.yul\":10127:10290   */\n      swap3\n      swap2\n      pop\n      pop\n      jump\t// out\n        /* \"#utility.yul\":10296:10667   */\n    tag_135:\n        /* \"#utility.yul\":10376:10382   */\n      0x00\n        /* \"#utility.yul\":10425:10427   */\n      0x20\n        /* \"#utility.yul\":10413:10422   */\n      dup3\n        /* \"#utility.yul\":10404:10411   */\n      dup5\n        /* \"#utility.yul\":10400:10423   */\n      sub\n        /* \"#utility.yul\":10396:10428   */\n      slt\n        /* \"#utility.yul\":10393:10512   */\n      iszero\n      tag_503\n      jumpi\n        /* \"#utility.yul\":10431:10510   */\n      tag_504\n      tag_328\n      jump\t// in\n    tag_504:\n        /* \"#utility.yul\":10393:10512   */\n    tag_503:\n        /* \"#utility.yul\":10551:10552   */\n      0x00\n        /* \"#utility.yul\":10576:10650   */\n      tag_505\n        /* \"#utility.yul\":10642:10649   */\n      dup5\n        /* \"#utility.yul\":10633:10639   */\n      dup3\n        /* \"#utility.yul\":10622:10631   */\n      dup6\n        /* \"#utility.yul\":10618:10640   */\n      add\n        /* \"#utility.yul\":10576:10650   */\n      tag_360\n      jump\t// in\n    tag_505:\n        /* \"#utility.yul\":10566:10650   */\n      swap2\n      pop\n        /* \"#utility.yul\":10522:10660   */\n      pop\n        /* \"#utility.yul\":10296:10667   */\n      swap3\n      swap2\n      pop\n      pop\n      jump\t// out\n        /* \"#utility.yul\":10673:10842   */\n    tag_361:\n        /* \"#utility.yul\":10757:10768   */\n      0x00\n        /* \"#utility.yul\":10791:10797   */\n      dup3\n        /* \"#utility.yul\":10786:10789   */\n      dup3\n        /* \"#utility.yul\":10779:10798   */\n      mstore\n        /* \"#utility.yul\":10831:10835   */\n      0x20\n        /* \"#utility.yul\":10826:10829   */\n      dup3\n        /* \"#utility.yul\":10822:10836   */\n      add\n        /* \"#utility.yul\":10807:10836   */\n      swap1\n      pop\n        /* \"#utility.yul\":10673:10842   */\n      swap3\n      swap2\n      pop\n      pop\n      jump\t// out\n        /* \"#utility.yul\":10848:11026   */\n    tag_362:\n        /* \"#utility.yul\":10988:11018   */\n      0x436f6e747261637420737461747573206d757374206265206f70656e00000000\n        /* \"#utility.yul\":10984:10985   */\n      0x00\n        /* \"#utility.yul\":10976:10982   */\n      dup3\n        /* \"#utility.yul\":10972:10986   */\n      add\n        /* \"#utility.yul\":10965:11019   */\n      mstore\n        /* \"#utility.yul\":10848:11026   */\n      pop\n      jump\t// out\n        /* \"#utility.yul\":11032:11398   */\n    tag_363:\n        /* \"#utility.yul\":11174:11177   */\n      0x00\n        /* \"#utility.yul\":11195:11262   */\n      tag_509\n        /* \"#utility.yul\":11259:11261   */\n      0x1c\n        /* \"#utility.yul\":11254:11257   */\n      dup4\n        /* \"#utility.yul\":11195:11262   */\n      tag_361\n      jump\t// in\n    tag_509:\n        /* \"#utility.yul\":11188:11262   */\n      swap2\n      pop\n        /* \"#utility.yul\":11271:11364   */\n      tag_510\n        /* \"#utility.yul\":11360:11363   */\n      dup3\n        /* \"#utility.yul\":11271:11364   */\n      tag_362\n      jump\t// in\n    tag_510:\n        /* \"#utility.yul\":11389:11391   */\n      0x20\n        /* \"#utility.yul\":11384:11387   */\n      dup3\n        /* \"#utility.yul\":11380:11392   */\n      add\n        /* \"#utility.yul\":11373:11392   */\n      swap1\n      pop\n        /* \"#utility.yul\":11032:11398   */\n      swap2\n      swap1\n      pop\n      jump\t// out\n        /* \"#utility.yul\":11404:11823   */\n    tag_140:\n        /* \"#utility.yul\":11570:11574   */\n      0x00\n        /* \"#utility.yul\":11608:11610   */\n      0x20\n        /* \"#utility.yul\":11597:11606   */\n      dup3\n        /* \"#utility.yul\":11593:11611   */\n      add\n        /* \"#utility.yul\":11585:11611   */\n      swap1\n      pop\n        /* \"#utility.yul\":11657:11666   */\n      dup2\n        /* \"#utility.yul\":11651:11655   */\n      dup2\n        /* \"#utility.yul\":11647:11667   */\n      sub\n        /* \"#utility.yul\":11643:11644   */\n      0x00\n        /* \"#utility.yul\":11632:11641   */\n      dup4\n        /* \"#utility.yul\":11628:11645   */\n      add\n        /* \"#utility.yul\":11621:11668   */\n      mstore\n        /* \"#utility.yul\":11685:11816   */\n      tag_512\n        /* \"#utility.yul\":11811:11815   */\n      dup2\n        /* \"#utility.yul\":11685:11816   */\n      tag_363\n      jump\t// in\n    tag_512:\n        /* \"#utility.yul\":11677:11816   */\n      swap1\n      pop\n        /* \"#utility.yul\":11404:11823   */\n      swap2\n      swap1\n      pop\n      jump\t// out\n        /* \"#utility.yul\":11829:12061   */\n    tag_364:\n        /* \"#utility.yul\":11969:12003   */\n      0x436f6e74726163742072656665726565206d75737420657175616c2072657175\n        /* \"#utility.yul\":11965:11966   */\n      0x00\n        /* \"#utility.yul\":11957:11963   */\n      dup3\n        /* \"#utility.yul\":11953:11967   */\n      add\n        /* \"#utility.yul\":11946:12004   */\n      mstore\n        /* \"#utility.yul\":12038:12053   */\n      0x6573746564207265666572656500000000000000000000000000000000000000\n        /* \"#utility.yul\":12033:12035   */\n      0x20\n        /* \"#utility.yul\":12025:12031   */\n      dup3\n        /* \"#utility.yul\":12021:12036   */\n      add\n        /* \"#utility.yul\":12014:12054   */\n      mstore\n        /* \"#utility.yul\":11829:12061   */\n      pop\n      jump\t// out\n        /* \"#utility.yul\":12067:12433   */\n    tag_365:\n        /* \"#utility.yul\":12209:12212   */\n      0x00\n        /* \"#utility.yul\":12230:12297   */\n      tag_515\n        /* \"#utility.yul\":12294:12296   */\n      0x2d\n        /* \"#utility.yul\":12289:12292   */\n      dup4\n        /* \"#utility.yul\":12230:12297   */\n      tag_361\n      jump\t// in\n    tag_515:\n        /* \"#utility.yul\":12223:12297   */\n      swap2\n      pop\n        /* \"#utility.yul\":12306:12399   */\n      tag_516\n        /* \"#utility.yul\":12395:12398   */\n      dup3\n        /* \"#utility.yul\":12306:12399   */\n      tag_364\n      jump\t// in\n    tag_516:\n        /* \"#utility.yul\":12424:12426   */\n      0x40\n        /* \"#utility.yul\":12419:12422   */\n      dup3\n        /* \"#utility.yul\":12415:12427   */\n      add\n        /* \"#utility.yul\":12408:12427   */\n      swap1\n      pop\n        /* \"#utility.yul\":12067:12433   */\n      swap2\n      swap1\n      pop\n      jump\t// out\n        /* \"#utility.yul\":12439:12858   */\n    tag_146:\n        /* \"#utility.yul\":12605:12609   */\n      0x00\n        /* \"#utility.yul\":12643:12645   */\n      0x20\n        /* \"#utility.yul\":12632:12641   */\n      dup3\n        /* \"#utility.yul\":12628:12646   */\n      add\n        /* \"#utility.yul\":12620:12646   */\n      swap1\n      pop\n        /* \"#utility.yul\":12692:12701   */\n      dup2\n        /* \"#utility.yul\":12686:12690   */\n      dup2\n        /* \"#utility.yul\":12682:12702   */\n      sub\n        /* \"#utility.yul\":12678:12679   */\n      0x00\n        /* \"#utility.yul\":12667:12676   */\n      dup4\n        /* \"#utility.yul\":12663:12680   */\n      add\n        /* \"#utility.yul\":12656:12703   */\n      mstore\n        /* \"#utility.yul\":12720:12851   */\n      tag_518\n        /* \"#utility.yul\":12846:12850   */\n      dup2\n        /* \"#utility.yul\":12720:12851   */\n      tag_365\n      jump\t// in\n    tag_518:\n        /* \"#utility.yul\":12712:12851   */\n      swap1\n      pop\n        /* \"#utility.yul\":12439:12858   */\n      swap2\n      swap1\n      pop\n      jump\t// out\n        /* \"#utility.yul\":12864:13098   */\n    tag_366:\n        /* \"#utility.yul\":13004:13038   */\n      0x4f6e6c792063726561746f72206f6620636f6e74726163742063616e20726571\n        /* \"#utility.yul\":13000:13001   */\n      0x00\n        /* \"#utility.yul\":12992:12998   */\n      dup3\n        /* \"#utility.yul\":12988:13002   */\n      add\n        /* \"#utility.yul\":12981:13039   */\n      mstore\n        /* \"#utility.yul\":13073:13090   */\n      0x7565737420636f6d706c6574696f6e0000000000000000000000000000000000\n        /* \"#utility.yul\":13068:13070   */\n      0x20\n        /* \"#utility.yul\":13060:13066   */\n      dup3\n        /* \"#utility.yul\":13056:13071   */\n      add\n        /* \"#utility.yul\":13049:13091   */\n      mstore\n        /* \"#utility.yul\":12864:13098   */\n      pop\n      jump\t// out\n        /* \"#utility.yul\":13104:13470   */\n    tag_367:\n        /* \"#utility.yul\":13246:13249   */\n      0x00\n        /* \"#utility.yul\":13267:13334   */\n      tag_521\n        /* \"#utility.yul\":13331:13333   */\n      0x2f\n        /* \"#utility.yul\":13326:13329   */\n      dup4\n        /* \"#utility.yul\":13267:13334   */\n      tag_361\n      jump\t// in\n    tag_521:\n        /* \"#utility.yul\":13260:13334   */\n      swap2\n      pop\n        /* \"#utility.yul\":13343:13436   */\n      tag_522\n        /* \"#utility.yul\":13432:13435   */\n      dup3\n        /* \"#utility.yul\":13343:13436   */\n      tag_366\n      jump\t// in\n    tag_522:\n        /* \"#utility.yul\":13461:13463   */\n      0x40\n        /* \"#utility.yul\":13456:13459   */\n      dup3\n        /* \"#utility.yul\":13452:13464   */\n      add\n        /* \"#utility.yul\":13445:13464   */\n      swap1\n      pop\n        /* \"#utility.yul\":13104:13470   */\n      swap2\n      swap1\n      pop\n      jump\t// out\n        /* \"#utility.yul\":13476:13895   */\n    tag_149:\n        /* \"#utility.yul\":13642:13646   */\n      0x00\n        /* \"#utility.yul\":13680:13682   */\n      0x20\n        /* \"#utility.yul\":13669:13678   */\n      dup3\n        /* \"#utility.yul\":13665:13683   */\n      add\n        /* \"#utility.yul\":13657:13683   */\n      swap1\n      pop\n        /* \"#utility.yul\":13729:13738   */\n      dup2\n        /* \"#utility.yul\":13723:13727   */\n      dup2\n        /* \"#utility.yul\":13719:13739   */\n      sub\n        /* \"#utility.yul\":13715:13716   */\n      0x00\n        /* \"#utility.yul\":13704:13713   */\n      dup4\n        /* \"#utility.yul\":13700:13717   */\n      add\n        /* \"#utility.yul\":13693:13740   */\n      mstore\n        /* \"#utility.yul\":13757:13888   */\n      tag_524\n        /* \"#utility.yul\":13883:13887   */\n      dup2\n        /* \"#utility.yul\":13757:13888   */\n      tag_367\n      jump\t// in\n    tag_524:\n        /* \"#utility.yul\":13749:13888   */\n      swap1\n      pop\n        /* \"#utility.yul\":13476:13895   */\n      swap2\n      swap1\n      pop\n      jump\t// out\n        /* \"#utility.yul\":13901:14233   */\n    tag_153:\n        /* \"#utility.yul\":14022:14026   */\n      0x00\n        /* \"#utility.yul\":14060:14062   */\n      0x40\n        /* \"#utility.yul\":14049:14058   */\n      dup3\n        /* \"#utility.yul\":14045:14063   */\n      add\n        /* \"#utility.yul\":14037:14063   */\n      swap1\n      pop\n        /* \"#utility.yul\":14073:14144   */\n      tag_526\n        /* \"#utility.yul\":14141:14142   */\n      0x00\n        /* \"#utility.yul\":14130:14139   */\n      dup4\n        /* \"#utility.yul\":14126:14143   */\n      add\n        /* \"#utility.yul\":14117:14123   */\n      dup6\n        /* \"#utility.yul\":14073:14144   */\n      tag_344\n      jump\t// in\n    tag_526:\n        /* \"#utility.yul\":14154:14226   */\n      tag_527\n        /* \"#utility.yul\":14222:14224   */\n      0x20\n        /* \"#utility.yul\":14211:14220   */\n      dup4\n        /* \"#utility.yul\":14207:14225   */\n      add\n        /* \"#utility.yul\":14198:14204   */\n      dup5\n        /* \"#utility.yul\":14154:14226   */\n      tag_344\n      jump\t// in\n    tag_527:\n        /* \"#utility.yul\":13901:14233   */\n      swap4\n      swap3\n      pop\n      pop\n      pop\n      jump\t// out\n        /* \"#utility.yul\":14239:14419   */\n    tag_368:\n        /* \"#utility.yul\":14379:14411   */\n      0x537461727420696e6465782063616e6e6f74206265206e656761746976650000\n        /* \"#utility.yul\":14375:14376   */\n      0x00\n        /* \"#utility.yul\":14367:14373   */\n      dup3\n        /* \"#utility.yul\":14363:14377   */\n      add\n        /* \"#utility.yul\":14356:14412   */\n      mstore\n        /* \"#utility.yul\":14239:14419   */\n      pop\n      jump\t// out\n        /* \"#utility.yul\":14425:14791   */\n    tag_369:\n        /* \"#utility.yul\":14567:14570   */\n      0x00\n        /* \"#utility.yul\":14588:14655   */\n      tag_530\n        /* \"#utility.yul\":14652:14654   */\n      0x1e\n        /* \"#utility.yul\":14647:14650   */\n      dup4\n        /* \"#utility.yul\":14588:14655   */\n      tag_361\n      jump\t// in\n    tag_530:\n        /* \"#utility.yul\":14581:14655   */\n      swap2\n      pop\n        /* \"#utility.yul\":14664:14757   */\n      tag_531\n        /* \"#utility.yul\":14753:14756   */\n      dup3\n        /* \"#utility.yul\":14664:14757   */\n      tag_368\n      jump\t// in\n    tag_531:\n        /* \"#utility.yul\":14782:14784   */\n      0x20\n        /* \"#utility.yul\":14777:14780   */\n      dup3\n        /* \"#utility.yul\":14773:14785   */\n      add\n        /* \"#utility.yul\":14766:14785   */\n      swap1\n      pop\n        /* \"#utility.yul\":14425:14791   */\n      swap2\n      swap1\n      pop\n      jump\t// out\n        /* \"#utility.yul\":14797:15216   */\n    tag_159:\n        /* \"#utility.yul\":14963:14967   */\n      0x00\n        /* \"#utility.yul\":15001:15003   */\n      0x20\n        /* \"#utility.yul\":14990:14999   */\n      dup3\n        /* \"#utility.yul\":14986:15004   */\n      add\n        /* \"#utility.yul\":14978:15004   */\n      swap1\n      pop\n        /* \"#utility.yul\":15050:15059   */\n      dup2\n        /* \"#utility.yul\":15044:15048   */\n      dup2\n        /* \"#utility.yul\":15040:15060   */\n      sub\n        /* \"#utility.yul\":15036:15037   */\n      0x00\n        /* \"#utility.yul\":15025:15034   */\n      dup4\n        /* \"#utility.yul\":15021:15038   */\n      add\n        /* \"#utility.yul\":15014:15061   */\n      mstore\n        /* \"#utility.yul\":15078:15209   */\n      tag_533\n        /* \"#utility.yul\":15204:15208   */\n      dup2\n        /* \"#utility.yul\":15078:15209   */\n      tag_369\n      jump\t// in\n    tag_533:\n        /* \"#utility.yul\":15070:15209   */\n      swap1\n      pop\n        /* \"#utility.yul\":14797:15216   */\n      swap2\n      swap1\n      pop\n      jump\t// out\n        /* \"#utility.yul\":15222:15448   */\n    tag_370:\n        /* \"#utility.yul\":15362:15396   */\n      0x456e6420696e6465782065786365656473207573657220616464726573736573\n        /* \"#utility.yul\":15358:15359   */\n      0x00\n        /* \"#utility.yul\":15350:15356   */\n      dup3\n        /* \"#utility.yul\":15346:15360   */\n      add\n        /* \"#utility.yul\":15339:15397   */\n      mstore\n        /* \"#utility.yul\":15431:15440   */\n      0x206c656e67746800000000000000000000000000000000000000000000000000\n        /* \"#utility.yul\":15426:15428   */\n      0x20\n        /* \"#utility.yul\":15418:15424   */\n      dup3\n        /* \"#utility.yul\":15414:15429   */\n      add\n        /* \"#utility.yul\":15407:15441   */\n      mstore\n        /* \"#utility.yul\":15222:15448   */\n      pop\n      jump\t// out\n        /* \"#utility.yul\":15454:15820   */\n    tag_371:\n        /* \"#utility.yul\":15596:15599   */\n      0x00\n        /* \"#utility.yul\":15617:15684   */\n      tag_536\n        /* \"#utility.yul\":15681:15683   */\n      0x27\n        /* \"#utility.yul\":15676:15679   */\n      dup4\n        /* \"#utility.yul\":15617:15684   */\n      tag_361\n      jump\t// in\n    tag_536:\n        /* \"#utility.yul\":15610:15684   */\n      swap2\n      pop\n        /* \"#utility.yul\":15693:15786   */\n      tag_537\n        /* \"#utility.yul\":15782:15785   */\n      dup3\n        /* \"#utility.yul\":15693:15786   */\n      tag_370\n      jump\t// in\n    tag_537:\n        /* \"#utility.yul\":15811:15813   */\n      0x40\n        /* \"#utility.yul\":15806:15809   */\n      dup3\n        /* \"#utility.yul\":15802:15814   */\n      add\n        /* \"#utility.yul\":15795:15814   */\n      swap1\n      pop\n        /* \"#utility.yul\":15454:15820   */\n      swap2\n      swap1\n      pop\n      jump\t// out\n        /* \"#utility.yul\":15826:16245   */\n    tag_162:\n        /* \"#utility.yul\":15992:15996   */\n      0x00\n        /* \"#utility.yul\":16030:16032   */\n      0x20\n        /* \"#utility.yul\":16019:16028   */\n      dup3\n        /* \"#utility.yul\":16015:16033   */\n      add\n        /* \"#utility.yul\":16007:16033   */\n      swap1\n      pop\n        /* \"#utility.yul\":16079:16088   */\n      dup2\n        /* \"#utility.yul\":16073:16077   */\n      dup2\n        /* \"#utility.yul\":16069:16089   */\n      sub\n        /* \"#utility.yul\":16065:16066   */\n      0x00\n        /* \"#utility.yul\":16054:16063   */\n      dup4\n        /* \"#utility.yul\":16050:16067   */\n      add\n        /* \"#utility.yul\":16043:16090   */\n      mstore\n        /* \"#utility.yul\":16107:16238   */\n      tag_539\n        /* \"#utility.yul\":16233:16237   */\n      dup2\n        /* \"#utility.yul\":16107:16238   */\n      tag_371\n      jump\t// in\n    tag_539:\n        /* \"#utility.yul\":16099:16238   */\n      swap1\n      pop\n        /* \"#utility.yul\":15826:16245   */\n      swap2\n      swap1\n      pop\n      jump\t// out\n        /* \"#utility.yul\":16251:16431   */\n    tag_372:\n        /* \"#utility.yul\":16299:16376   */\n      0x4e487b7100000000000000000000000000000000000000000000000000000000\n        /* \"#utility.yul\":16296:16297   */\n      0x00\n        /* \"#utility.yul\":16289:16377   */\n      mstore\n        /* \"#utility.yul\":16396:16400   */\n      0x11\n        /* \"#utility.yul\":16393:16394   */\n      0x04\n        /* \"#utility.yul\":16386:16401   */\n      mstore\n        /* \"#utility.yul\":16420:16424   */\n      0x24\n        /* \"#utility.yul\":16417:16418   */\n      0x00\n        /* \"#utility.yul\":16410:16425   */\n      revert\n        /* \"#utility.yul\":16437:16628   */\n    tag_164:\n        /* \"#utility.yul\":16477:16481   */\n      0x00\n        /* \"#utility.yul\":16497:16517   */\n      tag_542\n        /* \"#utility.yul\":16515:16516   */\n      dup3\n        /* \"#utility.yul\":16497:16517   */\n      tag_334\n      jump\t// in\n    tag_542:\n        /* \"#utility.yul\":16492:16517   */\n      swap2\n      pop\n        /* \"#utility.yul\":16531:16551   */\n      tag_543\n        /* \"#utility.yul\":16549:16550   */\n      dup4\n        /* \"#utility.yul\":16531:16551   */\n      tag_334\n      jump\t// in\n    tag_543:\n        /* \"#utility.yul\":16526:16551   */\n      swap3\n      pop\n        /* \"#utility.yul\":16570:16571   */\n      dup3\n        /* \"#utility.yul\":16567:16568   */\n      dup3\n        /* \"#utility.yul\":16564:16572   */\n      lt\n        /* \"#utility.yul\":16561:16595   */\n      iszero\n      tag_544\n      jumpi\n        /* \"#utility.yul\":16575:16593   */\n      tag_545\n      tag_372\n      jump\t// in\n    tag_545:\n        /* \"#utility.yul\":16561:16595   */\n    tag_544:\n        /* \"#utility.yul\":16620:16621   */\n      dup3\n        /* \"#utility.yul\":16617:16618   */\n      dup3\n        /* \"#utility.yul\":16613:16622   */\n      sub\n        /* \"#utility.yul\":16605:16622   */\n      swap1\n      pop\n        /* \"#utility.yul\":16437:16628   */\n      swap3\n      swap2\n      pop\n      pop\n      jump\t// out\n        /* \"#utility.yul\":16634:16814   */\n    tag_174:\n        /* \"#utility.yul\":16682:16759   */\n      0x4e487b7100000000000000000000000000000000000000000000000000000000\n        /* \"#utility.yul\":16679:16680   */\n      0x00\n        /* \"#utility.yul\":16672:16760   */\n      mstore\n        /* \"#utility.yul\":16779:16783   */\n      0x32\n        /* \"#utility.yul\":16776:16777   */\n      0x04\n        /* \"#utility.yul\":16769:16784   */\n      mstore\n        /* \"#utility.yul\":16803:16807   */\n      0x24\n        /* \"#utility.yul\":16800:16801   */\n      0x00\n        /* \"#utility.yul\":16793:16808   */\n      revert\n        /* \"#utility.yul\":16820:17053   */\n    tag_179:\n        /* \"#utility.yul\":16859:16862   */\n      0x00\n        /* \"#utility.yul\":16882:16906   */\n      tag_548\n        /* \"#utility.yul\":16900:16905   */\n      dup3\n        /* \"#utility.yul\":16882:16906   */\n      tag_334\n      jump\t// in\n    tag_548:\n        /* \"#utility.yul\":16873:16906   */\n      swap2\n      pop\n        /* \"#utility.yul\":16928:16994   */\n      0xffffffffffffffffffffffffffffffffffffffffffffffffffffffffffffffff\n        /* \"#utility.yul\":16921:16926   */\n      dup3\n        /* \"#utility.yul\":16918:16995   */\n      eq\n        /* \"#utility.yul\":16915:17018   */\n      iszero\n      tag_549\n      jumpi\n        /* \"#utility.yul\":16998:17016   */\n      tag_550\n      tag_372\n      jump\t// in\n    tag_550:\n        /* \"#utility.yul\":16915:17018   */\n    tag_549:\n        /* \"#utility.yul\":17045:17046   */\n      0x01\n        /* \"#utility.yul\":17038:17043   */\n      dup3\n        /* \"#utility.yul\":17034:17047   */\n      add\n        /* \"#utility.yul\":17027:17047   */\n      swap1\n      pop\n        /* \"#utility.yul\":16820:17053   */\n      swap2\n      swap1\n      pop\n      jump\t// out\n        /* \"#utility.yul\":17059:17185   */\n    tag_373:\n        /* \"#utility.yul\":17126:17133   */\n      0x00\n        /* \"#utility.yul\":17155:17179   */\n      tag_552\n        /* \"#utility.yul\":17173:17178   */\n      dup3\n        /* \"#utility.yul\":17155:17179   */\n      tag_331\n      jump\t// in\n    tag_552:\n        /* \"#utility.yul\":17144:17179   */\n      swap1\n      pop\n        /* \"#utility.yul\":17059:17185   */\n      swap2\n      swap1\n      pop\n      jump\t// out\n        /* \"#utility.yul\":17191:17373   */\n    tag_374:\n        /* \"#utility.yul\":17294:17348   */\n      tag_554\n        /* \"#utility.yul\":17342:17347   */\n      dup2\n        /* \"#utility.yul\":17294:17348   */\n      tag_373\n      jump\t// in\n    tag_554:\n        /* \"#utility.yul\":17287:17292   */\n      dup2\n        /* \"#utility.yul\":17284:17349   */\n      eq\n        /* \"#utility.yul\":17274:17367   */\n      tag_555\n      jumpi\n        /* \"#utility.yul\":17363:17364   */\n      0x00\n        /* \"#utility.yul\":17360:17361   */\n      dup1\n        /* \"#utility.yul\":17353:17365   */\n      revert\n        /* \"#utility.yul\":17274:17367   */\n    tag_555:\n        /* \"#utility.yul\":17191:17373   */\n      pop\n      jump\t// out\n        /* \"#utility.yul\":17379:17582   */\n    tag_375:\n        /* \"#utility.yul\":17466:17471   */\n      0x00\n        /* \"#utility.yul\":17497:17503   */\n      dup2\n        /* \"#utility.yul\":17491:17504   */\n      mload\n        /* \"#utility.yul\":17482:17504   */\n      swap1\n      pop\n        /* \"#utility.yul\":17513:17576   */\n      tag_557\n        /* \"#utility.yul\":17570:17575   */\n      dup2\n        /* \"#utility.yul\":17513:17576   */\n      tag_374\n      jump\t// in\n    tag_557:\n        /* \"#utility.yul\":17379:17582   */\n      swap3\n      swap2\n      pop\n      pop\n      jump\t// out\n        /* \"#utility.yul\":17588:17999   */\n    tag_194:\n        /* \"#utility.yul\":17688:17694   */\n      0x00\n        /* \"#utility.yul\":17737:17739   */\n      0x20\n        /* \"#utility.yul\":17725:17734   */\n      dup3\n        /* \"#utility.yul\":17716:17723   */\n      dup5\n        /* \"#utility.yul\":17712:17735   */\n      sub\n        /* \"#utility.yul\":17708:17740   */\n      slt\n        /* \"#utility.yul\":17705:17824   */\n      iszero\n      tag_559\n      jumpi\n        /* \"#utility.yul\":17743:17822   */\n      tag_560\n      tag_328\n      jump\t// in\n    tag_560:\n        /* \"#utility.yul\":17705:17824   */\n    tag_559:\n        /* \"#utility.yul\":17863:17864   */\n      0x00\n        /* \"#utility.yul\":17888:17982   */\n      tag_561\n        /* \"#utility.yul\":17974:17981   */\n      dup5\n        /* \"#utility.yul\":17965:17971   */\n      dup3\n        /* \"#utility.yul\":17954:17963   */\n      dup6\n        /* \"#utility.yul\":17950:17972   */\n      add\n        /* \"#utility.yul\":17888:17982   */\n      tag_375\n      jump\t// in\n    tag_561:\n        /* \"#utility.yul\":17878:17982   */\n      swap2\n      pop\n        /* \"#utility.yul\":17834:17992   */\n      pop\n        /* \"#utility.yul\":17588:17999   */\n      swap3\n      swap2\n      pop\n      pop\n      jump\t// out\n        /* \"#utility.yul\":18005:18104   */\n    tag_376:\n        /* \"#utility.yul\":18057:18063   */\n      0x00\n        /* \"#utility.yul\":18091:18096   */\n      dup2\n        /* \"#utility.yul\":18085:18097   */\n      mload\n        /* \"#utility.yul\":18075:18097   */\n      swap1\n      pop\n        /* \"#utility.yul\":18005:18104   */\n      swap2\n      swap1\n      pop\n      jump\t// out\n        /* \"#utility.yul\":18110:18417   */\n    tag_377:\n        /* \"#utility.yul\":18178:18179   */\n      0x00\n        /* \"#utility.yul\":18188:18301   */\n    tag_564:\n        /* \"#utility.yul\":18202:18208   */\n      dup4\n        /* \"#utility.yul\":18199:18200   */\n      dup2\n        /* \"#utility.yul\":18196:18209   */\n      lt\n        /* \"#utility.yul\":18188:18301   */\n      iszero\n      tag_566\n      jumpi\n        /* \"#utility.yul\":18287:18288   */\n      dup1\n        /* \"#utility.yul\":18282:18285   */\n      dup3\n        /* \"#utility.yul\":18278:18289   */\n      add\n        /* \"#utility.yul\":18272:18290   */\n      mload\n        /* \"#utility.yul\":18268:18269   */\n      dup2\n        /* \"#utility.yul\":18263:18266   */\n      dup5\n        /* \"#utility.yul\":18259:18270   */\n      add\n        /* \"#utility.yul\":18252:18291   */\n      mstore\n        /* \"#utility.yul\":18224:18226   */\n      0x20\n        /* \"#utility.yul\":18221:18222   */\n      dup2\n        /* \"#utility.yul\":18217:18227   */\n      add\n        /* \"#utility.yul\":18212:18227   */\n      swap1\n      pop\n        /* \"#utility.yul\":18188:18301   */\n      jump(tag_564)\n    tag_566:\n        /* \"#utility.yul\":18319:18325   */\n      dup4\n        /* \"#utility.yul\":18316:18317   */\n      dup2\n        /* \"#utility.yul\":18313:18326   */\n      gt\n        /* \"#utility.yul\":18310:18411   */\n      iszero\n      tag_567\n      jumpi\n        /* \"#utility.yul\":18399:18400   */\n      0x00\n        /* \"#utility.yul\":18390:18396   */\n      dup5\n        /* \"#utility.yul\":18385:18388   */\n      dup5\n        /* \"#utility.yul\":18381:18397   */\n      add\n        /* \"#utility.yul\":18374:18401   */\n      mstore\n        /* \"#utility.yul\":18310:18411   */\n    tag_567:\n        /* \"#utility.yul\":18159:18417   */\n      pop\n        /* \"#utility.yul\":18110:18417   */\n      pop\n      pop\n      pop\n      jump\t// out\n        /* \"#utility.yul\":18423:18787   */\n    tag_378:\n        /* \"#utility.yul\":18511:18514   */\n      0x00\n        /* \"#utility.yul\":18539:18578   */\n      tag_569\n        /* \"#utility.yul\":18572:18577   */\n      dup3\n        /* \"#utility.yul\":18539:18578   */\n      tag_376\n      jump\t// in\n    tag_569:\n        /* \"#utility.yul\":18594:18665   */\n      tag_570\n        /* \"#utility.yul\":18658:18664   */\n      dup2\n        /* \"#utility.yul\":18653:18656   */\n      dup6\n        /* \"#utility.yul\":18594:18665   */\n      tag_361\n      jump\t// in\n    tag_570:\n        /* \"#utility.yul\":18587:18665   */\n      swap4\n      pop\n        /* \"#utility.yul\":18674:18726   */\n      tag_571\n        /* \"#utility.yul\":18719:18725   */\n      dup2\n        /* \"#utility.yul\":18714:18717   */\n      dup6\n        /* \"#utility.yul\":18707:18711   */\n      0x20\n        /* \"#utility.yul\":18700:18705   */\n      dup7\n        /* \"#utility.yul\":18696:18712   */\n      add\n        /* \"#utility.yul\":18674:18726   */\n      tag_377\n      jump\t// in\n    tag_571:\n        /* \"#utility.yul\":18751:18780   */\n      tag_572\n        /* \"#utility.yul\":18773:18779   */\n      dup2\n        /* \"#utility.yul\":18751:18780   */\n      tag_348\n      jump\t// in\n    tag_572:\n        /* \"#utility.yul\":18746:18749   */\n      dup5\n        /* \"#utility.yul\":18742:18781   */\n      add\n        /* \"#utility.yul\":18735:18781   */\n      swap2\n      pop\n        /* \"#utility.yul\":18515:18787   */\n      pop\n        /* \"#utility.yul\":18423:18787   */\n      swap3\n      swap2\n      pop\n      pop\n      jump\t// out\n        /* \"#utility.yul\":18793:18853   */\n    tag_379:\n        /* \"#utility.yul\":18821:18824   */\n      0x00\n        /* \"#utility.yul\":18842:18847   */\n      dup2\n        /* \"#utility.yul\":18835:18847   */\n      swap1\n      pop\n        /* \"#utility.yul\":18793:18853   */\n      swap2\n      swap1\n      pop\n      jump\t// out\n        /* \"#utility.yul\":18859:19001   */\n    tag_380:\n        /* \"#utility.yul\":18909:18918   */\n      0x00\n        /* \"#utility.yul\":18942:18995   */\n      tag_575\n        /* \"#utility.yul\":18960:18994   */\n      tag_576\n        /* \"#utility.yul\":18969:18993   */\n      tag_577\n        /* \"#utility.yul\":18987:18992   */\n      dup5\n        /* \"#utility.yul\":18969:18993   */\n      tag_330\n      jump\t// in\n    tag_577:\n        /* \"#utility.yul\":18960:18994   */\n      tag_379\n      jump\t// in\n    tag_576:\n        /* \"#utility.yul\":18942:18995   */\n      tag_330\n      jump\t// in\n    tag_575:\n        /* \"#utility.yul\":18929:18995   */\n      swap1\n      pop\n        /* \"#utility.yul\":18859:19001   */\n      swap2\n      swap1\n      pop\n      jump\t// out\n        /* \"#utility.yul\":19007:19133   */\n    tag_381:\n        /* \"#utility.yul\":19057:19066   */\n      0x00\n        /* \"#utility.yul\":19090:19127   */\n      tag_579\n        /* \"#utility.yul\":19121:19126   */\n      dup3\n        /* \"#utility.yul\":19090:19127   */\n      tag_380\n      jump\t// in\n    tag_579:\n        /* \"#utility.yul\":19077:19127   */\n      swap1\n      pop\n        /* \"#utility.yul\":19007:19133   */\n      swap2\n      swap1\n      pop\n      jump\t// out\n        /* \"#utility.yul\":19139:19273   */\n    tag_382:\n        /* \"#utility.yul\":19197:19206   */\n      0x00\n        /* \"#utility.yul\":19230:19267   */\n      tag_581\n        /* \"#utility.yul\":19261:19266   */\n      dup3\n        /* \"#utility.yul\":19230:19267   */\n      tag_381\n      jump\t// in\n    tag_581:\n        /* \"#utility.yul\":19217:19267   */\n      swap1\n      pop\n        /* \"#utility.yul\":19139:19273   */\n      swap2\n      swap1\n      pop\n      jump\t// out\n        /* \"#utility.yul\":19279:19426   */\n    tag_383:\n        /* \"#utility.yul\":19374:19419   */\n      tag_583\n        /* \"#utility.yul\":19413:19418   */\n      dup2\n        /* \"#utility.yul\":19374:19419   */\n      tag_382\n      jump\t// in\n    tag_583:\n        /* \"#utility.yul\":19369:19372   */\n      dup3\n        /* \"#utility.yul\":19362:19420   */\n      mstore\n        /* \"#utility.yul\":19279:19426   */\n      pop\n      pop\n      jump\t// out\n        /* \"#utility.yul\":19432:20405   */\n    tag_250:\n        /* \"#utility.yul\":19713:19717   */\n      0x00\n        /* \"#utility.yul\":19751:19754   */\n      0xc0\n        /* \"#utility.yul\":19740:19749   */\n      dup3\n        /* \"#utility.yul\":19736:19755   */\n      add\n        /* \"#utility.yul\":19728:19755   */\n      swap1\n      pop\n        /* \"#utility.yul\":19765:19836   */\n      tag_585\n        /* \"#utility.yul\":19833:19834   */\n      0x00\n        /* \"#utility.yul\":19822:19831   */\n      dup4\n        /* \"#utility.yul\":19818:19835   */\n      add\n        /* \"#utility.yul\":19809:19815   */\n      dup10\n        /* \"#utility.yul\":19765:19836   */\n      tag_344\n      jump\t// in\n    tag_585:\n        /* \"#utility.yul\":19846:19918   */\n      tag_586\n        /* \"#utility.yul\":19914:19916   */\n      0x20\n        /* \"#utility.yul\":19903:19912   */\n      dup4\n        /* \"#utility.yul\":19899:19917   */\n      add\n        /* \"#utility.yul\":19890:19896   */\n      dup9\n        /* \"#utility.yul\":19846:19918   */\n      tag_344\n      jump\t// in\n    tag_586:\n        /* \"#utility.yul\":19965:19974   */\n      dup2\n        /* \"#utility.yul\":19959:19963   */\n      dup2\n        /* \"#utility.yul\":19955:19975   */\n      sub\n        /* \"#utility.yul\":19950:19952   */\n      0x40\n        /* \"#utility.yul\":19939:19948   */\n      dup4\n        /* \"#utility.yul\":19935:19953   */\n      add\n        /* \"#utility.yul\":19928:19976   */\n      mstore\n        /* \"#utility.yul\":19993:20071   */\n      tag_587\n        /* \"#utility.yul\":20066:20070   */\n      dup2\n        /* \"#utility.yul\":20057:20063   */\n      dup8\n        /* \"#utility.yul\":19993:20071   */\n      tag_378\n      jump\t// in\n    tag_587:\n        /* \"#utility.yul\":19985:20071   */\n      swap1\n      pop\n        /* \"#utility.yul\":20118:20127   */\n      dup2\n        /* \"#utility.yul\":20112:20116   */\n      dup2\n        /* \"#utility.yul\":20108:20128   */\n      sub\n        /* \"#utility.yul\":20103:20105   */\n      0x60\n        /* \"#utility.yul\":20092:20101   */\n      dup4\n        /* \"#utility.yul\":20088:20106   */\n      add\n        /* \"#utility.yul\":20081:20129   */\n      mstore\n        /* \"#utility.yul\":20146:20224   */\n      tag_588\n        /* \"#utility.yul\":20219:20223   */\n      dup2\n        /* \"#utility.yul\":20210:20216   */\n      dup7\n        /* \"#utility.yul\":20146:20224   */\n      tag_378\n      jump\t// in\n    tag_588:\n        /* \"#utility.yul\":20138:20224   */\n      swap1\n      pop\n        /* \"#utility.yul\":20234:20315   */\n      tag_589\n        /* \"#utility.yul\":20310:20313   */\n      0x80\n        /* \"#utility.yul\":20299:20308   */\n      dup4\n        /* \"#utility.yul\":20295:20314   */\n      add\n        /* \"#utility.yul\":20286:20292   */\n      dup6\n        /* \"#utility.yul\":20234:20315   */\n      tag_383\n      jump\t// in\n    tag_589:\n        /* \"#utility.yul\":20325:20398   */\n      tag_590\n        /* \"#utility.yul\":20393:20396   */\n      0xa0\n        /* \"#utility.yul\":20382:20391   */\n      dup4\n        /* \"#utility.yul\":20378:20397   */\n      add\n        /* \"#utility.yul\":20369:20375   */\n      dup5\n        /* \"#utility.yul\":20325:20398   */\n      tag_345\n      jump\t// in\n    tag_590:\n        /* \"#utility.yul\":19432:20405   */\n      swap8\n      swap7\n      pop\n      pop\n      pop\n      pop\n      pop\n      pop\n      pop\n      jump\t// out\n        /* \"#utility.yul\":20411:20716   */\n    tag_255:\n        /* \"#utility.yul\":20451:20454   */\n      0x00\n        /* \"#utility.yul\":20470:20490   */\n      tag_592\n        /* \"#utility.yul\":20488:20489   */\n      dup3\n        /* \"#utility.yul\":20470:20490   */\n      tag_334\n      jump\t// in\n    tag_592:\n        /* \"#utility.yul\":20465:20490   */\n      swap2\n      pop\n        /* \"#utility.yul\":20504:20524   */\n      tag_593\n        /* \"#utility.yul\":20522:20523   */\n      dup4\n        /* \"#utility.yul\":20504:20524   */\n      tag_334\n      jump\t// in\n    tag_593:\n        /* \"#utility.yul\":20499:20524   */\n      swap3\n      pop\n        /* \"#utility.yul\":20658:20659   */\n      dup3\n        /* \"#utility.yul\":20590:20656   */\n      0xffffffffffffffffffffffffffffffffffffffffffffffffffffffffffffffff\n        /* \"#utility.yul\":20586:20660   */\n      sub\n        /* \"#utility.yul\":20583:20584   */\n      dup3\n        /* \"#utility.yul\":20580:20661   */\n      gt\n        /* \"#utility.yul\":20577:20684   */\n      iszero\n      tag_594\n      jumpi\n        /* \"#utility.yul\":20664:20682   */\n      tag_595\n      tag_372\n      jump\t// in\n    tag_595:\n        /* \"#utility.yul\":20577:20684   */\n    tag_594:\n        /* \"#utility.yul\":20708:20709   */\n      dup3\n        /* \"#utility.yul\":20705:20706   */\n      dup3\n        /* \"#utility.yul\":20701:20710   */\n      add\n        /* \"#utility.yul\":20694:20710   */\n      swap1\n      pop\n        /* \"#utility.yul\":20411:20716   */\n      swap3\n      swap2\n      pop\n      pop\n      jump\t// out\n        /* \"#utility.yul\":20722:20902   */\n    tag_282:\n        /* \"#utility.yul\":20770:20847   */\n      0x4e487b7100000000000000000000000000000000000000000000000000000000\n        /* \"#utility.yul\":20767:20768   */\n      0x00\n        /* \"#utility.yul\":20760:20848   */\n      mstore\n        /* \"#utility.yul\":20867:20871   */\n      0x31\n        /* \"#utility.yul\":20864:20865   */\n      0x04\n        /* \"#utility.yul\":20857:20872   */\n      mstore\n        /* \"#utility.yul\":20891:20895   */\n      0x24\n        /* \"#utility.yul\":20888:20889   */\n      0x00\n        /* \"#utility.yul\":20881:20896   */\n      revert\n    stop\n\n    sub_0: assembly {\n            /* \"Contracts\":7888:8279  contract AccountabilityContractApprovalRequest {... */\n          mstore(0x40, 0x80)\n            /* \"Contracts\":8079:8277  constructor(address _user, address _accountabilityContractAddress) {... */\n          callvalue\n          dup1\n          iszero\n          tag_1\n          jumpi\n          0x00\n          dup1\n          revert\n        tag_1:\n          pop\n          mload(0x40)\n          sub(codesize, bytecodeSize)\n          dup1\n          bytecodeSize\n          dup4\n          codecopy\n          dup2\n          dup2\n          add\n          0x40\n          mstore\n          dup2\n          add\n          swap1\n          tag_2\n          swap2\n          swap1\n          tag_3\n          jump\t// in\n        tag_2:\n            /* \"Contracts\":8163:8168  _user */\n          dup2\n            /* \"Contracts\":8156:8160  user */\n          0x00\n          dup1\n            /* \"Contracts\":8156:8168  user = _user */\n          0x0100\n          exp\n          dup2\n          sload\n          dup2\n          0xffffffffffffffffffffffffffffffffffffffff\n          mul\n          not\n          and\n          swap1\n          dup4\n          0xffffffffffffffffffffffffffffffffffffffff\n          and\n          mul\n          or\n          swap1\n          sstore\n          pop\n            /* \"Contracts\":8210:8240  _accountabilityContractAddress */\n          dup1\n            /* \"Contracts\":8178:8207  accountabilityContractAddress */\n          0x01\n          0x00\n            /* \"Contracts\":8178:8240  accountabilityContractAddress = _accountabilityContractAddress */\n          0x0100\n          exp\n          dup2\n          sload\n          dup2\n          0xffffffffffffffffffffffffffffffffffffffff\n          mul\n          not\n          and\n          swap1\n          dup4\n          0xffffffffffffffffffffffffffffffffffffffff\n          and\n          mul\n          or\n          swap1\n          sstore\n          pop\n            /* \"Contracts\":8259:8270  Status.OPEN */\n          0x00\n            /* \"Contracts\":8250:8256  status */\n          0x01\n          0x14\n            /* \"Contracts\":8250:8270  status = Status.OPEN */\n          0x0100\n          exp\n          dup2\n          sload\n          dup2\n          0xff\n          mul\n          not\n          and\n          swap1\n          dup4\n          0x01\n          dup2\n          gt\n          iszero\n          tag_6\n          jumpi\n          tag_7\n          tag_8\n          jump\t// in\n        tag_7:\n        tag_6:\n          mul\n          or\n          swap1\n          sstore\n          pop\n            /* \"Contracts\":8079:8277  constructor(address _user, address _accountabilityContractAddress) {... */\n          pop\n          pop\n            /* \"Contracts\":7888:8279  contract AccountabilityContractApprovalRequest {... */\n          jump(tag_9)\n            /* \"#utility.yul\":88:205   */\n        tag_11:\n            /* \"#utility.yul\":197:198   */\n          0x00\n            /* \"#utility.yul\":194:195   */\n          dup1\n            /* \"#utility.yul\":187:199   */\n          revert\n            /* \"#utility.yul\":334:460   */\n        tag_13:\n            /* \"#utility.yul\":371:378   */\n          0x00\n            /* \"#utility.yul\":411:453   */\n          0xffffffffffffffffffffffffffffffffffffffff\n            /* \"#utility.yul\":404:409   */\n          dup3\n            /* \"#utility.yul\":400:454   */\n          and\n            /* \"#utility.yul\":389:454   */\n          swap1\n          pop\n            /* \"#utility.yul\":334:460   */\n          swap2\n          swap1\n          pop\n          jump\t// out\n            /* \"#utility.yul\":466:562   */\n        tag_14:\n            /* \"#utility.yul\":503:510   */\n          0x00\n            /* \"#utility.yul\":532:556   */\n          tag_23\n            /* \"#utility.yul\":550:555   */\n          dup3\n            /* \"#utility.yul\":532:556   */\n          tag_13\n          jump\t// in\n        tag_23:\n            /* \"#utility.yul\":521:556   */\n          swap1\n          pop\n            /* \"#utility.yul\":466:562   */\n          swap2\n          swap1\n          pop\n          jump\t// out\n            /* \"#utility.yul\":568:690   */\n        tag_15:\n            /* \"#utility.yul\":641:665   */\n          tag_25\n            /* \"#utility.yul\":659:664   */\n          dup2\n            /* \"#utility.yul\":641:665   */\n          tag_14\n          jump\t// in\n        tag_25:\n            /* \"#utility.yul\":634:639   */\n          dup2\n            /* \"#utility.yul\":631:666   */\n          eq\n            /* \"#utility.yul\":621:684   */\n          tag_26\n          jumpi\n            /* \"#utility.yul\":680:681   */\n          0x00\n            /* \"#utility.yul\":677:678   */\n          dup1\n            /* \"#utility.yul\":670:682   */\n          revert\n            /* \"#utility.yul\":621:684   */\n        tag_26:\n            /* \"#utility.yul\":568:690   */\n          pop\n          jump\t// out\n            /* \"#utility.yul\":696:839   */\n        tag_16:\n            /* \"#utility.yul\":753:758   */\n          0x00\n            /* \"#utility.yul\":784:790   */\n          dup2\n            /* \"#utility.yul\":778:791   */\n          mload\n            /* \"#utility.yul\":769:791   */\n          swap1\n          pop\n            /* \"#utility.yul\":800:833   */\n          tag_28\n            /* \"#utility.yul\":827:832   */\n          dup2\n            /* \"#utility.yul\":800:833   */\n          tag_15\n          jump\t// in\n        tag_28:\n            /* \"#utility.yul\":696:839   */\n          swap3\n          swap2\n          pop\n          pop\n          jump\t// out\n            /* \"#utility.yul\":845:1352   */\n        tag_3:\n            /* \"#utility.yul\":924:930   */\n          0x00\n            /* \"#utility.yul\":932:938   */\n          dup1\n            /* \"#utility.yul\":981:983   */\n          0x40\n            /* \"#utility.yul\":969:978   */\n          dup4\n            /* \"#utility.yul\":960:967   */\n          dup6\n            /* \"#utility.yul\":956:979   */\n          sub\n            /* \"#utility.yul\":952:984   */\n          slt\n            /* \"#utility.yul\":949:1068   */\n          iszero\n          tag_30\n          jumpi\n            /* \"#utility.yul\":987:1066   */\n          tag_31\n          tag_11\n          jump\t// in\n        tag_31:\n            /* \"#utility.yul\":949:1068   */\n        tag_30:\n            /* \"#utility.yul\":1107:1108   */\n          0x00\n            /* \"#utility.yul\":1132:1196   */\n          tag_32\n            /* \"#utility.yul\":1188:1195   */\n          dup6\n            /* \"#utility.yul\":1179:1185   */\n          dup3\n            /* \"#utility.yul\":1168:1177   */\n          dup7\n            /* \"#utility.yul\":1164:1186   */\n          add\n            /* \"#utility.yul\":1132:1196   */\n          tag_16\n          jump\t// in\n        tag_32:\n            /* \"#utility.yul\":1122:1196   */\n          swap3\n          pop\n            /* \"#utility.yul\":1078:1206   */\n          pop\n            /* \"#utility.yul\":1245:1247   */\n          0x20\n            /* \"#utility.yul\":1271:1335   */\n          tag_33\n            /* \"#utility.yul\":1327:1334   */\n          dup6\n            /* \"#utility.yul\":1318:1324   */\n          dup3\n            /* \"#utility.yul\":1307:1316   */\n          dup7\n            /* \"#utility.yul\":1303:1325   */\n          add\n            /* \"#utility.yul\":1271:1335   */\n          tag_16\n          jump\t// in\n        tag_33:\n            /* \"#utility.yul\":1261:1335   */\n          swap2\n          pop\n            /* \"#utility.yul\":1216:1345   */\n          pop\n            /* \"#utility.yul\":845:1352   */\n          swap3\n          pop\n          swap3\n          swap1\n          pop\n          jump\t// out\n            /* \"#utility.yul\":1358:1538   */\n        tag_8:\n            /* \"#utility.yul\":1406:1483   */\n          0x4e487b7100000000000000000000000000000000000000000000000000000000\n            /* \"#utility.yul\":1403:1404   */\n          0x00\n            /* \"#utility.yul\":1396:1484   */\n          mstore\n            /* \"#utility.yul\":1503:1507   */\n          0x21\n            /* \"#utility.yul\":1500:1501   */\n          0x04\n            /* \"#utility.yul\":1493:1508   */\n          mstore\n            /* \"#utility.yul\":1527:1531   */\n          0x24\n            /* \"#utility.yul\":1524:1525   */\n          0x00\n            /* \"#utility.yul\":1517:1532   */\n          revert\n            /* \"Contracts\":7888:8279  contract AccountabilityContractApprovalRequest {... */\n        tag_9:\n          dataSize(sub_0)\n          dup1\n          dataOffset(sub_0)\n          0x00\n          codecopy\n          0x00\n          return\n        stop\n\n        sub_0: assembly {\n                /* \"Contracts\":7888:8279  contract AccountabilityContractApprovalRequest {... */\n              mstore(0x40, 0x80)\n              callvalue\n              dup1\n              iszero\n              tag_1\n              jumpi\n              0x00\n              dup1\n              revert\n            tag_1:\n              pop\n              jumpi(tag_2, lt(calldatasize, 0x04))\n              shr(0xe0, calldataload(0x00))\n              dup1\n              0x200d2ed2\n              eq\n              tag_3\n              jumpi\n              dup1\n              0x3c490174\n              eq\n              tag_4\n              jumpi\n              dup1\n              0x4f8632ba\n              eq\n              tag_5\n              jumpi\n            tag_2:\n              0x00\n              dup1\n              revert\n                /* \"Contracts\":8048:8068  Status public status */\n            tag_3:\n              tag_6\n              tag_7\n              jump\t// in\n            tag_6:\n              mload(0x40)\n              tag_8\n              swap2\n              swap1\n              tag_9\n              jump\t// in\n            tag_8:\n              mload(0x40)\n              dup1\n              swap2\n              sub\n              swap1\n              return\n                /* \"Contracts\":7966:8010  address public accountabilityContractAddress */\n            tag_4:\n              tag_10\n              tag_11\n              jump\t// in\n            tag_10:\n              mload(0x40)\n              tag_12\n              swap2\n              swap1\n              tag_13\n              jump\t// in\n            tag_12:\n              mload(0x40)\n              dup1\n              swap2\n              sub\n              swap1\n              return\n                /* \"Contracts\":7941:7960  address public user */\n            tag_5:\n              tag_14\n              tag_15\n              jump\t// in\n            tag_14:\n              mload(0x40)\n              tag_16\n              swap2\n              swap1\n              tag_13\n              jump\t// in\n            tag_16:\n              mload(0x40)\n              dup1\n              swap2\n              sub\n              swap1\n              return\n                /* \"Contracts\":8048:8068  Status public status */\n            tag_7:\n              0x01\n              0x14\n              swap1\n              sload\n              swap1\n              0x0100\n              exp\n              swap1\n              div\n              0xff\n              and\n              dup2\n              jump\t// out\n                /* \"Contracts\":7966:8010  address public accountabilityContractAddress */\n            tag_11:\n              0x01\n              0x00\n              swap1\n              sload\n              swap1\n              0x0100\n              exp\n              swap1\n              div\n              0xffffffffffffffffffffffffffffffffffffffff\n              and\n              dup2\n              jump\t// out\n                /* \"Contracts\":7941:7960  address public user */\n            tag_15:\n              0x00\n              dup1\n              sload\n              swap1\n              0x0100\n              exp\n              swap1\n              div\n              0xffffffffffffffffffffffffffffffffffffffff\n              and\n              dup2\n              jump\t// out\n                /* \"#utility.yul\":7:187   */\n            tag_17:\n                /* \"#utility.yul\":55:132   */\n              0x4e487b7100000000000000000000000000000000000000000000000000000000\n                /* \"#utility.yul\":52:53   */\n              0x00\n                /* \"#utility.yul\":45:133   */\n              mstore\n                /* \"#utility.yul\":152:156   */\n              0x21\n                /* \"#utility.yul\":149:150   */\n              0x04\n                /* \"#utility.yul\":142:157   */\n              mstore\n                /* \"#utility.yul\":176:180   */\n              0x24\n                /* \"#utility.yul\":173:174   */\n              0x00\n                /* \"#utility.yul\":166:181   */\n              revert\n                /* \"#utility.yul\":193:308   */\n            tag_18:\n                /* \"#utility.yul\":276:277   */\n              0x02\n                /* \"#utility.yul\":269:274   */\n              dup2\n                /* \"#utility.yul\":266:278   */\n              lt\n                /* \"#utility.yul\":256:302   */\n              tag_28\n              jumpi\n                /* \"#utility.yul\":282:300   */\n              tag_29\n              tag_17\n              jump\t// in\n            tag_29:\n                /* \"#utility.yul\":256:302   */\n            tag_28:\n                /* \"#utility.yul\":193:308   */\n              pop\n              jump\t// out\n                /* \"#utility.yul\":314:445   */\n            tag_19:\n                /* \"#utility.yul\":361:368   */\n              0x00\n                /* \"#utility.yul\":390:395   */\n              dup2\n                /* \"#utility.yul\":379:395   */\n              swap1\n              pop\n                /* \"#utility.yul\":396:439   */\n              tag_31\n                /* \"#utility.yul\":433:438   */\n              dup3\n                /* \"#utility.yul\":396:439   */\n              tag_18\n              jump\t// in\n            tag_31:\n                /* \"#utility.yul\":314:445   */\n              swap2\n              swap1\n              pop\n              jump\t// out\n                /* \"#utility.yul\":451:582   */\n            tag_20:\n                /* \"#utility.yul\":509:518   */\n              0x00\n                /* \"#utility.yul\":542:576   */\n              tag_33\n                /* \"#utility.yul\":570:575   */\n              dup3\n                /* \"#utility.yul\":542:576   */\n              tag_19\n              jump\t// in\n            tag_33:\n                /* \"#utility.yul\":529:576   */\n              swap1\n              pop\n                /* \"#utility.yul\":451:582   */\n              swap2\n              swap1\n              pop\n              jump\t// out\n                /* \"#utility.yul\":588:735   */\n            tag_21:\n                /* \"#utility.yul\":683:728   */\n              tag_35\n                /* \"#utility.yul\":722:727   */\n              dup2\n                /* \"#utility.yul\":683:728   */\n              tag_20\n              jump\t// in\n            tag_35:\n                /* \"#utility.yul\":678:681   */\n              dup3\n                /* \"#utility.yul\":671:729   */\n              mstore\n                /* \"#utility.yul\":588:735   */\n              pop\n              pop\n              jump\t// out\n                /* \"#utility.yul\":741:979   */\n            tag_9:\n                /* \"#utility.yul\":842:846   */\n              0x00\n                /* \"#utility.yul\":880:882   */\n              0x20\n                /* \"#utility.yul\":869:878   */\n              dup3\n                /* \"#utility.yul\":865:883   */\n              add\n                /* \"#utility.yul\":857:883   */\n              swap1\n              pop\n                /* \"#utility.yul\":893:972   */\n              tag_37\n                /* \"#utility.yul\":969:970   */\n              0x00\n                /* \"#utility.yul\":958:967   */\n              dup4\n                /* \"#utility.yul\":954:971   */\n              add\n                /* \"#utility.yul\":945:951   */\n              dup5\n                /* \"#utility.yul\":893:972   */\n              tag_21\n              jump\t// in\n            tag_37:\n                /* \"#utility.yul\":741:979   */\n              swap3\n              swap2\n              pop\n              pop\n              jump\t// out\n                /* \"#utility.yul\":985:1111   */\n            tag_22:\n                /* \"#utility.yul\":1022:1029   */\n              0x00\n                /* \"#utility.yul\":1062:1104   */\n              0xffffffffffffffffffffffffffffffffffffffff\n                /* \"#utility.yul\":1055:1060   */\n              dup3\n                /* \"#utility.yul\":1051:1105   */\n              and\n                /* \"#utility.yul\":1040:1105   */\n              swap1\n              pop\n                /* \"#utility.yul\":985:1111   */\n              swap2\n              swap1\n              pop\n              jump\t// out\n                /* \"#utility.yul\":1117:1213   */\n            tag_23:\n                /* \"#utility.yul\":1154:1161   */\n              0x00\n                /* \"#utility.yul\":1183:1207   */\n              tag_40\n                /* \"#utility.yul\":1201:1206   */\n              dup3\n                /* \"#utility.yul\":1183:1207   */\n              tag_22\n              jump\t// in\n            tag_40:\n                /* \"#utility.yul\":1172:1207   */\n              swap1\n              pop\n                /* \"#utility.yul\":1117:1213   */\n              swap2\n              swap1\n              pop\n              jump\t// out\n                /* \"#utility.yul\":1219:1337   */\n            tag_24:\n                /* \"#utility.yul\":1306:1330   */\n              tag_42\n                /* \"#utility.yul\":1324:1329   */\n              dup2\n                /* \"#utility.yul\":1306:1330   */\n              tag_23\n              jump\t// in\n            tag_42:\n                /* \"#utility.yul\":1301:1304   */\n              dup3\n                /* \"#utility.yul\":1294:1331   */\n              mstore\n                /* \"#utility.yul\":1219:1337   */\n              pop\n              pop\n              jump\t// out\n                /* \"#utility.yul\":1343:1565   */\n            tag_13:\n                /* \"#utility.yul\":1436:1440   */\n              0x00\n                /* \"#utility.yul\":1474:1476   */\n              0x20\n                /* \"#utility.yul\":1463:1472   */\n              dup3\n                /* \"#utility.yul\":1459:1477   */\n              add\n                /* \"#utility.yul\":1451:1477   */\n              swap1\n              pop\n                /* \"#utility.yul\":1487:1558   */\n              tag_44\n                /* \"#utility.yul\":1555:1556   */\n              0x00\n                /* \"#utility.yul\":1544:1553   */\n              dup4\n                /* \"#utility.yul\":1540:1557   */\n              add\n                /* \"#utility.yul\":1531:1537   */\n              dup5\n                /* \"#utility.yul\":1487:1558   */\n              tag_24\n              jump\t// in\n            tag_44:\n                /* \"#utility.yul\":1343:1565   */\n              swap3\n              swap2\n              pop\n              pop\n              jump\t// out\n\n            auxdata: 0xa264697066735822122034067685a2acfd4fddca388a5b2696e6cb3aa859e17dc0e5d9b81a7311b0df1664736f6c634300080c0033\n        }\n    }\n\n    sub_1: assembly {\n            /* \"Contracts\":8281:9674  contract AccountabilityContract {... */\n          mstore(0x40, 0x80)\n            /* \"Contracts\":8560:8929  constructor(address _creator, address _referee, string memory _name, string memory _description, address _failureRecipient, uint _amount) payable {... */\n          mload(0x40)\n          sub(codesize, bytecodeSize)\n          dup1\n          bytecodeSize\n          dup4\n          codecopy\n          dup2\n          dup2\n          add\n          0x40\n          mstore\n          dup2\n          add\n          swap1\n          tag_1\n          swap2\n          swap1\n          tag_2\n          jump\t// in\n        tag_1:\n            /* \"Contracts\":8726:8734  _creator */\n          dup6\n            /* \"Contracts\":8716:8723  creator */\n          0x00\n          dup1\n            /* \"Contracts\":8716:8734  creator = _creator */\n          0x0100\n          exp\n          dup2\n          sload\n          dup2\n          0xffffffffffffffffffffffffffffffffffffffff\n          mul\n          not\n          and\n          swap1\n          dup4\n          0xffffffffffffffffffffffffffffffffffffffff\n          and\n          mul\n          or\n          swap1\n          sstore\n          pop\n            /* \"Contracts\":8754:8762  _referee */\n          dup5\n            /* \"Contracts\":8744:8751  referee */\n          0x01\n          0x00\n            /* \"Contracts\":8744:8762  referee = _referee */\n          0x0100\n          exp\n          dup2\n          sload\n          dup2\n          0xffffffffffffffffffffffffffffffffffffffff\n          mul\n          not\n          and\n          swap1\n          dup4\n          0xffffffffffffffffffffffffffffffffffffffff\n          and\n          mul\n          or\n          swap1\n          sstore\n          pop\n            /* \"Contracts\":8779:8784  _name */\n          dup4\n            /* \"Contracts\":8772:8776  name */\n          0x02\n            /* \"Contracts\":8772:8784  name = _name */\n          swap1\n          dup1\n          mload\n          swap1\n          0x20\n          add\n          swap1\n          tag_5\n          swap3\n          swap2\n          swap1\n          tag_6\n          jump\t// in\n        tag_5:\n          pop\n            /* \"Contracts\":8808:8820  _description */\n          dup3\n            /* \"Contracts\":8794:8805  description */\n          0x03\n            /* \"Contracts\":8794:8820  description = _description */\n          swap1\n          dup1\n          mload\n          swap1\n          0x20\n          add\n          swap1\n          tag_7\n          swap3\n          swap2\n          swap1\n          tag_6\n          jump\t// in\n        tag_7:\n          pop\n            /* \"Contracts\":8849:8866  _failureRecipient */\n          dup2\n            /* \"Contracts\":8830:8846  failureRecipient */\n          0x04\n          0x00\n            /* \"Contracts\":8830:8866  failureRecipient = _failureRecipient */\n          0x0100\n          exp\n          dup2\n          sload\n          dup2\n          0xffffffffffffffffffffffffffffffffffffffff\n          mul\n          not\n          and\n          swap1\n          dup4\n          0xffffffffffffffffffffffffffffffffffffffff\n          and\n          mul\n          or\n          swap1\n          sstore\n          pop\n            /* \"Contracts\":8885:8892  _amount */\n          dup1\n            /* \"Contracts\":8876:8882  amount */\n          0x05\n            /* \"Contracts\":8876:8892  amount = _amount */\n          dup2\n          swap1\n          sstore\n          pop\n            /* \"Contracts\":8911:8922  Status.OPEN */\n          0x00\n            /* \"Contracts\":8902:8908  status */\n          0x06\n          0x00\n            /* \"Contracts\":8902:8922  status = Status.OPEN */\n          0x0100\n          exp\n          dup2\n          sload\n          dup2\n          0xff\n          mul\n          not\n          and\n          swap1\n          dup4\n          0x02\n          dup2\n          gt\n          iszero\n          tag_8\n          jumpi\n          tag_9\n          tag_10\n          jump\t// in\n        tag_9:\n        tag_8:\n          mul\n          or\n          swap1\n          sstore\n          pop\n            /* \"Contracts\":8560:8929  constructor(address _creator, address _referee, string memory _name, string memory _description, address _failureRecipient, uint _amount) payable {... */\n          pop\n          pop\n          pop\n          pop\n          pop\n          pop\n            /* \"Contracts\":8281:9674  contract AccountabilityContract {... */\n          jump(tag_11)\n        tag_6:\n          dup3\n          dup1\n          sload\n          tag_12\n          swap1\n          tag_13\n          jump\t// in\n        tag_12:\n          swap1\n          0x00\n          mstore\n          keccak256(0x00, 0x20)\n          swap1\n          0x1f\n          add\n          0x20\n          swap1\n          div\n          dup2\n          add\n          swap3\n          dup3\n          tag_15\n          jumpi\n          0x00\n          dup6\n          sstore\n          jump(tag_14)\n        tag_15:\n          dup3\n          0x1f\n          lt\n          tag_16\n          jumpi\n          dup1\n          mload\n          not(0xff)\n          and\n          dup4\n          dup1\n          add\n          or\n          dup6\n          sstore\n          jump(tag_14)\n        tag_16:\n          dup3\n          dup1\n          add\n          0x01\n          add\n          dup6\n          sstore\n          dup3\n          iszero\n          tag_14\n          jumpi\n          swap2\n          dup3\n          add\n        tag_17:\n          dup3\n          dup2\n          gt\n          iszero\n          tag_18\n          jumpi\n          dup3\n          mload\n          dup3\n          sstore\n          swap2\n          0x20\n          add\n          swap2\n          swap1\n          0x01\n          add\n          swap1\n          jump(tag_17)\n        tag_18:\n        tag_14:\n          pop\n          swap1\n          pop\n          tag_19\n          swap2\n          swap1\n          tag_20\n          jump\t// in\n        tag_19:\n          pop\n          swap1\n          jump\t// out\n        tag_20:\n        tag_21:\n          dup1\n          dup3\n          gt\n          iszero\n          tag_22\n          jumpi\n          0x00\n          dup2\n          0x00\n          swap1\n          sstore\n          pop\n          0x01\n          add\n          jump(tag_21)\n        tag_22:\n          pop\n          swap1\n          jump\t// out\n            /* \"#utility.yul\":7:82   */\n        tag_23:\n            /* \"#utility.yul\":40:46   */\n          0x00\n            /* \"#utility.yul\":73:75   */\n          0x40\n            /* \"#utility.yul\":67:76   */\n          mload\n            /* \"#utility.yul\":57:76   */\n          swap1\n          pop\n            /* \"#utility.yul\":7:82   */\n          swap1\n          jump\t// out\n            /* \"#utility.yul\":88:205   */\n        tag_24:\n            /* \"#utility.yul\":197:198   */\n          0x00\n            /* \"#utility.yul\":194:195   */\n          dup1\n            /* \"#utility.yul\":187:199   */\n          revert\n            /* \"#utility.yul\":211:328   */\n        tag_25:\n            /* \"#utility.yul\":320:321   */\n          0x00\n            /* \"#utility.yul\":317:318   */\n          dup1\n            /* \"#utility.yul\":310:322   */\n          revert\n            /* \"#utility.yul\":334:460   */\n        tag_26:\n            /* \"#utility.yul\":371:378   */\n          0x00\n            /* \"#utility.yul\":411:453   */\n          0xffffffffffffffffffffffffffffffffffffffff\n            /* \"#utility.yul\":404:409   */\n          dup3\n            /* \"#utility.yul\":400:454   */\n          and\n            /* \"#utility.yul\":389:454   */\n          swap1\n          pop\n            /* \"#utility.yul\":334:460   */\n          swap2\n          swap1\n          pop\n          jump\t// out\n            /* \"#utility.yul\":466:562   */\n        tag_27:\n            /* \"#utility.yul\":503:510   */\n          0x00\n            /* \"#utility.yul\":532:556   */\n          tag_50\n            /* \"#utility.yul\":550:555   */\n          dup3\n            /* \"#utility.yul\":532:556   */\n          tag_26\n          jump\t// in\n        tag_50:\n            /* \"#utility.yul\":521:556   */\n          swap1\n          pop\n            /* \"#utility.yul\":466:562   */\n          swap2\n          swap1\n          pop\n          jump\t// out\n            /* \"#utility.yul\":568:690   */\n        tag_28:\n            /* \"#utility.yul\":641:665   */\n          tag_52\n            /* \"#utility.yul\":659:664   */\n          dup2\n            /* \"#utility.yul\":641:665   */\n          tag_27\n          jump\t// in\n        tag_52:\n            /* \"#utility.yul\":634:639   */\n          dup2\n            /* \"#utility.yul\":631:666   */\n          eq\n            /* \"#utility.yul\":621:684   */\n          tag_53\n          jumpi\n            /* \"#utility.yul\":680:681   */\n          0x00\n            /* \"#utility.yul\":677:678   */\n          dup1\n            /* \"#utility.yul\":670:682   */\n          revert\n            /* \"#utility.yul\":621:684   */\n        tag_53:\n            /* \"#utility.yul\":568:690   */\n          pop\n          jump\t// out\n            /* \"#utility.yul\":696:839   */\n        tag_29:\n            /* \"#utility.yul\":753:758   */\n          0x00\n            /* \"#utility.yul\":784:790   */\n          dup2\n            /* \"#utility.yul\":778:791   */\n          mload\n            /* \"#utility.yul\":769:791   */\n          swap1\n          pop\n            /* \"#utility.yul\":800:833   */\n          tag_55\n            /* \"#utility.yul\":827:832   */\n          dup2\n            /* \"#utility.yul\":800:833   */\n          tag_28\n          jump\t// in\n        tag_55:\n            /* \"#utility.yul\":696:839   */\n          swap3\n          swap2\n          pop\n          pop\n          jump\t// out\n            /* \"#utility.yul\":845:962   */\n        tag_30:\n            /* \"#utility.yul\":954:955   */\n          0x00\n            /* \"#utility.yul\":951:952   */\n          dup1\n            /* \"#utility.yul\":944:956   */\n          revert\n            /* \"#utility.yul\":968:1085   */\n        tag_31:\n            /* \"#utility.yul\":1077:1078   */\n          0x00\n            /* \"#utility.yul\":1074:1075   */\n          dup1\n            /* \"#utility.yul\":1067:1079   */\n          revert\n            /* \"#utility.yul\":1091:1193   */\n        tag_32:\n            /* \"#utility.yul\":1132:1138   */\n          0x00\n            /* \"#utility.yul\":1183:1185   */\n          0x1f\n            /* \"#utility.yul\":1179:1186   */\n          not\n            /* \"#utility.yul\":1174:1176   */\n          0x1f\n            /* \"#utility.yul\":1167:1172   */\n          dup4\n            /* \"#utility.yul\":1163:1177   */\n          add\n            /* \"#utility.yul\":1159:1187   */\n          and\n            /* \"#utility.yul\":1149:1187   */\n          swap1\n          pop\n            /* \"#utility.yul\":1091:1193   */\n          swap2\n          swap1\n          pop\n          jump\t// out\n            /* \"#utility.yul\":1199:1379   */\n        tag_33:\n            /* \"#utility.yul\":1247:1324   */\n          0x4e487b7100000000000000000000000000000000000000000000000000000000\n            /* \"#utility.yul\":1244:1245   */\n          0x00\n            /* \"#utility.yul\":1237:1325   */\n          mstore\n            /* \"#utility.yul\":1344:1348   */\n          0x41\n            /* \"#utility.yul\":1341:1342   */\n          0x04\n            /* \"#utility.yul\":1334:1349   */\n          mstore\n            /* \"#utility.yul\":1368:1372   */\n          0x24\n            /* \"#utility.yul\":1365:1366   */\n          0x00\n            /* \"#utility.yul\":1358:1373   */\n          revert\n            /* \"#utility.yul\":1385:1666   */\n        tag_34:\n            /* \"#utility.yul\":1468:1495   */\n          tag_61\n            /* \"#utility.yul\":1490:1494   */\n          dup3\n            /* \"#utility.yul\":1468:1495   */\n          tag_32\n          jump\t// in\n        tag_61:\n            /* \"#utility.yul\":1460:1466   */\n          dup2\n            /* \"#utility.yul\":1456:1496   */\n          add\n            /* \"#utility.yul\":1598:1604   */\n          dup2\n            /* \"#utility.yul\":1586:1596   */\n          dup2\n            /* \"#utility.yul\":1583:1605   */\n          lt\n            /* \"#utility.yul\":1562:1580   */\n          0xffffffffffffffff\n            /* \"#utility.yul\":1550:1560   */\n          dup3\n            /* \"#utility.yul\":1547:1581   */\n          gt\n            /* \"#utility.yul\":1544:1606   */\n          or\n            /* \"#utility.yul\":1541:1629   */\n          iszero\n          tag_62\n          jumpi\n            /* \"#utility.yul\":1609:1627   */\n          tag_63\n          tag_33\n          jump\t// in\n        tag_63:\n            /* \"#utility.yul\":1541:1629   */\n        tag_62:\n            /* \"#utility.yul\":1649:1659   */\n          dup1\n            /* \"#utility.yul\":1645:1647   */\n          0x40\n            /* \"#utility.yul\":1638:1660   */\n          mstore\n            /* \"#utility.yul\":1428:1666   */\n          pop\n            /* \"#utility.yul\":1385:1666   */\n          pop\n          pop\n          jump\t// out\n            /* \"#utility.yul\":1672:1801   */\n        tag_35:\n            /* \"#utility.yul\":1706:1712   */\n          0x00\n            /* \"#utility.yul\":1733:1753   */\n          tag_65\n          tag_23\n          jump\t// in\n        tag_65:\n            /* \"#utility.yul\":1723:1753   */\n          swap1\n          pop\n            /* \"#utility.yul\":1762:1795   */\n          tag_66\n            /* \"#utility.yul\":1790:1794   */\n          dup3\n            /* \"#utility.yul\":1782:1788   */\n          dup3\n            /* \"#utility.yul\":1762:1795   */\n          tag_34\n          jump\t// in\n        tag_66:\n            /* \"#utility.yul\":1672:1801   */\n          swap2\n          swap1\n          pop\n          jump\t// out\n            /* \"#utility.yul\":1807:2115   */\n        tag_36:\n            /* \"#utility.yul\":1869:1873   */\n          0x00\n            /* \"#utility.yul\":1959:1977   */\n          0xffffffffffffffff\n            /* \"#utility.yul\":1951:1957   */\n          dup3\n            /* \"#utility.yul\":1948:1978   */\n          gt\n            /* \"#utility.yul\":1945:2001   */\n          iszero\n          tag_68\n          jumpi\n            /* \"#utility.yul\":1981:1999   */\n          tag_69\n          tag_33\n          jump\t// in\n        tag_69:\n            /* \"#utility.yul\":1945:2001   */\n        tag_68:\n            /* \"#utility.yul\":2019:2048   */\n          tag_70\n            /* \"#utility.yul\":2041:2047   */\n          dup3\n            /* \"#utility.yul\":2019:2048   */\n          tag_32\n          jump\t// in\n        tag_70:\n            /* \"#utility.yul\":2011:2048   */\n          swap1\n          pop\n            /* \"#utility.yul\":2103:2107   */\n          0x20\n            /* \"#utility.yul\":2097:2101   */\n          dup2\n            /* \"#utility.yul\":2093:2108   */\n          add\n            /* \"#utility.yul\":2085:2108   */\n          swap1\n          pop\n            /* \"#utility.yul\":1807:2115   */\n          swap2\n          swap1\n          pop\n          jump\t// out\n            /* \"#utility.yul\":2121:2428   */\n        tag_37:\n            /* \"#utility.yul\":2189:2190   */\n          0x00\n            /* \"#utility.yul\":2199:2312   */\n        tag_72:\n            /* \"#utility.yul\":2213:2219   */\n          dup4\n            /* \"#utility.yul\":2210:2211   */\n          dup2\n            /* \"#utility.yul\":2207:2220   */\n          lt\n            /* \"#utility.yul\":2199:2312   */\n          iszero\n          tag_74\n          jumpi\n            /* \"#utility.yul\":2298:2299   */\n          dup1\n            /* \"#utility.yul\":2293:2296   */\n          dup3\n            /* \"#utility.yul\":2289:2300   */\n          add\n            /* \"#utility.yul\":2283:2301   */\n          mload\n            /* \"#utility.yul\":2279:2280   */\n          dup2\n            /* \"#utility.yul\":2274:2277   */\n          dup5\n            /* \"#utility.yul\":2270:2281   */\n          add\n            /* \"#utility.yul\":2263:2302   */\n          mstore\n            /* \"#utility.yul\":2235:2237   */\n          0x20\n            /* \"#utility.yul\":2232:2233   */\n          dup2\n            /* \"#utility.yul\":2228:2238   */\n          add\n            /* \"#utility.yul\":2223:2238   */\n          swap1\n          pop\n            /* \"#utility.yul\":2199:2312   */\n          jump(tag_72)\n        tag_74:\n            /* \"#utility.yul\":2330:2336   */\n          dup4\n            /* \"#utility.yul\":2327:2328   */\n          dup2\n            /* \"#utility.yul\":2324:2337   */\n          gt\n            /* \"#utility.yul\":2321:2422   */\n          iszero\n          tag_75\n          jumpi\n            /* \"#utility.yul\":2410:2411   */\n          0x00\n            /* \"#utility.yul\":2401:2407   */\n          dup5\n            /* \"#utility.yul\":2396:2399   */\n          dup5\n            /* \"#utility.yul\":2392:2408   */\n          add\n            /* \"#utility.yul\":2385:2412   */\n          mstore\n            /* \"#utility.yul\":2321:2422   */\n        tag_75:\n            /* \"#utility.yul\":2170:2428   */\n          pop\n            /* \"#utility.yul\":2121:2428   */\n          pop\n          pop\n          pop\n          jump\t// out\n            /* \"#utility.yul\":2434:2855   */\n        tag_38:\n            /* \"#utility.yul\":2523:2528   */\n          0x00\n            /* \"#utility.yul\":2548:2614   */\n          tag_77\n            /* \"#utility.yul\":2564:2613   */\n          tag_78\n            /* \"#utility.yul\":2606:2612   */\n          dup5\n            /* \"#utility.yul\":2564:2613   */\n          tag_36\n          jump\t// in\n        tag_78:\n            /* \"#utility.yul\":2548:2614   */\n          tag_35\n          jump\t// in\n        tag_77:\n            /* \"#utility.yul\":2539:2614   */\n          swap1\n          pop\n            /* \"#utility.yul\":2637:2643   */\n          dup3\n            /* \"#utility.yul\":2630:2635   */\n          dup2\n            /* \"#utility.yul\":2623:2644   */\n          mstore\n            /* \"#utility.yul\":2675:2679   */\n          0x20\n            /* \"#utility.yul\":2668:2673   */\n          dup2\n            /* \"#utility.yul\":2664:2680   */\n          add\n            /* \"#utility.yul\":2713:2716   */\n          dup5\n            /* \"#utility.yul\":2704:2710   */\n          dup5\n            /* \"#utility.yul\":2699:2702   */\n          dup5\n            /* \"#utility.yul\":2695:2711   */\n          add\n            /* \"#utility.yul\":2692:2717   */\n          gt\n            /* \"#utility.yul\":2689:2801   */\n          iszero\n          tag_79\n          jumpi\n            /* \"#utility.yul\":2720:2799   */\n          tag_80\n          tag_31\n          jump\t// in\n        tag_80:\n            /* \"#utility.yul\":2689:2801   */\n        tag_79:\n            /* \"#utility.yul\":2810:2849   */\n          tag_81\n            /* \"#utility.yul\":2842:2848   */\n          dup5\n            /* \"#utility.yul\":2837:2840   */\n          dup3\n            /* \"#utility.yul\":2832:2835   */\n          dup6\n            /* \"#utility.yul\":2810:2849   */\n          tag_37\n          jump\t// in\n        tag_81:\n            /* \"#utility.yul\":2529:2855   */\n          pop\n            /* \"#utility.yul\":2434:2855   */\n          swap4\n          swap3\n          pop\n          pop\n          pop\n          jump\t// out\n            /* \"#utility.yul\":2875:3230   */\n        tag_39:\n            /* \"#utility.yul\":2942:2947   */\n          0x00\n            /* \"#utility.yul\":2991:2994   */\n          dup3\n            /* \"#utility.yul\":2984:2988   */\n          0x1f\n            /* \"#utility.yul\":2976:2982   */\n          dup4\n            /* \"#utility.yul\":2972:2989   */\n          add\n            /* \"#utility.yul\":2968:2995   */\n          slt\n            /* \"#utility.yul\":2958:3080   */\n          tag_83\n          jumpi\n            /* \"#utility.yul\":2999:3078   */\n          tag_84\n          tag_30\n          jump\t// in\n        tag_84:\n            /* \"#utility.yul\":2958:3080   */\n        tag_83:\n            /* \"#utility.yul\":3109:3115   */\n          dup2\n            /* \"#utility.yul\":3103:3116   */\n          mload\n            /* \"#utility.yul\":3134:3224   */\n          tag_85\n            /* \"#utility.yul\":3220:3223   */\n          dup5\n            /* \"#utility.yul\":3212:3218   */\n          dup3\n            /* \"#utility.yul\":3205:3209   */\n          0x20\n            /* \"#utility.yul\":3197:3203   */\n          dup7\n            /* \"#utility.yul\":3193:3210   */\n          add\n            /* \"#utility.yul\":3134:3224   */\n          tag_38\n          jump\t// in\n        tag_85:\n            /* \"#utility.yul\":3125:3224   */\n          swap2\n          pop\n            /* \"#utility.yul\":2948:3230   */\n          pop\n            /* \"#utility.yul\":2875:3230   */\n          swap3\n          swap2\n          pop\n          pop\n          jump\t// out\n            /* \"#utility.yul\":3236:3313   */\n        tag_40:\n            /* \"#utility.yul\":3273:3280   */\n          0x00\n            /* \"#utility.yul\":3302:3307   */\n          dup2\n            /* \"#utility.yul\":3291:3307   */\n          swap1\n          pop\n            /* \"#utility.yul\":3236:3313   */\n          swap2\n          swap1\n          pop\n          jump\t// out\n            /* \"#utility.yul\":3319:3441   */\n        tag_41:\n            /* \"#utility.yul\":3392:3416   */\n          tag_88\n            /* \"#utility.yul\":3410:3415   */\n          dup2\n            /* \"#utility.yul\":3392:3416   */\n          tag_40\n          jump\t// in\n        tag_88:\n            /* \"#utility.yul\":3385:3390   */\n          dup2\n            /* \"#utility.yul\":3382:3417   */\n          eq\n            /* \"#utility.yul\":3372:3435   */\n          tag_89\n          jumpi\n            /* \"#utility.yul\":3431:3432   */\n          0x00\n            /* \"#utility.yul\":3428:3429   */\n          dup1\n            /* \"#utility.yul\":3421:3433   */\n          revert\n            /* \"#utility.yul\":3372:3435   */\n        tag_89:\n            /* \"#utility.yul\":3319:3441   */\n          pop\n          jump\t// out\n            /* \"#utility.yul\":3447:3590   */\n        tag_42:\n            /* \"#utility.yul\":3504:3509   */\n          0x00\n            /* \"#utility.yul\":3535:3541   */\n          dup2\n            /* \"#utility.yul\":3529:3542   */\n          mload\n            /* \"#utility.yul\":3520:3542   */\n          swap1\n          pop\n            /* \"#utility.yul\":3551:3584   */\n          tag_91\n            /* \"#utility.yul\":3578:3583   */\n          dup2\n            /* \"#utility.yul\":3551:3584   */\n          tag_41\n          jump\t// in\n        tag_91:\n            /* \"#utility.yul\":3447:3590   */\n          swap3\n          swap2\n          pop\n          pop\n          jump\t// out\n            /* \"#utility.yul\":3596:5076   */\n        tag_2:\n            /* \"#utility.yul\":3731:3737   */\n          0x00\n            /* \"#utility.yul\":3739:3745   */\n          dup1\n            /* \"#utility.yul\":3747:3753   */\n          0x00\n            /* \"#utility.yul\":3755:3761   */\n          dup1\n            /* \"#utility.yul\":3763:3769   */\n          0x00\n            /* \"#utility.yul\":3771:3777   */\n          dup1\n            /* \"#utility.yul\":3820:3823   */\n          0xc0\n            /* \"#utility.yul\":3808:3817   */\n          dup8\n            /* \"#utility.yul\":3799:3806   */\n          dup10\n            /* \"#utility.yul\":3795:3818   */\n          sub\n            /* \"#utility.yul\":3791:3824   */\n          slt\n            /* \"#utility.yul\":3788:3908   */\n          iszero\n          tag_93\n          jumpi\n            /* \"#utility.yul\":3827:3906   */\n          tag_94\n          tag_24\n          jump\t// in\n        tag_94:\n            /* \"#utility.yul\":3788:3908   */\n        tag_93:\n            /* \"#utility.yul\":3947:3948   */\n          0x00\n            /* \"#utility.yul\":3972:4036   */\n          tag_95\n            /* \"#utility.yul\":4028:4035   */\n          dup10\n            /* \"#utility.yul\":4019:4025   */\n          dup3\n            /* \"#utility.yul\":4008:4017   */\n          dup11\n            /* \"#utility.yul\":4004:4026   */\n          add\n            /* \"#utility.yul\":3972:4036   */\n          tag_29\n          jump\t// in\n        tag_95:\n            /* \"#utility.yul\":3962:4036   */\n          swap7\n          pop\n            /* \"#utility.yul\":3918:4046   */\n          pop\n            /* \"#utility.yul\":4085:4087   */\n          0x20\n            /* \"#utility.yul\":4111:4175   */\n          tag_96\n            /* \"#utility.yul\":4167:4174   */\n          dup10\n            /* \"#utility.yul\":4158:4164   */\n          dup3\n            /* \"#utility.yul\":4147:4156   */\n          dup11\n            /* \"#utility.yul\":4143:4165   */\n          add\n            /* \"#utility.yul\":4111:4175   */\n          tag_29\n          jump\t// in\n        tag_96:\n            /* \"#utility.yul\":4101:4175   */\n          swap6\n          pop\n            /* \"#utility.yul\":4056:4185   */\n          pop\n            /* \"#utility.yul\":4245:4247   */\n          0x40\n            /* \"#utility.yul\":4234:4243   */\n          dup8\n            /* \"#utility.yul\":4230:4248   */\n          add\n            /* \"#utility.yul\":4224:4249   */\n          mload\n            /* \"#utility.yul\":4276:4294   */\n          0xffffffffffffffff\n            /* \"#utility.yul\":4268:4274   */\n          dup2\n            /* \"#utility.yul\":4265:4295   */\n          gt\n            /* \"#utility.yul\":4262:4379   */\n          iszero\n          tag_97\n          jumpi\n            /* \"#utility.yul\":4298:4377   */\n          tag_98\n          tag_25\n          jump\t// in\n        tag_98:\n            /* \"#utility.yul\":4262:4379   */\n        tag_97:\n            /* \"#utility.yul\":4403:4477   */\n          tag_99\n            /* \"#utility.yul\":4469:4476   */\n          dup10\n            /* \"#utility.yul\":4460:4466   */\n          dup3\n            /* \"#utility.yul\":4449:4458   */\n          dup11\n            /* \"#utility.yul\":4445:4467   */\n          add\n            /* \"#utility.yul\":4403:4477   */\n          tag_39\n          jump\t// in\n        tag_99:\n            /* \"#utility.yul\":4393:4477   */\n          swap5\n          pop\n            /* \"#utility.yul\":4195:4487   */\n          pop\n            /* \"#utility.yul\":4547:4549   */\n          0x60\n            /* \"#utility.yul\":4536:4545   */\n          dup8\n            /* \"#utility.yul\":4532:4550   */\n          add\n            /* \"#utility.yul\":4526:4551   */\n          mload\n            /* \"#utility.yul\":4578:4596   */\n          0xffffffffffffffff\n            /* \"#utility.yul\":4570:4576   */\n          dup2\n            /* \"#utility.yul\":4567:4597   */\n          gt\n            /* \"#utility.yul\":4564:4681   */\n          iszero\n          tag_100\n          jumpi\n            /* \"#utility.yul\":4600:4679   */\n          tag_101\n          tag_25\n          jump\t// in\n        tag_101:\n            /* \"#utility.yul\":4564:4681   */\n        tag_100:\n            /* \"#utility.yul\":4705:4779   */\n          tag_102\n            /* \"#utility.yul\":4771:4778   */\n          dup10\n            /* \"#utility.yul\":4762:4768   */\n          dup3\n            /* \"#utility.yul\":4751:4760   */\n          dup11\n            /* \"#utility.yul\":4747:4769   */\n          add\n            /* \"#utility.yul\":4705:4779   */\n          tag_39\n          jump\t// in\n        tag_102:\n            /* \"#utility.yul\":4695:4779   */\n          swap4\n          pop\n            /* \"#utility.yul\":4497:4789   */\n          pop\n            /* \"#utility.yul\":4828:4831   */\n          0x80\n            /* \"#utility.yul\":4855:4919   */\n          tag_103\n            /* \"#utility.yul\":4911:4918   */\n          dup10\n            /* \"#utility.yul\":4902:4908   */\n          dup3\n            /* \"#utility.yul\":4891:4900   */\n          dup11\n            /* \"#utility.yul\":4887:4909   */\n          add\n            /* \"#utility.yul\":4855:4919   */\n          tag_29\n          jump\t// in\n        tag_103:\n            /* \"#utility.yul\":4845:4919   */\n          swap3\n          pop\n            /* \"#utility.yul\":4799:4929   */\n          pop\n            /* \"#utility.yul\":4968:4971   */\n          0xa0\n            /* \"#utility.yul\":4995:5059   */\n          tag_104\n            /* \"#utility.yul\":5051:5058   */\n          dup10\n            /* \"#utility.yul\":5042:5048   */\n          dup3\n            /* \"#utility.yul\":5031:5040   */\n          dup11\n            /* \"#utility.yul\":5027:5049   */\n          add\n            /* \"#utility.yul\":4995:5059   */\n          tag_42\n          jump\t// in\n        tag_104:\n            /* \"#utility.yul\":4985:5059   */\n          swap2\n          pop\n            /* \"#utility.yul\":4939:5069   */\n          pop\n            /* \"#utility.yul\":3596:5076   */\n          swap3\n          swap6\n          pop\n          swap3\n          swap6\n          pop\n          swap3\n          swap6\n          jump\t// out\n            /* \"#utility.yul\":5082:5262   */\n        tag_10:\n            /* \"#utility.yul\":5130:5207   */\n          0x4e487b7100000000000000000000000000000000000000000000000000000000\n            /* \"#utility.yul\":5127:5128   */\n          0x00\n            /* \"#utility.yul\":5120:5208   */\n          mstore\n            /* \"#utility.yul\":5227:5231   */\n          0x21\n            /* \"#utility.yul\":5224:5225   */\n          0x04\n            /* \"#utility.yul\":5217:5232   */\n          mstore\n            /* \"#utility.yul\":5251:5255   */\n          0x24\n            /* \"#utility.yul\":5248:5249   */\n          0x00\n            /* \"#utility.yul\":5241:5256   */\n          revert\n            /* \"#utility.yul\":5268:5448   */\n        tag_43:\n            /* \"#utility.yul\":5316:5393   */\n          0x4e487b7100000000000000000000000000000000000000000000000000000000\n            /* \"#utility.yul\":5313:5314   */\n          0x00\n            /* \"#utility.yul\":5306:5394   */\n          mstore\n            /* \"#utility.yul\":5413:5417   */\n          0x22\n            /* \"#utility.yul\":5410:5411   */\n          0x04\n            /* \"#utility.yul\":5403:5418   */\n          mstore\n            /* \"#utility.yul\":5437:5441   */\n          0x24\n            /* \"#utility.yul\":5434:5435   */\n          0x00\n            /* \"#utility.yul\":5427:5442   */\n          revert\n            /* \"#utility.yul\":5454:5774   */\n        tag_13:\n            /* \"#utility.yul\":5498:5504   */\n          0x00\n            /* \"#utility.yul\":5535:5536   */\n          0x02\n            /* \"#utility.yul\":5529:5533   */\n          dup3\n            /* \"#utility.yul\":5525:5537   */\n          div\n            /* \"#utility.yul\":5515:5537   */\n          swap1\n          pop\n            /* \"#utility.yul\":5582:5583   */\n          0x01\n            /* \"#utility.yul\":5576:5580   */\n          dup3\n            /* \"#utility.yul\":5572:5584   */\n          and\n            /* \"#utility.yul\":5603:5621   */\n          dup1\n            /* \"#utility.yul\":5593:5674   */\n          tag_108\n          jumpi\n            /* \"#utility.yul\":5659:5663   */\n          0x7f\n            /* \"#utility.yul\":5651:5657   */\n          dup3\n            /* \"#utility.yul\":5647:5664   */\n          and\n            /* \"#utility.yul\":5637:5664   */\n          swap2\n          pop\n            /* \"#utility.yul\":5593:5674   */\n        tag_108:\n            /* \"#utility.yul\":5721:5723   */\n          0x20\n            /* \"#utility.yul\":5713:5719   */\n          dup3\n            /* \"#utility.yul\":5710:5724   */\n          lt\n            /* \"#utility.yul\":5690:5708   */\n          dup2\n            /* \"#utility.yul\":5687:5725   */\n          eq\n            /* \"#utility.yul\":5684:5768   */\n          iszero\n          tag_109\n          jumpi\n            /* \"#utility.yul\":5740:5758   */\n          tag_110\n          tag_43\n          jump\t// in\n        tag_110:\n            /* \"#utility.yul\":5684:5768   */\n        tag_109:\n            /* \"#utility.yul\":5505:5774   */\n          pop\n            /* \"#utility.yul\":5454:5774   */\n          swap2\n          swap1\n          pop\n          jump\t// out\n            /* \"Contracts\":8281:9674  contract AccountabilityContract {... */\n        tag_11:\n          dataSize(sub_0)\n          dup1\n          dataOffset(sub_0)\n          0x00\n          codecopy\n          0x00\n          return\n        stop\n\n        sub_0: assembly {\n                /* \"Contracts\":8281:9674  contract AccountabilityContract {... */\n              mstore(0x40, 0x80)\n              jumpi(tag_1, lt(calldatasize, 0x04))\n              shr(0xe0, calldataload(0x00))\n              dup1\n              0x3b1bebd1\n              gt\n              tag_11\n              jumpi\n              dup1\n              0x3b1bebd1\n              eq\n              tag_6\n              jumpi\n              dup1\n              0x4177fe51\n              eq\n              tag_7\n              jumpi\n              dup1\n              0x7284e416\n              eq\n              tag_8\n              jumpi\n              dup1\n              0xaa8c217c\n              eq\n              tag_9\n              jumpi\n              dup1\n              0xb4fedc11\n              eq\n              tag_10\n              jumpi\n              jump(tag_1)\n            tag_11:\n              dup1\n              0x02d05d3f\n              eq\n              tag_2\n              jumpi\n              dup1\n              0x06fdde03\n              eq\n              tag_3\n              jumpi\n              dup1\n              0x200d2ed2\n              eq\n              tag_4\n              jumpi\n              dup1\n              0x2d398fa6\n              eq\n              tag_5\n              jumpi\n            tag_1:\n              0x00\n              dup1\n              revert\n                /* \"Contracts\":8361:8383  address public creator */\n            tag_2:\n              callvalue\n              dup1\n              iszero\n              tag_12\n              jumpi\n              0x00\n              dup1\n              revert\n            tag_12:\n              pop\n              tag_13\n              tag_14\n              jump\t// in\n            tag_13:\n              mload(0x40)\n              tag_15\n              swap2\n              swap1\n              tag_16\n              jump\t// in\n            tag_15:\n              mload(0x40)\n              dup1\n              swap2\n              sub\n              swap1\n              return\n                /* \"Contracts\":8417:8435  string public name */\n            tag_3:\n              callvalue\n              dup1\n              iszero\n              tag_17\n              jumpi\n              0x00\n              dup1\n              revert\n            tag_17:\n              pop\n              tag_18\n              tag_19\n              jump\t// in\n            tag_18:\n              mload(0x40)\n              tag_20\n              swap2\n              swap1\n              tag_21\n              jump\t// in\n            tag_20:\n              mload(0x40)\n              dup1\n              swap2\n              sub\n              swap1\n              return\n                /* \"Contracts\":8533:8553  Status public status */\n            tag_4:\n              callvalue\n              dup1\n              iszero\n              tag_22\n              jumpi\n              0x00\n              dup1\n              revert\n            tag_22:\n              pop\n              tag_23\n              tag_24\n              jump\t// in\n            tag_23:\n              mload(0x40)\n              tag_25\n              swap2\n              swap1\n              tag_26\n              jump\t// in\n            tag_25:\n              mload(0x40)\n              dup1\n              swap2\n              sub\n              swap1\n              return\n                /* \"Contracts\":9061:9380  function failContract() public payable restricted returns (AccountabilityContract) {... */\n            tag_5:\n              tag_27\n              tag_28\n              jump\t// in\n            tag_27:\n              mload(0x40)\n              tag_29\n              swap2\n              swap1\n              tag_30\n              jump\t// in\n            tag_29:\n              mload(0x40)\n              dup1\n              swap2\n              sub\n              swap1\n              return\n                /* \"Contracts\":8389:8411  address public referee */\n            tag_6:\n              callvalue\n              dup1\n              iszero\n              tag_31\n              jumpi\n              0x00\n              dup1\n              revert\n            tag_31:\n              pop\n              tag_32\n              tag_33\n              jump\t// in\n            tag_32:\n              mload(0x40)\n              tag_34\n              swap2\n              swap1\n              tag_16\n              jump\t// in\n            tag_34:\n              mload(0x40)\n              dup1\n              swap2\n              sub\n              swap1\n              return\n                /* \"Contracts\":8472:8503  address public failureRecipient */\n            tag_7:\n              callvalue\n              dup1\n              iszero\n              tag_35\n              jumpi\n              0x00\n              dup1\n              revert\n            tag_35:\n              pop\n              tag_36\n              tag_37\n              jump\t// in\n            tag_36:\n              mload(0x40)\n              tag_38\n              swap2\n              swap1\n              tag_16\n              jump\t// in\n            tag_38:\n              mload(0x40)\n              dup1\n              swap2\n              sub\n              swap1\n              return\n                /* \"Contracts\":8441:8466  string public description */\n            tag_8:\n              callvalue\n              dup1\n              iszero\n              tag_39\n              jumpi\n              0x00\n              dup1\n              revert\n            tag_39:\n              pop\n              tag_40\n              tag_41\n              jump\t// in\n            tag_40:\n              mload(0x40)\n              tag_42\n              swap2\n              swap1\n              tag_21\n              jump\t// in\n            tag_42:\n              mload(0x40)\n              dup1\n              swap2\n              sub\n              swap1\n              return\n                /* \"Contracts\":8509:8527  uint public amount */\n            tag_9:\n              callvalue\n              dup1\n              iszero\n              tag_43\n              jumpi\n              0x00\n              dup1\n              revert\n            tag_43:\n              pop\n              tag_44\n              tag_45\n              jump\t// in\n            tag_44:\n              mload(0x40)\n              tag_46\n              swap2\n              swap1\n              tag_47\n              jump\t// in\n            tag_46:\n              mload(0x40)\n              dup1\n              swap2\n              sub\n              swap1\n              return\n                /* \"Contracts\":9387:9672  function completeContract() public payable restricted returns (AccountabilityContract) {... */\n            tag_10:\n              tag_48\n              tag_49\n              jump\t// in\n            tag_48:\n              mload(0x40)\n              tag_50\n              swap2\n              swap1\n              tag_30\n              jump\t// in\n            tag_50:\n              mload(0x40)\n              dup1\n              swap2\n              sub\n              swap1\n              return\n                /* \"Contracts\":8361:8383  address public creator */\n            tag_14:\n              0x00\n              dup1\n              sload\n              swap1\n              0x0100\n              exp\n              swap1\n              div\n              0xffffffffffffffffffffffffffffffffffffffff\n              and\n              dup2\n              jump\t// out\n                /* \"Contracts\":8417:8435  string public name */\n            tag_19:\n              0x02\n              dup1\n              sload\n              tag_51\n              swap1\n              tag_52\n              jump\t// in\n            tag_51:\n              dup1\n              0x1f\n              add\n              0x20\n              dup1\n              swap2\n              div\n              mul\n              0x20\n              add\n              mload(0x40)\n              swap1\n              dup2\n              add\n              0x40\n              mstore\n              dup1\n              swap3\n              swap2\n              swap1\n              dup2\n              dup2\n              mstore\n              0x20\n              add\n              dup3\n              dup1\n              sload\n              tag_53\n              swap1\n              tag_52\n              jump\t// in\n            tag_53:\n              dup1\n              iszero\n              tag_54\n              jumpi\n              dup1\n              0x1f\n              lt\n              tag_55\n              jumpi\n              0x0100\n              dup1\n              dup4\n              sload\n              div\n              mul\n              dup4\n              mstore\n              swap2\n              0x20\n              add\n              swap2\n              jump(tag_54)\n            tag_55:\n              dup3\n              add\n              swap2\n              swap1\n              0x00\n              mstore\n              keccak256(0x00, 0x20)\n              swap1\n            tag_56:\n              dup2\n              sload\n              dup2\n              mstore\n              swap1\n              0x01\n              add\n              swap1\n              0x20\n              add\n              dup1\n              dup4\n              gt\n              tag_56\n              jumpi\n              dup3\n              swap1\n              sub\n              0x1f\n              and\n              dup3\n              add\n              swap2\n            tag_54:\n              pop\n              pop\n              pop\n              pop\n              pop\n              dup2\n              jump\t// out\n                /* \"Contracts\":8533:8553  Status public status */\n            tag_24:\n              0x06\n              0x00\n              swap1\n              sload\n              swap1\n              0x0100\n              exp\n              swap1\n              div\n              0xff\n              and\n              dup2\n              jump\t// out\n                /* \"Contracts\":9061:9380  function failContract() public payable restricted returns (AccountabilityContract) {... */\n            tag_28:\n                /* \"Contracts\":9120:9142  AccountabilityContract */\n              0x00\n                /* \"Contracts\":8985:8996  Status.OPEN */\n              dup1\n                /* \"Contracts\":8975:8996  status == Status.OPEN */\n              0x02\n              dup2\n              gt\n              iszero\n              tag_58\n              jumpi\n              tag_59\n              tag_60\n              jump\t// in\n            tag_59:\n            tag_58:\n                /* \"Contracts\":8975:8981  status */\n              0x06\n              0x00\n              swap1\n              sload\n              swap1\n              0x0100\n              exp\n              swap1\n              div\n              0xff\n              and\n                /* \"Contracts\":8975:8996  status == Status.OPEN */\n              0x02\n              dup2\n              gt\n              iszero\n              tag_61\n              jumpi\n              tag_62\n              tag_60\n              jump\t// in\n            tag_62:\n            tag_61:\n              eq\n                /* \"Contracts\":8967:9037  require(status == Status.OPEN, \"Contract status is not equal to open\") */\n              tag_63\n              jumpi\n              mload(0x40)\n              0x08c379a000000000000000000000000000000000000000000000000000000000\n              dup2\n              mstore\n              0x04\n              add\n              tag_64\n              swap1\n              tag_65\n              jump\t// in\n            tag_64:\n              mload(0x40)\n              dup1\n              swap2\n              sub\n              swap1\n              revert\n            tag_63:\n                /* \"Contracts\":9175:9182  referee */\n              0x01\n              0x00\n              swap1\n              sload\n              swap1\n              0x0100\n              exp\n              swap1\n              div\n              0xffffffffffffffffffffffffffffffffffffffff\n              and\n                /* \"Contracts\":9162:9182  tx.origin == referee */\n              0xffffffffffffffffffffffffffffffffffffffff\n              and\n                /* \"Contracts\":9162:9171  tx.origin */\n              origin\n                /* \"Contracts\":9162:9182  tx.origin == referee */\n              0xffffffffffffffffffffffffffffffffffffffff\n              and\n              eq\n                /* \"Contracts\":9162:9206  tx.origin == referee || tx.origin == creator */\n              dup1\n              tag_67\n              jumpi\n              pop\n                /* \"Contracts\":9199:9206  creator */\n              0x00\n              dup1\n              sload\n              swap1\n              0x0100\n              exp\n              swap1\n              div\n              0xffffffffffffffffffffffffffffffffffffffff\n              and\n                /* \"Contracts\":9186:9206  tx.origin == creator */\n              0xffffffffffffffffffffffffffffffffffffffff\n              and\n                /* \"Contracts\":9186:9195  tx.origin */\n              origin\n                /* \"Contracts\":9186:9206  tx.origin == creator */\n              0xffffffffffffffffffffffffffffffffffffffff\n              and\n              eq\n                /* \"Contracts\":9162:9206  tx.origin == referee || tx.origin == creator */\n            tag_67:\n                /* \"Contracts\":9154:9252  require(tx.origin == referee || tx.origin == creator, \"Only referee or creator can fail contract\") */\n              tag_68\n              jumpi\n              mload(0x40)\n              0x08c379a000000000000000000000000000000000000000000000000000000000\n              dup2\n              mstore\n              0x04\n              add\n              tag_69\n              swap1\n              tag_70\n              jump\t// in\n            tag_69:\n              mload(0x40)\n              dup1\n              swap2\n              sub\n              swap1\n              revert\n            tag_68:\n                /* \"Contracts\":9270:9286  failureRecipient */\n              0x04\n              0x00\n              swap1\n              sload\n              swap1\n              0x0100\n              exp\n              swap1\n              div\n              0xffffffffffffffffffffffffffffffffffffffff\n              and\n                /* \"Contracts\":9262:9296  payable(failureRecipient).transfer */\n              0xffffffffffffffffffffffffffffffffffffffff\n              and\n                /* \"Contracts\":9262:9319  payable(failureRecipient).transfer(address(this).balance) */\n              0x08fc\n                /* \"Contracts\":9297:9318  address(this).balance */\n              selfbalance\n                /* \"Contracts\":9262:9319  payable(failureRecipient).transfer(address(this).balance) */\n              swap1\n              dup2\n              iszero\n              mul\n              swap1\n              mload(0x40)\n              0x00\n              mload(0x40)\n              dup1\n              dup4\n              sub\n              dup2\n              dup6\n              dup9\n              dup9\n              call\n              swap4\n              pop\n              pop\n              pop\n              pop\n              iszero\n              dup1\n              iszero\n              tag_72\n              jumpi\n              returndatasize\n              0x00\n              dup1\n              returndatacopy\n              revert(0x00, returndatasize)\n            tag_72:\n              pop\n                /* \"Contracts\":9338:9352  Status.FAILURE */\n              0x02\n                /* \"Contracts\":9329:9335  status */\n              0x06\n              0x00\n                /* \"Contracts\":9329:9352  status = Status.FAILURE */\n              0x0100\n              exp\n              dup2\n              sload\n              dup2\n              0xff\n              mul\n              not\n              and\n              swap1\n              dup4\n              0x02\n              dup2\n              gt\n              iszero\n              tag_73\n              jumpi\n              tag_74\n              tag_60\n              jump\t// in\n            tag_74:\n            tag_73:\n              mul\n              or\n              swap1\n              sstore\n              pop\n                /* \"Contracts\":9369:9373  this */\n              address\n                /* \"Contracts\":9362:9373  return this */\n              swap1\n              pop\n                /* \"Contracts\":9061:9380  function failContract() public payable restricted returns (AccountabilityContract) {... */\n              swap1\n              jump\t// out\n                /* \"Contracts\":8389:8411  address public referee */\n            tag_33:\n              0x01\n              0x00\n              swap1\n              sload\n              swap1\n              0x0100\n              exp\n              swap1\n              div\n              0xffffffffffffffffffffffffffffffffffffffff\n              and\n              dup2\n              jump\t// out\n                /* \"Contracts\":8472:8503  address public failureRecipient */\n            tag_37:\n              0x04\n              0x00\n              swap1\n              sload\n              swap1\n              0x0100\n              exp\n              swap1\n              div\n              0xffffffffffffffffffffffffffffffffffffffff\n              and\n              dup2\n              jump\t// out\n                /* \"Contracts\":8441:8466  string public description */\n            tag_41:\n              0x03\n              dup1\n              sload\n              tag_75\n              swap1\n              tag_52\n              jump\t// in\n            tag_75:\n              dup1\n              0x1f\n              add\n              0x20\n              dup1\n              swap2\n              div\n              mul\n              0x20\n              add\n              mload(0x40)\n              swap1\n              dup2\n              add\n              0x40\n              mstore\n              dup1\n              swap3\n              swap2\n              swap1\n              dup2\n              dup2\n              mstore\n              0x20\n              add\n              dup3\n              dup1\n              sload\n              tag_76\n              swap1\n              tag_52\n              jump\t// in\n            tag_76:\n              dup1\n              iszero\n              tag_77\n              jumpi\n              dup1\n              0x1f\n              lt\n              tag_78\n              jumpi\n              0x0100\n              dup1\n              dup4\n              sload\n              div\n              mul\n              dup4\n              mstore\n              swap2\n              0x20\n              add\n              swap2\n              jump(tag_77)\n            tag_78:\n              dup3\n              add\n              swap2\n              swap1\n              0x00\n              mstore\n              keccak256(0x00, 0x20)\n              swap1\n            tag_79:\n              dup2\n              sload\n              dup2\n              mstore\n              swap1\n              0x01\n              add\n              swap1\n              0x20\n              add\n              dup1\n              dup4\n              gt\n              tag_79\n              jumpi\n              dup3\n              swap1\n              sub\n              0x1f\n              and\n              dup3\n              add\n              swap2\n            tag_77:\n              pop\n              pop\n              pop\n              pop\n              pop\n              dup2\n              jump\t// out\n                /* \"Contracts\":8509:8527  uint public amount */\n            tag_45:\n              sload(0x05)\n              dup2\n              jump\t// out\n                /* \"Contracts\":9387:9672  function completeContract() public payable restricted returns (AccountabilityContract) {... */\n            tag_49:\n                /* \"Contracts\":9450:9472  AccountabilityContract */\n              0x00\n                /* \"Contracts\":8985:8996  Status.OPEN */\n              dup1\n                /* \"Contracts\":8975:8996  status == Status.OPEN */\n              0x02\n              dup2\n              gt\n              iszero\n              tag_81\n              jumpi\n              tag_82\n              tag_60\n              jump\t// in\n            tag_82:\n            tag_81:\n                /* \"Contracts\":8975:8981  status */\n              0x06\n              0x00\n              swap1\n              sload\n              swap1\n              0x0100\n              exp\n              swap1\n              div\n              0xff\n              and\n                /* \"Contracts\":8975:8996  status == Status.OPEN */\n              0x02\n              dup2\n              gt\n              iszero\n              tag_83\n              jumpi\n              tag_84\n              tag_60\n              jump\t// in\n            tag_84:\n            tag_83:\n              eq\n                /* \"Contracts\":8967:9037  require(status == Status.OPEN, \"Contract status is not equal to open\") */\n              tag_85\n              jumpi\n              mload(0x40)\n              0x08c379a000000000000000000000000000000000000000000000000000000000\n              dup2\n              mstore\n              0x04\n              add\n              tag_86\n              swap1\n              tag_65\n              jump\t// in\n            tag_86:\n              mload(0x40)\n              dup1\n              swap2\n              sub\n              swap1\n              revert\n            tag_85:\n                /* \"Contracts\":9505:9512  referee */\n              0x01\n              0x00\n              swap1\n              sload\n              swap1\n              0x0100\n              exp\n              swap1\n              div\n              0xffffffffffffffffffffffffffffffffffffffff\n              and\n                /* \"Contracts\":9492:9512  tx.origin == referee */\n              0xffffffffffffffffffffffffffffffffffffffff\n              and\n                /* \"Contracts\":9492:9501  tx.origin */\n              origin\n                /* \"Contracts\":9492:9512  tx.origin == referee */\n              0xffffffffffffffffffffffffffffffffffffffff\n              and\n              eq\n                /* \"Contracts\":9484:9553  require(tx.origin == referee, \"Only referee can complete a contract\") */\n              tag_88\n              jumpi\n              mload(0x40)\n              0x08c379a000000000000000000000000000000000000000000000000000000000\n              dup2\n              mstore\n              0x04\n              add\n              tag_89\n              swap1\n              tag_90\n              jump\t// in\n            tag_89:\n              mload(0x40)\n              dup1\n              swap2\n              sub\n              swap1\n              revert\n            tag_88:\n                /* \"Contracts\":9571:9578  creator */\n              0x00\n              dup1\n              sload\n              swap1\n              0x0100\n              exp\n              swap1\n              div\n              0xffffffffffffffffffffffffffffffffffffffff\n              and\n                /* \"Contracts\":9563:9588  payable(creator).transfer */\n              0xffffffffffffffffffffffffffffffffffffffff\n              and\n                /* \"Contracts\":9563:9611  payable(creator).transfer(address(this).balance) */\n              0x08fc\n                /* \"Contracts\":9589:9610  address(this).balance */\n              selfbalance\n                /* \"Contracts\":9563:9611  payable(creator).transfer(address(this).balance) */\n              swap1\n              dup2\n              iszero\n              mul\n              swap1\n              mload(0x40)\n              0x00\n              mload(0x40)\n              dup1\n              dup4\n              sub\n              dup2\n              dup6\n              dup9\n              dup9\n              call\n              swap4\n              pop\n              pop\n              pop\n              pop\n              iszero\n              dup1\n              iszero\n              tag_92\n              jumpi\n              returndatasize\n              0x00\n              dup1\n              returndatacopy\n              revert(0x00, returndatasize)\n            tag_92:\n              pop\n                /* \"Contracts\":9630:9644  Status.SUCCESS */\n              0x01\n                /* \"Contracts\":9621:9627  status */\n              0x06\n              0x00\n                /* \"Contracts\":9621:9644  status = Status.SUCCESS */\n              0x0100\n              exp\n              dup2\n              sload\n              dup2\n              0xff\n              mul\n              not\n              and\n              swap1\n              dup4\n              0x02\n              dup2\n              gt\n              iszero\n              tag_93\n              jumpi\n              tag_94\n              tag_60\n              jump\t// in\n            tag_94:\n            tag_93:\n              mul\n              or\n              swap1\n              sstore\n              pop\n                /* \"Contracts\":9661:9665  this */\n              address\n                /* \"Contracts\":9654:9665  return this */\n              swap1\n              pop\n                /* \"Contracts\":9387:9672  function completeContract() public payable restricted returns (AccountabilityContract) {... */\n              swap1\n              jump\t// out\n                /* \"#utility.yul\":7:133   */\n            tag_95:\n                /* \"#utility.yul\":44:51   */\n              0x00\n                /* \"#utility.yul\":84:126   */\n              0xffffffffffffffffffffffffffffffffffffffff\n                /* \"#utility.yul\":77:82   */\n              dup3\n                /* \"#utility.yul\":73:127   */\n              and\n                /* \"#utility.yul\":62:127   */\n              swap1\n              pop\n                /* \"#utility.yul\":7:133   */\n              swap2\n              swap1\n              pop\n              jump\t// out\n                /* \"#utility.yul\":139:235   */\n            tag_96:\n                /* \"#utility.yul\":176:183   */\n              0x00\n                /* \"#utility.yul\":205:229   */\n              tag_124\n                /* \"#utility.yul\":223:228   */\n              dup3\n                /* \"#utility.yul\":205:229   */\n              tag_95\n              jump\t// in\n            tag_124:\n                /* \"#utility.yul\":194:229   */\n              swap1\n              pop\n                /* \"#utility.yul\":139:235   */\n              swap2\n              swap1\n              pop\n              jump\t// out\n                /* \"#utility.yul\":241:359   */\n            tag_97:\n                /* \"#utility.yul\":328:352   */\n              tag_126\n                /* \"#utility.yul\":346:351   */\n              dup2\n                /* \"#utility.yul\":328:352   */\n              tag_96\n              jump\t// in\n            tag_126:\n                /* \"#utility.yul\":323:326   */\n              dup3\n                /* \"#utility.yul\":316:353   */\n              mstore\n                /* \"#utility.yul\":241:359   */\n              pop\n              pop\n              jump\t// out\n                /* \"#utility.yul\":365:587   */\n            tag_16:\n                /* \"#utility.yul\":458:462   */\n              0x00\n                /* \"#utility.yul\":496:498   */\n              0x20\n                /* \"#utility.yul\":485:494   */\n              dup3\n                /* \"#utility.yul\":481:499   */\n              add\n                /* \"#utility.yul\":473:499   */\n              swap1\n              pop\n                /* \"#utility.yul\":509:580   */\n              tag_128\n                /* \"#utility.yul\":577:578   */\n              0x00\n                /* \"#utility.yul\":566:575   */\n              dup4\n                /* \"#utility.yul\":562:579   */\n              add\n                /* \"#utility.yul\":553:559   */\n              dup5\n                /* \"#utility.yul\":509:580   */\n              tag_97\n              jump\t// in\n            tag_128:\n                /* \"#utility.yul\":365:587   */\n              swap3\n              swap2\n              pop\n              pop\n              jump\t// out\n                /* \"#utility.yul\":593:692   */\n            tag_98:\n                /* \"#utility.yul\":645:651   */\n              0x00\n                /* \"#utility.yul\":679:684   */\n              dup2\n                /* \"#utility.yul\":673:685   */\n              mload\n                /* \"#utility.yul\":663:685   */\n              swap1\n              pop\n                /* \"#utility.yul\":593:692   */\n              swap2\n              swap1\n              pop\n              jump\t// out\n                /* \"#utility.yul\":698:867   */\n            tag_99:\n                /* \"#utility.yul\":782:793   */\n              0x00\n                /* \"#utility.yul\":816:822   */\n              dup3\n                /* \"#utility.yul\":811:814   */\n              dup3\n                /* \"#utility.yul\":804:823   */\n              mstore\n                /* \"#utility.yul\":856:860   */\n              0x20\n                /* \"#utility.yul\":851:854   */\n              dup3\n                /* \"#utility.yul\":847:861   */\n              add\n                /* \"#utility.yul\":832:861   */\n              swap1\n              pop\n                /* \"#utility.yul\":698:867   */\n              swap3\n              swap2\n              pop\n              pop\n              jump\t// out\n                /* \"#utility.yul\":873:1180   */\n            tag_100:\n                /* \"#utility.yul\":941:942   */\n              0x00\n                /* \"#utility.yul\":951:1064   */\n            tag_132:\n                /* \"#utility.yul\":965:971   */\n              dup4\n                /* \"#utility.yul\":962:963   */\n              dup2\n                /* \"#utility.yul\":959:972   */\n              lt\n                /* \"#utility.yul\":951:1064   */\n              iszero\n              tag_134\n              jumpi\n                /* \"#utility.yul\":1050:1051   */\n              dup1\n                /* \"#utility.yul\":1045:1048   */\n              dup3\n                /* \"#utility.yul\":1041:1052   */\n              add\n                /* \"#utility.yul\":1035:1053   */\n              mload\n                /* \"#utility.yul\":1031:1032   */\n              dup2\n                /* \"#utility.yul\":1026:1029   */\n              dup5\n                /* \"#utility.yul\":1022:1033   */\n              add\n                /* \"#utility.yul\":1015:1054   */\n              mstore\n                /* \"#utility.yul\":987:989   */\n              0x20\n                /* \"#utility.yul\":984:985   */\n              dup2\n                /* \"#utility.yul\":980:990   */\n              add\n                /* \"#utility.yul\":975:990   */\n              swap1\n              pop\n                /* \"#utility.yul\":951:1064   */\n              jump(tag_132)\n            tag_134:\n                /* \"#utility.yul\":1082:1088   */\n              dup4\n                /* \"#utility.yul\":1079:1080   */\n              dup2\n                /* \"#utility.yul\":1076:1089   */\n              gt\n                /* \"#utility.yul\":1073:1174   */\n              iszero\n              tag_135\n              jumpi\n                /* \"#utility.yul\":1162:1163   */\n              0x00\n                /* \"#utility.yul\":1153:1159   */\n              dup5\n                /* \"#utility.yul\":1148:1151   */\n              dup5\n                /* \"#utility.yul\":1144:1160   */\n              add\n                /* \"#utility.yul\":1137:1164   */\n              mstore\n                /* \"#utility.yul\":1073:1174   */\n            tag_135:\n                /* \"#utility.yul\":922:1180   */\n              pop\n                /* \"#utility.yul\":873:1180   */\n              pop\n              pop\n              pop\n              jump\t// out\n                /* \"#utility.yul\":1186:1288   */\n            tag_101:\n                /* \"#utility.yul\":1227:1233   */\n              0x00\n                /* \"#utility.yul\":1278:1280   */\n              0x1f\n                /* \"#utility.yul\":1274:1281   */\n              not\n                /* \"#utility.yul\":1269:1271   */\n              0x1f\n                /* \"#utility.yul\":1262:1267   */\n              dup4\n                /* \"#utility.yul\":1258:1272   */\n              add\n                /* \"#utility.yul\":1254:1282   */\n              and\n                /* \"#utility.yul\":1244:1282   */\n              swap1\n              pop\n                /* \"#utility.yul\":1186:1288   */\n              swap2\n              swap1\n              pop\n              jump\t// out\n                /* \"#utility.yul\":1294:1658   */\n            tag_102:\n                /* \"#utility.yul\":1382:1385   */\n              0x00\n                /* \"#utility.yul\":1410:1449   */\n              tag_138\n                /* \"#utility.yul\":1443:1448   */\n              dup3\n                /* \"#utility.yul\":1410:1449   */\n              tag_98\n              jump\t// in\n            tag_138:\n                /* \"#utility.yul\":1465:1536   */\n              tag_139\n                /* \"#utility.yul\":1529:1535   */\n              dup2\n                /* \"#utility.yul\":1524:1527   */\n              dup6\n                /* \"#utility.yul\":1465:1536   */\n              tag_99\n              jump\t// in\n            tag_139:\n                /* \"#utility.yul\":1458:1536   */\n              swap4\n              pop\n                /* \"#utility.yul\":1545:1597   */\n              tag_140\n                /* \"#utility.yul\":1590:1596   */\n              dup2\n                /* \"#utility.yul\":1585:1588   */\n              dup6\n                /* \"#utility.yul\":1578:1582   */\n              0x20\n                /* \"#utility.yul\":1571:1576   */\n              dup7\n                /* \"#utility.yul\":1567:1583   */\n              add\n                /* \"#utility.yul\":1545:1597   */\n              tag_100\n              jump\t// in\n            tag_140:\n                /* \"#utility.yul\":1622:1651   */\n              tag_141\n                /* \"#utility.yul\":1644:1650   */\n              dup2\n                /* \"#utility.yul\":1622:1651   */\n              tag_101\n              jump\t// in\n            tag_141:\n                /* \"#utility.yul\":1617:1620   */\n              dup5\n                /* \"#utility.yul\":1613:1652   */\n              add\n                /* \"#utility.yul\":1606:1652   */\n              swap2\n              pop\n                /* \"#utility.yul\":1386:1658   */\n              pop\n                /* \"#utility.yul\":1294:1658   */\n              swap3\n              swap2\n              pop\n              pop\n              jump\t// out\n                /* \"#utility.yul\":1664:1977   */\n            tag_21:\n                /* \"#utility.yul\":1777:1781   */\n              0x00\n                /* \"#utility.yul\":1815:1817   */\n              0x20\n                /* \"#utility.yul\":1804:1813   */\n              dup3\n                /* \"#utility.yul\":1800:1818   */\n              add\n                /* \"#utility.yul\":1792:1818   */\n              swap1\n              pop\n                /* \"#utility.yul\":1864:1873   */\n              dup2\n                /* \"#utility.yul\":1858:1862   */\n              dup2\n                /* \"#utility.yul\":1854:1874   */\n              sub\n                /* \"#utility.yul\":1850:1851   */\n              0x00\n                /* \"#utility.yul\":1839:1848   */\n              dup4\n                /* \"#utility.yul\":1835:1852   */\n              add\n                /* \"#utility.yul\":1828:1875   */\n              mstore\n                /* \"#utility.yul\":1892:1970   */\n              tag_143\n                /* \"#utility.yul\":1965:1969   */\n              dup2\n                /* \"#utility.yul\":1956:1962   */\n              dup5\n                /* \"#utility.yul\":1892:1970   */\n              tag_102\n              jump\t// in\n            tag_143:\n                /* \"#utility.yul\":1884:1970   */\n              swap1\n              pop\n                /* \"#utility.yul\":1664:1977   */\n              swap3\n              swap2\n              pop\n              pop\n              jump\t// out\n                /* \"#utility.yul\":1983:2163   */\n            tag_60:\n                /* \"#utility.yul\":2031:2108   */\n              0x4e487b7100000000000000000000000000000000000000000000000000000000\n                /* \"#utility.yul\":2028:2029   */\n              0x00\n                /* \"#utility.yul\":2021:2109   */\n              mstore\n                /* \"#utility.yul\":2128:2132   */\n              0x21\n                /* \"#utility.yul\":2125:2126   */\n              0x04\n                /* \"#utility.yul\":2118:2133   */\n              mstore\n                /* \"#utility.yul\":2152:2156   */\n              0x24\n                /* \"#utility.yul\":2149:2150   */\n              0x00\n                /* \"#utility.yul\":2142:2157   */\n              revert\n                /* \"#utility.yul\":2169:2284   */\n            tag_103:\n                /* \"#utility.yul\":2252:2253   */\n              0x03\n                /* \"#utility.yul\":2245:2250   */\n              dup2\n                /* \"#utility.yul\":2242:2254   */\n              lt\n                /* \"#utility.yul\":2232:2278   */\n              tag_146\n              jumpi\n                /* \"#utility.yul\":2258:2276   */\n              tag_147\n              tag_60\n              jump\t// in\n            tag_147:\n                /* \"#utility.yul\":2232:2278   */\n            tag_146:\n                /* \"#utility.yul\":2169:2284   */\n              pop\n              jump\t// out\n                /* \"#utility.yul\":2290:2421   */\n            tag_104:\n                /* \"#utility.yul\":2337:2344   */\n              0x00\n                /* \"#utility.yul\":2366:2371   */\n              dup2\n                /* \"#utility.yul\":2355:2371   */\n              swap1\n              pop\n                /* \"#utility.yul\":2372:2415   */\n              tag_149\n                /* \"#utility.yul\":2409:2414   */\n              dup3\n                /* \"#utility.yul\":2372:2415   */\n              tag_103\n              jump\t// in\n            tag_149:\n                /* \"#utility.yul\":2290:2421   */\n              swap2\n              swap1\n              pop\n              jump\t// out\n                /* \"#utility.yul\":2427:2558   */\n            tag_105:\n                /* \"#utility.yul\":2485:2494   */\n              0x00\n                /* \"#utility.yul\":2518:2552   */\n              tag_151\n                /* \"#utility.yul\":2546:2551   */\n              dup3\n                /* \"#utility.yul\":2518:2552   */\n              tag_104\n              jump\t// in\n            tag_151:\n                /* \"#utility.yul\":2505:2552   */\n              swap1\n              pop\n                /* \"#utility.yul\":2427:2558   */\n              swap2\n              swap1\n              pop\n              jump\t// out\n                /* \"#utility.yul\":2564:2711   */\n            tag_106:\n                /* \"#utility.yul\":2659:2704   */\n              tag_153\n                /* \"#utility.yul\":2698:2703   */\n              dup2\n                /* \"#utility.yul\":2659:2704   */\n              tag_105\n              jump\t// in\n            tag_153:\n                /* \"#utility.yul\":2654:2657   */\n              dup3\n                /* \"#utility.yul\":2647:2705   */\n              mstore\n                /* \"#utility.yul\":2564:2711   */\n              pop\n              pop\n              jump\t// out\n                /* \"#utility.yul\":2717:2955   */\n            tag_26:\n                /* \"#utility.yul\":2818:2822   */\n              0x00\n                /* \"#utility.yul\":2856:2858   */\n              0x20\n                /* \"#utility.yul\":2845:2854   */\n              dup3\n                /* \"#utility.yul\":2841:2859   */\n              add\n                /* \"#utility.yul\":2833:2859   */\n              swap1\n              pop\n                /* \"#utility.yul\":2869:2948   */\n              tag_155\n                /* \"#utility.yul\":2945:2946   */\n              0x00\n                /* \"#utility.yul\":2934:2943   */\n              dup4\n                /* \"#utility.yul\":2930:2947   */\n              add\n                /* \"#utility.yul\":2921:2927   */\n              dup5\n                /* \"#utility.yul\":2869:2948   */\n              tag_106\n              jump\t// in\n            tag_155:\n                /* \"#utility.yul\":2717:2955   */\n              swap3\n              swap2\n              pop\n              pop\n              jump\t// out\n                /* \"#utility.yul\":2961:3021   */\n            tag_107:\n                /* \"#utility.yul\":2989:2992   */\n              0x00\n                /* \"#utility.yul\":3010:3015   */\n              dup2\n                /* \"#utility.yul\":3003:3015   */\n              swap1\n              pop\n                /* \"#utility.yul\":2961:3021   */\n              swap2\n              swap1\n              pop\n              jump\t// out\n                /* \"#utility.yul\":3027:3169   */\n            tag_108:\n                /* \"#utility.yul\":3077:3086   */\n              0x00\n                /* \"#utility.yul\":3110:3163   */\n              tag_158\n                /* \"#utility.yul\":3128:3162   */\n              tag_159\n                /* \"#utility.yul\":3137:3161   */\n              tag_160\n                /* \"#utility.yul\":3155:3160   */\n              dup5\n                /* \"#utility.yul\":3137:3161   */\n              tag_95\n              jump\t// in\n            tag_160:\n                /* \"#utility.yul\":3128:3162   */\n              tag_107\n              jump\t// in\n            tag_159:\n                /* \"#utility.yul\":3110:3163   */\n              tag_95\n              jump\t// in\n            tag_158:\n                /* \"#utility.yul\":3097:3163   */\n              swap1\n              pop\n                /* \"#utility.yul\":3027:3169   */\n              swap2\n              swap1\n              pop\n              jump\t// out\n                /* \"#utility.yul\":3175:3301   */\n            tag_109:\n                /* \"#utility.yul\":3225:3234   */\n              0x00\n                /* \"#utility.yul\":3258:3295   */\n              tag_162\n                /* \"#utility.yul\":3289:3294   */\n              dup3\n                /* \"#utility.yul\":3258:3295   */\n              tag_108\n              jump\t// in\n            tag_162:\n                /* \"#utility.yul\":3245:3295   */\n              swap1\n              pop\n                /* \"#utility.yul\":3175:3301   */\n              swap2\n              swap1\n              pop\n              jump\t// out\n                /* \"#utility.yul\":3307:3463   */\n            tag_110:\n                /* \"#utility.yul\":3387:3396   */\n              0x00\n                /* \"#utility.yul\":3420:3457   */\n              tag_164\n                /* \"#utility.yul\":3451:3456   */\n              dup3\n                /* \"#utility.yul\":3420:3457   */\n              tag_109\n              jump\t// in\n            tag_164:\n                /* \"#utility.yul\":3407:3457   */\n              swap1\n              pop\n                /* \"#utility.yul\":3307:3463   */\n              swap2\n              swap1\n              pop\n              jump\t// out\n                /* \"#utility.yul\":3469:3660   */\n            tag_111:\n                /* \"#utility.yul\":3586:3653   */\n              tag_166\n                /* \"#utility.yul\":3647:3652   */\n              dup2\n                /* \"#utility.yul\":3586:3653   */\n              tag_110\n              jump\t// in\n            tag_166:\n                /* \"#utility.yul\":3581:3584   */\n              dup3\n                /* \"#utility.yul\":3574:3654   */\n              mstore\n                /* \"#utility.yul\":3469:3660   */\n              pop\n              pop\n              jump\t// out\n                /* \"#utility.yul\":3666:3948   */\n            tag_30:\n                /* \"#utility.yul\":3789:3793   */\n              0x00\n                /* \"#utility.yul\":3827:3829   */\n              0x20\n                /* \"#utility.yul\":3816:3825   */\n              dup3\n                /* \"#utility.yul\":3812:3830   */\n              add\n                /* \"#utility.yul\":3804:3830   */\n              swap1\n              pop\n                /* \"#utility.yul\":3840:3941   */\n              tag_168\n                /* \"#utility.yul\":3938:3939   */\n              0x00\n                /* \"#utility.yul\":3927:3936   */\n              dup4\n                /* \"#utility.yul\":3923:3940   */\n              add\n                /* \"#utility.yul\":3914:3920   */\n              dup5\n                /* \"#utility.yul\":3840:3941   */\n              tag_111\n              jump\t// in\n            tag_168:\n                /* \"#utility.yul\":3666:3948   */\n              swap3\n              swap2\n              pop\n              pop\n              jump\t// out\n                /* \"#utility.yul\":3954:4031   */\n            tag_112:\n                /* \"#utility.yul\":3991:3998   */\n              0x00\n                /* \"#utility.yul\":4020:4025   */\n              dup2\n                /* \"#utility.yul\":4009:4025   */\n              swap1\n              pop\n                /* \"#utility.yul\":3954:4031   */\n              swap2\n              swap1\n              pop\n              jump\t// out\n                /* \"#utility.yul\":4037:4155   */\n            tag_113:\n                /* \"#utility.yul\":4124:4148   */\n              tag_171\n                /* \"#utility.yul\":4142:4147   */\n              dup2\n                /* \"#utility.yul\":4124:4148   */\n              tag_112\n              jump\t// in\n            tag_171:\n                /* \"#utility.yul\":4119:4122   */\n              dup3\n                /* \"#utility.yul\":4112:4149   */\n              mstore\n                /* \"#utility.yul\":4037:4155   */\n              pop\n              pop\n              jump\t// out\n                /* \"#utility.yul\":4161:4383   */\n            tag_47:\n                /* \"#utility.yul\":4254:4258   */\n              0x00\n                /* \"#utility.yul\":4292:4294   */\n              0x20\n                /* \"#utility.yul\":4281:4290   */\n              dup3\n                /* \"#utility.yul\":4277:4295   */\n              add\n                /* \"#utility.yul\":4269:4295   */\n              swap1\n              pop\n                /* \"#utility.yul\":4305:4376   */\n              tag_173\n                /* \"#utility.yul\":4373:4374   */\n              0x00\n                /* \"#utility.yul\":4362:4371   */\n              dup4\n                /* \"#utility.yul\":4358:4375   */\n              add\n                /* \"#utility.yul\":4349:4355   */\n              dup5\n                /* \"#utility.yul\":4305:4376   */\n              tag_113\n              jump\t// in\n            tag_173:\n                /* \"#utility.yul\":4161:4383   */\n              swap3\n              swap2\n              pop\n              pop\n              jump\t// out\n                /* \"#utility.yul\":4389:4569   */\n            tag_114:\n                /* \"#utility.yul\":4437:4514   */\n              0x4e487b7100000000000000000000000000000000000000000000000000000000\n                /* \"#utility.yul\":4434:4435   */\n              0x00\n                /* \"#utility.yul\":4427:4515   */\n              mstore\n                /* \"#utility.yul\":4534:4538   */\n              0x22\n                /* \"#utility.yul\":4531:4532   */\n              0x04\n                /* \"#utility.yul\":4524:4539   */\n              mstore\n                /* \"#utility.yul\":4558:4562   */\n              0x24\n                /* \"#utility.yul\":4555:4556   */\n              0x00\n                /* \"#utility.yul\":4548:4563   */\n              revert\n                /* \"#utility.yul\":4575:4895   */\n            tag_52:\n                /* \"#utility.yul\":4619:4625   */\n              0x00\n                /* \"#utility.yul\":4656:4657   */\n              0x02\n                /* \"#utility.yul\":4650:4654   */\n              dup3\n                /* \"#utility.yul\":4646:4658   */\n              div\n                /* \"#utility.yul\":4636:4658   */\n              swap1\n              pop\n                /* \"#utility.yul\":4703:4704   */\n              0x01\n                /* \"#utility.yul\":4697:4701   */\n              dup3\n                /* \"#utility.yul\":4693:4705   */\n              and\n                /* \"#utility.yul\":4724:4742   */\n              dup1\n                /* \"#utility.yul\":4714:4795   */\n              tag_176\n              jumpi\n                /* \"#utility.yul\":4780:4784   */\n              0x7f\n                /* \"#utility.yul\":4772:4778   */\n              dup3\n                /* \"#utility.yul\":4768:4785   */\n              and\n                /* \"#utility.yul\":4758:4785   */\n              swap2\n              pop\n                /* \"#utility.yul\":4714:4795   */\n            tag_176:\n                /* \"#utility.yul\":4842:4844   */\n              0x20\n                /* \"#utility.yul\":4834:4840   */\n              dup3\n                /* \"#utility.yul\":4831:4845   */\n              lt\n                /* \"#utility.yul\":4811:4829   */\n              dup2\n                /* \"#utility.yul\":4808:4846   */\n              eq\n                /* \"#utility.yul\":4805:4889   */\n              iszero\n              tag_177\n              jumpi\n                /* \"#utility.yul\":4861:4879   */\n              tag_178\n              tag_114\n              jump\t// in\n            tag_178:\n                /* \"#utility.yul\":4805:4889   */\n            tag_177:\n                /* \"#utility.yul\":4626:4895   */\n              pop\n                /* \"#utility.yul\":4575:4895   */\n              swap2\n              swap1\n              pop\n              jump\t// out\n                /* \"#utility.yul\":4901:5124   */\n            tag_115:\n                /* \"#utility.yul\":5041:5075   */\n              0x436f6e747261637420737461747573206973206e6f7420657175616c20746f20\n                /* \"#utility.yul\":5037:5038   */\n              0x00\n                /* \"#utility.yul\":5029:5035   */\n              dup3\n                /* \"#utility.yul\":5025:5039   */\n              add\n                /* \"#utility.yul\":5018:5076   */\n              mstore\n                /* \"#utility.yul\":5110:5116   */\n              0x6f70656e00000000000000000000000000000000000000000000000000000000\n                /* \"#utility.yul\":5105:5107   */\n              0x20\n                /* \"#utility.yul\":5097:5103   */\n              dup3\n                /* \"#utility.yul\":5093:5108   */\n              add\n                /* \"#utility.yul\":5086:5117   */\n              mstore\n                /* \"#utility.yul\":4901:5124   */\n              pop\n              jump\t// out\n                /* \"#utility.yul\":5130:5496   */\n            tag_116:\n                /* \"#utility.yul\":5272:5275   */\n              0x00\n                /* \"#utility.yul\":5293:5360   */\n              tag_181\n                /* \"#utility.yul\":5357:5359   */\n              0x24\n                /* \"#utility.yul\":5352:5355   */\n              dup4\n                /* \"#utility.yul\":5293:5360   */\n              tag_99\n              jump\t// in\n            tag_181:\n                /* \"#utility.yul\":5286:5360   */\n              swap2\n              pop\n                /* \"#utility.yul\":5369:5462   */\n              tag_182\n                /* \"#utility.yul\":5458:5461   */\n              dup3\n                /* \"#utility.yul\":5369:5462   */\n              tag_115\n              jump\t// in\n            tag_182:\n                /* \"#utility.yul\":5487:5489   */\n              0x40\n                /* \"#utility.yul\":5482:5485   */\n              dup3\n                /* \"#utility.yul\":5478:5490   */\n              add\n                /* \"#utility.yul\":5471:5490   */\n              swap1\n              pop\n                /* \"#utility.yul\":5130:5496   */\n              swap2\n              swap1\n              pop\n              jump\t// out\n                /* \"#utility.yul\":5502:5921   */\n            tag_65:\n                /* \"#utility.yul\":5668:5672   */\n              0x00\n                /* \"#utility.yul\":5706:5708   */\n              0x20\n                /* \"#utility.yul\":5695:5704   */\n              dup3\n                /* \"#utility.yul\":5691:5709   */\n              add\n                /* \"#utility.yul\":5683:5709   */\n              swap1\n              pop\n                /* \"#utility.yul\":5755:5764   */\n              dup2\n                /* \"#utility.yul\":5749:5753   */\n              dup2\n                /* \"#utility.yul\":5745:5765   */\n              sub\n                /* \"#utility.yul\":5741:5742   */\n              0x00\n                /* \"#utility.yul\":5730:5739   */\n              dup4\n                /* \"#utility.yul\":5726:5743   */\n              add\n                /* \"#utility.yul\":5719:5766   */\n              mstore\n                /* \"#utility.yul\":5783:5914   */\n              tag_184\n                /* \"#utility.yul\":5909:5913   */\n              dup2\n                /* \"#utility.yul\":5783:5914   */\n              tag_116\n              jump\t// in\n            tag_184:\n                /* \"#utility.yul\":5775:5914   */\n              swap1\n              pop\n                /* \"#utility.yul\":5502:5921   */\n              swap2\n              swap1\n              pop\n              jump\t// out\n                /* \"#utility.yul\":5927:6155   */\n            tag_117:\n                /* \"#utility.yul\":6067:6101   */\n              0x4f6e6c792072656665726565206f722063726561746f722063616e206661696c\n                /* \"#utility.yul\":6063:6064   */\n              0x00\n                /* \"#utility.yul\":6055:6061   */\n              dup3\n                /* \"#utility.yul\":6051:6065   */\n              add\n                /* \"#utility.yul\":6044:6102   */\n              mstore\n                /* \"#utility.yul\":6136:6147   */\n              0x20636f6e74726163740000000000000000000000000000000000000000000000\n                /* \"#utility.yul\":6131:6133   */\n              0x20\n                /* \"#utility.yul\":6123:6129   */\n              dup3\n                /* \"#utility.yul\":6119:6134   */\n              add\n                /* \"#utility.yul\":6112:6148   */\n              mstore\n                /* \"#utility.yul\":5927:6155   */\n              pop\n              jump\t// out\n                /* \"#utility.yul\":6161:6527   */\n            tag_118:\n                /* \"#utility.yul\":6303:6306   */\n              0x00\n                /* \"#utility.yul\":6324:6391   */\n              tag_187\n                /* \"#utility.yul\":6388:6390   */\n              0x29\n                /* \"#utility.yul\":6383:6386   */\n              dup4\n                /* \"#utility.yul\":6324:6391   */\n              tag_99\n              jump\t// in\n            tag_187:\n                /* \"#utility.yul\":6317:6391   */\n              swap2\n              pop\n                /* \"#utility.yul\":6400:6493   */\n              tag_188\n                /* \"#utility.yul\":6489:6492   */\n              dup3\n                /* \"#utility.yul\":6400:6493   */\n              tag_117\n              jump\t// in\n            tag_188:\n                /* \"#utility.yul\":6518:6520   */\n              0x40\n                /* \"#utility.yul\":6513:6516   */\n              dup3\n                /* \"#utility.yul\":6509:6521   */\n              add\n                /* \"#utility.yul\":6502:6521   */\n              swap1\n              pop\n                /* \"#utility.yul\":6161:6527   */\n              swap2\n              swap1\n              pop\n              jump\t// out\n                /* \"#utility.yul\":6533:6952   */\n            tag_70:\n                /* \"#utility.yul\":6699:6703   */\n              0x00\n                /* \"#utility.yul\":6737:6739   */\n              0x20\n                /* \"#utility.yul\":6726:6735   */\n              dup3\n                /* \"#utility.yul\":6722:6740   */\n              add\n                /* \"#utility.yul\":6714:6740   */\n              swap1\n              pop\n                /* \"#utility.yul\":6786:6795   */\n              dup2\n                /* \"#utility.yul\":6780:6784   */\n              dup2\n                /* \"#utility.yul\":6776:6796   */\n              sub\n                /* \"#utility.yul\":6772:6773   */\n              0x00\n                /* \"#utility.yul\":6761:6770   */\n              dup4\n                /* \"#utility.yul\":6757:6774   */\n              add\n                /* \"#utility.yul\":6750:6797   */\n              mstore\n                /* \"#utility.yul\":6814:6945   */\n              tag_190\n                /* \"#utility.yul\":6940:6944   */\n              dup2\n                /* \"#utility.yul\":6814:6945   */\n              tag_118\n              jump\t// in\n            tag_190:\n                /* \"#utility.yul\":6806:6945   */\n              swap1\n              pop\n                /* \"#utility.yul\":6533:6952   */\n              swap2\n              swap1\n              pop\n              jump\t// out\n                /* \"#utility.yul\":6958:7181   */\n            tag_119:\n                /* \"#utility.yul\":7098:7132   */\n              0x4f6e6c7920726566657265652063616e20636f6d706c657465206120636f6e74\n                /* \"#utility.yul\":7094:7095   */\n              0x00\n                /* \"#utility.yul\":7086:7092   */\n              dup3\n                /* \"#utility.yul\":7082:7096   */\n              add\n                /* \"#utility.yul\":7075:7133   */\n              mstore\n                /* \"#utility.yul\":7167:7173   */\n              0x7261637400000000000000000000000000000000000000000000000000000000\n                /* \"#utility.yul\":7162:7164   */\n              0x20\n                /* \"#utility.yul\":7154:7160   */\n              dup3\n                /* \"#utility.yul\":7150:7165   */\n              add\n                /* \"#utility.yul\":7143:7174   */\n              mstore\n                /* \"#utility.yul\":6958:7181   */\n              pop\n              jump\t// out\n                /* \"#utility.yul\":7187:7553   */\n            tag_120:\n                /* \"#utility.yul\":7329:7332   */\n              0x00\n                /* \"#utility.yul\":7350:7417   */\n              tag_193\n                /* \"#utility.yul\":7414:7416   */\n              0x24\n                /* \"#utility.yul\":7409:7412   */\n              dup4\n                /* \"#utility.yul\":7350:7417   */\n              tag_99\n              jump\t// in\n            tag_193:\n                /* \"#utility.yul\":7343:7417   */\n              swap2\n              pop\n                /* \"#utility.yul\":7426:7519   */\n              tag_194\n                /* \"#utility.yul\":7515:7518   */\n              dup3\n                /* \"#utility.yul\":7426:7519   */\n              tag_119\n              jump\t// in\n            tag_194:\n                /* \"#utility.yul\":7544:7546   */\n              0x40\n                /* \"#utility.yul\":7539:7542   */\n              dup3\n                /* \"#utility.yul\":7535:7547   */\n              add\n                /* \"#utility.yul\":7528:7547   */\n              swap1\n              pop\n                /* \"#utility.yul\":7187:7553   */\n              swap2\n              swap1\n              pop\n              jump\t// out\n                /* \"#utility.yul\":7559:7978   */\n            tag_90:\n                /* \"#utility.yul\":7725:7729   */\n              0x00\n                /* \"#utility.yul\":7763:7765   */\n              0x20\n                /* \"#utility.yul\":7752:7761   */\n              dup3\n                /* \"#utility.yul\":7748:7766   */\n              add\n                /* \"#utility.yul\":7740:7766   */\n              swap1\n              pop\n                /* \"#utility.yul\":7812:7821   */\n              dup2\n                /* \"#utility.yul\":7806:7810   */\n              dup2\n                /* \"#utility.yul\":7802:7822   */\n              sub\n                /* \"#utility.yul\":7798:7799   */\n              0x00\n                /* \"#utility.yul\":7787:7796   */\n              dup4\n                /* \"#utility.yul\":7783:7800   */\n              add\n                /* \"#utility.yul\":7776:7823   */\n              mstore\n                /* \"#utility.yul\":7840:7971   */\n              tag_196\n                /* \"#utility.yul\":7966:7970   */\n              dup2\n                /* \"#utility.yul\":7840:7971   */\n              tag_120\n              jump\t// in\n            tag_196:\n                /* \"#utility.yul\":7832:7971   */\n              swap1\n              pop\n                /* \"#utility.yul\":7559:7978   */\n              swap2\n              swap1\n              pop\n              jump\t// out\n\n            auxdata: 0xa2646970667358221220df160ec1eaee6b86b785cdb844e4dc56012dc276f059724373a7285fffb98c0c64736f6c634300080c0033\n        }\n    }\n\n    auxdata: 0xa2646970667358221220ebcb60b41df675d0d8a86e8a7020640c7f5ad78c271a054a773255a1de1df24064736f6c634300080c0033\n}\n","bytecode":{"linkReferences":{},"object":"608060405234801561001057600080fd5b506144a7806100206000396000f3fe6080604052600436106200013a5760003560e01c806364a60b4711620000af578063b24e67d0116200006d578063b24e67d014620004e7578063b3b6633e146200052b578063cc785850146200055b578063dc0e0c131462000589578063e436e82614620005b9576200013a565b806364a60b4714620003a757806375ce46a714620003eb5780639051e234146200041b578063a87430ba146200045f578063a908f4fa14620004a3576200013a565b8063442a7bc711620000fd578063442a7bc7146200027d5780634841a88514620002c15780634ac0b82d14620002f15780634ea34671146200031f578063502c9bd51462000363576200013a565b806301af65e7146200013f5780630e865751146200016d57806319ee8bd414620001b157806338db44bc14620001f557806338fb42fd1462000239575b600080fd5b3480156200014c57600080fd5b506200016b60048036038101906200016591906200230e565b620005d9565b005b3480156200017a57600080fd5b5062000199600480360381019062000193919062002390565b62000971565b604051620001a89190620024a5565b60405180910390f35b348015620001be57600080fd5b50620001dd6004803603810190620001d79190620024c9565b62000b25565b604051620001ec9190620024a5565b60405180910390f35b3480156200020257600080fd5b506200022160048036038101906200021b9190620024fb565b62000bf7565b6040516200023091906200253e565b60405180910390f35b3480156200024657600080fd5b506200026560048036038101906200025f9190620024fb565b62000c37565b6040516200027491906200253e565b60405180910390f35b3480156200028a57600080fd5b50620002a96004803603810190620002a39190620024c9565b62000c77565b604051620002b89190620024a5565b60405180910390f35b348015620002ce57600080fd5b50620002d962000d48565b604051620002e891906200256c565b60405180910390f35b348015620002fe57600080fd5b506200031d60048036038101906200031791906200230e565b62000d4e565b005b3480156200032c57600080fd5b506200034b6004803603810190620003459190620024c9565b62000e56565b6040516200035a9190620024a5565b60405180910390f35b3480156200037057600080fd5b506200038f6004803603810190620003899190620024fb565b62000f28565b6040516200039e91906200253e565b60405180910390f35b348015620003b457600080fd5b50620003d36004803603810190620003cd9190620024c9565b62000f68565b604051620003e291906200256c565b60405180910390f35b348015620003f857600080fd5b506200040362000f86565b6040516200041291906200256c565b60405180910390f35b3480156200042857600080fd5b50620004476004803603810190620004419190620024c9565b62000f8c565b604051620004569190620024a5565b60405180910390f35b3480156200046c57600080fd5b506200048b6004803603810190620004859190620024c9565b6200105e565b6040516200049a91906200256c565b60405180910390f35b348015620004b057600080fd5b50620004cf6004803603810190620004c9919062002390565b6200107c565b604051620004de9190620024a5565b60405180910390f35b348015620004f457600080fd5b506200051360048036038101906200050d9190620024c9565b62001230565b604051620005229190620024a5565b60405180910390f35b3480156200053857600080fd5b506200054362001301565b6040516200055291906200256c565b60405180910390f35b3480156200056857600080fd5b506200058760048036038101906200058191906200230e565b62001307565b005b3480156200059657600080fd5b50620005a16200140f565b604051620005b091906200256c565b60405180910390f35b620005d76004803603810190620005d1919062002730565b62001415565b005b600081905060008173ffffffffffffffffffffffffffffffffffffffff166302d05d3f6040518163ffffffff1660e01b8152600401602060405180830381865afa1580156200062c573d6000803e3d6000fd5b505050506040513d601f19601f82011682018060405250810190620006529190620027f7565b9050600060028111156200066b576200066a62002829565b5b8273ffffffffffffffffffffffffffffffffffffffff1663200d2ed26040518163ffffffff1660e01b8152600401602060405180830381865afa158015620006b7573d6000803e3d6000fd5b505050506040513d601f19601f82011682018060405250810190620006dd919062002880565b6002811115620006f257620006f162002829565b5b1462000735576040517f08c379a00000000000000000000000000000000000000000000000000000000081526004016200072c9062002913565b60405180910390fd5b8373ffffffffffffffffffffffffffffffffffffffff168273ffffffffffffffffffffffffffffffffffffffff16633b1bebd16040518163ffffffff1660e01b8152600401602060405180830381865afa15801562000798573d6000803e3d6000fd5b505050506040513d601f19601f82011682018060405250810190620007be9190620027f7565b73ffffffffffffffffffffffffffffffffffffffff161462000817576040517f08c379a00000000000000000000000000000000000000000000000000000000081526004016200080e90620029ab565b60405180910390fd5b8073ffffffffffffffffffffffffffffffffffffffff163273ffffffffffffffffffffffffffffffffffffffff161462000888576040517f08c379a00000000000000000000000000000000000000000000000000000000081526004016200087f9062002a43565b60405180910390fd5b600081846040516200089a9062002279565b620008a792919062002a65565b604051809103906000f080158015620008c4573d6000803e3d6000fd5b509050600660008673ffffffffffffffffffffffffffffffffffffffff1673ffffffffffffffffffffffffffffffffffffffff168152602001908152602001600020600301819080600181540180825580915050600190039060005260206000200160009091909190916101000a81548173ffffffffffffffffffffffffffffffffffffffff021916908373ffffffffffffffffffffffffffffffffffffffff1602179055505050505050565b60606000831015620009ba576040517f08c379a0000000000000000000000000000000000000000000000000000000008152600401620009b19062002ae2565b60405180910390fd5b60038054905082111562000a05576040517f08c379a0000000000000000000000000000000000000000000000000000000008152600401620009fc9062002b7a565b60405180910390fd5b6000838362000a15919062002bcb565b67ffffffffffffffff81111562000a315762000a30620025a4565b5b60405190808252806020026020018201604052801562000a605781602001602082028036833780820191505090505b50905060008490505b8381101562000b1a576003818154811062000a895762000a8862002c06565b5b9060005260206000200160009054906101000a900473ffffffffffffffffffffffffffffffffffffffff1682828151811062000aca5762000ac962002c06565b5b602002602001019073ffffffffffffffffffffffffffffffffffffffff16908173ffffffffffffffffffffffffffffffffffffffff1681525050808062000b119062002c35565b91505062000a69565b508091505092915050565b6060600660008373ffffffffffffffffffffffffffffffffffffffff1673ffffffffffffffffffffffffffffffffffffffff16815260200190815260200160002060020180548060200260200160405190810160405280929190818152602001828054801562000beb57602002820191906000526020600020905b8160009054906101000a900473ffffffffffffffffffffffffffffffffffffffff1673ffffffffffffffffffffffffffffffffffffffff168152602001906001019080831162000ba0575b50505050509050919050565b6003818154811062000c0857600080fd5b906000526020600020016000915054906101000a900473ffffffffffffffffffffffffffffffffffffffff1681565b6008818154811062000c4857600080fd5b906000526020600020016000915054906101000a900473ffffffffffffffffffffffffffffffffffffffff1681565b60606000808373ffffffffffffffffffffffffffffffffffffffff1673ffffffffffffffffffffffffffffffffffffffff16815260200190815260200160002060010180548060200260200160405190810160405280929190818152602001828054801562000d3c57602002820191906000526020600020905b8160009054906101000a900473ffffffffffffffffffffffffffffffffffffffff1673ffffffffffffffffffffffffffffffffffffffff168152602001906001019080831162000cf1575b50505050509050919050565b60045481565b60008190508073ffffffffffffffffffffffffffffffffffffffff16632d398fa66040518163ffffffff1660e01b81526004016020604051808303816000875af115801562000da1573d6000803e3d6000fd5b505050506040513d601f19601f8201168201806040525081019062000dc7919062002cc8565b5062000dd4838362001888565b62000e518173ffffffffffffffffffffffffffffffffffffffff16633b1bebd16040518163ffffffff1660e01b8152600401602060405180830381865afa15801562000e24573d6000803e3d6000fd5b505050506040513d601f19601f8201168201806040525081019062000e4a9190620027f7565b8362001c45565b505050565b6060600660008373ffffffffffffffffffffffffffffffffffffffff1673ffffffffffffffffffffffffffffffffffffffff16815260200190815260200160002060030180548060200260200160405190810160405280929190818152602001828054801562000f1c57602002820191906000526020600020905b8160009054906101000a900473ffffffffffffffffffffffffffffffffffffffff1673ffffffffffffffffffffffffffffffffffffffff168152602001906001019080831162000ed1575b50505050509050919050565b6001818154811062000f3957600080fd5b906000526020600020016000915054906101000a900473ffffffffffffffffffffffffffffffffffffffff1681565b60066020528060005260406000206000915090508060000154905081565b60025481565b6060600660008373ffffffffffffffffffffffffffffffffffffffff1673ffffffffffffffffffffffffffffffffffffffff1681526020019081526020016000206001018054806020026020016040519081016040528092919081815260200182805480156200105257602002820191906000526020600020905b8160009054906101000a900473ffffffffffffffffffffffffffffffffffffffff1673ffffffffffffffffffffffffffffffffffffffff168152602001906001019080831162001007575b50505050509050919050565b60006020528060005260406000206000915090508060000154905081565b60606000831015620010c5576040517f08c379a0000000000000000000000000000000000000000000000000000000008152600401620010bc9062002ae2565b60405180910390fd5b60018054905082111562001110576040517f08c379a0000000000000000000000000000000000000000000000000000000008152600401620011079062002b7a565b60405180910390fd5b6000838362001120919062002bcb565b67ffffffffffffffff8111156200113c576200113b620025a4565b5b6040519080825280602002602001820160405280156200116b5781602001602082028036833780820191505090505b50905060008490505b8381101562001225576001818154811062001194576200119362002c06565b5b9060005260206000200160009054906101000a900473ffffffffffffffffffffffffffffffffffffffff16828281518110620011d557620011d462002c06565b5b602002602001019073ffffffffffffffffffffffffffffffffffffffff16908173ffffffffffffffffffffffffffffffffffffffff168152505080806200121c9062002c35565b91505062001174565b508091505092915050565b60606000808373ffffffffffffffffffffffffffffffffffffffff1673ffffffffffffffffffffffffffffffffffffffff168152602001908152602001600020600201805480602002602001604051908101604052809291908181526020018280548015620012f557602002820191906000526020600020905b8160009054906101000a900473ffffffffffffffffffffffffffffffffffffffff1673ffffffffffffffffffffffffffffffffffffffff1681526020019060010190808311620012aa575b50505050509050919050565b60075481565b60008190508073ffffffffffffffffffffffffffffffffffffffff1663b4fedc116040518163ffffffff1660e01b81526004016020604051808303816000875af11580156200135a573d6000803e3d6000fd5b505050506040513d601f19601f8201168201806040525081019062001380919062002cc8565b506200138d838362001888565b6200140a8173ffffffffffffffffffffffffffffffffffffffff16633b1bebd16040518163ffffffff1660e01b8152600401602060405180830381865afa158015620013dd573d6000803e3d6000fd5b505050506040513d601f19601f82011682018060405250810190620014039190620027f7565b8362001c45565b505050565b60055481565b60008060003373ffffffffffffffffffffffffffffffffffffffff1673ffffffffffffffffffffffffffffffffffffffff168152602001908152602001600020600001541415620014de5760026000815480929190620014759062002c35565b91905055506001339080600181540180825580915050600190039060005260206000200160009091909190916101000a81548173ffffffffffffffffffffffffffffffffffffffff021916908373ffffffffffffffffffffffffffffffffffffffff1602179055505b6000600660008673ffffffffffffffffffffffffffffffffffffffff1673ffffffffffffffffffffffffffffffffffffffff168152602001908152602001600020600001541415620015a857600760008154809291906200153f9062002c35565b91905055506008849080600181540180825580915050600190039060005260206000200160009091909190916101000a81548173ffffffffffffffffffffffffffffffffffffffff021916908373ffffffffffffffffffffffffffffffffffffffff1602179055505b600034338686868634604051620015bf9062002287565b620015d09695949392919062002de7565b6040518091039082f0905080158015620015ee573d6000803e3d6000fd5b50905060046000815480929190620016069062002c35565b91905055506003819080600181540180825580915050600190039060005260206000200160009091909190916101000a81548173ffffffffffffffffffffffffffffffffffffffff021916908373ffffffffffffffffffffffffffffffffffffffff160217905550346005600082825462001682919062002e62565b925050819055506000803373ffffffffffffffffffffffffffffffffffffffff1673ffffffffffffffffffffffffffffffffffffffff1681526020019081526020016000206000016000815480929190620016dd9062002c35565b91905055506000803373ffffffffffffffffffffffffffffffffffffffff1673ffffffffffffffffffffffffffffffffffffffff168152602001908152602001600020600101819080600181540180825580915050600190039060005260206000200160009091909190916101000a81548173ffffffffffffffffffffffffffffffffffffffff021916908373ffffffffffffffffffffffffffffffffffffffff160217905550600660008673ffffffffffffffffffffffffffffffffffffffff1673ffffffffffffffffffffffffffffffffffffffff1681526020019081526020016000206000016000815480929190620017d99062002c35565b9190505550600660008673ffffffffffffffffffffffffffffffffffffffff1673ffffffffffffffffffffffffffffffffffffffff168152602001908152602001600020600101819080600181540180825580915050600190039060005260206000200160009091909190916101000a81548173ffffffffffffffffffffffffffffffffffffffff021916908373ffffffffffffffffffffffffffffffffffffffff1602179055505050505050565b600062001896838362002003565b905060008060008573ffffffffffffffffffffffffffffffffffffffff1673ffffffffffffffffffffffffffffffffffffffff16815260200190815260200160002060010180549050905060008290505b600182620018f6919062002bcb565b81101562001a41576000808673ffffffffffffffffffffffffffffffffffffffff1673ffffffffffffffffffffffffffffffffffffffff1681526020019081526020016000206001016001826200194e919062002e62565b8154811062001962576200196162002c06565b5b9060005260206000200160009054906101000a900473ffffffffffffffffffffffffffffffffffffffff166000808773ffffffffffffffffffffffffffffffffffffffff1673ffffffffffffffffffffffffffffffffffffffff1681526020019081526020016000206001018281548110620019e357620019e262002c06565b5b9060005260206000200160006101000a81548173ffffffffffffffffffffffffffffffffffffffff021916908373ffffffffffffffffffffffffffffffffffffffff160217905550808062001a389062002c35565b915050620018e7565b506000808573ffffffffffffffffffffffffffffffffffffffff1673ffffffffffffffffffffffffffffffffffffffff1681526020019081526020016000206002016000808673ffffffffffffffffffffffffffffffffffffffff1673ffffffffffffffffffffffffffffffffffffffff16815260200190815260200160002060010160016000808873ffffffffffffffffffffffffffffffffffffffff1673ffffffffffffffffffffffffffffffffffffffff1681526020019081526020016000206001018054905062001b17919062002bcb565b8154811062001b2b5762001b2a62002c06565b5b9060005260206000200160009054906101000a900473ffffffffffffffffffffffffffffffffffffffff169080600181540180825580915050600190039060005260206000200160009091909190916101000a81548173ffffffffffffffffffffffffffffffffffffffff021916908373ffffffffffffffffffffffffffffffffffffffff1602179055506000808573ffffffffffffffffffffffffffffffffffffffff1673ffffffffffffffffffffffffffffffffffffffff16815260200190815260200160002060010180548062001c0a5762001c0962002ebf565b5b6001900381819060005260206000200160006101000a81549073ffffffffffffffffffffffffffffffffffffffff0219169055905550505050565b600062001c5383836200213d565b905060008190505b6001600660008673ffffffffffffffffffffffffffffffffffffffff1673ffffffffffffffffffffffffffffffffffffffff1681526020019081526020016000206001018054905062001caf919062002bcb565b81101562001dfc57600660008573ffffffffffffffffffffffffffffffffffffffff1673ffffffffffffffffffffffffffffffffffffffff16815260200190815260200160002060010160018262001d08919062002e62565b8154811062001d1c5762001d1b62002c06565b5b9060005260206000200160009054906101000a900473ffffffffffffffffffffffffffffffffffffffff16600660008673ffffffffffffffffffffffffffffffffffffffff1673ffffffffffffffffffffffffffffffffffffffff168152602001908152602001600020600101828154811062001d9e5762001d9d62002c06565b5b9060005260206000200160006101000a81548173ffffffffffffffffffffffffffffffffffffffff021916908373ffffffffffffffffffffffffffffffffffffffff160217905550808062001df39062002c35565b91505062001c5b565b50600660008473ffffffffffffffffffffffffffffffffffffffff1673ffffffffffffffffffffffffffffffffffffffff168152602001908152602001600020600201600660008573ffffffffffffffffffffffffffffffffffffffff1673ffffffffffffffffffffffffffffffffffffffff1681526020019081526020016000206001016001600660008773ffffffffffffffffffffffffffffffffffffffff1673ffffffffffffffffffffffffffffffffffffffff1681526020019081526020016000206001018054905062001ed5919062002bcb565b8154811062001ee95762001ee862002c06565b5b9060005260206000200160009054906101000a900473ffffffffffffffffffffffffffffffffffffffff169080600181540180825580915050600190039060005260206000200160009091909190916101000a81548173ffffffffffffffffffffffffffffffffffffffff021916908373ffffffffffffffffffffffffffffffffffffffff160217905550600660008473ffffffffffffffffffffffffffffffffffffffff1673ffffffffffffffffffffffffffffffffffffffff16815260200190815260200160002060010180548062001fc95762001fc862002ebf565b5b6001900381819060005260206000200160006101000a81549073ffffffffffffffffffffffffffffffffffffffff02191690559055505050565b60008060005b60016000808773ffffffffffffffffffffffffffffffffffffffff1673ffffffffffffffffffffffffffffffffffffffff168152602001908152602001600020600101805490506200205c919062002bcb565b811162002132578373ffffffffffffffffffffffffffffffffffffffff166000808773ffffffffffffffffffffffffffffffffffffffff1673ffffffffffffffffffffffffffffffffffffffff1681526020019081526020016000206001018281548110620020d057620020cf62002c06565b5b9060005260206000200160009054906101000a900473ffffffffffffffffffffffffffffffffffffffff1673ffffffffffffffffffffffffffffffffffffffff1614156200211c578091505b8080620021299062002c35565b91505062002009565b508091505092915050565b60008060005b6001600660008773ffffffffffffffffffffffffffffffffffffffff1673ffffffffffffffffffffffffffffffffffffffff1681526020019081526020016000206001018054905062002197919062002bcb565b81116200226e578373ffffffffffffffffffffffffffffffffffffffff16600660008773ffffffffffffffffffffffffffffffffffffffff1673ffffffffffffffffffffffffffffffffffffffff16815260200190815260200160002060010182815481106200220c576200220b62002c06565b5b9060005260206000200160009054906101000a900473ffffffffffffffffffffffffffffffffffffffff1673ffffffffffffffffffffffffffffffffffffffff16141562002258578091505b8080620022659062002c35565b91505062002143565b508091505092915050565b6103e78062002eef83390190565b61119c80620032d683390190565b6000604051905090565b600080fd5b600080fd5b600073ffffffffffffffffffffffffffffffffffffffff82169050919050565b6000620022d682620022a9565b9050919050565b620022e881620022c9565b8114620022f457600080fd5b50565b6000813590506200230881620022dd565b92915050565b600080604083850312156200232857620023276200229f565b5b60006200233885828601620022f7565b92505060206200234b85828601620022f7565b9150509250929050565b6000819050919050565b6200236a8162002355565b81146200237657600080fd5b50565b6000813590506200238a816200235f565b92915050565b60008060408385031215620023aa57620023a96200229f565b5b6000620023ba8582860162002379565b9250506020620023cd8582860162002379565b9150509250929050565b600081519050919050565b600082825260208201905092915050565b6000819050602082019050919050565b6200240e81620022c9565b82525050565b600062002422838362002403565b60208301905092915050565b6000602082019050919050565b60006200244882620023d7565b620024548185620023e2565b93506200246183620023f3565b8060005b83811015620024985781516200247c888262002414565b975062002489836200242e565b92505060018101905062002465565b5085935050505092915050565b60006020820190508181036000830152620024c181846200243b565b905092915050565b600060208284031215620024e257620024e16200229f565b5b6000620024f284828501620022f7565b91505092915050565b6000602082840312156200251457620025136200229f565b5b6000620025248482850162002379565b91505092915050565b6200253881620022c9565b82525050565b60006020820190506200255560008301846200252d565b92915050565b620025668162002355565b82525050565b60006020820190506200258360008301846200255b565b92915050565b600080fd5b600080fd5b6000601f19601f8301169050919050565b7f4e487b7100000000000000000000000000000000000000000000000000000000600052604160045260246000fd5b620025de8262002593565b810181811067ffffffffffffffff821117156200260057620025ff620025a4565b5b80604052505050565b60006200261562002295565b9050620026238282620025d3565b919050565b600067ffffffffffffffff821115620026465762002645620025a4565b5b620026518262002593565b9050602081019050919050565b82818337600083830152505050565b6000620026846200267e8462002628565b62002609565b905082815260208101848484011115620026a357620026a26200258e565b5b620026b08482856200265e565b509392505050565b600082601f830112620026d057620026cf62002589565b5b8135620026e28482602086016200266d565b91505092915050565b6000620026f882620022a9565b9050919050565b6200270a81620026eb565b81146200271657600080fd5b50565b6000813590506200272a81620026ff565b92915050565b600080600080608085870312156200274d576200274c6200229f565b5b60006200275d87828801620022f7565b945050602085013567ffffffffffffffff811115620027815762002780620022a4565b5b6200278f87828801620026b8565b935050604085013567ffffffffffffffff811115620027b357620027b2620022a4565b5b620027c187828801620026b8565b9250506060620027d48782880162002719565b91505092959194509250565b600081519050620027f181620022dd565b92915050565b60006020828403121562002810576200280f6200229f565b5b60006200282084828501620027e0565b91505092915050565b7f4e487b7100000000000000000000000000000000000000000000000000000000600052602160045260246000fd5b600381106200286657600080fd5b50565b6000815190506200287a8162002858565b92915050565b6000602082840312156200289957620028986200229f565b5b6000620028a98482850162002869565b91505092915050565b600082825260208201905092915050565b7f436f6e747261637420737461747573206d757374206265206f70656e00000000600082015250565b6000620028fb601c83620028b2565b91506200290882620028c3565b602082019050919050565b600060208201905081810360008301526200292e81620028ec565b9050919050565b7f436f6e74726163742072656665726565206d75737420657175616c207265717560008201527f6573746564207265666572656500000000000000000000000000000000000000602082015250565b600062002993602d83620028b2565b9150620029a08262002935565b604082019050919050565b60006020820190508181036000830152620029c68162002984565b9050919050565b7f4f6e6c792063726561746f72206f6620636f6e74726163742063616e2072657160008201527f7565737420636f6d706c6574696f6e0000000000000000000000000000000000602082015250565b600062002a2b602f83620028b2565b915062002a3882620029cd565b604082019050919050565b6000602082019050818103600083015262002a5e8162002a1c565b9050919050565b600060408201905062002a7c60008301856200252d565b62002a8b60208301846200252d565b9392505050565b7f537461727420696e6465782063616e6e6f74206265206e656761746976650000600082015250565b600062002aca601e83620028b2565b915062002ad78262002a92565b602082019050919050565b6000602082019050818103600083015262002afd8162002abb565b9050919050565b7f456e6420696e646578206578636565647320757365722061646472657373657360008201527f206c656e67746800000000000000000000000000000000000000000000000000602082015250565b600062002b62602783620028b2565b915062002b6f8262002b04565b604082019050919050565b6000602082019050818103600083015262002b958162002b53565b9050919050565b7f4e487b7100000000000000000000000000000000000000000000000000000000600052601160045260246000fd5b600062002bd88262002355565b915062002be58362002355565b92508282101562002bfb5762002bfa62002b9c565b5b828203905092915050565b7f4e487b7100000000000000000000000000000000000000000000000000000000600052603260045260246000fd5b600062002c428262002355565b91507fffffffffffffffffffffffffffffffffffffffffffffffffffffffffffffffff82141562002c785762002c7762002b9c565b5b600182019050919050565b600062002c9082620022c9565b9050919050565b62002ca28162002c83565b811462002cae57600080fd5b50565b60008151905062002cc28162002c97565b92915050565b60006020828403121562002ce15762002ce06200229f565b5b600062002cf18482850162002cb1565b91505092915050565b600081519050919050565b60005b8381101562002d2557808201518184015260208101905062002d08565b8381111562002d35576000848401525b50505050565b600062002d488262002cfa565b62002d548185620028b2565b935062002d6681856020860162002d05565b62002d718162002593565b840191505092915050565b6000819050919050565b600062002da762002da162002d9b84620022a9565b62002d7c565b620022a9565b9050919050565b600062002dbb8262002d86565b9050919050565b600062002dcf8262002dae565b9050919050565b62002de18162002dc2565b82525050565b600060c08201905062002dfe60008301896200252d565b62002e0d60208301886200252d565b818103604083015262002e21818762002d3b565b9050818103606083015262002e37818662002d3b565b905062002e48608083018562002dd6565b62002e5760a08301846200255b565b979650505050505050565b600062002e6f8262002355565b915062002e7c8362002355565b9250827fffffffffffffffffffffffffffffffffffffffffffffffffffffffffffffffff0382111562002eb45762002eb362002b9c565b5b828201905092915050565b7f4e487b7100000000000000000000000000000000000000000000000000000000600052603160045260246000fdfe608060405234801561001057600080fd5b506040516103e73803806103e783398181016040528101906100329190610148565b816000806101000a81548173ffffffffffffffffffffffffffffffffffffffff021916908373ffffffffffffffffffffffffffffffffffffffff16021790555080600160006101000a81548173ffffffffffffffffffffffffffffffffffffffff021916908373ffffffffffffffffffffffffffffffffffffffff1602179055506000600160146101000a81548160ff021916908360018111156100d9576100d8610188565b5b021790555050506101b7565b600080fd5b600073ffffffffffffffffffffffffffffffffffffffff82169050919050565b6000610115826100ea565b9050919050565b6101258161010a565b811461013057600080fd5b50565b6000815190506101428161011c565b92915050565b6000806040838503121561015f5761015e6100e5565b5b600061016d85828601610133565b925050602061017e85828601610133565b9150509250929050565b7f4e487b7100000000000000000000000000000000000000000000000000000000600052602160045260246000fd5b610221806101c66000396000f3fe608060405234801561001057600080fd5b50600436106100415760003560e01c8063200d2ed2146100465780633c490174146100645780634f8632ba14610082575b600080fd5b61004e6100a0565b60405161005b9190610174565b60405180910390f35b61006c6100b3565b60405161007991906101d0565b60405180910390f35b61008a6100d9565b60405161009791906101d0565b60405180910390f35b600160149054906101000a900460ff1681565b600160009054906101000a900473ffffffffffffffffffffffffffffffffffffffff1681565b60008054906101000a900473ffffffffffffffffffffffffffffffffffffffff1681565b7f4e487b7100000000000000000000000000000000000000000000000000000000600052602160045260246000fd5b6002811061013d5761013c6100fd565b5b50565b600081905061014e8261012c565b919050565b600061015e82610140565b9050919050565b61016e81610153565b82525050565b60006020820190506101896000830184610165565b92915050565b600073ffffffffffffffffffffffffffffffffffffffff82169050919050565b60006101ba8261018f565b9050919050565b6101ca816101af565b82525050565b60006020820190506101e560008301846101c1565b9291505056fea264697066735822122034067685a2acfd4fddca388a5b2696e6cb3aa859e17dc0e5d9b81a7311b0df1664736f6c634300080c003360806040526040516200119c3803806200119c83398181016040528101906200002991906200044b565b856000806101000a81548173ffffffffffffffffffffffffffffffffffffffff021916908373ffffffffffffffffffffffffffffffffffffffff16021790555084600160006101000a81548173ffffffffffffffffffffffffffffffffffffffff021916908373ffffffffffffffffffffffffffffffffffffffff1602179055508360029080519060200190620000c29291906200015e565b508260039080519060200190620000db9291906200015e565b5081600460006101000a81548173ffffffffffffffffffffffffffffffffffffffff021916908373ffffffffffffffffffffffffffffffffffffffff160217905550806005819055506000600660006101000a81548160ff021916908360028111156200014d576200014c62000525565b5b0217905550505050505050620005b9565b8280546200016c9062000583565b90600052602060002090601f016020900481019282620001905760008555620001dc565b82601f10620001ab57805160ff1916838001178555620001dc565b82800160010185558215620001dc579182015b82811115620001db578251825591602001919060010190620001be565b5b509050620001eb9190620001ef565b5090565b5b808211156200020a576000816000905550600101620001f0565b5090565b6000604051905090565b600080fd5b600080fd5b600073ffffffffffffffffffffffffffffffffffffffff82169050919050565b60006200024f8262000222565b9050919050565b620002618162000242565b81146200026d57600080fd5b50565b600081519050620002818162000256565b92915050565b600080fd5b600080fd5b6000601f19601f8301169050919050565b7f4e487b7100000000000000000000000000000000000000000000000000000000600052604160045260246000fd5b620002dc8262000291565b810181811067ffffffffffffffff82111715620002fe57620002fd620002a2565b5b80604052505050565b6000620003136200020e565b9050620003218282620002d1565b919050565b600067ffffffffffffffff821115620003445762000343620002a2565b5b6200034f8262000291565b9050602081019050919050565b60005b838110156200037c5780820151818401526020810190506200035f565b838111156200038c576000848401525b50505050565b6000620003a9620003a38462000326565b62000307565b905082815260208101848484011115620003c857620003c76200028c565b5b620003d58482856200035c565b509392505050565b600082601f830112620003f557620003f462000287565b5b81516200040784826020860162000392565b91505092915050565b6000819050919050565b620004258162000410565b81146200043157600080fd5b50565b60008151905062000445816200041a565b92915050565b60008060008060008060c087890312156200046b576200046a62000218565b5b60006200047b89828a0162000270565b96505060206200048e89828a0162000270565b955050604087015167ffffffffffffffff811115620004b257620004b16200021d565b5b620004c089828a01620003dd565b945050606087015167ffffffffffffffff811115620004e457620004e36200021d565b5b620004f289828a01620003dd565b93505060806200050589828a0162000270565b92505060a06200051889828a0162000434565b9150509295509295509295565b7f4e487b7100000000000000000000000000000000000000000000000000000000600052602160045260246000fd5b7f4e487b7100000000000000000000000000000000000000000000000000000000600052602260045260246000fd5b600060028204905060018216806200059c57607f821691505b60208210811415620005b357620005b262000554565b5b50919050565b610bd380620005c96000396000f3fe6080604052600436106100865760003560e01c80633b1bebd1116100595780633b1bebd11461012a5780634177fe51146101555780637284e41614610180578063aa8c217c146101ab578063b4fedc11146101d657610086565b806302d05d3f1461008b57806306fdde03146100b6578063200d2ed2146100e15780632d398fa61461010c575b600080fd5b34801561009757600080fd5b506100a06101f4565b6040516100ad9190610770565b60405180910390f35b3480156100c257600080fd5b506100cb610218565b6040516100d89190610824565b60405180910390f35b3480156100ed57600080fd5b506100f66102a6565b60405161010391906108bd565b60405180910390f35b6101146102b9565b6040516101219190610937565b60405180910390f35b34801561013657600080fd5b5061013f6104b0565b60405161014c9190610770565b60405180910390f35b34801561016157600080fd5b5061016a6104d6565b6040516101779190610770565b60405180910390f35b34801561018c57600080fd5b506101956104fc565b6040516101a29190610824565b60405180910390f35b3480156101b757600080fd5b506101c061058a565b6040516101cd919061096b565b60405180910390f35b6101de610590565b6040516101eb9190610937565b60405180910390f35b60008054906101000a900473ffffffffffffffffffffffffffffffffffffffff1681565b60028054610225906109b5565b80601f0160208091040260200160405190810160405280929190818152602001828054610251906109b5565b801561029e5780601f106102735761010080835404028352916020019161029e565b820191906000526020600020905b81548152906001019060200180831161028157829003601f168201915b505050505081565b600660009054906101000a900460ff1681565b60008060028111156102ce576102cd610846565b5b600660009054906101000a900460ff1660028111156102f0576102ef610846565b5b14610330576040517f08c379a000000000000000000000000000000000000000000000000000000000815260040161032790610a59565b60405180910390fd5b600160009054906101000a900473ffffffffffffffffffffffffffffffffffffffff1673ffffffffffffffffffffffffffffffffffffffff163273ffffffffffffffffffffffffffffffffffffffff1614806103d7575060008054906101000a900473ffffffffffffffffffffffffffffffffffffffff1673ffffffffffffffffffffffffffffffffffffffff163273ffffffffffffffffffffffffffffffffffffffff16145b610416576040517f08c379a000000000000000000000000000000000000000000000000000000000815260040161040d90610aeb565b60405180910390fd5b600460009054906101000a900473ffffffffffffffffffffffffffffffffffffffff1673ffffffffffffffffffffffffffffffffffffffff166108fc479081150290604051600060405180830381858888f1935050505015801561047e573d6000803e3d6000fd5b506002600660006101000a81548160ff021916908360028111156104a5576104a4610846565b5b021790555030905090565b600160009054906101000a900473ffffffffffffffffffffffffffffffffffffffff1681565b600460009054906101000a900473ffffffffffffffffffffffffffffffffffffffff1681565b60038054610509906109b5565b80601f0160208091040260200160405190810160405280929190818152602001828054610535906109b5565b80156105825780601f1061055757610100808354040283529160200191610582565b820191906000526020600020905b81548152906001019060200180831161056557829003601f168201915b505050505081565b60055481565b60008060028111156105a5576105a4610846565b5b600660009054906101000a900460ff1660028111156105c7576105c6610846565b5b14610607576040517f08c379a00000000000000000000000000000000000000000000000000000000081526004016105fe90610a59565b60405180910390fd5b600160009054906101000a900473ffffffffffffffffffffffffffffffffffffffff1673ffffffffffffffffffffffffffffffffffffffff163273ffffffffffffffffffffffffffffffffffffffff1614610697576040517f08c379a000000000000000000000000000000000000000000000000000000000815260040161068e90610b7d565b60405180910390fd5b60008054906101000a900473ffffffffffffffffffffffffffffffffffffffff1673ffffffffffffffffffffffffffffffffffffffff166108fc479081150290604051600060405180830381858888f193505050501580156106fd573d6000803e3d6000fd5b506001600660006101000a81548160ff0219169083600281111561072457610723610846565b5b021790555030905090565b600073ffffffffffffffffffffffffffffffffffffffff82169050919050565b600061075a8261072f565b9050919050565b61076a8161074f565b82525050565b60006020820190506107856000830184610761565b92915050565b600081519050919050565b600082825260208201905092915050565b60005b838110156107c55780820151818401526020810190506107aa565b838111156107d4576000848401525b50505050565b6000601f19601f8301169050919050565b60006107f68261078b565b6108008185610796565b93506108108185602086016107a7565b610819816107da565b840191505092915050565b6000602082019050818103600083015261083e81846107eb565b905092915050565b7f4e487b7100000000000000000000000000000000000000000000000000000000600052602160045260246000fd5b6003811061088657610885610846565b5b50565b600081905061089782610875565b919050565b60006108a782610889565b9050919050565b6108b78161089c565b82525050565b60006020820190506108d260008301846108ae565b92915050565b6000819050919050565b60006108fd6108f86108f38461072f565b6108d8565b61072f565b9050919050565b600061090f826108e2565b9050919050565b600061092182610904565b9050919050565b61093181610916565b82525050565b600060208201905061094c6000830184610928565b92915050565b6000819050919050565b61096581610952565b82525050565b6000602082019050610980600083018461095c565b92915050565b7f4e487b7100000000000000000000000000000000000000000000000000000000600052602260045260246000fd5b600060028204905060018216806109cd57607f821691505b602082108114156109e1576109e0610986565b5b50919050565b7f436f6e747261637420737461747573206973206e6f7420657175616c20746f2060008201527f6f70656e00000000000000000000000000000000000000000000000000000000602082015250565b6000610a43602483610796565b9150610a4e826109e7565b604082019050919050565b60006020820190508181036000830152610a7281610a36565b9050919050565b7f4f6e6c792072656665726565206f722063726561746f722063616e206661696c60008201527f20636f6e74726163740000000000000000000000000000000000000000000000602082015250565b6000610ad5602983610796565b9150610ae082610a79565b604082019050919050565b60006020820190508181036000830152610b0481610ac8565b9050919050565b7f4f6e6c7920726566657265652063616e20636f6d706c657465206120636f6e7460008201527f7261637400000000000000000000000000000000000000000000000000000000602082015250565b6000610b67602483610796565b9150610b7282610b0b565b604082019050919050565b60006020820190508181036000830152610b9681610b5a565b905091905056fea2646970667358221220df160ec1eaee6b86b785cdb844e4dc56012dc276f059724373a7285fffb98c0c64736f6c634300080c0033a2646970667358221220ebcb60b41df675d0d8a86e8a7020640c7f5ad78c271a054a773255a1de1df24064736f6c634300080c0033","opcodes":"PUSH1 0x80 PUSH1 0x40 MSTORE CALLVALUE DUP1 ISZERO PUSH2 0x10 JUMPI PUSH1 0x0 DUP1 REVERT JUMPDEST POP PUSH2 0x44A7 DUP1 PUSH2 0x20 PUSH1 0x0 CODECOPY PUSH1 0x0 RETURN INVALID PUSH1 0x80 PUSH1 0x40 MSTORE PUSH1 0x4 CALLDATASIZE LT PUSH3 0x13A JUMPI PUSH1 0x0 CALLDATALOAD PUSH1 0xE0 SHR DUP1 PUSH4 0x64A60B47 GT PUSH3 0xAF JUMPI DUP1 PUSH4 0xB24E67D0 GT PUSH3 0x6D JUMPI DUP1 PUSH4 0xB24E67D0 EQ PUSH3 0x4E7 JUMPI DUP1 PUSH4 0xB3B6633E EQ PUSH3 0x52B JUMPI DUP1 PUSH4 0xCC785850 EQ PUSH3 0x55B JUMPI DUP1 PUSH4 0xDC0E0C13 EQ PUSH3 0x589 JUMPI DUP1 PUSH4 0xE436E826 EQ PUSH3 0x5B9 JUMPI PUSH3 0x13A JUMP JUMPDEST DUP1 PUSH4 0x64A60B47 EQ PUSH3 0x3A7 JUMPI DUP1 PUSH4 0x75CE46A7 EQ PUSH3 0x3EB JUMPI DUP1 PUSH4 0x9051E234 EQ PUSH3 0x41B JUMPI DUP1 PUSH4 0xA87430BA EQ PUSH3 0x45F JUMPI DUP1 PUSH4 0xA908F4FA EQ PUSH3 0x4A3 JUMPI PUSH3 0x13A JUMP JUMPDEST DUP1 PUSH4 0x442A7BC7 GT PUSH3 0xFD JUMPI DUP1 PUSH4 0x442A7BC7 EQ PUSH3 0x27D JUMPI DUP1 PUSH4 0x4841A885 EQ PUSH3 0x2C1 JUMPI DUP1 PUSH4 0x4AC0B82D EQ PUSH3 0x2F1 JUMPI DUP1 PUSH4 0x4EA34671 EQ PUSH3 0x31F JUMPI DUP1 PUSH4 0x502C9BD5 EQ PUSH3 0x363 JUMPI PUSH3 0x13A JUMP JUMPDEST DUP1 PUSH4 0x1AF65E7 EQ PUSH3 0x13F JUMPI DUP1 PUSH4 0xE865751 EQ PUSH3 0x16D JUMPI DUP1 PUSH4 0x19EE8BD4 EQ PUSH3 0x1B1 JUMPI DUP1 PUSH4 0x38DB44BC EQ PUSH3 0x1F5 JUMPI DUP1 PUSH4 0x38FB42FD EQ PUSH3 0x239 JUMPI JUMPDEST PUSH1 0x0 DUP1 REVERT JUMPDEST CALLVALUE DUP1 ISZERO PUSH3 0x14C JUMPI PUSH1 0x0 DUP1 REVERT JUMPDEST POP PUSH3 0x16B PUSH1 0x4 DUP1 CALLDATASIZE SUB DUP2 ADD SWAP1 PUSH3 0x165 SWAP2 SWAP1 PUSH3 0x230E JUMP JUMPDEST PUSH3 0x5D9 JUMP JUMPDEST STOP JUMPDEST CALLVALUE DUP1 ISZERO PUSH3 0x17A JUMPI PUSH1 0x0 DUP1 REVERT JUMPDEST POP PUSH3 0x199 PUSH1 0x4 DUP1 CALLDATASIZE SUB DUP2 ADD SWAP1 PUSH3 0x193 SWAP2 SWAP1 PUSH3 0x2390 JUMP JUMPDEST PUSH3 0x971 JUMP JUMPDEST PUSH1 0x40 MLOAD PUSH3 0x1A8 SWAP2 SWAP1 PUSH3 0x24A5 JUMP JUMPDEST PUSH1 0x40 MLOAD DUP1 SWAP2 SUB SWAP1 RETURN JUMPDEST CALLVALUE DUP1 ISZERO PUSH3 0x1BE JUMPI PUSH1 0x0 DUP1 REVERT JUMPDEST POP PUSH3 0x1DD PUSH1 0x4 DUP1 CALLDATASIZE SUB DUP2 ADD SWAP1 PUSH3 0x1D7 SWAP2 SWAP1 PUSH3 0x24C9 JUMP JUMPDEST PUSH3 0xB25 JUMP JUMPDEST PUSH1 0x40 MLOAD PUSH3 0x1EC SWAP2 SWAP1 PUSH3 0x24A5 JUMP JUMPDEST PUSH1 0x40 MLOAD DUP1 SWAP2 SUB SWAP1 RETURN JUMPDEST CALLVALUE DUP1 ISZERO PUSH3 0x202 JUMPI PUSH1 0x0 DUP1 REVERT JUMPDEST POP PUSH3 0x221 PUSH1 0x4 DUP1 CALLDATASIZE SUB DUP2 ADD SWAP1 PUSH3 0x21B SWAP2 SWAP1 PUSH3 0x24FB JUMP JUMPDEST PUSH3 0xBF7 JUMP JUMPDEST PUSH1 0x40 MLOAD PUSH3 0x230 SWAP2 SWAP1 PUSH3 0x253E JUMP JUMPDEST PUSH1 0x40 MLOAD DUP1 SWAP2 SUB SWAP1 RETURN JUMPDEST CALLVALUE DUP1 ISZERO PUSH3 0x246 JUMPI PUSH1 0x0 DUP1 REVERT JUMPDEST POP PUSH3 0x265 PUSH1 0x4 DUP1 CALLDATASIZE SUB DUP2 ADD SWAP1 PUSH3 0x25F SWAP2 SWAP1 PUSH3 0x24FB JUMP JUMPDEST PUSH3 0xC37 JUMP JUMPDEST PUSH1 0x40 MLOAD PUSH3 0x274 SWAP2 SWAP1 PUSH3 0x253E JUMP JUMPDEST PUSH1 0x40 MLOAD DUP1 SWAP2 SUB SWAP1 RETURN JUMPDEST CALLVALUE DUP1 ISZERO PUSH3 0x28A JUMPI PUSH1 0x0 DUP1 REVERT JUMPDEST POP PUSH3 0x2A9 PUSH1 0x4 DUP1 CALLDATASIZE SUB DUP2 ADD SWAP1 PUSH3 0x2A3 SWAP2 SWAP1 PUSH3 0x24C9 JUMP JUMPDEST PUSH3 0xC77 JUMP JUMPDEST PUSH1 0x40 MLOAD PUSH3 0x2B8 SWAP2 SWAP1 PUSH3 0x24A5 JUMP JUMPDEST PUSH1 0x40 MLOAD DUP1 SWAP2 SUB SWAP1 RETURN JUMPDEST CALLVALUE DUP1 ISZERO PUSH3 0x2CE JUMPI PUSH1 0x0 DUP1 REVERT JUMPDEST POP PUSH3 0x2D9 PUSH3 0xD48 JUMP JUMPDEST PUSH1 0x40 MLOAD PUSH3 0x2E8 SWAP2 SWAP1 PUSH3 0x256C JUMP JUMPDEST PUSH1 0x40 MLOAD DUP1 SWAP2 SUB SWAP1 RETURN JUMPDEST CALLVALUE DUP1 ISZERO PUSH3 0x2FE JUMPI PUSH1 0x0 DUP1 REVERT JUMPDEST POP PUSH3 0x31D PUSH1 0x4 DUP1 CALLDATASIZE SUB DUP2 ADD SWAP1 PUSH3 0x317 SWAP2 SWAP1 PUSH3 0x230E JUMP JUMPDEST PUSH3 0xD4E JUMP JUMPDEST STOP JUMPDEST CALLVALUE DUP1 ISZERO PUSH3 0x32C JUMPI PUSH1 0x0 DUP1 REVERT JUMPDEST POP PUSH3 0x34B PUSH1 0x4 DUP1 CALLDATASIZE SUB DUP2 ADD SWAP1 PUSH3 0x345 SWAP2 SWAP1 PUSH3 0x24C9 JUMP JUMPDEST PUSH3 0xE56 JUMP JUMPDEST PUSH1 0x40 MLOAD PUSH3 0x35A SWAP2 SWAP1 PUSH3 0x24A5 JUMP JUMPDEST PUSH1 0x40 MLOAD DUP1 SWAP2 SUB SWAP1 RETURN JUMPDEST CALLVALUE DUP1 ISZERO PUSH3 0x370 JUMPI PUSH1 0x0 DUP1 REVERT JUMPDEST POP PUSH3 0x38F PUSH1 0x4 DUP1 CALLDATASIZE SUB DUP2 ADD SWAP1 PUSH3 0x389 SWAP2 SWAP1 PUSH3 0x24FB JUMP JUMPDEST PUSH3 0xF28 JUMP JUMPDEST PUSH1 0x40 MLOAD PUSH3 0x39E SWAP2 SWAP1 PUSH3 0x253E JUMP JUMPDEST PUSH1 0x40 MLOAD DUP1 SWAP2 SUB SWAP1 RETURN JUMPDEST CALLVALUE DUP1 ISZERO PUSH3 0x3B4 JUMPI PUSH1 0x0 DUP1 REVERT JUMPDEST POP PUSH3 0x3D3 PUSH1 0x4 DUP1 CALLDATASIZE SUB DUP2 ADD SWAP1 PUSH3 0x3CD SWAP2 SWAP1 PUSH3 0x24C9 JUMP JUMPDEST PUSH3 0xF68 JUMP JUMPDEST PUSH1 0x40 MLOAD PUSH3 0x3E2 SWAP2 SWAP1 PUSH3 0x256C JUMP JUMPDEST PUSH1 0x40 MLOAD DUP1 SWAP2 SUB SWAP1 RETURN JUMPDEST CALLVALUE DUP1 ISZERO PUSH3 0x3F8 JUMPI PUSH1 0x0 DUP1 REVERT JUMPDEST POP PUSH3 0x403 PUSH3 0xF86 JUMP JUMPDEST PUSH1 0x40 MLOAD PUSH3 0x412 SWAP2 SWAP1 PUSH3 0x256C JUMP JUMPDEST PUSH1 0x40 MLOAD DUP1 SWAP2 SUB SWAP1 RETURN JUMPDEST CALLVALUE DUP1 ISZERO PUSH3 0x428 JUMPI PUSH1 0x0 DUP1 REVERT JUMPDEST POP PUSH3 0x447 PUSH1 0x4 DUP1 CALLDATASIZE SUB DUP2 ADD SWAP1 PUSH3 0x441 SWAP2 SWAP1 PUSH3 0x24C9 JUMP JUMPDEST PUSH3 0xF8C JUMP JUMPDEST PUSH1 0x40 MLOAD PUSH3 0x456 SWAP2 SWAP1 PUSH3 0x24A5 JUMP JUMPDEST PUSH1 0x40 MLOAD DUP1 SWAP2 SUB SWAP1 RETURN JUMPDEST CALLVALUE DUP1 ISZERO PUSH3 0x46C JUMPI PUSH1 0x0 DUP1 REVERT JUMPDEST POP PUSH3 0x48B PUSH1 0x4 DUP1 CALLDATASIZE SUB DUP2 ADD SWAP1 PUSH3 0x485 SWAP2 SWAP1 PUSH3 0x24C9 JUMP JUMPDEST PUSH3 0x105E JUMP JUMPDEST PUSH1 0x40 MLOAD PUSH3 0x49A SWAP2 SWAP1 PUSH3 0x256C JUMP JUMPDEST PUSH1 0x40 MLOAD DUP1 SWAP2 SUB SWAP1 RETURN JUMPDEST CALLVALUE DUP1 ISZERO PUSH3 0x4B0 JUMPI PUSH1 0x0 DUP1 REVERT JUMPDEST POP PUSH3 0x4CF PUSH1 0x4 DUP1 CALLDATASIZE SUB DUP2 ADD SWAP1 PUSH3 0x4C9 SWAP2 SWAP1 PUSH3 0x2390 JUMP JUMPDEST PUSH3 0x107C JUMP JUMPDEST PUSH1 0x40 MLOAD PUSH3 0x4DE SWAP2 SWAP1 PUSH3 0x24A5 JUMP JUMPDEST PUSH1 0x40 MLOAD DUP1 SWAP2 SUB SWAP1 RETURN JUMPDEST CALLVALUE DUP1 ISZERO PUSH3 0x4F4 JUMPI PUSH1 0x0 DUP1 REVERT JUMPDEST POP PUSH3 0x513 PUSH1 0x4 DUP1 CALLDATASIZE SUB DUP2 ADD SWAP1 PUSH3 0x50D SWAP2 SWAP1 PUSH3 0x24C9 JUMP JUMPDEST PUSH3 0x1230 JUMP JUMPDEST PUSH1 0x40 MLOAD PUSH3 0x522 SWAP2 SWAP1 PUSH3 0x24A5 JUMP JUMPDEST PUSH1 0x40 MLOAD DUP1 SWAP2 SUB SWAP1 RETURN JUMPDEST CALLVALUE DUP1 ISZERO PUSH3 0x538 JUMPI PUSH1 0x0 DUP1 REVERT JUMPDEST POP PUSH3 0x543 PUSH3 0x1301 JUMP JUMPDEST PUSH1 0x40 MLOAD PUSH3 0x552 SWAP2 SWAP1 PUSH3 0x256C JUMP JUMPDEST PUSH1 0x40 MLOAD DUP1 SWAP2 SUB SWAP1 RETURN JUMPDEST CALLVALUE DUP1 ISZERO PUSH3 0x568 JUMPI PUSH1 0x0 DUP1 REVERT JUMPDEST POP PUSH3 0x587 PUSH1 0x4 DUP1 CALLDATASIZE SUB DUP2 ADD SWAP1 PUSH3 0x581 SWAP2 SWAP1 PUSH3 0x230E JUMP JUMPDEST PUSH3 0x1307 JUMP JUMPDEST STOP JUMPDEST CALLVALUE DUP1 ISZERO PUSH3 0x596 JUMPI PUSH1 0x0 DUP1 REVERT JUMPDEST POP PUSH3 0x5A1 PUSH3 0x140F JUMP JUMPDEST PUSH1 0x40 MLOAD PUSH3 0x5B0 SWAP2 SWAP1 PUSH3 0x256C JUMP JUMPDEST PUSH1 0x40 MLOAD DUP1 SWAP2 SUB SWAP1 RETURN JUMPDEST PUSH3 0x5D7 PUSH1 0x4 DUP1 CALLDATASIZE SUB DUP2 ADD SWAP1 PUSH3 0x5D1 SWAP2 SWAP1 PUSH3 0x2730 JUMP JUMPDEST PUSH3 0x1415 JUMP JUMPDEST STOP JUMPDEST PUSH1 0x0 DUP2 SWAP1 POP PUSH1 0x0 DUP2 PUSH20 0xFFFFFFFFFFFFFFFFFFFFFFFFFFFFFFFFFFFFFFFF AND PUSH4 0x2D05D3F PUSH1 0x40 MLOAD DUP2 PUSH4 0xFFFFFFFF AND PUSH1 0xE0 SHL DUP2 MSTORE PUSH1 0x4 ADD PUSH1 0x20 PUSH1 0x40 MLOAD DUP1 DUP4 SUB DUP2 DUP7 GAS STATICCALL ISZERO DUP1 ISZERO PUSH3 0x62C JUMPI RETURNDATASIZE PUSH1 0x0 DUP1 RETURNDATACOPY RETURNDATASIZE PUSH1 0x0 REVERT JUMPDEST POP POP POP POP PUSH1 0x40 MLOAD RETURNDATASIZE PUSH1 0x1F NOT PUSH1 0x1F DUP3 ADD AND DUP3 ADD DUP1 PUSH1 0x40 MSTORE POP DUP2 ADD SWAP1 PUSH3 0x652 SWAP2 SWAP1 PUSH3 0x27F7 JUMP JUMPDEST SWAP1 POP PUSH1 0x0 PUSH1 0x2 DUP2 GT ISZERO PUSH3 0x66B JUMPI PUSH3 0x66A PUSH3 0x2829 JUMP JUMPDEST JUMPDEST DUP3 PUSH20 0xFFFFFFFFFFFFFFFFFFFFFFFFFFFFFFFFFFFFFFFF AND PUSH4 0x200D2ED2 PUSH1 0x40 MLOAD DUP2 PUSH4 0xFFFFFFFF AND PUSH1 0xE0 SHL DUP2 MSTORE PUSH1 0x4 ADD PUSH1 0x20 PUSH1 0x40 MLOAD DUP1 DUP4 SUB DUP2 DUP7 GAS STATICCALL ISZERO DUP1 ISZERO PUSH3 0x6B7 JUMPI RETURNDATASIZE PUSH1 0x0 DUP1 RETURNDATACOPY RETURNDATASIZE PUSH1 0x0 REVERT JUMPDEST POP POP POP POP PUSH1 0x40 MLOAD RETURNDATASIZE PUSH1 0x1F NOT PUSH1 0x1F DUP3 ADD AND DUP3 ADD DUP1 PUSH1 0x40 MSTORE POP DUP2 ADD SWAP1 PUSH3 0x6DD SWAP2 SWAP1 PUSH3 0x2880 JUMP JUMPDEST PUSH1 0x2 DUP2 GT ISZERO PUSH3 0x6F2 JUMPI PUSH3 0x6F1 PUSH3 0x2829 JUMP JUMPDEST JUMPDEST EQ PUSH3 0x735 JUMPI PUSH1 0x40 MLOAD PUSH32 0x8C379A000000000000000000000000000000000000000000000000000000000 DUP2 MSTORE PUSH1 0x4 ADD PUSH3 0x72C SWAP1 PUSH3 0x2913 JUMP JUMPDEST PUSH1 0x40 MLOAD DUP1 SWAP2 SUB SWAP1 REVERT JUMPDEST DUP4 PUSH20 0xFFFFFFFFFFFFFFFFFFFFFFFFFFFFFFFFFFFFFFFF AND DUP3 PUSH20 0xFFFFFFFFFFFFFFFFFFFFFFFFFFFFFFFFFFFFFFFF AND PUSH4 0x3B1BEBD1 PUSH1 0x40 MLOAD DUP2 PUSH4 0xFFFFFFFF AND PUSH1 0xE0 SHL DUP2 MSTORE PUSH1 0x4 ADD PUSH1 0x20 PUSH1 0x40 MLOAD DUP1 DUP4 SUB DUP2 DUP7 GAS STATICCALL ISZERO DUP1 ISZERO PUSH3 0x798 JUMPI RETURNDATASIZE PUSH1 0x0 DUP1 RETURNDATACOPY RETURNDATASIZE PUSH1 0x0 REVERT JUMPDEST POP POP POP POP PUSH1 0x40 MLOAD RETURNDATASIZE PUSH1 0x1F NOT PUSH1 0x1F DUP3 ADD AND DUP3 ADD DUP1 PUSH1 0x40 MSTORE POP DUP2 ADD SWAP1 PUSH3 0x7BE SWAP2 SWAP1 PUSH3 0x27F7 JUMP JUMPDEST PUSH20 0xFFFFFFFFFFFFFFFFFFFFFFFFFFFFFFFFFFFFFFFF AND EQ PUSH3 0x817 JUMPI PUSH1 0x40 MLOAD PUSH32 0x8C379A000000000000000000000000000000000000000000000000000000000 DUP2 MSTORE PUSH1 0x4 ADD PUSH3 0x80E SWAP1 PUSH3 0x29AB JUMP JUMPDEST PUSH1 0x40 MLOAD DUP1 SWAP2 SUB SWAP1 REVERT JUMPDEST DUP1 PUSH20 0xFFFFFFFFFFFFFFFFFFFFFFFFFFFFFFFFFFFFFFFF AND ORIGIN PUSH20 0xFFFFFFFFFFFFFFFFFFFFFFFFFFFFFFFFFFFFFFFF AND EQ PUSH3 0x888 JUMPI PUSH1 0x40 MLOAD PUSH32 0x8C379A000000000000000000000000000000000000000000000000000000000 DUP2 MSTORE PUSH1 0x4 ADD PUSH3 0x87F SWAP1 PUSH3 0x2A43 JUMP JUMPDEST PUSH1 0x40 MLOAD DUP1 SWAP2 SUB SWAP1 REVERT JUMPDEST PUSH1 0x0 DUP2 DUP5 PUSH1 0x40 MLOAD PUSH3 0x89A SWAP1 PUSH3 0x2279 JUMP JUMPDEST PUSH3 0x8A7 SWAP3 SWAP2 SWAP1 PUSH3 0x2A65 JUMP JUMPDEST PUSH1 0x40 MLOAD DUP1 SWAP2 SUB SWAP1 PUSH1 0x0 CREATE DUP1 ISZERO DUP1 ISZERO PUSH3 0x8C4 JUMPI RETURNDATASIZE PUSH1 0x0 DUP1 RETURNDATACOPY RETURNDATASIZE PUSH1 0x0 REVERT JUMPDEST POP SWAP1 POP PUSH1 0x6 PUSH1 0x0 DUP7 PUSH20 0xFFFFFFFFFFFFFFFFFFFFFFFFFFFFFFFFFFFFFFFF AND PUSH20 0xFFFFFFFFFFFFFFFFFFFFFFFFFFFFFFFFFFFFFFFF AND DUP2 MSTORE PUSH1 0x20 ADD SWAP1 DUP2 MSTORE PUSH1 0x20 ADD PUSH1 0x0 KECCAK256 PUSH1 0x3 ADD DUP2 SWAP1 DUP1 PUSH1 0x1 DUP2 SLOAD ADD DUP1 DUP3 SSTORE DUP1 SWAP2 POP POP PUSH1 0x1 SWAP1 SUB SWAP1 PUSH1 0x0 MSTORE PUSH1 0x20 PUSH1 0x0 KECCAK256 ADD PUSH1 0x0 SWAP1 SWAP2 SWAP1 SWAP2 SWAP1 SWAP2 PUSH2 0x100 EXP DUP2 SLOAD DUP2 PUSH20 0xFFFFFFFFFFFFFFFFFFFFFFFFFFFFFFFFFFFFFFFF MUL NOT AND SWAP1 DUP4 PUSH20 0xFFFFFFFFFFFFFFFFFFFFFFFFFFFFFFFFFFFFFFFF AND MUL OR SWAP1 SSTORE POP POP POP POP POP POP JUMP JUMPDEST PUSH1 0x60 PUSH1 0x0 DUP4 LT ISZERO PUSH3 0x9BA JUMPI PUSH1 0x40 MLOAD PUSH32 0x8C379A000000000000000000000000000000000000000000000000000000000 DUP2 MSTORE PUSH1 0x4 ADD PUSH3 0x9B1 SWAP1 PUSH3 0x2AE2 JUMP JUMPDEST PUSH1 0x40 MLOAD DUP1 SWAP2 SUB SWAP1 REVERT JUMPDEST PUSH1 0x3 DUP1 SLOAD SWAP1 POP DUP3 GT ISZERO PUSH3 0xA05 JUMPI PUSH1 0x40 MLOAD PUSH32 0x8C379A000000000000000000000000000000000000000000000000000000000 DUP2 MSTORE PUSH1 0x4 ADD PUSH3 0x9FC SWAP1 PUSH3 0x2B7A JUMP JUMPDEST PUSH1 0x40 MLOAD DUP1 SWAP2 SUB SWAP1 REVERT JUMPDEST PUSH1 0x0 DUP4 DUP4 PUSH3 0xA15 SWAP2 SWAP1 PUSH3 0x2BCB JUMP JUMPDEST PUSH8 0xFFFFFFFFFFFFFFFF DUP2 GT ISZERO PUSH3 0xA31 JUMPI PUSH3 0xA30 PUSH3 0x25A4 JUMP JUMPDEST JUMPDEST PUSH1 0x40 MLOAD SWAP1 DUP1 DUP3 MSTORE DUP1 PUSH1 0x20 MUL PUSH1 0x20 ADD DUP3 ADD PUSH1 0x40 MSTORE DUP1 ISZERO PUSH3 0xA60 JUMPI DUP2 PUSH1 0x20 ADD PUSH1 0x20 DUP3 MUL DUP1 CALLDATASIZE DUP4 CALLDATACOPY DUP1 DUP3 ADD SWAP2 POP POP SWAP1 POP JUMPDEST POP SWAP1 POP PUSH1 0x0 DUP5 SWAP1 POP JUMPDEST DUP4 DUP2 LT ISZERO PUSH3 0xB1A JUMPI PUSH1 0x3 DUP2 DUP2 SLOAD DUP2 LT PUSH3 0xA89 JUMPI PUSH3 0xA88 PUSH3 0x2C06 JUMP JUMPDEST JUMPDEST SWAP1 PUSH1 0x0 MSTORE PUSH1 0x20 PUSH1 0x0 KECCAK256 ADD PUSH1 0x0 SWAP1 SLOAD SWAP1 PUSH2 0x100 EXP SWAP1 DIV PUSH20 0xFFFFFFFFFFFFFFFFFFFFFFFFFFFFFFFFFFFFFFFF AND DUP3 DUP3 DUP2 MLOAD DUP2 LT PUSH3 0xACA JUMPI PUSH3 0xAC9 PUSH3 0x2C06 JUMP JUMPDEST JUMPDEST PUSH1 0x20 MUL PUSH1 0x20 ADD ADD SWAP1 PUSH20 0xFFFFFFFFFFFFFFFFFFFFFFFFFFFFFFFFFFFFFFFF AND SWAP1 DUP2 PUSH20 0xFFFFFFFFFFFFFFFFFFFFFFFFFFFFFFFFFFFFFFFF AND DUP2 MSTORE POP POP DUP1 DUP1 PUSH3 0xB11 SWAP1 PUSH3 0x2C35 JUMP JUMPDEST SWAP2 POP POP PUSH3 0xA69 JUMP JUMPDEST POP DUP1 SWAP2 POP POP SWAP3 SWAP2 POP POP JUMP JUMPDEST PUSH1 0x60 PUSH1 0x6 PUSH1 0x0 DUP4 PUSH20 0xFFFFFFFFFFFFFFFFFFFFFFFFFFFFFFFFFFFFFFFF AND PUSH20 0xFFFFFFFFFFFFFFFFFFFFFFFFFFFFFFFFFFFFFFFF AND DUP2 MSTORE PUSH1 0x20 ADD SWAP1 DUP2 MSTORE PUSH1 0x20 ADD PUSH1 0x0 KECCAK256 PUSH1 0x2 ADD DUP1 SLOAD DUP1 PUSH1 0x20 MUL PUSH1 0x20 ADD PUSH1 0x40 MLOAD SWAP1 DUP2 ADD PUSH1 0x40 MSTORE DUP1 SWAP3 SWAP2 SWAP1 DUP2 DUP2 MSTORE PUSH1 0x20 ADD DUP3 DUP1 SLOAD DUP1 ISZERO PUSH3 0xBEB JUMPI PUSH1 0x20 MUL DUP3 ADD SWAP2 SWAP1 PUSH1 0x0 MSTORE PUSH1 0x20 PUSH1 0x0 KECCAK256 SWAP1 JUMPDEST DUP2 PUSH1 0x0 SWAP1 SLOAD SWAP1 PUSH2 0x100 EXP SWAP1 DIV PUSH20 0xFFFFFFFFFFFFFFFFFFFFFFFFFFFFFFFFFFFFFFFF AND PUSH20 0xFFFFFFFFFFFFFFFFFFFFFFFFFFFFFFFFFFFFFFFF AND DUP2 MSTORE PUSH1 0x20 ADD SWAP1 PUSH1 0x1 ADD SWAP1 DUP1 DUP4 GT PUSH3 0xBA0 JUMPI JUMPDEST POP POP POP POP POP SWAP1 POP SWAP2 SWAP1 POP JUMP JUMPDEST PUSH1 0x3 DUP2 DUP2 SLOAD DUP2 LT PUSH3 0xC08 JUMPI PUSH1 0x0 DUP1 REVERT JUMPDEST SWAP1 PUSH1 0x0 MSTORE PUSH1 0x20 PUSH1 0x0 KECCAK256 ADD PUSH1 0x0 SWAP2 POP SLOAD SWAP1 PUSH2 0x100 EXP SWAP1 DIV PUSH20 0xFFFFFFFFFFFFFFFFFFFFFFFFFFFFFFFFFFFFFFFF AND DUP2 JUMP JUMPDEST PUSH1 0x8 DUP2 DUP2 SLOAD DUP2 LT PUSH3 0xC48 JUMPI PUSH1 0x0 DUP1 REVERT JUMPDEST SWAP1 PUSH1 0x0 MSTORE PUSH1 0x20 PUSH1 0x0 KECCAK256 ADD PUSH1 0x0 SWAP2 POP SLOAD SWAP1 PUSH2 0x100 EXP SWAP1 DIV PUSH20 0xFFFFFFFFFFFFFFFFFFFFFFFFFFFFFFFFFFFFFFFF AND DUP2 JUMP JUMPDEST PUSH1 0x60 PUSH1 0x0 DUP1 DUP4 PUSH20 0xFFFFFFFFFFFFFFFFFFFFFFFFFFFFFFFFFFFFFFFF AND PUSH20 0xFFFFFFFFFFFFFFFFFFFFFFFFFFFFFFFFFFFFFFFF AND DUP2 MSTORE PUSH1 0x20 ADD SWAP1 DUP2 MSTORE PUSH1 0x20 ADD PUSH1 0x0 KECCAK256 PUSH1 0x1 ADD DUP1 SLOAD DUP1 PUSH1 0x20 MUL PUSH1 0x20 ADD PUSH1 0x40 MLOAD SWAP1 DUP2 ADD PUSH1 0x40 MSTORE DUP1 SWAP3 SWAP2 SWAP1 DUP2 DUP2 MSTORE PUSH1 0x20 ADD DUP3 DUP1 SLOAD DUP1 ISZERO PUSH3 0xD3C JUMPI PUSH1 0x20 MUL DUP3 ADD SWAP2 SWAP1 PUSH1 0x0 MSTORE PUSH1 0x20 PUSH1 0x0 KECCAK256 SWAP1 JUMPDEST DUP2 PUSH1 0x0 SWAP1 SLOAD SWAP1 PUSH2 0x100 EXP SWAP1 DIV PUSH20 0xFFFFFFFFFFFFFFFFFFFFFFFFFFFFFFFFFFFFFFFF AND PUSH20 0xFFFFFFFFFFFFFFFFFFFFFFFFFFFFFFFFFFFFFFFF AND DUP2 MSTORE PUSH1 0x20 ADD SWAP1 PUSH1 0x1 ADD SWAP1 DUP1 DUP4 GT PUSH3 0xCF1 JUMPI JUMPDEST POP POP POP POP POP SWAP1 POP SWAP2 SWAP1 POP JUMP JUMPDEST PUSH1 0x4 SLOAD DUP2 JUMP JUMPDEST PUSH1 0x0 DUP2 SWAP1 POP DUP1 PUSH20 0xFFFFFFFFFFFFFFFFFFFFFFFFFFFFFFFFFFFFFFFF AND PUSH4 0x2D398FA6 PUSH1 0x40 MLOAD DUP2 PUSH4 0xFFFFFFFF AND PUSH1 0xE0 SHL DUP2 MSTORE PUSH1 0x4 ADD PUSH1 0x20 PUSH1 0x40 MLOAD DUP1 DUP4 SUB DUP2 PUSH1 0x0 DUP8 GAS CALL ISZERO DUP1 ISZERO PUSH3 0xDA1 JUMPI RETURNDATASIZE PUSH1 0x0 DUP1 RETURNDATACOPY RETURNDATASIZE PUSH1 0x0 REVERT JUMPDEST POP POP POP POP PUSH1 0x40 MLOAD RETURNDATASIZE PUSH1 0x1F NOT PUSH1 0x1F DUP3 ADD AND DUP3 ADD DUP1 PUSH1 0x40 MSTORE POP DUP2 ADD SWAP1 PUSH3 0xDC7 SWAP2 SWAP1 PUSH3 0x2CC8 JUMP JUMPDEST POP PUSH3 0xDD4 DUP4 DUP4 PUSH3 0x1888 JUMP JUMPDEST PUSH3 0xE51 DUP2 PUSH20 0xFFFFFFFFFFFFFFFFFFFFFFFFFFFFFFFFFFFFFFFF AND PUSH4 0x3B1BEBD1 PUSH1 0x40 MLOAD DUP2 PUSH4 0xFFFFFFFF AND PUSH1 0xE0 SHL DUP2 MSTORE PUSH1 0x4 ADD PUSH1 0x20 PUSH1 0x40 MLOAD DUP1 DUP4 SUB DUP2 DUP7 GAS STATICCALL ISZERO DUP1 ISZERO PUSH3 0xE24 JUMPI RETURNDATASIZE PUSH1 0x0 DUP1 RETURNDATACOPY RETURNDATASIZE PUSH1 0x0 REVERT JUMPDEST POP POP POP POP PUSH1 0x40 MLOAD RETURNDATASIZE PUSH1 0x1F NOT PUSH1 0x1F DUP3 ADD AND DUP3 ADD DUP1 PUSH1 0x40 MSTORE POP DUP2 ADD SWAP1 PUSH3 0xE4A SWAP2 SWAP1 PUSH3 0x27F7 JUMP JUMPDEST DUP4 PUSH3 0x1C45 JUMP JUMPDEST POP POP POP JUMP JUMPDEST PUSH1 0x60 PUSH1 0x6 PUSH1 0x0 DUP4 PUSH20 0xFFFFFFFFFFFFFFFFFFFFFFFFFFFFFFFFFFFFFFFF AND PUSH20 0xFFFFFFFFFFFFFFFFFFFFFFFFFFFFFFFFFFFFFFFF AND DUP2 MSTORE PUSH1 0x20 ADD SWAP1 DUP2 MSTORE PUSH1 0x20 ADD PUSH1 0x0 KECCAK256 PUSH1 0x3 ADD DUP1 SLOAD DUP1 PUSH1 0x20 MUL PUSH1 0x20 ADD PUSH1 0x40 MLOAD SWAP1 DUP2 ADD PUSH1 0x40 MSTORE DUP1 SWAP3 SWAP2 SWAP1 DUP2 DUP2 MSTORE PUSH1 0x20 ADD DUP3 DUP1 SLOAD DUP1 ISZERO PUSH3 0xF1C JUMPI PUSH1 0x20 MUL DUP3 ADD SWAP2 SWAP1 PUSH1 0x0 MSTORE PUSH1 0x20 PUSH1 0x0 KECCAK256 SWAP1 JUMPDEST DUP2 PUSH1 0x0 SWAP1 SLOAD SWAP1 PUSH2 0x100 EXP SWAP1 DIV PUSH20 0xFFFFFFFFFFFFFFFFFFFFFFFFFFFFFFFFFFFFFFFF AND PUSH20 0xFFFFFFFFFFFFFFFFFFFFFFFFFFFFFFFFFFFFFFFF AND DUP2 MSTORE PUSH1 0x20 ADD SWAP1 PUSH1 0x1 ADD SWAP1 DUP1 DUP4 GT PUSH3 0xED1 JUMPI JUMPDEST POP POP POP POP POP SWAP1 POP SWAP2 SWAP1 POP JUMP JUMPDEST PUSH1 0x1 DUP2 DUP2 SLOAD DUP2 LT PUSH3 0xF39 JUMPI PUSH1 0x0 DUP1 REVERT JUMPDEST SWAP1 PUSH1 0x0 MSTORE PUSH1 0x20 PUSH1 0x0 KECCAK256 ADD PUSH1 0x0 SWAP2 POP SLOAD SWAP1 PUSH2 0x100 EXP SWAP1 DIV PUSH20 0xFFFFFFFFFFFFFFFFFFFFFFFFFFFFFFFFFFFFFFFF AND DUP2 JUMP JUMPDEST PUSH1 0x6 PUSH1 0x20 MSTORE DUP1 PUSH1 0x0 MSTORE PUSH1 0x40 PUSH1 0x0 KECCAK256 PUSH1 0x0 SWAP2 POP SWAP1 POP DUP1 PUSH1 0x0 ADD SLOAD SWAP1 POP DUP2 JUMP JUMPDEST PUSH1 0x2 SLOAD DUP2 JUMP JUMPDEST PUSH1 0x60 PUSH1 0x6 PUSH1 0x0 DUP4 PUSH20 0xFFFFFFFFFFFFFFFFFFFFFFFFFFFFFFFFFFFFFFFF AND PUSH20 0xFFFFFFFFFFFFFFFFFFFFFFFFFFFFFFFFFFFFFFFF AND DUP2 MSTORE PUSH1 0x20 ADD SWAP1 DUP2 MSTORE PUSH1 0x20 ADD PUSH1 0x0 KECCAK256 PUSH1 0x1 ADD DUP1 SLOAD DUP1 PUSH1 0x20 MUL PUSH1 0x20 ADD PUSH1 0x40 MLOAD SWAP1 DUP2 ADD PUSH1 0x40 MSTORE DUP1 SWAP3 SWAP2 SWAP1 DUP2 DUP2 MSTORE PUSH1 0x20 ADD DUP3 DUP1 SLOAD DUP1 ISZERO PUSH3 0x1052 JUMPI PUSH1 0x20 MUL DUP3 ADD SWAP2 SWAP1 PUSH1 0x0 MSTORE PUSH1 0x20 PUSH1 0x0 KECCAK256 SWAP1 JUMPDEST DUP2 PUSH1 0x0 SWAP1 SLOAD SWAP1 PUSH2 0x100 EXP SWAP1 DIV PUSH20 0xFFFFFFFFFFFFFFFFFFFFFFFFFFFFFFFFFFFFFFFF AND PUSH20 0xFFFFFFFFFFFFFFFFFFFFFFFFFFFFFFFFFFFFFFFF AND DUP2 MSTORE PUSH1 0x20 ADD SWAP1 PUSH1 0x1 ADD SWAP1 DUP1 DUP4 GT PUSH3 0x1007 JUMPI JUMPDEST POP POP POP POP POP SWAP1 POP SWAP2 SWAP1 POP JUMP JUMPDEST PUSH1 0x0 PUSH1 0x20 MSTORE DUP1 PUSH1 0x0 MSTORE PUSH1 0x40 PUSH1 0x0 KECCAK256 PUSH1 0x0 SWAP2 POP SWAP1 POP DUP1 PUSH1 0x0 ADD SLOAD SWAP1 POP DUP2 JUMP JUMPDEST PUSH1 0x60 PUSH1 0x0 DUP4 LT ISZERO PUSH3 0x10C5 JUMPI PUSH1 0x40 MLOAD PUSH32 0x8C379A000000000000000000000000000000000000000000000000000000000 DUP2 MSTORE PUSH1 0x4 ADD PUSH3 0x10BC SWAP1 PUSH3 0x2AE2 JUMP JUMPDEST PUSH1 0x40 MLOAD DUP1 SWAP2 SUB SWAP1 REVERT JUMPDEST PUSH1 0x1 DUP1 SLOAD SWAP1 POP DUP3 GT ISZERO PUSH3 0x1110 JUMPI PUSH1 0x40 MLOAD PUSH32 0x8C379A000000000000000000000000000000000000000000000000000000000 DUP2 MSTORE PUSH1 0x4 ADD PUSH3 0x1107 SWAP1 PUSH3 0x2B7A JUMP JUMPDEST PUSH1 0x40 MLOAD DUP1 SWAP2 SUB SWAP1 REVERT JUMPDEST PUSH1 0x0 DUP4 DUP4 PUSH3 0x1120 SWAP2 SWAP1 PUSH3 0x2BCB JUMP JUMPDEST PUSH8 0xFFFFFFFFFFFFFFFF DUP2 GT ISZERO PUSH3 0x113C JUMPI PUSH3 0x113B PUSH3 0x25A4 JUMP JUMPDEST JUMPDEST PUSH1 0x40 MLOAD SWAP1 DUP1 DUP3 MSTORE DUP1 PUSH1 0x20 MUL PUSH1 0x20 ADD DUP3 ADD PUSH1 0x40 MSTORE DUP1 ISZERO PUSH3 0x116B JUMPI DUP2 PUSH1 0x20 ADD PUSH1 0x20 DUP3 MUL DUP1 CALLDATASIZE DUP4 CALLDATACOPY DUP1 DUP3 ADD SWAP2 POP POP SWAP1 POP JUMPDEST POP SWAP1 POP PUSH1 0x0 DUP5 SWAP1 POP JUMPDEST DUP4 DUP2 LT ISZERO PUSH3 0x1225 JUMPI PUSH1 0x1 DUP2 DUP2 SLOAD DUP2 LT PUSH3 0x1194 JUMPI PUSH3 0x1193 PUSH3 0x2C06 JUMP JUMPDEST JUMPDEST SWAP1 PUSH1 0x0 MSTORE PUSH1 0x20 PUSH1 0x0 KECCAK256 ADD PUSH1 0x0 SWAP1 SLOAD SWAP1 PUSH2 0x100 EXP SWAP1 DIV PUSH20 0xFFFFFFFFFFFFFFFFFFFFFFFFFFFFFFFFFFFFFFFF AND DUP3 DUP3 DUP2 MLOAD DUP2 LT PUSH3 0x11D5 JUMPI PUSH3 0x11D4 PUSH3 0x2C06 JUMP JUMPDEST JUMPDEST PUSH1 0x20 MUL PUSH1 0x20 ADD ADD SWAP1 PUSH20 0xFFFFFFFFFFFFFFFFFFFFFFFFFFFFFFFFFFFFFFFF AND SWAP1 DUP2 PUSH20 0xFFFFFFFFFFFFFFFFFFFFFFFFFFFFFFFFFFFFFFFF AND DUP2 MSTORE POP POP DUP1 DUP1 PUSH3 0x121C SWAP1 PUSH3 0x2C35 JUMP JUMPDEST SWAP2 POP POP PUSH3 0x1174 JUMP JUMPDEST POP DUP1 SWAP2 POP POP SWAP3 SWAP2 POP POP JUMP JUMPDEST PUSH1 0x60 PUSH1 0x0 DUP1 DUP4 PUSH20 0xFFFFFFFFFFFFFFFFFFFFFFFFFFFFFFFFFFFFFFFF AND PUSH20 0xFFFFFFFFFFFFFFFFFFFFFFFFFFFFFFFFFFFFFFFF AND DUP2 MSTORE PUSH1 0x20 ADD SWAP1 DUP2 MSTORE PUSH1 0x20 ADD PUSH1 0x0 KECCAK256 PUSH1 0x2 ADD DUP1 SLOAD DUP1 PUSH1 0x20 MUL PUSH1 0x20 ADD PUSH1 0x40 MLOAD SWAP1 DUP2 ADD PUSH1 0x40 MSTORE DUP1 SWAP3 SWAP2 SWAP1 DUP2 DUP2 MSTORE PUSH1 0x20 ADD DUP3 DUP1 SLOAD DUP1 ISZERO PUSH3 0x12F5 JUMPI PUSH1 0x20 MUL DUP3 ADD SWAP2 SWAP1 PUSH1 0x0 MSTORE PUSH1 0x20 PUSH1 0x0 KECCAK256 SWAP1 JUMPDEST DUP2 PUSH1 0x0 SWAP1 SLOAD SWAP1 PUSH2 0x100 EXP SWAP1 DIV PUSH20 0xFFFFFFFFFFFFFFFFFFFFFFFFFFFFFFFFFFFFFFFF AND PUSH20 0xFFFFFFFFFFFFFFFFFFFFFFFFFFFFFFFFFFFFFFFF AND DUP2 MSTORE PUSH1 0x20 ADD SWAP1 PUSH1 0x1 ADD SWAP1 DUP1 DUP4 GT PUSH3 0x12AA JUMPI JUMPDEST POP POP POP POP POP SWAP1 POP SWAP2 SWAP1 POP JUMP JUMPDEST PUSH1 0x7 SLOAD DUP2 JUMP JUMPDEST PUSH1 0x0 DUP2 SWAP1 POP DUP1 PUSH20 0xFFFFFFFFFFFFFFFFFFFFFFFFFFFFFFFFFFFFFFFF AND PUSH4 0xB4FEDC11 PUSH1 0x40 MLOAD DUP2 PUSH4 0xFFFFFFFF AND PUSH1 0xE0 SHL DUP2 MSTORE PUSH1 0x4 ADD PUSH1 0x20 PUSH1 0x40 MLOAD DUP1 DUP4 SUB DUP2 PUSH1 0x0 DUP8 GAS CALL ISZERO DUP1 ISZERO PUSH3 0x135A JUMPI RETURNDATASIZE PUSH1 0x0 DUP1 RETURNDATACOPY RETURNDATASIZE PUSH1 0x0 REVERT JUMPDEST POP POP POP POP PUSH1 0x40 MLOAD RETURNDATASIZE PUSH1 0x1F NOT PUSH1 0x1F DUP3 ADD AND DUP3 ADD DUP1 PUSH1 0x40 MSTORE POP DUP2 ADD SWAP1 PUSH3 0x1380 SWAP2 SWAP1 PUSH3 0x2CC8 JUMP JUMPDEST POP PUSH3 0x138D DUP4 DUP4 PUSH3 0x1888 JUMP JUMPDEST PUSH3 0x140A DUP2 PUSH20 0xFFFFFFFFFFFFFFFFFFFFFFFFFFFFFFFFFFFFFFFF AND PUSH4 0x3B1BEBD1 PUSH1 0x40 MLOAD DUP2 PUSH4 0xFFFFFFFF AND PUSH1 0xE0 SHL DUP2 MSTORE PUSH1 0x4 ADD PUSH1 0x20 PUSH1 0x40 MLOAD DUP1 DUP4 SUB DUP2 DUP7 GAS STATICCALL ISZERO DUP1 ISZERO PUSH3 0x13DD JUMPI RETURNDATASIZE PUSH1 0x0 DUP1 RETURNDATACOPY RETURNDATASIZE PUSH1 0x0 REVERT JUMPDEST POP POP POP POP PUSH1 0x40 MLOAD RETURNDATASIZE PUSH1 0x1F NOT PUSH1 0x1F DUP3 ADD AND DUP3 ADD DUP1 PUSH1 0x40 MSTORE POP DUP2 ADD SWAP1 PUSH3 0x1403 SWAP2 SWAP1 PUSH3 0x27F7 JUMP JUMPDEST DUP4 PUSH3 0x1C45 JUMP JUMPDEST POP POP POP JUMP JUMPDEST PUSH1 0x5 SLOAD DUP2 JUMP JUMPDEST PUSH1 0x0 DUP1 PUSH1 0x0 CALLER PUSH20 0xFFFFFFFFFFFFFFFFFFFFFFFFFFFFFFFFFFFFFFFF AND PUSH20 0xFFFFFFFFFFFFFFFFFFFFFFFFFFFFFFFFFFFFFFFF AND DUP2 MSTORE PUSH1 0x20 ADD SWAP1 DUP2 MSTORE PUSH1 0x20 ADD PUSH1 0x0 KECCAK256 PUSH1 0x0 ADD SLOAD EQ ISZERO PUSH3 0x14DE JUMPI PUSH1 0x2 PUSH1 0x0 DUP2 SLOAD DUP1 SWAP3 SWAP2 SWAP1 PUSH3 0x1475 SWAP1 PUSH3 0x2C35 JUMP JUMPDEST SWAP2 SWAP1 POP SSTORE POP PUSH1 0x1 CALLER SWAP1 DUP1 PUSH1 0x1 DUP2 SLOAD ADD DUP1 DUP3 SSTORE DUP1 SWAP2 POP POP PUSH1 0x1 SWAP1 SUB SWAP1 PUSH1 0x0 MSTORE PUSH1 0x20 PUSH1 0x0 KECCAK256 ADD PUSH1 0x0 SWAP1 SWAP2 SWAP1 SWAP2 SWAP1 SWAP2 PUSH2 0x100 EXP DUP2 SLOAD DUP2 PUSH20 0xFFFFFFFFFFFFFFFFFFFFFFFFFFFFFFFFFFFFFFFF MUL NOT AND SWAP1 DUP4 PUSH20 0xFFFFFFFFFFFFFFFFFFFFFFFFFFFFFFFFFFFFFFFF AND MUL OR SWAP1 SSTORE POP JUMPDEST PUSH1 0x0 PUSH1 0x6 PUSH1 0x0 DUP7 PUSH20 0xFFFFFFFFFFFFFFFFFFFFFFFFFFFFFFFFFFFFFFFF AND PUSH20 0xFFFFFFFFFFFFFFFFFFFFFFFFFFFFFFFFFFFFFFFF AND DUP2 MSTORE PUSH1 0x20 ADD SWAP1 DUP2 MSTORE PUSH1 0x20 ADD PUSH1 0x0 KECCAK256 PUSH1 0x0 ADD SLOAD EQ ISZERO PUSH3 0x15A8 JUMPI PUSH1 0x7 PUSH1 0x0 DUP2 SLOAD DUP1 SWAP3 SWAP2 SWAP1 PUSH3 0x153F SWAP1 PUSH3 0x2C35 JUMP JUMPDEST SWAP2 SWAP1 POP SSTORE POP PUSH1 0x8 DUP5 SWAP1 DUP1 PUSH1 0x1 DUP2 SLOAD ADD DUP1 DUP3 SSTORE DUP1 SWAP2 POP POP PUSH1 0x1 SWAP1 SUB SWAP1 PUSH1 0x0 MSTORE PUSH1 0x20 PUSH1 0x0 KECCAK256 ADD PUSH1 0x0 SWAP1 SWAP2 SWAP1 SWAP2 SWAP1 SWAP2 PUSH2 0x100 EXP DUP2 SLOAD DUP2 PUSH20 0xFFFFFFFFFFFFFFFFFFFFFFFFFFFFFFFFFFFFFFFF MUL NOT AND SWAP1 DUP4 PUSH20 0xFFFFFFFFFFFFFFFFFFFFFFFFFFFFFFFFFFFFFFFF AND MUL OR SWAP1 SSTORE POP JUMPDEST PUSH1 0x0 CALLVALUE CALLER DUP7 DUP7 DUP7 DUP7 CALLVALUE PUSH1 0x40 MLOAD PUSH3 0x15BF SWAP1 PUSH3 0x2287 JUMP JUMPDEST PUSH3 0x15D0 SWAP7 SWAP6 SWAP5 SWAP4 SWAP3 SWAP2 SWAP1 PUSH3 0x2DE7 JUMP JUMPDEST PUSH1 0x40 MLOAD DUP1 SWAP2 SUB SWAP1 DUP3 CREATE SWAP1 POP DUP1 ISZERO DUP1 ISZERO PUSH3 0x15EE JUMPI RETURNDATASIZE PUSH1 0x0 DUP1 RETURNDATACOPY RETURNDATASIZE PUSH1 0x0 REVERT JUMPDEST POP SWAP1 POP PUSH1 0x4 PUSH1 0x0 DUP2 SLOAD DUP1 SWAP3 SWAP2 SWAP1 PUSH3 0x1606 SWAP1 PUSH3 0x2C35 JUMP JUMPDEST SWAP2 SWAP1 POP SSTORE POP PUSH1 0x3 DUP2 SWAP1 DUP1 PUSH1 0x1 DUP2 SLOAD ADD DUP1 DUP3 SSTORE DUP1 SWAP2 POP POP PUSH1 0x1 SWAP1 SUB SWAP1 PUSH1 0x0 MSTORE PUSH1 0x20 PUSH1 0x0 KECCAK256 ADD PUSH1 0x0 SWAP1 SWAP2 SWAP1 SWAP2 SWAP1 SWAP2 PUSH2 0x100 EXP DUP2 SLOAD DUP2 PUSH20 0xFFFFFFFFFFFFFFFFFFFFFFFFFFFFFFFFFFFFFFFF MUL NOT AND SWAP1 DUP4 PUSH20 0xFFFFFFFFFFFFFFFFFFFFFFFFFFFFFFFFFFFFFFFF AND MUL OR SWAP1 SSTORE POP CALLVALUE PUSH1 0x5 PUSH1 0x0 DUP3 DUP3 SLOAD PUSH3 0x1682 SWAP2 SWAP1 PUSH3 0x2E62 JUMP JUMPDEST SWAP3 POP POP DUP2 SWAP1 SSTORE POP PUSH1 0x0 DUP1 CALLER PUSH20 0xFFFFFFFFFFFFFFFFFFFFFFFFFFFFFFFFFFFFFFFF AND PUSH20 0xFFFFFFFFFFFFFFFFFFFFFFFFFFFFFFFFFFFFFFFF AND DUP2 MSTORE PUSH1 0x20 ADD SWAP1 DUP2 MSTORE PUSH1 0x20 ADD PUSH1 0x0 KECCAK256 PUSH1 0x0 ADD PUSH1 0x0 DUP2 SLOAD DUP1 SWAP3 SWAP2 SWAP1 PUSH3 0x16DD SWAP1 PUSH3 0x2C35 JUMP JUMPDEST SWAP2 SWAP1 POP SSTORE POP PUSH1 0x0 DUP1 CALLER PUSH20 0xFFFFFFFFFFFFFFFFFFFFFFFFFFFFFFFFFFFFFFFF AND PUSH20 0xFFFFFFFFFFFFFFFFFFFFFFFFFFFFFFFFFFFFFFFF AND DUP2 MSTORE PUSH1 0x20 ADD SWAP1 DUP2 MSTORE PUSH1 0x20 ADD PUSH1 0x0 KECCAK256 PUSH1 0x1 ADD DUP2 SWAP1 DUP1 PUSH1 0x1 DUP2 SLOAD ADD DUP1 DUP3 SSTORE DUP1 SWAP2 POP POP PUSH1 0x1 SWAP1 SUB SWAP1 PUSH1 0x0 MSTORE PUSH1 0x20 PUSH1 0x0 KECCAK256 ADD PUSH1 0x0 SWAP1 SWAP2 SWAP1 SWAP2 SWAP1 SWAP2 PUSH2 0x100 EXP DUP2 SLOAD DUP2 PUSH20 0xFFFFFFFFFFFFFFFFFFFFFFFFFFFFFFFFFFFFFFFF MUL NOT AND SWAP1 DUP4 PUSH20 0xFFFFFFFFFFFFFFFFFFFFFFFFFFFFFFFFFFFFFFFF AND MUL OR SWAP1 SSTORE POP PUSH1 0x6 PUSH1 0x0 DUP7 PUSH20 0xFFFFFFFFFFFFFFFFFFFFFFFFFFFFFFFFFFFFFFFF AND PUSH20 0xFFFFFFFFFFFFFFFFFFFFFFFFFFFFFFFFFFFFFFFF AND DUP2 MSTORE PUSH1 0x20 ADD SWAP1 DUP2 MSTORE PUSH1 0x20 ADD PUSH1 0x0 KECCAK256 PUSH1 0x0 ADD PUSH1 0x0 DUP2 SLOAD DUP1 SWAP3 SWAP2 SWAP1 PUSH3 0x17D9 SWAP1 PUSH3 0x2C35 JUMP JUMPDEST SWAP2 SWAP1 POP SSTORE POP PUSH1 0x6 PUSH1 0x0 DUP7 PUSH20 0xFFFFFFFFFFFFFFFFFFFFFFFFFFFFFFFFFFFFFFFF AND PUSH20 0xFFFFFFFFFFFFFFFFFFFFFFFFFFFFFFFFFFFFFFFF AND DUP2 MSTORE PUSH1 0x20 ADD SWAP1 DUP2 MSTORE PUSH1 0x20 ADD PUSH1 0x0 KECCAK256 PUSH1 0x1 ADD DUP2 SWAP1 DUP1 PUSH1 0x1 DUP2 SLOAD ADD DUP1 DUP3 SSTORE DUP1 SWAP2 POP POP PUSH1 0x1 SWAP1 SUB SWAP1 PUSH1 0x0 MSTORE PUSH1 0x20 PUSH1 0x0 KECCAK256 ADD PUSH1 0x0 SWAP1 SWAP2 SWAP1 SWAP2 SWAP1 SWAP2 PUSH2 0x100 EXP DUP2 SLOAD DUP2 PUSH20 0xFFFFFFFFFFFFFFFFFFFFFFFFFFFFFFFFFFFFFFFF MUL NOT AND SWAP1 DUP4 PUSH20 0xFFFFFFFFFFFFFFFFFFFFFFFFFFFFFFFFFFFFFFFF AND MUL OR SWAP1 SSTORE POP POP POP POP POP POP JUMP JUMPDEST PUSH1 0x0 PUSH3 0x1896 DUP4 DUP4 PUSH3 0x2003 JUMP JUMPDEST SWAP1 POP PUSH1 0x0 DUP1 PUSH1 0x0 DUP6 PUSH20 0xFFFFFFFFFFFFFFFFFFFFFFFFFFFFFFFFFFFFFFFF AND PUSH20 0xFFFFFFFFFFFFFFFFFFFFFFFFFFFFFFFFFFFFFFFF AND DUP2 MSTORE PUSH1 0x20 ADD SWAP1 DUP2 MSTORE PUSH1 0x20 ADD PUSH1 0x0 KECCAK256 PUSH1 0x1 ADD DUP1 SLOAD SWAP1 POP SWAP1 POP PUSH1 0x0 DUP3 SWAP1 POP JUMPDEST PUSH1 0x1 DUP3 PUSH3 0x18F6 SWAP2 SWAP1 PUSH3 0x2BCB JUMP JUMPDEST DUP2 LT ISZERO PUSH3 0x1A41 JUMPI PUSH1 0x0 DUP1 DUP7 PUSH20 0xFFFFFFFFFFFFFFFFFFFFFFFFFFFFFFFFFFFFFFFF AND PUSH20 0xFFFFFFFFFFFFFFFFFFFFFFFFFFFFFFFFFFFFFFFF AND DUP2 MSTORE PUSH1 0x20 ADD SWAP1 DUP2 MSTORE PUSH1 0x20 ADD PUSH1 0x0 KECCAK256 PUSH1 0x1 ADD PUSH1 0x1 DUP3 PUSH3 0x194E SWAP2 SWAP1 PUSH3 0x2E62 JUMP JUMPDEST DUP2 SLOAD DUP2 LT PUSH3 0x1962 JUMPI PUSH3 0x1961 PUSH3 0x2C06 JUMP JUMPDEST JUMPDEST SWAP1 PUSH1 0x0 MSTORE PUSH1 0x20 PUSH1 0x0 KECCAK256 ADD PUSH1 0x0 SWAP1 SLOAD SWAP1 PUSH2 0x100 EXP SWAP1 DIV PUSH20 0xFFFFFFFFFFFFFFFFFFFFFFFFFFFFFFFFFFFFFFFF AND PUSH1 0x0 DUP1 DUP8 PUSH20 0xFFFFFFFFFFFFFFFFFFFFFFFFFFFFFFFFFFFFFFFF AND PUSH20 0xFFFFFFFFFFFFFFFFFFFFFFFFFFFFFFFFFFFFFFFF AND DUP2 MSTORE PUSH1 0x20 ADD SWAP1 DUP2 MSTORE PUSH1 0x20 ADD PUSH1 0x0 KECCAK256 PUSH1 0x1 ADD DUP3 DUP2 SLOAD DUP2 LT PUSH3 0x19E3 JUMPI PUSH3 0x19E2 PUSH3 0x2C06 JUMP JUMPDEST JUMPDEST SWAP1 PUSH1 0x0 MSTORE PUSH1 0x20 PUSH1 0x0 KECCAK256 ADD PUSH1 0x0 PUSH2 0x100 EXP DUP2 SLOAD DUP2 PUSH20 0xFFFFFFFFFFFFFFFFFFFFFFFFFFFFFFFFFFFFFFFF MUL NOT AND SWAP1 DUP4 PUSH20 0xFFFFFFFFFFFFFFFFFFFFFFFFFFFFFFFFFFFFFFFF AND MUL OR SWAP1 SSTORE POP DUP1 DUP1 PUSH3 0x1A38 SWAP1 PUSH3 0x2C35 JUMP JUMPDEST SWAP2 POP POP PUSH3 0x18E7 JUMP JUMPDEST POP PUSH1 0x0 DUP1 DUP6 PUSH20 0xFFFFFFFFFFFFFFFFFFFFFFFFFFFFFFFFFFFFFFFF AND PUSH20 0xFFFFFFFFFFFFFFFFFFFFFFFFFFFFFFFFFFFFFFFF AND DUP2 MSTORE PUSH1 0x20 ADD SWAP1 DUP2 MSTORE PUSH1 0x20 ADD PUSH1 0x0 KECCAK256 PUSH1 0x2 ADD PUSH1 0x0 DUP1 DUP7 PUSH20 0xFFFFFFFFFFFFFFFFFFFFFFFFFFFFFFFFFFFFFFFF AND PUSH20 0xFFFFFFFFFFFFFFFFFFFFFFFFFFFFFFFFFFFFFFFF AND DUP2 MSTORE PUSH1 0x20 ADD SWAP1 DUP2 MSTORE PUSH1 0x20 ADD PUSH1 0x0 KECCAK256 PUSH1 0x1 ADD PUSH1 0x1 PUSH1 0x0 DUP1 DUP9 PUSH20 0xFFFFFFFFFFFFFFFFFFFFFFFFFFFFFFFFFFFFFFFF AND PUSH20 0xFFFFFFFFFFFFFFFFFFFFFFFFFFFFFFFFFFFFFFFF AND DUP2 MSTORE PUSH1 0x20 ADD SWAP1 DUP2 MSTORE PUSH1 0x20 ADD PUSH1 0x0 KECCAK256 PUSH1 0x1 ADD DUP1 SLOAD SWAP1 POP PUSH3 0x1B17 SWAP2 SWAP1 PUSH3 0x2BCB JUMP JUMPDEST DUP2 SLOAD DUP2 LT PUSH3 0x1B2B JUMPI PUSH3 0x1B2A PUSH3 0x2C06 JUMP JUMPDEST JUMPDEST SWAP1 PUSH1 0x0 MSTORE PUSH1 0x20 PUSH1 0x0 KECCAK256 ADD PUSH1 0x0 SWAP1 SLOAD SWAP1 PUSH2 0x100 EXP SWAP1 DIV PUSH20 0xFFFFFFFFFFFFFFFFFFFFFFFFFFFFFFFFFFFFFFFF AND SWAP1 DUP1 PUSH1 0x1 DUP2 SLOAD ADD DUP1 DUP3 SSTORE DUP1 SWAP2 POP POP PUSH1 0x1 SWAP1 SUB SWAP1 PUSH1 0x0 MSTORE PUSH1 0x20 PUSH1 0x0 KECCAK256 ADD PUSH1 0x0 SWAP1 SWAP2 SWAP1 SWAP2 SWAP1 SWAP2 PUSH2 0x100 EXP DUP2 SLOAD DUP2 PUSH20 0xFFFFFFFFFFFFFFFFFFFFFFFFFFFFFFFFFFFFFFFF MUL NOT AND SWAP1 DUP4 PUSH20 0xFFFFFFFFFFFFFFFFFFFFFFFFFFFFFFFFFFFFFFFF AND MUL OR SWAP1 SSTORE POP PUSH1 0x0 DUP1 DUP6 PUSH20 0xFFFFFFFFFFFFFFFFFFFFFFFFFFFFFFFFFFFFFFFF AND PUSH20 0xFFFFFFFFFFFFFFFFFFFFFFFFFFFFFFFFFFFFFFFF AND DUP2 MSTORE PUSH1 0x20 ADD SWAP1 DUP2 MSTORE PUSH1 0x20 ADD PUSH1 0x0 KECCAK256 PUSH1 0x1 ADD DUP1 SLOAD DUP1 PUSH3 0x1C0A JUMPI PUSH3 0x1C09 PUSH3 0x2EBF JUMP JUMPDEST JUMPDEST PUSH1 0x1 SWAP1 SUB DUP2 DUP2 SWAP1 PUSH1 0x0 MSTORE PUSH1 0x20 PUSH1 0x0 KECCAK256 ADD PUSH1 0x0 PUSH2 0x100 EXP DUP2 SLOAD SWAP1 PUSH20 0xFFFFFFFFFFFFFFFFFFFFFFFFFFFFFFFFFFFFFFFF MUL NOT AND SWAP1 SSTORE SWAP1 SSTORE POP POP POP POP JUMP JUMPDEST PUSH1 0x0 PUSH3 0x1C53 DUP4 DUP4 PUSH3 0x213D JUMP JUMPDEST SWAP1 POP PUSH1 0x0 DUP2 SWAP1 POP JUMPDEST PUSH1 0x1 PUSH1 0x6 PUSH1 0x0 DUP7 PUSH20 0xFFFFFFFFFFFFFFFFFFFFFFFFFFFFFFFFFFFFFFFF AND PUSH20 0xFFFFFFFFFFFFFFFFFFFFFFFFFFFFFFFFFFFFFFFF AND DUP2 MSTORE PUSH1 0x20 ADD SWAP1 DUP2 MSTORE PUSH1 0x20 ADD PUSH1 0x0 KECCAK256 PUSH1 0x1 ADD DUP1 SLOAD SWAP1 POP PUSH3 0x1CAF SWAP2 SWAP1 PUSH3 0x2BCB JUMP JUMPDEST DUP2 LT ISZERO PUSH3 0x1DFC JUMPI PUSH1 0x6 PUSH1 0x0 DUP6 PUSH20 0xFFFFFFFFFFFFFFFFFFFFFFFFFFFFFFFFFFFFFFFF AND PUSH20 0xFFFFFFFFFFFFFFFFFFFFFFFFFFFFFFFFFFFFFFFF AND DUP2 MSTORE PUSH1 0x20 ADD SWAP1 DUP2 MSTORE PUSH1 0x20 ADD PUSH1 0x0 KECCAK256 PUSH1 0x1 ADD PUSH1 0x1 DUP3 PUSH3 0x1D08 SWAP2 SWAP1 PUSH3 0x2E62 JUMP JUMPDEST DUP2 SLOAD DUP2 LT PUSH3 0x1D1C JUMPI PUSH3 0x1D1B PUSH3 0x2C06 JUMP JUMPDEST JUMPDEST SWAP1 PUSH1 0x0 MSTORE PUSH1 0x20 PUSH1 0x0 KECCAK256 ADD PUSH1 0x0 SWAP1 SLOAD SWAP1 PUSH2 0x100 EXP SWAP1 DIV PUSH20 0xFFFFFFFFFFFFFFFFFFFFFFFFFFFFFFFFFFFFFFFF AND PUSH1 0x6 PUSH1 0x0 DUP7 PUSH20 0xFFFFFFFFFFFFFFFFFFFFFFFFFFFFFFFFFFFFFFFF AND PUSH20 0xFFFFFFFFFFFFFFFFFFFFFFFFFFFFFFFFFFFFFFFF AND DUP2 MSTORE PUSH1 0x20 ADD SWAP1 DUP2 MSTORE PUSH1 0x20 ADD PUSH1 0x0 KECCAK256 PUSH1 0x1 ADD DUP3 DUP2 SLOAD DUP2 LT PUSH3 0x1D9E JUMPI PUSH3 0x1D9D PUSH3 0x2C06 JUMP JUMPDEST JUMPDEST SWAP1 PUSH1 0x0 MSTORE PUSH1 0x20 PUSH1 0x0 KECCAK256 ADD PUSH1 0x0 PUSH2 0x100 EXP DUP2 SLOAD DUP2 PUSH20 0xFFFFFFFFFFFFFFFFFFFFFFFFFFFFFFFFFFFFFFFF MUL NOT AND SWAP1 DUP4 PUSH20 0xFFFFFFFFFFFFFFFFFFFFFFFFFFFFFFFFFFFFFFFF AND MUL OR SWAP1 SSTORE POP DUP1 DUP1 PUSH3 0x1DF3 SWAP1 PUSH3 0x2C35 JUMP JUMPDEST SWAP2 POP POP PUSH3 0x1C5B JUMP JUMPDEST POP PUSH1 0x6 PUSH1 0x0 DUP5 PUSH20 0xFFFFFFFFFFFFFFFFFFFFFFFFFFFFFFFFFFFFFFFF AND PUSH20 0xFFFFFFFFFFFFFFFFFFFFFFFFFFFFFFFFFFFFFFFF AND DUP2 MSTORE PUSH1 0x20 ADD SWAP1 DUP2 MSTORE PUSH1 0x20 ADD PUSH1 0x0 KECCAK256 PUSH1 0x2 ADD PUSH1 0x6 PUSH1 0x0 DUP6 PUSH20 0xFFFFFFFFFFFFFFFFFFFFFFFFFFFFFFFFFFFFFFFF AND PUSH20 0xFFFFFFFFFFFFFFFFFFFFFFFFFFFFFFFFFFFFFFFF AND DUP2 MSTORE PUSH1 0x20 ADD SWAP1 DUP2 MSTORE PUSH1 0x20 ADD PUSH1 0x0 KECCAK256 PUSH1 0x1 ADD PUSH1 0x1 PUSH1 0x6 PUSH1 0x0 DUP8 PUSH20 0xFFFFFFFFFFFFFFFFFFFFFFFFFFFFFFFFFFFFFFFF AND PUSH20 0xFFFFFFFFFFFFFFFFFFFFFFFFFFFFFFFFFFFFFFFF AND DUP2 MSTORE PUSH1 0x20 ADD SWAP1 DUP2 MSTORE PUSH1 0x20 ADD PUSH1 0x0 KECCAK256 PUSH1 0x1 ADD DUP1 SLOAD SWAP1 POP PUSH3 0x1ED5 SWAP2 SWAP1 PUSH3 0x2BCB JUMP JUMPDEST DUP2 SLOAD DUP2 LT PUSH3 0x1EE9 JUMPI PUSH3 0x1EE8 PUSH3 0x2C06 JUMP JUMPDEST JUMPDEST SWAP1 PUSH1 0x0 MSTORE PUSH1 0x20 PUSH1 0x0 KECCAK256 ADD PUSH1 0x0 SWAP1 SLOAD SWAP1 PUSH2 0x100 EXP SWAP1 DIV PUSH20 0xFFFFFFFFFFFFFFFFFFFFFFFFFFFFFFFFFFFFFFFF AND SWAP1 DUP1 PUSH1 0x1 DUP2 SLOAD ADD DUP1 DUP3 SSTORE DUP1 SWAP2 POP POP PUSH1 0x1 SWAP1 SUB SWAP1 PUSH1 0x0 MSTORE PUSH1 0x20 PUSH1 0x0 KECCAK256 ADD PUSH1 0x0 SWAP1 SWAP2 SWAP1 SWAP2 SWAP1 SWAP2 PUSH2 0x100 EXP DUP2 SLOAD DUP2 PUSH20 0xFFFFFFFFFFFFFFFFFFFFFFFFFFFFFFFFFFFFFFFF MUL NOT AND SWAP1 DUP4 PUSH20 0xFFFFFFFFFFFFFFFFFFFFFFFFFFFFFFFFFFFFFFFF AND MUL OR SWAP1 SSTORE POP PUSH1 0x6 PUSH1 0x0 DUP5 PUSH20 0xFFFFFFFFFFFFFFFFFFFFFFFFFFFFFFFFFFFFFFFF AND PUSH20 0xFFFFFFFFFFFFFFFFFFFFFFFFFFFFFFFFFFFFFFFF AND DUP2 MSTORE PUSH1 0x20 ADD SWAP1 DUP2 MSTORE PUSH1 0x20 ADD PUSH1 0x0 KECCAK256 PUSH1 0x1 ADD DUP1 SLOAD DUP1 PUSH3 0x1FC9 JUMPI PUSH3 0x1FC8 PUSH3 0x2EBF JUMP JUMPDEST JUMPDEST PUSH1 0x1 SWAP1 SUB DUP2 DUP2 SWAP1 PUSH1 0x0 MSTORE PUSH1 0x20 PUSH1 0x0 KECCAK256 ADD PUSH1 0x0 PUSH2 0x100 EXP DUP2 SLOAD SWAP1 PUSH20 0xFFFFFFFFFFFFFFFFFFFFFFFFFFFFFFFFFFFFFFFF MUL NOT AND SWAP1 SSTORE SWAP1 SSTORE POP POP POP JUMP JUMPDEST PUSH1 0x0 DUP1 PUSH1 0x0 JUMPDEST PUSH1 0x1 PUSH1 0x0 DUP1 DUP8 PUSH20 0xFFFFFFFFFFFFFFFFFFFFFFFFFFFFFFFFFFFFFFFF AND PUSH20 0xFFFFFFFFFFFFFFFFFFFFFFFFFFFFFFFFFFFFFFFF AND DUP2 MSTORE PUSH1 0x20 ADD SWAP1 DUP2 MSTORE PUSH1 0x20 ADD PUSH1 0x0 KECCAK256 PUSH1 0x1 ADD DUP1 SLOAD SWAP1 POP PUSH3 0x205C SWAP2 SWAP1 PUSH3 0x2BCB JUMP JUMPDEST DUP2 GT PUSH3 0x2132 JUMPI DUP4 PUSH20 0xFFFFFFFFFFFFFFFFFFFFFFFFFFFFFFFFFFFFFFFF AND PUSH1 0x0 DUP1 DUP8 PUSH20 0xFFFFFFFFFFFFFFFFFFFFFFFFFFFFFFFFFFFFFFFF AND PUSH20 0xFFFFFFFFFFFFFFFFFFFFFFFFFFFFFFFFFFFFFFFF AND DUP2 MSTORE PUSH1 0x20 ADD SWAP1 DUP2 MSTORE PUSH1 0x20 ADD PUSH1 0x0 KECCAK256 PUSH1 0x1 ADD DUP3 DUP2 SLOAD DUP2 LT PUSH3 0x20D0 JUMPI PUSH3 0x20CF PUSH3 0x2C06 JUMP JUMPDEST JUMPDEST SWAP1 PUSH1 0x0 MSTORE PUSH1 0x20 PUSH1 0x0 KECCAK256 ADD PUSH1 0x0 SWAP1 SLOAD SWAP1 PUSH2 0x100 EXP SWAP1 DIV PUSH20 0xFFFFFFFFFFFFFFFFFFFFFFFFFFFFFFFFFFFFFFFF AND PUSH20 0xFFFFFFFFFFFFFFFFFFFFFFFFFFFFFFFFFFFFFFFF AND EQ ISZERO PUSH3 0x211C JUMPI DUP1 SWAP2 POP JUMPDEST DUP1 DUP1 PUSH3 0x2129 SWAP1 PUSH3 0x2C35 JUMP JUMPDEST SWAP2 POP POP PUSH3 0x2009 JUMP JUMPDEST POP DUP1 SWAP2 POP POP SWAP3 SWAP2 POP POP JUMP JUMPDEST PUSH1 0x0 DUP1 PUSH1 0x0 JUMPDEST PUSH1 0x1 PUSH1 0x6 PUSH1 0x0 DUP8 PUSH20 0xFFFFFFFFFFFFFFFFFFFFFFFFFFFFFFFFFFFFFFFF AND PUSH20 0xFFFFFFFFFFFFFFFFFFFFFFFFFFFFFFFFFFFFFFFF AND DUP2 MSTORE PUSH1 0x20 ADD SWAP1 DUP2 MSTORE PUSH1 0x20 ADD PUSH1 0x0 KECCAK256 PUSH1 0x1 ADD DUP1 SLOAD SWAP1 POP PUSH3 0x2197 SWAP2 SWAP1 PUSH3 0x2BCB JUMP JUMPDEST DUP2 GT PUSH3 0x226E JUMPI DUP4 PUSH20 0xFFFFFFFFFFFFFFFFFFFFFFFFFFFFFFFFFFFFFFFF AND PUSH1 0x6 PUSH1 0x0 DUP8 PUSH20 0xFFFFFFFFFFFFFFFFFFFFFFFFFFFFFFFFFFFFFFFF AND PUSH20 0xFFFFFFFFFFFFFFFFFFFFFFFFFFFFFFFFFFFFFFFF AND DUP2 MSTORE PUSH1 0x20 ADD SWAP1 DUP2 MSTORE PUSH1 0x20 ADD PUSH1 0x0 KECCAK256 PUSH1 0x1 ADD DUP3 DUP2 SLOAD DUP2 LT PUSH3 0x220C JUMPI PUSH3 0x220B PUSH3 0x2C06 JUMP JUMPDEST JUMPDEST SWAP1 PUSH1 0x0 MSTORE PUSH1 0x20 PUSH1 0x0 KECCAK256 ADD PUSH1 0x0 SWAP1 SLOAD SWAP1 PUSH2 0x100 EXP SWAP1 DIV PUSH20 0xFFFFFFFFFFFFFFFFFFFFFFFFFFFFFFFFFFFFFFFF AND PUSH20 0xFFFFFFFFFFFFFFFFFFFFFFFFFFFFFFFFFFFFFFFF AND EQ ISZERO PUSH3 0x2258 JUMPI DUP1 SWAP2 POP JUMPDEST DUP1 DUP1 PUSH3 0x2265 SWAP1 PUSH3 0x2C35 JUMP JUMPDEST SWAP2 POP POP PUSH3 0x2143 JUMP JUMPDEST POP DUP1 SWAP2 POP POP SWAP3 SWAP2 POP POP JUMP JUMPDEST PUSH2 0x3E7 DUP1 PUSH3 0x2EEF DUP4 CODECOPY ADD SWAP1 JUMP JUMPDEST PUSH2 0x119C DUP1 PUSH3 0x32D6 DUP4 CODECOPY ADD SWAP1 JUMP JUMPDEST PUSH1 0x0 PUSH1 0x40 MLOAD SWAP1 POP SWAP1 JUMP JUMPDEST PUSH1 0x0 DUP1 REVERT JUMPDEST PUSH1 0x0 DUP1 REVERT JUMPDEST PUSH1 0x0 PUSH20 0xFFFFFFFFFFFFFFFFFFFFFFFFFFFFFFFFFFFFFFFF DUP3 AND SWAP1 POP SWAP2 SWAP1 POP JUMP JUMPDEST PUSH1 0x0 PUSH3 0x22D6 DUP3 PUSH3 0x22A9 JUMP JUMPDEST SWAP1 POP SWAP2 SWAP1 POP JUMP JUMPDEST PUSH3 0x22E8 DUP2 PUSH3 0x22C9 JUMP JUMPDEST DUP2 EQ PUSH3 0x22F4 JUMPI PUSH1 0x0 DUP1 REVERT JUMPDEST POP JUMP JUMPDEST PUSH1 0x0 DUP2 CALLDATALOAD SWAP1 POP PUSH3 0x2308 DUP2 PUSH3 0x22DD JUMP JUMPDEST SWAP3 SWAP2 POP POP JUMP JUMPDEST PUSH1 0x0 DUP1 PUSH1 0x40 DUP4 DUP6 SUB SLT ISZERO PUSH3 0x2328 JUMPI PUSH3 0x2327 PUSH3 0x229F JUMP JUMPDEST JUMPDEST PUSH1 0x0 PUSH3 0x2338 DUP6 DUP3 DUP7 ADD PUSH3 0x22F7 JUMP JUMPDEST SWAP3 POP POP PUSH1 0x20 PUSH3 0x234B DUP6 DUP3 DUP7 ADD PUSH3 0x22F7 JUMP JUMPDEST SWAP2 POP POP SWAP3 POP SWAP3 SWAP1 POP JUMP JUMPDEST PUSH1 0x0 DUP2 SWAP1 POP SWAP2 SWAP1 POP JUMP JUMPDEST PUSH3 0x236A DUP2 PUSH3 0x2355 JUMP JUMPDEST DUP2 EQ PUSH3 0x2376 JUMPI PUSH1 0x0 DUP1 REVERT JUMPDEST POP JUMP JUMPDEST PUSH1 0x0 DUP2 CALLDATALOAD SWAP1 POP PUSH3 0x238A DUP2 PUSH3 0x235F JUMP JUMPDEST SWAP3 SWAP2 POP POP JUMP JUMPDEST PUSH1 0x0 DUP1 PUSH1 0x40 DUP4 DUP6 SUB SLT ISZERO PUSH3 0x23AA JUMPI PUSH3 0x23A9 PUSH3 0x229F JUMP JUMPDEST JUMPDEST PUSH1 0x0 PUSH3 0x23BA DUP6 DUP3 DUP7 ADD PUSH3 0x2379 JUMP JUMPDEST SWAP3 POP POP PUSH1 0x20 PUSH3 0x23CD DUP6 DUP3 DUP7 ADD PUSH3 0x2379 JUMP JUMPDEST SWAP2 POP POP SWAP3 POP SWAP3 SWAP1 POP JUMP JUMPDEST PUSH1 0x0 DUP2 MLOAD SWAP1 POP SWAP2 SWAP1 POP JUMP JUMPDEST PUSH1 0x0 DUP3 DUP3 MSTORE PUSH1 0x20 DUP3 ADD SWAP1 POP SWAP3 SWAP2 POP POP JUMP JUMPDEST PUSH1 0x0 DUP2 SWAP1 POP PUSH1 0x20 DUP3 ADD SWAP1 POP SWAP2 SWAP1 POP JUMP JUMPDEST PUSH3 0x240E DUP2 PUSH3 0x22C9 JUMP JUMPDEST DUP3 MSTORE POP POP JUMP JUMPDEST PUSH1 0x0 PUSH3 0x2422 DUP4 DUP4 PUSH3 0x2403 JUMP JUMPDEST PUSH1 0x20 DUP4 ADD SWAP1 POP SWAP3 SWAP2 POP POP JUMP JUMPDEST PUSH1 0x0 PUSH1 0x20 DUP3 ADD SWAP1 POP SWAP2 SWAP1 POP JUMP JUMPDEST PUSH1 0x0 PUSH3 0x2448 DUP3 PUSH3 0x23D7 JUMP JUMPDEST PUSH3 0x2454 DUP2 DUP6 PUSH3 0x23E2 JUMP JUMPDEST SWAP4 POP PUSH3 0x2461 DUP4 PUSH3 0x23F3 JUMP JUMPDEST DUP1 PUSH1 0x0 JUMPDEST DUP4 DUP2 LT ISZERO PUSH3 0x2498 JUMPI DUP2 MLOAD PUSH3 0x247C DUP9 DUP3 PUSH3 0x2414 JUMP JUMPDEST SWAP8 POP PUSH3 0x2489 DUP4 PUSH3 0x242E JUMP JUMPDEST SWAP3 POP POP PUSH1 0x1 DUP2 ADD SWAP1 POP PUSH3 0x2465 JUMP JUMPDEST POP DUP6 SWAP4 POP POP POP POP SWAP3 SWAP2 POP POP JUMP JUMPDEST PUSH1 0x0 PUSH1 0x20 DUP3 ADD SWAP1 POP DUP2 DUP2 SUB PUSH1 0x0 DUP4 ADD MSTORE PUSH3 0x24C1 DUP2 DUP5 PUSH3 0x243B JUMP JUMPDEST SWAP1 POP SWAP3 SWAP2 POP POP JUMP JUMPDEST PUSH1 0x0 PUSH1 0x20 DUP3 DUP5 SUB SLT ISZERO PUSH3 0x24E2 JUMPI PUSH3 0x24E1 PUSH3 0x229F JUMP JUMPDEST JUMPDEST PUSH1 0x0 PUSH3 0x24F2 DUP5 DUP3 DUP6 ADD PUSH3 0x22F7 JUMP JUMPDEST SWAP2 POP POP SWAP3 SWAP2 POP POP JUMP JUMPDEST PUSH1 0x0 PUSH1 0x20 DUP3 DUP5 SUB SLT ISZERO PUSH3 0x2514 JUMPI PUSH3 0x2513 PUSH3 0x229F JUMP JUMPDEST JUMPDEST PUSH1 0x0 PUSH3 0x2524 DUP5 DUP3 DUP6 ADD PUSH3 0x2379 JUMP JUMPDEST SWAP2 POP POP SWAP3 SWAP2 POP POP JUMP JUMPDEST PUSH3 0x2538 DUP2 PUSH3 0x22C9 JUMP JUMPDEST DUP3 MSTORE POP POP JUMP JUMPDEST PUSH1 0x0 PUSH1 0x20 DUP3 ADD SWAP1 POP PUSH3 0x2555 PUSH1 0x0 DUP4 ADD DUP5 PUSH3 0x252D JUMP JUMPDEST SWAP3 SWAP2 POP POP JUMP JUMPDEST PUSH3 0x2566 DUP2 PUSH3 0x2355 JUMP JUMPDEST DUP3 MSTORE POP POP JUMP JUMPDEST PUSH1 0x0 PUSH1 0x20 DUP3 ADD SWAP1 POP PUSH3 0x2583 PUSH1 0x0 DUP4 ADD DUP5 PUSH3 0x255B JUMP JUMPDEST SWAP3 SWAP2 POP POP JUMP JUMPDEST PUSH1 0x0 DUP1 REVERT JUMPDEST PUSH1 0x0 DUP1 REVERT JUMPDEST PUSH1 0x0 PUSH1 0x1F NOT PUSH1 0x1F DUP4 ADD AND SWAP1 POP SWAP2 SWAP1 POP JUMP JUMPDEST PUSH32 0x4E487B7100000000000000000000000000000000000000000000000000000000 PUSH1 0x0 MSTORE PUSH1 0x41 PUSH1 0x4 MSTORE PUSH1 0x24 PUSH1 0x0 REVERT JUMPDEST PUSH3 0x25DE DUP3 PUSH3 0x2593 JUMP JUMPDEST DUP2 ADD DUP2 DUP2 LT PUSH8 0xFFFFFFFFFFFFFFFF DUP3 GT OR ISZERO PUSH3 0x2600 JUMPI PUSH3 0x25FF PUSH3 0x25A4 JUMP JUMPDEST JUMPDEST DUP1 PUSH1 0x40 MSTORE POP POP POP JUMP JUMPDEST PUSH1 0x0 PUSH3 0x2615 PUSH3 0x2295 JUMP JUMPDEST SWAP1 POP PUSH3 0x2623 DUP3 DUP3 PUSH3 0x25D3 JUMP JUMPDEST SWAP2 SWAP1 POP JUMP JUMPDEST PUSH1 0x0 PUSH8 0xFFFFFFFFFFFFFFFF DUP3 GT ISZERO PUSH3 0x2646 JUMPI PUSH3 0x2645 PUSH3 0x25A4 JUMP JUMPDEST JUMPDEST PUSH3 0x2651 DUP3 PUSH3 0x2593 JUMP JUMPDEST SWAP1 POP PUSH1 0x20 DUP2 ADD SWAP1 POP SWAP2 SWAP1 POP JUMP JUMPDEST DUP3 DUP2 DUP4 CALLDATACOPY PUSH1 0x0 DUP4 DUP4 ADD MSTORE POP POP POP JUMP JUMPDEST PUSH1 0x0 PUSH3 0x2684 PUSH3 0x267E DUP5 PUSH3 0x2628 JUMP JUMPDEST PUSH3 0x2609 JUMP JUMPDEST SWAP1 POP DUP3 DUP2 MSTORE PUSH1 0x20 DUP2 ADD DUP5 DUP5 DUP5 ADD GT ISZERO PUSH3 0x26A3 JUMPI PUSH3 0x26A2 PUSH3 0x258E JUMP JUMPDEST JUMPDEST PUSH3 0x26B0 DUP5 DUP3 DUP6 PUSH3 0x265E JUMP JUMPDEST POP SWAP4 SWAP3 POP POP POP JUMP JUMPDEST PUSH1 0x0 DUP3 PUSH1 0x1F DUP4 ADD SLT PUSH3 0x26D0 JUMPI PUSH3 0x26CF PUSH3 0x2589 JUMP JUMPDEST JUMPDEST DUP2 CALLDATALOAD PUSH3 0x26E2 DUP5 DUP3 PUSH1 0x20 DUP7 ADD PUSH3 0x266D JUMP JUMPDEST SWAP2 POP POP SWAP3 SWAP2 POP POP JUMP JUMPDEST PUSH1 0x0 PUSH3 0x26F8 DUP3 PUSH3 0x22A9 JUMP JUMPDEST SWAP1 POP SWAP2 SWAP1 POP JUMP JUMPDEST PUSH3 0x270A DUP2 PUSH3 0x26EB JUMP JUMPDEST DUP2 EQ PUSH3 0x2716 JUMPI PUSH1 0x0 DUP1 REVERT JUMPDEST POP JUMP JUMPDEST PUSH1 0x0 DUP2 CALLDATALOAD SWAP1 POP PUSH3 0x272A DUP2 PUSH3 0x26FF JUMP JUMPDEST SWAP3 SWAP2 POP POP JUMP JUMPDEST PUSH1 0x0 DUP1 PUSH1 0x0 DUP1 PUSH1 0x80 DUP6 DUP8 SUB SLT ISZERO PUSH3 0x274D JUMPI PUSH3 0x274C PUSH3 0x229F JUMP JUMPDEST JUMPDEST PUSH1 0x0 PUSH3 0x275D DUP8 DUP3 DUP9 ADD PUSH3 0x22F7 JUMP JUMPDEST SWAP5 POP POP PUSH1 0x20 DUP6 ADD CALLDATALOAD PUSH8 0xFFFFFFFFFFFFFFFF DUP2 GT ISZERO PUSH3 0x2781 JUMPI PUSH3 0x2780 PUSH3 0x22A4 JUMP JUMPDEST JUMPDEST PUSH3 0x278F DUP8 DUP3 DUP9 ADD PUSH3 0x26B8 JUMP JUMPDEST SWAP4 POP POP PUSH1 0x40 DUP6 ADD CALLDATALOAD PUSH8 0xFFFFFFFFFFFFFFFF DUP2 GT ISZERO PUSH3 0x27B3 JUMPI PUSH3 0x27B2 PUSH3 0x22A4 JUMP JUMPDEST JUMPDEST PUSH3 0x27C1 DUP8 DUP3 DUP9 ADD PUSH3 0x26B8 JUMP JUMPDEST SWAP3 POP POP PUSH1 0x60 PUSH3 0x27D4 DUP8 DUP3 DUP9 ADD PUSH3 0x2719 JUMP JUMPDEST SWAP2 POP POP SWAP3 SWAP6 SWAP2 SWAP5 POP SWAP3 POP JUMP JUMPDEST PUSH1 0x0 DUP2 MLOAD SWAP1 POP PUSH3 0x27F1 DUP2 PUSH3 0x22DD JUMP JUMPDEST SWAP3 SWAP2 POP POP JUMP JUMPDEST PUSH1 0x0 PUSH1 0x20 DUP3 DUP5 SUB SLT ISZERO PUSH3 0x2810 JUMPI PUSH3 0x280F PUSH3 0x229F JUMP JUMPDEST JUMPDEST PUSH1 0x0 PUSH3 0x2820 DUP5 DUP3 DUP6 ADD PUSH3 0x27E0 JUMP JUMPDEST SWAP2 POP POP SWAP3 SWAP2 POP POP JUMP JUMPDEST PUSH32 0x4E487B7100000000000000000000000000000000000000000000000000000000 PUSH1 0x0 MSTORE PUSH1 0x21 PUSH1 0x4 MSTORE PUSH1 0x24 PUSH1 0x0 REVERT JUMPDEST PUSH1 0x3 DUP2 LT PUSH3 0x2866 JUMPI PUSH1 0x0 DUP1 REVERT JUMPDEST POP JUMP JUMPDEST PUSH1 0x0 DUP2 MLOAD SWAP1 POP PUSH3 0x287A DUP2 PUSH3 0x2858 JUMP JUMPDEST SWAP3 SWAP2 POP POP JUMP JUMPDEST PUSH1 0x0 PUSH1 0x20 DUP3 DUP5 SUB SLT ISZERO PUSH3 0x2899 JUMPI PUSH3 0x2898 PUSH3 0x229F JUMP JUMPDEST JUMPDEST PUSH1 0x0 PUSH3 0x28A9 DUP5 DUP3 DUP6 ADD PUSH3 0x2869 JUMP JUMPDEST SWAP2 POP POP SWAP3 SWAP2 POP POP JUMP JUMPDEST PUSH1 0x0 DUP3 DUP3 MSTORE PUSH1 0x20 DUP3 ADD SWAP1 POP SWAP3 SWAP2 POP POP JUMP JUMPDEST PUSH32 0x436F6E747261637420737461747573206D757374206265206F70656E00000000 PUSH1 0x0 DUP3 ADD MSTORE POP JUMP JUMPDEST PUSH1 0x0 PUSH3 0x28FB PUSH1 0x1C DUP4 PUSH3 0x28B2 JUMP JUMPDEST SWAP2 POP PUSH3 0x2908 DUP3 PUSH3 0x28C3 JUMP JUMPDEST PUSH1 0x20 DUP3 ADD SWAP1 POP SWAP2 SWAP1 POP JUMP JUMPDEST PUSH1 0x0 PUSH1 0x20 DUP3 ADD SWAP1 POP DUP2 DUP2 SUB PUSH1 0x0 DUP4 ADD MSTORE PUSH3 0x292E DUP2 PUSH3 0x28EC JUMP JUMPDEST SWAP1 POP SWAP2 SWAP1 POP JUMP JUMPDEST PUSH32 0x436F6E74726163742072656665726565206D75737420657175616C2072657175 PUSH1 0x0 DUP3 ADD MSTORE PUSH32 0x6573746564207265666572656500000000000000000000000000000000000000 PUSH1 0x20 DUP3 ADD MSTORE POP JUMP JUMPDEST PUSH1 0x0 PUSH3 0x2993 PUSH1 0x2D DUP4 PUSH3 0x28B2 JUMP JUMPDEST SWAP2 POP PUSH3 0x29A0 DUP3 PUSH3 0x2935 JUMP JUMPDEST PUSH1 0x40 DUP3 ADD SWAP1 POP SWAP2 SWAP1 POP JUMP JUMPDEST PUSH1 0x0 PUSH1 0x20 DUP3 ADD SWAP1 POP DUP2 DUP2 SUB PUSH1 0x0 DUP4 ADD MSTORE PUSH3 0x29C6 DUP2 PUSH3 0x2984 JUMP JUMPDEST SWAP1 POP SWAP2 SWAP1 POP JUMP JUMPDEST PUSH32 0x4F6E6C792063726561746F72206F6620636F6E74726163742063616E20726571 PUSH1 0x0 DUP3 ADD MSTORE PUSH32 0x7565737420636F6D706C6574696F6E0000000000000000000000000000000000 PUSH1 0x20 DUP3 ADD MSTORE POP JUMP JUMPDEST PUSH1 0x0 PUSH3 0x2A2B PUSH1 0x2F DUP4 PUSH3 0x28B2 JUMP JUMPDEST SWAP2 POP PUSH3 0x2A38 DUP3 PUSH3 0x29CD JUMP JUMPDEST PUSH1 0x40 DUP3 ADD SWAP1 POP SWAP2 SWAP1 POP JUMP JUMPDEST PUSH1 0x0 PUSH1 0x20 DUP3 ADD SWAP1 POP DUP2 DUP2 SUB PUSH1 0x0 DUP4 ADD MSTORE PUSH3 0x2A5E DUP2 PUSH3 0x2A1C JUMP JUMPDEST SWAP1 POP SWAP2 SWAP1 POP JUMP JUMPDEST PUSH1 0x0 PUSH1 0x40 DUP3 ADD SWAP1 POP PUSH3 0x2A7C PUSH1 0x0 DUP4 ADD DUP6 PUSH3 0x252D JUMP JUMPDEST PUSH3 0x2A8B PUSH1 0x20 DUP4 ADD DUP5 PUSH3 0x252D JUMP JUMPDEST SWAP4 SWAP3 POP POP POP JUMP JUMPDEST PUSH32 0x537461727420696E6465782063616E6E6F74206265206E656761746976650000 PUSH1 0x0 DUP3 ADD MSTORE POP JUMP JUMPDEST PUSH1 0x0 PUSH3 0x2ACA PUSH1 0x1E DUP4 PUSH3 0x28B2 JUMP JUMPDEST SWAP2 POP PUSH3 0x2AD7 DUP3 PUSH3 0x2A92 JUMP JUMPDEST PUSH1 0x20 DUP3 ADD SWAP1 POP SWAP2 SWAP1 POP JUMP JUMPDEST PUSH1 0x0 PUSH1 0x20 DUP3 ADD SWAP1 POP DUP2 DUP2 SUB PUSH1 0x0 DUP4 ADD MSTORE PUSH3 0x2AFD DUP2 PUSH3 0x2ABB JUMP JUMPDEST SWAP1 POP SWAP2 SWAP1 POP JUMP JUMPDEST PUSH32 0x456E6420696E6465782065786365656473207573657220616464726573736573 PUSH1 0x0 DUP3 ADD MSTORE PUSH32 0x206C656E67746800000000000000000000000000000000000000000000000000 PUSH1 0x20 DUP3 ADD MSTORE POP JUMP JUMPDEST PUSH1 0x0 PUSH3 0x2B62 PUSH1 0x27 DUP4 PUSH3 0x28B2 JUMP JUMPDEST SWAP2 POP PUSH3 0x2B6F DUP3 PUSH3 0x2B04 JUMP JUMPDEST PUSH1 0x40 DUP3 ADD SWAP1 POP SWAP2 SWAP1 POP JUMP JUMPDEST PUSH1 0x0 PUSH1 0x20 DUP3 ADD SWAP1 POP DUP2 DUP2 SUB PUSH1 0x0 DUP4 ADD MSTORE PUSH3 0x2B95 DUP2 PUSH3 0x2B53 JUMP JUMPDEST SWAP1 POP SWAP2 SWAP1 POP JUMP JUMPDEST PUSH32 0x4E487B7100000000000000000000000000000000000000000000000000000000 PUSH1 0x0 MSTORE PUSH1 0x11 PUSH1 0x4 MSTORE PUSH1 0x24 PUSH1 0x0 REVERT JUMPDEST PUSH1 0x0 PUSH3 0x2BD8 DUP3 PUSH3 0x2355 JUMP JUMPDEST SWAP2 POP PUSH3 0x2BE5 DUP4 PUSH3 0x2355 JUMP JUMPDEST SWAP3 POP DUP3 DUP3 LT ISZERO PUSH3 0x2BFB JUMPI PUSH3 0x2BFA PUSH3 0x2B9C JUMP JUMPDEST JUMPDEST DUP3 DUP3 SUB SWAP1 POP SWAP3 SWAP2 POP POP JUMP JUMPDEST PUSH32 0x4E487B7100000000000000000000000000000000000000000000000000000000 PUSH1 0x0 MSTORE PUSH1 0x32 PUSH1 0x4 MSTORE PUSH1 0x24 PUSH1 0x0 REVERT JUMPDEST PUSH1 0x0 PUSH3 0x2C42 DUP3 PUSH3 0x2355 JUMP JUMPDEST SWAP2 POP PUSH32 0xFFFFFFFFFFFFFFFFFFFFFFFFFFFFFFFFFFFFFFFFFFFFFFFFFFFFFFFFFFFFFFFF DUP3 EQ ISZERO PUSH3 0x2C78 JUMPI PUSH3 0x2C77 PUSH3 0x2B9C JUMP JUMPDEST JUMPDEST PUSH1 0x1 DUP3 ADD SWAP1 POP SWAP2 SWAP1 POP JUMP JUMPDEST PUSH1 0x0 PUSH3 0x2C90 DUP3 PUSH3 0x22C9 JUMP JUMPDEST SWAP1 POP SWAP2 SWAP1 POP JUMP JUMPDEST PUSH3 0x2CA2 DUP2 PUSH3 0x2C83 JUMP JUMPDEST DUP2 EQ PUSH3 0x2CAE JUMPI PUSH1 0x0 DUP1 REVERT JUMPDEST POP JUMP JUMPDEST PUSH1 0x0 DUP2 MLOAD SWAP1 POP PUSH3 0x2CC2 DUP2 PUSH3 0x2C97 JUMP JUMPDEST SWAP3 SWAP2 POP POP JUMP JUMPDEST PUSH1 0x0 PUSH1 0x20 DUP3 DUP5 SUB SLT ISZERO PUSH3 0x2CE1 JUMPI PUSH3 0x2CE0 PUSH3 0x229F JUMP JUMPDEST JUMPDEST PUSH1 0x0 PUSH3 0x2CF1 DUP5 DUP3 DUP6 ADD PUSH3 0x2CB1 JUMP JUMPDEST SWAP2 POP POP SWAP3 SWAP2 POP POP JUMP JUMPDEST PUSH1 0x0 DUP2 MLOAD SWAP1 POP SWAP2 SWAP1 POP JUMP JUMPDEST PUSH1 0x0 JUMPDEST DUP4 DUP2 LT ISZERO PUSH3 0x2D25 JUMPI DUP1 DUP3 ADD MLOAD DUP2 DUP5 ADD MSTORE PUSH1 0x20 DUP2 ADD SWAP1 POP PUSH3 0x2D08 JUMP JUMPDEST DUP4 DUP2 GT ISZERO PUSH3 0x2D35 JUMPI PUSH1 0x0 DUP5 DUP5 ADD MSTORE JUMPDEST POP POP POP POP JUMP JUMPDEST PUSH1 0x0 PUSH3 0x2D48 DUP3 PUSH3 0x2CFA JUMP JUMPDEST PUSH3 0x2D54 DUP2 DUP6 PUSH3 0x28B2 JUMP JUMPDEST SWAP4 POP PUSH3 0x2D66 DUP2 DUP6 PUSH1 0x20 DUP7 ADD PUSH3 0x2D05 JUMP JUMPDEST PUSH3 0x2D71 DUP2 PUSH3 0x2593 JUMP JUMPDEST DUP5 ADD SWAP2 POP POP SWAP3 SWAP2 POP POP JUMP JUMPDEST PUSH1 0x0 DUP2 SWAP1 POP SWAP2 SWAP1 POP JUMP JUMPDEST PUSH1 0x0 PUSH3 0x2DA7 PUSH3 0x2DA1 PUSH3 0x2D9B DUP5 PUSH3 0x22A9 JUMP JUMPDEST PUSH3 0x2D7C JUMP JUMPDEST PUSH3 0x22A9 JUMP JUMPDEST SWAP1 POP SWAP2 SWAP1 POP JUMP JUMPDEST PUSH1 0x0 PUSH3 0x2DBB DUP3 PUSH3 0x2D86 JUMP JUMPDEST SWAP1 POP SWAP2 SWAP1 POP JUMP JUMPDEST PUSH1 0x0 PUSH3 0x2DCF DUP3 PUSH3 0x2DAE JUMP JUMPDEST SWAP1 POP SWAP2 SWAP1 POP JUMP JUMPDEST PUSH3 0x2DE1 DUP2 PUSH3 0x2DC2 JUMP JUMPDEST DUP3 MSTORE POP POP JUMP JUMPDEST PUSH1 0x0 PUSH1 0xC0 DUP3 ADD SWAP1 POP PUSH3 0x2DFE PUSH1 0x0 DUP4 ADD DUP10 PUSH3 0x252D JUMP JUMPDEST PUSH3 0x2E0D PUSH1 0x20 DUP4 ADD DUP9 PUSH3 0x252D JUMP JUMPDEST DUP2 DUP2 SUB PUSH1 0x40 DUP4 ADD MSTORE PUSH3 0x2E21 DUP2 DUP8 PUSH3 0x2D3B JUMP JUMPDEST SWAP1 POP DUP2 DUP2 SUB PUSH1 0x60 DUP4 ADD MSTORE PUSH3 0x2E37 DUP2 DUP7 PUSH3 0x2D3B JUMP JUMPDEST SWAP1 POP PUSH3 0x2E48 PUSH1 0x80 DUP4 ADD DUP6 PUSH3 0x2DD6 JUMP JUMPDEST PUSH3 0x2E57 PUSH1 0xA0 DUP4 ADD DUP5 PUSH3 0x255B JUMP JUMPDEST SWAP8 SWAP7 POP POP POP POP POP POP POP JUMP JUMPDEST PUSH1 0x0 PUSH3 0x2E6F DUP3 PUSH3 0x2355 JUMP JUMPDEST SWAP2 POP PUSH3 0x2E7C DUP4 PUSH3 0x2355 JUMP JUMPDEST SWAP3 POP DUP3 PUSH32 0xFFFFFFFFFFFFFFFFFFFFFFFFFFFFFFFFFFFFFFFFFFFFFFFFFFFFFFFFFFFFFFFF SUB DUP3 GT ISZERO PUSH3 0x2EB4 JUMPI PUSH3 0x2EB3 PUSH3 0x2B9C JUMP JUMPDEST JUMPDEST DUP3 DUP3 ADD SWAP1 POP SWAP3 SWAP2 POP POP JUMP JUMPDEST PUSH32 0x4E487B7100000000000000000000000000000000000000000000000000000000 PUSH1 0x0 MSTORE PUSH1 0x31 PUSH1 0x4 MSTORE PUSH1 0x24 PUSH1 0x0 REVERT INVALID PUSH1 0x80 PUSH1 0x40 MSTORE CALLVALUE DUP1 ISZERO PUSH2 0x10 JUMPI PUSH1 0x0 DUP1 REVERT JUMPDEST POP PUSH1 0x40 MLOAD PUSH2 0x3E7 CODESIZE SUB DUP1 PUSH2 0x3E7 DUP4 CODECOPY DUP2 DUP2 ADD PUSH1 0x40 MSTORE DUP2 ADD SWAP1 PUSH2 0x32 SWAP2 SWAP1 PUSH2 0x148 JUMP JUMPDEST DUP2 PUSH1 0x0 DUP1 PUSH2 0x100 EXP DUP2 SLOAD DUP2 PUSH20 0xFFFFFFFFFFFFFFFFFFFFFFFFFFFFFFFFFFFFFFFF MUL NOT AND SWAP1 DUP4 PUSH20 0xFFFFFFFFFFFFFFFFFFFFFFFFFFFFFFFFFFFFFFFF AND MUL OR SWAP1 SSTORE POP DUP1 PUSH1 0x1 PUSH1 0x0 PUSH2 0x100 EXP DUP2 SLOAD DUP2 PUSH20 0xFFFFFFFFFFFFFFFFFFFFFFFFFFFFFFFFFFFFFFFF MUL NOT AND SWAP1 DUP4 PUSH20 0xFFFFFFFFFFFFFFFFFFFFFFFFFFFFFFFFFFFFFFFF AND MUL OR SWAP1 SSTORE POP PUSH1 0x0 PUSH1 0x1 PUSH1 0x14 PUSH2 0x100 EXP DUP2 SLOAD DUP2 PUSH1 0xFF MUL NOT AND SWAP1 DUP4 PUSH1 0x1 DUP2 GT ISZERO PUSH2 0xD9 JUMPI PUSH2 0xD8 PUSH2 0x188 JUMP JUMPDEST JUMPDEST MUL OR SWAP1 SSTORE POP POP POP PUSH2 0x1B7 JUMP JUMPDEST PUSH1 0x0 DUP1 REVERT JUMPDEST PUSH1 0x0 PUSH20 0xFFFFFFFFFFFFFFFFFFFFFFFFFFFFFFFFFFFFFFFF DUP3 AND SWAP1 POP SWAP2 SWAP1 POP JUMP JUMPDEST PUSH1 0x0 PUSH2 0x115 DUP3 PUSH2 0xEA JUMP JUMPDEST SWAP1 POP SWAP2 SWAP1 POP JUMP JUMPDEST PUSH2 0x125 DUP2 PUSH2 0x10A JUMP JUMPDEST DUP2 EQ PUSH2 0x130 JUMPI PUSH1 0x0 DUP1 REVERT JUMPDEST POP JUMP JUMPDEST PUSH1 0x0 DUP2 MLOAD SWAP1 POP PUSH2 0x142 DUP2 PUSH2 0x11C JUMP JUMPDEST SWAP3 SWAP2 POP POP JUMP JUMPDEST PUSH1 0x0 DUP1 PUSH1 0x40 DUP4 DUP6 SUB SLT ISZERO PUSH2 0x15F JUMPI PUSH2 0x15E PUSH2 0xE5 JUMP JUMPDEST JUMPDEST PUSH1 0x0 PUSH2 0x16D DUP6 DUP3 DUP7 ADD PUSH2 0x133 JUMP JUMPDEST SWAP3 POP POP PUSH1 0x20 PUSH2 0x17E DUP6 DUP3 DUP7 ADD PUSH2 0x133 JUMP JUMPDEST SWAP2 POP POP SWAP3 POP SWAP3 SWAP1 POP JUMP JUMPDEST PUSH32 0x4E487B7100000000000000000000000000000000000000000000000000000000 PUSH1 0x0 MSTORE PUSH1 0x21 PUSH1 0x4 MSTORE PUSH1 0x24 PUSH1 0x0 REVERT JUMPDEST PUSH2 0x221 DUP1 PUSH2 0x1C6 PUSH1 0x0 CODECOPY PUSH1 0x0 RETURN INVALID PUSH1 0x80 PUSH1 0x40 MSTORE CALLVALUE DUP1 ISZERO PUSH2 0x10 JUMPI PUSH1 0x0 DUP1 REVERT JUMPDEST POP PUSH1 0x4 CALLDATASIZE LT PUSH2 0x41 JUMPI PUSH1 0x0 CALLDATALOAD PUSH1 0xE0 SHR DUP1 PUSH4 0x200D2ED2 EQ PUSH2 0x46 JUMPI DUP1 PUSH4 0x3C490174 EQ PUSH2 0x64 JUMPI DUP1 PUSH4 0x4F8632BA EQ PUSH2 0x82 JUMPI JUMPDEST PUSH1 0x0 DUP1 REVERT JUMPDEST PUSH2 0x4E PUSH2 0xA0 JUMP JUMPDEST PUSH1 0x40 MLOAD PUSH2 0x5B SWAP2 SWAP1 PUSH2 0x174 JUMP JUMPDEST PUSH1 0x40 MLOAD DUP1 SWAP2 SUB SWAP1 RETURN JUMPDEST PUSH2 0x6C PUSH2 0xB3 JUMP JUMPDEST PUSH1 0x40 MLOAD PUSH2 0x79 SWAP2 SWAP1 PUSH2 0x1D0 JUMP JUMPDEST PUSH1 0x40 MLOAD DUP1 SWAP2 SUB SWAP1 RETURN JUMPDEST PUSH2 0x8A PUSH2 0xD9 JUMP JUMPDEST PUSH1 0x40 MLOAD PUSH2 0x97 SWAP2 SWAP1 PUSH2 0x1D0 JUMP JUMPDEST PUSH1 0x40 MLOAD DUP1 SWAP2 SUB SWAP1 RETURN JUMPDEST PUSH1 0x1 PUSH1 0x14 SWAP1 SLOAD SWAP1 PUSH2 0x100 EXP SWAP1 DIV PUSH1 0xFF AND DUP2 JUMP JUMPDEST PUSH1 0x1 PUSH1 0x0 SWAP1 SLOAD SWAP1 PUSH2 0x100 EXP SWAP1 DIV PUSH20 0xFFFFFFFFFFFFFFFFFFFFFFFFFFFFFFFFFFFFFFFF AND DUP2 JUMP JUMPDEST PUSH1 0x0 DUP1 SLOAD SWAP1 PUSH2 0x100 EXP SWAP1 DIV PUSH20 0xFFFFFFFFFFFFFFFFFFFFFFFFFFFFFFFFFFFFFFFF AND DUP2 JUMP JUMPDEST PUSH32 0x4E487B7100000000000000000000000000000000000000000000000000000000 PUSH1 0x0 MSTORE PUSH1 0x21 PUSH1 0x4 MSTORE PUSH1 0x24 PUSH1 0x0 REVERT JUMPDEST PUSH1 0x2 DUP2 LT PUSH2 0x13D JUMPI PUSH2 0x13C PUSH2 0xFD JUMP JUMPDEST JUMPDEST POP JUMP JUMPDEST PUSH1 0x0 DUP2 SWAP1 POP PUSH2 0x14E DUP3 PUSH2 0x12C JUMP JUMPDEST SWAP2 SWAP1 POP JUMP JUMPDEST PUSH1 0x0 PUSH2 0x15E DUP3 PUSH2 0x140 JUMP JUMPDEST SWAP1 POP SWAP2 SWAP1 POP JUMP JUMPDEST PUSH2 0x16E DUP2 PUSH2 0x153 JUMP JUMPDEST DUP3 MSTORE POP POP JUMP JUMPDEST PUSH1 0x0 PUSH1 0x20 DUP3 ADD SWAP1 POP PUSH2 0x189 PUSH1 0x0 DUP4 ADD DUP5 PUSH2 0x165 JUMP JUMPDEST SWAP3 SWAP2 POP POP JUMP JUMPDEST PUSH1 0x0 PUSH20 0xFFFFFFFFFFFFFFFFFFFFFFFFFFFFFFFFFFFFFFFF DUP3 AND SWAP1 POP SWAP2 SWAP1 POP JUMP JUMPDEST PUSH1 0x0 PUSH2 0x1BA DUP3 PUSH2 0x18F JUMP JUMPDEST SWAP1 POP SWAP2 SWAP1 POP JUMP JUMPDEST PUSH2 0x1CA DUP2 PUSH2 0x1AF JUMP JUMPDEST DUP3 MSTORE POP POP JUMP JUMPDEST PUSH1 0x0 PUSH1 0x20 DUP3 ADD SWAP1 POP PUSH2 0x1E5 PUSH1 0x0 DUP4 ADD DUP5 PUSH2 0x1C1 JUMP JUMPDEST SWAP3 SWAP2 POP POP JUMP INVALID LOG2 PUSH5 0x6970667358 0x22 SLT KECCAK256 CALLVALUE MOD PUSH23 0x85A2ACFD4FDDCA388A5B2696E6CB3AA859E17DC0E5D9B8 BYTE PUSH20 0x11B0DF1664736F6C634300080C00336080604052 PUSH1 0x40 MLOAD PUSH3 0x119C CODESIZE SUB DUP1 PUSH3 0x119C DUP4 CODECOPY DUP2 DUP2 ADD PUSH1 0x40 MSTORE DUP2 ADD SWAP1 PUSH3 0x29 SWAP2 SWAP1 PUSH3 0x44B JUMP JUMPDEST DUP6 PUSH1 0x0 DUP1 PUSH2 0x100 EXP DUP2 SLOAD DUP2 PUSH20 0xFFFFFFFFFFFFFFFFFFFFFFFFFFFFFFFFFFFFFFFF MUL NOT AND SWAP1 DUP4 PUSH20 0xFFFFFFFFFFFFFFFFFFFFFFFFFFFFFFFFFFFFFFFF AND MUL OR SWAP1 SSTORE POP DUP5 PUSH1 0x1 PUSH1 0x0 PUSH2 0x100 EXP DUP2 SLOAD DUP2 PUSH20 0xFFFFFFFFFFFFFFFFFFFFFFFFFFFFFFFFFFFFFFFF MUL NOT AND SWAP1 DUP4 PUSH20 0xFFFFFFFFFFFFFFFFFFFFFFFFFFFFFFFFFFFFFFFF AND MUL OR SWAP1 SSTORE POP DUP4 PUSH1 0x2 SWAP1 DUP1 MLOAD SWAP1 PUSH1 0x20 ADD SWAP1 PUSH3 0xC2 SWAP3 SWAP2 SWAP1 PUSH3 0x15E JUMP JUMPDEST POP DUP3 PUSH1 0x3 SWAP1 DUP1 MLOAD SWAP1 PUSH1 0x20 ADD SWAP1 PUSH3 0xDB SWAP3 SWAP2 SWAP1 PUSH3 0x15E JUMP JUMPDEST POP DUP2 PUSH1 0x4 PUSH1 0x0 PUSH2 0x100 EXP DUP2 SLOAD DUP2 PUSH20 0xFFFFFFFFFFFFFFFFFFFFFFFFFFFFFFFFFFFFFFFF MUL NOT AND SWAP1 DUP4 PUSH20 0xFFFFFFFFFFFFFFFFFFFFFFFFFFFFFFFFFFFFFFFF AND MUL OR SWAP1 SSTORE POP DUP1 PUSH1 0x5 DUP2 SWAP1 SSTORE POP PUSH1 0x0 PUSH1 0x6 PUSH1 0x0 PUSH2 0x100 EXP DUP2 SLOAD DUP2 PUSH1 0xFF MUL NOT AND SWAP1 DUP4 PUSH1 0x2 DUP2 GT ISZERO PUSH3 0x14D JUMPI PUSH3 0x14C PUSH3 0x525 JUMP JUMPDEST JUMPDEST MUL OR SWAP1 SSTORE POP POP POP POP POP POP POP PUSH3 0x5B9 JUMP JUMPDEST DUP3 DUP1 SLOAD PUSH3 0x16C SWAP1 PUSH3 0x583 JUMP JUMPDEST SWAP1 PUSH1 0x0 MSTORE PUSH1 0x20 PUSH1 0x0 KECCAK256 SWAP1 PUSH1 0x1F ADD PUSH1 0x20 SWAP1 DIV DUP2 ADD SWAP3 DUP3 PUSH3 0x190 JUMPI PUSH1 0x0 DUP6 SSTORE PUSH3 0x1DC JUMP JUMPDEST DUP3 PUSH1 0x1F LT PUSH3 0x1AB JUMPI DUP1 MLOAD PUSH1 0xFF NOT AND DUP4 DUP1 ADD OR DUP6 SSTORE PUSH3 0x1DC JUMP JUMPDEST DUP3 DUP1 ADD PUSH1 0x1 ADD DUP6 SSTORE DUP3 ISZERO PUSH3 0x1DC JUMPI SWAP2 DUP3 ADD JUMPDEST DUP3 DUP2 GT ISZERO PUSH3 0x1DB JUMPI DUP3 MLOAD DUP3 SSTORE SWAP2 PUSH1 0x20 ADD SWAP2 SWAP1 PUSH1 0x1 ADD SWAP1 PUSH3 0x1BE JUMP JUMPDEST JUMPDEST POP SWAP1 POP PUSH3 0x1EB SWAP2 SWAP1 PUSH3 0x1EF JUMP JUMPDEST POP SWAP1 JUMP JUMPDEST JUMPDEST DUP1 DUP3 GT ISZERO PUSH3 0x20A JUMPI PUSH1 0x0 DUP2 PUSH1 0x0 SWAP1 SSTORE POP PUSH1 0x1 ADD PUSH3 0x1F0 JUMP JUMPDEST POP SWAP1 JUMP JUMPDEST PUSH1 0x0 PUSH1 0x40 MLOAD SWAP1 POP SWAP1 JUMP JUMPDEST PUSH1 0x0 DUP1 REVERT JUMPDEST PUSH1 0x0 DUP1 REVERT JUMPDEST PUSH1 0x0 PUSH20 0xFFFFFFFFFFFFFFFFFFFFFFFFFFFFFFFFFFFFFFFF DUP3 AND SWAP1 POP SWAP2 SWAP1 POP JUMP JUMPDEST PUSH1 0x0 PUSH3 0x24F DUP3 PUSH3 0x222 JUMP JUMPDEST SWAP1 POP SWAP2 SWAP1 POP JUMP JUMPDEST PUSH3 0x261 DUP2 PUSH3 0x242 JUMP JUMPDEST DUP2 EQ PUSH3 0x26D JUMPI PUSH1 0x0 DUP1 REVERT JUMPDEST POP JUMP JUMPDEST PUSH1 0x0 DUP2 MLOAD SWAP1 POP PUSH3 0x281 DUP2 PUSH3 0x256 JUMP JUMPDEST SWAP3 SWAP2 POP POP JUMP JUMPDEST PUSH1 0x0 DUP1 REVERT JUMPDEST PUSH1 0x0 DUP1 REVERT JUMPDEST PUSH1 0x0 PUSH1 0x1F NOT PUSH1 0x1F DUP4 ADD AND SWAP1 POP SWAP2 SWAP1 POP JUMP JUMPDEST PUSH32 0x4E487B7100000000000000000000000000000000000000000000000000000000 PUSH1 0x0 MSTORE PUSH1 0x41 PUSH1 0x4 MSTORE PUSH1 0x24 PUSH1 0x0 REVERT JUMPDEST PUSH3 0x2DC DUP3 PUSH3 0x291 JUMP JUMPDEST DUP2 ADD DUP2 DUP2 LT PUSH8 0xFFFFFFFFFFFFFFFF DUP3 GT OR ISZERO PUSH3 0x2FE JUMPI PUSH3 0x2FD PUSH3 0x2A2 JUMP JUMPDEST JUMPDEST DUP1 PUSH1 0x40 MSTORE POP POP POP JUMP JUMPDEST PUSH1 0x0 PUSH3 0x313 PUSH3 0x20E JUMP JUMPDEST SWAP1 POP PUSH3 0x321 DUP3 DUP3 PUSH3 0x2D1 JUMP JUMPDEST SWAP2 SWAP1 POP JUMP JUMPDEST PUSH1 0x0 PUSH8 0xFFFFFFFFFFFFFFFF DUP3 GT ISZERO PUSH3 0x344 JUMPI PUSH3 0x343 PUSH3 0x2A2 JUMP JUMPDEST JUMPDEST PUSH3 0x34F DUP3 PUSH3 0x291 JUMP JUMPDEST SWAP1 POP PUSH1 0x20 DUP2 ADD SWAP1 POP SWAP2 SWAP1 POP JUMP JUMPDEST PUSH1 0x0 JUMPDEST DUP4 DUP2 LT ISZERO PUSH3 0x37C JUMPI DUP1 DUP3 ADD MLOAD DUP2 DUP5 ADD MSTORE PUSH1 0x20 DUP2 ADD SWAP1 POP PUSH3 0x35F JUMP JUMPDEST DUP4 DUP2 GT ISZERO PUSH3 0x38C JUMPI PUSH1 0x0 DUP5 DUP5 ADD MSTORE JUMPDEST POP POP POP POP JUMP JUMPDEST PUSH1 0x0 PUSH3 0x3A9 PUSH3 0x3A3 DUP5 PUSH3 0x326 JUMP JUMPDEST PUSH3 0x307 JUMP JUMPDEST SWAP1 POP DUP3 DUP2 MSTORE PUSH1 0x20 DUP2 ADD DUP5 DUP5 DUP5 ADD GT ISZERO PUSH3 0x3C8 JUMPI PUSH3 0x3C7 PUSH3 0x28C JUMP JUMPDEST JUMPDEST PUSH3 0x3D5 DUP5 DUP3 DUP6 PUSH3 0x35C JUMP JUMPDEST POP SWAP4 SWAP3 POP POP POP JUMP JUMPDEST PUSH1 0x0 DUP3 PUSH1 0x1F DUP4 ADD SLT PUSH3 0x3F5 JUMPI PUSH3 0x3F4 PUSH3 0x287 JUMP JUMPDEST JUMPDEST DUP2 MLOAD PUSH3 0x407 DUP5 DUP3 PUSH1 0x20 DUP7 ADD PUSH3 0x392 JUMP JUMPDEST SWAP2 POP POP SWAP3 SWAP2 POP POP JUMP JUMPDEST PUSH1 0x0 DUP2 SWAP1 POP SWAP2 SWAP1 POP JUMP JUMPDEST PUSH3 0x425 DUP2 PUSH3 0x410 JUMP JUMPDEST DUP2 EQ PUSH3 0x431 JUMPI PUSH1 0x0 DUP1 REVERT JUMPDEST POP JUMP JUMPDEST PUSH1 0x0 DUP2 MLOAD SWAP1 POP PUSH3 0x445 DUP2 PUSH3 0x41A JUMP JUMPDEST SWAP3 SWAP2 POP POP JUMP JUMPDEST PUSH1 0x0 DUP1 PUSH1 0x0 DUP1 PUSH1 0x0 DUP1 PUSH1 0xC0 DUP8 DUP10 SUB SLT ISZERO PUSH3 0x46B JUMPI PUSH3 0x46A PUSH3 0x218 JUMP JUMPDEST JUMPDEST PUSH1 0x0 PUSH3 0x47B DUP10 DUP3 DUP11 ADD PUSH3 0x270 JUMP JUMPDEST SWAP7 POP POP PUSH1 0x20 PUSH3 0x48E DUP10 DUP3 DUP11 ADD PUSH3 0x270 JUMP JUMPDEST SWAP6 POP POP PUSH1 0x40 DUP8 ADD MLOAD PUSH8 0xFFFFFFFFFFFFFFFF DUP2 GT ISZERO PUSH3 0x4B2 JUMPI PUSH3 0x4B1 PUSH3 0x21D JUMP JUMPDEST JUMPDEST PUSH3 0x4C0 DUP10 DUP3 DUP11 ADD PUSH3 0x3DD JUMP JUMPDEST SWAP5 POP POP PUSH1 0x60 DUP8 ADD MLOAD PUSH8 0xFFFFFFFFFFFFFFFF DUP2 GT ISZERO PUSH3 0x4E4 JUMPI PUSH3 0x4E3 PUSH3 0x21D JUMP JUMPDEST JUMPDEST PUSH3 0x4F2 DUP10 DUP3 DUP11 ADD PUSH3 0x3DD JUMP JUMPDEST SWAP4 POP POP PUSH1 0x80 PUSH3 0x505 DUP10 DUP3 DUP11 ADD PUSH3 0x270 JUMP JUMPDEST SWAP3 POP POP PUSH1 0xA0 PUSH3 0x518 DUP10 DUP3 DUP11 ADD PUSH3 0x434 JUMP JUMPDEST SWAP2 POP POP SWAP3 SWAP6 POP SWAP3 SWAP6 POP SWAP3 SWAP6 JUMP JUMPDEST PUSH32 0x4E487B7100000000000000000000000000000000000000000000000000000000 PUSH1 0x0 MSTORE PUSH1 0x21 PUSH1 0x4 MSTORE PUSH1 0x24 PUSH1 0x0 REVERT JUMPDEST PUSH32 0x4E487B7100000000000000000000000000000000000000000000000000000000 PUSH1 0x0 MSTORE PUSH1 0x22 PUSH1 0x4 MSTORE PUSH1 0x24 PUSH1 0x0 REVERT JUMPDEST PUSH1 0x0 PUSH1 0x2 DUP3 DIV SWAP1 POP PUSH1 0x1 DUP3 AND DUP1 PUSH3 0x59C JUMPI PUSH1 0x7F DUP3 AND SWAP2 POP JUMPDEST PUSH1 0x20 DUP3 LT DUP2 EQ ISZERO PUSH3 0x5B3 JUMPI PUSH3 0x5B2 PUSH3 0x554 JUMP JUMPDEST JUMPDEST POP SWAP2 SWAP1 POP JUMP JUMPDEST PUSH2 0xBD3 DUP1 PUSH3 0x5C9 PUSH1 0x0 CODECOPY PUSH1 0x0 RETURN INVALID PUSH1 0x80 PUSH1 0x40 MSTORE PUSH1 0x4 CALLDATASIZE LT PUSH2 0x86 JUMPI PUSH1 0x0 CALLDATALOAD PUSH1 0xE0 SHR DUP1 PUSH4 0x3B1BEBD1 GT PUSH2 0x59 JUMPI DUP1 PUSH4 0x3B1BEBD1 EQ PUSH2 0x12A JUMPI DUP1 PUSH4 0x4177FE51 EQ PUSH2 0x155 JUMPI DUP1 PUSH4 0x7284E416 EQ PUSH2 0x180 JUMPI DUP1 PUSH4 0xAA8C217C EQ PUSH2 0x1AB JUMPI DUP1 PUSH4 0xB4FEDC11 EQ PUSH2 0x1D6 JUMPI PUSH2 0x86 JUMP JUMPDEST DUP1 PUSH4 0x2D05D3F EQ PUSH2 0x8B JUMPI DUP1 PUSH4 0x6FDDE03 EQ PUSH2 0xB6 JUMPI DUP1 PUSH4 0x200D2ED2 EQ PUSH2 0xE1 JUMPI DUP1 PUSH4 0x2D398FA6 EQ PUSH2 0x10C JUMPI JUMPDEST PUSH1 0x0 DUP1 REVERT JUMPDEST CALLVALUE DUP1 ISZERO PUSH2 0x97 JUMPI PUSH1 0x0 DUP1 REVERT JUMPDEST POP PUSH2 0xA0 PUSH2 0x1F4 JUMP JUMPDEST PUSH1 0x40 MLOAD PUSH2 0xAD SWAP2 SWAP1 PUSH2 0x770 JUMP JUMPDEST PUSH1 0x40 MLOAD DUP1 SWAP2 SUB SWAP1 RETURN JUMPDEST CALLVALUE DUP1 ISZERO PUSH2 0xC2 JUMPI PUSH1 0x0 DUP1 REVERT JUMPDEST POP PUSH2 0xCB PUSH2 0x218 JUMP JUMPDEST PUSH1 0x40 MLOAD PUSH2 0xD8 SWAP2 SWAP1 PUSH2 0x824 JUMP JUMPDEST PUSH1 0x40 MLOAD DUP1 SWAP2 SUB SWAP1 RETURN JUMPDEST CALLVALUE DUP1 ISZERO PUSH2 0xED JUMPI PUSH1 0x0 DUP1 REVERT JUMPDEST POP PUSH2 0xF6 PUSH2 0x2A6 JUMP JUMPDEST PUSH1 0x40 MLOAD PUSH2 0x103 SWAP2 SWAP1 PUSH2 0x8BD JUMP JUMPDEST PUSH1 0x40 MLOAD DUP1 SWAP2 SUB SWAP1 RETURN JUMPDEST PUSH2 0x114 PUSH2 0x2B9 JUMP JUMPDEST PUSH1 0x40 MLOAD PUSH2 0x121 SWAP2 SWAP1 PUSH2 0x937 JUMP JUMPDEST PUSH1 0x40 MLOAD DUP1 SWAP2 SUB SWAP1 RETURN JUMPDEST CALLVALUE DUP1 ISZERO PUSH2 0x136 JUMPI PUSH1 0x0 DUP1 REVERT JUMPDEST POP PUSH2 0x13F PUSH2 0x4B0 JUMP JUMPDEST PUSH1 0x40 MLOAD PUSH2 0x14C SWAP2 SWAP1 PUSH2 0x770 JUMP JUMPDEST PUSH1 0x40 MLOAD DUP1 SWAP2 SUB SWAP1 RETURN JUMPDEST CALLVALUE DUP1 ISZERO PUSH2 0x161 JUMPI PUSH1 0x0 DUP1 REVERT JUMPDEST POP PUSH2 0x16A PUSH2 0x4D6 JUMP JUMPDEST PUSH1 0x40 MLOAD PUSH2 0x177 SWAP2 SWAP1 PUSH2 0x770 JUMP JUMPDEST PUSH1 0x40 MLOAD DUP1 SWAP2 SUB SWAP1 RETURN JUMPDEST CALLVALUE DUP1 ISZERO PUSH2 0x18C JUMPI PUSH1 0x0 DUP1 REVERT JUMPDEST POP PUSH2 0x195 PUSH2 0x4FC JUMP JUMPDEST PUSH1 0x40 MLOAD PUSH2 0x1A2 SWAP2 SWAP1 PUSH2 0x824 JUMP JUMPDEST PUSH1 0x40 MLOAD DUP1 SWAP2 SUB SWAP1 RETURN JUMPDEST CALLVALUE DUP1 ISZERO PUSH2 0x1B7 JUMPI PUSH1 0x0 DUP1 REVERT JUMPDEST POP PUSH2 0x1C0 PUSH2 0x58A JUMP JUMPDEST PUSH1 0x40 MLOAD PUSH2 0x1CD SWAP2 SWAP1 PUSH2 0x96B JUMP JUMPDEST PUSH1 0x40 MLOAD DUP1 SWAP2 SUB SWAP1 RETURN JUMPDEST PUSH2 0x1DE PUSH2 0x590 JUMP JUMPDEST PUSH1 0x40 MLOAD PUSH2 0x1EB SWAP2 SWAP1 PUSH2 0x937 JUMP JUMPDEST PUSH1 0x40 MLOAD DUP1 SWAP2 SUB SWAP1 RETURN JUMPDEST PUSH1 0x0 DUP1 SLOAD SWAP1 PUSH2 0x100 EXP SWAP1 DIV PUSH20 0xFFFFFFFFFFFFFFFFFFFFFFFFFFFFFFFFFFFFFFFF AND DUP2 JUMP JUMPDEST PUSH1 0x2 DUP1 SLOAD PUSH2 0x225 SWAP1 PUSH2 0x9B5 JUMP JUMPDEST DUP1 PUSH1 0x1F ADD PUSH1 0x20 DUP1 SWAP2 DIV MUL PUSH1 0x20 ADD PUSH1 0x40 MLOAD SWAP1 DUP2 ADD PUSH1 0x40 MSTORE DUP1 SWAP3 SWAP2 SWAP1 DUP2 DUP2 MSTORE PUSH1 0x20 ADD DUP3 DUP1 SLOAD PUSH2 0x251 SWAP1 PUSH2 0x9B5 JUMP JUMPDEST DUP1 ISZERO PUSH2 0x29E JUMPI DUP1 PUSH1 0x1F LT PUSH2 0x273 JUMPI PUSH2 0x100 DUP1 DUP4 SLOAD DIV MUL DUP4 MSTORE SWAP2 PUSH1 0x20 ADD SWAP2 PUSH2 0x29E JUMP JUMPDEST DUP3 ADD SWAP2 SWAP1 PUSH1 0x0 MSTORE PUSH1 0x20 PUSH1 0x0 KECCAK256 SWAP1 JUMPDEST DUP2 SLOAD DUP2 MSTORE SWAP1 PUSH1 0x1 ADD SWAP1 PUSH1 0x20 ADD DUP1 DUP4 GT PUSH2 0x281 JUMPI DUP3 SWAP1 SUB PUSH1 0x1F AND DUP3 ADD SWAP2 JUMPDEST POP POP POP POP POP DUP2 JUMP JUMPDEST PUSH1 0x6 PUSH1 0x0 SWAP1 SLOAD SWAP1 PUSH2 0x100 EXP SWAP1 DIV PUSH1 0xFF AND DUP2 JUMP JUMPDEST PUSH1 0x0 DUP1 PUSH1 0x2 DUP2 GT ISZERO PUSH2 0x2CE JUMPI PUSH2 0x2CD PUSH2 0x846 JUMP JUMPDEST JUMPDEST PUSH1 0x6 PUSH1 0x0 SWAP1 SLOAD SWAP1 PUSH2 0x100 EXP SWAP1 DIV PUSH1 0xFF AND PUSH1 0x2 DUP2 GT ISZERO PUSH2 0x2F0 JUMPI PUSH2 0x2EF PUSH2 0x846 JUMP JUMPDEST JUMPDEST EQ PUSH2 0x330 JUMPI PUSH1 0x40 MLOAD PUSH32 0x8C379A000000000000000000000000000000000000000000000000000000000 DUP2 MSTORE PUSH1 0x4 ADD PUSH2 0x327 SWAP1 PUSH2 0xA59 JUMP JUMPDEST PUSH1 0x40 MLOAD DUP1 SWAP2 SUB SWAP1 REVERT JUMPDEST PUSH1 0x1 PUSH1 0x0 SWAP1 SLOAD SWAP1 PUSH2 0x100 EXP SWAP1 DIV PUSH20 0xFFFFFFFFFFFFFFFFFFFFFFFFFFFFFFFFFFFFFFFF AND PUSH20 0xFFFFFFFFFFFFFFFFFFFFFFFFFFFFFFFFFFFFFFFF AND ORIGIN PUSH20 0xFFFFFFFFFFFFFFFFFFFFFFFFFFFFFFFFFFFFFFFF AND EQ DUP1 PUSH2 0x3D7 JUMPI POP PUSH1 0x0 DUP1 SLOAD SWAP1 PUSH2 0x100 EXP SWAP1 DIV PUSH20 0xFFFFFFFFFFFFFFFFFFFFFFFFFFFFFFFFFFFFFFFF AND PUSH20 0xFFFFFFFFFFFFFFFFFFFFFFFFFFFFFFFFFFFFFFFF AND ORIGIN PUSH20 0xFFFFFFFFFFFFFFFFFFFFFFFFFFFFFFFFFFFFFFFF AND EQ JUMPDEST PUSH2 0x416 JUMPI PUSH1 0x40 MLOAD PUSH32 0x8C379A000000000000000000000000000000000000000000000000000000000 DUP2 MSTORE PUSH1 0x4 ADD PUSH2 0x40D SWAP1 PUSH2 0xAEB JUMP JUMPDEST PUSH1 0x40 MLOAD DUP1 SWAP2 SUB SWAP1 REVERT JUMPDEST PUSH1 0x4 PUSH1 0x0 SWAP1 SLOAD SWAP1 PUSH2 0x100 EXP SWAP1 DIV PUSH20 0xFFFFFFFFFFFFFFFFFFFFFFFFFFFFFFFFFFFFFFFF AND PUSH20 0xFFFFFFFFFFFFFFFFFFFFFFFFFFFFFFFFFFFFFFFF AND PUSH2 0x8FC SELFBALANCE SWAP1 DUP2 ISZERO MUL SWAP1 PUSH1 0x40 MLOAD PUSH1 0x0 PUSH1 0x40 MLOAD DUP1 DUP4 SUB DUP2 DUP6 DUP9 DUP9 CALL SWAP4 POP POP POP POP ISZERO DUP1 ISZERO PUSH2 0x47E JUMPI RETURNDATASIZE PUSH1 0x0 DUP1 RETURNDATACOPY RETURNDATASIZE PUSH1 0x0 REVERT JUMPDEST POP PUSH1 0x2 PUSH1 0x6 PUSH1 0x0 PUSH2 0x100 EXP DUP2 SLOAD DUP2 PUSH1 0xFF MUL NOT AND SWAP1 DUP4 PUSH1 0x2 DUP2 GT ISZERO PUSH2 0x4A5 JUMPI PUSH2 0x4A4 PUSH2 0x846 JUMP JUMPDEST JUMPDEST MUL OR SWAP1 SSTORE POP ADDRESS SWAP1 POP SWAP1 JUMP JUMPDEST PUSH1 0x1 PUSH1 0x0 SWAP1 SLOAD SWAP1 PUSH2 0x100 EXP SWAP1 DIV PUSH20 0xFFFFFFFFFFFFFFFFFFFFFFFFFFFFFFFFFFFFFFFF AND DUP2 JUMP JUMPDEST PUSH1 0x4 PUSH1 0x0 SWAP1 SLOAD SWAP1 PUSH2 0x100 EXP SWAP1 DIV PUSH20 0xFFFFFFFFFFFFFFFFFFFFFFFFFFFFFFFFFFFFFFFF AND DUP2 JUMP JUMPDEST PUSH1 0x3 DUP1 SLOAD PUSH2 0x509 SWAP1 PUSH2 0x9B5 JUMP JUMPDEST DUP1 PUSH1 0x1F ADD PUSH1 0x20 DUP1 SWAP2 DIV MUL PUSH1 0x20 ADD PUSH1 0x40 MLOAD SWAP1 DUP2 ADD PUSH1 0x40 MSTORE DUP1 SWAP3 SWAP2 SWAP1 DUP2 DUP2 MSTORE PUSH1 0x20 ADD DUP3 DUP1 SLOAD PUSH2 0x535 SWAP1 PUSH2 0x9B5 JUMP JUMPDEST DUP1 ISZERO PUSH2 0x582 JUMPI DUP1 PUSH1 0x1F LT PUSH2 0x557 JUMPI PUSH2 0x100 DUP1 DUP4 SLOAD DIV MUL DUP4 MSTORE SWAP2 PUSH1 0x20 ADD SWAP2 PUSH2 0x582 JUMP JUMPDEST DUP3 ADD SWAP2 SWAP1 PUSH1 0x0 MSTORE PUSH1 0x20 PUSH1 0x0 KECCAK256 SWAP1 JUMPDEST DUP2 SLOAD DUP2 MSTORE SWAP1 PUSH1 0x1 ADD SWAP1 PUSH1 0x20 ADD DUP1 DUP4 GT PUSH2 0x565 JUMPI DUP3 SWAP1 SUB PUSH1 0x1F AND DUP3 ADD SWAP2 JUMPDEST POP POP POP POP POP DUP2 JUMP JUMPDEST PUSH1 0x5 SLOAD DUP2 JUMP JUMPDEST PUSH1 0x0 DUP1 PUSH1 0x2 DUP2 GT ISZERO PUSH2 0x5A5 JUMPI PUSH2 0x5A4 PUSH2 0x846 JUMP JUMPDEST JUMPDEST PUSH1 0x6 PUSH1 0x0 SWAP1 SLOAD SWAP1 PUSH2 0x100 EXP SWAP1 DIV PUSH1 0xFF AND PUSH1 0x2 DUP2 GT ISZERO PUSH2 0x5C7 JUMPI PUSH2 0x5C6 PUSH2 0x846 JUMP JUMPDEST JUMPDEST EQ PUSH2 0x607 JUMPI PUSH1 0x40 MLOAD PUSH32 0x8C379A000000000000000000000000000000000000000000000000000000000 DUP2 MSTORE PUSH1 0x4 ADD PUSH2 0x5FE SWAP1 PUSH2 0xA59 JUMP JUMPDEST PUSH1 0x40 MLOAD DUP1 SWAP2 SUB SWAP1 REVERT JUMPDEST PUSH1 0x1 PUSH1 0x0 SWAP1 SLOAD SWAP1 PUSH2 0x100 EXP SWAP1 DIV PUSH20 0xFFFFFFFFFFFFFFFFFFFFFFFFFFFFFFFFFFFFFFFF AND PUSH20 0xFFFFFFFFFFFFFFFFFFFFFFFFFFFFFFFFFFFFFFFF AND ORIGIN PUSH20 0xFFFFFFFFFFFFFFFFFFFFFFFFFFFFFFFFFFFFFFFF AND EQ PUSH2 0x697 JUMPI PUSH1 0x40 MLOAD PUSH32 0x8C379A000000000000000000000000000000000000000000000000000000000 DUP2 MSTORE PUSH1 0x4 ADD PUSH2 0x68E SWAP1 PUSH2 0xB7D JUMP JUMPDEST PUSH1 0x40 MLOAD DUP1 SWAP2 SUB SWAP1 REVERT JUMPDEST PUSH1 0x0 DUP1 SLOAD SWAP1 PUSH2 0x100 EXP SWAP1 DIV PUSH20 0xFFFFFFFFFFFFFFFFFFFFFFFFFFFFFFFFFFFFFFFF AND PUSH20 0xFFFFFFFFFFFFFFFFFFFFFFFFFFFFFFFFFFFFFFFF AND PUSH2 0x8FC SELFBALANCE SWAP1 DUP2 ISZERO MUL SWAP1 PUSH1 0x40 MLOAD PUSH1 0x0 PUSH1 0x40 MLOAD DUP1 DUP4 SUB DUP2 DUP6 DUP9 DUP9 CALL SWAP4 POP POP POP POP ISZERO DUP1 ISZERO PUSH2 0x6FD JUMPI RETURNDATASIZE PUSH1 0x0 DUP1 RETURNDATACOPY RETURNDATASIZE PUSH1 0x0 REVERT JUMPDEST POP PUSH1 0x1 PUSH1 0x6 PUSH1 0x0 PUSH2 0x100 EXP DUP2 SLOAD DUP2 PUSH1 0xFF MUL NOT AND SWAP1 DUP4 PUSH1 0x2 DUP2 GT ISZERO PUSH2 0x724 JUMPI PUSH2 0x723 PUSH2 0x846 JUMP JUMPDEST JUMPDEST MUL OR SWAP1 SSTORE POP ADDRESS SWAP1 POP SWAP1 JUMP JUMPDEST PUSH1 0x0 PUSH20 0xFFFFFFFFFFFFFFFFFFFFFFFFFFFFFFFFFFFFFFFF DUP3 AND SWAP1 POP SWAP2 SWAP1 POP JUMP JUMPDEST PUSH1 0x0 PUSH2 0x75A DUP3 PUSH2 0x72F JUMP JUMPDEST SWAP1 POP SWAP2 SWAP1 POP JUMP JUMPDEST PUSH2 0x76A DUP2 PUSH2 0x74F JUMP JUMPDEST DUP3 MSTORE POP POP JUMP JUMPDEST PUSH1 0x0 PUSH1 0x20 DUP3 ADD SWAP1 POP PUSH2 0x785 PUSH1 0x0 DUP4 ADD DUP5 PUSH2 0x761 JUMP JUMPDEST SWAP3 SWAP2 POP POP JUMP JUMPDEST PUSH1 0x0 DUP2 MLOAD SWAP1 POP SWAP2 SWAP1 POP JUMP JUMPDEST PUSH1 0x0 DUP3 DUP3 MSTORE PUSH1 0x20 DUP3 ADD SWAP1 POP SWAP3 SWAP2 POP POP JUMP JUMPDEST PUSH1 0x0 JUMPDEST DUP4 DUP2 LT ISZERO PUSH2 0x7C5 JUMPI DUP1 DUP3 ADD MLOAD DUP2 DUP5 ADD MSTORE PUSH1 0x20 DUP2 ADD SWAP1 POP PUSH2 0x7AA JUMP JUMPDEST DUP4 DUP2 GT ISZERO PUSH2 0x7D4 JUMPI PUSH1 0x0 DUP5 DUP5 ADD MSTORE JUMPDEST POP POP POP POP JUMP JUMPDEST PUSH1 0x0 PUSH1 0x1F NOT PUSH1 0x1F DUP4 ADD AND SWAP1 POP SWAP2 SWAP1 POP JUMP JUMPDEST PUSH1 0x0 PUSH2 0x7F6 DUP3 PUSH2 0x78B JUMP JUMPDEST PUSH2 0x800 DUP2 DUP6 PUSH2 0x796 JUMP JUMPDEST SWAP4 POP PUSH2 0x810 DUP2 DUP6 PUSH1 0x20 DUP7 ADD PUSH2 0x7A7 JUMP JUMPDEST PUSH2 0x819 DUP2 PUSH2 0x7DA JUMP JUMPDEST DUP5 ADD SWAP2 POP POP SWAP3 SWAP2 POP POP JUMP JUMPDEST PUSH1 0x0 PUSH1 0x20 DUP3 ADD SWAP1 POP DUP2 DUP2 SUB PUSH1 0x0 DUP4 ADD MSTORE PUSH2 0x83E DUP2 DUP5 PUSH2 0x7EB JUMP JUMPDEST SWAP1 POP SWAP3 SWAP2 POP POP JUMP JUMPDEST PUSH32 0x4E487B7100000000000000000000000000000000000000000000000000000000 PUSH1 0x0 MSTORE PUSH1 0x21 PUSH1 0x4 MSTORE PUSH1 0x24 PUSH1 0x0 REVERT JUMPDEST PUSH1 0x3 DUP2 LT PUSH2 0x886 JUMPI PUSH2 0x885 PUSH2 0x846 JUMP JUMPDEST JUMPDEST POP JUMP JUMPDEST PUSH1 0x0 DUP2 SWAP1 POP PUSH2 0x897 DUP3 PUSH2 0x875 JUMP JUMPDEST SWAP2 SWAP1 POP JUMP JUMPDEST PUSH1 0x0 PUSH2 0x8A7 DUP3 PUSH2 0x889 JUMP JUMPDEST SWAP1 POP SWAP2 SWAP1 POP JUMP JUMPDEST PUSH2 0x8B7 DUP2 PUSH2 0x89C JUMP JUMPDEST DUP3 MSTORE POP POP JUMP JUMPDEST PUSH1 0x0 PUSH1 0x20 DUP3 ADD SWAP1 POP PUSH2 0x8D2 PUSH1 0x0 DUP4 ADD DUP5 PUSH2 0x8AE JUMP JUMPDEST SWAP3 SWAP2 POP POP JUMP JUMPDEST PUSH1 0x0 DUP2 SWAP1 POP SWAP2 SWAP1 POP JUMP JUMPDEST PUSH1 0x0 PUSH2 0x8FD PUSH2 0x8F8 PUSH2 0x8F3 DUP5 PUSH2 0x72F JUMP JUMPDEST PUSH2 0x8D8 JUMP JUMPDEST PUSH2 0x72F JUMP JUMPDEST SWAP1 POP SWAP2 SWAP1 POP JUMP JUMPDEST PUSH1 0x0 PUSH2 0x90F DUP3 PUSH2 0x8E2 JUMP JUMPDEST SWAP1 POP SWAP2 SWAP1 POP JUMP JUMPDEST PUSH1 0x0 PUSH2 0x921 DUP3 PUSH2 0x904 JUMP JUMPDEST SWAP1 POP SWAP2 SWAP1 POP JUMP JUMPDEST PUSH2 0x931 DUP2 PUSH2 0x916 JUMP JUMPDEST DUP3 MSTORE POP POP JUMP JUMPDEST PUSH1 0x0 PUSH1 0x20 DUP3 ADD SWAP1 POP PUSH2 0x94C PUSH1 0x0 DUP4 ADD DUP5 PUSH2 0x928 JUMP JUMPDEST SWAP3 SWAP2 POP POP JUMP JUMPDEST PUSH1 0x0 DUP2 SWAP1 POP SWAP2 SWAP1 POP JUMP JUMPDEST PUSH2 0x965 DUP2 PUSH2 0x952 JUMP JUMPDEST DUP3 MSTORE POP POP JUMP JUMPDEST PUSH1 0x0 PUSH1 0x20 DUP3 ADD SWAP1 POP PUSH2 0x980 PUSH1 0x0 DUP4 ADD DUP5 PUSH2 0x95C JUMP JUMPDEST SWAP3 SWAP2 POP POP JUMP JUMPDEST PUSH32 0x4E487B7100000000000000000000000000000000000000000000000000000000 PUSH1 0x0 MSTORE PUSH1 0x22 PUSH1 0x4 MSTORE PUSH1 0x24 PUSH1 0x0 REVERT JUMPDEST PUSH1 0x0 PUSH1 0x2 DUP3 DIV SWAP1 POP PUSH1 0x1 DUP3 AND DUP1 PUSH2 0x9CD JUMPI PUSH1 0x7F DUP3 AND SWAP2 POP JUMPDEST PUSH1 0x20 DUP3 LT DUP2 EQ ISZERO PUSH2 0x9E1 JUMPI PUSH2 0x9E0 PUSH2 0x986 JUMP JUMPDEST JUMPDEST POP SWAP2 SWAP1 POP JUMP JUMPDEST PUSH32 0x436F6E747261637420737461747573206973206E6F7420657175616C20746F20 PUSH1 0x0 DUP3 ADD MSTORE PUSH32 0x6F70656E00000000000000000000000000000000000000000000000000000000 PUSH1 0x20 DUP3 ADD MSTORE POP JUMP JUMPDEST PUSH1 0x0 PUSH2 0xA43 PUSH1 0x24 DUP4 PUSH2 0x796 JUMP JUMPDEST SWAP2 POP PUSH2 0xA4E DUP3 PUSH2 0x9E7 JUMP JUMPDEST PUSH1 0x40 DUP3 ADD SWAP1 POP SWAP2 SWAP1 POP JUMP JUMPDEST PUSH1 0x0 PUSH1 0x20 DUP3 ADD SWAP1 POP DUP2 DUP2 SUB PUSH1 0x0 DUP4 ADD MSTORE PUSH2 0xA72 DUP2 PUSH2 0xA36 JUMP JUMPDEST SWAP1 POP SWAP2 SWAP1 POP JUMP JUMPDEST PUSH32 0x4F6E6C792072656665726565206F722063726561746F722063616E206661696C PUSH1 0x0 DUP3 ADD MSTORE PUSH32 0x20636F6E74726163740000000000000000000000000000000000000000000000 PUSH1 0x20 DUP3 ADD MSTORE POP JUMP JUMPDEST PUSH1 0x0 PUSH2 0xAD5 PUSH1 0x29 DUP4 PUSH2 0x796 JUMP JUMPDEST SWAP2 POP PUSH2 0xAE0 DUP3 PUSH2 0xA79 JUMP JUMPDEST PUSH1 0x40 DUP3 ADD SWAP1 POP SWAP2 SWAP1 POP JUMP JUMPDEST PUSH1 0x0 PUSH1 0x20 DUP3 ADD SWAP1 POP DUP2 DUP2 SUB PUSH1 0x0 DUP4 ADD MSTORE PUSH2 0xB04 DUP2 PUSH2 0xAC8 JUMP JUMPDEST SWAP1 POP SWAP2 SWAP1 POP JUMP JUMPDEST PUSH32 0x4F6E6C7920726566657265652063616E20636F6D706C657465206120636F6E74 PUSH1 0x0 DUP3 ADD MSTORE PUSH32 0x7261637400000000000000000000000000000000000000000000000000000000 PUSH1 0x20 DUP3 ADD MSTORE POP JUMP JUMPDEST PUSH1 0x0 PUSH2 0xB67 PUSH1 0x24 DUP4 PUSH2 0x796 JUMP JUMPDEST SWAP2 POP PUSH2 0xB72 DUP3 PUSH2 0xB0B JUMP JUMPDEST PUSH1 0x40 DUP3 ADD SWAP1 POP SWAP2 SWAP1 POP JUMP JUMPDEST PUSH1 0x0 PUSH1 0x20 DUP3 ADD SWAP1 POP DUP2 DUP2 SUB PUSH1 0x0 DUP4 ADD MSTORE PUSH2 0xB96 DUP2 PUSH2 0xB5A JUMP JUMPDEST SWAP1 POP SWAP2 SWAP1 POP JUMP INVALID LOG2 PUSH5 0x6970667358 0x22 SLT KECCAK256 0xDF AND 0xE 0xC1 0xEA 0xEE PUSH12 0x86B785CDB844E4DC56012DC2 PUSH23 0xF059724373A7285FFFB98C0C64736F6C634300080C0033 LOG2 PUSH5 0x6970667358 0x22 SLT KECCAK256 0xEB 0xCB PUSH1 0xB4 SAR 0xF6 PUSH22 0xD0D8A86E8A7020640C7F5AD78C271A054A773255A1DE SAR CALLCODE BLOCKHASH PUSH5 0x736F6C6343 STOP ADDMOD 0xC STOP CALLER "},"gasEstimates":{"creation":{"codeDepositCost":"3515000","executionCost":"3941","totalCost":"3518941"},"external":{"accountabilityContractAddresses(uint256)":"5046","completeOpenAccountabilityContract(address,address)":"infinite","createAccountabilityContract(address,string,string,address)":"infinite","failOpenAccountabilityContract(address,address)":"infinite","getAccountabilityContractAddresses(uint256,uint256)":"infinite","getClosedAccountabilityContractAddressesForReferee(address)":"infinite","getClosedAccountabilityContractAddressesForUser(address)":"infinite","getCompleteAccountabilityContractRequestsForReferee(address)":"infinite","getOpenAccountabilityContractAddressesForReferee(address)":"infinite","getOpenAccountabilityContractAddressesForUser(address)":"infinite","getUserAddresses(uint256,uint256)":"infinite","numberOfAccountabilityContracts()":"2474","numberOfReferees()":"2473","numberOfUsers()":"2474","refereeAddresses(uint256)":"5068","referees(address)":"2851","requestRefereeCompletesContract(address,address)":"infinite","totalEthInContracts()":"2517","userAddresses(uint256)":"5067","users(address)":"2917"},"internal":{"getContractIndexForReferee(address,address)":"infinite","getContractIndexForUser(address,address)":"infinite","moveOpenContractToClosedContractsForReferee(address,address)":"infinite","moveOpenContractToClosedContractsForUser(address,address)":"infinite"}},"methodIdentifiers":{"accountabilityContractAddresses(uint256)":"38db44bc","completeOpenAccountabilityContract(address,address)":"cc785850","createAccountabilityContract(address,string,string,address)":"e436e826","failOpenAccountabilityContract(address,address)":"4ac0b82d","getAccountabilityContractAddresses(uint256,uint256)":"0e865751","getClosedAccountabilityContractAddressesForReferee(address)":"19ee8bd4","getClosedAccountabilityContractAddressesForUser(address)":"b24e67d0","getCompleteAccountabilityContractRequestsForReferee(address)":"4ea34671","getOpenAccountabilityContractAddressesForReferee(address)":"9051e234","getOpenAccountabilityContractAddressesForUser(address)":"442a7bc7","getUserAddresses(uint256,uint256)":"a908f4fa","numberOfAccountabilityContracts()":"4841a885","numberOfReferees()":"b3b6633e","numberOfUsers()":"75ce46a7","refereeAddresses(uint256)":"38fb42fd","referees(address)":"64a60b47","requestRefereeCompletesContract(address,address)":"01af65e7","totalEthInContracts()":"dc0e0c13","userAddresses(uint256)":"502c9bd5","users(address)":"a87430ba"}}}