{"abi":[{"inputs":[{"internalType":"address","name":"user","type":"address"},{"internalType":"uint256","name":"contractIndex","type":"uint256"}],"name":"completeOpenAccountabilityContract","outputs":[],"stateMutability":"nonpayable","type":"function"},{"inputs":[{"internalType":"address","name":"_referee","type":"address"},{"internalType":"string","name":"_name","type":"string"},{"internalType":"string","name":"_description","type":"string"},{"internalType":"address payable","name":"_failureRecipient","type":"address"}],"name":"createAccountabilityContract","outputs":[],"stateMutability":"payable","type":"function"},{"inputs":[{"internalType":"address","name":"user","type":"address"},{"internalType":"uint256","name":"contractIndex","type":"uint256"}],"name":"failOpenAccountabilityContract","outputs":[],"stateMutability":"nonpayable","type":"function"},{"inputs":[{"internalType":"address","name":"referee","type":"address"}],"name":"getClosedAccountabilityContractAddressesForReferee","outputs":[{"internalType":"address[]","name":"","type":"address[]"}],"stateMutability":"view","type":"function"},{"inputs":[{"internalType":"address","name":"user","type":"address"}],"name":"getClosedAccountabilityContractAddressesForUser","outputs":[{"internalType":"address[]","name":"","type":"address[]"}],"stateMutability":"view","type":"function"},{"inputs":[{"internalType":"address","name":"referee","type":"address"}],"name":"getOpenAccountabilityContractAddressesForReferee","outputs":[{"internalType":"address[]","name":"","type":"address[]"}],"stateMutability":"view","type":"function"},{"inputs":[{"internalType":"address","name":"user","type":"address"}],"name":"getOpenAccountabilityContractAddressesForUser","outputs":[{"internalType":"address[]","name":"","type":"address[]"}],"stateMutability":"view","type":"function"},{"inputs":[],"name":"numberOfReferees","outputs":[{"internalType":"uint256","name":"","type":"uint256"}],"stateMutability":"view","type":"function"},{"inputs":[],"name":"numberOfUsers","outputs":[{"internalType":"uint256","name":"","type":"uint256"}],"stateMutability":"view","type":"function"},{"inputs":[{"internalType":"address","name":"","type":"address"}],"name":"referees","outputs":[{"internalType":"uint256","name":"managedContracts","type":"uint256"}],"stateMutability":"view","type":"function"},{"inputs":[{"internalType":"address","name":"","type":"address"}],"name":"users","outputs":[{"internalType":"uint256","name":"createdContracts","type":"uint256"}],"stateMutability":"view","type":"function"}],"evm":{"assembly":"    /* \"Contracts\":57:4906  contract AccountabilityContractFactory {... */\n  mstore(0x40, 0x80)\n  callvalue\n  dup1\n  iszero\n  tag_1\n  jumpi\n  0x00\n  dup1\n  revert\ntag_1:\n  pop\n  dataSize(sub_0)\n  dup1\n  dataOffset(sub_0)\n  0x00\n  codecopy\n  0x00\n  return\nstop\n\nsub_0: assembly {\n        /* \"Contracts\":57:4906  contract AccountabilityContractFactory {... */\n      mstore(0x40, 0x80)\n      jumpi(tag_1, lt(calldatasize, 0x04))\n      shr(0xe0, calldataload(0x00))\n      dup1\n      0x75ce46a7\n      gt\n      tag_13\n      jumpi\n      dup1\n      0x75ce46a7\n      eq\n      tag_7\n      jumpi\n      dup1\n      0x9051e234\n      eq\n      tag_8\n      jumpi\n      dup1\n      0xa87430ba\n      eq\n      tag_9\n      jumpi\n      dup1\n      0xb24e67d0\n      eq\n      tag_10\n      jumpi\n      dup1\n      0xb3b6633e\n      eq\n      tag_11\n      jumpi\n      dup1\n      0xe436e826\n      eq\n      tag_12\n      jumpi\n      jump(tag_1)\n    tag_13:\n      dup1\n      0x19ee8bd4\n      eq\n      tag_2\n      jumpi\n      dup1\n      0x2bc7decc\n      eq\n      tag_3\n      jumpi\n      dup1\n      0x442a7bc7\n      eq\n      tag_4\n      jumpi\n      dup1\n      0x64a60b47\n      eq\n      tag_5\n      jumpi\n      dup1\n      0x74baa69c\n      eq\n      tag_6\n      jumpi\n    tag_1:\n      0x00\n      dup1\n      revert\n        /* \"Contracts\":2077:2271  function getClosedAccountabilityContractAddressesForReferee(address referee) public view returns (address[] memory){... */\n    tag_2:\n      callvalue\n      dup1\n      iszero\n      tag_14\n      jumpi\n      0x00\n      dup1\n      revert\n    tag_14:\n      pop\n      tag_15\n      0x04\n      dup1\n      calldatasize\n      sub\n      dup2\n      add\n      swap1\n      tag_16\n      swap2\n      swap1\n      tag_17\n      jump\t// in\n    tag_16:\n      tag_18\n      jump\t// in\n    tag_15:\n      mload(0x40)\n      tag_19\n      swap2\n      swap1\n      tag_20\n      jump\t// in\n    tag_19:\n      mload(0x40)\n      dup1\n      swap2\n      sub\n      swap1\n      return\n        /* \"Contracts\":2745:3246  function completeOpenAccountabilityContract(address user, uint contractIndex) public {... */\n    tag_3:\n      callvalue\n      dup1\n      iszero\n      tag_21\n      jumpi\n      0x00\n      dup1\n      revert\n    tag_21:\n      pop\n      tag_22\n      0x04\n      dup1\n      calldatasize\n      sub\n      dup2\n      add\n      swap1\n      tag_23\n      swap2\n      swap1\n      tag_24\n      jump\t// in\n    tag_23:\n      tag_25\n      jump\t// in\n    tag_22:\n      stop\n        /* \"Contracts\":1509:1687  function getOpenAccountabilityContractAddressesForUser(address user) public view returns (address[] memory){... */\n    tag_4:\n      callvalue\n      dup1\n      iszero\n      tag_26\n      jumpi\n      0x00\n      dup1\n      revert\n    tag_26:\n      pop\n      tag_27\n      0x04\n      dup1\n      calldatasize\n      sub\n      dup2\n      add\n      swap1\n      tag_28\n      swap2\n      swap1\n      tag_17\n      jump\t// in\n    tag_28:\n      tag_29\n      jump\t// in\n    tag_27:\n      mload(0x40)\n      tag_30\n      swap2\n      swap1\n      tag_20\n      jump\t// in\n    tag_30:\n      mload(0x40)\n      dup1\n      swap2\n      sub\n      swap1\n      return\n        /* \"Contracts\":197:240  mapping(address => Referee) public referees */\n    tag_5:\n      callvalue\n      dup1\n      iszero\n      tag_31\n      jumpi\n      0x00\n      dup1\n      revert\n    tag_31:\n      pop\n      tag_32\n      0x04\n      dup1\n      calldatasize\n      sub\n      dup2\n      add\n      swap1\n      tag_33\n      swap2\n      swap1\n      tag_17\n      jump\t// in\n    tag_33:\n      tag_34\n      jump\t// in\n    tag_32:\n      mload(0x40)\n      tag_35\n      swap2\n      swap1\n      tag_36\n      jump\t// in\n    tag_35:\n      mload(0x40)\n      dup1\n      swap2\n      sub\n      swap1\n      return\n        /* \"Contracts\":2277:2739  function failOpenAccountabilityContract(address user, uint contractIndex) public {... */\n    tag_6:\n      callvalue\n      dup1\n      iszero\n      tag_37\n      jumpi\n      0x00\n      dup1\n      revert\n    tag_37:\n      pop\n      tag_38\n      0x04\n      dup1\n      calldatasize\n      sub\n      dup2\n      add\n      swap1\n      tag_39\n      swap2\n      swap1\n      tag_24\n      jump\t// in\n    tag_39:\n      tag_40\n      jump\t// in\n    tag_38:\n      stop\n        /* \"Contracts\":141:166  uint public numberOfUsers */\n    tag_7:\n      callvalue\n      dup1\n      iszero\n      tag_41\n      jumpi\n      0x00\n      dup1\n      revert\n    tag_41:\n      pop\n      tag_42\n      tag_43\n      jump\t// in\n    tag_42:\n      mload(0x40)\n      tag_44\n      swap2\n      swap1\n      tag_36\n      jump\t// in\n    tag_44:\n      mload(0x40)\n      dup1\n      swap2\n      sub\n      swap1\n      return\n        /* \"Contracts\":1881:2071  function getOpenAccountabilityContractAddressesForReferee(address referee) public view returns (address[] memory){... */\n    tag_8:\n      callvalue\n      dup1\n      iszero\n      tag_45\n      jumpi\n      0x00\n      dup1\n      revert\n    tag_45:\n      pop\n      tag_46\n      0x04\n      dup1\n      calldatasize\n      sub\n      dup2\n      add\n      swap1\n      tag_47\n      swap2\n      swap1\n      tag_17\n      jump\t// in\n    tag_47:\n      tag_48\n      jump\t// in\n    tag_46:\n      mload(0x40)\n      tag_49\n      swap2\n      swap1\n      tag_20\n      jump\t// in\n    tag_49:\n      mload(0x40)\n      dup1\n      swap2\n      sub\n      swap1\n      return\n        /* \"Contracts\":100:137  mapping(address => User) public users */\n    tag_9:\n      callvalue\n      dup1\n      iszero\n      tag_50\n      jumpi\n      0x00\n      dup1\n      revert\n    tag_50:\n      pop\n      tag_51\n      0x04\n      dup1\n      calldatasize\n      sub\n      dup2\n      add\n      swap1\n      tag_52\n      swap2\n      swap1\n      tag_17\n      jump\t// in\n    tag_52:\n      tag_53\n      jump\t// in\n    tag_51:\n      mload(0x40)\n      tag_54\n      swap2\n      swap1\n      tag_36\n      jump\t// in\n    tag_54:\n      mload(0x40)\n      dup1\n      swap2\n      sub\n      swap1\n      return\n        /* \"Contracts\":1693:1875  function getClosedAccountabilityContractAddressesForUser(address user) public view returns (address[] memory){... */\n    tag_10:\n      callvalue\n      dup1\n      iszero\n      tag_55\n      jumpi\n      0x00\n      dup1\n      revert\n    tag_55:\n      pop\n      tag_56\n      0x04\n      dup1\n      calldatasize\n      sub\n      dup2\n      add\n      swap1\n      tag_57\n      swap2\n      swap1\n      tag_17\n      jump\t// in\n    tag_57:\n      tag_58\n      jump\t// in\n    tag_56:\n      mload(0x40)\n      tag_59\n      swap2\n      swap1\n      tag_20\n      jump\t// in\n    tag_59:\n      mload(0x40)\n      dup1\n      swap2\n      sub\n      swap1\n      return\n        /* \"Contracts\":244:272  uint public numberOfReferees */\n    tag_11:\n      callvalue\n      dup1\n      iszero\n      tag_60\n      jumpi\n      0x00\n      dup1\n      revert\n    tag_60:\n      pop\n      tag_61\n      tag_62\n      jump\t// in\n    tag_61:\n      mload(0x40)\n      tag_63\n      swap2\n      swap1\n      tag_36\n      jump\t// in\n    tag_63:\n      mload(0x40)\n      dup1\n      swap2\n      sub\n      swap1\n      return\n        /* \"Contracts\":624:1503  function createAccountabilityContract(address _referee, string memory _name, string memory _description, address payable _failureRecipient) public payable {... */\n    tag_12:\n      tag_64\n      0x04\n      dup1\n      calldatasize\n      sub\n      dup2\n      add\n      swap1\n      tag_65\n      swap2\n      swap1\n      tag_66\n      jump\t// in\n    tag_65:\n      tag_67\n      jump\t// in\n    tag_64:\n      stop\n        /* \"Contracts\":2077:2271  function getClosedAccountabilityContractAddressesForReferee(address referee) public view returns (address[] memory){... */\n    tag_18:\n        /* \"Contracts\":2175:2191  address[] memory */\n      0x60\n        /* \"Contracts\":2209:2217  referees */\n      0x03\n        /* \"Contracts\":2209:2226  referees[referee] */\n      0x00\n        /* \"Contracts\":2218:2225  referee */\n      dup4\n        /* \"Contracts\":2209:2226  referees[referee] */\n      0xffffffffffffffffffffffffffffffffffffffff\n      and\n      0xffffffffffffffffffffffffffffffffffffffff\n      and\n      dup2\n      mstore\n      0x20\n      add\n      swap1\n      dup2\n      mstore\n      0x20\n      add\n      0x00\n      keccak256\n        /* \"Contracts\":2209:2264  referees[referee].closedAccountabilityContractAddresses */\n      0x02\n      add\n        /* \"Contracts\":2202:2264  return referees[referee].closedAccountabilityContractAddresses */\n      dup1\n      sload\n      dup1\n      0x20\n      mul\n      0x20\n      add\n      mload(0x40)\n      swap1\n      dup2\n      add\n      0x40\n      mstore\n      dup1\n      swap3\n      swap2\n      swap1\n      dup2\n      dup2\n      mstore\n      0x20\n      add\n      dup3\n      dup1\n      sload\n      dup1\n      iszero\n      tag_69\n      jumpi\n      0x20\n      mul\n      dup3\n      add\n      swap2\n      swap1\n      0x00\n      mstore\n      keccak256(0x00, 0x20)\n      swap1\n    tag_70:\n      dup2\n      0x00\n      swap1\n      sload\n      swap1\n      0x0100\n      exp\n      swap1\n      div\n      0xffffffffffffffffffffffffffffffffffffffff\n      and\n      0xffffffffffffffffffffffffffffffffffffffff\n      and\n      dup2\n      mstore\n      0x20\n      add\n      swap1\n      0x01\n      add\n      swap1\n      dup1\n      dup4\n      gt\n      tag_70\n      jumpi\n    tag_69:\n      pop\n      pop\n      pop\n      pop\n      pop\n      swap1\n      pop\n        /* \"Contracts\":2077:2271  function getClosedAccountabilityContractAddressesForReferee(address referee) public view returns (address[] memory){... */\n      swap2\n      swap1\n      pop\n      jump\t// out\n        /* \"Contracts\":2745:3246  function completeOpenAccountabilityContract(address user, uint contractIndex) public {... */\n    tag_25:\n        /* \"Contracts\":2838:2883  AccountabilityContract accountabilityContract */\n      0x00\n        /* \"Contracts\":2909:2914  users */\n      dup1\n        /* \"Contracts\":2909:2920  users[user] */\n      0x00\n        /* \"Contracts\":2915:2919  user */\n      dup5\n        /* \"Contracts\":2909:2920  users[user] */\n      0xffffffffffffffffffffffffffffffffffffffff\n      and\n      0xffffffffffffffffffffffffffffffffffffffff\n      and\n      dup2\n      mstore\n      0x20\n      add\n      swap1\n      dup2\n      mstore\n      0x20\n      add\n      0x00\n      keccak256\n        /* \"Contracts\":2909:2956  users[user].openAccountabilityContractAddresses */\n      0x01\n      add\n        /* \"Contracts\":2957:2970  contractIndex */\n      dup3\n        /* \"Contracts\":2909:2971  users[user].openAccountabilityContractAddresses[contractIndex] */\n      dup2\n      sload\n      dup2\n      lt\n      tag_72\n      jumpi\n      tag_73\n      tag_74\n      jump\t// in\n    tag_73:\n    tag_72:\n      swap1\n      0x00\n      mstore\n      keccak256(0x00, 0x20)\n      add\n      0x00\n      swap1\n      sload\n      swap1\n      0x0100\n      exp\n      swap1\n      div\n      0xffffffffffffffffffffffffffffffffffffffff\n      and\n        /* \"Contracts\":2838:2972  AccountabilityContract accountabilityContract = AccountabilityContract(users[user].openAccountabilityContractAddresses[contractIndex]) */\n      swap1\n      pop\n        /* \"Contracts\":2980:3002  accountabilityContract */\n      dup1\n        /* \"Contracts\":2980:3019  accountabilityContract.completeContract */\n      0xffffffffffffffffffffffffffffffffffffffff\n      and\n      0xb4fedc11\n        /* \"Contracts\":2980:3021  accountabilityContract.completeContract() */\n      mload(0x40)\n      dup2\n      0xffffffff\n      and\n      0xe0\n      shl\n      dup2\n      mstore\n      0x04\n      add\n      0x20\n      mload(0x40)\n      dup1\n      dup4\n      sub\n      dup2\n      0x00\n      dup8\n      gas\n      call\n      iszero\n      dup1\n      iszero\n      tag_77\n      jumpi\n      returndatasize\n      0x00\n      dup1\n      returndatacopy\n      revert(0x00, returndatasize)\n    tag_77:\n      pop\n      pop\n      pop\n      pop\n      mload(0x40)\n      returndatasize\n      not(0x1f)\n      0x1f\n      dup3\n      add\n      and\n      dup3\n      add\n      dup1\n      0x40\n      mstore\n      pop\n      dup2\n      add\n      swap1\n      tag_78\n      swap2\n      swap1\n      tag_79\n      jump\t// in\n    tag_78:\n      pop\n        /* \"Contracts\":3029:3090  moveOpenContractToClosedContractsForUser(user, contractIndex) */\n      tag_80\n        /* \"Contracts\":3070:3074  user */\n      dup4\n        /* \"Contracts\":3076:3089  contractIndex */\n      dup4\n        /* \"Contracts\":3029:3069  moveOpenContractToClosedContractsForUser */\n      tag_81\n        /* \"Contracts\":3029:3090  moveOpenContractToClosedContractsForUser(user, contractIndex) */\n      jump\t// in\n    tag_80:\n        /* \"Contracts\":3098:3239  moveOpenContractToClosedContractsForReferee(accountabilityContract.referee(), users[user].openAccountabilityContractAddresses[contractIndex]) */\n      tag_82\n        /* \"Contracts\":3142:3164  accountabilityContract */\n      dup2\n        /* \"Contracts\":3142:3172  accountabilityContract.referee */\n      0xffffffffffffffffffffffffffffffffffffffff\n      and\n      0x3b1bebd1\n        /* \"Contracts\":3142:3174  accountabilityContract.referee() */\n      mload(0x40)\n      dup2\n      0xffffffff\n      and\n      0xe0\n      shl\n      dup2\n      mstore\n      0x04\n      add\n      0x20\n      mload(0x40)\n      dup1\n      dup4\n      sub\n      dup2\n      dup7\n      gas\n      staticcall\n      iszero\n      dup1\n      iszero\n      tag_84\n      jumpi\n      returndatasize\n      0x00\n      dup1\n      returndatacopy\n      revert(0x00, returndatasize)\n    tag_84:\n      pop\n      pop\n      pop\n      pop\n      mload(0x40)\n      returndatasize\n      not(0x1f)\n      0x1f\n      dup3\n      add\n      and\n      dup3\n      add\n      dup1\n      0x40\n      mstore\n      pop\n      dup2\n      add\n      swap1\n      tag_85\n      swap2\n      swap1\n      tag_86\n      jump\t// in\n    tag_85:\n        /* \"Contracts\":3176:3181  users */\n      0x00\n        /* \"Contracts\":3176:3187  users[user] */\n      dup1\n        /* \"Contracts\":3182:3186  user */\n      dup7\n        /* \"Contracts\":3176:3187  users[user] */\n      0xffffffffffffffffffffffffffffffffffffffff\n      and\n      0xffffffffffffffffffffffffffffffffffffffff\n      and\n      dup2\n      mstore\n      0x20\n      add\n      swap1\n      dup2\n      mstore\n      0x20\n      add\n      0x00\n      keccak256\n        /* \"Contracts\":3176:3223  users[user].openAccountabilityContractAddresses */\n      0x01\n      add\n        /* \"Contracts\":3224:3237  contractIndex */\n      dup5\n        /* \"Contracts\":3176:3238  users[user].openAccountabilityContractAddresses[contractIndex] */\n      dup2\n      sload\n      dup2\n      lt\n      tag_87\n      jumpi\n      tag_88\n      tag_74\n      jump\t// in\n    tag_88:\n    tag_87:\n      swap1\n      0x00\n      mstore\n      keccak256(0x00, 0x20)\n      add\n      0x00\n      swap1\n      sload\n      swap1\n      0x0100\n      exp\n      swap1\n      div\n      0xffffffffffffffffffffffffffffffffffffffff\n      and\n        /* \"Contracts\":3098:3141  moveOpenContractToClosedContractsForReferee */\n      tag_90\n        /* \"Contracts\":3098:3239  moveOpenContractToClosedContractsForReferee(accountabilityContract.referee(), users[user].openAccountabilityContractAddresses[contractIndex]) */\n      jump\t// in\n    tag_82:\n        /* \"Contracts\":2830:3246  {... */\n      pop\n        /* \"Contracts\":2745:3246  function completeOpenAccountabilityContract(address user, uint contractIndex) public {... */\n      pop\n      pop\n      jump\t// out\n        /* \"Contracts\":1509:1687  function getOpenAccountabilityContractAddressesForUser(address user) public view returns (address[] memory){... */\n    tag_29:\n        /* \"Contracts\":1599:1615  address[] memory */\n      0x60\n        /* \"Contracts\":1633:1638  users */\n      0x00\n        /* \"Contracts\":1633:1644  users[user] */\n      dup1\n        /* \"Contracts\":1639:1643  user */\n      dup4\n        /* \"Contracts\":1633:1644  users[user] */\n      0xffffffffffffffffffffffffffffffffffffffff\n      and\n      0xffffffffffffffffffffffffffffffffffffffff\n      and\n      dup2\n      mstore\n      0x20\n      add\n      swap1\n      dup2\n      mstore\n      0x20\n      add\n      0x00\n      keccak256\n        /* \"Contracts\":1633:1680  users[user].openAccountabilityContractAddresses */\n      0x01\n      add\n        /* \"Contracts\":1626:1680  return users[user].openAccountabilityContractAddresses */\n      dup1\n      sload\n      dup1\n      0x20\n      mul\n      0x20\n      add\n      mload(0x40)\n      swap1\n      dup2\n      add\n      0x40\n      mstore\n      dup1\n      swap3\n      swap2\n      swap1\n      dup2\n      dup2\n      mstore\n      0x20\n      add\n      dup3\n      dup1\n      sload\n      dup1\n      iszero\n      tag_92\n      jumpi\n      0x20\n      mul\n      dup3\n      add\n      swap2\n      swap1\n      0x00\n      mstore\n      keccak256(0x00, 0x20)\n      swap1\n    tag_93:\n      dup2\n      0x00\n      swap1\n      sload\n      swap1\n      0x0100\n      exp\n      swap1\n      div\n      0xffffffffffffffffffffffffffffffffffffffff\n      and\n      0xffffffffffffffffffffffffffffffffffffffff\n      and\n      dup2\n      mstore\n      0x20\n      add\n      swap1\n      0x01\n      add\n      swap1\n      dup1\n      dup4\n      gt\n      tag_93\n      jumpi\n    tag_92:\n      pop\n      pop\n      pop\n      pop\n      pop\n      swap1\n      pop\n        /* \"Contracts\":1509:1687  function getOpenAccountabilityContractAddressesForUser(address user) public view returns (address[] memory){... */\n      swap2\n      swap1\n      pop\n      jump\t// out\n        /* \"Contracts\":197:240  mapping(address => Referee) public referees */\n    tag_34:\n      mstore(0x20, 0x03)\n      dup1\n      0x00\n      mstore\n      keccak256(0x00, 0x40)\n      0x00\n      swap2\n      pop\n      swap1\n      pop\n      dup1\n      0x00\n      add\n      sload\n      swap1\n      pop\n      dup2\n      jump\t// out\n        /* \"Contracts\":2277:2739  function failOpenAccountabilityContract(address user, uint contractIndex) public {... */\n    tag_40:\n        /* \"Contracts\":2366:2411  AccountabilityContract accountabilityContract */\n      0x00\n        /* \"Contracts\":2437:2442  users */\n      dup1\n        /* \"Contracts\":2437:2448  users[user] */\n      0x00\n        /* \"Contracts\":2443:2447  user */\n      dup5\n        /* \"Contracts\":2437:2448  users[user] */\n      0xffffffffffffffffffffffffffffffffffffffff\n      and\n      0xffffffffffffffffffffffffffffffffffffffff\n      and\n      dup2\n      mstore\n      0x20\n      add\n      swap1\n      dup2\n      mstore\n      0x20\n      add\n      0x00\n      keccak256\n        /* \"Contracts\":2437:2484  users[user].openAccountabilityContractAddresses */\n      0x01\n      add\n        /* \"Contracts\":2485:2498  contractIndex */\n      dup3\n        /* \"Contracts\":2437:2499  users[user].openAccountabilityContractAddresses[contractIndex] */\n      dup2\n      sload\n      dup2\n      lt\n      tag_95\n      jumpi\n      tag_96\n      tag_74\n      jump\t// in\n    tag_96:\n    tag_95:\n      swap1\n      0x00\n      mstore\n      keccak256(0x00, 0x20)\n      add\n      0x00\n      swap1\n      sload\n      swap1\n      0x0100\n      exp\n      swap1\n      div\n      0xffffffffffffffffffffffffffffffffffffffff\n      and\n        /* \"Contracts\":2366:2500  AccountabilityContract accountabilityContract = AccountabilityContract(users[user].openAccountabilityContractAddresses[contractIndex]) */\n      swap1\n      pop\n        /* \"Contracts\":2508:2530  accountabilityContract */\n      dup1\n        /* \"Contracts\":2508:2543  accountabilityContract.failContract */\n      0xffffffffffffffffffffffffffffffffffffffff\n      and\n      0x2d398fa6\n        /* \"Contracts\":2508:2545  accountabilityContract.failContract() */\n      mload(0x40)\n      dup2\n      0xffffffff\n      and\n      0xe0\n      shl\n      dup2\n      mstore\n      0x04\n      add\n      0x20\n      mload(0x40)\n      dup1\n      dup4\n      sub\n      dup2\n      0x00\n      dup8\n      gas\n      call\n      iszero\n      dup1\n      iszero\n      tag_99\n      jumpi\n      returndatasize\n      0x00\n      dup1\n      returndatacopy\n      revert(0x00, returndatasize)\n    tag_99:\n      pop\n      pop\n      pop\n      pop\n      mload(0x40)\n      returndatasize\n      not(0x1f)\n      0x1f\n      dup3\n      add\n      and\n      dup3\n      add\n      dup1\n      0x40\n      mstore\n      pop\n      dup2\n      add\n      swap1\n      tag_100\n      swap2\n      swap1\n      tag_79\n      jump\t// in\n    tag_100:\n      pop\n        /* \"Contracts\":2553:2614  moveOpenContractToClosedContractsForUser(user, contractIndex) */\n      tag_101\n        /* \"Contracts\":2594:2598  user */\n      dup4\n        /* \"Contracts\":2600:2613  contractIndex */\n      dup4\n        /* \"Contracts\":2553:2593  moveOpenContractToClosedContractsForUser */\n      tag_81\n        /* \"Contracts\":2553:2614  moveOpenContractToClosedContractsForUser(user, contractIndex) */\n      jump\t// in\n    tag_101:\n        /* \"Contracts\":2622:2732  moveOpenContractToClosedContractsForReferee(accountabilityContract.referee(), address(accountabilityContract)) */\n      tag_102\n        /* \"Contracts\":2666:2688  accountabilityContract */\n      dup2\n        /* \"Contracts\":2666:2696  accountabilityContract.referee */\n      0xffffffffffffffffffffffffffffffffffffffff\n      and\n      0x3b1bebd1\n        /* \"Contracts\":2666:2698  accountabilityContract.referee() */\n      mload(0x40)\n      dup2\n      0xffffffff\n      and\n      0xe0\n      shl\n      dup2\n      mstore\n      0x04\n      add\n      0x20\n      mload(0x40)\n      dup1\n      dup4\n      sub\n      dup2\n      dup7\n      gas\n      staticcall\n      iszero\n      dup1\n      iszero\n      tag_104\n      jumpi\n      returndatasize\n      0x00\n      dup1\n      returndatacopy\n      revert(0x00, returndatasize)\n    tag_104:\n      pop\n      pop\n      pop\n      pop\n      mload(0x40)\n      returndatasize\n      not(0x1f)\n      0x1f\n      dup3\n      add\n      and\n      dup3\n      add\n      dup1\n      0x40\n      mstore\n      pop\n      dup2\n      add\n      swap1\n      tag_105\n      swap2\n      swap1\n      tag_86\n      jump\t// in\n    tag_105:\n        /* \"Contracts\":2708:2730  accountabilityContract */\n      dup3\n        /* \"Contracts\":2622:2665  moveOpenContractToClosedContractsForReferee */\n      tag_90\n        /* \"Contracts\":2622:2732  moveOpenContractToClosedContractsForReferee(accountabilityContract.referee(), address(accountabilityContract)) */\n      jump\t// in\n    tag_102:\n        /* \"Contracts\":2358:2739  {... */\n      pop\n        /* \"Contracts\":2277:2739  function failOpenAccountabilityContract(address user, uint contractIndex) public {... */\n      pop\n      pop\n      jump\t// out\n        /* \"Contracts\":141:166  uint public numberOfUsers */\n    tag_43:\n      sload(0x01)\n      dup2\n      jump\t// out\n        /* \"Contracts\":1881:2071  function getOpenAccountabilityContractAddressesForReferee(address referee) public view returns (address[] memory){... */\n    tag_48:\n        /* \"Contracts\":1977:1993  address[] memory */\n      0x60\n        /* \"Contracts\":2011:2019  referees */\n      0x03\n        /* \"Contracts\":2011:2028  referees[referee] */\n      0x00\n        /* \"Contracts\":2020:2027  referee */\n      dup4\n        /* \"Contracts\":2011:2028  referees[referee] */\n      0xffffffffffffffffffffffffffffffffffffffff\n      and\n      0xffffffffffffffffffffffffffffffffffffffff\n      and\n      dup2\n      mstore\n      0x20\n      add\n      swap1\n      dup2\n      mstore\n      0x20\n      add\n      0x00\n      keccak256\n        /* \"Contracts\":2011:2064  referees[referee].openAccountabilityContractAddresses */\n      0x01\n      add\n        /* \"Contracts\":2004:2064  return referees[referee].openAccountabilityContractAddresses */\n      dup1\n      sload\n      dup1\n      0x20\n      mul\n      0x20\n      add\n      mload(0x40)\n      swap1\n      dup2\n      add\n      0x40\n      mstore\n      dup1\n      swap3\n      swap2\n      swap1\n      dup2\n      dup2\n      mstore\n      0x20\n      add\n      dup3\n      dup1\n      sload\n      dup1\n      iszero\n      tag_107\n      jumpi\n      0x20\n      mul\n      dup3\n      add\n      swap2\n      swap1\n      0x00\n      mstore\n      keccak256(0x00, 0x20)\n      swap1\n    tag_108:\n      dup2\n      0x00\n      swap1\n      sload\n      swap1\n      0x0100\n      exp\n      swap1\n      div\n      0xffffffffffffffffffffffffffffffffffffffff\n      and\n      0xffffffffffffffffffffffffffffffffffffffff\n      and\n      dup2\n      mstore\n      0x20\n      add\n      swap1\n      0x01\n      add\n      swap1\n      dup1\n      dup4\n      gt\n      tag_108\n      jumpi\n    tag_107:\n      pop\n      pop\n      pop\n      pop\n      pop\n      swap1\n      pop\n        /* \"Contracts\":1881:2071  function getOpenAccountabilityContractAddressesForReferee(address referee) public view returns (address[] memory){... */\n      swap2\n      swap1\n      pop\n      jump\t// out\n        /* \"Contracts\":100:137  mapping(address => User) public users */\n    tag_53:\n      mstore(0x20, 0x00)\n      dup1\n      0x00\n      mstore\n      keccak256(0x00, 0x40)\n      0x00\n      swap2\n      pop\n      swap1\n      pop\n      dup1\n      0x00\n      add\n      sload\n      swap1\n      pop\n      dup2\n      jump\t// out\n        /* \"Contracts\":1693:1875  function getClosedAccountabilityContractAddressesForUser(address user) public view returns (address[] memory){... */\n    tag_58:\n        /* \"Contracts\":1785:1801  address[] memory */\n      0x60\n        /* \"Contracts\":1819:1824  users */\n      0x00\n        /* \"Contracts\":1819:1830  users[user] */\n      dup1\n        /* \"Contracts\":1825:1829  user */\n      dup4\n        /* \"Contracts\":1819:1830  users[user] */\n      0xffffffffffffffffffffffffffffffffffffffff\n      and\n      0xffffffffffffffffffffffffffffffffffffffff\n      and\n      dup2\n      mstore\n      0x20\n      add\n      swap1\n      dup2\n      mstore\n      0x20\n      add\n      0x00\n      keccak256\n        /* \"Contracts\":1819:1868  users[user].closedAccountabilityContractAddresses */\n      0x02\n      add\n        /* \"Contracts\":1812:1868  return users[user].closedAccountabilityContractAddresses */\n      dup1\n      sload\n      dup1\n      0x20\n      mul\n      0x20\n      add\n      mload(0x40)\n      swap1\n      dup2\n      add\n      0x40\n      mstore\n      dup1\n      swap3\n      swap2\n      swap1\n      dup2\n      dup2\n      mstore\n      0x20\n      add\n      dup3\n      dup1\n      sload\n      dup1\n      iszero\n      tag_110\n      jumpi\n      0x20\n      mul\n      dup3\n      add\n      swap2\n      swap1\n      0x00\n      mstore\n      keccak256(0x00, 0x20)\n      swap1\n    tag_111:\n      dup2\n      0x00\n      swap1\n      sload\n      swap1\n      0x0100\n      exp\n      swap1\n      div\n      0xffffffffffffffffffffffffffffffffffffffff\n      and\n      0xffffffffffffffffffffffffffffffffffffffff\n      and\n      dup2\n      mstore\n      0x20\n      add\n      swap1\n      0x01\n      add\n      swap1\n      dup1\n      dup4\n      gt\n      tag_111\n      jumpi\n    tag_110:\n      pop\n      pop\n      pop\n      pop\n      pop\n      swap1\n      pop\n        /* \"Contracts\":1693:1875  function getClosedAccountabilityContractAddressesForUser(address user) public view returns (address[] memory){... */\n      swap2\n      swap1\n      pop\n      jump\t// out\n        /* \"Contracts\":244:272  uint public numberOfReferees */\n    tag_62:\n      sload(0x04)\n      dup2\n      jump\t// out\n        /* \"Contracts\":624:1503  function createAccountabilityContract(address _referee, string memory _name, string memory _description, address payable _failureRecipient) public payable {... */\n    tag_67:\n        /* \"Contracts\":830:831  0 */\n      0x00\n        /* \"Contracts\":792:797  users */\n      dup1\n        /* \"Contracts\":792:809  users[msg.sender] */\n      0x00\n        /* \"Contracts\":798:808  msg.sender */\n      caller\n        /* \"Contracts\":792:809  users[msg.sender] */\n      0xffffffffffffffffffffffffffffffffffffffff\n      and\n      0xffffffffffffffffffffffffffffffffffffffff\n      and\n      dup2\n      mstore\n      0x20\n      add\n      swap1\n      dup2\n      mstore\n      0x20\n      add\n      0x00\n      keccak256\n        /* \"Contracts\":792:826  users[msg.sender].createdContracts */\n      0x00\n      add\n      sload\n        /* \"Contracts\":792:831  users[msg.sender].createdContracts == 0 */\n      eq\n        /* \"Contracts\":789:916  if(users[msg.sender].createdContracts == 0){... */\n      iszero\n      tag_113\n      jumpi\n        /* \"Contracts\":846:859  numberOfUsers */\n      0x01\n      0x00\n        /* \"Contracts\":846:861  numberOfUsers++ */\n      dup2\n      sload\n      dup1\n      swap3\n      swap2\n      swap1\n      tag_114\n      swap1\n      tag_115\n      jump\t// in\n    tag_114:\n      swap2\n      swap1\n      pop\n      sstore\n      pop\n        /* \"Contracts\":875:888  userAddresses */\n      0x02\n        /* \"Contracts\":894:904  msg.sender */\n      caller\n        /* \"Contracts\":875:905  userAddresses.push(msg.sender) */\n      swap1\n      dup1\n      0x01\n      dup2\n      sload\n      add\n      dup1\n      dup3\n      sstore\n      dup1\n      swap2\n      pop\n      pop\n      0x01\n      swap1\n      sub\n      swap1\n      0x00\n      mstore\n      keccak256(0x00, 0x20)\n      add\n      0x00\n      swap1\n      swap2\n      swap1\n      swap2\n      swap1\n      swap2\n      0x0100\n      exp\n      dup2\n      sload\n      dup2\n      0xffffffffffffffffffffffffffffffffffffffff\n      mul\n      not\n      and\n      swap1\n      dup4\n      0xffffffffffffffffffffffffffffffffffffffff\n      and\n      mul\n      or\n      swap1\n      sstore\n      pop\n        /* \"Contracts\":789:916  if(users[msg.sender].createdContracts == 0){... */\n    tag_113:\n        /* \"Contracts\":967:968  0 */\n      0x00\n        /* \"Contracts\":928:936  referees */\n      0x03\n        /* \"Contracts\":928:946  referees[_referee] */\n      0x00\n        /* \"Contracts\":937:945  _referee */\n      dup7\n        /* \"Contracts\":928:946  referees[_referee] */\n      0xffffffffffffffffffffffffffffffffffffffff\n      and\n      0xffffffffffffffffffffffffffffffffffffffff\n      and\n      dup2\n      mstore\n      0x20\n      add\n      swap1\n      dup2\n      mstore\n      0x20\n      add\n      0x00\n      keccak256\n        /* \"Contracts\":928:963  referees[_referee].managedContracts */\n      0x00\n      add\n      sload\n        /* \"Contracts\":928:968  referees[_referee].managedContracts == 0 */\n      eq\n        /* \"Contracts\":925:1057  if(referees[_referee].managedContracts == 0){... */\n      iszero\n      tag_117\n      jumpi\n        /* \"Contracts\":983:999  numberOfReferees */\n      0x04\n      0x00\n        /* \"Contracts\":983:1001  numberOfReferees++ */\n      dup2\n      sload\n      dup1\n      swap3\n      swap2\n      swap1\n      tag_118\n      swap1\n      tag_115\n      jump\t// in\n    tag_118:\n      swap2\n      swap1\n      pop\n      sstore\n      pop\n        /* \"Contracts\":1015:1031  refereeAddresses */\n      0x05\n        /* \"Contracts\":1037:1045  _referee */\n      dup5\n        /* \"Contracts\":1015:1046  refereeAddresses.push(_referee) */\n      swap1\n      dup1\n      0x01\n      dup2\n      sload\n      add\n      dup1\n      dup3\n      sstore\n      dup1\n      swap2\n      pop\n      pop\n      0x01\n      swap1\n      sub\n      swap1\n      0x00\n      mstore\n      keccak256(0x00, 0x20)\n      add\n      0x00\n      swap1\n      swap2\n      swap1\n      swap2\n      swap1\n      swap2\n      0x0100\n      exp\n      dup2\n      sload\n      dup2\n      0xffffffffffffffffffffffffffffffffffffffff\n      mul\n      not\n      and\n      swap1\n      dup4\n      0xffffffffffffffffffffffffffffffffffffffff\n      and\n      mul\n      or\n      swap1\n      sstore\n      pop\n        /* \"Contracts\":925:1057  if(referees[_referee].managedContracts == 0){... */\n    tag_117:\n        /* \"Contracts\":1066:1100  AccountabilityContract newContract */\n      0x00\n        /* \"Contracts\":1139:1148  msg.value */\n      callvalue\n        /* \"Contracts\":1150:1160  msg.sender */\n      caller\n        /* \"Contracts\":1162:1170  _referee */\n      dup7\n        /* \"Contracts\":1172:1177  _name */\n      dup7\n        /* \"Contracts\":1179:1191  _description */\n      dup7\n        /* \"Contracts\":1193:1210  _failureRecipient */\n      dup7\n        /* \"Contracts\":1212:1221  msg.value */\n      callvalue\n        /* \"Contracts\":1103:1222  (new AccountabilityContract){value: msg.value}(msg.sender, _referee, _name, _description, _failureRecipient, msg.value) */\n      mload(0x40)\n      tag_120\n      swap1\n      tag_121\n      jump\t// in\n    tag_120:\n      tag_122\n      swap7\n      swap6\n      swap5\n      swap4\n      swap3\n      swap2\n      swap1\n      tag_123\n      jump\t// in\n    tag_122:\n      mload(0x40)\n      dup1\n      swap2\n      sub\n      swap1\n      dup3\n      create\n      swap1\n      pop\n      dup1\n      iszero\n      dup1\n      iszero\n      tag_124\n      jumpi\n      returndatasize\n      0x00\n      dup1\n      returndatacopy\n      revert(0x00, returndatasize)\n    tag_124:\n      pop\n        /* \"Contracts\":1066:1222  AccountabilityContract newContract = (new AccountabilityContract){value: msg.value}(msg.sender, _referee, _name, _description, _failureRecipient, msg.value) */\n      swap1\n      pop\n        /* \"Contracts\":1232:1237  users */\n      0x00\n        /* \"Contracts\":1232:1249  users[msg.sender] */\n      dup1\n        /* \"Contracts\":1238:1248  msg.sender */\n      caller\n        /* \"Contracts\":1232:1249  users[msg.sender] */\n      0xffffffffffffffffffffffffffffffffffffffff\n      and\n      0xffffffffffffffffffffffffffffffffffffffff\n      and\n      dup2\n      mstore\n      0x20\n      add\n      swap1\n      dup2\n      mstore\n      0x20\n      add\n      0x00\n      keccak256\n        /* \"Contracts\":1232:1266  users[msg.sender].createdContracts */\n      0x00\n      add\n      0x00\n        /* \"Contracts\":1232:1268  users[msg.sender].createdContracts++ */\n      dup2\n      sload\n      dup1\n      swap3\n      swap2\n      swap1\n      tag_125\n      swap1\n      tag_115\n      jump\t// in\n    tag_125:\n      swap2\n      swap1\n      pop\n      sstore\n      pop\n        /* \"Contracts\":1278:1283  users */\n      0x00\n        /* \"Contracts\":1278:1295  users[msg.sender] */\n      dup1\n        /* \"Contracts\":1284:1294  msg.sender */\n      caller\n        /* \"Contracts\":1278:1295  users[msg.sender] */\n      0xffffffffffffffffffffffffffffffffffffffff\n      and\n      0xffffffffffffffffffffffffffffffffffffffff\n      and\n      dup2\n      mstore\n      0x20\n      add\n      swap1\n      dup2\n      mstore\n      0x20\n      add\n      0x00\n      keccak256\n        /* \"Contracts\":1278:1331  users[msg.sender].openAccountabilityContractAddresses */\n      0x01\n      add\n        /* \"Contracts\":1345:1356  newContract */\n      dup2\n        /* \"Contracts\":1278:1358  users[msg.sender].openAccountabilityContractAddresses.push(address(newContract)) */\n      swap1\n      dup1\n      0x01\n      dup2\n      sload\n      add\n      dup1\n      dup3\n      sstore\n      dup1\n      swap2\n      pop\n      pop\n      0x01\n      swap1\n      sub\n      swap1\n      0x00\n      mstore\n      keccak256(0x00, 0x20)\n      add\n      0x00\n      swap1\n      swap2\n      swap1\n      swap2\n      swap1\n      swap2\n      0x0100\n      exp\n      dup2\n      sload\n      dup2\n      0xffffffffffffffffffffffffffffffffffffffff\n      mul\n      not\n      and\n      swap1\n      dup4\n      0xffffffffffffffffffffffffffffffffffffffff\n      and\n      mul\n      or\n      swap1\n      sstore\n      pop\n        /* \"Contracts\":1368:1376  referees */\n      0x03\n        /* \"Contracts\":1368:1386  referees[_referee] */\n      0x00\n        /* \"Contracts\":1377:1385  _referee */\n      dup7\n        /* \"Contracts\":1368:1386  referees[_referee] */\n      0xffffffffffffffffffffffffffffffffffffffff\n      and\n      0xffffffffffffffffffffffffffffffffffffffff\n      and\n      dup2\n      mstore\n      0x20\n      add\n      swap1\n      dup2\n      mstore\n      0x20\n      add\n      0x00\n      keccak256\n        /* \"Contracts\":1368:1403  referees[_referee].managedContracts */\n      0x00\n      add\n      0x00\n        /* \"Contracts\":1368:1405  referees[_referee].managedContracts++ */\n      dup2\n      sload\n      dup1\n      swap3\n      swap2\n      swap1\n      tag_127\n      swap1\n      tag_115\n      jump\t// in\n    tag_127:\n      swap2\n      swap1\n      pop\n      sstore\n      pop\n        /* \"Contracts\":1415:1423  referees */\n      0x03\n        /* \"Contracts\":1415:1433  referees[_referee] */\n      0x00\n        /* \"Contracts\":1424:1432  _referee */\n      dup7\n        /* \"Contracts\":1415:1433  referees[_referee] */\n      0xffffffffffffffffffffffffffffffffffffffff\n      and\n      0xffffffffffffffffffffffffffffffffffffffff\n      and\n      dup2\n      mstore\n      0x20\n      add\n      swap1\n      dup2\n      mstore\n      0x20\n      add\n      0x00\n      keccak256\n        /* \"Contracts\":1415:1469  referees[_referee].openAccountabilityContractAddresses */\n      0x01\n      add\n        /* \"Contracts\":1483:1494  newContract */\n      dup2\n        /* \"Contracts\":1415:1496  referees[_referee].openAccountabilityContractAddresses.push(address(newContract)) */\n      swap1\n      dup1\n      0x01\n      dup2\n      sload\n      add\n      dup1\n      dup3\n      sstore\n      dup1\n      swap2\n      pop\n      pop\n      0x01\n      swap1\n      sub\n      swap1\n      0x00\n      mstore\n      keccak256(0x00, 0x20)\n      add\n      0x00\n      swap1\n      swap2\n      swap1\n      swap2\n      swap1\n      swap2\n      0x0100\n      exp\n      dup2\n      sload\n      dup2\n      0xffffffffffffffffffffffffffffffffffffffff\n      mul\n      not\n      and\n      swap1\n      dup4\n      0xffffffffffffffffffffffffffffffffffffffff\n      and\n      mul\n      or\n      swap1\n      sstore\n      pop\n        /* \"Contracts\":779:1503  {... */\n      pop\n        /* \"Contracts\":624:1503  function createAccountabilityContract(address _referee, string memory _name, string memory _description, address payable _failureRecipient) public payable {... */\n      pop\n      pop\n      pop\n      pop\n      jump\t// out\n        /* \"Contracts\":3252:4000  function moveOpenContractToClosedContractsForUser(address user, uint openContractIndex) private {... */\n    tag_81:\n        /* \"Contracts\":3358:3390  uint openContractAddressesLength */\n      0x00\n        /* \"Contracts\":3393:3398  users */\n      dup1\n        /* \"Contracts\":3393:3404  users[user] */\n      0x00\n        /* \"Contracts\":3399:3403  user */\n      dup5\n        /* \"Contracts\":3393:3404  users[user] */\n      0xffffffffffffffffffffffffffffffffffffffff\n      and\n      0xffffffffffffffffffffffffffffffffffffffff\n      and\n      dup2\n      mstore\n      0x20\n      add\n      swap1\n      dup2\n      mstore\n      0x20\n      add\n      0x00\n      keccak256\n        /* \"Contracts\":3393:3440  users[user].openAccountabilityContractAddresses */\n      0x01\n      add\n        /* \"Contracts\":3393:3447  users[user].openAccountabilityContractAddresses.length */\n      dup1\n      sload\n      swap1\n      pop\n        /* \"Contracts\":3358:3447  uint openContractAddressesLength = users[user].openAccountabilityContractAddresses.length */\n      swap1\n      pop\n        /* \"Contracts\":3485:3512  openContractAddressesLength */\n      dup1\n        /* \"Contracts\":3465:3482  openContractIndex */\n      dup3\n        /* \"Contracts\":3465:3512  openContractIndex < openContractAddressesLength */\n      lt\n        /* \"Contracts\":3457:3550  require(openContractIndex < openContractAddressesLength, \"Open contract index out of bounds\") */\n      tag_130\n      jumpi\n      mload(0x40)\n      0x08c379a000000000000000000000000000000000000000000000000000000000\n      dup2\n      mstore\n      0x04\n      add\n      tag_131\n      swap1\n      tag_132\n      jump\t// in\n    tag_131:\n      mload(0x40)\n      dup1\n      swap2\n      sub\n      swap1\n      revert\n    tag_130:\n        /* \"Contracts\":3565:3571  uint i */\n      0x00\n        /* \"Contracts\":3574:3591  openContractIndex */\n      dup3\n        /* \"Contracts\":3565:3591  uint i = openContractIndex */\n      swap1\n      pop\n        /* \"Contracts\":3560:3760  for (uint i = openContractIndex; i<openContractAddressesLength-1; i++){... */\n    tag_133:\n        /* \"Contracts\":3623:3624  1 */\n      0x01\n        /* \"Contracts\":3595:3622  openContractAddressesLength */\n      dup3\n        /* \"Contracts\":3595:3624  openContractAddressesLength-1 */\n      tag_136\n      swap2\n      swap1\n      tag_137\n      jump\t// in\n    tag_136:\n        /* \"Contracts\":3593:3594  i */\n      dup2\n        /* \"Contracts\":3593:3624  i<openContractAddressesLength-1 */\n      lt\n        /* \"Contracts\":3560:3760  for (uint i = openContractIndex; i<openContractAddressesLength-1; i++){... */\n      iszero\n      tag_134\n      jumpi\n        /* \"Contracts\":3697:3702  users */\n      0x00\n        /* \"Contracts\":3697:3708  users[user] */\n      dup1\n        /* \"Contracts\":3703:3707  user */\n      dup6\n        /* \"Contracts\":3697:3708  users[user] */\n      0xffffffffffffffffffffffffffffffffffffffff\n      and\n      0xffffffffffffffffffffffffffffffffffffffff\n      and\n      dup2\n      mstore\n      0x20\n      add\n      swap1\n      dup2\n      mstore\n      0x20\n      add\n      0x00\n      keccak256\n        /* \"Contracts\":3697:3744  users[user].openAccountabilityContractAddresses */\n      0x01\n      add\n        /* \"Contracts\":3747:3748  1 */\n      0x01\n        /* \"Contracts\":3745:3746  i */\n      dup3\n        /* \"Contracts\":3745:3748  i+1 */\n      tag_138\n      swap2\n      swap1\n      tag_139\n      jump\t// in\n    tag_138:\n        /* \"Contracts\":3697:3749  users[user].openAccountabilityContractAddresses[i+1] */\n      dup2\n      sload\n      dup2\n      lt\n      tag_140\n      jumpi\n      tag_141\n      tag_74\n      jump\t// in\n    tag_141:\n    tag_140:\n      swap1\n      0x00\n      mstore\n      keccak256(0x00, 0x20)\n      add\n      0x00\n      swap1\n      sload\n      swap1\n      0x0100\n      exp\n      swap1\n      div\n      0xffffffffffffffffffffffffffffffffffffffff\n      and\n        /* \"Contracts\":3644:3649  users */\n      0x00\n        /* \"Contracts\":3644:3655  users[user] */\n      dup1\n        /* \"Contracts\":3650:3654  user */\n      dup7\n        /* \"Contracts\":3644:3655  users[user] */\n      0xffffffffffffffffffffffffffffffffffffffff\n      and\n      0xffffffffffffffffffffffffffffffffffffffff\n      and\n      dup2\n      mstore\n      0x20\n      add\n      swap1\n      dup2\n      mstore\n      0x20\n      add\n      0x00\n      keccak256\n        /* \"Contracts\":3644:3691  users[user].openAccountabilityContractAddresses */\n      0x01\n      add\n        /* \"Contracts\":3692:3693  i */\n      dup3\n        /* \"Contracts\":3644:3694  users[user].openAccountabilityContractAddresses[i] */\n      dup2\n      sload\n      dup2\n      lt\n      tag_143\n      jumpi\n      tag_144\n      tag_74\n      jump\t// in\n    tag_144:\n    tag_143:\n      swap1\n      0x00\n      mstore\n      keccak256(0x00, 0x20)\n      add\n      0x00\n        /* \"Contracts\":3644:3749  users[user].openAccountabilityContractAddresses[i] = users[user].openAccountabilityContractAddresses[i+1] */\n      0x0100\n      exp\n      dup2\n      sload\n      dup2\n      0xffffffffffffffffffffffffffffffffffffffff\n      mul\n      not\n      and\n      swap1\n      dup4\n      0xffffffffffffffffffffffffffffffffffffffff\n      and\n      mul\n      or\n      swap1\n      sstore\n      pop\n        /* \"Contracts\":3626:3629  i++ */\n      dup1\n      dup1\n      tag_146\n      swap1\n      tag_115\n      jump\t// in\n    tag_146:\n      swap2\n      pop\n      pop\n        /* \"Contracts\":3560:3760  for (uint i = openContractIndex; i<openContractAddressesLength-1; i++){... */\n      jump(tag_133)\n    tag_134:\n      pop\n        /* \"Contracts\":3769:3774  users */\n      0x00\n        /* \"Contracts\":3769:3780  users[user] */\n      dup1\n        /* \"Contracts\":3775:3779  user */\n      dup5\n        /* \"Contracts\":3769:3780  users[user] */\n      0xffffffffffffffffffffffffffffffffffffffff\n      and\n      0xffffffffffffffffffffffffffffffffffffffff\n      and\n      dup2\n      mstore\n      0x20\n      add\n      swap1\n      dup2\n      mstore\n      0x20\n      add\n      0x00\n      keccak256\n        /* \"Contracts\":3769:3818  users[user].closedAccountabilityContractAddresses */\n      0x02\n      add\n        /* \"Contracts\":3824:3829  users */\n      0x00\n        /* \"Contracts\":3824:3835  users[user] */\n      dup1\n        /* \"Contracts\":3830:3834  user */\n      dup6\n        /* \"Contracts\":3824:3835  users[user] */\n      0xffffffffffffffffffffffffffffffffffffffff\n      and\n      0xffffffffffffffffffffffffffffffffffffffff\n      and\n      dup2\n      mstore\n      0x20\n      add\n      swap1\n      dup2\n      mstore\n      0x20\n      add\n      0x00\n      keccak256\n        /* \"Contracts\":3824:3871  users[user].openAccountabilityContractAddresses */\n      0x01\n      add\n        /* \"Contracts\":3927:3928  1 */\n      0x01\n        /* \"Contracts\":3872:3877  users */\n      0x00\n        /* \"Contracts\":3872:3883  users[user] */\n      dup1\n        /* \"Contracts\":3878:3882  user */\n      dup8\n        /* \"Contracts\":3872:3883  users[user] */\n      0xffffffffffffffffffffffffffffffffffffffff\n      and\n      0xffffffffffffffffffffffffffffffffffffffff\n      and\n      dup2\n      mstore\n      0x20\n      add\n      swap1\n      dup2\n      mstore\n      0x20\n      add\n      0x00\n      keccak256\n        /* \"Contracts\":3872:3919  users[user].openAccountabilityContractAddresses */\n      0x01\n      add\n        /* \"Contracts\":3872:3926  users[user].openAccountabilityContractAddresses.length */\n      dup1\n      sload\n      swap1\n      pop\n        /* \"Contracts\":3872:3928  users[user].openAccountabilityContractAddresses.length-1 */\n      tag_147\n      swap2\n      swap1\n      tag_137\n      jump\t// in\n    tag_147:\n        /* \"Contracts\":3824:3929  users[user].openAccountabilityContractAddresses[users[user].openAccountabilityContractAddresses.length-1] */\n      dup2\n      sload\n      dup2\n      lt\n      tag_148\n      jumpi\n      tag_149\n      tag_74\n      jump\t// in\n    tag_149:\n    tag_148:\n      swap1\n      0x00\n      mstore\n      keccak256(0x00, 0x20)\n      add\n      0x00\n      swap1\n      sload\n      swap1\n      0x0100\n      exp\n      swap1\n      div\n      0xffffffffffffffffffffffffffffffffffffffff\n      and\n        /* \"Contracts\":3769:3930  users[user].closedAccountabilityContractAddresses.push(users[user].openAccountabilityContractAddresses[users[user].openAccountabilityContractAddresses.length-1]) */\n      swap1\n      dup1\n      0x01\n      dup2\n      sload\n      add\n      dup1\n      dup3\n      sstore\n      dup1\n      swap2\n      pop\n      pop\n      0x01\n      swap1\n      sub\n      swap1\n      0x00\n      mstore\n      keccak256(0x00, 0x20)\n      add\n      0x00\n      swap1\n      swap2\n      swap1\n      swap2\n      swap1\n      swap2\n      0x0100\n      exp\n      dup2\n      sload\n      dup2\n      0xffffffffffffffffffffffffffffffffffffffff\n      mul\n      not\n      and\n      swap1\n      dup4\n      0xffffffffffffffffffffffffffffffffffffffff\n      and\n      mul\n      or\n      swap1\n      sstore\n      pop\n        /* \"Contracts\":3940:3945  users */\n      0x00\n        /* \"Contracts\":3940:3951  users[user] */\n      dup1\n        /* \"Contracts\":3946:3950  user */\n      dup5\n        /* \"Contracts\":3940:3951  users[user] */\n      0xffffffffffffffffffffffffffffffffffffffff\n      and\n      0xffffffffffffffffffffffffffffffffffffffff\n      and\n      dup2\n      mstore\n      0x20\n      add\n      swap1\n      dup2\n      mstore\n      0x20\n      add\n      0x00\n      keccak256\n        /* \"Contracts\":3940:3987  users[user].openAccountabilityContractAddresses */\n      0x01\n      add\n        /* \"Contracts\":3940:3993  users[user].openAccountabilityContractAddresses.pop() */\n      dup1\n      sload\n      dup1\n      tag_152\n      jumpi\n      tag_153\n      tag_154\n      jump\t// in\n    tag_153:\n    tag_152:\n      0x01\n      swap1\n      sub\n      dup2\n      dup2\n      swap1\n      0x00\n      mstore\n      keccak256(0x00, 0x20)\n      add\n      exp(0x0100, 0x00)\n      dup2\n      sload\n      swap1\n      0xffffffffffffffffffffffffffffffffffffffff\n      mul\n      not\n      and\n      swap1\n      sstore\n      swap1\n      sstore\n        /* \"Contracts\":3348:4000  {... */\n      pop\n        /* \"Contracts\":3252:4000  function moveOpenContractToClosedContractsForUser(address user, uint openContractIndex) private {... */\n      pop\n      pop\n      jump\t// out\n        /* \"Contracts\":4007:4904  function moveOpenContractToClosedContractsForReferee(address referee, address contractAddress) private {... */\n    tag_90:\n        /* \"Contracts\":4120:4138  uint contractIndex */\n      0x00\n        /* \"Contracts\":4153:4159  uint i */\n      dup1\n        /* \"Contracts\":4162:4163  0 */\n      0x00\n        /* \"Contracts\":4153:4163  uint i = 0 */\n      swap1\n      pop\n        /* \"Contracts\":4148:4388  for (uint i = 0; i<referees[referee].openAccountabilityContractAddresses.length-1; i++){... */\n    tag_157:\n        /* \"Contracts\":4228:4229  1 */\n      0x01\n        /* \"Contracts\":4167:4175  referees */\n      0x03\n        /* \"Contracts\":4167:4184  referees[referee] */\n      0x00\n        /* \"Contracts\":4176:4183  referee */\n      dup7\n        /* \"Contracts\":4167:4184  referees[referee] */\n      0xffffffffffffffffffffffffffffffffffffffff\n      and\n      0xffffffffffffffffffffffffffffffffffffffff\n      and\n      dup2\n      mstore\n      0x20\n      add\n      swap1\n      dup2\n      mstore\n      0x20\n      add\n      0x00\n      keccak256\n        /* \"Contracts\":4167:4220  referees[referee].openAccountabilityContractAddresses */\n      0x01\n      add\n        /* \"Contracts\":4167:4227  referees[referee].openAccountabilityContractAddresses.length */\n      dup1\n      sload\n      swap1\n      pop\n        /* \"Contracts\":4167:4229  referees[referee].openAccountabilityContractAddresses.length-1 */\n      tag_160\n      swap2\n      swap1\n      tag_137\n      jump\t// in\n    tag_160:\n        /* \"Contracts\":4165:4166  i */\n      dup2\n        /* \"Contracts\":4165:4229  i<referees[referee].openAccountabilityContractAddresses.length-1 */\n      lt\n        /* \"Contracts\":4148:4388  for (uint i = 0; i<referees[referee].openAccountabilityContractAddresses.length-1; i++){... */\n      iszero\n      tag_158\n      jumpi\n        /* \"Contracts\":4312:4327  contractAddress */\n      dup3\n        /* \"Contracts\":4252:4327  referees[referee].openAccountabilityContractAddresses[i] == contractAddress */\n      0xffffffffffffffffffffffffffffffffffffffff\n      and\n        /* \"Contracts\":4252:4260  referees */\n      0x03\n        /* \"Contracts\":4252:4269  referees[referee] */\n      0x00\n        /* \"Contracts\":4261:4268  referee */\n      dup7\n        /* \"Contracts\":4252:4269  referees[referee] */\n      0xffffffffffffffffffffffffffffffffffffffff\n      and\n      0xffffffffffffffffffffffffffffffffffffffff\n      and\n      dup2\n      mstore\n      0x20\n      add\n      swap1\n      dup2\n      mstore\n      0x20\n      add\n      0x00\n      keccak256\n        /* \"Contracts\":4252:4305  referees[referee].openAccountabilityContractAddresses */\n      0x01\n      add\n        /* \"Contracts\":4306:4307  i */\n      dup3\n        /* \"Contracts\":4252:4308  referees[referee].openAccountabilityContractAddresses[i] */\n      dup2\n      sload\n      dup2\n      lt\n      tag_161\n      jumpi\n      tag_162\n      tag_74\n      jump\t// in\n    tag_162:\n    tag_161:\n      swap1\n      0x00\n      mstore\n      keccak256(0x00, 0x20)\n      add\n      0x00\n      swap1\n      sload\n      swap1\n      0x0100\n      exp\n      swap1\n      div\n      0xffffffffffffffffffffffffffffffffffffffff\n      and\n        /* \"Contracts\":4252:4327  referees[referee].openAccountabilityContractAddresses[i] == contractAddress */\n      0xffffffffffffffffffffffffffffffffffffffff\n      and\n      eq\n        /* \"Contracts\":4249:4378  if(referees[referee].openAccountabilityContractAddresses[i] == contractAddress){... */\n      iszero\n      tag_164\n      jumpi\n        /* \"Contracts\":4362:4363  i */\n      dup1\n        /* \"Contracts\":4346:4363  contractIndex = i */\n      swap2\n      pop\n        /* \"Contracts\":4249:4378  if(referees[referee].openAccountabilityContractAddresses[i] == contractAddress){... */\n    tag_164:\n        /* \"Contracts\":4231:4234  i++ */\n      dup1\n      dup1\n      tag_165\n      swap1\n      tag_115\n      jump\t// in\n    tag_165:\n      swap2\n      pop\n      pop\n        /* \"Contracts\":4148:4388  for (uint i = 0; i<referees[referee].openAccountabilityContractAddresses.length-1; i++){... */\n      jump(tag_157)\n    tag_158:\n      pop\n        /* \"Contracts\":4402:4408  uint i */\n      0x00\n        /* \"Contracts\":4411:4424  contractIndex */\n      dup2\n        /* \"Contracts\":4402:4424  uint i = contractIndex */\n      swap1\n      pop\n        /* \"Contracts\":4397:4638  for (uint i = contractIndex; i<referees[referee].openAccountabilityContractAddresses.length-1; i++){... */\n    tag_166:\n        /* \"Contracts\":4489:4490  1 */\n      0x01\n        /* \"Contracts\":4428:4436  referees */\n      0x03\n        /* \"Contracts\":4428:4445  referees[referee] */\n      0x00\n        /* \"Contracts\":4437:4444  referee */\n      dup7\n        /* \"Contracts\":4428:4445  referees[referee] */\n      0xffffffffffffffffffffffffffffffffffffffff\n      and\n      0xffffffffffffffffffffffffffffffffffffffff\n      and\n      dup2\n      mstore\n      0x20\n      add\n      swap1\n      dup2\n      mstore\n      0x20\n      add\n      0x00\n      keccak256\n        /* \"Contracts\":4428:4481  referees[referee].openAccountabilityContractAddresses */\n      0x01\n      add\n        /* \"Contracts\":4428:4488  referees[referee].openAccountabilityContractAddresses.length */\n      dup1\n      sload\n      swap1\n      pop\n        /* \"Contracts\":4428:4490  referees[referee].openAccountabilityContractAddresses.length-1 */\n      tag_169\n      swap2\n      swap1\n      tag_137\n      jump\t// in\n    tag_169:\n        /* \"Contracts\":4426:4427  i */\n      dup2\n        /* \"Contracts\":4426:4490  i<referees[referee].openAccountabilityContractAddresses.length-1 */\n      lt\n        /* \"Contracts\":4397:4638  for (uint i = contractIndex; i<referees[referee].openAccountabilityContractAddresses.length-1; i++){... */\n      iszero\n      tag_167\n      jumpi\n        /* \"Contracts\":4569:4577  referees */\n      0x03\n        /* \"Contracts\":4569:4586  referees[referee] */\n      0x00\n        /* \"Contracts\":4578:4585  referee */\n      dup6\n        /* \"Contracts\":4569:4586  referees[referee] */\n      0xffffffffffffffffffffffffffffffffffffffff\n      and\n      0xffffffffffffffffffffffffffffffffffffffff\n      and\n      dup2\n      mstore\n      0x20\n      add\n      swap1\n      dup2\n      mstore\n      0x20\n      add\n      0x00\n      keccak256\n        /* \"Contracts\":4569:4622  referees[referee].openAccountabilityContractAddresses */\n      0x01\n      add\n        /* \"Contracts\":4625:4626  1 */\n      0x01\n        /* \"Contracts\":4623:4624  i */\n      dup3\n        /* \"Contracts\":4623:4626  i+1 */\n      tag_170\n      swap2\n      swap1\n      tag_139\n      jump\t// in\n    tag_170:\n        /* \"Contracts\":4569:4627  referees[referee].openAccountabilityContractAddresses[i+1] */\n      dup2\n      sload\n      dup2\n      lt\n      tag_171\n      jumpi\n      tag_172\n      tag_74\n      jump\t// in\n    tag_172:\n    tag_171:\n      swap1\n      0x00\n      mstore\n      keccak256(0x00, 0x20)\n      add\n      0x00\n      swap1\n      sload\n      swap1\n      0x0100\n      exp\n      swap1\n      div\n      0xffffffffffffffffffffffffffffffffffffffff\n      and\n        /* \"Contracts\":4510:4518  referees */\n      0x03\n        /* \"Contracts\":4510:4527  referees[referee] */\n      0x00\n        /* \"Contracts\":4519:4526  referee */\n      dup7\n        /* \"Contracts\":4510:4527  referees[referee] */\n      0xffffffffffffffffffffffffffffffffffffffff\n      and\n      0xffffffffffffffffffffffffffffffffffffffff\n      and\n      dup2\n      mstore\n      0x20\n      add\n      swap1\n      dup2\n      mstore\n      0x20\n      add\n      0x00\n      keccak256\n        /* \"Contracts\":4510:4563  referees[referee].openAccountabilityContractAddresses */\n      0x01\n      add\n        /* \"Contracts\":4564:4565  i */\n      dup3\n        /* \"Contracts\":4510:4566  referees[referee].openAccountabilityContractAddresses[i] */\n      dup2\n      sload\n      dup2\n      lt\n      tag_174\n      jumpi\n      tag_175\n      tag_74\n      jump\t// in\n    tag_175:\n    tag_174:\n      swap1\n      0x00\n      mstore\n      keccak256(0x00, 0x20)\n      add\n      0x00\n        /* \"Contracts\":4510:4627  referees[referee].openAccountabilityContractAddresses[i] = referees[referee].openAccountabilityContractAddresses[i+1] */\n      0x0100\n      exp\n      dup2\n      sload\n      dup2\n      0xffffffffffffffffffffffffffffffffffffffff\n      mul\n      not\n      and\n      swap1\n      dup4\n      0xffffffffffffffffffffffffffffffffffffffff\n      and\n      mul\n      or\n      swap1\n      sstore\n      pop\n        /* \"Contracts\":4492:4495  i++ */\n      dup1\n      dup1\n      tag_177\n      swap1\n      tag_115\n      jump\t// in\n    tag_177:\n      swap2\n      pop\n      pop\n        /* \"Contracts\":4397:4638  for (uint i = contractIndex; i<referees[referee].openAccountabilityContractAddresses.length-1; i++){... */\n      jump(tag_166)\n    tag_167:\n      pop\n        /* \"Contracts\":4647:4655  referees */\n      0x03\n        /* \"Contracts\":4647:4664  referees[referee] */\n      0x00\n        /* \"Contracts\":4656:4663  referee */\n      dup5\n        /* \"Contracts\":4647:4664  referees[referee] */\n      0xffffffffffffffffffffffffffffffffffffffff\n      and\n      0xffffffffffffffffffffffffffffffffffffffff\n      and\n      dup2\n      mstore\n      0x20\n      add\n      swap1\n      dup2\n      mstore\n      0x20\n      add\n      0x00\n      keccak256\n        /* \"Contracts\":4647:4702  referees[referee].closedAccountabilityContractAddresses */\n      0x02\n      add\n        /* \"Contracts\":4708:4716  referees */\n      0x03\n        /* \"Contracts\":4708:4725  referees[referee] */\n      0x00\n        /* \"Contracts\":4717:4724  referee */\n      dup6\n        /* \"Contracts\":4708:4725  referees[referee] */\n      0xffffffffffffffffffffffffffffffffffffffff\n      and\n      0xffffffffffffffffffffffffffffffffffffffff\n      and\n      dup2\n      mstore\n      0x20\n      add\n      swap1\n      dup2\n      mstore\n      0x20\n      add\n      0x00\n      keccak256\n        /* \"Contracts\":4708:4761  referees[referee].openAccountabilityContractAddresses */\n      0x01\n      add\n        /* \"Contracts\":4823:4824  1 */\n      0x01\n        /* \"Contracts\":4762:4770  referees */\n      0x03\n        /* \"Contracts\":4762:4779  referees[referee] */\n      0x00\n        /* \"Contracts\":4771:4778  referee */\n      dup8\n        /* \"Contracts\":4762:4779  referees[referee] */\n      0xffffffffffffffffffffffffffffffffffffffff\n      and\n      0xffffffffffffffffffffffffffffffffffffffff\n      and\n      dup2\n      mstore\n      0x20\n      add\n      swap1\n      dup2\n      mstore\n      0x20\n      add\n      0x00\n      keccak256\n        /* \"Contracts\":4762:4815  referees[referee].openAccountabilityContractAddresses */\n      0x01\n      add\n        /* \"Contracts\":4762:4822  referees[referee].openAccountabilityContractAddresses.length */\n      dup1\n      sload\n      swap1\n      pop\n        /* \"Contracts\":4762:4824  referees[referee].openAccountabilityContractAddresses.length-1 */\n      tag_178\n      swap2\n      swap1\n      tag_137\n      jump\t// in\n    tag_178:\n        /* \"Contracts\":4708:4825  referees[referee].openAccountabilityContractAddresses[referees[referee].openAccountabilityContractAddresses.length-1] */\n      dup2\n      sload\n      dup2\n      lt\n      tag_179\n      jumpi\n      tag_180\n      tag_74\n      jump\t// in\n    tag_180:\n    tag_179:\n      swap1\n      0x00\n      mstore\n      keccak256(0x00, 0x20)\n      add\n      0x00\n      swap1\n      sload\n      swap1\n      0x0100\n      exp\n      swap1\n      div\n      0xffffffffffffffffffffffffffffffffffffffff\n      and\n        /* \"Contracts\":4647:4826  referees[referee].closedAccountabilityContractAddresses.push(referees[referee].openAccountabilityContractAddresses[referees[referee].openAccountabilityContractAddresses.length-1]) */\n      swap1\n      dup1\n      0x01\n      dup2\n      sload\n      add\n      dup1\n      dup3\n      sstore\n      dup1\n      swap2\n      pop\n      pop\n      0x01\n      swap1\n      sub\n      swap1\n      0x00\n      mstore\n      keccak256(0x00, 0x20)\n      add\n      0x00\n      swap1\n      swap2\n      swap1\n      swap2\n      swap1\n      swap2\n      0x0100\n      exp\n      dup2\n      sload\n      dup2\n      0xffffffffffffffffffffffffffffffffffffffff\n      mul\n      not\n      and\n      swap1\n      dup4\n      0xffffffffffffffffffffffffffffffffffffffff\n      and\n      mul\n      or\n      swap1\n      sstore\n      pop\n        /* \"Contracts\":4836:4844  referees */\n      0x03\n        /* \"Contracts\":4836:4853  referees[referee] */\n      0x00\n        /* \"Contracts\":4845:4852  referee */\n      dup5\n        /* \"Contracts\":4836:4853  referees[referee] */\n      0xffffffffffffffffffffffffffffffffffffffff\n      and\n      0xffffffffffffffffffffffffffffffffffffffff\n      and\n      dup2\n      mstore\n      0x20\n      add\n      swap1\n      dup2\n      mstore\n      0x20\n      add\n      0x00\n      keccak256\n        /* \"Contracts\":4836:4891  referees[referee].closedAccountabilityContractAddresses */\n      0x02\n      add\n        /* \"Contracts\":4836:4897  referees[referee].closedAccountabilityContractAddresses.pop() */\n      dup1\n      sload\n      dup1\n      tag_183\n      jumpi\n      tag_184\n      tag_154\n      jump\t// in\n    tag_184:\n    tag_183:\n      0x01\n      swap1\n      sub\n      dup2\n      dup2\n      swap1\n      0x00\n      mstore\n      keccak256(0x00, 0x20)\n      add\n      exp(0x0100, 0x00)\n      dup2\n      sload\n      swap1\n      0xffffffffffffffffffffffffffffffffffffffff\n      mul\n      not\n      and\n      swap1\n      sstore\n      swap1\n      sstore\n        /* \"Contracts\":4110:4904  {... */\n      pop\n        /* \"Contracts\":4007:4904  function moveOpenContractToClosedContractsForReferee(address referee, address contractAddress) private {... */\n      pop\n      pop\n      jump\t// out\n    tag_121:\n      dataSize(sub_0)\n      dup1\n      dataOffset(sub_0)\n      dup4\n      codecopy\n      add\n      swap1\n      jump\t// out\n        /* \"#utility.yul\":7:82   */\n    tag_186:\n        /* \"#utility.yul\":40:46   */\n      0x00\n        /* \"#utility.yul\":73:75   */\n      0x40\n        /* \"#utility.yul\":67:76   */\n      mload\n        /* \"#utility.yul\":57:76   */\n      swap1\n      pop\n        /* \"#utility.yul\":7:82   */\n      swap1\n      jump\t// out\n        /* \"#utility.yul\":88:205   */\n    tag_187:\n        /* \"#utility.yul\":197:198   */\n      0x00\n        /* \"#utility.yul\":194:195   */\n      dup1\n        /* \"#utility.yul\":187:199   */\n      revert\n        /* \"#utility.yul\":211:328   */\n    tag_188:\n        /* \"#utility.yul\":320:321   */\n      0x00\n        /* \"#utility.yul\":317:318   */\n      dup1\n        /* \"#utility.yul\":310:322   */\n      revert\n        /* \"#utility.yul\":334:460   */\n    tag_189:\n        /* \"#utility.yul\":371:378   */\n      0x00\n        /* \"#utility.yul\":411:453   */\n      0xffffffffffffffffffffffffffffffffffffffff\n        /* \"#utility.yul\":404:409   */\n      dup3\n        /* \"#utility.yul\":400:454   */\n      and\n        /* \"#utility.yul\":389:454   */\n      swap1\n      pop\n        /* \"#utility.yul\":334:460   */\n      swap2\n      swap1\n      pop\n      jump\t// out\n        /* \"#utility.yul\":466:562   */\n    tag_190:\n        /* \"#utility.yul\":503:510   */\n      0x00\n        /* \"#utility.yul\":532:556   */\n      tag_240\n        /* \"#utility.yul\":550:555   */\n      dup3\n        /* \"#utility.yul\":532:556   */\n      tag_189\n      jump\t// in\n    tag_240:\n        /* \"#utility.yul\":521:556   */\n      swap1\n      pop\n        /* \"#utility.yul\":466:562   */\n      swap2\n      swap1\n      pop\n      jump\t// out\n        /* \"#utility.yul\":568:690   */\n    tag_191:\n        /* \"#utility.yul\":641:665   */\n      tag_242\n        /* \"#utility.yul\":659:664   */\n      dup2\n        /* \"#utility.yul\":641:665   */\n      tag_190\n      jump\t// in\n    tag_242:\n        /* \"#utility.yul\":634:639   */\n      dup2\n        /* \"#utility.yul\":631:666   */\n      eq\n        /* \"#utility.yul\":621:684   */\n      tag_243\n      jumpi\n        /* \"#utility.yul\":680:681   */\n      0x00\n        /* \"#utility.yul\":677:678   */\n      dup1\n        /* \"#utility.yul\":670:682   */\n      revert\n        /* \"#utility.yul\":621:684   */\n    tag_243:\n        /* \"#utility.yul\":568:690   */\n      pop\n      jump\t// out\n        /* \"#utility.yul\":696:835   */\n    tag_192:\n        /* \"#utility.yul\":742:747   */\n      0x00\n        /* \"#utility.yul\":780:786   */\n      dup2\n        /* \"#utility.yul\":767:787   */\n      calldataload\n        /* \"#utility.yul\":758:787   */\n      swap1\n      pop\n        /* \"#utility.yul\":796:829   */\n      tag_245\n        /* \"#utility.yul\":823:828   */\n      dup2\n        /* \"#utility.yul\":796:829   */\n      tag_191\n      jump\t// in\n    tag_245:\n        /* \"#utility.yul\":696:835   */\n      swap3\n      swap2\n      pop\n      pop\n      jump\t// out\n        /* \"#utility.yul\":841:1170   */\n    tag_17:\n        /* \"#utility.yul\":900:906   */\n      0x00\n        /* \"#utility.yul\":949:951   */\n      0x20\n        /* \"#utility.yul\":937:946   */\n      dup3\n        /* \"#utility.yul\":928:935   */\n      dup5\n        /* \"#utility.yul\":924:947   */\n      sub\n        /* \"#utility.yul\":920:952   */\n      slt\n        /* \"#utility.yul\":917:1036   */\n      iszero\n      tag_247\n      jumpi\n        /* \"#utility.yul\":955:1034   */\n      tag_248\n      tag_187\n      jump\t// in\n    tag_248:\n        /* \"#utility.yul\":917:1036   */\n    tag_247:\n        /* \"#utility.yul\":1075:1076   */\n      0x00\n        /* \"#utility.yul\":1100:1153   */\n      tag_249\n        /* \"#utility.yul\":1145:1152   */\n      dup5\n        /* \"#utility.yul\":1136:1142   */\n      dup3\n        /* \"#utility.yul\":1125:1134   */\n      dup6\n        /* \"#utility.yul\":1121:1143   */\n      add\n        /* \"#utility.yul\":1100:1153   */\n      tag_192\n      jump\t// in\n    tag_249:\n        /* \"#utility.yul\":1090:1153   */\n      swap2\n      pop\n        /* \"#utility.yul\":1046:1163   */\n      pop\n        /* \"#utility.yul\":841:1170   */\n      swap3\n      swap2\n      pop\n      pop\n      jump\t// out\n        /* \"#utility.yul\":1176:1290   */\n    tag_193:\n        /* \"#utility.yul\":1243:1249   */\n      0x00\n        /* \"#utility.yul\":1277:1282   */\n      dup2\n        /* \"#utility.yul\":1271:1283   */\n      mload\n        /* \"#utility.yul\":1261:1283   */\n      swap1\n      pop\n        /* \"#utility.yul\":1176:1290   */\n      swap2\n      swap1\n      pop\n      jump\t// out\n        /* \"#utility.yul\":1296:1480   */\n    tag_194:\n        /* \"#utility.yul\":1395:1406   */\n      0x00\n        /* \"#utility.yul\":1429:1435   */\n      dup3\n        /* \"#utility.yul\":1424:1427   */\n      dup3\n        /* \"#utility.yul\":1417:1436   */\n      mstore\n        /* \"#utility.yul\":1469:1473   */\n      0x20\n        /* \"#utility.yul\":1464:1467   */\n      dup3\n        /* \"#utility.yul\":1460:1474   */\n      add\n        /* \"#utility.yul\":1445:1474   */\n      swap1\n      pop\n        /* \"#utility.yul\":1296:1480   */\n      swap3\n      swap2\n      pop\n      pop\n      jump\t// out\n        /* \"#utility.yul\":1486:1618   */\n    tag_195:\n        /* \"#utility.yul\":1553:1557   */\n      0x00\n        /* \"#utility.yul\":1576:1579   */\n      dup2\n        /* \"#utility.yul\":1568:1579   */\n      swap1\n      pop\n        /* \"#utility.yul\":1606:1610   */\n      0x20\n        /* \"#utility.yul\":1601:1604   */\n      dup3\n        /* \"#utility.yul\":1597:1611   */\n      add\n        /* \"#utility.yul\":1589:1611   */\n      swap1\n      pop\n        /* \"#utility.yul\":1486:1618   */\n      swap2\n      swap1\n      pop\n      jump\t// out\n        /* \"#utility.yul\":1624:1732   */\n    tag_196:\n        /* \"#utility.yul\":1701:1725   */\n      tag_254\n        /* \"#utility.yul\":1719:1724   */\n      dup2\n        /* \"#utility.yul\":1701:1725   */\n      tag_190\n      jump\t// in\n    tag_254:\n        /* \"#utility.yul\":1696:1699   */\n      dup3\n        /* \"#utility.yul\":1689:1726   */\n      mstore\n        /* \"#utility.yul\":1624:1732   */\n      pop\n      pop\n      jump\t// out\n        /* \"#utility.yul\":1738:1917   */\n    tag_197:\n        /* \"#utility.yul\":1807:1817   */\n      0x00\n        /* \"#utility.yul\":1828:1874   */\n      tag_256\n        /* \"#utility.yul\":1870:1873   */\n      dup4\n        /* \"#utility.yul\":1862:1868   */\n      dup4\n        /* \"#utility.yul\":1828:1874   */\n      tag_196\n      jump\t// in\n    tag_256:\n        /* \"#utility.yul\":1906:1910   */\n      0x20\n        /* \"#utility.yul\":1901:1904   */\n      dup4\n        /* \"#utility.yul\":1897:1911   */\n      add\n        /* \"#utility.yul\":1883:1911   */\n      swap1\n      pop\n        /* \"#utility.yul\":1738:1917   */\n      swap3\n      swap2\n      pop\n      pop\n      jump\t// out\n        /* \"#utility.yul\":1923:2036   */\n    tag_198:\n        /* \"#utility.yul\":1993:1997   */\n      0x00\n        /* \"#utility.yul\":2025:2029   */\n      0x20\n        /* \"#utility.yul\":2020:2023   */\n      dup3\n        /* \"#utility.yul\":2016:2030   */\n      add\n        /* \"#utility.yul\":2008:2030   */\n      swap1\n      pop\n        /* \"#utility.yul\":1923:2036   */\n      swap2\n      swap1\n      pop\n      jump\t// out\n        /* \"#utility.yul\":2072:2804   */\n    tag_199:\n        /* \"#utility.yul\":2191:2194   */\n      0x00\n        /* \"#utility.yul\":2220:2274   */\n      tag_259\n        /* \"#utility.yul\":2268:2273   */\n      dup3\n        /* \"#utility.yul\":2220:2274   */\n      tag_193\n      jump\t// in\n    tag_259:\n        /* \"#utility.yul\":2290:2376   */\n      tag_260\n        /* \"#utility.yul\":2369:2375   */\n      dup2\n        /* \"#utility.yul\":2364:2367   */\n      dup6\n        /* \"#utility.yul\":2290:2376   */\n      tag_194\n      jump\t// in\n    tag_260:\n        /* \"#utility.yul\":2283:2376   */\n      swap4\n      pop\n        /* \"#utility.yul\":2400:2456   */\n      tag_261\n        /* \"#utility.yul\":2450:2455   */\n      dup4\n        /* \"#utility.yul\":2400:2456   */\n      tag_195\n      jump\t// in\n    tag_261:\n        /* \"#utility.yul\":2479:2486   */\n      dup1\n        /* \"#utility.yul\":2510:2511   */\n      0x00\n        /* \"#utility.yul\":2495:2779   */\n    tag_262:\n        /* \"#utility.yul\":2520:2526   */\n      dup4\n        /* \"#utility.yul\":2517:2518   */\n      dup2\n        /* \"#utility.yul\":2514:2527   */\n      lt\n        /* \"#utility.yul\":2495:2779   */\n      iszero\n      tag_264\n      jumpi\n        /* \"#utility.yul\":2596:2602   */\n      dup2\n        /* \"#utility.yul\":2590:2603   */\n      mload\n        /* \"#utility.yul\":2623:2686   */\n      tag_265\n        /* \"#utility.yul\":2682:2685   */\n      dup9\n        /* \"#utility.yul\":2667:2680   */\n      dup3\n        /* \"#utility.yul\":2623:2686   */\n      tag_197\n      jump\t// in\n    tag_265:\n        /* \"#utility.yul\":2616:2686   */\n      swap8\n      pop\n        /* \"#utility.yul\":2709:2769   */\n      tag_266\n        /* \"#utility.yul\":2762:2768   */\n      dup4\n        /* \"#utility.yul\":2709:2769   */\n      tag_198\n      jump\t// in\n    tag_266:\n        /* \"#utility.yul\":2699:2769   */\n      swap3\n      pop\n        /* \"#utility.yul\":2555:2779   */\n      pop\n        /* \"#utility.yul\":2542:2543   */\n      0x01\n        /* \"#utility.yul\":2539:2540   */\n      dup2\n        /* \"#utility.yul\":2535:2544   */\n      add\n        /* \"#utility.yul\":2530:2544   */\n      swap1\n      pop\n        /* \"#utility.yul\":2495:2779   */\n      jump(tag_262)\n    tag_264:\n        /* \"#utility.yul\":2499:2513   */\n      pop\n        /* \"#utility.yul\":2795:2798   */\n      dup6\n        /* \"#utility.yul\":2788:2798   */\n      swap4\n      pop\n        /* \"#utility.yul\":2196:2804   */\n      pop\n      pop\n      pop\n        /* \"#utility.yul\":2072:2804   */\n      swap3\n      swap2\n      pop\n      pop\n      jump\t// out\n        /* \"#utility.yul\":2810:3183   */\n    tag_20:\n        /* \"#utility.yul\":2953:2957   */\n      0x00\n        /* \"#utility.yul\":2991:2993   */\n      0x20\n        /* \"#utility.yul\":2980:2989   */\n      dup3\n        /* \"#utility.yul\":2976:2994   */\n      add\n        /* \"#utility.yul\":2968:2994   */\n      swap1\n      pop\n        /* \"#utility.yul\":3040:3049   */\n      dup2\n        /* \"#utility.yul\":3034:3038   */\n      dup2\n        /* \"#utility.yul\":3030:3050   */\n      sub\n        /* \"#utility.yul\":3026:3027   */\n      0x00\n        /* \"#utility.yul\":3015:3024   */\n      dup4\n        /* \"#utility.yul\":3011:3028   */\n      add\n        /* \"#utility.yul\":3004:3051   */\n      mstore\n        /* \"#utility.yul\":3068:3176   */\n      tag_268\n        /* \"#utility.yul\":3171:3175   */\n      dup2\n        /* \"#utility.yul\":3162:3168   */\n      dup5\n        /* \"#utility.yul\":3068:3176   */\n      tag_199\n      jump\t// in\n    tag_268:\n        /* \"#utility.yul\":3060:3176   */\n      swap1\n      pop\n        /* \"#utility.yul\":2810:3183   */\n      swap3\n      swap2\n      pop\n      pop\n      jump\t// out\n        /* \"#utility.yul\":3189:3266   */\n    tag_200:\n        /* \"#utility.yul\":3226:3233   */\n      0x00\n        /* \"#utility.yul\":3255:3260   */\n      dup2\n        /* \"#utility.yul\":3244:3260   */\n      swap1\n      pop\n        /* \"#utility.yul\":3189:3266   */\n      swap2\n      swap1\n      pop\n      jump\t// out\n        /* \"#utility.yul\":3272:3394   */\n    tag_201:\n        /* \"#utility.yul\":3345:3369   */\n      tag_271\n        /* \"#utility.yul\":3363:3368   */\n      dup2\n        /* \"#utility.yul\":3345:3369   */\n      tag_200\n      jump\t// in\n    tag_271:\n        /* \"#utility.yul\":3338:3343   */\n      dup2\n        /* \"#utility.yul\":3335:3370   */\n      eq\n        /* \"#utility.yul\":3325:3388   */\n      tag_272\n      jumpi\n        /* \"#utility.yul\":3384:3385   */\n      0x00\n        /* \"#utility.yul\":3381:3382   */\n      dup1\n        /* \"#utility.yul\":3374:3386   */\n      revert\n        /* \"#utility.yul\":3325:3388   */\n    tag_272:\n        /* \"#utility.yul\":3272:3394   */\n      pop\n      jump\t// out\n        /* \"#utility.yul\":3400:3539   */\n    tag_202:\n        /* \"#utility.yul\":3446:3451   */\n      0x00\n        /* \"#utility.yul\":3484:3490   */\n      dup2\n        /* \"#utility.yul\":3471:3491   */\n      calldataload\n        /* \"#utility.yul\":3462:3491   */\n      swap1\n      pop\n        /* \"#utility.yul\":3500:3533   */\n      tag_274\n        /* \"#utility.yul\":3527:3532   */\n      dup2\n        /* \"#utility.yul\":3500:3533   */\n      tag_201\n      jump\t// in\n    tag_274:\n        /* \"#utility.yul\":3400:3539   */\n      swap3\n      swap2\n      pop\n      pop\n      jump\t// out\n        /* \"#utility.yul\":3545:4019   */\n    tag_24:\n        /* \"#utility.yul\":3613:3619   */\n      0x00\n        /* \"#utility.yul\":3621:3627   */\n      dup1\n        /* \"#utility.yul\":3670:3672   */\n      0x40\n        /* \"#utility.yul\":3658:3667   */\n      dup4\n        /* \"#utility.yul\":3649:3656   */\n      dup6\n        /* \"#utility.yul\":3645:3668   */\n      sub\n        /* \"#utility.yul\":3641:3673   */\n      slt\n        /* \"#utility.yul\":3638:3757   */\n      iszero\n      tag_276\n      jumpi\n        /* \"#utility.yul\":3676:3755   */\n      tag_277\n      tag_187\n      jump\t// in\n    tag_277:\n        /* \"#utility.yul\":3638:3757   */\n    tag_276:\n        /* \"#utility.yul\":3796:3797   */\n      0x00\n        /* \"#utility.yul\":3821:3874   */\n      tag_278\n        /* \"#utility.yul\":3866:3873   */\n      dup6\n        /* \"#utility.yul\":3857:3863   */\n      dup3\n        /* \"#utility.yul\":3846:3855   */\n      dup7\n        /* \"#utility.yul\":3842:3864   */\n      add\n        /* \"#utility.yul\":3821:3874   */\n      tag_192\n      jump\t// in\n    tag_278:\n        /* \"#utility.yul\":3811:3874   */\n      swap3\n      pop\n        /* \"#utility.yul\":3767:3884   */\n      pop\n        /* \"#utility.yul\":3923:3925   */\n      0x20\n        /* \"#utility.yul\":3949:4002   */\n      tag_279\n        /* \"#utility.yul\":3994:4001   */\n      dup6\n        /* \"#utility.yul\":3985:3991   */\n      dup3\n        /* \"#utility.yul\":3974:3983   */\n      dup7\n        /* \"#utility.yul\":3970:3992   */\n      add\n        /* \"#utility.yul\":3949:4002   */\n      tag_202\n      jump\t// in\n    tag_279:\n        /* \"#utility.yul\":3939:4002   */\n      swap2\n      pop\n        /* \"#utility.yul\":3894:4012   */\n      pop\n        /* \"#utility.yul\":3545:4019   */\n      swap3\n      pop\n      swap3\n      swap1\n      pop\n      jump\t// out\n        /* \"#utility.yul\":4025:4143   */\n    tag_203:\n        /* \"#utility.yul\":4112:4136   */\n      tag_281\n        /* \"#utility.yul\":4130:4135   */\n      dup2\n        /* \"#utility.yul\":4112:4136   */\n      tag_200\n      jump\t// in\n    tag_281:\n        /* \"#utility.yul\":4107:4110   */\n      dup3\n        /* \"#utility.yul\":4100:4137   */\n      mstore\n        /* \"#utility.yul\":4025:4143   */\n      pop\n      pop\n      jump\t// out\n        /* \"#utility.yul\":4149:4371   */\n    tag_36:\n        /* \"#utility.yul\":4242:4246   */\n      0x00\n        /* \"#utility.yul\":4280:4282   */\n      0x20\n        /* \"#utility.yul\":4269:4278   */\n      dup3\n        /* \"#utility.yul\":4265:4283   */\n      add\n        /* \"#utility.yul\":4257:4283   */\n      swap1\n      pop\n        /* \"#utility.yul\":4293:4364   */\n      tag_283\n        /* \"#utility.yul\":4361:4362   */\n      0x00\n        /* \"#utility.yul\":4350:4359   */\n      dup4\n        /* \"#utility.yul\":4346:4363   */\n      add\n        /* \"#utility.yul\":4337:4343   */\n      dup5\n        /* \"#utility.yul\":4293:4364   */\n      tag_203\n      jump\t// in\n    tag_283:\n        /* \"#utility.yul\":4149:4371   */\n      swap3\n      swap2\n      pop\n      pop\n      jump\t// out\n        /* \"#utility.yul\":4377:4494   */\n    tag_204:\n        /* \"#utility.yul\":4486:4487   */\n      0x00\n        /* \"#utility.yul\":4483:4484   */\n      dup1\n        /* \"#utility.yul\":4476:4488   */\n      revert\n        /* \"#utility.yul\":4500:4617   */\n    tag_205:\n        /* \"#utility.yul\":4609:4610   */\n      0x00\n        /* \"#utility.yul\":4606:4607   */\n      dup1\n        /* \"#utility.yul\":4599:4611   */\n      revert\n        /* \"#utility.yul\":4623:4725   */\n    tag_206:\n        /* \"#utility.yul\":4664:4670   */\n      0x00\n        /* \"#utility.yul\":4715:4717   */\n      0x1f\n        /* \"#utility.yul\":4711:4718   */\n      not\n        /* \"#utility.yul\":4706:4708   */\n      0x1f\n        /* \"#utility.yul\":4699:4704   */\n      dup4\n        /* \"#utility.yul\":4695:4709   */\n      add\n        /* \"#utility.yul\":4691:4719   */\n      and\n        /* \"#utility.yul\":4681:4719   */\n      swap1\n      pop\n        /* \"#utility.yul\":4623:4725   */\n      swap2\n      swap1\n      pop\n      jump\t// out\n        /* \"#utility.yul\":4731:4911   */\n    tag_207:\n        /* \"#utility.yul\":4779:4856   */\n      0x4e487b7100000000000000000000000000000000000000000000000000000000\n        /* \"#utility.yul\":4776:4777   */\n      0x00\n        /* \"#utility.yul\":4769:4857   */\n      mstore\n        /* \"#utility.yul\":4876:4880   */\n      0x41\n        /* \"#utility.yul\":4873:4874   */\n      0x04\n        /* \"#utility.yul\":4866:4881   */\n      mstore\n        /* \"#utility.yul\":4900:4904   */\n      0x24\n        /* \"#utility.yul\":4897:4898   */\n      0x00\n        /* \"#utility.yul\":4890:4905   */\n      revert\n        /* \"#utility.yul\":4917:5198   */\n    tag_208:\n        /* \"#utility.yul\":5000:5027   */\n      tag_289\n        /* \"#utility.yul\":5022:5026   */\n      dup3\n        /* \"#utility.yul\":5000:5027   */\n      tag_206\n      jump\t// in\n    tag_289:\n        /* \"#utility.yul\":4992:4998   */\n      dup2\n        /* \"#utility.yul\":4988:5028   */\n      add\n        /* \"#utility.yul\":5130:5136   */\n      dup2\n        /* \"#utility.yul\":5118:5128   */\n      dup2\n        /* \"#utility.yul\":5115:5137   */\n      lt\n        /* \"#utility.yul\":5094:5112   */\n      0xffffffffffffffff\n        /* \"#utility.yul\":5082:5092   */\n      dup3\n        /* \"#utility.yul\":5079:5113   */\n      gt\n        /* \"#utility.yul\":5076:5138   */\n      or\n        /* \"#utility.yul\":5073:5161   */\n      iszero\n      tag_290\n      jumpi\n        /* \"#utility.yul\":5141:5159   */\n      tag_291\n      tag_207\n      jump\t// in\n    tag_291:\n        /* \"#utility.yul\":5073:5161   */\n    tag_290:\n        /* \"#utility.yul\":5181:5191   */\n      dup1\n        /* \"#utility.yul\":5177:5179   */\n      0x40\n        /* \"#utility.yul\":5170:5192   */\n      mstore\n        /* \"#utility.yul\":4960:5198   */\n      pop\n        /* \"#utility.yul\":4917:5198   */\n      pop\n      pop\n      jump\t// out\n        /* \"#utility.yul\":5204:5333   */\n    tag_209:\n        /* \"#utility.yul\":5238:5244   */\n      0x00\n        /* \"#utility.yul\":5265:5285   */\n      tag_293\n      tag_186\n      jump\t// in\n    tag_293:\n        /* \"#utility.yul\":5255:5285   */\n      swap1\n      pop\n        /* \"#utility.yul\":5294:5327   */\n      tag_294\n        /* \"#utility.yul\":5322:5326   */\n      dup3\n        /* \"#utility.yul\":5314:5320   */\n      dup3\n        /* \"#utility.yul\":5294:5327   */\n      tag_208\n      jump\t// in\n    tag_294:\n        /* \"#utility.yul\":5204:5333   */\n      swap2\n      swap1\n      pop\n      jump\t// out\n        /* \"#utility.yul\":5339:5647   */\n    tag_210:\n        /* \"#utility.yul\":5401:5405   */\n      0x00\n        /* \"#utility.yul\":5491:5509   */\n      0xffffffffffffffff\n        /* \"#utility.yul\":5483:5489   */\n      dup3\n        /* \"#utility.yul\":5480:5510   */\n      gt\n        /* \"#utility.yul\":5477:5533   */\n      iszero\n      tag_296\n      jumpi\n        /* \"#utility.yul\":5513:5531   */\n      tag_297\n      tag_207\n      jump\t// in\n    tag_297:\n        /* \"#utility.yul\":5477:5533   */\n    tag_296:\n        /* \"#utility.yul\":5551:5580   */\n      tag_298\n        /* \"#utility.yul\":5573:5579   */\n      dup3\n        /* \"#utility.yul\":5551:5580   */\n      tag_206\n      jump\t// in\n    tag_298:\n        /* \"#utility.yul\":5543:5580   */\n      swap1\n      pop\n        /* \"#utility.yul\":5635:5639   */\n      0x20\n        /* \"#utility.yul\":5629:5633   */\n      dup2\n        /* \"#utility.yul\":5625:5640   */\n      add\n        /* \"#utility.yul\":5617:5640   */\n      swap1\n      pop\n        /* \"#utility.yul\":5339:5647   */\n      swap2\n      swap1\n      pop\n      jump\t// out\n        /* \"#utility.yul\":5653:5807   */\n    tag_211:\n        /* \"#utility.yul\":5737:5743   */\n      dup3\n        /* \"#utility.yul\":5732:5735   */\n      dup2\n        /* \"#utility.yul\":5727:5730   */\n      dup4\n        /* \"#utility.yul\":5714:5744   */\n      calldatacopy\n        /* \"#utility.yul\":5799:5800   */\n      0x00\n        /* \"#utility.yul\":5790:5796   */\n      dup4\n        /* \"#utility.yul\":5785:5788   */\n      dup4\n        /* \"#utility.yul\":5781:5797   */\n      add\n        /* \"#utility.yul\":5774:5801   */\n      mstore\n        /* \"#utility.yul\":5653:5807   */\n      pop\n      pop\n      pop\n      jump\t// out\n        /* \"#utility.yul\":5813:6225   */\n    tag_212:\n        /* \"#utility.yul\":5891:5896   */\n      0x00\n        /* \"#utility.yul\":5916:5982   */\n      tag_301\n        /* \"#utility.yul\":5932:5981   */\n      tag_302\n        /* \"#utility.yul\":5974:5980   */\n      dup5\n        /* \"#utility.yul\":5932:5981   */\n      tag_210\n      jump\t// in\n    tag_302:\n        /* \"#utility.yul\":5916:5982   */\n      tag_209\n      jump\t// in\n    tag_301:\n        /* \"#utility.yul\":5907:5982   */\n      swap1\n      pop\n        /* \"#utility.yul\":6005:6011   */\n      dup3\n        /* \"#utility.yul\":5998:6003   */\n      dup2\n        /* \"#utility.yul\":5991:6012   */\n      mstore\n        /* \"#utility.yul\":6043:6047   */\n      0x20\n        /* \"#utility.yul\":6036:6041   */\n      dup2\n        /* \"#utility.yul\":6032:6048   */\n      add\n        /* \"#utility.yul\":6081:6084   */\n      dup5\n        /* \"#utility.yul\":6072:6078   */\n      dup5\n        /* \"#utility.yul\":6067:6070   */\n      dup5\n        /* \"#utility.yul\":6063:6079   */\n      add\n        /* \"#utility.yul\":6060:6085   */\n      gt\n        /* \"#utility.yul\":6057:6169   */\n      iszero\n      tag_303\n      jumpi\n        /* \"#utility.yul\":6088:6167   */\n      tag_304\n      tag_205\n      jump\t// in\n    tag_304:\n        /* \"#utility.yul\":6057:6169   */\n    tag_303:\n        /* \"#utility.yul\":6178:6219   */\n      tag_305\n        /* \"#utility.yul\":6212:6218   */\n      dup5\n        /* \"#utility.yul\":6207:6210   */\n      dup3\n        /* \"#utility.yul\":6202:6205   */\n      dup6\n        /* \"#utility.yul\":6178:6219   */\n      tag_211\n      jump\t// in\n    tag_305:\n        /* \"#utility.yul\":5897:6225   */\n      pop\n        /* \"#utility.yul\":5813:6225   */\n      swap4\n      swap3\n      pop\n      pop\n      pop\n      jump\t// out\n        /* \"#utility.yul\":6245:6585   */\n    tag_213:\n        /* \"#utility.yul\":6301:6306   */\n      0x00\n        /* \"#utility.yul\":6350:6353   */\n      dup3\n        /* \"#utility.yul\":6343:6347   */\n      0x1f\n        /* \"#utility.yul\":6335:6341   */\n      dup4\n        /* \"#utility.yul\":6331:6348   */\n      add\n        /* \"#utility.yul\":6327:6354   */\n      slt\n        /* \"#utility.yul\":6317:6439   */\n      tag_307\n      jumpi\n        /* \"#utility.yul\":6358:6437   */\n      tag_308\n      tag_204\n      jump\t// in\n    tag_308:\n        /* \"#utility.yul\":6317:6439   */\n    tag_307:\n        /* \"#utility.yul\":6475:6481   */\n      dup2\n        /* \"#utility.yul\":6462:6482   */\n      calldataload\n        /* \"#utility.yul\":6500:6579   */\n      tag_309\n        /* \"#utility.yul\":6575:6578   */\n      dup5\n        /* \"#utility.yul\":6567:6573   */\n      dup3\n        /* \"#utility.yul\":6560:6564   */\n      0x20\n        /* \"#utility.yul\":6552:6558   */\n      dup7\n        /* \"#utility.yul\":6548:6565   */\n      add\n        /* \"#utility.yul\":6500:6579   */\n      tag_212\n      jump\t// in\n    tag_309:\n        /* \"#utility.yul\":6491:6579   */\n      swap2\n      pop\n        /* \"#utility.yul\":6307:6585   */\n      pop\n        /* \"#utility.yul\":6245:6585   */\n      swap3\n      swap2\n      pop\n      pop\n      jump\t// out\n        /* \"#utility.yul\":6591:6695   */\n    tag_214:\n        /* \"#utility.yul\":6636:6643   */\n      0x00\n        /* \"#utility.yul\":6665:6689   */\n      tag_311\n        /* \"#utility.yul\":6683:6688   */\n      dup3\n        /* \"#utility.yul\":6665:6689   */\n      tag_189\n      jump\t// in\n    tag_311:\n        /* \"#utility.yul\":6654:6689   */\n      swap1\n      pop\n        /* \"#utility.yul\":6591:6695   */\n      swap2\n      swap1\n      pop\n      jump\t// out\n        /* \"#utility.yul\":6701:6839   */\n    tag_215:\n        /* \"#utility.yul\":6782:6814   */\n      tag_313\n        /* \"#utility.yul\":6808:6813   */\n      dup2\n        /* \"#utility.yul\":6782:6814   */\n      tag_214\n      jump\t// in\n    tag_313:\n        /* \"#utility.yul\":6775:6780   */\n      dup2\n        /* \"#utility.yul\":6772:6815   */\n      eq\n        /* \"#utility.yul\":6762:6833   */\n      tag_314\n      jumpi\n        /* \"#utility.yul\":6829:6830   */\n      0x00\n        /* \"#utility.yul\":6826:6827   */\n      dup1\n        /* \"#utility.yul\":6819:6831   */\n      revert\n        /* \"#utility.yul\":6762:6833   */\n    tag_314:\n        /* \"#utility.yul\":6701:6839   */\n      pop\n      jump\t// out\n        /* \"#utility.yul\":6845:7000   */\n    tag_216:\n        /* \"#utility.yul\":6899:6904   */\n      0x00\n        /* \"#utility.yul\":6937:6943   */\n      dup2\n        /* \"#utility.yul\":6924:6944   */\n      calldataload\n        /* \"#utility.yul\":6915:6944   */\n      swap1\n      pop\n        /* \"#utility.yul\":6953:6994   */\n      tag_316\n        /* \"#utility.yul\":6988:6993   */\n      dup2\n        /* \"#utility.yul\":6953:6994   */\n      tag_215\n      jump\t// in\n    tag_316:\n        /* \"#utility.yul\":6845:7000   */\n      swap3\n      swap2\n      pop\n      pop\n      jump\t// out\n        /* \"#utility.yul\":7006:8147   */\n    tag_66:\n        /* \"#utility.yul\":7120:7126   */\n      0x00\n        /* \"#utility.yul\":7128:7134   */\n      dup1\n        /* \"#utility.yul\":7136:7142   */\n      0x00\n        /* \"#utility.yul\":7144:7150   */\n      dup1\n        /* \"#utility.yul\":7193:7196   */\n      0x80\n        /* \"#utility.yul\":7181:7190   */\n      dup6\n        /* \"#utility.yul\":7172:7179   */\n      dup8\n        /* \"#utility.yul\":7168:7191   */\n      sub\n        /* \"#utility.yul\":7164:7197   */\n      slt\n        /* \"#utility.yul\":7161:7281   */\n      iszero\n      tag_318\n      jumpi\n        /* \"#utility.yul\":7200:7279   */\n      tag_319\n      tag_187\n      jump\t// in\n    tag_319:\n        /* \"#utility.yul\":7161:7281   */\n    tag_318:\n        /* \"#utility.yul\":7320:7321   */\n      0x00\n        /* \"#utility.yul\":7345:7398   */\n      tag_320\n        /* \"#utility.yul\":7390:7397   */\n      dup8\n        /* \"#utility.yul\":7381:7387   */\n      dup3\n        /* \"#utility.yul\":7370:7379   */\n      dup9\n        /* \"#utility.yul\":7366:7388   */\n      add\n        /* \"#utility.yul\":7345:7398   */\n      tag_192\n      jump\t// in\n    tag_320:\n        /* \"#utility.yul\":7335:7398   */\n      swap5\n      pop\n        /* \"#utility.yul\":7291:7408   */\n      pop\n        /* \"#utility.yul\":7475:7477   */\n      0x20\n        /* \"#utility.yul\":7464:7473   */\n      dup6\n        /* \"#utility.yul\":7460:7478   */\n      add\n        /* \"#utility.yul\":7447:7479   */\n      calldataload\n        /* \"#utility.yul\":7506:7524   */\n      0xffffffffffffffff\n        /* \"#utility.yul\":7498:7504   */\n      dup2\n        /* \"#utility.yul\":7495:7525   */\n      gt\n        /* \"#utility.yul\":7492:7609   */\n      iszero\n      tag_321\n      jumpi\n        /* \"#utility.yul\":7528:7607   */\n      tag_322\n      tag_188\n      jump\t// in\n    tag_322:\n        /* \"#utility.yul\":7492:7609   */\n    tag_321:\n        /* \"#utility.yul\":7633:7696   */\n      tag_323\n        /* \"#utility.yul\":7688:7695   */\n      dup8\n        /* \"#utility.yul\":7679:7685   */\n      dup3\n        /* \"#utility.yul\":7668:7677   */\n      dup9\n        /* \"#utility.yul\":7664:7686   */\n      add\n        /* \"#utility.yul\":7633:7696   */\n      tag_213\n      jump\t// in\n    tag_323:\n        /* \"#utility.yul\":7623:7696   */\n      swap4\n      pop\n        /* \"#utility.yul\":7418:7706   */\n      pop\n        /* \"#utility.yul\":7773:7775   */\n      0x40\n        /* \"#utility.yul\":7762:7771   */\n      dup6\n        /* \"#utility.yul\":7758:7776   */\n      add\n        /* \"#utility.yul\":7745:7777   */\n      calldataload\n        /* \"#utility.yul\":7804:7822   */\n      0xffffffffffffffff\n        /* \"#utility.yul\":7796:7802   */\n      dup2\n        /* \"#utility.yul\":7793:7823   */\n      gt\n        /* \"#utility.yul\":7790:7907   */\n      iszero\n      tag_324\n      jumpi\n        /* \"#utility.yul\":7826:7905   */\n      tag_325\n      tag_188\n      jump\t// in\n    tag_325:\n        /* \"#utility.yul\":7790:7907   */\n    tag_324:\n        /* \"#utility.yul\":7931:7994   */\n      tag_326\n        /* \"#utility.yul\":7986:7993   */\n      dup8\n        /* \"#utility.yul\":7977:7983   */\n      dup3\n        /* \"#utility.yul\":7966:7975   */\n      dup9\n        /* \"#utility.yul\":7962:7984   */\n      add\n        /* \"#utility.yul\":7931:7994   */\n      tag_213\n      jump\t// in\n    tag_326:\n        /* \"#utility.yul\":7921:7994   */\n      swap3\n      pop\n        /* \"#utility.yul\":7716:8004   */\n      pop\n        /* \"#utility.yul\":8043:8045   */\n      0x60\n        /* \"#utility.yul\":8069:8130   */\n      tag_327\n        /* \"#utility.yul\":8122:8129   */\n      dup8\n        /* \"#utility.yul\":8113:8119   */\n      dup3\n        /* \"#utility.yul\":8102:8111   */\n      dup9\n        /* \"#utility.yul\":8098:8120   */\n      add\n        /* \"#utility.yul\":8069:8130   */\n      tag_216\n      jump\t// in\n    tag_327:\n        /* \"#utility.yul\":8059:8130   */\n      swap2\n      pop\n        /* \"#utility.yul\":8014:8140   */\n      pop\n        /* \"#utility.yul\":7006:8147   */\n      swap3\n      swap6\n      swap2\n      swap5\n      pop\n      swap3\n      pop\n      jump\t// out\n        /* \"#utility.yul\":8153:8333   */\n    tag_74:\n        /* \"#utility.yul\":8201:8278   */\n      0x4e487b7100000000000000000000000000000000000000000000000000000000\n        /* \"#utility.yul\":8198:8199   */\n      0x00\n        /* \"#utility.yul\":8191:8279   */\n      mstore\n        /* \"#utility.yul\":8298:8302   */\n      0x32\n        /* \"#utility.yul\":8295:8296   */\n      0x04\n        /* \"#utility.yul\":8288:8303   */\n      mstore\n        /* \"#utility.yul\":8322:8326   */\n      0x24\n        /* \"#utility.yul\":8319:8320   */\n      0x00\n        /* \"#utility.yul\":8312:8327   */\n      revert\n        /* \"#utility.yul\":8339:8465   */\n    tag_217:\n        /* \"#utility.yul\":8406:8413   */\n      0x00\n        /* \"#utility.yul\":8435:8459   */\n      tag_330\n        /* \"#utility.yul\":8453:8458   */\n      dup3\n        /* \"#utility.yul\":8435:8459   */\n      tag_190\n      jump\t// in\n    tag_330:\n        /* \"#utility.yul\":8424:8459   */\n      swap1\n      pop\n        /* \"#utility.yul\":8339:8465   */\n      swap2\n      swap1\n      pop\n      jump\t// out\n        /* \"#utility.yul\":8471:8653   */\n    tag_218:\n        /* \"#utility.yul\":8574:8628   */\n      tag_332\n        /* \"#utility.yul\":8622:8627   */\n      dup2\n        /* \"#utility.yul\":8574:8628   */\n      tag_217\n      jump\t// in\n    tag_332:\n        /* \"#utility.yul\":8567:8572   */\n      dup2\n        /* \"#utility.yul\":8564:8629   */\n      eq\n        /* \"#utility.yul\":8554:8647   */\n      tag_333\n      jumpi\n        /* \"#utility.yul\":8643:8644   */\n      0x00\n        /* \"#utility.yul\":8640:8641   */\n      dup1\n        /* \"#utility.yul\":8633:8645   */\n      revert\n        /* \"#utility.yul\":8554:8647   */\n    tag_333:\n        /* \"#utility.yul\":8471:8653   */\n      pop\n      jump\t// out\n        /* \"#utility.yul\":8659:8862   */\n    tag_219:\n        /* \"#utility.yul\":8746:8751   */\n      0x00\n        /* \"#utility.yul\":8777:8783   */\n      dup2\n        /* \"#utility.yul\":8771:8784   */\n      mload\n        /* \"#utility.yul\":8762:8784   */\n      swap1\n      pop\n        /* \"#utility.yul\":8793:8856   */\n      tag_335\n        /* \"#utility.yul\":8850:8855   */\n      dup2\n        /* \"#utility.yul\":8793:8856   */\n      tag_218\n      jump\t// in\n    tag_335:\n        /* \"#utility.yul\":8659:8862   */\n      swap3\n      swap2\n      pop\n      pop\n      jump\t// out\n        /* \"#utility.yul\":8868:9279   */\n    tag_79:\n        /* \"#utility.yul\":8968:8974   */\n      0x00\n        /* \"#utility.yul\":9017:9019   */\n      0x20\n        /* \"#utility.yul\":9005:9014   */\n      dup3\n        /* \"#utility.yul\":8996:9003   */\n      dup5\n        /* \"#utility.yul\":8992:9015   */\n      sub\n        /* \"#utility.yul\":8988:9020   */\n      slt\n        /* \"#utility.yul\":8985:9104   */\n      iszero\n      tag_337\n      jumpi\n        /* \"#utility.yul\":9023:9102   */\n      tag_338\n      tag_187\n      jump\t// in\n    tag_338:\n        /* \"#utility.yul\":8985:9104   */\n    tag_337:\n        /* \"#utility.yul\":9143:9144   */\n      0x00\n        /* \"#utility.yul\":9168:9262   */\n      tag_339\n        /* \"#utility.yul\":9254:9261   */\n      dup5\n        /* \"#utility.yul\":9245:9251   */\n      dup3\n        /* \"#utility.yul\":9234:9243   */\n      dup6\n        /* \"#utility.yul\":9230:9252   */\n      add\n        /* \"#utility.yul\":9168:9262   */\n      tag_219\n      jump\t// in\n    tag_339:\n        /* \"#utility.yul\":9158:9262   */\n      swap2\n      pop\n        /* \"#utility.yul\":9114:9272   */\n      pop\n        /* \"#utility.yul\":8868:9279   */\n      swap3\n      swap2\n      pop\n      pop\n      jump\t// out\n        /* \"#utility.yul\":9285:9428   */\n    tag_220:\n        /* \"#utility.yul\":9342:9347   */\n      0x00\n        /* \"#utility.yul\":9373:9379   */\n      dup2\n        /* \"#utility.yul\":9367:9380   */\n      mload\n        /* \"#utility.yul\":9358:9380   */\n      swap1\n      pop\n        /* \"#utility.yul\":9389:9422   */\n      tag_341\n        /* \"#utility.yul\":9416:9421   */\n      dup2\n        /* \"#utility.yul\":9389:9422   */\n      tag_191\n      jump\t// in\n    tag_341:\n        /* \"#utility.yul\":9285:9428   */\n      swap3\n      swap2\n      pop\n      pop\n      jump\t// out\n        /* \"#utility.yul\":9434:9785   */\n    tag_86:\n        /* \"#utility.yul\":9504:9510   */\n      0x00\n        /* \"#utility.yul\":9553:9555   */\n      0x20\n        /* \"#utility.yul\":9541:9550   */\n      dup3\n        /* \"#utility.yul\":9532:9539   */\n      dup5\n        /* \"#utility.yul\":9528:9551   */\n      sub\n        /* \"#utility.yul\":9524:9556   */\n      slt\n        /* \"#utility.yul\":9521:9640   */\n      iszero\n      tag_343\n      jumpi\n        /* \"#utility.yul\":9559:9638   */\n      tag_344\n      tag_187\n      jump\t// in\n    tag_344:\n        /* \"#utility.yul\":9521:9640   */\n    tag_343:\n        /* \"#utility.yul\":9679:9680   */\n      0x00\n        /* \"#utility.yul\":9704:9768   */\n      tag_345\n        /* \"#utility.yul\":9760:9767   */\n      dup5\n        /* \"#utility.yul\":9751:9757   */\n      dup3\n        /* \"#utility.yul\":9740:9749   */\n      dup6\n        /* \"#utility.yul\":9736:9758   */\n      add\n        /* \"#utility.yul\":9704:9768   */\n      tag_220\n      jump\t// in\n    tag_345:\n        /* \"#utility.yul\":9694:9768   */\n      swap2\n      pop\n        /* \"#utility.yul\":9650:9778   */\n      pop\n        /* \"#utility.yul\":9434:9785   */\n      swap3\n      swap2\n      pop\n      pop\n      jump\t// out\n        /* \"#utility.yul\":9791:9971   */\n    tag_221:\n        /* \"#utility.yul\":9839:9916   */\n      0x4e487b7100000000000000000000000000000000000000000000000000000000\n        /* \"#utility.yul\":9836:9837   */\n      0x00\n        /* \"#utility.yul\":9829:9917   */\n      mstore\n        /* \"#utility.yul\":9936:9940   */\n      0x11\n        /* \"#utility.yul\":9933:9934   */\n      0x04\n        /* \"#utility.yul\":9926:9941   */\n      mstore\n        /* \"#utility.yul\":9960:9964   */\n      0x24\n        /* \"#utility.yul\":9957:9958   */\n      0x00\n        /* \"#utility.yul\":9950:9965   */\n      revert\n        /* \"#utility.yul\":9977:10210   */\n    tag_115:\n        /* \"#utility.yul\":10016:10019   */\n      0x00\n        /* \"#utility.yul\":10039:10063   */\n      tag_348\n        /* \"#utility.yul\":10057:10062   */\n      dup3\n        /* \"#utility.yul\":10039:10063   */\n      tag_200\n      jump\t// in\n    tag_348:\n        /* \"#utility.yul\":10030:10063   */\n      swap2\n      pop\n        /* \"#utility.yul\":10085:10151   */\n      0xffffffffffffffffffffffffffffffffffffffffffffffffffffffffffffffff\n        /* \"#utility.yul\":10078:10083   */\n      dup3\n        /* \"#utility.yul\":10075:10152   */\n      eq\n        /* \"#utility.yul\":10072:10175   */\n      iszero\n      tag_349\n      jumpi\n        /* \"#utility.yul\":10155:10173   */\n      tag_350\n      tag_221\n      jump\t// in\n    tag_350:\n        /* \"#utility.yul\":10072:10175   */\n    tag_349:\n        /* \"#utility.yul\":10202:10203   */\n      0x01\n        /* \"#utility.yul\":10195:10200   */\n      dup3\n        /* \"#utility.yul\":10191:10204   */\n      add\n        /* \"#utility.yul\":10184:10204   */\n      swap1\n      pop\n        /* \"#utility.yul\":9977:10210   */\n      swap2\n      swap1\n      pop\n      jump\t// out\n        /* \"#utility.yul\":10216:10334   */\n    tag_222:\n        /* \"#utility.yul\":10303:10327   */\n      tag_352\n        /* \"#utility.yul\":10321:10326   */\n      dup2\n        /* \"#utility.yul\":10303:10327   */\n      tag_190\n      jump\t// in\n    tag_352:\n        /* \"#utility.yul\":10298:10301   */\n      dup3\n        /* \"#utility.yul\":10291:10328   */\n      mstore\n        /* \"#utility.yul\":10216:10334   */\n      pop\n      pop\n      jump\t// out\n        /* \"#utility.yul\":10340:10439   */\n    tag_223:\n        /* \"#utility.yul\":10392:10398   */\n      0x00\n        /* \"#utility.yul\":10426:10431   */\n      dup2\n        /* \"#utility.yul\":10420:10432   */\n      mload\n        /* \"#utility.yul\":10410:10432   */\n      swap1\n      pop\n        /* \"#utility.yul\":10340:10439   */\n      swap2\n      swap1\n      pop\n      jump\t// out\n        /* \"#utility.yul\":10445:10614   */\n    tag_224:\n        /* \"#utility.yul\":10529:10540   */\n      0x00\n        /* \"#utility.yul\":10563:10569   */\n      dup3\n        /* \"#utility.yul\":10558:10561   */\n      dup3\n        /* \"#utility.yul\":10551:10570   */\n      mstore\n        /* \"#utility.yul\":10603:10607   */\n      0x20\n        /* \"#utility.yul\":10598:10601   */\n      dup3\n        /* \"#utility.yul\":10594:10608   */\n      add\n        /* \"#utility.yul\":10579:10608   */\n      swap1\n      pop\n        /* \"#utility.yul\":10445:10614   */\n      swap3\n      swap2\n      pop\n      pop\n      jump\t// out\n        /* \"#utility.yul\":10620:10927   */\n    tag_225:\n        /* \"#utility.yul\":10688:10689   */\n      0x00\n        /* \"#utility.yul\":10698:10811   */\n    tag_356:\n        /* \"#utility.yul\":10712:10718   */\n      dup4\n        /* \"#utility.yul\":10709:10710   */\n      dup2\n        /* \"#utility.yul\":10706:10719   */\n      lt\n        /* \"#utility.yul\":10698:10811   */\n      iszero\n      tag_358\n      jumpi\n        /* \"#utility.yul\":10797:10798   */\n      dup1\n        /* \"#utility.yul\":10792:10795   */\n      dup3\n        /* \"#utility.yul\":10788:10799   */\n      add\n        /* \"#utility.yul\":10782:10800   */\n      mload\n        /* \"#utility.yul\":10778:10779   */\n      dup2\n        /* \"#utility.yul\":10773:10776   */\n      dup5\n        /* \"#utility.yul\":10769:10780   */\n      add\n        /* \"#utility.yul\":10762:10801   */\n      mstore\n        /* \"#utility.yul\":10734:10736   */\n      0x20\n        /* \"#utility.yul\":10731:10732   */\n      dup2\n        /* \"#utility.yul\":10727:10737   */\n      add\n        /* \"#utility.yul\":10722:10737   */\n      swap1\n      pop\n        /* \"#utility.yul\":10698:10811   */\n      jump(tag_356)\n    tag_358:\n        /* \"#utility.yul\":10829:10835   */\n      dup4\n        /* \"#utility.yul\":10826:10827   */\n      dup2\n        /* \"#utility.yul\":10823:10836   */\n      gt\n        /* \"#utility.yul\":10820:10921   */\n      iszero\n      tag_359\n      jumpi\n        /* \"#utility.yul\":10909:10910   */\n      0x00\n        /* \"#utility.yul\":10900:10906   */\n      dup5\n        /* \"#utility.yul\":10895:10898   */\n      dup5\n        /* \"#utility.yul\":10891:10907   */\n      add\n        /* \"#utility.yul\":10884:10911   */\n      mstore\n        /* \"#utility.yul\":10820:10921   */\n    tag_359:\n        /* \"#utility.yul\":10669:10927   */\n      pop\n        /* \"#utility.yul\":10620:10927   */\n      pop\n      pop\n      pop\n      jump\t// out\n        /* \"#utility.yul\":10933:11297   */\n    tag_226:\n        /* \"#utility.yul\":11021:11024   */\n      0x00\n        /* \"#utility.yul\":11049:11088   */\n      tag_361\n        /* \"#utility.yul\":11082:11087   */\n      dup3\n        /* \"#utility.yul\":11049:11088   */\n      tag_223\n      jump\t// in\n    tag_361:\n        /* \"#utility.yul\":11104:11175   */\n      tag_362\n        /* \"#utility.yul\":11168:11174   */\n      dup2\n        /* \"#utility.yul\":11163:11166   */\n      dup6\n        /* \"#utility.yul\":11104:11175   */\n      tag_224\n      jump\t// in\n    tag_362:\n        /* \"#utility.yul\":11097:11175   */\n      swap4\n      pop\n        /* \"#utility.yul\":11184:11236   */\n      tag_363\n        /* \"#utility.yul\":11229:11235   */\n      dup2\n        /* \"#utility.yul\":11224:11227   */\n      dup6\n        /* \"#utility.yul\":11217:11221   */\n      0x20\n        /* \"#utility.yul\":11210:11215   */\n      dup7\n        /* \"#utility.yul\":11206:11222   */\n      add\n        /* \"#utility.yul\":11184:11236   */\n      tag_225\n      jump\t// in\n    tag_363:\n        /* \"#utility.yul\":11261:11290   */\n      tag_364\n        /* \"#utility.yul\":11283:11289   */\n      dup2\n        /* \"#utility.yul\":11261:11290   */\n      tag_206\n      jump\t// in\n    tag_364:\n        /* \"#utility.yul\":11256:11259   */\n      dup5\n        /* \"#utility.yul\":11252:11291   */\n      add\n        /* \"#utility.yul\":11245:11291   */\n      swap2\n      pop\n        /* \"#utility.yul\":11025:11297   */\n      pop\n        /* \"#utility.yul\":10933:11297   */\n      swap3\n      swap2\n      pop\n      pop\n      jump\t// out\n        /* \"#utility.yul\":11303:11363   */\n    tag_227:\n        /* \"#utility.yul\":11331:11334   */\n      0x00\n        /* \"#utility.yul\":11352:11357   */\n      dup2\n        /* \"#utility.yul\":11345:11357   */\n      swap1\n      pop\n        /* \"#utility.yul\":11303:11363   */\n      swap2\n      swap1\n      pop\n      jump\t// out\n        /* \"#utility.yul\":11369:11511   */\n    tag_228:\n        /* \"#utility.yul\":11419:11428   */\n      0x00\n        /* \"#utility.yul\":11452:11505   */\n      tag_367\n        /* \"#utility.yul\":11470:11504   */\n      tag_368\n        /* \"#utility.yul\":11479:11503   */\n      tag_369\n        /* \"#utility.yul\":11497:11502   */\n      dup5\n        /* \"#utility.yul\":11479:11503   */\n      tag_189\n      jump\t// in\n    tag_369:\n        /* \"#utility.yul\":11470:11504   */\n      tag_227\n      jump\t// in\n    tag_368:\n        /* \"#utility.yul\":11452:11505   */\n      tag_189\n      jump\t// in\n    tag_367:\n        /* \"#utility.yul\":11439:11505   */\n      swap1\n      pop\n        /* \"#utility.yul\":11369:11511   */\n      swap2\n      swap1\n      pop\n      jump\t// out\n        /* \"#utility.yul\":11517:11643   */\n    tag_229:\n        /* \"#utility.yul\":11567:11576   */\n      0x00\n        /* \"#utility.yul\":11600:11637   */\n      tag_371\n        /* \"#utility.yul\":11631:11636   */\n      dup3\n        /* \"#utility.yul\":11600:11637   */\n      tag_228\n      jump\t// in\n    tag_371:\n        /* \"#utility.yul\":11587:11637   */\n      swap1\n      pop\n        /* \"#utility.yul\":11517:11643   */\n      swap2\n      swap1\n      pop\n      jump\t// out\n        /* \"#utility.yul\":11649:11783   */\n    tag_230:\n        /* \"#utility.yul\":11707:11716   */\n      0x00\n        /* \"#utility.yul\":11740:11777   */\n      tag_373\n        /* \"#utility.yul\":11771:11776   */\n      dup3\n        /* \"#utility.yul\":11740:11777   */\n      tag_229\n      jump\t// in\n    tag_373:\n        /* \"#utility.yul\":11727:11777   */\n      swap1\n      pop\n        /* \"#utility.yul\":11649:11783   */\n      swap2\n      swap1\n      pop\n      jump\t// out\n        /* \"#utility.yul\":11789:11936   */\n    tag_231:\n        /* \"#utility.yul\":11884:11929   */\n      tag_375\n        /* \"#utility.yul\":11923:11928   */\n      dup2\n        /* \"#utility.yul\":11884:11929   */\n      tag_230\n      jump\t// in\n    tag_375:\n        /* \"#utility.yul\":11879:11882   */\n      dup3\n        /* \"#utility.yul\":11872:11930   */\n      mstore\n        /* \"#utility.yul\":11789:11936   */\n      pop\n      pop\n      jump\t// out\n        /* \"#utility.yul\":11942:12915   */\n    tag_123:\n        /* \"#utility.yul\":12223:12227   */\n      0x00\n        /* \"#utility.yul\":12261:12264   */\n      0xc0\n        /* \"#utility.yul\":12250:12259   */\n      dup3\n        /* \"#utility.yul\":12246:12265   */\n      add\n        /* \"#utility.yul\":12238:12265   */\n      swap1\n      pop\n        /* \"#utility.yul\":12275:12346   */\n      tag_377\n        /* \"#utility.yul\":12343:12344   */\n      0x00\n        /* \"#utility.yul\":12332:12341   */\n      dup4\n        /* \"#utility.yul\":12328:12345   */\n      add\n        /* \"#utility.yul\":12319:12325   */\n      dup10\n        /* \"#utility.yul\":12275:12346   */\n      tag_222\n      jump\t// in\n    tag_377:\n        /* \"#utility.yul\":12356:12428   */\n      tag_378\n        /* \"#utility.yul\":12424:12426   */\n      0x20\n        /* \"#utility.yul\":12413:12422   */\n      dup4\n        /* \"#utility.yul\":12409:12427   */\n      add\n        /* \"#utility.yul\":12400:12406   */\n      dup9\n        /* \"#utility.yul\":12356:12428   */\n      tag_222\n      jump\t// in\n    tag_378:\n        /* \"#utility.yul\":12475:12484   */\n      dup2\n        /* \"#utility.yul\":12469:12473   */\n      dup2\n        /* \"#utility.yul\":12465:12485   */\n      sub\n        /* \"#utility.yul\":12460:12462   */\n      0x40\n        /* \"#utility.yul\":12449:12458   */\n      dup4\n        /* \"#utility.yul\":12445:12463   */\n      add\n        /* \"#utility.yul\":12438:12486   */\n      mstore\n        /* \"#utility.yul\":12503:12581   */\n      tag_379\n        /* \"#utility.yul\":12576:12580   */\n      dup2\n        /* \"#utility.yul\":12567:12573   */\n      dup8\n        /* \"#utility.yul\":12503:12581   */\n      tag_226\n      jump\t// in\n    tag_379:\n        /* \"#utility.yul\":12495:12581   */\n      swap1\n      pop\n        /* \"#utility.yul\":12628:12637   */\n      dup2\n        /* \"#utility.yul\":12622:12626   */\n      dup2\n        /* \"#utility.yul\":12618:12638   */\n      sub\n        /* \"#utility.yul\":12613:12615   */\n      0x60\n        /* \"#utility.yul\":12602:12611   */\n      dup4\n        /* \"#utility.yul\":12598:12616   */\n      add\n        /* \"#utility.yul\":12591:12639   */\n      mstore\n        /* \"#utility.yul\":12656:12734   */\n      tag_380\n        /* \"#utility.yul\":12729:12733   */\n      dup2\n        /* \"#utility.yul\":12720:12726   */\n      dup7\n        /* \"#utility.yul\":12656:12734   */\n      tag_226\n      jump\t// in\n    tag_380:\n        /* \"#utility.yul\":12648:12734   */\n      swap1\n      pop\n        /* \"#utility.yul\":12744:12825   */\n      tag_381\n        /* \"#utility.yul\":12820:12823   */\n      0x80\n        /* \"#utility.yul\":12809:12818   */\n      dup4\n        /* \"#utility.yul\":12805:12824   */\n      add\n        /* \"#utility.yul\":12796:12802   */\n      dup6\n        /* \"#utility.yul\":12744:12825   */\n      tag_231\n      jump\t// in\n    tag_381:\n        /* \"#utility.yul\":12835:12908   */\n      tag_382\n        /* \"#utility.yul\":12903:12906   */\n      0xa0\n        /* \"#utility.yul\":12892:12901   */\n      dup4\n        /* \"#utility.yul\":12888:12907   */\n      add\n        /* \"#utility.yul\":12879:12885   */\n      dup5\n        /* \"#utility.yul\":12835:12908   */\n      tag_203\n      jump\t// in\n    tag_382:\n        /* \"#utility.yul\":11942:12915   */\n      swap8\n      swap7\n      pop\n      pop\n      pop\n      pop\n      pop\n      pop\n      pop\n      jump\t// out\n        /* \"#utility.yul\":12921:13141   */\n    tag_232:\n        /* \"#utility.yul\":13061:13095   */\n      0x4f70656e20636f6e747261637420696e646578206f7574206f6620626f756e64\n        /* \"#utility.yul\":13057:13058   */\n      0x00\n        /* \"#utility.yul\":13049:13055   */\n      dup3\n        /* \"#utility.yul\":13045:13059   */\n      add\n        /* \"#utility.yul\":13038:13096   */\n      mstore\n        /* \"#utility.yul\":13130:13133   */\n      0x7300000000000000000000000000000000000000000000000000000000000000\n        /* \"#utility.yul\":13125:13127   */\n      0x20\n        /* \"#utility.yul\":13117:13123   */\n      dup3\n        /* \"#utility.yul\":13113:13128   */\n      add\n        /* \"#utility.yul\":13106:13134   */\n      mstore\n        /* \"#utility.yul\":12921:13141   */\n      pop\n      jump\t// out\n        /* \"#utility.yul\":13147:13513   */\n    tag_233:\n        /* \"#utility.yul\":13289:13292   */\n      0x00\n        /* \"#utility.yul\":13310:13377   */\n      tag_385\n        /* \"#utility.yul\":13374:13376   */\n      0x21\n        /* \"#utility.yul\":13369:13372   */\n      dup4\n        /* \"#utility.yul\":13310:13377   */\n      tag_224\n      jump\t// in\n    tag_385:\n        /* \"#utility.yul\":13303:13377   */\n      swap2\n      pop\n        /* \"#utility.yul\":13386:13479   */\n      tag_386\n        /* \"#utility.yul\":13475:13478   */\n      dup3\n        /* \"#utility.yul\":13386:13479   */\n      tag_232\n      jump\t// in\n    tag_386:\n        /* \"#utility.yul\":13504:13506   */\n      0x40\n        /* \"#utility.yul\":13499:13502   */\n      dup3\n        /* \"#utility.yul\":13495:13507   */\n      add\n        /* \"#utility.yul\":13488:13507   */\n      swap1\n      pop\n        /* \"#utility.yul\":13147:13513   */\n      swap2\n      swap1\n      pop\n      jump\t// out\n        /* \"#utility.yul\":13519:13938   */\n    tag_132:\n        /* \"#utility.yul\":13685:13689   */\n      0x00\n        /* \"#utility.yul\":13723:13725   */\n      0x20\n        /* \"#utility.yul\":13712:13721   */\n      dup3\n        /* \"#utility.yul\":13708:13726   */\n      add\n        /* \"#utility.yul\":13700:13726   */\n      swap1\n      pop\n        /* \"#utility.yul\":13772:13781   */\n      dup2\n        /* \"#utility.yul\":13766:13770   */\n      dup2\n        /* \"#utility.yul\":13762:13782   */\n      sub\n        /* \"#utility.yul\":13758:13759   */\n      0x00\n        /* \"#utility.yul\":13747:13756   */\n      dup4\n        /* \"#utility.yul\":13743:13760   */\n      add\n        /* \"#utility.yul\":13736:13783   */\n      mstore\n        /* \"#utility.yul\":13800:13931   */\n      tag_388\n        /* \"#utility.yul\":13926:13930   */\n      dup2\n        /* \"#utility.yul\":13800:13931   */\n      tag_233\n      jump\t// in\n    tag_388:\n        /* \"#utility.yul\":13792:13931   */\n      swap1\n      pop\n        /* \"#utility.yul\":13519:13938   */\n      swap2\n      swap1\n      pop\n      jump\t// out\n        /* \"#utility.yul\":13944:14135   */\n    tag_137:\n        /* \"#utility.yul\":13984:13988   */\n      0x00\n        /* \"#utility.yul\":14004:14024   */\n      tag_390\n        /* \"#utility.yul\":14022:14023   */\n      dup3\n        /* \"#utility.yul\":14004:14024   */\n      tag_200\n      jump\t// in\n    tag_390:\n        /* \"#utility.yul\":13999:14024   */\n      swap2\n      pop\n        /* \"#utility.yul\":14038:14058   */\n      tag_391\n        /* \"#utility.yul\":14056:14057   */\n      dup4\n        /* \"#utility.yul\":14038:14058   */\n      tag_200\n      jump\t// in\n    tag_391:\n        /* \"#utility.yul\":14033:14058   */\n      swap3\n      pop\n        /* \"#utility.yul\":14077:14078   */\n      dup3\n        /* \"#utility.yul\":14074:14075   */\n      dup3\n        /* \"#utility.yul\":14071:14079   */\n      lt\n        /* \"#utility.yul\":14068:14102   */\n      iszero\n      tag_392\n      jumpi\n        /* \"#utility.yul\":14082:14100   */\n      tag_393\n      tag_221\n      jump\t// in\n    tag_393:\n        /* \"#utility.yul\":14068:14102   */\n    tag_392:\n        /* \"#utility.yul\":14127:14128   */\n      dup3\n        /* \"#utility.yul\":14124:14125   */\n      dup3\n        /* \"#utility.yul\":14120:14129   */\n      sub\n        /* \"#utility.yul\":14112:14129   */\n      swap1\n      pop\n        /* \"#utility.yul\":13944:14135   */\n      swap3\n      swap2\n      pop\n      pop\n      jump\t// out\n        /* \"#utility.yul\":14141:14446   */\n    tag_139:\n        /* \"#utility.yul\":14181:14184   */\n      0x00\n        /* \"#utility.yul\":14200:14220   */\n      tag_395\n        /* \"#utility.yul\":14218:14219   */\n      dup3\n        /* \"#utility.yul\":14200:14220   */\n      tag_200\n      jump\t// in\n    tag_395:\n        /* \"#utility.yul\":14195:14220   */\n      swap2\n      pop\n        /* \"#utility.yul\":14234:14254   */\n      tag_396\n        /* \"#utility.yul\":14252:14253   */\n      dup4\n        /* \"#utility.yul\":14234:14254   */\n      tag_200\n      jump\t// in\n    tag_396:\n        /* \"#utility.yul\":14229:14254   */\n      swap3\n      pop\n        /* \"#utility.yul\":14388:14389   */\n      dup3\n        /* \"#utility.yul\":14320:14386   */\n      0xffffffffffffffffffffffffffffffffffffffffffffffffffffffffffffffff\n        /* \"#utility.yul\":14316:14390   */\n      sub\n        /* \"#utility.yul\":14313:14314   */\n      dup3\n        /* \"#utility.yul\":14310:14391   */\n      gt\n        /* \"#utility.yul\":14307:14414   */\n      iszero\n      tag_397\n      jumpi\n        /* \"#utility.yul\":14394:14412   */\n      tag_398\n      tag_221\n      jump\t// in\n    tag_398:\n        /* \"#utility.yul\":14307:14414   */\n    tag_397:\n        /* \"#utility.yul\":14438:14439   */\n      dup3\n        /* \"#utility.yul\":14435:14436   */\n      dup3\n        /* \"#utility.yul\":14431:14440   */\n      add\n        /* \"#utility.yul\":14424:14440   */\n      swap1\n      pop\n        /* \"#utility.yul\":14141:14446   */\n      swap3\n      swap2\n      pop\n      pop\n      jump\t// out\n        /* \"#utility.yul\":14452:14632   */\n    tag_154:\n        /* \"#utility.yul\":14500:14577   */\n      0x4e487b7100000000000000000000000000000000000000000000000000000000\n        /* \"#utility.yul\":14497:14498   */\n      0x00\n        /* \"#utility.yul\":14490:14578   */\n      mstore\n        /* \"#utility.yul\":14597:14601   */\n      0x31\n        /* \"#utility.yul\":14594:14595   */\n      0x04\n        /* \"#utility.yul\":14587:14602   */\n      mstore\n        /* \"#utility.yul\":14621:14625   */\n      0x24\n        /* \"#utility.yul\":14618:14619   */\n      0x00\n        /* \"#utility.yul\":14611:14626   */\n      revert\n    stop\n\n    sub_0: assembly {\n            /* \"Contracts\":4908:6301  contract AccountabilityContract {... */\n          mstore(0x40, 0x80)\n            /* \"Contracts\":5187:5556  constructor(address _creator, address _referee, string memory _name, string memory _description, address _failureRecipient, uint _amount) payable {... */\n          mload(0x40)\n          sub(codesize, bytecodeSize)\n          dup1\n          bytecodeSize\n          dup4\n          codecopy\n          dup2\n          dup2\n          add\n          0x40\n          mstore\n          dup2\n          add\n          swap1\n          tag_1\n          swap2\n          swap1\n          tag_2\n          jump\t// in\n        tag_1:\n            /* \"Contracts\":5353:5361  _creator */\n          dup6\n            /* \"Contracts\":5343:5350  creator */\n          0x00\n          dup1\n            /* \"Contracts\":5343:5361  creator = _creator */\n          0x0100\n          exp\n          dup2\n          sload\n          dup2\n          0xffffffffffffffffffffffffffffffffffffffff\n          mul\n          not\n          and\n          swap1\n          dup4\n          0xffffffffffffffffffffffffffffffffffffffff\n          and\n          mul\n          or\n          swap1\n          sstore\n          pop\n            /* \"Contracts\":5381:5389  _referee */\n          dup5\n            /* \"Contracts\":5371:5378  referee */\n          0x01\n          0x00\n            /* \"Contracts\":5371:5389  referee = _referee */\n          0x0100\n          exp\n          dup2\n          sload\n          dup2\n          0xffffffffffffffffffffffffffffffffffffffff\n          mul\n          not\n          and\n          swap1\n          dup4\n          0xffffffffffffffffffffffffffffffffffffffff\n          and\n          mul\n          or\n          swap1\n          sstore\n          pop\n            /* \"Contracts\":5406:5411  _name */\n          dup4\n            /* \"Contracts\":5399:5403  name */\n          0x02\n            /* \"Contracts\":5399:5411  name = _name */\n          swap1\n          dup1\n          mload\n          swap1\n          0x20\n          add\n          swap1\n          tag_5\n          swap3\n          swap2\n          swap1\n          tag_6\n          jump\t// in\n        tag_5:\n          pop\n            /* \"Contracts\":5435:5447  _description */\n          dup3\n            /* \"Contracts\":5421:5432  description */\n          0x03\n            /* \"Contracts\":5421:5447  description = _description */\n          swap1\n          dup1\n          mload\n          swap1\n          0x20\n          add\n          swap1\n          tag_7\n          swap3\n          swap2\n          swap1\n          tag_6\n          jump\t// in\n        tag_7:\n          pop\n            /* \"Contracts\":5476:5493  _failureRecipient */\n          dup2\n            /* \"Contracts\":5457:5473  failureRecipient */\n          0x04\n          0x00\n            /* \"Contracts\":5457:5493  failureRecipient = _failureRecipient */\n          0x0100\n          exp\n          dup2\n          sload\n          dup2\n          0xffffffffffffffffffffffffffffffffffffffff\n          mul\n          not\n          and\n          swap1\n          dup4\n          0xffffffffffffffffffffffffffffffffffffffff\n          and\n          mul\n          or\n          swap1\n          sstore\n          pop\n            /* \"Contracts\":5512:5519  _amount */\n          dup1\n            /* \"Contracts\":5503:5509  amount */\n          0x05\n            /* \"Contracts\":5503:5519  amount = _amount */\n          dup2\n          swap1\n          sstore\n          pop\n            /* \"Contracts\":5538:5549  Status.OPEN */\n          0x00\n            /* \"Contracts\":5529:5535  status */\n          0x06\n          0x00\n            /* \"Contracts\":5529:5549  status = Status.OPEN */\n          0x0100\n          exp\n          dup2\n          sload\n          dup2\n          0xff\n          mul\n          not\n          and\n          swap1\n          dup4\n          0x02\n          dup2\n          gt\n          iszero\n          tag_8\n          jumpi\n          tag_9\n          tag_10\n          jump\t// in\n        tag_9:\n        tag_8:\n          mul\n          or\n          swap1\n          sstore\n          pop\n            /* \"Contracts\":5187:5556  constructor(address _creator, address _referee, string memory _name, string memory _description, address _failureRecipient, uint _amount) payable {... */\n          pop\n          pop\n          pop\n          pop\n          pop\n          pop\n            /* \"Contracts\":4908:6301  contract AccountabilityContract {... */\n          jump(tag_11)\n        tag_6:\n          dup3\n          dup1\n          sload\n          tag_12\n          swap1\n          tag_13\n          jump\t// in\n        tag_12:\n          swap1\n          0x00\n          mstore\n          keccak256(0x00, 0x20)\n          swap1\n          0x1f\n          add\n          0x20\n          swap1\n          div\n          dup2\n          add\n          swap3\n          dup3\n          tag_15\n          jumpi\n          0x00\n          dup6\n          sstore\n          jump(tag_14)\n        tag_15:\n          dup3\n          0x1f\n          lt\n          tag_16\n          jumpi\n          dup1\n          mload\n          not(0xff)\n          and\n          dup4\n          dup1\n          add\n          or\n          dup6\n          sstore\n          jump(tag_14)\n        tag_16:\n          dup3\n          dup1\n          add\n          0x01\n          add\n          dup6\n          sstore\n          dup3\n          iszero\n          tag_14\n          jumpi\n          swap2\n          dup3\n          add\n        tag_17:\n          dup3\n          dup2\n          gt\n          iszero\n          tag_18\n          jumpi\n          dup3\n          mload\n          dup3\n          sstore\n          swap2\n          0x20\n          add\n          swap2\n          swap1\n          0x01\n          add\n          swap1\n          jump(tag_17)\n        tag_18:\n        tag_14:\n          pop\n          swap1\n          pop\n          tag_19\n          swap2\n          swap1\n          tag_20\n          jump\t// in\n        tag_19:\n          pop\n          swap1\n          jump\t// out\n        tag_20:\n        tag_21:\n          dup1\n          dup3\n          gt\n          iszero\n          tag_22\n          jumpi\n          0x00\n          dup2\n          0x00\n          swap1\n          sstore\n          pop\n          0x01\n          add\n          jump(tag_21)\n        tag_22:\n          pop\n          swap1\n          jump\t// out\n            /* \"#utility.yul\":7:82   */\n        tag_23:\n            /* \"#utility.yul\":40:46   */\n          0x00\n            /* \"#utility.yul\":73:75   */\n          0x40\n            /* \"#utility.yul\":67:76   */\n          mload\n            /* \"#utility.yul\":57:76   */\n          swap1\n          pop\n            /* \"#utility.yul\":7:82   */\n          swap1\n          jump\t// out\n            /* \"#utility.yul\":88:205   */\n        tag_24:\n            /* \"#utility.yul\":197:198   */\n          0x00\n            /* \"#utility.yul\":194:195   */\n          dup1\n            /* \"#utility.yul\":187:199   */\n          revert\n            /* \"#utility.yul\":211:328   */\n        tag_25:\n            /* \"#utility.yul\":320:321   */\n          0x00\n            /* \"#utility.yul\":317:318   */\n          dup1\n            /* \"#utility.yul\":310:322   */\n          revert\n            /* \"#utility.yul\":334:460   */\n        tag_26:\n            /* \"#utility.yul\":371:378   */\n          0x00\n            /* \"#utility.yul\":411:453   */\n          0xffffffffffffffffffffffffffffffffffffffff\n            /* \"#utility.yul\":404:409   */\n          dup3\n            /* \"#utility.yul\":400:454   */\n          and\n            /* \"#utility.yul\":389:454   */\n          swap1\n          pop\n            /* \"#utility.yul\":334:460   */\n          swap2\n          swap1\n          pop\n          jump\t// out\n            /* \"#utility.yul\":466:562   */\n        tag_27:\n            /* \"#utility.yul\":503:510   */\n          0x00\n            /* \"#utility.yul\":532:556   */\n          tag_50\n            /* \"#utility.yul\":550:555   */\n          dup3\n            /* \"#utility.yul\":532:556   */\n          tag_26\n          jump\t// in\n        tag_50:\n            /* \"#utility.yul\":521:556   */\n          swap1\n          pop\n            /* \"#utility.yul\":466:562   */\n          swap2\n          swap1\n          pop\n          jump\t// out\n            /* \"#utility.yul\":568:690   */\n        tag_28:\n            /* \"#utility.yul\":641:665   */\n          tag_52\n            /* \"#utility.yul\":659:664   */\n          dup2\n            /* \"#utility.yul\":641:665   */\n          tag_27\n          jump\t// in\n        tag_52:\n            /* \"#utility.yul\":634:639   */\n          dup2\n            /* \"#utility.yul\":631:666   */\n          eq\n            /* \"#utility.yul\":621:684   */\n          tag_53\n          jumpi\n            /* \"#utility.yul\":680:681   */\n          0x00\n            /* \"#utility.yul\":677:678   */\n          dup1\n            /* \"#utility.yul\":670:682   */\n          revert\n            /* \"#utility.yul\":621:684   */\n        tag_53:\n            /* \"#utility.yul\":568:690   */\n          pop\n          jump\t// out\n            /* \"#utility.yul\":696:839   */\n        tag_29:\n            /* \"#utility.yul\":753:758   */\n          0x00\n            /* \"#utility.yul\":784:790   */\n          dup2\n            /* \"#utility.yul\":778:791   */\n          mload\n            /* \"#utility.yul\":769:791   */\n          swap1\n          pop\n            /* \"#utility.yul\":800:833   */\n          tag_55\n            /* \"#utility.yul\":827:832   */\n          dup2\n            /* \"#utility.yul\":800:833   */\n          tag_28\n          jump\t// in\n        tag_55:\n            /* \"#utility.yul\":696:839   */\n          swap3\n          swap2\n          pop\n          pop\n          jump\t// out\n            /* \"#utility.yul\":845:962   */\n        tag_30:\n            /* \"#utility.yul\":954:955   */\n          0x00\n            /* \"#utility.yul\":951:952   */\n          dup1\n            /* \"#utility.yul\":944:956   */\n          revert\n            /* \"#utility.yul\":968:1085   */\n        tag_31:\n            /* \"#utility.yul\":1077:1078   */\n          0x00\n            /* \"#utility.yul\":1074:1075   */\n          dup1\n            /* \"#utility.yul\":1067:1079   */\n          revert\n            /* \"#utility.yul\":1091:1193   */\n        tag_32:\n            /* \"#utility.yul\":1132:1138   */\n          0x00\n            /* \"#utility.yul\":1183:1185   */\n          0x1f\n            /* \"#utility.yul\":1179:1186   */\n          not\n            /* \"#utility.yul\":1174:1176   */\n          0x1f\n            /* \"#utility.yul\":1167:1172   */\n          dup4\n            /* \"#utility.yul\":1163:1177   */\n          add\n            /* \"#utility.yul\":1159:1187   */\n          and\n            /* \"#utility.yul\":1149:1187   */\n          swap1\n          pop\n            /* \"#utility.yul\":1091:1193   */\n          swap2\n          swap1\n          pop\n          jump\t// out\n            /* \"#utility.yul\":1199:1379   */\n        tag_33:\n            /* \"#utility.yul\":1247:1324   */\n          0x4e487b7100000000000000000000000000000000000000000000000000000000\n            /* \"#utility.yul\":1244:1245   */\n          0x00\n            /* \"#utility.yul\":1237:1325   */\n          mstore\n            /* \"#utility.yul\":1344:1348   */\n          0x41\n            /* \"#utility.yul\":1341:1342   */\n          0x04\n            /* \"#utility.yul\":1334:1349   */\n          mstore\n            /* \"#utility.yul\":1368:1372   */\n          0x24\n            /* \"#utility.yul\":1365:1366   */\n          0x00\n            /* \"#utility.yul\":1358:1373   */\n          revert\n            /* \"#utility.yul\":1385:1666   */\n        tag_34:\n            /* \"#utility.yul\":1468:1495   */\n          tag_61\n            /* \"#utility.yul\":1490:1494   */\n          dup3\n            /* \"#utility.yul\":1468:1495   */\n          tag_32\n          jump\t// in\n        tag_61:\n            /* \"#utility.yul\":1460:1466   */\n          dup2\n            /* \"#utility.yul\":1456:1496   */\n          add\n            /* \"#utility.yul\":1598:1604   */\n          dup2\n            /* \"#utility.yul\":1586:1596   */\n          dup2\n            /* \"#utility.yul\":1583:1605   */\n          lt\n            /* \"#utility.yul\":1562:1580   */\n          0xffffffffffffffff\n            /* \"#utility.yul\":1550:1560   */\n          dup3\n            /* \"#utility.yul\":1547:1581   */\n          gt\n            /* \"#utility.yul\":1544:1606   */\n          or\n            /* \"#utility.yul\":1541:1629   */\n          iszero\n          tag_62\n          jumpi\n            /* \"#utility.yul\":1609:1627   */\n          tag_63\n          tag_33\n          jump\t// in\n        tag_63:\n            /* \"#utility.yul\":1541:1629   */\n        tag_62:\n            /* \"#utility.yul\":1649:1659   */\n          dup1\n            /* \"#utility.yul\":1645:1647   */\n          0x40\n            /* \"#utility.yul\":1638:1660   */\n          mstore\n            /* \"#utility.yul\":1428:1666   */\n          pop\n            /* \"#utility.yul\":1385:1666   */\n          pop\n          pop\n          jump\t// out\n            /* \"#utility.yul\":1672:1801   */\n        tag_35:\n            /* \"#utility.yul\":1706:1712   */\n          0x00\n            /* \"#utility.yul\":1733:1753   */\n          tag_65\n          tag_23\n          jump\t// in\n        tag_65:\n            /* \"#utility.yul\":1723:1753   */\n          swap1\n          pop\n            /* \"#utility.yul\":1762:1795   */\n          tag_66\n            /* \"#utility.yul\":1790:1794   */\n          dup3\n            /* \"#utility.yul\":1782:1788   */\n          dup3\n            /* \"#utility.yul\":1762:1795   */\n          tag_34\n          jump\t// in\n        tag_66:\n            /* \"#utility.yul\":1672:1801   */\n          swap2\n          swap1\n          pop\n          jump\t// out\n            /* \"#utility.yul\":1807:2115   */\n        tag_36:\n            /* \"#utility.yul\":1869:1873   */\n          0x00\n            /* \"#utility.yul\":1959:1977   */\n          0xffffffffffffffff\n            /* \"#utility.yul\":1951:1957   */\n          dup3\n            /* \"#utility.yul\":1948:1978   */\n          gt\n            /* \"#utility.yul\":1945:2001   */\n          iszero\n          tag_68\n          jumpi\n            /* \"#utility.yul\":1981:1999   */\n          tag_69\n          tag_33\n          jump\t// in\n        tag_69:\n            /* \"#utility.yul\":1945:2001   */\n        tag_68:\n            /* \"#utility.yul\":2019:2048   */\n          tag_70\n            /* \"#utility.yul\":2041:2047   */\n          dup3\n            /* \"#utility.yul\":2019:2048   */\n          tag_32\n          jump\t// in\n        tag_70:\n            /* \"#utility.yul\":2011:2048   */\n          swap1\n          pop\n            /* \"#utility.yul\":2103:2107   */\n          0x20\n            /* \"#utility.yul\":2097:2101   */\n          dup2\n            /* \"#utility.yul\":2093:2108   */\n          add\n            /* \"#utility.yul\":2085:2108   */\n          swap1\n          pop\n            /* \"#utility.yul\":1807:2115   */\n          swap2\n          swap1\n          pop\n          jump\t// out\n            /* \"#utility.yul\":2121:2428   */\n        tag_37:\n            /* \"#utility.yul\":2189:2190   */\n          0x00\n            /* \"#utility.yul\":2199:2312   */\n        tag_72:\n            /* \"#utility.yul\":2213:2219   */\n          dup4\n            /* \"#utility.yul\":2210:2211   */\n          dup2\n            /* \"#utility.yul\":2207:2220   */\n          lt\n            /* \"#utility.yul\":2199:2312   */\n          iszero\n          tag_74\n          jumpi\n            /* \"#utility.yul\":2298:2299   */\n          dup1\n            /* \"#utility.yul\":2293:2296   */\n          dup3\n            /* \"#utility.yul\":2289:2300   */\n          add\n            /* \"#utility.yul\":2283:2301   */\n          mload\n            /* \"#utility.yul\":2279:2280   */\n          dup2\n            /* \"#utility.yul\":2274:2277   */\n          dup5\n            /* \"#utility.yul\":2270:2281   */\n          add\n            /* \"#utility.yul\":2263:2302   */\n          mstore\n            /* \"#utility.yul\":2235:2237   */\n          0x20\n            /* \"#utility.yul\":2232:2233   */\n          dup2\n            /* \"#utility.yul\":2228:2238   */\n          add\n            /* \"#utility.yul\":2223:2238   */\n          swap1\n          pop\n            /* \"#utility.yul\":2199:2312   */\n          jump(tag_72)\n        tag_74:\n            /* \"#utility.yul\":2330:2336   */\n          dup4\n            /* \"#utility.yul\":2327:2328   */\n          dup2\n            /* \"#utility.yul\":2324:2337   */\n          gt\n            /* \"#utility.yul\":2321:2422   */\n          iszero\n          tag_75\n          jumpi\n            /* \"#utility.yul\":2410:2411   */\n          0x00\n            /* \"#utility.yul\":2401:2407   */\n          dup5\n            /* \"#utility.yul\":2396:2399   */\n          dup5\n            /* \"#utility.yul\":2392:2408   */\n          add\n            /* \"#utility.yul\":2385:2412   */\n          mstore\n            /* \"#utility.yul\":2321:2422   */\n        tag_75:\n            /* \"#utility.yul\":2170:2428   */\n          pop\n            /* \"#utility.yul\":2121:2428   */\n          pop\n          pop\n          pop\n          jump\t// out\n            /* \"#utility.yul\":2434:2855   */\n        tag_38:\n            /* \"#utility.yul\":2523:2528   */\n          0x00\n            /* \"#utility.yul\":2548:2614   */\n          tag_77\n            /* \"#utility.yul\":2564:2613   */\n          tag_78\n            /* \"#utility.yul\":2606:2612   */\n          dup5\n            /* \"#utility.yul\":2564:2613   */\n          tag_36\n          jump\t// in\n        tag_78:\n            /* \"#utility.yul\":2548:2614   */\n          tag_35\n          jump\t// in\n        tag_77:\n            /* \"#utility.yul\":2539:2614   */\n          swap1\n          pop\n            /* \"#utility.yul\":2637:2643   */\n          dup3\n            /* \"#utility.yul\":2630:2635   */\n          dup2\n            /* \"#utility.yul\":2623:2644   */\n          mstore\n            /* \"#utility.yul\":2675:2679   */\n          0x20\n            /* \"#utility.yul\":2668:2673   */\n          dup2\n            /* \"#utility.yul\":2664:2680   */\n          add\n            /* \"#utility.yul\":2713:2716   */\n          dup5\n            /* \"#utility.yul\":2704:2710   */\n          dup5\n            /* \"#utility.yul\":2699:2702   */\n          dup5\n            /* \"#utility.yul\":2695:2711   */\n          add\n            /* \"#utility.yul\":2692:2717   */\n          gt\n            /* \"#utility.yul\":2689:2801   */\n          iszero\n          tag_79\n          jumpi\n            /* \"#utility.yul\":2720:2799   */\n          tag_80\n          tag_31\n          jump\t// in\n        tag_80:\n            /* \"#utility.yul\":2689:2801   */\n        tag_79:\n            /* \"#utility.yul\":2810:2849   */\n          tag_81\n            /* \"#utility.yul\":2842:2848   */\n          dup5\n            /* \"#utility.yul\":2837:2840   */\n          dup3\n            /* \"#utility.yul\":2832:2835   */\n          dup6\n            /* \"#utility.yul\":2810:2849   */\n          tag_37\n          jump\t// in\n        tag_81:\n            /* \"#utility.yul\":2529:2855   */\n          pop\n            /* \"#utility.yul\":2434:2855   */\n          swap4\n          swap3\n          pop\n          pop\n          pop\n          jump\t// out\n            /* \"#utility.yul\":2875:3230   */\n        tag_39:\n            /* \"#utility.yul\":2942:2947   */\n          0x00\n            /* \"#utility.yul\":2991:2994   */\n          dup3\n            /* \"#utility.yul\":2984:2988   */\n          0x1f\n            /* \"#utility.yul\":2976:2982   */\n          dup4\n            /* \"#utility.yul\":2972:2989   */\n          add\n            /* \"#utility.yul\":2968:2995   */\n          slt\n            /* \"#utility.yul\":2958:3080   */\n          tag_83\n          jumpi\n            /* \"#utility.yul\":2999:3078   */\n          tag_84\n          tag_30\n          jump\t// in\n        tag_84:\n            /* \"#utility.yul\":2958:3080   */\n        tag_83:\n            /* \"#utility.yul\":3109:3115   */\n          dup2\n            /* \"#utility.yul\":3103:3116   */\n          mload\n            /* \"#utility.yul\":3134:3224   */\n          tag_85\n            /* \"#utility.yul\":3220:3223   */\n          dup5\n            /* \"#utility.yul\":3212:3218   */\n          dup3\n            /* \"#utility.yul\":3205:3209   */\n          0x20\n            /* \"#utility.yul\":3197:3203   */\n          dup7\n            /* \"#utility.yul\":3193:3210   */\n          add\n            /* \"#utility.yul\":3134:3224   */\n          tag_38\n          jump\t// in\n        tag_85:\n            /* \"#utility.yul\":3125:3224   */\n          swap2\n          pop\n            /* \"#utility.yul\":2948:3230   */\n          pop\n            /* \"#utility.yul\":2875:3230   */\n          swap3\n          swap2\n          pop\n          pop\n          jump\t// out\n            /* \"#utility.yul\":3236:3313   */\n        tag_40:\n            /* \"#utility.yul\":3273:3280   */\n          0x00\n            /* \"#utility.yul\":3302:3307   */\n          dup2\n            /* \"#utility.yul\":3291:3307   */\n          swap1\n          pop\n            /* \"#utility.yul\":3236:3313   */\n          swap2\n          swap1\n          pop\n          jump\t// out\n            /* \"#utility.yul\":3319:3441   */\n        tag_41:\n            /* \"#utility.yul\":3392:3416   */\n          tag_88\n            /* \"#utility.yul\":3410:3415   */\n          dup2\n            /* \"#utility.yul\":3392:3416   */\n          tag_40\n          jump\t// in\n        tag_88:\n            /* \"#utility.yul\":3385:3390   */\n          dup2\n            /* \"#utility.yul\":3382:3417   */\n          eq\n            /* \"#utility.yul\":3372:3435   */\n          tag_89\n          jumpi\n            /* \"#utility.yul\":3431:3432   */\n          0x00\n            /* \"#utility.yul\":3428:3429   */\n          dup1\n            /* \"#utility.yul\":3421:3433   */\n          revert\n            /* \"#utility.yul\":3372:3435   */\n        tag_89:\n            /* \"#utility.yul\":3319:3441   */\n          pop\n          jump\t// out\n            /* \"#utility.yul\":3447:3590   */\n        tag_42:\n            /* \"#utility.yul\":3504:3509   */\n          0x00\n            /* \"#utility.yul\":3535:3541   */\n          dup2\n            /* \"#utility.yul\":3529:3542   */\n          mload\n            /* \"#utility.yul\":3520:3542   */\n          swap1\n          pop\n            /* \"#utility.yul\":3551:3584   */\n          tag_91\n            /* \"#utility.yul\":3578:3583   */\n          dup2\n            /* \"#utility.yul\":3551:3584   */\n          tag_41\n          jump\t// in\n        tag_91:\n            /* \"#utility.yul\":3447:3590   */\n          swap3\n          swap2\n          pop\n          pop\n          jump\t// out\n            /* \"#utility.yul\":3596:5076   */\n        tag_2:\n            /* \"#utility.yul\":3731:3737   */\n          0x00\n            /* \"#utility.yul\":3739:3745   */\n          dup1\n            /* \"#utility.yul\":3747:3753   */\n          0x00\n            /* \"#utility.yul\":3755:3761   */\n          dup1\n            /* \"#utility.yul\":3763:3769   */\n          0x00\n            /* \"#utility.yul\":3771:3777   */\n          dup1\n            /* \"#utility.yul\":3820:3823   */\n          0xc0\n            /* \"#utility.yul\":3808:3817   */\n          dup8\n            /* \"#utility.yul\":3799:3806   */\n          dup10\n            /* \"#utility.yul\":3795:3818   */\n          sub\n            /* \"#utility.yul\":3791:3824   */\n          slt\n            /* \"#utility.yul\":3788:3908   */\n          iszero\n          tag_93\n          jumpi\n            /* \"#utility.yul\":3827:3906   */\n          tag_94\n          tag_24\n          jump\t// in\n        tag_94:\n            /* \"#utility.yul\":3788:3908   */\n        tag_93:\n            /* \"#utility.yul\":3947:3948   */\n          0x00\n            /* \"#utility.yul\":3972:4036   */\n          tag_95\n            /* \"#utility.yul\":4028:4035   */\n          dup10\n            /* \"#utility.yul\":4019:4025   */\n          dup3\n            /* \"#utility.yul\":4008:4017   */\n          dup11\n            /* \"#utility.yul\":4004:4026   */\n          add\n            /* \"#utility.yul\":3972:4036   */\n          tag_29\n          jump\t// in\n        tag_95:\n            /* \"#utility.yul\":3962:4036   */\n          swap7\n          pop\n            /* \"#utility.yul\":3918:4046   */\n          pop\n            /* \"#utility.yul\":4085:4087   */\n          0x20\n            /* \"#utility.yul\":4111:4175   */\n          tag_96\n            /* \"#utility.yul\":4167:4174   */\n          dup10\n            /* \"#utility.yul\":4158:4164   */\n          dup3\n            /* \"#utility.yul\":4147:4156   */\n          dup11\n            /* \"#utility.yul\":4143:4165   */\n          add\n            /* \"#utility.yul\":4111:4175   */\n          tag_29\n          jump\t// in\n        tag_96:\n            /* \"#utility.yul\":4101:4175   */\n          swap6\n          pop\n            /* \"#utility.yul\":4056:4185   */\n          pop\n            /* \"#utility.yul\":4245:4247   */\n          0x40\n            /* \"#utility.yul\":4234:4243   */\n          dup8\n            /* \"#utility.yul\":4230:4248   */\n          add\n            /* \"#utility.yul\":4224:4249   */\n          mload\n            /* \"#utility.yul\":4276:4294   */\n          0xffffffffffffffff\n            /* \"#utility.yul\":4268:4274   */\n          dup2\n            /* \"#utility.yul\":4265:4295   */\n          gt\n            /* \"#utility.yul\":4262:4379   */\n          iszero\n          tag_97\n          jumpi\n            /* \"#utility.yul\":4298:4377   */\n          tag_98\n          tag_25\n          jump\t// in\n        tag_98:\n            /* \"#utility.yul\":4262:4379   */\n        tag_97:\n            /* \"#utility.yul\":4403:4477   */\n          tag_99\n            /* \"#utility.yul\":4469:4476   */\n          dup10\n            /* \"#utility.yul\":4460:4466   */\n          dup3\n            /* \"#utility.yul\":4449:4458   */\n          dup11\n            /* \"#utility.yul\":4445:4467   */\n          add\n            /* \"#utility.yul\":4403:4477   */\n          tag_39\n          jump\t// in\n        tag_99:\n            /* \"#utility.yul\":4393:4477   */\n          swap5\n          pop\n            /* \"#utility.yul\":4195:4487   */\n          pop\n            /* \"#utility.yul\":4547:4549   */\n          0x60\n            /* \"#utility.yul\":4536:4545   */\n          dup8\n            /* \"#utility.yul\":4532:4550   */\n          add\n            /* \"#utility.yul\":4526:4551   */\n          mload\n            /* \"#utility.yul\":4578:4596   */\n          0xffffffffffffffff\n            /* \"#utility.yul\":4570:4576   */\n          dup2\n            /* \"#utility.yul\":4567:4597   */\n          gt\n            /* \"#utility.yul\":4564:4681   */\n          iszero\n          tag_100\n          jumpi\n            /* \"#utility.yul\":4600:4679   */\n          tag_101\n          tag_25\n          jump\t// in\n        tag_101:\n            /* \"#utility.yul\":4564:4681   */\n        tag_100:\n            /* \"#utility.yul\":4705:4779   */\n          tag_102\n            /* \"#utility.yul\":4771:4778   */\n          dup10\n            /* \"#utility.yul\":4762:4768   */\n          dup3\n            /* \"#utility.yul\":4751:4760   */\n          dup11\n            /* \"#utility.yul\":4747:4769   */\n          add\n            /* \"#utility.yul\":4705:4779   */\n          tag_39\n          jump\t// in\n        tag_102:\n            /* \"#utility.yul\":4695:4779   */\n          swap4\n          pop\n            /* \"#utility.yul\":4497:4789   */\n          pop\n            /* \"#utility.yul\":4828:4831   */\n          0x80\n            /* \"#utility.yul\":4855:4919   */\n          tag_103\n            /* \"#utility.yul\":4911:4918   */\n          dup10\n            /* \"#utility.yul\":4902:4908   */\n          dup3\n            /* \"#utility.yul\":4891:4900   */\n          dup11\n            /* \"#utility.yul\":4887:4909   */\n          add\n            /* \"#utility.yul\":4855:4919   */\n          tag_29\n          jump\t// in\n        tag_103:\n            /* \"#utility.yul\":4845:4919   */\n          swap3\n          pop\n            /* \"#utility.yul\":4799:4929   */\n          pop\n            /* \"#utility.yul\":4968:4971   */\n          0xa0\n            /* \"#utility.yul\":4995:5059   */\n          tag_104\n            /* \"#utility.yul\":5051:5058   */\n          dup10\n            /* \"#utility.yul\":5042:5048   */\n          dup3\n            /* \"#utility.yul\":5031:5040   */\n          dup11\n            /* \"#utility.yul\":5027:5049   */\n          add\n            /* \"#utility.yul\":4995:5059   */\n          tag_42\n          jump\t// in\n        tag_104:\n            /* \"#utility.yul\":4985:5059   */\n          swap2\n          pop\n            /* \"#utility.yul\":4939:5069   */\n          pop\n            /* \"#utility.yul\":3596:5076   */\n          swap3\n          swap6\n          pop\n          swap3\n          swap6\n          pop\n          swap3\n          swap6\n          jump\t// out\n            /* \"#utility.yul\":5082:5262   */\n        tag_10:\n            /* \"#utility.yul\":5130:5207   */\n          0x4e487b7100000000000000000000000000000000000000000000000000000000\n            /* \"#utility.yul\":5127:5128   */\n          0x00\n            /* \"#utility.yul\":5120:5208   */\n          mstore\n            /* \"#utility.yul\":5227:5231   */\n          0x21\n            /* \"#utility.yul\":5224:5225   */\n          0x04\n            /* \"#utility.yul\":5217:5232   */\n          mstore\n            /* \"#utility.yul\":5251:5255   */\n          0x24\n            /* \"#utility.yul\":5248:5249   */\n          0x00\n            /* \"#utility.yul\":5241:5256   */\n          revert\n            /* \"#utility.yul\":5268:5448   */\n        tag_43:\n            /* \"#utility.yul\":5316:5393   */\n          0x4e487b7100000000000000000000000000000000000000000000000000000000\n            /* \"#utility.yul\":5313:5314   */\n          0x00\n            /* \"#utility.yul\":5306:5394   */\n          mstore\n            /* \"#utility.yul\":5413:5417   */\n          0x22\n            /* \"#utility.yul\":5410:5411   */\n          0x04\n            /* \"#utility.yul\":5403:5418   */\n          mstore\n            /* \"#utility.yul\":5437:5441   */\n          0x24\n            /* \"#utility.yul\":5434:5435   */\n          0x00\n            /* \"#utility.yul\":5427:5442   */\n          revert\n            /* \"#utility.yul\":5454:5774   */\n        tag_13:\n            /* \"#utility.yul\":5498:5504   */\n          0x00\n            /* \"#utility.yul\":5535:5536   */\n          0x02\n            /* \"#utility.yul\":5529:5533   */\n          dup3\n            /* \"#utility.yul\":5525:5537   */\n          div\n            /* \"#utility.yul\":5515:5537   */\n          swap1\n          pop\n            /* \"#utility.yul\":5582:5583   */\n          0x01\n            /* \"#utility.yul\":5576:5580   */\n          dup3\n            /* \"#utility.yul\":5572:5584   */\n          and\n            /* \"#utility.yul\":5603:5621   */\n          dup1\n            /* \"#utility.yul\":5593:5674   */\n          tag_108\n          jumpi\n            /* \"#utility.yul\":5659:5663   */\n          0x7f\n            /* \"#utility.yul\":5651:5657   */\n          dup3\n            /* \"#utility.yul\":5647:5664   */\n          and\n            /* \"#utility.yul\":5637:5664   */\n          swap2\n          pop\n            /* \"#utility.yul\":5593:5674   */\n        tag_108:\n            /* \"#utility.yul\":5721:5723   */\n          0x20\n            /* \"#utility.yul\":5713:5719   */\n          dup3\n            /* \"#utility.yul\":5710:5724   */\n          lt\n            /* \"#utility.yul\":5690:5708   */\n          dup2\n            /* \"#utility.yul\":5687:5725   */\n          eq\n            /* \"#utility.yul\":5684:5768   */\n          iszero\n          tag_109\n          jumpi\n            /* \"#utility.yul\":5740:5758   */\n          tag_110\n          tag_43\n          jump\t// in\n        tag_110:\n            /* \"#utility.yul\":5684:5768   */\n        tag_109:\n            /* \"#utility.yul\":5505:5774   */\n          pop\n            /* \"#utility.yul\":5454:5774   */\n          swap2\n          swap1\n          pop\n          jump\t// out\n            /* \"Contracts\":4908:6301  contract AccountabilityContract {... */\n        tag_11:\n          dataSize(sub_0)\n          dup1\n          dataOffset(sub_0)\n          0x00\n          codecopy\n          0x00\n          return\n        stop\n\n        sub_0: assembly {\n                /* \"Contracts\":4908:6301  contract AccountabilityContract {... */\n              mstore(0x40, 0x80)\n              jumpi(tag_1, lt(calldatasize, 0x04))\n              shr(0xe0, calldataload(0x00))\n              dup1\n              0x3b1bebd1\n              gt\n              tag_11\n              jumpi\n              dup1\n              0x3b1bebd1\n              eq\n              tag_6\n              jumpi\n              dup1\n              0x4177fe51\n              eq\n              tag_7\n              jumpi\n              dup1\n              0x7284e416\n              eq\n              tag_8\n              jumpi\n              dup1\n              0xaa8c217c\n              eq\n              tag_9\n              jumpi\n              dup1\n              0xb4fedc11\n              eq\n              tag_10\n              jumpi\n              jump(tag_1)\n            tag_11:\n              dup1\n              0x02d05d3f\n              eq\n              tag_2\n              jumpi\n              dup1\n              0x06fdde03\n              eq\n              tag_3\n              jumpi\n              dup1\n              0x200d2ed2\n              eq\n              tag_4\n              jumpi\n              dup1\n              0x2d398fa6\n              eq\n              tag_5\n              jumpi\n            tag_1:\n              0x00\n              dup1\n              revert\n                /* \"Contracts\":4988:5010  address public creator */\n            tag_2:\n              callvalue\n              dup1\n              iszero\n              tag_12\n              jumpi\n              0x00\n              dup1\n              revert\n            tag_12:\n              pop\n              tag_13\n              tag_14\n              jump\t// in\n            tag_13:\n              mload(0x40)\n              tag_15\n              swap2\n              swap1\n              tag_16\n              jump\t// in\n            tag_15:\n              mload(0x40)\n              dup1\n              swap2\n              sub\n              swap1\n              return\n                /* \"Contracts\":5044:5062  string public name */\n            tag_3:\n              callvalue\n              dup1\n              iszero\n              tag_17\n              jumpi\n              0x00\n              dup1\n              revert\n            tag_17:\n              pop\n              tag_18\n              tag_19\n              jump\t// in\n            tag_18:\n              mload(0x40)\n              tag_20\n              swap2\n              swap1\n              tag_21\n              jump\t// in\n            tag_20:\n              mload(0x40)\n              dup1\n              swap2\n              sub\n              swap1\n              return\n                /* \"Contracts\":5160:5180  Status public status */\n            tag_4:\n              callvalue\n              dup1\n              iszero\n              tag_22\n              jumpi\n              0x00\n              dup1\n              revert\n            tag_22:\n              pop\n              tag_23\n              tag_24\n              jump\t// in\n            tag_23:\n              mload(0x40)\n              tag_25\n              swap2\n              swap1\n              tag_26\n              jump\t// in\n            tag_25:\n              mload(0x40)\n              dup1\n              swap2\n              sub\n              swap1\n              return\n                /* \"Contracts\":5688:6007  function failContract() public payable restricted returns (AccountabilityContract) {... */\n            tag_5:\n              tag_27\n              tag_28\n              jump\t// in\n            tag_27:\n              mload(0x40)\n              tag_29\n              swap2\n              swap1\n              tag_30\n              jump\t// in\n            tag_29:\n              mload(0x40)\n              dup1\n              swap2\n              sub\n              swap1\n              return\n                /* \"Contracts\":5016:5038  address public referee */\n            tag_6:\n              callvalue\n              dup1\n              iszero\n              tag_31\n              jumpi\n              0x00\n              dup1\n              revert\n            tag_31:\n              pop\n              tag_32\n              tag_33\n              jump\t// in\n            tag_32:\n              mload(0x40)\n              tag_34\n              swap2\n              swap1\n              tag_16\n              jump\t// in\n            tag_34:\n              mload(0x40)\n              dup1\n              swap2\n              sub\n              swap1\n              return\n                /* \"Contracts\":5099:5130  address public failureRecipient */\n            tag_7:\n              callvalue\n              dup1\n              iszero\n              tag_35\n              jumpi\n              0x00\n              dup1\n              revert\n            tag_35:\n              pop\n              tag_36\n              tag_37\n              jump\t// in\n            tag_36:\n              mload(0x40)\n              tag_38\n              swap2\n              swap1\n              tag_16\n              jump\t// in\n            tag_38:\n              mload(0x40)\n              dup1\n              swap2\n              sub\n              swap1\n              return\n                /* \"Contracts\":5068:5093  string public description */\n            tag_8:\n              callvalue\n              dup1\n              iszero\n              tag_39\n              jumpi\n              0x00\n              dup1\n              revert\n            tag_39:\n              pop\n              tag_40\n              tag_41\n              jump\t// in\n            tag_40:\n              mload(0x40)\n              tag_42\n              swap2\n              swap1\n              tag_21\n              jump\t// in\n            tag_42:\n              mload(0x40)\n              dup1\n              swap2\n              sub\n              swap1\n              return\n                /* \"Contracts\":5136:5154  uint public amount */\n            tag_9:\n              callvalue\n              dup1\n              iszero\n              tag_43\n              jumpi\n              0x00\n              dup1\n              revert\n            tag_43:\n              pop\n              tag_44\n              tag_45\n              jump\t// in\n            tag_44:\n              mload(0x40)\n              tag_46\n              swap2\n              swap1\n              tag_47\n              jump\t// in\n            tag_46:\n              mload(0x40)\n              dup1\n              swap2\n              sub\n              swap1\n              return\n                /* \"Contracts\":6014:6299  function completeContract() public payable restricted returns (AccountabilityContract) {... */\n            tag_10:\n              tag_48\n              tag_49\n              jump\t// in\n            tag_48:\n              mload(0x40)\n              tag_50\n              swap2\n              swap1\n              tag_30\n              jump\t// in\n            tag_50:\n              mload(0x40)\n              dup1\n              swap2\n              sub\n              swap1\n              return\n                /* \"Contracts\":4988:5010  address public creator */\n            tag_14:\n              0x00\n              dup1\n              sload\n              swap1\n              0x0100\n              exp\n              swap1\n              div\n              0xffffffffffffffffffffffffffffffffffffffff\n              and\n              dup2\n              jump\t// out\n                /* \"Contracts\":5044:5062  string public name */\n            tag_19:\n              0x02\n              dup1\n              sload\n              tag_51\n              swap1\n              tag_52\n              jump\t// in\n            tag_51:\n              dup1\n              0x1f\n              add\n              0x20\n              dup1\n              swap2\n              div\n              mul\n              0x20\n              add\n              mload(0x40)\n              swap1\n              dup2\n              add\n              0x40\n              mstore\n              dup1\n              swap3\n              swap2\n              swap1\n              dup2\n              dup2\n              mstore\n              0x20\n              add\n              dup3\n              dup1\n              sload\n              tag_53\n              swap1\n              tag_52\n              jump\t// in\n            tag_53:\n              dup1\n              iszero\n              tag_54\n              jumpi\n              dup1\n              0x1f\n              lt\n              tag_55\n              jumpi\n              0x0100\n              dup1\n              dup4\n              sload\n              div\n              mul\n              dup4\n              mstore\n              swap2\n              0x20\n              add\n              swap2\n              jump(tag_54)\n            tag_55:\n              dup3\n              add\n              swap2\n              swap1\n              0x00\n              mstore\n              keccak256(0x00, 0x20)\n              swap1\n            tag_56:\n              dup2\n              sload\n              dup2\n              mstore\n              swap1\n              0x01\n              add\n              swap1\n              0x20\n              add\n              dup1\n              dup4\n              gt\n              tag_56\n              jumpi\n              dup3\n              swap1\n              sub\n              0x1f\n              and\n              dup3\n              add\n              swap2\n            tag_54:\n              pop\n              pop\n              pop\n              pop\n              pop\n              dup2\n              jump\t// out\n                /* \"Contracts\":5160:5180  Status public status */\n            tag_24:\n              0x06\n              0x00\n              swap1\n              sload\n              swap1\n              0x0100\n              exp\n              swap1\n              div\n              0xff\n              and\n              dup2\n              jump\t// out\n                /* \"Contracts\":5688:6007  function failContract() public payable restricted returns (AccountabilityContract) {... */\n            tag_28:\n                /* \"Contracts\":5747:5769  AccountabilityContract */\n              0x00\n                /* \"Contracts\":5612:5623  Status.OPEN */\n              dup1\n                /* \"Contracts\":5602:5623  status == Status.OPEN */\n              0x02\n              dup2\n              gt\n              iszero\n              tag_58\n              jumpi\n              tag_59\n              tag_60\n              jump\t// in\n            tag_59:\n            tag_58:\n                /* \"Contracts\":5602:5608  status */\n              0x06\n              0x00\n              swap1\n              sload\n              swap1\n              0x0100\n              exp\n              swap1\n              div\n              0xff\n              and\n                /* \"Contracts\":5602:5623  status == Status.OPEN */\n              0x02\n              dup2\n              gt\n              iszero\n              tag_61\n              jumpi\n              tag_62\n              tag_60\n              jump\t// in\n            tag_62:\n            tag_61:\n              eq\n                /* \"Contracts\":5594:5664  require(status == Status.OPEN, \"Contract status is not equal to open\") */\n              tag_63\n              jumpi\n              mload(0x40)\n              0x08c379a000000000000000000000000000000000000000000000000000000000\n              dup2\n              mstore\n              0x04\n              add\n              tag_64\n              swap1\n              tag_65\n              jump\t// in\n            tag_64:\n              mload(0x40)\n              dup1\n              swap2\n              sub\n              swap1\n              revert\n            tag_63:\n                /* \"Contracts\":5802:5809  referee */\n              0x01\n              0x00\n              swap1\n              sload\n              swap1\n              0x0100\n              exp\n              swap1\n              div\n              0xffffffffffffffffffffffffffffffffffffffff\n              and\n                /* \"Contracts\":5789:5809  tx.origin == referee */\n              0xffffffffffffffffffffffffffffffffffffffff\n              and\n                /* \"Contracts\":5789:5798  tx.origin */\n              origin\n                /* \"Contracts\":5789:5809  tx.origin == referee */\n              0xffffffffffffffffffffffffffffffffffffffff\n              and\n              eq\n                /* \"Contracts\":5789:5833  tx.origin == referee || tx.origin == creator */\n              dup1\n              tag_67\n              jumpi\n              pop\n                /* \"Contracts\":5826:5833  creator */\n              0x00\n              dup1\n              sload\n              swap1\n              0x0100\n              exp\n              swap1\n              div\n              0xffffffffffffffffffffffffffffffffffffffff\n              and\n                /* \"Contracts\":5813:5833  tx.origin == creator */\n              0xffffffffffffffffffffffffffffffffffffffff\n              and\n                /* \"Contracts\":5813:5822  tx.origin */\n              origin\n                /* \"Contracts\":5813:5833  tx.origin == creator */\n              0xffffffffffffffffffffffffffffffffffffffff\n              and\n              eq\n                /* \"Contracts\":5789:5833  tx.origin == referee || tx.origin == creator */\n            tag_67:\n                /* \"Contracts\":5781:5879  require(tx.origin == referee || tx.origin == creator, \"Only referee or creator can fail contract\") */\n              tag_68\n              jumpi\n              mload(0x40)\n              0x08c379a000000000000000000000000000000000000000000000000000000000\n              dup2\n              mstore\n              0x04\n              add\n              tag_69\n              swap1\n              tag_70\n              jump\t// in\n            tag_69:\n              mload(0x40)\n              dup1\n              swap2\n              sub\n              swap1\n              revert\n            tag_68:\n                /* \"Contracts\":5897:5913  failureRecipient */\n              0x04\n              0x00\n              swap1\n              sload\n              swap1\n              0x0100\n              exp\n              swap1\n              div\n              0xffffffffffffffffffffffffffffffffffffffff\n              and\n                /* \"Contracts\":5889:5923  payable(failureRecipient).transfer */\n              0xffffffffffffffffffffffffffffffffffffffff\n              and\n                /* \"Contracts\":5889:5946  payable(failureRecipient).transfer(address(this).balance) */\n              0x08fc\n                /* \"Contracts\":5924:5945  address(this).balance */\n              selfbalance\n                /* \"Contracts\":5889:5946  payable(failureRecipient).transfer(address(this).balance) */\n              swap1\n              dup2\n              iszero\n              mul\n              swap1\n              mload(0x40)\n              0x00\n              mload(0x40)\n              dup1\n              dup4\n              sub\n              dup2\n              dup6\n              dup9\n              dup9\n              call\n              swap4\n              pop\n              pop\n              pop\n              pop\n              iszero\n              dup1\n              iszero\n              tag_72\n              jumpi\n              returndatasize\n              0x00\n              dup1\n              returndatacopy\n              revert(0x00, returndatasize)\n            tag_72:\n              pop\n                /* \"Contracts\":5965:5979  Status.FAILURE */\n              0x02\n                /* \"Contracts\":5956:5962  status */\n              0x06\n              0x00\n                /* \"Contracts\":5956:5979  status = Status.FAILURE */\n              0x0100\n              exp\n              dup2\n              sload\n              dup2\n              0xff\n              mul\n              not\n              and\n              swap1\n              dup4\n              0x02\n              dup2\n              gt\n              iszero\n              tag_73\n              jumpi\n              tag_74\n              tag_60\n              jump\t// in\n            tag_74:\n            tag_73:\n              mul\n              or\n              swap1\n              sstore\n              pop\n                /* \"Contracts\":5996:6000  this */\n              address\n                /* \"Contracts\":5989:6000  return this */\n              swap1\n              pop\n                /* \"Contracts\":5688:6007  function failContract() public payable restricted returns (AccountabilityContract) {... */\n              swap1\n              jump\t// out\n                /* \"Contracts\":5016:5038  address public referee */\n            tag_33:\n              0x01\n              0x00\n              swap1\n              sload\n              swap1\n              0x0100\n              exp\n              swap1\n              div\n              0xffffffffffffffffffffffffffffffffffffffff\n              and\n              dup2\n              jump\t// out\n                /* \"Contracts\":5099:5130  address public failureRecipient */\n            tag_37:\n              0x04\n              0x00\n              swap1\n              sload\n              swap1\n              0x0100\n              exp\n              swap1\n              div\n              0xffffffffffffffffffffffffffffffffffffffff\n              and\n              dup2\n              jump\t// out\n                /* \"Contracts\":5068:5093  string public description */\n            tag_41:\n              0x03\n              dup1\n              sload\n              tag_75\n              swap1\n              tag_52\n              jump\t// in\n            tag_75:\n              dup1\n              0x1f\n              add\n              0x20\n              dup1\n              swap2\n              div\n              mul\n              0x20\n              add\n              mload(0x40)\n              swap1\n              dup2\n              add\n              0x40\n              mstore\n              dup1\n              swap3\n              swap2\n              swap1\n              dup2\n              dup2\n              mstore\n              0x20\n              add\n              dup3\n              dup1\n              sload\n              tag_76\n              swap1\n              tag_52\n              jump\t// in\n            tag_76:\n              dup1\n              iszero\n              tag_77\n              jumpi\n              dup1\n              0x1f\n              lt\n              tag_78\n              jumpi\n              0x0100\n              dup1\n              dup4\n              sload\n              div\n              mul\n              dup4\n              mstore\n              swap2\n              0x20\n              add\n              swap2\n              jump(tag_77)\n            tag_78:\n              dup3\n              add\n              swap2\n              swap1\n              0x00\n              mstore\n              keccak256(0x00, 0x20)\n              swap1\n            tag_79:\n              dup2\n              sload\n              dup2\n              mstore\n              swap1\n              0x01\n              add\n              swap1\n              0x20\n              add\n              dup1\n              dup4\n              gt\n              tag_79\n              jumpi\n              dup3\n              swap1\n              sub\n              0x1f\n              and\n              dup3\n              add\n              swap2\n            tag_77:\n              pop\n              pop\n              pop\n              pop\n              pop\n              dup2\n              jump\t// out\n                /* \"Contracts\":5136:5154  uint public amount */\n            tag_45:\n              sload(0x05)\n              dup2\n              jump\t// out\n                /* \"Contracts\":6014:6299  function completeContract() public payable restricted returns (AccountabilityContract) {... */\n            tag_49:\n                /* \"Contracts\":6077:6099  AccountabilityContract */\n              0x00\n                /* \"Contracts\":5612:5623  Status.OPEN */\n              dup1\n                /* \"Contracts\":5602:5623  status == Status.OPEN */\n              0x02\n              dup2\n              gt\n              iszero\n              tag_81\n              jumpi\n              tag_82\n              tag_60\n              jump\t// in\n            tag_82:\n            tag_81:\n                /* \"Contracts\":5602:5608  status */\n              0x06\n              0x00\n              swap1\n              sload\n              swap1\n              0x0100\n              exp\n              swap1\n              div\n              0xff\n              and\n                /* \"Contracts\":5602:5623  status == Status.OPEN */\n              0x02\n              dup2\n              gt\n              iszero\n              tag_83\n              jumpi\n              tag_84\n              tag_60\n              jump\t// in\n            tag_84:\n            tag_83:\n              eq\n                /* \"Contracts\":5594:5664  require(status == Status.OPEN, \"Contract status is not equal to open\") */\n              tag_85\n              jumpi\n              mload(0x40)\n              0x08c379a000000000000000000000000000000000000000000000000000000000\n              dup2\n              mstore\n              0x04\n              add\n              tag_86\n              swap1\n              tag_65\n              jump\t// in\n            tag_86:\n              mload(0x40)\n              dup1\n              swap2\n              sub\n              swap1\n              revert\n            tag_85:\n                /* \"Contracts\":6132:6139  referee */\n              0x01\n              0x00\n              swap1\n              sload\n              swap1\n              0x0100\n              exp\n              swap1\n              div\n              0xffffffffffffffffffffffffffffffffffffffff\n              and\n                /* \"Contracts\":6119:6139  tx.origin == referee */\n              0xffffffffffffffffffffffffffffffffffffffff\n              and\n                /* \"Contracts\":6119:6128  tx.origin */\n              origin\n                /* \"Contracts\":6119:6139  tx.origin == referee */\n              0xffffffffffffffffffffffffffffffffffffffff\n              and\n              eq\n                /* \"Contracts\":6111:6180  require(tx.origin == referee, \"Only referee can complete a contract\") */\n              tag_88\n              jumpi\n              mload(0x40)\n              0x08c379a000000000000000000000000000000000000000000000000000000000\n              dup2\n              mstore\n              0x04\n              add\n              tag_89\n              swap1\n              tag_90\n              jump\t// in\n            tag_89:\n              mload(0x40)\n              dup1\n              swap2\n              sub\n              swap1\n              revert\n            tag_88:\n                /* \"Contracts\":6198:6205  creator */\n              0x00\n              dup1\n              sload\n              swap1\n              0x0100\n              exp\n              swap1\n              div\n              0xffffffffffffffffffffffffffffffffffffffff\n              and\n                /* \"Contracts\":6190:6215  payable(creator).transfer */\n              0xffffffffffffffffffffffffffffffffffffffff\n              and\n                /* \"Contracts\":6190:6238  payable(creator).transfer(address(this).balance) */\n              0x08fc\n                /* \"Contracts\":6216:6237  address(this).balance */\n              selfbalance\n                /* \"Contracts\":6190:6238  payable(creator).transfer(address(this).balance) */\n              swap1\n              dup2\n              iszero\n              mul\n              swap1\n              mload(0x40)\n              0x00\n              mload(0x40)\n              dup1\n              dup4\n              sub\n              dup2\n              dup6\n              dup9\n              dup9\n              call\n              swap4\n              pop\n              pop\n              pop\n              pop\n              iszero\n              dup1\n              iszero\n              tag_92\n              jumpi\n              returndatasize\n              0x00\n              dup1\n              returndatacopy\n              revert(0x00, returndatasize)\n            tag_92:\n              pop\n                /* \"Contracts\":6257:6271  Status.SUCCESS */\n              0x01\n                /* \"Contracts\":6248:6254  status */\n              0x06\n              0x00\n                /* \"Contracts\":6248:6271  status = Status.SUCCESS */\n              0x0100\n              exp\n              dup2\n              sload\n              dup2\n              0xff\n              mul\n              not\n              and\n              swap1\n              dup4\n              0x02\n              dup2\n              gt\n              iszero\n              tag_93\n              jumpi\n              tag_94\n              tag_60\n              jump\t// in\n            tag_94:\n            tag_93:\n              mul\n              or\n              swap1\n              sstore\n              pop\n                /* \"Contracts\":6288:6292  this */\n              address\n                /* \"Contracts\":6281:6292  return this */\n              swap1\n              pop\n                /* \"Contracts\":6014:6299  function completeContract() public payable restricted returns (AccountabilityContract) {... */\n              swap1\n              jump\t// out\n                /* \"#utility.yul\":7:133   */\n            tag_95:\n                /* \"#utility.yul\":44:51   */\n              0x00\n                /* \"#utility.yul\":84:126   */\n              0xffffffffffffffffffffffffffffffffffffffff\n                /* \"#utility.yul\":77:82   */\n              dup3\n                /* \"#utility.yul\":73:127   */\n              and\n                /* \"#utility.yul\":62:127   */\n              swap1\n              pop\n                /* \"#utility.yul\":7:133   */\n              swap2\n              swap1\n              pop\n              jump\t// out\n                /* \"#utility.yul\":139:235   */\n            tag_96:\n                /* \"#utility.yul\":176:183   */\n              0x00\n                /* \"#utility.yul\":205:229   */\n              tag_124\n                /* \"#utility.yul\":223:228   */\n              dup3\n                /* \"#utility.yul\":205:229   */\n              tag_95\n              jump\t// in\n            tag_124:\n                /* \"#utility.yul\":194:229   */\n              swap1\n              pop\n                /* \"#utility.yul\":139:235   */\n              swap2\n              swap1\n              pop\n              jump\t// out\n                /* \"#utility.yul\":241:359   */\n            tag_97:\n                /* \"#utility.yul\":328:352   */\n              tag_126\n                /* \"#utility.yul\":346:351   */\n              dup2\n                /* \"#utility.yul\":328:352   */\n              tag_96\n              jump\t// in\n            tag_126:\n                /* \"#utility.yul\":323:326   */\n              dup3\n                /* \"#utility.yul\":316:353   */\n              mstore\n                /* \"#utility.yul\":241:359   */\n              pop\n              pop\n              jump\t// out\n                /* \"#utility.yul\":365:587   */\n            tag_16:\n                /* \"#utility.yul\":458:462   */\n              0x00\n                /* \"#utility.yul\":496:498   */\n              0x20\n                /* \"#utility.yul\":485:494   */\n              dup3\n                /* \"#utility.yul\":481:499   */\n              add\n                /* \"#utility.yul\":473:499   */\n              swap1\n              pop\n                /* \"#utility.yul\":509:580   */\n              tag_128\n                /* \"#utility.yul\":577:578   */\n              0x00\n                /* \"#utility.yul\":566:575   */\n              dup4\n                /* \"#utility.yul\":562:579   */\n              add\n                /* \"#utility.yul\":553:559   */\n              dup5\n                /* \"#utility.yul\":509:580   */\n              tag_97\n              jump\t// in\n            tag_128:\n                /* \"#utility.yul\":365:587   */\n              swap3\n              swap2\n              pop\n              pop\n              jump\t// out\n                /* \"#utility.yul\":593:692   */\n            tag_98:\n                /* \"#utility.yul\":645:651   */\n              0x00\n                /* \"#utility.yul\":679:684   */\n              dup2\n                /* \"#utility.yul\":673:685   */\n              mload\n                /* \"#utility.yul\":663:685   */\n              swap1\n              pop\n                /* \"#utility.yul\":593:692   */\n              swap2\n              swap1\n              pop\n              jump\t// out\n                /* \"#utility.yul\":698:867   */\n            tag_99:\n                /* \"#utility.yul\":782:793   */\n              0x00\n                /* \"#utility.yul\":816:822   */\n              dup3\n                /* \"#utility.yul\":811:814   */\n              dup3\n                /* \"#utility.yul\":804:823   */\n              mstore\n                /* \"#utility.yul\":856:860   */\n              0x20\n                /* \"#utility.yul\":851:854   */\n              dup3\n                /* \"#utility.yul\":847:861   */\n              add\n                /* \"#utility.yul\":832:861   */\n              swap1\n              pop\n                /* \"#utility.yul\":698:867   */\n              swap3\n              swap2\n              pop\n              pop\n              jump\t// out\n                /* \"#utility.yul\":873:1180   */\n            tag_100:\n                /* \"#utility.yul\":941:942   */\n              0x00\n                /* \"#utility.yul\":951:1064   */\n            tag_132:\n                /* \"#utility.yul\":965:971   */\n              dup4\n                /* \"#utility.yul\":962:963   */\n              dup2\n                /* \"#utility.yul\":959:972   */\n              lt\n                /* \"#utility.yul\":951:1064   */\n              iszero\n              tag_134\n              jumpi\n                /* \"#utility.yul\":1050:1051   */\n              dup1\n                /* \"#utility.yul\":1045:1048   */\n              dup3\n                /* \"#utility.yul\":1041:1052   */\n              add\n                /* \"#utility.yul\":1035:1053   */\n              mload\n                /* \"#utility.yul\":1031:1032   */\n              dup2\n                /* \"#utility.yul\":1026:1029   */\n              dup5\n                /* \"#utility.yul\":1022:1033   */\n              add\n                /* \"#utility.yul\":1015:1054   */\n              mstore\n                /* \"#utility.yul\":987:989   */\n              0x20\n                /* \"#utility.yul\":984:985   */\n              dup2\n                /* \"#utility.yul\":980:990   */\n              add\n                /* \"#utility.yul\":975:990   */\n              swap1\n              pop\n                /* \"#utility.yul\":951:1064   */\n              jump(tag_132)\n            tag_134:\n                /* \"#utility.yul\":1082:1088   */\n              dup4\n                /* \"#utility.yul\":1079:1080   */\n              dup2\n                /* \"#utility.yul\":1076:1089   */\n              gt\n                /* \"#utility.yul\":1073:1174   */\n              iszero\n              tag_135\n              jumpi\n                /* \"#utility.yul\":1162:1163   */\n              0x00\n                /* \"#utility.yul\":1153:1159   */\n              dup5\n                /* \"#utility.yul\":1148:1151   */\n              dup5\n                /* \"#utility.yul\":1144:1160   */\n              add\n                /* \"#utility.yul\":1137:1164   */\n              mstore\n                /* \"#utility.yul\":1073:1174   */\n            tag_135:\n                /* \"#utility.yul\":922:1180   */\n              pop\n                /* \"#utility.yul\":873:1180   */\n              pop\n              pop\n              pop\n              jump\t// out\n                /* \"#utility.yul\":1186:1288   */\n            tag_101:\n                /* \"#utility.yul\":1227:1233   */\n              0x00\n                /* \"#utility.yul\":1278:1280   */\n              0x1f\n                /* \"#utility.yul\":1274:1281   */\n              not\n                /* \"#utility.yul\":1269:1271   */\n              0x1f\n                /* \"#utility.yul\":1262:1267   */\n              dup4\n                /* \"#utility.yul\":1258:1272   */\n              add\n                /* \"#utility.yul\":1254:1282   */\n              and\n                /* \"#utility.yul\":1244:1282   */\n              swap1\n              pop\n                /* \"#utility.yul\":1186:1288   */\n              swap2\n              swap1\n              pop\n              jump\t// out\n                /* \"#utility.yul\":1294:1658   */\n            tag_102:\n                /* \"#utility.yul\":1382:1385   */\n              0x00\n                /* \"#utility.yul\":1410:1449   */\n              tag_138\n                /* \"#utility.yul\":1443:1448   */\n              dup3\n                /* \"#utility.yul\":1410:1449   */\n              tag_98\n              jump\t// in\n            tag_138:\n                /* \"#utility.yul\":1465:1536   */\n              tag_139\n                /* \"#utility.yul\":1529:1535   */\n              dup2\n                /* \"#utility.yul\":1524:1527   */\n              dup6\n                /* \"#utility.yul\":1465:1536   */\n              tag_99\n              jump\t// in\n            tag_139:\n                /* \"#utility.yul\":1458:1536   */\n              swap4\n              pop\n                /* \"#utility.yul\":1545:1597   */\n              tag_140\n                /* \"#utility.yul\":1590:1596   */\n              dup2\n                /* \"#utility.yul\":1585:1588   */\n              dup6\n                /* \"#utility.yul\":1578:1582   */\n              0x20\n                /* \"#utility.yul\":1571:1576   */\n              dup7\n                /* \"#utility.yul\":1567:1583   */\n              add\n                /* \"#utility.yul\":1545:1597   */\n              tag_100\n              jump\t// in\n            tag_140:\n                /* \"#utility.yul\":1622:1651   */\n              tag_141\n                /* \"#utility.yul\":1644:1650   */\n              dup2\n                /* \"#utility.yul\":1622:1651   */\n              tag_101\n              jump\t// in\n            tag_141:\n                /* \"#utility.yul\":1617:1620   */\n              dup5\n                /* \"#utility.yul\":1613:1652   */\n              add\n                /* \"#utility.yul\":1606:1652   */\n              swap2\n              pop\n                /* \"#utility.yul\":1386:1658   */\n              pop\n                /* \"#utility.yul\":1294:1658   */\n              swap3\n              swap2\n              pop\n              pop\n              jump\t// out\n                /* \"#utility.yul\":1664:1977   */\n            tag_21:\n                /* \"#utility.yul\":1777:1781   */\n              0x00\n                /* \"#utility.yul\":1815:1817   */\n              0x20\n                /* \"#utility.yul\":1804:1813   */\n              dup3\n                /* \"#utility.yul\":1800:1818   */\n              add\n                /* \"#utility.yul\":1792:1818   */\n              swap1\n              pop\n                /* \"#utility.yul\":1864:1873   */\n              dup2\n                /* \"#utility.yul\":1858:1862   */\n              dup2\n                /* \"#utility.yul\":1854:1874   */\n              sub\n                /* \"#utility.yul\":1850:1851   */\n              0x00\n                /* \"#utility.yul\":1839:1848   */\n              dup4\n                /* \"#utility.yul\":1835:1852   */\n              add\n                /* \"#utility.yul\":1828:1875   */\n              mstore\n                /* \"#utility.yul\":1892:1970   */\n              tag_143\n                /* \"#utility.yul\":1965:1969   */\n              dup2\n                /* \"#utility.yul\":1956:1962   */\n              dup5\n                /* \"#utility.yul\":1892:1970   */\n              tag_102\n              jump\t// in\n            tag_143:\n                /* \"#utility.yul\":1884:1970   */\n              swap1\n              pop\n                /* \"#utility.yul\":1664:1977   */\n              swap3\n              swap2\n              pop\n              pop\n              jump\t// out\n                /* \"#utility.yul\":1983:2163   */\n            tag_60:\n                /* \"#utility.yul\":2031:2108   */\n              0x4e487b7100000000000000000000000000000000000000000000000000000000\n                /* \"#utility.yul\":2028:2029   */\n              0x00\n                /* \"#utility.yul\":2021:2109   */\n              mstore\n                /* \"#utility.yul\":2128:2132   */\n              0x21\n                /* \"#utility.yul\":2125:2126   */\n              0x04\n                /* \"#utility.yul\":2118:2133   */\n              mstore\n                /* \"#utility.yul\":2152:2156   */\n              0x24\n                /* \"#utility.yul\":2149:2150   */\n              0x00\n                /* \"#utility.yul\":2142:2157   */\n              revert\n                /* \"#utility.yul\":2169:2284   */\n            tag_103:\n                /* \"#utility.yul\":2252:2253   */\n              0x03\n                /* \"#utility.yul\":2245:2250   */\n              dup2\n                /* \"#utility.yul\":2242:2254   */\n              lt\n                /* \"#utility.yul\":2232:2278   */\n              tag_146\n              jumpi\n                /* \"#utility.yul\":2258:2276   */\n              tag_147\n              tag_60\n              jump\t// in\n            tag_147:\n                /* \"#utility.yul\":2232:2278   */\n            tag_146:\n                /* \"#utility.yul\":2169:2284   */\n              pop\n              jump\t// out\n                /* \"#utility.yul\":2290:2421   */\n            tag_104:\n                /* \"#utility.yul\":2337:2344   */\n              0x00\n                /* \"#utility.yul\":2366:2371   */\n              dup2\n                /* \"#utility.yul\":2355:2371   */\n              swap1\n              pop\n                /* \"#utility.yul\":2372:2415   */\n              tag_149\n                /* \"#utility.yul\":2409:2414   */\n              dup3\n                /* \"#utility.yul\":2372:2415   */\n              tag_103\n              jump\t// in\n            tag_149:\n                /* \"#utility.yul\":2290:2421   */\n              swap2\n              swap1\n              pop\n              jump\t// out\n                /* \"#utility.yul\":2427:2558   */\n            tag_105:\n                /* \"#utility.yul\":2485:2494   */\n              0x00\n                /* \"#utility.yul\":2518:2552   */\n              tag_151\n                /* \"#utility.yul\":2546:2551   */\n              dup3\n                /* \"#utility.yul\":2518:2552   */\n              tag_104\n              jump\t// in\n            tag_151:\n                /* \"#utility.yul\":2505:2552   */\n              swap1\n              pop\n                /* \"#utility.yul\":2427:2558   */\n              swap2\n              swap1\n              pop\n              jump\t// out\n                /* \"#utility.yul\":2564:2711   */\n            tag_106:\n                /* \"#utility.yul\":2659:2704   */\n              tag_153\n                /* \"#utility.yul\":2698:2703   */\n              dup2\n                /* \"#utility.yul\":2659:2704   */\n              tag_105\n              jump\t// in\n            tag_153:\n                /* \"#utility.yul\":2654:2657   */\n              dup3\n                /* \"#utility.yul\":2647:2705   */\n              mstore\n                /* \"#utility.yul\":2564:2711   */\n              pop\n              pop\n              jump\t// out\n                /* \"#utility.yul\":2717:2955   */\n            tag_26:\n                /* \"#utility.yul\":2818:2822   */\n              0x00\n                /* \"#utility.yul\":2856:2858   */\n              0x20\n                /* \"#utility.yul\":2845:2854   */\n              dup3\n                /* \"#utility.yul\":2841:2859   */\n              add\n                /* \"#utility.yul\":2833:2859   */\n              swap1\n              pop\n                /* \"#utility.yul\":2869:2948   */\n              tag_155\n                /* \"#utility.yul\":2945:2946   */\n              0x00\n                /* \"#utility.yul\":2934:2943   */\n              dup4\n                /* \"#utility.yul\":2930:2947   */\n              add\n                /* \"#utility.yul\":2921:2927   */\n              dup5\n                /* \"#utility.yul\":2869:2948   */\n              tag_106\n              jump\t// in\n            tag_155:\n                /* \"#utility.yul\":2717:2955   */\n              swap3\n              swap2\n              pop\n              pop\n              jump\t// out\n                /* \"#utility.yul\":2961:3021   */\n            tag_107:\n                /* \"#utility.yul\":2989:2992   */\n              0x00\n                /* \"#utility.yul\":3010:3015   */\n              dup2\n                /* \"#utility.yul\":3003:3015   */\n              swap1\n              pop\n                /* \"#utility.yul\":2961:3021   */\n              swap2\n              swap1\n              pop\n              jump\t// out\n                /* \"#utility.yul\":3027:3169   */\n            tag_108:\n                /* \"#utility.yul\":3077:3086   */\n              0x00\n                /* \"#utility.yul\":3110:3163   */\n              tag_158\n                /* \"#utility.yul\":3128:3162   */\n              tag_159\n                /* \"#utility.yul\":3137:3161   */\n              tag_160\n                /* \"#utility.yul\":3155:3160   */\n              dup5\n                /* \"#utility.yul\":3137:3161   */\n              tag_95\n              jump\t// in\n            tag_160:\n                /* \"#utility.yul\":3128:3162   */\n              tag_107\n              jump\t// in\n            tag_159:\n                /* \"#utility.yul\":3110:3163   */\n              tag_95\n              jump\t// in\n            tag_158:\n                /* \"#utility.yul\":3097:3163   */\n              swap1\n              pop\n                /* \"#utility.yul\":3027:3169   */\n              swap2\n              swap1\n              pop\n              jump\t// out\n                /* \"#utility.yul\":3175:3301   */\n            tag_109:\n                /* \"#utility.yul\":3225:3234   */\n              0x00\n                /* \"#utility.yul\":3258:3295   */\n              tag_162\n                /* \"#utility.yul\":3289:3294   */\n              dup3\n                /* \"#utility.yul\":3258:3295   */\n              tag_108\n              jump\t// in\n            tag_162:\n                /* \"#utility.yul\":3245:3295   */\n              swap1\n              pop\n                /* \"#utility.yul\":3175:3301   */\n              swap2\n              swap1\n              pop\n              jump\t// out\n                /* \"#utility.yul\":3307:3463   */\n            tag_110:\n                /* \"#utility.yul\":3387:3396   */\n              0x00\n                /* \"#utility.yul\":3420:3457   */\n              tag_164\n                /* \"#utility.yul\":3451:3456   */\n              dup3\n                /* \"#utility.yul\":3420:3457   */\n              tag_109\n              jump\t// in\n            tag_164:\n                /* \"#utility.yul\":3407:3457   */\n              swap1\n              pop\n                /* \"#utility.yul\":3307:3463   */\n              swap2\n              swap1\n              pop\n              jump\t// out\n                /* \"#utility.yul\":3469:3660   */\n            tag_111:\n                /* \"#utility.yul\":3586:3653   */\n              tag_166\n                /* \"#utility.yul\":3647:3652   */\n              dup2\n                /* \"#utility.yul\":3586:3653   */\n              tag_110\n              jump\t// in\n            tag_166:\n                /* \"#utility.yul\":3581:3584   */\n              dup3\n                /* \"#utility.yul\":3574:3654   */\n              mstore\n                /* \"#utility.yul\":3469:3660   */\n              pop\n              pop\n              jump\t// out\n                /* \"#utility.yul\":3666:3948   */\n            tag_30:\n                /* \"#utility.yul\":3789:3793   */\n              0x00\n                /* \"#utility.yul\":3827:3829   */\n              0x20\n                /* \"#utility.yul\":3816:3825   */\n              dup3\n                /* \"#utility.yul\":3812:3830   */\n              add\n                /* \"#utility.yul\":3804:3830   */\n              swap1\n              pop\n                /* \"#utility.yul\":3840:3941   */\n              tag_168\n                /* \"#utility.yul\":3938:3939   */\n              0x00\n                /* \"#utility.yul\":3927:3936   */\n              dup4\n                /* \"#utility.yul\":3923:3940   */\n              add\n                /* \"#utility.yul\":3914:3920   */\n              dup5\n                /* \"#utility.yul\":3840:3941   */\n              tag_111\n              jump\t// in\n            tag_168:\n                /* \"#utility.yul\":3666:3948   */\n              swap3\n              swap2\n              pop\n              pop\n              jump\t// out\n                /* \"#utility.yul\":3954:4031   */\n            tag_112:\n                /* \"#utility.yul\":3991:3998   */\n              0x00\n                /* \"#utility.yul\":4020:4025   */\n              dup2\n                /* \"#utility.yul\":4009:4025   */\n              swap1\n              pop\n                /* \"#utility.yul\":3954:4031   */\n              swap2\n              swap1\n              pop\n              jump\t// out\n                /* \"#utility.yul\":4037:4155   */\n            tag_113:\n                /* \"#utility.yul\":4124:4148   */\n              tag_171\n                /* \"#utility.yul\":4142:4147   */\n              dup2\n                /* \"#utility.yul\":4124:4148   */\n              tag_112\n              jump\t// in\n            tag_171:\n                /* \"#utility.yul\":4119:4122   */\n              dup3\n                /* \"#utility.yul\":4112:4149   */\n              mstore\n                /* \"#utility.yul\":4037:4155   */\n              pop\n              pop\n              jump\t// out\n                /* \"#utility.yul\":4161:4383   */\n            tag_47:\n                /* \"#utility.yul\":4254:4258   */\n              0x00\n                /* \"#utility.yul\":4292:4294   */\n              0x20\n                /* \"#utility.yul\":4281:4290   */\n              dup3\n                /* \"#utility.yul\":4277:4295   */\n              add\n                /* \"#utility.yul\":4269:4295   */\n              swap1\n              pop\n                /* \"#utility.yul\":4305:4376   */\n              tag_173\n                /* \"#utility.yul\":4373:4374   */\n              0x00\n                /* \"#utility.yul\":4362:4371   */\n              dup4\n                /* \"#utility.yul\":4358:4375   */\n              add\n                /* \"#utility.yul\":4349:4355   */\n              dup5\n                /* \"#utility.yul\":4305:4376   */\n              tag_113\n              jump\t// in\n            tag_173:\n                /* \"#utility.yul\":4161:4383   */\n              swap3\n              swap2\n              pop\n              pop\n              jump\t// out\n                /* \"#utility.yul\":4389:4569   */\n            tag_114:\n                /* \"#utility.yul\":4437:4514   */\n              0x4e487b7100000000000000000000000000000000000000000000000000000000\n                /* \"#utility.yul\":4434:4435   */\n              0x00\n                /* \"#utility.yul\":4427:4515   */\n              mstore\n                /* \"#utility.yul\":4534:4538   */\n              0x22\n                /* \"#utility.yul\":4531:4532   */\n              0x04\n                /* \"#utility.yul\":4524:4539   */\n              mstore\n                /* \"#utility.yul\":4558:4562   */\n              0x24\n                /* \"#utility.yul\":4555:4556   */\n              0x00\n                /* \"#utility.yul\":4548:4563   */\n              revert\n                /* \"#utility.yul\":4575:4895   */\n            tag_52:\n                /* \"#utility.yul\":4619:4625   */\n              0x00\n                /* \"#utility.yul\":4656:4657   */\n              0x02\n                /* \"#utility.yul\":4650:4654   */\n              dup3\n                /* \"#utility.yul\":4646:4658   */\n              div\n                /* \"#utility.yul\":4636:4658   */\n              swap1\n              pop\n                /* \"#utility.yul\":4703:4704   */\n              0x01\n                /* \"#utility.yul\":4697:4701   */\n              dup3\n                /* \"#utility.yul\":4693:4705   */\n              and\n                /* \"#utility.yul\":4724:4742   */\n              dup1\n                /* \"#utility.yul\":4714:4795   */\n              tag_176\n              jumpi\n                /* \"#utility.yul\":4780:4784   */\n              0x7f\n                /* \"#utility.yul\":4772:4778   */\n              dup3\n                /* \"#utility.yul\":4768:4785   */\n              and\n                /* \"#utility.yul\":4758:4785   */\n              swap2\n              pop\n                /* \"#utility.yul\":4714:4795   */\n            tag_176:\n                /* \"#utility.yul\":4842:4844   */\n              0x20\n                /* \"#utility.yul\":4834:4840   */\n              dup3\n                /* \"#utility.yul\":4831:4845   */\n              lt\n                /* \"#utility.yul\":4811:4829   */\n              dup2\n                /* \"#utility.yul\":4808:4846   */\n              eq\n                /* \"#utility.yul\":4805:4889   */\n              iszero\n              tag_177\n              jumpi\n                /* \"#utility.yul\":4861:4879   */\n              tag_178\n              tag_114\n              jump\t// in\n            tag_178:\n                /* \"#utility.yul\":4805:4889   */\n            tag_177:\n                /* \"#utility.yul\":4626:4895   */\n              pop\n                /* \"#utility.yul\":4575:4895   */\n              swap2\n              swap1\n              pop\n              jump\t// out\n                /* \"#utility.yul\":4901:5124   */\n            tag_115:\n                /* \"#utility.yul\":5041:5075   */\n              0x436f6e747261637420737461747573206973206e6f7420657175616c20746f20\n                /* \"#utility.yul\":5037:5038   */\n              0x00\n                /* \"#utility.yul\":5029:5035   */\n              dup3\n                /* \"#utility.yul\":5025:5039   */\n              add\n                /* \"#utility.yul\":5018:5076   */\n              mstore\n                /* \"#utility.yul\":5110:5116   */\n              0x6f70656e00000000000000000000000000000000000000000000000000000000\n                /* \"#utility.yul\":5105:5107   */\n              0x20\n                /* \"#utility.yul\":5097:5103   */\n              dup3\n                /* \"#utility.yul\":5093:5108   */\n              add\n                /* \"#utility.yul\":5086:5117   */\n              mstore\n                /* \"#utility.yul\":4901:5124   */\n              pop\n              jump\t// out\n                /* \"#utility.yul\":5130:5496   */\n            tag_116:\n                /* \"#utility.yul\":5272:5275   */\n              0x00\n                /* \"#utility.yul\":5293:5360   */\n              tag_181\n                /* \"#utility.yul\":5357:5359   */\n              0x24\n                /* \"#utility.yul\":5352:5355   */\n              dup4\n                /* \"#utility.yul\":5293:5360   */\n              tag_99\n              jump\t// in\n            tag_181:\n                /* \"#utility.yul\":5286:5360   */\n              swap2\n              pop\n                /* \"#utility.yul\":5369:5462   */\n              tag_182\n                /* \"#utility.yul\":5458:5461   */\n              dup3\n                /* \"#utility.yul\":5369:5462   */\n              tag_115\n              jump\t// in\n            tag_182:\n                /* \"#utility.yul\":5487:5489   */\n              0x40\n                /* \"#utility.yul\":5482:5485   */\n              dup3\n                /* \"#utility.yul\":5478:5490   */\n              add\n                /* \"#utility.yul\":5471:5490   */\n              swap1\n              pop\n                /* \"#utility.yul\":5130:5496   */\n              swap2\n              swap1\n              pop\n              jump\t// out\n                /* \"#utility.yul\":5502:5921   */\n            tag_65:\n                /* \"#utility.yul\":5668:5672   */\n              0x00\n                /* \"#utility.yul\":5706:5708   */\n              0x20\n                /* \"#utility.yul\":5695:5704   */\n              dup3\n                /* \"#utility.yul\":5691:5709   */\n              add\n                /* \"#utility.yul\":5683:5709   */\n              swap1\n              pop\n                /* \"#utility.yul\":5755:5764   */\n              dup2\n                /* \"#utility.yul\":5749:5753   */\n              dup2\n                /* \"#utility.yul\":5745:5765   */\n              sub\n                /* \"#utility.yul\":5741:5742   */\n              0x00\n                /* \"#utility.yul\":5730:5739   */\n              dup4\n                /* \"#utility.yul\":5726:5743   */\n              add\n                /* \"#utility.yul\":5719:5766   */\n              mstore\n                /* \"#utility.yul\":5783:5914   */\n              tag_184\n                /* \"#utility.yul\":5909:5913   */\n              dup2\n                /* \"#utility.yul\":5783:5914   */\n              tag_116\n              jump\t// in\n            tag_184:\n                /* \"#utility.yul\":5775:5914   */\n              swap1\n              pop\n                /* \"#utility.yul\":5502:5921   */\n              swap2\n              swap1\n              pop\n              jump\t// out\n                /* \"#utility.yul\":5927:6155   */\n            tag_117:\n                /* \"#utility.yul\":6067:6101   */\n              0x4f6e6c792072656665726565206f722063726561746f722063616e206661696c\n                /* \"#utility.yul\":6063:6064   */\n              0x00\n                /* \"#utility.yul\":6055:6061   */\n              dup3\n                /* \"#utility.yul\":6051:6065   */\n              add\n                /* \"#utility.yul\":6044:6102   */\n              mstore\n                /* \"#utility.yul\":6136:6147   */\n              0x20636f6e74726163740000000000000000000000000000000000000000000000\n                /* \"#utility.yul\":6131:6133   */\n              0x20\n                /* \"#utility.yul\":6123:6129   */\n              dup3\n                /* \"#utility.yul\":6119:6134   */\n              add\n                /* \"#utility.yul\":6112:6148   */\n              mstore\n                /* \"#utility.yul\":5927:6155   */\n              pop\n              jump\t// out\n                /* \"#utility.yul\":6161:6527   */\n            tag_118:\n                /* \"#utility.yul\":6303:6306   */\n              0x00\n                /* \"#utility.yul\":6324:6391   */\n              tag_187\n                /* \"#utility.yul\":6388:6390   */\n              0x29\n                /* \"#utility.yul\":6383:6386   */\n              dup4\n                /* \"#utility.yul\":6324:6391   */\n              tag_99\n              jump\t// in\n            tag_187:\n                /* \"#utility.yul\":6317:6391   */\n              swap2\n              pop\n                /* \"#utility.yul\":6400:6493   */\n              tag_188\n                /* \"#utility.yul\":6489:6492   */\n              dup3\n                /* \"#utility.yul\":6400:6493   */\n              tag_117\n              jump\t// in\n            tag_188:\n                /* \"#utility.yul\":6518:6520   */\n              0x40\n                /* \"#utility.yul\":6513:6516   */\n              dup3\n                /* \"#utility.yul\":6509:6521   */\n              add\n                /* \"#utility.yul\":6502:6521   */\n              swap1\n              pop\n                /* \"#utility.yul\":6161:6527   */\n              swap2\n              swap1\n              pop\n              jump\t// out\n                /* \"#utility.yul\":6533:6952   */\n            tag_70:\n                /* \"#utility.yul\":6699:6703   */\n              0x00\n                /* \"#utility.yul\":6737:6739   */\n              0x20\n                /* \"#utility.yul\":6726:6735   */\n              dup3\n                /* \"#utility.yul\":6722:6740   */\n              add\n                /* \"#utility.yul\":6714:6740   */\n              swap1\n              pop\n                /* \"#utility.yul\":6786:6795   */\n              dup2\n                /* \"#utility.yul\":6780:6784   */\n              dup2\n                /* \"#utility.yul\":6776:6796   */\n              sub\n                /* \"#utility.yul\":6772:6773   */\n              0x00\n                /* \"#utility.yul\":6761:6770   */\n              dup4\n                /* \"#utility.yul\":6757:6774   */\n              add\n                /* \"#utility.yul\":6750:6797   */\n              mstore\n                /* \"#utility.yul\":6814:6945   */\n              tag_190\n                /* \"#utility.yul\":6940:6944   */\n              dup2\n                /* \"#utility.yul\":6814:6945   */\n              tag_118\n              jump\t// in\n            tag_190:\n                /* \"#utility.yul\":6806:6945   */\n              swap1\n              pop\n                /* \"#utility.yul\":6533:6952   */\n              swap2\n              swap1\n              pop\n              jump\t// out\n                /* \"#utility.yul\":6958:7181   */\n            tag_119:\n                /* \"#utility.yul\":7098:7132   */\n              0x4f6e6c7920726566657265652063616e20636f6d706c657465206120636f6e74\n                /* \"#utility.yul\":7094:7095   */\n              0x00\n                /* \"#utility.yul\":7086:7092   */\n              dup3\n                /* \"#utility.yul\":7082:7096   */\n              add\n                /* \"#utility.yul\":7075:7133   */\n              mstore\n                /* \"#utility.yul\":7167:7173   */\n              0x7261637400000000000000000000000000000000000000000000000000000000\n                /* \"#utility.yul\":7162:7164   */\n              0x20\n                /* \"#utility.yul\":7154:7160   */\n              dup3\n                /* \"#utility.yul\":7150:7165   */\n              add\n                /* \"#utility.yul\":7143:7174   */\n              mstore\n                /* \"#utility.yul\":6958:7181   */\n              pop\n              jump\t// out\n                /* \"#utility.yul\":7187:7553   */\n            tag_120:\n                /* \"#utility.yul\":7329:7332   */\n              0x00\n                /* \"#utility.yul\":7350:7417   */\n              tag_193\n                /* \"#utility.yul\":7414:7416   */\n              0x24\n                /* \"#utility.yul\":7409:7412   */\n              dup4\n                /* \"#utility.yul\":7350:7417   */\n              tag_99\n              jump\t// in\n            tag_193:\n                /* \"#utility.yul\":7343:7417   */\n              swap2\n              pop\n                /* \"#utility.yul\":7426:7519   */\n              tag_194\n                /* \"#utility.yul\":7515:7518   */\n              dup3\n                /* \"#utility.yul\":7426:7519   */\n              tag_119\n              jump\t// in\n            tag_194:\n                /* \"#utility.yul\":7544:7546   */\n              0x40\n                /* \"#utility.yul\":7539:7542   */\n              dup3\n                /* \"#utility.yul\":7535:7547   */\n              add\n                /* \"#utility.yul\":7528:7547   */\n              swap1\n              pop\n                /* \"#utility.yul\":7187:7553   */\n              swap2\n              swap1\n              pop\n              jump\t// out\n                /* \"#utility.yul\":7559:7978   */\n            tag_90:\n                /* \"#utility.yul\":7725:7729   */\n              0x00\n                /* \"#utility.yul\":7763:7765   */\n              0x20\n                /* \"#utility.yul\":7752:7761   */\n              dup3\n                /* \"#utility.yul\":7748:7766   */\n              add\n                /* \"#utility.yul\":7740:7766   */\n              swap1\n              pop\n                /* \"#utility.yul\":7812:7821   */\n              dup2\n                /* \"#utility.yul\":7806:7810   */\n              dup2\n                /* \"#utility.yul\":7802:7822   */\n              sub\n                /* \"#utility.yul\":7798:7799   */\n              0x00\n                /* \"#utility.yul\":7787:7796   */\n              dup4\n                /* \"#utility.yul\":7783:7800   */\n              add\n                /* \"#utility.yul\":7776:7823   */\n              mstore\n                /* \"#utility.yul\":7840:7971   */\n              tag_196\n                /* \"#utility.yul\":7966:7970   */\n              dup2\n                /* \"#utility.yul\":7840:7971   */\n              tag_120\n              jump\t// in\n            tag_196:\n                /* \"#utility.yul\":7832:7971   */\n              swap1\n              pop\n                /* \"#utility.yul\":7559:7978   */\n              swap2\n              swap1\n              pop\n              jump\t// out\n\n            auxdata: 0xa264697066735822122098d72a8b1386cd1ee3fa161c23925dc97e750b0ee15fba12ff98109fe7363c9c64736f6c634300080c0033\n        }\n    }\n\n    auxdata: 0xa26469706673582212206574316a544326904827fef5de0cf8c45619a890ea3393e1c70a09ec71b430ea64736f6c634300080c0033\n}\n","bytecode":{"linkReferences":{},"object":"608060405234801561001057600080fd5b506131c9806100206000396000f3fe608060405260043610620000aa5760003560e01c806375ce46a7116200006d57806375ce46a714620001d75780639051e2341462000207578063a87430ba146200024b578063b24e67d0146200028f578063b3b6633e14620002d3578063e436e826146200030357620000aa565b806319ee8bd414620000af5780632bc7decc14620000f3578063442a7bc7146200012157806364a60b47146200016557806374baa69c14620001a9575b600080fd5b348015620000bc57600080fd5b50620000db6004803603810190620000d5919062001777565b62000323565b604051620000ea919062001877565b60405180910390f35b3480156200010057600080fd5b506200011f6004803603810190620001199190620018d6565b620003f5565b005b3480156200012e57600080fd5b506200014d600480360381019062000147919062001777565b620005fd565b6040516200015c919062001877565b60405180910390f35b3480156200017257600080fd5b506200019160048036038101906200018b919062001777565b620006ce565b604051620001a091906200192e565b60405180910390f35b348015620001b657600080fd5b50620001d56004803603810190620001cf9190620018d6565b620006ec565b005b348015620001e457600080fd5b50620001ef62000874565b604051620001fe91906200192e565b60405180910390f35b3480156200021457600080fd5b506200023360048036038101906200022d919062001777565b6200087a565b60405162000242919062001877565b60405180910390f35b3480156200025857600080fd5b5062000277600480360381019062000271919062001777565b6200094c565b6040516200028691906200192e565b60405180910390f35b3480156200029c57600080fd5b50620002bb6004803603810190620002b5919062001777565b6200096a565b604051620002ca919062001877565b60405180910390f35b348015620002e057600080fd5b50620002eb62000a3b565b604051620002fa91906200192e565b60405180910390f35b6200032160048036038101906200031b919062001af2565b62000a41565b005b6060600360008373ffffffffffffffffffffffffffffffffffffffff1673ffffffffffffffffffffffffffffffffffffffff168152602001908152602001600020600201805480602002602001604051908101604052809291908181526020018280548015620003e957602002820191906000526020600020905b8160009054906101000a900473ffffffffffffffffffffffffffffffffffffffff1673ffffffffffffffffffffffffffffffffffffffff16815260200190600101908083116200039e575b50505050509050919050565b60008060008473ffffffffffffffffffffffffffffffffffffffff1673ffffffffffffffffffffffffffffffffffffffff16815260200190815260200160002060010182815481106200044d576200044c62001ba2565b5b9060005260206000200160009054906101000a900473ffffffffffffffffffffffffffffffffffffffff1690508073ffffffffffffffffffffffffffffffffffffffff1663b4fedc116040518163ffffffff1660e01b81526004016020604051808303816000875af1158015620004c8573d6000803e3d6000fd5b505050506040513d601f19601f82011682018060405250810190620004ee919062001c16565b50620004fb838362000e1c565b620005f88173ffffffffffffffffffffffffffffffffffffffff16633b1bebd16040518163ffffffff1660e01b8152600401602060405180830381865afa1580156200054b573d6000803e3d6000fd5b505050506040513d601f19601f8201168201806040525081019062000571919062001c5f565b6000808673ffffffffffffffffffffffffffffffffffffffff1673ffffffffffffffffffffffffffffffffffffffff1681526020019081526020016000206001018481548110620005c757620005c662001ba2565b5b9060005260206000200160009054906101000a900473ffffffffffffffffffffffffffffffffffffffff166200120d565b505050565b60606000808373ffffffffffffffffffffffffffffffffffffffff1673ffffffffffffffffffffffffffffffffffffffff168152602001908152602001600020600101805480602002602001604051908101604052809291908181526020018280548015620006c257602002820191906000526020600020905b8160009054906101000a900473ffffffffffffffffffffffffffffffffffffffff1673ffffffffffffffffffffffffffffffffffffffff168152602001906001019080831162000677575b50505050509050919050565b60036020528060005260406000206000915090508060000154905081565b60008060008473ffffffffffffffffffffffffffffffffffffffff1673ffffffffffffffffffffffffffffffffffffffff168152602001908152602001600020600101828154811062000744576200074362001ba2565b5b9060005260206000200160009054906101000a900473ffffffffffffffffffffffffffffffffffffffff1690508073ffffffffffffffffffffffffffffffffffffffff16632d398fa66040518163ffffffff1660e01b81526004016020604051808303816000875af1158015620007bf573d6000803e3d6000fd5b505050506040513d601f19601f82011682018060405250810190620007e5919062001c16565b50620007f2838362000e1c565b6200086f8173ffffffffffffffffffffffffffffffffffffffff16633b1bebd16040518163ffffffff1660e01b8152600401602060405180830381865afa15801562000842573d6000803e3d6000fd5b505050506040513d601f19601f8201168201806040525081019062000868919062001c5f565b826200120d565b505050565b60015481565b6060600360008373ffffffffffffffffffffffffffffffffffffffff1673ffffffffffffffffffffffffffffffffffffffff1681526020019081526020016000206001018054806020026020016040519081016040528092919081815260200182805480156200094057602002820191906000526020600020905b8160009054906101000a900473ffffffffffffffffffffffffffffffffffffffff1673ffffffffffffffffffffffffffffffffffffffff1681526020019060010190808311620008f5575b50505050509050919050565b60006020528060005260406000206000915090508060000154905081565b60606000808373ffffffffffffffffffffffffffffffffffffffff1673ffffffffffffffffffffffffffffffffffffffff16815260200190815260200160002060020180548060200260200160405190810160405280929190818152602001828054801562000a2f57602002820191906000526020600020905b8160009054906101000a900473ffffffffffffffffffffffffffffffffffffffff1673ffffffffffffffffffffffffffffffffffffffff1681526020019060010190808311620009e4575b50505050509050919050565b60045481565b60008060003373ffffffffffffffffffffffffffffffffffffffff1673ffffffffffffffffffffffffffffffffffffffff16815260200190815260200160002060000154141562000b0a576001600081548092919062000aa19062001cc0565b91905055506002339080600181540180825580915050600190039060005260206000200160009091909190916101000a81548173ffffffffffffffffffffffffffffffffffffffff021916908373ffffffffffffffffffffffffffffffffffffffff1602179055505b6000600360008673ffffffffffffffffffffffffffffffffffffffff1673ffffffffffffffffffffffffffffffffffffffff16815260200190815260200160002060000154141562000bd4576004600081548092919062000b6b9062001cc0565b91905055506005849080600181540180825580915050600190039060005260206000200160009091909190916101000a81548173ffffffffffffffffffffffffffffffffffffffff021916908373ffffffffffffffffffffffffffffffffffffffff1602179055505b60003433868686863460405162000beb90620016f0565b62000bfc9695949392919062001e1d565b6040518091039082f090508015801562000c1a573d6000803e3d6000fd5b5090506000803373ffffffffffffffffffffffffffffffffffffffff1673ffffffffffffffffffffffffffffffffffffffff168152602001908152602001600020600001600081548092919062000c719062001cc0565b91905055506000803373ffffffffffffffffffffffffffffffffffffffff1673ffffffffffffffffffffffffffffffffffffffff168152602001908152602001600020600101819080600181540180825580915050600190039060005260206000200160009091909190916101000a81548173ffffffffffffffffffffffffffffffffffffffff021916908373ffffffffffffffffffffffffffffffffffffffff160217905550600360008673ffffffffffffffffffffffffffffffffffffffff1673ffffffffffffffffffffffffffffffffffffffff168152602001908152602001600020600001600081548092919062000d6d9062001cc0565b9190505550600360008673ffffffffffffffffffffffffffffffffffffffff1673ffffffffffffffffffffffffffffffffffffffff168152602001908152602001600020600101819080600181540180825580915050600190039060005260206000200160009091909190916101000a81548173ffffffffffffffffffffffffffffffffffffffff021916908373ffffffffffffffffffffffffffffffffffffffff1602179055505050505050565b60008060008473ffffffffffffffffffffffffffffffffffffffff1673ffffffffffffffffffffffffffffffffffffffff16815260200190815260200160002060010180549050905080821062000eaa576040517f08c379a000000000000000000000000000000000000000000000000000000000815260040162000ea19062001f0e565b60405180910390fd5b60008290505b60018262000ebf919062001f30565b8110156200100a576000808573ffffffffffffffffffffffffffffffffffffffff1673ffffffffffffffffffffffffffffffffffffffff16815260200190815260200160002060010160018262000f17919062001f6b565b8154811062000f2b5762000f2a62001ba2565b5b9060005260206000200160009054906101000a900473ffffffffffffffffffffffffffffffffffffffff166000808673ffffffffffffffffffffffffffffffffffffffff1673ffffffffffffffffffffffffffffffffffffffff168152602001908152602001600020600101828154811062000fac5762000fab62001ba2565b5b9060005260206000200160006101000a81548173ffffffffffffffffffffffffffffffffffffffff021916908373ffffffffffffffffffffffffffffffffffffffff1602179055508080620010019062001cc0565b91505062000eb0565b506000808473ffffffffffffffffffffffffffffffffffffffff1673ffffffffffffffffffffffffffffffffffffffff1681526020019081526020016000206002016000808573ffffffffffffffffffffffffffffffffffffffff1673ffffffffffffffffffffffffffffffffffffffff16815260200190815260200160002060010160016000808773ffffffffffffffffffffffffffffffffffffffff1673ffffffffffffffffffffffffffffffffffffffff16815260200190815260200160002060010180549050620010e0919062001f30565b81548110620010f457620010f362001ba2565b5b9060005260206000200160009054906101000a900473ffffffffffffffffffffffffffffffffffffffff169080600181540180825580915050600190039060005260206000200160009091909190916101000a81548173ffffffffffffffffffffffffffffffffffffffff021916908373ffffffffffffffffffffffffffffffffffffffff1602179055506000808473ffffffffffffffffffffffffffffffffffffffff1673ffffffffffffffffffffffffffffffffffffffff168152602001908152602001600020600101805480620011d357620011d262001fc8565b5b6001900381819060005260206000200160006101000a81549073ffffffffffffffffffffffffffffffffffffffff02191690559055505050565b600080600090505b6001600360008673ffffffffffffffffffffffffffffffffffffffff1673ffffffffffffffffffffffffffffffffffffffff1681526020019081526020016000206001018054905062001269919062001f30565b81101562001341578273ffffffffffffffffffffffffffffffffffffffff16600360008673ffffffffffffffffffffffffffffffffffffffff1673ffffffffffffffffffffffffffffffffffffffff1681526020019081526020016000206001018281548110620012df57620012de62001ba2565b5b9060005260206000200160009054906101000a900473ffffffffffffffffffffffffffffffffffffffff1673ffffffffffffffffffffffffffffffffffffffff1614156200132b578091505b8080620013389062001cc0565b91505062001215565b5060008190505b6001600360008673ffffffffffffffffffffffffffffffffffffffff1673ffffffffffffffffffffffffffffffffffffffff168152602001908152602001600020600101805490506200139c919062001f30565b811015620014e957600360008573ffffffffffffffffffffffffffffffffffffffff1673ffffffffffffffffffffffffffffffffffffffff168152602001908152602001600020600101600182620013f5919062001f6b565b8154811062001409576200140862001ba2565b5b9060005260206000200160009054906101000a900473ffffffffffffffffffffffffffffffffffffffff16600360008673ffffffffffffffffffffffffffffffffffffffff1673ffffffffffffffffffffffffffffffffffffffff16815260200190815260200160002060010182815481106200148b576200148a62001ba2565b5b9060005260206000200160006101000a81548173ffffffffffffffffffffffffffffffffffffffff021916908373ffffffffffffffffffffffffffffffffffffffff1602179055508080620014e09062001cc0565b91505062001348565b50600360008473ffffffffffffffffffffffffffffffffffffffff1673ffffffffffffffffffffffffffffffffffffffff168152602001908152602001600020600201600360008573ffffffffffffffffffffffffffffffffffffffff1673ffffffffffffffffffffffffffffffffffffffff1681526020019081526020016000206001016001600360008773ffffffffffffffffffffffffffffffffffffffff1673ffffffffffffffffffffffffffffffffffffffff16815260200190815260200160002060010180549050620015c2919062001f30565b81548110620015d657620015d562001ba2565b5b9060005260206000200160009054906101000a900473ffffffffffffffffffffffffffffffffffffffff169080600181540180825580915050600190039060005260206000200160009091909190916101000a81548173ffffffffffffffffffffffffffffffffffffffff021916908373ffffffffffffffffffffffffffffffffffffffff160217905550600360008473ffffffffffffffffffffffffffffffffffffffff1673ffffffffffffffffffffffffffffffffffffffff168152602001908152602001600020600201805480620016b657620016b562001fc8565b5b6001900381819060005260206000200160006101000a81549073ffffffffffffffffffffffffffffffffffffffff02191690559055505050565b61119c8062001ff883390190565b6000604051905090565b600080fd5b600080fd5b600073ffffffffffffffffffffffffffffffffffffffff82169050919050565b60006200173f8262001712565b9050919050565b620017518162001732565b81146200175d57600080fd5b50565b600081359050620017718162001746565b92915050565b60006020828403121562001790576200178f62001708565b5b6000620017a08482850162001760565b91505092915050565b600081519050919050565b600082825260208201905092915050565b6000819050602082019050919050565b620017e08162001732565b82525050565b6000620017f48383620017d5565b60208301905092915050565b6000602082019050919050565b60006200181a82620017a9565b620018268185620017b4565b93506200183383620017c5565b8060005b838110156200186a5781516200184e8882620017e6565b97506200185b8362001800565b92505060018101905062001837565b5085935050505092915050565b600060208201905081810360008301526200189381846200180d565b905092915050565b6000819050919050565b620018b0816200189b565b8114620018bc57600080fd5b50565b600081359050620018d081620018a5565b92915050565b60008060408385031215620018f057620018ef62001708565b5b6000620019008582860162001760565b92505060206200191385828601620018bf565b9150509250929050565b62001928816200189b565b82525050565b60006020820190506200194560008301846200191d565b92915050565b600080fd5b600080fd5b6000601f19601f8301169050919050565b7f4e487b7100000000000000000000000000000000000000000000000000000000600052604160045260246000fd5b620019a08262001955565b810181811067ffffffffffffffff82111715620019c257620019c162001966565b5b80604052505050565b6000620019d7620016fe565b9050620019e5828262001995565b919050565b600067ffffffffffffffff82111562001a085762001a0762001966565b5b62001a138262001955565b9050602081019050919050565b82818337600083830152505050565b600062001a4662001a4084620019ea565b620019cb565b90508281526020810184848401111562001a655762001a6462001950565b5b62001a7284828562001a20565b509392505050565b600082601f83011262001a925762001a916200194b565b5b813562001aa484826020860162001a2f565b91505092915050565b600062001aba8262001712565b9050919050565b62001acc8162001aad565b811462001ad857600080fd5b50565b60008135905062001aec8162001ac1565b92915050565b6000806000806080858703121562001b0f5762001b0e62001708565b5b600062001b1f8782880162001760565b945050602085013567ffffffffffffffff81111562001b435762001b426200170d565b5b62001b518782880162001a7a565b935050604085013567ffffffffffffffff81111562001b755762001b746200170d565b5b62001b838782880162001a7a565b925050606062001b968782880162001adb565b91505092959194509250565b7f4e487b7100000000000000000000000000000000000000000000000000000000600052603260045260246000fd5b600062001bde8262001732565b9050919050565b62001bf08162001bd1565b811462001bfc57600080fd5b50565b60008151905062001c108162001be5565b92915050565b60006020828403121562001c2f5762001c2e62001708565b5b600062001c3f8482850162001bff565b91505092915050565b60008151905062001c598162001746565b92915050565b60006020828403121562001c785762001c7762001708565b5b600062001c888482850162001c48565b91505092915050565b7f4e487b7100000000000000000000000000000000000000000000000000000000600052601160045260246000fd5b600062001ccd826200189b565b91507fffffffffffffffffffffffffffffffffffffffffffffffffffffffffffffffff82141562001d035762001d0262001c91565b5b600182019050919050565b62001d198162001732565b82525050565b600081519050919050565b600082825260208201905092915050565b60005b8381101562001d5b57808201518184015260208101905062001d3e565b8381111562001d6b576000848401525b50505050565b600062001d7e8262001d1f565b62001d8a818562001d2a565b935062001d9c81856020860162001d3b565b62001da78162001955565b840191505092915050565b6000819050919050565b600062001ddd62001dd762001dd18462001712565b62001db2565b62001712565b9050919050565b600062001df18262001dbc565b9050919050565b600062001e058262001de4565b9050919050565b62001e178162001df8565b82525050565b600060c08201905062001e34600083018962001d0e565b62001e43602083018862001d0e565b818103604083015262001e57818762001d71565b9050818103606083015262001e6d818662001d71565b905062001e7e608083018562001e0c565b62001e8d60a08301846200191d565b979650505050505050565b7f4f70656e20636f6e747261637420696e646578206f7574206f6620626f756e6460008201527f7300000000000000000000000000000000000000000000000000000000000000602082015250565b600062001ef660218362001d2a565b915062001f038262001e98565b604082019050919050565b6000602082019050818103600083015262001f298162001ee7565b9050919050565b600062001f3d826200189b565b915062001f4a836200189b565b92508282101562001f605762001f5f62001c91565b5b828203905092915050565b600062001f78826200189b565b915062001f85836200189b565b9250827fffffffffffffffffffffffffffffffffffffffffffffffffffffffffffffffff0382111562001fbd5762001fbc62001c91565b5b828201905092915050565b7f4e487b7100000000000000000000000000000000000000000000000000000000600052603160045260246000fdfe60806040526040516200119c3803806200119c83398181016040528101906200002991906200044b565b856000806101000a81548173ffffffffffffffffffffffffffffffffffffffff021916908373ffffffffffffffffffffffffffffffffffffffff16021790555084600160006101000a81548173ffffffffffffffffffffffffffffffffffffffff021916908373ffffffffffffffffffffffffffffffffffffffff1602179055508360029080519060200190620000c29291906200015e565b508260039080519060200190620000db9291906200015e565b5081600460006101000a81548173ffffffffffffffffffffffffffffffffffffffff021916908373ffffffffffffffffffffffffffffffffffffffff160217905550806005819055506000600660006101000a81548160ff021916908360028111156200014d576200014c62000525565b5b0217905550505050505050620005b9565b8280546200016c9062000583565b90600052602060002090601f016020900481019282620001905760008555620001dc565b82601f10620001ab57805160ff1916838001178555620001dc565b82800160010185558215620001dc579182015b82811115620001db578251825591602001919060010190620001be565b5b509050620001eb9190620001ef565b5090565b5b808211156200020a576000816000905550600101620001f0565b5090565b6000604051905090565b600080fd5b600080fd5b600073ffffffffffffffffffffffffffffffffffffffff82169050919050565b60006200024f8262000222565b9050919050565b620002618162000242565b81146200026d57600080fd5b50565b600081519050620002818162000256565b92915050565b600080fd5b600080fd5b6000601f19601f8301169050919050565b7f4e487b7100000000000000000000000000000000000000000000000000000000600052604160045260246000fd5b620002dc8262000291565b810181811067ffffffffffffffff82111715620002fe57620002fd620002a2565b5b80604052505050565b6000620003136200020e565b9050620003218282620002d1565b919050565b600067ffffffffffffffff821115620003445762000343620002a2565b5b6200034f8262000291565b9050602081019050919050565b60005b838110156200037c5780820151818401526020810190506200035f565b838111156200038c576000848401525b50505050565b6000620003a9620003a38462000326565b62000307565b905082815260208101848484011115620003c857620003c76200028c565b5b620003d58482856200035c565b509392505050565b600082601f830112620003f557620003f462000287565b5b81516200040784826020860162000392565b91505092915050565b6000819050919050565b620004258162000410565b81146200043157600080fd5b50565b60008151905062000445816200041a565b92915050565b60008060008060008060c087890312156200046b576200046a62000218565b5b60006200047b89828a0162000270565b96505060206200048e89828a0162000270565b955050604087015167ffffffffffffffff811115620004b257620004b16200021d565b5b620004c089828a01620003dd565b945050606087015167ffffffffffffffff811115620004e457620004e36200021d565b5b620004f289828a01620003dd565b93505060806200050589828a0162000270565b92505060a06200051889828a0162000434565b9150509295509295509295565b7f4e487b7100000000000000000000000000000000000000000000000000000000600052602160045260246000fd5b7f4e487b7100000000000000000000000000000000000000000000000000000000600052602260045260246000fd5b600060028204905060018216806200059c57607f821691505b60208210811415620005b357620005b262000554565b5b50919050565b610bd380620005c96000396000f3fe6080604052600436106100865760003560e01c80633b1bebd1116100595780633b1bebd11461012a5780634177fe51146101555780637284e41614610180578063aa8c217c146101ab578063b4fedc11146101d657610086565b806302d05d3f1461008b57806306fdde03146100b6578063200d2ed2146100e15780632d398fa61461010c575b600080fd5b34801561009757600080fd5b506100a06101f4565b6040516100ad9190610770565b60405180910390f35b3480156100c257600080fd5b506100cb610218565b6040516100d89190610824565b60405180910390f35b3480156100ed57600080fd5b506100f66102a6565b60405161010391906108bd565b60405180910390f35b6101146102b9565b6040516101219190610937565b60405180910390f35b34801561013657600080fd5b5061013f6104b0565b60405161014c9190610770565b60405180910390f35b34801561016157600080fd5b5061016a6104d6565b6040516101779190610770565b60405180910390f35b34801561018c57600080fd5b506101956104fc565b6040516101a29190610824565b60405180910390f35b3480156101b757600080fd5b506101c061058a565b6040516101cd919061096b565b60405180910390f35b6101de610590565b6040516101eb9190610937565b60405180910390f35b60008054906101000a900473ffffffffffffffffffffffffffffffffffffffff1681565b60028054610225906109b5565b80601f0160208091040260200160405190810160405280929190818152602001828054610251906109b5565b801561029e5780601f106102735761010080835404028352916020019161029e565b820191906000526020600020905b81548152906001019060200180831161028157829003601f168201915b505050505081565b600660009054906101000a900460ff1681565b60008060028111156102ce576102cd610846565b5b600660009054906101000a900460ff1660028111156102f0576102ef610846565b5b14610330576040517f08c379a000000000000000000000000000000000000000000000000000000000815260040161032790610a59565b60405180910390fd5b600160009054906101000a900473ffffffffffffffffffffffffffffffffffffffff1673ffffffffffffffffffffffffffffffffffffffff163273ffffffffffffffffffffffffffffffffffffffff1614806103d7575060008054906101000a900473ffffffffffffffffffffffffffffffffffffffff1673ffffffffffffffffffffffffffffffffffffffff163273ffffffffffffffffffffffffffffffffffffffff16145b610416576040517f08c379a000000000000000000000000000000000000000000000000000000000815260040161040d90610aeb565b60405180910390fd5b600460009054906101000a900473ffffffffffffffffffffffffffffffffffffffff1673ffffffffffffffffffffffffffffffffffffffff166108fc479081150290604051600060405180830381858888f1935050505015801561047e573d6000803e3d6000fd5b506002600660006101000a81548160ff021916908360028111156104a5576104a4610846565b5b021790555030905090565b600160009054906101000a900473ffffffffffffffffffffffffffffffffffffffff1681565b600460009054906101000a900473ffffffffffffffffffffffffffffffffffffffff1681565b60038054610509906109b5565b80601f0160208091040260200160405190810160405280929190818152602001828054610535906109b5565b80156105825780601f1061055757610100808354040283529160200191610582565b820191906000526020600020905b81548152906001019060200180831161056557829003601f168201915b505050505081565b60055481565b60008060028111156105a5576105a4610846565b5b600660009054906101000a900460ff1660028111156105c7576105c6610846565b5b14610607576040517f08c379a00000000000000000000000000000000000000000000000000000000081526004016105fe90610a59565b60405180910390fd5b600160009054906101000a900473ffffffffffffffffffffffffffffffffffffffff1673ffffffffffffffffffffffffffffffffffffffff163273ffffffffffffffffffffffffffffffffffffffff1614610697576040517f08c379a000000000000000000000000000000000000000000000000000000000815260040161068e90610b7d565b60405180910390fd5b60008054906101000a900473ffffffffffffffffffffffffffffffffffffffff1673ffffffffffffffffffffffffffffffffffffffff166108fc479081150290604051600060405180830381858888f193505050501580156106fd573d6000803e3d6000fd5b506001600660006101000a81548160ff0219169083600281111561072457610723610846565b5b021790555030905090565b600073ffffffffffffffffffffffffffffffffffffffff82169050919050565b600061075a8261072f565b9050919050565b61076a8161074f565b82525050565b60006020820190506107856000830184610761565b92915050565b600081519050919050565b600082825260208201905092915050565b60005b838110156107c55780820151818401526020810190506107aa565b838111156107d4576000848401525b50505050565b6000601f19601f8301169050919050565b60006107f68261078b565b6108008185610796565b93506108108185602086016107a7565b610819816107da565b840191505092915050565b6000602082019050818103600083015261083e81846107eb565b905092915050565b7f4e487b7100000000000000000000000000000000000000000000000000000000600052602160045260246000fd5b6003811061088657610885610846565b5b50565b600081905061089782610875565b919050565b60006108a782610889565b9050919050565b6108b78161089c565b82525050565b60006020820190506108d260008301846108ae565b92915050565b6000819050919050565b60006108fd6108f86108f38461072f565b6108d8565b61072f565b9050919050565b600061090f826108e2565b9050919050565b600061092182610904565b9050919050565b61093181610916565b82525050565b600060208201905061094c6000830184610928565b92915050565b6000819050919050565b61096581610952565b82525050565b6000602082019050610980600083018461095c565b92915050565b7f4e487b7100000000000000000000000000000000000000000000000000000000600052602260045260246000fd5b600060028204905060018216806109cd57607f821691505b602082108114156109e1576109e0610986565b5b50919050565b7f436f6e747261637420737461747573206973206e6f7420657175616c20746f2060008201527f6f70656e00000000000000000000000000000000000000000000000000000000602082015250565b6000610a43602483610796565b9150610a4e826109e7565b604082019050919050565b60006020820190508181036000830152610a7281610a36565b9050919050565b7f4f6e6c792072656665726565206f722063726561746f722063616e206661696c60008201527f20636f6e74726163740000000000000000000000000000000000000000000000602082015250565b6000610ad5602983610796565b9150610ae082610a79565b604082019050919050565b60006020820190508181036000830152610b0481610ac8565b9050919050565b7f4f6e6c7920726566657265652063616e20636f6d706c657465206120636f6e7460008201527f7261637400000000000000000000000000000000000000000000000000000000602082015250565b6000610b67602483610796565b9150610b7282610b0b565b604082019050919050565b60006020820190508181036000830152610b9681610b5a565b905091905056fea264697066735822122098d72a8b1386cd1ee3fa161c23925dc97e750b0ee15fba12ff98109fe7363c9c64736f6c634300080c0033a26469706673582212206574316a544326904827fef5de0cf8c45619a890ea3393e1c70a09ec71b430ea64736f6c634300080c0033","opcodes":"PUSH1 0x80 PUSH1 0x40 MSTORE CALLVALUE DUP1 ISZERO PUSH2 0x10 JUMPI PUSH1 0x0 DUP1 REVERT JUMPDEST POP PUSH2 0x31C9 DUP1 PUSH2 0x20 PUSH1 0x0 CODECOPY PUSH1 0x0 RETURN INVALID PUSH1 0x80 PUSH1 0x40 MSTORE PUSH1 0x4 CALLDATASIZE LT PUSH3 0xAA JUMPI PUSH1 0x0 CALLDATALOAD PUSH1 0xE0 SHR DUP1 PUSH4 0x75CE46A7 GT PUSH3 0x6D JUMPI DUP1 PUSH4 0x75CE46A7 EQ PUSH3 0x1D7 JUMPI DUP1 PUSH4 0x9051E234 EQ PUSH3 0x207 JUMPI DUP1 PUSH4 0xA87430BA EQ PUSH3 0x24B JUMPI DUP1 PUSH4 0xB24E67D0 EQ PUSH3 0x28F JUMPI DUP1 PUSH4 0xB3B6633E EQ PUSH3 0x2D3 JUMPI DUP1 PUSH4 0xE436E826 EQ PUSH3 0x303 JUMPI PUSH3 0xAA JUMP JUMPDEST DUP1 PUSH4 0x19EE8BD4 EQ PUSH3 0xAF JUMPI DUP1 PUSH4 0x2BC7DECC EQ PUSH3 0xF3 JUMPI DUP1 PUSH4 0x442A7BC7 EQ PUSH3 0x121 JUMPI DUP1 PUSH4 0x64A60B47 EQ PUSH3 0x165 JUMPI DUP1 PUSH4 0x74BAA69C EQ PUSH3 0x1A9 JUMPI JUMPDEST PUSH1 0x0 DUP1 REVERT JUMPDEST CALLVALUE DUP1 ISZERO PUSH3 0xBC JUMPI PUSH1 0x0 DUP1 REVERT JUMPDEST POP PUSH3 0xDB PUSH1 0x4 DUP1 CALLDATASIZE SUB DUP2 ADD SWAP1 PUSH3 0xD5 SWAP2 SWAP1 PUSH3 0x1777 JUMP JUMPDEST PUSH3 0x323 JUMP JUMPDEST PUSH1 0x40 MLOAD PUSH3 0xEA SWAP2 SWAP1 PUSH3 0x1877 JUMP JUMPDEST PUSH1 0x40 MLOAD DUP1 SWAP2 SUB SWAP1 RETURN JUMPDEST CALLVALUE DUP1 ISZERO PUSH3 0x100 JUMPI PUSH1 0x0 DUP1 REVERT JUMPDEST POP PUSH3 0x11F PUSH1 0x4 DUP1 CALLDATASIZE SUB DUP2 ADD SWAP1 PUSH3 0x119 SWAP2 SWAP1 PUSH3 0x18D6 JUMP JUMPDEST PUSH3 0x3F5 JUMP JUMPDEST STOP JUMPDEST CALLVALUE DUP1 ISZERO PUSH3 0x12E JUMPI PUSH1 0x0 DUP1 REVERT JUMPDEST POP PUSH3 0x14D PUSH1 0x4 DUP1 CALLDATASIZE SUB DUP2 ADD SWAP1 PUSH3 0x147 SWAP2 SWAP1 PUSH3 0x1777 JUMP JUMPDEST PUSH3 0x5FD JUMP JUMPDEST PUSH1 0x40 MLOAD PUSH3 0x15C SWAP2 SWAP1 PUSH3 0x1877 JUMP JUMPDEST PUSH1 0x40 MLOAD DUP1 SWAP2 SUB SWAP1 RETURN JUMPDEST CALLVALUE DUP1 ISZERO PUSH3 0x172 JUMPI PUSH1 0x0 DUP1 REVERT JUMPDEST POP PUSH3 0x191 PUSH1 0x4 DUP1 CALLDATASIZE SUB DUP2 ADD SWAP1 PUSH3 0x18B SWAP2 SWAP1 PUSH3 0x1777 JUMP JUMPDEST PUSH3 0x6CE JUMP JUMPDEST PUSH1 0x40 MLOAD PUSH3 0x1A0 SWAP2 SWAP1 PUSH3 0x192E JUMP JUMPDEST PUSH1 0x40 MLOAD DUP1 SWAP2 SUB SWAP1 RETURN JUMPDEST CALLVALUE DUP1 ISZERO PUSH3 0x1B6 JUMPI PUSH1 0x0 DUP1 REVERT JUMPDEST POP PUSH3 0x1D5 PUSH1 0x4 DUP1 CALLDATASIZE SUB DUP2 ADD SWAP1 PUSH3 0x1CF SWAP2 SWAP1 PUSH3 0x18D6 JUMP JUMPDEST PUSH3 0x6EC JUMP JUMPDEST STOP JUMPDEST CALLVALUE DUP1 ISZERO PUSH3 0x1E4 JUMPI PUSH1 0x0 DUP1 REVERT JUMPDEST POP PUSH3 0x1EF PUSH3 0x874 JUMP JUMPDEST PUSH1 0x40 MLOAD PUSH3 0x1FE SWAP2 SWAP1 PUSH3 0x192E JUMP JUMPDEST PUSH1 0x40 MLOAD DUP1 SWAP2 SUB SWAP1 RETURN JUMPDEST CALLVALUE DUP1 ISZERO PUSH3 0x214 JUMPI PUSH1 0x0 DUP1 REVERT JUMPDEST POP PUSH3 0x233 PUSH1 0x4 DUP1 CALLDATASIZE SUB DUP2 ADD SWAP1 PUSH3 0x22D SWAP2 SWAP1 PUSH3 0x1777 JUMP JUMPDEST PUSH3 0x87A JUMP JUMPDEST PUSH1 0x40 MLOAD PUSH3 0x242 SWAP2 SWAP1 PUSH3 0x1877 JUMP JUMPDEST PUSH1 0x40 MLOAD DUP1 SWAP2 SUB SWAP1 RETURN JUMPDEST CALLVALUE DUP1 ISZERO PUSH3 0x258 JUMPI PUSH1 0x0 DUP1 REVERT JUMPDEST POP PUSH3 0x277 PUSH1 0x4 DUP1 CALLDATASIZE SUB DUP2 ADD SWAP1 PUSH3 0x271 SWAP2 SWAP1 PUSH3 0x1777 JUMP JUMPDEST PUSH3 0x94C JUMP JUMPDEST PUSH1 0x40 MLOAD PUSH3 0x286 SWAP2 SWAP1 PUSH3 0x192E JUMP JUMPDEST PUSH1 0x40 MLOAD DUP1 SWAP2 SUB SWAP1 RETURN JUMPDEST CALLVALUE DUP1 ISZERO PUSH3 0x29C JUMPI PUSH1 0x0 DUP1 REVERT JUMPDEST POP PUSH3 0x2BB PUSH1 0x4 DUP1 CALLDATASIZE SUB DUP2 ADD SWAP1 PUSH3 0x2B5 SWAP2 SWAP1 PUSH3 0x1777 JUMP JUMPDEST PUSH3 0x96A JUMP JUMPDEST PUSH1 0x40 MLOAD PUSH3 0x2CA SWAP2 SWAP1 PUSH3 0x1877 JUMP JUMPDEST PUSH1 0x40 MLOAD DUP1 SWAP2 SUB SWAP1 RETURN JUMPDEST CALLVALUE DUP1 ISZERO PUSH3 0x2E0 JUMPI PUSH1 0x0 DUP1 REVERT JUMPDEST POP PUSH3 0x2EB PUSH3 0xA3B JUMP JUMPDEST PUSH1 0x40 MLOAD PUSH3 0x2FA SWAP2 SWAP1 PUSH3 0x192E JUMP JUMPDEST PUSH1 0x40 MLOAD DUP1 SWAP2 SUB SWAP1 RETURN JUMPDEST PUSH3 0x321 PUSH1 0x4 DUP1 CALLDATASIZE SUB DUP2 ADD SWAP1 PUSH3 0x31B SWAP2 SWAP1 PUSH3 0x1AF2 JUMP JUMPDEST PUSH3 0xA41 JUMP JUMPDEST STOP JUMPDEST PUSH1 0x60 PUSH1 0x3 PUSH1 0x0 DUP4 PUSH20 0xFFFFFFFFFFFFFFFFFFFFFFFFFFFFFFFFFFFFFFFF AND PUSH20 0xFFFFFFFFFFFFFFFFFFFFFFFFFFFFFFFFFFFFFFFF AND DUP2 MSTORE PUSH1 0x20 ADD SWAP1 DUP2 MSTORE PUSH1 0x20 ADD PUSH1 0x0 KECCAK256 PUSH1 0x2 ADD DUP1 SLOAD DUP1 PUSH1 0x20 MUL PUSH1 0x20 ADD PUSH1 0x40 MLOAD SWAP1 DUP2 ADD PUSH1 0x40 MSTORE DUP1 SWAP3 SWAP2 SWAP1 DUP2 DUP2 MSTORE PUSH1 0x20 ADD DUP3 DUP1 SLOAD DUP1 ISZERO PUSH3 0x3E9 JUMPI PUSH1 0x20 MUL DUP3 ADD SWAP2 SWAP1 PUSH1 0x0 MSTORE PUSH1 0x20 PUSH1 0x0 KECCAK256 SWAP1 JUMPDEST DUP2 PUSH1 0x0 SWAP1 SLOAD SWAP1 PUSH2 0x100 EXP SWAP1 DIV PUSH20 0xFFFFFFFFFFFFFFFFFFFFFFFFFFFFFFFFFFFFFFFF AND PUSH20 0xFFFFFFFFFFFFFFFFFFFFFFFFFFFFFFFFFFFFFFFF AND DUP2 MSTORE PUSH1 0x20 ADD SWAP1 PUSH1 0x1 ADD SWAP1 DUP1 DUP4 GT PUSH3 0x39E JUMPI JUMPDEST POP POP POP POP POP SWAP1 POP SWAP2 SWAP1 POP JUMP JUMPDEST PUSH1 0x0 DUP1 PUSH1 0x0 DUP5 PUSH20 0xFFFFFFFFFFFFFFFFFFFFFFFFFFFFFFFFFFFFFFFF AND PUSH20 0xFFFFFFFFFFFFFFFFFFFFFFFFFFFFFFFFFFFFFFFF AND DUP2 MSTORE PUSH1 0x20 ADD SWAP1 DUP2 MSTORE PUSH1 0x20 ADD PUSH1 0x0 KECCAK256 PUSH1 0x1 ADD DUP3 DUP2 SLOAD DUP2 LT PUSH3 0x44D JUMPI PUSH3 0x44C PUSH3 0x1BA2 JUMP JUMPDEST JUMPDEST SWAP1 PUSH1 0x0 MSTORE PUSH1 0x20 PUSH1 0x0 KECCAK256 ADD PUSH1 0x0 SWAP1 SLOAD SWAP1 PUSH2 0x100 EXP SWAP1 DIV PUSH20 0xFFFFFFFFFFFFFFFFFFFFFFFFFFFFFFFFFFFFFFFF AND SWAP1 POP DUP1 PUSH20 0xFFFFFFFFFFFFFFFFFFFFFFFFFFFFFFFFFFFFFFFF AND PUSH4 0xB4FEDC11 PUSH1 0x40 MLOAD DUP2 PUSH4 0xFFFFFFFF AND PUSH1 0xE0 SHL DUP2 MSTORE PUSH1 0x4 ADD PUSH1 0x20 PUSH1 0x40 MLOAD DUP1 DUP4 SUB DUP2 PUSH1 0x0 DUP8 GAS CALL ISZERO DUP1 ISZERO PUSH3 0x4C8 JUMPI RETURNDATASIZE PUSH1 0x0 DUP1 RETURNDATACOPY RETURNDATASIZE PUSH1 0x0 REVERT JUMPDEST POP POP POP POP PUSH1 0x40 MLOAD RETURNDATASIZE PUSH1 0x1F NOT PUSH1 0x1F DUP3 ADD AND DUP3 ADD DUP1 PUSH1 0x40 MSTORE POP DUP2 ADD SWAP1 PUSH3 0x4EE SWAP2 SWAP1 PUSH3 0x1C16 JUMP JUMPDEST POP PUSH3 0x4FB DUP4 DUP4 PUSH3 0xE1C JUMP JUMPDEST PUSH3 0x5F8 DUP2 PUSH20 0xFFFFFFFFFFFFFFFFFFFFFFFFFFFFFFFFFFFFFFFF AND PUSH4 0x3B1BEBD1 PUSH1 0x40 MLOAD DUP2 PUSH4 0xFFFFFFFF AND PUSH1 0xE0 SHL DUP2 MSTORE PUSH1 0x4 ADD PUSH1 0x20 PUSH1 0x40 MLOAD DUP1 DUP4 SUB DUP2 DUP7 GAS STATICCALL ISZERO DUP1 ISZERO PUSH3 0x54B JUMPI RETURNDATASIZE PUSH1 0x0 DUP1 RETURNDATACOPY RETURNDATASIZE PUSH1 0x0 REVERT JUMPDEST POP POP POP POP PUSH1 0x40 MLOAD RETURNDATASIZE PUSH1 0x1F NOT PUSH1 0x1F DUP3 ADD AND DUP3 ADD DUP1 PUSH1 0x40 MSTORE POP DUP2 ADD SWAP1 PUSH3 0x571 SWAP2 SWAP1 PUSH3 0x1C5F JUMP JUMPDEST PUSH1 0x0 DUP1 DUP7 PUSH20 0xFFFFFFFFFFFFFFFFFFFFFFFFFFFFFFFFFFFFFFFF AND PUSH20 0xFFFFFFFFFFFFFFFFFFFFFFFFFFFFFFFFFFFFFFFF AND DUP2 MSTORE PUSH1 0x20 ADD SWAP1 DUP2 MSTORE PUSH1 0x20 ADD PUSH1 0x0 KECCAK256 PUSH1 0x1 ADD DUP5 DUP2 SLOAD DUP2 LT PUSH3 0x5C7 JUMPI PUSH3 0x5C6 PUSH3 0x1BA2 JUMP JUMPDEST JUMPDEST SWAP1 PUSH1 0x0 MSTORE PUSH1 0x20 PUSH1 0x0 KECCAK256 ADD PUSH1 0x0 SWAP1 SLOAD SWAP1 PUSH2 0x100 EXP SWAP1 DIV PUSH20 0xFFFFFFFFFFFFFFFFFFFFFFFFFFFFFFFFFFFFFFFF AND PUSH3 0x120D JUMP JUMPDEST POP POP POP JUMP JUMPDEST PUSH1 0x60 PUSH1 0x0 DUP1 DUP4 PUSH20 0xFFFFFFFFFFFFFFFFFFFFFFFFFFFFFFFFFFFFFFFF AND PUSH20 0xFFFFFFFFFFFFFFFFFFFFFFFFFFFFFFFFFFFFFFFF AND DUP2 MSTORE PUSH1 0x20 ADD SWAP1 DUP2 MSTORE PUSH1 0x20 ADD PUSH1 0x0 KECCAK256 PUSH1 0x1 ADD DUP1 SLOAD DUP1 PUSH1 0x20 MUL PUSH1 0x20 ADD PUSH1 0x40 MLOAD SWAP1 DUP2 ADD PUSH1 0x40 MSTORE DUP1 SWAP3 SWAP2 SWAP1 DUP2 DUP2 MSTORE PUSH1 0x20 ADD DUP3 DUP1 SLOAD DUP1 ISZERO PUSH3 0x6C2 JUMPI PUSH1 0x20 MUL DUP3 ADD SWAP2 SWAP1 PUSH1 0x0 MSTORE PUSH1 0x20 PUSH1 0x0 KECCAK256 SWAP1 JUMPDEST DUP2 PUSH1 0x0 SWAP1 SLOAD SWAP1 PUSH2 0x100 EXP SWAP1 DIV PUSH20 0xFFFFFFFFFFFFFFFFFFFFFFFFFFFFFFFFFFFFFFFF AND PUSH20 0xFFFFFFFFFFFFFFFFFFFFFFFFFFFFFFFFFFFFFFFF AND DUP2 MSTORE PUSH1 0x20 ADD SWAP1 PUSH1 0x1 ADD SWAP1 DUP1 DUP4 GT PUSH3 0x677 JUMPI JUMPDEST POP POP POP POP POP SWAP1 POP SWAP2 SWAP1 POP JUMP JUMPDEST PUSH1 0x3 PUSH1 0x20 MSTORE DUP1 PUSH1 0x0 MSTORE PUSH1 0x40 PUSH1 0x0 KECCAK256 PUSH1 0x0 SWAP2 POP SWAP1 POP DUP1 PUSH1 0x0 ADD SLOAD SWAP1 POP DUP2 JUMP JUMPDEST PUSH1 0x0 DUP1 PUSH1 0x0 DUP5 PUSH20 0xFFFFFFFFFFFFFFFFFFFFFFFFFFFFFFFFFFFFFFFF AND PUSH20 0xFFFFFFFFFFFFFFFFFFFFFFFFFFFFFFFFFFFFFFFF AND DUP2 MSTORE PUSH1 0x20 ADD SWAP1 DUP2 MSTORE PUSH1 0x20 ADD PUSH1 0x0 KECCAK256 PUSH1 0x1 ADD DUP3 DUP2 SLOAD DUP2 LT PUSH3 0x744 JUMPI PUSH3 0x743 PUSH3 0x1BA2 JUMP JUMPDEST JUMPDEST SWAP1 PUSH1 0x0 MSTORE PUSH1 0x20 PUSH1 0x0 KECCAK256 ADD PUSH1 0x0 SWAP1 SLOAD SWAP1 PUSH2 0x100 EXP SWAP1 DIV PUSH20 0xFFFFFFFFFFFFFFFFFFFFFFFFFFFFFFFFFFFFFFFF AND SWAP1 POP DUP1 PUSH20 0xFFFFFFFFFFFFFFFFFFFFFFFFFFFFFFFFFFFFFFFF AND PUSH4 0x2D398FA6 PUSH1 0x40 MLOAD DUP2 PUSH4 0xFFFFFFFF AND PUSH1 0xE0 SHL DUP2 MSTORE PUSH1 0x4 ADD PUSH1 0x20 PUSH1 0x40 MLOAD DUP1 DUP4 SUB DUP2 PUSH1 0x0 DUP8 GAS CALL ISZERO DUP1 ISZERO PUSH3 0x7BF JUMPI RETURNDATASIZE PUSH1 0x0 DUP1 RETURNDATACOPY RETURNDATASIZE PUSH1 0x0 REVERT JUMPDEST POP POP POP POP PUSH1 0x40 MLOAD RETURNDATASIZE PUSH1 0x1F NOT PUSH1 0x1F DUP3 ADD AND DUP3 ADD DUP1 PUSH1 0x40 MSTORE POP DUP2 ADD SWAP1 PUSH3 0x7E5 SWAP2 SWAP1 PUSH3 0x1C16 JUMP JUMPDEST POP PUSH3 0x7F2 DUP4 DUP4 PUSH3 0xE1C JUMP JUMPDEST PUSH3 0x86F DUP2 PUSH20 0xFFFFFFFFFFFFFFFFFFFFFFFFFFFFFFFFFFFFFFFF AND PUSH4 0x3B1BEBD1 PUSH1 0x40 MLOAD DUP2 PUSH4 0xFFFFFFFF AND PUSH1 0xE0 SHL DUP2 MSTORE PUSH1 0x4 ADD PUSH1 0x20 PUSH1 0x40 MLOAD DUP1 DUP4 SUB DUP2 DUP7 GAS STATICCALL ISZERO DUP1 ISZERO PUSH3 0x842 JUMPI RETURNDATASIZE PUSH1 0x0 DUP1 RETURNDATACOPY RETURNDATASIZE PUSH1 0x0 REVERT JUMPDEST POP POP POP POP PUSH1 0x40 MLOAD RETURNDATASIZE PUSH1 0x1F NOT PUSH1 0x1F DUP3 ADD AND DUP3 ADD DUP1 PUSH1 0x40 MSTORE POP DUP2 ADD SWAP1 PUSH3 0x868 SWAP2 SWAP1 PUSH3 0x1C5F JUMP JUMPDEST DUP3 PUSH3 0x120D JUMP JUMPDEST POP POP POP JUMP JUMPDEST PUSH1 0x1 SLOAD DUP2 JUMP JUMPDEST PUSH1 0x60 PUSH1 0x3 PUSH1 0x0 DUP4 PUSH20 0xFFFFFFFFFFFFFFFFFFFFFFFFFFFFFFFFFFFFFFFF AND PUSH20 0xFFFFFFFFFFFFFFFFFFFFFFFFFFFFFFFFFFFFFFFF AND DUP2 MSTORE PUSH1 0x20 ADD SWAP1 DUP2 MSTORE PUSH1 0x20 ADD PUSH1 0x0 KECCAK256 PUSH1 0x1 ADD DUP1 SLOAD DUP1 PUSH1 0x20 MUL PUSH1 0x20 ADD PUSH1 0x40 MLOAD SWAP1 DUP2 ADD PUSH1 0x40 MSTORE DUP1 SWAP3 SWAP2 SWAP1 DUP2 DUP2 MSTORE PUSH1 0x20 ADD DUP3 DUP1 SLOAD DUP1 ISZERO PUSH3 0x940 JUMPI PUSH1 0x20 MUL DUP3 ADD SWAP2 SWAP1 PUSH1 0x0 MSTORE PUSH1 0x20 PUSH1 0x0 KECCAK256 SWAP1 JUMPDEST DUP2 PUSH1 0x0 SWAP1 SLOAD SWAP1 PUSH2 0x100 EXP SWAP1 DIV PUSH20 0xFFFFFFFFFFFFFFFFFFFFFFFFFFFFFFFFFFFFFFFF AND PUSH20 0xFFFFFFFFFFFFFFFFFFFFFFFFFFFFFFFFFFFFFFFF AND DUP2 MSTORE PUSH1 0x20 ADD SWAP1 PUSH1 0x1 ADD SWAP1 DUP1 DUP4 GT PUSH3 0x8F5 JUMPI JUMPDEST POP POP POP POP POP SWAP1 POP SWAP2 SWAP1 POP JUMP JUMPDEST PUSH1 0x0 PUSH1 0x20 MSTORE DUP1 PUSH1 0x0 MSTORE PUSH1 0x40 PUSH1 0x0 KECCAK256 PUSH1 0x0 SWAP2 POP SWAP1 POP DUP1 PUSH1 0x0 ADD SLOAD SWAP1 POP DUP2 JUMP JUMPDEST PUSH1 0x60 PUSH1 0x0 DUP1 DUP4 PUSH20 0xFFFFFFFFFFFFFFFFFFFFFFFFFFFFFFFFFFFFFFFF AND PUSH20 0xFFFFFFFFFFFFFFFFFFFFFFFFFFFFFFFFFFFFFFFF AND DUP2 MSTORE PUSH1 0x20 ADD SWAP1 DUP2 MSTORE PUSH1 0x20 ADD PUSH1 0x0 KECCAK256 PUSH1 0x2 ADD DUP1 SLOAD DUP1 PUSH1 0x20 MUL PUSH1 0x20 ADD PUSH1 0x40 MLOAD SWAP1 DUP2 ADD PUSH1 0x40 MSTORE DUP1 SWAP3 SWAP2 SWAP1 DUP2 DUP2 MSTORE PUSH1 0x20 ADD DUP3 DUP1 SLOAD DUP1 ISZERO PUSH3 0xA2F JUMPI PUSH1 0x20 MUL DUP3 ADD SWAP2 SWAP1 PUSH1 0x0 MSTORE PUSH1 0x20 PUSH1 0x0 KECCAK256 SWAP1 JUMPDEST DUP2 PUSH1 0x0 SWAP1 SLOAD SWAP1 PUSH2 0x100 EXP SWAP1 DIV PUSH20 0xFFFFFFFFFFFFFFFFFFFFFFFFFFFFFFFFFFFFFFFF AND PUSH20 0xFFFFFFFFFFFFFFFFFFFFFFFFFFFFFFFFFFFFFFFF AND DUP2 MSTORE PUSH1 0x20 ADD SWAP1 PUSH1 0x1 ADD SWAP1 DUP1 DUP4 GT PUSH3 0x9E4 JUMPI JUMPDEST POP POP POP POP POP SWAP1 POP SWAP2 SWAP1 POP JUMP JUMPDEST PUSH1 0x4 SLOAD DUP2 JUMP JUMPDEST PUSH1 0x0 DUP1 PUSH1 0x0 CALLER PUSH20 0xFFFFFFFFFFFFFFFFFFFFFFFFFFFFFFFFFFFFFFFF AND PUSH20 0xFFFFFFFFFFFFFFFFFFFFFFFFFFFFFFFFFFFFFFFF AND DUP2 MSTORE PUSH1 0x20 ADD SWAP1 DUP2 MSTORE PUSH1 0x20 ADD PUSH1 0x0 KECCAK256 PUSH1 0x0 ADD SLOAD EQ ISZERO PUSH3 0xB0A JUMPI PUSH1 0x1 PUSH1 0x0 DUP2 SLOAD DUP1 SWAP3 SWAP2 SWAP1 PUSH3 0xAA1 SWAP1 PUSH3 0x1CC0 JUMP JUMPDEST SWAP2 SWAP1 POP SSTORE POP PUSH1 0x2 CALLER SWAP1 DUP1 PUSH1 0x1 DUP2 SLOAD ADD DUP1 DUP3 SSTORE DUP1 SWAP2 POP POP PUSH1 0x1 SWAP1 SUB SWAP1 PUSH1 0x0 MSTORE PUSH1 0x20 PUSH1 0x0 KECCAK256 ADD PUSH1 0x0 SWAP1 SWAP2 SWAP1 SWAP2 SWAP1 SWAP2 PUSH2 0x100 EXP DUP2 SLOAD DUP2 PUSH20 0xFFFFFFFFFFFFFFFFFFFFFFFFFFFFFFFFFFFFFFFF MUL NOT AND SWAP1 DUP4 PUSH20 0xFFFFFFFFFFFFFFFFFFFFFFFFFFFFFFFFFFFFFFFF AND MUL OR SWAP1 SSTORE POP JUMPDEST PUSH1 0x0 PUSH1 0x3 PUSH1 0x0 DUP7 PUSH20 0xFFFFFFFFFFFFFFFFFFFFFFFFFFFFFFFFFFFFFFFF AND PUSH20 0xFFFFFFFFFFFFFFFFFFFFFFFFFFFFFFFFFFFFFFFF AND DUP2 MSTORE PUSH1 0x20 ADD SWAP1 DUP2 MSTORE PUSH1 0x20 ADD PUSH1 0x0 KECCAK256 PUSH1 0x0 ADD SLOAD EQ ISZERO PUSH3 0xBD4 JUMPI PUSH1 0x4 PUSH1 0x0 DUP2 SLOAD DUP1 SWAP3 SWAP2 SWAP1 PUSH3 0xB6B SWAP1 PUSH3 0x1CC0 JUMP JUMPDEST SWAP2 SWAP1 POP SSTORE POP PUSH1 0x5 DUP5 SWAP1 DUP1 PUSH1 0x1 DUP2 SLOAD ADD DUP1 DUP3 SSTORE DUP1 SWAP2 POP POP PUSH1 0x1 SWAP1 SUB SWAP1 PUSH1 0x0 MSTORE PUSH1 0x20 PUSH1 0x0 KECCAK256 ADD PUSH1 0x0 SWAP1 SWAP2 SWAP1 SWAP2 SWAP1 SWAP2 PUSH2 0x100 EXP DUP2 SLOAD DUP2 PUSH20 0xFFFFFFFFFFFFFFFFFFFFFFFFFFFFFFFFFFFFFFFF MUL NOT AND SWAP1 DUP4 PUSH20 0xFFFFFFFFFFFFFFFFFFFFFFFFFFFFFFFFFFFFFFFF AND MUL OR SWAP1 SSTORE POP JUMPDEST PUSH1 0x0 CALLVALUE CALLER DUP7 DUP7 DUP7 DUP7 CALLVALUE PUSH1 0x40 MLOAD PUSH3 0xBEB SWAP1 PUSH3 0x16F0 JUMP JUMPDEST PUSH3 0xBFC SWAP7 SWAP6 SWAP5 SWAP4 SWAP3 SWAP2 SWAP1 PUSH3 0x1E1D JUMP JUMPDEST PUSH1 0x40 MLOAD DUP1 SWAP2 SUB SWAP1 DUP3 CREATE SWAP1 POP DUP1 ISZERO DUP1 ISZERO PUSH3 0xC1A JUMPI RETURNDATASIZE PUSH1 0x0 DUP1 RETURNDATACOPY RETURNDATASIZE PUSH1 0x0 REVERT JUMPDEST POP SWAP1 POP PUSH1 0x0 DUP1 CALLER PUSH20 0xFFFFFFFFFFFFFFFFFFFFFFFFFFFFFFFFFFFFFFFF AND PUSH20 0xFFFFFFFFFFFFFFFFFFFFFFFFFFFFFFFFFFFFFFFF AND DUP2 MSTORE PUSH1 0x20 ADD SWAP1 DUP2 MSTORE PUSH1 0x20 ADD PUSH1 0x0 KECCAK256 PUSH1 0x0 ADD PUSH1 0x0 DUP2 SLOAD DUP1 SWAP3 SWAP2 SWAP1 PUSH3 0xC71 SWAP1 PUSH3 0x1CC0 JUMP JUMPDEST SWAP2 SWAP1 POP SSTORE POP PUSH1 0x0 DUP1 CALLER PUSH20 0xFFFFFFFFFFFFFFFFFFFFFFFFFFFFFFFFFFFFFFFF AND PUSH20 0xFFFFFFFFFFFFFFFFFFFFFFFFFFFFFFFFFFFFFFFF AND DUP2 MSTORE PUSH1 0x20 ADD SWAP1 DUP2 MSTORE PUSH1 0x20 ADD PUSH1 0x0 KECCAK256 PUSH1 0x1 ADD DUP2 SWAP1 DUP1 PUSH1 0x1 DUP2 SLOAD ADD DUP1 DUP3 SSTORE DUP1 SWAP2 POP POP PUSH1 0x1 SWAP1 SUB SWAP1 PUSH1 0x0 MSTORE PUSH1 0x20 PUSH1 0x0 KECCAK256 ADD PUSH1 0x0 SWAP1 SWAP2 SWAP1 SWAP2 SWAP1 SWAP2 PUSH2 0x100 EXP DUP2 SLOAD DUP2 PUSH20 0xFFFFFFFFFFFFFFFFFFFFFFFFFFFFFFFFFFFFFFFF MUL NOT AND SWAP1 DUP4 PUSH20 0xFFFFFFFFFFFFFFFFFFFFFFFFFFFFFFFFFFFFFFFF AND MUL OR SWAP1 SSTORE POP PUSH1 0x3 PUSH1 0x0 DUP7 PUSH20 0xFFFFFFFFFFFFFFFFFFFFFFFFFFFFFFFFFFFFFFFF AND PUSH20 0xFFFFFFFFFFFFFFFFFFFFFFFFFFFFFFFFFFFFFFFF AND DUP2 MSTORE PUSH1 0x20 ADD SWAP1 DUP2 MSTORE PUSH1 0x20 ADD PUSH1 0x0 KECCAK256 PUSH1 0x0 ADD PUSH1 0x0 DUP2 SLOAD DUP1 SWAP3 SWAP2 SWAP1 PUSH3 0xD6D SWAP1 PUSH3 0x1CC0 JUMP JUMPDEST SWAP2 SWAP1 POP SSTORE POP PUSH1 0x3 PUSH1 0x0 DUP7 PUSH20 0xFFFFFFFFFFFFFFFFFFFFFFFFFFFFFFFFFFFFFFFF AND PUSH20 0xFFFFFFFFFFFFFFFFFFFFFFFFFFFFFFFFFFFFFFFF AND DUP2 MSTORE PUSH1 0x20 ADD SWAP1 DUP2 MSTORE PUSH1 0x20 ADD PUSH1 0x0 KECCAK256 PUSH1 0x1 ADD DUP2 SWAP1 DUP1 PUSH1 0x1 DUP2 SLOAD ADD DUP1 DUP3 SSTORE DUP1 SWAP2 POP POP PUSH1 0x1 SWAP1 SUB SWAP1 PUSH1 0x0 MSTORE PUSH1 0x20 PUSH1 0x0 KECCAK256 ADD PUSH1 0x0 SWAP1 SWAP2 SWAP1 SWAP2 SWAP1 SWAP2 PUSH2 0x100 EXP DUP2 SLOAD DUP2 PUSH20 0xFFFFFFFFFFFFFFFFFFFFFFFFFFFFFFFFFFFFFFFF MUL NOT AND SWAP1 DUP4 PUSH20 0xFFFFFFFFFFFFFFFFFFFFFFFFFFFFFFFFFFFFFFFF AND MUL OR SWAP1 SSTORE POP POP POP POP POP POP JUMP JUMPDEST PUSH1 0x0 DUP1 PUSH1 0x0 DUP5 PUSH20 0xFFFFFFFFFFFFFFFFFFFFFFFFFFFFFFFFFFFFFFFF AND PUSH20 0xFFFFFFFFFFFFFFFFFFFFFFFFFFFFFFFFFFFFFFFF AND DUP2 MSTORE PUSH1 0x20 ADD SWAP1 DUP2 MSTORE PUSH1 0x20 ADD PUSH1 0x0 KECCAK256 PUSH1 0x1 ADD DUP1 SLOAD SWAP1 POP SWAP1 POP DUP1 DUP3 LT PUSH3 0xEAA JUMPI PUSH1 0x40 MLOAD PUSH32 0x8C379A000000000000000000000000000000000000000000000000000000000 DUP2 MSTORE PUSH1 0x4 ADD PUSH3 0xEA1 SWAP1 PUSH3 0x1F0E JUMP JUMPDEST PUSH1 0x40 MLOAD DUP1 SWAP2 SUB SWAP1 REVERT JUMPDEST PUSH1 0x0 DUP3 SWAP1 POP JUMPDEST PUSH1 0x1 DUP3 PUSH3 0xEBF SWAP2 SWAP1 PUSH3 0x1F30 JUMP JUMPDEST DUP2 LT ISZERO PUSH3 0x100A JUMPI PUSH1 0x0 DUP1 DUP6 PUSH20 0xFFFFFFFFFFFFFFFFFFFFFFFFFFFFFFFFFFFFFFFF AND PUSH20 0xFFFFFFFFFFFFFFFFFFFFFFFFFFFFFFFFFFFFFFFF AND DUP2 MSTORE PUSH1 0x20 ADD SWAP1 DUP2 MSTORE PUSH1 0x20 ADD PUSH1 0x0 KECCAK256 PUSH1 0x1 ADD PUSH1 0x1 DUP3 PUSH3 0xF17 SWAP2 SWAP1 PUSH3 0x1F6B JUMP JUMPDEST DUP2 SLOAD DUP2 LT PUSH3 0xF2B JUMPI PUSH3 0xF2A PUSH3 0x1BA2 JUMP JUMPDEST JUMPDEST SWAP1 PUSH1 0x0 MSTORE PUSH1 0x20 PUSH1 0x0 KECCAK256 ADD PUSH1 0x0 SWAP1 SLOAD SWAP1 PUSH2 0x100 EXP SWAP1 DIV PUSH20 0xFFFFFFFFFFFFFFFFFFFFFFFFFFFFFFFFFFFFFFFF AND PUSH1 0x0 DUP1 DUP7 PUSH20 0xFFFFFFFFFFFFFFFFFFFFFFFFFFFFFFFFFFFFFFFF AND PUSH20 0xFFFFFFFFFFFFFFFFFFFFFFFFFFFFFFFFFFFFFFFF AND DUP2 MSTORE PUSH1 0x20 ADD SWAP1 DUP2 MSTORE PUSH1 0x20 ADD PUSH1 0x0 KECCAK256 PUSH1 0x1 ADD DUP3 DUP2 SLOAD DUP2 LT PUSH3 0xFAC JUMPI PUSH3 0xFAB PUSH3 0x1BA2 JUMP JUMPDEST JUMPDEST SWAP1 PUSH1 0x0 MSTORE PUSH1 0x20 PUSH1 0x0 KECCAK256 ADD PUSH1 0x0 PUSH2 0x100 EXP DUP2 SLOAD DUP2 PUSH20 0xFFFFFFFFFFFFFFFFFFFFFFFFFFFFFFFFFFFFFFFF MUL NOT AND SWAP1 DUP4 PUSH20 0xFFFFFFFFFFFFFFFFFFFFFFFFFFFFFFFFFFFFFFFF AND MUL OR SWAP1 SSTORE POP DUP1 DUP1 PUSH3 0x1001 SWAP1 PUSH3 0x1CC0 JUMP JUMPDEST SWAP2 POP POP PUSH3 0xEB0 JUMP JUMPDEST POP PUSH1 0x0 DUP1 DUP5 PUSH20 0xFFFFFFFFFFFFFFFFFFFFFFFFFFFFFFFFFFFFFFFF AND PUSH20 0xFFFFFFFFFFFFFFFFFFFFFFFFFFFFFFFFFFFFFFFF AND DUP2 MSTORE PUSH1 0x20 ADD SWAP1 DUP2 MSTORE PUSH1 0x20 ADD PUSH1 0x0 KECCAK256 PUSH1 0x2 ADD PUSH1 0x0 DUP1 DUP6 PUSH20 0xFFFFFFFFFFFFFFFFFFFFFFFFFFFFFFFFFFFFFFFF AND PUSH20 0xFFFFFFFFFFFFFFFFFFFFFFFFFFFFFFFFFFFFFFFF AND DUP2 MSTORE PUSH1 0x20 ADD SWAP1 DUP2 MSTORE PUSH1 0x20 ADD PUSH1 0x0 KECCAK256 PUSH1 0x1 ADD PUSH1 0x1 PUSH1 0x0 DUP1 DUP8 PUSH20 0xFFFFFFFFFFFFFFFFFFFFFFFFFFFFFFFFFFFFFFFF AND PUSH20 0xFFFFFFFFFFFFFFFFFFFFFFFFFFFFFFFFFFFFFFFF AND DUP2 MSTORE PUSH1 0x20 ADD SWAP1 DUP2 MSTORE PUSH1 0x20 ADD PUSH1 0x0 KECCAK256 PUSH1 0x1 ADD DUP1 SLOAD SWAP1 POP PUSH3 0x10E0 SWAP2 SWAP1 PUSH3 0x1F30 JUMP JUMPDEST DUP2 SLOAD DUP2 LT PUSH3 0x10F4 JUMPI PUSH3 0x10F3 PUSH3 0x1BA2 JUMP JUMPDEST JUMPDEST SWAP1 PUSH1 0x0 MSTORE PUSH1 0x20 PUSH1 0x0 KECCAK256 ADD PUSH1 0x0 SWAP1 SLOAD SWAP1 PUSH2 0x100 EXP SWAP1 DIV PUSH20 0xFFFFFFFFFFFFFFFFFFFFFFFFFFFFFFFFFFFFFFFF AND SWAP1 DUP1 PUSH1 0x1 DUP2 SLOAD ADD DUP1 DUP3 SSTORE DUP1 SWAP2 POP POP PUSH1 0x1 SWAP1 SUB SWAP1 PUSH1 0x0 MSTORE PUSH1 0x20 PUSH1 0x0 KECCAK256 ADD PUSH1 0x0 SWAP1 SWAP2 SWAP1 SWAP2 SWAP1 SWAP2 PUSH2 0x100 EXP DUP2 SLOAD DUP2 PUSH20 0xFFFFFFFFFFFFFFFFFFFFFFFFFFFFFFFFFFFFFFFF MUL NOT AND SWAP1 DUP4 PUSH20 0xFFFFFFFFFFFFFFFFFFFFFFFFFFFFFFFFFFFFFFFF AND MUL OR SWAP1 SSTORE POP PUSH1 0x0 DUP1 DUP5 PUSH20 0xFFFFFFFFFFFFFFFFFFFFFFFFFFFFFFFFFFFFFFFF AND PUSH20 0xFFFFFFFFFFFFFFFFFFFFFFFFFFFFFFFFFFFFFFFF AND DUP2 MSTORE PUSH1 0x20 ADD SWAP1 DUP2 MSTORE PUSH1 0x20 ADD PUSH1 0x0 KECCAK256 PUSH1 0x1 ADD DUP1 SLOAD DUP1 PUSH3 0x11D3 JUMPI PUSH3 0x11D2 PUSH3 0x1FC8 JUMP JUMPDEST JUMPDEST PUSH1 0x1 SWAP1 SUB DUP2 DUP2 SWAP1 PUSH1 0x0 MSTORE PUSH1 0x20 PUSH1 0x0 KECCAK256 ADD PUSH1 0x0 PUSH2 0x100 EXP DUP2 SLOAD SWAP1 PUSH20 0xFFFFFFFFFFFFFFFFFFFFFFFFFFFFFFFFFFFFFFFF MUL NOT AND SWAP1 SSTORE SWAP1 SSTORE POP POP POP JUMP JUMPDEST PUSH1 0x0 DUP1 PUSH1 0x0 SWAP1 POP JUMPDEST PUSH1 0x1 PUSH1 0x3 PUSH1 0x0 DUP7 PUSH20 0xFFFFFFFFFFFFFFFFFFFFFFFFFFFFFFFFFFFFFFFF AND PUSH20 0xFFFFFFFFFFFFFFFFFFFFFFFFFFFFFFFFFFFFFFFF AND DUP2 MSTORE PUSH1 0x20 ADD SWAP1 DUP2 MSTORE PUSH1 0x20 ADD PUSH1 0x0 KECCAK256 PUSH1 0x1 ADD DUP1 SLOAD SWAP1 POP PUSH3 0x1269 SWAP2 SWAP1 PUSH3 0x1F30 JUMP JUMPDEST DUP2 LT ISZERO PUSH3 0x1341 JUMPI DUP3 PUSH20 0xFFFFFFFFFFFFFFFFFFFFFFFFFFFFFFFFFFFFFFFF AND PUSH1 0x3 PUSH1 0x0 DUP7 PUSH20 0xFFFFFFFFFFFFFFFFFFFFFFFFFFFFFFFFFFFFFFFF AND PUSH20 0xFFFFFFFFFFFFFFFFFFFFFFFFFFFFFFFFFFFFFFFF AND DUP2 MSTORE PUSH1 0x20 ADD SWAP1 DUP2 MSTORE PUSH1 0x20 ADD PUSH1 0x0 KECCAK256 PUSH1 0x1 ADD DUP3 DUP2 SLOAD DUP2 LT PUSH3 0x12DF JUMPI PUSH3 0x12DE PUSH3 0x1BA2 JUMP JUMPDEST JUMPDEST SWAP1 PUSH1 0x0 MSTORE PUSH1 0x20 PUSH1 0x0 KECCAK256 ADD PUSH1 0x0 SWAP1 SLOAD SWAP1 PUSH2 0x100 EXP SWAP1 DIV PUSH20 0xFFFFFFFFFFFFFFFFFFFFFFFFFFFFFFFFFFFFFFFF AND PUSH20 0xFFFFFFFFFFFFFFFFFFFFFFFFFFFFFFFFFFFFFFFF AND EQ ISZERO PUSH3 0x132B JUMPI DUP1 SWAP2 POP JUMPDEST DUP1 DUP1 PUSH3 0x1338 SWAP1 PUSH3 0x1CC0 JUMP JUMPDEST SWAP2 POP POP PUSH3 0x1215 JUMP JUMPDEST POP PUSH1 0x0 DUP2 SWAP1 POP JUMPDEST PUSH1 0x1 PUSH1 0x3 PUSH1 0x0 DUP7 PUSH20 0xFFFFFFFFFFFFFFFFFFFFFFFFFFFFFFFFFFFFFFFF AND PUSH20 0xFFFFFFFFFFFFFFFFFFFFFFFFFFFFFFFFFFFFFFFF AND DUP2 MSTORE PUSH1 0x20 ADD SWAP1 DUP2 MSTORE PUSH1 0x20 ADD PUSH1 0x0 KECCAK256 PUSH1 0x1 ADD DUP1 SLOAD SWAP1 POP PUSH3 0x139C SWAP2 SWAP1 PUSH3 0x1F30 JUMP JUMPDEST DUP2 LT ISZERO PUSH3 0x14E9 JUMPI PUSH1 0x3 PUSH1 0x0 DUP6 PUSH20 0xFFFFFFFFFFFFFFFFFFFFFFFFFFFFFFFFFFFFFFFF AND PUSH20 0xFFFFFFFFFFFFFFFFFFFFFFFFFFFFFFFFFFFFFFFF AND DUP2 MSTORE PUSH1 0x20 ADD SWAP1 DUP2 MSTORE PUSH1 0x20 ADD PUSH1 0x0 KECCAK256 PUSH1 0x1 ADD PUSH1 0x1 DUP3 PUSH3 0x13F5 SWAP2 SWAP1 PUSH3 0x1F6B JUMP JUMPDEST DUP2 SLOAD DUP2 LT PUSH3 0x1409 JUMPI PUSH3 0x1408 PUSH3 0x1BA2 JUMP JUMPDEST JUMPDEST SWAP1 PUSH1 0x0 MSTORE PUSH1 0x20 PUSH1 0x0 KECCAK256 ADD PUSH1 0x0 SWAP1 SLOAD SWAP1 PUSH2 0x100 EXP SWAP1 DIV PUSH20 0xFFFFFFFFFFFFFFFFFFFFFFFFFFFFFFFFFFFFFFFF AND PUSH1 0x3 PUSH1 0x0 DUP7 PUSH20 0xFFFFFFFFFFFFFFFFFFFFFFFFFFFFFFFFFFFFFFFF AND PUSH20 0xFFFFFFFFFFFFFFFFFFFFFFFFFFFFFFFFFFFFFFFF AND DUP2 MSTORE PUSH1 0x20 ADD SWAP1 DUP2 MSTORE PUSH1 0x20 ADD PUSH1 0x0 KECCAK256 PUSH1 0x1 ADD DUP3 DUP2 SLOAD DUP2 LT PUSH3 0x148B JUMPI PUSH3 0x148A PUSH3 0x1BA2 JUMP JUMPDEST JUMPDEST SWAP1 PUSH1 0x0 MSTORE PUSH1 0x20 PUSH1 0x0 KECCAK256 ADD PUSH1 0x0 PUSH2 0x100 EXP DUP2 SLOAD DUP2 PUSH20 0xFFFFFFFFFFFFFFFFFFFFFFFFFFFFFFFFFFFFFFFF MUL NOT AND SWAP1 DUP4 PUSH20 0xFFFFFFFFFFFFFFFFFFFFFFFFFFFFFFFFFFFFFFFF AND MUL OR SWAP1 SSTORE POP DUP1 DUP1 PUSH3 0x14E0 SWAP1 PUSH3 0x1CC0 JUMP JUMPDEST SWAP2 POP POP PUSH3 0x1348 JUMP JUMPDEST POP PUSH1 0x3 PUSH1 0x0 DUP5 PUSH20 0xFFFFFFFFFFFFFFFFFFFFFFFFFFFFFFFFFFFFFFFF AND PUSH20 0xFFFFFFFFFFFFFFFFFFFFFFFFFFFFFFFFFFFFFFFF AND DUP2 MSTORE PUSH1 0x20 ADD SWAP1 DUP2 MSTORE PUSH1 0x20 ADD PUSH1 0x0 KECCAK256 PUSH1 0x2 ADD PUSH1 0x3 PUSH1 0x0 DUP6 PUSH20 0xFFFFFFFFFFFFFFFFFFFFFFFFFFFFFFFFFFFFFFFF AND PUSH20 0xFFFFFFFFFFFFFFFFFFFFFFFFFFFFFFFFFFFFFFFF AND DUP2 MSTORE PUSH1 0x20 ADD SWAP1 DUP2 MSTORE PUSH1 0x20 ADD PUSH1 0x0 KECCAK256 PUSH1 0x1 ADD PUSH1 0x1 PUSH1 0x3 PUSH1 0x0 DUP8 PUSH20 0xFFFFFFFFFFFFFFFFFFFFFFFFFFFFFFFFFFFFFFFF AND PUSH20 0xFFFFFFFFFFFFFFFFFFFFFFFFFFFFFFFFFFFFFFFF AND DUP2 MSTORE PUSH1 0x20 ADD SWAP1 DUP2 MSTORE PUSH1 0x20 ADD PUSH1 0x0 KECCAK256 PUSH1 0x1 ADD DUP1 SLOAD SWAP1 POP PUSH3 0x15C2 SWAP2 SWAP1 PUSH3 0x1F30 JUMP JUMPDEST DUP2 SLOAD DUP2 LT PUSH3 0x15D6 JUMPI PUSH3 0x15D5 PUSH3 0x1BA2 JUMP JUMPDEST JUMPDEST SWAP1 PUSH1 0x0 MSTORE PUSH1 0x20 PUSH1 0x0 KECCAK256 ADD PUSH1 0x0 SWAP1 SLOAD SWAP1 PUSH2 0x100 EXP SWAP1 DIV PUSH20 0xFFFFFFFFFFFFFFFFFFFFFFFFFFFFFFFFFFFFFFFF AND SWAP1 DUP1 PUSH1 0x1 DUP2 SLOAD ADD DUP1 DUP3 SSTORE DUP1 SWAP2 POP POP PUSH1 0x1 SWAP1 SUB SWAP1 PUSH1 0x0 MSTORE PUSH1 0x20 PUSH1 0x0 KECCAK256 ADD PUSH1 0x0 SWAP1 SWAP2 SWAP1 SWAP2 SWAP1 SWAP2 PUSH2 0x100 EXP DUP2 SLOAD DUP2 PUSH20 0xFFFFFFFFFFFFFFFFFFFFFFFFFFFFFFFFFFFFFFFF MUL NOT AND SWAP1 DUP4 PUSH20 0xFFFFFFFFFFFFFFFFFFFFFFFFFFFFFFFFFFFFFFFF AND MUL OR SWAP1 SSTORE POP PUSH1 0x3 PUSH1 0x0 DUP5 PUSH20 0xFFFFFFFFFFFFFFFFFFFFFFFFFFFFFFFFFFFFFFFF AND PUSH20 0xFFFFFFFFFFFFFFFFFFFFFFFFFFFFFFFFFFFFFFFF AND DUP2 MSTORE PUSH1 0x20 ADD SWAP1 DUP2 MSTORE PUSH1 0x20 ADD PUSH1 0x0 KECCAK256 PUSH1 0x2 ADD DUP1 SLOAD DUP1 PUSH3 0x16B6 JUMPI PUSH3 0x16B5 PUSH3 0x1FC8 JUMP JUMPDEST JUMPDEST PUSH1 0x1 SWAP1 SUB DUP2 DUP2 SWAP1 PUSH1 0x0 MSTORE PUSH1 0x20 PUSH1 0x0 KECCAK256 ADD PUSH1 0x0 PUSH2 0x100 EXP DUP2 SLOAD SWAP1 PUSH20 0xFFFFFFFFFFFFFFFFFFFFFFFFFFFFFFFFFFFFFFFF MUL NOT AND SWAP1 SSTORE SWAP1 SSTORE POP POP POP JUMP JUMPDEST PUSH2 0x119C DUP1 PUSH3 0x1FF8 DUP4 CODECOPY ADD SWAP1 JUMP JUMPDEST PUSH1 0x0 PUSH1 0x40 MLOAD SWAP1 POP SWAP1 JUMP JUMPDEST PUSH1 0x0 DUP1 REVERT JUMPDEST PUSH1 0x0 DUP1 REVERT JUMPDEST PUSH1 0x0 PUSH20 0xFFFFFFFFFFFFFFFFFFFFFFFFFFFFFFFFFFFFFFFF DUP3 AND SWAP1 POP SWAP2 SWAP1 POP JUMP JUMPDEST PUSH1 0x0 PUSH3 0x173F DUP3 PUSH3 0x1712 JUMP JUMPDEST SWAP1 POP SWAP2 SWAP1 POP JUMP JUMPDEST PUSH3 0x1751 DUP2 PUSH3 0x1732 JUMP JUMPDEST DUP2 EQ PUSH3 0x175D JUMPI PUSH1 0x0 DUP1 REVERT JUMPDEST POP JUMP JUMPDEST PUSH1 0x0 DUP2 CALLDATALOAD SWAP1 POP PUSH3 0x1771 DUP2 PUSH3 0x1746 JUMP JUMPDEST SWAP3 SWAP2 POP POP JUMP JUMPDEST PUSH1 0x0 PUSH1 0x20 DUP3 DUP5 SUB SLT ISZERO PUSH3 0x1790 JUMPI PUSH3 0x178F PUSH3 0x1708 JUMP JUMPDEST JUMPDEST PUSH1 0x0 PUSH3 0x17A0 DUP5 DUP3 DUP6 ADD PUSH3 0x1760 JUMP JUMPDEST SWAP2 POP POP SWAP3 SWAP2 POP POP JUMP JUMPDEST PUSH1 0x0 DUP2 MLOAD SWAP1 POP SWAP2 SWAP1 POP JUMP JUMPDEST PUSH1 0x0 DUP3 DUP3 MSTORE PUSH1 0x20 DUP3 ADD SWAP1 POP SWAP3 SWAP2 POP POP JUMP JUMPDEST PUSH1 0x0 DUP2 SWAP1 POP PUSH1 0x20 DUP3 ADD SWAP1 POP SWAP2 SWAP1 POP JUMP JUMPDEST PUSH3 0x17E0 DUP2 PUSH3 0x1732 JUMP JUMPDEST DUP3 MSTORE POP POP JUMP JUMPDEST PUSH1 0x0 PUSH3 0x17F4 DUP4 DUP4 PUSH3 0x17D5 JUMP JUMPDEST PUSH1 0x20 DUP4 ADD SWAP1 POP SWAP3 SWAP2 POP POP JUMP JUMPDEST PUSH1 0x0 PUSH1 0x20 DUP3 ADD SWAP1 POP SWAP2 SWAP1 POP JUMP JUMPDEST PUSH1 0x0 PUSH3 0x181A DUP3 PUSH3 0x17A9 JUMP JUMPDEST PUSH3 0x1826 DUP2 DUP6 PUSH3 0x17B4 JUMP JUMPDEST SWAP4 POP PUSH3 0x1833 DUP4 PUSH3 0x17C5 JUMP JUMPDEST DUP1 PUSH1 0x0 JUMPDEST DUP4 DUP2 LT ISZERO PUSH3 0x186A JUMPI DUP2 MLOAD PUSH3 0x184E DUP9 DUP3 PUSH3 0x17E6 JUMP JUMPDEST SWAP8 POP PUSH3 0x185B DUP4 PUSH3 0x1800 JUMP JUMPDEST SWAP3 POP POP PUSH1 0x1 DUP2 ADD SWAP1 POP PUSH3 0x1837 JUMP JUMPDEST POP DUP6 SWAP4 POP POP POP POP SWAP3 SWAP2 POP POP JUMP JUMPDEST PUSH1 0x0 PUSH1 0x20 DUP3 ADD SWAP1 POP DUP2 DUP2 SUB PUSH1 0x0 DUP4 ADD MSTORE PUSH3 0x1893 DUP2 DUP5 PUSH3 0x180D JUMP JUMPDEST SWAP1 POP SWAP3 SWAP2 POP POP JUMP JUMPDEST PUSH1 0x0 DUP2 SWAP1 POP SWAP2 SWAP1 POP JUMP JUMPDEST PUSH3 0x18B0 DUP2 PUSH3 0x189B JUMP JUMPDEST DUP2 EQ PUSH3 0x18BC JUMPI PUSH1 0x0 DUP1 REVERT JUMPDEST POP JUMP JUMPDEST PUSH1 0x0 DUP2 CALLDATALOAD SWAP1 POP PUSH3 0x18D0 DUP2 PUSH3 0x18A5 JUMP JUMPDEST SWAP3 SWAP2 POP POP JUMP JUMPDEST PUSH1 0x0 DUP1 PUSH1 0x40 DUP4 DUP6 SUB SLT ISZERO PUSH3 0x18F0 JUMPI PUSH3 0x18EF PUSH3 0x1708 JUMP JUMPDEST JUMPDEST PUSH1 0x0 PUSH3 0x1900 DUP6 DUP3 DUP7 ADD PUSH3 0x1760 JUMP JUMPDEST SWAP3 POP POP PUSH1 0x20 PUSH3 0x1913 DUP6 DUP3 DUP7 ADD PUSH3 0x18BF JUMP JUMPDEST SWAP2 POP POP SWAP3 POP SWAP3 SWAP1 POP JUMP JUMPDEST PUSH3 0x1928 DUP2 PUSH3 0x189B JUMP JUMPDEST DUP3 MSTORE POP POP JUMP JUMPDEST PUSH1 0x0 PUSH1 0x20 DUP3 ADD SWAP1 POP PUSH3 0x1945 PUSH1 0x0 DUP4 ADD DUP5 PUSH3 0x191D JUMP JUMPDEST SWAP3 SWAP2 POP POP JUMP JUMPDEST PUSH1 0x0 DUP1 REVERT JUMPDEST PUSH1 0x0 DUP1 REVERT JUMPDEST PUSH1 0x0 PUSH1 0x1F NOT PUSH1 0x1F DUP4 ADD AND SWAP1 POP SWAP2 SWAP1 POP JUMP JUMPDEST PUSH32 0x4E487B7100000000000000000000000000000000000000000000000000000000 PUSH1 0x0 MSTORE PUSH1 0x41 PUSH1 0x4 MSTORE PUSH1 0x24 PUSH1 0x0 REVERT JUMPDEST PUSH3 0x19A0 DUP3 PUSH3 0x1955 JUMP JUMPDEST DUP2 ADD DUP2 DUP2 LT PUSH8 0xFFFFFFFFFFFFFFFF DUP3 GT OR ISZERO PUSH3 0x19C2 JUMPI PUSH3 0x19C1 PUSH3 0x1966 JUMP JUMPDEST JUMPDEST DUP1 PUSH1 0x40 MSTORE POP POP POP JUMP JUMPDEST PUSH1 0x0 PUSH3 0x19D7 PUSH3 0x16FE JUMP JUMPDEST SWAP1 POP PUSH3 0x19E5 DUP3 DUP3 PUSH3 0x1995 JUMP JUMPDEST SWAP2 SWAP1 POP JUMP JUMPDEST PUSH1 0x0 PUSH8 0xFFFFFFFFFFFFFFFF DUP3 GT ISZERO PUSH3 0x1A08 JUMPI PUSH3 0x1A07 PUSH3 0x1966 JUMP JUMPDEST JUMPDEST PUSH3 0x1A13 DUP3 PUSH3 0x1955 JUMP JUMPDEST SWAP1 POP PUSH1 0x20 DUP2 ADD SWAP1 POP SWAP2 SWAP1 POP JUMP JUMPDEST DUP3 DUP2 DUP4 CALLDATACOPY PUSH1 0x0 DUP4 DUP4 ADD MSTORE POP POP POP JUMP JUMPDEST PUSH1 0x0 PUSH3 0x1A46 PUSH3 0x1A40 DUP5 PUSH3 0x19EA JUMP JUMPDEST PUSH3 0x19CB JUMP JUMPDEST SWAP1 POP DUP3 DUP2 MSTORE PUSH1 0x20 DUP2 ADD DUP5 DUP5 DUP5 ADD GT ISZERO PUSH3 0x1A65 JUMPI PUSH3 0x1A64 PUSH3 0x1950 JUMP JUMPDEST JUMPDEST PUSH3 0x1A72 DUP5 DUP3 DUP6 PUSH3 0x1A20 JUMP JUMPDEST POP SWAP4 SWAP3 POP POP POP JUMP JUMPDEST PUSH1 0x0 DUP3 PUSH1 0x1F DUP4 ADD SLT PUSH3 0x1A92 JUMPI PUSH3 0x1A91 PUSH3 0x194B JUMP JUMPDEST JUMPDEST DUP2 CALLDATALOAD PUSH3 0x1AA4 DUP5 DUP3 PUSH1 0x20 DUP7 ADD PUSH3 0x1A2F JUMP JUMPDEST SWAP2 POP POP SWAP3 SWAP2 POP POP JUMP JUMPDEST PUSH1 0x0 PUSH3 0x1ABA DUP3 PUSH3 0x1712 JUMP JUMPDEST SWAP1 POP SWAP2 SWAP1 POP JUMP JUMPDEST PUSH3 0x1ACC DUP2 PUSH3 0x1AAD JUMP JUMPDEST DUP2 EQ PUSH3 0x1AD8 JUMPI PUSH1 0x0 DUP1 REVERT JUMPDEST POP JUMP JUMPDEST PUSH1 0x0 DUP2 CALLDATALOAD SWAP1 POP PUSH3 0x1AEC DUP2 PUSH3 0x1AC1 JUMP JUMPDEST SWAP3 SWAP2 POP POP JUMP JUMPDEST PUSH1 0x0 DUP1 PUSH1 0x0 DUP1 PUSH1 0x80 DUP6 DUP8 SUB SLT ISZERO PUSH3 0x1B0F JUMPI PUSH3 0x1B0E PUSH3 0x1708 JUMP JUMPDEST JUMPDEST PUSH1 0x0 PUSH3 0x1B1F DUP8 DUP3 DUP9 ADD PUSH3 0x1760 JUMP JUMPDEST SWAP5 POP POP PUSH1 0x20 DUP6 ADD CALLDATALOAD PUSH8 0xFFFFFFFFFFFFFFFF DUP2 GT ISZERO PUSH3 0x1B43 JUMPI PUSH3 0x1B42 PUSH3 0x170D JUMP JUMPDEST JUMPDEST PUSH3 0x1B51 DUP8 DUP3 DUP9 ADD PUSH3 0x1A7A JUMP JUMPDEST SWAP4 POP POP PUSH1 0x40 DUP6 ADD CALLDATALOAD PUSH8 0xFFFFFFFFFFFFFFFF DUP2 GT ISZERO PUSH3 0x1B75 JUMPI PUSH3 0x1B74 PUSH3 0x170D JUMP JUMPDEST JUMPDEST PUSH3 0x1B83 DUP8 DUP3 DUP9 ADD PUSH3 0x1A7A JUMP JUMPDEST SWAP3 POP POP PUSH1 0x60 PUSH3 0x1B96 DUP8 DUP3 DUP9 ADD PUSH3 0x1ADB JUMP JUMPDEST SWAP2 POP POP SWAP3 SWAP6 SWAP2 SWAP5 POP SWAP3 POP JUMP JUMPDEST PUSH32 0x4E487B7100000000000000000000000000000000000000000000000000000000 PUSH1 0x0 MSTORE PUSH1 0x32 PUSH1 0x4 MSTORE PUSH1 0x24 PUSH1 0x0 REVERT JUMPDEST PUSH1 0x0 PUSH3 0x1BDE DUP3 PUSH3 0x1732 JUMP JUMPDEST SWAP1 POP SWAP2 SWAP1 POP JUMP JUMPDEST PUSH3 0x1BF0 DUP2 PUSH3 0x1BD1 JUMP JUMPDEST DUP2 EQ PUSH3 0x1BFC JUMPI PUSH1 0x0 DUP1 REVERT JUMPDEST POP JUMP JUMPDEST PUSH1 0x0 DUP2 MLOAD SWAP1 POP PUSH3 0x1C10 DUP2 PUSH3 0x1BE5 JUMP JUMPDEST SWAP3 SWAP2 POP POP JUMP JUMPDEST PUSH1 0x0 PUSH1 0x20 DUP3 DUP5 SUB SLT ISZERO PUSH3 0x1C2F JUMPI PUSH3 0x1C2E PUSH3 0x1708 JUMP JUMPDEST JUMPDEST PUSH1 0x0 PUSH3 0x1C3F DUP5 DUP3 DUP6 ADD PUSH3 0x1BFF JUMP JUMPDEST SWAP2 POP POP SWAP3 SWAP2 POP POP JUMP JUMPDEST PUSH1 0x0 DUP2 MLOAD SWAP1 POP PUSH3 0x1C59 DUP2 PUSH3 0x1746 JUMP JUMPDEST SWAP3 SWAP2 POP POP JUMP JUMPDEST PUSH1 0x0 PUSH1 0x20 DUP3 DUP5 SUB SLT ISZERO PUSH3 0x1C78 JUMPI PUSH3 0x1C77 PUSH3 0x1708 JUMP JUMPDEST JUMPDEST PUSH1 0x0 PUSH3 0x1C88 DUP5 DUP3 DUP6 ADD PUSH3 0x1C48 JUMP JUMPDEST SWAP2 POP POP SWAP3 SWAP2 POP POP JUMP JUMPDEST PUSH32 0x4E487B7100000000000000000000000000000000000000000000000000000000 PUSH1 0x0 MSTORE PUSH1 0x11 PUSH1 0x4 MSTORE PUSH1 0x24 PUSH1 0x0 REVERT JUMPDEST PUSH1 0x0 PUSH3 0x1CCD DUP3 PUSH3 0x189B JUMP JUMPDEST SWAP2 POP PUSH32 0xFFFFFFFFFFFFFFFFFFFFFFFFFFFFFFFFFFFFFFFFFFFFFFFFFFFFFFFFFFFFFFFF DUP3 EQ ISZERO PUSH3 0x1D03 JUMPI PUSH3 0x1D02 PUSH3 0x1C91 JUMP JUMPDEST JUMPDEST PUSH1 0x1 DUP3 ADD SWAP1 POP SWAP2 SWAP1 POP JUMP JUMPDEST PUSH3 0x1D19 DUP2 PUSH3 0x1732 JUMP JUMPDEST DUP3 MSTORE POP POP JUMP JUMPDEST PUSH1 0x0 DUP2 MLOAD SWAP1 POP SWAP2 SWAP1 POP JUMP JUMPDEST PUSH1 0x0 DUP3 DUP3 MSTORE PUSH1 0x20 DUP3 ADD SWAP1 POP SWAP3 SWAP2 POP POP JUMP JUMPDEST PUSH1 0x0 JUMPDEST DUP4 DUP2 LT ISZERO PUSH3 0x1D5B JUMPI DUP1 DUP3 ADD MLOAD DUP2 DUP5 ADD MSTORE PUSH1 0x20 DUP2 ADD SWAP1 POP PUSH3 0x1D3E JUMP JUMPDEST DUP4 DUP2 GT ISZERO PUSH3 0x1D6B JUMPI PUSH1 0x0 DUP5 DUP5 ADD MSTORE JUMPDEST POP POP POP POP JUMP JUMPDEST PUSH1 0x0 PUSH3 0x1D7E DUP3 PUSH3 0x1D1F JUMP JUMPDEST PUSH3 0x1D8A DUP2 DUP6 PUSH3 0x1D2A JUMP JUMPDEST SWAP4 POP PUSH3 0x1D9C DUP2 DUP6 PUSH1 0x20 DUP7 ADD PUSH3 0x1D3B JUMP JUMPDEST PUSH3 0x1DA7 DUP2 PUSH3 0x1955 JUMP JUMPDEST DUP5 ADD SWAP2 POP POP SWAP3 SWAP2 POP POP JUMP JUMPDEST PUSH1 0x0 DUP2 SWAP1 POP SWAP2 SWAP1 POP JUMP JUMPDEST PUSH1 0x0 PUSH3 0x1DDD PUSH3 0x1DD7 PUSH3 0x1DD1 DUP5 PUSH3 0x1712 JUMP JUMPDEST PUSH3 0x1DB2 JUMP JUMPDEST PUSH3 0x1712 JUMP JUMPDEST SWAP1 POP SWAP2 SWAP1 POP JUMP JUMPDEST PUSH1 0x0 PUSH3 0x1DF1 DUP3 PUSH3 0x1DBC JUMP JUMPDEST SWAP1 POP SWAP2 SWAP1 POP JUMP JUMPDEST PUSH1 0x0 PUSH3 0x1E05 DUP3 PUSH3 0x1DE4 JUMP JUMPDEST SWAP1 POP SWAP2 SWAP1 POP JUMP JUMPDEST PUSH3 0x1E17 DUP2 PUSH3 0x1DF8 JUMP JUMPDEST DUP3 MSTORE POP POP JUMP JUMPDEST PUSH1 0x0 PUSH1 0xC0 DUP3 ADD SWAP1 POP PUSH3 0x1E34 PUSH1 0x0 DUP4 ADD DUP10 PUSH3 0x1D0E JUMP JUMPDEST PUSH3 0x1E43 PUSH1 0x20 DUP4 ADD DUP9 PUSH3 0x1D0E JUMP JUMPDEST DUP2 DUP2 SUB PUSH1 0x40 DUP4 ADD MSTORE PUSH3 0x1E57 DUP2 DUP8 PUSH3 0x1D71 JUMP JUMPDEST SWAP1 POP DUP2 DUP2 SUB PUSH1 0x60 DUP4 ADD MSTORE PUSH3 0x1E6D DUP2 DUP7 PUSH3 0x1D71 JUMP JUMPDEST SWAP1 POP PUSH3 0x1E7E PUSH1 0x80 DUP4 ADD DUP6 PUSH3 0x1E0C JUMP JUMPDEST PUSH3 0x1E8D PUSH1 0xA0 DUP4 ADD DUP5 PUSH3 0x191D JUMP JUMPDEST SWAP8 SWAP7 POP POP POP POP POP POP POP JUMP JUMPDEST PUSH32 0x4F70656E20636F6E747261637420696E646578206F7574206F6620626F756E64 PUSH1 0x0 DUP3 ADD MSTORE PUSH32 0x7300000000000000000000000000000000000000000000000000000000000000 PUSH1 0x20 DUP3 ADD MSTORE POP JUMP JUMPDEST PUSH1 0x0 PUSH3 0x1EF6 PUSH1 0x21 DUP4 PUSH3 0x1D2A JUMP JUMPDEST SWAP2 POP PUSH3 0x1F03 DUP3 PUSH3 0x1E98 JUMP JUMPDEST PUSH1 0x40 DUP3 ADD SWAP1 POP SWAP2 SWAP1 POP JUMP JUMPDEST PUSH1 0x0 PUSH1 0x20 DUP3 ADD SWAP1 POP DUP2 DUP2 SUB PUSH1 0x0 DUP4 ADD MSTORE PUSH3 0x1F29 DUP2 PUSH3 0x1EE7 JUMP JUMPDEST SWAP1 POP SWAP2 SWAP1 POP JUMP JUMPDEST PUSH1 0x0 PUSH3 0x1F3D DUP3 PUSH3 0x189B JUMP JUMPDEST SWAP2 POP PUSH3 0x1F4A DUP4 PUSH3 0x189B JUMP JUMPDEST SWAP3 POP DUP3 DUP3 LT ISZERO PUSH3 0x1F60 JUMPI PUSH3 0x1F5F PUSH3 0x1C91 JUMP JUMPDEST JUMPDEST DUP3 DUP3 SUB SWAP1 POP SWAP3 SWAP2 POP POP JUMP JUMPDEST PUSH1 0x0 PUSH3 0x1F78 DUP3 PUSH3 0x189B JUMP JUMPDEST SWAP2 POP PUSH3 0x1F85 DUP4 PUSH3 0x189B JUMP JUMPDEST SWAP3 POP DUP3 PUSH32 0xFFFFFFFFFFFFFFFFFFFFFFFFFFFFFFFFFFFFFFFFFFFFFFFFFFFFFFFFFFFFFFFF SUB DUP3 GT ISZERO PUSH3 0x1FBD JUMPI PUSH3 0x1FBC PUSH3 0x1C91 JUMP JUMPDEST JUMPDEST DUP3 DUP3 ADD SWAP1 POP SWAP3 SWAP2 POP POP JUMP JUMPDEST PUSH32 0x4E487B7100000000000000000000000000000000000000000000000000000000 PUSH1 0x0 MSTORE PUSH1 0x31 PUSH1 0x4 MSTORE PUSH1 0x24 PUSH1 0x0 REVERT INVALID PUSH1 0x80 PUSH1 0x40 MSTORE PUSH1 0x40 MLOAD PUSH3 0x119C CODESIZE SUB DUP1 PUSH3 0x119C DUP4 CODECOPY DUP2 DUP2 ADD PUSH1 0x40 MSTORE DUP2 ADD SWAP1 PUSH3 0x29 SWAP2 SWAP1 PUSH3 0x44B JUMP JUMPDEST DUP6 PUSH1 0x0 DUP1 PUSH2 0x100 EXP DUP2 SLOAD DUP2 PUSH20 0xFFFFFFFFFFFFFFFFFFFFFFFFFFFFFFFFFFFFFFFF MUL NOT AND SWAP1 DUP4 PUSH20 0xFFFFFFFFFFFFFFFFFFFFFFFFFFFFFFFFFFFFFFFF AND MUL OR SWAP1 SSTORE POP DUP5 PUSH1 0x1 PUSH1 0x0 PUSH2 0x100 EXP DUP2 SLOAD DUP2 PUSH20 0xFFFFFFFFFFFFFFFFFFFFFFFFFFFFFFFFFFFFFFFF MUL NOT AND SWAP1 DUP4 PUSH20 0xFFFFFFFFFFFFFFFFFFFFFFFFFFFFFFFFFFFFFFFF AND MUL OR SWAP1 SSTORE POP DUP4 PUSH1 0x2 SWAP1 DUP1 MLOAD SWAP1 PUSH1 0x20 ADD SWAP1 PUSH3 0xC2 SWAP3 SWAP2 SWAP1 PUSH3 0x15E JUMP JUMPDEST POP DUP3 PUSH1 0x3 SWAP1 DUP1 MLOAD SWAP1 PUSH1 0x20 ADD SWAP1 PUSH3 0xDB SWAP3 SWAP2 SWAP1 PUSH3 0x15E JUMP JUMPDEST POP DUP2 PUSH1 0x4 PUSH1 0x0 PUSH2 0x100 EXP DUP2 SLOAD DUP2 PUSH20 0xFFFFFFFFFFFFFFFFFFFFFFFFFFFFFFFFFFFFFFFF MUL NOT AND SWAP1 DUP4 PUSH20 0xFFFFFFFFFFFFFFFFFFFFFFFFFFFFFFFFFFFFFFFF AND MUL OR SWAP1 SSTORE POP DUP1 PUSH1 0x5 DUP2 SWAP1 SSTORE POP PUSH1 0x0 PUSH1 0x6 PUSH1 0x0 PUSH2 0x100 EXP DUP2 SLOAD DUP2 PUSH1 0xFF MUL NOT AND SWAP1 DUP4 PUSH1 0x2 DUP2 GT ISZERO PUSH3 0x14D JUMPI PUSH3 0x14C PUSH3 0x525 JUMP JUMPDEST JUMPDEST MUL OR SWAP1 SSTORE POP POP POP POP POP POP POP PUSH3 0x5B9 JUMP JUMPDEST DUP3 DUP1 SLOAD PUSH3 0x16C SWAP1 PUSH3 0x583 JUMP JUMPDEST SWAP1 PUSH1 0x0 MSTORE PUSH1 0x20 PUSH1 0x0 KECCAK256 SWAP1 PUSH1 0x1F ADD PUSH1 0x20 SWAP1 DIV DUP2 ADD SWAP3 DUP3 PUSH3 0x190 JUMPI PUSH1 0x0 DUP6 SSTORE PUSH3 0x1DC JUMP JUMPDEST DUP3 PUSH1 0x1F LT PUSH3 0x1AB JUMPI DUP1 MLOAD PUSH1 0xFF NOT AND DUP4 DUP1 ADD OR DUP6 SSTORE PUSH3 0x1DC JUMP JUMPDEST DUP3 DUP1 ADD PUSH1 0x1 ADD DUP6 SSTORE DUP3 ISZERO PUSH3 0x1DC JUMPI SWAP2 DUP3 ADD JUMPDEST DUP3 DUP2 GT ISZERO PUSH3 0x1DB JUMPI DUP3 MLOAD DUP3 SSTORE SWAP2 PUSH1 0x20 ADD SWAP2 SWAP1 PUSH1 0x1 ADD SWAP1 PUSH3 0x1BE JUMP JUMPDEST JUMPDEST POP SWAP1 POP PUSH3 0x1EB SWAP2 SWAP1 PUSH3 0x1EF JUMP JUMPDEST POP SWAP1 JUMP JUMPDEST JUMPDEST DUP1 DUP3 GT ISZERO PUSH3 0x20A JUMPI PUSH1 0x0 DUP2 PUSH1 0x0 SWAP1 SSTORE POP PUSH1 0x1 ADD PUSH3 0x1F0 JUMP JUMPDEST POP SWAP1 JUMP JUMPDEST PUSH1 0x0 PUSH1 0x40 MLOAD SWAP1 POP SWAP1 JUMP JUMPDEST PUSH1 0x0 DUP1 REVERT JUMPDEST PUSH1 0x0 DUP1 REVERT JUMPDEST PUSH1 0x0 PUSH20 0xFFFFFFFFFFFFFFFFFFFFFFFFFFFFFFFFFFFFFFFF DUP3 AND SWAP1 POP SWAP2 SWAP1 POP JUMP JUMPDEST PUSH1 0x0 PUSH3 0x24F DUP3 PUSH3 0x222 JUMP JUMPDEST SWAP1 POP SWAP2 SWAP1 POP JUMP JUMPDEST PUSH3 0x261 DUP2 PUSH3 0x242 JUMP JUMPDEST DUP2 EQ PUSH3 0x26D JUMPI PUSH1 0x0 DUP1 REVERT JUMPDEST POP JUMP JUMPDEST PUSH1 0x0 DUP2 MLOAD SWAP1 POP PUSH3 0x281 DUP2 PUSH3 0x256 JUMP JUMPDEST SWAP3 SWAP2 POP POP JUMP JUMPDEST PUSH1 0x0 DUP1 REVERT JUMPDEST PUSH1 0x0 DUP1 REVERT JUMPDEST PUSH1 0x0 PUSH1 0x1F NOT PUSH1 0x1F DUP4 ADD AND SWAP1 POP SWAP2 SWAP1 POP JUMP JUMPDEST PUSH32 0x4E487B7100000000000000000000000000000000000000000000000000000000 PUSH1 0x0 MSTORE PUSH1 0x41 PUSH1 0x4 MSTORE PUSH1 0x24 PUSH1 0x0 REVERT JUMPDEST PUSH3 0x2DC DUP3 PUSH3 0x291 JUMP JUMPDEST DUP2 ADD DUP2 DUP2 LT PUSH8 0xFFFFFFFFFFFFFFFF DUP3 GT OR ISZERO PUSH3 0x2FE JUMPI PUSH3 0x2FD PUSH3 0x2A2 JUMP JUMPDEST JUMPDEST DUP1 PUSH1 0x40 MSTORE POP POP POP JUMP JUMPDEST PUSH1 0x0 PUSH3 0x313 PUSH3 0x20E JUMP JUMPDEST SWAP1 POP PUSH3 0x321 DUP3 DUP3 PUSH3 0x2D1 JUMP JUMPDEST SWAP2 SWAP1 POP JUMP JUMPDEST PUSH1 0x0 PUSH8 0xFFFFFFFFFFFFFFFF DUP3 GT ISZERO PUSH3 0x344 JUMPI PUSH3 0x343 PUSH3 0x2A2 JUMP JUMPDEST JUMPDEST PUSH3 0x34F DUP3 PUSH3 0x291 JUMP JUMPDEST SWAP1 POP PUSH1 0x20 DUP2 ADD SWAP1 POP SWAP2 SWAP1 POP JUMP JUMPDEST PUSH1 0x0 JUMPDEST DUP4 DUP2 LT ISZERO PUSH3 0x37C JUMPI DUP1 DUP3 ADD MLOAD DUP2 DUP5 ADD MSTORE PUSH1 0x20 DUP2 ADD SWAP1 POP PUSH3 0x35F JUMP JUMPDEST DUP4 DUP2 GT ISZERO PUSH3 0x38C JUMPI PUSH1 0x0 DUP5 DUP5 ADD MSTORE JUMPDEST POP POP POP POP JUMP JUMPDEST PUSH1 0x0 PUSH3 0x3A9 PUSH3 0x3A3 DUP5 PUSH3 0x326 JUMP JUMPDEST PUSH3 0x307 JUMP JUMPDEST SWAP1 POP DUP3 DUP2 MSTORE PUSH1 0x20 DUP2 ADD DUP5 DUP5 DUP5 ADD GT ISZERO PUSH3 0x3C8 JUMPI PUSH3 0x3C7 PUSH3 0x28C JUMP JUMPDEST JUMPDEST PUSH3 0x3D5 DUP5 DUP3 DUP6 PUSH3 0x35C JUMP JUMPDEST POP SWAP4 SWAP3 POP POP POP JUMP JUMPDEST PUSH1 0x0 DUP3 PUSH1 0x1F DUP4 ADD SLT PUSH3 0x3F5 JUMPI PUSH3 0x3F4 PUSH3 0x287 JUMP JUMPDEST JUMPDEST DUP2 MLOAD PUSH3 0x407 DUP5 DUP3 PUSH1 0x20 DUP7 ADD PUSH3 0x392 JUMP JUMPDEST SWAP2 POP POP SWAP3 SWAP2 POP POP JUMP JUMPDEST PUSH1 0x0 DUP2 SWAP1 POP SWAP2 SWAP1 POP JUMP JUMPDEST PUSH3 0x425 DUP2 PUSH3 0x410 JUMP JUMPDEST DUP2 EQ PUSH3 0x431 JUMPI PUSH1 0x0 DUP1 REVERT JUMPDEST POP JUMP JUMPDEST PUSH1 0x0 DUP2 MLOAD SWAP1 POP PUSH3 0x445 DUP2 PUSH3 0x41A JUMP JUMPDEST SWAP3 SWAP2 POP POP JUMP JUMPDEST PUSH1 0x0 DUP1 PUSH1 0x0 DUP1 PUSH1 0x0 DUP1 PUSH1 0xC0 DUP8 DUP10 SUB SLT ISZERO PUSH3 0x46B JUMPI PUSH3 0x46A PUSH3 0x218 JUMP JUMPDEST JUMPDEST PUSH1 0x0 PUSH3 0x47B DUP10 DUP3 DUP11 ADD PUSH3 0x270 JUMP JUMPDEST SWAP7 POP POP PUSH1 0x20 PUSH3 0x48E DUP10 DUP3 DUP11 ADD PUSH3 0x270 JUMP JUMPDEST SWAP6 POP POP PUSH1 0x40 DUP8 ADD MLOAD PUSH8 0xFFFFFFFFFFFFFFFF DUP2 GT ISZERO PUSH3 0x4B2 JUMPI PUSH3 0x4B1 PUSH3 0x21D JUMP JUMPDEST JUMPDEST PUSH3 0x4C0 DUP10 DUP3 DUP11 ADD PUSH3 0x3DD JUMP JUMPDEST SWAP5 POP POP PUSH1 0x60 DUP8 ADD MLOAD PUSH8 0xFFFFFFFFFFFFFFFF DUP2 GT ISZERO PUSH3 0x4E4 JUMPI PUSH3 0x4E3 PUSH3 0x21D JUMP JUMPDEST JUMPDEST PUSH3 0x4F2 DUP10 DUP3 DUP11 ADD PUSH3 0x3DD JUMP JUMPDEST SWAP4 POP POP PUSH1 0x80 PUSH3 0x505 DUP10 DUP3 DUP11 ADD PUSH3 0x270 JUMP JUMPDEST SWAP3 POP POP PUSH1 0xA0 PUSH3 0x518 DUP10 DUP3 DUP11 ADD PUSH3 0x434 JUMP JUMPDEST SWAP2 POP POP SWAP3 SWAP6 POP SWAP3 SWAP6 POP SWAP3 SWAP6 JUMP JUMPDEST PUSH32 0x4E487B7100000000000000000000000000000000000000000000000000000000 PUSH1 0x0 MSTORE PUSH1 0x21 PUSH1 0x4 MSTORE PUSH1 0x24 PUSH1 0x0 REVERT JUMPDEST PUSH32 0x4E487B7100000000000000000000000000000000000000000000000000000000 PUSH1 0x0 MSTORE PUSH1 0x22 PUSH1 0x4 MSTORE PUSH1 0x24 PUSH1 0x0 REVERT JUMPDEST PUSH1 0x0 PUSH1 0x2 DUP3 DIV SWAP1 POP PUSH1 0x1 DUP3 AND DUP1 PUSH3 0x59C JUMPI PUSH1 0x7F DUP3 AND SWAP2 POP JUMPDEST PUSH1 0x20 DUP3 LT DUP2 EQ ISZERO PUSH3 0x5B3 JUMPI PUSH3 0x5B2 PUSH3 0x554 JUMP JUMPDEST JUMPDEST POP SWAP2 SWAP1 POP JUMP JUMPDEST PUSH2 0xBD3 DUP1 PUSH3 0x5C9 PUSH1 0x0 CODECOPY PUSH1 0x0 RETURN INVALID PUSH1 0x80 PUSH1 0x40 MSTORE PUSH1 0x4 CALLDATASIZE LT PUSH2 0x86 JUMPI PUSH1 0x0 CALLDATALOAD PUSH1 0xE0 SHR DUP1 PUSH4 0x3B1BEBD1 GT PUSH2 0x59 JUMPI DUP1 PUSH4 0x3B1BEBD1 EQ PUSH2 0x12A JUMPI DUP1 PUSH4 0x4177FE51 EQ PUSH2 0x155 JUMPI DUP1 PUSH4 0x7284E416 EQ PUSH2 0x180 JUMPI DUP1 PUSH4 0xAA8C217C EQ PUSH2 0x1AB JUMPI DUP1 PUSH4 0xB4FEDC11 EQ PUSH2 0x1D6 JUMPI PUSH2 0x86 JUMP JUMPDEST DUP1 PUSH4 0x2D05D3F EQ PUSH2 0x8B JUMPI DUP1 PUSH4 0x6FDDE03 EQ PUSH2 0xB6 JUMPI DUP1 PUSH4 0x200D2ED2 EQ PUSH2 0xE1 JUMPI DUP1 PUSH4 0x2D398FA6 EQ PUSH2 0x10C JUMPI JUMPDEST PUSH1 0x0 DUP1 REVERT JUMPDEST CALLVALUE DUP1 ISZERO PUSH2 0x97 JUMPI PUSH1 0x0 DUP1 REVERT JUMPDEST POP PUSH2 0xA0 PUSH2 0x1F4 JUMP JUMPDEST PUSH1 0x40 MLOAD PUSH2 0xAD SWAP2 SWAP1 PUSH2 0x770 JUMP JUMPDEST PUSH1 0x40 MLOAD DUP1 SWAP2 SUB SWAP1 RETURN JUMPDEST CALLVALUE DUP1 ISZERO PUSH2 0xC2 JUMPI PUSH1 0x0 DUP1 REVERT JUMPDEST POP PUSH2 0xCB PUSH2 0x218 JUMP JUMPDEST PUSH1 0x40 MLOAD PUSH2 0xD8 SWAP2 SWAP1 PUSH2 0x824 JUMP JUMPDEST PUSH1 0x40 MLOAD DUP1 SWAP2 SUB SWAP1 RETURN JUMPDEST CALLVALUE DUP1 ISZERO PUSH2 0xED JUMPI PUSH1 0x0 DUP1 REVERT JUMPDEST POP PUSH2 0xF6 PUSH2 0x2A6 JUMP JUMPDEST PUSH1 0x40 MLOAD PUSH2 0x103 SWAP2 SWAP1 PUSH2 0x8BD JUMP JUMPDEST PUSH1 0x40 MLOAD DUP1 SWAP2 SUB SWAP1 RETURN JUMPDEST PUSH2 0x114 PUSH2 0x2B9 JUMP JUMPDEST PUSH1 0x40 MLOAD PUSH2 0x121 SWAP2 SWAP1 PUSH2 0x937 JUMP JUMPDEST PUSH1 0x40 MLOAD DUP1 SWAP2 SUB SWAP1 RETURN JUMPDEST CALLVALUE DUP1 ISZERO PUSH2 0x136 JUMPI PUSH1 0x0 DUP1 REVERT JUMPDEST POP PUSH2 0x13F PUSH2 0x4B0 JUMP JUMPDEST PUSH1 0x40 MLOAD PUSH2 0x14C SWAP2 SWAP1 PUSH2 0x770 JUMP JUMPDEST PUSH1 0x40 MLOAD DUP1 SWAP2 SUB SWAP1 RETURN JUMPDEST CALLVALUE DUP1 ISZERO PUSH2 0x161 JUMPI PUSH1 0x0 DUP1 REVERT JUMPDEST POP PUSH2 0x16A PUSH2 0x4D6 JUMP JUMPDEST PUSH1 0x40 MLOAD PUSH2 0x177 SWAP2 SWAP1 PUSH2 0x770 JUMP JUMPDEST PUSH1 0x40 MLOAD DUP1 SWAP2 SUB SWAP1 RETURN JUMPDEST CALLVALUE DUP1 ISZERO PUSH2 0x18C JUMPI PUSH1 0x0 DUP1 REVERT JUMPDEST POP PUSH2 0x195 PUSH2 0x4FC JUMP JUMPDEST PUSH1 0x40 MLOAD PUSH2 0x1A2 SWAP2 SWAP1 PUSH2 0x824 JUMP JUMPDEST PUSH1 0x40 MLOAD DUP1 SWAP2 SUB SWAP1 RETURN JUMPDEST CALLVALUE DUP1 ISZERO PUSH2 0x1B7 JUMPI PUSH1 0x0 DUP1 REVERT JUMPDEST POP PUSH2 0x1C0 PUSH2 0x58A JUMP JUMPDEST PUSH1 0x40 MLOAD PUSH2 0x1CD SWAP2 SWAP1 PUSH2 0x96B JUMP JUMPDEST PUSH1 0x40 MLOAD DUP1 SWAP2 SUB SWAP1 RETURN JUMPDEST PUSH2 0x1DE PUSH2 0x590 JUMP JUMPDEST PUSH1 0x40 MLOAD PUSH2 0x1EB SWAP2 SWAP1 PUSH2 0x937 JUMP JUMPDEST PUSH1 0x40 MLOAD DUP1 SWAP2 SUB SWAP1 RETURN JUMPDEST PUSH1 0x0 DUP1 SLOAD SWAP1 PUSH2 0x100 EXP SWAP1 DIV PUSH20 0xFFFFFFFFFFFFFFFFFFFFFFFFFFFFFFFFFFFFFFFF AND DUP2 JUMP JUMPDEST PUSH1 0x2 DUP1 SLOAD PUSH2 0x225 SWAP1 PUSH2 0x9B5 JUMP JUMPDEST DUP1 PUSH1 0x1F ADD PUSH1 0x20 DUP1 SWAP2 DIV MUL PUSH1 0x20 ADD PUSH1 0x40 MLOAD SWAP1 DUP2 ADD PUSH1 0x40 MSTORE DUP1 SWAP3 SWAP2 SWAP1 DUP2 DUP2 MSTORE PUSH1 0x20 ADD DUP3 DUP1 SLOAD PUSH2 0x251 SWAP1 PUSH2 0x9B5 JUMP JUMPDEST DUP1 ISZERO PUSH2 0x29E JUMPI DUP1 PUSH1 0x1F LT PUSH2 0x273 JUMPI PUSH2 0x100 DUP1 DUP4 SLOAD DIV MUL DUP4 MSTORE SWAP2 PUSH1 0x20 ADD SWAP2 PUSH2 0x29E JUMP JUMPDEST DUP3 ADD SWAP2 SWAP1 PUSH1 0x0 MSTORE PUSH1 0x20 PUSH1 0x0 KECCAK256 SWAP1 JUMPDEST DUP2 SLOAD DUP2 MSTORE SWAP1 PUSH1 0x1 ADD SWAP1 PUSH1 0x20 ADD DUP1 DUP4 GT PUSH2 0x281 JUMPI DUP3 SWAP1 SUB PUSH1 0x1F AND DUP3 ADD SWAP2 JUMPDEST POP POP POP POP POP DUP2 JUMP JUMPDEST PUSH1 0x6 PUSH1 0x0 SWAP1 SLOAD SWAP1 PUSH2 0x100 EXP SWAP1 DIV PUSH1 0xFF AND DUP2 JUMP JUMPDEST PUSH1 0x0 DUP1 PUSH1 0x2 DUP2 GT ISZERO PUSH2 0x2CE JUMPI PUSH2 0x2CD PUSH2 0x846 JUMP JUMPDEST JUMPDEST PUSH1 0x6 PUSH1 0x0 SWAP1 SLOAD SWAP1 PUSH2 0x100 EXP SWAP1 DIV PUSH1 0xFF AND PUSH1 0x2 DUP2 GT ISZERO PUSH2 0x2F0 JUMPI PUSH2 0x2EF PUSH2 0x846 JUMP JUMPDEST JUMPDEST EQ PUSH2 0x330 JUMPI PUSH1 0x40 MLOAD PUSH32 0x8C379A000000000000000000000000000000000000000000000000000000000 DUP2 MSTORE PUSH1 0x4 ADD PUSH2 0x327 SWAP1 PUSH2 0xA59 JUMP JUMPDEST PUSH1 0x40 MLOAD DUP1 SWAP2 SUB SWAP1 REVERT JUMPDEST PUSH1 0x1 PUSH1 0x0 SWAP1 SLOAD SWAP1 PUSH2 0x100 EXP SWAP1 DIV PUSH20 0xFFFFFFFFFFFFFFFFFFFFFFFFFFFFFFFFFFFFFFFF AND PUSH20 0xFFFFFFFFFFFFFFFFFFFFFFFFFFFFFFFFFFFFFFFF AND ORIGIN PUSH20 0xFFFFFFFFFFFFFFFFFFFFFFFFFFFFFFFFFFFFFFFF AND EQ DUP1 PUSH2 0x3D7 JUMPI POP PUSH1 0x0 DUP1 SLOAD SWAP1 PUSH2 0x100 EXP SWAP1 DIV PUSH20 0xFFFFFFFFFFFFFFFFFFFFFFFFFFFFFFFFFFFFFFFF AND PUSH20 0xFFFFFFFFFFFFFFFFFFFFFFFFFFFFFFFFFFFFFFFF AND ORIGIN PUSH20 0xFFFFFFFFFFFFFFFFFFFFFFFFFFFFFFFFFFFFFFFF AND EQ JUMPDEST PUSH2 0x416 JUMPI PUSH1 0x40 MLOAD PUSH32 0x8C379A000000000000000000000000000000000000000000000000000000000 DUP2 MSTORE PUSH1 0x4 ADD PUSH2 0x40D SWAP1 PUSH2 0xAEB JUMP JUMPDEST PUSH1 0x40 MLOAD DUP1 SWAP2 SUB SWAP1 REVERT JUMPDEST PUSH1 0x4 PUSH1 0x0 SWAP1 SLOAD SWAP1 PUSH2 0x100 EXP SWAP1 DIV PUSH20 0xFFFFFFFFFFFFFFFFFFFFFFFFFFFFFFFFFFFFFFFF AND PUSH20 0xFFFFFFFFFFFFFFFFFFFFFFFFFFFFFFFFFFFFFFFF AND PUSH2 0x8FC SELFBALANCE SWAP1 DUP2 ISZERO MUL SWAP1 PUSH1 0x40 MLOAD PUSH1 0x0 PUSH1 0x40 MLOAD DUP1 DUP4 SUB DUP2 DUP6 DUP9 DUP9 CALL SWAP4 POP POP POP POP ISZERO DUP1 ISZERO PUSH2 0x47E JUMPI RETURNDATASIZE PUSH1 0x0 DUP1 RETURNDATACOPY RETURNDATASIZE PUSH1 0x0 REVERT JUMPDEST POP PUSH1 0x2 PUSH1 0x6 PUSH1 0x0 PUSH2 0x100 EXP DUP2 SLOAD DUP2 PUSH1 0xFF MUL NOT AND SWAP1 DUP4 PUSH1 0x2 DUP2 GT ISZERO PUSH2 0x4A5 JUMPI PUSH2 0x4A4 PUSH2 0x846 JUMP JUMPDEST JUMPDEST MUL OR SWAP1 SSTORE POP ADDRESS SWAP1 POP SWAP1 JUMP JUMPDEST PUSH1 0x1 PUSH1 0x0 SWAP1 SLOAD SWAP1 PUSH2 0x100 EXP SWAP1 DIV PUSH20 0xFFFFFFFFFFFFFFFFFFFFFFFFFFFFFFFFFFFFFFFF AND DUP2 JUMP JUMPDEST PUSH1 0x4 PUSH1 0x0 SWAP1 SLOAD SWAP1 PUSH2 0x100 EXP SWAP1 DIV PUSH20 0xFFFFFFFFFFFFFFFFFFFFFFFFFFFFFFFFFFFFFFFF AND DUP2 JUMP JUMPDEST PUSH1 0x3 DUP1 SLOAD PUSH2 0x509 SWAP1 PUSH2 0x9B5 JUMP JUMPDEST DUP1 PUSH1 0x1F ADD PUSH1 0x20 DUP1 SWAP2 DIV MUL PUSH1 0x20 ADD PUSH1 0x40 MLOAD SWAP1 DUP2 ADD PUSH1 0x40 MSTORE DUP1 SWAP3 SWAP2 SWAP1 DUP2 DUP2 MSTORE PUSH1 0x20 ADD DUP3 DUP1 SLOAD PUSH2 0x535 SWAP1 PUSH2 0x9B5 JUMP JUMPDEST DUP1 ISZERO PUSH2 0x582 JUMPI DUP1 PUSH1 0x1F LT PUSH2 0x557 JUMPI PUSH2 0x100 DUP1 DUP4 SLOAD DIV MUL DUP4 MSTORE SWAP2 PUSH1 0x20 ADD SWAP2 PUSH2 0x582 JUMP JUMPDEST DUP3 ADD SWAP2 SWAP1 PUSH1 0x0 MSTORE PUSH1 0x20 PUSH1 0x0 KECCAK256 SWAP1 JUMPDEST DUP2 SLOAD DUP2 MSTORE SWAP1 PUSH1 0x1 ADD SWAP1 PUSH1 0x20 ADD DUP1 DUP4 GT PUSH2 0x565 JUMPI DUP3 SWAP1 SUB PUSH1 0x1F AND DUP3 ADD SWAP2 JUMPDEST POP POP POP POP POP DUP2 JUMP JUMPDEST PUSH1 0x5 SLOAD DUP2 JUMP JUMPDEST PUSH1 0x0 DUP1 PUSH1 0x2 DUP2 GT ISZERO PUSH2 0x5A5 JUMPI PUSH2 0x5A4 PUSH2 0x846 JUMP JUMPDEST JUMPDEST PUSH1 0x6 PUSH1 0x0 SWAP1 SLOAD SWAP1 PUSH2 0x100 EXP SWAP1 DIV PUSH1 0xFF AND PUSH1 0x2 DUP2 GT ISZERO PUSH2 0x5C7 JUMPI PUSH2 0x5C6 PUSH2 0x846 JUMP JUMPDEST JUMPDEST EQ PUSH2 0x607 JUMPI PUSH1 0x40 MLOAD PUSH32 0x8C379A000000000000000000000000000000000000000000000000000000000 DUP2 MSTORE PUSH1 0x4 ADD PUSH2 0x5FE SWAP1 PUSH2 0xA59 JUMP JUMPDEST PUSH1 0x40 MLOAD DUP1 SWAP2 SUB SWAP1 REVERT JUMPDEST PUSH1 0x1 PUSH1 0x0 SWAP1 SLOAD SWAP1 PUSH2 0x100 EXP SWAP1 DIV PUSH20 0xFFFFFFFFFFFFFFFFFFFFFFFFFFFFFFFFFFFFFFFF AND PUSH20 0xFFFFFFFFFFFFFFFFFFFFFFFFFFFFFFFFFFFFFFFF AND ORIGIN PUSH20 0xFFFFFFFFFFFFFFFFFFFFFFFFFFFFFFFFFFFFFFFF AND EQ PUSH2 0x697 JUMPI PUSH1 0x40 MLOAD PUSH32 0x8C379A000000000000000000000000000000000000000000000000000000000 DUP2 MSTORE PUSH1 0x4 ADD PUSH2 0x68E SWAP1 PUSH2 0xB7D JUMP JUMPDEST PUSH1 0x40 MLOAD DUP1 SWAP2 SUB SWAP1 REVERT JUMPDEST PUSH1 0x0 DUP1 SLOAD SWAP1 PUSH2 0x100 EXP SWAP1 DIV PUSH20 0xFFFFFFFFFFFFFFFFFFFFFFFFFFFFFFFFFFFFFFFF AND PUSH20 0xFFFFFFFFFFFFFFFFFFFFFFFFFFFFFFFFFFFFFFFF AND PUSH2 0x8FC SELFBALANCE SWAP1 DUP2 ISZERO MUL SWAP1 PUSH1 0x40 MLOAD PUSH1 0x0 PUSH1 0x40 MLOAD DUP1 DUP4 SUB DUP2 DUP6 DUP9 DUP9 CALL SWAP4 POP POP POP POP ISZERO DUP1 ISZERO PUSH2 0x6FD JUMPI RETURNDATASIZE PUSH1 0x0 DUP1 RETURNDATACOPY RETURNDATASIZE PUSH1 0x0 REVERT JUMPDEST POP PUSH1 0x1 PUSH1 0x6 PUSH1 0x0 PUSH2 0x100 EXP DUP2 SLOAD DUP2 PUSH1 0xFF MUL NOT AND SWAP1 DUP4 PUSH1 0x2 DUP2 GT ISZERO PUSH2 0x724 JUMPI PUSH2 0x723 PUSH2 0x846 JUMP JUMPDEST JUMPDEST MUL OR SWAP1 SSTORE POP ADDRESS SWAP1 POP SWAP1 JUMP JUMPDEST PUSH1 0x0 PUSH20 0xFFFFFFFFFFFFFFFFFFFFFFFFFFFFFFFFFFFFFFFF DUP3 AND SWAP1 POP SWAP2 SWAP1 POP JUMP JUMPDEST PUSH1 0x0 PUSH2 0x75A DUP3 PUSH2 0x72F JUMP JUMPDEST SWAP1 POP SWAP2 SWAP1 POP JUMP JUMPDEST PUSH2 0x76A DUP2 PUSH2 0x74F JUMP JUMPDEST DUP3 MSTORE POP POP JUMP JUMPDEST PUSH1 0x0 PUSH1 0x20 DUP3 ADD SWAP1 POP PUSH2 0x785 PUSH1 0x0 DUP4 ADD DUP5 PUSH2 0x761 JUMP JUMPDEST SWAP3 SWAP2 POP POP JUMP JUMPDEST PUSH1 0x0 DUP2 MLOAD SWAP1 POP SWAP2 SWAP1 POP JUMP JUMPDEST PUSH1 0x0 DUP3 DUP3 MSTORE PUSH1 0x20 DUP3 ADD SWAP1 POP SWAP3 SWAP2 POP POP JUMP JUMPDEST PUSH1 0x0 JUMPDEST DUP4 DUP2 LT ISZERO PUSH2 0x7C5 JUMPI DUP1 DUP3 ADD MLOAD DUP2 DUP5 ADD MSTORE PUSH1 0x20 DUP2 ADD SWAP1 POP PUSH2 0x7AA JUMP JUMPDEST DUP4 DUP2 GT ISZERO PUSH2 0x7D4 JUMPI PUSH1 0x0 DUP5 DUP5 ADD MSTORE JUMPDEST POP POP POP POP JUMP JUMPDEST PUSH1 0x0 PUSH1 0x1F NOT PUSH1 0x1F DUP4 ADD AND SWAP1 POP SWAP2 SWAP1 POP JUMP JUMPDEST PUSH1 0x0 PUSH2 0x7F6 DUP3 PUSH2 0x78B JUMP JUMPDEST PUSH2 0x800 DUP2 DUP6 PUSH2 0x796 JUMP JUMPDEST SWAP4 POP PUSH2 0x810 DUP2 DUP6 PUSH1 0x20 DUP7 ADD PUSH2 0x7A7 JUMP JUMPDEST PUSH2 0x819 DUP2 PUSH2 0x7DA JUMP JUMPDEST DUP5 ADD SWAP2 POP POP SWAP3 SWAP2 POP POP JUMP JUMPDEST PUSH1 0x0 PUSH1 0x20 DUP3 ADD SWAP1 POP DUP2 DUP2 SUB PUSH1 0x0 DUP4 ADD MSTORE PUSH2 0x83E DUP2 DUP5 PUSH2 0x7EB JUMP JUMPDEST SWAP1 POP SWAP3 SWAP2 POP POP JUMP JUMPDEST PUSH32 0x4E487B7100000000000000000000000000000000000000000000000000000000 PUSH1 0x0 MSTORE PUSH1 0x21 PUSH1 0x4 MSTORE PUSH1 0x24 PUSH1 0x0 REVERT JUMPDEST PUSH1 0x3 DUP2 LT PUSH2 0x886 JUMPI PUSH2 0x885 PUSH2 0x846 JUMP JUMPDEST JUMPDEST POP JUMP JUMPDEST PUSH1 0x0 DUP2 SWAP1 POP PUSH2 0x897 DUP3 PUSH2 0x875 JUMP JUMPDEST SWAP2 SWAP1 POP JUMP JUMPDEST PUSH1 0x0 PUSH2 0x8A7 DUP3 PUSH2 0x889 JUMP JUMPDEST SWAP1 POP SWAP2 SWAP1 POP JUMP JUMPDEST PUSH2 0x8B7 DUP2 PUSH2 0x89C JUMP JUMPDEST DUP3 MSTORE POP POP JUMP JUMPDEST PUSH1 0x0 PUSH1 0x20 DUP3 ADD SWAP1 POP PUSH2 0x8D2 PUSH1 0x0 DUP4 ADD DUP5 PUSH2 0x8AE JUMP JUMPDEST SWAP3 SWAP2 POP POP JUMP JUMPDEST PUSH1 0x0 DUP2 SWAP1 POP SWAP2 SWAP1 POP JUMP JUMPDEST PUSH1 0x0 PUSH2 0x8FD PUSH2 0x8F8 PUSH2 0x8F3 DUP5 PUSH2 0x72F JUMP JUMPDEST PUSH2 0x8D8 JUMP JUMPDEST PUSH2 0x72F JUMP JUMPDEST SWAP1 POP SWAP2 SWAP1 POP JUMP JUMPDEST PUSH1 0x0 PUSH2 0x90F DUP3 PUSH2 0x8E2 JUMP JUMPDEST SWAP1 POP SWAP2 SWAP1 POP JUMP JUMPDEST PUSH1 0x0 PUSH2 0x921 DUP3 PUSH2 0x904 JUMP JUMPDEST SWAP1 POP SWAP2 SWAP1 POP JUMP JUMPDEST PUSH2 0x931 DUP2 PUSH2 0x916 JUMP JUMPDEST DUP3 MSTORE POP POP JUMP JUMPDEST PUSH1 0x0 PUSH1 0x20 DUP3 ADD SWAP1 POP PUSH2 0x94C PUSH1 0x0 DUP4 ADD DUP5 PUSH2 0x928 JUMP JUMPDEST SWAP3 SWAP2 POP POP JUMP JUMPDEST PUSH1 0x0 DUP2 SWAP1 POP SWAP2 SWAP1 POP JUMP JUMPDEST PUSH2 0x965 DUP2 PUSH2 0x952 JUMP JUMPDEST DUP3 MSTORE POP POP JUMP JUMPDEST PUSH1 0x0 PUSH1 0x20 DUP3 ADD SWAP1 POP PUSH2 0x980 PUSH1 0x0 DUP4 ADD DUP5 PUSH2 0x95C JUMP JUMPDEST SWAP3 SWAP2 POP POP JUMP JUMPDEST PUSH32 0x4E487B7100000000000000000000000000000000000000000000000000000000 PUSH1 0x0 MSTORE PUSH1 0x22 PUSH1 0x4 MSTORE PUSH1 0x24 PUSH1 0x0 REVERT JUMPDEST PUSH1 0x0 PUSH1 0x2 DUP3 DIV SWAP1 POP PUSH1 0x1 DUP3 AND DUP1 PUSH2 0x9CD JUMPI PUSH1 0x7F DUP3 AND SWAP2 POP JUMPDEST PUSH1 0x20 DUP3 LT DUP2 EQ ISZERO PUSH2 0x9E1 JUMPI PUSH2 0x9E0 PUSH2 0x986 JUMP JUMPDEST JUMPDEST POP SWAP2 SWAP1 POP JUMP JUMPDEST PUSH32 0x436F6E747261637420737461747573206973206E6F7420657175616C20746F20 PUSH1 0x0 DUP3 ADD MSTORE PUSH32 0x6F70656E00000000000000000000000000000000000000000000000000000000 PUSH1 0x20 DUP3 ADD MSTORE POP JUMP JUMPDEST PUSH1 0x0 PUSH2 0xA43 PUSH1 0x24 DUP4 PUSH2 0x796 JUMP JUMPDEST SWAP2 POP PUSH2 0xA4E DUP3 PUSH2 0x9E7 JUMP JUMPDEST PUSH1 0x40 DUP3 ADD SWAP1 POP SWAP2 SWAP1 POP JUMP JUMPDEST PUSH1 0x0 PUSH1 0x20 DUP3 ADD SWAP1 POP DUP2 DUP2 SUB PUSH1 0x0 DUP4 ADD MSTORE PUSH2 0xA72 DUP2 PUSH2 0xA36 JUMP JUMPDEST SWAP1 POP SWAP2 SWAP1 POP JUMP JUMPDEST PUSH32 0x4F6E6C792072656665726565206F722063726561746F722063616E206661696C PUSH1 0x0 DUP3 ADD MSTORE PUSH32 0x20636F6E74726163740000000000000000000000000000000000000000000000 PUSH1 0x20 DUP3 ADD MSTORE POP JUMP JUMPDEST PUSH1 0x0 PUSH2 0xAD5 PUSH1 0x29 DUP4 PUSH2 0x796 JUMP JUMPDEST SWAP2 POP PUSH2 0xAE0 DUP3 PUSH2 0xA79 JUMP JUMPDEST PUSH1 0x40 DUP3 ADD SWAP1 POP SWAP2 SWAP1 POP JUMP JUMPDEST PUSH1 0x0 PUSH1 0x20 DUP3 ADD SWAP1 POP DUP2 DUP2 SUB PUSH1 0x0 DUP4 ADD MSTORE PUSH2 0xB04 DUP2 PUSH2 0xAC8 JUMP JUMPDEST SWAP1 POP SWAP2 SWAP1 POP JUMP JUMPDEST PUSH32 0x4F6E6C7920726566657265652063616E20636F6D706C657465206120636F6E74 PUSH1 0x0 DUP3 ADD MSTORE PUSH32 0x7261637400000000000000000000000000000000000000000000000000000000 PUSH1 0x20 DUP3 ADD MSTORE POP JUMP JUMPDEST PUSH1 0x0 PUSH2 0xB67 PUSH1 0x24 DUP4 PUSH2 0x796 JUMP JUMPDEST SWAP2 POP PUSH2 0xB72 DUP3 PUSH2 0xB0B JUMP JUMPDEST PUSH1 0x40 DUP3 ADD SWAP1 POP SWAP2 SWAP1 POP JUMP JUMPDEST PUSH1 0x0 PUSH1 0x20 DUP3 ADD SWAP1 POP DUP2 DUP2 SUB PUSH1 0x0 DUP4 ADD MSTORE PUSH2 0xB96 DUP2 PUSH2 0xB5A JUMP JUMPDEST SWAP1 POP SWAP2 SWAP1 POP JUMP INVALID LOG2 PUSH5 0x6970667358 0x22 SLT KECCAK256 SWAP9 0xD7 0x2A DUP12 SGT DUP7 0xCD 0x1E 0xE3 STATICCALL AND SHR 0x23 SWAP3 0x5D 0xC9 PUSH31 0x750B0EE15FBA12FF98109FE7363C9C64736F6C634300080C0033A264697066 PUSH20 0x582212206574316A544326904827FEF5DE0CF8C4 JUMP NOT 0xA8 SWAP1 0xEA CALLER SWAP4 0xE1 0xC7 EXP MULMOD 0xEC PUSH18 0xB430EA64736F6C634300080C003300000000 "},"gasEstimates":{"creation":{"codeDepositCost":"2549000","executionCost":"2755","totalCost":"2551755"},"external":{"completeOpenAccountabilityContract(address,uint256)":"infinite","createAccountabilityContract(address,string,string,address)":"infinite","failOpenAccountabilityContract(address,uint256)":"infinite","getClosedAccountabilityContractAddressesForReferee(address)":"infinite","getClosedAccountabilityContractAddressesForUser(address)":"infinite","getOpenAccountabilityContractAddressesForReferee(address)":"infinite","getOpenAccountabilityContractAddressesForUser(address)":"infinite","numberOfReferees()":"2517","numberOfUsers()":"2429","referees(address)":"2895","users(address)":"2872"},"internal":{"moveOpenContractToClosedContractsForReferee(address,address)":"infinite","moveOpenContractToClosedContractsForUser(address,uint256)":"infinite"}},"methodIdentifiers":{"completeOpenAccountabilityContract(address,uint256)":"2bc7decc","createAccountabilityContract(address,string,string,address)":"e436e826","failOpenAccountabilityContract(address,uint256)":"74baa69c","getClosedAccountabilityContractAddressesForReferee(address)":"19ee8bd4","getClosedAccountabilityContractAddressesForUser(address)":"b24e67d0","getOpenAccountabilityContractAddressesForReferee(address)":"9051e234","getOpenAccountabilityContractAddressesForUser(address)":"442a7bc7","numberOfReferees()":"b3b6633e","numberOfUsers()":"75ce46a7","referees(address)":"64a60b47","users(address)":"a87430ba"}}}