{"abi":[{"inputs":[{"internalType":"uint256","name":"","type":"uint256"}],"name":"accountabilityContractAddresses","outputs":[{"internalType":"address","name":"","type":"address"}],"stateMutability":"view","type":"function"},{"inputs":[{"internalType":"address","name":"approvalRequestAddress","type":"address"}],"name":"approveRequest","outputs":[],"stateMutability":"nonpayable","type":"function"},{"inputs":[{"internalType":"address","name":"contractAddress","type":"address"}],"name":"completeOpenAccountabilityContract","outputs":[],"stateMutability":"nonpayable","type":"function"},{"inputs":[{"internalType":"address","name":"_referee","type":"address"},{"internalType":"string","name":"_name","type":"string"},{"internalType":"string","name":"_description","type":"string"},{"internalType":"address payable","name":"_failureRecipient","type":"address"}],"name":"createAccountabilityContract","outputs":[],"stateMutability":"payable","type":"function"},{"inputs":[{"internalType":"address","name":"contractAddress","type":"address"}],"name":"failOpenAccountabilityContract","outputs":[],"stateMutability":"nonpayable","type":"function"},{"inputs":[{"internalType":"uint256","name":"startIndex","type":"uint256"},{"internalType":"uint256","name":"endIndex","type":"uint256"}],"name":"getAccountabilityContractAddresses","outputs":[{"internalType":"address[]","name":"","type":"address[]"}],"stateMutability":"view","type":"function"},{"inputs":[{"internalType":"address","name":"referee","type":"address"}],"name":"getApprovalRequests","outputs":[{"internalType":"address[]","name":"","type":"address[]"}],"stateMutability":"view","type":"function"},{"inputs":[{"internalType":"address","name":"referee","type":"address"}],"name":"getClosedAccountabilityContractAddressesForReferee","outputs":[{"internalType":"address[]","name":"","type":"address[]"}],"stateMutability":"view","type":"function"},{"inputs":[{"internalType":"address","name":"user","type":"address"}],"name":"getClosedAccountabilityContractAddressesForUser","outputs":[{"internalType":"address[]","name":"","type":"address[]"}],"stateMutability":"view","type":"function"},{"inputs":[{"internalType":"address","name":"referee","type":"address"}],"name":"getOpenAccountabilityContractAddressesForReferee","outputs":[{"internalType":"address[]","name":"","type":"address[]"}],"stateMutability":"view","type":"function"},{"inputs":[{"internalType":"address","name":"user","type":"address"}],"name":"getOpenAccountabilityContractAddressesForUser","outputs":[{"internalType":"address[]","name":"","type":"address[]"}],"stateMutability":"view","type":"function"},{"inputs":[{"internalType":"uint256","name":"startIndex","type":"uint256"},{"internalType":"uint256","name":"endIndex","type":"uint256"}],"name":"getUserAddresses","outputs":[{"internalType":"address[]","name":"","type":"address[]"}],"stateMutability":"view","type":"function"},{"inputs":[],"name":"numberOfAccountabilityContracts","outputs":[{"internalType":"uint256","name":"","type":"uint256"}],"stateMutability":"view","type":"function"},{"inputs":[],"name":"numberOfReferees","outputs":[{"internalType":"uint256","name":"","type":"uint256"}],"stateMutability":"view","type":"function"},{"inputs":[],"name":"numberOfUsers","outputs":[{"internalType":"uint256","name":"","type":"uint256"}],"stateMutability":"view","type":"function"},{"inputs":[{"internalType":"uint256","name":"","type":"uint256"}],"name":"refereeAddresses","outputs":[{"internalType":"address","name":"","type":"address"}],"stateMutability":"view","type":"function"},{"inputs":[{"internalType":"address","name":"","type":"address"}],"name":"referees","outputs":[{"internalType":"uint256","name":"managedContracts","type":"uint256"}],"stateMutability":"view","type":"function"},{"inputs":[{"internalType":"address","name":"approvalRequestAddress","type":"address"},{"internalType":"string","name":"response","type":"string"}],"name":"rejectRequest","outputs":[],"stateMutability":"nonpayable","type":"function"},{"inputs":[{"internalType":"address","name":"contractAddress","type":"address"}],"name":"requestApproval","outputs":[],"stateMutability":"nonpayable","type":"function"},{"inputs":[],"name":"totalEthInContracts","outputs":[{"internalType":"uint256","name":"","type":"uint256"}],"stateMutability":"view","type":"function"},{"inputs":[{"internalType":"uint256","name":"","type":"uint256"}],"name":"userAddresses","outputs":[{"internalType":"address","name":"","type":"address"}],"stateMutability":"view","type":"function"},{"inputs":[{"internalType":"address","name":"","type":"address"}],"name":"users","outputs":[{"internalType":"uint256","name":"createdContracts","type":"uint256"}],"stateMutability":"view","type":"function"}],"evm":{"assembly":"    /* \"Contracts\":57:9679  contract AccountabilityContractFactory {... */\n  mstore(0x40, 0x80)\n  callvalue\n  dup1\n  iszero\n  tag_1\n  jumpi\n  0x00\n  dup1\n  revert\ntag_1:\n  pop\n  dataSize(sub_0)\n  dup1\n  dataOffset(sub_0)\n  0x00\n  codecopy\n  0x00\n  return\nstop\n\nsub_0: assembly {\n        /* \"Contracts\":57:9679  contract AccountabilityContractFactory {... */\n      mstore(0x40, 0x80)\n      jumpi(tag_1, lt(calldatasize, 0x04))\n      shr(0xe0, calldataload(0x00))\n      dup1\n      0x75ce46a7\n      gt\n      tag_24\n      jumpi\n      dup1\n      0xb24e67d0\n      gt\n      tag_25\n      jumpi\n      dup1\n      0xb24e67d0\n      eq\n      tag_18\n      jumpi\n      dup1\n      0xb3b6633e\n      eq\n      tag_19\n      jumpi\n      dup1\n      0xd77399e5\n      eq\n      tag_20\n      jumpi\n      dup1\n      0xdc0e0c13\n      eq\n      tag_21\n      jumpi\n      dup1\n      0xe10bc834\n      eq\n      tag_22\n      jumpi\n      dup1\n      0xe436e826\n      eq\n      tag_23\n      jumpi\n      jump(tag_1)\n    tag_25:\n      dup1\n      0x75ce46a7\n      eq\n      tag_13\n      jumpi\n      dup1\n      0x8793ed80\n      eq\n      tag_14\n      jumpi\n      dup1\n      0x9051e234\n      eq\n      tag_15\n      jumpi\n      dup1\n      0xa87430ba\n      eq\n      tag_16\n      jumpi\n      dup1\n      0xa908f4fa\n      eq\n      tag_17\n      jumpi\n      jump(tag_1)\n    tag_24:\n      dup1\n      0x442a7bc7\n      gt\n      tag_26\n      jumpi\n      dup1\n      0x442a7bc7\n      eq\n      tag_7\n      jumpi\n      dup1\n      0x4841a885\n      eq\n      tag_8\n      jumpi\n      dup1\n      0x502c9bd5\n      eq\n      tag_9\n      jumpi\n      dup1\n      0x5b259abf\n      eq\n      tag_10\n      jumpi\n      dup1\n      0x61542c44\n      eq\n      tag_11\n      jumpi\n      dup1\n      0x64a60b47\n      eq\n      tag_12\n      jumpi\n      jump(tag_1)\n    tag_26:\n      dup1\n      0x061dff9a\n      eq\n      tag_2\n      jumpi\n      dup1\n      0x0e865751\n      eq\n      tag_3\n      jumpi\n      dup1\n      0x19ee8bd4\n      eq\n      tag_4\n      jumpi\n      dup1\n      0x38db44bc\n      eq\n      tag_5\n      jumpi\n      dup1\n      0x38fb42fd\n      eq\n      tag_6\n      jumpi\n    tag_1:\n      0x00\n      dup1\n      revert\n        /* \"Contracts\":4412:5339  function approveRequest(address approvalRequestAddress) public {... */\n    tag_2:\n      callvalue\n      dup1\n      iszero\n      tag_27\n      jumpi\n      0x00\n      dup1\n      revert\n    tag_27:\n      pop\n      tag_28\n      0x04\n      dup1\n      calldatasize\n      sub\n      dup2\n      add\n      swap1\n      tag_29\n      swap2\n      swap1\n      tag_30\n      jump\t// in\n    tag_29:\n      tag_31\n      jump\t// in\n    tag_28:\n      stop\n        /* \"Contracts\":9074:9677  function getAccountabilityContractAddresses(uint startIndex, uint endIndex) public view returns (address[] memory) {... */\n    tag_3:\n      callvalue\n      dup1\n      iszero\n      tag_32\n      jumpi\n      0x00\n      dup1\n      revert\n    tag_32:\n      pop\n      tag_33\n      0x04\n      dup1\n      calldatasize\n      sub\n      dup2\n      add\n      swap1\n      tag_34\n      swap2\n      swap1\n      tag_35\n      jump\t// in\n    tag_34:\n      tag_36\n      jump\t// in\n    tag_33:\n      mload(0x40)\n      tag_37\n      swap2\n      swap1\n      tag_38\n      jump\t// in\n    tag_37:\n      mload(0x40)\n      dup1\n      swap2\n      sub\n      swap1\n      return\n        /* \"Contracts\":2417:2611  function getClosedAccountabilityContractAddressesForReferee(address referee) public view returns (address[] memory){... */\n    tag_4:\n      callvalue\n      dup1\n      iszero\n      tag_39\n      jumpi\n      0x00\n      dup1\n      revert\n    tag_39:\n      pop\n      tag_40\n      0x04\n      dup1\n      calldatasize\n      sub\n      dup2\n      add\n      swap1\n      tag_41\n      swap2\n      swap1\n      tag_30\n      jump\t// in\n    tag_41:\n      tag_42\n      jump\t// in\n    tag_40:\n      mload(0x40)\n      tag_43\n      swap2\n      swap1\n      tag_38\n      jump\t// in\n    tag_43:\n      mload(0x40)\n      dup1\n      swap2\n      sub\n      swap1\n      return\n        /* \"Contracts\":204:252  address[] public accountabilityContractAddresses */\n    tag_5:\n      callvalue\n      dup1\n      iszero\n      tag_44\n      jumpi\n      0x00\n      dup1\n      revert\n    tag_44:\n      pop\n      tag_45\n      0x04\n      dup1\n      calldatasize\n      sub\n      dup2\n      add\n      swap1\n      tag_46\n      swap2\n      swap1\n      tag_47\n      jump\t// in\n    tag_46:\n      tag_48\n      jump\t// in\n    tag_45:\n      mload(0x40)\n      tag_49\n      swap2\n      swap1\n      tag_50\n      jump\t// in\n    tag_49:\n      mload(0x40)\n      dup1\n      swap2\n      sub\n      swap1\n      return\n        /* \"Contracts\":417:450  address[] public refereeAddresses */\n    tag_6:\n      callvalue\n      dup1\n      iszero\n      tag_51\n      jumpi\n      0x00\n      dup1\n      revert\n    tag_51:\n      pop\n      tag_52\n      0x04\n      dup1\n      calldatasize\n      sub\n      dup2\n      add\n      swap1\n      tag_53\n      swap2\n      swap1\n      tag_47\n      jump\t// in\n    tag_53:\n      tag_54\n      jump\t// in\n    tag_52:\n      mload(0x40)\n      tag_55\n      swap2\n      swap1\n      tag_50\n      jump\t// in\n    tag_55:\n      mload(0x40)\n      dup1\n      swap2\n      sub\n      swap1\n      return\n        /* \"Contracts\":1849:2027  function getOpenAccountabilityContractAddressesForUser(address user) public view returns (address[] memory){... */\n    tag_7:\n      callvalue\n      dup1\n      iszero\n      tag_56\n      jumpi\n      0x00\n      dup1\n      revert\n    tag_56:\n      pop\n      tag_57\n      0x04\n      dup1\n      calldatasize\n      sub\n      dup2\n      add\n      swap1\n      tag_58\n      swap2\n      swap1\n      tag_30\n      jump\t// in\n    tag_58:\n      tag_59\n      jump\t// in\n    tag_57:\n      mload(0x40)\n      tag_60\n      swap2\n      swap1\n      tag_38\n      jump\t// in\n    tag_60:\n      mload(0x40)\n      dup1\n      swap2\n      sub\n      swap1\n      return\n        /* \"Contracts\":256:299  uint public numberOfAccountabilityContracts */\n    tag_8:\n      callvalue\n      dup1\n      iszero\n      tag_61\n      jumpi\n      0x00\n      dup1\n      revert\n    tag_61:\n      pop\n      tag_62\n      tag_63\n      jump\t// in\n    tag_62:\n      mload(0x40)\n      tag_64\n      swap2\n      swap1\n      tag_65\n      jump\t// in\n    tag_64:\n      mload(0x40)\n      dup1\n      swap2\n      sub\n      swap1\n      return\n        /* \"Contracts\":141:171  address[] public userAddresses */\n    tag_9:\n      callvalue\n      dup1\n      iszero\n      tag_66\n      jumpi\n      0x00\n      dup1\n      revert\n    tag_66:\n      pop\n      tag_67\n      0x04\n      dup1\n      calldatasize\n      sub\n      dup2\n      add\n      swap1\n      tag_68\n      swap2\n      swap1\n      tag_47\n      jump\t// in\n    tag_68:\n      tag_69\n      jump\t// in\n    tag_67:\n      mload(0x40)\n      tag_70\n      swap2\n      swap1\n      tag_50\n      jump\t// in\n    tag_70:\n      mload(0x40)\n      dup1\n      swap2\n      sub\n      swap1\n      return\n        /* \"Contracts\":2774:3193  function failOpenAccountabilityContract(address contractAddress) public {... */\n    tag_10:\n      callvalue\n      dup1\n      iszero\n      tag_71\n      jumpi\n      0x00\n      dup1\n      revert\n    tag_71:\n      pop\n      tag_72\n      0x04\n      dup1\n      calldatasize\n      sub\n      dup2\n      add\n      swap1\n      tag_73\n      swap2\n      swap1\n      tag_30\n      jump\t// in\n    tag_73:\n      tag_74\n      jump\t// in\n    tag_72:\n      stop\n        /* \"Contracts\":3199:3627  function completeOpenAccountabilityContract(address contractAddress) public {... */\n    tag_11:\n      callvalue\n      dup1\n      iszero\n      tag_75\n      jumpi\n      0x00\n      dup1\n      revert\n    tag_75:\n      pop\n      tag_76\n      0x04\n      dup1\n      calldatasize\n      sub\n      dup2\n      add\n      swap1\n      tag_77\n      swap2\n      swap1\n      tag_30\n      jump\t// in\n    tag_77:\n      tag_78\n      jump\t// in\n    tag_76:\n      stop\n        /* \"Contracts\":338:381  mapping(address => Referee) public referees */\n    tag_12:\n      callvalue\n      dup1\n      iszero\n      tag_79\n      jumpi\n      0x00\n      dup1\n      revert\n    tag_79:\n      pop\n      tag_80\n      0x04\n      dup1\n      calldatasize\n      sub\n      dup2\n      add\n      swap1\n      tag_81\n      swap2\n      swap1\n      tag_30\n      jump\t// in\n    tag_81:\n      tag_82\n      jump\t// in\n    tag_80:\n      mload(0x40)\n      tag_83\n      swap2\n      swap1\n      tag_65\n      jump\t// in\n    tag_83:\n      mload(0x40)\n      dup1\n      swap2\n      sub\n      swap1\n      return\n        /* \"Contracts\":175:200  uint public numberOfUsers */\n    tag_13:\n      callvalue\n      dup1\n      iszero\n      tag_84\n      jumpi\n      0x00\n      dup1\n      revert\n    tag_84:\n      pop\n      tag_85\n      tag_86\n      jump\t// in\n    tag_85:\n      mload(0x40)\n      tag_87\n      swap2\n      swap1\n      tag_65\n      jump\t// in\n    tag_87:\n      mload(0x40)\n      dup1\n      swap2\n      sub\n      swap1\n      return\n        /* \"Contracts\":2617:2768  function getApprovalRequests(address referee) public view returns (address[] memory){... */\n    tag_14:\n      callvalue\n      dup1\n      iszero\n      tag_88\n      jumpi\n      0x00\n      dup1\n      revert\n    tag_88:\n      pop\n      tag_89\n      0x04\n      dup1\n      calldatasize\n      sub\n      dup2\n      add\n      swap1\n      tag_90\n      swap2\n      swap1\n      tag_30\n      jump\t// in\n    tag_90:\n      tag_91\n      jump\t// in\n    tag_89:\n      mload(0x40)\n      tag_92\n      swap2\n      swap1\n      tag_38\n      jump\t// in\n    tag_92:\n      mload(0x40)\n      dup1\n      swap2\n      sub\n      swap1\n      return\n        /* \"Contracts\":2221:2411  function getOpenAccountabilityContractAddressesForReferee(address referee) public view returns (address[] memory){... */\n    tag_15:\n      callvalue\n      dup1\n      iszero\n      tag_93\n      jumpi\n      0x00\n      dup1\n      revert\n    tag_93:\n      pop\n      tag_94\n      0x04\n      dup1\n      calldatasize\n      sub\n      dup2\n      add\n      swap1\n      tag_95\n      swap2\n      swap1\n      tag_30\n      jump\t// in\n    tag_95:\n      tag_96\n      jump\t// in\n    tag_94:\n      mload(0x40)\n      tag_97\n      swap2\n      swap1\n      tag_38\n      jump\t// in\n    tag_97:\n      mload(0x40)\n      dup1\n      swap2\n      sub\n      swap1\n      return\n        /* \"Contracts\":100:137  mapping(address => User) public users */\n    tag_16:\n      callvalue\n      dup1\n      iszero\n      tag_98\n      jumpi\n      0x00\n      dup1\n      revert\n    tag_98:\n      pop\n      tag_99\n      0x04\n      dup1\n      calldatasize\n      sub\n      dup2\n      add\n      swap1\n      tag_100\n      swap2\n      swap1\n      tag_30\n      jump\t// in\n    tag_100:\n      tag_101\n      jump\t// in\n    tag_99:\n      mload(0x40)\n      tag_102\n      swap2\n      swap1\n      tag_65\n      jump\t// in\n    tag_102:\n      mload(0x40)\n      dup1\n      swap2\n      sub\n      swap1\n      return\n        /* \"Contracts\":8573:9068  function getUserAddresses(uint startIndex, uint endIndex) public view returns (address[] memory) {... */\n    tag_17:\n      callvalue\n      dup1\n      iszero\n      tag_103\n      jumpi\n      0x00\n      dup1\n      revert\n    tag_103:\n      pop\n      tag_104\n      0x04\n      dup1\n      calldatasize\n      sub\n      dup2\n      add\n      swap1\n      tag_105\n      swap2\n      swap1\n      tag_35\n      jump\t// in\n    tag_105:\n      tag_106\n      jump\t// in\n    tag_104:\n      mload(0x40)\n      tag_107\n      swap2\n      swap1\n      tag_38\n      jump\t// in\n    tag_107:\n      mload(0x40)\n      dup1\n      swap2\n      sub\n      swap1\n      return\n        /* \"Contracts\":2033:2215  function getClosedAccountabilityContractAddressesForUser(address user) public view returns (address[] memory){... */\n    tag_18:\n      callvalue\n      dup1\n      iszero\n      tag_108\n      jumpi\n      0x00\n      dup1\n      revert\n    tag_108:\n      pop\n      tag_109\n      0x04\n      dup1\n      calldatasize\n      sub\n      dup2\n      add\n      swap1\n      tag_110\n      swap2\n      swap1\n      tag_30\n      jump\t// in\n    tag_110:\n      tag_111\n      jump\t// in\n    tag_109:\n      mload(0x40)\n      tag_112\n      swap2\n      swap1\n      tag_38\n      jump\t// in\n    tag_112:\n      mload(0x40)\n      dup1\n      swap2\n      sub\n      swap1\n      return\n        /* \"Contracts\":385:413  uint public numberOfReferees */\n    tag_19:\n      callvalue\n      dup1\n      iszero\n      tag_113\n      jumpi\n      0x00\n      dup1\n      revert\n    tag_113:\n      pop\n      tag_114\n      tag_115\n      jump\t// in\n    tag_114:\n      mload(0x40)\n      tag_116\n      swap2\n      swap1\n      tag_65\n      jump\t// in\n    tag_116:\n      mload(0x40)\n      dup1\n      swap2\n      sub\n      swap1\n      return\n        /* \"Contracts\":5345:5614  function rejectRequest(address approvalRequestAddress, string memory response) public {... */\n    tag_20:\n      callvalue\n      dup1\n      iszero\n      tag_117\n      jumpi\n      0x00\n      dup1\n      revert\n    tag_117:\n      pop\n      tag_118\n      0x04\n      dup1\n      calldatasize\n      sub\n      dup2\n      add\n      swap1\n      tag_119\n      swap2\n      swap1\n      tag_120\n      jump\t// in\n    tag_119:\n      tag_121\n      jump\t// in\n    tag_118:\n      stop\n        /* \"Contracts\":303:334  uint public totalEthInContracts */\n    tag_21:\n      callvalue\n      dup1\n      iszero\n      tag_122\n      jumpi\n      0x00\n      dup1\n      revert\n    tag_122:\n      pop\n      tag_123\n      tag_124\n      jump\t// in\n    tag_123:\n      mload(0x40)\n      tag_125\n      swap2\n      swap1\n      tag_65\n      jump\t// in\n    tag_125:\n      mload(0x40)\n      dup1\n      swap2\n      sub\n      swap1\n      return\n        /* \"Contracts\":3633:4406  function requestApproval(address contractAddress) public {... */\n    tag_22:\n      callvalue\n      dup1\n      iszero\n      tag_126\n      jumpi\n      0x00\n      dup1\n      revert\n    tag_126:\n      pop\n      tag_127\n      0x04\n      dup1\n      calldatasize\n      sub\n      dup2\n      add\n      swap1\n      tag_128\n      swap2\n      swap1\n      tag_30\n      jump\t// in\n    tag_128:\n      tag_129\n      jump\t// in\n    tag_127:\n      stop\n        /* \"Contracts\":813:1843  function createAccountabilityContract(address _referee, string memory _name, string memory _description, address payable _failureRecipient) public payable {... */\n    tag_23:\n      tag_130\n      0x04\n      dup1\n      calldatasize\n      sub\n      dup2\n      add\n      swap1\n      tag_131\n      swap2\n      swap1\n      tag_132\n      jump\t// in\n    tag_131:\n      tag_133\n      jump\t// in\n    tag_130:\n      stop\n        /* \"Contracts\":4412:5339  function approveRequest(address approvalRequestAddress) public {... */\n    tag_31:\n        /* \"Contracts\":4485:4538  AccountabilityContractApprovalRequest approvalRequest */\n      0x00\n        /* \"Contracts\":4579:4601  approvalRequestAddress */\n      dup2\n        /* \"Contracts\":4485:4602  AccountabilityContractApprovalRequest approvalRequest = AccountabilityContractApprovalRequest(approvalRequestAddress) */\n      swap1\n      pop\n        /* \"Contracts\":4612:4657  AccountabilityContract accountabilityContract */\n      0x00\n        /* \"Contracts\":4683:4698  approvalRequest */\n      dup2\n        /* \"Contracts\":4683:4728  approvalRequest.accountabilityContractAddress */\n      0xffffffffffffffffffffffffffffffffffffffff\n      and\n      0x3c490174\n        /* \"Contracts\":4683:4730  approvalRequest.accountabilityContractAddress() */\n      mload(0x40)\n      dup2\n      0xffffffff\n      and\n      0xe0\n      shl\n      dup2\n      mstore\n      0x04\n      add\n      0x20\n      mload(0x40)\n      dup1\n      dup4\n      sub\n      dup2\n      dup7\n      gas\n      staticcall\n      iszero\n      dup1\n      iszero\n      tag_136\n      jumpi\n      returndatasize\n      0x00\n      dup1\n      returndatacopy\n      revert(0x00, returndatasize)\n    tag_136:\n      pop\n      pop\n      pop\n      pop\n      mload(0x40)\n      returndatasize\n      not(0x1f)\n      0x1f\n      dup3\n      add\n      and\n      dup3\n      add\n      dup1\n      0x40\n      mstore\n      pop\n      dup2\n      add\n      swap1\n      tag_137\n      swap2\n      swap1\n      tag_138\n      jump\t// in\n    tag_137:\n        /* \"Contracts\":4612:4731  AccountabilityContract accountabilityContract = AccountabilityContract(approvalRequest.accountabilityContractAddress()) */\n      swap1\n      pop\n        /* \"Contracts\":4785:4800  approvalRequest */\n      dup2\n        /* \"Contracts\":4785:4808  approvalRequest.referee */\n      0xffffffffffffffffffffffffffffffffffffffff\n      and\n      0x3b1bebd1\n        /* \"Contracts\":4785:4810  approvalRequest.referee() */\n      mload(0x40)\n      dup2\n      0xffffffff\n      and\n      0xe0\n      shl\n      dup2\n      mstore\n      0x04\n      add\n      0x20\n      mload(0x40)\n      dup1\n      dup4\n      sub\n      dup2\n      dup7\n      gas\n      staticcall\n      iszero\n      dup1\n      iszero\n      tag_140\n      jumpi\n      returndatasize\n      0x00\n      dup1\n      returndatacopy\n      revert(0x00, returndatasize)\n    tag_140:\n      pop\n      pop\n      pop\n      pop\n      mload(0x40)\n      returndatasize\n      not(0x1f)\n      0x1f\n      dup3\n      add\n      and\n      dup3\n      add\n      dup1\n      0x40\n      mstore\n      pop\n      dup2\n      add\n      swap1\n      tag_141\n      swap2\n      swap1\n      tag_138\n      jump\t// in\n    tag_141:\n        /* \"Contracts\":4749:4810  accountabilityContract.referee() == approvalRequest.referee() */\n      0xffffffffffffffffffffffffffffffffffffffff\n      and\n        /* \"Contracts\":4749:4771  accountabilityContract */\n      dup2\n        /* \"Contracts\":4749:4779  accountabilityContract.referee */\n      0xffffffffffffffffffffffffffffffffffffffff\n      and\n      0x3b1bebd1\n        /* \"Contracts\":4749:4781  accountabilityContract.referee() */\n      mload(0x40)\n      dup2\n      0xffffffff\n      and\n      0xe0\n      shl\n      dup2\n      mstore\n      0x04\n      add\n      0x20\n      mload(0x40)\n      dup1\n      dup4\n      sub\n      dup2\n      dup7\n      gas\n      staticcall\n      iszero\n      dup1\n      iszero\n      tag_143\n      jumpi\n      returndatasize\n      0x00\n      dup1\n      returndatacopy\n      revert(0x00, returndatasize)\n    tag_143:\n      pop\n      pop\n      pop\n      pop\n      mload(0x40)\n      returndatasize\n      not(0x1f)\n      0x1f\n      dup3\n      add\n      and\n      dup3\n      add\n      dup1\n      0x40\n      mstore\n      pop\n      dup2\n      add\n      swap1\n      tag_144\n      swap2\n      swap1\n      tag_138\n      jump\t// in\n    tag_144:\n        /* \"Contracts\":4749:4810  accountabilityContract.referee() == approvalRequest.referee() */\n      0xffffffffffffffffffffffffffffffffffffffff\n      and\n      eq\n        /* \"Contracts\":4741:4871  require(accountabilityContract.referee() == approvalRequest.referee(), \"Only contract referee can approve request for completion\") */\n      tag_145\n      jumpi\n      mload(0x40)\n      0x08c379a000000000000000000000000000000000000000000000000000000000\n      dup2\n      mstore\n      0x04\n      add\n      tag_146\n      swap1\n      tag_147\n      jump\t// in\n    tag_146:\n      mload(0x40)\n      dup1\n      swap2\n      sub\n      swap1\n      revert\n    tag_145:\n        /* \"Contracts\":4881:4896  approvalRequest */\n      dup2\n        /* \"Contracts\":4881:4911  approvalRequest.approveRequest */\n      0xffffffffffffffffffffffffffffffffffffffff\n      and\n      0x263b81c9\n        /* \"Contracts\":4881:4913  approvalRequest.approveRequest() */\n      mload(0x40)\n      dup2\n      0xffffffff\n      and\n      0xe0\n      shl\n      dup2\n      mstore\n      0x04\n      add\n      0x20\n      mload(0x40)\n      dup1\n      dup4\n      sub\n      dup2\n      0x00\n      dup8\n      gas\n      call\n      iszero\n      dup1\n      iszero\n      tag_149\n      jumpi\n      returndatasize\n      0x00\n      dup1\n      returndatacopy\n      revert(0x00, returndatasize)\n    tag_149:\n      pop\n      pop\n      pop\n      pop\n      mload(0x40)\n      returndatasize\n      not(0x1f)\n      0x1f\n      dup3\n      add\n      and\n      dup3\n      add\n      dup1\n      0x40\n      mstore\n      pop\n      dup2\n      add\n      swap1\n      tag_150\n      swap2\n      swap1\n      tag_151\n      jump\t// in\n    tag_150:\n      pop\n        /* \"Contracts\":4923:4945  accountabilityContract */\n      dup1\n        /* \"Contracts\":4923:4962  accountabilityContract.completeContract */\n      0xffffffffffffffffffffffffffffffffffffffff\n      and\n      0xb4fedc11\n        /* \"Contracts\":4923:4964  accountabilityContract.completeContract() */\n      mload(0x40)\n      dup2\n      0xffffffff\n      and\n      0xe0\n      shl\n      dup2\n      mstore\n      0x04\n      add\n      0x20\n      mload(0x40)\n      dup1\n      dup4\n      sub\n      dup2\n      0x00\n      dup8\n      gas\n      call\n      iszero\n      dup1\n      iszero\n      tag_153\n      jumpi\n      returndatasize\n      0x00\n      dup1\n      returndatacopy\n      revert(0x00, returndatasize)\n    tag_153:\n      pop\n      pop\n      pop\n      pop\n      mload(0x40)\n      returndatasize\n      not(0x1f)\n      0x1f\n      dup3\n      add\n      and\n      dup3\n      add\n      dup1\n      0x40\n      mstore\n      pop\n      dup2\n      add\n      swap1\n      tag_154\n      swap2\n      swap1\n      tag_155\n      jump\t// in\n    tag_154:\n      pop\n        /* \"Contracts\":4974:5097  moveOpenContractToClosedContractsForUser(accountabilityContract.creator(), approvalRequest.accountabilityContractAddress()) */\n      tag_156\n        /* \"Contracts\":5015:5037  accountabilityContract */\n      dup2\n        /* \"Contracts\":5015:5045  accountabilityContract.creator */\n      0xffffffffffffffffffffffffffffffffffffffff\n      and\n      0x02d05d3f\n        /* \"Contracts\":5015:5047  accountabilityContract.creator() */\n      mload(0x40)\n      dup2\n      0xffffffff\n      and\n      0xe0\n      shl\n      dup2\n      mstore\n      0x04\n      add\n      0x20\n      mload(0x40)\n      dup1\n      dup4\n      sub\n      dup2\n      dup7\n      gas\n      staticcall\n      iszero\n      dup1\n      iszero\n      tag_158\n      jumpi\n      returndatasize\n      0x00\n      dup1\n      returndatacopy\n      revert(0x00, returndatasize)\n    tag_158:\n      pop\n      pop\n      pop\n      pop\n      mload(0x40)\n      returndatasize\n      not(0x1f)\n      0x1f\n      dup3\n      add\n      and\n      dup3\n      add\n      dup1\n      0x40\n      mstore\n      pop\n      dup2\n      add\n      swap1\n      tag_159\n      swap2\n      swap1\n      tag_138\n      jump\t// in\n    tag_159:\n        /* \"Contracts\":5049:5064  approvalRequest */\n      dup4\n        /* \"Contracts\":5049:5094  approvalRequest.accountabilityContractAddress */\n      0xffffffffffffffffffffffffffffffffffffffff\n      and\n      0x3c490174\n        /* \"Contracts\":5049:5096  approvalRequest.accountabilityContractAddress() */\n      mload(0x40)\n      dup2\n      0xffffffff\n      and\n      0xe0\n      shl\n      dup2\n      mstore\n      0x04\n      add\n      0x20\n      mload(0x40)\n      dup1\n      dup4\n      sub\n      dup2\n      dup7\n      gas\n      staticcall\n      iszero\n      dup1\n      iszero\n      tag_161\n      jumpi\n      returndatasize\n      0x00\n      dup1\n      returndatacopy\n      revert(0x00, returndatasize)\n    tag_161:\n      pop\n      pop\n      pop\n      pop\n      mload(0x40)\n      returndatasize\n      not(0x1f)\n      0x1f\n      dup3\n      add\n      and\n      dup3\n      add\n      dup1\n      0x40\n      mstore\n      pop\n      dup2\n      add\n      swap1\n      tag_162\n      swap2\n      swap1\n      tag_138\n      jump\t// in\n    tag_162:\n        /* \"Contracts\":4974:5014  moveOpenContractToClosedContractsForUser */\n      tag_163\n        /* \"Contracts\":4974:5097  moveOpenContractToClosedContractsForUser(accountabilityContract.creator(), approvalRequest.accountabilityContractAddress()) */\n      jump\t// in\n    tag_156:\n        /* \"Contracts\":5107:5233  moveOpenContractToClosedContractsForReferee(accountabilityContract.referee(), approvalRequest.accountabilityContractAddress()) */\n      tag_164\n        /* \"Contracts\":5151:5173  accountabilityContract */\n      dup2\n        /* \"Contracts\":5151:5181  accountabilityContract.referee */\n      0xffffffffffffffffffffffffffffffffffffffff\n      and\n      0x3b1bebd1\n        /* \"Contracts\":5151:5183  accountabilityContract.referee() */\n      mload(0x40)\n      dup2\n      0xffffffff\n      and\n      0xe0\n      shl\n      dup2\n      mstore\n      0x04\n      add\n      0x20\n      mload(0x40)\n      dup1\n      dup4\n      sub\n      dup2\n      dup7\n      gas\n      staticcall\n      iszero\n      dup1\n      iszero\n      tag_166\n      jumpi\n      returndatasize\n      0x00\n      dup1\n      returndatacopy\n      revert(0x00, returndatasize)\n    tag_166:\n      pop\n      pop\n      pop\n      pop\n      mload(0x40)\n      returndatasize\n      not(0x1f)\n      0x1f\n      dup3\n      add\n      and\n      dup3\n      add\n      dup1\n      0x40\n      mstore\n      pop\n      dup2\n      add\n      swap1\n      tag_167\n      swap2\n      swap1\n      tag_138\n      jump\t// in\n    tag_167:\n        /* \"Contracts\":5185:5200  approvalRequest */\n      dup4\n        /* \"Contracts\":5185:5230  approvalRequest.accountabilityContractAddress */\n      0xffffffffffffffffffffffffffffffffffffffff\n      and\n      0x3c490174\n        /* \"Contracts\":5185:5232  approvalRequest.accountabilityContractAddress() */\n      mload(0x40)\n      dup2\n      0xffffffff\n      and\n      0xe0\n      shl\n      dup2\n      mstore\n      0x04\n      add\n      0x20\n      mload(0x40)\n      dup1\n      dup4\n      sub\n      dup2\n      dup7\n      gas\n      staticcall\n      iszero\n      dup1\n      iszero\n      tag_169\n      jumpi\n      returndatasize\n      0x00\n      dup1\n      returndatacopy\n      revert(0x00, returndatasize)\n    tag_169:\n      pop\n      pop\n      pop\n      pop\n      mload(0x40)\n      returndatasize\n      not(0x1f)\n      0x1f\n      dup3\n      add\n      and\n      dup3\n      add\n      dup1\n      0x40\n      mstore\n      pop\n      dup2\n      add\n      swap1\n      tag_170\n      swap2\n      swap1\n      tag_138\n      jump\t// in\n    tag_170:\n        /* \"Contracts\":5107:5150  moveOpenContractToClosedContractsForReferee */\n      tag_171\n        /* \"Contracts\":5107:5233  moveOpenContractToClosedContractsForReferee(accountabilityContract.referee(), approvalRequest.accountabilityContractAddress()) */\n      jump\t// in\n    tag_164:\n        /* \"Contracts\":5243:5332  deleteApprovalRequestForReferee(accountabilityContract.referee(), approvalRequestAddress) */\n      tag_172\n        /* \"Contracts\":5275:5297  accountabilityContract */\n      dup2\n        /* \"Contracts\":5275:5305  accountabilityContract.referee */\n      0xffffffffffffffffffffffffffffffffffffffff\n      and\n      0x3b1bebd1\n        /* \"Contracts\":5275:5307  accountabilityContract.referee() */\n      mload(0x40)\n      dup2\n      0xffffffff\n      and\n      0xe0\n      shl\n      dup2\n      mstore\n      0x04\n      add\n      0x20\n      mload(0x40)\n      dup1\n      dup4\n      sub\n      dup2\n      dup7\n      gas\n      staticcall\n      iszero\n      dup1\n      iszero\n      tag_174\n      jumpi\n      returndatasize\n      0x00\n      dup1\n      returndatacopy\n      revert(0x00, returndatasize)\n    tag_174:\n      pop\n      pop\n      pop\n      pop\n      mload(0x40)\n      returndatasize\n      not(0x1f)\n      0x1f\n      dup3\n      add\n      and\n      dup3\n      add\n      dup1\n      0x40\n      mstore\n      pop\n      dup2\n      add\n      swap1\n      tag_175\n      swap2\n      swap1\n      tag_138\n      jump\t// in\n    tag_175:\n        /* \"Contracts\":5309:5331  approvalRequestAddress */\n      dup5\n        /* \"Contracts\":5243:5274  deleteApprovalRequestForReferee */\n      tag_176\n        /* \"Contracts\":5243:5332  deleteApprovalRequestForReferee(accountabilityContract.referee(), approvalRequestAddress) */\n      jump\t// in\n    tag_172:\n        /* \"Contracts\":4475:5339  {... */\n      pop\n      pop\n        /* \"Contracts\":4412:5339  function approveRequest(address approvalRequestAddress) public {... */\n      pop\n      jump\t// out\n        /* \"Contracts\":9074:9677  function getAccountabilityContractAddresses(uint startIndex, uint endIndex) public view returns (address[] memory) {... */\n    tag_36:\n        /* \"Contracts\":9171:9187  address[] memory */\n      0x60\n        /* \"Contracts\":9220:9221  0 */\n      0x00\n        /* \"Contracts\":9206:9216  startIndex */\n      dup4\n        /* \"Contracts\":9206:9221  startIndex >= 0 */\n      lt\n      iszero\n        /* \"Contracts\":9198:9256  require(startIndex >= 0, \"Start index cannot be negative\") */\n      tag_178\n      jumpi\n      mload(0x40)\n      0x08c379a000000000000000000000000000000000000000000000000000000000\n      dup2\n      mstore\n      0x04\n      add\n      tag_179\n      swap1\n      tag_180\n      jump\t// in\n    tag_179:\n      mload(0x40)\n      dup1\n      swap2\n      sub\n      swap1\n      revert\n    tag_178:\n        /* \"Contracts\":9285:9316  accountabilityContractAddresses */\n      0x03\n        /* \"Contracts\":9285:9323  accountabilityContractAddresses.length */\n      dup1\n      sload\n      swap1\n      pop\n        /* \"Contracts\":9273:9281  endIndex */\n      dup3\n        /* \"Contracts\":9273:9323  endIndex <= accountabilityContractAddresses.length */\n      gt\n      iszero\n        /* \"Contracts\":9265:9367  require(endIndex <= accountabilityContractAddresses.length, \"End index exceeds user addresses length\") */\n      tag_181\n      jumpi\n      mload(0x40)\n      0x08c379a000000000000000000000000000000000000000000000000000000000\n      dup2\n      mstore\n      0x04\n      add\n      tag_182\n      swap1\n      tag_183\n      jump\t// in\n    tag_182:\n      mload(0x40)\n      dup1\n      swap2\n      sub\n      swap1\n      revert\n    tag_181:\n        /* \"Contracts\":9376:9430  address[] memory slicedAccountabilityContractAddresses */\n      0x00\n        /* \"Contracts\":9456:9466  startIndex */\n      dup4\n        /* \"Contracts\":9447:9455  endIndex */\n      dup4\n        /* \"Contracts\":9447:9466  endIndex-startIndex */\n      tag_184\n      swap2\n      swap1\n      tag_185\n      jump\t// in\n    tag_184:\n        /* \"Contracts\":9433:9467  new address[](endIndex-startIndex) */\n      0xffffffffffffffff\n      dup2\n      gt\n      iszero\n      tag_186\n      jumpi\n      tag_187\n      tag_188\n      jump\t// in\n    tag_187:\n    tag_186:\n      mload(0x40)\n      swap1\n      dup1\n      dup3\n      mstore\n      dup1\n      0x20\n      mul\n      0x20\n      add\n      dup3\n      add\n      0x40\n      mstore\n      dup1\n      iszero\n      tag_189\n      jumpi\n      dup2\n      0x20\n      add\n      0x20\n      dup3\n      mul\n      dup1\n      calldatasize\n      dup4\n      calldatacopy\n      dup1\n      dup3\n      add\n      swap2\n      pop\n      pop\n      swap1\n      pop\n    tag_189:\n      pop\n        /* \"Contracts\":9376:9467  address[] memory slicedAccountabilityContractAddresses = new address[](endIndex-startIndex) */\n      swap1\n      pop\n        /* \"Contracts\":9480:9486  uint i */\n      0x00\n        /* \"Contracts\":9487:9497  startIndex */\n      dup5\n        /* \"Contracts\":9480:9497  uint i=startIndex */\n      swap1\n      pop\n        /* \"Contracts\":9476:9617  for(uint i=startIndex; i<endIndex; i++){... */\n    tag_190:\n        /* \"Contracts\":9501:9509  endIndex */\n      dup4\n        /* \"Contracts\":9499:9500  i */\n      dup2\n        /* \"Contracts\":9499:9509  i<endIndex */\n      lt\n        /* \"Contracts\":9476:9617  for(uint i=startIndex; i<endIndex; i++){... */\n      iszero\n      tag_191\n      jumpi\n        /* \"Contracts\":9572:9603  accountabilityContractAddresses */\n      0x03\n        /* \"Contracts\":9604:9605  i */\n      dup2\n        /* \"Contracts\":9572:9606  accountabilityContractAddresses[i] */\n      dup2\n      sload\n      dup2\n      lt\n      tag_193\n      jumpi\n      tag_194\n      tag_195\n      jump\t// in\n    tag_194:\n    tag_193:\n      swap1\n      0x00\n      mstore\n      keccak256(0x00, 0x20)\n      add\n      0x00\n      swap1\n      sload\n      swap1\n      0x0100\n      exp\n      swap1\n      div\n      0xffffffffffffffffffffffffffffffffffffffff\n      and\n        /* \"Contracts\":9529:9566  slicedAccountabilityContractAddresses */\n      dup3\n        /* \"Contracts\":9567:9568  i */\n      dup3\n        /* \"Contracts\":9529:9569  slicedAccountabilityContractAddresses[i] */\n      dup2\n      mload\n      dup2\n      lt\n      tag_197\n      jumpi\n      tag_198\n      tag_195\n      jump\t// in\n    tag_198:\n    tag_197:\n      0x20\n      mul\n      0x20\n      add\n      add\n        /* \"Contracts\":9529:9606  slicedAccountabilityContractAddresses[i] = accountabilityContractAddresses[i] */\n      swap1\n      0xffffffffffffffffffffffffffffffffffffffff\n      and\n      swap1\n      dup2\n      0xffffffffffffffffffffffffffffffffffffffff\n      and\n      dup2\n      mstore\n      pop\n      pop\n        /* \"Contracts\":9511:9514  i++ */\n      dup1\n      dup1\n      tag_199\n      swap1\n      tag_200\n      jump\t// in\n    tag_199:\n      swap2\n      pop\n      pop\n        /* \"Contracts\":9476:9617  for(uint i=startIndex; i<endIndex; i++){... */\n      jump(tag_190)\n    tag_191:\n      pop\n        /* \"Contracts\":9633:9670  slicedAccountabilityContractAddresses */\n      dup1\n        /* \"Contracts\":9626:9670  return slicedAccountabilityContractAddresses */\n      swap2\n      pop\n      pop\n        /* \"Contracts\":9074:9677  function getAccountabilityContractAddresses(uint startIndex, uint endIndex) public view returns (address[] memory) {... */\n      swap3\n      swap2\n      pop\n      pop\n      jump\t// out\n        /* \"Contracts\":2417:2611  function getClosedAccountabilityContractAddressesForReferee(address referee) public view returns (address[] memory){... */\n    tag_42:\n        /* \"Contracts\":2515:2531  address[] memory */\n      0x60\n        /* \"Contracts\":2549:2557  referees */\n      0x06\n        /* \"Contracts\":2549:2566  referees[referee] */\n      0x00\n        /* \"Contracts\":2558:2565  referee */\n      dup4\n        /* \"Contracts\":2549:2566  referees[referee] */\n      0xffffffffffffffffffffffffffffffffffffffff\n      and\n      0xffffffffffffffffffffffffffffffffffffffff\n      and\n      dup2\n      mstore\n      0x20\n      add\n      swap1\n      dup2\n      mstore\n      0x20\n      add\n      0x00\n      keccak256\n        /* \"Contracts\":2549:2604  referees[referee].closedAccountabilityContractAddresses */\n      0x02\n      add\n        /* \"Contracts\":2542:2604  return referees[referee].closedAccountabilityContractAddresses */\n      dup1\n      sload\n      dup1\n      0x20\n      mul\n      0x20\n      add\n      mload(0x40)\n      swap1\n      dup2\n      add\n      0x40\n      mstore\n      dup1\n      swap3\n      swap2\n      swap1\n      dup2\n      dup2\n      mstore\n      0x20\n      add\n      dup3\n      dup1\n      sload\n      dup1\n      iszero\n      tag_202\n      jumpi\n      0x20\n      mul\n      dup3\n      add\n      swap2\n      swap1\n      0x00\n      mstore\n      keccak256(0x00, 0x20)\n      swap1\n    tag_203:\n      dup2\n      0x00\n      swap1\n      sload\n      swap1\n      0x0100\n      exp\n      swap1\n      div\n      0xffffffffffffffffffffffffffffffffffffffff\n      and\n      0xffffffffffffffffffffffffffffffffffffffff\n      and\n      dup2\n      mstore\n      0x20\n      add\n      swap1\n      0x01\n      add\n      swap1\n      dup1\n      dup4\n      gt\n      tag_203\n      jumpi\n    tag_202:\n      pop\n      pop\n      pop\n      pop\n      pop\n      swap1\n      pop\n        /* \"Contracts\":2417:2611  function getClosedAccountabilityContractAddressesForReferee(address referee) public view returns (address[] memory){... */\n      swap2\n      swap1\n      pop\n      jump\t// out\n        /* \"Contracts\":204:252  address[] public accountabilityContractAddresses */\n    tag_48:\n      0x03\n      dup2\n      dup2\n      sload\n      dup2\n      lt\n      tag_204\n      jumpi\n      0x00\n      dup1\n      revert\n    tag_204:\n      swap1\n      0x00\n      mstore\n      keccak256(0x00, 0x20)\n      add\n      0x00\n      swap2\n      pop\n      sload\n      swap1\n      0x0100\n      exp\n      swap1\n      div\n      0xffffffffffffffffffffffffffffffffffffffff\n      and\n      dup2\n      jump\t// out\n        /* \"Contracts\":417:450  address[] public refereeAddresses */\n    tag_54:\n      0x08\n      dup2\n      dup2\n      sload\n      dup2\n      lt\n      tag_206\n      jumpi\n      0x00\n      dup1\n      revert\n    tag_206:\n      swap1\n      0x00\n      mstore\n      keccak256(0x00, 0x20)\n      add\n      0x00\n      swap2\n      pop\n      sload\n      swap1\n      0x0100\n      exp\n      swap1\n      div\n      0xffffffffffffffffffffffffffffffffffffffff\n      and\n      dup2\n      jump\t// out\n        /* \"Contracts\":1849:2027  function getOpenAccountabilityContractAddressesForUser(address user) public view returns (address[] memory){... */\n    tag_59:\n        /* \"Contracts\":1939:1955  address[] memory */\n      0x60\n        /* \"Contracts\":1973:1978  users */\n      0x00\n        /* \"Contracts\":1973:1984  users[user] */\n      dup1\n        /* \"Contracts\":1979:1983  user */\n      dup4\n        /* \"Contracts\":1973:1984  users[user] */\n      0xffffffffffffffffffffffffffffffffffffffff\n      and\n      0xffffffffffffffffffffffffffffffffffffffff\n      and\n      dup2\n      mstore\n      0x20\n      add\n      swap1\n      dup2\n      mstore\n      0x20\n      add\n      0x00\n      keccak256\n        /* \"Contracts\":1973:2020  users[user].openAccountabilityContractAddresses */\n      0x01\n      add\n        /* \"Contracts\":1966:2020  return users[user].openAccountabilityContractAddresses */\n      dup1\n      sload\n      dup1\n      0x20\n      mul\n      0x20\n      add\n      mload(0x40)\n      swap1\n      dup2\n      add\n      0x40\n      mstore\n      dup1\n      swap3\n      swap2\n      swap1\n      dup2\n      dup2\n      mstore\n      0x20\n      add\n      dup3\n      dup1\n      sload\n      dup1\n      iszero\n      tag_209\n      jumpi\n      0x20\n      mul\n      dup3\n      add\n      swap2\n      swap1\n      0x00\n      mstore\n      keccak256(0x00, 0x20)\n      swap1\n    tag_210:\n      dup2\n      0x00\n      swap1\n      sload\n      swap1\n      0x0100\n      exp\n      swap1\n      div\n      0xffffffffffffffffffffffffffffffffffffffff\n      and\n      0xffffffffffffffffffffffffffffffffffffffff\n      and\n      dup2\n      mstore\n      0x20\n      add\n      swap1\n      0x01\n      add\n      swap1\n      dup1\n      dup4\n      gt\n      tag_210\n      jumpi\n    tag_209:\n      pop\n      pop\n      pop\n      pop\n      pop\n      swap1\n      pop\n        /* \"Contracts\":1849:2027  function getOpenAccountabilityContractAddressesForUser(address user) public view returns (address[] memory){... */\n      swap2\n      swap1\n      pop\n      jump\t// out\n        /* \"Contracts\":256:299  uint public numberOfAccountabilityContracts */\n    tag_63:\n      sload(0x04)\n      dup2\n      jump\t// out\n        /* \"Contracts\":141:171  address[] public userAddresses */\n    tag_69:\n      0x01\n      dup2\n      dup2\n      sload\n      dup2\n      lt\n      tag_211\n      jumpi\n      0x00\n      dup1\n      revert\n    tag_211:\n      swap1\n      0x00\n      mstore\n      keccak256(0x00, 0x20)\n      add\n      0x00\n      swap2\n      pop\n      sload\n      swap1\n      0x0100\n      exp\n      swap1\n      div\n      0xffffffffffffffffffffffffffffffffffffffff\n      and\n      dup2\n      jump\t// out\n        /* \"Contracts\":2774:3193  function failOpenAccountabilityContract(address contractAddress) public {... */\n    tag_74:\n        /* \"Contracts\":2854:2899  AccountabilityContract accountabilityContract */\n      0x00\n        /* \"Contracts\":2925:2940  contractAddress */\n      dup2\n        /* \"Contracts\":2854:2941  AccountabilityContract accountabilityContract = AccountabilityContract(contractAddress) */\n      swap1\n      pop\n        /* \"Contracts\":2949:2971  accountabilityContract */\n      dup1\n        /* \"Contracts\":2949:2984  accountabilityContract.failContract */\n      0xffffffffffffffffffffffffffffffffffffffff\n      and\n      0x2d398fa6\n        /* \"Contracts\":2949:2986  accountabilityContract.failContract() */\n      mload(0x40)\n      dup2\n      0xffffffff\n      and\n      0xe0\n      shl\n      dup2\n      mstore\n      0x04\n      add\n      0x20\n      mload(0x40)\n      dup1\n      dup4\n      sub\n      dup2\n      0x00\n      dup8\n      gas\n      call\n      iszero\n      dup1\n      iszero\n      tag_215\n      jumpi\n      returndatasize\n      0x00\n      dup1\n      returndatacopy\n      revert(0x00, returndatasize)\n    tag_215:\n      pop\n      pop\n      pop\n      pop\n      mload(0x40)\n      returndatasize\n      not(0x1f)\n      0x1f\n      dup3\n      add\n      and\n      dup3\n      add\n      dup1\n      0x40\n      mstore\n      pop\n      dup2\n      add\n      swap1\n      tag_216\n      swap2\n      swap1\n      tag_155\n      jump\t// in\n    tag_216:\n      pop\n        /* \"Contracts\":2994:3084  moveOpenContractToClosedContractsForUser(accountabilityContract.creator(),contractAddress) */\n      tag_217\n        /* \"Contracts\":3035:3057  accountabilityContract */\n      dup2\n        /* \"Contracts\":3035:3065  accountabilityContract.creator */\n      0xffffffffffffffffffffffffffffffffffffffff\n      and\n      0x02d05d3f\n        /* \"Contracts\":3035:3067  accountabilityContract.creator() */\n      mload(0x40)\n      dup2\n      0xffffffff\n      and\n      0xe0\n      shl\n      dup2\n      mstore\n      0x04\n      add\n      0x20\n      mload(0x40)\n      dup1\n      dup4\n      sub\n      dup2\n      dup7\n      gas\n      staticcall\n      iszero\n      dup1\n      iszero\n      tag_219\n      jumpi\n      returndatasize\n      0x00\n      dup1\n      returndatacopy\n      revert(0x00, returndatasize)\n    tag_219:\n      pop\n      pop\n      pop\n      pop\n      mload(0x40)\n      returndatasize\n      not(0x1f)\n      0x1f\n      dup3\n      add\n      and\n      dup3\n      add\n      dup1\n      0x40\n      mstore\n      pop\n      dup2\n      add\n      swap1\n      tag_220\n      swap2\n      swap1\n      tag_138\n      jump\t// in\n    tag_220:\n        /* \"Contracts\":3068:3083  contractAddress */\n      dup4\n        /* \"Contracts\":2994:3034  moveOpenContractToClosedContractsForUser */\n      tag_163\n        /* \"Contracts\":2994:3084  moveOpenContractToClosedContractsForUser(accountabilityContract.creator(),contractAddress) */\n      jump\t// in\n    tag_217:\n        /* \"Contracts\":3092:3186  moveOpenContractToClosedContractsForReferee(accountabilityContract.referee(), contractAddress) */\n      tag_221\n        /* \"Contracts\":3136:3158  accountabilityContract */\n      dup2\n        /* \"Contracts\":3136:3166  accountabilityContract.referee */\n      0xffffffffffffffffffffffffffffffffffffffff\n      and\n      0x3b1bebd1\n        /* \"Contracts\":3136:3168  accountabilityContract.referee() */\n      mload(0x40)\n      dup2\n      0xffffffff\n      and\n      0xe0\n      shl\n      dup2\n      mstore\n      0x04\n      add\n      0x20\n      mload(0x40)\n      dup1\n      dup4\n      sub\n      dup2\n      dup7\n      gas\n      staticcall\n      iszero\n      dup1\n      iszero\n      tag_223\n      jumpi\n      returndatasize\n      0x00\n      dup1\n      returndatacopy\n      revert(0x00, returndatasize)\n    tag_223:\n      pop\n      pop\n      pop\n      pop\n      mload(0x40)\n      returndatasize\n      not(0x1f)\n      0x1f\n      dup3\n      add\n      and\n      dup3\n      add\n      dup1\n      0x40\n      mstore\n      pop\n      dup2\n      add\n      swap1\n      tag_224\n      swap2\n      swap1\n      tag_138\n      jump\t// in\n    tag_224:\n        /* \"Contracts\":3170:3185  contractAddress */\n      dup4\n        /* \"Contracts\":3092:3135  moveOpenContractToClosedContractsForReferee */\n      tag_171\n        /* \"Contracts\":3092:3186  moveOpenContractToClosedContractsForReferee(accountabilityContract.referee(), contractAddress) */\n      jump\t// in\n    tag_221:\n        /* \"Contracts\":2846:3193  {... */\n      pop\n        /* \"Contracts\":2774:3193  function failOpenAccountabilityContract(address contractAddress) public {... */\n      pop\n      jump\t// out\n        /* \"Contracts\":3199:3627  function completeOpenAccountabilityContract(address contractAddress) public {... */\n    tag_78:\n        /* \"Contracts\":3283:3328  AccountabilityContract accountabilityContract */\n      0x00\n        /* \"Contracts\":3354:3369  contractAddress */\n      dup2\n        /* \"Contracts\":3283:3370  AccountabilityContract accountabilityContract = AccountabilityContract(contractAddress) */\n      swap1\n      pop\n        /* \"Contracts\":3378:3400  accountabilityContract */\n      dup1\n        /* \"Contracts\":3378:3417  accountabilityContract.completeContract */\n      0xffffffffffffffffffffffffffffffffffffffff\n      and\n      0xb4fedc11\n        /* \"Contracts\":3378:3419  accountabilityContract.completeContract() */\n      mload(0x40)\n      dup2\n      0xffffffff\n      and\n      0xe0\n      shl\n      dup2\n      mstore\n      0x04\n      add\n      0x20\n      mload(0x40)\n      dup1\n      dup4\n      sub\n      dup2\n      0x00\n      dup8\n      gas\n      call\n      iszero\n      dup1\n      iszero\n      tag_227\n      jumpi\n      returndatasize\n      0x00\n      dup1\n      returndatacopy\n      revert(0x00, returndatasize)\n    tag_227:\n      pop\n      pop\n      pop\n      pop\n      mload(0x40)\n      returndatasize\n      not(0x1f)\n      0x1f\n      dup3\n      add\n      and\n      dup3\n      add\n      dup1\n      0x40\n      mstore\n      pop\n      dup2\n      add\n      swap1\n      tag_228\n      swap2\n      swap1\n      tag_155\n      jump\t// in\n    tag_228:\n      pop\n        /* \"Contracts\":3427:3518  moveOpenContractToClosedContractsForUser(accountabilityContract.creator(), contractAddress) */\n      tag_229\n        /* \"Contracts\":3468:3490  accountabilityContract */\n      dup2\n        /* \"Contracts\":3468:3498  accountabilityContract.creator */\n      0xffffffffffffffffffffffffffffffffffffffff\n      and\n      0x02d05d3f\n        /* \"Contracts\":3468:3500  accountabilityContract.creator() */\n      mload(0x40)\n      dup2\n      0xffffffff\n      and\n      0xe0\n      shl\n      dup2\n      mstore\n      0x04\n      add\n      0x20\n      mload(0x40)\n      dup1\n      dup4\n      sub\n      dup2\n      dup7\n      gas\n      staticcall\n      iszero\n      dup1\n      iszero\n      tag_231\n      jumpi\n      returndatasize\n      0x00\n      dup1\n      returndatacopy\n      revert(0x00, returndatasize)\n    tag_231:\n      pop\n      pop\n      pop\n      pop\n      mload(0x40)\n      returndatasize\n      not(0x1f)\n      0x1f\n      dup3\n      add\n      and\n      dup3\n      add\n      dup1\n      0x40\n      mstore\n      pop\n      dup2\n      add\n      swap1\n      tag_232\n      swap2\n      swap1\n      tag_138\n      jump\t// in\n    tag_232:\n        /* \"Contracts\":3502:3517  contractAddress */\n      dup4\n        /* \"Contracts\":3427:3467  moveOpenContractToClosedContractsForUser */\n      tag_163\n        /* \"Contracts\":3427:3518  moveOpenContractToClosedContractsForUser(accountabilityContract.creator(), contractAddress) */\n      jump\t// in\n    tag_229:\n        /* \"Contracts\":3526:3620  moveOpenContractToClosedContractsForReferee(accountabilityContract.referee(), contractAddress) */\n      tag_233\n        /* \"Contracts\":3570:3592  accountabilityContract */\n      dup2\n        /* \"Contracts\":3570:3600  accountabilityContract.referee */\n      0xffffffffffffffffffffffffffffffffffffffff\n      and\n      0x3b1bebd1\n        /* \"Contracts\":3570:3602  accountabilityContract.referee() */\n      mload(0x40)\n      dup2\n      0xffffffff\n      and\n      0xe0\n      shl\n      dup2\n      mstore\n      0x04\n      add\n      0x20\n      mload(0x40)\n      dup1\n      dup4\n      sub\n      dup2\n      dup7\n      gas\n      staticcall\n      iszero\n      dup1\n      iszero\n      tag_235\n      jumpi\n      returndatasize\n      0x00\n      dup1\n      returndatacopy\n      revert(0x00, returndatasize)\n    tag_235:\n      pop\n      pop\n      pop\n      pop\n      mload(0x40)\n      returndatasize\n      not(0x1f)\n      0x1f\n      dup3\n      add\n      and\n      dup3\n      add\n      dup1\n      0x40\n      mstore\n      pop\n      dup2\n      add\n      swap1\n      tag_236\n      swap2\n      swap1\n      tag_138\n      jump\t// in\n    tag_236:\n        /* \"Contracts\":3604:3619  contractAddress */\n      dup4\n        /* \"Contracts\":3526:3569  moveOpenContractToClosedContractsForReferee */\n      tag_171\n        /* \"Contracts\":3526:3620  moveOpenContractToClosedContractsForReferee(accountabilityContract.referee(), contractAddress) */\n      jump\t// in\n    tag_233:\n        /* \"Contracts\":3275:3627  {... */\n      pop\n        /* \"Contracts\":3199:3627  function completeOpenAccountabilityContract(address contractAddress) public {... */\n      pop\n      jump\t// out\n        /* \"Contracts\":338:381  mapping(address => Referee) public referees */\n    tag_82:\n      mstore(0x20, 0x06)\n      dup1\n      0x00\n      mstore\n      keccak256(0x00, 0x40)\n      0x00\n      swap2\n      pop\n      swap1\n      pop\n      dup1\n      0x00\n      add\n      sload\n      swap1\n      pop\n      dup2\n      jump\t// out\n        /* \"Contracts\":175:200  uint public numberOfUsers */\n    tag_86:\n      sload(0x02)\n      dup2\n      jump\t// out\n        /* \"Contracts\":2617:2768  function getApprovalRequests(address referee) public view returns (address[] memory){... */\n    tag_91:\n        /* \"Contracts\":2684:2700  address[] memory */\n      0x60\n        /* \"Contracts\":2718:2726  referees */\n      0x06\n        /* \"Contracts\":2718:2735  referees[referee] */\n      0x00\n        /* \"Contracts\":2727:2734  referee */\n      dup4\n        /* \"Contracts\":2718:2735  referees[referee] */\n      0xffffffffffffffffffffffffffffffffffffffff\n      and\n      0xffffffffffffffffffffffffffffffffffffffff\n      and\n      dup2\n      mstore\n      0x20\n      add\n      swap1\n      dup2\n      mstore\n      0x20\n      add\n      0x00\n      keccak256\n        /* \"Contracts\":2718:2761  referees[referee].approvalRequestsAddresses */\n      0x03\n      add\n        /* \"Contracts\":2711:2761  return referees[referee].approvalRequestsAddresses */\n      dup1\n      sload\n      dup1\n      0x20\n      mul\n      0x20\n      add\n      mload(0x40)\n      swap1\n      dup2\n      add\n      0x40\n      mstore\n      dup1\n      swap3\n      swap2\n      swap1\n      dup2\n      dup2\n      mstore\n      0x20\n      add\n      dup3\n      dup1\n      sload\n      dup1\n      iszero\n      tag_238\n      jumpi\n      0x20\n      mul\n      dup3\n      add\n      swap2\n      swap1\n      0x00\n      mstore\n      keccak256(0x00, 0x20)\n      swap1\n    tag_239:\n      dup2\n      0x00\n      swap1\n      sload\n      swap1\n      0x0100\n      exp\n      swap1\n      div\n      0xffffffffffffffffffffffffffffffffffffffff\n      and\n      0xffffffffffffffffffffffffffffffffffffffff\n      and\n      dup2\n      mstore\n      0x20\n      add\n      swap1\n      0x01\n      add\n      swap1\n      dup1\n      dup4\n      gt\n      tag_239\n      jumpi\n    tag_238:\n      pop\n      pop\n      pop\n      pop\n      pop\n      swap1\n      pop\n        /* \"Contracts\":2617:2768  function getApprovalRequests(address referee) public view returns (address[] memory){... */\n      swap2\n      swap1\n      pop\n      jump\t// out\n        /* \"Contracts\":2221:2411  function getOpenAccountabilityContractAddressesForReferee(address referee) public view returns (address[] memory){... */\n    tag_96:\n        /* \"Contracts\":2317:2333  address[] memory */\n      0x60\n        /* \"Contracts\":2351:2359  referees */\n      0x06\n        /* \"Contracts\":2351:2368  referees[referee] */\n      0x00\n        /* \"Contracts\":2360:2367  referee */\n      dup4\n        /* \"Contracts\":2351:2368  referees[referee] */\n      0xffffffffffffffffffffffffffffffffffffffff\n      and\n      0xffffffffffffffffffffffffffffffffffffffff\n      and\n      dup2\n      mstore\n      0x20\n      add\n      swap1\n      dup2\n      mstore\n      0x20\n      add\n      0x00\n      keccak256\n        /* \"Contracts\":2351:2404  referees[referee].openAccountabilityContractAddresses */\n      0x01\n      add\n        /* \"Contracts\":2344:2404  return referees[referee].openAccountabilityContractAddresses */\n      dup1\n      sload\n      dup1\n      0x20\n      mul\n      0x20\n      add\n      mload(0x40)\n      swap1\n      dup2\n      add\n      0x40\n      mstore\n      dup1\n      swap3\n      swap2\n      swap1\n      dup2\n      dup2\n      mstore\n      0x20\n      add\n      dup3\n      dup1\n      sload\n      dup1\n      iszero\n      tag_241\n      jumpi\n      0x20\n      mul\n      dup3\n      add\n      swap2\n      swap1\n      0x00\n      mstore\n      keccak256(0x00, 0x20)\n      swap1\n    tag_242:\n      dup2\n      0x00\n      swap1\n      sload\n      swap1\n      0x0100\n      exp\n      swap1\n      div\n      0xffffffffffffffffffffffffffffffffffffffff\n      and\n      0xffffffffffffffffffffffffffffffffffffffff\n      and\n      dup2\n      mstore\n      0x20\n      add\n      swap1\n      0x01\n      add\n      swap1\n      dup1\n      dup4\n      gt\n      tag_242\n      jumpi\n    tag_241:\n      pop\n      pop\n      pop\n      pop\n      pop\n      swap1\n      pop\n        /* \"Contracts\":2221:2411  function getOpenAccountabilityContractAddressesForReferee(address referee) public view returns (address[] memory){... */\n      swap2\n      swap1\n      pop\n      jump\t// out\n        /* \"Contracts\":100:137  mapping(address => User) public users */\n    tag_101:\n      mstore(0x20, 0x00)\n      dup1\n      0x00\n      mstore\n      keccak256(0x00, 0x40)\n      0x00\n      swap2\n      pop\n      swap1\n      pop\n      dup1\n      0x00\n      add\n      sload\n      swap1\n      pop\n      dup2\n      jump\t// out\n        /* \"Contracts\":8573:9068  function getUserAddresses(uint startIndex, uint endIndex) public view returns (address[] memory) {... */\n    tag_106:\n        /* \"Contracts\":8652:8668  address[] memory */\n      0x60\n        /* \"Contracts\":8701:8702  0 */\n      0x00\n        /* \"Contracts\":8687:8697  startIndex */\n      dup4\n        /* \"Contracts\":8687:8702  startIndex >= 0 */\n      lt\n      iszero\n        /* \"Contracts\":8679:8737  require(startIndex >= 0, \"Start index cannot be negative\") */\n      tag_244\n      jumpi\n      mload(0x40)\n      0x08c379a000000000000000000000000000000000000000000000000000000000\n      dup2\n      mstore\n      0x04\n      add\n      tag_245\n      swap1\n      tag_180\n      jump\t// in\n    tag_245:\n      mload(0x40)\n      dup1\n      swap2\n      sub\n      swap1\n      revert\n    tag_244:\n        /* \"Contracts\":8766:8779  userAddresses */\n      0x01\n        /* \"Contracts\":8766:8786  userAddresses.length */\n      dup1\n      sload\n      swap1\n      pop\n        /* \"Contracts\":8754:8762  endIndex */\n      dup3\n        /* \"Contracts\":8754:8786  endIndex <= userAddresses.length */\n      gt\n      iszero\n        /* \"Contracts\":8746:8830  require(endIndex <= userAddresses.length, \"End index exceeds user addresses length\") */\n      tag_246\n      jumpi\n      mload(0x40)\n      0x08c379a000000000000000000000000000000000000000000000000000000000\n      dup2\n      mstore\n      0x04\n      add\n      tag_247\n      swap1\n      tag_183\n      jump\t// in\n    tag_247:\n      mload(0x40)\n      dup1\n      swap2\n      sub\n      swap1\n      revert\n    tag_246:\n        /* \"Contracts\":8839:8875  address[] memory slicedUserAddresses */\n      0x00\n        /* \"Contracts\":8901:8911  startIndex */\n      dup4\n        /* \"Contracts\":8892:8900  endIndex */\n      dup4\n        /* \"Contracts\":8892:8911  endIndex-startIndex */\n      tag_248\n      swap2\n      swap1\n      tag_185\n      jump\t// in\n    tag_248:\n        /* \"Contracts\":8878:8912  new address[](endIndex-startIndex) */\n      0xffffffffffffffff\n      dup2\n      gt\n      iszero\n      tag_249\n      jumpi\n      tag_250\n      tag_188\n      jump\t// in\n    tag_250:\n    tag_249:\n      mload(0x40)\n      swap1\n      dup1\n      dup3\n      mstore\n      dup1\n      0x20\n      mul\n      0x20\n      add\n      dup3\n      add\n      0x40\n      mstore\n      dup1\n      iszero\n      tag_251\n      jumpi\n      dup2\n      0x20\n      add\n      0x20\n      dup3\n      mul\n      dup1\n      calldatasize\n      dup4\n      calldatacopy\n      dup1\n      dup3\n      add\n      swap2\n      pop\n      pop\n      swap1\n      pop\n    tag_251:\n      pop\n        /* \"Contracts\":8839:8912  address[] memory slicedUserAddresses = new address[](endIndex-startIndex) */\n      swap1\n      pop\n        /* \"Contracts\":8925:8931  uint i */\n      0x00\n        /* \"Contracts\":8932:8942  startIndex */\n      dup5\n        /* \"Contracts\":8925:8942  uint i=startIndex */\n      swap1\n      pop\n        /* \"Contracts\":8921:9026  for(uint i=startIndex; i<endIndex; i++){... */\n    tag_252:\n        /* \"Contracts\":8946:8954  endIndex */\n      dup4\n        /* \"Contracts\":8944:8945  i */\n      dup2\n        /* \"Contracts\":8944:8954  i<endIndex */\n      lt\n        /* \"Contracts\":8921:9026  for(uint i=startIndex; i<endIndex; i++){... */\n      iszero\n      tag_253\n      jumpi\n        /* \"Contracts\":8999:9012  userAddresses */\n      0x01\n        /* \"Contracts\":9013:9014  i */\n      dup2\n        /* \"Contracts\":8999:9015  userAddresses[i] */\n      dup2\n      sload\n      dup2\n      lt\n      tag_255\n      jumpi\n      tag_256\n      tag_195\n      jump\t// in\n    tag_256:\n    tag_255:\n      swap1\n      0x00\n      mstore\n      keccak256(0x00, 0x20)\n      add\n      0x00\n      swap1\n      sload\n      swap1\n      0x0100\n      exp\n      swap1\n      div\n      0xffffffffffffffffffffffffffffffffffffffff\n      and\n        /* \"Contracts\":8974:8993  slicedUserAddresses */\n      dup3\n        /* \"Contracts\":8994:8995  i */\n      dup3\n        /* \"Contracts\":8974:8996  slicedUserAddresses[i] */\n      dup2\n      mload\n      dup2\n      lt\n      tag_258\n      jumpi\n      tag_259\n      tag_195\n      jump\t// in\n    tag_259:\n    tag_258:\n      0x20\n      mul\n      0x20\n      add\n      add\n        /* \"Contracts\":8974:9015  slicedUserAddresses[i] = userAddresses[i] */\n      swap1\n      0xffffffffffffffffffffffffffffffffffffffff\n      and\n      swap1\n      dup2\n      0xffffffffffffffffffffffffffffffffffffffff\n      and\n      dup2\n      mstore\n      pop\n      pop\n        /* \"Contracts\":8956:8959  i++ */\n      dup1\n      dup1\n      tag_260\n      swap1\n      tag_200\n      jump\t// in\n    tag_260:\n      swap2\n      pop\n      pop\n        /* \"Contracts\":8921:9026  for(uint i=startIndex; i<endIndex; i++){... */\n      jump(tag_252)\n    tag_253:\n      pop\n        /* \"Contracts\":9042:9061  slicedUserAddresses */\n      dup1\n        /* \"Contracts\":9035:9061  return slicedUserAddresses */\n      swap2\n      pop\n      pop\n        /* \"Contracts\":8573:9068  function getUserAddresses(uint startIndex, uint endIndex) public view returns (address[] memory) {... */\n      swap3\n      swap2\n      pop\n      pop\n      jump\t// out\n        /* \"Contracts\":2033:2215  function getClosedAccountabilityContractAddressesForUser(address user) public view returns (address[] memory){... */\n    tag_111:\n        /* \"Contracts\":2125:2141  address[] memory */\n      0x60\n        /* \"Contracts\":2159:2164  users */\n      0x00\n        /* \"Contracts\":2159:2170  users[user] */\n      dup1\n        /* \"Contracts\":2165:2169  user */\n      dup4\n        /* \"Contracts\":2159:2170  users[user] */\n      0xffffffffffffffffffffffffffffffffffffffff\n      and\n      0xffffffffffffffffffffffffffffffffffffffff\n      and\n      dup2\n      mstore\n      0x20\n      add\n      swap1\n      dup2\n      mstore\n      0x20\n      add\n      0x00\n      keccak256\n        /* \"Contracts\":2159:2208  users[user].closedAccountabilityContractAddresses */\n      0x02\n      add\n        /* \"Contracts\":2152:2208  return users[user].closedAccountabilityContractAddresses */\n      dup1\n      sload\n      dup1\n      0x20\n      mul\n      0x20\n      add\n      mload(0x40)\n      swap1\n      dup2\n      add\n      0x40\n      mstore\n      dup1\n      swap3\n      swap2\n      swap1\n      dup2\n      dup2\n      mstore\n      0x20\n      add\n      dup3\n      dup1\n      sload\n      dup1\n      iszero\n      tag_262\n      jumpi\n      0x20\n      mul\n      dup3\n      add\n      swap2\n      swap1\n      0x00\n      mstore\n      keccak256(0x00, 0x20)\n      swap1\n    tag_263:\n      dup2\n      0x00\n      swap1\n      sload\n      swap1\n      0x0100\n      exp\n      swap1\n      div\n      0xffffffffffffffffffffffffffffffffffffffff\n      and\n      0xffffffffffffffffffffffffffffffffffffffff\n      and\n      dup2\n      mstore\n      0x20\n      add\n      swap1\n      0x01\n      add\n      swap1\n      dup1\n      dup4\n      gt\n      tag_263\n      jumpi\n    tag_262:\n      pop\n      pop\n      pop\n      pop\n      pop\n      swap1\n      pop\n        /* \"Contracts\":2033:2215  function getClosedAccountabilityContractAddressesForUser(address user) public view returns (address[] memory){... */\n      swap2\n      swap1\n      pop\n      jump\t// out\n        /* \"Contracts\":385:413  uint public numberOfReferees */\n    tag_115:\n      sload(0x07)\n      dup2\n      jump\t// out\n        /* \"Contracts\":5345:5614  function rejectRequest(address approvalRequestAddress, string memory response) public {... */\n    tag_121:\n        /* \"Contracts\":5441:5494  AccountabilityContractApprovalRequest approvalRequest */\n      0x00\n        /* \"Contracts\":5535:5557  approvalRequestAddress */\n      dup3\n        /* \"Contracts\":5441:5558  AccountabilityContractApprovalRequest approvalRequest = AccountabilityContractApprovalRequest(approvalRequestAddress) */\n      swap1\n      pop\n        /* \"Contracts\":5568:5583  approvalRequest */\n      dup1\n        /* \"Contracts\":5568:5597  approvalRequest.rejectRequest */\n      0xffffffffffffffffffffffffffffffffffffffff\n      and\n      0xd69b7ce3\n        /* \"Contracts\":5598:5606  response */\n      dup4\n        /* \"Contracts\":5568:5607  approvalRequest.rejectRequest(response) */\n      mload(0x40)\n      dup3\n      0xffffffff\n      and\n      0xe0\n      shl\n      dup2\n      mstore\n      0x04\n      add\n      tag_265\n      swap2\n      swap1\n      tag_266\n      jump\t// in\n    tag_265:\n      0x20\n      mload(0x40)\n      dup1\n      dup4\n      sub\n      dup2\n      0x00\n      dup8\n      gas\n      call\n      iszero\n      dup1\n      iszero\n      tag_268\n      jumpi\n      returndatasize\n      0x00\n      dup1\n      returndatacopy\n      revert(0x00, returndatasize)\n    tag_268:\n      pop\n      pop\n      pop\n      pop\n      mload(0x40)\n      returndatasize\n      not(0x1f)\n      0x1f\n      dup3\n      add\n      and\n      dup3\n      add\n      dup1\n      0x40\n      mstore\n      pop\n      dup2\n      add\n      swap1\n      tag_269\n      swap2\n      swap1\n      tag_151\n      jump\t// in\n    tag_269:\n      pop\n        /* \"Contracts\":5431:5614  {... */\n      pop\n        /* \"Contracts\":5345:5614  function rejectRequest(address approvalRequestAddress, string memory response) public {... */\n      pop\n      pop\n      jump\t// out\n        /* \"Contracts\":303:334  uint public totalEthInContracts */\n    tag_124:\n      sload(0x05)\n      dup2\n      jump\t// out\n        /* \"Contracts\":3633:4406  function requestApproval(address contractAddress) public {... */\n    tag_129:\n        /* \"Contracts\":3700:3745  AccountabilityContract accountabilityContract */\n      0x00\n        /* \"Contracts\":3771:3786  contractAddress */\n      dup2\n        /* \"Contracts\":3700:3787  AccountabilityContract accountabilityContract = AccountabilityContract(contractAddress) */\n      swap1\n      pop\n        /* \"Contracts\":3840:3874  AccountabilityContract.Status.OPEN */\n      0x00\n        /* \"Contracts\":3805:3874  accountabilityContract.status() == AccountabilityContract.Status.OPEN */\n      0x02\n      dup2\n      gt\n      iszero\n      tag_271\n      jumpi\n      tag_272\n      tag_273\n      jump\t// in\n    tag_272:\n    tag_271:\n        /* \"Contracts\":3805:3827  accountabilityContract */\n      dup2\n        /* \"Contracts\":3805:3834  accountabilityContract.status */\n      0xffffffffffffffffffffffffffffffffffffffff\n      and\n      0x200d2ed2\n        /* \"Contracts\":3805:3836  accountabilityContract.status() */\n      mload(0x40)\n      dup2\n      0xffffffff\n      and\n      0xe0\n      shl\n      dup2\n      mstore\n      0x04\n      add\n      0x20\n      mload(0x40)\n      dup1\n      dup4\n      sub\n      dup2\n      dup7\n      gas\n      staticcall\n      iszero\n      dup1\n      iszero\n      tag_275\n      jumpi\n      returndatasize\n      0x00\n      dup1\n      returndatacopy\n      revert(0x00, returndatasize)\n    tag_275:\n      pop\n      pop\n      pop\n      pop\n      mload(0x40)\n      returndatasize\n      not(0x1f)\n      0x1f\n      dup3\n      add\n      and\n      dup3\n      add\n      dup1\n      0x40\n      mstore\n      pop\n      dup2\n      add\n      swap1\n      tag_276\n      swap2\n      swap1\n      tag_277\n      jump\t// in\n    tag_276:\n        /* \"Contracts\":3805:3874  accountabilityContract.status() == AccountabilityContract.Status.OPEN */\n      0x02\n      dup2\n      gt\n      iszero\n      tag_278\n      jumpi\n      tag_279\n      tag_273\n      jump\t// in\n    tag_279:\n    tag_278:\n      eq\n        /* \"Contracts\":3797:3907  require(accountabilityContract.status() == AccountabilityContract.Status.OPEN, \"Contract status must be open\") */\n      tag_280\n      jumpi\n      mload(0x40)\n      0x08c379a000000000000000000000000000000000000000000000000000000000\n      dup2\n      mstore\n      0x04\n      add\n      tag_281\n      swap1\n      tag_282\n      jump\t// in\n    tag_281:\n      mload(0x40)\n      dup1\n      swap2\n      sub\n      swap1\n      revert\n    tag_280:\n        /* \"Contracts\":3938:3960  accountabilityContract */\n      dup1\n        /* \"Contracts\":3938:3968  accountabilityContract.creator */\n      0xffffffffffffffffffffffffffffffffffffffff\n      and\n      0x02d05d3f\n        /* \"Contracts\":3938:3970  accountabilityContract.creator() */\n      mload(0x40)\n      dup2\n      0xffffffff\n      and\n      0xe0\n      shl\n      dup2\n      mstore\n      0x04\n      add\n      0x20\n      mload(0x40)\n      dup1\n      dup4\n      sub\n      dup2\n      dup7\n      gas\n      staticcall\n      iszero\n      dup1\n      iszero\n      tag_284\n      jumpi\n      returndatasize\n      0x00\n      dup1\n      returndatacopy\n      revert(0x00, returndatasize)\n    tag_284:\n      pop\n      pop\n      pop\n      pop\n      mload(0x40)\n      returndatasize\n      not(0x1f)\n      0x1f\n      dup3\n      add\n      and\n      dup3\n      add\n      dup1\n      0x40\n      mstore\n      pop\n      dup2\n      add\n      swap1\n      tag_285\n      swap2\n      swap1\n      tag_138\n      jump\t// in\n    tag_285:\n        /* \"Contracts\":3925:3970  tx.origin == accountabilityContract.creator() */\n      0xffffffffffffffffffffffffffffffffffffffff\n      and\n        /* \"Contracts\":3925:3934  tx.origin */\n      origin\n        /* \"Contracts\":3925:3970  tx.origin == accountabilityContract.creator() */\n      0xffffffffffffffffffffffffffffffffffffffff\n      and\n      eq\n        /* \"Contracts\":3917:4022  require(tx.origin == accountabilityContract.creator(), \"Only creator of contract can request completion\") */\n      tag_286\n      jumpi\n      mload(0x40)\n      0x08c379a000000000000000000000000000000000000000000000000000000000\n      dup2\n      mstore\n      0x04\n      add\n      tag_287\n      swap1\n      tag_288\n      jump\t// in\n    tag_287:\n      mload(0x40)\n      dup1\n      swap2\n      sub\n      swap1\n      revert\n    tag_286:\n        /* \"Contracts\":4076:4098  accountabilityContract */\n      dup1\n        /* \"Contracts\":4076:4106  accountabilityContract.referee */\n      0xffffffffffffffffffffffffffffffffffffffff\n      and\n      0x3b1bebd1\n        /* \"Contracts\":4076:4108  accountabilityContract.referee() */\n      mload(0x40)\n      dup2\n      0xffffffff\n      and\n      0xe0\n      shl\n      dup2\n      mstore\n      0x04\n      add\n      0x20\n      mload(0x40)\n      dup1\n      dup4\n      sub\n      dup2\n      dup7\n      gas\n      staticcall\n      iszero\n      dup1\n      iszero\n      tag_290\n      jumpi\n      returndatasize\n      0x00\n      dup1\n      returndatacopy\n      revert(0x00, returndatasize)\n    tag_290:\n      pop\n      pop\n      pop\n      pop\n      mload(0x40)\n      returndatasize\n      not(0x1f)\n      0x1f\n      dup3\n      add\n      and\n      dup3\n      add\n      dup1\n      0x40\n      mstore\n      pop\n      dup2\n      add\n      swap1\n      tag_291\n      swap2\n      swap1\n      tag_138\n      jump\t// in\n    tag_291:\n        /* \"Contracts\":4040:4108  accountabilityContract.creator() != accountabilityContract.referee() */\n      0xffffffffffffffffffffffffffffffffffffffff\n      and\n        /* \"Contracts\":4040:4062  accountabilityContract */\n      dup2\n        /* \"Contracts\":4040:4070  accountabilityContract.creator */\n      0xffffffffffffffffffffffffffffffffffffffff\n      and\n      0x02d05d3f\n        /* \"Contracts\":4040:4072  accountabilityContract.creator() */\n      mload(0x40)\n      dup2\n      0xffffffff\n      and\n      0xe0\n      shl\n      dup2\n      mstore\n      0x04\n      add\n      0x20\n      mload(0x40)\n      dup1\n      dup4\n      sub\n      dup2\n      dup7\n      gas\n      staticcall\n      iszero\n      dup1\n      iszero\n      tag_293\n      jumpi\n      returndatasize\n      0x00\n      dup1\n      returndatacopy\n      revert(0x00, returndatasize)\n    tag_293:\n      pop\n      pop\n      pop\n      pop\n      mload(0x40)\n      returndatasize\n      not(0x1f)\n      0x1f\n      dup3\n      add\n      and\n      dup3\n      add\n      dup1\n      0x40\n      mstore\n      pop\n      dup2\n      add\n      swap1\n      tag_294\n      swap2\n      swap1\n      tag_138\n      jump\t// in\n    tag_294:\n        /* \"Contracts\":4040:4108  accountabilityContract.creator() != accountabilityContract.referee() */\n      0xffffffffffffffffffffffffffffffffffffffff\n      and\n      eq\n      iszero\n        /* \"Contracts\":4032:4160  require(accountabilityContract.creator() != accountabilityContract.referee(), \"Cannot request approval when creator is referee\") */\n      tag_295\n      jumpi\n      mload(0x40)\n      0x08c379a000000000000000000000000000000000000000000000000000000000\n      dup2\n      mstore\n      0x04\n      add\n      tag_296\n      swap1\n      tag_297\n      jump\t// in\n    tag_296:\n      mload(0x40)\n      dup1\n      swap2\n      sub\n      swap1\n      revert\n    tag_295:\n        /* \"Contracts\":4170:4226  AccountabilityContractApprovalRequest newApprovalRequest */\n      0x00\n        /* \"Contracts\":4271:4286  contractAddress */\n      dup3\n        /* \"Contracts\":4229:4287  new AccountabilityContractApprovalRequest(contractAddress) */\n      mload(0x40)\n      tag_298\n      swap1\n      tag_299\n      jump\t// in\n    tag_298:\n      tag_300\n      swap2\n      swap1\n      tag_50\n      jump\t// in\n    tag_300:\n      mload(0x40)\n      dup1\n      swap2\n      sub\n      swap1\n      0x00\n      create\n      dup1\n      iszero\n      dup1\n      iszero\n      tag_301\n      jumpi\n      returndatasize\n      0x00\n      dup1\n      returndatacopy\n      revert(0x00, returndatasize)\n    tag_301:\n      pop\n        /* \"Contracts\":4170:4287  AccountabilityContractApprovalRequest newApprovalRequest = new AccountabilityContractApprovalRequest(contractAddress) */\n      swap1\n      pop\n        /* \"Contracts\":4297:4305  referees */\n      0x06\n        /* \"Contracts\":4297:4339  referees[accountabilityContract.referee()] */\n      0x00\n        /* \"Contracts\":4306:4328  accountabilityContract */\n      dup4\n        /* \"Contracts\":4306:4336  accountabilityContract.referee */\n      0xffffffffffffffffffffffffffffffffffffffff\n      and\n      0x3b1bebd1\n        /* \"Contracts\":4306:4338  accountabilityContract.referee() */\n      mload(0x40)\n      dup2\n      0xffffffff\n      and\n      0xe0\n      shl\n      dup2\n      mstore\n      0x04\n      add\n      0x20\n      mload(0x40)\n      dup1\n      dup4\n      sub\n      dup2\n      dup7\n      gas\n      staticcall\n      iszero\n      dup1\n      iszero\n      tag_303\n      jumpi\n      returndatasize\n      0x00\n      dup1\n      returndatacopy\n      revert(0x00, returndatasize)\n    tag_303:\n      pop\n      pop\n      pop\n      pop\n      mload(0x40)\n      returndatasize\n      not(0x1f)\n      0x1f\n      dup3\n      add\n      and\n      dup3\n      add\n      dup1\n      0x40\n      mstore\n      pop\n      dup2\n      add\n      swap1\n      tag_304\n      swap2\n      swap1\n      tag_138\n      jump\t// in\n    tag_304:\n        /* \"Contracts\":4297:4339  referees[accountabilityContract.referee()] */\n      0xffffffffffffffffffffffffffffffffffffffff\n      and\n      0xffffffffffffffffffffffffffffffffffffffff\n      and\n      dup2\n      mstore\n      0x20\n      add\n      swap1\n      dup2\n      mstore\n      0x20\n      add\n      0x00\n      keccak256\n        /* \"Contracts\":4297:4365  referees[accountabilityContract.referee()].approvalRequestsAddresses */\n      0x03\n      add\n        /* \"Contracts\":4379:4397  newApprovalRequest */\n      dup2\n        /* \"Contracts\":4297:4399  referees[accountabilityContract.referee()].approvalRequestsAddresses.push(address(newApprovalRequest)) */\n      swap1\n      dup1\n      0x01\n      dup2\n      sload\n      add\n      dup1\n      dup3\n      sstore\n      dup1\n      swap2\n      pop\n      pop\n      0x01\n      swap1\n      sub\n      swap1\n      0x00\n      mstore\n      keccak256(0x00, 0x20)\n      add\n      0x00\n      swap1\n      swap2\n      swap1\n      swap2\n      swap1\n      swap2\n      0x0100\n      exp\n      dup2\n      sload\n      dup2\n      0xffffffffffffffffffffffffffffffffffffffff\n      mul\n      not\n      and\n      swap1\n      dup4\n      0xffffffffffffffffffffffffffffffffffffffff\n      and\n      mul\n      or\n      swap1\n      sstore\n      pop\n        /* \"Contracts\":3690:4406  {... */\n      pop\n      pop\n        /* \"Contracts\":3633:4406  function requestApproval(address contractAddress) public {... */\n      pop\n      jump\t// out\n        /* \"Contracts\":813:1843  function createAccountabilityContract(address _referee, string memory _name, string memory _description, address payable _failureRecipient) public payable {... */\n    tag_133:\n        /* \"Contracts\":1019:1020  0 */\n      0x00\n        /* \"Contracts\":981:986  users */\n      dup1\n        /* \"Contracts\":981:998  users[msg.sender] */\n      0x00\n        /* \"Contracts\":987:997  msg.sender */\n      caller\n        /* \"Contracts\":981:998  users[msg.sender] */\n      0xffffffffffffffffffffffffffffffffffffffff\n      and\n      0xffffffffffffffffffffffffffffffffffffffff\n      and\n      dup2\n      mstore\n      0x20\n      add\n      swap1\n      dup2\n      mstore\n      0x20\n      add\n      0x00\n      keccak256\n        /* \"Contracts\":981:1015  users[msg.sender].createdContracts */\n      0x00\n      add\n      sload\n        /* \"Contracts\":981:1020  users[msg.sender].createdContracts == 0 */\n      eq\n        /* \"Contracts\":978:1105  if(users[msg.sender].createdContracts == 0){... */\n      iszero\n      tag_307\n      jumpi\n        /* \"Contracts\":1035:1048  numberOfUsers */\n      0x02\n      0x00\n        /* \"Contracts\":1035:1050  numberOfUsers++ */\n      dup2\n      sload\n      dup1\n      swap3\n      swap2\n      swap1\n      tag_308\n      swap1\n      tag_200\n      jump\t// in\n    tag_308:\n      swap2\n      swap1\n      pop\n      sstore\n      pop\n        /* \"Contracts\":1064:1077  userAddresses */\n      0x01\n        /* \"Contracts\":1083:1093  msg.sender */\n      caller\n        /* \"Contracts\":1064:1094  userAddresses.push(msg.sender) */\n      swap1\n      dup1\n      0x01\n      dup2\n      sload\n      add\n      dup1\n      dup3\n      sstore\n      dup1\n      swap2\n      pop\n      pop\n      0x01\n      swap1\n      sub\n      swap1\n      0x00\n      mstore\n      keccak256(0x00, 0x20)\n      add\n      0x00\n      swap1\n      swap2\n      swap1\n      swap2\n      swap1\n      swap2\n      0x0100\n      exp\n      dup2\n      sload\n      dup2\n      0xffffffffffffffffffffffffffffffffffffffff\n      mul\n      not\n      and\n      swap1\n      dup4\n      0xffffffffffffffffffffffffffffffffffffffff\n      and\n      mul\n      or\n      swap1\n      sstore\n      pop\n        /* \"Contracts\":978:1105  if(users[msg.sender].createdContracts == 0){... */\n    tag_307:\n        /* \"Contracts\":1156:1157  0 */\n      0x00\n        /* \"Contracts\":1117:1125  referees */\n      0x06\n        /* \"Contracts\":1117:1135  referees[_referee] */\n      0x00\n        /* \"Contracts\":1126:1134  _referee */\n      dup7\n        /* \"Contracts\":1117:1135  referees[_referee] */\n      0xffffffffffffffffffffffffffffffffffffffff\n      and\n      0xffffffffffffffffffffffffffffffffffffffff\n      and\n      dup2\n      mstore\n      0x20\n      add\n      swap1\n      dup2\n      mstore\n      0x20\n      add\n      0x00\n      keccak256\n        /* \"Contracts\":1117:1152  referees[_referee].managedContracts */\n      0x00\n      add\n      sload\n        /* \"Contracts\":1117:1157  referees[_referee].managedContracts == 0 */\n      eq\n        /* \"Contracts\":1114:1246  if(referees[_referee].managedContracts == 0){... */\n      iszero\n      tag_310\n      jumpi\n        /* \"Contracts\":1172:1188  numberOfReferees */\n      0x07\n      0x00\n        /* \"Contracts\":1172:1190  numberOfReferees++ */\n      dup2\n      sload\n      dup1\n      swap3\n      swap2\n      swap1\n      tag_311\n      swap1\n      tag_200\n      jump\t// in\n    tag_311:\n      swap2\n      swap1\n      pop\n      sstore\n      pop\n        /* \"Contracts\":1204:1220  refereeAddresses */\n      0x08\n        /* \"Contracts\":1226:1234  _referee */\n      dup5\n        /* \"Contracts\":1204:1235  refereeAddresses.push(_referee) */\n      swap1\n      dup1\n      0x01\n      dup2\n      sload\n      add\n      dup1\n      dup3\n      sstore\n      dup1\n      swap2\n      pop\n      pop\n      0x01\n      swap1\n      sub\n      swap1\n      0x00\n      mstore\n      keccak256(0x00, 0x20)\n      add\n      0x00\n      swap1\n      swap2\n      swap1\n      swap2\n      swap1\n      swap2\n      0x0100\n      exp\n      dup2\n      sload\n      dup2\n      0xffffffffffffffffffffffffffffffffffffffff\n      mul\n      not\n      and\n      swap1\n      dup4\n      0xffffffffffffffffffffffffffffffffffffffff\n      and\n      mul\n      or\n      swap1\n      sstore\n      pop\n        /* \"Contracts\":1114:1246  if(referees[_referee].managedContracts == 0){... */\n    tag_310:\n        /* \"Contracts\":1255:1289  AccountabilityContract newContract */\n      0x00\n        /* \"Contracts\":1328:1337  msg.value */\n      callvalue\n        /* \"Contracts\":1339:1349  msg.sender */\n      caller\n        /* \"Contracts\":1351:1359  _referee */\n      dup7\n        /* \"Contracts\":1361:1366  _name */\n      dup7\n        /* \"Contracts\":1368:1380  _description */\n      dup7\n        /* \"Contracts\":1382:1399  _failureRecipient */\n      dup7\n        /* \"Contracts\":1401:1410  msg.value */\n      callvalue\n        /* \"Contracts\":1292:1411  (new AccountabilityContract){value: msg.value}(msg.sender, _referee, _name, _description, _failureRecipient, msg.value) */\n      mload(0x40)\n      tag_313\n      swap1\n      tag_314\n      jump\t// in\n    tag_313:\n      tag_315\n      swap7\n      swap6\n      swap5\n      swap4\n      swap3\n      swap2\n      swap1\n      tag_316\n      jump\t// in\n    tag_315:\n      mload(0x40)\n      dup1\n      swap2\n      sub\n      swap1\n      dup3\n      create\n      swap1\n      pop\n      dup1\n      iszero\n      dup1\n      iszero\n      tag_317\n      jumpi\n      returndatasize\n      0x00\n      dup1\n      returndatacopy\n      revert(0x00, returndatasize)\n    tag_317:\n      pop\n        /* \"Contracts\":1255:1411  AccountabilityContract newContract = (new AccountabilityContract){value: msg.value}(msg.sender, _referee, _name, _description, _failureRecipient, msg.value) */\n      swap1\n      pop\n        /* \"Contracts\":1421:1452  numberOfAccountabilityContracts */\n      0x04\n      0x00\n        /* \"Contracts\":1421:1454  numberOfAccountabilityContracts++ */\n      dup2\n      sload\n      dup1\n      swap3\n      swap2\n      swap1\n      tag_318\n      swap1\n      tag_200\n      jump\t// in\n    tag_318:\n      swap2\n      swap1\n      pop\n      sstore\n      pop\n        /* \"Contracts\":1464:1495  accountabilityContractAddresses */\n      0x03\n        /* \"Contracts\":1509:1520  newContract */\n      dup2\n        /* \"Contracts\":1464:1522  accountabilityContractAddresses.push(address(newContract)) */\n      swap1\n      dup1\n      0x01\n      dup2\n      sload\n      add\n      dup1\n      dup3\n      sstore\n      dup1\n      swap2\n      pop\n      pop\n      0x01\n      swap1\n      sub\n      swap1\n      0x00\n      mstore\n      keccak256(0x00, 0x20)\n      add\n      0x00\n      swap1\n      swap2\n      swap1\n      swap2\n      swap1\n      swap2\n      0x0100\n      exp\n      dup2\n      sload\n      dup2\n      0xffffffffffffffffffffffffffffffffffffffff\n      mul\n      not\n      and\n      swap1\n      dup4\n      0xffffffffffffffffffffffffffffffffffffffff\n      and\n      mul\n      or\n      swap1\n      sstore\n      pop\n        /* \"Contracts\":1553:1562  msg.value */\n      callvalue\n        /* \"Contracts\":1532:1551  totalEthInContracts */\n      0x05\n      0x00\n        /* \"Contracts\":1532:1562  totalEthInContracts+=msg.value */\n      dup3\n      dup3\n      sload\n      tag_320\n      swap2\n      swap1\n      tag_321\n      jump\t// in\n    tag_320:\n      swap3\n      pop\n      pop\n      dup2\n      swap1\n      sstore\n      pop\n        /* \"Contracts\":1572:1577  users */\n      0x00\n        /* \"Contracts\":1572:1589  users[msg.sender] */\n      dup1\n        /* \"Contracts\":1578:1588  msg.sender */\n      caller\n        /* \"Contracts\":1572:1589  users[msg.sender] */\n      0xffffffffffffffffffffffffffffffffffffffff\n      and\n      0xffffffffffffffffffffffffffffffffffffffff\n      and\n      dup2\n      mstore\n      0x20\n      add\n      swap1\n      dup2\n      mstore\n      0x20\n      add\n      0x00\n      keccak256\n        /* \"Contracts\":1572:1606  users[msg.sender].createdContracts */\n      0x00\n      add\n      0x00\n        /* \"Contracts\":1572:1608  users[msg.sender].createdContracts++ */\n      dup2\n      sload\n      dup1\n      swap3\n      swap2\n      swap1\n      tag_322\n      swap1\n      tag_200\n      jump\t// in\n    tag_322:\n      swap2\n      swap1\n      pop\n      sstore\n      pop\n        /* \"Contracts\":1618:1623  users */\n      0x00\n        /* \"Contracts\":1618:1635  users[msg.sender] */\n      dup1\n        /* \"Contracts\":1624:1634  msg.sender */\n      caller\n        /* \"Contracts\":1618:1635  users[msg.sender] */\n      0xffffffffffffffffffffffffffffffffffffffff\n      and\n      0xffffffffffffffffffffffffffffffffffffffff\n      and\n      dup2\n      mstore\n      0x20\n      add\n      swap1\n      dup2\n      mstore\n      0x20\n      add\n      0x00\n      keccak256\n        /* \"Contracts\":1618:1671  users[msg.sender].openAccountabilityContractAddresses */\n      0x01\n      add\n        /* \"Contracts\":1685:1696  newContract */\n      dup2\n        /* \"Contracts\":1618:1698  users[msg.sender].openAccountabilityContractAddresses.push(address(newContract)) */\n      swap1\n      dup1\n      0x01\n      dup2\n      sload\n      add\n      dup1\n      dup3\n      sstore\n      dup1\n      swap2\n      pop\n      pop\n      0x01\n      swap1\n      sub\n      swap1\n      0x00\n      mstore\n      keccak256(0x00, 0x20)\n      add\n      0x00\n      swap1\n      swap2\n      swap1\n      swap2\n      swap1\n      swap2\n      0x0100\n      exp\n      dup2\n      sload\n      dup2\n      0xffffffffffffffffffffffffffffffffffffffff\n      mul\n      not\n      and\n      swap1\n      dup4\n      0xffffffffffffffffffffffffffffffffffffffff\n      and\n      mul\n      or\n      swap1\n      sstore\n      pop\n        /* \"Contracts\":1708:1716  referees */\n      0x06\n        /* \"Contracts\":1708:1726  referees[_referee] */\n      0x00\n        /* \"Contracts\":1717:1725  _referee */\n      dup7\n        /* \"Contracts\":1708:1726  referees[_referee] */\n      0xffffffffffffffffffffffffffffffffffffffff\n      and\n      0xffffffffffffffffffffffffffffffffffffffff\n      and\n      dup2\n      mstore\n      0x20\n      add\n      swap1\n      dup2\n      mstore\n      0x20\n      add\n      0x00\n      keccak256\n        /* \"Contracts\":1708:1743  referees[_referee].managedContracts */\n      0x00\n      add\n      0x00\n        /* \"Contracts\":1708:1745  referees[_referee].managedContracts++ */\n      dup2\n      sload\n      dup1\n      swap3\n      swap2\n      swap1\n      tag_324\n      swap1\n      tag_200\n      jump\t// in\n    tag_324:\n      swap2\n      swap1\n      pop\n      sstore\n      pop\n        /* \"Contracts\":1755:1763  referees */\n      0x06\n        /* \"Contracts\":1755:1773  referees[_referee] */\n      0x00\n        /* \"Contracts\":1764:1772  _referee */\n      dup7\n        /* \"Contracts\":1755:1773  referees[_referee] */\n      0xffffffffffffffffffffffffffffffffffffffff\n      and\n      0xffffffffffffffffffffffffffffffffffffffff\n      and\n      dup2\n      mstore\n      0x20\n      add\n      swap1\n      dup2\n      mstore\n      0x20\n      add\n      0x00\n      keccak256\n        /* \"Contracts\":1755:1809  referees[_referee].openAccountabilityContractAddresses */\n      0x01\n      add\n        /* \"Contracts\":1823:1834  newContract */\n      dup2\n        /* \"Contracts\":1755:1836  referees[_referee].openAccountabilityContractAddresses.push(address(newContract)) */\n      swap1\n      dup1\n      0x01\n      dup2\n      sload\n      add\n      dup1\n      dup3\n      sstore\n      dup1\n      swap2\n      pop\n      pop\n      0x01\n      swap1\n      sub\n      swap1\n      0x00\n      mstore\n      keccak256(0x00, 0x20)\n      add\n      0x00\n      swap1\n      swap2\n      swap1\n      swap2\n      swap1\n      swap2\n      0x0100\n      exp\n      dup2\n      sload\n      dup2\n      0xffffffffffffffffffffffffffffffffffffffff\n      mul\n      not\n      and\n      swap1\n      dup4\n      0xffffffffffffffffffffffffffffffffffffffff\n      and\n      mul\n      or\n      swap1\n      sstore\n      pop\n        /* \"Contracts\":968:1843  {... */\n      pop\n        /* \"Contracts\":813:1843  function createAccountabilityContract(address _referee, string memory _name, string memory _description, address payable _failureRecipient) public payable {... */\n      pop\n      pop\n      pop\n      pop\n      jump\t// out\n        /* \"Contracts\":6032:6751  function moveOpenContractToClosedContractsForUser(address user, address contractAddress) private {... */\n    tag_163:\n        /* \"Contracts\":6139:6157  uint contractIndex */\n      0x00\n        /* \"Contracts\":6160:6206  getContractIndexForUser(user, contractAddress) */\n      tag_327\n        /* \"Contracts\":6184:6188  user */\n      dup4\n        /* \"Contracts\":6190:6205  contractAddress */\n      dup4\n        /* \"Contracts\":6160:6183  getContractIndexForUser */\n      tag_328\n        /* \"Contracts\":6160:6206  getContractIndexForUser(user, contractAddress) */\n      jump\t// in\n    tag_327:\n        /* \"Contracts\":6139:6206  uint contractIndex = getContractIndexForUser(user, contractAddress) */\n      swap1\n      pop\n        /* \"Contracts\":6216:6248  uint openContractAddressesLength */\n      0x00\n        /* \"Contracts\":6251:6256  users */\n      dup1\n        /* \"Contracts\":6251:6262  users[user] */\n      0x00\n        /* \"Contracts\":6257:6261  user */\n      dup6\n        /* \"Contracts\":6251:6262  users[user] */\n      0xffffffffffffffffffffffffffffffffffffffff\n      and\n      0xffffffffffffffffffffffffffffffffffffffff\n      and\n      dup2\n      mstore\n      0x20\n      add\n      swap1\n      dup2\n      mstore\n      0x20\n      add\n      0x00\n      keccak256\n        /* \"Contracts\":6251:6298  users[user].openAccountabilityContractAddresses */\n      0x01\n      add\n        /* \"Contracts\":6251:6305  users[user].openAccountabilityContractAddresses.length */\n      dup1\n      sload\n      swap1\n      pop\n        /* \"Contracts\":6216:6305  uint openContractAddressesLength = users[user].openAccountabilityContractAddresses.length */\n      swap1\n      pop\n        /* \"Contracts\":6320:6326  uint i */\n      0x00\n        /* \"Contracts\":6329:6342  contractIndex */\n      dup3\n        /* \"Contracts\":6320:6342  uint i = contractIndex */\n      swap1\n      pop\n        /* \"Contracts\":6315:6511  for (uint i = contractIndex; i<openContractAddressesLength-1; i++){... */\n    tag_329:\n        /* \"Contracts\":6374:6375  1 */\n      0x01\n        /* \"Contracts\":6346:6373  openContractAddressesLength */\n      dup3\n        /* \"Contracts\":6346:6375  openContractAddressesLength-1 */\n      tag_332\n      swap2\n      swap1\n      tag_185\n      jump\t// in\n    tag_332:\n        /* \"Contracts\":6344:6345  i */\n      dup2\n        /* \"Contracts\":6344:6375  i<openContractAddressesLength-1 */\n      lt\n        /* \"Contracts\":6315:6511  for (uint i = contractIndex; i<openContractAddressesLength-1; i++){... */\n      iszero\n      tag_330\n      jumpi\n        /* \"Contracts\":6448:6453  users */\n      0x00\n        /* \"Contracts\":6448:6459  users[user] */\n      dup1\n        /* \"Contracts\":6454:6458  user */\n      dup7\n        /* \"Contracts\":6448:6459  users[user] */\n      0xffffffffffffffffffffffffffffffffffffffff\n      and\n      0xffffffffffffffffffffffffffffffffffffffff\n      and\n      dup2\n      mstore\n      0x20\n      add\n      swap1\n      dup2\n      mstore\n      0x20\n      add\n      0x00\n      keccak256\n        /* \"Contracts\":6448:6495  users[user].openAccountabilityContractAddresses */\n      0x01\n      add\n        /* \"Contracts\":6498:6499  1 */\n      0x01\n        /* \"Contracts\":6496:6497  i */\n      dup3\n        /* \"Contracts\":6496:6499  i+1 */\n      tag_333\n      swap2\n      swap1\n      tag_321\n      jump\t// in\n    tag_333:\n        /* \"Contracts\":6448:6500  users[user].openAccountabilityContractAddresses[i+1] */\n      dup2\n      sload\n      dup2\n      lt\n      tag_334\n      jumpi\n      tag_335\n      tag_195\n      jump\t// in\n    tag_335:\n    tag_334:\n      swap1\n      0x00\n      mstore\n      keccak256(0x00, 0x20)\n      add\n      0x00\n      swap1\n      sload\n      swap1\n      0x0100\n      exp\n      swap1\n      div\n      0xffffffffffffffffffffffffffffffffffffffff\n      and\n        /* \"Contracts\":6395:6400  users */\n      0x00\n        /* \"Contracts\":6395:6406  users[user] */\n      dup1\n        /* \"Contracts\":6401:6405  user */\n      dup8\n        /* \"Contracts\":6395:6406  users[user] */\n      0xffffffffffffffffffffffffffffffffffffffff\n      and\n      0xffffffffffffffffffffffffffffffffffffffff\n      and\n      dup2\n      mstore\n      0x20\n      add\n      swap1\n      dup2\n      mstore\n      0x20\n      add\n      0x00\n      keccak256\n        /* \"Contracts\":6395:6442  users[user].openAccountabilityContractAddresses */\n      0x01\n      add\n        /* \"Contracts\":6443:6444  i */\n      dup3\n        /* \"Contracts\":6395:6445  users[user].openAccountabilityContractAddresses[i] */\n      dup2\n      sload\n      dup2\n      lt\n      tag_337\n      jumpi\n      tag_338\n      tag_195\n      jump\t// in\n    tag_338:\n    tag_337:\n      swap1\n      0x00\n      mstore\n      keccak256(0x00, 0x20)\n      add\n      0x00\n        /* \"Contracts\":6395:6500  users[user].openAccountabilityContractAddresses[i] = users[user].openAccountabilityContractAddresses[i+1] */\n      0x0100\n      exp\n      dup2\n      sload\n      dup2\n      0xffffffffffffffffffffffffffffffffffffffff\n      mul\n      not\n      and\n      swap1\n      dup4\n      0xffffffffffffffffffffffffffffffffffffffff\n      and\n      mul\n      or\n      swap1\n      sstore\n      pop\n        /* \"Contracts\":6377:6380  i++ */\n      dup1\n      dup1\n      tag_340\n      swap1\n      tag_200\n      jump\t// in\n    tag_340:\n      swap2\n      pop\n      pop\n        /* \"Contracts\":6315:6511  for (uint i = contractIndex; i<openContractAddressesLength-1; i++){... */\n      jump(tag_329)\n    tag_330:\n      pop\n        /* \"Contracts\":6520:6525  users */\n      0x00\n        /* \"Contracts\":6520:6531  users[user] */\n      dup1\n        /* \"Contracts\":6526:6530  user */\n      dup6\n        /* \"Contracts\":6520:6531  users[user] */\n      0xffffffffffffffffffffffffffffffffffffffff\n      and\n      0xffffffffffffffffffffffffffffffffffffffff\n      and\n      dup2\n      mstore\n      0x20\n      add\n      swap1\n      dup2\n      mstore\n      0x20\n      add\n      0x00\n      keccak256\n        /* \"Contracts\":6520:6569  users[user].closedAccountabilityContractAddresses */\n      0x02\n      add\n        /* \"Contracts\":6575:6580  users */\n      0x00\n        /* \"Contracts\":6575:6586  users[user] */\n      dup1\n        /* \"Contracts\":6581:6585  user */\n      dup7\n        /* \"Contracts\":6575:6586  users[user] */\n      0xffffffffffffffffffffffffffffffffffffffff\n      and\n      0xffffffffffffffffffffffffffffffffffffffff\n      and\n      dup2\n      mstore\n      0x20\n      add\n      swap1\n      dup2\n      mstore\n      0x20\n      add\n      0x00\n      keccak256\n        /* \"Contracts\":6575:6622  users[user].openAccountabilityContractAddresses */\n      0x01\n      add\n        /* \"Contracts\":6678:6679  1 */\n      0x01\n        /* \"Contracts\":6623:6628  users */\n      0x00\n        /* \"Contracts\":6623:6634  users[user] */\n      dup1\n        /* \"Contracts\":6629:6633  user */\n      dup9\n        /* \"Contracts\":6623:6634  users[user] */\n      0xffffffffffffffffffffffffffffffffffffffff\n      and\n      0xffffffffffffffffffffffffffffffffffffffff\n      and\n      dup2\n      mstore\n      0x20\n      add\n      swap1\n      dup2\n      mstore\n      0x20\n      add\n      0x00\n      keccak256\n        /* \"Contracts\":6623:6670  users[user].openAccountabilityContractAddresses */\n      0x01\n      add\n        /* \"Contracts\":6623:6677  users[user].openAccountabilityContractAddresses.length */\n      dup1\n      sload\n      swap1\n      pop\n        /* \"Contracts\":6623:6679  users[user].openAccountabilityContractAddresses.length-1 */\n      tag_341\n      swap2\n      swap1\n      tag_185\n      jump\t// in\n    tag_341:\n        /* \"Contracts\":6575:6680  users[user].openAccountabilityContractAddresses[users[user].openAccountabilityContractAddresses.length-1] */\n      dup2\n      sload\n      dup2\n      lt\n      tag_342\n      jumpi\n      tag_343\n      tag_195\n      jump\t// in\n    tag_343:\n    tag_342:\n      swap1\n      0x00\n      mstore\n      keccak256(0x00, 0x20)\n      add\n      0x00\n      swap1\n      sload\n      swap1\n      0x0100\n      exp\n      swap1\n      div\n      0xffffffffffffffffffffffffffffffffffffffff\n      and\n        /* \"Contracts\":6520:6681  users[user].closedAccountabilityContractAddresses.push(users[user].openAccountabilityContractAddresses[users[user].openAccountabilityContractAddresses.length-1]) */\n      swap1\n      dup1\n      0x01\n      dup2\n      sload\n      add\n      dup1\n      dup3\n      sstore\n      dup1\n      swap2\n      pop\n      pop\n      0x01\n      swap1\n      sub\n      swap1\n      0x00\n      mstore\n      keccak256(0x00, 0x20)\n      add\n      0x00\n      swap1\n      swap2\n      swap1\n      swap2\n      swap1\n      swap2\n      0x0100\n      exp\n      dup2\n      sload\n      dup2\n      0xffffffffffffffffffffffffffffffffffffffff\n      mul\n      not\n      and\n      swap1\n      dup4\n      0xffffffffffffffffffffffffffffffffffffffff\n      and\n      mul\n      or\n      swap1\n      sstore\n      pop\n        /* \"Contracts\":6691:6696  users */\n      0x00\n        /* \"Contracts\":6691:6702  users[user] */\n      dup1\n        /* \"Contracts\":6697:6701  user */\n      dup6\n        /* \"Contracts\":6691:6702  users[user] */\n      0xffffffffffffffffffffffffffffffffffffffff\n      and\n      0xffffffffffffffffffffffffffffffffffffffff\n      and\n      dup2\n      mstore\n      0x20\n      add\n      swap1\n      dup2\n      mstore\n      0x20\n      add\n      0x00\n      keccak256\n        /* \"Contracts\":6691:6738  users[user].openAccountabilityContractAddresses */\n      0x01\n      add\n        /* \"Contracts\":6691:6744  users[user].openAccountabilityContractAddresses.pop() */\n      dup1\n      sload\n      dup1\n      tag_346\n      jumpi\n      tag_347\n      tag_348\n      jump\t// in\n    tag_347:\n    tag_346:\n      0x01\n      swap1\n      sub\n      dup2\n      dup2\n      swap1\n      0x00\n      mstore\n      keccak256(0x00, 0x20)\n      add\n      exp(0x0100, 0x00)\n      dup2\n      sload\n      swap1\n      0xffffffffffffffffffffffffffffffffffffffff\n      mul\n      not\n      and\n      swap1\n      sstore\n      swap1\n      sstore\n        /* \"Contracts\":6129:6751  {... */\n      pop\n      pop\n        /* \"Contracts\":6032:6751  function moveOpenContractToClosedContractsForUser(address user, address contractAddress) private {... */\n      pop\n      pop\n      jump\t// out\n        /* \"Contracts\":7187:7888  function moveOpenContractToClosedContractsForReferee(address referee, address contractAddress) private {... */\n    tag_171:\n        /* \"Contracts\":7300:7318  uint contractIndex */\n      0x00\n        /* \"Contracts\":7321:7373  getContractIndexForReferee(referee, contractAddress) */\n      tag_351\n        /* \"Contracts\":7348:7355  referee */\n      dup4\n        /* \"Contracts\":7357:7372  contractAddress */\n      dup4\n        /* \"Contracts\":7321:7347  getContractIndexForReferee */\n      tag_352\n        /* \"Contracts\":7321:7373  getContractIndexForReferee(referee, contractAddress) */\n      jump\t// in\n    tag_351:\n        /* \"Contracts\":7300:7373  uint contractIndex = getContractIndexForReferee(referee, contractAddress) */\n      swap1\n      pop\n        /* \"Contracts\":7388:7394  uint i */\n      0x00\n        /* \"Contracts\":7397:7410  contractIndex */\n      dup2\n        /* \"Contracts\":7388:7410  uint i = contractIndex */\n      swap1\n      pop\n        /* \"Contracts\":7383:7624  for (uint i = contractIndex; i<referees[referee].openAccountabilityContractAddresses.length-1; i++){... */\n    tag_353:\n        /* \"Contracts\":7475:7476  1 */\n      0x01\n        /* \"Contracts\":7414:7422  referees */\n      0x06\n        /* \"Contracts\":7414:7431  referees[referee] */\n      0x00\n        /* \"Contracts\":7423:7430  referee */\n      dup7\n        /* \"Contracts\":7414:7431  referees[referee] */\n      0xffffffffffffffffffffffffffffffffffffffff\n      and\n      0xffffffffffffffffffffffffffffffffffffffff\n      and\n      dup2\n      mstore\n      0x20\n      add\n      swap1\n      dup2\n      mstore\n      0x20\n      add\n      0x00\n      keccak256\n        /* \"Contracts\":7414:7467  referees[referee].openAccountabilityContractAddresses */\n      0x01\n      add\n        /* \"Contracts\":7414:7474  referees[referee].openAccountabilityContractAddresses.length */\n      dup1\n      sload\n      swap1\n      pop\n        /* \"Contracts\":7414:7476  referees[referee].openAccountabilityContractAddresses.length-1 */\n      tag_356\n      swap2\n      swap1\n      tag_185\n      jump\t// in\n    tag_356:\n        /* \"Contracts\":7412:7413  i */\n      dup2\n        /* \"Contracts\":7412:7476  i<referees[referee].openAccountabilityContractAddresses.length-1 */\n      lt\n        /* \"Contracts\":7383:7624  for (uint i = contractIndex; i<referees[referee].openAccountabilityContractAddresses.length-1; i++){... */\n      iszero\n      tag_354\n      jumpi\n        /* \"Contracts\":7555:7563  referees */\n      0x06\n        /* \"Contracts\":7555:7572  referees[referee] */\n      0x00\n        /* \"Contracts\":7564:7571  referee */\n      dup6\n        /* \"Contracts\":7555:7572  referees[referee] */\n      0xffffffffffffffffffffffffffffffffffffffff\n      and\n      0xffffffffffffffffffffffffffffffffffffffff\n      and\n      dup2\n      mstore\n      0x20\n      add\n      swap1\n      dup2\n      mstore\n      0x20\n      add\n      0x00\n      keccak256\n        /* \"Contracts\":7555:7608  referees[referee].openAccountabilityContractAddresses */\n      0x01\n      add\n        /* \"Contracts\":7611:7612  1 */\n      0x01\n        /* \"Contracts\":7609:7610  i */\n      dup3\n        /* \"Contracts\":7609:7612  i+1 */\n      tag_357\n      swap2\n      swap1\n      tag_321\n      jump\t// in\n    tag_357:\n        /* \"Contracts\":7555:7613  referees[referee].openAccountabilityContractAddresses[i+1] */\n      dup2\n      sload\n      dup2\n      lt\n      tag_358\n      jumpi\n      tag_359\n      tag_195\n      jump\t// in\n    tag_359:\n    tag_358:\n      swap1\n      0x00\n      mstore\n      keccak256(0x00, 0x20)\n      add\n      0x00\n      swap1\n      sload\n      swap1\n      0x0100\n      exp\n      swap1\n      div\n      0xffffffffffffffffffffffffffffffffffffffff\n      and\n        /* \"Contracts\":7496:7504  referees */\n      0x06\n        /* \"Contracts\":7496:7513  referees[referee] */\n      0x00\n        /* \"Contracts\":7505:7512  referee */\n      dup7\n        /* \"Contracts\":7496:7513  referees[referee] */\n      0xffffffffffffffffffffffffffffffffffffffff\n      and\n      0xffffffffffffffffffffffffffffffffffffffff\n      and\n      dup2\n      mstore\n      0x20\n      add\n      swap1\n      dup2\n      mstore\n      0x20\n      add\n      0x00\n      keccak256\n        /* \"Contracts\":7496:7549  referees[referee].openAccountabilityContractAddresses */\n      0x01\n      add\n        /* \"Contracts\":7550:7551  i */\n      dup3\n        /* \"Contracts\":7496:7552  referees[referee].openAccountabilityContractAddresses[i] */\n      dup2\n      sload\n      dup2\n      lt\n      tag_361\n      jumpi\n      tag_362\n      tag_195\n      jump\t// in\n    tag_362:\n    tag_361:\n      swap1\n      0x00\n      mstore\n      keccak256(0x00, 0x20)\n      add\n      0x00\n        /* \"Contracts\":7496:7613  referees[referee].openAccountabilityContractAddresses[i] = referees[referee].openAccountabilityContractAddresses[i+1] */\n      0x0100\n      exp\n      dup2\n      sload\n      dup2\n      0xffffffffffffffffffffffffffffffffffffffff\n      mul\n      not\n      and\n      swap1\n      dup4\n      0xffffffffffffffffffffffffffffffffffffffff\n      and\n      mul\n      or\n      swap1\n      sstore\n      pop\n        /* \"Contracts\":7478:7481  i++ */\n      dup1\n      dup1\n      tag_364\n      swap1\n      tag_200\n      jump\t// in\n    tag_364:\n      swap2\n      pop\n      pop\n        /* \"Contracts\":7383:7624  for (uint i = contractIndex; i<referees[referee].openAccountabilityContractAddresses.length-1; i++){... */\n      jump(tag_353)\n    tag_354:\n      pop\n        /* \"Contracts\":7633:7641  referees */\n      0x06\n        /* \"Contracts\":7633:7650  referees[referee] */\n      0x00\n        /* \"Contracts\":7642:7649  referee */\n      dup5\n        /* \"Contracts\":7633:7650  referees[referee] */\n      0xffffffffffffffffffffffffffffffffffffffff\n      and\n      0xffffffffffffffffffffffffffffffffffffffff\n      and\n      dup2\n      mstore\n      0x20\n      add\n      swap1\n      dup2\n      mstore\n      0x20\n      add\n      0x00\n      keccak256\n        /* \"Contracts\":7633:7688  referees[referee].closedAccountabilityContractAddresses */\n      0x02\n      add\n        /* \"Contracts\":7694:7702  referees */\n      0x06\n        /* \"Contracts\":7694:7711  referees[referee] */\n      0x00\n        /* \"Contracts\":7703:7710  referee */\n      dup6\n        /* \"Contracts\":7694:7711  referees[referee] */\n      0xffffffffffffffffffffffffffffffffffffffff\n      and\n      0xffffffffffffffffffffffffffffffffffffffff\n      and\n      dup2\n      mstore\n      0x20\n      add\n      swap1\n      dup2\n      mstore\n      0x20\n      add\n      0x00\n      keccak256\n        /* \"Contracts\":7694:7747  referees[referee].openAccountabilityContractAddresses */\n      0x01\n      add\n        /* \"Contracts\":7809:7810  1 */\n      0x01\n        /* \"Contracts\":7748:7756  referees */\n      0x06\n        /* \"Contracts\":7748:7765  referees[referee] */\n      0x00\n        /* \"Contracts\":7757:7764  referee */\n      dup8\n        /* \"Contracts\":7748:7765  referees[referee] */\n      0xffffffffffffffffffffffffffffffffffffffff\n      and\n      0xffffffffffffffffffffffffffffffffffffffff\n      and\n      dup2\n      mstore\n      0x20\n      add\n      swap1\n      dup2\n      mstore\n      0x20\n      add\n      0x00\n      keccak256\n        /* \"Contracts\":7748:7801  referees[referee].openAccountabilityContractAddresses */\n      0x01\n      add\n        /* \"Contracts\":7748:7808  referees[referee].openAccountabilityContractAddresses.length */\n      dup1\n      sload\n      swap1\n      pop\n        /* \"Contracts\":7748:7810  referees[referee].openAccountabilityContractAddresses.length-1 */\n      tag_365\n      swap2\n      swap1\n      tag_185\n      jump\t// in\n    tag_365:\n        /* \"Contracts\":7694:7811  referees[referee].openAccountabilityContractAddresses[referees[referee].openAccountabilityContractAddresses.length-1] */\n      dup2\n      sload\n      dup2\n      lt\n      tag_366\n      jumpi\n      tag_367\n      tag_195\n      jump\t// in\n    tag_367:\n    tag_366:\n      swap1\n      0x00\n      mstore\n      keccak256(0x00, 0x20)\n      add\n      0x00\n      swap1\n      sload\n      swap1\n      0x0100\n      exp\n      swap1\n      div\n      0xffffffffffffffffffffffffffffffffffffffff\n      and\n        /* \"Contracts\":7633:7812  referees[referee].closedAccountabilityContractAddresses.push(referees[referee].openAccountabilityContractAddresses[referees[referee].openAccountabilityContractAddresses.length-1]) */\n      swap1\n      dup1\n      0x01\n      dup2\n      sload\n      add\n      dup1\n      dup3\n      sstore\n      dup1\n      swap2\n      pop\n      pop\n      0x01\n      swap1\n      sub\n      swap1\n      0x00\n      mstore\n      keccak256(0x00, 0x20)\n      add\n      0x00\n      swap1\n      swap2\n      swap1\n      swap2\n      swap1\n      swap2\n      0x0100\n      exp\n      dup2\n      sload\n      dup2\n      0xffffffffffffffffffffffffffffffffffffffff\n      mul\n      not\n      and\n      swap1\n      dup4\n      0xffffffffffffffffffffffffffffffffffffffff\n      and\n      mul\n      or\n      swap1\n      sstore\n      pop\n        /* \"Contracts\":7822:7830  referees */\n      0x06\n        /* \"Contracts\":7822:7839  referees[referee] */\n      0x00\n        /* \"Contracts\":7831:7838  referee */\n      dup5\n        /* \"Contracts\":7822:7839  referees[referee] */\n      0xffffffffffffffffffffffffffffffffffffffff\n      and\n      0xffffffffffffffffffffffffffffffffffffffff\n      and\n      dup2\n      mstore\n      0x20\n      add\n      swap1\n      dup2\n      mstore\n      0x20\n      add\n      0x00\n      keccak256\n        /* \"Contracts\":7822:7875  referees[referee].openAccountabilityContractAddresses */\n      0x01\n      add\n        /* \"Contracts\":7822:7881  referees[referee].openAccountabilityContractAddresses.pop() */\n      dup1\n      sload\n      dup1\n      tag_370\n      jumpi\n      tag_371\n      tag_348\n      jump\t// in\n    tag_371:\n    tag_370:\n      0x01\n      swap1\n      sub\n      dup2\n      dup2\n      swap1\n      0x00\n      mstore\n      keccak256(0x00, 0x20)\n      add\n      exp(0x0100, 0x00)\n      dup2\n      sload\n      swap1\n      0xffffffffffffffffffffffffffffffffffffffff\n      mul\n      not\n      and\n      swap1\n      sstore\n      swap1\n      sstore\n        /* \"Contracts\":7290:7888  {... */\n      pop\n        /* \"Contracts\":7187:7888  function moveOpenContractToClosedContractsForReferee(address referee, address contractAddress) private {... */\n      pop\n      pop\n      jump\t// out\n        /* \"Contracts\":7894:8567  function deleteApprovalRequestForReferee(address referee, address approvalRequestAddress) private {... */\n    tag_176:\n        /* \"Contracts\":8002:8020  uint contractIndex */\n      0x00\n        /* \"Contracts\":8035:8041  uint i */\n      dup1\n        /* \"Contracts\":8044:8045  0 */\n      0x00\n        /* \"Contracts\":8035:8045  uint i = 0 */\n      swap1\n      pop\n        /* \"Contracts\":8030:8281  for (uint i = 0; i<=referees[referee].approvalRequestsAddresses.length-1; i++){... */\n    tag_374:\n        /* \"Contracts\":8101:8102  1 */\n      0x01\n        /* \"Contracts\":8050:8058  referees */\n      0x06\n        /* \"Contracts\":8050:8067  referees[referee] */\n      0x00\n        /* \"Contracts\":8059:8066  referee */\n      dup7\n        /* \"Contracts\":8050:8067  referees[referee] */\n      0xffffffffffffffffffffffffffffffffffffffff\n      and\n      0xffffffffffffffffffffffffffffffffffffffff\n      and\n      dup2\n      mstore\n      0x20\n      add\n      swap1\n      dup2\n      mstore\n      0x20\n      add\n      0x00\n      keccak256\n        /* \"Contracts\":8050:8093  referees[referee].approvalRequestsAddresses */\n      0x03\n      add\n        /* \"Contracts\":8050:8100  referees[referee].approvalRequestsAddresses.length */\n      dup1\n      sload\n      swap1\n      pop\n        /* \"Contracts\":8050:8102  referees[referee].approvalRequestsAddresses.length-1 */\n      tag_377\n      swap2\n      swap1\n      tag_185\n      jump\t// in\n    tag_377:\n        /* \"Contracts\":8047:8048  i */\n      dup2\n        /* \"Contracts\":8047:8102  i<=referees[referee].approvalRequestsAddresses.length-1 */\n      gt\n        /* \"Contracts\":8030:8281  for (uint i = 0; i<=referees[referee].approvalRequestsAddresses.length-1; i++){... */\n      tag_375\n      jumpi\n        /* \"Contracts\":8175:8197  approvalRequestAddress */\n      dup3\n        /* \"Contracts\":8125:8197  referees[referee].approvalRequestsAddresses[i] == approvalRequestAddress */\n      0xffffffffffffffffffffffffffffffffffffffff\n      and\n        /* \"Contracts\":8125:8133  referees */\n      0x06\n        /* \"Contracts\":8125:8142  referees[referee] */\n      0x00\n        /* \"Contracts\":8134:8141  referee */\n      dup7\n        /* \"Contracts\":8125:8142  referees[referee] */\n      0xffffffffffffffffffffffffffffffffffffffff\n      and\n      0xffffffffffffffffffffffffffffffffffffffff\n      and\n      dup2\n      mstore\n      0x20\n      add\n      swap1\n      dup2\n      mstore\n      0x20\n      add\n      0x00\n      keccak256\n        /* \"Contracts\":8125:8168  referees[referee].approvalRequestsAddresses */\n      0x03\n      add\n        /* \"Contracts\":8169:8170  i */\n      dup3\n        /* \"Contracts\":8125:8171  referees[referee].approvalRequestsAddresses[i] */\n      dup2\n      sload\n      dup2\n      lt\n      tag_378\n      jumpi\n      tag_379\n      tag_195\n      jump\t// in\n    tag_379:\n    tag_378:\n      swap1\n      0x00\n      mstore\n      keccak256(0x00, 0x20)\n      add\n      0x00\n      swap1\n      sload\n      swap1\n      0x0100\n      exp\n      swap1\n      div\n      0xffffffffffffffffffffffffffffffffffffffff\n      and\n        /* \"Contracts\":8125:8197  referees[referee].approvalRequestsAddresses[i] == approvalRequestAddress */\n      0xffffffffffffffffffffffffffffffffffffffff\n      and\n      eq\n        /* \"Contracts\":8122:8271  if(referees[referee].approvalRequestsAddresses[i] == approvalRequestAddress){... */\n      iszero\n      tag_381\n      jumpi\n        /* \"Contracts\":8232:8233  i */\n      dup1\n        /* \"Contracts\":8216:8233  contractIndex = i */\n      swap2\n      pop\n        /* \"Contracts\":8251:8256  break */\n      jump(tag_375)\n        /* \"Contracts\":8122:8271  if(referees[referee].approvalRequestsAddresses[i] == approvalRequestAddress){... */\n    tag_381:\n        /* \"Contracts\":8104:8107  i++ */\n      dup1\n      dup1\n      tag_382\n      swap1\n      tag_200\n      jump\t// in\n    tag_382:\n      swap2\n      pop\n      pop\n        /* \"Contracts\":8030:8281  for (uint i = 0; i<=referees[referee].approvalRequestsAddresses.length-1; i++){... */\n      jump(tag_374)\n    tag_375:\n      pop\n        /* \"Contracts\":8295:8301  uint i */\n      0x00\n        /* \"Contracts\":8304:8317  contractIndex */\n      dup2\n        /* \"Contracts\":8295:8317  uint i = contractIndex */\n      swap1\n      pop\n        /* \"Contracts\":8290:8501  for (uint i = contractIndex; i<referees[referee].approvalRequestsAddresses.length-1; i++){... */\n    tag_383:\n        /* \"Contracts\":8372:8373  1 */\n      0x01\n        /* \"Contracts\":8321:8329  referees */\n      0x06\n        /* \"Contracts\":8321:8338  referees[referee] */\n      0x00\n        /* \"Contracts\":8330:8337  referee */\n      dup7\n        /* \"Contracts\":8321:8338  referees[referee] */\n      0xffffffffffffffffffffffffffffffffffffffff\n      and\n      0xffffffffffffffffffffffffffffffffffffffff\n      and\n      dup2\n      mstore\n      0x20\n      add\n      swap1\n      dup2\n      mstore\n      0x20\n      add\n      0x00\n      keccak256\n        /* \"Contracts\":8321:8364  referees[referee].approvalRequestsAddresses */\n      0x03\n      add\n        /* \"Contracts\":8321:8371  referees[referee].approvalRequestsAddresses.length */\n      dup1\n      sload\n      swap1\n      pop\n        /* \"Contracts\":8321:8373  referees[referee].approvalRequestsAddresses.length-1 */\n      tag_386\n      swap2\n      swap1\n      tag_185\n      jump\t// in\n    tag_386:\n        /* \"Contracts\":8319:8320  i */\n      dup2\n        /* \"Contracts\":8319:8373  i<referees[referee].approvalRequestsAddresses.length-1 */\n      lt\n        /* \"Contracts\":8290:8501  for (uint i = contractIndex; i<referees[referee].approvalRequestsAddresses.length-1; i++){... */\n      iszero\n      tag_384\n      jumpi\n        /* \"Contracts\":8442:8450  referees */\n      0x06\n        /* \"Contracts\":8442:8459  referees[referee] */\n      0x00\n        /* \"Contracts\":8451:8458  referee */\n      dup6\n        /* \"Contracts\":8442:8459  referees[referee] */\n      0xffffffffffffffffffffffffffffffffffffffff\n      and\n      0xffffffffffffffffffffffffffffffffffffffff\n      and\n      dup2\n      mstore\n      0x20\n      add\n      swap1\n      dup2\n      mstore\n      0x20\n      add\n      0x00\n      keccak256\n        /* \"Contracts\":8442:8485  referees[referee].approvalRequestsAddresses */\n      0x03\n      add\n        /* \"Contracts\":8488:8489  1 */\n      0x01\n        /* \"Contracts\":8486:8487  i */\n      dup3\n        /* \"Contracts\":8486:8489  i+1 */\n      tag_387\n      swap2\n      swap1\n      tag_321\n      jump\t// in\n    tag_387:\n        /* \"Contracts\":8442:8490  referees[referee].approvalRequestsAddresses[i+1] */\n      dup2\n      sload\n      dup2\n      lt\n      tag_388\n      jumpi\n      tag_389\n      tag_195\n      jump\t// in\n    tag_389:\n    tag_388:\n      swap1\n      0x00\n      mstore\n      keccak256(0x00, 0x20)\n      add\n      0x00\n      swap1\n      sload\n      swap1\n      0x0100\n      exp\n      swap1\n      div\n      0xffffffffffffffffffffffffffffffffffffffff\n      and\n        /* \"Contracts\":8393:8401  referees */\n      0x06\n        /* \"Contracts\":8393:8410  referees[referee] */\n      0x00\n        /* \"Contracts\":8402:8409  referee */\n      dup7\n        /* \"Contracts\":8393:8410  referees[referee] */\n      0xffffffffffffffffffffffffffffffffffffffff\n      and\n      0xffffffffffffffffffffffffffffffffffffffff\n      and\n      dup2\n      mstore\n      0x20\n      add\n      swap1\n      dup2\n      mstore\n      0x20\n      add\n      0x00\n      keccak256\n        /* \"Contracts\":8393:8436  referees[referee].approvalRequestsAddresses */\n      0x03\n      add\n        /* \"Contracts\":8437:8438  i */\n      dup3\n        /* \"Contracts\":8393:8439  referees[referee].approvalRequestsAddresses[i] */\n      dup2\n      sload\n      dup2\n      lt\n      tag_391\n      jumpi\n      tag_392\n      tag_195\n      jump\t// in\n    tag_392:\n    tag_391:\n      swap1\n      0x00\n      mstore\n      keccak256(0x00, 0x20)\n      add\n      0x00\n        /* \"Contracts\":8393:8490  referees[referee].approvalRequestsAddresses[i] = referees[referee].approvalRequestsAddresses[i+1] */\n      0x0100\n      exp\n      dup2\n      sload\n      dup2\n      0xffffffffffffffffffffffffffffffffffffffff\n      mul\n      not\n      and\n      swap1\n      dup4\n      0xffffffffffffffffffffffffffffffffffffffff\n      and\n      mul\n      or\n      swap1\n      sstore\n      pop\n        /* \"Contracts\":8375:8378  i++ */\n      dup1\n      dup1\n      tag_394\n      swap1\n      tag_200\n      jump\t// in\n    tag_394:\n      swap2\n      pop\n      pop\n        /* \"Contracts\":8290:8501  for (uint i = contractIndex; i<referees[referee].approvalRequestsAddresses.length-1; i++){... */\n      jump(tag_383)\n    tag_384:\n      pop\n        /* \"Contracts\":8510:8518  referees */\n      0x06\n        /* \"Contracts\":8510:8527  referees[referee] */\n      0x00\n        /* \"Contracts\":8519:8526  referee */\n      dup5\n        /* \"Contracts\":8510:8527  referees[referee] */\n      0xffffffffffffffffffffffffffffffffffffffff\n      and\n      0xffffffffffffffffffffffffffffffffffffffff\n      and\n      dup2\n      mstore\n      0x20\n      add\n      swap1\n      dup2\n      mstore\n      0x20\n      add\n      0x00\n      keccak256\n        /* \"Contracts\":8510:8553  referees[referee].approvalRequestsAddresses */\n      0x03\n      add\n        /* \"Contracts\":8510:8559  referees[referee].approvalRequestsAddresses.pop() */\n      dup1\n      sload\n      dup1\n      tag_395\n      jumpi\n      tag_396\n      tag_348\n      jump\t// in\n    tag_396:\n    tag_395:\n      0x01\n      swap1\n      sub\n      dup2\n      dup2\n      swap1\n      0x00\n      mstore\n      keccak256(0x00, 0x20)\n      add\n      exp(0x0100, 0x00)\n      dup2\n      sload\n      swap1\n      0xffffffffffffffffffffffffffffffffffffffff\n      mul\n      not\n      and\n      swap1\n      sstore\n      swap1\n      sstore\n        /* \"Contracts\":7992:8567  {... */\n      pop\n        /* \"Contracts\":7894:8567  function deleteApprovalRequestForReferee(address referee, address approvalRequestAddress) private {... */\n      pop\n      pop\n      jump\t// out\n        /* \"Contracts\":5620:6026  function getContractIndexForUser(address user, address contractAddress) view private returns (uint){... */\n    tag_328:\n        /* \"Contracts\":5714:5718  uint */\n      0x00\n        /* \"Contracts\":5729:5747  uint contractIndex */\n      dup1\n        /* \"Contracts\":5762:5768  uint i */\n      0x00\n        /* \"Contracts\":5757:5990  for (uint i = 0; i<=users[user].openAccountabilityContractAddresses.length-1; i++){... */\n    tag_399:\n        /* \"Contracts\":5832:5833  1 */\n      0x01\n        /* \"Contracts\":5777:5782  users */\n      0x00\n        /* \"Contracts\":5777:5788  users[user] */\n      dup1\n        /* \"Contracts\":5783:5787  user */\n      dup8\n        /* \"Contracts\":5777:5788  users[user] */\n      0xffffffffffffffffffffffffffffffffffffffff\n      and\n      0xffffffffffffffffffffffffffffffffffffffff\n      and\n      dup2\n      mstore\n      0x20\n      add\n      swap1\n      dup2\n      mstore\n      0x20\n      add\n      0x00\n      keccak256\n        /* \"Contracts\":5777:5824  users[user].openAccountabilityContractAddresses */\n      0x01\n      add\n        /* \"Contracts\":5777:5831  users[user].openAccountabilityContractAddresses.length */\n      dup1\n      sload\n      swap1\n      pop\n        /* \"Contracts\":5777:5833  users[user].openAccountabilityContractAddresses.length-1 */\n      tag_402\n      swap2\n      swap1\n      tag_185\n      jump\t// in\n    tag_402:\n        /* \"Contracts\":5774:5775  i */\n      dup2\n        /* \"Contracts\":5774:5833  i<=users[user].openAccountabilityContractAddresses.length-1 */\n      gt\n        /* \"Contracts\":5757:5990  for (uint i = 0; i<=users[user].openAccountabilityContractAddresses.length-1; i++){... */\n      tag_400\n      jumpi\n        /* \"Contracts\":5910:5925  contractAddress */\n      dup4\n        /* \"Contracts\":5856:5925  users[user].openAccountabilityContractAddresses[i] == contractAddress */\n      0xffffffffffffffffffffffffffffffffffffffff\n      and\n        /* \"Contracts\":5856:5861  users */\n      0x00\n        /* \"Contracts\":5856:5867  users[user] */\n      dup1\n        /* \"Contracts\":5862:5866  user */\n      dup8\n        /* \"Contracts\":5856:5867  users[user] */\n      0xffffffffffffffffffffffffffffffffffffffff\n      and\n      0xffffffffffffffffffffffffffffffffffffffff\n      and\n      dup2\n      mstore\n      0x20\n      add\n      swap1\n      dup2\n      mstore\n      0x20\n      add\n      0x00\n      keccak256\n        /* \"Contracts\":5856:5903  users[user].openAccountabilityContractAddresses */\n      0x01\n      add\n        /* \"Contracts\":5904:5905  i */\n      dup3\n        /* \"Contracts\":5856:5906  users[user].openAccountabilityContractAddresses[i] */\n      dup2\n      sload\n      dup2\n      lt\n      tag_403\n      jumpi\n      tag_404\n      tag_195\n      jump\t// in\n    tag_404:\n    tag_403:\n      swap1\n      0x00\n      mstore\n      keccak256(0x00, 0x20)\n      add\n      0x00\n      swap1\n      sload\n      swap1\n      0x0100\n      exp\n      swap1\n      div\n      0xffffffffffffffffffffffffffffffffffffffff\n      and\n        /* \"Contracts\":5856:5925  users[user].openAccountabilityContractAddresses[i] == contractAddress */\n      0xffffffffffffffffffffffffffffffffffffffff\n      and\n      eq\n        /* \"Contracts\":5853:5980  if(users[user].openAccountabilityContractAddresses[i] == contractAddress){... */\n      iszero\n      tag_406\n      jumpi\n        /* \"Contracts\":5960:5961  i */\n      dup1\n        /* \"Contracts\":5944:5961  contractIndex = i */\n      swap2\n      pop\n        /* \"Contracts\":5853:5980  if(users[user].openAccountabilityContractAddresses[i] == contractAddress){... */\n    tag_406:\n        /* \"Contracts\":5835:5838  i++ */\n      dup1\n      dup1\n      tag_407\n      swap1\n      tag_200\n      jump\t// in\n    tag_407:\n      swap2\n      pop\n      pop\n        /* \"Contracts\":5757:5990  for (uint i = 0; i<=users[user].openAccountabilityContractAddresses.length-1; i++){... */\n      jump(tag_399)\n    tag_400:\n      pop\n        /* \"Contracts\":6006:6019  contractIndex */\n      dup1\n        /* \"Contracts\":5999:6019  return contractIndex */\n      swap2\n      pop\n      pop\n        /* \"Contracts\":5620:6026  function getContractIndexForUser(address user, address contractAddress) view private returns (uint){... */\n      swap3\n      swap2\n      pop\n      pop\n      jump\t// out\n        /* \"Contracts\":6759:7180  function getContractIndexForReferee(address referee, address contractAddress) view private returns (uint){... */\n    tag_352:\n        /* \"Contracts\":6859:6863  uint */\n      0x00\n        /* \"Contracts\":6874:6892  uint contractIndex */\n      dup1\n        /* \"Contracts\":6907:6913  uint i */\n      0x00\n        /* \"Contracts\":6902:7144  for (uint i = 0; i<=referees[referee].openAccountabilityContractAddresses.length-1; i++){... */\n    tag_409:\n        /* \"Contracts\":6983:6984  1 */\n      0x01\n        /* \"Contracts\":6922:6930  referees */\n      0x06\n        /* \"Contracts\":6922:6939  referees[referee] */\n      0x00\n        /* \"Contracts\":6931:6938  referee */\n      dup8\n        /* \"Contracts\":6922:6939  referees[referee] */\n      0xffffffffffffffffffffffffffffffffffffffff\n      and\n      0xffffffffffffffffffffffffffffffffffffffff\n      and\n      dup2\n      mstore\n      0x20\n      add\n      swap1\n      dup2\n      mstore\n      0x20\n      add\n      0x00\n      keccak256\n        /* \"Contracts\":6922:6975  referees[referee].openAccountabilityContractAddresses */\n      0x01\n      add\n        /* \"Contracts\":6922:6982  referees[referee].openAccountabilityContractAddresses.length */\n      dup1\n      sload\n      swap1\n      pop\n        /* \"Contracts\":6922:6984  referees[referee].openAccountabilityContractAddresses.length-1 */\n      tag_412\n      swap2\n      swap1\n      tag_185\n      jump\t// in\n    tag_412:\n        /* \"Contracts\":6919:6920  i */\n      dup2\n        /* \"Contracts\":6919:6984  i<=referees[referee].openAccountabilityContractAddresses.length-1 */\n      gt\n        /* \"Contracts\":6902:7144  for (uint i = 0; i<=referees[referee].openAccountabilityContractAddresses.length-1; i++){... */\n      tag_410\n      jumpi\n        /* \"Contracts\":7067:7082  contractAddress */\n      dup4\n        /* \"Contracts\":7007:7082  referees[referee].openAccountabilityContractAddresses[i] == contractAddress */\n      0xffffffffffffffffffffffffffffffffffffffff\n      and\n        /* \"Contracts\":7007:7015  referees */\n      0x06\n        /* \"Contracts\":7007:7024  referees[referee] */\n      0x00\n        /* \"Contracts\":7016:7023  referee */\n      dup8\n        /* \"Contracts\":7007:7024  referees[referee] */\n      0xffffffffffffffffffffffffffffffffffffffff\n      and\n      0xffffffffffffffffffffffffffffffffffffffff\n      and\n      dup2\n      mstore\n      0x20\n      add\n      swap1\n      dup2\n      mstore\n      0x20\n      add\n      0x00\n      keccak256\n        /* \"Contracts\":7007:7060  referees[referee].openAccountabilityContractAddresses */\n      0x01\n      add\n        /* \"Contracts\":7061:7062  i */\n      dup3\n        /* \"Contracts\":7007:7063  referees[referee].openAccountabilityContractAddresses[i] */\n      dup2\n      sload\n      dup2\n      lt\n      tag_413\n      jumpi\n      tag_414\n      tag_195\n      jump\t// in\n    tag_414:\n    tag_413:\n      swap1\n      0x00\n      mstore\n      keccak256(0x00, 0x20)\n      add\n      0x00\n      swap1\n      sload\n      swap1\n      0x0100\n      exp\n      swap1\n      div\n      0xffffffffffffffffffffffffffffffffffffffff\n      and\n        /* \"Contracts\":7007:7082  referees[referee].openAccountabilityContractAddresses[i] == contractAddress */\n      0xffffffffffffffffffffffffffffffffffffffff\n      and\n      eq\n        /* \"Contracts\":7004:7134  if(referees[referee].openAccountabilityContractAddresses[i] == contractAddress){... */\n      iszero\n      tag_416\n      jumpi\n        /* \"Contracts\":7118:7119  i */\n      dup1\n        /* \"Contracts\":7102:7119  contractIndex = i */\n      swap2\n      pop\n        /* \"Contracts\":7004:7134  if(referees[referee].openAccountabilityContractAddresses[i] == contractAddress){... */\n    tag_416:\n        /* \"Contracts\":6986:6989  i++ */\n      dup1\n      dup1\n      tag_417\n      swap1\n      tag_200\n      jump\t// in\n    tag_417:\n      swap2\n      pop\n      pop\n        /* \"Contracts\":6902:7144  for (uint i = 0; i<=referees[referee].openAccountabilityContractAddresses.length-1; i++){... */\n      jump(tag_409)\n    tag_410:\n      pop\n        /* \"Contracts\":7160:7173  contractIndex */\n      dup1\n        /* \"Contracts\":7153:7173  return contractIndex */\n      swap2\n      pop\n      pop\n        /* \"Contracts\":6759:7180  function getContractIndexForReferee(address referee, address contractAddress) view private returns (uint){... */\n      swap3\n      swap2\n      pop\n      pop\n      jump\t// out\n    tag_299:\n      dataSize(sub_0)\n      dup1\n      dataOffset(sub_0)\n      dup4\n      codecopy\n      add\n      swap1\n      jump\t// out\n    tag_314:\n      dataSize(sub_1)\n      dup1\n      dataOffset(sub_1)\n      dup4\n      codecopy\n      add\n      swap1\n      jump\t// out\n        /* \"#utility.yul\":7:82   */\n    tag_418:\n        /* \"#utility.yul\":40:46   */\n      0x00\n        /* \"#utility.yul\":73:75   */\n      0x40\n        /* \"#utility.yul\":67:76   */\n      mload\n        /* \"#utility.yul\":57:76   */\n      swap1\n      pop\n        /* \"#utility.yul\":7:82   */\n      swap1\n      jump\t// out\n        /* \"#utility.yul\":88:205   */\n    tag_419:\n        /* \"#utility.yul\":197:198   */\n      0x00\n        /* \"#utility.yul\":194:195   */\n      dup1\n        /* \"#utility.yul\":187:199   */\n      revert\n        /* \"#utility.yul\":211:328   */\n    tag_420:\n        /* \"#utility.yul\":320:321   */\n      0x00\n        /* \"#utility.yul\":317:318   */\n      dup1\n        /* \"#utility.yul\":310:322   */\n      revert\n        /* \"#utility.yul\":334:460   */\n    tag_421:\n        /* \"#utility.yul\":371:378   */\n      0x00\n        /* \"#utility.yul\":411:453   */\n      0xffffffffffffffffffffffffffffffffffffffff\n        /* \"#utility.yul\":404:409   */\n      dup3\n        /* \"#utility.yul\":400:454   */\n      and\n        /* \"#utility.yul\":389:454   */\n      swap1\n      pop\n        /* \"#utility.yul\":334:460   */\n      swap2\n      swap1\n      pop\n      jump\t// out\n        /* \"#utility.yul\":466:562   */\n    tag_422:\n        /* \"#utility.yul\":503:510   */\n      0x00\n        /* \"#utility.yul\":532:556   */\n      tag_486\n        /* \"#utility.yul\":550:555   */\n      dup3\n        /* \"#utility.yul\":532:556   */\n      tag_421\n      jump\t// in\n    tag_486:\n        /* \"#utility.yul\":521:556   */\n      swap1\n      pop\n        /* \"#utility.yul\":466:562   */\n      swap2\n      swap1\n      pop\n      jump\t// out\n        /* \"#utility.yul\":568:690   */\n    tag_423:\n        /* \"#utility.yul\":641:665   */\n      tag_488\n        /* \"#utility.yul\":659:664   */\n      dup2\n        /* \"#utility.yul\":641:665   */\n      tag_422\n      jump\t// in\n    tag_488:\n        /* \"#utility.yul\":634:639   */\n      dup2\n        /* \"#utility.yul\":631:666   */\n      eq\n        /* \"#utility.yul\":621:684   */\n      tag_489\n      jumpi\n        /* \"#utility.yul\":680:681   */\n      0x00\n        /* \"#utility.yul\":677:678   */\n      dup1\n        /* \"#utility.yul\":670:682   */\n      revert\n        /* \"#utility.yul\":621:684   */\n    tag_489:\n        /* \"#utility.yul\":568:690   */\n      pop\n      jump\t// out\n        /* \"#utility.yul\":696:835   */\n    tag_424:\n        /* \"#utility.yul\":742:747   */\n      0x00\n        /* \"#utility.yul\":780:786   */\n      dup2\n        /* \"#utility.yul\":767:787   */\n      calldataload\n        /* \"#utility.yul\":758:787   */\n      swap1\n      pop\n        /* \"#utility.yul\":796:829   */\n      tag_491\n        /* \"#utility.yul\":823:828   */\n      dup2\n        /* \"#utility.yul\":796:829   */\n      tag_423\n      jump\t// in\n    tag_491:\n        /* \"#utility.yul\":696:835   */\n      swap3\n      swap2\n      pop\n      pop\n      jump\t// out\n        /* \"#utility.yul\":841:1170   */\n    tag_30:\n        /* \"#utility.yul\":900:906   */\n      0x00\n        /* \"#utility.yul\":949:951   */\n      0x20\n        /* \"#utility.yul\":937:946   */\n      dup3\n        /* \"#utility.yul\":928:935   */\n      dup5\n        /* \"#utility.yul\":924:947   */\n      sub\n        /* \"#utility.yul\":920:952   */\n      slt\n        /* \"#utility.yul\":917:1036   */\n      iszero\n      tag_493\n      jumpi\n        /* \"#utility.yul\":955:1034   */\n      tag_494\n      tag_419\n      jump\t// in\n    tag_494:\n        /* \"#utility.yul\":917:1036   */\n    tag_493:\n        /* \"#utility.yul\":1075:1076   */\n      0x00\n        /* \"#utility.yul\":1100:1153   */\n      tag_495\n        /* \"#utility.yul\":1145:1152   */\n      dup5\n        /* \"#utility.yul\":1136:1142   */\n      dup3\n        /* \"#utility.yul\":1125:1134   */\n      dup6\n        /* \"#utility.yul\":1121:1143   */\n      add\n        /* \"#utility.yul\":1100:1153   */\n      tag_424\n      jump\t// in\n    tag_495:\n        /* \"#utility.yul\":1090:1153   */\n      swap2\n      pop\n        /* \"#utility.yul\":1046:1163   */\n      pop\n        /* \"#utility.yul\":841:1170   */\n      swap3\n      swap2\n      pop\n      pop\n      jump\t// out\n        /* \"#utility.yul\":1176:1253   */\n    tag_425:\n        /* \"#utility.yul\":1213:1220   */\n      0x00\n        /* \"#utility.yul\":1242:1247   */\n      dup2\n        /* \"#utility.yul\":1231:1247   */\n      swap1\n      pop\n        /* \"#utility.yul\":1176:1253   */\n      swap2\n      swap1\n      pop\n      jump\t// out\n        /* \"#utility.yul\":1259:1381   */\n    tag_426:\n        /* \"#utility.yul\":1332:1356   */\n      tag_498\n        /* \"#utility.yul\":1350:1355   */\n      dup2\n        /* \"#utility.yul\":1332:1356   */\n      tag_425\n      jump\t// in\n    tag_498:\n        /* \"#utility.yul\":1325:1330   */\n      dup2\n        /* \"#utility.yul\":1322:1357   */\n      eq\n        /* \"#utility.yul\":1312:1375   */\n      tag_499\n      jumpi\n        /* \"#utility.yul\":1371:1372   */\n      0x00\n        /* \"#utility.yul\":1368:1369   */\n      dup1\n        /* \"#utility.yul\":1361:1373   */\n      revert\n        /* \"#utility.yul\":1312:1375   */\n    tag_499:\n        /* \"#utility.yul\":1259:1381   */\n      pop\n      jump\t// out\n        /* \"#utility.yul\":1387:1526   */\n    tag_427:\n        /* \"#utility.yul\":1433:1438   */\n      0x00\n        /* \"#utility.yul\":1471:1477   */\n      dup2\n        /* \"#utility.yul\":1458:1478   */\n      calldataload\n        /* \"#utility.yul\":1449:1478   */\n      swap1\n      pop\n        /* \"#utility.yul\":1487:1520   */\n      tag_501\n        /* \"#utility.yul\":1514:1519   */\n      dup2\n        /* \"#utility.yul\":1487:1520   */\n      tag_426\n      jump\t// in\n    tag_501:\n        /* \"#utility.yul\":1387:1526   */\n      swap3\n      swap2\n      pop\n      pop\n      jump\t// out\n        /* \"#utility.yul\":1532:2006   */\n    tag_35:\n        /* \"#utility.yul\":1600:1606   */\n      0x00\n        /* \"#utility.yul\":1608:1614   */\n      dup1\n        /* \"#utility.yul\":1657:1659   */\n      0x40\n        /* \"#utility.yul\":1645:1654   */\n      dup4\n        /* \"#utility.yul\":1636:1643   */\n      dup6\n        /* \"#utility.yul\":1632:1655   */\n      sub\n        /* \"#utility.yul\":1628:1660   */\n      slt\n        /* \"#utility.yul\":1625:1744   */\n      iszero\n      tag_503\n      jumpi\n        /* \"#utility.yul\":1663:1742   */\n      tag_504\n      tag_419\n      jump\t// in\n    tag_504:\n        /* \"#utility.yul\":1625:1744   */\n    tag_503:\n        /* \"#utility.yul\":1783:1784   */\n      0x00\n        /* \"#utility.yul\":1808:1861   */\n      tag_505\n        /* \"#utility.yul\":1853:1860   */\n      dup6\n        /* \"#utility.yul\":1844:1850   */\n      dup3\n        /* \"#utility.yul\":1833:1842   */\n      dup7\n        /* \"#utility.yul\":1829:1851   */\n      add\n        /* \"#utility.yul\":1808:1861   */\n      tag_427\n      jump\t// in\n    tag_505:\n        /* \"#utility.yul\":1798:1861   */\n      swap3\n      pop\n        /* \"#utility.yul\":1754:1871   */\n      pop\n        /* \"#utility.yul\":1910:1912   */\n      0x20\n        /* \"#utility.yul\":1936:1989   */\n      tag_506\n        /* \"#utility.yul\":1981:1988   */\n      dup6\n        /* \"#utility.yul\":1972:1978   */\n      dup3\n        /* \"#utility.yul\":1961:1970   */\n      dup7\n        /* \"#utility.yul\":1957:1979   */\n      add\n        /* \"#utility.yul\":1936:1989   */\n      tag_427\n      jump\t// in\n    tag_506:\n        /* \"#utility.yul\":1926:1989   */\n      swap2\n      pop\n        /* \"#utility.yul\":1881:1999   */\n      pop\n        /* \"#utility.yul\":1532:2006   */\n      swap3\n      pop\n      swap3\n      swap1\n      pop\n      jump\t// out\n        /* \"#utility.yul\":2012:2126   */\n    tag_428:\n        /* \"#utility.yul\":2079:2085   */\n      0x00\n        /* \"#utility.yul\":2113:2118   */\n      dup2\n        /* \"#utility.yul\":2107:2119   */\n      mload\n        /* \"#utility.yul\":2097:2119   */\n      swap1\n      pop\n        /* \"#utility.yul\":2012:2126   */\n      swap2\n      swap1\n      pop\n      jump\t// out\n        /* \"#utility.yul\":2132:2316   */\n    tag_429:\n        /* \"#utility.yul\":2231:2242   */\n      0x00\n        /* \"#utility.yul\":2265:2271   */\n      dup3\n        /* \"#utility.yul\":2260:2263   */\n      dup3\n        /* \"#utility.yul\":2253:2272   */\n      mstore\n        /* \"#utility.yul\":2305:2309   */\n      0x20\n        /* \"#utility.yul\":2300:2303   */\n      dup3\n        /* \"#utility.yul\":2296:2310   */\n      add\n        /* \"#utility.yul\":2281:2310   */\n      swap1\n      pop\n        /* \"#utility.yul\":2132:2316   */\n      swap3\n      swap2\n      pop\n      pop\n      jump\t// out\n        /* \"#utility.yul\":2322:2454   */\n    tag_430:\n        /* \"#utility.yul\":2389:2393   */\n      0x00\n        /* \"#utility.yul\":2412:2415   */\n      dup2\n        /* \"#utility.yul\":2404:2415   */\n      swap1\n      pop\n        /* \"#utility.yul\":2442:2446   */\n      0x20\n        /* \"#utility.yul\":2437:2440   */\n      dup3\n        /* \"#utility.yul\":2433:2447   */\n      add\n        /* \"#utility.yul\":2425:2447   */\n      swap1\n      pop\n        /* \"#utility.yul\":2322:2454   */\n      swap2\n      swap1\n      pop\n      jump\t// out\n        /* \"#utility.yul\":2460:2568   */\n    tag_431:\n        /* \"#utility.yul\":2537:2561   */\n      tag_511\n        /* \"#utility.yul\":2555:2560   */\n      dup2\n        /* \"#utility.yul\":2537:2561   */\n      tag_422\n      jump\t// in\n    tag_511:\n        /* \"#utility.yul\":2532:2535   */\n      dup3\n        /* \"#utility.yul\":2525:2562   */\n      mstore\n        /* \"#utility.yul\":2460:2568   */\n      pop\n      pop\n      jump\t// out\n        /* \"#utility.yul\":2574:2753   */\n    tag_432:\n        /* \"#utility.yul\":2643:2653   */\n      0x00\n        /* \"#utility.yul\":2664:2710   */\n      tag_513\n        /* \"#utility.yul\":2706:2709   */\n      dup4\n        /* \"#utility.yul\":2698:2704   */\n      dup4\n        /* \"#utility.yul\":2664:2710   */\n      tag_431\n      jump\t// in\n    tag_513:\n        /* \"#utility.yul\":2742:2746   */\n      0x20\n        /* \"#utility.yul\":2737:2740   */\n      dup4\n        /* \"#utility.yul\":2733:2747   */\n      add\n        /* \"#utility.yul\":2719:2747   */\n      swap1\n      pop\n        /* \"#utility.yul\":2574:2753   */\n      swap3\n      swap2\n      pop\n      pop\n      jump\t// out\n        /* \"#utility.yul\":2759:2872   */\n    tag_433:\n        /* \"#utility.yul\":2829:2833   */\n      0x00\n        /* \"#utility.yul\":2861:2865   */\n      0x20\n        /* \"#utility.yul\":2856:2859   */\n      dup3\n        /* \"#utility.yul\":2852:2866   */\n      add\n        /* \"#utility.yul\":2844:2866   */\n      swap1\n      pop\n        /* \"#utility.yul\":2759:2872   */\n      swap2\n      swap1\n      pop\n      jump\t// out\n        /* \"#utility.yul\":2908:3640   */\n    tag_434:\n        /* \"#utility.yul\":3027:3030   */\n      0x00\n        /* \"#utility.yul\":3056:3110   */\n      tag_516\n        /* \"#utility.yul\":3104:3109   */\n      dup3\n        /* \"#utility.yul\":3056:3110   */\n      tag_428\n      jump\t// in\n    tag_516:\n        /* \"#utility.yul\":3126:3212   */\n      tag_517\n        /* \"#utility.yul\":3205:3211   */\n      dup2\n        /* \"#utility.yul\":3200:3203   */\n      dup6\n        /* \"#utility.yul\":3126:3212   */\n      tag_429\n      jump\t// in\n    tag_517:\n        /* \"#utility.yul\":3119:3212   */\n      swap4\n      pop\n        /* \"#utility.yul\":3236:3292   */\n      tag_518\n        /* \"#utility.yul\":3286:3291   */\n      dup4\n        /* \"#utility.yul\":3236:3292   */\n      tag_430\n      jump\t// in\n    tag_518:\n        /* \"#utility.yul\":3315:3322   */\n      dup1\n        /* \"#utility.yul\":3346:3347   */\n      0x00\n        /* \"#utility.yul\":3331:3615   */\n    tag_519:\n        /* \"#utility.yul\":3356:3362   */\n      dup4\n        /* \"#utility.yul\":3353:3354   */\n      dup2\n        /* \"#utility.yul\":3350:3363   */\n      lt\n        /* \"#utility.yul\":3331:3615   */\n      iszero\n      tag_521\n      jumpi\n        /* \"#utility.yul\":3432:3438   */\n      dup2\n        /* \"#utility.yul\":3426:3439   */\n      mload\n        /* \"#utility.yul\":3459:3522   */\n      tag_522\n        /* \"#utility.yul\":3518:3521   */\n      dup9\n        /* \"#utility.yul\":3503:3516   */\n      dup3\n        /* \"#utility.yul\":3459:3522   */\n      tag_432\n      jump\t// in\n    tag_522:\n        /* \"#utility.yul\":3452:3522   */\n      swap8\n      pop\n        /* \"#utility.yul\":3545:3605   */\n      tag_523\n        /* \"#utility.yul\":3598:3604   */\n      dup4\n        /* \"#utility.yul\":3545:3605   */\n      tag_433\n      jump\t// in\n    tag_523:\n        /* \"#utility.yul\":3535:3605   */\n      swap3\n      pop\n        /* \"#utility.yul\":3391:3615   */\n      pop\n        /* \"#utility.yul\":3378:3379   */\n      0x01\n        /* \"#utility.yul\":3375:3376   */\n      dup2\n        /* \"#utility.yul\":3371:3380   */\n      add\n        /* \"#utility.yul\":3366:3380   */\n      swap1\n      pop\n        /* \"#utility.yul\":3331:3615   */\n      jump(tag_519)\n    tag_521:\n        /* \"#utility.yul\":3335:3349   */\n      pop\n        /* \"#utility.yul\":3631:3634   */\n      dup6\n        /* \"#utility.yul\":3624:3634   */\n      swap4\n      pop\n        /* \"#utility.yul\":3032:3640   */\n      pop\n      pop\n      pop\n        /* \"#utility.yul\":2908:3640   */\n      swap3\n      swap2\n      pop\n      pop\n      jump\t// out\n        /* \"#utility.yul\":3646:4019   */\n    tag_38:\n        /* \"#utility.yul\":3789:3793   */\n      0x00\n        /* \"#utility.yul\":3827:3829   */\n      0x20\n        /* \"#utility.yul\":3816:3825   */\n      dup3\n        /* \"#utility.yul\":3812:3830   */\n      add\n        /* \"#utility.yul\":3804:3830   */\n      swap1\n      pop\n        /* \"#utility.yul\":3876:3885   */\n      dup2\n        /* \"#utility.yul\":3870:3874   */\n      dup2\n        /* \"#utility.yul\":3866:3886   */\n      sub\n        /* \"#utility.yul\":3862:3863   */\n      0x00\n        /* \"#utility.yul\":3851:3860   */\n      dup4\n        /* \"#utility.yul\":3847:3864   */\n      add\n        /* \"#utility.yul\":3840:3887   */\n      mstore\n        /* \"#utility.yul\":3904:4012   */\n      tag_525\n        /* \"#utility.yul\":4007:4011   */\n      dup2\n        /* \"#utility.yul\":3998:4004   */\n      dup5\n        /* \"#utility.yul\":3904:4012   */\n      tag_434\n      jump\t// in\n    tag_525:\n        /* \"#utility.yul\":3896:4012   */\n      swap1\n      pop\n        /* \"#utility.yul\":3646:4019   */\n      swap3\n      swap2\n      pop\n      pop\n      jump\t// out\n        /* \"#utility.yul\":4025:4354   */\n    tag_47:\n        /* \"#utility.yul\":4084:4090   */\n      0x00\n        /* \"#utility.yul\":4133:4135   */\n      0x20\n        /* \"#utility.yul\":4121:4130   */\n      dup3\n        /* \"#utility.yul\":4112:4119   */\n      dup5\n        /* \"#utility.yul\":4108:4131   */\n      sub\n        /* \"#utility.yul\":4104:4136   */\n      slt\n        /* \"#utility.yul\":4101:4220   */\n      iszero\n      tag_527\n      jumpi\n        /* \"#utility.yul\":4139:4218   */\n      tag_528\n      tag_419\n      jump\t// in\n    tag_528:\n        /* \"#utility.yul\":4101:4220   */\n    tag_527:\n        /* \"#utility.yul\":4259:4260   */\n      0x00\n        /* \"#utility.yul\":4284:4337   */\n      tag_529\n        /* \"#utility.yul\":4329:4336   */\n      dup5\n        /* \"#utility.yul\":4320:4326   */\n      dup3\n        /* \"#utility.yul\":4309:4318   */\n      dup6\n        /* \"#utility.yul\":4305:4327   */\n      add\n        /* \"#utility.yul\":4284:4337   */\n      tag_427\n      jump\t// in\n    tag_529:\n        /* \"#utility.yul\":4274:4337   */\n      swap2\n      pop\n        /* \"#utility.yul\":4230:4347   */\n      pop\n        /* \"#utility.yul\":4025:4354   */\n      swap3\n      swap2\n      pop\n      pop\n      jump\t// out\n        /* \"#utility.yul\":4360:4478   */\n    tag_435:\n        /* \"#utility.yul\":4447:4471   */\n      tag_531\n        /* \"#utility.yul\":4465:4470   */\n      dup2\n        /* \"#utility.yul\":4447:4471   */\n      tag_422\n      jump\t// in\n    tag_531:\n        /* \"#utility.yul\":4442:4445   */\n      dup3\n        /* \"#utility.yul\":4435:4472   */\n      mstore\n        /* \"#utility.yul\":4360:4478   */\n      pop\n      pop\n      jump\t// out\n        /* \"#utility.yul\":4484:4706   */\n    tag_50:\n        /* \"#utility.yul\":4577:4581   */\n      0x00\n        /* \"#utility.yul\":4615:4617   */\n      0x20\n        /* \"#utility.yul\":4604:4613   */\n      dup3\n        /* \"#utility.yul\":4600:4618   */\n      add\n        /* \"#utility.yul\":4592:4618   */\n      swap1\n      pop\n        /* \"#utility.yul\":4628:4699   */\n      tag_533\n        /* \"#utility.yul\":4696:4697   */\n      0x00\n        /* \"#utility.yul\":4685:4694   */\n      dup4\n        /* \"#utility.yul\":4681:4698   */\n      add\n        /* \"#utility.yul\":4672:4678   */\n      dup5\n        /* \"#utility.yul\":4628:4699   */\n      tag_435\n      jump\t// in\n    tag_533:\n        /* \"#utility.yul\":4484:4706   */\n      swap3\n      swap2\n      pop\n      pop\n      jump\t// out\n        /* \"#utility.yul\":4712:4830   */\n    tag_436:\n        /* \"#utility.yul\":4799:4823   */\n      tag_535\n        /* \"#utility.yul\":4817:4822   */\n      dup2\n        /* \"#utility.yul\":4799:4823   */\n      tag_425\n      jump\t// in\n    tag_535:\n        /* \"#utility.yul\":4794:4797   */\n      dup3\n        /* \"#utility.yul\":4787:4824   */\n      mstore\n        /* \"#utility.yul\":4712:4830   */\n      pop\n      pop\n      jump\t// out\n        /* \"#utility.yul\":4836:5058   */\n    tag_65:\n        /* \"#utility.yul\":4929:4933   */\n      0x00\n        /* \"#utility.yul\":4967:4969   */\n      0x20\n        /* \"#utility.yul\":4956:4965   */\n      dup3\n        /* \"#utility.yul\":4952:4970   */\n      add\n        /* \"#utility.yul\":4944:4970   */\n      swap1\n      pop\n        /* \"#utility.yul\":4980:5051   */\n      tag_537\n        /* \"#utility.yul\":5048:5049   */\n      0x00\n        /* \"#utility.yul\":5037:5046   */\n      dup4\n        /* \"#utility.yul\":5033:5050   */\n      add\n        /* \"#utility.yul\":5024:5030   */\n      dup5\n        /* \"#utility.yul\":4980:5051   */\n      tag_436\n      jump\t// in\n    tag_537:\n        /* \"#utility.yul\":4836:5058   */\n      swap3\n      swap2\n      pop\n      pop\n      jump\t// out\n        /* \"#utility.yul\":5064:5181   */\n    tag_437:\n        /* \"#utility.yul\":5173:5174   */\n      0x00\n        /* \"#utility.yul\":5170:5171   */\n      dup1\n        /* \"#utility.yul\":5163:5175   */\n      revert\n        /* \"#utility.yul\":5187:5304   */\n    tag_438:\n        /* \"#utility.yul\":5296:5297   */\n      0x00\n        /* \"#utility.yul\":5293:5294   */\n      dup1\n        /* \"#utility.yul\":5286:5298   */\n      revert\n        /* \"#utility.yul\":5310:5412   */\n    tag_439:\n        /* \"#utility.yul\":5351:5357   */\n      0x00\n        /* \"#utility.yul\":5402:5404   */\n      0x1f\n        /* \"#utility.yul\":5398:5405   */\n      not\n        /* \"#utility.yul\":5393:5395   */\n      0x1f\n        /* \"#utility.yul\":5386:5391   */\n      dup4\n        /* \"#utility.yul\":5382:5396   */\n      add\n        /* \"#utility.yul\":5378:5406   */\n      and\n        /* \"#utility.yul\":5368:5406   */\n      swap1\n      pop\n        /* \"#utility.yul\":5310:5412   */\n      swap2\n      swap1\n      pop\n      jump\t// out\n        /* \"#utility.yul\":5418:5598   */\n    tag_188:\n        /* \"#utility.yul\":5466:5543   */\n      0x4e487b7100000000000000000000000000000000000000000000000000000000\n        /* \"#utility.yul\":5463:5464   */\n      0x00\n        /* \"#utility.yul\":5456:5544   */\n      mstore\n        /* \"#utility.yul\":5563:5567   */\n      0x41\n        /* \"#utility.yul\":5560:5561   */\n      0x04\n        /* \"#utility.yul\":5553:5568   */\n      mstore\n        /* \"#utility.yul\":5587:5591   */\n      0x24\n        /* \"#utility.yul\":5584:5585   */\n      0x00\n        /* \"#utility.yul\":5577:5592   */\n      revert\n        /* \"#utility.yul\":5604:5885   */\n    tag_440:\n        /* \"#utility.yul\":5687:5714   */\n      tag_543\n        /* \"#utility.yul\":5709:5713   */\n      dup3\n        /* \"#utility.yul\":5687:5714   */\n      tag_439\n      jump\t// in\n    tag_543:\n        /* \"#utility.yul\":5679:5685   */\n      dup2\n        /* \"#utility.yul\":5675:5715   */\n      add\n        /* \"#utility.yul\":5817:5823   */\n      dup2\n        /* \"#utility.yul\":5805:5815   */\n      dup2\n        /* \"#utility.yul\":5802:5824   */\n      lt\n        /* \"#utility.yul\":5781:5799   */\n      0xffffffffffffffff\n        /* \"#utility.yul\":5769:5779   */\n      dup3\n        /* \"#utility.yul\":5766:5800   */\n      gt\n        /* \"#utility.yul\":5763:5825   */\n      or\n        /* \"#utility.yul\":5760:5848   */\n      iszero\n      tag_544\n      jumpi\n        /* \"#utility.yul\":5828:5846   */\n      tag_545\n      tag_188\n      jump\t// in\n    tag_545:\n        /* \"#utility.yul\":5760:5848   */\n    tag_544:\n        /* \"#utility.yul\":5868:5878   */\n      dup1\n        /* \"#utility.yul\":5864:5866   */\n      0x40\n        /* \"#utility.yul\":5857:5879   */\n      mstore\n        /* \"#utility.yul\":5647:5885   */\n      pop\n        /* \"#utility.yul\":5604:5885   */\n      pop\n      pop\n      jump\t// out\n        /* \"#utility.yul\":5891:6020   */\n    tag_441:\n        /* \"#utility.yul\":5925:5931   */\n      0x00\n        /* \"#utility.yul\":5952:5972   */\n      tag_547\n      tag_418\n      jump\t// in\n    tag_547:\n        /* \"#utility.yul\":5942:5972   */\n      swap1\n      pop\n        /* \"#utility.yul\":5981:6014   */\n      tag_548\n        /* \"#utility.yul\":6009:6013   */\n      dup3\n        /* \"#utility.yul\":6001:6007   */\n      dup3\n        /* \"#utility.yul\":5981:6014   */\n      tag_440\n      jump\t// in\n    tag_548:\n        /* \"#utility.yul\":5891:6020   */\n      swap2\n      swap1\n      pop\n      jump\t// out\n        /* \"#utility.yul\":6026:6334   */\n    tag_442:\n        /* \"#utility.yul\":6088:6092   */\n      0x00\n        /* \"#utility.yul\":6178:6196   */\n      0xffffffffffffffff\n        /* \"#utility.yul\":6170:6176   */\n      dup3\n        /* \"#utility.yul\":6167:6197   */\n      gt\n        /* \"#utility.yul\":6164:6220   */\n      iszero\n      tag_550\n      jumpi\n        /* \"#utility.yul\":6200:6218   */\n      tag_551\n      tag_188\n      jump\t// in\n    tag_551:\n        /* \"#utility.yul\":6164:6220   */\n    tag_550:\n        /* \"#utility.yul\":6238:6267   */\n      tag_552\n        /* \"#utility.yul\":6260:6266   */\n      dup3\n        /* \"#utility.yul\":6238:6267   */\n      tag_439\n      jump\t// in\n    tag_552:\n        /* \"#utility.yul\":6230:6267   */\n      swap1\n      pop\n        /* \"#utility.yul\":6322:6326   */\n      0x20\n        /* \"#utility.yul\":6316:6320   */\n      dup2\n        /* \"#utility.yul\":6312:6327   */\n      add\n        /* \"#utility.yul\":6304:6327   */\n      swap1\n      pop\n        /* \"#utility.yul\":6026:6334   */\n      swap2\n      swap1\n      pop\n      jump\t// out\n        /* \"#utility.yul\":6340:6494   */\n    tag_443:\n        /* \"#utility.yul\":6424:6430   */\n      dup3\n        /* \"#utility.yul\":6419:6422   */\n      dup2\n        /* \"#utility.yul\":6414:6417   */\n      dup4\n        /* \"#utility.yul\":6401:6431   */\n      calldatacopy\n        /* \"#utility.yul\":6486:6487   */\n      0x00\n        /* \"#utility.yul\":6477:6483   */\n      dup4\n        /* \"#utility.yul\":6472:6475   */\n      dup4\n        /* \"#utility.yul\":6468:6484   */\n      add\n        /* \"#utility.yul\":6461:6488   */\n      mstore\n        /* \"#utility.yul\":6340:6494   */\n      pop\n      pop\n      pop\n      jump\t// out\n        /* \"#utility.yul\":6500:6912   */\n    tag_444:\n        /* \"#utility.yul\":6578:6583   */\n      0x00\n        /* \"#utility.yul\":6603:6669   */\n      tag_555\n        /* \"#utility.yul\":6619:6668   */\n      tag_556\n        /* \"#utility.yul\":6661:6667   */\n      dup5\n        /* \"#utility.yul\":6619:6668   */\n      tag_442\n      jump\t// in\n    tag_556:\n        /* \"#utility.yul\":6603:6669   */\n      tag_441\n      jump\t// in\n    tag_555:\n        /* \"#utility.yul\":6594:6669   */\n      swap1\n      pop\n        /* \"#utility.yul\":6692:6698   */\n      dup3\n        /* \"#utility.yul\":6685:6690   */\n      dup2\n        /* \"#utility.yul\":6678:6699   */\n      mstore\n        /* \"#utility.yul\":6730:6734   */\n      0x20\n        /* \"#utility.yul\":6723:6728   */\n      dup2\n        /* \"#utility.yul\":6719:6735   */\n      add\n        /* \"#utility.yul\":6768:6771   */\n      dup5\n        /* \"#utility.yul\":6759:6765   */\n      dup5\n        /* \"#utility.yul\":6754:6757   */\n      dup5\n        /* \"#utility.yul\":6750:6766   */\n      add\n        /* \"#utility.yul\":6747:6772   */\n      gt\n        /* \"#utility.yul\":6744:6856   */\n      iszero\n      tag_557\n      jumpi\n        /* \"#utility.yul\":6775:6854   */\n      tag_558\n      tag_438\n      jump\t// in\n    tag_558:\n        /* \"#utility.yul\":6744:6856   */\n    tag_557:\n        /* \"#utility.yul\":6865:6906   */\n      tag_559\n        /* \"#utility.yul\":6899:6905   */\n      dup5\n        /* \"#utility.yul\":6894:6897   */\n      dup3\n        /* \"#utility.yul\":6889:6892   */\n      dup6\n        /* \"#utility.yul\":6865:6906   */\n      tag_443\n      jump\t// in\n    tag_559:\n        /* \"#utility.yul\":6584:6912   */\n      pop\n        /* \"#utility.yul\":6500:6912   */\n      swap4\n      swap3\n      pop\n      pop\n      pop\n      jump\t// out\n        /* \"#utility.yul\":6932:7272   */\n    tag_445:\n        /* \"#utility.yul\":6988:6993   */\n      0x00\n        /* \"#utility.yul\":7037:7040   */\n      dup3\n        /* \"#utility.yul\":7030:7034   */\n      0x1f\n        /* \"#utility.yul\":7022:7028   */\n      dup4\n        /* \"#utility.yul\":7018:7035   */\n      add\n        /* \"#utility.yul\":7014:7041   */\n      slt\n        /* \"#utility.yul\":7004:7126   */\n      tag_561\n      jumpi\n        /* \"#utility.yul\":7045:7124   */\n      tag_562\n      tag_437\n      jump\t// in\n    tag_562:\n        /* \"#utility.yul\":7004:7126   */\n    tag_561:\n        /* \"#utility.yul\":7162:7168   */\n      dup2\n        /* \"#utility.yul\":7149:7169   */\n      calldataload\n        /* \"#utility.yul\":7187:7266   */\n      tag_563\n        /* \"#utility.yul\":7262:7265   */\n      dup5\n        /* \"#utility.yul\":7254:7260   */\n      dup3\n        /* \"#utility.yul\":7247:7251   */\n      0x20\n        /* \"#utility.yul\":7239:7245   */\n      dup7\n        /* \"#utility.yul\":7235:7252   */\n      add\n        /* \"#utility.yul\":7187:7266   */\n      tag_444\n      jump\t// in\n    tag_563:\n        /* \"#utility.yul\":7178:7266   */\n      swap2\n      pop\n        /* \"#utility.yul\":6994:7272   */\n      pop\n        /* \"#utility.yul\":6932:7272   */\n      swap3\n      swap2\n      pop\n      pop\n      jump\t// out\n        /* \"#utility.yul\":7278:7932   */\n    tag_120:\n        /* \"#utility.yul\":7356:7362   */\n      0x00\n        /* \"#utility.yul\":7364:7370   */\n      dup1\n        /* \"#utility.yul\":7413:7415   */\n      0x40\n        /* \"#utility.yul\":7401:7410   */\n      dup4\n        /* \"#utility.yul\":7392:7399   */\n      dup6\n        /* \"#utility.yul\":7388:7411   */\n      sub\n        /* \"#utility.yul\":7384:7416   */\n      slt\n        /* \"#utility.yul\":7381:7500   */\n      iszero\n      tag_565\n      jumpi\n        /* \"#utility.yul\":7419:7498   */\n      tag_566\n      tag_419\n      jump\t// in\n    tag_566:\n        /* \"#utility.yul\":7381:7500   */\n    tag_565:\n        /* \"#utility.yul\":7539:7540   */\n      0x00\n        /* \"#utility.yul\":7564:7617   */\n      tag_567\n        /* \"#utility.yul\":7609:7616   */\n      dup6\n        /* \"#utility.yul\":7600:7606   */\n      dup3\n        /* \"#utility.yul\":7589:7598   */\n      dup7\n        /* \"#utility.yul\":7585:7607   */\n      add\n        /* \"#utility.yul\":7564:7617   */\n      tag_424\n      jump\t// in\n    tag_567:\n        /* \"#utility.yul\":7554:7617   */\n      swap3\n      pop\n        /* \"#utility.yul\":7510:7627   */\n      pop\n        /* \"#utility.yul\":7694:7696   */\n      0x20\n        /* \"#utility.yul\":7683:7692   */\n      dup4\n        /* \"#utility.yul\":7679:7697   */\n      add\n        /* \"#utility.yul\":7666:7698   */\n      calldataload\n        /* \"#utility.yul\":7725:7743   */\n      0xffffffffffffffff\n        /* \"#utility.yul\":7717:7723   */\n      dup2\n        /* \"#utility.yul\":7714:7744   */\n      gt\n        /* \"#utility.yul\":7711:7828   */\n      iszero\n      tag_568\n      jumpi\n        /* \"#utility.yul\":7747:7826   */\n      tag_569\n      tag_420\n      jump\t// in\n    tag_569:\n        /* \"#utility.yul\":7711:7828   */\n    tag_568:\n        /* \"#utility.yul\":7852:7915   */\n      tag_570\n        /* \"#utility.yul\":7907:7914   */\n      dup6\n        /* \"#utility.yul\":7898:7904   */\n      dup3\n        /* \"#utility.yul\":7887:7896   */\n      dup7\n        /* \"#utility.yul\":7883:7905   */\n      add\n        /* \"#utility.yul\":7852:7915   */\n      tag_445\n      jump\t// in\n    tag_570:\n        /* \"#utility.yul\":7842:7915   */\n      swap2\n      pop\n        /* \"#utility.yul\":7637:7925   */\n      pop\n        /* \"#utility.yul\":7278:7932   */\n      swap3\n      pop\n      swap3\n      swap1\n      pop\n      jump\t// out\n        /* \"#utility.yul\":7938:8042   */\n    tag_446:\n        /* \"#utility.yul\":7983:7990   */\n      0x00\n        /* \"#utility.yul\":8012:8036   */\n      tag_572\n        /* \"#utility.yul\":8030:8035   */\n      dup3\n        /* \"#utility.yul\":8012:8036   */\n      tag_421\n      jump\t// in\n    tag_572:\n        /* \"#utility.yul\":8001:8036   */\n      swap1\n      pop\n        /* \"#utility.yul\":7938:8042   */\n      swap2\n      swap1\n      pop\n      jump\t// out\n        /* \"#utility.yul\":8048:8186   */\n    tag_447:\n        /* \"#utility.yul\":8129:8161   */\n      tag_574\n        /* \"#utility.yul\":8155:8160   */\n      dup2\n        /* \"#utility.yul\":8129:8161   */\n      tag_446\n      jump\t// in\n    tag_574:\n        /* \"#utility.yul\":8122:8127   */\n      dup2\n        /* \"#utility.yul\":8119:8162   */\n      eq\n        /* \"#utility.yul\":8109:8180   */\n      tag_575\n      jumpi\n        /* \"#utility.yul\":8176:8177   */\n      0x00\n        /* \"#utility.yul\":8173:8174   */\n      dup1\n        /* \"#utility.yul\":8166:8178   */\n      revert\n        /* \"#utility.yul\":8109:8180   */\n    tag_575:\n        /* \"#utility.yul\":8048:8186   */\n      pop\n      jump\t// out\n        /* \"#utility.yul\":8192:8347   */\n    tag_448:\n        /* \"#utility.yul\":8246:8251   */\n      0x00\n        /* \"#utility.yul\":8284:8290   */\n      dup2\n        /* \"#utility.yul\":8271:8291   */\n      calldataload\n        /* \"#utility.yul\":8262:8291   */\n      swap1\n      pop\n        /* \"#utility.yul\":8300:8341   */\n      tag_577\n        /* \"#utility.yul\":8335:8340   */\n      dup2\n        /* \"#utility.yul\":8300:8341   */\n      tag_447\n      jump\t// in\n    tag_577:\n        /* \"#utility.yul\":8192:8347   */\n      swap3\n      swap2\n      pop\n      pop\n      jump\t// out\n        /* \"#utility.yul\":8353:9494   */\n    tag_132:\n        /* \"#utility.yul\":8467:8473   */\n      0x00\n        /* \"#utility.yul\":8475:8481   */\n      dup1\n        /* \"#utility.yul\":8483:8489   */\n      0x00\n        /* \"#utility.yul\":8491:8497   */\n      dup1\n        /* \"#utility.yul\":8540:8543   */\n      0x80\n        /* \"#utility.yul\":8528:8537   */\n      dup6\n        /* \"#utility.yul\":8519:8526   */\n      dup8\n        /* \"#utility.yul\":8515:8538   */\n      sub\n        /* \"#utility.yul\":8511:8544   */\n      slt\n        /* \"#utility.yul\":8508:8628   */\n      iszero\n      tag_579\n      jumpi\n        /* \"#utility.yul\":8547:8626   */\n      tag_580\n      tag_419\n      jump\t// in\n    tag_580:\n        /* \"#utility.yul\":8508:8628   */\n    tag_579:\n        /* \"#utility.yul\":8667:8668   */\n      0x00\n        /* \"#utility.yul\":8692:8745   */\n      tag_581\n        /* \"#utility.yul\":8737:8744   */\n      dup8\n        /* \"#utility.yul\":8728:8734   */\n      dup3\n        /* \"#utility.yul\":8717:8726   */\n      dup9\n        /* \"#utility.yul\":8713:8735   */\n      add\n        /* \"#utility.yul\":8692:8745   */\n      tag_424\n      jump\t// in\n    tag_581:\n        /* \"#utility.yul\":8682:8745   */\n      swap5\n      pop\n        /* \"#utility.yul\":8638:8755   */\n      pop\n        /* \"#utility.yul\":8822:8824   */\n      0x20\n        /* \"#utility.yul\":8811:8820   */\n      dup6\n        /* \"#utility.yul\":8807:8825   */\n      add\n        /* \"#utility.yul\":8794:8826   */\n      calldataload\n        /* \"#utility.yul\":8853:8871   */\n      0xffffffffffffffff\n        /* \"#utility.yul\":8845:8851   */\n      dup2\n        /* \"#utility.yul\":8842:8872   */\n      gt\n        /* \"#utility.yul\":8839:8956   */\n      iszero\n      tag_582\n      jumpi\n        /* \"#utility.yul\":8875:8954   */\n      tag_583\n      tag_420\n      jump\t// in\n    tag_583:\n        /* \"#utility.yul\":8839:8956   */\n    tag_582:\n        /* \"#utility.yul\":8980:9043   */\n      tag_584\n        /* \"#utility.yul\":9035:9042   */\n      dup8\n        /* \"#utility.yul\":9026:9032   */\n      dup3\n        /* \"#utility.yul\":9015:9024   */\n      dup9\n        /* \"#utility.yul\":9011:9033   */\n      add\n        /* \"#utility.yul\":8980:9043   */\n      tag_445\n      jump\t// in\n    tag_584:\n        /* \"#utility.yul\":8970:9043   */\n      swap4\n      pop\n        /* \"#utility.yul\":8765:9053   */\n      pop\n        /* \"#utility.yul\":9120:9122   */\n      0x40\n        /* \"#utility.yul\":9109:9118   */\n      dup6\n        /* \"#utility.yul\":9105:9123   */\n      add\n        /* \"#utility.yul\":9092:9124   */\n      calldataload\n        /* \"#utility.yul\":9151:9169   */\n      0xffffffffffffffff\n        /* \"#utility.yul\":9143:9149   */\n      dup2\n        /* \"#utility.yul\":9140:9170   */\n      gt\n        /* \"#utility.yul\":9137:9254   */\n      iszero\n      tag_585\n      jumpi\n        /* \"#utility.yul\":9173:9252   */\n      tag_586\n      tag_420\n      jump\t// in\n    tag_586:\n        /* \"#utility.yul\":9137:9254   */\n    tag_585:\n        /* \"#utility.yul\":9278:9341   */\n      tag_587\n        /* \"#utility.yul\":9333:9340   */\n      dup8\n        /* \"#utility.yul\":9324:9330   */\n      dup3\n        /* \"#utility.yul\":9313:9322   */\n      dup9\n        /* \"#utility.yul\":9309:9331   */\n      add\n        /* \"#utility.yul\":9278:9341   */\n      tag_445\n      jump\t// in\n    tag_587:\n        /* \"#utility.yul\":9268:9341   */\n      swap3\n      pop\n        /* \"#utility.yul\":9063:9351   */\n      pop\n        /* \"#utility.yul\":9390:9392   */\n      0x60\n        /* \"#utility.yul\":9416:9477   */\n      tag_588\n        /* \"#utility.yul\":9469:9476   */\n      dup8\n        /* \"#utility.yul\":9460:9466   */\n      dup3\n        /* \"#utility.yul\":9449:9458   */\n      dup9\n        /* \"#utility.yul\":9445:9467   */\n      add\n        /* \"#utility.yul\":9416:9477   */\n      tag_448\n      jump\t// in\n    tag_588:\n        /* \"#utility.yul\":9406:9477   */\n      swap2\n      pop\n        /* \"#utility.yul\":9361:9487   */\n      pop\n        /* \"#utility.yul\":8353:9494   */\n      swap3\n      swap6\n      swap2\n      swap5\n      pop\n      swap3\n      pop\n      jump\t// out\n        /* \"#utility.yul\":9500:9643   */\n    tag_449:\n        /* \"#utility.yul\":9557:9562   */\n      0x00\n        /* \"#utility.yul\":9588:9594   */\n      dup2\n        /* \"#utility.yul\":9582:9595   */\n      mload\n        /* \"#utility.yul\":9573:9595   */\n      swap1\n      pop\n        /* \"#utility.yul\":9604:9637   */\n      tag_590\n        /* \"#utility.yul\":9631:9636   */\n      dup2\n        /* \"#utility.yul\":9604:9637   */\n      tag_423\n      jump\t// in\n    tag_590:\n        /* \"#utility.yul\":9500:9643   */\n      swap3\n      swap2\n      pop\n      pop\n      jump\t// out\n        /* \"#utility.yul\":9649:10000   */\n    tag_138:\n        /* \"#utility.yul\":9719:9725   */\n      0x00\n        /* \"#utility.yul\":9768:9770   */\n      0x20\n        /* \"#utility.yul\":9756:9765   */\n      dup3\n        /* \"#utility.yul\":9747:9754   */\n      dup5\n        /* \"#utility.yul\":9743:9766   */\n      sub\n        /* \"#utility.yul\":9739:9771   */\n      slt\n        /* \"#utility.yul\":9736:9855   */\n      iszero\n      tag_592\n      jumpi\n        /* \"#utility.yul\":9774:9853   */\n      tag_593\n      tag_419\n      jump\t// in\n    tag_593:\n        /* \"#utility.yul\":9736:9855   */\n    tag_592:\n        /* \"#utility.yul\":9894:9895   */\n      0x00\n        /* \"#utility.yul\":9919:9983   */\n      tag_594\n        /* \"#utility.yul\":9975:9982   */\n      dup5\n        /* \"#utility.yul\":9966:9972   */\n      dup3\n        /* \"#utility.yul\":9955:9964   */\n      dup6\n        /* \"#utility.yul\":9951:9973   */\n      add\n        /* \"#utility.yul\":9919:9983   */\n      tag_449\n      jump\t// in\n    tag_594:\n        /* \"#utility.yul\":9909:9983   */\n      swap2\n      pop\n        /* \"#utility.yul\":9865:9993   */\n      pop\n        /* \"#utility.yul\":9649:10000   */\n      swap3\n      swap2\n      pop\n      pop\n      jump\t// out\n        /* \"#utility.yul\":10006:10175   */\n    tag_450:\n        /* \"#utility.yul\":10090:10101   */\n      0x00\n        /* \"#utility.yul\":10124:10130   */\n      dup3\n        /* \"#utility.yul\":10119:10122   */\n      dup3\n        /* \"#utility.yul\":10112:10131   */\n      mstore\n        /* \"#utility.yul\":10164:10168   */\n      0x20\n        /* \"#utility.yul\":10159:10162   */\n      dup3\n        /* \"#utility.yul\":10155:10169   */\n      add\n        /* \"#utility.yul\":10140:10169   */\n      swap1\n      pop\n        /* \"#utility.yul\":10006:10175   */\n      swap3\n      swap2\n      pop\n      pop\n      jump\t// out\n        /* \"#utility.yul\":10181:10424   */\n    tag_451:\n        /* \"#utility.yul\":10321:10355   */\n      0x4f6e6c7920636f6e747261637420726566657265652063616e20617070726f76\n        /* \"#utility.yul\":10317:10318   */\n      0x00\n        /* \"#utility.yul\":10309:10315   */\n      dup3\n        /* \"#utility.yul\":10305:10319   */\n      add\n        /* \"#utility.yul\":10298:10356   */\n      mstore\n        /* \"#utility.yul\":10390:10416   */\n      0x65207265717565737420666f7220636f6d706c6574696f6e0000000000000000\n        /* \"#utility.yul\":10385:10387   */\n      0x20\n        /* \"#utility.yul\":10377:10383   */\n      dup3\n        /* \"#utility.yul\":10373:10388   */\n      add\n        /* \"#utility.yul\":10366:10417   */\n      mstore\n        /* \"#utility.yul\":10181:10424   */\n      pop\n      jump\t// out\n        /* \"#utility.yul\":10430:10796   */\n    tag_452:\n        /* \"#utility.yul\":10572:10575   */\n      0x00\n        /* \"#utility.yul\":10593:10660   */\n      tag_598\n        /* \"#utility.yul\":10657:10659   */\n      0x38\n        /* \"#utility.yul\":10652:10655   */\n      dup4\n        /* \"#utility.yul\":10593:10660   */\n      tag_450\n      jump\t// in\n    tag_598:\n        /* \"#utility.yul\":10586:10660   */\n      swap2\n      pop\n        /* \"#utility.yul\":10669:10762   */\n      tag_599\n        /* \"#utility.yul\":10758:10761   */\n      dup3\n        /* \"#utility.yul\":10669:10762   */\n      tag_451\n      jump\t// in\n    tag_599:\n        /* \"#utility.yul\":10787:10789   */\n      0x40\n        /* \"#utility.yul\":10782:10785   */\n      dup3\n        /* \"#utility.yul\":10778:10790   */\n      add\n        /* \"#utility.yul\":10771:10790   */\n      swap1\n      pop\n        /* \"#utility.yul\":10430:10796   */\n      swap2\n      swap1\n      pop\n      jump\t// out\n        /* \"#utility.yul\":10802:11221   */\n    tag_147:\n        /* \"#utility.yul\":10968:10972   */\n      0x00\n        /* \"#utility.yul\":11006:11008   */\n      0x20\n        /* \"#utility.yul\":10995:11004   */\n      dup3\n        /* \"#utility.yul\":10991:11009   */\n      add\n        /* \"#utility.yul\":10983:11009   */\n      swap1\n      pop\n        /* \"#utility.yul\":11055:11064   */\n      dup2\n        /* \"#utility.yul\":11049:11053   */\n      dup2\n        /* \"#utility.yul\":11045:11065   */\n      sub\n        /* \"#utility.yul\":11041:11042   */\n      0x00\n        /* \"#utility.yul\":11030:11039   */\n      dup4\n        /* \"#utility.yul\":11026:11043   */\n      add\n        /* \"#utility.yul\":11019:11066   */\n      mstore\n        /* \"#utility.yul\":11083:11214   */\n      tag_601\n        /* \"#utility.yul\":11209:11213   */\n      dup2\n        /* \"#utility.yul\":11083:11214   */\n      tag_452\n      jump\t// in\n    tag_601:\n        /* \"#utility.yul\":11075:11214   */\n      swap1\n      pop\n        /* \"#utility.yul\":10802:11221   */\n      swap2\n      swap1\n      pop\n      jump\t// out\n        /* \"#utility.yul\":11227:11369   */\n    tag_453:\n        /* \"#utility.yul\":11310:11317   */\n      0x00\n        /* \"#utility.yul\":11339:11363   */\n      tag_603\n        /* \"#utility.yul\":11357:11362   */\n      dup3\n        /* \"#utility.yul\":11339:11363   */\n      tag_422\n      jump\t// in\n    tag_603:\n        /* \"#utility.yul\":11328:11363   */\n      swap1\n      pop\n        /* \"#utility.yul\":11227:11369   */\n      swap2\n      swap1\n      pop\n      jump\t// out\n        /* \"#utility.yul\":11375:11589   */\n    tag_454:\n        /* \"#utility.yul\":11494:11564   */\n      tag_605\n        /* \"#utility.yul\":11558:11563   */\n      dup2\n        /* \"#utility.yul\":11494:11564   */\n      tag_453\n      jump\t// in\n    tag_605:\n        /* \"#utility.yul\":11487:11492   */\n      dup2\n        /* \"#utility.yul\":11484:11565   */\n      eq\n        /* \"#utility.yul\":11474:11583   */\n      tag_606\n      jumpi\n        /* \"#utility.yul\":11579:11580   */\n      0x00\n        /* \"#utility.yul\":11576:11577   */\n      dup1\n        /* \"#utility.yul\":11569:11581   */\n      revert\n        /* \"#utility.yul\":11474:11583   */\n    tag_606:\n        /* \"#utility.yul\":11375:11589   */\n      pop\n      jump\t// out\n        /* \"#utility.yul\":11595:11830   */\n    tag_455:\n        /* \"#utility.yul\":11698:11703   */\n      0x00\n        /* \"#utility.yul\":11729:11735   */\n      dup2\n        /* \"#utility.yul\":11723:11736   */\n      mload\n        /* \"#utility.yul\":11714:11736   */\n      swap1\n      pop\n        /* \"#utility.yul\":11745:11824   */\n      tag_608\n        /* \"#utility.yul\":11818:11823   */\n      dup2\n        /* \"#utility.yul\":11745:11824   */\n      tag_454\n      jump\t// in\n    tag_608:\n        /* \"#utility.yul\":11595:11830   */\n      swap3\n      swap2\n      pop\n      pop\n      jump\t// out\n        /* \"#utility.yul\":11836:12279   */\n    tag_151:\n        /* \"#utility.yul\":11952:11958   */\n      0x00\n        /* \"#utility.yul\":12001:12003   */\n      0x20\n        /* \"#utility.yul\":11989:11998   */\n      dup3\n        /* \"#utility.yul\":11980:11987   */\n      dup5\n        /* \"#utility.yul\":11976:11999   */\n      sub\n        /* \"#utility.yul\":11972:12004   */\n      slt\n        /* \"#utility.yul\":11969:12088   */\n      iszero\n      tag_610\n      jumpi\n        /* \"#utility.yul\":12007:12086   */\n      tag_611\n      tag_419\n      jump\t// in\n    tag_611:\n        /* \"#utility.yul\":11969:12088   */\n    tag_610:\n        /* \"#utility.yul\":12127:12128   */\n      0x00\n        /* \"#utility.yul\":12152:12262   */\n      tag_612\n        /* \"#utility.yul\":12254:12261   */\n      dup5\n        /* \"#utility.yul\":12245:12251   */\n      dup3\n        /* \"#utility.yul\":12234:12243   */\n      dup6\n        /* \"#utility.yul\":12230:12252   */\n      add\n        /* \"#utility.yul\":12152:12262   */\n      tag_455\n      jump\t// in\n    tag_612:\n        /* \"#utility.yul\":12142:12262   */\n      swap2\n      pop\n        /* \"#utility.yul\":12098:12272   */\n      pop\n        /* \"#utility.yul\":11836:12279   */\n      swap3\n      swap2\n      pop\n      pop\n      jump\t// out\n        /* \"#utility.yul\":12285:12412   */\n    tag_456:\n        /* \"#utility.yul\":12353:12360   */\n      0x00\n        /* \"#utility.yul\":12382:12406   */\n      tag_614\n        /* \"#utility.yul\":12400:12405   */\n      dup3\n        /* \"#utility.yul\":12382:12406   */\n      tag_422\n      jump\t// in\n    tag_614:\n        /* \"#utility.yul\":12371:12406   */\n      swap1\n      pop\n        /* \"#utility.yul\":12285:12412   */\n      swap2\n      swap1\n      pop\n      jump\t// out\n        /* \"#utility.yul\":12418:12602   */\n    tag_457:\n        /* \"#utility.yul\":12522:12577   */\n      tag_616\n        /* \"#utility.yul\":12571:12576   */\n      dup2\n        /* \"#utility.yul\":12522:12577   */\n      tag_456\n      jump\t// in\n    tag_616:\n        /* \"#utility.yul\":12515:12520   */\n      dup2\n        /* \"#utility.yul\":12512:12578   */\n      eq\n        /* \"#utility.yul\":12502:12596   */\n      tag_617\n      jumpi\n        /* \"#utility.yul\":12592:12593   */\n      0x00\n        /* \"#utility.yul\":12589:12590   */\n      dup1\n        /* \"#utility.yul\":12582:12594   */\n      revert\n        /* \"#utility.yul\":12502:12596   */\n    tag_617:\n        /* \"#utility.yul\":12418:12602   */\n      pop\n      jump\t// out\n        /* \"#utility.yul\":12608:12813   */\n    tag_458:\n        /* \"#utility.yul\":12696:12701   */\n      0x00\n        /* \"#utility.yul\":12727:12733   */\n      dup2\n        /* \"#utility.yul\":12721:12734   */\n      mload\n        /* \"#utility.yul\":12712:12734   */\n      swap1\n      pop\n        /* \"#utility.yul\":12743:12807   */\n      tag_619\n        /* \"#utility.yul\":12801:12806   */\n      dup2\n        /* \"#utility.yul\":12743:12807   */\n      tag_457\n      jump\t// in\n    tag_619:\n        /* \"#utility.yul\":12608:12813   */\n      swap3\n      swap2\n      pop\n      pop\n      jump\t// out\n        /* \"#utility.yul\":12819:13232   */\n    tag_155:\n        /* \"#utility.yul\":12920:12926   */\n      0x00\n        /* \"#utility.yul\":12969:12971   */\n      0x20\n        /* \"#utility.yul\":12957:12966   */\n      dup3\n        /* \"#utility.yul\":12948:12955   */\n      dup5\n        /* \"#utility.yul\":12944:12967   */\n      sub\n        /* \"#utility.yul\":12940:12972   */\n      slt\n        /* \"#utility.yul\":12937:13056   */\n      iszero\n      tag_621\n      jumpi\n        /* \"#utility.yul\":12975:13054   */\n      tag_622\n      tag_419\n      jump\t// in\n    tag_622:\n        /* \"#utility.yul\":12937:13056   */\n    tag_621:\n        /* \"#utility.yul\":13095:13096   */\n      0x00\n        /* \"#utility.yul\":13120:13215   */\n      tag_623\n        /* \"#utility.yul\":13207:13214   */\n      dup5\n        /* \"#utility.yul\":13198:13204   */\n      dup3\n        /* \"#utility.yul\":13187:13196   */\n      dup6\n        /* \"#utility.yul\":13183:13205   */\n      add\n        /* \"#utility.yul\":13120:13215   */\n      tag_458\n      jump\t// in\n    tag_623:\n        /* \"#utility.yul\":13110:13215   */\n      swap2\n      pop\n        /* \"#utility.yul\":13066:13225   */\n      pop\n        /* \"#utility.yul\":12819:13232   */\n      swap3\n      swap2\n      pop\n      pop\n      jump\t// out\n        /* \"#utility.yul\":13238:13418   */\n    tag_459:\n        /* \"#utility.yul\":13378:13410   */\n      0x537461727420696e6465782063616e6e6f74206265206e656761746976650000\n        /* \"#utility.yul\":13374:13375   */\n      0x00\n        /* \"#utility.yul\":13366:13372   */\n      dup3\n        /* \"#utility.yul\":13362:13376   */\n      add\n        /* \"#utility.yul\":13355:13411   */\n      mstore\n        /* \"#utility.yul\":13238:13418   */\n      pop\n      jump\t// out\n        /* \"#utility.yul\":13424:13790   */\n    tag_460:\n        /* \"#utility.yul\":13566:13569   */\n      0x00\n        /* \"#utility.yul\":13587:13654   */\n      tag_626\n        /* \"#utility.yul\":13651:13653   */\n      0x1e\n        /* \"#utility.yul\":13646:13649   */\n      dup4\n        /* \"#utility.yul\":13587:13654   */\n      tag_450\n      jump\t// in\n    tag_626:\n        /* \"#utility.yul\":13580:13654   */\n      swap2\n      pop\n        /* \"#utility.yul\":13663:13756   */\n      tag_627\n        /* \"#utility.yul\":13752:13755   */\n      dup3\n        /* \"#utility.yul\":13663:13756   */\n      tag_459\n      jump\t// in\n    tag_627:\n        /* \"#utility.yul\":13781:13783   */\n      0x20\n        /* \"#utility.yul\":13776:13779   */\n      dup3\n        /* \"#utility.yul\":13772:13784   */\n      add\n        /* \"#utility.yul\":13765:13784   */\n      swap1\n      pop\n        /* \"#utility.yul\":13424:13790   */\n      swap2\n      swap1\n      pop\n      jump\t// out\n        /* \"#utility.yul\":13796:14215   */\n    tag_180:\n        /* \"#utility.yul\":13962:13966   */\n      0x00\n        /* \"#utility.yul\":14000:14002   */\n      0x20\n        /* \"#utility.yul\":13989:13998   */\n      dup3\n        /* \"#utility.yul\":13985:14003   */\n      add\n        /* \"#utility.yul\":13977:14003   */\n      swap1\n      pop\n        /* \"#utility.yul\":14049:14058   */\n      dup2\n        /* \"#utility.yul\":14043:14047   */\n      dup2\n        /* \"#utility.yul\":14039:14059   */\n      sub\n        /* \"#utility.yul\":14035:14036   */\n      0x00\n        /* \"#utility.yul\":14024:14033   */\n      dup4\n        /* \"#utility.yul\":14020:14037   */\n      add\n        /* \"#utility.yul\":14013:14060   */\n      mstore\n        /* \"#utility.yul\":14077:14208   */\n      tag_629\n        /* \"#utility.yul\":14203:14207   */\n      dup2\n        /* \"#utility.yul\":14077:14208   */\n      tag_460\n      jump\t// in\n    tag_629:\n        /* \"#utility.yul\":14069:14208   */\n      swap1\n      pop\n        /* \"#utility.yul\":13796:14215   */\n      swap2\n      swap1\n      pop\n      jump\t// out\n        /* \"#utility.yul\":14221:14447   */\n    tag_461:\n        /* \"#utility.yul\":14361:14395   */\n      0x456e6420696e6465782065786365656473207573657220616464726573736573\n        /* \"#utility.yul\":14357:14358   */\n      0x00\n        /* \"#utility.yul\":14349:14355   */\n      dup3\n        /* \"#utility.yul\":14345:14359   */\n      add\n        /* \"#utility.yul\":14338:14396   */\n      mstore\n        /* \"#utility.yul\":14430:14439   */\n      0x206c656e67746800000000000000000000000000000000000000000000000000\n        /* \"#utility.yul\":14425:14427   */\n      0x20\n        /* \"#utility.yul\":14417:14423   */\n      dup3\n        /* \"#utility.yul\":14413:14428   */\n      add\n        /* \"#utility.yul\":14406:14440   */\n      mstore\n        /* \"#utility.yul\":14221:14447   */\n      pop\n      jump\t// out\n        /* \"#utility.yul\":14453:14819   */\n    tag_462:\n        /* \"#utility.yul\":14595:14598   */\n      0x00\n        /* \"#utility.yul\":14616:14683   */\n      tag_632\n        /* \"#utility.yul\":14680:14682   */\n      0x27\n        /* \"#utility.yul\":14675:14678   */\n      dup4\n        /* \"#utility.yul\":14616:14683   */\n      tag_450\n      jump\t// in\n    tag_632:\n        /* \"#utility.yul\":14609:14683   */\n      swap2\n      pop\n        /* \"#utility.yul\":14692:14785   */\n      tag_633\n        /* \"#utility.yul\":14781:14784   */\n      dup3\n        /* \"#utility.yul\":14692:14785   */\n      tag_461\n      jump\t// in\n    tag_633:\n        /* \"#utility.yul\":14810:14812   */\n      0x40\n        /* \"#utility.yul\":14805:14808   */\n      dup3\n        /* \"#utility.yul\":14801:14813   */\n      add\n        /* \"#utility.yul\":14794:14813   */\n      swap1\n      pop\n        /* \"#utility.yul\":14453:14819   */\n      swap2\n      swap1\n      pop\n      jump\t// out\n        /* \"#utility.yul\":14825:15244   */\n    tag_183:\n        /* \"#utility.yul\":14991:14995   */\n      0x00\n        /* \"#utility.yul\":15029:15031   */\n      0x20\n        /* \"#utility.yul\":15018:15027   */\n      dup3\n        /* \"#utility.yul\":15014:15032   */\n      add\n        /* \"#utility.yul\":15006:15032   */\n      swap1\n      pop\n        /* \"#utility.yul\":15078:15087   */\n      dup2\n        /* \"#utility.yul\":15072:15076   */\n      dup2\n        /* \"#utility.yul\":15068:15088   */\n      sub\n        /* \"#utility.yul\":15064:15065   */\n      0x00\n        /* \"#utility.yul\":15053:15062   */\n      dup4\n        /* \"#utility.yul\":15049:15066   */\n      add\n        /* \"#utility.yul\":15042:15089   */\n      mstore\n        /* \"#utility.yul\":15106:15237   */\n      tag_635\n        /* \"#utility.yul\":15232:15236   */\n      dup2\n        /* \"#utility.yul\":15106:15237   */\n      tag_462\n      jump\t// in\n    tag_635:\n        /* \"#utility.yul\":15098:15237   */\n      swap1\n      pop\n        /* \"#utility.yul\":14825:15244   */\n      swap2\n      swap1\n      pop\n      jump\t// out\n        /* \"#utility.yul\":15250:15430   */\n    tag_463:\n        /* \"#utility.yul\":15298:15375   */\n      0x4e487b7100000000000000000000000000000000000000000000000000000000\n        /* \"#utility.yul\":15295:15296   */\n      0x00\n        /* \"#utility.yul\":15288:15376   */\n      mstore\n        /* \"#utility.yul\":15395:15399   */\n      0x11\n        /* \"#utility.yul\":15392:15393   */\n      0x04\n        /* \"#utility.yul\":15385:15400   */\n      mstore\n        /* \"#utility.yul\":15419:15423   */\n      0x24\n        /* \"#utility.yul\":15416:15417   */\n      0x00\n        /* \"#utility.yul\":15409:15424   */\n      revert\n        /* \"#utility.yul\":15436:15627   */\n    tag_185:\n        /* \"#utility.yul\":15476:15480   */\n      0x00\n        /* \"#utility.yul\":15496:15516   */\n      tag_638\n        /* \"#utility.yul\":15514:15515   */\n      dup3\n        /* \"#utility.yul\":15496:15516   */\n      tag_425\n      jump\t// in\n    tag_638:\n        /* \"#utility.yul\":15491:15516   */\n      swap2\n      pop\n        /* \"#utility.yul\":15530:15550   */\n      tag_639\n        /* \"#utility.yul\":15548:15549   */\n      dup4\n        /* \"#utility.yul\":15530:15550   */\n      tag_425\n      jump\t// in\n    tag_639:\n        /* \"#utility.yul\":15525:15550   */\n      swap3\n      pop\n        /* \"#utility.yul\":15569:15570   */\n      dup3\n        /* \"#utility.yul\":15566:15567   */\n      dup3\n        /* \"#utility.yul\":15563:15571   */\n      lt\n        /* \"#utility.yul\":15560:15594   */\n      iszero\n      tag_640\n      jumpi\n        /* \"#utility.yul\":15574:15592   */\n      tag_641\n      tag_463\n      jump\t// in\n    tag_641:\n        /* \"#utility.yul\":15560:15594   */\n    tag_640:\n        /* \"#utility.yul\":15619:15620   */\n      dup3\n        /* \"#utility.yul\":15616:15617   */\n      dup3\n        /* \"#utility.yul\":15612:15621   */\n      sub\n        /* \"#utility.yul\":15604:15621   */\n      swap1\n      pop\n        /* \"#utility.yul\":15436:15627   */\n      swap3\n      swap2\n      pop\n      pop\n      jump\t// out\n        /* \"#utility.yul\":15633:15813   */\n    tag_195:\n        /* \"#utility.yul\":15681:15758   */\n      0x4e487b7100000000000000000000000000000000000000000000000000000000\n        /* \"#utility.yul\":15678:15679   */\n      0x00\n        /* \"#utility.yul\":15671:15759   */\n      mstore\n        /* \"#utility.yul\":15778:15782   */\n      0x32\n        /* \"#utility.yul\":15775:15776   */\n      0x04\n        /* \"#utility.yul\":15768:15783   */\n      mstore\n        /* \"#utility.yul\":15802:15806   */\n      0x24\n        /* \"#utility.yul\":15799:15800   */\n      0x00\n        /* \"#utility.yul\":15792:15807   */\n      revert\n        /* \"#utility.yul\":15819:16052   */\n    tag_200:\n        /* \"#utility.yul\":15858:15861   */\n      0x00\n        /* \"#utility.yul\":15881:15905   */\n      tag_644\n        /* \"#utility.yul\":15899:15904   */\n      dup3\n        /* \"#utility.yul\":15881:15905   */\n      tag_425\n      jump\t// in\n    tag_644:\n        /* \"#utility.yul\":15872:15905   */\n      swap2\n      pop\n        /* \"#utility.yul\":15927:15993   */\n      0xffffffffffffffffffffffffffffffffffffffffffffffffffffffffffffffff\n        /* \"#utility.yul\":15920:15925   */\n      dup3\n        /* \"#utility.yul\":15917:15994   */\n      eq\n        /* \"#utility.yul\":15914:16017   */\n      iszero\n      tag_645\n      jumpi\n        /* \"#utility.yul\":15997:16015   */\n      tag_646\n      tag_463\n      jump\t// in\n    tag_646:\n        /* \"#utility.yul\":15914:16017   */\n    tag_645:\n        /* \"#utility.yul\":16044:16045   */\n      0x01\n        /* \"#utility.yul\":16037:16042   */\n      dup3\n        /* \"#utility.yul\":16033:16046   */\n      add\n        /* \"#utility.yul\":16026:16046   */\n      swap1\n      pop\n        /* \"#utility.yul\":15819:16052   */\n      swap2\n      swap1\n      pop\n      jump\t// out\n        /* \"#utility.yul\":16058:16157   */\n    tag_464:\n        /* \"#utility.yul\":16110:16116   */\n      0x00\n        /* \"#utility.yul\":16144:16149   */\n      dup2\n        /* \"#utility.yul\":16138:16150   */\n      mload\n        /* \"#utility.yul\":16128:16150   */\n      swap1\n      pop\n        /* \"#utility.yul\":16058:16157   */\n      swap2\n      swap1\n      pop\n      jump\t// out\n        /* \"#utility.yul\":16163:16470   */\n    tag_465:\n        /* \"#utility.yul\":16231:16232   */\n      0x00\n        /* \"#utility.yul\":16241:16354   */\n    tag_649:\n        /* \"#utility.yul\":16255:16261   */\n      dup4\n        /* \"#utility.yul\":16252:16253   */\n      dup2\n        /* \"#utility.yul\":16249:16262   */\n      lt\n        /* \"#utility.yul\":16241:16354   */\n      iszero\n      tag_651\n      jumpi\n        /* \"#utility.yul\":16340:16341   */\n      dup1\n        /* \"#utility.yul\":16335:16338   */\n      dup3\n        /* \"#utility.yul\":16331:16342   */\n      add\n        /* \"#utility.yul\":16325:16343   */\n      mload\n        /* \"#utility.yul\":16321:16322   */\n      dup2\n        /* \"#utility.yul\":16316:16319   */\n      dup5\n        /* \"#utility.yul\":16312:16323   */\n      add\n        /* \"#utility.yul\":16305:16344   */\n      mstore\n        /* \"#utility.yul\":16277:16279   */\n      0x20\n        /* \"#utility.yul\":16274:16275   */\n      dup2\n        /* \"#utility.yul\":16270:16280   */\n      add\n        /* \"#utility.yul\":16265:16280   */\n      swap1\n      pop\n        /* \"#utility.yul\":16241:16354   */\n      jump(tag_649)\n    tag_651:\n        /* \"#utility.yul\":16372:16378   */\n      dup4\n        /* \"#utility.yul\":16369:16370   */\n      dup2\n        /* \"#utility.yul\":16366:16379   */\n      gt\n        /* \"#utility.yul\":16363:16464   */\n      iszero\n      tag_652\n      jumpi\n        /* \"#utility.yul\":16452:16453   */\n      0x00\n        /* \"#utility.yul\":16443:16449   */\n      dup5\n        /* \"#utility.yul\":16438:16441   */\n      dup5\n        /* \"#utility.yul\":16434:16450   */\n      add\n        /* \"#utility.yul\":16427:16454   */\n      mstore\n        /* \"#utility.yul\":16363:16464   */\n    tag_652:\n        /* \"#utility.yul\":16212:16470   */\n      pop\n        /* \"#utility.yul\":16163:16470   */\n      pop\n      pop\n      pop\n      jump\t// out\n        /* \"#utility.yul\":16476:16840   */\n    tag_466:\n        /* \"#utility.yul\":16564:16567   */\n      0x00\n        /* \"#utility.yul\":16592:16631   */\n      tag_654\n        /* \"#utility.yul\":16625:16630   */\n      dup3\n        /* \"#utility.yul\":16592:16631   */\n      tag_464\n      jump\t// in\n    tag_654:\n        /* \"#utility.yul\":16647:16718   */\n      tag_655\n        /* \"#utility.yul\":16711:16717   */\n      dup2\n        /* \"#utility.yul\":16706:16709   */\n      dup6\n        /* \"#utility.yul\":16647:16718   */\n      tag_450\n      jump\t// in\n    tag_655:\n        /* \"#utility.yul\":16640:16718   */\n      swap4\n      pop\n        /* \"#utility.yul\":16727:16779   */\n      tag_656\n        /* \"#utility.yul\":16772:16778   */\n      dup2\n        /* \"#utility.yul\":16767:16770   */\n      dup6\n        /* \"#utility.yul\":16760:16764   */\n      0x20\n        /* \"#utility.yul\":16753:16758   */\n      dup7\n        /* \"#utility.yul\":16749:16765   */\n      add\n        /* \"#utility.yul\":16727:16779   */\n      tag_465\n      jump\t// in\n    tag_656:\n        /* \"#utility.yul\":16804:16833   */\n      tag_657\n        /* \"#utility.yul\":16826:16832   */\n      dup2\n        /* \"#utility.yul\":16804:16833   */\n      tag_439\n      jump\t// in\n    tag_657:\n        /* \"#utility.yul\":16799:16802   */\n      dup5\n        /* \"#utility.yul\":16795:16834   */\n      add\n        /* \"#utility.yul\":16788:16834   */\n      swap2\n      pop\n        /* \"#utility.yul\":16568:16840   */\n      pop\n        /* \"#utility.yul\":16476:16840   */\n      swap3\n      swap2\n      pop\n      pop\n      jump\t// out\n        /* \"#utility.yul\":16846:17159   */\n    tag_266:\n        /* \"#utility.yul\":16959:16963   */\n      0x00\n        /* \"#utility.yul\":16997:16999   */\n      0x20\n        /* \"#utility.yul\":16986:16995   */\n      dup3\n        /* \"#utility.yul\":16982:17000   */\n      add\n        /* \"#utility.yul\":16974:17000   */\n      swap1\n      pop\n        /* \"#utility.yul\":17046:17055   */\n      dup2\n        /* \"#utility.yul\":17040:17044   */\n      dup2\n        /* \"#utility.yul\":17036:17056   */\n      sub\n        /* \"#utility.yul\":17032:17033   */\n      0x00\n        /* \"#utility.yul\":17021:17030   */\n      dup4\n        /* \"#utility.yul\":17017:17034   */\n      add\n        /* \"#utility.yul\":17010:17057   */\n      mstore\n        /* \"#utility.yul\":17074:17152   */\n      tag_659\n        /* \"#utility.yul\":17147:17151   */\n      dup2\n        /* \"#utility.yul\":17138:17144   */\n      dup5\n        /* \"#utility.yul\":17074:17152   */\n      tag_466\n      jump\t// in\n    tag_659:\n        /* \"#utility.yul\":17066:17152   */\n      swap1\n      pop\n        /* \"#utility.yul\":16846:17159   */\n      swap3\n      swap2\n      pop\n      pop\n      jump\t// out\n        /* \"#utility.yul\":17165:17345   */\n    tag_273:\n        /* \"#utility.yul\":17213:17290   */\n      0x4e487b7100000000000000000000000000000000000000000000000000000000\n        /* \"#utility.yul\":17210:17211   */\n      0x00\n        /* \"#utility.yul\":17203:17291   */\n      mstore\n        /* \"#utility.yul\":17310:17314   */\n      0x21\n        /* \"#utility.yul\":17307:17308   */\n      0x04\n        /* \"#utility.yul\":17300:17315   */\n      mstore\n        /* \"#utility.yul\":17334:17338   */\n      0x24\n        /* \"#utility.yul\":17331:17332   */\n      0x00\n        /* \"#utility.yul\":17324:17339   */\n      revert\n        /* \"#utility.yul\":17351:17461   */\n    tag_467:\n        /* \"#utility.yul\":17435:17436   */\n      0x03\n        /* \"#utility.yul\":17428:17433   */\n      dup2\n        /* \"#utility.yul\":17425:17437   */\n      lt\n        /* \"#utility.yul\":17415:17455   */\n      tag_662\n      jumpi\n        /* \"#utility.yul\":17451:17452   */\n      0x00\n        /* \"#utility.yul\":17448:17449   */\n      dup1\n        /* \"#utility.yul\":17441:17453   */\n      revert\n        /* \"#utility.yul\":17415:17455   */\n    tag_662:\n        /* \"#utility.yul\":17351:17461   */\n      pop\n      jump\t// out\n        /* \"#utility.yul\":17467:17632   */\n    tag_468:\n        /* \"#utility.yul\":17535:17540   */\n      0x00\n        /* \"#utility.yul\":17566:17572   */\n      dup2\n        /* \"#utility.yul\":17560:17573   */\n      mload\n        /* \"#utility.yul\":17551:17573   */\n      swap1\n      pop\n        /* \"#utility.yul\":17582:17626   */\n      tag_664\n        /* \"#utility.yul\":17620:17625   */\n      dup2\n        /* \"#utility.yul\":17582:17626   */\n      tag_467\n      jump\t// in\n    tag_664:\n        /* \"#utility.yul\":17467:17632   */\n      swap3\n      swap2\n      pop\n      pop\n      jump\t// out\n        /* \"#utility.yul\":17638:18011   */\n    tag_277:\n        /* \"#utility.yul\":17719:17725   */\n      0x00\n        /* \"#utility.yul\":17768:17770   */\n      0x20\n        /* \"#utility.yul\":17756:17765   */\n      dup3\n        /* \"#utility.yul\":17747:17754   */\n      dup5\n        /* \"#utility.yul\":17743:17766   */\n      sub\n        /* \"#utility.yul\":17739:17771   */\n      slt\n        /* \"#utility.yul\":17736:17855   */\n      iszero\n      tag_666\n      jumpi\n        /* \"#utility.yul\":17774:17853   */\n      tag_667\n      tag_419\n      jump\t// in\n    tag_667:\n        /* \"#utility.yul\":17736:17855   */\n    tag_666:\n        /* \"#utility.yul\":17894:17895   */\n      0x00\n        /* \"#utility.yul\":17919:17994   */\n      tag_668\n        /* \"#utility.yul\":17986:17993   */\n      dup5\n        /* \"#utility.yul\":17977:17983   */\n      dup3\n        /* \"#utility.yul\":17966:17975   */\n      dup6\n        /* \"#utility.yul\":17962:17984   */\n      add\n        /* \"#utility.yul\":17919:17994   */\n      tag_468\n      jump\t// in\n    tag_668:\n        /* \"#utility.yul\":17909:17994   */\n      swap2\n      pop\n        /* \"#utility.yul\":17865:18004   */\n      pop\n        /* \"#utility.yul\":17638:18011   */\n      swap3\n      swap2\n      pop\n      pop\n      jump\t// out\n        /* \"#utility.yul\":18017:18195   */\n    tag_469:\n        /* \"#utility.yul\":18157:18187   */\n      0x436f6e747261637420737461747573206d757374206265206f70656e00000000\n        /* \"#utility.yul\":18153:18154   */\n      0x00\n        /* \"#utility.yul\":18145:18151   */\n      dup3\n        /* \"#utility.yul\":18141:18155   */\n      add\n        /* \"#utility.yul\":18134:18188   */\n      mstore\n        /* \"#utility.yul\":18017:18195   */\n      pop\n      jump\t// out\n        /* \"#utility.yul\":18201:18567   */\n    tag_470:\n        /* \"#utility.yul\":18343:18346   */\n      0x00\n        /* \"#utility.yul\":18364:18431   */\n      tag_671\n        /* \"#utility.yul\":18428:18430   */\n      0x1c\n        /* \"#utility.yul\":18423:18426   */\n      dup4\n        /* \"#utility.yul\":18364:18431   */\n      tag_450\n      jump\t// in\n    tag_671:\n        /* \"#utility.yul\":18357:18431   */\n      swap2\n      pop\n        /* \"#utility.yul\":18440:18533   */\n      tag_672\n        /* \"#utility.yul\":18529:18532   */\n      dup3\n        /* \"#utility.yul\":18440:18533   */\n      tag_469\n      jump\t// in\n    tag_672:\n        /* \"#utility.yul\":18558:18560   */\n      0x20\n        /* \"#utility.yul\":18553:18556   */\n      dup3\n        /* \"#utility.yul\":18549:18561   */\n      add\n        /* \"#utility.yul\":18542:18561   */\n      swap1\n      pop\n        /* \"#utility.yul\":18201:18567   */\n      swap2\n      swap1\n      pop\n      jump\t// out\n        /* \"#utility.yul\":18573:18992   */\n    tag_282:\n        /* \"#utility.yul\":18739:18743   */\n      0x00\n        /* \"#utility.yul\":18777:18779   */\n      0x20\n        /* \"#utility.yul\":18766:18775   */\n      dup3\n        /* \"#utility.yul\":18762:18780   */\n      add\n        /* \"#utility.yul\":18754:18780   */\n      swap1\n      pop\n        /* \"#utility.yul\":18826:18835   */\n      dup2\n        /* \"#utility.yul\":18820:18824   */\n      dup2\n        /* \"#utility.yul\":18816:18836   */\n      sub\n        /* \"#utility.yul\":18812:18813   */\n      0x00\n        /* \"#utility.yul\":18801:18810   */\n      dup4\n        /* \"#utility.yul\":18797:18814   */\n      add\n        /* \"#utility.yul\":18790:18837   */\n      mstore\n        /* \"#utility.yul\":18854:18985   */\n      tag_674\n        /* \"#utility.yul\":18980:18984   */\n      dup2\n        /* \"#utility.yul\":18854:18985   */\n      tag_470\n      jump\t// in\n    tag_674:\n        /* \"#utility.yul\":18846:18985   */\n      swap1\n      pop\n        /* \"#utility.yul\":18573:18992   */\n      swap2\n      swap1\n      pop\n      jump\t// out\n        /* \"#utility.yul\":18998:19232   */\n    tag_471:\n        /* \"#utility.yul\":19138:19172   */\n      0x4f6e6c792063726561746f72206f6620636f6e74726163742063616e20726571\n        /* \"#utility.yul\":19134:19135   */\n      0x00\n        /* \"#utility.yul\":19126:19132   */\n      dup3\n        /* \"#utility.yul\":19122:19136   */\n      add\n        /* \"#utility.yul\":19115:19173   */\n      mstore\n        /* \"#utility.yul\":19207:19224   */\n      0x7565737420636f6d706c6574696f6e0000000000000000000000000000000000\n        /* \"#utility.yul\":19202:19204   */\n      0x20\n        /* \"#utility.yul\":19194:19200   */\n      dup3\n        /* \"#utility.yul\":19190:19205   */\n      add\n        /* \"#utility.yul\":19183:19225   */\n      mstore\n        /* \"#utility.yul\":18998:19232   */\n      pop\n      jump\t// out\n        /* \"#utility.yul\":19238:19604   */\n    tag_472:\n        /* \"#utility.yul\":19380:19383   */\n      0x00\n        /* \"#utility.yul\":19401:19468   */\n      tag_677\n        /* \"#utility.yul\":19465:19467   */\n      0x2f\n        /* \"#utility.yul\":19460:19463   */\n      dup4\n        /* \"#utility.yul\":19401:19468   */\n      tag_450\n      jump\t// in\n    tag_677:\n        /* \"#utility.yul\":19394:19468   */\n      swap2\n      pop\n        /* \"#utility.yul\":19477:19570   */\n      tag_678\n        /* \"#utility.yul\":19566:19569   */\n      dup3\n        /* \"#utility.yul\":19477:19570   */\n      tag_471\n      jump\t// in\n    tag_678:\n        /* \"#utility.yul\":19595:19597   */\n      0x40\n        /* \"#utility.yul\":19590:19593   */\n      dup3\n        /* \"#utility.yul\":19586:19598   */\n      add\n        /* \"#utility.yul\":19579:19598   */\n      swap1\n      pop\n        /* \"#utility.yul\":19238:19604   */\n      swap2\n      swap1\n      pop\n      jump\t// out\n        /* \"#utility.yul\":19610:20029   */\n    tag_288:\n        /* \"#utility.yul\":19776:19780   */\n      0x00\n        /* \"#utility.yul\":19814:19816   */\n      0x20\n        /* \"#utility.yul\":19803:19812   */\n      dup3\n        /* \"#utility.yul\":19799:19817   */\n      add\n        /* \"#utility.yul\":19791:19817   */\n      swap1\n      pop\n        /* \"#utility.yul\":19863:19872   */\n      dup2\n        /* \"#utility.yul\":19857:19861   */\n      dup2\n        /* \"#utility.yul\":19853:19873   */\n      sub\n        /* \"#utility.yul\":19849:19850   */\n      0x00\n        /* \"#utility.yul\":19838:19847   */\n      dup4\n        /* \"#utility.yul\":19834:19851   */\n      add\n        /* \"#utility.yul\":19827:19874   */\n      mstore\n        /* \"#utility.yul\":19891:20022   */\n      tag_680\n        /* \"#utility.yul\":20017:20021   */\n      dup2\n        /* \"#utility.yul\":19891:20022   */\n      tag_472\n      jump\t// in\n    tag_680:\n        /* \"#utility.yul\":19883:20022   */\n      swap1\n      pop\n        /* \"#utility.yul\":19610:20029   */\n      swap2\n      swap1\n      pop\n      jump\t// out\n        /* \"#utility.yul\":20035:20269   */\n    tag_473:\n        /* \"#utility.yul\":20175:20209   */\n      0x43616e6e6f74207265717565737420617070726f76616c207768656e20637265\n        /* \"#utility.yul\":20171:20172   */\n      0x00\n        /* \"#utility.yul\":20163:20169   */\n      dup3\n        /* \"#utility.yul\":20159:20173   */\n      add\n        /* \"#utility.yul\":20152:20210   */\n      mstore\n        /* \"#utility.yul\":20244:20261   */\n      0x61746f7220697320726566657265650000000000000000000000000000000000\n        /* \"#utility.yul\":20239:20241   */\n      0x20\n        /* \"#utility.yul\":20231:20237   */\n      dup3\n        /* \"#utility.yul\":20227:20242   */\n      add\n        /* \"#utility.yul\":20220:20262   */\n      mstore\n        /* \"#utility.yul\":20035:20269   */\n      pop\n      jump\t// out\n        /* \"#utility.yul\":20275:20641   */\n    tag_474:\n        /* \"#utility.yul\":20417:20420   */\n      0x00\n        /* \"#utility.yul\":20438:20505   */\n      tag_683\n        /* \"#utility.yul\":20502:20504   */\n      0x2f\n        /* \"#utility.yul\":20497:20500   */\n      dup4\n        /* \"#utility.yul\":20438:20505   */\n      tag_450\n      jump\t// in\n    tag_683:\n        /* \"#utility.yul\":20431:20505   */\n      swap2\n      pop\n        /* \"#utility.yul\":20514:20607   */\n      tag_684\n        /* \"#utility.yul\":20603:20606   */\n      dup3\n        /* \"#utility.yul\":20514:20607   */\n      tag_473\n      jump\t// in\n    tag_684:\n        /* \"#utility.yul\":20632:20634   */\n      0x40\n        /* \"#utility.yul\":20627:20630   */\n      dup3\n        /* \"#utility.yul\":20623:20635   */\n      add\n        /* \"#utility.yul\":20616:20635   */\n      swap1\n      pop\n        /* \"#utility.yul\":20275:20641   */\n      swap2\n      swap1\n      pop\n      jump\t// out\n        /* \"#utility.yul\":20647:21066   */\n    tag_297:\n        /* \"#utility.yul\":20813:20817   */\n      0x00\n        /* \"#utility.yul\":20851:20853   */\n      0x20\n        /* \"#utility.yul\":20840:20849   */\n      dup3\n        /* \"#utility.yul\":20836:20854   */\n      add\n        /* \"#utility.yul\":20828:20854   */\n      swap1\n      pop\n        /* \"#utility.yul\":20900:20909   */\n      dup2\n        /* \"#utility.yul\":20894:20898   */\n      dup2\n        /* \"#utility.yul\":20890:20910   */\n      sub\n        /* \"#utility.yul\":20886:20887   */\n      0x00\n        /* \"#utility.yul\":20875:20884   */\n      dup4\n        /* \"#utility.yul\":20871:20888   */\n      add\n        /* \"#utility.yul\":20864:20911   */\n      mstore\n        /* \"#utility.yul\":20928:21059   */\n      tag_686\n        /* \"#utility.yul\":21054:21058   */\n      dup2\n        /* \"#utility.yul\":20928:21059   */\n      tag_474\n      jump\t// in\n    tag_686:\n        /* \"#utility.yul\":20920:21059   */\n      swap1\n      pop\n        /* \"#utility.yul\":20647:21066   */\n      swap2\n      swap1\n      pop\n      jump\t// out\n        /* \"#utility.yul\":21072:21132   */\n    tag_475:\n        /* \"#utility.yul\":21100:21103   */\n      0x00\n        /* \"#utility.yul\":21121:21126   */\n      dup2\n        /* \"#utility.yul\":21114:21126   */\n      swap1\n      pop\n        /* \"#utility.yul\":21072:21132   */\n      swap2\n      swap1\n      pop\n      jump\t// out\n        /* \"#utility.yul\":21138:21280   */\n    tag_476:\n        /* \"#utility.yul\":21188:21197   */\n      0x00\n        /* \"#utility.yul\":21221:21274   */\n      tag_689\n        /* \"#utility.yul\":21239:21273   */\n      tag_690\n        /* \"#utility.yul\":21248:21272   */\n      tag_691\n        /* \"#utility.yul\":21266:21271   */\n      dup5\n        /* \"#utility.yul\":21248:21272   */\n      tag_421\n      jump\t// in\n    tag_691:\n        /* \"#utility.yul\":21239:21273   */\n      tag_475\n      jump\t// in\n    tag_690:\n        /* \"#utility.yul\":21221:21274   */\n      tag_421\n      jump\t// in\n    tag_689:\n        /* \"#utility.yul\":21208:21274   */\n      swap1\n      pop\n        /* \"#utility.yul\":21138:21280   */\n      swap2\n      swap1\n      pop\n      jump\t// out\n        /* \"#utility.yul\":21286:21412   */\n    tag_477:\n        /* \"#utility.yul\":21336:21345   */\n      0x00\n        /* \"#utility.yul\":21369:21406   */\n      tag_693\n        /* \"#utility.yul\":21400:21405   */\n      dup3\n        /* \"#utility.yul\":21369:21406   */\n      tag_476\n      jump\t// in\n    tag_693:\n        /* \"#utility.yul\":21356:21406   */\n      swap1\n      pop\n        /* \"#utility.yul\":21286:21412   */\n      swap2\n      swap1\n      pop\n      jump\t// out\n        /* \"#utility.yul\":21418:21552   */\n    tag_478:\n        /* \"#utility.yul\":21476:21485   */\n      0x00\n        /* \"#utility.yul\":21509:21546   */\n      tag_695\n        /* \"#utility.yul\":21540:21545   */\n      dup3\n        /* \"#utility.yul\":21509:21546   */\n      tag_477\n      jump\t// in\n    tag_695:\n        /* \"#utility.yul\":21496:21546   */\n      swap1\n      pop\n        /* \"#utility.yul\":21418:21552   */\n      swap2\n      swap1\n      pop\n      jump\t// out\n        /* \"#utility.yul\":21558:21705   */\n    tag_479:\n        /* \"#utility.yul\":21653:21698   */\n      tag_697\n        /* \"#utility.yul\":21692:21697   */\n      dup2\n        /* \"#utility.yul\":21653:21698   */\n      tag_478\n      jump\t// in\n    tag_697:\n        /* \"#utility.yul\":21648:21651   */\n      dup3\n        /* \"#utility.yul\":21641:21699   */\n      mstore\n        /* \"#utility.yul\":21558:21705   */\n      pop\n      pop\n      jump\t// out\n        /* \"#utility.yul\":21711:22684   */\n    tag_316:\n        /* \"#utility.yul\":21992:21996   */\n      0x00\n        /* \"#utility.yul\":22030:22033   */\n      0xc0\n        /* \"#utility.yul\":22019:22028   */\n      dup3\n        /* \"#utility.yul\":22015:22034   */\n      add\n        /* \"#utility.yul\":22007:22034   */\n      swap1\n      pop\n        /* \"#utility.yul\":22044:22115   */\n      tag_699\n        /* \"#utility.yul\":22112:22113   */\n      0x00\n        /* \"#utility.yul\":22101:22110   */\n      dup4\n        /* \"#utility.yul\":22097:22114   */\n      add\n        /* \"#utility.yul\":22088:22094   */\n      dup10\n        /* \"#utility.yul\":22044:22115   */\n      tag_435\n      jump\t// in\n    tag_699:\n        /* \"#utility.yul\":22125:22197   */\n      tag_700\n        /* \"#utility.yul\":22193:22195   */\n      0x20\n        /* \"#utility.yul\":22182:22191   */\n      dup4\n        /* \"#utility.yul\":22178:22196   */\n      add\n        /* \"#utility.yul\":22169:22175   */\n      dup9\n        /* \"#utility.yul\":22125:22197   */\n      tag_435\n      jump\t// in\n    tag_700:\n        /* \"#utility.yul\":22244:22253   */\n      dup2\n        /* \"#utility.yul\":22238:22242   */\n      dup2\n        /* \"#utility.yul\":22234:22254   */\n      sub\n        /* \"#utility.yul\":22229:22231   */\n      0x40\n        /* \"#utility.yul\":22218:22227   */\n      dup4\n        /* \"#utility.yul\":22214:22232   */\n      add\n        /* \"#utility.yul\":22207:22255   */\n      mstore\n        /* \"#utility.yul\":22272:22350   */\n      tag_701\n        /* \"#utility.yul\":22345:22349   */\n      dup2\n        /* \"#utility.yul\":22336:22342   */\n      dup8\n        /* \"#utility.yul\":22272:22350   */\n      tag_466\n      jump\t// in\n    tag_701:\n        /* \"#utility.yul\":22264:22350   */\n      swap1\n      pop\n        /* \"#utility.yul\":22397:22406   */\n      dup2\n        /* \"#utility.yul\":22391:22395   */\n      dup2\n        /* \"#utility.yul\":22387:22407   */\n      sub\n        /* \"#utility.yul\":22382:22384   */\n      0x60\n        /* \"#utility.yul\":22371:22380   */\n      dup4\n        /* \"#utility.yul\":22367:22385   */\n      add\n        /* \"#utility.yul\":22360:22408   */\n      mstore\n        /* \"#utility.yul\":22425:22503   */\n      tag_702\n        /* \"#utility.yul\":22498:22502   */\n      dup2\n        /* \"#utility.yul\":22489:22495   */\n      dup7\n        /* \"#utility.yul\":22425:22503   */\n      tag_466\n      jump\t// in\n    tag_702:\n        /* \"#utility.yul\":22417:22503   */\n      swap1\n      pop\n        /* \"#utility.yul\":22513:22594   */\n      tag_703\n        /* \"#utility.yul\":22589:22592   */\n      0x80\n        /* \"#utility.yul\":22578:22587   */\n      dup4\n        /* \"#utility.yul\":22574:22593   */\n      add\n        /* \"#utility.yul\":22565:22571   */\n      dup6\n        /* \"#utility.yul\":22513:22594   */\n      tag_479\n      jump\t// in\n    tag_703:\n        /* \"#utility.yul\":22604:22677   */\n      tag_704\n        /* \"#utility.yul\":22672:22675   */\n      0xa0\n        /* \"#utility.yul\":22661:22670   */\n      dup4\n        /* \"#utility.yul\":22657:22676   */\n      add\n        /* \"#utility.yul\":22648:22654   */\n      dup5\n        /* \"#utility.yul\":22604:22677   */\n      tag_436\n      jump\t// in\n    tag_704:\n        /* \"#utility.yul\":21711:22684   */\n      swap8\n      swap7\n      pop\n      pop\n      pop\n      pop\n      pop\n      pop\n      pop\n      jump\t// out\n        /* \"#utility.yul\":22690:22995   */\n    tag_321:\n        /* \"#utility.yul\":22730:22733   */\n      0x00\n        /* \"#utility.yul\":22749:22769   */\n      tag_706\n        /* \"#utility.yul\":22767:22768   */\n      dup3\n        /* \"#utility.yul\":22749:22769   */\n      tag_425\n      jump\t// in\n    tag_706:\n        /* \"#utility.yul\":22744:22769   */\n      swap2\n      pop\n        /* \"#utility.yul\":22783:22803   */\n      tag_707\n        /* \"#utility.yul\":22801:22802   */\n      dup4\n        /* \"#utility.yul\":22783:22803   */\n      tag_425\n      jump\t// in\n    tag_707:\n        /* \"#utility.yul\":22778:22803   */\n      swap3\n      pop\n        /* \"#utility.yul\":22937:22938   */\n      dup3\n        /* \"#utility.yul\":22869:22935   */\n      0xffffffffffffffffffffffffffffffffffffffffffffffffffffffffffffffff\n        /* \"#utility.yul\":22865:22939   */\n      sub\n        /* \"#utility.yul\":22862:22863   */\n      dup3\n        /* \"#utility.yul\":22859:22940   */\n      gt\n        /* \"#utility.yul\":22856:22963   */\n      iszero\n      tag_708\n      jumpi\n        /* \"#utility.yul\":22943:22961   */\n      tag_709\n      tag_463\n      jump\t// in\n    tag_709:\n        /* \"#utility.yul\":22856:22963   */\n    tag_708:\n        /* \"#utility.yul\":22987:22988   */\n      dup3\n        /* \"#utility.yul\":22984:22985   */\n      dup3\n        /* \"#utility.yul\":22980:22989   */\n      add\n        /* \"#utility.yul\":22973:22989   */\n      swap1\n      pop\n        /* \"#utility.yul\":22690:22995   */\n      swap3\n      swap2\n      pop\n      pop\n      jump\t// out\n        /* \"#utility.yul\":23001:23181   */\n    tag_348:\n        /* \"#utility.yul\":23049:23126   */\n      0x4e487b7100000000000000000000000000000000000000000000000000000000\n        /* \"#utility.yul\":23046:23047   */\n      0x00\n        /* \"#utility.yul\":23039:23127   */\n      mstore\n        /* \"#utility.yul\":23146:23150   */\n      0x31\n        /* \"#utility.yul\":23143:23144   */\n      0x04\n        /* \"#utility.yul\":23136:23151   */\n      mstore\n        /* \"#utility.yul\":23170:23174   */\n      0x24\n        /* \"#utility.yul\":23167:23168   */\n      0x00\n        /* \"#utility.yul\":23160:23175   */\n      revert\n    stop\n\n    sub_0: assembly {\n            /* \"Contracts\":9681:10838  contract AccountabilityContractApprovalRequest {... */\n          mstore(0x40, 0x80)\n            /* \"Contracts\":9941:10318  constructor(address _accountabilityContractAddress) {... */\n          callvalue\n          dup1\n          iszero\n          tag_1\n          jumpi\n          0x00\n          dup1\n          revert\n        tag_1:\n          pop\n          mload(0x40)\n          sub(codesize, bytecodeSize)\n          dup1\n          bytecodeSize\n          dup4\n          codecopy\n          dup2\n          dup2\n          add\n          0x40\n          mstore\n          dup2\n          add\n          swap1\n          tag_2\n          swap2\n          swap1\n          tag_3\n          jump\t// in\n        tag_2:\n            /* \"Contracts\":10003:10048  AccountabilityContract accountabilityContract */\n          0x00\n            /* \"Contracts\":10074:10104  _accountabilityContractAddress */\n          dup2\n            /* \"Contracts\":10003:10105  AccountabilityContract accountabilityContract = AccountabilityContract(_accountabilityContractAddress) */\n          swap1\n          pop\n            /* \"Contracts\":10125:10147  accountabilityContract */\n          dup1\n            /* \"Contracts\":10125:10155  accountabilityContract.creator */\n          0xffffffffffffffffffffffffffffffffffffffff\n          and\n          0x02d05d3f\n            /* \"Contracts\":10125:10157  accountabilityContract.creator() */\n          mload(0x40)\n          dup2\n          0xffffffff\n          and\n          0xe0\n          shl\n          dup2\n          mstore\n          0x04\n          add\n          0x20\n          mload(0x40)\n          dup1\n          dup4\n          sub\n          dup2\n          dup7\n          gas\n          staticcall\n          iszero\n          dup1\n          iszero\n          tag_7\n          jumpi\n          returndatasize\n          0x00\n          dup1\n          returndatacopy\n          revert(0x00, returndatasize)\n        tag_7:\n          pop\n          pop\n          pop\n          pop\n          mload(0x40)\n          returndatasize\n          not(0x1f)\n          0x1f\n          dup3\n          add\n          and\n          dup3\n          add\n          dup1\n          0x40\n          mstore\n          pop\n          dup2\n          add\n          swap1\n          tag_8\n          swap2\n          swap1\n          tag_3\n          jump\t// in\n        tag_8:\n            /* \"Contracts\":10115:10122  creator */\n          0x00\n          dup1\n            /* \"Contracts\":10115:10157  creator = accountabilityContract.creator() */\n          0x0100\n          exp\n          dup2\n          sload\n          dup2\n          0xffffffffffffffffffffffffffffffffffffffff\n          mul\n          not\n          and\n          swap1\n          dup4\n          0xffffffffffffffffffffffffffffffffffffffff\n          and\n          mul\n          or\n          swap1\n          sstore\n          pop\n            /* \"Contracts\":10177:10199  accountabilityContract */\n          dup1\n            /* \"Contracts\":10177:10207  accountabilityContract.referee */\n          0xffffffffffffffffffffffffffffffffffffffff\n          and\n          0x3b1bebd1\n            /* \"Contracts\":10177:10209  accountabilityContract.referee() */\n          mload(0x40)\n          dup2\n          0xffffffff\n          and\n          0xe0\n          shl\n          dup2\n          mstore\n          0x04\n          add\n          0x20\n          mload(0x40)\n          dup1\n          dup4\n          sub\n          dup2\n          dup7\n          gas\n          staticcall\n          iszero\n          dup1\n          iszero\n          tag_10\n          jumpi\n          returndatasize\n          0x00\n          dup1\n          returndatacopy\n          revert(0x00, returndatasize)\n        tag_10:\n          pop\n          pop\n          pop\n          pop\n          mload(0x40)\n          returndatasize\n          not(0x1f)\n          0x1f\n          dup3\n          add\n          and\n          dup3\n          add\n          dup1\n          0x40\n          mstore\n          pop\n          dup2\n          add\n          swap1\n          tag_11\n          swap2\n          swap1\n          tag_3\n          jump\t// in\n        tag_11:\n            /* \"Contracts\":10167:10174  referee */\n          0x01\n          0x00\n            /* \"Contracts\":10167:10209  referee = accountabilityContract.referee() */\n          0x0100\n          exp\n          dup2\n          sload\n          dup2\n          0xffffffffffffffffffffffffffffffffffffffff\n          mul\n          not\n          and\n          swap1\n          dup4\n          0xffffffffffffffffffffffffffffffffffffffff\n          and\n          mul\n          or\n          swap1\n          sstore\n          pop\n            /* \"Contracts\":10251:10281  _accountabilityContractAddress */\n          dup2\n            /* \"Contracts\":10219:10248  accountabilityContractAddress */\n          0x02\n          0x00\n            /* \"Contracts\":10219:10281  accountabilityContractAddress = _accountabilityContractAddress */\n          0x0100\n          exp\n          dup2\n          sload\n          dup2\n          0xffffffffffffffffffffffffffffffffffffffff\n          mul\n          not\n          and\n          swap1\n          dup4\n          0xffffffffffffffffffffffffffffffffffffffff\n          and\n          mul\n          or\n          swap1\n          sstore\n          pop\n            /* \"Contracts\":10300:10311  Status.OPEN */\n          0x00\n            /* \"Contracts\":10291:10297  status */\n          0x02\n          0x14\n            /* \"Contracts\":10291:10311  status = Status.OPEN */\n          0x0100\n          exp\n          dup2\n          sload\n          dup2\n          0xff\n          mul\n          not\n          and\n          swap1\n          dup4\n          0x02\n          dup2\n          gt\n          iszero\n          tag_12\n          jumpi\n          tag_13\n          tag_14\n          jump\t// in\n        tag_13:\n        tag_12:\n          mul\n          or\n          swap1\n          sstore\n          pop\n            /* \"Contracts\":9993:10318  {... */\n          pop\n            /* \"Contracts\":9941:10318  constructor(address _accountabilityContractAddress) {... */\n          pop\n            /* \"Contracts\":9681:10838  contract AccountabilityContractApprovalRequest {... */\n          jump(tag_15)\n            /* \"#utility.yul\":88:205   */\n        tag_17:\n            /* \"#utility.yul\":197:198   */\n          0x00\n            /* \"#utility.yul\":194:195   */\n          dup1\n            /* \"#utility.yul\":187:199   */\n          revert\n            /* \"#utility.yul\":334:460   */\n        tag_19:\n            /* \"#utility.yul\":371:378   */\n          0x00\n            /* \"#utility.yul\":411:453   */\n          0xffffffffffffffffffffffffffffffffffffffff\n            /* \"#utility.yul\":404:409   */\n          dup3\n            /* \"#utility.yul\":400:454   */\n          and\n            /* \"#utility.yul\":389:454   */\n          swap1\n          pop\n            /* \"#utility.yul\":334:460   */\n          swap2\n          swap1\n          pop\n          jump\t// out\n            /* \"#utility.yul\":466:562   */\n        tag_20:\n            /* \"#utility.yul\":503:510   */\n          0x00\n            /* \"#utility.yul\":532:556   */\n          tag_29\n            /* \"#utility.yul\":550:555   */\n          dup3\n            /* \"#utility.yul\":532:556   */\n          tag_19\n          jump\t// in\n        tag_29:\n            /* \"#utility.yul\":521:556   */\n          swap1\n          pop\n            /* \"#utility.yul\":466:562   */\n          swap2\n          swap1\n          pop\n          jump\t// out\n            /* \"#utility.yul\":568:690   */\n        tag_21:\n            /* \"#utility.yul\":641:665   */\n          tag_31\n            /* \"#utility.yul\":659:664   */\n          dup2\n            /* \"#utility.yul\":641:665   */\n          tag_20\n          jump\t// in\n        tag_31:\n            /* \"#utility.yul\":634:639   */\n          dup2\n            /* \"#utility.yul\":631:666   */\n          eq\n            /* \"#utility.yul\":621:684   */\n          tag_32\n          jumpi\n            /* \"#utility.yul\":680:681   */\n          0x00\n            /* \"#utility.yul\":677:678   */\n          dup1\n            /* \"#utility.yul\":670:682   */\n          revert\n            /* \"#utility.yul\":621:684   */\n        tag_32:\n            /* \"#utility.yul\":568:690   */\n          pop\n          jump\t// out\n            /* \"#utility.yul\":696:839   */\n        tag_22:\n            /* \"#utility.yul\":753:758   */\n          0x00\n            /* \"#utility.yul\":784:790   */\n          dup2\n            /* \"#utility.yul\":778:791   */\n          mload\n            /* \"#utility.yul\":769:791   */\n          swap1\n          pop\n            /* \"#utility.yul\":800:833   */\n          tag_34\n            /* \"#utility.yul\":827:832   */\n          dup2\n            /* \"#utility.yul\":800:833   */\n          tag_21\n          jump\t// in\n        tag_34:\n            /* \"#utility.yul\":696:839   */\n          swap3\n          swap2\n          pop\n          pop\n          jump\t// out\n            /* \"#utility.yul\":845:1196   */\n        tag_3:\n            /* \"#utility.yul\":915:921   */\n          0x00\n            /* \"#utility.yul\":964:966   */\n          0x20\n            /* \"#utility.yul\":952:961   */\n          dup3\n            /* \"#utility.yul\":943:950   */\n          dup5\n            /* \"#utility.yul\":939:962   */\n          sub\n            /* \"#utility.yul\":935:967   */\n          slt\n            /* \"#utility.yul\":932:1051   */\n          iszero\n          tag_36\n          jumpi\n            /* \"#utility.yul\":970:1049   */\n          tag_37\n          tag_17\n          jump\t// in\n        tag_37:\n            /* \"#utility.yul\":932:1051   */\n        tag_36:\n            /* \"#utility.yul\":1090:1091   */\n          0x00\n            /* \"#utility.yul\":1115:1179   */\n          tag_38\n            /* \"#utility.yul\":1171:1178   */\n          dup5\n            /* \"#utility.yul\":1162:1168   */\n          dup3\n            /* \"#utility.yul\":1151:1160   */\n          dup6\n            /* \"#utility.yul\":1147:1169   */\n          add\n            /* \"#utility.yul\":1115:1179   */\n          tag_22\n          jump\t// in\n        tag_38:\n            /* \"#utility.yul\":1105:1179   */\n          swap2\n          pop\n            /* \"#utility.yul\":1061:1189   */\n          pop\n            /* \"#utility.yul\":845:1196   */\n          swap3\n          swap2\n          pop\n          pop\n          jump\t// out\n            /* \"#utility.yul\":1202:1382   */\n        tag_14:\n            /* \"#utility.yul\":1250:1327   */\n          0x4e487b7100000000000000000000000000000000000000000000000000000000\n            /* \"#utility.yul\":1247:1248   */\n          0x00\n            /* \"#utility.yul\":1240:1328   */\n          mstore\n            /* \"#utility.yul\":1347:1351   */\n          0x21\n            /* \"#utility.yul\":1344:1345   */\n          0x04\n            /* \"#utility.yul\":1337:1352   */\n          mstore\n            /* \"#utility.yul\":1371:1375   */\n          0x24\n            /* \"#utility.yul\":1368:1369   */\n          0x00\n            /* \"#utility.yul\":1361:1376   */\n          revert\n            /* \"Contracts\":9681:10838  contract AccountabilityContractApprovalRequest {... */\n        tag_15:\n          dataSize(sub_0)\n          dup1\n          dataOffset(sub_0)\n          0x00\n          codecopy\n          0x00\n          return\n        stop\n\n        sub_0: assembly {\n                /* \"Contracts\":9681:10838  contract AccountabilityContractApprovalRequest {... */\n              mstore(0x40, 0x80)\n              callvalue\n              dup1\n              iszero\n              tag_1\n              jumpi\n              0x00\n              dup1\n              revert\n            tag_1:\n              pop\n              jumpi(tag_2, lt(calldatasize, 0x04))\n              shr(0xe0, calldataload(0x00))\n              dup1\n              0x3b1bebd1\n              gt\n              tag_10\n              jumpi\n              dup1\n              0x3b1bebd1\n              eq\n              tag_6\n              jumpi\n              dup1\n              0x3c490174\n              eq\n              tag_7\n              jumpi\n              dup1\n              0x7a7f01a7\n              eq\n              tag_8\n              jumpi\n              dup1\n              0xd69b7ce3\n              eq\n              tag_9\n              jumpi\n              jump(tag_2)\n            tag_10:\n              dup1\n              0x02d05d3f\n              eq\n              tag_3\n              jumpi\n              dup1\n              0x200d2ed2\n              eq\n              tag_4\n              jumpi\n              dup1\n              0x263b81c9\n              eq\n              tag_5\n              jumpi\n            tag_2:\n              0x00\n              dup1\n              revert\n                /* \"Contracts\":9734:9756  address public creator */\n            tag_3:\n              tag_11\n              tag_12\n              jump\t// in\n            tag_11:\n              mload(0x40)\n              tag_13\n              swap2\n              swap1\n              tag_14\n              jump\t// in\n            tag_13:\n              mload(0x40)\n              dup1\n              swap2\n              sub\n              swap1\n              return\n                /* \"Contracts\":9882:9902  Status public status */\n            tag_4:\n              tag_15\n              tag_16\n              jump\t// in\n            tag_15:\n              mload(0x40)\n              tag_17\n              swap2\n              swap1\n              tag_18\n              jump\t// in\n            tag_17:\n              mload(0x40)\n              dup1\n              swap2\n              sub\n              swap1\n              return\n                /* \"Contracts\":10324:10552  function approveRequest() public  returns (AccountabilityContractApprovalRequest) {... */\n            tag_5:\n              tag_19\n              tag_20\n              jump\t// in\n            tag_19:\n              mload(0x40)\n              tag_21\n              swap2\n              swap1\n              tag_22\n              jump\t// in\n            tag_21:\n              mload(0x40)\n              dup1\n              swap2\n              sub\n              swap1\n              return\n                /* \"Contracts\":9762:9784  address public referee */\n            tag_6:\n              tag_23\n              tag_24\n              jump\t// in\n            tag_23:\n              mload(0x40)\n              tag_25\n              swap2\n              swap1\n              tag_14\n              jump\t// in\n            tag_25:\n              mload(0x40)\n              dup1\n              swap2\n              sub\n              swap1\n              return\n                /* \"Contracts\":9790:9834  address public accountabilityContractAddress */\n            tag_7:\n              tag_26\n              tag_27\n              jump\t// in\n            tag_26:\n              mload(0x40)\n              tag_28\n              swap2\n              swap1\n              tag_14\n              jump\t// in\n            tag_28:\n              mload(0x40)\n              dup1\n              swap2\n              sub\n              swap1\n              return\n                /* \"Contracts\":9908:9930  string public response */\n            tag_8:\n              tag_29\n              tag_30\n              jump\t// in\n            tag_29:\n              mload(0x40)\n              tag_31\n              swap2\n              swap1\n              tag_32\n              jump\t// in\n            tag_31:\n              mload(0x40)\n              dup1\n              swap2\n              sub\n              swap1\n              return\n                /* \"Contracts\":10559:10835  function rejectRequest(string memory _response) public  returns (AccountabilityContractApprovalRequest) {... */\n            tag_9:\n              tag_33\n              0x04\n              dup1\n              calldatasize\n              sub\n              dup2\n              add\n              swap1\n              tag_34\n              swap2\n              swap1\n              tag_35\n              jump\t// in\n            tag_34:\n              tag_36\n              jump\t// in\n            tag_33:\n              mload(0x40)\n              tag_37\n              swap2\n              swap1\n              tag_22\n              jump\t// in\n            tag_37:\n              mload(0x40)\n              dup1\n              swap2\n              sub\n              swap1\n              return\n                /* \"Contracts\":9734:9756  address public creator */\n            tag_12:\n              0x00\n              dup1\n              sload\n              swap1\n              0x0100\n              exp\n              swap1\n              div\n              0xffffffffffffffffffffffffffffffffffffffff\n              and\n              dup2\n              jump\t// out\n                /* \"Contracts\":9882:9902  Status public status */\n            tag_16:\n              0x02\n              0x14\n              swap1\n              sload\n              swap1\n              0x0100\n              exp\n              swap1\n              div\n              0xff\n              and\n              dup2\n              jump\t// out\n                /* \"Contracts\":10324:10552  function approveRequest() public  returns (AccountabilityContractApprovalRequest) {... */\n            tag_20:\n                /* \"Contracts\":10367:10404  AccountabilityContractApprovalRequest */\n              0x00\n                /* \"Contracts\":10437:10444  referee */\n              0x01\n              0x00\n              swap1\n              sload\n              swap1\n              0x0100\n              exp\n              swap1\n              div\n              0xffffffffffffffffffffffffffffffffffffffff\n              and\n                /* \"Contracts\":10424:10444  tx.origin == referee */\n              0xffffffffffffffffffffffffffffffffffffffff\n              and\n                /* \"Contracts\":10424:10433  tx.origin */\n              origin\n                /* \"Contracts\":10424:10444  tx.origin == referee */\n              0xffffffffffffffffffffffffffffffffffffffff\n              and\n              eq\n                /* \"Contracts\":10416:10490  require(tx.origin == referee, \"Only referee can approve approval request\") */\n              tag_39\n              jumpi\n              mload(0x40)\n              0x08c379a000000000000000000000000000000000000000000000000000000000\n              dup2\n              mstore\n              0x04\n              add\n              tag_40\n              swap1\n              tag_41\n              jump\t// in\n            tag_40:\n              mload(0x40)\n              dup1\n              swap2\n              sub\n              swap1\n              revert\n            tag_39:\n                /* \"Contracts\":10509:10524  Status.APPROVED */\n              0x01\n                /* \"Contracts\":10500:10506  status */\n              0x02\n              0x14\n                /* \"Contracts\":10500:10524  status = Status.APPROVED */\n              0x0100\n              exp\n              dup2\n              sload\n              dup2\n              0xff\n              mul\n              not\n              and\n              swap1\n              dup4\n              0x02\n              dup2\n              gt\n              iszero\n              tag_42\n              jumpi\n              tag_43\n              tag_44\n              jump\t// in\n            tag_43:\n            tag_42:\n              mul\n              or\n              swap1\n              sstore\n              pop\n                /* \"Contracts\":10541:10545  this */\n              address\n                /* \"Contracts\":10534:10545  return this */\n              swap1\n              pop\n                /* \"Contracts\":10324:10552  function approveRequest() public  returns (AccountabilityContractApprovalRequest) {... */\n              swap1\n              jump\t// out\n                /* \"Contracts\":9762:9784  address public referee */\n            tag_24:\n              0x01\n              0x00\n              swap1\n              sload\n              swap1\n              0x0100\n              exp\n              swap1\n              div\n              0xffffffffffffffffffffffffffffffffffffffff\n              and\n              dup2\n              jump\t// out\n                /* \"Contracts\":9790:9834  address public accountabilityContractAddress */\n            tag_27:\n              0x02\n              0x00\n              swap1\n              sload\n              swap1\n              0x0100\n              exp\n              swap1\n              div\n              0xffffffffffffffffffffffffffffffffffffffff\n              and\n              dup2\n              jump\t// out\n                /* \"Contracts\":9908:9930  string public response */\n            tag_30:\n              0x03\n              dup1\n              sload\n              tag_45\n              swap1\n              tag_46\n              jump\t// in\n            tag_45:\n              dup1\n              0x1f\n              add\n              0x20\n              dup1\n              swap2\n              div\n              mul\n              0x20\n              add\n              mload(0x40)\n              swap1\n              dup2\n              add\n              0x40\n              mstore\n              dup1\n              swap3\n              swap2\n              swap1\n              dup2\n              dup2\n              mstore\n              0x20\n              add\n              dup3\n              dup1\n              sload\n              tag_47\n              swap1\n              tag_46\n              jump\t// in\n            tag_47:\n              dup1\n              iszero\n              tag_48\n              jumpi\n              dup1\n              0x1f\n              lt\n              tag_49\n              jumpi\n              0x0100\n              dup1\n              dup4\n              sload\n              div\n              mul\n              dup4\n              mstore\n              swap2\n              0x20\n              add\n              swap2\n              jump(tag_48)\n            tag_49:\n              dup3\n              add\n              swap2\n              swap1\n              0x00\n              mstore\n              keccak256(0x00, 0x20)\n              swap1\n            tag_50:\n              dup2\n              sload\n              dup2\n              mstore\n              swap1\n              0x01\n              add\n              swap1\n              0x20\n              add\n              dup1\n              dup4\n              gt\n              tag_50\n              jumpi\n              dup3\n              swap1\n              sub\n              0x1f\n              and\n              dup3\n              add\n              swap2\n            tag_48:\n              pop\n              pop\n              pop\n              pop\n              pop\n              dup2\n              jump\t// out\n                /* \"Contracts\":10559:10835  function rejectRequest(string memory _response) public  returns (AccountabilityContractApprovalRequest) {... */\n            tag_36:\n                /* \"Contracts\":10624:10661  AccountabilityContractApprovalRequest */\n              0x00\n                /* \"Contracts\":10694:10701  referee */\n              0x01\n              0x00\n              swap1\n              sload\n              swap1\n              0x0100\n              exp\n              swap1\n              div\n              0xffffffffffffffffffffffffffffffffffffffff\n              and\n                /* \"Contracts\":10681:10701  tx.origin == referee */\n              0xffffffffffffffffffffffffffffffffffffffff\n              and\n                /* \"Contracts\":10681:10690  tx.origin */\n              origin\n                /* \"Contracts\":10681:10701  tx.origin == referee */\n              0xffffffffffffffffffffffffffffffffffffffff\n              and\n              eq\n                /* \"Contracts\":10673:10745  require(tx.origin == referee, \"Only referee can rject approval request\") */\n              tag_52\n              jumpi\n              mload(0x40)\n              0x08c379a000000000000000000000000000000000000000000000000000000000\n              dup2\n              mstore\n              0x04\n              add\n              tag_53\n              swap1\n              tag_54\n              jump\t// in\n            tag_53:\n              mload(0x40)\n              dup1\n              swap2\n              sub\n              swap1\n              revert\n            tag_52:\n                /* \"Contracts\":10764:10777  Status.DENIED */\n              0x02\n                /* \"Contracts\":10755:10761  status */\n              dup1\n              0x14\n                /* \"Contracts\":10755:10777  status = Status.DENIED */\n              0x0100\n              exp\n              dup2\n              sload\n              dup2\n              0xff\n              mul\n              not\n              and\n              swap1\n              dup4\n              0x02\n              dup2\n              gt\n              iszero\n              tag_55\n              jumpi\n              tag_56\n              tag_44\n              jump\t// in\n            tag_56:\n            tag_55:\n              mul\n              or\n              swap1\n              sstore\n              pop\n                /* \"Contracts\":10798:10807  _response */\n              dup2\n                /* \"Contracts\":10787:10795  response */\n              0x03\n                /* \"Contracts\":10787:10807  response = _response */\n              swap1\n              dup1\n              mload\n              swap1\n              0x20\n              add\n              swap1\n              tag_57\n              swap3\n              swap2\n              swap1\n              tag_58\n              jump\t// in\n            tag_57:\n              pop\n                /* \"Contracts\":10824:10828  this */\n              address\n                /* \"Contracts\":10817:10828  return this */\n              swap1\n              pop\n                /* \"Contracts\":10559:10835  function rejectRequest(string memory _response) public  returns (AccountabilityContractApprovalRequest) {... */\n              swap2\n              swap1\n              pop\n              jump\t// out\n            tag_58:\n              dup3\n              dup1\n              sload\n              tag_59\n              swap1\n              tag_46\n              jump\t// in\n            tag_59:\n              swap1\n              0x00\n              mstore\n              keccak256(0x00, 0x20)\n              swap1\n              0x1f\n              add\n              0x20\n              swap1\n              div\n              dup2\n              add\n              swap3\n              dup3\n              tag_61\n              jumpi\n              0x00\n              dup6\n              sstore\n              jump(tag_60)\n            tag_61:\n              dup3\n              0x1f\n              lt\n              tag_62\n              jumpi\n              dup1\n              mload\n              not(0xff)\n              and\n              dup4\n              dup1\n              add\n              or\n              dup6\n              sstore\n              jump(tag_60)\n            tag_62:\n              dup3\n              dup1\n              add\n              0x01\n              add\n              dup6\n              sstore\n              dup3\n              iszero\n              tag_60\n              jumpi\n              swap2\n              dup3\n              add\n            tag_63:\n              dup3\n              dup2\n              gt\n              iszero\n              tag_64\n              jumpi\n              dup3\n              mload\n              dup3\n              sstore\n              swap2\n              0x20\n              add\n              swap2\n              swap1\n              0x01\n              add\n              swap1\n              jump(tag_63)\n            tag_64:\n            tag_60:\n              pop\n              swap1\n              pop\n              tag_65\n              swap2\n              swap1\n              tag_66\n              jump\t// in\n            tag_65:\n              pop\n              swap1\n              jump\t// out\n            tag_66:\n            tag_67:\n              dup1\n              dup3\n              gt\n              iszero\n              tag_68\n              jumpi\n              0x00\n              dup2\n              0x00\n              swap1\n              sstore\n              pop\n              0x01\n              add\n              jump(tag_67)\n            tag_68:\n              pop\n              swap1\n              jump\t// out\n                /* \"#utility.yul\":7:133   */\n            tag_69:\n                /* \"#utility.yul\":44:51   */\n              0x00\n                /* \"#utility.yul\":84:126   */\n              0xffffffffffffffffffffffffffffffffffffffff\n                /* \"#utility.yul\":77:82   */\n              dup3\n                /* \"#utility.yul\":73:127   */\n              and\n                /* \"#utility.yul\":62:127   */\n              swap1\n              pop\n                /* \"#utility.yul\":7:133   */\n              swap2\n              swap1\n              pop\n              jump\t// out\n                /* \"#utility.yul\":139:235   */\n            tag_70:\n                /* \"#utility.yul\":176:183   */\n              0x00\n                /* \"#utility.yul\":205:229   */\n              tag_106\n                /* \"#utility.yul\":223:228   */\n              dup3\n                /* \"#utility.yul\":205:229   */\n              tag_69\n              jump\t// in\n            tag_106:\n                /* \"#utility.yul\":194:229   */\n              swap1\n              pop\n                /* \"#utility.yul\":139:235   */\n              swap2\n              swap1\n              pop\n              jump\t// out\n                /* \"#utility.yul\":241:359   */\n            tag_71:\n                /* \"#utility.yul\":328:352   */\n              tag_108\n                /* \"#utility.yul\":346:351   */\n              dup2\n                /* \"#utility.yul\":328:352   */\n              tag_70\n              jump\t// in\n            tag_108:\n                /* \"#utility.yul\":323:326   */\n              dup3\n                /* \"#utility.yul\":316:353   */\n              mstore\n                /* \"#utility.yul\":241:359   */\n              pop\n              pop\n              jump\t// out\n                /* \"#utility.yul\":365:587   */\n            tag_14:\n                /* \"#utility.yul\":458:462   */\n              0x00\n                /* \"#utility.yul\":496:498   */\n              0x20\n                /* \"#utility.yul\":485:494   */\n              dup3\n                /* \"#utility.yul\":481:499   */\n              add\n                /* \"#utility.yul\":473:499   */\n              swap1\n              pop\n                /* \"#utility.yul\":509:580   */\n              tag_110\n                /* \"#utility.yul\":577:578   */\n              0x00\n                /* \"#utility.yul\":566:575   */\n              dup4\n                /* \"#utility.yul\":562:579   */\n              add\n                /* \"#utility.yul\":553:559   */\n              dup5\n                /* \"#utility.yul\":509:580   */\n              tag_71\n              jump\t// in\n            tag_110:\n                /* \"#utility.yul\":365:587   */\n              swap3\n              swap2\n              pop\n              pop\n              jump\t// out\n                /* \"#utility.yul\":593:773   */\n            tag_44:\n                /* \"#utility.yul\":641:718   */\n              0x4e487b7100000000000000000000000000000000000000000000000000000000\n                /* \"#utility.yul\":638:639   */\n              0x00\n                /* \"#utility.yul\":631:719   */\n              mstore\n                /* \"#utility.yul\":738:742   */\n              0x21\n                /* \"#utility.yul\":735:736   */\n              0x04\n                /* \"#utility.yul\":728:743   */\n              mstore\n                /* \"#utility.yul\":762:766   */\n              0x24\n                /* \"#utility.yul\":759:760   */\n              0x00\n                /* \"#utility.yul\":752:767   */\n              revert\n                /* \"#utility.yul\":779:894   */\n            tag_72:\n                /* \"#utility.yul\":862:863   */\n              0x03\n                /* \"#utility.yul\":855:860   */\n              dup2\n                /* \"#utility.yul\":852:864   */\n              lt\n                /* \"#utility.yul\":842:888   */\n              tag_113\n              jumpi\n                /* \"#utility.yul\":868:886   */\n              tag_114\n              tag_44\n              jump\t// in\n            tag_114:\n                /* \"#utility.yul\":842:888   */\n            tag_113:\n                /* \"#utility.yul\":779:894   */\n              pop\n              jump\t// out\n                /* \"#utility.yul\":900:1031   */\n            tag_73:\n                /* \"#utility.yul\":947:954   */\n              0x00\n                /* \"#utility.yul\":976:981   */\n              dup2\n                /* \"#utility.yul\":965:981   */\n              swap1\n              pop\n                /* \"#utility.yul\":982:1025   */\n              tag_116\n                /* \"#utility.yul\":1019:1024   */\n              dup3\n                /* \"#utility.yul\":982:1025   */\n              tag_72\n              jump\t// in\n            tag_116:\n                /* \"#utility.yul\":900:1031   */\n              swap2\n              swap1\n              pop\n              jump\t// out\n                /* \"#utility.yul\":1037:1168   */\n            tag_74:\n                /* \"#utility.yul\":1095:1104   */\n              0x00\n                /* \"#utility.yul\":1128:1162   */\n              tag_118\n                /* \"#utility.yul\":1156:1161   */\n              dup3\n                /* \"#utility.yul\":1128:1162   */\n              tag_73\n              jump\t// in\n            tag_118:\n                /* \"#utility.yul\":1115:1162   */\n              swap1\n              pop\n                /* \"#utility.yul\":1037:1168   */\n              swap2\n              swap1\n              pop\n              jump\t// out\n                /* \"#utility.yul\":1174:1321   */\n            tag_75:\n                /* \"#utility.yul\":1269:1314   */\n              tag_120\n                /* \"#utility.yul\":1308:1313   */\n              dup2\n                /* \"#utility.yul\":1269:1314   */\n              tag_74\n              jump\t// in\n            tag_120:\n                /* \"#utility.yul\":1264:1267   */\n              dup3\n                /* \"#utility.yul\":1257:1315   */\n              mstore\n                /* \"#utility.yul\":1174:1321   */\n              pop\n              pop\n              jump\t// out\n                /* \"#utility.yul\":1327:1565   */\n            tag_18:\n                /* \"#utility.yul\":1428:1432   */\n              0x00\n                /* \"#utility.yul\":1466:1468   */\n              0x20\n                /* \"#utility.yul\":1455:1464   */\n              dup3\n                /* \"#utility.yul\":1451:1469   */\n              add\n                /* \"#utility.yul\":1443:1469   */\n              swap1\n              pop\n                /* \"#utility.yul\":1479:1558   */\n              tag_122\n                /* \"#utility.yul\":1555:1556   */\n              0x00\n                /* \"#utility.yul\":1544:1553   */\n              dup4\n                /* \"#utility.yul\":1540:1557   */\n              add\n                /* \"#utility.yul\":1531:1537   */\n              dup5\n                /* \"#utility.yul\":1479:1558   */\n              tag_75\n              jump\t// in\n            tag_122:\n                /* \"#utility.yul\":1327:1565   */\n              swap3\n              swap2\n              pop\n              pop\n              jump\t// out\n                /* \"#utility.yul\":1571:1631   */\n            tag_76:\n                /* \"#utility.yul\":1599:1602   */\n              0x00\n                /* \"#utility.yul\":1620:1625   */\n              dup2\n                /* \"#utility.yul\":1613:1625   */\n              swap1\n              pop\n                /* \"#utility.yul\":1571:1631   */\n              swap2\n              swap1\n              pop\n              jump\t// out\n                /* \"#utility.yul\":1637:1779   */\n            tag_77:\n                /* \"#utility.yul\":1687:1696   */\n              0x00\n                /* \"#utility.yul\":1720:1773   */\n              tag_125\n                /* \"#utility.yul\":1738:1772   */\n              tag_126\n                /* \"#utility.yul\":1747:1771   */\n              tag_127\n                /* \"#utility.yul\":1765:1770   */\n              dup5\n                /* \"#utility.yul\":1747:1771   */\n              tag_69\n              jump\t// in\n            tag_127:\n                /* \"#utility.yul\":1738:1772   */\n              tag_76\n              jump\t// in\n            tag_126:\n                /* \"#utility.yul\":1720:1773   */\n              tag_69\n              jump\t// in\n            tag_125:\n                /* \"#utility.yul\":1707:1773   */\n              swap1\n              pop\n                /* \"#utility.yul\":1637:1779   */\n              swap2\n              swap1\n              pop\n              jump\t// out\n                /* \"#utility.yul\":1785:1911   */\n            tag_78:\n                /* \"#utility.yul\":1835:1844   */\n              0x00\n                /* \"#utility.yul\":1868:1905   */\n              tag_129\n                /* \"#utility.yul\":1899:1904   */\n              dup3\n                /* \"#utility.yul\":1868:1905   */\n              tag_77\n              jump\t// in\n            tag_129:\n                /* \"#utility.yul\":1855:1905   */\n              swap1\n              pop\n                /* \"#utility.yul\":1785:1911   */\n              swap2\n              swap1\n              pop\n              jump\t// out\n                /* \"#utility.yul\":1917:2089   */\n            tag_79:\n                /* \"#utility.yul\":2013:2022   */\n              0x00\n                /* \"#utility.yul\":2046:2083   */\n              tag_131\n                /* \"#utility.yul\":2077:2082   */\n              dup3\n                /* \"#utility.yul\":2046:2083   */\n              tag_78\n              jump\t// in\n            tag_131:\n                /* \"#utility.yul\":2033:2083   */\n              swap1\n              pop\n                /* \"#utility.yul\":1917:2089   */\n              swap2\n              swap1\n              pop\n              jump\t// out\n                /* \"#utility.yul\":2095:2318   */\n            tag_80:\n                /* \"#utility.yul\":2228:2311   */\n              tag_133\n                /* \"#utility.yul\":2305:2310   */\n              dup2\n                /* \"#utility.yul\":2228:2311   */\n              tag_79\n              jump\t// in\n            tag_133:\n                /* \"#utility.yul\":2223:2226   */\n              dup3\n                /* \"#utility.yul\":2216:2312   */\n              mstore\n                /* \"#utility.yul\":2095:2318   */\n              pop\n              pop\n              jump\t// out\n                /* \"#utility.yul\":2324:2638   */\n            tag_22:\n                /* \"#utility.yul\":2463:2467   */\n              0x00\n                /* \"#utility.yul\":2501:2503   */\n              0x20\n                /* \"#utility.yul\":2490:2499   */\n              dup3\n                /* \"#utility.yul\":2486:2504   */\n              add\n                /* \"#utility.yul\":2478:2504   */\n              swap1\n              pop\n                /* \"#utility.yul\":2514:2631   */\n              tag_135\n                /* \"#utility.yul\":2628:2629   */\n              0x00\n                /* \"#utility.yul\":2617:2626   */\n              dup4\n                /* \"#utility.yul\":2613:2630   */\n              add\n                /* \"#utility.yul\":2604:2610   */\n              dup5\n                /* \"#utility.yul\":2514:2631   */\n              tag_80\n              jump\t// in\n            tag_135:\n                /* \"#utility.yul\":2324:2638   */\n              swap3\n              swap2\n              pop\n              pop\n              jump\t// out\n                /* \"#utility.yul\":2644:2743   */\n            tag_81:\n                /* \"#utility.yul\":2696:2702   */\n              0x00\n                /* \"#utility.yul\":2730:2735   */\n              dup2\n                /* \"#utility.yul\":2724:2736   */\n              mload\n                /* \"#utility.yul\":2714:2736   */\n              swap1\n              pop\n                /* \"#utility.yul\":2644:2743   */\n              swap2\n              swap1\n              pop\n              jump\t// out\n                /* \"#utility.yul\":2749:2918   */\n            tag_82:\n                /* \"#utility.yul\":2833:2844   */\n              0x00\n                /* \"#utility.yul\":2867:2873   */\n              dup3\n                /* \"#utility.yul\":2862:2865   */\n              dup3\n                /* \"#utility.yul\":2855:2874   */\n              mstore\n                /* \"#utility.yul\":2907:2911   */\n              0x20\n                /* \"#utility.yul\":2902:2905   */\n              dup3\n                /* \"#utility.yul\":2898:2912   */\n              add\n                /* \"#utility.yul\":2883:2912   */\n              swap1\n              pop\n                /* \"#utility.yul\":2749:2918   */\n              swap3\n              swap2\n              pop\n              pop\n              jump\t// out\n                /* \"#utility.yul\":2924:3231   */\n            tag_83:\n                /* \"#utility.yul\":2992:2993   */\n              0x00\n                /* \"#utility.yul\":3002:3115   */\n            tag_139:\n                /* \"#utility.yul\":3016:3022   */\n              dup4\n                /* \"#utility.yul\":3013:3014   */\n              dup2\n                /* \"#utility.yul\":3010:3023   */\n              lt\n                /* \"#utility.yul\":3002:3115   */\n              iszero\n              tag_141\n              jumpi\n                /* \"#utility.yul\":3101:3102   */\n              dup1\n                /* \"#utility.yul\":3096:3099   */\n              dup3\n                /* \"#utility.yul\":3092:3103   */\n              add\n                /* \"#utility.yul\":3086:3104   */\n              mload\n                /* \"#utility.yul\":3082:3083   */\n              dup2\n                /* \"#utility.yul\":3077:3080   */\n              dup5\n                /* \"#utility.yul\":3073:3084   */\n              add\n                /* \"#utility.yul\":3066:3105   */\n              mstore\n                /* \"#utility.yul\":3038:3040   */\n              0x20\n                /* \"#utility.yul\":3035:3036   */\n              dup2\n                /* \"#utility.yul\":3031:3041   */\n              add\n                /* \"#utility.yul\":3026:3041   */\n              swap1\n              pop\n                /* \"#utility.yul\":3002:3115   */\n              jump(tag_139)\n            tag_141:\n                /* \"#utility.yul\":3133:3139   */\n              dup4\n                /* \"#utility.yul\":3130:3131   */\n              dup2\n                /* \"#utility.yul\":3127:3140   */\n              gt\n                /* \"#utility.yul\":3124:3225   */\n              iszero\n              tag_142\n              jumpi\n                /* \"#utility.yul\":3213:3214   */\n              0x00\n                /* \"#utility.yul\":3204:3210   */\n              dup5\n                /* \"#utility.yul\":3199:3202   */\n              dup5\n                /* \"#utility.yul\":3195:3211   */\n              add\n                /* \"#utility.yul\":3188:3215   */\n              mstore\n                /* \"#utility.yul\":3124:3225   */\n            tag_142:\n                /* \"#utility.yul\":2973:3231   */\n              pop\n                /* \"#utility.yul\":2924:3231   */\n              pop\n              pop\n              pop\n              jump\t// out\n                /* \"#utility.yul\":3237:3339   */\n            tag_84:\n                /* \"#utility.yul\":3278:3284   */\n              0x00\n                /* \"#utility.yul\":3329:3331   */\n              0x1f\n                /* \"#utility.yul\":3325:3332   */\n              not\n                /* \"#utility.yul\":3320:3322   */\n              0x1f\n                /* \"#utility.yul\":3313:3318   */\n              dup4\n                /* \"#utility.yul\":3309:3323   */\n              add\n                /* \"#utility.yul\":3305:3333   */\n              and\n                /* \"#utility.yul\":3295:3333   */\n              swap1\n              pop\n                /* \"#utility.yul\":3237:3339   */\n              swap2\n              swap1\n              pop\n              jump\t// out\n                /* \"#utility.yul\":3345:3709   */\n            tag_85:\n                /* \"#utility.yul\":3433:3436   */\n              0x00\n                /* \"#utility.yul\":3461:3500   */\n              tag_145\n                /* \"#utility.yul\":3494:3499   */\n              dup3\n                /* \"#utility.yul\":3461:3500   */\n              tag_81\n              jump\t// in\n            tag_145:\n                /* \"#utility.yul\":3516:3587   */\n              tag_146\n                /* \"#utility.yul\":3580:3586   */\n              dup2\n                /* \"#utility.yul\":3575:3578   */\n              dup6\n                /* \"#utility.yul\":3516:3587   */\n              tag_82\n              jump\t// in\n            tag_146:\n                /* \"#utility.yul\":3509:3587   */\n              swap4\n              pop\n                /* \"#utility.yul\":3596:3648   */\n              tag_147\n                /* \"#utility.yul\":3641:3647   */\n              dup2\n                /* \"#utility.yul\":3636:3639   */\n              dup6\n                /* \"#utility.yul\":3629:3633   */\n              0x20\n                /* \"#utility.yul\":3622:3627   */\n              dup7\n                /* \"#utility.yul\":3618:3634   */\n              add\n                /* \"#utility.yul\":3596:3648   */\n              tag_83\n              jump\t// in\n            tag_147:\n                /* \"#utility.yul\":3673:3702   */\n              tag_148\n                /* \"#utility.yul\":3695:3701   */\n              dup2\n                /* \"#utility.yul\":3673:3702   */\n              tag_84\n              jump\t// in\n            tag_148:\n                /* \"#utility.yul\":3668:3671   */\n              dup5\n                /* \"#utility.yul\":3664:3703   */\n              add\n                /* \"#utility.yul\":3657:3703   */\n              swap2\n              pop\n                /* \"#utility.yul\":3437:3709   */\n              pop\n                /* \"#utility.yul\":3345:3709   */\n              swap3\n              swap2\n              pop\n              pop\n              jump\t// out\n                /* \"#utility.yul\":3715:4028   */\n            tag_32:\n                /* \"#utility.yul\":3828:3832   */\n              0x00\n                /* \"#utility.yul\":3866:3868   */\n              0x20\n                /* \"#utility.yul\":3855:3864   */\n              dup3\n                /* \"#utility.yul\":3851:3869   */\n              add\n                /* \"#utility.yul\":3843:3869   */\n              swap1\n              pop\n                /* \"#utility.yul\":3915:3924   */\n              dup2\n                /* \"#utility.yul\":3909:3913   */\n              dup2\n                /* \"#utility.yul\":3905:3925   */\n              sub\n                /* \"#utility.yul\":3901:3902   */\n              0x00\n                /* \"#utility.yul\":3890:3899   */\n              dup4\n                /* \"#utility.yul\":3886:3903   */\n              add\n                /* \"#utility.yul\":3879:3926   */\n              mstore\n                /* \"#utility.yul\":3943:4021   */\n              tag_150\n                /* \"#utility.yul\":4016:4020   */\n              dup2\n                /* \"#utility.yul\":4007:4013   */\n              dup5\n                /* \"#utility.yul\":3943:4021   */\n              tag_85\n              jump\t// in\n            tag_150:\n                /* \"#utility.yul\":3935:4021   */\n              swap1\n              pop\n                /* \"#utility.yul\":3715:4028   */\n              swap3\n              swap2\n              pop\n              pop\n              jump\t// out\n                /* \"#utility.yul\":4034:4109   */\n            tag_86:\n                /* \"#utility.yul\":4067:4073   */\n              0x00\n                /* \"#utility.yul\":4100:4102   */\n              0x40\n                /* \"#utility.yul\":4094:4103   */\n              mload\n                /* \"#utility.yul\":4084:4103   */\n              swap1\n              pop\n                /* \"#utility.yul\":4034:4109   */\n              swap1\n              jump\t// out\n                /* \"#utility.yul\":4115:4232   */\n            tag_87:\n                /* \"#utility.yul\":4224:4225   */\n              0x00\n                /* \"#utility.yul\":4221:4222   */\n              dup1\n                /* \"#utility.yul\":4214:4226   */\n              revert\n                /* \"#utility.yul\":4238:4355   */\n            tag_88:\n                /* \"#utility.yul\":4347:4348   */\n              0x00\n                /* \"#utility.yul\":4344:4345   */\n              dup1\n                /* \"#utility.yul\":4337:4349   */\n              revert\n                /* \"#utility.yul\":4361:4478   */\n            tag_89:\n                /* \"#utility.yul\":4470:4471   */\n              0x00\n                /* \"#utility.yul\":4467:4468   */\n              dup1\n                /* \"#utility.yul\":4460:4472   */\n              revert\n                /* \"#utility.yul\":4484:4601   */\n            tag_90:\n                /* \"#utility.yul\":4593:4594   */\n              0x00\n                /* \"#utility.yul\":4590:4591   */\n              dup1\n                /* \"#utility.yul\":4583:4595   */\n              revert\n                /* \"#utility.yul\":4607:4787   */\n            tag_91:\n                /* \"#utility.yul\":4655:4732   */\n              0x4e487b7100000000000000000000000000000000000000000000000000000000\n                /* \"#utility.yul\":4652:4653   */\n              0x00\n                /* \"#utility.yul\":4645:4733   */\n              mstore\n                /* \"#utility.yul\":4752:4756   */\n              0x41\n                /* \"#utility.yul\":4749:4750   */\n              0x04\n                /* \"#utility.yul\":4742:4757   */\n              mstore\n                /* \"#utility.yul\":4776:4780   */\n              0x24\n                /* \"#utility.yul\":4773:4774   */\n              0x00\n                /* \"#utility.yul\":4766:4781   */\n              revert\n                /* \"#utility.yul\":4793:5074   */\n            tag_92:\n                /* \"#utility.yul\":4876:4903   */\n              tag_158\n                /* \"#utility.yul\":4898:4902   */\n              dup3\n                /* \"#utility.yul\":4876:4903   */\n              tag_84\n              jump\t// in\n            tag_158:\n                /* \"#utility.yul\":4868:4874   */\n              dup2\n                /* \"#utility.yul\":4864:4904   */\n              add\n                /* \"#utility.yul\":5006:5012   */\n              dup2\n                /* \"#utility.yul\":4994:5004   */\n              dup2\n                /* \"#utility.yul\":4991:5013   */\n              lt\n                /* \"#utility.yul\":4970:4988   */\n              0xffffffffffffffff\n                /* \"#utility.yul\":4958:4968   */\n              dup3\n                /* \"#utility.yul\":4955:4989   */\n              gt\n                /* \"#utility.yul\":4952:5014   */\n              or\n                /* \"#utility.yul\":4949:5037   */\n              iszero\n              tag_159\n              jumpi\n                /* \"#utility.yul\":5017:5035   */\n              tag_160\n              tag_91\n              jump\t// in\n            tag_160:\n                /* \"#utility.yul\":4949:5037   */\n            tag_159:\n                /* \"#utility.yul\":5057:5067   */\n              dup1\n                /* \"#utility.yul\":5053:5055   */\n              0x40\n                /* \"#utility.yul\":5046:5068   */\n              mstore\n                /* \"#utility.yul\":4836:5074   */\n              pop\n                /* \"#utility.yul\":4793:5074   */\n              pop\n              pop\n              jump\t// out\n                /* \"#utility.yul\":5080:5209   */\n            tag_93:\n                /* \"#utility.yul\":5114:5120   */\n              0x00\n                /* \"#utility.yul\":5141:5161   */\n              tag_162\n              tag_86\n              jump\t// in\n            tag_162:\n                /* \"#utility.yul\":5131:5161   */\n              swap1\n              pop\n                /* \"#utility.yul\":5170:5203   */\n              tag_163\n                /* \"#utility.yul\":5198:5202   */\n              dup3\n                /* \"#utility.yul\":5190:5196   */\n              dup3\n                /* \"#utility.yul\":5170:5203   */\n              tag_92\n              jump\t// in\n            tag_163:\n                /* \"#utility.yul\":5080:5209   */\n              swap2\n              swap1\n              pop\n              jump\t// out\n                /* \"#utility.yul\":5215:5523   */\n            tag_94:\n                /* \"#utility.yul\":5277:5281   */\n              0x00\n                /* \"#utility.yul\":5367:5385   */\n              0xffffffffffffffff\n                /* \"#utility.yul\":5359:5365   */\n              dup3\n                /* \"#utility.yul\":5356:5386   */\n              gt\n                /* \"#utility.yul\":5353:5409   */\n              iszero\n              tag_165\n              jumpi\n                /* \"#utility.yul\":5389:5407   */\n              tag_166\n              tag_91\n              jump\t// in\n            tag_166:\n                /* \"#utility.yul\":5353:5409   */\n            tag_165:\n                /* \"#utility.yul\":5427:5456   */\n              tag_167\n                /* \"#utility.yul\":5449:5455   */\n              dup3\n                /* \"#utility.yul\":5427:5456   */\n              tag_84\n              jump\t// in\n            tag_167:\n                /* \"#utility.yul\":5419:5456   */\n              swap1\n              pop\n                /* \"#utility.yul\":5511:5515   */\n              0x20\n                /* \"#utility.yul\":5505:5509   */\n              dup2\n                /* \"#utility.yul\":5501:5516   */\n              add\n                /* \"#utility.yul\":5493:5516   */\n              swap1\n              pop\n                /* \"#utility.yul\":5215:5523   */\n              swap2\n              swap1\n              pop\n              jump\t// out\n                /* \"#utility.yul\":5529:5683   */\n            tag_95:\n                /* \"#utility.yul\":5613:5619   */\n              dup3\n                /* \"#utility.yul\":5608:5611   */\n              dup2\n                /* \"#utility.yul\":5603:5606   */\n              dup4\n                /* \"#utility.yul\":5590:5620   */\n              calldatacopy\n                /* \"#utility.yul\":5675:5676   */\n              0x00\n                /* \"#utility.yul\":5666:5672   */\n              dup4\n                /* \"#utility.yul\":5661:5664   */\n              dup4\n                /* \"#utility.yul\":5657:5673   */\n              add\n                /* \"#utility.yul\":5650:5677   */\n              mstore\n                /* \"#utility.yul\":5529:5683   */\n              pop\n              pop\n              pop\n              jump\t// out\n                /* \"#utility.yul\":5689:6101   */\n            tag_96:\n                /* \"#utility.yul\":5767:5772   */\n              0x00\n                /* \"#utility.yul\":5792:5858   */\n              tag_170\n                /* \"#utility.yul\":5808:5857   */\n              tag_171\n                /* \"#utility.yul\":5850:5856   */\n              dup5\n                /* \"#utility.yul\":5808:5857   */\n              tag_94\n              jump\t// in\n            tag_171:\n                /* \"#utility.yul\":5792:5858   */\n              tag_93\n              jump\t// in\n            tag_170:\n                /* \"#utility.yul\":5783:5858   */\n              swap1\n              pop\n                /* \"#utility.yul\":5881:5887   */\n              dup3\n                /* \"#utility.yul\":5874:5879   */\n              dup2\n                /* \"#utility.yul\":5867:5888   */\n              mstore\n                /* \"#utility.yul\":5919:5923   */\n              0x20\n                /* \"#utility.yul\":5912:5917   */\n              dup2\n                /* \"#utility.yul\":5908:5924   */\n              add\n                /* \"#utility.yul\":5957:5960   */\n              dup5\n                /* \"#utility.yul\":5948:5954   */\n              dup5\n                /* \"#utility.yul\":5943:5946   */\n              dup5\n                /* \"#utility.yul\":5939:5955   */\n              add\n                /* \"#utility.yul\":5936:5961   */\n              gt\n                /* \"#utility.yul\":5933:6045   */\n              iszero\n              tag_172\n              jumpi\n                /* \"#utility.yul\":5964:6043   */\n              tag_173\n              tag_90\n              jump\t// in\n            tag_173:\n                /* \"#utility.yul\":5933:6045   */\n            tag_172:\n                /* \"#utility.yul\":6054:6095   */\n              tag_174\n                /* \"#utility.yul\":6088:6094   */\n              dup5\n                /* \"#utility.yul\":6083:6086   */\n              dup3\n                /* \"#utility.yul\":6078:6081   */\n              dup6\n                /* \"#utility.yul\":6054:6095   */\n              tag_95\n              jump\t// in\n            tag_174:\n                /* \"#utility.yul\":5773:6101   */\n              pop\n                /* \"#utility.yul\":5689:6101   */\n              swap4\n              swap3\n              pop\n              pop\n              pop\n              jump\t// out\n                /* \"#utility.yul\":6121:6461   */\n            tag_97:\n                /* \"#utility.yul\":6177:6182   */\n              0x00\n                /* \"#utility.yul\":6226:6229   */\n              dup3\n                /* \"#utility.yul\":6219:6223   */\n              0x1f\n                /* \"#utility.yul\":6211:6217   */\n              dup4\n                /* \"#utility.yul\":6207:6224   */\n              add\n                /* \"#utility.yul\":6203:6230   */\n              slt\n                /* \"#utility.yul\":6193:6315   */\n              tag_176\n              jumpi\n                /* \"#utility.yul\":6234:6313   */\n              tag_177\n              tag_89\n              jump\t// in\n            tag_177:\n                /* \"#utility.yul\":6193:6315   */\n            tag_176:\n                /* \"#utility.yul\":6351:6357   */\n              dup2\n                /* \"#utility.yul\":6338:6358   */\n              calldataload\n                /* \"#utility.yul\":6376:6455   */\n              tag_178\n                /* \"#utility.yul\":6451:6454   */\n              dup5\n                /* \"#utility.yul\":6443:6449   */\n              dup3\n                /* \"#utility.yul\":6436:6440   */\n              0x20\n                /* \"#utility.yul\":6428:6434   */\n              dup7\n                /* \"#utility.yul\":6424:6441   */\n              add\n                /* \"#utility.yul\":6376:6455   */\n              tag_96\n              jump\t// in\n            tag_178:\n                /* \"#utility.yul\":6367:6455   */\n              swap2\n              pop\n                /* \"#utility.yul\":6183:6461   */\n              pop\n                /* \"#utility.yul\":6121:6461   */\n              swap3\n              swap2\n              pop\n              pop\n              jump\t// out\n                /* \"#utility.yul\":6467:6976   */\n            tag_35:\n                /* \"#utility.yul\":6536:6542   */\n              0x00\n                /* \"#utility.yul\":6585:6587   */\n              0x20\n                /* \"#utility.yul\":6573:6582   */\n              dup3\n                /* \"#utility.yul\":6564:6571   */\n              dup5\n                /* \"#utility.yul\":6560:6583   */\n              sub\n                /* \"#utility.yul\":6556:6588   */\n              slt\n                /* \"#utility.yul\":6553:6672   */\n              iszero\n              tag_180\n              jumpi\n                /* \"#utility.yul\":6591:6670   */\n              tag_181\n              tag_87\n              jump\t// in\n            tag_181:\n                /* \"#utility.yul\":6553:6672   */\n            tag_180:\n                /* \"#utility.yul\":6739:6740   */\n              0x00\n                /* \"#utility.yul\":6728:6737   */\n              dup3\n                /* \"#utility.yul\":6724:6741   */\n              add\n                /* \"#utility.yul\":6711:6742   */\n              calldataload\n                /* \"#utility.yul\":6769:6787   */\n              0xffffffffffffffff\n                /* \"#utility.yul\":6761:6767   */\n              dup2\n                /* \"#utility.yul\":6758:6788   */\n              gt\n                /* \"#utility.yul\":6755:6872   */\n              iszero\n              tag_182\n              jumpi\n                /* \"#utility.yul\":6791:6870   */\n              tag_183\n              tag_88\n              jump\t// in\n            tag_183:\n                /* \"#utility.yul\":6755:6872   */\n            tag_182:\n                /* \"#utility.yul\":6896:6959   */\n              tag_184\n                /* \"#utility.yul\":6951:6958   */\n              dup5\n                /* \"#utility.yul\":6942:6948   */\n              dup3\n                /* \"#utility.yul\":6931:6940   */\n              dup6\n                /* \"#utility.yul\":6927:6949   */\n              add\n                /* \"#utility.yul\":6896:6959   */\n              tag_97\n              jump\t// in\n            tag_184:\n                /* \"#utility.yul\":6886:6959   */\n              swap2\n              pop\n                /* \"#utility.yul\":6682:6969   */\n              pop\n                /* \"#utility.yul\":6467:6976   */\n              swap3\n              swap2\n              pop\n              pop\n              jump\t// out\n                /* \"#utility.yul\":6982:7210   */\n            tag_98:\n                /* \"#utility.yul\":7122:7156   */\n              0x4f6e6c7920726566657265652063616e20617070726f766520617070726f7661\n                /* \"#utility.yul\":7118:7119   */\n              0x00\n                /* \"#utility.yul\":7110:7116   */\n              dup3\n                /* \"#utility.yul\":7106:7120   */\n              add\n                /* \"#utility.yul\":7099:7157   */\n              mstore\n                /* \"#utility.yul\":7191:7202   */\n              0x6c20726571756573740000000000000000000000000000000000000000000000\n                /* \"#utility.yul\":7186:7188   */\n              0x20\n                /* \"#utility.yul\":7178:7184   */\n              dup3\n                /* \"#utility.yul\":7174:7189   */\n              add\n                /* \"#utility.yul\":7167:7203   */\n              mstore\n                /* \"#utility.yul\":6982:7210   */\n              pop\n              jump\t// out\n                /* \"#utility.yul\":7216:7582   */\n            tag_99:\n                /* \"#utility.yul\":7358:7361   */\n              0x00\n                /* \"#utility.yul\":7379:7446   */\n              tag_187\n                /* \"#utility.yul\":7443:7445   */\n              0x29\n                /* \"#utility.yul\":7438:7441   */\n              dup4\n                /* \"#utility.yul\":7379:7446   */\n              tag_82\n              jump\t// in\n            tag_187:\n                /* \"#utility.yul\":7372:7446   */\n              swap2\n              pop\n                /* \"#utility.yul\":7455:7548   */\n              tag_188\n                /* \"#utility.yul\":7544:7547   */\n              dup3\n                /* \"#utility.yul\":7455:7548   */\n              tag_98\n              jump\t// in\n            tag_188:\n                /* \"#utility.yul\":7573:7575   */\n              0x40\n                /* \"#utility.yul\":7568:7571   */\n              dup3\n                /* \"#utility.yul\":7564:7576   */\n              add\n                /* \"#utility.yul\":7557:7576   */\n              swap1\n              pop\n                /* \"#utility.yul\":7216:7582   */\n              swap2\n              swap1\n              pop\n              jump\t// out\n                /* \"#utility.yul\":7588:8007   */\n            tag_41:\n                /* \"#utility.yul\":7754:7758   */\n              0x00\n                /* \"#utility.yul\":7792:7794   */\n              0x20\n                /* \"#utility.yul\":7781:7790   */\n              dup3\n                /* \"#utility.yul\":7777:7795   */\n              add\n                /* \"#utility.yul\":7769:7795   */\n              swap1\n              pop\n                /* \"#utility.yul\":7841:7850   */\n              dup2\n                /* \"#utility.yul\":7835:7839   */\n              dup2\n                /* \"#utility.yul\":7831:7851   */\n              sub\n                /* \"#utility.yul\":7827:7828   */\n              0x00\n                /* \"#utility.yul\":7816:7825   */\n              dup4\n                /* \"#utility.yul\":7812:7829   */\n              add\n                /* \"#utility.yul\":7805:7852   */\n              mstore\n                /* \"#utility.yul\":7869:8000   */\n              tag_190\n                /* \"#utility.yul\":7995:7999   */\n              dup2\n                /* \"#utility.yul\":7869:8000   */\n              tag_99\n              jump\t// in\n            tag_190:\n                /* \"#utility.yul\":7861:8000   */\n              swap1\n              pop\n                /* \"#utility.yul\":7588:8007   */\n              swap2\n              swap1\n              pop\n              jump\t// out\n                /* \"#utility.yul\":8013:8193   */\n            tag_100:\n                /* \"#utility.yul\":8061:8138   */\n              0x4e487b7100000000000000000000000000000000000000000000000000000000\n                /* \"#utility.yul\":8058:8059   */\n              0x00\n                /* \"#utility.yul\":8051:8139   */\n              mstore\n                /* \"#utility.yul\":8158:8162   */\n              0x22\n                /* \"#utility.yul\":8155:8156   */\n              0x04\n                /* \"#utility.yul\":8148:8163   */\n              mstore\n                /* \"#utility.yul\":8182:8186   */\n              0x24\n                /* \"#utility.yul\":8179:8180   */\n              0x00\n                /* \"#utility.yul\":8172:8187   */\n              revert\n                /* \"#utility.yul\":8199:8519   */\n            tag_46:\n                /* \"#utility.yul\":8243:8249   */\n              0x00\n                /* \"#utility.yul\":8280:8281   */\n              0x02\n                /* \"#utility.yul\":8274:8278   */\n              dup3\n                /* \"#utility.yul\":8270:8282   */\n              div\n                /* \"#utility.yul\":8260:8282   */\n              swap1\n              pop\n                /* \"#utility.yul\":8327:8328   */\n              0x01\n                /* \"#utility.yul\":8321:8325   */\n              dup3\n                /* \"#utility.yul\":8317:8329   */\n              and\n                /* \"#utility.yul\":8348:8366   */\n              dup1\n                /* \"#utility.yul\":8338:8419   */\n              tag_193\n              jumpi\n                /* \"#utility.yul\":8404:8408   */\n              0x7f\n                /* \"#utility.yul\":8396:8402   */\n              dup3\n                /* \"#utility.yul\":8392:8409   */\n              and\n                /* \"#utility.yul\":8382:8409   */\n              swap2\n              pop\n                /* \"#utility.yul\":8338:8419   */\n            tag_193:\n                /* \"#utility.yul\":8466:8468   */\n              0x20\n                /* \"#utility.yul\":8458:8464   */\n              dup3\n                /* \"#utility.yul\":8455:8469   */\n              lt\n                /* \"#utility.yul\":8435:8453   */\n              dup2\n                /* \"#utility.yul\":8432:8470   */\n              eq\n                /* \"#utility.yul\":8429:8513   */\n              iszero\n              tag_194\n              jumpi\n                /* \"#utility.yul\":8485:8503   */\n              tag_195\n              tag_100\n              jump\t// in\n            tag_195:\n                /* \"#utility.yul\":8429:8513   */\n            tag_194:\n                /* \"#utility.yul\":8250:8519   */\n              pop\n                /* \"#utility.yul\":8199:8519   */\n              swap2\n              swap1\n              pop\n              jump\t// out\n                /* \"#utility.yul\":8525:8751   */\n            tag_101:\n                /* \"#utility.yul\":8665:8699   */\n              0x4f6e6c7920726566657265652063616e20726a65637420617070726f76616c20\n                /* \"#utility.yul\":8661:8662   */\n              0x00\n                /* \"#utility.yul\":8653:8659   */\n              dup3\n                /* \"#utility.yul\":8649:8663   */\n              add\n                /* \"#utility.yul\":8642:8700   */\n              mstore\n                /* \"#utility.yul\":8734:8743   */\n              0x7265717565737400000000000000000000000000000000000000000000000000\n                /* \"#utility.yul\":8729:8731   */\n              0x20\n                /* \"#utility.yul\":8721:8727   */\n              dup3\n                /* \"#utility.yul\":8717:8732   */\n              add\n                /* \"#utility.yul\":8710:8744   */\n              mstore\n                /* \"#utility.yul\":8525:8751   */\n              pop\n              jump\t// out\n                /* \"#utility.yul\":8757:9123   */\n            tag_102:\n                /* \"#utility.yul\":8899:8902   */\n              0x00\n                /* \"#utility.yul\":8920:8987   */\n              tag_198\n                /* \"#utility.yul\":8984:8986   */\n              0x27\n                /* \"#utility.yul\":8979:8982   */\n              dup4\n                /* \"#utility.yul\":8920:8987   */\n              tag_82\n              jump\t// in\n            tag_198:\n                /* \"#utility.yul\":8913:8987   */\n              swap2\n              pop\n                /* \"#utility.yul\":8996:9089   */\n              tag_199\n                /* \"#utility.yul\":9085:9088   */\n              dup3\n                /* \"#utility.yul\":8996:9089   */\n              tag_101\n              jump\t// in\n            tag_199:\n                /* \"#utility.yul\":9114:9116   */\n              0x40\n                /* \"#utility.yul\":9109:9112   */\n              dup3\n                /* \"#utility.yul\":9105:9117   */\n              add\n                /* \"#utility.yul\":9098:9117   */\n              swap1\n              pop\n                /* \"#utility.yul\":8757:9123   */\n              swap2\n              swap1\n              pop\n              jump\t// out\n                /* \"#utility.yul\":9129:9548   */\n            tag_54:\n                /* \"#utility.yul\":9295:9299   */\n              0x00\n                /* \"#utility.yul\":9333:9335   */\n              0x20\n                /* \"#utility.yul\":9322:9331   */\n              dup3\n                /* \"#utility.yul\":9318:9336   */\n              add\n                /* \"#utility.yul\":9310:9336   */\n              swap1\n              pop\n                /* \"#utility.yul\":9382:9391   */\n              dup2\n                /* \"#utility.yul\":9376:9380   */\n              dup2\n                /* \"#utility.yul\":9372:9392   */\n              sub\n                /* \"#utility.yul\":9368:9369   */\n              0x00\n                /* \"#utility.yul\":9357:9366   */\n              dup4\n                /* \"#utility.yul\":9353:9370   */\n              add\n                /* \"#utility.yul\":9346:9393   */\n              mstore\n                /* \"#utility.yul\":9410:9541   */\n              tag_201\n                /* \"#utility.yul\":9536:9540   */\n              dup2\n                /* \"#utility.yul\":9410:9541   */\n              tag_102\n              jump\t// in\n            tag_201:\n                /* \"#utility.yul\":9402:9541   */\n              swap1\n              pop\n                /* \"#utility.yul\":9129:9548   */\n              swap2\n              swap1\n              pop\n              jump\t// out\n\n            auxdata: 0xa2646970667358221220fb37bbbe89a0173b77020c584dfa6057948cd12588579ecd494f0207ac81ddb664736f6c634300080c0033\n        }\n    }\n\n    sub_1: assembly {\n            /* \"Contracts\":10840:12233  contract AccountabilityContract {... */\n          mstore(0x40, 0x80)\n            /* \"Contracts\":11119:11488  constructor(address _creator, address _referee, string memory _name, string memory _description, address _failureRecipient, uint _amount) payable {... */\n          mload(0x40)\n          sub(codesize, bytecodeSize)\n          dup1\n          bytecodeSize\n          dup4\n          codecopy\n          dup2\n          dup2\n          add\n          0x40\n          mstore\n          dup2\n          add\n          swap1\n          tag_1\n          swap2\n          swap1\n          tag_2\n          jump\t// in\n        tag_1:\n            /* \"Contracts\":11285:11293  _creator */\n          dup6\n            /* \"Contracts\":11275:11282  creator */\n          0x00\n          dup1\n            /* \"Contracts\":11275:11293  creator = _creator */\n          0x0100\n          exp\n          dup2\n          sload\n          dup2\n          0xffffffffffffffffffffffffffffffffffffffff\n          mul\n          not\n          and\n          swap1\n          dup4\n          0xffffffffffffffffffffffffffffffffffffffff\n          and\n          mul\n          or\n          swap1\n          sstore\n          pop\n            /* \"Contracts\":11313:11321  _referee */\n          dup5\n            /* \"Contracts\":11303:11310  referee */\n          0x01\n          0x00\n            /* \"Contracts\":11303:11321  referee = _referee */\n          0x0100\n          exp\n          dup2\n          sload\n          dup2\n          0xffffffffffffffffffffffffffffffffffffffff\n          mul\n          not\n          and\n          swap1\n          dup4\n          0xffffffffffffffffffffffffffffffffffffffff\n          and\n          mul\n          or\n          swap1\n          sstore\n          pop\n            /* \"Contracts\":11338:11343  _name */\n          dup4\n            /* \"Contracts\":11331:11335  name */\n          0x02\n            /* \"Contracts\":11331:11343  name = _name */\n          swap1\n          dup1\n          mload\n          swap1\n          0x20\n          add\n          swap1\n          tag_5\n          swap3\n          swap2\n          swap1\n          tag_6\n          jump\t// in\n        tag_5:\n          pop\n            /* \"Contracts\":11367:11379  _description */\n          dup3\n            /* \"Contracts\":11353:11364  description */\n          0x03\n            /* \"Contracts\":11353:11379  description = _description */\n          swap1\n          dup1\n          mload\n          swap1\n          0x20\n          add\n          swap1\n          tag_7\n          swap3\n          swap2\n          swap1\n          tag_6\n          jump\t// in\n        tag_7:\n          pop\n            /* \"Contracts\":11408:11425  _failureRecipient */\n          dup2\n            /* \"Contracts\":11389:11405  failureRecipient */\n          0x04\n          0x00\n            /* \"Contracts\":11389:11425  failureRecipient = _failureRecipient */\n          0x0100\n          exp\n          dup2\n          sload\n          dup2\n          0xffffffffffffffffffffffffffffffffffffffff\n          mul\n          not\n          and\n          swap1\n          dup4\n          0xffffffffffffffffffffffffffffffffffffffff\n          and\n          mul\n          or\n          swap1\n          sstore\n          pop\n            /* \"Contracts\":11444:11451  _amount */\n          dup1\n            /* \"Contracts\":11435:11441  amount */\n          0x05\n            /* \"Contracts\":11435:11451  amount = _amount */\n          dup2\n          swap1\n          sstore\n          pop\n            /* \"Contracts\":11470:11481  Status.OPEN */\n          0x00\n            /* \"Contracts\":11461:11467  status */\n          0x06\n          0x00\n            /* \"Contracts\":11461:11481  status = Status.OPEN */\n          0x0100\n          exp\n          dup2\n          sload\n          dup2\n          0xff\n          mul\n          not\n          and\n          swap1\n          dup4\n          0x02\n          dup2\n          gt\n          iszero\n          tag_8\n          jumpi\n          tag_9\n          tag_10\n          jump\t// in\n        tag_9:\n        tag_8:\n          mul\n          or\n          swap1\n          sstore\n          pop\n            /* \"Contracts\":11119:11488  constructor(address _creator, address _referee, string memory _name, string memory _description, address _failureRecipient, uint _amount) payable {... */\n          pop\n          pop\n          pop\n          pop\n          pop\n          pop\n            /* \"Contracts\":10840:12233  contract AccountabilityContract {... */\n          jump(tag_11)\n        tag_6:\n          dup3\n          dup1\n          sload\n          tag_12\n          swap1\n          tag_13\n          jump\t// in\n        tag_12:\n          swap1\n          0x00\n          mstore\n          keccak256(0x00, 0x20)\n          swap1\n          0x1f\n          add\n          0x20\n          swap1\n          div\n          dup2\n          add\n          swap3\n          dup3\n          tag_15\n          jumpi\n          0x00\n          dup6\n          sstore\n          jump(tag_14)\n        tag_15:\n          dup3\n          0x1f\n          lt\n          tag_16\n          jumpi\n          dup1\n          mload\n          not(0xff)\n          and\n          dup4\n          dup1\n          add\n          or\n          dup6\n          sstore\n          jump(tag_14)\n        tag_16:\n          dup3\n          dup1\n          add\n          0x01\n          add\n          dup6\n          sstore\n          dup3\n          iszero\n          tag_14\n          jumpi\n          swap2\n          dup3\n          add\n        tag_17:\n          dup3\n          dup2\n          gt\n          iszero\n          tag_18\n          jumpi\n          dup3\n          mload\n          dup3\n          sstore\n          swap2\n          0x20\n          add\n          swap2\n          swap1\n          0x01\n          add\n          swap1\n          jump(tag_17)\n        tag_18:\n        tag_14:\n          pop\n          swap1\n          pop\n          tag_19\n          swap2\n          swap1\n          tag_20\n          jump\t// in\n        tag_19:\n          pop\n          swap1\n          jump\t// out\n        tag_20:\n        tag_21:\n          dup1\n          dup3\n          gt\n          iszero\n          tag_22\n          jumpi\n          0x00\n          dup2\n          0x00\n          swap1\n          sstore\n          pop\n          0x01\n          add\n          jump(tag_21)\n        tag_22:\n          pop\n          swap1\n          jump\t// out\n            /* \"#utility.yul\":7:82   */\n        tag_23:\n            /* \"#utility.yul\":40:46   */\n          0x00\n            /* \"#utility.yul\":73:75   */\n          0x40\n            /* \"#utility.yul\":67:76   */\n          mload\n            /* \"#utility.yul\":57:76   */\n          swap1\n          pop\n            /* \"#utility.yul\":7:82   */\n          swap1\n          jump\t// out\n            /* \"#utility.yul\":88:205   */\n        tag_24:\n            /* \"#utility.yul\":197:198   */\n          0x00\n            /* \"#utility.yul\":194:195   */\n          dup1\n            /* \"#utility.yul\":187:199   */\n          revert\n            /* \"#utility.yul\":211:328   */\n        tag_25:\n            /* \"#utility.yul\":320:321   */\n          0x00\n            /* \"#utility.yul\":317:318   */\n          dup1\n            /* \"#utility.yul\":310:322   */\n          revert\n            /* \"#utility.yul\":334:460   */\n        tag_26:\n            /* \"#utility.yul\":371:378   */\n          0x00\n            /* \"#utility.yul\":411:453   */\n          0xffffffffffffffffffffffffffffffffffffffff\n            /* \"#utility.yul\":404:409   */\n          dup3\n            /* \"#utility.yul\":400:454   */\n          and\n            /* \"#utility.yul\":389:454   */\n          swap1\n          pop\n            /* \"#utility.yul\":334:460   */\n          swap2\n          swap1\n          pop\n          jump\t// out\n            /* \"#utility.yul\":466:562   */\n        tag_27:\n            /* \"#utility.yul\":503:510   */\n          0x00\n            /* \"#utility.yul\":532:556   */\n          tag_50\n            /* \"#utility.yul\":550:555   */\n          dup3\n            /* \"#utility.yul\":532:556   */\n          tag_26\n          jump\t// in\n        tag_50:\n            /* \"#utility.yul\":521:556   */\n          swap1\n          pop\n            /* \"#utility.yul\":466:562   */\n          swap2\n          swap1\n          pop\n          jump\t// out\n            /* \"#utility.yul\":568:690   */\n        tag_28:\n            /* \"#utility.yul\":641:665   */\n          tag_52\n            /* \"#utility.yul\":659:664   */\n          dup2\n            /* \"#utility.yul\":641:665   */\n          tag_27\n          jump\t// in\n        tag_52:\n            /* \"#utility.yul\":634:639   */\n          dup2\n            /* \"#utility.yul\":631:666   */\n          eq\n            /* \"#utility.yul\":621:684   */\n          tag_53\n          jumpi\n            /* \"#utility.yul\":680:681   */\n          0x00\n            /* \"#utility.yul\":677:678   */\n          dup1\n            /* \"#utility.yul\":670:682   */\n          revert\n            /* \"#utility.yul\":621:684   */\n        tag_53:\n            /* \"#utility.yul\":568:690   */\n          pop\n          jump\t// out\n            /* \"#utility.yul\":696:839   */\n        tag_29:\n            /* \"#utility.yul\":753:758   */\n          0x00\n            /* \"#utility.yul\":784:790   */\n          dup2\n            /* \"#utility.yul\":778:791   */\n          mload\n            /* \"#utility.yul\":769:791   */\n          swap1\n          pop\n            /* \"#utility.yul\":800:833   */\n          tag_55\n            /* \"#utility.yul\":827:832   */\n          dup2\n            /* \"#utility.yul\":800:833   */\n          tag_28\n          jump\t// in\n        tag_55:\n            /* \"#utility.yul\":696:839   */\n          swap3\n          swap2\n          pop\n          pop\n          jump\t// out\n            /* \"#utility.yul\":845:962   */\n        tag_30:\n            /* \"#utility.yul\":954:955   */\n          0x00\n            /* \"#utility.yul\":951:952   */\n          dup1\n            /* \"#utility.yul\":944:956   */\n          revert\n            /* \"#utility.yul\":968:1085   */\n        tag_31:\n            /* \"#utility.yul\":1077:1078   */\n          0x00\n            /* \"#utility.yul\":1074:1075   */\n          dup1\n            /* \"#utility.yul\":1067:1079   */\n          revert\n            /* \"#utility.yul\":1091:1193   */\n        tag_32:\n            /* \"#utility.yul\":1132:1138   */\n          0x00\n            /* \"#utility.yul\":1183:1185   */\n          0x1f\n            /* \"#utility.yul\":1179:1186   */\n          not\n            /* \"#utility.yul\":1174:1176   */\n          0x1f\n            /* \"#utility.yul\":1167:1172   */\n          dup4\n            /* \"#utility.yul\":1163:1177   */\n          add\n            /* \"#utility.yul\":1159:1187   */\n          and\n            /* \"#utility.yul\":1149:1187   */\n          swap1\n          pop\n            /* \"#utility.yul\":1091:1193   */\n          swap2\n          swap1\n          pop\n          jump\t// out\n            /* \"#utility.yul\":1199:1379   */\n        tag_33:\n            /* \"#utility.yul\":1247:1324   */\n          0x4e487b7100000000000000000000000000000000000000000000000000000000\n            /* \"#utility.yul\":1244:1245   */\n          0x00\n            /* \"#utility.yul\":1237:1325   */\n          mstore\n            /* \"#utility.yul\":1344:1348   */\n          0x41\n            /* \"#utility.yul\":1341:1342   */\n          0x04\n            /* \"#utility.yul\":1334:1349   */\n          mstore\n            /* \"#utility.yul\":1368:1372   */\n          0x24\n            /* \"#utility.yul\":1365:1366   */\n          0x00\n            /* \"#utility.yul\":1358:1373   */\n          revert\n            /* \"#utility.yul\":1385:1666   */\n        tag_34:\n            /* \"#utility.yul\":1468:1495   */\n          tag_61\n            /* \"#utility.yul\":1490:1494   */\n          dup3\n            /* \"#utility.yul\":1468:1495   */\n          tag_32\n          jump\t// in\n        tag_61:\n            /* \"#utility.yul\":1460:1466   */\n          dup2\n            /* \"#utility.yul\":1456:1496   */\n          add\n            /* \"#utility.yul\":1598:1604   */\n          dup2\n            /* \"#utility.yul\":1586:1596   */\n          dup2\n            /* \"#utility.yul\":1583:1605   */\n          lt\n            /* \"#utility.yul\":1562:1580   */\n          0xffffffffffffffff\n            /* \"#utility.yul\":1550:1560   */\n          dup3\n            /* \"#utility.yul\":1547:1581   */\n          gt\n            /* \"#utility.yul\":1544:1606   */\n          or\n            /* \"#utility.yul\":1541:1629   */\n          iszero\n          tag_62\n          jumpi\n            /* \"#utility.yul\":1609:1627   */\n          tag_63\n          tag_33\n          jump\t// in\n        tag_63:\n            /* \"#utility.yul\":1541:1629   */\n        tag_62:\n            /* \"#utility.yul\":1649:1659   */\n          dup1\n            /* \"#utility.yul\":1645:1647   */\n          0x40\n            /* \"#utility.yul\":1638:1660   */\n          mstore\n            /* \"#utility.yul\":1428:1666   */\n          pop\n            /* \"#utility.yul\":1385:1666   */\n          pop\n          pop\n          jump\t// out\n            /* \"#utility.yul\":1672:1801   */\n        tag_35:\n            /* \"#utility.yul\":1706:1712   */\n          0x00\n            /* \"#utility.yul\":1733:1753   */\n          tag_65\n          tag_23\n          jump\t// in\n        tag_65:\n            /* \"#utility.yul\":1723:1753   */\n          swap1\n          pop\n            /* \"#utility.yul\":1762:1795   */\n          tag_66\n            /* \"#utility.yul\":1790:1794   */\n          dup3\n            /* \"#utility.yul\":1782:1788   */\n          dup3\n            /* \"#utility.yul\":1762:1795   */\n          tag_34\n          jump\t// in\n        tag_66:\n            /* \"#utility.yul\":1672:1801   */\n          swap2\n          swap1\n          pop\n          jump\t// out\n            /* \"#utility.yul\":1807:2115   */\n        tag_36:\n            /* \"#utility.yul\":1869:1873   */\n          0x00\n            /* \"#utility.yul\":1959:1977   */\n          0xffffffffffffffff\n            /* \"#utility.yul\":1951:1957   */\n          dup3\n            /* \"#utility.yul\":1948:1978   */\n          gt\n            /* \"#utility.yul\":1945:2001   */\n          iszero\n          tag_68\n          jumpi\n            /* \"#utility.yul\":1981:1999   */\n          tag_69\n          tag_33\n          jump\t// in\n        tag_69:\n            /* \"#utility.yul\":1945:2001   */\n        tag_68:\n            /* \"#utility.yul\":2019:2048   */\n          tag_70\n            /* \"#utility.yul\":2041:2047   */\n          dup3\n            /* \"#utility.yul\":2019:2048   */\n          tag_32\n          jump\t// in\n        tag_70:\n            /* \"#utility.yul\":2011:2048   */\n          swap1\n          pop\n            /* \"#utility.yul\":2103:2107   */\n          0x20\n            /* \"#utility.yul\":2097:2101   */\n          dup2\n            /* \"#utility.yul\":2093:2108   */\n          add\n            /* \"#utility.yul\":2085:2108   */\n          swap1\n          pop\n            /* \"#utility.yul\":1807:2115   */\n          swap2\n          swap1\n          pop\n          jump\t// out\n            /* \"#utility.yul\":2121:2428   */\n        tag_37:\n            /* \"#utility.yul\":2189:2190   */\n          0x00\n            /* \"#utility.yul\":2199:2312   */\n        tag_72:\n            /* \"#utility.yul\":2213:2219   */\n          dup4\n            /* \"#utility.yul\":2210:2211   */\n          dup2\n            /* \"#utility.yul\":2207:2220   */\n          lt\n            /* \"#utility.yul\":2199:2312   */\n          iszero\n          tag_74\n          jumpi\n            /* \"#utility.yul\":2298:2299   */\n          dup1\n            /* \"#utility.yul\":2293:2296   */\n          dup3\n            /* \"#utility.yul\":2289:2300   */\n          add\n            /* \"#utility.yul\":2283:2301   */\n          mload\n            /* \"#utility.yul\":2279:2280   */\n          dup2\n            /* \"#utility.yul\":2274:2277   */\n          dup5\n            /* \"#utility.yul\":2270:2281   */\n          add\n            /* \"#utility.yul\":2263:2302   */\n          mstore\n            /* \"#utility.yul\":2235:2237   */\n          0x20\n            /* \"#utility.yul\":2232:2233   */\n          dup2\n            /* \"#utility.yul\":2228:2238   */\n          add\n            /* \"#utility.yul\":2223:2238   */\n          swap1\n          pop\n            /* \"#utility.yul\":2199:2312   */\n          jump(tag_72)\n        tag_74:\n            /* \"#utility.yul\":2330:2336   */\n          dup4\n            /* \"#utility.yul\":2327:2328   */\n          dup2\n            /* \"#utility.yul\":2324:2337   */\n          gt\n            /* \"#utility.yul\":2321:2422   */\n          iszero\n          tag_75\n          jumpi\n            /* \"#utility.yul\":2410:2411   */\n          0x00\n            /* \"#utility.yul\":2401:2407   */\n          dup5\n            /* \"#utility.yul\":2396:2399   */\n          dup5\n            /* \"#utility.yul\":2392:2408   */\n          add\n            /* \"#utility.yul\":2385:2412   */\n          mstore\n            /* \"#utility.yul\":2321:2422   */\n        tag_75:\n            /* \"#utility.yul\":2170:2428   */\n          pop\n            /* \"#utility.yul\":2121:2428   */\n          pop\n          pop\n          pop\n          jump\t// out\n            /* \"#utility.yul\":2434:2855   */\n        tag_38:\n            /* \"#utility.yul\":2523:2528   */\n          0x00\n            /* \"#utility.yul\":2548:2614   */\n          tag_77\n            /* \"#utility.yul\":2564:2613   */\n          tag_78\n            /* \"#utility.yul\":2606:2612   */\n          dup5\n            /* \"#utility.yul\":2564:2613   */\n          tag_36\n          jump\t// in\n        tag_78:\n            /* \"#utility.yul\":2548:2614   */\n          tag_35\n          jump\t// in\n        tag_77:\n            /* \"#utility.yul\":2539:2614   */\n          swap1\n          pop\n            /* \"#utility.yul\":2637:2643   */\n          dup3\n            /* \"#utility.yul\":2630:2635   */\n          dup2\n            /* \"#utility.yul\":2623:2644   */\n          mstore\n            /* \"#utility.yul\":2675:2679   */\n          0x20\n            /* \"#utility.yul\":2668:2673   */\n          dup2\n            /* \"#utility.yul\":2664:2680   */\n          add\n            /* \"#utility.yul\":2713:2716   */\n          dup5\n            /* \"#utility.yul\":2704:2710   */\n          dup5\n            /* \"#utility.yul\":2699:2702   */\n          dup5\n            /* \"#utility.yul\":2695:2711   */\n          add\n            /* \"#utility.yul\":2692:2717   */\n          gt\n            /* \"#utility.yul\":2689:2801   */\n          iszero\n          tag_79\n          jumpi\n            /* \"#utility.yul\":2720:2799   */\n          tag_80\n          tag_31\n          jump\t// in\n        tag_80:\n            /* \"#utility.yul\":2689:2801   */\n        tag_79:\n            /* \"#utility.yul\":2810:2849   */\n          tag_81\n            /* \"#utility.yul\":2842:2848   */\n          dup5\n            /* \"#utility.yul\":2837:2840   */\n          dup3\n            /* \"#utility.yul\":2832:2835   */\n          dup6\n            /* \"#utility.yul\":2810:2849   */\n          tag_37\n          jump\t// in\n        tag_81:\n            /* \"#utility.yul\":2529:2855   */\n          pop\n            /* \"#utility.yul\":2434:2855   */\n          swap4\n          swap3\n          pop\n          pop\n          pop\n          jump\t// out\n            /* \"#utility.yul\":2875:3230   */\n        tag_39:\n            /* \"#utility.yul\":2942:2947   */\n          0x00\n            /* \"#utility.yul\":2991:2994   */\n          dup3\n            /* \"#utility.yul\":2984:2988   */\n          0x1f\n            /* \"#utility.yul\":2976:2982   */\n          dup4\n            /* \"#utility.yul\":2972:2989   */\n          add\n            /* \"#utility.yul\":2968:2995   */\n          slt\n            /* \"#utility.yul\":2958:3080   */\n          tag_83\n          jumpi\n            /* \"#utility.yul\":2999:3078   */\n          tag_84\n          tag_30\n          jump\t// in\n        tag_84:\n            /* \"#utility.yul\":2958:3080   */\n        tag_83:\n            /* \"#utility.yul\":3109:3115   */\n          dup2\n            /* \"#utility.yul\":3103:3116   */\n          mload\n            /* \"#utility.yul\":3134:3224   */\n          tag_85\n            /* \"#utility.yul\":3220:3223   */\n          dup5\n            /* \"#utility.yul\":3212:3218   */\n          dup3\n            /* \"#utility.yul\":3205:3209   */\n          0x20\n            /* \"#utility.yul\":3197:3203   */\n          dup7\n            /* \"#utility.yul\":3193:3210   */\n          add\n            /* \"#utility.yul\":3134:3224   */\n          tag_38\n          jump\t// in\n        tag_85:\n            /* \"#utility.yul\":3125:3224   */\n          swap2\n          pop\n            /* \"#utility.yul\":2948:3230   */\n          pop\n            /* \"#utility.yul\":2875:3230   */\n          swap3\n          swap2\n          pop\n          pop\n          jump\t// out\n            /* \"#utility.yul\":3236:3313   */\n        tag_40:\n            /* \"#utility.yul\":3273:3280   */\n          0x00\n            /* \"#utility.yul\":3302:3307   */\n          dup2\n            /* \"#utility.yul\":3291:3307   */\n          swap1\n          pop\n            /* \"#utility.yul\":3236:3313   */\n          swap2\n          swap1\n          pop\n          jump\t// out\n            /* \"#utility.yul\":3319:3441   */\n        tag_41:\n            /* \"#utility.yul\":3392:3416   */\n          tag_88\n            /* \"#utility.yul\":3410:3415   */\n          dup2\n            /* \"#utility.yul\":3392:3416   */\n          tag_40\n          jump\t// in\n        tag_88:\n            /* \"#utility.yul\":3385:3390   */\n          dup2\n            /* \"#utility.yul\":3382:3417   */\n          eq\n            /* \"#utility.yul\":3372:3435   */\n          tag_89\n          jumpi\n            /* \"#utility.yul\":3431:3432   */\n          0x00\n            /* \"#utility.yul\":3428:3429   */\n          dup1\n            /* \"#utility.yul\":3421:3433   */\n          revert\n            /* \"#utility.yul\":3372:3435   */\n        tag_89:\n            /* \"#utility.yul\":3319:3441   */\n          pop\n          jump\t// out\n            /* \"#utility.yul\":3447:3590   */\n        tag_42:\n            /* \"#utility.yul\":3504:3509   */\n          0x00\n            /* \"#utility.yul\":3535:3541   */\n          dup2\n            /* \"#utility.yul\":3529:3542   */\n          mload\n            /* \"#utility.yul\":3520:3542   */\n          swap1\n          pop\n            /* \"#utility.yul\":3551:3584   */\n          tag_91\n            /* \"#utility.yul\":3578:3583   */\n          dup2\n            /* \"#utility.yul\":3551:3584   */\n          tag_41\n          jump\t// in\n        tag_91:\n            /* \"#utility.yul\":3447:3590   */\n          swap3\n          swap2\n          pop\n          pop\n          jump\t// out\n            /* \"#utility.yul\":3596:5076   */\n        tag_2:\n            /* \"#utility.yul\":3731:3737   */\n          0x00\n            /* \"#utility.yul\":3739:3745   */\n          dup1\n            /* \"#utility.yul\":3747:3753   */\n          0x00\n            /* \"#utility.yul\":3755:3761   */\n          dup1\n            /* \"#utility.yul\":3763:3769   */\n          0x00\n            /* \"#utility.yul\":3771:3777   */\n          dup1\n            /* \"#utility.yul\":3820:3823   */\n          0xc0\n            /* \"#utility.yul\":3808:3817   */\n          dup8\n            /* \"#utility.yul\":3799:3806   */\n          dup10\n            /* \"#utility.yul\":3795:3818   */\n          sub\n            /* \"#utility.yul\":3791:3824   */\n          slt\n            /* \"#utility.yul\":3788:3908   */\n          iszero\n          tag_93\n          jumpi\n            /* \"#utility.yul\":3827:3906   */\n          tag_94\n          tag_24\n          jump\t// in\n        tag_94:\n            /* \"#utility.yul\":3788:3908   */\n        tag_93:\n            /* \"#utility.yul\":3947:3948   */\n          0x00\n            /* \"#utility.yul\":3972:4036   */\n          tag_95\n            /* \"#utility.yul\":4028:4035   */\n          dup10\n            /* \"#utility.yul\":4019:4025   */\n          dup3\n            /* \"#utility.yul\":4008:4017   */\n          dup11\n            /* \"#utility.yul\":4004:4026   */\n          add\n            /* \"#utility.yul\":3972:4036   */\n          tag_29\n          jump\t// in\n        tag_95:\n            /* \"#utility.yul\":3962:4036   */\n          swap7\n          pop\n            /* \"#utility.yul\":3918:4046   */\n          pop\n            /* \"#utility.yul\":4085:4087   */\n          0x20\n            /* \"#utility.yul\":4111:4175   */\n          tag_96\n            /* \"#utility.yul\":4167:4174   */\n          dup10\n            /* \"#utility.yul\":4158:4164   */\n          dup3\n            /* \"#utility.yul\":4147:4156   */\n          dup11\n            /* \"#utility.yul\":4143:4165   */\n          add\n            /* \"#utility.yul\":4111:4175   */\n          tag_29\n          jump\t// in\n        tag_96:\n            /* \"#utility.yul\":4101:4175   */\n          swap6\n          pop\n            /* \"#utility.yul\":4056:4185   */\n          pop\n            /* \"#utility.yul\":4245:4247   */\n          0x40\n            /* \"#utility.yul\":4234:4243   */\n          dup8\n            /* \"#utility.yul\":4230:4248   */\n          add\n            /* \"#utility.yul\":4224:4249   */\n          mload\n            /* \"#utility.yul\":4276:4294   */\n          0xffffffffffffffff\n            /* \"#utility.yul\":4268:4274   */\n          dup2\n            /* \"#utility.yul\":4265:4295   */\n          gt\n            /* \"#utility.yul\":4262:4379   */\n          iszero\n          tag_97\n          jumpi\n            /* \"#utility.yul\":4298:4377   */\n          tag_98\n          tag_25\n          jump\t// in\n        tag_98:\n            /* \"#utility.yul\":4262:4379   */\n        tag_97:\n            /* \"#utility.yul\":4403:4477   */\n          tag_99\n            /* \"#utility.yul\":4469:4476   */\n          dup10\n            /* \"#utility.yul\":4460:4466   */\n          dup3\n            /* \"#utility.yul\":4449:4458   */\n          dup11\n            /* \"#utility.yul\":4445:4467   */\n          add\n            /* \"#utility.yul\":4403:4477   */\n          tag_39\n          jump\t// in\n        tag_99:\n            /* \"#utility.yul\":4393:4477   */\n          swap5\n          pop\n            /* \"#utility.yul\":4195:4487   */\n          pop\n            /* \"#utility.yul\":4547:4549   */\n          0x60\n            /* \"#utility.yul\":4536:4545   */\n          dup8\n            /* \"#utility.yul\":4532:4550   */\n          add\n            /* \"#utility.yul\":4526:4551   */\n          mload\n            /* \"#utility.yul\":4578:4596   */\n          0xffffffffffffffff\n            /* \"#utility.yul\":4570:4576   */\n          dup2\n            /* \"#utility.yul\":4567:4597   */\n          gt\n            /* \"#utility.yul\":4564:4681   */\n          iszero\n          tag_100\n          jumpi\n            /* \"#utility.yul\":4600:4679   */\n          tag_101\n          tag_25\n          jump\t// in\n        tag_101:\n            /* \"#utility.yul\":4564:4681   */\n        tag_100:\n            /* \"#utility.yul\":4705:4779   */\n          tag_102\n            /* \"#utility.yul\":4771:4778   */\n          dup10\n            /* \"#utility.yul\":4762:4768   */\n          dup3\n            /* \"#utility.yul\":4751:4760   */\n          dup11\n            /* \"#utility.yul\":4747:4769   */\n          add\n            /* \"#utility.yul\":4705:4779   */\n          tag_39\n          jump\t// in\n        tag_102:\n            /* \"#utility.yul\":4695:4779   */\n          swap4\n          pop\n            /* \"#utility.yul\":4497:4789   */\n          pop\n            /* \"#utility.yul\":4828:4831   */\n          0x80\n            /* \"#utility.yul\":4855:4919   */\n          tag_103\n            /* \"#utility.yul\":4911:4918   */\n          dup10\n            /* \"#utility.yul\":4902:4908   */\n          dup3\n            /* \"#utility.yul\":4891:4900   */\n          dup11\n            /* \"#utility.yul\":4887:4909   */\n          add\n            /* \"#utility.yul\":4855:4919   */\n          tag_29\n          jump\t// in\n        tag_103:\n            /* \"#utility.yul\":4845:4919   */\n          swap3\n          pop\n            /* \"#utility.yul\":4799:4929   */\n          pop\n            /* \"#utility.yul\":4968:4971   */\n          0xa0\n            /* \"#utility.yul\":4995:5059   */\n          tag_104\n            /* \"#utility.yul\":5051:5058   */\n          dup10\n            /* \"#utility.yul\":5042:5048   */\n          dup3\n            /* \"#utility.yul\":5031:5040   */\n          dup11\n            /* \"#utility.yul\":5027:5049   */\n          add\n            /* \"#utility.yul\":4995:5059   */\n          tag_42\n          jump\t// in\n        tag_104:\n            /* \"#utility.yul\":4985:5059   */\n          swap2\n          pop\n            /* \"#utility.yul\":4939:5069   */\n          pop\n            /* \"#utility.yul\":3596:5076   */\n          swap3\n          swap6\n          pop\n          swap3\n          swap6\n          pop\n          swap3\n          swap6\n          jump\t// out\n            /* \"#utility.yul\":5082:5262   */\n        tag_10:\n            /* \"#utility.yul\":5130:5207   */\n          0x4e487b7100000000000000000000000000000000000000000000000000000000\n            /* \"#utility.yul\":5127:5128   */\n          0x00\n            /* \"#utility.yul\":5120:5208   */\n          mstore\n            /* \"#utility.yul\":5227:5231   */\n          0x21\n            /* \"#utility.yul\":5224:5225   */\n          0x04\n            /* \"#utility.yul\":5217:5232   */\n          mstore\n            /* \"#utility.yul\":5251:5255   */\n          0x24\n            /* \"#utility.yul\":5248:5249   */\n          0x00\n            /* \"#utility.yul\":5241:5256   */\n          revert\n            /* \"#utility.yul\":5268:5448   */\n        tag_43:\n            /* \"#utility.yul\":5316:5393   */\n          0x4e487b7100000000000000000000000000000000000000000000000000000000\n            /* \"#utility.yul\":5313:5314   */\n          0x00\n            /* \"#utility.yul\":5306:5394   */\n          mstore\n            /* \"#utility.yul\":5413:5417   */\n          0x22\n            /* \"#utility.yul\":5410:5411   */\n          0x04\n            /* \"#utility.yul\":5403:5418   */\n          mstore\n            /* \"#utility.yul\":5437:5441   */\n          0x24\n            /* \"#utility.yul\":5434:5435   */\n          0x00\n            /* \"#utility.yul\":5427:5442   */\n          revert\n            /* \"#utility.yul\":5454:5774   */\n        tag_13:\n            /* \"#utility.yul\":5498:5504   */\n          0x00\n            /* \"#utility.yul\":5535:5536   */\n          0x02\n            /* \"#utility.yul\":5529:5533   */\n          dup3\n            /* \"#utility.yul\":5525:5537   */\n          div\n            /* \"#utility.yul\":5515:5537   */\n          swap1\n          pop\n            /* \"#utility.yul\":5582:5583   */\n          0x01\n            /* \"#utility.yul\":5576:5580   */\n          dup3\n            /* \"#utility.yul\":5572:5584   */\n          and\n            /* \"#utility.yul\":5603:5621   */\n          dup1\n            /* \"#utility.yul\":5593:5674   */\n          tag_108\n          jumpi\n            /* \"#utility.yul\":5659:5663   */\n          0x7f\n            /* \"#utility.yul\":5651:5657   */\n          dup3\n            /* \"#utility.yul\":5647:5664   */\n          and\n            /* \"#utility.yul\":5637:5664   */\n          swap2\n          pop\n            /* \"#utility.yul\":5593:5674   */\n        tag_108:\n            /* \"#utility.yul\":5721:5723   */\n          0x20\n            /* \"#utility.yul\":5713:5719   */\n          dup3\n            /* \"#utility.yul\":5710:5724   */\n          lt\n            /* \"#utility.yul\":5690:5708   */\n          dup2\n            /* \"#utility.yul\":5687:5725   */\n          eq\n            /* \"#utility.yul\":5684:5768   */\n          iszero\n          tag_109\n          jumpi\n            /* \"#utility.yul\":5740:5758   */\n          tag_110\n          tag_43\n          jump\t// in\n        tag_110:\n            /* \"#utility.yul\":5684:5768   */\n        tag_109:\n            /* \"#utility.yul\":5505:5774   */\n          pop\n            /* \"#utility.yul\":5454:5774   */\n          swap2\n          swap1\n          pop\n          jump\t// out\n            /* \"Contracts\":10840:12233  contract AccountabilityContract {... */\n        tag_11:\n          dataSize(sub_0)\n          dup1\n          dataOffset(sub_0)\n          0x00\n          codecopy\n          0x00\n          return\n        stop\n\n        sub_0: assembly {\n                /* \"Contracts\":10840:12233  contract AccountabilityContract {... */\n              mstore(0x40, 0x80)\n              jumpi(tag_1, lt(calldatasize, 0x04))\n              shr(0xe0, calldataload(0x00))\n              dup1\n              0x3b1bebd1\n              gt\n              tag_11\n              jumpi\n              dup1\n              0x3b1bebd1\n              eq\n              tag_6\n              jumpi\n              dup1\n              0x4177fe51\n              eq\n              tag_7\n              jumpi\n              dup1\n              0x7284e416\n              eq\n              tag_8\n              jumpi\n              dup1\n              0xaa8c217c\n              eq\n              tag_9\n              jumpi\n              dup1\n              0xb4fedc11\n              eq\n              tag_10\n              jumpi\n              jump(tag_1)\n            tag_11:\n              dup1\n              0x02d05d3f\n              eq\n              tag_2\n              jumpi\n              dup1\n              0x06fdde03\n              eq\n              tag_3\n              jumpi\n              dup1\n              0x200d2ed2\n              eq\n              tag_4\n              jumpi\n              dup1\n              0x2d398fa6\n              eq\n              tag_5\n              jumpi\n            tag_1:\n              0x00\n              dup1\n              revert\n                /* \"Contracts\":10920:10942  address public creator */\n            tag_2:\n              callvalue\n              dup1\n              iszero\n              tag_12\n              jumpi\n              0x00\n              dup1\n              revert\n            tag_12:\n              pop\n              tag_13\n              tag_14\n              jump\t// in\n            tag_13:\n              mload(0x40)\n              tag_15\n              swap2\n              swap1\n              tag_16\n              jump\t// in\n            tag_15:\n              mload(0x40)\n              dup1\n              swap2\n              sub\n              swap1\n              return\n                /* \"Contracts\":10976:10994  string public name */\n            tag_3:\n              callvalue\n              dup1\n              iszero\n              tag_17\n              jumpi\n              0x00\n              dup1\n              revert\n            tag_17:\n              pop\n              tag_18\n              tag_19\n              jump\t// in\n            tag_18:\n              mload(0x40)\n              tag_20\n              swap2\n              swap1\n              tag_21\n              jump\t// in\n            tag_20:\n              mload(0x40)\n              dup1\n              swap2\n              sub\n              swap1\n              return\n                /* \"Contracts\":11092:11112  Status public status */\n            tag_4:\n              callvalue\n              dup1\n              iszero\n              tag_22\n              jumpi\n              0x00\n              dup1\n              revert\n            tag_22:\n              pop\n              tag_23\n              tag_24\n              jump\t// in\n            tag_23:\n              mload(0x40)\n              tag_25\n              swap2\n              swap1\n              tag_26\n              jump\t// in\n            tag_25:\n              mload(0x40)\n              dup1\n              swap2\n              sub\n              swap1\n              return\n                /* \"Contracts\":11620:11939  function failContract() public payable restricted returns (AccountabilityContract) {... */\n            tag_5:\n              tag_27\n              tag_28\n              jump\t// in\n            tag_27:\n              mload(0x40)\n              tag_29\n              swap2\n              swap1\n              tag_30\n              jump\t// in\n            tag_29:\n              mload(0x40)\n              dup1\n              swap2\n              sub\n              swap1\n              return\n                /* \"Contracts\":10948:10970  address public referee */\n            tag_6:\n              callvalue\n              dup1\n              iszero\n              tag_31\n              jumpi\n              0x00\n              dup1\n              revert\n            tag_31:\n              pop\n              tag_32\n              tag_33\n              jump\t// in\n            tag_32:\n              mload(0x40)\n              tag_34\n              swap2\n              swap1\n              tag_16\n              jump\t// in\n            tag_34:\n              mload(0x40)\n              dup1\n              swap2\n              sub\n              swap1\n              return\n                /* \"Contracts\":11031:11062  address public failureRecipient */\n            tag_7:\n              callvalue\n              dup1\n              iszero\n              tag_35\n              jumpi\n              0x00\n              dup1\n              revert\n            tag_35:\n              pop\n              tag_36\n              tag_37\n              jump\t// in\n            tag_36:\n              mload(0x40)\n              tag_38\n              swap2\n              swap1\n              tag_16\n              jump\t// in\n            tag_38:\n              mload(0x40)\n              dup1\n              swap2\n              sub\n              swap1\n              return\n                /* \"Contracts\":11000:11025  string public description */\n            tag_8:\n              callvalue\n              dup1\n              iszero\n              tag_39\n              jumpi\n              0x00\n              dup1\n              revert\n            tag_39:\n              pop\n              tag_40\n              tag_41\n              jump\t// in\n            tag_40:\n              mload(0x40)\n              tag_42\n              swap2\n              swap1\n              tag_21\n              jump\t// in\n            tag_42:\n              mload(0x40)\n              dup1\n              swap2\n              sub\n              swap1\n              return\n                /* \"Contracts\":11068:11086  uint public amount */\n            tag_9:\n              callvalue\n              dup1\n              iszero\n              tag_43\n              jumpi\n              0x00\n              dup1\n              revert\n            tag_43:\n              pop\n              tag_44\n              tag_45\n              jump\t// in\n            tag_44:\n              mload(0x40)\n              tag_46\n              swap2\n              swap1\n              tag_47\n              jump\t// in\n            tag_46:\n              mload(0x40)\n              dup1\n              swap2\n              sub\n              swap1\n              return\n                /* \"Contracts\":11946:12231  function completeContract() public payable restricted returns (AccountabilityContract) {... */\n            tag_10:\n              tag_48\n              tag_49\n              jump\t// in\n            tag_48:\n              mload(0x40)\n              tag_50\n              swap2\n              swap1\n              tag_30\n              jump\t// in\n            tag_50:\n              mload(0x40)\n              dup1\n              swap2\n              sub\n              swap1\n              return\n                /* \"Contracts\":10920:10942  address public creator */\n            tag_14:\n              0x00\n              dup1\n              sload\n              swap1\n              0x0100\n              exp\n              swap1\n              div\n              0xffffffffffffffffffffffffffffffffffffffff\n              and\n              dup2\n              jump\t// out\n                /* \"Contracts\":10976:10994  string public name */\n            tag_19:\n              0x02\n              dup1\n              sload\n              tag_51\n              swap1\n              tag_52\n              jump\t// in\n            tag_51:\n              dup1\n              0x1f\n              add\n              0x20\n              dup1\n              swap2\n              div\n              mul\n              0x20\n              add\n              mload(0x40)\n              swap1\n              dup2\n              add\n              0x40\n              mstore\n              dup1\n              swap3\n              swap2\n              swap1\n              dup2\n              dup2\n              mstore\n              0x20\n              add\n              dup3\n              dup1\n              sload\n              tag_53\n              swap1\n              tag_52\n              jump\t// in\n            tag_53:\n              dup1\n              iszero\n              tag_54\n              jumpi\n              dup1\n              0x1f\n              lt\n              tag_55\n              jumpi\n              0x0100\n              dup1\n              dup4\n              sload\n              div\n              mul\n              dup4\n              mstore\n              swap2\n              0x20\n              add\n              swap2\n              jump(tag_54)\n            tag_55:\n              dup3\n              add\n              swap2\n              swap1\n              0x00\n              mstore\n              keccak256(0x00, 0x20)\n              swap1\n            tag_56:\n              dup2\n              sload\n              dup2\n              mstore\n              swap1\n              0x01\n              add\n              swap1\n              0x20\n              add\n              dup1\n              dup4\n              gt\n              tag_56\n              jumpi\n              dup3\n              swap1\n              sub\n              0x1f\n              and\n              dup3\n              add\n              swap2\n            tag_54:\n              pop\n              pop\n              pop\n              pop\n              pop\n              dup2\n              jump\t// out\n                /* \"Contracts\":11092:11112  Status public status */\n            tag_24:\n              0x06\n              0x00\n              swap1\n              sload\n              swap1\n              0x0100\n              exp\n              swap1\n              div\n              0xff\n              and\n              dup2\n              jump\t// out\n                /* \"Contracts\":11620:11939  function failContract() public payable restricted returns (AccountabilityContract) {... */\n            tag_28:\n                /* \"Contracts\":11679:11701  AccountabilityContract */\n              0x00\n                /* \"Contracts\":11544:11555  Status.OPEN */\n              dup1\n                /* \"Contracts\":11534:11555  status == Status.OPEN */\n              0x02\n              dup2\n              gt\n              iszero\n              tag_58\n              jumpi\n              tag_59\n              tag_60\n              jump\t// in\n            tag_59:\n            tag_58:\n                /* \"Contracts\":11534:11540  status */\n              0x06\n              0x00\n              swap1\n              sload\n              swap1\n              0x0100\n              exp\n              swap1\n              div\n              0xff\n              and\n                /* \"Contracts\":11534:11555  status == Status.OPEN */\n              0x02\n              dup2\n              gt\n              iszero\n              tag_61\n              jumpi\n              tag_62\n              tag_60\n              jump\t// in\n            tag_62:\n            tag_61:\n              eq\n                /* \"Contracts\":11526:11596  require(status == Status.OPEN, \"Contract status is not equal to open\") */\n              tag_63\n              jumpi\n              mload(0x40)\n              0x08c379a000000000000000000000000000000000000000000000000000000000\n              dup2\n              mstore\n              0x04\n              add\n              tag_64\n              swap1\n              tag_65\n              jump\t// in\n            tag_64:\n              mload(0x40)\n              dup1\n              swap2\n              sub\n              swap1\n              revert\n            tag_63:\n                /* \"Contracts\":11734:11741  referee */\n              0x01\n              0x00\n              swap1\n              sload\n              swap1\n              0x0100\n              exp\n              swap1\n              div\n              0xffffffffffffffffffffffffffffffffffffffff\n              and\n                /* \"Contracts\":11721:11741  tx.origin == referee */\n              0xffffffffffffffffffffffffffffffffffffffff\n              and\n                /* \"Contracts\":11721:11730  tx.origin */\n              origin\n                /* \"Contracts\":11721:11741  tx.origin == referee */\n              0xffffffffffffffffffffffffffffffffffffffff\n              and\n              eq\n                /* \"Contracts\":11721:11765  tx.origin == referee || tx.origin == creator */\n              dup1\n              tag_67\n              jumpi\n              pop\n                /* \"Contracts\":11758:11765  creator */\n              0x00\n              dup1\n              sload\n              swap1\n              0x0100\n              exp\n              swap1\n              div\n              0xffffffffffffffffffffffffffffffffffffffff\n              and\n                /* \"Contracts\":11745:11765  tx.origin == creator */\n              0xffffffffffffffffffffffffffffffffffffffff\n              and\n                /* \"Contracts\":11745:11754  tx.origin */\n              origin\n                /* \"Contracts\":11745:11765  tx.origin == creator */\n              0xffffffffffffffffffffffffffffffffffffffff\n              and\n              eq\n                /* \"Contracts\":11721:11765  tx.origin == referee || tx.origin == creator */\n            tag_67:\n                /* \"Contracts\":11713:11811  require(tx.origin == referee || tx.origin == creator, \"Only referee or creator can fail contract\") */\n              tag_68\n              jumpi\n              mload(0x40)\n              0x08c379a000000000000000000000000000000000000000000000000000000000\n              dup2\n              mstore\n              0x04\n              add\n              tag_69\n              swap1\n              tag_70\n              jump\t// in\n            tag_69:\n              mload(0x40)\n              dup1\n              swap2\n              sub\n              swap1\n              revert\n            tag_68:\n                /* \"Contracts\":11829:11845  failureRecipient */\n              0x04\n              0x00\n              swap1\n              sload\n              swap1\n              0x0100\n              exp\n              swap1\n              div\n              0xffffffffffffffffffffffffffffffffffffffff\n              and\n                /* \"Contracts\":11821:11855  payable(failureRecipient).transfer */\n              0xffffffffffffffffffffffffffffffffffffffff\n              and\n                /* \"Contracts\":11821:11878  payable(failureRecipient).transfer(address(this).balance) */\n              0x08fc\n                /* \"Contracts\":11856:11877  address(this).balance */\n              selfbalance\n                /* \"Contracts\":11821:11878  payable(failureRecipient).transfer(address(this).balance) */\n              swap1\n              dup2\n              iszero\n              mul\n              swap1\n              mload(0x40)\n              0x00\n              mload(0x40)\n              dup1\n              dup4\n              sub\n              dup2\n              dup6\n              dup9\n              dup9\n              call\n              swap4\n              pop\n              pop\n              pop\n              pop\n              iszero\n              dup1\n              iszero\n              tag_72\n              jumpi\n              returndatasize\n              0x00\n              dup1\n              returndatacopy\n              revert(0x00, returndatasize)\n            tag_72:\n              pop\n                /* \"Contracts\":11897:11911  Status.FAILURE */\n              0x02\n                /* \"Contracts\":11888:11894  status */\n              0x06\n              0x00\n                /* \"Contracts\":11888:11911  status = Status.FAILURE */\n              0x0100\n              exp\n              dup2\n              sload\n              dup2\n              0xff\n              mul\n              not\n              and\n              swap1\n              dup4\n              0x02\n              dup2\n              gt\n              iszero\n              tag_73\n              jumpi\n              tag_74\n              tag_60\n              jump\t// in\n            tag_74:\n            tag_73:\n              mul\n              or\n              swap1\n              sstore\n              pop\n                /* \"Contracts\":11928:11932  this */\n              address\n                /* \"Contracts\":11921:11932  return this */\n              swap1\n              pop\n                /* \"Contracts\":11620:11939  function failContract() public payable restricted returns (AccountabilityContract) {... */\n              swap1\n              jump\t// out\n                /* \"Contracts\":10948:10970  address public referee */\n            tag_33:\n              0x01\n              0x00\n              swap1\n              sload\n              swap1\n              0x0100\n              exp\n              swap1\n              div\n              0xffffffffffffffffffffffffffffffffffffffff\n              and\n              dup2\n              jump\t// out\n                /* \"Contracts\":11031:11062  address public failureRecipient */\n            tag_37:\n              0x04\n              0x00\n              swap1\n              sload\n              swap1\n              0x0100\n              exp\n              swap1\n              div\n              0xffffffffffffffffffffffffffffffffffffffff\n              and\n              dup2\n              jump\t// out\n                /* \"Contracts\":11000:11025  string public description */\n            tag_41:\n              0x03\n              dup1\n              sload\n              tag_75\n              swap1\n              tag_52\n              jump\t// in\n            tag_75:\n              dup1\n              0x1f\n              add\n              0x20\n              dup1\n              swap2\n              div\n              mul\n              0x20\n              add\n              mload(0x40)\n              swap1\n              dup2\n              add\n              0x40\n              mstore\n              dup1\n              swap3\n              swap2\n              swap1\n              dup2\n              dup2\n              mstore\n              0x20\n              add\n              dup3\n              dup1\n              sload\n              tag_76\n              swap1\n              tag_52\n              jump\t// in\n            tag_76:\n              dup1\n              iszero\n              tag_77\n              jumpi\n              dup1\n              0x1f\n              lt\n              tag_78\n              jumpi\n              0x0100\n              dup1\n              dup4\n              sload\n              div\n              mul\n              dup4\n              mstore\n              swap2\n              0x20\n              add\n              swap2\n              jump(tag_77)\n            tag_78:\n              dup3\n              add\n              swap2\n              swap1\n              0x00\n              mstore\n              keccak256(0x00, 0x20)\n              swap1\n            tag_79:\n              dup2\n              sload\n              dup2\n              mstore\n              swap1\n              0x01\n              add\n              swap1\n              0x20\n              add\n              dup1\n              dup4\n              gt\n              tag_79\n              jumpi\n              dup3\n              swap1\n              sub\n              0x1f\n              and\n              dup3\n              add\n              swap2\n            tag_77:\n              pop\n              pop\n              pop\n              pop\n              pop\n              dup2\n              jump\t// out\n                /* \"Contracts\":11068:11086  uint public amount */\n            tag_45:\n              sload(0x05)\n              dup2\n              jump\t// out\n                /* \"Contracts\":11946:12231  function completeContract() public payable restricted returns (AccountabilityContract) {... */\n            tag_49:\n                /* \"Contracts\":12009:12031  AccountabilityContract */\n              0x00\n                /* \"Contracts\":11544:11555  Status.OPEN */\n              dup1\n                /* \"Contracts\":11534:11555  status == Status.OPEN */\n              0x02\n              dup2\n              gt\n              iszero\n              tag_81\n              jumpi\n              tag_82\n              tag_60\n              jump\t// in\n            tag_82:\n            tag_81:\n                /* \"Contracts\":11534:11540  status */\n              0x06\n              0x00\n              swap1\n              sload\n              swap1\n              0x0100\n              exp\n              swap1\n              div\n              0xff\n              and\n                /* \"Contracts\":11534:11555  status == Status.OPEN */\n              0x02\n              dup2\n              gt\n              iszero\n              tag_83\n              jumpi\n              tag_84\n              tag_60\n              jump\t// in\n            tag_84:\n            tag_83:\n              eq\n                /* \"Contracts\":11526:11596  require(status == Status.OPEN, \"Contract status is not equal to open\") */\n              tag_85\n              jumpi\n              mload(0x40)\n              0x08c379a000000000000000000000000000000000000000000000000000000000\n              dup2\n              mstore\n              0x04\n              add\n              tag_86\n              swap1\n              tag_65\n              jump\t// in\n            tag_86:\n              mload(0x40)\n              dup1\n              swap2\n              sub\n              swap1\n              revert\n            tag_85:\n                /* \"Contracts\":12064:12071  referee */\n              0x01\n              0x00\n              swap1\n              sload\n              swap1\n              0x0100\n              exp\n              swap1\n              div\n              0xffffffffffffffffffffffffffffffffffffffff\n              and\n                /* \"Contracts\":12051:12071  tx.origin == referee */\n              0xffffffffffffffffffffffffffffffffffffffff\n              and\n                /* \"Contracts\":12051:12060  tx.origin */\n              origin\n                /* \"Contracts\":12051:12071  tx.origin == referee */\n              0xffffffffffffffffffffffffffffffffffffffff\n              and\n              eq\n                /* \"Contracts\":12043:12112  require(tx.origin == referee, \"Only referee can complete a contract\") */\n              tag_88\n              jumpi\n              mload(0x40)\n              0x08c379a000000000000000000000000000000000000000000000000000000000\n              dup2\n              mstore\n              0x04\n              add\n              tag_89\n              swap1\n              tag_90\n              jump\t// in\n            tag_89:\n              mload(0x40)\n              dup1\n              swap2\n              sub\n              swap1\n              revert\n            tag_88:\n                /* \"Contracts\":12130:12137  creator */\n              0x00\n              dup1\n              sload\n              swap1\n              0x0100\n              exp\n              swap1\n              div\n              0xffffffffffffffffffffffffffffffffffffffff\n              and\n                /* \"Contracts\":12122:12147  payable(creator).transfer */\n              0xffffffffffffffffffffffffffffffffffffffff\n              and\n                /* \"Contracts\":12122:12170  payable(creator).transfer(address(this).balance) */\n              0x08fc\n                /* \"Contracts\":12148:12169  address(this).balance */\n              selfbalance\n                /* \"Contracts\":12122:12170  payable(creator).transfer(address(this).balance) */\n              swap1\n              dup2\n              iszero\n              mul\n              swap1\n              mload(0x40)\n              0x00\n              mload(0x40)\n              dup1\n              dup4\n              sub\n              dup2\n              dup6\n              dup9\n              dup9\n              call\n              swap4\n              pop\n              pop\n              pop\n              pop\n              iszero\n              dup1\n              iszero\n              tag_92\n              jumpi\n              returndatasize\n              0x00\n              dup1\n              returndatacopy\n              revert(0x00, returndatasize)\n            tag_92:\n              pop\n                /* \"Contracts\":12189:12203  Status.SUCCESS */\n              0x01\n                /* \"Contracts\":12180:12186  status */\n              0x06\n              0x00\n                /* \"Contracts\":12180:12203  status = Status.SUCCESS */\n              0x0100\n              exp\n              dup2\n              sload\n              dup2\n              0xff\n              mul\n              not\n              and\n              swap1\n              dup4\n              0x02\n              dup2\n              gt\n              iszero\n              tag_93\n              jumpi\n              tag_94\n              tag_60\n              jump\t// in\n            tag_94:\n            tag_93:\n              mul\n              or\n              swap1\n              sstore\n              pop\n                /* \"Contracts\":12220:12224  this */\n              address\n                /* \"Contracts\":12213:12224  return this */\n              swap1\n              pop\n                /* \"Contracts\":11946:12231  function completeContract() public payable restricted returns (AccountabilityContract) {... */\n              swap1\n              jump\t// out\n                /* \"#utility.yul\":7:133   */\n            tag_95:\n                /* \"#utility.yul\":44:51   */\n              0x00\n                /* \"#utility.yul\":84:126   */\n              0xffffffffffffffffffffffffffffffffffffffff\n                /* \"#utility.yul\":77:82   */\n              dup3\n                /* \"#utility.yul\":73:127   */\n              and\n                /* \"#utility.yul\":62:127   */\n              swap1\n              pop\n                /* \"#utility.yul\":7:133   */\n              swap2\n              swap1\n              pop\n              jump\t// out\n                /* \"#utility.yul\":139:235   */\n            tag_96:\n                /* \"#utility.yul\":176:183   */\n              0x00\n                /* \"#utility.yul\":205:229   */\n              tag_124\n                /* \"#utility.yul\":223:228   */\n              dup3\n                /* \"#utility.yul\":205:229   */\n              tag_95\n              jump\t// in\n            tag_124:\n                /* \"#utility.yul\":194:229   */\n              swap1\n              pop\n                /* \"#utility.yul\":139:235   */\n              swap2\n              swap1\n              pop\n              jump\t// out\n                /* \"#utility.yul\":241:359   */\n            tag_97:\n                /* \"#utility.yul\":328:352   */\n              tag_126\n                /* \"#utility.yul\":346:351   */\n              dup2\n                /* \"#utility.yul\":328:352   */\n              tag_96\n              jump\t// in\n            tag_126:\n                /* \"#utility.yul\":323:326   */\n              dup3\n                /* \"#utility.yul\":316:353   */\n              mstore\n                /* \"#utility.yul\":241:359   */\n              pop\n              pop\n              jump\t// out\n                /* \"#utility.yul\":365:587   */\n            tag_16:\n                /* \"#utility.yul\":458:462   */\n              0x00\n                /* \"#utility.yul\":496:498   */\n              0x20\n                /* \"#utility.yul\":485:494   */\n              dup3\n                /* \"#utility.yul\":481:499   */\n              add\n                /* \"#utility.yul\":473:499   */\n              swap1\n              pop\n                /* \"#utility.yul\":509:580   */\n              tag_128\n                /* \"#utility.yul\":577:578   */\n              0x00\n                /* \"#utility.yul\":566:575   */\n              dup4\n                /* \"#utility.yul\":562:579   */\n              add\n                /* \"#utility.yul\":553:559   */\n              dup5\n                /* \"#utility.yul\":509:580   */\n              tag_97\n              jump\t// in\n            tag_128:\n                /* \"#utility.yul\":365:587   */\n              swap3\n              swap2\n              pop\n              pop\n              jump\t// out\n                /* \"#utility.yul\":593:692   */\n            tag_98:\n                /* \"#utility.yul\":645:651   */\n              0x00\n                /* \"#utility.yul\":679:684   */\n              dup2\n                /* \"#utility.yul\":673:685   */\n              mload\n                /* \"#utility.yul\":663:685   */\n              swap1\n              pop\n                /* \"#utility.yul\":593:692   */\n              swap2\n              swap1\n              pop\n              jump\t// out\n                /* \"#utility.yul\":698:867   */\n            tag_99:\n                /* \"#utility.yul\":782:793   */\n              0x00\n                /* \"#utility.yul\":816:822   */\n              dup3\n                /* \"#utility.yul\":811:814   */\n              dup3\n                /* \"#utility.yul\":804:823   */\n              mstore\n                /* \"#utility.yul\":856:860   */\n              0x20\n                /* \"#utility.yul\":851:854   */\n              dup3\n                /* \"#utility.yul\":847:861   */\n              add\n                /* \"#utility.yul\":832:861   */\n              swap1\n              pop\n                /* \"#utility.yul\":698:867   */\n              swap3\n              swap2\n              pop\n              pop\n              jump\t// out\n                /* \"#utility.yul\":873:1180   */\n            tag_100:\n                /* \"#utility.yul\":941:942   */\n              0x00\n                /* \"#utility.yul\":951:1064   */\n            tag_132:\n                /* \"#utility.yul\":965:971   */\n              dup4\n                /* \"#utility.yul\":962:963   */\n              dup2\n                /* \"#utility.yul\":959:972   */\n              lt\n                /* \"#utility.yul\":951:1064   */\n              iszero\n              tag_134\n              jumpi\n                /* \"#utility.yul\":1050:1051   */\n              dup1\n                /* \"#utility.yul\":1045:1048   */\n              dup3\n                /* \"#utility.yul\":1041:1052   */\n              add\n                /* \"#utility.yul\":1035:1053   */\n              mload\n                /* \"#utility.yul\":1031:1032   */\n              dup2\n                /* \"#utility.yul\":1026:1029   */\n              dup5\n                /* \"#utility.yul\":1022:1033   */\n              add\n                /* \"#utility.yul\":1015:1054   */\n              mstore\n                /* \"#utility.yul\":987:989   */\n              0x20\n                /* \"#utility.yul\":984:985   */\n              dup2\n                /* \"#utility.yul\":980:990   */\n              add\n                /* \"#utility.yul\":975:990   */\n              swap1\n              pop\n                /* \"#utility.yul\":951:1064   */\n              jump(tag_132)\n            tag_134:\n                /* \"#utility.yul\":1082:1088   */\n              dup4\n                /* \"#utility.yul\":1079:1080   */\n              dup2\n                /* \"#utility.yul\":1076:1089   */\n              gt\n                /* \"#utility.yul\":1073:1174   */\n              iszero\n              tag_135\n              jumpi\n                /* \"#utility.yul\":1162:1163   */\n              0x00\n                /* \"#utility.yul\":1153:1159   */\n              dup5\n                /* \"#utility.yul\":1148:1151   */\n              dup5\n                /* \"#utility.yul\":1144:1160   */\n              add\n                /* \"#utility.yul\":1137:1164   */\n              mstore\n                /* \"#utility.yul\":1073:1174   */\n            tag_135:\n                /* \"#utility.yul\":922:1180   */\n              pop\n                /* \"#utility.yul\":873:1180   */\n              pop\n              pop\n              pop\n              jump\t// out\n                /* \"#utility.yul\":1186:1288   */\n            tag_101:\n                /* \"#utility.yul\":1227:1233   */\n              0x00\n                /* \"#utility.yul\":1278:1280   */\n              0x1f\n                /* \"#utility.yul\":1274:1281   */\n              not\n                /* \"#utility.yul\":1269:1271   */\n              0x1f\n                /* \"#utility.yul\":1262:1267   */\n              dup4\n                /* \"#utility.yul\":1258:1272   */\n              add\n                /* \"#utility.yul\":1254:1282   */\n              and\n                /* \"#utility.yul\":1244:1282   */\n              swap1\n              pop\n                /* \"#utility.yul\":1186:1288   */\n              swap2\n              swap1\n              pop\n              jump\t// out\n                /* \"#utility.yul\":1294:1658   */\n            tag_102:\n                /* \"#utility.yul\":1382:1385   */\n              0x00\n                /* \"#utility.yul\":1410:1449   */\n              tag_138\n                /* \"#utility.yul\":1443:1448   */\n              dup3\n                /* \"#utility.yul\":1410:1449   */\n              tag_98\n              jump\t// in\n            tag_138:\n                /* \"#utility.yul\":1465:1536   */\n              tag_139\n                /* \"#utility.yul\":1529:1535   */\n              dup2\n                /* \"#utility.yul\":1524:1527   */\n              dup6\n                /* \"#utility.yul\":1465:1536   */\n              tag_99\n              jump\t// in\n            tag_139:\n                /* \"#utility.yul\":1458:1536   */\n              swap4\n              pop\n                /* \"#utility.yul\":1545:1597   */\n              tag_140\n                /* \"#utility.yul\":1590:1596   */\n              dup2\n                /* \"#utility.yul\":1585:1588   */\n              dup6\n                /* \"#utility.yul\":1578:1582   */\n              0x20\n                /* \"#utility.yul\":1571:1576   */\n              dup7\n                /* \"#utility.yul\":1567:1583   */\n              add\n                /* \"#utility.yul\":1545:1597   */\n              tag_100\n              jump\t// in\n            tag_140:\n                /* \"#utility.yul\":1622:1651   */\n              tag_141\n                /* \"#utility.yul\":1644:1650   */\n              dup2\n                /* \"#utility.yul\":1622:1651   */\n              tag_101\n              jump\t// in\n            tag_141:\n                /* \"#utility.yul\":1617:1620   */\n              dup5\n                /* \"#utility.yul\":1613:1652   */\n              add\n                /* \"#utility.yul\":1606:1652   */\n              swap2\n              pop\n                /* \"#utility.yul\":1386:1658   */\n              pop\n                /* \"#utility.yul\":1294:1658   */\n              swap3\n              swap2\n              pop\n              pop\n              jump\t// out\n                /* \"#utility.yul\":1664:1977   */\n            tag_21:\n                /* \"#utility.yul\":1777:1781   */\n              0x00\n                /* \"#utility.yul\":1815:1817   */\n              0x20\n                /* \"#utility.yul\":1804:1813   */\n              dup3\n                /* \"#utility.yul\":1800:1818   */\n              add\n                /* \"#utility.yul\":1792:1818   */\n              swap1\n              pop\n                /* \"#utility.yul\":1864:1873   */\n              dup2\n                /* \"#utility.yul\":1858:1862   */\n              dup2\n                /* \"#utility.yul\":1854:1874   */\n              sub\n                /* \"#utility.yul\":1850:1851   */\n              0x00\n                /* \"#utility.yul\":1839:1848   */\n              dup4\n                /* \"#utility.yul\":1835:1852   */\n              add\n                /* \"#utility.yul\":1828:1875   */\n              mstore\n                /* \"#utility.yul\":1892:1970   */\n              tag_143\n                /* \"#utility.yul\":1965:1969   */\n              dup2\n                /* \"#utility.yul\":1956:1962   */\n              dup5\n                /* \"#utility.yul\":1892:1970   */\n              tag_102\n              jump\t// in\n            tag_143:\n                /* \"#utility.yul\":1884:1970   */\n              swap1\n              pop\n                /* \"#utility.yul\":1664:1977   */\n              swap3\n              swap2\n              pop\n              pop\n              jump\t// out\n                /* \"#utility.yul\":1983:2163   */\n            tag_60:\n                /* \"#utility.yul\":2031:2108   */\n              0x4e487b7100000000000000000000000000000000000000000000000000000000\n                /* \"#utility.yul\":2028:2029   */\n              0x00\n                /* \"#utility.yul\":2021:2109   */\n              mstore\n                /* \"#utility.yul\":2128:2132   */\n              0x21\n                /* \"#utility.yul\":2125:2126   */\n              0x04\n                /* \"#utility.yul\":2118:2133   */\n              mstore\n                /* \"#utility.yul\":2152:2156   */\n              0x24\n                /* \"#utility.yul\":2149:2150   */\n              0x00\n                /* \"#utility.yul\":2142:2157   */\n              revert\n                /* \"#utility.yul\":2169:2285   */\n            tag_103:\n                /* \"#utility.yul\":2253:2254   */\n              0x03\n                /* \"#utility.yul\":2246:2251   */\n              dup2\n                /* \"#utility.yul\":2243:2255   */\n              lt\n                /* \"#utility.yul\":2233:2279   */\n              tag_146\n              jumpi\n                /* \"#utility.yul\":2259:2277   */\n              tag_147\n              tag_60\n              jump\t// in\n            tag_147:\n                /* \"#utility.yul\":2233:2279   */\n            tag_146:\n                /* \"#utility.yul\":2169:2285   */\n              pop\n              jump\t// out\n                /* \"#utility.yul\":2291:2424   */\n            tag_104:\n                /* \"#utility.yul\":2339:2346   */\n              0x00\n                /* \"#utility.yul\":2368:2373   */\n              dup2\n                /* \"#utility.yul\":2357:2373   */\n              swap1\n              pop\n                /* \"#utility.yul\":2374:2418   */\n              tag_149\n                /* \"#utility.yul\":2412:2417   */\n              dup3\n                /* \"#utility.yul\":2374:2418   */\n              tag_103\n              jump\t// in\n            tag_149:\n                /* \"#utility.yul\":2291:2424   */\n              swap2\n              swap1\n              pop\n              jump\t// out\n                /* \"#utility.yul\":2430:2563   */\n            tag_105:\n                /* \"#utility.yul\":2489:2498   */\n              0x00\n                /* \"#utility.yul\":2522:2557   */\n              tag_151\n                /* \"#utility.yul\":2551:2556   */\n              dup3\n                /* \"#utility.yul\":2522:2557   */\n              tag_104\n              jump\t// in\n            tag_151:\n                /* \"#utility.yul\":2509:2557   */\n              swap1\n              pop\n                /* \"#utility.yul\":2430:2563   */\n              swap2\n              swap1\n              pop\n              jump\t// out\n                /* \"#utility.yul\":2569:2718   */\n            tag_106:\n                /* \"#utility.yul\":2665:2711   */\n              tag_153\n                /* \"#utility.yul\":2705:2710   */\n              dup2\n                /* \"#utility.yul\":2665:2711   */\n              tag_105\n              jump\t// in\n            tag_153:\n                /* \"#utility.yul\":2660:2663   */\n              dup3\n                /* \"#utility.yul\":2653:2712   */\n              mstore\n                /* \"#utility.yul\":2569:2718   */\n              pop\n              pop\n              jump\t// out\n                /* \"#utility.yul\":2724:2964   */\n            tag_26:\n                /* \"#utility.yul\":2826:2830   */\n              0x00\n                /* \"#utility.yul\":2864:2866   */\n              0x20\n                /* \"#utility.yul\":2853:2862   */\n              dup3\n                /* \"#utility.yul\":2849:2867   */\n              add\n                /* \"#utility.yul\":2841:2867   */\n              swap1\n              pop\n                /* \"#utility.yul\":2877:2957   */\n              tag_155\n                /* \"#utility.yul\":2954:2955   */\n              0x00\n                /* \"#utility.yul\":2943:2952   */\n              dup4\n                /* \"#utility.yul\":2939:2956   */\n              add\n                /* \"#utility.yul\":2930:2936   */\n              dup5\n                /* \"#utility.yul\":2877:2957   */\n              tag_106\n              jump\t// in\n            tag_155:\n                /* \"#utility.yul\":2724:2964   */\n              swap3\n              swap2\n              pop\n              pop\n              jump\t// out\n                /* \"#utility.yul\":2970:3030   */\n            tag_107:\n                /* \"#utility.yul\":2998:3001   */\n              0x00\n                /* \"#utility.yul\":3019:3024   */\n              dup2\n                /* \"#utility.yul\":3012:3024   */\n              swap1\n              pop\n                /* \"#utility.yul\":2970:3030   */\n              swap2\n              swap1\n              pop\n              jump\t// out\n                /* \"#utility.yul\":3036:3178   */\n            tag_108:\n                /* \"#utility.yul\":3086:3095   */\n              0x00\n                /* \"#utility.yul\":3119:3172   */\n              tag_158\n                /* \"#utility.yul\":3137:3171   */\n              tag_159\n                /* \"#utility.yul\":3146:3170   */\n              tag_160\n                /* \"#utility.yul\":3164:3169   */\n              dup5\n                /* \"#utility.yul\":3146:3170   */\n              tag_95\n              jump\t// in\n            tag_160:\n                /* \"#utility.yul\":3137:3171   */\n              tag_107\n              jump\t// in\n            tag_159:\n                /* \"#utility.yul\":3119:3172   */\n              tag_95\n              jump\t// in\n            tag_158:\n                /* \"#utility.yul\":3106:3172   */\n              swap1\n              pop\n                /* \"#utility.yul\":3036:3178   */\n              swap2\n              swap1\n              pop\n              jump\t// out\n                /* \"#utility.yul\":3184:3310   */\n            tag_109:\n                /* \"#utility.yul\":3234:3243   */\n              0x00\n                /* \"#utility.yul\":3267:3304   */\n              tag_162\n                /* \"#utility.yul\":3298:3303   */\n              dup3\n                /* \"#utility.yul\":3267:3304   */\n              tag_108\n              jump\t// in\n            tag_162:\n                /* \"#utility.yul\":3254:3304   */\n              swap1\n              pop\n                /* \"#utility.yul\":3184:3310   */\n              swap2\n              swap1\n              pop\n              jump\t// out\n                /* \"#utility.yul\":3316:3473   */\n            tag_110:\n                /* \"#utility.yul\":3397:3406   */\n              0x00\n                /* \"#utility.yul\":3430:3467   */\n              tag_164\n                /* \"#utility.yul\":3461:3466   */\n              dup3\n                /* \"#utility.yul\":3430:3467   */\n              tag_109\n              jump\t// in\n            tag_164:\n                /* \"#utility.yul\":3417:3467   */\n              swap1\n              pop\n                /* \"#utility.yul\":3316:3473   */\n              swap2\n              swap1\n              pop\n              jump\t// out\n                /* \"#utility.yul\":3479:3672   */\n            tag_111:\n                /* \"#utility.yul\":3597:3665   */\n              tag_166\n                /* \"#utility.yul\":3659:3664   */\n              dup2\n                /* \"#utility.yul\":3597:3665   */\n              tag_110\n              jump\t// in\n            tag_166:\n                /* \"#utility.yul\":3592:3595   */\n              dup3\n                /* \"#utility.yul\":3585:3666   */\n              mstore\n                /* \"#utility.yul\":3479:3672   */\n              pop\n              pop\n              jump\t// out\n                /* \"#utility.yul\":3678:3962   */\n            tag_30:\n                /* \"#utility.yul\":3802:3806   */\n              0x00\n                /* \"#utility.yul\":3840:3842   */\n              0x20\n                /* \"#utility.yul\":3829:3838   */\n              dup3\n                /* \"#utility.yul\":3825:3843   */\n              add\n                /* \"#utility.yul\":3817:3843   */\n              swap1\n              pop\n                /* \"#utility.yul\":3853:3955   */\n              tag_168\n                /* \"#utility.yul\":3952:3953   */\n              0x00\n                /* \"#utility.yul\":3941:3950   */\n              dup4\n                /* \"#utility.yul\":3937:3954   */\n              add\n                /* \"#utility.yul\":3928:3934   */\n              dup5\n                /* \"#utility.yul\":3853:3955   */\n              tag_111\n              jump\t// in\n            tag_168:\n                /* \"#utility.yul\":3678:3962   */\n              swap3\n              swap2\n              pop\n              pop\n              jump\t// out\n                /* \"#utility.yul\":3968:4045   */\n            tag_112:\n                /* \"#utility.yul\":4005:4012   */\n              0x00\n                /* \"#utility.yul\":4034:4039   */\n              dup2\n                /* \"#utility.yul\":4023:4039   */\n              swap1\n              pop\n                /* \"#utility.yul\":3968:4045   */\n              swap2\n              swap1\n              pop\n              jump\t// out\n                /* \"#utility.yul\":4051:4169   */\n            tag_113:\n                /* \"#utility.yul\":4138:4162   */\n              tag_171\n                /* \"#utility.yul\":4156:4161   */\n              dup2\n                /* \"#utility.yul\":4138:4162   */\n              tag_112\n              jump\t// in\n            tag_171:\n                /* \"#utility.yul\":4133:4136   */\n              dup3\n                /* \"#utility.yul\":4126:4163   */\n              mstore\n                /* \"#utility.yul\":4051:4169   */\n              pop\n              pop\n              jump\t// out\n                /* \"#utility.yul\":4175:4397   */\n            tag_47:\n                /* \"#utility.yul\":4268:4272   */\n              0x00\n                /* \"#utility.yul\":4306:4308   */\n              0x20\n                /* \"#utility.yul\":4295:4304   */\n              dup3\n                /* \"#utility.yul\":4291:4309   */\n              add\n                /* \"#utility.yul\":4283:4309   */\n              swap1\n              pop\n                /* \"#utility.yul\":4319:4390   */\n              tag_173\n                /* \"#utility.yul\":4387:4388   */\n              0x00\n                /* \"#utility.yul\":4376:4385   */\n              dup4\n                /* \"#utility.yul\":4372:4389   */\n              add\n                /* \"#utility.yul\":4363:4369   */\n              dup5\n                /* \"#utility.yul\":4319:4390   */\n              tag_113\n              jump\t// in\n            tag_173:\n                /* \"#utility.yul\":4175:4397   */\n              swap3\n              swap2\n              pop\n              pop\n              jump\t// out\n                /* \"#utility.yul\":4403:4583   */\n            tag_114:\n                /* \"#utility.yul\":4451:4528   */\n              0x4e487b7100000000000000000000000000000000000000000000000000000000\n                /* \"#utility.yul\":4448:4449   */\n              0x00\n                /* \"#utility.yul\":4441:4529   */\n              mstore\n                /* \"#utility.yul\":4548:4552   */\n              0x22\n                /* \"#utility.yul\":4545:4546   */\n              0x04\n                /* \"#utility.yul\":4538:4553   */\n              mstore\n                /* \"#utility.yul\":4572:4576   */\n              0x24\n                /* \"#utility.yul\":4569:4570   */\n              0x00\n                /* \"#utility.yul\":4562:4577   */\n              revert\n                /* \"#utility.yul\":4589:4909   */\n            tag_52:\n                /* \"#utility.yul\":4633:4639   */\n              0x00\n                /* \"#utility.yul\":4670:4671   */\n              0x02\n                /* \"#utility.yul\":4664:4668   */\n              dup3\n                /* \"#utility.yul\":4660:4672   */\n              div\n                /* \"#utility.yul\":4650:4672   */\n              swap1\n              pop\n                /* \"#utility.yul\":4717:4718   */\n              0x01\n                /* \"#utility.yul\":4711:4715   */\n              dup3\n                /* \"#utility.yul\":4707:4719   */\n              and\n                /* \"#utility.yul\":4738:4756   */\n              dup1\n                /* \"#utility.yul\":4728:4809   */\n              tag_176\n              jumpi\n                /* \"#utility.yul\":4794:4798   */\n              0x7f\n                /* \"#utility.yul\":4786:4792   */\n              dup3\n                /* \"#utility.yul\":4782:4799   */\n              and\n                /* \"#utility.yul\":4772:4799   */\n              swap2\n              pop\n                /* \"#utility.yul\":4728:4809   */\n            tag_176:\n                /* \"#utility.yul\":4856:4858   */\n              0x20\n                /* \"#utility.yul\":4848:4854   */\n              dup3\n                /* \"#utility.yul\":4845:4859   */\n              lt\n                /* \"#utility.yul\":4825:4843   */\n              dup2\n                /* \"#utility.yul\":4822:4860   */\n              eq\n                /* \"#utility.yul\":4819:4903   */\n              iszero\n              tag_177\n              jumpi\n                /* \"#utility.yul\":4875:4893   */\n              tag_178\n              tag_114\n              jump\t// in\n            tag_178:\n                /* \"#utility.yul\":4819:4903   */\n            tag_177:\n                /* \"#utility.yul\":4640:4909   */\n              pop\n                /* \"#utility.yul\":4589:4909   */\n              swap2\n              swap1\n              pop\n              jump\t// out\n                /* \"#utility.yul\":4915:5138   */\n            tag_115:\n                /* \"#utility.yul\":5055:5089   */\n              0x436f6e747261637420737461747573206973206e6f7420657175616c20746f20\n                /* \"#utility.yul\":5051:5052   */\n              0x00\n                /* \"#utility.yul\":5043:5049   */\n              dup3\n                /* \"#utility.yul\":5039:5053   */\n              add\n                /* \"#utility.yul\":5032:5090   */\n              mstore\n                /* \"#utility.yul\":5124:5130   */\n              0x6f70656e00000000000000000000000000000000000000000000000000000000\n                /* \"#utility.yul\":5119:5121   */\n              0x20\n                /* \"#utility.yul\":5111:5117   */\n              dup3\n                /* \"#utility.yul\":5107:5122   */\n              add\n                /* \"#utility.yul\":5100:5131   */\n              mstore\n                /* \"#utility.yul\":4915:5138   */\n              pop\n              jump\t// out\n                /* \"#utility.yul\":5144:5510   */\n            tag_116:\n                /* \"#utility.yul\":5286:5289   */\n              0x00\n                /* \"#utility.yul\":5307:5374   */\n              tag_181\n                /* \"#utility.yul\":5371:5373   */\n              0x24\n                /* \"#utility.yul\":5366:5369   */\n              dup4\n                /* \"#utility.yul\":5307:5374   */\n              tag_99\n              jump\t// in\n            tag_181:\n                /* \"#utility.yul\":5300:5374   */\n              swap2\n              pop\n                /* \"#utility.yul\":5383:5476   */\n              tag_182\n                /* \"#utility.yul\":5472:5475   */\n              dup3\n                /* \"#utility.yul\":5383:5476   */\n              tag_115\n              jump\t// in\n            tag_182:\n                /* \"#utility.yul\":5501:5503   */\n              0x40\n                /* \"#utility.yul\":5496:5499   */\n              dup3\n                /* \"#utility.yul\":5492:5504   */\n              add\n                /* \"#utility.yul\":5485:5504   */\n              swap1\n              pop\n                /* \"#utility.yul\":5144:5510   */\n              swap2\n              swap1\n              pop\n              jump\t// out\n                /* \"#utility.yul\":5516:5935   */\n            tag_65:\n                /* \"#utility.yul\":5682:5686   */\n              0x00\n                /* \"#utility.yul\":5720:5722   */\n              0x20\n                /* \"#utility.yul\":5709:5718   */\n              dup3\n                /* \"#utility.yul\":5705:5723   */\n              add\n                /* \"#utility.yul\":5697:5723   */\n              swap1\n              pop\n                /* \"#utility.yul\":5769:5778   */\n              dup2\n                /* \"#utility.yul\":5763:5767   */\n              dup2\n                /* \"#utility.yul\":5759:5779   */\n              sub\n                /* \"#utility.yul\":5755:5756   */\n              0x00\n                /* \"#utility.yul\":5744:5753   */\n              dup4\n                /* \"#utility.yul\":5740:5757   */\n              add\n                /* \"#utility.yul\":5733:5780   */\n              mstore\n                /* \"#utility.yul\":5797:5928   */\n              tag_184\n                /* \"#utility.yul\":5923:5927   */\n              dup2\n                /* \"#utility.yul\":5797:5928   */\n              tag_116\n              jump\t// in\n            tag_184:\n                /* \"#utility.yul\":5789:5928   */\n              swap1\n              pop\n                /* \"#utility.yul\":5516:5935   */\n              swap2\n              swap1\n              pop\n              jump\t// out\n                /* \"#utility.yul\":5941:6169   */\n            tag_117:\n                /* \"#utility.yul\":6081:6115   */\n              0x4f6e6c792072656665726565206f722063726561746f722063616e206661696c\n                /* \"#utility.yul\":6077:6078   */\n              0x00\n                /* \"#utility.yul\":6069:6075   */\n              dup3\n                /* \"#utility.yul\":6065:6079   */\n              add\n                /* \"#utility.yul\":6058:6116   */\n              mstore\n                /* \"#utility.yul\":6150:6161   */\n              0x20636f6e74726163740000000000000000000000000000000000000000000000\n                /* \"#utility.yul\":6145:6147   */\n              0x20\n                /* \"#utility.yul\":6137:6143   */\n              dup3\n                /* \"#utility.yul\":6133:6148   */\n              add\n                /* \"#utility.yul\":6126:6162   */\n              mstore\n                /* \"#utility.yul\":5941:6169   */\n              pop\n              jump\t// out\n                /* \"#utility.yul\":6175:6541   */\n            tag_118:\n                /* \"#utility.yul\":6317:6320   */\n              0x00\n                /* \"#utility.yul\":6338:6405   */\n              tag_187\n                /* \"#utility.yul\":6402:6404   */\n              0x29\n                /* \"#utility.yul\":6397:6400   */\n              dup4\n                /* \"#utility.yul\":6338:6405   */\n              tag_99\n              jump\t// in\n            tag_187:\n                /* \"#utility.yul\":6331:6405   */\n              swap2\n              pop\n                /* \"#utility.yul\":6414:6507   */\n              tag_188\n                /* \"#utility.yul\":6503:6506   */\n              dup3\n                /* \"#utility.yul\":6414:6507   */\n              tag_117\n              jump\t// in\n            tag_188:\n                /* \"#utility.yul\":6532:6534   */\n              0x40\n                /* \"#utility.yul\":6527:6530   */\n              dup3\n                /* \"#utility.yul\":6523:6535   */\n              add\n                /* \"#utility.yul\":6516:6535   */\n              swap1\n              pop\n                /* \"#utility.yul\":6175:6541   */\n              swap2\n              swap1\n              pop\n              jump\t// out\n                /* \"#utility.yul\":6547:6966   */\n            tag_70:\n                /* \"#utility.yul\":6713:6717   */\n              0x00\n                /* \"#utility.yul\":6751:6753   */\n              0x20\n                /* \"#utility.yul\":6740:6749   */\n              dup3\n                /* \"#utility.yul\":6736:6754   */\n              add\n                /* \"#utility.yul\":6728:6754   */\n              swap1\n              pop\n                /* \"#utility.yul\":6800:6809   */\n              dup2\n                /* \"#utility.yul\":6794:6798   */\n              dup2\n                /* \"#utility.yul\":6790:6810   */\n              sub\n                /* \"#utility.yul\":6786:6787   */\n              0x00\n                /* \"#utility.yul\":6775:6784   */\n              dup4\n                /* \"#utility.yul\":6771:6788   */\n              add\n                /* \"#utility.yul\":6764:6811   */\n              mstore\n                /* \"#utility.yul\":6828:6959   */\n              tag_190\n                /* \"#utility.yul\":6954:6958   */\n              dup2\n                /* \"#utility.yul\":6828:6959   */\n              tag_118\n              jump\t// in\n            tag_190:\n                /* \"#utility.yul\":6820:6959   */\n              swap1\n              pop\n                /* \"#utility.yul\":6547:6966   */\n              swap2\n              swap1\n              pop\n              jump\t// out\n                /* \"#utility.yul\":6972:7195   */\n            tag_119:\n                /* \"#utility.yul\":7112:7146   */\n              0x4f6e6c7920726566657265652063616e20636f6d706c657465206120636f6e74\n                /* \"#utility.yul\":7108:7109   */\n              0x00\n                /* \"#utility.yul\":7100:7106   */\n              dup3\n                /* \"#utility.yul\":7096:7110   */\n              add\n                /* \"#utility.yul\":7089:7147   */\n              mstore\n                /* \"#utility.yul\":7181:7187   */\n              0x7261637400000000000000000000000000000000000000000000000000000000\n                /* \"#utility.yul\":7176:7178   */\n              0x20\n                /* \"#utility.yul\":7168:7174   */\n              dup3\n                /* \"#utility.yul\":7164:7179   */\n              add\n                /* \"#utility.yul\":7157:7188   */\n              mstore\n                /* \"#utility.yul\":6972:7195   */\n              pop\n              jump\t// out\n                /* \"#utility.yul\":7201:7567   */\n            tag_120:\n                /* \"#utility.yul\":7343:7346   */\n              0x00\n                /* \"#utility.yul\":7364:7431   */\n              tag_193\n                /* \"#utility.yul\":7428:7430   */\n              0x24\n                /* \"#utility.yul\":7423:7426   */\n              dup4\n                /* \"#utility.yul\":7364:7431   */\n              tag_99\n              jump\t// in\n            tag_193:\n                /* \"#utility.yul\":7357:7431   */\n              swap2\n              pop\n                /* \"#utility.yul\":7440:7533   */\n              tag_194\n                /* \"#utility.yul\":7529:7532   */\n              dup3\n                /* \"#utility.yul\":7440:7533   */\n              tag_119\n              jump\t// in\n            tag_194:\n                /* \"#utility.yul\":7558:7560   */\n              0x40\n                /* \"#utility.yul\":7553:7556   */\n              dup3\n                /* \"#utility.yul\":7549:7561   */\n              add\n                /* \"#utility.yul\":7542:7561   */\n              swap1\n              pop\n                /* \"#utility.yul\":7201:7567   */\n              swap2\n              swap1\n              pop\n              jump\t// out\n                /* \"#utility.yul\":7573:7992   */\n            tag_90:\n                /* \"#utility.yul\":7739:7743   */\n              0x00\n                /* \"#utility.yul\":7777:7779   */\n              0x20\n                /* \"#utility.yul\":7766:7775   */\n              dup3\n                /* \"#utility.yul\":7762:7780   */\n              add\n                /* \"#utility.yul\":7754:7780   */\n              swap1\n              pop\n                /* \"#utility.yul\":7826:7835   */\n              dup2\n                /* \"#utility.yul\":7820:7824   */\n              dup2\n                /* \"#utility.yul\":7816:7836   */\n              sub\n                /* \"#utility.yul\":7812:7813   */\n              0x00\n                /* \"#utility.yul\":7801:7810   */\n              dup4\n                /* \"#utility.yul\":7797:7814   */\n              add\n                /* \"#utility.yul\":7790:7837   */\n              mstore\n                /* \"#utility.yul\":7854:7985   */\n              tag_196\n                /* \"#utility.yul\":7980:7984   */\n              dup2\n                /* \"#utility.yul\":7854:7985   */\n              tag_120\n              jump\t// in\n            tag_196:\n                /* \"#utility.yul\":7846:7985   */\n              swap1\n              pop\n                /* \"#utility.yul\":7573:7992   */\n              swap2\n              swap1\n              pop\n              jump\t// out\n\n            auxdata: 0xa26469706673582212202b9d652ef9ae0b580b68d07600cdda27f9c20880012c0eb5104d895f4229f4e564736f6c634300080c0033\n        }\n    }\n\n    auxdata: 0xa26469706673582212207e7de3100fe0fa599ea1e4d9e8ab0a869a9afb3a4a3b21bda2fbd2c909996e4064736f6c634300080c0033\n}\n","bytecode":{"linkReferences":{},"object":"608060405234801561001057600080fd5b50615a3e806100206000396000f3fe608060405260043610620001525760003560e01c806375ce46a711620000bb578063b24e67d01162000079578063b24e67d0146200052d578063b3b6633e1462000571578063d77399e514620005a1578063dc0e0c1314620005cf578063e10bc83414620005ff578063e436e826146200062d5762000152565b806375ce46a714620003ed5780638793ed80146200041d5780639051e2341462000461578063a87430ba14620004a5578063a908f4fa14620004e95762000152565b8063442a7bc71162000115578063442a7bc714620002955780634841a88514620002d9578063502c9bd514620003095780635b259abf146200034d57806361542c44146200037b57806364a60b4714620003a95762000152565b8063061dff9a14620001575780630e865751146200018557806319ee8bd414620001c957806338db44bc146200020d57806338fb42fd1462000251575b600080fd5b3480156200016457600080fd5b506200018360048036038101906200017d919062002e4e565b6200064d565b005b3480156200019257600080fd5b50620001b16004803603810190620001ab919062002ebb565b62000b63565b604051620001c0919062002fd0565b60405180910390f35b348015620001d657600080fd5b50620001f56004803603810190620001ef919062002e4e565b62000d17565b60405162000204919062002fd0565b60405180910390f35b3480156200021a57600080fd5b5062000239600480360381019062000233919062002ff4565b62000de9565b60405162000248919062003037565b60405180910390f35b3480156200025e57600080fd5b506200027d600480360381019062000277919062002ff4565b62000e29565b6040516200028c919062003037565b60405180910390f35b348015620002a257600080fd5b50620002c16004803603810190620002bb919062002e4e565b62000e69565b604051620002d0919062002fd0565b60405180910390f35b348015620002e657600080fd5b50620002f162000f3a565b60405162000300919062003065565b60405180910390f35b3480156200031657600080fd5b506200033560048036038101906200032f919062002ff4565b62000f40565b60405162000344919062003037565b60405180910390f35b3480156200035a57600080fd5b5062000379600480360381019062000373919062002e4e565b62000f80565b005b3480156200038857600080fd5b50620003a76004803603810190620003a1919062002e4e565b620010f8565b005b348015620003b657600080fd5b50620003d56004803603810190620003cf919062002e4e565b62001270565b604051620003e4919062003065565b60405180910390f35b348015620003fa57600080fd5b50620004056200128e565b60405162000414919062003065565b60405180910390f35b3480156200042a57600080fd5b5062000449600480360381019062000443919062002e4e565b62001294565b60405162000458919062002fd0565b60405180910390f35b3480156200046e57600080fd5b506200048d600480360381019062000487919062002e4e565b62001366565b6040516200049c919062002fd0565b60405180910390f35b348015620004b257600080fd5b50620004d16004803603810190620004cb919062002e4e565b62001438565b604051620004e0919062003065565b60405180910390f35b348015620004f657600080fd5b506200051560048036038101906200050f919062002ebb565b62001456565b60405162000524919062002fd0565b60405180910390f35b3480156200053a57600080fd5b5062000559600480360381019062000553919062002e4e565b6200160a565b60405162000568919062002fd0565b60405180910390f35b3480156200057e57600080fd5b5062000589620016db565b60405162000598919062003065565b60405180910390f35b348015620005ae57600080fd5b50620005cd6004803603810190620005c79190620031e4565b620016e1565b005b348015620005dc57600080fd5b50620005e76200176d565b604051620005f6919062003065565b60405180910390f35b3480156200060c57600080fd5b506200062b600480360381019062000625919062002e4e565b62001773565b005b6200064b60048036038101906200064591906200328f565b62001be5565b005b600081905060008173ffffffffffffffffffffffffffffffffffffffff16633c4901746040518163ffffffff1660e01b8152600401602060405180830381865afa158015620006a0573d6000803e3d6000fd5b505050506040513d601f19601f82011682018060405250810190620006c6919062003356565b90508173ffffffffffffffffffffffffffffffffffffffff16633b1bebd16040518163ffffffff1660e01b8152600401602060405180830381865afa15801562000714573d6000803e3d6000fd5b505050506040513d601f19601f820116820180604052508101906200073a919062003356565b73ffffffffffffffffffffffffffffffffffffffff168173ffffffffffffffffffffffffffffffffffffffff16633b1bebd16040518163ffffffff1660e01b8152600401602060405180830381865afa1580156200079c573d6000803e3d6000fd5b505050506040513d601f19601f82011682018060405250810190620007c2919062003356565b73ffffffffffffffffffffffffffffffffffffffff16146200081b576040517f08c379a000000000000000000000000000000000000000000000000000000000815260040162000812906200340f565b60405180910390fd5b8173ffffffffffffffffffffffffffffffffffffffff1663263b81c96040518163ffffffff1660e01b81526004016020604051808303816000875af115801562000869573d6000803e3d6000fd5b505050506040513d601f19601f820116820180604052508101906200088f919062003476565b508073ffffffffffffffffffffffffffffffffffffffff1663b4fedc116040518163ffffffff1660e01b81526004016020604051808303816000875af1158015620008de573d6000803e3d6000fd5b505050506040513d601f19601f82011682018060405250810190620009049190620034ed565b50620009f38173ffffffffffffffffffffffffffffffffffffffff166302d05d3f6040518163ffffffff1660e01b8152600401602060405180830381865afa15801562000955573d6000803e3d6000fd5b505050506040513d601f19601f820116820180604052508101906200097b919062003356565b8373ffffffffffffffffffffffffffffffffffffffff16633c4901746040518163ffffffff1660e01b8152600401602060405180830381865afa158015620009c7573d6000803e3d6000fd5b505050506040513d601f19601f82011682018060405250810190620009ed919062003356565b62002058565b62000ae18173ffffffffffffffffffffffffffffffffffffffff16633b1bebd16040518163ffffffff1660e01b8152600401602060405180830381865afa15801562000a43573d6000803e3d6000fd5b505050506040513d601f19601f8201168201806040525081019062000a69919062003356565b8373ffffffffffffffffffffffffffffffffffffffff16633c4901746040518163ffffffff1660e01b8152600401602060405180830381865afa15801562000ab5573d6000803e3d6000fd5b505050506040513d601f19601f8201168201806040525081019062000adb919062003356565b62002415565b62000b5e8173ffffffffffffffffffffffffffffffffffffffff16633b1bebd16040518163ffffffff1660e01b8152600401602060405180830381865afa15801562000b31573d6000803e3d6000fd5b505050506040513d601f19601f8201168201806040525081019062000b57919062003356565b84620027d3565b505050565b6060600083101562000bac576040517f08c379a000000000000000000000000000000000000000000000000000000000815260040162000ba3906200356f565b60405180910390fd5b60038054905082111562000bf7576040517f08c379a000000000000000000000000000000000000000000000000000000000815260040162000bee9062003607565b60405180910390fd5b6000838362000c07919062003658565b67ffffffffffffffff81111562000c235762000c226200309d565b5b60405190808252806020026020018201604052801562000c525781602001602082028036833780820191505090505b50905060008490505b8381101562000d0c576003818154811062000c7b5762000c7a62003693565b5b9060005260206000200160009054906101000a900473ffffffffffffffffffffffffffffffffffffffff1682828151811062000cbc5762000cbb62003693565b5b602002602001019073ffffffffffffffffffffffffffffffffffffffff16908173ffffffffffffffffffffffffffffffffffffffff1681525050808062000d0390620036c2565b91505062000c5b565b508091505092915050565b6060600660008373ffffffffffffffffffffffffffffffffffffffff1673ffffffffffffffffffffffffffffffffffffffff16815260200190815260200160002060020180548060200260200160405190810160405280929190818152602001828054801562000ddd57602002820191906000526020600020905b8160009054906101000a900473ffffffffffffffffffffffffffffffffffffffff1673ffffffffffffffffffffffffffffffffffffffff168152602001906001019080831162000d92575b50505050509050919050565b6003818154811062000dfa57600080fd5b906000526020600020016000915054906101000a900473ffffffffffffffffffffffffffffffffffffffff1681565b6008818154811062000e3a57600080fd5b906000526020600020016000915054906101000a900473ffffffffffffffffffffffffffffffffffffffff1681565b60606000808373ffffffffffffffffffffffffffffffffffffffff1673ffffffffffffffffffffffffffffffffffffffff16815260200190815260200160002060010180548060200260200160405190810160405280929190818152602001828054801562000f2e57602002820191906000526020600020905b8160009054906101000a900473ffffffffffffffffffffffffffffffffffffffff1673ffffffffffffffffffffffffffffffffffffffff168152602001906001019080831162000ee3575b50505050509050919050565b60045481565b6001818154811062000f5157600080fd5b906000526020600020016000915054906101000a900473ffffffffffffffffffffffffffffffffffffffff1681565b60008190508073ffffffffffffffffffffffffffffffffffffffff16632d398fa66040518163ffffffff1660e01b81526004016020604051808303816000875af115801562000fd3573d6000803e3d6000fd5b505050506040513d601f19601f8201168201806040525081019062000ff99190620034ed565b50620010778173ffffffffffffffffffffffffffffffffffffffff166302d05d3f6040518163ffffffff1660e01b8152600401602060405180830381865afa1580156200104a573d6000803e3d6000fd5b505050506040513d601f19601f8201168201806040525081019062001070919062003356565b8362002058565b620010f48173ffffffffffffffffffffffffffffffffffffffff16633b1bebd16040518163ffffffff1660e01b8152600401602060405180830381865afa158015620010c7573d6000803e3d6000fd5b505050506040513d601f19601f82011682018060405250810190620010ed919062003356565b8362002415565b5050565b60008190508073ffffffffffffffffffffffffffffffffffffffff1663b4fedc116040518163ffffffff1660e01b81526004016020604051808303816000875af11580156200114b573d6000803e3d6000fd5b505050506040513d601f19601f82011682018060405250810190620011719190620034ed565b50620011ef8173ffffffffffffffffffffffffffffffffffffffff166302d05d3f6040518163ffffffff1660e01b8152600401602060405180830381865afa158015620011c2573d6000803e3d6000fd5b505050506040513d601f19601f82011682018060405250810190620011e8919062003356565b8362002058565b6200126c8173ffffffffffffffffffffffffffffffffffffffff16633b1bebd16040518163ffffffff1660e01b8152600401602060405180830381865afa1580156200123f573d6000803e3d6000fd5b505050506040513d601f19601f8201168201806040525081019062001265919062003356565b8362002415565b5050565b60066020528060005260406000206000915090508060000154905081565b60025481565b6060600660008373ffffffffffffffffffffffffffffffffffffffff1673ffffffffffffffffffffffffffffffffffffffff1681526020019081526020016000206003018054806020026020016040519081016040528092919081815260200182805480156200135a57602002820191906000526020600020905b8160009054906101000a900473ffffffffffffffffffffffffffffffffffffffff1673ffffffffffffffffffffffffffffffffffffffff16815260200190600101908083116200130f575b50505050509050919050565b6060600660008373ffffffffffffffffffffffffffffffffffffffff1673ffffffffffffffffffffffffffffffffffffffff1681526020019081526020016000206001018054806020026020016040519081016040528092919081815260200182805480156200142c57602002820191906000526020600020905b8160009054906101000a900473ffffffffffffffffffffffffffffffffffffffff1673ffffffffffffffffffffffffffffffffffffffff1681526020019060010190808311620013e1575b50505050509050919050565b60006020528060005260406000206000915090508060000154905081565b606060008310156200149f576040517f08c379a000000000000000000000000000000000000000000000000000000000815260040162001496906200356f565b60405180910390fd5b600180549050821115620014ea576040517f08c379a0000000000000000000000000000000000000000000000000000000008152600401620014e19062003607565b60405180910390fd5b60008383620014fa919062003658565b67ffffffffffffffff8111156200151657620015156200309d565b5b604051908082528060200260200182016040528015620015455781602001602082028036833780820191505090505b50905060008490505b83811015620015ff57600181815481106200156e576200156d62003693565b5b9060005260206000200160009054906101000a900473ffffffffffffffffffffffffffffffffffffffff16828281518110620015af57620015ae62003693565b5b602002602001019073ffffffffffffffffffffffffffffffffffffffff16908173ffffffffffffffffffffffffffffffffffffffff16815250508080620015f690620036c2565b9150506200154e565b508091505092915050565b60606000808373ffffffffffffffffffffffffffffffffffffffff1673ffffffffffffffffffffffffffffffffffffffff168152602001908152602001600020600201805480602002602001604051908101604052809291908181526020018280548015620016cf57602002820191906000526020600020905b8160009054906101000a900473ffffffffffffffffffffffffffffffffffffffff1673ffffffffffffffffffffffffffffffffffffffff168152602001906001019080831162001684575b50505050509050919050565b60075481565b60008290508073ffffffffffffffffffffffffffffffffffffffff1663d69b7ce3836040518263ffffffff1660e01b815260040162001721919062003792565b6020604051808303816000875af115801562001741573d6000803e3d6000fd5b505050506040513d601f19601f8201168201806040525081019062001767919062003476565b50505050565b60055481565b6000819050600060028111156200178f576200178e620037b6565b5b8173ffffffffffffffffffffffffffffffffffffffff1663200d2ed26040518163ffffffff1660e01b8152600401602060405180830381865afa158015620017db573d6000803e3d6000fd5b505050506040513d601f19601f820116820180604052508101906200180191906200380d565b6002811115620018165762001815620037b6565b5b1462001859576040517f08c379a000000000000000000000000000000000000000000000000000000000815260040162001850906200388f565b60405180910390fd5b8073ffffffffffffffffffffffffffffffffffffffff166302d05d3f6040518163ffffffff1660e01b8152600401602060405180830381865afa158015620018a5573d6000803e3d6000fd5b505050506040513d601f19601f82011682018060405250810190620018cb919062003356565b73ffffffffffffffffffffffffffffffffffffffff163273ffffffffffffffffffffffffffffffffffffffff16146200193b576040517f08c379a0000000000000000000000000000000000000000000000000000000008152600401620019329062003927565b60405180910390fd5b8073ffffffffffffffffffffffffffffffffffffffff16633b1bebd16040518163ffffffff1660e01b8152600401602060405180830381865afa15801562001987573d6000803e3d6000fd5b505050506040513d601f19601f82011682018060405250810190620019ad919062003356565b73ffffffffffffffffffffffffffffffffffffffff168173ffffffffffffffffffffffffffffffffffffffff166302d05d3f6040518163ffffffff1660e01b8152600401602060405180830381865afa15801562001a0f573d6000803e3d6000fd5b505050506040513d601f19601f8201168201806040525081019062001a35919062003356565b73ffffffffffffffffffffffffffffffffffffffff16141562001a8f576040517f08c379a000000000000000000000000000000000000000000000000000000000815260040162001a8690620039bf565b60405180910390fd5b60008260405162001aa09062002db9565b62001aac919062003037565b604051809103906000f08015801562001ac9573d6000803e3d6000fd5b509050600660008373ffffffffffffffffffffffffffffffffffffffff16633b1bebd16040518163ffffffff1660e01b8152600401602060405180830381865afa15801562001b1c573d6000803e3d6000fd5b505050506040513d601f19601f8201168201806040525081019062001b42919062003356565b73ffffffffffffffffffffffffffffffffffffffff1673ffffffffffffffffffffffffffffffffffffffff168152602001908152602001600020600301819080600181540180825580915050600190039060005260206000200160009091909190916101000a81548173ffffffffffffffffffffffffffffffffffffffff021916908373ffffffffffffffffffffffffffffffffffffffff160217905550505050565b60008060003373ffffffffffffffffffffffffffffffffffffffff1673ffffffffffffffffffffffffffffffffffffffff16815260200190815260200160002060000154141562001cae576002600081548092919062001c4590620036c2565b91905055506001339080600181540180825580915050600190039060005260206000200160009091909190916101000a81548173ffffffffffffffffffffffffffffffffffffffff021916908373ffffffffffffffffffffffffffffffffffffffff1602179055505b6000600660008673ffffffffffffffffffffffffffffffffffffffff1673ffffffffffffffffffffffffffffffffffffffff16815260200190815260200160002060000154141562001d78576007600081548092919062001d0f90620036c2565b91905055506008849080600181540180825580915050600190039060005260206000200160009091909190916101000a81548173ffffffffffffffffffffffffffffffffffffffff021916908373ffffffffffffffffffffffffffffffffffffffff1602179055505b60003433868686863460405162001d8f9062002dc7565b62001da09695949392919062003a4c565b6040518091039082f090508015801562001dbe573d6000803e3d6000fd5b5090506004600081548092919062001dd690620036c2565b91905055506003819080600181540180825580915050600190039060005260206000200160009091909190916101000a81548173ffffffffffffffffffffffffffffffffffffffff021916908373ffffffffffffffffffffffffffffffffffffffff160217905550346005600082825462001e52919062003ac7565b925050819055506000803373ffffffffffffffffffffffffffffffffffffffff1673ffffffffffffffffffffffffffffffffffffffff168152602001908152602001600020600001600081548092919062001ead90620036c2565b91905055506000803373ffffffffffffffffffffffffffffffffffffffff1673ffffffffffffffffffffffffffffffffffffffff168152602001908152602001600020600101819080600181540180825580915050600190039060005260206000200160009091909190916101000a81548173ffffffffffffffffffffffffffffffffffffffff021916908373ffffffffffffffffffffffffffffffffffffffff160217905550600660008673ffffffffffffffffffffffffffffffffffffffff1673ffffffffffffffffffffffffffffffffffffffff168152602001908152602001600020600001600081548092919062001fa990620036c2565b9190505550600660008673ffffffffffffffffffffffffffffffffffffffff1673ffffffffffffffffffffffffffffffffffffffff168152602001908152602001600020600101819080600181540180825580915050600190039060005260206000200160009091909190916101000a81548173ffffffffffffffffffffffffffffffffffffffff021916908373ffffffffffffffffffffffffffffffffffffffff1602179055505050505050565b600062002066838362002b43565b905060008060008573ffffffffffffffffffffffffffffffffffffffff1673ffffffffffffffffffffffffffffffffffffffff16815260200190815260200160002060010180549050905060008290505b600182620020c6919062003658565b81101562002211576000808673ffffffffffffffffffffffffffffffffffffffff1673ffffffffffffffffffffffffffffffffffffffff1681526020019081526020016000206001016001826200211e919062003ac7565b8154811062002132576200213162003693565b5b9060005260206000200160009054906101000a900473ffffffffffffffffffffffffffffffffffffffff166000808773ffffffffffffffffffffffffffffffffffffffff1673ffffffffffffffffffffffffffffffffffffffff1681526020019081526020016000206001018281548110620021b357620021b262003693565b5b9060005260206000200160006101000a81548173ffffffffffffffffffffffffffffffffffffffff021916908373ffffffffffffffffffffffffffffffffffffffff16021790555080806200220890620036c2565b915050620020b7565b506000808573ffffffffffffffffffffffffffffffffffffffff1673ffffffffffffffffffffffffffffffffffffffff1681526020019081526020016000206002016000808673ffffffffffffffffffffffffffffffffffffffff1673ffffffffffffffffffffffffffffffffffffffff16815260200190815260200160002060010160016000808873ffffffffffffffffffffffffffffffffffffffff1673ffffffffffffffffffffffffffffffffffffffff16815260200190815260200160002060010180549050620022e7919062003658565b81548110620022fb57620022fa62003693565b5b9060005260206000200160009054906101000a900473ffffffffffffffffffffffffffffffffffffffff169080600181540180825580915050600190039060005260206000200160009091909190916101000a81548173ffffffffffffffffffffffffffffffffffffffff021916908373ffffffffffffffffffffffffffffffffffffffff1602179055506000808573ffffffffffffffffffffffffffffffffffffffff1673ffffffffffffffffffffffffffffffffffffffff168152602001908152602001600020600101805480620023da57620023d962003b24565b5b6001900381819060005260206000200160006101000a81549073ffffffffffffffffffffffffffffffffffffffff0219169055905550505050565b600062002423838362002c7d565b905060008190505b6001600660008673ffffffffffffffffffffffffffffffffffffffff1673ffffffffffffffffffffffffffffffffffffffff168152602001908152602001600020600101805490506200247f919062003658565b811015620025cc57600660008573ffffffffffffffffffffffffffffffffffffffff1673ffffffffffffffffffffffffffffffffffffffff168152602001908152602001600020600101600182620024d8919062003ac7565b81548110620024ec57620024eb62003693565b5b9060005260206000200160009054906101000a900473ffffffffffffffffffffffffffffffffffffffff16600660008673ffffffffffffffffffffffffffffffffffffffff1673ffffffffffffffffffffffffffffffffffffffff16815260200190815260200160002060010182815481106200256e576200256d62003693565b5b9060005260206000200160006101000a81548173ffffffffffffffffffffffffffffffffffffffff021916908373ffffffffffffffffffffffffffffffffffffffff1602179055508080620025c390620036c2565b9150506200242b565b50600660008473ffffffffffffffffffffffffffffffffffffffff1673ffffffffffffffffffffffffffffffffffffffff168152602001908152602001600020600201600660008573ffffffffffffffffffffffffffffffffffffffff1673ffffffffffffffffffffffffffffffffffffffff1681526020019081526020016000206001016001600660008773ffffffffffffffffffffffffffffffffffffffff1673ffffffffffffffffffffffffffffffffffffffff16815260200190815260200160002060010180549050620026a5919062003658565b81548110620026b957620026b862003693565b5b9060005260206000200160009054906101000a900473ffffffffffffffffffffffffffffffffffffffff169080600181540180825580915050600190039060005260206000200160009091909190916101000a81548173ffffffffffffffffffffffffffffffffffffffff021916908373ffffffffffffffffffffffffffffffffffffffff160217905550600660008473ffffffffffffffffffffffffffffffffffffffff1673ffffffffffffffffffffffffffffffffffffffff16815260200190815260200160002060010180548062002799576200279862003b24565b5b6001900381819060005260206000200160006101000a81549073ffffffffffffffffffffffffffffffffffffffff02191690559055505050565b600080600090505b6001600660008673ffffffffffffffffffffffffffffffffffffffff1673ffffffffffffffffffffffffffffffffffffffff168152602001908152602001600020600301805490506200282f919062003658565b81116200290b578273ffffffffffffffffffffffffffffffffffffffff16600660008673ffffffffffffffffffffffffffffffffffffffff1673ffffffffffffffffffffffffffffffffffffffff1681526020019081526020016000206003018281548110620028a457620028a362003693565b5b9060005260206000200160009054906101000a900473ffffffffffffffffffffffffffffffffffffffff1673ffffffffffffffffffffffffffffffffffffffff161415620028f5578091506200290b565b80806200290290620036c2565b915050620027db565b5060008190505b6001600660008673ffffffffffffffffffffffffffffffffffffffff1673ffffffffffffffffffffffffffffffffffffffff1681526020019081526020016000206003018054905062002966919062003658565b81101562002ab357600660008573ffffffffffffffffffffffffffffffffffffffff1673ffffffffffffffffffffffffffffffffffffffff168152602001908152602001600020600301600182620029bf919062003ac7565b81548110620029d357620029d262003693565b5b9060005260206000200160009054906101000a900473ffffffffffffffffffffffffffffffffffffffff16600660008673ffffffffffffffffffffffffffffffffffffffff1673ffffffffffffffffffffffffffffffffffffffff168152602001908152602001600020600301828154811062002a555762002a5462003693565b5b9060005260206000200160006101000a81548173ffffffffffffffffffffffffffffffffffffffff021916908373ffffffffffffffffffffffffffffffffffffffff160217905550808062002aaa90620036c2565b91505062002912565b50600660008473ffffffffffffffffffffffffffffffffffffffff1673ffffffffffffffffffffffffffffffffffffffff16815260200190815260200160002060030180548062002b095762002b0862003b24565b5b6001900381819060005260206000200160006101000a81549073ffffffffffffffffffffffffffffffffffffffff02191690559055505050565b60008060005b60016000808773ffffffffffffffffffffffffffffffffffffffff1673ffffffffffffffffffffffffffffffffffffffff1681526020019081526020016000206001018054905062002b9c919062003658565b811162002c72578373ffffffffffffffffffffffffffffffffffffffff166000808773ffffffffffffffffffffffffffffffffffffffff1673ffffffffffffffffffffffffffffffffffffffff168152602001908152602001600020600101828154811062002c105762002c0f62003693565b5b9060005260206000200160009054906101000a900473ffffffffffffffffffffffffffffffffffffffff1673ffffffffffffffffffffffffffffffffffffffff16141562002c5c578091505b808062002c6990620036c2565b91505062002b49565b508091505092915050565b60008060005b6001600660008773ffffffffffffffffffffffffffffffffffffffff1673ffffffffffffffffffffffffffffffffffffffff1681526020019081526020016000206001018054905062002cd7919062003658565b811162002dae578373ffffffffffffffffffffffffffffffffffffffff16600660008773ffffffffffffffffffffffffffffffffffffffff1673ffffffffffffffffffffffffffffffffffffffff168152602001908152602001600020600101828154811062002d4c5762002d4b62003693565b5b9060005260206000200160009054906101000a900473ffffffffffffffffffffffffffffffffffffffff1673ffffffffffffffffffffffffffffffffffffffff16141562002d98578091505b808062002da590620036c2565b91505062002c83565b508091505092915050565b610d198062003b5483390190565b61119c806200486d83390190565b6000604051905090565b600080fd5b600080fd5b600073ffffffffffffffffffffffffffffffffffffffff82169050919050565b600062002e168262002de9565b9050919050565b62002e288162002e09565b811462002e3457600080fd5b50565b60008135905062002e488162002e1d565b92915050565b60006020828403121562002e675762002e6662002ddf565b5b600062002e778482850162002e37565b91505092915050565b6000819050919050565b62002e958162002e80565b811462002ea157600080fd5b50565b60008135905062002eb58162002e8a565b92915050565b6000806040838503121562002ed55762002ed462002ddf565b5b600062002ee58582860162002ea4565b925050602062002ef88582860162002ea4565b9150509250929050565b600081519050919050565b600082825260208201905092915050565b6000819050602082019050919050565b62002f398162002e09565b82525050565b600062002f4d838362002f2e565b60208301905092915050565b6000602082019050919050565b600062002f738262002f02565b62002f7f818562002f0d565b935062002f8c8362002f1e565b8060005b8381101562002fc357815162002fa7888262002f3f565b975062002fb48362002f59565b92505060018101905062002f90565b5085935050505092915050565b6000602082019050818103600083015262002fec818462002f66565b905092915050565b6000602082840312156200300d576200300c62002ddf565b5b60006200301d8482850162002ea4565b91505092915050565b620030318162002e09565b82525050565b60006020820190506200304e600083018462003026565b92915050565b6200305f8162002e80565b82525050565b60006020820190506200307c600083018462003054565b92915050565b600080fd5b600080fd5b6000601f19601f8301169050919050565b7f4e487b7100000000000000000000000000000000000000000000000000000000600052604160045260246000fd5b620030d7826200308c565b810181811067ffffffffffffffff82111715620030f957620030f86200309d565b5b80604052505050565b60006200310e62002dd5565b90506200311c8282620030cc565b919050565b600067ffffffffffffffff8211156200313f576200313e6200309d565b5b6200314a826200308c565b9050602081019050919050565b82818337600083830152505050565b60006200317d620031778462003121565b62003102565b9050828152602081018484840111156200319c576200319b62003087565b5b620031a984828562003157565b509392505050565b600082601f830112620031c957620031c862003082565b5b8135620031db84826020860162003166565b91505092915050565b60008060408385031215620031fe57620031fd62002ddf565b5b60006200320e8582860162002e37565b925050602083013567ffffffffffffffff81111562003232576200323162002de4565b5b6200324085828601620031b1565b9150509250929050565b6000620032578262002de9565b9050919050565b62003269816200324a565b81146200327557600080fd5b50565b60008135905062003289816200325e565b92915050565b60008060008060808587031215620032ac57620032ab62002ddf565b5b6000620032bc8782880162002e37565b945050602085013567ffffffffffffffff811115620032e057620032df62002de4565b5b620032ee87828801620031b1565b935050604085013567ffffffffffffffff81111562003312576200331162002de4565b5b6200332087828801620031b1565b9250506060620033338782880162003278565b91505092959194509250565b600081519050620033508162002e1d565b92915050565b6000602082840312156200336f576200336e62002ddf565b5b60006200337f848285016200333f565b91505092915050565b600082825260208201905092915050565b7f4f6e6c7920636f6e747261637420726566657265652063616e20617070726f7660008201527f65207265717565737420666f7220636f6d706c6574696f6e0000000000000000602082015250565b6000620033f760388362003388565b9150620034048262003399565b604082019050919050565b600060208201905081810360008301526200342a81620033e8565b9050919050565b60006200343e8262002e09565b9050919050565b620034508162003431565b81146200345c57600080fd5b50565b600081519050620034708162003445565b92915050565b6000602082840312156200348f576200348e62002ddf565b5b60006200349f848285016200345f565b91505092915050565b6000620034b58262002e09565b9050919050565b620034c781620034a8565b8114620034d357600080fd5b50565b600081519050620034e781620034bc565b92915050565b60006020828403121562003506576200350562002ddf565b5b60006200351684828501620034d6565b91505092915050565b7f537461727420696e6465782063616e6e6f74206265206e656761746976650000600082015250565b600062003557601e8362003388565b915062003564826200351f565b602082019050919050565b600060208201905081810360008301526200358a8162003548565b9050919050565b7f456e6420696e646578206578636565647320757365722061646472657373657360008201527f206c656e67746800000000000000000000000000000000000000000000000000602082015250565b6000620035ef60278362003388565b9150620035fc8262003591565b604082019050919050565b600060208201905081810360008301526200362281620035e0565b9050919050565b7f4e487b7100000000000000000000000000000000000000000000000000000000600052601160045260246000fd5b6000620036658262002e80565b9150620036728362002e80565b92508282101562003688576200368762003629565b5b828203905092915050565b7f4e487b7100000000000000000000000000000000000000000000000000000000600052603260045260246000fd5b6000620036cf8262002e80565b91507fffffffffffffffffffffffffffffffffffffffffffffffffffffffffffffffff82141562003705576200370462003629565b5b600182019050919050565b600081519050919050565b60005b838110156200373b5780820151818401526020810190506200371e565b838111156200374b576000848401525b50505050565b60006200375e8262003710565b6200376a818562003388565b93506200377c8185602086016200371b565b62003787816200308c565b840191505092915050565b60006020820190508181036000830152620037ae818462003751565b905092915050565b7f4e487b7100000000000000000000000000000000000000000000000000000000600052602160045260246000fd5b60038110620037f357600080fd5b50565b6000815190506200380781620037e5565b92915050565b60006020828403121562003826576200382562002ddf565b5b60006200383684828501620037f6565b91505092915050565b7f436f6e747261637420737461747573206d757374206265206f70656e00000000600082015250565b600062003877601c8362003388565b915062003884826200383f565b602082019050919050565b60006020820190508181036000830152620038aa8162003868565b9050919050565b7f4f6e6c792063726561746f72206f6620636f6e74726163742063616e2072657160008201527f7565737420636f6d706c6574696f6e0000000000000000000000000000000000602082015250565b60006200390f602f8362003388565b91506200391c82620038b1565b604082019050919050565b60006020820190508181036000830152620039428162003900565b9050919050565b7f43616e6e6f74207265717565737420617070726f76616c207768656e2063726560008201527f61746f7220697320726566657265650000000000000000000000000000000000602082015250565b6000620039a7602f8362003388565b9150620039b48262003949565b604082019050919050565b60006020820190508181036000830152620039da8162003998565b9050919050565b6000819050919050565b600062003a0c62003a0662003a008462002de9565b620039e1565b62002de9565b9050919050565b600062003a2082620039eb565b9050919050565b600062003a348262003a13565b9050919050565b62003a468162003a27565b82525050565b600060c08201905062003a63600083018962003026565b62003a72602083018862003026565b818103604083015262003a86818762003751565b9050818103606083015262003a9c818662003751565b905062003aad608083018562003a3b565b62003abc60a083018462003054565b979650505050505050565b600062003ad48262002e80565b915062003ae18362002e80565b9250827fffffffffffffffffffffffffffffffffffffffffffffffffffffffffffffffff0382111562003b195762003b1862003629565b5b828201905092915050565b7f4e487b7100000000000000000000000000000000000000000000000000000000600052603160045260246000fdfe60806040523480156200001157600080fd5b5060405162000d1938038062000d19833981810160405281019062000037919062000280565b60008190508073ffffffffffffffffffffffffffffffffffffffff166302d05d3f6040518163ffffffff1660e01b8152600401602060405180830381865afa15801562000088573d6000803e3d6000fd5b505050506040513d601f19601f82011682018060405250810190620000ae919062000280565b6000806101000a81548173ffffffffffffffffffffffffffffffffffffffff021916908373ffffffffffffffffffffffffffffffffffffffff1602179055508073ffffffffffffffffffffffffffffffffffffffff16633b1bebd16040518163ffffffff1660e01b8152600401602060405180830381865afa15801562000139573d6000803e3d6000fd5b505050506040513d601f19601f820116820180604052508101906200015f919062000280565b600160006101000a81548173ffffffffffffffffffffffffffffffffffffffff021916908373ffffffffffffffffffffffffffffffffffffffff16021790555081600260006101000a81548173ffffffffffffffffffffffffffffffffffffffff021916908373ffffffffffffffffffffffffffffffffffffffff1602179055506000600260146101000a81548160ff02191690836002811115620002095762000208620002b2565b5b02179055505050620002e1565b600080fd5b600073ffffffffffffffffffffffffffffffffffffffff82169050919050565b600062000248826200021b565b9050919050565b6200025a816200023b565b81146200026657600080fd5b50565b6000815190506200027a816200024f565b92915050565b60006020828403121562000299576200029862000216565b5b6000620002a98482850162000269565b91505092915050565b7f4e487b7100000000000000000000000000000000000000000000000000000000600052602160045260246000fd5b610a2880620002f16000396000f3fe608060405234801561001057600080fd5b506004361061007d5760003560e01c80633b1bebd11161005b5780633b1bebd1146100dc5780633c490174146100fa5780637a7f01a714610118578063d69b7ce3146101365761007d565b806302d05d3f14610082578063200d2ed2146100a0578063263b81c9146100be575b600080fd5b61008a610166565b60405161009791906104f9565b60405180910390f35b6100a861018a565b6040516100b5919061058b565b60405180910390f35b6100c661019d565b6040516100d39190610605565b60405180910390f35b6100e4610260565b6040516100f191906104f9565b60405180910390f35b610102610286565b60405161010f91906104f9565b60405180910390f35b6101206102ac565b60405161012d91906106b9565b60405180910390f35b610150600480360381019061014b9190610824565b61033a565b60405161015d9190610605565b60405180910390f35b60008054906101000a900473ffffffffffffffffffffffffffffffffffffffff1681565b600260149054906101000a900460ff1681565b6000600160009054906101000a900473ffffffffffffffffffffffffffffffffffffffff1673ffffffffffffffffffffffffffffffffffffffff163273ffffffffffffffffffffffffffffffffffffffff161461022f576040517f08c379a0000000000000000000000000000000000000000000000000000000008152600401610226906108df565b60405180910390fd5b6001600260146101000a81548160ff0219169083600281111561025557610254610514565b5b021790555030905090565b600160009054906101000a900473ffffffffffffffffffffffffffffffffffffffff1681565b600260009054906101000a900473ffffffffffffffffffffffffffffffffffffffff1681565b600380546102b99061092e565b80601f01602080910402602001604051908101604052809291908181526020018280546102e59061092e565b80156103325780601f1061030757610100808354040283529160200191610332565b820191906000526020600020905b81548152906001019060200180831161031557829003601f168201915b505050505081565b6000600160009054906101000a900473ffffffffffffffffffffffffffffffffffffffff1673ffffffffffffffffffffffffffffffffffffffff163273ffffffffffffffffffffffffffffffffffffffff16146103cc576040517f08c379a00000000000000000000000000000000000000000000000000000000081526004016103c3906109d2565b60405180910390fd5b60028060146101000a81548160ff021916908360028111156103f1576103f0610514565b5b0217905550816003908051906020019061040c929190610415565b50309050919050565b8280546104219061092e565b90600052602060002090601f016020900481019282610443576000855561048a565b82601f1061045c57805160ff191683800117855561048a565b8280016001018555821561048a579182015b8281111561048957825182559160200191906001019061046e565b5b509050610497919061049b565b5090565b5b808211156104b457600081600090555060010161049c565b5090565b600073ffffffffffffffffffffffffffffffffffffffff82169050919050565b60006104e3826104b8565b9050919050565b6104f3816104d8565b82525050565b600060208201905061050e60008301846104ea565b92915050565b7f4e487b7100000000000000000000000000000000000000000000000000000000600052602160045260246000fd5b6003811061055457610553610514565b5b50565b600081905061056582610543565b919050565b600061057582610557565b9050919050565b6105858161056a565b82525050565b60006020820190506105a0600083018461057c565b92915050565b6000819050919050565b60006105cb6105c66105c1846104b8565b6105a6565b6104b8565b9050919050565b60006105dd826105b0565b9050919050565b60006105ef826105d2565b9050919050565b6105ff816105e4565b82525050565b600060208201905061061a60008301846105f6565b92915050565b600081519050919050565b600082825260208201905092915050565b60005b8381101561065a57808201518184015260208101905061063f565b83811115610669576000848401525b50505050565b6000601f19601f8301169050919050565b600061068b82610620565b610695818561062b565b93506106a581856020860161063c565b6106ae8161066f565b840191505092915050565b600060208201905081810360008301526106d38184610680565b905092915050565b6000604051905090565b600080fd5b600080fd5b600080fd5b600080fd5b7f4e487b7100000000000000000000000000000000000000000000000000000000600052604160045260246000fd5b6107318261066f565b810181811067ffffffffffffffff821117156107505761074f6106f9565b5b80604052505050565b60006107636106db565b905061076f8282610728565b919050565b600067ffffffffffffffff82111561078f5761078e6106f9565b5b6107988261066f565b9050602081019050919050565b82818337600083830152505050565b60006107c76107c284610774565b610759565b9050828152602081018484840111156107e3576107e26106f4565b5b6107ee8482856107a5565b509392505050565b600082601f83011261080b5761080a6106ef565b5b813561081b8482602086016107b4565b91505092915050565b60006020828403121561083a576108396106e5565b5b600082013567ffffffffffffffff811115610858576108576106ea565b5b610864848285016107f6565b91505092915050565b7f4f6e6c7920726566657265652063616e20617070726f766520617070726f766160008201527f6c20726571756573740000000000000000000000000000000000000000000000602082015250565b60006108c960298361062b565b91506108d48261086d565b604082019050919050565b600060208201905081810360008301526108f8816108bc565b9050919050565b7f4e487b7100000000000000000000000000000000000000000000000000000000600052602260045260246000fd5b6000600282049050600182168061094657607f821691505b6020821081141561095a576109596108ff565b5b50919050565b7f4f6e6c7920726566657265652063616e20726a65637420617070726f76616c2060008201527f7265717565737400000000000000000000000000000000000000000000000000602082015250565b60006109bc60278361062b565b91506109c782610960565b604082019050919050565b600060208201905081810360008301526109eb816109af565b905091905056fea2646970667358221220fb37bbbe89a0173b77020c584dfa6057948cd12588579ecd494f0207ac81ddb664736f6c634300080c003360806040526040516200119c3803806200119c83398181016040528101906200002991906200044b565b856000806101000a81548173ffffffffffffffffffffffffffffffffffffffff021916908373ffffffffffffffffffffffffffffffffffffffff16021790555084600160006101000a81548173ffffffffffffffffffffffffffffffffffffffff021916908373ffffffffffffffffffffffffffffffffffffffff1602179055508360029080519060200190620000c29291906200015e565b508260039080519060200190620000db9291906200015e565b5081600460006101000a81548173ffffffffffffffffffffffffffffffffffffffff021916908373ffffffffffffffffffffffffffffffffffffffff160217905550806005819055506000600660006101000a81548160ff021916908360028111156200014d576200014c62000525565b5b0217905550505050505050620005b9565b8280546200016c9062000583565b90600052602060002090601f016020900481019282620001905760008555620001dc565b82601f10620001ab57805160ff1916838001178555620001dc565b82800160010185558215620001dc579182015b82811115620001db578251825591602001919060010190620001be565b5b509050620001eb9190620001ef565b5090565b5b808211156200020a576000816000905550600101620001f0565b5090565b6000604051905090565b600080fd5b600080fd5b600073ffffffffffffffffffffffffffffffffffffffff82169050919050565b60006200024f8262000222565b9050919050565b620002618162000242565b81146200026d57600080fd5b50565b600081519050620002818162000256565b92915050565b600080fd5b600080fd5b6000601f19601f8301169050919050565b7f4e487b7100000000000000000000000000000000000000000000000000000000600052604160045260246000fd5b620002dc8262000291565b810181811067ffffffffffffffff82111715620002fe57620002fd620002a2565b5b80604052505050565b6000620003136200020e565b9050620003218282620002d1565b919050565b600067ffffffffffffffff821115620003445762000343620002a2565b5b6200034f8262000291565b9050602081019050919050565b60005b838110156200037c5780820151818401526020810190506200035f565b838111156200038c576000848401525b50505050565b6000620003a9620003a38462000326565b62000307565b905082815260208101848484011115620003c857620003c76200028c565b5b620003d58482856200035c565b509392505050565b600082601f830112620003f557620003f462000287565b5b81516200040784826020860162000392565b91505092915050565b6000819050919050565b620004258162000410565b81146200043157600080fd5b50565b60008151905062000445816200041a565b92915050565b60008060008060008060c087890312156200046b576200046a62000218565b5b60006200047b89828a0162000270565b96505060206200048e89828a0162000270565b955050604087015167ffffffffffffffff811115620004b257620004b16200021d565b5b620004c089828a01620003dd565b945050606087015167ffffffffffffffff811115620004e457620004e36200021d565b5b620004f289828a01620003dd565b93505060806200050589828a0162000270565b92505060a06200051889828a0162000434565b9150509295509295509295565b7f4e487b7100000000000000000000000000000000000000000000000000000000600052602160045260246000fd5b7f4e487b7100000000000000000000000000000000000000000000000000000000600052602260045260246000fd5b600060028204905060018216806200059c57607f821691505b60208210811415620005b357620005b262000554565b5b50919050565b610bd380620005c96000396000f3fe6080604052600436106100865760003560e01c80633b1bebd1116100595780633b1bebd11461012a5780634177fe51146101555780637284e41614610180578063aa8c217c146101ab578063b4fedc11146101d657610086565b806302d05d3f1461008b57806306fdde03146100b6578063200d2ed2146100e15780632d398fa61461010c575b600080fd5b34801561009757600080fd5b506100a06101f4565b6040516100ad9190610770565b60405180910390f35b3480156100c257600080fd5b506100cb610218565b6040516100d89190610824565b60405180910390f35b3480156100ed57600080fd5b506100f66102a6565b60405161010391906108bd565b60405180910390f35b6101146102b9565b6040516101219190610937565b60405180910390f35b34801561013657600080fd5b5061013f6104b0565b60405161014c9190610770565b60405180910390f35b34801561016157600080fd5b5061016a6104d6565b6040516101779190610770565b60405180910390f35b34801561018c57600080fd5b506101956104fc565b6040516101a29190610824565b60405180910390f35b3480156101b757600080fd5b506101c061058a565b6040516101cd919061096b565b60405180910390f35b6101de610590565b6040516101eb9190610937565b60405180910390f35b60008054906101000a900473ffffffffffffffffffffffffffffffffffffffff1681565b60028054610225906109b5565b80601f0160208091040260200160405190810160405280929190818152602001828054610251906109b5565b801561029e5780601f106102735761010080835404028352916020019161029e565b820191906000526020600020905b81548152906001019060200180831161028157829003601f168201915b505050505081565b600660009054906101000a900460ff1681565b60008060028111156102ce576102cd610846565b5b600660009054906101000a900460ff1660028111156102f0576102ef610846565b5b14610330576040517f08c379a000000000000000000000000000000000000000000000000000000000815260040161032790610a59565b60405180910390fd5b600160009054906101000a900473ffffffffffffffffffffffffffffffffffffffff1673ffffffffffffffffffffffffffffffffffffffff163273ffffffffffffffffffffffffffffffffffffffff1614806103d7575060008054906101000a900473ffffffffffffffffffffffffffffffffffffffff1673ffffffffffffffffffffffffffffffffffffffff163273ffffffffffffffffffffffffffffffffffffffff16145b610416576040517f08c379a000000000000000000000000000000000000000000000000000000000815260040161040d90610aeb565b60405180910390fd5b600460009054906101000a900473ffffffffffffffffffffffffffffffffffffffff1673ffffffffffffffffffffffffffffffffffffffff166108fc479081150290604051600060405180830381858888f1935050505015801561047e573d6000803e3d6000fd5b506002600660006101000a81548160ff021916908360028111156104a5576104a4610846565b5b021790555030905090565b600160009054906101000a900473ffffffffffffffffffffffffffffffffffffffff1681565b600460009054906101000a900473ffffffffffffffffffffffffffffffffffffffff1681565b60038054610509906109b5565b80601f0160208091040260200160405190810160405280929190818152602001828054610535906109b5565b80156105825780601f1061055757610100808354040283529160200191610582565b820191906000526020600020905b81548152906001019060200180831161056557829003601f168201915b505050505081565b60055481565b60008060028111156105a5576105a4610846565b5b600660009054906101000a900460ff1660028111156105c7576105c6610846565b5b14610607576040517f08c379a00000000000000000000000000000000000000000000000000000000081526004016105fe90610a59565b60405180910390fd5b600160009054906101000a900473ffffffffffffffffffffffffffffffffffffffff1673ffffffffffffffffffffffffffffffffffffffff163273ffffffffffffffffffffffffffffffffffffffff1614610697576040517f08c379a000000000000000000000000000000000000000000000000000000000815260040161068e90610b7d565b60405180910390fd5b60008054906101000a900473ffffffffffffffffffffffffffffffffffffffff1673ffffffffffffffffffffffffffffffffffffffff166108fc479081150290604051600060405180830381858888f193505050501580156106fd573d6000803e3d6000fd5b506001600660006101000a81548160ff0219169083600281111561072457610723610846565b5b021790555030905090565b600073ffffffffffffffffffffffffffffffffffffffff82169050919050565b600061075a8261072f565b9050919050565b61076a8161074f565b82525050565b60006020820190506107856000830184610761565b92915050565b600081519050919050565b600082825260208201905092915050565b60005b838110156107c55780820151818401526020810190506107aa565b838111156107d4576000848401525b50505050565b6000601f19601f8301169050919050565b60006107f68261078b565b6108008185610796565b93506108108185602086016107a7565b610819816107da565b840191505092915050565b6000602082019050818103600083015261083e81846107eb565b905092915050565b7f4e487b7100000000000000000000000000000000000000000000000000000000600052602160045260246000fd5b6003811061088657610885610846565b5b50565b600081905061089782610875565b919050565b60006108a782610889565b9050919050565b6108b78161089c565b82525050565b60006020820190506108d260008301846108ae565b92915050565b6000819050919050565b60006108fd6108f86108f38461072f565b6108d8565b61072f565b9050919050565b600061090f826108e2565b9050919050565b600061092182610904565b9050919050565b61093181610916565b82525050565b600060208201905061094c6000830184610928565b92915050565b6000819050919050565b61096581610952565b82525050565b6000602082019050610980600083018461095c565b92915050565b7f4e487b7100000000000000000000000000000000000000000000000000000000600052602260045260246000fd5b600060028204905060018216806109cd57607f821691505b602082108114156109e1576109e0610986565b5b50919050565b7f436f6e747261637420737461747573206973206e6f7420657175616c20746f2060008201527f6f70656e00000000000000000000000000000000000000000000000000000000602082015250565b6000610a43602483610796565b9150610a4e826109e7565b604082019050919050565b60006020820190508181036000830152610a7281610a36565b9050919050565b7f4f6e6c792072656665726565206f722063726561746f722063616e206661696c60008201527f20636f6e74726163740000000000000000000000000000000000000000000000602082015250565b6000610ad5602983610796565b9150610ae082610a79565b604082019050919050565b60006020820190508181036000830152610b0481610ac8565b9050919050565b7f4f6e6c7920726566657265652063616e20636f6d706c657465206120636f6e7460008201527f7261637400000000000000000000000000000000000000000000000000000000602082015250565b6000610b67602483610796565b9150610b7282610b0b565b604082019050919050565b60006020820190508181036000830152610b9681610b5a565b905091905056fea26469706673582212202b9d652ef9ae0b580b68d07600cdda27f9c20880012c0eb5104d895f4229f4e564736f6c634300080c0033a26469706673582212207e7de3100fe0fa599ea1e4d9e8ab0a869a9afb3a4a3b21bda2fbd2c909996e4064736f6c634300080c0033","opcodes":"PUSH1 0x80 PUSH1 0x40 MSTORE CALLVALUE DUP1 ISZERO PUSH2 0x10 JUMPI PUSH1 0x0 DUP1 REVERT JUMPDEST POP PUSH2 0x5A3E DUP1 PUSH2 0x20 PUSH1 0x0 CODECOPY PUSH1 0x0 RETURN INVALID PUSH1 0x80 PUSH1 0x40 MSTORE PUSH1 0x4 CALLDATASIZE LT PUSH3 0x152 JUMPI PUSH1 0x0 CALLDATALOAD PUSH1 0xE0 SHR DUP1 PUSH4 0x75CE46A7 GT PUSH3 0xBB JUMPI DUP1 PUSH4 0xB24E67D0 GT PUSH3 0x79 JUMPI DUP1 PUSH4 0xB24E67D0 EQ PUSH3 0x52D JUMPI DUP1 PUSH4 0xB3B6633E EQ PUSH3 0x571 JUMPI DUP1 PUSH4 0xD77399E5 EQ PUSH3 0x5A1 JUMPI DUP1 PUSH4 0xDC0E0C13 EQ PUSH3 0x5CF JUMPI DUP1 PUSH4 0xE10BC834 EQ PUSH3 0x5FF JUMPI DUP1 PUSH4 0xE436E826 EQ PUSH3 0x62D JUMPI PUSH3 0x152 JUMP JUMPDEST DUP1 PUSH4 0x75CE46A7 EQ PUSH3 0x3ED JUMPI DUP1 PUSH4 0x8793ED80 EQ PUSH3 0x41D JUMPI DUP1 PUSH4 0x9051E234 EQ PUSH3 0x461 JUMPI DUP1 PUSH4 0xA87430BA EQ PUSH3 0x4A5 JUMPI DUP1 PUSH4 0xA908F4FA EQ PUSH3 0x4E9 JUMPI PUSH3 0x152 JUMP JUMPDEST DUP1 PUSH4 0x442A7BC7 GT PUSH3 0x115 JUMPI DUP1 PUSH4 0x442A7BC7 EQ PUSH3 0x295 JUMPI DUP1 PUSH4 0x4841A885 EQ PUSH3 0x2D9 JUMPI DUP1 PUSH4 0x502C9BD5 EQ PUSH3 0x309 JUMPI DUP1 PUSH4 0x5B259ABF EQ PUSH3 0x34D JUMPI DUP1 PUSH4 0x61542C44 EQ PUSH3 0x37B JUMPI DUP1 PUSH4 0x64A60B47 EQ PUSH3 0x3A9 JUMPI PUSH3 0x152 JUMP JUMPDEST DUP1 PUSH4 0x61DFF9A EQ PUSH3 0x157 JUMPI DUP1 PUSH4 0xE865751 EQ PUSH3 0x185 JUMPI DUP1 PUSH4 0x19EE8BD4 EQ PUSH3 0x1C9 JUMPI DUP1 PUSH4 0x38DB44BC EQ PUSH3 0x20D JUMPI DUP1 PUSH4 0x38FB42FD EQ PUSH3 0x251 JUMPI JUMPDEST PUSH1 0x0 DUP1 REVERT JUMPDEST CALLVALUE DUP1 ISZERO PUSH3 0x164 JUMPI PUSH1 0x0 DUP1 REVERT JUMPDEST POP PUSH3 0x183 PUSH1 0x4 DUP1 CALLDATASIZE SUB DUP2 ADD SWAP1 PUSH3 0x17D SWAP2 SWAP1 PUSH3 0x2E4E JUMP JUMPDEST PUSH3 0x64D JUMP JUMPDEST STOP JUMPDEST CALLVALUE DUP1 ISZERO PUSH3 0x192 JUMPI PUSH1 0x0 DUP1 REVERT JUMPDEST POP PUSH3 0x1B1 PUSH1 0x4 DUP1 CALLDATASIZE SUB DUP2 ADD SWAP1 PUSH3 0x1AB SWAP2 SWAP1 PUSH3 0x2EBB JUMP JUMPDEST PUSH3 0xB63 JUMP JUMPDEST PUSH1 0x40 MLOAD PUSH3 0x1C0 SWAP2 SWAP1 PUSH3 0x2FD0 JUMP JUMPDEST PUSH1 0x40 MLOAD DUP1 SWAP2 SUB SWAP1 RETURN JUMPDEST CALLVALUE DUP1 ISZERO PUSH3 0x1D6 JUMPI PUSH1 0x0 DUP1 REVERT JUMPDEST POP PUSH3 0x1F5 PUSH1 0x4 DUP1 CALLDATASIZE SUB DUP2 ADD SWAP1 PUSH3 0x1EF SWAP2 SWAP1 PUSH3 0x2E4E JUMP JUMPDEST PUSH3 0xD17 JUMP JUMPDEST PUSH1 0x40 MLOAD PUSH3 0x204 SWAP2 SWAP1 PUSH3 0x2FD0 JUMP JUMPDEST PUSH1 0x40 MLOAD DUP1 SWAP2 SUB SWAP1 RETURN JUMPDEST CALLVALUE DUP1 ISZERO PUSH3 0x21A JUMPI PUSH1 0x0 DUP1 REVERT JUMPDEST POP PUSH3 0x239 PUSH1 0x4 DUP1 CALLDATASIZE SUB DUP2 ADD SWAP1 PUSH3 0x233 SWAP2 SWAP1 PUSH3 0x2FF4 JUMP JUMPDEST PUSH3 0xDE9 JUMP JUMPDEST PUSH1 0x40 MLOAD PUSH3 0x248 SWAP2 SWAP1 PUSH3 0x3037 JUMP JUMPDEST PUSH1 0x40 MLOAD DUP1 SWAP2 SUB SWAP1 RETURN JUMPDEST CALLVALUE DUP1 ISZERO PUSH3 0x25E JUMPI PUSH1 0x0 DUP1 REVERT JUMPDEST POP PUSH3 0x27D PUSH1 0x4 DUP1 CALLDATASIZE SUB DUP2 ADD SWAP1 PUSH3 0x277 SWAP2 SWAP1 PUSH3 0x2FF4 JUMP JUMPDEST PUSH3 0xE29 JUMP JUMPDEST PUSH1 0x40 MLOAD PUSH3 0x28C SWAP2 SWAP1 PUSH3 0x3037 JUMP JUMPDEST PUSH1 0x40 MLOAD DUP1 SWAP2 SUB SWAP1 RETURN JUMPDEST CALLVALUE DUP1 ISZERO PUSH3 0x2A2 JUMPI PUSH1 0x0 DUP1 REVERT JUMPDEST POP PUSH3 0x2C1 PUSH1 0x4 DUP1 CALLDATASIZE SUB DUP2 ADD SWAP1 PUSH3 0x2BB SWAP2 SWAP1 PUSH3 0x2E4E JUMP JUMPDEST PUSH3 0xE69 JUMP JUMPDEST PUSH1 0x40 MLOAD PUSH3 0x2D0 SWAP2 SWAP1 PUSH3 0x2FD0 JUMP JUMPDEST PUSH1 0x40 MLOAD DUP1 SWAP2 SUB SWAP1 RETURN JUMPDEST CALLVALUE DUP1 ISZERO PUSH3 0x2E6 JUMPI PUSH1 0x0 DUP1 REVERT JUMPDEST POP PUSH3 0x2F1 PUSH3 0xF3A JUMP JUMPDEST PUSH1 0x40 MLOAD PUSH3 0x300 SWAP2 SWAP1 PUSH3 0x3065 JUMP JUMPDEST PUSH1 0x40 MLOAD DUP1 SWAP2 SUB SWAP1 RETURN JUMPDEST CALLVALUE DUP1 ISZERO PUSH3 0x316 JUMPI PUSH1 0x0 DUP1 REVERT JUMPDEST POP PUSH3 0x335 PUSH1 0x4 DUP1 CALLDATASIZE SUB DUP2 ADD SWAP1 PUSH3 0x32F SWAP2 SWAP1 PUSH3 0x2FF4 JUMP JUMPDEST PUSH3 0xF40 JUMP JUMPDEST PUSH1 0x40 MLOAD PUSH3 0x344 SWAP2 SWAP1 PUSH3 0x3037 JUMP JUMPDEST PUSH1 0x40 MLOAD DUP1 SWAP2 SUB SWAP1 RETURN JUMPDEST CALLVALUE DUP1 ISZERO PUSH3 0x35A JUMPI PUSH1 0x0 DUP1 REVERT JUMPDEST POP PUSH3 0x379 PUSH1 0x4 DUP1 CALLDATASIZE SUB DUP2 ADD SWAP1 PUSH3 0x373 SWAP2 SWAP1 PUSH3 0x2E4E JUMP JUMPDEST PUSH3 0xF80 JUMP JUMPDEST STOP JUMPDEST CALLVALUE DUP1 ISZERO PUSH3 0x388 JUMPI PUSH1 0x0 DUP1 REVERT JUMPDEST POP PUSH3 0x3A7 PUSH1 0x4 DUP1 CALLDATASIZE SUB DUP2 ADD SWAP1 PUSH3 0x3A1 SWAP2 SWAP1 PUSH3 0x2E4E JUMP JUMPDEST PUSH3 0x10F8 JUMP JUMPDEST STOP JUMPDEST CALLVALUE DUP1 ISZERO PUSH3 0x3B6 JUMPI PUSH1 0x0 DUP1 REVERT JUMPDEST POP PUSH3 0x3D5 PUSH1 0x4 DUP1 CALLDATASIZE SUB DUP2 ADD SWAP1 PUSH3 0x3CF SWAP2 SWAP1 PUSH3 0x2E4E JUMP JUMPDEST PUSH3 0x1270 JUMP JUMPDEST PUSH1 0x40 MLOAD PUSH3 0x3E4 SWAP2 SWAP1 PUSH3 0x3065 JUMP JUMPDEST PUSH1 0x40 MLOAD DUP1 SWAP2 SUB SWAP1 RETURN JUMPDEST CALLVALUE DUP1 ISZERO PUSH3 0x3FA JUMPI PUSH1 0x0 DUP1 REVERT JUMPDEST POP PUSH3 0x405 PUSH3 0x128E JUMP JUMPDEST PUSH1 0x40 MLOAD PUSH3 0x414 SWAP2 SWAP1 PUSH3 0x3065 JUMP JUMPDEST PUSH1 0x40 MLOAD DUP1 SWAP2 SUB SWAP1 RETURN JUMPDEST CALLVALUE DUP1 ISZERO PUSH3 0x42A JUMPI PUSH1 0x0 DUP1 REVERT JUMPDEST POP PUSH3 0x449 PUSH1 0x4 DUP1 CALLDATASIZE SUB DUP2 ADD SWAP1 PUSH3 0x443 SWAP2 SWAP1 PUSH3 0x2E4E JUMP JUMPDEST PUSH3 0x1294 JUMP JUMPDEST PUSH1 0x40 MLOAD PUSH3 0x458 SWAP2 SWAP1 PUSH3 0x2FD0 JUMP JUMPDEST PUSH1 0x40 MLOAD DUP1 SWAP2 SUB SWAP1 RETURN JUMPDEST CALLVALUE DUP1 ISZERO PUSH3 0x46E JUMPI PUSH1 0x0 DUP1 REVERT JUMPDEST POP PUSH3 0x48D PUSH1 0x4 DUP1 CALLDATASIZE SUB DUP2 ADD SWAP1 PUSH3 0x487 SWAP2 SWAP1 PUSH3 0x2E4E JUMP JUMPDEST PUSH3 0x1366 JUMP JUMPDEST PUSH1 0x40 MLOAD PUSH3 0x49C SWAP2 SWAP1 PUSH3 0x2FD0 JUMP JUMPDEST PUSH1 0x40 MLOAD DUP1 SWAP2 SUB SWAP1 RETURN JUMPDEST CALLVALUE DUP1 ISZERO PUSH3 0x4B2 JUMPI PUSH1 0x0 DUP1 REVERT JUMPDEST POP PUSH3 0x4D1 PUSH1 0x4 DUP1 CALLDATASIZE SUB DUP2 ADD SWAP1 PUSH3 0x4CB SWAP2 SWAP1 PUSH3 0x2E4E JUMP JUMPDEST PUSH3 0x1438 JUMP JUMPDEST PUSH1 0x40 MLOAD PUSH3 0x4E0 SWAP2 SWAP1 PUSH3 0x3065 JUMP JUMPDEST PUSH1 0x40 MLOAD DUP1 SWAP2 SUB SWAP1 RETURN JUMPDEST CALLVALUE DUP1 ISZERO PUSH3 0x4F6 JUMPI PUSH1 0x0 DUP1 REVERT JUMPDEST POP PUSH3 0x515 PUSH1 0x4 DUP1 CALLDATASIZE SUB DUP2 ADD SWAP1 PUSH3 0x50F SWAP2 SWAP1 PUSH3 0x2EBB JUMP JUMPDEST PUSH3 0x1456 JUMP JUMPDEST PUSH1 0x40 MLOAD PUSH3 0x524 SWAP2 SWAP1 PUSH3 0x2FD0 JUMP JUMPDEST PUSH1 0x40 MLOAD DUP1 SWAP2 SUB SWAP1 RETURN JUMPDEST CALLVALUE DUP1 ISZERO PUSH3 0x53A JUMPI PUSH1 0x0 DUP1 REVERT JUMPDEST POP PUSH3 0x559 PUSH1 0x4 DUP1 CALLDATASIZE SUB DUP2 ADD SWAP1 PUSH3 0x553 SWAP2 SWAP1 PUSH3 0x2E4E JUMP JUMPDEST PUSH3 0x160A JUMP JUMPDEST PUSH1 0x40 MLOAD PUSH3 0x568 SWAP2 SWAP1 PUSH3 0x2FD0 JUMP JUMPDEST PUSH1 0x40 MLOAD DUP1 SWAP2 SUB SWAP1 RETURN JUMPDEST CALLVALUE DUP1 ISZERO PUSH3 0x57E JUMPI PUSH1 0x0 DUP1 REVERT JUMPDEST POP PUSH3 0x589 PUSH3 0x16DB JUMP JUMPDEST PUSH1 0x40 MLOAD PUSH3 0x598 SWAP2 SWAP1 PUSH3 0x3065 JUMP JUMPDEST PUSH1 0x40 MLOAD DUP1 SWAP2 SUB SWAP1 RETURN JUMPDEST CALLVALUE DUP1 ISZERO PUSH3 0x5AE JUMPI PUSH1 0x0 DUP1 REVERT JUMPDEST POP PUSH3 0x5CD PUSH1 0x4 DUP1 CALLDATASIZE SUB DUP2 ADD SWAP1 PUSH3 0x5C7 SWAP2 SWAP1 PUSH3 0x31E4 JUMP JUMPDEST PUSH3 0x16E1 JUMP JUMPDEST STOP JUMPDEST CALLVALUE DUP1 ISZERO PUSH3 0x5DC JUMPI PUSH1 0x0 DUP1 REVERT JUMPDEST POP PUSH3 0x5E7 PUSH3 0x176D JUMP JUMPDEST PUSH1 0x40 MLOAD PUSH3 0x5F6 SWAP2 SWAP1 PUSH3 0x3065 JUMP JUMPDEST PUSH1 0x40 MLOAD DUP1 SWAP2 SUB SWAP1 RETURN JUMPDEST CALLVALUE DUP1 ISZERO PUSH3 0x60C JUMPI PUSH1 0x0 DUP1 REVERT JUMPDEST POP PUSH3 0x62B PUSH1 0x4 DUP1 CALLDATASIZE SUB DUP2 ADD SWAP1 PUSH3 0x625 SWAP2 SWAP1 PUSH3 0x2E4E JUMP JUMPDEST PUSH3 0x1773 JUMP JUMPDEST STOP JUMPDEST PUSH3 0x64B PUSH1 0x4 DUP1 CALLDATASIZE SUB DUP2 ADD SWAP1 PUSH3 0x645 SWAP2 SWAP1 PUSH3 0x328F JUMP JUMPDEST PUSH3 0x1BE5 JUMP JUMPDEST STOP JUMPDEST PUSH1 0x0 DUP2 SWAP1 POP PUSH1 0x0 DUP2 PUSH20 0xFFFFFFFFFFFFFFFFFFFFFFFFFFFFFFFFFFFFFFFF AND PUSH4 0x3C490174 PUSH1 0x40 MLOAD DUP2 PUSH4 0xFFFFFFFF AND PUSH1 0xE0 SHL DUP2 MSTORE PUSH1 0x4 ADD PUSH1 0x20 PUSH1 0x40 MLOAD DUP1 DUP4 SUB DUP2 DUP7 GAS STATICCALL ISZERO DUP1 ISZERO PUSH3 0x6A0 JUMPI RETURNDATASIZE PUSH1 0x0 DUP1 RETURNDATACOPY RETURNDATASIZE PUSH1 0x0 REVERT JUMPDEST POP POP POP POP PUSH1 0x40 MLOAD RETURNDATASIZE PUSH1 0x1F NOT PUSH1 0x1F DUP3 ADD AND DUP3 ADD DUP1 PUSH1 0x40 MSTORE POP DUP2 ADD SWAP1 PUSH3 0x6C6 SWAP2 SWAP1 PUSH3 0x3356 JUMP JUMPDEST SWAP1 POP DUP2 PUSH20 0xFFFFFFFFFFFFFFFFFFFFFFFFFFFFFFFFFFFFFFFF AND PUSH4 0x3B1BEBD1 PUSH1 0x40 MLOAD DUP2 PUSH4 0xFFFFFFFF AND PUSH1 0xE0 SHL DUP2 MSTORE PUSH1 0x4 ADD PUSH1 0x20 PUSH1 0x40 MLOAD DUP1 DUP4 SUB DUP2 DUP7 GAS STATICCALL ISZERO DUP1 ISZERO PUSH3 0x714 JUMPI RETURNDATASIZE PUSH1 0x0 DUP1 RETURNDATACOPY RETURNDATASIZE PUSH1 0x0 REVERT JUMPDEST POP POP POP POP PUSH1 0x40 MLOAD RETURNDATASIZE PUSH1 0x1F NOT PUSH1 0x1F DUP3 ADD AND DUP3 ADD DUP1 PUSH1 0x40 MSTORE POP DUP2 ADD SWAP1 PUSH3 0x73A SWAP2 SWAP1 PUSH3 0x3356 JUMP JUMPDEST PUSH20 0xFFFFFFFFFFFFFFFFFFFFFFFFFFFFFFFFFFFFFFFF AND DUP2 PUSH20 0xFFFFFFFFFFFFFFFFFFFFFFFFFFFFFFFFFFFFFFFF AND PUSH4 0x3B1BEBD1 PUSH1 0x40 MLOAD DUP2 PUSH4 0xFFFFFFFF AND PUSH1 0xE0 SHL DUP2 MSTORE PUSH1 0x4 ADD PUSH1 0x20 PUSH1 0x40 MLOAD DUP1 DUP4 SUB DUP2 DUP7 GAS STATICCALL ISZERO DUP1 ISZERO PUSH3 0x79C JUMPI RETURNDATASIZE PUSH1 0x0 DUP1 RETURNDATACOPY RETURNDATASIZE PUSH1 0x0 REVERT JUMPDEST POP POP POP POP PUSH1 0x40 MLOAD RETURNDATASIZE PUSH1 0x1F NOT PUSH1 0x1F DUP3 ADD AND DUP3 ADD DUP1 PUSH1 0x40 MSTORE POP DUP2 ADD SWAP1 PUSH3 0x7C2 SWAP2 SWAP1 PUSH3 0x3356 JUMP JUMPDEST PUSH20 0xFFFFFFFFFFFFFFFFFFFFFFFFFFFFFFFFFFFFFFFF AND EQ PUSH3 0x81B JUMPI PUSH1 0x40 MLOAD PUSH32 0x8C379A000000000000000000000000000000000000000000000000000000000 DUP2 MSTORE PUSH1 0x4 ADD PUSH3 0x812 SWAP1 PUSH3 0x340F JUMP JUMPDEST PUSH1 0x40 MLOAD DUP1 SWAP2 SUB SWAP1 REVERT JUMPDEST DUP2 PUSH20 0xFFFFFFFFFFFFFFFFFFFFFFFFFFFFFFFFFFFFFFFF AND PUSH4 0x263B81C9 PUSH1 0x40 MLOAD DUP2 PUSH4 0xFFFFFFFF AND PUSH1 0xE0 SHL DUP2 MSTORE PUSH1 0x4 ADD PUSH1 0x20 PUSH1 0x40 MLOAD DUP1 DUP4 SUB DUP2 PUSH1 0x0 DUP8 GAS CALL ISZERO DUP1 ISZERO PUSH3 0x869 JUMPI RETURNDATASIZE PUSH1 0x0 DUP1 RETURNDATACOPY RETURNDATASIZE PUSH1 0x0 REVERT JUMPDEST POP POP POP POP PUSH1 0x40 MLOAD RETURNDATASIZE PUSH1 0x1F NOT PUSH1 0x1F DUP3 ADD AND DUP3 ADD DUP1 PUSH1 0x40 MSTORE POP DUP2 ADD SWAP1 PUSH3 0x88F SWAP2 SWAP1 PUSH3 0x3476 JUMP JUMPDEST POP DUP1 PUSH20 0xFFFFFFFFFFFFFFFFFFFFFFFFFFFFFFFFFFFFFFFF AND PUSH4 0xB4FEDC11 PUSH1 0x40 MLOAD DUP2 PUSH4 0xFFFFFFFF AND PUSH1 0xE0 SHL DUP2 MSTORE PUSH1 0x4 ADD PUSH1 0x20 PUSH1 0x40 MLOAD DUP1 DUP4 SUB DUP2 PUSH1 0x0 DUP8 GAS CALL ISZERO DUP1 ISZERO PUSH3 0x8DE JUMPI RETURNDATASIZE PUSH1 0x0 DUP1 RETURNDATACOPY RETURNDATASIZE PUSH1 0x0 REVERT JUMPDEST POP POP POP POP PUSH1 0x40 MLOAD RETURNDATASIZE PUSH1 0x1F NOT PUSH1 0x1F DUP3 ADD AND DUP3 ADD DUP1 PUSH1 0x40 MSTORE POP DUP2 ADD SWAP1 PUSH3 0x904 SWAP2 SWAP1 PUSH3 0x34ED JUMP JUMPDEST POP PUSH3 0x9F3 DUP2 PUSH20 0xFFFFFFFFFFFFFFFFFFFFFFFFFFFFFFFFFFFFFFFF AND PUSH4 0x2D05D3F PUSH1 0x40 MLOAD DUP2 PUSH4 0xFFFFFFFF AND PUSH1 0xE0 SHL DUP2 MSTORE PUSH1 0x4 ADD PUSH1 0x20 PUSH1 0x40 MLOAD DUP1 DUP4 SUB DUP2 DUP7 GAS STATICCALL ISZERO DUP1 ISZERO PUSH3 0x955 JUMPI RETURNDATASIZE PUSH1 0x0 DUP1 RETURNDATACOPY RETURNDATASIZE PUSH1 0x0 REVERT JUMPDEST POP POP POP POP PUSH1 0x40 MLOAD RETURNDATASIZE PUSH1 0x1F NOT PUSH1 0x1F DUP3 ADD AND DUP3 ADD DUP1 PUSH1 0x40 MSTORE POP DUP2 ADD SWAP1 PUSH3 0x97B SWAP2 SWAP1 PUSH3 0x3356 JUMP JUMPDEST DUP4 PUSH20 0xFFFFFFFFFFFFFFFFFFFFFFFFFFFFFFFFFFFFFFFF AND PUSH4 0x3C490174 PUSH1 0x40 MLOAD DUP2 PUSH4 0xFFFFFFFF AND PUSH1 0xE0 SHL DUP2 MSTORE PUSH1 0x4 ADD PUSH1 0x20 PUSH1 0x40 MLOAD DUP1 DUP4 SUB DUP2 DUP7 GAS STATICCALL ISZERO DUP1 ISZERO PUSH3 0x9C7 JUMPI RETURNDATASIZE PUSH1 0x0 DUP1 RETURNDATACOPY RETURNDATASIZE PUSH1 0x0 REVERT JUMPDEST POP POP POP POP PUSH1 0x40 MLOAD RETURNDATASIZE PUSH1 0x1F NOT PUSH1 0x1F DUP3 ADD AND DUP3 ADD DUP1 PUSH1 0x40 MSTORE POP DUP2 ADD SWAP1 PUSH3 0x9ED SWAP2 SWAP1 PUSH3 0x3356 JUMP JUMPDEST PUSH3 0x2058 JUMP JUMPDEST PUSH3 0xAE1 DUP2 PUSH20 0xFFFFFFFFFFFFFFFFFFFFFFFFFFFFFFFFFFFFFFFF AND PUSH4 0x3B1BEBD1 PUSH1 0x40 MLOAD DUP2 PUSH4 0xFFFFFFFF AND PUSH1 0xE0 SHL DUP2 MSTORE PUSH1 0x4 ADD PUSH1 0x20 PUSH1 0x40 MLOAD DUP1 DUP4 SUB DUP2 DUP7 GAS STATICCALL ISZERO DUP1 ISZERO PUSH3 0xA43 JUMPI RETURNDATASIZE PUSH1 0x0 DUP1 RETURNDATACOPY RETURNDATASIZE PUSH1 0x0 REVERT JUMPDEST POP POP POP POP PUSH1 0x40 MLOAD RETURNDATASIZE PUSH1 0x1F NOT PUSH1 0x1F DUP3 ADD AND DUP3 ADD DUP1 PUSH1 0x40 MSTORE POP DUP2 ADD SWAP1 PUSH3 0xA69 SWAP2 SWAP1 PUSH3 0x3356 JUMP JUMPDEST DUP4 PUSH20 0xFFFFFFFFFFFFFFFFFFFFFFFFFFFFFFFFFFFFFFFF AND PUSH4 0x3C490174 PUSH1 0x40 MLOAD DUP2 PUSH4 0xFFFFFFFF AND PUSH1 0xE0 SHL DUP2 MSTORE PUSH1 0x4 ADD PUSH1 0x20 PUSH1 0x40 MLOAD DUP1 DUP4 SUB DUP2 DUP7 GAS STATICCALL ISZERO DUP1 ISZERO PUSH3 0xAB5 JUMPI RETURNDATASIZE PUSH1 0x0 DUP1 RETURNDATACOPY RETURNDATASIZE PUSH1 0x0 REVERT JUMPDEST POP POP POP POP PUSH1 0x40 MLOAD RETURNDATASIZE PUSH1 0x1F NOT PUSH1 0x1F DUP3 ADD AND DUP3 ADD DUP1 PUSH1 0x40 MSTORE POP DUP2 ADD SWAP1 PUSH3 0xADB SWAP2 SWAP1 PUSH3 0x3356 JUMP JUMPDEST PUSH3 0x2415 JUMP JUMPDEST PUSH3 0xB5E DUP2 PUSH20 0xFFFFFFFFFFFFFFFFFFFFFFFFFFFFFFFFFFFFFFFF AND PUSH4 0x3B1BEBD1 PUSH1 0x40 MLOAD DUP2 PUSH4 0xFFFFFFFF AND PUSH1 0xE0 SHL DUP2 MSTORE PUSH1 0x4 ADD PUSH1 0x20 PUSH1 0x40 MLOAD DUP1 DUP4 SUB DUP2 DUP7 GAS STATICCALL ISZERO DUP1 ISZERO PUSH3 0xB31 JUMPI RETURNDATASIZE PUSH1 0x0 DUP1 RETURNDATACOPY RETURNDATASIZE PUSH1 0x0 REVERT JUMPDEST POP POP POP POP PUSH1 0x40 MLOAD RETURNDATASIZE PUSH1 0x1F NOT PUSH1 0x1F DUP3 ADD AND DUP3 ADD DUP1 PUSH1 0x40 MSTORE POP DUP2 ADD SWAP1 PUSH3 0xB57 SWAP2 SWAP1 PUSH3 0x3356 JUMP JUMPDEST DUP5 PUSH3 0x27D3 JUMP JUMPDEST POP POP POP JUMP JUMPDEST PUSH1 0x60 PUSH1 0x0 DUP4 LT ISZERO PUSH3 0xBAC JUMPI PUSH1 0x40 MLOAD PUSH32 0x8C379A000000000000000000000000000000000000000000000000000000000 DUP2 MSTORE PUSH1 0x4 ADD PUSH3 0xBA3 SWAP1 PUSH3 0x356F JUMP JUMPDEST PUSH1 0x40 MLOAD DUP1 SWAP2 SUB SWAP1 REVERT JUMPDEST PUSH1 0x3 DUP1 SLOAD SWAP1 POP DUP3 GT ISZERO PUSH3 0xBF7 JUMPI PUSH1 0x40 MLOAD PUSH32 0x8C379A000000000000000000000000000000000000000000000000000000000 DUP2 MSTORE PUSH1 0x4 ADD PUSH3 0xBEE SWAP1 PUSH3 0x3607 JUMP JUMPDEST PUSH1 0x40 MLOAD DUP1 SWAP2 SUB SWAP1 REVERT JUMPDEST PUSH1 0x0 DUP4 DUP4 PUSH3 0xC07 SWAP2 SWAP1 PUSH3 0x3658 JUMP JUMPDEST PUSH8 0xFFFFFFFFFFFFFFFF DUP2 GT ISZERO PUSH3 0xC23 JUMPI PUSH3 0xC22 PUSH3 0x309D JUMP JUMPDEST JUMPDEST PUSH1 0x40 MLOAD SWAP1 DUP1 DUP3 MSTORE DUP1 PUSH1 0x20 MUL PUSH1 0x20 ADD DUP3 ADD PUSH1 0x40 MSTORE DUP1 ISZERO PUSH3 0xC52 JUMPI DUP2 PUSH1 0x20 ADD PUSH1 0x20 DUP3 MUL DUP1 CALLDATASIZE DUP4 CALLDATACOPY DUP1 DUP3 ADD SWAP2 POP POP SWAP1 POP JUMPDEST POP SWAP1 POP PUSH1 0x0 DUP5 SWAP1 POP JUMPDEST DUP4 DUP2 LT ISZERO PUSH3 0xD0C JUMPI PUSH1 0x3 DUP2 DUP2 SLOAD DUP2 LT PUSH3 0xC7B JUMPI PUSH3 0xC7A PUSH3 0x3693 JUMP JUMPDEST JUMPDEST SWAP1 PUSH1 0x0 MSTORE PUSH1 0x20 PUSH1 0x0 KECCAK256 ADD PUSH1 0x0 SWAP1 SLOAD SWAP1 PUSH2 0x100 EXP SWAP1 DIV PUSH20 0xFFFFFFFFFFFFFFFFFFFFFFFFFFFFFFFFFFFFFFFF AND DUP3 DUP3 DUP2 MLOAD DUP2 LT PUSH3 0xCBC JUMPI PUSH3 0xCBB PUSH3 0x3693 JUMP JUMPDEST JUMPDEST PUSH1 0x20 MUL PUSH1 0x20 ADD ADD SWAP1 PUSH20 0xFFFFFFFFFFFFFFFFFFFFFFFFFFFFFFFFFFFFFFFF AND SWAP1 DUP2 PUSH20 0xFFFFFFFFFFFFFFFFFFFFFFFFFFFFFFFFFFFFFFFF AND DUP2 MSTORE POP POP DUP1 DUP1 PUSH3 0xD03 SWAP1 PUSH3 0x36C2 JUMP JUMPDEST SWAP2 POP POP PUSH3 0xC5B JUMP JUMPDEST POP DUP1 SWAP2 POP POP SWAP3 SWAP2 POP POP JUMP JUMPDEST PUSH1 0x60 PUSH1 0x6 PUSH1 0x0 DUP4 PUSH20 0xFFFFFFFFFFFFFFFFFFFFFFFFFFFFFFFFFFFFFFFF AND PUSH20 0xFFFFFFFFFFFFFFFFFFFFFFFFFFFFFFFFFFFFFFFF AND DUP2 MSTORE PUSH1 0x20 ADD SWAP1 DUP2 MSTORE PUSH1 0x20 ADD PUSH1 0x0 KECCAK256 PUSH1 0x2 ADD DUP1 SLOAD DUP1 PUSH1 0x20 MUL PUSH1 0x20 ADD PUSH1 0x40 MLOAD SWAP1 DUP2 ADD PUSH1 0x40 MSTORE DUP1 SWAP3 SWAP2 SWAP1 DUP2 DUP2 MSTORE PUSH1 0x20 ADD DUP3 DUP1 SLOAD DUP1 ISZERO PUSH3 0xDDD JUMPI PUSH1 0x20 MUL DUP3 ADD SWAP2 SWAP1 PUSH1 0x0 MSTORE PUSH1 0x20 PUSH1 0x0 KECCAK256 SWAP1 JUMPDEST DUP2 PUSH1 0x0 SWAP1 SLOAD SWAP1 PUSH2 0x100 EXP SWAP1 DIV PUSH20 0xFFFFFFFFFFFFFFFFFFFFFFFFFFFFFFFFFFFFFFFF AND PUSH20 0xFFFFFFFFFFFFFFFFFFFFFFFFFFFFFFFFFFFFFFFF AND DUP2 MSTORE PUSH1 0x20 ADD SWAP1 PUSH1 0x1 ADD SWAP1 DUP1 DUP4 GT PUSH3 0xD92 JUMPI JUMPDEST POP POP POP POP POP SWAP1 POP SWAP2 SWAP1 POP JUMP JUMPDEST PUSH1 0x3 DUP2 DUP2 SLOAD DUP2 LT PUSH3 0xDFA JUMPI PUSH1 0x0 DUP1 REVERT JUMPDEST SWAP1 PUSH1 0x0 MSTORE PUSH1 0x20 PUSH1 0x0 KECCAK256 ADD PUSH1 0x0 SWAP2 POP SLOAD SWAP1 PUSH2 0x100 EXP SWAP1 DIV PUSH20 0xFFFFFFFFFFFFFFFFFFFFFFFFFFFFFFFFFFFFFFFF AND DUP2 JUMP JUMPDEST PUSH1 0x8 DUP2 DUP2 SLOAD DUP2 LT PUSH3 0xE3A JUMPI PUSH1 0x0 DUP1 REVERT JUMPDEST SWAP1 PUSH1 0x0 MSTORE PUSH1 0x20 PUSH1 0x0 KECCAK256 ADD PUSH1 0x0 SWAP2 POP SLOAD SWAP1 PUSH2 0x100 EXP SWAP1 DIV PUSH20 0xFFFFFFFFFFFFFFFFFFFFFFFFFFFFFFFFFFFFFFFF AND DUP2 JUMP JUMPDEST PUSH1 0x60 PUSH1 0x0 DUP1 DUP4 PUSH20 0xFFFFFFFFFFFFFFFFFFFFFFFFFFFFFFFFFFFFFFFF AND PUSH20 0xFFFFFFFFFFFFFFFFFFFFFFFFFFFFFFFFFFFFFFFF AND DUP2 MSTORE PUSH1 0x20 ADD SWAP1 DUP2 MSTORE PUSH1 0x20 ADD PUSH1 0x0 KECCAK256 PUSH1 0x1 ADD DUP1 SLOAD DUP1 PUSH1 0x20 MUL PUSH1 0x20 ADD PUSH1 0x40 MLOAD SWAP1 DUP2 ADD PUSH1 0x40 MSTORE DUP1 SWAP3 SWAP2 SWAP1 DUP2 DUP2 MSTORE PUSH1 0x20 ADD DUP3 DUP1 SLOAD DUP1 ISZERO PUSH3 0xF2E JUMPI PUSH1 0x20 MUL DUP3 ADD SWAP2 SWAP1 PUSH1 0x0 MSTORE PUSH1 0x20 PUSH1 0x0 KECCAK256 SWAP1 JUMPDEST DUP2 PUSH1 0x0 SWAP1 SLOAD SWAP1 PUSH2 0x100 EXP SWAP1 DIV PUSH20 0xFFFFFFFFFFFFFFFFFFFFFFFFFFFFFFFFFFFFFFFF AND PUSH20 0xFFFFFFFFFFFFFFFFFFFFFFFFFFFFFFFFFFFFFFFF AND DUP2 MSTORE PUSH1 0x20 ADD SWAP1 PUSH1 0x1 ADD SWAP1 DUP1 DUP4 GT PUSH3 0xEE3 JUMPI JUMPDEST POP POP POP POP POP SWAP1 POP SWAP2 SWAP1 POP JUMP JUMPDEST PUSH1 0x4 SLOAD DUP2 JUMP JUMPDEST PUSH1 0x1 DUP2 DUP2 SLOAD DUP2 LT PUSH3 0xF51 JUMPI PUSH1 0x0 DUP1 REVERT JUMPDEST SWAP1 PUSH1 0x0 MSTORE PUSH1 0x20 PUSH1 0x0 KECCAK256 ADD PUSH1 0x0 SWAP2 POP SLOAD SWAP1 PUSH2 0x100 EXP SWAP1 DIV PUSH20 0xFFFFFFFFFFFFFFFFFFFFFFFFFFFFFFFFFFFFFFFF AND DUP2 JUMP JUMPDEST PUSH1 0x0 DUP2 SWAP1 POP DUP1 PUSH20 0xFFFFFFFFFFFFFFFFFFFFFFFFFFFFFFFFFFFFFFFF AND PUSH4 0x2D398FA6 PUSH1 0x40 MLOAD DUP2 PUSH4 0xFFFFFFFF AND PUSH1 0xE0 SHL DUP2 MSTORE PUSH1 0x4 ADD PUSH1 0x20 PUSH1 0x40 MLOAD DUP1 DUP4 SUB DUP2 PUSH1 0x0 DUP8 GAS CALL ISZERO DUP1 ISZERO PUSH3 0xFD3 JUMPI RETURNDATASIZE PUSH1 0x0 DUP1 RETURNDATACOPY RETURNDATASIZE PUSH1 0x0 REVERT JUMPDEST POP POP POP POP PUSH1 0x40 MLOAD RETURNDATASIZE PUSH1 0x1F NOT PUSH1 0x1F DUP3 ADD AND DUP3 ADD DUP1 PUSH1 0x40 MSTORE POP DUP2 ADD SWAP1 PUSH3 0xFF9 SWAP2 SWAP1 PUSH3 0x34ED JUMP JUMPDEST POP PUSH3 0x1077 DUP2 PUSH20 0xFFFFFFFFFFFFFFFFFFFFFFFFFFFFFFFFFFFFFFFF AND PUSH4 0x2D05D3F PUSH1 0x40 MLOAD DUP2 PUSH4 0xFFFFFFFF AND PUSH1 0xE0 SHL DUP2 MSTORE PUSH1 0x4 ADD PUSH1 0x20 PUSH1 0x40 MLOAD DUP1 DUP4 SUB DUP2 DUP7 GAS STATICCALL ISZERO DUP1 ISZERO PUSH3 0x104A JUMPI RETURNDATASIZE PUSH1 0x0 DUP1 RETURNDATACOPY RETURNDATASIZE PUSH1 0x0 REVERT JUMPDEST POP POP POP POP PUSH1 0x40 MLOAD RETURNDATASIZE PUSH1 0x1F NOT PUSH1 0x1F DUP3 ADD AND DUP3 ADD DUP1 PUSH1 0x40 MSTORE POP DUP2 ADD SWAP1 PUSH3 0x1070 SWAP2 SWAP1 PUSH3 0x3356 JUMP JUMPDEST DUP4 PUSH3 0x2058 JUMP JUMPDEST PUSH3 0x10F4 DUP2 PUSH20 0xFFFFFFFFFFFFFFFFFFFFFFFFFFFFFFFFFFFFFFFF AND PUSH4 0x3B1BEBD1 PUSH1 0x40 MLOAD DUP2 PUSH4 0xFFFFFFFF AND PUSH1 0xE0 SHL DUP2 MSTORE PUSH1 0x4 ADD PUSH1 0x20 PUSH1 0x40 MLOAD DUP1 DUP4 SUB DUP2 DUP7 GAS STATICCALL ISZERO DUP1 ISZERO PUSH3 0x10C7 JUMPI RETURNDATASIZE PUSH1 0x0 DUP1 RETURNDATACOPY RETURNDATASIZE PUSH1 0x0 REVERT JUMPDEST POP POP POP POP PUSH1 0x40 MLOAD RETURNDATASIZE PUSH1 0x1F NOT PUSH1 0x1F DUP3 ADD AND DUP3 ADD DUP1 PUSH1 0x40 MSTORE POP DUP2 ADD SWAP1 PUSH3 0x10ED SWAP2 SWAP1 PUSH3 0x3356 JUMP JUMPDEST DUP4 PUSH3 0x2415 JUMP JUMPDEST POP POP JUMP JUMPDEST PUSH1 0x0 DUP2 SWAP1 POP DUP1 PUSH20 0xFFFFFFFFFFFFFFFFFFFFFFFFFFFFFFFFFFFFFFFF AND PUSH4 0xB4FEDC11 PUSH1 0x40 MLOAD DUP2 PUSH4 0xFFFFFFFF AND PUSH1 0xE0 SHL DUP2 MSTORE PUSH1 0x4 ADD PUSH1 0x20 PUSH1 0x40 MLOAD DUP1 DUP4 SUB DUP2 PUSH1 0x0 DUP8 GAS CALL ISZERO DUP1 ISZERO PUSH3 0x114B JUMPI RETURNDATASIZE PUSH1 0x0 DUP1 RETURNDATACOPY RETURNDATASIZE PUSH1 0x0 REVERT JUMPDEST POP POP POP POP PUSH1 0x40 MLOAD RETURNDATASIZE PUSH1 0x1F NOT PUSH1 0x1F DUP3 ADD AND DUP3 ADD DUP1 PUSH1 0x40 MSTORE POP DUP2 ADD SWAP1 PUSH3 0x1171 SWAP2 SWAP1 PUSH3 0x34ED JUMP JUMPDEST POP PUSH3 0x11EF DUP2 PUSH20 0xFFFFFFFFFFFFFFFFFFFFFFFFFFFFFFFFFFFFFFFF AND PUSH4 0x2D05D3F PUSH1 0x40 MLOAD DUP2 PUSH4 0xFFFFFFFF AND PUSH1 0xE0 SHL DUP2 MSTORE PUSH1 0x4 ADD PUSH1 0x20 PUSH1 0x40 MLOAD DUP1 DUP4 SUB DUP2 DUP7 GAS STATICCALL ISZERO DUP1 ISZERO PUSH3 0x11C2 JUMPI RETURNDATASIZE PUSH1 0x0 DUP1 RETURNDATACOPY RETURNDATASIZE PUSH1 0x0 REVERT JUMPDEST POP POP POP POP PUSH1 0x40 MLOAD RETURNDATASIZE PUSH1 0x1F NOT PUSH1 0x1F DUP3 ADD AND DUP3 ADD DUP1 PUSH1 0x40 MSTORE POP DUP2 ADD SWAP1 PUSH3 0x11E8 SWAP2 SWAP1 PUSH3 0x3356 JUMP JUMPDEST DUP4 PUSH3 0x2058 JUMP JUMPDEST PUSH3 0x126C DUP2 PUSH20 0xFFFFFFFFFFFFFFFFFFFFFFFFFFFFFFFFFFFFFFFF AND PUSH4 0x3B1BEBD1 PUSH1 0x40 MLOAD DUP2 PUSH4 0xFFFFFFFF AND PUSH1 0xE0 SHL DUP2 MSTORE PUSH1 0x4 ADD PUSH1 0x20 PUSH1 0x40 MLOAD DUP1 DUP4 SUB DUP2 DUP7 GAS STATICCALL ISZERO DUP1 ISZERO PUSH3 0x123F JUMPI RETURNDATASIZE PUSH1 0x0 DUP1 RETURNDATACOPY RETURNDATASIZE PUSH1 0x0 REVERT JUMPDEST POP POP POP POP PUSH1 0x40 MLOAD RETURNDATASIZE PUSH1 0x1F NOT PUSH1 0x1F DUP3 ADD AND DUP3 ADD DUP1 PUSH1 0x40 MSTORE POP DUP2 ADD SWAP1 PUSH3 0x1265 SWAP2 SWAP1 PUSH3 0x3356 JUMP JUMPDEST DUP4 PUSH3 0x2415 JUMP JUMPDEST POP POP JUMP JUMPDEST PUSH1 0x6 PUSH1 0x20 MSTORE DUP1 PUSH1 0x0 MSTORE PUSH1 0x40 PUSH1 0x0 KECCAK256 PUSH1 0x0 SWAP2 POP SWAP1 POP DUP1 PUSH1 0x0 ADD SLOAD SWAP1 POP DUP2 JUMP JUMPDEST PUSH1 0x2 SLOAD DUP2 JUMP JUMPDEST PUSH1 0x60 PUSH1 0x6 PUSH1 0x0 DUP4 PUSH20 0xFFFFFFFFFFFFFFFFFFFFFFFFFFFFFFFFFFFFFFFF AND PUSH20 0xFFFFFFFFFFFFFFFFFFFFFFFFFFFFFFFFFFFFFFFF AND DUP2 MSTORE PUSH1 0x20 ADD SWAP1 DUP2 MSTORE PUSH1 0x20 ADD PUSH1 0x0 KECCAK256 PUSH1 0x3 ADD DUP1 SLOAD DUP1 PUSH1 0x20 MUL PUSH1 0x20 ADD PUSH1 0x40 MLOAD SWAP1 DUP2 ADD PUSH1 0x40 MSTORE DUP1 SWAP3 SWAP2 SWAP1 DUP2 DUP2 MSTORE PUSH1 0x20 ADD DUP3 DUP1 SLOAD DUP1 ISZERO PUSH3 0x135A JUMPI PUSH1 0x20 MUL DUP3 ADD SWAP2 SWAP1 PUSH1 0x0 MSTORE PUSH1 0x20 PUSH1 0x0 KECCAK256 SWAP1 JUMPDEST DUP2 PUSH1 0x0 SWAP1 SLOAD SWAP1 PUSH2 0x100 EXP SWAP1 DIV PUSH20 0xFFFFFFFFFFFFFFFFFFFFFFFFFFFFFFFFFFFFFFFF AND PUSH20 0xFFFFFFFFFFFFFFFFFFFFFFFFFFFFFFFFFFFFFFFF AND DUP2 MSTORE PUSH1 0x20 ADD SWAP1 PUSH1 0x1 ADD SWAP1 DUP1 DUP4 GT PUSH3 0x130F JUMPI JUMPDEST POP POP POP POP POP SWAP1 POP SWAP2 SWAP1 POP JUMP JUMPDEST PUSH1 0x60 PUSH1 0x6 PUSH1 0x0 DUP4 PUSH20 0xFFFFFFFFFFFFFFFFFFFFFFFFFFFFFFFFFFFFFFFF AND PUSH20 0xFFFFFFFFFFFFFFFFFFFFFFFFFFFFFFFFFFFFFFFF AND DUP2 MSTORE PUSH1 0x20 ADD SWAP1 DUP2 MSTORE PUSH1 0x20 ADD PUSH1 0x0 KECCAK256 PUSH1 0x1 ADD DUP1 SLOAD DUP1 PUSH1 0x20 MUL PUSH1 0x20 ADD PUSH1 0x40 MLOAD SWAP1 DUP2 ADD PUSH1 0x40 MSTORE DUP1 SWAP3 SWAP2 SWAP1 DUP2 DUP2 MSTORE PUSH1 0x20 ADD DUP3 DUP1 SLOAD DUP1 ISZERO PUSH3 0x142C JUMPI PUSH1 0x20 MUL DUP3 ADD SWAP2 SWAP1 PUSH1 0x0 MSTORE PUSH1 0x20 PUSH1 0x0 KECCAK256 SWAP1 JUMPDEST DUP2 PUSH1 0x0 SWAP1 SLOAD SWAP1 PUSH2 0x100 EXP SWAP1 DIV PUSH20 0xFFFFFFFFFFFFFFFFFFFFFFFFFFFFFFFFFFFFFFFF AND PUSH20 0xFFFFFFFFFFFFFFFFFFFFFFFFFFFFFFFFFFFFFFFF AND DUP2 MSTORE PUSH1 0x20 ADD SWAP1 PUSH1 0x1 ADD SWAP1 DUP1 DUP4 GT PUSH3 0x13E1 JUMPI JUMPDEST POP POP POP POP POP SWAP1 POP SWAP2 SWAP1 POP JUMP JUMPDEST PUSH1 0x0 PUSH1 0x20 MSTORE DUP1 PUSH1 0x0 MSTORE PUSH1 0x40 PUSH1 0x0 KECCAK256 PUSH1 0x0 SWAP2 POP SWAP1 POP DUP1 PUSH1 0x0 ADD SLOAD SWAP1 POP DUP2 JUMP JUMPDEST PUSH1 0x60 PUSH1 0x0 DUP4 LT ISZERO PUSH3 0x149F JUMPI PUSH1 0x40 MLOAD PUSH32 0x8C379A000000000000000000000000000000000000000000000000000000000 DUP2 MSTORE PUSH1 0x4 ADD PUSH3 0x1496 SWAP1 PUSH3 0x356F JUMP JUMPDEST PUSH1 0x40 MLOAD DUP1 SWAP2 SUB SWAP1 REVERT JUMPDEST PUSH1 0x1 DUP1 SLOAD SWAP1 POP DUP3 GT ISZERO PUSH3 0x14EA JUMPI PUSH1 0x40 MLOAD PUSH32 0x8C379A000000000000000000000000000000000000000000000000000000000 DUP2 MSTORE PUSH1 0x4 ADD PUSH3 0x14E1 SWAP1 PUSH3 0x3607 JUMP JUMPDEST PUSH1 0x40 MLOAD DUP1 SWAP2 SUB SWAP1 REVERT JUMPDEST PUSH1 0x0 DUP4 DUP4 PUSH3 0x14FA SWAP2 SWAP1 PUSH3 0x3658 JUMP JUMPDEST PUSH8 0xFFFFFFFFFFFFFFFF DUP2 GT ISZERO PUSH3 0x1516 JUMPI PUSH3 0x1515 PUSH3 0x309D JUMP JUMPDEST JUMPDEST PUSH1 0x40 MLOAD SWAP1 DUP1 DUP3 MSTORE DUP1 PUSH1 0x20 MUL PUSH1 0x20 ADD DUP3 ADD PUSH1 0x40 MSTORE DUP1 ISZERO PUSH3 0x1545 JUMPI DUP2 PUSH1 0x20 ADD PUSH1 0x20 DUP3 MUL DUP1 CALLDATASIZE DUP4 CALLDATACOPY DUP1 DUP3 ADD SWAP2 POP POP SWAP1 POP JUMPDEST POP SWAP1 POP PUSH1 0x0 DUP5 SWAP1 POP JUMPDEST DUP4 DUP2 LT ISZERO PUSH3 0x15FF JUMPI PUSH1 0x1 DUP2 DUP2 SLOAD DUP2 LT PUSH3 0x156E JUMPI PUSH3 0x156D PUSH3 0x3693 JUMP JUMPDEST JUMPDEST SWAP1 PUSH1 0x0 MSTORE PUSH1 0x20 PUSH1 0x0 KECCAK256 ADD PUSH1 0x0 SWAP1 SLOAD SWAP1 PUSH2 0x100 EXP SWAP1 DIV PUSH20 0xFFFFFFFFFFFFFFFFFFFFFFFFFFFFFFFFFFFFFFFF AND DUP3 DUP3 DUP2 MLOAD DUP2 LT PUSH3 0x15AF JUMPI PUSH3 0x15AE PUSH3 0x3693 JUMP JUMPDEST JUMPDEST PUSH1 0x20 MUL PUSH1 0x20 ADD ADD SWAP1 PUSH20 0xFFFFFFFFFFFFFFFFFFFFFFFFFFFFFFFFFFFFFFFF AND SWAP1 DUP2 PUSH20 0xFFFFFFFFFFFFFFFFFFFFFFFFFFFFFFFFFFFFFFFF AND DUP2 MSTORE POP POP DUP1 DUP1 PUSH3 0x15F6 SWAP1 PUSH3 0x36C2 JUMP JUMPDEST SWAP2 POP POP PUSH3 0x154E JUMP JUMPDEST POP DUP1 SWAP2 POP POP SWAP3 SWAP2 POP POP JUMP JUMPDEST PUSH1 0x60 PUSH1 0x0 DUP1 DUP4 PUSH20 0xFFFFFFFFFFFFFFFFFFFFFFFFFFFFFFFFFFFFFFFF AND PUSH20 0xFFFFFFFFFFFFFFFFFFFFFFFFFFFFFFFFFFFFFFFF AND DUP2 MSTORE PUSH1 0x20 ADD SWAP1 DUP2 MSTORE PUSH1 0x20 ADD PUSH1 0x0 KECCAK256 PUSH1 0x2 ADD DUP1 SLOAD DUP1 PUSH1 0x20 MUL PUSH1 0x20 ADD PUSH1 0x40 MLOAD SWAP1 DUP2 ADD PUSH1 0x40 MSTORE DUP1 SWAP3 SWAP2 SWAP1 DUP2 DUP2 MSTORE PUSH1 0x20 ADD DUP3 DUP1 SLOAD DUP1 ISZERO PUSH3 0x16CF JUMPI PUSH1 0x20 MUL DUP3 ADD SWAP2 SWAP1 PUSH1 0x0 MSTORE PUSH1 0x20 PUSH1 0x0 KECCAK256 SWAP1 JUMPDEST DUP2 PUSH1 0x0 SWAP1 SLOAD SWAP1 PUSH2 0x100 EXP SWAP1 DIV PUSH20 0xFFFFFFFFFFFFFFFFFFFFFFFFFFFFFFFFFFFFFFFF AND PUSH20 0xFFFFFFFFFFFFFFFFFFFFFFFFFFFFFFFFFFFFFFFF AND DUP2 MSTORE PUSH1 0x20 ADD SWAP1 PUSH1 0x1 ADD SWAP1 DUP1 DUP4 GT PUSH3 0x1684 JUMPI JUMPDEST POP POP POP POP POP SWAP1 POP SWAP2 SWAP1 POP JUMP JUMPDEST PUSH1 0x7 SLOAD DUP2 JUMP JUMPDEST PUSH1 0x0 DUP3 SWAP1 POP DUP1 PUSH20 0xFFFFFFFFFFFFFFFFFFFFFFFFFFFFFFFFFFFFFFFF AND PUSH4 0xD69B7CE3 DUP4 PUSH1 0x40 MLOAD DUP3 PUSH4 0xFFFFFFFF AND PUSH1 0xE0 SHL DUP2 MSTORE PUSH1 0x4 ADD PUSH3 0x1721 SWAP2 SWAP1 PUSH3 0x3792 JUMP JUMPDEST PUSH1 0x20 PUSH1 0x40 MLOAD DUP1 DUP4 SUB DUP2 PUSH1 0x0 DUP8 GAS CALL ISZERO DUP1 ISZERO PUSH3 0x1741 JUMPI RETURNDATASIZE PUSH1 0x0 DUP1 RETURNDATACOPY RETURNDATASIZE PUSH1 0x0 REVERT JUMPDEST POP POP POP POP PUSH1 0x40 MLOAD RETURNDATASIZE PUSH1 0x1F NOT PUSH1 0x1F DUP3 ADD AND DUP3 ADD DUP1 PUSH1 0x40 MSTORE POP DUP2 ADD SWAP1 PUSH3 0x1767 SWAP2 SWAP1 PUSH3 0x3476 JUMP JUMPDEST POP POP POP POP JUMP JUMPDEST PUSH1 0x5 SLOAD DUP2 JUMP JUMPDEST PUSH1 0x0 DUP2 SWAP1 POP PUSH1 0x0 PUSH1 0x2 DUP2 GT ISZERO PUSH3 0x178F JUMPI PUSH3 0x178E PUSH3 0x37B6 JUMP JUMPDEST JUMPDEST DUP2 PUSH20 0xFFFFFFFFFFFFFFFFFFFFFFFFFFFFFFFFFFFFFFFF AND PUSH4 0x200D2ED2 PUSH1 0x40 MLOAD DUP2 PUSH4 0xFFFFFFFF AND PUSH1 0xE0 SHL DUP2 MSTORE PUSH1 0x4 ADD PUSH1 0x20 PUSH1 0x40 MLOAD DUP1 DUP4 SUB DUP2 DUP7 GAS STATICCALL ISZERO DUP1 ISZERO PUSH3 0x17DB JUMPI RETURNDATASIZE PUSH1 0x0 DUP1 RETURNDATACOPY RETURNDATASIZE PUSH1 0x0 REVERT JUMPDEST POP POP POP POP PUSH1 0x40 MLOAD RETURNDATASIZE PUSH1 0x1F NOT PUSH1 0x1F DUP3 ADD AND DUP3 ADD DUP1 PUSH1 0x40 MSTORE POP DUP2 ADD SWAP1 PUSH3 0x1801 SWAP2 SWAP1 PUSH3 0x380D JUMP JUMPDEST PUSH1 0x2 DUP2 GT ISZERO PUSH3 0x1816 JUMPI PUSH3 0x1815 PUSH3 0x37B6 JUMP JUMPDEST JUMPDEST EQ PUSH3 0x1859 JUMPI PUSH1 0x40 MLOAD PUSH32 0x8C379A000000000000000000000000000000000000000000000000000000000 DUP2 MSTORE PUSH1 0x4 ADD PUSH3 0x1850 SWAP1 PUSH3 0x388F JUMP JUMPDEST PUSH1 0x40 MLOAD DUP1 SWAP2 SUB SWAP1 REVERT JUMPDEST DUP1 PUSH20 0xFFFFFFFFFFFFFFFFFFFFFFFFFFFFFFFFFFFFFFFF AND PUSH4 0x2D05D3F PUSH1 0x40 MLOAD DUP2 PUSH4 0xFFFFFFFF AND PUSH1 0xE0 SHL DUP2 MSTORE PUSH1 0x4 ADD PUSH1 0x20 PUSH1 0x40 MLOAD DUP1 DUP4 SUB DUP2 DUP7 GAS STATICCALL ISZERO DUP1 ISZERO PUSH3 0x18A5 JUMPI RETURNDATASIZE PUSH1 0x0 DUP1 RETURNDATACOPY RETURNDATASIZE PUSH1 0x0 REVERT JUMPDEST POP POP POP POP PUSH1 0x40 MLOAD RETURNDATASIZE PUSH1 0x1F NOT PUSH1 0x1F DUP3 ADD AND DUP3 ADD DUP1 PUSH1 0x40 MSTORE POP DUP2 ADD SWAP1 PUSH3 0x18CB SWAP2 SWAP1 PUSH3 0x3356 JUMP JUMPDEST PUSH20 0xFFFFFFFFFFFFFFFFFFFFFFFFFFFFFFFFFFFFFFFF AND ORIGIN PUSH20 0xFFFFFFFFFFFFFFFFFFFFFFFFFFFFFFFFFFFFFFFF AND EQ PUSH3 0x193B JUMPI PUSH1 0x40 MLOAD PUSH32 0x8C379A000000000000000000000000000000000000000000000000000000000 DUP2 MSTORE PUSH1 0x4 ADD PUSH3 0x1932 SWAP1 PUSH3 0x3927 JUMP JUMPDEST PUSH1 0x40 MLOAD DUP1 SWAP2 SUB SWAP1 REVERT JUMPDEST DUP1 PUSH20 0xFFFFFFFFFFFFFFFFFFFFFFFFFFFFFFFFFFFFFFFF AND PUSH4 0x3B1BEBD1 PUSH1 0x40 MLOAD DUP2 PUSH4 0xFFFFFFFF AND PUSH1 0xE0 SHL DUP2 MSTORE PUSH1 0x4 ADD PUSH1 0x20 PUSH1 0x40 MLOAD DUP1 DUP4 SUB DUP2 DUP7 GAS STATICCALL ISZERO DUP1 ISZERO PUSH3 0x1987 JUMPI RETURNDATASIZE PUSH1 0x0 DUP1 RETURNDATACOPY RETURNDATASIZE PUSH1 0x0 REVERT JUMPDEST POP POP POP POP PUSH1 0x40 MLOAD RETURNDATASIZE PUSH1 0x1F NOT PUSH1 0x1F DUP3 ADD AND DUP3 ADD DUP1 PUSH1 0x40 MSTORE POP DUP2 ADD SWAP1 PUSH3 0x19AD SWAP2 SWAP1 PUSH3 0x3356 JUMP JUMPDEST PUSH20 0xFFFFFFFFFFFFFFFFFFFFFFFFFFFFFFFFFFFFFFFF AND DUP2 PUSH20 0xFFFFFFFFFFFFFFFFFFFFFFFFFFFFFFFFFFFFFFFF AND PUSH4 0x2D05D3F PUSH1 0x40 MLOAD DUP2 PUSH4 0xFFFFFFFF AND PUSH1 0xE0 SHL DUP2 MSTORE PUSH1 0x4 ADD PUSH1 0x20 PUSH1 0x40 MLOAD DUP1 DUP4 SUB DUP2 DUP7 GAS STATICCALL ISZERO DUP1 ISZERO PUSH3 0x1A0F JUMPI RETURNDATASIZE PUSH1 0x0 DUP1 RETURNDATACOPY RETURNDATASIZE PUSH1 0x0 REVERT JUMPDEST POP POP POP POP PUSH1 0x40 MLOAD RETURNDATASIZE PUSH1 0x1F NOT PUSH1 0x1F DUP3 ADD AND DUP3 ADD DUP1 PUSH1 0x40 MSTORE POP DUP2 ADD SWAP1 PUSH3 0x1A35 SWAP2 SWAP1 PUSH3 0x3356 JUMP JUMPDEST PUSH20 0xFFFFFFFFFFFFFFFFFFFFFFFFFFFFFFFFFFFFFFFF AND EQ ISZERO PUSH3 0x1A8F JUMPI PUSH1 0x40 MLOAD PUSH32 0x8C379A000000000000000000000000000000000000000000000000000000000 DUP2 MSTORE PUSH1 0x4 ADD PUSH3 0x1A86 SWAP1 PUSH3 0x39BF JUMP JUMPDEST PUSH1 0x40 MLOAD DUP1 SWAP2 SUB SWAP1 REVERT JUMPDEST PUSH1 0x0 DUP3 PUSH1 0x40 MLOAD PUSH3 0x1AA0 SWAP1 PUSH3 0x2DB9 JUMP JUMPDEST PUSH3 0x1AAC SWAP2 SWAP1 PUSH3 0x3037 JUMP JUMPDEST PUSH1 0x40 MLOAD DUP1 SWAP2 SUB SWAP1 PUSH1 0x0 CREATE DUP1 ISZERO DUP1 ISZERO PUSH3 0x1AC9 JUMPI RETURNDATASIZE PUSH1 0x0 DUP1 RETURNDATACOPY RETURNDATASIZE PUSH1 0x0 REVERT JUMPDEST POP SWAP1 POP PUSH1 0x6 PUSH1 0x0 DUP4 PUSH20 0xFFFFFFFFFFFFFFFFFFFFFFFFFFFFFFFFFFFFFFFF AND PUSH4 0x3B1BEBD1 PUSH1 0x40 MLOAD DUP2 PUSH4 0xFFFFFFFF AND PUSH1 0xE0 SHL DUP2 MSTORE PUSH1 0x4 ADD PUSH1 0x20 PUSH1 0x40 MLOAD DUP1 DUP4 SUB DUP2 DUP7 GAS STATICCALL ISZERO DUP1 ISZERO PUSH3 0x1B1C JUMPI RETURNDATASIZE PUSH1 0x0 DUP1 RETURNDATACOPY RETURNDATASIZE PUSH1 0x0 REVERT JUMPDEST POP POP POP POP PUSH1 0x40 MLOAD RETURNDATASIZE PUSH1 0x1F NOT PUSH1 0x1F DUP3 ADD AND DUP3 ADD DUP1 PUSH1 0x40 MSTORE POP DUP2 ADD SWAP1 PUSH3 0x1B42 SWAP2 SWAP1 PUSH3 0x3356 JUMP JUMPDEST PUSH20 0xFFFFFFFFFFFFFFFFFFFFFFFFFFFFFFFFFFFFFFFF AND PUSH20 0xFFFFFFFFFFFFFFFFFFFFFFFFFFFFFFFFFFFFFFFF AND DUP2 MSTORE PUSH1 0x20 ADD SWAP1 DUP2 MSTORE PUSH1 0x20 ADD PUSH1 0x0 KECCAK256 PUSH1 0x3 ADD DUP2 SWAP1 DUP1 PUSH1 0x1 DUP2 SLOAD ADD DUP1 DUP3 SSTORE DUP1 SWAP2 POP POP PUSH1 0x1 SWAP1 SUB SWAP1 PUSH1 0x0 MSTORE PUSH1 0x20 PUSH1 0x0 KECCAK256 ADD PUSH1 0x0 SWAP1 SWAP2 SWAP1 SWAP2 SWAP1 SWAP2 PUSH2 0x100 EXP DUP2 SLOAD DUP2 PUSH20 0xFFFFFFFFFFFFFFFFFFFFFFFFFFFFFFFFFFFFFFFF MUL NOT AND SWAP1 DUP4 PUSH20 0xFFFFFFFFFFFFFFFFFFFFFFFFFFFFFFFFFFFFFFFF AND MUL OR SWAP1 SSTORE POP POP POP POP JUMP JUMPDEST PUSH1 0x0 DUP1 PUSH1 0x0 CALLER PUSH20 0xFFFFFFFFFFFFFFFFFFFFFFFFFFFFFFFFFFFFFFFF AND PUSH20 0xFFFFFFFFFFFFFFFFFFFFFFFFFFFFFFFFFFFFFFFF AND DUP2 MSTORE PUSH1 0x20 ADD SWAP1 DUP2 MSTORE PUSH1 0x20 ADD PUSH1 0x0 KECCAK256 PUSH1 0x0 ADD SLOAD EQ ISZERO PUSH3 0x1CAE JUMPI PUSH1 0x2 PUSH1 0x0 DUP2 SLOAD DUP1 SWAP3 SWAP2 SWAP1 PUSH3 0x1C45 SWAP1 PUSH3 0x36C2 JUMP JUMPDEST SWAP2 SWAP1 POP SSTORE POP PUSH1 0x1 CALLER SWAP1 DUP1 PUSH1 0x1 DUP2 SLOAD ADD DUP1 DUP3 SSTORE DUP1 SWAP2 POP POP PUSH1 0x1 SWAP1 SUB SWAP1 PUSH1 0x0 MSTORE PUSH1 0x20 PUSH1 0x0 KECCAK256 ADD PUSH1 0x0 SWAP1 SWAP2 SWAP1 SWAP2 SWAP1 SWAP2 PUSH2 0x100 EXP DUP2 SLOAD DUP2 PUSH20 0xFFFFFFFFFFFFFFFFFFFFFFFFFFFFFFFFFFFFFFFF MUL NOT AND SWAP1 DUP4 PUSH20 0xFFFFFFFFFFFFFFFFFFFFFFFFFFFFFFFFFFFFFFFF AND MUL OR SWAP1 SSTORE POP JUMPDEST PUSH1 0x0 PUSH1 0x6 PUSH1 0x0 DUP7 PUSH20 0xFFFFFFFFFFFFFFFFFFFFFFFFFFFFFFFFFFFFFFFF AND PUSH20 0xFFFFFFFFFFFFFFFFFFFFFFFFFFFFFFFFFFFFFFFF AND DUP2 MSTORE PUSH1 0x20 ADD SWAP1 DUP2 MSTORE PUSH1 0x20 ADD PUSH1 0x0 KECCAK256 PUSH1 0x0 ADD SLOAD EQ ISZERO PUSH3 0x1D78 JUMPI PUSH1 0x7 PUSH1 0x0 DUP2 SLOAD DUP1 SWAP3 SWAP2 SWAP1 PUSH3 0x1D0F SWAP1 PUSH3 0x36C2 JUMP JUMPDEST SWAP2 SWAP1 POP SSTORE POP PUSH1 0x8 DUP5 SWAP1 DUP1 PUSH1 0x1 DUP2 SLOAD ADD DUP1 DUP3 SSTORE DUP1 SWAP2 POP POP PUSH1 0x1 SWAP1 SUB SWAP1 PUSH1 0x0 MSTORE PUSH1 0x20 PUSH1 0x0 KECCAK256 ADD PUSH1 0x0 SWAP1 SWAP2 SWAP1 SWAP2 SWAP1 SWAP2 PUSH2 0x100 EXP DUP2 SLOAD DUP2 PUSH20 0xFFFFFFFFFFFFFFFFFFFFFFFFFFFFFFFFFFFFFFFF MUL NOT AND SWAP1 DUP4 PUSH20 0xFFFFFFFFFFFFFFFFFFFFFFFFFFFFFFFFFFFFFFFF AND MUL OR SWAP1 SSTORE POP JUMPDEST PUSH1 0x0 CALLVALUE CALLER DUP7 DUP7 DUP7 DUP7 CALLVALUE PUSH1 0x40 MLOAD PUSH3 0x1D8F SWAP1 PUSH3 0x2DC7 JUMP JUMPDEST PUSH3 0x1DA0 SWAP7 SWAP6 SWAP5 SWAP4 SWAP3 SWAP2 SWAP1 PUSH3 0x3A4C JUMP JUMPDEST PUSH1 0x40 MLOAD DUP1 SWAP2 SUB SWAP1 DUP3 CREATE SWAP1 POP DUP1 ISZERO DUP1 ISZERO PUSH3 0x1DBE JUMPI RETURNDATASIZE PUSH1 0x0 DUP1 RETURNDATACOPY RETURNDATASIZE PUSH1 0x0 REVERT JUMPDEST POP SWAP1 POP PUSH1 0x4 PUSH1 0x0 DUP2 SLOAD DUP1 SWAP3 SWAP2 SWAP1 PUSH3 0x1DD6 SWAP1 PUSH3 0x36C2 JUMP JUMPDEST SWAP2 SWAP1 POP SSTORE POP PUSH1 0x3 DUP2 SWAP1 DUP1 PUSH1 0x1 DUP2 SLOAD ADD DUP1 DUP3 SSTORE DUP1 SWAP2 POP POP PUSH1 0x1 SWAP1 SUB SWAP1 PUSH1 0x0 MSTORE PUSH1 0x20 PUSH1 0x0 KECCAK256 ADD PUSH1 0x0 SWAP1 SWAP2 SWAP1 SWAP2 SWAP1 SWAP2 PUSH2 0x100 EXP DUP2 SLOAD DUP2 PUSH20 0xFFFFFFFFFFFFFFFFFFFFFFFFFFFFFFFFFFFFFFFF MUL NOT AND SWAP1 DUP4 PUSH20 0xFFFFFFFFFFFFFFFFFFFFFFFFFFFFFFFFFFFFFFFF AND MUL OR SWAP1 SSTORE POP CALLVALUE PUSH1 0x5 PUSH1 0x0 DUP3 DUP3 SLOAD PUSH3 0x1E52 SWAP2 SWAP1 PUSH3 0x3AC7 JUMP JUMPDEST SWAP3 POP POP DUP2 SWAP1 SSTORE POP PUSH1 0x0 DUP1 CALLER PUSH20 0xFFFFFFFFFFFFFFFFFFFFFFFFFFFFFFFFFFFFFFFF AND PUSH20 0xFFFFFFFFFFFFFFFFFFFFFFFFFFFFFFFFFFFFFFFF AND DUP2 MSTORE PUSH1 0x20 ADD SWAP1 DUP2 MSTORE PUSH1 0x20 ADD PUSH1 0x0 KECCAK256 PUSH1 0x0 ADD PUSH1 0x0 DUP2 SLOAD DUP1 SWAP3 SWAP2 SWAP1 PUSH3 0x1EAD SWAP1 PUSH3 0x36C2 JUMP JUMPDEST SWAP2 SWAP1 POP SSTORE POP PUSH1 0x0 DUP1 CALLER PUSH20 0xFFFFFFFFFFFFFFFFFFFFFFFFFFFFFFFFFFFFFFFF AND PUSH20 0xFFFFFFFFFFFFFFFFFFFFFFFFFFFFFFFFFFFFFFFF AND DUP2 MSTORE PUSH1 0x20 ADD SWAP1 DUP2 MSTORE PUSH1 0x20 ADD PUSH1 0x0 KECCAK256 PUSH1 0x1 ADD DUP2 SWAP1 DUP1 PUSH1 0x1 DUP2 SLOAD ADD DUP1 DUP3 SSTORE DUP1 SWAP2 POP POP PUSH1 0x1 SWAP1 SUB SWAP1 PUSH1 0x0 MSTORE PUSH1 0x20 PUSH1 0x0 KECCAK256 ADD PUSH1 0x0 SWAP1 SWAP2 SWAP1 SWAP2 SWAP1 SWAP2 PUSH2 0x100 EXP DUP2 SLOAD DUP2 PUSH20 0xFFFFFFFFFFFFFFFFFFFFFFFFFFFFFFFFFFFFFFFF MUL NOT AND SWAP1 DUP4 PUSH20 0xFFFFFFFFFFFFFFFFFFFFFFFFFFFFFFFFFFFFFFFF AND MUL OR SWAP1 SSTORE POP PUSH1 0x6 PUSH1 0x0 DUP7 PUSH20 0xFFFFFFFFFFFFFFFFFFFFFFFFFFFFFFFFFFFFFFFF AND PUSH20 0xFFFFFFFFFFFFFFFFFFFFFFFFFFFFFFFFFFFFFFFF AND DUP2 MSTORE PUSH1 0x20 ADD SWAP1 DUP2 MSTORE PUSH1 0x20 ADD PUSH1 0x0 KECCAK256 PUSH1 0x0 ADD PUSH1 0x0 DUP2 SLOAD DUP1 SWAP3 SWAP2 SWAP1 PUSH3 0x1FA9 SWAP1 PUSH3 0x36C2 JUMP JUMPDEST SWAP2 SWAP1 POP SSTORE POP PUSH1 0x6 PUSH1 0x0 DUP7 PUSH20 0xFFFFFFFFFFFFFFFFFFFFFFFFFFFFFFFFFFFFFFFF AND PUSH20 0xFFFFFFFFFFFFFFFFFFFFFFFFFFFFFFFFFFFFFFFF AND DUP2 MSTORE PUSH1 0x20 ADD SWAP1 DUP2 MSTORE PUSH1 0x20 ADD PUSH1 0x0 KECCAK256 PUSH1 0x1 ADD DUP2 SWAP1 DUP1 PUSH1 0x1 DUP2 SLOAD ADD DUP1 DUP3 SSTORE DUP1 SWAP2 POP POP PUSH1 0x1 SWAP1 SUB SWAP1 PUSH1 0x0 MSTORE PUSH1 0x20 PUSH1 0x0 KECCAK256 ADD PUSH1 0x0 SWAP1 SWAP2 SWAP1 SWAP2 SWAP1 SWAP2 PUSH2 0x100 EXP DUP2 SLOAD DUP2 PUSH20 0xFFFFFFFFFFFFFFFFFFFFFFFFFFFFFFFFFFFFFFFF MUL NOT AND SWAP1 DUP4 PUSH20 0xFFFFFFFFFFFFFFFFFFFFFFFFFFFFFFFFFFFFFFFF AND MUL OR SWAP1 SSTORE POP POP POP POP POP POP JUMP JUMPDEST PUSH1 0x0 PUSH3 0x2066 DUP4 DUP4 PUSH3 0x2B43 JUMP JUMPDEST SWAP1 POP PUSH1 0x0 DUP1 PUSH1 0x0 DUP6 PUSH20 0xFFFFFFFFFFFFFFFFFFFFFFFFFFFFFFFFFFFFFFFF AND PUSH20 0xFFFFFFFFFFFFFFFFFFFFFFFFFFFFFFFFFFFFFFFF AND DUP2 MSTORE PUSH1 0x20 ADD SWAP1 DUP2 MSTORE PUSH1 0x20 ADD PUSH1 0x0 KECCAK256 PUSH1 0x1 ADD DUP1 SLOAD SWAP1 POP SWAP1 POP PUSH1 0x0 DUP3 SWAP1 POP JUMPDEST PUSH1 0x1 DUP3 PUSH3 0x20C6 SWAP2 SWAP1 PUSH3 0x3658 JUMP JUMPDEST DUP2 LT ISZERO PUSH3 0x2211 JUMPI PUSH1 0x0 DUP1 DUP7 PUSH20 0xFFFFFFFFFFFFFFFFFFFFFFFFFFFFFFFFFFFFFFFF AND PUSH20 0xFFFFFFFFFFFFFFFFFFFFFFFFFFFFFFFFFFFFFFFF AND DUP2 MSTORE PUSH1 0x20 ADD SWAP1 DUP2 MSTORE PUSH1 0x20 ADD PUSH1 0x0 KECCAK256 PUSH1 0x1 ADD PUSH1 0x1 DUP3 PUSH3 0x211E SWAP2 SWAP1 PUSH3 0x3AC7 JUMP JUMPDEST DUP2 SLOAD DUP2 LT PUSH3 0x2132 JUMPI PUSH3 0x2131 PUSH3 0x3693 JUMP JUMPDEST JUMPDEST SWAP1 PUSH1 0x0 MSTORE PUSH1 0x20 PUSH1 0x0 KECCAK256 ADD PUSH1 0x0 SWAP1 SLOAD SWAP1 PUSH2 0x100 EXP SWAP1 DIV PUSH20 0xFFFFFFFFFFFFFFFFFFFFFFFFFFFFFFFFFFFFFFFF AND PUSH1 0x0 DUP1 DUP8 PUSH20 0xFFFFFFFFFFFFFFFFFFFFFFFFFFFFFFFFFFFFFFFF AND PUSH20 0xFFFFFFFFFFFFFFFFFFFFFFFFFFFFFFFFFFFFFFFF AND DUP2 MSTORE PUSH1 0x20 ADD SWAP1 DUP2 MSTORE PUSH1 0x20 ADD PUSH1 0x0 KECCAK256 PUSH1 0x1 ADD DUP3 DUP2 SLOAD DUP2 LT PUSH3 0x21B3 JUMPI PUSH3 0x21B2 PUSH3 0x3693 JUMP JUMPDEST JUMPDEST SWAP1 PUSH1 0x0 MSTORE PUSH1 0x20 PUSH1 0x0 KECCAK256 ADD PUSH1 0x0 PUSH2 0x100 EXP DUP2 SLOAD DUP2 PUSH20 0xFFFFFFFFFFFFFFFFFFFFFFFFFFFFFFFFFFFFFFFF MUL NOT AND SWAP1 DUP4 PUSH20 0xFFFFFFFFFFFFFFFFFFFFFFFFFFFFFFFFFFFFFFFF AND MUL OR SWAP1 SSTORE POP DUP1 DUP1 PUSH3 0x2208 SWAP1 PUSH3 0x36C2 JUMP JUMPDEST SWAP2 POP POP PUSH3 0x20B7 JUMP JUMPDEST POP PUSH1 0x0 DUP1 DUP6 PUSH20 0xFFFFFFFFFFFFFFFFFFFFFFFFFFFFFFFFFFFFFFFF AND PUSH20 0xFFFFFFFFFFFFFFFFFFFFFFFFFFFFFFFFFFFFFFFF AND DUP2 MSTORE PUSH1 0x20 ADD SWAP1 DUP2 MSTORE PUSH1 0x20 ADD PUSH1 0x0 KECCAK256 PUSH1 0x2 ADD PUSH1 0x0 DUP1 DUP7 PUSH20 0xFFFFFFFFFFFFFFFFFFFFFFFFFFFFFFFFFFFFFFFF AND PUSH20 0xFFFFFFFFFFFFFFFFFFFFFFFFFFFFFFFFFFFFFFFF AND DUP2 MSTORE PUSH1 0x20 ADD SWAP1 DUP2 MSTORE PUSH1 0x20 ADD PUSH1 0x0 KECCAK256 PUSH1 0x1 ADD PUSH1 0x1 PUSH1 0x0 DUP1 DUP9 PUSH20 0xFFFFFFFFFFFFFFFFFFFFFFFFFFFFFFFFFFFFFFFF AND PUSH20 0xFFFFFFFFFFFFFFFFFFFFFFFFFFFFFFFFFFFFFFFF AND DUP2 MSTORE PUSH1 0x20 ADD SWAP1 DUP2 MSTORE PUSH1 0x20 ADD PUSH1 0x0 KECCAK256 PUSH1 0x1 ADD DUP1 SLOAD SWAP1 POP PUSH3 0x22E7 SWAP2 SWAP1 PUSH3 0x3658 JUMP JUMPDEST DUP2 SLOAD DUP2 LT PUSH3 0x22FB JUMPI PUSH3 0x22FA PUSH3 0x3693 JUMP JUMPDEST JUMPDEST SWAP1 PUSH1 0x0 MSTORE PUSH1 0x20 PUSH1 0x0 KECCAK256 ADD PUSH1 0x0 SWAP1 SLOAD SWAP1 PUSH2 0x100 EXP SWAP1 DIV PUSH20 0xFFFFFFFFFFFFFFFFFFFFFFFFFFFFFFFFFFFFFFFF AND SWAP1 DUP1 PUSH1 0x1 DUP2 SLOAD ADD DUP1 DUP3 SSTORE DUP1 SWAP2 POP POP PUSH1 0x1 SWAP1 SUB SWAP1 PUSH1 0x0 MSTORE PUSH1 0x20 PUSH1 0x0 KECCAK256 ADD PUSH1 0x0 SWAP1 SWAP2 SWAP1 SWAP2 SWAP1 SWAP2 PUSH2 0x100 EXP DUP2 SLOAD DUP2 PUSH20 0xFFFFFFFFFFFFFFFFFFFFFFFFFFFFFFFFFFFFFFFF MUL NOT AND SWAP1 DUP4 PUSH20 0xFFFFFFFFFFFFFFFFFFFFFFFFFFFFFFFFFFFFFFFF AND MUL OR SWAP1 SSTORE POP PUSH1 0x0 DUP1 DUP6 PUSH20 0xFFFFFFFFFFFFFFFFFFFFFFFFFFFFFFFFFFFFFFFF AND PUSH20 0xFFFFFFFFFFFFFFFFFFFFFFFFFFFFFFFFFFFFFFFF AND DUP2 MSTORE PUSH1 0x20 ADD SWAP1 DUP2 MSTORE PUSH1 0x20 ADD PUSH1 0x0 KECCAK256 PUSH1 0x1 ADD DUP1 SLOAD DUP1 PUSH3 0x23DA JUMPI PUSH3 0x23D9 PUSH3 0x3B24 JUMP JUMPDEST JUMPDEST PUSH1 0x1 SWAP1 SUB DUP2 DUP2 SWAP1 PUSH1 0x0 MSTORE PUSH1 0x20 PUSH1 0x0 KECCAK256 ADD PUSH1 0x0 PUSH2 0x100 EXP DUP2 SLOAD SWAP1 PUSH20 0xFFFFFFFFFFFFFFFFFFFFFFFFFFFFFFFFFFFFFFFF MUL NOT AND SWAP1 SSTORE SWAP1 SSTORE POP POP POP POP JUMP JUMPDEST PUSH1 0x0 PUSH3 0x2423 DUP4 DUP4 PUSH3 0x2C7D JUMP JUMPDEST SWAP1 POP PUSH1 0x0 DUP2 SWAP1 POP JUMPDEST PUSH1 0x1 PUSH1 0x6 PUSH1 0x0 DUP7 PUSH20 0xFFFFFFFFFFFFFFFFFFFFFFFFFFFFFFFFFFFFFFFF AND PUSH20 0xFFFFFFFFFFFFFFFFFFFFFFFFFFFFFFFFFFFFFFFF AND DUP2 MSTORE PUSH1 0x20 ADD SWAP1 DUP2 MSTORE PUSH1 0x20 ADD PUSH1 0x0 KECCAK256 PUSH1 0x1 ADD DUP1 SLOAD SWAP1 POP PUSH3 0x247F SWAP2 SWAP1 PUSH3 0x3658 JUMP JUMPDEST DUP2 LT ISZERO PUSH3 0x25CC JUMPI PUSH1 0x6 PUSH1 0x0 DUP6 PUSH20 0xFFFFFFFFFFFFFFFFFFFFFFFFFFFFFFFFFFFFFFFF AND PUSH20 0xFFFFFFFFFFFFFFFFFFFFFFFFFFFFFFFFFFFFFFFF AND DUP2 MSTORE PUSH1 0x20 ADD SWAP1 DUP2 MSTORE PUSH1 0x20 ADD PUSH1 0x0 KECCAK256 PUSH1 0x1 ADD PUSH1 0x1 DUP3 PUSH3 0x24D8 SWAP2 SWAP1 PUSH3 0x3AC7 JUMP JUMPDEST DUP2 SLOAD DUP2 LT PUSH3 0x24EC JUMPI PUSH3 0x24EB PUSH3 0x3693 JUMP JUMPDEST JUMPDEST SWAP1 PUSH1 0x0 MSTORE PUSH1 0x20 PUSH1 0x0 KECCAK256 ADD PUSH1 0x0 SWAP1 SLOAD SWAP1 PUSH2 0x100 EXP SWAP1 DIV PUSH20 0xFFFFFFFFFFFFFFFFFFFFFFFFFFFFFFFFFFFFFFFF AND PUSH1 0x6 PUSH1 0x0 DUP7 PUSH20 0xFFFFFFFFFFFFFFFFFFFFFFFFFFFFFFFFFFFFFFFF AND PUSH20 0xFFFFFFFFFFFFFFFFFFFFFFFFFFFFFFFFFFFFFFFF AND DUP2 MSTORE PUSH1 0x20 ADD SWAP1 DUP2 MSTORE PUSH1 0x20 ADD PUSH1 0x0 KECCAK256 PUSH1 0x1 ADD DUP3 DUP2 SLOAD DUP2 LT PUSH3 0x256E JUMPI PUSH3 0x256D PUSH3 0x3693 JUMP JUMPDEST JUMPDEST SWAP1 PUSH1 0x0 MSTORE PUSH1 0x20 PUSH1 0x0 KECCAK256 ADD PUSH1 0x0 PUSH2 0x100 EXP DUP2 SLOAD DUP2 PUSH20 0xFFFFFFFFFFFFFFFFFFFFFFFFFFFFFFFFFFFFFFFF MUL NOT AND SWAP1 DUP4 PUSH20 0xFFFFFFFFFFFFFFFFFFFFFFFFFFFFFFFFFFFFFFFF AND MUL OR SWAP1 SSTORE POP DUP1 DUP1 PUSH3 0x25C3 SWAP1 PUSH3 0x36C2 JUMP JUMPDEST SWAP2 POP POP PUSH3 0x242B JUMP JUMPDEST POP PUSH1 0x6 PUSH1 0x0 DUP5 PUSH20 0xFFFFFFFFFFFFFFFFFFFFFFFFFFFFFFFFFFFFFFFF AND PUSH20 0xFFFFFFFFFFFFFFFFFFFFFFFFFFFFFFFFFFFFFFFF AND DUP2 MSTORE PUSH1 0x20 ADD SWAP1 DUP2 MSTORE PUSH1 0x20 ADD PUSH1 0x0 KECCAK256 PUSH1 0x2 ADD PUSH1 0x6 PUSH1 0x0 DUP6 PUSH20 0xFFFFFFFFFFFFFFFFFFFFFFFFFFFFFFFFFFFFFFFF AND PUSH20 0xFFFFFFFFFFFFFFFFFFFFFFFFFFFFFFFFFFFFFFFF AND DUP2 MSTORE PUSH1 0x20 ADD SWAP1 DUP2 MSTORE PUSH1 0x20 ADD PUSH1 0x0 KECCAK256 PUSH1 0x1 ADD PUSH1 0x1 PUSH1 0x6 PUSH1 0x0 DUP8 PUSH20 0xFFFFFFFFFFFFFFFFFFFFFFFFFFFFFFFFFFFFFFFF AND PUSH20 0xFFFFFFFFFFFFFFFFFFFFFFFFFFFFFFFFFFFFFFFF AND DUP2 MSTORE PUSH1 0x20 ADD SWAP1 DUP2 MSTORE PUSH1 0x20 ADD PUSH1 0x0 KECCAK256 PUSH1 0x1 ADD DUP1 SLOAD SWAP1 POP PUSH3 0x26A5 SWAP2 SWAP1 PUSH3 0x3658 JUMP JUMPDEST DUP2 SLOAD DUP2 LT PUSH3 0x26B9 JUMPI PUSH3 0x26B8 PUSH3 0x3693 JUMP JUMPDEST JUMPDEST SWAP1 PUSH1 0x0 MSTORE PUSH1 0x20 PUSH1 0x0 KECCAK256 ADD PUSH1 0x0 SWAP1 SLOAD SWAP1 PUSH2 0x100 EXP SWAP1 DIV PUSH20 0xFFFFFFFFFFFFFFFFFFFFFFFFFFFFFFFFFFFFFFFF AND SWAP1 DUP1 PUSH1 0x1 DUP2 SLOAD ADD DUP1 DUP3 SSTORE DUP1 SWAP2 POP POP PUSH1 0x1 SWAP1 SUB SWAP1 PUSH1 0x0 MSTORE PUSH1 0x20 PUSH1 0x0 KECCAK256 ADD PUSH1 0x0 SWAP1 SWAP2 SWAP1 SWAP2 SWAP1 SWAP2 PUSH2 0x100 EXP DUP2 SLOAD DUP2 PUSH20 0xFFFFFFFFFFFFFFFFFFFFFFFFFFFFFFFFFFFFFFFF MUL NOT AND SWAP1 DUP4 PUSH20 0xFFFFFFFFFFFFFFFFFFFFFFFFFFFFFFFFFFFFFFFF AND MUL OR SWAP1 SSTORE POP PUSH1 0x6 PUSH1 0x0 DUP5 PUSH20 0xFFFFFFFFFFFFFFFFFFFFFFFFFFFFFFFFFFFFFFFF AND PUSH20 0xFFFFFFFFFFFFFFFFFFFFFFFFFFFFFFFFFFFFFFFF AND DUP2 MSTORE PUSH1 0x20 ADD SWAP1 DUP2 MSTORE PUSH1 0x20 ADD PUSH1 0x0 KECCAK256 PUSH1 0x1 ADD DUP1 SLOAD DUP1 PUSH3 0x2799 JUMPI PUSH3 0x2798 PUSH3 0x3B24 JUMP JUMPDEST JUMPDEST PUSH1 0x1 SWAP1 SUB DUP2 DUP2 SWAP1 PUSH1 0x0 MSTORE PUSH1 0x20 PUSH1 0x0 KECCAK256 ADD PUSH1 0x0 PUSH2 0x100 EXP DUP2 SLOAD SWAP1 PUSH20 0xFFFFFFFFFFFFFFFFFFFFFFFFFFFFFFFFFFFFFFFF MUL NOT AND SWAP1 SSTORE SWAP1 SSTORE POP POP POP JUMP JUMPDEST PUSH1 0x0 DUP1 PUSH1 0x0 SWAP1 POP JUMPDEST PUSH1 0x1 PUSH1 0x6 PUSH1 0x0 DUP7 PUSH20 0xFFFFFFFFFFFFFFFFFFFFFFFFFFFFFFFFFFFFFFFF AND PUSH20 0xFFFFFFFFFFFFFFFFFFFFFFFFFFFFFFFFFFFFFFFF AND DUP2 MSTORE PUSH1 0x20 ADD SWAP1 DUP2 MSTORE PUSH1 0x20 ADD PUSH1 0x0 KECCAK256 PUSH1 0x3 ADD DUP1 SLOAD SWAP1 POP PUSH3 0x282F SWAP2 SWAP1 PUSH3 0x3658 JUMP JUMPDEST DUP2 GT PUSH3 0x290B JUMPI DUP3 PUSH20 0xFFFFFFFFFFFFFFFFFFFFFFFFFFFFFFFFFFFFFFFF AND PUSH1 0x6 PUSH1 0x0 DUP7 PUSH20 0xFFFFFFFFFFFFFFFFFFFFFFFFFFFFFFFFFFFFFFFF AND PUSH20 0xFFFFFFFFFFFFFFFFFFFFFFFFFFFFFFFFFFFFFFFF AND DUP2 MSTORE PUSH1 0x20 ADD SWAP1 DUP2 MSTORE PUSH1 0x20 ADD PUSH1 0x0 KECCAK256 PUSH1 0x3 ADD DUP3 DUP2 SLOAD DUP2 LT PUSH3 0x28A4 JUMPI PUSH3 0x28A3 PUSH3 0x3693 JUMP JUMPDEST JUMPDEST SWAP1 PUSH1 0x0 MSTORE PUSH1 0x20 PUSH1 0x0 KECCAK256 ADD PUSH1 0x0 SWAP1 SLOAD SWAP1 PUSH2 0x100 EXP SWAP1 DIV PUSH20 0xFFFFFFFFFFFFFFFFFFFFFFFFFFFFFFFFFFFFFFFF AND PUSH20 0xFFFFFFFFFFFFFFFFFFFFFFFFFFFFFFFFFFFFFFFF AND EQ ISZERO PUSH3 0x28F5 JUMPI DUP1 SWAP2 POP PUSH3 0x290B JUMP JUMPDEST DUP1 DUP1 PUSH3 0x2902 SWAP1 PUSH3 0x36C2 JUMP JUMPDEST SWAP2 POP POP PUSH3 0x27DB JUMP JUMPDEST POP PUSH1 0x0 DUP2 SWAP1 POP JUMPDEST PUSH1 0x1 PUSH1 0x6 PUSH1 0x0 DUP7 PUSH20 0xFFFFFFFFFFFFFFFFFFFFFFFFFFFFFFFFFFFFFFFF AND PUSH20 0xFFFFFFFFFFFFFFFFFFFFFFFFFFFFFFFFFFFFFFFF AND DUP2 MSTORE PUSH1 0x20 ADD SWAP1 DUP2 MSTORE PUSH1 0x20 ADD PUSH1 0x0 KECCAK256 PUSH1 0x3 ADD DUP1 SLOAD SWAP1 POP PUSH3 0x2966 SWAP2 SWAP1 PUSH3 0x3658 JUMP JUMPDEST DUP2 LT ISZERO PUSH3 0x2AB3 JUMPI PUSH1 0x6 PUSH1 0x0 DUP6 PUSH20 0xFFFFFFFFFFFFFFFFFFFFFFFFFFFFFFFFFFFFFFFF AND PUSH20 0xFFFFFFFFFFFFFFFFFFFFFFFFFFFFFFFFFFFFFFFF AND DUP2 MSTORE PUSH1 0x20 ADD SWAP1 DUP2 MSTORE PUSH1 0x20 ADD PUSH1 0x0 KECCAK256 PUSH1 0x3 ADD PUSH1 0x1 DUP3 PUSH3 0x29BF SWAP2 SWAP1 PUSH3 0x3AC7 JUMP JUMPDEST DUP2 SLOAD DUP2 LT PUSH3 0x29D3 JUMPI PUSH3 0x29D2 PUSH3 0x3693 JUMP JUMPDEST JUMPDEST SWAP1 PUSH1 0x0 MSTORE PUSH1 0x20 PUSH1 0x0 KECCAK256 ADD PUSH1 0x0 SWAP1 SLOAD SWAP1 PUSH2 0x100 EXP SWAP1 DIV PUSH20 0xFFFFFFFFFFFFFFFFFFFFFFFFFFFFFFFFFFFFFFFF AND PUSH1 0x6 PUSH1 0x0 DUP7 PUSH20 0xFFFFFFFFFFFFFFFFFFFFFFFFFFFFFFFFFFFFFFFF AND PUSH20 0xFFFFFFFFFFFFFFFFFFFFFFFFFFFFFFFFFFFFFFFF AND DUP2 MSTORE PUSH1 0x20 ADD SWAP1 DUP2 MSTORE PUSH1 0x20 ADD PUSH1 0x0 KECCAK256 PUSH1 0x3 ADD DUP3 DUP2 SLOAD DUP2 LT PUSH3 0x2A55 JUMPI PUSH3 0x2A54 PUSH3 0x3693 JUMP JUMPDEST JUMPDEST SWAP1 PUSH1 0x0 MSTORE PUSH1 0x20 PUSH1 0x0 KECCAK256 ADD PUSH1 0x0 PUSH2 0x100 EXP DUP2 SLOAD DUP2 PUSH20 0xFFFFFFFFFFFFFFFFFFFFFFFFFFFFFFFFFFFFFFFF MUL NOT AND SWAP1 DUP4 PUSH20 0xFFFFFFFFFFFFFFFFFFFFFFFFFFFFFFFFFFFFFFFF AND MUL OR SWAP1 SSTORE POP DUP1 DUP1 PUSH3 0x2AAA SWAP1 PUSH3 0x36C2 JUMP JUMPDEST SWAP2 POP POP PUSH3 0x2912 JUMP JUMPDEST POP PUSH1 0x6 PUSH1 0x0 DUP5 PUSH20 0xFFFFFFFFFFFFFFFFFFFFFFFFFFFFFFFFFFFFFFFF AND PUSH20 0xFFFFFFFFFFFFFFFFFFFFFFFFFFFFFFFFFFFFFFFF AND DUP2 MSTORE PUSH1 0x20 ADD SWAP1 DUP2 MSTORE PUSH1 0x20 ADD PUSH1 0x0 KECCAK256 PUSH1 0x3 ADD DUP1 SLOAD DUP1 PUSH3 0x2B09 JUMPI PUSH3 0x2B08 PUSH3 0x3B24 JUMP JUMPDEST JUMPDEST PUSH1 0x1 SWAP1 SUB DUP2 DUP2 SWAP1 PUSH1 0x0 MSTORE PUSH1 0x20 PUSH1 0x0 KECCAK256 ADD PUSH1 0x0 PUSH2 0x100 EXP DUP2 SLOAD SWAP1 PUSH20 0xFFFFFFFFFFFFFFFFFFFFFFFFFFFFFFFFFFFFFFFF MUL NOT AND SWAP1 SSTORE SWAP1 SSTORE POP POP POP JUMP JUMPDEST PUSH1 0x0 DUP1 PUSH1 0x0 JUMPDEST PUSH1 0x1 PUSH1 0x0 DUP1 DUP8 PUSH20 0xFFFFFFFFFFFFFFFFFFFFFFFFFFFFFFFFFFFFFFFF AND PUSH20 0xFFFFFFFFFFFFFFFFFFFFFFFFFFFFFFFFFFFFFFFF AND DUP2 MSTORE PUSH1 0x20 ADD SWAP1 DUP2 MSTORE PUSH1 0x20 ADD PUSH1 0x0 KECCAK256 PUSH1 0x1 ADD DUP1 SLOAD SWAP1 POP PUSH3 0x2B9C SWAP2 SWAP1 PUSH3 0x3658 JUMP JUMPDEST DUP2 GT PUSH3 0x2C72 JUMPI DUP4 PUSH20 0xFFFFFFFFFFFFFFFFFFFFFFFFFFFFFFFFFFFFFFFF AND PUSH1 0x0 DUP1 DUP8 PUSH20 0xFFFFFFFFFFFFFFFFFFFFFFFFFFFFFFFFFFFFFFFF AND PUSH20 0xFFFFFFFFFFFFFFFFFFFFFFFFFFFFFFFFFFFFFFFF AND DUP2 MSTORE PUSH1 0x20 ADD SWAP1 DUP2 MSTORE PUSH1 0x20 ADD PUSH1 0x0 KECCAK256 PUSH1 0x1 ADD DUP3 DUP2 SLOAD DUP2 LT PUSH3 0x2C10 JUMPI PUSH3 0x2C0F PUSH3 0x3693 JUMP JUMPDEST JUMPDEST SWAP1 PUSH1 0x0 MSTORE PUSH1 0x20 PUSH1 0x0 KECCAK256 ADD PUSH1 0x0 SWAP1 SLOAD SWAP1 PUSH2 0x100 EXP SWAP1 DIV PUSH20 0xFFFFFFFFFFFFFFFFFFFFFFFFFFFFFFFFFFFFFFFF AND PUSH20 0xFFFFFFFFFFFFFFFFFFFFFFFFFFFFFFFFFFFFFFFF AND EQ ISZERO PUSH3 0x2C5C JUMPI DUP1 SWAP2 POP JUMPDEST DUP1 DUP1 PUSH3 0x2C69 SWAP1 PUSH3 0x36C2 JUMP JUMPDEST SWAP2 POP POP PUSH3 0x2B49 JUMP JUMPDEST POP DUP1 SWAP2 POP POP SWAP3 SWAP2 POP POP JUMP JUMPDEST PUSH1 0x0 DUP1 PUSH1 0x0 JUMPDEST PUSH1 0x1 PUSH1 0x6 PUSH1 0x0 DUP8 PUSH20 0xFFFFFFFFFFFFFFFFFFFFFFFFFFFFFFFFFFFFFFFF AND PUSH20 0xFFFFFFFFFFFFFFFFFFFFFFFFFFFFFFFFFFFFFFFF AND DUP2 MSTORE PUSH1 0x20 ADD SWAP1 DUP2 MSTORE PUSH1 0x20 ADD PUSH1 0x0 KECCAK256 PUSH1 0x1 ADD DUP1 SLOAD SWAP1 POP PUSH3 0x2CD7 SWAP2 SWAP1 PUSH3 0x3658 JUMP JUMPDEST DUP2 GT PUSH3 0x2DAE JUMPI DUP4 PUSH20 0xFFFFFFFFFFFFFFFFFFFFFFFFFFFFFFFFFFFFFFFF AND PUSH1 0x6 PUSH1 0x0 DUP8 PUSH20 0xFFFFFFFFFFFFFFFFFFFFFFFFFFFFFFFFFFFFFFFF AND PUSH20 0xFFFFFFFFFFFFFFFFFFFFFFFFFFFFFFFFFFFFFFFF AND DUP2 MSTORE PUSH1 0x20 ADD SWAP1 DUP2 MSTORE PUSH1 0x20 ADD PUSH1 0x0 KECCAK256 PUSH1 0x1 ADD DUP3 DUP2 SLOAD DUP2 LT PUSH3 0x2D4C JUMPI PUSH3 0x2D4B PUSH3 0x3693 JUMP JUMPDEST JUMPDEST SWAP1 PUSH1 0x0 MSTORE PUSH1 0x20 PUSH1 0x0 KECCAK256 ADD PUSH1 0x0 SWAP1 SLOAD SWAP1 PUSH2 0x100 EXP SWAP1 DIV PUSH20 0xFFFFFFFFFFFFFFFFFFFFFFFFFFFFFFFFFFFFFFFF AND PUSH20 0xFFFFFFFFFFFFFFFFFFFFFFFFFFFFFFFFFFFFFFFF AND EQ ISZERO PUSH3 0x2D98 JUMPI DUP1 SWAP2 POP JUMPDEST DUP1 DUP1 PUSH3 0x2DA5 SWAP1 PUSH3 0x36C2 JUMP JUMPDEST SWAP2 POP POP PUSH3 0x2C83 JUMP JUMPDEST POP DUP1 SWAP2 POP POP SWAP3 SWAP2 POP POP JUMP JUMPDEST PUSH2 0xD19 DUP1 PUSH3 0x3B54 DUP4 CODECOPY ADD SWAP1 JUMP JUMPDEST PUSH2 0x119C DUP1 PUSH3 0x486D DUP4 CODECOPY ADD SWAP1 JUMP JUMPDEST PUSH1 0x0 PUSH1 0x40 MLOAD SWAP1 POP SWAP1 JUMP JUMPDEST PUSH1 0x0 DUP1 REVERT JUMPDEST PUSH1 0x0 DUP1 REVERT JUMPDEST PUSH1 0x0 PUSH20 0xFFFFFFFFFFFFFFFFFFFFFFFFFFFFFFFFFFFFFFFF DUP3 AND SWAP1 POP SWAP2 SWAP1 POP JUMP JUMPDEST PUSH1 0x0 PUSH3 0x2E16 DUP3 PUSH3 0x2DE9 JUMP JUMPDEST SWAP1 POP SWAP2 SWAP1 POP JUMP JUMPDEST PUSH3 0x2E28 DUP2 PUSH3 0x2E09 JUMP JUMPDEST DUP2 EQ PUSH3 0x2E34 JUMPI PUSH1 0x0 DUP1 REVERT JUMPDEST POP JUMP JUMPDEST PUSH1 0x0 DUP2 CALLDATALOAD SWAP1 POP PUSH3 0x2E48 DUP2 PUSH3 0x2E1D JUMP JUMPDEST SWAP3 SWAP2 POP POP JUMP JUMPDEST PUSH1 0x0 PUSH1 0x20 DUP3 DUP5 SUB SLT ISZERO PUSH3 0x2E67 JUMPI PUSH3 0x2E66 PUSH3 0x2DDF JUMP JUMPDEST JUMPDEST PUSH1 0x0 PUSH3 0x2E77 DUP5 DUP3 DUP6 ADD PUSH3 0x2E37 JUMP JUMPDEST SWAP2 POP POP SWAP3 SWAP2 POP POP JUMP JUMPDEST PUSH1 0x0 DUP2 SWAP1 POP SWAP2 SWAP1 POP JUMP JUMPDEST PUSH3 0x2E95 DUP2 PUSH3 0x2E80 JUMP JUMPDEST DUP2 EQ PUSH3 0x2EA1 JUMPI PUSH1 0x0 DUP1 REVERT JUMPDEST POP JUMP JUMPDEST PUSH1 0x0 DUP2 CALLDATALOAD SWAP1 POP PUSH3 0x2EB5 DUP2 PUSH3 0x2E8A JUMP JUMPDEST SWAP3 SWAP2 POP POP JUMP JUMPDEST PUSH1 0x0 DUP1 PUSH1 0x40 DUP4 DUP6 SUB SLT ISZERO PUSH3 0x2ED5 JUMPI PUSH3 0x2ED4 PUSH3 0x2DDF JUMP JUMPDEST JUMPDEST PUSH1 0x0 PUSH3 0x2EE5 DUP6 DUP3 DUP7 ADD PUSH3 0x2EA4 JUMP JUMPDEST SWAP3 POP POP PUSH1 0x20 PUSH3 0x2EF8 DUP6 DUP3 DUP7 ADD PUSH3 0x2EA4 JUMP JUMPDEST SWAP2 POP POP SWAP3 POP SWAP3 SWAP1 POP JUMP JUMPDEST PUSH1 0x0 DUP2 MLOAD SWAP1 POP SWAP2 SWAP1 POP JUMP JUMPDEST PUSH1 0x0 DUP3 DUP3 MSTORE PUSH1 0x20 DUP3 ADD SWAP1 POP SWAP3 SWAP2 POP POP JUMP JUMPDEST PUSH1 0x0 DUP2 SWAP1 POP PUSH1 0x20 DUP3 ADD SWAP1 POP SWAP2 SWAP1 POP JUMP JUMPDEST PUSH3 0x2F39 DUP2 PUSH3 0x2E09 JUMP JUMPDEST DUP3 MSTORE POP POP JUMP JUMPDEST PUSH1 0x0 PUSH3 0x2F4D DUP4 DUP4 PUSH3 0x2F2E JUMP JUMPDEST PUSH1 0x20 DUP4 ADD SWAP1 POP SWAP3 SWAP2 POP POP JUMP JUMPDEST PUSH1 0x0 PUSH1 0x20 DUP3 ADD SWAP1 POP SWAP2 SWAP1 POP JUMP JUMPDEST PUSH1 0x0 PUSH3 0x2F73 DUP3 PUSH3 0x2F02 JUMP JUMPDEST PUSH3 0x2F7F DUP2 DUP6 PUSH3 0x2F0D JUMP JUMPDEST SWAP4 POP PUSH3 0x2F8C DUP4 PUSH3 0x2F1E JUMP JUMPDEST DUP1 PUSH1 0x0 JUMPDEST DUP4 DUP2 LT ISZERO PUSH3 0x2FC3 JUMPI DUP2 MLOAD PUSH3 0x2FA7 DUP9 DUP3 PUSH3 0x2F3F JUMP JUMPDEST SWAP8 POP PUSH3 0x2FB4 DUP4 PUSH3 0x2F59 JUMP JUMPDEST SWAP3 POP POP PUSH1 0x1 DUP2 ADD SWAP1 POP PUSH3 0x2F90 JUMP JUMPDEST POP DUP6 SWAP4 POP POP POP POP SWAP3 SWAP2 POP POP JUMP JUMPDEST PUSH1 0x0 PUSH1 0x20 DUP3 ADD SWAP1 POP DUP2 DUP2 SUB PUSH1 0x0 DUP4 ADD MSTORE PUSH3 0x2FEC DUP2 DUP5 PUSH3 0x2F66 JUMP JUMPDEST SWAP1 POP SWAP3 SWAP2 POP POP JUMP JUMPDEST PUSH1 0x0 PUSH1 0x20 DUP3 DUP5 SUB SLT ISZERO PUSH3 0x300D JUMPI PUSH3 0x300C PUSH3 0x2DDF JUMP JUMPDEST JUMPDEST PUSH1 0x0 PUSH3 0x301D DUP5 DUP3 DUP6 ADD PUSH3 0x2EA4 JUMP JUMPDEST SWAP2 POP POP SWAP3 SWAP2 POP POP JUMP JUMPDEST PUSH3 0x3031 DUP2 PUSH3 0x2E09 JUMP JUMPDEST DUP3 MSTORE POP POP JUMP JUMPDEST PUSH1 0x0 PUSH1 0x20 DUP3 ADD SWAP1 POP PUSH3 0x304E PUSH1 0x0 DUP4 ADD DUP5 PUSH3 0x3026 JUMP JUMPDEST SWAP3 SWAP2 POP POP JUMP JUMPDEST PUSH3 0x305F DUP2 PUSH3 0x2E80 JUMP JUMPDEST DUP3 MSTORE POP POP JUMP JUMPDEST PUSH1 0x0 PUSH1 0x20 DUP3 ADD SWAP1 POP PUSH3 0x307C PUSH1 0x0 DUP4 ADD DUP5 PUSH3 0x3054 JUMP JUMPDEST SWAP3 SWAP2 POP POP JUMP JUMPDEST PUSH1 0x0 DUP1 REVERT JUMPDEST PUSH1 0x0 DUP1 REVERT JUMPDEST PUSH1 0x0 PUSH1 0x1F NOT PUSH1 0x1F DUP4 ADD AND SWAP1 POP SWAP2 SWAP1 POP JUMP JUMPDEST PUSH32 0x4E487B7100000000000000000000000000000000000000000000000000000000 PUSH1 0x0 MSTORE PUSH1 0x41 PUSH1 0x4 MSTORE PUSH1 0x24 PUSH1 0x0 REVERT JUMPDEST PUSH3 0x30D7 DUP3 PUSH3 0x308C JUMP JUMPDEST DUP2 ADD DUP2 DUP2 LT PUSH8 0xFFFFFFFFFFFFFFFF DUP3 GT OR ISZERO PUSH3 0x30F9 JUMPI PUSH3 0x30F8 PUSH3 0x309D JUMP JUMPDEST JUMPDEST DUP1 PUSH1 0x40 MSTORE POP POP POP JUMP JUMPDEST PUSH1 0x0 PUSH3 0x310E PUSH3 0x2DD5 JUMP JUMPDEST SWAP1 POP PUSH3 0x311C DUP3 DUP3 PUSH3 0x30CC JUMP JUMPDEST SWAP2 SWAP1 POP JUMP JUMPDEST PUSH1 0x0 PUSH8 0xFFFFFFFFFFFFFFFF DUP3 GT ISZERO PUSH3 0x313F JUMPI PUSH3 0x313E PUSH3 0x309D JUMP JUMPDEST JUMPDEST PUSH3 0x314A DUP3 PUSH3 0x308C JUMP JUMPDEST SWAP1 POP PUSH1 0x20 DUP2 ADD SWAP1 POP SWAP2 SWAP1 POP JUMP JUMPDEST DUP3 DUP2 DUP4 CALLDATACOPY PUSH1 0x0 DUP4 DUP4 ADD MSTORE POP POP POP JUMP JUMPDEST PUSH1 0x0 PUSH3 0x317D PUSH3 0x3177 DUP5 PUSH3 0x3121 JUMP JUMPDEST PUSH3 0x3102 JUMP JUMPDEST SWAP1 POP DUP3 DUP2 MSTORE PUSH1 0x20 DUP2 ADD DUP5 DUP5 DUP5 ADD GT ISZERO PUSH3 0x319C JUMPI PUSH3 0x319B PUSH3 0x3087 JUMP JUMPDEST JUMPDEST PUSH3 0x31A9 DUP5 DUP3 DUP6 PUSH3 0x3157 JUMP JUMPDEST POP SWAP4 SWAP3 POP POP POP JUMP JUMPDEST PUSH1 0x0 DUP3 PUSH1 0x1F DUP4 ADD SLT PUSH3 0x31C9 JUMPI PUSH3 0x31C8 PUSH3 0x3082 JUMP JUMPDEST JUMPDEST DUP2 CALLDATALOAD PUSH3 0x31DB DUP5 DUP3 PUSH1 0x20 DUP7 ADD PUSH3 0x3166 JUMP JUMPDEST SWAP2 POP POP SWAP3 SWAP2 POP POP JUMP JUMPDEST PUSH1 0x0 DUP1 PUSH1 0x40 DUP4 DUP6 SUB SLT ISZERO PUSH3 0x31FE JUMPI PUSH3 0x31FD PUSH3 0x2DDF JUMP JUMPDEST JUMPDEST PUSH1 0x0 PUSH3 0x320E DUP6 DUP3 DUP7 ADD PUSH3 0x2E37 JUMP JUMPDEST SWAP3 POP POP PUSH1 0x20 DUP4 ADD CALLDATALOAD PUSH8 0xFFFFFFFFFFFFFFFF DUP2 GT ISZERO PUSH3 0x3232 JUMPI PUSH3 0x3231 PUSH3 0x2DE4 JUMP JUMPDEST JUMPDEST PUSH3 0x3240 DUP6 DUP3 DUP7 ADD PUSH3 0x31B1 JUMP JUMPDEST SWAP2 POP POP SWAP3 POP SWAP3 SWAP1 POP JUMP JUMPDEST PUSH1 0x0 PUSH3 0x3257 DUP3 PUSH3 0x2DE9 JUMP JUMPDEST SWAP1 POP SWAP2 SWAP1 POP JUMP JUMPDEST PUSH3 0x3269 DUP2 PUSH3 0x324A JUMP JUMPDEST DUP2 EQ PUSH3 0x3275 JUMPI PUSH1 0x0 DUP1 REVERT JUMPDEST POP JUMP JUMPDEST PUSH1 0x0 DUP2 CALLDATALOAD SWAP1 POP PUSH3 0x3289 DUP2 PUSH3 0x325E JUMP JUMPDEST SWAP3 SWAP2 POP POP JUMP JUMPDEST PUSH1 0x0 DUP1 PUSH1 0x0 DUP1 PUSH1 0x80 DUP6 DUP8 SUB SLT ISZERO PUSH3 0x32AC JUMPI PUSH3 0x32AB PUSH3 0x2DDF JUMP JUMPDEST JUMPDEST PUSH1 0x0 PUSH3 0x32BC DUP8 DUP3 DUP9 ADD PUSH3 0x2E37 JUMP JUMPDEST SWAP5 POP POP PUSH1 0x20 DUP6 ADD CALLDATALOAD PUSH8 0xFFFFFFFFFFFFFFFF DUP2 GT ISZERO PUSH3 0x32E0 JUMPI PUSH3 0x32DF PUSH3 0x2DE4 JUMP JUMPDEST JUMPDEST PUSH3 0x32EE DUP8 DUP3 DUP9 ADD PUSH3 0x31B1 JUMP JUMPDEST SWAP4 POP POP PUSH1 0x40 DUP6 ADD CALLDATALOAD PUSH8 0xFFFFFFFFFFFFFFFF DUP2 GT ISZERO PUSH3 0x3312 JUMPI PUSH3 0x3311 PUSH3 0x2DE4 JUMP JUMPDEST JUMPDEST PUSH3 0x3320 DUP8 DUP3 DUP9 ADD PUSH3 0x31B1 JUMP JUMPDEST SWAP3 POP POP PUSH1 0x60 PUSH3 0x3333 DUP8 DUP3 DUP9 ADD PUSH3 0x3278 JUMP JUMPDEST SWAP2 POP POP SWAP3 SWAP6 SWAP2 SWAP5 POP SWAP3 POP JUMP JUMPDEST PUSH1 0x0 DUP2 MLOAD SWAP1 POP PUSH3 0x3350 DUP2 PUSH3 0x2E1D JUMP JUMPDEST SWAP3 SWAP2 POP POP JUMP JUMPDEST PUSH1 0x0 PUSH1 0x20 DUP3 DUP5 SUB SLT ISZERO PUSH3 0x336F JUMPI PUSH3 0x336E PUSH3 0x2DDF JUMP JUMPDEST JUMPDEST PUSH1 0x0 PUSH3 0x337F DUP5 DUP3 DUP6 ADD PUSH3 0x333F JUMP JUMPDEST SWAP2 POP POP SWAP3 SWAP2 POP POP JUMP JUMPDEST PUSH1 0x0 DUP3 DUP3 MSTORE PUSH1 0x20 DUP3 ADD SWAP1 POP SWAP3 SWAP2 POP POP JUMP JUMPDEST PUSH32 0x4F6E6C7920636F6E747261637420726566657265652063616E20617070726F76 PUSH1 0x0 DUP3 ADD MSTORE PUSH32 0x65207265717565737420666F7220636F6D706C6574696F6E0000000000000000 PUSH1 0x20 DUP3 ADD MSTORE POP JUMP JUMPDEST PUSH1 0x0 PUSH3 0x33F7 PUSH1 0x38 DUP4 PUSH3 0x3388 JUMP JUMPDEST SWAP2 POP PUSH3 0x3404 DUP3 PUSH3 0x3399 JUMP JUMPDEST PUSH1 0x40 DUP3 ADD SWAP1 POP SWAP2 SWAP1 POP JUMP JUMPDEST PUSH1 0x0 PUSH1 0x20 DUP3 ADD SWAP1 POP DUP2 DUP2 SUB PUSH1 0x0 DUP4 ADD MSTORE PUSH3 0x342A DUP2 PUSH3 0x33E8 JUMP JUMPDEST SWAP1 POP SWAP2 SWAP1 POP JUMP JUMPDEST PUSH1 0x0 PUSH3 0x343E DUP3 PUSH3 0x2E09 JUMP JUMPDEST SWAP1 POP SWAP2 SWAP1 POP JUMP JUMPDEST PUSH3 0x3450 DUP2 PUSH3 0x3431 JUMP JUMPDEST DUP2 EQ PUSH3 0x345C JUMPI PUSH1 0x0 DUP1 REVERT JUMPDEST POP JUMP JUMPDEST PUSH1 0x0 DUP2 MLOAD SWAP1 POP PUSH3 0x3470 DUP2 PUSH3 0x3445 JUMP JUMPDEST SWAP3 SWAP2 POP POP JUMP JUMPDEST PUSH1 0x0 PUSH1 0x20 DUP3 DUP5 SUB SLT ISZERO PUSH3 0x348F JUMPI PUSH3 0x348E PUSH3 0x2DDF JUMP JUMPDEST JUMPDEST PUSH1 0x0 PUSH3 0x349F DUP5 DUP3 DUP6 ADD PUSH3 0x345F JUMP JUMPDEST SWAP2 POP POP SWAP3 SWAP2 POP POP JUMP JUMPDEST PUSH1 0x0 PUSH3 0x34B5 DUP3 PUSH3 0x2E09 JUMP JUMPDEST SWAP1 POP SWAP2 SWAP1 POP JUMP JUMPDEST PUSH3 0x34C7 DUP2 PUSH3 0x34A8 JUMP JUMPDEST DUP2 EQ PUSH3 0x34D3 JUMPI PUSH1 0x0 DUP1 REVERT JUMPDEST POP JUMP JUMPDEST PUSH1 0x0 DUP2 MLOAD SWAP1 POP PUSH3 0x34E7 DUP2 PUSH3 0x34BC JUMP JUMPDEST SWAP3 SWAP2 POP POP JUMP JUMPDEST PUSH1 0x0 PUSH1 0x20 DUP3 DUP5 SUB SLT ISZERO PUSH3 0x3506 JUMPI PUSH3 0x3505 PUSH3 0x2DDF JUMP JUMPDEST JUMPDEST PUSH1 0x0 PUSH3 0x3516 DUP5 DUP3 DUP6 ADD PUSH3 0x34D6 JUMP JUMPDEST SWAP2 POP POP SWAP3 SWAP2 POP POP JUMP JUMPDEST PUSH32 0x537461727420696E6465782063616E6E6F74206265206E656761746976650000 PUSH1 0x0 DUP3 ADD MSTORE POP JUMP JUMPDEST PUSH1 0x0 PUSH3 0x3557 PUSH1 0x1E DUP4 PUSH3 0x3388 JUMP JUMPDEST SWAP2 POP PUSH3 0x3564 DUP3 PUSH3 0x351F JUMP JUMPDEST PUSH1 0x20 DUP3 ADD SWAP1 POP SWAP2 SWAP1 POP JUMP JUMPDEST PUSH1 0x0 PUSH1 0x20 DUP3 ADD SWAP1 POP DUP2 DUP2 SUB PUSH1 0x0 DUP4 ADD MSTORE PUSH3 0x358A DUP2 PUSH3 0x3548 JUMP JUMPDEST SWAP1 POP SWAP2 SWAP1 POP JUMP JUMPDEST PUSH32 0x456E6420696E6465782065786365656473207573657220616464726573736573 PUSH1 0x0 DUP3 ADD MSTORE PUSH32 0x206C656E67746800000000000000000000000000000000000000000000000000 PUSH1 0x20 DUP3 ADD MSTORE POP JUMP JUMPDEST PUSH1 0x0 PUSH3 0x35EF PUSH1 0x27 DUP4 PUSH3 0x3388 JUMP JUMPDEST SWAP2 POP PUSH3 0x35FC DUP3 PUSH3 0x3591 JUMP JUMPDEST PUSH1 0x40 DUP3 ADD SWAP1 POP SWAP2 SWAP1 POP JUMP JUMPDEST PUSH1 0x0 PUSH1 0x20 DUP3 ADD SWAP1 POP DUP2 DUP2 SUB PUSH1 0x0 DUP4 ADD MSTORE PUSH3 0x3622 DUP2 PUSH3 0x35E0 JUMP JUMPDEST SWAP1 POP SWAP2 SWAP1 POP JUMP JUMPDEST PUSH32 0x4E487B7100000000000000000000000000000000000000000000000000000000 PUSH1 0x0 MSTORE PUSH1 0x11 PUSH1 0x4 MSTORE PUSH1 0x24 PUSH1 0x0 REVERT JUMPDEST PUSH1 0x0 PUSH3 0x3665 DUP3 PUSH3 0x2E80 JUMP JUMPDEST SWAP2 POP PUSH3 0x3672 DUP4 PUSH3 0x2E80 JUMP JUMPDEST SWAP3 POP DUP3 DUP3 LT ISZERO PUSH3 0x3688 JUMPI PUSH3 0x3687 PUSH3 0x3629 JUMP JUMPDEST JUMPDEST DUP3 DUP3 SUB SWAP1 POP SWAP3 SWAP2 POP POP JUMP JUMPDEST PUSH32 0x4E487B7100000000000000000000000000000000000000000000000000000000 PUSH1 0x0 MSTORE PUSH1 0x32 PUSH1 0x4 MSTORE PUSH1 0x24 PUSH1 0x0 REVERT JUMPDEST PUSH1 0x0 PUSH3 0x36CF DUP3 PUSH3 0x2E80 JUMP JUMPDEST SWAP2 POP PUSH32 0xFFFFFFFFFFFFFFFFFFFFFFFFFFFFFFFFFFFFFFFFFFFFFFFFFFFFFFFFFFFFFFFF DUP3 EQ ISZERO PUSH3 0x3705 JUMPI PUSH3 0x3704 PUSH3 0x3629 JUMP JUMPDEST JUMPDEST PUSH1 0x1 DUP3 ADD SWAP1 POP SWAP2 SWAP1 POP JUMP JUMPDEST PUSH1 0x0 DUP2 MLOAD SWAP1 POP SWAP2 SWAP1 POP JUMP JUMPDEST PUSH1 0x0 JUMPDEST DUP4 DUP2 LT ISZERO PUSH3 0x373B JUMPI DUP1 DUP3 ADD MLOAD DUP2 DUP5 ADD MSTORE PUSH1 0x20 DUP2 ADD SWAP1 POP PUSH3 0x371E JUMP JUMPDEST DUP4 DUP2 GT ISZERO PUSH3 0x374B JUMPI PUSH1 0x0 DUP5 DUP5 ADD MSTORE JUMPDEST POP POP POP POP JUMP JUMPDEST PUSH1 0x0 PUSH3 0x375E DUP3 PUSH3 0x3710 JUMP JUMPDEST PUSH3 0x376A DUP2 DUP6 PUSH3 0x3388 JUMP JUMPDEST SWAP4 POP PUSH3 0x377C DUP2 DUP6 PUSH1 0x20 DUP7 ADD PUSH3 0x371B JUMP JUMPDEST PUSH3 0x3787 DUP2 PUSH3 0x308C JUMP JUMPDEST DUP5 ADD SWAP2 POP POP SWAP3 SWAP2 POP POP JUMP JUMPDEST PUSH1 0x0 PUSH1 0x20 DUP3 ADD SWAP1 POP DUP2 DUP2 SUB PUSH1 0x0 DUP4 ADD MSTORE PUSH3 0x37AE DUP2 DUP5 PUSH3 0x3751 JUMP JUMPDEST SWAP1 POP SWAP3 SWAP2 POP POP JUMP JUMPDEST PUSH32 0x4E487B7100000000000000000000000000000000000000000000000000000000 PUSH1 0x0 MSTORE PUSH1 0x21 PUSH1 0x4 MSTORE PUSH1 0x24 PUSH1 0x0 REVERT JUMPDEST PUSH1 0x3 DUP2 LT PUSH3 0x37F3 JUMPI PUSH1 0x0 DUP1 REVERT JUMPDEST POP JUMP JUMPDEST PUSH1 0x0 DUP2 MLOAD SWAP1 POP PUSH3 0x3807 DUP2 PUSH3 0x37E5 JUMP JUMPDEST SWAP3 SWAP2 POP POP JUMP JUMPDEST PUSH1 0x0 PUSH1 0x20 DUP3 DUP5 SUB SLT ISZERO PUSH3 0x3826 JUMPI PUSH3 0x3825 PUSH3 0x2DDF JUMP JUMPDEST JUMPDEST PUSH1 0x0 PUSH3 0x3836 DUP5 DUP3 DUP6 ADD PUSH3 0x37F6 JUMP JUMPDEST SWAP2 POP POP SWAP3 SWAP2 POP POP JUMP JUMPDEST PUSH32 0x436F6E747261637420737461747573206D757374206265206F70656E00000000 PUSH1 0x0 DUP3 ADD MSTORE POP JUMP JUMPDEST PUSH1 0x0 PUSH3 0x3877 PUSH1 0x1C DUP4 PUSH3 0x3388 JUMP JUMPDEST SWAP2 POP PUSH3 0x3884 DUP3 PUSH3 0x383F JUMP JUMPDEST PUSH1 0x20 DUP3 ADD SWAP1 POP SWAP2 SWAP1 POP JUMP JUMPDEST PUSH1 0x0 PUSH1 0x20 DUP3 ADD SWAP1 POP DUP2 DUP2 SUB PUSH1 0x0 DUP4 ADD MSTORE PUSH3 0x38AA DUP2 PUSH3 0x3868 JUMP JUMPDEST SWAP1 POP SWAP2 SWAP1 POP JUMP JUMPDEST PUSH32 0x4F6E6C792063726561746F72206F6620636F6E74726163742063616E20726571 PUSH1 0x0 DUP3 ADD MSTORE PUSH32 0x7565737420636F6D706C6574696F6E0000000000000000000000000000000000 PUSH1 0x20 DUP3 ADD MSTORE POP JUMP JUMPDEST PUSH1 0x0 PUSH3 0x390F PUSH1 0x2F DUP4 PUSH3 0x3388 JUMP JUMPDEST SWAP2 POP PUSH3 0x391C DUP3 PUSH3 0x38B1 JUMP JUMPDEST PUSH1 0x40 DUP3 ADD SWAP1 POP SWAP2 SWAP1 POP JUMP JUMPDEST PUSH1 0x0 PUSH1 0x20 DUP3 ADD SWAP1 POP DUP2 DUP2 SUB PUSH1 0x0 DUP4 ADD MSTORE PUSH3 0x3942 DUP2 PUSH3 0x3900 JUMP JUMPDEST SWAP1 POP SWAP2 SWAP1 POP JUMP JUMPDEST PUSH32 0x43616E6E6F74207265717565737420617070726F76616C207768656E20637265 PUSH1 0x0 DUP3 ADD MSTORE PUSH32 0x61746F7220697320726566657265650000000000000000000000000000000000 PUSH1 0x20 DUP3 ADD MSTORE POP JUMP JUMPDEST PUSH1 0x0 PUSH3 0x39A7 PUSH1 0x2F DUP4 PUSH3 0x3388 JUMP JUMPDEST SWAP2 POP PUSH3 0x39B4 DUP3 PUSH3 0x3949 JUMP JUMPDEST PUSH1 0x40 DUP3 ADD SWAP1 POP SWAP2 SWAP1 POP JUMP JUMPDEST PUSH1 0x0 PUSH1 0x20 DUP3 ADD SWAP1 POP DUP2 DUP2 SUB PUSH1 0x0 DUP4 ADD MSTORE PUSH3 0x39DA DUP2 PUSH3 0x3998 JUMP JUMPDEST SWAP1 POP SWAP2 SWAP1 POP JUMP JUMPDEST PUSH1 0x0 DUP2 SWAP1 POP SWAP2 SWAP1 POP JUMP JUMPDEST PUSH1 0x0 PUSH3 0x3A0C PUSH3 0x3A06 PUSH3 0x3A00 DUP5 PUSH3 0x2DE9 JUMP JUMPDEST PUSH3 0x39E1 JUMP JUMPDEST PUSH3 0x2DE9 JUMP JUMPDEST SWAP1 POP SWAP2 SWAP1 POP JUMP JUMPDEST PUSH1 0x0 PUSH3 0x3A20 DUP3 PUSH3 0x39EB JUMP JUMPDEST SWAP1 POP SWAP2 SWAP1 POP JUMP JUMPDEST PUSH1 0x0 PUSH3 0x3A34 DUP3 PUSH3 0x3A13 JUMP JUMPDEST SWAP1 POP SWAP2 SWAP1 POP JUMP JUMPDEST PUSH3 0x3A46 DUP2 PUSH3 0x3A27 JUMP JUMPDEST DUP3 MSTORE POP POP JUMP JUMPDEST PUSH1 0x0 PUSH1 0xC0 DUP3 ADD SWAP1 POP PUSH3 0x3A63 PUSH1 0x0 DUP4 ADD DUP10 PUSH3 0x3026 JUMP JUMPDEST PUSH3 0x3A72 PUSH1 0x20 DUP4 ADD DUP9 PUSH3 0x3026 JUMP JUMPDEST DUP2 DUP2 SUB PUSH1 0x40 DUP4 ADD MSTORE PUSH3 0x3A86 DUP2 DUP8 PUSH3 0x3751 JUMP JUMPDEST SWAP1 POP DUP2 DUP2 SUB PUSH1 0x60 DUP4 ADD MSTORE PUSH3 0x3A9C DUP2 DUP7 PUSH3 0x3751 JUMP JUMPDEST SWAP1 POP PUSH3 0x3AAD PUSH1 0x80 DUP4 ADD DUP6 PUSH3 0x3A3B JUMP JUMPDEST PUSH3 0x3ABC PUSH1 0xA0 DUP4 ADD DUP5 PUSH3 0x3054 JUMP JUMPDEST SWAP8 SWAP7 POP POP POP POP POP POP POP JUMP JUMPDEST PUSH1 0x0 PUSH3 0x3AD4 DUP3 PUSH3 0x2E80 JUMP JUMPDEST SWAP2 POP PUSH3 0x3AE1 DUP4 PUSH3 0x2E80 JUMP JUMPDEST SWAP3 POP DUP3 PUSH32 0xFFFFFFFFFFFFFFFFFFFFFFFFFFFFFFFFFFFFFFFFFFFFFFFFFFFFFFFFFFFFFFFF SUB DUP3 GT ISZERO PUSH3 0x3B19 JUMPI PUSH3 0x3B18 PUSH3 0x3629 JUMP JUMPDEST JUMPDEST DUP3 DUP3 ADD SWAP1 POP SWAP3 SWAP2 POP POP JUMP JUMPDEST PUSH32 0x4E487B7100000000000000000000000000000000000000000000000000000000 PUSH1 0x0 MSTORE PUSH1 0x31 PUSH1 0x4 MSTORE PUSH1 0x24 PUSH1 0x0 REVERT INVALID PUSH1 0x80 PUSH1 0x40 MSTORE CALLVALUE DUP1 ISZERO PUSH3 0x11 JUMPI PUSH1 0x0 DUP1 REVERT JUMPDEST POP PUSH1 0x40 MLOAD PUSH3 0xD19 CODESIZE SUB DUP1 PUSH3 0xD19 DUP4 CODECOPY DUP2 DUP2 ADD PUSH1 0x40 MSTORE DUP2 ADD SWAP1 PUSH3 0x37 SWAP2 SWAP1 PUSH3 0x280 JUMP JUMPDEST PUSH1 0x0 DUP2 SWAP1 POP DUP1 PUSH20 0xFFFFFFFFFFFFFFFFFFFFFFFFFFFFFFFFFFFFFFFF AND PUSH4 0x2D05D3F PUSH1 0x40 MLOAD DUP2 PUSH4 0xFFFFFFFF AND PUSH1 0xE0 SHL DUP2 MSTORE PUSH1 0x4 ADD PUSH1 0x20 PUSH1 0x40 MLOAD DUP1 DUP4 SUB DUP2 DUP7 GAS STATICCALL ISZERO DUP1 ISZERO PUSH3 0x88 JUMPI RETURNDATASIZE PUSH1 0x0 DUP1 RETURNDATACOPY RETURNDATASIZE PUSH1 0x0 REVERT JUMPDEST POP POP POP POP PUSH1 0x40 MLOAD RETURNDATASIZE PUSH1 0x1F NOT PUSH1 0x1F DUP3 ADD AND DUP3 ADD DUP1 PUSH1 0x40 MSTORE POP DUP2 ADD SWAP1 PUSH3 0xAE SWAP2 SWAP1 PUSH3 0x280 JUMP JUMPDEST PUSH1 0x0 DUP1 PUSH2 0x100 EXP DUP2 SLOAD DUP2 PUSH20 0xFFFFFFFFFFFFFFFFFFFFFFFFFFFFFFFFFFFFFFFF MUL NOT AND SWAP1 DUP4 PUSH20 0xFFFFFFFFFFFFFFFFFFFFFFFFFFFFFFFFFFFFFFFF AND MUL OR SWAP1 SSTORE POP DUP1 PUSH20 0xFFFFFFFFFFFFFFFFFFFFFFFFFFFFFFFFFFFFFFFF AND PUSH4 0x3B1BEBD1 PUSH1 0x40 MLOAD DUP2 PUSH4 0xFFFFFFFF AND PUSH1 0xE0 SHL DUP2 MSTORE PUSH1 0x4 ADD PUSH1 0x20 PUSH1 0x40 MLOAD DUP1 DUP4 SUB DUP2 DUP7 GAS STATICCALL ISZERO DUP1 ISZERO PUSH3 0x139 JUMPI RETURNDATASIZE PUSH1 0x0 DUP1 RETURNDATACOPY RETURNDATASIZE PUSH1 0x0 REVERT JUMPDEST POP POP POP POP PUSH1 0x40 MLOAD RETURNDATASIZE PUSH1 0x1F NOT PUSH1 0x1F DUP3 ADD AND DUP3 ADD DUP1 PUSH1 0x40 MSTORE POP DUP2 ADD SWAP1 PUSH3 0x15F SWAP2 SWAP1 PUSH3 0x280 JUMP JUMPDEST PUSH1 0x1 PUSH1 0x0 PUSH2 0x100 EXP DUP2 SLOAD DUP2 PUSH20 0xFFFFFFFFFFFFFFFFFFFFFFFFFFFFFFFFFFFFFFFF MUL NOT AND SWAP1 DUP4 PUSH20 0xFFFFFFFFFFFFFFFFFFFFFFFFFFFFFFFFFFFFFFFF AND MUL OR SWAP1 SSTORE POP DUP2 PUSH1 0x2 PUSH1 0x0 PUSH2 0x100 EXP DUP2 SLOAD DUP2 PUSH20 0xFFFFFFFFFFFFFFFFFFFFFFFFFFFFFFFFFFFFFFFF MUL NOT AND SWAP1 DUP4 PUSH20 0xFFFFFFFFFFFFFFFFFFFFFFFFFFFFFFFFFFFFFFFF AND MUL OR SWAP1 SSTORE POP PUSH1 0x0 PUSH1 0x2 PUSH1 0x14 PUSH2 0x100 EXP DUP2 SLOAD DUP2 PUSH1 0xFF MUL NOT AND SWAP1 DUP4 PUSH1 0x2 DUP2 GT ISZERO PUSH3 0x209 JUMPI PUSH3 0x208 PUSH3 0x2B2 JUMP JUMPDEST JUMPDEST MUL OR SWAP1 SSTORE POP POP POP PUSH3 0x2E1 JUMP JUMPDEST PUSH1 0x0 DUP1 REVERT JUMPDEST PUSH1 0x0 PUSH20 0xFFFFFFFFFFFFFFFFFFFFFFFFFFFFFFFFFFFFFFFF DUP3 AND SWAP1 POP SWAP2 SWAP1 POP JUMP JUMPDEST PUSH1 0x0 PUSH3 0x248 DUP3 PUSH3 0x21B JUMP JUMPDEST SWAP1 POP SWAP2 SWAP1 POP JUMP JUMPDEST PUSH3 0x25A DUP2 PUSH3 0x23B JUMP JUMPDEST DUP2 EQ PUSH3 0x266 JUMPI PUSH1 0x0 DUP1 REVERT JUMPDEST POP JUMP JUMPDEST PUSH1 0x0 DUP2 MLOAD SWAP1 POP PUSH3 0x27A DUP2 PUSH3 0x24F JUMP JUMPDEST SWAP3 SWAP2 POP POP JUMP JUMPDEST PUSH1 0x0 PUSH1 0x20 DUP3 DUP5 SUB SLT ISZERO PUSH3 0x299 JUMPI PUSH3 0x298 PUSH3 0x216 JUMP JUMPDEST JUMPDEST PUSH1 0x0 PUSH3 0x2A9 DUP5 DUP3 DUP6 ADD PUSH3 0x269 JUMP JUMPDEST SWAP2 POP POP SWAP3 SWAP2 POP POP JUMP JUMPDEST PUSH32 0x4E487B7100000000000000000000000000000000000000000000000000000000 PUSH1 0x0 MSTORE PUSH1 0x21 PUSH1 0x4 MSTORE PUSH1 0x24 PUSH1 0x0 REVERT JUMPDEST PUSH2 0xA28 DUP1 PUSH3 0x2F1 PUSH1 0x0 CODECOPY PUSH1 0x0 RETURN INVALID PUSH1 0x80 PUSH1 0x40 MSTORE CALLVALUE DUP1 ISZERO PUSH2 0x10 JUMPI PUSH1 0x0 DUP1 REVERT JUMPDEST POP PUSH1 0x4 CALLDATASIZE LT PUSH2 0x7D JUMPI PUSH1 0x0 CALLDATALOAD PUSH1 0xE0 SHR DUP1 PUSH4 0x3B1BEBD1 GT PUSH2 0x5B JUMPI DUP1 PUSH4 0x3B1BEBD1 EQ PUSH2 0xDC JUMPI DUP1 PUSH4 0x3C490174 EQ PUSH2 0xFA JUMPI DUP1 PUSH4 0x7A7F01A7 EQ PUSH2 0x118 JUMPI DUP1 PUSH4 0xD69B7CE3 EQ PUSH2 0x136 JUMPI PUSH2 0x7D JUMP JUMPDEST DUP1 PUSH4 0x2D05D3F EQ PUSH2 0x82 JUMPI DUP1 PUSH4 0x200D2ED2 EQ PUSH2 0xA0 JUMPI DUP1 PUSH4 0x263B81C9 EQ PUSH2 0xBE JUMPI JUMPDEST PUSH1 0x0 DUP1 REVERT JUMPDEST PUSH2 0x8A PUSH2 0x166 JUMP JUMPDEST PUSH1 0x40 MLOAD PUSH2 0x97 SWAP2 SWAP1 PUSH2 0x4F9 JUMP JUMPDEST PUSH1 0x40 MLOAD DUP1 SWAP2 SUB SWAP1 RETURN JUMPDEST PUSH2 0xA8 PUSH2 0x18A JUMP JUMPDEST PUSH1 0x40 MLOAD PUSH2 0xB5 SWAP2 SWAP1 PUSH2 0x58B JUMP JUMPDEST PUSH1 0x40 MLOAD DUP1 SWAP2 SUB SWAP1 RETURN JUMPDEST PUSH2 0xC6 PUSH2 0x19D JUMP JUMPDEST PUSH1 0x40 MLOAD PUSH2 0xD3 SWAP2 SWAP1 PUSH2 0x605 JUMP JUMPDEST PUSH1 0x40 MLOAD DUP1 SWAP2 SUB SWAP1 RETURN JUMPDEST PUSH2 0xE4 PUSH2 0x260 JUMP JUMPDEST PUSH1 0x40 MLOAD PUSH2 0xF1 SWAP2 SWAP1 PUSH2 0x4F9 JUMP JUMPDEST PUSH1 0x40 MLOAD DUP1 SWAP2 SUB SWAP1 RETURN JUMPDEST PUSH2 0x102 PUSH2 0x286 JUMP JUMPDEST PUSH1 0x40 MLOAD PUSH2 0x10F SWAP2 SWAP1 PUSH2 0x4F9 JUMP JUMPDEST PUSH1 0x40 MLOAD DUP1 SWAP2 SUB SWAP1 RETURN JUMPDEST PUSH2 0x120 PUSH2 0x2AC JUMP JUMPDEST PUSH1 0x40 MLOAD PUSH2 0x12D SWAP2 SWAP1 PUSH2 0x6B9 JUMP JUMPDEST PUSH1 0x40 MLOAD DUP1 SWAP2 SUB SWAP1 RETURN JUMPDEST PUSH2 0x150 PUSH1 0x4 DUP1 CALLDATASIZE SUB DUP2 ADD SWAP1 PUSH2 0x14B SWAP2 SWAP1 PUSH2 0x824 JUMP JUMPDEST PUSH2 0x33A JUMP JUMPDEST PUSH1 0x40 MLOAD PUSH2 0x15D SWAP2 SWAP1 PUSH2 0x605 JUMP JUMPDEST PUSH1 0x40 MLOAD DUP1 SWAP2 SUB SWAP1 RETURN JUMPDEST PUSH1 0x0 DUP1 SLOAD SWAP1 PUSH2 0x100 EXP SWAP1 DIV PUSH20 0xFFFFFFFFFFFFFFFFFFFFFFFFFFFFFFFFFFFFFFFF AND DUP2 JUMP JUMPDEST PUSH1 0x2 PUSH1 0x14 SWAP1 SLOAD SWAP1 PUSH2 0x100 EXP SWAP1 DIV PUSH1 0xFF AND DUP2 JUMP JUMPDEST PUSH1 0x0 PUSH1 0x1 PUSH1 0x0 SWAP1 SLOAD SWAP1 PUSH2 0x100 EXP SWAP1 DIV PUSH20 0xFFFFFFFFFFFFFFFFFFFFFFFFFFFFFFFFFFFFFFFF AND PUSH20 0xFFFFFFFFFFFFFFFFFFFFFFFFFFFFFFFFFFFFFFFF AND ORIGIN PUSH20 0xFFFFFFFFFFFFFFFFFFFFFFFFFFFFFFFFFFFFFFFF AND EQ PUSH2 0x22F JUMPI PUSH1 0x40 MLOAD PUSH32 0x8C379A000000000000000000000000000000000000000000000000000000000 DUP2 MSTORE PUSH1 0x4 ADD PUSH2 0x226 SWAP1 PUSH2 0x8DF JUMP JUMPDEST PUSH1 0x40 MLOAD DUP1 SWAP2 SUB SWAP1 REVERT JUMPDEST PUSH1 0x1 PUSH1 0x2 PUSH1 0x14 PUSH2 0x100 EXP DUP2 SLOAD DUP2 PUSH1 0xFF MUL NOT AND SWAP1 DUP4 PUSH1 0x2 DUP2 GT ISZERO PUSH2 0x255 JUMPI PUSH2 0x254 PUSH2 0x514 JUMP JUMPDEST JUMPDEST MUL OR SWAP1 SSTORE POP ADDRESS SWAP1 POP SWAP1 JUMP JUMPDEST PUSH1 0x1 PUSH1 0x0 SWAP1 SLOAD SWAP1 PUSH2 0x100 EXP SWAP1 DIV PUSH20 0xFFFFFFFFFFFFFFFFFFFFFFFFFFFFFFFFFFFFFFFF AND DUP2 JUMP JUMPDEST PUSH1 0x2 PUSH1 0x0 SWAP1 SLOAD SWAP1 PUSH2 0x100 EXP SWAP1 DIV PUSH20 0xFFFFFFFFFFFFFFFFFFFFFFFFFFFFFFFFFFFFFFFF AND DUP2 JUMP JUMPDEST PUSH1 0x3 DUP1 SLOAD PUSH2 0x2B9 SWAP1 PUSH2 0x92E JUMP JUMPDEST DUP1 PUSH1 0x1F ADD PUSH1 0x20 DUP1 SWAP2 DIV MUL PUSH1 0x20 ADD PUSH1 0x40 MLOAD SWAP1 DUP2 ADD PUSH1 0x40 MSTORE DUP1 SWAP3 SWAP2 SWAP1 DUP2 DUP2 MSTORE PUSH1 0x20 ADD DUP3 DUP1 SLOAD PUSH2 0x2E5 SWAP1 PUSH2 0x92E JUMP JUMPDEST DUP1 ISZERO PUSH2 0x332 JUMPI DUP1 PUSH1 0x1F LT PUSH2 0x307 JUMPI PUSH2 0x100 DUP1 DUP4 SLOAD DIV MUL DUP4 MSTORE SWAP2 PUSH1 0x20 ADD SWAP2 PUSH2 0x332 JUMP JUMPDEST DUP3 ADD SWAP2 SWAP1 PUSH1 0x0 MSTORE PUSH1 0x20 PUSH1 0x0 KECCAK256 SWAP1 JUMPDEST DUP2 SLOAD DUP2 MSTORE SWAP1 PUSH1 0x1 ADD SWAP1 PUSH1 0x20 ADD DUP1 DUP4 GT PUSH2 0x315 JUMPI DUP3 SWAP1 SUB PUSH1 0x1F AND DUP3 ADD SWAP2 JUMPDEST POP POP POP POP POP DUP2 JUMP JUMPDEST PUSH1 0x0 PUSH1 0x1 PUSH1 0x0 SWAP1 SLOAD SWAP1 PUSH2 0x100 EXP SWAP1 DIV PUSH20 0xFFFFFFFFFFFFFFFFFFFFFFFFFFFFFFFFFFFFFFFF AND PUSH20 0xFFFFFFFFFFFFFFFFFFFFFFFFFFFFFFFFFFFFFFFF AND ORIGIN PUSH20 0xFFFFFFFFFFFFFFFFFFFFFFFFFFFFFFFFFFFFFFFF AND EQ PUSH2 0x3CC JUMPI PUSH1 0x40 MLOAD PUSH32 0x8C379A000000000000000000000000000000000000000000000000000000000 DUP2 MSTORE PUSH1 0x4 ADD PUSH2 0x3C3 SWAP1 PUSH2 0x9D2 JUMP JUMPDEST PUSH1 0x40 MLOAD DUP1 SWAP2 SUB SWAP1 REVERT JUMPDEST PUSH1 0x2 DUP1 PUSH1 0x14 PUSH2 0x100 EXP DUP2 SLOAD DUP2 PUSH1 0xFF MUL NOT AND SWAP1 DUP4 PUSH1 0x2 DUP2 GT ISZERO PUSH2 0x3F1 JUMPI PUSH2 0x3F0 PUSH2 0x514 JUMP JUMPDEST JUMPDEST MUL OR SWAP1 SSTORE POP DUP2 PUSH1 0x3 SWAP1 DUP1 MLOAD SWAP1 PUSH1 0x20 ADD SWAP1 PUSH2 0x40C SWAP3 SWAP2 SWAP1 PUSH2 0x415 JUMP JUMPDEST POP ADDRESS SWAP1 POP SWAP2 SWAP1 POP JUMP JUMPDEST DUP3 DUP1 SLOAD PUSH2 0x421 SWAP1 PUSH2 0x92E JUMP JUMPDEST SWAP1 PUSH1 0x0 MSTORE PUSH1 0x20 PUSH1 0x0 KECCAK256 SWAP1 PUSH1 0x1F ADD PUSH1 0x20 SWAP1 DIV DUP2 ADD SWAP3 DUP3 PUSH2 0x443 JUMPI PUSH1 0x0 DUP6 SSTORE PUSH2 0x48A JUMP JUMPDEST DUP3 PUSH1 0x1F LT PUSH2 0x45C JUMPI DUP1 MLOAD PUSH1 0xFF NOT AND DUP4 DUP1 ADD OR DUP6 SSTORE PUSH2 0x48A JUMP JUMPDEST DUP3 DUP1 ADD PUSH1 0x1 ADD DUP6 SSTORE DUP3 ISZERO PUSH2 0x48A JUMPI SWAP2 DUP3 ADD JUMPDEST DUP3 DUP2 GT ISZERO PUSH2 0x489 JUMPI DUP3 MLOAD DUP3 SSTORE SWAP2 PUSH1 0x20 ADD SWAP2 SWAP1 PUSH1 0x1 ADD SWAP1 PUSH2 0x46E JUMP JUMPDEST JUMPDEST POP SWAP1 POP PUSH2 0x497 SWAP2 SWAP1 PUSH2 0x49B JUMP JUMPDEST POP SWAP1 JUMP JUMPDEST JUMPDEST DUP1 DUP3 GT ISZERO PUSH2 0x4B4 JUMPI PUSH1 0x0 DUP2 PUSH1 0x0 SWAP1 SSTORE POP PUSH1 0x1 ADD PUSH2 0x49C JUMP JUMPDEST POP SWAP1 JUMP JUMPDEST PUSH1 0x0 PUSH20 0xFFFFFFFFFFFFFFFFFFFFFFFFFFFFFFFFFFFFFFFF DUP3 AND SWAP1 POP SWAP2 SWAP1 POP JUMP JUMPDEST PUSH1 0x0 PUSH2 0x4E3 DUP3 PUSH2 0x4B8 JUMP JUMPDEST SWAP1 POP SWAP2 SWAP1 POP JUMP JUMPDEST PUSH2 0x4F3 DUP2 PUSH2 0x4D8 JUMP JUMPDEST DUP3 MSTORE POP POP JUMP JUMPDEST PUSH1 0x0 PUSH1 0x20 DUP3 ADD SWAP1 POP PUSH2 0x50E PUSH1 0x0 DUP4 ADD DUP5 PUSH2 0x4EA JUMP JUMPDEST SWAP3 SWAP2 POP POP JUMP JUMPDEST PUSH32 0x4E487B7100000000000000000000000000000000000000000000000000000000 PUSH1 0x0 MSTORE PUSH1 0x21 PUSH1 0x4 MSTORE PUSH1 0x24 PUSH1 0x0 REVERT JUMPDEST PUSH1 0x3 DUP2 LT PUSH2 0x554 JUMPI PUSH2 0x553 PUSH2 0x514 JUMP JUMPDEST JUMPDEST POP JUMP JUMPDEST PUSH1 0x0 DUP2 SWAP1 POP PUSH2 0x565 DUP3 PUSH2 0x543 JUMP JUMPDEST SWAP2 SWAP1 POP JUMP JUMPDEST PUSH1 0x0 PUSH2 0x575 DUP3 PUSH2 0x557 JUMP JUMPDEST SWAP1 POP SWAP2 SWAP1 POP JUMP JUMPDEST PUSH2 0x585 DUP2 PUSH2 0x56A JUMP JUMPDEST DUP3 MSTORE POP POP JUMP JUMPDEST PUSH1 0x0 PUSH1 0x20 DUP3 ADD SWAP1 POP PUSH2 0x5A0 PUSH1 0x0 DUP4 ADD DUP5 PUSH2 0x57C JUMP JUMPDEST SWAP3 SWAP2 POP POP JUMP JUMPDEST PUSH1 0x0 DUP2 SWAP1 POP SWAP2 SWAP1 POP JUMP JUMPDEST PUSH1 0x0 PUSH2 0x5CB PUSH2 0x5C6 PUSH2 0x5C1 DUP5 PUSH2 0x4B8 JUMP JUMPDEST PUSH2 0x5A6 JUMP JUMPDEST PUSH2 0x4B8 JUMP JUMPDEST SWAP1 POP SWAP2 SWAP1 POP JUMP JUMPDEST PUSH1 0x0 PUSH2 0x5DD DUP3 PUSH2 0x5B0 JUMP JUMPDEST SWAP1 POP SWAP2 SWAP1 POP JUMP JUMPDEST PUSH1 0x0 PUSH2 0x5EF DUP3 PUSH2 0x5D2 JUMP JUMPDEST SWAP1 POP SWAP2 SWAP1 POP JUMP JUMPDEST PUSH2 0x5FF DUP2 PUSH2 0x5E4 JUMP JUMPDEST DUP3 MSTORE POP POP JUMP JUMPDEST PUSH1 0x0 PUSH1 0x20 DUP3 ADD SWAP1 POP PUSH2 0x61A PUSH1 0x0 DUP4 ADD DUP5 PUSH2 0x5F6 JUMP JUMPDEST SWAP3 SWAP2 POP POP JUMP JUMPDEST PUSH1 0x0 DUP2 MLOAD SWAP1 POP SWAP2 SWAP1 POP JUMP JUMPDEST PUSH1 0x0 DUP3 DUP3 MSTORE PUSH1 0x20 DUP3 ADD SWAP1 POP SWAP3 SWAP2 POP POP JUMP JUMPDEST PUSH1 0x0 JUMPDEST DUP4 DUP2 LT ISZERO PUSH2 0x65A JUMPI DUP1 DUP3 ADD MLOAD DUP2 DUP5 ADD MSTORE PUSH1 0x20 DUP2 ADD SWAP1 POP PUSH2 0x63F JUMP JUMPDEST DUP4 DUP2 GT ISZERO PUSH2 0x669 JUMPI PUSH1 0x0 DUP5 DUP5 ADD MSTORE JUMPDEST POP POP POP POP JUMP JUMPDEST PUSH1 0x0 PUSH1 0x1F NOT PUSH1 0x1F DUP4 ADD AND SWAP1 POP SWAP2 SWAP1 POP JUMP JUMPDEST PUSH1 0x0 PUSH2 0x68B DUP3 PUSH2 0x620 JUMP JUMPDEST PUSH2 0x695 DUP2 DUP6 PUSH2 0x62B JUMP JUMPDEST SWAP4 POP PUSH2 0x6A5 DUP2 DUP6 PUSH1 0x20 DUP7 ADD PUSH2 0x63C JUMP JUMPDEST PUSH2 0x6AE DUP2 PUSH2 0x66F JUMP JUMPDEST DUP5 ADD SWAP2 POP POP SWAP3 SWAP2 POP POP JUMP JUMPDEST PUSH1 0x0 PUSH1 0x20 DUP3 ADD SWAP1 POP DUP2 DUP2 SUB PUSH1 0x0 DUP4 ADD MSTORE PUSH2 0x6D3 DUP2 DUP5 PUSH2 0x680 JUMP JUMPDEST SWAP1 POP SWAP3 SWAP2 POP POP JUMP JUMPDEST PUSH1 0x0 PUSH1 0x40 MLOAD SWAP1 POP SWAP1 JUMP JUMPDEST PUSH1 0x0 DUP1 REVERT JUMPDEST PUSH1 0x0 DUP1 REVERT JUMPDEST PUSH1 0x0 DUP1 REVERT JUMPDEST PUSH1 0x0 DUP1 REVERT JUMPDEST PUSH32 0x4E487B7100000000000000000000000000000000000000000000000000000000 PUSH1 0x0 MSTORE PUSH1 0x41 PUSH1 0x4 MSTORE PUSH1 0x24 PUSH1 0x0 REVERT JUMPDEST PUSH2 0x731 DUP3 PUSH2 0x66F JUMP JUMPDEST DUP2 ADD DUP2 DUP2 LT PUSH8 0xFFFFFFFFFFFFFFFF DUP3 GT OR ISZERO PUSH2 0x750 JUMPI PUSH2 0x74F PUSH2 0x6F9 JUMP JUMPDEST JUMPDEST DUP1 PUSH1 0x40 MSTORE POP POP POP JUMP JUMPDEST PUSH1 0x0 PUSH2 0x763 PUSH2 0x6DB JUMP JUMPDEST SWAP1 POP PUSH2 0x76F DUP3 DUP3 PUSH2 0x728 JUMP JUMPDEST SWAP2 SWAP1 POP JUMP JUMPDEST PUSH1 0x0 PUSH8 0xFFFFFFFFFFFFFFFF DUP3 GT ISZERO PUSH2 0x78F JUMPI PUSH2 0x78E PUSH2 0x6F9 JUMP JUMPDEST JUMPDEST PUSH2 0x798 DUP3 PUSH2 0x66F JUMP JUMPDEST SWAP1 POP PUSH1 0x20 DUP2 ADD SWAP1 POP SWAP2 SWAP1 POP JUMP JUMPDEST DUP3 DUP2 DUP4 CALLDATACOPY PUSH1 0x0 DUP4 DUP4 ADD MSTORE POP POP POP JUMP JUMPDEST PUSH1 0x0 PUSH2 0x7C7 PUSH2 0x7C2 DUP5 PUSH2 0x774 JUMP JUMPDEST PUSH2 0x759 JUMP JUMPDEST SWAP1 POP DUP3 DUP2 MSTORE PUSH1 0x20 DUP2 ADD DUP5 DUP5 DUP5 ADD GT ISZERO PUSH2 0x7E3 JUMPI PUSH2 0x7E2 PUSH2 0x6F4 JUMP JUMPDEST JUMPDEST PUSH2 0x7EE DUP5 DUP3 DUP6 PUSH2 0x7A5 JUMP JUMPDEST POP SWAP4 SWAP3 POP POP POP JUMP JUMPDEST PUSH1 0x0 DUP3 PUSH1 0x1F DUP4 ADD SLT PUSH2 0x80B JUMPI PUSH2 0x80A PUSH2 0x6EF JUMP JUMPDEST JUMPDEST DUP2 CALLDATALOAD PUSH2 0x81B DUP5 DUP3 PUSH1 0x20 DUP7 ADD PUSH2 0x7B4 JUMP JUMPDEST SWAP2 POP POP SWAP3 SWAP2 POP POP JUMP JUMPDEST PUSH1 0x0 PUSH1 0x20 DUP3 DUP5 SUB SLT ISZERO PUSH2 0x83A JUMPI PUSH2 0x839 PUSH2 0x6E5 JUMP JUMPDEST JUMPDEST PUSH1 0x0 DUP3 ADD CALLDATALOAD PUSH8 0xFFFFFFFFFFFFFFFF DUP2 GT ISZERO PUSH2 0x858 JUMPI PUSH2 0x857 PUSH2 0x6EA JUMP JUMPDEST JUMPDEST PUSH2 0x864 DUP5 DUP3 DUP6 ADD PUSH2 0x7F6 JUMP JUMPDEST SWAP2 POP POP SWAP3 SWAP2 POP POP JUMP JUMPDEST PUSH32 0x4F6E6C7920726566657265652063616E20617070726F766520617070726F7661 PUSH1 0x0 DUP3 ADD MSTORE PUSH32 0x6C20726571756573740000000000000000000000000000000000000000000000 PUSH1 0x20 DUP3 ADD MSTORE POP JUMP JUMPDEST PUSH1 0x0 PUSH2 0x8C9 PUSH1 0x29 DUP4 PUSH2 0x62B JUMP JUMPDEST SWAP2 POP PUSH2 0x8D4 DUP3 PUSH2 0x86D JUMP JUMPDEST PUSH1 0x40 DUP3 ADD SWAP1 POP SWAP2 SWAP1 POP JUMP JUMPDEST PUSH1 0x0 PUSH1 0x20 DUP3 ADD SWAP1 POP DUP2 DUP2 SUB PUSH1 0x0 DUP4 ADD MSTORE PUSH2 0x8F8 DUP2 PUSH2 0x8BC JUMP JUMPDEST SWAP1 POP SWAP2 SWAP1 POP JUMP JUMPDEST PUSH32 0x4E487B7100000000000000000000000000000000000000000000000000000000 PUSH1 0x0 MSTORE PUSH1 0x22 PUSH1 0x4 MSTORE PUSH1 0x24 PUSH1 0x0 REVERT JUMPDEST PUSH1 0x0 PUSH1 0x2 DUP3 DIV SWAP1 POP PUSH1 0x1 DUP3 AND DUP1 PUSH2 0x946 JUMPI PUSH1 0x7F DUP3 AND SWAP2 POP JUMPDEST PUSH1 0x20 DUP3 LT DUP2 EQ ISZERO PUSH2 0x95A JUMPI PUSH2 0x959 PUSH2 0x8FF JUMP JUMPDEST JUMPDEST POP SWAP2 SWAP1 POP JUMP JUMPDEST PUSH32 0x4F6E6C7920726566657265652063616E20726A65637420617070726F76616C20 PUSH1 0x0 DUP3 ADD MSTORE PUSH32 0x7265717565737400000000000000000000000000000000000000000000000000 PUSH1 0x20 DUP3 ADD MSTORE POP JUMP JUMPDEST PUSH1 0x0 PUSH2 0x9BC PUSH1 0x27 DUP4 PUSH2 0x62B JUMP JUMPDEST SWAP2 POP PUSH2 0x9C7 DUP3 PUSH2 0x960 JUMP JUMPDEST PUSH1 0x40 DUP3 ADD SWAP1 POP SWAP2 SWAP1 POP JUMP JUMPDEST PUSH1 0x0 PUSH1 0x20 DUP3 ADD SWAP1 POP DUP2 DUP2 SUB PUSH1 0x0 DUP4 ADD MSTORE PUSH2 0x9EB DUP2 PUSH2 0x9AF JUMP JUMPDEST SWAP1 POP SWAP2 SWAP1 POP JUMP INVALID LOG2 PUSH5 0x6970667358 0x22 SLT KECCAK256 0xFB CALLDATACOPY 0xBB 0xBE DUP10 LOG0 OR EXTCODESIZE PUSH24 0x20C584DFA6057948CD12588579ECD494F0207AC81DDB664 PUSH20 0x6F6C634300080C00336080604052604051620011 SWAP13 CODESIZE SUB DUP1 PUSH3 0x119C DUP4 CODECOPY DUP2 DUP2 ADD PUSH1 0x40 MSTORE DUP2 ADD SWAP1 PUSH3 0x29 SWAP2 SWAP1 PUSH3 0x44B JUMP JUMPDEST DUP6 PUSH1 0x0 DUP1 PUSH2 0x100 EXP DUP2 SLOAD DUP2 PUSH20 0xFFFFFFFFFFFFFFFFFFFFFFFFFFFFFFFFFFFFFFFF MUL NOT AND SWAP1 DUP4 PUSH20 0xFFFFFFFFFFFFFFFFFFFFFFFFFFFFFFFFFFFFFFFF AND MUL OR SWAP1 SSTORE POP DUP5 PUSH1 0x1 PUSH1 0x0 PUSH2 0x100 EXP DUP2 SLOAD DUP2 PUSH20 0xFFFFFFFFFFFFFFFFFFFFFFFFFFFFFFFFFFFFFFFF MUL NOT AND SWAP1 DUP4 PUSH20 0xFFFFFFFFFFFFFFFFFFFFFFFFFFFFFFFFFFFFFFFF AND MUL OR SWAP1 SSTORE POP DUP4 PUSH1 0x2 SWAP1 DUP1 MLOAD SWAP1 PUSH1 0x20 ADD SWAP1 PUSH3 0xC2 SWAP3 SWAP2 SWAP1 PUSH3 0x15E JUMP JUMPDEST POP DUP3 PUSH1 0x3 SWAP1 DUP1 MLOAD SWAP1 PUSH1 0x20 ADD SWAP1 PUSH3 0xDB SWAP3 SWAP2 SWAP1 PUSH3 0x15E JUMP JUMPDEST POP DUP2 PUSH1 0x4 PUSH1 0x0 PUSH2 0x100 EXP DUP2 SLOAD DUP2 PUSH20 0xFFFFFFFFFFFFFFFFFFFFFFFFFFFFFFFFFFFFFFFF MUL NOT AND SWAP1 DUP4 PUSH20 0xFFFFFFFFFFFFFFFFFFFFFFFFFFFFFFFFFFFFFFFF AND MUL OR SWAP1 SSTORE POP DUP1 PUSH1 0x5 DUP2 SWAP1 SSTORE POP PUSH1 0x0 PUSH1 0x6 PUSH1 0x0 PUSH2 0x100 EXP DUP2 SLOAD DUP2 PUSH1 0xFF MUL NOT AND SWAP1 DUP4 PUSH1 0x2 DUP2 GT ISZERO PUSH3 0x14D JUMPI PUSH3 0x14C PUSH3 0x525 JUMP JUMPDEST JUMPDEST MUL OR SWAP1 SSTORE POP POP POP POP POP POP POP PUSH3 0x5B9 JUMP JUMPDEST DUP3 DUP1 SLOAD PUSH3 0x16C SWAP1 PUSH3 0x583 JUMP JUMPDEST SWAP1 PUSH1 0x0 MSTORE PUSH1 0x20 PUSH1 0x0 KECCAK256 SWAP1 PUSH1 0x1F ADD PUSH1 0x20 SWAP1 DIV DUP2 ADD SWAP3 DUP3 PUSH3 0x190 JUMPI PUSH1 0x0 DUP6 SSTORE PUSH3 0x1DC JUMP JUMPDEST DUP3 PUSH1 0x1F LT PUSH3 0x1AB JUMPI DUP1 MLOAD PUSH1 0xFF NOT AND DUP4 DUP1 ADD OR DUP6 SSTORE PUSH3 0x1DC JUMP JUMPDEST DUP3 DUP1 ADD PUSH1 0x1 ADD DUP6 SSTORE DUP3 ISZERO PUSH3 0x1DC JUMPI SWAP2 DUP3 ADD JUMPDEST DUP3 DUP2 GT ISZERO PUSH3 0x1DB JUMPI DUP3 MLOAD DUP3 SSTORE SWAP2 PUSH1 0x20 ADD SWAP2 SWAP1 PUSH1 0x1 ADD SWAP1 PUSH3 0x1BE JUMP JUMPDEST JUMPDEST POP SWAP1 POP PUSH3 0x1EB SWAP2 SWAP1 PUSH3 0x1EF JUMP JUMPDEST POP SWAP1 JUMP JUMPDEST JUMPDEST DUP1 DUP3 GT ISZERO PUSH3 0x20A JUMPI PUSH1 0x0 DUP2 PUSH1 0x0 SWAP1 SSTORE POP PUSH1 0x1 ADD PUSH3 0x1F0 JUMP JUMPDEST POP SWAP1 JUMP JUMPDEST PUSH1 0x0 PUSH1 0x40 MLOAD SWAP1 POP SWAP1 JUMP JUMPDEST PUSH1 0x0 DUP1 REVERT JUMPDEST PUSH1 0x0 DUP1 REVERT JUMPDEST PUSH1 0x0 PUSH20 0xFFFFFFFFFFFFFFFFFFFFFFFFFFFFFFFFFFFFFFFF DUP3 AND SWAP1 POP SWAP2 SWAP1 POP JUMP JUMPDEST PUSH1 0x0 PUSH3 0x24F DUP3 PUSH3 0x222 JUMP JUMPDEST SWAP1 POP SWAP2 SWAP1 POP JUMP JUMPDEST PUSH3 0x261 DUP2 PUSH3 0x242 JUMP JUMPDEST DUP2 EQ PUSH3 0x26D JUMPI PUSH1 0x0 DUP1 REVERT JUMPDEST POP JUMP JUMPDEST PUSH1 0x0 DUP2 MLOAD SWAP1 POP PUSH3 0x281 DUP2 PUSH3 0x256 JUMP JUMPDEST SWAP3 SWAP2 POP POP JUMP JUMPDEST PUSH1 0x0 DUP1 REVERT JUMPDEST PUSH1 0x0 DUP1 REVERT JUMPDEST PUSH1 0x0 PUSH1 0x1F NOT PUSH1 0x1F DUP4 ADD AND SWAP1 POP SWAP2 SWAP1 POP JUMP JUMPDEST PUSH32 0x4E487B7100000000000000000000000000000000000000000000000000000000 PUSH1 0x0 MSTORE PUSH1 0x41 PUSH1 0x4 MSTORE PUSH1 0x24 PUSH1 0x0 REVERT JUMPDEST PUSH3 0x2DC DUP3 PUSH3 0x291 JUMP JUMPDEST DUP2 ADD DUP2 DUP2 LT PUSH8 0xFFFFFFFFFFFFFFFF DUP3 GT OR ISZERO PUSH3 0x2FE JUMPI PUSH3 0x2FD PUSH3 0x2A2 JUMP JUMPDEST JUMPDEST DUP1 PUSH1 0x40 MSTORE POP POP POP JUMP JUMPDEST PUSH1 0x0 PUSH3 0x313 PUSH3 0x20E JUMP JUMPDEST SWAP1 POP PUSH3 0x321 DUP3 DUP3 PUSH3 0x2D1 JUMP JUMPDEST SWAP2 SWAP1 POP JUMP JUMPDEST PUSH1 0x0 PUSH8 0xFFFFFFFFFFFFFFFF DUP3 GT ISZERO PUSH3 0x344 JUMPI PUSH3 0x343 PUSH3 0x2A2 JUMP JUMPDEST JUMPDEST PUSH3 0x34F DUP3 PUSH3 0x291 JUMP JUMPDEST SWAP1 POP PUSH1 0x20 DUP2 ADD SWAP1 POP SWAP2 SWAP1 POP JUMP JUMPDEST PUSH1 0x0 JUMPDEST DUP4 DUP2 LT ISZERO PUSH3 0x37C JUMPI DUP1 DUP3 ADD MLOAD DUP2 DUP5 ADD MSTORE PUSH1 0x20 DUP2 ADD SWAP1 POP PUSH3 0x35F JUMP JUMPDEST DUP4 DUP2 GT ISZERO PUSH3 0x38C JUMPI PUSH1 0x0 DUP5 DUP5 ADD MSTORE JUMPDEST POP POP POP POP JUMP JUMPDEST PUSH1 0x0 PUSH3 0x3A9 PUSH3 0x3A3 DUP5 PUSH3 0x326 JUMP JUMPDEST PUSH3 0x307 JUMP JUMPDEST SWAP1 POP DUP3 DUP2 MSTORE PUSH1 0x20 DUP2 ADD DUP5 DUP5 DUP5 ADD GT ISZERO PUSH3 0x3C8 JUMPI PUSH3 0x3C7 PUSH3 0x28C JUMP JUMPDEST JUMPDEST PUSH3 0x3D5 DUP5 DUP3 DUP6 PUSH3 0x35C JUMP JUMPDEST POP SWAP4 SWAP3 POP POP POP JUMP JUMPDEST PUSH1 0x0 DUP3 PUSH1 0x1F DUP4 ADD SLT PUSH3 0x3F5 JUMPI PUSH3 0x3F4 PUSH3 0x287 JUMP JUMPDEST JUMPDEST DUP2 MLOAD PUSH3 0x407 DUP5 DUP3 PUSH1 0x20 DUP7 ADD PUSH3 0x392 JUMP JUMPDEST SWAP2 POP POP SWAP3 SWAP2 POP POP JUMP JUMPDEST PUSH1 0x0 DUP2 SWAP1 POP SWAP2 SWAP1 POP JUMP JUMPDEST PUSH3 0x425 DUP2 PUSH3 0x410 JUMP JUMPDEST DUP2 EQ PUSH3 0x431 JUMPI PUSH1 0x0 DUP1 REVERT JUMPDEST POP JUMP JUMPDEST PUSH1 0x0 DUP2 MLOAD SWAP1 POP PUSH3 0x445 DUP2 PUSH3 0x41A JUMP JUMPDEST SWAP3 SWAP2 POP POP JUMP JUMPDEST PUSH1 0x0 DUP1 PUSH1 0x0 DUP1 PUSH1 0x0 DUP1 PUSH1 0xC0 DUP8 DUP10 SUB SLT ISZERO PUSH3 0x46B JUMPI PUSH3 0x46A PUSH3 0x218 JUMP JUMPDEST JUMPDEST PUSH1 0x0 PUSH3 0x47B DUP10 DUP3 DUP11 ADD PUSH3 0x270 JUMP JUMPDEST SWAP7 POP POP PUSH1 0x20 PUSH3 0x48E DUP10 DUP3 DUP11 ADD PUSH3 0x270 JUMP JUMPDEST SWAP6 POP POP PUSH1 0x40 DUP8 ADD MLOAD PUSH8 0xFFFFFFFFFFFFFFFF DUP2 GT ISZERO PUSH3 0x4B2 JUMPI PUSH3 0x4B1 PUSH3 0x21D JUMP JUMPDEST JUMPDEST PUSH3 0x4C0 DUP10 DUP3 DUP11 ADD PUSH3 0x3DD JUMP JUMPDEST SWAP5 POP POP PUSH1 0x60 DUP8 ADD MLOAD PUSH8 0xFFFFFFFFFFFFFFFF DUP2 GT ISZERO PUSH3 0x4E4 JUMPI PUSH3 0x4E3 PUSH3 0x21D JUMP JUMPDEST JUMPDEST PUSH3 0x4F2 DUP10 DUP3 DUP11 ADD PUSH3 0x3DD JUMP JUMPDEST SWAP4 POP POP PUSH1 0x80 PUSH3 0x505 DUP10 DUP3 DUP11 ADD PUSH3 0x270 JUMP JUMPDEST SWAP3 POP POP PUSH1 0xA0 PUSH3 0x518 DUP10 DUP3 DUP11 ADD PUSH3 0x434 JUMP JUMPDEST SWAP2 POP POP SWAP3 SWAP6 POP SWAP3 SWAP6 POP SWAP3 SWAP6 JUMP JUMPDEST PUSH32 0x4E487B7100000000000000000000000000000000000000000000000000000000 PUSH1 0x0 MSTORE PUSH1 0x21 PUSH1 0x4 MSTORE PUSH1 0x24 PUSH1 0x0 REVERT JUMPDEST PUSH32 0x4E487B7100000000000000000000000000000000000000000000000000000000 PUSH1 0x0 MSTORE PUSH1 0x22 PUSH1 0x4 MSTORE PUSH1 0x24 PUSH1 0x0 REVERT JUMPDEST PUSH1 0x0 PUSH1 0x2 DUP3 DIV SWAP1 POP PUSH1 0x1 DUP3 AND DUP1 PUSH3 0x59C JUMPI PUSH1 0x7F DUP3 AND SWAP2 POP JUMPDEST PUSH1 0x20 DUP3 LT DUP2 EQ ISZERO PUSH3 0x5B3 JUMPI PUSH3 0x5B2 PUSH3 0x554 JUMP JUMPDEST JUMPDEST POP SWAP2 SWAP1 POP JUMP JUMPDEST PUSH2 0xBD3 DUP1 PUSH3 0x5C9 PUSH1 0x0 CODECOPY PUSH1 0x0 RETURN INVALID PUSH1 0x80 PUSH1 0x40 MSTORE PUSH1 0x4 CALLDATASIZE LT PUSH2 0x86 JUMPI PUSH1 0x0 CALLDATALOAD PUSH1 0xE0 SHR DUP1 PUSH4 0x3B1BEBD1 GT PUSH2 0x59 JUMPI DUP1 PUSH4 0x3B1BEBD1 EQ PUSH2 0x12A JUMPI DUP1 PUSH4 0x4177FE51 EQ PUSH2 0x155 JUMPI DUP1 PUSH4 0x7284E416 EQ PUSH2 0x180 JUMPI DUP1 PUSH4 0xAA8C217C EQ PUSH2 0x1AB JUMPI DUP1 PUSH4 0xB4FEDC11 EQ PUSH2 0x1D6 JUMPI PUSH2 0x86 JUMP JUMPDEST DUP1 PUSH4 0x2D05D3F EQ PUSH2 0x8B JUMPI DUP1 PUSH4 0x6FDDE03 EQ PUSH2 0xB6 JUMPI DUP1 PUSH4 0x200D2ED2 EQ PUSH2 0xE1 JUMPI DUP1 PUSH4 0x2D398FA6 EQ PUSH2 0x10C JUMPI JUMPDEST PUSH1 0x0 DUP1 REVERT JUMPDEST CALLVALUE DUP1 ISZERO PUSH2 0x97 JUMPI PUSH1 0x0 DUP1 REVERT JUMPDEST POP PUSH2 0xA0 PUSH2 0x1F4 JUMP JUMPDEST PUSH1 0x40 MLOAD PUSH2 0xAD SWAP2 SWAP1 PUSH2 0x770 JUMP JUMPDEST PUSH1 0x40 MLOAD DUP1 SWAP2 SUB SWAP1 RETURN JUMPDEST CALLVALUE DUP1 ISZERO PUSH2 0xC2 JUMPI PUSH1 0x0 DUP1 REVERT JUMPDEST POP PUSH2 0xCB PUSH2 0x218 JUMP JUMPDEST PUSH1 0x40 MLOAD PUSH2 0xD8 SWAP2 SWAP1 PUSH2 0x824 JUMP JUMPDEST PUSH1 0x40 MLOAD DUP1 SWAP2 SUB SWAP1 RETURN JUMPDEST CALLVALUE DUP1 ISZERO PUSH2 0xED JUMPI PUSH1 0x0 DUP1 REVERT JUMPDEST POP PUSH2 0xF6 PUSH2 0x2A6 JUMP JUMPDEST PUSH1 0x40 MLOAD PUSH2 0x103 SWAP2 SWAP1 PUSH2 0x8BD JUMP JUMPDEST PUSH1 0x40 MLOAD DUP1 SWAP2 SUB SWAP1 RETURN JUMPDEST PUSH2 0x114 PUSH2 0x2B9 JUMP JUMPDEST PUSH1 0x40 MLOAD PUSH2 0x121 SWAP2 SWAP1 PUSH2 0x937 JUMP JUMPDEST PUSH1 0x40 MLOAD DUP1 SWAP2 SUB SWAP1 RETURN JUMPDEST CALLVALUE DUP1 ISZERO PUSH2 0x136 JUMPI PUSH1 0x0 DUP1 REVERT JUMPDEST POP PUSH2 0x13F PUSH2 0x4B0 JUMP JUMPDEST PUSH1 0x40 MLOAD PUSH2 0x14C SWAP2 SWAP1 PUSH2 0x770 JUMP JUMPDEST PUSH1 0x40 MLOAD DUP1 SWAP2 SUB SWAP1 RETURN JUMPDEST CALLVALUE DUP1 ISZERO PUSH2 0x161 JUMPI PUSH1 0x0 DUP1 REVERT JUMPDEST POP PUSH2 0x16A PUSH2 0x4D6 JUMP JUMPDEST PUSH1 0x40 MLOAD PUSH2 0x177 SWAP2 SWAP1 PUSH2 0x770 JUMP JUMPDEST PUSH1 0x40 MLOAD DUP1 SWAP2 SUB SWAP1 RETURN JUMPDEST CALLVALUE DUP1 ISZERO PUSH2 0x18C JUMPI PUSH1 0x0 DUP1 REVERT JUMPDEST POP PUSH2 0x195 PUSH2 0x4FC JUMP JUMPDEST PUSH1 0x40 MLOAD PUSH2 0x1A2 SWAP2 SWAP1 PUSH2 0x824 JUMP JUMPDEST PUSH1 0x40 MLOAD DUP1 SWAP2 SUB SWAP1 RETURN JUMPDEST CALLVALUE DUP1 ISZERO PUSH2 0x1B7 JUMPI PUSH1 0x0 DUP1 REVERT JUMPDEST POP PUSH2 0x1C0 PUSH2 0x58A JUMP JUMPDEST PUSH1 0x40 MLOAD PUSH2 0x1CD SWAP2 SWAP1 PUSH2 0x96B JUMP JUMPDEST PUSH1 0x40 MLOAD DUP1 SWAP2 SUB SWAP1 RETURN JUMPDEST PUSH2 0x1DE PUSH2 0x590 JUMP JUMPDEST PUSH1 0x40 MLOAD PUSH2 0x1EB SWAP2 SWAP1 PUSH2 0x937 JUMP JUMPDEST PUSH1 0x40 MLOAD DUP1 SWAP2 SUB SWAP1 RETURN JUMPDEST PUSH1 0x0 DUP1 SLOAD SWAP1 PUSH2 0x100 EXP SWAP1 DIV PUSH20 0xFFFFFFFFFFFFFFFFFFFFFFFFFFFFFFFFFFFFFFFF AND DUP2 JUMP JUMPDEST PUSH1 0x2 DUP1 SLOAD PUSH2 0x225 SWAP1 PUSH2 0x9B5 JUMP JUMPDEST DUP1 PUSH1 0x1F ADD PUSH1 0x20 DUP1 SWAP2 DIV MUL PUSH1 0x20 ADD PUSH1 0x40 MLOAD SWAP1 DUP2 ADD PUSH1 0x40 MSTORE DUP1 SWAP3 SWAP2 SWAP1 DUP2 DUP2 MSTORE PUSH1 0x20 ADD DUP3 DUP1 SLOAD PUSH2 0x251 SWAP1 PUSH2 0x9B5 JUMP JUMPDEST DUP1 ISZERO PUSH2 0x29E JUMPI DUP1 PUSH1 0x1F LT PUSH2 0x273 JUMPI PUSH2 0x100 DUP1 DUP4 SLOAD DIV MUL DUP4 MSTORE SWAP2 PUSH1 0x20 ADD SWAP2 PUSH2 0x29E JUMP JUMPDEST DUP3 ADD SWAP2 SWAP1 PUSH1 0x0 MSTORE PUSH1 0x20 PUSH1 0x0 KECCAK256 SWAP1 JUMPDEST DUP2 SLOAD DUP2 MSTORE SWAP1 PUSH1 0x1 ADD SWAP1 PUSH1 0x20 ADD DUP1 DUP4 GT PUSH2 0x281 JUMPI DUP3 SWAP1 SUB PUSH1 0x1F AND DUP3 ADD SWAP2 JUMPDEST POP POP POP POP POP DUP2 JUMP JUMPDEST PUSH1 0x6 PUSH1 0x0 SWAP1 SLOAD SWAP1 PUSH2 0x100 EXP SWAP1 DIV PUSH1 0xFF AND DUP2 JUMP JUMPDEST PUSH1 0x0 DUP1 PUSH1 0x2 DUP2 GT ISZERO PUSH2 0x2CE JUMPI PUSH2 0x2CD PUSH2 0x846 JUMP JUMPDEST JUMPDEST PUSH1 0x6 PUSH1 0x0 SWAP1 SLOAD SWAP1 PUSH2 0x100 EXP SWAP1 DIV PUSH1 0xFF AND PUSH1 0x2 DUP2 GT ISZERO PUSH2 0x2F0 JUMPI PUSH2 0x2EF PUSH2 0x846 JUMP JUMPDEST JUMPDEST EQ PUSH2 0x330 JUMPI PUSH1 0x40 MLOAD PUSH32 0x8C379A000000000000000000000000000000000000000000000000000000000 DUP2 MSTORE PUSH1 0x4 ADD PUSH2 0x327 SWAP1 PUSH2 0xA59 JUMP JUMPDEST PUSH1 0x40 MLOAD DUP1 SWAP2 SUB SWAP1 REVERT JUMPDEST PUSH1 0x1 PUSH1 0x0 SWAP1 SLOAD SWAP1 PUSH2 0x100 EXP SWAP1 DIV PUSH20 0xFFFFFFFFFFFFFFFFFFFFFFFFFFFFFFFFFFFFFFFF AND PUSH20 0xFFFFFFFFFFFFFFFFFFFFFFFFFFFFFFFFFFFFFFFF AND ORIGIN PUSH20 0xFFFFFFFFFFFFFFFFFFFFFFFFFFFFFFFFFFFFFFFF AND EQ DUP1 PUSH2 0x3D7 JUMPI POP PUSH1 0x0 DUP1 SLOAD SWAP1 PUSH2 0x100 EXP SWAP1 DIV PUSH20 0xFFFFFFFFFFFFFFFFFFFFFFFFFFFFFFFFFFFFFFFF AND PUSH20 0xFFFFFFFFFFFFFFFFFFFFFFFFFFFFFFFFFFFFFFFF AND ORIGIN PUSH20 0xFFFFFFFFFFFFFFFFFFFFFFFFFFFFFFFFFFFFFFFF AND EQ JUMPDEST PUSH2 0x416 JUMPI PUSH1 0x40 MLOAD PUSH32 0x8C379A000000000000000000000000000000000000000000000000000000000 DUP2 MSTORE PUSH1 0x4 ADD PUSH2 0x40D SWAP1 PUSH2 0xAEB JUMP JUMPDEST PUSH1 0x40 MLOAD DUP1 SWAP2 SUB SWAP1 REVERT JUMPDEST PUSH1 0x4 PUSH1 0x0 SWAP1 SLOAD SWAP1 PUSH2 0x100 EXP SWAP1 DIV PUSH20 0xFFFFFFFFFFFFFFFFFFFFFFFFFFFFFFFFFFFFFFFF AND PUSH20 0xFFFFFFFFFFFFFFFFFFFFFFFFFFFFFFFFFFFFFFFF AND PUSH2 0x8FC SELFBALANCE SWAP1 DUP2 ISZERO MUL SWAP1 PUSH1 0x40 MLOAD PUSH1 0x0 PUSH1 0x40 MLOAD DUP1 DUP4 SUB DUP2 DUP6 DUP9 DUP9 CALL SWAP4 POP POP POP POP ISZERO DUP1 ISZERO PUSH2 0x47E JUMPI RETURNDATASIZE PUSH1 0x0 DUP1 RETURNDATACOPY RETURNDATASIZE PUSH1 0x0 REVERT JUMPDEST POP PUSH1 0x2 PUSH1 0x6 PUSH1 0x0 PUSH2 0x100 EXP DUP2 SLOAD DUP2 PUSH1 0xFF MUL NOT AND SWAP1 DUP4 PUSH1 0x2 DUP2 GT ISZERO PUSH2 0x4A5 JUMPI PUSH2 0x4A4 PUSH2 0x846 JUMP JUMPDEST JUMPDEST MUL OR SWAP1 SSTORE POP ADDRESS SWAP1 POP SWAP1 JUMP JUMPDEST PUSH1 0x1 PUSH1 0x0 SWAP1 SLOAD SWAP1 PUSH2 0x100 EXP SWAP1 DIV PUSH20 0xFFFFFFFFFFFFFFFFFFFFFFFFFFFFFFFFFFFFFFFF AND DUP2 JUMP JUMPDEST PUSH1 0x4 PUSH1 0x0 SWAP1 SLOAD SWAP1 PUSH2 0x100 EXP SWAP1 DIV PUSH20 0xFFFFFFFFFFFFFFFFFFFFFFFFFFFFFFFFFFFFFFFF AND DUP2 JUMP JUMPDEST PUSH1 0x3 DUP1 SLOAD PUSH2 0x509 SWAP1 PUSH2 0x9B5 JUMP JUMPDEST DUP1 PUSH1 0x1F ADD PUSH1 0x20 DUP1 SWAP2 DIV MUL PUSH1 0x20 ADD PUSH1 0x40 MLOAD SWAP1 DUP2 ADD PUSH1 0x40 MSTORE DUP1 SWAP3 SWAP2 SWAP1 DUP2 DUP2 MSTORE PUSH1 0x20 ADD DUP3 DUP1 SLOAD PUSH2 0x535 SWAP1 PUSH2 0x9B5 JUMP JUMPDEST DUP1 ISZERO PUSH2 0x582 JUMPI DUP1 PUSH1 0x1F LT PUSH2 0x557 JUMPI PUSH2 0x100 DUP1 DUP4 SLOAD DIV MUL DUP4 MSTORE SWAP2 PUSH1 0x20 ADD SWAP2 PUSH2 0x582 JUMP JUMPDEST DUP3 ADD SWAP2 SWAP1 PUSH1 0x0 MSTORE PUSH1 0x20 PUSH1 0x0 KECCAK256 SWAP1 JUMPDEST DUP2 SLOAD DUP2 MSTORE SWAP1 PUSH1 0x1 ADD SWAP1 PUSH1 0x20 ADD DUP1 DUP4 GT PUSH2 0x565 JUMPI DUP3 SWAP1 SUB PUSH1 0x1F AND DUP3 ADD SWAP2 JUMPDEST POP POP POP POP POP DUP2 JUMP JUMPDEST PUSH1 0x5 SLOAD DUP2 JUMP JUMPDEST PUSH1 0x0 DUP1 PUSH1 0x2 DUP2 GT ISZERO PUSH2 0x5A5 JUMPI PUSH2 0x5A4 PUSH2 0x846 JUMP JUMPDEST JUMPDEST PUSH1 0x6 PUSH1 0x0 SWAP1 SLOAD SWAP1 PUSH2 0x100 EXP SWAP1 DIV PUSH1 0xFF AND PUSH1 0x2 DUP2 GT ISZERO PUSH2 0x5C7 JUMPI PUSH2 0x5C6 PUSH2 0x846 JUMP JUMPDEST JUMPDEST EQ PUSH2 0x607 JUMPI PUSH1 0x40 MLOAD PUSH32 0x8C379A000000000000000000000000000000000000000000000000000000000 DUP2 MSTORE PUSH1 0x4 ADD PUSH2 0x5FE SWAP1 PUSH2 0xA59 JUMP JUMPDEST PUSH1 0x40 MLOAD DUP1 SWAP2 SUB SWAP1 REVERT JUMPDEST PUSH1 0x1 PUSH1 0x0 SWAP1 SLOAD SWAP1 PUSH2 0x100 EXP SWAP1 DIV PUSH20 0xFFFFFFFFFFFFFFFFFFFFFFFFFFFFFFFFFFFFFFFF AND PUSH20 0xFFFFFFFFFFFFFFFFFFFFFFFFFFFFFFFFFFFFFFFF AND ORIGIN PUSH20 0xFFFFFFFFFFFFFFFFFFFFFFFFFFFFFFFFFFFFFFFF AND EQ PUSH2 0x697 JUMPI PUSH1 0x40 MLOAD PUSH32 0x8C379A000000000000000000000000000000000000000000000000000000000 DUP2 MSTORE PUSH1 0x4 ADD PUSH2 0x68E SWAP1 PUSH2 0xB7D JUMP JUMPDEST PUSH1 0x40 MLOAD DUP1 SWAP2 SUB SWAP1 REVERT JUMPDEST PUSH1 0x0 DUP1 SLOAD SWAP1 PUSH2 0x100 EXP SWAP1 DIV PUSH20 0xFFFFFFFFFFFFFFFFFFFFFFFFFFFFFFFFFFFFFFFF AND PUSH20 0xFFFFFFFFFFFFFFFFFFFFFFFFFFFFFFFFFFFFFFFF AND PUSH2 0x8FC SELFBALANCE SWAP1 DUP2 ISZERO MUL SWAP1 PUSH1 0x40 MLOAD PUSH1 0x0 PUSH1 0x40 MLOAD DUP1 DUP4 SUB DUP2 DUP6 DUP9 DUP9 CALL SWAP4 POP POP POP POP ISZERO DUP1 ISZERO PUSH2 0x6FD JUMPI RETURNDATASIZE PUSH1 0x0 DUP1 RETURNDATACOPY RETURNDATASIZE PUSH1 0x0 REVERT JUMPDEST POP PUSH1 0x1 PUSH1 0x6 PUSH1 0x0 PUSH2 0x100 EXP DUP2 SLOAD DUP2 PUSH1 0xFF MUL NOT AND SWAP1 DUP4 PUSH1 0x2 DUP2 GT ISZERO PUSH2 0x724 JUMPI PUSH2 0x723 PUSH2 0x846 JUMP JUMPDEST JUMPDEST MUL OR SWAP1 SSTORE POP ADDRESS SWAP1 POP SWAP1 JUMP JUMPDEST PUSH1 0x0 PUSH20 0xFFFFFFFFFFFFFFFFFFFFFFFFFFFFFFFFFFFFFFFF DUP3 AND SWAP1 POP SWAP2 SWAP1 POP JUMP JUMPDEST PUSH1 0x0 PUSH2 0x75A DUP3 PUSH2 0x72F JUMP JUMPDEST SWAP1 POP SWAP2 SWAP1 POP JUMP JUMPDEST PUSH2 0x76A DUP2 PUSH2 0x74F JUMP JUMPDEST DUP3 MSTORE POP POP JUMP JUMPDEST PUSH1 0x0 PUSH1 0x20 DUP3 ADD SWAP1 POP PUSH2 0x785 PUSH1 0x0 DUP4 ADD DUP5 PUSH2 0x761 JUMP JUMPDEST SWAP3 SWAP2 POP POP JUMP JUMPDEST PUSH1 0x0 DUP2 MLOAD SWAP1 POP SWAP2 SWAP1 POP JUMP JUMPDEST PUSH1 0x0 DUP3 DUP3 MSTORE PUSH1 0x20 DUP3 ADD SWAP1 POP SWAP3 SWAP2 POP POP JUMP JUMPDEST PUSH1 0x0 JUMPDEST DUP4 DUP2 LT ISZERO PUSH2 0x7C5 JUMPI DUP1 DUP3 ADD MLOAD DUP2 DUP5 ADD MSTORE PUSH1 0x20 DUP2 ADD SWAP1 POP PUSH2 0x7AA JUMP JUMPDEST DUP4 DUP2 GT ISZERO PUSH2 0x7D4 JUMPI PUSH1 0x0 DUP5 DUP5 ADD MSTORE JUMPDEST POP POP POP POP JUMP JUMPDEST PUSH1 0x0 PUSH1 0x1F NOT PUSH1 0x1F DUP4 ADD AND SWAP1 POP SWAP2 SWAP1 POP JUMP JUMPDEST PUSH1 0x0 PUSH2 0x7F6 DUP3 PUSH2 0x78B JUMP JUMPDEST PUSH2 0x800 DUP2 DUP6 PUSH2 0x796 JUMP JUMPDEST SWAP4 POP PUSH2 0x810 DUP2 DUP6 PUSH1 0x20 DUP7 ADD PUSH2 0x7A7 JUMP JUMPDEST PUSH2 0x819 DUP2 PUSH2 0x7DA JUMP JUMPDEST DUP5 ADD SWAP2 POP POP SWAP3 SWAP2 POP POP JUMP JUMPDEST PUSH1 0x0 PUSH1 0x20 DUP3 ADD SWAP1 POP DUP2 DUP2 SUB PUSH1 0x0 DUP4 ADD MSTORE PUSH2 0x83E DUP2 DUP5 PUSH2 0x7EB JUMP JUMPDEST SWAP1 POP SWAP3 SWAP2 POP POP JUMP JUMPDEST PUSH32 0x4E487B7100000000000000000000000000000000000000000000000000000000 PUSH1 0x0 MSTORE PUSH1 0x21 PUSH1 0x4 MSTORE PUSH1 0x24 PUSH1 0x0 REVERT JUMPDEST PUSH1 0x3 DUP2 LT PUSH2 0x886 JUMPI PUSH2 0x885 PUSH2 0x846 JUMP JUMPDEST JUMPDEST POP JUMP JUMPDEST PUSH1 0x0 DUP2 SWAP1 POP PUSH2 0x897 DUP3 PUSH2 0x875 JUMP JUMPDEST SWAP2 SWAP1 POP JUMP JUMPDEST PUSH1 0x0 PUSH2 0x8A7 DUP3 PUSH2 0x889 JUMP JUMPDEST SWAP1 POP SWAP2 SWAP1 POP JUMP JUMPDEST PUSH2 0x8B7 DUP2 PUSH2 0x89C JUMP JUMPDEST DUP3 MSTORE POP POP JUMP JUMPDEST PUSH1 0x0 PUSH1 0x20 DUP3 ADD SWAP1 POP PUSH2 0x8D2 PUSH1 0x0 DUP4 ADD DUP5 PUSH2 0x8AE JUMP JUMPDEST SWAP3 SWAP2 POP POP JUMP JUMPDEST PUSH1 0x0 DUP2 SWAP1 POP SWAP2 SWAP1 POP JUMP JUMPDEST PUSH1 0x0 PUSH2 0x8FD PUSH2 0x8F8 PUSH2 0x8F3 DUP5 PUSH2 0x72F JUMP JUMPDEST PUSH2 0x8D8 JUMP JUMPDEST PUSH2 0x72F JUMP JUMPDEST SWAP1 POP SWAP2 SWAP1 POP JUMP JUMPDEST PUSH1 0x0 PUSH2 0x90F DUP3 PUSH2 0x8E2 JUMP JUMPDEST SWAP1 POP SWAP2 SWAP1 POP JUMP JUMPDEST PUSH1 0x0 PUSH2 0x921 DUP3 PUSH2 0x904 JUMP JUMPDEST SWAP1 POP SWAP2 SWAP1 POP JUMP JUMPDEST PUSH2 0x931 DUP2 PUSH2 0x916 JUMP JUMPDEST DUP3 MSTORE POP POP JUMP JUMPDEST PUSH1 0x0 PUSH1 0x20 DUP3 ADD SWAP1 POP PUSH2 0x94C PUSH1 0x0 DUP4 ADD DUP5 PUSH2 0x928 JUMP JUMPDEST SWAP3 SWAP2 POP POP JUMP JUMPDEST PUSH1 0x0 DUP2 SWAP1 POP SWAP2 SWAP1 POP JUMP JUMPDEST PUSH2 0x965 DUP2 PUSH2 0x952 JUMP JUMPDEST DUP3 MSTORE POP POP JUMP JUMPDEST PUSH1 0x0 PUSH1 0x20 DUP3 ADD SWAP1 POP PUSH2 0x980 PUSH1 0x0 DUP4 ADD DUP5 PUSH2 0x95C JUMP JUMPDEST SWAP3 SWAP2 POP POP JUMP JUMPDEST PUSH32 0x4E487B7100000000000000000000000000000000000000000000000000000000 PUSH1 0x0 MSTORE PUSH1 0x22 PUSH1 0x4 MSTORE PUSH1 0x24 PUSH1 0x0 REVERT JUMPDEST PUSH1 0x0 PUSH1 0x2 DUP3 DIV SWAP1 POP PUSH1 0x1 DUP3 AND DUP1 PUSH2 0x9CD JUMPI PUSH1 0x7F DUP3 AND SWAP2 POP JUMPDEST PUSH1 0x20 DUP3 LT DUP2 EQ ISZERO PUSH2 0x9E1 JUMPI PUSH2 0x9E0 PUSH2 0x986 JUMP JUMPDEST JUMPDEST POP SWAP2 SWAP1 POP JUMP JUMPDEST PUSH32 0x436F6E747261637420737461747573206973206E6F7420657175616C20746F20 PUSH1 0x0 DUP3 ADD MSTORE PUSH32 0x6F70656E00000000000000000000000000000000000000000000000000000000 PUSH1 0x20 DUP3 ADD MSTORE POP JUMP JUMPDEST PUSH1 0x0 PUSH2 0xA43 PUSH1 0x24 DUP4 PUSH2 0x796 JUMP JUMPDEST SWAP2 POP PUSH2 0xA4E DUP3 PUSH2 0x9E7 JUMP JUMPDEST PUSH1 0x40 DUP3 ADD SWAP1 POP SWAP2 SWAP1 POP JUMP JUMPDEST PUSH1 0x0 PUSH1 0x20 DUP3 ADD SWAP1 POP DUP2 DUP2 SUB PUSH1 0x0 DUP4 ADD MSTORE PUSH2 0xA72 DUP2 PUSH2 0xA36 JUMP JUMPDEST SWAP1 POP SWAP2 SWAP1 POP JUMP JUMPDEST PUSH32 0x4F6E6C792072656665726565206F722063726561746F722063616E206661696C PUSH1 0x0 DUP3 ADD MSTORE PUSH32 0x20636F6E74726163740000000000000000000000000000000000000000000000 PUSH1 0x20 DUP3 ADD MSTORE POP JUMP JUMPDEST PUSH1 0x0 PUSH2 0xAD5 PUSH1 0x29 DUP4 PUSH2 0x796 JUMP JUMPDEST SWAP2 POP PUSH2 0xAE0 DUP3 PUSH2 0xA79 JUMP JUMPDEST PUSH1 0x40 DUP3 ADD SWAP1 POP SWAP2 SWAP1 POP JUMP JUMPDEST PUSH1 0x0 PUSH1 0x20 DUP3 ADD SWAP1 POP DUP2 DUP2 SUB PUSH1 0x0 DUP4 ADD MSTORE PUSH2 0xB04 DUP2 PUSH2 0xAC8 JUMP JUMPDEST SWAP1 POP SWAP2 SWAP1 POP JUMP JUMPDEST PUSH32 0x4F6E6C7920726566657265652063616E20636F6D706C657465206120636F6E74 PUSH1 0x0 DUP3 ADD MSTORE PUSH32 0x7261637400000000000000000000000000000000000000000000000000000000 PUSH1 0x20 DUP3 ADD MSTORE POP JUMP JUMPDEST PUSH1 0x0 PUSH2 0xB67 PUSH1 0x24 DUP4 PUSH2 0x796 JUMP JUMPDEST SWAP2 POP PUSH2 0xB72 DUP3 PUSH2 0xB0B JUMP JUMPDEST PUSH1 0x40 DUP3 ADD SWAP1 POP SWAP2 SWAP1 POP JUMP JUMPDEST PUSH1 0x0 PUSH1 0x20 DUP3 ADD SWAP1 POP DUP2 DUP2 SUB PUSH1 0x0 DUP4 ADD MSTORE PUSH2 0xB96 DUP2 PUSH2 0xB5A JUMP JUMPDEST SWAP1 POP SWAP2 SWAP1 POP JUMP INVALID LOG2 PUSH5 0x6970667358 0x22 SLT KECCAK256 0x2B SWAP14 PUSH6 0x2EF9AE0B580B PUSH9 0xD07600CDDA27F9C208 DUP1 ADD 0x2C 0xE 0xB5 LT 0x4D DUP10 0x5F TIMESTAMP 0x29 DELEGATECALL 0xE5 PUSH5 0x736F6C6343 STOP ADDMOD 0xC STOP CALLER LOG2 PUSH5 0x6970667358 0x22 SLT KECCAK256 PUSH31 0x7DE3100FE0FA599EA1E4D9E8AB0A869A9AFB3A4A3B21BDA2FBD2C909996E40 PUSH5 0x736F6C6343 STOP ADDMOD 0xC STOP CALLER "},"gasEstimates":{"creation":{"codeDepositCost":"4620400","executionCost":"5401","totalCost":"4625801"},"external":{"accountabilityContractAddresses(uint256)":"5046","approveRequest(address)":"infinite","completeOpenAccountabilityContract(address)":"infinite","createAccountabilityContract(address,string,string,address)":"infinite","failOpenAccountabilityContract(address)":"infinite","getAccountabilityContractAddresses(uint256,uint256)":"infinite","getApprovalRequests(address)":"infinite","getClosedAccountabilityContractAddressesForReferee(address)":"infinite","getClosedAccountabilityContractAddressesForUser(address)":"infinite","getOpenAccountabilityContractAddressesForReferee(address)":"infinite","getOpenAccountabilityContractAddressesForUser(address)":"infinite","getUserAddresses(uint256,uint256)":"infinite","numberOfAccountabilityContracts()":"2474","numberOfReferees()":"2473","numberOfUsers()":"2452","refereeAddresses(uint256)":"5068","referees(address)":"2961","rejectRequest(address,string)":"infinite","requestApproval(address)":"infinite","totalEthInContracts()":"2517","userAddresses(uint256)":"5023","users(address)":"2917"},"internal":{"deleteApprovalRequestForReferee(address,address)":"infinite","getContractIndexForReferee(address,address)":"infinite","getContractIndexForUser(address,address)":"infinite","moveOpenContractToClosedContractsForReferee(address,address)":"infinite","moveOpenContractToClosedContractsForUser(address,address)":"infinite"}},"methodIdentifiers":{"accountabilityContractAddresses(uint256)":"38db44bc","approveRequest(address)":"061dff9a","completeOpenAccountabilityContract(address)":"61542c44","createAccountabilityContract(address,string,string,address)":"e436e826","failOpenAccountabilityContract(address)":"5b259abf","getAccountabilityContractAddresses(uint256,uint256)":"0e865751","getApprovalRequests(address)":"8793ed80","getClosedAccountabilityContractAddressesForReferee(address)":"19ee8bd4","getClosedAccountabilityContractAddressesForUser(address)":"b24e67d0","getOpenAccountabilityContractAddressesForReferee(address)":"9051e234","getOpenAccountabilityContractAddressesForUser(address)":"442a7bc7","getUserAddresses(uint256,uint256)":"a908f4fa","numberOfAccountabilityContracts()":"4841a885","numberOfReferees()":"b3b6633e","numberOfUsers()":"75ce46a7","refereeAddresses(uint256)":"38fb42fd","referees(address)":"64a60b47","rejectRequest(address,string)":"d77399e5","requestApproval(address)":"e10bc834","totalEthInContracts()":"dc0e0c13","userAddresses(uint256)":"502c9bd5","users(address)":"a87430ba"}}}