{"abi":[{"inputs":[{"internalType":"address","name":"user","type":"address"},{"internalType":"address","name":"contractAddress","type":"address"}],"name":"completeOpenAccountabilityContract","outputs":[],"stateMutability":"nonpayable","type":"function"},{"inputs":[{"internalType":"address","name":"_referee","type":"address"},{"internalType":"string","name":"_name","type":"string"},{"internalType":"string","name":"_description","type":"string"},{"internalType":"address payable","name":"_failureRecipient","type":"address"}],"name":"createAccountabilityContract","outputs":[],"stateMutability":"payable","type":"function"},{"inputs":[{"internalType":"address","name":"user","type":"address"},{"internalType":"address","name":"contractAddress","type":"address"}],"name":"failOpenAccountabilityContract","outputs":[],"stateMutability":"nonpayable","type":"function"},{"inputs":[{"internalType":"address","name":"referee","type":"address"}],"name":"getClosedAccountabilityContractAddressesForReferee","outputs":[{"internalType":"address[]","name":"","type":"address[]"}],"stateMutability":"view","type":"function"},{"inputs":[{"internalType":"address","name":"user","type":"address"}],"name":"getClosedAccountabilityContractAddressesForUser","outputs":[{"internalType":"address[]","name":"","type":"address[]"}],"stateMutability":"view","type":"function"},{"inputs":[{"internalType":"address","name":"referee","type":"address"}],"name":"getOpenAccountabilityContractAddressesForReferee","outputs":[{"internalType":"address[]","name":"","type":"address[]"}],"stateMutability":"view","type":"function"},{"inputs":[{"internalType":"address","name":"user","type":"address"}],"name":"getOpenAccountabilityContractAddressesForUser","outputs":[{"internalType":"address[]","name":"","type":"address[]"}],"stateMutability":"view","type":"function"},{"inputs":[],"name":"numberOfReferees","outputs":[{"internalType":"uint256","name":"","type":"uint256"}],"stateMutability":"view","type":"function"},{"inputs":[],"name":"numberOfUsers","outputs":[{"internalType":"uint256","name":"","type":"uint256"}],"stateMutability":"view","type":"function"},{"inputs":[{"internalType":"address","name":"","type":"address"}],"name":"referees","outputs":[{"internalType":"uint256","name":"managedContracts","type":"uint256"}],"stateMutability":"view","type":"function"},{"inputs":[{"internalType":"address","name":"","type":"address"}],"name":"users","outputs":[{"internalType":"uint256","name":"createdContracts","type":"uint256"}],"stateMutability":"view","type":"function"}],"evm":{"assembly":"    /* \"Contracts\":57:5378  contract AccountabilityContractFactory {... */\n  mstore(0x40, 0x80)\n  callvalue\n  dup1\n  iszero\n  tag_1\n  jumpi\n  0x00\n  dup1\n  revert\ntag_1:\n  pop\n  dataSize(sub_0)\n  dup1\n  dataOffset(sub_0)\n  0x00\n  codecopy\n  0x00\n  return\nstop\n\nsub_0: assembly {\n        /* \"Contracts\":57:5378  contract AccountabilityContractFactory {... */\n      mstore(0x40, 0x80)\n      jumpi(tag_1, lt(calldatasize, 0x04))\n      shr(0xe0, calldataload(0x00))\n      dup1\n      0x9051e234\n      gt\n      tag_13\n      jumpi\n      dup1\n      0x9051e234\n      eq\n      tag_7\n      jumpi\n      dup1\n      0xa87430ba\n      eq\n      tag_8\n      jumpi\n      dup1\n      0xb24e67d0\n      eq\n      tag_9\n      jumpi\n      dup1\n      0xb3b6633e\n      eq\n      tag_10\n      jumpi\n      dup1\n      0xcc785850\n      eq\n      tag_11\n      jumpi\n      dup1\n      0xe436e826\n      eq\n      tag_12\n      jumpi\n      jump(tag_1)\n    tag_13:\n      dup1\n      0x19ee8bd4\n      eq\n      tag_2\n      jumpi\n      dup1\n      0x442a7bc7\n      eq\n      tag_3\n      jumpi\n      dup1\n      0x4ac0b82d\n      eq\n      tag_4\n      jumpi\n      dup1\n      0x64a60b47\n      eq\n      tag_5\n      jumpi\n      dup1\n      0x75ce46a7\n      eq\n      tag_6\n      jumpi\n    tag_1:\n      0x00\n      dup1\n      revert\n        /* \"Contracts\":2077:2271  function getClosedAccountabilityContractAddressesForReferee(address referee) public view returns (address[] memory){... */\n    tag_2:\n      callvalue\n      dup1\n      iszero\n      tag_14\n      jumpi\n      0x00\n      dup1\n      revert\n    tag_14:\n      pop\n      tag_15\n      0x04\n      dup1\n      calldatasize\n      sub\n      dup2\n      add\n      swap1\n      tag_16\n      swap2\n      swap1\n      tag_17\n      jump\t// in\n    tag_16:\n      tag_18\n      jump\t// in\n    tag_15:\n      mload(0x40)\n      tag_19\n      swap2\n      swap1\n      tag_20\n      jump\t// in\n    tag_19:\n      mload(0x40)\n      dup1\n      swap2\n      sub\n      swap1\n      return\n        /* \"Contracts\":1509:1687  function getOpenAccountabilityContractAddressesForUser(address user) public view returns (address[] memory){... */\n    tag_3:\n      callvalue\n      dup1\n      iszero\n      tag_21\n      jumpi\n      0x00\n      dup1\n      revert\n    tag_21:\n      pop\n      tag_22\n      0x04\n      dup1\n      calldatasize\n      sub\n      dup2\n      add\n      swap1\n      tag_23\n      swap2\n      swap1\n      tag_17\n      jump\t// in\n    tag_23:\n      tag_24\n      jump\t// in\n    tag_22:\n      mload(0x40)\n      tag_25\n      swap2\n      swap1\n      tag_20\n      jump\t// in\n    tag_25:\n      mload(0x40)\n      dup1\n      swap2\n      sub\n      swap1\n      return\n        /* \"Contracts\":2277:2682  function failOpenAccountabilityContract(address user, address contractAddress) public {... */\n    tag_4:\n      callvalue\n      dup1\n      iszero\n      tag_26\n      jumpi\n      0x00\n      dup1\n      revert\n    tag_26:\n      pop\n      tag_27\n      0x04\n      dup1\n      calldatasize\n      sub\n      dup2\n      add\n      swap1\n      tag_28\n      swap2\n      swap1\n      tag_29\n      jump\t// in\n    tag_28:\n      tag_30\n      jump\t// in\n    tag_27:\n      stop\n        /* \"Contracts\":197:240  mapping(address => Referee) public referees */\n    tag_5:\n      callvalue\n      dup1\n      iszero\n      tag_31\n      jumpi\n      0x00\n      dup1\n      revert\n    tag_31:\n      pop\n      tag_32\n      0x04\n      dup1\n      calldatasize\n      sub\n      dup2\n      add\n      swap1\n      tag_33\n      swap2\n      swap1\n      tag_17\n      jump\t// in\n    tag_33:\n      tag_34\n      jump\t// in\n    tag_32:\n      mload(0x40)\n      tag_35\n      swap2\n      swap1\n      tag_36\n      jump\t// in\n    tag_35:\n      mload(0x40)\n      dup1\n      swap2\n      sub\n      swap1\n      return\n        /* \"Contracts\":141:166  uint public numberOfUsers */\n    tag_6:\n      callvalue\n      dup1\n      iszero\n      tag_37\n      jumpi\n      0x00\n      dup1\n      revert\n    tag_37:\n      pop\n      tag_38\n      tag_39\n      jump\t// in\n    tag_38:\n      mload(0x40)\n      tag_40\n      swap2\n      swap1\n      tag_36\n      jump\t// in\n    tag_40:\n      mload(0x40)\n      dup1\n      swap2\n      sub\n      swap1\n      return\n        /* \"Contracts\":1881:2071  function getOpenAccountabilityContractAddressesForReferee(address referee) public view returns (address[] memory){... */\n    tag_7:\n      callvalue\n      dup1\n      iszero\n      tag_41\n      jumpi\n      0x00\n      dup1\n      revert\n    tag_41:\n      pop\n      tag_42\n      0x04\n      dup1\n      calldatasize\n      sub\n      dup2\n      add\n      swap1\n      tag_43\n      swap2\n      swap1\n      tag_17\n      jump\t// in\n    tag_43:\n      tag_44\n      jump\t// in\n    tag_42:\n      mload(0x40)\n      tag_45\n      swap2\n      swap1\n      tag_20\n      jump\t// in\n    tag_45:\n      mload(0x40)\n      dup1\n      swap2\n      sub\n      swap1\n      return\n        /* \"Contracts\":100:137  mapping(address => User) public users */\n    tag_8:\n      callvalue\n      dup1\n      iszero\n      tag_46\n      jumpi\n      0x00\n      dup1\n      revert\n    tag_46:\n      pop\n      tag_47\n      0x04\n      dup1\n      calldatasize\n      sub\n      dup2\n      add\n      swap1\n      tag_48\n      swap2\n      swap1\n      tag_17\n      jump\t// in\n    tag_48:\n      tag_49\n      jump\t// in\n    tag_47:\n      mload(0x40)\n      tag_50\n      swap2\n      swap1\n      tag_36\n      jump\t// in\n    tag_50:\n      mload(0x40)\n      dup1\n      swap2\n      sub\n      swap1\n      return\n        /* \"Contracts\":1693:1875  function getClosedAccountabilityContractAddressesForUser(address user) public view returns (address[] memory){... */\n    tag_9:\n      callvalue\n      dup1\n      iszero\n      tag_51\n      jumpi\n      0x00\n      dup1\n      revert\n    tag_51:\n      pop\n      tag_52\n      0x04\n      dup1\n      calldatasize\n      sub\n      dup2\n      add\n      swap1\n      tag_53\n      swap2\n      swap1\n      tag_17\n      jump\t// in\n    tag_53:\n      tag_54\n      jump\t// in\n    tag_52:\n      mload(0x40)\n      tag_55\n      swap2\n      swap1\n      tag_20\n      jump\t// in\n    tag_55:\n      mload(0x40)\n      dup1\n      swap2\n      sub\n      swap1\n      return\n        /* \"Contracts\":244:272  uint public numberOfReferees */\n    tag_10:\n      callvalue\n      dup1\n      iszero\n      tag_56\n      jumpi\n      0x00\n      dup1\n      revert\n    tag_56:\n      pop\n      tag_57\n      tag_58\n      jump\t// in\n    tag_57:\n      mload(0x40)\n      tag_59\n      swap2\n      swap1\n      tag_36\n      jump\t// in\n    tag_59:\n      mload(0x40)\n      dup1\n      swap2\n      sub\n      swap1\n      return\n        /* \"Contracts\":2688:3102  function completeOpenAccountabilityContract(address user, address contractAddress) public {... */\n    tag_11:\n      callvalue\n      dup1\n      iszero\n      tag_60\n      jumpi\n      0x00\n      dup1\n      revert\n    tag_60:\n      pop\n      tag_61\n      0x04\n      dup1\n      calldatasize\n      sub\n      dup2\n      add\n      swap1\n      tag_62\n      swap2\n      swap1\n      tag_29\n      jump\t// in\n    tag_62:\n      tag_63\n      jump\t// in\n    tag_61:\n      stop\n        /* \"Contracts\":624:1503  function createAccountabilityContract(address _referee, string memory _name, string memory _description, address payable _failureRecipient) public payable {... */\n    tag_12:\n      tag_64\n      0x04\n      dup1\n      calldatasize\n      sub\n      dup2\n      add\n      swap1\n      tag_65\n      swap2\n      swap1\n      tag_66\n      jump\t// in\n    tag_65:\n      tag_67\n      jump\t// in\n    tag_64:\n      stop\n        /* \"Contracts\":2077:2271  function getClosedAccountabilityContractAddressesForReferee(address referee) public view returns (address[] memory){... */\n    tag_18:\n        /* \"Contracts\":2175:2191  address[] memory */\n      0x60\n        /* \"Contracts\":2209:2217  referees */\n      0x03\n        /* \"Contracts\":2209:2226  referees[referee] */\n      0x00\n        /* \"Contracts\":2218:2225  referee */\n      dup4\n        /* \"Contracts\":2209:2226  referees[referee] */\n      0xffffffffffffffffffffffffffffffffffffffff\n      and\n      0xffffffffffffffffffffffffffffffffffffffff\n      and\n      dup2\n      mstore\n      0x20\n      add\n      swap1\n      dup2\n      mstore\n      0x20\n      add\n      0x00\n      keccak256\n        /* \"Contracts\":2209:2264  referees[referee].closedAccountabilityContractAddresses */\n      0x02\n      add\n        /* \"Contracts\":2202:2264  return referees[referee].closedAccountabilityContractAddresses */\n      dup1\n      sload\n      dup1\n      0x20\n      mul\n      0x20\n      add\n      mload(0x40)\n      swap1\n      dup2\n      add\n      0x40\n      mstore\n      dup1\n      swap3\n      swap2\n      swap1\n      dup2\n      dup2\n      mstore\n      0x20\n      add\n      dup3\n      dup1\n      sload\n      dup1\n      iszero\n      tag_69\n      jumpi\n      0x20\n      mul\n      dup3\n      add\n      swap2\n      swap1\n      0x00\n      mstore\n      keccak256(0x00, 0x20)\n      swap1\n    tag_70:\n      dup2\n      0x00\n      swap1\n      sload\n      swap1\n      0x0100\n      exp\n      swap1\n      div\n      0xffffffffffffffffffffffffffffffffffffffff\n      and\n      0xffffffffffffffffffffffffffffffffffffffff\n      and\n      dup2\n      mstore\n      0x20\n      add\n      swap1\n      0x01\n      add\n      swap1\n      dup1\n      dup4\n      gt\n      tag_70\n      jumpi\n    tag_69:\n      pop\n      pop\n      pop\n      pop\n      pop\n      swap1\n      pop\n        /* \"Contracts\":2077:2271  function getClosedAccountabilityContractAddressesForReferee(address referee) public view returns (address[] memory){... */\n      swap2\n      swap1\n      pop\n      jump\t// out\n        /* \"Contracts\":1509:1687  function getOpenAccountabilityContractAddressesForUser(address user) public view returns (address[] memory){... */\n    tag_24:\n        /* \"Contracts\":1599:1615  address[] memory */\n      0x60\n        /* \"Contracts\":1633:1638  users */\n      0x00\n        /* \"Contracts\":1633:1644  users[user] */\n      dup1\n        /* \"Contracts\":1639:1643  user */\n      dup4\n        /* \"Contracts\":1633:1644  users[user] */\n      0xffffffffffffffffffffffffffffffffffffffff\n      and\n      0xffffffffffffffffffffffffffffffffffffffff\n      and\n      dup2\n      mstore\n      0x20\n      add\n      swap1\n      dup2\n      mstore\n      0x20\n      add\n      0x00\n      keccak256\n        /* \"Contracts\":1633:1680  users[user].openAccountabilityContractAddresses */\n      0x01\n      add\n        /* \"Contracts\":1626:1680  return users[user].openAccountabilityContractAddresses */\n      dup1\n      sload\n      dup1\n      0x20\n      mul\n      0x20\n      add\n      mload(0x40)\n      swap1\n      dup2\n      add\n      0x40\n      mstore\n      dup1\n      swap3\n      swap2\n      swap1\n      dup2\n      dup2\n      mstore\n      0x20\n      add\n      dup3\n      dup1\n      sload\n      dup1\n      iszero\n      tag_72\n      jumpi\n      0x20\n      mul\n      dup3\n      add\n      swap2\n      swap1\n      0x00\n      mstore\n      keccak256(0x00, 0x20)\n      swap1\n    tag_73:\n      dup2\n      0x00\n      swap1\n      sload\n      swap1\n      0x0100\n      exp\n      swap1\n      div\n      0xffffffffffffffffffffffffffffffffffffffff\n      and\n      0xffffffffffffffffffffffffffffffffffffffff\n      and\n      dup2\n      mstore\n      0x20\n      add\n      swap1\n      0x01\n      add\n      swap1\n      dup1\n      dup4\n      gt\n      tag_73\n      jumpi\n    tag_72:\n      pop\n      pop\n      pop\n      pop\n      pop\n      swap1\n      pop\n        /* \"Contracts\":1509:1687  function getOpenAccountabilityContractAddressesForUser(address user) public view returns (address[] memory){... */\n      swap2\n      swap1\n      pop\n      jump\t// out\n        /* \"Contracts\":2277:2682  function failOpenAccountabilityContract(address user, address contractAddress) public {... */\n    tag_30:\n        /* \"Contracts\":2371:2416  AccountabilityContract accountabilityContract */\n      0x00\n        /* \"Contracts\":2442:2457  contractAddress */\n      dup2\n        /* \"Contracts\":2371:2458  AccountabilityContract accountabilityContract = AccountabilityContract(contractAddress) */\n      swap1\n      pop\n        /* \"Contracts\":2466:2488  accountabilityContract */\n      dup1\n        /* \"Contracts\":2466:2501  accountabilityContract.failContract */\n      0xffffffffffffffffffffffffffffffffffffffff\n      and\n      0x2d398fa6\n        /* \"Contracts\":2466:2503  accountabilityContract.failContract() */\n      mload(0x40)\n      dup2\n      0xffffffff\n      and\n      0xe0\n      shl\n      dup2\n      mstore\n      0x04\n      add\n      0x20\n      mload(0x40)\n      dup1\n      dup4\n      sub\n      dup2\n      0x00\n      dup8\n      gas\n      call\n      iszero\n      dup1\n      iszero\n      tag_76\n      jumpi\n      returndatasize\n      0x00\n      dup1\n      returndatacopy\n      revert(0x00, returndatasize)\n    tag_76:\n      pop\n      pop\n      pop\n      pop\n      mload(0x40)\n      returndatasize\n      not(0x1f)\n      0x1f\n      dup3\n      add\n      and\n      dup3\n      add\n      dup1\n      0x40\n      mstore\n      pop\n      dup2\n      add\n      swap1\n      tag_77\n      swap2\n      swap1\n      tag_78\n      jump\t// in\n    tag_77:\n      pop\n        /* \"Contracts\":2511:2573  moveOpenContractToClosedContractsForUser(user,contractAddress) */\n      tag_79\n        /* \"Contracts\":2552:2556  user */\n      dup4\n        /* \"Contracts\":2557:2572  contractAddress */\n      dup4\n        /* \"Contracts\":2511:2551  moveOpenContractToClosedContractsForUser */\n      tag_80\n        /* \"Contracts\":2511:2573  moveOpenContractToClosedContractsForUser(user,contractAddress) */\n      jump\t// in\n    tag_79:\n        /* \"Contracts\":2581:2675  moveOpenContractToClosedContractsForReferee(accountabilityContract.referee(), contractAddress) */\n      tag_81\n        /* \"Contracts\":2625:2647  accountabilityContract */\n      dup2\n        /* \"Contracts\":2625:2655  accountabilityContract.referee */\n      0xffffffffffffffffffffffffffffffffffffffff\n      and\n      0x3b1bebd1\n        /* \"Contracts\":2625:2657  accountabilityContract.referee() */\n      mload(0x40)\n      dup2\n      0xffffffff\n      and\n      0xe0\n      shl\n      dup2\n      mstore\n      0x04\n      add\n      0x20\n      mload(0x40)\n      dup1\n      dup4\n      sub\n      dup2\n      dup7\n      gas\n      staticcall\n      iszero\n      dup1\n      iszero\n      tag_83\n      jumpi\n      returndatasize\n      0x00\n      dup1\n      returndatacopy\n      revert(0x00, returndatasize)\n    tag_83:\n      pop\n      pop\n      pop\n      pop\n      mload(0x40)\n      returndatasize\n      not(0x1f)\n      0x1f\n      dup3\n      add\n      and\n      dup3\n      add\n      dup1\n      0x40\n      mstore\n      pop\n      dup2\n      add\n      swap1\n      tag_84\n      swap2\n      swap1\n      tag_85\n      jump\t// in\n    tag_84:\n        /* \"Contracts\":2659:2674  contractAddress */\n      dup4\n        /* \"Contracts\":2581:2624  moveOpenContractToClosedContractsForReferee */\n      tag_86\n        /* \"Contracts\":2581:2675  moveOpenContractToClosedContractsForReferee(accountabilityContract.referee(), contractAddress) */\n      jump\t// in\n    tag_81:\n        /* \"Contracts\":2363:2682  {... */\n      pop\n        /* \"Contracts\":2277:2682  function failOpenAccountabilityContract(address user, address contractAddress) public {... */\n      pop\n      pop\n      jump\t// out\n        /* \"Contracts\":197:240  mapping(address => Referee) public referees */\n    tag_34:\n      mstore(0x20, 0x03)\n      dup1\n      0x00\n      mstore\n      keccak256(0x00, 0x40)\n      0x00\n      swap2\n      pop\n      swap1\n      pop\n      dup1\n      0x00\n      add\n      sload\n      swap1\n      pop\n      dup2\n      jump\t// out\n        /* \"Contracts\":141:166  uint public numberOfUsers */\n    tag_39:\n      sload(0x01)\n      dup2\n      jump\t// out\n        /* \"Contracts\":1881:2071  function getOpenAccountabilityContractAddressesForReferee(address referee) public view returns (address[] memory){... */\n    tag_44:\n        /* \"Contracts\":1977:1993  address[] memory */\n      0x60\n        /* \"Contracts\":2011:2019  referees */\n      0x03\n        /* \"Contracts\":2011:2028  referees[referee] */\n      0x00\n        /* \"Contracts\":2020:2027  referee */\n      dup4\n        /* \"Contracts\":2011:2028  referees[referee] */\n      0xffffffffffffffffffffffffffffffffffffffff\n      and\n      0xffffffffffffffffffffffffffffffffffffffff\n      and\n      dup2\n      mstore\n      0x20\n      add\n      swap1\n      dup2\n      mstore\n      0x20\n      add\n      0x00\n      keccak256\n        /* \"Contracts\":2011:2064  referees[referee].openAccountabilityContractAddresses */\n      0x01\n      add\n        /* \"Contracts\":2004:2064  return referees[referee].openAccountabilityContractAddresses */\n      dup1\n      sload\n      dup1\n      0x20\n      mul\n      0x20\n      add\n      mload(0x40)\n      swap1\n      dup2\n      add\n      0x40\n      mstore\n      dup1\n      swap3\n      swap2\n      swap1\n      dup2\n      dup2\n      mstore\n      0x20\n      add\n      dup3\n      dup1\n      sload\n      dup1\n      iszero\n      tag_88\n      jumpi\n      0x20\n      mul\n      dup3\n      add\n      swap2\n      swap1\n      0x00\n      mstore\n      keccak256(0x00, 0x20)\n      swap1\n    tag_89:\n      dup2\n      0x00\n      swap1\n      sload\n      swap1\n      0x0100\n      exp\n      swap1\n      div\n      0xffffffffffffffffffffffffffffffffffffffff\n      and\n      0xffffffffffffffffffffffffffffffffffffffff\n      and\n      dup2\n      mstore\n      0x20\n      add\n      swap1\n      0x01\n      add\n      swap1\n      dup1\n      dup4\n      gt\n      tag_89\n      jumpi\n    tag_88:\n      pop\n      pop\n      pop\n      pop\n      pop\n      swap1\n      pop\n        /* \"Contracts\":1881:2071  function getOpenAccountabilityContractAddressesForReferee(address referee) public view returns (address[] memory){... */\n      swap2\n      swap1\n      pop\n      jump\t// out\n        /* \"Contracts\":100:137  mapping(address => User) public users */\n    tag_49:\n      mstore(0x20, 0x00)\n      dup1\n      0x00\n      mstore\n      keccak256(0x00, 0x40)\n      0x00\n      swap2\n      pop\n      swap1\n      pop\n      dup1\n      0x00\n      add\n      sload\n      swap1\n      pop\n      dup2\n      jump\t// out\n        /* \"Contracts\":1693:1875  function getClosedAccountabilityContractAddressesForUser(address user) public view returns (address[] memory){... */\n    tag_54:\n        /* \"Contracts\":1785:1801  address[] memory */\n      0x60\n        /* \"Contracts\":1819:1824  users */\n      0x00\n        /* \"Contracts\":1819:1830  users[user] */\n      dup1\n        /* \"Contracts\":1825:1829  user */\n      dup4\n        /* \"Contracts\":1819:1830  users[user] */\n      0xffffffffffffffffffffffffffffffffffffffff\n      and\n      0xffffffffffffffffffffffffffffffffffffffff\n      and\n      dup2\n      mstore\n      0x20\n      add\n      swap1\n      dup2\n      mstore\n      0x20\n      add\n      0x00\n      keccak256\n        /* \"Contracts\":1819:1868  users[user].closedAccountabilityContractAddresses */\n      0x02\n      add\n        /* \"Contracts\":1812:1868  return users[user].closedAccountabilityContractAddresses */\n      dup1\n      sload\n      dup1\n      0x20\n      mul\n      0x20\n      add\n      mload(0x40)\n      swap1\n      dup2\n      add\n      0x40\n      mstore\n      dup1\n      swap3\n      swap2\n      swap1\n      dup2\n      dup2\n      mstore\n      0x20\n      add\n      dup3\n      dup1\n      sload\n      dup1\n      iszero\n      tag_91\n      jumpi\n      0x20\n      mul\n      dup3\n      add\n      swap2\n      swap1\n      0x00\n      mstore\n      keccak256(0x00, 0x20)\n      swap1\n    tag_92:\n      dup2\n      0x00\n      swap1\n      sload\n      swap1\n      0x0100\n      exp\n      swap1\n      div\n      0xffffffffffffffffffffffffffffffffffffffff\n      and\n      0xffffffffffffffffffffffffffffffffffffffff\n      and\n      dup2\n      mstore\n      0x20\n      add\n      swap1\n      0x01\n      add\n      swap1\n      dup1\n      dup4\n      gt\n      tag_92\n      jumpi\n    tag_91:\n      pop\n      pop\n      pop\n      pop\n      pop\n      swap1\n      pop\n        /* \"Contracts\":1693:1875  function getClosedAccountabilityContractAddressesForUser(address user) public view returns (address[] memory){... */\n      swap2\n      swap1\n      pop\n      jump\t// out\n        /* \"Contracts\":244:272  uint public numberOfReferees */\n    tag_58:\n      sload(0x04)\n      dup2\n      jump\t// out\n        /* \"Contracts\":2688:3102  function completeOpenAccountabilityContract(address user, address contractAddress) public {... */\n    tag_63:\n        /* \"Contracts\":2786:2831  AccountabilityContract accountabilityContract */\n      0x00\n        /* \"Contracts\":2857:2872  contractAddress */\n      dup2\n        /* \"Contracts\":2786:2873  AccountabilityContract accountabilityContract = AccountabilityContract(contractAddress) */\n      swap1\n      pop\n        /* \"Contracts\":2881:2903  accountabilityContract */\n      dup1\n        /* \"Contracts\":2881:2920  accountabilityContract.completeContract */\n      0xffffffffffffffffffffffffffffffffffffffff\n      and\n      0xb4fedc11\n        /* \"Contracts\":2881:2922  accountabilityContract.completeContract() */\n      mload(0x40)\n      dup2\n      0xffffffff\n      and\n      0xe0\n      shl\n      dup2\n      mstore\n      0x04\n      add\n      0x20\n      mload(0x40)\n      dup1\n      dup4\n      sub\n      dup2\n      0x00\n      dup8\n      gas\n      call\n      iszero\n      dup1\n      iszero\n      tag_95\n      jumpi\n      returndatasize\n      0x00\n      dup1\n      returndatacopy\n      revert(0x00, returndatasize)\n    tag_95:\n      pop\n      pop\n      pop\n      pop\n      mload(0x40)\n      returndatasize\n      not(0x1f)\n      0x1f\n      dup3\n      add\n      and\n      dup3\n      add\n      dup1\n      0x40\n      mstore\n      pop\n      dup2\n      add\n      swap1\n      tag_96\n      swap2\n      swap1\n      tag_78\n      jump\t// in\n    tag_96:\n      pop\n        /* \"Contracts\":2930:2993  moveOpenContractToClosedContractsForUser(user, contractAddress) */\n      tag_97\n        /* \"Contracts\":2971:2975  user */\n      dup4\n        /* \"Contracts\":2977:2992  contractAddress */\n      dup4\n        /* \"Contracts\":2930:2970  moveOpenContractToClosedContractsForUser */\n      tag_80\n        /* \"Contracts\":2930:2993  moveOpenContractToClosedContractsForUser(user, contractAddress) */\n      jump\t// in\n    tag_97:\n        /* \"Contracts\":3001:3095  moveOpenContractToClosedContractsForReferee(accountabilityContract.referee(), contractAddress) */\n      tag_98\n        /* \"Contracts\":3045:3067  accountabilityContract */\n      dup2\n        /* \"Contracts\":3045:3075  accountabilityContract.referee */\n      0xffffffffffffffffffffffffffffffffffffffff\n      and\n      0x3b1bebd1\n        /* \"Contracts\":3045:3077  accountabilityContract.referee() */\n      mload(0x40)\n      dup2\n      0xffffffff\n      and\n      0xe0\n      shl\n      dup2\n      mstore\n      0x04\n      add\n      0x20\n      mload(0x40)\n      dup1\n      dup4\n      sub\n      dup2\n      dup7\n      gas\n      staticcall\n      iszero\n      dup1\n      iszero\n      tag_100\n      jumpi\n      returndatasize\n      0x00\n      dup1\n      returndatacopy\n      revert(0x00, returndatasize)\n    tag_100:\n      pop\n      pop\n      pop\n      pop\n      mload(0x40)\n      returndatasize\n      not(0x1f)\n      0x1f\n      dup3\n      add\n      and\n      dup3\n      add\n      dup1\n      0x40\n      mstore\n      pop\n      dup2\n      add\n      swap1\n      tag_101\n      swap2\n      swap1\n      tag_85\n      jump\t// in\n    tag_101:\n        /* \"Contracts\":3079:3094  contractAddress */\n      dup4\n        /* \"Contracts\":3001:3044  moveOpenContractToClosedContractsForReferee */\n      tag_86\n        /* \"Contracts\":3001:3095  moveOpenContractToClosedContractsForReferee(accountabilityContract.referee(), contractAddress) */\n      jump\t// in\n    tag_98:\n        /* \"Contracts\":2778:3102  {... */\n      pop\n        /* \"Contracts\":2688:3102  function completeOpenAccountabilityContract(address user, address contractAddress) public {... */\n      pop\n      pop\n      jump\t// out\n        /* \"Contracts\":624:1503  function createAccountabilityContract(address _referee, string memory _name, string memory _description, address payable _failureRecipient) public payable {... */\n    tag_67:\n        /* \"Contracts\":830:831  0 */\n      0x00\n        /* \"Contracts\":792:797  users */\n      dup1\n        /* \"Contracts\":792:809  users[msg.sender] */\n      0x00\n        /* \"Contracts\":798:808  msg.sender */\n      caller\n        /* \"Contracts\":792:809  users[msg.sender] */\n      0xffffffffffffffffffffffffffffffffffffffff\n      and\n      0xffffffffffffffffffffffffffffffffffffffff\n      and\n      dup2\n      mstore\n      0x20\n      add\n      swap1\n      dup2\n      mstore\n      0x20\n      add\n      0x00\n      keccak256\n        /* \"Contracts\":792:826  users[msg.sender].createdContracts */\n      0x00\n      add\n      sload\n        /* \"Contracts\":792:831  users[msg.sender].createdContracts == 0 */\n      eq\n        /* \"Contracts\":789:916  if(users[msg.sender].createdContracts == 0){... */\n      iszero\n      tag_103\n      jumpi\n        /* \"Contracts\":846:859  numberOfUsers */\n      0x01\n      0x00\n        /* \"Contracts\":846:861  numberOfUsers++ */\n      dup2\n      sload\n      dup1\n      swap3\n      swap2\n      swap1\n      tag_104\n      swap1\n      tag_105\n      jump\t// in\n    tag_104:\n      swap2\n      swap1\n      pop\n      sstore\n      pop\n        /* \"Contracts\":875:888  userAddresses */\n      0x02\n        /* \"Contracts\":894:904  msg.sender */\n      caller\n        /* \"Contracts\":875:905  userAddresses.push(msg.sender) */\n      swap1\n      dup1\n      0x01\n      dup2\n      sload\n      add\n      dup1\n      dup3\n      sstore\n      dup1\n      swap2\n      pop\n      pop\n      0x01\n      swap1\n      sub\n      swap1\n      0x00\n      mstore\n      keccak256(0x00, 0x20)\n      add\n      0x00\n      swap1\n      swap2\n      swap1\n      swap2\n      swap1\n      swap2\n      0x0100\n      exp\n      dup2\n      sload\n      dup2\n      0xffffffffffffffffffffffffffffffffffffffff\n      mul\n      not\n      and\n      swap1\n      dup4\n      0xffffffffffffffffffffffffffffffffffffffff\n      and\n      mul\n      or\n      swap1\n      sstore\n      pop\n        /* \"Contracts\":789:916  if(users[msg.sender].createdContracts == 0){... */\n    tag_103:\n        /* \"Contracts\":967:968  0 */\n      0x00\n        /* \"Contracts\":928:936  referees */\n      0x03\n        /* \"Contracts\":928:946  referees[_referee] */\n      0x00\n        /* \"Contracts\":937:945  _referee */\n      dup7\n        /* \"Contracts\":928:946  referees[_referee] */\n      0xffffffffffffffffffffffffffffffffffffffff\n      and\n      0xffffffffffffffffffffffffffffffffffffffff\n      and\n      dup2\n      mstore\n      0x20\n      add\n      swap1\n      dup2\n      mstore\n      0x20\n      add\n      0x00\n      keccak256\n        /* \"Contracts\":928:963  referees[_referee].managedContracts */\n      0x00\n      add\n      sload\n        /* \"Contracts\":928:968  referees[_referee].managedContracts == 0 */\n      eq\n        /* \"Contracts\":925:1057  if(referees[_referee].managedContracts == 0){... */\n      iszero\n      tag_107\n      jumpi\n        /* \"Contracts\":983:999  numberOfReferees */\n      0x04\n      0x00\n        /* \"Contracts\":983:1001  numberOfReferees++ */\n      dup2\n      sload\n      dup1\n      swap3\n      swap2\n      swap1\n      tag_108\n      swap1\n      tag_105\n      jump\t// in\n    tag_108:\n      swap2\n      swap1\n      pop\n      sstore\n      pop\n        /* \"Contracts\":1015:1031  refereeAddresses */\n      0x05\n        /* \"Contracts\":1037:1045  _referee */\n      dup5\n        /* \"Contracts\":1015:1046  refereeAddresses.push(_referee) */\n      swap1\n      dup1\n      0x01\n      dup2\n      sload\n      add\n      dup1\n      dup3\n      sstore\n      dup1\n      swap2\n      pop\n      pop\n      0x01\n      swap1\n      sub\n      swap1\n      0x00\n      mstore\n      keccak256(0x00, 0x20)\n      add\n      0x00\n      swap1\n      swap2\n      swap1\n      swap2\n      swap1\n      swap2\n      0x0100\n      exp\n      dup2\n      sload\n      dup2\n      0xffffffffffffffffffffffffffffffffffffffff\n      mul\n      not\n      and\n      swap1\n      dup4\n      0xffffffffffffffffffffffffffffffffffffffff\n      and\n      mul\n      or\n      swap1\n      sstore\n      pop\n        /* \"Contracts\":925:1057  if(referees[_referee].managedContracts == 0){... */\n    tag_107:\n        /* \"Contracts\":1066:1100  AccountabilityContract newContract */\n      0x00\n        /* \"Contracts\":1139:1148  msg.value */\n      callvalue\n        /* \"Contracts\":1150:1160  msg.sender */\n      caller\n        /* \"Contracts\":1162:1170  _referee */\n      dup7\n        /* \"Contracts\":1172:1177  _name */\n      dup7\n        /* \"Contracts\":1179:1191  _description */\n      dup7\n        /* \"Contracts\":1193:1210  _failureRecipient */\n      dup7\n        /* \"Contracts\":1212:1221  msg.value */\n      callvalue\n        /* \"Contracts\":1103:1222  (new AccountabilityContract){value: msg.value}(msg.sender, _referee, _name, _description, _failureRecipient, msg.value) */\n      mload(0x40)\n      tag_110\n      swap1\n      tag_111\n      jump\t// in\n    tag_110:\n      tag_112\n      swap7\n      swap6\n      swap5\n      swap4\n      swap3\n      swap2\n      swap1\n      tag_113\n      jump\t// in\n    tag_112:\n      mload(0x40)\n      dup1\n      swap2\n      sub\n      swap1\n      dup3\n      create\n      swap1\n      pop\n      dup1\n      iszero\n      dup1\n      iszero\n      tag_114\n      jumpi\n      returndatasize\n      0x00\n      dup1\n      returndatacopy\n      revert(0x00, returndatasize)\n    tag_114:\n      pop\n        /* \"Contracts\":1066:1222  AccountabilityContract newContract = (new AccountabilityContract){value: msg.value}(msg.sender, _referee, _name, _description, _failureRecipient, msg.value) */\n      swap1\n      pop\n        /* \"Contracts\":1232:1237  users */\n      0x00\n        /* \"Contracts\":1232:1249  users[msg.sender] */\n      dup1\n        /* \"Contracts\":1238:1248  msg.sender */\n      caller\n        /* \"Contracts\":1232:1249  users[msg.sender] */\n      0xffffffffffffffffffffffffffffffffffffffff\n      and\n      0xffffffffffffffffffffffffffffffffffffffff\n      and\n      dup2\n      mstore\n      0x20\n      add\n      swap1\n      dup2\n      mstore\n      0x20\n      add\n      0x00\n      keccak256\n        /* \"Contracts\":1232:1266  users[msg.sender].createdContracts */\n      0x00\n      add\n      0x00\n        /* \"Contracts\":1232:1268  users[msg.sender].createdContracts++ */\n      dup2\n      sload\n      dup1\n      swap3\n      swap2\n      swap1\n      tag_115\n      swap1\n      tag_105\n      jump\t// in\n    tag_115:\n      swap2\n      swap1\n      pop\n      sstore\n      pop\n        /* \"Contracts\":1278:1283  users */\n      0x00\n        /* \"Contracts\":1278:1295  users[msg.sender] */\n      dup1\n        /* \"Contracts\":1284:1294  msg.sender */\n      caller\n        /* \"Contracts\":1278:1295  users[msg.sender] */\n      0xffffffffffffffffffffffffffffffffffffffff\n      and\n      0xffffffffffffffffffffffffffffffffffffffff\n      and\n      dup2\n      mstore\n      0x20\n      add\n      swap1\n      dup2\n      mstore\n      0x20\n      add\n      0x00\n      keccak256\n        /* \"Contracts\":1278:1331  users[msg.sender].openAccountabilityContractAddresses */\n      0x01\n      add\n        /* \"Contracts\":1345:1356  newContract */\n      dup2\n        /* \"Contracts\":1278:1358  users[msg.sender].openAccountabilityContractAddresses.push(address(newContract)) */\n      swap1\n      dup1\n      0x01\n      dup2\n      sload\n      add\n      dup1\n      dup3\n      sstore\n      dup1\n      swap2\n      pop\n      pop\n      0x01\n      swap1\n      sub\n      swap1\n      0x00\n      mstore\n      keccak256(0x00, 0x20)\n      add\n      0x00\n      swap1\n      swap2\n      swap1\n      swap2\n      swap1\n      swap2\n      0x0100\n      exp\n      dup2\n      sload\n      dup2\n      0xffffffffffffffffffffffffffffffffffffffff\n      mul\n      not\n      and\n      swap1\n      dup4\n      0xffffffffffffffffffffffffffffffffffffffff\n      and\n      mul\n      or\n      swap1\n      sstore\n      pop\n        /* \"Contracts\":1368:1376  referees */\n      0x03\n        /* \"Contracts\":1368:1386  referees[_referee] */\n      0x00\n        /* \"Contracts\":1377:1385  _referee */\n      dup7\n        /* \"Contracts\":1368:1386  referees[_referee] */\n      0xffffffffffffffffffffffffffffffffffffffff\n      and\n      0xffffffffffffffffffffffffffffffffffffffff\n      and\n      dup2\n      mstore\n      0x20\n      add\n      swap1\n      dup2\n      mstore\n      0x20\n      add\n      0x00\n      keccak256\n        /* \"Contracts\":1368:1403  referees[_referee].managedContracts */\n      0x00\n      add\n      0x00\n        /* \"Contracts\":1368:1405  referees[_referee].managedContracts++ */\n      dup2\n      sload\n      dup1\n      swap3\n      swap2\n      swap1\n      tag_117\n      swap1\n      tag_105\n      jump\t// in\n    tag_117:\n      swap2\n      swap1\n      pop\n      sstore\n      pop\n        /* \"Contracts\":1415:1423  referees */\n      0x03\n        /* \"Contracts\":1415:1433  referees[_referee] */\n      0x00\n        /* \"Contracts\":1424:1432  _referee */\n      dup7\n        /* \"Contracts\":1415:1433  referees[_referee] */\n      0xffffffffffffffffffffffffffffffffffffffff\n      and\n      0xffffffffffffffffffffffffffffffffffffffff\n      and\n      dup2\n      mstore\n      0x20\n      add\n      swap1\n      dup2\n      mstore\n      0x20\n      add\n      0x00\n      keccak256\n        /* \"Contracts\":1415:1469  referees[_referee].openAccountabilityContractAddresses */\n      0x01\n      add\n        /* \"Contracts\":1483:1494  newContract */\n      dup2\n        /* \"Contracts\":1415:1496  referees[_referee].openAccountabilityContractAddresses.push(address(newContract)) */\n      swap1\n      dup1\n      0x01\n      dup2\n      sload\n      add\n      dup1\n      dup3\n      sstore\n      dup1\n      swap2\n      pop\n      pop\n      0x01\n      swap1\n      sub\n      swap1\n      0x00\n      mstore\n      keccak256(0x00, 0x20)\n      add\n      0x00\n      swap1\n      swap2\n      swap1\n      swap2\n      swap1\n      swap2\n      0x0100\n      exp\n      dup2\n      sload\n      dup2\n      0xffffffffffffffffffffffffffffffffffffffff\n      mul\n      not\n      and\n      swap1\n      dup4\n      0xffffffffffffffffffffffffffffffffffffffff\n      and\n      mul\n      or\n      swap1\n      sstore\n      pop\n        /* \"Contracts\":779:1503  {... */\n      pop\n        /* \"Contracts\":624:1503  function createAccountabilityContract(address _referee, string memory _name, string memory _description, address payable _failureRecipient) public payable {... */\n      pop\n      pop\n      pop\n      pop\n      jump\t// out\n        /* \"Contracts\":3520:4239  function moveOpenContractToClosedContractsForUser(address user, address contractAddress) private {... */\n    tag_80:\n        /* \"Contracts\":3627:3645  uint contractIndex */\n      0x00\n        /* \"Contracts\":3648:3694  getContractIndexForUser(user, contractAddress) */\n      tag_120\n        /* \"Contracts\":3672:3676  user */\n      dup4\n        /* \"Contracts\":3678:3693  contractAddress */\n      dup4\n        /* \"Contracts\":3648:3671  getContractIndexForUser */\n      tag_121\n        /* \"Contracts\":3648:3694  getContractIndexForUser(user, contractAddress) */\n      jump\t// in\n    tag_120:\n        /* \"Contracts\":3627:3694  uint contractIndex = getContractIndexForUser(user, contractAddress) */\n      swap1\n      pop\n        /* \"Contracts\":3704:3736  uint openContractAddressesLength */\n      0x00\n        /* \"Contracts\":3739:3744  users */\n      dup1\n        /* \"Contracts\":3739:3750  users[user] */\n      0x00\n        /* \"Contracts\":3745:3749  user */\n      dup6\n        /* \"Contracts\":3739:3750  users[user] */\n      0xffffffffffffffffffffffffffffffffffffffff\n      and\n      0xffffffffffffffffffffffffffffffffffffffff\n      and\n      dup2\n      mstore\n      0x20\n      add\n      swap1\n      dup2\n      mstore\n      0x20\n      add\n      0x00\n      keccak256\n        /* \"Contracts\":3739:3786  users[user].openAccountabilityContractAddresses */\n      0x01\n      add\n        /* \"Contracts\":3739:3793  users[user].openAccountabilityContractAddresses.length */\n      dup1\n      sload\n      swap1\n      pop\n        /* \"Contracts\":3704:3793  uint openContractAddressesLength = users[user].openAccountabilityContractAddresses.length */\n      swap1\n      pop\n        /* \"Contracts\":3808:3814  uint i */\n      0x00\n        /* \"Contracts\":3817:3830  contractIndex */\n      dup3\n        /* \"Contracts\":3808:3830  uint i = contractIndex */\n      swap1\n      pop\n        /* \"Contracts\":3803:3999  for (uint i = contractIndex; i<openContractAddressesLength-1; i++){... */\n    tag_122:\n        /* \"Contracts\":3862:3863  1 */\n      0x01\n        /* \"Contracts\":3834:3861  openContractAddressesLength */\n      dup3\n        /* \"Contracts\":3834:3863  openContractAddressesLength-1 */\n      tag_125\n      swap2\n      swap1\n      tag_126\n      jump\t// in\n    tag_125:\n        /* \"Contracts\":3832:3833  i */\n      dup2\n        /* \"Contracts\":3832:3863  i<openContractAddressesLength-1 */\n      lt\n        /* \"Contracts\":3803:3999  for (uint i = contractIndex; i<openContractAddressesLength-1; i++){... */\n      iszero\n      tag_123\n      jumpi\n        /* \"Contracts\":3936:3941  users */\n      0x00\n        /* \"Contracts\":3936:3947  users[user] */\n      dup1\n        /* \"Contracts\":3942:3946  user */\n      dup7\n        /* \"Contracts\":3936:3947  users[user] */\n      0xffffffffffffffffffffffffffffffffffffffff\n      and\n      0xffffffffffffffffffffffffffffffffffffffff\n      and\n      dup2\n      mstore\n      0x20\n      add\n      swap1\n      dup2\n      mstore\n      0x20\n      add\n      0x00\n      keccak256\n        /* \"Contracts\":3936:3983  users[user].openAccountabilityContractAddresses */\n      0x01\n      add\n        /* \"Contracts\":3986:3987  1 */\n      0x01\n        /* \"Contracts\":3984:3985  i */\n      dup3\n        /* \"Contracts\":3984:3987  i+1 */\n      tag_127\n      swap2\n      swap1\n      tag_128\n      jump\t// in\n    tag_127:\n        /* \"Contracts\":3936:3988  users[user].openAccountabilityContractAddresses[i+1] */\n      dup2\n      sload\n      dup2\n      lt\n      tag_129\n      jumpi\n      tag_130\n      tag_131\n      jump\t// in\n    tag_130:\n    tag_129:\n      swap1\n      0x00\n      mstore\n      keccak256(0x00, 0x20)\n      add\n      0x00\n      swap1\n      sload\n      swap1\n      0x0100\n      exp\n      swap1\n      div\n      0xffffffffffffffffffffffffffffffffffffffff\n      and\n        /* \"Contracts\":3883:3888  users */\n      0x00\n        /* \"Contracts\":3883:3894  users[user] */\n      dup1\n        /* \"Contracts\":3889:3893  user */\n      dup8\n        /* \"Contracts\":3883:3894  users[user] */\n      0xffffffffffffffffffffffffffffffffffffffff\n      and\n      0xffffffffffffffffffffffffffffffffffffffff\n      and\n      dup2\n      mstore\n      0x20\n      add\n      swap1\n      dup2\n      mstore\n      0x20\n      add\n      0x00\n      keccak256\n        /* \"Contracts\":3883:3930  users[user].openAccountabilityContractAddresses */\n      0x01\n      add\n        /* \"Contracts\":3931:3932  i */\n      dup3\n        /* \"Contracts\":3883:3933  users[user].openAccountabilityContractAddresses[i] */\n      dup2\n      sload\n      dup2\n      lt\n      tag_133\n      jumpi\n      tag_134\n      tag_131\n      jump\t// in\n    tag_134:\n    tag_133:\n      swap1\n      0x00\n      mstore\n      keccak256(0x00, 0x20)\n      add\n      0x00\n        /* \"Contracts\":3883:3988  users[user].openAccountabilityContractAddresses[i] = users[user].openAccountabilityContractAddresses[i+1] */\n      0x0100\n      exp\n      dup2\n      sload\n      dup2\n      0xffffffffffffffffffffffffffffffffffffffff\n      mul\n      not\n      and\n      swap1\n      dup4\n      0xffffffffffffffffffffffffffffffffffffffff\n      and\n      mul\n      or\n      swap1\n      sstore\n      pop\n        /* \"Contracts\":3865:3868  i++ */\n      dup1\n      dup1\n      tag_136\n      swap1\n      tag_105\n      jump\t// in\n    tag_136:\n      swap2\n      pop\n      pop\n        /* \"Contracts\":3803:3999  for (uint i = contractIndex; i<openContractAddressesLength-1; i++){... */\n      jump(tag_122)\n    tag_123:\n      pop\n        /* \"Contracts\":4008:4013  users */\n      0x00\n        /* \"Contracts\":4008:4019  users[user] */\n      dup1\n        /* \"Contracts\":4014:4018  user */\n      dup6\n        /* \"Contracts\":4008:4019  users[user] */\n      0xffffffffffffffffffffffffffffffffffffffff\n      and\n      0xffffffffffffffffffffffffffffffffffffffff\n      and\n      dup2\n      mstore\n      0x20\n      add\n      swap1\n      dup2\n      mstore\n      0x20\n      add\n      0x00\n      keccak256\n        /* \"Contracts\":4008:4057  users[user].closedAccountabilityContractAddresses */\n      0x02\n      add\n        /* \"Contracts\":4063:4068  users */\n      0x00\n        /* \"Contracts\":4063:4074  users[user] */\n      dup1\n        /* \"Contracts\":4069:4073  user */\n      dup7\n        /* \"Contracts\":4063:4074  users[user] */\n      0xffffffffffffffffffffffffffffffffffffffff\n      and\n      0xffffffffffffffffffffffffffffffffffffffff\n      and\n      dup2\n      mstore\n      0x20\n      add\n      swap1\n      dup2\n      mstore\n      0x20\n      add\n      0x00\n      keccak256\n        /* \"Contracts\":4063:4110  users[user].openAccountabilityContractAddresses */\n      0x01\n      add\n        /* \"Contracts\":4166:4167  1 */\n      0x01\n        /* \"Contracts\":4111:4116  users */\n      0x00\n        /* \"Contracts\":4111:4122  users[user] */\n      dup1\n        /* \"Contracts\":4117:4121  user */\n      dup9\n        /* \"Contracts\":4111:4122  users[user] */\n      0xffffffffffffffffffffffffffffffffffffffff\n      and\n      0xffffffffffffffffffffffffffffffffffffffff\n      and\n      dup2\n      mstore\n      0x20\n      add\n      swap1\n      dup2\n      mstore\n      0x20\n      add\n      0x00\n      keccak256\n        /* \"Contracts\":4111:4158  users[user].openAccountabilityContractAddresses */\n      0x01\n      add\n        /* \"Contracts\":4111:4165  users[user].openAccountabilityContractAddresses.length */\n      dup1\n      sload\n      swap1\n      pop\n        /* \"Contracts\":4111:4167  users[user].openAccountabilityContractAddresses.length-1 */\n      tag_137\n      swap2\n      swap1\n      tag_126\n      jump\t// in\n    tag_137:\n        /* \"Contracts\":4063:4168  users[user].openAccountabilityContractAddresses[users[user].openAccountabilityContractAddresses.length-1] */\n      dup2\n      sload\n      dup2\n      lt\n      tag_138\n      jumpi\n      tag_139\n      tag_131\n      jump\t// in\n    tag_139:\n    tag_138:\n      swap1\n      0x00\n      mstore\n      keccak256(0x00, 0x20)\n      add\n      0x00\n      swap1\n      sload\n      swap1\n      0x0100\n      exp\n      swap1\n      div\n      0xffffffffffffffffffffffffffffffffffffffff\n      and\n        /* \"Contracts\":4008:4169  users[user].closedAccountabilityContractAddresses.push(users[user].openAccountabilityContractAddresses[users[user].openAccountabilityContractAddresses.length-1]) */\n      swap1\n      dup1\n      0x01\n      dup2\n      sload\n      add\n      dup1\n      dup3\n      sstore\n      dup1\n      swap2\n      pop\n      pop\n      0x01\n      swap1\n      sub\n      swap1\n      0x00\n      mstore\n      keccak256(0x00, 0x20)\n      add\n      0x00\n      swap1\n      swap2\n      swap1\n      swap2\n      swap1\n      swap2\n      0x0100\n      exp\n      dup2\n      sload\n      dup2\n      0xffffffffffffffffffffffffffffffffffffffff\n      mul\n      not\n      and\n      swap1\n      dup4\n      0xffffffffffffffffffffffffffffffffffffffff\n      and\n      mul\n      or\n      swap1\n      sstore\n      pop\n        /* \"Contracts\":4179:4184  users */\n      0x00\n        /* \"Contracts\":4179:4190  users[user] */\n      dup1\n        /* \"Contracts\":4185:4189  user */\n      dup6\n        /* \"Contracts\":4179:4190  users[user] */\n      0xffffffffffffffffffffffffffffffffffffffff\n      and\n      0xffffffffffffffffffffffffffffffffffffffff\n      and\n      dup2\n      mstore\n      0x20\n      add\n      swap1\n      dup2\n      mstore\n      0x20\n      add\n      0x00\n      keccak256\n        /* \"Contracts\":4179:4226  users[user].openAccountabilityContractAddresses */\n      0x01\n      add\n        /* \"Contracts\":4179:4232  users[user].openAccountabilityContractAddresses.pop() */\n      dup1\n      sload\n      dup1\n      tag_142\n      jumpi\n      tag_143\n      tag_144\n      jump\t// in\n    tag_143:\n    tag_142:\n      0x01\n      swap1\n      sub\n      dup2\n      dup2\n      swap1\n      0x00\n      mstore\n      keccak256(0x00, 0x20)\n      add\n      exp(0x0100, 0x00)\n      dup2\n      sload\n      swap1\n      0xffffffffffffffffffffffffffffffffffffffff\n      mul\n      not\n      and\n      swap1\n      sstore\n      swap1\n      sstore\n        /* \"Contracts\":3617:4239  {... */\n      pop\n      pop\n        /* \"Contracts\":3520:4239  function moveOpenContractToClosedContractsForUser(address user, address contractAddress) private {... */\n      pop\n      pop\n      jump\t// out\n        /* \"Contracts\":4674:5376  function moveOpenContractToClosedContractsForReferee(address referee, address contractAddress) private {... */\n    tag_86:\n        /* \"Contracts\":4788:4806  uint contractIndex */\n      0x00\n        /* \"Contracts\":4809:4861  getContractIndexForReferee(referee, contractAddress) */\n      tag_147\n        /* \"Contracts\":4836:4843  referee */\n      dup4\n        /* \"Contracts\":4845:4860  contractAddress */\n      dup4\n        /* \"Contracts\":4809:4835  getContractIndexForReferee */\n      tag_148\n        /* \"Contracts\":4809:4861  getContractIndexForReferee(referee, contractAddress) */\n      jump\t// in\n    tag_147:\n        /* \"Contracts\":4788:4861  uint contractIndex = getContractIndexForReferee(referee, contractAddress) */\n      swap1\n      pop\n        /* \"Contracts\":4876:4882  uint i */\n      0x00\n        /* \"Contracts\":4885:4898  contractIndex */\n      dup2\n        /* \"Contracts\":4876:4898  uint i = contractIndex */\n      swap1\n      pop\n        /* \"Contracts\":4871:5112  for (uint i = contractIndex; i<referees[referee].openAccountabilityContractAddresses.length-1; i++){... */\n    tag_149:\n        /* \"Contracts\":4963:4964  1 */\n      0x01\n        /* \"Contracts\":4902:4910  referees */\n      0x03\n        /* \"Contracts\":4902:4919  referees[referee] */\n      0x00\n        /* \"Contracts\":4911:4918  referee */\n      dup7\n        /* \"Contracts\":4902:4919  referees[referee] */\n      0xffffffffffffffffffffffffffffffffffffffff\n      and\n      0xffffffffffffffffffffffffffffffffffffffff\n      and\n      dup2\n      mstore\n      0x20\n      add\n      swap1\n      dup2\n      mstore\n      0x20\n      add\n      0x00\n      keccak256\n        /* \"Contracts\":4902:4955  referees[referee].openAccountabilityContractAddresses */\n      0x01\n      add\n        /* \"Contracts\":4902:4962  referees[referee].openAccountabilityContractAddresses.length */\n      dup1\n      sload\n      swap1\n      pop\n        /* \"Contracts\":4902:4964  referees[referee].openAccountabilityContractAddresses.length-1 */\n      tag_152\n      swap2\n      swap1\n      tag_126\n      jump\t// in\n    tag_152:\n        /* \"Contracts\":4900:4901  i */\n      dup2\n        /* \"Contracts\":4900:4964  i<referees[referee].openAccountabilityContractAddresses.length-1 */\n      lt\n        /* \"Contracts\":4871:5112  for (uint i = contractIndex; i<referees[referee].openAccountabilityContractAddresses.length-1; i++){... */\n      iszero\n      tag_150\n      jumpi\n        /* \"Contracts\":5043:5051  referees */\n      0x03\n        /* \"Contracts\":5043:5060  referees[referee] */\n      0x00\n        /* \"Contracts\":5052:5059  referee */\n      dup6\n        /* \"Contracts\":5043:5060  referees[referee] */\n      0xffffffffffffffffffffffffffffffffffffffff\n      and\n      0xffffffffffffffffffffffffffffffffffffffff\n      and\n      dup2\n      mstore\n      0x20\n      add\n      swap1\n      dup2\n      mstore\n      0x20\n      add\n      0x00\n      keccak256\n        /* \"Contracts\":5043:5096  referees[referee].openAccountabilityContractAddresses */\n      0x01\n      add\n        /* \"Contracts\":5099:5100  1 */\n      0x01\n        /* \"Contracts\":5097:5098  i */\n      dup3\n        /* \"Contracts\":5097:5100  i+1 */\n      tag_153\n      swap2\n      swap1\n      tag_128\n      jump\t// in\n    tag_153:\n        /* \"Contracts\":5043:5101  referees[referee].openAccountabilityContractAddresses[i+1] */\n      dup2\n      sload\n      dup2\n      lt\n      tag_154\n      jumpi\n      tag_155\n      tag_131\n      jump\t// in\n    tag_155:\n    tag_154:\n      swap1\n      0x00\n      mstore\n      keccak256(0x00, 0x20)\n      add\n      0x00\n      swap1\n      sload\n      swap1\n      0x0100\n      exp\n      swap1\n      div\n      0xffffffffffffffffffffffffffffffffffffffff\n      and\n        /* \"Contracts\":4984:4992  referees */\n      0x03\n        /* \"Contracts\":4984:5001  referees[referee] */\n      0x00\n        /* \"Contracts\":4993:5000  referee */\n      dup7\n        /* \"Contracts\":4984:5001  referees[referee] */\n      0xffffffffffffffffffffffffffffffffffffffff\n      and\n      0xffffffffffffffffffffffffffffffffffffffff\n      and\n      dup2\n      mstore\n      0x20\n      add\n      swap1\n      dup2\n      mstore\n      0x20\n      add\n      0x00\n      keccak256\n        /* \"Contracts\":4984:5037  referees[referee].openAccountabilityContractAddresses */\n      0x01\n      add\n        /* \"Contracts\":5038:5039  i */\n      dup3\n        /* \"Contracts\":4984:5040  referees[referee].openAccountabilityContractAddresses[i] */\n      dup2\n      sload\n      dup2\n      lt\n      tag_157\n      jumpi\n      tag_158\n      tag_131\n      jump\t// in\n    tag_158:\n    tag_157:\n      swap1\n      0x00\n      mstore\n      keccak256(0x00, 0x20)\n      add\n      0x00\n        /* \"Contracts\":4984:5101  referees[referee].openAccountabilityContractAddresses[i] = referees[referee].openAccountabilityContractAddresses[i+1] */\n      0x0100\n      exp\n      dup2\n      sload\n      dup2\n      0xffffffffffffffffffffffffffffffffffffffff\n      mul\n      not\n      and\n      swap1\n      dup4\n      0xffffffffffffffffffffffffffffffffffffffff\n      and\n      mul\n      or\n      swap1\n      sstore\n      pop\n        /* \"Contracts\":4966:4969  i++ */\n      dup1\n      dup1\n      tag_160\n      swap1\n      tag_105\n      jump\t// in\n    tag_160:\n      swap2\n      pop\n      pop\n        /* \"Contracts\":4871:5112  for (uint i = contractIndex; i<referees[referee].openAccountabilityContractAddresses.length-1; i++){... */\n      jump(tag_149)\n    tag_150:\n      pop\n        /* \"Contracts\":5121:5129  referees */\n      0x03\n        /* \"Contracts\":5121:5138  referees[referee] */\n      0x00\n        /* \"Contracts\":5130:5137  referee */\n      dup5\n        /* \"Contracts\":5121:5138  referees[referee] */\n      0xffffffffffffffffffffffffffffffffffffffff\n      and\n      0xffffffffffffffffffffffffffffffffffffffff\n      and\n      dup2\n      mstore\n      0x20\n      add\n      swap1\n      dup2\n      mstore\n      0x20\n      add\n      0x00\n      keccak256\n        /* \"Contracts\":5121:5176  referees[referee].closedAccountabilityContractAddresses */\n      0x02\n      add\n        /* \"Contracts\":5182:5190  referees */\n      0x03\n        /* \"Contracts\":5182:5199  referees[referee] */\n      0x00\n        /* \"Contracts\":5191:5198  referee */\n      dup6\n        /* \"Contracts\":5182:5199  referees[referee] */\n      0xffffffffffffffffffffffffffffffffffffffff\n      and\n      0xffffffffffffffffffffffffffffffffffffffff\n      and\n      dup2\n      mstore\n      0x20\n      add\n      swap1\n      dup2\n      mstore\n      0x20\n      add\n      0x00\n      keccak256\n        /* \"Contracts\":5182:5235  referees[referee].openAccountabilityContractAddresses */\n      0x01\n      add\n        /* \"Contracts\":5297:5298  1 */\n      0x01\n        /* \"Contracts\":5236:5244  referees */\n      0x03\n        /* \"Contracts\":5236:5253  referees[referee] */\n      0x00\n        /* \"Contracts\":5245:5252  referee */\n      dup8\n        /* \"Contracts\":5236:5253  referees[referee] */\n      0xffffffffffffffffffffffffffffffffffffffff\n      and\n      0xffffffffffffffffffffffffffffffffffffffff\n      and\n      dup2\n      mstore\n      0x20\n      add\n      swap1\n      dup2\n      mstore\n      0x20\n      add\n      0x00\n      keccak256\n        /* \"Contracts\":5236:5289  referees[referee].openAccountabilityContractAddresses */\n      0x01\n      add\n        /* \"Contracts\":5236:5296  referees[referee].openAccountabilityContractAddresses.length */\n      dup1\n      sload\n      swap1\n      pop\n        /* \"Contracts\":5236:5298  referees[referee].openAccountabilityContractAddresses.length-1 */\n      tag_161\n      swap2\n      swap1\n      tag_126\n      jump\t// in\n    tag_161:\n        /* \"Contracts\":5182:5299  referees[referee].openAccountabilityContractAddresses[referees[referee].openAccountabilityContractAddresses.length-1] */\n      dup2\n      sload\n      dup2\n      lt\n      tag_162\n      jumpi\n      tag_163\n      tag_131\n      jump\t// in\n    tag_163:\n    tag_162:\n      swap1\n      0x00\n      mstore\n      keccak256(0x00, 0x20)\n      add\n      0x00\n      swap1\n      sload\n      swap1\n      0x0100\n      exp\n      swap1\n      div\n      0xffffffffffffffffffffffffffffffffffffffff\n      and\n        /* \"Contracts\":5121:5300  referees[referee].closedAccountabilityContractAddresses.push(referees[referee].openAccountabilityContractAddresses[referees[referee].openAccountabilityContractAddresses.length-1]) */\n      swap1\n      dup1\n      0x01\n      dup2\n      sload\n      add\n      dup1\n      dup3\n      sstore\n      dup1\n      swap2\n      pop\n      pop\n      0x01\n      swap1\n      sub\n      swap1\n      0x00\n      mstore\n      keccak256(0x00, 0x20)\n      add\n      0x00\n      swap1\n      swap2\n      swap1\n      swap2\n      swap1\n      swap2\n      0x0100\n      exp\n      dup2\n      sload\n      dup2\n      0xffffffffffffffffffffffffffffffffffffffff\n      mul\n      not\n      and\n      swap1\n      dup4\n      0xffffffffffffffffffffffffffffffffffffffff\n      and\n      mul\n      or\n      swap1\n      sstore\n      pop\n        /* \"Contracts\":5310:5318  referees */\n      0x03\n        /* \"Contracts\":5310:5327  referees[referee] */\n      0x00\n        /* \"Contracts\":5319:5326  referee */\n      dup5\n        /* \"Contracts\":5310:5327  referees[referee] */\n      0xffffffffffffffffffffffffffffffffffffffff\n      and\n      0xffffffffffffffffffffffffffffffffffffffff\n      and\n      dup2\n      mstore\n      0x20\n      add\n      swap1\n      dup2\n      mstore\n      0x20\n      add\n      0x00\n      keccak256\n        /* \"Contracts\":5310:5363  referees[referee].openAccountabilityContractAddresses */\n      0x01\n      add\n        /* \"Contracts\":5310:5369  referees[referee].openAccountabilityContractAddresses.pop() */\n      dup1\n      sload\n      dup1\n      tag_166\n      jumpi\n      tag_167\n      tag_144\n      jump\t// in\n    tag_167:\n    tag_166:\n      0x01\n      swap1\n      sub\n      dup2\n      dup2\n      swap1\n      0x00\n      mstore\n      keccak256(0x00, 0x20)\n      add\n      exp(0x0100, 0x00)\n      dup2\n      sload\n      swap1\n      0xffffffffffffffffffffffffffffffffffffffff\n      mul\n      not\n      and\n      swap1\n      sstore\n      swap1\n      sstore\n        /* \"Contracts\":4777:5376  {... */\n      pop\n        /* \"Contracts\":4674:5376  function moveOpenContractToClosedContractsForReferee(address referee, address contractAddress) private {... */\n      pop\n      pop\n      jump\t// out\n        /* \"Contracts\":3108:3514  function getContractIndexForUser(address user, address contractAddress) view private returns (uint){... */\n    tag_121:\n        /* \"Contracts\":3202:3206  uint */\n      0x00\n        /* \"Contracts\":3217:3235  uint contractIndex */\n      dup1\n        /* \"Contracts\":3250:3256  uint i */\n      0x00\n        /* \"Contracts\":3245:3478  for (uint i = 0; i<=users[user].openAccountabilityContractAddresses.length-1; i++){... */\n    tag_170:\n        /* \"Contracts\":3320:3321  1 */\n      0x01\n        /* \"Contracts\":3265:3270  users */\n      0x00\n        /* \"Contracts\":3265:3276  users[user] */\n      dup1\n        /* \"Contracts\":3271:3275  user */\n      dup8\n        /* \"Contracts\":3265:3276  users[user] */\n      0xffffffffffffffffffffffffffffffffffffffff\n      and\n      0xffffffffffffffffffffffffffffffffffffffff\n      and\n      dup2\n      mstore\n      0x20\n      add\n      swap1\n      dup2\n      mstore\n      0x20\n      add\n      0x00\n      keccak256\n        /* \"Contracts\":3265:3312  users[user].openAccountabilityContractAddresses */\n      0x01\n      add\n        /* \"Contracts\":3265:3319  users[user].openAccountabilityContractAddresses.length */\n      dup1\n      sload\n      swap1\n      pop\n        /* \"Contracts\":3265:3321  users[user].openAccountabilityContractAddresses.length-1 */\n      tag_173\n      swap2\n      swap1\n      tag_126\n      jump\t// in\n    tag_173:\n        /* \"Contracts\":3262:3263  i */\n      dup2\n        /* \"Contracts\":3262:3321  i<=users[user].openAccountabilityContractAddresses.length-1 */\n      gt\n        /* \"Contracts\":3245:3478  for (uint i = 0; i<=users[user].openAccountabilityContractAddresses.length-1; i++){... */\n      tag_171\n      jumpi\n        /* \"Contracts\":3398:3413  contractAddress */\n      dup4\n        /* \"Contracts\":3344:3413  users[user].openAccountabilityContractAddresses[i] == contractAddress */\n      0xffffffffffffffffffffffffffffffffffffffff\n      and\n        /* \"Contracts\":3344:3349  users */\n      0x00\n        /* \"Contracts\":3344:3355  users[user] */\n      dup1\n        /* \"Contracts\":3350:3354  user */\n      dup8\n        /* \"Contracts\":3344:3355  users[user] */\n      0xffffffffffffffffffffffffffffffffffffffff\n      and\n      0xffffffffffffffffffffffffffffffffffffffff\n      and\n      dup2\n      mstore\n      0x20\n      add\n      swap1\n      dup2\n      mstore\n      0x20\n      add\n      0x00\n      keccak256\n        /* \"Contracts\":3344:3391  users[user].openAccountabilityContractAddresses */\n      0x01\n      add\n        /* \"Contracts\":3392:3393  i */\n      dup3\n        /* \"Contracts\":3344:3394  users[user].openAccountabilityContractAddresses[i] */\n      dup2\n      sload\n      dup2\n      lt\n      tag_174\n      jumpi\n      tag_175\n      tag_131\n      jump\t// in\n    tag_175:\n    tag_174:\n      swap1\n      0x00\n      mstore\n      keccak256(0x00, 0x20)\n      add\n      0x00\n      swap1\n      sload\n      swap1\n      0x0100\n      exp\n      swap1\n      div\n      0xffffffffffffffffffffffffffffffffffffffff\n      and\n        /* \"Contracts\":3344:3413  users[user].openAccountabilityContractAddresses[i] == contractAddress */\n      0xffffffffffffffffffffffffffffffffffffffff\n      and\n      eq\n        /* \"Contracts\":3341:3468  if(users[user].openAccountabilityContractAddresses[i] == contractAddress){... */\n      iszero\n      tag_177\n      jumpi\n        /* \"Contracts\":3448:3449  i */\n      dup1\n        /* \"Contracts\":3432:3449  contractIndex = i */\n      swap2\n      pop\n        /* \"Contracts\":3341:3468  if(users[user].openAccountabilityContractAddresses[i] == contractAddress){... */\n    tag_177:\n        /* \"Contracts\":3323:3326  i++ */\n      dup1\n      dup1\n      tag_178\n      swap1\n      tag_105\n      jump\t// in\n    tag_178:\n      swap2\n      pop\n      pop\n        /* \"Contracts\":3245:3478  for (uint i = 0; i<=users[user].openAccountabilityContractAddresses.length-1; i++){... */\n      jump(tag_170)\n    tag_171:\n      pop\n        /* \"Contracts\":3494:3507  contractIndex */\n      dup1\n        /* \"Contracts\":3487:3507  return contractIndex */\n      swap2\n      pop\n      pop\n        /* \"Contracts\":3108:3514  function getContractIndexForUser(address user, address contractAddress) view private returns (uint){... */\n      swap3\n      swap2\n      pop\n      pop\n      jump\t// out\n        /* \"Contracts\":4247:4667  function getContractIndexForReferee(address referee, address contractAddress) view private returns (uint){... */\n    tag_148:\n        /* \"Contracts\":4347:4351  uint */\n      0x00\n        /* \"Contracts\":4362:4380  uint contractIndex */\n      dup1\n        /* \"Contracts\":4395:4401  uint i */\n      0x00\n        /* \"Contracts\":4390:4631  for (uint i = 0; i<=referees[referee].openAccountabilityContractAddresses.length-1; i++){... */\n    tag_180:\n        /* \"Contracts\":4471:4472  1 */\n      0x01\n        /* \"Contracts\":4410:4418  referees */\n      0x03\n        /* \"Contracts\":4410:4427  referees[referee] */\n      0x00\n        /* \"Contracts\":4419:4426  referee */\n      dup8\n        /* \"Contracts\":4410:4427  referees[referee] */\n      0xffffffffffffffffffffffffffffffffffffffff\n      and\n      0xffffffffffffffffffffffffffffffffffffffff\n      and\n      dup2\n      mstore\n      0x20\n      add\n      swap1\n      dup2\n      mstore\n      0x20\n      add\n      0x00\n      keccak256\n        /* \"Contracts\":4410:4463  referees[referee].openAccountabilityContractAddresses */\n      0x01\n      add\n        /* \"Contracts\":4410:4470  referees[referee].openAccountabilityContractAddresses.length */\n      dup1\n      sload\n      swap1\n      pop\n        /* \"Contracts\":4410:4472  referees[referee].openAccountabilityContractAddresses.length-1 */\n      tag_183\n      swap2\n      swap1\n      tag_126\n      jump\t// in\n    tag_183:\n        /* \"Contracts\":4407:4408  i */\n      dup2\n        /* \"Contracts\":4407:4472  i<=referees[referee].openAccountabilityContractAddresses.length-1 */\n      gt\n        /* \"Contracts\":4390:4631  for (uint i = 0; i<=referees[referee].openAccountabilityContractAddresses.length-1; i++){... */\n      tag_181\n      jumpi\n        /* \"Contracts\":4555:4570  contractAddress */\n      dup4\n        /* \"Contracts\":4495:4570  referees[referee].openAccountabilityContractAddresses[i] == contractAddress */\n      0xffffffffffffffffffffffffffffffffffffffff\n      and\n        /* \"Contracts\":4495:4503  referees */\n      0x03\n        /* \"Contracts\":4495:4512  referees[referee] */\n      0x00\n        /* \"Contracts\":4504:4511  referee */\n      dup8\n        /* \"Contracts\":4495:4512  referees[referee] */\n      0xffffffffffffffffffffffffffffffffffffffff\n      and\n      0xffffffffffffffffffffffffffffffffffffffff\n      and\n      dup2\n      mstore\n      0x20\n      add\n      swap1\n      dup2\n      mstore\n      0x20\n      add\n      0x00\n      keccak256\n        /* \"Contracts\":4495:4548  referees[referee].openAccountabilityContractAddresses */\n      0x01\n      add\n        /* \"Contracts\":4549:4550  i */\n      dup3\n        /* \"Contracts\":4495:4551  referees[referee].openAccountabilityContractAddresses[i] */\n      dup2\n      sload\n      dup2\n      lt\n      tag_184\n      jumpi\n      tag_185\n      tag_131\n      jump\t// in\n    tag_185:\n    tag_184:\n      swap1\n      0x00\n      mstore\n      keccak256(0x00, 0x20)\n      add\n      0x00\n      swap1\n      sload\n      swap1\n      0x0100\n      exp\n      swap1\n      div\n      0xffffffffffffffffffffffffffffffffffffffff\n      and\n        /* \"Contracts\":4495:4570  referees[referee].openAccountabilityContractAddresses[i] == contractAddress */\n      0xffffffffffffffffffffffffffffffffffffffff\n      and\n      eq\n        /* \"Contracts\":4492:4621  if(referees[referee].openAccountabilityContractAddresses[i] == contractAddress){... */\n      iszero\n      tag_187\n      jumpi\n        /* \"Contracts\":4605:4606  i */\n      dup1\n        /* \"Contracts\":4589:4606  contractIndex = i */\n      swap2\n      pop\n        /* \"Contracts\":4492:4621  if(referees[referee].openAccountabilityContractAddresses[i] == contractAddress){... */\n    tag_187:\n        /* \"Contracts\":4474:4477  i++ */\n      dup1\n      dup1\n      tag_188\n      swap1\n      tag_105\n      jump\t// in\n    tag_188:\n      swap2\n      pop\n      pop\n        /* \"Contracts\":4390:4631  for (uint i = 0; i<=referees[referee].openAccountabilityContractAddresses.length-1; i++){... */\n      jump(tag_180)\n    tag_181:\n      pop\n        /* \"Contracts\":4647:4660  contractIndex */\n      dup1\n        /* \"Contracts\":4640:4660  return contractIndex */\n      swap2\n      pop\n      pop\n        /* \"Contracts\":4247:4667  function getContractIndexForReferee(address referee, address contractAddress) view private returns (uint){... */\n      swap3\n      swap2\n      pop\n      pop\n      jump\t// out\n    tag_111:\n      dataSize(sub_0)\n      dup1\n      dataOffset(sub_0)\n      dup4\n      codecopy\n      add\n      swap1\n      jump\t// out\n        /* \"#utility.yul\":7:82   */\n    tag_189:\n        /* \"#utility.yul\":40:46   */\n      0x00\n        /* \"#utility.yul\":73:75   */\n      0x40\n        /* \"#utility.yul\":67:76   */\n      mload\n        /* \"#utility.yul\":57:76   */\n      swap1\n      pop\n        /* \"#utility.yul\":7:82   */\n      swap1\n      jump\t// out\n        /* \"#utility.yul\":88:205   */\n    tag_190:\n        /* \"#utility.yul\":197:198   */\n      0x00\n        /* \"#utility.yul\":194:195   */\n      dup1\n        /* \"#utility.yul\":187:199   */\n      revert\n        /* \"#utility.yul\":211:328   */\n    tag_191:\n        /* \"#utility.yul\":320:321   */\n      0x00\n        /* \"#utility.yul\":317:318   */\n      dup1\n        /* \"#utility.yul\":310:322   */\n      revert\n        /* \"#utility.yul\":334:460   */\n    tag_192:\n        /* \"#utility.yul\":371:378   */\n      0x00\n        /* \"#utility.yul\":411:453   */\n      0xffffffffffffffffffffffffffffffffffffffff\n        /* \"#utility.yul\":404:409   */\n      dup3\n        /* \"#utility.yul\":400:454   */\n      and\n        /* \"#utility.yul\":389:454   */\n      swap1\n      pop\n        /* \"#utility.yul\":334:460   */\n      swap2\n      swap1\n      pop\n      jump\t// out\n        /* \"#utility.yul\":466:562   */\n    tag_193:\n        /* \"#utility.yul\":503:510   */\n      0x00\n        /* \"#utility.yul\":532:556   */\n      tag_239\n        /* \"#utility.yul\":550:555   */\n      dup3\n        /* \"#utility.yul\":532:556   */\n      tag_192\n      jump\t// in\n    tag_239:\n        /* \"#utility.yul\":521:556   */\n      swap1\n      pop\n        /* \"#utility.yul\":466:562   */\n      swap2\n      swap1\n      pop\n      jump\t// out\n        /* \"#utility.yul\":568:690   */\n    tag_194:\n        /* \"#utility.yul\":641:665   */\n      tag_241\n        /* \"#utility.yul\":659:664   */\n      dup2\n        /* \"#utility.yul\":641:665   */\n      tag_193\n      jump\t// in\n    tag_241:\n        /* \"#utility.yul\":634:639   */\n      dup2\n        /* \"#utility.yul\":631:666   */\n      eq\n        /* \"#utility.yul\":621:684   */\n      tag_242\n      jumpi\n        /* \"#utility.yul\":680:681   */\n      0x00\n        /* \"#utility.yul\":677:678   */\n      dup1\n        /* \"#utility.yul\":670:682   */\n      revert\n        /* \"#utility.yul\":621:684   */\n    tag_242:\n        /* \"#utility.yul\":568:690   */\n      pop\n      jump\t// out\n        /* \"#utility.yul\":696:835   */\n    tag_195:\n        /* \"#utility.yul\":742:747   */\n      0x00\n        /* \"#utility.yul\":780:786   */\n      dup2\n        /* \"#utility.yul\":767:787   */\n      calldataload\n        /* \"#utility.yul\":758:787   */\n      swap1\n      pop\n        /* \"#utility.yul\":796:829   */\n      tag_244\n        /* \"#utility.yul\":823:828   */\n      dup2\n        /* \"#utility.yul\":796:829   */\n      tag_194\n      jump\t// in\n    tag_244:\n        /* \"#utility.yul\":696:835   */\n      swap3\n      swap2\n      pop\n      pop\n      jump\t// out\n        /* \"#utility.yul\":841:1170   */\n    tag_17:\n        /* \"#utility.yul\":900:906   */\n      0x00\n        /* \"#utility.yul\":949:951   */\n      0x20\n        /* \"#utility.yul\":937:946   */\n      dup3\n        /* \"#utility.yul\":928:935   */\n      dup5\n        /* \"#utility.yul\":924:947   */\n      sub\n        /* \"#utility.yul\":920:952   */\n      slt\n        /* \"#utility.yul\":917:1036   */\n      iszero\n      tag_246\n      jumpi\n        /* \"#utility.yul\":955:1034   */\n      tag_247\n      tag_190\n      jump\t// in\n    tag_247:\n        /* \"#utility.yul\":917:1036   */\n    tag_246:\n        /* \"#utility.yul\":1075:1076   */\n      0x00\n        /* \"#utility.yul\":1100:1153   */\n      tag_248\n        /* \"#utility.yul\":1145:1152   */\n      dup5\n        /* \"#utility.yul\":1136:1142   */\n      dup3\n        /* \"#utility.yul\":1125:1134   */\n      dup6\n        /* \"#utility.yul\":1121:1143   */\n      add\n        /* \"#utility.yul\":1100:1153   */\n      tag_195\n      jump\t// in\n    tag_248:\n        /* \"#utility.yul\":1090:1153   */\n      swap2\n      pop\n        /* \"#utility.yul\":1046:1163   */\n      pop\n        /* \"#utility.yul\":841:1170   */\n      swap3\n      swap2\n      pop\n      pop\n      jump\t// out\n        /* \"#utility.yul\":1176:1290   */\n    tag_196:\n        /* \"#utility.yul\":1243:1249   */\n      0x00\n        /* \"#utility.yul\":1277:1282   */\n      dup2\n        /* \"#utility.yul\":1271:1283   */\n      mload\n        /* \"#utility.yul\":1261:1283   */\n      swap1\n      pop\n        /* \"#utility.yul\":1176:1290   */\n      swap2\n      swap1\n      pop\n      jump\t// out\n        /* \"#utility.yul\":1296:1480   */\n    tag_197:\n        /* \"#utility.yul\":1395:1406   */\n      0x00\n        /* \"#utility.yul\":1429:1435   */\n      dup3\n        /* \"#utility.yul\":1424:1427   */\n      dup3\n        /* \"#utility.yul\":1417:1436   */\n      mstore\n        /* \"#utility.yul\":1469:1473   */\n      0x20\n        /* \"#utility.yul\":1464:1467   */\n      dup3\n        /* \"#utility.yul\":1460:1474   */\n      add\n        /* \"#utility.yul\":1445:1474   */\n      swap1\n      pop\n        /* \"#utility.yul\":1296:1480   */\n      swap3\n      swap2\n      pop\n      pop\n      jump\t// out\n        /* \"#utility.yul\":1486:1618   */\n    tag_198:\n        /* \"#utility.yul\":1553:1557   */\n      0x00\n        /* \"#utility.yul\":1576:1579   */\n      dup2\n        /* \"#utility.yul\":1568:1579   */\n      swap1\n      pop\n        /* \"#utility.yul\":1606:1610   */\n      0x20\n        /* \"#utility.yul\":1601:1604   */\n      dup3\n        /* \"#utility.yul\":1597:1611   */\n      add\n        /* \"#utility.yul\":1589:1611   */\n      swap1\n      pop\n        /* \"#utility.yul\":1486:1618   */\n      swap2\n      swap1\n      pop\n      jump\t// out\n        /* \"#utility.yul\":1624:1732   */\n    tag_199:\n        /* \"#utility.yul\":1701:1725   */\n      tag_253\n        /* \"#utility.yul\":1719:1724   */\n      dup2\n        /* \"#utility.yul\":1701:1725   */\n      tag_193\n      jump\t// in\n    tag_253:\n        /* \"#utility.yul\":1696:1699   */\n      dup3\n        /* \"#utility.yul\":1689:1726   */\n      mstore\n        /* \"#utility.yul\":1624:1732   */\n      pop\n      pop\n      jump\t// out\n        /* \"#utility.yul\":1738:1917   */\n    tag_200:\n        /* \"#utility.yul\":1807:1817   */\n      0x00\n        /* \"#utility.yul\":1828:1874   */\n      tag_255\n        /* \"#utility.yul\":1870:1873   */\n      dup4\n        /* \"#utility.yul\":1862:1868   */\n      dup4\n        /* \"#utility.yul\":1828:1874   */\n      tag_199\n      jump\t// in\n    tag_255:\n        /* \"#utility.yul\":1906:1910   */\n      0x20\n        /* \"#utility.yul\":1901:1904   */\n      dup4\n        /* \"#utility.yul\":1897:1911   */\n      add\n        /* \"#utility.yul\":1883:1911   */\n      swap1\n      pop\n        /* \"#utility.yul\":1738:1917   */\n      swap3\n      swap2\n      pop\n      pop\n      jump\t// out\n        /* \"#utility.yul\":1923:2036   */\n    tag_201:\n        /* \"#utility.yul\":1993:1997   */\n      0x00\n        /* \"#utility.yul\":2025:2029   */\n      0x20\n        /* \"#utility.yul\":2020:2023   */\n      dup3\n        /* \"#utility.yul\":2016:2030   */\n      add\n        /* \"#utility.yul\":2008:2030   */\n      swap1\n      pop\n        /* \"#utility.yul\":1923:2036   */\n      swap2\n      swap1\n      pop\n      jump\t// out\n        /* \"#utility.yul\":2072:2804   */\n    tag_202:\n        /* \"#utility.yul\":2191:2194   */\n      0x00\n        /* \"#utility.yul\":2220:2274   */\n      tag_258\n        /* \"#utility.yul\":2268:2273   */\n      dup3\n        /* \"#utility.yul\":2220:2274   */\n      tag_196\n      jump\t// in\n    tag_258:\n        /* \"#utility.yul\":2290:2376   */\n      tag_259\n        /* \"#utility.yul\":2369:2375   */\n      dup2\n        /* \"#utility.yul\":2364:2367   */\n      dup6\n        /* \"#utility.yul\":2290:2376   */\n      tag_197\n      jump\t// in\n    tag_259:\n        /* \"#utility.yul\":2283:2376   */\n      swap4\n      pop\n        /* \"#utility.yul\":2400:2456   */\n      tag_260\n        /* \"#utility.yul\":2450:2455   */\n      dup4\n        /* \"#utility.yul\":2400:2456   */\n      tag_198\n      jump\t// in\n    tag_260:\n        /* \"#utility.yul\":2479:2486   */\n      dup1\n        /* \"#utility.yul\":2510:2511   */\n      0x00\n        /* \"#utility.yul\":2495:2779   */\n    tag_261:\n        /* \"#utility.yul\":2520:2526   */\n      dup4\n        /* \"#utility.yul\":2517:2518   */\n      dup2\n        /* \"#utility.yul\":2514:2527   */\n      lt\n        /* \"#utility.yul\":2495:2779   */\n      iszero\n      tag_263\n      jumpi\n        /* \"#utility.yul\":2596:2602   */\n      dup2\n        /* \"#utility.yul\":2590:2603   */\n      mload\n        /* \"#utility.yul\":2623:2686   */\n      tag_264\n        /* \"#utility.yul\":2682:2685   */\n      dup9\n        /* \"#utility.yul\":2667:2680   */\n      dup3\n        /* \"#utility.yul\":2623:2686   */\n      tag_200\n      jump\t// in\n    tag_264:\n        /* \"#utility.yul\":2616:2686   */\n      swap8\n      pop\n        /* \"#utility.yul\":2709:2769   */\n      tag_265\n        /* \"#utility.yul\":2762:2768   */\n      dup4\n        /* \"#utility.yul\":2709:2769   */\n      tag_201\n      jump\t// in\n    tag_265:\n        /* \"#utility.yul\":2699:2769   */\n      swap3\n      pop\n        /* \"#utility.yul\":2555:2779   */\n      pop\n        /* \"#utility.yul\":2542:2543   */\n      0x01\n        /* \"#utility.yul\":2539:2540   */\n      dup2\n        /* \"#utility.yul\":2535:2544   */\n      add\n        /* \"#utility.yul\":2530:2544   */\n      swap1\n      pop\n        /* \"#utility.yul\":2495:2779   */\n      jump(tag_261)\n    tag_263:\n        /* \"#utility.yul\":2499:2513   */\n      pop\n        /* \"#utility.yul\":2795:2798   */\n      dup6\n        /* \"#utility.yul\":2788:2798   */\n      swap4\n      pop\n        /* \"#utility.yul\":2196:2804   */\n      pop\n      pop\n      pop\n        /* \"#utility.yul\":2072:2804   */\n      swap3\n      swap2\n      pop\n      pop\n      jump\t// out\n        /* \"#utility.yul\":2810:3183   */\n    tag_20:\n        /* \"#utility.yul\":2953:2957   */\n      0x00\n        /* \"#utility.yul\":2991:2993   */\n      0x20\n        /* \"#utility.yul\":2980:2989   */\n      dup3\n        /* \"#utility.yul\":2976:2994   */\n      add\n        /* \"#utility.yul\":2968:2994   */\n      swap1\n      pop\n        /* \"#utility.yul\":3040:3049   */\n      dup2\n        /* \"#utility.yul\":3034:3038   */\n      dup2\n        /* \"#utility.yul\":3030:3050   */\n      sub\n        /* \"#utility.yul\":3026:3027   */\n      0x00\n        /* \"#utility.yul\":3015:3024   */\n      dup4\n        /* \"#utility.yul\":3011:3028   */\n      add\n        /* \"#utility.yul\":3004:3051   */\n      mstore\n        /* \"#utility.yul\":3068:3176   */\n      tag_267\n        /* \"#utility.yul\":3171:3175   */\n      dup2\n        /* \"#utility.yul\":3162:3168   */\n      dup5\n        /* \"#utility.yul\":3068:3176   */\n      tag_202\n      jump\t// in\n    tag_267:\n        /* \"#utility.yul\":3060:3176   */\n      swap1\n      pop\n        /* \"#utility.yul\":2810:3183   */\n      swap3\n      swap2\n      pop\n      pop\n      jump\t// out\n        /* \"#utility.yul\":3189:3663   */\n    tag_29:\n        /* \"#utility.yul\":3257:3263   */\n      0x00\n        /* \"#utility.yul\":3265:3271   */\n      dup1\n        /* \"#utility.yul\":3314:3316   */\n      0x40\n        /* \"#utility.yul\":3302:3311   */\n      dup4\n        /* \"#utility.yul\":3293:3300   */\n      dup6\n        /* \"#utility.yul\":3289:3312   */\n      sub\n        /* \"#utility.yul\":3285:3317   */\n      slt\n        /* \"#utility.yul\":3282:3401   */\n      iszero\n      tag_269\n      jumpi\n        /* \"#utility.yul\":3320:3399   */\n      tag_270\n      tag_190\n      jump\t// in\n    tag_270:\n        /* \"#utility.yul\":3282:3401   */\n    tag_269:\n        /* \"#utility.yul\":3440:3441   */\n      0x00\n        /* \"#utility.yul\":3465:3518   */\n      tag_271\n        /* \"#utility.yul\":3510:3517   */\n      dup6\n        /* \"#utility.yul\":3501:3507   */\n      dup3\n        /* \"#utility.yul\":3490:3499   */\n      dup7\n        /* \"#utility.yul\":3486:3508   */\n      add\n        /* \"#utility.yul\":3465:3518   */\n      tag_195\n      jump\t// in\n    tag_271:\n        /* \"#utility.yul\":3455:3518   */\n      swap3\n      pop\n        /* \"#utility.yul\":3411:3528   */\n      pop\n        /* \"#utility.yul\":3567:3569   */\n      0x20\n        /* \"#utility.yul\":3593:3646   */\n      tag_272\n        /* \"#utility.yul\":3638:3645   */\n      dup6\n        /* \"#utility.yul\":3629:3635   */\n      dup3\n        /* \"#utility.yul\":3618:3627   */\n      dup7\n        /* \"#utility.yul\":3614:3636   */\n      add\n        /* \"#utility.yul\":3593:3646   */\n      tag_195\n      jump\t// in\n    tag_272:\n        /* \"#utility.yul\":3583:3646   */\n      swap2\n      pop\n        /* \"#utility.yul\":3538:3656   */\n      pop\n        /* \"#utility.yul\":3189:3663   */\n      swap3\n      pop\n      swap3\n      swap1\n      pop\n      jump\t// out\n        /* \"#utility.yul\":3669:3746   */\n    tag_203:\n        /* \"#utility.yul\":3706:3713   */\n      0x00\n        /* \"#utility.yul\":3735:3740   */\n      dup2\n        /* \"#utility.yul\":3724:3740   */\n      swap1\n      pop\n        /* \"#utility.yul\":3669:3746   */\n      swap2\n      swap1\n      pop\n      jump\t// out\n        /* \"#utility.yul\":3752:3870   */\n    tag_204:\n        /* \"#utility.yul\":3839:3863   */\n      tag_275\n        /* \"#utility.yul\":3857:3862   */\n      dup2\n        /* \"#utility.yul\":3839:3863   */\n      tag_203\n      jump\t// in\n    tag_275:\n        /* \"#utility.yul\":3834:3837   */\n      dup3\n        /* \"#utility.yul\":3827:3864   */\n      mstore\n        /* \"#utility.yul\":3752:3870   */\n      pop\n      pop\n      jump\t// out\n        /* \"#utility.yul\":3876:4098   */\n    tag_36:\n        /* \"#utility.yul\":3969:3973   */\n      0x00\n        /* \"#utility.yul\":4007:4009   */\n      0x20\n        /* \"#utility.yul\":3996:4005   */\n      dup3\n        /* \"#utility.yul\":3992:4010   */\n      add\n        /* \"#utility.yul\":3984:4010   */\n      swap1\n      pop\n        /* \"#utility.yul\":4020:4091   */\n      tag_277\n        /* \"#utility.yul\":4088:4089   */\n      0x00\n        /* \"#utility.yul\":4077:4086   */\n      dup4\n        /* \"#utility.yul\":4073:4090   */\n      add\n        /* \"#utility.yul\":4064:4070   */\n      dup5\n        /* \"#utility.yul\":4020:4091   */\n      tag_204\n      jump\t// in\n    tag_277:\n        /* \"#utility.yul\":3876:4098   */\n      swap3\n      swap2\n      pop\n      pop\n      jump\t// out\n        /* \"#utility.yul\":4104:4221   */\n    tag_205:\n        /* \"#utility.yul\":4213:4214   */\n      0x00\n        /* \"#utility.yul\":4210:4211   */\n      dup1\n        /* \"#utility.yul\":4203:4215   */\n      revert\n        /* \"#utility.yul\":4227:4344   */\n    tag_206:\n        /* \"#utility.yul\":4336:4337   */\n      0x00\n        /* \"#utility.yul\":4333:4334   */\n      dup1\n        /* \"#utility.yul\":4326:4338   */\n      revert\n        /* \"#utility.yul\":4350:4452   */\n    tag_207:\n        /* \"#utility.yul\":4391:4397   */\n      0x00\n        /* \"#utility.yul\":4442:4444   */\n      0x1f\n        /* \"#utility.yul\":4438:4445   */\n      not\n        /* \"#utility.yul\":4433:4435   */\n      0x1f\n        /* \"#utility.yul\":4426:4431   */\n      dup4\n        /* \"#utility.yul\":4422:4436   */\n      add\n        /* \"#utility.yul\":4418:4446   */\n      and\n        /* \"#utility.yul\":4408:4446   */\n      swap1\n      pop\n        /* \"#utility.yul\":4350:4452   */\n      swap2\n      swap1\n      pop\n      jump\t// out\n        /* \"#utility.yul\":4458:4638   */\n    tag_208:\n        /* \"#utility.yul\":4506:4583   */\n      0x4e487b7100000000000000000000000000000000000000000000000000000000\n        /* \"#utility.yul\":4503:4504   */\n      0x00\n        /* \"#utility.yul\":4496:4584   */\n      mstore\n        /* \"#utility.yul\":4603:4607   */\n      0x41\n        /* \"#utility.yul\":4600:4601   */\n      0x04\n        /* \"#utility.yul\":4593:4608   */\n      mstore\n        /* \"#utility.yul\":4627:4631   */\n      0x24\n        /* \"#utility.yul\":4624:4625   */\n      0x00\n        /* \"#utility.yul\":4617:4632   */\n      revert\n        /* \"#utility.yul\":4644:4925   */\n    tag_209:\n        /* \"#utility.yul\":4727:4754   */\n      tag_283\n        /* \"#utility.yul\":4749:4753   */\n      dup3\n        /* \"#utility.yul\":4727:4754   */\n      tag_207\n      jump\t// in\n    tag_283:\n        /* \"#utility.yul\":4719:4725   */\n      dup2\n        /* \"#utility.yul\":4715:4755   */\n      add\n        /* \"#utility.yul\":4857:4863   */\n      dup2\n        /* \"#utility.yul\":4845:4855   */\n      dup2\n        /* \"#utility.yul\":4842:4864   */\n      lt\n        /* \"#utility.yul\":4821:4839   */\n      0xffffffffffffffff\n        /* \"#utility.yul\":4809:4819   */\n      dup3\n        /* \"#utility.yul\":4806:4840   */\n      gt\n        /* \"#utility.yul\":4803:4865   */\n      or\n        /* \"#utility.yul\":4800:4888   */\n      iszero\n      tag_284\n      jumpi\n        /* \"#utility.yul\":4868:4886   */\n      tag_285\n      tag_208\n      jump\t// in\n    tag_285:\n        /* \"#utility.yul\":4800:4888   */\n    tag_284:\n        /* \"#utility.yul\":4908:4918   */\n      dup1\n        /* \"#utility.yul\":4904:4906   */\n      0x40\n        /* \"#utility.yul\":4897:4919   */\n      mstore\n        /* \"#utility.yul\":4687:4925   */\n      pop\n        /* \"#utility.yul\":4644:4925   */\n      pop\n      pop\n      jump\t// out\n        /* \"#utility.yul\":4931:5060   */\n    tag_210:\n        /* \"#utility.yul\":4965:4971   */\n      0x00\n        /* \"#utility.yul\":4992:5012   */\n      tag_287\n      tag_189\n      jump\t// in\n    tag_287:\n        /* \"#utility.yul\":4982:5012   */\n      swap1\n      pop\n        /* \"#utility.yul\":5021:5054   */\n      tag_288\n        /* \"#utility.yul\":5049:5053   */\n      dup3\n        /* \"#utility.yul\":5041:5047   */\n      dup3\n        /* \"#utility.yul\":5021:5054   */\n      tag_209\n      jump\t// in\n    tag_288:\n        /* \"#utility.yul\":4931:5060   */\n      swap2\n      swap1\n      pop\n      jump\t// out\n        /* \"#utility.yul\":5066:5374   */\n    tag_211:\n        /* \"#utility.yul\":5128:5132   */\n      0x00\n        /* \"#utility.yul\":5218:5236   */\n      0xffffffffffffffff\n        /* \"#utility.yul\":5210:5216   */\n      dup3\n        /* \"#utility.yul\":5207:5237   */\n      gt\n        /* \"#utility.yul\":5204:5260   */\n      iszero\n      tag_290\n      jumpi\n        /* \"#utility.yul\":5240:5258   */\n      tag_291\n      tag_208\n      jump\t// in\n    tag_291:\n        /* \"#utility.yul\":5204:5260   */\n    tag_290:\n        /* \"#utility.yul\":5278:5307   */\n      tag_292\n        /* \"#utility.yul\":5300:5306   */\n      dup3\n        /* \"#utility.yul\":5278:5307   */\n      tag_207\n      jump\t// in\n    tag_292:\n        /* \"#utility.yul\":5270:5307   */\n      swap1\n      pop\n        /* \"#utility.yul\":5362:5366   */\n      0x20\n        /* \"#utility.yul\":5356:5360   */\n      dup2\n        /* \"#utility.yul\":5352:5367   */\n      add\n        /* \"#utility.yul\":5344:5367   */\n      swap1\n      pop\n        /* \"#utility.yul\":5066:5374   */\n      swap2\n      swap1\n      pop\n      jump\t// out\n        /* \"#utility.yul\":5380:5534   */\n    tag_212:\n        /* \"#utility.yul\":5464:5470   */\n      dup3\n        /* \"#utility.yul\":5459:5462   */\n      dup2\n        /* \"#utility.yul\":5454:5457   */\n      dup4\n        /* \"#utility.yul\":5441:5471   */\n      calldatacopy\n        /* \"#utility.yul\":5526:5527   */\n      0x00\n        /* \"#utility.yul\":5517:5523   */\n      dup4\n        /* \"#utility.yul\":5512:5515   */\n      dup4\n        /* \"#utility.yul\":5508:5524   */\n      add\n        /* \"#utility.yul\":5501:5528   */\n      mstore\n        /* \"#utility.yul\":5380:5534   */\n      pop\n      pop\n      pop\n      jump\t// out\n        /* \"#utility.yul\":5540:5952   */\n    tag_213:\n        /* \"#utility.yul\":5618:5623   */\n      0x00\n        /* \"#utility.yul\":5643:5709   */\n      tag_295\n        /* \"#utility.yul\":5659:5708   */\n      tag_296\n        /* \"#utility.yul\":5701:5707   */\n      dup5\n        /* \"#utility.yul\":5659:5708   */\n      tag_211\n      jump\t// in\n    tag_296:\n        /* \"#utility.yul\":5643:5709   */\n      tag_210\n      jump\t// in\n    tag_295:\n        /* \"#utility.yul\":5634:5709   */\n      swap1\n      pop\n        /* \"#utility.yul\":5732:5738   */\n      dup3\n        /* \"#utility.yul\":5725:5730   */\n      dup2\n        /* \"#utility.yul\":5718:5739   */\n      mstore\n        /* \"#utility.yul\":5770:5774   */\n      0x20\n        /* \"#utility.yul\":5763:5768   */\n      dup2\n        /* \"#utility.yul\":5759:5775   */\n      add\n        /* \"#utility.yul\":5808:5811   */\n      dup5\n        /* \"#utility.yul\":5799:5805   */\n      dup5\n        /* \"#utility.yul\":5794:5797   */\n      dup5\n        /* \"#utility.yul\":5790:5806   */\n      add\n        /* \"#utility.yul\":5787:5812   */\n      gt\n        /* \"#utility.yul\":5784:5896   */\n      iszero\n      tag_297\n      jumpi\n        /* \"#utility.yul\":5815:5894   */\n      tag_298\n      tag_206\n      jump\t// in\n    tag_298:\n        /* \"#utility.yul\":5784:5896   */\n    tag_297:\n        /* \"#utility.yul\":5905:5946   */\n      tag_299\n        /* \"#utility.yul\":5939:5945   */\n      dup5\n        /* \"#utility.yul\":5934:5937   */\n      dup3\n        /* \"#utility.yul\":5929:5932   */\n      dup6\n        /* \"#utility.yul\":5905:5946   */\n      tag_212\n      jump\t// in\n    tag_299:\n        /* \"#utility.yul\":5624:5952   */\n      pop\n        /* \"#utility.yul\":5540:5952   */\n      swap4\n      swap3\n      pop\n      pop\n      pop\n      jump\t// out\n        /* \"#utility.yul\":5972:6312   */\n    tag_214:\n        /* \"#utility.yul\":6028:6033   */\n      0x00\n        /* \"#utility.yul\":6077:6080   */\n      dup3\n        /* \"#utility.yul\":6070:6074   */\n      0x1f\n        /* \"#utility.yul\":6062:6068   */\n      dup4\n        /* \"#utility.yul\":6058:6075   */\n      add\n        /* \"#utility.yul\":6054:6081   */\n      slt\n        /* \"#utility.yul\":6044:6166   */\n      tag_301\n      jumpi\n        /* \"#utility.yul\":6085:6164   */\n      tag_302\n      tag_205\n      jump\t// in\n    tag_302:\n        /* \"#utility.yul\":6044:6166   */\n    tag_301:\n        /* \"#utility.yul\":6202:6208   */\n      dup2\n        /* \"#utility.yul\":6189:6209   */\n      calldataload\n        /* \"#utility.yul\":6227:6306   */\n      tag_303\n        /* \"#utility.yul\":6302:6305   */\n      dup5\n        /* \"#utility.yul\":6294:6300   */\n      dup3\n        /* \"#utility.yul\":6287:6291   */\n      0x20\n        /* \"#utility.yul\":6279:6285   */\n      dup7\n        /* \"#utility.yul\":6275:6292   */\n      add\n        /* \"#utility.yul\":6227:6306   */\n      tag_213\n      jump\t// in\n    tag_303:\n        /* \"#utility.yul\":6218:6306   */\n      swap2\n      pop\n        /* \"#utility.yul\":6034:6312   */\n      pop\n        /* \"#utility.yul\":5972:6312   */\n      swap3\n      swap2\n      pop\n      pop\n      jump\t// out\n        /* \"#utility.yul\":6318:6422   */\n    tag_215:\n        /* \"#utility.yul\":6363:6370   */\n      0x00\n        /* \"#utility.yul\":6392:6416   */\n      tag_305\n        /* \"#utility.yul\":6410:6415   */\n      dup3\n        /* \"#utility.yul\":6392:6416   */\n      tag_192\n      jump\t// in\n    tag_305:\n        /* \"#utility.yul\":6381:6416   */\n      swap1\n      pop\n        /* \"#utility.yul\":6318:6422   */\n      swap2\n      swap1\n      pop\n      jump\t// out\n        /* \"#utility.yul\":6428:6566   */\n    tag_216:\n        /* \"#utility.yul\":6509:6541   */\n      tag_307\n        /* \"#utility.yul\":6535:6540   */\n      dup2\n        /* \"#utility.yul\":6509:6541   */\n      tag_215\n      jump\t// in\n    tag_307:\n        /* \"#utility.yul\":6502:6507   */\n      dup2\n        /* \"#utility.yul\":6499:6542   */\n      eq\n        /* \"#utility.yul\":6489:6560   */\n      tag_308\n      jumpi\n        /* \"#utility.yul\":6556:6557   */\n      0x00\n        /* \"#utility.yul\":6553:6554   */\n      dup1\n        /* \"#utility.yul\":6546:6558   */\n      revert\n        /* \"#utility.yul\":6489:6560   */\n    tag_308:\n        /* \"#utility.yul\":6428:6566   */\n      pop\n      jump\t// out\n        /* \"#utility.yul\":6572:6727   */\n    tag_217:\n        /* \"#utility.yul\":6626:6631   */\n      0x00\n        /* \"#utility.yul\":6664:6670   */\n      dup2\n        /* \"#utility.yul\":6651:6671   */\n      calldataload\n        /* \"#utility.yul\":6642:6671   */\n      swap1\n      pop\n        /* \"#utility.yul\":6680:6721   */\n      tag_310\n        /* \"#utility.yul\":6715:6720   */\n      dup2\n        /* \"#utility.yul\":6680:6721   */\n      tag_216\n      jump\t// in\n    tag_310:\n        /* \"#utility.yul\":6572:6727   */\n      swap3\n      swap2\n      pop\n      pop\n      jump\t// out\n        /* \"#utility.yul\":6733:7874   */\n    tag_66:\n        /* \"#utility.yul\":6847:6853   */\n      0x00\n        /* \"#utility.yul\":6855:6861   */\n      dup1\n        /* \"#utility.yul\":6863:6869   */\n      0x00\n        /* \"#utility.yul\":6871:6877   */\n      dup1\n        /* \"#utility.yul\":6920:6923   */\n      0x80\n        /* \"#utility.yul\":6908:6917   */\n      dup6\n        /* \"#utility.yul\":6899:6906   */\n      dup8\n        /* \"#utility.yul\":6895:6918   */\n      sub\n        /* \"#utility.yul\":6891:6924   */\n      slt\n        /* \"#utility.yul\":6888:7008   */\n      iszero\n      tag_312\n      jumpi\n        /* \"#utility.yul\":6927:7006   */\n      tag_313\n      tag_190\n      jump\t// in\n    tag_313:\n        /* \"#utility.yul\":6888:7008   */\n    tag_312:\n        /* \"#utility.yul\":7047:7048   */\n      0x00\n        /* \"#utility.yul\":7072:7125   */\n      tag_314\n        /* \"#utility.yul\":7117:7124   */\n      dup8\n        /* \"#utility.yul\":7108:7114   */\n      dup3\n        /* \"#utility.yul\":7097:7106   */\n      dup9\n        /* \"#utility.yul\":7093:7115   */\n      add\n        /* \"#utility.yul\":7072:7125   */\n      tag_195\n      jump\t// in\n    tag_314:\n        /* \"#utility.yul\":7062:7125   */\n      swap5\n      pop\n        /* \"#utility.yul\":7018:7135   */\n      pop\n        /* \"#utility.yul\":7202:7204   */\n      0x20\n        /* \"#utility.yul\":7191:7200   */\n      dup6\n        /* \"#utility.yul\":7187:7205   */\n      add\n        /* \"#utility.yul\":7174:7206   */\n      calldataload\n        /* \"#utility.yul\":7233:7251   */\n      0xffffffffffffffff\n        /* \"#utility.yul\":7225:7231   */\n      dup2\n        /* \"#utility.yul\":7222:7252   */\n      gt\n        /* \"#utility.yul\":7219:7336   */\n      iszero\n      tag_315\n      jumpi\n        /* \"#utility.yul\":7255:7334   */\n      tag_316\n      tag_191\n      jump\t// in\n    tag_316:\n        /* \"#utility.yul\":7219:7336   */\n    tag_315:\n        /* \"#utility.yul\":7360:7423   */\n      tag_317\n        /* \"#utility.yul\":7415:7422   */\n      dup8\n        /* \"#utility.yul\":7406:7412   */\n      dup3\n        /* \"#utility.yul\":7395:7404   */\n      dup9\n        /* \"#utility.yul\":7391:7413   */\n      add\n        /* \"#utility.yul\":7360:7423   */\n      tag_214\n      jump\t// in\n    tag_317:\n        /* \"#utility.yul\":7350:7423   */\n      swap4\n      pop\n        /* \"#utility.yul\":7145:7433   */\n      pop\n        /* \"#utility.yul\":7500:7502   */\n      0x40\n        /* \"#utility.yul\":7489:7498   */\n      dup6\n        /* \"#utility.yul\":7485:7503   */\n      add\n        /* \"#utility.yul\":7472:7504   */\n      calldataload\n        /* \"#utility.yul\":7531:7549   */\n      0xffffffffffffffff\n        /* \"#utility.yul\":7523:7529   */\n      dup2\n        /* \"#utility.yul\":7520:7550   */\n      gt\n        /* \"#utility.yul\":7517:7634   */\n      iszero\n      tag_318\n      jumpi\n        /* \"#utility.yul\":7553:7632   */\n      tag_319\n      tag_191\n      jump\t// in\n    tag_319:\n        /* \"#utility.yul\":7517:7634   */\n    tag_318:\n        /* \"#utility.yul\":7658:7721   */\n      tag_320\n        /* \"#utility.yul\":7713:7720   */\n      dup8\n        /* \"#utility.yul\":7704:7710   */\n      dup3\n        /* \"#utility.yul\":7693:7702   */\n      dup9\n        /* \"#utility.yul\":7689:7711   */\n      add\n        /* \"#utility.yul\":7658:7721   */\n      tag_214\n      jump\t// in\n    tag_320:\n        /* \"#utility.yul\":7648:7721   */\n      swap3\n      pop\n        /* \"#utility.yul\":7443:7731   */\n      pop\n        /* \"#utility.yul\":7770:7772   */\n      0x60\n        /* \"#utility.yul\":7796:7857   */\n      tag_321\n        /* \"#utility.yul\":7849:7856   */\n      dup8\n        /* \"#utility.yul\":7840:7846   */\n      dup3\n        /* \"#utility.yul\":7829:7838   */\n      dup9\n        /* \"#utility.yul\":7825:7847   */\n      add\n        /* \"#utility.yul\":7796:7857   */\n      tag_217\n      jump\t// in\n    tag_321:\n        /* \"#utility.yul\":7786:7857   */\n      swap2\n      pop\n        /* \"#utility.yul\":7741:7867   */\n      pop\n        /* \"#utility.yul\":6733:7874   */\n      swap3\n      swap6\n      swap2\n      swap5\n      pop\n      swap3\n      pop\n      jump\t// out\n        /* \"#utility.yul\":7880:8006   */\n    tag_218:\n        /* \"#utility.yul\":7947:7954   */\n      0x00\n        /* \"#utility.yul\":7976:8000   */\n      tag_323\n        /* \"#utility.yul\":7994:7999   */\n      dup3\n        /* \"#utility.yul\":7976:8000   */\n      tag_193\n      jump\t// in\n    tag_323:\n        /* \"#utility.yul\":7965:8000   */\n      swap1\n      pop\n        /* \"#utility.yul\":7880:8006   */\n      swap2\n      swap1\n      pop\n      jump\t// out\n        /* \"#utility.yul\":8012:8194   */\n    tag_219:\n        /* \"#utility.yul\":8115:8169   */\n      tag_325\n        /* \"#utility.yul\":8163:8168   */\n      dup2\n        /* \"#utility.yul\":8115:8169   */\n      tag_218\n      jump\t// in\n    tag_325:\n        /* \"#utility.yul\":8108:8113   */\n      dup2\n        /* \"#utility.yul\":8105:8170   */\n      eq\n        /* \"#utility.yul\":8095:8188   */\n      tag_326\n      jumpi\n        /* \"#utility.yul\":8184:8185   */\n      0x00\n        /* \"#utility.yul\":8181:8182   */\n      dup1\n        /* \"#utility.yul\":8174:8186   */\n      revert\n        /* \"#utility.yul\":8095:8188   */\n    tag_326:\n        /* \"#utility.yul\":8012:8194   */\n      pop\n      jump\t// out\n        /* \"#utility.yul\":8200:8403   */\n    tag_220:\n        /* \"#utility.yul\":8287:8292   */\n      0x00\n        /* \"#utility.yul\":8318:8324   */\n      dup2\n        /* \"#utility.yul\":8312:8325   */\n      mload\n        /* \"#utility.yul\":8303:8325   */\n      swap1\n      pop\n        /* \"#utility.yul\":8334:8397   */\n      tag_328\n        /* \"#utility.yul\":8391:8396   */\n      dup2\n        /* \"#utility.yul\":8334:8397   */\n      tag_219\n      jump\t// in\n    tag_328:\n        /* \"#utility.yul\":8200:8403   */\n      swap3\n      swap2\n      pop\n      pop\n      jump\t// out\n        /* \"#utility.yul\":8409:8820   */\n    tag_78:\n        /* \"#utility.yul\":8509:8515   */\n      0x00\n        /* \"#utility.yul\":8558:8560   */\n      0x20\n        /* \"#utility.yul\":8546:8555   */\n      dup3\n        /* \"#utility.yul\":8537:8544   */\n      dup5\n        /* \"#utility.yul\":8533:8556   */\n      sub\n        /* \"#utility.yul\":8529:8561   */\n      slt\n        /* \"#utility.yul\":8526:8645   */\n      iszero\n      tag_330\n      jumpi\n        /* \"#utility.yul\":8564:8643   */\n      tag_331\n      tag_190\n      jump\t// in\n    tag_331:\n        /* \"#utility.yul\":8526:8645   */\n    tag_330:\n        /* \"#utility.yul\":8684:8685   */\n      0x00\n        /* \"#utility.yul\":8709:8803   */\n      tag_332\n        /* \"#utility.yul\":8795:8802   */\n      dup5\n        /* \"#utility.yul\":8786:8792   */\n      dup3\n        /* \"#utility.yul\":8775:8784   */\n      dup6\n        /* \"#utility.yul\":8771:8793   */\n      add\n        /* \"#utility.yul\":8709:8803   */\n      tag_220\n      jump\t// in\n    tag_332:\n        /* \"#utility.yul\":8699:8803   */\n      swap2\n      pop\n        /* \"#utility.yul\":8655:8813   */\n      pop\n        /* \"#utility.yul\":8409:8820   */\n      swap3\n      swap2\n      pop\n      pop\n      jump\t// out\n        /* \"#utility.yul\":8826:8969   */\n    tag_221:\n        /* \"#utility.yul\":8883:8888   */\n      0x00\n        /* \"#utility.yul\":8914:8920   */\n      dup2\n        /* \"#utility.yul\":8908:8921   */\n      mload\n        /* \"#utility.yul\":8899:8921   */\n      swap1\n      pop\n        /* \"#utility.yul\":8930:8963   */\n      tag_334\n        /* \"#utility.yul\":8957:8962   */\n      dup2\n        /* \"#utility.yul\":8930:8963   */\n      tag_194\n      jump\t// in\n    tag_334:\n        /* \"#utility.yul\":8826:8969   */\n      swap3\n      swap2\n      pop\n      pop\n      jump\t// out\n        /* \"#utility.yul\":8975:9326   */\n    tag_85:\n        /* \"#utility.yul\":9045:9051   */\n      0x00\n        /* \"#utility.yul\":9094:9096   */\n      0x20\n        /* \"#utility.yul\":9082:9091   */\n      dup3\n        /* \"#utility.yul\":9073:9080   */\n      dup5\n        /* \"#utility.yul\":9069:9092   */\n      sub\n        /* \"#utility.yul\":9065:9097   */\n      slt\n        /* \"#utility.yul\":9062:9181   */\n      iszero\n      tag_336\n      jumpi\n        /* \"#utility.yul\":9100:9179   */\n      tag_337\n      tag_190\n      jump\t// in\n    tag_337:\n        /* \"#utility.yul\":9062:9181   */\n    tag_336:\n        /* \"#utility.yul\":9220:9221   */\n      0x00\n        /* \"#utility.yul\":9245:9309   */\n      tag_338\n        /* \"#utility.yul\":9301:9308   */\n      dup5\n        /* \"#utility.yul\":9292:9298   */\n      dup3\n        /* \"#utility.yul\":9281:9290   */\n      dup6\n        /* \"#utility.yul\":9277:9299   */\n      add\n        /* \"#utility.yul\":9245:9309   */\n      tag_221\n      jump\t// in\n    tag_338:\n        /* \"#utility.yul\":9235:9309   */\n      swap2\n      pop\n        /* \"#utility.yul\":9191:9319   */\n      pop\n        /* \"#utility.yul\":8975:9326   */\n      swap3\n      swap2\n      pop\n      pop\n      jump\t// out\n        /* \"#utility.yul\":9332:9512   */\n    tag_222:\n        /* \"#utility.yul\":9380:9457   */\n      0x4e487b7100000000000000000000000000000000000000000000000000000000\n        /* \"#utility.yul\":9377:9378   */\n      0x00\n        /* \"#utility.yul\":9370:9458   */\n      mstore\n        /* \"#utility.yul\":9477:9481   */\n      0x11\n        /* \"#utility.yul\":9474:9475   */\n      0x04\n        /* \"#utility.yul\":9467:9482   */\n      mstore\n        /* \"#utility.yul\":9501:9505   */\n      0x24\n        /* \"#utility.yul\":9498:9499   */\n      0x00\n        /* \"#utility.yul\":9491:9506   */\n      revert\n        /* \"#utility.yul\":9518:9751   */\n    tag_105:\n        /* \"#utility.yul\":9557:9560   */\n      0x00\n        /* \"#utility.yul\":9580:9604   */\n      tag_341\n        /* \"#utility.yul\":9598:9603   */\n      dup3\n        /* \"#utility.yul\":9580:9604   */\n      tag_203\n      jump\t// in\n    tag_341:\n        /* \"#utility.yul\":9571:9604   */\n      swap2\n      pop\n        /* \"#utility.yul\":9626:9692   */\n      0xffffffffffffffffffffffffffffffffffffffffffffffffffffffffffffffff\n        /* \"#utility.yul\":9619:9624   */\n      dup3\n        /* \"#utility.yul\":9616:9693   */\n      eq\n        /* \"#utility.yul\":9613:9716   */\n      iszero\n      tag_342\n      jumpi\n        /* \"#utility.yul\":9696:9714   */\n      tag_343\n      tag_222\n      jump\t// in\n    tag_343:\n        /* \"#utility.yul\":9613:9716   */\n    tag_342:\n        /* \"#utility.yul\":9743:9744   */\n      0x01\n        /* \"#utility.yul\":9736:9741   */\n      dup3\n        /* \"#utility.yul\":9732:9745   */\n      add\n        /* \"#utility.yul\":9725:9745   */\n      swap1\n      pop\n        /* \"#utility.yul\":9518:9751   */\n      swap2\n      swap1\n      pop\n      jump\t// out\n        /* \"#utility.yul\":9757:9875   */\n    tag_223:\n        /* \"#utility.yul\":9844:9868   */\n      tag_345\n        /* \"#utility.yul\":9862:9867   */\n      dup2\n        /* \"#utility.yul\":9844:9868   */\n      tag_193\n      jump\t// in\n    tag_345:\n        /* \"#utility.yul\":9839:9842   */\n      dup3\n        /* \"#utility.yul\":9832:9869   */\n      mstore\n        /* \"#utility.yul\":9757:9875   */\n      pop\n      pop\n      jump\t// out\n        /* \"#utility.yul\":9881:9980   */\n    tag_224:\n        /* \"#utility.yul\":9933:9939   */\n      0x00\n        /* \"#utility.yul\":9967:9972   */\n      dup2\n        /* \"#utility.yul\":9961:9973   */\n      mload\n        /* \"#utility.yul\":9951:9973   */\n      swap1\n      pop\n        /* \"#utility.yul\":9881:9980   */\n      swap2\n      swap1\n      pop\n      jump\t// out\n        /* \"#utility.yul\":9986:10155   */\n    tag_225:\n        /* \"#utility.yul\":10070:10081   */\n      0x00\n        /* \"#utility.yul\":10104:10110   */\n      dup3\n        /* \"#utility.yul\":10099:10102   */\n      dup3\n        /* \"#utility.yul\":10092:10111   */\n      mstore\n        /* \"#utility.yul\":10144:10148   */\n      0x20\n        /* \"#utility.yul\":10139:10142   */\n      dup3\n        /* \"#utility.yul\":10135:10149   */\n      add\n        /* \"#utility.yul\":10120:10149   */\n      swap1\n      pop\n        /* \"#utility.yul\":9986:10155   */\n      swap3\n      swap2\n      pop\n      pop\n      jump\t// out\n        /* \"#utility.yul\":10161:10468   */\n    tag_226:\n        /* \"#utility.yul\":10229:10230   */\n      0x00\n        /* \"#utility.yul\":10239:10352   */\n    tag_349:\n        /* \"#utility.yul\":10253:10259   */\n      dup4\n        /* \"#utility.yul\":10250:10251   */\n      dup2\n        /* \"#utility.yul\":10247:10260   */\n      lt\n        /* \"#utility.yul\":10239:10352   */\n      iszero\n      tag_351\n      jumpi\n        /* \"#utility.yul\":10338:10339   */\n      dup1\n        /* \"#utility.yul\":10333:10336   */\n      dup3\n        /* \"#utility.yul\":10329:10340   */\n      add\n        /* \"#utility.yul\":10323:10341   */\n      mload\n        /* \"#utility.yul\":10319:10320   */\n      dup2\n        /* \"#utility.yul\":10314:10317   */\n      dup5\n        /* \"#utility.yul\":10310:10321   */\n      add\n        /* \"#utility.yul\":10303:10342   */\n      mstore\n        /* \"#utility.yul\":10275:10277   */\n      0x20\n        /* \"#utility.yul\":10272:10273   */\n      dup2\n        /* \"#utility.yul\":10268:10278   */\n      add\n        /* \"#utility.yul\":10263:10278   */\n      swap1\n      pop\n        /* \"#utility.yul\":10239:10352   */\n      jump(tag_349)\n    tag_351:\n        /* \"#utility.yul\":10370:10376   */\n      dup4\n        /* \"#utility.yul\":10367:10368   */\n      dup2\n        /* \"#utility.yul\":10364:10377   */\n      gt\n        /* \"#utility.yul\":10361:10462   */\n      iszero\n      tag_352\n      jumpi\n        /* \"#utility.yul\":10450:10451   */\n      0x00\n        /* \"#utility.yul\":10441:10447   */\n      dup5\n        /* \"#utility.yul\":10436:10439   */\n      dup5\n        /* \"#utility.yul\":10432:10448   */\n      add\n        /* \"#utility.yul\":10425:10452   */\n      mstore\n        /* \"#utility.yul\":10361:10462   */\n    tag_352:\n        /* \"#utility.yul\":10210:10468   */\n      pop\n        /* \"#utility.yul\":10161:10468   */\n      pop\n      pop\n      pop\n      jump\t// out\n        /* \"#utility.yul\":10474:10838   */\n    tag_227:\n        /* \"#utility.yul\":10562:10565   */\n      0x00\n        /* \"#utility.yul\":10590:10629   */\n      tag_354\n        /* \"#utility.yul\":10623:10628   */\n      dup3\n        /* \"#utility.yul\":10590:10629   */\n      tag_224\n      jump\t// in\n    tag_354:\n        /* \"#utility.yul\":10645:10716   */\n      tag_355\n        /* \"#utility.yul\":10709:10715   */\n      dup2\n        /* \"#utility.yul\":10704:10707   */\n      dup6\n        /* \"#utility.yul\":10645:10716   */\n      tag_225\n      jump\t// in\n    tag_355:\n        /* \"#utility.yul\":10638:10716   */\n      swap4\n      pop\n        /* \"#utility.yul\":10725:10777   */\n      tag_356\n        /* \"#utility.yul\":10770:10776   */\n      dup2\n        /* \"#utility.yul\":10765:10768   */\n      dup6\n        /* \"#utility.yul\":10758:10762   */\n      0x20\n        /* \"#utility.yul\":10751:10756   */\n      dup7\n        /* \"#utility.yul\":10747:10763   */\n      add\n        /* \"#utility.yul\":10725:10777   */\n      tag_226\n      jump\t// in\n    tag_356:\n        /* \"#utility.yul\":10802:10831   */\n      tag_357\n        /* \"#utility.yul\":10824:10830   */\n      dup2\n        /* \"#utility.yul\":10802:10831   */\n      tag_207\n      jump\t// in\n    tag_357:\n        /* \"#utility.yul\":10797:10800   */\n      dup5\n        /* \"#utility.yul\":10793:10832   */\n      add\n        /* \"#utility.yul\":10786:10832   */\n      swap2\n      pop\n        /* \"#utility.yul\":10566:10838   */\n      pop\n        /* \"#utility.yul\":10474:10838   */\n      swap3\n      swap2\n      pop\n      pop\n      jump\t// out\n        /* \"#utility.yul\":10844:10904   */\n    tag_228:\n        /* \"#utility.yul\":10872:10875   */\n      0x00\n        /* \"#utility.yul\":10893:10898   */\n      dup2\n        /* \"#utility.yul\":10886:10898   */\n      swap1\n      pop\n        /* \"#utility.yul\":10844:10904   */\n      swap2\n      swap1\n      pop\n      jump\t// out\n        /* \"#utility.yul\":10910:11052   */\n    tag_229:\n        /* \"#utility.yul\":10960:10969   */\n      0x00\n        /* \"#utility.yul\":10993:11046   */\n      tag_360\n        /* \"#utility.yul\":11011:11045   */\n      tag_361\n        /* \"#utility.yul\":11020:11044   */\n      tag_362\n        /* \"#utility.yul\":11038:11043   */\n      dup5\n        /* \"#utility.yul\":11020:11044   */\n      tag_192\n      jump\t// in\n    tag_362:\n        /* \"#utility.yul\":11011:11045   */\n      tag_228\n      jump\t// in\n    tag_361:\n        /* \"#utility.yul\":10993:11046   */\n      tag_192\n      jump\t// in\n    tag_360:\n        /* \"#utility.yul\":10980:11046   */\n      swap1\n      pop\n        /* \"#utility.yul\":10910:11052   */\n      swap2\n      swap1\n      pop\n      jump\t// out\n        /* \"#utility.yul\":11058:11184   */\n    tag_230:\n        /* \"#utility.yul\":11108:11117   */\n      0x00\n        /* \"#utility.yul\":11141:11178   */\n      tag_364\n        /* \"#utility.yul\":11172:11177   */\n      dup3\n        /* \"#utility.yul\":11141:11178   */\n      tag_229\n      jump\t// in\n    tag_364:\n        /* \"#utility.yul\":11128:11178   */\n      swap1\n      pop\n        /* \"#utility.yul\":11058:11184   */\n      swap2\n      swap1\n      pop\n      jump\t// out\n        /* \"#utility.yul\":11190:11324   */\n    tag_231:\n        /* \"#utility.yul\":11248:11257   */\n      0x00\n        /* \"#utility.yul\":11281:11318   */\n      tag_366\n        /* \"#utility.yul\":11312:11317   */\n      dup3\n        /* \"#utility.yul\":11281:11318   */\n      tag_230\n      jump\t// in\n    tag_366:\n        /* \"#utility.yul\":11268:11318   */\n      swap1\n      pop\n        /* \"#utility.yul\":11190:11324   */\n      swap2\n      swap1\n      pop\n      jump\t// out\n        /* \"#utility.yul\":11330:11477   */\n    tag_232:\n        /* \"#utility.yul\":11425:11470   */\n      tag_368\n        /* \"#utility.yul\":11464:11469   */\n      dup2\n        /* \"#utility.yul\":11425:11470   */\n      tag_231\n      jump\t// in\n    tag_368:\n        /* \"#utility.yul\":11420:11423   */\n      dup3\n        /* \"#utility.yul\":11413:11471   */\n      mstore\n        /* \"#utility.yul\":11330:11477   */\n      pop\n      pop\n      jump\t// out\n        /* \"#utility.yul\":11483:12456   */\n    tag_113:\n        /* \"#utility.yul\":11764:11768   */\n      0x00\n        /* \"#utility.yul\":11802:11805   */\n      0xc0\n        /* \"#utility.yul\":11791:11800   */\n      dup3\n        /* \"#utility.yul\":11787:11806   */\n      add\n        /* \"#utility.yul\":11779:11806   */\n      swap1\n      pop\n        /* \"#utility.yul\":11816:11887   */\n      tag_370\n        /* \"#utility.yul\":11884:11885   */\n      0x00\n        /* \"#utility.yul\":11873:11882   */\n      dup4\n        /* \"#utility.yul\":11869:11886   */\n      add\n        /* \"#utility.yul\":11860:11866   */\n      dup10\n        /* \"#utility.yul\":11816:11887   */\n      tag_223\n      jump\t// in\n    tag_370:\n        /* \"#utility.yul\":11897:11969   */\n      tag_371\n        /* \"#utility.yul\":11965:11967   */\n      0x20\n        /* \"#utility.yul\":11954:11963   */\n      dup4\n        /* \"#utility.yul\":11950:11968   */\n      add\n        /* \"#utility.yul\":11941:11947   */\n      dup9\n        /* \"#utility.yul\":11897:11969   */\n      tag_223\n      jump\t// in\n    tag_371:\n        /* \"#utility.yul\":12016:12025   */\n      dup2\n        /* \"#utility.yul\":12010:12014   */\n      dup2\n        /* \"#utility.yul\":12006:12026   */\n      sub\n        /* \"#utility.yul\":12001:12003   */\n      0x40\n        /* \"#utility.yul\":11990:11999   */\n      dup4\n        /* \"#utility.yul\":11986:12004   */\n      add\n        /* \"#utility.yul\":11979:12027   */\n      mstore\n        /* \"#utility.yul\":12044:12122   */\n      tag_372\n        /* \"#utility.yul\":12117:12121   */\n      dup2\n        /* \"#utility.yul\":12108:12114   */\n      dup8\n        /* \"#utility.yul\":12044:12122   */\n      tag_227\n      jump\t// in\n    tag_372:\n        /* \"#utility.yul\":12036:12122   */\n      swap1\n      pop\n        /* \"#utility.yul\":12169:12178   */\n      dup2\n        /* \"#utility.yul\":12163:12167   */\n      dup2\n        /* \"#utility.yul\":12159:12179   */\n      sub\n        /* \"#utility.yul\":12154:12156   */\n      0x60\n        /* \"#utility.yul\":12143:12152   */\n      dup4\n        /* \"#utility.yul\":12139:12157   */\n      add\n        /* \"#utility.yul\":12132:12180   */\n      mstore\n        /* \"#utility.yul\":12197:12275   */\n      tag_373\n        /* \"#utility.yul\":12270:12274   */\n      dup2\n        /* \"#utility.yul\":12261:12267   */\n      dup7\n        /* \"#utility.yul\":12197:12275   */\n      tag_227\n      jump\t// in\n    tag_373:\n        /* \"#utility.yul\":12189:12275   */\n      swap1\n      pop\n        /* \"#utility.yul\":12285:12366   */\n      tag_374\n        /* \"#utility.yul\":12361:12364   */\n      0x80\n        /* \"#utility.yul\":12350:12359   */\n      dup4\n        /* \"#utility.yul\":12346:12365   */\n      add\n        /* \"#utility.yul\":12337:12343   */\n      dup6\n        /* \"#utility.yul\":12285:12366   */\n      tag_232\n      jump\t// in\n    tag_374:\n        /* \"#utility.yul\":12376:12449   */\n      tag_375\n        /* \"#utility.yul\":12444:12447   */\n      0xa0\n        /* \"#utility.yul\":12433:12442   */\n      dup4\n        /* \"#utility.yul\":12429:12448   */\n      add\n        /* \"#utility.yul\":12420:12426   */\n      dup5\n        /* \"#utility.yul\":12376:12449   */\n      tag_204\n      jump\t// in\n    tag_375:\n        /* \"#utility.yul\":11483:12456   */\n      swap8\n      swap7\n      pop\n      pop\n      pop\n      pop\n      pop\n      pop\n      pop\n      jump\t// out\n        /* \"#utility.yul\":12462:12653   */\n    tag_126:\n        /* \"#utility.yul\":12502:12506   */\n      0x00\n        /* \"#utility.yul\":12522:12542   */\n      tag_377\n        /* \"#utility.yul\":12540:12541   */\n      dup3\n        /* \"#utility.yul\":12522:12542   */\n      tag_203\n      jump\t// in\n    tag_377:\n        /* \"#utility.yul\":12517:12542   */\n      swap2\n      pop\n        /* \"#utility.yul\":12556:12576   */\n      tag_378\n        /* \"#utility.yul\":12574:12575   */\n      dup4\n        /* \"#utility.yul\":12556:12576   */\n      tag_203\n      jump\t// in\n    tag_378:\n        /* \"#utility.yul\":12551:12576   */\n      swap3\n      pop\n        /* \"#utility.yul\":12595:12596   */\n      dup3\n        /* \"#utility.yul\":12592:12593   */\n      dup3\n        /* \"#utility.yul\":12589:12597   */\n      lt\n        /* \"#utility.yul\":12586:12620   */\n      iszero\n      tag_379\n      jumpi\n        /* \"#utility.yul\":12600:12618   */\n      tag_380\n      tag_222\n      jump\t// in\n    tag_380:\n        /* \"#utility.yul\":12586:12620   */\n    tag_379:\n        /* \"#utility.yul\":12645:12646   */\n      dup3\n        /* \"#utility.yul\":12642:12643   */\n      dup3\n        /* \"#utility.yul\":12638:12647   */\n      sub\n        /* \"#utility.yul\":12630:12647   */\n      swap1\n      pop\n        /* \"#utility.yul\":12462:12653   */\n      swap3\n      swap2\n      pop\n      pop\n      jump\t// out\n        /* \"#utility.yul\":12659:12964   */\n    tag_128:\n        /* \"#utility.yul\":12699:12702   */\n      0x00\n        /* \"#utility.yul\":12718:12738   */\n      tag_382\n        /* \"#utility.yul\":12736:12737   */\n      dup3\n        /* \"#utility.yul\":12718:12738   */\n      tag_203\n      jump\t// in\n    tag_382:\n        /* \"#utility.yul\":12713:12738   */\n      swap2\n      pop\n        /* \"#utility.yul\":12752:12772   */\n      tag_383\n        /* \"#utility.yul\":12770:12771   */\n      dup4\n        /* \"#utility.yul\":12752:12772   */\n      tag_203\n      jump\t// in\n    tag_383:\n        /* \"#utility.yul\":12747:12772   */\n      swap3\n      pop\n        /* \"#utility.yul\":12906:12907   */\n      dup3\n        /* \"#utility.yul\":12838:12904   */\n      0xffffffffffffffffffffffffffffffffffffffffffffffffffffffffffffffff\n        /* \"#utility.yul\":12834:12908   */\n      sub\n        /* \"#utility.yul\":12831:12832   */\n      dup3\n        /* \"#utility.yul\":12828:12909   */\n      gt\n        /* \"#utility.yul\":12825:12932   */\n      iszero\n      tag_384\n      jumpi\n        /* \"#utility.yul\":12912:12930   */\n      tag_385\n      tag_222\n      jump\t// in\n    tag_385:\n        /* \"#utility.yul\":12825:12932   */\n    tag_384:\n        /* \"#utility.yul\":12956:12957   */\n      dup3\n        /* \"#utility.yul\":12953:12954   */\n      dup3\n        /* \"#utility.yul\":12949:12958   */\n      add\n        /* \"#utility.yul\":12942:12958   */\n      swap1\n      pop\n        /* \"#utility.yul\":12659:12964   */\n      swap3\n      swap2\n      pop\n      pop\n      jump\t// out\n        /* \"#utility.yul\":12970:13150   */\n    tag_131:\n        /* \"#utility.yul\":13018:13095   */\n      0x4e487b7100000000000000000000000000000000000000000000000000000000\n        /* \"#utility.yul\":13015:13016   */\n      0x00\n        /* \"#utility.yul\":13008:13096   */\n      mstore\n        /* \"#utility.yul\":13115:13119   */\n      0x32\n        /* \"#utility.yul\":13112:13113   */\n      0x04\n        /* \"#utility.yul\":13105:13120   */\n      mstore\n        /* \"#utility.yul\":13139:13143   */\n      0x24\n        /* \"#utility.yul\":13136:13137   */\n      0x00\n        /* \"#utility.yul\":13129:13144   */\n      revert\n        /* \"#utility.yul\":13156:13336   */\n    tag_144:\n        /* \"#utility.yul\":13204:13281   */\n      0x4e487b7100000000000000000000000000000000000000000000000000000000\n        /* \"#utility.yul\":13201:13202   */\n      0x00\n        /* \"#utility.yul\":13194:13282   */\n      mstore\n        /* \"#utility.yul\":13301:13305   */\n      0x31\n        /* \"#utility.yul\":13298:13299   */\n      0x04\n        /* \"#utility.yul\":13291:13306   */\n      mstore\n        /* \"#utility.yul\":13325:13329   */\n      0x24\n        /* \"#utility.yul\":13322:13323   */\n      0x00\n        /* \"#utility.yul\":13315:13330   */\n      revert\n    stop\n\n    sub_0: assembly {\n            /* \"Contracts\":5380:6773  contract AccountabilityContract {... */\n          mstore(0x40, 0x80)\n            /* \"Contracts\":5659:6028  constructor(address _creator, address _referee, string memory _name, string memory _description, address _failureRecipient, uint _amount) payable {... */\n          mload(0x40)\n          sub(codesize, bytecodeSize)\n          dup1\n          bytecodeSize\n          dup4\n          codecopy\n          dup2\n          dup2\n          add\n          0x40\n          mstore\n          dup2\n          add\n          swap1\n          tag_1\n          swap2\n          swap1\n          tag_2\n          jump\t// in\n        tag_1:\n            /* \"Contracts\":5825:5833  _creator */\n          dup6\n            /* \"Contracts\":5815:5822  creator */\n          0x00\n          dup1\n            /* \"Contracts\":5815:5833  creator = _creator */\n          0x0100\n          exp\n          dup2\n          sload\n          dup2\n          0xffffffffffffffffffffffffffffffffffffffff\n          mul\n          not\n          and\n          swap1\n          dup4\n          0xffffffffffffffffffffffffffffffffffffffff\n          and\n          mul\n          or\n          swap1\n          sstore\n          pop\n            /* \"Contracts\":5853:5861  _referee */\n          dup5\n            /* \"Contracts\":5843:5850  referee */\n          0x01\n          0x00\n            /* \"Contracts\":5843:5861  referee = _referee */\n          0x0100\n          exp\n          dup2\n          sload\n          dup2\n          0xffffffffffffffffffffffffffffffffffffffff\n          mul\n          not\n          and\n          swap1\n          dup4\n          0xffffffffffffffffffffffffffffffffffffffff\n          and\n          mul\n          or\n          swap1\n          sstore\n          pop\n            /* \"Contracts\":5878:5883  _name */\n          dup4\n            /* \"Contracts\":5871:5875  name */\n          0x02\n            /* \"Contracts\":5871:5883  name = _name */\n          swap1\n          dup1\n          mload\n          swap1\n          0x20\n          add\n          swap1\n          tag_5\n          swap3\n          swap2\n          swap1\n          tag_6\n          jump\t// in\n        tag_5:\n          pop\n            /* \"Contracts\":5907:5919  _description */\n          dup3\n            /* \"Contracts\":5893:5904  description */\n          0x03\n            /* \"Contracts\":5893:5919  description = _description */\n          swap1\n          dup1\n          mload\n          swap1\n          0x20\n          add\n          swap1\n          tag_7\n          swap3\n          swap2\n          swap1\n          tag_6\n          jump\t// in\n        tag_7:\n          pop\n            /* \"Contracts\":5948:5965  _failureRecipient */\n          dup2\n            /* \"Contracts\":5929:5945  failureRecipient */\n          0x04\n          0x00\n            /* \"Contracts\":5929:5965  failureRecipient = _failureRecipient */\n          0x0100\n          exp\n          dup2\n          sload\n          dup2\n          0xffffffffffffffffffffffffffffffffffffffff\n          mul\n          not\n          and\n          swap1\n          dup4\n          0xffffffffffffffffffffffffffffffffffffffff\n          and\n          mul\n          or\n          swap1\n          sstore\n          pop\n            /* \"Contracts\":5984:5991  _amount */\n          dup1\n            /* \"Contracts\":5975:5981  amount */\n          0x05\n            /* \"Contracts\":5975:5991  amount = _amount */\n          dup2\n          swap1\n          sstore\n          pop\n            /* \"Contracts\":6010:6021  Status.OPEN */\n          0x00\n            /* \"Contracts\":6001:6007  status */\n          0x06\n          0x00\n            /* \"Contracts\":6001:6021  status = Status.OPEN */\n          0x0100\n          exp\n          dup2\n          sload\n          dup2\n          0xff\n          mul\n          not\n          and\n          swap1\n          dup4\n          0x02\n          dup2\n          gt\n          iszero\n          tag_8\n          jumpi\n          tag_9\n          tag_10\n          jump\t// in\n        tag_9:\n        tag_8:\n          mul\n          or\n          swap1\n          sstore\n          pop\n            /* \"Contracts\":5659:6028  constructor(address _creator, address _referee, string memory _name, string memory _description, address _failureRecipient, uint _amount) payable {... */\n          pop\n          pop\n          pop\n          pop\n          pop\n          pop\n            /* \"Contracts\":5380:6773  contract AccountabilityContract {... */\n          jump(tag_11)\n        tag_6:\n          dup3\n          dup1\n          sload\n          tag_12\n          swap1\n          tag_13\n          jump\t// in\n        tag_12:\n          swap1\n          0x00\n          mstore\n          keccak256(0x00, 0x20)\n          swap1\n          0x1f\n          add\n          0x20\n          swap1\n          div\n          dup2\n          add\n          swap3\n          dup3\n          tag_15\n          jumpi\n          0x00\n          dup6\n          sstore\n          jump(tag_14)\n        tag_15:\n          dup3\n          0x1f\n          lt\n          tag_16\n          jumpi\n          dup1\n          mload\n          not(0xff)\n          and\n          dup4\n          dup1\n          add\n          or\n          dup6\n          sstore\n          jump(tag_14)\n        tag_16:\n          dup3\n          dup1\n          add\n          0x01\n          add\n          dup6\n          sstore\n          dup3\n          iszero\n          tag_14\n          jumpi\n          swap2\n          dup3\n          add\n        tag_17:\n          dup3\n          dup2\n          gt\n          iszero\n          tag_18\n          jumpi\n          dup3\n          mload\n          dup3\n          sstore\n          swap2\n          0x20\n          add\n          swap2\n          swap1\n          0x01\n          add\n          swap1\n          jump(tag_17)\n        tag_18:\n        tag_14:\n          pop\n          swap1\n          pop\n          tag_19\n          swap2\n          swap1\n          tag_20\n          jump\t// in\n        tag_19:\n          pop\n          swap1\n          jump\t// out\n        tag_20:\n        tag_21:\n          dup1\n          dup3\n          gt\n          iszero\n          tag_22\n          jumpi\n          0x00\n          dup2\n          0x00\n          swap1\n          sstore\n          pop\n          0x01\n          add\n          jump(tag_21)\n        tag_22:\n          pop\n          swap1\n          jump\t// out\n            /* \"#utility.yul\":7:82   */\n        tag_23:\n            /* \"#utility.yul\":40:46   */\n          0x00\n            /* \"#utility.yul\":73:75   */\n          0x40\n            /* \"#utility.yul\":67:76   */\n          mload\n            /* \"#utility.yul\":57:76   */\n          swap1\n          pop\n            /* \"#utility.yul\":7:82   */\n          swap1\n          jump\t// out\n            /* \"#utility.yul\":88:205   */\n        tag_24:\n            /* \"#utility.yul\":197:198   */\n          0x00\n            /* \"#utility.yul\":194:195   */\n          dup1\n            /* \"#utility.yul\":187:199   */\n          revert\n            /* \"#utility.yul\":211:328   */\n        tag_25:\n            /* \"#utility.yul\":320:321   */\n          0x00\n            /* \"#utility.yul\":317:318   */\n          dup1\n            /* \"#utility.yul\":310:322   */\n          revert\n            /* \"#utility.yul\":334:460   */\n        tag_26:\n            /* \"#utility.yul\":371:378   */\n          0x00\n            /* \"#utility.yul\":411:453   */\n          0xffffffffffffffffffffffffffffffffffffffff\n            /* \"#utility.yul\":404:409   */\n          dup3\n            /* \"#utility.yul\":400:454   */\n          and\n            /* \"#utility.yul\":389:454   */\n          swap1\n          pop\n            /* \"#utility.yul\":334:460   */\n          swap2\n          swap1\n          pop\n          jump\t// out\n            /* \"#utility.yul\":466:562   */\n        tag_27:\n            /* \"#utility.yul\":503:510   */\n          0x00\n            /* \"#utility.yul\":532:556   */\n          tag_50\n            /* \"#utility.yul\":550:555   */\n          dup3\n            /* \"#utility.yul\":532:556   */\n          tag_26\n          jump\t// in\n        tag_50:\n            /* \"#utility.yul\":521:556   */\n          swap1\n          pop\n            /* \"#utility.yul\":466:562   */\n          swap2\n          swap1\n          pop\n          jump\t// out\n            /* \"#utility.yul\":568:690   */\n        tag_28:\n            /* \"#utility.yul\":641:665   */\n          tag_52\n            /* \"#utility.yul\":659:664   */\n          dup2\n            /* \"#utility.yul\":641:665   */\n          tag_27\n          jump\t// in\n        tag_52:\n            /* \"#utility.yul\":634:639   */\n          dup2\n            /* \"#utility.yul\":631:666   */\n          eq\n            /* \"#utility.yul\":621:684   */\n          tag_53\n          jumpi\n            /* \"#utility.yul\":680:681   */\n          0x00\n            /* \"#utility.yul\":677:678   */\n          dup1\n            /* \"#utility.yul\":670:682   */\n          revert\n            /* \"#utility.yul\":621:684   */\n        tag_53:\n            /* \"#utility.yul\":568:690   */\n          pop\n          jump\t// out\n            /* \"#utility.yul\":696:839   */\n        tag_29:\n            /* \"#utility.yul\":753:758   */\n          0x00\n            /* \"#utility.yul\":784:790   */\n          dup2\n            /* \"#utility.yul\":778:791   */\n          mload\n            /* \"#utility.yul\":769:791   */\n          swap1\n          pop\n            /* \"#utility.yul\":800:833   */\n          tag_55\n            /* \"#utility.yul\":827:832   */\n          dup2\n            /* \"#utility.yul\":800:833   */\n          tag_28\n          jump\t// in\n        tag_55:\n            /* \"#utility.yul\":696:839   */\n          swap3\n          swap2\n          pop\n          pop\n          jump\t// out\n            /* \"#utility.yul\":845:962   */\n        tag_30:\n            /* \"#utility.yul\":954:955   */\n          0x00\n            /* \"#utility.yul\":951:952   */\n          dup1\n            /* \"#utility.yul\":944:956   */\n          revert\n            /* \"#utility.yul\":968:1085   */\n        tag_31:\n            /* \"#utility.yul\":1077:1078   */\n          0x00\n            /* \"#utility.yul\":1074:1075   */\n          dup1\n            /* \"#utility.yul\":1067:1079   */\n          revert\n            /* \"#utility.yul\":1091:1193   */\n        tag_32:\n            /* \"#utility.yul\":1132:1138   */\n          0x00\n            /* \"#utility.yul\":1183:1185   */\n          0x1f\n            /* \"#utility.yul\":1179:1186   */\n          not\n            /* \"#utility.yul\":1174:1176   */\n          0x1f\n            /* \"#utility.yul\":1167:1172   */\n          dup4\n            /* \"#utility.yul\":1163:1177   */\n          add\n            /* \"#utility.yul\":1159:1187   */\n          and\n            /* \"#utility.yul\":1149:1187   */\n          swap1\n          pop\n            /* \"#utility.yul\":1091:1193   */\n          swap2\n          swap1\n          pop\n          jump\t// out\n            /* \"#utility.yul\":1199:1379   */\n        tag_33:\n            /* \"#utility.yul\":1247:1324   */\n          0x4e487b7100000000000000000000000000000000000000000000000000000000\n            /* \"#utility.yul\":1244:1245   */\n          0x00\n            /* \"#utility.yul\":1237:1325   */\n          mstore\n            /* \"#utility.yul\":1344:1348   */\n          0x41\n            /* \"#utility.yul\":1341:1342   */\n          0x04\n            /* \"#utility.yul\":1334:1349   */\n          mstore\n            /* \"#utility.yul\":1368:1372   */\n          0x24\n            /* \"#utility.yul\":1365:1366   */\n          0x00\n            /* \"#utility.yul\":1358:1373   */\n          revert\n            /* \"#utility.yul\":1385:1666   */\n        tag_34:\n            /* \"#utility.yul\":1468:1495   */\n          tag_61\n            /* \"#utility.yul\":1490:1494   */\n          dup3\n            /* \"#utility.yul\":1468:1495   */\n          tag_32\n          jump\t// in\n        tag_61:\n            /* \"#utility.yul\":1460:1466   */\n          dup2\n            /* \"#utility.yul\":1456:1496   */\n          add\n            /* \"#utility.yul\":1598:1604   */\n          dup2\n            /* \"#utility.yul\":1586:1596   */\n          dup2\n            /* \"#utility.yul\":1583:1605   */\n          lt\n            /* \"#utility.yul\":1562:1580   */\n          0xffffffffffffffff\n            /* \"#utility.yul\":1550:1560   */\n          dup3\n            /* \"#utility.yul\":1547:1581   */\n          gt\n            /* \"#utility.yul\":1544:1606   */\n          or\n            /* \"#utility.yul\":1541:1629   */\n          iszero\n          tag_62\n          jumpi\n            /* \"#utility.yul\":1609:1627   */\n          tag_63\n          tag_33\n          jump\t// in\n        tag_63:\n            /* \"#utility.yul\":1541:1629   */\n        tag_62:\n            /* \"#utility.yul\":1649:1659   */\n          dup1\n            /* \"#utility.yul\":1645:1647   */\n          0x40\n            /* \"#utility.yul\":1638:1660   */\n          mstore\n            /* \"#utility.yul\":1428:1666   */\n          pop\n            /* \"#utility.yul\":1385:1666   */\n          pop\n          pop\n          jump\t// out\n            /* \"#utility.yul\":1672:1801   */\n        tag_35:\n            /* \"#utility.yul\":1706:1712   */\n          0x00\n            /* \"#utility.yul\":1733:1753   */\n          tag_65\n          tag_23\n          jump\t// in\n        tag_65:\n            /* \"#utility.yul\":1723:1753   */\n          swap1\n          pop\n            /* \"#utility.yul\":1762:1795   */\n          tag_66\n            /* \"#utility.yul\":1790:1794   */\n          dup3\n            /* \"#utility.yul\":1782:1788   */\n          dup3\n            /* \"#utility.yul\":1762:1795   */\n          tag_34\n          jump\t// in\n        tag_66:\n            /* \"#utility.yul\":1672:1801   */\n          swap2\n          swap1\n          pop\n          jump\t// out\n            /* \"#utility.yul\":1807:2115   */\n        tag_36:\n            /* \"#utility.yul\":1869:1873   */\n          0x00\n            /* \"#utility.yul\":1959:1977   */\n          0xffffffffffffffff\n            /* \"#utility.yul\":1951:1957   */\n          dup3\n            /* \"#utility.yul\":1948:1978   */\n          gt\n            /* \"#utility.yul\":1945:2001   */\n          iszero\n          tag_68\n          jumpi\n            /* \"#utility.yul\":1981:1999   */\n          tag_69\n          tag_33\n          jump\t// in\n        tag_69:\n            /* \"#utility.yul\":1945:2001   */\n        tag_68:\n            /* \"#utility.yul\":2019:2048   */\n          tag_70\n            /* \"#utility.yul\":2041:2047   */\n          dup3\n            /* \"#utility.yul\":2019:2048   */\n          tag_32\n          jump\t// in\n        tag_70:\n            /* \"#utility.yul\":2011:2048   */\n          swap1\n          pop\n            /* \"#utility.yul\":2103:2107   */\n          0x20\n            /* \"#utility.yul\":2097:2101   */\n          dup2\n            /* \"#utility.yul\":2093:2108   */\n          add\n            /* \"#utility.yul\":2085:2108   */\n          swap1\n          pop\n            /* \"#utility.yul\":1807:2115   */\n          swap2\n          swap1\n          pop\n          jump\t// out\n            /* \"#utility.yul\":2121:2428   */\n        tag_37:\n            /* \"#utility.yul\":2189:2190   */\n          0x00\n            /* \"#utility.yul\":2199:2312   */\n        tag_72:\n            /* \"#utility.yul\":2213:2219   */\n          dup4\n            /* \"#utility.yul\":2210:2211   */\n          dup2\n            /* \"#utility.yul\":2207:2220   */\n          lt\n            /* \"#utility.yul\":2199:2312   */\n          iszero\n          tag_74\n          jumpi\n            /* \"#utility.yul\":2298:2299   */\n          dup1\n            /* \"#utility.yul\":2293:2296   */\n          dup3\n            /* \"#utility.yul\":2289:2300   */\n          add\n            /* \"#utility.yul\":2283:2301   */\n          mload\n            /* \"#utility.yul\":2279:2280   */\n          dup2\n            /* \"#utility.yul\":2274:2277   */\n          dup5\n            /* \"#utility.yul\":2270:2281   */\n          add\n            /* \"#utility.yul\":2263:2302   */\n          mstore\n            /* \"#utility.yul\":2235:2237   */\n          0x20\n            /* \"#utility.yul\":2232:2233   */\n          dup2\n            /* \"#utility.yul\":2228:2238   */\n          add\n            /* \"#utility.yul\":2223:2238   */\n          swap1\n          pop\n            /* \"#utility.yul\":2199:2312   */\n          jump(tag_72)\n        tag_74:\n            /* \"#utility.yul\":2330:2336   */\n          dup4\n            /* \"#utility.yul\":2327:2328   */\n          dup2\n            /* \"#utility.yul\":2324:2337   */\n          gt\n            /* \"#utility.yul\":2321:2422   */\n          iszero\n          tag_75\n          jumpi\n            /* \"#utility.yul\":2410:2411   */\n          0x00\n            /* \"#utility.yul\":2401:2407   */\n          dup5\n            /* \"#utility.yul\":2396:2399   */\n          dup5\n            /* \"#utility.yul\":2392:2408   */\n          add\n            /* \"#utility.yul\":2385:2412   */\n          mstore\n            /* \"#utility.yul\":2321:2422   */\n        tag_75:\n            /* \"#utility.yul\":2170:2428   */\n          pop\n            /* \"#utility.yul\":2121:2428   */\n          pop\n          pop\n          pop\n          jump\t// out\n            /* \"#utility.yul\":2434:2855   */\n        tag_38:\n            /* \"#utility.yul\":2523:2528   */\n          0x00\n            /* \"#utility.yul\":2548:2614   */\n          tag_77\n            /* \"#utility.yul\":2564:2613   */\n          tag_78\n            /* \"#utility.yul\":2606:2612   */\n          dup5\n            /* \"#utility.yul\":2564:2613   */\n          tag_36\n          jump\t// in\n        tag_78:\n            /* \"#utility.yul\":2548:2614   */\n          tag_35\n          jump\t// in\n        tag_77:\n            /* \"#utility.yul\":2539:2614   */\n          swap1\n          pop\n            /* \"#utility.yul\":2637:2643   */\n          dup3\n            /* \"#utility.yul\":2630:2635   */\n          dup2\n            /* \"#utility.yul\":2623:2644   */\n          mstore\n            /* \"#utility.yul\":2675:2679   */\n          0x20\n            /* \"#utility.yul\":2668:2673   */\n          dup2\n            /* \"#utility.yul\":2664:2680   */\n          add\n            /* \"#utility.yul\":2713:2716   */\n          dup5\n            /* \"#utility.yul\":2704:2710   */\n          dup5\n            /* \"#utility.yul\":2699:2702   */\n          dup5\n            /* \"#utility.yul\":2695:2711   */\n          add\n            /* \"#utility.yul\":2692:2717   */\n          gt\n            /* \"#utility.yul\":2689:2801   */\n          iszero\n          tag_79\n          jumpi\n            /* \"#utility.yul\":2720:2799   */\n          tag_80\n          tag_31\n          jump\t// in\n        tag_80:\n            /* \"#utility.yul\":2689:2801   */\n        tag_79:\n            /* \"#utility.yul\":2810:2849   */\n          tag_81\n            /* \"#utility.yul\":2842:2848   */\n          dup5\n            /* \"#utility.yul\":2837:2840   */\n          dup3\n            /* \"#utility.yul\":2832:2835   */\n          dup6\n            /* \"#utility.yul\":2810:2849   */\n          tag_37\n          jump\t// in\n        tag_81:\n            /* \"#utility.yul\":2529:2855   */\n          pop\n            /* \"#utility.yul\":2434:2855   */\n          swap4\n          swap3\n          pop\n          pop\n          pop\n          jump\t// out\n            /* \"#utility.yul\":2875:3230   */\n        tag_39:\n            /* \"#utility.yul\":2942:2947   */\n          0x00\n            /* \"#utility.yul\":2991:2994   */\n          dup3\n            /* \"#utility.yul\":2984:2988   */\n          0x1f\n            /* \"#utility.yul\":2976:2982   */\n          dup4\n            /* \"#utility.yul\":2972:2989   */\n          add\n            /* \"#utility.yul\":2968:2995   */\n          slt\n            /* \"#utility.yul\":2958:3080   */\n          tag_83\n          jumpi\n            /* \"#utility.yul\":2999:3078   */\n          tag_84\n          tag_30\n          jump\t// in\n        tag_84:\n            /* \"#utility.yul\":2958:3080   */\n        tag_83:\n            /* \"#utility.yul\":3109:3115   */\n          dup2\n            /* \"#utility.yul\":3103:3116   */\n          mload\n            /* \"#utility.yul\":3134:3224   */\n          tag_85\n            /* \"#utility.yul\":3220:3223   */\n          dup5\n            /* \"#utility.yul\":3212:3218   */\n          dup3\n            /* \"#utility.yul\":3205:3209   */\n          0x20\n            /* \"#utility.yul\":3197:3203   */\n          dup7\n            /* \"#utility.yul\":3193:3210   */\n          add\n            /* \"#utility.yul\":3134:3224   */\n          tag_38\n          jump\t// in\n        tag_85:\n            /* \"#utility.yul\":3125:3224   */\n          swap2\n          pop\n            /* \"#utility.yul\":2948:3230   */\n          pop\n            /* \"#utility.yul\":2875:3230   */\n          swap3\n          swap2\n          pop\n          pop\n          jump\t// out\n            /* \"#utility.yul\":3236:3313   */\n        tag_40:\n            /* \"#utility.yul\":3273:3280   */\n          0x00\n            /* \"#utility.yul\":3302:3307   */\n          dup2\n            /* \"#utility.yul\":3291:3307   */\n          swap1\n          pop\n            /* \"#utility.yul\":3236:3313   */\n          swap2\n          swap1\n          pop\n          jump\t// out\n            /* \"#utility.yul\":3319:3441   */\n        tag_41:\n            /* \"#utility.yul\":3392:3416   */\n          tag_88\n            /* \"#utility.yul\":3410:3415   */\n          dup2\n            /* \"#utility.yul\":3392:3416   */\n          tag_40\n          jump\t// in\n        tag_88:\n            /* \"#utility.yul\":3385:3390   */\n          dup2\n            /* \"#utility.yul\":3382:3417   */\n          eq\n            /* \"#utility.yul\":3372:3435   */\n          tag_89\n          jumpi\n            /* \"#utility.yul\":3431:3432   */\n          0x00\n            /* \"#utility.yul\":3428:3429   */\n          dup1\n            /* \"#utility.yul\":3421:3433   */\n          revert\n            /* \"#utility.yul\":3372:3435   */\n        tag_89:\n            /* \"#utility.yul\":3319:3441   */\n          pop\n          jump\t// out\n            /* \"#utility.yul\":3447:3590   */\n        tag_42:\n            /* \"#utility.yul\":3504:3509   */\n          0x00\n            /* \"#utility.yul\":3535:3541   */\n          dup2\n            /* \"#utility.yul\":3529:3542   */\n          mload\n            /* \"#utility.yul\":3520:3542   */\n          swap1\n          pop\n            /* \"#utility.yul\":3551:3584   */\n          tag_91\n            /* \"#utility.yul\":3578:3583   */\n          dup2\n            /* \"#utility.yul\":3551:3584   */\n          tag_41\n          jump\t// in\n        tag_91:\n            /* \"#utility.yul\":3447:3590   */\n          swap3\n          swap2\n          pop\n          pop\n          jump\t// out\n            /* \"#utility.yul\":3596:5076   */\n        tag_2:\n            /* \"#utility.yul\":3731:3737   */\n          0x00\n            /* \"#utility.yul\":3739:3745   */\n          dup1\n            /* \"#utility.yul\":3747:3753   */\n          0x00\n            /* \"#utility.yul\":3755:3761   */\n          dup1\n            /* \"#utility.yul\":3763:3769   */\n          0x00\n            /* \"#utility.yul\":3771:3777   */\n          dup1\n            /* \"#utility.yul\":3820:3823   */\n          0xc0\n            /* \"#utility.yul\":3808:3817   */\n          dup8\n            /* \"#utility.yul\":3799:3806   */\n          dup10\n            /* \"#utility.yul\":3795:3818   */\n          sub\n            /* \"#utility.yul\":3791:3824   */\n          slt\n            /* \"#utility.yul\":3788:3908   */\n          iszero\n          tag_93\n          jumpi\n            /* \"#utility.yul\":3827:3906   */\n          tag_94\n          tag_24\n          jump\t// in\n        tag_94:\n            /* \"#utility.yul\":3788:3908   */\n        tag_93:\n            /* \"#utility.yul\":3947:3948   */\n          0x00\n            /* \"#utility.yul\":3972:4036   */\n          tag_95\n            /* \"#utility.yul\":4028:4035   */\n          dup10\n            /* \"#utility.yul\":4019:4025   */\n          dup3\n            /* \"#utility.yul\":4008:4017   */\n          dup11\n            /* \"#utility.yul\":4004:4026   */\n          add\n            /* \"#utility.yul\":3972:4036   */\n          tag_29\n          jump\t// in\n        tag_95:\n            /* \"#utility.yul\":3962:4036   */\n          swap7\n          pop\n            /* \"#utility.yul\":3918:4046   */\n          pop\n            /* \"#utility.yul\":4085:4087   */\n          0x20\n            /* \"#utility.yul\":4111:4175   */\n          tag_96\n            /* \"#utility.yul\":4167:4174   */\n          dup10\n            /* \"#utility.yul\":4158:4164   */\n          dup3\n            /* \"#utility.yul\":4147:4156   */\n          dup11\n            /* \"#utility.yul\":4143:4165   */\n          add\n            /* \"#utility.yul\":4111:4175   */\n          tag_29\n          jump\t// in\n        tag_96:\n            /* \"#utility.yul\":4101:4175   */\n          swap6\n          pop\n            /* \"#utility.yul\":4056:4185   */\n          pop\n            /* \"#utility.yul\":4245:4247   */\n          0x40\n            /* \"#utility.yul\":4234:4243   */\n          dup8\n            /* \"#utility.yul\":4230:4248   */\n          add\n            /* \"#utility.yul\":4224:4249   */\n          mload\n            /* \"#utility.yul\":4276:4294   */\n          0xffffffffffffffff\n            /* \"#utility.yul\":4268:4274   */\n          dup2\n            /* \"#utility.yul\":4265:4295   */\n          gt\n            /* \"#utility.yul\":4262:4379   */\n          iszero\n          tag_97\n          jumpi\n            /* \"#utility.yul\":4298:4377   */\n          tag_98\n          tag_25\n          jump\t// in\n        tag_98:\n            /* \"#utility.yul\":4262:4379   */\n        tag_97:\n            /* \"#utility.yul\":4403:4477   */\n          tag_99\n            /* \"#utility.yul\":4469:4476   */\n          dup10\n            /* \"#utility.yul\":4460:4466   */\n          dup3\n            /* \"#utility.yul\":4449:4458   */\n          dup11\n            /* \"#utility.yul\":4445:4467   */\n          add\n            /* \"#utility.yul\":4403:4477   */\n          tag_39\n          jump\t// in\n        tag_99:\n            /* \"#utility.yul\":4393:4477   */\n          swap5\n          pop\n            /* \"#utility.yul\":4195:4487   */\n          pop\n            /* \"#utility.yul\":4547:4549   */\n          0x60\n            /* \"#utility.yul\":4536:4545   */\n          dup8\n            /* \"#utility.yul\":4532:4550   */\n          add\n            /* \"#utility.yul\":4526:4551   */\n          mload\n            /* \"#utility.yul\":4578:4596   */\n          0xffffffffffffffff\n            /* \"#utility.yul\":4570:4576   */\n          dup2\n            /* \"#utility.yul\":4567:4597   */\n          gt\n            /* \"#utility.yul\":4564:4681   */\n          iszero\n          tag_100\n          jumpi\n            /* \"#utility.yul\":4600:4679   */\n          tag_101\n          tag_25\n          jump\t// in\n        tag_101:\n            /* \"#utility.yul\":4564:4681   */\n        tag_100:\n            /* \"#utility.yul\":4705:4779   */\n          tag_102\n            /* \"#utility.yul\":4771:4778   */\n          dup10\n            /* \"#utility.yul\":4762:4768   */\n          dup3\n            /* \"#utility.yul\":4751:4760   */\n          dup11\n            /* \"#utility.yul\":4747:4769   */\n          add\n            /* \"#utility.yul\":4705:4779   */\n          tag_39\n          jump\t// in\n        tag_102:\n            /* \"#utility.yul\":4695:4779   */\n          swap4\n          pop\n            /* \"#utility.yul\":4497:4789   */\n          pop\n            /* \"#utility.yul\":4828:4831   */\n          0x80\n            /* \"#utility.yul\":4855:4919   */\n          tag_103\n            /* \"#utility.yul\":4911:4918   */\n          dup10\n            /* \"#utility.yul\":4902:4908   */\n          dup3\n            /* \"#utility.yul\":4891:4900   */\n          dup11\n            /* \"#utility.yul\":4887:4909   */\n          add\n            /* \"#utility.yul\":4855:4919   */\n          tag_29\n          jump\t// in\n        tag_103:\n            /* \"#utility.yul\":4845:4919   */\n          swap3\n          pop\n            /* \"#utility.yul\":4799:4929   */\n          pop\n            /* \"#utility.yul\":4968:4971   */\n          0xa0\n            /* \"#utility.yul\":4995:5059   */\n          tag_104\n            /* \"#utility.yul\":5051:5058   */\n          dup10\n            /* \"#utility.yul\":5042:5048   */\n          dup3\n            /* \"#utility.yul\":5031:5040   */\n          dup11\n            /* \"#utility.yul\":5027:5049   */\n          add\n            /* \"#utility.yul\":4995:5059   */\n          tag_42\n          jump\t// in\n        tag_104:\n            /* \"#utility.yul\":4985:5059   */\n          swap2\n          pop\n            /* \"#utility.yul\":4939:5069   */\n          pop\n            /* \"#utility.yul\":3596:5076   */\n          swap3\n          swap6\n          pop\n          swap3\n          swap6\n          pop\n          swap3\n          swap6\n          jump\t// out\n            /* \"#utility.yul\":5082:5262   */\n        tag_10:\n            /* \"#utility.yul\":5130:5207   */\n          0x4e487b7100000000000000000000000000000000000000000000000000000000\n            /* \"#utility.yul\":5127:5128   */\n          0x00\n            /* \"#utility.yul\":5120:5208   */\n          mstore\n            /* \"#utility.yul\":5227:5231   */\n          0x21\n            /* \"#utility.yul\":5224:5225   */\n          0x04\n            /* \"#utility.yul\":5217:5232   */\n          mstore\n            /* \"#utility.yul\":5251:5255   */\n          0x24\n            /* \"#utility.yul\":5248:5249   */\n          0x00\n            /* \"#utility.yul\":5241:5256   */\n          revert\n            /* \"#utility.yul\":5268:5448   */\n        tag_43:\n            /* \"#utility.yul\":5316:5393   */\n          0x4e487b7100000000000000000000000000000000000000000000000000000000\n            /* \"#utility.yul\":5313:5314   */\n          0x00\n            /* \"#utility.yul\":5306:5394   */\n          mstore\n            /* \"#utility.yul\":5413:5417   */\n          0x22\n            /* \"#utility.yul\":5410:5411   */\n          0x04\n            /* \"#utility.yul\":5403:5418   */\n          mstore\n            /* \"#utility.yul\":5437:5441   */\n          0x24\n            /* \"#utility.yul\":5434:5435   */\n          0x00\n            /* \"#utility.yul\":5427:5442   */\n          revert\n            /* \"#utility.yul\":5454:5774   */\n        tag_13:\n            /* \"#utility.yul\":5498:5504   */\n          0x00\n            /* \"#utility.yul\":5535:5536   */\n          0x02\n            /* \"#utility.yul\":5529:5533   */\n          dup3\n            /* \"#utility.yul\":5525:5537   */\n          div\n            /* \"#utility.yul\":5515:5537   */\n          swap1\n          pop\n            /* \"#utility.yul\":5582:5583   */\n          0x01\n            /* \"#utility.yul\":5576:5580   */\n          dup3\n            /* \"#utility.yul\":5572:5584   */\n          and\n            /* \"#utility.yul\":5603:5621   */\n          dup1\n            /* \"#utility.yul\":5593:5674   */\n          tag_108\n          jumpi\n            /* \"#utility.yul\":5659:5663   */\n          0x7f\n            /* \"#utility.yul\":5651:5657   */\n          dup3\n            /* \"#utility.yul\":5647:5664   */\n          and\n            /* \"#utility.yul\":5637:5664   */\n          swap2\n          pop\n            /* \"#utility.yul\":5593:5674   */\n        tag_108:\n            /* \"#utility.yul\":5721:5723   */\n          0x20\n            /* \"#utility.yul\":5713:5719   */\n          dup3\n            /* \"#utility.yul\":5710:5724   */\n          lt\n            /* \"#utility.yul\":5690:5708   */\n          dup2\n            /* \"#utility.yul\":5687:5725   */\n          eq\n            /* \"#utility.yul\":5684:5768   */\n          iszero\n          tag_109\n          jumpi\n            /* \"#utility.yul\":5740:5758   */\n          tag_110\n          tag_43\n          jump\t// in\n        tag_110:\n            /* \"#utility.yul\":5684:5768   */\n        tag_109:\n            /* \"#utility.yul\":5505:5774   */\n          pop\n            /* \"#utility.yul\":5454:5774   */\n          swap2\n          swap1\n          pop\n          jump\t// out\n            /* \"Contracts\":5380:6773  contract AccountabilityContract {... */\n        tag_11:\n          dataSize(sub_0)\n          dup1\n          dataOffset(sub_0)\n          0x00\n          codecopy\n          0x00\n          return\n        stop\n\n        sub_0: assembly {\n                /* \"Contracts\":5380:6773  contract AccountabilityContract {... */\n              mstore(0x40, 0x80)\n              jumpi(tag_1, lt(calldatasize, 0x04))\n              shr(0xe0, calldataload(0x00))\n              dup1\n              0x3b1bebd1\n              gt\n              tag_11\n              jumpi\n              dup1\n              0x3b1bebd1\n              eq\n              tag_6\n              jumpi\n              dup1\n              0x4177fe51\n              eq\n              tag_7\n              jumpi\n              dup1\n              0x7284e416\n              eq\n              tag_8\n              jumpi\n              dup1\n              0xaa8c217c\n              eq\n              tag_9\n              jumpi\n              dup1\n              0xb4fedc11\n              eq\n              tag_10\n              jumpi\n              jump(tag_1)\n            tag_11:\n              dup1\n              0x02d05d3f\n              eq\n              tag_2\n              jumpi\n              dup1\n              0x06fdde03\n              eq\n              tag_3\n              jumpi\n              dup1\n              0x200d2ed2\n              eq\n              tag_4\n              jumpi\n              dup1\n              0x2d398fa6\n              eq\n              tag_5\n              jumpi\n            tag_1:\n              0x00\n              dup1\n              revert\n                /* \"Contracts\":5460:5482  address public creator */\n            tag_2:\n              callvalue\n              dup1\n              iszero\n              tag_12\n              jumpi\n              0x00\n              dup1\n              revert\n            tag_12:\n              pop\n              tag_13\n              tag_14\n              jump\t// in\n            tag_13:\n              mload(0x40)\n              tag_15\n              swap2\n              swap1\n              tag_16\n              jump\t// in\n            tag_15:\n              mload(0x40)\n              dup1\n              swap2\n              sub\n              swap1\n              return\n                /* \"Contracts\":5516:5534  string public name */\n            tag_3:\n              callvalue\n              dup1\n              iszero\n              tag_17\n              jumpi\n              0x00\n              dup1\n              revert\n            tag_17:\n              pop\n              tag_18\n              tag_19\n              jump\t// in\n            tag_18:\n              mload(0x40)\n              tag_20\n              swap2\n              swap1\n              tag_21\n              jump\t// in\n            tag_20:\n              mload(0x40)\n              dup1\n              swap2\n              sub\n              swap1\n              return\n                /* \"Contracts\":5632:5652  Status public status */\n            tag_4:\n              callvalue\n              dup1\n              iszero\n              tag_22\n              jumpi\n              0x00\n              dup1\n              revert\n            tag_22:\n              pop\n              tag_23\n              tag_24\n              jump\t// in\n            tag_23:\n              mload(0x40)\n              tag_25\n              swap2\n              swap1\n              tag_26\n              jump\t// in\n            tag_25:\n              mload(0x40)\n              dup1\n              swap2\n              sub\n              swap1\n              return\n                /* \"Contracts\":6160:6479  function failContract() public payable restricted returns (AccountabilityContract) {... */\n            tag_5:\n              tag_27\n              tag_28\n              jump\t// in\n            tag_27:\n              mload(0x40)\n              tag_29\n              swap2\n              swap1\n              tag_30\n              jump\t// in\n            tag_29:\n              mload(0x40)\n              dup1\n              swap2\n              sub\n              swap1\n              return\n                /* \"Contracts\":5488:5510  address public referee */\n            tag_6:\n              callvalue\n              dup1\n              iszero\n              tag_31\n              jumpi\n              0x00\n              dup1\n              revert\n            tag_31:\n              pop\n              tag_32\n              tag_33\n              jump\t// in\n            tag_32:\n              mload(0x40)\n              tag_34\n              swap2\n              swap1\n              tag_16\n              jump\t// in\n            tag_34:\n              mload(0x40)\n              dup1\n              swap2\n              sub\n              swap1\n              return\n                /* \"Contracts\":5571:5602  address public failureRecipient */\n            tag_7:\n              callvalue\n              dup1\n              iszero\n              tag_35\n              jumpi\n              0x00\n              dup1\n              revert\n            tag_35:\n              pop\n              tag_36\n              tag_37\n              jump\t// in\n            tag_36:\n              mload(0x40)\n              tag_38\n              swap2\n              swap1\n              tag_16\n              jump\t// in\n            tag_38:\n              mload(0x40)\n              dup1\n              swap2\n              sub\n              swap1\n              return\n                /* \"Contracts\":5540:5565  string public description */\n            tag_8:\n              callvalue\n              dup1\n              iszero\n              tag_39\n              jumpi\n              0x00\n              dup1\n              revert\n            tag_39:\n              pop\n              tag_40\n              tag_41\n              jump\t// in\n            tag_40:\n              mload(0x40)\n              tag_42\n              swap2\n              swap1\n              tag_21\n              jump\t// in\n            tag_42:\n              mload(0x40)\n              dup1\n              swap2\n              sub\n              swap1\n              return\n                /* \"Contracts\":5608:5626  uint public amount */\n            tag_9:\n              callvalue\n              dup1\n              iszero\n              tag_43\n              jumpi\n              0x00\n              dup1\n              revert\n            tag_43:\n              pop\n              tag_44\n              tag_45\n              jump\t// in\n            tag_44:\n              mload(0x40)\n              tag_46\n              swap2\n              swap1\n              tag_47\n              jump\t// in\n            tag_46:\n              mload(0x40)\n              dup1\n              swap2\n              sub\n              swap1\n              return\n                /* \"Contracts\":6486:6771  function completeContract() public payable restricted returns (AccountabilityContract) {... */\n            tag_10:\n              tag_48\n              tag_49\n              jump\t// in\n            tag_48:\n              mload(0x40)\n              tag_50\n              swap2\n              swap1\n              tag_30\n              jump\t// in\n            tag_50:\n              mload(0x40)\n              dup1\n              swap2\n              sub\n              swap1\n              return\n                /* \"Contracts\":5460:5482  address public creator */\n            tag_14:\n              0x00\n              dup1\n              sload\n              swap1\n              0x0100\n              exp\n              swap1\n              div\n              0xffffffffffffffffffffffffffffffffffffffff\n              and\n              dup2\n              jump\t// out\n                /* \"Contracts\":5516:5534  string public name */\n            tag_19:\n              0x02\n              dup1\n              sload\n              tag_51\n              swap1\n              tag_52\n              jump\t// in\n            tag_51:\n              dup1\n              0x1f\n              add\n              0x20\n              dup1\n              swap2\n              div\n              mul\n              0x20\n              add\n              mload(0x40)\n              swap1\n              dup2\n              add\n              0x40\n              mstore\n              dup1\n              swap3\n              swap2\n              swap1\n              dup2\n              dup2\n              mstore\n              0x20\n              add\n              dup3\n              dup1\n              sload\n              tag_53\n              swap1\n              tag_52\n              jump\t// in\n            tag_53:\n              dup1\n              iszero\n              tag_54\n              jumpi\n              dup1\n              0x1f\n              lt\n              tag_55\n              jumpi\n              0x0100\n              dup1\n              dup4\n              sload\n              div\n              mul\n              dup4\n              mstore\n              swap2\n              0x20\n              add\n              swap2\n              jump(tag_54)\n            tag_55:\n              dup3\n              add\n              swap2\n              swap1\n              0x00\n              mstore\n              keccak256(0x00, 0x20)\n              swap1\n            tag_56:\n              dup2\n              sload\n              dup2\n              mstore\n              swap1\n              0x01\n              add\n              swap1\n              0x20\n              add\n              dup1\n              dup4\n              gt\n              tag_56\n              jumpi\n              dup3\n              swap1\n              sub\n              0x1f\n              and\n              dup3\n              add\n              swap2\n            tag_54:\n              pop\n              pop\n              pop\n              pop\n              pop\n              dup2\n              jump\t// out\n                /* \"Contracts\":5632:5652  Status public status */\n            tag_24:\n              0x06\n              0x00\n              swap1\n              sload\n              swap1\n              0x0100\n              exp\n              swap1\n              div\n              0xff\n              and\n              dup2\n              jump\t// out\n                /* \"Contracts\":6160:6479  function failContract() public payable restricted returns (AccountabilityContract) {... */\n            tag_28:\n                /* \"Contracts\":6219:6241  AccountabilityContract */\n              0x00\n                /* \"Contracts\":6084:6095  Status.OPEN */\n              dup1\n                /* \"Contracts\":6074:6095  status == Status.OPEN */\n              0x02\n              dup2\n              gt\n              iszero\n              tag_58\n              jumpi\n              tag_59\n              tag_60\n              jump\t// in\n            tag_59:\n            tag_58:\n                /* \"Contracts\":6074:6080  status */\n              0x06\n              0x00\n              swap1\n              sload\n              swap1\n              0x0100\n              exp\n              swap1\n              div\n              0xff\n              and\n                /* \"Contracts\":6074:6095  status == Status.OPEN */\n              0x02\n              dup2\n              gt\n              iszero\n              tag_61\n              jumpi\n              tag_62\n              tag_60\n              jump\t// in\n            tag_62:\n            tag_61:\n              eq\n                /* \"Contracts\":6066:6136  require(status == Status.OPEN, \"Contract status is not equal to open\") */\n              tag_63\n              jumpi\n              mload(0x40)\n              0x08c379a000000000000000000000000000000000000000000000000000000000\n              dup2\n              mstore\n              0x04\n              add\n              tag_64\n              swap1\n              tag_65\n              jump\t// in\n            tag_64:\n              mload(0x40)\n              dup1\n              swap2\n              sub\n              swap1\n              revert\n            tag_63:\n                /* \"Contracts\":6274:6281  referee */\n              0x01\n              0x00\n              swap1\n              sload\n              swap1\n              0x0100\n              exp\n              swap1\n              div\n              0xffffffffffffffffffffffffffffffffffffffff\n              and\n                /* \"Contracts\":6261:6281  tx.origin == referee */\n              0xffffffffffffffffffffffffffffffffffffffff\n              and\n                /* \"Contracts\":6261:6270  tx.origin */\n              origin\n                /* \"Contracts\":6261:6281  tx.origin == referee */\n              0xffffffffffffffffffffffffffffffffffffffff\n              and\n              eq\n                /* \"Contracts\":6261:6305  tx.origin == referee || tx.origin == creator */\n              dup1\n              tag_67\n              jumpi\n              pop\n                /* \"Contracts\":6298:6305  creator */\n              0x00\n              dup1\n              sload\n              swap1\n              0x0100\n              exp\n              swap1\n              div\n              0xffffffffffffffffffffffffffffffffffffffff\n              and\n                /* \"Contracts\":6285:6305  tx.origin == creator */\n              0xffffffffffffffffffffffffffffffffffffffff\n              and\n                /* \"Contracts\":6285:6294  tx.origin */\n              origin\n                /* \"Contracts\":6285:6305  tx.origin == creator */\n              0xffffffffffffffffffffffffffffffffffffffff\n              and\n              eq\n                /* \"Contracts\":6261:6305  tx.origin == referee || tx.origin == creator */\n            tag_67:\n                /* \"Contracts\":6253:6351  require(tx.origin == referee || tx.origin == creator, \"Only referee or creator can fail contract\") */\n              tag_68\n              jumpi\n              mload(0x40)\n              0x08c379a000000000000000000000000000000000000000000000000000000000\n              dup2\n              mstore\n              0x04\n              add\n              tag_69\n              swap1\n              tag_70\n              jump\t// in\n            tag_69:\n              mload(0x40)\n              dup1\n              swap2\n              sub\n              swap1\n              revert\n            tag_68:\n                /* \"Contracts\":6369:6385  failureRecipient */\n              0x04\n              0x00\n              swap1\n              sload\n              swap1\n              0x0100\n              exp\n              swap1\n              div\n              0xffffffffffffffffffffffffffffffffffffffff\n              and\n                /* \"Contracts\":6361:6395  payable(failureRecipient).transfer */\n              0xffffffffffffffffffffffffffffffffffffffff\n              and\n                /* \"Contracts\":6361:6418  payable(failureRecipient).transfer(address(this).balance) */\n              0x08fc\n                /* \"Contracts\":6396:6417  address(this).balance */\n              selfbalance\n                /* \"Contracts\":6361:6418  payable(failureRecipient).transfer(address(this).balance) */\n              swap1\n              dup2\n              iszero\n              mul\n              swap1\n              mload(0x40)\n              0x00\n              mload(0x40)\n              dup1\n              dup4\n              sub\n              dup2\n              dup6\n              dup9\n              dup9\n              call\n              swap4\n              pop\n              pop\n              pop\n              pop\n              iszero\n              dup1\n              iszero\n              tag_72\n              jumpi\n              returndatasize\n              0x00\n              dup1\n              returndatacopy\n              revert(0x00, returndatasize)\n            tag_72:\n              pop\n                /* \"Contracts\":6437:6451  Status.FAILURE */\n              0x02\n                /* \"Contracts\":6428:6434  status */\n              0x06\n              0x00\n                /* \"Contracts\":6428:6451  status = Status.FAILURE */\n              0x0100\n              exp\n              dup2\n              sload\n              dup2\n              0xff\n              mul\n              not\n              and\n              swap1\n              dup4\n              0x02\n              dup2\n              gt\n              iszero\n              tag_73\n              jumpi\n              tag_74\n              tag_60\n              jump\t// in\n            tag_74:\n            tag_73:\n              mul\n              or\n              swap1\n              sstore\n              pop\n                /* \"Contracts\":6468:6472  this */\n              address\n                /* \"Contracts\":6461:6472  return this */\n              swap1\n              pop\n                /* \"Contracts\":6160:6479  function failContract() public payable restricted returns (AccountabilityContract) {... */\n              swap1\n              jump\t// out\n                /* \"Contracts\":5488:5510  address public referee */\n            tag_33:\n              0x01\n              0x00\n              swap1\n              sload\n              swap1\n              0x0100\n              exp\n              swap1\n              div\n              0xffffffffffffffffffffffffffffffffffffffff\n              and\n              dup2\n              jump\t// out\n                /* \"Contracts\":5571:5602  address public failureRecipient */\n            tag_37:\n              0x04\n              0x00\n              swap1\n              sload\n              swap1\n              0x0100\n              exp\n              swap1\n              div\n              0xffffffffffffffffffffffffffffffffffffffff\n              and\n              dup2\n              jump\t// out\n                /* \"Contracts\":5540:5565  string public description */\n            tag_41:\n              0x03\n              dup1\n              sload\n              tag_75\n              swap1\n              tag_52\n              jump\t// in\n            tag_75:\n              dup1\n              0x1f\n              add\n              0x20\n              dup1\n              swap2\n              div\n              mul\n              0x20\n              add\n              mload(0x40)\n              swap1\n              dup2\n              add\n              0x40\n              mstore\n              dup1\n              swap3\n              swap2\n              swap1\n              dup2\n              dup2\n              mstore\n              0x20\n              add\n              dup3\n              dup1\n              sload\n              tag_76\n              swap1\n              tag_52\n              jump\t// in\n            tag_76:\n              dup1\n              iszero\n              tag_77\n              jumpi\n              dup1\n              0x1f\n              lt\n              tag_78\n              jumpi\n              0x0100\n              dup1\n              dup4\n              sload\n              div\n              mul\n              dup4\n              mstore\n              swap2\n              0x20\n              add\n              swap2\n              jump(tag_77)\n            tag_78:\n              dup3\n              add\n              swap2\n              swap1\n              0x00\n              mstore\n              keccak256(0x00, 0x20)\n              swap1\n            tag_79:\n              dup2\n              sload\n              dup2\n              mstore\n              swap1\n              0x01\n              add\n              swap1\n              0x20\n              add\n              dup1\n              dup4\n              gt\n              tag_79\n              jumpi\n              dup3\n              swap1\n              sub\n              0x1f\n              and\n              dup3\n              add\n              swap2\n            tag_77:\n              pop\n              pop\n              pop\n              pop\n              pop\n              dup2\n              jump\t// out\n                /* \"Contracts\":5608:5626  uint public amount */\n            tag_45:\n              sload(0x05)\n              dup2\n              jump\t// out\n                /* \"Contracts\":6486:6771  function completeContract() public payable restricted returns (AccountabilityContract) {... */\n            tag_49:\n                /* \"Contracts\":6549:6571  AccountabilityContract */\n              0x00\n                /* \"Contracts\":6084:6095  Status.OPEN */\n              dup1\n                /* \"Contracts\":6074:6095  status == Status.OPEN */\n              0x02\n              dup2\n              gt\n              iszero\n              tag_81\n              jumpi\n              tag_82\n              tag_60\n              jump\t// in\n            tag_82:\n            tag_81:\n                /* \"Contracts\":6074:6080  status */\n              0x06\n              0x00\n              swap1\n              sload\n              swap1\n              0x0100\n              exp\n              swap1\n              div\n              0xff\n              and\n                /* \"Contracts\":6074:6095  status == Status.OPEN */\n              0x02\n              dup2\n              gt\n              iszero\n              tag_83\n              jumpi\n              tag_84\n              tag_60\n              jump\t// in\n            tag_84:\n            tag_83:\n              eq\n                /* \"Contracts\":6066:6136  require(status == Status.OPEN, \"Contract status is not equal to open\") */\n              tag_85\n              jumpi\n              mload(0x40)\n              0x08c379a000000000000000000000000000000000000000000000000000000000\n              dup2\n              mstore\n              0x04\n              add\n              tag_86\n              swap1\n              tag_65\n              jump\t// in\n            tag_86:\n              mload(0x40)\n              dup1\n              swap2\n              sub\n              swap1\n              revert\n            tag_85:\n                /* \"Contracts\":6604:6611  referee */\n              0x01\n              0x00\n              swap1\n              sload\n              swap1\n              0x0100\n              exp\n              swap1\n              div\n              0xffffffffffffffffffffffffffffffffffffffff\n              and\n                /* \"Contracts\":6591:6611  tx.origin == referee */\n              0xffffffffffffffffffffffffffffffffffffffff\n              and\n                /* \"Contracts\":6591:6600  tx.origin */\n              origin\n                /* \"Contracts\":6591:6611  tx.origin == referee */\n              0xffffffffffffffffffffffffffffffffffffffff\n              and\n              eq\n                /* \"Contracts\":6583:6652  require(tx.origin == referee, \"Only referee can complete a contract\") */\n              tag_88\n              jumpi\n              mload(0x40)\n              0x08c379a000000000000000000000000000000000000000000000000000000000\n              dup2\n              mstore\n              0x04\n              add\n              tag_89\n              swap1\n              tag_90\n              jump\t// in\n            tag_89:\n              mload(0x40)\n              dup1\n              swap2\n              sub\n              swap1\n              revert\n            tag_88:\n                /* \"Contracts\":6670:6677  creator */\n              0x00\n              dup1\n              sload\n              swap1\n              0x0100\n              exp\n              swap1\n              div\n              0xffffffffffffffffffffffffffffffffffffffff\n              and\n                /* \"Contracts\":6662:6687  payable(creator).transfer */\n              0xffffffffffffffffffffffffffffffffffffffff\n              and\n                /* \"Contracts\":6662:6710  payable(creator).transfer(address(this).balance) */\n              0x08fc\n                /* \"Contracts\":6688:6709  address(this).balance */\n              selfbalance\n                /* \"Contracts\":6662:6710  payable(creator).transfer(address(this).balance) */\n              swap1\n              dup2\n              iszero\n              mul\n              swap1\n              mload(0x40)\n              0x00\n              mload(0x40)\n              dup1\n              dup4\n              sub\n              dup2\n              dup6\n              dup9\n              dup9\n              call\n              swap4\n              pop\n              pop\n              pop\n              pop\n              iszero\n              dup1\n              iszero\n              tag_92\n              jumpi\n              returndatasize\n              0x00\n              dup1\n              returndatacopy\n              revert(0x00, returndatasize)\n            tag_92:\n              pop\n                /* \"Contracts\":6729:6743  Status.SUCCESS */\n              0x01\n                /* \"Contracts\":6720:6726  status */\n              0x06\n              0x00\n                /* \"Contracts\":6720:6743  status = Status.SUCCESS */\n              0x0100\n              exp\n              dup2\n              sload\n              dup2\n              0xff\n              mul\n              not\n              and\n              swap1\n              dup4\n              0x02\n              dup2\n              gt\n              iszero\n              tag_93\n              jumpi\n              tag_94\n              tag_60\n              jump\t// in\n            tag_94:\n            tag_93:\n              mul\n              or\n              swap1\n              sstore\n              pop\n                /* \"Contracts\":6760:6764  this */\n              address\n                /* \"Contracts\":6753:6764  return this */\n              swap1\n              pop\n                /* \"Contracts\":6486:6771  function completeContract() public payable restricted returns (AccountabilityContract) {... */\n              swap1\n              jump\t// out\n                /* \"#utility.yul\":7:133   */\n            tag_95:\n                /* \"#utility.yul\":44:51   */\n              0x00\n                /* \"#utility.yul\":84:126   */\n              0xffffffffffffffffffffffffffffffffffffffff\n                /* \"#utility.yul\":77:82   */\n              dup3\n                /* \"#utility.yul\":73:127   */\n              and\n                /* \"#utility.yul\":62:127   */\n              swap1\n              pop\n                /* \"#utility.yul\":7:133   */\n              swap2\n              swap1\n              pop\n              jump\t// out\n                /* \"#utility.yul\":139:235   */\n            tag_96:\n                /* \"#utility.yul\":176:183   */\n              0x00\n                /* \"#utility.yul\":205:229   */\n              tag_124\n                /* \"#utility.yul\":223:228   */\n              dup3\n                /* \"#utility.yul\":205:229   */\n              tag_95\n              jump\t// in\n            tag_124:\n                /* \"#utility.yul\":194:229   */\n              swap1\n              pop\n                /* \"#utility.yul\":139:235   */\n              swap2\n              swap1\n              pop\n              jump\t// out\n                /* \"#utility.yul\":241:359   */\n            tag_97:\n                /* \"#utility.yul\":328:352   */\n              tag_126\n                /* \"#utility.yul\":346:351   */\n              dup2\n                /* \"#utility.yul\":328:352   */\n              tag_96\n              jump\t// in\n            tag_126:\n                /* \"#utility.yul\":323:326   */\n              dup3\n                /* \"#utility.yul\":316:353   */\n              mstore\n                /* \"#utility.yul\":241:359   */\n              pop\n              pop\n              jump\t// out\n                /* \"#utility.yul\":365:587   */\n            tag_16:\n                /* \"#utility.yul\":458:462   */\n              0x00\n                /* \"#utility.yul\":496:498   */\n              0x20\n                /* \"#utility.yul\":485:494   */\n              dup3\n                /* \"#utility.yul\":481:499   */\n              add\n                /* \"#utility.yul\":473:499   */\n              swap1\n              pop\n                /* \"#utility.yul\":509:580   */\n              tag_128\n                /* \"#utility.yul\":577:578   */\n              0x00\n                /* \"#utility.yul\":566:575   */\n              dup4\n                /* \"#utility.yul\":562:579   */\n              add\n                /* \"#utility.yul\":553:559   */\n              dup5\n                /* \"#utility.yul\":509:580   */\n              tag_97\n              jump\t// in\n            tag_128:\n                /* \"#utility.yul\":365:587   */\n              swap3\n              swap2\n              pop\n              pop\n              jump\t// out\n                /* \"#utility.yul\":593:692   */\n            tag_98:\n                /* \"#utility.yul\":645:651   */\n              0x00\n                /* \"#utility.yul\":679:684   */\n              dup2\n                /* \"#utility.yul\":673:685   */\n              mload\n                /* \"#utility.yul\":663:685   */\n              swap1\n              pop\n                /* \"#utility.yul\":593:692   */\n              swap2\n              swap1\n              pop\n              jump\t// out\n                /* \"#utility.yul\":698:867   */\n            tag_99:\n                /* \"#utility.yul\":782:793   */\n              0x00\n                /* \"#utility.yul\":816:822   */\n              dup3\n                /* \"#utility.yul\":811:814   */\n              dup3\n                /* \"#utility.yul\":804:823   */\n              mstore\n                /* \"#utility.yul\":856:860   */\n              0x20\n                /* \"#utility.yul\":851:854   */\n              dup3\n                /* \"#utility.yul\":847:861   */\n              add\n                /* \"#utility.yul\":832:861   */\n              swap1\n              pop\n                /* \"#utility.yul\":698:867   */\n              swap3\n              swap2\n              pop\n              pop\n              jump\t// out\n                /* \"#utility.yul\":873:1180   */\n            tag_100:\n                /* \"#utility.yul\":941:942   */\n              0x00\n                /* \"#utility.yul\":951:1064   */\n            tag_132:\n                /* \"#utility.yul\":965:971   */\n              dup4\n                /* \"#utility.yul\":962:963   */\n              dup2\n                /* \"#utility.yul\":959:972   */\n              lt\n                /* \"#utility.yul\":951:1064   */\n              iszero\n              tag_134\n              jumpi\n                /* \"#utility.yul\":1050:1051   */\n              dup1\n                /* \"#utility.yul\":1045:1048   */\n              dup3\n                /* \"#utility.yul\":1041:1052   */\n              add\n                /* \"#utility.yul\":1035:1053   */\n              mload\n                /* \"#utility.yul\":1031:1032   */\n              dup2\n                /* \"#utility.yul\":1026:1029   */\n              dup5\n                /* \"#utility.yul\":1022:1033   */\n              add\n                /* \"#utility.yul\":1015:1054   */\n              mstore\n                /* \"#utility.yul\":987:989   */\n              0x20\n                /* \"#utility.yul\":984:985   */\n              dup2\n                /* \"#utility.yul\":980:990   */\n              add\n                /* \"#utility.yul\":975:990   */\n              swap1\n              pop\n                /* \"#utility.yul\":951:1064   */\n              jump(tag_132)\n            tag_134:\n                /* \"#utility.yul\":1082:1088   */\n              dup4\n                /* \"#utility.yul\":1079:1080   */\n              dup2\n                /* \"#utility.yul\":1076:1089   */\n              gt\n                /* \"#utility.yul\":1073:1174   */\n              iszero\n              tag_135\n              jumpi\n                /* \"#utility.yul\":1162:1163   */\n              0x00\n                /* \"#utility.yul\":1153:1159   */\n              dup5\n                /* \"#utility.yul\":1148:1151   */\n              dup5\n                /* \"#utility.yul\":1144:1160   */\n              add\n                /* \"#utility.yul\":1137:1164   */\n              mstore\n                /* \"#utility.yul\":1073:1174   */\n            tag_135:\n                /* \"#utility.yul\":922:1180   */\n              pop\n                /* \"#utility.yul\":873:1180   */\n              pop\n              pop\n              pop\n              jump\t// out\n                /* \"#utility.yul\":1186:1288   */\n            tag_101:\n                /* \"#utility.yul\":1227:1233   */\n              0x00\n                /* \"#utility.yul\":1278:1280   */\n              0x1f\n                /* \"#utility.yul\":1274:1281   */\n              not\n                /* \"#utility.yul\":1269:1271   */\n              0x1f\n                /* \"#utility.yul\":1262:1267   */\n              dup4\n                /* \"#utility.yul\":1258:1272   */\n              add\n                /* \"#utility.yul\":1254:1282   */\n              and\n                /* \"#utility.yul\":1244:1282   */\n              swap1\n              pop\n                /* \"#utility.yul\":1186:1288   */\n              swap2\n              swap1\n              pop\n              jump\t// out\n                /* \"#utility.yul\":1294:1658   */\n            tag_102:\n                /* \"#utility.yul\":1382:1385   */\n              0x00\n                /* \"#utility.yul\":1410:1449   */\n              tag_138\n                /* \"#utility.yul\":1443:1448   */\n              dup3\n                /* \"#utility.yul\":1410:1449   */\n              tag_98\n              jump\t// in\n            tag_138:\n                /* \"#utility.yul\":1465:1536   */\n              tag_139\n                /* \"#utility.yul\":1529:1535   */\n              dup2\n                /* \"#utility.yul\":1524:1527   */\n              dup6\n                /* \"#utility.yul\":1465:1536   */\n              tag_99\n              jump\t// in\n            tag_139:\n                /* \"#utility.yul\":1458:1536   */\n              swap4\n              pop\n                /* \"#utility.yul\":1545:1597   */\n              tag_140\n                /* \"#utility.yul\":1590:1596   */\n              dup2\n                /* \"#utility.yul\":1585:1588   */\n              dup6\n                /* \"#utility.yul\":1578:1582   */\n              0x20\n                /* \"#utility.yul\":1571:1576   */\n              dup7\n                /* \"#utility.yul\":1567:1583   */\n              add\n                /* \"#utility.yul\":1545:1597   */\n              tag_100\n              jump\t// in\n            tag_140:\n                /* \"#utility.yul\":1622:1651   */\n              tag_141\n                /* \"#utility.yul\":1644:1650   */\n              dup2\n                /* \"#utility.yul\":1622:1651   */\n              tag_101\n              jump\t// in\n            tag_141:\n                /* \"#utility.yul\":1617:1620   */\n              dup5\n                /* \"#utility.yul\":1613:1652   */\n              add\n                /* \"#utility.yul\":1606:1652   */\n              swap2\n              pop\n                /* \"#utility.yul\":1386:1658   */\n              pop\n                /* \"#utility.yul\":1294:1658   */\n              swap3\n              swap2\n              pop\n              pop\n              jump\t// out\n                /* \"#utility.yul\":1664:1977   */\n            tag_21:\n                /* \"#utility.yul\":1777:1781   */\n              0x00\n                /* \"#utility.yul\":1815:1817   */\n              0x20\n                /* \"#utility.yul\":1804:1813   */\n              dup3\n                /* \"#utility.yul\":1800:1818   */\n              add\n                /* \"#utility.yul\":1792:1818   */\n              swap1\n              pop\n                /* \"#utility.yul\":1864:1873   */\n              dup2\n                /* \"#utility.yul\":1858:1862   */\n              dup2\n                /* \"#utility.yul\":1854:1874   */\n              sub\n                /* \"#utility.yul\":1850:1851   */\n              0x00\n                /* \"#utility.yul\":1839:1848   */\n              dup4\n                /* \"#utility.yul\":1835:1852   */\n              add\n                /* \"#utility.yul\":1828:1875   */\n              mstore\n                /* \"#utility.yul\":1892:1970   */\n              tag_143\n                /* \"#utility.yul\":1965:1969   */\n              dup2\n                /* \"#utility.yul\":1956:1962   */\n              dup5\n                /* \"#utility.yul\":1892:1970   */\n              tag_102\n              jump\t// in\n            tag_143:\n                /* \"#utility.yul\":1884:1970   */\n              swap1\n              pop\n                /* \"#utility.yul\":1664:1977   */\n              swap3\n              swap2\n              pop\n              pop\n              jump\t// out\n                /* \"#utility.yul\":1983:2163   */\n            tag_60:\n                /* \"#utility.yul\":2031:2108   */\n              0x4e487b7100000000000000000000000000000000000000000000000000000000\n                /* \"#utility.yul\":2028:2029   */\n              0x00\n                /* \"#utility.yul\":2021:2109   */\n              mstore\n                /* \"#utility.yul\":2128:2132   */\n              0x21\n                /* \"#utility.yul\":2125:2126   */\n              0x04\n                /* \"#utility.yul\":2118:2133   */\n              mstore\n                /* \"#utility.yul\":2152:2156   */\n              0x24\n                /* \"#utility.yul\":2149:2150   */\n              0x00\n                /* \"#utility.yul\":2142:2157   */\n              revert\n                /* \"#utility.yul\":2169:2284   */\n            tag_103:\n                /* \"#utility.yul\":2252:2253   */\n              0x03\n                /* \"#utility.yul\":2245:2250   */\n              dup2\n                /* \"#utility.yul\":2242:2254   */\n              lt\n                /* \"#utility.yul\":2232:2278   */\n              tag_146\n              jumpi\n                /* \"#utility.yul\":2258:2276   */\n              tag_147\n              tag_60\n              jump\t// in\n            tag_147:\n                /* \"#utility.yul\":2232:2278   */\n            tag_146:\n                /* \"#utility.yul\":2169:2284   */\n              pop\n              jump\t// out\n                /* \"#utility.yul\":2290:2421   */\n            tag_104:\n                /* \"#utility.yul\":2337:2344   */\n              0x00\n                /* \"#utility.yul\":2366:2371   */\n              dup2\n                /* \"#utility.yul\":2355:2371   */\n              swap1\n              pop\n                /* \"#utility.yul\":2372:2415   */\n              tag_149\n                /* \"#utility.yul\":2409:2414   */\n              dup3\n                /* \"#utility.yul\":2372:2415   */\n              tag_103\n              jump\t// in\n            tag_149:\n                /* \"#utility.yul\":2290:2421   */\n              swap2\n              swap1\n              pop\n              jump\t// out\n                /* \"#utility.yul\":2427:2558   */\n            tag_105:\n                /* \"#utility.yul\":2485:2494   */\n              0x00\n                /* \"#utility.yul\":2518:2552   */\n              tag_151\n                /* \"#utility.yul\":2546:2551   */\n              dup3\n                /* \"#utility.yul\":2518:2552   */\n              tag_104\n              jump\t// in\n            tag_151:\n                /* \"#utility.yul\":2505:2552   */\n              swap1\n              pop\n                /* \"#utility.yul\":2427:2558   */\n              swap2\n              swap1\n              pop\n              jump\t// out\n                /* \"#utility.yul\":2564:2711   */\n            tag_106:\n                /* \"#utility.yul\":2659:2704   */\n              tag_153\n                /* \"#utility.yul\":2698:2703   */\n              dup2\n                /* \"#utility.yul\":2659:2704   */\n              tag_105\n              jump\t// in\n            tag_153:\n                /* \"#utility.yul\":2654:2657   */\n              dup3\n                /* \"#utility.yul\":2647:2705   */\n              mstore\n                /* \"#utility.yul\":2564:2711   */\n              pop\n              pop\n              jump\t// out\n                /* \"#utility.yul\":2717:2955   */\n            tag_26:\n                /* \"#utility.yul\":2818:2822   */\n              0x00\n                /* \"#utility.yul\":2856:2858   */\n              0x20\n                /* \"#utility.yul\":2845:2854   */\n              dup3\n                /* \"#utility.yul\":2841:2859   */\n              add\n                /* \"#utility.yul\":2833:2859   */\n              swap1\n              pop\n                /* \"#utility.yul\":2869:2948   */\n              tag_155\n                /* \"#utility.yul\":2945:2946   */\n              0x00\n                /* \"#utility.yul\":2934:2943   */\n              dup4\n                /* \"#utility.yul\":2930:2947   */\n              add\n                /* \"#utility.yul\":2921:2927   */\n              dup5\n                /* \"#utility.yul\":2869:2948   */\n              tag_106\n              jump\t// in\n            tag_155:\n                /* \"#utility.yul\":2717:2955   */\n              swap3\n              swap2\n              pop\n              pop\n              jump\t// out\n                /* \"#utility.yul\":2961:3021   */\n            tag_107:\n                /* \"#utility.yul\":2989:2992   */\n              0x00\n                /* \"#utility.yul\":3010:3015   */\n              dup2\n                /* \"#utility.yul\":3003:3015   */\n              swap1\n              pop\n                /* \"#utility.yul\":2961:3021   */\n              swap2\n              swap1\n              pop\n              jump\t// out\n                /* \"#utility.yul\":3027:3169   */\n            tag_108:\n                /* \"#utility.yul\":3077:3086   */\n              0x00\n                /* \"#utility.yul\":3110:3163   */\n              tag_158\n                /* \"#utility.yul\":3128:3162   */\n              tag_159\n                /* \"#utility.yul\":3137:3161   */\n              tag_160\n                /* \"#utility.yul\":3155:3160   */\n              dup5\n                /* \"#utility.yul\":3137:3161   */\n              tag_95\n              jump\t// in\n            tag_160:\n                /* \"#utility.yul\":3128:3162   */\n              tag_107\n              jump\t// in\n            tag_159:\n                /* \"#utility.yul\":3110:3163   */\n              tag_95\n              jump\t// in\n            tag_158:\n                /* \"#utility.yul\":3097:3163   */\n              swap1\n              pop\n                /* \"#utility.yul\":3027:3169   */\n              swap2\n              swap1\n              pop\n              jump\t// out\n                /* \"#utility.yul\":3175:3301   */\n            tag_109:\n                /* \"#utility.yul\":3225:3234   */\n              0x00\n                /* \"#utility.yul\":3258:3295   */\n              tag_162\n                /* \"#utility.yul\":3289:3294   */\n              dup3\n                /* \"#utility.yul\":3258:3295   */\n              tag_108\n              jump\t// in\n            tag_162:\n                /* \"#utility.yul\":3245:3295   */\n              swap1\n              pop\n                /* \"#utility.yul\":3175:3301   */\n              swap2\n              swap1\n              pop\n              jump\t// out\n                /* \"#utility.yul\":3307:3463   */\n            tag_110:\n                /* \"#utility.yul\":3387:3396   */\n              0x00\n                /* \"#utility.yul\":3420:3457   */\n              tag_164\n                /* \"#utility.yul\":3451:3456   */\n              dup3\n                /* \"#utility.yul\":3420:3457   */\n              tag_109\n              jump\t// in\n            tag_164:\n                /* \"#utility.yul\":3407:3457   */\n              swap1\n              pop\n                /* \"#utility.yul\":3307:3463   */\n              swap2\n              swap1\n              pop\n              jump\t// out\n                /* \"#utility.yul\":3469:3660   */\n            tag_111:\n                /* \"#utility.yul\":3586:3653   */\n              tag_166\n                /* \"#utility.yul\":3647:3652   */\n              dup2\n                /* \"#utility.yul\":3586:3653   */\n              tag_110\n              jump\t// in\n            tag_166:\n                /* \"#utility.yul\":3581:3584   */\n              dup3\n                /* \"#utility.yul\":3574:3654   */\n              mstore\n                /* \"#utility.yul\":3469:3660   */\n              pop\n              pop\n              jump\t// out\n                /* \"#utility.yul\":3666:3948   */\n            tag_30:\n                /* \"#utility.yul\":3789:3793   */\n              0x00\n                /* \"#utility.yul\":3827:3829   */\n              0x20\n                /* \"#utility.yul\":3816:3825   */\n              dup3\n                /* \"#utility.yul\":3812:3830   */\n              add\n                /* \"#utility.yul\":3804:3830   */\n              swap1\n              pop\n                /* \"#utility.yul\":3840:3941   */\n              tag_168\n                /* \"#utility.yul\":3938:3939   */\n              0x00\n                /* \"#utility.yul\":3927:3936   */\n              dup4\n                /* \"#utility.yul\":3923:3940   */\n              add\n                /* \"#utility.yul\":3914:3920   */\n              dup5\n                /* \"#utility.yul\":3840:3941   */\n              tag_111\n              jump\t// in\n            tag_168:\n                /* \"#utility.yul\":3666:3948   */\n              swap3\n              swap2\n              pop\n              pop\n              jump\t// out\n                /* \"#utility.yul\":3954:4031   */\n            tag_112:\n                /* \"#utility.yul\":3991:3998   */\n              0x00\n                /* \"#utility.yul\":4020:4025   */\n              dup2\n                /* \"#utility.yul\":4009:4025   */\n              swap1\n              pop\n                /* \"#utility.yul\":3954:4031   */\n              swap2\n              swap1\n              pop\n              jump\t// out\n                /* \"#utility.yul\":4037:4155   */\n            tag_113:\n                /* \"#utility.yul\":4124:4148   */\n              tag_171\n                /* \"#utility.yul\":4142:4147   */\n              dup2\n                /* \"#utility.yul\":4124:4148   */\n              tag_112\n              jump\t// in\n            tag_171:\n                /* \"#utility.yul\":4119:4122   */\n              dup3\n                /* \"#utility.yul\":4112:4149   */\n              mstore\n                /* \"#utility.yul\":4037:4155   */\n              pop\n              pop\n              jump\t// out\n                /* \"#utility.yul\":4161:4383   */\n            tag_47:\n                /* \"#utility.yul\":4254:4258   */\n              0x00\n                /* \"#utility.yul\":4292:4294   */\n              0x20\n                /* \"#utility.yul\":4281:4290   */\n              dup3\n                /* \"#utility.yul\":4277:4295   */\n              add\n                /* \"#utility.yul\":4269:4295   */\n              swap1\n              pop\n                /* \"#utility.yul\":4305:4376   */\n              tag_173\n                /* \"#utility.yul\":4373:4374   */\n              0x00\n                /* \"#utility.yul\":4362:4371   */\n              dup4\n                /* \"#utility.yul\":4358:4375   */\n              add\n                /* \"#utility.yul\":4349:4355   */\n              dup5\n                /* \"#utility.yul\":4305:4376   */\n              tag_113\n              jump\t// in\n            tag_173:\n                /* \"#utility.yul\":4161:4383   */\n              swap3\n              swap2\n              pop\n              pop\n              jump\t// out\n                /* \"#utility.yul\":4389:4569   */\n            tag_114:\n                /* \"#utility.yul\":4437:4514   */\n              0x4e487b7100000000000000000000000000000000000000000000000000000000\n                /* \"#utility.yul\":4434:4435   */\n              0x00\n                /* \"#utility.yul\":4427:4515   */\n              mstore\n                /* \"#utility.yul\":4534:4538   */\n              0x22\n                /* \"#utility.yul\":4531:4532   */\n              0x04\n                /* \"#utility.yul\":4524:4539   */\n              mstore\n                /* \"#utility.yul\":4558:4562   */\n              0x24\n                /* \"#utility.yul\":4555:4556   */\n              0x00\n                /* \"#utility.yul\":4548:4563   */\n              revert\n                /* \"#utility.yul\":4575:4895   */\n            tag_52:\n                /* \"#utility.yul\":4619:4625   */\n              0x00\n                /* \"#utility.yul\":4656:4657   */\n              0x02\n                /* \"#utility.yul\":4650:4654   */\n              dup3\n                /* \"#utility.yul\":4646:4658   */\n              div\n                /* \"#utility.yul\":4636:4658   */\n              swap1\n              pop\n                /* \"#utility.yul\":4703:4704   */\n              0x01\n                /* \"#utility.yul\":4697:4701   */\n              dup3\n                /* \"#utility.yul\":4693:4705   */\n              and\n                /* \"#utility.yul\":4724:4742   */\n              dup1\n                /* \"#utility.yul\":4714:4795   */\n              tag_176\n              jumpi\n                /* \"#utility.yul\":4780:4784   */\n              0x7f\n                /* \"#utility.yul\":4772:4778   */\n              dup3\n                /* \"#utility.yul\":4768:4785   */\n              and\n                /* \"#utility.yul\":4758:4785   */\n              swap2\n              pop\n                /* \"#utility.yul\":4714:4795   */\n            tag_176:\n                /* \"#utility.yul\":4842:4844   */\n              0x20\n                /* \"#utility.yul\":4834:4840   */\n              dup3\n                /* \"#utility.yul\":4831:4845   */\n              lt\n                /* \"#utility.yul\":4811:4829   */\n              dup2\n                /* \"#utility.yul\":4808:4846   */\n              eq\n                /* \"#utility.yul\":4805:4889   */\n              iszero\n              tag_177\n              jumpi\n                /* \"#utility.yul\":4861:4879   */\n              tag_178\n              tag_114\n              jump\t// in\n            tag_178:\n                /* \"#utility.yul\":4805:4889   */\n            tag_177:\n                /* \"#utility.yul\":4626:4895   */\n              pop\n                /* \"#utility.yul\":4575:4895   */\n              swap2\n              swap1\n              pop\n              jump\t// out\n                /* \"#utility.yul\":4901:5124   */\n            tag_115:\n                /* \"#utility.yul\":5041:5075   */\n              0x436f6e747261637420737461747573206973206e6f7420657175616c20746f20\n                /* \"#utility.yul\":5037:5038   */\n              0x00\n                /* \"#utility.yul\":5029:5035   */\n              dup3\n                /* \"#utility.yul\":5025:5039   */\n              add\n                /* \"#utility.yul\":5018:5076   */\n              mstore\n                /* \"#utility.yul\":5110:5116   */\n              0x6f70656e00000000000000000000000000000000000000000000000000000000\n                /* \"#utility.yul\":5105:5107   */\n              0x20\n                /* \"#utility.yul\":5097:5103   */\n              dup3\n                /* \"#utility.yul\":5093:5108   */\n              add\n                /* \"#utility.yul\":5086:5117   */\n              mstore\n                /* \"#utility.yul\":4901:5124   */\n              pop\n              jump\t// out\n                /* \"#utility.yul\":5130:5496   */\n            tag_116:\n                /* \"#utility.yul\":5272:5275   */\n              0x00\n                /* \"#utility.yul\":5293:5360   */\n              tag_181\n                /* \"#utility.yul\":5357:5359   */\n              0x24\n                /* \"#utility.yul\":5352:5355   */\n              dup4\n                /* \"#utility.yul\":5293:5360   */\n              tag_99\n              jump\t// in\n            tag_181:\n                /* \"#utility.yul\":5286:5360   */\n              swap2\n              pop\n                /* \"#utility.yul\":5369:5462   */\n              tag_182\n                /* \"#utility.yul\":5458:5461   */\n              dup3\n                /* \"#utility.yul\":5369:5462   */\n              tag_115\n              jump\t// in\n            tag_182:\n                /* \"#utility.yul\":5487:5489   */\n              0x40\n                /* \"#utility.yul\":5482:5485   */\n              dup3\n                /* \"#utility.yul\":5478:5490   */\n              add\n                /* \"#utility.yul\":5471:5490   */\n              swap1\n              pop\n                /* \"#utility.yul\":5130:5496   */\n              swap2\n              swap1\n              pop\n              jump\t// out\n                /* \"#utility.yul\":5502:5921   */\n            tag_65:\n                /* \"#utility.yul\":5668:5672   */\n              0x00\n                /* \"#utility.yul\":5706:5708   */\n              0x20\n                /* \"#utility.yul\":5695:5704   */\n              dup3\n                /* \"#utility.yul\":5691:5709   */\n              add\n                /* \"#utility.yul\":5683:5709   */\n              swap1\n              pop\n                /* \"#utility.yul\":5755:5764   */\n              dup2\n                /* \"#utility.yul\":5749:5753   */\n              dup2\n                /* \"#utility.yul\":5745:5765   */\n              sub\n                /* \"#utility.yul\":5741:5742   */\n              0x00\n                /* \"#utility.yul\":5730:5739   */\n              dup4\n                /* \"#utility.yul\":5726:5743   */\n              add\n                /* \"#utility.yul\":5719:5766   */\n              mstore\n                /* \"#utility.yul\":5783:5914   */\n              tag_184\n                /* \"#utility.yul\":5909:5913   */\n              dup2\n                /* \"#utility.yul\":5783:5914   */\n              tag_116\n              jump\t// in\n            tag_184:\n                /* \"#utility.yul\":5775:5914   */\n              swap1\n              pop\n                /* \"#utility.yul\":5502:5921   */\n              swap2\n              swap1\n              pop\n              jump\t// out\n                /* \"#utility.yul\":5927:6155   */\n            tag_117:\n                /* \"#utility.yul\":6067:6101   */\n              0x4f6e6c792072656665726565206f722063726561746f722063616e206661696c\n                /* \"#utility.yul\":6063:6064   */\n              0x00\n                /* \"#utility.yul\":6055:6061   */\n              dup3\n                /* \"#utility.yul\":6051:6065   */\n              add\n                /* \"#utility.yul\":6044:6102   */\n              mstore\n                /* \"#utility.yul\":6136:6147   */\n              0x20636f6e74726163740000000000000000000000000000000000000000000000\n                /* \"#utility.yul\":6131:6133   */\n              0x20\n                /* \"#utility.yul\":6123:6129   */\n              dup3\n                /* \"#utility.yul\":6119:6134   */\n              add\n                /* \"#utility.yul\":6112:6148   */\n              mstore\n                /* \"#utility.yul\":5927:6155   */\n              pop\n              jump\t// out\n                /* \"#utility.yul\":6161:6527   */\n            tag_118:\n                /* \"#utility.yul\":6303:6306   */\n              0x00\n                /* \"#utility.yul\":6324:6391   */\n              tag_187\n                /* \"#utility.yul\":6388:6390   */\n              0x29\n                /* \"#utility.yul\":6383:6386   */\n              dup4\n                /* \"#utility.yul\":6324:6391   */\n              tag_99\n              jump\t// in\n            tag_187:\n                /* \"#utility.yul\":6317:6391   */\n              swap2\n              pop\n                /* \"#utility.yul\":6400:6493   */\n              tag_188\n                /* \"#utility.yul\":6489:6492   */\n              dup3\n                /* \"#utility.yul\":6400:6493   */\n              tag_117\n              jump\t// in\n            tag_188:\n                /* \"#utility.yul\":6518:6520   */\n              0x40\n                /* \"#utility.yul\":6513:6516   */\n              dup3\n                /* \"#utility.yul\":6509:6521   */\n              add\n                /* \"#utility.yul\":6502:6521   */\n              swap1\n              pop\n                /* \"#utility.yul\":6161:6527   */\n              swap2\n              swap1\n              pop\n              jump\t// out\n                /* \"#utility.yul\":6533:6952   */\n            tag_70:\n                /* \"#utility.yul\":6699:6703   */\n              0x00\n                /* \"#utility.yul\":6737:6739   */\n              0x20\n                /* \"#utility.yul\":6726:6735   */\n              dup3\n                /* \"#utility.yul\":6722:6740   */\n              add\n                /* \"#utility.yul\":6714:6740   */\n              swap1\n              pop\n                /* \"#utility.yul\":6786:6795   */\n              dup2\n                /* \"#utility.yul\":6780:6784   */\n              dup2\n                /* \"#utility.yul\":6776:6796   */\n              sub\n                /* \"#utility.yul\":6772:6773   */\n              0x00\n                /* \"#utility.yul\":6761:6770   */\n              dup4\n                /* \"#utility.yul\":6757:6774   */\n              add\n                /* \"#utility.yul\":6750:6797   */\n              mstore\n                /* \"#utility.yul\":6814:6945   */\n              tag_190\n                /* \"#utility.yul\":6940:6944   */\n              dup2\n                /* \"#utility.yul\":6814:6945   */\n              tag_118\n              jump\t// in\n            tag_190:\n                /* \"#utility.yul\":6806:6945   */\n              swap1\n              pop\n                /* \"#utility.yul\":6533:6952   */\n              swap2\n              swap1\n              pop\n              jump\t// out\n                /* \"#utility.yul\":6958:7181   */\n            tag_119:\n                /* \"#utility.yul\":7098:7132   */\n              0x4f6e6c7920726566657265652063616e20636f6d706c657465206120636f6e74\n                /* \"#utility.yul\":7094:7095   */\n              0x00\n                /* \"#utility.yul\":7086:7092   */\n              dup3\n                /* \"#utility.yul\":7082:7096   */\n              add\n                /* \"#utility.yul\":7075:7133   */\n              mstore\n                /* \"#utility.yul\":7167:7173   */\n              0x7261637400000000000000000000000000000000000000000000000000000000\n                /* \"#utility.yul\":7162:7164   */\n              0x20\n                /* \"#utility.yul\":7154:7160   */\n              dup3\n                /* \"#utility.yul\":7150:7165   */\n              add\n                /* \"#utility.yul\":7143:7174   */\n              mstore\n                /* \"#utility.yul\":6958:7181   */\n              pop\n              jump\t// out\n                /* \"#utility.yul\":7187:7553   */\n            tag_120:\n                /* \"#utility.yul\":7329:7332   */\n              0x00\n                /* \"#utility.yul\":7350:7417   */\n              tag_193\n                /* \"#utility.yul\":7414:7416   */\n              0x24\n                /* \"#utility.yul\":7409:7412   */\n              dup4\n                /* \"#utility.yul\":7350:7417   */\n              tag_99\n              jump\t// in\n            tag_193:\n                /* \"#utility.yul\":7343:7417   */\n              swap2\n              pop\n                /* \"#utility.yul\":7426:7519   */\n              tag_194\n                /* \"#utility.yul\":7515:7518   */\n              dup3\n                /* \"#utility.yul\":7426:7519   */\n              tag_119\n              jump\t// in\n            tag_194:\n                /* \"#utility.yul\":7544:7546   */\n              0x40\n                /* \"#utility.yul\":7539:7542   */\n              dup3\n                /* \"#utility.yul\":7535:7547   */\n              add\n                /* \"#utility.yul\":7528:7547   */\n              swap1\n              pop\n                /* \"#utility.yul\":7187:7553   */\n              swap2\n              swap1\n              pop\n              jump\t// out\n                /* \"#utility.yul\":7559:7978   */\n            tag_90:\n                /* \"#utility.yul\":7725:7729   */\n              0x00\n                /* \"#utility.yul\":7763:7765   */\n              0x20\n                /* \"#utility.yul\":7752:7761   */\n              dup3\n                /* \"#utility.yul\":7748:7766   */\n              add\n                /* \"#utility.yul\":7740:7766   */\n              swap1\n              pop\n                /* \"#utility.yul\":7812:7821   */\n              dup2\n                /* \"#utility.yul\":7806:7810   */\n              dup2\n                /* \"#utility.yul\":7802:7822   */\n              sub\n                /* \"#utility.yul\":7798:7799   */\n              0x00\n                /* \"#utility.yul\":7787:7796   */\n              dup4\n                /* \"#utility.yul\":7783:7800   */\n              add\n                /* \"#utility.yul\":7776:7823   */\n              mstore\n                /* \"#utility.yul\":7840:7971   */\n              tag_196\n                /* \"#utility.yul\":7966:7970   */\n              dup2\n                /* \"#utility.yul\":7840:7971   */\n              tag_120\n              jump\t// in\n            tag_196:\n                /* \"#utility.yul\":7832:7971   */\n              swap1\n              pop\n                /* \"#utility.yul\":7559:7978   */\n              swap2\n              swap1\n              pop\n              jump\t// out\n\n            auxdata: 0xa26469706673582212201e8c6ddf7cac4b1eba51b78aede907a84bd73948f0d7e172ce506cfa84ce0a2964736f6c634300080c0033\n        }\n    }\n\n    auxdata: 0xa26469706673582212204200e0be72e769f00ebb90df343535a0f0f352435f71e1574cd3c7acf50895ed64736f6c634300080c0033\n}\n","bytecode":{"linkReferences":{},"object":"608060405234801561001057600080fd5b5061309d806100206000396000f3fe608060405260043610620000aa5760003560e01c80639051e234116200006d5780639051e23414620001d9578063a87430ba146200021d578063b24e67d01462000261578063b3b6633e14620002a5578063cc78585014620002d5578063e436e826146200030357620000aa565b806319ee8bd414620000af578063442a7bc714620000f35780634ac0b82d146200013757806364a60b47146200016557806375ce46a714620001a9575b600080fd5b348015620000bc57600080fd5b50620000db6004803603810190620000d5919062001714565b62000323565b604051620000ea919062001814565b60405180910390f35b3480156200010057600080fd5b506200011f600480360381019062000119919062001714565b620003f5565b6040516200012e919062001814565b60405180910390f35b3480156200014457600080fd5b506200016360048036038101906200015d919062001838565b620004c6565b005b3480156200017257600080fd5b506200019160048036038101906200018b919062001714565b620005ce565b604051620001a091906200189a565b60405180910390f35b348015620001b657600080fd5b50620001c1620005ec565b604051620001d091906200189a565b60405180910390f35b348015620001e657600080fd5b50620002056004803603810190620001ff919062001714565b620005f2565b60405162000214919062001814565b60405180910390f35b3480156200022a57600080fd5b5062000249600480360381019062000243919062001714565b620006c4565b6040516200025891906200189a565b60405180910390f35b3480156200026e57600080fd5b506200028d600480360381019062000287919062001714565b620006e2565b6040516200029c919062001814565b60405180910390f35b348015620002b257600080fd5b50620002bd620007b3565b604051620002cc91906200189a565b60405180910390f35b348015620002e257600080fd5b50620003016004803603810190620002fb919062001838565b620007b9565b005b6200032160048036038101906200031b919062001a5e565b620008c1565b005b6060600360008373ffffffffffffffffffffffffffffffffffffffff1673ffffffffffffffffffffffffffffffffffffffff168152602001908152602001600020600201805480602002602001604051908101604052809291908181526020018280548015620003e957602002820191906000526020600020905b8160009054906101000a900473ffffffffffffffffffffffffffffffffffffffff1673ffffffffffffffffffffffffffffffffffffffff16815260200190600101908083116200039e575b50505050509050919050565b60606000808373ffffffffffffffffffffffffffffffffffffffff1673ffffffffffffffffffffffffffffffffffffffff168152602001908152602001600020600101805480602002602001604051908101604052809291908181526020018280548015620004ba57602002820191906000526020600020905b8160009054906101000a900473ffffffffffffffffffffffffffffffffffffffff1673ffffffffffffffffffffffffffffffffffffffff16815260200190600101908083116200046f575b50505050509050919050565b60008190508073ffffffffffffffffffffffffffffffffffffffff16632d398fa66040518163ffffffff1660e01b81526004016020604051808303816000875af115801562000519573d6000803e3d6000fd5b505050506040513d601f19601f820116820180604052508101906200053f919062001b53565b506200054c838362000c9c565b620005c98173ffffffffffffffffffffffffffffffffffffffff16633b1bebd16040518163ffffffff1660e01b8152600401602060405180830381865afa1580156200059c573d6000803e3d6000fd5b505050506040513d601f19601f82011682018060405250810190620005c2919062001b9c565b8362001059565b505050565b60036020528060005260406000206000915090508060000154905081565b60015481565b6060600360008373ffffffffffffffffffffffffffffffffffffffff1673ffffffffffffffffffffffffffffffffffffffff168152602001908152602001600020600101805480602002602001604051908101604052809291908181526020018280548015620006b857602002820191906000526020600020905b8160009054906101000a900473ffffffffffffffffffffffffffffffffffffffff1673ffffffffffffffffffffffffffffffffffffffff16815260200190600101908083116200066d575b50505050509050919050565b60006020528060005260406000206000915090508060000154905081565b60606000808373ffffffffffffffffffffffffffffffffffffffff1673ffffffffffffffffffffffffffffffffffffffff168152602001908152602001600020600201805480602002602001604051908101604052809291908181526020018280548015620007a757602002820191906000526020600020905b8160009054906101000a900473ffffffffffffffffffffffffffffffffffffffff1673ffffffffffffffffffffffffffffffffffffffff16815260200190600101908083116200075c575b50505050509050919050565b60045481565b60008190508073ffffffffffffffffffffffffffffffffffffffff1663b4fedc116040518163ffffffff1660e01b81526004016020604051808303816000875af11580156200080c573d6000803e3d6000fd5b505050506040513d601f19601f8201168201806040525081019062000832919062001b53565b506200083f838362000c9c565b620008bc8173ffffffffffffffffffffffffffffffffffffffff16633b1bebd16040518163ffffffff1660e01b8152600401602060405180830381865afa1580156200088f573d6000803e3d6000fd5b505050506040513d601f19601f82011682018060405250810190620008b5919062001b9c565b8362001059565b505050565b60008060003373ffffffffffffffffffffffffffffffffffffffff1673ffffffffffffffffffffffffffffffffffffffff1681526020019081526020016000206000015414156200098a5760016000815480929190620009219062001bfd565b91905055506002339080600181540180825580915050600190039060005260206000200160009091909190916101000a81548173ffffffffffffffffffffffffffffffffffffffff021916908373ffffffffffffffffffffffffffffffffffffffff1602179055505b6000600360008673ffffffffffffffffffffffffffffffffffffffff1673ffffffffffffffffffffffffffffffffffffffff16815260200190815260200160002060000154141562000a545760046000815480929190620009eb9062001bfd565b91905055506005849080600181540180825580915050600190039060005260206000200160009091909190916101000a81548173ffffffffffffffffffffffffffffffffffffffff021916908373ffffffffffffffffffffffffffffffffffffffff1602179055505b60003433868686863460405162000a6b906200168d565b62000a7c9695949392919062001d5a565b6040518091039082f090508015801562000a9a573d6000803e3d6000fd5b5090506000803373ffffffffffffffffffffffffffffffffffffffff1673ffffffffffffffffffffffffffffffffffffffff168152602001908152602001600020600001600081548092919062000af19062001bfd565b91905055506000803373ffffffffffffffffffffffffffffffffffffffff1673ffffffffffffffffffffffffffffffffffffffff168152602001908152602001600020600101819080600181540180825580915050600190039060005260206000200160009091909190916101000a81548173ffffffffffffffffffffffffffffffffffffffff021916908373ffffffffffffffffffffffffffffffffffffffff160217905550600360008673ffffffffffffffffffffffffffffffffffffffff1673ffffffffffffffffffffffffffffffffffffffff168152602001908152602001600020600001600081548092919062000bed9062001bfd565b9190505550600360008673ffffffffffffffffffffffffffffffffffffffff1673ffffffffffffffffffffffffffffffffffffffff168152602001908152602001600020600101819080600181540180825580915050600190039060005260206000200160009091909190916101000a81548173ffffffffffffffffffffffffffffffffffffffff021916908373ffffffffffffffffffffffffffffffffffffffff1602179055505050505050565b600062000caa838362001417565b905060008060008573ffffffffffffffffffffffffffffffffffffffff1673ffffffffffffffffffffffffffffffffffffffff16815260200190815260200160002060010180549050905060008290505b60018262000d0a919062001dd5565b81101562000e55576000808673ffffffffffffffffffffffffffffffffffffffff1673ffffffffffffffffffffffffffffffffffffffff16815260200190815260200160002060010160018262000d62919062001e10565b8154811062000d765762000d7562001e6d565b5b9060005260206000200160009054906101000a900473ffffffffffffffffffffffffffffffffffffffff166000808773ffffffffffffffffffffffffffffffffffffffff1673ffffffffffffffffffffffffffffffffffffffff168152602001908152602001600020600101828154811062000df75762000df662001e6d565b5b9060005260206000200160006101000a81548173ffffffffffffffffffffffffffffffffffffffff021916908373ffffffffffffffffffffffffffffffffffffffff160217905550808062000e4c9062001bfd565b91505062000cfb565b506000808573ffffffffffffffffffffffffffffffffffffffff1673ffffffffffffffffffffffffffffffffffffffff1681526020019081526020016000206002016000808673ffffffffffffffffffffffffffffffffffffffff1673ffffffffffffffffffffffffffffffffffffffff16815260200190815260200160002060010160016000808873ffffffffffffffffffffffffffffffffffffffff1673ffffffffffffffffffffffffffffffffffffffff1681526020019081526020016000206001018054905062000f2b919062001dd5565b8154811062000f3f5762000f3e62001e6d565b5b9060005260206000200160009054906101000a900473ffffffffffffffffffffffffffffffffffffffff169080600181540180825580915050600190039060005260206000200160009091909190916101000a81548173ffffffffffffffffffffffffffffffffffffffff021916908373ffffffffffffffffffffffffffffffffffffffff1602179055506000808573ffffffffffffffffffffffffffffffffffffffff1673ffffffffffffffffffffffffffffffffffffffff1681526020019081526020016000206001018054806200101e576200101d62001e9c565b5b6001900381819060005260206000200160006101000a81549073ffffffffffffffffffffffffffffffffffffffff0219169055905550505050565b600062001067838362001551565b905060008190505b6001600360008673ffffffffffffffffffffffffffffffffffffffff1673ffffffffffffffffffffffffffffffffffffffff16815260200190815260200160002060010180549050620010c3919062001dd5565b8110156200121057600360008573ffffffffffffffffffffffffffffffffffffffff1673ffffffffffffffffffffffffffffffffffffffff1681526020019081526020016000206001016001826200111c919062001e10565b8154811062001130576200112f62001e6d565b5b9060005260206000200160009054906101000a900473ffffffffffffffffffffffffffffffffffffffff16600360008673ffffffffffffffffffffffffffffffffffffffff1673ffffffffffffffffffffffffffffffffffffffff1681526020019081526020016000206001018281548110620011b257620011b162001e6d565b5b9060005260206000200160006101000a81548173ffffffffffffffffffffffffffffffffffffffff021916908373ffffffffffffffffffffffffffffffffffffffff1602179055508080620012079062001bfd565b9150506200106f565b50600360008473ffffffffffffffffffffffffffffffffffffffff1673ffffffffffffffffffffffffffffffffffffffff168152602001908152602001600020600201600360008573ffffffffffffffffffffffffffffffffffffffff1673ffffffffffffffffffffffffffffffffffffffff1681526020019081526020016000206001016001600360008773ffffffffffffffffffffffffffffffffffffffff1673ffffffffffffffffffffffffffffffffffffffff16815260200190815260200160002060010180549050620012e9919062001dd5565b81548110620012fd57620012fc62001e6d565b5b9060005260206000200160009054906101000a900473ffffffffffffffffffffffffffffffffffffffff169080600181540180825580915050600190039060005260206000200160009091909190916101000a81548173ffffffffffffffffffffffffffffffffffffffff021916908373ffffffffffffffffffffffffffffffffffffffff160217905550600360008473ffffffffffffffffffffffffffffffffffffffff1673ffffffffffffffffffffffffffffffffffffffff168152602001908152602001600020600101805480620013dd57620013dc62001e9c565b5b6001900381819060005260206000200160006101000a81549073ffffffffffffffffffffffffffffffffffffffff02191690559055505050565b60008060005b60016000808773ffffffffffffffffffffffffffffffffffffffff1673ffffffffffffffffffffffffffffffffffffffff1681526020019081526020016000206001018054905062001470919062001dd5565b811162001546578373ffffffffffffffffffffffffffffffffffffffff166000808773ffffffffffffffffffffffffffffffffffffffff1673ffffffffffffffffffffffffffffffffffffffff1681526020019081526020016000206001018281548110620014e457620014e362001e6d565b5b9060005260206000200160009054906101000a900473ffffffffffffffffffffffffffffffffffffffff1673ffffffffffffffffffffffffffffffffffffffff16141562001530578091505b80806200153d9062001bfd565b9150506200141d565b508091505092915050565b60008060005b6001600360008773ffffffffffffffffffffffffffffffffffffffff1673ffffffffffffffffffffffffffffffffffffffff16815260200190815260200160002060010180549050620015ab919062001dd5565b811162001682578373ffffffffffffffffffffffffffffffffffffffff16600360008773ffffffffffffffffffffffffffffffffffffffff1673ffffffffffffffffffffffffffffffffffffffff168152602001908152602001600020600101828154811062001620576200161f62001e6d565b5b9060005260206000200160009054906101000a900473ffffffffffffffffffffffffffffffffffffffff1673ffffffffffffffffffffffffffffffffffffffff1614156200166c578091505b8080620016799062001bfd565b91505062001557565b508091505092915050565b61119c8062001ecc83390190565b6000604051905090565b600080fd5b600080fd5b600073ffffffffffffffffffffffffffffffffffffffff82169050919050565b6000620016dc82620016af565b9050919050565b620016ee81620016cf565b8114620016fa57600080fd5b50565b6000813590506200170e81620016e3565b92915050565b6000602082840312156200172d576200172c620016a5565b5b60006200173d84828501620016fd565b91505092915050565b600081519050919050565b600082825260208201905092915050565b6000819050602082019050919050565b6200177d81620016cf565b82525050565b600062001791838362001772565b60208301905092915050565b6000602082019050919050565b6000620017b78262001746565b620017c3818562001751565b9350620017d08362001762565b8060005b8381101562001807578151620017eb888262001783565b9750620017f8836200179d565b925050600181019050620017d4565b5085935050505092915050565b60006020820190508181036000830152620018308184620017aa565b905092915050565b60008060408385031215620018525762001851620016a5565b5b60006200186285828601620016fd565b92505060206200187585828601620016fd565b9150509250929050565b6000819050919050565b62001894816200187f565b82525050565b6000602082019050620018b1600083018462001889565b92915050565b600080fd5b600080fd5b6000601f19601f8301169050919050565b7f4e487b7100000000000000000000000000000000000000000000000000000000600052604160045260246000fd5b6200190c82620018c1565b810181811067ffffffffffffffff821117156200192e576200192d620018d2565b5b80604052505050565b6000620019436200169b565b905062001951828262001901565b919050565b600067ffffffffffffffff821115620019745762001973620018d2565b5b6200197f82620018c1565b9050602081019050919050565b82818337600083830152505050565b6000620019b2620019ac8462001956565b62001937565b905082815260208101848484011115620019d157620019d0620018bc565b5b620019de8482856200198c565b509392505050565b600082601f830112620019fe57620019fd620018b7565b5b813562001a108482602086016200199b565b91505092915050565b600062001a2682620016af565b9050919050565b62001a388162001a19565b811462001a4457600080fd5b50565b60008135905062001a588162001a2d565b92915050565b6000806000806080858703121562001a7b5762001a7a620016a5565b5b600062001a8b87828801620016fd565b945050602085013567ffffffffffffffff81111562001aaf5762001aae620016aa565b5b62001abd87828801620019e6565b935050604085013567ffffffffffffffff81111562001ae15762001ae0620016aa565b5b62001aef87828801620019e6565b925050606062001b028782880162001a47565b91505092959194509250565b600062001b1b82620016cf565b9050919050565b62001b2d8162001b0e565b811462001b3957600080fd5b50565b60008151905062001b4d8162001b22565b92915050565b60006020828403121562001b6c5762001b6b620016a5565b5b600062001b7c8482850162001b3c565b91505092915050565b60008151905062001b9681620016e3565b92915050565b60006020828403121562001bb55762001bb4620016a5565b5b600062001bc58482850162001b85565b91505092915050565b7f4e487b7100000000000000000000000000000000000000000000000000000000600052601160045260246000fd5b600062001c0a826200187f565b91507fffffffffffffffffffffffffffffffffffffffffffffffffffffffffffffffff82141562001c405762001c3f62001bce565b5b600182019050919050565b62001c5681620016cf565b82525050565b600081519050919050565b600082825260208201905092915050565b60005b8381101562001c9857808201518184015260208101905062001c7b565b8381111562001ca8576000848401525b50505050565b600062001cbb8262001c5c565b62001cc7818562001c67565b935062001cd981856020860162001c78565b62001ce481620018c1565b840191505092915050565b6000819050919050565b600062001d1a62001d1462001d0e84620016af565b62001cef565b620016af565b9050919050565b600062001d2e8262001cf9565b9050919050565b600062001d428262001d21565b9050919050565b62001d548162001d35565b82525050565b600060c08201905062001d71600083018962001c4b565b62001d80602083018862001c4b565b818103604083015262001d94818762001cae565b9050818103606083015262001daa818662001cae565b905062001dbb608083018562001d49565b62001dca60a083018462001889565b979650505050505050565b600062001de2826200187f565b915062001def836200187f565b92508282101562001e055762001e0462001bce565b5b828203905092915050565b600062001e1d826200187f565b915062001e2a836200187f565b9250827fffffffffffffffffffffffffffffffffffffffffffffffffffffffffffffffff0382111562001e625762001e6162001bce565b5b828201905092915050565b7f4e487b7100000000000000000000000000000000000000000000000000000000600052603260045260246000fd5b7f4e487b7100000000000000000000000000000000000000000000000000000000600052603160045260246000fdfe60806040526040516200119c3803806200119c83398181016040528101906200002991906200044b565b856000806101000a81548173ffffffffffffffffffffffffffffffffffffffff021916908373ffffffffffffffffffffffffffffffffffffffff16021790555084600160006101000a81548173ffffffffffffffffffffffffffffffffffffffff021916908373ffffffffffffffffffffffffffffffffffffffff1602179055508360029080519060200190620000c29291906200015e565b508260039080519060200190620000db9291906200015e565b5081600460006101000a81548173ffffffffffffffffffffffffffffffffffffffff021916908373ffffffffffffffffffffffffffffffffffffffff160217905550806005819055506000600660006101000a81548160ff021916908360028111156200014d576200014c62000525565b5b0217905550505050505050620005b9565b8280546200016c9062000583565b90600052602060002090601f016020900481019282620001905760008555620001dc565b82601f10620001ab57805160ff1916838001178555620001dc565b82800160010185558215620001dc579182015b82811115620001db578251825591602001919060010190620001be565b5b509050620001eb9190620001ef565b5090565b5b808211156200020a576000816000905550600101620001f0565b5090565b6000604051905090565b600080fd5b600080fd5b600073ffffffffffffffffffffffffffffffffffffffff82169050919050565b60006200024f8262000222565b9050919050565b620002618162000242565b81146200026d57600080fd5b50565b600081519050620002818162000256565b92915050565b600080fd5b600080fd5b6000601f19601f8301169050919050565b7f4e487b7100000000000000000000000000000000000000000000000000000000600052604160045260246000fd5b620002dc8262000291565b810181811067ffffffffffffffff82111715620002fe57620002fd620002a2565b5b80604052505050565b6000620003136200020e565b9050620003218282620002d1565b919050565b600067ffffffffffffffff821115620003445762000343620002a2565b5b6200034f8262000291565b9050602081019050919050565b60005b838110156200037c5780820151818401526020810190506200035f565b838111156200038c576000848401525b50505050565b6000620003a9620003a38462000326565b62000307565b905082815260208101848484011115620003c857620003c76200028c565b5b620003d58482856200035c565b509392505050565b600082601f830112620003f557620003f462000287565b5b81516200040784826020860162000392565b91505092915050565b6000819050919050565b620004258162000410565b81146200043157600080fd5b50565b60008151905062000445816200041a565b92915050565b60008060008060008060c087890312156200046b576200046a62000218565b5b60006200047b89828a0162000270565b96505060206200048e89828a0162000270565b955050604087015167ffffffffffffffff811115620004b257620004b16200021d565b5b620004c089828a01620003dd565b945050606087015167ffffffffffffffff811115620004e457620004e36200021d565b5b620004f289828a01620003dd565b93505060806200050589828a0162000270565b92505060a06200051889828a0162000434565b9150509295509295509295565b7f4e487b7100000000000000000000000000000000000000000000000000000000600052602160045260246000fd5b7f4e487b7100000000000000000000000000000000000000000000000000000000600052602260045260246000fd5b600060028204905060018216806200059c57607f821691505b60208210811415620005b357620005b262000554565b5b50919050565b610bd380620005c96000396000f3fe6080604052600436106100865760003560e01c80633b1bebd1116100595780633b1bebd11461012a5780634177fe51146101555780637284e41614610180578063aa8c217c146101ab578063b4fedc11146101d657610086565b806302d05d3f1461008b57806306fdde03146100b6578063200d2ed2146100e15780632d398fa61461010c575b600080fd5b34801561009757600080fd5b506100a06101f4565b6040516100ad9190610770565b60405180910390f35b3480156100c257600080fd5b506100cb610218565b6040516100d89190610824565b60405180910390f35b3480156100ed57600080fd5b506100f66102a6565b60405161010391906108bd565b60405180910390f35b6101146102b9565b6040516101219190610937565b60405180910390f35b34801561013657600080fd5b5061013f6104b0565b60405161014c9190610770565b60405180910390f35b34801561016157600080fd5b5061016a6104d6565b6040516101779190610770565b60405180910390f35b34801561018c57600080fd5b506101956104fc565b6040516101a29190610824565b60405180910390f35b3480156101b757600080fd5b506101c061058a565b6040516101cd919061096b565b60405180910390f35b6101de610590565b6040516101eb9190610937565b60405180910390f35b60008054906101000a900473ffffffffffffffffffffffffffffffffffffffff1681565b60028054610225906109b5565b80601f0160208091040260200160405190810160405280929190818152602001828054610251906109b5565b801561029e5780601f106102735761010080835404028352916020019161029e565b820191906000526020600020905b81548152906001019060200180831161028157829003601f168201915b505050505081565b600660009054906101000a900460ff1681565b60008060028111156102ce576102cd610846565b5b600660009054906101000a900460ff1660028111156102f0576102ef610846565b5b14610330576040517f08c379a000000000000000000000000000000000000000000000000000000000815260040161032790610a59565b60405180910390fd5b600160009054906101000a900473ffffffffffffffffffffffffffffffffffffffff1673ffffffffffffffffffffffffffffffffffffffff163273ffffffffffffffffffffffffffffffffffffffff1614806103d7575060008054906101000a900473ffffffffffffffffffffffffffffffffffffffff1673ffffffffffffffffffffffffffffffffffffffff163273ffffffffffffffffffffffffffffffffffffffff16145b610416576040517f08c379a000000000000000000000000000000000000000000000000000000000815260040161040d90610aeb565b60405180910390fd5b600460009054906101000a900473ffffffffffffffffffffffffffffffffffffffff1673ffffffffffffffffffffffffffffffffffffffff166108fc479081150290604051600060405180830381858888f1935050505015801561047e573d6000803e3d6000fd5b506002600660006101000a81548160ff021916908360028111156104a5576104a4610846565b5b021790555030905090565b600160009054906101000a900473ffffffffffffffffffffffffffffffffffffffff1681565b600460009054906101000a900473ffffffffffffffffffffffffffffffffffffffff1681565b60038054610509906109b5565b80601f0160208091040260200160405190810160405280929190818152602001828054610535906109b5565b80156105825780601f1061055757610100808354040283529160200191610582565b820191906000526020600020905b81548152906001019060200180831161056557829003601f168201915b505050505081565b60055481565b60008060028111156105a5576105a4610846565b5b600660009054906101000a900460ff1660028111156105c7576105c6610846565b5b14610607576040517f08c379a00000000000000000000000000000000000000000000000000000000081526004016105fe90610a59565b60405180910390fd5b600160009054906101000a900473ffffffffffffffffffffffffffffffffffffffff1673ffffffffffffffffffffffffffffffffffffffff163273ffffffffffffffffffffffffffffffffffffffff1614610697576040517f08c379a000000000000000000000000000000000000000000000000000000000815260040161068e90610b7d565b60405180910390fd5b60008054906101000a900473ffffffffffffffffffffffffffffffffffffffff1673ffffffffffffffffffffffffffffffffffffffff166108fc479081150290604051600060405180830381858888f193505050501580156106fd573d6000803e3d6000fd5b506001600660006101000a81548160ff0219169083600281111561072457610723610846565b5b021790555030905090565b600073ffffffffffffffffffffffffffffffffffffffff82169050919050565b600061075a8261072f565b9050919050565b61076a8161074f565b82525050565b60006020820190506107856000830184610761565b92915050565b600081519050919050565b600082825260208201905092915050565b60005b838110156107c55780820151818401526020810190506107aa565b838111156107d4576000848401525b50505050565b6000601f19601f8301169050919050565b60006107f68261078b565b6108008185610796565b93506108108185602086016107a7565b610819816107da565b840191505092915050565b6000602082019050818103600083015261083e81846107eb565b905092915050565b7f4e487b7100000000000000000000000000000000000000000000000000000000600052602160045260246000fd5b6003811061088657610885610846565b5b50565b600081905061089782610875565b919050565b60006108a782610889565b9050919050565b6108b78161089c565b82525050565b60006020820190506108d260008301846108ae565b92915050565b6000819050919050565b60006108fd6108f86108f38461072f565b6108d8565b61072f565b9050919050565b600061090f826108e2565b9050919050565b600061092182610904565b9050919050565b61093181610916565b82525050565b600060208201905061094c6000830184610928565b92915050565b6000819050919050565b61096581610952565b82525050565b6000602082019050610980600083018461095c565b92915050565b7f4e487b7100000000000000000000000000000000000000000000000000000000600052602260045260246000fd5b600060028204905060018216806109cd57607f821691505b602082108114156109e1576109e0610986565b5b50919050565b7f436f6e747261637420737461747573206973206e6f7420657175616c20746f2060008201527f6f70656e00000000000000000000000000000000000000000000000000000000602082015250565b6000610a43602483610796565b9150610a4e826109e7565b604082019050919050565b60006020820190508181036000830152610a7281610a36565b9050919050565b7f4f6e6c792072656665726565206f722063726561746f722063616e206661696c60008201527f20636f6e74726163740000000000000000000000000000000000000000000000602082015250565b6000610ad5602983610796565b9150610ae082610a79565b604082019050919050565b60006020820190508181036000830152610b0481610ac8565b9050919050565b7f4f6e6c7920726566657265652063616e20636f6d706c657465206120636f6e7460008201527f7261637400000000000000000000000000000000000000000000000000000000602082015250565b6000610b67602483610796565b9150610b7282610b0b565b604082019050919050565b60006020820190508181036000830152610b9681610b5a565b905091905056fea26469706673582212201e8c6ddf7cac4b1eba51b78aede907a84bd73948f0d7e172ce506cfa84ce0a2964736f6c634300080c0033a26469706673582212204200e0be72e769f00ebb90df343535a0f0f352435f71e1574cd3c7acf50895ed64736f6c634300080c0033","opcodes":"PUSH1 0x80 PUSH1 0x40 MSTORE CALLVALUE DUP1 ISZERO PUSH2 0x10 JUMPI PUSH1 0x0 DUP1 REVERT JUMPDEST POP PUSH2 0x309D DUP1 PUSH2 0x20 PUSH1 0x0 CODECOPY PUSH1 0x0 RETURN INVALID PUSH1 0x80 PUSH1 0x40 MSTORE PUSH1 0x4 CALLDATASIZE LT PUSH3 0xAA JUMPI PUSH1 0x0 CALLDATALOAD PUSH1 0xE0 SHR DUP1 PUSH4 0x9051E234 GT PUSH3 0x6D JUMPI DUP1 PUSH4 0x9051E234 EQ PUSH3 0x1D9 JUMPI DUP1 PUSH4 0xA87430BA EQ PUSH3 0x21D JUMPI DUP1 PUSH4 0xB24E67D0 EQ PUSH3 0x261 JUMPI DUP1 PUSH4 0xB3B6633E EQ PUSH3 0x2A5 JUMPI DUP1 PUSH4 0xCC785850 EQ PUSH3 0x2D5 JUMPI DUP1 PUSH4 0xE436E826 EQ PUSH3 0x303 JUMPI PUSH3 0xAA JUMP JUMPDEST DUP1 PUSH4 0x19EE8BD4 EQ PUSH3 0xAF JUMPI DUP1 PUSH4 0x442A7BC7 EQ PUSH3 0xF3 JUMPI DUP1 PUSH4 0x4AC0B82D EQ PUSH3 0x137 JUMPI DUP1 PUSH4 0x64A60B47 EQ PUSH3 0x165 JUMPI DUP1 PUSH4 0x75CE46A7 EQ PUSH3 0x1A9 JUMPI JUMPDEST PUSH1 0x0 DUP1 REVERT JUMPDEST CALLVALUE DUP1 ISZERO PUSH3 0xBC JUMPI PUSH1 0x0 DUP1 REVERT JUMPDEST POP PUSH3 0xDB PUSH1 0x4 DUP1 CALLDATASIZE SUB DUP2 ADD SWAP1 PUSH3 0xD5 SWAP2 SWAP1 PUSH3 0x1714 JUMP JUMPDEST PUSH3 0x323 JUMP JUMPDEST PUSH1 0x40 MLOAD PUSH3 0xEA SWAP2 SWAP1 PUSH3 0x1814 JUMP JUMPDEST PUSH1 0x40 MLOAD DUP1 SWAP2 SUB SWAP1 RETURN JUMPDEST CALLVALUE DUP1 ISZERO PUSH3 0x100 JUMPI PUSH1 0x0 DUP1 REVERT JUMPDEST POP PUSH3 0x11F PUSH1 0x4 DUP1 CALLDATASIZE SUB DUP2 ADD SWAP1 PUSH3 0x119 SWAP2 SWAP1 PUSH3 0x1714 JUMP JUMPDEST PUSH3 0x3F5 JUMP JUMPDEST PUSH1 0x40 MLOAD PUSH3 0x12E SWAP2 SWAP1 PUSH3 0x1814 JUMP JUMPDEST PUSH1 0x40 MLOAD DUP1 SWAP2 SUB SWAP1 RETURN JUMPDEST CALLVALUE DUP1 ISZERO PUSH3 0x144 JUMPI PUSH1 0x0 DUP1 REVERT JUMPDEST POP PUSH3 0x163 PUSH1 0x4 DUP1 CALLDATASIZE SUB DUP2 ADD SWAP1 PUSH3 0x15D SWAP2 SWAP1 PUSH3 0x1838 JUMP JUMPDEST PUSH3 0x4C6 JUMP JUMPDEST STOP JUMPDEST CALLVALUE DUP1 ISZERO PUSH3 0x172 JUMPI PUSH1 0x0 DUP1 REVERT JUMPDEST POP PUSH3 0x191 PUSH1 0x4 DUP1 CALLDATASIZE SUB DUP2 ADD SWAP1 PUSH3 0x18B SWAP2 SWAP1 PUSH3 0x1714 JUMP JUMPDEST PUSH3 0x5CE JUMP JUMPDEST PUSH1 0x40 MLOAD PUSH3 0x1A0 SWAP2 SWAP1 PUSH3 0x189A JUMP JUMPDEST PUSH1 0x40 MLOAD DUP1 SWAP2 SUB SWAP1 RETURN JUMPDEST CALLVALUE DUP1 ISZERO PUSH3 0x1B6 JUMPI PUSH1 0x0 DUP1 REVERT JUMPDEST POP PUSH3 0x1C1 PUSH3 0x5EC JUMP JUMPDEST PUSH1 0x40 MLOAD PUSH3 0x1D0 SWAP2 SWAP1 PUSH3 0x189A JUMP JUMPDEST PUSH1 0x40 MLOAD DUP1 SWAP2 SUB SWAP1 RETURN JUMPDEST CALLVALUE DUP1 ISZERO PUSH3 0x1E6 JUMPI PUSH1 0x0 DUP1 REVERT JUMPDEST POP PUSH3 0x205 PUSH1 0x4 DUP1 CALLDATASIZE SUB DUP2 ADD SWAP1 PUSH3 0x1FF SWAP2 SWAP1 PUSH3 0x1714 JUMP JUMPDEST PUSH3 0x5F2 JUMP JUMPDEST PUSH1 0x40 MLOAD PUSH3 0x214 SWAP2 SWAP1 PUSH3 0x1814 JUMP JUMPDEST PUSH1 0x40 MLOAD DUP1 SWAP2 SUB SWAP1 RETURN JUMPDEST CALLVALUE DUP1 ISZERO PUSH3 0x22A JUMPI PUSH1 0x0 DUP1 REVERT JUMPDEST POP PUSH3 0x249 PUSH1 0x4 DUP1 CALLDATASIZE SUB DUP2 ADD SWAP1 PUSH3 0x243 SWAP2 SWAP1 PUSH3 0x1714 JUMP JUMPDEST PUSH3 0x6C4 JUMP JUMPDEST PUSH1 0x40 MLOAD PUSH3 0x258 SWAP2 SWAP1 PUSH3 0x189A JUMP JUMPDEST PUSH1 0x40 MLOAD DUP1 SWAP2 SUB SWAP1 RETURN JUMPDEST CALLVALUE DUP1 ISZERO PUSH3 0x26E JUMPI PUSH1 0x0 DUP1 REVERT JUMPDEST POP PUSH3 0x28D PUSH1 0x4 DUP1 CALLDATASIZE SUB DUP2 ADD SWAP1 PUSH3 0x287 SWAP2 SWAP1 PUSH3 0x1714 JUMP JUMPDEST PUSH3 0x6E2 JUMP JUMPDEST PUSH1 0x40 MLOAD PUSH3 0x29C SWAP2 SWAP1 PUSH3 0x1814 JUMP JUMPDEST PUSH1 0x40 MLOAD DUP1 SWAP2 SUB SWAP1 RETURN JUMPDEST CALLVALUE DUP1 ISZERO PUSH3 0x2B2 JUMPI PUSH1 0x0 DUP1 REVERT JUMPDEST POP PUSH3 0x2BD PUSH3 0x7B3 JUMP JUMPDEST PUSH1 0x40 MLOAD PUSH3 0x2CC SWAP2 SWAP1 PUSH3 0x189A JUMP JUMPDEST PUSH1 0x40 MLOAD DUP1 SWAP2 SUB SWAP1 RETURN JUMPDEST CALLVALUE DUP1 ISZERO PUSH3 0x2E2 JUMPI PUSH1 0x0 DUP1 REVERT JUMPDEST POP PUSH3 0x301 PUSH1 0x4 DUP1 CALLDATASIZE SUB DUP2 ADD SWAP1 PUSH3 0x2FB SWAP2 SWAP1 PUSH3 0x1838 JUMP JUMPDEST PUSH3 0x7B9 JUMP JUMPDEST STOP JUMPDEST PUSH3 0x321 PUSH1 0x4 DUP1 CALLDATASIZE SUB DUP2 ADD SWAP1 PUSH3 0x31B SWAP2 SWAP1 PUSH3 0x1A5E JUMP JUMPDEST PUSH3 0x8C1 JUMP JUMPDEST STOP JUMPDEST PUSH1 0x60 PUSH1 0x3 PUSH1 0x0 DUP4 PUSH20 0xFFFFFFFFFFFFFFFFFFFFFFFFFFFFFFFFFFFFFFFF AND PUSH20 0xFFFFFFFFFFFFFFFFFFFFFFFFFFFFFFFFFFFFFFFF AND DUP2 MSTORE PUSH1 0x20 ADD SWAP1 DUP2 MSTORE PUSH1 0x20 ADD PUSH1 0x0 KECCAK256 PUSH1 0x2 ADD DUP1 SLOAD DUP1 PUSH1 0x20 MUL PUSH1 0x20 ADD PUSH1 0x40 MLOAD SWAP1 DUP2 ADD PUSH1 0x40 MSTORE DUP1 SWAP3 SWAP2 SWAP1 DUP2 DUP2 MSTORE PUSH1 0x20 ADD DUP3 DUP1 SLOAD DUP1 ISZERO PUSH3 0x3E9 JUMPI PUSH1 0x20 MUL DUP3 ADD SWAP2 SWAP1 PUSH1 0x0 MSTORE PUSH1 0x20 PUSH1 0x0 KECCAK256 SWAP1 JUMPDEST DUP2 PUSH1 0x0 SWAP1 SLOAD SWAP1 PUSH2 0x100 EXP SWAP1 DIV PUSH20 0xFFFFFFFFFFFFFFFFFFFFFFFFFFFFFFFFFFFFFFFF AND PUSH20 0xFFFFFFFFFFFFFFFFFFFFFFFFFFFFFFFFFFFFFFFF AND DUP2 MSTORE PUSH1 0x20 ADD SWAP1 PUSH1 0x1 ADD SWAP1 DUP1 DUP4 GT PUSH3 0x39E JUMPI JUMPDEST POP POP POP POP POP SWAP1 POP SWAP2 SWAP1 POP JUMP JUMPDEST PUSH1 0x60 PUSH1 0x0 DUP1 DUP4 PUSH20 0xFFFFFFFFFFFFFFFFFFFFFFFFFFFFFFFFFFFFFFFF AND PUSH20 0xFFFFFFFFFFFFFFFFFFFFFFFFFFFFFFFFFFFFFFFF AND DUP2 MSTORE PUSH1 0x20 ADD SWAP1 DUP2 MSTORE PUSH1 0x20 ADD PUSH1 0x0 KECCAK256 PUSH1 0x1 ADD DUP1 SLOAD DUP1 PUSH1 0x20 MUL PUSH1 0x20 ADD PUSH1 0x40 MLOAD SWAP1 DUP2 ADD PUSH1 0x40 MSTORE DUP1 SWAP3 SWAP2 SWAP1 DUP2 DUP2 MSTORE PUSH1 0x20 ADD DUP3 DUP1 SLOAD DUP1 ISZERO PUSH3 0x4BA JUMPI PUSH1 0x20 MUL DUP3 ADD SWAP2 SWAP1 PUSH1 0x0 MSTORE PUSH1 0x20 PUSH1 0x0 KECCAK256 SWAP1 JUMPDEST DUP2 PUSH1 0x0 SWAP1 SLOAD SWAP1 PUSH2 0x100 EXP SWAP1 DIV PUSH20 0xFFFFFFFFFFFFFFFFFFFFFFFFFFFFFFFFFFFFFFFF AND PUSH20 0xFFFFFFFFFFFFFFFFFFFFFFFFFFFFFFFFFFFFFFFF AND DUP2 MSTORE PUSH1 0x20 ADD SWAP1 PUSH1 0x1 ADD SWAP1 DUP1 DUP4 GT PUSH3 0x46F JUMPI JUMPDEST POP POP POP POP POP SWAP1 POP SWAP2 SWAP1 POP JUMP JUMPDEST PUSH1 0x0 DUP2 SWAP1 POP DUP1 PUSH20 0xFFFFFFFFFFFFFFFFFFFFFFFFFFFFFFFFFFFFFFFF AND PUSH4 0x2D398FA6 PUSH1 0x40 MLOAD DUP2 PUSH4 0xFFFFFFFF AND PUSH1 0xE0 SHL DUP2 MSTORE PUSH1 0x4 ADD PUSH1 0x20 PUSH1 0x40 MLOAD DUP1 DUP4 SUB DUP2 PUSH1 0x0 DUP8 GAS CALL ISZERO DUP1 ISZERO PUSH3 0x519 JUMPI RETURNDATASIZE PUSH1 0x0 DUP1 RETURNDATACOPY RETURNDATASIZE PUSH1 0x0 REVERT JUMPDEST POP POP POP POP PUSH1 0x40 MLOAD RETURNDATASIZE PUSH1 0x1F NOT PUSH1 0x1F DUP3 ADD AND DUP3 ADD DUP1 PUSH1 0x40 MSTORE POP DUP2 ADD SWAP1 PUSH3 0x53F SWAP2 SWAP1 PUSH3 0x1B53 JUMP JUMPDEST POP PUSH3 0x54C DUP4 DUP4 PUSH3 0xC9C JUMP JUMPDEST PUSH3 0x5C9 DUP2 PUSH20 0xFFFFFFFFFFFFFFFFFFFFFFFFFFFFFFFFFFFFFFFF AND PUSH4 0x3B1BEBD1 PUSH1 0x40 MLOAD DUP2 PUSH4 0xFFFFFFFF AND PUSH1 0xE0 SHL DUP2 MSTORE PUSH1 0x4 ADD PUSH1 0x20 PUSH1 0x40 MLOAD DUP1 DUP4 SUB DUP2 DUP7 GAS STATICCALL ISZERO DUP1 ISZERO PUSH3 0x59C JUMPI RETURNDATASIZE PUSH1 0x0 DUP1 RETURNDATACOPY RETURNDATASIZE PUSH1 0x0 REVERT JUMPDEST POP POP POP POP PUSH1 0x40 MLOAD RETURNDATASIZE PUSH1 0x1F NOT PUSH1 0x1F DUP3 ADD AND DUP3 ADD DUP1 PUSH1 0x40 MSTORE POP DUP2 ADD SWAP1 PUSH3 0x5C2 SWAP2 SWAP1 PUSH3 0x1B9C JUMP JUMPDEST DUP4 PUSH3 0x1059 JUMP JUMPDEST POP POP POP JUMP JUMPDEST PUSH1 0x3 PUSH1 0x20 MSTORE DUP1 PUSH1 0x0 MSTORE PUSH1 0x40 PUSH1 0x0 KECCAK256 PUSH1 0x0 SWAP2 POP SWAP1 POP DUP1 PUSH1 0x0 ADD SLOAD SWAP1 POP DUP2 JUMP JUMPDEST PUSH1 0x1 SLOAD DUP2 JUMP JUMPDEST PUSH1 0x60 PUSH1 0x3 PUSH1 0x0 DUP4 PUSH20 0xFFFFFFFFFFFFFFFFFFFFFFFFFFFFFFFFFFFFFFFF AND PUSH20 0xFFFFFFFFFFFFFFFFFFFFFFFFFFFFFFFFFFFFFFFF AND DUP2 MSTORE PUSH1 0x20 ADD SWAP1 DUP2 MSTORE PUSH1 0x20 ADD PUSH1 0x0 KECCAK256 PUSH1 0x1 ADD DUP1 SLOAD DUP1 PUSH1 0x20 MUL PUSH1 0x20 ADD PUSH1 0x40 MLOAD SWAP1 DUP2 ADD PUSH1 0x40 MSTORE DUP1 SWAP3 SWAP2 SWAP1 DUP2 DUP2 MSTORE PUSH1 0x20 ADD DUP3 DUP1 SLOAD DUP1 ISZERO PUSH3 0x6B8 JUMPI PUSH1 0x20 MUL DUP3 ADD SWAP2 SWAP1 PUSH1 0x0 MSTORE PUSH1 0x20 PUSH1 0x0 KECCAK256 SWAP1 JUMPDEST DUP2 PUSH1 0x0 SWAP1 SLOAD SWAP1 PUSH2 0x100 EXP SWAP1 DIV PUSH20 0xFFFFFFFFFFFFFFFFFFFFFFFFFFFFFFFFFFFFFFFF AND PUSH20 0xFFFFFFFFFFFFFFFFFFFFFFFFFFFFFFFFFFFFFFFF AND DUP2 MSTORE PUSH1 0x20 ADD SWAP1 PUSH1 0x1 ADD SWAP1 DUP1 DUP4 GT PUSH3 0x66D JUMPI JUMPDEST POP POP POP POP POP SWAP1 POP SWAP2 SWAP1 POP JUMP JUMPDEST PUSH1 0x0 PUSH1 0x20 MSTORE DUP1 PUSH1 0x0 MSTORE PUSH1 0x40 PUSH1 0x0 KECCAK256 PUSH1 0x0 SWAP2 POP SWAP1 POP DUP1 PUSH1 0x0 ADD SLOAD SWAP1 POP DUP2 JUMP JUMPDEST PUSH1 0x60 PUSH1 0x0 DUP1 DUP4 PUSH20 0xFFFFFFFFFFFFFFFFFFFFFFFFFFFFFFFFFFFFFFFF AND PUSH20 0xFFFFFFFFFFFFFFFFFFFFFFFFFFFFFFFFFFFFFFFF AND DUP2 MSTORE PUSH1 0x20 ADD SWAP1 DUP2 MSTORE PUSH1 0x20 ADD PUSH1 0x0 KECCAK256 PUSH1 0x2 ADD DUP1 SLOAD DUP1 PUSH1 0x20 MUL PUSH1 0x20 ADD PUSH1 0x40 MLOAD SWAP1 DUP2 ADD PUSH1 0x40 MSTORE DUP1 SWAP3 SWAP2 SWAP1 DUP2 DUP2 MSTORE PUSH1 0x20 ADD DUP3 DUP1 SLOAD DUP1 ISZERO PUSH3 0x7A7 JUMPI PUSH1 0x20 MUL DUP3 ADD SWAP2 SWAP1 PUSH1 0x0 MSTORE PUSH1 0x20 PUSH1 0x0 KECCAK256 SWAP1 JUMPDEST DUP2 PUSH1 0x0 SWAP1 SLOAD SWAP1 PUSH2 0x100 EXP SWAP1 DIV PUSH20 0xFFFFFFFFFFFFFFFFFFFFFFFFFFFFFFFFFFFFFFFF AND PUSH20 0xFFFFFFFFFFFFFFFFFFFFFFFFFFFFFFFFFFFFFFFF AND DUP2 MSTORE PUSH1 0x20 ADD SWAP1 PUSH1 0x1 ADD SWAP1 DUP1 DUP4 GT PUSH3 0x75C JUMPI JUMPDEST POP POP POP POP POP SWAP1 POP SWAP2 SWAP1 POP JUMP JUMPDEST PUSH1 0x4 SLOAD DUP2 JUMP JUMPDEST PUSH1 0x0 DUP2 SWAP1 POP DUP1 PUSH20 0xFFFFFFFFFFFFFFFFFFFFFFFFFFFFFFFFFFFFFFFF AND PUSH4 0xB4FEDC11 PUSH1 0x40 MLOAD DUP2 PUSH4 0xFFFFFFFF AND PUSH1 0xE0 SHL DUP2 MSTORE PUSH1 0x4 ADD PUSH1 0x20 PUSH1 0x40 MLOAD DUP1 DUP4 SUB DUP2 PUSH1 0x0 DUP8 GAS CALL ISZERO DUP1 ISZERO PUSH3 0x80C JUMPI RETURNDATASIZE PUSH1 0x0 DUP1 RETURNDATACOPY RETURNDATASIZE PUSH1 0x0 REVERT JUMPDEST POP POP POP POP PUSH1 0x40 MLOAD RETURNDATASIZE PUSH1 0x1F NOT PUSH1 0x1F DUP3 ADD AND DUP3 ADD DUP1 PUSH1 0x40 MSTORE POP DUP2 ADD SWAP1 PUSH3 0x832 SWAP2 SWAP1 PUSH3 0x1B53 JUMP JUMPDEST POP PUSH3 0x83F DUP4 DUP4 PUSH3 0xC9C JUMP JUMPDEST PUSH3 0x8BC DUP2 PUSH20 0xFFFFFFFFFFFFFFFFFFFFFFFFFFFFFFFFFFFFFFFF AND PUSH4 0x3B1BEBD1 PUSH1 0x40 MLOAD DUP2 PUSH4 0xFFFFFFFF AND PUSH1 0xE0 SHL DUP2 MSTORE PUSH1 0x4 ADD PUSH1 0x20 PUSH1 0x40 MLOAD DUP1 DUP4 SUB DUP2 DUP7 GAS STATICCALL ISZERO DUP1 ISZERO PUSH3 0x88F JUMPI RETURNDATASIZE PUSH1 0x0 DUP1 RETURNDATACOPY RETURNDATASIZE PUSH1 0x0 REVERT JUMPDEST POP POP POP POP PUSH1 0x40 MLOAD RETURNDATASIZE PUSH1 0x1F NOT PUSH1 0x1F DUP3 ADD AND DUP3 ADD DUP1 PUSH1 0x40 MSTORE POP DUP2 ADD SWAP1 PUSH3 0x8B5 SWAP2 SWAP1 PUSH3 0x1B9C JUMP JUMPDEST DUP4 PUSH3 0x1059 JUMP JUMPDEST POP POP POP JUMP JUMPDEST PUSH1 0x0 DUP1 PUSH1 0x0 CALLER PUSH20 0xFFFFFFFFFFFFFFFFFFFFFFFFFFFFFFFFFFFFFFFF AND PUSH20 0xFFFFFFFFFFFFFFFFFFFFFFFFFFFFFFFFFFFFFFFF AND DUP2 MSTORE PUSH1 0x20 ADD SWAP1 DUP2 MSTORE PUSH1 0x20 ADD PUSH1 0x0 KECCAK256 PUSH1 0x0 ADD SLOAD EQ ISZERO PUSH3 0x98A JUMPI PUSH1 0x1 PUSH1 0x0 DUP2 SLOAD DUP1 SWAP3 SWAP2 SWAP1 PUSH3 0x921 SWAP1 PUSH3 0x1BFD JUMP JUMPDEST SWAP2 SWAP1 POP SSTORE POP PUSH1 0x2 CALLER SWAP1 DUP1 PUSH1 0x1 DUP2 SLOAD ADD DUP1 DUP3 SSTORE DUP1 SWAP2 POP POP PUSH1 0x1 SWAP1 SUB SWAP1 PUSH1 0x0 MSTORE PUSH1 0x20 PUSH1 0x0 KECCAK256 ADD PUSH1 0x0 SWAP1 SWAP2 SWAP1 SWAP2 SWAP1 SWAP2 PUSH2 0x100 EXP DUP2 SLOAD DUP2 PUSH20 0xFFFFFFFFFFFFFFFFFFFFFFFFFFFFFFFFFFFFFFFF MUL NOT AND SWAP1 DUP4 PUSH20 0xFFFFFFFFFFFFFFFFFFFFFFFFFFFFFFFFFFFFFFFF AND MUL OR SWAP1 SSTORE POP JUMPDEST PUSH1 0x0 PUSH1 0x3 PUSH1 0x0 DUP7 PUSH20 0xFFFFFFFFFFFFFFFFFFFFFFFFFFFFFFFFFFFFFFFF AND PUSH20 0xFFFFFFFFFFFFFFFFFFFFFFFFFFFFFFFFFFFFFFFF AND DUP2 MSTORE PUSH1 0x20 ADD SWAP1 DUP2 MSTORE PUSH1 0x20 ADD PUSH1 0x0 KECCAK256 PUSH1 0x0 ADD SLOAD EQ ISZERO PUSH3 0xA54 JUMPI PUSH1 0x4 PUSH1 0x0 DUP2 SLOAD DUP1 SWAP3 SWAP2 SWAP1 PUSH3 0x9EB SWAP1 PUSH3 0x1BFD JUMP JUMPDEST SWAP2 SWAP1 POP SSTORE POP PUSH1 0x5 DUP5 SWAP1 DUP1 PUSH1 0x1 DUP2 SLOAD ADD DUP1 DUP3 SSTORE DUP1 SWAP2 POP POP PUSH1 0x1 SWAP1 SUB SWAP1 PUSH1 0x0 MSTORE PUSH1 0x20 PUSH1 0x0 KECCAK256 ADD PUSH1 0x0 SWAP1 SWAP2 SWAP1 SWAP2 SWAP1 SWAP2 PUSH2 0x100 EXP DUP2 SLOAD DUP2 PUSH20 0xFFFFFFFFFFFFFFFFFFFFFFFFFFFFFFFFFFFFFFFF MUL NOT AND SWAP1 DUP4 PUSH20 0xFFFFFFFFFFFFFFFFFFFFFFFFFFFFFFFFFFFFFFFF AND MUL OR SWAP1 SSTORE POP JUMPDEST PUSH1 0x0 CALLVALUE CALLER DUP7 DUP7 DUP7 DUP7 CALLVALUE PUSH1 0x40 MLOAD PUSH3 0xA6B SWAP1 PUSH3 0x168D JUMP JUMPDEST PUSH3 0xA7C SWAP7 SWAP6 SWAP5 SWAP4 SWAP3 SWAP2 SWAP1 PUSH3 0x1D5A JUMP JUMPDEST PUSH1 0x40 MLOAD DUP1 SWAP2 SUB SWAP1 DUP3 CREATE SWAP1 POP DUP1 ISZERO DUP1 ISZERO PUSH3 0xA9A JUMPI RETURNDATASIZE PUSH1 0x0 DUP1 RETURNDATACOPY RETURNDATASIZE PUSH1 0x0 REVERT JUMPDEST POP SWAP1 POP PUSH1 0x0 DUP1 CALLER PUSH20 0xFFFFFFFFFFFFFFFFFFFFFFFFFFFFFFFFFFFFFFFF AND PUSH20 0xFFFFFFFFFFFFFFFFFFFFFFFFFFFFFFFFFFFFFFFF AND DUP2 MSTORE PUSH1 0x20 ADD SWAP1 DUP2 MSTORE PUSH1 0x20 ADD PUSH1 0x0 KECCAK256 PUSH1 0x0 ADD PUSH1 0x0 DUP2 SLOAD DUP1 SWAP3 SWAP2 SWAP1 PUSH3 0xAF1 SWAP1 PUSH3 0x1BFD JUMP JUMPDEST SWAP2 SWAP1 POP SSTORE POP PUSH1 0x0 DUP1 CALLER PUSH20 0xFFFFFFFFFFFFFFFFFFFFFFFFFFFFFFFFFFFFFFFF AND PUSH20 0xFFFFFFFFFFFFFFFFFFFFFFFFFFFFFFFFFFFFFFFF AND DUP2 MSTORE PUSH1 0x20 ADD SWAP1 DUP2 MSTORE PUSH1 0x20 ADD PUSH1 0x0 KECCAK256 PUSH1 0x1 ADD DUP2 SWAP1 DUP1 PUSH1 0x1 DUP2 SLOAD ADD DUP1 DUP3 SSTORE DUP1 SWAP2 POP POP PUSH1 0x1 SWAP1 SUB SWAP1 PUSH1 0x0 MSTORE PUSH1 0x20 PUSH1 0x0 KECCAK256 ADD PUSH1 0x0 SWAP1 SWAP2 SWAP1 SWAP2 SWAP1 SWAP2 PUSH2 0x100 EXP DUP2 SLOAD DUP2 PUSH20 0xFFFFFFFFFFFFFFFFFFFFFFFFFFFFFFFFFFFFFFFF MUL NOT AND SWAP1 DUP4 PUSH20 0xFFFFFFFFFFFFFFFFFFFFFFFFFFFFFFFFFFFFFFFF AND MUL OR SWAP1 SSTORE POP PUSH1 0x3 PUSH1 0x0 DUP7 PUSH20 0xFFFFFFFFFFFFFFFFFFFFFFFFFFFFFFFFFFFFFFFF AND PUSH20 0xFFFFFFFFFFFFFFFFFFFFFFFFFFFFFFFFFFFFFFFF AND DUP2 MSTORE PUSH1 0x20 ADD SWAP1 DUP2 MSTORE PUSH1 0x20 ADD PUSH1 0x0 KECCAK256 PUSH1 0x0 ADD PUSH1 0x0 DUP2 SLOAD DUP1 SWAP3 SWAP2 SWAP1 PUSH3 0xBED SWAP1 PUSH3 0x1BFD JUMP JUMPDEST SWAP2 SWAP1 POP SSTORE POP PUSH1 0x3 PUSH1 0x0 DUP7 PUSH20 0xFFFFFFFFFFFFFFFFFFFFFFFFFFFFFFFFFFFFFFFF AND PUSH20 0xFFFFFFFFFFFFFFFFFFFFFFFFFFFFFFFFFFFFFFFF AND DUP2 MSTORE PUSH1 0x20 ADD SWAP1 DUP2 MSTORE PUSH1 0x20 ADD PUSH1 0x0 KECCAK256 PUSH1 0x1 ADD DUP2 SWAP1 DUP1 PUSH1 0x1 DUP2 SLOAD ADD DUP1 DUP3 SSTORE DUP1 SWAP2 POP POP PUSH1 0x1 SWAP1 SUB SWAP1 PUSH1 0x0 MSTORE PUSH1 0x20 PUSH1 0x0 KECCAK256 ADD PUSH1 0x0 SWAP1 SWAP2 SWAP1 SWAP2 SWAP1 SWAP2 PUSH2 0x100 EXP DUP2 SLOAD DUP2 PUSH20 0xFFFFFFFFFFFFFFFFFFFFFFFFFFFFFFFFFFFFFFFF MUL NOT AND SWAP1 DUP4 PUSH20 0xFFFFFFFFFFFFFFFFFFFFFFFFFFFFFFFFFFFFFFFF AND MUL OR SWAP1 SSTORE POP POP POP POP POP POP JUMP JUMPDEST PUSH1 0x0 PUSH3 0xCAA DUP4 DUP4 PUSH3 0x1417 JUMP JUMPDEST SWAP1 POP PUSH1 0x0 DUP1 PUSH1 0x0 DUP6 PUSH20 0xFFFFFFFFFFFFFFFFFFFFFFFFFFFFFFFFFFFFFFFF AND PUSH20 0xFFFFFFFFFFFFFFFFFFFFFFFFFFFFFFFFFFFFFFFF AND DUP2 MSTORE PUSH1 0x20 ADD SWAP1 DUP2 MSTORE PUSH1 0x20 ADD PUSH1 0x0 KECCAK256 PUSH1 0x1 ADD DUP1 SLOAD SWAP1 POP SWAP1 POP PUSH1 0x0 DUP3 SWAP1 POP JUMPDEST PUSH1 0x1 DUP3 PUSH3 0xD0A SWAP2 SWAP1 PUSH3 0x1DD5 JUMP JUMPDEST DUP2 LT ISZERO PUSH3 0xE55 JUMPI PUSH1 0x0 DUP1 DUP7 PUSH20 0xFFFFFFFFFFFFFFFFFFFFFFFFFFFFFFFFFFFFFFFF AND PUSH20 0xFFFFFFFFFFFFFFFFFFFFFFFFFFFFFFFFFFFFFFFF AND DUP2 MSTORE PUSH1 0x20 ADD SWAP1 DUP2 MSTORE PUSH1 0x20 ADD PUSH1 0x0 KECCAK256 PUSH1 0x1 ADD PUSH1 0x1 DUP3 PUSH3 0xD62 SWAP2 SWAP1 PUSH3 0x1E10 JUMP JUMPDEST DUP2 SLOAD DUP2 LT PUSH3 0xD76 JUMPI PUSH3 0xD75 PUSH3 0x1E6D JUMP JUMPDEST JUMPDEST SWAP1 PUSH1 0x0 MSTORE PUSH1 0x20 PUSH1 0x0 KECCAK256 ADD PUSH1 0x0 SWAP1 SLOAD SWAP1 PUSH2 0x100 EXP SWAP1 DIV PUSH20 0xFFFFFFFFFFFFFFFFFFFFFFFFFFFFFFFFFFFFFFFF AND PUSH1 0x0 DUP1 DUP8 PUSH20 0xFFFFFFFFFFFFFFFFFFFFFFFFFFFFFFFFFFFFFFFF AND PUSH20 0xFFFFFFFFFFFFFFFFFFFFFFFFFFFFFFFFFFFFFFFF AND DUP2 MSTORE PUSH1 0x20 ADD SWAP1 DUP2 MSTORE PUSH1 0x20 ADD PUSH1 0x0 KECCAK256 PUSH1 0x1 ADD DUP3 DUP2 SLOAD DUP2 LT PUSH3 0xDF7 JUMPI PUSH3 0xDF6 PUSH3 0x1E6D JUMP JUMPDEST JUMPDEST SWAP1 PUSH1 0x0 MSTORE PUSH1 0x20 PUSH1 0x0 KECCAK256 ADD PUSH1 0x0 PUSH2 0x100 EXP DUP2 SLOAD DUP2 PUSH20 0xFFFFFFFFFFFFFFFFFFFFFFFFFFFFFFFFFFFFFFFF MUL NOT AND SWAP1 DUP4 PUSH20 0xFFFFFFFFFFFFFFFFFFFFFFFFFFFFFFFFFFFFFFFF AND MUL OR SWAP1 SSTORE POP DUP1 DUP1 PUSH3 0xE4C SWAP1 PUSH3 0x1BFD JUMP JUMPDEST SWAP2 POP POP PUSH3 0xCFB JUMP JUMPDEST POP PUSH1 0x0 DUP1 DUP6 PUSH20 0xFFFFFFFFFFFFFFFFFFFFFFFFFFFFFFFFFFFFFFFF AND PUSH20 0xFFFFFFFFFFFFFFFFFFFFFFFFFFFFFFFFFFFFFFFF AND DUP2 MSTORE PUSH1 0x20 ADD SWAP1 DUP2 MSTORE PUSH1 0x20 ADD PUSH1 0x0 KECCAK256 PUSH1 0x2 ADD PUSH1 0x0 DUP1 DUP7 PUSH20 0xFFFFFFFFFFFFFFFFFFFFFFFFFFFFFFFFFFFFFFFF AND PUSH20 0xFFFFFFFFFFFFFFFFFFFFFFFFFFFFFFFFFFFFFFFF AND DUP2 MSTORE PUSH1 0x20 ADD SWAP1 DUP2 MSTORE PUSH1 0x20 ADD PUSH1 0x0 KECCAK256 PUSH1 0x1 ADD PUSH1 0x1 PUSH1 0x0 DUP1 DUP9 PUSH20 0xFFFFFFFFFFFFFFFFFFFFFFFFFFFFFFFFFFFFFFFF AND PUSH20 0xFFFFFFFFFFFFFFFFFFFFFFFFFFFFFFFFFFFFFFFF AND DUP2 MSTORE PUSH1 0x20 ADD SWAP1 DUP2 MSTORE PUSH1 0x20 ADD PUSH1 0x0 KECCAK256 PUSH1 0x1 ADD DUP1 SLOAD SWAP1 POP PUSH3 0xF2B SWAP2 SWAP1 PUSH3 0x1DD5 JUMP JUMPDEST DUP2 SLOAD DUP2 LT PUSH3 0xF3F JUMPI PUSH3 0xF3E PUSH3 0x1E6D JUMP JUMPDEST JUMPDEST SWAP1 PUSH1 0x0 MSTORE PUSH1 0x20 PUSH1 0x0 KECCAK256 ADD PUSH1 0x0 SWAP1 SLOAD SWAP1 PUSH2 0x100 EXP SWAP1 DIV PUSH20 0xFFFFFFFFFFFFFFFFFFFFFFFFFFFFFFFFFFFFFFFF AND SWAP1 DUP1 PUSH1 0x1 DUP2 SLOAD ADD DUP1 DUP3 SSTORE DUP1 SWAP2 POP POP PUSH1 0x1 SWAP1 SUB SWAP1 PUSH1 0x0 MSTORE PUSH1 0x20 PUSH1 0x0 KECCAK256 ADD PUSH1 0x0 SWAP1 SWAP2 SWAP1 SWAP2 SWAP1 SWAP2 PUSH2 0x100 EXP DUP2 SLOAD DUP2 PUSH20 0xFFFFFFFFFFFFFFFFFFFFFFFFFFFFFFFFFFFFFFFF MUL NOT AND SWAP1 DUP4 PUSH20 0xFFFFFFFFFFFFFFFFFFFFFFFFFFFFFFFFFFFFFFFF AND MUL OR SWAP1 SSTORE POP PUSH1 0x0 DUP1 DUP6 PUSH20 0xFFFFFFFFFFFFFFFFFFFFFFFFFFFFFFFFFFFFFFFF AND PUSH20 0xFFFFFFFFFFFFFFFFFFFFFFFFFFFFFFFFFFFFFFFF AND DUP2 MSTORE PUSH1 0x20 ADD SWAP1 DUP2 MSTORE PUSH1 0x20 ADD PUSH1 0x0 KECCAK256 PUSH1 0x1 ADD DUP1 SLOAD DUP1 PUSH3 0x101E JUMPI PUSH3 0x101D PUSH3 0x1E9C JUMP JUMPDEST JUMPDEST PUSH1 0x1 SWAP1 SUB DUP2 DUP2 SWAP1 PUSH1 0x0 MSTORE PUSH1 0x20 PUSH1 0x0 KECCAK256 ADD PUSH1 0x0 PUSH2 0x100 EXP DUP2 SLOAD SWAP1 PUSH20 0xFFFFFFFFFFFFFFFFFFFFFFFFFFFFFFFFFFFFFFFF MUL NOT AND SWAP1 SSTORE SWAP1 SSTORE POP POP POP POP JUMP JUMPDEST PUSH1 0x0 PUSH3 0x1067 DUP4 DUP4 PUSH3 0x1551 JUMP JUMPDEST SWAP1 POP PUSH1 0x0 DUP2 SWAP1 POP JUMPDEST PUSH1 0x1 PUSH1 0x3 PUSH1 0x0 DUP7 PUSH20 0xFFFFFFFFFFFFFFFFFFFFFFFFFFFFFFFFFFFFFFFF AND PUSH20 0xFFFFFFFFFFFFFFFFFFFFFFFFFFFFFFFFFFFFFFFF AND DUP2 MSTORE PUSH1 0x20 ADD SWAP1 DUP2 MSTORE PUSH1 0x20 ADD PUSH1 0x0 KECCAK256 PUSH1 0x1 ADD DUP1 SLOAD SWAP1 POP PUSH3 0x10C3 SWAP2 SWAP1 PUSH3 0x1DD5 JUMP JUMPDEST DUP2 LT ISZERO PUSH3 0x1210 JUMPI PUSH1 0x3 PUSH1 0x0 DUP6 PUSH20 0xFFFFFFFFFFFFFFFFFFFFFFFFFFFFFFFFFFFFFFFF AND PUSH20 0xFFFFFFFFFFFFFFFFFFFFFFFFFFFFFFFFFFFFFFFF AND DUP2 MSTORE PUSH1 0x20 ADD SWAP1 DUP2 MSTORE PUSH1 0x20 ADD PUSH1 0x0 KECCAK256 PUSH1 0x1 ADD PUSH1 0x1 DUP3 PUSH3 0x111C SWAP2 SWAP1 PUSH3 0x1E10 JUMP JUMPDEST DUP2 SLOAD DUP2 LT PUSH3 0x1130 JUMPI PUSH3 0x112F PUSH3 0x1E6D JUMP JUMPDEST JUMPDEST SWAP1 PUSH1 0x0 MSTORE PUSH1 0x20 PUSH1 0x0 KECCAK256 ADD PUSH1 0x0 SWAP1 SLOAD SWAP1 PUSH2 0x100 EXP SWAP1 DIV PUSH20 0xFFFFFFFFFFFFFFFFFFFFFFFFFFFFFFFFFFFFFFFF AND PUSH1 0x3 PUSH1 0x0 DUP7 PUSH20 0xFFFFFFFFFFFFFFFFFFFFFFFFFFFFFFFFFFFFFFFF AND PUSH20 0xFFFFFFFFFFFFFFFFFFFFFFFFFFFFFFFFFFFFFFFF AND DUP2 MSTORE PUSH1 0x20 ADD SWAP1 DUP2 MSTORE PUSH1 0x20 ADD PUSH1 0x0 KECCAK256 PUSH1 0x1 ADD DUP3 DUP2 SLOAD DUP2 LT PUSH3 0x11B2 JUMPI PUSH3 0x11B1 PUSH3 0x1E6D JUMP JUMPDEST JUMPDEST SWAP1 PUSH1 0x0 MSTORE PUSH1 0x20 PUSH1 0x0 KECCAK256 ADD PUSH1 0x0 PUSH2 0x100 EXP DUP2 SLOAD DUP2 PUSH20 0xFFFFFFFFFFFFFFFFFFFFFFFFFFFFFFFFFFFFFFFF MUL NOT AND SWAP1 DUP4 PUSH20 0xFFFFFFFFFFFFFFFFFFFFFFFFFFFFFFFFFFFFFFFF AND MUL OR SWAP1 SSTORE POP DUP1 DUP1 PUSH3 0x1207 SWAP1 PUSH3 0x1BFD JUMP JUMPDEST SWAP2 POP POP PUSH3 0x106F JUMP JUMPDEST POP PUSH1 0x3 PUSH1 0x0 DUP5 PUSH20 0xFFFFFFFFFFFFFFFFFFFFFFFFFFFFFFFFFFFFFFFF AND PUSH20 0xFFFFFFFFFFFFFFFFFFFFFFFFFFFFFFFFFFFFFFFF AND DUP2 MSTORE PUSH1 0x20 ADD SWAP1 DUP2 MSTORE PUSH1 0x20 ADD PUSH1 0x0 KECCAK256 PUSH1 0x2 ADD PUSH1 0x3 PUSH1 0x0 DUP6 PUSH20 0xFFFFFFFFFFFFFFFFFFFFFFFFFFFFFFFFFFFFFFFF AND PUSH20 0xFFFFFFFFFFFFFFFFFFFFFFFFFFFFFFFFFFFFFFFF AND DUP2 MSTORE PUSH1 0x20 ADD SWAP1 DUP2 MSTORE PUSH1 0x20 ADD PUSH1 0x0 KECCAK256 PUSH1 0x1 ADD PUSH1 0x1 PUSH1 0x3 PUSH1 0x0 DUP8 PUSH20 0xFFFFFFFFFFFFFFFFFFFFFFFFFFFFFFFFFFFFFFFF AND PUSH20 0xFFFFFFFFFFFFFFFFFFFFFFFFFFFFFFFFFFFFFFFF AND DUP2 MSTORE PUSH1 0x20 ADD SWAP1 DUP2 MSTORE PUSH1 0x20 ADD PUSH1 0x0 KECCAK256 PUSH1 0x1 ADD DUP1 SLOAD SWAP1 POP PUSH3 0x12E9 SWAP2 SWAP1 PUSH3 0x1DD5 JUMP JUMPDEST DUP2 SLOAD DUP2 LT PUSH3 0x12FD JUMPI PUSH3 0x12FC PUSH3 0x1E6D JUMP JUMPDEST JUMPDEST SWAP1 PUSH1 0x0 MSTORE PUSH1 0x20 PUSH1 0x0 KECCAK256 ADD PUSH1 0x0 SWAP1 SLOAD SWAP1 PUSH2 0x100 EXP SWAP1 DIV PUSH20 0xFFFFFFFFFFFFFFFFFFFFFFFFFFFFFFFFFFFFFFFF AND SWAP1 DUP1 PUSH1 0x1 DUP2 SLOAD ADD DUP1 DUP3 SSTORE DUP1 SWAP2 POP POP PUSH1 0x1 SWAP1 SUB SWAP1 PUSH1 0x0 MSTORE PUSH1 0x20 PUSH1 0x0 KECCAK256 ADD PUSH1 0x0 SWAP1 SWAP2 SWAP1 SWAP2 SWAP1 SWAP2 PUSH2 0x100 EXP DUP2 SLOAD DUP2 PUSH20 0xFFFFFFFFFFFFFFFFFFFFFFFFFFFFFFFFFFFFFFFF MUL NOT AND SWAP1 DUP4 PUSH20 0xFFFFFFFFFFFFFFFFFFFFFFFFFFFFFFFFFFFFFFFF AND MUL OR SWAP1 SSTORE POP PUSH1 0x3 PUSH1 0x0 DUP5 PUSH20 0xFFFFFFFFFFFFFFFFFFFFFFFFFFFFFFFFFFFFFFFF AND PUSH20 0xFFFFFFFFFFFFFFFFFFFFFFFFFFFFFFFFFFFFFFFF AND DUP2 MSTORE PUSH1 0x20 ADD SWAP1 DUP2 MSTORE PUSH1 0x20 ADD PUSH1 0x0 KECCAK256 PUSH1 0x1 ADD DUP1 SLOAD DUP1 PUSH3 0x13DD JUMPI PUSH3 0x13DC PUSH3 0x1E9C JUMP JUMPDEST JUMPDEST PUSH1 0x1 SWAP1 SUB DUP2 DUP2 SWAP1 PUSH1 0x0 MSTORE PUSH1 0x20 PUSH1 0x0 KECCAK256 ADD PUSH1 0x0 PUSH2 0x100 EXP DUP2 SLOAD SWAP1 PUSH20 0xFFFFFFFFFFFFFFFFFFFFFFFFFFFFFFFFFFFFFFFF MUL NOT AND SWAP1 SSTORE SWAP1 SSTORE POP POP POP JUMP JUMPDEST PUSH1 0x0 DUP1 PUSH1 0x0 JUMPDEST PUSH1 0x1 PUSH1 0x0 DUP1 DUP8 PUSH20 0xFFFFFFFFFFFFFFFFFFFFFFFFFFFFFFFFFFFFFFFF AND PUSH20 0xFFFFFFFFFFFFFFFFFFFFFFFFFFFFFFFFFFFFFFFF AND DUP2 MSTORE PUSH1 0x20 ADD SWAP1 DUP2 MSTORE PUSH1 0x20 ADD PUSH1 0x0 KECCAK256 PUSH1 0x1 ADD DUP1 SLOAD SWAP1 POP PUSH3 0x1470 SWAP2 SWAP1 PUSH3 0x1DD5 JUMP JUMPDEST DUP2 GT PUSH3 0x1546 JUMPI DUP4 PUSH20 0xFFFFFFFFFFFFFFFFFFFFFFFFFFFFFFFFFFFFFFFF AND PUSH1 0x0 DUP1 DUP8 PUSH20 0xFFFFFFFFFFFFFFFFFFFFFFFFFFFFFFFFFFFFFFFF AND PUSH20 0xFFFFFFFFFFFFFFFFFFFFFFFFFFFFFFFFFFFFFFFF AND DUP2 MSTORE PUSH1 0x20 ADD SWAP1 DUP2 MSTORE PUSH1 0x20 ADD PUSH1 0x0 KECCAK256 PUSH1 0x1 ADD DUP3 DUP2 SLOAD DUP2 LT PUSH3 0x14E4 JUMPI PUSH3 0x14E3 PUSH3 0x1E6D JUMP JUMPDEST JUMPDEST SWAP1 PUSH1 0x0 MSTORE PUSH1 0x20 PUSH1 0x0 KECCAK256 ADD PUSH1 0x0 SWAP1 SLOAD SWAP1 PUSH2 0x100 EXP SWAP1 DIV PUSH20 0xFFFFFFFFFFFFFFFFFFFFFFFFFFFFFFFFFFFFFFFF AND PUSH20 0xFFFFFFFFFFFFFFFFFFFFFFFFFFFFFFFFFFFFFFFF AND EQ ISZERO PUSH3 0x1530 JUMPI DUP1 SWAP2 POP JUMPDEST DUP1 DUP1 PUSH3 0x153D SWAP1 PUSH3 0x1BFD JUMP JUMPDEST SWAP2 POP POP PUSH3 0x141D JUMP JUMPDEST POP DUP1 SWAP2 POP POP SWAP3 SWAP2 POP POP JUMP JUMPDEST PUSH1 0x0 DUP1 PUSH1 0x0 JUMPDEST PUSH1 0x1 PUSH1 0x3 PUSH1 0x0 DUP8 PUSH20 0xFFFFFFFFFFFFFFFFFFFFFFFFFFFFFFFFFFFFFFFF AND PUSH20 0xFFFFFFFFFFFFFFFFFFFFFFFFFFFFFFFFFFFFFFFF AND DUP2 MSTORE PUSH1 0x20 ADD SWAP1 DUP2 MSTORE PUSH1 0x20 ADD PUSH1 0x0 KECCAK256 PUSH1 0x1 ADD DUP1 SLOAD SWAP1 POP PUSH3 0x15AB SWAP2 SWAP1 PUSH3 0x1DD5 JUMP JUMPDEST DUP2 GT PUSH3 0x1682 JUMPI DUP4 PUSH20 0xFFFFFFFFFFFFFFFFFFFFFFFFFFFFFFFFFFFFFFFF AND PUSH1 0x3 PUSH1 0x0 DUP8 PUSH20 0xFFFFFFFFFFFFFFFFFFFFFFFFFFFFFFFFFFFFFFFF AND PUSH20 0xFFFFFFFFFFFFFFFFFFFFFFFFFFFFFFFFFFFFFFFF AND DUP2 MSTORE PUSH1 0x20 ADD SWAP1 DUP2 MSTORE PUSH1 0x20 ADD PUSH1 0x0 KECCAK256 PUSH1 0x1 ADD DUP3 DUP2 SLOAD DUP2 LT PUSH3 0x1620 JUMPI PUSH3 0x161F PUSH3 0x1E6D JUMP JUMPDEST JUMPDEST SWAP1 PUSH1 0x0 MSTORE PUSH1 0x20 PUSH1 0x0 KECCAK256 ADD PUSH1 0x0 SWAP1 SLOAD SWAP1 PUSH2 0x100 EXP SWAP1 DIV PUSH20 0xFFFFFFFFFFFFFFFFFFFFFFFFFFFFFFFFFFFFFFFF AND PUSH20 0xFFFFFFFFFFFFFFFFFFFFFFFFFFFFFFFFFFFFFFFF AND EQ ISZERO PUSH3 0x166C JUMPI DUP1 SWAP2 POP JUMPDEST DUP1 DUP1 PUSH3 0x1679 SWAP1 PUSH3 0x1BFD JUMP JUMPDEST SWAP2 POP POP PUSH3 0x1557 JUMP JUMPDEST POP DUP1 SWAP2 POP POP SWAP3 SWAP2 POP POP JUMP JUMPDEST PUSH2 0x119C DUP1 PUSH3 0x1ECC DUP4 CODECOPY ADD SWAP1 JUMP JUMPDEST PUSH1 0x0 PUSH1 0x40 MLOAD SWAP1 POP SWAP1 JUMP JUMPDEST PUSH1 0x0 DUP1 REVERT JUMPDEST PUSH1 0x0 DUP1 REVERT JUMPDEST PUSH1 0x0 PUSH20 0xFFFFFFFFFFFFFFFFFFFFFFFFFFFFFFFFFFFFFFFF DUP3 AND SWAP1 POP SWAP2 SWAP1 POP JUMP JUMPDEST PUSH1 0x0 PUSH3 0x16DC DUP3 PUSH3 0x16AF JUMP JUMPDEST SWAP1 POP SWAP2 SWAP1 POP JUMP JUMPDEST PUSH3 0x16EE DUP2 PUSH3 0x16CF JUMP JUMPDEST DUP2 EQ PUSH3 0x16FA JUMPI PUSH1 0x0 DUP1 REVERT JUMPDEST POP JUMP JUMPDEST PUSH1 0x0 DUP2 CALLDATALOAD SWAP1 POP PUSH3 0x170E DUP2 PUSH3 0x16E3 JUMP JUMPDEST SWAP3 SWAP2 POP POP JUMP JUMPDEST PUSH1 0x0 PUSH1 0x20 DUP3 DUP5 SUB SLT ISZERO PUSH3 0x172D JUMPI PUSH3 0x172C PUSH3 0x16A5 JUMP JUMPDEST JUMPDEST PUSH1 0x0 PUSH3 0x173D DUP5 DUP3 DUP6 ADD PUSH3 0x16FD JUMP JUMPDEST SWAP2 POP POP SWAP3 SWAP2 POP POP JUMP JUMPDEST PUSH1 0x0 DUP2 MLOAD SWAP1 POP SWAP2 SWAP1 POP JUMP JUMPDEST PUSH1 0x0 DUP3 DUP3 MSTORE PUSH1 0x20 DUP3 ADD SWAP1 POP SWAP3 SWAP2 POP POP JUMP JUMPDEST PUSH1 0x0 DUP2 SWAP1 POP PUSH1 0x20 DUP3 ADD SWAP1 POP SWAP2 SWAP1 POP JUMP JUMPDEST PUSH3 0x177D DUP2 PUSH3 0x16CF JUMP JUMPDEST DUP3 MSTORE POP POP JUMP JUMPDEST PUSH1 0x0 PUSH3 0x1791 DUP4 DUP4 PUSH3 0x1772 JUMP JUMPDEST PUSH1 0x20 DUP4 ADD SWAP1 POP SWAP3 SWAP2 POP POP JUMP JUMPDEST PUSH1 0x0 PUSH1 0x20 DUP3 ADD SWAP1 POP SWAP2 SWAP1 POP JUMP JUMPDEST PUSH1 0x0 PUSH3 0x17B7 DUP3 PUSH3 0x1746 JUMP JUMPDEST PUSH3 0x17C3 DUP2 DUP6 PUSH3 0x1751 JUMP JUMPDEST SWAP4 POP PUSH3 0x17D0 DUP4 PUSH3 0x1762 JUMP JUMPDEST DUP1 PUSH1 0x0 JUMPDEST DUP4 DUP2 LT ISZERO PUSH3 0x1807 JUMPI DUP2 MLOAD PUSH3 0x17EB DUP9 DUP3 PUSH3 0x1783 JUMP JUMPDEST SWAP8 POP PUSH3 0x17F8 DUP4 PUSH3 0x179D JUMP JUMPDEST SWAP3 POP POP PUSH1 0x1 DUP2 ADD SWAP1 POP PUSH3 0x17D4 JUMP JUMPDEST POP DUP6 SWAP4 POP POP POP POP SWAP3 SWAP2 POP POP JUMP JUMPDEST PUSH1 0x0 PUSH1 0x20 DUP3 ADD SWAP1 POP DUP2 DUP2 SUB PUSH1 0x0 DUP4 ADD MSTORE PUSH3 0x1830 DUP2 DUP5 PUSH3 0x17AA JUMP JUMPDEST SWAP1 POP SWAP3 SWAP2 POP POP JUMP JUMPDEST PUSH1 0x0 DUP1 PUSH1 0x40 DUP4 DUP6 SUB SLT ISZERO PUSH3 0x1852 JUMPI PUSH3 0x1851 PUSH3 0x16A5 JUMP JUMPDEST JUMPDEST PUSH1 0x0 PUSH3 0x1862 DUP6 DUP3 DUP7 ADD PUSH3 0x16FD JUMP JUMPDEST SWAP3 POP POP PUSH1 0x20 PUSH3 0x1875 DUP6 DUP3 DUP7 ADD PUSH3 0x16FD JUMP JUMPDEST SWAP2 POP POP SWAP3 POP SWAP3 SWAP1 POP JUMP JUMPDEST PUSH1 0x0 DUP2 SWAP1 POP SWAP2 SWAP1 POP JUMP JUMPDEST PUSH3 0x1894 DUP2 PUSH3 0x187F JUMP JUMPDEST DUP3 MSTORE POP POP JUMP JUMPDEST PUSH1 0x0 PUSH1 0x20 DUP3 ADD SWAP1 POP PUSH3 0x18B1 PUSH1 0x0 DUP4 ADD DUP5 PUSH3 0x1889 JUMP JUMPDEST SWAP3 SWAP2 POP POP JUMP JUMPDEST PUSH1 0x0 DUP1 REVERT JUMPDEST PUSH1 0x0 DUP1 REVERT JUMPDEST PUSH1 0x0 PUSH1 0x1F NOT PUSH1 0x1F DUP4 ADD AND SWAP1 POP SWAP2 SWAP1 POP JUMP JUMPDEST PUSH32 0x4E487B7100000000000000000000000000000000000000000000000000000000 PUSH1 0x0 MSTORE PUSH1 0x41 PUSH1 0x4 MSTORE PUSH1 0x24 PUSH1 0x0 REVERT JUMPDEST PUSH3 0x190C DUP3 PUSH3 0x18C1 JUMP JUMPDEST DUP2 ADD DUP2 DUP2 LT PUSH8 0xFFFFFFFFFFFFFFFF DUP3 GT OR ISZERO PUSH3 0x192E JUMPI PUSH3 0x192D PUSH3 0x18D2 JUMP JUMPDEST JUMPDEST DUP1 PUSH1 0x40 MSTORE POP POP POP JUMP JUMPDEST PUSH1 0x0 PUSH3 0x1943 PUSH3 0x169B JUMP JUMPDEST SWAP1 POP PUSH3 0x1951 DUP3 DUP3 PUSH3 0x1901 JUMP JUMPDEST SWAP2 SWAP1 POP JUMP JUMPDEST PUSH1 0x0 PUSH8 0xFFFFFFFFFFFFFFFF DUP3 GT ISZERO PUSH3 0x1974 JUMPI PUSH3 0x1973 PUSH3 0x18D2 JUMP JUMPDEST JUMPDEST PUSH3 0x197F DUP3 PUSH3 0x18C1 JUMP JUMPDEST SWAP1 POP PUSH1 0x20 DUP2 ADD SWAP1 POP SWAP2 SWAP1 POP JUMP JUMPDEST DUP3 DUP2 DUP4 CALLDATACOPY PUSH1 0x0 DUP4 DUP4 ADD MSTORE POP POP POP JUMP JUMPDEST PUSH1 0x0 PUSH3 0x19B2 PUSH3 0x19AC DUP5 PUSH3 0x1956 JUMP JUMPDEST PUSH3 0x1937 JUMP JUMPDEST SWAP1 POP DUP3 DUP2 MSTORE PUSH1 0x20 DUP2 ADD DUP5 DUP5 DUP5 ADD GT ISZERO PUSH3 0x19D1 JUMPI PUSH3 0x19D0 PUSH3 0x18BC JUMP JUMPDEST JUMPDEST PUSH3 0x19DE DUP5 DUP3 DUP6 PUSH3 0x198C JUMP JUMPDEST POP SWAP4 SWAP3 POP POP POP JUMP JUMPDEST PUSH1 0x0 DUP3 PUSH1 0x1F DUP4 ADD SLT PUSH3 0x19FE JUMPI PUSH3 0x19FD PUSH3 0x18B7 JUMP JUMPDEST JUMPDEST DUP2 CALLDATALOAD PUSH3 0x1A10 DUP5 DUP3 PUSH1 0x20 DUP7 ADD PUSH3 0x199B JUMP JUMPDEST SWAP2 POP POP SWAP3 SWAP2 POP POP JUMP JUMPDEST PUSH1 0x0 PUSH3 0x1A26 DUP3 PUSH3 0x16AF JUMP JUMPDEST SWAP1 POP SWAP2 SWAP1 POP JUMP JUMPDEST PUSH3 0x1A38 DUP2 PUSH3 0x1A19 JUMP JUMPDEST DUP2 EQ PUSH3 0x1A44 JUMPI PUSH1 0x0 DUP1 REVERT JUMPDEST POP JUMP JUMPDEST PUSH1 0x0 DUP2 CALLDATALOAD SWAP1 POP PUSH3 0x1A58 DUP2 PUSH3 0x1A2D JUMP JUMPDEST SWAP3 SWAP2 POP POP JUMP JUMPDEST PUSH1 0x0 DUP1 PUSH1 0x0 DUP1 PUSH1 0x80 DUP6 DUP8 SUB SLT ISZERO PUSH3 0x1A7B JUMPI PUSH3 0x1A7A PUSH3 0x16A5 JUMP JUMPDEST JUMPDEST PUSH1 0x0 PUSH3 0x1A8B DUP8 DUP3 DUP9 ADD PUSH3 0x16FD JUMP JUMPDEST SWAP5 POP POP PUSH1 0x20 DUP6 ADD CALLDATALOAD PUSH8 0xFFFFFFFFFFFFFFFF DUP2 GT ISZERO PUSH3 0x1AAF JUMPI PUSH3 0x1AAE PUSH3 0x16AA JUMP JUMPDEST JUMPDEST PUSH3 0x1ABD DUP8 DUP3 DUP9 ADD PUSH3 0x19E6 JUMP JUMPDEST SWAP4 POP POP PUSH1 0x40 DUP6 ADD CALLDATALOAD PUSH8 0xFFFFFFFFFFFFFFFF DUP2 GT ISZERO PUSH3 0x1AE1 JUMPI PUSH3 0x1AE0 PUSH3 0x16AA JUMP JUMPDEST JUMPDEST PUSH3 0x1AEF DUP8 DUP3 DUP9 ADD PUSH3 0x19E6 JUMP JUMPDEST SWAP3 POP POP PUSH1 0x60 PUSH3 0x1B02 DUP8 DUP3 DUP9 ADD PUSH3 0x1A47 JUMP JUMPDEST SWAP2 POP POP SWAP3 SWAP6 SWAP2 SWAP5 POP SWAP3 POP JUMP JUMPDEST PUSH1 0x0 PUSH3 0x1B1B DUP3 PUSH3 0x16CF JUMP JUMPDEST SWAP1 POP SWAP2 SWAP1 POP JUMP JUMPDEST PUSH3 0x1B2D DUP2 PUSH3 0x1B0E JUMP JUMPDEST DUP2 EQ PUSH3 0x1B39 JUMPI PUSH1 0x0 DUP1 REVERT JUMPDEST POP JUMP JUMPDEST PUSH1 0x0 DUP2 MLOAD SWAP1 POP PUSH3 0x1B4D DUP2 PUSH3 0x1B22 JUMP JUMPDEST SWAP3 SWAP2 POP POP JUMP JUMPDEST PUSH1 0x0 PUSH1 0x20 DUP3 DUP5 SUB SLT ISZERO PUSH3 0x1B6C JUMPI PUSH3 0x1B6B PUSH3 0x16A5 JUMP JUMPDEST JUMPDEST PUSH1 0x0 PUSH3 0x1B7C DUP5 DUP3 DUP6 ADD PUSH3 0x1B3C JUMP JUMPDEST SWAP2 POP POP SWAP3 SWAP2 POP POP JUMP JUMPDEST PUSH1 0x0 DUP2 MLOAD SWAP1 POP PUSH3 0x1B96 DUP2 PUSH3 0x16E3 JUMP JUMPDEST SWAP3 SWAP2 POP POP JUMP JUMPDEST PUSH1 0x0 PUSH1 0x20 DUP3 DUP5 SUB SLT ISZERO PUSH3 0x1BB5 JUMPI PUSH3 0x1BB4 PUSH3 0x16A5 JUMP JUMPDEST JUMPDEST PUSH1 0x0 PUSH3 0x1BC5 DUP5 DUP3 DUP6 ADD PUSH3 0x1B85 JUMP JUMPDEST SWAP2 POP POP SWAP3 SWAP2 POP POP JUMP JUMPDEST PUSH32 0x4E487B7100000000000000000000000000000000000000000000000000000000 PUSH1 0x0 MSTORE PUSH1 0x11 PUSH1 0x4 MSTORE PUSH1 0x24 PUSH1 0x0 REVERT JUMPDEST PUSH1 0x0 PUSH3 0x1C0A DUP3 PUSH3 0x187F JUMP JUMPDEST SWAP2 POP PUSH32 0xFFFFFFFFFFFFFFFFFFFFFFFFFFFFFFFFFFFFFFFFFFFFFFFFFFFFFFFFFFFFFFFF DUP3 EQ ISZERO PUSH3 0x1C40 JUMPI PUSH3 0x1C3F PUSH3 0x1BCE JUMP JUMPDEST JUMPDEST PUSH1 0x1 DUP3 ADD SWAP1 POP SWAP2 SWAP1 POP JUMP JUMPDEST PUSH3 0x1C56 DUP2 PUSH3 0x16CF JUMP JUMPDEST DUP3 MSTORE POP POP JUMP JUMPDEST PUSH1 0x0 DUP2 MLOAD SWAP1 POP SWAP2 SWAP1 POP JUMP JUMPDEST PUSH1 0x0 DUP3 DUP3 MSTORE PUSH1 0x20 DUP3 ADD SWAP1 POP SWAP3 SWAP2 POP POP JUMP JUMPDEST PUSH1 0x0 JUMPDEST DUP4 DUP2 LT ISZERO PUSH3 0x1C98 JUMPI DUP1 DUP3 ADD MLOAD DUP2 DUP5 ADD MSTORE PUSH1 0x20 DUP2 ADD SWAP1 POP PUSH3 0x1C7B JUMP JUMPDEST DUP4 DUP2 GT ISZERO PUSH3 0x1CA8 JUMPI PUSH1 0x0 DUP5 DUP5 ADD MSTORE JUMPDEST POP POP POP POP JUMP JUMPDEST PUSH1 0x0 PUSH3 0x1CBB DUP3 PUSH3 0x1C5C JUMP JUMPDEST PUSH3 0x1CC7 DUP2 DUP6 PUSH3 0x1C67 JUMP JUMPDEST SWAP4 POP PUSH3 0x1CD9 DUP2 DUP6 PUSH1 0x20 DUP7 ADD PUSH3 0x1C78 JUMP JUMPDEST PUSH3 0x1CE4 DUP2 PUSH3 0x18C1 JUMP JUMPDEST DUP5 ADD SWAP2 POP POP SWAP3 SWAP2 POP POP JUMP JUMPDEST PUSH1 0x0 DUP2 SWAP1 POP SWAP2 SWAP1 POP JUMP JUMPDEST PUSH1 0x0 PUSH3 0x1D1A PUSH3 0x1D14 PUSH3 0x1D0E DUP5 PUSH3 0x16AF JUMP JUMPDEST PUSH3 0x1CEF JUMP JUMPDEST PUSH3 0x16AF JUMP JUMPDEST SWAP1 POP SWAP2 SWAP1 POP JUMP JUMPDEST PUSH1 0x0 PUSH3 0x1D2E DUP3 PUSH3 0x1CF9 JUMP JUMPDEST SWAP1 POP SWAP2 SWAP1 POP JUMP JUMPDEST PUSH1 0x0 PUSH3 0x1D42 DUP3 PUSH3 0x1D21 JUMP JUMPDEST SWAP1 POP SWAP2 SWAP1 POP JUMP JUMPDEST PUSH3 0x1D54 DUP2 PUSH3 0x1D35 JUMP JUMPDEST DUP3 MSTORE POP POP JUMP JUMPDEST PUSH1 0x0 PUSH1 0xC0 DUP3 ADD SWAP1 POP PUSH3 0x1D71 PUSH1 0x0 DUP4 ADD DUP10 PUSH3 0x1C4B JUMP JUMPDEST PUSH3 0x1D80 PUSH1 0x20 DUP4 ADD DUP9 PUSH3 0x1C4B JUMP JUMPDEST DUP2 DUP2 SUB PUSH1 0x40 DUP4 ADD MSTORE PUSH3 0x1D94 DUP2 DUP8 PUSH3 0x1CAE JUMP JUMPDEST SWAP1 POP DUP2 DUP2 SUB PUSH1 0x60 DUP4 ADD MSTORE PUSH3 0x1DAA DUP2 DUP7 PUSH3 0x1CAE JUMP JUMPDEST SWAP1 POP PUSH3 0x1DBB PUSH1 0x80 DUP4 ADD DUP6 PUSH3 0x1D49 JUMP JUMPDEST PUSH3 0x1DCA PUSH1 0xA0 DUP4 ADD DUP5 PUSH3 0x1889 JUMP JUMPDEST SWAP8 SWAP7 POP POP POP POP POP POP POP JUMP JUMPDEST PUSH1 0x0 PUSH3 0x1DE2 DUP3 PUSH3 0x187F JUMP JUMPDEST SWAP2 POP PUSH3 0x1DEF DUP4 PUSH3 0x187F JUMP JUMPDEST SWAP3 POP DUP3 DUP3 LT ISZERO PUSH3 0x1E05 JUMPI PUSH3 0x1E04 PUSH3 0x1BCE JUMP JUMPDEST JUMPDEST DUP3 DUP3 SUB SWAP1 POP SWAP3 SWAP2 POP POP JUMP JUMPDEST PUSH1 0x0 PUSH3 0x1E1D DUP3 PUSH3 0x187F JUMP JUMPDEST SWAP2 POP PUSH3 0x1E2A DUP4 PUSH3 0x187F JUMP JUMPDEST SWAP3 POP DUP3 PUSH32 0xFFFFFFFFFFFFFFFFFFFFFFFFFFFFFFFFFFFFFFFFFFFFFFFFFFFFFFFFFFFFFFFF SUB DUP3 GT ISZERO PUSH3 0x1E62 JUMPI PUSH3 0x1E61 PUSH3 0x1BCE JUMP JUMPDEST JUMPDEST DUP3 DUP3 ADD SWAP1 POP SWAP3 SWAP2 POP POP JUMP JUMPDEST PUSH32 0x4E487B7100000000000000000000000000000000000000000000000000000000 PUSH1 0x0 MSTORE PUSH1 0x32 PUSH1 0x4 MSTORE PUSH1 0x24 PUSH1 0x0 REVERT JUMPDEST PUSH32 0x4E487B7100000000000000000000000000000000000000000000000000000000 PUSH1 0x0 MSTORE PUSH1 0x31 PUSH1 0x4 MSTORE PUSH1 0x24 PUSH1 0x0 REVERT INVALID PUSH1 0x80 PUSH1 0x40 MSTORE PUSH1 0x40 MLOAD PUSH3 0x119C CODESIZE SUB DUP1 PUSH3 0x119C DUP4 CODECOPY DUP2 DUP2 ADD PUSH1 0x40 MSTORE DUP2 ADD SWAP1 PUSH3 0x29 SWAP2 SWAP1 PUSH3 0x44B JUMP JUMPDEST DUP6 PUSH1 0x0 DUP1 PUSH2 0x100 EXP DUP2 SLOAD DUP2 PUSH20 0xFFFFFFFFFFFFFFFFFFFFFFFFFFFFFFFFFFFFFFFF MUL NOT AND SWAP1 DUP4 PUSH20 0xFFFFFFFFFFFFFFFFFFFFFFFFFFFFFFFFFFFFFFFF AND MUL OR SWAP1 SSTORE POP DUP5 PUSH1 0x1 PUSH1 0x0 PUSH2 0x100 EXP DUP2 SLOAD DUP2 PUSH20 0xFFFFFFFFFFFFFFFFFFFFFFFFFFFFFFFFFFFFFFFF MUL NOT AND SWAP1 DUP4 PUSH20 0xFFFFFFFFFFFFFFFFFFFFFFFFFFFFFFFFFFFFFFFF AND MUL OR SWAP1 SSTORE POP DUP4 PUSH1 0x2 SWAP1 DUP1 MLOAD SWAP1 PUSH1 0x20 ADD SWAP1 PUSH3 0xC2 SWAP3 SWAP2 SWAP1 PUSH3 0x15E JUMP JUMPDEST POP DUP3 PUSH1 0x3 SWAP1 DUP1 MLOAD SWAP1 PUSH1 0x20 ADD SWAP1 PUSH3 0xDB SWAP3 SWAP2 SWAP1 PUSH3 0x15E JUMP JUMPDEST POP DUP2 PUSH1 0x4 PUSH1 0x0 PUSH2 0x100 EXP DUP2 SLOAD DUP2 PUSH20 0xFFFFFFFFFFFFFFFFFFFFFFFFFFFFFFFFFFFFFFFF MUL NOT AND SWAP1 DUP4 PUSH20 0xFFFFFFFFFFFFFFFFFFFFFFFFFFFFFFFFFFFFFFFF AND MUL OR SWAP1 SSTORE POP DUP1 PUSH1 0x5 DUP2 SWAP1 SSTORE POP PUSH1 0x0 PUSH1 0x6 PUSH1 0x0 PUSH2 0x100 EXP DUP2 SLOAD DUP2 PUSH1 0xFF MUL NOT AND SWAP1 DUP4 PUSH1 0x2 DUP2 GT ISZERO PUSH3 0x14D JUMPI PUSH3 0x14C PUSH3 0x525 JUMP JUMPDEST JUMPDEST MUL OR SWAP1 SSTORE POP POP POP POP POP POP POP PUSH3 0x5B9 JUMP JUMPDEST DUP3 DUP1 SLOAD PUSH3 0x16C SWAP1 PUSH3 0x583 JUMP JUMPDEST SWAP1 PUSH1 0x0 MSTORE PUSH1 0x20 PUSH1 0x0 KECCAK256 SWAP1 PUSH1 0x1F ADD PUSH1 0x20 SWAP1 DIV DUP2 ADD SWAP3 DUP3 PUSH3 0x190 JUMPI PUSH1 0x0 DUP6 SSTORE PUSH3 0x1DC JUMP JUMPDEST DUP3 PUSH1 0x1F LT PUSH3 0x1AB JUMPI DUP1 MLOAD PUSH1 0xFF NOT AND DUP4 DUP1 ADD OR DUP6 SSTORE PUSH3 0x1DC JUMP JUMPDEST DUP3 DUP1 ADD PUSH1 0x1 ADD DUP6 SSTORE DUP3 ISZERO PUSH3 0x1DC JUMPI SWAP2 DUP3 ADD JUMPDEST DUP3 DUP2 GT ISZERO PUSH3 0x1DB JUMPI DUP3 MLOAD DUP3 SSTORE SWAP2 PUSH1 0x20 ADD SWAP2 SWAP1 PUSH1 0x1 ADD SWAP1 PUSH3 0x1BE JUMP JUMPDEST JUMPDEST POP SWAP1 POP PUSH3 0x1EB SWAP2 SWAP1 PUSH3 0x1EF JUMP JUMPDEST POP SWAP1 JUMP JUMPDEST JUMPDEST DUP1 DUP3 GT ISZERO PUSH3 0x20A JUMPI PUSH1 0x0 DUP2 PUSH1 0x0 SWAP1 SSTORE POP PUSH1 0x1 ADD PUSH3 0x1F0 JUMP JUMPDEST POP SWAP1 JUMP JUMPDEST PUSH1 0x0 PUSH1 0x40 MLOAD SWAP1 POP SWAP1 JUMP JUMPDEST PUSH1 0x0 DUP1 REVERT JUMPDEST PUSH1 0x0 DUP1 REVERT JUMPDEST PUSH1 0x0 PUSH20 0xFFFFFFFFFFFFFFFFFFFFFFFFFFFFFFFFFFFFFFFF DUP3 AND SWAP1 POP SWAP2 SWAP1 POP JUMP JUMPDEST PUSH1 0x0 PUSH3 0x24F DUP3 PUSH3 0x222 JUMP JUMPDEST SWAP1 POP SWAP2 SWAP1 POP JUMP JUMPDEST PUSH3 0x261 DUP2 PUSH3 0x242 JUMP JUMPDEST DUP2 EQ PUSH3 0x26D JUMPI PUSH1 0x0 DUP1 REVERT JUMPDEST POP JUMP JUMPDEST PUSH1 0x0 DUP2 MLOAD SWAP1 POP PUSH3 0x281 DUP2 PUSH3 0x256 JUMP JUMPDEST SWAP3 SWAP2 POP POP JUMP JUMPDEST PUSH1 0x0 DUP1 REVERT JUMPDEST PUSH1 0x0 DUP1 REVERT JUMPDEST PUSH1 0x0 PUSH1 0x1F NOT PUSH1 0x1F DUP4 ADD AND SWAP1 POP SWAP2 SWAP1 POP JUMP JUMPDEST PUSH32 0x4E487B7100000000000000000000000000000000000000000000000000000000 PUSH1 0x0 MSTORE PUSH1 0x41 PUSH1 0x4 MSTORE PUSH1 0x24 PUSH1 0x0 REVERT JUMPDEST PUSH3 0x2DC DUP3 PUSH3 0x291 JUMP JUMPDEST DUP2 ADD DUP2 DUP2 LT PUSH8 0xFFFFFFFFFFFFFFFF DUP3 GT OR ISZERO PUSH3 0x2FE JUMPI PUSH3 0x2FD PUSH3 0x2A2 JUMP JUMPDEST JUMPDEST DUP1 PUSH1 0x40 MSTORE POP POP POP JUMP JUMPDEST PUSH1 0x0 PUSH3 0x313 PUSH3 0x20E JUMP JUMPDEST SWAP1 POP PUSH3 0x321 DUP3 DUP3 PUSH3 0x2D1 JUMP JUMPDEST SWAP2 SWAP1 POP JUMP JUMPDEST PUSH1 0x0 PUSH8 0xFFFFFFFFFFFFFFFF DUP3 GT ISZERO PUSH3 0x344 JUMPI PUSH3 0x343 PUSH3 0x2A2 JUMP JUMPDEST JUMPDEST PUSH3 0x34F DUP3 PUSH3 0x291 JUMP JUMPDEST SWAP1 POP PUSH1 0x20 DUP2 ADD SWAP1 POP SWAP2 SWAP1 POP JUMP JUMPDEST PUSH1 0x0 JUMPDEST DUP4 DUP2 LT ISZERO PUSH3 0x37C JUMPI DUP1 DUP3 ADD MLOAD DUP2 DUP5 ADD MSTORE PUSH1 0x20 DUP2 ADD SWAP1 POP PUSH3 0x35F JUMP JUMPDEST DUP4 DUP2 GT ISZERO PUSH3 0x38C JUMPI PUSH1 0x0 DUP5 DUP5 ADD MSTORE JUMPDEST POP POP POP POP JUMP JUMPDEST PUSH1 0x0 PUSH3 0x3A9 PUSH3 0x3A3 DUP5 PUSH3 0x326 JUMP JUMPDEST PUSH3 0x307 JUMP JUMPDEST SWAP1 POP DUP3 DUP2 MSTORE PUSH1 0x20 DUP2 ADD DUP5 DUP5 DUP5 ADD GT ISZERO PUSH3 0x3C8 JUMPI PUSH3 0x3C7 PUSH3 0x28C JUMP JUMPDEST JUMPDEST PUSH3 0x3D5 DUP5 DUP3 DUP6 PUSH3 0x35C JUMP JUMPDEST POP SWAP4 SWAP3 POP POP POP JUMP JUMPDEST PUSH1 0x0 DUP3 PUSH1 0x1F DUP4 ADD SLT PUSH3 0x3F5 JUMPI PUSH3 0x3F4 PUSH3 0x287 JUMP JUMPDEST JUMPDEST DUP2 MLOAD PUSH3 0x407 DUP5 DUP3 PUSH1 0x20 DUP7 ADD PUSH3 0x392 JUMP JUMPDEST SWAP2 POP POP SWAP3 SWAP2 POP POP JUMP JUMPDEST PUSH1 0x0 DUP2 SWAP1 POP SWAP2 SWAP1 POP JUMP JUMPDEST PUSH3 0x425 DUP2 PUSH3 0x410 JUMP JUMPDEST DUP2 EQ PUSH3 0x431 JUMPI PUSH1 0x0 DUP1 REVERT JUMPDEST POP JUMP JUMPDEST PUSH1 0x0 DUP2 MLOAD SWAP1 POP PUSH3 0x445 DUP2 PUSH3 0x41A JUMP JUMPDEST SWAP3 SWAP2 POP POP JUMP JUMPDEST PUSH1 0x0 DUP1 PUSH1 0x0 DUP1 PUSH1 0x0 DUP1 PUSH1 0xC0 DUP8 DUP10 SUB SLT ISZERO PUSH3 0x46B JUMPI PUSH3 0x46A PUSH3 0x218 JUMP JUMPDEST JUMPDEST PUSH1 0x0 PUSH3 0x47B DUP10 DUP3 DUP11 ADD PUSH3 0x270 JUMP JUMPDEST SWAP7 POP POP PUSH1 0x20 PUSH3 0x48E DUP10 DUP3 DUP11 ADD PUSH3 0x270 JUMP JUMPDEST SWAP6 POP POP PUSH1 0x40 DUP8 ADD MLOAD PUSH8 0xFFFFFFFFFFFFFFFF DUP2 GT ISZERO PUSH3 0x4B2 JUMPI PUSH3 0x4B1 PUSH3 0x21D JUMP JUMPDEST JUMPDEST PUSH3 0x4C0 DUP10 DUP3 DUP11 ADD PUSH3 0x3DD JUMP JUMPDEST SWAP5 POP POP PUSH1 0x60 DUP8 ADD MLOAD PUSH8 0xFFFFFFFFFFFFFFFF DUP2 GT ISZERO PUSH3 0x4E4 JUMPI PUSH3 0x4E3 PUSH3 0x21D JUMP JUMPDEST JUMPDEST PUSH3 0x4F2 DUP10 DUP3 DUP11 ADD PUSH3 0x3DD JUMP JUMPDEST SWAP4 POP POP PUSH1 0x80 PUSH3 0x505 DUP10 DUP3 DUP11 ADD PUSH3 0x270 JUMP JUMPDEST SWAP3 POP POP PUSH1 0xA0 PUSH3 0x518 DUP10 DUP3 DUP11 ADD PUSH3 0x434 JUMP JUMPDEST SWAP2 POP POP SWAP3 SWAP6 POP SWAP3 SWAP6 POP SWAP3 SWAP6 JUMP JUMPDEST PUSH32 0x4E487B7100000000000000000000000000000000000000000000000000000000 PUSH1 0x0 MSTORE PUSH1 0x21 PUSH1 0x4 MSTORE PUSH1 0x24 PUSH1 0x0 REVERT JUMPDEST PUSH32 0x4E487B7100000000000000000000000000000000000000000000000000000000 PUSH1 0x0 MSTORE PUSH1 0x22 PUSH1 0x4 MSTORE PUSH1 0x24 PUSH1 0x0 REVERT JUMPDEST PUSH1 0x0 PUSH1 0x2 DUP3 DIV SWAP1 POP PUSH1 0x1 DUP3 AND DUP1 PUSH3 0x59C JUMPI PUSH1 0x7F DUP3 AND SWAP2 POP JUMPDEST PUSH1 0x20 DUP3 LT DUP2 EQ ISZERO PUSH3 0x5B3 JUMPI PUSH3 0x5B2 PUSH3 0x554 JUMP JUMPDEST JUMPDEST POP SWAP2 SWAP1 POP JUMP JUMPDEST PUSH2 0xBD3 DUP1 PUSH3 0x5C9 PUSH1 0x0 CODECOPY PUSH1 0x0 RETURN INVALID PUSH1 0x80 PUSH1 0x40 MSTORE PUSH1 0x4 CALLDATASIZE LT PUSH2 0x86 JUMPI PUSH1 0x0 CALLDATALOAD PUSH1 0xE0 SHR DUP1 PUSH4 0x3B1BEBD1 GT PUSH2 0x59 JUMPI DUP1 PUSH4 0x3B1BEBD1 EQ PUSH2 0x12A JUMPI DUP1 PUSH4 0x4177FE51 EQ PUSH2 0x155 JUMPI DUP1 PUSH4 0x7284E416 EQ PUSH2 0x180 JUMPI DUP1 PUSH4 0xAA8C217C EQ PUSH2 0x1AB JUMPI DUP1 PUSH4 0xB4FEDC11 EQ PUSH2 0x1D6 JUMPI PUSH2 0x86 JUMP JUMPDEST DUP1 PUSH4 0x2D05D3F EQ PUSH2 0x8B JUMPI DUP1 PUSH4 0x6FDDE03 EQ PUSH2 0xB6 JUMPI DUP1 PUSH4 0x200D2ED2 EQ PUSH2 0xE1 JUMPI DUP1 PUSH4 0x2D398FA6 EQ PUSH2 0x10C JUMPI JUMPDEST PUSH1 0x0 DUP1 REVERT JUMPDEST CALLVALUE DUP1 ISZERO PUSH2 0x97 JUMPI PUSH1 0x0 DUP1 REVERT JUMPDEST POP PUSH2 0xA0 PUSH2 0x1F4 JUMP JUMPDEST PUSH1 0x40 MLOAD PUSH2 0xAD SWAP2 SWAP1 PUSH2 0x770 JUMP JUMPDEST PUSH1 0x40 MLOAD DUP1 SWAP2 SUB SWAP1 RETURN JUMPDEST CALLVALUE DUP1 ISZERO PUSH2 0xC2 JUMPI PUSH1 0x0 DUP1 REVERT JUMPDEST POP PUSH2 0xCB PUSH2 0x218 JUMP JUMPDEST PUSH1 0x40 MLOAD PUSH2 0xD8 SWAP2 SWAP1 PUSH2 0x824 JUMP JUMPDEST PUSH1 0x40 MLOAD DUP1 SWAP2 SUB SWAP1 RETURN JUMPDEST CALLVALUE DUP1 ISZERO PUSH2 0xED JUMPI PUSH1 0x0 DUP1 REVERT JUMPDEST POP PUSH2 0xF6 PUSH2 0x2A6 JUMP JUMPDEST PUSH1 0x40 MLOAD PUSH2 0x103 SWAP2 SWAP1 PUSH2 0x8BD JUMP JUMPDEST PUSH1 0x40 MLOAD DUP1 SWAP2 SUB SWAP1 RETURN JUMPDEST PUSH2 0x114 PUSH2 0x2B9 JUMP JUMPDEST PUSH1 0x40 MLOAD PUSH2 0x121 SWAP2 SWAP1 PUSH2 0x937 JUMP JUMPDEST PUSH1 0x40 MLOAD DUP1 SWAP2 SUB SWAP1 RETURN JUMPDEST CALLVALUE DUP1 ISZERO PUSH2 0x136 JUMPI PUSH1 0x0 DUP1 REVERT JUMPDEST POP PUSH2 0x13F PUSH2 0x4B0 JUMP JUMPDEST PUSH1 0x40 MLOAD PUSH2 0x14C SWAP2 SWAP1 PUSH2 0x770 JUMP JUMPDEST PUSH1 0x40 MLOAD DUP1 SWAP2 SUB SWAP1 RETURN JUMPDEST CALLVALUE DUP1 ISZERO PUSH2 0x161 JUMPI PUSH1 0x0 DUP1 REVERT JUMPDEST POP PUSH2 0x16A PUSH2 0x4D6 JUMP JUMPDEST PUSH1 0x40 MLOAD PUSH2 0x177 SWAP2 SWAP1 PUSH2 0x770 JUMP JUMPDEST PUSH1 0x40 MLOAD DUP1 SWAP2 SUB SWAP1 RETURN JUMPDEST CALLVALUE DUP1 ISZERO PUSH2 0x18C JUMPI PUSH1 0x0 DUP1 REVERT JUMPDEST POP PUSH2 0x195 PUSH2 0x4FC JUMP JUMPDEST PUSH1 0x40 MLOAD PUSH2 0x1A2 SWAP2 SWAP1 PUSH2 0x824 JUMP JUMPDEST PUSH1 0x40 MLOAD DUP1 SWAP2 SUB SWAP1 RETURN JUMPDEST CALLVALUE DUP1 ISZERO PUSH2 0x1B7 JUMPI PUSH1 0x0 DUP1 REVERT JUMPDEST POP PUSH2 0x1C0 PUSH2 0x58A JUMP JUMPDEST PUSH1 0x40 MLOAD PUSH2 0x1CD SWAP2 SWAP1 PUSH2 0x96B JUMP JUMPDEST PUSH1 0x40 MLOAD DUP1 SWAP2 SUB SWAP1 RETURN JUMPDEST PUSH2 0x1DE PUSH2 0x590 JUMP JUMPDEST PUSH1 0x40 MLOAD PUSH2 0x1EB SWAP2 SWAP1 PUSH2 0x937 JUMP JUMPDEST PUSH1 0x40 MLOAD DUP1 SWAP2 SUB SWAP1 RETURN JUMPDEST PUSH1 0x0 DUP1 SLOAD SWAP1 PUSH2 0x100 EXP SWAP1 DIV PUSH20 0xFFFFFFFFFFFFFFFFFFFFFFFFFFFFFFFFFFFFFFFF AND DUP2 JUMP JUMPDEST PUSH1 0x2 DUP1 SLOAD PUSH2 0x225 SWAP1 PUSH2 0x9B5 JUMP JUMPDEST DUP1 PUSH1 0x1F ADD PUSH1 0x20 DUP1 SWAP2 DIV MUL PUSH1 0x20 ADD PUSH1 0x40 MLOAD SWAP1 DUP2 ADD PUSH1 0x40 MSTORE DUP1 SWAP3 SWAP2 SWAP1 DUP2 DUP2 MSTORE PUSH1 0x20 ADD DUP3 DUP1 SLOAD PUSH2 0x251 SWAP1 PUSH2 0x9B5 JUMP JUMPDEST DUP1 ISZERO PUSH2 0x29E JUMPI DUP1 PUSH1 0x1F LT PUSH2 0x273 JUMPI PUSH2 0x100 DUP1 DUP4 SLOAD DIV MUL DUP4 MSTORE SWAP2 PUSH1 0x20 ADD SWAP2 PUSH2 0x29E JUMP JUMPDEST DUP3 ADD SWAP2 SWAP1 PUSH1 0x0 MSTORE PUSH1 0x20 PUSH1 0x0 KECCAK256 SWAP1 JUMPDEST DUP2 SLOAD DUP2 MSTORE SWAP1 PUSH1 0x1 ADD SWAP1 PUSH1 0x20 ADD DUP1 DUP4 GT PUSH2 0x281 JUMPI DUP3 SWAP1 SUB PUSH1 0x1F AND DUP3 ADD SWAP2 JUMPDEST POP POP POP POP POP DUP2 JUMP JUMPDEST PUSH1 0x6 PUSH1 0x0 SWAP1 SLOAD SWAP1 PUSH2 0x100 EXP SWAP1 DIV PUSH1 0xFF AND DUP2 JUMP JUMPDEST PUSH1 0x0 DUP1 PUSH1 0x2 DUP2 GT ISZERO PUSH2 0x2CE JUMPI PUSH2 0x2CD PUSH2 0x846 JUMP JUMPDEST JUMPDEST PUSH1 0x6 PUSH1 0x0 SWAP1 SLOAD SWAP1 PUSH2 0x100 EXP SWAP1 DIV PUSH1 0xFF AND PUSH1 0x2 DUP2 GT ISZERO PUSH2 0x2F0 JUMPI PUSH2 0x2EF PUSH2 0x846 JUMP JUMPDEST JUMPDEST EQ PUSH2 0x330 JUMPI PUSH1 0x40 MLOAD PUSH32 0x8C379A000000000000000000000000000000000000000000000000000000000 DUP2 MSTORE PUSH1 0x4 ADD PUSH2 0x327 SWAP1 PUSH2 0xA59 JUMP JUMPDEST PUSH1 0x40 MLOAD DUP1 SWAP2 SUB SWAP1 REVERT JUMPDEST PUSH1 0x1 PUSH1 0x0 SWAP1 SLOAD SWAP1 PUSH2 0x100 EXP SWAP1 DIV PUSH20 0xFFFFFFFFFFFFFFFFFFFFFFFFFFFFFFFFFFFFFFFF AND PUSH20 0xFFFFFFFFFFFFFFFFFFFFFFFFFFFFFFFFFFFFFFFF AND ORIGIN PUSH20 0xFFFFFFFFFFFFFFFFFFFFFFFFFFFFFFFFFFFFFFFF AND EQ DUP1 PUSH2 0x3D7 JUMPI POP PUSH1 0x0 DUP1 SLOAD SWAP1 PUSH2 0x100 EXP SWAP1 DIV PUSH20 0xFFFFFFFFFFFFFFFFFFFFFFFFFFFFFFFFFFFFFFFF AND PUSH20 0xFFFFFFFFFFFFFFFFFFFFFFFFFFFFFFFFFFFFFFFF AND ORIGIN PUSH20 0xFFFFFFFFFFFFFFFFFFFFFFFFFFFFFFFFFFFFFFFF AND EQ JUMPDEST PUSH2 0x416 JUMPI PUSH1 0x40 MLOAD PUSH32 0x8C379A000000000000000000000000000000000000000000000000000000000 DUP2 MSTORE PUSH1 0x4 ADD PUSH2 0x40D SWAP1 PUSH2 0xAEB JUMP JUMPDEST PUSH1 0x40 MLOAD DUP1 SWAP2 SUB SWAP1 REVERT JUMPDEST PUSH1 0x4 PUSH1 0x0 SWAP1 SLOAD SWAP1 PUSH2 0x100 EXP SWAP1 DIV PUSH20 0xFFFFFFFFFFFFFFFFFFFFFFFFFFFFFFFFFFFFFFFF AND PUSH20 0xFFFFFFFFFFFFFFFFFFFFFFFFFFFFFFFFFFFFFFFF AND PUSH2 0x8FC SELFBALANCE SWAP1 DUP2 ISZERO MUL SWAP1 PUSH1 0x40 MLOAD PUSH1 0x0 PUSH1 0x40 MLOAD DUP1 DUP4 SUB DUP2 DUP6 DUP9 DUP9 CALL SWAP4 POP POP POP POP ISZERO DUP1 ISZERO PUSH2 0x47E JUMPI RETURNDATASIZE PUSH1 0x0 DUP1 RETURNDATACOPY RETURNDATASIZE PUSH1 0x0 REVERT JUMPDEST POP PUSH1 0x2 PUSH1 0x6 PUSH1 0x0 PUSH2 0x100 EXP DUP2 SLOAD DUP2 PUSH1 0xFF MUL NOT AND SWAP1 DUP4 PUSH1 0x2 DUP2 GT ISZERO PUSH2 0x4A5 JUMPI PUSH2 0x4A4 PUSH2 0x846 JUMP JUMPDEST JUMPDEST MUL OR SWAP1 SSTORE POP ADDRESS SWAP1 POP SWAP1 JUMP JUMPDEST PUSH1 0x1 PUSH1 0x0 SWAP1 SLOAD SWAP1 PUSH2 0x100 EXP SWAP1 DIV PUSH20 0xFFFFFFFFFFFFFFFFFFFFFFFFFFFFFFFFFFFFFFFF AND DUP2 JUMP JUMPDEST PUSH1 0x4 PUSH1 0x0 SWAP1 SLOAD SWAP1 PUSH2 0x100 EXP SWAP1 DIV PUSH20 0xFFFFFFFFFFFFFFFFFFFFFFFFFFFFFFFFFFFFFFFF AND DUP2 JUMP JUMPDEST PUSH1 0x3 DUP1 SLOAD PUSH2 0x509 SWAP1 PUSH2 0x9B5 JUMP JUMPDEST DUP1 PUSH1 0x1F ADD PUSH1 0x20 DUP1 SWAP2 DIV MUL PUSH1 0x20 ADD PUSH1 0x40 MLOAD SWAP1 DUP2 ADD PUSH1 0x40 MSTORE DUP1 SWAP3 SWAP2 SWAP1 DUP2 DUP2 MSTORE PUSH1 0x20 ADD DUP3 DUP1 SLOAD PUSH2 0x535 SWAP1 PUSH2 0x9B5 JUMP JUMPDEST DUP1 ISZERO PUSH2 0x582 JUMPI DUP1 PUSH1 0x1F LT PUSH2 0x557 JUMPI PUSH2 0x100 DUP1 DUP4 SLOAD DIV MUL DUP4 MSTORE SWAP2 PUSH1 0x20 ADD SWAP2 PUSH2 0x582 JUMP JUMPDEST DUP3 ADD SWAP2 SWAP1 PUSH1 0x0 MSTORE PUSH1 0x20 PUSH1 0x0 KECCAK256 SWAP1 JUMPDEST DUP2 SLOAD DUP2 MSTORE SWAP1 PUSH1 0x1 ADD SWAP1 PUSH1 0x20 ADD DUP1 DUP4 GT PUSH2 0x565 JUMPI DUP3 SWAP1 SUB PUSH1 0x1F AND DUP3 ADD SWAP2 JUMPDEST POP POP POP POP POP DUP2 JUMP JUMPDEST PUSH1 0x5 SLOAD DUP2 JUMP JUMPDEST PUSH1 0x0 DUP1 PUSH1 0x2 DUP2 GT ISZERO PUSH2 0x5A5 JUMPI PUSH2 0x5A4 PUSH2 0x846 JUMP JUMPDEST JUMPDEST PUSH1 0x6 PUSH1 0x0 SWAP1 SLOAD SWAP1 PUSH2 0x100 EXP SWAP1 DIV PUSH1 0xFF AND PUSH1 0x2 DUP2 GT ISZERO PUSH2 0x5C7 JUMPI PUSH2 0x5C6 PUSH2 0x846 JUMP JUMPDEST JUMPDEST EQ PUSH2 0x607 JUMPI PUSH1 0x40 MLOAD PUSH32 0x8C379A000000000000000000000000000000000000000000000000000000000 DUP2 MSTORE PUSH1 0x4 ADD PUSH2 0x5FE SWAP1 PUSH2 0xA59 JUMP JUMPDEST PUSH1 0x40 MLOAD DUP1 SWAP2 SUB SWAP1 REVERT JUMPDEST PUSH1 0x1 PUSH1 0x0 SWAP1 SLOAD SWAP1 PUSH2 0x100 EXP SWAP1 DIV PUSH20 0xFFFFFFFFFFFFFFFFFFFFFFFFFFFFFFFFFFFFFFFF AND PUSH20 0xFFFFFFFFFFFFFFFFFFFFFFFFFFFFFFFFFFFFFFFF AND ORIGIN PUSH20 0xFFFFFFFFFFFFFFFFFFFFFFFFFFFFFFFFFFFFFFFF AND EQ PUSH2 0x697 JUMPI PUSH1 0x40 MLOAD PUSH32 0x8C379A000000000000000000000000000000000000000000000000000000000 DUP2 MSTORE PUSH1 0x4 ADD PUSH2 0x68E SWAP1 PUSH2 0xB7D JUMP JUMPDEST PUSH1 0x40 MLOAD DUP1 SWAP2 SUB SWAP1 REVERT JUMPDEST PUSH1 0x0 DUP1 SLOAD SWAP1 PUSH2 0x100 EXP SWAP1 DIV PUSH20 0xFFFFFFFFFFFFFFFFFFFFFFFFFFFFFFFFFFFFFFFF AND PUSH20 0xFFFFFFFFFFFFFFFFFFFFFFFFFFFFFFFFFFFFFFFF AND PUSH2 0x8FC SELFBALANCE SWAP1 DUP2 ISZERO MUL SWAP1 PUSH1 0x40 MLOAD PUSH1 0x0 PUSH1 0x40 MLOAD DUP1 DUP4 SUB DUP2 DUP6 DUP9 DUP9 CALL SWAP4 POP POP POP POP ISZERO DUP1 ISZERO PUSH2 0x6FD JUMPI RETURNDATASIZE PUSH1 0x0 DUP1 RETURNDATACOPY RETURNDATASIZE PUSH1 0x0 REVERT JUMPDEST POP PUSH1 0x1 PUSH1 0x6 PUSH1 0x0 PUSH2 0x100 EXP DUP2 SLOAD DUP2 PUSH1 0xFF MUL NOT AND SWAP1 DUP4 PUSH1 0x2 DUP2 GT ISZERO PUSH2 0x724 JUMPI PUSH2 0x723 PUSH2 0x846 JUMP JUMPDEST JUMPDEST MUL OR SWAP1 SSTORE POP ADDRESS SWAP1 POP SWAP1 JUMP JUMPDEST PUSH1 0x0 PUSH20 0xFFFFFFFFFFFFFFFFFFFFFFFFFFFFFFFFFFFFFFFF DUP3 AND SWAP1 POP SWAP2 SWAP1 POP JUMP JUMPDEST PUSH1 0x0 PUSH2 0x75A DUP3 PUSH2 0x72F JUMP JUMPDEST SWAP1 POP SWAP2 SWAP1 POP JUMP JUMPDEST PUSH2 0x76A DUP2 PUSH2 0x74F JUMP JUMPDEST DUP3 MSTORE POP POP JUMP JUMPDEST PUSH1 0x0 PUSH1 0x20 DUP3 ADD SWAP1 POP PUSH2 0x785 PUSH1 0x0 DUP4 ADD DUP5 PUSH2 0x761 JUMP JUMPDEST SWAP3 SWAP2 POP POP JUMP JUMPDEST PUSH1 0x0 DUP2 MLOAD SWAP1 POP SWAP2 SWAP1 POP JUMP JUMPDEST PUSH1 0x0 DUP3 DUP3 MSTORE PUSH1 0x20 DUP3 ADD SWAP1 POP SWAP3 SWAP2 POP POP JUMP JUMPDEST PUSH1 0x0 JUMPDEST DUP4 DUP2 LT ISZERO PUSH2 0x7C5 JUMPI DUP1 DUP3 ADD MLOAD DUP2 DUP5 ADD MSTORE PUSH1 0x20 DUP2 ADD SWAP1 POP PUSH2 0x7AA JUMP JUMPDEST DUP4 DUP2 GT ISZERO PUSH2 0x7D4 JUMPI PUSH1 0x0 DUP5 DUP5 ADD MSTORE JUMPDEST POP POP POP POP JUMP JUMPDEST PUSH1 0x0 PUSH1 0x1F NOT PUSH1 0x1F DUP4 ADD AND SWAP1 POP SWAP2 SWAP1 POP JUMP JUMPDEST PUSH1 0x0 PUSH2 0x7F6 DUP3 PUSH2 0x78B JUMP JUMPDEST PUSH2 0x800 DUP2 DUP6 PUSH2 0x796 JUMP JUMPDEST SWAP4 POP PUSH2 0x810 DUP2 DUP6 PUSH1 0x20 DUP7 ADD PUSH2 0x7A7 JUMP JUMPDEST PUSH2 0x819 DUP2 PUSH2 0x7DA JUMP JUMPDEST DUP5 ADD SWAP2 POP POP SWAP3 SWAP2 POP POP JUMP JUMPDEST PUSH1 0x0 PUSH1 0x20 DUP3 ADD SWAP1 POP DUP2 DUP2 SUB PUSH1 0x0 DUP4 ADD MSTORE PUSH2 0x83E DUP2 DUP5 PUSH2 0x7EB JUMP JUMPDEST SWAP1 POP SWAP3 SWAP2 POP POP JUMP JUMPDEST PUSH32 0x4E487B7100000000000000000000000000000000000000000000000000000000 PUSH1 0x0 MSTORE PUSH1 0x21 PUSH1 0x4 MSTORE PUSH1 0x24 PUSH1 0x0 REVERT JUMPDEST PUSH1 0x3 DUP2 LT PUSH2 0x886 JUMPI PUSH2 0x885 PUSH2 0x846 JUMP JUMPDEST JUMPDEST POP JUMP JUMPDEST PUSH1 0x0 DUP2 SWAP1 POP PUSH2 0x897 DUP3 PUSH2 0x875 JUMP JUMPDEST SWAP2 SWAP1 POP JUMP JUMPDEST PUSH1 0x0 PUSH2 0x8A7 DUP3 PUSH2 0x889 JUMP JUMPDEST SWAP1 POP SWAP2 SWAP1 POP JUMP JUMPDEST PUSH2 0x8B7 DUP2 PUSH2 0x89C JUMP JUMPDEST DUP3 MSTORE POP POP JUMP JUMPDEST PUSH1 0x0 PUSH1 0x20 DUP3 ADD SWAP1 POP PUSH2 0x8D2 PUSH1 0x0 DUP4 ADD DUP5 PUSH2 0x8AE JUMP JUMPDEST SWAP3 SWAP2 POP POP JUMP JUMPDEST PUSH1 0x0 DUP2 SWAP1 POP SWAP2 SWAP1 POP JUMP JUMPDEST PUSH1 0x0 PUSH2 0x8FD PUSH2 0x8F8 PUSH2 0x8F3 DUP5 PUSH2 0x72F JUMP JUMPDEST PUSH2 0x8D8 JUMP JUMPDEST PUSH2 0x72F JUMP JUMPDEST SWAP1 POP SWAP2 SWAP1 POP JUMP JUMPDEST PUSH1 0x0 PUSH2 0x90F DUP3 PUSH2 0x8E2 JUMP JUMPDEST SWAP1 POP SWAP2 SWAP1 POP JUMP JUMPDEST PUSH1 0x0 PUSH2 0x921 DUP3 PUSH2 0x904 JUMP JUMPDEST SWAP1 POP SWAP2 SWAP1 POP JUMP JUMPDEST PUSH2 0x931 DUP2 PUSH2 0x916 JUMP JUMPDEST DUP3 MSTORE POP POP JUMP JUMPDEST PUSH1 0x0 PUSH1 0x20 DUP3 ADD SWAP1 POP PUSH2 0x94C PUSH1 0x0 DUP4 ADD DUP5 PUSH2 0x928 JUMP JUMPDEST SWAP3 SWAP2 POP POP JUMP JUMPDEST PUSH1 0x0 DUP2 SWAP1 POP SWAP2 SWAP1 POP JUMP JUMPDEST PUSH2 0x965 DUP2 PUSH2 0x952 JUMP JUMPDEST DUP3 MSTORE POP POP JUMP JUMPDEST PUSH1 0x0 PUSH1 0x20 DUP3 ADD SWAP1 POP PUSH2 0x980 PUSH1 0x0 DUP4 ADD DUP5 PUSH2 0x95C JUMP JUMPDEST SWAP3 SWAP2 POP POP JUMP JUMPDEST PUSH32 0x4E487B7100000000000000000000000000000000000000000000000000000000 PUSH1 0x0 MSTORE PUSH1 0x22 PUSH1 0x4 MSTORE PUSH1 0x24 PUSH1 0x0 REVERT JUMPDEST PUSH1 0x0 PUSH1 0x2 DUP3 DIV SWAP1 POP PUSH1 0x1 DUP3 AND DUP1 PUSH2 0x9CD JUMPI PUSH1 0x7F DUP3 AND SWAP2 POP JUMPDEST PUSH1 0x20 DUP3 LT DUP2 EQ ISZERO PUSH2 0x9E1 JUMPI PUSH2 0x9E0 PUSH2 0x986 JUMP JUMPDEST JUMPDEST POP SWAP2 SWAP1 POP JUMP JUMPDEST PUSH32 0x436F6E747261637420737461747573206973206E6F7420657175616C20746F20 PUSH1 0x0 DUP3 ADD MSTORE PUSH32 0x6F70656E00000000000000000000000000000000000000000000000000000000 PUSH1 0x20 DUP3 ADD MSTORE POP JUMP JUMPDEST PUSH1 0x0 PUSH2 0xA43 PUSH1 0x24 DUP4 PUSH2 0x796 JUMP JUMPDEST SWAP2 POP PUSH2 0xA4E DUP3 PUSH2 0x9E7 JUMP JUMPDEST PUSH1 0x40 DUP3 ADD SWAP1 POP SWAP2 SWAP1 POP JUMP JUMPDEST PUSH1 0x0 PUSH1 0x20 DUP3 ADD SWAP1 POP DUP2 DUP2 SUB PUSH1 0x0 DUP4 ADD MSTORE PUSH2 0xA72 DUP2 PUSH2 0xA36 JUMP JUMPDEST SWAP1 POP SWAP2 SWAP1 POP JUMP JUMPDEST PUSH32 0x4F6E6C792072656665726565206F722063726561746F722063616E206661696C PUSH1 0x0 DUP3 ADD MSTORE PUSH32 0x20636F6E74726163740000000000000000000000000000000000000000000000 PUSH1 0x20 DUP3 ADD MSTORE POP JUMP JUMPDEST PUSH1 0x0 PUSH2 0xAD5 PUSH1 0x29 DUP4 PUSH2 0x796 JUMP JUMPDEST SWAP2 POP PUSH2 0xAE0 DUP3 PUSH2 0xA79 JUMP JUMPDEST PUSH1 0x40 DUP3 ADD SWAP1 POP SWAP2 SWAP1 POP JUMP JUMPDEST PUSH1 0x0 PUSH1 0x20 DUP3 ADD SWAP1 POP DUP2 DUP2 SUB PUSH1 0x0 DUP4 ADD MSTORE PUSH2 0xB04 DUP2 PUSH2 0xAC8 JUMP JUMPDEST SWAP1 POP SWAP2 SWAP1 POP JUMP JUMPDEST PUSH32 0x4F6E6C7920726566657265652063616E20636F6D706C657465206120636F6E74 PUSH1 0x0 DUP3 ADD MSTORE PUSH32 0x7261637400000000000000000000000000000000000000000000000000000000 PUSH1 0x20 DUP3 ADD MSTORE POP JUMP JUMPDEST PUSH1 0x0 PUSH2 0xB67 PUSH1 0x24 DUP4 PUSH2 0x796 JUMP JUMPDEST SWAP2 POP PUSH2 0xB72 DUP3 PUSH2 0xB0B JUMP JUMPDEST PUSH1 0x40 DUP3 ADD SWAP1 POP SWAP2 SWAP1 POP JUMP JUMPDEST PUSH1 0x0 PUSH1 0x20 DUP3 ADD SWAP1 POP DUP2 DUP2 SUB PUSH1 0x0 DUP4 ADD MSTORE PUSH2 0xB96 DUP2 PUSH2 0xB5A JUMP JUMPDEST SWAP1 POP SWAP2 SWAP1 POP JUMP INVALID LOG2 PUSH5 0x6970667358 0x22 SLT KECCAK256 0x1E DUP13 PUSH14 0xDF7CAC4B1EBA51B78AEDE907A84B 0xD7 CODECOPY BASEFEE CREATE 0xD7 0xE1 PUSH19 0xCE506CFA84CE0A2964736F6C634300080C0033 LOG2 PUSH5 0x6970667358 0x22 SLT KECCAK256 TIMESTAMP STOP 0xE0 0xBE PUSH19 0xE769F00EBB90DF343535A0F0F352435F71E157 0x4C 0xD3 0xC7 0xAC CREATE2 ADDMOD SWAP6 0xED PUSH5 0x736F6C6343 STOP ADDMOD 0xC STOP CALLER "},"gasEstimates":{"creation":{"codeDepositCost":"2489000","executionCost":"2680","totalCost":"2491680"},"external":{"completeOpenAccountabilityContract(address,address)":"infinite","createAccountabilityContract(address,string,string,address)":"infinite","failOpenAccountabilityContract(address,address)":"infinite","getClosedAccountabilityContractAddressesForReferee(address)":"infinite","getClosedAccountabilityContractAddressesForUser(address)":"infinite","getOpenAccountabilityContractAddressesForReferee(address)":"infinite","getOpenAccountabilityContractAddressesForUser(address)":"infinite","numberOfReferees()":"2495","numberOfUsers()":"2518","referees(address)":"2895","users(address)":"2850"},"internal":{"getContractIndexForReferee(address,address)":"infinite","getContractIndexForUser(address,address)":"infinite","moveOpenContractToClosedContractsForReferee(address,address)":"infinite","moveOpenContractToClosedContractsForUser(address,address)":"infinite"}},"methodIdentifiers":{"completeOpenAccountabilityContract(address,address)":"cc785850","createAccountabilityContract(address,string,string,address)":"e436e826","failOpenAccountabilityContract(address,address)":"4ac0b82d","getClosedAccountabilityContractAddressesForReferee(address)":"19ee8bd4","getClosedAccountabilityContractAddressesForUser(address)":"b24e67d0","getOpenAccountabilityContractAddressesForReferee(address)":"9051e234","getOpenAccountabilityContractAddressesForUser(address)":"442a7bc7","numberOfReferees()":"b3b6633e","numberOfUsers()":"75ce46a7","referees(address)":"64a60b47","users(address)":"a87430ba"}}}